
Source Code


000002:                                                                                                  ## Copyright:   Public domain.
000003:                                                                                                  ## Filename:    TVCINITIALIZE.agc
000004:                                                                                                  ## Purpose:     A section of Manche45 revision 2.
000005:                                                                                                  ##              It is part of the reconstructed source code for the
000006:                                                                                                  ##              final, flown release of the flight software for the Command
000007:                                                                                                  ##              Module's (CM) Apollo Guidance Computer (AGC) for Apollo 10.
000008:                                                                                                  ##              The code has been recreated from a copy of Comanche 055. It
000009:                                                                                                  ##              has been adapted such that the resulting bugger words
000010:                                                                                                  ##              exactly match those specified for Manche 45/2 in NASA drawing
000011:                                                                                                  ##              2021153D, which gives relatively high confidence that the
000012:                                                                                                  ##              reconstruction is correct.
000013:                                                                                                  ## Assembler:   yaYUL
000014:                                                                                                  ## Contact:     Ron Burkey <info@sandroid.org>.
000015:                                                                                                  ## Website:     www.ibiblio.org/apollo/index.html
000016:                                                                                                  ## Mod history: 2020-12-24 MAS  Created from Comanche 45.
000017:


000019:                                                                                                  #  NAME          TVCDAPON (TVC DAP INITIALIZATION AND STARTUP CALL)
000020:                                                                                                  #  LOG SECTION...TVCINITIALIZE                   SUBROUTINE...DAPCSM
000021:                                                                                                  #  MODIFIED BY SCHLUNDT                          21 OCTOBER 1968
000022:                                                                                                  #  FUNCTIONAL DESCRIPTION
000023:                                                                                                  #        PERFORMS TVCDAP INITIALIZATION (GAINS, TIMING PARAMETERS, FILTER VARIABLES, ETC.)
000024:                                                                                                  #        COMPUTES STEERING (S40.8) GAIN KPRIMEDT, AND ZEROES PASTDELV,+1 VARIABLE
000025:                                                                                                  #        MAKES INITIALIZATION CALL TO ..NEEDLER.. FOR TVC DAP NEEDLES-SETUP
000026:                                                                                                  #        PERFORMS INITIALIZATION FOR ROLL DAP
000027:                                                                                                  #        CALLS TVCEXECUTIVE AT TVCEXEC, VIA WAITLIST
000028:                                                                                                  #        CALLS TVCDAP CDU-RATE INITIALIZATION PKG AT DAPINIT  VIA T5
000029:                                                                                                  #        PROVIDES FOR LOADING OF LOW-BANDWIDTH COEFFS AND GAINS AT SWICHOVR
000030:                                                                                                  #  CALLING SEQUENCE - T5LOC=2CADR(TVCDAPON,EBANK=BZERO), T5=.6SECT5
000031:                                                                                                  #        IN PARTICULAR, CALLED BY ..DOTVCON.. IN P40
000032:                                                                                                  #        MRCLEAN AND TVCINIT4 ARE POSSIBLE RESTART ENTRY POINTS
000033:                                                                                                  #  NORMAL EXIT MODE
000034:                                                                                                  #        TCF RESUME
000035:                                                                                                  #  SUBROUTINES CALLED
000036:                                                                                                  #        NEEDLER, MASSPROP
000037:                                                                                                  #  ALARM OR ABORT EXIT MODES
000038:                                                                                                  #        NONE
000039:                                                                                                  #  ERASABLE INITIALIZATION REQUIRED
000040:                                                                                                  #        CSMMASS, LEMMASS, DAPDATR1 (FOR MASSPROP SUBROUTINE)
000041:                                                                                                  #        TVC PAD LOADS (SEE EBANK6 IN ERASABLE ASSIGNMENTS)
000042:                                                                                                  #        PACTOFF, YACTOFF, CDUX
000043:                                                                                                  #        TVCPHASE AND THE T5 BITS OF FLAGWRD6 (SET AT DOTVCON IN P40)
000044:                                                                                                  #  OUTPUT
000045:                                                                                                  #        ALL TVC AND ROLL DAP ERASABLES, FLAGWRD6 (BITS 13,14), T5, WAITLIST
000046:                                                                                                  #  DEBRIS
000047:                                                                                                  #        NONE
000048:
000049: 42,3772                                           COUNT*   $$/INIT
000050: 17,2153                                           BANK     17
000051: 17,2000                                           SETLOC   DAPS7
000052: 17,2000                                           BANK
000053:
000054: 17,2153  E6,1702                                  EBANK=   BZERO
000055:
000056: 17,2153           22016        TVCDAPON           LXCH     BANKRUPT                              #  T5 RUPT ARRIVAL (CALL BY DOTVCON - P40)
000057: 17,2154           00006                           EXTEND                                         #  SAVE Q REQUIRED IN RESTARTS (MRCLEAN AND
000058: 17,2155           22012                           QXCH     QRUPT                                 #        TVCINIT4 ARE ENTRIES)
000059: 17,2156           32534        MRCLEAN            CAF      NZERO                                 #  NUMBER TO ZERO, LESS ONE  (MUST BE ODD)
000060:                                                                                                  #        TVC RESTARTS ENTER HERE  (NEW BANK)
000061: 17,2157           10000                 +1        CCS      A
000062: 17,2160           55447                           TS       CNTR
000063: 17,2161           35021                           CAF      ZERO
000064: 17,2162           54001                           TS       L
000065: 17,2163           51447                           INDEX    CNTR
000066: 17,2164           53530                           DXCH     OMEGAYC                               #  FIRST (LAST) TWO LOCATIONS
000067: 17,2165           11447                           CCS      CNTR
000068: 17,2166           12157                           TCF      MRCLEAN    +1


000070: 17,2167           00006                           EXTEND                                         #  SET UP ANOTHER T5 RUPT TO CONTINUE
000071: 17,2170           32551                           DCA      INITLOC2                              #        INITIALIZATION AT TVCINIT1
000072: 17,2171           53313                           DXCH     T5LOC                                 #  THE PHSCHK2 ENTRY (REDOTVC) AT TVCDAPON
000073: 17,2172           34777                           CAF      POSMAX                                #        +3 IS IN ANOTHER BANK.  MUST RESET
000074: 17,2173           54030                           TS       TIME5                                 #        BBCON TOO (FULL 2CADR), FOR THAT
000075: 17,2174           15333        ENDMRC             TCF      RESUME                                #        ENTRY.
000076:
000077: 17,2175           22016        TVCINIT1           LXCH     BANKRUPT
000078: 17,2176           00006                           EXTEND
000079: 17,2177           22012                           QXCH     QRUPT
000080:
000081: 17,2200           04740                           TC       IBNKCALL                              #  UPDATE IXX, IAVG/TLX FOR DAP GAINS (R03
000082: 17,2201           13366                           CADR     MASSPROP                              #        OR NOUNS 46 AND 47 MUST BE CORRECT)
000083:
000084: 17,2202           30110                           CAE      EMDOT                                 #  SPS FLOW RATE, SCALED B+3 KG/CS
000085: 17,2203           00006                           EXTEND
000086: 17,2204           72545                           MP       ONETHOU
000087: 17,2205           55637                           TS       TENMDOT                               #  10-SEC MASS LOSS B+16 KG
000088: 17,2206           40000                           COM
000089: 17,2207           61474                           AD       CSMMASS
000090: 17,2210           55652                           TS       MASSTMP                               #  DECREMENT FOR FIRST 10 SEC OF BURN
000091:
000092: 17,2211           31466                           CAE      DAPDATR1                              #  CHECK LEM-ON/OFF
000093: 17,2212           75002                           MASK     BIT14
000094: 17,2213           10000                           CCS      A
000095: 17,2214           35017                           CAF      BIT1                                  #  LEM-ON (BIT1)
000096: 17,2215           55447                           TS       CNTR                                  #  LEM-OFF (ZERO)
000097:
000098: 17,2216           51447                           INDEX    CNTR                                  #  LOAD THE FILTER COEFFICIENTS
000099: 17,2217           32531                           CAF      CSMCFADR
000100: 17,2220           55722                           TS       COEFFADR
000101: 17,2221           02422                           TC       LOADCOEF
000102:
000103: 17,2222           51447                           INDEX    CNTR                                  #  PICK UP LM-OFF,-ON KTLX/I
000104: 17,2223           31416                           CAE      EKTLX/I                               #  SCALED AT 1/(8 ASCREV) OF ACTUAL VALUE
000105: 17,2224           55636                           TS       KTLX/I
000106:
000107: 17,2225           02462                           TCR      S40.15                                #  COMPUTE 1/CONACC, VARK
000108:
000109: 17,2226           41447        TVCINIT2           CS       CNTR                                  #  PICK LM-OFF,-ON VALUE FOR FILTER PERIOD
000110: 17,2227           50000                           INDEX    A                                     #  DETERMINATION:
000111: 17,2230           35016                           CAF      BIT2                                  #        BIT2 FOR CSM ONLY 40MS FILTER
000112: 17,2231           55634                           TS       KPRIMEDT                              #        BIT3 FOR CSM/LM 80MS FILTER
000113:
000114: 17,2232           40000                           COM                                            #  PREPARE T5TVCDT
000115: 17,2233           64777                           AD       POSMAX
000116: 17,2234           65017                           AD       BIT1
000117: 17,2235           55625                           TS       T5TVCDT
000118:
000119: 17,2236           45001                           CS       BIT15                                 #  RESET SWTOVER FLAG


000121: 17,2237           70105                           MASK     FLAGWRD9
000122: 17,2240           54105                           TS       FLAGWRD9
000123:
000124: 17,2241           51447                           INDEX    CNTR                                  #  PICK UP LEM-OFF,-ON KPRIME
000125: 17,2242           31414                           CAE      EKPRIME                               #        SCALED (100 PI)/16
000126: 17,2243           00006                           EXTEND
000127: 17,2244           71634                           MP       KPRIMEDT                              #  (TVCDT/2, SC.AT B+14 CS)
000128: 17,2245           22000                           LXCH     A                                     #        SC.AT PI/8      (DIMENSIONLESS)
000129: 17,2246           53635                           DXCH     KPRIMEDT
000130:
000131: 17,2247           51447                           INDEX    CNTR                                  #  PICK UP LEM-OFF,-ON REPFRAC
000132: 17,2250           31421                           CAE      EREPFRAC
000133: 17,2251           55642                           TS       REPFRAC
000134:
000135: 17,2252           51447                           INDEX    CNTR                                  #  PICK UP ONE-SHOT CORRECTION TIME
000136: 17,2253           32540                           CAF      TCORR
000137: 17,2254           55447                           TS       CNTR
000138:
000139: 17,2255           37716                           CAF      NEGONE                                #  PREVENT STROKE TEST UNTIL CALLED
000140: 17,2256           55654                           TS       STRKTIME
000141:
000142: 17,2257           34374                           CAF      NINETEEN                              #  SET VCNTR FOR VARIABLE-GAIN UPDATES IN
000143: 17,2260           55643                           TS       VCNTR                                 #        10 SECONDS (TVCEXEC 1/2 SEC RATE)
000144: 17,2261           55444                           TS       V97VCNTR                              #  FOR ENGFAIL (R41) LOGIC
000145:
000146: 17,2262           31423        TVCINIT3           CAE      PACTOFF                               #  TRIM VALUES TO TRIM-TRACKERS, OUTPUT
000147: 17,2263           55605                           TS       PDELOFF                               #        TRACKERS, OFFSET-UPDATES, AND
000148: 17,2264           55623                           TS       PCMD                                  #        OFFSET-TRACKER FILTERS
000149: 17,2265           55601                           TS       DELPBAR                               #        NOTE, LO-ORDER DELOFF,DELBAR ZEROED
000150:
000151: 17,2266           31424                           CAE      YACTOFF
000152: 17,2267           55607                           TS       YDELOFF
000153: 17,2270           55624                           TS       YCMD
000154: 17,2271           55603                           TS       DELYBAR
000155:
000156: 17,2272           12317        ATTINIT            TCF      NEEDLEIN
000157: 17,2273           55611                 +1        TS       TTMP1
000158:
000159: 17,2274           51611                           INDEX    TTMP1
000160: 17,2275           31702                           CA       ERRBTMP                               #  ERRBTMP CONTAINS RCS ATTITUDE ERRORS
000161: 17,2276           00006                           EXTEND                                         #        ERRORY & ERRORZ (P40 AT DOTVCON)
000162: 17,2277           72537                           MP       1/ATTLIM                              #  .007325(ERROR) = 0 IF ERROR < 1.5 DEG
000163: 17,2300           00006                           EXTEND
000164: 17,2301           12311                           BZF      +8D                                   #        |ERROR| LESS THAN 1.5 DEG
000165: 17,2302           00006                           EXTEND


000167: 17,2303           62306                           BZMF     +3                                    #        |ERROR| > 1.5 DEG, AND NEG
000168: 17,2304           32536                           CA       ATTLIM                                #        |ERROR| > 1.5 DEG, AND POS
000169: 17,2305           12307                           TCF      +2
000170: 17,2306           42536                 +3        CS       ATTLIM
000171: 17,2307           51611                 +2        INDEX    TTMP1
000172: 17,2310           55702                           TS       ERRBTMP
000173: 17,2311           11611                 +8        CCS      TTMP1                                 #        TEST TEMPORARY COUNTER
000174: 17,2312           12273                           TCF      ATTINIT    +1                         #        BACK TO REPEAT FOR PITCH ERROR
000175:
000176: 17,2313           31702                           CA       ERRBTMP                               #  ERRORS ESTABLISHED AND LIMITED
000177: 17,2314           55575                           TS       PERRB
000178: 17,2315           31703                           CA       ERRBTMP    +1
000179: 17,2316           55577                           TS       YERRB
000180:
000181: 17,2317           41501        NEEDLEIN           CS       RCSFLAGS                              #  SET BIT 3 FOR INITIALIZATION PASS AND GO
000182: 17,2320           75015                           MASK     BIT3                                  #        TO NEEDLER.  WILL CLEAR FOR TVC DAP
000183: 17,2321           27501                           ADS      RCSFLAGS                              #        (RETURNS AFTER CADR)
000184: 17,2322           04740                           TC       IBNKCALL
000185: 17,2323           42420                           CADR     NEEDLER
000186:
000187: 17,2324           35021        TVCINIT4           CAF      ZERO                                  #  SET TVCPHASE TO INDICATE TVCDAPON-THRU-
000188: 17,2325           55644                           TS       TVCPHASE                              #        NEEDLEIN INITIALIZATION FINISHED.
000189:                                                                                                  #        (POSSIBLE TVC-RESTART ENTRY)
000190:
000191: 17,2326           30032                           CAE      CDUX                                  #  PREPARE ROLL DAP
000192: 17,2327           55662                           TS       OGANOW
000193:
000194: 17,2330           35003                           CAF      BIT13                                 #  IF ENGINE IS ALREADY OFF, ENGINOFF HAS
000195: 17,2331           00006                           EXTEND                                         #        ALREADY ESTABLISHED THE POST-BURN
000196: 17,2332           02011                           RAND     DSALMOUT                              #        CSMMASS (MASSBACK DOES IT).  DONT
000197: 17,2333           00006                           EXTEND                                         #        TOUCH CSMMASS.  IF ENGINE IS ON,
000198: 17,2334           12337                           BZF      +3                                    #        THEN ITS OK TO DO THE COPYCYCLE
000199:                                                                                                  #        EVEN BURNS LESS THAN 0.4 SEC ARE AOK
000200:
000201: 17,2335           31652                           CAE      MASSTMP                               #  COPYCYCLE
000202: 17,2336           55474                           TS       CSMMASS
000203:
000204: 17,2337           35036                 +3        CAF      .5SEC                                 #  CALL TVCEXECUTIVE (ROLLDAP CALL, ETC)
000205: 17,2340           05245                           TC       WAITLIST
000206: 17,2341  E6,1702                                  EBANK=   BZERO
000207: 17,2341           02715 34066                     2CADR    TVCEXEC
000208:
000209: 17,2343           00006                           EXTEND                                         #  CALL FOR DAPINIT
000210: 17,2344           32547                           DCA      DAPINIT5
000211: 17,2345           53313                           DXCH     T5LOC
000212: 17,2346           31625                           CAE      T5TVCDT                               #  (ALLOW TIME FOR RESTART COMPUTATIONS)
000213: 17,2347           54030                           TS       TIME5


000215: 17,2350           15333        ENDTVCIN           TCF      RESUME
000216:
000217: 17,2351           02354        PRESWTCH           TCR      SWICHOVR                              #  ENTRY FROM V46
000218:
000219: 17,2352           04701                           TC       POSTJUMP                              #  THIS PROVIDES AN EXIT FROM SWITCH-OVER
000220: 17,2353           21272                           CADR     PINBRNCH                              #        (PINBRNCH DOES A RELINT)
000221:
000222: 17,2354           00004        SWICHOVR           INHINT
000223: 17,2355           31644                           CA       TVCPHASE                              #  SAVE TVCPHASE
000224: 17,2356           55611                           TS       PHASETMP
000225: 17,2357           45016                           CS       BIT2                                  #  SET TVCPHASE = -2 (INDICATES SWITCH-OVER
000226: 17,2360           55644                           TS       TVCPHASE                              #        TO RESTART LOGIC)
000227:
000228: 17,2361           00006                 +5        EXTEND                                         #  SAVE Q FOR RETURN (RESTART ENTRY POINT,
000229: 17,2362           23613                           QXCH     RTRNLOC                               #        TVCPHASE AND PHASETMP ALREADY SET)
000230:
000231: 17,2363           32535                           CAF      NZEROJR                               #  ZEROING LOOP FOR FILTER STORAGE LOCS
000232: 17,2364           55676                 +8        TS       CNTRTMP
000233:
000234: 17,2365           35021        MCLEANJR           CA       ZERO
000235: 17,2366           54001                           TS       L
000236: 17,2367           51676                           INDEX    CNTRTMP
000237: 17,2370           53541                           DXCH     PTMP1      -1
000238: 17,2371           11676                           CCS      CNTRTMP
000239: 17,2372           10000                           CCS      A
000240: 17,2373           12364                           TCF      SWICHOVR   +8D
000241:
000242: 17,2374           40105                           CS       FLAGWRD9                              #  SET SWITCHOVER FLAG FOR DOWNLINK
000243: 17,2375           75001                           MASK     BIT15
000244: 17,2376           26105                           ADS      FLAGWRD9
000245:
000246: 17,2377           31420                           CAE      EKTLX/I    +2                         #  LOW BANDWIDTH GAINS   - DAP
000247: 17,2400           55636                           TS       KTLX/I
000248: 17,2401           02471                           TCR      S40.15     +7
000249:
000250: 17,2402           32542                           CAF      FKPRIMDT                              #                        - STEERING
000251: 17,2403           55634                           TS       KPRIMEDT
000252:
000253: 17,2404           32543                           CAF      FREPFRAC                              #                        - TMC LOOP
000254: 17,2405           55642                           TS       REPFRAC
000255:
000256: 17,2406           00006                           EXTEND                                         #  UPDATE TRIM ESTIMATES
000257: 17,2407           31602                           DCA      DELPBAR
000258: 17,2410           53606                           DXCH     PDELOFF
000259: 17,2411           00006                           EXTEND
000260: 17,2412           31604                           DCA      DELYBAR
000261: 17,2413           53610                           DXCH     YDELOFF
000262:
000263: 17,2414           32533                           CA       LBCFADR


000265: 17,2415           55722                           TS       COEFFADR
000266: 17,2416           02422                           TC       LOADCOEF
000267:
000268: 17,2417           31611                           CAE      PHASETMP                              #  RESTORE TVCPHASE
000269: 17,2420           55644                           TS       TVCPHASE
000270:
000271: 17,2421           01613                           TC       RTRNLOC                               #  BACK TO PRESWTCH OR TVCRESTARTS
000272:
000273: 17,2422           00006        LOADCOEF           EXTEND                                         #  LOAD DAP FILTER COEFFICIENTS
000274: 17,2423           51722                           INDEX    COEFFADR                              #    FROM: ERASABLE FOR CSM/LM HB
000275: 17,2424           30001                           DCA      0                                     #          FIXED    FOR CSM/LM LB
000276: 17,2425           53724                           DXCH     N10                                   #          FIXED    FOR CSM
000277:
000278: 17,2426           00006                           EXTEND                                         #  NOTE: FOR CSM/LM, NORMAL COEFFICIENT
000279: 17,2427           51722                           INDEX    COEFFADR                              #  LOAD WILL BE HIGH BANDWIDTH PAD LOAD
000280: 17,2430           30003                           DCA      2                                     #  ERASABLES. DURING CSM/LM SWITCHOVER,
000281: 17,2431           53726                           DXCH     N10        +2                         #  THIS LOGIC IS USED TO LOAD LOW BANDWIDTH
000282:                                                                                                  #  COEFFICIENTS FROM FIXED MEMORY.
000283:
000284: 17,2432           00006                           EXTEND
000285: 17,2433           51722                           INDEX    COEFFADR
000286: 17,2434           30005                           DCA      4
000287: 17,2435           53730                           DXCH     N10        +4
000288:
000289: 17,2436           00006                           EXTEND
000290: 17,2437           51722                           INDEX    COEFFADR
000291: 17,2440           30007                           DCA      6
000292: 17,2441           53732                           DXCH     N10        +6
000293:
000294: 17,2442           00006                           EXTEND
000295: 17,2443           51722                           INDEX    COEFFADR
000296: 17,2444           30011                           DCA      8D
000297: 17,2445           53734                           DXCH     N10        +8D
000298:
000299: 17,2446           00006                           EXTEND
000300: 17,2447           51722                           INDEX    COEFFADR
000301: 17,2450           30013                           DCA      10D
000302: 17,2451           53736                           DXCH     N10        +10D
000303:
000304: 17,2452           00006                           EXTEND
000305: 17,2453           51722                           INDEX    COEFFADR
000306: 17,2454           30015                           DCA      12D
000307: 17,2455           53740                           DXCH     N10        +12D
000308:
000309: 17,2456           51722                           INDEX    COEFFADR
000310: 17,2457           30016                           CA       14D
000311: 17,2460           55741                           TS       N10        +14D
000312:
000313: 17,2461           00002                           TC       Q


000315: 17,2462           31470        S40.15             CAE      IXX                                   #  GAIN COMPUTATIONS (1/CONACC, VARK)
000316: 17,2463           00006                           EXTEND                                         #  ENTERED FROM TVCINITIALIZE AND TVCEXEC
000317: 17,2464           72544                           MP       2PI/M                                 #        2PI/M SCALED 1/(B+8 N M)
000318: 17,2465           20001                           DDOUBL                                         #        IXX   SCALED B+20 KG-MSQ
000319: 17,2466           20001                           DDOUBL
000320: 17,2467           20001                           DDOUBL
000321: 17,2470           55640                           TS       1/CONACC                              #              SCALED B+9 SEC-SQ/REV
000322:
000323: 17,2471           31636                 +7        CAE      KTLX/I                                #  ENTRY FROM CSM/LM V46 SWITCH-OVER
000324: 17,2472           00006                           EXTEND                                         #             SCALED (B+3 ASCREV)  1/SECSQ
000325: 17,2473           71472                           MP       IAVG/TLX                              #             SCALED B+2 SECSQ
000326: 17,2474           20001                           DDOUBL
000327: 17,2475           20001                           DDOUBL
000328: 17,2476           55641                           TS       VARK                                  #             SCALED (B+3 ASCREV)
000329: 17,2477           00002                           TC       Q
000330:
000331: 17,2500           37777        CSMN10             DEC      .99999                                #  N10   CSM ONLY FILTER COEFFICIENTS
000332: 17,2501           67657                           DEC      -.2549                                #  N11/2
000333: 17,2502           01703                           DEC      .0588                                 #  N12
000334: 17,2503           47472                           DEC      -.7620                                #  D11/2
000335: 17,2504           27656                           DEC      .7450                                 #  D12
000336:
000337: 17,2505           37777                           DEC      .99999                                #  N20
000338: 17,2506           60361                           DEC      -.4852                                #  N21/2
000339: 17,2507           00000                           DEC      0          B-14                       #  N22
000340: 17,2510           67304                           DEC      -.2692                                #  D22/2
000341: 17,2511           00000                           DEC      0          B-14                       #  D22
000342:
000343: 17,2512           37777        LBN10              DEC      +.99999                               #  N10   LOW BANDWIDTH FILTER COEFFICIENTS
000344: 17,2513           65371                           DEC      -.3285                                #  N11/2
000345: 17,2514           65337                           DEC      -.3301                                # N12
000346: 17,2515           42700                           DEC      -.9101                                # D11/2
000347: 17,2516           33045                           DEC      +.8460                                # D12
000348:
000349: 17,2517           01000                           DEC      +.03125                               # N20
000350: 17,2520           00000                           DEC      0          B-14                       # N21/2
000351: 17,2521           00000                           DEC      0          B-14                       # N22
000352: 17,2522           42700                           DEC      -.9101                                # D21/2
000353: 17,2523           33045                           DEC      +.8460                                # D22
000354:
000355: 17,2524           20000                           DEC      +.50000                               # N30
000356: 17,2525           60730                           DEC      -.47115                               # N31/2
000357: 17,2526           17145                           DEC      +.4749                                # N32
000358: 17,2527           41323                           DEC      -.9558                                # D31/2
000359: 17,2530           35773                           DEC      +.9372                                # D32
000360:
000361: 17,2531           02500        CSMCFADR           GENADR   CSMN10                                #  CSM ONLY COEFFICIENTS ADDRESS
000362: 17,2532           01425        HBCFADR            GENADR   HBN10                                 #  HIGH BANDWIDTH COEFFICIENTS ADDRESS


000364: 17,2533           02512        LBCFADR            GENADR   LBN10                                 #  LOW BANDWIDTH COEFFICIENTS ADDRESS
000365:
000366: 17,2534           00063        NZERO              DEC      51         B-14                       #  MUST BE ODD FOR MRCLEAN
000367: 17,2535           00027        NZEROJR            DEC      23         B-14                       #  MUST BE ODD FOR MCLEANJR
000368:
000369: 17,2536           00210        ATTLIM             DEC      0.00833                               #  INITIAL ATTITUDE ERROR LIMIT (1.5 DEG)
000370: 17,2537           00170        1/ATTLIM           DEC      0.007325                              #  .007325(ERROR) = 0 IF ERROR < 1.5 DEG
000371:
000372: 17,2540           00005        TCORR              OCT      00005                                 #  CSM
000373: 17,2541           00000                 +1        OCT      00000                                 #  CSM/LM (HB,LB)
000374:
000375: 17,2542           00247        FKPRIMDT           DEC      .0102                                 #  CSM/LM (LB), (.05 X .08) SCALED AT PI/8
000376: 17,2543           00232        FREPFRAC           DEC      .0375      B-2                        #  CSM/LM (LB), 0.0375 SCALED AT B+2
000377:
000378: 17,2544     4374               NINETEEN           =        VD1
000379: 17,2544           33074        2PI/M              DEC      .00331017  B+8                        #  2PI/M, SCALED AT 1/(B+8 N-M)
000380:
000381: 17,2545           03720        ONETHOU            DEC      1000       B-13                       #  KG/CS B3 TO KG/10SEC B16 CONVERSION
000382:
000383: 17,2546  E6,1702                                  EBANK=   BZERO
000384: 17,2546           03107 40066  DAPINIT5           2CADR    DAPINIT
000385:
000386: 17,2550  E6,1702                                  EBANK=   BZERO
000387: 17,2550           02175 36066  INITLOC2           2CADR    TVCINIT1

End of include-file TVCINITIALIZE.agc.  Parent file is MAIN.agc


