
Source Code


000002:                                                                                                  ## Copyright:   Public domain.
000003:                                                                                                  ## Filename:    ALARM_AND_ABORT.agc
000004:                                                                                                  ## Purpose:     A section of LM131 revision 1.
000005:                                                                                                  ##              It is part of the reconstructed source code for the final
000006:                                                                                                  ##              release of the flight software for the Lunar Module's (LM)
000007:                                                                                                  ##              Apollo Guidance Computer (AGC) for Apollo 13. The code has
000008:                                                                                                  ##              been reconstructed from a listing of Luminary 131 and a dump
000009:                                                                                                  ##              of a core rope memory module B5, part number 2010802-171,
000010:                                                                                                  ##              which is the only module different between LM131 revision 1
000011:                                                                                                  ##              and Luminary 131. The executable generated from this source
000012:                                                                                                  ##              has been verified against the module dump, so while the names,
000013:                                                                                                  ##              comments, and ordering may not be exactly correct, the
000014:                                                                                                  ##              resulting binary is.
000015:                                                                                                  ## Reference:   pp. 1373-1377
000016:                                                                                                  ## Assembler:   yaYUL
000017:                                                                                                  ## Contact:     Ron Burkey <info@sandroid.org>.
000018:                                                                                                  ## Website:     www.ibiblio.org/apollo/index.html
000019:                                                                                                  ## Mod history: 2022-10-28 MAS  Created from Luminary 131.
000020:


000022:                                                                                                  #  THE FOLLOWING SUBROUTINE MAY BE CALLED TO DISPLAY A NON-ABORTIVE ALARM CONDITION.  IT MAY BE CALLED
000023:                                                                                                  #  EITHER IN INTERRUPT OR UNDER EXECUTIVE CONTROL.
000024:
000025:                                                                                                  #  CALLING SEQUENCE IS AS FOLLOWS:
000026:                                                                                                  #                TC      ALARM
000027:                                                                                                  #                OCT     AAANN           ALARM NO. NN IN GENERAL AREA AAA.
000028:                                                                                                  #                                        (RETURNS HERE)
000029:
000030:    5567                                           BLOCK    02
000031:    4000                                           SETLOC   FFTAG7
000032:    4000                                           BANK
000033:
000034:    5567     0375                                  EBANK=   FAILREG
000035:
000036:    5567                                           COUNT*   $$/ALARM
000037:
000038:                                                                                                  #  ALARM TURNS ON THE PROGRAM ALARM LIGHT, BUT DOES NOT DISPLAY.
000039:
000040:    5567           00004        ALARM              INHINT
000041:
000042:    5570           30002                           CA       Q
000043:    5571           55363        ALARM2             TS       ALMCADR
000044:    5572           50002                           INDEX    Q
000045:    5573           30000                           CA       0
000046:    5574           54001        BORTENT            TS       L
000047:
000048:    5575           30006        PRIOENT            CA       BBANK
000049:    5576           00006                 +1        EXTEND
000050:    5577           04007                           ROR      SUPERBNK                              #  ADD SUPER BITS.
000051:    5600           55364                           TS       ALMCADR    +1
000052:
000053:    5601           30002        LARMENT            CA       Q                                     #  STORE RETURN FOR ALARM
000054:    5602           54061                           TS       ITEMP1
000055:
000056:    5603           10375        CHKFAIL1           CCS      FAILREG                               #  IS ANYTHING IN FAILREG
000057:    5604           15610                           TCF      CHKFAIL2                              #  YES TRY NEXT REG
000058:    5605           30001                           CA       L
000059:    5606           54375                           TS       FAILREG
000060:    5607           15614                           TCF      PROGLARM                              #  TURN ALARM LIGHT ON FOR FIRST ALARM
000061:
000062:    5610           10376        CHKFAIL2           CCS      FAILREG    +1
000063:    5611           15614                           TCF      PROGLARM
000064:    5612           30001                           CA       L
000065:    5613           54376                           TS       FAILREG    +1
000066:
000067:    5614           22377        PROGLARM           LXCH     FAILREG    +2                         #  STORE AS "MOST RECENT" ALARM CODE
000068:
000069:    5615           41035                           CS       DSPTAB     +11D                       #  TURN ON PROGRAM ALARM IF OFF
000070:    5616           75632                           MASK     OCT40400
000071:    5617           27035                           ADS      DSPTAB     +11D
000072:


000074:    5620           56061        MULTEXIT           XCH      ITEMP1                                #  OBTAIN RETURN ADDRESS IN A
000075:    5621           00003                           RELINT
000076:    5622           50000                           INDEX    A
000077:    5623           00001                           TC       1
000078:
000079:                                                                                                  #  PRIOLARM DISPLAYS V05N09 VIA PRIODSPR WITH 3 RETURNS TO THE USER FROM THE ASTRONAUT AT CALL LOC +1,+2,+3 AND
000080:                                                                                                  #  AN IMMEDIATE RETURN TO THE USER AT CALL LOC +4.  EXAMPLE FOLLOWS,
000081:                                                                                                  #                CAF     OCTXX           ALARM CODE
000082:                                                                                                  #                TC      BANKCALL
000083:                                                                                                  #                CADR    PRIOLARM
000084:                                                                                                  #                ...     ...
000085:                                                                                                  #                ...     ...
000086:                                                                                                  #                ...     ...             ASTRONAUT RETURN
000087:                                                                                                  #                TC      PHASCHNG        IMMEDIATE RETURN TO USER.  RESTART
000088:                                                                                                  #                OCT     X.1             PHASE CHANGE FOR PRIO DISPLAY
000089:
000090: 10,3563                                           BANK     10
000091: 10,2000                                           SETLOC   DISPLAYS
000092: 10,2000                                           BANK
000093:
000094: 10,3563                                           COUNT*   $$/DSPLA
000095: 10,3563           00004        PRIOLARM           INHINT                                         #  * * * KEEP IN DISPLAY ROUTINES BANK
000096: 10,3564           54001                           TS       L                                     #  SAVE ALARM CODE
000097:
000098: 10,3565           30133                           CA       BUF2                                  #  2 CADR OF PRIOLARM USER
000099: 10,3566           55363                           TS       ALMCADR
000100: 10,3567           30134                           CA       BUF2       +1
000101: 10,3570           05576                           TC       PRIOENT    +1                         #  * LEAVE L ALONE
000102: 10,3571           77467        -2SEC              DEC      -200       B-14                       #  *** DONT MOVE
000103: 10,3572           35006                           CAF      V05N09
000104: 10,3573           12505                           TCF      PRIODSPR
000105:
000106:    5624                                           BLOCK    02
000107:    4000                                           SETLOC   FFTAG7
000108:    4000                                           BANK
000109:
000110:    5624                                           COUNT*   $$/ALARM
000111:    5624           00004        BAILOUT            INHINT
000112:    5625           30002                           CA       Q
000113:    5626           55363                           TS       ALMCADR
000114:
000115:    5627           50002                           INDEX    Q
000116:    5630           30000                           CAF      0
000117:    5631           05574                           TC       BORTENT
000118:    5632           40400        OCT40400           OCT      40400
000119:
000120:    5633           00004                           INHINT
000121:    5634           34752        WHIMPER            CA       TWO
000122:    5635           60005                           AD       Z


000124:    5636           54017                           TS       BRUPT
000125:    5637           50017                           RESUME
000126:    5640           04635                           TC       POSTJUMP                              #  RESUME SENDS CONTROL HERE
000127:    5641           12763                           CADR     ENEMA
000128:    5642           00004        POODOO             INHINT
000129:    5643           30002                           CA       Q
000130:    5644           55363        ABORT2             TS       ALMCADR
000131:    5645           50002                           INDEX    Q
000132:    5646           30000                           CAF      0
000133:    5647           05574                           TC       BORTENT
000134:    5650           77770        OCT77770           OCT      77770                                 #  DON'T MOVE
000135:
000136:    5651           34765                           CAF      OCT35                                 #  4.35SPOT FOR GOPOODOO
000137:    5652           54001                           TS       L
000138:    5653           40000                           COM
000139:    5654           52760                           DXCH     -PHASE4
000140:    5655           00004        GOPOODOO           INHINT
000141:    5656           04616                           TC       BANKCALL                              #  RESET STATEFLG, REINTFLG, AND NODOFLAG.
000142:    5657           27746                           CADR     FLAGS
000143:    5660           30103                           CA       FLAGWRD7                              #  IS SERVICER CURRENTLY IN OPERATION?
000144:    5661           74746                           MASK     V37FLBIT
000145:    5662           10000                           CCS      A
000146:    5663           15671                           TCF      STRTIDLE
000147:    5664           04616                           TC       BANKCALL                              #  TERMINATE GRPS 1, 3, 5, AND 6
000148:    5665           12650                           CADR     V37KLEAN
000149:    5666           04616                           TC       BANKCALL                              #  TERMINATE GRPS 2, 4, 1, 3, 5, AND 6
000150:    5667           12641                           CADR     MR.KLEAN                              #        (I.E., GRP 4 LAST)
000151:    5670           15634                           TCF      WHIMPER
000152:    5671           35733        STRTIDLE           CAF      BBSERVDL
000153:    5672           04727                           TC       SUPERSW
000154:    5673           04616                           TC       BANKCALL                              #  PUT SERVICER INTO ITS "GROUND" STATE
000155:    5674           57322                           CADR     SERVIDLE                              #  AND PROCEED TO GOTOPOOH.
000156:    5675           00004        CCSHOLE            INHINT
000157:    5676           30002                           CA       Q
000158:    5677           05644                           TC       ABORT2
000159:    5700           21103        OCT21103           OCT      21103
000160:    5701           00004        CURTAINS           INHINT
000161:    5702           30002                           CA       Q
000162:    5703           05571                           TC       ALARM2
000163:    5704           00217        OCT217             OCT      00217
000164:    5705           01363                           TC       ALMCADR                               #  RETURN TO USER
000165:
000166:    5706           00004        BAILOUT1           INHINT
000167:    5707           53364                           DXCH     ALMCADR
000168:    5710           35732                           CAF      ADR40400
000169:    5711           54061        BOTHABRT           TS       ITEMP1
000170:    5712           50002                           INDEX    Q
000171:    5713           30000                           CAF      0
000172:    5714           54001                           TS       L
000173:    5715           15603                           TCF      CHKFAIL1
000174:


000176:    5716           00004        POODOO1            INHINT
000177:    5717           53364                           DXCH     ALMCADR
000178:    5720           35731                           CAF      ADR77770
000179:    5721           15711                           TCF      BOTHABRT
000180:
000181:    5722           00004        ALARM1             INHINT
000182:    5723           53364                           DXCH     ALMCADR
000183:    5724           00004        ALMNCADR           INHINT
000184:    5725           50002                           INDEX    Q
000185:    5726           30000                           CA       0
000186:    5727           54001                           TS       L
000187:    5730           15601                           TCF      LARMENT
000188:
000189:    5731           15650        ADR77770           TCF      OCT77770
000190:    5732           15632        ADR40400           TCF      OCT40400
000191:    5733     5155               DOALARM            EQUALS   ENDOFJOB
000192:    5733  E7,1515                                  EBANK=   DVCNTR
000193:    5733           56067        BBSERVDL           BBCON    SERVIDLE
000194:
000195:                                                                                                  #  CALLING SEQUENCE FOR VARALARM
000196:                                                                                                  #                CAF     (ALARM)
000197:                                                                                                  #                TC      VARALARM
000198:
000199:                                                                                                  #  VARALARM TURNS ON PROGRAM ALARM LIGHT BUT DOES NOT DISPLAY
000200:
000201:    5734           00004        VARALARM           INHINT
000202:
000203:    5735           54001                           TS       L                                     #  SAVE USERS ALARM CODE
000204:
000205:    5736           30002                           CA       Q                                     #  SAVE USERS Q
000206:    5737           55363                           TS       ALMCADR
000207:
000208:    5740           05575                           TC       PRIOENT
000209:    5741           00014        OCT14              OCT      14                                    #  DONT MOVE
000210:
000211:    5742           01363                           TC       ALMCADR                               #  RETURN TO USER
000212:
000213:    5743     5634               ABORT              EQUALS   WHIMPER
000214: 13,3746                                           BANK     13
000215: 13,2000                                           SETLOC   ABTFLGS
000216: 13,2000                                           BANK
000217: 13,3746                                           COUNT*   $$/ALARM
000218:
000219: 13,3746           44747        FLAGS              CS       STATEBIT
000220: 13,3747           70077                           MASK     FLAGWRD3
000221: 13,3750           54077                           TS       FLAGWRD3
000222: 13,3751           44745                           CS       REINTBIT
000223: 13,3752           70106                           MASK     FLGWRD10
000224: 13,3753           54106                           TS       FLGWRD10
000225: 13,3754           44753                           CS       NODOBIT
000226: 13,3755           70076                           MASK     FLAGWRD2
000227:


000229: 13,3756           54076                           TS       FLAGWRD2
000230: 13,3757           00002                           TC       Q
000231:
000232:

End of include-file ALARM_AND_ABORT.agc.  Parent file is MAIN.agc


