
Source Code


000002:                                                                                                  ## Copyright:   Public domain.
000003:                                                                                                  ## Filename:    AOTMARK.agc
000004:                                                                                                  ## Purpose:     A section of LM131 revision 1.
000005:                                                                                                  ##              It is part of the reconstructed source code for the final
000006:                                                                                                  ##              release of the flight software for the Lunar Module's (LM)
000007:                                                                                                  ##              Apollo Guidance Computer (AGC) for Apollo 13. The code has
000008:                                                                                                  ##              been reconstructed from a listing of Luminary 131 and a dump
000009:                                                                                                  ##              of a core rope memory module B5, part number 2010802-171,
000010:                                                                                                  ##              which is the only module different between LM131 revision 1
000011:                                                                                                  ##              and Luminary 131. The executable generated from this source
000012:                                                                                                  ##              has been verified against the module dump, so while the names,
000013:                                                                                                  ##              comments, and ordering may not be exactly correct, the
000014:                                                                                                  ##              resulting binary is.
000015:                                                                                                  ## Reference:   pp. 245-262
000016:                                                                                                  ## Assembler:   yaYUL
000017:                                                                                                  ## Contact:     Ron Burkey <info@sandroid.org>.
000018:                                                                                                  ## Website:     www.ibiblio.org/apollo/index.html
000019:                                                                                                  ## Mod history: 2022-10-28 MAS  Created from Luminary 131.
000020:


000022: 12,2000                                           BANK     12
000023: 07,2000                                           SETLOC   AOTMARK1
000024: 07,2000                                           BANK
000025:
000026: 07,2000  E7,1551                                  EBANK=   XYMARK
000027: 07,2000                                           COUNT*   $$/MARK
000028:
000029: 07,2000           00004        AOTMARK            INHINT
000030: 07,2001           11307                           CCS      MARKSTAT                              #  SEE IF AOTMARK BUSY
000031: 07,2002           02004                           TC       +2                                    #  MARK SYSTEM BUSY - DO ALARM
000032: 07,2003           02006                           TC       EXTVBCHK
000033: 07,2004           05642                           TC       POODOO
000034: 07,2005           20105                           OCT      20105
000035:
000036: 07,2006           36245        EXTVBCHK           CAF      SIX                                   #  SEE IF EXT. VERB WORKING
000037: 07,2007           71043                           MASK     EXTVBACT
000038: 07,2010           10000                           CCS      A
000039: 07,2011           12044                           TCF      MKABORT                               #  YES - ABORT
000040:
000041: 07,2012           34752                           CAF      BIT2                                  #  NO - DISALLOW SOME EXTENDED VERB ACTION
000042: 07,2013           27043                           ADS      EXTVBACT                              #  BIT2 RESET IN ENDMARK
000043: 07,2014           10400        MKVAC              CCS      VAC1USE                               #  LOOK FOR A VAC AREA - DO ABORT IF
000044: 07,2015           12031                           TCF      MKVACFND                              #  NONE AVAILABLE
000045: 07,2016           10454                           CCS      VAC2USE
000046: 07,2017           12031                           TCF      MKVACFND
000047: 07,2020           10530                           CCS      VAC3USE
000048: 07,2021           12031                           TCF      MKVACFND
000049: 07,2022           10604                           CCS      VAC4USE
000050: 07,2023           12031                           TCF      MKVACFND
000051: 07,2024           10660                           CCS      VAC5USE
000052: 07,2025           12031                           TCF      MKVACFND
000053: 07,2026           52134                           DXCH     BUF2
000054: 07,2027           05706                           TC       BAILOUT1                              #  ALL VAC AREAS OCCUPIED - ABORT.
000055: 07,2030           31207                           OCT      31207
000056:
000057: 07,2031           64752        MKVACFND           AD       TWO
000058: 07,2032           55307                           TS       MARKSTAT                              #  STORE VAC ADR INLOW 9 OF MARKSTAT
000059:
000060: 07,2033           34755                           CAF      ZERO
000061: 07,2034           51307                           INDEX    MARKSTAT
000062: 07,2035           53777                           TS       0          -1                         #  ZERO IN VACUSE REG TO SHOW VAC OCCUPIED
000063:
000064: 07,2036           35025                           CAF      PRIO15
000065: 07,2037           05105                           TC       FINDVAC                               #  SET UP JOB FOR GETDAT
000066: 07,2040  E7,1551                                  EBANK=   XYMARK
000067: 07,2040           02063 16067                     2CADR    GETDAT
000068:
000069: 07,2042           00003                           RELINT
000070: 07,2043           14631                           TCF      SWRETURN


000072: 07,2044           52134        MKABORT            DXCH     BUF2
000073: 07,2045           05706                           TC       BAILOUT1                              #  CONFLICT WITH EXTENDED VERB
000074: 07,2046           31211                           OCT      31211
000075:
000076: 07,2047           34755        MKRELEAS           CAF      ZERO
000077: 07,2050           57307                           XCH      MARKSTAT                              #  SET MARKSTAT TO ZERO
000078: 07,2051           75004                           MASK     LOW9                                  #  PICK UP VAC AREA ADR
000079: 07,2052           10000                           CCS      A
000080: 07,2053           50000                           INDEX    A
000081: 07,2054           54000                           TS       0                                     #  SHOW MKVAC AREA AVAILABLE
000082: 07,2055           34753                           CAF      ONE
000083: 07,2056           04674                           TC       IBNKCALL
000084: 07,2057           17656                           CADR     GOODEND                               #  GO WAKE UP CALLING JOB
000085:


000087: 07,2060           34755        KILLAOT            CAF      ZERO
000088: 07,2061           55043                           TS       EXTVBACT                              #  TERMINATE AOTMARK - ALLOW EXT VERB
000089: 07,2062           06001                           TC       GOTOPOOH
000090: 07,2063           41307        GETDAT             CS       MARKSTAT                              #  SET BIT12 TO DISCOURAGE MARKRUPT
000091: 07,2064           74740                           MASK     BIT12                                 #        BIT12 RESET AT GETMARK
000092: 07,2065           27307                           ADS      MARKSTAT
000093:
000094: 07,2066           32330                           CAF      V01N71                                #  DISPLAY DETENT AND STAR CODE
000095: 07,2067           04616                           TC       BANKCALL
000096: 07,2070           20334                           CADR     GOMARKF
000097:
000098: 07,2071           12060                           TCF      KILLAOT                               #  V34 - DOES GOTOPOOH
000099: 07,2072           12074                           TCF      DODAT                                 #  V33 - PROCEED - USE THIS STAR FOR MARKS
000100: 07,2073           12063        ENTERDAT           TCF      GETDAT                                #  ENTER - REDISPLAY STAR CODE
000101:
000102: 07,2074           37747        DODAT              CAF      HIGH9                                 #  PICK DETENT CODE FROM BITS7-9 OF AOTCODE
000103: 07,2075           70734                           MASK     AOTCODE                               #  AND SEE IF CODE 1 TO 6
000104: 07,2076           00006                           EXTEND
000105: 07,2077           74743                           MP       BIT9
000106: 07,2100           55551                           TS       XYMARK                                #  STORE DETENT
000107:
000108: 07,2101           00006                           EXTEND
000109: 07,2102           62063                           BZMF     GETDAT                                #  COAS CALIBRATION CODE - NO GOOD HERE
000110:
000111: 07,2103           65650                           AD       NEG7                                  #  SEE IF DETENT 7 FOR COAS
000112: 07,2104           00006                           EXTEND
000113: 07,2105           12107                           BZF      CODE7
000114:
000115: 07,2106           12123                           TCF      CODE1TO6
000116:
000117: 07,2107           32331        CODE7              CAF      V06N87*                               #  CODE 7, COAS SIGHTING, GET OPTIC AXIS
000118: 07,2110           04616                           TC       BANKCALL                              #  AZ AND EL OF SIGHTING DEVICE FROM ASTRO
000119: 07,2111           20334                           CADR     GOMARKF
000120:
000121: 07,2112           12060                           TCF      KILLAOT                               #  V34 - DOES GOTOPOOH
000122: 07,2113           12115                           TCF      +2                                    #  PROCEED
000123: 07,2114           12107                           TCF      CODE7                                 #  ON ENTER, RECYCLE
000124: 07,2115           00006                           EXTEND
000125: 07,2116           31345                           DCA      AZ                                    #  PICK UP AZ AND EL IN SP 2S COMP
000126: 07,2117           50120                           INDEX    FIXLOC
000127: 07,2120           52011                           DXCH     8D                                    #  STORE IN 8D AND 9D OF LOCAL VAC
000128: 07,2121           34755                           CAF      ZERO                                  #  BACKUP SYSTEM TO BE USED
000129: 07,2122           12137                           TCF      COASCODE                              #  ZERO APPARENT ROTATION
000130:
000131: 07,2123           51551        CODE1TO6           INDEX    XYMARK                                #  INDEX AOT POSITION BY DET CODE
000132: 07,2124           31411                           CA       AOTEL      -1
000133: 07,2125           50120                           INDEX    FIXLOC
000134: 07,2126           54011                           TS       9D                                    #  STORE ELEVATION IN VAC+9D
000135:
000136: 07,2127           51551                           INDEX    XYMARK                                #  INDEX DET CODE 1,2 OR 3


000138: 07,2130           31403                           CA       AOTAZ      -1
000139: 07,2131           50120                           INDEX    FIXLOC
000140: 07,2132           54010                           TS       8D                                    #  STORE AZIMUTH IN VAC+8D
000141:
000142: 07,2133           31405                           CA       AOTAZ      +1                         #  COMPENSATION FOR APPARENT ROTATION OF
000143: 07,2134           00006                           EXTEND                                         #  AOT FIELD OF VIEW IN LEFT AND RIGTHT
000144: 07,2135           50120                           INDEX    FIXLOC                                #  DETENTS IS STORED IN VAC +10D IN SP
000145: 07,2136           20010                           MSU      8D                                    #  PRECISION ONES COMPLEMENT
000146: 07,2137           50120        COASCODE           INDEX    FIXLOC
000147: 07,2140           54012                           TS       10D                                   #  ROT ANGLE
000148:
000149: 07,2141           06042                           TC       INTPRET                               #  COMPUTE X AND Y PLANE VECTORS
000150:


000152:                                                                                                  #  THE OPTAXIS SUBROUTINE COMPUTES THE X AND Y MARK PLANE VECS AND
000153:                                                                                                  #  AND ROTATES THEM THRU THE APPARENT FIELD OF VIEW ROTATION UNIQUE TO AOT
000154:                                                                                                  #  OPTAXIS USES OANB TO COMPUTE THE OPTIC AXIS
000155:
000156:                                                                                                  #        INPUT -         AZIMUTH ANGLE IN SINGLE PREC AT CDU SCALE IN 8D OF JOB VAC
000157:                                                                                                  #                        ELEVATION ANGLE IN SINGLE PREC AT CDU SCALE IN 9D OF JOB VAC
000158:                                                                                                  #                        ROTATION ANGLE IN SINGLE PREC 1S COMPSCALED BY PI IN 10D OF VAC
000159:
000160:                                                                                                  #        OUTPUT -        OPTIC AXIS VEC IN NB COORDS IN SCAXIS
000161:                                                                                                  #                        X-MARK PLANE 1/4VEC IN NB COORDS AT 18D OF JOB VAC
000162:                                                                                                  #                        Y-MARK PLANE 1/4VEC IN NB COORDS AT 12D OF JOB VAC
000163:
000164: 07,2142           77624        OPTAXIS            CALL                                           #  GO COMPUTE OA AND X AND Y PLANE VECS
000165: 07,2143           10522                                    OANB
000166: 07,2144           70535                           SLOAD    SR1                                   #  LOAD APP ROTATION IN ONES COMP
000167: 07,2145           00013                                    10D                                   #  RESCALE BY 2PI
000168: 07,2146           73406                           PUSH     SIN                                   #  1/2SIN(ROT) 0-1
000169: 07,2147           71525                           PDDL     COS
000170: 07,2150           74206                           PUSH     VXSC                                  #  1/2COS(ROT) 2-3
000171: 07,2151           00023                                    18D
000172: 07,2152           74325                           PDDL     VXSC                                  #  1/4COS(ROT)UYP 4-9
000173: 07,2153           00001                                    0
000174: 07,2154           00031                                    24D                                   #  1/4SIN(ROT)UXP
000175: 07,2155           45445                           BVSU     STADR                                 #  UP 4-9
000176: 07,2156           63762                           STODL    12D                                   #  YPNB=1/4(COS(ROT)UYP-SIN(ROT)UXP)
000177: 07,2157           65361                           VXSC     PDDL                                  #  UP 2-3 UP 0-1 FOR EXCHANGE
000178: 07,2160           00031                                    24D                                   #  1/4COS(ROT)UXP        PUSH 0-5
000179: 07,2161           53361                           VXSC     VAD                                   #  1/4SIN(ROT)UYP
000180: 07,2162           00023                                    18D                                   #  UP 0-5
000181: 07,2163           77626                           STADR
000182: 07,2164           53754                           STOVL    18D                                   #  XPNB=1/4(COS(ROT)UXP+SIN(ROT)UYP)
000183: 07,2165           24007                                    LO6ZEROS                              #  INITIALIZE AVE STAR VEC ACCUMULATOR
000184: 07,2166           02715                           STORE    STARAD     +6
000185: 07,2167           77776                           EXIT
000186: 07,2170           12202                           TCF      GETMKS
000187:


000189:                                                                                                  #  THE OANB SUBROUTINE COMPUTES THE OPTIC AXIS OF THE SIGHTING INSTRUMENT
000190:                                                                                                  #  FROM AZIMUTH AND ELEVATION INPUT FROM THE ASTRONAUT.
000191:
000192:                                                                                                  #        INPUT -         AZIMUTH ANGLE IN SINGLE PREC 2S COMP IN 8D OF JOB VAC
000193:                                                                                                  #                        ELEVATION ANGLE IN SINGLE PREC 2S COMP IN 9D OF VAC
000194:
000195:                                                                                                  #        OUTPUT -        OPTIC AXIS IN NB COORDS. IN SCAXIS
000196:                                                                                                  #                        X-PLANE 1/2VEC IN NB COORDS AT 24D OF VAC
000197:                                                                                                  #                        Y-PLANE 1/2VEC IN NB COORDS AT 18D OF VAC
000198:
000199: 05,3413                                           BANK     05
000200: 04,2000                                           SETLOC   AOTMARK2
000201: 04,2000                                           BANK
000202:
000203: 04,2522                                           COUNT*   $$/MARK
000204:
000205: 04,2522           44001        OANB               SETPD    STQ
000206: 04,2523           00001                                    0
000207: 04,2524           02736                                    GCTR                                  #  STORE RETURN
000208: 04,2525           47135                           SLOAD    RTB
000209: 04,2526           00012                                    9D                                    #  PICK UP SP ELV
000210: 04,2527           21577                                    CDULOGIC
000211: 04,2530           71406                           PUSH     COS
000212: 04,2531           73525                           PDDL     SIN                                   #  1/2COS(ELV)   PD 0-1
000213: 04,2532           77626                           STADR
000214: 04,2533           60012                           STODL    SCAXIS                                #  OAX=1/2SIN(ELV)
000215: 04,2534           00011                                    8D                                    #  PICK UP AZ SP
000216: 04,2535           77634                           RTB
000217: 04,2536           21577                                    CDULOGIC
000218: 04,2537           71406                           PUSH     COS
000219: 04,2540           00025                           STORE    20D                                   #  STORE UYP(Y) 20-21
000220: 04,2541           73525                           PDDL     SIN                                   #  1/2COS(AZ) PD 2-3
000221: 04,2542           57406                           PUSH     DCOMP                                 #  PUSH 1/2SIN(AZ) 4-5
000222: 04,2543           14027                           STODL    22D                                   #  STORE UYP(Z) 22-23
000223: 04,2544           24007                                    LO6ZEROS
000224: 04,2545           14023                           STODL    18D                                   #  STORE UYP(X) 18-19   UP 4-5
000225: 04,2546           72405                           DMP      SL1
000226: 04,2547           00001                                    0
000227: 04,2550           17767                           STODL    SCAXIS     +2                         #  OAY=1/2COS(ELV)SIN(AZ)
000228: 04,2551           72405                           DMP      SL1                                   #  UP    2-3
000229: 04,2552           77626                           STADR                                          #  UP    0-1
000230: 04,2553           50006                           STOVL    SCAXIS     +4                         #  OAZ=1/2COS(ELV)COS(AZ)
000231: 04,2554           00023                                    18D                                   #  LOAD UYP VEC
000232: 04,2555           53435                           VXV      UNIT
000233: 04,2556           03765                                    SCAXIS                                #  UXP VEC=UYP X OA
000234: 04,2557           00031                           STORE    24D                                   #  STORE UXP
000235: 04,2560           77650                           GOTO
000236: 04,2561           02736                                    GCTR


000238:                                                                                                  #  SURFSTAR COMPUTES A STAR VECTOR IN SM COORDINATES FOR LUNAR
000239:                                                                                                  #  SURFACE ALIGNMENT AND EXITS TO AVEIT TO AVERAGE STAR VECTORS.
000240:                                                                                                  #
000241:                                                                                                  #        GIVEN   X-MARK PLANE 1/4 VEC IN NB AT 18D OF LOCAL VAC
000242:                                                                                                  #                Y-MARK PLANE 1/4 VEC IN NB AT 12D OF LOCAL VAC
000243:                                                                                                  #                CURSOR SP 2COMP AT POSITION 1 OF INDEXED MARKVAC
000244:                                                                                                  #                SPIRAL SP 2COMP AT POSITION 3 OF INDEXED MARKVAC
000245:                                                                                                  #                CDUY,Z,X AT POSITIONS 0,2,4 OF INDEXED MARKVAC
000246:
000247: 15,2000                                           BANK     15
000248: 15,2000                                           SETLOC   P50S
000249: 15,2000                                           BANK
000250: 15,2000                                           COUNT*   $$/R59
000251:
000252: 15,2000           77773        SURFSTAR           VLOAD*
000253: 15,2001           00001                                    0,1                                   #  PUT X-MARK CDUS IN CDUSPOT FOR TRG*NBSM
000254: 15,2002           00766                           STORE    CDUSPOT
000255: 15,2003           47133                           SLOAD*   RTB
000256: 15,2004           00002                                    1,1                                   #  PICK UP YROT
000257: 15,2005           21577                                    CDULOGIC
000258: 15,2006           00031                           STORE    24D                                   #  STORE CURSOR FOR SPIRAL COMP (REVS)
000259: 15,2007           77654                           BZE
000260: 15,2010           16171                                    YZCHK                                 #  IF YROT ZERO - SEE IF SROT ZERO
000261: 15,2011           71406        JUSTZY             PUSH     COS
000262: 15,2012           73525                           PDDL     SIN                                   #  1/2COS(YROT)  0-1
000263: 15,2013           65361                           VXSC     PDDL                                  #  UP 0-1        1/8SIN(YROT)UXP 0-5
000264: 15,2014           00023                                    18D
000265: 15,2015           52361                           VXSC     VSU                                   #  UP    0-5
000266: 15,2016           00015                                    12D                                   #  UYP
000267: 15,2017           47256                           UNIT     VXV
000268: 15,2020           03765                                    SCAXIS
000269: 15,2021           41456                           UNIT     PUSH
000270: 15,2022           47133                           SLOAD*   RTB
000271: 15,2023           00004                                    3,1                                   #  PICK UP SPIRAL
000272: 15,2024           21577                                    CDULOGIC
000273: 15,2025           00033                           STORE    26D                                   #  STORE SPIRAL (REVS)
000274: 15,2026           43225                           DSU      DAD
000275: 15,2027           00031                                    24D
000276: 15,2030           32047                                    ABOUTONE
000277: 15,2031           77605                           DMP
000278: 15,2032           32466                                    DP1/12
000279: 15,2033           00033                           STORE    26D                                   #  SEP=(360 + SPIRAL -CURSOR)/12
000280: 15,2034           74356                           SIN      VXSC                                  #  UP    0-5
000281: 15,2035           65372                           VSL1     PDDL                                  #  1/2SIN(SEP)(UPP X OA) 0-5
000282: 15,2036           00033                                    26D
000283: 15,2037           74346                           COS      VXSC
000284: 15,2040           03765                                    SCAXIS
000285: 15,2041           53372                           VSL1     VAD                                   #  UP    0-5
000286: 15,2042           45056        JUSTOA             UNIT     CALL
000287: 15,2043           47666                                    TRG*NBSM
000288: 15,2044           34031                           STCALL   24D                                   #  STAR VEC IN SM
000289: 15,2045           16276                                    AVEIT                                 #  GO AVERAGE


000291: 15,2046           37777 37775  ABOUTONE           2DEC     .99999999
000292:
000293: 15,2050  15,2465               DP1/12             EQUALS   DEG30                                 #  .08333333
000294: 07,2171                                           BANK     7
000295: 07,2000                                           SETLOC   AOTMARK1
000296: 07,2000                                           BANK
000297: 07,2171                                           COUNT*   $$/MARK
000298: 07,2171           53133        YZCHK              SLOAD*   BZE                                   #  YROT ZERO AND IF SROT ZERO FORCE STAR
000299: 07,2172           00004                                    3,1                                   #  ALONG OPTIC AXIS
000300: 07,2173           16177                                    YSZERO
000301: 07,2174           52145                           DLOAD    GOTO
000302: 07,2175           00031                                    24D
000303: 07,2176           32011                                    JUSTZY                                #  SROT NOT ZERO - CONTINUE NORMALLY
000304: 07,2177           52175        YSZERO             VLOAD    GOTO
000305: 07,2200           03765                                    SCAXIS
000306: 07,2201           32042                                    JUSTOA
000307:


000309:                                                                                                  #  THE GETMKS ROUTINE INITIALIZES THE SIGHTING MARK PROCEDURE
000310:
000311: 07,2202           34755        GETMKS             CAF      ZERO                                  #  INITIALIZE MARK ID REGISTER AND MARK CNT
000312: 07,2203           55551                           TS       XYMARK
000313: 07,2204           55550                           TS       MARKCNTR
000314: 07,2205           35004                           CAF      LOW9                                  #  ZERO BITS10 TO 15 RETAINING MKVAC ADR
000315: 07,2206           71307                           MASK     MARKSTAT
000316: 07,2207           55307                           TS       MARKSTAT
000317: 07,2210           32620                           CAF      MKVB54*                               #  DISPLAY VB54 INITIALLY
000318: 07,2211           04616        PASTIT             TC       BANKCALL
000319: 07,2212           20345                           CADR     GOMARK4
000320:
000321: 07,2213           12060                           TCF      KILLAOT                               #  V34 - DOES GOTOPOOH
000322: 07,2214           12216                           TCF      MARKCHEX                              #  VB33 - PROCEED, GOT MARKS, COMPUTE LOS
000323: 07,2215           12063                           TCF      GETDAT                                #  ENTER - RECYCLE TO V01N71
000324:
000325: 07,2216           41307        MARKCHEX           CS       MARKSTAT                              #  SET BIT12 TO DISCOURAGE MARKRUPT
000326: 07,2217           74740                           MASK     BIT12
000327: 07,2220           27307                           ADS      MARKSTAT
000328: 07,2221           75004                           MASK     LOW9
000329: 07,2222           55551                           TS       XYMARK                                #  JAM MARK VAC ADR IN XYMARK FOR AVESTAR
000330: 07,2223           34755                           CAF      ZERO
000331: 07,2224           55552                           TS       MKDEX                                 #  SET MKDEX ZERO FOR LOS VEC CNTR
000332: 07,2225           31307                           CA       MARKSTAT
000333: 07,2226           75015                           MASK     PRIO3                                 #  SEE IF LAST MK PARI COMPLETE
000334: 07,2227           54001                           TS       L
000335: 07,2230           35015                           CAF      PRIO3                                 #  BITS10 AND 11
000336: 07,2231           00006                           EXTEND
000337: 07,2232           06001                           RXOR     LCHAN
000338: 07,2233           00006                           EXTEND
000339: 07,2234           12241                           BZF      AVESTAR                               #  LAST PAIR COMPLETE - GO COMPUTE LOS
000340: 07,2235           11550        CNTCHK             CCS      MARKCNTR                              #  NO PAIR SHOWING - SEE IF PAIR IN HOLD
000341: 07,2236           12240                           TCF      +2                                    #  PAIR BURIED - DECREMENT COUNTER
000342: 07,2237           12325                           TCF      MKALARM                               #  NO PAIR - ALARM
000343: 07,2240           55550                           TS       MARKCNTR                              #  STORE DECREMENTED COUNTER
000344:
000345: 07,2241           34740        AVESTAR            CAF      BIT12                                 #  INITIALIZE MKDEX FOR STAR LOS COUNTER
000346: 07,2242           27552                           ADS      MKDEX                                 #  MKDEX WAS INITIALIZED ZERO IN MARKCHEX
000347: 07,2243           41550                           CS       MARKCNTR
000348: 07,2244           00006                           EXTEND
000349: 07,2245           76245                           MP       SIX                                   #  GET C(L) = -6 MARKCNTR
000350: 07,2246           41551                           CS       XYMARK
000351: 07,2247           60001                           AD       L                                     #  ADD - MARK VAC ADR SET IN MARKCHEX
000352: 07,2250           50120                           INDEX    FIXLOC
000353: 07,2251           54046                           TS       X1                                    #  JAM - CDU ADR OF X-MARK IN X1
000354:
000355: 07,2252           30120                           CA       FIXLOC                                #  SET PD POINTER TO ZERO
000356: 07,2253           54166                           TS       PUSHLOC
000357:
000358: 07,2254           06042                           TC       INTPRET


000360: 07,2255           76614                           BON      VLOAD*
000361: 07,2256           04307                                    SURFFLAG                              #  IF ON SURFACE COMPUTE VEC AT SURFSTAR
000362: 07,2257           32000                                    SURFSTAR
000363: 07,2260           00002                                    1,1                                   #  PUT Y-MARK CDUS IN CDUSPOT FOR TRG*NBSM
000364: 07,2261           24766                           STOVL    CDUSPOT
000365: 07,2262           00015                                    12D                                   #  LOAD Y-PLANE VECTOR IN NB
000366: 07,2263           77624                           CALL
000367: 07,2264           47666                                    TRG*NBSM                              #  CONVERT IT TO STABLE MEMBER
000368: 07,2265           76606                           PUSH     VLOAD*
000369: 07,2266           00001                                    0,1                                   #  PUT X-MARK CDUS IN CDUSPOT FOR TRG*NBSM
000370: 07,2267           24766                           STOVL    CDUSPOT
000371: 07,2270           00023                                    18D                                   #  LOAD X-PLANE VECTOR IN NB
000372: 07,2271           77624                           CALL
000373: 07,2272           47666                                    TRG*NBSM                              #  CONVERT IT TO STABLE-MEMBER
000374: 07,2273           53435                           VXV      UNIT                                  #  UNIT(XPSM * YPSM)
000375: 07,2274           77626                           STADR
000376: 07,2275           77746                           STORE    24D
000377:
000378: 07,2276           63335        AVEIT              SLOAD    PDVL                                  #  N(NUMBER OF VECS) IN 0-1
000379: 07,2277           03553                                    MKDEX
000380: 07,2300           00031                                    24D                                   #  LOAD CURRENT VECTOR
000381: 07,2301           70322                           VSR3     V/SC
000382: 07,2302           00001                                    0
000383: 07,2303           14031                           STODL    24D                                   #  VEC/N
000384: 07,2304           00001                                    0
000385: 07,2305           56225                           DSU      DDV
000386: 07,2306           16622                                    DP1/8                                 #  (N-1)/N
000387: 07,2307           53361                           VXSC     VAD
000388: 07,2310           02715                                    STARAD     +6                         #  ADD VEC TO PREVIOUSLY AVERAGED VECTOR
000389: 07,2311           00031                                    24D                                   #  (N-1)/N AVESTVEC + VEC/N
000390: 07,2312           02715                           STORE    STARAD     +6                         #  AVERAGE STAR VECTOR
000391: 07,2313           02767                           STORE    STARSAV2
000392: 07,2314           77776                           EXIT
000393: 07,2315           11550                           CCS      MARKCNTR                              #  SEE IF ANOTHER MARK PAIR IN MKVAC
000394: 07,2316           12240                           TCF      AVESTAR    -1                         #  THERE IS - GO GET IT - DECREMENT COUNTER
000395: 07,2317           34756        ENDMARKS           CAF      FIVE                                  #  NO MORE MARKS - TERMINATE AOTMARK
000396: 07,2320           00004                           INHINT
000397: 07,2321           05203                           TC       WAITLIST
000398: 07,2322  E7,1551                                  EBANK=   XYMARK
000399: 07,2322           02047 16067                     2CADR    MKRELEAS
000400:
000401: 07,2324           05472                           TC       ENDMARK
000402:
000403: 07,2325           05567        MKALARM            TC       ALARM                                 #  NOT A PAIR TO PROCESS - DO GETMKS
000404: 07,2326           00111                           OCT      111
000405: 07,2327           12202                           TCF      GETMKS
000406:
000407: 07,2330           00307        V01N71             VN       171
000408: 07,2331           01527        V06N87*            VN       687
000409:


000411:                                                                                                  #  MARKRUPT IS ENTERED FROM INTERUPT LEAD-INS AND PROCESSES CHANNEL 16
000412:                                                                                                  #  CAUSED BY X,Y MARK OR MARK REJECT OR BY THE RATE OF DESCENT SWITCH
000413:
000414: 07,2332           54016        MARKRUPT           TS       BANKRUPT
000415: 07,2333           30033                           CA       CDUY                                  #  STORE CDUS AND TIME NOW - THEN SEE IF
000416: 07,2334           54063                           TS       ITEMP3                                #  WE NEED THEM
000417: 07,2335           30034                           CA       CDUZ
000418: 07,2336           54064                           TS       ITEMP4
000419: 07,2337           30032                           CA       CDUX
000420: 07,2340           54065                           TS       ITEMP5
000421: 07,2341           00006                           EXTEND
000422: 07,2342           30025                           DCA      TIME2
000423: 07,2343           52062                           DXCH     ITEMP1
000424: 07,2344           56002                           XCH      Q
000425: 07,2345           54012                           TS       QRUPT
000426:
000427: 07,2346           34776                           CAF      OCT140                                #  SEE IF ROD INPUT HAS BEEN MADE
000428: 07,2347           00006                           EXTEND
000429: 07,2350           02016                           RAND     NAVKEYIN
000430: 07,2351           10000                           CCS      A
000431: 07,2352           12403                           TCF      SOMEKEY                               #  YES
000432:
000433: 07,2353           34740                           CAF      BIT12                                 #  ARE WE ASKING FOR A MARK
000434: 07,2354           71307                           MASK     MARKSTAT
000435: 07,2355           10000                           CCS      A
000436: 07,2356           05270                           TC       RESUME                                #  DONT WANT MARK OR MKREJECT - DO NOTHING
000437:
000438: 07,2357           11307                           CCS      MARKSTAT                              #  ARE MARKS BEING ACCEPTED
000439: 07,2360           12364                           TCF      FINDKEY                               #  THEY ARE - WHICH ONE IS IT
000440: 07,2361           05567                           TC       ALARM                                 #  MARKS NOT BEING ACCEPTED - DO ALARM
000441: 07,2362           00112                           OCT      112
000442: 07,2363           05270                           TC       RESUME
000443:
000444: 07,2364           34747        FINDKEY            CAF      BIT5                                  #  SEE IF MARK REJECT
000445: 07,2365           00006                           EXTEND
000446: 07,2366           02016                           RAND     NAVKEYIN
000447: 07,2367           10000                           CCS      A
000448: 07,2370           12460                           TCF      MKREJ                                 #  ITS A MARK REJECT
000449:
000450: 07,2371           34750                           CAF      BIT4                                  #  SEE IF Y MARK
000451: 07,2372           00006                           EXTEND
000452: 07,2373           02016                           RAND     NAVKEYIN
000453: 07,2374           10000                           CCS      A
000454:
000455: 07,2375           12421                           TCF      YMKRUPT                               #  ITS A Y MARK
000456:
000457: 07,2376           34751                           CAF      BIT3                                  #  SEE IF X MARK
000458: 07,2377           00006                           EXTEND
000459: 07,2400           02016                           RAND     NAVKEYIN
000460: 07,2401           10000                           CCS      A
000461:


000463: 07,2402           12415                           TCF      XMKRUPT                               #  ITS A X MARK
000464:
000465: 07,2403           34776        SOMEKEY            CAF      OCT140                                #  NOT MARK OR MKREJECT - SEE IF DESCENT BITS
000466: 07,2404           00006                           EXTEND
000467: 07,2405           02016                           RAND     NAVKEYIN
000468: 07,2406           00006                           EXTEND
000469: 07,2407           12412                           BZF      +3                                    #  IF NO BITS
000470:
000471: 07,2410           04635                           TC       POSTJUMP                              #  IF DESCENT BITS
000472: 07,2411           46455                           CADR     DESCBITS
000473:
000474: 07,2412           05567                           TC       ALARM                                 #  NO INBITS IN CHANNEL 16
000475: 07,2413           00113                           OCT      113
000476:
000477: 07,2414           05270                           TC       RESUME
000478:
000479: 07,2415           34755        XMKRUPT            CAF      ZERO
000480: 07,2416           54070                           TS       RUPTREG1                              #  SET X MARK STORE INDEX TO ZERO
000481: 07,2417           34742                           CAF      BIT10
000482: 07,2420           12424                           TCF      +4
000483: 07,2421           34753        YMKRUPT            CAF      ONE
000484: 07,2422           54070                           TS       RUPTREG1                              #  SET Y MARK STORE INDEX TO ONE
000485: 07,2423           34741                           CAF      BIT11
000486: 07,2424           55551                           TS       XYMARK                                #  SET MARK IDENTIFIATION
000487:
000488: 07,2425           02513                           TC       MARKTYPE                              #  SEE IF SURFACE MARK
000489: 07,2426           12520                           TCF      SURFSTOR                              #  SURFACE MARK - JUST STORE CDUS
000490:
000491: 07,2427           34736                           CAF      BIT14                                 #  GOT A MARK - SEE IF MARK PAIR MADE
000492: 07,2430           71307                           MASK     MARKSTAT
000493: 07,2431           00006                           EXTEND
000494: 07,2432           12443                           BZF      VERIFYMK                              #  NOT A PAIR, NORMAL PROCEDURE
000495: 07,2433           41550                           CS       MARKCNTR                              #  GOT A PAIR, SEE IF ANOTHER CAN BE MADE
000496: 07,2434           64751                           AD       FOUR                                  #  IF SO, INCREMENT POINTER, CLEAR BITS 10,11
000497: 07,2435           00006                           EXTEND
000498: 07,2436           62453                           BZMF     5MKALARM                              #  HAVE FIVE MARK PAIRS - DONT ALLOW MARK
000499: 07,2437           25550                           INCR     MARKCNTR                              #  OK FOR ANOTHER PAIR, INCR POINTER
000500: 07,2440           47714                           CS       PRIO23                                #  CLEAR BITS 10,11,14 FOR NEXT PAIR
000501: 07,2441           71307                           MASK     MARKSTAT
000502: 07,2442           55307                           TS       MARKSTAT
000503:
000504: 07,2443           31551        VERIFYMK           CA       XYMARK
000505: 07,2444           71307                           MASK     MARKSTAT
000506: 07,2445           10000                           CCS      A
000507: 07,2446           12450                           TCF      +2                                    #  THIS MARK NOT DESIRED
000508: 07,2447           12525                           TCF      VACSTOR                               #  MARK DESIRED - STORE CDUS
000509: 07,2450           05567                           TC       ALARM
000510: 07,2451           00114                           OCT      114
000511: 07,2452           05270                           TC       RESUME                                #  RESUME - DISPLAY UNCHANGED - WAIT FOR ACTION
000512:


000514: 07,2453           05567        5MKALARM           TC       ALARM                                 #  ATTEMPTING TO MAKE MORE THAN 5 MK PAIRS
000515: 07,2454           00107                           OCT      107
000516: 07,2455           02513                           TC       MARKTYPE                              #  SEE IF SURFACE MARK
000517: 07,2456           12626                           TCF      DSPV6N79                              #  IT IS
000518: 07,2457           05270                           TC       RESUME                                #  DONT CHANGE DISPLAY - DO NOTHING
000519:


000521: 07,2460           02513        MKREJ              TC       MARKTYPE                              #  SEE IF SURFACE
000522: 07,2461           12506                           TCF      SURFREJ                               #  SURFACE - JUST CHECK MARK COUNTER
000523:
000524: 07,2462           35015                           CAF      PRIO3                                 #  INFLIGHT - SEE IF MARKS MADE
000525: 07,2463           71307                           MASK     MARKSTAT
000526: 07,2464           10000                           CCS      A
000527: 07,2465           12471                           TCF      REJECT                                #  MARKS MADE - REJECT ONE
000528: 07,2466           05567        REJALM             TC       ALARM                                 #  NO MARK TO REJECT - BAD PROCEDURE - ALARM
000529: 07,2467           00115                           OCT      115
000530: 07,2470           05270                           TC       RESUME                                #  DESIRED ACTION DISPLAYED
000531:
000532: 07,2471           44355        REJECT             CS       PRIO30                                #  ZERO BIT14, SHOW REJ.,SEE IF MARK SINCE
000533: 07,2472           71307                           MASK     MARKSTAT                              #  LAST REJECT
000534: 07,2473           64737                           AD       BIT13
000535: 07,2474           57307                           XCH      MARKSTAT
000536: 07,2475           74737                           MASK     BIT13
000537: 07,2476           10000                           CCS      A
000538: 07,2477           12504                           TCF      REJECT2                               #  ANOTHER REJECT SET BIT 10+11 TO ZERO
000539:
000540: 07,2500           41551                           CS       XYMARK                                #  MARK MADE SINCE REJECT - REJECT MARK IN 1D
000541: 07,2501           71307        RENEWMK            MASK     MARKSTAT
000542: 07,2502           55307                           TS       MARKSTAT
000543: 07,2503           12576                           TCF      REMARK                                #  GO REQUEST NEW MARK ACTION
000544:
000545: 07,2504           45015        REJECT2            CS       PRIO3                                 #  ON SECOND REJECT - DISPLAY VB53 AGAIN
000546: 07,2505           12501                           TCF      RENEWMK
000547:
000548: 07,2506           11550        SURFREJ            CCS      MARKCNTR                              #  IF MARK DECREMENT COUNTER
000549: 07,2507           12511                           TCF      +2
000550: 07,2510           12466                           TCF      REJALM                                #  NO MARKS TO REJECT - ALARM
000551: 07,2511           55550                           TS       MARKCNTR
000552: 07,2512           05270                           TC       RESUME
000553:


000555:                                                                                                  #  MARKTYPE TESTS TO SEE IF LEM ON LUNAR SURFACE.  IF IT IS RETURN TO LOC+1
000556:
000557: 07,2513           40104        MARKTYPE           CS       FLAGWRD8                              #  SURFFLAG *******TEMPORARY*****
000558: 07,2514           74744                           MASK     BIT8
000559: 07,2515           10000                           CCS      A
000560: 07,2516           24002                           INCR     Q                                     #  IF SURFACE MARK REUTNR TO LOC +1
000561: 07,2517           00002                           TC       Q                                     #  IF INFLIGHT MARK RETURN TO LOC +2
000562:
000563: 07,2520           34755        SURFSTOR           CAF      ZERO                                  #  FOR SURFACE MARK ZERO MARK KIND INDEX
000564: 07,2521           54070                           TS       RUPTREG1
000565:
000566: 07,2522           41307                           CS       MARKSTAT                              #  SET BITS 10,11 TO SHOW SURFACE MARK
000567: 07,2523           75015                           MASK     PRIO3                                 #  FOR MARKCHEX
000568: 07,2524           27307                           ADS      MARKSTAT
000569:
000570: 07,2525           35004        VACSTOR            CAF      LOW9
000571: 07,2526           71307                           MASK     MARKSTAT                              #  STORE MARK VAC ADR IN RUPTREG2
000572: 07,2527           54071                           TS       RUPTREG2
000573: 07,2530           00006                           EXTEND
000574: 07,2531           30062                           DCA      ITEMP1                                #  PICK UP MARKTIME
000575: 07,2532           53562                           DXCH     TSIGHT                                #  STORE LAST MARK TIME
000576: 07,2533           31550                           CA       MARKCNTR                              #  6 X MARKCNTR FOR STORE INDEX
000577: 07,2534           00006                           EXTEND
000578: 07,2535           76245                           MP       SIX
000579: 07,2536           56001                           XCH      L                                     #  GET INDEX FROM LOW ORDER PART
000580: 07,2537           60071                           AD       RUPTREG2                              #  SET CDU STORE INDEX TO MARKVAC
000581: 07,2540           26070                           ADS      RUPTREG1                              #  INCREMENT VAC PICKUP BY MARK FOR FLIGHT
000582: 07,2541           55552                           TS       MKDEX                                 #  STORE HERE IN CASE OF SURFACE MARK
000583: 07,2542           30063                           CA       ITEMP3
000584: 07,2543           50070                           INDEX    RUPTREG1
000585: 07,2544           54000                           TS       0                                     #  STORE CDUY
000586: 07,2545           30064                           CA       ITEMP4
000587: 07,2546           50070                           INDEX    RUPTREG1
000588: 07,2547           54002                           TS       2                                     #  STORE CDUZ
000589: 07,2550           30065                           CA       ITEMP5
000590: 07,2551           50070                           INDEX    RUPTREG1
000591: 07,2552           54004                           TS       4                                     #  STORE CDUX
000592: 07,2553           02513                           TC       MARKTYPE                              #  IF SURFACE MARK - JUST DO SURFJOB
000593: 07,2554           12603                           TCF      SURFJOB
000594:
000595: 07,2555           34737                           CAF      BIT13                                 #  CLEAR BIT13 TO SHOW MARK MADE
000596: 07,2556           61551                           AD       XYMARK                                #  SET MARK ID IN MARKSTAT
000597: 07,2557           40000                           COM
000598: 07,2560           71307                           MASK     MARKSTAT
000599: 07,2561           61551                           AD       XYMARK
000600: 07,2562           55307                           TS       MARKSTAT
000601: 07,2563           75015                           MASK     PRIO3                                 #  SEE IF X, Y MARK MADE
000602: 07,2564           54001                           TS       L
000603:


000605: 07,2565           35015                           CA       PRIO3
000606: 07,2566           00006                           EXTEND
000607: 07,2567           06001                           RXOR     LCHAN
000608: 07,2570           10000                           CCS      A
000609: 07,2571           12576                           TCF      REMARK                                #  NOT PAIR YET, DISPLAY MARK ACTION
000610: 07,2572           41307                           CS       MARKSTAT                              #  MARK PAIR COMPLETE - SET BIT14
000611: 07,2573           74736                           MASK     BIT14
000612: 07,2574           27307                           ADS      MARKSTAT
000613: 07,2575           12576                           TCF      REMARK                                #  GO DISPLAY V54
000614:


000616: 07,2576           35015        REMARK             CAF      PRIO3                                 #  BITS 10 AND 11
000617: 07,2577           71307                           MASK     MARKSTAT
000618: 07,2600           00006                           EXTEND
000619: 07,2601           74746                           MP       BIT6                                  #  SHIFT MARK IDS TO BE 0 TO 3 FOR INDEX
000620: 07,2602           55552                           TS       MKDEX                                 #  STORE VERB INDEX
000621: 07,2603           35025        SURFJOB            CAF      PRIO15
000622: 07,2604           05072                           TC       NOVAC                                 #  ENTER JOB TO CHANGE DISPLAY TO
000623: 07,2605  E7,1551                                  EBANK=   XYMARK                                #  REQUEST NEXT ACTION
000624: 07,2605           02610 16067                     2CADR    CHANGEVB
000625:
000626: 07,2607           05270                           TC       RESUME
000627:
000628: 07,2610           02513        CHANGEVB           TC       MARKTYPE
000629: 07,2611           12626                           TCF      DSPV6N79                              #  SURFACE - DISPLAY V 06 N79
000630: 07,2612           51552                           INDEX    MKDEX                                 #  INFLIGHT - PICK UP MARK VB INDEX
000631: 07,2613           32615                           CAF      MKVB54
000632: 07,2614           02211                           TC       PASTIT                                #  PASTE UP NEXT MK VERB DISPLAY
000633:
000634:                                                                                                  #  THE FOUR MKVBS ARE INDEXED - THEIR ORDER CANNOT BE CHANGED
000635:
000636: 07,2615           15507        MKVB54             VN       5471                                  #  MAKE X OR Y MARK
000637: 07,2616           15307        MKVB53             VN       5371                                  #  MAKE Y MARK
000638: 07,2617           15107        MKVB52             VN       5271                                  #  MAKE X MARK
000639: 07,2620           15507        MKVB54*            VN       5471                                  #  MAKE X OR Y MARK
000640: 07,2621           04000 00000  DP1/8              2DEC     .125
000641:
000642: 07,2623           00034        OCT34              OCT      34
000643: 07,2624           01507        V06N71             VN       671
000644: 07,2625           01517        V06N79*            VN       679
000645:


000647:                                                                                                  #  ROUTINE TO REQUEST CURSOR AND SPIRAL MEASUREMENTS
000648: 07,2626                                           COUNT*   $$/R59
000649:
000650: 07,2626           32625        DSPV6N79           CAF      V06N79*                               #  CURSOR - SPIRAL DISPLAY
000651: 07,2627           04616                           TC       BANKCALL
000652: 07,2630           20334                           CADR     GOMARKF
000653:
000654: 07,2631           12060                           TCF      KILLAOT                               #  V34 - DOES GOTOPOOH
000655: 07,2632           12640                           TCF      SURFEND                               #  V33 - PROCEED, END MARKING
000656: 07,2633           34746                           CAF      BIT6                                  #  IF V32 (OCT40) IN MPAC DO RECYCLE
000657: 07,2634           70154                           MASK     MPAC                                  #  OTHERWISE IT IS LOAD VB ENTER SO
000658: 07,2635           10000                           CCS      A                                     #  RE-DISPLAY V06N79
000659: 07,2636           12644                           TCF      SURFAGAN                              #  VB32 - RECYCLE
000660: 07,2637           12626                           TCF      DSPV6N79                              #  ENTER
000661:
000662: 07,2640           44736        SURFEND            CS       BIT14                                 #  SET BIT14 TO SHOW MARK END
000663: 07,2641           71307                           MASK     MARKSTAT
000664: 07,2642           64736                           AD       BIT14
000665: 07,2643           55307                           TS       MARKSTAT
000666:
000667: 07,2644           31235        SURFAGAN           CA       CURSOR
000668: 07,2645           51552                           INDEX    MKDEX                                 #  HOLDS VAC AREA POINTER FOR SURF MARKING
000669: 07,2646           54001                           TS       1                                     #  STORE CURSOR SP 2COMP
000670: 07,2647           31237                           CA       SPIRAL
000671: 07,2650           51552                           INDEX    MKDEX
000672: 07,2651           54003                           TS       3                                     #  STORE SPIRAL
000673:
000674: 07,2652           41307                           CS       MARKSTAT                              #  IF BIT 14 SET - END MARKING
000675: 07,2653           74736                           MASK     BIT14
000676: 07,2654           00006                           EXTEND
000677: 07,2655           12216                           BZF      MARKCHEX
000678: 07,2656           31550                           CA       MARKCNTR                              #  THIS IS RECYCLE - SEE IF 5 MARKS ALREADY
000679: 07,2657           64753                           AD       ONE
000680: 07,2660           40000                           COM
000681: 07,2661           64756                           AD       FIVE
000682: 07,2662           00006                           EXTEND
000683: 07,2663           62453                           BZMF     5MKALARM                              #  CANT RECYCLE - TO MANY MARKS - ALARM
000684: 07,2664           25550                           INCR     MARKCNTR                              #  OF FOR RECYCLE - INCR COUNTER
000685: 07,2665           12205                           TCF      GETMKS     +3                         #  GO DISPLAY MARK VB
000686:

End of include-file AOTMARK.agc.  Parent file is MAIN.agc


