
Source Code


000002:                                                                                                  ## Copyright:   Public domain.
000003:                                                                                                  ## Filename:    ATTITUDE_MANEUVER_ROUTINE.agc
000004:                                                                                                  ## Purpose:     A section of LM131 revision 1.
000005:                                                                                                  ##              It is part of the reconstructed source code for the final
000006:                                                                                                  ##              release of the flight software for the Lunar Module's (LM)
000007:                                                                                                  ##              Apollo Guidance Computer (AGC) for Apollo 13. The code has
000008:                                                                                                  ##              been reconstructed from a listing of Luminary 131 and a dump
000009:                                                                                                  ##              of a core rope memory module B5, part number 2010802-171,
000010:                                                                                                  ##              which is the only module different between LM131 revision 1
000011:                                                                                                  ##              and Luminary 131. The executable generated from this source
000012:                                                                                                  ##              has been verified against the module dump, so while the names,
000013:                                                                                                  ##              comments, and ordering may not be exactly correct, the
000014:                                                                                                  ##              resulting binary is.
000015:                                                                                                  ## Reference:   pp. 344-365
000016:                                                                                                  ## Assembler:   yaYUL
000017:                                                                                                  ## Contact:     Ron Burkey <info@sandroid.org>.
000018:                                                                                                  ## Website:     www.ibiblio.org/apollo/index.html
000019:                                                                                                  ## Mod history: 2022-10-28 MAS  Created from Luminary 131.
000020:


000022:                                                                                                  #  BLOCK 2 LGC ATTITUDE MANEUVER ROUTINE - KALCMANU
000023:
000024:                                                                                                  #  MOD 2         DATE 5/1/67     BY DON KEENE
000025:
000026:                                                                                                  #  PROGRAM DESCRIPTION
000027:
000028:                                                                                                  #  KALCMANU IS A ROUTINE WHICH GENERATES COMMANDS FOR THE LM DAP TO CHANGE THE ATTITUDE OF THE SPACECRAFT
000029:                                                                                                  #  DURING FREE FALL.  IT IS DESIGNED TO MANEUVER THE SPACECRAFT FROM ITS INITIAL ORIENTATION TO SOME DESIRED
000030:                                                                                                  #  ORIENTATION SPECIFIED BY THE PROGRAM WHICH CALLS KALCMANU, AVOIDING GIMBAL LOCK IN THE PROCESS.  IN THE
000031:                                                                                                  #  MOD 2 VERSION, THIS DESIRED ATTITUDE IS SPECIFIED BY A SET OF THREE COMMANDED CDU ANGLES STORED AS 2S COMPLEMENT
000032:                                                                                                  #  SINGLE PRECISION ANGLES IN THE THREE CONSECUTIVE LOCATIONS, CPHI, CTHETA, CPSI, WHERE
000033:
000034:                                                                                                  #        CPHI = COMMANDED OUTER GIMBAL ANGLE
000035:                                                                                                  #        CTHETA = COMMANDED INNER GIMBAL ANGLE
000036:                                                                                                  #        CPSI = COMMANDED MIDDLE GIMBAL ANGLE
000037:
000038:                                                                                                  #      WHEN POINTING A SPACECRAFT AXIS (E.I.  X, Y, Z, THE AOT, THRUST AXIS, ETC) THE SUBROUTINE VECPOINT MAY BE
000039:                                                                                                  #  USED TO GENERATE THIS SET OF DESIRED CDU ANGLES (SEE DESCRIPTION IN R60)    -
000040:
000041:                                                                                                  #  WITH THIS INFORMATION KALCMANU DETERMINES THE DIRECTION OF THE SINGLE EQUIVALENT ROTATION (COF ALSO U) AND THE
000042:                                                                                                  #  MAGNITUDE OF THE ROTATION (AM) TO BRING THE S/C FROM ITS INITIAL ORIENTATION TO ITS FINAL ORIENTATION.
000043:                                                                                                  #  THIS DIRECTION REMAINS FIXED BOTH IN INERTIAL COORDINATES AND IN COMMANDED S/C AXES THROUGHOUT THE
000044:                                                                                                  #                   -
000045:                                                                                                  #  MANEUVER.  ONCE COF AND AM HAVE BEEN DETERMINED, KALCMANU THEN EXAMINES THE MANEUVER TO SEE IF IT WILL BRING
000046:                                                                                                  #                                        -
000047:                                                                                                  #  THE S/C THROUGH GIMBAL LOCK.  IF SO, COF AND AM ARE READJUSTED SO THAT THE S/C WILL JUST SKIM THE GIMBAL
000048:                                                                                                  #  LOCK ZONE AND ALIGN THE X-AXIS.  IN GENERAL A FINAL YAW ABOUT X WILL BE NECESSARY TO COMPLETE THE MANEUVER.
000049:                                                                                                  #  NEEDLESS TO SAY, NEITHER THE INITIAL NOR THE FINAL ORIENTATION CAN BE IN GIMBAL LOCK.
000050:
000051:                                                                                                  #  FOR PROPER ATTITUDE CONTROL THE DIGITAL AUTOPILOT MUST BE GIVEN AN ATTITUDE REFERENCE WHICH IT CAN TRACK.
000052:                                                                                                  #  KALCMANU DOES THIS BY GENERATING A REFERENCE OF DESIRED GIMBAL ANGLES (CDUXD, CDUYD, CDUZD) WHICH ARE UPDATED
000053:                                                                                                  #  EVERY ONE SECOND DURING THE MANEUVER.  TO ACHIEVE A SMOOTHER SEQUENCE OF COMMANDS BETWEEN SUCCESSIVE UPDATES,
000054:                                                                                                  #  THE PROGRAM ALSO GENERATES A SET OF INCREMENTAL CDU ANGLES (DELDCDU) TO BE ADDED TO CDU DESIRED BY THE DIGITAL
000055:                                                                                                  #  AUTOPILOT.  KALCMANU ALSO CALCULATES THE COMPONENT MANEUVER RATES (OMEGAPD, OMEGAQD, OMEGARD), WHICH CAN
000056:                                                                                                  #                                       -
000057:                                                                                                  #  BE DETERMINED SIMPLY BY MULTIPLYING COF BY SOME SCALAR (ARATE) CORRESPONDING TO THE DESIRED ROTATIONAL RATE.
000058:
000059:                                                                                                  #  AUTOMATIC MANEUVERS ARE TIMED WITH THE HELP OF WAITLIST SO THAT AFTER A SPECIFIED INTERVAL THE Y AND Z
000060:                                                                                                  #  DESIRED RATES ARE SET TO ZERO AND THE DESIRED CDU ANGLES (CDUYD, CDUZD) ARE SET EQUAL TO THE FINAL DESIRED CDU
000061:                                                                                                  #  ANGLES (CTHETA, CPSI).  IF ANY YAW REMAINS DUE TO GIMBAL LOCK AVOIDANCE, THE FINAL YAW  MANEUVER IS
000062:                                                                                                  #  CALCULATED AND THE DESIRED YAW RATE SET TO SOME FIXED VALUE (ROLLRATE = + OR - 2 DEGREES PER SEC).
000063:                                                                                                  #  IN THIS CASE ONLY AN INCREMENTAL CDUX ANGLE (DELFROLL) IS SUPPLIED TO THE DAP.  AT THE END OF THE YAW
000064:                                                                                                  #  MANEUVER OR IN THE EVENT THAT THERE WAS NO FINAL YAW, CDUXD IS SET EQUAL TO CPHI AND THE X-AXIS DESIRED
000065:                                                                                                  #  RATE SET TO ZERO.  THUS, UPON COMPLETION OF THE MANEUVER THE S/C WILL FINISH UP IN A LIMIT CYCLE ABOUT THE
000066:                                                                                                  #  DESIRED FINAL GIMBAL ANGLES.
000067:
000068:                                                                                                  #  PROGRAM LOGIC FLOW
000069:
000070:                                                                                                  #  KALCMANU IS CALLED AS A HIGH PRIORITY JOB WITH ENTRY POINTS AT KALCMAN3 AND VECPOINT.  IT FIRST PICKS
000071:                                                                                                  #  UP THE CURRENT CDU ANGLES TO BE USED AS THE BASIS FOR ALL COMPUTATIONS INVOLVING THE INITIAL S/C ORIENTATION.


000073:                                                                                                  #  IT THEN DETERMINES THE DIRECTION COSINE MATRICES RELATING BOTH THE INITIAL AND FINAL S/C ORIENTATION TO STABLE
000074:                                                                                                  #                *   *                                                                               *
000075:                                                                                                  #  MEMBER AXES (MIS,MFS).  IT ALSO COMPUTES THE MATRIX RELATING FINAL S/C AXES TO INITIAL S/C AXES (MFI).  THE
000076:                                                                                                  #  ANGLE OF ROTATION (AM) IS THEN EXTRACTED FROM THIS MATRIX, AND TESTS ARE MADE TO DETERMINE IF
000077:
000078:                                                                                                  #        A)      AM LESS THAN .25 DEGREES (MINANG)
000079:                                                                                                  #        B)      AM GREATER THAN 170 DEGREES (MAXANG)
000080:
000081:                                                                                                  #  IF AM LESS THAN .25 DEGREES, NO COMPLICATED AUTOMATIC MANEUVERING IS NECESSARY.  THEREFORE WE CAN SIMPLY
000082:                                                                                                  #  SET CDU DESIRED EQUAL TO THE FINAL CDU DESIRED ANGLES AND TERMINATE THE JOB.
000083:
000084:                                                                                                  #  IF AM IS GREATER THAN .25 DEGREES BUT LESS THAN 170 DEGREES, THE AXES OF THE SINGLE EQUIVALENT ROTATION
000085:                                                                                                  #    -                                                       *
000086:                                                                                                  #  (COF) IS EXTRACTED FROM THE SKEW SYMMETRIC COMPONENTS OF MFI.                       *     *
000087:                                                                                                  #  IF AM GREATER THAN 170 DEGREES AN ALTERNATE METHOD EMPLOYING THE SYMMETRIC PART OF MFI (MFISYM) IS USED
000088:                                                                                                  #                -
000089:                                                                                                  #  TO DETERMINE COF.
000090:
000091:                                                                                                  #  THE PROGRAM THEN CHECKS TO SEE IF THE MANEUVER AS COMPUTED WILL BRING THE S/C THROUGH GIMBAL LOCK.  IF
000092:                                                                                                  #  SO, A NEW MANEUVER IS CALCULATED WHICH WILL JUST SKIM THE GIMBAL LOCK ZONE AND ALIGN THE S/C X-AXIS.  THIS
000093:                                                                                                  #  METHOD ASSURES THAT THE ADDITIONAL MANEUVERING TO AVOID GIMBAL LOCK WILL BE KEPT TO A MINIMUM.  SINCE A FINAL
000094:                                                                                                  #  P AXIS YAW WILL BE NECESSARY, A SWITCH IS RESET (STATE SWITCH 31) TO ALLOW FOR THE COMPUTATION OF THIS FINAL
000095:                                                                                                  #  YAW.
000096:
000097:                                                                                                  #  AS STATED PREVIOUSLY KALCMANU GENERATES A SEQUENCE OF DESIRED GIMBAL ANGLES WHICH ARE UPDATED EVERY
000098:                                                                                                  #                                                                                               -
000099:                                                                                                  #  SECOND.  THIS IS ACCOMPLISHED BY A SMALL ROTATION OF THE DESIRED S/C FRAME ABOUT THE VECTOR COF.  THE NEW
000100:                                                                                                  #  DESIRED REFERENCE MATRIX IS THEN,
000101:                                                                                                  #         *               *       *
000102:                                                                                                  #        MIS     =       MIS     DEL
000103:                                                                                                  #           N+1             N
000104:                                                                                                  #         *
000105:                                                                                                  #  WHERE DEL IS THE MATRIX CORRESPONDING TO THIS SMALL ROTATION.  THE NEW CDU ANGLES CAN THEN BE EXTRACTED
000106:                                                                                                  #        *
000107:                                                                                                  #  FROM MIS.
000108:
000109:                                                                                                  #  AT THE BEGINNING OF THE MANEUVER THE AUTOPILOT DESIRED RATES (OMEGAPD, OMEGAQD, OMEGARD) AND THE
000110:                                                                                                  #  MANEUVER TIMINGS ARE ESTABLISHED.  ON THE FIRST PASS AND ON ALL SUBSEQUENT UPDATES THE CDU DESIRED
000111:                                                                                                  #  ANGLES ARE LOADED WITH THE APPROPRIATE VALUES AND THE INCREMENTAL CDU ANGLES ARE COMPUTED.  THE AGC CLOCKS
000112:                                                                                                  #  (TIME1 AND TIME2) ARE THAN CHECKED TO SEE IF THE MANEUVER WILL TERMINATE BEFORE THE NEXT UPDATE.  IF
000113:                                                                                                  #  NOT, KALCMANU CALLS FOR ANOTHER UPDATE (RUN AS A JOB WITH PRIORITY TBD) IN ONE SECOND.  ANY DELAYS IN THIS
000114:                                                                                                  #  CALLING SEQUENCE ARE AUTOMATICALLY COMPENSATED IN CALLING FOR THE NEXT UPDATE.
000115:
000116:                                                                                                  #  IF IT IS FOUND THAT THE MANEUVER IS TO TERMINATE BEFORE THE NEXT UPDATE A ROUTINE IS CALLED (AS A WAIT-
000117:                                                                                                  #  LIST TASK) TO STOP THE MANEUVER AT THE APPROPRIATE TIME AS EXPLAINED ABOVE.
000118:


000120:                                                                                                  #  CALLING SEQUENCE
000121:
000122:                                                                                                  #  IN ORDER TO PERFORM A KALCMANU SUPERVISED MANEUVER, THE COMMANDED GIMBAL ANGLES MUST BE PRECOMPUTED AND
000123:                                                                                                  #  STORED IN LOCATIONS CPHI, CTHETA, CPSI.  THE USER:S PROGRAM MUST THEN CLEAR STATE SWITCH NO 33 TO ALLOW THE
000124:                                                                                                  #  ATTITUDE MANEUVER ROUTINE TO PERFORM ANY FINAL P-AXIS YAW INCURRED BY AVOIDING GIMBAL LOCK.  THE MANEUVER IS
000125:                                                                                                  #  THEN INITIATED BY ESTABLISHING THE FOLLOWING EXECUTIVE JOB
000126:                                                                                                  #                       *
000127:                                                                                                  #        CAF     PRIO XX
000128:                                                                                                  #                     --
000129:                                                                                                  #        INHINT
000130:                                                                                                  #        TC      FINDVAC
000131:                                                                                                  #        2CADR   KALCMAN3
000132:                                                                                                  #        RELINT
000133:
000134:                                                                                                  #  THE USER:S PROGRAM MAY EITHER CONTINUE OR WAIT FOR THE TERMINATION OF THE MANEUVER.  IF THE USER WISHES TO
000135:                                                                                                  #  WAIT, HE MAY PUT HIS JOB TO SLEEP WITH THE FOLLOWING INSTRUCTIONS
000136:
000137:                                                                                                  #        L       TC      BANKCALL
000138:                                                                                                  #        L+1     CADR    ATTSTALL
000139:                                                                                                  #        L+2     (BAD RETURN)
000140:                                                                                                  #        L+3     (GOOD RETURN)
000141:
000142:                                                                                                  #  UPON COMPLETION OF THE MANEUVER, THE PROGRAM WILL BE AWAKENED AT L+3 IF THE MANEUVER WAS COMPLETED
000143:                                                                                                  #  SUCCESSFULLY, OR AT L+2 IF THE MANEUVER WAS ABORTED.  THIS ABORT WOULD OCCUR IF THE INITIAL OR FINAL ATTITUDE
000144:                                                                                                  #  WAS IN GIMBAL LOCK.
000145:
000146:                                                                                                  #  *** NOTA BENE ***  IT IS ASSUMED THAT THE DESIRED MANEUVERING RATE (0.5, 2, 5, 10, DEG/SEC) HAS BEEN SELECTED BY
000147:                                                                                                  #  KEYBOARD ENTRY PRIOR TO THE EXECUTION OF KALCMANU.
000148:
000149:                                                                                                  #  IT IS ALSO ASSUMED THAT THE AUTOPILOT IS IN THE AUTO MODE.  IF THE MODE SWITCH IS CHANGED DURING THE
000150:                                                                                                  #  MANEUVER, KALCMANU WILL TERMINATE VIA GOODEND WITHIN 1 SECOND SO THAT R60 MAY REQUEST A TRIM OF THE S/C ATTITUDE
000151:                                                                                                  #  THIS IS THE ONLY MEANS FOR MANUALLY TERMINATING A KALCMANU SUPERVISED MANEUVER.
000152:                                                                                                  #  SUBROUTINES
000153:
000154:                                                                                                  #  KALCMANU USES A NUMBER OF INTERPRETIVE SUBROUTINES WHICH MAY BE OF GENERAL INTEREST.  SINCE THESE ROUTINES
000155:                                                                                                  #  WERE PROGRAMMED EXCLUSIVELY FOR KALCMANU, THEY ARE NOT, AS YET, GENERALLY AVAILABLE FOR USE BY OTHER PROGRAMS.
000156:
000157:                                                                                                  #  MXM3
000158:                                                                                                  #  ----
000159:
000160:                                                                                                  #  THIS SUBROUTINE MULTIPLIES TWO 3X3 MATRICES AND LEAVES THE RESULT IN THE FIRST 18 LOCATIONS OF THE PUSH
000161:                                                                                                  #  DOWN LIST, I.E.,
000162:                                                                                                  #                        ( M     M     M  )
000163:                                                                                                  #                        (  0     1     2 )
000164:                                                                                                  #        *               (                )              *               *
000165:                                                                                                  #        M       =       ( M     M     M  )      =       M1      X       M2
000166:                                                                                                  #                        (  3     4     5 )
000167:                                                                                                  #                        (                )
000168:                                                                                                  #                        ( M     M     M  )


000170:                                                                                                  #                        (  6     7     8 )
000171:                                                                                                  #                                                                                   *
000172:                                                                                                  #  INDEX REGISTER X1 MUST BE LOADED WITH THE COMPLEMENT OF THE STARTING ADDRESS FOR M1, AND X2 MUST BE
000173:                                                                                                  #                                                         *
000174:                                                                                                  #  LOADED WITH THE COMPLEMENT OF THE STARTING ADDRESS FOR M2.  THE ROUTINE USES THE FIRST 20 LOCATIONS OF THE PUSH
000175:                                                                                                  #  DOWN LIST.  THE FIRST ELEMENT OF THE MATRIX APPEARS IN PDO.  PUSH UP FOR M .
000176:                                                                                                  #                                                                            8
000177:                                                                                                  #  TRANSPOS
000178:                                                                                                  #  --------
000179:
000180:                                                                                                  #  THIS ROUTINE TRANSPOSES A 3X3 MATRIX AND LEAVES THE RESULT IN THE PUSH DOWN LIST, I.E.,
000181:                                                                                                  #
000182:                                                                                                  #        *               * T
000183:                                                                                                  #        M       =       M1
000184:
000185:                                                                                                  #  INDEX REGISTER X1 MUST CONTAIN THE COMPLEMENT OF THE STARTING ADDRESS FOR M1.  PUSH UP FOR THE FIRST AND SUB-
000186:                                                                                                  #                         *
000187:                                                                                                  #  SEQUENT COMPONENTS OF M.  THIS SUBROUTINE ALSO USES THE FIRST 20 LOCATIONS OF THE PUSH DOWN LIST.
000188:
000189:                                                                                                  #  CDU TO DCM
000190:                                                                                                  #  ----------
000191:
000192:                                                                                                  #  THIS SUBROUTINE CONVERTS THREE CDU ANGLES IN T(MPAC) TO A DIRECTION COSINE MATRIX (SCALED BY 2) RELATING
000193:                                                                                                  #  THE CORRESPONDING S/C ORIENTATIONS TO THE STABLE MEMBER FRAME.  THE FORMULAS FOR THIS CONVERSION ARE
000194:
000195:                                                                                                  #        M       =       COSY COSZ
000196:                                                                                                  #         0
000197:
000198:                                                                                                  #        M       =       -COSY SINZ COSX + SINY SINX
000199:                                                                                                  #         1
000200:
000201:                                                                                                  #        M       =       COSY SINZ SINX + SINY COSX
000202:                                                                                                  #         2
000203:
000204:                                                                                                  #        M       =       SINZ
000205:                                                                                                  #         3
000206:
000207:                                                                                                  #        M       =       COSZ COSX
000208:                                                                                                  #         4
000209:
000210:                                                                                                  #        M       =       -COSZ SINX
000211:                                                                                                  #         5
000212:
000213:                                                                                                  #        M       =       -SINY COSZ
000214:                                                                                                  #         6
000215:                                                                                                  #
000216:                                                                                                  #        M       =       SINY SINZ COSX + COSY SINX
000217:                                                                                                  #         7


000219:                                                                                                  #        M       =       -SINY SINZ SINX + COSY COSX
000220:                                                                                                  #         8
000221:
000222:                                                                                                  #  WHERE         X       =       OUTER GIMBAL ANGLE
000223:                                                                                                  #                Y       =       INNER GIMBAL ANGLE
000224:                                                                                                  #                Z       =       MIDDLE GIMBAL ANGLE
000225:
000226:                                                                                                  #  THE INTERPRETATION OF THIS MATRIX IS AS FOLLOWS
000227:
000228:                                                                                                  #  IF A , A , A  REPRESENT THE COMPONENTS OF A VECTOR IN S/C AXES THEN THE COMPONENTS OF THE SAME VECTOR IN
000229:                                                                                                  #      X   Y   Z
000230:                                                                                                  #  STABLE MEMBER AXES (B , B , B ) ARE
000231:                                                                                                  #                       X   Y   Z
000232:
000233:                                                                                                  #        ( B  )                  ( A  )
000234:                                                                                                  #        (  X )                  (  X )
000235:                                                                                                  #        (    )                  (    )
000236:                                                                                                  #        (    )            *     (    )
000237:                                                                                                  #        ( B  )     =      M     ( A  )
000238:                                                                                                  #        (  Y )                  (  Y )
000239:                                                                                                  #        (    )                  (    )
000240:                                                                                                  #        ( B  )                  ( A  )
000241:                                                                                                  #        (  Z )                  (  Z )
000242:
000243:                                                                                                  #  THE SUBROUTINE WILL STORE THIS MATRIX IN SEQUENTIAL LOCATIONS OF ERASABLE MEMORY AS SPECIFIED BY THE CALLING
000244:                                                                                                  #                                                                                                              *
000245:                                                                                                  #  PROGRAM.  TO DO THIS THE CALLING PROGRAM MUST FIRST LOAD X2 WITH THE COMPLEMENT OF THE STARTING ADDRESS FOR M.
000246:
000247:                                                                                                  #  INTERNALLY, THE ROUTINE USES THE FIRST 16 LOCATIONS OF THE PUSH DOWN LIST, ALSO STEP REGISTER S1 AND INDEX
000248:                                                                                                  #  REGISTER X2.
000249:
000250:                                                                                                  #  DCM TO CDU
000251:                                                                                                  #  ----------
000252:                                                                                                  #                                                                      *
000253:                                                                                                  #  THIS ROUTINE EXTRACTS THE CDU ANGLES FROMA DIRECTION COSINE MATRIX (M SCALED BY 2) RELATING S/C AXIS TO
000254:                                                                                                  #                                                                                  *
000255:                                                                                                  #  STABLE MEMBER AXES.  X1 MUST CONTAIN THE COMPLEMENT OF THE STARTING ADDRESS FOR M.  THE SUBROUTINE LEAVES THE
000256:                                                                                                  #  CORRESPONDING GIMBAL ANGLES IN V(MPAC) AS DOUBLE PRECISION 1:S COMPLEMENT ANGLES SCALED BY 2PI.  THE FORMULAS
000257:                                                                                                  #  FOR THIS CONVERSION ARE
000258:
000259:                                                                                                  #        Z       =       ARCSIN (M  )
000260:                                                                                                  #                                 3
000261:
000262:                                                                                                  #        Y       =       ARCSIN (-M /COSZ)
000263:                                                                                                  #                                  6
000264:
000265:                                                                                                  #  IF M  IS NEGATIVE, Y IS REPLACED BY PI SGN Y - Y
000266:                                                                                                  #      0


000268:                                                                                                  #        X       =       ARCSIN (-M /COSZ)
000269:                                                                                                  #                                  5
000270:
000271:                                                                                                  #  IF M  IS NEGATIVE X IS REPLACED BY PI SGN X - X
000272:                                                                                                  #      4
000273:
000274:                                                                                                  #  THIS ROUTINE DOES NOT SET THE PUSH DOWN POINTER, BUT USES THE NEXT 8 LOCATIONS OF THE PUSH DOWN LIST AND
000275:                                                                                                  #  RETURNS THE POINTER TO ITS ORIGINAL SETTING.  THIS PROCEDURE ALLOWS THE CALLER TO STORE THE MATRIX AT THE TOP OF
000276:                                                                                                  #  THE PUSH DOWN LIST.
000277:
000278:                                                                                                  #  DELCOMP
000279:                                                                                                  #  -------
000280:                                                                                                  #                                                      *
000281:                                                                                                  #  THIS ROUTINE COMPUTES THE DIRECTION COSINE MATRIX (DEL) RELATING ON
000282:                                                                                                  #                                                                           -
000283:                                                                                                  #  IS ROTATED WITH RESPECT TO THE FIRST BY AN ANGLE, A, ABOUT A UNIT VECTOR, U.  THE FORMULA FOR THIS MATRIX IS
000284:
000285:                                                                                                  #         *              *        - -T              *
000286:                                                                                                  #        DEL     =       I COSA + U U  (1 - COSA) + V  SINA
000287:                                                                                                  #                                                    X
000288:
000289:                                                                                                  #  WHERE         *               ( 1    0    0 )
000290:                                                                                                  #                I       =       ( 0    1    0 )
000291:                                                                                                  #                                ( 0    0    1 )
000292:
000293:                                                                                                  #                                     2
000294:                                                                                                  #                                (  U           U  U          U  U  )
000295:                                                                                                  #                                (   X           X  Y          X  Z )
000296:                                                                                                  #                                (                                  )
000297:                                                                                                  #                - -T            (                 2                )
000298:                                                                                                  #                U U     =       ( U  U          U            U  U  )
000299:                                                                                                  #                                (  Y  X          Y            Y  Z )
000300:                                                                                                  #                                (                                  )
000301:                                                                                                  #                                (                               2  )
000302:                                                                                                  #                                ( U  U         U  U           U    )
000303:                                                                                                  #                                (  Z  X         Z  Y           Z   )
000304:
000305:
000306:                                                                                                  #                                (   0           -U               U  )
000307:                                                                                                  #                                (                 Z               Y )
000308:                                                                                                  #                *               (                                   )
000309:                                                                                                  #                V       =       (  U             0              -U  )
000310:                                                                                                  #                 X              (   Z                             X )
000311:                                                                                                  #                                (                                   )
000312:                                                                                                  #                                ( -U             U               0  )
000313:                                                                                                  #                                (   Y             X                 )
000314:


000316:                                                                                                  #        -
000317:                                                                                                  #        U       =       UNIT ROTATION VECTOR RESOLVED INTO S/C AXES
000318:                                                                                                  #        A       =       ROTATION ANGLE
000319:
000320:                                                                                                  #                         *
000321:                                                                                                  #  THE INTERPRETATION OF DEL IS AS FOLLOWS
000322:
000323:                                                                                                  #  IF A , A , A  REPRESENT THE COMPONENT OF A VECTOR INTHE ROTATED FRAME, THEN THE COMPONENTS OF THE SAME
000324:                                                                                                  #      X   Y   Z
000325:                                                                                                  #  VECTOR IN THE ORIGINAL S/C AXES (B , B , B ) ARE
000326:                                                                                                  #                                    X   Y   Z
000327:
000328:                                                                                                  #        ( B  )                  ( A  )
000329:                                                                                                  #        (  X )                  (  X )
000330:                                                                                                  #        (    )            *     (    )
000331:                                                                                                  #        ( B  )     =     DEL    ( A  )
000332:                                                                                                  #        (  Y )                  (  Y )
000333:                                                                                                  #        (    )                  (    )
000334:                                                                                                  #        ( B  )                  ( A  )
000335:                                                                                                  #        (  Z )                  (  Z )
000336:
000337:                                                                                                  #  THE ROUTINE WILL STORE THIS MATRIX (SCALED UNITY) IN SEQUENTIAL LOCATIONS OF ERASABLE MEMORY BEGINNING WITH
000338:                                                                                                  #                                                                                              -
000339:                                                                                                  #  THE LOCATION CALLED DEL.  IN ORDER TO USE THE ROUTINE, THE CALLING PROGRAM MUST FIRST STORE U (A HALF UNIT
000340:                                                                                                  #  DOUBLE PRECISION VECTOR) IN THE SET OF ERASABLE LOCATIONS BEGINNING WITH THE ADDRESS CALLED COF.  THE ANGLE, A,
000341:                                                                                                  #  MUST THEN BE LOADED INTO D(MPAC).
000342:                                                                                                  #
000343:                                                                                                  #  INTERNALLY, THE PROGRAM ALSO USES THE FIRST 10 LOCATIONS OF THE PUSH DOWN LIST.
000344:
000345:                                                                                                  #  READCDUK
000346:                                                                                                  #  --------
000347:
000348:                                                                                                  #  THIS BASIC LANGUAGE SUBROUTINE LOADS T(MPAC) WITH THE THREE CDU ANGLES.
000349:
000350:                                                                                                  #  SIGNMPAC
000351:                                                                                                  #  --------
000352:
000353:                                                                                                  #  THIS IS A BASIC LANGUAGE SUBROUTINE WHICH LIMITS THE MAGNITUDE OF D(MPAC) TO + OR - DPOSMAX ON OVERFLOW.
000354:
000355:                                                                                                  #  PROGRAM STORAGE ALLOCATION
000356:
000357:                                                                                                  #        1)      FIXED MEMORY            1059 WORDS
000358:                                                                                                  #        2)      ERASABLE MEMORY           98
000359:                                                                                                  #        3)      STATE SWITCHES             3


000361:                                                                                                  #        4)      FLAGS                      1
000362:
000363:                                                                                                  #  JOB PRIORITIES
000364:
000365:                                                                                                  #        1)      KALCMANU                TBD
000366:                                                                                                  #        2)      ONE SECOND UPDATE       TBD
000367:
000368:                                                                                                  #  SUMMARY OF STATE SWITCHES AND FLAGWORDS USED BY KALCMANU.
000369:
000370:                                                                                                  #        STATE           FLAGWRD 2       SETTING         MEANING
000371:                                                                                                  #        SWITCH NO.      BIT NO.
000372:
000373:                                                                                                  #          *
000374:                                                                                                  #        31              14              0               MANEUVER WENT THROUGH GIMBAL LOCK
000375:                                                                                                  #                                        1               MANEUVER DID NOT GO THROUGH GIMBAL LOCK
000376:                                                                                                  #          *
000377:                                                                                                  #        32              13              0               CONTINUE UPDATE PROCESS
000378:                                                                                                  #                                        1               START UPDATE PROCESS
000379:
000380:                                                                                                  #        33              12              0               PERFORM FINAL P-AXIS YAW IF REQUIRED
000381:                                                                                                  #                                        1               IGNORE ANY FINAL P-AXIS YAW
000382:
000383:                                                                                                  #        34              11              0               SIGNAL END OF KALCMANU
000384:                                                                                                  #                                        1               KALCMANU IN PROCESS     USER MUST SET SWITCH BEFORE INITIATING
000385:
000386:                                                                                                  #        * INTERNAL TO KALCMANU
000387:
000388:                                                                                                  #  SUGGESTIONS FOR PROGRAM INTEGRATION
000389:
000390:                                                                                                  #  THE FOLLOWING VARIABLES SHOULD BE ASSIGNED TO UNSWITCH ERASABLE
000391:
000392:                                                                                                  #        CPHI
000393:                                                                                                  #        CTHETA
000394:                                                                                                  #        CPSI
000395:                                                                                                  #        POINTVSM +5
000396:                                                                                                  #        SCAXIS +5
000397:                                                                                                  #        DELDCDU
000398:                                                                                                  #        DELDCDU1
000399:                                                                                                  #        DELDCDU2
000400:                                                                                                  #        RATEINDX
000401:
000402:                                                                                                  #  THE FOLLOWING SUBROUTINES MAY BE PUT IN A DIFFERENT BANK
000403:
000404:                                                                                                  #        MXM3


000406:                                                                                                  #        TRANSPOS
000407:                                                                                                  #        SIGNMPAC
000408:                                                                                                  #        READCDUK
000409:                                                                                                  #        CDUTODCM
000410:


000412: 15,2050                                           BANK     15
000413: 22,2000                                           SETLOC   KALCMON1
000414: 22,2000                                           BANK
000415:
000416: 22,2004  E6,1675                                  EBANK=   BCDU
000417:
000418:                                                                                                  #  THE THREE DESIRED CDU ANGLES MUST BE STORED AS SINGLE PRECISION TWOS COMPLEMENT ANGLES IN THE THREE SUCCESSIVE
000419:                                                                                                  #  LOCATIONS, CPHI, CTHETA, CPSI.
000420:
000421: 22,2004                                           COUNT*   $$/KALC
000422: 22,2004           06042        KALCMAN3           TC       INTPRET                               #  PICK UP THE CURRENT CDU ANGLES AND
000423: 22,2005           77634                           RTB                                            #        COMPUTE THE MATRIX FROM INITIAL S/C
000424: 22,2006           44403                                    READCDUK                              #        AXES TO FINAL S/C AXES
000425: 22,2007           03276                           STORE    BCDU                                  #  STORE INITIAL S/C ANGLES
000426: 22,2010           51535                           SLOAD    ABS                                   #  CHECK THE MAGNITUDE OF THE DESIRED
000427: 22,2011           00324                                    CPSI                                  #  MIDDLE GIMBAL ANGLE
000428: 22,2012           51025                           DSU      BPL
000429: 22,2013           04403                                    LOCKANGL                              #  IF GREATER THAN 70 DEG ABORT MANEUVER
000430: 22,2014           44724                                    TOOBADF
000431: 22,2015           72364                           AXC,2    TLOAD
000432: 22,2016           03245                                    MIS
000433: 22,2017           03276                                    BCDU
000434: 22,2020           77624                           CALL                                           #  COMPUTE THE TRANSFORMATION FROM INITIAL
000435: 22,2021           44410                                    CDUTODCM                              #  S/C AXES TO STABLE MEMBER AXES
000436: 22,2022           72364                           AXC,2    TLOAD
000437: 22,2023           02230                                    MFS                                   #  PREPARE TO CALCULATE ARRAY MFS
000438: 22,2024           00322                                    CPHI
000439: 22,2025           77624                           CALL
000440: 22,2026           44410                                    CDUTODCM
000441: 22,2027           45160        SECAD              AXC,1    CALL                                  #  MIS AND MFS ARRAYS CALCULATED         $2
000442: 22,2030           03245                                    MIS
000443: 22,2031           44326                                    TRANSPOS
000444: 22,2032           45575                           VLOAD    STADR
000445: 22,2033           50460                           STOVL    TMIS       +12D
000446: 22,2034           77626                           STADR
000447: 22,2035           50466                           STOVL    TMIS       +6
000448: 22,2036           77626                           STADR
000449: 22,2037           74474                           STORE    TMIS                                  #  TMIS = TRANSPOSE(MIS) SCALED BY 2
000450: 22,2040           75160                           AXC,1    AXC,2
000451: 22,2041           03302                                    TMIS
000452: 22,2042           02230                                    MFS
000453: 22,2043           77624                           CALL
000454: 22,2044           44312                                    MXM3
000455: 22,2045           45575                           VLOAD    STADR
000456: 22,2046           51532                           STOVL    MFI        +12D
000457: 22,2047           77626                           STADR
000458: 22,2050           51540                           STOVL    MFI        +6
000459: 22,2051           77626                           STADR
000460: 22,2052           75546                           STORE    MFI                                   #  MFI = TMIS MFS (SCALED BY 4)
000461: 22,2053           45001                           SETPD    CALL                                  #  TRANSPOSE MFI IN PD LIST


000463: 22,2054           00023                                    18D
000464: 22,2055           44335                                    TRNSPSPD
000465: 22,2056           45575                           VLOAD    STADR
000466: 22,2057           50460                           STOVL    TMFI       +12D
000467: 22,2060           77626                           STADR
000468: 22,2061           50466                           STOVL    TMFI       +6
000469: 22,2062           77626                           STADR
000470: 22,2063           74474                           STORE    TMFI                                  #  TMFI = TRANSPOSE (MFI) SCALED BY 4
000471:
000472:                                                                                                  #  CALCULATE COFSKEW AND MFISYM
000473:
000474: 22,2064           45345                           DLOAD    DSU
000475: 22,2065           03305                                    TMFI       +2
000476: 22,2066           02233                                    MFI        +2
000477: 22,2067           45325                           PDDL     DSU                                   #  CALCULATE COF SCALED BY 2/SIN(AM)
000478: 22,2070           02235                                    MFI        +4
000479: 22,2071           03307                                    TMFI       +4
000480: 22,2072           45325                           PDDL     DSU
000481: 22,2073           03315                                    TMFI       +10D
000482: 22,2074           02243                                    MFI        +10D
000483: 22,2075           77666                           VDEF
000484: 22,2076           03325                           STORE    COFSKEW                               #  EQUALS MFISKEW
000485:
000486:                                                                                                  #  CALCULATE AM AND PROCEED ACCORDING TO ITS MAGNITUDE
000487:
000488: 22,2077           43345                           DLOAD    DAD
000489: 22,2100           02231                                    MFI
000490: 22,2101           02251                                    MFI        +16D
000491: 22,2102           43225                           DSU      DAD
000492: 22,2103           06514                                    DP1/4TH
000493: 22,2104           02241                                    MFI        +8D
000494: 22,2105           03333                           STORE    CAM                                   #  CAM = (MFI0+MFI4+MFI8-1)/2 HALF SCALE
000495: 22,2106           77726                           ARCCOS
000496: 22,2107           03335                           STORE    AM                                    #  AM=ARCCOS(CAM)        (AM SCALED BY 2)
000497: 22,2110           51025                           DSU      BPL
000498: 22,2111           04363                                    MINANG
000499: 22,2112           44117                                    CHECKMAX
000500: 22,2113           77751                           TLOAD                                          #  MANEUVER LESS THAN .25 DEGREES
000501: 22,2114           00322                                    CPHI                                  #  GO DIRECTLY INTO ATTITUDE HOLD
000502: 22,2115           37235                           STCALL   CDUXD                                 #  ABOUT COMMANDED ANGLES
000503: 22,2116           44742                                    TOOBADI                               #  STOP RATE AND EXIT
000504:
000505: 22,2117           45345        CHECKMAX           DLOAD    DSU
000506: 22,2120           03335                                    AM
000507: 22,2121           04365                                    MAXANG
000508: 22,2122           77244                           BPL      VLOAD
000509: 22,2123           44131                                    ALTCALC                               #  UNIT
000510: 22,2124           03325                                    COFSKEW                               #  COFSKEW
000511: 22,2125           77656                           UNIT
000512: 22,2126           03270                           STORE    COF                                   #  COF IS THE MANEUVER AXIS


000514: 22,2127           77650                           GOTO                                           #  SEE IF MANEUVER GOES THRU GIMBAL LOCK
000515: 22,2130           44744                                    LOCSKIRT
000516: 22,2131           53375        ALTCALC            VLOAD    VAD                                   #  IF AM GREATER THAN 170 DEGREES
000517: 22,2132           02231                                    MFI
000518: 22,2133           03303                                    TMFI
000519: 22,2134           77762                           VSR1
000520: 22,2135           27303                           STOVL    MFISYM
000521: 22,2136           02237                                    MFI        +6
000522: 22,2137           74455                           VAD      VSR1
000523: 22,2140           03311                                    TMFI       +6
000524: 22,2141           27311                           STOVL    MFISYM     +6
000525: 22,2142           02245                                    MFI        +12D
000526: 22,2143           74455                           VAD      VSR1
000527: 22,2144           03317                                    TMFI       +12D
000528: 22,2145           03317                           STORE    MFISYM     +12D                       #  MFISYM=(MFI+TMFI)/2   SCALED BY 4
000529:
000530:                                                                                                  #  CALCULATE COF
000531:
000532: 22,2146           70545                           DLOAD    SR1
000533: 22,2147           03333                                    CAM
000534: 22,2150           45325                           PDDL     DSU                                   #  PDO CAM                               $4
000535: 22,2151           06522                                    DPHALF
000536: 22,2152           03333                                    CAM
000537: 22,2153           65204                           BOVB     PDDL                                  #  PD2 1 - CAM                           $2
000538: 22,2154           21713                                    SIGNMPAC
000539: 22,2155           03323                                    MFISYM     +16D
000540: 22,2156           56225                           DSU      DDV
000541: 22,2157           00001                                    0
000542: 22,2160           00003                                    2
000543: 22,2161           65366                           SQRT     PDDL                                  #  COFZ = SQRT(MFISYM8-CAM)/1-CAM)
000544: 22,2162           03313                                    MFISYM     +8D                        #                                $ ROOT 2
000545: 22,2163           56225                           DSU      DDV
000546: 22,2164           00001                                    0
000547: 22,2165           00003                                    2
000548: 22,2166           65366                           SQRT     PDDL                                  #  COFY = SQRT(MFISYM4-CAM)/(1-CAM)      $ROOT2
000549: 22,2167           03303                                    MFISYM
000550: 22,2170           56225                           DSU      DDV
000551: 22,2171           00001                                    0
000552: 22,2172           00003                                    2
000553: 22,2173           55566                           SQRT     VDEF                                  #  COFX = SQRT(MFISYM-CAM)/(1-CAM)       $ROOT 2
000554: 22,2174           77656                           UNIT
000555: 22,2175           03270                           STORE    COF
000556:
000557:                                                                                                  #  DETERMINE LARGEST COF AND ADJUST ACCORDINGLY
000558:
000559: 22,2176           45345        COFMAXGO           DLOAD    DSU
000560: 22,2177           03270                                    COF
000561: 22,2200           03272                                    COF        +2
000562: 22,2201           71240                           BMN      DLOAD                                 #  COFY G COFX


000564: 22,2202           44211                                    COMP12
000565: 22,2203           03270                                    COF
000566: 22,2204           50025                           DSU      BMN
000567: 22,2205           03274                                    COF        +4
000568: 22,2206           44266                                    METHOD3                               #  COFZ G COFX OR COFY
000569: 22,2207           77650                           GOTO
000570: 22,2210           44242                                    METHOD1                               #  COFX G COFY OR COFZ
000571: 22,2211           45345        COMP12             DLOAD    DSU
000572: 22,2212           03272                                    COF        +2
000573: 22,2213           03274                                    COF        +4
000574: 22,2214           77640                           BMN
000575: 22,2215           44266                                    METHOD3                               #  COFZ G COFY OR COFX
000576:
000577: 22,2216           51145        METHOD2            DLOAD    BPL                                   #  COFY MAX
000578: 22,2217           03327                                    COFSKEW    +2                         #  UY
000579: 22,2220           44224                                    U2POS
000580: 22,2221           57575                           VLOAD    VCOMP
000581: 22,2222           03270                                    COF
000582: 22,2223           03270                           STORE    COF
000583: 22,2224           51145        U2POS              DLOAD    BPL
000584: 22,2225           03305                                    MFISYM     +2                         #  UX UY
000585: 22,2226           44232                                    OKU21
000586: 22,2227           57545                           DLOAD    DCOMP                                 #  SIGN OF UX OPPOSITE TO UY
000587: 22,2230           03270                                    COF
000588: 22,2231           03270                           STORE    COF
000589: 22,2232           51145        OKU21              DLOAD    BPL
000590: 22,2233           03315                                    MFISYM     +10D                       #  UY UZ
000591: 22,2234           44744                                    LOCSKIRT
000592: 22,2235           57545                           DLOAD    DCOMP                                 #  SIGN OF UZ OPPOSITE TO UY
000593: 22,2236           03274                                    COF        +4
000594: 22,2237           03274                           STORE    COF        +4
000595: 22,2240           77650                           GOTO
000596: 22,2241           44744                                    LOCSKIRT
000597: 22,2242           51145        METHOD1            DLOAD    BPL                                   #  COFX MAX
000598: 22,2243           03325                                    COFSKEW                               #  UX
000599: 22,2244           44250                                    U1POS
000600: 22,2245           57575                           VLOAD    VCOMP
000601: 22,2246           03270                                    COF
000602: 22,2247           03270                           STORE    COF
000603: 22,2250           51145        U1POS              DLOAD    BPL
000604: 22,2251           03305                                    MFISYM     +2                         #  UX UY
000605: 22,2252           44256                                    OKU12
000606: 22,2253           57545                           DLOAD    DCOMP
000607: 22,2254           03272                                    COF        +2                         #  SIGN OF UY OPPOSITE TO UX
000608: 22,2255           03272                           STORE    COF        +2
000609: 22,2256           51145        OKU12              DLOAD    BPL
000610: 22,2257           03307                                    MFISYM     +4                         #  UX UZ
000611: 22,2260           44744                                    LOCSKIRT
000612: 22,2261           57545                           DLOAD    DCOMP                                 #  SIGN OF UZ OPPOSITE TO UY
000613: 22,2262           03274                                    COF        +4


000615: 22,2263           03274                           STORE    COF        +4
000616: 22,2264           77650                           GOTO
000617: 22,2265           44744                                    LOCSKIRT
000618: 22,2266           51145        METHOD3            DLOAD    BPL                                   #  COFZ MAX
000619: 22,2267           03331                                    COFSKEW    +4                         #  UZ
000620: 22,2270           44274                                    U3POS
000621: 22,2271           57575                           VLOAD    VCOMP
000622: 22,2272           03270                                    COF
000623: 22,2273           03270                           STORE    COF
000624: 22,2274           51145        U3POS              DLOAD    BPL
000625: 22,2275           03307                                    MFISYM     +4                         #  UX UZ
000626: 22,2276           44302                                    OKU31
000627: 22,2277           57545                           DLOAD    DCOMP
000628: 22,2300           03270                                    COF                                   #  SIGN OF UX OPPOSITE TO UZ
000629: 22,2301           03270                           STORE    COF
000630: 22,2302           51145        OKU31              DLOAD    BPL
000631: 22,2303           03315                                    MFISYM     +10D                       #  UY UZ
000632: 22,2304           44744                                    LOCSKIRT
000633: 22,2305           57545                           DLOAD    DCOMP
000634: 22,2306           03272                                    COF        +2                         #  SIGN OF UY OPPOSITE TO UZ
000635: 22,2307           03272                           STORE    COF        +2
000636: 22,2310           77650                           GOTO
000637: 22,2311           44744                                    LOCSKIRT


000639:                                                                                                  #  MATRIX OPERATIONS
000640:
000641: 13,2207                                           BANK     13
000642: 22,2000                                           SETLOC   KALCMON2
000643: 22,2000                                           BANK
000644:
000645: 22,2312  E6,1675                                  EBANK=   BCDU
000646:
000647: 22,2312           76601        MXM3               SETPD    VLOAD*                                #  MXM3 MULTIPLIES 2 3X3 MATRICES
000648: 22,2313           00001                                    0                                     #  AND LEAVES RESULT IN PD LIST
000649: 22,2314           00001                                    0,1                                   #  AND MPAC
000650: 22,2315           62703                           VXM*     PDVL*
000651: 22,2316           77776                                    0,2
000652: 22,2317           00007                                    6,1
000653: 22,2320           62703                           VXM*     PDVL*
000654: 22,2321           77776                                    0,2
000655: 22,2322           00015                                    12D,1
000656: 22,2323           41503                           VXM*     PUSH
000657: 22,2324           77776                                    0,2
000658: 22,2325           77616                           RVQ
000659:
000660:                                                                                                  #  RETURN WITH M1XM2 IN PD LIST
000661:
000662: 22,2326           76601        TRANSPOS           SETPD    VLOAD*                                #  TRANSPOS TRANSPOSES A 3X3 MATRIX
000663: 22,2327           00001                                    0                                     #        AND LEAVES RESULT IN PD LIST
000664: 22,2330           00001                                    0,1                                   #  MATRIX ADDRESS IN XR1
000665: 22,2331           62713                           PDVL*    PDVL*
000666: 22,2332           00007                                    6,1
000667: 22,2333           00015                                    12D,1
000668: 22,2334           77606                           PUSH                                           #  MATRIX IN PD
000669: 22,2335           77776        TRNSPSPD           EXIT                                           #  ENTER WITH MATRIX AT 0 IN PD LIST
000670: 22,2336           50120                           INDEX    FIXLOC
000671: 22,2337           52013                           DXCH     12
000672: 22,2340           50120                           INDEX    FIXLOC
000673: 22,2341           52017                           DXCH     16
000674: 22,2342           50120                           INDEX    FIXLOC
000675: 22,2343           52013                           DXCH     12
000676: 22,2344           50120                           INDEX    FIXLOC
000677: 22,2345           52015                           DXCH     14
000678: 22,2346           50120                           INDEX    FIXLOC
000679: 22,2347           52005                           DXCH     4
000680: 22,2350           50120                           INDEX    FIXLOC
000681: 22,2351           52015                           DXCH     14
000682: 22,2352           50120                           INDEX    FIXLOC
000683: 22,2353           52003                           DXCH     2
000684: 22,2354           50120                           INDEX    FIXLOC
000685: 22,2355           52007                           DXCH     6
000686: 22,2356           50120                           INDEX    FIXLOC
000687: 22,2357           52003                           DXCH     2


000689: 22,2360           06042                           TC       INTPRET
000690: 22,2361           77616                           RVQ
000691:
000692: 15,2050                                           BANK     15
000693: 22,2000                                           SETLOC   KALCMON1
000694: 22,2000                                           BANK
000695:
000696: 22,2362  E6,1675                                  EBANK=   BCDU
000697:
000698: 22,2362           00013 13563  MINANG             2DEC     0.00069375
000699: 22,2364           17070 34343  MAXANG             2DEC     0.472222222
000700:
000701:                                                                                                  #  GIMBAL LOCK CONSTANTS
000702:
000703:                                                                                                  #  D = MGA CORRESPONDING TO GIMBAL LOCK = 60 DEGREES
000704:                                                                                                  #        NGL = BUFFER ANGLE (TO AVOID DIVISIONS BY ZERO) = 2 DEGREES
000705:
000706: 22,2366           15666 20443  SD                 2DEC     .433015                               #  = SIN(D)                              $2
000707: 22,2370           33555 01106  K3S1               2DEC     .86603                                #  = SIN(D)                              $1
000708: 22,2372           67777 77777  K4                 2DEC     -.25                                  #  = -COS(D)                             $2
000709: 22,2374           04000 00000  K4SQ               2DEC     .125                                  #  = COS(D)COS(D)                        $2
000710: 22,2376           00216 36323  SNGLCD             2DEC     .008725                               #  = SIN(NGL)COS(D)                      $2
000711: 22,2400           17773 00057  CNGL               2DEC     .499695                               #  COS(NGL)                              $2
000712: 22,2402           14344        LOCKANGL           DEC      .388889                               #  = 70 DEGREES
000713:
000714:                                                                                                  #  INTERPRETIVE SUBROUTINE TO READ THE CDU ANGLES
000715:
000716: 22,2403           30034        READCDUK           CA       CDUZ                                  #  LOAD T(MPAC) WITH CDU ANGLES
000717: 22,2404           54156                           TS       MPAC       +2
000718: 22,2405           00006                           EXTEND
000719: 22,2406           30033                           DCA      CDUX                                  #  AND CHANGE MODE TO TRIPLE PRECISION
000720: 22,2407           16501                           TCF      TLOAD      +6
000721:
000722: 22,2410           66370        CDUTODCM           AXT,1    SSP
000723: 22,2411           00003                           OCT      3
000724: 22,2412           00051                                    S1
000725: 22,2413           00001                           OCT      1                                     #  SET XR1, S1, AND PD FOR LOOP
000726: 22,2414           00010                           STORE    7
000727: 22,2415           77601                           SETPD
000728: 22,2416           00001                                    0
000729: 22,2417           47133        LOOPSIN            SLOAD*   RTB
000730: 22,2420           00013                                    10D,1
000731: 22,2421           21577                                    CDULOGIC


000733: 22,2422           00013                           STORE    10D                                   #  LOAD PD WITH  0 SIN(PHI)
000734: 22,2423           65356                           SIN      PDDL                                  #                2 COS(PHI)
000735: 22,2424           00013                                    10D                                   #                4 SIN(THETA)
000736: 22,2425           41546                           COS      PUSH                                  #                6 COS(THETA)
000737: 22,2426           71300                           TIX,1    DLOAD                                 #                8 SIN(PSI)
000738: 22,2427           44417                                    LOOPSIN                               #                10 COS(PSI)
000739: 22,2430           00007                                    6
000740: 22,2431           72405                           DMP      SL1
000741: 22,2432           00013                                    10D
000742: 22,2433           10001                           STORE    0,2                                   #  C0 = COS(THETA)COS(PSI)
000743: 22,2434           41345                           DLOAD    DMP
000744: 22,2435           00005                                    4
000745: 22,2436           00001                                    0
000746: 22,2437           41325                           PDDL     DMP                                   #  (PD6 SIN(THETA)SIN(PHI))
000747: 22,2440           00007                                    6
000748: 22,2441           00011                                    8D
000749: 22,2442           72405                           DMP      SL1
000750: 22,2443           00003                                    2
000751: 22,2444           72421                           BDSU     SL1
000752: 22,2445           00015                                    12D
000753: 22,2446           10003                           STORE    2,2                                   #  C1=-COS(THETA)SIN(PSI)COS(PHI)
000754: 22,2447           41345                           DLOAD    DMP
000755: 22,2450           00003                                    2
000756: 22,2451           00005                                    4
000757: 22,2452           41325                           PDDL     DMP                                   #  (PD7 COS(PHI)SIN(THETA)) SCALED 4
000758: 22,2453           00007                                    6
000759: 22,2454           00011                                    8D
000760: 22,2455           72405                           DMP      SL1
000761: 22,2456           00001                                    0
000762: 22,2457           72415                           DAD      SL1
000763: 22,2460           00017                                    14D
000764: 22,2461           10005                           STORE    4,2                                   #  C2=COS(THETA)SIN(PSI)SIN(PHI)
000765: 22,2462           77745                           DLOAD
000766: 22,2463           00011                                    8D
000767: 22,2464           10007                           STORE    6,2                                   #  C3=SIN(PSI)
000768: 22,2465           77745                           DLOAD
000769: 22,2466           00013                                    10D
000770: 22,2467           72405                           DMP      SL1
000771: 22,2470           00003                                    2
000772: 22,2471           10011                           STORE    8D,2                                  #  C4=COS(PSI)COS(PHI)
000773: 22,2472           41345                           DLOAD    DMP
000774: 22,2473           00013                                    10D
000775: 22,2474           00001                                    0
000776: 22,2475           72476                           DCOMP    SL1
000777: 22,2476           10013                           STORE    10D,2                                 #  C5=-COS(PSI)SIN(PHI)
000778: 22,2477           41345                           DLOAD    DMP
000779: 22,2500           00005                                    4
000780: 22,2501           00013                                    10D
000781: 22,2502           72476                           DCOMP    SL1
000782: 22,2503           10015                           STORE    12D,2                                 #  C6=-SIN(THETA)COS(PSI)


000784: 22,2504           77745                           DLOAD
000785: 22,2505           72405                           DMP      SL1                                   #  (PUSH UP 7)
000786: 22,2506           00011                                    8D
000787: 22,2507           41325                           PDDL     DMP                                   #  (PD7 COS(PHI)SIN(THETA)SIN(PSI)) SCALE 4
000788: 22,2510           00007                                    6
000789: 22,2511           00001                                    0
000790: 22,2512           72415                           DAD      SL1                                   #  (PUSH UP 7)
000791: 22,2513           77626                           STADR                                          #  C7=COS(PHI)SIN(THETA)SIN(PSI)
000792: 22,2514           67760                           STORE    14D,2                                 #        +COS(THETA)SIN(PHI)
000793: 22,2515           77745                           DLOAD
000794: 22,2516           72405                           DMP      SL1                                   #  (PUSH UP 6)
000795: 22,2517           00011                                    8D
000796: 22,2520           41325                           PDDL     DMP                                   #  (PD6 SIN(THETA)SIN(PHI)SIN(PSI)) SCALE 4
000797: 22,2521           00007                                    6
000798: 22,2522           00003                                    2
000799: 22,2523           72425                           DSU      SL1                                   #  (PUSH UP 6)
000800: 22,2524           77626                           STADR
000801: 22,2525           67756                           STORE    16D,2                                 #  C8=-SIN(THETA)SIN(PHI)SIN(PSI)
000802: 22,2526           77616                           RVQ                                            #  +COS(THETA)COS(PHI)
000803:
000804:                                                                                                  #  CALCULATION OF THE MATRIX DEL......
000805:
000806:                                                                                                  #         *         *           --T           *
000807:                                                                                                  #        DEL = (IDMATRIX)COS(A)+UU (1-COS(A))+UX SIN(A)          SCALED 1
000808:                                                                                                  #              -
000809:                                                                                                  #        WHERE U IS A UNIT VECTOR (DP SCALED 2) ALONG THE AXIS OF ROTATION.
000810:                                                                                                  #        A IS THE ANGLE OF ROTATION (DP SCALED 2)
000811:                                                                                                  #                                           -
000812:                                                                                                  #        UPON ENTRY THE STARTING ADDRESS OF U IS COF, AND A IS IN MPAC
000813:
000814: 22,2527           41401        DELCOMP            SETPD    PUSH                                  #  MPAC CONTAINS THE ANGLE A
000815: 22,2530           00001                                    0
000816: 22,2531           65356                           SIN      PDDL                                  #  PD0 = SIN(A)
000817: 22,2532           41546                           COS      PUSH                                  #  PD2 = COS(A)
000818: 22,2533           65302                           SR2      PDDL                                  #  PD2 = COS(A)                                  $8
000819: 22,2534           41021                           BDSU     BOVB
000820: 22,2535           06522                                    DPHALF
000821: 22,2536           21713                                    SIGNMPAC
000822: 22,2537           77725                           PDDL                                           #  PD4 = 1-COS(A)
000823:
000824:                                                                                                  #  COMPUTE THE DIAGONAL COMPONENTS OF DEL
000825:
000826: 22,2540           03270                                    COF
000827: 22,2541           41316                           DSQ      DMP
000828: 22,2542           00005                                    4
000829: 22,2543           52415                           DAD      SL3
000830: 22,2544           00003                                    2
000831: 22,2545           77604                           BOVB
000832: 22,2546           21713                                    SIGNMPAC


000834: 22,2547           16231                           STODL    KEL                                   #  UX UX(1-COS(A)) +COS(A)               $1
000835: 22,2550           03272                                    COF        +2
000836: 22,2551           41316                           DSQ      DMP
000837: 22,2552           00005                                    4
000838: 22,2553           52415                           DAD      SL3
000839: 22,2554           00003                                    2
000840: 22,2555           77604                           BOVB
000841: 22,2556           21713                                    SIGNMPAC
000842: 22,2557           16241                           STODL    KEL        +8D                        #  UY UY(1-COS(A)) +COS(A)               $1
000843: 22,2560           03274                                    COF        +4
000844: 22,2561           41316                           DSQ      DMP
000845: 22,2562           00005                                    4
000846: 22,2563           52415                           DAD      SL3
000847: 22,2564           00003                                    2
000848: 22,2565           77604                           BOVB
000849: 22,2566           21713                                    SIGNMPAC
000850: 22,2567           02251                           STORE    KEL        +16D                       #  UZ UZ(1-COS(A)) +COS(A)               $1
000851:
000852:                                                                                                  #  COMPUTE THE OFF DIAGONAL TERMS OF DEL
000853:
000854: 22,2570           41345                           DLOAD    DMP
000855: 22,2571           03270                                    COF
000856: 22,2572           03272                                    COF        +2
000857: 22,2573           72405                           DMP      SL1
000858: 22,2574           00005                                    4
000859: 22,2575           41325                           PDDL     DMP                                   #  D6     UX UY (1-COS A)                $4
000860: 22,2576           03274                                    COF        +4
000861: 22,2577           00001                                    0
000862: 22,2600           43206                           PUSH     DAD                                   #  D8    UZ SIN A                        $4
000863: 22,2601           00007                                    6
000864: 22,2602           41112                           SL2      BOVB
000865: 22,2603           21713                                    SIGNMPAC
000866: 22,2604           16237                           STODL    KEL        +6
000867: 22,2605           62421                           BDSU     SL2
000868: 22,2606           77604                           BOVB
000869: 22,2607           21713                                    SIGNMPAC
000870: 22,2610           16233                           STODL    KEL        +2
000871: 22,2611           03270                                    COF
000872: 22,2612           41205                           DMP      DMP
000873: 22,2613           03274                                    COF        +4
000874: 22,2614           00005                                    4
000875: 22,2615           65352                           SL1      PDDL                                  #  D6    UX UZ (1-COS A)                 $4
000876: 22,2616           03272                                    COF        +2
000877: 22,2617           41405                           DMP      PUSH                                  #  D8    UY SIN(A)
000878: 22,2620           00001                                    0
000879: 22,2621           62415                           DAD      SL2
000880: 22,2622           00007                                    6
000881: 22,2623           77604                           BOVB
000882: 22,2624           21713                                    SIGNMPAC
000883: 22,2625           16235                           STODL    KEL        +4                         #  UX UZ (1-COS(A))+UY SIN(A)


000885: 22,2626           62421                           BDSU     SL2
000886: 22,2627           77604                           BOVB
000887: 22,2630           21713                                    SIGNMPAC
000888: 22,2631           16245                           STODL    KEL        +12D                       #  UX UZ (1-COS(A))-UY SIN(A)
000889: 22,2632           03272                                    COF        +2
000890: 22,2633           41205                           DMP      DMP
000891: 22,2634           03274                                    COF        +4
000892: 22,2635           00005                                    4
000893: 22,2636           65352                           SL1      PDDL                                  #  D6    UY UZ (1-COS(A))                        $4
000894: 22,2637           03270                                    COF
000895: 22,2640           41405                           DMP      PUSH                                  #  D8    UX SIN(A)
000896: 22,2641           00001                                    0
000897: 22,2642           62415                           DAD      SL2
000898: 22,2643           00007                                    6
000899: 22,2644           77604                           BOVB
000900: 22,2645           21713                                    SIGNMPAC
000901: 22,2646           16247                           STODL    KEL        +14D                       #  UY UZ(1-COS(A)) +UX SIN(A)
000902: 22,2647           62421                           BDSU     SL2
000903: 22,2650           77604                           BOVB
000904: 22,2651           21713                                    SIGNMPAC
000905: 22,2652           02243                           STORE    KEL        +10D                       #  UY UZ (1-COS(A)) -UX SIN(A)
000906: 22,2653           77616                           RVQ
000907:
000908:                                                                                                  #  DIRECTION COSINE MATRIX TO CDU ANGLE ROUTINE
000909:
000910:                                                                                                  #  X1 CONTAINS THE COMPLEMENT OF THE STARTING ADDRESS FOR MATRIX (SCALED 2)
000911:                                                                                                  #  LEAVES CDU ANGLES SCALED 2PI IN V(MPAC)
000912:                                                                                                  #  COS(MGA) WILL BE LEFT IN S1 (SCALED 1)
000913:                                                                                                  #  THE DIRECTION COSINE MATRIX RELATING S/C AXES TO STABLE MEMBER AXES CAN BE WRITTEN AS***
000914:
000915:                                                                                                  #        C =COS(THETA)COS(PSI)
000916:                                                                                                  #         0
000917:
000918:                                                                                                  #        C =-COS(THETA)SIN(PSI)COS(PHI)+SI (THETA)SIN(PHI)
000919:                                                                                                  #         1
000920:
000921:                                                                                                  #        C =COS(THETA)SIN(PSI)SIN(PHI) + S N(THETA)COS(PHI)
000922:                                                                                                  #         2
000923:
000924:                                                                                                  #        C =SIN(PSI)
000925:                                                                                                  #         3
000926:
000927:                                                                                                  #        C =COS(PSI)COS(PHI)
000928:                                                                                                  #         4
000929:
000930:                                                                                                  #        C =-COS(PSI)SIN(PHI)
000931:                                                                                                  #         5
000932:
000933:                                                                                                  #        C =-SIN(THETA)COS(PSI)
000934:                                                                                                  #         6
000935:
000936:                                                                                                  #        C =SIN(THETA)SIN(PSI)COS(PHI)+COS THETA)SIN(PHI)
000937:                                                                                                  #         7
000938:
000939:                                                                                                  #        C =-SIN(THETA)SIN(PSI)SIN(PHI)+CO (THETA)COS(PHI)
000940:                                                                                                  #         8


000942:
000943:                                                                                                  #  WHERE PHI = OGA
000944:                                                                                                  #        THETA = IGA
000945:                                                                                                  #        PSI = MGA
000946:
000947: 22,2654           67543        DCMTOCDU           DLOAD*   ARCSIN
000948: 22,2655           00007                                    6,1
000949: 22,2656           71406                           PUSH     COS                                   #  PD +0         PSI
000950: 22,2657           41152                           SL1      BOVB
000951: 22,2660           21713                                    SIGNMPAC
000952: 22,2661           00051                           STORE    S1
000953: 22,2662           57543                           DLOAD*   DCOMP
000954: 22,2663           00015                                    12D,1
000955: 22,2664           67471                           DDV      ARCSIN
000956: 22,2665           00051                                    S1
000957: 22,2666           51123                           PDDL*    BPL                                   #  PD +2         THETA
000958: 22,2667           00001                                    0,1                                   #  MUST CHECK THE SIGN OF COS(THETA)
000959: 22,2670           44702                                    OKTHETA                               #  TO DETERMINE THE PROPER QUADRANT
000960: 22,2671           57545                           DLOAD    DCOMP
000961: 22,2672           43244                           BPL      DAD
000962: 22,2673           44677                                    SUHALFA
000963: 22,2674           06522                                    DPHALF
000964: 22,2675           77650                           GOTO
000965: 22,2676           44701                                    CALCPHI
000966: 22,2677           77625        SUHALFA            DSU
000967: 22,2700           06522                                    DPHALF
000968: 22,2701           77606        CALCPHI            PUSH
000969: 22,2702           57543        OKTHETA            DLOAD*   DCOMP
000970: 22,2703           00013                                    10D,1
000971: 22,2704           67471                           DDV      ARCSIN
000972: 22,2705           00051                                    S1
000973: 22,2706           51123                           PDDL*    BPL                                   #  PUSH DOWN PHI
000974: 22,2707           00011                                    8D,1
000975: 22,2710           44722                                    OKPHI
000976: 22,2711           57545                           DLOAD    DCOMP                                 #  PUSH UP PHI
000977: 22,2712           43244                           BPL      DAD
000978: 22,2713           44717                                    SUHALFAP
000979: 22,2714           06522                                    DPHALF
000980: 22,2715           77650                           GOTO
000981: 22,2716           44723                                    VECOFANG
000982: 22,2717           52025        SUHALFAP           DSU      GOTO
000983: 22,2720           06522                                    DPHALF
000984: 22,2721           44723                                    VECOFANG
000985: 22,2722           77745        OKPHI              DLOAD                                          #  PUSH UP PHI
000986: 22,2723           43466        VECOFANG           VDEF     RVQ


000988:                                                                                                  #  ROUTINES FOR TERMINATING THE AUTOMATIC MANEUVER AND RETURNING TO USER
000989:
000990: 22,2724           77776        TOOBADF            EXIT
000991: 22,2725           05567                           TC       ALARM
000992: 22,2726           00401                           OCT      00401
000993:
000994: 22,2727           12732                           TCF      NOGO                                  #  DO NOT ZERO ATTITUDE ERRORS
000995:
000996: 22,2730           04616                           TC       BANKCALL
000997: 22,2731           40154                           CADR     ZATTEROR                              #  ZERO ATTITUDE ERRORS
000998:
000999: 22,2732           04616        NOGO               TC       BANKCALL
001000: 22,2733           40166                           CADR     STOPRATE                              #  STOP RATES
001001:
001002: 22,2734           34752                           CAF      TWO
001003: 22,2735           00004                           INHINT                                         #  ALL RETURNS ARE NOW MADE VIA GOODEND
001004: 22,2736           05203                           TC       WAITLIST
001005: 22,2737  E6,1675                                  EBANK=   BCDU
001006: 22,2737           03234 44066                     2CADR    GOODMANU
001007:
001008: 22,2741           15155                           TCF      ENDOFJOB
001009:
001010: 22,2742           77776        TOOBADI            EXIT
001011: 22,2743           12732                           TCF      NOGO
001012:
001013:

End of include-file ATTITUDE_MANEUVER_ROUTINE.agc.  Parent file is MAIN.agc


