
Source Code


000002:                                                                                                  ## Copyright:   Public domain.
000003:                                                                                                  ## Filename:    DOWN-TELEMETRY_PROGRAM.agc
000004:                                                                                                  ## Purpose:     A section of LM131 revision 1.
000005:                                                                                                  ##              It is part of the reconstructed source code for the final
000006:                                                                                                  ##              release of the flight software for the Lunar Module's (LM)
000007:                                                                                                  ##              Apollo Guidance Computer (AGC) for Apollo 13. The code has
000008:                                                                                                  ##              been reconstructed from a listing of Luminary 131 and a dump
000009:                                                                                                  ##              of a core rope memory module B5, part number 2010802-171,
000010:                                                                                                  ##              which is the only module different between LM131 revision 1
000011:                                                                                                  ##              and Luminary 131. The executable generated from this source
000012:                                                                                                  ##              has been verified against the module dump, so while the names,
000013:                                                                                                  ##              comments, and ordering may not be exactly correct, the
000014:                                                                                                  ##              resulting binary is.
000015:                                                                                                  ## Reference:   pp. 982-991
000016:                                                                                                  ## Assembler:   yaYUL
000017:                                                                                                  ## Contact:     Ron Burkey <info@sandroid.org>.
000018:                                                                                                  ## Website:     www.ibiblio.org/apollo/index.html
000019:                                                                                                  ## Mod history: 2022-10-28 MAS  Created from Luminary 131.
000020:


000022:                                                                                                  #  PROGRAM NAME - DOWN TELEMETRY PROGRAM
000023:                                                                                                  #  MOD NO. - 0           TO COMPLETELY REWRITE THE DOWN TELEMETRY PROGRAM AND DOWNLINK ERASABLE DUMP PROGRAM FOR THE
000024:                                                                                                  #                        PURPOSE OF SAVING APPROXIMATELY 150 WORDS OF CORE STORAGE.
000025:                                                                                                  #                        THIS CHANGE REQUIRES AN ENTIRELY NEW METHOD OF SPECIFYING DOWNLINK LISTS.  REFER TO DOWNLINK
000026:                                                                                                  #                        LISTS LOG SECTION FOR MORE DETAILS.  HOWEVER THIS CHANGE WILL NOT AFFECT THE GROUND PROCESSING
000027:                                                                                                  #                        OF DOWN TELEMETRY DATA.
000028:                                                                                                  #  MOD BY - KILROY, SMITH, DEWITT
000029:                                                                                                  #  DATE - 02 OCT 67
000030:                                                                                                  #  AUTHORS - KILROY, SMITH, DEWITT, DEWOLF, FAGIN
000031:                                                                                                  #  LOG SECTION - DOWN-TELEMETRY PROGRAM
000032:
000033:                                                                                                  #  FUNCTIONAL DESCRIPTION - THIS ROUTINE IS INITIATED BY TELEMETRY END
000034:                                                                                                  #        PULSE FROM THE DOWNLINK TELEMETRY CONVERTER.  THIS PULSE OCCURS
000035:                                                                                                  #        AT 50 TIMES PER SEC (EVERY 20 MS) THEREFORE DODOWNTM IS
000036:                                                                                                  #        EXECUTED AT THESE RATES.  THIS ROUTINE SELECTS THE APPROPRIATE
000037:                                                                                                  #        AGC DATA TO BE TRANSMITTED DOWNLINK AND LOADS IT INTO OUTPUT
000038:                                                                                                  #        CHANNELS 34 AND 35.  THE INFORMATION IS THEN GATED OUT FROM THE
000039:                                                                                                  #        LGC IN SERIAL FASHION.
000040:
000041:                                                                                                  #        THIS PROGRAM IS CODED FOR A 2 SECOND DOWNLIST.  SINCE DOWNRUPTS
000042:                                                                                                  #        OCCUR EVERY 20 MS AND 2 AGC COMPUTER WORDS CAN BE PLACED IN
000043:                                                                                                  #        CHANNELS 34 AND 35 DURING EACH DOWNRUPT THE PROGRAM IS CAPABLE
000044:                                                                                                  #        OF SENDING 200 AGC WORDS EVERY 2 SECONDS.
000045:
000046:                                                                                                  #  CALLING SEQUENCE - NONE
000047:                                                                                                  #        PROGRAM IS ENTERED VIA TCF DODOWNTM WHICH IS EXECUTED AS A
000048:                                                                                                  #        RESULT OF A DOWNRUPT.  CONTROL IS RETURNED VIA TCF RESUME WHICH
000049:                                                                                                  #        IN EFFECT IS A RESUME.
000050:
000051:                                                                                                  #  SUBROUTINES CALLED - NONE
000052:
000053:                                                                                                  #  NORMAL EXIT MODE - TCF RESUME
000054:
000055:                                                                                                  #  ALARM OR ABORT EXIT MODE - NONE
000056:
000057:                                                                                                  #  RESTART PROTECTION:
000058:                                                                                                  #        ON A FRESH START AND RESTART THE 'STARTSUB' SUBROUTINE WILL INITIALIZE THE DOWNLIST POINTER (ACTUALLY
000059:                                                                                                  #        DNTMGOTO) TO THE BEGINNING OF THE CURRENT DOWNLIST (I.E. CURRENT CONTENTS OF DNLSTADR).  THIS HAS THE
000060:                                                                                                  #        EFFECT OF IGNORING THE REMAINDER OF THE DOWNLIST WHICH THE DOWN-TELEMETRY PROGRAM WAS WORKING ON WHEN
000061:                                                                                                  #        THE RESTART (OR FRESH START) OCCURRED AND RESUME DOWN TELEMETRY FROM THE BEGINNING OF THE CURRENT
000062:                                                                                                  #        DOWNLIST.
000063:
000064:                                                                                                  #        ALSO OF INTEREST IS THE FACT THAT ON A RESTART THE AGC WILL ZERO DOWNLINK CHANNELS 13, 34 AND 35.
000065:
000066:                                                                                                  #  DOWNLINK LIST SELECTION:
000067:                                                                                                  #        THE APPROPRIATE DOWNLINK LISTS ARE SELECTED BY THE FOLLOWING:
000068:                                                                                                  #        1.      FRESH START
000069:                                                                                                  #        2.      V37EXXE WHERE XX = THE MAJOR MODE BEING SELECTED.
000070:                                                                                                  #        3.      UPDATE PROGRAM (P27)
000071:                                                                                                  #        4.      NON-V37 SELECTABLE TYPE PROGRAMS (E.G. AGS  INITIALIZATION (SUNDANCE, LUMINARY) AND P61-P62
000072:                                                                                                  #                TRANSITION(COLOSSUS) ETC.).
000073:
000074:                                                                                                  #  DOWNLINK LIST RULES AND LIMITATIONS:
000075:                                                                                                  #        READ SECTION(S) WHICH FOLLOW 'DEBRIS' WRITEUP.
000076:
000077:                                                                                                  #  OUTPUT - EVERY 2 SECONDS 100 DOUBLE PRECISION WORDS (I.E. 200 LGC
000078:                                                                                                  #        COMPUTER WORDS) ARE TRANSMITTED VIA DOWNLINK.
000079:
000080:                                                                                                  #  ERASABLE INITIALIZATION REQUIRED - NONE
000081:                                                                                                  #        'DNTMGOTO' AND 'DNLSTADR' ARE INITIALIZED BY THE FRESH START PROGRAM.
000082:
000083:                                                                                                  #  DEBRIS (ERASABLE LOCATIONS DESTROYED BY THIS PROGRAM) -
000084:                                                                                                  #        LDATALST, DNTMBUFF TO DNTMBUFF +21D, TMINDEX, DNQ.


000087:


000089:                                                                                                  #  DODOWNTM IS ENTERED EVERY 20 MS BY AN INTERRUPT TRIGGERED BY THE
000090:                                                                                                  #  RECEIPT OF AN ENDPULSE FROM THE SPACECRAFT TELEMETRY PROGRAMMER.
000091:
000092:                                                                                                  #  NOTES REGARDING DOWNLINK LISTS ASSOCIATED WITH THIS PROGRAM:
000093:                                                                                                  #  1.    DOWNLISTS. - DOWNLISTS MUST BE COMPILED IN THE SAME BANK AS THE
000094:                                                                                                  #        DOWN-TELEMETRY PROGRAM.  THIS IS DONE FOR EASE OF CODING, FASTER
000095:                                                                                                  #        EXECUTION.
000096:                                                                                                  #  2.    EACH DOWNLINK LIST CONSISTS OF A CONTROL LIST AND A NUMBER OF
000097:                                                                                                  #        SUBLISTS.
000098:                                                                                                  #  3.    A SUBLIST REFERS TO A SNAPSHOT OR DATA COMMON TO THE SAME OR OTHER
000099:                                                                                                  #        DOWNLINK LISTS.  ANY SUBLIST CONTAINING COMMON DATA NEEDS TO BE
000100:                                                                                                  #        CODED ONLY ONCE FOR THE APPLICABLE DOWNLINK LISTS.
000101:                                                                                                  #  4.    SNAPSHOT SUBLISTS REFER SPECIFICALLY TO HOMOGENOUS DATA WHICH MUST BE
000102:                                                                                                  #        SAVED IN A BUFFER DURING ONE DOWNRUPT.
000103:                                                                                                  #  5.    THE 1DNADR FOR THE 1ST WORD OF SNAPSHOT DATA IS FOUND AT THE END
000104:                                                                                                  #        OF EACH SNAPSHOT SUBLIST, SINCE THE PROGRAM CODING SENDS THIS DP WORD
000105:                                                                                                  #        IMMEDIATELY AFTER STORING THE OTHERS IN THE SNAPSHOT BUFFER.
000106:                                                                                                  #  6.    ALL LISTS ARE COMBINATIONS OF CODED ERASABLE ADDRESS CONSTANTS
000107:                                                                                                  #        CREATED FOR THE DOWNLIST PROGRAM.
000108:                                                                                                  #        A.      1DNADR                  1-WORD DOWNLIST ADDRESS.
000109:                                                                                                  #                SAME AS ECADR, BUT USED WHEN THE WORD ADDRESSED IS THE LEFT
000110:                                                                                                  #                HALF OF A DOUBLE-PRECISION WORD FOR DOWN TELEMETRY.
000111:                                                                                                  #        B.      2DNADR - 6DNADR         N-WORD DOWNLIST ADDRESS, N = 2 - 6.
000112:                                                                                                  #                SAME AS 1DNADR, BUT WITH THE 4 UNUSED BITS OF THE ECADR FORMAT
000113:                                                                                                  #                FILLED IN WITH 0001-0101.  USED TO POINT TO A LIST OF N DOUBLE-
000114:                                                                                                  #                PRECISION WORDS, STORED CONSECUTIVELY, FOR DOWN TELEMETRY.
000115:                                                                                                  #        C.      DNCHAN                  DOWNLIST CHANNEL ADDRESS.
000116:                                                                                                  #                SAME AS 1DNADR, BUT WITH PREFIX BITS 0111.  USED TO POINT TO
000117:                                                                                                  #                A PAIR OF CHANNELS FOR DOWN TELEMETRY.
000118:                                                                                                  #        D.      DNPTR                   DOWN TELEMETRY SUBLIST POINTER.
000119:                                                                                                  #                SAME AS CAF BUT TAGGED AS A CONSTANT.  USED IN CONTROL LIST TO POINT TO A SUBLIST.
000120:                                                                                                  #                CAUTION--- A DNPTR CANNOT BE USED IN A SUBLIST.
000121:                                                                                                  #  7.    THE WORD ORDER CODE IS SET TO ZERO AT THE BEGINNING OF EACH DOWNLIST (I.E. CONTROL LIST) AND WHEN
000122:                                                                                                  #        A '1DNADR TIME2' IS DETECTED IN THE CONTROL LIST (ONLY).
000123:                                                                                                  #  8.    IN THE SNAPSHOT SUBLIST ONLY, THE DNADR'S CANNOT POINT TO THE FIRST WORD OF ANY EBANK.
000124:
000125:                                                                                                  #  DOWNLINK LIST RESTRICTIONS:
000126:                                                                                                  #  (THE FOLLOWING POINTS MAY BE LISTED ELSEWHERE BUT ARE LISTED HERE SO IT IS CLEAR THAT THESE THINGS CANNOT BE
000127:                                                                                                  #  DONE)
000128:                                                                                                  #  1.    SNAPSHOT DOWNLIST:
000129:                                                                                                  #        (A) CANNOT CONTAIN THE FOLLOWING ECADRS (I.E. 1DNADR'S): 0, 400, 1000, 1400, 2000, 2400, 3000, 3400.
000130:                                                                                                  #        (B) CAN CONTAIN ONLY 1DNADR'S
000131:                                                                                                  #  2.    ALL DOWNLINKED DATA (EXCEPT CHANNELS) IS PICKED UP BY A <DCA<SO DOWNLINK LISTS CANNOT CONTAIN THE
000132:                                                                                                  #        EQUIVALENT OF THE FOLLOWING ECADRS (I.E. IDNADRS): 377, 777, 1377, 1777, 2377, 27777, 3377, 3777.
000133:                                                                                                  #        (NOTE: THE TERM EQUIVALENT ' MEANT THAT THE IDNADR TO 6DNADR WILL BE PROCESSED LIKE 1 TO 6 ECADRS)
000134:                                                                                                  #  3.    CONTROL LISTS AND SUBLISTS CANNOT HAVE ENTRIES = OCTAL 00000 OR OCTAL 77777


000136:                                                                                                  #  4.    THE '1DNADR TIME2' WHICH WILL CAUSE THE DOWNLINK PROGRAM TO SET THE WORDER CODE TO 3 MUST APPEAR IN THE
000137:                                                                                                  #        CONTROL SECTION OF THE DOWNLIST.
000138:                                                                                                  #  5.    'DNCHAN 0' CANNOT BE USED.
000139:                                                                                                  #  6.    'DNPTR 0' CANNOT BE USED.
000140:                                                                                                  #  7.    DNPTR CANNOT APPEAR IN A SUBLIST.
000141:
000142:                                                                                                  #  EBANK SETTINGS
000143:                                                                                                  #        IN THE PROCESS OF SETTING THE EBANK (WHEN PICKING UP DOWNLINK DATA) THE DOWN TELEMETRY PROGRAM PUTS
000144:                                                                                                  #        'GARBAGE' INTO BITS15-12 OF EBANK.  HUGH BLAIR-SMITH WARNS US THAT BITS15-12 OF EBANK MAY BECOME
000145:                                                                                                  #        SIGNIFICANT SOMEDAY IN THE FUTURE.  IF/WHEN THAT HAPPENS, THE PROGRAM SHOULD INSURE (BY MASKING ETC.)
000146:                                                                                                  #        THAT BITS 15-12 OF EBANK ARE ZERO.
000147:
000148:                                                                                                  #  INITIALIZATION REQUIRED - TO INTERRUPT CURRENT LIST AND START A NEW ONE..
000149:                                                                                                  #        1. ADRES OF DOWNLINK LIST INTO DNLSTADR
000150:                                                                                                  #        2. NEGONE INTO SUBLIST
000151:                                                                                                  #        3. NEGONE INTO DNECADR
000152:
000153: 22,3711                                           BANK     22
000154: 05,2000                                           SETLOC   DOWNTELM
000155: 05,2000                                           BANK
000156:
000157: 05,3505     0340                                  EBANK=   DNTMBUFF
000158: 05,3505                                           COUNT*   $$/DPROG
000159: 05,3505           54016        DODOWNTM           TS       BANKRUPT
000160: 05,3506           00006                           EXTEND
000161: 05,3507           22012                           QXCH     QRUPT                                 #  SAVE Q
000162: 05,3510           34745                           CA       BIT7                                  #  AT THE BEGINNING OF THE LIST THE WORD
000163: 05,3511           00006                           EXTEND                                         #  ORDER BIT WILL BE SET BACK TO ZERO.
000164: 05,3512           02013                           RAND     CHAN13
000165: 05,3513           10000                           CCS      A
000166: 05,3514           00335                           TC       DNTMGOTO
000167: 05,3515           06022                           TC       C13STALL
000168: 05,3516           34745                           CA       BIT7
000169: 05,3517           00006                           EXTEND                                         #  SET WORD ORDER BIT TO 1 ONLY IF IT
000170: 05,3520           05013                           WOR      CHAN13                                #  ALREADY ISN'T.
000171: 05,3521           00335                           TC       DNTMGOTO                              #  GOTO APPROPRIATE PHASE OF PROGRAM
000172:
000173: 05,2000                                           SETLOC   DOWNTELM
000174: 05,2000                                           BANK
000175:
000176: 05,3522           37752        DNPHASE1           CA       NEGONE                                #  INITIALIZE ALL CONTROL WORDS
000177: 05,3523           54337                           TS       SUBLIST                               #  WORDS TO MINUS ONE
000178: 05,3524           54336                           TS       DNECADR
000179: 05,3525           33652                           CA       LDNPHAS2                              #  SET DNTMGOTO =O ALL SUBSEQUENT DOWNRUPTS


000181: 05,3526           54335                           TS       DNTMGOTO                              #  GO TO DNPHASE2
000182: 05,3527           13543                           TCF      NEWLIST
000183: 05,3530           10336        DNPHASE2           CCS      DNECADR                               #  SENDING OF DATA IN PROGRESS
000184: 05,3531           03665        DODNADR            TC       FETCH2WD                              #  YES - THEN FETCH THE NEXT 2 SP WORDS
000185: 05,3532           77753        MINTIME2           -1DNADR  TIME2                                 #  NEGATIVE OF TIME2 1DNADR
000186: 05,3533           13534                           TCF      +1                                    #  (ECADR OF 3776 + 74001 = 77777)
000187:
000188: 05,3534           10337                           CCS      SUBLIST                               #  IS THE SUBLIST IN CONTROL
000189: 05,3535           13700                           TCF      NEXTINSL                              #  YES
000190: 05,3536           74001        DNADRDCR           OCT      74001                                 #  DNADR COUNT AND ECADR DECREMENTER
000191:
000192: 05,3537           30334        CHKLIST            CA       CTLIST
000193: 05,3540           00006                           EXTEND
000194: 05,3541           63543                           BZMF     NEWLIST                               #  IT WILL BE NEGATIVE AT END OF LIST
000195: 05,3542           13550                           TCF      NEXTINCL
000196: 05,3543           50333        NEWLIST            INDEX    DNLSTCOD
000197: 05,3544           32441                           CA       DNTABLE                               #  INITIALIZE CTLIST WITH
000198: 05,3545           54334                           TS       CTLIST                                #        STARTING ADDRESS OF NEW LIST
000199: 05,3546           40333                           CS       DNLSTCOD
000200: 05,3547           13767                           TCF      SENDID     +3
000201: 05,3550           50334        NEXTINCL           INDEX    CTLIST
000202: 05,3551           30000                           CA       0
000203: 05,3552           10000                           CCS      A
000204: 05,3553           24334                           INCR     CTLIST                                #  SET POINTER TO PICK UP NEXT CTLIST WORD
000205: 05,3554           13560                           TCF      +4                                    #  ON NEXT ENTRY TO PROG. (A SHOULD NOT =0)
000206: 05,3555           56334                           XCH      CTLIST                                #  SET CTLIST TO NEGATIVE AND PLACE(CODING)
000207: 05,3556           40000                           COM                                            #  UNCOMPLEMENTED DNADR INTO A.    (FOR LA)
000208: 05,3557           56334                           XCH      CTLIST                                #                                  (ST IN )
000209: 05,3560           24000                 +4        INCR     A                                     #                                  (CTLIST)
000210: 05,3561           54336                           TS       DNECADR                               #  SAVE DNADR
000211: 05,3562           63532                           AD       MINTIME2                              #  TEST FOR TIME2 (NEG. OF ECADR)
000212: 05,3563           10000                           CCS      A
000213: 05,3564           13570                           TCF      SETWO      +1                         #  DON'T SET WORD ORDER CODE
000214: 05,3565           47777        MINB1314           OCT      47777                                 #  MINUS BIT 13 AND 14 (CAN'T GET HERE)
000215: 05,3566           13570                           TCF      SETWO      +1                         #  DON'T SET WORD ORDER CODE
000216: 05,3567           03612        SETWO              TC       WOZERO                                #  GO SET WORD ORDER CODE TO ZERO.
000217: 05,3570           30336                 +1        CA       DNECADR                               #  RELOAD A WITH THE DNADR.
000218: 05,3571           63565                 +2        AD       MINB1314                              #  IS THIS A REGULAR DNADR?
000219: 05,3572           00006                           EXTEND
000220: 05,3573           63665                           BZMF     FETCH2WD                              #  YES.  (A MUST NEVER BE ZERO)
000221: 05,3574           67744                           AD       MINB12                                #  NO- IS IT A POINTER (DNPTR) OR A
000222: 05,3575           00006                           EXTEND                                         #      CHANNEL(DNCHAN)
000223: 05,3576           63623                           BZMF     DODNPTR                               #  IT'S A POINTER.  (A MUST NEVER BE ZERO)
000224:
000225: 05,3577           00006        DODNCHAN           TC       6                                     #  (EXECUTED AS EXTEND)  IT S A CHANNEL
000226: 05,3600           50336                           INDEX    DNECADR
000227: 05,3601           44000                           INDEX    0          -4000                      #  (EXECUTED AS READ)
000228: 05,3602           54001                           TS       L
000229: 05,3603           00006                           TC       6                                     #  (EXECUTED AS EXTEND)
000230: 05,3604           50336                           INDEX    DNECADR


000232: 05,3605           43777                           INDEX    0          -4001                      #  (EXECUTED AS READ)
000233: 05,3606           54336                           TS       DNECADR                               #  SET DNECADR
000234: 05,3607           37752                           CA       NEGONE                                #        TO MINUS
000235: 05,3610           56336                           XCH      DNECADR                               #                WHILE PRESERVING A.
000236: 05,3611           13713                           TCF      DNTMEXIT                              #  GO SEND CHANNELS
000237:
000238: 05,3612           00006        WOZERO             EXTEND
000239: 05,3613           23265                           QXCH     C13QSAV
000240: 05,3614           22070                           LXCH     RUPTREG1
000241: 05,3615           06022                           TC       C13STALL
000242:
000243: 05,3616           22070                           LXCH     RUPTREG1
000244: 05,3617           44745                           CS       BIT7
000245: 05,3620           00006                           EXTEND
000246: 05,3621           03013                           WAND     CHAN13                                #  SET WORD ORDER CODE TO ZERO
000247: 05,3622           01265                           TC       C13QSAV
000248:
000249: 05,3623           50336        DODNPTR            INDEX    DNECADR                               #  DNECADR CONTAINS ADRES OF SUBLIST
000250: 05,3624           00000                           0        0                                     #  CLEAR AND ADD LIST ENTRY INTO A.
000251: 05,3625           10000                           CCS      A                                     #  IS THIS A SNAPSHOT SUBLIST
000252: 05,3626           30336                           CA       DNECADR                               #  NO, IT IS A REGULAR SUBLIST.
000253: 05,3627           13677                           TCF      DOSUBLST                              #  A MUST NOT BE ZERO.
000254:
000255: 05,3630           56336                           XCH      DNECADR                               #  YES, IT IS A SNAPSHOT SUBLIST.
000256: 05,3631           54337                           TS       SUBLIST                               #  C(DNECADR) INTO SUBLIST
000257: 05,3632           34755                           CAF      ZERO                                  #        A    INTO     A
000258: 05,3633           56336                           XCH      TMINDEX                               #  (NOTE.. TMINDEX = DNECADR)
000259:
000260:                                                                                                  #  THE FOLLOWING CODING (FROM SNAPLOOP TO SNAPEND) IS FOR THE PURPOSE OF TAKING A SNAPSHOT OF 12 DP REGISTERS.
000261:                                                                                                  #  THIS IS DONE BY SAVING 11 DP REGISTERS IN DNTMBUFF AND SENDING THE FIRST DP WORD IMMEDIATELY.
000262:                                                                                                  #  THE SNAPSHOT PROCESSING IS THE MOST TIME CONSUMING AND THEREFORE THE CODING AND LIST STRUCTURE WERE DESIGNED
000263:                                                                                                  #  TO MINIMIZE TIME.  THE TIME OPTIMIZATION RESULTS IN RULES UNIQUE TO THE SNAPSHOT PORTION OF THE DOWNLIST.
000264:                                                                                                  #  THESE RULES ARE ......
000265:                                                                                                  #        1.      ONLY 1DNADR'S CAN APPEAR IN THE SNAPSHOT SUBLIST
000266:                                                                                                  #        2.      THE 1DNADR'S CANNOT REFER TO THE FIRST LOCATION IN ANY BANK.
000267:
000268: 05,3634           54003        SNAPLOOP           TS       EBANK                                 #  SET EBANK
000269: 05,3635           74357                           MASK     LOW8                                  #  ISOLATE RELATIVE ADDRESS
000270: 05,3636           00006                           EXTEND
000271: 05,3637           50000                           INDEX    A
000272: 05,3640  E3,1401                                  EBANK=   1401
000273: 05,3640           31402                           DCA      1401                                  #  PICK UP 2 SNAPSHOT WORDS.
000274: 05,3641     0340                                  EBANK=   DNTMBUFF
000275: 05,3641           50336                           INDEX    TMINDEX
000276: 05,3642           52341                           DXCH     DNTMBUFF                              #  STORE 2 SNAPSHOT WORDS IN BUFFER
000277: 05,3643           24336                           INCR     TMINDEX                               #  SET BUFFER INDEX FOR NEXT 2 WORDS.
000278: 05,3644           24336                           INCR     TMINDEX
000279: 05,3645           24337        SNAPAGN            INCR     SUBLIST                               #  SET POINTER TO NEXT 2 WORDS OF SNAPSHOT


000281: 05,3646           50337                           INDEX    SUBLIST
000282: 05,3647           00000                           0        0                                     #  = CA SSSS (SSSS = NEXT ENTRY IN SUBLIST)
000283: 05,3650           10000                           CCS      A                                     #  TEST FOR LAST TWO WORDS OF SNAPSHOT.
000284: 05,3651           13634                           TCF      SNAPLOOP                              #  NOT LAST TWO.
000285: 05,3652           03530        LDNPHAS2           GENADR   DNPHASE2
000286: 05,3653           54337                           TS       SUBLIST                               #  YES, LAST.  SAVE A.
000287: 05,3654           37752                           CA       NEGONE                                #  SET DNECADR AND
000288: 05,3655           54336                           TS       DNECADR                               #        SUBLIST POINTERS
000289: 05,3656           56337                           XCH      SUBLIST                               #                TO NEGATIVE VALUES.
000290: 05,3657           54003                           TS       EBANK
000291: 05,3660           74357                           MASK     LOW8
000292: 05,3661           00006                           EXTEND
000293: 05,3662           50000                           INDEX    A
000294: 05,3663  E3,1401                                  EBANK=   1401
000295: 05,3663           31402                           DCA      1401                                  #  PICK UP FIRST 2 WORDS OF SNAPSHOT.
000296: 05,3664     0340                                  EBANK=   DNTMBUFF
000297: 05,3664           13713        SNAPEND            TCF      DNTMEXIT                              #  NOW GO SEND THEM.
000298:
000299: 05,3665           30336        FETCH2WD           CA       DNECADR
000300: 05,3666           54003                           TS       EBANK                                 #  SET EBANK
000301: 05,3667           74357                           MASK     LOW8                                  #  ISOLATE RELATIVE ADDRESS
000302: 05,3670           54001                           TS       L
000303: 05,3671           33536                           CA       DNADRDCR                              #  DECREMENT COUNT AND ECADR
000304: 05,3672           26336                           ADS      DNECADR
000305: 05,3673           00006                           EXTEND
000306: 05,3674           50001                           INDEX    L
000307: 05,3675  E3,1400                                  EBANK=   1400
000308: 05,3675           31401                           DCA      1400                                  #  PICK UP 2 DATA WORDS
000309: 05,3676     0340                                  EBANK=   DNTMBUFF
000310: 05,3676           13713                           TCF      DNTMEXIT                              #  NOW GO SEND THEM.
000311:
000312: 05,3677           54337        DOSUBLST           TS       SUBLIST                               #  SET SUBLIST POINTER
000313: 05,3700           50337        NEXTINSL           INDEX    SUBLIST
000314: 05,3701           00000                           0        0                                     #  = CA SSSS (SSSS = NEXT ENTRY IN SUBLIST)
000315: 05,3702           10000                           CCS      A                                     #  IS IT THE END OF THE SUBLIST
000316: 05,3703           24337                           INCR     SUBLIST                               #  NO -
000317: 05,3704           13710                           TCF      +4
000318: 05,3705           54337                           TS       SUBLIST                               #  SAVE A.
000319: 05,3706           37752                           CA       NEGONE                                #  SET SUBLIST TO MINUS
000320: 05,3707           56337                           XCH      SUBLIST                               #  RETRIEVE A.
000321: 05,3710           24000                 +4        INCR     A
000322: 05,3711           54336                           TS       DNECADR                               #  SAVE DNADR
000323: 05,3712           13571                           TCF      SETWO      +2                         #  GO USE COMMON CODING (PROBLEMS WOULD
000324:                                                                                                  #  OCCUR IF THE PROGRAM ENCOUNTERED A
000325:                                                                                                  #  DNPTR NOW)
000326:
000327: 05,3713           00006        DNTMEXIT           EXTEND                                         #  DOWN-TELEMETRY EXIT
000328: 05,3714           01034                           WRITE    DNTM1                                 #  TO SEND A + L TO CHANNELS 34 + 35
000329: 05,3715           30001                           CA       L                                     #  RESPECTIVELY
000330: 05,3716           00006        TMEXITL            EXTEND


000332: 05,3717           01035                           WRITE    DNTM2
000333: 05,3720           15270        TMRESUME           TCF      RESUME                                #  EXIT TELEMETRY PROGRAM VIA RESUME.
000334:
000335: 05,3721     7744               MINB12             EQUALS   -1/8
000336: 05,3721     0336               DNECADR            EQUALS   TMINDEX
000337: 05,3721     0334               CTLIST             EQUALS   LDATALST
000338: 05,3721     0337               SUBLIST            EQUALS   DNQ
000339:
000340:                                                                                                  #  MOD BY - DENSMORE - JUNE 1969 - ELIMINATE ERASABLE DUMP COUNT
000341:


000343:                                                                                                  #  SUBROUTINE NAME - DNDUMP
000344:
000345:                                                                                                  #  FUNCTIONAL DESCRIPTION - TO SEND (DUMP) ALL 8 BANKS OF ERASABLE STORAGE TWICE.  BANKS ARE SENT ONE AT A TIME
000346:                                                                                                  #        EACH BANK IS PRECEEDED BY AN ID WORD, SYNCH BITS, ECADR AND TIME1 FOLLOWED BY THE 256D WORDS OF EACH
000347:                                                                                                  #        EBANK.  EBANKS ARE DUMPED IN ORDER (I.E. EBANK 0 FIRST, THEN EBANK1 ETC.)
000348:
000349:                                                                                                  #  CALLING SEQUENCE - THE GROUND OR ASTRONAUT BY KEYING V74E CAN INITIALIZE THE DUMP.
000350:                                                                                                  #        AFTER KEYING IN V74E THE CURRENT DOWNLIST WILL BE IMMEDIATELY TERMINATED AND THE DOWNLINK ERASABLE DUMP
000351:                                                                                                  #        WILL BEGIN.
000352:
000353:                                                                                                  #        ONCE INITIATED THE DOWNLINK ERASABLE DUMP CAN BE TERMINATED (AND INTERRUPTED DOWNLIST REINSTATED) ONLY
000354:                                                                                                  #        BY THE FOLLOWING:
000355:
000356:                                                                                                  #        1.      A FRESH START
000357:                                                                                                  #        2.      COMPLETION OF BOTH COMPLETE DUMPS
000358:                                                                                                  #        3.      AND INVOLUNTARILY BY A RESTART.
000359:
000360:                                                                                                  #  NORMAL EXIT MODE - TCF DNPHASE1
000361:
000362:                                                                                                  #  ALARM OR ABORT MODE - NONE
000363:
000364:                                                                                                  #  *SUBROUTINES CALLED - NONE.
000365:
000366:                                                                                                  #  ERASABLE INITIALIZATION REQUIRED -
000367:                                                                                                  #        NONE
000368:
000369:                                                                                                  #  DEBRIS - DUMPLOC, DUMPSW, DNTMGOTO, EBANK AND CENTRAL REGISTERS
000370:
000371:                                                                                                  #  TIMING -      TIME (IN SECS) = ((NO.DUMPS)*(NO.EBANKS)*(WDSPEREBANK + NO.IDWDS)) / NO.WDSPERSEC
000372:                                                                                                  #                TIME (IN SECS) =  (   4    )*(    8    )*(    256     +     4   )  /     100
000373:                                                                                                  #                THUS TIME (IN SECS TO SEND DUMP OF ERASABLE 4 TIMES VIA DOWNLINK) = 83.2 SECONDS
000374:
000375:                                                                                                  #  STRUCTURE OF ONE EBANK AS IT IS SENT BY DOWNLINK PROGRAM -
000376:                                                                                                  #        (REMINDER - THIS ONLY DESCRIBES ONE OF THE 8 EBANKS X 4 (DUMPS) = 32 EBANKS WHICH WILL BE SENT BY DNDUMP)
000377:
000378:                                                                                                  #        DOWNLIST                                W
000379:                                                                                                  #          WORD  TAKEN FROM CONTENTS OF  EXAMPLE O       COMMENTS
000380:                                                                                                  #            1   ERASID                   0177X  0       DOWNLIST I.D. FOR DOWNLINK ERASABLE DUMP (X=7 CSM, 6 LM)
000381:                                                                                                  #            2   LOWIDCOD                 77340  1       DOWNLINK SYNCH BITS.  (SAME ONE USED IN ALL OTHER DOWNLISTS)
000382:                                                                                                  #            3   DUMPLOC                  13400  1       (SEE NOTES ON DUMPLOC) 1 = 3RD ERAS DUMP, 3400=ECADR OF 5TH WD
000383:                                                                                                  #            4   TIME1                    14120  1       TIME IN CENTISECONDS
000384:                                                                                                  #            5   FIRST WORD OF EBANK X    03400  1       IN THIS EXAMPLE THIS WORD = CONTENTS OF E7,1400 (ECADR 3400)
000385:                                                                                                  #            6   2ND   WORD OF EBANK X    00142  1       IN THIS EXAMPLE THIS WORD = CONTENTS OF E7,1401 (ECADR 3401)
000386:                                                                                                  #            7   3RD   WORD OF EBANK X    00142  1       IN THIS EXAMPLE THIS WORD = CONTENTS OF E7,1402 (ECADR 3402)
000387:                                                                                                  #            .                                   1
000388:                                                                                                  #            .                                   1
000389:                                                                                                  #            .                                   1
000390:                                                                                                  #         260D   256TH WORD OF EBANK X    03777  1       IN THIS EXAMPLE THIS WORD = CONTENTS OF E7,1777 (ECADR 3777)
000391:
000392:                                                                                                  #  NOTE -        DUMPLOC CONTAINS THE COUNTER AND ECADR FOR EACH WORD BEING SENT.
000393:                                                                                                  #                THE BIT STRUCTURE OF DUMPLOC IS FOLLOWS---
000394:                                                                                                  #                                                X = NOT USED
000395:                                                                                                  #                X ABC EEE RRRRRRRR            ABC = ERASABLE DUMP COUNTER (I.E. ABC = 0,1,2 OR 3 WHICH MEANS THAT
000396:                                                                                                  #                                                    COMPLETE ERASABLE DUMP NUMBER 1,2,3 OR 4 RESPECTIVELY IS IN PROGRESS)
000397:                                                                                                  #                                              EEE = EBANK BITS
000398:                                                                                                  #                                         RRRRRRRR = RELATIVE ADDRESS WITHIN AN EBANK.
000399:
000400: 05,3721           34755        DNDUMPI            CA       ZERO                                  #  INITIALIZE DOWNLINK
000401: 05,3722           54336                           TS       DUMPLOC                               #  ERASABLE DUMP
000402: 05,3723           03764                 +2        TC       SENDID                                #  GO SEND ID AND SYNCH BITS
000403:


000405: 05,3724           33733                           CA       LDNDUMP1                              #  SET DNTMGOTO
000406: 05,3725           54335                           TS       DNTMGOTO                              #  TO LOCATION FOR NEXT PASS
000407: 05,3726           30025                           CA       TIME1                                 #  PLACE TIME1
000408: 05,3727           56001                           XCH      L                                     #  INTO L
000409: 05,3730           30336                           CA       DUMPLOC                               #  AND ECADR OF THIS EBANK INTO A
000410: 05,3731           13713                           TCF      DNTMEXIT                              #  SEND DUMPLOC AND TIME1
000411:
000412: 05,3732           03734        LDNDUMP            ADRES    DNDUMP
000413: 05,3733           03746        LDNDUMP1           ADRES    DNDUMP1
000414:
000415: 05,3734           34752        DNDUMP             CA       TWO                                   #  INCREMENT ECADR IN DUMPLOC
000416: 05,3735           26336                           ADS      DUMPLOC                               #  TO NEXT DP WORD TO BE
000417: 05,3736           74357                           MASK     LOW8                                  #  DUMPED AND SAVE IT.
000418: 05,3737           10000                           CCS      A                                     #  IS THIS THE BEGINNING OF A NEW EBANK
000419: 05,3740           13750                           TCF      DNDUMP2                               #  NO - THEN CONTINUE DUMPING
000420: 05,3741           30336                           CA       DUMPLOC                               #  YES - IS THIS THE END OF THE
000421: 05,3742           74737                           MASK     BIT13                                 #  SECOND COMPLETE ERASABLE DUMP?
000422: 05,3743           00006                           EXTEND
000423: 05,3744           13723                           BZF      DNDUMPI    +2                         #  NO - GO BACK AND INITIALIZE NEXT BANK
000424: 05,3745           13522                           TCF      DNPHASE1                              #  YES - SEND DOWNLIST AGAIN
000425: 05,3746           33732        DNDUMP1            CA       LDNDUMP                               #  SET DNTMGOTO
000426: 05,3747           54335                           TS       DNTMGOTO                              #  FOR WORDS 3 TO 256D OF CURRENT EBANK
000427:
000428: 05,3750           30336        DNDUMP2            CA       DUMPLOC
000429: 05,3751           54003                           TS       EBANK                                 #  SET EBANK
000430: 05,3752           74357                           MASK     LOW8                                  #  ISOLATE RELATIVE ADDRESS.
000431: 05,3753           54002                           TS       Q                                     #  (NOTE: MASK INSTRUCTION IS USED TO PICK
000432: 05,3754           34754                           CA       NEG0                                  #  UP ERASABLE REGISTERS SO THAT EDITING
000433: 05,3755           54001                           TS       L                                     #  REGISTERS 20-23 WILL NOT BE ALTERED.)
000434: 05,3756           50002                           INDEX    Q
000435: 05,3757  E3,1400                                  EBANK=   1400                                  #  PICK UP LOW ORDER REGISTER OF PAIR
000436: 05,3757           71401                           MASK     1401                                  #  OF ERASABLE REGISTERS.
000437: 05,3760           56001                           XCH      L
000438: 05,3761           50002                           INDEX    Q                                     #  PICK UP HIGH ORDER REGISTER OF PAIR
000439: 05,3762           71400                           MASK     1400                                  #  OF ERASABLE REGISTERS.
000440: 05,3763     0340                                  EBANK=   DNTMBUFF
000441: 05,3763           13713                           TCF      DNTMEXIT                              #  GO SEND THEM
000442:
000443: 05,3764           00006        SENDID             EXTEND                                         #  ** ENTRANCE USED BY ERASABLE DUMP PROG. **
000444: 05,3765           22335                           QXCH     DNTMGOTO                              #  SET DNTMGOTO SO NEXT TIME PROG WILL GO
000445: 05,3766           35011                           CAF      ERASID                                #  TO LOCATION FOLLOWING :TC SENDID:
000446:
000447: 05,3767           54001                           TS       L                                     #  ** ENTRANCE USED BY REGULAR DOWNLINK PG **
000448: 05,3770           03612                           TC       WOZERO                                #  GO SET WORD ORDER CODE TO ZERO
000449: 05,3771           32065                           CAF      LOWIDCOD                              #  PLACE SPECIAL ID CODE INTO L
000450: 05,3772           56001                           XCH      L                                     #  AND ID BACK INTO A
000451: 05,3773           13713                           TCF      DNTMEXIT                              #  SEND DOWNLIST ID CODE(S).
000452:

End of include-file DOWN-TELEMETRY_PROGRAM.agc.  Parent file is MAIN.agc


