
Source Code


000002:                                                                                                  ## Copyright:   Public domain.
000003:                                                                                                  ## Filename:    FIXED-FIXED_CONSTANT_POOL.agc
000004:                                                                                                  ## Purpose:     A section of LM131 revision 1.
000005:                                                                                                  ##              It is part of the reconstructed source code for the final
000006:                                                                                                  ##              release of the flight software for the Lunar Module's (LM)
000007:                                                                                                  ##              Apollo Guidance Computer (AGC) for Apollo 13. The code has
000008:                                                                                                  ##              been reconstructed from a listing of Luminary 131 and a dump
000009:                                                                                                  ##              of a core rope memory module B5, part number 2010802-171,
000010:                                                                                                  ##              which is the only module different between LM131 revision 1
000011:                                                                                                  ##              and Luminary 131. The executable generated from this source
000012:                                                                                                  ##              has been verified against the module dump, so while the names,
000013:                                                                                                  ##              comments, and ordering may not be exactly correct, the
000014:                                                                                                  ##              resulting binary is.
000015:                                                                                                  ## Reference:   pp. 1089-1093
000016:                                                                                                  ## Assembler:   yaYUL
000017:                                                                                                  ## Contact:     Ron Burkey <info@sandroid.org>.
000018:                                                                                                  ## Website:     www.ibiblio.org/apollo/index.html
000019:                                                                                                  ## Mod history: 2022-10-28 MAS  Created from Luminary 131.
000020:


000022:    4732                                           BLOCK    02
000023:    4732                                           COUNT*   $$/FCONS
000024:
000025:                                                                                                  #  THE FOLLOWING TABLE OF 18 VALUES IS INDEXED.  DO NOT INSERT OR REMOVE ANY QUANTITIES.
000026:
000027:    4732           37777        DPOSMAX            OCT      37777                                 #  MUST PRECEDE POSMAX
000028:    4733           37777        POSMAX             OCT      37777
000029:
000030:    4734     4734               LIMITS             =        NEG1/2
000031:
000032:    4734           57777        NEG1/2             OCT      -20000                                #  USED BY SIN ROUTINE (MUST BE TWO
000033:                                                                                                  #  LOCATIONS IN FRONT OF BIT14)
000034:
000035:                                                                                                  #  BIT TABLE
000036:
000037:    4735           40000        BIT15              OCT      40000
000038:    4736           20000        BIT14              OCT      20000
000039:    4737           10000        BIT13              OCT      10000
000040:    4740           04000        BIT12              OCT      04000
000041:    4741           02000        BIT11              OCT      02000
000042:    4742           01000        BIT10              OCT      01000
000043:    4743           00400        BIT9               OCT      00400
000044:    4744           00200        BIT8               OCT      00200
000045:    4745           00100        BIT7               OCT      00100
000046:    4746           00040        BIT6               OCT      00040
000047:    4747           00020        BIT5               OCT      00020
000048:    4750           00010        BIT4               OCT      00010
000049:    4751           00004        BIT3               OCT      00004
000050:    4752           00002        BIT2               OCT      00002
000051:    4753           00001        BIT1               OCT      00001
000052:
000053:                                                                                                  #  DO NOT DESTROY THIS COMBINATION, SINCE IT IS USED IN DOUBLE PRECISION INSTRUCTIONS.
000054:    4754           77777        NEG0               OCT      -0                                    #  MUST PRECEDE ZERO
000055:    4755           00000        ZERO               OCT      0                                     #  MUST FOLLOW NEG0
000056:                                                                                                  #  BIT1          OCT     00001
000057:                                                                                                  #  NO.WDS        OCT     2               INTERPRETER
000058:                                                                                                  #  OCTAL3        OCT     3               INTERPRETER
000059:                                                                                                  #  R3D1          OCT     4               PINBALL
000060:    4756           00005        FIVE               OCT      5
000061:                                                                                                  #  REVCNT        OCT     6               INTERPRETER
000062:    4757           00007        SEVEN              OCT      7
000063:                                                                                                  #  BIT4          OCT     00010
000064:                                                                                                  #  R2D1          OCT     11              PINBALL
000065:    4760     4320               OCT11              =        R2D1                                  #  P20S
000066:                                                                                                  #  BINCON        DEC     10              PINBALL         (OCTAL 12)
000067:    4760           00013        ELEVEN             DEC      11         B-14
000068:                                                                                                  #  OCT14         OCT     14              ALARM AND ABORT (FILLER)
000069:    4761           00015        OCT15              OCT      15
000070:                                                                                                  #  R1D1          OCT     16              PINBALL
000071:    4762           00017        LOW4               OCT      17


000073:                                                                                                  #  BIT5          OCT     00020
000074:                                                                                                  #  ND1           OCT     21              PINBALL
000075:                                                                                                  #  VD1           OCT     23              PINBALL
000076:                                                                                                  #  OCT24         OCT     24              SERVICE ROUTINES
000077:                                                                                                  #  MD1           OCT     25              PINBALL
000078:    4763           00030        BITS4&5            OCT      30
000079:                                                                                                  #  OCT31         OCT     31              SERVICE ROUTINES
000080:    4764           00033        OCT33              OCT      33
000081:    4765     4764               DEC27              =        OCT33
000082:    4765           00035        OCT35              OCT      35
000083:    4766     4765               DEC29              =        OCT35
000084:    4766           00032        CALLCODE           OCT      00032
000085:                                                                                                  #  LOW5          OCT     37              PINBALL
000086:                                                                                                  #  33DEC         DEC     33              PINBALL         (OCTAL 41)
000087:                                                                                                  #  34DEC         DEC     34              PINBALL         (OCTAL 42)
000088:    4767           00045        TBUILDFX           DEC      37         B-14                       #  BUILDUP FOR CONVIENCE IN DAPTESTING
000089:    4770           00046        TDECAYFX           DEC      38         B-14                       #  CONVENIENCE FOR DAPTESTING
000090:                                                                                                  #  BIT6          OCT     00040
000091:    4771           00050        OCT50              OCT      50
000092:    4772           00055        DEC45              DEC      45         B-14
000093:    4773           00060        SUPER011           OCT      60                                    #  BITS FOR SUPERBNK SETTING 011.
000094:    4774           00062        .5SEC              DEC      50         B-14
000095:                                                                                                  #  BIT7          OCT     00100
000096:
000097:    4775     4745               SUPER100           =        BIT7                                  #  BITS FOR SUPERBNK SETTING 100
000098:                                                                                                  #  (LAST 4K OF ROPE)
000099:    4775           00120        SUPER101           OCT      120                                   #  BITS FOR SUPERBNK SETTING 101
000100:                                                                                                  #  OCT121        OCT     121             SERVICE ROUTINES
000101:                                                                                                  #  (FIRST 8K OF ACM)
000102:    4776           00140        SUPER110           OCT      140                                   #  BITS FOR SUPERBNK SETTING 110.
000103:                                                                                                  #  (LAST 8K OF ACM)
000104:    4777           00144        1SEC               DEC      100        B-14
000105:                                                                                                  #  LOW7          OCT     177             INTERPRETER
000106:                                                                                                  #  BIT8          OCT     00200
000107:                                                                                                  #  OT215         OCT     215             ALARM AND ABORT
000108:                                                                                                  #  8,5           OCT     00220           P20-P25 SUNDANCE
000109:    5000           00310        2SECS              DEC      200        B-14
000110:                                                                                                  #  LOW8          OCT     377             PINBALL
000111:                                                                                                  #  BIT9          OCT     00400
000112:    5001           00401        GN/CCODE           OCT      00401                                 #  SET S/C CONTROL SWITCH TO G/N
000113:    5002           00454        3SECS              DEC      300        B-14
000114:    5003           00620        4SECS              DEC      400        B-14
000115:    5004           00777        LOW9               OCT      777
000116:                                                                                                  #  BIT10         OCT     01000
000117:                                                                                                  #  5.5DEGS       DEC     .03056          P20-P25 SUNDANCE        (OCTAL 00765)
000118:                                                                                                  #  OCT1103       OCT     1103            ALARM AND ABORT
000119:    5005           01124        C5/2               DEC      .0363551                              #                        (OCTAL 01124)
000120:    5006           01211        V05N09             VN       0509                                  #  (SAME AS OCTAL 1211)
000121:    5007           01400        OCT1400            OCT      01400
000122:    5010           01426        V06N22             VN       0622


000124:                                                                                                  #  MID5          OCT     1740            PINBALL
000125:    5011           01776        BITS2-10           OCT      1776
000126:    5012           01777        LOW10              OCT      1777
000127:                                                                                                  #  BIT11         OCT     02000
000128:                                                                                                  #  2K+3          OCT     2003            PINBALL
000129:    5013           02177        LOW7+2K            OCT      2177                                  #  OP CODE MASK + BANK 1 FBANK SETTING.
000130:    5014           02400        EBANK5             OCT      02400
000131:    5015           03000        PRIO3              OCT      03000
000132:    5016           03400        EBANK7             OCT      03400
000133:                                                                                                  #  LOW11         OCT     3777            PINBALL
000134:                                                                                                  #  BIT12         OCT     04000
000135:                                                                                                  #  RELTAB        OCT     04025           T4RUPT
000136:    5017           05000        PRIO5              OCT      05000
000137:    5020           06000        PRIO6              OCT      06000
000138:    5021           07000        PRIO7              OCT      07000
000139:
000140:                                                                                                  #  BIT13         OCT     10000
000141:                                                                                                  #                OCT     10003           T4RUPT  RELTAB +1D
000142:                                                                                                  #  13,7,2        OCT     10102           P20-P25 SUNDANCE
000143:    5022           11000        PRIO11             OCT      11000
000144:                                                                                                  #  PRIO12        OCT     12000           BANKCALL
000145:    5023           13000        PRIO13             OCT      13000
000146:    5024           14000        PRIO14             OCT      14000
000147:                                                                                                  #                OCT     14031           T4RUPT  RELTAB +2D
000148:    5025           15000        PRIO15             OCT      15000
000149:    5026           16000        PRIO16             OCT      16000
000150:                                                                                                  #  85DEGS        DEC     .45556          P20-P25 SUNDANCE        (OCTAL 16450)
000151:    5027           17000        PRIO17             OCT      17000
000152:    5030           17770        OCT17770           OCT      17770
000153:                                                                                                  #  BIT14         OCT     20000
000154:                                                                                                  #                OCT     20033           T4RUPT  RELTAB +3D
000155:    5031           21000        PRIO21             OCT      21000
000156:
000157:    7713                                           BLOCK    03
000158:    7713                                           COUNT*   $$/FCONS
000159:
000160:    7713           22000        PRIO22             OCT      22000                                 #  SERVICE ROUTINES
000161:    7714           23000        PRIO23             OCT      23000
000162:    7715           24000        PRIO24             OCT      24000
000163:                                                                                                  #  5/8+1         OCT     24001           SINGLE PRECISION SUBROUTINES
000164:                                                                                                  #                OCT     24017           T4RUPT  RELTAB +4D
000165:    7716           25000        PRIO25             OCT      25000
000166:    7717           26000        PRIO26             OCT      26000
000167:    7720           27000        PRIO27             OCT      27000
000168:                                                                                                  #  CHRPRIO       OCT     30000           PINBALL
000169:                                                                                                  #                OCT     30036           T4RUPT  RELTAB +5D
000170:    7721           31000        PRIO31             OCT      31000
000171:    7722           31103        C1/2               DEC      .7853134                              #                        (OCTAL 31103)
000172:    7723           32000        PRIO32             OCT      32000
000173:    7724           33000        PRIO33             OCT      33000
000174:    7725           34000        PRIO34             OCT      34000
000175:                                                                                                  #                OCT     34034           T4RUPT  RELTAB +6D


000177:    7726           35000        PRIO35             OCT      35000
000178:    7727           36000        PRIO36             OCT      36000
000179:    7730           37000        PRIO37             OCT      37000
000180:    7731           37401        63/64+1            OCT      37401
000181:                                                                                                  #  MID7          OCT     37600           PINBALL
000182:    7732           37766        OCT37766           OCT      37766
000183:    7733           37774        OCT37774           OCT      37774
000184:    7734           37776        OCT37776           OCT      37776
000185:                                                                                                  #  DPOSMAX       OCT     37777
000186:                                                                                                  #  BIT15         OCT     40000
000187:                                                                                                  #  OCT40001      OCT     40001           INTERPRETER (CS 1 INSTRUCTION)
000188:    7735           40014        DLOADCOD           OCT      40014
000189:    7736           40015        DLOAD*             OCT      40015
000190:                                                                                                  #                OCT     40023           T4RUPT  RELTAB +7D
000191:    7737           40040        BIT15+6            OCT      40040
000192:    7740           40200        OCT40200           OCT      40200
000193:                                                                                                  #                OCT     44035           T4RUPT  RELTAB +8D
000194:                                                                                                  #                OCT     50037           T4RUPT  RELTAB +9D
000195:                                                                                                  #                OCT     54000           T4RUPT  RELTAB +10D
000196:    7741           57777        -BIT14             OCT      57777
000197:                                                                                                  #  RELTAB11      OCT     60000           T4RUPT
000198:    7742           65552        C3/2               DEC      -.3216147                             #                        (OCTAL 65552)
000199:    7743           70000        13,14,15           OCT      70000
000200:    7744           73777        -1/8               OCT      73777
000201:    7745           74000        HIGH4              OCT      74000
000202:    7746           74056        -ENDERAS           DEC      -2001      B-14                       #                        (OCTAL 74056)
000203:                                                                                                  #  HI5           OCT     76000           PINBALL
000204:    7747           77700        HIGH9              OCT      77700
000205:                                                                                                  #  -ENDVAC       DEC     -45             INTERPRETER             (OCTAL 77722)
000206:                                                                                                  #  -OCT10        OCT     -10                                      (OCT 77767)
000207:                                                                                                  #  NEG4          DEC     -4                                      (OCTAL 77773)
000208:    7750           77774        NEG3               DEC      -3         B-14
000209:    7751           77775        NEG2               OCT      77775
000210:    7752           77776        NEGONE             DEC      -1         B-14
000211:


000213:
000214:                                                                                                  #  DEFINED BY EQUALS
000215:
000216:                                                                                                  #  IT WOULD BE TO THE USERS ADVANTAGE TO OCCASIONALLY CHECK ANY OF THESE SYMBOLS IN ORDER TO PREVENT ANY
000217:                                                                                                  #  ACCIDENTAL DEFINITION CHANGES.
000218:
000219:    7753     7752               MINUS1             =        NEG1
000220:    7753     7752               NEG1               =        NEGONE
000221:    7753     4753               ONE                =        BIT1
000222:    7753     4752               TWO                =        BIT2
000223:    7753     6250               THREE              =        OCTAL3
000224:    7753     6250               LOW2               =        THREE
000225:    7753     4751               FOUR               =        BIT3
000226:    7753     6245               SIX                =        REVCNT
000227:    7753     4757               LOW3               =        SEVEN
000228:    7753     4750               EIGHT              =        BIT4
000229:    7753     4320               NINE               =        R2D1
000230:    7753     4363               TEN                =        BINCON
000231:    7753     4760               NOUTCON            =        ELEVEN
000232:    7753     4360               OCT23              =        VD1
000233:    7753     4362               OCT25              =        MD1
000234:    7753     4742               PRIO1              =        BIT10
000235:    7753     5007               EBANK3             =        OCT1400
000236:    7753     4741               PRIO2              =        BIT11
000237:    7753     4775               OCT120             =        SUPER101
000238:    7753     4776               OCT140             =        SUPER110
000239:    7753     4741               2K                 =        BIT11
000240:    7753     4741               EBANK4             =        BIT11
000241:    7753     4740               PRIO4              =        BIT12
000242:    7753     5015               EBANK6             =        PRIO3
000243:    7753     4737               QUARTER            =        BIT13
000244:    7753     4737               PRIO10             =        BIT13
000245:    7753     7666               OCT10001           =        CCSL
000246:    7753     4736               POS1/2             =        HALF
000247:    7753     4736               PRIO20             =        BIT14
000248:    7753     4736               HALF               =        BIT14
000249:    7753     4355               PRIO30             =        CHRPRIO
000250:    7753     4355               BIT13-14           =        PRIO30                                #  INTERPRETER USES IN PROCESSING STORECODE
000251:    7753     6474               OCT30002           =        TLOAD      +1
000252:    7753     7725               B12T14             =        PRIO34
000253:    7753     4735               NEGMAX             =        BIT15
000254:    7753     4735               VLOADCOD           =        BIT15
000255:    7753     6112               VLOAD*             =        OCT40001
000256:    7753     4101               OCT60000           =        RELTAB11
000257:    7753     4350               BANKMASK           =        HI5
000258:

End of include-file FIXED-FIXED_CONSTANT_POOL.agc.  Parent file is MAIN.agc


