
Source Code


000002:                                                                                                  ## Copyright:   Public domain.
000003:                                                                                                  ## Filename:    FLAGWORD_ASSIGNMENTS.agc
000004:                                                                                                  ## Purpose:     A section of LM131 revision 1.
000005:                                                                                                  ##              It is part of the reconstructed source code for the final
000006:                                                                                                  ##              release of the flight software for the Lunar Module's (LM)
000007:                                                                                                  ##              Apollo Guidance Computer (AGC) for Apollo 13. The code has
000008:                                                                                                  ##              been reconstructed from a listing of Luminary 131 and a dump
000009:                                                                                                  ##              of a core rope memory module B5, part number 2010802-171,
000010:                                                                                                  ##              which is the only module different between LM131 revision 1
000011:                                                                                                  ##              and Luminary 131. The executable generated from this source
000012:                                                                                                  ##              has been verified against the module dump, so while the names,
000013:                                                                                                  ##              comments, and ordering may not be exactly correct, the
000014:                                                                                                  ##              resulting binary is.
000015:                                                                                                  ## Reference:   pp. 61-88
000016:                                                                                                  ## Assembler:   yaYUL
000017:                                                                                                  ## Contact:     Ron Burkey <info@sandroid.org>.
000018:                                                                                                  ## Website:     www.ibiblio.org/apollo/index.html
000019:                                                                                                  ## Mod history: 2022-10-28 MAS  Created from Luminary 131.
000020:


000022:                                                                                                  #  FLAGWORDS 0-11        ARE DOWNLINKED AND CAN BE SET AND CLEARED BY UP-FLAG AND DOWN-FLAG INSTRUCTIONS IN THE
000023:                                                                                                  #                        INTERPRETER.  THESE WERE PREVIOUSLY LISTED UNDER "INTERPRETIVE SWITCH BIT ASSIGNMENTS" IN
000024:                                                                                                  #                        THE ERASABLE LOG SECTION.  FLAGWORDS 12 & 13 WEREPREVIOUSLY RADMODES AND DAPBOOLS AND
000025:                                                                                                  #                        ARE STILL DOWNLINKED UNDER THOSE NAMES.
000026:
000027:                                                                                                  #  ALPHABETICAL LIST OF FLAGWORDS
000028:
000029:                                                                                                  #  9             25              41                      61      COLUMN NO.
000030:                                                                                                  #  FLAGWORD      DEC. NUMBER     BIT AND FLAG            BIT NAME
000031:
000032:                                                                                                  #  ABTTGFLG      143             BIT 7 FLAG 9            ABTTGBIT
000033:                                                                                                  #  ACCOKFLG      207             BIT 3  FLAG 13          ACCSOKAY
000034:                                                                                                  #  ACC4-2FL      199             BIT 11 FLAG 13          ACC4OR2X
000035:                                                                                                  #  ACMODFLG      032             BIT 13 FLAG 2           ACMODBIT
000036:                                                                                                  #  ALTSCALE      186             BIT 9  FLAG 12          ALTSCBIT
000037:                                                                                                  #  ANTENFLG      183             BIT 12 FLAG 12          ANTENBIT
000038:                                                                                                  #  AORBSFLG      085             BIT 5 FLAG 5            AORBSYST
000039:                                                                                                  #  AORBTFLG      200             BIT 10 FLAG 13          AORBTRAN
000040:
000041:                                                                                                  #  APSESW        130             BIT 5  FLAG 8           APSESBIT
000042:                                                                                                  #  APSFLAG       152             BIT 13 FLAG 10          APSFLBIT
000043:                                                                                                  #  ASTNFLAG      108             BIT 12 FLAG 7           ASTNBIT
000044:                                                                                                  #  ATTFLAG       104             BIT 1  FLAG 6           ATTFLBIT
000045:                                                                                                  #  AUTOMODE      193             BIT 2  FLAG 12          AUTOMBIT
000046:                                                                                                  #  AUTR1FLG      209             BIT 1  FLAG 13          AUTRATE1
000047:                                                                                                  #  AUTR2FLG      208             BIT 2  FLAG 13          AUTRATE2
000048:                                                                                                  #  AUXFLAG       103             BIT 2  FLAG 6           AUXFLBIT
000049:                                                                                                  #  AVEGFLAG      115             BIT 5  FLAG 7           AVEGFBIT
000050:                                                                                                  #  AVEMIDSW      149             BIT 1  FLAG 9           AVEMDBIT
000051:                                                                                                  #  AVFLAG        040             BIT 5  FLAG 2           AVFLBIT
000052:                                                                                                  #  CALCMAN2      043             BIT 2  FLAG 2           CALC2BIT
000053:                                                                                                  #  CALCMAN3      042             BIT 3  FLAG 2           CALC3BIT
000054:
000055:                                                                                                  #  CDESFLAG      180             BIT 15 FLAG 12          CDESBIT
000056:                                                                                                  #  CMOONFLG      123             BIT 12 FLAG 8           CMOONBIT
000057:                                                                                                  #  COGAFLAG      131             BIT 4  FLAG 8           COGAFBIT
000058:                                                                                                  #  CSMDKFLG      197             BIT 13 FLAG 13          CSMDOCKD
000059:                                                                                                  #  CULTFLAG      053             BIT 7  FLAG 3           CULTBIT
000060:                                                                                                  #  DAPBOOLS                      FLGWRD13
000061:                                                                                                  #  DBSELFLG      206             BIT 4  FLAG 13          DBSELECT
000062:                                                                                                  #  DBSL2FLG      205             BIT 5 FLAG 13           DBSLECT2
000063:                                                                                                  #  DESIGFLG      185             BIT 10 FLAG 12          DESIGBIT
000064:                                                                                                  #  DIDFLAG       016             BIT 14 FLAG             DIDFLBIT
000065:                                                                                                  #  DIMOFLAG      059             BIT 1  FLAG 3           DIMOBIT
000066:                                                                                                  #  DMENFLG       081             BIT 9  FLAG 5           DMENFBIT


000068:                                                                                                  #  DRIFTDFL      202             BIT 8 FLAG 13           DRIFTBIT
000069:                                                                                                  #  DRIFTFLG      030             BIT 15 FLAG 2           DRFTBIT
000070:                                                                                                  #  DSKYFLAG      075             BIT 15 FLAG 5           DSKYFBIT
000071:                                                                                                  #  D6OR9FLG      058             BIT 2 FLAG 3            D6OR9BIT
000072:                                                                                                  #  ENGONFLG      083             BIT 7 FLAG 5            ENGONBIT
000073:                                                                                                  #  ERADFLAG      017             BIT 13 FLAG 1           ERADFBIT
000074:                                                                                                  #  ETPIFLAG      038             BIT 7 FLAG 2            ETPIBIT
000075:                                                                                                  #  FINALFLG      039             BIT 6 FLAG 2            FINALBIT
000076:                                                                                                  #  FLAGWRD0      (000-014)       (STATE +0)
000077:                                                                                                  #  FLAGWRD1      (015-029)       (STATE +1)
000078:                                                                                                  #  FLAGWRD2      (030-044)       (STATE +2)
000079:                                                                                                  #  FLAGWRD3      (045-059)       (STATE +3)
000080:                                                                                                  #  FLAGWRD4      (060-074)       (STATE +4)
000081:                                                                                                  #  FLAGWRD5      (075-089)       (STATE +5)
000082:                                                                                                  #  FLAGWRD6      (090-104)       (STATE +6)
000083:                                                                                                  #  FLAGWRD7      (105-119)       (STATE +7)
000084:                                                                                                  #  FLAGWRD8      (120-134)       (STATE +8D)
000085:                                                                                                  #  FLAGWRD9      (135-149)       (STATE +9D)
000086:                                                                                                  #  FLAP          142             BIT 8 FLAG 9            FLAPBIT
000087:                                                                                                  #  FLGWRD10      (150-164)       (STATE +10D)
000088:                                                                                                  #  FLGWRD11      (165-179)       (STATE +11D)
000089:                                                                                                  #  FLGWRD12      (180-194)       (STATE +12D)
000090:                                                                                                  #  FLGWRD13      (195-209)       (STATE +13D)
000091:                                                                                                  #  FLPC          138             BIT 12 FLAG 9           FLPCBIT
000092:                                                                                                  #  FLPI          139             BIT 11 FLAG 9           FLPIBIT
000093:                                                                                                  #  FLRCS         149             BIT 10 FLAG 9           FLRCSBIT
000094:                                                                                                  #  FLUNDISP      125             BIT 10 FLAG 8           FLUNDBIT
000095:                                                                                                  #  FLVR          136             BIT 14 FLAG 9           FLVRBIT
000096:                                                                                                  #  FREEFLAG      012             BIT 3 FLAG 0            FREEFBIT
000097:                                                                                                  #  FSPASFLG      005             BIT 10 FLAG 0           FSPASBIT
000098:                                                                                                  #  GLOKFAIL      046             BIT 14 FLAG 3           GLOKFBIT
000099:                                                                                                  #  GMBDRVSW      095             BIT 10 FLAG 6           GMBDRBIT
000100:                                                                                                  #  GUESSW        028             BIT 2 FLAG 1            GUESSBIT
000101:                                                                                                  #  HFLSHFLG      179             BIT 1 FLAG 11           HFLSHBIT
000102:                                                                                                  #  IDLEFLAG      113             BIT 7 FLAG 7            IDLEFBIT
000103:                                                                                                  #  IGNFLAG       107             BIT 13 FLAG 7           IGNFLBIT
000104:                                                                                                  #  IMPULSW       036             BIT 9 FLAG 2            IMPULBIT
000105:                                                                                                  #  IMUSE         007             BIT 8 FLAG 0            IMUSEBIT
000106:                                                                                                  #  INFINFLG      128             BIT 7 FLAG 8            INFINBIT
000107:                                                                                                  #  INITALGN      133             BIT 2 FLAG 8            INITABIT
000108:                                                                                                  #  INTFLAG       151             BIT 14 FLAG 10          INTFLBIT
000109:                                                                                                  #  INTYPFLG      056             BIT 4 FLAG 3            INTYPBIT
000110:                                                                                                  #  ITSWICH       105             BIT 15 FLAG 7           ITSWBIT
000111:                                                                                                  #  JSWITCH       001             BIT 14 FLAG 0           JSWCHBIT
000112:
000113:                                                                                                  #  LETABORT      141             BIT 9  FLAG 9           LETABBIT
000114:                                                                                                  #  LMOONFLG      124             BIT 11 FLAG 8           LMOONBIT
000115:                                                                                                  #  LOKONSW       010             BIT 5  FLAG 0           LOKONBIT
000116:                                                                                                  #  LOSCMFLG      033             BIT 12 FLAG 2           LOSCMBIT
000117:                                                                                                  #  LPOS2FLG      174             BIT 6 FLAG 11           LPOS2BIT
000118:                                                                                                  #  LRALTFLG      190             BIT 5  FLAG 12          LRALTBIT


000120:                                                                                                  #  LRBYPASS      165             BIT 15 FLAG 11          LRBYBIT
000121:                                                                                                  #  LRINH         172             BIT 8 FLAG 11           LRINHBIT
000122:                                                                                                  #  LRPOSFLG      189             BIT 6 FLAG 12           LRPOSBIT
000123:                                                                                                  #  LRVELFLG      187             BIT 8 FLAG 12           LRVELBIT
000124:                                                                                                  #  LUNAFLAG      048             BIT 12 FLAG 3           LUNABIT
000125:                                                                                                  #  MANUFLAG      106             BIT 14 FLAG 7           MANUFBIT
000126:                                                                                                  #  MGLVFLAG      088             BIT 2 FLAG 5            MGLVFBIT
000127:                                                                                                  #  MIDAVFLG      148             BIT 2 FLAG 9            MIDAVBIT
000128:                                                                                                  #  MIDFLAG       002             BIT 13 FLAG 0           MIDFLBIT
000129:                                                                                                  #  MID1FLAG      147             BIT 3 FLAG 9            MID1BIT
000130:                                                                                                  #  MKOVFLAG      072             BIT 3 FLAG 4            MKOVBIT
000131:                                                                                                  #  MOONFLAG      003             BIT 12 FLAG 0           MOONBIT
000132:                                                                                                  #  MRKIDFLG      060             BIT 15 FLAG 4           MRKIDBIT
000133:                                                                                                  #  MRKNVFLG      066             BIT 9 FLAG 4            MRKNVBIT
000134:                                                                                                  #  MRUPTFLG      070             BIT 5 FLAG 4            MRUPTBIT
000135:                                                                                                  #  MUNFLAG       097             BIT 8 FLAG 6            MUNFLBIT
000136:                                                                                                  #  MWAITFLG      064             BIT 11 FLAG 4           MWAITBIT
000137:                                                                                                  #  NEEDLFLG      011             BIT 4 FLAG 0            NEEDLBIT
000138:                                                                                                  #  NEED2FLG      000             BIT 15 FLAG 0           NEED2BIT
000139:                                                                                                  #  NEWIFLG       122             BIT 13 FLAG 8           NEWIBIT
000140:                                                                                                  #  NJETSFLG      015             BIT 15 FLAG             NJETSBIT
000141:                                                                                                  #  NODOFLAG      044             BIT 1 FLAG 2            NODOBIT
000142:                                                                                                  #  NOLRREAD      170             BIT 10 FLAG 11          NOLRRBIT
000143:                                                                                                  #  NORMSW        110             BIT 10 FLAG 7           NORMSBIT
000144:                                                                                                  #  NORRMON       086             BIT 4 FLAG 5            NORRMBIT
000145:                                                                                                  #  NOR29FLG      049             BIT 11 FLAG 3           NR29FBIT
000146:                                                                                                  #  NOTHROTL      078             BIT 12 FLAG 5           NOTHRBIT
000147:                                                                                                  #  NOUPFLAG      024             BIT 6 FLAG 1            NOUPFBIT
000148:                                                                                                  #  NO511FLG      177             BIT 3 FLAG 11           NO511BIT
000149:                                                                                                  #  NRMNVFLG      067             BIT 8 FLAG 4            NRMNVBIT
000150:                                                                                                  #  NRMIDFLG      062             BIT 13 FLAG 4           NRMIDBIT
000151:                                                                                                  #  NRUPTFLG      071             BIT 4 FLAG 4            NRUPTBIT
000152:                                                                                                  #  NTARGFLG      102             BIT 3 FLAG 6            NTARGBIT
000153:                                                                                                  #  NWAITFLG      065             BIT 10 FLAG 4           NWAITBIT
000154:                                                                                                  #  OLDESFLG      014             BIT 1 FLAG 0            OLDESBIT
000155:                                                                                                  #  ORBWFLAG      054             BIT 6 FLAG 3            ORBWFBIT
000156:                                                                                                  #  ORDERSW       129             BIT 6 FLAG 8            ORDERBIT
000157:                                                                                                  #  OURRCFLG      198             BIT 12 FLAG 13          OURRCBIT
000158:                                                                                                  #  PDSPFLAG      063             BIT 12 FLAG 4           PDSPFBIT
000159:                                                                                                  #  PFRATFLG      041             BIT 4 FLAG 2            PFRATBIT
000160:                                                                                                  #  PINBRFLG      069             BIT 6 FLAG 4            PINBRBIT
000161:                                                                                                  #  POOHFLAG      045             BIT 15 FLAG 3           POOHBIT
000162:                                                                                                  #  PRECIFLG      052             BIT 8 FLAG 3            PRECIBIT
000163:                                                                                                  #  PRIODFLG      061             BIT 14 FLAG 1           PRIODBIT
000164:                                                                                                  #  PRONVFLG      068             BIT 7 FLAG 4            PRONVBIT
000165:                                                                                                  #  PSTHIGAT      169             BIT 11 FLAG 11          PSTHIBIT
000166:                                                                                                  #  PULSEFLG      195             BIT 15 FLAG 13          PULSES
000167:                                                                                                  #  P21FLAG       004             BIT 11 FLAG 0           P21FLBIT
000168:                                                                                                  #  P25FLAG       006             BIT 9 FLAG 0            P25FLBIT
000169:                                                                                                  #  P7071FLG      137             BIT 13 FLAG 9           P7071BIT


000171:                                                                                                  #  QUITFLAG      145             BIT 5 FLAG 9            QUITBIT
000172:                                                                                                  #  RADMODES                      FLGWRD12
000173:                                                                                                  #  RASFLAG                       FLGWRD10
000174:                                                                                                  #  RCDUFAIL      188             BIT 7 FLAG 12           RCDUFBIT
000175:                                                                                                  #  RCDU0FLG      182             BIT 13 FLAG 12          RCDU0BIT
000176:                                                                                                  #  READRFLG      051             BIT 9 FLAG 3            READRBIT        EQUIVALENT FLAG NAME:  R04FLAG
000177:                                                                                                  #  READVEL       175             BIT 5 FLAG 11           READVBIT
000178:                                                                                                  #  REDFLAG       099             BIT 6 FLAG 6            REDFLBIT
000179:                                                                                                  #  REFSMFLG      047             BIT 13 FLAG 3           REFSMBIT
000180:                                                                                                  #  REINTFLG      158             BIT 7 FLAG 10           REINTBIT
000181:                                                                                                  #  REMODFLG      181             BIT 14 FLAG 12          REMODBIT
000182:                                                                                                  #  RENDWFLG      089             BIT 1 FLAG 5            RENDWBIT
000183:                                                                                                  #  REPOSMON      184             BIT 11 FLAG 12          REPOSBIT
000184:                                                                                                  #  RHCSCFLG      203             BIT 7 FLAG 13           RHCSCALE
000185:                                                                                                  #  RNDVZFLG      008             BIT 7 FLAG 0            RNDVZBIT
000186:                                                                                                  #  RNGEDATA      176             BIT 4 FLAG 11           RNGEDBIT
000187:                                                                                                  #  RNGSCFLG      080             BIT 10 FLAG 5           RNGSCBIT
000188:                                                                                                  #  RODFLAG       018             BIT 12 FLAG 1           RODFLBIT
000189:                                                                                                  #  ROTFLAG       144             BIT 6 FLAG 9            ROTFLBIT
000190:                                                                                                  #  RPQFLAG       120             BIT 15 FLAG 8           RPQFLBIT
000191:                                                                                                  #  RRDATAFL      191             BIT 4 FLAG 12           RRDATABT
000192:                                                                                                  #  RRNBSW        009             BIT 6 FLAG 0            RRNBBIT
000193:                                                                                                  #  RRRSFLAG      192             BIT 3 FLAG 12           RRRSBIT
000194:                                                                                                  #  RVSW          111             BIT 9 FLAG 7            RVSWBIT
000195:                                                                                                  #  R04FLAG       051             BIT 9 FLAG 3            R04FLBIT        EQUIVALENT FLAG NAME:  READRFLG
000196:                                                                                                  #  R10FLAG       013             BIT 2 FLAG 0            R10FLBIT
000197:                                                                                                  #  R61FLAG       020             BIT 10 FLAG 1           R61FLBIT
000198:                                                                                                  #  R77FLAG       079             BIT 11 FLAG 5           R77FLBIT
000199:                                                                                                  #  SLOPESW       027             BIT 3 FLAG 1            SLOPEBIT
000200:                                                                                                  #  SNUFFER       077             BIT 13 FLAG 5           SNUFFBIT
000201:                                                                                                  #  SOLNSW        087             BIT 3 FLAG 5            SOLNSBIT
000202:                                                                                                  #  SRCHOPTN      031             BIT 14 FLAG 2           SRCHOBIT
000203:                                                                                                  #  STATEFLG      055             BIT 5 FLAG 3            STATEBIT
000204:                                                                                                  #  STEERSW       034             BIT 11 FLAG 2           STEERBIT
000205:                                                                                                  #  SURFFLAG      127             BIT 8 FLAG 8            SURFFBIT
000206:                                                                                                  #  SWANDISP      109             BIT 11 FLAG 7           SWANDBIT
000207:                                                                                                  #  S32.1F1       090             BIT 15 FLAG 6           S32BIT1
000208:                                                                                                  #  S32.1F2       092             BIT 14 FLAG 6           S32BIT2
000209:                                                                                                  #  S32.1F3A      092             BIT 13 FLAG 6           S32BIT3A
000210:                                                                                                  #  S32.1S3B      093             BIT 12 FLAG 6           S32BIT3B
000211:                                                                                                  #  TFFSW         119             BIT 1 FLAG 7            TFFSWBIT
000212:                                                                                                  #  TRACKFLG      025             BIT 5 FLAG 1            TRACKBIT
000213:                                                                                                  #  TURNONFL      194             BIT 1 FLAG 12           TURNONBT
000214:                                                                                                  #  ULLAGFLG      204             BIT 6 FLAG 13           ULLAGER
000215:                                                                                                  #  UPDATFLG      023             BIT 7 FLAG 1            UPDATBIT
000216:                                                                                                  #  UPLOCKFL      116             BIT 4 FLAG 7            UPLOCBIT
000217:                                                                                                  #  USEQRFLG      196             BIT 14 FLAG 13          USEQRJTS
000218:                                                                                                  #  VEHUPFLG      022             BIT 8 FLAG 1            VEHUPBIT
000219:                                                                                                  #  VELDATA       173             BIT 7 FLAG 11           VELDABIT
000220:                                                                                                  #  VERIFLAG      117             BIT 3 FLAG 7            VERIFBIT


000222:                                                                                                  #  VFLAG         050             BIT 10 FLAG 3           VFLAGBIT
000223:                                                                                                  #  VFLSHFLG      178             BIT 2 FLAG 11           VFLSHBIT
000224:                                                                                                  #  VINTFLAG      057             BIT 3 FLAG 3            VINTFBIT
000225:                                                                                                  #  VXINH         168             BIT 12 FLAG 11          VXINHBIT
000226:                                                                                                  #  V37FLAG       114             BIT 6 FLAG 7            V37FLBIT
000227:                                                                                                  #  V67FLAG       112             BIT 8 FLAG 7            V67FLBIT
000228:                                                                                                  #  V82EMFLG      118             BIT 2 FLAG 7            V82EMBIT
000229:                                                                                                  #  XDELVFLG      037             BIT 8 FLAG 2            XDELVBIT
000230:                                                                                                  #  XDSPFLAG      074             BIT 1 FLAG 4            XDSPBIT
000231:                                                                                                  #  XORFLG        171             BIT 9 FLAG 11           XORFLBIT
000232:                                                                                                  #  XOVINFLG      201             BIT 9 FLAG 13           XOVINHIB
000233:                                                                                                  #  ZOOMFLAG      082             BIT 8 FLAG 5            ZOOMBIT
000234:                                                                                                  #  3AXISFLG      084             BIT 6 FLAG 5            3AXISBIT
000235:                                                                                                  #  360SW         134             BIT 1 FLAG 8            360SWBIT
000236:
000237:                                                                                                  #  ASSIGNMENT AND DESCRIPTION OF FLAGWORDS
000238:
000239: 26,2022     0074               FLAGWRD0           =        STATE      +0                         #  (000-014)
000240:
000241:                                                                                                  #        (SET)                   (RESET)
000242:
000243:                                                                                                  #  BIT 15 FLAG 0 (S)
000244: 26,2022                        NEED2FLG           =        000D                                  #        DISPLAY DAP RATES       CHECK BIT 4 OF THIS
000245: 26,2022     4735               NEED2BIT           =        BIT15                                 #        ON FDAI NEEDLES.        WORD FOR DISPLAY
000246:                                                                                                  #                                MODES (1 OR 2).
000247:
000248:                                                                                                  #  BIT 14 FLAG 0 (S)
000249: 26,2022                        JSWITCH            =        001D                                  #        INTEGRATION OF W        INTEGRATION OF STATE
000250: 26,2022     4736               JSWCHBIT           =        BIT14                                 #        MATRIX                  VECTOR
000251:
000252:                                                                                                  #  BIT 13 FLAG 0 (S)
000253: 26,2022                        MIDFLAG            =        002D                                  #        INTEGRATION WITH        INTEGRATION WITHOUT
000254:                                                                                                  #        SECONDARY BODY AND      SOLAR PERTURBATIONS
000255: 26,2022     4737               MIDFLBIT           =        BIT13                                 #        SOLAR PERTURBATIONS
000256:
000257:                                                                                                  #  BIT 12 FLAG 0 (L)
000258: 26,2022                        MOONFLAG           =        003D                                  #        MOON IS SPHERE OF       EARTH IS SPHERE OF
000259: 26,2022     4740               MOONBIT            =        BIT12                                 #        INFLUENCE               INFLUENCE
000260:
000261:                                                                                                  #  BIT 11 FLAG 0
000262: 26,2022                        P21FLAG            =        004D                                  #        USE BASE VECTORS        1ST PASS -- CALC-
000263: 26,2022     4741               P21FLBIT           =        BIT11                                 #        ALREADY CALCULATED      ULATE BASE VECTORS
000264:


000266:                                                                                                  #  BIT 10 FLAG 0
000267: 26,2022                        FSPASFLG           =        005D                                  #        FIRST PASS THROUGH      NOT FIRST PASS THRU
000268: 26,2022     4742               FSPASBIT           =        BIT10                                 #        REPOSITION ROUTINE      REPOSITION ROUTINE
000269:
000270:                                                                                                  #  BIT 9 FLAG 0  (S)
000271: 26,2022                        P25FLAG            =        006D                                  #        P25 OPERATING           P25 NOT OPERATING
000272: 26,2022     4743               P25FLBIT           =        BIT9
000273:
000274:                                                                                                  #  BIT 8 FLAG 0  (S)
000275: 26,2022                        IMUSE              =        007D                                  #        IMU IN USE              IMU NOT IN USE
000276: 26,2022     4744               IMUSEBIT           =        BIT8
000277:
000278:                                                                                                  #  BIT 7 FLAG 0  (S)
000279: 26,2022                        RNDVZFLG           =        008D                                  #        P20 RUNNING (RADAR      P20 NOT RUNNING
000280: 26,2022     4745               RNDVZBIT           =        BIT7                                  #        IN USE)
000281:
000282:                                                                                                  #  BIT 6 FLAG 0  (S)
000283: 26,2022                        RRNBSW             =        009D                                  #        RADAR TARGET IN RADAR TARGET IN
000284: 26,2022     4746               RRNBBIT            =        BIT6                                  #        NB COORDINATES  SM COORDINATES
000285:
000286:                                                                                                  #  BIT 5 FLAG 0  (S)
000287: 26,2022                        LOKONSW            =        010D                                  #        RADAR LOCK-ON           RADAR LOCK-ON NOT
000288: 26,2022     4747               LOKONBIT           =        BIT5                                  #        DESIRED                 DESIRED
000289:
000290:                                                                                                  #  BIT 4 FLAG 0  (S)
000291: 26,2022                        NEEDLFLG           =        011D                                  #        TOTAL ATTITUDE  A/P FOLLOWING
000292: 26,2022     4750               NEEDLBIT           =        BIT4                                  #        ERROR DISPLAYED ERROR DISPLAYED
000293:
000294:                                                                                                  #  BIT 3 FLAG 0
000295: 26,2022                        FREEFLAG           =        012D                                  #  (USED BY P51-53 TEMP IN MANY DIFFERENT
000296:                                                                                                  #  ROUTINES & BY LUNAR + SOLAR EPHEMERIDES)
000297: 26,2022     4751               FREEFBIT           =        BIT3
000298:
000299:                                                                                                  #  BIT 2 FLAG 0
000300: 26,2022                        R10FLAG            =        013D                                  #        R10 OUTPUTS DATA TO     BESIDES OUTPUT WHEN
000301: 26,2022     4752               R10FLBIT           =        BIT2                                  #        ALTITUDE & ALTITUDE     SET, R10 ALSO OUTPUT
000302:                                                                                                  #        RATE METERS ONLY        TO FORWARD & LATERAL
000303:                                                                                                  #                                VELOCITY CROSSPOINTR
000304:
000305:                                                                                                  #  BIT 1 FLAG 0  (L)
000306: 26,2022                        OLDESFLG           =        014D                                  #        R29 GYRO CMD LOOP       R29 GYRO CMD LOOP


000308: 26,2022     4753               OLDESBIT           =        BIT1                                  #        REQUESTED               NOT REQUESTED
000309:
000310: 26,2022     0075               FLAGWRD1           =        STATE      +1                         #  (015-029)
000311:
000312:                                                                                                  #        (SET)                   (RESET)
000313:
000314:                                                                                                  #  BIT 15 FLAG 1 (S)
000315: 26,2022                        NJETSFLG           =        015D                                  #        TWO JET RCS BURN        FOUR JET RCS BURN
000316: 26,2022     4735               NJETSBIT           =        BIT15
000317:
000318:                                                                                                  #  BIT 14 FLAG 1 (L)
000319: 26,2022                        DIDFLAG            =        016D                                  #        INERTIAL DATA IS        PERFORM DATA DISPLAY
000320: 26,2022     4736               DIDFLBIT           =        BIT14                                 #        AVAILABLE               INITIALIZATION FUNCS
000321:
000322:                                                                                                  #  BIT 13 FLAG 1 (S)
000323: 26,2022                        ERADFLAG           =        017D                                  #        COMPUTE REARTH          USE CONSTANT REARTH
000324: 26,2022     4737               ERADFBIT           =        BIT13                                 #        FISCHER ELLIPSOID       PAD RADIUS
000325:
000326:                                                                                                  #  BIT 12 FLAG 1
000327: 26,2022                        RODFLAG            =        018D                                  #        IF IN P66, NORMAL       IF IN P66, RE-INIT-
000328: 26,2022     4740               RODFLBIT           =        BIT12                                 #        OPERATION CONTINUES.    IALIZATION IS PER-
000329:                                                                                                  #        RESTART CLEARS FLAG     FORMED AND FLAG IS
000330:
000331:                                                                                                  #  BIT 11 FLAG 1
000332:                                                                                                  #                =       019D
000333:                                                                                                  #                =       BIT11
000334:
000335:                                                                                                  #  BIT 10 FLAG 1 (L)
000336: 26,2022                        R61FLAG            =        020D                                  #        RUN R61 LEM             RUN R65 LEM
000337: 26,2022     4742               R61FLBIT           =        BIT10
000338:
000339:                                                                                                  #  BIT 9 FLAG 1
000340:                                                                                                  #                =       021D
000341:                                                                                                  #                =       BIT9
000342:
000343:                                                                                                  #  BIT 8 FLAG 1  (S)
000344: 26,2022                        VEHUPFLG           =        022D                                  #        CSM STATE VECTOR        LEM STATE VECTOR
000345: 26,2022     4744               VEHUPBIT           =        BIT8                                  #        BEING UPDATED           BEING UPDATED
000346:
000347:                                                                                                  #  BIT 7 FLAG 1  (S)
000348: 26,2022                        UPDATFLG           =        023D                                  #        UPDATING BY MARKS       UPDATING BY MARKS
000349: 26,2022     4745               UPDATBIT           =        BIT7                                  #        ALLOWED                 NOT ALLOWED
000350:


000352:                                                                                                  #  BIT 6 FLAG 1  (S)
000353: 26,2022                        NOUPFLAG           =        024D                                  #        NEITHER CSM             EITHER STATE
000354:                                                                                                  #        NOR LM STATE VECTOR     VECTOR MAY BE
000355: 26,2022     4746               NOUPFBIT           =        BIT6                                  #        MAY BE UPDATED          UPDATED
000356:
000357:                                                                                                  #  BIT 5 FLAG 1  (S)
000358: 26,2022                        TRACKFLG           =        025D                                  #        TRACKING ALLOWED        TRACKING NOT ALLOWED
000359: 26,2022     4747               TRACKBIT           =        BIT5
000360:
000361:                                                                                                  #  BIT 4 FLAG 1
000362:                                                                                                  #                =       026D
000363:                                                                                                  #                =       BIT4
000364:
000365:                                                                                                  #  BIT 3 FLAG 1  (S)
000366: 26,2022                        SLOPESW            =        027D                                  #        ITERATE WITH BIAS       ITERATE WITH REGULAR
000367:                                                                                                  #        METHOD IN ITERATOR      FALSI METHOD IN
000368: 26,2022     4751               SLOPEBIT           =        BIT3                                  #                                ITERATOR
000369:
000370:                                                                                                  #  BIT 2 FLAG 1  (S)
000371: 26,2022                        GUESSW             =        028D                                  #        NO STARTING VALUE       STARTING VALUE FOR
000372: 26,2022     4752               GUESSBIT           =        BIT2                                  #        FOR ITERATION           ITERATION EXISTS
000373:
000374:                                                                                                  #  BIT 1 FLAG 1
000375:                                                                                                  #                =       029D
000376:
000377: 26,2022     0076               FLAGWRD2           =        STATE      +2                         #  (030-044)
000378:
000379:                                                                                                  #        (SET)                   (RESET)
000380:
000381:                                                                                                  #  BIT 15 FLAG 2 (S)
000382: 26,2022                        DRIFTFLG           =        030D                                  #        T3RUPT CALLS GYRO       T3RUPT DOES NO GYRO
000383: 26,2022     4735               DRFTBIT            =        BIT15                                 #        COMPENSATION            COMPENSATION
000384:
000385:                                                                                                  #  BIT 14 FLAG 2 (S)
000386: 26,2022                        SRCHOPTN           =        031D                                  #        RADAR IN AUTOMATIC      RADAR NOT IN AUTO-
000387: 26,2022     4736               SRCHOBIT           =        BIT14                                 #        SEARCH OPTION (R24)     MATIC SEARCH OPTION
000388:
000389:                                                                                                  #  BIT 13 FLAG 2 (S)
000390: 26,2022                        ACMODFLG           =        032D                                  #        MANUAL ACQUISITION      AUTO ACQUISITION
000391: 26,2022     4737               ACMODBIT           =        BIT13                                 #        BY RENDESVOUS RADAR     BY RENDESVOUS RADAR
000392:


000394:                                                                                                  #  BIT 12 FLAG 2 (S)
000395: 26,2022                        LOSCMFLG           =        033D                                  #        LINE OF SIGHT BEING     LINE OF SIGHT NOT
000396:                                                                                                  #        COMPUTED (R21)          BEING COMPUTED
000397: 26,2022     4740               LOSCMBIT           =        BIT12
000398:                                                                                                  #        IN R29 (L): RR GYRO     IN R29 (L): RR GYRO
000399:                                                                                                  #        CMD LOOP RUNNING        CMD LOOP OFF
000400:
000401:                                                                                                  #  BIT 11 FLAG 2 (S)
000402: 26,2022                        STEERSW            =        034D                                  #        SUFFICIENT THRUST       INSUFFICIENT THRUST
000403: 26,2022     4741               STEERBIT           =        BIT11                                 #        IS PRESENT              IS PRESENT
000404:
000405:                                                                                                  #  BIT 10 FLAG 2 (S)
000406: 26,2022                                           =        035D
000407: 26,2022                                           =        BIT10
000408:
000409:                                                                                                  #  BIT 9 FLAG 2 (S)
000410: 26,2022                        IMPULSW            =        036D                                  #        MINIMUM IMPULSE         STEERING BURN (NO
000411:                                                                                                  #        BURN (CUTOFF TIME       CUTOFF TIME YET
000412: 26,2022     4743               IMPULBIT           =        BIT9                                  #        SPECIFIED)              AVAILABLE)
000413:
000414:                                                                                                  #  BIT 8 FLAG 2 (S)
000415: 26,2022                        XDELVFLG           =        037D                                  #        EXTERNAL DELTAV VG      LAMBERT (AIMPOINT)
000416: 26,2022     4744               XDELVBIT           =        BIT8                                  #        COMPUTATION             VG COMPUTATION
000417:
000418:                                                                                                  #  BIT 7 FLAG 2 (S)
000419: 26,2022                        ETPIFLAG           =        038D                                  #        ELEVATION ANGLE         TPI TIME SUPPLIED
000420:                                                                                                  #        SUPPLIED FOR            FOR P34,74 TO COMPUT
000421: 26,2022     4745               ETPIBIT            =        BIT7                                  #        P34,74                  ELEVATION
000422:
000423:                                                                                                  #  BIT 6 FLAG 2 (S)
000424: 26,2022                        FINALFLG           =        039D                                  #        LAST PASS THROUGH       INTERIM PASS THROUGH
000425:                                                                                                  #        RENDEZVOUS PROGRAM      RENDEZVOUS PROGRAM
000426: 26,2022     4746               FINALBIT           =        BIT6                                  #        COMPUTATIONS            COMPUTATIONS
000427:
000428:                                                                                                  #  BIT 5 FLAG 2 (S)
000429: 26,2022                        AVFLAG             =        040D                                  #        LEM IS ACTIVE           CSM IS ACTIVE
000430: 26,2022     4747               AVFLBIT            =        BIT5                                  #        VEHICLE                 VEHICLE
000431:
000432:                                                                                                  #  BIT 4 FLAG 2 (S)
000433: 26,2022                        PFRATFLG           =        041D                                  #        PREFERRED ATTITUDE      PREFERRED ATTITUDE
000434: 26,2022     4750               PFRATBIT           =        BIT4                                  #        COMPUTED                NOT COMPUTED
000435:


000437:                                                                                                  #  BIT 3 FLAG 2 (S)
000438: 26,2022                        CALCMAN3           =        042D                                  #        NO FINAL ROLL           FINAL ROLL IS
000439: 26,2022     4751               CALC3BIT           =        BIT3                                  #                                NECESSARY
000440:
000441:                                                                                                  #  BIT 2 FLAG 2 (S)
000442: 26,2022                        CALCMAN2           =        043D                                  #        PERFORM MANEUVER        BYPASS STARTING
000443: 26,2022     4752               CALC2BIT           =        BIT2                                  #        STARTING PROCEDURE      PROCEDURE
000444:
000445:                                                                                                  #  BIT 1 FLAG 2 (S)
000446: 26,2022                        NODOFLAG           =        044D                                  #        V37 NOT PERMITTED       V37 PERMITTED
000447: 26,2022     4753               NODOBIT            =        BIT1
000448:
000449: 26,2022     0077               FLAGWRD3           =        STATE      +3                         #  (045-059)
000450:
000451:                                                                                                  #        (SET)                   (RESET)
000452:
000453:                                                                                                  #  BIT 15 FLAG 3
000454: 26,2022                        POOHFLAG           =        045D                                  #        INHIBIT BACKWARDS       ALLOW BACKWARDS
000455: 26,2022     4735               POOHBIT            =        BIT15                                 #        INTEGRATION             INTEGRATION
000456:
000457:                                                                                                  #  BIT 14 FLAG 3 (S)
000458: 26,2022                        GLOKFAIL           =        046D                                  #        GIMBAL LOCK HAS         NOT IN GIMBAL LOCK
000459: 26,2022     4736               GLOKFBIT           =        BIT14                                 #        OCCURRED
000460:
000461:                                                                                                  #  BIT 13 FLAG 3 *** PROTECTED FROM FRESH START ***
000462: 26,2022                        REFSMFLG           =        047D                                  #        REFSMMAT GOOD           REFSMMAT NO GOOD
000463: 26,2022     4737               REFSMBIT           =        BIT13
000464:
000465:                                                                                                  #  BIT 12 FLAG 3 (S)
000466: 26,2022                        LUNAFLAG           =        048D                                  #        LUNAR LAT-LONG          EARTH LAT-LONG
000467: 26,2022     4740               LUNABIT            =        BIT12
000468:
000469:                                                                                                  #  BIT 11 FLAG 3 (L)
000470: 26,2022                        NOR29FLG           =        049D                                  #        R29 NOT ALLOWED         R29 ALOWED (RR DES-
000471: 26,2022     4741               NR29FBIT           =        BIT11                                 #                                IGNATE, POWERED FLT)
000472:
000473:                                                                                                  #  BIT 10 FLAG 3 (S)
000474: 26,2022                        VFLAG              =        050D                                  #        LESS THAN TWO STARS     TWO STARS IN FIELD
000475: 26,2022     4742               VFLAGBIT           =        BIT10                                 #        IN FIELD OF VIEW        OF VIEW
000476:
000477:                                                                                                  #  BIT 9 FLAG 3  (S)


000479: 26,2022                        R04FLAG            =        051D                                  #        ALARM 521               ALARM 521 ALLOWED
000480:                                                                                                  #        SUPPRESSED
000481: 26,2022     4743               R04FLBIT           =        BIT9
000482:
000483:                                                                                                  #  BIT 9 FLAG 3  (L)
000484: 26,2022  0000063               READRFLG           =        R04FLAG                               #        READING RR DATA         NOT READING RR DATA
000485: 26,2022     4743               READRBIT           =        BIT9                                  #        PURSUANT TO R29         PURSUANT TO R29
000486:
000487:                                                                                                  #  BIT 8 FLAG 3  (S)
000488: 26,2022                        PRECIFLG           =        052D                                  #        NORMAL INTEGRATION      ENGAGES 4-TIME STEP
000489:                                                                                                  #        IN POO                  (POO) LOGIC IN INTE-
000490: 26,2022     4744               PRECIBIT           =        BIT8                                  #                                GRATION
000491:
000492:                                                                                                  #  BIT 7 FLAG 3  (S)
000493: 26,2022                        CULTFLAG           =        053D                                  #        STAR OCCULTED           STAR NOT OCCULTED
000494: 26,2022     4745               CULTBIT            =        BIT7
000495:
000496:                                                                                                  #  BIT 6 FLAG 3  (S)
000497: 26,2022                        ORBWFLAG           =        054D                                  #        W MATRIX VALID FOR      W MATRIX INVALID FOR
000498: 26,2022     4746               ORBWFBIT           =        BIT6                                  #        ORBITAL NAVIGATION      ORBITAL NAVIGATION
000499:
000500:                                                                                                  #  BIT 5 FLAG 3  (S)
000501: 26,2022                        STATEFLG           =        055D                                  #        PERMANENT STATE         PERMANENT STATE
000502: 26,2022     4747               STATEBIT           =        BIT5                                  #        VECTOR UPDATED          VECTOR NOT UPDATED
000503:
000504:                                                                                                  #  BIT 4 FLAG 3  (S)
000505: 26,2022                        INTYPFLG           =        056D                                  #        CONIC INTEGRATION       ENCKE INTEGRATION
000506: 26,2022     4750               INTYPBIT           =        BIT4
000507:
000508:                                                                                                  #  BIT 3 FLAG 3  (S)
000509: 26,2022                        VINTFLAG           =        057D                                  #        CSM STATE VECTOR        LEM STATE VECTOR
000510: 26,2022     4751               VINTFBIT           =        BIT3                                  #        BEING INTEGRATED        BEING INTEGRATED
000511:
000512:                                                                                                  #  BIT 2 FLAG 3 (S)
000513: 26,2022                        D6OR9FLG           =        058D                                  #        DIMENSION OF W IS 9     DIMENSION OF W IS 6
000514: 26,2022     4752               D6OR9BIT           =        BIT2                                  #        FOR INTEGRATION         FOR INTEGRATION
000515:
000516:                                                                                                  #  BIT 1 FLAG 3  (S)
000517: 26,2022                        DIM0FLAG           =        059D                                  #        W MATRIX IS TO BE       W MATRIX IS NOT TO
000518: 26,2022     4753               DIM0BIT            =        BIT1                                  #        USED                    BE USED
000519:


000521: 26,2022     0100               FLAGWRD4           =        STATE      +4                         #  (060-074)
000522:
000523:                                                                                                  #        (SET)                   (RESET)
000524:
000525:                                                                                                  #  BIT 15 FLAG 4 (S)
000526: 26,2022                        MRKIDFLG           =        060D                                  #        MARK DISPLAY IN         NO MARK DISPLAY IN
000527: 26,2022     4735               MRKIDBIT           =        BIT15                                 #        ENDIDLE                 ENDIDLE
000528:
000529:                                                                                                  #  BIT 14 FLAG 4 (S)
000530: 26,2022                        PRIODFLG           =        061D                                  #        PRIORITY DISPLAY IN     NO PRIORITY DISPLAY
000531: 26,2022     4736               PRIODBIT           =        BIT14                                 #        ENDIDLE                 IN ENDIDLE
000532:
000533:                                                                                                  #  BIT 13 FLAG 4 (S)
000534: 26,2022                        NRMIDFLG           =        062D                                  #        NORMAL DISPLAY IN       NO NORMAL DISPLAY
000535: 26,2022     4737               NRMIDBIT           =        BIT13                                 #        ENDIDLE                 IN ENDIDLE
000536:
000537:                                                                                                  #  BIT 12 FLAG 4 (S)
000538: 26,2022                        PDSPFLAG           =        063D                                  #        P20 SETS SO AS TO       LEAVE AS NORMAL DISP
000539:                                                                                                  #        TURN A NORMAL DIS-
000540: 26,2022     4740               PDSPFBIT           =        BIT12                                 #        PLAY INTO A PRIORITY
000541:                                                                                                  #        DISPLAY IN R60
000542:
000543:                                                                                                  #  BIT 11 FLAG 4 (S)
000544: 26,2022                        MWAITFLG           =        064D                                  #        HIGHER PRIORITY         NO HIGHER PRIORITY
000545:                                                                                                  #        DISPLAY OPERATING       DISPLAY OPERATING
000546: 26,2022     4741               MWAITBIT           =        BIT11                                 #        WHEN MARK DISPLAY       WHEN MARK DISPLAY
000547:                                                                                                  #        INITIATED               INITIATED
000548:
000549:                                                                                                  #  BIT 10 FLAG 4 (S)
000550: 26,2022                        NWAITFLG           =        065D                                  #        HIGHER PRIORITY         NO HIGHER PRIORITY
000551:                                                                                                  #        DISPLAY OPERATING       DISPLAY OPERATING
000552: 26,2022     4742               NWAITBIT           =        BIT10                                 #        WHEN NORMAL             WHEN NORMAL DISPLAY
000553:                                                                                                  #        DISPLAY INITIATED       INITIATED
000554:
000555:                                                                                                  #  BIT 9 FLAG 4  (S)
000556: 26,2022                        MRKNVFLG           =        066D                                  #        ASTRONAUT USING         ASTRONAUT NOT USING
000557:                                                                                                  #        KEYBOARD WHEN MARK      KEYBOARD WHEN MARK
000558: 26,2022     4743               MRKNVBIT           =        BIT9                                  #        DISPLAY INITIATED       DISPLAY INITIATED
000559:
000560:                                                                                                  #  BIT 8 FLAG 4  (S)
000561: 26,2022                        NRMNVFLG           =        067D                                  #        ASTRONAUT USING         ASTRONAUT NOT USING
000562:                                                                                                  #        KEYBOARD WHEN           KEYBOARD WHEN
000563: 26,2022     4744               NRMNVBIT           =        BIT8                                  #        NORMAL DISPLAY          NORMAL DISPLAY
000564:                                                                                                  #        INITIATED               INITIATED
000565:


000567:                                                                                                  #  BIT 7 FLAG 4  (S)
000568: 26,2022                        PRONVFLG           =        068D                                  #        ASTRONAUT USING         ASTRONAUT NOT USING
000569:                                                                                                  #        KEYBOARD WHEN           KEYBOARD WHEN
000570: 26,2022     4745               PRONVBIT           =        BIT7                                  #        PRIORITY DISPLAY        PRIORITY DISPLAY
000571:                                                                                                  #        INITIATED               INITIATED
000572:
000573:                                                                                                  #  BIT 6 FLAG 4  (S)
000574: 26,2022                        PINBRFLG           =        069D                                  #        ASTRONAUT HAS           ASTRONAUT HAS NOT
000575:                                                                                                  #        INTERFERED WITH         INTERFERED WITH
000576: 26,2022     4746               PINBRBIT           =        BIT6                                  #        EXISTING DISPLAY        EXISTING DISPLAY
000577:
000578:                                                                                                  #  BIT 5 FLAG 4  (S)
000579: 26,2022                        MRUPTFLG           =        070D                                  #        MARK DISPLAY            MARK DISPLAY NOT
000580:                                                                                                  #        INTERRUPTED BY          INTERRUPTED BY
000581: 26,2022     4747               MRUPTBIT           =        BIT5                                  #        PRIORITY DISPLAY        PRIORITY DISPLAY
000582:
000583:                                                                                                  #  BIT 4 FLAG 4  (S)
000584: 26,2022                        NRUPTFLG           =        071D                                  #        NORMAL DISPLAY          NORMAL DISPLAY NOT
000585:                                                                                                  #        INTERRUPTED BY          INTERRUPTED BY
000586: 26,2022     4750               NRUPTBIT           =        BIT4                                  #        PRIORITY OR MARK        PRIORITY OR MARK
000587:                                                                                                  #        DISPLAY                 DISPLAY
000588:
000589:                                                                                                  #  BIT 3 FLAG 4  (S)
000590: 26,2022                        MKOVFLAG           =        072D                                  #        MARK DISPLAY OVER       NO MARK DISPLAY OVER
000591: 26,2022     4751               MKOVBIT            =        BIT3                                  #        NORMAL                  NORMAL
000592:
000593:                                                                                                  #  BIT 2 FLAG 4
000594:                                                                                                  #                =       073D
000595:
000596:                                                                                                  #  BIT 1 FLAG 4  (S)
000597: 26,2022                        XDSPFLAG           =        074D                                  #        MARK DISPLAY NOT        NO SPECIAL MARK
000598: 26,2022     4753               XDSPBIT            =        BIT1                                  #        TO BE INTERRUPTED       INFORMATION
000599:
000600: 26,2022     0101               FLAGWRD5           =        STATE      +5                         #  (075-089)
000601:
000602:                                                                                                  #        (SET)                   (RESET)
000603:
000604:                                                                                                  #  BIT 15 FLAG 5 (S)
000605: 26,2022                        DSKYFLAG           =        075D                                  #        DISPLAYS SENT TO        NO DISPLAYS TO DSKY
000606: 26,2022     4735               DSKYFBIT           =        BIT15                                 #        DSKY
000607:
000608:                                                                                                  #  BIT 14 FLAG 5
000609:                                                                                                  #                =       076D
000610:                                                                                                  #                =       BIT14
000611:


000613:                                                                                                  #  BIT 13 FLAG 5 (S,L)
000614: 26,2022                        SNUFFER            =        077D                                  #        U,V JETS DISABLED       U,V JETS ENABLED
000615:                                                                                                  #        DURING DPS              DURING DPS
000616: 26,2022     4737               SNUFFBIT           =        BIT13                                 #        BURNS (V65)             BURNS (V75)
000617:
000618:                                                                                                  #  BIT 12 FLAG 5 (S)
000619: 26,2022                        NOTHROTL           =        078D                                  #        INHIBIT FULL            PERMIT FULL THROTTLE
000620: 26,2022     4740               NOTHRBIT           =        BIT12                                 #        THROTTLE
000621:
000622:                                                                                                  #  BIT 11 FLAG 5 (S,L)
000623: 26,2022                        R77FLAG            =        079D                                  #        R77 IS ON,              R77 IS NOT ON.
000624:                                                                                                  #        SUPPRESS ALL RADAR
000625:                                                                                                  #        ALARMS AND TRACKER
000626: 26,2022     4741               R77FLBIT           =        BIT11                                 #        FAILS
000627:
000628:                                                                                                  #  BIT 10 FLAG 5 (S)
000629: 26,2022                        RNGSCFLG           =        080D                                  #        SCALE CHANGE HAS        NO SCALE CHANGE HAS
000630:                                                                                                  #        OCCURRED DURING         OCCURRED DURING
000631: 26,2022     4742               RNGSCBIT           =        BIT10                                 #        RR READING              RR READING
000632:
000633:                                                                                                  #  BIT 9 FLAG 5  (S)
000634: 26,2022                        DMENFLG            =        081D                                  #        DIMENSION OF W IS 9     DIMENSION OF W IS 6
000635: 26,2022     4743               DMENFBIT           =        BIT9                                  #        FOR INCORPORATION       FOR INCORPORATION
000636:
000637:                                                                                                  #  BIT 8 FLAG 5  (S)
000638: 26,2022                        ZOOMFLAG           =        082D                                  #        THROTTLE-UP HAS         THROTTLE-UP HAS NOT
000639: 26,2022     4744               ZOOMBIT            =        BIT8                                  #        OCCURRED IN P63.        YET OCCURRED IN P63.
000640:
000641:                                                                                                  #  BIT 7 FLAG 5  (S)
000642: 26,2022                        ENGONFLG           =        083D                                  #        ENGINE TURNED ON        ENGINE TURNED OFF
000643: 26,2022     4745               ENGONBIT           =        BIT7                                  #
000644:
000645:                                                                                                  #  BIT 6 FLAG 5  (S)
000646: 26,2022                        3AXISFLG           =        084D                                  #        MANEUVER SPECIFIED      MANEUVER SPECIFIED
000647:                                                                                                  #        BY THREE AXES           BY ONE AXIS; R60
000648: 26,2022     4746               3AXISBIT           =        BIT6                                  #                                CALLS VECPOINT.
000649:
000650:                                                                                                  #  BIT 5 FLAG 5
000651: 26,2022                        AORBSFLG           =        085D                                  #        PREFER PAXIS JET        PREFER PAXIS JET
000652: 26,2022     4747               AORBSYST           =        BIT5                                  #        PAIRS 7,15 AND 8,16     PAIRS 4,12 AND 3,11
000653:


000655:                                                                                                  #  BIT 4 FLAG 5  (S)
000656: 26,2022                        NORRMON            =        086D                                  #        BYPASS RR GIMBAL        PERFORM
000657: 26,2022     4750               NORRMBIT           =        BIT4                                  #        MONITOR                 RR GIMBAL MONITOR
000658:
000659:                                                                                                  #  BIT 3 FLAG 5  (S)
000660: 26,2022                        SOLNSW             =        087D                                  #        LAMBERT DOES NOT        LAMBERT CONVERGES OR
000661:                                                                                                  #        CONVERGE,OR TIME-RAD    TIME-RADIUS NON
000662: 26,2022     4751               SOLNSBIT           =        BIT3                                  #        NEARLY CIRCULAR         CIRCULAR
000663:
000664:                                                                                                  #  BIT 2 FLAG 5  (S)
000665: 26,2022                        MGLVFLAG           =        088D                                  #        LOCAL VERTICAL          MIDDLE GIMBAL ANGLE
000666:                                                                                                  #        COORDINATES             COMPUTED
000667: 26,2022     4752               MGLVFBIT           =        BIT2                                  #        COMPUTED
000668:
000669:                                                                                                  #  BIT 1 FLAG 5  (S)
000670: 26,2022                        RENDWFLG           =        089D                                  #        W MATRIX VALID          W MATRIX INVALID
000671:                                                                                                  #        FOR RENDEZVOUS          FOR RENDEZVOUS
000672: 26,2022     4753               RENDWBIT           =        BIT1                                  #        NAVIGATION              NAVIGATION
000673:
000674: 26,2022     0102               FLAGWRD6           =        STATE      +6                         #  (090-104)
000675:
000676:                                                                                                  #        (SET)                   (RESET)
000677:
000678:                                                                                                  #  BIT 15 FLAG 6 (S)
000679: 26,2022                        S32.1F1            =        090D                                  #        DELTA V AT CSI TIME     DVT1 LESS THEN MAX
000680: 26,2022     4735               S32BIT1            =        BIT15                                 #        ONE EXCEEDS MAX
000681:
000682:                                                                                                  #  BIT 14 FLAG 6 (S)
000683: 26,2022                        S32.1F2            =        091D                                  #        FIRST PASS OF           REITERATION OF
000684: 26,2022     4736               S32BIT2            =        BIT14                                 #        NEWTON ITERATION        NEWTON
000685:
000686:                                                                                                  #  BIT 13 FLAG 6 (S)
000687: 26,2022                        S32.1F3A           =        092D                                  #  BIT 13 AND BIT 12 FUNCTION AS AN ORDERED
000688: 26,2022     4737               S32BIT3A           =        BIT13                                 #  PAIR (13,12) INDICATING THE POSSIBLE OC-
000689:                                                                                                  #  CURRANCE OF 2NEWTON ITERATIONS FOR S32.1
000690:                                                                                                  #  IN THE PROGRAM IN THE FOLLOWING ORDER:
000691:                                                                                                  #  BIT 12 FLAG 6                                   (0,1) (I.E.BIT 13 RESET, BIT 12 SET)
000692: 26,2022                        S32.1F3B           =        093D                                  #       = FIRST NEWTON ITERATION BEING DONE
000693: 26,2022     4740               S32BIT3B           =        BIT12                                 #  (0,0)= FIRST PASS OF SECOND NEWT.ITERAT.
000694:                                                                                                  #  (1,1)= 50 FT/SEC STAGE OF SEC. NEWT.ITER
000695:                                                                                                  #  (1,0)= REMAINDER OF SECOND NEWTON ITERA.
000696:


000698:                                                                                                  #  BIT 11 FLAG 6 (S)
000699:
000700:                                                                                                  #  BIT 10 FLAG 6 (S)
000701: 26,2022                        GMBDRVSW           =        095D                                  #        TRIMGIMB OVER           TRIMGIMB NOT OVER
000702: 26,2022     4742               GMBDRBIT           =        BIT10                                 #
000703:
000704:                                                                                                  #  BIT 9 FLAG 6
000705:                                                                                                  #                =       096D
000706:                                                                                                  #                =       BIT9
000707:
000708:                                                                                                  #  BIT 8 FLAG 6  (S)
000709: 26,2022                        MUNFLAG            =        097D                                  #        SERVICER CALLS          SERVICER CALLS
000710: 26,2022     4744               MUNFLBIT           =        BIT8                                  #        MUNRVG                  CALCRVG
000711:
000712:                                                                                                  #  BIT 7 FLAG 6  (L)
000713: 26,2022                                           =        098D
000714: 26,2022                                           =        BIT7
000715:
000716:                                                                                                  #  BIT 6 FLAG 6  (L)
000717: 26,2022                        REDFLAG            =        099D                                  #        LANDING SITE            LANDING SITE
000718:                                                                                                  #        REDESIGNATION           REDESIGNATION NOT
000719: 26,2022     4746               REDFLBIT           =        BIT6                                  #        PERMITTED               PERMITTED
000720:
000721:                                                                                                  #  BIT 5 FLAG 6
000722:                                                                                                  #                =       100D
000723:
000724:                                                                                                  #  BIT 4 FLAG 6
000725:                                                                                                  #                =       101D
000726:
000727:                                                                                                  #  BIT 3 FLAG 6  (S)
000728: 26,2022                        NTARGFLG           =        102D                                  #        ASTRONAUT DID           ASTRONAUT DID NOT
000729:                                                                                                  #        OVERWRITE DELTA         OVERWRITE DELTA
000730: 26,2022     4751               NTARGBIT           =        BIT3                                  #        VELOCITY AT TPI         VELOCITY
000731:                                                                                                  #        OR TPM (P34,35)
000732:
000733:                                                                                                  #  BIT 2 FLAG 6
000734: 26,2022                        AUXFLAG            =        103D                                  #        PROVIDING IDLEFLAG      SERVICER WILL SKIP
000735: 26,2022     4752               AUXFLBIT           =        BIT2                                  #        IS NOT SET, SERV-       DVMON ON ITS NEXT
000736:                                                                                                  #        ICER WILL EXERCISE      PASS EVEN IF THE
000737:                                                                                                  #        DVMON ON ITS NEXT       IDLEFLAG IS NOT SET.
000738:                                                                                                  #        PASS.                   IT WILL THEN SET
000739:                                                                                                  #                                AUXFLAG.
000740:


000742:                                                                                                  #  BIT 1 FLAG 6  (L)
000743: 26,2022                        ATTFLAG            =        104D                                  #        LEM ATTITUDE EXISTS     NO LEM ATTITUDE
000744:                                                                                                  #        IN MOON-FIXED           AVAILABLE IN MOON-
000745: 26,2022     4753               ATTFLBIT           =        BIT1                                  #        COORDINATES             FIXED COORDINATES
000746:
000747: 26,2022     0103               FLAGWRD7           =        STATE      +7                         #  (105-119)
000748:
000749:                                                                                                  #        (SET)                   (RESET)
000750:
000751:                                                                                                  #  BIT 15 FLAG 7 (S)
000752: 26,2022                        ITSWICH            =        105D                                  #        P34;TPI TIME TO BE      TPI HAS BEEN
000753: 26,2022     4735               ITSWBIT            =        BIT15                                 #        COMPUTED                COMPUTED
000754:
000755:                                                                                                  #  BIT 14 FLAG 7 (S)
000756: 26,2022                        MANUFLAG           =        106D                                  #        ATTITUDE MANEUVER       NO ATTITUDE MANEUVER
000757:                                                                                                  #        GOING DURING RR         DURING RR SEARCH
000758: 26,2022     4736               MANUFBIT           =        BIT14                                 #        SEARCH
000759:
000760:                                                                                                  #  BIT 13 FLAG 7 (S)
000761: 26,2022                        IGNFLAG            =        107D                                  #        TIG HAS ARRIVED         TIG HAS NOT ARRIVED
000762: 26,2022     4737               IGNFLBIT           =        BIT13                                 #
000763:
000764:                                                                                                  #  BIT 12 FLAG 7 (S)
000765: 26,2022                        ASTNFLAG           =        108D                                  #        ASTRONAUT HAS           ASTRONAUT HAS NOT
000766: 26,2022     4740               ASTNBIT            =        BIT12                                 #        OKAYED IGNITION         OKAYED IGNITION
000767:
000768:                                                                                                  #  BIT 11 FLAG 7 (L)
000769: 26,2022                        SWANDISP           =        109D                                  #        LANDING ANALOG          LANDING ANALOG
000770: 26,2022     4741               SWANDBIT           =        BIT11                                 #        DISPLAYS ENABLED        DISPLAYS SUPPRESSED
000771:
000772:                                                                                                  #  BIT 10 FLAG 7 (S)
000773: 26,2022                        NORMSW             =        110D                                  #        UNIT NORMAL INPUT       LAMBERT COMPUTES ITS
000774: 26,2022     4742               NORMSBIT           =        BIT10                                 #        TO LAMBERT              OWN UNIT NORMAL
000775:
000776:                                                                                                  #  BIT 9 FLAG 7  (S)
000777: 26,2022                        RVSW               =        111D                                  #        DO NOT COMPUTE          COMPUTE FINAL STATE
000778:                                                                                                  #        FINAL STATE VECTOR      VECTOR IN TIME-THETA
000779: 26,2022     4743               RVSWBIT            =        BIT9                                  #        IN TIME-THETA
000780:
000781:                                                                                                  #  BIT 8 FLAG 7  (S)
000782: 26,2022                        V67FLAG            =        112D                                  #        ASTRONAUT OVERWRITE     ASTRONAUT DOES NOT
000783:                                                                                                  #        W-MATRIX INITIAL        OVERWRITE W-MATRIX


000785: 26,2022     4744               V67FLBIT           =        BIT8                                  #        VALUES                  INITIAL VALUES
000786:
000787:                                                                                                  #  BIT 7 FLAG 7  (S)
000788: 26,2022                        IDLEFLAG           =        113D                                  #        NO DV MONITOR           CONNECT DV MONITOR
000789: 26,2022     4745               IDLEFBIT           =        BIT7                                  #
000790:
000791:                                                                                                  #  BIT 6 FLAG 7  (S)
000792: 26,2022                        V37FLAG            =        114D                                  #        AVERAGEG (SERVICER)     AVERAGEG (SERVICER)
000793: 26,2022     4746               V37FLBIT           =        BIT6                                  #        RUNNING                 OFF
000794:
000795:                                                                                                  #  BIT 5 FLAG 7  (S)
000796: 26,2022                        AVEGFLAG           =        115D                                  #        AVERAGEG (SERVICER)     AVERAGEG (SERVICER)
000797: 26,2022     4747               AVEGFBIT           =        BIT5                                  #        DESIRED                 NOT DESIRED
000798:
000799:                                                                                                  #  BIT 4 FLAG 7  (S)
000800: 26,2022                        UPLOCKFL           =        116D                                  #        K-KBAR-K FAIL           NO K-KBAR-K FAIL
000801: 26,2022     4750               UPLOCBIT           =        BIT4                                  #
000802:
000803:                                                                                                  #  BIT 3 FLAG 7  (S)
000804: 26,2022                        VERIFLAG           =        117D                                  #  CHANGED WHEN V33E OCCURS AT END OF P27
000805: 26,2022     4751               VERIFBIT           =        BIT3                                  #
000806:
000807:                                                                                                  #  BIT 2 FLAG 7  (L,C)
000808: 26,2022                        V82EMFLG           =        118D                                  #        MOON VICINITY           EARTH VICINITY
000809: 26,2022     4752               V82EMBIT           =        BIT2                                  #
000810:
000811:                                                                                                  #  BIT 1 FLAG 7  (S)
000812: 26,2022                        TFFSW              =        119D                                  #        CALCULATE TPERIGEE      CALCULATE TFF
000813: 26,2022     4753               TFFSWBIT           =        BIT1                                  #
000814:
000815: 26,2022     0104               FLAGWRD8           =        STATE      +8D                        #  (120-134)
000816:
000817:                                                                                                  #        (SET)                   (RESET)
000818:
000819:                                                                                                  #  BIT 15 FLAG 8 (S)
000820: 26,2022                        RPQFLAG            =        120D                                  #        RPQ NOT COMPUTED        RPQ COMPUTED
000821:                                                                                                  #        (RPQ = VECTOR BE-
000822: 26,2022     4735               RPQFLBIT           =        BIT15                                 #        TWEEN SECONDARY BODY
000823:                                                                                                  #        AND PRIMARY BODY
000824:
000825:                                                                                                  #  BIT 14 FLAG 8


000827:                                                                                                  #                =       121D
000828:                                                                                                  #                =       BIT14
000829:
000830:                                                                                                  #  BIT 13 FLAG 8 (S)
000831: 26,2022                        NEWIFLG            =        122D                                  #        FIRST PASS THROUGH      SUCCEEDING ITERATION
000832: 26,2022     4737               NEWIBIT            =        BIT13                                 #        INTEGRATION             OF INTEGRATION
000833:
000834:                                                                                                  #  BIT 12 FLAG 8 *** PROTECTED FROM FRESH START ***
000835: 26,2022                        CMOONFLG           =        123D                                  #        PERMANENT CSM STATE     PERMANENT CSM STATE
000836: 26,2022     4740               CMOONBIT           =        BIT12                                 #        IN LUNAR SPHERE         IN EARTH SPHERE
000837:
000838:                                                                                                  #  BIT 11 FLAG 8 *** PROTECTED FROM FRESH START ***
000839: 26,2022                        LMOONFLG           =        124D                                  #        PERMANENT LM STATE      PERMANENT LM STATE
000840: 26,2022     4741               LMOONBIT           =        BIT11                                 #        IN LUNAR SPHERE         IN EARTH SPHERE
000841:
000842:                                                                                                  #  BIT 10 FLAG 8 (L)
000843: 26,2022                        FLUNDISP           =        125D                                  #        CURRENT GUIDANCE        CURRENT GUIDANCE
000844: 26,2022     4742               FLUNDBIT           =        BIT10                                 #        DISPLAYS INHIBITED      DISPLAYS PERMITTED
000845:
000846:                                                                                                  #  BIT 9 FLAG 8  (L)
000847:                                                                                                  #                =       126D
000848:                                                                                                  #                =       BIT9
000849:
000850:                                                                                                  #  BIT 8 FLAG 8  *** PROTECTED FROM FRESH START ***
000851: 26,2022                        SURFFLAG           =        127D                                  #        LM ON LUNAR SURFACE     LM NOT ON LUNAR
000852: 26,2022     4744               SURFFBIT           =        BIT8                                  #                                SURFACE
000853:
000854:                                                                                                  #  BIT 7 FLAG 8  (S)
000855: 26,2022                        INFINFLG           =        128D                                  #        NO CONIC SOLUTION       CONIC SOLUTION
000856:                                                                                                  #        (CLOSURE THROUGH        EXISTS
000857: 26,2022     4745               INFINBIT           =        BIT7                                  #        INFINITY REQUIRED)
000858:
000859:                                                                                                  #  BIT 6 FLAG 8  (S)
000860: 26,2022                        ORDERSW            =        129D                                  #        ITERATOR USES 2ND       ITERATOR USES 1ST
000861: 26,2022     4746               ORDERBIT           =        BIT6                                  #        ORDER MINIMUM MODE      ORDER STANDARD MODE
000862:
000863:                                                                                                  #  BIT 5 FLAG 8  (S)
000864: 26,2022                        APSESW             =        130D                                  #        RDESIRED OUTSIDE        RDESIRED INSIDE
000865:                                                                                                  #        PERICENTER-APOCENTER    PERICENTER-APOCENTER
000866: 26,2022     4747               APSESBIT           =        BIT5                                  #        RANGE IN TIME-RADI      RANGE IN TIME-RADIUS
000867:


000869:                                                                                                  #  BIT 4 FLAG 8  (S)
000870: 26,2022                        COGAFLAG           =        131D                                  #        NO CONIC SOLUTION -     CONIC SOLUTION
000871:                                                                                                  #        TOO CLOSE TO RECTI-     EXISTS (COGA DOES NOT
000872: 26,2022     4750               COGAFBIT           =        BIT4                                  #        LINEAR (COGA OVRFLWS)   OVERFLOW)
000873:
000874:                                                                                                  #  BIT 3 FLAG 8
000875:                                                                                                  #                =       132D
000876:
000877:                                                                                                  #  BIT 2 FLAG 8  (L)
000878: 26,2022                        INITALGN           =        133D                                  #        INITIAL PASS THRU       SECOND PASS THRU P57
000879: 26,2022     4752               INITABIT           =        BIT2                                  #        P57                     (CHECK RESET-MILLARD)
000880:
000881:                                                                                                  #  BIT 1 FLAG 8  (S)
000882: 26,2022                        360SW              =        134D                                  #        TRANSFER ANGLE NEAR     TRANSFER ANGLE NOT
000883: 26,2022     4753               360SWBIT           =        BIT1                                  #        360 DEGREES             NEAR 360 DEGREES
000884:
000885: 26,2022     0105               FLAGWRD9           =        STATE      +9D                        #  (135-149)
000886:
000887:                                                                                                  #        (SET)                   (RESET)
000888:
000889:                                                                                                  #  BIT 15 FLAG 9
000890:                                                                                                  #                =       135D
000891:                                                                                                  #                =       BIT15
000892:
000893:                                                                                                  #  BIT 14 FLAG 9 (L)
000894: 26,2022                        FLVR               =        136D                                  #        VERTICAL RISE           NON-VERTICAL RISE
000895: 26,2022     4736               FLVRBIT            =        BIT14                                 #        (ASCENT GUIDANCE)
000896:
000897:                                                                                                  #  BIT 13 FLAG 9
000898: 26,2022                        P7071FLG           =        137D                                  #        P70 OR P71 IS USING     P12 IS USING THE
000899: 26,2022     4737               P7071BIT           =        BIT13                                 #        ASCENT GUID. EQS.       ASCENT GUID. EQS.
000900:
000901:                                                                                                  #  BIT 12 FLAG 9 (L)
000902: 26,2022                        FLPC               =        138D                                  #        NO POSITION CONTROL     POSITION CONTROL
000903: 26,2022     4740               FLPCBIT            =        BIT12                                 #        (ASCENT GUIDANCE)
000904:
000905:                                                                                                  #  BIT 11 FLAG 9 (L)
000906: 26,2022                        FLPI               =        139D                                  #        PRE-IGNITION PHASE      REGULAR GUIDANCE
000907: 26,2022     4741               FLPIBIT            =        BIT11                                 #        (ASCENT GUIDANCE)
000908:
000909:                                                                                                  #  BIT 10 FLAG 9 (L)
000910: 26,2022                        FLRCS              =        140D                                  #        RCS INJECTION MODE      MAIN ENGINE MODE


000912: 26,2022     4742               FLRCSBIT           =        BIT10                                 #        (ASCENT GUIDANCE)
000913:
000914:                                                                                                  #  BIT 9 FLAG 9  (L)
000915: 26,2022                        LETABORT           =        141D                                  #        ABORT PROGRAMS          ABORT PROGRAMS
000916: 26,2022     4743               LETABBIT           =        BIT9                                  #        ARE ENABLED             ARE NOT ENABLED
000917:
000918:                                                                                                  #  BIT 8 FLAG 9  (L)
000919: 26,2022                        FLAP               =        142D                                  #        APS CONTINUED ABORT     APS ABORT IS NOT A
000920:                                                                                                  #        AFTER DPS STAGING       CONTINUATION
000921: 26,2022     4744               FLAPBIT            =        BIT8                                  #        (ASCENT GUIDANCE)
000922:
000923:                                                                                                  #  BIT 7 FLAG 9  (L)
000924: 26,2022                        ABTTGFLG           =        143D                                  #        J2,K2 PARAMETERS        J1,K1 PARAMETERS
000925: 26,2022     4745               ABTTGBIT           =        BIT7                                  #        USED FOR ABORT          USED FOR ABORT
000926:                                                                                                  #        TARGETING               TARGETING
000927:
000928:                                                                                                  #  BIT 6 FLAG 9  (L)
000929: 26,2022                        ROTFLAG            =        144D                                  #        P70 AND P71 WILL        P70 AND P71 WILL NOT
000930: 26,2022     4746               ROTFLBIT           =        BIT6                                  #        FORCE VEHICLE           FORCE VEHICLE
000931:                                                                                                  #        ROTATION IN THE         ROTATION IN THE
000932:                                                                                                  #        PREFERRED DIRECTION.    PREFERRED DIRECTION
000933:
000934:                                                                                                  #  BIT 5 FLAG 9  (S)
000935: 26,2022                        QUITFLAG           =        145D                                  #        DISCONTINUE INTEGR.     CONTINUE INTEGRATION
000936: 26,2022     4747               QUITBIT            =        BIT5                                  #
000937:
000938:                                                                                                  #  BIT 4 FLAG 9
000939:                                                                                                  #                =       146D
000940:                                                                                                  #                =       BIT4
000941:
000942:                                                                                                  #  BIT 3 FLAG 9  (L)
000943: 26,2022                        MID1FLAG           =        147D                                  #        INTEGRATE TO TDEC       INTEGRATE TO THE
000944: 26,2022     4751               MID1FBIT           =        BIT3                                  #                                THEN-PRESENT TIME
000945:
000946:                                                                                                  #  BIT 2 FLAG 9  (L)
000947: 26,2022                        MIDAVFLG           =        148D                                  #        INTEGRATION ENTERED     INTEGRATION WAS
000948:                                                                                                  #        FROM ONE OF MIDTOAV     NOT ENTERED VIA
000949: 26,2022     4752               MIDAVBIT           =        BIT2                                  #        PORTALS                 MIDTOAV
000950:
000951:                                                                                                  #  BIT 1 FLAG 9  (S)
000952: 26,2022                        AVEMIDSW           =        149D                                  #        AVETOMID CALLING        NO AVETOMID W INTEGR
000953:                                                                                                  #        FOR W.MATRIX INTEGR     ALLOW SET UP RN,VN,
000954: 26,2022     4753               AVEMDBIT           =        BIT1                                  #        DONT WRITE OVER RN,     PIPTIME
000955:                                                                                                  #        VN,PIPTIME
000956:


000958: 26,2022     0106               RASFLAG            EQUALS   FLGWRD10                              #  WAS ONLY AN INSTALL-ERASTALL FLAG
000959:
000960: 26,2022     0106               FLGWRD10           =        STATE      +10D                       #  (150-164)
000961:
000962:                                                                                                  #        (SET)                   (RESET)
000963:
000964:                                                                                                  #  BIT 15 FLAG 10
000965:                                                                                                  #                =       150D
000966:
000967:                                                                                                  #  BIT 14 FLAG 10 (L,C)
000968: 26,2022                        INTFLAG            =        151D                                  #        INTEGRATION IN          INTEGRATION NOT IN
000969: 26,2022     4736               INTFLBIT           =        BIT14                                 #        PROGRESS                PROGRESS
000970:
000971:                                                                                                  #  BIT 13 FLAG 10 (S,L)
000972: 26,2022                        APSFLAG            =        152D                                  #        ASCENT STAGE            DESCENT STAGE
000973: 26,2022     4737               APSFLBIT           =        BIT13                                 #        *** PROTECTED FROM FRESH START ***
000974:
000975:                                                                                                  #  BIT 12 FLAG 10
000976:                                                                                                  #                =       153D
000977:
000978:                                                                                                  #  BIT 11 FLAG 10
000979:                                                                                                  #                =       154D
000980:
000981:                                                                                                  #  BIT 10 FLAG 10
000982:                                                                                                  #                =       155D
000983:
000984:                                                                                                  #  BIT 9 FLAG 10
000985:                                                                                                  #                =       156D
000986:
000987:                                                                                                  #  BIT 8 FLAG 10
000988:                                                                                                  #                =       157D
000989:
000990:                                                                                                  #  BIT 7 FLAG 10 (L,C)
000991: 26,2022                        REINTFLG           =        158D                                  #        INTEGRATION ROUTINE     INTEGRATION ROUTINE
000992: 26,2022     4745               REINTBIT           =        BIT7                                  #        TO BE RESTARTED         NOT TO BE RESTARTED
000993:
000994:                                                                                                  #  BIT 6 FLAG 10
000995:                                                                                                  #                =       159D


000997:
000998:                                                                                                  #  BIT 5 FLAG 10
000999:                                                                                                  #                =       160D
001000:
001001:                                                                                                  #  BIT 4 FLAG 10
001002:                                                                                                  #                =       161D
001003:
001004:                                                                                                  #  BIT 3 FLAG 10
001005:                                                                                                  #                =       162D
001006:
001007:                                                                                                  #  BIT 2 FLAG 10
001008:                                                                                                  #                =       163D
001009:
001010:                                                                                                  #  BIT 1 FLAG 10
001011:                                                                                                  #                =       164D
001012:
001013: 26,2022     0107               FLGWRD11           =        STATE      +11D                       #  (165-179)
001014:
001015:                                                                                                  #        (SET)                   (RESET)
001016:
001017:                                                                                                  #  BIT 15 FLAG 11 (L)(R12)
001018: 26,2022                        LRBYPASS           =        165D                                  #        BYPASS ALL LANDING      DO NOT BYPASS LR
001019: 26,2022     4735               LRBYBIT            =        BIT15                                 #        RADAR UPDATES           UPDATES
001020:
001021:                                                                                                  #  BIT 14 FLAG 11
001022:                                                                                                  #                =       166D
001023:                                                                                                  #                =       BIT14
001024:
001025:                                                                                                  #  = BIT 13 FLAG 11
001026:                                                                                                  #                =       167D
001027:                                                                                                  #                =       BIT13
001028:
001029:                                                                                                  #  BIT 12 FLAG 11 (L)(R12)
001030: 26,2022                        VXINH              =        168D                                  #        IF Z VELOCITY DATA      UPDATE X AXIS
001031:                                                                                                  #        UNREASONABLE,           VELOCITY
001032: 26,2022     4740               VXINHBIT           =        BIT12                                 #        BYPASS X VELOCITY
001033:                                                                                                  #        UPDATE ON NEXT PASS
001034:


001036:                                                                                                  #  BIT 11 FLAG 11 (L)(R12)
001037: 26,2022                        PSTHIGAT           =        169D                                  #        PAST HIGATE             PREHIGATE
001038: 26,2022     4741               PSTHIBIT           =        BIT11                                 #
001039:
001040:                                                                                                  #  BIT 10 FLAG 11 (L)(R12)
001041: 26,2022                        NOLRREAD           =        170D                                  #        LANDING RADAR           LR NOT REPOSITIONING
001042:                                                                                                  #        REPOSITIONING;
001043: 26,2022     4742               NOLRRBIT           =        BIT10                                 #        BYPASS UPDATE
001044:
001045:                                                                                                  #  BIT 9 FLAG 11 (L)(R12)
001046: 26,2022                        XORFLG             =        171D                                  #        BELOW LIMIT             ABOVE LIMIT DO
001047:                                                                                                  #        INHIBIT X AXIS          NOT INHIBIT
001048: 26,2022     4743               XORFLBIT           =        BIT9                                  #        OVERRIDE
001049:
001050:                                                                                                  #  BIT 8 FLAG 11
001051: 26,2022                        LRINH              =        172D                                  #        LANDING RADAR UP-       LR UPDATES INHIBITED
001052: 26,2022     4744               LRINHBIT           =        BIT8                                  #        DATES PERMITTED         BY ASTRONAUT
001053:                                                                                                  #        BY ASTRONAUT
001054:
001055:                                                                                                  #  BIT 7 FLAG 11 (L)(R12)
001056: 26,2022                        VELDATA            =        173D                                  #        LR VELOCITY             LR VELOCITY MEASURE
001057: 26,2022     4745               VELDABIT           =        BIT7                                  #        MEASUREMENT MADE        NOT MADE
001058:
001059:                                                                                                  #  BIT 6 FLAG 11 (L)(R12)
001060: 26,2022                        LPOS2FLG           =        174D                                  #        USE LR POSITION 2       USE LR POSITION 1
001061: 26,2022     4746               LPOS2BIT           =        BIT6                                  #        TRANSFORMATION          TRANSFORMATION
001062:
001063:                                                                                                  #  BIT 5 FLAG 11 (L)(R12)
001064: 26,2022                        READVEL            =        175D                                  #        OK TO READ LR           DO NOT READ LR
001065: 26,2022     4747               READVBIT           =        BIT5                                  #        VELOCITY DATA           VELOCITY DATA
001066:
001067:                                                                                                  #  BIT 4 FLAG 11 (L)(R12)
001068: 26,2022                        RNGEDATA           =        176D                                  #        LR ALTITUDE             LR ALTITUDE MEASURE
001069: 26,2022     4750               RNGEDBIT           =        BIT4                                  #        MEASUREMENT MADE        NOT MADE
001070:
001071:                                                                                                  #  BIT 3 FLAG 11
001072: 26,2022                        NO511FLG           =        177D                                  #        DO NOT TEST LR          TEST LR ANTENNA
001073: 26,2022     4751               NO511BIT           =        BIT3                                  #        ANTENNA POS IN R12      POS IN R12
001074:
001075:                                                                                                  #  BIT 2 FLAG 11 (L)(R12)
001076: 26,2022                        VFLSHFLG           =        178D                                  #        LR VELOCITY FAIL        LR VEL FAIL LAMP


001078:                                                                                                  #        LAMP SHOULD BE          SHOULDN'T FLASH
001079: 26,2022     4752               VFLSHBIT           =        BIT2                                  #        FLASHING
001080:
001081:                                                                                                  #  BIT 1 FLAG 11 (L)(R12)
001082: 26,2022                        HFLSHFLG           =        179D                                  #        LR ALTITUDE FAIL        LR ALTITUDE FAIL
001083: 26,2022     4753               HFLSHBIT           =        BIT1                                  #        LAMP SHOULD BE          LAMP SHOULD NOT BE
001084:                                                                                                  #        FLASHING                FLASHING
001085:
001086: 26,2022     0110               RADMODES           EQUALS   FLGWRD12                              #  RADAR FLAG WORD
001087:
001088: 26,2022     0110               FLGWRD12           =        STATE      +12D                       #  (180-194)     WAS RADMODES
001089:
001090:                                                                                                  #        (SET)                   (RESET)
001091:
001092:                                                                                                  #  BIT 15 FLAG 12
001093: 26,2022                        CDESFLAG           =        180D                                  #        CONTINUOUS DESIG-       LGC CHECKS FOR LOCK-
001094: 26,2022     4735               CDESBIT            =        BIT15                                 #        NATE. LGC COMMANDS      ON WHEN ANTENNA
001095:                                                                                                  #        RR REGARDLESS OF        BEING DESIGNATED
001096:                                                                                                  #        LOCK-ON
001097:
001098:                                                                                                  #  BIT 14 FLAG 12
001099: 26,2022                        REMODFLG           =        181D                                  #        CHANGE IN ANTENNA       NO REMODE REQUESTED
001100: 26,2022     4736               REMODBIT           =        BIT14                                 #        MODE BEEN REQUESTED     OR OCCURRING
001101:                                                                                                  #        I.E., REMODE
001102:
001103:                                                                                                  #  BIT 13 FLAG 12
001104: 26,2022                        RCDU0FLG           =        182D                                  #        RR CDU'S BEING          RR CDU'S NOT BEING
001105: 26,2022     4737               RCDU0BIT           =        BIT13                                 #        ZEROED                  ZEROED
001106:
001107:                                                                                                  #  BIT 12 FLAG 12
001108: 26,2022                        ANTENFLG           =        183D                                  #        RR ANTENNA MODE IS      RR ANTENNA IN MODE 1
001109: 26,2022     4740               ANTENBIT           =        BIT12                                 #        MODE 2
001110:
001111:                                                                                                  #  BIT 11 FLAG 12
001112: 26,2022                        REPOSMON           =        184D                                  #        REPOSITION MONITOR.     NO REPOSITION TAKING
001113: 26,2022     4741               REPOSBIT           =        BIT11                                 #        RR REPOSITION IS        PLACE
001114:                                                                                                  #        TAKING PLACE
001115:
001116:                                                                                                  #  BIT 10 FLAG 12
001117: 26,2022                        DESIGFLG           =        185D                                  #        RR DESIGNATE            RR DESIGNATE NOT
001118: 26,2022     4742               DESIGBIT           =        BIT10                                 #        REQUESTED OR IN         REQUESTED OR IN
001119:                                                                                                  #        PROGRESS                PROGRESS
001120:


001122:                                                                                                  #  BIT 9 FLAG 12
001123: 26,2022                        ALTSCALE           =        186D                                  #        LR ALTITUDE READING     LR ALTITUDE READING
001124: 26,2022     4743               ALTSCBIT           =        BIT9                                  #        IS ON HIGH SCALE        IS ON LOW SCALE
001125:
001126:                                                                                                  #  BIT 8 FLAG 12
001127: 26,2022                        LRVELFLG           =        187D                                  #        LR VELOCITY DATA        NO LR VELOCITY DATA
001128: 26,2022     4744               LRVELBIT           =        BIT8                                  #        FAIL                    FAIL
001129:
001130:                                                                                                  #  BIT 7 FLAG 12
001131: 26,2022                        RCDUFAIL           =        188D                                  #        RR CDU FAIL HAS         RR CDU FAIL OCCURRED
001132: 26,2022     4745               RCDUFBIT           =        BIT7                                  #        NOT OCCURRED
001133:
001134:                                                                                                  #  BIT 6 FLAG 12
001135: 26,2022                        LRPOSFLG           =        189D                                  #        LANDING RADAR           LR POSITION 1
001136: 26,2022     4746               LRPOSBIT           =        BIT6                                  #        POSITION 2
001137:
001138:                                                                                                  #  BIT 5 FLAG 12
001139: 26,2022                        LRALTFLG           =        190D                                  #        LR ALTITUDE DATA        NO LR ALTITUDE DATA
001140: 26,2022     4747               LRALTBIT           =        BIT5                                  #        FAIL.  COULD NOT BE     FAIL
001141:                                                                                                  #        READ SUCCESSFULLY.
001142:
001143:                                                                                                  #  BIT 4 FLAG 12
001144: 26,2022                        RRDATAFL           =        191D                                  #        RR DATA FAIL.           NO RR DATA FAIL.
001145: 26,2022     4750               RRDATABT           =        BIT4                                  #        DATA COULD NOT BE
001146:                                                                                                  #        READ SUCCESSFULLY
001147:
001148:                                                                                                  #  BIT 3 FLAG 12
001149: 26,2022                        RRRSFLAG           =        192D                                  #        RR RANGE READING        RR RANGE READING ON
001150: 26,2022     4751               RRRSBIT            =        BIT3                                  #        ON THE HIGH SCALE       THE LOW SCALE
001151:
001152:                                                                                                  #  BIT 2 FLAG 12
001153: 26,2022                        AUTOMODE           =        193D                                  #        RR NOT IN AUTO MODE.    RR IN AUTO MODE
001154: 26,2022     4752               AUTOMBIT           =        BIT2                                  #        AUTO MODE DISCRETE
001155:                                                                                                  #        IS NOT PRESENT
001156:
001157:                                                                                                  #  BIT 1 FLAG 12
001158: 26,2022                        TURNONFL           =        194D                                  #        RR TURN-ON SEQUENCE     NO RR TURN-ON
001159: 26,2022     4753               TURNONBT           =        BIT1                                  #        IN PROGRESS.  (ZERO     SEQUENCE IN PROGRESS
001160:                                                                                                  #        CDU'S, FIX ANTENNA
001161:                                                                                                  #        MODE)
001162:


001164: 26,2022     0111               DAPBOOLS           EQUALS   FLGWRD13                              #  DIGITAL AUTOPILOT FLAGWORD
001165:
001166: 26,2022     0111               FLGWRD13           =        STATE      +13D                       #  (195-209)     WAS DAPBOOLS
001167:
001168:                                                                                                  #        (SET)                   (RESET)
001169:
001170:                                                                                                  #  BIT 15 FLAG 13
001171: 26,2022                        PULSEFLG           =        195D                                  #        MINIMUM IMPULSE         NOT IN MINIMUM
001172: 26,2022     4735               PULSES             =        BIT15                                 #        COMMAND MODE IN         IMPULSE COMMAND MODE
001173:                                                                                                  #        "ATT HOLD" (V76)        (V77)
001174:
001175:                                                                                                  #  BIT 14 FLAG 13
001176: 26,2022                        USEQRFLG           =        196D                                  #        GIMBAL UNUSABLE.        TRIM GIMBAL MAY BE
001177: 26,2022     4736               USEQRJTS           =        BIT14                                 #        USE JETS ONLY.          USED.
001178:
001179:                                                                                                  #  BIT 13 FLAG 13
001180: 26,2022                        CSMDKFLG           =        197D                                  #        CSM DOCKED.  USE        CSM NOT DOCKED TO LM
001181: 26,2022     4737               CSMDOCKD           =        BIT13                                 #        BACKUP DAP
001182:
001183:                                                                                                  #  BIT 12 FLAG 13
001184: 26,2022                        OURRCFLG           =        198D                                  #        CURRENT DAP PASS        CURRENT DAP PASS IS
001185: 26,2022     4740               OURRCBIT           =        BIT12                                 #        IS RATE COMMAND         NOT RATE COMMAND
001186:
001187:                                                                                                  #  BIT 11 FLAG 13
001188: 26,2022                        ACC4-2FL           =        199D                                  #        4 JET X-AXIS TRANS-     2 JET X-AXIS TRANS-
001189: 26,2022     4741               ACC4OR2X           =        BIT11                                 #        LATION REQUESTED        LATION REQUESTED
001190:
001191:                                                                                                  #  BIT 10 FLAG 13
001192: 26,2022                        AORBTFLG           =        200D                                  #        B SYSTEM FOR X-         A SYSTEM FOR X-
001193: 26,2022     4742               AORBTRAN           =        BIT10                                 #        TRANSLATION             TRANSLATION PREFER'D
001194:
001195:                                                                                                  #  BIT 9 FLAG 13
001196: 26,2022                        XOVINFLG           =        201D                                  #        X-AXIS OVERRIDE         X-AXIS OVERRIDE OKAY
001197: 26,2022     4743               XOVINHIB           =        BIT9                                  #        LOCKED OUT
001198:
001199:                                                                                                  #  BIT 8 FLAG 13
001200: 26,2022                        DRIFTDFL           =        202D                                  #        ASSUME 0 OFFSET         USE OFFSET ACCELERA-
001201: 26,2022     4744               DRIFTBIT           =        BIT8                                  #        DRIFTING FLIGHT.        TION ESTIMATE
001202:


001204:                                                                                                  #  BIT 7 FLAG 13
001205: 26,2022                        RHCSCFLG           =        203D                                  #        NORMAL RHC SCALING      FINE RHC SCALING
001206: 26,2022     4745               RHCSCALE           =        BIT7                                  #        REQUESTED               REQUESTED
001207:
001208:                                                                                                  #  BIT 6 FLAG 13
001209: 26,2022                        ULLAGFLG           =        204D                                  #        ULLAGE REQUEST BY       NO INTERNAL ULLAGE
001210: 26,2022     4746               ULLAGER            =        BIT6                                  #        MISSION PROGRAM         REQUEST
001211:
001212:                                                                                                  #  BIT 5 FLAG 13
001213: 26,2022                        DBSL2FLG           =        205D                                  #        5 DEG DEADBAND          1 OR .3 DEG DEADBAND
001214: 26,2022     4747               DBSLECT2           =        BIT5                                  #        SELECTED BY CREW        SELECTED BY CREW
001215:                                                                                                  #                                (SEE BIT4 DAPBOOLS)
001216:
001217:                                                                                                  #  BIT 4 FLAG 13
001218: 26,2022                        DBSELFLG           =        206D                                  #        1 DEG DEADBAND          MIN DB SELECTED BY
001219: 26,2022     4750               DBSELECT           =        BIT4                                  #        SELECTED BY CREW        CREW (0.3 DEG)
001220:
001221:                                                                                                  #  BIT 3 FLAG 13
001222: 26,2022                        ACCOKFLG           =        207D                                  #        CONTROL AUTHORITY       RESTART OR FRESH ST.
001223: 26,2022     4751               ACCSOKAY           =        BIT3                                  #        VALUES FROM 1/ACCS      SINCE LAST 1/ACCS;
001224:                                                                                                  #        USABLE                  OUTPUTS SUSPECT.
001225:
001226:                                                                                                  #  BIT 2 FLAG 13
001227: 26,2022                        AUTR2FLG           =        208D                                  #  THESE FLAGS ARE USED TOGETHER TO INDICAT
001228: 26,2022     4752               AUTRATE2           =        BIT2                                  #  ASTRONAUT-CHOSEN KALCMANU MANEUVER RATES
001229:                                                                                                  #  (0,0)=(BIT2,BIT1)=    0.2 DEG/SEC
001230:                                                                                                  #  (0,1)=                0.5 DEG/SEC
001231:                                                                                                  #  BIT 1 FLAG 13
001232: 26,2022                        AUTR1FLG           =        209D                                  #  (1,0)=                2.0 DEG/SEC
001233: 26,2022     4753               AUTRATE1           =        BIT1                                  #  (1,1)=               10.0 DEG/SEC
001234:


001237:

End of include-file FLAGWORD_ASSIGNMENTS.agc.  Parent file is MAIN.agc


