
Source Code


000002:                                                                                                  ## Copyright:   Public domain.
000003:                                                                                                  ## Filename:    GIMBAL_LOCK_AVOIDANCE.agc
000004:                                                                                                  ## Purpose:     A section of LM131 revision 1.
000005:                                                                                                  ##              It is part of the reconstructed source code for the final
000006:                                                                                                  ##              release of the flight software for the Lunar Module's (LM)
000007:                                                                                                  ##              Apollo Guidance Computer (AGC) for Apollo 13. The code has
000008:                                                                                                  ##              been reconstructed from a listing of Luminary 131 and a dump
000009:                                                                                                  ##              of a core rope memory module B5, part number 2010802-171,
000010:                                                                                                  ##              which is the only module different between LM131 revision 1
000011:                                                                                                  ##              and Luminary 131. The executable generated from this source
000012:                                                                                                  ##              has been verified against the module dump, so while the names,
000013:                                                                                                  ##              comments, and ordering may not be exactly correct, the
000014:                                                                                                  ##              resulting binary is.
000015:                                                                                                  ## Reference:   p.  366
000016:                                                                                                  ## Assembler:   yaYUL
000017:                                                                                                  ## Contact:     Ron Burkey <info@sandroid.org>.
000018:                                                                                                  ## Website:     www.ibiblio.org/apollo/index.html
000019:                                                                                                  ## Mod history: 2022-10-28 MAS  Created from Luminary 131.
000020:


000022: 15,2050                                           BANK     15
000023:
000024: 22,2000                                           SETLOC   KALCMON1
000025: 22,2000                                           BANK
000026:
000027:                                                                                                  #  DETECTING GIMBAL LOCK
000028: 22,2744  22,2744               LOCSKIRT           EQUALS   NOGIMLOC
000029:
000030: 22,2744           77614        NOGIMLOC           SET
000031: 22,2745           01074                                    CALCMAN3
000032: 22,2746           70740        WCALC              LXC,1    DLOAD*
000033: 22,2747           01322                                    RATEINDX                              #  CHOOSE THE DESIRED MANEUVER RATE
000034: 22,2750           04772                                    ARATE,1                               #  FROM A LIST OF FOUR
000035: 22,2751           45002                           SR4      CALL                                  #  COMPUTE THE INCREMENTAL ROTATION MATRIX
000036: 22,2752           44527                                    DELCOMP                               #  DEL CORRESPONDING TO A 1 SEC ROTATION
000037:                                                                                                  #  ABOUT COF
000038: 22,2753           74343                           DLOAD*   VXSC
000039: 22,2754           04772                                    ARATE,1
000040: 22,2755           03270                                    COF
000041: 22,2756           17325                           STODL    BRATE                                 #  COMPONENT MANEUVER RATES 45 DEG/SEC
000042: 22,2757           03335                                    AM
000043: 22,2760           55605                           DMP      DDV*
000044: 22,2761           05002                                    ANGLTIME
000045: 22,2762           04772                                    ARATE,1
000046: 22,2763           77661                           SR
000047: 22,2764           20606                                    5
000048: 22,2765           03333                           STORE    TM                                    #  MANEUVER EXECUTION TIME SCALED AS T2
000049: 22,2766           77614                           SETGO
000050: 22,2767           01035                                    CALCMAN2                              #  0(OFF) = CONTINUE MANEUVER
000051: 22,2770           45010                                    NEWANGL    +1                         #  1(ON) = START MANEUVER
000052:
000053:                                                                                                  #  THE FOUR SELECTABLE FREE FALL MANEUVER RATES SELECTED BY
000054:                                                                                                  #  LOADING RATEINDX WITH 0, 2, 4, 6, RESPECTIVELY
000055:
000056: 22,2771           00221 24255  ARATE              2DEC     .0088888888                            #  = 0.2 DEG/SEC                 $ 22.5 DEG/SEC
000057: 22,2773           00554 02660                     2DEC     .0222222222                            #  = 0.5 DEG/SEC                 $ 22.5 DEG/SEC
000058: 22,2775           02660 13301                     2DEC     .0888888888                            #  = 2.0 DEG/SEC                 $ 22.5 DEG/SEC
000059: 22,2777           16161 30707                     2DEC     .4444444444                            #  = 10.0 DEG/SEC                $ 22.5 DEG/SEC
000060:
000061: 22,3001           00003 04000  ANGLTIME           2DEC     .0001907349                            #  = 100B-19 FUDGE FACTOR TO CONVERT
000062:                                                                                                  #  MANEUVER ANGLE TO MANEUVER TIME
000063:
000064:

End of include-file GIMBAL_LOCK_AVOIDANCE.agc.  Parent file is MAIN.agc


