
Source Code


000002:                                                                                                  ## Copyright:   Public domain.
000003:                                                                                                  ## Filename:    INTERRUPT_LEAD_INS.agc
000004:                                                                                                  ## Purpose:     A section of LM131 revision 1.
000005:                                                                                                  ##              It is part of the reconstructed source code for the final
000006:                                                                                                  ##              release of the flight software for the Lunar Module's (LM)
000007:                                                                                                  ##              Apollo Guidance Computer (AGC) for Apollo 13. The code has
000008:                                                                                                  ##              been reconstructed from a listing of Luminary 131 and a dump
000009:                                                                                                  ##              of a core rope memory module B5, part number 2010802-171,
000010:                                                                                                  ##              which is the only module different between LM131 revision 1
000011:                                                                                                  ##              and Luminary 131. The executable generated from this source
000012:                                                                                                  ##              has been verified against the module dump, so while the names,
000013:                                                                                                  ##              comments, and ordering may not be exactly correct, the
000014:                                                                                                  ##              resulting binary is.
000015:                                                                                                  ## Reference:   pp. 155-156
000016:                                                                                                  ## Assembler:   yaYUL
000017:                                                                                                  ## Contact:     Ron Burkey <info@sandroid.org>.
000018:                                                                                                  ## Website:     www.ibiblio.org/apollo/index.html
000019:                                                                                                  ## Mod history: 2022-10-28 MAS  Created from Luminary 131.
000020:


000022:    4000                                           SETLOC   4000
000023:
000024:    4000                                           COUNT*   $$/RUPTS                              #  FIX-FIX LEAD INS
000025:    4000           00004                           INHINT                                         #  GO
000026:    4001           34054                           CAF      GOBB
000027:    4002           56006                           XCH      BBANK
000028:    4003           12665                           TCF      GOPROG
000029:
000030:    4004           52011                           DXCH     ARUPT                                 #  T6RUPT
000031:    4005           00006                           EXTEND
000032:    4006           34056                           DCA      T6ADR
000033:    4007           52006                           DTCB
000034:
000035:    4010           52011                           DXCH     ARUPT                                 #  T5RUPT - AUTOPILOT
000036:    4011           00006                           EXTEND
000037:    4012           31264                           DCA      T5ADR
000038:    4013           52006                           DTCB
000039:
000040:    4014           52011                           DXCH     ARUPT                                 #  T3RUPT
000041:    4015           34057                           CAF      T3RPTBB
000042:    4016           56006                           XCH      BBANK
000043:    4017           13410                           TCF      T3RUPT
000044:
000045:    4020           52011                           DXCH     ARUPT                                 #  T4RUPT
000046:    4021           34064                           CAF      T4RPTBB
000047:    4022           56006                           XCH      BBANK
000048:    4023           12000                           TCF      T4RUPT
000049:
000050:    4024           52011                           DXCH     ARUPT                                 #  KEYRUPT1
000051:    4025           34060                           CAF      KEYRPTBB
000052:    4026           56006                           XCH      BBANK
000053:    4027           13253                           TCF      KEYRUPT1
000054:
000055:    4030           52011                           DXCH     ARUPT                                 #  KEYRUPT2
000056:    4031           34061                           CAF      MKRUPTBB
000057:    4032           56006                           XCH      BBANK
000058:    4033           12332                           TCF      MARKRUPT
000059:
000060:    4034           52011                           DXCH     ARUPT                                 #  UPRUPT
000061:    4035           34060                           CAF      UPRPTBB
000062:    4036           56006                           XCH      BBANK
000063:    4037           13276                           TCF      UPRUPT
000064:
000065:    4040           52011                           DXCH     ARUPT                                 #  DOWNRUPT
000066:    4041           34062                           CAF      DWNRPTBB
000067:    4042           56006                           XCH      BBANK
000068:    4043           13505                           TCF      DODOWNTM
000069:
000070:    4044           52011                           DXCH     ARUPT                                 #  RADAR RUPT
000071:    4045           34063                           CAF      RDRPTBB


000073:    4046           56006                           XCH      BBANK
000074:    4047           13157                           TCF      RADAREAD
000075:
000076:    4050           52011                           DXCH     ARUPT                                 #  RUPT10 IS USED ONLY BY LANDING GUIDANCE
000077:    4051           34065                           CA       RUPT10BB
000078:    4052           56006                           XCH      BBANK
000079:    4053           12302                           TCF      PITFALL
000080:
000081:    4054  E3,1400                                  EBANK=   LST1                                  #  RESTART USES E0,E3
000082:    4054           12103        GOBB               BBCON    GOPROG
000083:
000084:    4055  E6,1464                                  EBANK=   PERROR
000085:    4055           02117 36106  T6ADR              2CADR    DOT6RUPT
000086:
000087:    4057  E3,1400                                  EBANK=   LST1
000088:    4057           02103        T3RPTBB            BBCON    T3RUPT
000089:
000090:    4060     0073                                  EBANK=   KEYTEMP1
000091:    4060           10100        KEYRPTBB           BBCON    KEYRUPT1
000092:
000093:    4061  E7,1404                                  EBANK=   AOTAZ
000094:    4061           16107        MKRUPTBB           BBCON    MARKRUPT
000095:
000096:    4062     4060               UPRPTBB            =        KEYRPTBB
000097:
000098:    4062     0340                                  EBANK=   DNTMBUFF
000099:    4062           12100        DWNRPTBB           BBCON    DODOWNTM
000100:
000101:    4063  E7,1453                                  EBANK=   TTOGO
000102:    4063           52107        RDRPTBB            BBCON    RADAREAD
000103:
000104:    4064  E6,1414                                  EBANK=   M11
000105:    4064           14106        T4RPTBB            BBCON    T4RUPT
000106:
000107:    4065  E7,1444                                  EBANK=   ELVIRA
000108:    4065           22107        RUPT10BB           BBCON    PITFALL
000109:

End of include-file INTERRUPT_LEAD_INS.agc.  Parent file is MAIN.agc


