
Source Code


000002:                                                                                                  ## Copyright:   Public domain.
000003:                                                                                                  ## Filename:    LUNAR_LANDING_GUIDANCE_EQUATIONS.agc
000004:                                                                                                  ## Purpose:     A section of LM131 revision 1.
000005:                                                                                                  ##              It is part of the reconstructed source code for the final
000006:                                                                                                  ##              release of the flight software for the Lunar Module's (LM)
000007:                                                                                                  ##              Apollo Guidance Computer (AGC) for Apollo 13. The code has
000008:                                                                                                  ##              been reconstructed from a listing of Luminary 131 and a dump
000009:                                                                                                  ##              of a core rope memory module B5, part number 2010802-171,
000010:                                                                                                  ##              which is the only module different between LM131 revision 1
000011:                                                                                                  ##              and Luminary 131. The executable generated from this source
000012:                                                                                                  ##              has been verified against the module dump, so while the names,
000013:                                                                                                  ##              comments, and ordering may not be exactly correct, the
000014:                                                                                                  ##              resulting binary is.
000015:                                                                                                  ## Reference:   pp. 793-822
000016:                                                                                                  ## Assembler:   yaYUL
000017:                                                                                                  ## Contact:     Ron Burkey <info@sandroid.org>.
000018:                                                                                                  ## Website:     www.ibiblio.org/apollo/index.html
000019:                                                                                                  ## Mod history: 2022-10-28 MAS  Created from Luminary 131 and incorporated
000020:                                                                                                  ##                              changes from the LM131 module dump.
000021:


000023: 31,2361  E7,1621                                  EBANK=   E2DPS
000024: 31,2361                                           COUNT*   $$/F2DPS
000025:
000026:                                                                                                  #  ****************************************************************************************************************
000027:                                                                                                  #  LUNAR LANDING FLIGHT SEQUENCE TABLES
000028:                                                                                                  #  ****************************************************************************************************************
000029:
000030:                                                                                                  #  FLIGHT SEQUENCE TABLES ARE ARRANGED BY FUNCTION.   THEY ARE REFERENCED USING AS AN INDEX THE REGISTER WCHPHASE:
000031:                                                                                                  #        WCHPHASE = -1 ---> IGNALG
000032:                                                                                                  #        WCHPHASE =  0 ---> BRAKQUAD
000033:                                                                                                  #        WCHPHASE =  1 ---> APPRQUAD
000034:                                                                                                  #        WCHPHASE =  2 ---> VERTICAL
000035:
000036:                                                                                                  #  ***************************************************************************************************************
000037:
000038:                                                                                                  #  ROUTINES FOR STARTING NEW GUIDANCE PHASES:
000039:
000040: 31,2361           12573                           TCF      TTFINCR                               #  IGNALG
000041: 31,2362           12573        NEWPHASE           TCF      TTFINCR                               #  BRAKQUAD
000042: 31,2363           12556                           TCF      STARTP64                              #  APPRQUAD


000044: 31,2364           12450                           TCF      STARTP66                              #  VERTICAL
000045:
000046:                                                                                                  #  PRE-GUIDANCE COMPUTATIONS:
000047:
000048: 31,2365           12753                           TCF      CALCRGVG                              #  IGNALG
000049: 31,2366           12763        PREGUIDE           TCF      RGVGCALC                              #  BRAKQUAD
000050: 31,2367           12654                           TCF      REDESIG                               #  APPRQUAD
000051: 31,2370           12763                           TCF      RGVGCALC                              #  VERTICAL
000052:
000053:                                                                                                  #  GUIDANCE EQUATIONS:
000054:
000055: 31,2371           13026                           TCF      TTF/8CL                               #  IGNALG
000056: 31,2372           13026        WHATGUID           TCF      TTF/8CL                               #  BRAKQUAD
000057: 31,2373           13026                           TCF      TTF/8CL                               #  APPRQUAD


000059: 31,2374           12375                           TCF      +1                                    #  VERTICAL
000060:
000061:                                                                                                  #  POST GUIDANCE EQUATION COMPUTATIONS:
000062:
000063: 31,2375           13225                           TCF      CGCALC                                #  IGNALG
000064: 31,2376           13212        AFTRGUID           TCF      EXTLOGIC                              #  BRAKQUAD
000065: 31,2377           13212                           TCF      EXTLOGIC                              #  APPRQUAD
000066: 31,2400           13400                           TCF      STEER?                                #  VERTICAL
000067:


000069:                                                                                                  #  WINDOW VECTOR COMPUTATIONS:
000070:
000071: 31,2401           13275                           TCF      EXGSUB                                #  IGNALG
000072: 31,2402           13316        WHATEXIT           TCF      EXBRAK                                #  BRAKQUAD
000073: 31,2403           13324                           TCF      EXNORM                                #  APPRQUAD
000074:
000075:                                                                                                  #  DISPLAY ROUTINES:
000076:
000077: 31,2404           13434        WHATDISP           TCF      P63DISPS                              #  BRAKQUAD
000078: 31,2405           13437                           TCF      P64DISPS                              #  APPRQUAD
000079: 31,2406           13466                           TCF      VERTDISP                              #  VERTICAL
000080:
000081:                                                                                                  #  ALARM ROUTINE FOR TTF COMPUTATION:
000082:
000083: 31,2407           13672                           TCF      1406POO                               #  IGNALG
000084: 31,2410           13674        WHATALM            TCF      1406ALM                               #  BRAKQUAD
000085: 31,2411           13674                           TCF      1406ALM                               #  APPRQUAD
000086:
000087:                                                                                                  #  INDICES FOR REFERENCING TARGET PARAMETERS:
000088:
000089: 31,2412           00000                           OCT      0                                     #  IGNALG
000090: 31,2413           00000        TARGTDEX           OCT      0                                     #  BRAKQUAD
000091: 31,2414           00034                           OCT      34                                    #  APPRQUAD
000092:
000093:                                                                                                  #  ****************************************************************************************************************
000094:                                                                                                  #  ENTRY POINTS:  ?GUIDSUB FOR THE IGNITION ALGORITHM, LUNLAND FOR SERVOUT
000095:                                                                                                  #  ****************************************************************************************************************
000096:
000097:                                                                                                  #  IGNITION ALGORITHM ENTRY:  DELIVERS N PASSES OF QUADRATIC QUIDANCE
000098:
000099: 31,2415           77776        ?GUIDSUB           EXIT
000100: 31,2416           34752                           CAF      TWO                                   #  N = 3
000101: 31,2417           55647                           TS       NGUIDSUB
000102: 31,2420           12531                           TCF      GUILDRET   +2
000103:
000104: 31,2421           55647        GUIDSUB            TS       NGUIDSUB                              #  ON SUCEEDING PASSES SKIP TTFINCR
000105: 31,2422           12753                           TCF      CALCRGVG
000106:
000107:                                                                                                  #  NORMAL ENTRY:  CONTROL COMES HERE FROM SERVOUT
000108:
000109: 31,2423           05353        LUNLAND            TC       PHASCHNG
000110: 31,2424           00035                           OCT      00035                                 #  GROUP 5:  RETAIN ONLY PIPA TASK
000111: 31,2425           30101                           CA       FLAGWRD5                              #  HAS THROTTLE-UP COME YET?
000112: 31,2426           74744                           MASK     ZOOMBIT
000113: 31,2427           00006                           EXTEND
000114: 31,2430           13426                           BZF      DISPEXIT   +3                         #  NO:  DO DISPLAYS ONLY


000116: 31,2431           05353                           TC       PHASCHNG                              #  YES:  DO GUIDANCE
000117: 31,2432           05023                           OCT      05023
000118: 31,2433           20000                           OCT      20000
000119:
000120:                                                                                                  #  ****************************************************************************************************************
000121:                                                                                                  #  GUILDENSTERN:  AUTO-MODES MONITOR (R13)
000122:                                                                                                  #  ****************************************************************************************************************
000123:
000124: 31,2434                                           COUNT*   $$/R13
000125:
000126:                                                                                                  #  THE PHILOSOPHY OF GUILDENSTERN:  ON EVERY APPEARANCE OF THE ATTITUDE-HOLD DISCRETE CHECK TO SEE IF THE ROD SWITCH
000127:                                                                                                  #  HAS BEEN CLICKED.  IF SO, SELECT P66.  IF THE DAP IS IN AUTO AND THE                                     PRESENT
000128:                                                                                                  #  9PROGRAM IN PROGRESS IS P66, CHECK FOR A
000129:                                                                                                  #  RESTART. IF ONE HAS OCCURED RE-INITIALIZE P66 AND CONTINUE OTHERWISE YOUCONTINUE WITH PRESENT DATA IN P66.TO
000130:                                                                                                  #  SELECT P66 THE ATTITUDE-HOLD DISCRETE MUST BE PRESENT AND THE ROD SWITCH MUST HAVE BEEN CLICKED. OTHERWISE THE
000131:                                                                                                  #  AUTOMATIC LANDING WILL CONTINUE.
000132:
000133: 31,2434           41010        GUILDEN            CS       MODREG                                #  ARE WE IN P66?  (EVEN THO WE ARE IN AUTO
000134: 31,2435           62452                           AD       DEC66                                 #  DAP)
000135: 31,2436           00006                           EXTEND
000136: 31,2437           12522                           BZF      RESTART?                              #  YES:  GO SE IF THERE HAS BEEN A RESTART
000137:
000138: 31,2440           34737                           CAF      BIT13                                 #  NO:  IS UN-ATTITUDE-HOLD DISCRETE HERE?
000139: 31,2441           00006                           EXTEND
000140: 31,2442           02031                           RAND     CHAN31
000141: 31,2443           10000                           CCS      A
000142: 31,2444           12527                           TCF      GUILDRET                              #  YES:  ALL'S WELL, OR AT LEAST AUTOMATIC
000143:
000144: 31,2445           31746                           CA       RODCOUNT                              #  NO:  HAS ROD SWITCH BEEN CLICKED
000145: 31,2446           00006                           EXTEND
000146: 31,2447           12527                           BZF      GUILDRET                              #  NO:  CONTINUE WITH THE AUTOMATIC LANDING
000147:
000148: 31,2450           03677        STARTP66           TC       FASTCHNG                              #  YES
000149: 31,2451           05311                           TC       NEWMODEX
000150: 31,2452           00102        DEC66              DEC      66         B-14
000151: 31,2453           00006                           EXTEND
000152: 31,2454           31474                           DCA      HDOTDISP                              #  SET DESIRED ALTITUDE RATE = CURRENT
000153: 31,2455           53645                           DXCH     VDGVERT                               #        ALTITUDE RATE.
000154:


000156: 31,2456           13477                           TCF      STRTP66B
000157:
000158: 31,2457           06042        STRTP66A           TC       INTPRET
000159: 31,2460           41535                           SLOAD    PUSH
000160: 31,2461           01457                                    PBIASZ
000161: 31,2462           41535                           SLOAD    PUSH
000162: 31,2463           01455                                    PBIASY
000163: 31,2464           55535                           SLOAD    VDEF
000164: 31,2465           01453                                    PBIASX
000165: 31,2466           43161                           VXSC     SET
000166: 31,2467           23756                                    BIASFACT
000167: 31,2470           00463                                    RODFLAG
000168: 31,2471           26621                           STOVL    VBIAS
000169: 31,2472           01254                                    TEMX
000170: 31,2473           77676                           VCOMP


000172: 31,2474           27764                           STOVL    OLDPIPAX
000173: 31,2475           06524                                    ZEROVECS
000174: 31,2476           17767                           STODL    DELVROD
000175: 31,2477           02540                                    RODSCALE
000176: 31,2500           17757                           STODL    RODSCAL1
000177: 31,2501           01234                                    PIPTIME
000178: 31,2502           03760                           STORE    LASTTPIP
000179: 31,2503           77776                           EXIT
000180: 31,2504           34755                           CAF      ZERO
000181: 31,2505           55620                           TS       FCOLD
000182: 31,2506           55610                           TS       FWEIGHT
000183: 31,2507           55611                           TS       FWEIGHT    +1
000184: 31,2510           34752                           CAF      TWO                                   #  WCHPHASE = 2 ---> VERTICAL: P65,P66,P67


000186: 31,2511           55621                           TS       WCHPHOLD
000187: 31,2512           55346                           TS       WCHPHASE
000188: 31,2513           04616                           TC       BANKCALL                              #  TEMPORARY, I HOPE HOPE HOPE
000189: 31,2514           40166                           CADR     STOPRATE                              #  TEMPORARY, I HOPE HOPE HOPE
000190: 31,2515           05516                           TC       DOWNFLAG                              #  PERMIT X-AXIS OVERRIDE
000191: 31,2516           00311                           ADRES    XOVINFLG
000192: 31,2517           05516                           TC       DOWNFLAG
000193: 31,2520           00143                           ADRES    REDFLAG


000195: 31,2521           13721                           TCF      P66
000196:
000197: 31,2522           30075        RESTART?           CA       FLAGWRD1                              #  HAS THERE BEEN A RESTART?
000198: 31,2523           74740                           MASK     RODFLBIT
000199: 31,2524           00006                           EXTEND
000200: 31,2525           12457                           BZF      STRTP66A                              #  Y
000201:                                                                                                  #  N
000202:


000204: 31,2526           13721                           TCF      P66
000205:
000206:                                                                                                  #  ****************************************************************************************************************
000207:                                                                                                  #  INITIALIZATION FOR THIS PASS
000208:                                                                                                  #  ****************************************************************************************************************
000209:
000210: 31,2527                                           COUNT*   $$/F2DPS
000211:
000212: 31,2527           34755        GUILDRET           CAF      ZERO
000213: 31,2530           55746                           TS       RODCOUNT
000214:
000215: 31,2531           00006                 +2        EXTEND
000216: 31,2532           31625                           DCA      TPIP
000217: 31,2533           53574                           DXCH     TPIPOLD
000218:
000219: 31,2534           03677                           TC       FASTCHNG
000220:
000221: 31,2535           00006                           EXTEND
000222: 31,2536           31561                           DCA      PIPTIME1
000223: 31,2537           53625                           DXCH     TPIP


000225: 31,2540           00006                           EXTEND
000226: 31,2541           31643                           DCA      TTF/8
000227: 31,2542           53553                           DXCH     TTF/8TMP
000228:
000229: 31,2543           11623                           CCS      FLPASS0
000230: 31,2544           12573                           TCF      TTFINCR
000231:
000232: 31,2545           51346        BRSPOT1            INDEX    WCHPHASE
000233: 31,2546           12362                           TCF      NEWPHASE
000234:
000235:                                                                                                  #  ****************************************************************************************************************
000236:                                                                                                  #  ROUTINES TO START NEW PHASES
000237:                                                                                                  #  ****************************************************************************************************************
000238:
000239: 31,2547           05311        P65START           TC       NEWMODEX
000240: 31,2550           00101                           DEC      65         B-14
000241: 31,2551           34755                           CAF      ZERO
000242: 31,2552           55647                           TS       WCHVERT
000243: 31,2553           05516                           TC       DOWNFLAG                              #  PERMIT X-AXIS OVERRIDE
000244: 31,2554           00311                           ADRES    XOVINFLG
000245: 31,2555           12573                           TCF      TTFINCR
000246:
000247: 31,2556           05311        STARTP64           TC       NEWMODEX
000248: 31,2557           00100                           DEC      64         B-14
000249: 31,2560           31425                           CA       DELTTFAP                              #  AUGMENT TTF/8
000250: 31,2561           27552                           ADS      TTF/8TMP
000251: 31,2562           00004                           INHINT
000252: 31,2563           06022                           TC       C13STALL
000253: 31,2564           34740                           CA       BIT12                                 #  ENABLE RUPT10
000254: 31,2565           00006                           EXTEND
000255: 31,2566           05013                           WOR      CHAN13
000256: 31,2567           33707                           CAF      P64DB
000257: 31,2570           55343                           TS       DB
000258: 31,2571           05516                           TC       DOWNFLAG                              #  INITIALIZE REDESIGNATION FLAG
000259: 31,2572           00143                           ADRES    REDFLAG
000260:
000261:                                                                                                  #                (CONTINUE TO TTFINCR)
000262:
000263:                                                                                                  #  ****************************************************************************************************************
000264:                                                                                                  #  INCREMENT TTF/8, UPDATE LAND FOR LUNAR ROTATION, DO OTHER USEFUL THINGS
000265:                                                                                                  #  ****************************************************************************************************************
000266:
000267:                                                                                                  #        TTFINCR COMPUTATIONS ARE AS FOLLOWS :-
000268:                                                                                                  #                TTF/8 UPDATED FOR TIME SINCE LAST PASS:
000269:                                                                                                  #                        TTF/8 = TTF/8 + (TPIP - TPIPOLD)/8
000270:                                                                                                  #                LANDING SITE VECTOR UPDATED FOR LUNAR ROTATION:


000272:                                                                                                  #                        -                  -      -                      -
000273:                                                                                                  #                        LAND = /LAND/ UNIT(LAND - LAND(TPIP - TPIPOLD) * WM)
000274:                                                                                                  #                SLANT RANGE TO LANDING SITE, FOR DISPLAY:
000275:                                                                                                  #                                         -      -
000276:                                                                                                  #                        RANGEDSP = ABVAL(LAND - R)
000277:
000278: 31,2573           06042        TTFINCR            TC       INTPRET
000279: 31,2574           45345                           DLOAD    DSU
000280: 31,2575           03625                                    TPIP
000281: 31,2576           03574                                    TPIPOLD
000282: 31,2577           41461                           SLR      PUSH                                  #  SHIFT SCALES DELTA TIME TO 2(17) CSECS
000283: 31,2600           21214                                    11D
000284: 31,2601           47361                           VXSC     VXV
000285: 31,2602           03635                                    LAND
000286: 31,2603           02325                                    WM
000287: 31,2604           47045                           BVSU     RTB
000288: 31,2605           03635                                    LAND
000289: 31,2606           21727                                    NORMUNIT
000290: 31,2607           76561                           VXSC     VSL1
000291: 31,2610           02333                                    /LAND/
000292: 31,2611           17545                           STODL    LANDTEMP
000293: 31,2612           77776                           EXIT
000294:
000295: 31,2613           52155                           DXCH     MPAC
000296: 31,2614           21553                           DAS      TTF/8TMP                              #  NOW HAVE INCREMENTED TTF/8 IN TTF/8TMP
000297:
000298: 31,2615           03677                           TC       FASTCHNG
000299:
000300: 31,2616           00006                           EXTEND
000301: 31,2617           31553                           DCA      TTF/8TMP
000302: 31,2620           53643                           DXCH     TTF/8
000303:
000304: 31,2621           03643                           TC       TDISPSET
000305:
000306: 31,2622           37721                           CAF      PRIO31                                #  TEMPORARILY OVER-PRIO CHARIN
000307: 31,2623           05146                           TC       PRIOCHNG
000308:
000309: 31,2624           06042                           TC       INTPRET
000310: 31,2625           53375                           VLOAD    VAD                                   #  ADD IN CORRECTION FROM NOUN 69
000311: 31,2626           03545                                    LANDTEMP
000312: 31,2627           02635                                    DLAND
000313: 31,2630           03635                           STORE    LAND
000314: 31,2631           77646                           ABVAL                                          #  RECOMPUTE /LAND/
000315: 31,2632           02333                           STORE    /LAND/
000316: 31,2633           77776                           EXIT
000317:
000318: 31,2634           03677                           TC       FASTCHNG                              #  SINCE REDESIG MAY CHANGE LANDTEMP


000320: 31,2635           35014                           CAF      EBANK5
000321: 31,2636  E5,1634                                  EBANK=   DLAND
000322: 31,2636           54003                           TS       EBANK
000323: 31,2637           34755                           CAF      ZERO                                  #  ZERO N 69 REGISTERS
000324: 31,2640           55634                           TS       DLAND
000325: 31,2641           55635                           TS       DLAND      +1
000326: 31,2642           55636                           TS       DLAND      +2
000327: 31,2643           55637                           TS       DLAND      +3
000328: 31,2644           55640                           TS       DLAND      +4
000329: 31,2645           55641                           TS       DLAND      +5
000330: 31,2646           35016                           CAF      EBANK7
000331: 31,2647  E7,1666                                  EBANK=   TREDES
000332: 31,2647           54003                           TS       EBANK
000333:
000334: 31,2650           34736                           CAF      PRIO20
000335: 31,2651           05146                           TC       PRIOCHNG
000336:
000337: 31,2652           51346        BRSPOT2            INDEX    WCHPHASE
000338: 31,2653           12366                           TCF      PREGUIDE
000339:
000340:                                                                                                  #  ****************************************************************************************************************
000341:                                                                                                  #  LANDING SITE PERTURBATION EQUATIONS
000342:                                                                                                  #  ****************************************************************************************************************
000343:
000344: 31,2654           30102        REDESIG            CA       FLAGWRD6                              #  IS REDFLAG SET?
000345: 31,2655           74746                           MASK     REDFLBIT
000346: 31,2656           00006                           EXTEND
000347: 31,2657           12763                           BZF      RGVGCALC                              #  NO:  SKIP REDESIGNATION LOGIC
000348:
000349: 31,2660           31666                           CA       TREDES                                #  YES:  HAS TREDES REACHED ZERO?
000350: 31,2661           00006                           EXTEND
000351: 31,2662           12763                           BZF      RGVGCALC                              #  YES:  SKIP REDESIGNATION LOGIC
000352:
000353: 31,2663           00004                           INHINT
000354: 31,2664           31446                           CA       ELINCR1
000355: 31,2665           55554                           TS       ELINCR
000356: 31,2666           31445                           CA       AZINCR1
000357: 31,2667           55556                           TS       AZINCR
000358: 31,2670           03677                           TC       FASTCHNG
000359:
000360: 31,2671           34755                           CA       ZERO
000361: 31,2672           55446                           TS       ELINCR1
000362: 31,2673           55445                           TS       AZINCR1
000363: 31,2674           55555                           TS       ELINCR     +1
000364: 31,2675           55557                           TS       AZINCR     +1
000365:
000366: 31,2676           30120                           CA       FIXLOC                                #  SET PD TO 0
000367: 31,2677           54166                           TS       PUSHLOC
000368:
000369: 31,2700           06042                           TC       INTPRET


000371: 31,2701           52375                           VLOAD    VSU
000372: 31,2702           03635                                    LAND
000373: 31,2703           03521                                    R                                     #                  -      -
000374: 31,2704           41434                           RTB      PUSH                                  #  PUSH DOWN UNIT (LAND - R)
000375: 31,2705           21727                                    NORMUNIT
000376: 31,2706           76435                           VXV      VSL1
000377: 31,2707           02154                                    YNBPIP                                #                     -          -      -
000378: 31,2710           65361                           VXSC     PDDL                                  #  PUSH DOWN - ELINCR(YNB * UNIT(LAND - R))
000379: 31,2711           03555                                    ELINCR
000380: 31,2712           03557                                    AZINCR
000381: 31,2713           52361                           VXSC     VSU
000382: 31,2714           02154                                    YNBPIP
000383: 31,2715           41455                           VAD      PUSH                                  #  RESULTING VECTOR IS 1/2 REAL SIZE
000384:
000385: 31,2716           45345                           DLOAD    DSU                                   #  MAKE SURE REDESIGNATION IS NOT
000386: 31,2717           00001                                    0                                     #        TOO CLOSE TO THE HORIZON
000387: 31,2720           05660                                    DEPRCRIT
000388: 31,2721           71240                           BMN      DLOAD
000389: 31,2722           62725                                    REDES1
000390: 31,2723           05660                                    DEPRCRIT
000391: 31,2724           00001                           STORE    0
000392: 31,2725           45345        REDES1             DLOAD    DSU
000393: 31,2726           03635                                    LAND
000394: 31,2727           03521                                    R
000395: 31,2730           74271                           DDV      VXSC
000396: 31,2731           00001                                    0
000397: 31,2732           53455                           VAD      UNIT
000398: 31,2733           03521                                    R
000399: 31,2734           76561                           VXSC     VSL1
000400: 31,2735           02333                                    /LAND/
000401: 31,2736           03545                           STORE    LANDTEMP
000402: 31,2737           77776                           EXIT                                           #  LOOKANGL WILL BE COMPUTED AT RGVGCALC
000403:
000404: 31,2740           03677                           TC       FASTCHNG
000405:
000406: 31,2741           00006                           EXTEND
000407: 31,2742           31545                           DCA      LANDTEMP
000408: 31,2743           53635                           DXCH     LAND
000409: 31,2744           00006                           EXTEND
000410: 31,2745           31547                           DCA      LANDTEMP   +2
000411: 31,2746           53637                           DXCH     LAND       +2
000412: 31,2747           00006                           EXTEND
000413: 31,2750           31551                           DCA      LANDTEMP   +4
000414: 31,2751           53641                           DXCH     LAND       +4
000415:
000416: 31,2752           12763                           TCF      RGVGCALC
000417:
000418:                                                                                                  #  ****************************************************************************************************************
000419:                                                                                                  #  COMPUTE STATE IN GUIDANCE COORDINATES
000420:                                                                                                  #  ****************************************************************************************************************


000422:
000423:                                                                                                  #        RGVGCALC COMPUTATIONS ARE AS FOLLOWS:-
000424:
000425:                                                                                                  #                VELOCITY RELATIVE TO THE SURFACE:
000426:
000427:                                                                                                  #                        -         -   -   -
000428:                                                                                                  #                        ANGTERM = V + R * WM
000429:
000430:                                                                                                  #                STATE IN GUIDANCE COORDINATES:
000431:
000432:                                                                                                  #                        -     *   -   -
000433:                                                                                                  #                        RGU = CG (R - LAND)
000434:
000435:                                                                                                  #                        -     *   -   -    -
000436:                                                                                                  #                        VGU = CG (V - WM * R)
000437:
000438:                                                                                                  #                DEPRESSION ANGLE FOR DISPLAY:
000439:
000440:                                                                                                  #                                               -   -     -
000441:                                                                                                  #                        LOOKANGL = ARCSIN(UNIT(R - LAND).XMBPIP)
000442:
000443: 31,2753           06042        CALCRGVG           TC       INTPRET                               #  IN IGNALG, COMPUTE V FROM INTEGRATION
000444: 31,2754           64375                           VLOAD    MXV                                   #        OUTPUT AND TRIM CORRECTION TERM
000445: 31,2755           00025                                    VATT1                                 #        COMPUTED LAST PASS AND LEFT IN UNFC/2
000446: 31,2756           01734                                    REFSMMAT
000447: 31,2757           53362                           VSR1     VAD
000448: 31,2760           03253                                    UNFC/2
000449: 31,2761           03527                           STORE    V
000450: 31,2762           77776                           EXIT
000451:
000452: 31,2763           06042        RGVGCALC           TC       INTPRET                               #  ENTER HERE TO RECOMPUTE RG AND VG
000453: 31,2764           47375                           VLOAD    VXV
000454: 31,2765           03521                                    R
000455: 31,2766           02325                                    WM
000456: 31,2767           70455                           VAD      VSR2                                  #  RESCALE TO UNITS OF 2(9) M/CS
000457: 31,2770           03527                                    V
000458: 31,2771           02265                           STORE    ANGTERM
000459: 31,2772           77721                           MXV
000460: 31,2773           02575                                    CG                                    #  NO SHIFT SINCE ANGTERM IS DOUBLE SIZED
000461: 31,2774           27627                           STOVL    VGU
000462: 31,2775           03521                                    R                                     #            -   -
000463: 31,2776           41451                           VSU      PUSH                                  #  PUSH DOWN R - LAND
000464: 31,2777           03635                                    LAND
000465: 31,3000           76521                           MXV      VSL1
000466: 31,3001           02575                                    CG
000467: 31,3002           02627                           STORE    RGU
000468: 31,3003           77646                           ABVAL
000469: 31,3004           26617                           STOVL    RANGEDSP
000470: 31,3005           50234                           RTB      DOT                                   #  NOW IN MPAC IS SINE(LOOKANGL)/4
000471: 31,3006           21727                                    NORMUNIT
000472: 31,3007           02146                                    XNBPIP


000474: 31,3010           77776                           EXIT
000475:
000476: 31,3011           30120                           CA       FIXLOC                                #  RESET PUSH DOWN POINTER
000477: 31,3012           54166                           TS       PUSHLOC
000478:
000479: 31,3013           30154                           CA       MPAC                                  #  COMPUTE LOOKANGL ITSELF
000480: 31,3014           60000                           DOUBLE
000481: 31,3015           04616                           TC       BANKCALL
000482: 31,3016           61663                           CADR     SPARCSIN   -1
000483: 31,3017           63713                           AD       1/2DEG
000484: 31,3020           61356                           AD       ELBIAS                                #  BIAS LPD ANGLE FOR WINDOW BENDING
000485: 31,3021           00006                           EXTEND
000486: 31,3022           73712                           MP       180DEGS
000487: 31,3023           55667                           TS       LOOKANGL                              #  LOOKANGL FOR DISPLAY DURING P64
000488:
000489: 31,3024           51346        BRSPOT3            INDEX    WCHPHASE
000490: 31,3025           12372                           TCF      WHATGUID
000491:
000492:                                                                                                  #  ****************************************************************************************************************
000493:                                                                                                  #  TTF/8 COMPUTATION
000494:                                                                                                  #  ****************************************************************************************************************
000495:
000496: 31,3026           03636        TTF/8CL            TC       INTPRETX
000497: 31,3027           77743                           DLOAD*
000498: 31,3030           02431                                    JDG2TTF,1
000499: 31,3031           23571                           STODL*   TABLTTF    +6                         #  A(3) = 8 JDG  TO TABLTTF
000500: 31,3032           02427                                    ADG2TTF,1                             #              2
000501: 31,3033           17567                           STODL    TABLTTF    +4                         #  A(2) = 6 ADG  TO TABLTTF
000502: 31,3034           03633                                    VGU        +4                         #              2
000503: 31,3035           42605                           DMP      DAD*
000504: 31,3036           05656                                    3/4DP
000505: 31,3037           02425                                    VDG2TTF,1
000506: 31,3040           23565                           STODL*   TABLTTF    +2                         #  A(1) = (6 VGU  + 18 VDG )/8 TO TABLTTF
000507: 31,3041           02407                                    RDG        +4,1                       #               2         2
000508: 31,3042           41225                           DSU      DMP
000509: 31,3043           02633                                    RGU        +4
000510: 31,3044           05654                                    3/8DP
000511: 31,3045           03563                           STORE    TABLTTF                               #  A(0) = -24 (RGU  - RDG )/64 TO TABLTTF
000512: 31,3046           77776                           EXIT                                           #                 2      2
000513:
000514: 31,3047           34744                           CA       BIT8
000515: 31,3050           55572                           TS       TABLTTF    +10                        #  FRACTIONAL PRECISION FOR TTF TO TABLE
000516:
000517: 31,3051           00006                           EXTEND
000518: 31,3052           31643                           DCA      TTF/8
000519: 31,3053           52155                           DXCH     MPAC                                  #  LOADS TTF/8 (INITIAL GUESS) INTO MPAC
000520: 31,3054           34752                           CAF      TWO                                   #  DEGREE - ONE
000521: 31,3055           54001                           TS       L
000522: 31,3056           33705                           CAF      TABLTTFL
000523: 31,3057           03512                           TC       ROOTPSRS                              #  YIELDS TTF/8 IN MPAC


000525: 31,3060           51346                           INDEX    WCHPHASE
000526: 31,3061           12410                           TCF      WHATALM
000527:
000528: 31,3062           00006                           EXTEND                                         #  GOOD RETURN
000529: 31,3063           30155                           DCA      MPAC                                  #  FETCH TTF/8 KEEPING IT IN MPAC
000530: 31,3064           53643                           DXCH     TTF/8                                 #  CORRECTED TTF/8
000531:
000532: 31,3065           03643                           TC       TDISPSET
000533:
000534:                                                                                                  #                (CONTINUE TO QUADGUID)
000535:
000536:                                                                                                  #  ****************************************************************************************************************
000537:                                                                                                  #  MAIN GUIDANCE EQUATION
000538:                                                                                                  #  ****************************************************************************************************************
000539:
000540:                                                                                                  #        AS PUBLISHED:-
000541:                                                                                                  #                              -     -        -     -
000542:                                                                                                  #                -     -     6(VDG + VG)   12(RDG - RG)
000543:                                                                                                  #                ACG = ADG + ----------- + ------------
000544:                                                                                                  #                                TTF        (TTF)(TTF)
000545:                                                                                                  #        AS HERE PROGRAMMED:-
000546:                                                                                                  #                             -     -
000547:                                                                                                  #                      3 (1/4(RDG - RG)   -     - )
000548:                                                                                                  #                      - (------------- + VDG + VG)
000549:                                                                                                  #                -     4 (    TTF/8               )   -
000550:                                                                                                  #                ACG = ---------------------------- + ADG
000551:                                                                                                  #                                  TTF/8
000552:
000553: 31,3066           41642        QUADGUID           CS       TTF/8
000554: 31,3067           61426                           AD       LEADTIME                              #  LEADTIME IS A NEGATIVE NUMBER
000555: 31,3070           64733                           AD       POSMAX                                #  SAFEGUARD THE COMPUTATIONS THAT FOLLOW
000556: 31,3071           54001                           TS       L                                     #        BY FORCING -TTF+LEADTIME > OR = ZERO
000557: 31,3072           40001                           CS       L
000558: 31,3073           60001                           AD       L
000559: 31,3074           22007                           ZL
000560: 31,3075           00006                           EXTEND
000561: 31,3076           11642                           DV       TTF/8
000562: 31,3077           54130                           TS       BUF                                   #  - RATIO OF LAG-DIMINISHED TTF TO TTF
000563: 31,3100           00006                           EXTEND
000564: 31,3101           70000                           SQUARE
000565: 31,3102           54131                           TS       BUF        +1
000566: 31,3103           60130                           AD       BUF
000567: 31,3104           56131                           XCH      BUF        +1                         #  RATIO SQUARED - RATIO
000568: 31,3105           60131                           AD       BUF        +1
000569: 31,3106           54154                           TS       MPAC                                  #  COEFFICIENT FOR VGU TERM
000570: 31,3107           60131                           AD       BUF        +1


000572: 31,3110           50120                           INDEX    FIXLOC
000573: 31,3111           54032                           TS       26D                                   #  COEFFICIENT FOR RDG-RGU TERM
000574: 31,3112           60131                           AD       BUF        +1
000575: 31,3113           50120                           INDEX    FIXLOC
000576: 31,3114           54034                           TS       28D                                   #  COEFFICIENT FOR VDG TERM
000577: 31,3115           60130                           AD       BUF
000578: 31,3116           64733                           AD       POSMAX
000579: 31,3117           60131                           AD       BUF        +1
000580: 31,3120           60131                           AD       BUF        +1
000581: 31,3121           50120                           INDEX    FIXLOC
000582: 31,3122           54036                           TS       30D                                   #  COEFFICIENT FOR ADG TERM
000583:
000584: 31,3123           34755                           CAF      ZERO
000585: 31,3124           54163                           TS       MODE
000586:
000587: 31,3125           03636                           TC       INTPRETX
000588: 31,3126           65361                           VXSC     PDDL
000589: 31,3127           03627                                    VGU
000590: 31,3130           00035                                    28D
000591: 31,3131           62757                           VXSC*    PDVL*
000592: 31,3132           02411                                    VDG,1
000593: 31,3133           02403                                    RDG,1
000594: 31,3134           70251                           VSU      V/SC
000595: 31,3135           02627                                    RGU
000596: 31,3136           03643                                    TTF/8
000597: 31,3137           74342                           VSR2     VXSC
000598: 31,3140           00033                                    26D
000599: 31,3141           53255                           VAD      VAD
000600: 31,3142           74341                           V/SC     VXSC
000601: 31,3143           03643                                    TTF/8
000602: 31,3144           05656                                    3/4DP
000603: 31,3145           73725                           PDDL     VXSC*
000604: 31,3146           00037                                    30D
000605: 31,3147           02417                                    ADG,1
000606: 31,3150           77655                           VAD
000607: 31,3151           76505        AFCCALC1           VXM      VSL1                                  #  VERTGUID COMES HERE
000608: 31,3152           02575                                    CG
000609: 31,3153           70315                           PDVL     V/SC
000610: 31,3154           01236                                    GDT/2
000611: 31,3155           05652                                    GSCALE
000612: 31,3156           45445                           BVSU     STADR
000613: 31,3157           74524                           STORE    UNFC/2                                #  UNFC/2 NEED NOT BE UNITIZED
000614: 31,3160           77646                           ABVAL
000615: 31,3161           17464        AFCCALC2           STODL    /AFC/                                 #  MAGNITUDE OF AFC FOR THROTTLE
000616: 31,3162           03253                                    UNFC/2                                #  VERTICAL COMPONENT
000617: 31,3163           65316                           DSQ      PDDL
000618: 31,3164           03255                                    UNFC/2     +2                         #  OUT-OF-PLANE
000619: 31,3165           65316                           DSQ      PDDL
000620: 31,3166           05650                                    HIGHESTF
000621: 31,3167           63471                           DDV      DSQ


000623: 31,3170           01244                                    MASS                                  #                         2    2     2
000624: 31,3171           45225                           DSU      DSU                                   #  AMAXHORIZ = SQRT(ATOTAL - A   - A  )
000625: 31,3172           71244                           BPL      DLOAD                                 #                             1     0
000626: 31,3173           63175                                    AFCCALC3
000627: 31,3174           06524                                    ZEROVECS
000628: 31,3175           43366        AFCCALC3           SQRT     DAD
000629: 31,3176           03257                                    UNFC/2     +4
000630: 31,3177           44244                           BPL      BDSU
000631: 31,3200           63203                                    AFCCLEND
000632: 31,3201           03257                                    UNFC/2     +4
000633: 31,3202           03257                           STORE    UNFC/2     +4
000634: 31,3203           77776        AFCCLEND           EXIT
000635: 31,3204           03677                           TC       FASTCHNG
000636:
000637: 31,3205           31346                           CA       WCHPHASE                              #  PREPARE FOR PHASE SWITCHING LOGIC
000638: 31,3206           55621                           TS       WCHPHOLD
000639: 31,3207           25623                           INCR     FLPASS0                               #  INCREMENT PASS COUNTER
000640:
000641: 31,3210           51346        BRSPOT4            INDEX    WCHPHASE
000642: 31,3211           12376                           TCF      AFTRGUID
000643:
000644:                                                                                                  #  ****************************************************************************************************************
000645:                                                                                                  #  NEW PHASE NOW?
000646:                                                                                                  #  ****************************************************************************************************************
000647:
000648: 31,3212           51346        EXTLOGIC           INDEX    WCHPHASE                              #  IS TTF NEARER ZERO THAN CRITERION?
000649: 31,3213           31423                           CA       TENDBRAK
000650: 31,3214           61642                           AD       TTF/8
000651: 31,3215           00006                           EXTEND
000652: 31,3216           63225                           BZMF     CGCALC                                #  NO
000653:
000654: 31,3217           03677                           TC       FASTCHNG                              #  YES:  INCREMENT WCHPHASE, ZERO FLPASS0
000655:
000656: 31,3220           31621                           CA       WCHPHOLD
000657: 31,3221           64753                           AD       ONE
000658: 31,3222           55346                           TS       WCHPHASE
000659: 31,3223           34755                           CAF      ZERO
000660: 31,3224           55623                           TS       FLPASS0
000661:
000662:                                                                                                  #                (CONTINUE TO CGCALC)
000663:
000664:                                                                                                  #  ***************************************************************************************************************
000665:                                                                                                  #  ERECT GUIDANCE-STABLE MEMBER TRANSFORMATION MATRIX
000666:                                                                                                  #  ***************************************************************************************************************
000667:
000668: 31,3225           35014        CGCALC             CAF      EBANK5
000669: 31,3226           54003                           TS       EBANK
000670: 31,3227  E5,1435                                  EBANK=   TCGIBRAK
000671: 31,3227           00006                           EXTEND
000672: 31,3230           51346                           INDEX    WCHPHASE


000674: 31,3231           52413                           INDEX    TARGTDEX
000675: 31,3232           31435                           DCA      TCGFBRAK
000676: 31,3233           24006                           INCR     BBANK
000677: 31,3234           24006                           INCR     BBANK
000678: 31,3235  E7,1642                                  EBANK=   TTF/8
000679: 31,3235           61642                           AD       TTF/8
000680: 31,3236           56001                           XCH      L
000681: 31,3237           61642                           AD       TTF/8
000682: 31,3240           10000                           CCS      A
000683: 31,3241           10001                           CCS      L
000684: 31,3242           13273                           TCF      EXITSPOT
000685: 31,3243           13273                           TCF      EXITSPOT
000686: 31,3244           13245                           NOOP
000687:
000688: 31,3245           03636                           TC       INTPRETX
000689: 31,3246           53575                           VLOAD    UNIT
000690: 31,3247           03635                                    LAND
000691: 31,3250           16575                           STODL    CG
000692: 31,3251           03643                                    TTF/8
000693: 31,3252           74203                           DMP*     VXSC
000694: 31,3253           02433                                    GAINBRAK,1                            #  NUMERO MYSTERIOSO
000695: 31,3254           02265                                    ANGTERM
000696: 31,3255           77655                           VAD
000697: 31,3256           03635                                    LAND
000698: 31,3257           47051                           VSU      RTB
000699: 31,3260           03521                                    R
000700: 31,3261           21727                                    NORMUNIT
000701: 31,3262           47035                           VXV      RTB
000702: 31,3263           03635                                    LAND
000703: 31,3264           21727                                    NORMUNIT
000704: 31,3265           26603                           STOVL    CG         +6                         #  SECOND ROW
000705: 31,3266           02575                                    CG
000706: 31,3267           76435                           VXV      VSL1
000707: 31,3270           02603                                    CG         +6
000708: 31,3271           02611                           STORE    CG         +14
000709: 31,3272           77776                           EXIT
000710:
000711: 31,3273           51621        EXITSPOT           INDEX    WCHPHOLD
000712: 31,3274           12402                           TCF      WHATEXIT
000713:
000714:                                                                                                  #  ****************************************************************************************************************
000715:                                                                                                  #  ROUTINES FOR EXITING FROM LANDING GUIDANCE
000716:                                                                                                  #  ****************************************************************************************************************
000717:
000718:                                                                                                  #  1.    EXGSUB IS THE RETURN WHEN GUIDSUB IS CALLED BY THE IGNITION ALGORITHM.
000719:                                                                                                  #  2.    EXBRAK IN THE EXIT USED DURING THE BRAKING PHASE.  IN THIS CASE UNIT(R) IS THE WINDOW POINTING VECTOR.
000720:                                                                                                  #  3.    EXNORM IS THE EXIT USED AT OTHER TIMES DURING THE BURN.


000722:                                                                                                  #  (EXOVFLOW IS A SUBROUTINE OF EXBRAK AND EXNORM CALLED WHEN OVERFLOW OCCURRED ANYWHERE IN GUIDANCE.)
000723:
000724: 31,3275           06042        EXGSUB             TC       INTPRET                               #  COMPUTE TRIM VELOCITY CORRECTION TERM
000725: 31,3276           47175                           VLOAD    RTB
000726: 31,3277           03253                                    UNFC/2
000727: 31,3300           21727                                    NORMUNIT
000728: 31,3301           74361                           VXSC     VXSC
000729: 31,3302           03423                                    ZOOMTIME
000730: 31,3303           22001                                    TRIMACCL
000731: 31,3304           03253                           STORE    UNFC/2
000732: 31,3305           77776                           EXIT
000733:
000734: 31,3306           11647                           CCS      NGUIDSUB
000735: 31,3307           12421                           TCF      GUIDSUB
000736: 31,3310           11646                           CCS      NIGNLOOP
000737: 31,3311           13314                           TCF      +3
000738: 31,3312           05567                           TC       ALARM
000739: 31,3313           01412                           OCT      01412
000740:
000741: 31,3314           04635                 +3        TC       POSTJUMP
000742: 31,3315           65104                           CADR     DDUMCALC
000743:
000744: 31,3316           06042        EXBRAK             TC       INTPRET
000745: 31,3317           77775                           VLOAD
000746: 31,3320           03537                                    UNIT/R/
000747: 31,3321           03261                           STORE    UNWC/2
000748: 31,3322           77776                           EXIT
000749: 31,3323           13400                           TCF      STEER?
000750:
000751: 31,3324           06042        EXNORM             TC       INTPRET
000752: 31,3325           52375                           VLOAD    VSU
000753: 31,3326           03635                                    LAND
000754: 31,3327           03521                                    R
000755: 31,3330           77634                           RTB
000756: 31,3331           21727                                    NORMUNIT
000757: 31,3332           03261                           STORE    UNWC/2                                #  UNIT(LAND - R) IS TENTATIVE CHOICE
000758: 31,3333           50235                           VXV      DOT
000759: 31,3334           02146                                    XNBPIP
000760: 31,3335           02603                                    CG         +6
000761: 31,3336           77776                           EXIT                                           #  WITH PROJ IN MPAC 1/8 REAL SIZE
000762:
000763: 31,3337           40154                           CS       MPAC                                  #  GET COEFFICIENT FOR CG +14
000764: 31,3340           63714                           AD       PROJMAX
000765: 31,3341           64733                           AD       POSMAX
000766: 31,3342           54130                           TS       BUF
000767: 31,3343           40130                           CS       BUF
000768: 31,3344           26130                           ADS      BUF                                   #  RESULT IS 0 IF PROJMAX - PROJ NEGATIVE
000769:
000770: 31,3345           43715                           CS       PROJMIN                               #  GET COEFFICIENT FOR UNIT(LAND - R)
000771: 31,3346           60154                           AD       MPAC


000773: 31,3347           64733                           AD       POSMAX
000774: 31,3350           54131                           TS       BUF        +1
000775: 31,3351           40131                           CS       BUF        +1
000776: 31,3352           26131                           ADS      BUF        +1                         #  RESULT IS 0 IF PROJ - PROJMIN NEGATIVE
000777:
000778: 31,3353           34751                           CAF      FOUR
000779: 31,3354           76245        UNWCLOOP           MASK     SIX
000780: 31,3355           54002                           TS       Q
000781: 31,3356           35014                           CA       EBANK5
000782: 31,3357           54003                           TS       EBANK
000783: 31,3360  E5,1574                                  EBANK=   CG
000784: 31,3360           30130                           CA       BUF
000785: 31,3361           00006                           EXTEND
000786: 31,3362           50002                           INDEX    Q
000787: 31,3363           71610                           MP       CG         +14
000788: 31,3364           24006                           INCR     BBANK
000789: 31,3365  E6,1660                                  EBANK=   UNWC/2
000790: 31,3365           50002                           INDEX    Q
000791: 31,3366           53661                           DXCH     UNWC/2
000792: 31,3367           00006                           EXTEND
000793: 31,3370           70131                           MP       BUF        +1
000794: 31,3371           50002                           INDEX    Q
000795: 31,3372           21661                           DAS      UNWC/2
000796: 31,3373           10002                           CCS      Q
000797: 31,3374           13354                           TCF      UNWCLOOP
000798:
000799: 31,3375           31773                           CA       AZBIAS                                #  SET OUTER GIMBAL
000800: 31,3376           55677                           TS       OGABIAS                               #        ANGLE BIAS FOR WINDOW BENDING
000801:
000802: 31,3377           24006                           INCR     BBANK
000803: 31,3400  E7,1612                                  EBANK=   PIF
000804:


000806: 31,3400           30121        STEER?             CA       OVFIND                                #  OVERFLOW?
000807: 31,3401           00006                           EXTEND
000808: 31,3402           13405                           BZF      STEERSW?                              #  N: CHECK STEERSW
000809:
000810: 31,3403           03757                           TC       OVFDESC                               #  Y: REMEDIAL ACTION AND
000811: 31,3404           13423                           TCF      DISPEXIT                              #     SKIP ISSUANCE OF CMDS. NO STEERSW CHK
000812:
000813: 31,3405           40076        STEERSW?           CS       FLAGWRD2                              #  IS STEERSW UP?
000814: 31,3406           74741                           MASK     STEERBIT
000815:
000816: 31,3407           00006                           EXTEND
000817: 31,3410           13416                           BZF      THRTCALL                              #  Y: ISSUE GUIDANCE CMDS
000818:
000819: 31,3411           00004        RATESTOP           INHINT                                         #  N: REMEDIAL ACTION
000820: 31,3412           04674                           TC       IBNKCALL                              #     AND
000821: 31,3413           40166                           FCADR    STOPRATE                              #     SKIP ISSUANCE OF CMDS
000822: 31,3414           00003                           RELINT
000823: 31,3415           13423                           TCF      DISPEXIT
000824:
000825: 31,3416  31,3416               GDUMP1             =        THRTCALL
000826: 31,3416           02144        THRTCALL           TC       THROTTLE
000827: 31,3417           06042                           TC       INTPRET
000828: 31,3420           77624                           CALL
000829: 31,3421           61100                                    FINDCDUW   -2
000830: 31,3422           77776                           EXIT
000831:
000832:                                                                                                  #                (CONTINUE TO DISPEXIT)
000833:
000834:                                                                                                  #  ****************************************************************************************************************
000835:                                                                                                  #  GUIDANCE LOOP DISPLAYS
000836:                                                                                                  #  ****************************************************************************************************************
000837:
000838: 31,3423           00006        DISPEXIT           EXTEND                                         #  KILL GROUP 3:  DISPLAYS WILL BE
000839: 31,3424           34755                           DCA      NEG0                                  #        RESTORED BY NEXT GUIDANCE CYCLE
000840: 31,3425           52756                           DXCH     -PHASE3
000841:
000842: 31,3426  31,3426               ENDLLJOB           =        DISPEXIT   +3
000843:
000844: 31,3426  31,3426               DISPEX66           =        DISPEXIT   +3
000845: 31,3426           40104                 +3        CS       FLAGWRD8                              #  IF FLUNDISP IS SET, NO DISPLAY THIS PASS
000846: 31,3427           74742                           MASK     FLUNDBIT
000847: 31,3430           00006                           EXTEND
000848: 31,3431           15155                           BZF      ENDOFJOB
000849:
000850: 31,3432           51621                           INDEX    WCHPHOLD
000851: 31,3433           12404                           TCF      WHATDISP
000852:
000853: 31,3434           33716        P63DISPS           CAF      V06N63
000854: 31,3435           04616        DISPCOMN           TC       BANKCALL
000855: 31,3436           20466                           CADR     REGODSP
000856:
000857: 31,3437           31666        P64DISPS           CA       TREDES                                #  HAS TREDES REACHED ZERO?
000858: 31,3440           00006                           EXTEND
000859: 31,3441           13462                           BZF      RED-OVER                              #  YES: CLEAR REDESIGNATION FLAG
000860:
000861: 31,3442           40102                           CS       FLAGWRD6                              #  NO:  IS REDFLAG SET?
000862: 31,3443           74746                           MASK     REDFLBIT
000863: 31,3444           00006                           EXTEND
000864: 31,3445           13464                           BZF      REDES-OK                              #  YES:  DO STATIC DISPLAY
000865:
000866: 31,3446           33717                           CAF      V06N64                                #  OTHERWISE USE FLASHING DISPLAY
000867: 31,3447           04616                           TC       BANKCALL
000868: 31,3450           20460                           CADR     REFLASH
000869: 31,3451           16001                           TCF      GOTOPOOH                              #  TERMINATE


000871: 31,3452           13454                           TCF      P64CEED                               #  PROCEED       PERMIT REDESIGNATIONS
000872: 31,3453           13437                           TCF      P64DISPS                              #  RECYCLE
000873:
000874: 31,3454           34755        P64CEED            CAF      ZERO
000875: 31,3455           55446                           TS       ELINCR1
000876: 31,3456           55445                           TS       AZINCR1
000877:
000878: 31,3457           05504                           TC       UPFLAG                                #  ENABLE REDESIGNATION LOGIC
000879: 31,3460           00143                           ADRES    REDFLAG
000880:
000881: 31,3461           15155                           TCF      ENDOFJOB
000882:
000883: 31,3462           05516        RED-OVER           TC       DOWNFLAG
000884: 31,3463           00143                           ADRES    REDFLAG
000885: 31,3464           33717        REDES-OK           CAF      V06N64
000886: 31,3465           13435                           TCF      DISPCOMN
000887:
000888: 31,3466           33720        VERTDISP           CAF      V06N60
000889: 31,3467           04616                           TC       BANKCALL
000890: 31,3470           20460                           CADR     REFLASH
000891: 31,3471           16001                           TCF      GOTOPOOH                              #  TERMINATE
000892: 31,3472           13474                           TCF      STOPFIRE                              #  PROCEED
000893: 31,3473           13474                           TCF      STOPFIRE                              #  V32E
000894:


000896: 31,3474           34733        STOPFIRE           CAF      POSMAX
000897: 31,3475           55647                           TS       WCHVERT
000898: 31,3476           15155                           TCF      ENDOFJOB
000899:


000901: 31,3477           44755        STRTP66B           CS       ZERO
000902: 31,3500           55647                           TS       WCHVERT
000903:
000904: 31,3501           03743                           TC       RSTCTHRT
000905:
000906: 31,3502           06042                           TC       INTPRET
000907: 31,3503           47375                           VLOAD    VXV                                   #  COMPUTE HORIZONTAL VELOCITY COMMAND
000908: 31,3504           02325                                    WM                                    #  MOON'S ANGULAR RATE IN 2(-17)RAD/CS
000909: 31,3505           03521                                    R                                     #  LM POSITION IN 2(24)M
000910: 31,3506           03434                           STORE    VHZC
000911: 31,3507           77776                           EXIT
000912: 31,3510           12457                           TCF      STRTP66A
000913:


000922: 31,3511           00001                           DEC      1          B-14
000923:


000925:
000926:                                                                                                  #  ***************************************************************************************************************
000927:                                                                                                  #  P66 VERTICAL CHANNEL
000928:                                                                                                  #  ***************************************************************************************************************
000929:
000930: 32,2000                                           SETLOC   P66LOC
000931: 32,2000                                           BANK
000932: 32,3265                                           COUNT*   $$/F2DPS
000933:
000934: 32,3265           37713        RODTASK            CAF      PRIO22                                #  BUMPS ALL OF SERVICER JOB EXCEPT RODCOMP
000935: 32,3266           05105                           TC       FINDVAC
000936: 32,3267  E7,1515                                  EBANK=   DVCNTR
000937: 32,3267           03275 64067                     2CADR    RODCOMP
000938:
000939: 32,3271           15261                           TCF      TASKOVER
000940:


000942: 32,3272           34777        P66VERT            CA       1SEC
000943: 32,3273           05173                           TC       TWIDDLE
000944: 32,3274           03265                           ADRES    RODTASK
000945:
000946: 32,3275           37714        RODCOMP            CA       PRIO23                                #  LET ONLY ONE JOB THRU RODCOMP AT A TIME
000947: 32,3276           05146                           TC       PRIOCHNG
000948:
000949: 32,3277           00004                           INHINT
000950:
000951: 32,3300           34755                           CAF      ZERO
000952: 32,3301           57746                           XCH      RODCOUNT
000953: 32,3302           00006                           EXTEND
000954: 32,3303           71756                           MP       RODSCAL1
000955: 32,3304           21645                           DAS      VDGVERT                               #  UPDATE DESIRED ALTITUDE RATE.
000956:
000957: 32,3305           34747                           CAF      BIT5                                  #  ARE WE IN AUTO THROTTLE?
000958: 32,3306           00006                           EXTEND
000959: 32,3307           02030                           RAND     CHAN30
000960: 32,3310           00006                           EXTEND
000961: 32,3311           13315                           BZF      RODCOMPA                              #  Y: CONTINUE ROD
000962:
000963: 32,3312           00006                           EXTEND                                         #  N: RESET VDGVERT TO CURRENT HDOT
000964: 32,3313           31474                           DCA      HDOTDISP
000965: 32,3314           53645                           DXCH     VDGVERT
000966:
000967:                                                                                                  #  READ THE PIPAS FOR P66
000968:
000969: 32,3315           00006        RODCOMPA           EXTEND
000970: 32,3316           30040                           DCA      PIPAX
000971: 32,3317           53764                           DXCH     OLDPIPAX                              #  CURRENT PIPA READINGS INTO OLDPIPAX,Y,Z
000972: 32,3320           52071                           DXCH     RUPTREG1                              #  SAVE PRIOR READINGS IN RUPTREG1,2,3
000973: 32,3321           30041                           CA       PIPAZ
000974: 32,3322           57765                           XCH      OLDPIPAZ
000975: 32,3323           56072                           XCH      RUPTREG3
000976:
000977: 32,3324           00006                           EXTEND                                         #  SHAPSHOT TIME OF PIPA READING.
000978: 32,3325           30025                           DCA      TIME2
000979: 32,3326           53762                           DXCH     THISTPIP


000981: 32,3327           31763                           CA       OLDPIPAX
000982: 32,3330           61157                           AD       PIPATMPX
000983: 32,3331           54154                           TS       MPAC                                  #  MPAC(X) = PIPAX + PIPATMPX
000984: 32,3332           31764                           CA       OLDPIPAY
000985: 32,3333           61160                           AD       PIPATMPY
000986: 32,3334           54157                           TS       MPAC       +3                         #  MPAC(Y) = PIPAY + PIPATMPY
000987: 32,3335           31765                           CA       OLDPIPAZ
000988: 32,3336           61161                           AD       PIPATMPZ
000989: 32,3337           54161                           TS       MPAC       +5                         #  MPAC(Z) = PIPAZ + PIPATMPZ
000990:
000991:                                                                                                  #  COMPUTE DELV SINCE THE LAST P66 PASS
000992:
000993: 32,3340           41763                           CS       OLDPIPAX                              #  - CURRENT P66 PIPA
000994: 32,3341           61253                           AD       TEMX                                  #  - PIPA BY PIPASR IF INTERVENING, ELSE 0
000995: 32,3342           60070                           AD       RUPTREG1                              #  + PIPA BY P66 ON THE LAST P66 PASS
000996: 32,3343           55766                           TS       DELVROD                               #  = -DELV SINCE LAST P66 PASS, 2(14)CM/SEC
000997: 32,3344           41764                           CS       OLDPIPAY
000998: 32,3345           61254                           AD       TEMY
000999: 32,3346           60071                           AD       RUPTREG2
001000: 32,3347           55770                           TS       DELVROD    +2
001001: 32,3350           41765                           CS       OLDPIPAZ
001002: 32,3351           61255                           AD       TEMZ
001003: 32,3352           60072                           AD       RUPTREG3
001004: 32,3353           55772                           TS       DELVROD    +4
001005:
001006: 32,3354           34755                           CAF      ZERO
001007: 32,3355           54155                           TS       MPAC       +1                         #  ZERO LO-ORDER MPAC COMPONENTS
001008: 32,3356           54160                           TS       MPAC       +4
001009: 32,3357           54162                           TS       MPAC       +6
001010: 32,3360           55253                           TS       TEMX                                  #  ZERO TEMX, TEMY, AND TEMZ SO WE WILL
001011: 32,3361           55254                           TS       TEMY                                  #        KNOW WHEN READACCS CHANGES THEM.
001012: 32,3362           55255                           TS       TEMZ
001013: 32,3363           44753                           CS       ONE
001014: 32,3364           54163                           TS       MODE
001015: 32,3365           06042                           TC       INTPRET
001016: 32,3366           65361        ITRPNT1            VXSC     PDDL                                  #  SCALE MPAC TO M/CS *2(-7) AND PUSH    (6)
001017: 32,3367           26022                                    KPIP1
001018: 32,3370           03762                                    THISTPIP
001019: 32,3371           77625                           DSU
001020: 32,3372           01234                                    PIPTIME
001021: 32,3373           00037                           STORE    30D                                   #  30-31D CONTAINS TIME IN CS SINCE PIPTIME
001022: 32,3374           63271                           DDV      PDVL                                  #                                        (8)
001023: 32,3375           27110                                    4SEC(28)
001024: 32,3376           01236                                    GDT/2
001025: 32,3377           74251                           VSU      VXSC                                  #                                        (6)
001026: 32,3400           02621                                    VBIAS
001027: 32,3401           53352                           VSL2     VAD
001028: 32,3402           03527                                    V
001029: 32,3403           45455                           VAD      STADR                                 #                                        (0)
001030: 32,3404           53746                           STOVL    24D                                   #  STORE UPDATED VELOCITY IN 24-29D
001031: 32,3405           03521                                    R
001032: 32,3406           77656                           UNIT


001034: 32,3407           00017                           STORE    14D
001035: 32,3410           72441                           DOT      SL1
001036: 32,3411           00031                                    24D
001037: 32,3412           17474                           STODL    HDOTDISP                              #  UPDATE ALTITUDE RATE FOR NOUN 60
001038: 32,3413           00037                                    30D
001039: 32,3414           41261                           SL       DMP
001040: 32,3415           20214                                    11D
001041: 32,3416           03474                                    HDOTDISP
001042: 32,3417           45215                           DAD      DSU
001043: 32,3420           00045                                    36D
001044: 32,3421           02333                                    /LAND/
001045: 32,3422           17775                           STODL    HCALC1                                #  UPDATE ALTITUDE FOR NOUN 60
001046: 32,3423           03474                                    HDOTDISP
001047: 32,3424           56221                           BDSU     DDV
001048: 32,3425           03645                                    VDGVERT
001049: 32,3426           02541                                    TAUROD
001050: 32,3427           51515                           PDVL     ABVAL                                 #                                (2)
001051: 32,3430           01236                                    GDT/2
001052: 32,3431           60471                           DDV      SR2
001053: 32,3432           05652                                    GSCALE
001054: 32,3433           00025                           STORE    20D
001055: 32,3434           77615                           DAD                                            #                                (0)
001056: 32,3435           45115                           PDVL     CALL                                  #                                (2)
001057: 32,3436           06522                                    UNITX
001058: 32,3437           47663                                    CDU*NBSM
001059: 32,3440           77641                           DOT
001060: 32,3441           00017                                    14D
001061: 32,3442           00027                           STORE    22D
001062: 32,3443           45465                           BDDV     STADR                                 #                                (0)
001063: 32,3444           50313                           STOVL    /AFC/
001064: 32,3445           03767                                    DELVROD
001065: 32,3446           53361                           VXSC     VAD
001066: 32,3447           26022                                    KPIP1
001067: 32,3450           02621                                    VBIAS
001068: 32,3451           65246                           ABVAL    PDDL                                  #                                (2)
001069: 32,3452           03762                                    THISTPIP
001070: 32,3453           65225                           DSU      PDDL                                  #                                (4)
001071: 32,3454           03760                                    LASTTPIP
001072: 32,3455           03762                                    THISTPIP
001073: 32,3456           17760                           STODL    LASTTPIP                              #                                (2)
001074: 32,3457           55271                           DDV      BDDV                                  #                                (0)
001075: 32,3460           23754                                    SHFTFACT
001076: 32,3461           41325                           PDDL     DMP                                   #                                (2)
001077: 32,3462           03611                                    FWEIGHT
001078: 32,3463           23753                                    BIT1H
001079: 32,3464           56271                           DDV      DDV
001080: 32,3465           01244                                    MASS
001081: 32,3466           22006                                    SCALEFAC
001082: 32,3467           65215                           DAD      PDDL                                  #                                (4)
001083: 32,3470           00001                                    0D


001085: 32,3471           00025                                    20D
001086: 32,3472           45271                           DDV      DSU                                   #                                (2)
001087: 32,3473           00027                                    22D
001088: 32,3474           43205                           DMP      DAD
001089: 32,3475           02543                                    LAG/TAU
001090: 32,3476           03464                                    /AFC/
001091: 32,3477           56325                           PDDL     DDV                                   #                                (4)
001092: 32,3500           02547                                    MAXFORCE
001093: 32,3501           01244                                    MASS
001094: 32,3502           56325                           PDDL     DDV                                   #                                (6)
001095: 32,3503           02545                                    MINFORCE
001096: 32,3504           01244                                    MASS
001097: 32,3505           44206                           PUSH     BDSU                                  #                                (8)
001098: 32,3506           00003                                    2D
001099: 32,3507           71240                           BMN      DLOAD                                 #                                (6)
001100: 32,3510           65516                                    AFCSPOT
001101: 32,3511           41545                           DLOAD    PUSH                                  #                                (6)
001102: 32,3512           51021                           BDSU     BPL
001103: 32,3513           00003                                    2D
001104: 32,3514           65516                                    AFCSPOT
001105: 32,3515           77745                           DLOAD                                          #                                (4)
001106: 32,3516           77745        AFCSPOT            DLOAD                                          #                                (2), (4), OR (6)
001107: 32,3517           77601                           SETPD                                          #                                (2)
001108: 32,3520           00003                                    2D
001109: 32,3521           17464                           STODL    /AFC/                                 #                                (0)
001110: 32,3522           77776        ITRPNT2            EXIT
001111: 32,3523           52155                           DXCH     MPAC                                  #  MPAC = MEASURED ACCELERATION.
001112: 32,3524           04616                           TC       BANKCALL
001113: 32,3525           62147                           CADR     THROTTLE   +3
001114: 32,3526           25623                           INCR     CNTTHROT                              #  COUNT ONE THROTTLE COMPLETION
001115: 32,3527           04616                           TC       BANKCALL                              #  PUT UP V06N60 DISPLAY BUT AVOID PHASCHNG
001116: 32,3530           63426                           CADR     DISPEXIT   +3
001117:


001126: 32,3531           00002                           DEC      2          B-14
001127: 32,3532           00001                           DEC      1          B-14
001128:
001129:                                                                                                  #  ****************************************************************************************************************
001130:                                                                                                  #  REDESIGNATOR TRAP
001131:                                                                                                  #  ****************************************************************************************************************
001132:
001133: 11,2302                                           BANK     11
001134: 11,2000                                           SETLOC   F2DPS*11
001135: 11,2000                                           BANK
001136:
001137: 11,2302                                           COUNT*   $$/F2DPS
001138:
001139: 11,2302           56016        PITFALL            XCH      BANKRUPT
001140: 11,2303           00006                           EXTEND
001141: 11,2304           22012                           QXCH     QRUPT


001143: 11,2305           05321                           TC       CHECKMM                               #  IF NOT IN P64, NO REASON TO CONTINUE
001144: 11,2306           00100                           DEC      64         B-14
001145: 11,2307           15270                           TCF      RESUME
001146:
001147: 11,2310           00006                           EXTEND
001148: 11,2311           00031                           READ     CHAN31
001149: 11,2312           40000                           COM
001150: 11,2313           72401                           MASK     ALL4BITS
001151: 11,2314           55444                           TS       ELVIRA
001152: 11,2315           34752                           CAF      TWO
001153: 11,2316           55443                           TS       ZERLINA
001154: 11,2317           34756                           CAF      FIVE
001155: 11,2320           05173                           TC       TWIDDLE
001156: 11,2321           02326                           ADRES    REDESMON
001157: 11,2322           15270                           TCF      RESUME
001158:
001159:                                                                                                  #  REDESIGNATION MONITOR (INITIATED BY PITFALL)
001160:
001161: 11,2323           55443        PREMON1            TS       ZERLINA
001162: 11,2324           34757        PREMON2            CAF      SEVEN
001163: 11,2325           05224                           TC       VARDELAY
001164: 11,2326           00006        REDESMON           EXTEND
001165: 11,2327           00031                           READ     31
001166: 11,2330           40000                           COM
001167: 11,2331           72401                           MASK     ALL4BITS
001168: 11,2332           57444                           XCH      ELVIRA
001169: 11,2333           54001                           TS       L
001170: 11,2334           11444                           CCS      ELVIRA                                #  DO ANY BITS APPEAR THIS PASS?
001171: 11,2335           12324                           TCF      PREMON2                               #  Y:    CONTINUE MONITOR
001172: 11,2336           10001                           CCS      L                                     #  N:    ANY LAST PASS?
001173: 11,2337           12347                           TCF      COUNT'EM                              #        Y:      COUNT 'EM, RESET RUPT, TERMINATE
001174: 11,2340           11443                           CCS      ZERLINA                               #        N:      HAS ZERLINA REACHED ZERO YET?
001175: 11,2341           12323                           TCF      PREMON1                               #                N:      DIMINISH ZERLINA, CONTINUE
001176: 11,2342           06022        RESETRPT           TC       C13STALL                              #                Y:      RESET RUPT, TERMINATE
001177: 11,2343           34740                           CAF      BIT12
001178: 11,2344           00006                           EXTEND
001179: 11,2345           05013                           WOR      CHAN13
001180: 11,2346           15261                           TCF      TASKOVER
001181:
001182: 11,2347           34737        COUNT'EM           CAF      BIT13                                 #  ARE WE IN ATTITUDE-HOLD?
001183: 11,2350           00006                           EXTEND
001184: 11,2351           02031                           RAND     CHAN31
001185: 11,2352           00006                           EXTEND
001186: 11,2353           12342                           BZF      RESETRPT                              #  YES: SKIP REDESIGNATION LOGIC.
001187: 11,2354           30001                           CA       L                                     #  NO
001188: 11,2355           74746                           MASK     -AZBIT


001190: 11,2356           10000                           CCS      A
001191: 11,2357           42402        -AZ                CS       AZEACH
001192: 11,2360           27445                           ADS      AZINCR1
001193: 11,2361           30001                           CA       L
001194: 11,2362           74747                           MASK     +AZBIT
001195: 11,2363           10000                           CCS      A
001196: 11,2364           32402        +AZ                CA       AZEACH
001197: 11,2365           27445                           ADS      AZINCR1
001198: 11,2366           30001                           CA       L
001199: 11,2367           74753                           MASK     -ELBIT
001200: 11,2370           10000                           CCS      A
001201: 11,2371           42403        -EL                CS       ELEACH
001202: 11,2372           27446                           ADS      ELINCR1
001203: 11,2373           30001                           CA       L
001204: 11,2374           74752                           MASK     +ELBIT
001205: 11,2375           10000                           CCS      A
001206: 11,2376           32403        +EL                CA       ELEACH
001207: 11,2377           27446                           ADS      ELINCR1
001208: 11,2400           12342                           TCF      RESETRPT
001209:
001210:                                                                                                  #  THESE EQUIVALENCIES ARE BASED ON GSOP CHAPTER 4, REVISION 16 OF P64LM
001211:
001212: 11,2401     4752               +ELBIT             =        BIT2                                  #  -PITCH
001213: 11,2401     4753               -ELBIT             =        BIT1                                  #  +PITCH
001214: 11,2401     4747               +AZBIT             =        BIT5
001215: 11,2401     4746               -AZBIT             =        BIT6
001216:
001217: 11,2401           00063        ALL4BITS           OCT      00063
001218: 11,2402           01074        AZEACH             DEC      .03491                                #  2 DEGREES
001219: 11,2403           00217        ELEACH             DEC      .00873                                #  1/2 DEGREE
001220:
001221:                                                                                                  #  ****************************************************************************************************************
001222:                                                                                                  #  R.O.D. TRAP
001223:                                                                                                  #  ************************************************************************
001224:
001225: 23,2000                                           SETLOC   RODTRAP


001227: 23,2000                                           BANK
001228: 23,2455                                           COUNT*   $$/F2DPS                              #  ****************************************
001229:
001230: 23,2455           74745        DESCBITS           MASK     BIT7                                  #  COME HERE FROM MARKRUPT CODING WITH BIT
001231: 23,2456           10000                           CCS      A                                     #        7 OR 6 OF CHANNEL 16 IN A: BIT 7 MEANS
001232: 23,2457           44752                           CS       TWO                                   #        - RATE INCREMENT, BIT 6 + INCREMENT
001233: 23,2460           64753                           AD       ONE
001234: 23,2461           27746                           ADS      RODCOUNT
001235: 23,2462           15270                           TCF      RESUME                                #  TRAP IS RESET WHEN SWITCH IS RELEASED
001236:
001237: 31,3512                                           BANK     31
001238: 31,2000                                           SETLOC   F2DPS*31
001239: 31,2000                                           BANK
001240:
001241: 31,3512                                           COUNT*   $$/F2DPS
001242:
001243:                                                                                                  #  ****************************************************************************************************************
001244:                                                                                                  #  DOUBLE PRECISION ROOT FINDER SUBROUTINE (BY ALLAN KLUMPP)
001245:                                                                                                  #  ****************************************************************************************************************
001246:
001247:                                                                                                  #                                                       N        N-1
001248:                                                                                                  #        ROOTPSRS FINDS ONE ROOT OF THE POWER SERIES A X  + A   X    + ... + A X + A
001249:                                                                                                  #                                                     N      N-1              1     0
001250:                                                                                                  #  USING NEWTON'S METHOD STARTING WITH AN INITIAL GUESS FOR THE ROOT.  THE ENTERING DATA MUST BE AS FOLLOWS:
001251:                                                                                                  #        A       SP      LOC-3           ADRES FOR REFERENCING PWR COF TABL
001252:                                                                                                  #        L       SP      N-1             N IS THE DEGREE OF THE POWER SERIES
001253:                                                                                                  #        MPAC    DP      X               INITIAL GUESS FOR ROOT
001254:                                                                                                  #        LOC-2N  DP      A(0)
001255:                                                                                                  #                ...
001256:                                                                                                  #        LOC     DP      A(N)
001257:                                                                                                  #        LOC+2   SP      PRECROOT         PREC RQD OF ROOT (AS FRACT OF 1ST GUESS)
001258:
001259:                                                                                                  #  THE DP RESULT IS LEFT IN MPAC UPON EXIT, AND A SP COUNT OF THE ITERATIONS TO CONVERGENCE IS LEFT IN MPAC+2.
001260:                                                                                                  #  RETURN IS NORMALLY TO LOC(TC ROOTPSRS)+3.  IF ROOTPSRS FAILS TO CONVERGE IN 8 PASSES, RETURN IS TO LOC+1 AND
001261:                                                                                                  #  OUTPUTS ARE NOT TO BE TRUSTED.
001262:
001263:                                                                                                  #  PRECAUTION:  ROOTPSRS MAKES NO CHECKS FOR OVERFLOW OR FOR IMPROPER USAGE.  IMPROPER USAGE COULD
001264:                                                                                                  #  PRECLUDE CONVERGENCE OR REQUIRE EXCESSIVE ITERATIONS.  AS A SPECIFIC EXAMPLE, ROOTPSRS FORMS A DERIVATIVE
001265:                                                                                                  #  COEFFICIENT TABLE BY MULTIPLYING EACH A(I) BY I, WHERE I RANGES FROM 1 TO N.  IF AN ELEMENT OF THE DERIVATIVE
001266:                                                                                                  #  COEFFICIENT TABLE = 1 OR >1 IN MAGNITUDE, ONLY THE EXCESS IS RETAINED.  ROOTPSRS MAY CONVERGE ON THE CORRECT
001267:                                                                                                  #  ROOT NONETHELESS, BUT IT MAY TAKE AN EXCESSIVE NUMBER OF ITERATIONS.  THEREFORE THE USER SHOULD RECOGNIZE:
001268:                                                                                                  #        1.  USER'S RESPONSIBILITY TO ASSURE THAT I X A(I) < 1 IN MAGNITUDE FOR ALL I.
001269:                                                                                                  #        2.  USER'S RESPONSIBILITY TO ASSURE OVERFLOW WILL NOT OCCUR IN EVALUATING EITHER THE RESIDUAL OR THE DERIVATIVE
001270:                                                                                                  #            POWER SERIES.  THIS OVERFLOW WOULD BE PRODUCED BY SUBROUTINE POWRSERS, CALLED BY ROOTPSRS, AND MIGHT NOT


001272:                                                                                                  #            PRECLUDE EVENTUAL CONVERGENCE.
001273:                                                                                                  #        3.  AT PRESENT, ERASABLE LOCATIONS ARE RESERVED ONLY FOR N UP TO 5.  AN N IN EXCESS OF 5 WILL PRODUCE CHAOS.
001274:                                                                                                  #            ALL ERASABLES USED BY ROOTPSRS ARE UNSWITCHED LOCATED IN THE REGION FROM MPAC-33 OCT TO MPAC+7.
001275:                                                                                                  #        4.  THE ITERATION COUNT RETURNED IN MPAC+2 MAY BE USED TO DETECT ABNORMAL PERFORMANCE.
001276:
001277:                                                                                                  #  STORE ENTERING DATA, INITLIZE ERASABLES
001278: 31,3512           00006        ROOTPSRS           EXTEND
001279: 31,3513           22132                           QXCH     RETROOT                               #  RETURN ADRES
001280: 31,3514           54117                           TS       PWRPTR                                #  PWR TABL POINTER
001281: 31,3515           52160                           DXCH     MPAC       +3                         #  PWR TABL ADRES, N-1
001282: 31,3516           33635                           CA       DERTABLL
001283: 31,3517           54141                           TS       DERPTR                                #  DER TABL POINTER
001284: 31,3520           54161                           TS       MPAC       +5                         #  DER TABL ADRES
001285: 31,3521           10160                           CCS      MPAC       +4                         #  NO POWER SERIES OF DEGREE 1 OR LESS
001286: 31,3522           54162                           TS       MPAC       +6                         #  N-2
001287: 31,3523           34755                           CA       ZERO                                  #  MODE USED AS ITERATION COUNTER.  MODE
001288: 31,3524           54163                           TS       MODE                                  #  MUST BE POS SO ABS WON'T COMP MPAC+3 ETC
001289:
001290:                                                                                                  #  COMPUTE CRITERION TO STOP ITERATING
001291: 31,3525           00006                           EXTEND
001292: 31,3526           30155                           DCA      MPAC                                  #  FETCH ROOT GUESS, KEEPING IT IN MPAC
001293: 31,3527           52127                           DXCH     ROOTPS                                #  AND IN ROOTPS
001294: 31,3530           50157                           INDEX    MPAC       +3                         #  PWR TABL ADRES
001295: 31,3531           30005                           CA       5                                     #  PRECROOT TO A
001296: 31,3532           07312                           TC       SHORTMP                               #  YIELDS DP PRODUCT IN MPAC
001297: 31,3533           04713                           TC       USPRCADR
001298: 31,3534           01226                           CADR     ABS                                   #  YIELDS ABVAL OF CRITERION ON DX IN MPAC
001299: 31,3535           52155                           DXCH     MPAC
001300: 31,3536           52125                           DXCH     DXCRIT                                #  CRITERION
001301:
001302:                                                                                                  #  SET UP DER COF TABL
001303: 31,3537           00006                           EXTEND
001304: 31,3540           50117                           INDEX    PWRPTR
001305: 31,3541           30004                           DCA      3
001306: 31,3542           52155                           DXCH     MPAC                                  #  A(N) TO MPAC
001307:
001308: 31,3543           30160                           CA       MPAC       +4                         #  N-1 TO A
001309:
001310: 31,3544           54140        DERCLOOP           TS       PWRCNT                                #  LOOP COUNTER
001311: 31,3545           64753                           AD       ONE
001312: 31,3546           07321                           TC       DMPNSUB                               #  YIELDS DERCOF = I X A(I) IN MPAC
001313: 31,3547           00006                           EXTEND
001314: 31,3550           50117                           INDEX    PWRPTR
001315: 31,3551           30002                           DCA      1
001316: 31,3552           52155                           DXCH     MPAC                                  #  A(I-1) TO MPAC, FETCHING DERCOF


001318: 31,3553           50141                           INDEX    DERPTR
001319: 31,3554           52004                           DXCH     3                                     #  DERCOF TO DER TABL
001320: 31,3555           44752                           CS       TWO
001321: 31,3556           26117                           ADS      PWRPTR                                #  DECREMENT PWR POINTER
001322: 31,3557           44752                           CS       TWO
001323: 31,3560           26141                           ADS      DERPTR                                #  DECREMENT DER POINTER
001324: 31,3561           10140                           CCS      PWRCNT
001325: 31,3562           13544                           TCF      DERCLOOP
001326:
001327:                                                                                                  #  CONVERGE ON ROOT
001328: 31,3563           00006        ROOTLOOP           EXTEND
001329: 31,3564           30127                           DCA      ROOTPS                                #  FETCH CURRENT ROOT
001330: 31,3565           52155                           DXCH     MPAC                                  #  LEAVE IN MPAC
001331: 31,3566           00006                           EXTEND
001332: 31,3567           30162                           DCA      MPAC       +5                         #  LOAD A, L WITH DER TABL ADRES, N-2
001333: 31,3570           07220                           TC       POWRSERS                              #  YIELDS DERIVATIVE IN MPAC
001334:
001335: 31,3571           00006                           EXTEND
001336: 31,3572           30127                           DCA      ROOTPS
001337: 31,3573           52155                           DXCH     MPAC                                  #  CURRENT ROOT TO MPAC, FETCHING DERIVTIVE
001338: 31,3574           52131                           DXCH     BUF                                   #  LEAVE DERIVATIVE IN BUF AS DIVISOR
001339: 31,3575           00006                           EXTEND
001340: 31,3576           30160                           DCA      MPAC       +3                         #  LOAD A, L WITH PWR TABL ADRES, N-1
001341: 31,3577           07220                           TC       POWRSERS                              #  YIELDS RESIDUAL IN MPAC
001342:
001343: 31,3600           04713                           TC       USPRCADR
001344: 31,3601           00353                           CADR     DDV/BDDV                              #  YIELDS -DX IN MPAC
001345:
001346: 31,3602           00006                           EXTEND
001347: 31,3603           40155                           DCS      MPAC                                  #  FETCH DX, LEAVING -DX IN MPAC
001348: 31,3604           20127                           DAS      ROOTPS                                #  CORRECTED ROOT NOW IN ROOTPS
001349:
001350: 31,3605           04713                           TC       USPRCADR
001351: 31,3606           01226                           CADR     ABS                                   #  YIELDS ABS(DX) IN MPAC
001352: 31,3607           00006                           EXTEND
001353: 31,3610           40125                           DCS      DXCRIT
001354: 31,3611           20155                           DAS      MPAC                                  #  ABS(DX)-ABS(DXCRIT) IN MPAC
001355:
001356: 31,3612           30163                           CA       MODE
001357: 31,3613           74750                           MASK     BIT4                                  #  KLUMPP SAYS GIVE UP AFTER EIGHT PASSES
001358: 31,3614           10000                           CCS      A
001359: 31,3615           00132        BADROOT            TC       RETROOT
001360:
001361: 31,3616           24163                           INCR     MODE                                  #  INCREMENT ITERATION COUNTER
001362: 31,3617           10154                           CCS      MPAC                                  #  TEST HI ORDER DX
001363: 31,3620           13563                           TCF      ROOTLOOP
001364: 31,3621           13623                           TCF      TESTLODX
001365: 31,3622           13627                           TCF      ROOTSTOR
001366: 31,3623           10155        TESTLODX           CCS      MPAC       +1                         #  TEST LO ORDER DX


001368: 31,3624           13563                           TCF      ROOTLOOP
001369: 31,3625           13627                           TCF      ROOTSTOR
001370: 31,3626           13627                           TCF      ROOTSTOR
001371: 31,3627           52127        ROOTSTOR           DXCH     ROOTPS
001372: 31,3630           52155                           DXCH     MPAC
001373: 31,3631           30163                           CA       MODE
001374: 31,3632           54156                           TS       MPAC       +2                         #  STORE SP ITERATION COUNT IN MPAC+2
001375: 31,3633           50132                           INDEX    RETROOT
001376: 31,3634           10002                           TCF      2
001377:
001378: 31,3635           00147        DERTABLL           ADRES    DERCOFN    -3
001379:
001380:                                                                                                  #  ****************************************************************************************************************
001381:                                                                                                  #  TRASHY LITTLE SUBROUTINES
001382:                                                                                                  #  ****************************************************************************************************************
001383:
001384: 31,3636           51346        INTPRETX           INDEX    WCHPHASE                              #  SET X1 ON THE WAY TO THE INTERPRETER
001385: 31,3637           42413                           CS       TARGTDEX
001386: 31,3640           50120                           INDEX    FIXLOC
001387: 31,3641           54046                           TS       X1
001388: 31,3642           16042                           TCF      INTPRET
001389:
001390: 31,3643           31642        TDISPSET           CA       TTF/8
001391: 31,3644           00006                           EXTEND
001392: 31,3645           74750                           MP       TSCALINV
001393: 31,3646           53476                           DXCH     TTFDISP
001394:
001395: 31,3647           35014                           CA       EBANK5                                #  TREDES BECOMES ZERO TWO PASSES
001396: 31,3650           54003                           TS       EBANK                                 #        BEFORE TCGFAPPR IS REACHED
001397: 31,3651  E5,1470                                  EBANK=   TCGFAPPR
001398: 31,3651           31470                           CA       TCGFAPPR
001399: 31,3652           24006                           INCR     BBANK
001400: 31,3653           24006                           INCR     BBANK
001401: 31,3654  E7,1642                                  EBANK=   TTF/8
001402: 31,3654           61642                           AD       TTF/8
001403: 31,3655           00006                           EXTEND
001404: 31,3656           73711                           MP       TREDESCL
001405: 31,3657           63706                           AD       -DEC103
001406: 31,3660           64735                           AD       NEGMAX
001407: 31,3661           54001                           TS       L
001408: 31,3662           40001                           CS       L
001409: 31,3663           60001                           AD       L
001410: 31,3664           63710                           AD       +DEC99
001411: 31,3665           64733                           AD       POSMAX
001412: 31,3666           55666                           TS       TREDES
001413: 31,3667           41666                           CS       TREDES
001414: 31,3670           27666                           ADS      TREDES
001415: 31,3671           00002                           TC       Q
001416:


001418: 31,3672           05642        1406POO            TC       POODOO
001419: 31,3673           21406                           OCT      21406
001420: 31,3674           05567        1406ALM            TC       ALARM
001421: 31,3675           01406                           OCT      01406
001422: 31,3676           13411                           TCF      RATESTOP
001423:
001424:                                                                                                  #  ****************************************************************************************************************
001425:                                                                                                  #  SPECIALIZED "PHASCHNG" SUBROUTINE
001426:                                                                                                  #  ****************************************************************************************************************
001427:
001428: 31,3677  E3,1440                                  EBANK=   PHSNAME2
001429: 31,3677           35007        FASTCHNG           CA       EBANK3                                #  SPECIALIZED 'PHASCHNG' ROUTINE
001430: 31,3700           56003                           XCH      EBANK
001431: 31,3701           52002                           DXCH     L
001432: 31,3702           55442                           TS       PHSNAME3
001433: 31,3703           22003                           LXCH     EBANK
001434: 31,3704  E7,1621                                  EBANK=   E2DPS
001435: 31,3704           00000                           TC       A
001436:
001437:                                                                                                  #  ****************************************************************************************************************
001438:                                                                                                  #  PARAMETER TABLE INDIRECT ADDRESSES
001439:                                                                                                  #  ****************************************************************************************************************
001440:
001441: 31,3705  E5,1402               RDG                =        RBRFG
001442: 31,3705  E5,1410               VDG                =        VBRFG
001443: 31,3705  E5,1416               ADG                =        ABRFG
001444: 31,3705  E5,1424               VDG2TTF            =        VBRFG*
001445: 31,3705  E5,1426               ADG2TTF            =        ABRFG*
001446: 31,3705  E5,1430               JDG2TTF            =        JBRFG*
001447:
001448:                                                                                                  #  ****************************************************************************************************************
001449:                                                                                                  #  LUNAR LANDING CONSTANTS
001450:                                                                                                  #  ***************************************************************************************************************
001451:
001452: 31,3705           01565        TABLTTFL           ADRES    TABLTTF    +3                         #  ADDRESS FOR REFERENCING TTF TABLE
001453: 31,3706     4740               TTFSCALE           =        BIT12
001454: 31,3706     4750               TSCALINV           =        BIT4
001455: 31,3706           77630        -DEC103            DEC      -103       B-14
001456: 31,3707           00155        P64DB              OCT      00155                                 #  0.3 DEGREES SCALED AT CDU SCALING


001458: 31,3710           00143        +DEC99             DEC      +99        B-14
001459: 31,3711           75340        TREDESCL           DEC      -.08
001460: 31,3712           00264        180DEGS            DEC      +180       B-14
001461: 31,3713           00056        1/2DEG             DEC      +.00278
001462: 31,3714           01542        PROJMAX            DEC      .42262     B-3                        #  SIN(25')/8 TO COMPARE WITH PROJ
001463: 31,3715           01022        PROJMIN            DEC      .25882     B-3                        #  SIN(15')/8 TO COMPARE WITH PROJ
001464: 31,3716           01477        V06N63             VN       0663                                  #  P63
001465: 31,3717           01500        V06N64             VN       0664                                  #  P64
001466: 31,3720           01474        V06N60             VN       0660                                  #  P65, P66, P67
001467:
001468: 22,3647                                           BANK     22
001469: 22,2000                                           SETLOC   LANDCNST
001470: 22,2000                                           BANK
001471: 22,3647                                           COUNT*   $$/F2DPS
001472:
001473: 22,3647           00021 14161  HIGHESTF           2DEC     4.34546769 B-12
001474: 22,3651           01440 00000  GSCALE             2DEC     100        B-11
001475: 22,3653           14000 00000  3/8DP              2DEC     .375
001476: 22,3655           30000 00000  3/4DP              2DEC     .750
001477: 22,3657           77534 45074  DEPRCRIT           2DEC     -.02       B-1
001478:


001481:
001482:                                                                                                  #  ****************************************************************************************************************
001483:                                                                                                  #  GUIDANCE FOR P66
001484:                                                                                                  #  ****************************************************************************************************************
001485:
001486:                                                                                                  #           THE P66 HORIZONTAL (HZ) EQUATION IS:
001487:
001488:                                                                                                  #                  UNFC/2X = GHZ
001489:
001490:                                                                                                  #                  UNFC/2Y = (LIMIT AHZLIM)(-QHZ UNFC/2Y   -(VY-VHZCY)/TAUHZ)
001491:                                                                                                  #                                                       I-1
001492:
001493:                                                                                                  #                  UNFC/2Z = (LIMIT AHZLIM)(-QHZ UNFC/2Z   -(VZ-VHZCZ)/TAUHZ)
001494:                                                                                                  #                                                       I-1
001495:
001496:                                                                                                  #           WHERE  GHZ IS LUNAR GRAVITY
001497:                                                                                                  #                  QHZ AND 1/TAUHZ ARE GAIN CONSTANTS
001498:                                                                                                  #                  VHZCY AND VHZCZ ARE THE Y AND Z COMPONENTS OF COMMANDED
001499:                                                                                                  #                     VELOCITY, PLATFORM COORDINATES. THESE ARE INITIALIZED
001500:                                                                                                  #                     TO MOONRATE
001501:                                                                                                  #                  (LIMIT AHZLIM) INDICATES THE CONTENT OF THE SUBSEQUENT
001502:                                                                                                  #                     PARENTHESES IS MAGNITUDE LIMITED TO AHZLIM
001503:
001504: 31,2000                                           SETLOC   P66LOC2
001505: 31,2000                                           BANK
001506:
001507: 31,3721           05353        P66                TC       PHASCHNG                              #  TERMINATE GROUP 3
001508: 31,3722           00003                           OCT      00003
001509:
001510: 31,3723           06042                           TC       INTPRET
001511: 31,3724           45234                           RTB      DSU                                   #  IS THERE TIME FOR P66?
001512: 31,3725           21574                                    LOADTIME
001513: 31,3726           01234                                    PIPTIME
001514: 31,3727           51021                           BDSU     BPL
001515: 31,3730           02517                                    2LATE466
001516: 31,3731           71650                                    P66HZ                                 #  Y: DOIT
001517: 31,3732           77414                           CLEAR    EXIT                                  #  N: OMIT
001518: 31,3733           00663                                    RODFLAG
001519:
001520: 31,3734           03743                           TC       RSTCTHRT
001521: 31,3735           00006                           EXTEND                                         #  TOO FEW THROTTLINGS SINCE LAST OMISSION?
001522: 31,3736           63740                           BZMF     OMITWALM
001523:
001524: 31,3737           13426                           TCF      DISPEX66                              #  N: PERMIT OMISSION SANS ALARM
001525:
001526: 31,3740           05567        OMITWALM           TC       ALARM                                 #  Y: PERMIT OMISSION WITH ALARM
001527: 31,3741           01466                           OCT      01466
001528:
001529: 31,3742           13426                           TCF      DISPEX66
001530:
001531: 31,3743           35014        RSTCTHRT           CAF      EBANK5
001532: 31,3744           54001                           TS       L
001533: 31,3745           22003                           LXCH     EBANK
001534: 31,3746  E5,1774                                  EBANK=   END-E5
001535: 31,3746           41513                           CS       TOOFEW                                #  INITIALIZE CNTTHROT TO TOOFEW AND LOAD
001536: 31,3747           22003                           LXCH     EBANK                                 #  ACCUMULATOR WITH ITS PREVIOUS CONTENTS
001537: 31,3750  E7,1777                                  EBANK=   END-E7
001538: 31,3750           57623                           XCH      CNTTHROT
001539: 31,3751           00002                           TC       Q
001540:


001542:                                                                                                  #  CONSTANTS FOR P66
001543:
001544: 31,3752           00001        BIT1H              OCT      00001
001545: 31,3753           00000 04000  SHFTFACT           2DEC     1          B-17
001546: 31,3755           00000 05075  BIASFACT           2DEC     655.36     B-26
001547:
001548:                                                                                                  #  DESCENT OVERFLOW SUBROUTINE
001549: 31,3757           00006        OVFDESC            EXTEND
001550: 31,3760           23456                           QXCH     OVFRET
001551:
001552: 31,3761           05567                           TC       ALARM
001553: 31,3762           01410                           OCT      01410
001554:
001555: 31,3763           00004                           INHINT                                         #  MUST USE INHINT, IBNKCALL, RELINT
001556: 31,3764           04674                           TC       IBNKCALL                              #  BECAUSE DAP COULD INTERRUPT STOPRATE AND
001557: 31,3765           40166                           FCADR    STOPRATE                              #  BECAUSE WE COME FROM P66HZ VIA BANKCALL
001558: 31,3766           00003                           RELINT
001559:
001560: 31,3767           34755                           CA       ZERO
001561: 31,3770           54121                           TS       OVFIND
001562:
001563: 31,3771           01456                           TC       OVFRET
001564:
001565:
001566:
001567:                                                                                                  #  ****************************************************************************************************************

End of include-file LUNAR_LANDING_GUIDANCE_EQUATIONS.agc.  Parent file is MAIN.agc


