
Source Code


000002:                                                                                                  ## Copyright:   Public domain.
000003:                                                                                                  ## Filename:    P30,P37.agc
000004:                                                                                                  ## Purpose:     A section of LM131 revision 1.
000005:                                                                                                  ##              It is part of the reconstructed source code for the final
000006:                                                                                                  ##              release of the flight software for the Lunar Module's (LM)
000007:                                                                                                  ##              Apollo Guidance Computer (AGC) for Apollo 13. The code has
000008:                                                                                                  ##              been reconstructed from a listing of Luminary 131 and a dump
000009:                                                                                                  ##              of a core rope memory module B5, part number 2010802-171,
000010:                                                                                                  ##              which is the only module different between LM131 revision 1
000011:                                                                                                  ##              and Luminary 131. The executable generated from this source
000012:                                                                                                  ##              has been verified against the module dump, so while the names,
000013:                                                                                                  ##              comments, and ordering may not be exactly correct, the
000014:                                                                                                  ##              resulting binary is.
000015:                                                                                                  ## Reference:   pp. 619-622
000016:                                                                                                  ## Assembler:   yaYUL
000017:                                                                                                  ## Contact:     Ron Burkey <info@sandroid.org>.
000018:                                                                                                  ## Website:     www.ibiblio.org/apollo/index.html
000019:                                                                                                  ## Mod history: 2022-10-28 MAS  Created from Luminary 131.
000020:


000022:                                                                                                  #  PROGRAM DESCRIPTION P30       DATE 3-6-67
000023:                                                                                                  #  MOD.1 BY RAMA AIYAWAR
000024:
000025:                                                                                                  #  FUNCTIONAL DESCRIPTION
000026:                                                                                                  #        ACCEPT ASTRONAUT INPUTS OF TIG,DELV(LV)
000027:                                                                                                  #        CALL IMU STATUS CHECK ROUTINE (R02)
000028:                                                                                                  #        DISPLAY TIME TO GO, APOGEE, PERIGEE, DELV(MAG), MGA AT IGN
000029:                                                                                                  #        REQUEST BURN PROGRAM
000030:
000031:                                                                                                  #  CALLING SEQUENCE VIA JOB FROM V37
000032:
000033:                                                                                                  #  EXIT VIA V37 CALL OR TO GOTOPOOH (V34E)
000034:
000035:                                                                                                  #  SUBROUTINE CALLS -    FLAGUP, PHASCHNG, BANKCALL, ENDOFJOB, GOFLASH, GOFLASHR
000036:                                                                                                  #                        GOPERF3R, INTPRET, BLANKET, GOTOPOOH, R02BOTH, S30.1,
000037:                                                                                                  #                        TTG/N35, MIDGIM, DISPMGA
000038:
000039:                                                                                                  #  ERASABLE INITIALIZATION - STATE VECTOR
000040:
000041:                                                                                                  #  OUTPUT -      RINIT, VINIT, +MGA, VTIG, RTIG, DELVSIN, DELVSAB, DELVSLV, HAPO,
000042:                                                                                                  #                HPER, TTOGO
000043:
000044:                                                                                                  #  DEBRIS - A, L, MPAC, PUSHLIST
000045:
000046: 32,3000                                           BANK     32
000047: 35,2000                                           SETLOC   P30S
000048: 35,2000                                           BANK
000049: 35,2000  E4,1652                                  EBANK=   +MGA
000050: 35,2000                                           COUNT*   $$/P30
000051: 35,2000           05504        P30                TC       UPFLAG                                #  SET UPDATE FLAG
000052: 35,2001           00027                           ADRES    UPDATFLG
000053: 35,2002           05504                           TC       UPFLAG                                #  SET TRACK FLAG
000054: 35,2003           00031                           ADRES    TRACKFLG
000055:
000056: 35,2004           32032        P30N33             CAF      V06N33                                #  T OF IGN
000057: 35,2005           03621                           TC       VNPOOH                                #  RETURNS ON PROCEED, POOH ON TERMINATE
000058:
000059: 35,2006           33636                           CAF      V06N81                                #  DISPLAY DELTA V (LV)
000060: 35,2007           03621                           TC       VNPOOH                                #        REDISPLAY ON RECYCLE
000061:
000062: 35,2010           05516                           TC       DOWNFLAG                              #  RESET UPDATE FLAG
000063: 35,2011           00027                           ADRES    UPDATFLG
000064: 35,2012           06042                           TC       INTPRET
000065: 35,2013           77624                           CALL
000066: 35,2014           70000                                    S30.1
000067: 35,2015           43014                           SET      SET
000068: 35,2016           00470                                    UPDATFLG
000069: 35,2017           01067                                    XDELVFLG
000070: 35,2020           77776                           EXIT
000071: 35,2021           32033        PARAM30            CAF      V06N42                                #  DISPLAY APOGEE,PERIGEE,DELTA V


000073: 35,2022           03621                           TC       VNPOOH
000074:
000075: 35,2023           06042                           TC       INTPRET
000076: 35,2024           77614                           SET
000077: 35,2025           01071                                    FINALFLG
000078: 35,2026           77624        REVN1645           CALL
000079: 35,2027           73515                                    VN1645
000080: 35,2030           77650                           GOTO                                           #  COMES HERE ON RECYCLE RESPONSE
000081: 35,2031           72026                                    REVN1645
000082:
000083: 35,2032           01441        V06N33             VN       0633
000084: 35,2033           01452        V06N42             VN       0642
000085:


000087:                                                                                                  #  PROGRAM DESCRIPTION S30.1     DATE 9NOV66
000088:                                                                                                  #  MOD NO 1                      LOG SECTION P30,P37
000089:                                                                                                  #  MOD BY RAMA AIYAWAR **
000090:
000091:                                                                                                  #  FUNCTIONAL DESCRIPTION
000092:                                                                                                  #        BASED ON STORED TARGET PARAMETERS (R OF IGNITION (RTIG), V OF
000093:                                                                                                  #        IGNITION (VTIG), TIME OF IGNITION (TIG)), COMPUTE PERIGEE ALTITUDE
000094:                                                                                                  #        APOGEE ALTITUDE AND DELTAV REQUIRED (DELVSIN).
000095:
000096:                                                                                                  #  CALLING SEQUENCE
000097:                                                                                                  #        L       CALL
000098:                                                                                                  #        L+1             S30.1
000099:
000100:                                                                                                  #  NORMAL EXIT MODE
000101:                                                                                                  #        AT L+2 OR CALLING SEQUENCE (GOTO L+2)
000102:
000103:                                                                                                  #  SUBROUTINES CALLED
000104:                                                                                                  #        LEMPREC
000105:                                                                                                  #        PERIAPO
000106:
000107:                                                                                                  #  ALARM OR ABORT EXIT MODES
000108:                                                                                                  #        NONE
000109:
000110:                                                                                                  #  ERASABLE INITIALIZATION REQUIRED
000111:                                                                                                  #        TIG             TIME OF IGNITION        DP B28CS
000112:                                                                                                  #        DELVSLV         SPECIFIED DELTA-V INLOCAL VERT.
000113:                                                                                                  #                        COORDS. OF ACTIVE VEHICLE AT
000114:                                                                                                  #                        TIME OF IGNITION        VECTOR B+7 METERS/CS
000115:
000116:                                                                                                  #  OUTPUT
000117:                                                                                                  #        RTIG            POSITION AT TIG         VECTOR B+29 METERS
000118:                                                                                                  #        VTIG            VELOCITY AT TIG         VECTOR B+29 METERS/CS
000119:                                                                                                  #        PDL 4D          APOGEE ALTITUDE         DP B+29 M, B+27 METERS.
000120:                                                                                                  #        HAPO            APOGEE ALTITUDE         DP B+29 METERS
000121:                                                                                                  #        PDL 8D          PERIGEE ALTITUDE        DP B+29 M, B+27 METERS.
000122:                                                                                                  #        HPER            PERIGEE ALTITUDE        DP B+29 METERS
000123:                                                                                                  #        DELVSIN         SPECIFIED DELTA-V IN INERTIAL
000124:                                                                                                  #                        COORD. OF ACTIVE VEHICLE AT
000125:                                                                                                  #                        TIME OF IGNITION        VECTOR B+7 METERS/CS
000126:                                                                                                  #        DELVSAB         MAG. OF DELVSIN         VECTOR B+7 METERS/CS
000127:
000128:                                                                                                  #  DEBRIS        QTEMP   TEMP.ERASABLE
000129:                                                                                                  #                QPRET, MPAC
000130:                                                                                                  #                PUSHLIST
000131:
000132: 34,2000                                           SETLOC   P30S1
000133: 34,2000                                           BANK
000134:
000135: 34,2000                                           COUNT*   $$/S30S
000136:
000137: 34,2000           71220        S30.1              STQ      DLOAD
000138: 34,2001           03632                                    QTEMP
000139: 34,2002           03442                                    TIG                                   #  TIME IGNITION SCALED AT 2(+28)CS
000140: 34,2003           34041                           STCALL   TDEC1
000141: 34,2004           27056                                    LEMPREC                               #  ENCKE ROUTINE FOR LEM
000142:
000143: 34,2005           67175                           VLOAD    SXA,2


000145: 34,2006           00001                                    RATT
000146: 34,2007           02777                                    RTX2
000147: 34,2010           03642                           STORE    RTIG                                  #  RADIUS VECTOR AT IGNITION TIME
000148: 34,2011           57456                           UNIT     VCOMP
000149: 34,2012           27656                           STOVL    DELVSIN                               #  ZRF/LV IN DELVSIN SCALED AT 2
000150: 34,2013           00007                                    VATT                                  #  VELOCITY VECTOR AT TIG, SCALED 2(7) M/CS
000151: 34,2014           03650                           STORE    VTIG
000152: 34,2015           53435                           VXV      UNIT
000153: 34,2016           03642                                    RTIG
000154: 34,2017           66001                           SETPD    SXA,1
000155: 34,2020           00001                                    0
000156: 34,2021           02776                                    RTX1
000157: 34,2022           47206                           PUSH     VXV                                   #  YRF/LV PDL 0 SCALED AT 2
000158: 34,2023           03656                                    DELVSIN
000159: 34,2024           63372                           VSL1     PDVL
000160: 34,2025           63315                           PDVL     PDVL                                  #  YRF/LV PDL 6 SCALED AT 2
000161: 34,2026           03656                                    DELVSIN                               #  ZRF/LV PDL 12D SCALED AT 2
000162: 34,2027           03434                                    DELVSLV
000163: 34,2030           76505                           VXM      VSL1
000164: 34,2031           00001                                    0
000165: 34,2032           03656                           STORE    DELVSIN                               #  DELTAV IN INERT. COOR. SCALED TO B+7M/CS
000166: 34,2033           77646                           ABVAL
000167: 34,2034           27664                           STOVL    DELVSAB                               #  DELTA V MAG.
000168: 34,2035           03642                                    RTIG                                  #  (FOR PERIAPO)
000169: 34,2036           53315                           PDVL     VAD                                   #  VREQUIRED = VTIG + DELVSIN (FOR PERIAPO)
000170: 34,2037           03650                                    VTIG
000171: 34,2040           03656                                    DELVSIN
000172: 34,2041           77624                           CALL
000173: 34,2042           46341                                    PERIAPO1
000174: 34,2043           77624                           CALL
000175: 34,2044           46451                                    SHIFTR1                               #  RESCALE IF NEEDED
000176: 34,2045           77624                           CALL                                           #  LIMIT DISPLAY TO 9999.9 N. MI.
000177: 34,2046           45636                                    MAXCHK
000178: 34,2047           16321                           STODL    HPER                                  #  PERIGEE ALT 2(29) METERS, FOR DISPLAY
000179: 34,2050           00005                                    4D
000180: 34,2051           77624                           CALL
000181: 34,2052           46451                                    SHIFTR1                               #  RESCALE IF NEEDED
000182: 34,2053           77624                           CALL                                           #  LIMIT DISPLAY TO 9999.9 N. MI.
000183: 34,2054           45636                                    MAXCHK
000184: 34,2055           36317                           STCALL   HAPO                                  #  APOGEE ALT 2(29) METERS, FOR DISPLAY
000185: 34,2056           03632                                    QTEMP
000186:
000187:

End of include-file P30,P37.agc.  Parent file is MAIN.agc


