
Source Code


000002:                                                                                                  ## Copyright:   Public domain.
000003:                                                                                                  ## Filename:    PHASE_TABLE_MAINTENANCE.agc
000004:                                                                                                  ## Purpose:     A section of LM131 revision 1.
000005:                                                                                                  ##              It is part of the reconstructed source code for the final
000006:                                                                                                  ##              release of the flight software for the Lunar Module's (LM)
000007:                                                                                                  ##              Apollo Guidance Computer (AGC) for Apollo 13. The code has
000008:                                                                                                  ##              been reconstructed from a listing of Luminary 131 and a dump
000009:                                                                                                  ##              of a core rope memory module B5, part number 2010802-171,
000010:                                                                                                  ##              which is the only module different between LM131 revision 1
000011:                                                                                                  ##              and Luminary 131. The executable generated from this source
000012:                                                                                                  ##              has been verified against the module dump, so while the names,
000013:                                                                                                  ##              comments, and ordering may not be exactly correct, the
000014:                                                                                                  ##              resulting binary is.
000015:                                                                                                  ## Reference:   pp. 1286-1294
000016:                                                                                                  ## Assembler:   yaYUL
000017:                                                                                                  ## Contact:     Ron Burkey <info@sandroid.org>.
000018:                                                                                                  ## Website:     www.ibiblio.org/apollo/index.html
000019:                                                                                                  ## Mod history: 2022-10-28 MAS  Created from Luminary 131.
000020:


000022:                                                                                                  #  SUBROUTINE TO UPDATE THE PROGRAM NUMBER DISPLAY ON THE DSKY.
000023:
000024: 43,3751                                           COUNT*   $$/PHASE
000025:    5311                                           BLOCK    02
000026:    4000                                           SETLOC   FFTAG1
000027:    4000                                           BANK
000028:
000029:    5311           50002        NEWMODEX           INDEX    Q                                     #  UPDATE MODREG.  ENTRY FOR MODE IN FIXED.
000030:    5312           30000                           CAF      0
000031:    5313           24002                           INCR     Q
000032:
000033:    5314           55010        NEWMODEA           TS       MODREG                                #  ENTRY FOR MODE IN A.
000034:    5315           35320        MMDSPLAY           CAF      +3                                    #  DISPLAY MAJOR MODE.
000035:    5316           22006        PREBJUMP           LXCH     BBANK                                 #  PUTS BBANK IN L
000036:    5317           14640                           TCF      BANKJUMP                              #  PUTS Q INTO A
000037:    5320           20213                           CADR     SETUPDSP
000038:
000039:                                                                                                  #  RETURN TO CALLER +3 IF MODE = THAT AT CALLER +1.  OTHERWISE RETURN TO CALLER +2.
000040:
000041:    5321           50002        CHECKMM            INDEX    Q
000042:    5322           40000                           CS       0
000043:    5323           61010                           AD       MODREG
000044:    5324           00006                           EXTEND
000045:    5325           16744                           BZF      Q+2
000046:    5326           16742                           TCF      Q+1                                   #  NO MATCH
000047:
000048:    5327     6745               TCQ                =        Q+2        +1
000049:
000050: 14,3775                                           BANK     14
000051: 10,2000                                           SETLOC   PHASETAB
000052: 10,2000                                           BANK
000053:
000054: 10,2213                                           COUNT*   $$/PHASE
000055: 10,2213           00004        SETUPDSP           INHINT
000056: 10,2214           52071                           DXCH     RUPTREG1                              #  SAVE CALLER-S RETURN 2CADR
000057: 10,2215           34355                           CAF      PRIO30                                #        EITHER A TASK OR JOB CAN COME TO
000058: 10,2216           05072                           TC       NOVAC                                 #        NEWMODE X
000059: 10,2217     1010                                  EBANK=   MODREG
000060: 10,2217           03577 60102                     2CADR    DSPMMJOB
000061:
000062: 10,2221           52071                           DXCH     RUPTREG1
000063: 10,2222           00003                           RELINT
000064: 10,2223           52006                           DXCH     Z                                     #  RETURN
000065:
000066: 10,2224  40,3577               DSPMMJOB           EQUALS   DSPMMJB
000067:
000068:    5327                                           BLOCK    02
000069:    4000                                           SETLOC   FFTAG1
000070:    4000                                           BANK


000072:                                                                                                  #  PHASCHNG IS THE MAIN WAY OF MAKING PHASE CHANGES FOR RESTARTS.  THERE ARE THREE FORMS OF PHASCHNG, KNOWN AS TYPE
000073:                                                                                                  #  A, TYPE B, AND TYPE C.  THEY ARE ALL CALLED AS FOLLOWS, WHERE OCT XXXXX CONTAINS THE PHASE INFORMATION,
000074:                                                                                                  #                TC      PHASCHNG
000075:                                                                                                  #                OCT     XXXXX
000076:                                                                                                  #  TYPE A IS CONCERNED WITH FIXED PHASE CHANGES, THAT IS, PHASE INFORMATION THAT IS STORED PERMANENTLY.  THESE
000077:                                                                                                  #  OPTIONS ARE, WHERE G STANDS FOR A GROUP AND .X FOR THE PHASE,
000078:                                                                                                  #        G.0             INACTIVE, WILL NOT PERMIT A GROUP G RESTART
000079:                                                                                                  #        G.1             WILL CAUSE THE LAST DISPLAY TO BE REACTIVATED, USED MAINLY IN MANNED FLIGHTS
000080:                                                                                                  #        G.EVEN          A DOUBLE TABLE RESTART, CAN CAUSE ANY COMBINATION OF TWO JOBS, TASKS, AND/OR
000081:                                                                                                  #                        LONGCALL TO BE RESTARTED.
000082:                                                                                                  #        G.ODD NOT .1    A SINGLE TABLE RESTART, CAN CAUSE EITHER A JOB, TASK, OR LONGCALL RESTART
000083:
000084:                                                                                                  #  THIS INFORMATION IS PUT INTO THE OCTAL WORD AFTER TC PHASCHNG AS FOLLOWS
000085:                                                                                                  #                  TL0 00P PPP PPP GGG                                     ,
000086:                                                                                                  #  WHERE EACH LETTER OR NUMBER STANDS FOR A BIT.  THE G:S STAND FOR THE GROUP, OCTAL 1-7, THE P:S FOR THE PHASE,
000087:                                                                                                  #  OCTAL 0 - 127.  0:S MUST BE 0.              IF ONE WISHES TO HAVE THE TBASE OF GROUP G TO BE SET AT THIS TIME,
000088:                                                                                                  #  T IS SET TO 1, OTHERWISE IT IS SET TO 0.  SIMIARLY IF ONE WISHES TO SET LONGBASE, THEN L IS SET TO 1, OTHERWISE
000089:                                                                                                  #  IT IS SET TO 0.  SOME EXAMPLES,
000090:                                                                                                  #                TC      PHASCHNG        THIS WILL CAUSE GROUP 3 TO BE SET TO 0,
000091:                                                                                                  #                OCT     00003           MAKING GROUP 3 INACTIVE
000092:
000093:                                                                                                  #                TC      PHASCHNG        IF A RESTART OCCURS THIS WOULD CAUSE
000094:                                                                                                  #                OCT     00012           GROUP 2 TO RESTART THE LAST DISPLAY
000095:
000096:                                                                                                  #                TC      PHASCHNG        THIS SETS THE TBASE OF GROUP 4 AND IN
000097:                                                                                                  #                OCT     40064           CASE OF A RESTART WOULD START UP THE TWO
000098:                                                                                                  #                                        THINGS LOCATED IN THE DOUBLE 4.6 RESTART
000099:                                                                                                  #                                        LOCATION
000100:
000101:                                                                                                  #                TC      PHASCHNG        THIS SETS LONGBASE AND UPON A RESTART
000102:                                                                                                  #                OCT     20135           CAUSES 5.13 TO BE RESTARTED (SINCE
000103:                                                                                                  #                                        LONGBASE WAS SET THIS SINGLE ENTRY
000104:                                                                                                  #                                        SHOULD BE A LONGCALL)
000105:
000106:                                                                                                  #                TC      PHASCHNG        SINCE BOTH TBASE4 AND LONGBASE ARE SET,
000107:                                                                                                  #                OCT     60124           4.12 SHOULD CONTAIN BOTH A TASK AND A
000108:                                                                                                  #                                        LONGCALL TO BE RESTARTED
000109:
000110:                                                                                                  #  TYPE C PHASCHNG CONTAINS THE VARIABLE TYPE OF PHASCHNG INFORMATION.  INSTEAD OF THE INFORMATION BEING IN A
000111:                                                                                                  #  PERMANENT FORM, ONE STORES THE DESIRED RESTART INFORMATION IN A VARIABKE LOCATION.  THE BITS ARE AS FOLLOWS,
000112:                                                                                                  #        TL0 1AD XXX CJW GGG
000113:                                                                                                  #  WHERE EACH LETTER OR NUMBER STANDS FOR A BIT.  THE G:S STAND FOR THE GROUP, OCTAL 1 - 7.  IF THE RESTART IS TO
000114:                                                                                                  #  BE BY WAITLIST, W IS SET TO 1, IF IT IS A JOB, J IS SET TO 1, IF IT IS A LONGCALL, C IS SET TO 1.  ONLY ONE OF
000115:                                                                                                  #  THESE THREE BITS MAY BE SET.  X:S ARE IGNORED  1 MUST BE 1, AND 0 MUST BE 0.  AGAIN T STANDS FOR THE TBASE,


000117:                                                                                                  #  AND L FOR LONGBASE.  THE BITS A AND D ARE CONCERNED WITH THE VARIABLE INFORMATION.  IF D IS SET TO 1, A PRIORITY
000118:                                                                                                  #  OR DELTA TIME WILL BE READ FROM THE NEXT LOCATION AFTER THE OCTAL INFORMATION, IF THIS IS TO BE INDIRECT, THAT
000119:                                                                                                  #  IS, THE NAME OF A LOCATION COMT+INING THE INFORMATION (DELTA TIME ONLY), THEN THIS IS GIVEN AS THE -GENADR OF
000120:                                                                                                  #  THAT LOCATION WHICH CONTAINS THE DELTA TIME.  IF THE OLD PRIORITY OR DELTA TIME IS TO BE USED, THAT WHICH IS
000121:                                                                                                  #  ALREADY IN THE VARIABLE STORAGE, THEN D IS SET TO 0.  NEXT THE A BIT IS USED.  IF IT IS SET TO 0, THE ADDRESS
000122:                                                                                                  #  THAT WOULD BE RESTARTED DURING A RESTART IS THE NEXT LOCATION AFTER THE PHASE INFORMATION, THAT IS, EITHER
000123:                                                                                                  #  (TC PHASCHNG) +2 OR +3, DEPENDING ON WHETHER D HAD BEEN SET OR NOT.  IF A IS SET TO 1, THEN THE ADDRESS THAT
000124:                                                                                                  #  WOULD BE RESTARTED IS THE 2CADR THAT IS READ FROM THE NEXT TWO LOCATIONS.  EXAMPLES,
000125:                                                                                                  #        AD      TC      PHASCHNG        THIS WOULD CAUSE LOCATION AD +3 TO BE
000126:                                                                                                  #        AD+1    OCT     05023           RESTARTED BY GROUP THREE WITH A PRIORITY
000127:                                                                                                  #        AD+2    OCT     23000           OF 23.  NOTE UPON RETURNING IT WOULD
000128:                                                                                                  #        AD+3                            ALSO GO TO AD+3
000129:
000130:                                                                                                  #        AD      TC      PHASCHNG        GROUP 1 WOULD CAUSE CAUSE CALLCALL TO
000131:                                                                                                  #        AD+1    OCT     27441           BE STARTED AS A LONGCALL FROM THE TIME
000132:                                                                                                  #        AD+2    -GENADR DELTIME         STORED IN LONGBASE (LONGBASE WAS SET) BY
000133:                                                                                                  #        AD+3    2CADR   CALLCALL        A DELTA TIME STORED IN DELTIME.  THE
000134:                                                                                                  #        AD+4                            BBCON OF THE 2CADR SHOULD CONTAIN THE E
000135:                                                                                                  #        AD+5                            BANK OF DELTIME.  PHASCHNG RETURNS TO
000136:                                                                                                  #                                        LOCATION AD+5
000137:
000138:                                                                                                  #  NOTE THAT IF A VARIABLE PRIORITY IS GIVEN FOR A JOB, THE JOB WILL BE RESTARTED AS A NOVAC IF THE PRIORITY IS
000139:                                                                                                  #  NEGATIVE, AS A FINDVAC IF THE PRIORITY IS POSITIVE.
000140:
000141:                                                                                                  #  TYPE B PHASCHNG IS A COMBINATION OF VARIABLE AND FIXED PHASE CHANGES.  IT WILL START UP A JOB AS INDICATED
000142:                                                                                                  #  BELOW AND ALSO START UP ONE FIXED RESTART, THAT IS EITHER AN G.1 OR A G.ODD OR THE FIRST ENTRY OF G.EVEN
000143:                                                                                                  #  DOUBLE ENTRY.  THE BIT INFORMATION IS AS FOLLOWS,
000144:                                                                                                  #        TL1 DAP PPP PPP GGG
000145:                                                                                                  #  WHERE EACH LETTER OR NUMBER STANDS FOR A BIT.  THE G:S STAND FOR THE GROUP, OCTAL 1 - 7. THE P:S FOR THE FIXED
000146:                                                                                                  #  PHASE INFORMATION, OCTAL 0 - 127.  1 MUST BE 1.  AND AGAIN T STANDS FOR THE TBASE AND L FOR LONGBASE.  D THIS
000147:                                                                                                  #  TIME STANDS ONLY FOR PRIORITY SINCE THIS WILL BE CONSIDERED A JOB, AND IT MUST BE GIVEN DIRECTLY IF GIVEN.
000148:                                                                                                  #  AGAIN A STANDS FOR THE ADDRESS OF THE LOCATION TO BE RESTARTED, 1 IF THE 2CADR IS GIVEN, OR 0 IF IT IS TO BE
000149:                                                                                                  #  THE NEXT LOCATION.  (THE RETURN LOCATION OF PHASCHNG) EXAMPLES,
000150:                                                                                                  #        AD      TC      PHASCHNG        TBASE IS SET AND A RESTART CAUSE GROUP 3
000151:                                                                                                  #        AD+1    OCT     56043           TO START THE JOB AJOBAJOB WITH PRIORITY
000152:                                                                                                  #        AD+2    OCT     31000           31 AND THE FIRST ENTRY OF 3.4SPOT (WE CAN
000153:                                                                                                  #        AD+3    2CADR   AJOBAJOB        ASSUME IT IS A TASK SINCE WE SET TBASE3)
000154:                                                                                                  #        AD+4                            UPON RETURN FROM PHASCHNG CONTROL WOULD
000155:                                                                                                  #        AD+5                            GO TO AD+5
000156:
000157:                                                                                                  #        AD      TC      PHASCHNG        UPON A RESTART THE LAST DISPLAY WOULD BE
000158:                                                                                                  #        AD+1    OCT     10015           RESTARTED AND A JOB WITH THE PREVIOUSLY
000159:                                                                                                  #        AD+2                            STORED PRIORITY WOULD BE BEGUN AT AD+2
000160:                                                                                                  #                                        BY MEANS OF GROUP 5


000162:                                                                                                  #  THE NOVAC-FINDVAC CHOICE FOR JOBS HOLDS HERE ALSO - NEGATIVE PRIORITY CAUSES A NOVAC CALL, POSITIVE A FINDVAC.
000163:
000164:                                                                                                  #  SUMMARY OF BITS
000165:                                                                                                  #        TYPE A          TL0 00P PPP PPP GGG
000166:                                                                                                  #        TYPE B          TL1 DAP PPP PPP GGG
000167:                                                                                                  #        TYPE C          TL0 1AD XXX CJW GGG
000168:


000170:                                                                                                  #  2PHSCHNG IS USED WHEN ONE WISHES TO START UP A GROUP OR CHANGE A GROUP WHILE UNDER THE CONTROL OF A DIFFERENT
000171:                                                                                                  #  GROUP.  FOR EXAMPLE, CHANGE THE PHASE OF GROUP 3 WHILE THE PORTION OF THE PROGRAM IS UNDER GROUP 5.  ALL 2PHSCHNG
000172:                                                                                                  #  CALLS ARE MADE IN THE FOLLOWING MANNER,
000173:                                                                                                  #                TC      2PHSCHNG
000174:                                                                                                  #                OCT     XXXXX
000175:                                                                                                  #                OCT     YYYYY
000176:                                                                                                  #  WHERE OCT XXXXX MUST BE OF TYPE A AND OCT YYYYY MAY BE OF EITHER TYPE A OR TYPE B OR TYPE C.  THERE IS ONE
000177:                                                                                                  #  DIFFERENCE --- NOTE- IF LONGBASE IS TO BE SET THIS INFORMATION IS GIVEN IN THE OCT YYYYY INFORMATION, IT WILL
000178:                                                                                                  #  BE DISREGARDED IF GIVEN WITH THE OCT XXXXX INFORMATION.  A COUPLE OF EXAMPLES MAY HELP,
000179:                                                                                                  #        AD      TC      2PHSCHNG        SET TBASE3 AND IF A RESTART OCCURS START
000180:                                                                                                  #        AD+1    OCT     40083           THE TWO ENTRIES IN 3.8 TABLE LOCATION
000181:                                                                                                  #        AD+2    OCT     05025           THIS IS OF TYPE C, SET THE JOB TO BE
000182:                                                                                                  #        AD+3    OCT     18000           TO BE LOCATION AD+4, WITH A PRIORITY 18,
000183:                                                                                                  #        AD+4                            FOR GROUP 5 PHASE INFORMATION
000184:
000185:    5327                                           COUNT*   $$/PHASE
000186:    5327           00004        2PHSCHNG           INHINT                                         #  THE ENTRY FOR A DOUBLE PHASE CHANGE
000187:    5330           50002                           NDX      Q
000188:    5331           30000                           CA       0
000189:    5332           24002                           INCR     Q
000190:    5333           54072                           TS       TEMPP2
000191:
000192:    5334           74757                           MASK     OCT7
000193:    5335           60000                           DOUBLE
000194:    5336           54071                           TS       TEMPG2
000195:
000196:    5337           30072                           CA       TEMPP2
000197:    5340           75030                           MASK     OCT17770                              #  NEED ONLY 1770, BUT WHY GET A NEW CONST.
000198:    5341           00006                           EXTEND
000199:    5342           74740                           MP       BIT12
000200:    5343           56072                           XCH      TEMPP2
000201:
000202:    5344           74735                           MASK     BIT15
000203:    5345           54066                           TS       TEMPSW2                               #  INDICATES WHETHER TO SET TBASE OR NOT
000204:
000205:    5346           50002                           INDEX    Q
000206:    5347           30000                           CA       0
000207:    5350           24002                           INCR     Q
000208:    5351           54065                           TS       TEMPSW
000209:
000210:    5352           15363                           TCF      PHASJUMP
000211:
000212:    5353           00004        PHASCHNG           INHINT                                         #  NORMAL PHASCHNG ENTRY POINT.
000213:    5354           50002                           INDEX    Q
000214:    5355           30000                           CA       0
000215:    5356           24002                           INCR     Q
000216:    5357           00004        PHSCHNGA           INHINT                                         #  FIRST OCTAL PARAMETER IN A.


000218:    5360           54065                           TS       TEMPSW
000219:    5361           34753                           CA       ONE
000220:    5362           54066                           TS       TEMPSW2
000221:    5363           00006        PHASJUMP           EXTEND
000222:    5364           35367                           DCA      ADRPCHN2                              #  OFF TO SWITCHED BANK
000223:    5365           52006                           DTCB
000224:
000225:    5366  E3,1400                                  EBANK=   LST1
000226:    5366           02224 20103  ADRPCHN2           2CADR    PHSCHNG2
000227:
000228:    5370           22073        ONEORTWO           LXCH     TEMPBBCN
000229:    5371           22006                           LXCH     BBANK
000230:    5372           22073                           LXCH     TEMPBBCN
000231:
000232:    5373           75024                           MASK     OCT14000                              #  SEE WHAT KIND OF PHASE CHANGE IT IS
000233:    5374           10000                           CCS      A
000234:    5375           17753                           TCF      CHECKB                                #  IT IS OF TYPE :B:
000235:
000236:    5376           30062                           CA       TEMPP
000237:    5377           74745                           MASK     BIT7
000238:    5400           10000                           CCS      A                                     #  SHALL WE USE THE OLD PRIORITY
000239:    5401           15423                           TCF      GETPRIO                               #  NO GET A NEW PRIORITY (OR DELTA T)
000240:
000241:    5402           50061        OLDPRIO            NDX      TEMPG                                 #  USE THE OLD PRIORITY (OR DELTA T)
000242:    5403           31051                           CA       PHSPRDT1   -2
000243:    5404           54070                           TS       TEMPPR
000244:
000245:    5405           30062        CON1               CA       TEMPP                                 #  SEE IF A 2CADR IS GIVEN
000246:    5406           74744                           MASK     BIT8
000247:    5407           10000                           CCS      A
000248:    5410           15427                           TCF      GETNEWNM
000249:
000250:    5411           30002                           CA       Q
000251:    5412           54063                           TS       TEMPNM
000252:    5413           30006                           CA       BB
000253:    5414           00006                           EXTEND                                         #  PICK UP USERS SUPERBANK
000254:    5415           04007                           ROR      SUPERBNK
000255:    5416           54064                           TS       TEMPBB
000256:
000257:    5417           35422        TOCON2             CA       CON2ADR                               #  BACK TO SWITCHED BANK
000258:    5420           22073                           LXCH     TEMPBBCN
000259:    5421           52006                           DTCB
000260:
000261:    5422           02312        CON2ADR            GENADR   CON2
000262:
000263:    5423           50002        GETPRIO            NDX      Q                                     #  DON:T CARE IF DIRECT OR INDIRECT
000264:    5424           30000                           CA       0                                     #  LEAVE THAT DECISION TO RESTARTS
000265:    5425           24002                           INCR     Q                                     #  OBTAIN RETURN ADDRESS


000267:    5426           15404                           TCF      CON1       -1
000268:
000269:    5427           00006        GETNEWNM           EXTEND
000270:    5430           50002                           INDEX    Q
000271:    5431           30001                           DCA      0
000272:    5432           52064                           DXCH     TEMPNM
000273:    5433           34752                           CA       TWO
000274:    5434           26002                           ADS      Q                                     #  OBTAIN RETURN ADDRESS
000275:
000276:    5435           15417                           TCF      TOCON2
000277:
000278:    5436     5024               OCT14000           EQUALS   PRIO14
000279:    5436     0061               TEMPG              EQUALS   ITEMP1
000280:    5436     0062               TEMPP              EQUALS   ITEMP2
000281:    5436     0063               TEMPNM             EQUALS   ITEMP3
000282:    5436     0064               TEMPBB             EQUALS   ITEMP4
000283:    5436     0065               TEMPSW             EQUALS   ITEMP5
000284:    5436     0066               TEMPSW2            EQUALS   ITEMP6
000285:    5436     0070               TEMPPR             EQUALS   RUPTREG1
000286:    5436     0071               TEMPG2             EQUALS   RUPTREG2
000287:    5436     0072               TEMPP2             EQUALS   RUPTREG3
000288:
000289:    5436     0073               TEMPBBCN           EQUALS   RUPTREG4
000290:    5436  0000006               BB                 EQUALS   BBANK
000291:
000292: 14,3775                                           BANK     14
000293: 10,2000                                           SETLOC   PHASETAB
000294: 10,2000                                           BANK
000295:
000296: 10,2224  E3,1436                                  EBANK=   PHSNAME1
000297: 10,2224                                           COUNT*   $$/PHASE
000298: 10,2224           22073        PHSCHNG2           LXCH     TEMPBBCN
000299: 10,2225           30065                           CA       TEMPSW
000300: 10,2226           74757                           MASK     OCT7
000301: 10,2227           60000                           DOUBLE
000302: 10,2230           54061                           TS       TEMPG
000303:
000304: 10,2231           30065                           CA       TEMPSW
000305: 10,2232           75030                           MASK     OCT17770
000306: 10,2233           00006                           EXTEND
000307: 10,2234           74740                           MP       BIT12
000308: 10,2235           54062                           TS       TEMPP
000309:
000310: 10,2236           30065                           CA       TEMPSW
000311: 10,2237           74101                           MASK     OCT60000
000312: 10,2240           56065                           XCH      TEMPSW
000313: 10,2241           75024                           MASK     OCT14000
000314: 10,2242           10000                           CCS      A


000316: 10,2243           15370                           TCF      ONEORTWO
000317:
000318: 10,2244           30062                           CA       TEMPP                                 #  START STORING THE PHASE INFORMATION
000319: 10,2245           50061                           NDX      TEMPG
000320: 10,2246           54750                           TS       PHASE1     -2
000321:
000322: 10,2247           10066        BELOW1             CCS      TEMPSW2                               #  IS IT A PHASCHNG OR A 2PHSCHNG
000323: 10,2250           12264                           TCF      BELOW2                                #  IT:S A PHASCHNG
000324:
000325: 10,2251           12252                           TCF      +1                                    #  IT:S A 2PHSCHNG
000326: 10,2252           40072                           CS       TEMPP2
000327: 10,2253           22072                           LXCH     TEMPP2
000328: 10,2254           50071                           NDX      TEMPG2
000329: 10,2255           52750                           DXCH     -PHASE1    -2
000330:
000331: 10,2256           10066                           CCS      TEMPSW2
000332: 10,2257           12260                           NOOP                                           #  CAN:T GET HERE
000333: 10,2260           12264                           TCF      BELOW2
000334:
000335: 10,2261           40025                           CS       TIME1
000336: 10,2262           50071                           NDX      TEMPG2
000337: 10,2263           55050                           TS       TBASE1     -2
000338:
000339: 10,2264           10065        BELOW2             CCS      TEMPSW                                #  SEE IF WE SHOULD SET TBASE OR LONGBASE
000340: 10,2265           12300                           TCF      BELOW3                                #  SET LONGBASE ONLY
000341: 10,2266           12303                           TCF      BELOW4                                #  SET NEITHER
000342:
000343: 10,2267           40025                           CS       TIME1                                 #  SET TBASE TO BEGIN WITH
000344: 10,2270           50061                           NDX      TEMPG
000345: 10,2271           55050                           TS       TBASE1     -2
000346:
000347: 10,2272           30065                           CA       TEMPSW                                #  SHALL WE NOW SET LONGBASE
000348: 10,2273           62276                           AD       BIT14COM
000349: 10,2274           10000                           CCS      A
000350: 10,2275           12276                           NOOP                                           #  ***** CANT GET HERE *****
000351: 10,2276           17777        BIT14COM           OCT      17777                                 #  ***** CANT GET HERE *****
000352: 10,2277           12303                           TCF      BELOW4                                #  NO WE NEED ONLY SET TBASE
000353:
000354: 10,2300           00006        BELOW3             EXTEND                                         #  SET LONGBASE
000355: 10,2301           30025                           DCA      TIME2
000356: 10,2302           53151                           DXCH     LONGBASE
000357:
000358: 10,2303           40062        BELOW4             CS       TEMPP                                 #  AND STORE THE FINAL PART OF THE PHASE
000359: 10,2304           50061                           NDX      TEMPG
000360: 10,2305           54747                           TS       -PHASE1    -2
000361:
000362: 10,2306           30002                           CA       Q
000363: 10,2307           22073                           LXCH     TEMPBBCN
000364: 10,2310           00003                           RELINT
000365: 10,2311           52006                           DTCB


000367: 10,2312           22073        CON2               LXCH     TEMPBBCN
000368:
000369: 10,2313           30062                           CA       TEMPP
000370: 10,2314           50061                           NDX      TEMPG
000371: 10,2315           54750                           TS       PHASE1     -2
000372:
000373: 10,2316           30070                           CA       TEMPPR
000374: 10,2317           50061                           NDX      TEMPG
000375: 10,2320           55051                           TS       PHSPRDT1   -2
000376:
000377: 10,2321           00006                           EXTEND
000378: 10,2322           30064                           DCA      TEMPNM
000379: 10,2323           50061                           NDX      TEMPG
000380: 10,2324           53435                           DXCH     PHSNAME1   -2
000381:
000382: 10,2325           12247                           TCF      BELOW1
000383:
000384:    7753                                           BLOCK    03
000385:    6000                                           SETLOC   FFTAG6
000386:    6000                                           BANK
000387:
000388:    7753                                           COUNT*   $$/PHASE
000389:    7753           74740        CHECKB             MASK     BIT12                                 #  SINCE THIS IS OF TYPE B, THIS BIT SHOULD
000390:    7754           10000                           CCS      A                                     #  BE HERE IF WE ARE TO GET A NEW PRIORITY
000391:    7755           15423                           TCF      GETPRIO                               #  IT IS, SO GET NEW PRIORITY
000392:
000393:    7756           15402                           TCF      OLDPRIO                               #  IT ISN:T, USE THE OLD PRIORITY
000394:
000395:

End of include-file PHASE_TABLE_MAINTENANCE.agc.  Parent file is MAIN.agc


