
Source Code


000002:                                                                                                  ## Copyright:   Public domain.
000003:                                                                                                  ## Filename:    PLANETARY_INERTIAL_ORIENTATION.agc
000004:                                                                                                  ## Purpose:     A section of LM131 revision 1.
000005:                                                                                                  ##              It is part of the reconstructed source code for the final
000006:                                                                                                  ##              release of the flight software for the Lunar Module's (LM)
000007:                                                                                                  ##              Apollo Guidance Computer (AGC) for Apollo 13. The code has
000008:                                                                                                  ##              been reconstructed from a listing of Luminary 131 and a dump
000009:                                                                                                  ##              of a core rope memory module B5, part number 2010802-171,
000010:                                                                                                  ##              which is the only module different between LM131 revision 1
000011:                                                                                                  ##              and Luminary 131. The executable generated from this source
000012:                                                                                                  ##              has been verified against the module dump, so while the names,
000013:                                                                                                  ##              comments, and ordering may not be exactly correct, the
000014:                                                                                                  ##              resulting binary is.
000015:                                                                                                  ## Reference:   pp. 1134-1142
000016:                                                                                                  ## Assembler:   yaYUL
000017:                                                                                                  ## Contact:     Ron Burkey <info@sandroid.org>.
000018:                                                                                                  ## Website:     www.ibiblio.org/apollo/index.html
000019:                                                                                                  ## Mod history: 2022-10-28 MAS  Created from Luminary 131.
000020:


000022:                                                                                                  #  ..... RP-TO-R SUBROUTINE .....
000023:                                                                                                  #  SUBROUTINE TO CONVERT RP (VECTOR IN PLANETARY COORDINATE SYSTEM, EITHER
000024:                                                                                                  #  EARTH-FIXED OR MOON-FIXED) TO R (SAME VECTOR IN THE BASIC REF. SYSTEM)
000025:                                                                                                  #        R = MT(T) * (RP + LP X RP)      MT = M MATRIX TRANSPOSE
000026:
000027:                                                                                                  #  CALLING SEQUENCE
000028:                                                                                                  #        L       CALL
000029:                                                                                                  #        L+1             RP-TO-R
000030:
000031:                                                                                                  #  SUBROUTINES USED
000032:                                                                                                  #        EARTHMX, MOONMX, EARTHL
000033:
000034:                                                                                                  #        ITEMS AVAILABLE FROM LAUNCH DATA
000035:                                                                                                  #                504LM = THE LIBRATION VECTOR L OF THE MOON AT TIME TIMSUBL, EXPRESSED
000036:                                                                                                  #                IN THE MOON-FIXED COORD. SYSTEM         RADIANS B0
000037:
000038:                                                                                                  #        ITEMS NECESSARY FOR SUBR. USED (SEE DESCRIPTION OF SUBR.)
000039:
000040:                                                                                                  #  INPUT
000041:                                                                                                  #        MPAC = 0 FOR EARTH, NON-ZERO FOR MOON
000042:                                                                                                  #        0-5D = RP VECTOR
000043:                                                                                                  #        6-7D = TIME
000044:
000045:                                                                                                  #  OUTPUT
000046:                                                                                                  #        MPAC = R VECTOR METERS B-29 FOR EARTH, B-27 FOR MOON
000047:
000048: 26,2000                                           SETLOC   PLANTIN1
000049: 26,2000                                           BANK
000050:
000051: 26,3716                                           COUNT*   $$/LUROT
000052:
000053: 26,3716           46020        RP-TO-R            STQ      BHIZ
000054: 26,3717           00050                                    RPREXIT
000055: 26,3720           55733                                    RPTORA
000056: 26,3721           77624                           CALL                                           #  COMPUTE M MATRIX FOR MOON
000057: 26,3722           51730                                    MOONMX                                #  LP=LM FOR MOON        RADIANS B0
000058: 26,3723           77775                           VLOAD
000059: 26,3724           02013                                    504LM
000060: 26,3725           53235        RPTORB             VXV      VAD
000061: 26,3726           00001                                    504RPR
000062: 26,3727           00001                                    504RPR
000063: 26,3730           52105                           VXM      GOTO
000064: 26,3731           00025                                    MMATRIX                               #  MPAC=R=MT(T)*(RP+LPXRP)
000065: 26,3732           51716                                    RPRPXXXX                              #  RESET PUSHLOC TO 0 BEFORE EXITING
000066: 26,3733           77624        RPTORA             CALL                                           #  EARTH COMPUTATIONS
000067: 26,3734           55743                                    EARTHMX                               #  M MATRIX B-1
000068: 26,3735           77624                           CALL
000069: 26,3736           15761                                    EARTHL                                #  L VECTOR RADIANS B0
000070: 26,3737           76521                           MXV      VSL1                                  #  LP=M(T)*L     RAD B-0
000071: 26,3740           00025                                    MMATRIX


000073: 26,3741           77650                           GOTO
000074: 26,3742           55725                                    RPTORB
000075: 24,2000                                           SETLOC   PLANTIN
000076: 24,2000                                           BANK
000077: 24,3700                                           COUNT*   $$/LUROT
000078:


000080:                                                                                                  #  ..... R-TO-RP SUBROUTINE .....
000081:                                                                                                  #  SUBROUTINE TO CONVERT R (VECTOR IN REFERENCE COORD. SYSTEM) TO RP
000082:                                                                                                  #  (VECTOR IN PLANETARY COORD SYSTEM) EITHER EARTH-FIXED OR MOON-FIXED
000083:                                                                                                  #        RP = M(T) * (R - L X R)
000084:
000085:                                                                                                  #  CALLING SEQUENCE
000086:                                                                                                  #        L       CALL
000087:                                                                                                  #        L+1             R-TO-RP
000088:
000089:                                                                                                  #  SUBROUTINES USED
000090:                                                                                                  #        EARTHMX, MOONMX, EARTHL
000091:
000092:                                                                                                  #  INPUT
000093:                                                                                                  #        MPAC = 0 FOR EARTH, NON-ZERO FOR MOON
000094:                                                                                                  #        0-5D = R VECTOR
000095:                                                                                                  #        6-7D = TIME
000096:
000097:                                                                                                  #        ITEMS AVAILABLE FROM LAUNCH DATA
000098:                                                                                                  #                504LM = THE LIBRATION VECTOR L OF THE MOON AT TIME TIMSUBL, EXPRESSED
000099:                                                                                                  #                IN THE MOON-FIXED COORD. SYSTEM                 RADIANS B0
000100:
000101:                                                                                                  #        ITEMS NECESSARY FOR SUBROUTINES USED (SEE DESCRIPTION OF SUBR.)
000102:
000103:                                                                                                  #  OUTPUT
000104:                                                                                                  #        MPAC = RP VECTOR METERS B-29 FOR EARTH, B-27 FOR MOON
000105:
000106: 24,3700           46020        R-TO-RP            STQ      BHIZ
000107: 24,3701           00050                                    RPREXIT
000108: 24,3702           51722                                    RTORPA
000109: 24,3703           77624                           CALL
000110: 24,3704           51730                                    MOONMX
000111: 24,3705           61375                           VLOAD    VXM
000112: 24,3706           02013                                    504LM                                 #  LP=LM
000113: 24,3707           00025                                    MMATRIX
000114: 24,3710           77772                           VSL1                                           #  L = MT(T)*LP          RADIANS B0
000115: 24,3711           51235        RTORPB             VXV      BVSU
000116: 24,3712           00001                                    504RPR
000117: 24,3713           00001                                    504RPR
000118: 24,3714           77721                           MXV                                            #  M(T)*(R-LXR)          B-2
000119: 24,3715           00025                                    MMATRIX
000120: 24,3716           40372        RPRPXXXX           VSL1     SETPD
000121: 24,3717           00001                                    0D
000122: 24,3720           77650                           GOTO
000123: 24,3721           00050                                    RPREXIT
000124: 24,3722           77624        RTORPA             CALL                                           #  EARTH COMPUTATIONS
000125: 24,3723           55743                                    EARTHMX
000126: 24,3724           77624                           CALL
000127: 24,3725           15761                                    EARTHL
000128: 24,3726           77650                           GOTO                                           #  MPAC=L=(-AX,-AY,0)    RAD B-0
000129: 24,3727           51711                                    RTORPB
000130:


000132:                                                                                                  #  ..... MOONMX SUBROUTINE .....
000133:                                                                                                  #  SUBROUTINE TO COMPUTE THE TRANSFORMATION MATRIX M FOR THE MOON
000134:
000135:                                                                                                  #  CALLING SEQUENCE
000136:                                                                                                  #        L       CALL
000137:                                                                                                  #        L+1             MOONMX
000138:
000139:                                                                                                  #  SUBROUTINES USED
000140:                                                                                                  #        NEWANGLE
000141:
000142:                                                                                                  #  INPUT
000143:                                                                                                  #        6-7D = TIME
000144:
000145:                                                                                                  #        ITEMS AVAILABLE FROM LAUNCH DATA
000146:                                                                                                  #                BSUBO, BDOT
000147:                                                                                                  #                TIMSUBO, NODIO, NODDOT, FSUBO, FDOT
000148:                                                                                                  #                COSI = COS(I)   B-1
000149:                                                                                                  #                SINI = SIN(I)   B-1
000150:                                                                                                  #                I IS THE ANGLE BETWEEN THE MEAN LUNAR EQUATORIAL PLANE AND THE
000151:                                                                                                  #                PLANE OF THE ECLIPTIC (1 DEGREE 32.1 MINUTES)
000152:
000153:                                                                                                  #  OUTPUT
000154:                                                                                                  #        MMATRIX = 3X3 M MATRIX          B-1 (STORED IN VAC AREA)
000155:
000156: 24,3730           40220        MOONMX             STQ      SETPD
000157: 24,3731           00051                                    EARTHMXX
000158: 24,3732           00011                                    8D
000159: 24,3733           77770                           AXT,1                                          #  B REQUIRES SL 0, SL 5 IN NEWANGLE
000160: 24,3734           00005                                    5
000161: 24,3735           65345                           DLOAD    PDDL                                  #  PD 10D        8-9D=BSUBO
000162: 24,3736           14017                                    BSUBO                                 #                10-11D=BDOT
000163: 24,3737           14011                                    BDOT
000164: 24,3740           45006                           PUSH     CALL                                  #  PD 12D
000165: 24,3741           53732                                    NEWANGLE                              #  EXIT WITH PD 8D AND MPAC= B   REVS B0
000166: 24,3742           71406                           PUSH     COS                                   #  PD 10D
000167: 24,3743           14041                           STODL    COB                                   #  PD 8D         COS(B) B-1
000168: 24,3744           77756                           SIN                                            #                SIN(B) B-1
000169: 24,3745           14043                           STODL    SOB                                   #  SETUP INPUT FOR NEWANGLE
000170: 24,3746           14015                                    FSUBO                                 #                        8-9D=FSUBO
000171: 24,3747           41525                           PDDL     PUSH                                  #  PD 10D THEN 12D       10-11D=FDOT
000172: 24,3750           14007                                    FDOT
000173: 24,3751           45170                           AXT,1    CALL                                  #  F REQUIRES SL 1, SL 6 IN NEWANGLE
000174: 24,3752           00004                                    4
000175: 24,3753           53732                                    NEWANGLE                              #  EXIT WITH PD 8D AND MPAC= F REVS B0
000176: 24,3754           14027                           STODL    AVECTR     +2                         #  SAVE F TEMP
000177: 24,3755           14013                                    NODIO                                 #                        8-9D=NODIO
000178: 24,3756           41525                           PDDL     PUSH                                  #  PD 10D THEN 12D       10-11D=NODDOT
000179: 24,3757           14005                                    NODDOT                                #                        MPAC=T
000180: 24,3760           45170                           AXT,1    CALL                                  #  NODE REQUIRES SL 0, SL 5 IN NEWANGLE
000181: 24,3761           00005                                    5
000182: 24,3762           53732                                    NEWANGLE                              #  EXIT WITH PD 8D AND MPAC= NODI REVS B0


000184: 24,3763           71406                           PUSH     COS                                   #  PD 10D        8-9D= NODI REVS B0
000185: 24,3764           77606                           PUSH                                           #  PD 12D        10-11D= COS(NODI) B-1
000186: 24,3765           00025                           STORE    AVECTR
000187: 24,3766           76405                           DMP      SL1R
000188: 24,3767           00041                                    COB                                   #                        COS(NODI) B-1
000189: 24,3770           14035                           STODL    BVECTR     +2                         #  PD 10D  20-25D=AVECTR=COB*SIN(NODI)
000190: 24,3771           76405                           DMP      SL1R                                  #                        SOB*SIN(NODI)
000191: 24,3772           00043                                    SOB
000192: 24,3773           14037                           STODL    BVECTR     +4                         #  PD 8D
000193: 24,3774           41556                           SIN      PUSH                                  #  PD 10D                -SIN(NODI) B-1
000194: 24,3775           52076                           DCOMP    GOTO                                  #          26-31D=BVECTR=COV*COS(NODI)
000195: 24,3776           53653                                    MOONMXA
000196:
000197: 25,3653                                           BANK     25
000198: 25,2000                                           SETLOC   PLANTIN3
000199: 25,2000                                           BANK
000200: 25,3653                                           COUNT*   $$/LUROT
000201:
000202: 25,3653           14033        MOONMXA            STODL    BVECTR                                #  PD 8D                 SOB*COS(NODI)
000203: 25,3654           00027                                    AVECTR     +2                         #  MOVE F FROM TEMP LOC. TO 504F
000204: 25,3655           14007                           STODL    504F
000205: 25,3656           76405                           DMP      SL1R
000206: 25,3657           00041                                    COB
000207: 25,3660           14027                           STODL    AVECTR     +2
000208: 25,3661           00011                                    SINNODI                               #  8-9D=SIN(NODI) B-1
000209: 25,3662           76405                           DMP      SL1R
000210: 25,3663           00043                                    SOB
000211: 25,3664           14031                           STODL    AVECTR     +4                         #                        0
000212: 25,3665           06524                                    HI6ZEROS                              #        8-13D= CVECTR=  -SOB B-1
000213: 25,3666           57525                           PDDL     DCOMP                                 #  PD 10D                COB
000214: 25,3667           00043                                    SOB
000215: 25,3670           63325                           PDDL     PDVL                                  #  PD 12D THEN PD 14D
000216: 25,3671           00041                                    COB
000217: 25,3672           00033                                    BVECTR
000218: 25,3673           63361                           VXSC     PDVL                                  #  PD 20D        BVECTR*SINI B-2
000219: 25,3674           14003                                    SINI
000220: 25,3675           00011                                    CVECTR
000221: 25,3676           53361                           VXSC     VAD                                   #  PD 14D        CVECTR*COSI B-2
000222: 25,3677           14001                                    COSI
000223: 25,3700           77772                           VSL1
000224: 25,3701           24041                           STOVL    MMATRIX    +12D                       #  PD 8D  M2=BVECTR*SINI+CVECTR*COSI B-1
000225: 25,3702           63361                           VXSC     PDVL                                  #  PD 14D
000226: 25,3703           14003                                    SINI                                  #                CVECTR*SINI B-2
000227: 25,3704           00033                                    BVECTR
000228: 25,3705           52361                           VXSC     VSU                                   #  PD 8D         BVECTR*COSI B-2
000229: 25,3706           14001                                    COSI
000230: 25,3707           65372                           VSL1     PDDL                                  #  PD 14D
000231: 25,3710           00007                                    504F                                  #  8-13D=DVECTR=BVECTR*COSI-CVECTR*SINI B-1
000232: 25,3711           74346                           COS      VXSC
000233: 25,3712           00011                                    DVECTR
000234: 25,3713           73525                           PDDL     SIN                                   #  PD 20D  14-19D= DVECTR*COSF B-2


000236: 25,3714           00007                                    504F
000237: 25,3715           52361                           VXSC     VSU                                   #  PD 14D        AVECTR*SINF B-2
000238: 25,3716           00025                                    AVECTR
000239: 25,3717           77772                           VSL1
000240: 25,3720           14033                           STODL    MMATRIX    +6                         #  M1= AVECTR*SINF-DVECTR*COSF B-1
000241: 25,3721           00007                                    504F
000242: 25,3722           74356                           SIN      VXSC                                  #  PD 8D
000243: 25,3723           71525                           PDDL     COS                                   #  PD 14D  8-13D=DVECTR*SINF B-2
000244: 25,3724           00007                                    504F
000245: 25,3725           53361                           VXSC     VAD                                   #  PD 8D         AVECTR*COSF B-2
000246: 25,3726           00025                                    AVECTR
000247: 25,3727           57572                           VSL1     VCOMP
000248: 25,3730           34025                           STCALL   MMATRIX                               #  M0= -(AVECTR*COSF+DVECTR*SINF) B-1
000249: 25,3731           00051                                    EARTHMXX
000250:
000251:                                                                                                  #  COMPUTE X=X0+(XDOT)(T+T0)
000252:                                                                                                  #  8-9D= XO (REVS B-0), PUSHLOC SET AT 12D
000253:                                                                                                  #  10-11D=XDOT (REVS/CSEC) SCALED B+23 FOR WEARTH,B+28 FOR NODDOT AND BDOT
000254:                                                                                                  #                        AND B+27 FOR FDOT
000255:                                                                                                  #  X1=DIFFERENCE IN 23 AND SCALING OF XDOT, =0 FOR WEARTH,5 FOR NODDOT AND
000256:                                                                                                  #                                        BDOT AND 4 FOR FDOT
000257:                                                                                                  #  6-7D=T (CSEC B-28), TIMSUBO= (CSEC B-42 TRIPLE PREC.)
000258:
000259: 25,3732           54345        NEWANGLE           DLOAD    SR                                    #  ENTER PD 12D
000260: 25,3733           00007                                    6D
000261: 25,3734           20617                                    14D
000262: 25,3735           72371                           TAD      TLOAD                                 #  CHANGE MODE TO TP
000263: 25,3736           01707                                    TIMSUBO
000264: 25,3737           00155                                    MPAC
000265: 25,3740           14017                           STODL    TIMSUBM                               #  T+T0 CSEC B-42
000266: 25,3741           00020                                    TIMSUBM    +1
000267: 25,3742           77605                           DMP                                            #  PD 10D        MULT BY XDOT IN 10-11D
000268: 25,3743           43257                           SL*      DAD                                   #  PD 8D         ADD XO IN 8-9D AFTER SHIFTING
000269: 25,3744           20206                                    5,1                                   #                SUCH THAT SCALING IS B-0
000270: 25,3745           67206                           PUSH     SLOAD                                 #  PD 10D  SAVE PARTIAL (X0+XDOT*T) IN 8-9D
000271: 25,3746           00017                                    TIMSUBM
000272: 25,3747           41261                           SL       DMP
000273: 25,3750           20212                                    9D
000274: 25,3751           00013                                    10D                                   #  XDOT
000275: 25,3752           43257                           SL*      DAD                                   #  PD 8D         SHIFT SUCH THAT THIS PART OF X
000276: 25,3753           20213                                    10D,1                                 #                IS SCALED REVS/CSEC B-0
000277: 25,3754           77600                           BOV                                            #  TURN OFF OVERFLOW IF SET BY SHIFT
000278: 25,3755           53756                                    +1                                    #  INSTRUCTION BEFORE EXITING
000279: 25,3756           77616                           RVQ                                            #  MPAC=X= X0+(XDOT)(T+T0)       REVS B0
000280:


000282:                                                                                                  #  ..... EARTHMX SUBROUTINE .....
000283:                                                                                                  #  SUBROUTINE TO COMPUTE THE TRANSFORMATION MATRIX M FOR THE EARTH
000284:
000285:                                                                                                  #  CALLING SEQUENCE
000286:                                                                                                  #        L       CALL
000287:                                                                                                  #        L+1             EARTHMX
000288:
000289:                                                                                                  #  SUBROUTINES USED
000290:                                                                                                  #        NEWANGLE
000291:
000292:                                                                                                  #  INPUT
000293:                                                                                                  #        INPUT AVAILABLE FROM LAUNCH DATA        AZO REVS B-0
000294:                                                                                                  #                                                TEPHEM CSEC B-42
000295:                                                                                                  #        6-7D= TIME CSEC B-28
000296:
000297:                                                                                                  #  OUTPUT
000298:                                                                                                  #        MMATRIX= 3X3 M MATRIX B-1 (STORED IN VAC AREA)
000299:
000300: 26,3743                                           BANK     26
000301: 26,2000                                           SETLOC   PLANTIN1
000302: 26,2000                                           BANK
000303: 26,3743                                           COUNT*   $$/LUROT
000304:
000305: 26,3743           40220        EARTHMX            STQ      SETPD                                 #  SET 8-9D=AZO
000306: 26,3744           00051                                    EARTHMXX
000307: 26,3745           00011                                    8D                                    #  10-11D=WEARTH
000308: 26,3746           77770                           AXT,1                                          #  FOR SL 5, AND SL 10 IN NEWANGLE
000309: 26,3747           00000                                    0
000310: 26,3750           65345                           DLOAD    PDDL                                  #  LEAVING PD SET AT 12D FOR NEWANGLE
000311: 26,3751           01712                                    AZO
000312: 26,3752           14021                                    WEARTH
000313: 26,3753           45006                           PUSH     CALL
000314: 26,3754           53732                                    NEWANGLE
000315: 26,3755           41401                           SETPD    PUSH                                  #  18-19D=504AZ
000316: 26,3756           00023                                    18D                                   #                         COS(AZ)   SIN(AZ)     0
000317: 26,3757           65346                           COS      PDDL                                  #  20-37D=  MMATRIX=     -SIN(AZ)   COS(AZ)     0    B-1
000318: 26,3760           00023                                    504AZ                                 #                            0         0        1
000319: 26,3761           65356                           SIN      PDDL
000320: 26,3762           06524                                    HI6ZEROS
000321: 26,3763           73525                           PDDL     SIN
000322: 26,3764           00023                                    504AZ
000323: 26,3765           65276                           DCOMP    PDDL
000324: 26,3766           00023                                    504AZ
000325: 26,3767           63346                           COS      PDVL
000326: 26,3770           06524                                    HI6ZEROS
000327: 26,3771           41525                           PDDL     PUSH
000328: 26,3772           06522                                    HIDPHALF
000329: 26,3773           77650                           GOTO
000330: 26,3774           00051                                    EARTHMXX
000331:


000333:                                                                                                  #  ..... EARTHL SUBROUTINE .....
000334:                                                                                                  #  SUBROUTINE TO COMPUTE L VECTOR FOR EARTH
000335:
000336:                                                                                                  #  CALLING SEQUENCE
000337:                                                                                                  #        L       CALL
000338:                                                                                                  #        L+1             EARTHL
000339:
000340:                                                                                                  #  INPUT
000341:                                                                                                  #        AXO,AYO SET AT LAUNCH TIME WITH AYO IMMEDIATELY FOLLOWING AXO IN CORE
000342:
000343:                                                                                                  #  OUTPUT
000344:                                                                                                  #                -AX
000345:                                                                                                  #        MPAC=   -AY     RADIANS B-0
000346:                                                                                                  #                  0
000347:
000348: 06,3761                                           BANK     06
000349: 06,2000                                           SETLOC   EARTHLOC
000350: 06,2000                                           BANK
000351: 06,3761                                           COUNT*   $$/LUROT
000352:
000353: 06,3761           57545        EARTHL             DLOAD    DCOMP
000354: 06,3762           01716                                    AXO
000355: 06,3763           14017                           STODL    504LPL
000356: 06,3764           01714                                    -AYO
000357: 06,3765           14021                           STODL    504LPL     +2
000358: 06,3766           24007                                    LO6ZEROS
000359: 06,3767           24023                           STOVL    504LPL     +4
000360: 06,3770           00017                                    504LPL
000361: 06,3771           77616                           RVQ
000362:


000364:                                                                                                  #  CONSTANTS AND ERASABLE ASSIGNMENTS
000365:
000366: 06,3772  12,2004               1B1                =        DP1/2                                 #  1 SCALED B-1
000367: 06,3772  0000050               RPREXIT            =        S1                                    #  R-TO-RP AND RP-TO-R SUBR EXIT
000368: 06,3772  0000051               EARTHMXX           =        S2                                    #  EARTHMX, MOONMX SUBR. EXITS
000369: 06,3772                        504RPR             =        0D                                    #  6 REGS        R OR RP VECTOR
000370: 06,3772                        SINNODI            =        8D                                    #  2             SIN(NODI)
000371: 06,3772                        DVECTR             =        8D                                    #  6             D VECTOR MOON
000372: 06,3772                        CVECTR             =        8D                                    #  6             C VECTR MOON
000373: 06,3772                        504AZ              =        18D                                   #  2             AZ
000374: 06,3772                        TIMSUBM            =        14D                                   #  3             TIME SUB M (MOON) T+T0 IN GETAZ
000375: 06,3772                        504LPL             =        14D                                   #  6             L OR LP VECTOR
000376: 06,3772                        AVECTR             =        20D                                   #  6             A VECTOR (MOON)
000377: 06,3772                        BVECTR             =        26D                                   #  6             B VECTOR (MOON)
000378: 06,3772                        MMATRIX            =        20D                                   #  18            M MATRIX
000379: 06,3772                        COB                =        32D                                   #  2             COS(B) B-1
000380: 06,3772                        SOB                =        34D                                   #  2             SIN(B) B-1
000381: 06,3772                        504F               =        6D                                    #  2             F(MOON)
000382:

End of include-file PLANETARY_INERTIAL_ORIENTATION.agc.  Parent file is MAIN.agc


