
Source Code


000002:                                                                                                  ## Copyright:   Public domain.
000003:                                                                                                  ## Filename:    R31.agc
000004:                                                                                                  ## Purpose:     A section of LM131 revision 1.
000005:                                                                                                  ##              It is part of the reconstructed source code for the final
000006:                                                                                                  ##              release of the flight software for the Lunar Module's (LM)
000007:                                                                                                  ##              Apollo Guidance Computer (AGC) for Apollo 13. The code has
000008:                                                                                                  ##              been reconstructed from a listing of Luminary 131 and a dump
000009:                                                                                                  ##              of a core rope memory module B5, part number 2010802-171,
000010:                                                                                                  ##              which is the only module different between LM131 revision 1
000011:                                                                                                  ##              and Luminary 131. The executable generated from this source
000012:                                                                                                  ##              has been verified against the module dump, so while the names,
000013:                                                                                                  ##              comments, and ordering may not be exactly correct, the
000014:                                                                                                  ##              resulting binary is.
000015:                                                                                                  ## Reference:   pp. 705-710
000016:                                                                                                  ## Assembler:   yaYUL
000017:                                                                                                  ## Contact:     Ron Burkey <info@sandroid.org>.
000018:                                                                                                  ## Website:     www.ibiblio.org/apollo/index.html
000019:                                                                                                  ## Mod history: 2022-10-28 MAS  Created from Luminary 131.
000020:


000022: 40,3737                                           BANK     40
000023: 40,2000                                           SETLOC   R31LOC
000024: 40,2000                                           BANK
000025:
000026: 40,3737                                           COUNT*   $$/R31
000027:
000028: 40,3737           35015        R31CALL            CAF      PRIO3
000029: 40,3740           05105                           TC       FINDVAC
000030: 40,3741  E7,1470                                  EBANK=   SUBEXIT
000031: 40,3741           03121 76067                     2CADR    V83CALL
000032:
000033: 40,3743           05221        DSPDELAY           TC       FIXDELAY
000034: 40,3744           00144                           DEC      100        B-14
000035: 40,3745           31043                           CA       EXTVBACT
000036: 40,3746           74740                           MASK     BIT12
000037: 40,3747           00006                           EXTEND
000038: 40,3750           13743                           BZF      DSPDELAY
000039:
000040: 40,3751           35017                           CAF      PRIO5
000041: 40,3752           05072                           TC       NOVAC
000042: 40,3753  E7,1611                                  EBANK=   TSTRT
000043: 40,3753           03113 76067                     2CADR    DISPN5X
000044:
000045: 40,3755           15261                           TCF      TASKOVER
000046:
000047: 37,3113                                           BANK     37
000048: 37,2000                                           SETLOC   R31
000049: 37,2000                                           BANK
000050: 37,3113                                           COUNT*   $$/R31
000051:
000052: 37,3113           33407        DISPN5X            CAF      V16N54
000053: 37,3114           04616                           TC       BANKCALL
000054: 37,3115           20334                           CADR     GOMARKF
000055: 37,3116           05563                           TC       B5OFF
000056: 37,3117           05563                           TC       B5OFF
000057: 37,3120           13113                           TCF      DISPN5X
000058:
000059: 37,3121           40103        V83CALL            CS       FLAGWRD7                              #  TEST AVERAGE G FLAG
000060: 37,3122           74747                           MASK     AVEGFBIT
000061: 37,3123           00006                           EXTEND
000062: 37,3124           13377                           BZF      MUNG?                                 #  ON - TEST MUNFLAG
000063:
000064: 37,3125           40104                           CS       FLAGWRD8
000065: 37,3126           74744                           MASK     SURFFBIT
000066: 37,3127           00006                           EXTEND
000067: 37,3130           13403                           BZF      ONEBASE                               #  ON SURFACE - BYPASS LEMPREC
000068:
000069: 37,3131           06042                           TC       INTPRET                               #  EXTRAPOLATE BOTH STATE VECTORS
000070: 37,3132           77634                           RTB


000072: 37,3133           21574                                    LOADTIME
000073: 37,3134           34041                           STCALL   TDEC1
000074: 37,3135           27056                                    LEMPREC                               #  PRECISION BASE VECTOR FOR LM
000075: 37,3136           77775                           VLOAD
000076: 37,3137           00017                                    RATT1
000077: 37,3140           26170                           STOVL    BASETHP
000078: 37,3141           00025                                    VATT1
000079: 37,3142           16105                           STODL    BASETHV
000080: 37,3143           00015                                    TAT
000081: 37,3144           02114        DOCMBASE           STORE    BASETIME                              #  PRECISION BASE VECTOR FOR CM
000082: 37,3145           34041                           STCALL   TDEC1
000083: 37,3146           27042                                    CSMPREC
000084: 37,3147           77775                           VLOAD
000085: 37,3150           00017                                    RATT1
000086: 37,3151           26140                           STOVL    BASEOTP
000087: 37,3152           00025                                    VATT1
000088: 37,3153           02120                           STORE    BASEOTV
000089: 37,3154           77776                           EXIT
000090:
000091: 37,3155           40103        REV83              CS       FLAGWRD7
000092: 37,3156           74747                           MASK     AVEGFBIT
000093: 37,3157           00006                           EXTEND
000094: 37,3160           13326                           BZF      GETRVN                                #  IF AVEGFLAG SET, USE RN,VN
000095:
000096: 37,3161           40104                           CS       FLAGWRD8
000097: 37,3162           74744                           MASK     SURFFBIT
000098: 37,3163           00006                           EXTEND
000099: 37,3164           13370                           BZF      R31SURF                               #  IF ON SURFACE, USE LEMAREC
000100:
000101: 37,3165           06042                           TC       INTPRET                               #  DO CONIC EXTRAPOLATION FOR BOTH VEHICLES
000102: 37,3166           77634                           RTB
000103: 37,3167           21574                                    LOADTIME
000104: 37,3170           34041                           STCALL   TDEC1
000105: 37,3171           27410                                    INTSTALL
000106: 37,3172           43175                           VLOAD    CLEAR
000107: 37,3173           02170                                    BASETHP
000108: 37,3174           00263                                    MOONFLAG
000109: 37,3175           25535                           STOVL    RCV
000110: 37,3176           02105                                    BASETHV
000111: 37,3177           15543                           STODL    VCV
000112: 37,3200           02114                                    BASETIME
000113: 37,3201           43014                           BOF      SET                                   #  GET APPROPRIATE MOONFLAG SETTING
000114: 37,3202           04344                                    MOONTHIS
000115: 37,3203           77205                                    +2
000116: 37,3204           00063                                    MOONFLAG
000117: 37,3205           77614                           SET
000118: 37,3206           01473                                    INTYPFLG                              #  CONIC EXTRAP.
000119: 37,3207           35517                           STCALL   TET
000120: 37,3210           27106                                    INTEGRVS                              #  INTEGRATION --- AT LAST ---
000121: 37,3211           77775        OTHCONIC           VLOAD


000123: 37,3212           00001                                    RATT
000124: 37,3213           26207                           STOVL    RONE
000125: 37,3214           00007                                    VATT
000126: 37,3215           36215                           STCALL   VONE                                  #  GET SET FOR CONIC EXTRAP., OTHER.
000127: 37,3216           27410                                    INTSTALL
000128: 37,3217           71214                           SET      DLOAD
000129: 37,3220           01473                                    INTYPFLG
000130: 37,3221           00015                                    TAT
000131: 37,3222           00041        OTHINT             STORE    TDEC1
000132: 37,3223           43175                           VLOAD    CLEAR
000133: 37,3224           02140                                    BASEOTP
000134: 37,3225           00263                                    MOONFLAG
000135: 37,3226           25535                           STOVL    RCV
000136: 37,3227           02120                                    BASEOTV
000137: 37,3230           15543                           STODL    VCV
000138: 37,3231           02114                                    BASETIME
000139: 37,3232           43014                           BOF      SET
000140: 37,3233           04344                                    MOONTHIS
000141: 37,3234           77236                                    +2
000142: 37,3235           00063                                    MOONFLAG
000143: 37,3236           35517                           STCALL   TET
000144: 37,3237           27106                                    INTEGRVS
000145: 37,3240           52375        COMPDISP           VLOAD    VSU
000146: 37,3241           00001                                    RATT
000147: 37,3242           02207                                    RONE
000148: 37,3243           65234                           RTB      PDDL
000149: 37,3244           21725                                    NORMUNX1                              #  UNIT(RANGE) TO PD 0-5
000150: 37,3245           00045                                    36D
000151: 37,3246           77657                           SL*                                            #  RESCALE AFTER NORMUNIT
000152: 37,3247           20201                                    0,1
000153: 37,3250           26201                           STOVL    RANGE                                 #  SCALED 2(29)M
000154: 37,3251           00007                                    VATT
000155: 37,3252           50251                           VSU      DOT                                   #  (VCM-VLM).UNIT(LOS), PD=0
000156: 37,3253           02215                                    VONE
000157: 37,3254           77752                           SL1                                            #  SCALED 2(7)M/CS
000158: 37,3255           26203                           STOVL    RRATE
000159: 37,3256           02207                                    RONE
000160: 37,3257           63256                           UNIT     PDVL                                  #  UNIT(R) TO PD 0-5
000161: 37,3260           06516                                    UNITZ
000162: 37,3261           77624                           CALL
000163: 37,3262           47663                                    CDU*NBSM
000164: 37,3263           41505                           VXM      PUSH                                  #  UNIT(Z)/4 TO PD 6-11
000165: 37,3264           01734                                    REFSMMAT
000166: 37,3265           72431                           VPROJ    VSL2                                  #  UNIT(P)=UNIT(UZ-(UZ)PROJ(UR))
000167: 37,3266           00001                                    0D
000168: 37,3267           53445                           BVSU     UNIT
000169: 37,3270           00007                                    6D
000170: 37,3271           47315                           PDVL     VXV                                   #  UNIT(P) TO PD 12-17
000171: 37,3272           00001                                    0D                                    #  UNIT(RL)
000172: 37,3273           02215                                    VONE


000174: 37,3274           50235                           VXV      DOT                                   #  (UR * VL) * UR . U(P)
000175: 37,3275           00001                                    0D
000176: 37,3276           00015                                    12D
000177: 37,3277           77715                           PDVL                                           #  SIGN TO 12-13, LOAD U(P)
000178: 37,3300           75241                           DOT      SIGN
000179: 37,3301           00007                                    6D
000180: 37,3302           00015                                    12D
000181: 37,3303           65512                           SL2      ACOS                                  #  ARCCOS(UP.UZ(SIGN))
000182: 37,3304           26205                           STOVL    RTHETA
000183: 37,3305           00001                                    0D
000184: 37,3306           51041                           DOT      BPL                                   #  IF UR.UZ NEG,
000185: 37,3307           00007                                    6D                                    #        RTHETA = 1 - RTHETA
000186: 37,3310           77315                                    +5
000187: 37,3311           45345                           DLOAD    DSU
000188: 37,3312           06532                                    DPPOSMAX
000189: 37,3313           02205                                    RTHETA
000190: 37,3314           02205                           STORE    RTHETA
000191: 37,3315           77776                           EXIT
000192:
000193: 37,3316           34747                           CA       BIT5
000194: 37,3317           71043                           MASK     EXTVBACT
000195: 37,3320           00006                           EXTEND                                         #  IF ANSWERED,
000196: 37,3321           15472                           BZF      ENDEXT                                #        TERMINATE
000197:
000198: 37,3322           41043                           CS       EXTVBACT
000199: 37,3323           74740                           MASK     BIT12
000200: 37,3324           27043                           ADS      EXTVBACT                              #  SET BIT 12
000201: 37,3325           13155                           TCF      REV83                                 #  AND START AGAIN.
000202:
000203: 37,3326           37713        GETRVN             CA       PRIO22                                #  INHIBIT SERVICER
000204: 37,3327           05146                           TC       PRIOCHNG
000205: 37,3330           06042                           TC       INTPRET
000206: 37,3331           40375                           VLOAD    SETPD
000207: 37,3332           01220                                    RN                                    #  LM STATE VECTOR IN RN,VN
000208: 37,3333           00001                                    0
000209: 37,3334           26207                           STOVL    RONE
000210: 37,3335           01226                                    VN
000211: 37,3336           26215                           STOVL    VONE                                  #  LOAD R(CSM),V(CSM) IN CASE MUNFLAG SET
000212: 37,3337           01726                                    V(CSM)                                #  (TO INSURE TIME COMPATABILITY)
000213: 37,3340           65315                           PDVL     PDDL
000214: 37,3341           01720                                    R(CSM)
000215: 37,3342           01234                                    PIPTIME
000216: 37,3343           77776                           EXIT
000217: 37,3344           35015                           CA       PRIO3
000218: 37,3345           05146                           TC       PRIOCHNG
000219: 37,3346           06042                           TC       INTPRET
000220: 37,3347           77214                           BOFF     VLOAD
000221: 37,3350           03347                                    MUNFLAG
000222: 37,3351           77363                                    GETRVN2                               #  IF MUNFLAG RESET, DO CM DELTA PRECISION


000224: 37,3352           60505                           VXM      VSR4                                  #  CHANGE TO REFERENCE SYSTEM AND RESCALE
000225: 37,3353           01734                                    REFSMMAT
000226: 37,3354           77715                           PDVL                                           #  R TO PD 0-5
000227: 37,3355           76505                           VXM      VSL1
000228: 37,3356           01734                                    REFSMMAT
000229: 37,3357           40206                           PUSH     SETPD                                 #  V TO PD 5-11
000230: 37,3360           00001                                    0
000231: 37,3361           77650                           GOTO
000232: 37,3362           77240                                    COMPDISP
000233:
000234: 37,3363           77624        GETRVN2            CALL
000235: 37,3364           27410                                    INTSTALL
000236: 37,3365           52014                           CLEAR    GOTO
000237: 37,3366           01673                                    INTYPFLG                              #  PREC EXTRAP FOR OTHER
000238: 37,3367           77222                                    OTHINT
000239: 37,3370           06042        R31SURF            TC       INTPRET
000240: 37,3371           77634                           RTB                                            #  LM IS ON SURFACE, SO PRECISION
000241: 37,3372           21574                                    LOADTIME                              #  INTEGRATION USES PLANETARY INERTIAL
000242: 37,3373           34041                           STCALL   TDEC1                                 #  ORIENTATION SUBROUTINE
000243: 37,3374           27056                                    LEMPREC
000244: 37,3375           77650                           GOTO                                           #  DO CSM CONIC
000245: 37,3376           77211                                    OTHCONIC
000246: 37,3377           40102        MUNG?              CS       FLAGWRD6
000247: 37,3400           74744                           MASK     MUNFLBIT
000248: 37,3401           00006                           EXTEND
000249: 37,3402           13326                           BZF      GETRVN                                #  IF MUNFLAG SET, CSM BASE NOT NEEDED
000250:
000251: 37,3403           06042        ONEBASE            TC       INTPRET                               #  GET CSM BASE VECTOR
000252: 37,3404           52034                           RTB      GOTO
000253: 37,3405           21574                                    LOADTIME
000254: 37,3406           77144                                    DOCMBASE
000255:
000256: 37,3407           04066        V16N54             VN       1654
000257:


000260:

End of include-file R31.agc.  Parent file is MAIN.agc


