
Source Code


000002:                                                                                                  ## Copyright:   Public domain.
000003:                                                                                                  ## Filename:    R63.agc
000004:                                                                                                  ## Purpose:     A section of LM131 revision 1.
000005:                                                                                                  ##              It is part of the reconstructed source code for the final
000006:                                                                                                  ##              release of the flight software for the Lunar Module's (LM)
000007:                                                                                                  ##              Apollo Guidance Computer (AGC) for Apollo 13. The code has
000008:                                                                                                  ##              been reconstructed from a listing of Luminary 131 and a dump
000009:                                                                                                  ##              of a core rope memory module B5, part number 2010802-171,
000010:                                                                                                  ##              which is the only module different between LM131 revision 1
000011:                                                                                                  ##              and Luminary 131. The executable generated from this source
000012:                                                                                                  ##              has been verified against the module dump, so while the names,
000013:                                                                                                  ##              comments, and ordering may not be exactly correct, the
000014:                                                                                                  ##              resulting binary is.
000015:                                                                                                  ## Reference:   pp. 340-343
000016:                                                                                                  ## Assembler:   yaYUL
000017:                                                                                                  ## Contact:     Ron Burkey <info@sandroid.org>.
000018:                                                                                                  ## Website:     www.ibiblio.org/apollo/index.html
000019:                                                                                                  ## Mod history: 2022-10-28 MAS  Created from Luminary 131.
000020:


000022:                                                                                                  #  SUBROUTINE NAME:      V89CALL
000023:                                                                                                  #  MOD NO:       0                       DATE:           9 JAN 1968
000024:                                                                                                  #  MOD BY:       DIGITAL DEVEL GROUP     LOG SECTION:    R63
000025:
000026:                                                                                                  #  FUNCTIONAL DESCRIPTION:
000027:
000028:                                                                                                  #  CALLED BY VERB 89 ENTER DURING P00.  PRIO 10 USED.  CALCULATES AND
000029:                                                                                                  #  DISPLAYS FINAL FDAI BALL ANGLES TO POINT LM +X OR +Z AXIS AT CSM.
000030:
000031:                                                                                                  #  1. KEY IN V 89 E ONLY IF IN PROG 00.  IF NOT IN P00, OPERATOR ERROR AND
000032:                                                                                                  #  EXIT R63, OTHERWISE CONTINUE.
000033:
000034:                                                                                                  #  2. IF IN P00, DO IMU STATUS CHECK ROUTINE (R02BOTH).  IF IMU ON AND ITS
000035:                                                                                                  #  ORIENTATION KNOWN TO LGC, CONTINUE.
000036:
000037:                                                                                                  #  3. FLASH DISPLAY V 04 N 06.  R2 INDICATES WHICH SPACECRAFT AXIS IS TO
000038:                                                                                                  #  BE POINTED AT CSM.  INITIAL CHOICE IS PREFERRED (+Z) AXIS (R2=1).
000039:                                                                                                  #  ASTRONAUT CAN CHANGE TO (+X) AXIS (R2 NOT =1) BY V 22 E 2 E.  CONTINUE
000040:                                                                                                  #  AFTER KEYING IN PROCEED.
000041:
000042:                                                                                                  #  4. BOTH VEHICLE STATE VECTORS UPDATED BY CONIC EQS.
000043:
000044:                                                                                                  #  5. HALF MAGNITUDE UNIT LOS VECTOR (IN STABLE MEMBER COORDINATES) AND
000045:                                                                                                  #  HALF MAGNITUDE UNIT SPACECRAFT AXIS VECTOR (IN BODY COORDINATES)
000046:                                                                                                  #  PREPARED FOR VECPOINT.
000047:
000048:                                                                                                  #  6. GIMBAL ANGLES FROM VECPOINT TRANSFORMED INTO FDAI BALL ANGLES BY
000049:                                                                                                  #  BALLANGS.  FLASH DISPLAY V 06 N 18 AND AWAIT RESPONSE.
000050:
000051:                                                                                                  #  7.    RECYCLE - RETURN TO STEP 4.
000052:                                                                                                  #        TERMINATE - EXIT R63.
000053:                                                                                                  #        PROCEED - RESET 3AXISFLG AND CALL R60LEM FOR ATTITUDE MANEUVER.
000054:
000055:                                                                                                  #  CALLING SEQUENCE:     V 89 E.
000056:
000057:                                                                                                  #  SUBROUTINES CALLED:   CHKPOOH, R02BOTH, GOXDSPF, CSMCONIC, LEMCONIC,
000058:                                                                                                  #                        VECPOINT, BALLANGS, R60LEM.
000059:
000060:                                                                                                  #  NORMAL EXIT MODES:    TC ENDEXT
000061:
000062:                                                                                                  #  ALARMS:       1. OPERATOR ERROR IF NOT IN P00.
000063:                                                                                                  #                2. PROGRAM ALARM IF IMU IS OFF.
000064:                                                                                                  #                3. PROGRAM ALARM IF IMU ORIENTATION IS UNKNOWN.
000065:
000066:                                                                                                  #  OUTPUT:       NONE
000067:
000068:                                                                                                  #  ERASABLE INITIALIZATION REQUIRED:  NONE
000069:
000070:                                                                                                  #  DEBRIS:       OPTION1, +1, TDEC1, POINTVSM, SCAXIS, CPHI, CTHETA, CPSI,


000072:                                                                                                  #                3AXISFLG.
000073:
000074: 06,3723  E4,1606                                  EBANK=   RONE
000075: 32,2217                                           BANK     32
000076: 26,2000                                           SETLOC   BAWLANGS
000077: 26,2000                                           BANK
000078:
000079: 26,2022                                           COUNT*   $$/R63
000080: 26,2022           04616        V89CALL            TC       BANKCALL                              #  IMU STATUS CHECK.  RETURNS IF ORIENTATION
000081: 26,2023           11233                           CADR     R02BOTH                               #  KNOWN.  ALARMS IF NOT.
000082: 26,2024           36250                           CAF      THREE                                 #  ALLOW ASTRONAUT TO SELECT DESIRED
000083: 26,2025           55050                           TS       OPTIONX                               #  TRACKING ATTITUDE AXIS.
000084: 26,2026           34753                           CAF      ONE
000085: 26,2027           55051                           TS       OPTIONX    +1
000086: 26,2030           32117                           CAF      VB04N12                               #  V 04 N 12
000087: 26,2031           04616                           TC       BANKCALL
000088: 26,2032           20477                           CADR     GOFLASH
000089: 26,2033           05472                           TC       ENDEXT                                #  TERMINATE
000090: 26,2034           02036                           TC       +2                                    #  PROCEED
000091: 26,2035           02030                           TC       -5                                    #  DATA IN.  OPTION1+1 = 1 FOR Z AXIS
000092: 26,2036           06042        V89RECL            TC       INTPRET                               #                     = 2 FOR X AXIS
000093: 26,2037           43234                           RTB      DAD
000094: 26,2040           21574                                    LOADTIME                              #  READ PRESENT TIME
000095: 26,2041           14122                                    DP1MIN
000096: 26,2042           02205                           STORE    TSTART82                              #  SAVE TIME FOR LEMCONIC CALL
000097: 26,2043           34041                           STCALL   TDEC1                                 #  STORE TIME FOR CSMCONIC CALL
000098: 26,2044           27065                                    CSMCONIC                              #  CSM STATE VECTOR UPDATE
000099: 26,2045           77775                           VLOAD                                          #  CSMCONIC LEFT R VECTOR IN RATT
000100: 26,2046           00001                                    RATT
000101: 26,2047           16207                           STODL    RONE                                  #  SAVE FOR LINE OF SIGHT (LOS) COMPUTATION
000102: 26,2050           02205                                    TSTART82
000103: 26,2051           34041                           STCALL   TDEC1                                 #  STORE TIME FOR LEMCONIC CALL
000104: 26,2052           27077                                    LEMCONIC                              #  LEM STATE VECTOR UPDATE
000105: 26,2053           52375                           VLOAD    VSU                                   #  CSM POSITION - LEM POSITION = LOS
000106: 26,2054           02207                                    RONE                                  #  LOS VECTOR LEFT IN MPAC
000107: 26,2055           00001                                    RATT
000108: 26,2056           47121                           MXV      RTB                                   #  (REFSMMAT X LOS).  TRANSFORMS LOS FROM
000109: 26,2057           01734                                    REFSMMAT                              #  REFERENCE COORD TO STAB MEMB COORD.
000110: 26,2060           21727                                    NORMUNIT
000111: 26,2061           03773                           STORE    POINTVSM                              #  STORE LOS FOR VECPOINT CALL
000112: 26,2062           77776                           EXIT
000113: 26,2063           41051                           CS       OPTIONX    +1                         #  1 FOR Z AXIS.  2 FOR X AXIS.
000114: 26,2064           64753                           AD       ONE
000115: 26,2065           00006                           EXTEND
000116: 26,2066           12113                           BZF      ALINEZ
000117: 26,2067           06042        ALINEX             TC       INTPRET                               #  X AXIS ALIGNMENT
000118: 26,2070           77775                           VLOAD
000119: 26,2071           06522                                    UNITX                                 #  READ (.5, 0, 0)


000121: 26,2072           37765        V89CALL1           STCALL   SCAXIS                                #  STORE SELECTED ALIGNMENT AXIS
000122: 26,2073           56040                                    VECPOINT                              #  PUTS DESIRED GIM ANG (OG,IG,MG) IN TMPAC
000123: 26,2074           00322                           STORE    CPHI                                  #  STORE GIMBAL ANGLES FOR BALLANGS CALL.
000124: 26,2075           77776                           EXIT
000125: 26,2076           04616                           TC       BANKCALL
000126: 26,2077           54272                           CADR     BALLANGS                              #  PUTS DESIRED BALL ANGLES IN FDAIX,Y,Z
000127: 26,2100           32120                           CAF      VB06N18                               #  V 06 N 18
000128: 26,2101           04616                           TC       BANKCALL                              #  NOUN 18 REFERS TO FDAIX,Y,Z
000129: 26,2102           20477                           CADR     GOFLASH
000130: 26,2103           05472                           TC       ENDEXT                                #  TERMINATE
000131: 26,2104           02106                           TC       +2                                    #  PROCEED
000132: 26,2105           02036                           TC       V89RECL                               #  RECYCLE
000133: 26,2106           05516                           TC       DOWNFLAG                              #  RESET 3 AXIS FLAG
000134: 26,2107           00124                           ADRES    3AXISFLG                              #  RESET BIT6 FLAG WORD 5
000135: 26,2110           04616                           TC       BANKCALL                              #  PERFORMS LEM MANEUVER TO ALIGN SELECTED
000136: 26,2111           54123                           CADR     R60LEM                                #  SPACECRAFT AXIS TO CSM.
000137: 26,2112           15472                           TCF      ENDEXT                                #  TERMINATE R63
000138:
000139: 26,2113           06042        ALINEZ             TC       INTPRET                               #  Z AXIS ALIGNMENT
000140: 26,2114           52175                           VLOAD    GOTO
000141: 26,2115           06516                                    UNITZ                                 #  READ (0, 0, .5)
000142: 26,2116           54072                                    V89CALL1
000143:
000144: 26,2117           01014        VB04N12            VN       412
000145: 26,2120           01422        VB06N18            VN       0618


000147: 26,2121           00000 13560  DP1MIN             2DEC     6000       B-28
000148:

End of include-file R63.agc.  Parent file is MAIN.agc


