
Source Code


000002:                                                                                                  ## Copyright:   Public domain.
000003:                                                                                                  ## Filename:    RADAR_LEADIN_ROUTINES.agc
000004:                                                                                                  ## Purpose:     A section of LM131 revision 1.
000005:                                                                                                  ##              It is part of the reconstructed source code for the final
000006:                                                                                                  ##              release of the flight software for the Lunar Module's (LM)
000007:                                                                                                  ##              Apollo Guidance Computer (AGC) for Apollo 13. The code has
000008:                                                                                                  ##              been reconstructed from a listing of Luminary 131 and a dump
000009:                                                                                                  ##              of a core rope memory module B5, part number 2010802-171,
000010:                                                                                                  ##              which is the only module different between LM131 revision 1
000011:                                                                                                  ##              and Luminary 131. The executable generated from this source
000012:                                                                                                  ##              has been verified against the module dump, so while the names,
000013:                                                                                                  ##              comments, and ordering may not be exactly correct, the
000014:                                                                                                  ##              resulting binary is.
000015:                                                                                                  ## Reference:   pp. 494-495
000016:                                                                                                  ## Assembler:   yaYUL
000017:                                                                                                  ## Contact:     Ron Burkey <info@sandroid.org>.
000018:                                                                                                  ## Website:     www.ibiblio.org/apollo/index.html
000019:                                                                                                  ## Mod history: 2022-10-28 MAS  Created from Luminary 131.
000020:


000022: 25,2003                                           BANK     25
000023: 25,2000                                           SETLOC   RRLEADIN
000024: 25,2000                                           BANK
000025:
000026: 25,2003  E4,1600                                  EBANK=   RSTACK
000027:
000028:                                                                                                  #  RADAR SAMPLING LOOP.
000029: 25,2003                                           COUNT*   $$/RLEAD
000030: 25,2003           11777        RADSAMP            CCS      RSAMPDT                               #  TIMES NORMAL ONCE-PER-SECOND SAMPLING.
000031: 25,2004           12006                           TCF      +2
000032: 25,2005           15261                           TCF      TASKOVER                              #  +0 INSERTED MANUALLY TERMINATES TEST.
000033:
000034: 25,2006           05203                           TC       WAITLIST
000035: 25,2007  E4,1600                                  EBANK=   RSTACK
000036: 25,2007           02003 52064                     2CADR    RADSAMP
000037:
000038: 25,2011           37716                           CAF      PRIO25
000039: 25,2012           05072                           TC       NOVAC
000040: 25,2013  E4,1600                                  EBANK=   RSTACK
000041: 25,2013           02023 52064                     2CADR    DORSAMP
000042:
000043: 25,2015           34736                           CAF      BIT14                                 #  FOR CYCLIC SAMPLING, RTSTDEX=
000044: 25,2016           00006                           EXTEND                                         #  RTSTLOC/2 + RTSTBASE
000045: 25,2017           71776                           MP       RTSTLOC
000046: 25,2020           61775                           AD       RTSTBASE                              #  0 FOR RR, 2 FOR LR.
000047: 25,2021           55773                           TS       RTSTDEX
000048: 25,2022           15261                           TCF      TASKOVER
000049:
000050:                                                                                                  #  DO THE ACTUAL RADAR SAMPLE.
000051:
000052: 25,2023           02060        DORSAMP            TC       VARADAR                               #  SELECTS VARIABLE RADAR CHANNEL.
000053: 25,2024           04616                           TC       BANKCALL
000054: 25,2025           17705                           CADR     RADSTALL
000055:
000056: 25,2026           25575                           INCR     RFAILCNT                              #  ADVANCE FAIL COUNTER BUT ACCEPT BAD DATA
000057:
000058: 25,2027           00004        DORSAMP2           INHINT
000059: 25,2030           30101                           CA       FLAGWRD5                              #  DON'T UPDATE RSTACK IF IN R77.
000060: 25,2031           74741                           MASK     R77FLBIT
000061: 25,2032           10000                           CCS      A
000062: 25,2033           12050                           TCF      R77IN
000063:
000064: 25,2034           53101                           DXCH     SAMPLSUM
000065: 25,2035           51776                           INDEX    RTSTLOC
000066: 25,2036           53601                           DXCH     RSTACK
000067:
000068: 25,2037           30110                           CA       RADMODES
000069: 25,2040           00006                           EXTEND
000070: 25,2041           06033                           RXOR     CHAN33


000072: 25,2042           74746                           MASK     BIT6
000073: 25,2043           00006                           EXTEND
000074: 25,2044           12050                           BZF      R77IN
000075:
000076: 25,2045           05567                           TC       ALARM
000077: 25,2046           00522                           OCT      522
000078: 25,2047           25575                           INCR     RFAILCNT
000079:
000080: 25,2050           41776        R77IN              CS       RTSTLOC                               #  CYCLE RTSTLOC
000081: 25,2051           61774                           AD       RTSTMAX
000082: 25,2052           00006                           EXTEND
000083: 25,2053           12056                           BZF      +3
000084: 25,2054           31776                           CA       RTSTLOC
000085: 25,2055           64752                           AD       TWO                                   #  STORAGE IS DP
000086: 25,2056           55776                           TS       RTSTLOC
000087: 25,2057           15155                           TCF      ENDOFJOB                              #  CONTINUOUS SAMPLING AND 2N TRIES - GONE.
000088:
000089:                                                                                                  #  VARIABLE RADAR DATA CALLER FOR ONE MEASUREMENT ONLY.
000090:
000091: 25,2060           34753        VARADAR            CAF      ONE                                   #  WILL BE SENT TO RADAR ROUTINE IN A BY
000092: 25,2061           54133                           TS       BUF2                                  #  SWCALL.
000093: 25,2062           51773                           INDEX    RTSTDEX
000094: 25,2063           32065                           CAF      RDRLOCS
000095: 25,2064           14622                           TCF      SWCALL                                #  NOT TOUCHING Q.
000096:
000097: 25,2065           53114        RDRLOCS            CADR     RRRANGE                               #  = 0
000098: 25,2066           53112                           CADR     RRRDOT                                #  = 1
000099: 25,2067           53110                           CADR     LRVELX                                #  = 2
000100: 25,2070           53106                           CADR     LRVELY                                #  = 3
000101: 25,2071           53104                           CADR     LRVELZ                                #  = 4
000102: 25,2072           53102                           CADR     LRALT                                 #  = 5
000103:
000104:

End of include-file RADAR_LEADIN_ROUTINES.agc.  Parent file is MAIN.agc


