
Source Code


000002:                                                                                                  ## Copyright:   Public domain.
000003:                                                                                                  ## Filename:    RCS_FAILURE_MONITOR.agc
000004:                                                                                                  ## Purpose:     A section of LM131 revision 1.
000005:                                                                                                  ##              It is part of the reconstructed source code for the final
000006:                                                                                                  ##              release of the flight software for the Lunar Module's (LM)
000007:                                                                                                  ##              Apollo Guidance Computer (AGC) for Apollo 13. The code has
000008:                                                                                                  ##              been reconstructed from a listing of Luminary 131 and a dump
000009:                                                                                                  ##              of a core rope memory module B5, part number 2010802-171,
000010:                                                                                                  ##              which is the only module different between LM131 revision 1
000011:                                                                                                  ##              and Luminary 131. The executable generated from this source
000012:                                                                                                  ##              has been verified against the module dump, so while the names,
000013:                                                                                                  ##              comments, and ordering may not be exactly correct, the
000014:                                                                                                  ##              resulting binary is.
000015:                                                                                                  ## Reference:   pp. 192-194
000016:                                                                                                  ## Assembler:   yaYUL
000017:                                                                                                  ## Contact:     Ron Burkey <info@sandroid.org>.
000018:                                                                                                  ## Website:     www.ibiblio.org/apollo/index.html
000019:                                                                                                  ## Mod history: 2022-10-28 MAS  Created from Luminary 131.
000020:


000022:                                                                                                  #  PROGRAM DESCRIPTION
000023:
000024:                                                                                                  #  AUTHOR: J S MILLER
000025:
000026:                                                                                                  #  MODIFIED 6 MARCH 1968 BY P S WEISSMAN TO SET UP JOB FOR 1/ACCS WHEN THE MASKS ARE CHANGED.
000027:
000028:                                                                                                  #  THIS ROUTINE IS ATTACHED TO T4RUPT, AND IS ENTERED EVERY 480 MS.  ITS FUNCTION IS TO EXAMINE THE LOW 8 BITS
000029:                                                                                                  #  OF CHANNEL 32 TO SEE IF ANY ISOLATION-VALVE CLOSURE BITS HAVE APPEARED OR DISAPPEARED (THE CREW IS WARNED OF JET
000030:                                                                                                  #  FAILURES BY LAMPS LIT BY THE GRUMMAN FAILURE-DETECTION CIRCUITRY; THEY MAY RESPOND BY OPERATING SWITCHES WHICH
000031:                                                                                                  #  ISOLATE PAIRS OF JETS FROM THE PROPELLANT TANKS AND SET BITS IN CHANNEL 32).  IN THE EVENT THAT CHANNEL 32 BITS
000032:                                                                                                  #  DIFFER FROM 'PVALVEST', THE RECORD OF ACTIONS TAKEN BY THIS ROUTINE, THE APPROPRIATE BITS IN 'CH5MASK' &
000033:                                                                                                  #  'CH6MASK', USED BY THE DAP JET-SELECTION LOGIC, ARE UPDATED, AS IS 'PVALVEST'.  TO SPEED UP & SHORTEN THE
000034:                                                                                                  #  ROUTINE, NO MORE THAN ONE CHANGE IS ACCEPTED PER ENTRY.  THE HIGHEST-NUMBERED BIT IN CHANNEL 32 WHICH REQUIRES
000035:                                                                                                  #  ACTION IS THE ONE PROCESSED.
000036:
000037:                                                                                                  #  THE CODING IN THE FAILURE MONITOR HAS BEEN WRITTEN SO AS TO HAVE ALMOST COMPLETE RESTART PROTECTION.  FOR
000038:                                                                                                  #  EXAMPLE, NO ASSUMPTION IS MADE WHEN SETTING A 'CH5MASK' BIT TO 1 THAT THE PREVIOUS STATE IS 0, ALTHOUGH IT OF
000039:                                                                                                  #  COURSE SHOULD BE.  ONE CASE WHICH MAY BE SEEN TO EVADE PROTECTION IS THE OCCURRENCE OF A RESTART AFTER UPDATING
000040:                                                                                                  #  ONE OR BOTH DAP MASK-WORDS BUT BEFORE UPDATING 'PVALVEST', COUPLED WITH A CHANGE IN THE VALVE-BIT BACK TO ITS
000041:                                                                                                  #  FORMER STATE.  THE CONSEQUENCE OF THIS IS THAT THE NEXT ENTRY WOULD NOT SEE THE CHANGE INCOMPLETELY INCORP-
000042:                                                                                                  #  ORATED BY THE LAST PASS (BECAUSE IT WENT AWAY AT JUST THE RIGHT TIME), BUT THE DAP MASK-WORDS WILL BE INCORRECT.
000043:                                                                                                  #  THIS COMBINATION OF EVENTS SEEMS QUITE REMOTE, BUT NOT IMPOSSIBLE UNLESS THE CREW OPERATES THE SWITCHES AT HALF-
000044:                                                                                                  #  SECOND INTERVALS OR LONGER.  IN ANY EVENT, A DISAGREEMENT BETWEEN REALITY AND THE DAP MASKS WILL BE CURED IF
000045:                                                                                                  #  THE MISINTERPRETED SWITCH IS REVERSED AND THEN RESTORED TO ITS CORRECT POSITION (SLOWLY).
000046:
000047:                                                                                                  #  CALLING SEQUENCE:
000048:
000049:                                                                                                  #        TCF     RCSMONIT                (IN INTERRUPT MODE, EVERY 480 MS.)
000050:
000051:                                                                                                  #  EXIT: TCF RCSMONEX (ALL PATHS EXIT VIA SUCH AN INSTRUCTION)
000052:
000053: 06,3164     5270               RCSMONEX           EQUALS   RESUME
000054:
000055:                                                                                                  #  ERASABLE INITIALIZATION REQUIRED:
000056:
000057:                                                                                                  #        VIA FRESH START:        PVALVEST        =       +0      (ALL JETS ENABLED)
000058:                                                                                                  #                                CH5MASK,CH6MASK =       +0      (ALL JETS OK)
000059:
000060:                                                                                                  #  OUTPUT:       CH5MASK & CH6MASK UPDATED (1'S WHERE JETS NOT TO BE USED, IN CHANNEL 5 & 6 FORMAT)
000061:                                                                                                  #                PVALTEST UPDATED (1,S WHEN VALVE CLOSURES HAVE BEEN TRANSLATED INTO CH5MASK & CH6MASK; CHAN 32 FORMAT)
000062:                                                                                                  #                JOB TO DO 1/ACCS.
000063:
000064:                                                                                                  #  DEBRIS:  A, L, Q AND DEBRIS OF NOVAC.
000065:
000066:                                                                                                  #  SUBROUTINE CALLED:  NOVAC.
000067:
000068: 06,3164     1257                                  EBANK=   CH5MASK
000069:
000070: 23,2000                                           BANK     23
000071: 06,2000                                           SETLOC   RCSMONT
000072: 06,2000                                           BANK


000074: 06,3164                                           COUNT*   $$/T4RCS
000075:
000076: 06,3164  06,3164               RCSMONIT           EQUALS   RCSMON
000077:
000078: 06,3164           44755        RCSMON             CS       ZERO
000079: 06,3165           00006                           EXTEND
000080: 06,3166           06032                           RXOR     CHAN32                                #  PICK UP + INVERT INVERTED CHANNEL 32.
000081: 06,3167           74357                           MASK     LOW8                                  #  KEEP JET-FAIL BITS ONLY.
000082: 06,3170           54002                           TS       Q
000083:
000084: 06,3171           41273                           CS       PVALVEST                              #        -   -
000085: 06,3172           70002                           MASK     Q                                     #  FORM PC + PC.
000086: 06,3173           54001                           TS       L                                     #        (P = PREVIOUS ISOLATION VALVE STATE,
000087: 06,3174           40002                           CS       Q                                     #         C = CURRENT VALVE STATE (CH32)).
000088: 06,3175           71273                           MASK     PVALVEST
000089: 06,3176           26001                           ADS      L                                     #  RESULT NZ INDICATES ACTION REQUIRED.
000090:
000091: 06,3177           00006                           EXTEND
000092: 06,3200           15270                           BZF      RCSMONEX                              #  QUIT IF NO ACTION REQUIRED.
000093:
000094: 06,3201           00006                           EXTEND
000095: 06,3202           74745                           MP       BIT7                                  #  MOVE BITS 8-1 OF A TO 14-7 OF L.
000096: 06,3203           56001                           XCH      L                                     #  ZERO TO L IN THE PROCESS.
000097:
000098: 06,3204           24001                 -3        INCR     L
000099: 06,3205           60000                           DOUBLE                                         #  BOUND TO GET OVERFLOW IN THIS LOOP,
000100: 06,3206           54000                           OVSK                                           #  SINCE WE ASSURED INITIAL NZ IN A.
000101: 06,3207           13204                           TCF      -3
000102:
000103: 06,3210           50001                           INDEX    L
000104: 06,3211           34743                           CA       BIT8       -1                         #  SAVE THE RELEVANT BIT (8-1).
000105: 06,3212           54002                           TS       Q
000106: 06,3213           71273                           MASK     PVALVEST                              #  LOOK AT PREVIOUS VALVE STATE BIT.
000107: 06,3214           10000                           CCS      A
000108: 06,3215           13231                           TCF      VOPENED                               #  THE VALVE HAS JUST BEEN OPENED.
000109:
000110: 06,3216           41257                           CS       CH5MASK                               #  THE VALVE HAS JUST BEEN CLOSED.
000111: 06,3217           50001                           INDEX    L
000112: 06,3220           73250                           MASK     5FAILTAB
000113: 06,3221           27257                           ADS      CH5MASK                               #  SET INHIBIT BIT FOR CHANNEL 5 JET.
000114:
000115: 06,3222           41260                           CS       CH6MASK
000116: 06,3223           50001                           INDEX    L
000117: 06,3224           73260                           MASK     6FAILTAB
000118: 06,3225           27260                           ADS      CH6MASK                               #  SET INGIBIT BIT FOR CHANNEL 6 JET.
000119:
000120: 06,3226           30002                           CA       Q
000121: 06,3227           27273                           ADS      PVALVEST                              #  RECORD ACTION TAKEN.
000122:
000123: 06,3230           13244                           TCF      1/ACCFIX                              #  SET UP 1/ACCJOB AND EXIT.
000124:


000126: 06,3231           50001        VOPENED            INDEX    L                                     #  A VALVE HAS JUST BEEN OPENED.
000127: 06,3232           43250                           CS       5FAILTAB
000128: 06,3233           71257                           MASK     CH5MASK
000129: 06,3234           55257                           TS       CH5MASK                               #  REMOVE INHIBIT BIT FOR CHANNEL 5 JET.
000130:
000131: 06,3235           50001                           INDEX    L
000132: 06,3236           43260                           CS       6FAILTAB
000133: 06,3237           71260                           MASK     CH6MASK
000134: 06,3240           55260                           TS       CH6MASK                               #  REMOVE INHIBIT BIT FOR CHANNEL 6 JET.
000135:
000136: 06,3241           40002                           CS       Q
000137: 06,3242           71273                           MASK     PVALVEST
000138: 06,3243           55273                           TS       PVALVEST                              #  RECORD ACTION TAKEN.
000139:
000140: 06,3244           37720        1/ACCFIX           CAF      PRIO27                                #  SET UP 1/ACCS SO THAT THE SWITCH CURVES
000141: 06,3245           05072                           TC       NOVAC                                 #        FOR TJETLAW CAN BE MODIFIED IF CH5MASK
000142: 06,3246  E6,1536                                  EBANK=   AOSQ                                  #        HAS BEEN ALTERED.
000143: 06,3246           03652 42106                     2CADR    1/ACCJOB
000144:
000145: 06,3250           15270                           TCF      RCSMONEX                              #  EXIT.
000146:
000147: 06,3251                        5FAILTAB           EQUALS   -1                                    #  CH 5 JET BIT CORRESPONDING TO CH 32 BIT:
000148: 06,3251           00040                           OCT      00040                                 #  8
000149: 06,3252           00020                           OCT      00020                                 #  7
000150: 06,3253           00100                           OCT      00100                                 #  6
000151: 06,3254           00200                           OCT      00200                                 #  5
000152: 06,3255           00010                           OCT      00010                                 #  4
000153: 06,3256           00001                           OCT      00001                                 #  3
000154: 06,3257           00004                           OCT      00004                                 #  2
000155: 06,3260           00002                           OCT      00002                                 #  1
000156:
000157: 06,3261                        6FAILTAB           EQUALS   -1                                    #  CH 6 JET BIT CORRESPONDING TO CH 32 BIT:
000158: 06,3261           00010                           OCT      00010                                 #  8
000159: 06,3262           00020                           OCT      00020                                 #  7
000160: 06,3263           00004                           OCT      00004                                 #  6
000161: 06,3264           00200                           OCT      00200                                 #  5
000162: 06,3265           00001                           OCT      00001                                 #  4
000163: 06,3266           00002                           OCT      00002                                 #  3
000164: 06,3267           00040                           OCT      00040                                 #  2
000165: 06,3270           00100                           OCT      00100                                 #  1
000166:
000167:

End of include-file RCS_FAILURE_MONITOR.agc.  Parent file is MAIN.agc


