
Source Code


000002:                                                                                                  ## Copyright:   Public domain.
000003:                                                                                                  ## Filename:    SERVICE_ROUTINES.agc
000004:                                                                                                  ## Purpose:     A section of LM131 revision 1.
000005:                                                                                                  ##              It is part of the reconstructed source code for the final
000006:                                                                                                  ##              release of the flight software for the Lunar Module's (LM)
000007:                                                                                                  ##              Apollo Guidance Computer (AGC) for Apollo 13. The code has
000008:                                                                                                  ##              been reconstructed from a listing of Luminary 131 and a dump
000009:                                                                                                  ##              of a core rope memory module B5, part number 2010802-171,
000010:                                                                                                  ##              which is the only module different between LM131 revision 1
000011:                                                                                                  ##              and Luminary 131. The executable generated from this source
000012:                                                                                                  ##              has been verified against the module dump, so while the names,
000013:                                                                                                  ##              comments, and ordering may not be exactly correct, the
000014:                                                                                                  ##              resulting binary is.
000015:                                                                                                  ## Reference:   pp. 1366-1372
000016:                                                                                                  ## Assembler:   yaYUL
000017:                                                                                                  ## Contact:     Ron Burkey <info@sandroid.org>.
000018:                                                                                                  ## Website:     www.ibiblio.org/apollo/index.html
000019:                                                                                                  ## Mod history: 2022-10-28 MAS  Created from Luminary 131.
000020:


000022: 10,3545                                           BANK     10
000023: 10,2000                                           SETLOC   DISPLAYS
000024: 10,2000                                           BANK
000025: 10,3545                                           COUNT*   $$/DSPLA
000026:
000027: 10,3545           00004        UPENT2             INHINT
000028: 10,3546           75650                           MASK     OCT77770
000029: 10,3547           54001                           TS       L
000030: 10,3550           40100                           CS       FLAGWRD4
000031: 10,3551           70001                           MASK     L
000032: 10,3552           26100                           ADS      FLAGWRD4
000033: 10,3553           00003        JOIN               RELINT
000034: 10,3554           16742                           TCF      Q+1
000035:
000036: 10,3555           00004        DOWNENT2           INHINT
000037: 10,3556           75650                           MASK     OCT77770
000038: 10,3557           40000                           COM
000039: 10,3560           70100                           MASK     FLAGWRD4
000040: 10,3561           54100                           TS       FLAGWRD4
000041: 10,3562           13553                           TCF      JOIN
000042:
000043: 10,3563     4757               OCT7               EQUALS   SEVEN
000044:


000046:                                                                                                  #  UPFLAG AND DOWNFLAG ARE ENTIRELY GENERAL FLAG SETTING AND CLEARING SUBROUTINES.  USING THEM, WHETHER OR
000047:                                                                                                  #  NOT IN INTERRUPT, ONE MAY SET OR CLEAR ANY SINGLE, NAMED BIT IN ANY ERASABLE REGISTER, SUBJECT OF COURSE TO
000048:                                                                                                  #  EBANK SETTING.  A "NAMED" BIT, AS THE WORD IS USED HERE, IS ANY BIT WITH A NAME FORMALLY ASSIGNED BY THE YUL
000049:                                                                                                  #  ASSEMBLER.
000050:
000051:                                                                                                  #  AT PRESENT THE ONLY NAMED BITS ARE THOSE IN THE FLAGWORDS.  ASSEMBLER CHANGES WILL MAKE IT POSSIBLE TO
000052:                                                                                                  #  NAME ANY BIT IN ERASABLE MEMORY.
000053:
000054:                                                                                                  #  CALLING SEQUENCES ARE AS FOLLOWS:-
000055:                                                                                                  #                TC      UPFLAG                  TC      DOWNFLAG
000056:                                                                                                  #                ADRES   NAME OF FLAG            ADRES   NAME OF FLAG
000057:
000058:                                                                                                  #  RETURN IS TO THE LOCATION FOLLOWING THE "ADRES" ABOUT .58 MS AFTER THE "TC".
000059:                                                                                                  #  UPON RETURN A CONTAINS THE CURRENT FLAGWRD SETTING.
000060:
000061:    5504                                           BLOCK    02
000062:    4000                                           SETLOC   FFTAG1
000063:    4000                                           BANK
000064:    5504                                           COUNT*   $$/FLAG
000065:
000066:    5504           30002        UPFLAG             CA       Q
000067:    5505           05522                           TC       DEBIT
000068:    5506           40000                           COM                                            #  +(15 - BIT)
000069:    5507           00006                           EXTEND
000070:    5510           04001                           ROR      LCHAN                                 #  SET BIT
000071:    5511           50061        COMFLAG            INDEX    ITEMP1
000072:    5512           54074                           TS       FLAGWRD0
000073:    5513           22063                           LXCH     ITEMP3
000074:    5514           00003                           RELINT
000075:    5515           00001                           TC       L
000076:
000077:    5516           30002        DOWNFLAG           CA       Q
000078:    5517           05522                           TC       DEBIT
000079:    5520           70001                           MASK     L                                     #  RESET BIT
000080:    5521           15511                           TCF      COMFLAG
000081:
000082:    5522           64753        DEBIT              AD       ONE                                   #  GET DE BITS
000083:    5523           00004                           INHINT
000084:    5524           54063                           TS       ITEMP3
000085:    5525           34762                           CA       LOW4                                  #  DEC15
000086:    5526           54061                           TS       ITEMP1
000087:    5527           50063                           INDEX    ITEMP3
000088:    5530           27777                           CA       0          -1                         #  ADRES
000089:    5531           54001                           TS       L
000090:    5532           34755                           CA       ZERO


000092:    5533           00006                           EXTEND
000093:    5534           10061                           DV       ITEMP1                                #  A = FLAGWRD, L = (15 - BIT)
000094:    5535           52062                           DXCH     ITEMP1
000095:    5536           50061                           INDEX    ITEMP1
000096:    5537           30074                           CA       FLAGWRD0
000097:    5540           54001                           TS       L                                     #  CURRENT STATE
000098:    5541           50062                           INDEX    ITEMP2
000099:    5542           44735                           CS       BIT15                                 #  -(15 - BIT)
000100:    5543           00002                           TC       Q
000101:


000103:                                                                                                  #  DELAYJOB - A GENERAL ROUTINE TO DELAY A JOB A SPECIFIC AMOUNT OF TIME BEFORE PICKING UP AGAIN.
000104:
000105:                                                                                                  #  ENTRANCE REQUIREMENTS ...
000106:                                                                                                  #                CAF     DT              DELAY JOB FOR DT CENTISECS
000107:                                                                                                  #                TC      BANKCALL
000108:                                                                                                  #                CADR    DELAYJOB
000109:
000110: 06,3772                                           BANK     06
000111: 00,2000                                           SETLOC   DLAYJOB
000112: 00,2000                                           BANK
000113:
000114:                                                                                                  #  THIS MUST REMAIN IN BANK 0 *****************************************
000115:
000116: 00,3735                                           COUNT*   $$/DELAY
000117: 00,3735           35000        2SECDELY           CAF      2SECS
000118: 00,3736           00004        DELAYJOB           INHINT
000119: 00,3737           54002                           TS       Q                                     #  STORE DELAY DT IN Q FOR DLY -1 IN
000120: 00,3740           34752                           CAF      DELAYNUM                              #  WAITLIST
000121: 00,3741           54070        DELLOOP            TS       RUPTREG1
000122: 00,3742           50000                           INDEX    A
000123: 00,3743           31323                           CA       DELAYLOC                              #  IS THIS DELAYLOC AVAILABLE
000124: 00,3744           00006                           EXTEND
000125: 00,3745           13753                           BZF      OK2DELAY                              #  YES
000126:
000127: 00,3746           10070                           CCS      RUPTREG1                              #  NO, TRY NEXT DELAYLOC
000128: 00,3747           13741                           TCF      DELLOOP
000129:
000130: 00,3750           52134                           DXCH     BUF2
000131: 00,3751           05706                           TC       BAILOUT1                              #  NO AVAILABLE LOCS.
000132: 00,3752           31104                           OCT      31104
000133:
000134: 00,3753           33773        OK2DELAY           CA       TCSLEEP                               #  SET WAITLIST IMMEDIATE RETURN
000135: 00,3754           54061                           TS       WAITEXIT
000136:
000137: 00,3755           30004                           CA       FBANK
000138: 00,3756           60070                           AD       RUPTREG1                              #  STORE BBANK FOR TASK CALL
000139: 00,3757           54001                           TS       L
000140:
000141: 00,3760           33774                           CAF      WAKECAD                               #  STORE CADR FOR TASK CALL
000142: 00,3761           15211                           TCF      DLY2       -1                         #  DLY IS IN WAITLIST ROUTINE
000143:
000144: 00,3762           04645        TCGETCAD           TC       MAKECADR                              #  GET CALLERS FCADR
000145:
000146: 00,3763           50070                           INDEX    RUPTREG1
000147: 00,3764           55323                           TS       DELAYLOC                              #  SAVE DELAY CADRS
000148:
000149: 00,3765           05133                           TC       JOBSLEEP
000150:
000151: 00,3766           34755        WAKER              CAF      ZERO
000152: 00,3767           50006                           INDEX    BBANK


000154: 00,3770           57323                           XCH      DELAYLOC                              #  MAKE DELAYLOC AVAILABLE
000155: 00,3771           05137                           TC       JOBWAKE
000156:
000157: 00,3772           05261                           TC       TASKOVER
000158:
000159: 00,3773           03760        TCSLEEP            GENADR   TCGETCAD   -2
000160: 00,3774           03766        WAKECAD            GENADR   WAKER
000161:


000163:                                                                                                  #  GENTRAN, A BLOCK TRANSFER ROUTINE.
000164:                                                                                                  #  WRITTEN BY D. EYLES
000165:                                                                                                  #  MOD 1 BY KERNAN                               UTILITYM REV 17 11/18/67
000166:                                                                                                  #  MOD 2 BY SCHULENBERG    (REMOVE RELINT)    SKIPPER REV 4 2/28/68
000167:
000168:                                                                                                  #  THIS ROUTINE IS USEFULL FOR TRANSFERING N CONSECUTIVE ERASABLE OR FIXED QUANTITIES TO SOME OTHER N
000169:                                                                                                  #  CONSECUTIVE ERASABLE LOCATIONS.  IF BOTH BLOCKS OF DATA ARE IN SWITCHABLE EBANKS, THEY MUST BE IN THE SAME ONE.
000170:
000171:                                                                                                  #  GENTRAN IS CALLABLE IN A JOB AS WELL AS A RUPT.  THE CALLING SEQUENCE IS:
000172:                                                                                                  #        I       CA      N-1             # OF QUANTITIES MINUS ONE.
000173:                                                                                                  #        I +1    TC      GENTRAN         IN FIXED-FIXED.
000174:                                                                                                  #        I +2    ADRES   L               STARTING ADRES OF DATA TO BE MOVED.
000175:                                                                                                  #        I +3    ADRES   M               STARTING ADRES OF DUPLICATION BLOCK.
000176:                                                                                                  #        I +4                            RETURNS HERE.
000177:
000178:                                                                                                  #  GENTRAN TAKES 25 MCT'S (300 MICROSECONDS) PER ITEM + 5 MCT'S (60 MICS) FOR ENTERING AND EXITING.
000179:                                                                                                  #  A, L AND ITEMP1 ARE NOT PRESERVED.
000180:
000181:    5544                                           BLOCK    02
000182:    4000                                           SETLOC   FFTAG4
000183:    4000                                           BANK
000184:
000185:    5544     0061                                  EBANK=   ITEMP1
000186:
000187:    5544                                           COUNT*   $$/TRAN
000188:
000189:    5544           00004        GENTRAN            INHINT
000190:    5545           54061                           TS       ITEMP1                                #  SAVE N-1.
000191:    5546           50002                           INDEX    Q                                     #  C(Q) = ADRES L.
000192:    5547           60000                           AD       0                                     #  ADRES (L + N - 1).
000193:    5550           50000                           INDEX    A
000194:    5551           30000                           CA       0                                     #  C(ABOVE).
000195:    5552           54001                           TS       L                                     #  SAVE DATA.
000196:    5553           30061                           CA       ITEMP1
000197:    5554           50002                           INDEX    Q
000198:    5555           60001                           AD       1                                     #  ADRES (M + N - 1).
000199:    5556           50000                           INDEX    A
000200:    5557           22000                           LXCH     0                                     #  STUFF IT.
000201:    5560           10061                           CCS      ITEMP1                                #  LOOP UNTIL N-1 = 0.
000202:    5561           15545                           TCF      GENTRAN    +1
000203:    5562           16744                           TCF      Q+2                                   #  RETURN TO CALLER.
000204:


000206:                                                                                                  #  B5OFF         ZERO BIT 5 OF EXTVBACT, WHICH IS SET BY TESTXACT.
000207:                                                                                                  #  MAY BE USED AS NEEDED BY ANY EXTENDED VERB WHICH HAS DONE TESTXACT
000208:
000209:    5563                                           COUNT*   $$/EXTVB
000210:
000211:    5563           44747        B5OFF              CS       BIT5
000212:    5564           71043                           MASK     EXTVBACT
000213:    5565           55043                           TS       EXTVBACT
000214:    5566           05155                           TC       ENDOFJOB
000215:
000216:
000217:

End of include-file SERVICE_ROUTINES.agc.  Parent file is MAIN.agc


