
Source Code


000002:                                                                                                  ## Copyright:   Public domain.
000003:                                                                                                  ## Filename:    SYSTEM_TEST_STANDARD_LEAD_INS.agc
000004:                                                                                                  ## Purpose:     A section of LM131 revision 1.
000005:                                                                                                  ##              It is part of the reconstructed source code for the final
000006:                                                                                                  ##              release of the flight software for the Lunar Module's (LM)
000007:                                                                                                  ##              Apollo Guidance Computer (AGC) for Apollo 13. The code has
000008:                                                                                                  ##              been reconstructed from a listing of Luminary 131 and a dump
000009:                                                                                                  ##              of a core rope memory module B5, part number 2010802-171,
000010:                                                                                                  ##              which is the only module different between LM131 revision 1
000011:                                                                                                  ##              and Luminary 131. The executable generated from this source
000012:                                                                                                  ##              has been verified against the module dump, so while the names,
000013:                                                                                                  ##              comments, and ordering may not be exactly correct, the
000014:                                                                                                  ##              resulting binary is.
000015:                                                                                                  ## Reference:   pp. 372-374
000016:                                                                                                  ## Assembler:   yaYUL
000017:                                                                                                  ## Contact:     Ron Burkey <info@sandroid.org>.
000018:                                                                                                  ## Website:     www.ibiblio.org/apollo/index.html
000019:                                                                                                  ## Mod history: 2022-10-28 MAS  Created from Luminary 131.
000020:


000022: 22,3242  E5,1642                                  EBANK=   XSM
000023:
000024: 33,2045                                           BANK     33
000025: 04,2000                                           SETLOC   E/PROG
000026: 04,2000                                           BANK
000027:
000028: 04,2562                                           COUNT*   $$/P07
000029:
000030:                                                                                                  #  SPECIAL PROGRAMS TO EASE THE PANGS OF ERASABLE MEMORY PROGRAMS.
000031:
000032:                                                                                                  #  E/BKCALL      FOR DOING BANKCALLS FROM AND RETURNING TO ERASABLE.
000033:
000034:                                                                                                  #  THIS ROUTINE IS CALLABLE FROM ERASABLE OR FIXED.  LIKE BANKCALL, HOWEVER, SWITCHING BETWEEN S3 AND S4
000035:                                                                                                  #  IS NOT POSSIBLE.
000036:
000037:                                                                                                  #  THE CALLING SEQUENCE IS:
000038:
000039:                                                                                                  #        TC      BANKCALL
000040:                                                                                                  #        CADR    E/BKCALL
000041:                                                                                                  #        CADR    ROUTINE         WHERE YOU WANT TO GO IN FIXED.
000042:                                                                                                  #        RETURN HERE FROM DISPLAY TERMINATE, BAD STALL OR TC Q.
000043:                                                                                                  #        RETURN HERE FROM DISPLAY PROCEED OR GOOD RETURN FROM STALL.
000044:                                                                                                  #        RETURN HERE FROM DISPLAY ENTER OR RECYCLE.
000045:
000046:                                                                                                  #  THIS ROUTINE REQUIRES TWO ERASABLES (EBUF2, +1) IN UNSWITCHED WHICH ARE UNSHARED BY INTERRUPTS AND
000047:                                                                                                  #  OTHER EMEMORY PROGRAMS.
000048:
000049:                                                                                                  #  A + L ARE PRESERVED THROUGH BANKCALL AND E/BKCALL.
000050:
000051: 04,2562           52134        E/BKCALL           DXCH     BUF2                                  #  SAVE A,L AND GET DP RETURN.
000052: 04,2563           53167                           DXCH     EBUF2                                 #  SAVE DP RETURN.
000053: 04,2564           25166                           INCR     EBUF2                                 #  RETURN +1 BECAUSE DOUBLE CADR.
000054: 04,2565           30006                           CA       BBANK
000055: 04,2566           75012                           MASK     LOW10                                 #  GET CURRENT EBANK.  (SBANK SOMEDAY)
000056: 04,2567           27167                           ADS      EBUF2      +1                         #  FORM BBCON.  (WAS FBANK)
000057: 04,2570           51166                           NDX      EBUF2
000058: 04,2571           27777                           CA       0          -1                         #  GET CADR OF ROUTINE.
000059: 04,2572           04622                           TC       SWCALL                                #  GO TO ROUTINE, SETTING Q TO SWRETURN
000060:                                                                                                  #  AND RESTORING A + L.
000061: 04,2573           02577                           TC       +4                                    #  TX Q, V34, OR BAD STALL RETURN.
000062: 04,2574           02576                           TC       +2                                    #  PROCEED OR GOOD STALL RETURN.
000063: 04,2575           25166                           INCR     EBUF2                                 #  ENTER OR RECYCLE RETURN.
000064: 04,2576           25166                           INCR     EBUF2
000065: 04,2577           53167        E/SWITCH           DXCH     EBUF2
000066: 04,2600           52006                           DTCB
000067:


000069:                                                                                                  #  E/CALL        FOR CALLING A FIXED MEMORY INTERPRETIVE SUBROUTINE FROM ERASABLE AND RETURNING TO ERASABLE.
000070:
000071:                                                                                                  #  THE CALLING SEQUENCE IS...
000072:
000073:                                                                                                  #        RTB
000074:                                                                                                  #                E/CALL
000075:                                                                                                  #        CADR    ROUTINE                 THE INTERPRETIVE SUBROUTINE YOU WANT.
000076:                                                                                                  #                                        RETURNS HERE IN INTERPRETIVE.
000077:
000078: 04,2601           22164        E/CALL             LXCH     LOC                                   #  ADRES -1 OF CADR.
000079: 04,2602           50001                           INDEX    L
000080: 04,2603           30001                           CA       L                                     #  CADR IN A.
000081: 04,2604           24001                           INCR     L
000082: 04,2605           24001                           INCR     L                                     #  RETURN ADRES IN L.
000083: 04,2606           53167                           DXCH     EBUF2                                 #  STORE CADR AND RETURN.
000084: 04,2607           06042                           TC       INTPRET
000085: 04,2610           77624                           CALL
000086: 04,2611           01166                                    EBUF2                                 #  INDIRECTLY EXECUTE ROUTINE.  IT MUST
000087: 04,2612           77776                           EXIT                                           #  LEAVE VIA RVQ OR EQUIVALENT.
000088: 04,2613           23167                           LXCH     EBUF2      +1                         #  PICK UP RETURN.
000089: 04,2614           16044                           TCF      INTPRET    +2                         #  SET LOC AND RETURN TO CALLER.
000090:


000092:                                                                                                  #  E/JOBWAK      FOR WAKING UP ERASABLE MEMORY JOBS.
000093:
000094:                                                                                                  #  THIS ROUTINE MUST BE CALLED IN INTERRUPT OR WITH INTERRUPTS INHIBITED.
000095:
000096:                                                                                                  #  THE CALLING SEQUENCE IS:
000097:
000098:                                                                                                  #        INHINT
000099:                                                                                                  #        .
000100:                                                                                                  #        .
000101:                                                                                                  #        CA      WAKEADR         ADDRESS OF SLEEPING JOB
000102:                                                                                                  #        TC      IBNKCALL
000103:                                                                                                  #        CADR    E/JOBWAK
000104:                                                                                                  #        .                       RETURNS HERE
000105:                                                                                                  #        .
000106:                                                                                                  #        .
000107:                                                                                                  #        RELINT                  IF YOU DID AN INHINT.
000108:
000109: 33,2045                                           BANK     33
000110: 04,2000                                           SETLOC   E/PROG
000111: 04,2000                                           BANK
000112:
000113: 04,2615                                           COUNT*   $$/P07
000114:
000115: 04,2615           05137        E/JOBWAK           TC       JOBWAKE                               #  ARRIVE IWTH ADRES IN A.
000116: 04,2616           44741                           CS       BIT11
000117: 04,2617           50064                           NDX      LOCCTR
000118: 04,2620           26164                           ADS      LOC                                   #  KNOCK FIXED MEMORY BIT OUT OF ADRES.
000119: 04,2621           00072                           TC       RUPTREG3                              #  RETURN
000120:

End of include-file SYSTEM_TEST_STANDARD_LEAD_INS.agc.  Parent file is MAIN.agc


