
Source Code


000002:                                                                                                  ## Copyright:   Public domain.
000003:                                                                                                  ## Filename:    TRIM_GIMBAL_CONTROL_SYSTEM.agc
000004:                                                                                                  ## Purpose:     A section of LM131 revision 1.
000005:                                                                                                  ##              It is part of the reconstructed source code for the final
000006:                                                                                                  ##              release of the flight software for the Lunar Module's (LM)
000007:                                                                                                  ##              Apollo Guidance Computer (AGC) for Apollo 13. The code has
000008:                                                                                                  ##              been reconstructed from a listing of Luminary 131 and a dump
000009:                                                                                                  ##              of a core rope memory module B5, part number 2010802-171,
000010:                                                                                                  ##              which is the only module different between LM131 revision 1
000011:                                                                                                  ##              and Luminary 131. The executable generated from this source
000012:                                                                                                  ##              has been verified against the module dump, so while the names,
000013:                                                                                                  ##              comments, and ordering may not be exactly correct, the
000014:                                                                                                  ##              resulting binary is.
000015:                                                                                                  ## Reference:   pp. 1464-1476
000016:                                                                                                  ## Assembler:   yaYUL
000017:                                                                                                  ## Contact:     Ron Burkey <info@sandroid.org>.
000018:                                                                                                  ## Website:     www.ibiblio.org/apollo/index.html
000019:                                                                                                  ## Mod history: 2022-10-28 MAS  Created from Luminary 131.
000020:


000022: 21,3076                                           BANK     21
000023: 21,3076  E6,1450                                  EBANK=   QDIFF
000024: 21,2000                                           SETLOC   DAPS4
000025: 21,2000                                           BANK
000026:
000027: 21,3076                                           COUNT*   $$/DAPGT
000028:
000029:                                                                                                  #  CONTROL REACHES THIS POINT UNDER EITHER OF THE FOLLOWING TWO CONDITIONS ONCE THE DESCENT ENGINE AND THE DIGITAL
000030:                                                                                                  #  AUTOPILOT ARE BOTH ON:
000031:                                                                                                  #        A) THE TRIM GIMBAL CONTROL LAW WAS ON DURING THE PREVIOUS Q,R-AXIS TIME5 INTERRUPT (OR THE DAPIDLER
000032:                                                                                                  #           INITIALIZATION WAS SET FOR TRIM GIMBAL CONTROL AND THIS IS THE FIRST PASS), OR
000033:                                                                                                  #        B) THE Q,R-AXES RCS AUTOPILOT DETERMINED THAT THE VEHICLE WAS ENTERING (OR HAD JUST ENTERED) A COAST
000034:                                                                                                  #           ZONE WITH A SMALL OFFSET ANGULAR ACCELERATION.
000035:                                                                                                  #  GTS IS THE ENTRY TO THE GIMBAL TRIM SYSTEM FOR CONTROLLING ATTITUDE ERRORS AND RATES AS WELL AS ACCELERATIONS.
000036:
000037: 21,3076           37752        GTS                CAF      NEGONE                                #  MAKE THE NEXT PASS THROUGH THE DAP BE
000038: 21,3077           55630                           TS       COTROLER                              #        THROUGH RCS CONTROL,
000039: 21,3100           34751                           CAF      FOUR                                  #        AND ENSURE THAT IT IS NOT A SKIP.
000040: 21,3101           55534                           TS       SKIPU
000041: 21,3102           55535                           TS       SKIPV
000042:
000043: 21,3103           34752                           CAF      TWO
000044: 21,3104           55632                           TS       INGTS                                 #  SET INDICATOR OF GTS CONTROL POSITIVE.
000045: 21,3105           55631                           TS       QGIMTIMR                              #  SET TIMERS TO 200 MSEC TO AVOID BOTH
000046: 21,3106           55633                           TS       RGIMTIMR                              #  RUNAWAY AND INTERFERENCE BY NULLING.
000047:
000048:                                                                                                  #  THE DRIVE SETTING ALGORITHM
000049:                                                                                                  #        DEL = SGN(OMEGA + ALPHA*ABS(ALPHA)/(2*K))
000050:                                                                                                  #                                                    2               1/2                  2       3/2
000051:                                                                                                  #        NEGUSUM = ERROR*K + ALPHA*(DEL*OMEGA + ALPHA /(3*K)) + DEL*K   (DEL*OMEGA + ALPHA /(2*K))
000052:                                                                                                  #        DRIVE = -SGN(NEGUSUM)
000053:
000054: 21,3107           30021                           CA       SR                                    #  SAVE THE SR.  SHIFT IT LEFT TO CORRECT
000055: 21,3110           60000                           AD       A                                     #  FOR THE RIGHT SHIFT DUE TO EDITING.
000056: 21,3111           55505                           TS       SAVESR
000057:
000058: 21,3112           34752        GTSGO+ON           CAF      TWO                                   #  SET INDEXER FOR R-AXIS CALCULATIONS.
000059: 21,3113           13115                           TCF      GOQTRIMG   +1
000060:
000061: 21,3114           34755        GOQTRIMG           CAF      ZERO                                  #  SET INDEXER FOR Q-AXIS CALCULATIONS
000062: 21,3115           55747                           TS       QRCNTR
000063:
000064: 21,3116           51747                           INDEX    QRCNTR                                #  AOS SCALED AT PI/2
000065: 21,3117           31536                           CA       AOSQ
000066: 21,3120           00006                           EXTEND
000067: 21,3121           74752                           MP       BIT2                                  #  RESCALE AOS TO PI/4


000069: 21,3122           00006                           EXTEND
000070: 21,3123           13127                           BZF      GTSQAXIS   -3                         #  USE FULL SCALE FOR LARGER AOS ESTIMATES.
000071:
000072: 21,3124           50000                           INDEX    A
000073: 21,3125           44734                           CS       LIMITS                                #  LIMITS +1 CONTAINS NEGMAX.
000074: 21,3126           56001                           XCH      L                                     #  LIMITS -1 CONTAINS POSMAX.
000075:
000076: 21,3127           11747                           CCS      QRCNTR                                #  PICK UP RATE FOR THIS AXIS.  RATE CELLS
000077: 21,3130           50000                           INDEX    A                                     #  ARE ADJACENT, NOT SEPARATED.  AT PI/4
000078: 21,3131           31436                           CA       EDOTQ
000079: 21,3132           53743        GTSQAXIS           DXCH     WCENTRAL
000080:
000081: 21,3133           51747                           INDEX    QRCNTR                                #  COLLECT K FOR THIS AXIS
000082: 21,3134           31504                           CA       KQ
000083: 21,3135           55740                           TS       KCENTRAL
000084:
000085: 21,3136           00006                           EXTEND                                         #  CONTROL AUTHORITY ZERO.  AVOID DRIVING
000086: 21,3137           13575                           BZF      POSDRIVE   +1                         #  ENGINE BELL TO THE STOPS.
000087:
000088: 21,3140           51747                           INDEX    QRCNTR                                #  QDIFF, RDIFF ARE STORED IN D.P.
000089: 21,3141           31450                           CAE      QDIFF
000090:
000091: 21,3142           00006        ALGORTHM           EXTEND                                         #  Q(R)DIFF IS THETA (ERROR) SCALED AT PI.
000092: 21,3143           71740                           MP       KCENTRAL                              #  FORM K*ERROR AT PI(2)/2(8), IN D.P.
000093: 21,3144           23736                           LXCH     K2THETA
000094: 21,3145           00006                           EXTEND
000095: 21,3146           74747                           MP       BIT5                                  #  RESCALE TO 4*PI(2)
000096: 21,3147           53737                           DXCH     K2THETA
000097: 21,3150           00006                           EXTEND
000098: 21,3151           74747                           MP       BIT5                                  #  FIRST TERM OF NEGUSUM IN K2THETA.
000099: 21,3152           27737                           ADS      K2THETA    +1                         #  NO CARRY NEEDED       D.P. AT 4*PI(2)
000100:
000101: 21,3153           41743                           CS       ACENTRAL                              #  FORM ALPHA(2)/(2*K) AT 16*PI, IN D.P.,
000102: 21,3154           00006                           EXTEND                                         #  LIMITING QUOTIENT TO AVOID OVERFLOW.
000103: 21,3155           74736                           MP       BIT14                                 #  -ALPHA/2 IN A, SCALED AT PI/4
000104: 21,3156           00006                           EXTEND
000105: 21,3157           71743                           MP       ACENTRAL                              #  -ALPHA(2)/2 IN A,L, SCALED AT PI(2)/16
000106: 21,3160           61740                           AD       KCENTRAL
000107: 21,3161           00006                           EXTEND
000108: 21,3162           63177                           BZMF     HUGEQUOT                              #  K-ALPHA(2)/2 SHOULD BE PNZ FO DIVISION
000109:
000110: 21,3163           00006                           EXTEND
000111: 21,3164           40001                           DCS      A                                     #  ALPHA(2)/2 - K
000112: 21,3165           61740                           AD       KCENTRAL
000113: 21,3166           00006                           EXTEND
000114: 21,3167           11740                           DV       KCENTRAL                              #  HIGH ORDER OF QUOTIENT.
000115: 21,3170           57745                           XCH      A2CNTRAL
000116: 21,3171           30001                           CA       L                                     #  SHIFT UP THE REMAINDER.
000117: 21,3172           22007                           LXCH     7                                     #  ZERO LOW-ORDER DIVIDEND.
000118: 21,3173           00006                           EXTEND


000120: 21,3174           11740                           DV       KCENTRAL
000121: 21,3175           57746                           XCH      A2CNTRAL   +1                         #  QUOTIENT STORED AT 16*PI, D.P.
000122: 21,3176           13202                           TCF      HAVEQUOT
000123:
000124: 21,3177           34733        HUGEQUOT           CA       POSMAX
000125: 21,3200           54001                           TS       L
000126: 21,3201           53746                           DXCH     A2CNTRAL                              #  LIMITED QUOTIENT STORED AT 16*PI, D.P.
000127:
000128: 21,3202           31742        HAVEQUOT           CA       WCENTRAL
000129: 21,3203           00006                           EXTEND
000130: 21,3204           74743                           MP       BIT9                                  #  RESCALE OMEGA AT 16*PI IN D.P.
000131: 21,3205           53742                           DXCH     K2CNTRAL                              #  LOWER WORD OVERLAYS OMEGA IN WCENTRAL
000132:
000133: 21,3206           00006                           EXTEND
000134: 21,3207           31742                           DCA      K2CNTRAL
000135: 21,3210           53751                           DXCH     FUNCTION
000136:
000137: 21,3211           31743                           CA       ACENTRAL                              #  GET ALPHA*ABS(ALPHA)/(2*K)
000138: 21,3212           00006                           EXTEND
000139: 21,3213           63217                           BZMF     +4
000140:
000141: 21,3214           00006                           EXTEND
000142: 21,3215           31746                           DCA      A2CNTRAL
000143: 21,3216           13221                           TCF      +3
000144:
000145: 21,3217           00006                           EXTEND
000146: 21,3220           41746                           DCS      A2CNTRAL
000147:
000148: 21,3221           21751                           DAS      FUNCTION                              #  OMEGA + ALPHA*ABS(ALPHA)/2*K) AT 16*PI
000149:
000150: 21,3222           11750                           CCS      FUNCTION                              #  DEL = +1 FOR FUNCT1 GREATER THAN ZERO.
000151: 21,3223           13227                           TCF      POSFNCT1                              #  OTHERWISE DEL = -1
000152: 21,3224           13226                           TCF      +2
000153: 21,3225           13231                           TCF      NEGFNCT1
000154:
000155: 21,3226           11751                           CCS      FUNCTION   +1                         #  USE LOW ORDER WORD SINCE HIGH IS ZERO
000156: 21,3227           34753        POSFNCT1           CAF      BIT1
000157: 21,3230           13232                           TCF      +2
000158: 21,3231           44753        NEGFNCT1           CS       BIT1
000159: 21,3232           55744                           TS       DEL
000160:
000161: 21,3233           11744                           CCS      DEL                                   #  REPLACE OMEGA BY DEL*OMEGA
000162: 21,3234           13246                           TCF      FUNCT2                                #  POSITIVE DEL VALUE.  PROCEED.
000163: 21,3235           13237                           TCF      DEFUNCT
000164: 21,3236           13243                           TCF      NEGFNCT2
000165:
000166: 21,3237           55741        DEFUNCT            TS       K2CNTRAL
000167: 21,3240           55742                           TS       K2CNTRAL   +1
000168: 21,3241           13246                           TCF      FUNCT2
000169:


000171: 21,3242           65252        NEG1/3             DEC      -.33333
000172:
000173: 21,3243           00006        NEGFNCT2           EXTEND
000174: 21,3244           41742                           DCS      K2CNTRAL
000175: 21,3245           53742                           DXCH     K2CNTRAL
000176:
000177: 21,3246           00006        FUNCT2             EXTEND
000178: 21,3247           31746                           DCA      A2CNTRAL
000179: 21,3250           21742                           DAS      K2CNTRAL                              #  DEL*OMEGA + ALPHA(2)/(2*K) AT 16*PI, D.P.
000180:
000181: 21,3251           31745        FUNCT3             CA       A2CNTRAL
000182: 21,3252           00006                           EXTEND
000183: 21,3253           73242                           MP       NEG1/3
000184: 21,3254           53746                           DXCH     A2CNTRAL
000185: 21,3255           30001                           CA       L
000186: 21,3256           00006                           EXTEND
000187: 21,3257           73242                           MP       NEG1/3
000188: 21,3260           27746                           ADS      A2CNTRAL   +1
000189: 21,3261           54001                           TS       L
000190: 21,3262           13264                           TCF      +2                                    #  A2CNTRAL NOW CONTAINS -ALPHA(2)/(6*K),
000191: 21,3263           27745                           ADS      A2CNTRAL                              #  SCALED AT 16*PI, IN D.P.
000192:
000193: 21,3264           00006                           EXTEND
000194: 21,3265           31742                           DCA      K2CNTRAL                              #  DEL*OMEGA + ALPHA(2)/(3*K) IN A2CNTRAL,
000195: 21,3266           21746                           DAS      A2CNTRAL                              #  SCALED AT 16*PI, D.P.
000196:
000197: 21,3267           31745                           CA       A2CNTRAL
000198: 21,3270           00006                           EXTEND
000199: 21,3271           71743                           MP       ACENTRAL
000200: 21,3272           21737                           DAS      K2THETA
000201: 21,3273           31746                           CA       A2CNTRAL   +1
000202: 21,3274           00006                           EXTEND
000203: 21,3275           71743                           MP       ACENTRAL                              #  ACENTRAL MAY NOW BE OVERLAID.
000204: 21,3276           27737                           ADS      K2THETA    +1
000205: 21,3277           54001                           TS       L
000206: 21,3300           13302                           TCF      +2                                    #  TWO TERMS OF NEGUSUM ACCUMULATED, SO FAR
000207: 21,3301           27736                           ADS      K2THETA                               #  SCALED AT 4*PI(2), IN D.P.
000208:
000209: 21,3302           31741        GETROOT            CA       K2CNTRAL                              #  K*(DEL*OMEGA + ALPHA(2)/(2*K)) IS THE
000210: 21,3303           00006                           EXTEND                                         #  TERM FOR WHICH A SQUARE ROOT IS NEEDED.
000211: 21,3304           71740                           MP       KCENTRAL                              #  K AT PI/2(8)
000212: 21,3305           53751                           DXCH     FUNCTION
000213: 21,3306           31742                           CA       K2CNTRAL   +1
000214: 21,3307           00006                           EXTEND
000215: 21,3310           71740                           MP       KCENTRAL
000216: 21,3311           27751                           ADS      FUNCTION   +1
000217: 21,3312           54001                           TS       L
000218: 21,3313           13315                           TCF      +2
000219: 21,3314           27750                           ADS      FUNCTION                              #  DESIRED TERM IN FUNCTION, AT PI(2)/16


000221: 21,3315           11744                           CCS      DEL
000222: 21,3316           13523                           TCF      RSTOFGTS
000223: 21,3317           13565                           TCF      NEGUSUM
000224: 21,3320           13322                           TCF      NEGATE
000225: 21,3321           13565                           TCF      NEGUSUM
000226:
000227: 21,3322           00006        NEGATE             EXTEND
000228: 21,3323           41742                           DCS      K2CNTRAL
000229: 21,3324           53742                           DXCH     K2CNTRAL
000230: 21,3325           13523                           TCF      RSTOFGTS
000231:
000232: 16,3741                                           BANK     16
000233: 16,3741  E6,1501                                  EBANK=   NEGUQ
000234: 16,2000                                           SETLOC   DAPS1
000235: 16,2000                                           BANK
000236:
000237:                                                                                                  #  THE WRCHN12 SUBROUTINE SETS BITS 9,10,11,12 OF CHANNEL 12 ON THE BASIS OF THE CONTENTS OF NEGUQ,NEGUR WHICH ARE
000238:                                                                                                  #  THE NEGATIVES OF THE DESIRED ACCELERATION CHANGES.  ACDT+C12 SETS Q(R)ACCDOT TO REFLECT THE NEW DRIVES.
000239:
000240:                                                                                                  #  WARNING:  ACDT+C12 AND WRCHN12 MUST BE CALLED WITH INTERRUPT INHIBITED.
000241:
000242: 16,3741           07400        BGIM               OCTAL    07400
000243: 16,3742     0066               CHNL12             EQUALS   ITEMP6
000244: 16,3742           41501        ACDT+C12           CS       NEGUQ
000245: 16,3743           00006                           EXTEND                                         #  GIMBAL DRIVE REQUESTS.
000246: 16,3744           71507                           MP       ACCDOTQ
000247: 16,3745           23510                           LXCH     QACCDOT
000248: 16,3746           41503                           CS       NEGUR
000249: 16,3747           00006                           EXTEND
000250: 16,3750           71511                           MP       ACCDOTR
000251: 16,3751           23512                           LXCH     RACCDOT
000252:
000253: 16,3752           11501                           CCS      NEGUQ
000254: 16,3753           34742                           CAF      BIT10
000255: 16,3754           13756                           TCF      +2
000256: 16,3755           34743                           CAF      BIT9
000257: 16,3756           54066                           TS       CHNL12
000258:
000259: 16,3757           11503                           CCS      NEGUR
000260: 16,3760           34740                           CAF      BIT12
000261: 16,3761           13763                           TCF      +2
000262: 16,3762           34741                           CAF      BIT11
000263: 16,3763           26066                           ADS      CHNL12                                #  (STORED RESULT NOT USED AT PRESENT)
000264:
000265: 16,3764           43741                           CS       BGIM
000266: 16,3765           00006                           EXTEND
000267: 16,3766           02012                           RAND     CHAN12
000268: 16,3767           60066                           AD       CHNL12
000269: 16,3770           00006                           EXTEND
000270: 16,3771           01012                           WRITE    CHAN12


000272: 16,3772           44747                           CS       CALLGMBL                              #  TURN OFF REQUEST FOR ACDT+C12 EXECUTION.
000273: 16,3773           71262                           MASK     RCSFLAGS
000274: 16,3774           55262                           TS       RCSFLAGS
000275:
000276: 16,3775           00002                           TC       Q                                     #  RETURN TO CALLER.
000277:
000278: 21,3326                                           BANK     21
000279: 21,3326  E6,1450                                  EBANK=   QDIFF
000280: 21,2000                                           SETLOC   DAPS4
000281: 21,2000                                           BANK
000282:


000284:                                                                                                  #  SUBROUTINE TIMEGMBL:  MOD 0, OCTOBER 1967, CRAIG WORK
000285:
000286:                                                                                                  #  TIMEGMBL COMPUTES THE DRIVE TIME NEEDED FOR THE TRIM GIMBAL TO POSITION THE DESCENT ENGINE NOZZLE SO AS TO NULL
000287:                                                                                                  #  THE OFFSET ANGULAR ACCELERATION ABOUT THE Q (OR R) AXIS.  INSTEAD OF USING AOSQ(R), TIMEGMBL USES .4*AOSQ(R),
000288:                                                                                                  #  SCALED AT PI/8.  FOR EACH AXIS, THE DRIVE TIME IS COMPUTED AS ABS(ALPHA/ACCDOT).  A ZERO
000289:                                                                                                  #  ALPHA OR ACCDOT OR A ZERO QUOTIENT TURNS OFF THE GIMBAL DRIVE IMMEDIATELY.  OTHERWISE, THE GIMBAL IS TURNED ON
000290:                                                                                                  #  DRIVING IN THE CORRECT DIRECTION.  THE Q(R)GIMTIMR IS SET TO TERMINATE THE DRIVE AND Q(R)ACCDOT
000291:                                                                                                  #  IS STORED TO REFLECT THE NEW ACCELERATION DERIVATIVE.  NEGUQ(R) WILL CONTAIN +1,+0,-1 FOR A Q(R)ACCDOT VALUE
000292:                                                                                                  #  WHICH IS NEGATIVE, ZERO, OR POSITIVE.
000293:
000294:                                                                                                  #  INPUTS:       AOSQ,AOSR, SCALED AT P1/2, AND ACCDOTQ, ACCDOTR AT PI/2(7).     PI/2(7).
000295:
000296:                                                                                                  #  OUTPUTS:      NEW GIMBAL DRIVE BITS IN CHANNEL 12, NEGUQ, NEGUR, QACCDOT AND RACCDOT, THE LAST SCALED AT PI/2(7).
000297:                                                                                                  #                Q(R)GIMTIMR WILL BE SET TO TIME AND TERMINATE GIMBAL DRIVE(S)
000298:
000299:                                                                                                  #  DEBRIS:       A, L, Q, ITEMPS 2, 3, 6, RUPTREG2 AND ACDT+C12 DEBRIS.
000300:
000301:                                                                                                  #  EXITS:        VIA TC Q.
000302:
000303:                                                                                                  #  ALARMS, ABORTS, :  NONE
000304:
000305:                                                                                                  #  SUBROUTINES:  ACDT+C12, IBNKCALL
000306:
000307:                                                                                                  #  WARNING:      THIS SUBROUTINE WRITES INTO CHANNEL 12 AND USES THE ITEMPS.  THEREFORE IT MAY ONLY BE CALLED WITH
000308:                                                                                                  #                INTERRUPT INHIBITED.
000309:
000310:                                                                                                  #  ERASABLE STORAGE CONFIGURATION (NEEDED BY THE INDEXING METHODS):
000311:                                                                                                  #        NEGUQ           ERASE   +2              NEGATIVE OF Q-AXIS GIMBAL DRIVE
000312:                                                                                                  #        (SPWORD)        EQUALS  NEGUQ +1        ANY S.P. ERASABLE NUMBER, NOW THRSTCMD
000313:                                                                                                  #        NEGUR           EQUALS  NEGUQ +2        NEGATIVE OF R-AXIS GIMBAL DRIVE
000314:                                                                                                  #        ACCDOTQ         ERASE   +2              Q-JERK TERM SCALED AT PI/2(7) RAD/SEC(3)
000315:                                                                                                  #        (SPWORD)        EQUALS  ACCDOTQ +1      ANY S.P. ERASABLE NUMBER NOW QACCDOT
000316:                                                                                                  #        ACCDOTR         EQUALS  ACCDOTQ +2      R-JERK TERM SCALED AT PI/2(7) RAD/SEC(3)
000317:                                                                                                  #                                                ACCDOTQ, ACCDOTR ARE MAGNITUDES.
000318:                                                                                                  #        AOSQ            ERASE   +4              Q-AXIS ACC., D.P. AT PI/2 R/SEC(2)
000319:                                                                                                  #        AOSR            EQUALS  AOSQ +2         R-AXIS ACCELERATION SCALED AT PI/2 R/S2
000320:
000321: 21,3326     0066               QRNDXER            EQUALS   ITEMP6
000322: 21,3326           23146        OCT23146           OCTAL    23146                                 #  DECIMAL .6
000323: 21,3327     0063               NZACCDOT           EQUALS   ITEMP3
000324:
000325: 21,3327           34753        TIMEGMBL           CAF      ONE                                   #  INITIALIZE ALLOWGTS.
000326: 21,3330           55502                           TS       ALLOWGTS
000327:
000328: 21,3331           34752                           CAF      TWO                                   #  SET UP LOOP FOR R AXIS.
000329: 21,3332           22002                           LXCH     Q                                     #  SAVE RETURN ADDRESS.
000330: 21,3333           22071                           LXCH     RUPTREG2


000332: 21,3334           13336                           TCF      +2
000333: 21,3335           34755        TIMQGMBL           CAF      ZERO                                  #  NOW DO THE Q-AXIS
000334: 21,3336           54066                           TS       QRNDXER
000335: 21,3337           50066                           INDEX    QRNDXER
000336: 21,3340           31507                           CA       ACCDOTQ                               #  ACCDOT IS PRESUMED TO BE AT PI/2(7).
000337: 21,3341           00006                           EXTEND
000338: 21,3342           63412                           BZMF     TGOFFNOW                              #  IS ACCDOT LESS THAN OR EQUAL TO 0?
000339: 21,3343           54063                           TS       NZACCDOT                              #  NO.  STORE NON-ZERO, POSITIVE ACCDOT.
000340:
000341: 21,3344           50066        ALPHATRY           INDEX    QRNDXER
000342: 21,3345           41536                           CS       AOSQ
000343: 21,3346           00006                           EXTEND
000344: 21,3347           13412                           BZF      TGOFFNOW                              #  IS ALPHA ZERO?
000345:
000346: 21,3350           54002                           TS       Q                                     #  SAVE A COPY OF -AOS.
000347: 21,3351           00006                           EXTEND                                         #  NO.  RESCALE FOR TIMEGMBL USE.
000348: 21,3352           73326                           MP       OCT23146                              #  OCTAL 23146 IS DECIMAL .6
000349: 21,3353           60002                           AD       Q                                     #  -1.6*AOS AT PI/2 = -.4*AOS AT PI/8.
000350: 21,3354           54001                           TS       L                                     #  WAS THERE OVERFLOW?
000351: 21,3355           13362                           TCF      SETNEGU                               #  NO.  COMPUTE DRIVE TIME.
000352:
000353: 21,3356           40000                           CS       A                                     #  RECOVER -SGN(AOS) IN THE A REGISTER.
000354: 21,3357           50066                           INDEX    QRNDXER                               #  YES.  START DRIVE WITHOUT WAITLIST.
000355: 21,3360           57501                           XCH      NEGUQ
000356: 21,3361           13416                           TCF      NOTALLOW                              #  KNOCK DOWN THE ALLOWGTS FLAG.
000357:
000358: 21,3362           00006        SETNEGU            EXTEND
000359: 21,3363           63370                           BZMF     POSALPH
000360:
000361: 21,3364           40000                           COM
000362: 21,3365           54062                           TS       ITEMP2                                #  STORE -ABS(.4*AOS) SCALED AT PI/8.
000363: 21,3366           44753                           CS       BIT1
000364: 21,3367           13372                           TCF      POSALPH    +2
000365: 21,3370           54062        POSALPH            TS       ITEMP2                                #  STORE -ABS(.4*AOS) SCALED AT PI/8.
000366: 21,3371           34753                           CA       BIT1
000367: 21,3372           50066                 +2        INDEX    QRNDXER                               #  SGN(AOS) INTO NEGU
000368: 21,3373           55501                           TS       NEGUQ                                 #  STORE SGN(APLHA) AS NEGU
000369:
000370: 21,3374           30063                           CA       NZACCDOT
000371: 21,3375           00006                           EXTEND
000372: 21,3376           74740                           MP       BIT12                                 #  2*ACCDOT, SCALED AT PI/8.
000373: 21,3377           60062                           AD       ITEMP2                                #  -ABS(ALPHA) + 2*ACCDOT, AT PI/8.
000374: 21,3400           00006                           EXTEND
000375: 21,3401           63416                           BZMF     NOTALLOW                              #  IS DRIVE TIME MORE THAN TWO SECONDS?
000376: 21,3402           40062                           CS       ITEMP2                                #  NO.  COMPUTE DRIVE TIME.
000377: 21,3403           00006                           EXTEND                                         #  ABS(ALPHA) AT PI/8.
000378: 21,3404           73437                           MP       OCT00240                              #  DECIMAL 10/1024
000379: 21,3405           00006                           EXTEND                                         #  QUOTIENT IS DRIVE TIME AT WAITLIST.
000380: 21,3406           10063                           DV       NZACCDOT                              #  ABS(ALPHA)/ACCDOT AT 2(14)/100


000382: 21,3407           00006                           EXTEND
000383: 21,3410           13412                           BZF      TGOFFNOW                              #  DRIVE TIME MUST BE GREATER THAN ZERO.
000384:
000385: 21,3411           13424                           TCF      DRIVEON
000386:
000387: 21,3412           34755        TGOFFNOW           CAF      ZERO                                  #  TURN OFF GIMBAL NOW.
000388: 21,3413           50066                           INDEX    QRNDXER
000389: 21,3414           55501                           TS       NEGUQ
000390:
000391: 21,3415           13426                           TCF      DONEYET
000392:
000393: 21,3416           36010        NOTALLOW           CAF      OCT31
000394: 21,3417           50066                           INDEX    QRNDXER
000395: 21,3420           55631                           TS       QGIMTIMR
000396: 21,3421           34755                           CAF      ZERO                                  #  DRIVE TIME IS MORE THAN 2 SECONDS, SO
000397: 21,3422           55502                           TS       ALLOWGTS                              #  DO NOT PERMIT FURTHER GTS ATTITUDE-RATE
000398:                                                                                                  #  CONTROL UNTIL AOSTASK APPROVES.
000399: 21,3423           13426                           TCF      DONEYET                               #  NO WAITLIST CALL IS MADE.
000400:
000401: 21,3424           50066        DRIVEON            INDEX    QRNDXER
000402: 21,3425           55631                           TS       QGIMTIMR                              #  CHOOSE Q OR R AXIS.
000403:
000404: 21,3426           10066        DONEYET            CCS      QRNDXER
000405: 21,3427           13335                           TCF      TIMQGMBL
000406:
000407: 21,3430           52073                           DXCH     RUPTREG3                              #  PROTECT IBNKCALL ERASABLES.  ACDT+C12
000408: 21,3431           52063                           DXCH     ITEMP2                                #  LEAVES ITEMPS2,3 ALONE.
000409:
000410: 21,3432           04674                           TC       IBNKCALL                              #  TURN OF CHANNEL BITS, SET Q(R)ACCDOTS.
000411: 21,3433           35742                           CADR     ACDT+C12
000412:
000413: 21,3434           52063                           DXCH     ITEMP2                                #  RESTORE ERASABLES FOR IBNKCALL.
000414: 21,3435           52073                           DXCH     RUPTREG3
000415:
000416: 21,3436           00071                           TC       RUPTREG2                              #  RETURN TO CALLER.
000417:
000418: 21,3437           00240        OCT00240           OCTAL    00240                                 #  DECIMAL 10/1024
000419:


000421:                                                                                                  #  THE FOLLOWING SECTION IS A CONTINUATION OF THE TRIM GIMBAL CONTROL FROM THE LAST GTS ENTRY.  THE QUANTITY NEGUSUM
000422:                                                                                                  #  IS COMPUTED FOR EACH AXIS (Q,R), .707*DEL*FUNCTION(3/2) + K2THETA = NEGUSUM.  NEW DRIVES ARE ENTERED TO CH 12.
000423:
000424:                                                                                                  #  THE SUBROUTINE GTSQRT ACCEPTS A DOUBLE PRECISION VALUE IN FUNCTION, FUNCTION +1 AND RETURNS A SINGLE-PRECISION
000425:                                                                                                  #  SQUARE ROOT OF THE FOURTEEN MOST SIGNIFICANT BITS OF THE ARGUMENT.  ALSO, THE CELL SHFTFLAG CONTAINS A BINARY
000426:                                                                                                  #  EXPONENT S, SUCH THAT THE SQUARE ROOT (RETURNED IN THE A REGISTER) MUST BE SHIFTED RIGHT (MULTIPLIED BY 2 TO THE
000427:                                                                                                  #  POWER (-S)) IN ORDER TO BE THE TRUE SQUARE ROOT OF THE FOURTEEN MOST SIGNIFICANT BITS OF FUNCTION, FUNCTION +1.
000428:                                                                                                  #  SQUARE ROOT ERROR IS NOT MORE THAN 2 IN THE 14TH SIGNIFICANT BIT.  CELLS CLOBBERED ARE A, L, SHFTFLAG, ININDEX,
000429:                                                                                                  #  HALFARG, SCRATCH, SR, FUNCTION, FUNCTION +1.  GTSQRT IS CALLED BY TC GTSQRT AND RETURNS VIA TC Q OR TC FUNCTION +1.
000430:                                                                                                  #  ZERO OR NEGATIVE ARGUMENTS YIELD ZERO FOR SQUARE ROOTS.
000431:
000432: 21,3440           11750        GTSQRT             CCS      FUNCTION
000433: 21,3441           13457                           TCF      GOODARG                               #  FUNCTION IS POSITIVE.  TAKE SQUARE ROOT.
000434: 21,3442           13444                           TCF      +2                                    #  HIGH ORDER WORD IS ZERO.  TRY THE LOWER.
000435: 21,3443           13450                           TCF      ZEROOT                                #  NEGATIVE.  USE ZERO FOR 1/2 POWER.
000436:
000437: 21,3444           31751                           CA       FUNCTION   +1
000438: 21,3445           00006                           EXTEND
000439: 21,3446           63450                           BZMF     ZEROOT
000440:
000441: 21,3447           13453                           TCF      ZEROHIGH                              #  PROCEED.
000442: 21,3450           34755        ZEROOT             CA       ZERO
000443: 21,3451           55740                           TS       SHFTFLAG
000444: 21,3452           00002                           TC       Q
000445:
000446: 21,3453           57750        ZEROHIGH           XCH      FUNCTION                              #  14 MOST SIGNIFICANT BITS ARE IN THE
000447: 21,3454           57751                           XCH      FUNCTION   +1                         #  LOWER WORD.  EXCHANGE THEM.
000448: 21,3455           34757                           CA       SEVEN
000449: 21,3456           13460                           TCF      GOODARG    +1
000450:
000451: 21,3457           34755        GOODARG            CA       ZERO
000452: 21,3460           55740                           TS       SHFTFLAG
000453: 21,3461           35741                           CA       TWELVE                                #  INITIALIZE THE SCALING LOOP.
000454: 21,3462           55743                           TS       ININDEX
000455: 21,3463           13472                           TCF      SCALLOOP
000456:
000457: 21,3464           31750        SCALSTRT           CA       FUNCTION
000458: 21,3465           13506                           TCF      SCALDONE
000459:
000460: 21,3466           37751        MULBUSH            CA       NEG2                                  #  IF ARG IS NOT LESS THAN 1/4, INDEX IS
000461: 21,3467           27743                           ADS      ININDEX                               #  ZERO, INDICATING NO SHIFT NEEDED.
000462: 21,3470           00006                           EXTEND                                         #  BRANCH IF ARG IS NOT LESS THAN 1/4.
000463: 21,3471           63464                           BZMF     SCALSTRT                              #  OTHERWISE COMPARE ARG WITH A REFERENCE
000464:                                                                                                  #  WHICH IS 4 TIMES LARGER THAN THE LAST.
000465: 21,3472           41750        SCALLOOP           CS       FUNCTION
000466: 21,3473           51743                           INDEX    ININDEX
000467: 21,3474           64735                           AD       BIT15                                 #  REFERENCE MAGNITUDE LESS OR EQUAL TO 1/4
000468: 21,3475           00006                           EXTEND
000469: 21,3476           63466                           BZMF     MULBUSH                               #  IF ARG IS NOT LESS THAN REFERENCE, GO
000470:                                                                                                  #  AROUND THE MULBERRY BUSH ONCE MORE.


000472: 21,3477           51743                           INDEX    ININDEX
000473: 21,3500           34735                           CA       BIT15                                 #  THIS IS THE SCALE MAGNITUDE
000474: 21,3501           57746                           XCH      HALFARG                               #  2**(-ININDEX) IS THE SHIFT DIVISOR.
000475: 21,3502           00006                           EXTEND                                         #  RESCALE ARGUMENT.
000476: 21,3503           31751                           DCA      FUNCTION
000477: 21,3504           00006                           EXTEND
000478: 21,3505           11746                           DV       HALFARG
000479:                                                                                                  #  ININDEX AND SHFTFLAG PRESERVE INFO FOR
000480:                                                                                                  #  RESCALING AFTER ROOT PROCESS.
000481: 21,3506           00006        SCALDONE           EXTEND
000482: 21,3507           23751                           QXCH     FUNCTION   +1                         #  SAVE Q FOR RETURN
000483: 21,3510           00006                           EXTEND
000484: 21,3511           74736                           MP       BIT14
000485: 21,3512           55746                           TS       HALFARG
000486: 21,3513           74737                           MASK     BIT13
000487: 21,3514           10000                           CCS      A
000488: 21,3515           33633                           CA       OCT11276
000489: 21,3516           63631                           AD       ROOTHALF                              #  INITIAL GUESS IS ROOT 1/2 OR POSMAX
000490: 21,3517           03635                           TC       ROOTCYCL
000491: 21,3520           03635                           TC       ROOTCYCL
000492: 21,3521           03635                           TC       ROOTCYCL
000493: 21,3522           01751                           TC       FUNCTION   +1
000494:
000495:                                                                                                  #  ****************************************************************************************************************
000496:
000497: 21,3523           03440        RSTOFGTS           TC       GTSQRT
000498: 21,3524           57741        PRODUCT            XCH      K2CNTRAL
000499: 21,3525           00006                           EXTEND
000500: 21,3526           71741                           MP       K2CNTRAL
000501: 21,3527           53742                           DXCH     K2CNTRAL
000502: 21,3530           00006                           EXTEND                                         #                THE PRODUCT OF
000503: 21,3531           70001                           MP       L                                     #   1/2                   2       1/2
000504: 21,3532           27742                           ADS      K2CNTRAL   +1                         #  K   *(DEL*OMEGA + ALPHA /(2*K))
000505: 21,3533           54001                           TS       L                                     #                      AND
000506: 21,3534           13536                           TCF      +2                                    #                        2
000507: 21,3535           27741                           ADS      K2CNTRAL                              #   DEL*(DEL*OMEGA + ALPHA /(2*K)) NOW IN
000508:                                                                                                  #  K2CNTRAL
000509:
000510: 21,3536           31743        DOSHIFT            CA       ININDEX
000511: 21,3537           00006                           EXTEND                                         #  MULTIPLY IN THE FACTOR 2(-S), RETURNED
000512: 21,3540           74736                           MP       BIT14                                 #  BY THE GTSQRT SUBROUTINE
000513: 21,3541           27740                           ADS      SHFTFLAG
000514: 21,3542           00006                           EXTEND
000515: 21,3543           13562                           BZF      ADDITIN
000516: 21,3544           51740                           INDEX    SHFTFLAG
000517: 21,3545           34735                           CA       BIT15


000519: 21,3546           57741                           XCH      K2CNTRAL
000520: 21,3547           00006                           EXTEND
000521: 21,3550           71741                           MP       K2CNTRAL
000522: 21,3551           21737                           DAS      K2THETA
000523: 21,3552           57741                           XCH      K2CNTRAL
000524: 21,3553           00006                           EXTEND
000525: 21,3554           71742                           MP       K2CNTRAL   +1
000526: 21,3555           27737                           ADS      K2THETA    +1
000527: 21,3556           54001                           TS       L
000528: 21,3557           13561                           TCF      +2
000529: 21,3560           27736                           ADS      K2THETA
000530:
000531: 21,3561           13565                           TCF      NEGUSUM
000532:
000533: 21,3562           00006        ADDITIN            EXTEND
000534: 21,3563           31742                           DCA      K2CNTRAL
000535: 21,3564           21737                           DAS      K2THETA                               #  NOW ADD IN THE K2THETA TERM.
000536: 21,3565           11736        NEGUSUM            CCS      K2THETA                               #  TEST SIGN OF HIGH ORDER PART.
000537: 21,3566           13572                           TCF      NEGDRIVE
000538: 21,3567           13571                           TCF      +2
000539: 21,3570           13574                           TCF      POSDRIVE
000540:
000541: 21,3571           11737                           CCS      K2THETA    +1                         #  SIGN TEST FOR LOW ORDER PART.
000542: 21,3572           34753        NEGDRIVE           CA       BIT1
000543: 21,3573           13575                           TCF      +2                                    #  STOP GIMBAL DRIVE FOR A ZERO NEGUSUM.
000544: 21,3574           44753        POSDRIVE           CS       BIT1
000545: 21,3575           54001                           TS       L                                     #  SAVE FOR DRIVE REVERSAL TEST.
000546: 21,3576           51747                           INDEX    QRCNTR
000547: 21,3577           57501                           XCH      NEGUQ
000548:
000549: 21,3600           00006                           EXTEND
000550: 21,3601           70001                           MP       L                                     #  MULTIPLY OLD NEGU AND NEW NEGU.
000551: 21,3602           10001                           CCS      L
000552: 21,3603           13620                           TCF      LOUPE                                 #  NON-ZERO GIMBAL DRIVE BEING CONTINUED.
000553:
000554: 21,3604           13615                           TCF      ZEROLOUP                              #  NO REVERSAL PROBLEM HERE.
000555:
000556: 21,3605           13607                           TCF      REVERSAL                              #  NON-ZERO GIMBAL DRIVE BEING REVERSED.
000557: 21,3606           13615                           TCF      ZEROLOUP                              #  NO REVERSAL PROBLEM HERE.
000558:
000559: 21,3607           51747        REVERSAL           INDEX    QRCNTR                                #  A ZERO-DRIVE PAUSE IS NEEDED HERE.  ZERO
000560: 21,3610           55510                           TS       QACCDOT                               #  IS IN A REGISTER FROM CCS ON (-1).
000561: 21,3611           51747                           INDEX    QRCNTR
000562: 21,3612           43632                           CS       GMBLBITA
000563: 21,3613           00006                           EXTEND
000564: 21,3614           03012                           WAND     CHAN12
000565:
000566: 21,3615           41262        ZEROLOUP           CS       RCSFLAGS                              #  SET UP REQUEST FOR ACDT+C12 CALL.
000567: 21,3616           74747                           MASK     CALLGMBL
000568: 21,3617           27262                           ADS      RCSFLAGS


000570: 21,3620           11747        LOUPE              CCS      QRCNTR                                #  HAVE BOTH AXES BEEN PROCESSED?
000571: 21,3621           13114                           TCF      GOQTRIMG                              #  NO.  DO Q AXIS NEXT.
000572:
000573: 21,3622           31505                           CA       SAVESR                                #  RESTORE THE SR
000574: 21,3623           54021                           TS       SR
000575:
000576: 21,3624           00006        GOCLOSE            EXTEND                                         #  TERMINATE THE JASK.
000577: 21,3625           33630                           DCA      CLOSEADR
000578: 21,3626           52006                           DTCB
000579:
000580: 21,3627  E6,1536                                  EBANK=   AOSQ
000581: 21,3627           03270 36106  CLOSEADR           2CADR    CLOSEOUT                              #  TERMINATE THE JASK.
000582:
000583: 21,3631     5741               TWELVE             EQUALS   OCT14
000584: 21,3631           26501        ROOTHALF           OCTAL    26501                                 #  SQUARE ROOT OF 1/2
000585: 21,3632           01400        GMBLBITA           OCTAL    01400                                 #  INDEXED WRT GMBLBITB  DO NOT MOVE ******
000586: 21,3633           11276        OCT11276           OCTAL    11276                                 #  POSMAX - ROOTHALF
000587: 21,3634           06000        GMBLBITB           OCTAL    06000                                 #  INDEXED WRT GMBLBITA  DO NOT MOVE ******
000588:
000589:                                                                                                  #  SUBROUTINE ROOTCYCL:  BY CRAIG WORK, 3 APRIL 68
000590:
000591:                                                                                                  #  ROOTCYCL IS A SUBROUTINE WHICH EXECUTES ONE NEWTON SQUARE ROOT ALGORITHM ITERATION.  THE INITIAL GUESS AT THE
000592:                                                                                                  #  SQUARE ROOT IS PRESUMED TO BE IN THE A REGISTER AND ONE-HALF THE SQUARE IS TAKEN FROM HALFARG.  THE NEW APPROXI-
000593:                                                                                                  #  MATION TO THE SQUARE ROOT IS RETURNED IN THE A REGISTER.  DEBRIS:  A, L, SR, SCRATCH.  ROOTCYCL IS CALLED FROM
000594:                                                                                                  #  LOCATION (LOC) BY A TC ROOTCYCL, AND RETURNS (TC Q) TO LOC +1.
000595:
000596:                                                                                                  #  WARNING:  IF THE INITIAL GUESS IS NOT GREATER THAN THE SQUARE, DIVIDE OR ADD OVERFLOW IS A REAL POSSIBILITY.
000597:
000598: 21,3635           55745        ROOTCYCL           TS       SCRATCH                               #  STORE X
000599: 21,3636           54021                           TS       SR                                    #  X/2 NOW IN SR
000600: 21,3637           31746                           CA       HALFARG                               #  ARG/2 IN THE A REG
000601: 21,3640           22007                           ZL                                             #  PREPARE FOR DIVISION
000602: 21,3641           00006                           EXTEND
000603: 21,3642           11745                           DV       SCRATCH                               #  (ARG/X)/2
000604: 21,3643           60021                           AD       SR                                    #  (X + ARG/X)/2 IN THE A REG
000605: 21,3644           00002                           TC       Q
000606:
000607:

End of include-file TRIM_GIMBAL_CONTROL_SYSTEM.agc.  Parent file is MAIN.agc


