
Source Code


000002:                                                                                                  ## Copyright:   Public domain.
000003:                                                                                                  ## Filename:    ALARM_AND_ABORT.agc
000004:                                                                                                  ## Purpose:     A section of Comanche revision 067.
000005:                                                                                                  ##              It is part of the reconstructed source code for the flight
000006:                                                                                                  ##              software for the Command Module's (CM) Apollo Guidance Computer
000007:                                                                                                  ##              (AGC) for Apollo 12. No original listings of this program are
000008:                                                                                                  ##              available; instead, this file was created via dissassembly of
000009:                                                                                                  ##              dumps of Comanche 067 core rope modules and comparison with
000010:                                                                                                  ##              other AGC programs.
000011:                                                                                                  ## Assembler:   yaYUL
000012:                                                                                                  ## Contact:     Ron Burkey <info@sandroid.org>.
000013:                                                                                                  ## Website:     www.ibiblio.org/apollo/index.html
000014:                                                                                                  ## Mod history: 2023-08-16 MAS  Created from Comanche 055.
000015:                                                                                                  ##              2024-05-13 MAS  Updated for Comanche 067.
000016:
000017:                                                                                                  #  THE FOLLOWING SUBROUTINE MAY BE CALLED TO DISPLAY A NON-ABORTIVE ALARM CONDITION.  IT MAY BE CALLED
000018:                                                                                                  #  EITHER IN INTERRUPT OR UNDER EXECUTIVE CONTROL.
000019:
000020:                                                                                                  #  CALLING SEQUENCE IS AS FOLLOWS:
000021:                                                                                                  #                TC      ALARM
000022:                                                                                                  #                OCT     NNNNN
000023:                                                                                                  #                                        (RETURNS HERE)
000024:
000025:    5664                                           BLOCK    02
000026:    4000                                           SETLOC   FFTAG7
000027:    4000                                           BANK
000028:
000029:    5664     0374                                  EBANK=   FAILREG
000030:
000031:    5664                                           COUNT    02/ALARM
000032:
000033:                                                                                                  #  ALARM TURNS ON THE PROGRAM ALARM LIGHT, BUT DOES NOT DISPLAY.
000034:
000035:    5664           00004        ALARM              INHINT
000036:
000037:    5665           30002                           CA       Q
000038:    5666           55363        ALARM2             TS       ALMCADR
000039:    5667           50002                           INDEX    Q
000040:    5670           30000                           CA       0
000041:    5671           54001        BORTENT            TS       L
000042:
000043:    5672           30006        PRIOENT            CA       BBANK
000044:    5673           00006                 +1        EXTEND
000045:    5674           04007                           ROR      SUPERBNK                              #  ADD SUPER BITS.
000046:    5675           55364                           TS       ALMCADR    +1
000047:
000048:    5676           30002        LARMENT            CA       Q                                     #  STORE RETURN FOR ALARM
000049:    5677           54061                           TS       ITEMP1
000050:
000051:    5700           30164                           CA       LOC
000052:    5701           54057                           TS       LOCALARM
000053:    5702           30165                           CA       BANKSET
000054:    5703           54060                           TS       BANKALRM
000055:
000056:    5704           10374        CHKFAIL1           CCS      FAILREG                               #  IS ANYTHING IN FAILREG
000057:    5705           15711                           TCF      CHKFAIL2                              #  YES TRY NEXT REG
000058:    5706           30001                           CA       L
000059:    5707           54374                           TS       FAILREG
000060:    5710           15715                           TCF      PROGLARM                              #  TURN ALARM LIGHT ON FOR FIRST ALARM
000061:
000062:    5711           10375        CHKFAIL2           CCS      FAILREG    +1
000063:    5712           15715                           TCF      PROGLARM
000064:    5713           30001                           CA       L
000065:    5714           54375                           TS       FAILREG    +1
000066:
000067:    5715           22376        PROGLARM           LXCH     FAILREG    +2                         #  STORE AS "MOST RECENT" ALARM CODE
000068:
000069:    5716           41036                           CS       DSPTAB     +11D                       #  TURN ON PROGRAM ALARM IF OFF
000070:    5717           77765                           MASK     OCT40400
000071:    5720           27036                           ADS      DSPTAB     +11D
000072:
000073:    5721           56061        MULTEXIT           XCH      ITEMP1                                #  OBTAIN RETURN ADDRESS IN A
000074:    5722           00003                           RELINT
000075:    5723           50000                           INDEX    A
000076:    5724           00001                           TC       1
000077:
000078:                                                                                                  #  PRIOLARM DISPLAYS V05N09 VIA PRIODSPR WITH 3 RETURNS TO THE USER FROM THE ASTRONAUT AT CALL LOC +1,+2,+3 AND
000079:                                                                                                  #  AN IMMEDIATE RETURN TO THE USER AT CALL LOC +4.  EXAMPLE FOLLOWS,
000080:                                                                                                  #                CAF     OCTXX           ALARM CODE
000081:                                                                                                  #                TC      BANKCALL
000082:                                                                                                  #                CADR    PRIOLARM
000083:
000084:                                                                                                  #                ...     ...
000085:                                                                                                  #                ...     ...
000086:                                                                                                  #                ...     ...             ASTRONAUT RETURN
000087:                                                                                                  #                TC      PHASCHNG        IMMEDIATE RETURN TO USER.  RESTART
000088:                                                                                                  #                OCT     X.1             PHASE CHANGE FOR PRIO DISPLAY
000089:
000090: 10,3766                                           BANK     10
000091: 10,2000                                           SETLOC   DISPLAYS
000092: 10,2000                                           BANK
000093:
000094: 10,3766                                           COUNT    10/DSPLA
000095: 10,3766           00004        PRIOLARM           INHINT                                         #  * * * KEEP IN DISPLAY ROUTINES BANK
000096: 10,3767           54001                           TS       L                                     #  SAVE ALARM CODE
000097:
000098: 10,3770           30133                           CA       BUF2                                  #  2 CADR OF PRIOLARM USER
000099: 10,3771           55363                           TS       ALMCADR
000100: 10,3772           30134                           CA       BUF2       +1
000101: 10,3773           05673                           TC       PRIOENT    +1                         #  * LEAVE L ALONE
000102: 10,3774           77467        -2SEC              DEC      -200       B-14                       #  *** DONT MOVE
000103: 10,3775           35064                           CAF      V05N09
000104: 10,3776           12726                           TCF      PRIODSPR
000105:
000106:
000107:    5725                                           BLOCK    02
000108:    6000                                           SETLOC   FFTAG13
000109:    6000                                           BANK
000110:
000111:    7755                                           COUNT    02/ALARM
000112:
000113:    7755           00004        BAILOUT            INHINT
000114:    7756           30002                           CA       Q
000115:    7757           55363                           TS       ALMCADR
000116:
000117:    7760           04676                           TC       BANKCALL
000118:    7761           40000                           CADR     VAC5STOR
000119:
000120:    7762           51363                           INDEX    ALMCADR
000121:    7763           30000                           CAF      0
000122:    7764           05671                           TC       BORTENT
000123:    7765           40400        OCT40400           OCT      40400
000124:
000125:    7766           00004                           INHINT
000126:    7767           35032        WHIMPER            CA       TWO
000127:    7770           60005                           AD       Z
000128:    7771           54017                           TS       BRUPT
000129:    7772           50017                           RESUME
000130:    7773           04715                           TC       POSTJUMP                              #  RESUME SENDS CONTROL HERE
000131:    7774           12651                           CADR     ENEMA
000132:
000133:    4000                                           SETLOC   FFTAG7
000134:    4000                                           BANK
000135:
000136:    5725           00004        POODOO             INHINT
000137:    5726           30002                           CA       Q
000138:    5727           55363                           TS       ALMCADR
000139:
000140:    5730           04676                           TC       BANKCALL
000141:    5731           40000                           CADR     VAC5STOR                              #  STORE ERASABLES FOR DEBUGGING PURPOSES.
000142:
000143:    5732           51363                           INDEX    ALMCADR
000144:    5733           30000                           CAF      0
000145:    5734           05671        ABORT2             TC       BORTENT
000146:    5735           77770        OCT77770           OCT      77770                                 #  DONT MOVE
000147:    5736           35026                           CA       V37FLBIT                              #  IS AVERAGE G ON
000148:    5737           70103                           MASK     FLAGWRD7
000149:    5740           10000                           CCS      A
000150:    5741           07766                           TC       WHIMPER    -1                         #  YES.  DONT DO POODOO.  DO BAILOUT.
000151:
000152:    5742           05574                           TC       DOWNFLAG
000153:    5743           00067                           ADRES    STATEFLG
000154:
000155:    5744           05574                           TC       DOWNFLAG
000156:
000157:    5745           00236                           ADRES    REINTFLG
000158:
000159:    5746           05574                           TC       DOWNFLAG
000160:    5747           00054                           ADRES    NODOFLAG
000161:
000162:    5750           04676                           TC       BANKCALL
000163:    5751           12501                           CADR     MR.KLEAN
000164:    5752           07767                           TC       WHIMPER
000165:
000166:    5753           00004        CCSHOLE            INHINT
000167:    5754           30002                           CA       Q
000168:    5755           55363                           TS       ALMCADR
000169:    5756           04676                           TC       BANKCALL
000170:    5757           40000                           CADR     VAC5STOR
000171:    5760           35762                           CA       OCT21103
000172:    5761           05734                           TC       ABORT2
000173:    5762           21103        OCT21103           OCT      21103
000174:    5763           00004        CURTAINS           INHINT
000175:    5764           30002                           CA       Q
000176:    5765           05666                           TC       ALARM2
000177:    5766           00217        OCT217             OCT      00217
000178:    5767           01363                           TC       ALMCADR                               #  RETURN TO USER
000179:
000180:    5770     5233               DOALARM            EQUALS   ENDOFJOB
000181:
000182:                                                                                                  #  CALLING SEQUENCE FOR VARALARM
000183:
000184:                                                                                                  #                CAF     (ALARM)
000185:                                                                                                  #                TC      VARALARM
000186:
000187:                                                                                                  #  VARALARM TURNS ON PROGRAM ALARM LIGHT BUT DOES NOT DISPLAY
000188:
000189:    5770           00004        VARALARM           INHINT
000190:
000191:    5771           54001                           TS       L                                     #  SAVE USERS ALARM CODE
000192:
000193:    5772           30002                           CA       Q                                     #  SAVE USERS Q
000194:    5773           55363                           TS       ALMCADR
000195:
000196:    5774           05672                           TC       PRIOENT
000197:    5775           00014        OCT14              OCT      14                                    #  DONT MOVE
000198:
000199:    5776           01363                           TC       ALMCADR                               #  RETURN TO USER
000200:
000201:    5777     7755               ABORT              EQUALS   BAILOUT                               #  *** TEMPORARY UNTIL ABORT CALLS OUT

End of include-file ALARM_AND_ABORT.agc.  Parent file is MAIN.agc


