
Source Code


000002:                                                                                                  ## Copyright:   Public domain.
000003:                                                                                                  ## Filename:    DISPLAY_INTERFACE_ROUTINES.agc
000004:                                                                                                  ## Purpose:     A section of Comanche revision 067.
000005:                                                                                                  ##              It is part of the reconstructed source code for the flight
000006:                                                                                                  ##              software for the Command Module's (CM) Apollo Guidance Computer
000007:                                                                                                  ##              (AGC) for Apollo 12. No original listings of this program are
000008:                                                                                                  ##              available; instead, this file was created via dissassembly of
000009:                                                                                                  ##              dumps of Comanche 067 core rope modules and comparison with
000010:                                                                                                  ##              other AGC programs.
000011:                                                                                                  ## Assembler:   yaYUL
000012:                                                                                                  ## Contact:     Ron Burkey <info@sandroid.org>.
000013:                                                                                                  ## Website:     www.ibiblio.org/apollo/index.html
000014:                                                                                                  ## Mod history: 2023-08-16 MAS  Created from Comanche 055.
000015:                                                                                                  ##              2024-05-13 MAS  Updated for Comanche 067.
000016:
000017:                                                                                                  #  DISPLAYS CAN BE CLASSIFIED INTO THE FOLLOWING CATEGORIES-
000018:                                                                                                  #        1.  PRIORITY DISPLAYS - DISPLAYS WHICH TAKE PRIORITY OVER ALL OTHER DISPLAYS.  USUALLY THESE DISPLAYS ARE SENT
000019:                                                                                                  #            OUT UNDER CRITICAL ALARM CONDITIONS.
000020:                                                                                                  #        2.  EXTENDED VERB DISPLAYS - ALL EXTENDED VERBS AND MARK ROUTINES SHOULD USE EXTENDED VERB (MARK) DISPLAYS.
000021:                                                                                                  #        3.  NORMAL DISPLAYS - ALL MISSION PROGRAM DISPLAYS WHICH INTERFACE WITH THE ASTRONAUT DURING THE NORMAL
000022:                                                                                                  #            SEQUENCE OF EVENTS.
000023:                                                                                                  #        4.  MISC. DISPLAYS - ALL DISPLAYS NOT HANDLED BY THE DISPLAY INTERFACE ROUTINES.  THESE INCLUDE SUCH DISPLAYS AS
000024:                                                                                                  #            MM DISPLAYS AND SPECIAL PURPOSE DISPLAYS HANDLED BY PINBALL.
000025:                                                                                                  #        5.  ASTRONAUT INITIATED DISPLAYS - ALL DISPLAYS INITIATED EXTERNALLY.
000026:
000027:                                                                                                  #  THE FOLLOWING TERMS ARE USED TO DESCRIBE THE STATUS OF DISPLAYS-
000028:                                                                                                  #        1.  ACTIVE - THE DISPLAY WHICH IS (1) BEING DISPLAYED TO THE ASTRONAUT AND WAITING FOR A RESPONSE OR
000029:                                                                                                  #            (2) WAITING FIRST IN LINE FOR THE ASTRONAUT TO FINISH USING THE DSKY OR (3) BEING DISPLAYED ON THE DSKY
000030:                                                                                                  #            BUT NOT WAITING FOR A RESPONSE.
000031:                                                                                                  #        2.  INACTIVE - A DISPLAY WHICH HAS (1) BEEN ACTIVE BUT WAS INTERRUPTED BY A DISPLAY OF HIGHER PRIORITY,
000032:                                                                                                  #            (2) BEEN PUT INTO THE WAITING LIST AT TIME IT WAS REQUESTED DUE TO THE FACT A HIGHER PRIORITY DISPLAY
000033:                                                                                                  #            WAS ALREADY GOING, (3) BEEN INTERRUPTED BY THE ASTRONAUT (CALLED A PINBRANCH CONDITION, SINCE THIS TYPE
000034:                                                                                                  #            OF INACTIVE DISPLAY IS USUALLY REACTIVATED ONLY BY PINBALL) OR (4) A DISPLAY WHICH HAS FINISHED BUT STILL
000035:                                                                                                  #            HAS INFO SAVED FOR RESTART PURPOSES.
000036:
000037:                                                                                                  #  DISPLAY PRIORITIES WORK AS FOLLOWS-
000038:                                                                                                  #        INTERRUPTS -
000039:                                                                                                  #                1.  THE ASTRONAUT CAN INTERRUPT ANY DISPLAY WITH AN EXTERNAL DISPLAY REQUEST.
000040:                                                                                                  #                2.  INTERNAL DISPLAYS CAN NOT BE SENT OUT WHEN THE ASTRONAUT IS USING THE DSKY.
000041:                                                                                                  #                3.  PRIORITY DISPLAYS INTERRUPT ALL OTHER TYPES OF INTERNAL DISPLAYS.  A PRIORITY DISPLAY INTERRUPTING ANOTHER
000042:                                                                                                  #                    PRIORITY DISPLAY WILL CAUSE AN ABORT UNLESS BIT14 IS SET FOR THE LINUS ROUTINE.
000043:                                                                                                  #                4.  A MARK DISPLAY INTERRUPTS ANY NORMAL DISPLAY.
000044:                                                                                                  #                5.  A MARK THAT INTERRUPTS A MARK COMPLETELY REPLACES IT.
000045:
000046:                                                                                                  #        ORDER OF WAITING DISPLAYS-
000047:                                                                                                  #                1.  ASTRONAUT EXTERNAL USE
000048:                                                                                                  #                2.  PRIORITY
000049:                                                                                                  #                3.  INTERRUPTED MARK
000050:                                                                                                  #                4.  INTERRUPTED NORMAL
000051:                                                                                                  #                5.  MARK TO BE REQUESTED (SEE DESCRIPTION OF ENDMARK)
000052:                                                                                                  #                6.  MARK WAITING
000053:                                                                                                  #                7.  NORMAL WAITING
000054:
000055:                                                                                                  #  THE DISPLAY ROUTINES ARE INTENDED TO SERVE AS AN INTERFACE BETWEEN THE USER AND PINBALL.  THE
000056:                                                                                                  #  FOLLOWING STATEMENTS CAN BE MADE ABOUT NORMAL DISPLAYS AND PRIORITY DISPLAYS (A DESCRIPTION OF MARK ROUTINES
000057:                                                                                                  #  WILL FOLLOW LATER):
000058:                                                                                                  #        1.  ALL ROUTINES THAT END IN R HAVE AN IMMEDIATE RETURN TO THE USER.  FOR ALL FLASHING DISPLAYS THIS RETURN
000059:                                                                                                  #            IS TO THE USERS CALL CADR +4.  FOR THE ONLY NON FLASHING IMMEDIATE RETURN DISPLAY (GODSPR) THIS RETURN
000060:                                                                                                  #            IS TO THE USERS CALLING LOC +1.
000061:                                                                                                  #        2.  ALL ROUTINES NOT ENDING IN R DO NOT DO AN IMMEDIATE RETURN TO THE USER.
000062:                                                                                                  #        3.  ALL ROUTINES THAT END IN R START A SEPARATE JOB (MAKEPLAY) WITH USERS JOB PRIORITY.
000063:                                                                                                  #        4.  ALL ROUTINES NOT ENDING IN R BRANCH DIRECTLY TO MAKEPLAY WHICH MAKES THESE DISPLAYS A PART OF THE
000064:                                                                                                  #            USERS JOB.
000065:                                                                                                  #        5.  ALL DISPLAY ROUTINES ARE CALLED VIA BANKCALL.
000066:                                                                                                  #        6.  TO RESTART A DISPLAY THE USER WILL GENERALLY USE A PHASE OF ONE WITH DESIRED RESTART GROUP (SEE
000067:                                                                                                  #            DESCRIPTION OF RESTARTS).
000068:                                                                                                  #        7.  ALL FLASHING DISPLAYS HAVE 3 RETURNS TO THE USER FROM ASTRONAUT RESPONSES.  A TERMINATE (V34) BRANCHES
000069:                                                                                                  #            TO THE USERS CALL CADR +1.  A PROCEED (V33) BRANCHES TO THE USERS CALL CADR +2.  AN ENTER OR RECYCLE
000070:                                                                                                  #            (V32) BRANCHES TO THE USERS CALL CADR +3.
000071:                                                                                                  #        8.  ALL ROUTINES MUST BE USED UNDER EXECUTIVE CONTROL.
000072:
000073:                                                                                                  #  A DESCRIPTION OF EACH ROUTINE WITH AN EXAMPLE FOLLOWS:
000074:
000075:                                                                                                  #        GODSP IS USED TO DISPLAY A VERB NOUN ARRIVING IN A.  NO RETURN IS MADE TO THE USER.
000076:                                                                                                  #                1.  GODSP IS NOT RESTARTABLE
000077:                                                                                                  #                2.  A VERB PASTE WITH GODSP ALWAYS TURNS ON THE FLASH.
000078:                                                                                                  #                                CAF     VXXNYY
000079:                                                                                                  #                                TC      BANKCALL
000080:                                                                                                  #                                CADR    GODSP
000081:                                                                                                  #                        VXXNYY  OCT     0XXYY
000082:
000083:                                                                                                  #        GODSPR IS THE SAME AS GODSP ONLY RETURN IS TO THE USER.
000084:                                                                                                  #                                CAF     VXXNYY
000085:                                                                                                  #                                TC      BANKCALL
000086:                                                                                                  #                                CADR    GODSPR
000087:                                                                                                  #                                ...     ...             IMMEDIATE RETURN OF GODSPR
000088:
000089:                                                                                                  #        GOFLASH DISPLAYS A FLASHING VERB NOUN WITH NO IMMEDIATE RETURN TO THE USER.  3 RETURNS ARE POSSIBLE FROM
000090:                                                                                                  #        THE ASTRONAUT (SEE NO. 7 ABOVE).
000091:                                                                                                  #                                CAF     VXXNYY          VXX NYY WILL BE A FLASHING VERB NOUN.
000092:                                                                                                  #                                TC      BANKCALL
000093:                                                                                                  #                                CADR    GOFLASH
000094:                                                                                                  #                                ...     ...             TERMINATE RETURN
000095:                                                                                                  #                                ...     ...             PROCEED RETURN
000096:                                                                                                  #                                ...     ...             ENTER OR RECYCLE RETURN
000097:
000098:                                                                                                  #        GOPERF1 IS ENTERED WITH DESIRED CHECKLIST VALUE IN A.  GOPERF1 WILL DISPLAY THIS VALUE IN R1 BY MEANS OF A
000099:                                                                                                  #        V01 N25.  A FLASHING PLEASE PERFORM ON CHECKLIST (V50 N25) IS THEN DISPLAYED.  NO IMMEDIATE RETURN IS MADE TO
000100:                                                                                                  #        USER (SEE NO. 7 ABOVE).
000101:                                                                                                  #        GOPERF1 BLANKS REGISTERS R2 AND R3
000102:                                                                                                  #                                CAF     OCTXX           CODE FOR CHECKLIST VALUE XX
000103:                                                                                                  #                                TC      BANKCALL
000104:                                                                                                  #                                CADR    GOPERF1
000105:                                                                                                  #                                ...     ...             TERMINATE RETURN
000106:                                                                                                  #                                ...     ...             PROCEED RETURN
000107:                                                                                                  #                                ...     ...             ENTER RETURN
000108:                                                                                                  #        GOPERF2 IS ENTERED WITH A VARIABLE NOUN AND V01 (V00 FOR N10 OR N11) IN A.  GOPERF2 WILL FIRST DISPLAY THE
000109:                                                                                                  #        REQUESTED NOUN BY MEANS OF A V01NYY OR A V00NYY.  PLEASE PERFORM ON NOUN (V50 NYY) THEN BECOMES A FLASHING
000110:                                                                                                  #        DISPLAY.  NO IMMEDIATE RETURN IS MADE TO THE USER (SEE NO. 7 ABOVE).
000111:                                                                                                  #        GOPERF2 DOES NOT BLANK ANY REGISTERS
000112:                                                                                                  #                                CAF     VXXNYY          VARIABLE NOUN YY. XX=00 OR 01.
000113:                                                                                                  #                                TC      BANKCALL
000114:                                                                                                  #                                CADR    GOPERF2
000115:                                                                                                  #                                ...     ...             TERMINATE RETURN
000116:                                                                                                  #                                ...     ...             PROCEED RETURN
000117:                                                                                                  #                                ...     ...             ENTER RETURN
000118:                                                                                                  #        GOPERF3 IS USED FOR A PLEASE PERFORM ON A PROGRAM NUMBER.  THE DESIRED PROGRAM NO. IS ENTERED IN A.  GOPERF3
000119:                                                                                                  #        DISPLAYS THE NO. BY MEANS OF A V06 N07 FOLLOWED BY A FLASHING V50 N07 FOR A PLEASE PERFORM.  NO IMMEDIATE RETURN
000120:                                                                                                  #        IS MADE TO THE USER (SEE NO. 7 ABOVE).
000121:                                                                                                  #        GOPERF3 BLANKS REGISTERS R2 AND R3
000122:                                                                                                  #                                CAF     DECXX           REQUEST PERFORM ON PXX
000123:                                                                                                  #                                TC      BANKCALL
000124:                                                                                                  #                                CADR    GOPERF3
000125:                                                                                                  #                                ...     ...             TERMINATE RETURN
000126:                                                                                                  #                                ...     ...             PROCEED RETURN
000127:                                                                                                  #                                ...     ...             ENTER RETURN
000128:
000129:                                                                                                  #        GOPERF4 IS USED FOR A PLEASE PERFORM ON AN OPTION.  THE DESIRED OPTION IS ENTERED IN A AND STORED IN OPTION1.
000130:                                                                                                  #        GOPERF4 DISPLAYS R1 AND R2 BY MEANS OF A V04N06 FOLLOWED BY A FLASHING V50N06 FOR A PLEASE PERFORM.  NO
000131:                                                                                                  #        IMMEDIATE RETURN IS MADE TO THE USER (SEE NO. 7 ABOVE).
000132:                                                                                                  #                                CAF     OCTXX           REQUEST PERFORM ON OPTION XX
000133:                                                                                                  #                                TC      BANKCALL
000134:                                                                                                  #                                CADR    GOPERF4
000135:                                                                                                  #                                ...     ...             TERMINATE RETURN
000136:                                                                                                  #                                ...     ...             PROCEED RETURN
000137:                                                                                                  #                                ...     ...             ENTER RETURN
000138:                                                                                                  #        GOPERF4 BLANKS REGISTER R3
000139:
000140:                                                                                                  #        GODSPRET IS USED TO DISPLAY A VERB NOUN ARRIVING IN A WITH A RETURN TO THE USER AFTER THE DISPLAY HAS BEEN SENT
000141:                                                                                                  #        OUT.
000142:                                                                                                  #                                CAF     VXXNYY
000143:                                                                                                  #                                TC      BANKCALL
000144:                                                                                                  #                                CADR    GODSPRET
000145:                                                                                                  #                                ...     ...             RETURN TO USER
000146:
000147:                                                                                                  #        REGODSP IS USED TO DISPLAY A VERB NOUN ARRIVING IN A.  REGODSP IS THE SAME AS GODSP ONLY REGODSP REPLACES ANY
000148:                                                                                                  #        ACTIVE NORMAL DISPLAY IF ONE WAS ACTIVE.
000149:                                                                                                  #                                CAF     VXXNYY
000150:                                                                                                  #                                TC      BANKCALL
000151:                                                                                                  #                                CADR    REGODSP
000152:
000153:                                                                                                  #        REFLASH IS THE SAME AS GOFLASH ONLY REFLASH REPLACES ANY ACTIVE NORMAL DISPLAY IF ONE WAS ACTIVE.
000154:                                                                                                  #                                CAF     VXXNYY          VXX NYY WILL BE A FLASHING VERB NOUN
000155:                                                                                                  #                                TC      BANKCALL
000156:                                                                                                  #                                CADR    REFLASH
000157:                                                                                                  #                                ...     ...             TERMINATE RETURN
000158:                                                                                                  #                                ...     ...             PROCEED RETURN
000159:                                                                                                  #                                ...     ...             ENTER RETURN
000160:
000161:                                                                                                  #        GOFLASHR IS SAME AS GOFLASH ONLY AN IMMEDIATE RETURN IS MADE TO THE USERS CALL CADR +4.
000162:                                                                                                  #                                CAF     VXXNYY
000163:                                                                                                  #                                TC      BANKCALL
000164:                                                                                                  #                                CADR    GOFLASHR
000165:                                                                                                  #                                ...     ...             TERMINATE RETURN
000166:                                                                                                  #                                ...     ...             PROCEED RETURN
000167:                                                                                                  #                                ...     ...             ENTER OR RECYCLE RETURN
000168:                                                                                                  #                                ...     ...             IMMEDIATE RETURN FROM GOFLASHR
000169:
000170:                                                                                                  #        GOPERF1R IS THE SAME AS GOPERF1 ONLY GOPERF1R HAS AN IMMEDIATE RETURN TO USERS CALL CADR +4.
000171:                                                                                                  #        GOPERF1R BLANKS REGISTERS R2 AND R3
000172:                                                                                                  #                                CAF     OCTXX           CODE FOR CHECKLIST VALUE XX.
000173:                                                                                                  #                                TC      BANKCALL
000174:                                                                                                  #                                CADR    GOPERF1R
000175:                                                                                                  #                                ...     ...             TERMINATE RETURN
000176:                                                                                                  #                                ...     ...             PROCEED RETURN
000177:                                                                                                  #                                ...     ...             ENTER RETURN
000178:                                                                                                  #                                ...     ...             IMMEDIATE RETURN FROM GOPERF1R
000179:
000180:                                                                                                  #        GOPERF2R IS THE SAME AS GOPERF2 ONLY AN IMMEDIATE RETURN IS MADE TO USERS CALL CADR +4.
000181:                                                                                                  #        GOPERF2R DOES NOT BLANK ANY REGISTERS
000182:                                                                                                  #                                CAF     VXXNYY          VARIABLE NOUN YY REQUESTED.  XX=00 OR 01
000183:                                                                                                  #                                TC      BANKCALL
000184:                                                                                                  #                                CADR    GOPERF2R
000185:                                                                                                  #                                ...     ...             TERMINATE RETURN
000186:                                                                                                  #                                ...     ...             PROCEED RETURN
000187:                                                                                                  #                                ...     ...             ENTER RETURN
000188:                                                                                                  #                                ...     ...             IMMEDIATE RETURN HERE FROM GOPERF2R
000189:
000190:                                                                                                  #        GOPERF3R IS THE SAME AS GOPERF3 ONLY AN IMMEDIATE RETURN IS MADE TO USERS CALL CADR +4.
000191:                                                                                                  #        GOPERF3R BLANKS REGISTERS R2 AND R3
000192:                                                                                                  #                                CAF     PROGXX          PERFORM PROGRAM XX
000193:                                                                                                  #                                TC      BANKCALL
000194:                                                                                                  #                                CADR    GOPERF3R
000195:                                                                                                  #                                ...     ...             TERMINATE RETURN
000196:                                                                                                  #                                ...     ...             PROCEED RETURN
000197:                                                                                                  #                                ...     ...             ENTER RETURN
000198:                                                                                                  #                                ...     ...             GOPERF3R IMMEDIATELY RETURNS HERE
000199:
000200:                                                                                                  #        GOPERF4R IS THE SAME AS GOPERF4 ONLY AN IMMEDIATE RETURN IS MADE TO USERS CALL CADR +4.
000201:                                                                                                  #                                CAF     OCTXX           REQUEST PERFORM ON OPTIONXX
000202:                                                                                                  #                                TC      BANKCALL
000203:                                                                                                  #                                CADR    GOPERF4R
000204:                                                                                                  #                                ...     ...             TERMINATE RETURN
000205:                                                                                                  #                                ...     ...             PROCEED RETURN
000206:                                                                                                  #                                ...     ...             ENTER RETURN
000207:                                                                                                  #                                ...     ...             IMMEDIATE RETURN TO USER
000208:                                                                                                  #        GOPERF4R BLANKS REGISTER R3
000209:
000210:                                                                                                  #        REFLASHR IS THE SAME AS REFLASH ONLY AN IMMEDIATE RETURN IS MADE TO THE USERS CALL CADR +4.
000211:                                                                                                  #                                CAF     VXXNYY          VXX NYY WILL BE A FLASHING VERB NOUN
000212:                                                                                                  #                                TC      BANKCALL
000213:                                                                                                  #                                CADR    REFLASHR
000214:                                                                                                  #                                ...     ...             TERMINATE RETURN
000215:                                                                                                  #                                ...     ...             PROCEED RETURN
000216:                                                                                                  #                                ...     ...             ENTER RETURN
000217:                                                                                                  #                                ...     ...             IMMEDIATE RETURN TO USER
000218:
000219:                                                                                                  #        REGODSPR IS THE SAME AS REGODSP ONLY A RETURN (IMMEDIATE) IS MADE TO THE USER.
000220:                                                                                                  #                                CAF     VXXNYY
000221:                                                                                                  #                                TC      BANKCALL
000222:                                                                                                  #                                CADR    REGODSPR
000223:                                                                                                  #                                ...     ...             IMMEDIATE RETURN TO USER
000224:
000225:                                                                                                  #        GOMARK IS USED TO DISPLAY A MARK VERB NOUN ARRIVING IN A.  NO RETURN IS MADE TO THE USER.
000226:                                                                                                  #        GOXDSP = GOMARK
000227:                                                                                                  #                                CAF     VXXNYY          VXXNYY CONTAINS VERB AND NOUN
000228:                                                                                                  #                                TC      BANKCALL
000229:                                                                                                  #                                CADR    GOMARK          OTHER EXTENDED VERBS USE CADR GOXDSP
000230:
000231:                                                                                                  #        GOMARKR IS THE SAME AS GOMARK ONLY RETURN IS TO THE USER.
000232:                                                                                                  #        GOXDSPR = GOMARKR
000233:                                                                                                  #                                CAF     VXXNYY
000234:                                                                                                  #                                TC      BANKCALL
000235:                                                                                                  #                                CADR    GOMARKR         OTHER EXTENDED VERBS USE CADR GOXDSPR
000236:
000237:                                                                                                  #                                ...     ...             IMMEDIATE RETURN OF GOMARKR
000238:
000239:                                                                                                  #        GOMARKF DISPLAYS A FLASHING MARK VERB NOUN WITH NO IMMEDIATE RETURN TO THE USER.  3 RETURNS ARE POSSIBLE FROM
000240:                                                                                                  #        THE ASTRONAUT (SEE NO. 7 ABOVE).
000241:
000242:                                                                                                  #        GOXDSPF = GOMARKF
000243:
000244:                                                                                                  #                                CAF     VXXNYY          VXXNYY WILL BE A FLASHING MARK VERB NOUN
000245:                                                                                                  #                                TC      BANKCALL
000246:                                                                                                  #                                CADR    GOMARKF         OTHER EXTENDED VERBS USE CADR GOXDSPF
000247:                                                                                                  #                                ...     ...             TERMINATE RETURN
000248:                                                                                                  #                                ...     ...             PROCEED RETURN
000249:                                                                                                  #                                ...     ...             ENTER OR RECYCLE RETURN
000250:
000251:                                                                                                  #        GOMARKFR IS THE SAME AS GOMARKF ONLY AN IMMEDIATE RETURN IS MADE TO THE USER CALL CADR +4.
000252:                                                                                                  #        GOXDSPFR = GOMARKFR
000253:                                                                                                  #                                CAF     VXXNYY          FLASHING MARK VERB NOUN
000254:                                                                                                  #                                TC      BANKCALL
000255:                                                                                                  #                                CADR    GOMARKFR        OTHER EXTENDED VERBS USE CADR GOXDSPFR
000256:                                                                                                  #                                ...     ...             TERMINATE RETURN
000257:                                                                                                  #                                ...     ...             PROCEED RETURN
000258:                                                                                                  #                                ...     ...             ENTER OR RECYCLE RETURN
000259:                                                                                                  #
000260:                                                                                                  #                                ...     ...             IMMEDIATE RETURN TO THE USER
000261:
000262:                                                                                                  #        GOMARK1 IS USED FOR A PLEASE PERFORM ON A MARK REQUEST WITH ONLY 1 ASTRONAUT RETURN TO THE USER.  NO IMMEDIATE
000263:                                                                                                  #        RETURN IS MADE.  THE DESIRED MARK PLEASE PERFORM VERB AND DESIRED NOUN IS ENTERED IN A.  GOMARK1 DISPLAYS R1, R2, R
000264:                                                                                                  #        MEANS OF A V05NYY FOLLOWED BY A FLASHING V5XNYY FOR A PLEASE PERFORM.  THE ASTRONAUT WILL RESPOND WITH A MARK
000265:                                                                                                  #        OR MARK REJECT OR AN ENTER.  THE ENTER IS THE ONLY ASTRONAUT RESPONSE THAT WILL COME BACK TO THE USER.
000266:
000267:                                                                                                  #                                CAF     V5XNYY          X=1,2,3,4       Y=NOUN
000268:                                                                                                  #                                TC      BANKCALL
000269:                                                                                                  #                                CADR    GOMARK1
000270:                                                                                                  #                                ...     ...             ENTER RETURN
000271:
000272:                                                                                                  #        *** IF BLANKING DESIRED ON NON R ROUTINES, NOTIFY DISPLAYER.
000273:
000274:                                                                                                  #        GOMARK1R IS THE SAME AS A GOMARK1 ONLY AN IMMEDIATE RETURN IS MADE TO THE USERS CALL CADR +2.
000275:                                                                                                  #                                CAF     V5XNYY          X=1,2,3,4       YY=NOUN
000276:                                                                                                  #                                TC      BANKCALL
000277:                                                                                                  #                                CADR    GOMARK1R
000278:                                                                                                  #                                ...     ...             ASTRONAUT ENTER RETURN
000279:                                                                                                  #                                ...     ...             IMMEDIATE RETURN TO USER
000280:
000281:                                                                                                  #        GOMARK2 IS THE SAME AS GOMARK1 ONLY 3 RETURNS ARE MADE TO THE USER FROM THE ASTRONAUT.
000282:                                                                                                  #                                CAF     V5XNYY          X=1,2,3,4       YY=NOUN
000283:                                                                                                  #                                TC      BANKCALL
000284:                                                                                                  #                                CADR    GOMARK2
000285:                                                                                                  #                                ...     ...             TERMINATE RETURN
000286:                                                                                                  #                                ...     ...             PROCEED RETURN
000287:                                                                                                  #                                ...     ...             ENTER RETURN
000288:
000289:                                                                                                  #        GOMARK2R IS THE SAME AS GOMARK1R ONLY 3 ASTRONAUT RETURNS ARE MADE TO THE USER.
000290:                                                                                                  #                                CAF     V5XNYY          X=0,1,2,3,4     YY=NOUN
000291:                                                                                                  #                                TC      BANKCALL
000292:                                                                                                  #                                CADR    GOMARK2R
000293:                                                                                                  #                                ...     ...             TERMINATE RETURN
000294:                                                                                                  #                                ...     ...             PROCEED RETURN
000295:                                                                                                  #                                ...     ...             ENTER RETURN
000296:                                                                                                  #                                ...     ...             IMMEDIATE RETURN TO THE USER
000297:
000298:                                                                                                  #        GOMARK3 IS USED FOR A PLEASE PERFORM ON A MARK REQUEST WITH A 3 COMP. DEC DISPLAY.  THE DESIRED MARK PLEASE
000299:                                                                                                  #        PERFORM VERB AND NOUN ARE ENTERED IN A.  GOMARK3 DISPLAYS R1, R2, R3 BY MEANS OF A V06NYY FOLLOWED BY A FLASHING
000300:                                                                                                  #        V5XNYY FOR A PLEASE PERFORM.  GOMARK3 HAS 3 ASTRONAUT RETURNS TO THE USER WITH NO IMMEDIATE RETURN.
000301:                                                                                                  #                                CAF     V5XNYY          X=1,2,3,4       YY=NOUN
000302:                                                                                                  #                                TC      BANKCALL
000303:                                                                                                  #                                CADR    GOMARK3
000304:                                                                                                  #                                ...     ...             TERMINATE RETURN
000305:                                                                                                  #                                ...     ...             PROCEED RETURN
000306:                                                                                                  #                                ...     ...             ENTER RETURN
000307:
000308:                                                                                                  #        GOMARK4 IS THE SAME AS GOMARK3 ONLY R2 AND R3 ARE BLANKED AND R1 IS DISPLAYED IN OCTAL.
000309:                                                                                                  #                                CAF     V5XNYY          X=1,2,3,4       YY=NOUN
000310:                                                                                                  #                                TC      BANKCALL
000311:                                                                                                  #                                CADR    GOMARK4
000312:                                                                                                  #                                ...     ...             TERMINATE RETURN
000313:                                                                                                  #                                ...     ...             PROCEED RETURN
000314:                                                                                                  #                        ...     ...                     ENTER RETURN
000315:                                                                                                  #        EXDSPRET IS USED TO DISPLAY A VERB NOUN ARRIVING IN A WITH A RETURN MADE TO THE USER AFTER THE DISPLAY HAS BEEN
000316:                                                                                                  #        SENT OUT.
000317:                                                                                                  #                                CAF     VXXNYY
000318:                                                                                                  #                                TC      BANKCALL
000319:                                                                                                  #                                CADR    EXDSPRET
000320:                                                                                                  #                                ...     ...             RETURN TO USER
000321:
000322:                                                                                                  #        KLEENEX CLEANS OUT ALL MARK DISPLAYS (ACTIVE AND INACTIVE). A RETURN IS MADE TO THE USER AFTER THE MARK DISPLAYS
000323:                                                                                                  #        HAVE BEEN CLEANED OUT.
000324:                                                                                                  #                                TC      BANKCALL
000325:                                                                                                  #                                CADR    KLEENEX
000326:                                                                                                  #                                ...     ...             RETURN TO USER
000327:
000328:                                                                                                  #        MARKBRAN IS A SPECIAL PURPOSE ROUTINE USED FOR SAVING JOB VAC AREAS (SEE DESCRIPTION OF MARKBRAN BELOW).
000329:                                                                                                  #                                TC      BANKCALL
000330:                                                                                                  #                                CADR    MARKBRAN
000331:                                                                                                  #                                ...     ...             BAD RETURN IF MARK DISPLAY NOT ACTIVE
000332:                                                                                                  #                                                        (GOOD RETURN TO IMMEDIATE RETURN LOC OF
000333:                                                                                                  #                                                        LAST FLASHING MARK R ROUTINE)
000334:
000335:                                                                                                  #        PINBRNCH REESTABLISHES THE LAST ACTIVE FLASHING DISPLAY.  IF THERE IS NO ACTIVE FLASHING DISPLAY, THE DSKY IS
000336:                                                                                                  #        BLANKED AND CONTROL IS SENT TO ENDOFJOB.
000337:                                                                                                  #                                TC      POSTJUMP
000338:                                                                                                  #                                CADR    PINBRNCH
000339:
000340:                                                                                                  #        PRIODSP IS USED AS A PRIORITY DISPLAY.  IT WILL DISPLAY A GOFLASH TYPE DISPLAY WITH THREE POSSIBLE RETURNS FROM
000341:                                                                                                  #        THE ASTRONAUT (SEE NO. 7 ABOVE).
000342:
000343:                                                                                                  #        THE MAIN PURPOSE OF PRIODSP IS TO REPLACE THE PRESENT DISPLAY WITH A DISPLAY OF HIGHER PRIORITY AND TO
000344:                                                                                                  #        PROVIDE A MEANS FOR RESTORING THE OLD DISPLAY WHEN THE PRIORITY DISPLAY
000345:                                                                                                  #        IS RESPONDED TO BY THE ASTRONAUT.
000346:
000347:                                                                                                  #        THE FORMER DISPLAY IS RESTORED BY AN AUTOMATIC BRANCH TO WAKE UP THE DISPLAY THAT WAS INTERRUPTED BY THE
000348:                                                                                                  #        PRIO DISPLAY.
000349:                                                                                                  #                                CAF     VXXNYY          VXXNYY WILL BE A FLASHING VERB NOUN
000350:                                                                                                  #                                TC      BANKCALL
000351:                                                                                                  #                                CADR    PRIODSP
000352:                                                                                                  #                                ...     ...             TERMINATE RETURN
000353:                                                                                                  #                                ...     ...             PROCEED RETURN
000354:                                                                                                  #                                ...     ...             ENTER OR RECYCLE RETURN
000355:
000356:                                                                                                  #        PRIODSPR IS THE SAME AS PRIODSP ONLY AN IMMEDIATE RETURN IS MADE TO THE USERS CALL CADR +4.
000357:                                                                                                  #                                CAF     VXXNYY          VXXNYY WILL BE A FLASHING VERB NOUN
000358:                                                                                                  #                                TC      BANKCALL
000359:                                                                                                  #                                CADR    PRIODSPR
000360:                                                                                                  #                                ...     ...             TERMINATE RETURN
000361:                                                                                                  #                                ...     ...             PROCEED RETURN
000362:                                                                                                  #                                ...     ...             ENTER OR RECYCLE RETURN
000363:                                                                                                  #                                ...     ...             IMMEDIATE RETURN
000364:
000365:                                                                                                  #        PRIOLARM DOES A V05N09 PRIODSPR.
000366:
000367:                                                                                                  #        CLEANDSP CLEANS OUT ALL NORMAL DISPLAYS (ACTIVE AND INACTIVE).  A RETURN IS MADE TO THE USER AFTER NORMAL
000368:                                                                                                  #        DISPLAYS ARE CLEANED OUT.
000369:                                                                                                  #                                TC      BANKCALL
000370:                                                                                                  #                                CADR    CLEANDSP
000371:                                                                                                  #                                ...     ...             RETURN TO USER
000372:
000373:                                                                                                  #  GENERAL INFORMATION
000374:                                                                                                  #  ------- -----------
000375:
000376:                                                                                                  #  ALARM OR ABORT EXIT MODES--
000377:                                                                                                  #        PRIOBORT        TC      ABORT
000378:                                                                                                  #                        OCT     1502
000379:
000380:                                                                                                  #        PRIOBORT IS BRANCED TO WHEN (1) A NORMAL DISPLAY IS REQUESTED AND ANOTHER NORMAL DISPLAY IS ALREADY ACTIVE
000381:                                                                                                  #        (REFLASH AND REGODSP ARE EXCEPTIONS) OR (2) A PRIORITY DISPLAY IS REQUESTED WHEN ANOTHER PRIORITY DISPLAY IS
000382:                                                                                                  #        ALREADY ACTIVE (A PRIORITY WITH LINUS BIT14 IS AN EXCEPTION).
000383:
000384:                                                                                                  #  ERASABLE INITIALIZATION REQUIRED--
000385:                                                                                                  #        ACCOMPLISHED BY FRESH START-    1.  FLAGWRD4 (USED EXCLUSIVELY BY DISPLAY INTERFACE ROUTINES)
000386:                                                                                                  #                                        2.  NVSAVE = NORMAL VERB AND NOUN REGISTER.
000387:                                                                                                  #                                        3.  EBANKTEM = NORMAL INACTIVE FLAGWORD (ALSO CONTAINS NORMALS EBANK).
000388:                                                                                                  #                                        5.  R1SAVE = MARKBRAN CONTROL WORD
000389:                                                                                                  #                                        4.  RESTREG = PRIORITY 30 AND SUPERBANK 3.
000390:
000391:                                                                                                  #  OUTPUT--
000392:                                                                                                  #        NVWORD = PRIO VERB AND NOUN
000393:                                                                                                  #        NVWORD +1(MARKNV) = MARK VERB AND NOUN
000394:                                                                                                  #        NVWORD +2(NVSAVE) = NORMAL VERB AND NOUN
000395:
000396:                                                                                                  #        DSPFLG (EBANKSAV) = PRIO FLAGWORD (INCLUDING EBANK)
000397:                                                                                                  #        DSPFLG +1(MARKEBAN) = MARK FLAGWORD (INCLUDING EBANK)
000398:                                                                                                  #        DSPFLG +2(EBANKTEM) = NORMAL FLAGWORD (INCLUDIG EBANK)
000399:
000400:                                                                                                  #        CADRFLSH = PRIO USERS CALL CADR +1 LOCATION
000401:                                                                                                  #        CADRFLSH +1(MARKFLSH) = MARK USERS CALL CADR +1 LOCATION
000402:                                                                                                  #        CADRFLSH +2(TEMPFLSH) = NORMAL USERS CALL CADR +1 LOCATION
000403:
000404:                                                                                                  #        PRIOTIME = TIME EACH PRIO REQUEST FIRST SENT OUT
000405:                                                                                                  #        OPTION1 = DESIRED OPTION FROM GOPERF4
000406:                                                                                                  #        FLAGWRD4 = BIT INFO FOR CONTROL OF ALL DISPLAY ROUTINES
000407:                                                                                                  #        DSPTEM1 = R1 INFO FOR ASTRONAUT FROM PERFORM DISPLAYS (NORMAL)
000408:
000409:                                                                                                  #  SUBROUTINES USED-- NVSUB, FLAGUP, FLAGDOWN, ENDOFJOB, BLANKSUB, ABORT, JOBWAKE, JOBSLEEP, FINDVAC, PRIOCHNG,
000410:                                                                                                  #        JAMTERM, NVSUBUSY, FLASHON, ENDIDLE, CHANG1, BANKJUMP, MAKECADR, NOVAC,
000411:
000412:                                                                                                  #  DEBRIS-- (STORED INTO)
000413:                                                                                                  #        TEMPORARY TEMPORARIES - A, Q, L, MPAC +2, MPAC +3, MPAC +4, MPAC +5, MPAC +6, RUPTREG2, RUPTREG3, CYL,
000414:                                                                                                  #  EBANK, RUPTREG4, LOC, BANKSET, MODE, MPAC, MPAC +1                        4, FACEREG
000415:                                                                                                  #        ERASABES (SHARED AND USED WITH OTHER PROGRAMS) CADRSTOR, DSPLIST, LOC, DSPTEM1, OPTION1
000416:                                                                                                  #        ERASABLES (USED ONLY BY DISPLAY ROUTINES) - NVWORD,+1,+2, DSPFLG,+1,+2, CADRFLSH,+1,+2, PRIOTIME, FLAGWRD4,
000417:                                                                                                  #                R1SAVE, MARK2PAC,
000418:
000419:                                                                                                  #  DEBRIS-- (USED BUT NOT STORED INTO) - NOUNREG, VERBREG, LOCCTR, MONSAVE1
000420:
000421:                                                                                                  #  FLAGWORD DESCRIPTIONS--
000422:                                                                                                  #        FLAGWRD4 - SEE DESCRIPTION UNDER LOG SECTION ERASABLE ASSIGNMENTS
000423:
000424:                                                                                                  #        DSPFLG, DSPFLG+1, DSPFLG +2-
000425:                                                                                                  #        ----------------------------
000426:                                                                                                  #        BITS 1  BLANK R1
000427:                                                                                                  #             2  BLANK R2
000428:                                                                                                  #             3  BLANK R3
000429:                                                                                                  #             4  FLASHING DISPLAY REQUESTED
000430:                                                                                                  #             5  PERFORM DISPLAY REQUESTED
000431:                                                                                                  #             6  -----                   EXDSPRET                GODSPRET
000432:                                                                                                  #             7  PRIO DISPLAY            -----                   -----
000433:                                                                                                  #             8  -----                   DEC MARK PERFORM        -----
000434:                                                                                                  #             9  EBANK
000435:                                                                                                  #            10  EBANK
000436:                                                                                                  #            11  EBANK
000437:                                                                                                  #            12  -----                   -----                   V99PASTE
000438:                                                                                                  #            13  2ND PART OF PERFORM
000439:                                                                                                  #            15  REFLASH OR REDO         -----                   REFLASH OR REDO
000440:                                                                                                  #            15  -----                   MARK REQUEST            -----
000441:
000442:                                                                                                  #  RESTARTING DISPLAYS--
000443:
000444:                                                                                                  #  RULES FOR THE DSKY OPERATOR --
000445:                                                                                                  #        1.  PROCEED AND TERMINATE SERVE AS RESPONSES TO REQUESTS FOR OPERATOR RESPONSE (FLASHING V/N).  AS LONG
000446:                                                                                                  #            AS THERE IS ANY REQUEST AWAITING OPERATOR RESPONSE, ANY USE OF PROCEED OR TERMINATE WILL SERVE AS
000447:                                                                                                  #            RESPONSES TO THAT REQUEST.  CARE SHOULD BE EXERCISED IN ATTEMPTING TO KILL AN OPERATOR INITIATED MONITOR
000448:                                                                                                  #            WITH PROCEED AND TERMINATE FOR THIS REASON.
000449:                                                                                                  #        2.  THE ASTRONAUT MUST RESPOND TO A PRIORITY DISPLAY NO SOONER THAN 5 SECS FROM THE TIME THE MISSION
000450:                                                                                                  #            PROGRAM SENT OUT THE REQUEST FOR OPERATOR RESPONSE (THE ASTRONAUT WOULD SEE THIS DISPLAY FOR LESS TIME
000451:                                                                                                  #            DUE TO TIME IT TAKES TO GET DISPLAY SENT OUT.)  IF THE ASTRONAUT RESPONDS TOO SOON, THE PRIORITY DISPLAY
000452:                                                                                                  #            IS SENT OUT AGAIN---AND AGAIN UNTIL AN ACCUMULATED 5 SECS FROM TIME THE FIRST PRIORITY DISPLAY WAS SENT
000453:                                                                                                  #            OUT.  THE SAME 5 SEC. DELAY WILL OCCUR AT 163.84 SECS OR IN ANY MULTIPLE OF THAT TIME DUE TO PROGRAM
000454:                                                                                                  #            CONSIDERATION.
000455:                                                                                                  #        3.  KEY RELEASE BUTTON -
000456:                                                                                                  #            A)  IF THE KEY RELEASE LIGHT IS ON, IT SIMPLY RELEASES THE KEYBOARD AND DISPLAY FOR INTERNAL USE.
000457:                                                                                                  #            B)  IF THE KEY RELEASE LIGHT IS OFF, AND IF SOME REQUEST FOR OPERATOR RESPONSE (FLASHING V/N) IS STILL
000458:                                                                                                  #                AWAITING RESPONSE THEN IT RE-ESTABLISHES THE DISPLAYS THAT ORIGINALLY REQUESTED RESPONSE.
000459:                                                                                                  #            IF AN OPERATOR WANTS THEREFORE TO RE-ESTABLISH BUT CONDITION (A) IS ENCOUNTERED, A SECOND DEPRESSION OF
000460:                                                                                                  #            KEY RELEASE BUTTON MAY BE NECESSARY.
000461:                                                                                                  #        4.  IT IS IMPORTANT TO ANSWER ALL REQUESTS FOR OPERATOR RESPONSE.
000462:                                                                                                  #        5.  IT IS ALWAYS GOOD PRACTICE TO TERMINATE AN EXTENDED VERB BEFORE ASKING FOR ANOTHER ONE OR THE SAME ONE
000463:                                                                                                  #            OVER AGAIN.
000464:
000465:                                                                                                  #  SPECIAL CONSIDERATIONS--
000466:                                                                                                  #        1.  MPAC +2 SAVED ONLY IN MARK DISPLAYS
000467:                                                                                                  #        2.  GODSP(R), REGODSP(R), GOMARK(R) ALWAYS TURN ON THE FLASH IF ENTERED WITH A PASTE VERB REQUEST.
000468:                                                                                                  #        3.  ALL NORMAL DISPLAYS ARE RESTARTABLE EXCEPT GODSP(R), REGODSP(R)
000469:                                                                                                  #        4.  ALL EXTENDED VERBS WITH DISPLAYS SHOULD START WITH A TC TESTXACT AND FINISH WITH A TC ENDEXT.
000470:                                                                                                  #        5.  GODSP(R) AND REGODSP(R) MUST BE IN THE SAME EBANK AND SUPERBANK AS THE LAST NORMAL DISPLAY RESTARTED
000471:                                                                                                  #            BY A .1 RESTART PHASE CHANGE.
000472:                                                                                                  #        6.  IN ORDER TO SET UP A NON DISPLAY .1 RESTART POINT, THE USER MUST MAKE CERTAIN THAT RESTREG CONTAINS THE
000473:                                                                                                  #            CORRECT PRIORITY AND SUPERBANK AND THAT EBANKTEM CONTAINS THE CO
000474:                                                                                                  #        7.  IF CLEANDSP IS RESTARTED VIA A .1 PHASE CHANGE, CAF ZERO SHOULD BE EXECUTED BEFORE THE TC BANKCALL.
000475:
000476:                                                                                                  #  CALLING SEQUENCE FOR BLANKING
000477:                                                                                                  #                CAF     BITX            X=1,2,3 BLANK R1,R2,R3 RESPECTIVELY
000478:                                                                                                  #                TC      BLANKET
000479:                                                                                                  #                ...     ...             RETURN TO USER HERE
000480:                                                                                                  #  IN ORDER TO USE BLANKET CORRECTLY THE USER MUST USE A DISPLAY ROUTINE THAT ENDS IN R FIRST FOLLOWED BY THE CALL
000481:                                                                                                  #  TO BLANKET AT THE IMMEDIATE RETURN LOC.
000482:    5542                                           BLOCK    02
000483:    4000                                           SETLOC   FFTAG4
000484:    4000                                           BANK
000485:
000486:    5542                                           COUNT    02/DSPLA
000487:
000488:    5542           54162        BLANKET            TS       MPAC       +6
000489:    5543           40160                           CS       PLAYTEM4
000490:    5544           70162                           MASK     MPAC       +6
000491:    5545           50161                           INDEX    MPAC       +5
000492:    5546           26160                           ADS      PLAYTEM4
000493:
000494:    5547           00002                           TC       Q
000495:
000496:    5550           04715        ENDMARK            TC       POSTJUMP
000497:    5551           20553                           CADR     MARKEND
000498:
000499:    5552           35035        CLEARMRK           CAF      ZERO
000500:    5553           55044                           TS       EXTVBACT
000501:
000502:    5554           00004                           INHINT
000503:    5555           45033                           CS       BIT1
000504:    5556           70100                           MASK     FLAGWRD4
000505:    5557           54100                           TS       FLAGWRD4
000506:
000507:    5560           00003                           RELINT
000508:    5561           00002                           TC       Q
000509:
000510:                                                                                                  #  *** ALL EXTENDED VERB ROUTINES THAT HAVE AT LEAST ONE FLASHING DISPLAY MUST TCF ENDMARK OR TCF ENDEXT WHEN
000511:                                                                                                  #  FINISHED.
000512:
000513: 10,2553                                           BANK     10
000514: 10,2000                                           SETLOC   DISPLAYS
000515: 10,2000                                           BANK
000516:
000517: 10,2553                                           COUNT    10/DSPLA
000518:
000519:                                                                                                  #  NTERONLY IS USED TO DIFFERENTIATE THE MARK ROUTINE WITH ONLY ONE RETURN TO THE USER FROM THE MARKING ROUTINE WIT
000520:                                                                                                  #  3 RETURNS TO THE USER.  THIS ROUTINE IS ONLY USED BY GOMARK1 AND GOMARK1R.
000521:
000522: 10,2553           05552        MARKEND            TC       CLEARMRK
000523: 10,2554           13643                           TCF      MARKOVER
000524:
000525: 10,2555           54155        GOMARK             TS       PLAYTEM1                              #  ENTRANCE FOR MARK GODSP
000526:
000527: 10,2556           35015        GOMARS             CAF      BIT15                                 #  BIT15 SET FOR ALL MARK REQUESTS
000528: 10,2557           12722                           TCF      GOFLASH2
000529:
000530: 10,2560           35035        KLEENEX            CAF      ZERO                                  #  CLEAN OUT EXTENDED VERBS
000531: 10,2561           54155        GOMARKF            TS       PLAYTEM1                              #  ENTRANCE FOR MARK GOFLASH
000532:
000533: 10,2562           33253                           CAF      MARKFMSK                              #  MARK, FLASH
000534: 10,2563           12722                           TCF      GOFLASH2
000535:
000536: 10,2564           54155        GOMARK2            TS       PLAYTEM1                              #  MARK GOPERFS-3 AST. RETURNS
000537: 10,2565           33742        MARKFORM           CAF      MPERFMSK                              #  MARK, PERFORM, FLASH
000538: 10,2566           12722                           TCF      GOFLASH2
000539:
000540: 10,2567           54155        GOMARK3            TS       PLAYTEM1                              #  USED FOR 3COMP DECIMAL PERFORM
000541: 10,2570           33727                           CAF      MARK3MSK
000542: 10,2571           12722                           TCF      GOFLASH2
000543:
000544: 10,2572           54155        GOMARK4            TS       PLAYTEM1
000545: 10,2573           33730                           CAF      MARK4MSK                              #  MARK,PERFORM,FLASH,BLANK
000546: 10,2574           12722                           TCF      GOFLASH2
000547:
000548: 10,2575           54155        GOMARKR            TS       PLAYTEM1                              #  ENTR+NCE FOR MARK GODSPR
000549:
000550: 10,2576           35015                           CAF      BIT15
000551: 10,2577           12700                           TCF      GODSPR2
000552:
000553: 10,2600           54155        GOMARKFR           TS       PLAYTEM1                              #  ENTRANCE FOR MARK GOFLASHR
000554:
000555: 10,2601           33253                           CAF      MARKFMSK
000556: 10,2602           13061                           TCF      GODSPRS
000557:
000558: 10,2603           54155        GOMARK2R           TS       PLAYTEM1                              #  MARK GOPERFS-3 AST. RETS+ IMMEDIATE RET.
000559: 10,2604           33742                           CAF      MPERFMSK                              #  MARK, PERFORM, FLASH
000560: 10,2605           13061                           TCF      GODSPRS
000561:
000562: 10,2606           54155        GOMARK3R           TS       PLAYTEM1
000563: 10,2607           33727                           CAF      MARK3MSK
000564: 10,2610           13061                           TCF      GODSPRS
000565:
000566: 10,2611           35033        MAKEMARK           CAF      ONE
000567: 10,2612           03157                           TC       COPIES
000568:
000569: 10,2613           30100                           CA       FLAGWRD4                              #  IS NORM OR PRIO BUSY OR WAITING
000570: 10,2614           73743                           MASK     OCT34300
000571: 10,2615           10000                           CCS      A
000572: 10,2616           12654                           TCF      CHKPRIO
000573:
000574: 10,2617           30100                           CA       FLAGWRD4                              #  IS MARK SLEEPING DUE TO ASTRO BUSY
000575: 10,2620           75023                           MASK     BIT9
000576:
000577: 10,2621           00006                           EXTEND
000578: 10,2622           12624                           BZF      MARKPLAY                              #  NO
000579:
000580: 10,2623           15233                           TCF      ENDOFJOB
000581:
000582: 10,2624           00004        MARKPLAY           INHINT
000583: 10,2625           45036                           CS       FIVE                                  #  RESET MARK OVER NORM, SET MARK
000584: 10,2626           70100                           MASK     FLAGWRD4
000585: 10,2627           65033                           AD       ONE
000586: 10,2630           54100                           TS       FLAGWRD4
000587: 10,2631           00003                           RELINT
000588:
000589: 10,2632           41070        GOGOMARK           CS       MARKFLAG                              #  PERFORM
000590: 10,2633           75027                           MASK     BIT5
000591: 10,2634           10000                           CCS      A
000592: 10,2635           12640                           TCF      MARKCOP
000593: 10,2636           40367                           CS       MARKNV
000594: 10,2637           54367                           TS       MARKNV
000595:
000596: 10,2640           35033        MARKCOP            CAF      ONE                                   #  MARK INDEX
000597: 10,2641           13040                           TCF      PRIOPLAY
000598:
000599: 10,2642           30165        COPYTOGO           CA       MPAC2SAV
000600: 10,2643           54156                           TS       MPAC       +2
000601:
000602: 10,2644           50164        COPYPACS           INDEX    COPINDEX
000603: 10,2645           33753                           CAF      PRIOOCT
000604: 10,2646           54162                           TS       GENMASK
000605:
000606: 10,2647           50164                           INDEX    COPINDEX
000607: 10,2650           31067                           CA       EBANKSAV
000608: 10,2651           54160                           TS       TEMPOR2                               #  ACTIVE EBANK AND FLAG
000609:
000610: 10,2652           54003                           TS       EBANK
000611:
000612: 10,2653           00002                           TC       Q
000613:
000614:                                                                                                  #  PINCHEK CHECKS TO SEE IF THE CURRENT MARK REQUEST IS MADE BY THE ASTRONAUT WHILE INTERRUPTING A GOPLAY DISPLAY
000615:                                                                                                  #  (A NORMAL OR A PRIO).  IF THE ASTRONAUT TRIES TO MARK DURING A PRIO, THE CHECK FAIL LIGHT GOES ON AND THE MARK
000616:                                                                                                  #  REQUEST IS ENDED.  IF HE TRIES TO MARK DURING A NORM, THE MARK IS ALLOWED.  IN THIS CASE THE NORM IS PUT TO SLEEP
000617:                                                                                                  #  UNTIL ALL MARKING IS FINISHED.
000618:
000619:                                                                                                  #  IF THE MARK REQUEST COMES FROM THE PROGRAM DURING A TIME THE ASTRONAUT IS NOT INTERRUPTING A NORMAL OR A
000620:                                                                                                  #  PRIO, THE MARK REQUEST IS PUT TO SLEEP UNTIL THE +RESENT ACTIVE DISPLAY IS RESPONDED TO BY THE ASTRONAUT.
000621:
000622: 10,2654           30100        CHKPRIO            CA       FLAGWRD4                              #  MARK ATTEMPT DURING PRIO
000623: 10,2655           73476                           MASK     OCT24100
000624: 10,2656           10000                           CCS      A
000625: 10,2657           13676                           TCF      MARSLEEP
000626:
000627: 10,2660           40100                           CS       FLAGWRD4
000628: 10,2661           75031                           MASK     BIT3                                  #  SET MARK OVER NORM
000629: 10,2662           00004                           INHINT
000630: 10,2663           26100                           ADS      FLAGWRD4
000631:
000632: 10,2664           12756                           TCF      SETNORM
000633:
000634: 10,2665           30367        MARKPERF           CA       MARKNV
000635: 10,2666           74160                           MASK     VERBMASK
000636: 10,2667           13342                           TCF      NV50DSP
000637:
000638: 10,2670           54155        GODSP              TS       PLAYTEM1
000639:
000640: 10,2671           35035        GODSP2             CAF      ZERO
000641: 10,2672           12722                           TCF      GOFLASH2
000642:
000643: 10,2673           54155        GODSPRET           TS       PLAYTEM1                              #  ENTRANCE FOR A GODSP WITH A PASTE
000644:
000645: 10,2674           35026                           CAF      BIT6                                  #  SET BIT6 TO GO BACK TO USER AFTER NVSUB
000646: 10,2675           12722                           TCF      GOFLASH2
000647:
000648: 10,2676           54155        GODSPR             TS       PLAYTEM1
000649:
000650: 10,2677           35035        GODSPR1            CAF      ZERO
000651: 10,2700           54160        GODSPR2            TS       PLAYTEM4
000652:
000653: 10,2701           35035                           CAF      ZERO                                  #  * DONT MOVE
000654: 10,2702           13063                           TCF      GODSPRS1
000655:
000656:                                                                                                  #  CLEANDSP IS USED FOR CLEARING OUT A NORMAL DISPLAY THAT IS PRESENTLY ACTIVE OR A NORMAL DISPLAY THAT IS
000657:                                                                                                  #  SET UP TO BE STARTED OR RESTARTED.
000658:
000659:                                                                                                  #  NORMALLY THE USER WILL NOT NEED TO USE THIS ROUTINE SINCE A NEW NORMAL DISPLAY AUTOMATICALLY CLEARS OUT AN
000660:                                                                                                  #  OLD DISPLAY.
000661:
000662:                                                                                                  #  CALLING SEQUENCE FOR CLEANDSP -
000663:
000664:                                                                                                  #                TC      BANKCALL
000665:                                                                                                  #                CADR    CLEANDSP
000666:
000667: 10,2703           35035        CLEANDSP           CAF      ZERO
000668: 10,2704           54155        REFLASH            TS       PLAYTEM1
000669:
000670: 10,2705           33726                           CAF      REDOMASK                              #  FLASH AND PERMIT
000671: 10,2706           12722                           TCF      GOFLASH2
000672:
000673: 10,2707           54155        REGODSP            TS       PLAYTEM1
000674:
000675: 10,2710           35016                           CAF      BIT14
000676: 10,2711           12722                           TCF      GOFLASH2
000677:
000678:
000679: 10,2712           54155        REGODSPR           TS       PLAYTEM1
000680: 10,2713           35016                           CAF      BIT14
000681: 10,2714           12700                           TCF      GODSPR2
000682:
000683: 10,2715           54155        CLOCPLAY           TS       PLAYTEM1
000684: 10,2716           33765                           CAF      CLOCKCON
000685: 10,2717           12722                           TCF      GOFLASH2
000686: 10,2720           54155        GOFLASH            TS       PLAYTEM1
000687:
000688: 10,2721           35030                           CAF      BIT4                                  #  LEAVE ONLY FLASH BIT SET
000689: 10,2722           54160        GOFLASH2           TS       PLAYTEM4
000690:
000691: 10,2723           03144                           TC       SAVELOCS
000692:
000693: 10,2724           00003                           RELINT
000694:
000695: 10,2725           12770                           TCF      MAKEPLAY                              #  BRANCH DIRECT WITH NO SEPARATE JOB CALL
000696:
000697: 10,2726           54155        PRIODSPR           TS       PLAYTEM1
000698:
000699: 10,2727           33745                           CAF      BITS7+4
000700: 10,2730           13061                           TCF      GODSPRS
000701:
000702: 10,2731           54155        PRIODSP            TS       PLAYTEM1
000703:
000704: 10,2732           33745        SETPRIO            CAF      BITS7+4
000705: 10,2733           12722                           TCF      GOFLASH2
000706:
000707: 10,2734           35035        MAKEPRIO           CAF      ZERO
000708: 10,2735           54164                           TS       COPINDEX
000709:
000710: 10,2736           03616                           TC       LINUSCHR
000711: 10,2737           12744                           TCF      HIPRIO                                #  LINUS RETURN
000712: 10,2740           30100                           CA       FLAGWRD4
000713: 10,2741           73764                           MASK     OCT20100                              #  IS PRIO IN ENDIDLE OR BUSY
000714: 10,2742           10000                           CCS      A
000715: 10,2743           13017                           TCF      PRIOBORT                              #  YES, ABORT
000716:
000717: 10,2744           30100        HIPRIO             CA       FLAGWRD4                              #  MARK ACTIVE
000718: 10,2745           77765                           MASK     OCT40400
000719: 10,2746           00006                           EXTEND
000720: 10,2747           12752                           BZF      ASKIFNRM                              #  NO
000721:
000722: 10,2750           35035        SETMARK            CAF      ZERO
000723: 10,2751           13216                           TCF      JOBXCHS
000724:
000725: 10,2752           30100        ASKIFNRM           CA       FLAGWRD4                              #  NORMAL ACTIVE
000726: 10,2753           73762                           MASK     OCT10200                              #  BITS 13+8
000727: 10,2754           00006                           EXTEND
000728: 10,2755           12760                           BZF      OKTOCOPY                              #  NO
000729:
000730: 10,2756           35033        SETNORM            CAF      ONE
000731: 10,2757           13216                           TCF      JOBXCHS
000732:
000733: 10,2760           03156        OKTOCOPY           TC       COPYNORM
000734: 10,2761           03427                           TC       WITCHONE
000735:
000736: 10,2762           05215                           TC       JOBWAKE
000737:
000738: 10,2763           03444                           TC       XCHTOEND
000739:
000740: 10,2764           30025        REDOPRIO           CA       TIME1                                 #  SAVE TIME PRIODSP SENT OUT
000741: 10,2765           55147                           TS       PRIOTIME
000742:
000743: 10,2766           35035        KEEPPRIO           CAF      ZERO                                  #  START UP PRIO DISPLAY
000744: 10,2767           13040                           TCF      PRIOPLAY
000745:
000746: 10,2770           30167        MAKEPLAY           CA       PRIORITY                              #  SAVE USERS PRIORITY
000747: 10,2771           77674                           MASK     PRIO37
000748: 10,2772           54163                           TS       USERPRIO
000749:
000750: 10,2773           37670                           CAF      PRIO33                                #  RAISE PRIORITY FOR FAST JOBS AFTER WAKE
000751: 10,2774           05224                           TC       PRIOCHNG
000752:
000753: 10,2775           30160                           CA       PLAYTEM4                              #  IS IT MARK OR PRIO OR NORM
000754: 10,2776           73744                           MASK     BITS15+7
000755: 10,2777           10000                           CCS      A
000756: 10,3000           12734                           TCF      MAKEPRIO                              #  ITS PRIO
000757: 10,3001           13003                           TCF      IFLEGAL
000758: 10,3002           12611                           TCF      MAKEMARK                              #  ITS MARK
000759:
000760: 10,3003           35032        IFLEGAL            CAF      TWO
000761: 10,3004           54164                           TS       COPINDEX
000762:
000763: 10,3005           03616                           TC       LINUSCHR
000764:
000765: 10,3006           13021                           TCF      OKTOPLAY                              #  LINUS RETURN
000766: 10,3007           41071                           CS       EBANKTEM
000767: 10,3010           75030                           MASK     BIT4
000768: 10,3011           10000                           CCS      A
000769: 10,3012           13021                           TCF      OKTOPLAY                              #  NO
000770:
000771: 10,3013           30100                           CA       FLAGWRD4                              #  WAS NORM ASLEEP
000772: 10,3014           73735                           MASK     NBUSMASK                              #  ARE ANY NORMS ASLEEP
000773: 10,3015           00006                           EXTEND
000774: 10,3016           13021                           BZF      OKTOPLAY                              #  NO
000775:
000776: 10,3017           05725        PRIOBORT           TC       POODOO
000777: 10,3020           21502                           OCT      21502                                 #  ILLEGAL FLASHING DISPLAY
000778:
000779: 10,3021           03160        OKTOPLAY           TC       COPIES2
000780:
000781: 10,3022           30163                           CA       USERPRIO
000782: 10,3023           00006                           EXTEND
000783: 10,3024           04007                           ROR      SUPERBNK
000784: 10,3025           54365                           TS       RESTREG
000785:
000786: 10,3026           30100                           CA       FLAGWRD4                              #  PRIO OR MARK GOING
000787: 10,3027           73736                           MASK     PMMASK
000788: 10,3030           10000                           CCS      A
000789: 10,3031           13176                           TCF      GOSLEEPS                              #  YES
000790:
000791: 10,3032           13034                           TCF      +2
000792: 10,3033           13176                           TCF      GOSLEEPS                              #  MARK GOING
000793:
000794:                                                                                                  #  COULD PUT NORM BUSY CHECK HERE TO SAVE TIME
000795:
000796: 10,3034           03427                           TC       WITCHONE                              #  IS IT NVSUB BUSY, ENDIDLE OR NOONE
000797: 10,3035           05215                           TC       JOBWAKE
000798:
000799: 10,3036           03444                           TC       XCHTOEND
000800:
000801: 10,3037           35032        PLAYJUM1           CAF      TWO
000802: 10,3040           54164        PRIOPLAY           TS       COPINDEX
000803:
000804: 10,3041           13312                           TCF      GOPLAY
000805:
000806: 10,3042           54155        EXDSPRET           TS       PLAYTEM1
000807:
000808: 10,3043           37703                           CAF      BIT15+6
000809: 10,3044           12722                           TCF      GOFLASH2
000810:
000811: 10,3045           55045        GOPERF1            TS       NORMTEM1                              #  STORE DESIRED CHECKLIST VALUE
000812: 10,3046           33720                           CAF      V01N25                                #  USED TO DISPLAY CHECKLIST VALUE IN R1
000813:
000814: 10,3047           54155        GOPERFS            TS       PLAYTEM1
000815:
000816: 10,3050           33717                           CAF      PERFMASK                              #  LEAVE ONLY FLASH, PERFORM, BLANKING
000817: 10,3051           12722                           TCF      GOFLASH2
000818:
000819: 10,3052           54155        GOPERF2            TS       PLAYTEM1                              #  DESIRED VERB-NOUN TO DISPLAY R1,R2,R3
000820:
000821: 10,3053           33723                           CAF      PERF2MSK
000822: 10,3054           12722                           TCF      GOFLASH2
000823:
000824: 10,3055           03137        GOPERF4            TC       PURRS4
000825:
000826: 10,3056           12722                           TCF      GOFLASH2
000827:
000828: 10,3057           54155        GOFLASHR           TS       PLAYTEM1
000829: 10,3060           35030                           CAF      BIT4                                  #  LEAVE ONLY FLASH BIT SET
000830: 10,3061           54160        GODSPRS            TS       PLAYTEM4
000831:
000832: 10,3062           36214                           CAF      THREE
000833:
000834: 10,3063           00004        GODSPRS1           INHINT                                         #  IMMEDIATE RETURN IS CALL CADR +4
000835: 10,3064           54072                           TS       RUPTREG3
000836:
000837: 10,3065           30167                           CA       PRIORITY                              #  MAKE DISPLAY ONE HIGHER THAN USER
000838: 10,3066           77674                           MASK     PRIO37
000839: 10,3067           54063                           TS       NEWPRIO
000840:
000841: 10,3070           30160                           CA       PLAYTEM4                              #  IS THIS A FLASHING R DISPLAY
000842: 10,3071           75030                           MASK     BIT4
000843: 10,3072           10000                           CCS      A
000844: 10,3073           13101                           TCF      VACDSP                                #  YES, MAKE DSPLAY JOB A VAC
000845: 10,3074           30063                           CA       NEWPRIO                               #  NO, MAKE DSPLAY JOB A NOVAC
000846: 10,3075           05150                           TC       NOVAC
000847: 10,3076  E7,1777                                  EBANK=   WHOCARES
000848: 10,3076           02770 20067                     2CADR    MAKEPLAY
000849:
000850: 10,3100           13107                           TCF      BOTHJOBS
000851:
000852: 10,3101           30006        VACDSP             CA       BBANK
000853: 10,3102           00006                           EXTEND
000854: 10,3103           04007                           ROR      SUPERBNK
000855: 10,3104           54001                           TS       L
000856: 10,3105           33761                           CAF      MAKEGEN
000857: 10,3106           05174                           TC       SPVAC
000858:
000859: 10,3107           03144        BOTHJOBS           TC       SAVELOCS                              #  COPY TEMPS INTO PERMANENT REGISTERS
000860:
000861: 10,3110           00006                           EXTEND                                         #  SAVE NVWORD AND USERS MPAC +2
000862: 10,3111           30156                           DCA      MPAC       +1
000863: 10,3112           50064                           INDEX    LOCCTR
000864: 10,3113           52156                           DXCH     MPAC       +1
000865:
000866: 10,3114           00006                           EXTEND                                         #  SAVE USERS CADR, FLAGS AND EBANK
000867: 10,3115           30160                           DCA      MPAC       +3
000868: 10,3116           50064                           INDEX    LOCCTR
000869: 10,3117           52160                           DXCH     MPAC       +3
000870:
000871: 10,3120           30064                           CA       LOCCTR
000872: 10,3121           54161                           TS       MPAC       +5
000873: 10,3122           03151                           TC       SAVELOCR
000874: 10,3123           00003                           RELINT
000875: 10,3124           14720                           TCF      BANKJUMP                              #  CALL CADR +4
000876:
000877: 10,3125           55045        GOPERF1R           TS       NORMTEM1                              #  DESIRED CHECKLIST VALUE
000878:
000879: 10,3126           33720                           CAF      V01N25                                #  DISPLAYS CHECKLIST VALUE IN R1
000880:
000881: 10,3127           54155        GOPERFRS           TS       PLAYTEM1
000882:
000883: 10,3130           33717                           CAF      PERFMASK                              #  LEAVE ONLY FLASH, PERFORM, BLANKING
000884: 10,3131           13061                           TCF      GODSPRS
000885:
000886: 10,3132           54155        GOPERF2R           TS       PLAYTEM1                              #  DESIRED VERB-NOUN TO DISPLAY R1,R2,R3
000887:
000888: 10,3133           33723                           CAF      PERF2MSK
000889: 10,3134           13061                           TCF      GODSPRS
000890:
000891: 10,3135           03137        GOPERF4R           TC       PURRS4
000892:
000893: 10,3136           13061                           TCF      GODSPRS
000894:
000895: 10,3137           55131        PURRS4             TS       OPTION1                               #  DESIRED OPTION CODE
000896:
000897: 10,3140           33724                           CAF      V04N06
000898: 10,3141           54155                           TS       PLAYTEM1
000899:
000900: 10,3142           33725                           CAF      PERF4MSK                              #  FLASH, PERFORM AND BLANK R3
000901: 10,3143           00002                           TC       Q
000902:
000903: 10,3144           00004        SAVELOCS           INHINT
000904:
000905: 10,3145           43734                           CS       OCT3400                               #  EBANK BITS
000906: 10,3146           70160                           MASK     PLAYTEM4
000907: 10,3147           60003                           AD       EBANK
000908: 10,3150           54160                           TS       PLAYTEM4
000909:
000910: 10,3151           22002        SAVELOCR           LXCH     Q
000911:
000912: 10,3152           04725                           TC       MAKECADR
000913: 10,3153           54157                           TS       PLAYTEM3
000914:
000915: 10,3154           60072                           AD       RUPTREG3                              #  NOT USED FOR NON R ROUTINES
000916: 10,3155           00001                           TC       L
000917:
000918: 10,3156           35035        COPYNORM           CAF      ZERO
000919: 10,3157           54164        COPIES             TS       COPINDEX
000920: 10,3160           00004        COPIES2            INHINT
000921: 10,3161           30160                           CA       PLAYTEM4                              #  FLAGWORD
000922:
000923: 10,3162           50164                           INDEX    COPINDEX
000924: 10,3163           55067                           TS       EBANKSAV                              #  EQUIV TO DSPFLG
000925: 10,3164           73752                           MASK     CADRMASK                              #  FLASH AND GODSPRET
000926: 10,3165           00006                           EXTEND
000927: 10,3166           13172                           BZF      SKIPADD
000928:
000929: 10,3167           30157                           CA       PLAYTEM3
000930: 10,3170           50164                           INDEX    COPINDEX
000931: 10,3171           54371                           TS       CADRFLSH
000932:
000933: 10,3172           30155        SKIPADD            CA       PLAYTEM1                              #  VERB NOUN
000934: 10,3173           50164                           INDEX    COPINDEX
000935: 10,3174           54366                           TS       NVWORD
000936:
000937: 10,3175           13453                           TCF      RELINTQ
000938:
000939: 10,3176           50164        GOSLEEPS           INDEX    COPINDEX
000940: 10,3177           33753                           CA       PRIOOCT
000941: 10,3200           73202                           MASK     WAITMASK
000942: 10,3201           07722                           TC       UPENT2
000943: 10,3202           03004        WAITMASK           OCT      3004
000944: 10,3203           45033                           CS       ONE
000945: 10,3204           60164                           AD       COPINDEX
000946: 10,3205           54154                           TS       FACEREG
000947:
000948: 10,3206           50154        XCHSLEEP           INDEX    FACEREG
000949: 10,3207           33732                           CAF      WAKECADR
000950: 10,3210           00004                           INHINT
000951: 10,3211           05215                           TC       JOBWAKE                               #  FIND CADR IN JOB AREA
000952:
000953: 10,3212           03444                           TC       XCHTOEND                              #  CAUSES AWAKENED JOB TO GO TO ENDOFJOB
000954:
000955: 10,3213           50154                           INDEX    FACEREG                               #  REPLACE SAME CADR BUT NEW JOB AREA
000956: 10,3214           33732                           CAF      WAKECADR
000957: 10,3215           15211                           TCF      JOBSLEEP
000958:
000959: 10,3216           54154        JOBXCHS            TS       FACEREG                               #  CONTROLS TYPE OF DISPLAY PUT TO SLEEP
000960: 10,3217           03427                           TC       WITCHONE
000961: 10,3220           05215                           TC       JOBWAKE
000962: 10,3221           30154                           CA       FACEREG
000963: 10,3222           50064                           INDEX    LOCCTR
000964: 10,3223           54154                           TS       FACEREG
000965:
000966: 10,3224           33237                           CAF      XCHQADD
000967: 10,3225           03445                           TC       XCHNYLOC
000968:
000969: 10,3226           50154                           INDEX    FACEREG
000970: 10,3227           33754                           CA       MARKOCT
000971: 10,3230           73756                           MASK     IDLESLEP
000972:
000973: 10,3231           07740                           TC       DOWNENT2
000974: 10,3232           74004        IDLEMASK           OCT      74004                                 #  * DONT MOVE
000975: 10,3233           50154                           INDEX    FACEREG                               #  BIT SHOWS PRIO INTERRUPTED NORM OR MARK
000976: 10,3234           35027                           CA       BIT5                                  #  BIT5 FOR MARK, BIT4 FOR NORMAL
000977: 10,3235           65031                           AD       FOUR
000978: 10,3236           07722                           TC       UPENT2                                #  FLAG ROUTINE DOES RELINT
000979: 10,3237           03206        XCHQADD            GENADR   XCHSLEEP                              #  * DONT MOVE
000980: 10,3240           30100                           CA       FLAGWRD4
000981: 10,3241           75031                           MASK     BIT3                                  #  IF BIT3 THEN MARK OVER NORM
000982: 10,3242           10000                           CCS      A
000983: 10,3243           02624        GENMARK            TC       MARKPLAY                              #  USED AS GENADR FOR JOBWAKE
000984: 10,3244           12760                           TCF      OKTOCOPY
000985:
000986: 10,3245           35035        MARKWAKE           CAF      ZERO
000987: 10,3246           54160        WAKEPLAY           TS       TEMPOR2
000988:
000989: 10,3247           50160                           INDEX    TEMPOR2
000990: 10,3250           33746                           CA       BITS5+11
000991: 10,3251           65031                           AD       FOUR
000992: 10,3252           07740                           TC       DOWNENT2
000993: 10,3253           40010        MARKFMSK           OCT      40010                                 #  *** DONT MOVE
000994:
000995: 10,3254           50160                           INDEX    TEMPOR2
000996: 10,3255           33732                           CAF      WAKECADR
000997: 10,3256           00004                           INHINT
000998: 10,3257           05215                           TC       JOBWAKE
000999:
001000: 10,3260           13557                           TCF      ENDRET
001001:
001002:                                                                                                  #  ALL .1 RESTARTS BRANCH DIRECTLY TO INITDSP.  NORMAL DISPLAYS ARE THE ONLY DISPLAYS ALLOWED TO USE .1 RESTARTS
001003:                                                                                                  #  INITDSP FIRST RESTORES THE EBANK AND THE SUPERBANK TO THE MOST RECENT NORMAL EBANK AND SUPERBANK.
001004:
001005:                                                                                                  #  IF THE MOST RECENT NORMAL DISPLAY REQUEST WAS NOT FINISHED, CONTROL IS SENT BACK TO THE LAST NORMAL USER.
001006:                                                                                                  #  OTHERWISE THE NORMAL DISPLAY SET UP IN THE NORMAL DISPLAY REGS IS STARTED UP IMMEDIATELY.
001007:
001008: 10,3261           31071        INITDSP            CA       EBANKTEM                              #  RESTORE MOST RECECT NORMAL EBANK
001009: 10,3262           54003                           TS       EBANK
001010:
001011: 10,3263           30365                           CA       RESTREG                               #  SUPERBANK AND JOB PRIORITY
001012: 10,3264           05007                           TC       SUPERSW                               #  RESTORE SUPERBANK
001013:
001014: 10,3265           77674                           MASK     PRIO37
001015: 10,3266           05224                           TC       PRIOCHNG
001016:
001017: 10,3267           46214                           CS       THREE
001018: 10,3270           60373                           AD       TEMPFLSH
001019: 10,3271           14720                           TCF      BANKJUMP
001020:
001021: 10,3272           00003        PINBRNCH           RELINT                                         #  FOR GOPIN USERS
001022: 10,3273           31072                           CA       MARK2PAC                              #  NEEDED TO SAVE MPAC +2 FOR MARK USERS
001023: 10,3274           54156                           TS       MPAC       +2                         #  ONLY
001024:
001025: 10,3275           30100                           CA       FLAGWRD4                              #  PINBRANCH CONDITION
001026: 10,3276           77707                           MASK     PINMASK
001027: 10,3277           10000                           CCS      A
001028: 10,3300           13303                           TCF      +3
001029: 10,3301           13713                           TCF      ERASER                                #  ** NOTHING IN ENDIDLE
001030: 10,3302           12624                           TCF      MARKPLAY
001031:
001032: 10,3303           05562        NORMBNCH           TC       UPFLAG                                #  SET PINBRANCH BIT
001033: 10,3304           00105                           ADRES    PINBRFLG
001034:
001035: 10,3305           35016                           CAF      BIT14                                 #  PRIO INTERRUPTED
001036: 10,3306           70100                           MASK     FLAGWRD4
001037: 10,3307           10000                           CCS      A
001038: 10,3310           12766                           TCF      KEEPPRIO
001039:
001040: 10,3311           13037                           TCF      PLAYJUM1
001041:
001042: 10,3312           02644        NVDSP              TC       COPYPACS
001043:
001044: 10,3313           30160                           CA       TEMPOR2                               #  SET UP BLANK BITS FOR NVMONOPT IN CASE
001045: 10,3314           75037                           MASK     SEVEN                                 #  USER REQUESTS BLANKING MONITOR
001046: 10,3315           54001                           TS       L
001047:
001048: 10,3316           45017                           CS       BIT13
001049: 10,3317           50164                           INDEX    COPINDEX
001050: 10,3320           71067                           MASK     DSPFLG
001051: 10,3321           50164                           INDEX    COPINDEX
001052: 10,3322           55067                           TS       DSPFLG
001053:
001054: 10,3323           75024                           MASK     BIT8                                  #  BIT8 SET IF DEC MARK PERFORM DISPLAY
001055: 10,3324           54141                           TS       TEM1
001056:
001057: 10,3325           30156                           CA       MPAC       +2
001058: 10,3326           54165                           TS       MPAC2SAV
001059:
001060: 10,3327           55072                           TS       MARK2PAC                              #  * FOR DISK ONLY *
001061: 10,3330           50164                           INDEX    COPINDEX
001062: 10,3331           10366                           CCS      NVWORD
001063: 10,3332           13341                           TCF      NVDSP1
001064: 10,3333           13455                           TCF      CLEANEND
001065: 10,3334           40367                           CS       MARKNV
001066: 10,3335           54367                           TS       MARKNV                                #  IN CASE MARKPLAY AWAKENED AFTER SLEEPING
001067: 10,3336           76043                           MASK     LOW7
001068: 10,3337           63737                           AD       V05N00M1
001069: 10,3340           60141                           AD       TEM1
001070: 10,3341           65033        NVDSP1             AD       ONE
001071: 10,3342           04171        NV50DSP            TC       NVMONOPT
001072: 10,3343           13467                           TCF      REST                                  #  IF BUSY
001073:
001074: 10,3344           04447                           TC       FLASHOFF                              #  IN CASE OF EXTENDED VERB NON FLASH
001075:
001076: 10,3345           02642                           TC       COPYTOGO                              #  MPACS DESTROYED BY NVSUB
001077: 10,3346           05574                           TC       DOWNFLAG                              #  UNSET SLEEPING BITS
001078: 10,3347           00102                           ADRES    MRKNVFLG
001079: 10,3350           05574                           TC       DOWNFLAG
001080: 10,3351           00103                           ADRES    NRMNVFLG
001081: 10,3352           05574                           TC       DOWNFLAG
001082: 10,3353           00104                           ADRES    PRONVFLG
001083: 10,3354           30160        BLANKCHK           CA       TEMPOR2                               #  BLANK BITS 1,2,3 IF SET
001084: 10,3355           04271                           TC       BLANKSUB
001085: 10,3356           13312                           TCF      NVDSP
001086: 10,3357           35027        PERFCHEK           CAF      BIT5                                  #  BIT 5 FOR PERFORM
001087: 10,3360           70160                           MASK     TEMPOR2
001088: 10,3361           10000                           CCS      A                                     #  IS THIS A GOPERF DISPLAY
001089: 10,3362           13405                           TCF      1STOR2ND                              #  YES
001090:
001091: 10,3363           35030        GOANIDLE           CAF      BIT4
001092: 10,3364           70160                           MASK     TEMPOR2
001093: 10,3365           10000                           CCS      A
001094: 10,3366           13502                           TCF      FLASHSUB                              #  IT IS
001095:
001096: 10,3367           40160                           CS       TEMPOR2                               #  IS THIS A GODSPRET
001097: 10,3370           75026                           MASK     BIT6
001098: 10,3371           10000                           CCS      A
001099: 10,3372           13377                           TCF      ISITN00
001100:
001101: 10,3373           50164                           INDEX    COPINDEX
001102: 10,3374           30371                           CA       CADRFLSH
001103: 10,3375           54157                           TS       MPAC       +3
001104: 10,3376           13575                           TCF      ENDIT
001105:
001106: 10,3377           50164        ISITN00            INDEX    COPINDEX                              #  IS THIS A PASTE
001107: 10,3400           30366                           CA       NVWORD
001108: 10,3401           76043                           MASK     LOW7                                  #  CHECK MADE FOR PINBRNCH AND PRIO ON MARK
001109: 10,3402           00006                           EXTEND
001110: 10,3403           13502                           BZF      FLASHSUB                              #  YES, ASSUME PASTE ALWAYS ON FLASH
001111:
001112: 10,3404           15233                           TCF      ENDOFJOB                              #  NOT FLASH, NOT GOPERF, THERFORE EXIT
001113:
001114: 10,3405           30160        1STOR2ND           CA       TEMPOR2
001115: 10,3406           75017                           MASK     BIT13
001116: 10,3407           10000                           CCS      A
001117: 10,3410           13363                           TCF      GOANIDLE                              #  SECOND
001118:
001119: 10,3411           35017                           CA       BIT13
001120: 10,3412           50164                           INDEX    COPINDEX
001121: 10,3413           27067                           ADS      DSPFLG
001122:
001123: 10,3414           22007                           ZL
001124: 10,3415           00006                           EXTEND                                         #  IS IT MARK
001125: 10,3416           62665                           BZMF     MARKPERF                              #  YES
001126: 10,3417           75020                           MASK     BIT12
001127: 10,3420           00006                           EXTEND
001128: 10,3421           13425                           BZF      V50PASTE
001129: 10,3422           41145                           CS       NVWORD1                               #  NVOWRD1= -0 IS V97.  NVWORD1= -400 IS V99
001130: 10,3423           63763                           AD       V97N00
001131: 10,3424           13342                           TCF      NV50DSP
001132: 10,3425           33722        V50PASTE           CAF      V50N00
001133: 10,3426           13342                           TCF      NV50DSP                               #  DISPLAY SECOND PART OF GOPERF
001134:
001135: 10,3427           45027        WITCHONE           CS       BIT5                                  #  TURN OFF KEY RELEASE LIGHT
001136: 10,3430           00006                           EXTEND
001137: 10,3431           03011                           WAND     DSALMOUT
001138:
001139: 10,3432           30100                           CA       FLAGWRD4
001140: 10,3433           73740                           MASK     NVBUSMSK                              #  IS IT NVSUB ASLEEP
001141: 10,3434           10000                           CCS      A
001142: 10,3435           35033                           CAF      ONE
001143: 10,3436           54001                           TS       L
001144: 10,3437           35035                           CAF      ZERO
001145: 10,3440           50001                           INDEX    L
001146: 10,3441           57042                           XCH      CADRSTOR
001147:
001148: 10,3442           00004                           INHINT
001149: 10,3443           00002                           TC       Q
001150:
001151: 10,3444           34233        XCHTOEND           CAF      ENDINST                               #  TC ENDOFJOB REPLACES GENADR IN LOC FOR
001152: 10,3445           56064        XCHNYLOC           XCH      LOCCTR                                #  WAS THIS ADDRESS SLEEPING
001153: 10,3446           00006                           EXTEND
001154: 10,3447           63453                           BZMF     RELINTQ                               #  NO
001155: 10,3450           56064                           XCH      LOCCTR                                #  YES
001156: 10,3451           50064                           INDEX    LOCCTR
001157: 10,3452           54164                           TS       LOC
001158:
001159: 10,3453           00003        RELINTQ            RELINT
001160: 10,3454           00002                           TC       Q                                     #  BACK TO USER
001161:
001162: 10,3455           37667        CLEANEND           CAF      PRIO32                                #  ONE LOWER THAN DISPLAYS SLEEPING
001163: 10,3456           05163                           TC       FINDVAC
001164: 10,3457     0370                                  EBANK=   NVSAVE
001165: 10,3457           04245 04060                     2CADR    JAMTERM
001166:
001167: 10,3461           13503                           TCF      FLASHSUB   +1
001168:
001169: 10,3462           30100        ISITPRIO           CA       FLAGWRD4
001170: 10,3463           73510                           MASK     ITISMASK                              #  IS PINBRFLG, MARKIDFLG SET
001171: 10,3464           00006                           EXTEND
001172: 10,3465           13017                           BZF      PRIOBORT
001173: 10,3466           15233                           TCF      ENDOFJOB
001174: 10,3467           11042        REST               CCS      CADRSTOR                              #  IS SOMEONE IN ENDIDLE
001175: 10,3470           15233                           TCF      ENDOFJOB                              #  YES
001176: 10,3471           13473                           TCF      RESTSLEP
001177:
001178: 10,3472           15233                           TCF      ENDOFJOB
001179:
001180: 10,3473           30162        RESTSLEP           CA       GENMASK                               #  SET NVSLEEP BITS
001181: 10,3474           73741                           MASK     ASTROMSK
001182: 10,3475           07722                           TC       UPENT2
001183: 10,3476           24100        OCT24100           OCT      24100                                 #  *** DONT MOVE
001184:
001185: 10,3477           50164                           INDEX    COPINDEX
001186: 10,3500           33731                           CAF      NVCADR
001187: 10,3501           04456                           TC       NVSUBUSY                              #  BUSY OR ABORT IF ILLEGAL
001188:
001189: 10,3502           04443        FLASHSUB           TC       FLASHON
001190:
001191: 10,3503           30164                           CA       COPINDEX                              #  COPINDEX DESTROYED BY ENDIDLE
001192: 10,3504           54157                           TS       COPMPAC
001193:
001194: 10,3505           30162                           CA       GENMASK
001195: 10,3506           73232                           MASK     IDLEMASK
001196: 10,3507           07722                           TC       UPENT2
001197: 10,3510           40040        ITISMASK           OCT      40040                                 #  *** ENDIDLE ALLOW *** DONT MOVE
001198:
001199: 10,3511           31073                           CA       R1SAVE                                #  IS THIS A REPEAT AND RETURN DISPLAY
001200: 10,3512           50164                           INDEX    COPINDEX
001201: 10,3513           75031                           MASK     BIT3
001202: 10,3514           10000                           CCS      A
001203: 10,3515           13602                           TCF      UNSETR1                               #  YES
001204:
001205: 10,3516           11042                           CCS      CADRSTOR                              #  SEE IF SOMEONE ALREADY IN ENDIDLE
001206: 10,3517           13462                           TCF      ISITPRIO
001207: 10,3520           13522                           TCF      +2
001208: 10,3521           13462                           TCF      ISITPRIO
001209:
001210: 10,3522           04223                           TC       ENDIDLE
001211: 10,3523           13614        IDLERET1           TCF      TERMATE
001212:
001213: 10,3524           13633                           TCF      PROCEED                               #  ENDIDLE RETURNS HERE ON PROCEED
001214:
001215: 10,3525           43750                           CS       LOWLOAD
001216: 10,3526           60154                           AD       MPAC                                  #  VERBREG
001217: 10,3527           00006                           EXTEND
001218: 10,3530           26000                           DIM      A
001219: 10,3531           00006                           EXTEND
001220: 10,3532           13703                           BZF      LOADITIS                              #  V21 OR V22 OR V23 ON DSKY
001221:
001222: 10,3533           35032        OKTOENT            CAF      TWO
001223: 10,3534           54161        ENDOUT             TS       OUTHERE
001224: 10,3535           30100                           CA       FLAGWRD4                              #  CHECK NATURE OF ENDIDLE RETURN
001225: 10,3536           74105                           MASK     OCT60000
001226: 10,3537           10000                           CCS      A
001227: 10,3540           13543                           TCF      TIMECHEK                              #  PRIO ENDIDLE RETURN
001228: 10,3541           13651                           TCF      NORMRET                               #  NORMAL ENDIDLE RETURN
001229: 10,3542           13635                           TCF      MARKRET                               #  MARK ENDIDLE RETURN
001230:
001231: 10,3543           40025        TIMECHEK           CS       TIME1
001232: 10,3544           61147                           AD       PRIOTIME
001233: 10,3545           10000                           CCS      A
001234: 10,3546           40000                           COM
001235: 10,3547           67700                           AD       OCT37776
001236: 10,3550           65033                           AD       ONE
001237: 10,3551           63774                           AD       -2SEC
001238: 10,3552           00006                           EXTEND
001239: 10,3553           62766                           BZMF     KEEPPRIO
001240:
001241: 10,3554           13651                           TCF      NORMRET
001242:
001243: 10,3555           35033        NORMWAKE           CAF      ONE
001244: 10,3556           13246                           TCF      WAKEPLAY
001245:
001246: 10,3557           10161        ENDRET             CCS      OUTHERE
001247: 10,3560           65033                           AD       ONE
001248: 10,3561           13563                           TCF      +2                                    #  NORMAL ENDIDLE EXIT
001249: 10,3562           15233                           TCF      ENDOFJOB
001250: 10,3563           50157                           INDEX    COPMPAC
001251: 10,3564           60371                           AD       CADRFLSH
001252: 10,3565           54157                           TS       MPAC       +3
001253:
001254: 10,3566           30162                           CA       GENMASK                               #  REMOVE ENDIDLE AND PINBRANCH BITS
001255: 10,3567           73571                           MASK     PINIDMSK
001256: 10,3570           07740                           TC       DOWNENT2
001257: 10,3571           74044        PINIDMSK           OCT      74044                                 #  *** DONT MOVE
001258:
001259: 10,3572           46214                           CS       THREE                                 #  BLANK EVERYTHING EXCEPT MM
001260: 10,3573           04170                           TC       NVSUB
001261: 10,3574           13575                           TCF      +1
001262:
001263: 10,3575           30163        ENDIT              CA       USERPRIO                              #  RETURN TO USERS PRIORITY
001264: 10,3576           77674                           MASK     PRIO37
001265: 10,3577           05224                           TC       PRIOCHNG
001266: 10,3600           30157                           CA       MPAC       +3
001267: 10,3601           14720                           TCF      BANKJUMP
001268:
001269: 10,3602           50164        UNSETR1            INDEX    COPINDEX                              #  RESET REPEAT AND RETURN REQUEST
001270: 10,3603           45031                           CS       BIT3
001271: 10,3604           71073                           MASK     R1SAVE
001272: 10,3605           55073                           TS       R1SAVE
001273: 10,3606           35035                           CAF      ZERO                                  #  *** 205 ONLY MARKBRAN USERS IN
001274: 10,3607           05007                           TC       SUPERSW                               #  SUPERBANK 0
001275:
001276: 10,3610           36214                 -1        CAF      THREE                                 #  RETURN TO USERS IMMEDIATE RETURN LOC
001277: 10,3611           50164        IMMEDRET           INDEX    COPINDEX
001278: 10,3612           60371                           AD       CADRFLSH
001279: 10,3613           14720                           TCF      BANKJUMP
001280:
001281: 10,3614           35035        TERMATE            CAF      ZERO                                  #  ASTRONAUT TERMINATE (V34) RETURNS TO
001282: 10,3615           13534                           TCF      ENDOUT
001283:
001284: 10,3616           40160        LINUSCHR           CS       PLAYTEM4                              #  IS THIS A LINUS
001285: 10,3617           75016                           MASK     BIT14
001286: 10,3620           10000                           CCS      A
001287: 10,3621           16706                           TCF      Q+1                                   #  NO
001288: 10,3622           40157                           CS       PLAYTEM3                              #  YES, IS IT ALREADY IN ENDIDLE
001289: 10,3623           50164                           INDEX    COPINDEX
001290: 10,3624           60371                           AD       CADRFLSH
001291: 10,3625           00006                           EXTEND
001292: 10,3626           13630                           BZF      +2                                    #  YES
001293:
001294: 10,3627           00002                           TC       Q                                     #  NO
001295: 10,3630           11012                           CCS      DSPLOCK                               #  IS THE ASTRONAUT BUSY
001296: 10,3631           05233                           TC       ENDOFJOB                              #  END THE NEW DISPLAY, ITS ALREADY ACTIVE
001297: 10,3632           00002                           TC       Q
001298:
001299:                                                                                                  #  MORE LOGIC COULD BE INCORPORATED HERE TO MAKE SURE A RECYCLE IS A RECYCLAND CONVERSLY THAT A LOAD IS A LOAD.
001300:
001301: 10,3633           35033        PROCEED            CAF      ONE                                   #  ASTRONAUT PROCEED (V33) RETURNS
001302: 10,3634           13534                           TCF      ENDOUT
001303:
001304:                                                                                                  #  LASTPLAY CHECKS TO SEE IF (1) THE LAST NORMAL DISPLAY WAS EITHER INTERRUPTED BY A PRIO OR A MARK (MARK
001305:                                                                                                  #  COULD ONLY HAPPEN DURING PINBRANCH) OR IF (2) THE LAST NORMAL DISPLAY WAS REQUESTED WHILE A HIGHER PRIORITY
001306:                                                                                                  #  DISPLAY WAS GOING RESULTING IN THE NORMAL BEING PUT TO SLEEP.
001307:
001308:                                                                                                  #  IF EITHER OF THE ABOVE 2 CONDITIONS EXISTS, THE NORMAL DISPLAY IS AWAKENED TO GO TO PLAYJUM1 WHICH STARTS
001309:                                                                                                  #  UP THE MOST RECENT VALID NORMAL DISPLAY.  IF THESE 2 CONDITIONS DO NOT EXIST, CONTROL GOES TO PLAYJUM1 WHICH IS
001310:                                                                                                  #  STARTED IMMEDIATELY WITH THE ASSUMPTION THAT THE MOST RECENT NORMAL DISPLAY IS ALREADY IN-ENDIDLE(DURING A
001311:                                                                                                  #  PINBRANCH) OR THAT A RESTART HAS OCCURRED AND THE DISPLAY CAN BE STARTED AS A .1 RESTART.
001312:
001313: 10,3635           46211        MARKRET            CS       SIX
001314: 10,3636           70100                           MASK     FLAGWRD4
001315: 10,3637           00004                           INHINT                                         #  *** MAY MOVE DISPLAY FLAGWORD OUT OF
001316: 10,3640           54100                           TS       FLAGWRD4
001317:
001318: 10,3641           00003                           RELINT                                         #  INHINT REALM
001319: 10,3642           13557                           TCF      ENDRET
001320:
001321: 10,3643           37716        MARKOVER           CAF      MINUS1                                #  RUPTREG2 IS - MEANS ENDOFJOB TO ENDRET
001322: 10,3644           54161                           TS       OUTHERE
001323: 10,3645           30100                           CA       FLAGWRD4                              #  IS ENDIDFLG SET
001324: 10,3646           74371                           MASK     PRIO30                                #  IS NORMAL OR PRIO IN ENDIDLE
001325: 10,3647           10000                           CCS      A
001326: 10,3650           13303                           TCF      NORMBNCH
001327:
001328: 10,3651           30100        NORMRET            CA       FLAGWRD4                              #  IS MARK SLEEPING
001329: 10,3652           73746                           MASK     BITS5+11                              #  OR WAITING
001330: 10,3653           10000                           CCS      A
001331: 10,3654           13245                           TCF      MARKWAKE
001332:
001333: 10,3655           30100                           CA       FLAGWRD4                              #  NO
001334: 10,3656           73747                           MASK     BITS4+10                              #  IS NORMAL INTERRUPTED OR WAITING
001335: 10,3657           10000                           CCS      A
001336: 10,3660           13555                           TCF      NORMWAKE                              #  YES
001337:
001338: 10,3661           31071                           CA       EBANKTEM                              #  NO, WAS IT A FLASH REQUEST
001339: 10,3662           75047                           MASK     OCT50                                 #  OR A GODSPRET
001340: 10,3663           10000                           CCS      A
001341: 10,3664           13557                           TCF      ENDRET                                #  YES
001342: 10,3665           30370                           CA       NVSAVE
001343: 10,3666           00006                           EXTEND
001344: 10,3667           13557                           BZF      ENDRET
001345:
001346: 10,3670           35103                           CAF      PRIO15
001347: 10,3671           00004                           INHINT
001348: 10,3672           05150                           TC       NOVAC
001349: 10,3673     0366                                  EBANK=   NVWORD
001350: 10,3673           03037 20060                     2CADR    PLAYJUM1
001351:
001352: 10,3675           13557                           TCF      ENDRET
001353:
001354: 10,3676           30100        MARSLEEP           CA       FLAGWRD4                              #  IS MARK ALREADY IN
001355: 10,3677           73746                           MASK     BITS5+11
001356: 10,3700           10000                           CCS      A
001357: 10,3701           15233                           TCF      ENDOFJOB                              #  YES
001358: 10,3702           13176                           TCF      GOSLEEPS
001359:
001360: 10,3703           50157        LOADITIS           INDEX    COPMPAC
001361: 10,3704           30366                           CA       NVWORD
001362: 10,3705           76043                           MASK     LOW7
001363: 10,3706           40000                           COM
001364: 10,3707           60155                           AD       MPAC       +1                         #  NOUNREG
001365: 10,3710           00006                           EXTEND
001366: 10,3711           13533                           BZF      OKTOENT                               #  NO, THEN LOAD IS VALID
001367: 10,3712           13272                           TCF      PINBRNCH                              #  YES, ACCEPT LOAD BUT ASK FOR LAST AGAIN
001368:
001369: 10,3713           46214        ERASER             CS       THREE                                 #  BLANK EVERYTHING EXCEPT MM
001370: 10,3714           04170                           TC       NVSUB
001371: 10,3715           15233                           TCF      ENDOFJOB
001372: 10,3716           15233                           TCF      ENDOFJOB
001373:
001374: 10,3717           00036        PERFMASK           OCT      0036                                  #  FLASH, PERFORM, BLANK R2 AND R3
001375: 10,3720           00231        V01N25             VN       00125
001376: 10,3721           01407        V06N07             VN       00607                                 #  GOPERF3 VN DISPLAY BEFORE V50
001377: 10,3722           14400        V50N00             VN       5000
001378: 10,3723           00030        PERF2MSK           OCT      00030                                 #  FLASH, PERFORM
001379: 10,3724           01006        V04N06             VN       00406
001380: 10,3725           00014        PERF4MSK           OCT      14                                    #  FLASH, BLANK R3
001381: 10,3726  10,3272               GOAGIN             EQUALS   PINBRNCH
001382: 10,3726           20010        REDOMASK           OCT      20010                                 #  BITS 4 AND 14
001383: 10,3727           40230        MARK3MSK           OCT      40230                                 #  MARK, DECIMAL NOUN, PERFORM, FLASH
001384: 10,3730           40036        MARK4MSK           OCT      40036                                 #  MARK, PERFORM, FLASH, BLANK 2 AND 3
001385: 10,3731           20764        NVCADR             CADR     REDOPRIO
001386: 10,3732           20624        WAKECADR           CADR     MARKPLAY
001387: 10,3733           21037                           CADR     PLAYJUM1
001388:
001389: 10,3734           03400        OCT3400            OCT      3400                                  #  EBANK MASK
001390: 10,3735           11210        NBUSMASK           OCT      11210
001391: 10,3736           66521        PMMASK             OCT      66521
001392: 10,3737     4160               VERBMASK           =        MID7                                  #  (OCT 37600)
001393: 10,3737           01177        V05N00M1           OCT      1177                                  #  V05 MINUS ONE
001394: 10,3740  10,2555               GOXDSP             EQUALS   GOMARK
001395: 10,3740  10,2575               GOXDSPR            EQUALS   GOMARKR
001396: 10,3740  10,2561               GOXDSPF            EQUALS   GOMARKF
001397: 10,3740  10,2600               GOXDSPFR           EQUALS   GOMARKFR
001398: 10,3740     5550               ENDEXT             EQUALS   ENDMARK
001399: 10,3740     0165               MPAC2SAV           EQUALS   BANKSET
001400: 10,3740           00700        NVBUSMSK           OCT      700
001401: 10,3741           00704        ASTROMSK           OCT      704
001402: 10,3742           40030        MPERFMSK           OCT      40030                                 #  BIT 15,5,4 FOR MARK,PERFORM,FLASH
001403: 10,3743           34300        OCT34300           OCT      34300
001404: 10,3744           40100        BITS15+7           OCT      40100
001405: 10,3745           00110        BITS7+4            OCT      110
001406: 10,3746     1067               DSPFLG             EQUALS   EBANKSAV
001407: 10,3746     1070               MARKFLAG           EQUALS   MARKEBAN
001408: 10,3746     1071               SAVEFLAG           EQUALS   EBANKTEM
001409: 10,3746           02020        BITS5+11           OCT      2020                                  #  * DONT MOVE
001410: 10,3747           01010        BITS4+10           OCT      1010                                  #  * DONT MOVE
001411: 10,3750           00026        LOWLOAD            DEC      22         B-14
001412: 10,3751           77730        BUSYMASK           OCT      77730
001413: 10,3752           00050        CADRMASK           OCT      50
001414: 10,3753     7707               PINMASK            EQUALS   13,14,15
001415: 10,3753  10,3312               GOPLAY             EQUALS   NVDSP
001416:                                                                                                  #  PRIOSAVE      EQUALS  R1SAVE
001417: 10,3753     0157               COPMPAC            EQUALS   MPAC       +3
001418: 10,3753     0160               TEMPOR2            EQUALS   MPAC       +4
001419: 10,3753     0161               OUTHERE            EQUALS   MPAC       +5
001420: 10,3753     0164               COPINDEX           EQUALS   LOC
001421: 10,3753     0163               USERPRIO           EQUALS   MODE
001422: 10,3753     0162               GENMASK            EQUALS   MPAC       +6
001423: 10,3753           20144        PRIOOCT            OCT      20144                                 #  PRIO
001424: 10,3754           42424        MARKOCT            OCT      42424                                 #  MARK
001425: 10,3755           11254                           OCT      11254                                 #  NORM
001426:
001427: 10,3756           74704        IDLESLEP           OCT      74704
001428: 10,3757           67777        OCT67777           OCT      67777
001429: 10,3760     5542               LINUS              EQUALS   BLANKET
001430: 10,3760     0154               FACEREG            EQUALS   MPAC
001431: 10,3760     0155               PLAYTEM1           EQUALS   MPAC       +1
001432: 10,3760     0157               PLAYTEM3           EQUALS   MPAC       +3
001433: 10,3760     0160               PLAYTEM4           EQUALS   MPAC       +4
001434: 10,3760           40420        OCT40420           OCT      40420
001435: 10,3761           02770        MAKEGEN            GENADR   MAKEPLAY
001436: 10,3762           10200        OCT10200           OCT      10200
001437: 10,3763           30200        V97N00             VN       09700                                 #  PASTE FOR V97 OR V99
001438: 10,3764           20100        OCT20100           OCT      20100
001439: 10,3765           24030        CLOCKCON           OCT      24030                                 #  FLASH, PERFORM, V99 OR V97 PASTE,REFLASH

End of include-file DISPLAY_INTERFACE_ROUTINES.agc.  Parent file is MAIN.agc


