
Source Code


000002:                                                                                                  ## Copyright:   Public domain.
000003:                                                                                                  ## Filename:    ERASABLE_ASSIGNMENTS.agc
000004:                                                                                                  ## Purpose:     A section of Comanche revision 067.
000005:                                                                                                  ##              It is part of the reconstructed source code for the flight
000006:                                                                                                  ##              software for the Command Module's (CM) Apollo Guidance Computer
000007:                                                                                                  ##              (AGC) for Apollo 12. No original listings of this program are
000008:                                                                                                  ##              available; instead, this file was created via dissassembly of
000009:                                                                                                  ##              dumps of Comanche 067 core rope modules and comparison with
000010:                                                                                                  ##              other AGC programs.
000011:                                                                                                  ## Assembler:   yaYUL
000012:                                                                                                  ## Contact:     Ron Burkey <info@sandroid.org>.
000013:                                                                                                  ## Website:     www.ibiblio.org/apollo/index.html
000014:                                                                                                  ## Mod history: 2023-08-16 MAS  Created from Comanche 055.
000015:                                                                                                  ##              2024-05-13 MAS  Updated for Comanche 067.
000016:
000017:                                                                                                  #  CONVENTIONS AND NOTATIONS UTILIZED FOR ERASABLE ASSIGNMENTS.
000018:
000019:                                                                                                  #        EQUALS  IS USED IN TWO WAYS.  IT IS OFTEN USED TO CHAIN A GROUP
000020:                                                                                                  #                OF ASSIGNMENTS SO THAT THE GROUP MAY BE MOVED WITH THE
000021:                                                                                                  #                CHANGING OF ONLY ONE CARD.  EXAMPLE.
000022:
000023:                                                                                                  #                        X       EQUALS  START
000024:                                                                                                  #                        Y       EQUALS  X       +SIZE.X
000025:                                                                                                  #                        Z       EQUALS  Y       +SIZE.Y
000026:
000027:                                                                                                  #                (X, Y, AND Z ARE CONSECUTIVE AND BEGIN AT START.       )
000028:                                                                                                  #                (SIZE.X AND SIZE.Y ARE THE RESPECTIVE SIZES OF X AND Y,
000029:                                                                                                  #                 USUALLY NUMERIC, IE. 1, 2, 6, 18D ETC.                )
000030:
000031:                                                                                                  #        EQUALS  OFTEN IMPLIES THE SHARING OF REGISTERS (DIFFERENT NAMES
000032:                                                                                                  #                AND DIFFERENT DATA).  EXAMPLE.
000033:
000034:                                                                                                  #                        X       EQUALS  Y
000035:
000036:                                                                                                  #        =       MEANS THAT MULTIPLE NAMES HAVE BEEN GIVEN TO THE SAME DATA.
000037:                                                                                                  #                (THIS IS LOGICAL EQUIVALENCE, NOT SHARING)  EXAMPLE.
000038:
000039:                                                                                                  #                        X       =       Y
000040:
000041:                                                                                                  #        THE SIZE AND UTILIZATION OF AN ERASABLE ARE OFTEN INCLUDED IN
000042:                                                                                                  #        THE COMMENTS IN THE FOLLOWING FORM.  M(SIZE)N.
000043:
000044:                                                                                                  #                M       REFERS TO THE MOBILITY OF THE ASSIGNMENT.
000045:                                                                                                  #                        B       MEANS THAT THE SYMBOL IS REFERENCED BY BASIC
000046:                                                                                                  #                                INSTRUCTIONS AND THUS IS E-BANK SENSITIVE.
000047:                                                                                                  #                        I       MEANS THAT THE SYMBOL IS REFERENCED ONLY BY
000048:                                                                                                  #                                INTERPRETIVE INSTRUCTIONS, AND IS THUS E-BANK
000049:                                                                                                  #                                INSENSITIVE AND MAY APPEAR IN ANY E-BANK.
000050:
000051:                                                                                                  #                SIZE    IS THE NUMBER OF REGISTERS INCLUDED BY THE SYMBOL.
000052:
000053:                                                                                                  #                N       INDICATES THE NATURE OR PERMANENCE OF THE CONTENTS.
000054:                                                                                                  #                        PL      MEANS THAT THE CONTENTS ARE PAD LOADED.
000055:                                                                                                  #                        DSP     MEANS THAT THE REGISTER IS USED FOR A DISPLAY.
000056:                                                                                                  #                        PRM     MEANS THAT THE REGISTER IS PERMANENT, IE. IT
000057:                                                                                                  #                                IS USED DURING THE ENTIRE MISSION FOR ONE
000058:                                                                                                  #                                PURPOSE AND CANNOT BE SHARED.
000059:                                                                                                  #                        TMP     MEANS THAT THE REGISTER IS USED TEMPORARILY OR
000060:                                                                                                  #                                IS A SCRATCH REGISTER FOR THE ROUTINE TO WHICH
000061:                                                                                                  #                                IT IS ASSIGNED.  THAT IS, IT NEED NOT BE SET
000062:                                                                                                  #                                PRIOR TO INVOCATION OF THE ROUTINE NOR DOES IT
000063:                                                                                                  #                                CONTAIN USEFUL OUTPUT TO ANOTHER ROUTINE.  THUS
000064:                                                                                                  #                                IT MAY BE SHARED WITH ANY OTHER ROUTINE WHICH
000065:                                                                                                  #                                IS NOT ACTIVE IN PARALLEL.
000066:                                                                                                  #                        IN      MEANS INPUT TO THE ROUTINE AND IT IS PROBABLY
000067:                                                                                                  #                                TEMPORARY FOR A HIGHER-LEVEL ROUTINE/PROGRAM.
000068:                                                                                                  #                        OUT     MEANS OUTPUT FROM THE ROUTINE, PROBABLY
000069:                                                                                                  #                                TEMPORARY FOR A HIGHER-LEVEL ROUTINE/PROGRAM.
000070:
000071:
000072:                                                                                                  #  SPECIAL REGISTERS.
000073:
000074: 37,2001                        A                  EQUALS   0
000075: 37,2001                        L                  EQUALS   1                                     #  L AND Q ARE BOTH CHANNELS AND REGISTERS.
000076: 37,2001                        Q                  EQUALS   2
000077: 37,2001                        EBANK              EQUALS   3
000078: 37,2001                        FBANK              EQUALS   4
000079: 37,2001                        Z                  EQUALS   5                                     #  ADJACENT TO FBANK AND BBANK FOR DXCH Z
000080: 37,2001                        BBANK              EQUALS   6                                     #  (DTCB) AND DXCH FBANK (DTCF).
000081:                                                                                                  #  REGISTER 7 IS A ZERO-SOURCE, USED BY ZL.
000082:
000083: 37,2001                        ARUPT              EQUALS   10                                    #  INTERRUPT STORAGE.
000084: 37,2001                        LRUPT              EQUALS   11
000085: 37,2001                        QRUPT              EQUALS   12
000086: 37,2001                        SAMPTIME           EQUALS   13                                    #  SAMPLED TIME 1 & 2.
000087: 37,2001                        ZRUPT              EQUALS   15                                    #  (13 AND 14 ARE SPARES.)
000088: 37,2001                        BANKRUPT           EQUALS   16                                    #  USUALLY HOLDS FBANK OR BBANK.
000089: 37,2001                        BRUPT              EQUALS   17                                    #  RESUME ADDRESS AS WELL.
000090:
000091: 37,2001                        CYR                EQUALS   20
000092: 37,2001                        SR                 EQUALS   21
000093: 37,2001                        CYL                EQUALS   22
000094: 37,2001                        EDOP               EQUALS   23                                    #  EDITS INTERPRETIVE OPERATION CODE PAIRS.
000095:
000096: 37,2001                        TIME2              EQUALS   24
000097: 37,2001                        TIME1              EQUALS   25
000098: 37,2001                        TIME3              EQUALS   26
000099: 37,2001                        TIME4              EQUALS   27
000100: 37,2001                        TIME5              EQUALS   30
000101: 37,2001                        TIME6              EQUALS   31
000102: 37,2001                        CDUX               EQUALS   32
000103: 37,2001                        CDUY               EQUALS   33
000104: 37,2001                        CDUZ               EQUALS   34
000105: 37,2001                        CDUT               EQUALS   35                                    #  OPTICS TRUNNION CDU (WAS OPTY).
000106: 37,2001  0000035               OPTY               =        CDUT
000107: 37,2001                        CDUS               EQUALS   36                                    #  OPTICS SHAFT CDU (WAS OPTX).
000108: 37,2001  0000036               OPTX               =        CDUS
000109: 37,2001                        PIPAX              EQUALS   37
000110: 37,2001                        PIPAY              EQUALS   40
000111: 37,2001                        PIPAZ              EQUALS   41
000112: 37,2001                        BMAGX              EQUALS   42
000113: 37,2001                        BMAGY              EQUALS   43
000114: 37,2001                        BMAGZ              EQUALS   44
000115: 37,2001                        INLINK             EQUALS   45
000116: 37,2001                        RNRAD              EQUALS   46
000117: 37,2001                        GYROCTR            EQUALS   47
000118: 37,2001                        GYROCMD            EQUALS   47
000119: 37,2001                        CDUXCMD            EQUALS   50
000120: 37,2001                        CDUYCMD            EQUALS   51
000121:
000122:
000123: 37,2001                        CDUZCMD            EQUALS   52
000124: 37,2001                        CDUTCMD            EQUALS   53                                    #  OPTICS TRUNNION COMMAND (WAS OPTYCMD).
000125: 37,2001  0000053               OPTYCMD            =        CDUTCMD
000126: 37,2001  0000053               TVCYAW             EQUALS   CDUTCMD                               #  SPS YAW COMMAND IN TVC MODE.
000127: 37,2001                        CDUSCMD            EQUALS   54                                    #  OPTICS SHAFT COMMAND (WAS OPTXCMD).
000128: 37,2001  0000054               TVCPITCH           EQUALS   CDUSCMD                               #  SPS PITCH COMMAND IN TVC MODE.
000129: 37,2001  0000054               OPTXCMD            =        CDUSCMD
000130: 37,2001                        EMSD               EQUALS   55
000131: 37,2001                        THRUST             EQUALS   55
000132: 37,2001                        LEMONM             EQUALS   56
000133: 37,2001                        LOCALARM           EQUALS   57
000134: 37,2001                        BANKALRM           EQUALS   60
000135:
000136:                                                                                                  #  INTERPRETIVE REGISTERS ADDRESSED RELATIVE TO VAC AREA.
000137:
000138: 37,2001                        LVSQUARE           EQUALS   34D                                   #  SQUARE OF VECTOR INPUT TO ABVAL AND UNIT
000139: 37,2001                        LV                 EQUALS   36D                                   #  LENGTH OF VECTOR INPUT TO UNIT.
000140: 37,2001                        X1                 EQUALS   38D                                   #  INTERPRETIVE SPECIAL REGISTERS RELATIVE
000141: 37,2001                        X2                 EQUALS   39D                                   #  TO THE WORK AREA.
000142: 37,2001                        S1                 EQUALS   40D
000143: 37,2001                        S2                 EQUALS   41D
000144: 37,2001                        QPRET              EQUALS   42D
000145:
000146:
000147:                                                                                                  #  INPUT/OUTPUT CHANNELS
000148:
000149:                                                                                                  #  *** CHANNEL ZERO IS TO BE USED IN AN INDEXED OPERATION ONLY. ***
000150: 37,2001  0000001               LCHAN              EQUALS   L
000151: 37,2001  0000002               QCHAN              EQUALS   Q
000152: 37,2001                        HISCALAR           EQUALS   3
000153: 37,2001                        LOSCALAR           EQUALS   4
000154: 37,2001                        PYJETS             EQUALS   5
000155: 37,2001                        ROLLJETS           EQUALS   6
000156: 37,2001                        SUPERBNK           EQUALS   7
000157: 37,2001                        OUT0               EQUALS   10
000158: 37,2001                        DSALMOUT           EQUALS   11
000159: 37,2001                        CHAN12             EQUALS   12
000160: 37,2001                        CHAN13             EQUALS   13
000161: 37,2001                        CHAN14             EQUALS   14
000162: 37,2001                        MNKEYIN            EQUALS   15
000163: 37,2001                        NAVKEYIN           EQUALS   16
000164: 37,2001                        CHAN30             EQUALS   30
000165: 37,2001                        CHAN31             EQUALS   31
000166: 37,2001                        CHAN32             EQUALS   32
000167: 37,2001                        CHAN33             EQUALS   33
000168: 37,2001                        DNTM1              EQUALS   34
000169: 37,2001                        DNTM2              EQUALS   35
000170:
000171:                                                                                                  #  END OF CHANNEL ASSIGNMENTS
000172:
000173:
000174:                                                                                                  #  FLAGWORDS
000175:
000176:                                                                                                  #  FLAGWRD0      STATE +0        (000-014)
000177:                                                                                                  #  FLAGWRD1      STATE +1        (015-029)
000178:                                                                                                  #  FLAGWRD2      STATE +2        (030-044)
000179:                                                                                                  #  FLAGWRD3      STATE +3        (045-059)
000180:                                                                                                  #  FLAGWRD4      STATE +4        (060-074)
000181:                                                                                                  #  FLAGWRD5      STATE +5        (075-089)
000182:                                                                                                  #  FLAGWRD6      STATE +6        (090-104)
000183:                                                                                                  #  FLAGWRD7      STATE +7        (105-119)
000184:                                                                                                  #  FLAGWRD8      STATE +8D       (120-134)
000185:                                                                                                  #  FLAGWRD9      STATE +9D       (135-149)
000186:
000187:                                                                                                  #        SORTED LIST OF
000188:                                                                                                  #        INTERPITIVE SWITCH BIT ASSIGNMENTS
000189:
000190:                                                                                                  #  INTERPRETIVE SWITCH BIT ASSIGNMENTS
000191:
000192:                                                                                                  #  FLAGWORD      DEC NUM         BIT + FLAG      EQUIVALENT FLAGWORDS
000193:
000194:                                                                                                  #  22DSPFLG      032D            BIT 13 FLAG 2
000195:                                                                                                  #  360SW         134D            BIT 1 FLAG 8
000196:                                                                                                  #  3AXISFLG      084D            BIT 6 FLAG 5
000197:                                                                                                  #  ADVTRK        125D            BIT 10 FLAG 8
000198:                                                                                                  #  AMOONFLG      13D             BIT 2 FLAG 0
000199:                                                                                                  #  APSESW        130D            BIT 5 FLAG 8
000200:                                                                                                  #  ASTNFLAG      108D            BIT 12 FLAG 7
000201:                                                                                                  #  ATTCHFLG      118D            BIT 2 FLAG 7
000202:                                                                                                  #  AVEGFLAG      029D            BIT 1 FLAG 1
000203:                                                                                                  #  AVEMIDSW      149D            BIT 1 FLAG 9
000204:                                                                                                  #  AVFLAG        040D            BIT 5 FLAG 2
000205:                                                                                                  #  CALCMAN2      043D            BIT 2 FLAG 2
000206:                                                                                                  #  CMDAPARM      093D            BIT 12 FLAG 6
000207:                                                                                                  #  CMOONFLG      123D            BIT 12 FLAG 8
000208:                                                                                                  #  CM/DSTBY      103D            BIT 2 FLAG 6
000209:                                                                                                  #  COGAFLAG      131D            BIT 4 FLAG 8
000210:                                                                                                  #  COMPUTER      082D            BIT 8 FLAG 5
000211:                                                                                                  #  CPHIFLAG      000D            BIT 15 FLAG 0
000212:                                                                                                  #  CULTFLAG      053D            BIT 7 FLAG 3
000213:                                                                                                  #  D6OR9FLG      058D            BIT 2 FLAG 3
000214:                                                                                                  #  DAPBIT1       090D            BIT 15 FLAG 6
000215:                                                                                                  #  DAPBIT2       091D            BIT 14 FLAG 6
000216:                                                                                                  #  DIM0FLAG      059D            BIT 1 FLAG 3
000217:                                                                                                  #  DMENFLG       081D            BIT 9 FLAG 5
000218:                                                                                                  #  DRIFTFLG      030D            BIT 15 FLAG 2
000219:                                                                                                  #  DSKYFLAG      075D            BIT 15 FLAG 5
000220:                                                                                                  #  EGSW          97D             BIT 8 FLAG 6     KNOWNFLG R57FLAG
000221:
000222:
000223:                                                                                                  #  ENG1FLAG      018D            BIT 12 FLAG 1
000224:                                                                                                  #  ENG2FLAG      019D            BIT 11 FLAG 1
000225:                                                                                                  #  ENGONFLG      083D            BIT 7 FLAG 5
000226:                                                                                                  #  ERADFLAG      017D            BIT 13 FLAG 1
000227:                                                                                                  #  ETPIFLAG      038D            BIT 7 FLAG 2    FIRSTFLG OPTNSW
000228:                                                                                                  #  F2RTE         10D             BIT 5 FLAG 0
000229:                                                                                                  #  FINALFLG      039D            BIT 6 FLAG 2
000230:                                                                                                  #  FIRSTFLG      38D             BIT 7 FLAG 2    ETPIFLAG OPTNSW
000231:                                                                                                  #  FREEFLAG      012D            BIT 3 FLAG 0
000232:                                                                                                  #  GAMDIFSW      094D            BIT 11 FLAG 6
000233:                                                                                                  #  GLOKFAIL      046D            BIT 14 FLAG 3
000234:                                                                                                  #  GONEBY        112D            BIT 8 FLAG 7
000235:                                                                                                  #  GONEPAST      095D            BIT 10 FLAG 6
000236:                                                                                                  #  GRRBKFLG      085D            BIT 5 FLAG 5
000237:                                                                                                  #  GUESSW        028D            BIT 2 FLAG 1
000238:                                                                                                  #  GYMDIFSW      104D            BIT 1 FLAG 6
000239:                                                                                                  #  .05GSW        102D            BIT 3 FLAG 6
000240:                                                                                                  #  HIND          099D            BIT 6 FLAG 6
000241:                                                                                                  #  IDLEFAIL      024D            BIT 6 FLAG 1
000242:                                                                                                  #  IDLEFLAG      113D            BIT 7 FLAG 7
000243:                                                                                                  #  IGNFLAG       107D            BIT 13 FLAG 7
000244:                                                                                                  #  IMPULSW       036D            BIT 9 FLAG 2
000245:                                                                                                  #  IMUSE         007D            BIT 8 FLAG 0
000246:                                                                                                  #  INCORFLG      079D            BIT 11 FLAG 5
000247:                                                                                                  #  INFINFLG      128D            BIT 7 FLAG 8
000248:                                                                                                  #  INRLSW        100D            BIT 5 FLAG 6
000249:                                                                                                  #  INTFLAG       151D            BIT 14 FLAG 10
000250:                                                                                                  #  INTYPFLG      056D            BIT 4 FLAG 3
000251:                                                                                                  #  ITSWICH       106D            BIT 14 FLAG 7
000252:                                                                                                  #  KFLAG         014D            BIT 1 FLAG 0
000253:                                                                                                  #  KNOWNFLG      097D            BIT 8 FLAG 6    EGSW R57FLAG
000254:                                                                                                  #  LATSW         101D            BIT 4 FLAG 6
000255:                                                                                                  #  LMOONFLG      124D            BIT 11 FLAG 8
000256:                                                                                                  #  LUNAFLAG      048D            BIT 12 FLAG 3
000257:                                                                                                  #  MAXDBFLG      138D            BIT 12 FLAG 9
000258:                                                                                                  #  MGLVFLAG      088D            BIT 2 FLAG 5
000259:                                                                                                  #  MID1FLAG      147D            BIT 3 FLAG 9
000260:                                                                                                  #  MIDAVFLG      148D            BIT 2 FLAG 9
000261:                                                                                                  #  MIDFLAG       002D            BIT 13 FLAG 0
000262:                                                                                                  #  MKOVFLAG      072D            BIT 3 FLAG 4
000263:                                                                                                  #  MOONFLAG      003D            BIT 12 FLAG 0
000264:                                                                                                  #  MRKIDFLG      060D            BIT 15 FLAG 4
000265:                                                                                                  #  MRKNVFLG      066D            BIT 9 FLAG 4
000266:                                                                                                  #  MRUPTFLG      070D            BIT 5 FLAG 4
000267:                                                                                                  #  MWAITFLG      064D            BIT 11 FLAG 4
000268:                                                                                                  #  N22ORN17      144D            BIT 6 FLAG 9
000269:                                                                                                  #  NEEDLFLG      006D            BIT 9 FLAG 0
000270:                                                                                                  #  NEWIFLG       122D            BIT 13 FLAG 8
000271:                                                                                                  #  NJETSFLG      015D            BIT 15 FLAG 1
000272:                                                                                                  #  NODOFLAG      044D            BIT 1 FLAG 2
000273:
000274:
000275:                                                                                                  #  NODOP01       018D            BIT 12 FLAG 1
000276:                                                                                                  #  NORFHOR       004D            BIT 11 FLAG 0
000277:                                                                                                  #  NORMSW        110D            BIT 10 FLAG 7
000278:                                                                                                  #  NOSWITCH      098D            BIT 7 FLAG 6
000279:                                                                                                  #  NRMIDFLG      062D            BIT 13 FLAG 4
000280:                                                                                                  #  NRMNVFLG      067D            BIT 8 FLAG 4
000281:                                                                                                  #  NRUPTFLG      071D            BIT 4 FLAG 4
000282:                                                                                                  #  NWAITFLG      065D            BIT 10 FLAG 4
000283:                                                                                                  #  OPTNSW        038D            BIT 7 FLAG 2    ETPIFLAG FIRSTFLG
000284:                                                                                                  #  ORBWFLAG      054D            BIT 6 FLAG 3
000285:                                                                                                  #  ORDERSW       129D            BIT 6 FLAG 8
000286:                                                                                                  #  P21FLAG       033D            BIT 12 FLAG 2
000287:                                                                                                  #  P22MKFLG      49D             BIT 11 FLAG 3
000288:                                                                                                  #  P39/79SW      126D            BIT 9 FLAG 8
000289:                                                                                                  #  PDSPFLAG      063D            BIT 12 FLAG 4
000290:                                                                                                  #  PFRATFLG      041D            BIT 4 FLAG 2
000291:                                                                                                  #  PINBRFLG      069D            BIT 6 FLAG 4
000292:                                                                                                  #  PRECIFLG      052D            BIT 8 FLAG 3
000293:                                                                                                  #  PRFTRKAT      080D            BIT 10 FLAG 5
000294:                                                                                                  #  PRIODFLG      061D            BIT 14 FLAG 4
000295:                                                                                                  #  PRONVFLG      068D            BIT 7 FLAG 4
000296:                                                                                                  #  QUITFLAG      145D            BIT 5 FLAG 9
000297:                                                                                                  #  R21MARK       031D            BIT 14 FLAG 2
000298:                                                                                                  #  R22CAFLG      143D            BIT 7 FLAG 9
000299:                                                                                                  #  R23FLG        021D            BIT 9 FLAG 1
000300:                                                                                                  #  R31FLAG       146D            BIT 4 FLAG 9
000301:                                                                                                  #  R53FLAG       009D            BIT 6 FLAG 0
000302:                                                                                                  #  R57FLAG       097D            BIT 8 FLAG 6    KNOWNFLG EGSW
000303:                                                                                                  #  R60FLAG       086D            BIT 4 FLAG 5
000304:                                                                                                  #  REFSMFLG      047D            BIT 13 FLAG 3
000305:                                                                                                  #  REINTFLG      158D            BIT 7 FLAG 10
000306:                                                                                                  #  RELVELSW      096D            BIT 9 FLAG 6
000307:                                                                                                  #  RENDWFLG      089D            BIT 1 FLAG 5
000308:                                                                                                  #  RETROFLG      76D             BIT 14 FLAG 5
000309:                                                                                                  #  RNDVZFLG      008D            BIT 7 FLAG 0
000310:                                                                                                  #  RPQFLAG       120D            BIT 15 FLAG 8
000311:                                                                                                  #  RVSW          111D            BIT 9 FLAG 7
000312:                                                                                                  #  SAVECFLG      140D            BIT 10 FLAG 9
000313:                                                                                                  #  SKIPVHF       035D            BIT 10 FLAG 2
000314:                                                                                                  #  SLOPESW       027D            BIT 3 FLAG 1
000315:                                                                                                  #  SLOWFLG       77D             BIT 13 FLAG 5
000316:                                                                                                  #  SOLNSW        087D            BIT 3 FLAG 5
000317:                                                                                                  #  SOURCFLG      142D            BIT 8 FLAG 9
000318:                                                                                                  #  STATEFLG      055D            BIT 5 FLAG 3
000319:                                                                                                  #  STEERSW       034D            BIT 11 FLAG 2
000320:                                                                                                  #  STIKFLAG      016D            BIT 14 FLAG 1
000321:                                                                                                  #  STRULLSW      92D             BIT 13 FLAG 6
000322:                                                                                                  #  SURFFLAG      127D            BIT 8 FLAG 8
000323:                                                                                                  #  SWTOVER       135D            BIT 15 FLAG 9
000324:                                                                                                  #  TARG1FLG      020D            BIT 10 FLAG 1
000325:
000326:
000327:                                                                                                  #  TARG2FLG      021D            BIT 9 FLAG 1
000328:                                                                                                  #  TERMIFLG      105D            BIT 15 FLAG 7
000329:                                                                                                  #  TFFSW         119D            BIT 1 FLAG 7
000330:                                                                                                  #  TIMRFLAG      109D            BIT 11 FLAG 7
000331:                                                                                                  #  TRACKFLG      025D            BIT 5 FLAG 1
000332:                                                                                                  #  TRM03FLG      26D             BIT 4 FLAG 1
000333:                                                                                                  #  TRUNFLAG      011D            BIT 4 FLAG 0
000334:                                                                                                  #  UPDATFLG      023D            BIT 7 FLAG 1
000335:                                                                                                  #  UPLOCKFL      116D            BIT 4 FLAG 7
000336:                                                                                                  #  V37FLAG       114D            BIT 6 FLAG 7
000337:                                                                                                  #  V50N18FL      045D            BIT 15 FLAG 3
000338:                                                                                                  #  V59FLAG       078D            BIT 12 FLAG 5
000339:                                                                                                  #  V82EMFLG      137D            BIT 13 FLAG 9
000340:                                                                                                  #  V94FLAG       139D            BIT 11 FLAG 9
000341:                                                                                                  #  V96ONFLG      132D            BIT 3 FLAG 8
000342:                                                                                                  #  VEHUPFLG      022D            BIT 8 FLAG 1
000343:                                                                                                  #  VERIFLAG      117D            BIT 3 FLAG 7
000344:                                                                                                  #  VFLAG         050D            BIT 10 FLAG 3
000345:                                                                                                  #  VHFRFLAG      141D            BIT 9 FLAG 9
000346:                                                                                                  #  VINTFLAG      057D            BIT 3 FLAG 3
000347:                                                                                                  #  XDELVFLG      037D            BIT 8 FLAG 2
000348:                                                                                                  #  XDSPFLAG      074D            BIT 1 FLAG 4
000349:
000350:
000351:                                                                                                  #  INTERPRETIVE SWITCH BIT ASSIGNMENTS
000352: 37,2001     0074               FLAGWRD0           =        STATE      +0                         #  (000-014)
000353:                                                                                                  #  (SET)                 (RESET)
000354:                                                                                                  #  BIT 15 FLAG 0
000355: 37,2001                        CPHIFLAG           =        000D                                  #  OUTPUT OF CALCGA IS   OUTPUT OF CALCGA IS
000356:                                                                                                  #  CPHIX                 THETAD
000357: 37,2001     5015               CPHIBIT            =        BIT15
000358:
000359:                                                                                                  #  BIT 14 FLAG 0
000360: 37,2001                        JSWITCH            =        001D                                  #  INTEGRATION OF W      INTEGRATION OF STATE
000361:                                                                                                  #  MATRIX                VECTOR
000362: 37,2001     5016               JSWCHBIT           =        BIT14
000363:
000364:                                                                                                  #  BIT 13 FLAG 0
000365: 37,2001                        MIDFLAG            =        002D                                  #  INTEGRATION WITH      INTEGRATION WITHOUT
000366:                                                                                                  #  SOLAR PERTURBATIONS   SOLAR PERTURBATIONS
000367:
000368: 37,2001     5017               MIDFLBIT           =        BIT13
000369:
000370:                                                                                                  #  BIT 12 FLAG 0
000371: 37,2001                        MOONFLAG           =        003D                                  #  MOON IS SPHERE OF     EARTH IS SPHERE OF
000372:                                                                                                  #  INFLUENCE             INFLUENCE
000373:
000374: 37,2001     5020               MOONBIT            =        BIT12
000375:
000376:                                                                                                  #  BIT 11 FLAG 0
000377: 37,2001                        NORFHOR            =        004D                                  #  FAR HORIZON           NEAR HORIZON
000378:
000379: 37,2001     5021               NORFBIT            =        BIT11
000380:
000381:                                                                                                  #  BIT 10 FLAG 0
000382: 37,2001                        ZMEASURE           =        005D                                  #  MEASUREMENT PLANET    MEASUREMENT PLANET
000383:                                                                                                  #  AND PRIMARY PLANET    AND PRIMARY PLANET
000384:                                                                                                  #  DIFFERENT             SAME
000385:
000386: 37,2001     5022               ZMEASBIT           =        BIT10
000387:
000388:                                                                                                  #  BIT 9 FLAG 0
000389: 37,2001                        NEEDLFLG           =        006D                                  #  TOTAL ATTIDUDE        A/P FOLLOWING ERROR
000390:                                                                                                  #  ERROR DISPLAYED       DISPLAYED
000391:
000392: 37,2001     5023               NEEDLBIT           =        BIT9
000393:
000394:                                                                                                  #  BIT 8 FLAG 0
000395: 37,2001                        IMUSE              =        007D                                  #  IMU IN USE            IMU NOT IN USE
000396:
000397:
000398: 37,2001     5024               IMUSEBIT           =        BIT8
000399:
000400:                                                                                                  #  BIT 7 FLAG 0
000401: 37,2001                        RNDVZFLG           =        008D                                  #  P20 RUNNING           P20 NOT RUNNING
000402:
000403: 37,2001     5025               RNDVZBIT           =        BIT7
000404:
000405:                                                                                                  #  BIT 6 FLAG 0
000406: 37,2001                        R53FLAG            =        009D                                  #  V51 INITIATED         V51 NOT INITIATED
000407:
000408: 37,2001     5026               R53FLBIT           =        BIT6
000409:
000410:                                                                                                  #  BIT 5 FLAG 0
000411: 37,2001                        F2RTE              =        010D                                  #  IN TIME CRITICAL      NOT IN TIME CRITICAL
000412:                                                                                                  #  MODE                  MODE
000413:
000414: 37,2001     5027               F2RTEBIT           =        BIT5
000415:
000416:                                                                                                  #  BIT 4 FLAG 0
000417: 37,2001                        TRUNFLAG           =        011D                                  #  DRIVING OF TRUNNION   DRIVING OF TRUNNION
000418:                                                                                                  #  ALLOWED               NOT ALLOWED
000419:
000420: 37,2001     5030               TRUNBIT            =        BIT4
000421:
000422:                                                                                                  #  BIT 3 FLAG 0
000423: 37,2001                        FREEFLAG           =        012D                                  #  (TEMPORARY FLAG USED IN MANY ROUTINES)
000424:
000425: 37,2001     5031               FREEFBIT           =        BIT3
000426:
000427:                                                                                                  #  BIT 2 FLAG 0
000428: 37,2001                        AMOONFLG           =        13D                                   #  STATE VECTOR IN       STATE VECTOR IN
000429: 37,2001     5032               AMOONBIT           =        BIT2                                  #  LUNAR SPHERE AT       EARTH SPHERE AT
000430:                                                                                                  #  MIDTOAVE              MIDTOAVE
000431:
000432:                                                                                                  #  BIT 1 FLAG 0
000433: 37,2001                        KFLAG              =        014D                                  #  SEARCH SECTOR LESS    SEARCH SECTOR MORE
000434:                                                                                                  #  THAN 180 DEGREES      THAN 180 DEGREES
000435:
000436: 37,2001     5033               KBIT               =        BIT1
000437:
000438: 37,2001     0075               FLAGWRD1           =        STATE      +1                         #  (015-029)
000439:                                                                                                  #  (SET)                 (RESET)
000440:
000441:                                                                                                  #  BIT 15 FLAG 1
000442: 37,2001                        NJETSFLG           =        015D                                  #  TWO JET RCS BURN      FOUR JET RCS BURN
000443:
000444: 37,2001     5015               NJETSBIT           =        BIT15
000445:
000446:
000447:                                                                                                  #  BIT 14 FLAG 1
000448: 37,2001                        STIKFLAG           =        016D                                  #  RHC CONTROL           CMC CONTROL
000449: 37,2001     5016               STIKBIT            =        BIT14
000450:
000451:                                                                                                  #  BIT 13 FLAG 1
000452: 37,2001                        ERADFLAG           =        017D                                  #  EARTH, COMPUTE        EARTH, USE FIXED
000453:                                                                                                  #    FISCHER ELLIPSOID     RADIUS
000454:                                                                                                  #    RADIUS
000455:                                                                                                  #  MOON, USE FIXED       MOON, USE RLS FOR
000456:                                                                                                  #    RADIUS                LUNAR RADIUS
000457:
000458: 37,2001     5017               ERADFBIT           =        BIT13
000459:
000460:                                                                                                  #  BIT 12 FLAG 1
000461: 37,2001                        NODOP01            =        018D                                  #  P01 NOT ALLOWED       P01 ALLOWED
000462: 37,2001     5020               NOP01BIT           =        BIT12
000463:
000464:                                                                                                  #  BIT 11 FLAG 1
000465: 37,2001                        ENG2FLAG           =        019D                                  #  RCS BURN              SPS BURN
000466:
000467: 37,2001     5021               ENG2BIT            =        BIT11
000468:
000469:                                                                                                  #  BIT 10 FLAG 1
000470: 37,2001                        TARG1FLG           =        020D                                  #  SIGHTING LEM          NOT SIGHTING LEM
000471:
000472: 37,2001     5022               TARG1BIT           =        BIT10
000473:
000474:                                                                                                  #  BIT 9 FLAG 1
000475: 37,2001                        TARG2FLG           =        021D                                  #  SIGHTING LANDMARK     SIGHTING STAR
000476:
000477: 37,2001     5023               TARG2BIT           =        BIT9
000478:
000479:                                                                                                  #  BIT 9 FLAG 1
000480: 37,2001                        R23FLG             =        021D                                  #  R23 MARKING           R21 MARKING
000481:
000482: 37,2001     5023               R23BIT             =        BIT9
000483:
000484:                                                                                                  #  BIT 8 FLAG 1
000485: 37,2001                        VEHUPFLG           =        022D                                  #  CSM STATE VECTOR      LEM STATE VECTOR
000486:                                                                                                  #  BEING UPDATED         BEING UPDATED
000487:
000488: 37,2001     5024               VEHUPBIT           =        BIT8
000489:
000490:                                                                                                  #  BIT 7 FLAG 1
000491: 37,2001                        UPDATFLG           =        023D                                  #  UPDATING BY MARKS     UPDATING BY MARKS
000492:                                                                                                  #  ALLOWED               NOT ALLOWED
000493:
000494: 37,2001     5025               UPDATBIT           =        BIT7
000495:
000496:                                                                                                  #  BIT 6 FLAG 1
000497: 37,2001                        IDLEFAIL           =        024D                                  #  INHIBIT R41           ENABLE R41 (ENGFAIL)
000498:
000499: 37,2001     5026               IDLEBIT            =        BIT6
000500:
000501:                                                                                                  #  BIT 5 FLAG 1
000502: 37,2001                        TRACKFLG           =        025D                                  #  TRACKING ALLOWED      TRACKING NOT ALLOWED
000503:
000504: 37,2001     5027               TRACKBIT           =        BIT5
000505:
000506:                                                                                                  #  BIT 4 FLAG 1
000507: 37,2001                        TRM03FLG           =        026D                                  #  REQUEST TO            NO REQUEST TO
000508:                                                                                                  #  TERMINATE P03 HAS     TERMINATE P03 HAS
000509:                                                                                                  #  BEEN ENTERED          BEEN ENTERED
000510:
000511: 37,2001     5030               TRM03BIT           =        BIT4
000512:
000513:                                                                                                  #  BIT 3 FLAG 1
000514: 37,2001                        SLOPESW            =        027D                                  #  ITERATE WITH BIAS     ITERATE WITH REGULA
000515:                                                                                                  #  METHOD IN ITERATOR    FALSI METHOD IN
000516:                                                                                                  #                        ITERATOR
000517:
000518: 37,2001     5031               SLOPEBIT           =        BIT3
000519:
000520:                                                                                                  #  BIT 2 FLAG 1
000521: 37,2001                        GUESSW             =        028D                                  #  NO STARTING VALUE     STARTING VALUE FOR
000522:                                                                                                  #  FOR ITERATION         ITERATION EXISTS
000523:
000524: 37,2001     5032               GUESSBIT           =        BIT2
000525:
000526:                                                                                                  #  BIT 1 FLAG 1
000527: 37,2001                        AVEGFLAG           =        029D                                  #  AVERAGEG (SERVICER)   AVERAGEG (SERVICER)
000528:                                                                                                  #  TO CONTINUE           TO CEASE
000529:
000530: 37,2001     5033               AVEGBIT            =        BIT1
000531:
000532: 37,2001     0076               FLAGWRD2           =        STATE      +2                         #  (030-044)
000533:
000534:                                                                                                  #  (SET)                 (RESET)
000535:
000536:                                                                                                  #  BIT 15 FLAG 2
000537: 37,2001                        DRIFTFLG           =        030D                                  #  T3RUPT CALLS GYRO     T3RUPT DOES NO GYRO
000538:                                                                                                  #  COMPENSATION          COMPENSATION
000539:
000540: 37,2001     5015               DRFTBIT            =        BIT15
000541:
000542:
000543:                                                                                                  #  BIT 14 FLAG 2
000544: 37,2001                        R21MARK            =        031D                                  #  OPTION ONE FOR        OPTION TWO FOR
000545:                                                                                                  #  MARKRUPT              MARKRUPT
000546:
000547: 37,2001     5016               R21BIT             =        BIT14
000548:
000549:                                                                                                  #  BIT 13 FLAG 2
000550: 37,2001                        22DSPFLG           =        032D                                  #  DISPLAY DR,DV         DO NOT DISPLAY DR,DV
000551:
000552: 37,2001     5017               22DSPBIT           =        BIT13
000553:
000554:                                                                                                  #  BIT 12 FLAG 2
000555: 37,2001                        P21FLAG            =        033D                                  #  SUCCEEDING PASS       1ST PASS THRU P21,
000556:                                                                                                  #  THRU P21, USE BASE    CALCULATE BASE
000557: 37,2001     5020               P21BIT             =        BIT12                                 #  VECTOR FOR CALC.      VECTOR
000558:
000559: 37,2001                        STEERSW            =        034D                                  #  STEERING TO BE DONE   STEERING OMITTED
000560:
000561: 37,2001     5021               STEERBIT           =        BIT11
000562:
000563:                                                                                                  #  BIT 10 FLAG 2
000564: 37,2001                        SKIPVHF            =        035D                                  #  DISREGARD RADAR       RADAR READ TO
000565:                                                                                                  #  READ BECAUSE OF       PROCEED NORMALLY
000566: 37,2001     5022               SKIPVBIT           =        BIT10                                 #  SFTWRE OR HDWRE
000567:                                                                                                  #  RESTART
000568:
000569:                                                                                                  #  BIT 9 FLAG 2
000570: 37,2001                        IMPULSW            =        036D                                  #  MINIMUM IMPULSE       STEERING BURN (NO
000571:                                                                                                  #  BURN (CUTOFF TIME     CUTOFF TIME YET
000572:                                                                                                  #  SPECIFIED)            AVAILABLE)
000573:
000574: 37,2001     5023               IMPULBIT           =        BIT9
000575:
000576:                                                                                                  #  BIT 8 FLAG 2
000577: 37,2001                        XDELVFLG           =        037D                                  #  EXTERNAL DELTAV VG    LAMBERT (AIMPOINT)
000578:                                                                                                  #  COMPUTATION           VG COMPUTATION
000579:
000580: 37,2001     5024               XDELVBIT           =        BIT8
000581:
000582:                                                                                                  #  BIT 7 FLAG 2
000583: 37,2001                        ETPIFLAG           =        038D                                  #  ELEVATION ANGLE       TPI TIME SUPPLIED
000584:                                                                                                  #  SUPPLIED FOR P34,74   FOR P34,74
000585:
000586:                                                                                                  #  BIT 7 FLAG 2
000587: 37,2001  0000046               FIRSTFLG           =        ETPIFLAG                              #  FIRST PASS            SUCCEEDING PASS THRU
000588:                                                                                                  #  THRU S40.9            S40.9
000589:
000590: 37,2001     5025               FIRSTBIT           =        BIT7
000591:
000592:                                                                                                  #  BIT 7 FLAG 2
000593: 37,2001  0000046               OPTNSW             =        ETPIFLAG                              #  SOI PHASE P38/P78     SOR PHASE OF P38/P78
000594:
000595: 37,2001     5026               FINALBIT           =        BIT6
000596:
000597:                                                                                                  #  BIT 6 FLAG 2
000598: 37,2001                        FINALFLG           =        039D                                  #  LSAT PASS THROUGH     INTERIM PASS THROUGH
000599:                                                                                                  #  RENDEZVOUS PROGRAM    RENDEZVOUS PROGRAM
000600:                                                                                                  #  COMPUTATIONS          COMPUTATIONS
000601:
000602: 37,2001     5027               AVFLBIT            =        BIT5
000603:
000604:                                                                                                  #  BIT 5 FLAG 2
000605: 37,2001                        AVFLAG             =        040D                                  #  LEM IS ACTIVE         CSM IS ACTIVE
000606:                                                                                                  #  VEHICLE               VEHICLE
000607:
000608:                                                                                                  #  BIT 4 FLAG 2
000609: 37,2001                        PFRATFLG           =        041D                                  #  PREFERRED ATTITUDE    PREFERRED ATTITUDE
000610:                                                                                                  #  COMPUTED              NOT COMPUTED
000611:
000612: 37,2001     5030               PFRATBIT           =        BIT4
000613:
000614:                                                                                                  #  BIT 3 FLAG 2
000615:                                                                                                  #                =       042D
000616:
000617:                                                                                                  #  BIT 2 FLAG 2
000618: 37,2001                        CALCMAN2           =        043D                                  #  PERFORM MANEUVER      BYPASS STARTING
000619:                                                                                                  #  STARTING PROCEDURE    PROCEDURE
000620:
000621: 37,2001     5032               CALC2BIT           =        BIT2
000622:
000623:                                                                                                  #  BIT 1 FLAG 2
000624: 37,2001                        NODOFLAG           =        044D                                  #  V37 NOT PERMITTED     V37 PERMITTED
000625:
000626: 37,2001     5033               NODOBIT            =        BIT1
000627:
000628: 37,2001     0077               FLAGWRD3           =        STATE      +3                         #  (045-059)
000629:                                                                                                  #  (SET)                 (RESET)
000630:
000631:                                                                                                  #  BIT 15 FLAG 3
000632: 37,2001                        V50N18FL           =        045D                                  #  ENABLE R60 ATT        INHIBIT R60 ATTITUDE
000633: 37,2001     5015               V50N18BT           =        BIT15                                 #   MANEUVER              MANEUVER
000634:
000635:                                                                                                  #  BIT 14 FLAG 3
000636: 37,2001                        GLOKFAIL           =        046D                                  #  GIMBAL LOCK HAS       NOT IN GIMBAL LOCK
000637:                                                                                                  #  OCCURED
000638:
000639: 37,2001     5016               GLOKFBIT           =        BIT14
000640:
000641:
000642:                                                                                                  #  BIT 13 FLAG 3
000643: 37,2001                        REFSMFLG           =        047D                                  #  REFSMMAT GOOD         REFSMMAT NO GOOD
000644:
000645: 37,2001     5017               REFSMBIT           =        BIT13
000646:
000647:                                                                                                  #  BIT 12 FLAG 3
000648: 37,2001                        LUNAFLAG           =        048D                                  #  LUNAR LAT-LONG        EARTH LAT-LONG
000649:
000650: 37,2001     5020               LUNABIT            =        BIT12
000651:
000652:                                                                                                  #  BIT 11 FLAG 3
000653: 37,2001                        P22MKFLG           =        049D                                  #  P22 DOWNLINKED MARK   P22 DOWLINK MARK
000654:                                                                                                  #  DATA WAS JUST TAKEN   DATA NOT JUST TAKEN
000655:
000656: 37,2001     5021               P22MKBIT           =        BIT11
000657:
000658:                                                                                                  #  BIT 10 FLAG 3
000659: 37,2001                        VFLAG              =        050D                                  #  LESS THAN TWO STARS   TWO STARS IN FIELD
000660:                                                                                                  #  IN FIELD OF VIEW      OF VIEW
000661:
000662: 37,2001     5022               VFLAGBIT           =        BIT10
000663:
000664:                                                                                                  #  BIT 9 FLAG 3
000665:                                                                                                  #                =       051D
000666:
000667:                                                                                                  #  BIT 8 FLAG 3
000668: 37,2001                        PRECIFLG           =        052D                                  #  CSMPREC, LEMPREC      INTGRV CALLED
000669:                                                                                                  #  OR INTEGRVS CALLED
000670:
000671: 37,2001     5024               PRECIBIT           =        BIT8
000672:
000673:                                                                                                  #  BIT 7 FLAG 3
000674: 37,2001                        CULTFLAG           =        053D                                  #  STAR OCCULTED         STAR NOT OCCULTED
000675:
000676: 37,2001     5025               CULTBIT            =        BIT7
000677:
000678:                                                                                                  #  BIT 6 FLAG 3
000679: 37,2001                        ORBWFLAG           =        054D                                  #  W MATRIX VALID FOR    W MATRIX INVALID FOR
000680:                                                                                                  #  ORBITAL N1VIGATION    ORBITAL NAVIGATION
000681:
000682: 37,2001     5026               ORBWFBIT           =        BIT6
000683:
000684:                                                                                                  #  BIT 5 FLAG 3
000685: 37,2001                        STATEFLG           =        055D                                  #  PERMANENT STATE       PERMANENT STATE
000686:                                                                                                  #  VECTOR UPDATED        VECTOR NOT UPDATED
000687:
000688: 37,2001     5027               STATEBIT           =        BIT5
000689:
000690:                                                                                                  #  BIT 4 FLAG 3
000691: 37,2001                        INTYPFLG           =        056D                                  #  CONIC INTEGRATION     ENCKE INTEGRATION
000692: 37,2001     5030               INTYBIT            =        BIT4
000693:
000694:                                                                                                  #  BIT 3 FLAG 3
000695: 37,2001                        VINTFLAG           =        057D                                  #  CSM STATE VECTOR      LEM STATE VECTOR
000696:                                                                                                  #  BEING INTEGRATED      BEING INTEGRATED
000697:
000698: 37,2001     5031               VINTFBIT           =        BIT3
000699:
000700:                                                                                                  #  BIT 2 FLAG 3
000701: 37,2001                        D6OR9FLG           =        058D                                  #  DIMENSION OF W IS 9   DIMENSION OF W IS 6
000702:                                                                                                  #  FOR INTEGRATION       FOR INTEGRATION
000703:
000704: 37,2001     5032               D6OR9BIT           =        BIT2
000705:
000706:                                                                                                  #  BIT 1 FLAG 3
000707: 37,2001                        DIM0FLAG           =        059D                                  #  W MATRIX IS TO BE     W MATRIX IS NOT TO
000708:                                                                                                  #  USED                  BE USED
000709:
000710: 37,2001     0100               FLAGWRD4           =        STATE      +4                         #  (060-074)
000711:                                                                                                  #  (SET)                 (RESET)
000712:
000713: 37,2001     5033               DIM0BIT            =        BIT1
000714:
000715:                                                                                                  #  BIT 15 FLAG 4
000716: 37,2001                        MRKIDFLG           =        060D                                  #  MARK DISPLAY IN       NO MARK DISPLAY IN
000717:                                                                                                  #  ENDIDLE               ENDIDLE
000718:
000719: 37,2001     5015               MRKIDBIT           =        BIT15
000720:
000721:                                                                                                  #  BIT 14 FLAG 4
000722: 37,2001                        PRIODFLG           =        061D                                  #  PRIORITY DISPLAY IN   NO PRIORITY DISPLAY
000723:                                                                                                  #  ENDIDLE               IN ENDIDLE
000724:
000725: 37,2001     5016               PRIODBIT           =        BIT14
000726:
000727:                                                                                                  #  BIT 13 FLAG 4
000728: 37,2001                        NRMIDFLG           =        062D                                  #  NORMAL DISPLAY IN     NO NORMAL DISPLAY
000729:                                                                                                  #  ENDIDLE               IN ENDIDLE
000730:
000731: 37,2001     5017               NRMIDBIT           =        BIT13
000732:
000733:                                                                                                  #  BIT 12 FLAG 4
000734: 37,2001                        PDSPFLAG           =        063D                                  #  CAN'T INTERRUPT       SEE M. HAMILTON
000735:                                                                                                  #  PRIORITY DISPLAY
000736:
000737: 37,2001     5020               PDSPFBIT           =        BIT12
000738:
000739:                                                                                                  #  BIT 11 FLAG 4
000740: 37,2001                        MWAITFLG           =        064D                                  #  HIGHER PRIORITY       NO HIGHER PRIORITY
000741:                                                                                                  #  DISPLAY OPERATING     DISPLAY OPERATING
000742:                                                                                                  #  WHEN MARK DISPLAY     WHEN MARK DISPLAY
000743:                                                                                                  #  INITIATED             INITIATED
000744: 37,2001     5021               MWAITBIT           =        BIT11
000745:
000746:                                                                                                  #  BIT 10 FLAG 4
000747: 37,2001                        NWAITFLG           =        065D                                  #  HIGHER PRIORITY       NO HIGHER PRIORITY
000748:                                                                                                  #  DISPLAY OPERATING     DISPLAY OPERATING
000749:                                                                                                  #  WHEN NORMAL           WHEN NORMAL DISPLAY
000750:                                                                                                  #  DISPLAY INITIATED     INITIATED
000751:
000752: 37,2001     5022               NWAITBIT           =        BIT10
000753:
000754:                                                                                                  #  BIT 9 FLAG 4
000755: 37,2001                        MRKNVFLG           =        066D                                  #  ASTRONAUT USING       ASTRONAUT NOT USING
000756:                                                                                                  #  KEYBOARD WHEN MARK    KEYBOARD WHEN MARK
000757:                                                                                                  #  DISPLAY INITIATED     DISPLAY INITIATED
000758:
000759: 37,2001     5023               MRKNVBIT           =        BIT9
000760:
000761:                                                                                                  #  BIT 8 FLAG 4
000762: 37,2001                        NRMNVFLG           =        067D                                  #  ASTRONAUT USING       ASTRONAUT NOT USING
000763:                                                                                                  #  KEYBOARD WHEN         KEYBOARD WHEN
000764:                                                                                                  #  NORMAL DISPLAY        NORMAL DISPLAY
000765:                                                                                                  #  INITIATED             INITIATED
000766:
000767: 37,2001     5024               NRMNVBIT           =        BIT8
000768:
000769:                                                                                                  #  BIT 7 FLAG 4
000770: 37,2001                        PRONVFLG           =        068D                                  #  ASTRONAUT USING       ASTRONAUT NOT USING
000771:                                                                                                  #  KEYBOARD WHEN         KEYBOARD WHEN
000772:                                                                                                  #  PRIORITY DISPLAY      PRIORITY DISPLAY
000773:                                                                                                  #  INITIATED             INITIATED
000774:
000775: 37,2001     5025               PRONVBIT           =        BIT7
000776:
000777:                                                                                                  #  BIT 6 FLAG 4
000778: 37,2001                        PINBRFLG           =        069D                                  #  ASTRONAUT HAS         ASTRONAUT HAS NOT
000779:                                                                                                  #  INTERFERED WITH       INTERFERED WITH
000780:                                                                                                  #  EXISTING DISPLAY      EXISTING DISPLAY
000781:
000782: 37,2001     5026               PINBRBIT           =        BIT6
000783:
000784:                                                                                                  #  BIT 5 FLAG 4
000785: 37,2001                        MRUPTFLG           =        070D                                  #  MARK DISPLAY          MARK DISPLAY NOT
000786:                                                                                                  #  INTERRUPTED BY        INTERRUPTED BY
000787:                                                                                                  #  PRIORITY DISPLAY      PRIORITY DISPLAY
000788:
000789: 37,2001     5027               MRUPTBIT           =        BIT5
000790:
000791:                                                                                                  #  BIT 4 FLAG 4
000792: 37,2001                        NRUPTFLG           =        071D                                  #  NORMAL DISPLAY        NORMAL DISPLAY NOT
000793:                                                                                                  #  INTERRUPTED BY        INTERRUPTED BY
000794:                                                                                                  #  PRIORITY OR MARK      PRIORITY OR MARK
000795:                                                                                                  #  DISPLAY               DISPLAY
000796:
000797: 37,2001     5030               NRUPTBIT           =        BIT4
000798:
000799:                                                                                                  #  BIT 3 FLAG 4
000800: 37,2001                        MKOVFLAG           =        072D                                  #  MARK DISPLAY OVER     NO MARK DISPLAY OVER
000801:                                                                                                  #  NORMAL                NORMAL
000802:
000803: 37,2001     5031               MKOVBIT            =        BIT3
000804:
000805:                                                                                                  #  BIT 2 FLAG 4                          DISPLAY BIT
000806:                                                                                                  #                =       073D            CLEARED AT INTERVALS
000807:
000808:                                                                                                  #  BIT 1 FLAG 4  MARK DISPLAY NOT TO     NO SPECIAL MARK
000809: 37,2001                        XDSPFLAG           =        074D                                  #                BE INTERRUPTED          INFORMATION.
000810:
000811:
000812: 37,2001     5033               XDSPBIT            =        BIT1
000813:
000814: 37,2001     0101               FLAGWRD5           =        STATE      +5                         #  (075-099)
000815:                                                                                                  #  (SET)                 (RESET)
000816:
000817:                                                                                                  #  BIT 15 FLAG 5
000818: 37,2001                        DSKYFLAG           =        075D                                  #  DISPLAYS SENT TO      NO DISPLAYS TO DSKY
000819:                                                                                                  #  DSKY
000820: 37,2001     5015               DSKYBIT            =        BIT15
000821:
000822:                                                                                                  #  BIT 14 FLAG 5
000823: 37,2001                        RETROFLG           =        076D                                  #  P37 PREMANEUVER       ORBIT NOT RETROGRADE
000824: 37,2001     5016               RETROBIT           =        BIT14                                 #  ORBIT IS RETROGRADE
000825:
000826:                                                                                                  #  BIT 13 FLAG 5
000827: 37,2001                        SLOWFLG            =        077D                                  #  P37 TRANSEARTH        SLOW DOWN IS NOT
000828: 37,2001     5017               SLOWBIT            =        BIT13                                 #  COAST SLOW DOWN       DESIRED
000829:                                                                                                  #  IS DESIRED
000830:
000831:                                                                                                  #  BIT 12 FLAG 5
000832: 37,2001                        V59FLAG            =        078D                                  #  CALIBRATING FOR       NORMAL MARKING FOR
000833:                                                                                                  #  P23                   P23
000834:
000835: 37,2001     5020               V59FLBIT           =        BIT12
000836:
000837:                                                                                                  #  BIT 11 FLAG 5
000838: 37,2001                        INCORFLG           =        079D                                  #  FIRST INCORPORATION   SECOND INCORPORATION
000839:
000840: 37,2001     5021               INCORBIT           =        BIT11
000841:
000842:                                                                                                  #  BIT 10 FLAG 5
000843: 37,2001                        RNGSCFLG           =        080D                                  #  ANOTHER TAG FOR PRFTKAT
000844:
000845:                                                                                                  #  BIT 10 FLAG 5
000846: 37,2001  0000120               PRFTRKAT           =        RNGSCFLG                              #  PREF TRACK ATT        +X AXIS TRACK ATT
000847:
000848: 37,2001     5022               PRFTRBIT           =        BIT10
000849:
000850:                                                                                                  #  BIT 9 FLAG 5
000851: 37,2001                        DMENFLG            =        081D                                  #  DIMENSION OF W IS 9   DIMENSION OF W IS 6
000852:                                                                                                  #  FOR INCORPORATION     FOR INCORPORATION
000853:
000854: 37,2001     5023               DMENFBIT           =        BIT9
000855:
000856:                                                                                                  #  BIT 8 FLAG 5
000857: 37,2001                        COMPUTER           =        082D                                  #  COMPUTER IS CMC       COMPUTER IS LGC
000858:
000859: 37,2001     5024               COMPTBIT           =        BIT8
000860:
000861:                                                                                                  #  BIT 7 FLAG 5
000862: 37,2001                        ENGONFLG           =        083D                                  #  ENGINE TURNED ON      ENGINE TURNED OFF
000863:
000864: 37,2001     5025               ENGONBIT           =        BIT7
000865:
000866:                                                                                                  #  BIT 6 FLAG 5
000867: 37,2001                        3AXISFLG           =        084D                                  #  MANEUVER SPECIFIED    MANEUVER SPECIFIED
000868:                                                                                                  #  BY THREE AXES         BY ONE AXIS
000869:
000870: 37,2001     5026               3AXISBIT           =        BIT6
000871:
000872:                                                                                                  #  BIT 5 FLAG 5
000873: 37,2001                        GRRBKFLG           =        085D                                  #  BACKUP GRR RECEIVED   BACKUP GRR NOT
000874:                                                                                                  #                        RECEIVED
000875:
000876: 37,2001     5027               GRRBKBIT           =        BIT5
000877:
000878:                                                                                                  #  BIT 4 FLAG 5
000879: 37,2001                        R60FLAG            =        086D                                  #  R61 MUST USE R60      NORMAL R61
000880:
000881: 37,2001     5030               R60FLBIT           =        BIT4
000882:
000883:                                                                                                  #  BIT 3 FLAG 5
000884: 37,2001                        SOLNSW             =        087D                                  #  LAMBERT DOES NOT      LAMBERT CONVERGES OR
000885:                                                                                                  #  CONVERGE, OR TIME-    TIME-RADIUS NON
000886:                                                                                                  #  RADIUS NEARLY CIRC.   CIRCULAR.
000887: 37,2001     5031               SOLNSBIT           =        BIT3
000888:
000889:                                                                                                  #  BIT 2 FLAG 5
000890: 37,2001                        MGLVFLAG           =        088D                                  #  LOCAL VERTICAL        MIDDLE GIMBAL ANGLE
000891:                                                                                                  #  COORDINATES           COMPUTED
000892:                                                                                                  #  COMPUTED
000893:
000894: 37,2001     5032               MGLVFBIT           =        BIT2
000895:
000896:                                                                                                  #  BIT 1 FLAG 5
000897: 37,2001                        RENDWFLG           =        089D                                  #  W MATRIX VALID        W MATRIX INVALID
000898:                                                                                                  #  FOR RENDEZVOUS        FOR RENDEZVOUS
000899:                                                                                                  #  NAVIGATION            NAVIGATION
000900:
000901: 37,2001     5033               RENDWBIT           =        BIT1
000902:
000903: 37,2001     0102               FLAGWRD6           =        STATE      +6                         #  (090-104)
000904:                                                                                                  #  (SET)                 (RESET)
000905:
000906:                                                                                                  #  BIT 15 FLAG 6
000907: 37,2001                        DAPBIT1            =        090D                                  #  1 SATURN 1 TVC        0 RCS   0 NO
000908:
000909: 37,2001     5015               DAP1BIT            =        BIT15
000910:
000911:                                                                                                  #  BIT 14 FLAG 6
000912: 37,2001                        DAPBIT2            =        091D                                  #  1 A/P    0 A/P        1 A/P   0 A/P
000913:
000914: 37,2001     5016               DAP2BIT            =        BIT14
000915:
000916:                                                                                                  #  BIT 13 FLAG 6
000917: 37,2001                        STRULLSW           =        092D                                  #  DO STEERULL           DO ULAGEOFF ONLY
000918:
000919: 37,2001     5017               STRULBIT           =        BIT13
000920:
000921:                                                                                                  #  BIT 13 FLAG 6
000922: 37,2001  0000134               ENTRYDSP           =        STRULLSW                              #  DO ENTRY DISPLAY      OMIT ENTRY DISPLAY
000923:                                                                                                  #  VIA ENTRYVN.
000924:
000925: 37,2001     5017               ENDSPBIT           =        BIT13
000926:
000927:                                                                                                  #  BIT 12 FLAG 6
000928: 37,2001                        CMDAPARM           =        093D                                  #  ALOW ENTRY FIRINGS    INHIBIT ENTRY FIRING
000929:                                                                                                  #  AND CALCULATIONS      AND CONTROL FUNCTION
000930: 37,2001     5020               CMARMBIT           =        BIT12
000931:
000932:                                                                                                  #  BIT 11 FLAG 6
000933: 37,2001                        GAMDIFSW           =        094D                                  #  CALCULATE GAMDOT      GAMDOT NOT TO BE
000934:                                                                                                  #                        CALCULATED
000935:
000936: 37,2001     5021               GMDIFBIT           =        BIT11
000937:
000938:                                                                                                  #  BIT 10 FLAG 6
000939: 37,2001                        GONEPAST           =        095D                                  #  LATERAL CONTROL       LATERAL CONTROL
000940:                                                                                                  #  CALCULATIONS TO BE    CALCULATIONS TO BE
000941:                                                                                                  #  OMITTED               DONE
000942:
000943: 37,2001     5022               GONEBIT            =        BIT10
000944:
000945:                                                                                                  #  BIT 9 FLAG 6
000946: 37,2001                        RELVELSW           =        096D                                  #  TARGETING USES        TARGETING USES
000947:                                                                                                  #  EARTH-RELATIVE        INERTIAL VELOCITY
000948:                                                                                                  #  VELOCITY
000949:
000950: 37,2001     5023               RELVBIT            =        BIT9
000951:
000952:                                                                                                  #  BIT 8 FLAG 6
000953: 37,2001                        EGSW               =        097D                                  #  IN FINAL PHASE        NOT IN FINAL PHASE
000954:
000955: 37,2001     5024               EGFLGBIT           =        BIT8
000956:
000957:                                                                                                  #  BIT 8 FLAG 6
000958: 37,2001  0000141               KNOWNFLG           =        EGSW                                  #  LANDMARK KNOWN        LANDMARK UNKNOWN
000959:
000960: 37,2001     5024               KNOWNBIT           =        BIT8
000961:
000962:                                                                                                  #  BIT 8 FLAG 6
000963: 37,2001  0000141               R57FLAG            =        KNOWNFLG                              #  DO NOT DO R57         DO R57, TRUNION
000964:                                                                                                  #  TRUNION BIAS HAS      BIAS NEEDED
000965:                                                                                                  #  BEEN OBTAINED.
000966:
000967: 37,2001     5024               R57BIT             =        BIT8
000968:
000969:                                                                                                  #  BIT 7 FLAG 6
000970: 37,2001                        NOSWITCH           =        098D                                  #  LATERAL ROLL          LATERAL ROLL MANUVER
000971:                                                                                                  #  MANUVER INHIBITED     PERMITED IN ENTRY
000972:                                                                                                  #  IN ENTRY
000973:
000974: 37,2001     5025               NOSWBIT            =        BIT7
000975:
000976:                                                                                                  #  BIT 6 FLAG 6
000977: 37,2001                        HIND               =        099D                                  #  ITERATING HUNTEST     ITERATING OF HUNTEST
000978:                                                                                                  #  CALCULATIONS TO BE    CALCULATIONS TO BE
000979:                                                                                                  #  DONE AFTER RANGE      OMITTED AFTER RANGE
000980:                                                                                                  #  PREDICTION            PREDICTION
000981:
000982: 37,2001     5026               HINDBIT            =        BIT6
000983:
000984:                                                                                                  #  BIT 5 FLAG 6
000985: 37,2001                        INRLSW             =        100D                                  #  INITIAL ROLL          INITIAL ROLL
000986:                                                                                                  #  V(LV)                 V(LV)
000987:
000988: 37,2001     5027               INRLBIT            =        BIT5
000989:
000990:                                                                                                  #  ATTITUDE NOT HELD     ATTITUDE HELD
000991:
000992:                                                                                                  #  BIT 4 FLAG 6
000993: 37,2001                        LATSW              =        101D                                  #  DOWNLIFT NOT          DOWNLIFT INHIBITED
000994:                                                                                                  #  INHIBITED
000995:
000996: 37,2001     5030               LATSWBIT           =        BIT4
000997:
000998:                                                                                                  #  BIT 3 FLAG 6
000999: 37,2001                        .05GSW             =        102D                                  #  DRAG OVER .05G        DRAG LESS THAN .05G
001000:
001001: 37,2001     5031               .05GBIT            =        BIT3
001002:
001003:                                                                                                  #  BIT 3 FLAG 6
001004:                                                                                                  #                =       102D
001005:
001006:                                                                                                  #  BIT 2 FLAG 6
001007: 37,2001                        CM/DSTBY           =        103D                                  #  ENTRY DAP ACTIVATED   ENTRY DAP NOT
001008:                                                                                                  #                        ACTIVATED
001009:
001010: 37,2001     5032               CM/DSBIT           =        BIT2
001011:
001012:                                                                                                  #  BIT 1 FLAG 6
001013: 37,2001                        GYMDIFSW           =        104D                                  #  CDU DIFFERENCES AND   CDU DIFFERENCES AND
001014:                                                                                                  #  BODY RATES COMPUTED   BODY RATES NOT
001015:                                                                                                  #                        COMPUTED
001016:
001017: 37,2001     5033               GYMDIBIT           =        BIT1
001018:
001019: 37,2001     0103               FLAGWRD7           =        STATE      +7                         #  (105-119)
001020:                                                                                                  #  (SET)                 (RESET)
001021:
001022:                                                                                                  #  BIT 15 FLAG 7
001023: 37,2001                        TERMIFLG           =        105D                                  #  TERMINATE R52         DO NOT TERMINATE R52
001024:
001025: 37,2001     5015               TERMIBIT           =        BIT15
001026:
001027:                                                                                                  #  BIT 14 FLAG 7
001028: 37,2001                        ITSWICH            =        106D                                  #  ACCEPT NEXT LAMBERT   TEST LAMBERT ANSWER
001029:                                                                                                  #  TPI SEARCH SOLUTION   AGAINST LIMITS
001030:
001031: 37,2001     5016               ITSWBIT            =        BIT14
001032:
001033:                                                                                                  #  BIT 13 FLAG 7
001034: 37,2001                        IGNFLAG            =        107D                                  #  TIG HAS ARRIVED       TIG HAS NOT ARRIVED
001035:
001036: 37,2001     5017               IGNFLBIT           =        BIT13
001037:
001038:                                                                                                  #  BIT 12 FLAG 7
001039: 37,2001                        ASTNFLAG           =        108D                                  #  ASTRONAUT HAS         ASTRONAUT HAS NOT
001040:                                                                                                  #  OKAYED IGNITION       OKAYED IGNITION
001041:
001042: 37,2001     5020               ASTNBIT            =        BIT12
001043:
001044:                                                                                                  #  BIT 11 FLAG 7
001045: 37,2001                        TIMRFLAG           =        109D                                  #  CLOKTASK OPERATING    CLOKTASK INOPERATIVE
001046:
001047: 37,2001     5021               TIMRBIT            =        BIT11
001048:
001049:                                                                                                  #  BIT 10 FLAG 7
001050: 37,2001                        NORMSW             =        110D                                  #  UNIT NORMAL INPUT     LAMBERT COMPUTE ITS
001051:                                                                                                  #  TO LAMBERT.           OWN UNIT NORMAL.
001052:
001053: 37,2001     5022               NDRMSBIT           =        BIT10
001054:
001055:                                                                                                  #  BIT 9 FLAG 7
001056: 37,2001                        RVSW               =        111D                                  #  DO NOT COMPUTE FINAL  COMPUTE FINAL STATE
001057:                                                                                                  #  STATE VECTOR IN       VECTOR IN TIME-THETA
001058:                                                                                                  #  TIME-THETA.
001059:
001060: 37,2001     5023               RVSWBIT            =        BIT9
001061:
001062:                                                                                                  #  BIT 8 FLAG 7
001063: 37,2001                        GONEBY             =        112D                                  #  PASSED TARGET         APPROACHING TARGET
001064:
001065: 37,2001     5024               G0NBYBIT           =        BIT8
001066:
001067:                                                                                                  #  BIT 7 FLAG 7
001068:                                                                                                  #                =       113D
001069:                                                                                                  #                =       BIT7
001070:
001071:                                                                                                  #  BIT 6 FLAG 7
001072: 37,2001                        V37FLAG            =        114D                                  #  AVERAGEG (SERVICER)   AVERAGEG (SERVICER)
001073:                                                                                                  #  RUNNING               OFF
001074:
001075: 37,2001     5026               V37FLBIT           =        BIT6
001076:
001077:                                                                                                  #  BIT 5 FLAG 7
001078:                                                                                                  #                =       115D
001079:                                                                                                  #                =       BIT5
001080:
001081:                                                                                                  #  BIT 4 FLAG 7
001082: 37,2001                        UPLOCKFL           =        116D                                  #  K-KBAR-K FAIL         NO K-KBAR-K FAIL
001083:
001084: 37,2001     5030               UPLOCBIT           =        BIT4
001085:
001086:                                                                                                  #  BIT 3 FLAG 7
001087: 37,2001                        VERIFLAG           =        117D                                  #  CHANGED WHEN V33E OCCURS AT END OF P27
001088:
001089: 37,2001     5031               VERIFBIT           =        BIT3
001090:
001091:                                                                                                  #  BIT 2 FLAG 7
001092: 37,2001                        ATTCHFLG           =        118D                                  #  LM,CM ATTACHED        LM,CM NOT ATTACHED
001093:
001094: 37,2001     5032               ATTCHBIT           =        BIT2
001095:
001096:                                                                                                  #  BIT 1 FLAG 7
001097: 37,2001                        TFFSW              =        119D                                  #  CALCULATE TPERIGEE    CALCULATE TFF
001098:
001099: 37,2001     5033               TFFSWBIT           =        BIT1
001100:
001101: 37,2001     0104               FLAGWRD8           =        STATE      +8D                        #  (120-134)
001102:                                                                                                  #  (SET)                 (RESET)
001103:
001104:                                                                                                  #  BIT 15 FLAG 8
001105: 37,2001                        RPQFLAG            =        120D                                  #  RPQ NOT COMPUTED      RPQ COMPUTED
001106:
001107: 37,2001     5015               RPQFLBIT           =        BIT15
001108:
001109:                                                                                                  #  BIT 14 FLAG 8
001110:                                                                                                  #                =       121D
001111:
001112:                                                                                                  #  BIT 13 FLAG 8
001113: 37,2001                        NEWIFLG            =        122D                                  #  FIRST PASS THROUGH    SUCCEEDING ITERATION
001114:                                                                                                  #  INTEGRATION           OF INTEGRATION
001115:
001116: 37,2001     5017               NEWIBIT            =        BIT13
001117:
001118:                                                                                                  #  BIT 12 FLAG 8
001119: 37,2001                        CMOONFLG           =        123D                                  #  PERMANENT CSM STATE   PERMANENT CSM STATE
001120:                                                                                                  #  IN LUNAR SPHERE       IN EARTH SPHERE
001121:
001122: 37,2001     5020               CMOONBIT           =        BIT12
001123:
001124:                                                                                                  #  BIT 11 FLAG 8
001125: 37,2001                        LMOONFLG           =        124D                                  #  PERMANENT LM STATE    PERMANENT LM STATE
001126:                                                                                                  #  IN LUNAR SPHERE       IN EARTH SHPERE
001127:
001128: 37,2001     5021               LMOONBIT           =        BIT11
001129:
001130:
001131:                                                                                                  #  BIT 10 FLAG 8
001132: 37,2001                        ADVTRK             =        125D                                  #  ADVANCE GROUND TRACK  NOT ADVANCED
001133:                                                                                                  #  SIGHTING WANTED       GROUND TRACK
001134:
001135: 37,2001     5022               ADVTKBIT           =        BIT10
001136:
001137:                                                                                                  #  BIT 9 FLAG 8
001138: 37,2001                        P39/79SW           =        126D                                  #  P39/79 OPERATING      P38/78 OPERATING
001139:
001140: 37,2001     5023               P39SWBIT           =        BIT9
001141:
001142:                                                                                                  #  BIT 8 FLAG 8
001143: 37,2001                        SURFFLAG           =        127D                                  #  LM ON LUNAR SURFACE   LM NOT ON LUNAR
001144:                                                                                                  #                        SURFACE
001145:
001146: 37,2001     5024               SURFFBIT           =        BIT8
001147:
001148:                                                                                                  #  BIT 7 FLAG 8
001149: 37,2001                        INFINFLG           =        128D                                  #  NO CONIC SOLUTION     CONIC SOLUTION
001150:                                                                                                  #  (CLOSURE THROUGH      EXISTS.
001151:                                                                                                  #  INFINITY REQUIRED).
001152:
001153: 37,2001     5025               INFINBIT           =        BIT7
001154:
001155:                                                                                                  #  BIT 6 FLAG 8
001156: 37,2001                        ORDERSW            =        129D                                  #  ITERATOR USES 2ND     ITERATOR USES 1ST
001157:                                                                                                  #  ORDER MINIMUM MODE.   ORDER STANDARD MODE.
001158:
001159: 37,2001     5026               ORDERBIT           =        BIT6
001160:
001161:                                                                                                  #  BIT 5 FLAG 8
001162: 37,2001                        APSESW             =        130D                                  #  RDESIRED OUTSIDE      RDESIRED INSIDE
001163:                                                                                                  #  PERICENTER-APOCENTER  PERICENTER-APOCENTE
001164:                                                                                                  #  RANGE IN TIME-RAD     RANGE IN TIME-RADIUS
001165:
001166: 37,2001     5027               APSESBIT           =        BIT5
001167:
001168:                                                                                                  #  BIT 4 FLAG 8
001169: 37,2001                        COGAFLAG           =        131D                                  #  NO CONIC SOLUTION     CONIC SOLUTION
001170:                                                                                                  #  TOO CLOSE TO          EXISTS (COGA DOES
001171:                                                                                                  #  RECTILINEAR (COGA     NOT OVERFLOW).
001172:                                                                                                  #  OVERFLOWS).
001173: 37,2001     5030               COGAFBIT           =        BIT4
001174:
001175:                                                                                                  #  BIT 3 FLAG 8
001176: 37,2001                        V96ONFLG           =        132D                                  #  P00 INTEGRATION HAS   P00 INTEGRATION IS
001177:                                                                                                  #  BEEN INHIBITED BY     PROCEEDING REGULARLY
001178: 37,2001     5031               V96ONBIT           =        BIT3                                  #  V96
001179:
001180:                                                                                                  #  BIT 2 FLAG 8
001181:                                                                                                  #                =       133D
001182:
001183:                                                                                                  #  BIT 1 FLAG 8
001184: 37,2001                        360SW              =        134D                                  #  TRANSFER ANGLE NEAR   TRANSFER ANGLE NOT
001185:                                                                                                  #  360 DEGREES           NEAR 360 DEGREES
001186:
001187: 37,2001     5033               360SWBIT           =        BIT1
001188:
001189: 37,2001     0105               FLAGWRD9           =        STATE      +9D                        #  (135-149)
001190:                                                                                                  #  (SET)                 (RESET)
001191:
001192:                                                                                                  #  BIT 15 FLAG 9
001193: 37,2001                        SWTOVER            =        135D                                  #  SWITCHOVER HAS        NO SWITCHOVER YET
001194:                                                                                                  #  OCCURRED
001195:
001196: 37,2001     5015               SWTOVBIT           =        BIT15
001197:
001198:                                                                                                  #  BIT 14 FLAG 9
001199:                                                                                                  #                =       136D
001200:
001201: 37,2001     5016               V67FLBIT           =        BIT14
001202:
001203:                                                                                                  #  BIT 13 FLAG 9
001204: 37,2001                        V82EMFLG           =        137D                                  #  MOON VICINITY         EARTH VICINITY
001205:
001206: 37,2001     5017               V82EMBIT           =        BIT13
001207:
001208:                                                                                                  #  BIT 12 FLAG 9
001209: 37,2001                        MAXDBFLG           =        138D                                  #  MAX DB SELECTED       MIN DB SELECTED
001210:
001211: 37,2001     5020               MAXDBBIT           =        BIT12
001212:
001213:                                                                                                  #  BIT 11 FLAG 9
001214: 37,2001                        V94FLAG            =        139D                                  #  V94 ALLOWED DURING    V94 NOT ALLOWED
001215:                                                                                                  #  P23
001216:
001217: 37,2001     5021               V94FLBIT           =        BIT11
001218:
001219:                                                                                                  #  BIT 10 FLAG 9
001220: 37,2001                        SAVECFLG           =        140D                                  #  P23 DISPLAY AND       P23 DISPLAY AND
001221:                                                                                                  #  DATA STORAGE AFTER    DATA STORAGE BEFORE
001222:                                                                                                  #  MARK IS DONE          MARK IS DONE
001223:
001224: 37,2001     5022               SAVECBIT           =        BIT10
001225:
001226:                                                                                                  #  BIT 9 FLAG 9
001227: 37,2001                        VHFRFLAG           =        141D                                  #  ALLOW R22 TO          STOP ACCEPTANCE
001228:                                                                                                  #  ACCEPT RANGE          OF RANGE DATA
001229:                                                                                                  #  DATA
001230:
001231: 37,2001     5023               VHFRBIT            =        BIT9
001232:
001233:                                                                                                  #  BIT 8 FLAG 9
001234: 37,2001                        SOURCFLG           =        142D                                  #  SOURCE OF INPUT       SOURCE OF INPUT
001235:                                                                                                  #  DATA IS FROM          DATA IS FROM
001236:                                                                                                  #  VHF RADAR             OPTICS MARK
001237:
001238: 37,2001     5024               SOURCBIT           =        BIT8
001239:
001240:                                                                                                  #  BIT 7 FLAG 9
001241: 37,2001                        R22CAFLG           =        143D                                  #  R-22 CALCULATIONS     R-22 CALCULATIONS
001242:                                                                                                  #  ARE GOING ON          ARE NOT GOING ON
001243:
001244: 37,2001     5025               R22CABIT           =        BIT7
001245:
001246:                                                                                                  #  BIT 6 FLAG 9
001247: 37,2001                        N22ORN17           =        144D                                  #  COMPUTE TOTAL         COMPUTE TOTAL
001248:                                                                                                  #  ATTITUDE ERRORS       ATTITUDE ERRORS
001249:                                                                                                  #  WRT N22 (V62)         WRT N17 (V63)
001250:
001251: 37,2001     5026               N2217BIT           =        BIT6
001252:
001253:                                                                                                  #  BIT 5 FLAG 9
001254: 37,2001                        QUITFLAG           =        145D                                  #  TERMINATE AND EXIT    CONTINUE INTEGRATION
001255: 37,2001     5027               QUITBIT            =        BIT5                                  #  FROM INTEGRATION
001256:
001257:                                                                                                  #  BIT 4 FLAG 9
001258: 37,2001                        R31FLAG            =        146D                                  #  R31 SELECTED (V83)    R34 SELECTED (V85)
001259:
001260: 37,2001     5030               R31FLBIT           =        BIT4
001261:
001262:                                                                                                  #  BIT 3 FLAG 9
001263: 37,2001                        MID1FLAG           =        147D                                  #  INTEGRATE TO TDEC     INTEGRATE TO THE
001264:                                                                                                  #                        THEN-PRESENT TIME
001265:
001266: 37,2001     5031               MID1FBIT           =        BIT3
001267:
001268:                                                                                                  #  BIT 2 FLAG 9
001269: 37,2001                        MIDAVFLG           =        148D                                  #  INTEGRATION ENTERED   INTEGRATION WAS
001270:                                                                                                  #  FROM ONE OF MIDTOAV   NOT ENTERED VIA
001271:                                                                                                  #   PORTALS              MIDTOAV
001272:
001273: 37,2001     5032               MIDAVBIT           =        BIT2
001274:
001275:                                                                                                  #  BIT 1 FLAG 9
001276: 37,2001                        AVEMIDSW           =        149D                                  #  AVETOMID CALLING      NO AVETOMID W INTEGR
001277:                                                                                                  #  FOR W.MATRIX INTEGR   ALLOW SET UP RN,VN,
001278:                                                                                                  #  DONT WRITE OVER RN,   PIPTIME
001279:                                                                                                  #  VN,PIPTIME
001280:
001281: 37,2001     5033               AVEMDBIT           =        BIT1
001282:
001283:                                                                                                  #  (SET)                 (RESET)
001284:
001285: 37,2001     0106               FLGWRD10           =        STATE      +10D                       #  (150-164)
001286:
001287: 37,2001     0106               RASFLAG            =        STATE      +10D
001288:
001289:                                                                                                  #  BIT 15 FLAG 10
001290:                                                                                                  #                =       150D
001291:
001292:                                                                                                  #  BIT 14 FLAG 10
001293: 37,2001                        INTFLAG            =        151D                                  #  INTEGRATION IN        INTEGRATION NOT IN
001294:                                                                                                  #  PROGRESS              PROGRESS
001295:
001296: 37,2001     5016               INTFLBIT           =        BIT14
001297:
001298:                                                                                                  #  BIT 13 FLAG 10
001299:                                                                                                  #                =       152D
001300:
001301:                                                                                                  #  BIT 12 FLAG 10
001302:                                                                                                  #                =       153D
001303:
001304:                                                                                                  #  BIT 11 FLAG 10
001305:                                                                                                  #                =       154D
001306:
001307:                                                                                                  #  BIT 10 FLAG 10
001308:                                                                                                  #                =       155D
001309:
001310:                                                                                                  #  BIT 9 FLAG 10
001311:                                                                                                  #                =       156D
001312:
001313:                                                                                                  #  BIT 8 FLAG 10
001314:                                                                                                  #                =       157D
001315:
001316:                                                                                                  #  BIT 7 FLAG 10
001317: 37,2001                        REINTFLG           =        158D                                  #  INTEGRATION ROUTINE   INTEGRATION ROUTINE
001318:                                                                                                  #  TO BE RESTARTED       NOT TO BE RESTARTED
001319: 37,2001     5025               REINTBIT           =        BIT7
001320:
001321:                                                                                                  #  BIT 6 FLAG 10
001322:                                                                                                  #                =       159D
001323:
001324:                                                                                                  #  BIT 5 FLAG 10
001325:                                                                                                  #                =       160D
001326:
001327:                                                                                                  #  BIT 4 FLAG 10
001328:                                                                                                  #                =       161D
001329:
001330:                                                                                                  #  BIT 3 FLAG 10
001331:                                                                                                  #                =       162D
001332:
001333:                                                                                                  #  BIT 2 FLAG 10
001334:                                                                                                  #                =       163D
001335:
001336:                                                                                                  #  BIT 1 FLAG 10
001337:                                                                                                  #                =       164D
001338:
001339: 37,2001     0107               FLGWRD11           =        STATE      +11D                       #  (165-179)
001340:                                                                                                  #  (SET)                 (RESET)
001341:
001342:                                                                                                  #  BIT 15 FLAG 11
001343: 37,2001                        S32.1F1            =        165D                                  #  DELTAN AT CSI TIME    DVT1 LESS THAN MAX
001344: 37,2001     5015               S32BIT1            =        BIT15                                 #  ONE EXCEEDS MAX
001345:
001346:                                                                                                  #  BIT 14 FLAG 11
001347: 37,2001                        S32.1F2            =        166D                                  #  FIRST PASS OF         REITERATION OF
001348: 37,2001     5016               S32BIT2            =        BIT14                                 #  NEWTON INTERATION     NEWTON
001349:
001350:                                                                                                  #  BIT 13 FLAG 11
001351: 37,2001                        S32.1F3A           =        167D                                  #  BIT 13 AND BIT 12 FUNCTION AS AN ORDERED
001352: 37,2001     5017               S32BIT3A           =        BIT13                                 #  PAIR (13,12) INDICATING THE POSSIBLE OC-
001353:                                                                                                  #  CURRENCE OF 2NEWTON ITERATIONS FOR S32.1
001354:                                                                                                  #  BIT 12 FLAG 11                        IN THE PROGRAM IN THE FOLLOWING ORDER:
001355: 37,2001                        S32.1F3B           =        168D                                  #  (0,1) (I.E. BIT 13 RESET, BIT 12 SET)
001356: 37,2001     5020               S3229T3B           =        BIT12                                 #       = FIRST NEWTON ITERATION BEING DONE
001357:                                                                                                  #  (0,0)= FIRST PASS OF 2ND NEWTON ITER.
001358:                                                                                                  #  (1,1)= 50 FPS STAGE OF 2ND NEWT ITER.
001359:                                                                                                  #  (1,0)= REMAINDER OF 2ND NEWTON ITER.
001360:
001361:                                                                                                  #  BIT 11 FLAG 11
001362:                                                                                                  #                =       169D
001363:
001364:                                                                                                  #  BIT 10 FLAG 11
001365:                                                                                                  #                =       170D
001366:
001367:                                                                                                  #  BIT 9 FLAG 11
001368:                                                                                                  #                =       171D
001369:
001370:                                                                                                  #  BIT 8 FLAG 11
001371:                                                                                                  #                =       172D
001372:
001373:                                                                                                  #  BIT 7 FLAG 11
001374:                                                                                                  #                =       173D
001375:
001376:                                                                                                  #  BIT 6 FLAG 11
001377:                                                                                                  #                =       174D
001378:
001379:                                                                                                  #  BIT 5 FLAG 11
001380:                                                                                                  #                =       175D
001381:
001382:                                                                                                  #  BIT 4 FLAG 11
001383:                                                                                                  #                =       176D
001384:
001385:                                                                                                  #  BIT 3 FLAG 11
001386:                                                                                                  #                =       177D
001387:
001388:                                                                                                  #  BIT 2 FLAG 11
001389:                                                                                                  #                =       178D
001390:
001391:                                                                                                  #  BIT 1 FLAG 11
001392:                                                                                                  #                =       179D
001393:
001394:                                                                                                  #  GENERAL ERASABLE ASSIGNMENTS.
001395:
001396:    0061                                           SETLOC   61
001397:                                                                                                  #  INTERRUPT TEMPORARY STORAGE POOL.     (11D)
001398:
001399:                                                                                                  #  (ITEMP1 THROUGH RUPTREG4)
001400:
001401:                                                                                                  #  ANY OF THESE MAY BE USED AS TEMPORARIES DURING INTERRUPT OR WITH INTERRUPT INHIBITED. THE ITEMP SERIES
001402:                                                                                                  #  IS USED DURING CALLS TO THE EXECUTIVE AND WAITLIST - THE RUPTREGS ARE NOT.
001403:
001404:    0061                        ITEMP1             ERASE
001405:    0062     0061               WAITEXIT           EQUALS   ITEMP1
001406:    0062     0061               EXECTEM1           EQUALS   ITEMP1
001407:
001408:    0062                        ITEMP2             ERASE
001409:    0063     0062               WAITBANK           EQUALS   ITEMP2
001410:    0063     0062               EXECTEM2           EQUALS   ITEMP2
001411:
001412:    0063                        ITEMP3             ERASE
001413:    0064     0063               RUPTSTOR           EQUALS   ITEMP3
001414:    0064     0063               WAITADR            EQUALS   ITEMP3
001415:    0064     0063               NEWPRIO            EQUALS   ITEMP3
001416:
001417:    0064                        ITEMP4             ERASE
001418:    0065     0064               LOCCTR             EQUALS   ITEMP4
001419:    0065     0064               WAITTEMP           EQUALS   ITEMP4
001420:
001421:    0065                        ITEMP5             ERASE
001422:    0066     0065               NEWLOC             EQUALS   ITEMP5
001423:
001424:    0066                        ITEMP6             ERASE
001425:                                                                                                  #  NEWLOC+1      EQUALS  ITEMP6          DP ADDRESS.
001426:
001427:    0067                                           SETLOC   67
001428:    0067                        NEWJOB             ERASE                                          #  MUST BE AT LOC 67 DUE TO WIRING.
001429:
001430:    0070                        RUPTREG1           ERASE
001431:    0071                        RUPTREG2           ERASE
001432:    0072                        RUPTREG3           ERASE
001433:    0073                        RUPTREG4           ERASE
001434:    0074     0073               KEYTEMP1           EQUALS   RUPTREG4
001435:    0074     0073               DSRUPTEM           EQUALS   RUPTREG4
001436:
001437:                                                                                                  #  FLAGWORD RESERVATIONS.                (12D)
001438:
001439:    0074                        STATE              ERASE    +11D
001440:
001441:                                                                                                  #  PAD LOAD FOR DAPS                     (1)
001442:
001443:    0110                        EMDOT              ERASE                                          #  I(1)PL SPS FLOW RATE, SC. AT B+3 KG/CS
001444:
001445:
001446:                                                                                                  #  OPTION FOR V82                        (1D)
001447:    0111                        OPTION82           ERASE                                          #  B(1)
001448:
001449:                                                                                                  #  UNUSED ERASABLES ********(2)
001450:    0112                        ERASFILL           ERASE    +1
001451:
001452:                                                                                                  #  EXEC TEMPORARIES WHICH MAY BE USED BETWEEN CCS NEWJOBS.
001453:                                                                                                  #  (INTB15+ THROUGH RUPTMXM)             (32D)
001454:    0114                        INTB15+            ERASE                                          #  REFLECTS 15TH BIT OF INDEXABLE ADDRESSES
001455:    0115     0114               DSEXIT             EQUALS   INTB15+                               #  RETURN FOR DSPIN
001456:    0115     0114               EXITEM             EQUALS   INTB15+                               #  RETURN FOR SCALE FACTOR ROUTINE SELECT
001457:    0115     0114               BLANKRET           EQUALS   INTB15+                               #  RETURN FOR 2BLANK
001458:
001459:    0115                        INTBIT15           ERASE                                          #  SIMILAR TO ABOVE.
001460:    0116     0115               WRDRET             EQUALS   INTBIT15                              #  RETURN FOR 5BLANK
001461:    0116     0115               WDRET              EQUALS   INTBIT15                              #  RETURN FOR DSPWD
001462:    0116     0115               DECRET             EQUALS   INTBIT15                              #  RETURN FOR PUTCOM(DEC LOAD)
001463:    0116     0115               21/22REG           EQUALS   INTBIT15                              #  TEMP FOR CHARIN
001464:
001465:                                                                                                  #  THE REGISTERS BETWEEN ADDRWD AND PRIORITY MUST STAY IN THE FOLLOWING ORDER FOR INTERPRETIVE TRACE.
001466:
001467:    0116                        ADDRWD             ERASE                                          #  12 BIT INTERPRETIVE OPERAND SUB-ADDRESS.
001468:    0117                        POLISH             ERASE                                          #  HOLDS CADR MADE FROM POLISH ADDRESS.
001469:    0120     0117               UPDATRET           EQUALS   POLISH                                #  RETURN FOR UPDATNN, UPDATVB
001470:    0120     0117               CHAR               EQUALS   POLISH                                #  TEMP FOR CHARIN
001471:    0120     0117               ERCNT              EQUALS   POLISH                                #  COUNTER FOR ERROR LIGHT RESET
001472:    0120     0117               DECOUNT            EQUALS   POLISH                                #  COUNTER FOR SCALING AND DISPLAY (DEC)
001473:
001474:    0120                        FIXLOC             ERASE                                          #  WORK AREA ADDRESS.
001475:    0121                        OVFIND             ERASE                                          #  SET NON-ZERO ON OVERFLOW.
001476:
001477:    0122                        VBUF               ERASE    +5                                    #  TEMPORARY STORAGE USED FOR VECTORS.
001478:    0130     0122               SGNON              EQUALS   VBUF                                  #  TEMP FOR +,- ON
001479:    0130     0122               NOUNTEM            EQUALS   VBUF                                  #  COUNTER FOR MIXNOUN FETCH
001480:    0130     0122               DISTEM             EQUALS   VBUF                                  #  COUNTER FOR OCTAL DISPLAY VERBS
001481:    0130     0122               DECTEM             EQUALS   VBUF                                  #  COUNTER FOR FETCH (DEC DISPLAY VERBS)
001482:
001483:    0130     0123               SGNOFF             EQUALS   VBUF       +1                         #  TEMP FOR +,- ON
001484:    0130     0123               NVTEMP             EQUALS   VBUF       +1                         #  TEMP FOR NVSUB
001485:    0130     0123               SFTEMP1            EQUALS   VBUF       +1                         #  STORAGE FOR SF CONST HI PART (=SFTEMP2-1)
001486:    0130     0123               HITEMIN            EQUALS   VBUF       +1                         #  TEMP FOR LOAD OF HRS,MIN,SEC
001487:                                                                                                  #  MUST = LOTEMIN-1.
001488:
001489:    0130     0124               CODE               EQUALS   VBUF       +2                         #  FOR DSPIN
001490:    0130     0124               SFTEMP2            EQUALS   VBUF       +2                         #  STORAGE FOR SF CONST LO PART (=SFTEMP1+1)
001491:    0130     0124               LOTEMIN            EQUALS   VBUF       +2                         #  TEMP FOR LOAD OF HRS,MIN,SEC
001492:                                                                                                  #        MUST = HITEMIN+1.
001493:    0130     0125               MIXTEMP            EQUALS   VBUF       +3                         #  FOR MIXNOUN DATA
001494:    0130     0125               SIGNRET            EQUALS   VBUF       +3                         #  RETURN FOR +,- ON
001495:
001496:                                                                                                  #  ALSO MIXTEMP+1 = VBUF+4, MIXTEMP+2 = VBUF+5.
001497:
001498:    0130                        BUF                ERASE    +2                                    #  TEMPORARY SCALAR STORAGE.
001499:    0133                        BUF2               ERASE    +1
001500:    0135     0130               INDEXLOC           EQUALS   BUF                                   #  CONTAINS ADDRESS OF SPECIFIED INDEX.
001501:    0135     0130               SWWORD             EQUALS   BUF                                   #  ADDRESS OF SWITCH WORD.
001502:    0135     0131               SWBIT              EQUALS   BUF        +1                         #  SWITCH BIT WITHIN SWITCH WORD.
001503:    0135                        MPTEMP             ERASE                                          #  TEMPORARY USED IN MULTIPLY AND SHIFT.
001504:    0136     0135               DMPNTEMP           EQUALS   MPTEMP                                #  DMPSUB TEMPORARY
001505:    0136                        DOTINC             ERASE                                          #  COMPONENT INCREMENT FOR DOT SUBROUTINE.
001506:    0137     0136               DVSIGN             EQUALS   DOTINC                                #  DETERMINES SIGN OF DDV RESULT.
001507:    0137     0136               ESCAPE             EQUALS   DOTINC                                #  USED IN ARCSIN/ARCCOS.
001508:    0137     0136               ENTRET             EQUALS   DOTINC                                #  EXIT FROM ENTER
001509:
001510:    0137                        DOTRET             ERASE                                          #  RETURN FROM DOT SUBROUTINE.
001511:    0140     0137               DVNORMCT           EQUALS   DOTRET                                #  DIVIDEND NORMALIZATION COUNT IN DDV.
001512:    0140     0137               ESCAPE2            EQUALS   DOTRET                                #  ALTERNATE ARCSIN/ARCCOS SWITCH.
001513:    0140     0137               WDCNT              EQUALS   DOTRET                                #  CHAR COUNTER FOR DSPWD
001514:    0140     0137               INREL              EQUALS   DOTRET                                #  INPUT BUFFER SELECTOR ( X,Y,Z, REG )
001515:
001516:    0140                        MATINC             ERASE                                          #  VECTOR INCREMENT IN MXV AND VXM.
001517:    0141     0140               MAXDVSW            EQUALS   MATINC                                #  +0 IF DP QUOTIENT IS NEAR ONE - ELSE -1.
001518:    0141     0140               POLYCNT            EQUALS   MATINC                                #  POLYNOMIAL LOOP COUNTER
001519:    0141     0140               DSPMMTEM           EQUALS   MATINC                                #  DSPCOUNT SAVE FOR DSPMM
001520:    0141     0140               MIXBR              EQUALS   MATINC                                #  INDICATOR FOR MIXED OR NORMAL NOUN
001521:
001522:    0141                        TEM1               ERASE                                          #  EXEC TEMP
001523:    0142     0141               POLYRET            EQUALS   TEM1
001524:    0142     0141               DSREL              EQUALS   TEM1                                  #  REL ADDRESS FOR DSPIN
001525:
001526:    0142                        TEM2               ERASE                                          #  EXEC TEMP
001527:    0143     0142               DSMAG              EQUALS   TEM2                                  #  MAGNITUDE STORE FOR DSPIN
001528:    0143     0142               IDADDTEM           EQUALS   TEM2                                  #  MIXNOUN INDIRECT ADDRESS STORAGE
001529:
001530:    0143                        TEM3               ERASE                                          #  EXEC TEMP
001531:    0144     0143               COUNT              EQUALS   TEM3                                  #  FOR DSPIN
001532:
001533:    0144                        TEM4               ERASE                                          #  EXEC TEMP
001534:    0145     0144               LSTPTR             EQUALS   TEM4                                  #  LIST POINTER FOR GRABUSY
001535:    0145     0144               RELRET             EQUALS   TEM4                                  #  RETURN FOR RELDSP
001536:    0145     0144               FREERET            EQUALS   TEM4                                  #  RETURN FOR FREEDSP
001537:    0145     0144               DSPWDRET           EQUALS   TEM4                                  #  RETURN FOR DSPSIGN
001538:    0145     0144               SEPSCRET           EQUALS   TEM4                                  #  RETURN FOR SEPSEC
001539:    0145     0144               SEPMNRET           EQUALS   TEM4                                  #  RETURN FOR SEPMIN
001540:
001541:    0145                        TEM5               ERASE                                          #  EXEC TEMP
001542:    0146     0145               NOUNADD            EQUALS   TEM5                                  #  TEMP STORAGE FOR NOUN ADDRESS
001543:
001544:    0146                        NNADTEM            ERASE                                          #  TEMP FOR NOUN ADDRESS TABLE ENTRY
001545:    0147                        NNTYPTEM           ERASE                                          #  TEMP FOR NOUN TYPE TABLE ENTRY
001546:    0150                        IDAD1TEM           ERASE                                          #  TEMP FOR INDIR ADRESS TABLE ENTRY (MIXNN)
001547:                                                                                                  #  MUST = IDAD2TEM-1, = IDAD3TEM-2.
001548:    0151                        IDAD2TEM           ERASE                                          #  TEMP FOR INDIR ADRESS TABLE ENTRY (MIXNN)
001549:                                                                                                  #  MUST = IDAD1TEM+1, = IDAD3TEM-1.
001550:    0152                        IDAD3TEM           ERASE                                          #  TEMP FOR INDIR ADRESS TABLE ENTRY (MIXNN)
001551:                                                                                                  #  MUST = IDAD1TEM+2, = IDAD2TEM+1.
001552:    0153                        RUTMXTEM           ERASE                                          #  TEMP FOR SF ROUT TABLE ENTRY (MIXNN ONLY)
001553:
001554:                                                                                                  #  AX*SR*T STORAGE.                      (6D)
001555:    0154     0142               DEXDEX             EQUALS   TEM2                                  #  B(1)TMP
001556:    0154     0143               DEX1               EQUALS   TEM3                                  #  B(1)TMP
001557:    0154     0144               DEX2               EQUALS   TEM4                                  #  B(1)TMP
001558:    0154     0145               RTNSAVER           EQUALS   TEM5                                  #  B(1)TMP
001559:    0154     0133               TERM1TMP           EQUALS   BUF2                                  #  B(2)TMP
001560:
001561:    0154     0143               DEXI               =        DEX1
001562:
001563:                                                                                                  #  DYNAMICALLY ALLOCATED CORE SETS FOR JOBS.     (84D)
001564:
001565:    0154                        MPAC               ERASE    +6                                    #  MULTI-PURPOSE ACCUMULATOR.
001566:    0163                        MODE               ERASE                                          #  +1 FOR TP, +0 FOR DP, OR -1 FOR VECTOR.
001567:    0164                        LOC                ERASE                                          #  LOCATION ASSOCIATED WITH JOB.
001568:    0165                        BANKSET            ERASE                                          #  USUALLY CONTAINS BBANK SETTING.
001569:    0166                        PUSHLOC            ERASE                                          #  WORD OF PACKED INTERPRETIVE PARAMETERS.
001570:    0167                        PRIORITY           ERASE                                          #  PRIORITY OF PRESENT JOB AND WORK AREA.
001571:
001572:    0170                                           ERASE    +71D                                  #  SEVEN SETS OF 12 REGISTERS EACH.
001573:
001574:                                                                                                  #  SPECIAL DOWNLINK BUFFER.- OVERLAYED BY P27 STORAGE-
001575:
001576:                                                                                                  #  P27 (UPDATE PROGRAM) STORAGE. -OVERLAYS SPEC DNLNK BUFF- (24D)
001577:
001578:    0300                        COMPNUMB           ERASE    +23D                                  #  B(1)TMP NUMBER OF ITEMS TO BE UPLINKED.
001579:    0330     0301               UPOLDMOD           EQUALS   COMPNUMB   +1                         #  B(1)TMP HOLDS INTERRUPTED PROGRAM NUMBER
001580:    0330     0302               UPVERB             EQUALS   UPOLDMOD   +1                         #  B(1)TMP VERB NUMBER
001581:    0330     0303               UPCOUNT            EQUALS   UPVERB     +1                         #  B(1)TMP UPBUFF INDEX
001582:    0330     0304               UPBUFF             EQUALS   UPCOUNT    +1                         #  B(20D)
001583:
001584:                                                                                                  #  MORE P27 STORAGE.                     (2D)
001585:
001586:    0330                        UPTEMP             ERASE                                          #  B(1)TMP SCRATCH
001587:    0331                        UPVERBSV           ERASE                                          #  B(1)TMP
001588:    0332     0330               INTWAK1Q           EQUALS   UPTEMP                                #  (06D)
001589:                                                                                                  #  (20 REGISTERS OF ENTRY DOWNLINK WILL GO HERE.)
001590:
001591:                                                                                                  #  THE FOLLOWING ARE INDEXED FOR TM. IN ENTRY DAP.
001592:
001593:    0332     0304               CMTMTIME           =        UPBUFF                                #  B(1) (VEHICLE BODY RATE INFO IS
001594:    0332     0305               SW/NDX             =        CMTMTIME   +1                         #  B(1)  TELEMETERED EACH 0.2 SEC. DURING
001595:    0332     0324               ENDBUF             =        CMTMTIME   +16D                       #  B(1)  ENTRY.)
001596:
001597:    0332     0325               V1                 =        ENDBUF     +1                         #  I(2) REENTRY, P64-P65
001598:    0332     0327               A0                 =        V1         +2                         #  I(2) REENTRY, P64-P65
001599:                                                                                                  #  HI-ORDER WORD ONLY ON DNLNK.
001600:
001601:                                                                                                  #  ALIGNMENT STORAGE.                    (5D)
001602:                                                                                                  #  (CANNOT SHARE WITH PRECISION INTEGRATION OR KEPLER STORAGE.)
001603:
001604:    0332     0300               QMAJ               EQUALS   COMPNUMB                              #  B(1)TMP
001605:    0332     0301               MARKINDX           EQUALS   QMAJ       +1                         #  B(1)TMP
001606:    0332     0302               BESTI              EQUALS   MARKINDX   +1                         #  I(1)TMP
001607:    0332     0303               BESTJ              EQUALS   BESTI      +1                         #  I(1)TMP
001608:    0332     0304               STARIND            EQUALS   BESTJ      +1                         #  I(1)TMP
001609:
001610:                                                                                                  #  ALIGNMENT/S40.2,3 COMMON STORAGE.     (18D)
001611:
001612:    0332     0306               XSMD               EQUALS   UPBUFF     +2                         #  I(6)TMP
001613:    0332     0314               YSMD               EQUALS   XSMD       +6                         #  I(6)TMP
001614:    0332     0322               ZSMD               EQUALS   YSMD       +6                         #  I(6)TMP
001615:
001616:    0332     0306               XSCREF             =        XSMD                                  #  SPACE CRAFT AXES IN REF COORDS.
001617:    0332     0314               YSCREF             =        YSMD
001618:    0332     0322               ZSCREF             =        ZSMD
001619:    0332                        ZPRIME             =        22D
001620:    0332                        PDA                =        22D
001621:    0332                        COSTH              =        16D
001622:    0332                        SINTH              =        18D
001623:    0332                        THETA              =        20D
001624:    0332                        STARM              =        32D
001625:
001626:                                                                                                  #  DOWNLINK STORAGE.                     (18)
001627:
001628:    0332     0332               DNLSTADR           EQUALS   DNLSTCOD                              #  CONTENTS NO LONGER AN ADDR BUT A CODE
001629:
001630:    0332                        DNLSTCOD           ERASE                                          #  B(1)PRM ID CODE OF DOWNLIST
001631:    0333                        LDATALST           ERASE                                          #  B(1)
001632:    0334                        DNTMGOTO           ERASE                                          #  B(1)
001633:    0335                        TMINDEX            ERASE                                          #  B(1)
001634:    0336     0335               DUMPLOC            EQUALS   TMINDEX                               #  CONTAINS ECADR OF AGC DP WORD BEING DUMP
001635:                                                                                                  #  ED AND COUNT OF COMPLETE DUMPS ALREADY S
001636:                                                                                                  #  ENT.
001637:    0336                        DNQ                ERASE                                          #  B(1)
001638:    0337                        DNTMBUFF           ERASE    +11D                                  #  B(12)PRM DOWNLINK SNAPSHOT BUFFER
001639:
001640:                                                                                                  #  OPTICS MARKING . UNSHARED.            (8D)
001641:
001642:    0353                        MKNDX              ERASE
001643:    0354                        MKT2T1             ERASE    +1
001644:    0356                        MKCDUY             ERASE
001645:    0357                        MKCDUS             ERASE
001646:    0360                        MKCDUZ             ERASE
001647:    0361                        MKCDUT             ERASE
001648:    0362                        MKCDUX             ERASE
001649:
001650:                                                                                                  #  FOR EXCLUSIVE USE OF SYS TEST STANDARD LEAD INS       (2)
001651:    0363                        EBUF2              ERASE    +1                                    #  B(2) UNSHARED
001652:
001653:                                                                                                  #  UNSWITCHED FOR DISPLAY INTERFACE ROUTINES.    (10D)
001654:
001655:    0365                        RESTREG            ERASE                                          #  B(1)PRM FOR DISPLAY RESTARTS
001656:    0366                        NVWORD             ERASE
001657:    0367                        MARKNV             ERASE
001658:    0370                        NVSAVE             ERASE
001659:                                                                                                  #  (RETAIN THE ORDER OF CADRFLSH TO FAILREG +2 FOR DOWNLINK PURPOSES)
001660:    0371                        CADRFLSH           ERASE                                          #  B(1)TMP
001661:    0372                        CADRMARK           ERASE                                          #  B(1)TMP
001662:    0373                        TEMPFLSH           ERASE                                          #  B(1)TMP
001663:    0374                        FAILREG            ERASE    +2                                    #  B(3)PRM 3 ALARM-ABORT USER'S 2CADR
001664:
001665:    0400                                           SETLOC   400
001666:
001667:                                                                                                  #  VAC AREAS. -BE CAREFUL OF PLACEMENT-  (220D)
001668:
001669:    0400                        VAC1USE            ERASE                                          #  B(1)PRM
001670:    0401                        VAC1               ERASE    +42D                                  #  B(43)PRM
001671:    0454                        VAC2USE            ERASE                                          #  B(1)PRM
001672:    0455                        VAC2               ERASE    +42D                                  #  B(43)PRM
001673:    0530                        VAC3USE            ERASE                                          #  B(1)PRM
001674:    0531                        VAC3               ERASE    +42D                                  #  B(43)PRM
001675:    0604                        VAC4USE            ERASE                                          #  B(1)PRM
001676:    0605                        VAC4               ERASE    +42D                                  #  B(43)PRM
001677:    0660                        VAC5USE            ERASE                                          #  B(1)PRM
001678:    0661                        VAC5               ERASE    +42D                                  #  B(43)PRM
001679:
001680:                                                                                                  #  WAITLIST REPEAT FLAG.                 (1D)
001681:    0734                        RUPTAGN            ERASE                                          #  B(1)PRM
001682:    0735     0734               KEYTEMP2           =        RUPTAGN
001683:
001684:                                                                                                  #  STARALIGN ERASABLES.                          (13D)
001685:
001686:    0735                        STARCODE           ERASE                                          #  B(1)DSP NOUN 70 FOR P22,51 AND R52,53.
001687:    0736                        STARALGN           ERASE    +11D
001688:    0752     0736               SINCDU             =        STARALGN
001689:    0752     0744               COSCDU             =        STARALGN   +6
001690:
001691:    0752     0742               SINCDUX            =        SINCDU     +4
001692:    0752     0736               SINCDUY            =        SINCDU
001693:    0752     0740               SINCDUZ            =        SINCDU     +2
001694:    0752     0750               COSCDUX            =        COSCDU     +4
001695:    0752     0744               COSCDUY            =        COSCDU
001696:    0752     0746               COSCDUZ            =        COSCDU     +2
001697:
001698:                                                                                                  #  PHASE TABLE AND RESTART COUNTERS.             (12D)
001699:
001700:    0752                        -PHASE1            ERASE                                          #  B(1)PRM
001701:    0753                        PHASE1             ERASE                                          #  B(1)PRM
001702:    0754                        -PHASE2            ERASE                                          #  B(1)PRM
001703:    0755                        PHASE2             ERASE                                          #  B(1)PRM
001704:    0756                        -PHASE3            ERASE                                          #  B(1)PRM
001705:    0757                        PHASE3             ERASE                                          #  B(1)PRM
001706:    0760                        -PHASE4            ERASE                                          #  B(1)PRM
001707:    0761                        PHASE4             ERASE                                          #  B(1)PRM
001708:    0762                        -PHASE5            ERASE                                          #  B(1)PRM
001709:    0763                        PHASE5             ERASE                                          #  B(1)PRM
001710:    0764                        -PHASE6            ERASE                                          #  B(1)PRM
001711:    0765                        PHASE6             ERASE                                          #  B(1)PRM
001712:
001713:                                                                                                  #  AX*SR*T STORAGE.                      (6D)
001714:
001715:    0766                        CDUSPOT            ERASE    +5                                    #  B(6)
001716:
001717:    0774     0766               CDUSPOTY           =        CDUSPOT
001718:    0774     0770               CDUSPOTZ           =        CDUSPOT    +2
001719:    0774     0772               CDUSPOTX           =        CDUSPOT    +4
001720:
001721:                                                                                                  #  VERB 37 STORAGE.                      (2D)
001722:
001723:    0774                        MINDEX             ERASE                                          #  B(1)TMP INDEX FOR MAJOR MODE
001724:    0775                        MMNUMBER           ERASE                                          #  B(1)TMP MAJOR MODE REQUESTED VIA V37
001725:
001726:                                                                                                  #  PINBALL INTERRUPT STORAGE.            (1D)
001727:
001728:    0776                        DSPCNT             ERASE                                          #  B(1)PRM DSPOUT COUNTER
001729:
001730:                                                                                                  #  PINBALL EXECUTIVE ACTION.             (44D)
001731:
001732:    0777                        DSPCOUNT           ERASE                                          #  DISPLAY POSITION INDICATOR
001733:    1000                        DECBRNCH           ERASE                                          #  +DEC, -DEC, OCT INDICATOR
001734:    1001                        VERBREG            ERASE                                          #  VERB CODE
001735:    1002                        NOUNREG            ERASE                                          #  NOUN CODE
001736:    1003                        XREG               ERASE                                          #  R1 INPUT BUFFER
001737:    1004                        YREG               ERASE                                          #  R2 INPUT BUFFER
001738:    1005                        ZREG               ERASE                                          #  R3 INPUT BUFFER
001739:    1006                        XREGLP             ERASE                                          #  LO PART OF XREG (FOR DEC CONV ONLY)
001740:    1007                        YREGLP             ERASE                                          #  LO PART OF YREG (FOR DEC CONV ONLY)
001741:    1010     1007               HITEMOUT           =        YREGLP                                #  TEMP FOR DISPLAY OF HRS,MIN,SEC
001742:                                                                                                  #        MUST = LOTEMOUT-1.
001743:    1010                        ZREGLP             ERASE                                          #  LO PART OF ZREG (FOR DEC CONV ONLY)
001744:    1011     1010               LOTEMOUT           =        ZREGLP                                #  TEMP FOR DISPLAY OF HRS,MIN,SEC
001745:                                                                                                  #        MUST = HITEMOUT+1.
001746:    1011                        MODREG             ERASE                                          #  MODE CODE
001747:    1012                        DSPLOCK            ERASE                                          #  KEYBOARD/SUBROUTINE CALL INTERLOCK
001748:    1013                        REQRET             ERASE                                          #  RETURN REGISTER FOR LOAD
001749:    1014                        LOADSTAT           ERASE                                          #  STATUS INDICATOR FOR LOADTST
001750:    1015                        CLPASS             ERASE                                          #  PASS INDICATOR CLEAR
001751:    1016                        NOUT               ERASE                                          #  ACTIVITY COUNTER FOR DSPTAB
001752:    1017                        NOUNCADR           ERASE                                          #  MACHINE CADR FOR NOUN
001753:    1020                        MONSAVE            ERASE                                          #  N/V CODE FOR MONITOR. (= MONSAVE1-1)
001754:    1021                        MONSAVE1           ERASE                                          #  NOUNCADR FOR MONITOR (MATBS) = MONSAVE+1
001755:    1022                        MONSAVE2           ERASE                                          #  B(1)PRM NVMONOPT OPTIONS
001756:    1023                        DSPTAB             ERASE    +11D                                  #  0-10D, DISPLAY PANEL BUFF.  11D, C/S LTS.
001757:    1037                        NVQTEM             ERASE                                          #  NVSUB STORAGE FOR CALLING ADDRESS
001758:                                                                                                  #  MUST = NVBNKTEM-1
001759:    1040                        NVBNKTEM           ERASE                                          #  NVSUB STORAGE FOR CALLING BANK
001760:                                                                                                  #  MUST = NVQTEM+1
001761:    1041                        VERBSAVE           ERASE                                          #  NEEDED FOR RECYCLE
001762:    1042                        CADRSTOR           ERASE                                          #  ENDIDLE STORAGE
001763:    1043                        DSPLIST            ERASE                                          #  WAITING REG FOR DSP SYST INTERNAL USE
001764:    1044                        EXTVBACT           ERASE                                          #  EXTENDED VERB ACTIVITY INTERLOCK
001765:    1045                        DSPTEM1            ERASE    +2                                    #  BUFFER STORAGE AREA 1 (MOSTLY FOR TIME)
001766:    1050                        DSPTEM2            ERASE    +2                                    #  BUFFER STORAGE AREA 2 (MOSTLY FOR DEG)
001767:
001768:    1053     1051               DSPTEMX            EQUALS   DSPTEM2    +1                         #  B(2) S-S DISPLAY BUFFER FOR EXT. VERBS.
001769:    1053     1045               NORMTEM1           EQUALS   DSPTEM1                               #  B(3)DSP NORMAL DISPLAY REGISTERS.
001770:
001771:                                                                                                  #  DISPLAY FOR EXTENDED VERBS            (2D)
001772:
001773:    1053     1051               OPTIONX            EQUALS   DSPTEMX                               #  B(2) EXTENDED VERB OPTION CODE  N12(V82)
001774:
001775:                                                                                                  #  TBASE S AND PHSPRDT S.                (12D)
001776:
001777:    1053                        TBASE1             ERASE                                          #  B(1)PRM
001778:    1054                        PHSPRDT1           ERASE                                          #  B(1)PRM
001779:    1055                        TBASE2             ERASE                                          #  B(1)PRM
001780:    1056                        PHSPRDT2           ERASE                                          #  B(1)PRM
001781:    1057                        TBASE3             ERASE                                          #  B(1)PRM
001782:    1060                        PHSPRDT3           ERASE                                          #  B(1)PRM
001783:    1061                        TBASE4             ERASE                                          #  B(1)PRM
001784:    1062                        PHSPRDT4           ERASE                                          #  B(1)PRM
001785:    1063                        TBASE5             ERASE                                          #  B(1)PRM
001786:    1064                        PHSPRDT5           ERASE                                          #  B(1)PRM
001787:    1065                        TBASE6             ERASE                                          #  B(1)PRM
001788:    1066                        PHSPRDT6           ERASE                                          #  B(1)PRM
001789:
001790:                                                                                                  #  MORE UNSWITCHED FOR DISPLAY INF       (5D).
001791:    1067                        EBANKSAV           ERASE
001792:    1070                        MARKEBAN           ERASE
001793:    1071                        EBANKTEM           ERASE
001794:    1072                        MARK2PAC           ERASE
001795:    1073                        R1SAVE             ERASE
001796:
001797:                                                                                                  #  IMU COMPENSATION UNSWITCHED ERASABLE. (1D)
001798:
001799:    1074                        1/PIPADT           ERASE                                          #  B(1)PRM
001800:    1075     1074               OLDBT1             =        1/PIPADT
001801:
001802:                                                                                                  #  SINGLE PRECISION SUBROUTINE TEMPORARIES.      (3D)
001803:                                                                                                  #  SPSIN, SPCOS, SPROOT VARIABLES.
001804:                                                                                                  #  DO NOT SHARE.  THESE ARE USED BY DAPS IN INTERRUPT
001805:                                                                                                  #  AND CURRENTLY ARE NOT PROTECTED.  IF OTHER USERS
001806:                                                                                                  #  MATERIALIZE, THEN THIS CAN BE CHANGED.
001807:
001808:    1075                        HALFY              ERASE
001809:    1076                        ROOTRET            ERASE
001810:    1077                        SQRARG             ERASE
001811:    1100     1075               TEMK               EQUALS   HALFY
001812:    1100     1076               SQ                 EQUALS   ROOTRET
001813:
001814:                                                                                                  #  UNSWITCHED FOR ORBIT INTEGRATION.     (21D)
001815:
001816:    1100                        TDEC               ERASE    +20D                                  #  I(2)
001817:    1125     1102               COLREG             EQUALS   TDEC       +2                         #  I(1)
001818:    1125     1103               LAT                EQUALS   COLREG     +1                         #  I(2)DSP NOUN 43,67 FOR P20,22,51 R52,53.
001819:    1125     1103               LANDLAT            =        LAT                                   #          NOUN 89    FOR P22.
001820:    1125     1105               LONG               EQUALS   LAT        +2                         #  I(2)DSP NOUN 43,67 FOR P20,22,51 R52,53.
001821:    1125     1107               ALT                EQUALS   LONG       +2                         #  I(2)DSP NOUN 43    FOR P20,22,51 R52,53.
001822:    1125     1111               YV                 EQUALS   ALT        +2                         #  I(6)
001823:    1125     1117               ZV                 EQUALS   YV         +6                         #  I(6)
001824:
001825:                                                                                                  #  MARK STORAGE.                         (2)
001826:
001827:    1125                        VHFCNT             ERASE                                          #  B(1)PRM NO. OF VHF MARKS (P20 (R22)).
001828:    1126                        TRKMKCNT           ERASE                                          #  B(1)PRM NO. OF VHF MARKS (P20 (R22)).
001829:
001830:    1127     1126               MARKCTR            =        TRKMKCNT                              #  B(1) MARK COUNTER USED BY R32
001831:
001832:                                                                                                  #  MISCELLANEOUS UNSWITCHED.             (16D)
001833:
001834:    1127                        IRETURN1           ERASE                                          #  B(1) RET ADDR USED BY MIDTOAV1 AND 2
001835:                                                                                                  #  CALLED BY P40,P41,P42, P61,P62
001836:    1130                        RATEINDX           ERASE                                          #   (1) USED BY KALCMANU
001837:    1131                        OPTION1            ERASE                                          #  B(1) NOUN 06 USES THIS
001838:    1132                        OPTION2            ERASE                                          #  B(1) NOUN 06 USES THIS
001839:    1133                        LONGCADR           ERASE    +1                                    #  B(2) LONGCALL REGISTER
001840:    1135                        LONGBASE           ERASE    +1                                    #  B(2) LONGCALL REGISTER
001841:    1137                        LONGTIME           ERASE    +1                                    #  B(2) LONGCALL REGISTER
001842:    1141                        DELAYLOC           ERASE    +3
001843:    1145                        NVWORD1            ERASE                                          #  B(1)
001844:    1146                        TEMPR60            ERASE                                          #  B(1)
001845:    1147                        PRIOTIME           ERASE                                          #  B(1)
001846:    1150     1127               P30/RET            EQUALS   IRETURN1
001847:
001848:                                                                                                  #  MISC. INCLUDING RESTART COUNTER, GIMBAL ANGLE SAVE AND
001849:                                                                                                  #  STANDBY VERB ERASABLES.  REDOCTR BEFORE THETAD (DWNLNK)       (16D)
001850:
001851:    1150                        TIME2SAV           ERASE    +1                                    #  B(2)TMP
001852:    1152                        SCALSAVE           ERASE    +1                                    #  B(2)TMP
001853:    1154                        REDOCTR            ERASE                                          #  B(1)PRM CONTAINS NUMBER OF RESTARTS.
001854:    1155                        THETAD             ERASE    +2                                    #  B(3)PRM DESIRED GIM ANGLES FOR MANEUVER.
001855:    1160     1155               CPHI               =        THETAD                                #        (OUTER)
001856:    1160     1156               CTHETA             =        THETAD     +1                         #        (INNER)
001857:    1160     1157               CPSI               =        THETAD     +2                         #        (MIDDLE)
001858:                                                                                                  #  ENTRY VARIABLES SHARED FOR TM.
001859:    1160     1155               RDOTREF            =        THETAD                                #  I(2)  P65
001860:    1160     1157               VREF               =        RDOTREF    +2                         #  I(2)  P65     HI-ORDER WORD ONLY DNLNK'D
001861:    1160                        DESOPTT            ERASE                                          #  B(1)DSP NOUN 92 FOR P20,22,52, R52.
001862:    1161                        DESOPTS            ERASE                                          #  B(1)DSP NOUN 92 FOR P20,22,52, R52.
001863:
001864:    1162                        DELV               ERASE    +5                                    #  I(6)
001865:    1170     1162               DELVX              =        DELV
001866:    1170     1164               DELVY              =        DELV       +2
001867:    1170     1166               DELVZ              =        DELV       +4
001868:
001869:                                                                                                  #  P20, CONICS   (SHARING WITH TIME 2 SAV AND SCAL SAV ONLY)     (3D)
001870:    1170     1150               POINTEX            EQUALS   TIME2SAV                              #  I(1) POINT AXS EXIT
001871:    1170     1151               VHFTIME            EQUALS   POINTEX    +1                         #  I(2) DOWNLINK OF VHF RANGE TIME +1M
001872:
001873:                                                                                                  #  PERM STATE VECTORS FOR BOOST AND DOWNLINK -WHOLE MISSION-     (14D)
001874:
001875:    1170                        RN                 ERASE    +5                                    #  B(6)PRM
001876:    1176                        VN                 ERASE    +5                                    #  B(6)PRM
001877:    1204                        PIPTIME            ERASE    +1                                    #  B(2)PRM (MUST BE FOLLOWED BY GDT/2)
001878:
001879:                                                                                                  #  SERVICER STORAGE.                             (45D)
001880:
001881:                                                                                                  #  (SERVICER STORAGE AND P11 STORAGE IN UNSWITHCHED SHOULD NOT
001882:                                                                                                  #  OVERLAY EACH OTHER AND THE TOTAL ERASABLE REQUIRED SHOULD NOT
001883:                                                                                                  #  EXCEED THE ERASABLE STORAGE REQUIRED BY RENDEZVOUS GUIDANCE)
001884:
001885:    1206     1206               GDT/2              EQUALS   PIPTIME    +2                         #  B(6)TMP       (MUST FOLLOW PIPTIME)
001886:    1206     1214               GOBL/2             EQUALS   GDT/2      +6                         #  B(6)TMP
001887:    1206     1222               AVEGEXIT           EQUALS   GOBL/2     +6                         #  B(2)TMP
001888:    1206     1222               AVGEXIT            =        AVEGEXIT
001889:    1206     1224               TEMX               EQUALS   AVEGEXIT   +2                         #  B(1)TMP
001890:    1206     1225               TEMY               EQUALS   TEMX       +1                         #  B(1)TMP
001891:    1206     1226               TEMZ               EQUALS   TEMY       +1                         #  B(1)TMP
001892:    1206     1227               PIPCTR             EQUALS   TEMZ       +1                         #  B(1)TMP
001893:    1206     1230               PIPAGE             EQUALS   PIPCTR     +1                         #  B(1)TMP
001894:
001895:    1206     1231               RN1                EQUALS   PIPAGE     +1                         #  B(6)TMP
001896:    1206     1237               VN1                EQUALS   RN1        +6                         #  B(6)TMP
001897:    1206     1245               PIPTIME1           EQUALS   VN1        +6                         #  B(2)TMP
001898:    1206     1247               GDT1/2             EQUALS   PIPTIME1   +2                         #  B(6)TMP
001899:    1206     1255               GOBL1/2            EQUALS   GDT1/2     +6                         #  B(6)TMP
001900:
001901:                                                                                                  #  ENTRY STORAGE.                        (1D)
001902:    1206     1263               ENTRYVN            EQUALS   GOBL1/2    +6                         #  B(1)TMP VN CODE FOR ENTRY DISPLAYS P60S.
001903:
001904:                                                                                                  #  P11 STORAGE.                          (9D)
001905:    1206     1263               PADLONG            EQUALS   ENTRYVN                               #  (2)PL LONGITUDE OF LAUNCH PAD
001906:    1206     1265               LIFTTEMP           EQUALS   PADLONG    +2                         #  (2)TMP
001907:    1206     1267               TEPHEM1            EQUALS   LIFTTEMP   +2                         #  (3)TMP
001908:    1206     1272               PGNCSALT           EQUALS   TEPHEM1    +3                         #  (2)PL ALTITUDE
001909:
001910:                                                                                                  #  RENDEZVOUS NAVIGATION STORAGE.  (SEE COMMENT IN SERVICER STORAGE)     (58D)
001911:    1206                        CSMPOS             ERASE    +57D                                  #  I(6)TMP
001912:    1300     1214               LEMPOS             EQUALS   CSMPOS     +6                         #  I(6)TMP
001913:    1300     1222               RCL                EQUALS   LEMPOS     +6                         #  I(2)TMP
001914:    1300     1224               MARKTIME           EQUALS   RCL        +2                         #  B(2)TMP
001915:    1300     1226               VTEMP              EQUALS   MARKTIME   +2                         #  B(6)TMP
001916:    1300     1234               UM                 EQUALS   VTEMP      +6                         #  I(6)TMP
001917:    1300     1242               MARKDATA           EQUALS   UM         +6                         #  B(2)TMP
001918:    1300     1244               USTAR              EQUALS   MARKDATA   +2                         #  I(6)TMP
001919:    1300     1252               WIXA               EQUALS   USTAR      +6                         #  B(1)TMP
001920:    1300     1253               WIXB               EQUALS   WIXA       +1                         #  B(1)TMP
001921:    1300     1254               ZIXA               EQUALS   WIXB       +1                         #  B(1)TMP
001922:    1300     1255               ZIXB               EQUALS   ZIXA       +1                         #  B(1)TMP
001923:    1300     1256               DELTAX             EQUALS   ZIXB       +1                         #  I(18)TMP
001924:
001925:    1300     1256               VHFRANGE           EQUALS   DELTAX                                #  (2)
001926:    1300     1272               UCL                EQUALS   DELTAX     +12D                       #  (6)   LM-CSM LINE OF SIGHT 1/2 UNIT V
001927:
001928:                                                                                                  #  **** CONICSEX (MEAS INC) ****
001929:    1300     1256               TRIPA              EQUALS   DELTAX
001930:    1300     1261               TEMPVAR            EQUALS   DELTAX     +3
001931:
001932:    1300                        TEMPOR1            ERASE    +1                                    #  B(2)TMP
001933:
001934:                                                                                                  #  T4RUPT ERASABLE.                      (6D)
001935:
001936:    1302                        DSRUPTSW           ERASE
001937:    1303                        OPTIND             ERASE
001938:    1304                        LGYRO              ERASE
001939:    1305                        COMMANDO           ERASE    +1
001940:
001941:    1307                        ZONE               ERASE                                          #  B(1)PRM USED IN SHAFT STOP MONITOR
001942:    1310  0000035               LASTYCMD           =        OPTY                                  #  DUMMY TO MAKE RR BENCH TEST ASSEMBLE
001943:    1310  0000035               LASTXCMD           =        OPTY                                  #  DUMMY TO MAKE RR BENCH TEST ASSEMBLE
001944:
001945:                                                                                                  #  UNSWITCHED DAP ERASABLE.              (4D)
001946:    1310                        T6LOC              ERASE
001947:    1311                        T6ADR              ERASE
001948:    1312                        T5LOC              ERASE    +1
001949:
001950:                                                                                                  #  MODE SWITCHING ERASABLE.              (14D)
001951:    1314                        SWSAMPLE           ERASE                                          #  B(1)PRM
001952:    1315                        DESOPMOD           ERASE                                          #  B(1)PRM
001953:    1316                        WTOPTION           ERASE                                          #  B(1)PRM
001954:    1317                        ZOPTCNT            ERASE                                          #  B(1)PRM
001955:    1320                        IMODES30           ERASE                                          #  B(1)PRM
001956:    1321                        IMODES33           ERASE                                          #  B(1)PRM
001957:    1322                        MODECADR           ERASE    +2                                    #  B(3)TMP
001958:    1325     1322               IMUCADR            =        MODECADR
001959:    1325     1323               OPTCADR            =        MODECADR   +1
001960:    1325     1324               RADCADR            =        MODECADR   +2
001961:    1325                        ATTCADR            ERASE    +2                                    #  B(3)PRM
001962:    1330     1327               ATTPRIO            =        ATTCADR    +2
001963:    1330                        MARKSTAT           ERASE                                          #  B(1)PRM
001964:    1331                        OPTMODES           ERASE                                          #  B(1)PRM
001965:
001966:                                                                                                  #  RCSDAP ERASABLE.                      (1D)
001967:    1332                        HOLDFLAG           ERASE                                          #  B(1)PRM
001968:
001969:                                                                                                  #  CRS61.1 STORAGE.  -USED IN R63 (VERB 89)-     (5D)
001970:    1333                        CPHIX              ERASE    +2                                    #  B(3)DSP NOUN 96 CALCULATED BY CRS61.1
001971:
001972:    1336                        TEVENT             ERASE    +1                                    #  B(2) TIME OF EVENT FOR DOWNLIST
001973:    1340     1336               TLIFTOFF           =        TEVENT
001974:
001975:                                                                                                  #  P34-P35 STORAGE                       (1D)
001976:    1340                        NORMEX             ERASE
001977:
001978:                                                                                                  #  SELF-CHECK ASSIGNMENTS.               (17D)
001979:
001980:                                                                                                  #                         (DO NOT MOVE, S-C IS ADDRESS SENSITIVE)
001981:
001982:    1341                        SELFERAS           ERASE    1357       -          1377            #  *** MUST NOT BE MOVED ***
001983:    1341     1357               SFAIL              EQUALS   SELFERAS                              #  B(1)
001984:    1341     1360               ERESTORE           EQUALS   SFAIL      +1                         #  B(1)
001985:    1341     1361               SELFRET            EQUALS   ERESTORE   +1                         #  B(1) RETURN
001986:    1341     1362               SMODE              EQUALS   SELFRET    +1                         #  B(1)
001987:    1341     1363               ALMCADR            EQUALS   SMODE      +1                         #  B(2) ALARM-ABORT USER'S 2CADR
001988:    1341     1365               ERCOUNT            EQUALS   ALMCADR    +2                         #  B(1)
001989:    1341     1366               SCOUNT             EQUALS   ERCOUNT    +1                         #  B(3)
001990:    1341     1371               SKEEP1             EQUALS   SCOUNT     +3                         #  B(1)
001991:    1341     1372               SKEEP2             EQUALS   SKEEP1     +1                         #  B(1)
001992:    1341     1373               SKEEP3             EQUALS   SKEEP2     +1                         #  B(1)
001993:    1341     1374               SKEEP4             EQUALS   SKEEP3     +1                         #  B(1)
001994:    1341     1375               SKEEP5             EQUALS   SKEEP4     +1                         #  B(1)
001995:    1341     1376               SKEEP6             EQUALS   SKEEP5     +1                         #  B(1)
001996:    1341     1377               SKEEP7             EQUALS   SKEEP6     +1                         #  B(1)
001997:
001998:                                                                                                  #  USED BY P30 ROUTINES TO WRITE ONLY NEVER READ IN COLOSSUS
001999:
002000:    1341  0000000               DISPDEX            EQUALS   A
002001:
002002:                                                                                                  #  ERASABLE FOR SXTMARK CDU CHECK DELAY.  -PAD LOADED-   (1D)
002003:
002004:    1341                        CDUCHKWD           ERASE                                          #  B(1)PL
002005:
002006:                                                                                                  #  R57 STORAGE. -MUST BE UNSHARED EXCEPT IN BOOST OR ENTRY-      (1D)
002007:
002008:    1342                        TRUNBIAS           ERASE                                          #  B(1)PRM RESULT OF R57 CALIBR OF TRUNION
002009:
002010:                                                                                                  #  KEPLER STORAGE                                (2D)
002011:
002012:    1343                        EPSILONT           ERASE    +1                                    #  I(2)TMP
002013:
002014:                                                                                                  #  P37   ** RETURN TO EARTH (PAD LOAD) ****      (2D)
002015:
002016:    1345                        RTED1              ERASE    +1                                    #  I(2)PL VGAMMA POLY COEF               B-3
002017:
002018:                                                                                                  #  P40   *** STEERING ROUTINE *** PAD LOAD       (1D)
002019:
002020:    1347                        DVTHRESH           ERASE                                          #  I(1)PL DELTA VTHRESHOLD FOR LOW THRUST
002021:                                                                                                  #         ROUTINE                        B-2
002022:
002023:                                                                                                  #  P23   *** PAD LOAD ****               (2D)
002024:
002025:    1350                        HORIZALT           ERASE    +1                                    #  I(2)PL HORIZION ALTITUDE           M B-29
002026:
002027:                                                                                                  #  P-20  ALTERNATE LOS VARIANCE  PAD LOAD *****  (1D)
002028:                                                                                                  #                                                                          -16
002029:    1352                        ALTVAR             ERASE                                          #  I(2)PL MILLARD. SQUARED SCALED 2
002030:    1353     1377               END-UE             EQUALS   SELFERAS   +16D                       #  LAST USED UNSWITCHED ERASABLE
002031:
002032:                                                                                                  #  EBANK-3 ASSIGNMENTS
002033:
002034: E3,1400                                           SETLOC   1400
002035:
002036:                                                                                                  #  WAITLIST TASK LISTS.                  (26D)
002037:
002038: E3,1400                        LST1               ERASE    +7                                    #  B(8D)PRM DELTA T S.
002039: E3,1410                        LST2               ERASE    +17D                                  #  B(18D)PRM TASK 2CADR ADDRESSES.
002040:
002041:                                                                                                  #  RESTART STORAGE.                      (2D)
002042:
002043: E3,1432                        RSBBQ              ERASE    +1                                    #  B(2)PRM SAVE BB AND Q FOR RESTARTS.
002044:
002045:                                                                                                  #  MORE LONGCALL STORAGE.  (MUST BE IN LST1 S BANK).     (2D)
002046:
002047: E3,1434                        LONGEXIT           ERASE    +1                                    #  B(2)TMP MAY BE SELDOM OVERLAYED.
002048:
002049:                                                                                                  #  PHASE-CHANGE LISTS PART II.           (12D)
002050:
002051:
002052: E3,1436                        PHSNAME1           ERASE                                          #  B(1)PRM
002053: E3,1437                        PHSBB1             ERASE                                          #  B(1)PRM
002054: E3,1440                        PHSNAME2           ERASE                                          #  B(1)PRM
002055: E3,1441                        PHSBB2             ERASE                                          #  B(1)PRM
002056: E3,1442                        PHSNAME3           ERASE                                          #  B(1)PRM
002057: E3,1443                        PHSBB3             ERASE                                          #  B(1)PRM
002058: E3,1444                        PHSNAME4           ERASE                                          #  B(1)PRM
002059: E3,1445                        PHSBB4             ERASE                                          #  B(1)PRM
002060: E3,1446                        PHSNAME5           ERASE                                          #  B(1)PRM
002061: E3,1447                        PHSBB5             ERASE                                          #  B(1)PRM
002062: E3,1450                        PHSNAME6           ERASE                                          #  B(1)PRM
002063: E3,1451                        PHSBB6             ERASE                                          #  B(1)PRM
002064:
002065:                                                                                                  #  IMU COMPENSATION PARAMETERS.          (22D)
002066:
002067: E3,1452                        PBIASX             ERASE                                          #  B(1)  PIPA BIAS, PIPA SCALE FACTR TERMS
002068: E3,1453  E3,1452               PIPABIAS           =        PBIASX                                #        INTERMIXED.
002069: E3,1453                        PIPASCFX           ERASE
002070: E3,1454  E3,1453               PIPASCF            =        PIPASCFX
002071: E3,1454                        PBIASY             ERASE
002072: E3,1455                        PIPASCFY           ERASE
002073: E3,1456                        PBIASZ             ERASE
002074: E3,1457                        PIPASCFZ           ERASE
002075:
002076: E3,1460                        NBDX               ERASE                                          #  GYRO BIAS DRIFTS
002077: E3,1461  E3,1460               GBIASX             =        NBDX
002078: E3,1461                        NBDY               ERASE
002079: E3,1462                        NBDZ               ERASE
002080:
002081: E3,1463                        ADIAX              ERASE                                          #  ACCELERATION SENSITIVE DRIFT ALONG THE
002082: E3,1464                        ADIAY              ERASE                                          #  INPUT AXIS
002083: E3,1465                        ADIAZ              ERASE
002084:
002085: E3,1466                        ADSRAX             ERASE                                          #  ACCELERATION SENSITIVE DRIFT ALONG THE
002086: E3,1467                        ADSRAY             ERASE                                          #  SPIN REFERENCE AXIS
002087: E3,1470                        ADSRAZ             ERASE
002088:
002089: E3,1471                        GCOMP              ERASE    +5                                    #  CONTAINS COMPENSATING TORQUES
002090:
002091: E3,1477                        GCOMPSW            ERASE
002092: E3,1500  E3,1471               COMMAND            EQUALS   GCOMP
002093: E3,1500  E3,1474               CDUIND             EQUALS   GCOMP      +3
002094:
002095:                                                                                                  #  STATE VECTORS FOR ORBIT INTEGRATION.  (44D)
002096:
002097:                                                                                                  #                (DIFEQCNT THRU XKEP MUST BE IN SAME
002098:                                                                                                  #                EBANK AS RRECTCSM, RRECTLEM ETC
002099:                                                                                                  #                BECAUSE THE COPY-CYCLES (ATOPCSM,
002100:                                                                                                  #                PTOACSM ETC) ARE EXECUTED IN BASIC.
002101:                                                                                                  #                ALL OTHER REFERENCES TO THIS GROUP
002102:                                                                                                  #                ARE BY INTERPRETIVE INSTRUCTIONS.)
002103:
002104:
002105: E3,1500                        DIFEQCNT           ERASE    +43D                                  #  B(1)TMP
002106:                                                                                                  #  (UPSVFLAG...XKEP MUST BE KEPT IN ORDER)
002107:
002108: E3,1554  E3,1501               UPSVFLAG           EQUALS   DIFEQCNT   +1                         #  B(1)PRM UPDATE FLAG
002109: E3,1554  E3,1502               RRECT              EQUALS   UPSVFLAG   +1                         #  B(6)TMP POS AT RECT           KM*2(-14)
002110: E3,1554  E3,1510               VRECT              EQUALS   RRECT      +6                         #  B(6)TMP VEL AT RECT           KM(-1/2)*2(6)
002111: E3,1554  E3,1516               TET                EQUALS   VRECT      +6                         #  B(2)TMP TIME OF STATE VECT    CSECS*2(-28)
002112: E3,1554  E3,1520               TDELTAV            EQUALS   TET        +2                         #  B(6)TMP POSITION DEVIATION    KM*2(14)
002113: E3,1554  E3,1526               TNUV               EQUALS   TDELTAV    +6                         #  B(6)TMP VEL DEVIATION         KM(-1/2)*2(14)
002114: E3,1554  E3,1534               RCV                EQUALS   TNUV       +6                         #  B(6)TMP CONIC POSITION        KM*2(-14)
002115: E3,1554  E3,1542               VCV                EQUALS   RCV        +6                         #  B(6)TMP CONIC VELOCITY        KM(-1/2)*2(6)
002116: E3,1554  E3,1550               TC                 EQUALS   VCV        +6                         #  B(2)TMP TIME SINCE RECTIFICATION
002117: E3,1554  E3,1552               XKEP               EQUALS   TC         +2                         #  B(2)TMP ROOT OF KEPLER EQ     KM(1/2.*2(-10)
002118:
002119:                                                                                                  #  **** TEMP - IN VAC AREA ****
002120: E3,1554                        RRECT1             EQUALS   18D
002121: E3,1554                        VRECT1             EQUALS   24D
002122: E3,1554                        TET1               EQUALS   30D
002123:
002124:                                                                                                  #  PERMANENT STATE VECTORS AND TIMES.    (101D)
002125:
002126:                                                                                                  #  (DO NOT OVERLAY WITH ANYTHING AFTER BOOST)
002127:
002128:                                                                                                  #  (RRECTCSM...XKEPCSM MUST BE KEPT IN THIS ORDER)
002129:
002130: E3,1554                        RRECTCSM           ERASE    +5                                    #  B(6)PRM CSM VARIABLES.
002131: E3,1562  E3,1554               RRECTHIS           =        RRECTCSM
002132: E3,1562                        VRECTCSM           ERASE    +5                                    #  B(6)PRM
002133: E3,1570                        TETCSM             ERASE    +1                                    #  B(2)PRM
002134: E3,1572  E3,1570               TETTHIS            =        TETCSM
002135: E3,1572                        DELTACSM           ERASE    +5                                    #  B(6)PRM
002136: E3,1600                        NUVCSM             ERASE    +5                                    #  B(6)PRM
002137: E3,1606                        RCVCSM             ERASE    +5                                    #  B(6)PRM
002138: E3,1614                        VCVCSM             ERASE    +5                                    #  B(6)PRM
002139: E3,1622                        TCCSM              ERASE    +1                                    #  B(2)PRM
002140: E3,1624                        XKEPCSM            ERASE    +1                                    #  B(2)PRM
002141:
002142:                                                                                                  #  (RRECTLEM...XKEPLEM MUST BE KEPT IN THIS ORDER)
002143:
002144: E3,1626                        RRECTLEM           ERASE    +5                                    #  B(6)PRM LEM VARIABLES
002145: E3,1634  E3,1626               RRECTOTH           =        RRECTLEM
002146: E3,1634                        VRECTLEM           ERASE    +5                                    #  B(6)PRM
002147: E3,1642                        TETLEM             ERASE    +1                                    #  B(2)PRM
002148: E3,1644  E3,1642               TETOTHER           =        TETLEM
002149: E3,1644                        DELTALEM           ERASE    +5                                    #  B(6)PRM
002150: E3,1652                        NUVLEM             ERASE    +5                                    #  B(6)PRM
002151: E3,1660                        RCVLEM             ERASE    +5                                    #  B(6)PRM
002152: E3,1666                        VCVLEM             ERASE    +5                                    #  B(6)PRM
002153: E3,1674                        TCLEM              ERASE    +1                                    #  B(2)PRM
002154: E3,1676                        XKEPLEM            ERASE    +1                                    #  B(2)PRM
002155:
002156: E3,1700                        X789               ERASE    +5
002157: E3,1706                        TEPHEM             ERASE    +2
002158: E3,1711                        AZO                ERASE    +1
002159: E3,1713                        UNITW              ERASE    +5
002160: E3,1721  E3,1713               -AYO               EQUALS   UNITW                                 #  (2)
002161: E3,1721  E3,1715               AXO                EQUALS   UNITW      +2                         #  (2)
002162:
002163:                                                                                                  #  STATE VECTORS FOR DOWNLINK.           (12D)
002164:
002165: E3,1721                        R-OTHER            ERASE    +5                                    #  B(6)PRM POS VECT (OTHER VECH) FOR DNLINK
002166: E3,1727                        V-OTHER            ERASE    +5                                    #  B(6)PRM VEL VECT (OTHER VECH) FOR DNLINK
002167:
002168: E3,1735  E3,1642               T-OTHER            =        TETLEM                                #              TIME (OTHER VECH) FOR DNLINK
002169:
002170:                                                                                                  #  REFSMMAT.                             (18D)
002171:
002172: E3,1735                        REFSMMAT           ERASE    +17D                                  #  I(18D)PRM
002173:
002174:                                                                                                  #  AVERAGEG INTEGRATOR STORAGE.          (8D)
002175: E3,1757                        UNITR              ERASE    +5
002176: E3,1765                        RMAG               ERASE    +1
002177:
002178:                                                                                                  #  P40 PAD LOADS                         (6D)
002179: E3,1767                        EK1VAL             ERASE    +1                                    #  I(2)PL 1-SEC SPS IMPULSE NEWTSEC/100/B23
002180: E3,1771                        EK2VAL             ERASE    +1                                    #  I(2)PL  B+23 NEWTON-SEC/E+2
002181: E3,1773                        EK3VAL             ERASE                                          #  I(1)PL  B+09 NEWTONS/E+4
002182: E3,1774                        FANG               ERASE                                          #  I(1)PL SPS THRUST USED BY IMPULSIVE BURN
002183:
002184:                                                                                                  #  **********LUNAR MODULE CHANGE  ***********
002185:
002186:                                                                                                  #  *9 (2D)
002187: E3,1775  E3,1776               E3J22R2M           EQUALS   FANG       +2
002188: E3,1775  E3,1777               E32C31RM           EQUALS   E3J22R2M   +1
002189:
002190:                                                                                                  #  **** CONICSEX (PLANETARY INERT. ORIEN.) ****
002191: E3,1775  E3,1706               TIMSUBO            EQUALS   TEPHEM                                #  CSEC B-42 (TRIPLE PREC)
002192: E3,1775  E3,1777               END-E3             EQUALS   E32C31RM                              #  LAST USED E3 ADDRESS
002193:
002194:                                                                                                  #  EBANK-4 ASSIGNMENTS
002195:
002196: E4,1400                                           SETLOC   2000
002197:
002198:                                                                                                  #  P20 STORAGE.  -PAD LOADED-    (4D)
002199:
002200: E4,1400                        WRENDPOS           ERASE                                          #  B(1)PL        M B-14
002201: E4,1401                        WRENDVEL           ERASE                                          #  B(1)PL        M/CSECB0
002202: E4,1402                        RMAX               ERASE                                          #  B(1)PL        METERS*2(-19)
002203: E4,1403                        VMAX               ERASE                                          #  B(1)PL        M/CSEC*2(-7)
002204:
002205:                                                                                                  #  P22 STORAGE.  -PAD LOADED-    (5D)
002206: E4,1404                        WORBPOS            ERASE                                          #  B(1)PL        M B-14
002207: E4,1405                        WORBVEL            ERASE                                          #  B(1)PL        M/CSECB0
002208: E4,1406                        S22WSUBL           ERASE                                          #  B(1)PL        M B-14
002209: E4,1407                        RPVAR              ERASE    +1                                    #  B(2)PL
002210:
002211:                                                                                                  #  CONISEX STORAGE.  -PAD LOADED-        (6D)
002212:
002213: E4,1411                        504LM              ERASE    +5                                    #  I(6) MOON LIBRATION VECTOR
002214:
002215:                                                                                                  #  ENTRY STORAGE.            -PAD LOADED-        (2D)
002216: E4,1417                        EMSALT             ERASE    +1                                    #  I(2)PL
002217:
002218:                                                                                                  #  P35 CONSTANTS.   - PAD LOADED-        (4D)
002219: E4,1421                        ATIGINC            ERASE    +1                                    #  B(2)PL
002220: E4,1423                        PTIGINC            ERASE    +1                                    #  B(2)PL
002221:
002222:                                                                                                  #  LUNAR LANDING SIGHT DATA. -PAD LOADED-        (6D)
002223:                                                                                                  #  (USED BY INTEGRATION INITIALIZATION, LAT-LONG SUBROUTINES, P30'S)
002224:
002225: E4,1425                        RLS                ERASE    +5                                    #  I(6) PL  LUNAR LANDING SIGHT VECTOR
002226:
002227:                                                                                                  #  CONISEX (LUNAR AND SOLAR EPHEM) STORAGE.  -PAD LOADED-        (77D)
002228: E4,1433                        TIMEMO             ERASE    +76D
002229: E4,1550  E4,1436               VECOEM             EQUALS   TIMEMO     +3
002230: E4,1550  E4,1532               RESO               EQUALS   VECOEM     +60D
002231: E4,1550  E4,1540               VESO               EQUALS   RESO       +6
002232: E4,1550  E4,1546               OMEGAES            EQUALS   VESO       +6
002233:
002234:                                                                                                  #  FULL INTEGRATION STORAGE.                     (95D)
002235:
002236: E4,1550                        PBODY              ERASE                                          #  I(1)
002237: E4,1551  E4,1551               ALPHAV             EQUALS   PBODY      +1                         #  I(6)TMP
002238: E4,1551  E4,1557               BETAV              EQUALS   ALPHAV     +6                         #  I(6)TMP
002239: E4,1551  E4,1565               PHIV               EQUALS   BETAV      +6                         #  I(6)TMP
002240: E4,1551  E4,1573               PSIV               EQUALS   PHIV       +6                         #  I(6)TMP
002241: E4,1551  E4,1601               FV                 EQUALS   PSIV       +6                         #  I(6)TMP
002242: E4,1551  E4,1607               BETAM              EQUALS   FV         +6                         #  I(6)TMP
002243: E4,1551  E4,1611               H                  EQUALS   BETAM      +2                         #  I(2)TMP
002244: E4,1551  E4,1613               GMODE              EQUALS   H          +2                         #  I(1)TMP
002245: E4,1551  E4,1614               IRETURN            EQUALS   GMODE      +1                         #  I(1)TMP
002246: E4,1551  E4,1615               NORMGAM            EQUALS   IRETURN    +1                         #  I(1)TMP
002247: E4,1551  E4,1616               VECTAB             EQUALS   NORMGAM    +1                         #  I(36)TMP
002248: E4,1551  E4,1662               RPQV               EQUALS   VECTAB     +36D                       #   (6)TMP VECTOR PRIMARY TO SECONDARY BODY
002249: E4,1551  E4,1670               ORIGEX             EQUALS   RPQV       +6                         #  B(1)TMP QSAVE FOR COORD. SWITCH. ROUTINE
002250: E4,1551  E4,1670               KEPRTN             EQUALS   ORIGEX                                #          QSAVE FOR KEPLER
002251: E4,1551  E4,1671               RQVV               EQUALS   ORIGEX     +1                         #   (6)    SEC. BODY TO VEH.VETOR (USED P23)
002252: E4,1551  E4,1677               RPSV               EQUALS   RQVV       +6                         #   (6)TMP SUN TO PRIMARY BODY VECTOR
002253: E4,1551  E4,1705               XKEPNEW            EQUALS   RPSV       +6                         #   (2)TMP ROOT OF KEPLERS EQU FOR TIME TAU
002254:
002255:                                                                                                  #  THESE PROBABLY CAN SHARE INTEGRATION VARIABLES.       (9D)
002256:
002257: E4,1551  E4,1624               VACX               EQUALS   VECTAB     +6                         #  I(2)TMP
002258: E4,1551  E4,1626               VACY               EQUALS   VACX       +2                         #  I(2)TMP
002259: E4,1551  E4,1630               VACZ               EQUALS   VACY       +2                         #  I(2)TMP
002260:
002261: E4,1551  E4,1640               ERADM              EQUALS   VECTAB     +18D                       #  I(2)TMP
002262: E4,1551  E4,1642               INCORPEX           EQUALS   ERADM      +2                         #  I(1)TMP
002263:
002264:                                                                                                  #  R31 (V83) STORAGE. -SHARES WITH INTEGRATION STORAGE-  (24D)
002265:
002266: E4,1551  E4,1624               BASEOTP            EQUALS   VECTAB     +6                         #  I(6) BASE POS VECTOR OTHER VEH
002267: E4,1551  E4,1640               BASEOTV            EQUALS   VECTAB     +18D                       #  I(6) BASE VEL VECTOR OTHER VEH
002268: E4,1551  E4,1654               BASETHP            EQUALS   VECTAB     +30D                       #  I(6) BASE POS VECTOR THIS VEH
002269: E4,1551  E4,1662               BASETHV            EQUALS   RPQV                                  #  I(6) BASE VEL VECTOR THIS VEH
002270:
002271:                                                                                                  #  CONIC INTEGRATION STORAGE. -MAY NOT SHARE WITH SERVICER-      (6D)
002272: E4,1551  E4,1707               ALPHAM             EQUALS   XKEPNEW    +2                         #  I(2)TMP
002273: E4,1551  E4,1711               TAU.               EQUALS   ALPHAM     +2                         #  I(2)TMP
002274: E4,1551  E4,1713               DT/2               EQUALS   TAU.       +2                         #  I(2)TMP
002275:
002276:
002277:                                                                                                  #  P21, R61 STORAGE                      (2D)
002278: E4,1551  E4,1715               P21TIME            EQUALS   DT/2       +2                         #  B(2)TMP
002279:
002280:                                                                                                  #  INTEGRATION STORAGE                   (1D)
002281: E4,1551  E4,1717               EGRESS             EQUALS   P21TIME    +2                         #  I(1)TMP SAVES RETURNS.
002282:
002283:                                                                                                  #  VERB 83 STORAGE                       (20D)
002284:
002285: E4,1551  E4,1720               RANGE              EQUALS   EGRESS     +1                         #  I(2)DSP NOUN 54 DISTANCE TO OPTICAL SUBJ
002286: E4,1551  E4,1722               RRATE              EQUALS   RANGE      +2                         #  I(2)DSP NOUN 54 RATE OF APPROACH
002287: E4,1551  E4,1724               RTHETA             EQUALS   RRATE      +2                         #  I(2)DSP NOUN 54
002288: E4,1551  E4,1726               RONE               EQUALS   RTHETA     +2                         #  I(6)TMP VECTOR STORAGE.  (SCRATCH)
002289: E4,1551  E4,1734               VONE               EQUALS   RONE       +6                         #  I(6)TMP VECTOR STORAGE  (SCRATCH)
002290: E4,1551  E4,1742               BASETIME           EQUALS   VONE       +6                         #  I(2)    BASE TIME ASSOC WITH BASE VECS
002291:
002292:                                                                                                  #  S-BAND ANTENNA GIMBAL ANGLES.  DISPLAYED BY R05 (EXT.VB.64)   (4D)
002293:                                                                                                  #         OPERATION DURING P00 ONLY.
002294: E4,1551  E4,1720               RHOSB              EQUALS   RANGE                                 #  B(2)DSP NOUN 51. PITCH ANGLE
002295: E4,1551  E4,1722               GAMMASB            EQUALS   RHOSB      +2                         #  B(2)DSP NOUN 51. YAWANGLE
002296:
002297:                                                                                                  #  R 36 SCRATCHPAD STORAGE               (13D)
002298: E4,1551  E4,1726               RPASS36            EQUALS   RONE                                  #  I(6) S-S
002299: E4,1551  E4,1734               UNP36              EQUALS   RPASS36    +6                         #  I(6) S-S
002300: E4,1551  E4,1742               OPTIONY            EQUALS   UNP36      +6                         #  I(1)TMP VEHICLE CODE
002301:
002302:                                                                                                  #  EXTENDED VERB 82 STORAGE.             (6D)
002303:
002304: E4,1551  E4,1720               HPERMIN            EQUALS   RANGE                                 #  I(2) SET TO 300KFT OR 35KFT FOR SR30.1
002305: E4,1551  E4,1722               RPADTEM            EQUALS   HPERMIN    +2                         #  I(2) PAD OR LANDING RADIUS FOR SR30.1
002306: E4,1551  E4,1724               TSTART82           EQUALS   RPADTEM    +2                         #  I(2) TEMP TIME STORAGE FOR V82.
002307:
002308:                                                                                                  #  MORE VERB 82 NOT SHARING WITH VERB 83 (9D)
002309: E4,1551  E4,1742               V82FLAGS           EQUALS   VONE       +6                         #   (1) FOR V 82 BITS
002310: E4,1551  E4,1743               TFF                EQUALS   V82FLAGS   +1                         #  I(2)DSP NOUN 50,44
002311: E4,1551  E4,1745               -TPER              EQUALS   TFF        +2                         #  I(2)DSP NOUN 32
002312: E4,1551  E4,1747               THETA(1)           EQUALS   -TPER      +2                         #  I(2)TMP SET AT END OF V82
002313: E4,1551  E4,1755               RSP-RREC           EQUALS   AOPTIME                               #  DSP NOUN 50 FOR V82 DURING P00 AND P11
002314:
002315:                                                                                                  #  REENTRY CONICS                        (6D)
002316: E4,1551  E4,1742               URONE              EQUALS   V82FLAGS                              #  I(6) SAVE ACTUAL FOR CALCULATIONS
002317:
002318:                                                                                                  #  V82 DISPLAY                           (4D)
002319: E4,1551  E4,1751               HAPOX              EQUALS   THETA(1)   +2                         #  I(2)DSP NOUN 44
002320: E4,1551  E4,1753               HPERX              EQUALS   HAPOX      +2                         #  I(2)DSP NOUN 44
002321:
002322:                                                                                                  #  P22 DISPLAY REGISTERS                 (06D)
002323: E4,1551  E4,1755               AOPTIME            EQUALS   HPERX      +2                         #  I(2)TMP FOR SR52.1,ADVTRACK
002324: E4,1551  E4,1757               LANDLONG           EQUALS   AOPTIME    +2                         #  I(2) DSP NOUN 89 FOR P22
002325: E4,1551  E4,1761               LANDALT            EQUALS   LANDLONG   +2                         #  I(2)DSP NOUN 89 FOR P22.
002326:
002327:                                                                                                  #  S34/35.5,P34-P35 STORAGE.             (6D)
002328: E4,1551  E4,1763               KT                 EQUALS   LANDALT    +2                         #  B(2)
002329: E4,1551  E4,1765               VERBNOUN           EQUALS   KT         +2                         #  B(1)TMP
002330: E4,1551  E4,1766               QSAVED             EQUALS   VERBNOUN   +1                         #  B(1)TMP HOLDS RETURN
002331: E4,1551  E4,1767               RTRN               EQUALS   QSAVED     +1                         #  B(1) RETURN
002332: E4,1551  E4,1770               SUBEXIT            EQUALS   RTRN       +1                         #  B(1)TMP
002333:                                                                                                  #  RGEXIT CANT SHARE WITH HPER,HAPO
002334: E4,1551  E4,1770               RGEXIT             EQUALS   SUBEXIT                               #  I(1)TMP Q SAVE MODE 1 AND 2 TO RTRN MAIN
002335:
002336:                                                                                                  #  P30 DISPLAY                           (4D)
002337: E4,1551  E4,1763               HAPO               EQUALS   KT                                    #  I(2)DSP NOUN 42, FOR P30.
002338: E4,1551  E4,1765               HPER               EQUALS   HAPO       +2                         #  I(2)DSP NOUN 42, FOR P30.
002339:
002340:                                                                                                  #  SOME P34 STORAGE.     (OVERLAYS P35.1 STORAGE)        (2D)
002341: E4,1551  E4,1763               NOMTPI             EQUALS   KT                                    #  I(2)TMP NOMINAL TPI TIME FOR RECYCLE
002342:
002343:                                                                                                  #  THE FOLLOWING ARE ERASABLES USED BY THE SYSTEM TESTS.  205 USES TRANSM1  GS ARE NOT USED IN 205 NOR ARE THEY
002344:                                                                                                  #  WHILE 504 USES TRANSM1 AND ALFDK .
002345: E4,1551                        TRANSM1            EQUALS   2000                                  #  (18) INITIALIZATION FOR IMU TESTS
002346: E4,1551  E4,1422               ALFDK              =        TRANSM1    +18D                       #  (144) ERASABLE LOAD IN 504
002347:
002348:                                                                                                  #  END OF PERF. TEST ERASABLE IN BANK 4
002349:
002350:                                                                                                  #  *-*-* V82 *-*-*                       (6D)
002351:
002352: E4,1551  E4,1771               VONE'              EQUALS   RGEXIT     +1                         #  I(6)TMP NORMAL VELOCITY VONE/ SQ RT MU
002353:
002354:                                                                                                  #  PAD LOAD INTEGRATION ERROR INCLUDED IN VARIANCE BY P20        (1D)
002355:
002356: E4,1551  E4,1777               INTVAR             EQUALS   VONE'      +6                         #  I(1)PL        SQUARE OF EXPECTED INTEGRATION
002357:                                                                                                  #                POSITION EXTRAPOLATION ERROR.
002358:                                                                                                  #                SCALED METERS(2) 2(15)
002359: E4,1551  E4,1777               END-E4             EQUALS   INTVAR                                #  LAST USED ERASABLE IN E4
002360:
002361:                                                                                                  #  EBANK-5 ASSIGNMENTS
002362:
002363: E5,1400                                           SETLOC   2400
002364:
002365:                                                                                                  #  *-*-*-*- OVERLAY 1 IN EBANK 5 -*-*-*-*
002366:
002367:                                                                                                  #  W-MATRIX STORAGE.                     (162D)
002368:
002369: E5,1400                        W                  EQUALS   2400                                  #  B(162)
002370: E5,1400                        9X9LOC1            EQUALS   2444
002371: E5,1400                        9X9LOC2            EQUALS   2532
002372:
002373: E5,1400  E5,1570               EMATRIX            =        W          +120D                      #  B(42E USED TO CONVERT W TO 6X6
002374: E5,1400  E5,1642               END-W              EQUALS   W          +162D                      #  **NEXT AVAILABLE LOC AFTER W MATRIX**
002375:
002376:                                                                                                  #  AUTO-OPTICS STORAGE -R52-
002377:
002378:                                                                                                  #  DO NOT MOVE FROM E5,1554.  A DELICATE BALANCE EXISTS BETWEEN THIS AND P03
002379: E5,1400  E5,1554               XNB1               EQUALS   W          +108D                      #  B(6D)TMP
002380: E5,1400  E5,1562               YNB1               EQUALS   XNB1       +6                         #  B(6)TMP
002381: E5,1400  E5,1570               ZNB1               EQUALS   YNB1       +6                         #  B(6)TMP
002382: E5,1400  E5,1576               SAVQR52            EQUALS   ZNB1       +6                         #  I(2)TMP
002383: E5,1400  E5,1600               PLANVEC            EQUALS   SAVQR52    +2                         #  B(6) S-S SIGHTING VECTOR IN REF. COOR.
002384: E5,1400  E5,1606               TSIGHT             EQUALS   PLANVEC    +6                         #  B(2) S-S TIME OF SIGHTING
002385:
002386:                                                                                                  #  RENDEZVOUS -P34-35                    (26D)
002387: E5,1400  E5,1610               DVLOS              EQUALS   TSIGHT     +2                         #  I(6) S-S DELTA VELOCITY, LOS COORD-DISPL1
002388: E5,1400  E5,1610               DELTAR             EQUALS   DVLOS                                 #  I(2)
002389: E5,1400  E5,1610               TINTSOI            EQUALS   DELTAR                                #  I(2) INTERCEPT TIME FOR SOI MANEUVER
002390: E5,1400  E5,1612               DELTTIME           EQUALS   DVLOS      +2                         #  I(2)
002391: E5,1400  E5,1614               TARGTIME           EQUALS   DVLOS      +4                         #  I(2)
002392: E5,1400  E5,1616               UNRM               EQUALS   DVLOS      +6                         #  I(6) S-S
002393: E5,1400  E5,1624               ULOS               EQUALS   UNRM       +6                         #  I(6) S-S UNIT LINE OF SIGHT VECTOR
002394: E5,1400  E5,1632               ACTCENT            EQUALS   ULOS       +6                         #  I(2) S-S CENTRAL ANGLE BETWEEN ACTIVE
002395:                                                                                                  #       VEH AT TPI IGNITION TIME AND
002396:                                                                                                  #       TARGET VECTOR.
002397: E5,1400  E5,1634               DELVTPI            EQUALS   ACTCENT    +2                         #  I(2) NOUN 58 FOR P34.
002398: E5,1400  E5,1636               DELVTPF            EQUALS   DELVTPI    +2                         #  I(2) NOUN 58,59 FOR P34,35.
002399: E5,1400  E5,1640               POSTTPI            EQUALS   DELVTPF    +2                         #  I(2) NOUN 58 FOR P34.
002400: E5,1400  E5,1634               TDEC2              EQUALS   DELVTPI                               #   (2)
002401:
002402:                                                                                                  #  ALIGNMENT                             (12D)
002403: E5,1400  E5,1610               STARSAV1           EQUALS   DVLOS                                 #  I(6)TMP RESTART STAR SAVE.
002404: E5,1400  E5,1616               STARSAV2           EQUALS   STARSAV1   +6                         #  I(6)TMP RESTART STAR SAVE.
002405: E5,1400  E5,1616               US                 =        STARSAV2                              #          (CISLUNAR TAG FOR STARSAV2).
002406:
002407:                                                                                                  #  TPI SEARCH                            (26D)
002408: E5,1400  E5,1610               IT                 EQUALS   DVLOS                                 #   (6)
002409: E5,1400  E5,1616               THETZERO           EQUALS   IT         +6                         #   (2)
002410: E5,1400  E5,1620               TFI                EQUALS   THETZERO   +2                         #   (2)
002411: E5,1400  E5,1622               DELVEE             EQUALS   TFI        +2                         #   (2)
002412: E5,1400  E5,1624               HP                 EQUALS   DELVEE     +2                         #   (2)
002413: E5,1400  E5,1626               TFO                EQUALS   HP         +2                         #   (2)
002414: E5,1400  E5,1630               HPO                EQUALS   TFO        +2                         #   (2)
002415: E5,1400  E5,1632               DELVEO             EQUALS   HPO        +2                         #   (2)
002416: E5,1400  E5,1634               MAGVTPI            EQUALS   DELVEO     +2                         #  I(2)TMP MAG OF DELTAVTPI OR VMID
002417: E5,1400  E5,1636               RELDELV            EQUALS   MAGVTPI    +2                         #  I(2)TMP MAG OF DELTAVTPF
002418: E5,1400  E5,1640               T3TOT4             EQUALS   RELDELV    +2                         #  I(2)DSP NOUN 39 FOR P34,35.  TPI TO TIN
002419:                                                                                                  #  T (CAN NOT SHARE WITH RETURN TO EARTH)
002420:                                                                                                  #  ALIGNMENT/SYSTEST/CALCSMSC/CRS61.1 COMMON STORAGE.    (36D)
002421:                                                                                                  #  (CALCSMSC IS A SUBSET OF S41.1 AT LEAST)
002422:                                                                                                  #  (CRS61.1 IS A SUBSET OF P20)
002423:
002424: E5,1400  E5,1671               XSM                EQUALS   END-W      +23D                       #  B(6)
002425: E5,1400  E5,1677               YSM                EQUALS   XSM        +6                         #  B(6)TMP
002426: E5,1400  E5,1705               ZSM                EQUALS   YSM        +6                         #  B(6)TMP
002427:
002428: E5,1400  E5,1713               XDC                EQUALS   ZSM        +6                         #  B(6)TMP
002429: E5,1400  E5,1721               YDC                EQUALS   XDC        +6                         #  B(6)TMP
002430: E5,1400  E5,1727               ZDC                EQUALS   YDC        +6                         #  B(6)TMP
002431:
002432: E5,1400  E5,1713               XNB                =        XDC
002433: E5,1400  E5,1721               YNB                =        YDC
002434: E5,1400  E5,1727               ZNB                =        ZDC
002435:
002436:                                                                                                  #  OVERLAYS WITHIN ALIGNMENT/SYSTEST/CALCSMSC COMMON STORAGE.
002437:
002438: E5,1400  E5,1673               -COSB              EQUALS   XSM        +2                         #  (2)TMP
002439: E5,1400  E5,1675               SINB               EQUALS   -COSB      +2                         #  (2)TMP
002440:
002441:                                                                                                  #  ALIGNMENT/SYSTEST COMMON STORAGE.     (18D)
002442:
002443: E5,1400  E5,1735               STARAD             EQUALS   ZDC        +6                         #  I(18D)TMP
002444:
002445:                                                                                                  #  ALIGNMENT/SYSTEST/AUTO OPTICS COMMON STORAGE. (17D)
002446:
002447: E5,1400  E5,1757               OGC                EQUALS   STARAD     +18D                       #  I(2)TMP
002448: E5,1400  E5,1761               IGC                EQUALS   OGC        +2                         #  I(2)TMP
002449: E5,1400  E5,1763               MGC                EQUALS   IGC        +2                         #  I(2)TMP
002450: E5,1400  E5,1765               STAR               EQUALS   MGC        +2                         #  I(6)TMP
002451: E5,1400  E5,1773               SAC                EQUALS   STAR       +6                         #  I(2)TMP
002452: E5,1400  E5,1775               PAC                EQUALS   SAC        +2                         #  I(2)TMP
002453: E5,1400  E5,1777               QMIN               EQUALS   PAC        +2                         #  B(1)TMP
002454:
002455:                                                                                                  #  **** COLP50S ****                     (1D)
002456: E5,1400  E5,1735               CULTRIX            EQUALS   VEARTH                                #  VEARTH, VSUN, VMOON
002457:
002458:                                                                                                  #  OVERLAYS WITHIN ALIGNMENT/SYSTEST COMMON STORAGE.     (24D)
002459:
002460: E5,1400  E5,1735               VEARTH             EQUALS   STARAD                                #  (6)TMP
002461: E5,1400  E5,1743               VSUN               EQUALS   VEARTH     +6                         #  (6)TMP
002462: E5,1400  E5,1751               VMOON              EQUALS   VSUN       +6                         #  (6)TMP
002463: E5,1400  E5,1757               SAX                EQUALS   VMOON      +6                         #  (6)TMP
002464:
002465:                                                                                                  #  *-*-*-*- OVERLAY 2 IN EBANK 5 -*-*-*-*
002466:
002467:                                                                                                  #  CONIC ROUTINES STORAGE.                       (87D)
002468:
002469: E5,1400  E5,1642               DELX               EQUALS   END-W                                 #  I(2)TMP
002470: E5,1400  E5,1644               DELT               EQUALS   DELX       +2                         #  I(2)TMP
002471: E5,1400  E5,1646               URRECT             EQUALS   DELT       +2                         #  I(6)TMP
002472: E5,1400  E5,1654               RCNORM             EQUALS   URRECT     +6                         #  I(2)TMP
002473: E5,1400  E3,1552               XPREV              EQUALS   XKEP                                  #  I(2)TMP
002474: E5,1400  E5,1656               R1VEC              EQUALS   RCNORM     +2                         #  I(6)TMP
002475: E5,1400  E5,1664               R2VEC              EQUALS   R1VEC      +6                         #  I(6)TMP
002476: E5,1400  E5,1672               TDESIRED           EQUALS   R2VEC      +6                         #  I(2)TMP
002477: E5,1400  E5,1674               GEOMSGN            EQUALS   TDESIRED   +2                         #  I(1)TMP
002478: E5,1400  E5,1675               UN                 EQUALS   GEOMSGN    +1                         #  I(6)TMP
002479: E5,1400  E5,1703               VTARGTAG           EQUALS   UN         +6                         #  I(1)TMP
002480: E5,1400  E5,1704               VTARGET            EQUALS   VTARGTAG   +1                         #  I(6)TMP
002481: E5,1400  E5,1712               RTNLAMB            EQUALS   VTARGET    +6                         #  I(1)TMP
002482: E5,1400  E5,1713               U2                 EQUALS   RTNLAMB    +1                         #  I(6)TMP
002483: E5,1400  E5,1721               MAGVEC2            EQUALS   U2         +6                         #  I(2)TMP
002484: E5,1400  E5,1723               UR1                EQUALS   MAGVEC2    +2                         #  I(6)TMP
002485: E5,1400  E5,1731               SNTH               EQUALS   UR1        +6                         #  I(2)TMP
002486: E5,1400  E5,1733               CSTH               EQUALS   SNTH       +2                         #  I(2)TMP
002487: E5,1400  E5,1735               1-CSTH             EQUALS   CSTH       +2                         #  I(2)TMP
002488: E5,1400  E5,1737               CSTH-RHO           EQUALS   1-CSTH     +2                         #  I(2)TMP
002489: E5,1400  E5,1741               P                  EQUALS   CSTH-RHO   +2                         #  I(2)TMP
002490: E5,1400  E5,1743               R1A                EQUALS   P          +2                         #  I(2)TMP
002491: E5,1400  E5,1656               RVEC               EQUALS   R1VEC                                 #  I(6)TMP
002492: E5,1400  E5,1745               VVEC               EQUALS   R1A        +2                         #  I(6)TMP
002493: E5,1400  E5,1712               RTNTT              EQUALS   RTNLAMB                               #  I(1)TMP
002494: E5,1400  E5,1753               ECC                EQUALS   VVEC       +6                         #  I(2)TMP
002495: E5,1400  E5,1712               RTNTR              EQUALS   RTNLAMB                               #  I(1)TMP
002496: E5,1400  E5,1712               RTNAPSE            EQUALS   RTNLAMB                               #  I(1)TMP
002497: E5,1400  E5,1721               R2                 EQUALS   MAGVEC2                               #  I(2)TMP
002498: E5,1400  E5,1755               RTNPRM             EQUALS   ECC        +2                         #  I(1)TMP
002499: E5,1400  E5,1756               SGNRDOT            EQUALS   RTNPRM     +1                         #  I(1)TMP
002500: E5,1400  E5,1757               RDESIRED           EQUALS   SGNRDOT    +1                         #  I(2)TMP
002501: E5,1400  E5,1761               DELDEP             EQUALS   RDESIRED   +2                         #  I(2)TMP
002502: E5,1400  E5,1763               DEPREV             EQUALS   DELDEP     +2                         #  I(2)TMP
002503: E5,1400  E5,1761               TERRLAMB           EQUALS   DELDEP                                #  I(2)TMP
002504: E5,1400  E5,1763               TPREV              EQUALS   DEPREV                                #  I(2)TMP
002505:
002506:                                                                                                  #  *-*-*-*- OVERLAY 3 IN EBANK 5 -*-*-*-*
002507:
002508:                                                                                                  #  MEASUREMENT INCORPORATION STORAGE.    (66D)
002509:                                                                                                  #  (CALLED BY P20, P22, P23)
002510:
002511: E5,1400  E5,1642               OMEGAM1            EQUALS   END-W                                 #  I(6)TMP
002512: E5,1400  E5,1650               OMEGAM2            EQUALS   OMEGAM1    +6                         #  I(6)TMP
002513: E5,1400  E5,1656               OMEGAM3            EQUALS   OMEGAM2    +6                         #  I(6)TMP
002514: E5,1400  E5,1664               HOLDW              EQUALS   OMEGAM3    +6                         #  I(18)TMP
002515: E5,1400  E5,1706               TDPOS              EQUALS   HOLDW      +18D                       #  I(6)TMP
002516: E5,1400  E5,1714               TDVEL              EQUALS   TDPOS      +6                         #  I(6)TMP
002517:
002518: E5,1400  E5,1722               ZI                 EQUALS   TDVEL      +6                         #  I(18)
002519:
002520:                                                                                                  #  P22-P23 STORAGE.                      (8D)
002521:
002522: E5,1400  E5,1744               22SUBSCL           EQUALS   ZI         +18D                       #  DE OF ABCDE LANDMARK ID NO.
002523: E5,1400  E5,1745               CXOFF              EQUALS   22SUBSCL   +1                         #  B OF ABCDE OFFSET INDICATOR
002524: E5,1400  E5,1746               8KK                EQUALS   CXOFF      +1                         #  B(1)TMP INDEX OF PRESENT MARK.
002525: E5,1400  E5,1747               8NN                EQUALS   8KK        +1                         #  B(1)TMP
002526: E5,1400  E5,1750               S22LOC             EQUALS   8NN        +1                         #  I(1)TMP MARK DATA LOC
002527: E5,1400  E5,1751               LANDMARK           EQUALS   S22LOC     +1                         #  B(1)DSP NOUN 70 FOR P22,51, R52,53.
002528: E5,1400  E5,1752               HORIZON            EQUALS   LANDMARK   +1                         #  B(1)DSP NOUN 70 FOR P22,51, R52,53.
002529: E5,1400  E5,1753               IDOFLMK            EQUALS   HORIZON    +1                         #  B(1)
002530:
002531:                                                                                                  #  ******P23***                          (1D)
002532: E5,1400  E5,1754               TRUNION            EQUALS   IDOFLMK    +1                         #  B(1)
002533:
002534:
002535:                                                                                                  #  *-*-*-*- OVERLAY 0 IN EBANK 5 -*-*-*-*
002536:
002537:                                                                                                  #  SYSTEM TEST STORAGE.                          (174)
002538:
002539: E5,1400                        AZIMUTH            ERASE    +1
002540: E5,1402                        LATITUDE           ERASE    +1
002541:
002542: E5,1404     1160               TRUNA              EQUALS   DESOPTT
002543: E5,1404     1161               SHAFTA             EQUALS   DESOPTS
002544:
002545: E5,1404                        ERVECTOR           ERASE    +5
002546: E5,1412                        LENGTHOT           ERASE
002547: E5,1413                        LOSVEC             ERASE    +5
002548:
002549: E5,1421  E5,1413               SXTOPTN            =        LOSVEC
002550: E5,1421                        NDXCTR             ERASE
002551: E5,1422                        PIPINDEX           ERASE
002552: E5,1423                        POSITON            ERASE
002553: E5,1424                        QPLAC              ERASE
002554: E5,1425                        QPLACE             ERASE
002555: E5,1426                        QPLACES            ERASE
002556: E5,1427                        RUN                ERASE
002557: E5,1430                        STOREPL            ERASE
002558: E5,1431                        SOUTHDR            ERASE
002559: E5,1432  E5,1431               TARG1/2            =        SOUTHDR
002560: E5,1432                        TAZEL1             ERASE    +5
002561: E5,1440                        TEMPTIME           ERASE    +1
002562: E5,1442                        TMARK              ERASE    +1
002563: E5,1444                        GENPL              ERASE    +134D
002564: E5,1653  E5,1444               CDUTIMEI           =        GENPL
002565: E5,1653  E5,1446               CDUTIMEF           =        GENPL      +2
002566: E5,1653  E5,1450               IMU/OPT            =        GENPL      +4
002567: E5,1653  E5,1451               CDUREADF           =        GENPL      +5
002568: E5,1653  E5,1452               CDUREADI           =        GENPL      +6
002569: E5,1653  E5,1453               CDULIMIT           =        GENPL      +7
002570:
002571: E5,1653  E5,1450               TEMPADD            =        GENPL      +4
002572: E5,1653  E5,1451               TEMP               =        GENPL      +5
002573: E5,1653  E5,1452               NOBITS             =        GENPL      +6
002574: E5,1653  E5,1453               CHAN               =        GENPL      +7
002575:
002576: E5,1653  E5,1454               LOS1               =        GENPL      +8D
002577: E5,1653  E5,1462               LOS2               =        GENPL      +14D
002578:
002579: E5,1653  E5,1470               CALCDIR            EQUALS   GENPL      +20D
002580: E5,1653  E5,1471               CDUFLAG            EQUALS   GENPL      +21D
002581: E5,1653  E5,1472               GYTOBETQ           EQUALS   GENPL      +22D
002582: E5,1653  E5,1473               OPTNREG            EQUALS   GENPL      +23D
002583: E5,1653  E5,1474               SAVE               EQUALS   GENPL      +24D                       #  THREE CONSEC LOC
002584: E5,1653  E5,1477               SFCONST1           EQUALS   GENPL      +27D
002585: E5,1653  E5,1500               TIMER              EQUALS   GENPL      +28D
002586:
002587: E5,1653  E5,1502               DATAPL             EQUALS   GENPL      +30D
002588: E5,1653  E5,1444               RDSP               EQUALS   GENPL                                 #  FIX LATER     POSSIBLY KEEP1
002589: E5,1653  E5,1544               MASKREG            EQUALS   GENPL      +64D
002590: E5,1653  E5,1546               CDUNDX             EQUALS   GENPL      +66D
002591: E5,1653  E5,1547               RESULTCT           EQUALS   GENPL      +67D
002592: E5,1653  E5,1552               COUNTPL            EQUALS   GENPL      +70D
002593:
002594: E5,1653  E5,1553               CDUANG             EQUALS   GENPL      +71D
002595: E5,1653  E5,1444               AINLA              =        GENPL                                 #  OPTIMUM CALIB. AND ALIGNMENT
002596: E5,1653  E5,1444               WANGO              EQUALS   AINLA
002597: E5,1653  E5,1446               WANGI              EQUALS   AINLA      +2D
002598: E5,1653  E5,1450               WANGT              EQUALS   AINLA      +4D
002599: E5,1653  E5,1450               TORQNDX            =        WANGT
002600: E5,1653  E5,1452               DRIFTT             EQUALS   AINLA      +6D
002601: E5,1653  E5,1454               ALX1S              EQUALS   AINLA      +8D
002602: E5,1653  E5,1455               CMPX1              EQUALS   AINLA      +9D
002603: E5,1653  E5,1456               ALK                EQUALS   AINLA      +10D
002604: E5,1653  E5,1472               VLAUNS             EQUALS   AINLA      +22D
002605: E5,1653  E5,1460               THETAX             =        ALK        +2
002606: E5,1653  E5,1474               WPLATO             EQUALS   AINLA      +24D
002607: E5,1653  E5,1500               INTY               EQUALS   AINLA      +28D
002608: E5,1653  E5,1466               THETAN             =        THETAX     +6
002609: E5,1653  E5,1502               ANGZ               EQUALS   AINLA      +30D
002610: E5,1653  E5,1504               INTZ               EQUALS   AINLA      +32D
002611: E5,1653  E5,1506               ANGY               EQUALS   AINLA      +34D
002612: E5,1653  E5,1510               ANGX               EQUALS   AINLA      +36D
002613: E5,1653  E5,1512               DRIFTO             EQUALS   AINLA      +38D
002614: E5,1653  E5,1514               DRIFTI             EQUALS   AINLA      +40D
002615: E5,1653  E5,1520               VLAUN              EQUALS   AINLA      +44D
002616: E5,1653  E5,1474               FILDELV            =        THETAN     +6
002617: E5,1653  E5,1522               ACCWD              EQUALS   AINLA      +46D
002618: E5,1653  E5,1476               INTVEC             =        FILDELV    +2
002619: E5,1653  E5,1530               POSNV              EQUALS   AINLA      +52D
002620: E5,1653  E5,1532               DPIPAY             EQUALS   AINLA      +54D
002621: E5,1653  E5,1536               DPIPAZ             EQUALS   AINLA      +58D
002622: E5,1653  E5,1540               ALTIM              EQUALS   AINLA      +60D
002623: E5,1653  E5,1541               ALTIMS             EQUALS   AINLA      +61D
002624: E5,1653  E5,1542               ALDK               EQUALS   AINLA      +62D
002625: E5,1653  E5,1560               DELM               EQUALS   AINLA      +76D
002626: E5,1653  E5,1570               WPLATI             EQUALS   AINLA      +84D
002627: E5,1653  E5,1577               RESTARPT           =        AINLA      +91D
002628: E5,1653  E5,1631               GEOSAVED           =        AINLA      +117D
002629: E5,1653  E5,1632               PREMTRXC           =        AINLA      +118D
002630: E5,1653  E5,1633               LAUNCHAZ           =        AINLA      +119D
002631: E5,1653  E5,1635               NEWAZMTH           =        AINLA      +121D
002632: E5,1653  E5,1637               OLDAZMTH           =        AINLA      +123D
002633: E5,1653  E5,1641               TOLDAZMT           =        AINLA      +125D
002634: E5,1653  E5,1643               GEOCOMPS           =        AINLA      +127D
002635: E5,1653  E5,1644               1SECXT             =        AINLA      +128D
002636: E5,1653  E5,1645               GTSXTLST           =        AINLA      +129D
002637: E5,1653  E5,1646               ERECTIME           =        AINLA      +130D
002638: E5,1653  E5,1647               ERCOMP             =        AINLA      +131D
002639: E5,1653  E5,1655               ZERONDX            =        AINLA      +137D
002640: E5,1653  E5,1655               GTSOPNDZ           =        ZERONDX
002641:
002642:                                                                                                  #  THE FOLLOWING TAGS ARE USED BY THE 504 IMU CALIBRATION AND ALIGNMENT PROGRAM ONLY.
002643:
002644: E5,1653  E5,1460               THETAX1            EQUALS   ALK        +2
002645: E5,1653  E5,1466               THETAN1            EQUALS   THETAX1    +6
002646: E5,1653  E5,1474               FILDELV1           EQUALS   THETAN1    +6
002647: E5,1653  E5,1476               INTVEC1            EQUALS   FILDELV1   +2
002648: E5,1653  E5,1631               GEOSAVE1           EQUALS   AINLA      +117D
002649: E5,1653  E5,1632               PREMTRX1           EQUALS   AINLA      +118D
002650: E5,1653  E5,1633               LUNCHAZ1           EQUALS   AINLA      +119D
002651: E5,1653  E5,1635               NEWAZ1             EQUALS   LUNCHAZ1   +2
002652: E5,1653  E5,1637               OLDAZ1             EQUALS   LUNCHAZ1   +4
002653: E5,1653  E5,1641               TOLDAZ1            EQUALS   LUNCHAZ1   +6
002654: E5,1653  E5,1643               GEOCOMP1           EQUALS   AINLA      +127D
002655: E5,1653  E5,1644               1SECXT1            EQUALS   AINLA      +128D
002656: E5,1653  E5,1645               GTSWTLT1           EQUALS   AINLA      +129D
002657: E5,1653  E5,1646               ERECTIM1           EQUALS   AINLA      +130D
002658: E5,1653  E5,1647               ERCOMP1            EQUALS   AINLA      +131D                      #  I(6)
002659: E5,1653  E5,1655               ZERONDX1           EQUALS   AINLA      +137D
002660: E5,1653  E5,1656               PERFDLAY           EQUALS   AINLA      +138D                      #  B(2).........
002661:
002662:                                                                                                  #  END OF 504 CAL + ALIGN ERASE.
002663:
002664:
002665:                                                                                                  #  *-*-*-*-  OVERLAY 4 IN EBANK 5  -*-*-*-*
002666:
002667:                                                                                                  #  P32 -- P33                            (26D)
002668: E5,1653  E5,1610               UP1                EQUALS   DVLOS                                 #  I(6)
002669: E5,1653  E5,1616               VPASS2             EQUALS   UP1        +6                         #  I(6)
002670: E5,1653  E5,1624               RPASS2             EQUALS   VPASS2     +6                         #  I(6)
002671: E5,1653  E5,1632               DIFFALT            EQUALS   RPASS2     +6                         #  I(2)
002672: E5,1653  E5,1634               TCDH               EQUALS   DIFFALT    +2                         #  I(2)
002673: E5,1653  E5,1636               TCSI               EQUALS   TCDH       +2                         #  I(2)
002674: E5,1653  E5,1640               TTPIO              EQUALS   TCSI       +2                         #  I(2)
002675:
002676:                                                                                                  #  P32,P33 STORAGE OVERLAYING 9X9 W-MATRIX LOCATIONS     (26D)
002677: E5,1653  E5,1444               DELVEET1           EQUALS   9X9LOC1                               #  I(6) DELV FOR CSI
002678: E5,1653  E5,1452               RACT2              EQUALS   DELVEET1   +6                         #  I(6) POS. ACTIVE VEH. AT CDH TIME
002679: E5,1653  E5,1532               VACT2              EQUALS   9X9LOC2                               #  I(6) VEL. ACTIVE VEH. AT CDH TIME
002680: E5,1653  E5,1540               RACT1              EQUALS   VACT2      +6                         #  I(6) POS. ACTIVE VEH. AT CSI TIME
002681: E5,1653  E5,1546               T1TOT2             EQUALS   RACT1      +6                         #  I(2) TCDH - TCSI
002682: E5,1653  E5,1777               END-E5             EQUALS   QMIN                                  #  LAST USED E5 ADDRESS
002683:
002684:
002685:                                                                                                  #  EBANK-6 ASSIGNMENTS
002686:
002687: E6,1400                                           SETLOC   3000
002688:                                                                                                  #  P23   PAD LOADS ***                   (2D).
002689: E6,1400                        WMIDPOS            ERASE                                          #  I(1)PL INITIAL VALUES FOR W-MATRIX IN
002690: E6,1401                        WMIDVEL            ERASE                                          #  I(1)PL CISLUNAR (P23) NAVIGATION
002691:
002692:                                                                                                  #  R22   PAD LOADS                       (5D).
002693: E6,1402                        RVAR               ERASE    +1                                    #  I(2)PL VHF RADAR
002694: E6,1404                        RVARMIN            ERASE    +2                                    #  I(3)PL VHF RADAR
002695:
002696:                                                                                                  #  ******** PAD LOADED ENTRY DAP STEERING VARIABLES ********     (3D)
002697: E6,1407                        LADPAD             ERASE                                          #  I(1)PL FOR ENTRY. HOLDS CM NOMINAL L/D
002698: E6,1410                        LODPAD             ERASE                                          #  I(1)PL FOR ENTRY. HOLDS CM NOMINAL LOD
002699: E6,1411                        ALFAPAD            ERASE                                          #  B(1)PL ALFA TRIM / 180
002700:
002701:                                                                                                  #  ******** PAD LOADED TVC DAP VARIABLES.**********************************(26D)
002702: E6,1412                        ETDECAY            ERASE                                          #  I(1)PL
002703: E6,1413                        ESTROKER           ERASE                                          #  B(1)PL
002704: E6,1414                        EKPRIME            ERASE    +1                                    #  B(2)PL
002705: E6,1416                        EKTLX/I            ERASE    +2                                    #  B(3)PL
002706: E6,1421                        EREPFRAC           ERASE    +1                                    #  B(2)PL
002707: E6,1423                        PACTOFF            ERASE                                          #  B(1)PL, DSP N48 R01 = PTRIM, R02 = YTRIM
002708: E6,1424                        YACTOFF            ERASE                                          #  B(1)PL, CONSECUTIVE WITH PACTOFF
002709: E6,1425                        HBN10              ERASE                                          #  B(1)
002710: E6,1426                        HBN11/2            ERASE                                          #  B(1)
002711: E6,1427                        HBN12              ERASE                                          #  B(1)
002712: E6,1430                        HBD11/2            ERASE                                          #  B(1)
002713: E6,1431                        HBD12              ERASE                                          #  B(1)
002714: E6,1432                        HBN20              ERASE                                          #  B(1)
002715: E6,1433                        HBN21/2            ERASE                                          #  B(1)
002716: E6,1434                        HBN22              ERASE                                          #  B(1)
002717: E6,1435                        HBD21/2            ERASE                                          #  B(1)
002718: E6,1436                        HBD22              ERASE                                          #  B(1)
002719: E6,1437                        HBN30              ERASE                                          #  B(1)
002720: E6,1440                        HBN31/2            ERASE                                          #  B(1)
002721: E6,1441                        HBN32              ERASE                                          #  B(1)
002722: E6,1442                        HBD31/2            ERASE                                          #  B(1)
002723: E6,1443                        HBD32              ERASE                                          #  B(1)
002724:
002725:                                                                                                  #  ******** EXCLUSIVE TVC DAP VARIABLES. **********************************(5D)
002726: E6,1444                        V97VCNTR           ERASE                                          #  B(1)
002727: E6,1445                        TEMPDAP            ERASE    +1                                    #  B(2)
002728: E6,1447  E6,1445               MRKRTMP            =        TEMPDAP                               #        ((B(1)))
002729: E6,1447                        CNTR               ERASE                                          #  B(1)
002730: E6,1450                        OGAD               ERASE                                          #  B(1)
002731:
002732:                                                                                                  #  ******** EXCLUSIVE RCS DAP VARIABLES.  *********************************(13D)
002733: E6,1451                        RWORD1             ERASE    +12D                                  #  B(1)
002734: E6,1466  E6,1452               RWORD2             EQUALS   RWORD1     +1                         #  B(1)
002735: E6,1466  E6,1453               PWORD1             EQUALS   RWORD2     +1                         #  B(1)
002736: E6,1466  E6,1454               PWORD2             EQUALS   PWORD1     +1                         #  B(1)
002737: E6,1466  E6,1455               YWORD1             EQUALS   PWORD2     +1                         #  B(1)
002738: E6,1466  E6,1456               YWORD2             EQUALS   YWORD1     +1                         #  B(1)
002739: E6,1466  E6,1457               BLAST              EQUALS   YWORD2     +1                         #  B(2)
002740: E6,1466  E6,1461               BLAST1             EQUALS   BLAST      +2                         #  B(2)
002741: E6,1466  E6,1463               BLAST2             EQUALS   BLAST1     +2                         #  B(2)
002742: E6,1466  E6,1465               T5PHASE            EQUALS   BLAST2     +2                         #  B(1)
002743:
002744:                                                                                                  #  ******** RCS/TVC DAP COMMON STORAGE.************************************(16D)
002745: E6,1466                        DAPDATR1           ERASE                                          #  B(1)DSP NOUN 46(R1)
002746: E6,1467                        DAPDATR2           ERASE                                          #  B(1)DSP NOUN 46(R2)
002747:
002748: E6,1470                        IXX                ERASE                                          #  B(1) CONSECUTIVE WITH IAVG, IAVG/TLX FOR
002749: E6,1471                        IAVG               ERASE                                          #  B(1)                            MASSPROP
002750: E6,1472                        IAVG/TLX           ERASE                                          #  B(1)
002751:
002752: E6,1473                        LEMMASS            ERASE                                          #  B(1)DSP NOUN 47 (R2)
002753: E6,1474                        CSMMASS            ERASE                                          #  B(1)DSP NOUN 47 (R1)
002754: E6,1475                        WEIGHT/G           ERASE
002755: E6,1476  E6,1475               MASS               =        WEIGHT/G
002756:
002757: E6,1476                        AK                 ERASE
002758: E6,1477                        AK1                ERASE
002759: E6,1500                        AK2                ERASE
002760:
002761: E6,1501                        RCSFLAGS           ERASE                                          #  B(1) CONSECUTIVE WITHAK2 DOWNLINK
002762: E6,1502                        T5TEMP             ERASE                                          #  B(1)
002763: E6,1503                        EDRIVEX            ERASE
002764: E6,1504                        EDRIVEY            ERASE
002765: E6,1505                        EDRIVEZ            ERASE
002766:
002767:                                                                                                  #  INTEMP THRU INTEMP+14D ARE RESERVED FOR OVERLAYED TVC/RCS INTERUP TRUE TEMPORIES
002768: E6,1506                        INTTEMP            ERASE    +14D                                  #  (15)
002769:
002770:                                                                                                  #  TVC/RCS THRU TVCRCS +11D RESERVED FOR DOWNLINKED VARIABLES
002771: E6,1525                        TVCRCS             ERASE    +11D                                  #  (12)
002772:                                                                                                  #  RCS (WBODYS,ADOTS)
002773:                                                                                                  #  TVC(OMEGACS,OMEGABS)
002774:
002775:                                                                                                  #  TVC DAP TEMPORARY VARIABLES************************************
002776:
002777:                                                                                                  #  TVC DAP INTERUPT TRUE TEMPORARIES******************************
002778:
002779: E6,1541  E6,1506               PHI333             EQUALS   INTTEMP                               #  B(1) COUNTING REGISTER
002780: E6,1541  E6,1507               PSI333             EQUALS   PHI333     +1                         #  B(1) COUNTING REGISTER
002781: E6,1541  E6,1510               TEMP333            EQUALS   PSI333     +1                         #  B(1) MASS TEMPORARY
002782: E6,1541  E6,1511               VARST0             EQUALS   TEMP333    +1                         #  B(8) BREAKPOINTS AND SLOPES
002783: E6,1541  E6,1516               VARST5             =        VARST0     +5
002784: E6,1541  E6,1522               LASTMASP           EQUALS   VARST0     +9D                        #  LAST VARST0 WORD
002785: E6,1541  E6,1523               TVCTMP1            EQUALS   LASTMASP   +1                         #  B(1)
002786:
002787:                                                                                                  #  *******REGULAR TVC TEMPORARIES*************
002788:
002789:                                                                                                  #  TVC ZEROING LOOP STARTS HERE
002790:
002791: E6,1541  E6,1525               OMEGAC             EQUALS   TVCRCS                                #  I(6)
002792: E6,1541  E6,1525               OMEGAXC            =        OMEGAC
002793: E6,1541  E6,1527               OMEGAYC            =        OMEGAC     +2
002794: E6,1541  E6,1531               OMEGAZC            =        OMEGAC     +4
002795:
002796: E6,1541  E6,1533               OMEGAB             EQUALS   TVCRCS     +6                         #  B(6)
002797: E6,1541  E6,1533               OMEGAXB            =        OMEGAB
002798: E6,1541  E6,1535               OMEGAYB            =        OMEGAB     +2
002799: E6,1541  E6,1537               OMEGAZB            =        OMEGAB     +4
002800:
002801: E6,1541  E6,1541               PTMP1              EQUALS   OMEGAC     +12D                       #  B(2)
002802: E6,1541  E6,1543               PTMP2              EQUALS   PTMP1      +2                         #  B(2)
002803: E6,1541  E6,1545               PTMP3              EQUALS   PTMP2      +2                         #  B(2)
002804: E6,1541  E6,1547               PTMP4              EQUALS   PTMP3      +2                         #  B(2)
002805: E6,1541  E6,1551               PTMP5              EQUALS   PTMP4      +2                         #  B(2)
002806: E6,1541  E6,1553               PTMP6              EQUALS   PTMP5      +2                         #  B(2)
002807:
002808: E6,1541  E6,1555               YTMP1              EQUALS   PTMP6      +2                         #  B(2)
002809: E6,1541  E6,1557               YTMP2              EQUALS   YTMP1      +2                         #  B(2)
002810: E6,1541  E6,1561               YTMP3              EQUALS   YTMP2      +2                         #  B(2)
002811: E6,1541  E6,1563               YTMP4              EQUALS   YTMP3      +2                         #  B(2)
002812: E6,1541  E6,1565               YTMP5              EQUALS   YTMP4      +2                         #  B(2)
002813: E6,1541  E6,1567               YTMP6              EQUALS   YTMP5      +2                         #  B(2)
002814:
002815: E6,1541  E6,1571               ROLLFIRE           EQUALS   YTMP6      +2                         #  B(1)
002816: E6,1541  E6,1572               ROLLWORD           EQUALS   ROLLFIRE   +1                         #  B(1)
002817: E6,1541  E6,1573               TEMREG             EQUALS   ROLLWORD   +1                         #  B(1)
002818:
002819: E6,1541  E6,1574               STROKER            EQUALS   TEMREG     +1                         #  B(1)
002820:
002821: E6,1541  E6,1575               PERRB              EQUALS   STROKER    +1                         #  B(2)
002822: E6,1541  E6,1577               YERRB              EQUALS   PERRB      +2                         #  B(2)
002823:
002824: E6,1541  E6,1601               DELPBAR            EQUALS   YERRB      +2                         #  B(2)
002825: E6,1541  E6,1603               DELYBAR            EQUALS   DELPBAR    +2                         #  B(2)
002826:
002827: E6,1541  E6,1605               PDELOFF            EQUALS   DELYBAR    +2                         #  B(2)
002828: E6,1541  E6,1607               YDELOFF            EQUALS   PDELOFF    +2                         #  B(2)
002829:
002830:                                                                                                  #  TVC ZEROING LOOP ENDS HERE
002831: E6,1541  E6,1611               TTMP1              EQUALS   YDELOFF    +2                         #  B(2)
002832: E6,1541  E6,1613               TTMP2              EQUALS   TTMP1      +2                         #  B(2)
002833: E6,1541  E6,1615               DAP1               EQUALS   TTMP2      +2                         #  B(2)
002834: E6,1541  E6,1617               DAP2               EQUALS   DAP1       +2                         #  B(2)
002835: E6,1541  E6,1621               DAP3               EQUALS   DAP2       +2                         #  B(2)
002836:
002837: E6,1541  E6,1623               PCMD               EQUALS   DAP3       +2                         #  B(1)
002838: E6,1541  E6,1624               YCMD               EQUALS   PCMD       +1                         #  B(1), CONSECUTIVE WITH PCMD
002839: E6,1541  E6,1625               T5TVCDT            EQUALS   YCMD       +1                         #  B(1)
002840: E6,1541  E6,1626               MDT                EQUALS   T5TVCDT    +1                         #  I(6)
002841: E6,1541  E6,1634               KPRIMEDT           EQUALS   MDT        +6                         #  I(2)
002842: E6,1541  E6,1636               KTLX/I             EQUALS   KPRIMEDT   +2                         #  B(1)
002843: E6,1541  E6,1637               TENMDOT            EQUALS   KTLX/I     +1                         #  B(1)
002844: E6,1541  E6,1640               1/CONACC           EQUALS   TENMDOT    +1                         #  B(1)
002845: E6,1541  E6,1641               VARK               EQUALS   1/CONACC   +1                         #  B(1)
002846: E6,1541  E6,1642               REPFRAC            EQUALS   VARK       +1                         #  B(1)
002847: E6,1541  E6,1643               VCNTR              EQUALS   REPFRAC    +1                         #  B(1)
002848: E6,1541  E6,1644               TVCPHASE           EQUALS   VCNTR      +1                         #  B(1)
002849: E6,1541  E6,1645               PCDUYPST           EQUALS   TVCPHASE   +1                         #  B(1)
002850: E6,1541  E6,1646               PCDUZPST           EQUALS   PCDUYPST   +1                         #  B(1)
002851: E6,1541  E6,1647               YCDUYPST           EQUALS   PCDUZPST   +1                         #  B(1)
002852: E6,1541  E6,1650               YCDUZPST           EQUALS   YCDUYPST   +1                         #  B(1)
002853: E6,1541  E6,1651               MCDUYDOT           EQUALS   YCDUZPST   +1                         #  B(1)
002854: E6,1541  E6,1652               MCDUZDOT           EQUALS   MCDUYDOT   +1                         #  B(1)
002855: E6,1541  E6,1653               TVCEXPHS           EQUALS   MCDUZDOT   +1                         #  B(1)
002856: E6,1541  E6,1654               MASSTMP            EQUALS   TVCEXPHS   +1                         #  B(1)  PROTECT
002857: E6,1541  E6,1655               VCNTRTMP           EQUALS   MASSTMP    +1                         #  B(1)    *PROTECT***
002858:
002859:                                                                                                  #  STROKE TEST VARIABLES
002860:
002861:                                                                                                  #  (6D)
002862: E6,1541  E6,1656               STRKTIME           EQUALS   VCNTRTMP   +1                         #  B(1)
002863: E6,1541  E6,1657               CADDY              EQUALS   STRKTIME   +1                         #  B(1)
002864: E6,1541  E6,1660               N                  EQUALS   CADDY      +1                         #  B(1)
002865: E6,1541  E6,1661               BUNKER             EQUALS   N          +1                         #  B(1)
002866: E6,1541  E6,1662               REVS               EQUALS   BUNKER     +1                         #  B(1)
002867: E6,1541  E6,1663               CARD               EQUALS   REVS       +1                         #  B(1)
002868:
002869:                                                                                                  #  TVC ROLL DAP VARIABLES
002870:
002871:                                                                                                  #  (8D)
002872: E6,1541  E6,1664               OGANOW             EQUALS   CARD       +1                         #  B(1)
002873: E6,1541  E6,1665               OGAPAST            EQUALS   OGANOW     +1                         #  B(1)
002874: E6,1541  E6,1666               OGA                EQUALS   OGAPAST    +1                         #  B(1)TMP
002875: E6,1541  E6,1666               OGAERR             =        OGA                                   #  (ROLL DAP USES OGA, MEANS OGAERROR)
002876: E6,1541  E6,1667               DELOGART           EQUALS   OGA        +1                         #  B(1)TMP
002877: E6,1541  E6,1670               SGNRT              EQUALS   DELOGART   +1                         #  SIGN OF OGA RATE
002878: E6,1541  E6,1671               DELOGA             EQUALS   SGNRT      +1                         #  USED IN ROLL LOGIC
002879: E6,1541  E6,1672               I                  EQUALS   DELOGA     +1                         #  USED IN ROLL LOGIC
002880: E6,1541  E6,1673               IOGARATE           EQUALS   I          +1                         #  USED IN ROLL LOGIC
002881:
002882:                                                                                                  #  TVC DAP RESTART TEMPORARIES.
002883: E6,1541  E6,1674               PACTTMP            EQUALS   IOGARATE   +1                         #  B(2)
002884: E6,1541  E6,1676               YACTTMP            EQUALS   PACTTMP    +2                         #  B(2)
002885: E6,1541  E6,1700               CNTRTMP            EQUALS   YACTTMP    +2                         #  B(1)
002886: E6,1541  E6,1701               STRKTTMP           EQUALS   CNTRTMP    +1                         #  B(1)
002887: E6,1541  E6,1702               DELBRTMP           EQUALS   STRKTTMP   +1                         #  B(2)
002888: E6,1541  E6,1704               ERRBTMP            EQUALS   DELBRTMP   +2                         #  B(2)
002889: E6,1541  E6,1706               CMDTMP             EQUALS   ERRBTMP    +2                         #  B(2)
002890:
002891: E6,1541  E6,1710               TMP1               EQUALS   CMDTMP     +2                         #  B(2)
002892: E6,1541  E6,1712               TMP2               EQUALS   TMP1       +2                         #  B(2)
002893: E6,1541  E6,1714               TMP3               EQUALS   TMP2       +2                         #  B(2)
002894: E6,1541  E6,1716               TMP4               EQUALS   TMP3       +2                         #  B(2)
002895: E6,1541  E6,1720               TMP5               EQUALS   TMP4       +2                         #  B(2)
002896: E6,1541  E6,1722               TMP6               EQUALS   TMP5       +2                         #  B(2)
002897:
002898:                                                                                                  #  TVC DAP FILTER COEFFICIENTS TEMPORARIES
002899: E6,1541  E6,1724               COEFFADR           EQUALS   TMP6       +2                         #  B(1)
002900: E6,1541  E6,1725               N10                EQUALS   COEFFADR   +1                         #  I(15)
002901:
002902:                                                                                                  #  OVERLAYS WITHIN TVC DAP
002903:
002904: E6,1541  E6,1533               OGARATE            =        OMEGAB                                #  B(2)
002905:
002906: E6,1541  E6,1611               PHASETMP           =        TTMP1                                 #  B(1) RESTART FOR CSM/LM V46 SWITCH-OVER
002907: E6,1541  E6,1613               RTRNLOC            =        TTMP2                                 #  B(1) RESTART FOR CSM/LM V46 SWITCH-OVER
002908: E6,1541  E6,1704               BZERO              =        ERRBTMP
002909: E6,1541  E6,1704               CZERO              =        ERRBTMP
002910: E6,1541  E6,1706               JZERO              =        CMDTMP
002911: E6,1541  E6,1706               YZERO              =        CMDTMP
002912:
002913:                                                                                                  #  S40.9 STORAGE..........
002914:
002915: E6,1541  E6,1744               NBRCYCLS           EQUALS   N10        +15D                       #  B(1) COUNTER FOR P40,41 STEERING
002916: E6,1541  E6,1745               NBRCYCLP           EQUALS   NBRCYCLS   +1                         #  B(1) MAINTAIN ORDER
002917: E6,1541  E6,1746               DELVSUM            EQUALS   NBRCYCLP   +1                         #  I(6) P40,P41
002918: E6,1541  E6,1754               DELVSUMP           EQUALS   DELVSUM    +6                         #  I(6) P40,P41
002919:
002920:                                                                                                  #  ******** RCS DAP TEMPORARY VARIABLES.***********************************(95D)
002921:
002922:                                                                                                  #  **RCS INTERUPT TRUE TEMPS *************************                     15D
002923: E6,1541  E6,1506               SPNDX              EQUALS   INTTEMP                               #  B(1)
002924: E6,1541  E6,1507               DPNDX              EQUALS   SPNDX      +1                         #  B(1)TMP
002925: E6,1541  E6,1510               KMPAC              EQUALS   DPNDX      +1                         #  B(2)TMP
002926: E6,1541  E6,1512               KMPTEMP            EQUALS   KMPAC      +2                         #  B(1)TMP
002927:
002928: E6,1541  E6,1513               XNDX1              EQUALS   KMPTEMP    +1                         #  B(1)TMP XNDX1 THRU NYJETS ARE OVERLAYED
002929: E6,1541  E6,1514               XNDX2              EQUALS   XNDX1      +1                         #  B(1)TMP BY OTHER DAP ERASABLES SO
002930: E6,1541  E6,1515               YNDX               EQUALS   XNDX2      +1                         #  B(1)TMP SHOULD ALWAYS BE DEFINED IN
002931: E6,1541  E6,1516               ZNDX               EQUALS   YNDX       +1                         #  B(1)TMP A BLOCK
002932: E6,1541  E6,1517               RINDEX             EQUALS   ZNDX       +1                         #  B(1)TMP
002933: E6,1541  E6,1520               PINDEX             EQUALS   RINDEX     +1                         #  B(1)TMP
002934: E6,1541  E6,1521               YINDEX             EQUALS   PINDEX     +1                         #  B(1)TMP
002935: E6,1541  E6,1522               NRJETS             EQUALS   YINDEX     +1                         #  B(1)TMP
002936: E6,1541  E6,1523               NPJETS             EQUALS   NRJETS     +1                         #  B(1)TMP
002937: E6,1541  E6,1524               NYJETS             EQUALS   NPJETS     +1                         #  B(1)TMP
002938:
002939: E6,1541  E6,1513               WTEMP              EQUALS   XNDX1                                 #  B(2)TMP WTEMP THRU DELTEMPZ OVERLAY
002940: E6,1541  E6,1515               DELTEMPX           EQUALS   WTEMP      +2                         #  B(2)TMP XNDX1 THRU NRJETS AND EDOT THRU
002941: E6,1541  E6,1517               DELTEMPY           EQUALS   DELTEMPX   +2                         #  B(2)TMP ADBVEL
002942: E6,1541  E6,1521               DELTEMPZ           EQUALS   DELTEMPY   +2                         #  B(2)TMP
002943:
002944: E6,1541  E6,1515               EDOT               EQUALS   YNDX                                  #  B(2)TMP EDOT THRU ADBVEL OVERLAY
002945: E6,1541  E6,1517               AERR               EQUALS   EDOT       +2                         #  B(1)TMP YNDX THRU NPJETS AND DELTEMPX
002946: E6,1541  E6,1520               EDOTVEL            EQUALS   AERR       +1                         #  B(2)TMP THRU DELTEMPZ
002947: E6,1541  E6,1522               AERRVEL            EQUALS   EDOTVEL    +2                         #  B(1)TMP
002948: E6,1541  E6,1523               ADBVEL             EQUALS   AERRVEL    +1                         #  B(1)TMP
002949:
002950:                                                                                                  #  *** REGULAR RCS TEMPS*****************************                      (   ).
002951:
002952:                                                                                                  #   RCS ZEROING LOOP STARTS HERE****  ** **  ** ***   *** * *              (37)
002953: E6,1541  E6,1525               WBODY              EQUALS   TVCRCS                                #  B(2)TMP
002954: E6,1541  E6,1527               WBODY1             EQUALS   WBODY      +2                         #  B(2)TMP
002955: E6,1541  E6,1531               WBODY2             EQUALS   WBODY      +4                         #  B(2)TMP
002956: E6,1541  E6,1533               ADOT               EQUALS   WBODY2     +2                         #  B(2)TMP
002957: E6,1541  E6,1535               ADOT1              EQUALS   ADOT       +2                         #  B(2)TMP
002958: E6,1541  E6,1537               ADOT2              EQUALS   ADOT1      +2                         #  B(2)TMP
002959:
002960: E6,1541  E6,1541               MERRORX            EQUALS   ADOT2      +2                         #   (2)
002961: E6,1541  E6,1543               MERRORY            EQUALS   MERRORX    +2                         #   (2)
002962: E6,1541  E6,1545               MERRORZ            EQUALS   MERRORY    +2                         #   (2)
002963: E6,1541  E6,1547               DFT                EQUALS   MERRORZ    +2                         #  B(1)TMP
002964: E6,1541  E6,1550               DFT1               EQUALS   DFT        +1                         #  B(1)TMP
002965: E6,1541  E6,1551               DFT2               EQUALS   DFT1       +1                         #  B(1)TMP
002966: E6,1541  E6,1552               DRHO               EQUALS   DFT2       +1                         #  B(2)TMP
002967: E6,1541  E6,1554               DRHO1              EQUALS   DRHO       +2                         #  B(2)TMP
002968: E6,1541  E6,1556               DRHO2              EQUALS   DRHO1      +2                         #  B(2)TMP
002969: E6,1541  E6,1560               ATTSEC             EQUALS   DRHO2      +2                         #  B(1)TMP
002970: E6,1541  E6,1561               TAU                EQUALS   ATTSEC     +1                         #  B(1)TMP
002971: E6,1541  E6,1562               TAU1               EQUALS   TAU        +1                         #  B(1)TMP
002972: E6,1541  E6,1563               TAU2               EQUALS   TAU1       +1                         #  B(1)TMP
002973: E6,1541  E6,1564               BIAS               EQUALS   TAU2       +1                         #  B(1)TMP
002974: E6,1541  E6,1565               BIAS1              EQUALS   BIAS       +1                         #  B(1)TMP
002975: E6,1541  E6,1566               BIAS2              EQUALS   BIAS1      +1                         #  B(1)TMP
002976: E6,1541  E6,1567               ERRORX             EQUALS   BIAS2      +1                         #  B(1)TMP
002977: E6,1541  E6,1570               ERRORY             EQUALS   ERRORX     +1                         #  B(1)TMP
002978: E6,1541  E6,1571               ERRORZ             EQUALS   ERRORY     +1                         #  B(1)TMP
002979:
002980:                                                                                                  #  RCS ZERO LOOP ENDS HERE
002981:                                                                                                  #        MORE RCS                        (69D)
002982: E6,1541  E6,1572               THETADX            EQUALS   ERRORZ     +1                         #  B(1)TMP MUST BE CONSECUTIVE WITH ERRORZ
002983: E6,1541  E6,1573               THETADY            EQUALS   THETADX    +1                         #  B(1)TMP
002984: E6,1541  E6,1574               THETADZ            EQUALS   THETADY    +1                         #  B(1)TMP
002985:
002986: E6,1541  E6,1575               DELCDUX            EQUALS   THETADZ    +1                         #  B(2)TMP
002987: E6,1541  E6,1577               DELCDUY            EQUALS   DELCDUX    +2                         #  B(2)TMP
002988: E6,1541  E6,1601               DELCDUZ            EQUALS   DELCDUY    +2                         #  B(2)TMP
002989:
002990: E6,1541  E6,1603               DCDU               EQUALS   DELCDUZ    +2                         #  B(6)TMP USED DURING P20
002991: E6,1541  E6,1611               DTHETASM           EQUALS   DCDU       +6                         #  B(6)TMP STEER LOW OUTPUT.
002992:
002993: E6,1541  E6,1617               ATTKALMN           EQUALS   DTHETASM   +6                         #  B(1)TMP
002994: E6,1541  E6,1620               KMJ                EQUALS   ATTKALMN   +1                         #  B(1)TMP
002995: E6,1541  E6,1621               KMJ1               EQUALS   KMJ        +1                         #  B(1)TMP
002996: E6,1541  E6,1622               KMJ2               EQUALS   KMJ1       +1                         #  B(1)TMP
002997: E6,1541  E6,1623               J/M                EQUALS   KMJ2       +1                         #  B(1)TMP
002998: E6,1541  E6,1624               J/M1               EQUALS   J/M        +1                         #  B(1)TMP
002999: E6,1541  E6,1625               J/M2               EQUALS   J/M1       +1                         #  B(1)TMP
003000: E6,1541  E6,1626               RACFAIL            EQUALS   J/M2       +1                         #  B(1)TMP
003001: E6,1541  E6,1627               RBDFAIL            EQUALS   RACFAIL    +1                         #  B(1)TMP
003002: E6,1541  E6,1630               ACORBD             EQUALS   RBDFAIL    +1                         #  B(1)TMP
003003: E6,1541  E6,1631               XTRANS             EQUALS   ACORBD     +1                         #  B(1)TMP
003004: E6,1541  E6,1632               CH31TEMP           EQUALS   XTRANS     +1                         #  B(1)TMP
003005: E6,1541  E6,1633               CHANTEMP           EQUALS   CH31TEMP   +1                         #  B(1)TMP
003006: E6,1541  E6,1634               T5TIME             EQUALS   CHANTEMP   +1                         #  B(1)TMP
003007: E6,1541  E6,1635               RHO                EQUALS   T5TIME     +1                         #  B(1)TMP
003008: E6,1541  E6,1636               RHO1               EQUALS   RHO        +1                         #  B(1)TMP
003009: E6,1541  E6,1637               RHO2               EQUALS   RHO1       +1                         #  B(1)TMP
003010: E6,1541  E6,1640               AMGB1              EQUALS   RHO2       +1                         #  B(1)TMP
003011: E6,1541  E6,1641               AMGB4              EQUALS   AMGB1      +1                         #  B(1)TMP
003012: E6,1541  E6,1642               AMGB5              EQUALS   AMGB4      +1                         #  B(1)TMP
003013: E6,1541  E6,1643               AMGB7              EQUALS   AMGB5      +1                         #  B(1)TMP
003014: E6,1541  E6,1644               AMGB8              EQUALS   AMGB7      +1                         #  B(1)TMP
003015: E6,1541  E6,1645               CAPSI              EQUALS   AMGB8      +1                         #  B(1)TMP
003016: E6,1541  E6,1646               CDUXD              EQUALS   CAPSI      +1                         #  B(2)TMP
003017: E6,1541  E6,1650               CDUYD              EQUALS   CDUXD      +2                         #  B(2)TMP
003018: E6,1541  E6,1652               CDUZD              EQUALS   CDUYD      +2                         #  B(2)TMP
003019: E6,1541  E6,1654               SLOPE              EQUALS   CDUZD      +2                         #  B(1)TMP
003020: E6,1541  E6,1655               ADB                EQUALS   SLOPE      +1                         #  B(1)TMP
003021: E6,1541  E6,1656               RMANNDX            EQUALS   ADB        +1                         #  B(1)TMP
003022: E6,1541  E6,1657               PMANNDX            EQUALS   RMANNDX    +1                         #  B(1)TMP
003023: E6,1541  E6,1660               YMANNDX            EQUALS   PMANNDX    +1                         #  B(1)TMP MUST BE LAST VARIABLE IN RCS
003024:
003025:                                                                                                  #  ******** ENTRY DAP TEMPORARY VARIABLES.*********************************(69D)
003026:
003027:                                                                                                  #  ANGLE REGISTERS FOR ENTRY DAPS
003028: E6,1541  E6,1661               AOG                EQUALS   BCDU                                  #  1P
003029: E6,1541  E6,1662               AIG                EQUALS   AOG        +1                         #  1P
003030: E6,1541  E6,1663               AMG                EQUALS   AIG        +1                         #  1P
003031: E6,1541  E6,1664               ROLL/180           EQUALS   AMG        +1                         #  1P
003032: E6,1541  E6,1665               ALFA/180           EQUALS   ROLL/180   +1                         #  1P
003033: E6,1541  E6,1666               BETA/180           EQUALS   ALFA/180   +1                         #  1P
003034: E6,1541  E6,1667               AOG/PIP            EQUALS   BETA/180   +1                         #  1P
003035: E6,1541  E6,1670               AIG/PIP            EQUALS   AOG/PIP    +1                         #  1P
003036: E6,1541  E6,1671               AMG/PIP            EQUALS   AIG/PIP    +1                         #  1P
003037: E6,1541  E6,1672               ROLL/PIP           EQUALS   AMG/PIP    +1                         #  1P
003038: E6,1541  E6,1673               ALFA/PIP           EQUALS   ROLL/PIP   +1                         #  1P
003039: E6,1541  E6,1674               BETA/PIP           EQUALS   ALFA/PIP   +1                         #  1P
003040:
003041:                                                                                                  #  GYMBAL DIFFERENCES OVER INTERVAL TCDU = .1 SEC.
003042: E6,1541  E6,1675               -DELAOG            EQUALS   BETA/PIP   +1                         #  1P
003043: E6,1541  E6,1676               -DELAIG            EQUALS   -DELAOG    +1                         #  1P
003044: E6,1541  E6,1677               -DELAMG            EQUALS   -DELAIG    +1                         #  1P
003045:
003046:                                                                                                  #  ESTIMATED BODY RATES
003047: E6,1541  E6,1700               CMDAPMOD           EQUALS   -DELAMG    +1                         #  1P GOES BEFORE PREL FOR TM.
003048:
003049: E6,1541  E6,1701               PREL               EQUALS   CMDAPMOD   +1                         #  1P P TCDU/180         (ROLLDOT)
003050: E6,1541  E6,1702               QREL               EQUALS   PREL       +1                         #  1P Q TCDU/180         (PITCHDOT)
003051: E6,1541  E6,1703               RREL               EQUALS   QREL       +1                         #  1P R TCDU/180         (YAWDOT)
003052:
003053: E6,1541  E6,1704               BETADOT            EQUALS   RREL       +1                         #  1P MUST FOLLOW RREL. BETADOT TCDU/180
003054: E6,1541  E6,1705               PHIDOT             EQUALS   BETADOT    +1                         #  1P
003055:
003056:                                                                                                  #  OLD (UNAVERAGED) BODY RATE MEASURE
003057: E6,1541  E6,1706               OLDELP             EQUALS   PHIDOT     +1                         #  1P
003058: E6,1541  E6,1707               OLDELQ             EQUALS   OLDELP     +1                         #  1P
003059: E6,1541  E6,1710               OLDELR             EQUALS   OLDELQ     +1                         #  1P
003060:
003061: E6,1541  E6,1711               JETAG              EQUALS   OLDELR     +1                         #  1P
003062: E6,1541  E6,1712               TUSED              EQUALS   JETAG      +1                         #  1P ELAPSED TIME SINCE NOMINAL UPDATE.
003063:
003064:                                                                                                  #  FOLLOWING 3 SP WORDS IN DOWNLINK.  ROLLTM SENT EACH 1 SEC.
003065: E6,1541  E6,1713               PAXERR1            EQUALS   TUSED      +1                         #  1P INTEGRATED ROLL ERROR/360.
003066: E6,1541  E6,1714               ROLLTM             EQUALS   PAXERR1    +1                         #  1P ROLL/180 FOR TM.
003067: E6,1541  E6,1715               ROLLC              EQUALS   ROLLTM     +1                         #  2P ROLLCOM/360 FROM ENTRY (FOR TM)
003068:                                                                                                  #  >> KEEP ROLLC & ROLLHOLD ADJACENT FOR TP
003069: E6,1541  E6,1717               ROLLHOLD           EQUALS   ROLLC      +2                         #  1P FOR ATTITUDE HOLD IN CMDAPMOD = +1
003070:
003071:                                                                                                  #  ENTRY DAP QUANTITIES THAT SHARE WITH RCS DAP.
003072: E6,1541  E6,1603               ALFACOM            EQUALS   DCDU                                  #  1P KEEP ADJACENT TO BETACOM. <<
003073: E6,1541  E6,1604               BETACOM            EQUALS   ALFACOM    +1                         #  1P
003074:
003075:                                                                                                  #  JET LIST:  DT, JETBITS IN THIS ORDER.
003076: E6,1541  E6,1605               TOFF               EQUALS   BETACOM    +1                         #  1P DP PAIR
003077: E6,1541  E6,1606               TBITS              EQUALS   TOFF       +1                         #  1P
003078: E6,1541  E6,1607               TON2               EQUALS   TBITS      +1                         #  1P DP PAIR
003079: E6,1541  E6,1610               T2BITS             EQUALS   TON2       +1                         #  1P
003080:
003081:                                                                                                  #  MISCELLANEOUS PERMANENT ERASEABLE.
003082: E6,1541  E6,1611               OUTTAG             EQUALS   T2BITS     +1                         #  1P
003083: E6,1541  E6,1612               NUJET              EQUALS   OUTTAG     +1                         #  1P
003084:
003085:                                                                                                  #  MORE ENTRY DAP QUANTITIES THAT DO NOT SHARE WITH RCS DAP.
003086: E6,1541  E6,1720               JETEM              EQUALS   ROLLHOLD   +1                         #  2P THIS DP USED IN RATEAVG.
003087: E6,1541  E6,1722               GAMA               EQUALS   JETEM      +2                         #  1P
003088: E6,1541  E6,1723               GAMDOT             EQUALS   GAMA       +1                         #  1P
003089: E6,1541  E6,1724               POSEXIT            EQUALS   GAMDOT     +1                         #  1P
003090: E6,1541  E6,1725               CM/GYMDT           EQUALS   POSEXIT    +1                         #  1P
003091: E6,1541  E6,1726               HEADSUP            EQUALS   CM/GYMDT   +1                         #  1P DSP NOUN 61 FOR P62,63,64,67.
003092: E6,1541  E6,1727               P63FLAG            EQUALS   HEADSUP    +1                         #  1P INTERLOCK FOR WAKEP62
003093:
003094:                                                                                                  # >> SHARE BELOW WITH RCS RUPT TEMPS (< 15D) <<<
003095: E6,1541  E6,1506               CALFA              EQUALS   SPNDX                                 #  1P
003096: E6,1541  E6,1507               SALFA              EQUALS   CALFA      +1                         #  1P
003097:
003098: E6,1541  E6,1510               SINM               EQUALS   SALFA      +1                         #  1P
003099: E6,1541  E6,1511               COSM               EQUALS   SINM       +1                         #  1P
003100: E6,1541  E6,1512               SINO               EQUALS   COSM       +1                         #  1P
003101: E6,1541  E6,1513               COSO               EQUALS   SINO       +1                         #  1P
003102: E6,1541  E6,1514               SINOCOSM           EQUALS   COSO       +1                         #  1P
003103: E6,1541  E6,1515               COSOCOSM           EQUALS   SINOCOSM   +1                         #  1P
003104:                                                                                                  # >> SHARE ABOVE WITH RCS RUPT TEMPS <<<
003105:
003106:                                                                                                  #  THE FOLLOWING FEW REGISTERS USED ONCE EACH 2 SEC.
003107: E6,1541  E6,1613               -VT/180            EQUALS   NUJET      +1                         #  1P
003108: E6,1541  E6,1614               LCX/360            EQUALS   -VT/180    +1                         #  1P
003109: E6,1541  E6,1615               XD/360             EQUALS   LCX/360    +1                         #  1P
003110: E6,1541  E6,1616               VSQ/4API           EQUALS   XD/360     +1                         #  1P
003111: E6,1541  E6,1617               JNDX               EQUALS   VSQ/4API   +1                         #  1P
003112: E6,1541  E6,1620               JNDX1              EQUALS   JNDX       +1                         #  1P
003113: E6,1541  E6,1621               TON1               EQUALS   JNDX1      +1                         #  1P DP PAIR
003114: E6,1541  E6,1622               T1BITS             EQUALS   TON1       +1                         #  1P
003115:
003116:                                                                                                  #  MISCELLANEOUS REGISTERS USED EACH UPDATE.
003117: E6,1541  E6,1623               CM/SAVE            EQUALS   T1BITS     +1                         #  1P
003118: E6,1541  E6,1624               JETEM2             EQUALS   CM/SAVE    +1                         #  1P TEMPORARY STORAGE
003119:
003120:                                                                                                  #  DAP QUANTITIES SHARED WITH RCS DAP FOR TM & FLIGHT RECORDER.
003121: E6,1541  E6,1567               VDT/180            =        ERRORX                                #  1P (EDIT)
003122: E6,1541  E6,1570               -VT/180E           =        ERRORY                                #  1P (EDIT)
003123:
003124: E6,1541  E6,1476               PAXERR             EQUALS   AK                                    #  1P ROLL ERROR FOR NEEDLES
003125: E6,1541  E6,1572               QAXERR             =        THETADX                               #  1P SINCE AK1 IS ZEROED IN ATM DAP.
003126: E6,1541  E6,1573               RAXERR             =        QAXERR     +1                         #  1P SINCE AK2 IS ZEROED IN TM DAP.
003127:
003128:                                                                                                  #  **** COLMANU (R60,R62) ****
003129: E6,1541  E6,1710               VECQTEMP           EQUALS   COFSKEW
003130:
003131:                                                                                                  #  ******** KALCMANU VARIABLES. (71D) *************************************
003132: E6,1541  E6,1661               BCDU               EQUALS   YMANNDX    +1                         #  B(3)TMP
003133: E6,1541  E6,1664               KSPNDX             EQUALS   BCDU       +3                         #  B(1)TMP
003134: E6,1541  E6,1665               KDPNDX             EQUALS   KSPNDX     +1                         #  B(1)TMP
003135:
003136: E6,1541  E6,1666               TMIS               EQUALS   KDPNDX     +1                         #  I(18) MUST BE IN SAME BANK AS RCS DAP
003137: E6,1541  E6,1710               COFSKEW            EQUALS   TMIS       +18D                       #  I(6)  MUST BE IN SAME BANK AS RCS DAP
003138: E6,1541  E6,1716               CAM                EQUALS   COFSKEW    +6                         #  I(2)  MUST BE IN SAME BANK AS RCS DAP
003139:
003140: E6,1541  E6,1720               MIS                EQUALS   CAM        +2                         #  I(18) (THE REST MAY GO ANYWHERE)
003141: E6,1541  E6,1742               COF                EQUALS   MIS        +18D                       #  I(6)TMP
003142: E6,1541  E6,1750               SCAXIS             EQUALS   COF        +6                         #  I(6)TMP
003143: E6,1541  E6,1756               POINTVSM           EQUALS   SCAXIS     +6                         #  I(6)TMP
003144: E6,1541  E6,1764               AM                 EQUALS   POINTVSM   +6                         #  I(2)TMP
003145: E6,1541  E6,1766               RAD                EQUALS   AM         +2                         #  I(2)TMP
003146:
003147:                                                                                                  #  FIRST-ORDER OVERLAYS IN KALCMANU
003148: E6,1541  E6,1666               KV1                EQUALS   TMIS                                  #  I(6)TMP
003149: E6,1541  E6,1666               MFISYM             EQUALS   TMIS                                  #  I   TMP
003150: E6,1541  E6,1666               TMFI               EQUALS   TMIS                                  #  I   TMP
003151: E6,1541  E6,1666               NCDU               EQUALS   TMIS                                  #  B   TMP
003152: E6,1541  E6,1671               NEXTIME            EQUALS   TMIS       +3                         #  B   TMP
003153: E6,1541  E6,1672               TTEMP              EQUALS   TMIS       +4                         #  B   TMP
003154: E6,1541  E6,1674               KV2                EQUALS   TMIS       +6                         #  I(6)TMP
003155: E6,1541  E6,1674               BIASTEMP           EQUALS   TMIS       +6                         #  B   TMP
003156: E6,1541  E6,1702               KV3                EQUALS   TMIS       +12D                       #  I(6)TMP
003157: E6,1541  E6,1702               OGF                EQUALS   TMIS       +12D                       #  I   TMP
003158:
003159: E6,1541  E6,1710               BRATE              EQUALS   COFSKEW                               #  B   TMP
003160: E6,1541  E6,1716               TM                 EQUALS   CAM                                   #  B   TMP
003161:
003162:                                                                                                  #  SECOND-ORDER OVERLAYS IN KALCMANU
003163: E6,1541  E6,1666               P21                EQUALS   KV1                                   #  I(2)TMP
003164: E6,1541  E6,1670               D21                EQUALS   KV1        +2                         #  I(2)TMP
003165: E6,1541  E6,1672               G21                EQUALS   KV1        +4                         #  I(2)TMP
003166:
003167:                                                                                                  #  SATURN BOOST STORAGE.  SAVE TILL RCS DAP OPERATION.   (17D)
003168: E6,1541  E6,1661               POLYNUM            EQUALS   BCDU                                  #  B(15) PAD LOADED
003169: E6,1541  E6,1673               POLYLOC            =        POLYNUM    +10D
003170: E6,1541  E6,1700               SATRLRT            EQUALS   POLYNUM    +15D                       #  B(2)  PAD LOADED
003171:
003172:                                                                                                  #  MORE P11 STORAGE -PAD LOADED-         (2D)
003173:                                                                                                  #  (NOTE:  THIS PAD LOAD WILL NOT BE PRESERVED THROUGHOUT THE MISSION AS IT SHARES STORAGE WITH KALCMANU,
003174:                                                                                                  #  ENTRY DAP AND TVC DAP)
003175: E6,1541  E6,1702               RPSTART            EQUALS   SATRLRT    +2                         #  B(1) PITCH ROLL START TIME
003176: E6,1541  E6,1703               POLYSTOP           EQUALS   RPSTART    +1                         #  B(1) POLYCUT OFF MINUS RPSTART SEC
003177:
003178:                                                                                                  #  STORAGE FOR VHHDOT AND ATTDSP
003179: E6,1541  E6,1704               BODY3              EQUALS   POLYSTOP   +1                         #  B(1)OUT
003180: E6,1541  E6,1705               BODY2              EQUALS   BODY3      +1                         #  B(1)OUT
003181: E6,1541  E6,1706               BODY1              EQUALS   BODY2      +1                         #  B(1)OUT
003182: E6,1541  E6,1707               SPOLYARG           EQUALS   BODY1      +1                         #  B(1)TMP   ARGUEMENT FOR POLLY
003183:
003184: E6,1541  E6,1503               OLDBODY1           =        EDRIVEX                               #  1 PULSE = 0.0432 DEGREES
003185: E6,1541  E6,1504               OLDBODY2           =        EDRIVEY
003186: E6,1541  E6,1505               OLDBODY3           =        EDRIVEZ
003187:
003188:                                                                                                  #  STORAGE FOR S11.1
003189: E6,1541  E6,1710               VDISP              EQUALS   SPOLYARG   +1                         #  I(2)OUT       2(7) M/CS
003190: E6,1541  E6,1712               HDISP              EQUALS   VDISP      +2                         #  I(2)OUT       2(29) M
003191: E6,1541  E6,1714               HDOTDISP           EQUALS   HDISP      +2                         #  I(2)OUT       2(7) M/CS
003192: E6,1541  E6,1716               BOOSTEMP           EQUALS   HDOTDISP   +2                         #  B(3)TEMP
003193:
003194:                                                                                                  #  P11 SATURN I/F                        (9D)
003195: E6,1541  E6,1721               SATRATE            EQUALS   BOOSTEMP   +3                         #  B(4)PL MANEUVER RATES FOR SATURN STICK
003196: E6,1541  E6,1725               SATSW              EQUALS   SATRATE    +4                         #  B(1)TEM STATUS SW FOR BOOST TAKEOVER
003197: E6,1541  E6,1726               BIASAK             EQUALS   SATSW      +1                         #  B(3)TEM STORE AKBIAS FOR BOOST TAKEOVER
003198: E6,1541  E6,1731               SATSCALE           EQUALS   BIASAK     +3                         #  B(1) SCALE FACTOR FOR SATURN STEERING
003199:
003200:                                                                                                  #  V79 STORAGE.                          (3D)
003201: E6,1541  E6,1732               RATEPTC            EQUALS   SATSCALE   +1                         #  B(1)
003202: E6,1541  E6,1733               DBPTC              EQUALS   RATEPTC    +1                         #  B(1)
003203: E6,1541  E6,1734               OPTPTC             EQUALS   DBPTC      +1                         #  B(1)
003204:
003205:                                                                                                  #  P21 STORAGE.                          (1D)
003206: E6,1541  E6,1770               GENRET             EQUALS   RAD        +2                         #  B(1)TMP
003207:
003208:                                                                                                  #  R61CSM STORAGE.                       (1D)
003209: E6,1541  E6,1771               SAVBNK             EQUALS   GENRET     +1                         #  B(1) S-S SAVE EBANK FOR R61 SUBROUTINE
003210:
003211:                                                                                                  #  CRS61.1 STORAGE FOR AUTOPILOT BANK.   (3D)
003212: E6,1541  E6,1772               SAVEDCDU           EQUALS   SAVBNK     +1                         #  B(3)TMP
003213:
003214:                                                                                                  #  R61 STORAGE.                          (1D)
003215: E6,1541  E6,1775               R61CNTR            EQUALS   SAVEDCDU   +3                         #   (1)TMP
003216:
003217:                                                                                                  #  ENTRY RESTART PROTECTION STORAGE.  -KEEP TEMPS IN ORDER-      (12D)
003218: E6,1541  E6,1770               TEMPROLL           EQUALS   GENRET                                #  B(1)TMP COPY CYCLE REGISTER
003219: E6,1541  E6,1771               TEMPALFA           EQUALS   TEMPROLL   +1                         #  B(1)TMP COPY CYCLE REGISTER
003220: E6,1541  E6,1772               TEMPBETA           EQUALS   TEMPALFA   +1                         #  B(1)TMP COPY CYCLE REGISTER
003221: E6,1541  E6,1773               60GENRET           EQUALS   TEMPBETA   +1                         #  B(1)TMP QSAVE FOR S61.1 AND ENTRY.
003222: E6,1541  E6,1774               S61DT              EQUALS   60GENRET   +1                         #  B(1)TMP VARIABLE DT FOR S61.1 RESTART.
003223:
003224:                                                                                                  #  ENTRY TM SHARING FOR ACCELERATION PROFILE.
003225: E6,1541  E6,1533               XPIPBUF            EQUALS   ADOT                                  #  B(1) PIPA BUFFER FOR TM DURING ENTRY.
003226: E6,1541  E6,1534               YPIPBUF            EQUALS   XPIPBUF    +1                         #  B(1) PIPS FILED HERE EACH .5 SEC APPEAR
003227: E6,1541  E6,1535               ZPIPBUF            EQUALS   YPIPBUF    +1                         #  B(1) ON DOWNLIST ONCE PER SECOND DURING
003228: E6,1541  E6,1536               XOLDBUF            EQUALS   ZPIPBUF    +1                         #  B(1) ENTRY AFTER RCS DAP HAS BEEN DIS-
003229: E6,1541  E6,1537               YOLDBUF            EQUALS   XOLDBUF    +1                         #  B(1) ABLED.  NEWEST PIP VALUE REPLACES
003230: E6,1541  E6,1540               ZOLDBUF            EQUALS   YOLDBUF    +1                         #  B(1) PIPBUF, WHICH IS MOVED INTO OLDBUF.
003231:
003232:                                                                                                  #  REENTRY VARIABLES SHARED WITH RCS DAP FOR TM & FLIGHT RECORDER.
003233: E6,1541  E6,1574               Q7                 =        THETADZ                               #  I(2) HI-WORD ONLY ON DNLIST.
003234: E6,1541  E6,1525               ASPS(TM)           =        WBODY                                 #  I(6)DWN
003235:                                                                                                  #        ASKEP, ASP1, ASPUP, ASPDN, ASP3, ASP3+1
003236:
003237:                                                                                                  #  P37 PAD LOADS                         (1)
003238: E6,1541  E6,1776               P37RANGE           EQUALS   R61CNTR    +1                         #  I(1)PL        *****
003239:
003240: E6,1541  E6,1777               END-E6             =        P37RANGE   +1                         #  FIRST UNUSED ERASABLE LOCATION IN E6
003241:
003242:                                                                                                  #  EBANK-7 ASSIGNMENTS
003243:
003244: E7,1400                                           SETLOC   3400
003245:
003246:                                                                                                  #  *-*-*-*- OVERLAY 0 IN EBANK 7 -*-*-*-*
003247:
003248:                                                                                                  #  EXTERNAL DELTA-V UPDATE.              (21D)
003249:                                                                                                  #  (MUST BE IN ORDER FOR UPDATE PROGRAM.  ALSO ENTRY PROGRAMS PICK UP 'LAT(SPL)' WITH A VLOAD.)
003250:
003251: E7,1400                        LAT(SPL)           ERASE    +20D                                  #  I(2)DSP NOUN 61 FOR P62,63,64,67
003252: E7,1425  E7,1402               LNG(SPL)           EQUALS   LAT(SPL)   +2                         #  I(2)DSP NOUN 61 FOR P62,63,64,67.
003253:
003254: E7,1425  E7,1404               DELVSLV            EQUALS   LNG(SPL)   +2                         #  I(6)TMP DELTA VEL VECT, LOC VER COORDS
003255: E7,1425  E7,1412               TIG                EQUALS   DELVSLV    +6                         #  B(2)DSP NOUN 33 FOR X-V84(R32),P30,40.
003256: E7,1425  E7,1414               RTARG              EQUALS   TIG        +2                         #  I(6)IN DESIRED VEHICHE RADIUS VECTOR
003257: E7,1425  E7,1422               DELLT4             EQUALS   RTARG      +6                         #  I(2)IN TIME DIFFERENCE FOR INITVEL
003258: E7,1425  E7,1424               ECSTEER            EQUALS   DELLT4     +2                         #  I(1)PL FOR P40 S
003259: E7,1425  E7,1404               DELVLVC            =        DELVSLV
003260: E7,1425                        END-DELV           ERASE                                          #  *NEXT AVAIL LOC AFTER UNSHARED E7*
003261:
003262:                                                                                                  #  SERVICER STORAGE.                     (13D)
003263: E7,1426  E7,1425               DVTOTAL            EQUALS   END-DELV                              #  B(2)DSP NOUN 40,99 FOR P30,34,35,40
003264: E7,1426  E7,1427               TGO                EQUALS   DVTOTAL    +2                         #  B(2)
003265: E7,1426  E7,1431               DVCNTR             EQUALS   TGO        +2                         #  B(1)TMP
003266: E7,1426  E7,1432               DELVREF            EQUALS   DVCNTR     +1                         #  I(6)TMP
003267:
003268: E7,1426  E7,1447               NOMTIG             EQUALS   END-KALC                              #  I(2) (CANNOT SHARE WITH KALCMANU
003269:                                                                                                  #        OR DELVREF)
003270: E7,1426  E7,1451               END-SVCR           EQUALS   NOMTIG     +2                         #  ***NEXT AVAILABLE AFTER SERVICER
003271:
003272:                                                                                                  #  ALIGNMENT STORAGE.                    (25D)
003273: E7,1426  E7,1451               XSCD               EQUALS   END-SVCR                              #  I(6)TMP
003274: E7,1426  E7,1457               YSCD               EQUALS   XSCD       +6                         #  I(6)TMP
003275: E7,1426  E7,1465               ZSCD               EQUALS   YSCD       +6                         #  I(6)TMP
003276: E7,1426  E7,1473               VEL/C              EQUALS   ZSCD       +6                         #  I(6)TMP
003277: E7,1426  E7,1501               R53EXIT            EQUALS   VEL/C      +6                         #  I(1)TMP
003278:
003279:                                                                                                  #  ALIGNMENT MARKDATA (DOWNLNK) ******   (7D)
003280: E7,1426  E7,1502               MARK2DWN           EQUALS   R53EXIT    +1                         #   (7) USED BY ALLIGNMENT P50S
003281:
003282:                                                                                                  #  *-*-*-*- OVERLAY 1 IN EBANK 7 -*-*-*-*
003283:
003284:                                                                                                  #  REENTRY ERASABLES                     (206D)
003285: E7,1426  E7,1451               RTINIT             EQUALS   END-SVCR                              #  6P
003286: E7,1426  E7,1457               RTEAST             EQUALS   RTINIT     +6                         #  6P
003287: E7,1426  E7,1465               RTNORM             EQUALS   RTEAST     +6                         #  6P
003288: E7,1426  E7,1473               RT                 EQUALS   RTNORM     +6                         #  6P
003289: E7,1426  E7,1501               UNI                EQUALS   RT         +6                         #  6P
003290: E7,1426  E7,1507               UNITV              EQUALS   UNI        +6                         #  6P
003291: E7,1426  E7,1515               VEL                EQUALS   UNITV      +6                         #  6P
003292:
003293: E7,1426  E7,1523               TIME/RTO           EQUALS   VEL        +6                         #  2P TIME OF INITIAL TARGET, RTO.
003294: E7,1426  E7,1525               -VREL              EQUALS   TIME/RTO   +2                         #  6P
003295: E7,1426  E7,1533               OLDUYA             EQUALS   -VREL      +6                         #  6P USED BY CM/POSE    (ENTRY DAP)
003296: E7,1426  E7,1541               UXA/2              EQUALS   OLDUYA     +6                         #  6P USED BY CM/POSE    (ENTRY DAP) -UVA
003297: E7,1426  E7,1541               URH                =        UXA/2                                 #        P61 DISPLAY NOUN
003298: E7,1426  E7,1547               UYA/2              EQUALS   UXA/2      +6                         #  6P USED BY CM/POSE    (ENTRY DAP) UYA
003299: E7,1426  E7,1555               UZA/2              EQUALS   UYA/2      +6                         #  6P USED BY CM/POSE    (ENTRY DAP) UNA
003300: E7,1426  E7,1563               UBX/2              EQUALS   UZA/2      +6                         #  6P USED BY CM/POSE    (ENTRY DAP)
003301: E7,1426  E7,1571               UBY/2              EQUALS   UBX/2      +6                         #  6P USED BY CM/POSE    (ENTRY DAP)
003302: E7,1426  E7,1577               UBZ/2              EQUALS   UBY/2      +6                         #  6P USED BY CM/POSE    (ENTRY DAP)
003303:
003304: E7,1426  E7,1605               DTEAROT            EQUALS   UBZ/2      +6                         #  2P
003305: E7,1426  E7,1607               DIFF               EQUALS   DTEAROT    +2                         #  2P
003306: E7,1426  E7,1611               DIFFOLD            EQUALS   DIFF       +2                         #  2P
003307: E7,1426  E7,1613               FACTOR             EQUALS   DIFFOLD    +2                         #  2P
003308: E7,1426  E7,1615               FACT1              EQUALS   FACTOR     +2                         #  2P
003309: E7,1426  E7,1617               FACT2              EQUALS   FACT1      +2                         #  2P
003310:                                                                                                  # Q7             =       THETADZ         2P SHARED FOR TM.  P64-P66
003311: E7,1426  E7,1621               VSQUARE            EQUALS   FACT2      +2                         #  2P
003312: E7,1426  E7,1623               LAD                EQUALS   VSQUARE    +2                         #  2P
003313: E7,1426  E7,1625               LOD                EQUALS   LAD        +2                         #  2P
003314: E7,1426  E7,1627               L/DCMINR           EQUALS   LOD        +2                         #  2P
003315: E7,1426  E7,1631               KLAT               EQUALS   L/DCMINR   +2                         #  2P
003316: E7,1426  E7,1633               L/D                EQUALS   KLAT       +2                         #  2P
003317: E7,1426  E7,1635               L/D1               EQUALS   L/D        +2                         #  2P
003318: E7,1426  E7,1724               LEWD               =        VIO                                   #  2P SHARED FOR TM.  P64-P65
003319: E7,1426  E7,1637               D                  EQUALS   L/D1       +2                         #  2P DSP NOUN 64,66,68 FOR P63,64,67
003320:                                                                                                  # V1             =       ENDBUF  +1      2P SHARED FOR TM. P64-P65
003321: E7,1426  E7,1641               DLEWD              EQUALS   D          +2                         #  2P
003322: E7,1426  E7,1643               K2ROLL             EQUALS   DLEWD      +2                         #  2P
003323: E7,1426  E7,1645               GOTOADDR           EQUALS   K2ROLL     +2                         #  1P
003324: E7,1426  E7,1646               TEM1B              EQUALS   GOTOADDR   +1                         #  2P
003325: E7,1426  E7,1650               MM                 EQUALS   TEM1B      +2                         #  2P
003326: E7,1426  E7,1651               GRAD               EQUALS   MM         +1                         #  1P
003327: E7,1426  E7,1652               FX                 EQUALS   GRAD       +1                         #  1P OVERWRITES NEXT 5 LOCS IN P67.
003328: E7,1426  E7,1653               LEQ                EQUALS   FX         +1                         #  2P
003329: E7,1426  E7,1655               DHOOK              EQUALS   LEQ        +2                         #  2P
003330: E7,1426  E7,1657               AHOOKDV            EQUALS   DHOOK      +2                         #  2P
003331: E7,1426  E7,1661               DVL                EQUALS   AHOOKDV    +2                         #  2P
003332:                                                                                                  # A0             =       ENDBUF  +3      2P SHARED FOR TM. (HI-WD) P64-P65
003333: E7,1426  E7,1663               A1                 EQUALS   DVL        +2                         #  2P
003334: E7,1426  E7,1665               VBARS              EQUALS   A1         +2                         #  2P
003335: E7,1426  E7,1667               COSG/2             EQUALS   VBARS      +2                         #  2P
003336:                                                                                                  # GAMMAL         =       GAMMAEI         2P SHARED FOR TM  P66
003337: E7,1426                        GAMMAL1            =        22D                                   #  2P
003338: E7,1426  E7,1671               VS1                EQUALS   COSG/2     +2                         #  2P
003339: E7,1426  E7,1766               VL                 =        VPRED                                 #  2P SHARED FOR TM  P64-P65
003340: E7,1426  E7,1673               V                  EQUALS   VS1        +2                         #  2P
003341:                                                                                                  # VREF           =       THETAD  +2      2P SHARED FOR TM  P65
003342: E7,1426  E7,1675               LATANG             EQUALS   V          +2                         #  2P ADJACENT FOR TM.
003343: E7,1426  E7,1677               RDOT               EQUALS   LATANG     +2                         #  2P ADJACENT FOR TM.
003344: E7,1426  E7,1701               THETAH             EQUALS   RDOT       +2                         #  2P DSP NOUN 64,67 FOR P63,64,67
003345:                                                                                                  # RDOTREF        =       THETAD          2P SHARED FOR TM  P65
003346: E7,1426  E7,1703               ALP                EQUALS   THETAH     +2                         #  2P
003347:
003348: E7,1426  E7,1730               ASKEP              =        ASPS                                  #  2P)                THESE ARE STORED IN
003349: E7,1426  E7,1731               ASP1               =        ASPS       +1                         #  2P)                SEQUENCE, OVERLAPPING
003350: E7,1426  E7,1732               ASPUP              =        ASPS       +2                         #  2P)>HI-WD OF EACH< HI-WORD ONLY APPEARS
003351: E7,1426  E7,1733               ASPDWN             =        ASPS       +3                         #  2P)                ON DOWNLIST, EXCEPT
003352: E7,1426  E7,1734               ASP3               =        ASPS       +4                         #  2P)                ASP3 IS COMPLETE.
003353:
003354: E7,1426  E7,1705               C/D0               EQUALS   ALP        +2                         #  2P    -1/D0
003355: E7,1426  E7,1707               D0                 EQUALS   C/D0       +2                         #  I(2)  CONSTANT DRAG
003356: E7,1426  E7,1711               Q2                 EQUALS   D0         +2                         #  2P
003357:
003358:                                                                                                  #  ROLLC IS LOCATED IN EBANK= AOG TO AID ENTRY DAP.
003359: E7,1426  E7,1713               RTGO               EQUALS   Q2         +2                         #  2P DSP NOUN 66 FOR P64,P67.
003360: E7,1426  E7,1715               DNRNGERR           EQUALS   RTGO       +2                         #  2P DSP NOUN 66 FOR P64,67.
003361: E7,1426  E7,1675               XRNGERR            =        LATANG                                #        FOR DISKY DISPLAY
003362: E7,1426  E7,1717               KAT                EQUALS   DNRNGERR   +2                         #  2P
003363: E7,1426  E7,1721               GMAX               EQUALS   KAT        +2                         #  1P DSP NOUN 60 FOR P61,62,63.
003364:                                                                                                  #  GMAX IS LOADED IN DOUBLE PRECISION
003365: E7,1426  E7,1726               L/DCALC            =        TTE                                   #  2P CALCULATED L/D FOR TM: P64-P67.
003366: E7,1426  E7,1770               GAMMAL             =        GAMMAEI                               #  2P SHARED FOR TM  P64
003367: E7,1426  E7,1770               PREDANG            =        GAMMAEI                               #        FOR TM IN P67.
003368: E7,1426  E7,1771               JJ                 =        PREDANG    +1                         #        FOR TM IN P67.
003369: E7,1426  E7,1722               VMAGI              EQUALS   GMAX       +1                         #  2P DSP NOUN 62,64,68 FOR P11,63,64.
003370: E7,1426  E7,1724               VIO                EQUALS   VMAGI      +2                         #  2P DSP NOUN 63 FOR P61.
003371: E7,1426  E7,1726               TTE                EQUALS   VIO        +2                         #  2P DSP NOUN 63 FOR P61.
003372: E7,1426  E7,1730               ASPS               EQUALS   TTE        +2                         #  I(2) HI-WORD ONLY ON DNLIST FOR TEMP
003373: E7,1426  E7,1732               TTE1               EQUALS   ASPS       +2                         #  I(2ETMP HOLDS UNDECREMENTED TTE VALUE
003374: E7,1426  E7,1734               TTE2               EQUALS   TTE1       +2                         #  I(2) HOLDS COMPENSATED TTE VALUE DURING
003375:                                                                                                  #       P61 THRU P63 FOR  N63 DISPLAY
003376:
003377:                                                                                                  #  **** P6OS ****
003378: E7,1426  E7,1713               RTGON64            EQUALS   RTGO                                  #  RANGE ERRORS NEGATIVE IF FALLS SHORT
003379: E7,1426  E7,1713               RTGON67            EQUALS   RTGO                                  #  DSP NOUN 67
003380:
003381:                                                                                                  #  REENTRY, RETURN TO EARTH COMMON DISPLAY.      (4D)
003382: E7,1426  E7,1766               VPRED              EQUALS   BETA12     +2                         #  DSP NOUN 60 FOR P61,   ,62,63.
003383: E7,1426  E7,1770               GAMMAEI            EQUALS   VPRED      +2                         #  DSP NOUN 60 FOR P61,   ,62,63.
003384:
003385:                                                                                                  #  DISPLAY REGISTER FOR VG               (2D)
003386: E7,1426  E7,1772               VGDISP             EQUALS   GAMMAEI    +2                         #  B(2)DSP N.40,42,99 FOR P30,34,35,37,40,
003387:                                                                                                  #            41 VG DISPLAY
003388:
003389:                                                                                                  #  SOME P11 DISPLAY REGISTERS.           (6D)
003390: E7,1426  E7,1736               ALTI               EQUALS   TTE2       +2                         #  2P DSP NOUN 62 FOR P11.
003391: E7,1426  E7,1740               HDOT               EQUALS   ALTI       +2                         #  2P DSP NOUN 62 FOR P11.
003392:
003393:                                                                                                  #  *-*-*-*- OVERLAY 2 IN EBANK 7 -*-*-*-*
003394:
003395:                                                                                                  #  KALCMANU STORAGE.                             (18D)
003396: E7,1426  E7,1425               MFS                EQUALS   END-DELV                              #  I(18)
003397: E7,1426  E7,1425               MFI                EQUALS   MFS                                   #  I    TMP
003398: E7,1426  E7,1425               DEL                EQUALS   MFS                                   #  I    TMP
003399: E7,1426  E7,1447               END-KALC           EQUALS   MFS        +18D                       #  **NEXT AVAIL LOC AFTER KALCMANU**
003400:
003401:                                                                                                  #  MEASUREMENT INCORPORATION STORAGE (R22) STORAGE.      (56D)
003402:
003403: E7,1426  E7,1447               TX789              EQUALS   END-KALC                              #  I(6)TMP
003404: E7,1426  E7,1455               GAMMA              EQUALS   TX789      +6                         #  I(2)TMP
003405: E7,1426  E7,1457               OMEGA              EQUALS   GAMMA      +2                         #  I(18)TMP
003406: E7,1426  E7,1501               BVECTOR            EQUALS   OMEGA      +18D                       #  I(18)TMP
003407: E7,1426  E7,1523               DELTAQ             EQUALS   BVECTOR    +18D                       #  I(2)TMP
003408: E7,1426  E7,1525               VARIANCE           EQUALS   DELTAQ     +2                         #  I(3)TMP
003409: E7,1426  E7,1530               RCLP               EQUALS   VARIANCE   +3                         #  I(6)TMP
003410: E7,1426  E7,1536               GRP2SVQ            EQUALS   RCLP       +6                         #  I(1)TMP QSAVE FOR RESTARTS
003411:
003412:                                                                                                  #  P20, P22, P23 DSP NOUN                (5D)
003413: E7,1426  E7,1501               N49DISP            EQUALS   BVECTOR                               #  B(5)TMP
003414:
003415:                                                                                                  #  S22.1 STORAGE.                        (36D)
003416: E7,1426  E7,1537               SVMRKDAT           EQUALS   GRP2SVQ    +1                         #  I(36)TMP 5 SETS OF MARK DATA +PAD OF ONE
003417:
003418:                                                                                                  #  **** CISLUNAR NAV.  ERAS.  (P20S) ****        (45D)
003419: E7,1426  E7,1603               TRUNX              EQUALS   SVMRKDAT   +36D
003420: E7,1426  E7,1603               DATATEST           EQUALS   TRUNX                                 #   (1)
003421: E7,1426  E7,1604               UBAR0              EQUALS   TRUNX      +1
003422: E7,1426  E7,1612               UBAR1              EQUALS   UBAR0      +6
003423: E7,1426  E7,1620               UBAR2              EQUALS   UBAR1      +6
003424: E7,1426  E7,1626               RZC                EQUALS   UBAR2      +6
003425: E7,1426  E7,1634               VZC                EQUALS   RZC        +6
003426: E7,1426  E7,1642               UCLSTAR            EQUALS   VZC        +6
003427: E7,1426  E7,1650               USSTAR             EQUALS   UCLSTAR    +6
003428: E7,1426  E7,1656               SRRETURN           EQUALS   USSTAR     +6
003429:
003430:                                                                                                  #  *-*-*-*- OVERLAY 3 IN EBANK 7 -*-*-*-*
003431:
003432:                                                                                                  #  RENDEZVOUS GUIDANCE STORAGE. -P32...P35-      (8D)
003433: E7,1426  E7,1447               DELTEEO            EQUALS   END-KALC                              #  I(2) S-S BACK VALUES OF DELTA TIME
003434: E7,1426  E7,1451               DELEL              EQUALS   DELTEEO    +2                         #  I(2) S-S
003435: E7,1426  E7,1453               SECMAX             EQUALS   DELEL      +2                         #  I(2) S-S MAX STOP SIZE FOR ROUTINE
003436: E7,1426  E7,1455               XXXALT             EQUALS   SECMAX     +2                         #  I(2)
003437:
003438:                                                                                                  #  S40.9 STORAGE.                                (16D)
003439: E7,1426  E7,1457               VG                 EQUALS   XXXALT     +2                         #  I(6)TMP
003440: E7,1426  E7,1465               VRPREV             EQUALS   VG         +6                         #  I(6)
003441: E7,1426  E7,1473               TNIT               EQUALS   VRPREV     +6                         #  I(2)
003442: E7,1426  E7,1475               TNITPREV           EQUALS   TNIT       +2                         #  I(2)
003443:
003444:                                                                                                  #  S40.2,3 STORAGE.                      (1D)
003445: E7,1426  E7,1477               AXISCODE           EQUALS   TNITPREV   +2                         #  I(1)IN
003446:
003447:                                                                                                  #  P30'S-P17 COMMON STORAGE.             (24D)
003448: E7,1426  E7,1537               RACT3              EQUALS   GRP2SVQ    +1                         #  I(6)TMP POSITION OF ACTIVE AT TPI TIME.
003449: E7,1426  E7,1545               VACT3              EQUALS   RACT3      +6                         #  I(6)TMP VELOCITY OF ACTIVE AT TPI TIME.
003450: E7,1426  E7,1553               RPASS3             EQUALS   VACT3      +6                         #  I(6)TMP POSITION OF PASSIVE AT TPI TIME.
003451: E7,1426  E7,1561               VPASS3             EQUALS   RPASS3     +6                         #  I(6)TMP VELOCITY OF PASSIVE AT TPI TIME.
003452:
003453:                                                                                                  #  P76, N84 DISPLAY                      (6D)
003454: E7,1426  E7,1537               DELVOV             EQUALS   RACT3                                 #  I(6)DSP NOUN 84 FOR X-V84, P34-35
003455:
003456:                                                                                                  #  INITVEL/MIDGIM STORAGE.               (34D)
003457:                                                                                                  #        (CALLED BY S34.1,2, S35.1,2, AND S40.9)
003458:                                                                                                  #        (CALLS LAMBERT, CONIC SUBROUTINES)
003459: E7,1426  E7,1567               RINIT              EQUALS   VPASS3     +6                         #  I(6)IN ACTIVE VEHICLE RADIUS VECTOR
003460: E7,1426  E7,1575               VINIT              EQUALS   RINIT      +6                         #  I(6)IN ACTIVE VEHICLE VELOCITY VECTOR
003461: E7,1426  E7,1603               RTARG1             EQUALS   VINIT      +6                         #  I(6)TMP SHIFTED RTARG
003462: E7,1426  E7,1611               VIPRIME            EQUALS   RTARG1     +6                         #  I(6)OUT NEW VEL REQ AT INITIAL RADIUS
003463: E7,1426  E7,1617               VTPRIME            EQUALS   VIPRIME    +6                         #  I(6)OUT TOTAL VELOCITY AT DESIRED RADIUS
003464: E7,1426  E7,1625               +MGA               EQUALS   VTPRIME    +6                         #  I(2)DSP NOUN 45 FOR P30,34,35.  +MID GIM.
003465: E7,1426  E7,1627               COZY4              EQUALS   +MGA       +2                         #  I(2)TMP COSINE OF ANGLE WHEN ROT STARTS
003466:
003467:                                                                                                  #  (THE FOLLOWING OVERLAYS MEASUREMENT INCORP AND CANNOT SHARE WITH TPI
003468: E7,1426  E7,1502               INTIME             EQUALS   AXISCODE   +3
003469: E7,1426  E7,1504               ITCTR              EQUALS   INTIME     +2                         #  I(1)TMP ITERATION COUNTER
003470: E7,1426  E7,1631               END-IN/M           EQUALS   COZY4      +2                         #  ** NEXT AVAIL LOC AFTER INITVEL/MIDGIM **
003471:
003472:                                                                                                  #  P34 AND P33 STORAGE.  (OVERLAYS INITVEL/MIDGIM)       (24D)
003473: E7,1426  E7,1567               VAPREC             EQUALS   RINIT                                 #  I(6) S-S PREC VEC FOR NOM TPI TIME(ACT V
003474: E7,1426  E7,1575               RAPREC             EQUALS   VINIT                                 #  I(6) S-S PREC VEC FOR NOM TPI TIME(ACT V
003475: E7,1426  E7,1611               VPPREC             EQUALS   VIPRIME                               #  I(6) S-S PREC VEC FOR NOM TPI TIME(PASS
003476: E7,1426  E7,1617               RPPREC             EQUALS   VTPRIME                               #  I(6) S-S PREC VEC FOR NOM TPI TIME(PASS
003477:
003478:                                                                                                  #  P30, P40 INTERFACE.                   (20D)
003479: E7,1426  E7,1631               RTIG               EQUALS   END-IN/M                              #  I(6)TMP
003480: E7,1426  E7,1637               VTIG               EQUALS   RTIG       +6                         #  I(6)TMP
003481: E7,1426  E7,1645               DELVSIN            EQUALS   VTIG       +6                         #  I(6)TMP
003482: E7,1426  E7,1645               DELVEET3           EQUALS   DELVSIN                               #      TMP DELTA VEL VECT INERTIAL COORDS.
003483: E7,1426  E7,1645               VGTEMP             EQUALS   DELVEET3
003484: E7,1426  E7,1653               DELVSAB            EQUALS   DELVSIN    +6                         #  I(2)TMP
003485:
003486:                                                                                                  #  P35-P40 INTERFACE STORAGE.  (OVERLAYS P30-P40 I/F STORAGE)    (12D)
003487: E7,1426  E7,1631               RPASS4             EQUALS   RTIG                                  #  I(6)TMP POSITION OF PASSIVE AT INTERCEPT
003488: E7,1426  E7,1637               VPASS4             EQUALS   RPASS4     +6                         #  I(6)TMP VELOCITY OF PASSIVE AT INTERCEPT
003489:
003490:                                                                                                  #  TPI SEARCH (P17)                      (6D)
003491: E7,1426  E7,1645               E2                 EQUALS   VPASS4     +6                         #  I(6)TMP
003492:
003493:                                                                                                  #  P30-P40 COMMON STORAGE.               (3D)
003494: E7,1426  E7,1655               TPASS4             EQUALS   DELVSAB    +2                         #  I(2)TMP
003495: E7,1426  E7,1655               TINT               =        TPASS4                                #  I(2)
003496: E7,1426  E7,1657               QTEMP              EQUALS   TPASS4     +2                         #  I(1)TMP
003497:
003498:                                                                                                  #  P30-P40 STORAGE.                      (4D)
003499: E7,1426  E7,1660               TTOGO              EQUALS   QTEMP      +1                         #  B(2)DSP NOUN 35,40,45,59,99
003500:                                                                                                  #          FOR P30,34,35,40,41,47, R30.
003501: E7,1426  E7,1662               TTPI               EQUALS   TTOGO      +2                         #  B(2)DSP NOUN 37 FOR P34 TPI TIME, CSECS.
003502: E7,1426  E7,1664               END-P30S           EQUALS   TTPI       +2                         #  ** NEXT AVAIL LOC AFTER P30-40 STORAGE. **
003503:
003504:                                                                                                  #  P40 STORAGE.                          (8D)
003505: E7,1426  E7,1664               VGBODY             EQUALS   END-P30S                              #  B(6)DSP NOUN 85 FOR P40,41,42 VG-SC COOR
003506: E7,1426  E7,1664               DELVCTL            =        VGBODY
003507: E7,1426  E7,1672               P40TMP             EQUALS   VGBODY     +6                         #  B(2)TMP
003508:
003509:                                                                                                  #  P47 STORAGE.
003510: E7,1426  E7,1457               DV47TEMP           EQUALS   VG
003511: E7,1426  E7,1674               DELVIMU            EQUALS   P40TMP     +2                         #  I(6)DSP  NOUN 83 FOR P47 DELTAV(IMU)
003512:
003513:                                                                                                  #  S40.1 STORAGE.                        (23D)
003514: E7,1426  E7,1702               CSTEER             EQUALS   DELVIMU    +6                         #  I(2)IN
003515: E7,1426  E7,1704               BDT                EQUALS   CSTEER     +2                         #  I(6)IN
003516: E7,1426  E7,1712               UT                 EQUALS   BDT        +6                         #  I(6)OUT THRUST DIRECTION
003517: E7,1426  E7,1720               VGTIG              EQUALS   UT         +6                         #  I(6)OUT
003518: E7,1426  E7,1720               VGPREV             =        VGTIG
003519: E7,1426  E7,1726               F                  EQUALS   VGTIG      +6                         #  I(2)OUT S40.3 NEEDS THIS
003520:
003521: E7,1426  E7,1730               QTEMP1             EQUALS   F          +2                         #  I(1)TMP HOLDS RETURN
003522:
003523:                                                                                                  #  R41                                   (2D)
003524: E7,1426  E7,1731               T-TO-ADD           EQUALS   QTEMP1     +1                         #  I(1D) FOR MIDTOAVE
003525:
003526:                                                                                                  #  *-*-*-*- OVERLAY 4 IN EBANK 7 -*-*-*-*
003527:
003528:                                                                                                  #  S35.1 STORAGE.                        (2D)
003529: E7,1426  E7,1664               TSTRT              EQUALS   END-P30S                              #  I(2)IN MIDCOURSE START TIME
003530:
003531:                                                                                                  #  S34.1 STORAGE.  (OVERLAYS S35.1 STORAGE)      (1D)
003532: E7,1426  E7,1664               TITER              EQUALS   TSTRT                                 #  I(1)TMP ITERATION COUNTER
003533:
003534:                                                                                                  #  (P30-31 Q-SAVES)                      (1)
003535: E7,1426  E7,1664               P30/31RT           EQUALS   TITER                                 #  B(1) RETURN POINT
003536:
003537:                                                                                                  #  P22 STORAGE.                          (6D)
003538: E7,1426  E7,1666               S22WUNL            EQUALS   TSTRT      +2                         #  1     WUNL W8 UNKNOWN INIT VALUE
003539: E7,1426  E7,1667               S22TOFF            EQUALS   S22WUNL    +1                         #  2     T SUB OFF
003540:                                                                                                  #  *USED IN SUBROUTINE COMMON TO P22 & P23.
003541: E7,1426  E7,1671               S22TPRIM           EQUALS   S22TOFF    +2                         #  2     SAVE TF
003542: E7,1426  E7,1673               S22EORM            EQUALS   S22TPRIM   +2                         #  0 = EARTH -- NON-ZERO = MOON
003543:
003544:                                                                                                  #  DOWNLINK ERASABLES FOR P22, P20 MARK DATA.    (8D)
003545: E7,1426  E7,1674               MARKDOWN           EQUALS   S22EORM    +1                         #  B(1)
003546: E7,1426  E7,1703               RM                 EQUALS   S22RTNEX                              #  DOWNLINK OF VHF RANGE
003547:
003548:                                                                                                  #  S22.1                                 (1D)
003549: E7,1426  E7,1703               S22RTNEX           EQUALS   MARKDOWN   +7                         #  B(1)
003550:
003551:                                                                                                  #  P22 STORAGE                           (6D)
003552: E7,1426  E7,1704               STARSAV3           EQUALS   S22RTNEX   +1                         #  I(6)TMP
003553:
003554:                                                                                                  #  CRS61.1 STORAGE.  -A SUBSET OF P20-   (14D)
003555: E7,1426  E7,1704               Q611               EQUALS   RM         +1                         #  I(1)TMP QSAVE
003556: E7,1426  E7,1705               Q6111              EQUALS   Q611       +1                         #  I(1)TMP QSAVE
003557: E7,1426  E7,1706               SAVEPOS            EQUALS   Q6111      +1                         #  I(6)TMP LEM POSITION VECTOR-
003558: E7,1426  E7,1714               SAVEVEL            EQUALS   SAVEPOS    +6                         #  I(6)TMP LEM VELOCITY VECTOR-
003559:
003560:                                                                                                  #  ATTITUDE MANEUVER -CALLED BY P20,R61,R63,CRS61.1      (3D)
003561: E7,1426  E7,1722               PRAXIS             EQUALS   SAVEVEL    +6                         #  B(3) S-S DISP RES FOR PREF AXIS N95
003562:
003563:                                                                                                  #  MARK ROUTINE (R21) STORAGE.  -IS SUBSET OF R22-       (14D)
003564: E7,1426  E7,1725               MRKBUF1            EQUALS   PRAXIS     +3                         #  B(7)TMP R21 MARK BUFFER
003565: E7,1426  E7,1734               MRKBUF2            EQUALS   MRKBUF1    +7                         #  B(7)TMP R21 MARK BUFFER
003566:
003567:                                                                                                  #  MORE CONICS STORAGE.                  (4)
003568: E7,1426                        COGA               EQUALS   3774                                  #  I(2) COTAN OF INITIAL FLIGHT PATH ANGLE
003569: E7,1426  E7,1774               INDEP              EQUALS   COGA                                  #  I(1) USED BY SUBROUTINE :ITERATOR:
003570: E7,1426  E7,1776               EPSILONL           EQUALS   COGA       +2                         #  I(2)TMP
003571:
003572:                                                                                                  #  RENDEZVOUS GUIDANCE STORAGE.  - P32...P35 -   (10D)
003573: E7,1426  E7,1743               ELEV               EQUALS   MRKBUF2    +7                         #  I(2)TMP
003574: E7,1426  E7,1745               RTX1               EQUALS   ELEV       +2                         #   (1)
003575: E7,1426  E7,1746               RTX2               EQUALS   RTX1       +1                         #   (1)
003576: E7,1426  E7,1747               RTMU               EQUALS   RTX2       +1                         #   (2)
003577: E7,1426  E7,1751               RTSR1/MU           EQUALS   RTMU       +2                         #   (2)
003578: E7,1426  E7,1753               CENTANG            EQUALS   RTSR1/MU   +2                         #  I(2) S-S CENTRAL ANGLE COVERED (TPI-TPF)
003579:
003580:                                                                                                  #  TPI SEARCH (S17.1, S17.2) P17 STORAGE.(10D)
003581: E7,1426  E7,1743               DELTEE             EQUALS   MRKBUF2    +7                         #  I(2)
003582: E7,1426  E7,1745               XRS                EQUALS   DELTEE     +2                         #  I(2)
003583: E7,1426  E7,1747               THETL              EQUALS   XRS        +2                         #  I(2)
003584: E7,1426  E7,1751               TF                 EQUALS   THETL      +2                         #  I(2)
003585: E7,1426  E7,1753               DELHITE            EQUALS   TF         +2                         #   (2)
003586:
003587:                                                                                                  #  *-*-*-*- OVERLAY 5 IN EBANK 7 -*-*-*-*
003588:
003589:                                                                                                  #  P17,P34                               (2D)
003590: E7,1426  E7,1765               NN1                =        NN                                    #  I(2)DSP NOUN 55,R1
003591:
003592:                                                                                                  #  ************ THE FOLLOWING ARE FOR FLIGHT 504 ONLY ********************
003593:
003594:                                                                                                  #  RETURN-TO-EARTH STORAGE.              (93D)
003595: E7,1426  E7,1631               RTEDVD             EQUALS   END-IN/M                              #  I(2)IN DELTA VELOCITY DESIRED         M/CS B7
003596: E7,1426  E7,1633               RTEGAM2D           EQUALS   RTEDVD     +2                         #  I(2)IN REENTRY ANGLE DESIRED          REVS B0
003597: E7,1426  E7,1635               RCON               EQUALS   RTEGAM2D   +2                         #  I(2)TMP CONIC R2 RADIUS               M B29
003598: E7,1426  E7,1637               R(T1)/             EQUALS   RCON       +2                         #  I(6)TMP POSITION VECTOR AT TIG        M B29/B27
003599: E7,1426  E7,1645               R(T1)              EQUALS   R(T1)/     +6                         #  I(2)TMP MAGNITUDE OF R(T1)/           M B29/B27
003600: E7,1426  E7,1647               DT21PR             EQUALS   R(T1)      +2                         #  I(2)TMP PREVOUS DT21                  CS B30
003601: E7,1426  E7,1651               MAMAX1             EQUALS   DT21PR     +2                         #  I(2)TMP MAJ AXIS LOW BOUND LMT        M B30
003602: E7,1426  E7,1653               MAMAX2             EQUALS   MAMAX1     +2                         #  I(2)TMP MAJ AXIS UP BOUND LMT         M B30
003603: E7,1426  E7,1655               R(T2)/             EQUALS   MAMAX2     +2                         #  I(6)TMP FINAL POSITION VECTOR         M B29/B27
003604: E7,1426  E7,1663               RD                 EQUALS   R(T2)/     +6                         #  I(2)TMP FINAL R DESIRED               M B29/B27
003605: E7,1426  E7,1665               DRCON              EQUALS   RD         +2                         #  I(2)TMP RCON SLOPE ITERATOR           M B29/B27
003606: E7,1426  E7,1667               RPRE'              EQUALS   DRCON      +2                         #  I(2)TMP PREVISOUS RPRE                M B29/B27
003607: E7,1426  E7,1671               V(T1)/             EQUALS   RPRE'      +2                         #  I(6)TMP VEL VECTOR AT TIG             M/CS B7/B5
003608: E7,1426  E7,1677               V2(T1)/            EQUALS   V(T1)/     +6                         #  I(6)TMP POST IMP VEL AT TIG           M/CS B7/B5
003609: E7,1426  E7,1705               DV                 EQUALS   V2(T1)/    +6                         #  I(2)TMP DELTA VELOCITY AT TIG         M/CS B7/B5
003610: E7,1426  E7,1707               V(T2)/             EQUALS   DV         +2                         #  I(6)TMP FINAL VELOCITY VECTOR         M/CS B7/B5
003611: E7,1426  E7,1715               T1                 EQUALS   V(T2)/     +6                         #  I(2)TMP INITIAL VECTOR TIME           CS B28
003612: E7,1426  E7,1717               PCON               EQUALS   T1         +2                         #  I(2)TMP SEMI-LATUS RECTUM             M B29
003613: E7,1426  E7,1721               X(T1)              EQUALS   PCON       +2                         #  I(2)TMP COTANGENT GAMMA1              B5
003614: E7,1426  E7,1723               T12                EQUALS   X(T1)      +2                         #  I(2)TMP INIT TO FINL POSIT TIME       CS B28
003615: E7,1426  E7,1725               DELTAT             EQUALS   T12        +2                         #  I(2)TMP DELTA T IN SAFE PERILUNE      CS B28
003616: E7,1426  E7,1727               NN1A               EQUALS   DELTAT     +2                         #  I(2)TMP ITERATION COUNTER 1
003617: E7,1426  E7,1731               NN2                EQUALS   NN1A       +2                         #  I(2)TMP ITERATION COUNTER 2
003618: E7,1426  E7,1733               RTENCKEX           EQUALS   NN2        +2                         #  I(1)TMP RTENCK RETURN ADDRESS
003619: E7,1426  E7,1734               CONICX1            EQUALS   RTENCKEX   +1                         #  I(1)TMP CONICS MU TABLE INDEX
003620: E7,1426  E7,1735               T2                 EQUALS   CONICX1    +1                         #  I(2)TMP FINAL TIME                    CS B28
003621: E7,1426  E7,1737               UR1/               EQUALS   T2         +2                         #  I(6)TMP UNIT R(T1)/                   B1
003622: E7,1426  E7,1745               UV1/               EQUALS   UR1/       +6                         #  I(6)TMP UNIT V(T1)/                   B1
003623: E7,1426  E7,1753               BETA1              EQUALS   UV1/       +6                         #  I(2)TMP 1+X(T2)**2                    B1
003624: E7,1426  E7,1755               P(T1)              EQUALS   BETA1      +2                         #  I(1)TMP PRIMARY BODY STATE TIME 1     B14
003625: E7,1426  E7,1756               CFPA               EQUALS   P(T1)      +1                         #  I(2)TMP COSINE FLIGHT PATH ANGLE     B1
003626: E7,1426  E7,1760               PHI2               EQUALS   CFPA       +2                         #  I(2)TMP PERI OR APO INDICATOR         B2
003627: E7,1426  E7,1762               SPRTEX             EQUALS   PHI2       +2                         #  I(1)TMP ROUTINE RETURN ADDRESS
003628: E7,1426  E7,1763               VNSTORE            EQUALS   SPRTEX     +1                         #  I(1)TMP VERBNOUN STORAGE
003629: E7,1426  E7,1764               BETA12             EQUALS   VNSTORE    +1                         #  I(2)TMP SIGN FOR TIMERAD
003630:
003631:                                                                                                  #  OVERLAYS WITHIN RETURN-TO-EARTH STORAGE.
003632: E7,1426                        RPRE               EQUALS   24D                                   #  I(2)TMP COMPUTED PREC RADIUS          M B29/B27
003633: E7,1426                        P/RPRE             EQUALS   26D                                   #  I(2)TMP P/R                           B4
003634: E7,1426                        R/APRE             EQUALS   28D                                   #  I(2)TMP R/A                           B6
003635: E7,1426  E7,1723               X(T2)PRE           EQUALS   T12                                   #  I(2)TMP PREC COTAN GAMMA2             B0
003636: E7,1426  E7,1725               X(T2)              EQUALS   DELTAT                                #  I(2)TMP COTAN GAMMA2                  B0
003637: E7,1426  E7,1745               UH/                EQUALS   UV1/                                  #  I(2)TMP UNIT HORIZONTAL VECTOR.       B1
003638: E7,1426  E7,1412               SPRTETIG           EQUALS   TIG                                   #  I(2)IN TIME OF IGNITION               CS B28
003639:
003640:                                                                                                  #  *-*-*-*- OVERLAY 6 IN EBANK 7 -*-*-*-*
003641:                                                                                                  #  P32,P33
003642:
003643:                                                                                                  #  THE FOLLOWING OVERLAY MEAS. INCORP. AND ARE IN USE ONLY WHEN (32D)
003644: E7,1426  E7,1457               POSTCSI            EQUALS   VG                                    #  I(2)
003645: E7,1426  E7,1461               DELVCSI            EQUALS   POSTCSI    +2                         #  I(2)
003646: E7,1426  E7,1463               DELDV              EQUALS   DELVCSI    +2                         #  I(2)
003647: E7,1426  E7,1465               GAMPREV            EQUALS   DELDV      +2                         #  I(2)
003648: E7,1426  E7,1467               DVPREV             EQUALS   GAMPREV    +2                         #  I(2)
003649: E7,1426  E7,1471               POSTCDH            EQUALS   DVPREV     +2                         #  I(2)
003650: E7,1426  E7,1471               HAFPA1             EQUALS   POSTCDH
003651: E7,1426  E7,1473               VACT4              EQUALS   POSTCDH    +2                         #  I(6)
003652: E7,1426  E7,1501               RDOTV              EQUALS   VACT4      +6                         #  I(2)
003653: E7,1426  E7,1503               VACT1              EQUALS   RDOTV      +2                         #  I(6)
003654: E7,1426  E7,1511               VPASS1             EQUALS   VACT1      +6                         #  I(6) VEL. PASSIVE VEH, AT CSI TIME
003655:
003656: E7,1426  E7,1545               UNVEC              EQUALS   VACT3
003657:
003658: E7,1426  E7,1655               T2TOT3             EQUALS   TPASS4                                #  I(2) TPI - TCDH
003659:
003660: E7,1426  E7,1664               CSIALRM            EQUALS   TITER                                 #  I(2) ALARM INDEX
003661:
003662: E7,1426  E7,1666               DELVEET2           EQUALS   S22WUNL                               #  I(6) VACT3 - VACT2 = DVCDH REF. COORD.
003663:
003664:                                                                                                  #  ADDITIONAL CSI - CDH STORAGE.         (10D)
003665: E7,1426  E7,1755               RPASS1             EQUALS   CENTANG    +2                         #  I(6) POS. PASSIVE VEH. AT CSI TIME.
003666: E7,1426  E7,1763               LOOPCT             EQUALS   RPASS1     +6                         #  I(2) ITERATION COUNTER
003667: E7,1426  E7,1765               NN                 EQUALS   LOOPCT     +2                         #  I(2)
003668:
003669:                                                                                                  #  P21 STORAGE                           (19D)
003670: E7,1426  E7,1603               P21ORIG            EQUALS   TRUNX                                 #  I(1)
003671: E7,1426  E7,1604               P21BASER           EQUALS   P21ORIG    +1                         #  I(6)
003672: E7,1426  E7,1612               P21BASEV           EQUALS   P21BASER   +6                         #  I(6)
003673: E7,1426  E7,1620               P21ALT             EQUALS   P21BASEV   +6                         #  I(2) NOUN 73 R1 ALTITUDE
003674: E7,1426  E7,1622               P21VEL             EQUALS   P21ALT     +2                         #  I(2) NOUN 73 R2 VELOCITY
003675: E7,1426  E7,1624               P21GAM             EQUALS   P21VEL     +2                         #  I(2) NOUN 73 R3 FLIGHT PATH ANGLE
003676:
003677: E7,1426                        WHOCARES           EQUALS   3777                                  #  A DUMMY FOR E-BANK INSENSITIVE 2CADRS.
003678: E7,1426  E7,1777               END-E7             EQUALS   WHOCARES                              #  ****** LAST LOCATION IN E7

End of include-file ERASABLE_ASSIGNMENTS.agc.  Parent file is MAIN.agc


