
Source Code


000002:                                                                                                  ## Copyright:   Public domain.
000003:                                                                                                  ## Filename:    FIXED-FIXED_CONSTANT_POOL.agc
000004:                                                                                                  ## Purpose:     A section of Comanche revision 067.
000005:                                                                                                  ##              It is part of the reconstructed source code for the flight
000006:                                                                                                  ##              software for the Command Module's (CM) Apollo Guidance Computer
000007:                                                                                                  ##              (AGC) for Apollo 12. No original listings of this program are
000008:                                                                                                  ##              available; instead, this file was created via dissassembly of
000009:                                                                                                  ##              dumps of Comanche 067 core rope modules and comparison with
000010:                                                                                                  ##              other AGC programs.
000011:                                                                                                  ## Assembler:   yaYUL
000012:                                                                                                  ## Contact:     Ron Burkey <info@sandroid.org>.
000013:                                                                                                  ## Website:     www.ibiblio.org/apollo/index.html
000014:                                                                                                  ## Mod history: 2023-08-16 MAS  Created from Comanche 055.
000015:
000016:    5012                                           BLOCK    02
000017:    5012                                           COUNT    02/FCONS
000018:
000019:                                                                                                  #  THE FOLLOWING TABLE OF 18 VALUES IS INDEXED.  DO NOT INSERT OR REMOVE ANY QUANTITIES.
000020:
000021:    5012           37777        DPOSMAX            OCT      37777                                 #  MUST PRECEDE POSMAX
000022:    5013           37777        POSMAX             OCT      37777
000023:
000024:    5014     5014               LIMITS             =        NEG1/2
000025:
000026:    5014           57777        NEG1/2             OCT      -20000                                #  USED BY SIN ROUTINE (MUST BE TWO
000027:                                                                                                  #  LOCATIONS IN FRONT OF BIT14)
000028:
000029:                                                                                                  #  BIT TABLE
000030:
000031:    5015           40000        BIT15              OCT      40000
000032:    5016           20000        BIT14              OCT      20000
000033:    5017           10000        BIT13              OCT      10000
000034:    5020           04000        BIT12              OCT      04000
000035:    5021           02000        BIT11              OCT      02000
000036:    5022           01000        BIT10              OCT      01000
000037:    5023           00400        BIT9               OCT      00400
000038:    5024           00200        BIT8               OCT      00200
000039:    5025           00100        BIT7               OCT      00100
000040:    5026           00040        BIT6               OCT      00040
000041:    5027           00020        BIT5               OCT      00020
000042:    5030           00010        BIT4               OCT      00010
000043:    5031           00004        BIT3               OCT      00004
000044:    5032           00002        BIT2               OCT      00002
000045:    5033           00001        BIT1               OCT      00001
000046:
000047:                                                                                                  #  DO NOT DESTROY THIS COMBINATION, SINCE IT IS USED IN DOUBLE PRECISION INSTRUCTIONS.
000048:    5034           77777        NEG0               OCT      -0                                    #  MUST PRECEDE ZERO
000049:    5035           00000        ZERO               OCT      0                                     #  MUST FOLLOW NEG0
000050:                                                                                                  #  BIT1          OCT     00001
000051:                                                                                                  #  NO.WDS        OCT     2               INTERPRETER
000052:                                                                                                  #  OCTAL3        OCT     3               INTERPRETER
000053:                                                                                                  #  R3D1          OCT     4               PINBALL
000054:    5036           00005        FIVE               OCT      5
000055:                                                                                                  #  REVCNT        OCT     6               INTERPRETER
000056:    5037           00007        SEVEN              OCT      7
000057:                                                                                                  #  BIT4          OCT     00010
000058:                                                                                                  #  R2D1          OCT     11              PINBALL
000059:    5040     4334               OCT11              =        R2D1                                  #  P20S
000060:                                                                                                  #  BINCON        DEC     10              PINBALL         (OCTAL 12)
000061:    5040           00013        ELEVEN             DEC      11         B-14
000062:                                                                                                  #  OCT14         OCT     14              ALARM AND ABORT (FILLER)
000063:    5041           00015        OCT15              OCT      15
000064:                                                                                                  #  R1D1          OCT     16              PINBALL
000065:    5042           00017        LOW4               OCT      17
000066:                                                                                                  #  BIT5          OCT     00020
000067:                                                                                                  #  ND1           OCT     21              PINBALL
000068:                                                                                                  #  VD1           OCT     23              PINBALL
000069:                                                                                                  #  OCT24         OCT     24              SERVICE ROUTINES
000070:                                                                                                  #  MD1           OCT     25              PINBALL
000071:    5043           00030        BITS4&5            OCT      30
000072:                                                                                                  #  OCT31         OCT     31              SERVICE ROUTINES
000073:    5044           00032        CALLCODE           OCT      00032
000074:                                                                                                  #  LOW5          OCT     37              PINBALL
000075:                                                                                                  #  33DEC         DEC     33              PINBALL         (OCTAL 41)
000076:                                                                                                  #  34DEC         DEC     34              PINBALL         (OCTAL 42)
000077:    5045           00045        TBUILDFX           DEC      37         B-14                       #  BUILDUP FOR CONVIENCE IN DAPTESTING
000078:    5046           00046        TDECAYFX           DEC      38         B-14                       #  CONVENIENCE FOR DAPTESTING
000079:                                                                                                  #  BIT6          OCT     00040
000080:    5047           00050        OCT50              OCT      50
000081:    5050           00055        DEC45              DEC      45         B-14
000082:    5051           00060        SUPER011           OCT      60                                    #  BITS FOR SUPERBNK SETTING 011.
000083:    5052           00062        .5SEC              DEC      50         B-14
000084:                                                                                                  #  BIT7          OCT     00100
000085:
000086:    5053     5025               SUPER100           =        BIT7                                  #  BITS FOR SUPERBNK SETTING 100
000087:                                                                                                  #  (LAST 4K OF ROPE)
000088:    5053           00120        SUPER101           OCT      120                                   #  BITS FOR SUPERBNK SETTING 101
000089:                                                                                                  #  OCT121        OCT     121             SERVICE ROUTINES
000090:                                                                                                  #  (FIRST 8K OF ACM)
000091:    5054           00140        SUPER110           OCT      140                                   #  BITS FOR SUPERBNK SETTING 110.
000092:                                                                                                  #  (LAST 8K OF ACM)
000093:    5055           00144        1SEC               DEC      100        B-14
000094:                                                                                                  #  LOW7          OCT     177             INTERPRETER
000095:                                                                                                  #  BIT8          OCT     00200
000096:                                                                                                  #  OT215         OCT     215             ALARM AND ABORT
000097:                                                                                                  #  8,5           OCT     00220           P20-P25 SUNDANCE
000098:    5056           00310        2SECS              DEC      200        B-14
000099:                                                                                                  #  LOW8          OCT     377             PINBALL
000100:                                                                                                  #  BIT9          OCT     00400
000101:    5057           00401        GN/CCODE           OCT      00401                                 #  SET S/C CONTROL SWITCH TO G/N
000102:    5060           00454        3SECS              DEC      300        B-14
000103:    5061           00620        4SECS              DEC      400        B-14
000104:    5062           00777        LOW9               OCT      777
000105:                                                                                                  #  BIT10         OCT     01000
000106:                                                                                                  #  5.5DEGS       DEC     .03056          P20-P25 SUNDANCE        (OCTAL 00765)
000107:                                                                                                  #  OCT1103       OCT     1103            ALARM AND ABORT
000108:    5063           01124        C5/2               DEC      .0363551                              #                        (OCTAL 01124)
000109:    5064           01211        V05N09             VN       0509                                  #  (SAME AS OCTAL 1211)
000110:    5065           01400        OCT1400            OCT      01400
000111:    5066           01426        V06N22             VN       0622
000112:                                                                                                  #  MID5          OCT     1740            PINBALL
000113:    5067           01776        BITS2-10           OCT      1776
000114:    5070           01777        LOW10              OCT      1777
000115:                                                                                                  #  BIT11         OCT     02000
000116:                                                                                                  #  2K+3          OCT     2003            PINBALL
000117:    5071           02177        LOW7+2K            OCT      2177                                  #  OP CODE MASK + BANK 1 FBANK SETTING.
000118:    5072           02400        EBANK5             OCT      02400
000119:    5073           03000        PRIO3              OCT      03000
000120:    5074           03400        EBANK7             OCT      03400
000121:                                                                                                  #  LOW11         OCT     3777            PINBALL
000122:                                                                                                  #  BIT12         OCT     04000
000123:                                                                                                  #  RELTAB        OCT     04025           T4RUPT
000124:    5075           05000        PRIO5              OCT      05000
000125:    5076           06000        PRIO6              OCT      06000
000126:    5077           07000        PRIO7              OCT      07000
000127:
000128:                                                                                                  #  BIT13         OCT     10000
000129:                                                                                                  #                OCT     10003           T4RUPT  RELTAB +1D
000130:                                                                                                  #  13,7,2        OCT     10102           P20-P25 SUNDANCE
000131:    5100           11000        PRIO11             OCT      11000
000132:                                                                                                  #  PRIO12        OCT     12000           BANKCALL
000133:    5101           13000        PRIO13             OCT      13000
000134:    5102           14000        PRIO14             OCT      14000
000135:                                                                                                  #                OCT     14031           T4RUPT  RELTAB +2D
000136:    5103           15000        PRIO15             OCT      15000
000137:    5104           16000        PRIO16             OCT      16000
000138:                                                                                                  #  85DEGS        DEC     .45556          P20-P25 SUNDANCE        (OCTAL 16450)
000139:    5105           17000        PRIO17             OCT      17000
000140:    5106           17770        OCT17770           OCT      17770
000141:                                                                                                  #  BIT14         OCT     20000
000142:                                                                                                  #                OCT     20033           T4RUPT  RELTAB +3D
000143:    5107           21000        PRIO21             OCT      21000
000144:    7657                                           BLOCK    03
000145:    7657                                           COUNT    03/FCONS
000146:
000147:    7657           22000        PRIO22             OCT      22000                                 #  SERVICE ROUTINES
000148:    7660           23000        PRIO23             OCT      23000
000149:    7661           24000        PRIO24             OCT      24000
000150:                                                                                                  #  5/8+1         OCT     24001           SINGLE PRECISION SUBROUTINES
000151:                                                                                                  #                OCT     24017           T4RUPT  RELTAB +4D
000152:    7662           25000        PRIO25             OCT      25000
000153:    7663           26000        PRIO26             OCT      26000
000154:    7664           27000        PRIO27             OCT      27000
000155:                                                                                                  #  CHRPRIO       OCT     30000           PINBALL
000156:                                                                                                  #                OCT     30036           T4RUPT  RELTAB +5D
000157:    7665           31000        PRIO31             OCT      31000
000158:    7666           31103        C1/2               DEC      .7853134                              #                        (OCTAL 31103)
000159:    7667           32000        PRIO32             OCT      32000
000160:    7670           33000        PRIO33             OCT      33000
000161:    7671           34000        PRIO34             OCT      34000
000162:                                                                                                  #                OCT     34034           T4RUPT  RELTAB +6D
000163:    7672           35000        PRIO35             OCT      35000
000164:    7673           36000        PRIO36             OCT      36000
000165:    7674           37000        PRIO37             OCT      37000
000166:    7675           37401        63/64+1            OCT      37401
000167:                                                                                                  #  MID7          OCT     37600           PINBALL
000168:    7676           37766        OCT37766           OCT      37766
000169:    7677           37774        OCT37774           OCT      37774
000170:    7700           37776        OCT37776           OCT      37776
000171:                                                                                                  #  DPOSMAX       OCT     37777
000172:                                                                                                  #  BIT15         OCT     40000
000173:                                                                                                  #  OCT40001      OCT     40001           INTERPRETER (CS 1 INSTRUCTION)
000174:    7701           40014        DLOADCOD           OCT      40014
000175:    7702           40015        DLOAD*             OCT      40015
000176:                                                                                                  #                OCT     40023           T4RUPT  RELTAB +7D
000177:    7703           40040        BIT15+6            OCT      40040
000178:    7704           40200        OCT40200           OCT      40200
000179:                                                                                                  #                OCT     44035           T4RUPT  RELTAB +8D
000180:                                                                                                  #                OCT     50037           T4RUPT  RELTAB +9D
000181:                                                                                                  #                OCT     54000           T4RUPT  RELTAB +10D
000182:    7705           57777        -BIT14             OCT      57777
000183:                                                                                                  #  RELTAB11      OCT     60000           T4RUPT
000184:    7706           65552        C3/2               DEC      -.3216147                             #                        (OCTAL 65552)
000185:    7707           70000        13,14,15           OCT      70000
000186:    7710           73777        -1/8               OCT      73777
000187:    7711           74000        HIGH4              OCT      74000
000188:    7712           74056        -ENDERAS           DEC      -2001      B-14                       #                        (OCTAL 74056)
000189:                                                                                                  #  HI5           OCT     76000           PINBALL
000190:    7713           77700        HIGH9              OCT      77700
000191:                                                                                                  #  -ENDVAC       DEC     -45             INTERPRETER             (OCTAL 77722)
000192:                                                                                                  #  -OCT10        OCT     -10                                      (OCT 77767)
000193:                                                                                                  #  NEG4          DEC     -4                                      (OCTAL 77773)
000194:    7714           77774        NEG3               DEC      -3         B-14
000195:    7715           77775        NEG2               OCT      77775
000196:    7716           77776        NEGONE             DEC      -1         B-14
000197:
000198:
000199:                                                                                                  #  DEFINED BY EQUALS
000200:
000201:                                                                                                  #  IT WOULD BE TO THE USERS ADVANTAGE TO OCCASIONALLY CHECK ANY OF THESE SYMBOLS IN ORDER TO PREVENT ANY
000202:                                                                                                  #  ACCIDENTAL DEFINITION CHANGES.
000203:
000204:    7717     7716               MINUS1             =        NEG1
000205:    7717     7716               NEG1               =        NEGONE
000206:    7717     5033               ONE                =        BIT1
000207:    7717     5032               TWO                =        BIT2
000208:    7717     6214               THREE              =        OCTAL3
000209:    7717     6214               LOW2               =        THREE
000210:    7717     5031               FOUR               =        BIT3
000211:    7717     6211               SIX                =        REVCNT
000212:    7717     5037               LOW3               =        SEVEN
000213:    7717     5030               EIGHT              =        BIT4
000214:    7717     4334               NINE               =        R2D1
000215:    7717     4377               TEN                =        BINCON
000216:    7717     5040               NOUTCON            =        ELEVEN
000217:    7717     4374               OCT23              =        VD1
000218:    7717     4376               OCT25              =        MD1
000219:    7717     5022               PRIO1              =        BIT10
000220:    7717     5065               EBANK3             =        OCT1400
000221:    7717     5021               PRIO2              =        BIT11
000222:    7717     5053               OCT120             =        SUPER101
000223:    7717     5054               OCT140             =        SUPER110
000224:    7717     5021               2K                 =        BIT11
000225:    7717     5021               EBANK4             =        BIT11
000226:    7717     5020               PRIO4              =        BIT12
000227:    7717     5073               EBANK6             =        PRIO3
000228:    7717     5017               QUARTER            =        BIT13
000229:    7717     5017               PRIO10             =        BIT13
000230:    7717     7632               OCT10001           =        CCSL
000231:    7717     5016               POS1/2             =        HALF
000232:    7717     5016               PRIO20             =        BIT14
000233:    7717     5016               HALF               =        BIT14
000234:    7717     4371               PRIO30             =        CHRPRIO
000235:    7717     4371               BIT13-14           =        PRIO30                                #  INTERPRETER USES IN PROCESSING STORECODE
000236:    7717     6440               OCT30002           =        TLOAD      +1
000237:    7717     7671               B12T14             =        PRIO34
000238:    7717     5015               NEGMAX             =        BIT15
000239:    7717     5015               VLOADCOD           =        BIT15
000240:    7717     6056               VLOAD*             =        OCT40001
000241:    7717     4105               OCT60000           =        RELTAB11
000242:    7717     4364               BANKMASK           =        HI5
000243:

End of include-file FIXED-FIXED_CONSTANT_POOL.agc.  Parent file is MAIN.agc


