
Source Code


000002:                                                                                                  ## Copyright:   Public domain.
000003:                                                                                                  ## Filename:    GIMBAL_LOCK_AVOIDANCE.agc
000004:                                                                                                  ## Purpose:     A section of Comanche revision 067.
000005:                                                                                                  ##              It is part of the reconstructed source code for the flight
000006:                                                                                                  ##              software for the Command Module's (CM) Apollo Guidance Computer
000007:                                                                                                  ##              (AGC) for Apollo 12. No original listings of this program are
000008:                                                                                                  ##              available; instead, this file was created via dissassembly of
000009:                                                                                                  ##              dumps of Comanche 067 core rope modules and comparison with
000010:                                                                                                  ##              other AGC programs.
000011:                                                                                                  ## Assembler:   yaYUL
000012:                                                                                                  ## Contact:     Ron Burkey <info@sandroid.org>.
000013:                                                                                                  ## Website:     www.ibiblio.org/apollo/index.html
000014:                                                                                                  ## Mod history: 2023-08-16 MAS  Created from Comanche 055.
000015:
000016: 15,2000                                           BANK     15
000017: 22,2000                                           SETLOC   KALCMON1
000018: 22,2000                                           BANK
000019:
000020: 22,2737  E6,1661                                  EBANK=   BCDU
000021:
000022:                                                                                                  #  DETECTING GIMBAL LOCK
000023: 22,2737  22,2737               LOCSKIRT           EQUALS   WCALC
000024: 22,2737           70740        WCALC              LXC,1    DLOAD*
000025: 22,2740           01130                                    RATEINDX
000026: 22,2741           04771                                    ARATE,1
000027: 22,2742           45002                           SR4      CALL                                  #  COMPUTE THE INCREMENTAL ROTATION MATRIX
000028: 22,2743           44530                                    DELCOMP                               #  DEL CORRESPONDING TO A 1 SEC ROTATION
000029:                                                                                                  #  ABOUT COF
000030: 22,2744           74343                           DLOAD*   VXSC
000031: 22,2745           04771                                    ARATE,1
000032: 22,2746           03343                                    COF
000033: 22,2747           77721                           MXV
000034: 22,2750           05003                                    QUADROT
000035: 22,2751           17311                           STODL    BRATE
000036: 22,2752           03365                                    AM
000037: 22,2753           55605                           DMP      DDV*
000038: 22,2754           05001                                    ANGLTIME
000039: 22,2755           04771                                    ARATE,1
000040: 22,2756           77661                           SR
000041: 22,2757           20606                                    5
000042: 22,2760           27317                           STOVL    TM
000043: 22,2761           03311                                    BRATE
000044: 22,2762           77761                           VXSC
000045: 22,2763           05025                                    BIASCALE
000046: 22,2764           03275                           STORE    BIASTEMP                              #  ATTITUDE ERROR BIAS TO PREVENT OVERSHOOT
000047:                                                                                                  #  IN SYSTEM
000048: 22,2765           77614                           SETGO                                          #  STATE SWITCH CALCMAN2 (43D)
000049: 22,2766           01035                                    CALCMAN2                              #  0(OFF) = BYPASS STARTING PROCEDURE
000050: 22,2767           45032                                    NEWANGL    +1                         #  1(ON) = START MANEUVER
000051:
000052:
000053: 22,2770           00044 15053  ARATE              2DEC     .0022222222                            #  = .05 DEG/SEC
000054:
000055: 22,2772           00221 24255                     2DEC     .0088888889                            #  = .2 DEG/SEC
000056:
000057: 22,2774           00554 02660                     2DEC     .0222222222                            #  = .5 DEG/SEC
000058:
000059: 22,2776           02660 13301                     2DEC     .0888888889                            #  = 2 DEG/SEC                $22.5 DEG/SEC
000060:
000061: 22,3000           00003 04000  ANGLTIME           2DEC     .000190735                            #  = 100B - 19
000062:
000063:                                                                                                  #  MANEUVER ANGLE TO MANEUVER TIME
000064: 22,3002           03146 14632  QUADROT            2DEC     .1                                    #  ROTATION MATRIX FROM S/C AXES TO CONTROL
000065:
000066: 22,3004           00000 00000                     2DEC     0          B-28                       #  AXES (X ROT = -7.25 DEG)
000067:
000068: 22,3006           00000 00000                     2DEC     0          B-28
000069:
000070: 22,3010           00000 00000                     2DEC     0          B-28
000071:
000072: 22,3012           03131 11275                     2DEC     .099200                               #  =(.1)COS7.25
000073:
000074: 22,3014           77461 47370                     2DEC     -.012620                              #  =-(.1)SIN7.25
000075:
000076: 22,3016           00000 00000                     2DEC     0          B-28
000077:
000078: 22,3020           00316 30407                     2DEC     .012620                               #  (.1)SIN7.25
000079:
000080: 22,3022           03131 11275                     2DEC     .099200                               #  (.1)COS7.25
000081:
000082: 22,3024           00004 05253  BIASCALE           2DEC     .0002543132                            #  = (450/180)(1/0.6)(1/16384)

End of include-file GIMBAL_LOCK_AVOIDANCE.agc.  Parent file is MAIN.agc


