
Source Code


000002:                                                                                                  ## Copyright:   Public domain.
000003:                                                                                                  ## Filename:    IMU_MODE_SWITCHING_ROUTINES.agc
000004:                                                                                                  ## Purpose:     A section of Comanche revision 067.
000005:                                                                                                  ##              It is part of the reconstructed source code for the flight
000006:                                                                                                  ##              software for the Command Module's (CM) Apollo Guidance Computer
000007:                                                                                                  ##              (AGC) for Apollo 12. No original listings of this program are
000008:                                                                                                  ##              available; instead, this file was created via dissassembly of
000009:                                                                                                  ##              dumps of Comanche 067 core rope modules and comparison with
000010:                                                                                                  ##              other AGC programs.
000011:                                                                                                  ## Assembler:   yaYUL
000012:                                                                                                  ## Contact:     Ron Burkey <info@sandroid.org>.
000013:                                                                                                  ## Website:     www.ibiblio.org/apollo/index.html
000014:                                                                                                  ## Mod history: 2023-08-16 MAS  Created from Comanche 055.
000015:                                                                                                  ##              2024-05-13 MAS  Updated for Comanche 067.
000016:
000017:    5535                                           BLOCK    02
000018:    4000                                           SETLOC   FFTAG3
000019:    4000                                           BANK
000020:
000021:    5535  E3,1471                                  EBANK=   COMMAND
000022:
000023:                                                                                                  #  FIXED-FIXED ROUTINES.
000024:
000025:    5535                                           COUNT    02/IMODE
000026:
000027:    5535           35035        ZEROICDU           CAF      ZERO                                  #  ZERO ICDU COUNTERS.
000028:    5536           54032                           TS       CDUX
000029:    5537           54033                           TS       CDUY
000030:    5540           54034                           TS       CDUZ
000031:    5541           00002                           TC       Q
000032:
000033:    5542     5023               SPSCODE            =        BIT9
000034:
000035:                                                                                                  #  IMU ZEROING ROUTINE.
000036:
000037: 11,3760                                           BANK     11
000038: 07,2000                                           SETLOC   MODESW
000039: 07,2000                                           BANK
000040:
000041: 07,2577                                           COUNT    07/IMODE
000042:
000043: 07,2577           00004        IMUZERO            INHINT                                         #  ROUTINE TO ZERO ICDUS.
000044: 07,2600           41036                           CS       DSPTAB     +11D                       #  DONT ZERO CDUS IF IMU IN GIMBAL LOCK AND
000045: 07,2601           75047                           MASK     BITS4&6                               #  COARSE ALIGN (GIMBAL RUNAWAY PROTECTION)
000046: 07,2602           10000                           CCS      A
000047: 07,2603           12607                           TCF      IMUZEROA
000048:
000049: 07,2604           05664                           TC       ALARM                                 #  IF SO.
000050: 07,2605           00206                           OCT      00206
000051:
000052: 07,2606           13542                           TCF      CAGETSTJ   +4                         #  IMMEDIATE FAILURE.
000053:
000054: 07,2607           03536        IMUZEROA           TC       CAGETSTJ
000055:
000056:                                                                                                  #  DO ALL THE WORK.
000057:
000058: 07,2610           41321                           CS       IMODES33                              #  DISABLE DAP AUTO AND HOLD MODES
000059: 07,2611           75051                           MASK     SUPER011                              #        BIT5 FOR GROUND
000060: 07,2612           27321                           ADS      IMODES33
000061:
000062: 07,2613           41320                           CS       IMODES30                              #  INHIBIT ICDUFAIL AND IMUFAIL (IN CASE WE
000063: 07,2614           75775                           MASK     BITS3&4                               #  JUST CAME OUT OF COARSE ALIGN).
000064: 07,2615           27320                           ADS      IMODES30
000065:
000066: 07,2616           45047                           CS       BITS4&6                               #  SEND ZERO ENCODE WITH COARSE AND ERROR
000067: 07,2617           00006                           EXTEND                                         #  COUNTER DISABLED.
000068: 07,2620           03012                           WAND     CHAN12
000069:
000070: 07,2621           03151                           TC       NOATTOFF                              #  TURN OFF NO ATT LAMP.
000071:
000072: 07,2622           35027                           CAF      BIT5
000073: 07,2623           00006                           EXTEND
000074: 07,2624           05012                           WOR      CHAN12
000075:
000076: 07,2625           05535                           TC       ZEROICDU
000077: 07,2626           35026                           CAF      BIT6                                  #  WAIT 320 MS TO GIVE AGS ADEQUATE TIME TO
000078: 07,2627           05261                           TC       WAITLIST                              #  RECEIVE ITS PULSE TRAIN.
000079: 07,2630  E3,1474                                  EBANK=   CDUIND
000080: 07,2630           02642 16063                     2CADR    IMUZERO2
000081:
000082: 07,2632           41320                           CS       IMODES30                              #  SEE IF IMU OPERATING AND ALARM IF NOT.
000083: 07,2633           75023                           MASK     BIT9
000084: 07,2634           10000                           CCS      A
000085: 07,2635           12640                           TCF      MODEEXIT
000086: 07,2636           05664                           TC       ALARM
000087: 07,2637           00210                           OCT      210
000088:
000089: 07,2640           00003        MODEEXIT           RELINT                                         #  GENERAL MODE-SWITCHING EXIT.
000090: 07,2641           14711                           TCF      SWRETURN
000091:
000092: 07,2642           03524        IMUZERO2           TC       CAGETEST
000093: 07,2643           05535                           TC       ZEROICDU                              #  ZERO CDUX, CDUY, CDUZ
000094:
000095: 07,2644           45027                           CS       BIT5                                  #  REMOVE ZERO DISCRETE.
000096: 07,2645           00006                           EXTEND
000097: 07,2646           03012                           WAND     CHAN12
000098:
000099: 07,2647           35021                           CAF      BIT11                                 #  WAIT 10 SECS FOR CTRS TO FIND GIMBALS
000100: 07,2650           05306                           TC       VARDELAY
000101:
000102: 07,2651           03524        IMUZERO3           TC       CAGETEST
000103: 07,2652           45775                           CS       BITS3&4                               #  REMOVE IMUFAIL AND ICDUFAIL INHIBIT.
000104: 07,2653           71320                           MASK     IMODES30
000105: 07,2654           55320                           TS       IMODES30
000106:
000107: 07,2655           45051                           CS       SUPER011                              #  ENABLE DAP AUTO AND HOLD MODES
000108: 07,2656           71321                           MASK     IMODES33                              #        BIT5 FOR GROUND
000109: 07,2657           55321                           TS       IMODES33
000110:
000111: 07,2660           04754                           TC       IBNKCALL                              #  SET ISS WARNING IF EITHER OF ABOVE ARE
000112: 07,2661           14665                           CADR     SETISSW                               #  PRESENT.
000113:
000114: 07,2662           13514                           TCF      ENDIMU
000115:
000116:                                                                                                  #  IMU COARSE ALIGN MODE.
000117:
000118: 07,2663           00004        IMUCOARS           INHINT
000119: 07,2664           03536                           TC       CAGETSTJ
000120: 07,2665           03027                           TC       SETCOARS
000121:
000122: 07,2666           36211                           CAF      SIX
000123: 07,2667           05261                           TC       WAITLIST
000124: 07,2670  E3,1474                                  EBANK=   CDUIND
000125: 07,2670           02673 16063                     2CADR    COARS
000126:
000127: 07,2672           12640                           TCF      MODEEXIT
000128:
000129: 07,2673           03524        COARS              TC       CAGETEST
000130: 07,2674           35026                           CAF      BIT6                                  #  ENABLE ALL THREE ISS CDU ERROR COUNTERS
000131: 07,2675           00006                           EXTEND
000132: 07,2676           05012                           WOR      CHAN12
000133:
000134: 07,2677           35032                           CAF      TWO                                   #  SET CDU INDICATOR
000135: 07,2700           55474        COARS1             TS       CDUIND
000136:
000137: 07,2701           51474                           INDEX    CDUIND                                #  COMPUTE THETAD - THETAA IN 1:S
000138: 07,2702           31155                           CA       THETAD                                #        COMPLEMENT FORM
000139: 07,2703           00006                           EXTEND
000140: 07,2704           51474                           INDEX    CDUIND
000141: 07,2705           20032                           MSU      CDUX
000142: 07,2706           00006                           EXTEND
000143: 07,2707           75017                           MP       BIT13                                 #  SHIFT RIGHT 2
000144: 07,2710           56001                           XCH      L                                     #  ROUND
000145: 07,2711           60000                           DOUBLE
000146: 07,2712           54061                           TS       ITEMP1
000147: 07,2713           12715                           TCF      +2
000148: 07,2714           26001                           ADS      L
000149:
000150: 07,2715           51474                           INDEX    CDUIND                                #  DIFFERENCE TO BE COMPUTED
000151: 07,2716           23471                           LXCH     COMMAND
000152: 07,2717           11474                           CCS      CDUIND
000153: 07,2720           02700                           TC       COARS1
000154:
000155: 07,2721           35032                           CAF      TWO                                   #  MINIMUM OF 4 MS WAIT
000156: 07,2722           05306                           TC       VARDELAY
000157:
000158: 07,2723           03524        COARS2             TC       CAGETEST                              #  DONT CONTINUE IF CAGED.
000159: 07,2724           54061                           TS       ITEMP1                                #  SETS TO +0.
000160: 07,2725           35032                           CAF      TWO                                   #  SET CDU INDICATOR
000161: 07,2726           55474                 +3        TS       CDUIND
000162:
000163: 07,2727           51474                           INDEX    CDUIND
000164: 07,2730           11471                           CCS      COMMAND                               #  NUMBER OF PULSES REQUIRED
000165: 07,2731           02735                           TC       COMPOS                                #  GREATER THAN MAX ALLOWED
000166: 07,2732           02744                           TC       NEXTCDU    +1
000167: 07,2733           03002                           TC       COMNEG
000168: 07,2734           02744                           TC       NEXTCDU    +1
000169:
000170: 07,2735           63624        COMPOS             AD       -COMMAX                               #  COMMAX = MAX NUMBER OF PULSES ALLOWED
000171: 07,2736           00006                           EXTEND                                         #        MINUS ONE
000172: 07,2737           63012                           BZMF     COMZERO
000173: 07,2740           51474                           INDEX    CDUIND
000174: 07,2741           55471                           TS       COMMAND                               #  REDUCE COMMAND BY MAX NUMBER OF PULSES
000175: 07,2742           43625                           CS       -COMMAX-                              #        ALLOWED
000176:
000177: 07,2743           24061        NEXTCDU            INCR     ITEMP1
000178: 07,2744           65034                           AD       NEG0
000179: 07,2745           51474                           INDEX    CDUIND
000180: 07,2746           54050                           TS       CDUXCMD                               #  SET UP COMMAND REGISTER.
000181:
000182: 07,2747           11474                           CCS      CDUIND
000183: 07,2750           02726                           TC       COARS2     +3
000184:
000185: 07,2751           10061                           CCS      ITEMP1                                #  SEE IF ANY PULSES TO GO OUT.
000186: 07,2752           13016                           TCF      SENDPULS
000187:
000188: 07,2753           05303                           TC       FIXDELAY                              #  WAIT FOR GIMBALS TO SETTLE.
000189: 07,2754           00226                           DEC      150        B-14
000190:
000191: 07,2755           35032                           CAF      TWO                                   #  AT END OF COMMAND, CHECK TO SEE THAT
000192: 07,2756           54061        CHKCORS            TS       ITEMP1                                #  GIMBALS ARE WITHIN 2 DEGREES OF THETAD.
000193: 07,2757           50000                           INDEX    A
000194: 07,2760           30032                           CA       CDUX
000195: 07,2761           00006                           EXTEND
000196: 07,2762           50061                           INDEX    ITEMP1
000197: 07,2763           21155                           MSU      THETAD
000198: 07,2764           10000                           CCS      A
000199: 07,2765           12773                           TCF      COARSERR
000200: 07,2766           12770                           TCF      CORSCHK2
000201: 07,2767           12773                           TCF      COARSERR
000202:
000203: 07,2770           10061        CORSCHK2           CCS      ITEMP1
000204: 07,2771           12756                           TCF      CHKCORS
000205: 07,2772           13514                           TCF      ENDIMU                                #  END OF COARSE ALIGNMENT.
000206:
000207: 07,2773           63001        COARSERR           AD       COARSTOL                              #  2 DEGREES.
000208: 07,2774           00006                           EXTEND
000209: 07,2775           62770                           BZMF     CORSCHK2
000210:
000211: 07,2776           05664                           TC       ALARM                                 #  COARSE ALIGN ERROR.
000212: 07,2777           00211                           OCT      211
000213:
000214: 07,3000           13522                           TCF      IMUBAD
000215:
000216: 07,3001           77511        COARSTOL           DEC      -.01111                               #  2 DEGREES SCALED AT HALF-REVOLUTIONS
000217:
000218: 07,3002           63624        COMNEG             AD       -COMMAX
000219: 07,3003           00006                           EXTEND
000220: 07,3004           63012                           BZMF     COMZERO
000221: 07,3005           40000                           COM
000222: 07,3006           51474                           INDEX    CDUIND
000223: 07,3007           55471                           TS       COMMAND
000224: 07,3010           33625                           CA       -COMMAX-
000225: 07,3011           02743                           TC       NEXTCDU
000226:
000227: 07,3012           35035        COMZERO            CAF      ZERO
000228: 07,3013           51474                           INDEX    CDUIND
000229: 07,3014           57471                           XCH      COMMAND
000230: 07,3015           02743                           TC       NEXTCDU
000231:
000232: 07,3016           37707        SENDPULS           CAF      13,14,15
000233: 07,3017           00006                           EXTEND
000234: 07,3020           05014                           WOR      CHAN14
000235: 07,3021           33626                           CAF      600MS
000236: 07,3022           12722                           TCF      COARS2     -1                         #  THEN TO VARDELAY
000237:
000238: 07,3023           35026        CA+ECE             CAF      BIT6                                  #  ENABLE ALL THREE ISS CDU ERROR COUNTERS
000239: 07,3024           00006                           EXTEND
000240: 07,3025           05012                           WOR      CHAN12
000241: 07,3026           05340                           TC       TASKOVER
000242:
000243: 07,3027           35030        SETCOARS           CAF      BIT4                                  #  BYPASS IF ALREADY IN COARSE ALIGN
000244: 07,3030           00006                           EXTEND
000245: 07,3031           02012                           RAND     CHAN12
000246: 07,3032           10000                           CCS      A
000247: 07,3033           00002                           TC       Q
000248:
000249: 07,3034           45026                           CS       BIT6                                  #  CLEAR ISS ERROR COUNTERS
000250: 07,3035           00006                           EXTEND
000251: 07,3036           03012                           WAND     CHAN12
000252:
000253: 07,3037           45022                           CS       BIT10                                 #  KNOCK DOWN GYRO ACTIVITY
000254: 07,3040           00006                           EXTEND
000255: 07,3041           03014                           WAND     CHAN14
000256: 07,3042           45035                           CS       ZERO
000257: 07,3043           54047                           TS       GYROCMD
000258:
000259: 07,3044           35030                           CAF      BIT4                                  #  PUT ISS IN COARSE ALIGN
000260: 07,3045           00006                           EXTEND
000261: 07,3046           05012                           WOR      CHAN12
000262:
000263: 07,3047           41036                           CS       DSPTAB     +11D                       #  TURN ON NO ATT LAMP
000264: 07,3050           73072                           MASK     OCT40010
000265: 07,3051           27036                           ADS      DSPTAB     +11D
000266:
000267: 07,3052           41321                           CS       IMODES33                              #  DISABLE DAP AUTO AND HOLD MODES
000268: 07,3053           75026                           MASK     BIT6
000269: 07,3054           27321                           ADS      IMODES33
000270:
000271: 07,3055           41320                           CS       IMODES30                              #  DISABLE IMUFAIL
000272: 07,3056           75030                           MASK     BIT4
000273: 07,3057           27320                           ADS      IMODES30
000274:
000275: 07,3060           45027        RNDREFDR           CS       BIT5                                  #  KNOCK DOWN TRACK FLAG
000276: 07,3061           70075                           MASK     FLAGWRD1
000277: 07,3062           54075                           TS       FLAGWRD1
000278:
000279: 07,3063           45015                           CS       BIT15                                 #  KNOCK DOWN DRIFT FLAG
000280: 07,3064           70076                           MASK     FLAGWRD2
000281: 07,3065           54076                           TS       FLAGWRD2
000282:
000283: 07,3066           45017                           CS       BIT13                                 #  KNOCK DOWN REFSMMAT FLAG
000284: 07,3067           70077                           MASK     FLAGWRD3
000285: 07,3070           54077                           TS       FLAGWRD3
000286:
000287: 07,3071           00002                           TC       Q
000288:
000289: 07,3072           40010        OCT40010           OCT      40010
000290:
000291:                                                                                                  #  IMU FINE ALIGN MODE SWITCH.
000292:
000293: 07,3073           00004        IMUFINE            INHINT
000294: 07,3074           03536                           TC       CAGETSTJ                              #  SEE IF IMU BEING CAGED.
000295:
000296: 07,3075           45043                           CS       BITS4-5                               #  RESET ZERO AND COARSE
000297: 07,3076           00006                           EXTEND
000298: 07,3077           03012                           WAND     CHAN12
000299:
000300: 07,3100           45026                           CS       BIT6                                  #  INSURE DAP AUTO AND HOLD MODES ENABLED
000301: 07,3101           71321                           MASK     IMODES33
000302: 07,3102           55321                           TS       IMODES33
000303:
000304: 07,3103           03151                           TC       NOATTOFF
000305:
000306: 07,3104           35022                           CAF      BIT10                                 #  IMU FAIL WAS INHIBITED DURING THE
000307: 07,3105           05261                           TC       WAITLIST                              #  PRESUMABLY PRECEDING COARSE ALIGN.  LEAVE
000308: 07,3106  E3,1474                                  EBANK=   CDUIND
000309: 07,3106           03117 16063                     2CADR    IFAILOK                               #  IT ON FOR THE FIRST 5 SECS OF FINE ALIGN
000310:
000311: 07,3110           35056                           CAF      2SECS
000312: 07,3111           05261                           TC       WAITLIST
000313: 07,3112  E3,1474                                  EBANK=   CDUIND
000314: 07,3112           03115 16063                     2CADR    IMUFINED
000315:
000316: 07,3114           12640                           TCF      MODEEXIT
000317:
000318: 07,3115           03524        IMUFINED           TC       CAGETEST                              #  SEE THAT NO ONE HAS CAGED THE IMU.
000319: 07,3116           13514                           TCF      ENDIMU
000320:
000321: 07,3117           03531        IFAILOK            TC       CAGETSTQ                              #  ENABLE IMU FIAL UNLESS IMU BEING CAGED.
000322: 07,3120           15340                           TCF      TASKOVER                              #  IT IS.
000323:
000324: 07,3121           35030                           CAF      BIT4                                  #  DONT RESET IMU FAIL INHIBIT IF SOMEONE
000325: 07,3122           00006                           EXTEND                                         #  HAS GONE INTO COARSE ALIGN.
000326: 07,3123           02012                           RAND     CHAN12
000327: 07,3124           10000                           CCS      A
000328: 07,3125           15340                           TCF      TASKOVER
000329:
000330: 07,3126           41320                           CS       IMODES30                              #  RESET IMUFAIL.
000331: 07,3127           75017                           MASK     BIT13
000332: 07,3130           27320                           ADS      IMODES30
000333: 07,3131           45030                           CS       BIT4
000334: 07,3132           71320        PFAILOK2           MASK     IMODES30
000335: 07,3133           55320                           TS       IMODES30
000336: 07,3134           04754                           TC       IBNKCALL                              #  THE ISS WARNING LIGHT MAY COME ON NOW
000337: 07,3135           14665                           CADR     SETISSW                               #  THAT THE INHIBIT HAS BEEN REMOVED.
000338: 07,3136           15340                           TCF      TASKOVER
000339:
000340: 07,3137           03531        PFAILOK            TC       CAGETSTQ                              #  ENABLE PIP FAIL PROG ALARM.
000341: 07,3140           15340                           TCF      TASKOVER
000342:
000343: 07,3141           41320                           CS       IMODES30                              #  RESET IMU AND PIPA FAIL BITS.
000344: 07,3142           75022                           MASK     BIT10
000345: 07,3143           27320                           ADS      IMODES30
000346:
000347: 07,3144           41321                           CS       IMODES33
000348: 07,3145           75017                           MASK     BIT13
000349: 07,3146           27321                           ADS      IMODES33
000350:
000351: 07,3147           45027                           CS       BIT5
000352: 07,3150           13132                           TCF      PFAILOK2
000353:
000354: 07,3151           43072        NOATTOFF           CS       OCT40010                              #  SUBROUTINE TO TURN OFF NO ATT LAMP.
000355: 07,3152           71036                           MASK     DSPTAB     +11D
000356: 07,3153           65015                           AD       BIT15
000357: 07,3154           55036                           TS       DSPTAB     +11D
000358: 07,3155           00002                           TC       Q
000359:
000360:                                                                                                  #  ROUITNES TO INITIATE AND TERMINATE PROGRAM USE OF THE PIPAS.  NO IMUSTALL REQUIRED IN EITHER CASE.
000361:
000362: 07,3156           45035        PIPUSE             CS       ZERO
000363: 07,3157           54037                           TS       PIPAX
000364: 07,3160           54040                           TS       PIPAY
000365: 07,3161           54041                           TS       PIPAZ
000366:
000367: 07,3162           03531        PIPUSE1            TC       CAGETSTQ                              #  DO NOT ENABLE PIPA FAIL IF IMU IS CAGED
000368: 07,3163           14711                           TCF      SWRETURN
000369:
000370: 07,3164           00004                           INHINT
000371: 07,3165           45033                           CS       BIT1                                  #  IF PIPA FAILS FROM NOW ON (UNTIL
000372: 07,3166           71320                           MASK     IMODES30                              #  PIPFREE), LIGHT ISS WARNING.
000373: 07,3167           55320                           TS       IMODES30
000374:
000375: 07,3170           04754        PIPFREE2           TC       IBNKCALL                              #  ISS WARNING MIGHT COME ON NOW.
000376: 07,3171           14665                           CADR     SETISSW                               #  (OR GO OFF ON PIPFREE).
000377:
000378: 07,3172           12640                           TCF      MODEEXIT
000379:
000380: 07,3173           00004        PIPFREE            INHINT                                         #  PROGRAM DONE WITH PIPAS.  DONT LIGHT
000381: 07,3174           41320                           CS       IMODES30                              #  ISS WARNING.
000382: 07,3175           75033                           MASK     BIT1
000383: 07,3176           27320                           ADS      IMODES30
000384:
000385: 07,3177           75022                           MASK     BIT10                                 #  IF PIP FAIL ON, DO PROG ALSRM AND RESET
000386: 07,3200           10000                           CCS      A                                     #  ISS WARNING.
000387: 07,3201           12640                           TCF      MODEEXIT
000388:
000389: 07,3202           05664                           TC       ALARM
000390: 07,3203           00212                           OCT      212
000391:
000392: 07,3204           00004                           INHINT
000393:
000394: 07,3205           13170                           TCF      PIPFREE2
000395:
000396:                                                                                                  #  THE FOLLOWING ROUTINE TORQUES THE IRIGS ACCORDING TO DOUBLE PRECISION INPUTS IN THE SIX REGISTERS
000397:                                                                                                  #  BEGINNING AT THE ECADR ARRIVING IN A.  THE MINIMUM SIZE OF ANY PULSE TRAIN IS 16 PULSES (.25 CDU COUNTS).  THE
000398:                                                                                                  #  UNSENT PORTION OF THE COMMAND IS LEFT INTACT IN THE INPUT COMMAND REGISTERS.
000399:
000400: 07,3206  E3,1400                                  EBANK=   1400                                  #  VARIABLE, ACTUALLY.
000401:
000402: 07,3206           54161        IMUPULSE           TS       MPAC       +5                         #  SAVE ARRIVING ECADR.
000403: 07,3207           03536                           TC       CAGETSTJ                              #  DONT PROCEED IF IMU BEING CAGED.
000404:
000405: 07,3210           11304                           CCS      LGYRO                                 #  SEE IF GYROS BUSY.
000406: 07,3211           03252                           TC       GYROBUSY                              #  SLEEP.
000407:
000408: 07,3212           54156                           TS       MPAC       +2
000409: 07,3213           35026                           CAF      BIT6                                  #  ENABLE THE POWER SUPPLY.
000410: 07,3214           00006                           EXTEND
000411: 07,3215           05014                           WOR      CHAN14
000412:
000413: 07,3216           35031                           CAF      FOUR
000414: 07,3217           05261        GWAKE2             TC       WAITLIST                              #  (IF A JOB WAS PUT TO SLEEP, THE POWER
000415: 07,3220  E3,1474                                  EBANK=   CDUIND                                #  SUPPLY IS LEFT ON BY THE WAKING JOB).
000416: 07,3220           03270 16063                     2CADR    STRTGYRO
000417:
000418: 07,3222           30161                           CA       MPAC       +5                         #  SET UP EBANK, SAVING CALLER'S EBANK FOR
000419: 07,3223           56003                           XCH      EBANK                                 #  RESTORATION ON RETURN.
000420: 07,3224           56161                           XCH      MPAC       +5
000421: 07,3225           55304                           TS       LGYRO                                 #  RESERVES GYROS.
000422: 07,3226           74373                           MASK     LOW8
000423: 07,3227           54061                           TS       ITEMP1
000424:
000425: 07,3230           35032                           CAF      TWO                                   #  FORCE SIGN AGREEMENT ON INPUTS.
000426: 07,3231           54157        GYROAGRE           TS       MPAC       +3
000427: 07,3232           60000                           DOUBLE
000428: 07,3233           60061                           AD       ITEMP1
000429: 07,3234           54160                           TS       MPAC       +4
000430: 07,3235           00006                           EXTEND
000431: 07,3236           50000                           INDEX    A
000432: 07,3237           31401                           DCA      1400
000433: 07,3240           52155                           DXCH     MPAC
000434: 07,3241           07226                           TC       TPAGREE
000435: 07,3242           52155                           DXCH     MPAC
000436: 07,3243           50160                           INDEX    MPAC       +4
000437: 07,3244           53401                           DXCH     1400
000438:
000439: 07,3245           10157                           CCS      MPAC       +3
000440: 07,3246           13231                           TCF      GYROAGRE
000441:
000442: 07,3247           30161                           CA       MPAC       +5                         #  RESTORE CALLER'S EBANK.
000443: 07,3250           54003                           TS       EBANK
000444: 07,3251           12640                           TCF      MODEEXIT
000445:
000446:                                                                                                  #  ROUTINES TO ALLOW TORQUING BY ONLY ONE JOB AT A TIME.
000447:
000448: 07,3252           00006        GYROBUSY           EXTEND                                         #  SAVE RETURN 2FCADR.
000449: 07,3253           30134                           DCA      BUF2
000450: 07,3254           52155                           DXCH     MPAC
000451: 07,3255           33267        REGSLEEP           CAF      LGWAKE
000452: 07,3256           15211                           TCF      JOBSLEEP
000453:
000454: 07,3257           11304        GWAKE              CCS      LGYRO                                 #  WHEN AWAKENED, SEE IF GYROS STILL BUSY.
000455: 07,3260           13255                           TCF      REGSLEEP                              #  IF SO, SLEEP SOME MORE.
000456:
000457: 07,3261           54156                           TS       MPAC       +2
000458: 07,3262           00006                           EXTEND
000459: 07,3263           30155                           DCA      MPAC
000460: 07,3264           52134                           DXCH     BUF2                                  #  RESTORE SWRETURN INFO.
000461: 07,3265           35033                           CAF      ONE
000462: 07,3266           13217                           TCF      GWAKE2
000463:
000464: 07,3267           17257        LGWAKE             CADR     GWAKE
000465:
000466:                                                                                                  #  GYRO-TORQUING WAITLIST TASKS.
000467:
000468: 07,3270           43511        STRTGYRO           CS       GDESELCT                              #  DE-SELECT LAST GYRO.
000469: 07,3271           00006                           EXTEND
000470: 07,3272           03014                           WAND     CHAN14
000471:
000472: 07,3273           03524                           TC       CAGETEST
000473:
000474: 07,3274           31304        STRTGYR2           CA       LGYRO                                 #  JUMP ON PHASE COUNTER IN BITS 13-14.
000475: 07,3275           00006                           EXTEND
000476: 07,3276           75030                           MP       BIT4
000477: 07,3277           50000                           INDEX    A
000478: 07,3300           13301                           TCF      +1
000479: 07,3301           03316                           TC       GSELECT                               #  =0.  DO Y GYRO.
000480: 07,3302           00202                           OCT      00202
000481:
000482: 07,3303           03316                           TC       GSELECT                               #  =1.  DO Z GYRO.
000483: 07,3304           00302                           OCT      00302
000484:
000485: 07,3305           03314                           TC       GSELECT    -2                         #  =2.  DO X GYRO.
000486: 07,3306           00100                           OCT      00100
000487:
000488: 07,3307           35035                           CAF      ZERO                                  #  =3.  DONE
000489: 07,3310           55304                           TS       LGYRO
000490: 07,3311           33267                           CAF      LGWAKE                                #  WAKE A POSSIBLE SLEEPING JOB.
000491: 07,3312           05215                           TC       JOBWAKE
000492:
000493: 07,3313           13115        NORESET            TCF      IMUFINED                              #  DO NOT RESET POWER SUPPLY
000494: 07,3314           45031                 -2        CS       FOUR                                  #  SPECIAL ENTRY TO REGRESS LGYRO FOR X.
000495: 07,3315           27304                           ADS      LGYRO
000496:
000497: 07,3316           50002        GSELECT            INDEX    Q                                     #  SELECT GYRO.
000498: 07,3317           30000                           CAF      0                                     #  PACKED WORD CONTAINS GYRO SELECT BITS
000499: 07,3320           54064                           TS       ITEMP4                                #  AND INCREMENT TO LGYRO.
000500: 07,3321           75037                           MASK     SEVEN
000501: 07,3322           65017                           AD       BIT13
000502: 07,3323           27304                           ADS      LGYRO
000503: 07,3324           54003                           TS       EBANK
000504: 07,3325           74373                           MASK     LOW8
000505: 07,3326           54061                           TS       ITEMP1
000506:
000507: 07,3327           45037                           CS       SEVEN
000508: 07,3330           70064                           MASK     ITEMP4
000509: 07,3331           54064                           TS       ITEMP4
000510:
000511: 07,3332           00006                           EXTEND                                         #  MOVE DP COMMAND TO RUPTREGS FOR TESTING.
000512: 07,3333           50061                           INDEX    ITEMP1
000513: 07,3334           31401                           DCA      1400
000514: 07,3335           52071                           DXCH     RUPTREG1
000515:
000516: 07,3336           10070                           CCS      RUPTREG1
000517: 07,3337           13352                           TCF      MAJ+
000518: 07,3340           13342                           TCF      +2
000519: 07,3341           13472                           TCF      MAJ-
000520:
000521: 07,3342           10071                           CCS      RUPTREG2
000522: 07,3343           13347                           TCF      MIN+
000523: 07,3344           13274                           TCF      STRTGYR2
000524: 07,3345           13467                           TCF      MIN-
000525: 07,3346           13274                           TCF      STRTGYR2
000526:
000527: 07,3347           63403        MIN+               AD       -GYROMIN                              #  SMALL POSITIVE COMMAND.  SEE IF AT LEAST
000528: 07,3350           00006                           EXTEND                                         #  16 GYRO PULSES.
000529: 07,3351           63274                           BZMF     STRTGYR2
000530:
000531: 07,3352           00006        MAJ+               EXTEND                                         #  DEFINITE POSITIVE OUTPUT.
000532: 07,3353           33513                           DCA      GYROFRAC
000533: 07,3354           20071                           DAS      RUPTREG1
000534:
000535: 07,3355           30064                           CA       ITEMP4                                #  SELECT POSITIVE TORQUING FOR THIS GYRO.
000536: 07,3356           00006                           EXTEND
000537: 07,3357           05014                           WOR      CHAN14
000538:
000539: 07,3360           36043                           CAF      LOW7                                  #  LEAVE NUMBER OF POSSIBLE 8192 AUGMENTS
000540: 07,3361           70071                           MASK     RUPTREG2                              #  TO INITIAL COMMAND IN MAJOR PART OF LONG
000541: 07,3362           56071                           XCH      RUPTREG2                              #  TERM STORAGE AND TRUNCATED FRACTION
000542: 07,3363           00006        GMERGE             EXTEND                                         #  IN MINOR PART.  THE MAJOR PART WILL BE
000543: 07,3364           75024                           MP       BIT8                                  #  COUNTED DOWN TO ZERO IN THE COURSE OF
000544: 07,3365           54062                           TS       ITEMP2                                #  PUTTING OUT THE ENTIRE COMMAND.
000545: 07,3366           30070                           CA       RUPTREG1
000546: 07,3367           00006                           EXTEND
000547: 07,3370           75023                           MP       BIT9
000548: 07,3371           54070                           TS       RUPTREG1
000549: 07,3372           30001                           CA       L
000550: 07,3373           00006                           EXTEND
000551: 07,3374           75016                           MP       BIT14
000552: 07,3375           26062                           ADS      ITEMP2                                #  INITIAL COMMAND.
000553:
000554: 07,3376           00006                           EXTEND                                         #  SEE IF MORE THAN ONE PULSE TRAIN NEEDED
000555: 07,3377           30071                           DCA      RUPTREG1                              #  (MORE THAN 16383 PULSES).
000556: 07,3400           67716                           AD       MINUS1
000557: 07,3401           10000                           CCS      A
000558: 07,3402           13426                           TCF      LONGGYRO
000559: 07,3403           77601        -GYROMIN           OCT      -176                                  #  MAY BE ADJUSTED TO SPECIFY MINIMUM CMD
000560: 07,3404           13410                           TCF      +4
000561:
000562: 07,3405           35016                           CAF      BIT14
000563: 07,3406           26062                           ADS      ITEMP2
000564: 07,3407           35035                           CAF      ZERO
000565:
000566: 07,3410           50061                 +4        INDEX    ITEMP1
000567: 07,3411           53401                           DXCH     1400
000568: 07,3412           30062                           CA       ITEMP2                                #  ENTIRE COMMAND.
000569: 07,3413           54047        LASTSEG            TS       GYROCMD
000570: 07,3414           00006                           EXTEND
000571: 07,3415           75022                           MP       BIT10                                 #  WAITLIST DT
000572: 07,3416           66214                           AD       THREE                                 #  TRUNCATION AND PHASE UNCERTAINTIES.
000573: 07,3417           05261                           TC       WAITLIST
000574: 07,3420  E3,1474                                  EBANK=   CDUIND
000575: 07,3420           03270 16063                     2CADR    STRTGYRO
000576:
000577: 07,3422           35022        GYROEXIT           CAF      BIT10
000578: 07,3423           00006                           EXTEND
000579: 07,3424           05014                           WOR      CHAN14
000580: 07,3425           15340                           TCF      TASKOVER
000581:
000582: 07,3426           50061        LONGGYRO           INDEX    ITEMP1
000583: 07,3427           53401                           DXCH     1400                                  #  INITIAL COMMAND OUT PLUS N AUGMENTS OF
000584: 07,3430           35016                           CAF      BIT14                                 #  8192.  INITIAL COMMAND IS AT LEAST 8192.
000585: 07,3431           60062                           AD       ITEMP2
000586: 07,3432           54047                           TS       GYROCMD
000587:
000588: 07,3433           00006        AUG3               EXTEND                                         #  GET WAITLIST DT TO TIME WHEN TRAIN IS
000589: 07,3434           75022                           MP       BIT10                                 #  ALMOST OUT.
000590: 07,3435           67714                           AD       NEG3
000591: 07,3436           05261                           TC       WAITLIST
000592: 07,3437  E3,1474                                  EBANK=   CDUIND
000593: 07,3437           03442 16063                     2CADR    8192AUG
000594:
000595: 07,3441           13422                           TCF      GYROEXIT
000596:
000597: 07,3442           03524        8192AUG            TC       CAGETEST
000598:
000599: 07,3443           35030                           CAF      BIT4
000600: 07,3444           00006                           EXTEND
000601: 07,3445           02012                           RAND     CHAN12
000602: 07,3446           10000                           CCS      A
000603: 07,3447           13522                           TCF      IMUBAD
000604: 07,3450           31304                           CA       LGYRO                                 #  ADD 8192 PULSES TO GYROCMD
000605: 07,3451           54003                           TS       EBANK
000606: 07,3452           74373                           MASK     LOW8
000607: 07,3453           54061                           TS       ITEMP1
000608:
000609: 07,3454           50061                           INDEX    ITEMP1                                #  SEE IF THIS IS THE LAST AUG.
000610: 07,3455           11400                           CCS      1400
000611: 07,3456           13462                           TCF      AUG2                                  #  MORE TO COME.
000612:
000613: 07,3457           35016                           CAF      BIT14
000614: 07,3460           26047                           ADS      GYROCMD
000615: 07,3461           13414                           TCF      LASTSEG    +1
000616:
000617: 07,3462           50061        AUG2               INDEX    ITEMP1
000618: 07,3463           55400                           TS       1400
000619: 07,3464           35016                           CAF      BIT14
000620: 07,3465           26047                           ADS      GYROCMD
000621: 07,3466           13433                           TCF      AUG3                                  #  COMPUTE DT.
000622:
000623: 07,3467           63403        MIN-               AD       -GYROMIN                              #  POSSIBLE NEGATIVE OUTPUT.
000624: 07,3470           00006                           EXTEND
000625: 07,3471           63274                           BZMF     STRTGYR2
000626:
000627: 07,3472           00006        MAJ-               EXTEND                                         #  DEFINITE NEGATIVE OUTPUT.
000628: 07,3473           43513                           DCS      GYROFRAC
000629: 07,3474           20071                           DAS      RUPTREG1
000630:
000631: 07,3475           30064                           CA       ITEMP4                                #  SELECT NEGATIVE TORQUING FOR THIS GYRO.
000632: 07,3476           65023                           AD       BIT9
000633: 07,3477           00006                           EXTEND
000634: 07,3500           05014                           WOR      CHAN14
000635:
000636: 07,3501           40070                           CS       RUPTREG1                              #  SET UP RUPTREGS TO FALL INTO GMERGE.
000637: 07,3502           54070                           TS       RUPTREG1                              #  ALL NUMBERS PUT INTO GYROCMD ARE
000638: 07,3503           40071                           CS       RUPTREG2                              #  POSITIVE - BIT9 OF CHAN 14 DETERMINES
000639: 07,3504           76043                           MASK     LOW7                                  #  THE SIGN OF THE COMMAND.
000640: 07,3505           40000                           COM
000641: 07,3506           56071                           XCH      RUPTREG2
000642: 07,3507           40000                           COM
000643: 07,3510           13363                           TCF      GMERGE
000644:
000645: 07,3511           01700        GDESELCT           OCT      1700                                  #  TURN OFF SELECT AND ACTIVITY BITS.
000646:
000647: 07,3512           00000 00034  GYROFRAC           2DEC     .215       B-21
000648:
000649:                                                                                                  #  IMU MODE SWITCHING ROUTINES COME HERE WHEN ACTION COMPLETE.
000650:
000651: 07,3514           00006        ENDIMU             EXTEND                                         #  MODE IS BAD IF CAGE HAS OCCURED OR IF
000652: 07,3515           00011                           READ     DSALMOUT                              #  ISS WARNING IS ON.
000653: 07,3516           75033                           MASK     BIT1
000654: 07,3517           10000                           CCS      A
000655: 07,3520           13522                           TCF      IMUBAD
000656:
000657: 07,3521           13550        IMUGOOD            TCF      GOODEND                               #  WITH C(A) = 0.
000658:
000659: 07,3522           35035        IMUBAD             CAF      ZERO
000660: 07,3523           13545                           TCF      BADEND
000661:
000662: 07,3524           35026        CAGETEST           CAF      BIT6                                  #  SUBROUTINE TO TERMINATE IMU MODE
000663: 07,3525           71320                           MASK     IMODES30                              #  SWITCH IF IMU HAS BEEN CAGED.
000664: 07,3526           10000                           CCS      A
000665: 07,3527           13522                           TCF      IMUBAD                                #  DIRECTLY.
000666: 07,3530           00002                           TC       Q                                     #  WITH C(A) = +0.
000667:
000668: 07,3531           41320        CAGETSTQ           CS       IMODES30                              #  SKIP IF IMU NOT BEING CAGED.
000669: 07,3532           75026                           MASK     BIT6
000670: 07,3533           10000                           CCS      A
000671: 07,3534           24002                           INCR     Q
000672: 07,3535           00002                           TC       Q
000673:
000674: 07,3536           41320        CAGETSTJ           CS       IMODES30                              #  IF DURING MODE SWITCH INITIALIZATION
000675: 07,3537           75026                           MASK     BIT6                                  #  IT IS FOUND THAT THE IMU IS BEING CAGED,
000676: 07,3540           10000                           CCS      A                                     #  SET IMUCADR TO -0 TO INDICATE OPERATION
000677: 07,3541           00002                           TC       Q                                     #  COMPLETE BUT FAILED.  RETURN IMMEDIATELY
000678: 07,3542           45035                           CS       ZERO                                  #  TO SWRETURN.
000679: 07,3543           55322                           TS       IMUCADR
000680: 07,3544           12640                           TCF      MODEEXIT
000681:
000682:                                                                                                  #  GENERALIZED MODE SWITCHING TERMINATION.  ENTER AT GOODEND FOR SUCCESSFUL COMPLETION OF AN I/O OPERATION
000683:                                                                                                  #  OR AT BADEND FOR AN UNSUCCESSFUL ONE.  C(A) OR ARRIVAL =0 FOR IMU, 1 FOR OPTICS.
000684:
000685: 07,3545           54071        BADEND             TS       RUPTREG2                              #  DEVICE INDEX.
000686: 07,3546           45035                           CS       ZERO                                  #  FOR FAILURE.
000687: 07,3547           13552                           TCF      GOODEND    +2
000688:
000689: 07,3550           54071        GOODEND            TS       RUPTREG2
000690: 07,3551           45033                           CS       ONE                                   #  FOR SUCCESS.
000691:
000692: 07,3552           54072                           TS       RUPTREG3
000693: 07,3553           50071                           INDEX    RUPTREG2                              #  SEE IF USING PROGRAM ASLEEP.
000694: 07,3554           11322                           CCS      MODECADR
000695: 07,3555           13557                           TCF      +2                                    #  YES - WAKE IT UP.
000696: 07,3556           13567                           TCF      ENDMODE                               #  IF 0, PROGRAM NOT IN YET.
000697:
000698: 07,3557           35035                           CAF      ZERO                                  #  WAKE SLEEPING PROGRAM.
000699: 07,3560           50071                           INDEX    RUPTREG2
000700: 07,3561           57322                           XCH      MODECADR
000701: 07,3562           05215                           TC       JOBWAKE
000702:
000703: 07,3563           40072                           CS       RUPTREG3                              #  ADVANCE LOC IF SUCCESSFUL.
000704: 07,3564           50064                           INDEX    LOCCTR
000705: 07,3565           26164                           ADS      LOC
000706:
000707: 07,3566           15340                           TCF      TASKOVER
000708:
000709: 07,3567           30072        ENDMODE            CA       RUPTREG3                              #  -0 INDICATES OPERATION COMPLETE BUT
000710: 07,3570           50071                           INDEX    RUPTREG2                              #  UNSUCCESSFUL - -1 INDICATES COMPLETE AND
000711: 07,3571           55322                           TS       MODECADR                              #  SUCCESSFUL.
000712: 07,3572           15340                           TCF      TASKOVER
000713:
000714:                                                                                                  #  GENERAL STALLING ROUTINE.  USING PROGRAMS COME HERE TO WAIT FOR I/O COMPLETION.
000715:
000716:                                                                                                  #  PROGRAM DESCRIPTION                           DATE - 21 FEB 1967
000717:                                                                                                  #                                                LOG SECTION IMU MODE SWITCHING
000718:                                                                                                  #  MOD BY - R. MELANSON TO ADD DOCUMENTATION     ASSEMBLY SUNDISK REV. 82
000719:
000720:                                                                                                  #  FUNCTIONAL DESCRIPTION -
000721:                                                                                                  #        TO DELAY FURTHER EXECUTION OF THE CALLING ROUTINE UNTIL ITS SELECTED
000722:                                                                                                  #        I/O FUNCTION IS COMPLETE.  THE FOLLOWING CHECKS ON THE CALLING ROUTINE:S
000723:                                                                                                  #        MODECADR ARE MADE AND ACTED UPON.
000724:                                                                                                  #        1) +0 INDICATES INCOMPLETE I/O OPERATION.  CALLING ROUTINE IS PUT TO
000725:                                                                                                  #           SLEEP.
000726:                                                                                                  #        2) -1 INDICATES COMPLETED I/O OPERATION.  STALL BYPASSES JOBSLEEP
000727:                                                                                                  #           CALL AND RETURNS TO CALLING ROUTINE AT L+3
000728:                                                                                                  #        3) -0 INDICATES COMPLETED I/O WITH FAILURE.  STALL CLEARS MODECADR
000729:                                                                                                  #           AND RETURNS TO CALLING ROUTINE AT L+2.
000730:                                                                                                  #        4) VALUE GREATER THAN 0 INDICATES TWO ROUTINES CALLING FOR USE OF
000731:                                                                                                  #           SAME DEVICE.  STALL EXITS TO ABORT WHICH EXECUTES A PROGRAM
000732:                                                                                                  #           RESTART WHICH IN TURN CLEARS ALL MODECADR REGISTERS.
000733:
000734:                                                                                                  #  CALLING SEQUENCE -
000735:                                                                                                  #        L       TC      BANKCALL
000736:                                                                                                  #        L+1     CADR    (ONE OF 5 STALL ADDRESSES  I.E. IMUSTALL, OPTSTALL, RADSTALL,
000737:                                                                                                  #                        AOTSTALL, OR ATTSTALL)
000738:
000739:                                                                                                  #  NORMAL-EXIT MODE -
000740:                                                                                                  #        TCF JOBSLEEP    OR      TCF MODEXIT
000741:
000742:                                                                                                  #  ALARM OR ABORT EXIT MODE -
000743:                                                                                                  #        TC      ABORT
000744:
000745:                                                                                                  #  OUTPUT -
000746:                                                                                                  #        MODECADR=CADR   IF JOBSLEEP
000747:                                                                                                  #        MODECADR=+0     IF I/O COMPLETE
000748:                                                                                                  #        BUF2=L+3        IF I/O COMPLETE AND GOOD.
000749:                                                                                                  #        BUF2=L+2        IF I/O COMPLETE BUT FAILED.
000750:
000751:                                                                                                  #  ERASABLE INITIALIZATION -
000752:                                                                                                  #        BUF2 CONTAINS RETURN ADDRESS PLUS 1,(L+2)
000753:                                                                                                  #        BUF2+1 CONTAINS FBANK VALUE OF CALLING ROUTINE.
000754:                                                                                                  #        MODECADR OF CALLING ROUTINE CONTAINS +0,-1,-0 OR CADR RETURN ADDRESS.
000755:
000756:                                                                                                  #  DEBRIS -
000757:                                                                                                  #        RUPTREG2 AND CALLING ROUTINE MODECADR.
000758:
000759: 07,3573           35033        AOTSTALL           CAF      ONE                                   #  AOT.
000760: 07,3574           03600                           TC       STALL
000761:
000762: 07,3575           35032        RADSTALL           CAF      TWO
000763: 07,3576           13600                           TCF      STALL
000764:
000765: 07,3577  07,3573               OPTSTALL           EQUALS   AOTSTALL
000766:
000767: 07,3577           35035        IMUSTALL           CAF      ZERO                                  #  IMU.
000768:
000769: 07,3600           00004        STALL              INHINT
000770: 07,3601           54071                           TS       RUPTREG2                              #  SAVE DEVICE INDEX.
000771: 07,3602           50000                           INDEX    A                                     #  SEE IF OPERATION COMPLETE.
000772: 07,3603           11322                           CCS      MODECADR
000773: 07,3604           13622                           TCF      MODABORT                              #  ALLOWABLE STATES ARE +0, -1, AND -0.
000774: 07,3605           13616                           TCF      MODESLP                               #  OPERATION INCOMPLETE.
000775: 07,3606           13612                           TCF      MODEGOOD                              #  COMPLETE AND GOOD IF = -1.
000776:
000777: 07,3607           50071        MG2                INDEX    RUPTREG2                              #  COMPLETE AND FAILED IF -0.  RESET TO +0.
000778: 07,3610           55322                           TS       MODECADR                              #  RETURN TO CALLER.
000779: 07,3611           12640                           TCF      MODEEXIT
000780:
000781: 07,3612           10000        MODEGOOD           CCS      A                                     #  MAKE SURE INITIAL STATE -1.
000782: 07,3613           13622                           TCF      MODABORT
000783:
000784: 07,3614           24133                           INCR     BUF2                                  #  IF SO, INCREMENT RETURN ADDRESS AND
000785: 07,3615           13607                           TCF      MG2                                   #  RETURN IMMEDIATELY, SETTING CADR = +0.
000786:
000787: 07,3616           04725        MODESLP            TC       MAKECADR                              #  CALL FROM SWITCHABLE FIXED ONLY.
000788: 07,3617           50071                           INDEX    RUPTREG2
000789: 07,3620           55322                           TS       MODECADR
000790: 07,3621           15211                           TCF      JOBSLEEP
000791:
000792: 07,3622           05725        MODABORT           TC       POODOO                                #  TWO PROGRAMS USING SAME DEVICE.
000793: 07,3623           21210                           OCT      21210
000794:
000795:                                                                                                  #  CONSTANTS FOR MODE SWITCHING ROUTINES
000796:
000797: 07,3624     5775               BITS3&4            =        OCT14
000798: 07,3624     5047               BITS4&6            =        OCT50
000799: 07,3624     5043               BITS4-5            EQUALS   BITS4&5
000800: 07,3624     5024               IMUSEFLG           EQUALS   BIT8                                  #  INTERPRETER SWITCH 7.
000801: 07,3624           77500        -COMMAX            DEC      -191       B-14
000802: 07,3625           77477        -COMMAX-           DEC      -192       B-14
000803: 07,3626           00074        600MS              DEC      60         B-14
000804: 07,3627  07,3073               IMUFIN20           =        IMUFINE
000805: 07,3627           31325        GOMANUR            CA       ATTCADR                               #  IS KALCMANU FREE
000806: 07,3630           00006                           EXTEND
000807: 07,3631           13634                           BZF      +3
000808: 07,3632           05725                           TC       POODOO                                #  NO
000809: 07,3633           21210                           OCT      21210                                 #  2 TRYING TO USE SAME DEVICE
000810:
000811: 07,3634           00006                 +3        EXTEND
000812: 07,3635           30134                           DCA      BUF2
000813: 07,3636           53326                           DXCH     ATTCADR                               #  SAVE FINAL RETURN FOR KALCMAN3
000814:
000815: 07,3637           30006                           CA       BBANK
000816: 07,3640           75037                           MASK     SEVEN
000817: 07,3641           27326                           ADS      ATTCADR    +1
000818:
000819: 07,3642           30167                           CA       PRIORITY
000820: 07,3643           77674                           MASK     PRIO37
000821: 07,3644           55327                           TS       ATTPRIO                               #  SAVE USERS PRIO
000822:
000823: 07,3645           33651                           CAF      KALEBCON                              #  SET EBANK FOR KALCMAN3
000824: 07,3646           54003                           TS       EBANK
000825: 07,3647           04715                           TC       POSTJUMP
000826: 07,3650           44000                           CADR     KALCMAN3
000827: 07,3651           03261        KALEBCON           ECADR    BCDU
000828:
000829:                                                                                                  #  PROGRAM DESCRIPTION
000830:                                                                                                  #  IMU STATUS CHECK ROUTINE R02 (SUBROUTINE UTILITY)
000831:                                                                                                  #  MOD NO - 1
000832:                                                                                                  #  MOD BY - N.BRODEUR
000833:
000834:                                                                                                  #  FUNCTIONAL DESCRIPTION
000835:                                                                                                  #        TO CHECK WHETHER IMU IS ON AND IF ON WHETHER IT IS ALIGNED TO AN
000836:                                                                                                  #        ORIENTATION KNOWN BY THE CMC.  TO REQUEST SELECTION OF THE APPROPRIATE
000837:                                                                                                  #        PROGRAM IF THE IMU IS OFF OR NOT ALIGNED TO AN ORIENTATION KNOWN BY THE
000838:                                                                                                  #        CMC.  CALLED THROUGH BANKCALL
000839:
000840:                                                                                                  #  CALLING SEQUENCE -
000841:                                                                                                  #        L       TC      BANKCALL
000842:                                                                                                  #        L+1     CADR    R02BOTH
000843:
000844:                                                                                                  #  SUBROUTINES CALLED
000845:                                                                                                  #        VARALARM
000846:                                                                                                  #        FLAGUP
000847:
000848:                                                                                                  #  NORMAL EXIT MODES
000849:                                                                                                  #        AT L+2 OF CALLING SEQUENCE
000850:
000851:                                                                                                  #  ALARM OR ABORT EXIT MODES
000852:                                                                                                  #        GOTOPOOH, WITH ALARM
000853:
000854:                                                                                                  #  ERASABLE INITIALIZATION REQUIRED
000855:                                                                                                  #        NONE
000856:
000857:                                                                                                  #  DEBRIS
000858:                                                                                                  #        CENTRALS - A,Q,L
000859:
000860: 34,3763                                           BANK     34
000861: 07,2000                                           SETLOC   R02
000862: 07,2000                                           BANK
000863: 07,3652                                           COUNT    04/R02                                #  COUNT*
000864:
000865: 07,3652           00063        DEC51              DEC      51         B-14
000866: 07,3653           35017        R02BOTH            CAF      BIT13
000867: 07,3654           70077                           MASK     STATE      +3                         #  REFSMFLG
000868: 07,3655           10000                           CCS      A
000869: 07,3656           03667                           TC       R02ZERO                               #  ZERO IMUS
000870:
000871: 07,3657           31320                           CA       IMODES30
000872: 07,3660           75023                           MASK     BIT9                                  #  IS ISS INITIALIZED
000873: 07,3661           00006                           EXTEND
000874: 07,3662           13664                           BZF      +2
000875: 07,3663           45030                           CS       BIT4                                  #  SEND IMU ALARM CODE 210
000876: 07,3664           63672                           AD       OCT220                                #  SEND REFSMM ALARM
000877: 07,3665           05770                           TC       VARALARM
000878:
000879: 07,3666           04106                           TC       GOTOPOOH
000880:
000881: 07,3667           05562        R02ZERO            TC       UPFLAG
000882: 07,3670           00007                           ADRES    IMUSE
000883: 07,3671           14711                           TCF      SWRETURN
000884: 07,3672           00220        OCT220             OCT      220
000885:
000886:                                                                                                  #  PROGRAM DESCRIPTION   P06             10FEB67
000887:
000888:                                                                                                  #  TRANSFER THE ISS/CMC FROM THE OPERATE TO THE STANDBY CONDITION.
000889:
000890:                                                                                                  #  THE NORMAL CONDITION OF READINESS OF THE GNCS WHEN NOT IN USE IS STANDBY.  IN THIS CONDITION THE IMU
000891:                                                                                                  #  HEATER POWER IS ON.  THE IMU OPERATE POWER IS OFF.  THE COMPUTER POWER IS ON.  THE OPTICS POWER IS OFF.  THE
000892:                                                                                                  #  CMC STANDBY ON THE MAIN AND LEB DISKYS IS ON.
000893:
000894:                                                                                                  #  CALLING SEQUENCE:
000895:                                                                                                  #        ASTRONAUT REQUEST THROUGH DSKY  V37E 06E.
000896:
000897:                                                                                                  #  SUBROUTINES CALLED:
000898:                                                                                                  #        GOPERF1
000899:                                                                                                  #        BANKCALL
000900:                                                                                                  #        FLAGDOWN
000901:
000902:                                                                                                  #  PRESTAND PREPARES FOR STANDBY BY SNAPSHOTTING THE SCALER AND TIME1 TIME2
000903:                                                                                                  #  THE LOW 5 BITS OF THE SCALER ARE INSPECTED TO INSURE COMPATABILITY
000904:                                                                                                  #  BETWEEN THE SCALER READING AND THE TIME1 TIME2 READING.
000905:
000906: 26,2000                                           SETLOC   P05P06
000907: 26,2000                                           BANK
000908:
000909: 26,3657     1150                                  EBANK=   TIME2SAV
000910: 26,3657                                           COUNT*   $$/P06
000911:
000912: 26,3657           05562        P06                TC       UPFLAG                                #  SET NODOV37 BIT
000913: 26,3660           00054                           ADRES    NODOFLAG
000914:
000915: 26,3661           00004        PRESTAND           INHINT
000916: 26,3662           00006                           EXTEND
000917: 26,3663           30025                           DCA      TIME2                                 #  SNAPSHOT TIME1 TIME2
000918: 26,3664           53151                           DXCH     TIME2SAV
000919: 26,3665           03716                           TC       SCALPREP
000920: 26,3666           03661                           TC       PRESTAND                              #  T1,T2,SCALER NOT COMPATIBLE
000921: 26,3667           52155                           DXCH     MPAC                                  #  T1,T2 AND SCALER OK
000922: 26,3670           53153                           DXCH     SCALSAVE                              #  STORE SCALER
000923: 26,3671           00004                           INHINT
000924: 26,3672           04676                           TC       BANKCALL
000925: 26,3673           17060                           CADR     RNDREFDR                              #  REFSMM, DRIFT, TRACK FLAGS DOWN
000926:
000927: 26,3674           05574                           TC       DOWNFLAG
000928: 26,3675           00007                           ADRES    IMUSE                                 #  IMUSE DOWN
000929: 26,3676           05574                           TC       DOWNFLAG
000930: 26,3677           00010                           ADRES    RNDVZFLG                              #  RNDVZFLG DOWN
000931:
000932: 26,3700           35021                           CAF      BIT11
000933: 26,3701           00006                           EXTEND
000934: 26,3702           05013                           WOR      CHAN13                                #  SET STANDBY ENABLE BIT
000935:
000936: 26,3703           05426                           TC       PHASCHNG                              #  SET RESTART TO POSTAND WHEN STANDBY
000937: 26,3704           07024                           OCT      07024                                 #        RECOVERS
000938: 26,3705           20000                           OCT      20000
000939: 26,3706     1152                                  EBANK=   SCALSAVE
000940: 26,3706           03736 54062                     2CADR    POSTAND
000941:
000942: 26,3710           35052                           CAF      OCT62
000943: 26,3711           04676                           TC       BANKCALL
000944: 26,3712           21045                           CADR     GOPERF1
000945: 26,3713           13710                           TCF      -3
000946: 26,3714           13710                           TCF      -4
000947: 26,3715           13710                           TCF      -5
000948:
000949: 26,3716     5052               OCT62              EQUALS   .5SEC                                 #  DEC 50 = OCT 62
000950:
000951:                                                                                                  #  THE LOW 5 BITS OF THE SCALER READS 10000 FOR THE FIRST INTERVAL AFTER A
000952:                                                                                                  #  T1 INCREMENT.  IF SCALPREP DETECTS THIS INTERVAL THE T1,T2 AND SCALER
000953:                                                                                                  #  DATA ARE NOT COMPATABLE AND RETURN IS TO L+1 FOR ANOTHER READING OF THE
000954:                                                                                                  #  DATA.  OTHERWISE, THE RETURN IS TO L+2 TO PROCEED.  ROUTINE ALSO PREPARES
000955:                                                                                                  #  THE SCALER READING FOR COMPUTATION OF THE INCREMENT TO UPDATE T1T2.  (THE
000956:                                                                                                  #  10 MS BIT (BIT 6) OF THE SCALER IS INCREMENTED 5 MS OUT OF PHASE FROM
000957:                                                                                                  #  T1.) ADDITION OF 5 MS (BIT 5) TO THE SCALER READING HAS THE EFFECT OF
000958:                                                                                                  #  ADJUSTING BIT 6 IN THE SCALER TO BE IN PHASE WITH BIT 1 OF T1.  THE LOW 5
000959:                                                                                                  #  BITS OF THE SCALER READING ARE THEN SET TO ZERO, TO TRUNCATE THE SCALER
000960:                                                                                                  #  DATA TO 10 MS.  RESULTS ARE STORED IN MPAC, +1.
000961:
000962: 26,3716           00006        SCALPREP           EXTEND
000963: 26,3717           22156                           QXCH     MPAC       +2
000964: 26,3720           04554                           TC       FINETIME   +1
000965: 26,3721           00003                           RELINT
000966: 26,3722           52155                           DXCH     MPAC
000967: 26,3723           35027                           CA       BIT5                                  #  ADD 5 MS TO THE SCALER READING.
000968: 26,3724           54001                           TS       L
000969: 26,3725           35035                           CA       ZERO
000970: 26,3726           20155                           DAS      MPAC
000971: 26,3727           44362                           CS       LOW5                                  #  SET LOW 5 BITS OF (SCALER+5MS) TO ZERO
000972: 26,3730           70155                           MASK     MPAC       +1                         #  AND STORE RESULTS IN MPAC,+1.
000973: 26,3731           56155                           XCH      MPAC       +1
000974: 26,3732           74362                           MASK     LOW5                                  #  TEST LOW 5 BITS OF SCALER FOR THE FIRST
000975:                                                                                                  #  INTERVAL AFTER THE T1 INCREMENT
000976:                                                                                                  #  (NOW = 00000, SINCE BIT 5 ADDED).
000977: 26,3733           10000                           CCS      A                                     #  IS IT 1ST INTERVAL AFTER T1 INCREMENT
000978: 26,3734           24156                           INCR     MPAC       +2                         #  NO
000979: 26,3735           00156                           TC       MPAC       +2                         #  YES
000980:
000981:                                                                                                  #  POSTAND RECOVERS TIME AFTER STANDBY.  THE SCALER IS SNAPSHOTTED AND THE
000982:                                                                                                  #  TIME1 TIME2 COUNTER IS SET TO ZERO.  THE LOW 5 BITS OF THE SCALER ARE
000983:                                                                                                  #  INSPECTED TO INSURE COMPATABILITY BETWEEN THE SCALER READING AND THE
000984:                                                                                                  #  CLEARING OF THE TIME COUNTER.  IT THEN COMPUTES THE DIFFERENCE IN SCALER
000985:                                                                                                  #  VALUES (IN DP) AND ADDS THIS TO THE PREVIOUSLY SNAPSHOTTED VALUES OF
000986:                                                                                                  #  TIME1 TIME2 AND PLACES THIS NEW TIME INTO THE TIME1 TIME2 COUNTER.
000987:
000988: 26,3736                                           COUNT*   $$/P05
000989:
000990: 26,3736           45021        POSTAND            CS       BIT11                                 #  RECOVER TIME AFTER STANDBY.
000991: 26,3737           00006                           EXTEND
000992: 26,3740           03013                           WAND     CHAN13                                #  CLEAR STANDBY ENABLE BIT
000993: 26,3741           00004                           INHINT
000994: 26,3742           35035                           CA       ZERO
000995: 26,3743           54001                           TS       L
000996: 26,3744           52025                           DXCH     TIME2                                 #  CLEAR TIME1 TIME2
000997: 26,3745           03716                           TC       SCALPREP                              #  STORE SCALER IN MPAC, MPAC+1
000998: 26,3746           03741                           TC       POSTAND    +3                         #  T1,T2,SCALER NOT COMPATIBLE
000999: 26,3747           00006                           EXTEND                                         #  T1,T2 AND SCALER OK
001000: 26,3750           41153                           DCS      SCALSAVE
001001: 26,3751           20155                           DAS      MPAC                                  #  FORM DP DIFFERENCE OF POSTSTANDBY SCALER
001002: 26,3752           35022                           CAF      BIT10                                 #  MINUS PRESTANDBY SCALER AND SHIFT RIGHT
001003: 26,3753           07256                           TC       SHORTMP                               #  5 TO ALIGN BITS WITH TIME1 TIME2.
001004: 26,3754           35035                           CAF      ZERO
001005: 26,3755           54156                           TS       MPAC       +2                         #  NEEDED FOR TP AGREE
001006: 26,3756           07226                           TC       TPAGREE                               #  MAKE DP DIFF AGREE
001007: 26,3757           10154                           CCS      MPAC
001008: 26,3760           03765                           TC       POSTCOM                               #  IF DP DIFF NET +, NO SCALER OVERFLOW
001009: 26,3761           03765                           TC       POSTCOM                               #  BETWEEN PRE AND POST STANDBY.
001010: 26,3762           03763                           TC       +1                                    #  IF DP DIFF NET -, SCALER OVERFLOWED.  ADD
001011: 26,3763           35022                           CAF      BIT10                                 #  BIT 10 TO HIGH DIFF TO CORRECT.
001012: 26,3764           26154                           ADS      MPAC
001013: 26,3765           00006        POSTCOM            EXTEND                                         #  C(MPAC,+1) IS MAGNITUDE OF DELTA SCALER.
001014: 26,3766           31151                           DCA      TIME2SAV                              #  PRESTANDBY TIME1 TIME2
001015: 26,3767           20155                           DAS      MPAC
001016: 26,3770           07226                           TC       TPAGREE                               #  FORCE SIGN AGREEMENT
001017: 26,3771           52155                           DXCH     MPAC                                  #  UPDATED VALUE FOR T1,T2.
001018: 26,3772           20025                           DAS      TIME2                                 #  LOAD UPDATED VALUE INTO T1,T2, WITH
001019: 26,3773           05574                           TC       DOWNFLAG                              #  CLEAR NODOFLAG
001020: 26,3774           00054                           ADRES    NODOFLAG
001021:
001022: 26,3775           04106                           TC       GOTOPOOH
001023:
001024:
001025:

End of include-file IMU_MODE_SWITCHING_ROUTINES.agc.  Parent file is MAIN.agc


