
Source Code


000002:                                                                                                  ## Copyright:   Public domain.
000003:                                                                                                  ## Filename:    IMU_COMPENSATION_PACKAGE.agc
000004:                                                                                                  ## Purpose:     A section of Comanche revision 067.
000005:                                                                                                  ##              It is part of the reconstructed source code for the flight
000006:                                                                                                  ##              software for the Command Module's (CM) Apollo Guidance Computer
000007:                                                                                                  ##              (AGC) for Apollo 12. No original listings of this program are
000008:                                                                                                  ##              available; instead, this file was created via dissassembly of
000009:                                                                                                  ##              dumps of Comanche 067 core rope modules and comparison with
000010:                                                                                                  ##              other AGC programs.
000011:                                                                                                  ## Assembler:   yaYUL
000012:                                                                                                  ## Contact:     Ron Burkey <info@sandroid.org>.
000013:                                                                                                  ## Website:     www.ibiblio.org/apollo/index.html
000014:                                                                                                  ## Mod history: 2023-08-16 MAS  Created from Comanche 055.
000015:                                                                                                  ##              2024-05-13 MAS  Updated for Comanche 067.
000016:
000017: 07,2441                                           BANK     7
000018: 06,2000                                           SETLOC   IMUCOMP
000019: 06,2000                                           BANK
000020: 06,3262  E3,1460                                  EBANK=   NBDX
000021:
000022: 06,3262                                           COUNT    06/ICOMP
000023:
000024: 06,3262           33516        1/PIPA             CAF      LGCOMP                                #  SAVE EBANK OF CALLING PROGRAM
000025: 06,3263           56003                           XCH      EBANK
000026: 06,3264           54163                           TS       MODE
000027:
000028: 06,3265           11477                           CCS      GCOMPSW                               #  BYPASS IF GCOMPSW NEGATIVE
000029: 06,3266           13271                           TCF      +3
000030: 06,3267           13271                           TCF      +2
000031: 06,3270           13407                           TCF      IRIG1                                 #  RETURN
000032:
000033: 06,3271           00004                           INHINT                                         #  ASSURE COMPLETE COMPENSATION OF DELV'S
000034:                                                                                                  #  FOR DOWNLINK.
000035:
000036: 06,3272           35031        1/PIPA1            CAF      FOUR                                  #  PIPAZ, PIPAY, PIPAX
000037: 06,3273           54132                           TS       BUF        +2
000038:
000039: 06,3274           50132                           INDEX    BUF        +2
000040: 06,3275           31453                           CA       PIPASCF                               #  (P.P.M.) X 2(-9)
000041: 06,3276           00006                           EXTEND
000042: 06,3277           50132                           INDEX    BUF        +2
000043: 06,3300           71162                           MP       DELVX                                 #  (PP) X 2(+14) NOW (PIPA PULSES) X 2(+5)
000044: 06,3301           54002                           TS       Q                                     #  SAVE MAJOR PART
000045:
000046: 06,3302           30001                           CA       L                                     #  MINOR PART
000047: 06,3303           00006                           EXTEND
000048: 06,3304           75026                           MP       BIT6                                  #  SCALE 2(+9)   SHIFT RIGHT 9
000049: 06,3305           50132                           INDEX    BUF        +2
000050: 06,3306           55163                           TS       DELVX      +1                         #  FRACTIONAL PIPA PULSES SCALED 2(+14)
000051:
000052: 06,3307           30002                           CA       Q                                     #  MAJOR PART
000053: 06,3310           00006                           EXTEND
000054: 06,3311           75026                           MP       BIT6                                  #  SCALE 2(+9)   SHIFT RIGHT 9
000055: 06,3312           50132                           INDEX    BUF        +2
000056: 06,3313           21163                           DAS      DELVX                                 #  (PIPAI) + (PIPAI)(SFE)
000057:
000058: 06,3314           50132                           INDEX    BUF        +2
000059: 06,3315           41452                           CS       PIPABIAS                              #  (PIPA PULSES)/(CS) X 2(-6)
000060: 06,3316           00006                           EXTEND
000061: 06,3317           71074                           MP       1/PIPADT                              #  (CS) X 2(+8) NOW (PIPA PULSES) X 2(+2)
000062: 06,3320           00006                           EXTEND
000063: 06,3321           75031                           MP       BIT3                                  #  SCALE 2(+12) SHIFT RIGHT 12
000064: 06,3322           50132                           INDEX    BUF        +2
000065: 06,3323           21163                           DAS      DELVX                                 #  (PIPAI) + (PIPAI)(SFE) - (BIAS)(DELTAT)
000066:
000067: 06,3324           10132                           CCS      BUF        +2                         #  PIPAZ, PIPAY, PIPAX
000068: 06,3325           67716                           AD       NEG1
000069: 06,3326           13273                           TCF      1/PIPA1    +1
000070: 06,3327           13330                           NOOP                                           #  LESS THAN ZERO IMPOSSIBLE.
000071: 06,3330           00003                           RELINT
000072:
000073: 06,3331           55477        IRIGCOMP           TS       GCOMPSW                               #  INDICATE COMMANDS 2 PULSES OR LESS
000074: 06,3332           54130                           TS       BUF                                   #  INDEX COUNTER - IRIGX, IRIGY, IRIGZ
000075:
000076: 06,3333           00006        IRIGX              EXTEND
000077: 06,3334           41163                           DCS      DELVX                                 #  (PIPA PULSES) X 2(+14)
000078: 06,3335           52155                           DXCH     MPAC
000079: 06,3336           31463                           CA       ADIAX                                 #  (GYRO PULSES)/(PIPA PULSE) X 2(-3)            *
000080: 06,3337           03412                           TC       GCOMPSUB                              #  -(ADIAX)(PIPAX)       (GYRO PULSES) X 2(+14)
000081:
000082: 06,3340           00006                           EXTEND                                         #
000083: 06,3341           41165                           DCS      DELVY                                 #        (PIPA PULSES) X 2(+14)
000084: 06,3342           52155                           DXCH     MPAC                                  #
000085: 06,3343           41466                           CS       ADSRAX                                #        (GYRO PULSES)/(PIPA PULSE) X 2(-3)      *
000086: 06,3344           03412                           TC       GCOMPSUB                              #        +(ADSRAX)(PIPAY)        (GYRO PULSES) X 2(+14)
000087:
000088:                                                                                                  #                EXTEND                  ***
000089:                                                                                                  #                DCS     DELVZ           ***     (PIPA PULSES) X 2(+14)
000090:                                                                                                  #                DXCH    MPAC            ***
000091:                                                                                                  #                CA      ADOAX           ***     (GYRO PULSES)/(PIPA PULSE) X 2(-3)      *
000092:                                                                                                  #                TC      GCOMPSUB        ***     -(ADOAX)(PIPAZ)         (GYRO PULSES) X 2(+14)
000093:
000094: 06,3345           41460                           CS       NBDX                                  #        (GYRO PULSES)/(CS) X 2(-5)
000095: 06,3346           03441                           TC       DRIFTSUB                              #        -(NBDX)(DELTAT) (GYRO PULSES) X 2(+14)
000096:
000097: 06,3347           00006        IRIGY              EXTEND
000098: 06,3350           41165                           DCS      DELVY                                 #  (PIPA PULSES) X 2(+14)
000099: 06,3351           52155                           DXCH     MPAC
000100: 06,3352           31464                           CA       ADIAY                                 #  (GYRO PULSES)/(PIPA PULSE) X 2(-3)            *
000101: 06,3353           03412                           TC       GCOMPSUB                              #  -(ADIAY)(PIPAY)       (GYRO PULSES) X 2(+14)
000102:
000103: 06,3354           00006                           EXTEND
000104: 06,3355           41167                           DCS      DELVZ                                 #  (PIPA PULSES) X 2(+14)
000105: 06,3356           52155                           DXCH     MPAC
000106: 06,3357           41467                           CS       ADSRAY                                #  (GYRO PULSES)/(PIPA PULSE) X 2(-3)            *
000107: 06,3360           03412                           TC       GCOMPSUB                              #  +(ADSRAY)(PIPAZ)      (GYRO PULSES) X 2(+14)
000108:
000109:                                                                                                  #                EXTEND                  ***
000110:                                                                                                  #                DCS     DELVX           ***     (PIPA PULSES) X 2(+14)
000111:                                                                                                  #                DXCH    MPAC            ***
000112:                                                                                                  #                CA      ADOAY           ***     (GYRO PULSES)/(PIPA PULSE) X 2(-3)      *
000113:                                                                                                  #                TC      GCOMPSUB        ***     -(ADOAY)(PIPAX)    (GYRO PULSES) X 2(+14)
000114:
000115: 06,3361           41461                           CS       NBDY                                  #        (GYRO PULSES)/(CS) X 2(-5)
000116: 06,3362           03441                           TC       DRIFTSUB                              #        -(NBDY)(DELTAT) (GYRO PULSES) X 2(+14)
000117:
000118: 06,3363           00006        IRIGZ              EXTEND
000119: 06,3364           41165                           DCS      DELVY                                 #  (PIPA PULSES) X 2(+14)
000120: 06,3365           52155                           DXCH     MPAC
000121: 06,3366           31470                           CA       ADSRAZ                                #  (GYRO PULSES)/(PIPA PULSE) X 2(-3)            *
000122: 06,3367           03412                           TC       GCOMPSUB                              #  -(ADSRAZ)(PIPAY)      (GYRO PULSES) X 2(+14)
000123:
000124: 06,3370           00006                           EXTEND
000125: 06,3371           41167                           DCS      DELVZ                                 #  (PIPA PULSES) X 2(+14)
000126: 06,3372           52155                           DXCH     MPAC
000127: 06,3373           31465                           CA       ADIAZ                                 #  (GYRO PULSES)/(PIPA PULSE) X 2(-3)            *
000128: 06,3374           03412                           TC       GCOMPSUB                              #  -(ADIAZ)(PIPAZ)       (GYRO PULSES) X 2(+14)
000129:
000130:                                                                                                  #                EXTEND                  ***
000131:                                                                                                  #                DCS     DELVX           ***     (PIPA PULSE) X 2(+14)
000132:                                                                                                  #                DXCH    MPAC            ***
000133:                                                                                                  #                CS      ADOAZ           ***     (GYRO PULSES)/(PIPA PULSE) X 2(-3)      *
000134:                                                                                                  #                TC      GCOMPSUB        ***     +(ADOAZ)(PIPAX) (GYRO PULSES) X 2(+14)
000135:
000136: 06,3375           31462                           CA       NBDZ                                  #        (GYRO PULSES)/(CS) X 2(-5)
000137: 06,3376           03441                           TC       DRIFTSUB                              #        +(NBDZ)(DELTAT) (GYRO PULSES) X 2(+14)
000138:
000139: 06,3377           11477                           CCS      GCOMPSW                               #  ARE GYRO COMMANDS GREATER THAN 2 PULSES
000140: 06,3400           13402                           TCF      +2                                    #  YES
000141: 06,3401           13407                           TCF      IRIG1                                 #  NO
000142:
000143: 06,3402           35107                           CA       PRIO21                                #  HIGHER THAN SERVICER - LESS THAN PRELAUNCH
000144: 06,3403           05150                           TC       NOVAC
000145: 06,3404  E3,1460                                  EBANK=   NBDX
000146: 06,3404           03474 14063                     2CADR    1/GYRO
000147:
000148: 06,3406           00003                           RELINT
000149: 06,3407           30163        IRIG1              CA       MODE                                  #  SET EBANK FOR RETURN
000150: 06,3410           54003                           TS       EBANK
000151: 06,3411           14711                           TCF      SWRETURN
000152:
000153: 06,3412           56154        GCOMPSUB           XCH      MPAC                                  #  ADIA OR ADSRA COEFFICIENT ARRIVES IN A
000154: 06,3413           00006                           EXTEND                                         #  C(MPAC) = (PIPA PULSES) X 2(+14)
000155: 06,3414           70154                           MP       MPAC                                  #  (GYRO PULSES)/(PIPA PULSE) X 2(-3)            *
000156: 06,3415           52123                           DXCH     VBUF                                  #  NOW = (GYRO PULSES) X 2(+11)                  *
000157:
000158: 06,3416           30155                           CA       MPAC       +1                         #  MINOR PART PIPA PULSES
000159: 06,3417           00006                           EXTEND
000160: 06,3420           70154                           MP       MPAC                                  #  ADIA OR ADSRA
000161: 06,3421           54001                           TS       L
000162: 06,3422           35035                           CAF      ZERO
000163: 06,3423           20123                           DAS      VBUF                                  #  NOW = (GYRO PULSES) X 2(+11)                  *
000164:
000165: 06,3424           30122                           CA       VBUF                                  #  PARTIAL RESULT - MAJOR
000166: 06,3425           00006                           EXTEND
000167: 06,3426           75020                           MP       BIT12                                 #  SCALE 2(+3)   SHIFT RIGHT 3                   *
000168: 06,3427           50130                           INDEX    BUF                                   #  RESULT = (GYRO PULSES) X 2(+14)
000169: 06,3430           21472                           DAS      GCOMP                                 #  HI(ADIA)(PIPAI) OR HI(ADSRA)(PIPAI)
000170:
000171: 06,3431           30123                           CA       VBUF       +1                         #  PARTIAL RESULT - MINOR
000172: 06,3432           00006                           EXTEND
000173: 06,3433           75020                           MP       BIT12                                 #  SCALE 2(+3)   SHIFT RIGHT 3                   *
000174: 06,3434           54001                           TS       L
000175: 06,3435           35035                           CAF      ZERO
000176: 06,3436           50130                           INDEX    BUF                                   #  RESULT = (GYRO PULSES) X 2(+14)
000177: 06,3437           21472                           DAS      GCOMP                                 #  (ADIA)(PIPAI) OR (ADSRA)(PIPAI)
000178:
000179: 06,3440           00002                           TC       Q
000180:
000181: 06,3441           00006        DRIFTSUB           EXTEND
000182: 06,3442           22131                           QXCH     BUF        +1
000183:
000184: 06,3443           00006                           EXTEND                                         #  C(A) = NBD    (GYRO PULSES)/(CS) X 2(-5)
000185: 06,3444           71074                           MP       1/PIPADT                              #  (CS) X 2(+8)   NOW (GYRO PULSES) X 2(+3)
000186: 06,3445           22155                           LXCH     MPAC       +1                         #  SAVE FOR FRACTIONAL COMPENSATION
000187: 06,3446           00006                           EXTEND
000188: 06,3447           75030                           MP       BIT4                                  #  SCALE 2(+11)  SHIFT RIGHT 11
000189: 06,3450           50130                           INDEX    BUF
000190: 06,3451           21472                           DAS      GCOMP                                 #  HI(NBD)(DELTAT)       (GYRO PULSES) X 2(+14)
000191:
000192: 06,3452           30155                           CA       MPAC       +1                         #  NOW MINOR PART
000193: 06,3453           00006                           EXTEND
000194: 06,3454           75030                           MP       BIT4                                  #  SCALE 2(+11)          SHIFT RIGHT 11
000195: 06,3455           54001                           TS       L
000196: 06,3456           35035                           CAF      ZERO
000197: 06,3457           50130                           INDEX    BUF                                   #  ADD IN FRACTIONAL COMPENSATION
000198: 06,3460           21472                           DAS      GCOMP                                 #  (NBD)(DELTAT)         (GYRO PULSES) X 2(+14)
000199:
000200: 06,3461           35032        DRFTSUB2           CAF      TWO                                   #  PIPAX, PIPAY, PIPAZ
000201: 06,3462           60130                           AD       BUF
000202: 06,3463           56130                           XCH      BUF
000203: 06,3464           50000                           INDEX    A
000204: 06,3465           11471                           CCS      GCOMP                                 #  ARE GYRO COMMANDS 1 PULSE OR GREATER
000205: 06,3466           13470                           TCF      +2                                    #  YES
000206: 06,3467           00131                           TC       BUF        +1                         #  NO
000207:
000208: 06,3470           77716                           MASK     NEGONE
000209: 06,3471           10000                           CCS      A                                     #  ARE GYRO COMMANDS GREATER THAN 2 PULSES
000210: 06,3472           55477                           TS       GCOMPSW                               #  YES - SET GCOMPSW POSITIVE
000211: 06,3473           00131                           TC       BUF        +1                         #  NO
000212:
000213: 06,3474           35031        1/GYRO             CAF      FOUR                                  #  PIPAZ, PIPAY, PIPAX
000214: 06,3475           54130                           TS       BUF
000215:
000216: 06,3476           50130                           INDEX    BUF                                   #  SCALE GYRO COMMANDS FOR IMUPULSE
000217: 06,3477           31472                           CA       GCOMP      +1                         #  FRACTIONAL PULSES
000218: 06,3500           00006                           EXTEND
000219: 06,3501           75024                           MP       BIT8                                  #  SHIFT RIGHT 7
000220: 06,3502           50130                           INDEX    BUF
000221: 06,3503           55472                           TS       GCOMP      +1                         #  FRACTIONAL PULSES SCALED
000222:
000223: 06,3504           35035                           CAF      ZERO                                  #  SET GCOMP = 0 FOR DAS INSTRUCTION
000224: 06,3505           50130                           INDEX    BUF
000225: 06,3506           57471                           XCH      GCOMP                                 #  GYRO PULSES
000226: 06,3507           00006                           EXTEND
000227: 06,3510           75024                           MP       BIT8                                  #  SHIFT RIGHT 7
000228: 06,3511           50130                           INDEX    BUF
000229: 06,3512           21472                           DAS      GCOMP                                 #  ADD THESE TO FRACTIONAL PULSES ABOVE
000230:
000231: 06,3513           10130                           CCS      BUF                                   #  PIPAZ, PIPAY, PIPAX
000232: 06,3514           67716                           AD       NEG1
000233: 06,3515           13475                           TCF      1/GYRO     +1
000234: 06,3516           01471        LGCOMP             ECADR    GCOMP                                 #  LESS THAN ZERO IMPOSSIBLE
000235:
000236: 06,3517           33516                           CAF      LGCOMP
000237: 06,3520           04676                           TC       BANKCALL
000238: 06,3521           17206                           CADR     IMUPULSE                              #  CALL GYRO TORQUING ROUTINE
000239: 06,3522           04676                           TC       BANKCALL
000240: 06,3523           17577                           CADR     IMUSTALL                              #  WAIT FOR PULSES TO GET OUT
000241: 06,3524           15233                           TCF      ENDOFJOB                              #  TEMPORARY
000242:
000243: 06,3525           35031        GCOMP1             CAF      FOUR                                  #  PIPAZ, PIPAY, PIPAX
000244: 06,3526           54130                           TS       BUF
000245:
000246: 06,3527           50130                           INDEX    BUF                                   #  RESCALE
000247: 06,3530           31472                           CA       GCOMP      +1
000248: 06,3531           00006                           EXTEND
000249: 06,3532           75024                           MP       BIT8                                  #  SHIFT MINOR PART LEFT 7 - MAJOR PART = 0
000250: 06,3533           50130                           INDEX    BUF
000251: 06,3534           23472                           LXCH     GCOMP      +1                         #  BITS 8-14 OF MINOR PART WERE = 0
000252:
000253: 06,3535           10130                           CCS      BUF                                   #  PIPAZ, PIPAY, PIPAX
000254: 06,3536           67716                           AD       NEG1
000255: 06,3537           13526                           TCF      GCOMP1     +1
000256:
000257: 06,3540           01436        V06N30S            VN       0630
000258: 06,3541           15233                           TCF      ENDOFJOB
000259:
000260: 06,3542           11477        NBDONLY            CCS      GCOMPSW                               #  BYPASS IF GCOMPSW NEGATIVE
000261: 06,3543           13546                           TCF      +3
000262: 06,3544           13546                           TCF      +2
000263: 06,3545           15233                           TCF      ENDOFJOB
000264:
000265: 06,3546           00004                           INHINT
000266: 06,3547           10076                           CCS      FLAGWRD2                              #  PREREAD T3RUPT MAY COINCIDE
000267: 06,3550           15233                           TCF      ENDOFJOB
000268: 06,3551           15233                           TCF      ENDOFJOB
000269: 06,3552           13553                           TCF      +1
000270:
000271: 06,3553           30025                           CA       TIME1                                 #  (CS) X 2(+14)
000272: 06,3554           57074                           XCH      1/PIPADT                              #  PREVIOUS TIME
000273: 06,3555           00003                           RELINT
000274: 06,3556           40000                           COM
000275: 06,3557           61074                           AD       1/PIPADT
000276: 06,3560           10000        NBD2               CCS      A                                     #  CALCULATE ELAPSED TIME
000277: 06,3561           65033                           AD       ONE                                   #  NO TIME1 OVERFLOW
000278: 06,3562           13567                           TCF      NBD3                                  #  RESTORE TIME DIFFERENCE AND JUMP
000279: 06,3563           13565                           TCF      +2                                    #  TIME1 OVERFLOW
000280: 06,3564           15233                           TCF      ENDOFJOB                              #  IF ELAPSED TIME = 0 (DIFFERENCE = -0)
000281:
000282: 06,3565           40000                           COM                                            #  CALCULATE ABSOLUTE DIFFERENCE
000283: 06,3566           65013                           AD       POSMAX
000284:
000285: 06,3567           00006        NBD3               EXTEND                                         #  C(A) = DELTAT         (CS) X 2(+14)
000286: 06,3570           75022                           MP       BIT10                                 #  SHIFT RIGHT 5
000287: 06,3571           52123                           DXCH     VBUF
000288: 06,3572           00006                           EXTEND
000289: 06,3573           30123                           DCA      VBUF
000290: 06,3574           52155                           DXCH     MPAC                                  #  DELTAT NOW SCALED (CS) X 2(+19)
000291:
000292: 06,3575           35035                           CAF      ZERO
000293: 06,3576           55477                           TS       GCOMPSW                               #  INDICATE COMMANDS 2 PULSES OR LESS
000294: 06,3577           54130                           TS       BUF                                   #  PIPAX, PIPAY, PIPAZ
000295:
000296: 06,3600           41460                           CS       NBDX                                  #  (GYRO PULSES)/(CS) X 2(-5)
000297: 06,3601           03617                           TC       FBIASSUB                              #  -(NBDX)(DELTAT)       (GYRO PULSES) X 2(+14)
000298:
000299: 06,3602           00006                           EXTEND
000300: 06,3603           40123                           DCS      VBUF
000301: 06,3604           52155                           DXCH     MPAC                                  #  DELTAT SCALED (CS) X 2(+19)
000302: 06,3605           31461                           CA       NBDY                                  #  (GYRO PULSES)/(CS) X 2(-5)
000303: 06,3606           03617                           TC       FBIASSUB                              #  -(NBDY)(DELTAT)       (GYRO PULSES) X 2(+14)
000304:
000305: 06,3607           00006                           EXTEND
000306: 06,3610           40123                           DCS      VBUF
000307: 06,3611           52155                           DXCH     MPAC                                  #  DELTAT SCALED (CS) X 2(+19)
000308: 06,3612           41462                           CS       NBDZ                                  #  (GYRO PULSES)/(CS) X 2(-5)
000309: 06,3613           03617                           TC       FBIASSUB                              #  +(NBDZ)(DELTAT)       (GYRO PULSES) X 2(+14)
000310: 06,3614           11477                           CCS      GCOMPSW                               #  ARE GYRO COMMANDS GREATER THAN 2 PULSES
000311: 06,3615           13474                           TCF      1/GYRO                                #  YES
000312: 06,3616           15233                           TCF      ENDOFJOB                              #  NO
000313:
000314: 06,3617           56002        FBIASSUB           XCH      Q
000315: 06,3620           54131                           TS       BUF        +1
000316:
000317: 06,3621           30002                           CA       Q                                     #  NBD SCALED (GYRO PULSES)/(CS) X 2(-5)
000318: 06,3622           00006                           EXTEND
000319: 06,3623           70154                           MP       MPAC                                  #  DELTAT SCALED (CS) X 2(+19)
000320: 06,3624           50130                           INDEX    BUF
000321: 06,3625           21472                           DAS      GCOMP                                 #  HI(NBD)(DELTAT)       (GYRO PULSES) X 2(+14)
000322:
000323: 06,3626           30002                           CA       Q                                     #  NOW FRACTIONAL PART
000324: 06,3627           00006                           EXTEND
000325: 06,3630           70155                           MP       MPAC       +1
000326: 06,3631           54001                           TS       L
000327: 06,3632           35035                           CAF      ZERO
000328: 06,3633           50130                           INDEX    BUF
000329: 06,3634           21472                           DAS      GCOMP                                 #  (NBD)(DELTAT)         (GYRO PULSES) X 2(+14)
000330:
000331: 06,3635           13461                           TCF      DRFTSUB2                              #  CHECK MAGNITUDE OF COMPENSATION
000332:
000333: 06,3636           04676        LASTBIAS           TC       BANKCALL
000334: 06,3637           17156                           CADR     PIPUSE
000335:
000336: 06,3640           11477                           CCS      GCOMPSW                               #  BYPASS IF GCOMPSW NEGATIVE
000337: 06,3641           13644                           TCF      +3
000338: 06,3642           13644                           TCF      +2
000339: 06,3643           15233                           TCF      ENDOFJOB
000340:
000341: 06,3644           37665                           CAF      PRIO31                                #  2 SECONDS SCALED (CS) X 2(+8)
000342: 06,3645           57074                           XCH      1/PIPADT
000343: 06,3646           40000                           COM
000344: 06,3647           61246                           AD       PIPTIME1   +1                         #  TIME AT PIPA1 =0
000345: 06,3650           13560                           TCF      NBD2
000346:

End of include-file IMU_COMPENSATION_PACKAGE.agc.  Parent file is MAIN.agc


