
Source Code


000002:                                                                                                  ## Copyright:   Public domain.
000003:                                                                                                  ## Filename:    INTEGRATION_INITIALIZATION.agc
000004:                                                                                                  ## Purpose:     A section of Comanche revision 067.
000005:                                                                                                  ##              It is part of the reconstructed source code for the flight
000006:                                                                                                  ##              software for the Command Module's (CM) Apollo Guidance Computer
000007:                                                                                                  ##              (AGC) for Apollo 12. No original listings of this program are
000008:                                                                                                  ##              available; instead, this file was created via dissassembly of
000009:                                                                                                  ##              dumps of Comanche 067 core rope modules and comparison with
000010:                                                                                                  ##              other AGC programs.
000011:                                                                                                  ## Assembler:   yaYUL
000012:                                                                                                  ## Contact:     Ron Burkey <info@sandroid.org>.
000013:                                                                                                  ## Website:     www.ibiblio.org/apollo/index.html
000014:                                                                                                  ## Mod history: 2023-08-16 MAS  Created from Comanche 055.
000015:
000016:                                                                                                  #  1.0 INTRODUCTION
000017:                                                                                                  #  ----------------
000018:
000019:                                                                                                  #  FROM A USERS POINT OF VIEW, ORBITAL INTEGRATION IS ESSENTIALLY THE SAME AS THE 278 INTEGRATION
000020:                                                                                                  #  PROGRAM.  THE SAME ENTRANCES TO THE PROGRAM WILL BE MAINTAINED, THE SAME STALLING ROUTINE WILL BE USED AND
000021:                                                                                                  #  OUTPUT WILL STILL BE VIA THE PUSHLIST.  THE PRIMARY DIFFERENCES TO A USER INVOLVE THE ADDED CAPABILITY OF
000022:                                                                                                  #  TERMINATING INTEGRATION AT A SPECIFIC FINAL RADIUS AND THE DIFFERENCE IN STATE VECTOR SCALING INSIDE AND OUT-
000023:                                                                                                  #  SIDE THE LUNAR SPHERE OF INFLUENCE.
000024:
000025:                                                                                                  #  IN ORDER TO MAKE THE CSM(LEM)PREC AND CSM(LEM)CONIC ENTRANCES SIMILAR TO FLIGHT 278, THE INTEGRATION PROGRAM
000026:                                                                                                  #  WILL ITSELF SET THE FINAL RADIUS (RFINAL) TO 0 SO THAT REACHING THE DESIRED TIME ONLY WILL TERMINATE
000027:                                                                                                  #  INTEGRATION.  THE DP REGISTER RFINAL MUST BE SET BY USERS OF INTEGRVS AND INTEGRV, AND MUST BE DONE AFTER THE
000028:                                                                                                  #  CALL TC INTSTALL.
000029:
000030:                                                                                                  #  WHEN THE LM IS ON THE LUNAR SURFACE (INDICATED BY LUNAR SURFACE FLAG SET) CALLS TO LEMCONIC, LEMPREC, AND
000031:                                                                                                  #  INTEGRV WITH VINFLAG = 0 WILL RESULT IN THE USE OF THE PLANETARY INERTIAL ORIENTATION SUBROUTINES TO PROVIDE
000032:                                                                                                  #  BOTH THE LMS POSITION AND VELOCITY IN THE REFERENCE COORDINATE SYSTEM.
000033:                                                                                                  #  THE PROGRAM WILL PROVIDE OUTPUT AS IF INTEGRATION WAS USED.  THAT IS, THE PUSHLIST WILL BE SET AS NOTED BELOW AND
000034:                                                                                                  #  THE PERMANENT STATE VECTOR UPDATED WHEN SPECIFIED BY AN INTEGRV CALL.
000035:
000036:                                                                                                  #  USERS OF INTEGRVS DESIRING INTEGRATION (INTYPFLG = 0) SHOULD NOTE THAT THE OBLATENESS PERTURBATION COMPUTATION
000037:                                                                                                  #  IN LUNAR ORBIT IS TIME DEPENDENT.  THEREFORE, THE USER SHOULD SUPPLY AN INITIAL STATE VECTOR VALID AT SOME REAL
000038:                                                                                                  #  TIME AND THE DESIRED TIME (TDEC1) ALSO AT SOME REAL TIME.  FOR CONIC ,,INTEGRATION,, THE USER MAY STILL USE ZERO
000039:                                                                                                  #  AS THE INITIAL TIME AND DELTA TIME AS THE DESIRED TIME.
000040:
000041:                                                                                                  #  2.0 GENERAL DESCRIPTION
000042:                                                                                                  #  -----------------------
000043:
000044:                                                                                                  #  THE INTEGRATION PROGRAM OPERATES AS A CLOSED INTERPRETIVE SUBROUTINE AND PERFORMS THESE FUNCTIONS ---
000045:                                                                                                  #        1) INTEGRATES (PRECISION OR CONIC) EITHER CSM OR LM STATE VECTOR
000046:                                                                                                  #        2) INTEGRATES THE W-MATRIX
000047:                                                                                                  #        3) PERMANENT OR TEMPORARY UPDATE OF THE STATE VECTOR
000048:
000049:                                                                                                  #  THERE ARE SIX ENTRANCES TO THE INTEGRATION PROGRAM.  FOUR OF THESE (CSMPREC, LEMPREC, CSMCONIC, LEMCONIC) SET
000050:                                                                                                  #  ALL THE FLAGS REQUIRED IN THE INTEGRATION PROGRAM ITSELF TO CAUSE THE PRECISION OR CONIC INTEGRATION (KEPLER) OF
000051:                                                                                                  #  THE LM OR CSM STATE VECTOR, AS THE NAMES SUGGEST.  ONE ENTRANCE (INTEGRVS) PERMITS THE CALLING PROGRAM TO
000052:                                                                                                  #  PROVIDE A STATE VECTOR TO BE INTEGRATED.  THE CALLING PROGRAM MUST SET THE FLAGS INDICATING (1) PRECISION OR
000053:                                                                                                  #  CONIC INTEGRATION, (2) IN OR OUT OF LUNAR SPHERE, (3) MIDCOURSE OR NOT, AND THE INTEGRATION PROGRAM COMPLETES
000054:                                                                                                  #  THE FLAG SETTING TO BYPASS W-MATRIX INTEGRATION.  THE LAST ENTRANCE (INTEGRV, USED IN GENERAL BY THE
000055:                                                                                                  #  NAVIGATION PROGRAMS) PERMITS THE CALLER TO SET FIVE FLAGS (NOT MOONFLAG OR MIDFLAG) BUT NOT TO INPUT A STATE
000056:                                                                                                  #  VECTOR.  ANY PROGRAM WHICH CALLS INTEGRVS OR INTEGRV MUST CALL INTSTALL BEFORE IT SETS THE INTEGRATION FLAGS
000057:                                                                                                  #  AND/OR STATE VECTOR.
000058:
000059:                                                                                                  #  THREE SETS OF 42 REGISTERS AND 2 FLAGS ARE USED FOR THE STATE VECTORS.  TWO SETS, WHICH MAY NOT BE OVERLAYED, ARE
000060:                                                                                                  #  USED FOR THE PERMANENT STATE VECTORS FOR THE CSM AND LM.  THE THIRD SET, WHICH MAY BE OVERLAYED WHEN INTEGRATION
000061:                                                                                                  #  IS NOT BEING DONE, IS USED IN THE COMPUTATIONS.
000062:
000063:                                                                                                  #  THE PERMANENT STATE VECTORS WILL BE PERIODICALLY UPDATED SO THAT THE VECTORS WILL NOT BE OLDER THAN 4 TIMESTEPS.
000064:                                                                                                  #  THE PERMANENT STATE VECTORS WILL ALSO BE UPDATED WHENEVER THE W-MATRIX IS INTEGRATED OR WHEN A CALLER OF INTEGRV
000065:                                                                                                  #  SETS STATEFLG (THE NAVIGATION PROGRAMS P20, P22.)
000066:
000067:                                                                                                  #  APPENDIX B OF THE USERS GUIDE LISTS THE STATE VECTOR QUANTITIES.
000068:
000069:                                                                                                  #  2.1 RESTARTS
000070:
000071:                                                                                                  #  PHASE CHANGES WILL BE MADE IN THE INTEGRATION PROGRAM ONLY FOR THE INTEGRV ENTRANCE (I.E., WHEN THE W-MATRIX IS
000072:                                                                                                  #  INTEGRATED OR PERMANENT STATE VECTOR IS UPDATED.)  THE GROUP NUMBER USED WILL BE THAT FOR THE P20-25 PROGRAMS
000073:                                                                                                  #  (I.E., GROUP2) SINCE THE INTEGRV ENTRANCE WILL ONLY BE USED BY THESE PROGRAMS.  IF A RESTART OCCURS DURING AN
000074:                                                                                                  #  INTEGRATION OF THE STATE VECTOR ONLY, THE RECOVERY WILL BE TO THE LAST PHASE IN THE CALLING PROGRAM.  CALLING
000075:                                                                                                  #  PROGRAMS WHICH USE THE INTEGRV OR INTEGRVS ENTRANCE OF INTEGRATION SHOULD ENSURE THAT IF PHASE CHANGING IS DONE
000076:                                                                                                  #  THAT IT IS PRIOR TO SETTING THE INTEGRATION INPUTS IN THE PUSHLIST.
000077:                                                                                                  #  THIS IS BECAUSE THE PUSHLIST IS LOST DURING A RESTART.
000078:
000079:                                                                                                  #  2.2 SCALING
000080:
000081:                                                                                                  #  THE INTEGRATION ROUTINE WILL MAINTAIN THE PERMANENT MEMORY STATE VECTORS IN THE SCALING AND UNITS DEFINED IN
000082:                                                                                                  #  APPENDIX B OF THE USERS GUIDE.  THE SCALING OF THE OUTPUT POSITION VECTOR DEPENDS ON THE ORIGIN OF THE COORDINATE
000083:                                                                                                  #  SYSTEM AT THE DESIRED INTEGRATION TIME.  THE COORDINATE SYSTEM TRANSFORMATION WILL BE DONE AUTOMATICALLY ON
000084:                                                                                                  #  MULTIPLE TIMESTEP ENCKE INTEGRATION ONLY.  THUS IT IS POSSIBLE TO HAVE OUTPUT FROM SUCCESSIVE INTEGRATIONS IN
000085:                                                                                                  #  DIFFERENT SCALING.
000086:                                                                                                  #  HOWEVER, RATT, VATT WILL ALWAYS BE SCALED THE SAME.
000087:
000088:                                                                                                  #  3.0 INPUT/OUTPUT
000089:                                                                                                  #  ----------------
000090:
000091:                                                                                                  #  PROGRAM INPUTS ARE THE FLAGS DESCRIBED IN APPENDIX A AND THE PERMANENT STATE VECTOR QUANTITIES DESCRIBED IN AP-
000092:                                                                                                  #  PENDIX B OF THE USERS GUIDE, PLUS THE DESIRED TIME TO INTEGRATE TO IN TDEC1 (A PUSH LIST LOCATION).
000093:                                                                                                  #  FOR INTEGRVS, THE RCV,VCV,TET OF THE TEMPORARY STATE VECTOR MUST BE SET, PLUS MOONFLAG AND MIDFLAG
000094:
000095:                                                                                                  #  FOR SIMULATION THE FOLLOWING QUANTITIES MUST BE PRESET ---
000096:                                                                                                  #                                                                                EARTH   MOON
000097:                                                                                                  #                                                                                 29      27
000098:                                                                                                  #        RRECTCSM(LEM)   -       RECTIFIED POSITION VECTOR       METERS          2       2
000099:
000100:                                                                                                  #                                                                                 7       5
000101:                                                                                                  #        VRECTCSM(LEM)   -       RECTIFIED VELOCITY VECTOR       M/CSEC          2       2
000102:
000103:                                                                                                  #                                                                                 28      28
000104:                                                                                                  #        TETCSM(LEM)     -       TIME STATE VECTOR IS VALID      CSEC            2       2
000105:                                                                                                  #                                CUSTOMARILY 0, BUT NOTE LUNAR
000106:                                                                                                  #                                ORBIT DEPENDENCE ON REAL TIME.
000107:
000108:                                                                                                  #                                                                                 22      18
000109:                                                                                                  #        DELTAVCSM(LEM)  -       POSITION DEVIATION              METERS          2       2
000110:                                                                                                  #                                0 IF TCCSM(LEM) = 0
000111:
000112:                                                                                                  #                                                                                 3       -1
000113:                                                                                                  #        NUVCSM(LEM)     -       VELOCITY DEVIATION              M/CSEC          2       2
000114:                                                                                                  #                                0 IF TCCSM(LEM) = 0
000115:                                                                                                  #                                                                                 29      27
000116:                                                                                                  #        RCVCSM(LEM)     -       CONIC POSITION                  METERS          2       2
000117:                                                                                                  #                                EQUALS RRECTCSM(LEM) IF
000118:                                                                                                  #                                TCCSM(LEM) = 0
000119:
000120:                                                                                                  #                                                                                 7       5
000121:                                                                                                  #        VCVCSM(LEM)     -       CONIC VELOCITY                  M/CSEC          2       2
000122:                                                                                                  #                                EQUALS VRECTCSM(LEM) IF
000123:                                                                                                  #                                TCCSM(LEM) = 0
000124:
000125:                                                                                                  #                                                                                 28      28
000126:                                                                                                  #        TCCSM(LEM)      -       TIME SINCE RECTIFICATION        CSECS           2       2
000127:                                                                                                  #                                CUSTOMARILY 0
000128:
000129:                                                                                                  #                                                                 1/2             17      16
000130:                                                                                                  #        XKEPCSM(LEM)    -       ROOT OF KEPLERS EQUATION        M               2       2
000131:                                                                                                  #                                0 IF TCCSM(LEM) = 0
000132:
000133:                                                                                                  #        CMOONFLG        -       PERMANENT FLAGS CORRESPONDING                   0       0
000134:                                                                                                  #        CMIDFLAG                TO MOONFLAG AND MIDFLAG                         0,1     0,1
000135:                                                                                                  #        LMOONFLG                C = CSM, L = LM                                 0       0
000136:                                                                                                  #        LMIDFLG                                                                 0,1     0,1
000137:
000138:                                                                                                  #        SURFFLAG        -       LUNAR SURFACE FLAG                              0,1     0,1
000139:
000140:                                                                                                  #  IN ADDITION, IF (L)CMIDFLAG IS SET, THE INITIAL INPUT VALUES FOR LUNAR
000141:                                                                                                  #  SOLAR EPHEMERIDES SUBROUTINE AND PLANETARY INERTIAL ORIENTATION SUB-
000142:                                                                                                  #  ROUTINE MUST BE PRESET.
000143:
000144:                                                                                                  #  OUTPUT
000145:                                                                                                  #        AFTER EVERY CALL TO INTEGRATION
000146:                                                                                                  #                                                                        EARTH   MOON
000147:                                                                                                  #                                                                         29      29
000148:                                                                                                  #        0D      RATT    POSITION                        METERS          2       2
000149:
000150:                                                                                                  #                                                                         7       7
000151:                                                                                                  #        6D      VATT    VELOCITY                        M/CSEC          2       2
000152:
000153:                                                                                                  #                                                                         28      28
000154:                                                                                                  #        12D     TAT     TIME                                            2       2
000155:
000156:                                                                                                  #                                                                         29      27
000157:                                                                                                  #        14D     RATT1   POSITION                        METERS          2       2
000158:
000159:                                                                                                  #                                                                         7       5
000160:                                                                                                  #        20D     VATT1   VELOCITY                        M/CSEC          2       2
000161:
000162:                                                                                                  #                                                         3   2           36      30
000163:                                                                                                  #        26D     MU(P)   MU                              M /CS           2       2
000164:
000165:                                                                                                  #        X1              MUTABLE ENTRY                                   -2      -10D
000166:
000167:                                                                                                  #        X2              COORDINT
000168:                                                                                                  #        X2              COORDINATE SYSTEM ORIGEN                        0       2
000169:                                                                                                  #                        (THIS, NOT MOONFLAG, SHOULD BE
000170:                                                                                                  #                        USED TO DETERMINE ORIGIN.)
000171:
000172:                                                                                                  #  IN ADDITION TO THE ABOVE, THE PERMANENT STATE VECTOR IS UPDATED WHENEVER
000173:                                                                                                  #  STATEFLG WAS SET AND WHENEVER A W-MATRIX IS TO BE INTEGRATED.  THE PUSH
000174:                                                                                                  #  COUNTER IS SET TO 0 AND OVERFLOW IS CLEARED BEFORE RETURNING TO THE
000175:                                                                                                  #  CALLING PROGRAM.
000176:
000177:                                                                                                  #  4.0 CALLING SEQUENCES AND SAMPLE CODE
000178:                                                                                                  #  -------------------------------------
000179:
000180:                                                                                                  #        A) PRECISION ORBITAL INTEGRATION.  CSMPREC, LEMPREC ENTRANCES
000181:                                                                                                  #                L-X     STORE TIME TO 95T5791T5 T 95 PUS L9ST (T4531)
000182:                                                                                                  #                L       CALL
000183:                                                                                                  #                L+1             CSMPREC (OR LEMPREC)
000184:                                                                                                  #                L+2     RETURN
000185:                                                                                                  #           INPUT                                                           28
000186:                                                                                                  #                TDEC1 (PD 32D) TIME TO INTEGRATE TO...CENTISECONDS SCALED 2
000187:                                                                                                  #           OUTPUT
000188:                                                                                                  #                THE DATA LISTED IN SECTION 3.0 PLUS
000189:                                                                                                  #                RQVV    POSITION VECTOR OF VEHICLE WITH RESPECT TO SECONDARY
000190:                                                                                                  #                BODY... METERS B-29 ONLY IF MIDFLAG = DIMOFLAG = 1
000191:                                                                                                  #        B) CONIC INTEGRATION.  CSMCONIC, LEMCONIC ENTRANCES
000192:                                                                                                  #                L-X     STORE TIME IN PUSH LIST (TDEC1)
000193:                                                                                                  #                L       CALL
000194:                                                                                                  #                L+1             CSMCONIC (OR LEMCONIC)
000195:                                                                                                  #           INPUT/OUTPUT
000196:                                                                                                  #                SAME AS PRECISION INTEGRATION, EXCEPT RQVV NOT SET
000197:                                                                                                  #        C) INTEGRATE GIVEN STATE VECTOR.  INTEGRVS ENTRANCE
000198:                                                                                                  #                CALL
000199:                                                                                                  #                                INTSTALL
000200:                                                                                                  #                VLOAD
000201:                                                                                                  #                                POSITION VECTOR
000202:                                                                                                  #                STOVL           RCV
000203:                                                                                                  #                                VELOCITY VECTOR
000204:                                                                                                  #                STODL           VCV
000205:                                                                                                  #                                TIME STATE VECTOR VALID
000206:                                                                                                  #                STODL           TET
000207:                                                                                                  #                                FINAL RADIUS
000208:                                                                                                  #                STORE           RFINAL
000209:                                                                                                  #                SET(CLEAR)      SET(CLEAR)
000210:                                                                                                  #                                INTYPFLAG
000211:                                                                                                  #                                MOONFLAG
000212:                                                                                                  #                SET(CLEAR)      DLOAD
000213:                                                                                                  #                                DESIRED TIME
000214:                                                                                                  #                STCALL          TDEC1
000215:                                                                                                  #                                INTEGRVS
000216:                                                                                                  #          INPUT
000217:                                                                                                  #                RCV     POSITION VECTOR                 METERS
000218:                                                                                                  #                VCV     VELOCITY VECTOR                 M/CSEC
000219:                                                                                                  #                TET     TIME OF STATE VECTOR (MAY = 0)  CSEC B-28
000220:                                                                                                  #                TDEC1   TIME TO INTEGRATE TO            CSEC B-28 (PD 32D)
000221:                                                                                                  #                        (MAY BE INCREMENT IF TET=0)
000222:                                                                                                  #          OUTPUT
000223:                                                                                                  #                SAME AS FOR PRECISION OR CONIC INTEGRATION,
000224:                                                                                                  #                DEPENDING ON INTYPFLG.
000225:                                                                                                  #        D) INTEGRATE STATE VECTOR.  INTGRV ENTRANCE
000226:                                                                                                  #                L-X     STORE TIME IN PUSH LIST (TDEC1) (MAY BE DONE AFTER CALL TO INTSTALL)
000227:                                                                                                  #                L-8     CALL
000228:                                                                                                  #                L-7
000229:                                                                                                  #                L-6     SET(CLEAR)      SET(CLEAR)
000230:                                                                                                  #                L-5                     VINTFLAG        1=CSM, 0=LM
000231:                                                                                                  #                L-4                     INTYPFLAG       1=CONIC, 0=PRECISION
000232:                                                                                                  #                L-3     SET(CLEAR)      SET(CLEAR)
000233:                                                                                                  #                L-2                     DIMOFLAG        1=W-MATRIX, 0=NO W-MATRIX
000234:                                                                                                  #                L-1                     D6OR9FLG        1=9X9, 0=6X6
000235:                                                                                                  #                L       SET             DLOAD
000236:                                                                                                  #                L+1                     STATEFLG        DESIRE PERMANENT UPDATE
000237:                                                                                                  #                L+2                     FINAL RAD.      OF STATE VECTOR
000238:                                                                                                  #                L+3     STCALL          RFINAL
000239:                                                                                                  #                L+4                     INTEGRV
000240:                                                                                                  #                L       CALL                            NORMAL USE -- WILL UPDATE STATE
000241:                                                                                                  #                L+1                     INTEGRV         VECTOR IF DIMOFLAG=1. (STATEFLG IS
000242:                                                                                                  #                L+2     RETURN                          ALWAYS RESET IN INTEGRATION AFTER
000243:                                                                                                  #                                                        IT IS USED.)
000244:                                                                                                  #          INPUT
000245:                                                                                                  #                TDEC1 (PD 32D) TIME TO INTEGRATE TO     CSEC B-28
000246:                                                                                                  #          OUTPUT
000247:                                                                                                  #                SAME AS FOR PRECISION OR CONIC INTEGRATION
000248:                                                                                                  #          THE PROGRAM WILL SET MOONFLAG, MIDFLAG DEPENDING ON
000249:                                                                                                  #          THE PERMANENT STATE VECTOR REPRESENTATION.
000250:
000251: 11,2312                                           BANK     11
000252: 13,2000                                           SETLOC   INTINIT
000253: 13,2000                                           BANK
000254: 13,2637  E3,1554                                  EBANK=   RRECTCSM
000255: 13,2637                                           COUNT    13/INTIN
000256:
000257: 13,2637           05426        STATEINT           TC       PHASCHNG
000258: 13,2640           00052                           OCT      00052
000259: 13,2641           35075                           CAF      PRIO5
000260: 13,2642           05163                           TC       FINDVAC
000261: 13,2643  E3,1554                                  EBANK=   RRECTCSM
000262: 13,2643           02646 26063                     2CADR    STATINT1
000263:
000264: 13,2645           05340                           TC       TASKOVER
000265: 13,2646           06006        STATINT1           TC       INTPRET
000266: 13,2647           47014                           BON      RTB
000267: 13,2650           04712                                    QUITFLAG
000268: 13,2651           26707                                    NOINT                                 #  NO STATEINT IF V96
000269: 13,2652           45510                                    LOADTIME
000270: 13,2653           00041                           STORE    TDEC1
000271: 13,2654           45014                           CLEAR    CALL
000272: 13,2655           04274                                    V96ONFLG
000273: 13,2656           27452                                    INTSTALL
000274: 13,2657           45014                           SET      CALL
000275: 13,2660           01076                                    NODOFLAG
000276: 13,2661           26700                                    SETIFLGS
000277: 13,2662           77650                           GOTO
000278: 13,2663           26000                                    STATEUP
000279: 13,2664           00003 25140  600SECS            2DEC     60000      B-28
000280:
000281: 13,2666           77414        ENDINT             CLEAR    EXIT
000282: 13,2667           01672                                    STATEFLG
000283: 13,2670           05426                           TC       PHASCHNG
000284: 13,2671           20032                           OCT      20032
000285: 13,2672           00006                           EXTEND
000286: 13,2673           32665                           DCA      600SECS
000287: 13,2674           05356                           TC       LONGCALL
000288: 13,2675  E3,1554                                  EBANK=   RRECTHIS
000289: 13,2675           02637 26063                     2CADR    STATEINT
000290:
000291: 13,2677           05233                           TC       ENDOFJOB
000292: 13,2700           43014        SETIFLGS           SET      CLEAR
000293: 13,2701           01472                                    STATEFLG
000294: 13,2702           01673                                    INTYPFLG
000295: 13,2703           43014                           CLEAR    CLEAR
000296: 13,2704           01676                                    DIM0FLAG
000297: 13,2705           01675                                    D6OR9FLG
000298: 13,2706           77616                           RVQ
000299: 13,2707           77776        NOINT              EXIT
000300: 13,2710           05426                           TC       PHASCHNG
000301: 13,2711           00002                           OCT      2
000302:
000303: 13,2712           05574                           TC       DOWNFLAG
000304: 13,2713           00221                           ADRES    QUITFLAG
000305:
000306: 13,2714           05233                           TC       ENDOFJOB
000307:
000308:                                                                                                  #  ATOPCSM TRANSFERS RRECT TO RRECT +41 TO RRECTCSM TO RRECTCSM +41
000309:
000310:                                                                                                  #  CALLING SEQUENCE
000311:                                                                                                  #        L       CALL
000312:                                                                                                  #        L+1             ATOPCSM
000313:
000314:                                                                                                  #  NORMAL EXIT AT L+2
000315:
000316: 13,2715           47020        ATOPCSM            STQ      RTB
000317: 13,2716           00051                                    S2
000318: 13,2717           26730                                    MOVEACSM
000319: 13,2720           45014                           SET      CALL
000320: 13,2721           04063                                    CMOONFLG
000321: 13,2722           20237                                    SVDWN1
000322: 13,2723           43014                           BON      CLRGO
000323: 13,2724           00303                                    MOONFLAG
000324: 13,2725           00051                                    S2
000325: 13,2726           04223                                    CMOONFLG
000326: 13,2727           00051                                    S2
000327: 13,2730           03074        MOVEACSM           TC       SETBANK
000328: 13,2731           55500                           TS       DIFEQCNT                              #  INITIALIZE INDEX
000329: 13,2732           51500                           INDEX    DIFEQCNT
000330: 13,2733           31502                           CA       RRECT
000331: 13,2734           51500                           INDEX    DIFEQCNT
000332: 13,2735           55554                           TS       RRECTCSM
000333: 13,2736           11500                           CCS      DIFEQCNT                              #  IS TRANSFER COMPLETE
000334: 13,2737           12731                           TCF      MOVEACSM   +1                         #  NO-LOOP
000335: 13,2740           06030                           TC       DANZIG                                #  COMPLETE - RETURN
000336:
000337:                                                                                                  #  PTOACSM TRANSFERS RRECTCSM TO RRECTCSM +41 TO RRECT TO RRECT +41
000338:
000339:                                                                                                  #  CALLING SEQUENCE
000340:                                                                                                  #        L       CALL
000341:                                                                                                  #                        PTOACSM
000342:
000343:                                                                                                  #  NORMAL EXIT AT L+2
000344:
000345: 13,2741           43034        PTOACSM            RTB      BON
000346: 13,2742           26757                                    MOVEPCSM
000347: 13,2743           04303                                    CMOONFLG
000348: 13,2744           26752                                    SETMOON
000349: 13,2745           66214        CLRMOON            CLEAR    SSP
000350: 13,2746           00263                                    MOONFLAG
000351: 13,2747           02151                                    PBODY
000352: 13,2750           00000                                    0
000353: 13,2751           77616                           RVQ
000354: 13,2752           66214        SETMOON            SET      SSP
000355: 13,2753           00063                                    MOONFLAG
000356: 13,2754           02151                                    PBODY
000357: 13,2755           00002                                    2
000358: 13,2756           77616                           RVQ
000359: 13,2757           03074        MOVEPCSM           TC       SETBANK
000360: 13,2760           55500                           TS       DIFEQCNT
000361: 13,2761           51500                           INDEX    DIFEQCNT
000362: 13,2762           31554                           CA       RRECTCSM
000363: 13,2763           51500                           INDEX    DIFEQCNT
000364: 13,2764           55502                           TS       RRECT
000365: 13,2765           11500                           CCS      DIFEQCNT
000366: 13,2766           12760                           TCF      MOVEPCSM   +1
000367: 13,2767           06030                           TC       DANZIG
000368:
000369:                                                                                                  #  ATOPLEM TRANSFERS RRECT TO RRECT +41 TO RRECTLEM TO RRECTLEM +41
000370: 13,2770           47020        ATOPLEM            STQ      RTB
000371: 13,2771           00051                                    S2
000372: 13,2772           27003                                    MOVEALEM
000373: 13,2773           45014                           SET      CALL
000374: 13,2774           04064                                    LMOONFLG
000375: 13,2775           20263                                    SVDWN2
000376: 13,2776           43014                           BON      CLRGO
000377: 13,2777           00303                                    MOONFLAG
000378: 13,3000           00051                                    S2
000379: 13,3001           04224                                    LMOONFLG
000380: 13,3002           00051                                    S2
000381: 13,3003           03074        MOVEALEM           TC       SETBANK
000382: 13,3004           55500                           TS       DIFEQCNT
000383: 13,3005           51500                           INDEX    DIFEQCNT
000384: 13,3006           31502                           CA       RRECT
000385: 13,3007           51500                           INDEX    DIFEQCNT
000386: 13,3010           55626                           TS       RRECTLEM
000387: 13,3011           11500                           CCS      DIFEQCNT
000388: 13,3012           13004                           TCF      MOVEALEM   +1
000389: 13,3013           06030                           TC       DANZIG
000390:
000391:                                                                                                  #  PTOALEM TRANSFERS RRECTLEM TO RRECTLEM +41 TO RRECT TO RRECT +41
000392:
000393: 13,3014           47014        PTOALEM            BON      RTB
000394: 13,3015           04307                                    SURFFLAG
000395: 13,3016           27035                                    USEPIOS
000396: 13,3017           27024                                    MOVEPLEM
000397: 13,3020           52014                           BON      GOTO
000398: 13,3021           04304                                    LMOONFLG
000399: 13,3022           26752                                    SETMOON
000400: 13,3023           26745                                    CLRMOON
000401: 13,3024           03074        MOVEPLEM           TC       SETBANK
000402: 13,3025           55500                           TS       DIFEQCNT
000403: 13,3026           51500                           INDEX    DIFEQCNT
000404: 13,3027           31626                           CA       RRECTLEM
000405: 13,3030           51500                           INDEX    DIFEQCNT
000406: 13,3031           55502                           TS       RRECT
000407: 13,3032           11500                           CCS      DIFEQCNT
000408: 13,3033           13025                           TCF      MOVEPLEM   +1
000409: 13,3034           06030                           TC       DANZIG
000410:
000411: 13,3035           77201        USEPIOS            SETPD    VLOAD
000412: 13,3036           00001                                    0
000413: 13,3037           02026                                    RLS
000414: 13,3040           41525                           PDDL     PUSH
000415: 13,3041           00041                                    TDEC1
000416: 13,3042           15517                           STODL    TET
000417: 13,3043           27763                                    5/8
000418: 13,3044           77624                           CALL
000419: 13,3045           55343                                    RP-TO-R
000420: 13,3046           25535                           STOVL    RCV
000421: 13,3047           11560                                    ZUNIT
000422: 13,3050           14001                           STODL    0D
000423: 13,3051           01517                                    TET
000424: 13,3052           14007                           STODL    6D
000425: 13,3053           27763                                    5/8
000426: 13,3054           45014                           SET      CALL                                  #  NEEDED FOR SETTING X1 ON EXIT
000427: 13,3055           00063                                    MOONFLAG
000428: 13,3056           55343                                    RP-TO-R
000429: 13,3057           74235                           VXV      VXSC
000430: 13,3060           01535                                    RCV
000431: 13,3061           27073                                    OMEGMOON
000432: 13,3062           25543                           STOVL    VCV
000433: 13,3063           11566                                    ZEROVEC
000434: 13,3064           01521                           STORE    TDELTAV
000435: 13,3065           67174                           AXT,2    SXA,2
000436: 13,3066           00002                                    2
000437: 13,3067           02150                                    PBODY
000438: 13,3070           35527                           STCALL   TNUV
000439: 13,3071           27206                                    A-PCHK
000440: 13,3072           07112 06620  OMEGMOON           2DEC*    2.66169947 E-8        B+23*
000441:
000442: 13,3074           33100        SETBANK            CAF      INTBANK
000443: 13,3075           54006                           TS       BBANK
000444: 13,3076           33517                           CAF      FORTYONE
000445: 13,3077           00002                           TC       Q
000446: 13,3100  E3,1554                                  EBANK=   RRECTCSM
000447: 13,3100           26063        INTBANK            BBCON    INTEGRV
000448:
000449:                                                                                                  #  SPECIAL PURPOSE ENTRIES TO ORBITAL INTEGRATION.  THESE ROUTINES PROVIDE ENTRANCES TO INTEGRATION WITH
000450:                                                                                                  #  APPROPRIATE SWITCHES SET OR CLEARED FOR THE DESIRED INTEGRATION.
000451:
000452:                                                                                                  #  CSMPREC AND LEMPREC PERFORM ORBIT INTEGRATION BY THE ENCKE METHOD TO THE TIME INDICATED IN TDEC1
000453:                                                                                                  #  ACCELERATIONS DUE TO OBLATENESS ARE INCLUDED.  NO W-MATRIX INT. IS DONE.
000454:                                                                                                  #  THE PERMANENT STATE VECTOR IS NOT UPDATED.
000455:                                                                                                  #  CSMCONIC AND LEMCONIC PERFORM ORBIT INTEG. BY KEPLERS METHOD TO THE TIME INDICATED IN TDEC1
000456:                                                                                                  #  NO DISTURBING ACCELERATIONS ARE INCLUDED.  IN THE PROGRAM FLOW THE GIVEN
000457:                                                                                                  #  STATE VECTOR IS RECTIFIED BEFORE SOLUTION OF KEPLERS EQUATION
000458:
000459:                                                                                                  #  THE ROUTINES ASSUME THAT THE CSM (LEM) STATE VECTOR IN P-MEM IS VALID.
000460:                                                                                                  #  SWITCHES SET PRIOR TO ENTRY TO THE MAIN INTEG. PROG ARE AS FOLLOWS
000461:                                                                                                  #                        CSMPREC         CSMCONIC        LEMPREC         LEMCONIC
000462:                                                                                                  #        VINTFLAG        SET             SET             CLEAR           CLEAR
000463:                                                                                                  #        INTYPFLG        CLEAR           SET             CLEAR           SET
000464:                                                                                                  #        DIM0FLAG        CLEAR           CLEAR           CLEAR           CLEAR
000465:
000466:                                                                                                  #  CALLING SEQUENCE
000467:                                                                                                  #        L-X     STORE   TDEC1
000468:                                                                                                  #        L       CALL                    (STCALL TDEC1)
000469:                                                                                                  #        L+1             CSMPREC         (CSMCONIC, LEMPREC, LEMCONIC)
000470:
000471:                                                                                                  #  NORMAL EXIT TO L+2
000472:
000473:                                                                                                  #  SUBROUTINES CALLED
000474:                                                                                                  #        INTEGRV1
000475:                                                                                                  #        PRECOUT FOR CSMPREC AND LEMPREC
000476:                                                                                                  #        CONICOUT FOR CSMCONIC AND LEMCONIC
000477:
000478:                                                                                                  #  OUTPUT - SEE PAGE 2 OF THIS LOG SECTION
000479:
000480:                                                                                                  #  INPUT
000481:                                                                                                  #        TDEC1           TIME TO INTEGRATE TO.  CSECS B-28
000482:
000483: 13,3101           45020        CSMPREC            STQ      CALL
000484: 13,3102           00046                                    X1
000485: 13,3103           27452                                    INTSTALL
000486: 13,3104           43130                           SXA,1    SET
000487: 13,3105           02214                                    IRETURN
000488: 13,3106           01474                                    VINTFLAG
000489:
000490: 13,3107           43014        IFLAGP             SET      CLEAR
000491: 13,3110           01467                                    PRECIFLG
000492: 13,3111           01676                                    DIM0FLAG
000493: 13,3112           77614                           CLRGO
000494: 13,3113           01633                                    INTYPFLG
000495: 13,3114           27174                                    INTEGRV1
000496: 13,3115           45020        LEMPREC            STQ      CALL
000497: 13,3116           00046                                    X1
000498: 13,3117           27452                                    INTSTALL
000499: 13,3120           43130                           SXA,1    CLRGO
000500: 13,3121           02214                                    IRETURN
000501: 13,3122           01634                                    VINTFLAG
000502: 13,3123           27107                                    IFLAGP
000503:
000504: 13,3124           45020        CSMCONIC           STQ      CALL
000505: 13,3125           00046                                    X1
000506: 13,3126           27452                                    INTSTALL
000507: 13,3127           43130                           SXA,1    SET
000508: 13,3130           02214                                    IRETURN
000509: 13,3131           01474                                    VINTFLAG
000510: 13,3132           43014        IFLAGC             CLEAR    SETGO
000511: 13,3133           01676                                    DIM0FLAG
000512: 13,3134           01433                                    INTYPFLG
000513: 13,3135           27174                                    INTEGRV1
000514: 13,3136           45020        LEMCONIC           STQ      CALL
000515: 13,3137           00046                                    X1
000516: 13,3140           27452                                    INTSTALL
000517: 13,3141           43130                           SXA,1    CLRGO
000518: 13,3142           02214                                    IRETURN
000519: 13,3143           01634                                    VINTFLAG
000520: 13,3144           27132                                    IFLAGC
000521:
000522: 13,3145           66214        INTEGRVS           SET      SSP
000523: 13,3146           01467                                    PRECIFLG
000524: 13,3147           02151                                    PBODY
000525: 13,3150           00000                                    0
000526: 13,3151           66214                           BOF      SSP
000527: 13,3152           00343                                    MOONFLAG
000528: 13,3153           27156                                    +3
000529: 13,3154           02151                                    PBODY
000530: 13,3155           00002                                    2
000531: 13,3156           77220                           STQ      VLOAD
000532: 13,3157           02214                                    IRETURN
000533: 13,3160           11566                                    ZEROVEC
000534: 13,3161           01521                           STORE    TDELTAV
000535: 13,3162           35527                           STCALL   TNUV
000536: 13,3163           23403                                    RECTIFY
000537: 13,3164           43014                           CLEAR    SET
000538: 13,3165           01676                                    DIM0FLAG
000539: 13,3166           04062                                    NEWIFLG
000540: 13,3167           77614                           SETGO
000541: 13,3170           04020                                    RPQFLAG
000542: 13,3171           22312                                    ALOADED
000543:
000544:                                                                                                  #  INTEGRV IS AN ENTRY TO ORBIT INTEGRATION WHICH PERMITS THE CALLER,
000545:                                                                                                  #  NORMALLY THE NAVIGATION PROGRAM, TO SET THE INTEG. FLAGS.  THE ROUTINE
000546:                                                                                                  #  IS ENTERED AT INTEGRV1 BY CSMPREC ET. AL. AND AT ALOADED BY INTEGRVS.
000547:                                                                                                  #  THE ROUTINE SETS UP A-MEMORY IF ENTERED AT INTEGRV,1 AND SETS THE INTEG.
000548:                                                                                                  #  PROGRAM FOR PRECISION OR CONIC
000549:
000550:                                                                                                  #  THE CALLER MUST FIRST CALL INTSTALL TO CHECK IF INTEG. IS IN USE BEFORE
000551:                                                                                                  #  SETTING ANY FLAGS.
000552:
000553:                                                                                                  #  THE FLAGS WHICH SHOULD BE SET OR CLEARED ARE
000554:                                                                                                  #        VINTFLAG        (IGNORED WHEN ENTERED FROM INTEGRVS)
000555:                                                                                                  #        INTYPFLG
000556:                                                                                                  #        DIM0FLAG
000557:                                                                                                  #        D6OR9FLG
000558:
000559:                                                                                                  #  CALLING SEQUENCE
000560:                                                                                                  #        L-X     CALL
000561:                                                                                                  #        L-Y             INTSTALL
000562:                                                                                                  #        L-1     SET OR CLEAR ALL FOUR FLAGS.  ALSO CAN SET STATEFLG IF DESIRED
000563:                                                                                                  #                AND DIM0FLAG IS CLEAR.
000564:                                                                                                  #        L       CALL
000565:                                                                                                  #        L+1             INTEGRV
000566:
000567:                                                                                                  #  INITIALIZATION
000568:                                                                                                  #        FLAGS AS ABOVE
000569:                                                                                                  #        STORE TIME TO INTEGRATE TO IN TDEC1
000570:
000571:                                                                                                  #  OUTPUT
000572:                                                                                                  #        RATT    AS
000573:                                                                                                  #        VATT          DEFINED
000574:                                                                                                  #        TAT                     BEFORE
000575:
000576: 13,3172           77620        INTEGRV            STQ
000577: 13,3173           02214                                    IRETURN
000578: 13,3174           43014        INTEGRV1           SET      SET
000579: 13,3175           04060                                    RPQFLAG
000580: 13,3176           04062                                    NEWIFLG
000581: 13,3177           77731        INTEGRV2           SSP
000582: 13,3200           00053                                    QPRET
000583: 13,3201           22312                                    ALOADED
000584: 13,3202           52014                           BON      GOTO
000585: 13,3203           01714                                    VINTFLAG
000586: 13,3204           26741                                    PTOACSM
000587: 13,3205           27014                                    PTOALEM
000588: 11,2000                                           SETLOC   INTINIT1
000589: 11,2000                                           BANK
000590: 11,2312           77745        ALOADED            DLOAD
000591: 11,2313           00041                                    TDEC1
000592: 11,2314           01101                           STORE    TDEC
000593: 11,2315           52014                           BOFF     GOTO
000594: 11,2316           01753                                    INTYPFLG
000595: 11,2317           27315                                    TESTLOOP
000596: 11,2320           27301                                    RVCON
000597: 13,2000                                           SETLOC   INTINIT
000598: 13,2000                                           BANK
000599: 13,3206           45014        A-PCHK             BOF      CALL
000600: 13,3207           00342                                    MIDFLAG
000601: 13,3210           27215                                    ANDOUT                                #  DONT MAKE ORIGIN CHANGE CHECK
000602: 13,3211           23302                                    CHKSWTCH
000603: 13,3212           45044                           BPL      CALL
000604: 13,3213           27215                                    ANDOUT                                #  NO ORIGIN CHANGE
000605: 13,3214           23343                                    ORIGCHNG                              #  MAKE THE SWITCH
000606: 13,3215           77414        ANDOUT             BOFCLR   EXIT
000607: 13,3216           01652                                    STATEFLG
000608: 13,3217           27236                                    RECTOUT
000609: 13,3220           05426                           TC       PHASCHNG
000610: 13,3221           04022                           OCT      04022
000611: 13,3222           05562                           TC       UPFLAG                                #  PHASE CHANGE HAS OCCURRED BETWEEN
000612: 13,3223           00236                           ADRES    REINTFLG                              #  INTSTALL AND INTWAKE
000613: 13,3224           06006                           TC       INTPRET
000614: 13,3225           77731                           SSP
000615: 13,3226           00053                                    QPRET
000616: 13,3227           27234                                    PHEXIT
000617: 13,3230           52014                           BON      GOTO
000618: 13,3231           01714                                    VINTFLAG
000619: 13,3232           26715                                    ATOPCSM
000620: 13,3233           26770                                    ATOPLEM
000621: 13,3234           77624        PHEXIT             CALL
000622: 13,3235           56751                                    GRP2PC
000623: 13,3236           45001        RECTOUT            SETPD    CALL
000624: 13,3237           00001                                    0
000625: 13,3240           23403                                    RECTIFY
000626: 13,3241           53775                           VLOAD    VSL*
000627: 13,3242           01503                                    RRECT
000628: 13,3243           57576                                    0,2
000629: 13,3244           53715                           PDVL     VSL*                                  #  RATT TO PD0
000630: 13,3245           01511                                    VRECT
000631: 13,3246           57576                                    0,2
000632: 13,3247           63325                           PDDL     PDVL                                  #  VATT TO PD6   TAT TO PD12
000633: 13,3250           01517                                    TET
000634: 13,3251           01503                                    RRECT
000635: 13,3252           64715                           PDVL     PDDL*
000636: 13,3253           01511                                    VRECT
000637: 13,3254           50032                                    MUEARTH,2
000638: 13,3255           76006                           PUSH     AXT,1
000639: 13,3256           77765                           DEC      -10        B-14
000640: 13,3257           76014                           BON      AXT,1
000641: 13,3260           00303                                    MOONFLAG
000642: 13,3261           27263                                    +2
000643: 13,3262           77775                           DEC      -2         B-14
000644: 13,3263           40001        INTEXIT            SETPD    BOV
000645: 13,3264           00001                                    0
000646: 13,3265           27266                                    +1
000647: 13,3266           77614                           CLEAR
000648: 13,3267           04675                                    MIDAVFLG
000649: 13,3270           43014                           CLEAR    CLEAR
000650: 13,3271           04676                                    AVEMIDSW                              #  ALLOW UPDATE OF DOWNLINK STATE VECTOR
000651: 13,3272           01667                                    PRECIFLG
000652: 13,3273           77535                           SLOAD    EXIT
000653: 13,3274           02215                                    IRETURN
000654: 13,3275           30154                           CA       MPAC
000655: 13,3276           50120                           INDEX    FIXLOC
000656: 13,3277           54052                           TS       QPRET
000657: 13,3300           03467                           TC       INTWAKE
000658:
000659:                                                                                                  #  RVCON SETS UP ORBIT INTEGRATION TO DO A CONIC SOLUTION FOR POSITION AND
000660:                                                                                                  #  VELOCITY FOR THE INTERVAL (TET-TDEC)
000661:
000662: 13,3301           45345        RVCON              DLOAD    DSU
000663: 13,3302           01101                                    TDEC
000664: 13,3303           01517                                    TET
000665: 13,3304           36312                           STCALL   TAU.
000666: 13,3305           23403                                    RECTIFY
000667: 13,3306           77624                           CALL
000668: 13,3307           22321                                    KEPPREP
000669: 13,3310           43345                           DLOAD    DAD
000670: 13,3311           01551                                    TC
000671: 13,3312           01517                                    TET
000672: 13,3313           35517                           STCALL   TET
000673: 13,3314           27236                                    RECTOUT
000674:
000675:                                                                                                  #  TESTLOOP
000676:
000677: 13,3315           43014        TESTLOOP           BOF      CLRGO
000678: 13,3316           04752                                    QUITFLAG
000679: 13,3317           27322                                    +3
000680: 13,3320           01632                                    STATEFLG
000681: 13,3321           27263                                    INTEXIT                               #  STOP INTEGRATION
000682: 13,3322           73001                 +3        SETPD    LXA,2
000683: 13,3323           00013                                    10D
000684: 13,3324           02150                                    PBODY
000685: 13,3325           51575                           VLOAD    ABVAL
000686: 13,3326           01535                                    RCV
000687: 13,3327           43006                           PUSH     CLEAR                                 #  RC TO 10D
000688: 13,3330           00262                                    MIDFLAG
000689: 13,3331           50023                           DSU*     BMN                                   #  MIDFLAG=0 IF R G.T. RMP
000690: 13,3332           67212                                    RME,2
000691: 13,3333           27336                                    +3
000692: 13,3334           77614                           SET
000693: 13,3335           00062                                    MIDFLAG
000694: 13,3336           41345        NORFINAL           DLOAD    DMP
000695: 13,3337           00013                                    10D
000696: 13,3340           00043                                    34D
000697: 13,3341           55762                           SR1R     DDV*
000698: 13,3342           50032                                    MUEARTH,2
000699: 13,3343           41366                           SQRT     DMP
000700: 13,3344           23734                                    .3D
000701: 13,3345           40442                           SR3      SR4                                   #  DT IS TRUNCATED TO A MULTIPLE
000702: 13,3346           54345                           DLOAD    SL
000703: 13,3347           00155                                    MPAC
000704: 13,3350           20220                                    15D                                   #        OF 128 CSECS.
000705: 13,3351           40006                           PUSH     BOV
000706: 13,3352           27377                                    MAXDT
000707: 13,3353           50021                           BDSU     BMN
000708: 13,3354           27451                                    DT/2MAX
000709: 13,3355           27377                                    MAXDT
000710: 13,3356           45345        DT/2COMP           DLOAD    DSU
000711: 13,3357           01101                                    TDEC
000712: 13,3360           01517                                    TET
000713: 13,3361           54234                           RTB      SL
000714: 13,3362           45544                                    SGNAGREE
000715: 13,3363           20211                                    8D
000716: 13,3364           02314                           STORE    DT/2                                  #  B-19
000717: 13,3365           51400                           BOV      ABS
000718: 13,3366           27403                                    GETMAXDT
000719: 13,3367           50025                           DSU      BMN                                   #  IS TIME TO INTEG. TO GR THAN MAXTIME
000720: 13,3370           00015                                    12D
000721: 13,3371           27407                                    P00HCHK
000722: 13,3372           75345        USEMAXDT           DLOAD    SIGN
000723: 13,3373           00015                                    12D
000724: 13,3374           02314                                    DT/2
000725: 13,3375           36314                           STCALL   DT/2
000726: 13,3376           27407                                    P00HCHK
000727: 13,3377           65345        MAXDT              DLOAD    PDDL                                  #  EXCHANGE DT/2MAX WITH COMPUTED MAX.
000728: 13,3400           27451                                    DT/2MAX
000729: 13,3401           77650                           GOTO
000730: 13,3402           27356                                    DT/2COMP
000731: 13,3403           77634        GETMAXDT           RTB
000732: 13,3404           45712                                    SIGNMPAC
000733: 13,3405           36314                           STCALL   DT/2
000734: 13,3406           27372                                    USEMAXDT
000735: 13,3407           51545        P00HCHK            DLOAD    ABS
000736: 13,3410           02314                                    DT/2
000737: 13,3411           50025                           DSU      BMN
000738: 13,3412           27447                                    DT/2MIN
000739: 13,3413           27206                                    A-PCHK
000740: 13,3414           46135                           SLOAD    BHIZ
000741: 13,3415           01012                                    MODREG
000742: 13,3416           27421                                    +3
000743: 13,3417           77650                           GOTO
000744: 13,3420           23222                                    TIMESTEP
000745: 13,3421           77614                           BON                                            #  WAS THIS CALL VIA CSM(LEM)PREC
000746: 13,3422           01707                                    PRECIFLG
000747: 13,3423           23222                                    TIMESTEP                              #  YES
000748: 13,3424           45345                           DLOAD    DSU
000749: 13,3425           02314                                    DT/2
000750: 13,3426           00015                                    12D
000751: 13,3427           43040                           BMN      BOFCLR
000752: 13,3430           27206                                    A-PCHK
000753: 13,3431           04242                                    NEWIFLG
000754: 13,3432           23222                                    TIMESTEP
000755: 13,3433           45345                           DLOAD    DSU
000756: 13,3434           01101                                    TDEC
000757: 13,3435           01517                                    TET
000758: 13,3436           77640                           BMN                                            #  NO BACKWARD INTEGRATION
000759: 13,3437           27263                                    INTEXIT
000760: 13,3440           40525                           PDDL     SR4
000761: 13,3441           02314                                    DT/2                                  #  IS 4(DT) LS (TDEC - TET)
000762: 13,3442           44322                           SR2R     BDSU                                  #  NO
000763: 13,3443           52040                           BMN      GOTO
000764: 13,3444           27263                                    INTEXIT
000765: 13,3445           23222                                    TIMESTEP
000766: 13,3446           00000 01400  DT/2MIN            2DEC     3          B-20
000767:
000768: 13,3450           14152 00000  DT/2MAX            2DEC     4000       E2         B-20
000769:
000770: 13,3452           77776        INTSTALL           EXIT
000771: 13,3453           35035                           CAF      ZERO
000772: 13,3454           54001        ALLSTALL           TS       L
000773: 13,3455           30106                           CA       RASFLAG
000774: 13,3456           50001                           INDEX    L
000775: 13,3457           73550                           MASK     INTBITAB                              #  IS THIS STALL AREA FREE
000776: 13,3460           00006                           EXTEND
000777: 13,3461           13526                           BZF      OKTOGRAB                              #  YES
000778: 13,3462           50001                           INDEX    L
000779: 13,3463           33545                           CAF      WAKESTAL
000780: 13,3464           05211                           TC       JOBSLEEP
000781: 13,3465           77776        INTWAKE0           EXIT
000782: 13,3466           13507                           TCF      INTWAKE1
000783:
000784: 13,3467           40106        INTWAKE            CS       RASFLAG                               #  IS THIS INTSTALLED ROUTINE TO BE
000785: 13,3470           75025                           MASK     REINTBIT                              #        RESTARTED
000786: 13,3471           10000                           CCS      A
000787: 13,3472           03507                           TC       INTWAKE1                              #  NO
000788:
000789: 13,3473           50120                           INDEX    FIXLOC
000790: 13,3474           30052                           CA       QPRET
000791: 13,3475           55055                           TS       TBASE2                                #  YES, DONT RESTART WITH SOMEONE ELSES Q
000792:
000793: 13,3476           05426                           TC       PHASCHNG
000794: 13,3477           04022                           OCT      04022
000795:
000796: 13,3500           31055                           CA       TBASE2
000797: 13,3501           50120                           INDEX    FIXLOC
000798: 13,3502           54052                           TS       QPRET
000799:
000800: 13,3503           35025                           CAF      REINTBIT
000801: 13,3504           70106                           MASK     RASFLAG
000802: 13,3505           00006                           EXTEND
000803: 13,3506           13531                           BZF      GOBAC                                 #  DONT INTWAKE IF WE CAME HERE VIA RESTART
000804:
000805: 13,3507           35035        INTWAKE1           CAF      ZERO
000806: 13,3510           54154        WAKE               TS       STALTEM                               #  INDEX OF ANY STALL USER
000807: 13,3511           50154        WAKE1              INDEX    STALTEM
000808: 13,3512           33545                           CAF      WAKESTAL
000809: 13,3513           00004                           INHINT
000810: 13,3514           05215                           TC       JOBWAKE
000811: 13,3515           10064                           CCS      LOCCTR
000812: 13,3516           13511                           TCF      WAKE1                                 #  MAY BE MORE TO WAKE UP
000813: 13,3517           00051        FORTYONE           DEC      41         B-14
000814: 13,3520           50154                           INDEX    STALTEM
000815: 13,3521           43550                           CS       INTBITAB
000816: 13,3522           70106                           MASK     RASFLAG
000817: 13,3523           54106                           TS       RASFLAG                               #  RELEASE STALL AREA
000818: 13,3524           00003                           RELINT
000819: 13,3525           13531                           TCF      GOBAC
000820: 13,3526           50001        OKTOGRAB           INDEX    L                                     #  NO, WAIT UNTIL AVAILABLE
000821: 13,3527           35016                           CAF      INTFLBIT
000822: 13,3530           26106                           ADS      RASFLAG
000823: 13,3531           06006        GOBAC              TC       INTPRET
000824: 13,3532           77616                           RVQ
000825: 13,3533           77776        ERASTAL1           EXIT
000826: 13,3534           35033                           CAF      ONE
000827: 13,3535           13454                           TCF      ALLSTALL
000828: 13,3536           77776        ERASTAL2           EXIT
000829: 13,3537           35032                           CAF      TWO
000830: 13,3540           13454                           TCF      ALLSTALL
000831: 13,3541           35033        ERASWAK1           CAF      ONE
000832: 13,3542           13510                           TCF      WAKE
000833: 13,3543           35032        ERASWAK2           CAF      TWO
000834: 13,3544           13510                           TCF      WAKE
000835: 13,3545           27453        WAKESTAL           CADR     INTSTALL   +1
000836: 13,3546           27534                           CADR     ERASTAL1   +1
000837: 13,3547           27537                           CADR     ERASTAL2   +1
000838: 13,3550     0154               STALTEM            EQUALS   MPAC
000839: 13,3550           20100        INTBITAB           OCT      20100
000840: 13,3551           10040                           OCT      10040
000841: 13,3552           04020                           OCT      04020
000842:
000843:                                                                                                  #  AVETOMID
000844:
000845:                                                                                                  #  THIS ROUTINE PERFORMS THE TRANSITION FROM A THRUSTING PHASE TO THE COAST
000846:                                                                                                  #  PHASE BY INITIALIZING THIS VEHICLES PERMANENT STATE VECTOR WITH THE
000847:                                                                                                  #  VALUES LEFT BY THE AVERAGEG ROUTINE IN RN,VN,PIPTIME.
000848:
000849:                                                                                                  #  BEFORE THIS IS DONE THE W-MATRIX, IF ITS VALID (ORWFLAG OR RENDWFLG IS
000850:                                                                                                  #  SET) IS INTEGRATED FORWARD TO PIPTIME WITH THE PRE-THRUST STATE VECTOR.
000851:
000852:                                                                                                  #  IN ADDITION, THE OTHER VEHICLE IS INTEGRATED (PERMANENT) TO PIPTIME.
000853:
000854:                                                                                                  #  FINALLY TRKMKCNT IS ZEROED
000855:
000856: 35,2000                                           SETLOC   INTINIT2
000857: 35,2000                                           BANK
000858:
000859: 35,3675                                           COUNT*   $$/INTIN
000860: 35,3675           43020        AVETOMID           STQ      BON
000861: 35,3676           02317                                    EGRESS
000862: 35,3677           02716                                    RENDWFLG
000863: 35,3700           73753                                    INT/W                                 #  W-MATRIX VALID, GO INTEGRATE IT
000864: 35,3701           77614                           BON
000865: 35,3702           01711                                    ORBWFLAG
000866: 35,3703           73753                                    INT/W                                 #  W-MATRIX VALID, GO INTEGRATE IT
000867:
000868: 35,3704           45174        SETCOAST           AXT,2    CALL                                  #  NOW MOVE PROPERLY SCALED RN,VN AND
000869: 35,3705           00002                                    2                                     #  PIPTIME TO INTEGRATION ERASABLES.
000870: 35,3706           27452                                    INTSTALL
000871: 35,3707           77014                           BON      AXT,2
000872: 35,3710           00315                                    AMOONFLG
000873: 35,3711           73713                                    +2
000874: 35,3712           00000                                    0
000875: 35,3713           53775                           VLOAD    VSR*
000876: 35,3714           01171                                    RN
000877: 35,3715           57176                                    0,2
000878: 35,3716           01503                           STORE    RRECT
000879: 35,3717           15535                           STODL    RCV
000880: 35,3720           01205                                    PIPTIME
000881: 35,3721           25517                           STOVL    TET
000882: 35,3722           01177                                    VN
000883: 35,3723           45057                           VSR*     CALL
000884: 35,3724           57176                                    0,2
000885: 35,3725           23417                                    MINIRECT                              #  FINISH SETTING UP STATE VECTOR
000886: 35,3726           66234                           RTB      SSP
000887: 35,3727           26730                                    MOVATHIS                              #  PUT TEMP STATE VECTOR INTO PERMANENT
000888: 35,3730           01127                                    TRKMKCNT
000889: 35,3731           00000                                    0
000890: 35,3732           43014                           SET      BON
000891: 35,3733           04063                                    CMOONFLG
000892: 35,3734           00315                                    AMOONFLG
000893: 35,3735           73740                                    +3
000894: 35,3736           77614                           CLEAR
000895: 35,3737           04263                                    CMOONFLG
000896:
000897: 35,3740           71214                           BON      DLOAD                                 #  NOW DO LM
000898: 35,3741           04307                                    SURFFLAG
000899: 35,3742           75751                                    FAZAB5                                #  NO COASTING LM
000900: 35,3743           01205                                    PIPTIME
000901: 35,3744           34041                           STCALL   TDEC1
000902: 35,3745           26700                                    SETIFLGS
000903: 35,3746           45014                           CLEAR    CALL
000904: 35,3747           01674                                    VINTFLAG
000905: 35,3750           27172                                    INTEGRV
000906: 35,3751           77650                           GOTO
000907: 35,3752           02317                                    EGRESS
000908: 35,3753           45145        INT/W              DLOAD    CALL
000909: 35,3754           01205                                    PIPTIME                               #  INTEGRATE W THRU BURN
000910: 35,3755           27452                                    INTSTALL
000911: 35,3756           43014                           SET      SET
000912: 35,3757           01476                                    DIM0FLAG                              #  DO W-MATRIX
000913: 35,3760           04476                                    AVEMIDSW                              #  SO WONT CLOBBER RN,VN,PIPTIME
000914: 35,3761           43014                           CLEAR    SET
000915: 35,3762           01675                                    D6OR9FLG
000916: 35,3763           01474                                    VINTFLAG
000917: 35,3764           34041                           STCALL   TDEC1
000918: 35,3765           27172                                    INTEGRV
000919: 35,3766           77650                           GOTO
000920: 35,3767           73704                                    SETCOAST
000921:
000922:                                                                                                  #  MIDTOAV1
000923:
000924:                                                                                                  #  THIS ROUTINE INTEGRATES (PRECISION) TO THE TIME SPECIFIED IN TDEC1.
000925:                                                                                                  #  IF, AT THE END OF AN INTEGRATION TIME STEP, CURRENT TIME PLUS A DELTA
000926:                                                                                                  #  TIME (SEE TIMEDELT.....BASED ON THE COMPUTATUON TIME FOR ONE TIME STEP)
000927:                                                                                                  #  IS GREATER THAN THE DESIRED TIME, ALARM 1703 IS SET AND THE INTEGRATION
000928:                                                                                                  #  IS DONE AS IT IS FOR MIDTOAV2.
000929:                                                                                                  #  RETURN IS IN BASIC TO THE RETURN ADDRESS PLUS ONE.
000930:
000931:                                                                                                  #  IF THE INTEGRATION IS FINISHED TO THE DESIRED TIME, RETURN IS IN BASIC
000932:                                                                                                  #  TO THE RETURN ADDRESS
000933:
000934:                                                                                                  #  IN EITHER CASE, BEFORE RETURNING, THE EXTRAPOLATED STATE VECTOR IS TRAN
000935:                                                                                                  #  FERRED FROM R,VATT TO R,VN1-PIPTIME1 IS SET TO THE FINISHING INTEGRA-
000936:                                                                                                  #  TION TIME AND MPAC IS SET TO THE DELTA TIME---
000937:                                                                                                  #                                    TAT MINUS CURRENT TIME.
000938:
000939:                                                                                                  #  MIDTOAV2
000940:
000941:                                                                                                  #  THIS ROUTINE INTEGRATES THE CSM STATE VECTOR TO CURRENT TIME PLUS
000942:                                                                                                  #  INCREMENTS OF TIMEDELT SUCH THAT THE DIFFERENCE BETWEEN CURRENT TIME
000943:                                                                                                  #  AND THE STATE VECTOR TIME AT THE END OF THE LAST STEP IS AT LEAST 5.6
000944:                                                                                                  #  SECS.
000945:                                                                                                  #  NO INPUTS ARE REQUIRED OF THE CALLER.  RETURN IS IN BASIC TO THE RETURN
000946:                                                                                                  #  ADDRESS WITH THE ABOVE TRANSFERS TO R,VN1-PIPTIME1-AND MPAC DONE
000947:
000948: 13,2000                                           SETLOC   INTINIT
000949: 13,2000                                           BANK
000950: 13,3553     1127                                  EBANK=   IRETURN1
000951: 13,3553           45020        MIDTOAV2           STQ      CALL
000952: 13,3554           01127                                    IRETURN1
000953: 13,3555           27452                                    INTSTALL
000954: 13,3556           43145                           DLOAD    CLEAR
000955: 13,3557           27721                                    TIMEDELT
000956: 13,3560           04674                                    MID1FLAG
000957: 13,3561           37732                           STCALL   T-TO-ADD
000958: 13,3562           27577                                    ENTMID2
000959:
000960: 13,3563           45020        MIDTOAV1           STQ      CALL
000961: 13,3564           01127                                    IRETURN1
000962: 13,3565           27452                                    INTSTALL
000963: 13,3566           47014                           SET      RTB
000964: 13,3567           04474                                    MID1FLAG
000965: 13,3570           45510                                    LOADTIME
000966: 13,3571           44215                           DAD      BDSU                                  #  INITIAL CHECK, IS TDEC1 IN THE FUTURE.
000967: 13,3572           27721                                    TIMEDELT
000968: 13,3573           00041                                    TDEC1
000969: 13,3574           45044                           BPL      CALL
000970: 13,3575           27603                                    ENTMID1
000971: 13,3576           27704                                    NOTIME                                #  NO SET ALARM.SWITCH TO MIDTOAV2
000972:
000973: 13,3577           43234        ENTMID2            RTB      DAD
000974: 13,3600           45510                                    LOADTIME
000975: 13,3601           03732                                    T-TO-ADD
000976: 13,3602           00041                           STORE    TDEC1
000977:
000978: 13,3603           45014        ENTMID1            CLEAR    CALL
000979: 13,3604           01676                                    DIM0FLAG                              #  NO W-MATRIX
000980: 13,3605           26034                                    THISVINT
000981: 13,3606           43014                           CLEAR    SET
000982: 13,3607           01673                                    INTYPFLG
000983: 13,3610           04475                                    MIDAVFLG                              #  LET INTEG. KNOW THE CALL IS FOR MIDTOAV.
000984: 13,3611           77624                           CALL
000985: 13,3612           27172                                    INTEGRV                               #  GO INTEGRATE
000986: 13,3613           66134                           SXA,2    SXA,1
000987: 13,3614           03746                                    RTX2
000988: 13,3615           03745                                    RTX1
000989: 13,3616           67214                           CLEAR    SLOAD
000990: 13,3617           00275                                    AMOONFLG
000991: 13,3620           03747                                    RTX2
000992: 13,3621           43054                           BZE      SET
000993: 13,3622           27624                                    +2
000994: 13,3623           00075                                    AMOONFLG
000995: 13,3624           77775                           VLOAD
000996: 13,3625           00001                                    RATT
000997: 13,3626           25232                           STOVL    RN1
000998: 13,3627           00007                                    VATT
000999: 13,3630           15240                           STODL    VN1
001000: 13,3631           00015                                    TAT
001001: 13,3632           01246                           STORE    PIPTIME1
001002: 13,3633           77776                           EXIT
001003:
001004: 13,3634           00004                           INHINT
001005: 13,3635           00006                           EXTEND
001006: 13,3636           40025                           DCS      TIME2
001007: 13,3637           20155                           DAS      MPAC
001008: 13,3640           07226                           TC       TPAGREE
001009:
001010: 13,3641           31127                           CA       IRETURN1
001011: 13,3642           04720                           TC       BANKJUMP
001012: 13,3643           47014        CKMID2             BOF      RTB
001013: 13,3644           04754                                    MID1FLAG
001014: 13,3645           27662                                    MID2
001015: 13,3646           45510                                    LOADTIME
001016: 13,3647           44215                           DAD      BDSU
001017: 13,3650           27721                                    TIMEDELT
001018: 13,3651           01101                                    TDEC
001019: 13,3652           45044                           BPL      CALL
001020: 13,3653           27315                                    TESTLOOP                              #  YES
001021: 13,3654           27704                                    NOTIME
001022:
001023: 13,3655           43234        TIMEINC            RTB      DAD
001024: 13,3656           45510                                    LOADTIME
001025: 13,3657           03732                                    T-TO-ADD
001026: 13,3660           35101                           STCALL   TDEC
001027: 13,3661           27315                                    TESTLOOP
001028:
001029: 13,3662           45345        MID2               DLOAD    DSU
001030: 13,3663           01101                                    TDEC
001031: 13,3664           01517                                    TET
001032: 13,3665           45246                           ABS      DSU
001033: 13,3666           27717                                    3CSECS
001034: 13,3667           77644                           BPL
001035: 13,3670           27655                                    TIMEINC
001036:
001037: 13,3671           44234                           RTB      BDSU                                  #  SEE IF 5.6 SECS. AVAILABLE TO CALLER.
001038: 13,3672           45510                                    LOADTIME
001039: 13,3673           01517                                    TET
001040: 13,3674           51025                           DSU      BPL
001041: 13,3675           27723                                    5.6SECS
001042: 13,3676           27206                                    A-PCHK                                #  YES,GET OUT.
001043:
001044: 13,3677           43345                           DLOAD    DAD                                   #  NO,ADD TIMEDELT TO T-TO-ADD AND TRY
001045: 13,3700           03732                                    T-TO-ADD                              #  AGAIN.
001046: 13,3701           27721                                    TIMEDELT
001047: 13,3702           37732                           STCALL   T-TO-ADD
001048: 13,3703           27655                                    TIMEINC
001049: 13,3704           77414        NOTIME             CLEAR    EXIT                                  #  TOO LATE
001050: 13,3705           04674                                    MID1FLAG
001051: 13,3706           25127                           INCR     IRETURN1                              #  SET ERROR EXIT (CALLOC +2)
001052: 13,3707           05664                           TC       ALARM                                 #  INSUFFICIENT TIME FOR INTEGRATION --
001053: 13,3710           01703                           OCT      1703                                  #        TIG WILL BE SLIPPED...
001054: 13,3711           06006                           TC       INTPRET
001055: 13,3712           77745                           DLOAD
001056: 13,3713           27721                                    TIMEDELT
001057: 13,3714           03732                           STORE    T-TO-ADD
001058: 13,3715           77616                           RVQ
001059:
001060: 13,3716           00000 00003  3CSECS             2DEC     3          B-28
001061:
001062: 13,3720           00000 02342  TIMEDELT           2DEC     1250       B-28
001063:
001064: 13,3722           00000 01060  5.6SECS            2DEC     560        B-28
001065:
001066: 27,2672                                           BANK     27
001067: 27,2000                                           SETLOC   UPDATE2
001068: 27,2000                                           BANK
001069: 27,2672     0330                                  EBANK=   INTWAKUQ
001070:
001071: 27,2672                                           COUNT*   $$/INTIN
001072:
001073: 27,2672     0330               INTWAKUQ           =        INTWAK1Q                              #  TEMPORARY UNTIL NAME OF INTWAK1Q IS CHNG
001074:
001075: 27,2672           00003        INTWAKEU           RELINT
001076: 27,2673           00006                           EXTEND
001077: 27,2674           22330                           QXCH     INTWAKUQ                              #  SAVE Q FOR RETURN
001078:
001079: 27,2675           06006                           TC       INTPRET
001080:
001081: 27,2676           53135                           SLOAD    BZE                                   #  IS THIS A CSM/LEM STATE VECTOR UPDATE
001082: 27,2677           01502                                    UPSVFLAG                              #  REQUEST.  IF NOT GO TO INTWAKUP.
001083: 27,2700           56737                                    INTWAKUP
001084:
001085: 27,2701           77775                           VLOAD                                          #  MOVE RRECT(6) AND VRECT(6) INTO
001086: 27,2702           01503                                    RRECT                                 #        RCV(6) AND VCV(6) RESPECTIVELY.
001087: 27,2703           25535                           STOVL    RCV
001088: 27,2704           01511                                    VRECT                                 #  NOW GO TO 'RECTIFY +13D' TO
001089: 27,2705           77624                           CALL                                           #  STORE VRECT INTO VCV AND ZERO OUT
001090: 27,2706           23420                                    RECTIFY    +13D                       #  TDELTAV(6),TNUV(6),TC(2) AND XKEP(2)
001091: 27,2707           51535                           SLOAD    ABS                                   #  COMPARE ABSOLUTE VALUE OF 'UPSVFLAG'
001092: 27,2710           01502                                    UPSVFLAG                              #  TO 'UPDATE MOON STATE VECTOR CODE'
001093: 27,2711           53025                           DSU      BZE                                   #  TO DETERMINE WHETHER THE STATE VECTOR TO
001094: 27,2712           16750                                    UPMNSVCD                              #  BE UPDATED IS IN THE EARTH OR LUNAR
001095: 27,2713           56720                                    INTWAKEM                              #  SPHERE OF INFLUENCE.........
001096: 27,2714           43174                           AXT,2    CLRGO                                 #  EARTH SPHERE OF INFLUENCE.
001097: 27,2715           00000                           DEC      0          B-14
001098: 27,2716           00223                                    MOONFLAG
001099: 27,2717           56723                                    INTWAKEC
001100: 27,2720           43174        INTWAKEM           AXT,2    SET                                   #  LUNAR SPHERE OF INFLUENCE.
001101: 27,2721           00002                           DEC      2          B-14
001102: 27,2722           00063                                    MOONFLAG
001103: 27,2723           50135        INTWAKEC           SLOAD    BMN                                   #  COMMON CODING AFTER X2 INITIALIZED AND
001104:                                                                                                  #  MOONFLAG SET (OR CLEARED).
001105: 27,2724           01502                                    UPSVFLAG                              #  IS THIS A REQUEST FOR A LEM OR CSM
001106: 27,2725           56733                                    INTWAKLM                              #        STATE VECTOR UPDATE......
001107: 27,2726           77624                           CALL                                           #  UPDATE CSM STATE VECTOR
001108: 27,2727           26715                                    ATOPCSM
001109:
001110: 27,2730           52014                           CLEAR    GOTO
001111: 27,2731           01671                                    ORBWFLAG
001112: 27,2732           56735                                    INTWAKEX
001113:
001114: 27,2733           77624        INTWAKLM           CALL                                           #  UPDATE LM STATE VECTOR
001115: 27,2734           26770                                    ATOPLEM
001116:
001117: 27,2735           77614        INTWAKEX           CLEAR
001118: 27,2736           02676                                    RENDWFLG
001119:
001120: 27,2737           45131        INTWAKUP           SSP      CALL                                  #  REMOVE :UPDATE STATE VECTOR INDICATOR:
001121: 27,2740           01502                                    UPSVFLAG
001122: 27,2741           00000                                    0
001123: 27,2742           27465                                    INTWAKE0                              #  RELEASE :GRAB: OF ORBIT INTEG
001124: 27,2743           77776                           EXIT
001125:
001126: 27,2744           05426                           TC       PHASCHNG
001127: 27,2745           04026                           OCT      04026
001128: 27,2746           00330                           TC       INTWAKUQ
001129:
001130: 27,2747           00002        UPMNSVCD           OCT      2
001131: 27,2750           00000                           OCT      0
001132:
001133: 27,2751           77420        GRP2PC             STQ      EXIT
001134: 27,2752           03536                                    GRP2SVQ
001135: 27,2753           05426                           TC       PHASCHNG
001136: 27,2754           04022                           OCT      04022
001137: 27,2755           06006                           TC       INTPRET
001138: 27,2756           77650                           GOTO
001139: 27,2757           03536                                    GRP2SVQ
001140:
001141:
001142:

End of include-file INTEGRATION_INITIALIZATION.agc.  Parent file is MAIN.agc


