
Source Code


000002:                                                                                                  ## Copyright:   Public domain.
000003:                                                                                                  ## Filename:    INTERRUPT_LEAD_INS.agc
000004:                                                                                                  ## Purpose:     A section of Comanche revision 067.
000005:                                                                                                  ##              It is part of the reconstructed source code for the flight
000006:                                                                                                  ##              software for the Command Module's (CM) Apollo Guidance Computer
000007:                                                                                                  ##              (AGC) for Apollo 12. No original listings of this program are
000008:                                                                                                  ##              available; instead, this file was created via dissassembly of
000009:                                                                                                  ##              dumps of Comanche 067 core rope modules and comparison with
000010:                                                                                                  ##              other AGC programs.
000011:                                                                                                  ## Assembler:   yaYUL
000012:                                                                                                  ## Contact:     Ron Burkey <info@sandroid.org>.
000013:                                                                                                  ## Website:     www.ibiblio.org/apollo/index.html
000014:                                                                                                  ## Mod history: 2023-08-16 MAS  Created from Comanche 055.
000015:                                                                                                  ##              2024-05-13 MAS  Updated for Comanche 067.
000016:
000017:    4000                                           SETLOC   4000
000018:
000019:    4000                                           COUNT    02/RUPTS
000020:
000021:    4000           00004                           INHINT                                         #  GO
000022:    4001           34054                           CAF      GOBB
000023:    4002           56006                           XCH      BBANK
000024:    4003           12526                           TCF      GOPROG
000025:
000026:    4004           52011                           DXCH     ARUPT                                 #  T6RUPT
000027:    4005           00006                           EXTEND
000028:    4006           31311                           DCA      T6LOC
000029:    4007           52006                           DTCB
000030:
000031:    4010           52011                           DXCH     ARUPT                                 #  T5RUPT
000032:    4011           40030                           CS       TIME5
000033:    4012           65052                           AD       .5SEC
000034:    4013           14065                           TCF      T5RUPT
000035:
000036:    4014           52011                           DXCH     ARUPT                                 #  T3RUPT
000037:    4015           34055                           CAF      T3RPTBB
000038:    4016           56006                           XCH      BBANK
000039:    4017           13416                           TCF      T3RUPT
000040:
000041:    4020           52011                           DXCH     ARUPT                                 #  T4RUPT
000042:    4021           34063                           CAF      T4RPTBB
000043:    4022           56006                           XCH      BBANK
000044:    4023           12000                           TCF      T4RUPT
000045:
000046:    4024           52011                           DXCH     ARUPT                                 #  KEYRUPT1
000047:    4025           34056                           CAF      KEYRPTBB
000048:    4026           56006                           XCH      BBANK
000049:    4027           13673                           TCF      KEYRUPT1
000050:
000051:    4030           52011                           DXCH     ARUPT                                 #  KEYRUPT2
000052:    4031           34057                           CAF      MKRUPTBB
000053:    4032           56006                           XCH      BBANK
000054:    4033           12104                           TCF      MARKRUPT
000055:
000056:    4034           52011                           DXCH     ARUPT                                 #  UPRUPT
000057:    4035           34056                           CAF      UPRPTBB
000058:    4036           56006                           XCH      BBANK
000059:    4037           13716                           TCF      UPRUPT
000060:
000061:    4040           52011                           DXCH     ARUPT                                 #  DOWNRUPT
000062:    4041           34060                           CAF      DWNRPTBB
000063:    4042           56006                           XCH      BBANK
000064:    4043           14662                           TCF      DODOWNTM
000065:
000066:    4044           52011                           DXCH     ARUPT                                 #  RADAR RUPT
000067:    4045           34061                           CAF      RDRPTBB
000068:    4046           56006                           XCH      BBANK
000069:    4047           12505                           TCF      VHFREAD
000070:
000071:    4050           52011                           DXCH     ARUPT                                 #  HAND CONTROL RUPT
000072:    4051           34062                           CAF      HCRUPTBB
000073:    4052           56006                           XCH      BBANK
000074:    4053           15352                           TCF      RESUME     +3                         #  NOT USED
000075:
000076:    4054  E3,1400                                  EBANK=   LST1                                  #  RESTART USES E0,E3
000077:    4054           12063        GOBB               BBCON    GOPROG
000078:
000079:    4055  E3,1400                                  EBANK=   LST1
000080:    4055           02063        T3RPTBB            BBCON    T3RUPT
000081:
000082:    4056     0073                                  EBANK=   KEYTEMP1
000083:    4056           16060        KEYRPTBB           BBCON    KEYRUPT1
000084:
000085:    4057  E7,1725                                  EBANK=   MRKBUF1
000086:    4057           16067        MKRUPTBB           BBCON    MARKRUPT
000087:
000088:    4060     4056               UPRPTBB            =        KEYRPTBB
000089:
000090:    4060     0337                                  EBANK=   DNTMBUFF
000091:    4060           12060        DWNRPTBB           BBCON    DNPHASE1
000092:
000093:    4061  E7,1603                                  EBANK=   DATATEST
000094:    4061           56067        RDRPTBB            BBCON    VHFREAD
000095:
000096:    4062     0025                                  EBANK=   TIME1
000097:    4062           04060        HCRUPTBB           BBCON    RESUME                                #  NOT USED
000098:
000099:    4063     1302                                  EBANK=   DSRUPTSW
000100:    4063           14062        T4RPTBB            BBCON    T4RUPT
000101:
000102:    4064     0025                                  EBANK=   TIME1
000103:    4064           04060        T5RPTBB            BBCON    T5RUPT
000104:
000105:    4065           00006        T5RUPT             EXTEND
000106:    4066           65353                           BZMF     NOQBRSM
000107:    4067           00006                           EXTEND
000108:    4070           31313                           DCA      T5LOC
000109:    4071           52006                           DTCB
000110:
000111:
000112:

End of include-file INTERRUPT_LEAD_INS.agc.  Parent file is MAIN.agc


