
Source Code


000002:                                                                                                  ## Copyright:   Public domain.
000003:                                                                                                  ## Filename:    INTER-BANK_COMMUNICATION.agc
000004:                                                                                                  ## Purpose:     A section of Comanche revision 067.
000005:                                                                                                  ##              It is part of the reconstructed source code for the flight
000006:                                                                                                  ##              software for the Command Module's (CM) Apollo Guidance Computer
000007:                                                                                                  ##              (AGC) for Apollo 12. No original listings of this program are
000008:                                                                                                  ##              available; instead, this file was created via dissassembly of
000009:                                                                                                  ##              dumps of Comanche 067 core rope modules and comparison with
000010:                                                                                                  ##              other AGC programs.
000011:                                                                                                  ## Assembler:   yaYUL
000012:                                                                                                  ## Contact:     Ron Burkey <info@sandroid.org>.
000013:                                                                                                  ## Website:     www.ibiblio.org/apollo/index.html
000014:                                                                                                  ## Mod history: 2023-08-16 MAS  Created from Comanche 055.
000015:
000016:                                                                                                  #  THE FOLLOWING ROUTINE CAN BE USED TO CALL A SUBROUTINE IN ANOTHER BANK. IN THE BANKCALL VERSION, THE
000017:                                                                                                  #  CADR OF THE SUBROUTINE IMMEDIATELY FOLLOWS THE TC BANKCALL INSTRUCTION, WITH C(A) AND C(L) PRESERVED.
000018:
000019:    4676                                           BLOCK    02
000020:    4676                                           COUNT    02/BANK
000021:
000022:    4676           52134        BANKCALL           DXCH     BUF2                                  #  SAVE INCOMING A,L.
000023:    4677           50002                           INDEX    Q                                     #  PICK UP CADR.
000024:    4700           30000                           CA       0
000025:    4701           24002                           INCR     Q                                     #  SO WE RETURN TO THE LOC. AFTER THE CADR.
000026:
000027:                                                                                                  #  SWCALL IS  IDENTICAL TO BANKCALL, EXCEPT THAT THE CADR ARRIVES IN A.
000028:
000029:    4702           54001        SWCALL             TS       L
000030:    4703           22004                           LXCH     FBANK                                 #  SWITCH BANKS, SAVING RETURN.
000031:    4704           75070                           MASK     LOW10                                 #  GET SUB-ADDRESS OF CADR.
000032:    4705           56002                           XCH      Q                                     #  A,L NOW CONTAINS DP RETURN.
000033:    4706           52134                           DXCH     BUF2                                  #  RESTORING INPUTS IF THIS IS A BANKCALL.
000034:    4707           50002                           INDEX    Q
000035:    4710           02000                           TC       10000                                 #  SETTING Q TO SWRETURN.
000036:
000037:    4711           56134        SWRETURN           XCH      BUF2       +1                         #  COMES HERE TO RETURN TO CALLER. C(A,L)
000038:    4712           56004                           XCH      FBANK                                 #  ARE PRESERVED FOR RETURN.
000039:    4713           56134                           XCH      BUF2       +1
000040:    4714           00133                           TC       BUF2
000041:
000042:                                                                                                  #  THE FOLLOWING ROUTINE CAN BE USED AS A UNILATERAL JUMP WITH C(A,L) PRESERVED AND THE CADR IMMEDIATELY
000043:                                                                                                  #  FOLLOWING THE TC POSTJUMP INSTRUCTION.
000044:
000045:    4715           56002        POSTJUMP           XCH      Q                                     #  SAVE INCOMING C(A).
000046:    4716           50000                           INDEX    A                                     #  GET CADR.
000047:    4717           30000                           CA       0
000048:
000049:                                                                                                  #  BANKJUMP IS THE SAME AS POSTJUMP, EXCEPT THAT THE CADR ARRIVES IN A.
000050:
000051:    4720           54004        BANKJUMP           TS       FBANK
000052:    4721           75070                           MASK     LOW10
000053:    4722           56002                           XCH      Q                                     #  RESTORING INPUT C(A) IF THIS WAS A
000054:    4723           50002        Q+10000            INDEX    Q                                     #  POSTJUMP.
000055:    4724           12000        PRIO12             TCF      10000                                 #  PRIO12 = TCF  10000 = 12000
000056:
000057:                                                                                                  #  THE FOLLOWING ROUTINE GETS THE RETURN CADR SAVED BY SWCALL OR BANKCALL AND LEAVES IT IN A.
000058:
000059:    4725           35070        MAKECADR           CAF      LOW10
000060:    4726           70133                           MASK     BUF2
000061:    4727           60134                           AD       BUF2       +1
000062:    4730           00002                           TC       Q
000063:
000064:    4731           54135        SUPDACAL           TS       MPTEMP
000065:    4732           56004                           XCH      FBANK                                 #  SET FBANK FOR DATA.
000066:    4733           00006                           EXTEND
000067:    4734           04007                           ROR      SUPERBNK                              #  SAVE FBANK IN BITS 15-11, AND
000068:    4735           56135                           XCH      MPTEMP                                #  SUPERBANK IN BITS 7-5.
000069:    4736           75070                           MASK     LOW10
000070:    4737           56001                           XCH      L                                     #  SAVE REL. ADR. IN BANK, FETCH SUPERBITS.
000071:    4740           00004                           INHINT                                         #  BECAUSE RUPT DOES NOT SAVE SUPERBANK.
000072:    4741           00006                           EXTEND
000073:    4742           01007                           WRITE    SUPERBNK                              #  SET SUPERBANK FOR DATA.
000074:    4743           50001                           INDEX    L
000075:    4744           32000                           CA       10000                                 #  PINBALL (FIX MEM DISP) PREVENTS DCA HERE
000076:    4745           56135                           XCH      MPTEMP                                #  SAVE 1ST WD, FETCH OLD FBANK AND SBANK.
000077:    4746           00006                           EXTEND
000078:    4747           01007                           WRITE    SUPERBNK                              #  RESTORE SUPERBANK.
000079:    4750           00003                           RELINT
000080:    4751           54004                           TS       FBANK                                 #  RESTORE FBANK.
000081:    4752           30135                           CA       MPTEMP                                #  RECOVER FIRST WORD OF DATA.
000082:    4753           00002                           RETURN                                         #  24 WDS. DATACALL 516 MU, SUPDACAL 432 MU
000083:
000084:                                                                                                  #  THE FOLLOWING ROUTINES ARE IDENTICAL TO BANKCALL AND SWCALL EXCEPT THAT THEY ARE USED IN INTERRUPT.
000085:
000086:    4754           52073        IBNKCALL           DXCH     RUPTREG3                              #  USES RUPTREG3,4 FOR DP RETURN ADDRESS.
000087:    4755           50002                           INDEX    Q
000088:    4756           30000                           CAF      0
000089:    4757           24002                           INCR     Q
000090:
000091:    4760           54001        ISWCALL            TS       L
000092:    4761           22004                           LXCH     FBANK
000093:    4762           75070                           MASK     LOW10
000094:    4763           56002                           XCH      Q
000095:    4764           52073                           DXCH     RUPTREG3
000096:    4765           50002                           INDEX    Q
000097:    4766           02000                           TC       10000
000098:
000099:    4767           56073        ISWRETRN           XCH      RUPTREG4
000100:    4770           56004                           XCH      FBANK
000101:    4771           56073                           XCH      RUPTREG4
000102:    4772           00072                           TC       RUPTREG3
000103:
000104:                                                                                                  #  2. USPRCADR ACCESSES INTERPRETIVE CODING IN OTHER THAN THE USER'S FBANK.  THE CALLING SEQUENCE IS AS FOLLOWS:
000105:                                                                                                  #        L       TC      USPRCADR
000106:                                                                                                  #        L+1     CADR    INTPRETX        INTPRETX IS THE INTERPRETIVE CODING
000107:                                                                                                  #                                        RETURN IS TO L+2
000108:
000109:    4773           54164        USPRCADR           TS       LOC                                   #  SAVE A
000110:    4774           35024                           CA       BIT8
000111:    4775           54023                           TS       EDOP                                  #  EXIT INSTRUCTION TO EDOP
000112:    4776           30006                           CA       BBANK
000113:    4777           54165                           TS       BANKSET                               #  USER'S BBANK TO BANKSET
000114:    5000           50002                           INDEX    Q
000115:    5001           30000                           CA       0
000116:    5002           54004                           TS       FBANK                                 #  INTERPRETIVE BANK TO FBANK
000117:    5003           75070                           MASK     LOW10                                 #  YIELDS INTERPRETIVE RELATIVE ADDRESS
000118:    5004           56002                           XCH      Q                                     #  INTERPRETIVE ADDRESS TO Q, FETCHING L+1
000119:    5005           56164                           XCH      LOC                                   #  L+1 TO LOC, RETRIEVING ORIGINAL A
000120:    5006           14723                           TCF      Q+10000
000121:
000122:                                                                                                  #  THERE ARE FOUR POSSIBLE SETTINGS FOR CHANNEL 07.  (CHANNEL 07 CONTAINS THE SUPERBANK SETTING.)
000123:
000124:                                                                                                  #                                        PSEUDO-FIXED     OCTAL PSEUDO
000125:                                                                                                  #  SUPERBANK     SETTING S-REG. VALUE    BANK NUMBERS     ADDRESSES
000126:                                                                                                  #  ----------    ------- ------------     ------------     ------------
000127:                                                                                                  #  SUPERBANK 3     0XX    2000 - 3777       30 - 37       70000 - 107777         (WHERE XX CAN BE ANYTHING AND
000128:                                                                                                  #                                                                                WILL USUALLY BE SEEN AS 11)
000129:                                                                                                  #  SUPERBANK 4     100    2000 - 3777       40 - 47      110000 - 127777         (AS FAR AS IT CAN BE SEEN,
000130:                                                                                                  #                                                                                ONLY BANKS 40-43 WILL EVER BE
000131:                                                                                                  #                                                                                AND ARE PRESENTLY AVAILABLE)
000132:                                                                                                  #  SUPERBANK 5     101    2000 - 3777       50 - 57      130000 - 147777         (PRESENTLY NOT AVAILABLE TO
000133:                                                                                                  #                                                                                THE USER)
000134:                                                                                                  #  SUPERBANK 6     110    2000 - 3777       60 - 67      150000 - 167777         (PRESENTLY NOT AVAILABLE TO
000135:                                                                                                  #                                                                                THE USER)
000136:                                                                                                  #  *** THIS ROUTINE MAY BE CALLED BY ANY PROGRAM LOCATED IN BANKS 00 - 27.  I.E., NO PROGRAM LIVING IN ANY
000137:                                                                                                  #  SUPERBANK SHOULD USE SUPERSW. ***
000138:
000139:                                                                                                  #  SUPERSW MAY BE CALLED IN THIS FASHION:
000140:                                                                                                  #        CAF     ABBCON          WHERE -- ABBCON  BBCON  SOMETHIN --
000141:                                                                                                  #        TCR     SUPERSW         (THE SUPERBNK BITS ARE IN THE BBCON)
000142:                                                                                                  #        ...       ...
000143:                                                                                                  #         .         .
000144:                                                                                                  #         .         .
000145:                                                                                                  #  OR IN THIS FASHION:
000146:                                                                                                  #        CAF     SUPERSET        WHERE SUPERSET IS ONE OF THE FOUR AVAILABLE
000147:                                                                                                  #        TCR     SUPERSW         SUPERBANK BIT CONSTANTS:
000148:                                                                                                  #        ...       ...                   SUPER011 OCTAL  60
000149:                                                                                                  #         .         .                    SUPER100 OCTAL 100
000150:                                                                                                  #         .         .                    SUPER101 OCTAL 120
000151:                                                                                                  #                                        SUPER110 OCTAL 140
000152:
000153:    5007           00006        SUPERSW            EXTEND
000154:    5010           01007                           WRITE    SUPERBNK                              #  WRITE BITS 7-6-5 OF THE ACCUMULATOR INTO
000155:                                                                                                  #  CHANNEL 07
000156:    5011           00002                           TC       Q                                     #  TC TO INSTRUCTION FOLLOWING
000157:                                                                                                  #        TC SUPERSW
000158:
000159:
000160:

End of include-file INTER-BANK_COMMUNICATION.agc.  Parent file is MAIN.agc


