
Source Code


000002:                                                                                                  ## Copyright:   Public domain.
000003:                                                                                                  ## Filename:    INTERPRETIVE_CONSTANTS.agc
000004:                                                                                                  ## Purpose:     A section of Comanche revision 067.
000005:                                                                                                  ##              It is part of the reconstructed source code for the flight
000006:                                                                                                  ##              software for the Command Module's (CM) Apollo Guidance Computer
000007:                                                                                                  ##              (AGC) for Apollo 12. No original listings of this program are
000008:                                                                                                  ##              available; instead, this file was created via dissassembly of
000009:                                                                                                  ##              dumps of Comanche 067 core rope modules and comparison with
000010:                                                                                                  ##              other AGC programs.
000011:                                                                                                  ## Assembler:   yaYUL
000012:                                                                                                  ## Contact:     Ron Burkey <info@sandroid.org>.
000013:                                                                                                  ## Website:     www.ibiblio.org/apollo/index.html
000014:                                                                                                  ## Mod history: 2023-08-16 MAS  Created from Comanche 055.
000015:
000016: 26,2000                                           SETLOC   INTPRET1
000017: 26,2000                                           BANK
000018:
000019: 26,3323                                           COUNT    23/ICONS
000020:
000021: 26,3323           10000 00000  DP1/4TH            2DEC     .25
000022:
000023: 26,3325           00000 00000  UNITZ              2DEC     0          B-28
000024:
000025: 26,3327           00000 00000  UNITY              2DEC     0          B-28
000026:
000027: 26,3331           20000 00000  UNITX              2DEC     .5
000028:
000029: 26,3333           00000 00000  ZEROVECS           2DEC     0          B-28
000030:
000031: 26,3335           00000 00000                     2DEC     0          B-28
000032:
000033: 26,3337           00000 00000                     2DEC     0          B-28
000034:
000035: 26,3341  26,3331               DPHALF             =        UNITX
000036: 26,3341           37777        DPPOSMAX           OCT      37777
000037: 26,3342           37777                           OCT      37777
000038:
000039:                                                                                                  #  INTERPRETIVE CONSTANTS IN THE OTHER HALF-MEMORY
000040:
000041: 04,2000                                           SETLOC   INTPRET2
000042: 04,2000                                           BANK
000043:
000044: 04,3557                                           COUNT    14/ICONS
000045:
000046: 04,3557           00000 00000  ZUNIT              2DEC     0          B-28
000047:
000048: 04,3561           00000 00000  YUNIT              2DEC     0          B-28
000049:
000050: 04,3563           20000 00000  XUNIT              2DEC     .5
000051:
000052: 04,3565           00000 00000  ZEROVEC            2DEC     0          B-28
000053:
000054: 04,3567           00000 00000                     2DEC     0          B-28
000055:
000056: 04,3571           00000 00000                     2DEC     0          B-28
000057:
000058: 04,3573           77777                           OCT      77777                                 #  -0, -6, -12 MUST REMAIN IN THIS ORDER
000059: 04,3574           77771        DEC-6              DEC      -6         B-14
000060: 04,3575           77763        DEC-12             DEC      -12        B-14
000061: 04,3576           37777 37777  LODPMAX            2OCT     3777737777                            #  THESE TWO CONSTANTS MUST REMAIN
000062:
000063: 04,3600           37777 37777  LODPMAX1           2OCT     3777737777                            #  ADJACENT AND THE SAME FOR INTEGRATION
000064:
000065: 04,3602  04,3565               ZERODP             =        ZEROVEC
000066: 04,3602  04,3563               HALFDP             =        XUNIT
000067:
000068:
000069:
000070:

End of include-file INTERPRETIVE_CONSTANTS.agc.  Parent file is MAIN.agc


