
Source Code


000002:                                                                                                  ## Copyright:   Public domain.
000003:                                                                                                  ## Filename:    KEYRUPT,_UPRUPT.agc
000004:                                                                                                  ## Purpose:     A section of Comanche revision 067.
000005:                                                                                                  ##              It is part of the reconstructed source code for the flight
000006:                                                                                                  ##              software for the Command Module's (CM) Apollo Guidance Computer
000007:                                                                                                  ##              (AGC) for Apollo 12. No original listings of this program are
000008:                                                                                                  ##              available; instead, this file was created via dissassembly of
000009:                                                                                                  ##              dumps of Comanche 067 core rope modules and comparison with
000010:                                                                                                  ##              other AGC programs.
000011:                                                                                                  ## Assembler:   yaYUL
000012:                                                                                                  ## Contact:     Ron Burkey <info@sandroid.org>.
000013:                                                                                                  ## Website:     www.ibiblio.org/apollo/index.html
000014:                                                                                                  ## Mod history: 2023-08-16 MAS  Created from Comanche 055.
000015:
000016: 14,3763                                           BANK     14
000017: 07,2000                                           SETLOC   KEYRUPT
000018: 07,2000                                           BANK
000019: 07,3673                                           COUNT*   $$/KEYUP
000020:
000021: 07,3673           54016        KEYRUPT1           TS       BANKRUPT
000022: 07,3674           56002                           XCH      Q
000023: 07,3675           54012                           TS       QRUPT
000024: 07,3676           04414                           TC       LODSAMPT                              #  TIME IS SNATCHED IN RUPT FOR NOUN 65.
000025: 07,3677           34362                           CAF      LOW5
000026: 07,3700           00006                           EXTEND
000027: 07,3701           02015                           RAND     MNKEYIN                               #  CHECK IF KEYS 5M-1M ON
000028: 07,3702           54073        KEYCOM             TS       RUPTREG4
000029: 07,3703           40101                           CS       FLAGWRD5
000030: 07,3704           75015                           MASK     BIT15
000031: 07,3705           26101                           ADS      FLAGWRD5
000032:
000033: 07,3706           34371        ACCEPTUP           CAF      CHRPRIO                               #  (NOTE: RUPTREG4 = KEYTEMP1)
000034: 07,3707           05150                           TC       NOVAC
000035: 07,3710     0777                                  EBANK=   DSPCOUNT
000036: 07,3710           02000 60101                     2CADR    CHARIN
000037:
000038: 07,3712           30073                           CA       RUPTREG4
000039: 07,3713           50064                           INDEX    LOCCTR
000040: 07,3714           54154                           TS       MPAC                                  #  LEAVE 5 BIT KEY CDE IN MPAC FOR CHARIN
000041: 07,3715           05347                           TC       RESUME
000042:
000043:                                                                                                  #  UPRUPT PROGRAM
000044:
000045: 07,3716           54016        UPRUPT             TS       BANKRUPT
000046: 07,3717           56002                           XCH      Q
000047: 07,3720           54012                           TS       QRUPT
000048: 07,3721           04414                           TC       LODSAMPT                              #  TIME IS SNATCHED IN RUPT FOR NOUN 65.
000049: 07,3722           35035                           CAF      ZERO
000050: 07,3723           56045                           XCH      INLINK
000051: 07,3724           54073                           TS       KEYTEMP1
000052: 07,3725           35031                           CAF      BIT3                                  #  TURN ON UPACT LIGHT
000053: 07,3726           00006                           EXTEND                                         #  (BIT 3 OF CHANNEL 11)
000054: 07,3727           05011                           WOR      DSALMOUT
000055: 07,3730           34362        UPRPT1             CAF      LOW5                                  #  TEST FOR TRIPLE CHAR REDUNDANCY
000056: 07,3731           70073                           MASK     KEYTEMP1                              #  LOW5 OF WORD
000057: 07,3732           56073                           XCH      KEYTEMP1                              #  LOW5 INTO KEYTEMP1
000058: 07,3733           00006                           EXTEND
000059: 07,3734           75022                           MP       BIT10                                 #  SHIFT RIGHT 5
000060: 07,3735           54734                           TS       KEYTEMP2
000061: 07,3736           74362                           MASK     LOW5                                  #  MID 5
000062: 07,3737           63773                           AD       HI10
000063: 07,3740           03770                           TC       UPTEST
000064: 07,3741           35022                           CAF      BIT10
000065: 07,3742           00006                           EXTEND
000066: 07,3743           70734                           MP       KEYTEMP2                              #  SHIFT RIGHT 5
000067: 07,3744           74362                           MASK     LOW5                                  #  HIGH 5
000068: 07,3745           40000                           COM
000069: 07,3746           03770                           TC       UPTEST
000070:
000071: 07,3747           43776        UPOK               CS       ELRCODE                               #  CODE IS GOOD.  IF CODE = 'ERROR RESET',
000072: 07,3750           60073                           AD       KEYTEMP1                              #  CLEAR UPLOCKFL (SET BIT4 OF FLAGWRD7 = 0)
000073: 07,3751           00006                           EXTEND                                         #  IF CODE DOES NOT = 'ERROR RESET', ACCEPT
000074: 07,3752           13760                           BZF      CLUPLOCK                              #  CODE ONLY IF UPLOCKFL IS CLEAR (=0).
000075:
000076: 07,3753           35030                           CAF      BIT4                                  #  TEST UPLOCKFL FOR 0 OR 1.
000077: 07,3754           70103                           MASK     FLAGWRD7
000078: 07,3755           10000                           CCS      A
000079: 07,3756           05347                           TC       RESUME                                #  UPLOCKFL = 1
000080: 07,3757           03706                           TC       ACCEPTUP                              #  UPLOCKFL = 0
000081:
000082: 07,3760           45030        CLUPLOCK           CS       BIT4                                  #  CLEAR UPLOCKFL (I.E., SET BIT 4 OF
000083: 07,3761           70103                           MASK     FLAGWRD7                              #  FLAGWRD7 = 0)
000084: 07,3762           54103                           TS       FLAGWRD7
000085: 07,3763           03706                           TC       ACCEPTUP
000086:
000087:                                                                                                  #  CODE IS BAD
000088: 07,3764           40103        TMFAIL2            CS       FLAGWRD7                              #  LOCK OUT FURTHER UPLINK ACTIVITY
000089: 07,3765           75030                           MASK     BIT4                                  #  (BY SETTING UPLOCKFL = 1) UNTIL
000090: 07,3766           26103                           ADS      FLAGWRD7                              #  'ERROR RESET' IS SENT VIA UPLINK.
000091: 07,3767           05347                           TC       RESUME
000092: 07,3770           60073        UPTEST             AD       KEYTEMP1
000093: 07,3771           10000                           CCS      A
000094: 07,3772           03764                           TC       TMFAIL2
000095: 07,3773           77740        HI10               OCT      77740
000096: 07,3774           03764                           TC       TMFAIL2
000097: 07,3775           00002                           TC       Q
000098:
000099: 07,3776           00022        ELRCODE            OCT      22
000100:
000101:                                                                                                  #  'UPLINK ACTIVITY LIGHT' IS TURNED OFF BY .....
000102:                                                                                                  #        1.      VBRELDSP
000103:                                                                                                  #        2.      ERROR RESET
000104:                                                                                                  #        3.      UPDATE PROGRAM (P27) ENTERED BY V70,V71,V72, AND V73.
000105:
000106:                                                                                                  #                                     -
000107:                                                                                                  #  THE RECEPTION OF A BAD CODE (I.E  CCC FAILURE) LOCKS OUT FURTHER UPLINK ACTIVITY BY SETTING BIT4 OF FLAGWRD7 = 1.
000108:                                                                                                  #  THIS INDICATION WILL BE TRANSFERRED TO THE GROUND BY THE DOWNLINK WHICH DOWNLINKS ALL FLAGWORDS.
000109:                                                                                                  #  WHEN UPLINK ACTIVITY IS LOCKED OUT, IT CAN BE ALLOWED WHEN THE GROUND UPLINKS AND 'ERROR RESET' CODE.
000110:                                                                                                  #  (IT IS RECOMMENDED THAT THE 'ERROR LIGHT RESET' CODE IS PRECEEDED BY 16 BITS THE FIRST OF WHICH IS 1 FOLLOWED
000111:                                                                                                  #  BY 15 ZEROES.  THIS WILL ELIMINATE EXTRANEOUS BITS FROM INLINK WHICH MAY HAVE BEEN LEFT OVER FROM THE ORIGINAL
000112:                                                                                                  #  FAILURE)
000113:
000114:                                                                                                  #  UPLINK ACTIVITY IS ALSO ALLOWED (UNLOCKED) DURING FRESH START WHEN FRESH START SETS BIT4 OF FLAGWRD7 = 0.
000115:
000116:

End of include-file KEYRUPT,_UPRUPT.agc.  Parent file is MAIN.agc


