
Source Code


000002:                                                                                                  ## Copyright:   Public domain.
000003:                                                                                                  ## Filename:    LATITUDE_LONGITUDE_SUBROUTINES.agc
000004:                                                                                                  ## Purpose:     A section of Comanche revision 067.
000005:                                                                                                  ##              It is part of the reconstructed source code for the flight
000006:                                                                                                  ##              software for the Command Module's (CM) Apollo Guidance Computer
000007:                                                                                                  ##              (AGC) for Apollo 12. No original listings of this program are
000008:                                                                                                  ##              available; instead, this file was created via dissassembly of
000009:                                                                                                  ##              dumps of Comanche 067 core rope modules and comparison with
000010:                                                                                                  ##              other AGC programs.
000011:                                                                                                  ## Assembler:   yaYUL
000012:                                                                                                  ## Contact:     Ron Burkey <info@sandroid.org>.
000013:                                                                                                  ## Website:     www.ibiblio.org/apollo/index.html
000014:                                                                                                  ## Mod history: 2023-08-16 MAS  Created from Comanche 055.
000015:
000016:                                                                                                  #  SUBROUTINE TO CONVERT RAD VECTOR AT GIVEN TIME TO LAT,LONG AND ALT
000017:
000018:                                                                                                  #  CALLING SEQUENCE
000019:                                                                                                  #        L-1     CALL
000020:                                                                                                  #        L               LAT-LONG
000021:
000022:                                                                                                  #  SUBROUTINES USED
000023:                                                                                                  #        R-TO-RP, ARCTAN, SETGAMMA, SETRE
000024:
000025:                                                                                                  #  ERASABLE INIT. REQ.
000026:                                                                                                  #        AXO, -AYO, AZO, TEPHEM (SET AT LAUNCH TIME)
000027:                                                                                                  #        ALPHAV = POSITION VECTOR METERS B-29
000028:                                                                                                  #        MPAC -- TIME (CSECS B-28)
000029:                                                                                                  #        ERADFLAG =1, TO COMPUTE EARTH RADIUS, =0 FOR FIXED EARTH RADIUS
000030:                                                                                                  #        LUNAFLAG=0 FOR EARTH, 1 FOR MOON
000031:
000032:                                                                                                  #  OUTPUT
000033:                                                                                                  #        LATITUDE IN LAT         (REVS. B-0)
000034:                                                                                                  #        LONGITUDE IN LONG       (REVS. B-0)
000035:                                                                                                  #        ALTITUDE IN ALT METERS  B-29
000036:
000037: 30,3750                                           BANK     30
000038: 13,2000                                           SETLOC   LATLONG
000039: 13,2000                                           BANK
000040:
000041: 13,2400                                           COUNT    13/LT-LG
000042:
000043: 13,2400  E4,1551                                  EBANK=   ALPHAV
000044: 13,2400           40220        LAT-LONG           STQ      SETPD
000045: 13,2401           02242                                    INCORPEX
000046: 13,2402           00001                                    0D
000047: 13,2403           24007                           STOVL    6D                                    #  SAVE TIME IN 6-7D FOR R-TO-RP
000048: 13,2404           02152                                    ALPHAV
000049: 13,2405           51406                           PUSH     ABVAL                                 #  0-5D= R FOR R-TO-RP
000050: 13,2406           16310                           STODL    ALPHAM                                #  ABS. VALUE OF R FOR ALT FORMULA BELOW
000051: 13,2407           11566                                    ZEROVEC                               #  SET MPAC=0 FOR EARTH, NON-ZERO FOR MOON
000052: 13,2410           71414                           BOFF     COS                                   #  USE COS(0) TO GET NON-ZERO IN MPAC
000053: 13,2411           01743                                    LUNAFLAG                              #  0=EARTH, 1=MOON
000054: 13,2412           26413                                    CALLRTRP
000055: 13,2413           77624        CALLRTRP           CALL
000056: 13,2414           55370                                    R-TO-RP                               #  RP VECTOR CONVERTED FROM R B-29
000057: 13,2415           77656                           UNIT                                           #  UNIT RP B-1
000058: 13,2416           36152                           STCALL   ALPHAV                                #  U2= 1/2 SINL FOR SETRE SUBR BELOW
000059: 13,2417           26601                                    SETGAMMA                              #        SET GAMMA=B2/A2 FOR EARTH, =1 FOR MOON
000060: 13,2420           77624                           CALL                                           #        SCALED B-1
000061: 13,2421           26611                                    SETRE                                 #  CALC RE METERS B-29
000062: 13,2422           63545                           DLOAD    DSQ
000063: 13,2423           02152                                    ALPHAV
000064: 13,2424           63525                           PDDL     DSQ
000065: 13,2425           02154                                    ALPHAV     +2
000066: 13,2426           75415                           DAD      SQRT
000067: 13,2427           76405                           DMP      SL1R
000068: 13,2430           00011                                    GAMRP
000069: 13,2431           14021                           STODL    COSTH                                 #  COS(LAT) B-1
000070: 13,2432           02156                                    ALPHAV     +4
000071: 13,2433           34023                           STCALL   SINTH                                 #  SIN(LAT) B-1
000072: 13,2434           26541                                    ARCTAN
000073: 13,2435           15104                           STODL    LAT                                   #  LAT B0
000074: 13,2436           02152                                    ALPHAV
000075: 13,2437           14021                           STODL    COSTH                                 #  COS(LONG) B-1
000076: 13,2440           02154                                    ALPHAV     +2
000077: 13,2441           34023                           STCALL   SINTH                                 #  SIN(LONG) B-1
000078: 13,2442           26541                                    ARCTAN
000079: 13,2443           15106                           STODL    LONG                                  #  LONG. REVS B-0 IN RANGE -1/2 TO 1/2
000080: 13,2444           02310                                    ALPHAM
000081: 13,2445           77625                           DSU                                            #  ALT= R-RE METERS B-29
000082: 13,2446           02241                                    ERADM
000083: 13,2447           35110                           STCALL   ALT                                   #  EXIT WITH ALT METERS B-29
000084: 13,2450           02242                                    INCORPEX
000085:                                                                                                  #  SUBROUTINE TO CONVERT LAT,LONG,ALT AT GIVEN TIME TO RADIUS VECTOR
000086:
000087:                                                                                                  #  CALLING SEQUENCE
000088:                                                                                                  #        L-1     CALL
000089:                                                                                                  #        L               LALOTORV
000090:
000091:                                                                                                  #  SUBROUTINES USED
000092:                                                                                                  #        SETGAMMA, SETRE, RP-TO-R
000093:
000094:                                                                                                  #  ERASABLE INIT. REQ.
000095:                                                                                                  #        AXO, AYO, AZO, TEPHEM SET AT LAUNCH TIME
000096:                                                                                                  #        LAT -- LATITUDE         (REVS B0)
000097:                                                                                                  #        LONG -- LONGITUDE       (REVS B0)
000098:                                                                                                  #        ALT -- ALTITUDE         (METERS) B-29
000099:                                                                                                  #        MPAC -- TIME            (CSECS B-28)
000100:                                                                                                  #        ERADFLAG =1 TO COMPUTE EARTH RADIUS, =0 FOR FIXED EARTH RADIUS
000101:                                                                                                  #        LUNAFLAG=0 FOR EARTH, 1 FOR MOON
000102:
000103:                                                                                                  #  OUTPUT
000104:                                                                                                  #        R-VECTOR IN ALPHAV      (METERS B-29)
000105:
000106: 13,2451           40220        LALOTORV           STQ      SETPD                                 #  LAT,LONG,ALT TO R VECTOR
000107: 13,2452           02242                                    INCORPEX
000108: 13,2453           00001                                    0D
000109: 13,2454           34007                           STCALL   6D                                    #      6-7D = TIME FOR RP-TO-R
000110: 13,2455           26601                                    SETGAMMA                              #     GAMMA = B2/A2 FOR EARTH, 1 FOR MOON B-1
000111: 13,2456           73545                           DLOAD    SIN                                   #            COS(LONG)COS(LAT) IN MPAC
000112: 13,2457           01104                                    LAT                                   #  UNIT  RP = SIN(LONG)COS(LAT)    2-3D
000113: 13,2460           65275                           DMPR     PDDL                                  #  PD 2      GAMMA*SIN(LAT)       0-1D
000114: 13,2461           00011                                    GAMRP
000115: 13,2462           01104                                    LAT                                   #      0-1D = GAMMA*SIN(LAT) B-2
000116: 13,2463           65346                           COS      PDDL                                  #  PD4 2-3D= COS(LAT) B-1 TEMPORARILY
000117: 13,2464           01106                                    LONG
000118: 13,2465           57356                           SIN      DMPR                                  #  PD 2
000119: 13,2466           71525                           PDDL     COS                                   #  PD 4 2-3D= SIN(LONG)COS(LAT) B-2
000120: 13,2467           01104                                    LAT
000121: 13,2470           71525                           PDDL     COS                                   #  PD 6 4-5D= COS(LAT) B-1 TEMPORARILY
000122: 13,2471           01106                                    LONG
000123: 13,2472           55475                           DMPR     VDEF                                  #  PD4 MPAC = COS(LONG)COS(LAT) B-2
000124: 13,2473           41456                           UNIT     PUSH                                  #      0-5D = UNIT RP FOR RP-TO-R SUBR.
000125: 13,2474           36152                           STCALL   ALPHAV                                #  ALPHAV +4= SINL FOR SETRE SUBR.
000126: 13,2475           26611                                    SETRE                                 #  RE METERS B-29
000127: 13,2476           43145                           DLOAD    BOFF                                  #  SET MPAC = 0 FOR EARTH, NON-ZERO FOR MOON
000128: 13,2477           11566                                    ZEROVEC
000129: 13,2500           01743                                    LUNAFLAG
000130: 13,2501           26503                                    CALLRPRT
000131: 13,2502           77746                           COS                                            #  USE COS(0) TO GET NON-ZERO IN MPAC
000132: 13,2503           77624        CALLRPRT           CALL
000133: 13,2504           55343                                    RP-TO-R                               #  EXIT WITH UNIT R VECTOR IN MPAC
000134: 13,2505           16152                           STODL    ALPHAV
000135: 13,2506           02241                                    ERADM
000136: 13,2507           74215                           DAD      VXSC                                  #  (RE + ALT)(UNIT R) METERS B-30
000137: 13,2510           01110                                    ALT
000138: 13,2511           02152                                    ALPHAV
000139: 13,2512           77772                           VSL1                                           #  R METERS B-29
000140: 13,2513           36152                           STCALL   ALPHAV                                #  EXIT WITH R IN METERS B-29
000141: 13,2514           02242                                    INCORPEX
000142:
000143:                                                                                                  #  SUBROUTINE TO COMPUTE EARTH RADIUS
000144:
000145:                                                                                                  #  INPUT
000146:                                                                                                  #        1/2 SIN LAT IN ALPHAV +4
000147:
000148:                                                                                                  #  OUTPUT
000149:                                                                                                  #        EARTH RADIUS IN ERADM AND MPAC (METERS B-29)
000150:
000151: 13,2515           63545        GETERAD            DLOAD    DSQ
000152: 13,2516           02156                                    ALPHAV     +4                         #  SIN**2(L)
000153: 13,2517           44352                           SL1      BDSU
000154: 13,2520           11564                                    DP1/2                                 #  COS**2(L)
000155: 13,2521           44275                           DMPR     BDSU
000156: 13,2522           26536                                    EE
000157: 13,2523           11564                                    DP1/2
000158: 13,2524           75465                           BDDV     SQRT
000159: 13,2525           26532                                    B2XSC
000160: 13,2526           77622                           SR4R
000161: 13,2527           02241                           STORE    ERADM
000162: 13,2530           77616                           RVQ
000163:
000164:                                                                                                  #  THE FOLLOWING CONSTANTS WERE COMPUTED WITH A=6378166, B=6356784 METERS
000165:                                                                                                  #  B2XSC = B**2 SCALED B-51
000166:                                                                                                  #  B2/A2 = B**2/A**2 SCALED B-1
000167:                                                                                                  #  EE = (1-B**2/A**2) SCALED B-0
000168:
000169: 13,2531           00446 00305  B2XSC              2DEC     .0179450689                            #  B**2 SCALED B-51
000170:
000171: 13,2533  04,3563               DP1/2              =        XUNIT
000172: 13,2533           17711 05254  B2/A2              2DEC     .9933064884 B-1                        #  GAMMA= B**2/A**2 B-1
000173:
000174: 13,2535           00155 25250  EE                 2DEC     6.6935116  E-3                        #  (1-B**2/A**2) B-0
000175:
000176: 13,2537           00302 17755  ERAD               2DEC     6373338    B-29                       #  PAD RADIUS
000177:
000178:                                                                                                  #  ARCTAN SUBROUTINE
000179:
000180:                                                                                                  #  CALLING SEQUENCE
000181:                                                                                                  #        SIN THETA IN SINTH B-1
000182:                                                                                                  #        COS THETA IN COSTH B-1
000183:                                                                                                  #        CALL ARCTAN
000184:
000185:                                                                                                  #  OUTPUT
000186:                                                                                                  #        ARCTAN THETA IN MPAC AND THETA B-0 IN RANGE -1/2 TO +1/2
000187:
000188: 13,2541           77600        ARCTAN             BOV
000189: 13,2542           26543                                    CLROVFLW
000190: 13,2543           63545        CLROVFLW           DLOAD    DSQ
000191: 13,2544           00023                                    SINTH
000192: 13,2545           63525                           PDDL     DSQ
000193: 13,2546           00021                                    COSTH
000194: 13,2547           77615                           DAD
000195: 13,2550           75454                           BZE      SQRT
000196: 13,2551           26567                                    ARCTANXX                              #  ATAN=0/0  SET THETA=0
000197: 13,2552           40065                           BDDV     BOV
000198: 13,2553           00023                                    SINTH
000199: 13,2554           26574                                    ATAN=90
000200: 13,2555           67542                           SR1      ASIN
000201: 13,2556           00025                           STORE    THETA
000202: 13,2557           50125                           PDDL     BMN
000203: 13,2560           00021                                    COSTH
000204: 13,2561           26563                                    NEGCOS
000205: 13,2562           43545                           DLOAD    RVQ
000206: 13,2563           57545        NEGCOS             DLOAD    DCOMP
000207: 13,2564           43244                           BPL      DAD
000208: 13,2565           26571                                    NEGOUT
000209: 13,2566           11564                                    DP1/2
000210: 13,2567           00025        ARCTANXX           STORE    THETA
000211: 13,2570           77616                           RVQ
000212:
000213: 13,2571           52025        NEGOUT             DSU      GOTO
000214: 13,2572           11564                                    DP1/2
000215: 13,2573           26567                                    ARCTANXX
000216: 13,2574           75345        ATAN=90            DLOAD    SIGN
000217: 13,2575           11612                                    LODP1/4
000218: 13,2576           00023                                    SINTH
000219: 13,2577           00025                           STORE    THETA
000220: 13,2600           77616                           RVQ
000221:
000222: 13,2601  04,3565               2DZERO             =        DPZERO
000223:
000224:                                                                                                  #  ..... SETGAMMA SUBROUTINE .....
000225:                                                                                                  #  SUBROUTINE TO SET GAMMA FOR THE LAT-LONG AND LALOTORV SUBROUTINES
000226:
000227:                                                                                                  #  GAMMA = B**2/A**2 FOR EARTH (B-1)
000228:                                                                                                  #  GAMMA = 1 FOR MOON (B-1)
000229:
000230:                                                                                                  #  CALLING SEQUENCE
000231:                                                                                                  #        L       CALL
000232:                                                                                                  #        L+1             SETGAMMA
000233:
000234:                                                                                                  #  INPUT
000235:                                                                                                  #        LUNAFLAG=0 FOR EARTH, =1 FOR MOON
000236:
000237:                                                                                                  #  OUTPUT
000238:                                                                                                  #        GAMMA IN GAMRP (B-1)
000239:
000240: 13,2601           43145        SETGAMMA           DLOAD    BOFF                                  #  BRANCH FOR EARTH
000241: 13,2602           26534                                    B2/A2                                 #  EARTH GAMMA
000242: 13,2603           01743                                    LUNAFLAG
000243: 13,2604           26607                                    SETGMEX
000244: 13,2605           77735                           SLOAD
000245: 13,2606           11564                                    1B1                                   #  MOON GAMMA
000246: 13,2607           00011        SETGMEX            STORE    GAMRP
000247: 13,2610           77616                           RVQ
000248: 13,2611                        GAMRP              =        8D
000249:
000250:                                                                                                  #  ..... SETRE SUBROUTINE .....
000251:                                                                                                  #  SUBROUTINE TO SET RE (EARTH OR MOON RADIUS)
000252:
000253:                                                                                                  #        RE = RM FOR MOON
000254:                                                                                                  #        RE = RREF FOR FIXED EARTH RADIUS OR COMPUTED RF FOR FISCHER ELLIPSOID
000255:
000256:                                                                                                  #  CALLING SEQUENCE
000257:                                                                                                  #        L       CALL
000258:                                                                                                  #        L+1             SETRE
000259:
000260:                                                                                                  #  SUBROUTINES USED
000261:                                                                                                  #        GETERAD
000262:
000263:                                                                                                  #  INPUT
000264:                                                                                                  #        ERADFLAG = 0 FOR FIXED RE, 1 FOR COMPUTED RE
000265:                                                                                                  #        ALPHAV +4 = 1/2 SINL IF GETERAD IS CALLED
000266:                                                                                                  #        LUNAFLAG = 0 FOR EARTH, =1 FOR MOON
000267:
000268:                                                                                                  #  OUTPUT
000269:                                                                                                  #        ERADM = 504RM FOR MOON (METERS B-29)
000270:                                                                                                  #        ERADM = ERAD OR COMPUTED RF FOR EARTH (METERS B-29)
000271:
000272: 13,2611           71220        SETRE              STQ      DLOAD
000273: 13,2612           00051                                    SETREX
000274: 13,2613           26636                                    504RM
000275: 13,2614           71214                           BON      DLOAD                                 #  BRANCH FOR MOON
000276: 13,2615           01703                                    LUNAFLAG
000277: 13,2616           26626                                    TSTRLSRM
000278: 13,2617           26540                                    ERAD
000279: 13,2620           45014                           BOFF     CALL                                  #  ERADFLAG=0 FOR FIXED RE, 1 FOR COMPUTED
000280: 13,2621           00742                                    ERADFLAG
000281: 13,2622           26624                                    SETRXX
000282: 13,2623           26515                                    GETERAD
000283: 13,2624           36241        SETRXX             STCALL   ERADM                                 #  EXIT WITH RE OR RM METERS B-29
000284: 13,2625           00051                                    SETREX
000285: 13,2626           77214        TSTRLSRM           BON      VLOAD                                 #  ERADFLAG=0, SET R0=RLS
000286: 13,2627           00702                                    ERADFLAG                              #          =1      R0=RM
000287: 13,2630           26624                                    SETRXX
000288: 13,2631           02026                                    RLS
000289: 13,2632           64446                           ABVAL    SR2R                                  #  SCALE FROM B-27 TO B-29
000290: 13,2633           77650                           GOTO
000291: 13,2634           26624                                    SETRXX
000292: 13,2635  0000051               SETREX             =        S2
000293: 13,2635           00065 01265  504RM              2DEC     1738090    B-29                       #  METERS B-29 (MOON RADIUS)
000294:
000295:
000296:
000297:

End of include-file LATITUDE_LONGITUDE_SUBROUTINES.agc.  Parent file is MAIN.agc


