
Source Code


000002:                                                                                                  ## Copyright:   Public domain.
000003:                                                                                                  ## Filename:    LUNAR_AND_SOLAR_EPHEMERIDES_SUBROUTINES.agc
000004:                                                                                                  ## Purpose:     A section of Comanche revision 067.
000005:                                                                                                  ##              It is part of the reconstructed source code for the flight
000006:                                                                                                  ##              software for the Command Module's (CM) Apollo Guidance Computer
000007:                                                                                                  ##              (AGC) for Apollo 12. No original listings of this program are
000008:                                                                                                  ##              available; instead, this file was created via dissassembly of
000009:                                                                                                  ##              dumps of Comanche 067 core rope modules and comparison with
000010:                                                                                                  ##              other AGC programs.
000011:                                                                                                  ## Assembler:   yaYUL
000012:                                                                                                  ## Contact:     Ron Burkey <info@sandroid.org>.
000013:                                                                                                  ## Website:     www.ibiblio.org/apollo/index.html
000014:                                                                                                  ## Mod history: 2023-08-16 MAS  Created from Comanche 055.
000015:
000016:                                                                                                  #  LUNAR AND SOLAR EPHEMERIDES SUBROUTINES
000017:
000018:                                                                                                  #  FUNCTIONAL DESCRIPTION
000019:
000020:                                                                                                  #        THESE SUBROUTINES ARE USED TO DETERMINE THE POSITION AND VELOCITY
000021:                                                                                                  #        VECTORS OF THE SUN AND THE MOON RELATIVE TO THE EARTH AT THE
000022:                                                                                                  #        SPECIFIED GROUND ELAPSED TIME INPUT BY THE USER.
000023:
000024:                                                                                                  #        THE POSITION OF THE MOON IS STORED IN THE COMPUTER IN THE FORM OF
000025:                                                                                                  #        A NINTH DEGREE POLYNOMIAL APPROXIMATION WHICH IS VALID OVER A 15
000026:                                                                                                  #        DAY INTERVAL BEGINNING SHORTLY BEFORE LAUNCH.  THEREFORE THE TIME
000027:                                                                                                  #        INPUT BY THE USER SHOULD FALL WITHIN THIS 15 DAY INTERVAL.
000028:
000029:                                                                                                  #        LSPOS COMPUTES THE POSITION VECTORS OF THE SUN AND THE MOON.
000030:
000031:                                                                                                  #        LUNPOS COMPUTES THE POSITION VECTOR OF THE MOON.
000032:
000033:                                                                                                  #        LUNVEL COMPUTES THE VELOCITY VECTOR OF THE MOON.
000034:
000035:                                                                                                  #        SOLPOS COMPUTES THE POSITION VECTOR OF THE SUN.
000036:
000037:                                                                                                  #  CALLING SEQUENCE
000038:
000039:                                                                                                  #        DLOAD   CALL
000040:                                                                                                  #                TIME            GROUND ELAPSED TIME
000041:                                                                                                  #                SUBROUTINE      LSPOS OR LUNPOS OR LUNVEL OR SOLPOS
000042:
000043:                                                                                                  #  INPUT
000044:
000045:                                                                                                  #        1) SPECIFIED GROUND ELAPSED TIME IN CS X B-28 LOADED IN MPAC.
000046:
000047:                                                                                                  #        2) TIMEMO - TIME AT THE CENTER OF THE RANGE OVER WHICH THE LUNAR
000048:                                                                                                  #        POSITION POLYNOMIAL IS VALID IN CS X B-42.
000049:
000050:                                                                                                  #        3) VECOEM - VECTOR COEFFICIENTS OF THE LUNAR POSITION POLYNOMIAL
000051:                                                                                                  #        LOADED IN DESCENDING SEQUENCE IN METERS/CS**N X B-2
000052:
000053:                                                                                                  #        4) RESO - POSITION VECTOR OF THE SUN RELATIVE TO THE EARTH AT
000054:                                                                                                  #        TIMEMO IN METERS X B-38.
000055:
000056:                                                                                                  #        5) VESO - VELOCITY VECTOR OF THE SUN RELATIVE TO THE EARTH AT
000057:                                                                                                  #        TIMEMO IN METERS/CS X B-9.
000058:                                                                                                  #
000059:                                                                                                  #        6) OMEGAES - ANGULAR VELOCITY OF THE VECTOR RESO AT TIMEMO IN
000060:                                                                                                  #        REV/CS X B+26.
000061:
000062:                                                                                                  #        ALL EXCEPT THE FIRST INPUT ARE INCLUDED IN THE PRE-LAUNCH
000063:                                                                                                  #        ERASABLE DATA LOAD.
000064:
000065:                                                                                                  #  OUTPUT - LSPOS
000066:
000067:                                                                                                  #        1) 2D OF VAC AREA CONTAINS THE POSITION VECTOR OF THE SUN RELATIVE
000068:                                                                                                  #        TO THE EARTH AT TIME INPUT BY THE USER IN METERS X B-38.
000069:
000070:                                                                                                  #        2) MPAC CONTAINS THE POSITION VECTOR OF THE MOON RELATIVE TO THE
000071:                                                                                                  #        EARTH AT TIME INPUT BY THE USER IN METERS X B-29.
000072:
000073:                                                                                                  #  OUTPUT - LUNPOS
000074:
000075:                                                                                                  #        MPAC CONTAINS THE POSITION VECTOR OF THE MOON RELATIVE TO THE
000076:                                                                                                  #        EARTH AT THE TIME INPUT BY USER IN METERS X B-29.
000077:
000078:                                                                                                  #  OUTPUT - LUNVEL
000079:
000080:                                                                                                  #        MPAC CONTAINS THE VELOCITY VECTOR OF THE MOON RELATIVE TO THE
000081:                                                                                                  #        EARTH AT TIME INPUT BY THE USER IN METERS/CS X B-7.
000082:
000083:                                                                                                  #  OUTPUT - SOLPOS
000084:
000085:                                                                                                  #        MPAC CONTAINS THE POSITION VECTOR OF THE SUN RELATIVE TO THE EARTH
000086:                                                                                                  #        AT TIME INPUT BY THE USER IN METERS X B-38.
000087:
000088:                                                                                                  #  SUBROUTINES USED
000089:
000090:                                                                                                  #        NONE
000091:
000092:                                                                                                  #  REMARKS
000093:
000094:                                                                                                  #        THE VAC AREA IS USED FOR STORAGE OF INTERMEDIATE AND FINAL RESULTS
000095:                                                                                                  #        OF COMPUTATIONS.
000096:
000097:                                                                                                  #        S1, X1 AND X2 ARE USED BY THESE SUBROUTINES.
000098:
000099:                                                                                                  #        PRELAUNCH ERASABLE DATA LOAD ARE ONLY ERASABLE STORAGE USED BY
000100:                                                                                                  #        THESE SUBROUTINES.
000101:
000102:                                                                                                  #        RESTARTS DURING OPERATION OF THESE SUBROUTINES MUST BE HANDLED BY
000103:                                                                                                  #        THE USER.
000104:
000105: 36,2466                                           BANK     36
000106: 26,2000                                           SETLOC   EPHEM
000107: 26,2000                                           BANK
000108:
000109: 26,2110                                           COUNT*   $$/EPHEM
000110: 26,2110  E7,1777                                  EBANK=   END-E7
000111: 26,2110           77774        LSPOS              AXT,2                                          #  COMPUTES POSITION VECTORS OF BOTH THE
000112: 26,2111           54161                                    RESA                                  #  SUN AND THE MOON.  THE POSITION VECTOR
000113: 26,2112           52170                           AXT,1    GOTO                                  #  OF THE SUN IS STORED IN 2D OF THE VAC
000114: 26,2113           54143                                    RES                                   #  AREA.  THE POSITION VECTOR OF THE MOON
000115: 26,2114           54126                                    LSTIME                                #  IS STORED IN MPAC.
000116: 26,2115           52170        LUNPOS             AXT,1    GOTO                                  #  COMPUTES THE POSITION VECTOR OF THE MOON
000117: 26,2116           54162                                    REM                                   #  AND STORES IT IN MPAC.
000118: 26,2117           54126                                    LSTIME
000119: 26,2120           52170        LUNVEL             AXT,1    GOTO                                  #  COMPUTES THE VELOCITY VECTOR OF THE MOON
000120: 26,2121           54173                                    VEM                                   #  AND STORES IT IN MPAC.
000121: 26,2122           54126                                    LSTIME
000122: 26,2123           76020        SOLPOS             STQ      AXT,1                                 #  COMPUTES THE POSITION VECTOR OF THE SUN
000123: 26,2124           00047                                    X2                                    #  AND STORES IT IN MPAC.
000124: 26,2125           54143                                    RES
000125: 26,2126           54201        LSTIME             SETPD    SR
000126: 26,2127           00001                                    0D
000127: 26,2130           20617                                    14D
000128: 26,2131           57571                           TAD      DCOMP
000129: 26,2132           01707                                    TEPHEM
000130: 26,2133           57571                           TAD      DCOMP
000131: 26,2134           02034                                    TIMEMO
000132: 26,2135           66261                           SL       SSP
000133: 26,2136           20221                                    16D
000134: 26,2137           00051                                    S1
000135: 26,2140           00006                                    6D
000136: 26,2141           77650                           GOTO
000137: 26,2142           00046                                    X1
000138: 26,2143           41206        RES                PUSH     DMP                                   #                                        PD- 2
000139: 26,2144           02147                                    OMEGAES
000140: 26,2145           71406                           PUSH     COS                                   #                                        PD- 4
000141: 26,2146           65361                           VXSC     PDDL                                  #                                        PD- 8
000142: 26,2147           02133                                    RESO
000143: 26,2150           63356                           SIN      PDVL                                  #                                        PD-10
000144: 26,2151           02133                                    RESO
000145: 26,2152           53406                           PUSH     UNIT                                  #                                        PD-16
000146: 26,2153           53435                           VXV      UNIT
000147: 26,2154           02141                                    VESO
000148: 26,2155           76435                           VXV      VSL1                                  #                                        PD-10
000149: 26,2156           53361                           VXSC     VAD                                   #                                        PD-02
000150: 26,2157           52172                           VSL1     GOTO                                  #  RES IN METERS X B-38 IN MPAC.
000151: 26,2160           00047                                    X2
000152: 26,2161           14003        RESA               STODL    2D                                    #  RES IN METERS X B-38 IN 2D OF VAC.    PD- 0
000153: 26,2162           63370        REM                AXT,1    PDVL                                  #                                        PD- 2
000154: 26,2163           00066                                    54D
000155: 26,2164           02037                                    VECOEM
000156: 26,2165           52761        REMA               VXSC     VAD*
000157: 26,2166           00001                                    0D
000158: 26,2167           02133                                    VECOEM     +60D,1
000159: 26,2170           72500                           TIX,1    VSL2                                  #  REM IN METERS X B-29 IN MPAC.
000160: 26,2171           54165                                    REMA
000161: 26,2172           77616                           RVQ
000162: 26,2173           65370        VEM                AXT,1    PDDL                                  #                                        PD- 2
000163: 26,2174           00060                                    48D
000164: 26,2175           14214                                    NINEB4
000165: 26,2176           74206                           PUSH     VXSC                                  #                                        PD- 4
000166: 26,2177           02037                                    VECOEM
000167: 26,2200           77761        VEMA               VXSC
000168: 26,2201           00001                                    0D
000169: 26,2202           14005                           STODL    4D                                    #                                        PD- 2
000170: 26,2203           41425                           DSU      PUSH                                  #                                        PD- 4
000171: 26,2204           14216                                    ONEB4
000172: 26,2205           53357                           VXSC*    VAD
000173: 26,2206           02125                                    VECOEM     +54D,1
000174: 26,2207           00005                                    4D
000175: 26,2210           72500                           TIX,1    VSL2                                  #  VEM IN METERS/CS X B-7 IN MPAC.
000176: 26,2211           54200                                    VEMA
000177: 26,2212           77616                           RVQ
000178: 26,2213           22000 00000  NINEB4             2DEC     9.0        B-4
000179:
000180: 26,2215           02000 00000  ONEB4              2DEC     1.0        B-4
000181:
000182:
000183:

End of include-file LUNAR_AND_SOLAR_EPHEMERIDES_SUBROUTINES.agc.  Parent file is MAIN.agc


