
Source Code


000002:                                                                                                  ## Copyright:   Public domain.
000003:                                                                                                  ## Filename:    MYSUBS.agc
000004:                                                                                                  ## Purpose:     A section of Comanche revision 067.
000005:                                                                                                  ##              It is part of the reconstructed source code for the flight
000006:                                                                                                  ##              software for the Command Module's (CM) Apollo Guidance Computer
000007:                                                                                                  ##              (AGC) for Apollo 12. No original listings of this program are
000008:                                                                                                  ##              available; instead, this file was created via dissassembly of
000009:                                                                                                  ##              dumps of Comanche 067 core rope modules and comparison with
000010:                                                                                                  ##              other AGC programs.
000011:                                                                                                  ## Assembler:   yaYUL
000012:                                                                                                  ## Contact:     Ron Burkey <info@sandroid.org>.
000013:                                                                                                  ## Website:     www.ibiblio.org/apollo/index.html
000014:                                                                                                  ## Mod history: 2023-08-16 MAS  Created from Comanche 055.
000015:
000016: 20,3651                                           BANK     20
000017: 21,2000                                           SETLOC   MYSUBS
000018: 21,2000                                           BANK
000019:
000020: 21,2054  E6,1510                                  EBANK=   KMPAC
000021: 21,2054     5110               SPCOS1             EQUALS   SPCOS
000022: 21,2054     5111               SPSIN1             EQUALS   SPSIN
000023: 21,2054     5110               SPCOS2             EQUALS   SPCOS
000024: 21,2054     5111               SPSIN2             EQUALS   SPSIN
000025:
000026: 21,2054                                           COUNT    21/DAPMS
000027:
000028:                                                                                                  #  ONE AND ONE HALF PRECISION MULTIPLICATION ROUTINE
000029:
000030: 21,2054           55512        SMALLMP            TS       KMPTEMP                               #  A(X+Y)
000031: 21,2055           00006                           EXTEND
000032: 21,2056           71511                           MP       KMPAC      +1
000033: 21,2057           55511                           TS       KMPAC      +1                         #  AY
000034: 21,2060           35035                           CAF      ZERO
000035: 21,2061           57510                           XCH      KMPAC
000036: 21,2062           00006                           EXTEND
000037: 21,2063           71512                           MP       KMPTEMP                               #  AX
000038: 21,2064           21511                           DAS      KMPAC                                 #  AX+AY
000039: 21,2065           00002                           TC       Q
000040:
000041:                                                                                                  #  SUBROUTINE FOR DOUBLE PRECISION ADDITIONS OF ANGLES
000042:                                                                                                  #  A AND L CONTAIN A DP(1S) ANGLE SCALED BY 180 DEGS TO BE ADDED TO KMPAC.
000043:                                                                                                  #  RESULT IS PLACED IN KMPAC.  TIMING = 6 MCT (22 MCT ON OVERFLOW)
000044:
000045: 21,2066           21511        DPADD              DAS      KMPAC
000046: 21,2067           00006                           EXTEND
000047: 21,2070           12105                           BZF      TSK        +1                         #  NO OVERFLOW
000048: 21,2071           11510                           CCS      KMPAC
000049: 21,2072           12106                           TCF      DPADD+                                #  + OVERFLOW
000050: 21,2073           12075                           TCF      +2
000051: 21,2074           12110                           TCF      DPADD-                                #  - OVERFLOW
000052: 21,2075           11511                           CCS      KMPAC      +1
000053: 21,2076           12113                           TCF      DPADD2+                               #  UPPER = 0, LOWER +
000054: 21,2077           12101                           TCF      +2
000055: 21,2100           40000                           COM                                            #  UPPER = 0, LOWER -
000056: 21,2101           65013                           AD       POSMAX                                #  LOWER = 0, A = 0
000057: 21,2102           55511                           TS       KMPAC      +1                         #  CAN NOT OVERFLOW
000058: 21,2103           35013                           CA       POSMAX                                #  UPPER WAS = 0
000059: 21,2104           55510        TSK                TS       KMPAC
000060: 21,2105           00002                           TC       Q
000061:
000062: 21,2106           65015        DPADD+             AD       NEGMAX                                #  KMPAC GREATER THAN 0
000063: 21,2107           12104                           TCF      TSK
000064:
000065: 21,2110           40000        DPADD-             COM
000066: 21,2111           65013                           AD       POSMAX                                #  KMPAC LESS THAN 0
000067: 21,2112           12104                           TCF      TSK
000068:
000069: 21,2113           65015        DPADD2+            AD       NEGMAX                                #  CAN NOT OVERFLOW
000070: 21,2114           55511                           TS       KMPAC      +1
000071: 21,2115           35015                           CA       NEGMAX                                #  UPPER WAS = 0
000072: 21,2116           12104                           TCF      TSK

End of include-file MYSUBS.agc.  Parent file is MAIN.agc


