
Source Code


000002:                                                                                                  ## Copyright:   Public domain.
000003:                                                                                                  ## Filename:    P11.agc
000004:                                                                                                  ## Purpose:     A section of Comanche revision 067.
000005:                                                                                                  ##              It is part of the reconstructed source code for the flight
000006:                                                                                                  ##              software for the Command Module's (CM) Apollo Guidance Computer
000007:                                                                                                  ##              (AGC) for Apollo 12. No original listings of this program are
000008:                                                                                                  ##              available; instead, this file was created via dissassembly of
000009:                                                                                                  ##              dumps of Comanche 067 core rope modules and comparison with
000010:                                                                                                  ##              other AGC programs.
000011:                                                                                                  ## Assembler:   yaYUL
000012:                                                                                                  ## Contact:     Ron Burkey <info@sandroid.org>.
000013:                                                                                                  ## Website:     www.ibiblio.org/apollo/index.html
000014:                                                                                                  ## Mod history: 2023-08-16 MAS  Created from Comanche 055.
000015:
000016:
000017:                                                                                                  #  EARTH ORBIT INSERTION MONITOR PROGRAM
000018:                                                                                                  #  *************************************
000019:
000020:                                                                                                  #  PROGRAM DESCRIPTION -P11-
000021:
000022:                                                                                                  #        MOD NO. 1
000023:                                                                                                  #        MOD BY ELIASSEN
000024:
000025:                                                                                                  #  FUNCTIONAL DESCRIPTION
000026:
000027:                                                                                                  #        P11 IS INITIATED BY
000028:
000029:                                                                                                  #                A) GYROCOMPASS PRG P02 WHEN LIFTOFF DISCRETE IS RECEIVED OR
000030:                                                                                                  #                B) BACKUP THRU VERB 75 ENTER
000031:
000032:                                                                                                  #        PROGRAM WILL
000033:                                                                                                  #                1. ZERO CMC CLOCK AT LIFTOFF (OR UPON RECEIPT OF BACKUP)
000034:                                                                                                  #                2. UPDATE TEPHEM TO TIME CMC CLOCK WAS ZEROED
000035:                                                                                                  #                3. INITIATE SERVICER AT PREREAD1
000036:                                                                                                  #                4. CHANGE MAJOR MODE TO 11
000037:                                                                                                  #                5. CLEAR DSKY IN CASE OF V 75
000038:                                                                                                  #                6. STORE LIFTOFF IMU-CDU ANGLES FOR ATT. ERROR DISPLAY
000039:                                                                                                  #                7. TERMINATE GYROCOMPASSING     -   -
000040:                                                                                                  #                8. COMPUTE INITIAL VECTORS      RN, VN            -  -  -
000041:                                                                                                  #                9. COMPUTE REFSMMAT FOR PRELAUNCH ALIGNMENT WHERE U ,U ,U  ARE
000042:                                                                                                  #                        -        -                                 X  Y  Z
000043:                                                                                                  #                        U =UNIT(-R)     LOCAL VERTICAL AT TIME OF LIFTOFF
000044:                                                                                                  #                         Z
000045:                                                                                                  #                        -       -       -
000046:                                                                                                  #                        U =UNIT(A),     A=HOR VECTOR AT LAUNCH AZIMUTH
000047:                                                                                                  #                         X
000048:                                                                                                  #                        -  -   -
000049:                                                                                                  #                        U =U * U
000050:                                                                                                  #                         U  Z   X
000051:                                                                                                  #                10. SET REFSMMAT KNOWN FLAG
000052:                                                                                                  #                11. SET AVGEXIT IN SERVICER TO VHHDOT TO
000053:                                                                                                  #                    COMPUTE AND DISPLAY NOUN 62 EVERY 2 SECONDS
000054:
000055:                                                                                                  #                        R1      V1   - INTERTIAL VELOCITY MAGNITUDE IN FPS
000056:                                                                                                  #                        R2      HDOT - RATE OF CHANGE OF VEHICLE VEL IN FPS
000057:                                                                                                  #                        R3      H    - VEHICLE ALTITUDE ABOVE PAD IN NM
000058:                                                                                                  #
000059:                                                                                                  #                12. DISPLAY BODY AXES ATT. ERRORS ON FDAI NEEDLES
000060:
000061:                                                                                                  #                        A) FROM L.O. TO RPSTART (APPROX. 0 TO +10SECS AFTER L.O.)
000062:                                                                                                  #                           DESIRED ATTITUDE IS AS STORED AT L.O.
000063:                                                                                                  #                        B) FROM RPSTART TO POLYSTOP (APPROX. +10 TO +133SECS AFTER LO)
000064:                                                                                                  #                           DESIRED ATTITUDE IS SPECIFIED BY CMC PITCH AND ROLL
000065:                                                                                                  #                           POLYNOMIALS DURING SATURN ROLLOUT AND PITCHOVER
000066:                                                                                                  #                           THE DISPLAY IS RUN AS LOW PRIORITY JOB APPROX.
000067:                                                                                                  #                           EVERY 1/2 SEC OR LESS AND IS DISABLED UPON OVFLO OF TIME1
000068:
000069:                                                                                                  #  SUBROUTINES CALLED
000070:
000071:                                                                                                  #        2PHSCHNG        BANKCALL        CALCGRA         CDUTRIG         CLEANDSP        DANZIG
000072:                                                                                                  #        DELAYJOB        EARTHR          ENDOFJOB        FINDVAC         IBNKCALL
000073:                                                                                                  #        INTPRET         LALOTORV        NEEDLER         NEWMODEX        PHASCHNG
000074:                                                                                                  #        POSTJUMP        POWRSERS        PREREAD1        REGODSPR        S11.1
000075:                                                                                                  #        SERVEXIT        TASKOVER        TCDANZIG        V1ST02S         WAITLIST
000076:
000077:                                                                                                  #  ASTRONAUT REQUESTS (IF ALTITUDE ABOVE 300,000 FT)
000078:
000079:                                                                                                  #        DSKY -
000080:                                                                                                  #                MONITOR DISPLAY OF TIME TO PERIGEE R1 HOURS
000081:                                                                                                  #                                                   R2 MINUTES
000082:
000083:                                                                                                  #        DSKY -
000084:                                                                                                  #                MONITOR DISPLAY OF R1 APOGEE ALTITUDE IN NAUTICAL MILES
000085:                                                                                                  #                                   R2 PERIGEE ALTITUDE IN NAUTICAL MILES
000086:                                                                                                  #                                   R3 TFF IN MINUTES/SECS
000087:
000088:                                                                                                  #        IF ASTRONAUT HAS REQUESTED ANY OF THESE DISPLAYS HE MUST
000089:                                                                                                  #  HIT PROCEED TO RETURN TO NORMAL NOUN 62 DISPLAY
000090:                                                                                                  #  NORMAL EXIT MODE
000091:
000092:                                                                                                  #        ASTRONAUT       VERB 37 ENTER 00 ENTER
000093:
000094:                                                                                                  #  ALARM MODES - NONE
000095:
000096:                                                                                                  #  ABORT EXIT MODES -
000097:
000098:                                                                                                  #  OUTPUT
000099:
000100:                                                                                                  #        TLIFTOFF (DP)   TEPHEM (TP)
000101:                                                                                                  #        REFSMMAT
000102:                                                                                                  #        DSKY DISPLAY
000103:                                                                                                  #        FDAI DISPLAY
000104:
000105:                                                                                                  #  ERASABLE INITIALIZATION
000106:
000107:                                                                                                  #        AZO, AXO, -AYO
000108:                                                                                                  #        LATITUDE
000109:                                                                                                  #        PADLONG
000110:                                                                                                  #        TEPHEM
000111:                                                                                                  #        PGNCSALT
000112:                                                                                                  #        POLYNUM THRU POLYNUM +14D)
000113:                                                                                                  #        RPSTART
000114:                                                                                                  #        POLYSTOP
000115:                                                                                                  #  FLAGS SET OR RESET
000116:                                                                                                  #        SET REFSMFLG
000117:                                                                                                  #        SET DVMON IDLE FLAG
000118:                                                                                                  #        CLEAR ERADFLAG
000119:
000120:                                                                                                  #  DEBRIS
000121:
000122:                                                                                                  #        LIFTTEMP
000123:                                                                                                  #        POLYNUM THRU POLYNUM +7
000124:                                                                                                  #        SPOLYARG
000125:                                                                                                  #        BODY1, BODY2, BODY3
000126:                                                                                                  #        VMAG2, ALTI, HDOT
000127:                                                                                                  #        CENTRALS, CORE SET AND VAC AREAS
000128:
000129: 04,3303                                           COUNT    34/P11
000130:
000131: 04,3303     5051               BITS5-6            =        SUPER011
000132: 42,3606                                           BANK     42
000133: 34,2000                                           SETLOC   P11ONE
000134: 34,2000                                           BANK
000135:
000136: 34,2002  E3,1706                                  EBANK=   TEPHEM
000137: 34,2002           35065        P11                CA       EBANK3
000138: 34,2003           54003                           TS       EBANK
000139:
000140: 34,2004           00006                           EXTEND
000141: 34,2005           32277                           DCA      REP11S                                #  DIRECT RESTARTS TO REP11
000142: 34,2006           52757                           DXCH     -PHASE3
000143: 34,2007           45035                           CS       ZERO
000144: 34,2010           22007                           ZL
000145: 34,2011           55265                           TS       LIFTTEMP
000146: 34,2012           52763                           DXCH     -PHASE5                               #  INACTIVE GROUP 5, PRELAUNCH PROTECTION
000147: 34,2013           00006        P11+7              EXTEND
000148: 34,2014           32301                           DCA      REP11SA
000149: 34,2015           53337                           DXCH     TLIFTOFF
000150:
000151: 34,2016           00006                           EXTEND
000152: 34,2017           30025                           DCA      TIME2
000153: 34,2020           53266                           DXCH     LIFTTEMP                              #  FOR RESTARTS
000154:
000155: 34,2021           35035                           CA       ZERO
000156: 34,2022           22007                           ZL
000157: 34,2023           52025                           DXCH     TIME2
000158: 34,2024           53337        REP11A-2           DXCH     TLIFTOFF
000159: 34,2025           52757        REP11A-1           DXCH     -PHASE3                               #  RESET PHASE
000160:
000161: 34,2026           00004        REP11A             INHINT
000162: 34,2027           00006                           EXTEND
000163: 34,2030           31710                           DCA      TEPHEM     +1
000164: 34,2031           53271                           DXCH     TEPHEM1    +1
000165: 34,2032           31706                           CA       TEPHEM
000166: 34,2033           57267                           XCH      TEPHEM1
000167:
000168: 34,2034           00006                           EXTEND
000169: 34,2035           31337                           DCA      TLIFTOFF
000170: 34,2036           21271                           DAS      TEPHEM1    +1
000171: 34,2037           27267                           ADS      TEPHEM1                               #  CORRECTOFOR OVERFLOW
000172:
000173: 34,2040           05426                           TC       PHASCHNG
000174: 34,2041           05023                           OCT      05023
000175: 34,2042           22000                           OCT      22000
000176:
000177: 34,2043           00004                           INHINT
000178: 34,2044           00006                           EXTEND
000179: 34,2045           31270                           DCA      TEPHEM1
000180: 34,2046           53707                           DXCH     TEPHEM
000181: 34,2047           31271                           CA       TEPHEM1    +2
000182: 34,2050           57710                           XCH      TEPHEM     +2
000183:
000184: 34,2051           32000                           CAF      EBDVCNT
000185: 34,2052           54003                           TS       EBANK
000186: 34,2053  E7,1431                                  EBANK=   DVCNTR
000187: 34,2053           04754                           TC       IBNKCALL
000188: 34,2054           76735                           CADR     PREREAD1                              #  ZERO PIPS AND INITIALIZE AVERAGEG
000189:
000190: 34,2055           05426                           TC       PHASCHNG
000191: 34,2056           05023                           OCT      05023                                 #  CONTINUE HERE ON RESTART
000192: 34,2057           22000                           OCT      22000
000193:
000194: 34,2060           35052                           CAF      .5SEC                                 #  START ATT ERROR DISPLAY
000195: 34,2061           05261                           TC       WAITLIST                              #  IN .5 SEC
000196: 34,2062  E6,1704                                  EBANK=   BODY3
000197: 34,2062           02320 70066                     2CADR    ATERTASK
000198:
000199: 34,2064           05370                           TC       NEWMODEX                              #  DISPLAY MM 11
000200: 34,2065           00013                           MM       11         B-14
000201:
000202: 34,2066           05562                           TC       UPFLAG
000203: 34,2067           00022                           ADRES    NODOP01
000204:
000205: 34,2070           36214                           CA       POWDNCOD                              #  SWITCH TO POWERED FLIGHT DOWNLIST
000206: 34,2071           54332                           TS       DNLSTCOD
000207:
000208: 34,2072           04676                           TC       BANKCALL
000209: 34,2073           20703                           CADR     CLEANDSP                              #  CLEAR DSKY IN CASE OF V75
000210:
000211: 34,2074           05406                           TC       2PHSCHNG
000212: 34,2075           40514                           OCT      40514                                 #  PROTECT ATERTASK
000213: 34,2076           00073                           OCT      00073
000214: 34,2077           32001                           CAF      EBQPLACE
000215: 34,2100           54003                           TS       EBANK
000216:
000217: 34,2101  E5,1426                                  EBANK=   QPLACES
000218: 34,2101           32302                           CA       P11XIT                                #  SET EXIT FROM PROUT IN EARTHR
000219: 34,2102           55426                           TS       QPLACES
000220: 34,2103           06006                           TC       INTPRET
000221: 34,2104           64375                           VLOAD    MXV
000222: 34,2105           02467                                    THETAN
000223: 34,2106           02672                                    XSM
000224: 34,2107           53372                           VSL1     VAD
000225: 34,2110           02650                                    ERCOMP
000226: 34,2111           16650                           STODL    ERCOMP
000227: 34,2112           01337                                    TLIFTOFF
000228: 34,2113           52131                           SSP      GOTO
000229: 34,2114           00052                                    S2
000230: 34,2115           66424                           CADR     PROUT                                 #  RETURN FROM EARTHR
000231: 34,2116           66373                                    EARTHR     +3
000232: 34,2117           22007        MATRXJOB           ZL                                             #  STORE DP GIMBAL ANGLES FOR ATTITUDE
000233: 34,2120           30032                           CA       CDUX                                  #        ERROR DISPLAY AFTER LIFTOFF
000234: 34,2121           53760                           DXCH     OGC
000235: 34,2122           22007                           ZL
000236: 34,2123           30033                           CA       CDUY
000237: 34,2124           53762                           DXCH     IGC
000238: 34,2125           22007                           ZL
000239: 34,2126           30034                           CA       CDUZ
000240: 34,2127           53764                           DXCH     MGC
000241: 34,2130           06006                           TC       INTPRET                               #        -
000242: 34,2131           74575                           VLOAD    VSR1                                  #  SCALE OGC B-1
000243: 34,2132           02760                                    OGC
000244: 34,2133           02760                           STORE    OGC
000245: 34,2134           77731                           SSP                                            #  ZERO RTX2
000246: 34,2135           03747                                    RTX2                                  #  FOR
000247: 34,2136           00000                                    0                                     #  EARTH
000248: 34,2137           65345                           DLOAD    PDDL
000249: 34,2140           01273                                    PGNCSALT                              #  ALTITUDE OF PGNCS
000250: 34,2141           01264                                    PADLONG                               #  LONGITUDE
000251: 34,2142           55525                           PDDL     VDEF
000252: 34,2143           02403                                    LATITUDE                              #  GEODETIC LATITUDE
000253: 34,2144           15104                           STODL    LAT                                   #  LAT,LONG,ALT ARE CONSECUTIVE
000254: 34,2145           15334                                    HI6ZEROS                              #  TIME = 0
000255: 34,2146           45014                           CLEAR    CALL
000256: 34,2147           00662                                    ERADFLAG
000257: 34,2150           26451                                    LALOTORV                              #  CONVERT TO POSITION VECTOR IN REF.COORDS
000258:
000259: 34,2151           35232                           STCALL   RN1                                   #               -
000260: 34,2152           70334                                    GETDOWN                               #  RETURN WITH VECTOR FOR DOWN DIRECTION
000261: 34,2153           53476                           VCOMP    UNIT
000262: 34,2154           25752                           STOVL    REFSMMAT   +12D                       #  UNITZ = UNIT(GRAV)
000263: 34,2155           01232                                    RN1
000264: 34,2156           74235                           VXV      VXSC
000265: 34,2157           01714                                    UNITW                                 #  SCALED AT 1
000266: 34,2160           30304                                    -ERTHRAT                              #  V = EARTHRATE X R
000267: 34,2161           77712                           VSL4                                           #  SCALE TO 2(7) M/CS
000268: 34,2162           25240                           STOVL    VN1
000269: 34,2163           01752                                    REFSMMAT   +12D
000270: 34,2164           53435                           VXV      UNIT
000271: 34,2165           01714                                    UNITW                                 #  (REF3 X UNITW) = EAST
000272: 34,2166           47206                           PUSH     VXV
000273: 34,2167           01752                                    REFSMMAT   +12D                       #  (EAST X REF3) = -SOUTH
000274: 34,2170           65256                           UNIT     PDDL
000275: 34,2171           02634                                    LAUNCHAZ                              #  COS(AZ)*SOUTH
000276: 34,2172           74346                           COS      VXSC
000277: 34,2173           77626                           STADR
000278: 34,2174           62041                           STODL    REFSMMAT                              #  TEMPORARY STORAGE
000279: 34,2175           02634                                    LAUNCHAZ
000280: 34,2176           74356                           SIN      VXSC                                  #  SIN(AZ)*EAST
000281: 34,2177           53455                           VAD      UNIT                                  #  SIN(AZ)*EAST - COS(AZ)*SOUTH = REF1
000282: 34,2200           01736                                    REFSMMAT
000283: 34,2201           01736                           STORE    REFSMMAT
000284:
000285: 34,2202           53435                           VXV      UNIT                                  #  (REF1 X REF3) = -REF3
000286: 34,2203           01752                                    REFSMMAT   +12D
000287: 34,2204           77676                           VCOMP
000288: 34,2205           01744                           STORE    REFSMMAT   +6
000289: 34,2206           45345                           DLOAD    DSU
000290: 34,2207           15332                                    DPHALF                                #  1/2 REV
000291: 34,2210           02634                                    LAUNCHAZ
000292: 34,2211           65215                           DAD      PDDL
000293:
000294: 34,2212           02401                                    AZIMUTH
000295: 34,2213           03301                                    SATRLRT                               #  SET SATRLRT = -SATRLRT IF
000296: 34,2214           45565                           SIGN     STADR                                 #  (1/2REV -LAVNCHAZ +AZIMUTH) IS NEGATIVE
000297: 34,2215           74476                           STORE    SATRLRT                               #  FOR ROLL CALC IN FDAI ATT. ERROR DISPLAY
000298: 34,2216           77414                           SET      EXIT
000299: 34,2217           01462                                    REFSMFLG                              #  SET REFSMMAT KNOWN FLAG
000300:
000301: 34,2220           05426                           TC       PHASCHNG
000302: 34,2221           04023                           OCT      04023
000303:
000304: 34,2222           00006                           EXTEND
000305: 34,2223           32306                           DCA      P11SCADR
000306: 34,2224           53223                           DXCH     AVGEXIT                               #  SET AVGEXIT
000307:
000308: 34,2225           37665                           CA       PRIO31                                #  2 SECONDS AT 2(+8)
000309: 34,2226           55074                           TS       1/PIPADT
000310:
000311: 34,2227  E6,1501                                  EBANK=   RCSFLAGS
000312: 34,2227           35073                           CA       EBANK6
000313: 34,2230           54003                           TS       EBANK
000314:
000315: 34,2231           00004                           INHINT
000316: 34,2232           45035                           CS       ZERO
000317: 34,2233           55063                           TS       TBASE5                                #  RESTART READACCS 2 SECONDS AFTER LIFTOFF
000318:
000319: 34,2234           40025                           CS       TIME1
000320: 34,2235           65056                           AD       2SECS                                 #  DO READACCS 2 SECONDS AFTER LIFTOFF
000321:
000322: 34,2236           10000                           CCS      A                                     #  CHECK TO INSURE DT IS POSITIVE
000323: 34,2237           12242                           TCF      +3                                    #  TIME POSITIVE
000324: 34,2240           12242                           TCF      +2                                    #  CANNOT GET HERE
000325: 34,2241           35035                           CA       ZERO                                  #  TIME NEGATIVE - SET TO 1
000326: 34,2242           65033                           AD       ONE                                   #  RESTORE TIME  -  OR MAKE POSITIVE
000327:
000328: 34,2243           05261                           TC       WAITLIST
000329: 34,2244  E6,1661                                  EBANK=   AOG
000330: 34,2244           02757 76066                     2CADR    READACCS
000331:
000332: 34,2246           05406                           TC       2PHSCHNG
000333: 34,2247           00003                           OCT      00003                                 #  TURN OFF GROUP 3
000334: 34,2250           00025                           OCT      00025                                 #  PROTECT NORMLIZE AND READACCS
000335:
000336: 34,2251           04715                           TC       POSTJUMP
000337: 34,2252           77240                           CADR     NORMLIZE                              #  DO NORMLIZE AND ENDOFJOB
000338:
000339:
000340: 34,2253  E3,1706                                  EBANK=   TEPHEM
000341: 34,2253           00004        REP11              INHINT
000342: 34,2254           10763                           CCS      PHASE5
000343: 34,2255           05233                           TC       ENDOFJOB
000344:
000345: 34,2256           11265                           CCS      LIFTTEMP
000346: 34,2257           12263                           TCF      +4
000347: 34,2260           12263                           TCF      +3
000348: 34,2261           12263                           TCF      +2
000349: 34,2262           12013                           TCF      P11+7
000350:
000351: 34,2263           41336                           CS       TLIFTOFF
000352: 34,2264           00006                           EXTEND
000353: 34,2265           62273                           BZMF     ENDREP11
000354:
000355: 34,2266           10024                           CCS      TIME2                                 #  ** TIME2 MUST BE NON-ZERO AT LIFTOFF **
000356: 34,2267           12021                           TCF      REP11A     -5                         #  T2,T1 NOT YET ZEROED, GO AND DO IT
000357:
000358: 34,2270           00006                           EXTEND                                         #  T2,T1 ZEROED, SET TLIFTOFF
000359: 34,2271           31266                           DCA      LIFTTEMP
000360: 34,2272           12024                           TCF      REP11A-2
000361:
000362: 34,2273           00006        ENDREP11           EXTEND
000363: 34,2274           32301                           DCA      REP11SA
000364: 34,2275           12025                           TCF      REP11A-1
000365: 34,2276           77766 00011  REP11S             2OCT     7776600011
000366:
000367: 34,2300           77764 00013  REP11SA            2OCT     7776400013
000368:
000369: 34,2302           02451        P11XIT             GENADR   P11OUT
000370: 34,2303           71704 41735  -ERTHRAT           2DEC*    -7.292115138 E-7        B18*            #  - EARTH RATE AT 2(18)
000371:
000372: 34,2305  E6,1704                                  EBANK=   BODY3
000373: 34,2305           02307 70066  P11SCADR           2CADR    VHHDOT
000374:
000375: 34,2307     6214               POWDNCOD           EQUALS   THREE
000376:
000377: 34,2307  E6,1704                                  EBANK=   BODY3
000378:                                                                                                  #  VHHDOT IS EXECUTED EVERY 2 SECONDS TO DISPLAY ON DSKY
000379:                                                                                                  #        VI      INERTIAL VELOCITY MAGNITUDE
000380:                                                                                                  #        HDOT    RATE OF CHANGE OF ALT ABOVE L PAD RADIUS
000381:                                                                                                  #        H       ALTITUDE ABOVE L PAD RADIUS
000382:
000383: 34,2307           06006        VHHDOT             TC       INTPRET
000384: 34,2310           77624                           CALL                                           #  LOAD VMAGI, ALTI,
000385: 34,2311           70542                                    S11.1                                 #  HDOT FOR DISPLAY
000386: 34,2312           77776                           EXIT
000387: 34,2313           05426                           TC       PHASCHNG
000388: 34,2314           00035                           OCT      00035
000389:
000390: 34,2315           32622                           CAF      V06N62                                #  DISPLAY IN R1 R2   R3
000391: 34,2316           04676                           TC       BANKCALL                              #             VI HDOT H
000392: 34,2317           20707                           CADR     REGODSP
000393:
000394: 34,2320           35022        ATERTASK           CAF      PRIO1                                 #  ESTABLISH JOB TO DISPLAY ATT ERRORS
000395: 34,2321           05163                           TC       FINDVAC                               #  COMES HERE AT L.O. + .33 SEC
000396: 34,2322  E6,1704                                  EBANK=   BODY3
000397: 34,2322           02345 70066                     2CADR    ATERJOB
000398:
000399: 34,2324           41501                           CS       RCSFLAGS                              #  SET BIT3 FOR
000400: 34,2325           75031                           MASK     BIT3                                  #  NEEDLER
000401: 34,2326           27501                           ADS      RCSFLAGS                              #  INITIALIZATION PASS
000402: 34,2327           04754                           TC       IBNKCALL                              #  AND GO
000403: 34,2330           42432                           CADR     NEEDLER                               #  DO IT
000404: 34,2331           35033                           CA       BIT1                                  #  SET SW
000405: 34,2332           55725                           TS       SATSW                                 #  FOR DISPLAY
000406: 34,2333           05340                           TC       TASKOVER
000407: 34,2334           40220        GETDOWN            STQ      SETPD
000408: 34,2335           02242                                    INCORPEX
000409: 34,2336           00001                                    0D
000410: 34,2337           77745                           DLOAD
000411: 34,2340           15334                                    HI6ZEROS
000412: 34,2341           14007                           STODL    6D
000413: 34,2342           15332                                    DPHALF
000414: 34,2343           34011                           STCALL   8D
000415: 34,2344           26456                                    LALOTORV   +5
000416:                                                                                                  #  THIS SECTION PROVIDES ATTITUDE ERROR DISPLAYS TO THE FDAI DURING SONE BOOST
000417:
000418:                                                                                                  #        COMPUTE DESIRED PITCH W.R.T. PAD LOCAL VERTICAL AT LIFTOFF
000419:                                                                                                  #                          2    3    4    5    6
000420:                                                                                                  #        PITCH = A0+A1T+A2T +A3T +A4T +A5T +A6T
000421:                                                                                                  #                SCALED TO 32 REVS.                                   -14
000422:                                                                                                  #        IF TL = TIME IN SECS FROM L.O., THEN    T = 100(TL-RPSTART)2
000423:                                                                                                  #        WHERE   TL GE RPSTART
000424:                                                                                                  #                TL LE (-POLYSTOP + RPSTART)
000425:                                                                                                  #        COMPUTE DESIRED ROLL WHERE ROLL EQUALS ANGLE FROM
000426:                                                                                                  #        LAUNCHAZ TO -Z(S/C) AS SEEN FROM X(S/C).
000427:                                                                                                  #        ROLL = LAUNCHAZ-AZIMUTH-.5+SATRLRT*T    IN REV
000428:                                                                                                  #        SATRLRT = RATE OF ROLL IN REV/CENTI-SEC
000429:                                                                                                  #        T, IN CENTI-SEC, IS DEFINED AS ABOVE, INCLUSIVE OF TIME RESTRICTIONS
000430:
000431:                                                                                                  #        FOR SIMPLICITY, LET     P = 2*PI*PITCH
000432:                                                                                                  #                                R = 2*PI*ROLL
000433:
000434:                                                                                                  #        CONSTRUCT THE TRANSFORMATION MATRIX, TSMV, GIVING DESIRED S/C AXES IN
000435:                                                                                                  #        TERMS OF SM COORDINATES.  LET THE RESULTING ROWS EQUAL THE VECTORS XDC,
000436:                                                                                                  #        YDC, AND ZDC.
000437:
000438:                                                                                                  #         *     (    SIN(P)                 0               -COS(P)    )   (XDC)
000439:                                                                                                  #        TSMV = (-SIN(R)*COS(P)          -COS(R)         -SIN(R)*SIN(P)) = (YDC)
000440:                                                                                                  #               (-COS(R)*COS(P)           SIN(R)         -COS(R)*SIN(P))   (ZDC)
000441:
000442:                                                                                                  #        XDC,YDC,ZDC ARE USED AS INPUT TO CALCGTA FOR THE EXTRACTION OF THE
000443:                                                                                                  #        EULER SET OF ANGLES WHICH WILL BRING THE SM INTO THE DESIRED
000444:                                                                                                  #        ORIENTATION.  THIS EULER SET, OGC, IGC, AND MGC, MAY BE IDENTIFIED
000445:                                                                                                  #        AS THE DESIRED CDU ANGLES.
000446:
000447:                                                                                                  #        (XDC)                   (OGC)
000448:                                                                                                  #        (YDC) ---) CALCGTA ---) (IGC)
000449:                                                                                                  #        (ZDC)                   (MGC)
000450:                                                                                                  #                           -
000451:                                                                                                  #        DEFINE THE VECTOR DELTACDU.
000452:
000453:                                                                                                  #         -         (OGC)   (CDUX)
000454:                                                                                                  #        DELTACDU = (IGC) - (CDUY)
000455:                                                                                                  #                   (MGC)   (CDUZ)
000456:                                                                                                  #                                 -              -    *    -
000457:                                                                                                  #        COMPUTE ATTITUDE ERRORS, A, WHERE       A = TGSC*DELTACDU
000458:
000459:                                                                                                  #         *     (1             SIN(CDUZ)             0    )   THE GIMBAL ANGLES
000460:                                                                                                  #        TGSC = (0       COS(CDUX)*COS(CDUZ)     SIN(CDUX)) = TO SPACECRAFT AXES
000461:                                                                                                  #               (0      -SIN(CDUX)*COS(CDUZ)     COS(CDUX))   CONVERSION MATRIX
000462:                                                                                                  #                             -
000463:                                                                                                  #        THE ATTITUDE ERRORS, A, ARE STORED ONE HALF SINGLE PRECISION IN
000464:                                                                                                  #        THE REGISTERS AK, AK1, AK2 AS INPUT TO NEEDLER, THE FDAI ATTITUDE
000465:                                                                                                  #        ERROR DISPLAY ROUTINE.
000466:
000467: 34,2345           30102        ATERJOB            CAE      FLAGWRD6                              #  CHECK FLAGWRD6
000468: 34,2346           74105                           MASK     OCT60000                              #  BITS 14, 15
000469: 34,2347           00006                           EXTEND
000470: 34,2350           12352                           BZF      +2                                    #  OK - CONTINUE
000471: 34,2351           05233                           TC       ENDOFJOB                              #  SATURN STICK ON - KILL JOB
000472: 34,2352           35022                           CAF      BIT10                                 #  CHECK IF S/C CONTROL
000473: 34,2353           00006                           EXTEND                                         #  OF SATURN PANEL
000474: 34,2354           02030                           RAND     CHAN30                                #  SWITCH IS ON
000475: 34,2355           00006                           EXTEND
000476: 34,2356           12510                           BZF      STRSAT                                #  IT IS - GO STEER
000477: 34,2357           11725                           CCS      SATSW                                 #  IT IS NOT - WAS IT ON LAST CYCLE
000478: 34,2360           02363                           TC       ATTDISP                               #  NO - CONTINUE
000479: 34,2361           02513                           TC       ATRESET                               #  YES - REINITIALIZE NEEDLER
000480: 34,2362           02513                           TC       ATRESET                               #  YES - REINITIALIZE NEEDLER
000481: 34,2363           41702        ATTDISP            CS       RPSTART                               #  PITCH/ROLL START TIME
000482: 34,2364           60025                           AD       TIME1
000483: 34,2365           00006                           EXTEND
000484: 34,2366           62615                           BZMF     NOPOLY                                #  IF MINUS THEN ATTITUDE HOLD
000485: 34,2367           54154                           TS       MPAC                                  #  MPAC = TIME1 - RPSTART
000486: 34,2370           55707                           TS       SPOLYARG                              #  SAVE FOR USE IN ROLL CALUCLATION
000487: 34,2371           61703                           AD       POLYSTOP                              #  NEG PITCHOVER TIME IN CSECS
000488: 34,2372           00006                           EXTEND
000489: 34,2373           62375                           BZMF     +2
000490: 34,2374           02615                           TC       NOPOLY                                #  GO TO ATTITUDE HOLD
000491: 34,2375           30024                           CA       TIME2
000492: 34,2376           00006                           EXTEND
000493: 34,2377           62401                           BZMF     +2
000494: 34,2400           02615                           TC       NOPOLY                                #  GO TO ATTITUDE HOLD
000495: 34,2401           31661                           CAE      POLYNUM
000496: 34,2402           54001                           TS       L
000497: 34,2403           32621                           CAF      COEFPOLY                              #  EVALUATE PITCH POLYNOMIAL
000498: 34,2404           07164                           TC       POWRSERS                              #  SCALED TO 32 REVOLUTIONS
000499: 34,2405           35035                           CA       ZERO                                  #  RETURN WITH PITCH(32REV)
000500: 34,2406           54163                           TS       MODE                                  #  STORED IN MPAC, MPAC +1
000501: 34,2407           06006                           TC       INTPRET
000502: 34,2410           54201                           SETPD    SL                                    #  32(PITCH(32REV)) = PITCH(REV)
000503: 34,2411           00001                                    0
000504: 34,2412           20206                                    5
000505: 34,2413           77606                           PUSH                                           #  LET P(RAD) = 2.PI.PITCH(REV)
000506: 34,2414           77650                           GOTO
000507: 34,2415           76164                                    ATTDISP1                              #  AROUND SETLOC
000508:                                                                                                  #                                     *
000509:                                                                                                  #        CONSTRUCT SM TO S/C MATRIX, TSMV
000510:
000511: 37,2000                                           SETLOC   P11TWO
000512: 37,2000                                           BANK                                           #  36 IN COL., 34 IN DISK
000513:
000514: 37,2164                                           COUNT    36/P11
000515:
000516: 37,2164           57546        ATTDISP1           COS      DCOMP
000517: 37,2165           14017                           STODL    14D                                   #  -.5*COS(P)
000518: 37,2166           77756                           SIN
000519: 37,2167           14013                           STODL    10D                                   #  .5*SIN(P)
000520: 37,2170           15334                                    ZEROVECS
000521: 37,2171           00015                           STORE    12D                                   #  0
000522:
000523:                                                                                                  #        EVALUATE ROLL = LAUNCHAZ-AZIMUTH-.5+SATRLRT*T
000524: 37,2172           41335                           SLOAD    DMP
000525: 37,2173           03310                                    SPOLYARG                              #  TIME1 - RPSTART, CSECS B-14.
000526: 37,2174           03301                                    SATRLRT
000527: 37,2175           45261                           SL       DSU
000528: 37,2176           20217                                    14D
000529: 37,2177           15332                                    DPHALF
000530: 37,2200           45215                           DAD      DSU                                   #  ASSUMING X(SM) ALONG LAUNCH AZIMUTH,
000531: 37,2201           02634                                    LAUNCHAZ                              #  LAUNCHAZ = ANGLE FROM NORTH TO X(SM).
000532: 37,2202           02401                                    AZIMUTH                               #  AZIMUTH = -ANGLE FROM NORTH TO Z(S/C)
000533: 37,2203           77634                           RTB                                            #  DETERMINE IF ROLLOUT
000534: 37,2204           70604                                    RLTST                                 #  IS COMPLETED
000535: 37,2205           71406        ATTDISPR           PUSH     COS                                   #  CONTINUE COMPUTING TSMV
000536: 37,2206           77606                           PUSH                                           #  LET R(RAD) = 2*PI*ROLL(REV)
000537: 37,2207           72405                           DMP      SL1
000538: 37,2210           00017                                    14D
000539: 37,2211           14027                           STODL    22D                                   #  -.5*COS(R)*COS(P)
000540: 37,2212           77676                           DCOMP
000541: 37,2213           00023                           STORE    18D                                   #  -.5*COS(R)
000542: 37,2214           72405                           DMP      SL1
000543: 37,2215           00013                                    10D
000544: 37,2216           14033                           STODL    26D                                   #  -.5*COS(R)*SIN(P)
000545: 37,2217           41556                           SIN      PUSH
000546: 37,2220           00031                           STORE    24D                                   #  .5*SIN(R)
000547: 37,2221           72405                           DMP      SL1
000548: 37,2222           00017                                    14D
000549: 37,2223           14021                           STODL    16D                                   #  -.5*SIN(R)*COS(P)
000550: 37,2224           77676                           DCOMP
000551: 37,2225           72405                           DMP      SL1
000552: 37,2226           00013                                    10D
000553: 37,2227           24025                           STOVL    20D                                   #  -.5*SIN(R)*SIN(P)
000554: 37,2230           00013                                    10D
000555:
000556:                                                                                                  #        FROM TSMV FIND THE HALF UNIT VECTORS XDC,YDC,ZDC = INPUT TO CALCGTA
000557: 37,2231           77656                           UNIT
000558: 37,2232           26714                           STOVL    XDC                                   #  XDC = .5*UNIT(SIN(P),0,-COS(P))
000559: 37,2233           00021                                    16D
000560: 37,2234           77656                           UNIT
000561: 37,2235           26722                           STOVL    YDC                                   #  YDC = .5*UNIT(-SIN(R)*COS(P),-COS(R),
000562: 37,2236           00027                                    22D                                   #                        -SIN(R)*SIN(P))
000563: 37,2237           77656                           UNIT
000564: 37,2240           36730                           STCALL   ZDC                                   #  ZDC = .5*UNIT(-COS(R)*COS(P),SIN(R),
000565: 37,2241           47207                                    CALCGTA                               #                        -COS(R)*SIN(P))
000566:
000567:                                                                                                  #        CALL CALCGTA TO COMPUTE DESIRED SM ORIENTATION  OGC,IGC, AND MGC
000568:                                                                                                  #                                 -          -   -
000569:                                                                                                  #        FIND DIFFERENCE VECTOR  DELTACDU = OGC-CDUX
000570:                                                                                                  #
000571:                                                                                                  #        ENTER HERE IF ATTITUDE HOLD
000572:
000573: 37,2242           41575        NOPOLYM            VLOAD    PUSH                                  #         OGC      IGC
000574: 37,2243           02760                                    OGC                                   #  CHANGE IGC  TO  MGC FOR COMPATIBILITY
000575: 37,2244           45006                           PUSH     CALL                                  #         MGC      OGC
000576: 37,2245           47501                                    CDUTRIG                               #  WITH Y,Z,X ORDER OF CDUSPOT
000577: 37,2246           47175                           VLOAD    RTB                                   #   -         DPHI     OGC-CDUX , PD4
000578: 37,2247           00003                                    2                                     #  DELTACDU = DTHETA = IGC-CDUY , 0
000579: 37,2250           45552                                    V1STO2S                               #             DPSI     MGC-CDUZ , 2
000580: 37,2251           27317                           STOVL    BOOSTEMP
000581: 37,2252           15334                                    ZEROVECS
000582: 37,2253           24001                           STOVL    0
000583: 37,2254           00767                                    CDUSPOT
000584: 37,2255           47034                           RTB      RTB
000585: 37,2256           45552                                    V1STO2S
000586: 37,2257           70564                                    DELSTOR
000587: 37,2260           14013                           STODL    10D
000588: 37,2261           00741                                    SINCDUZ
000589: 37,2262           72405                           DMP      SL1
000590: 37,2263           00001                                    0
000591: 37,2264           60415                           DAD      SR2                                   #  CHANGE SCALE OF AK TO 2REVS
000592: 37,2265           00005                                    4
000593: 37,2266           77650                           GOTO
000594: 37,2267           70416                                    ATTDISP2
000595:
000596: 34,2000                                           SETLOC   P11ONE
000597: 34,2000                                           BANK
000598: 34,2416                                           COUNT    34/P11
000599:
000600: 34,2416           14021        ATTDISP2           STODL    16D                                   #  16D, .5(DPHI + DTHETA*SIN(CDUZ))
000601: 34,2417           00747                                    COSCDUZ
000602: 34,2420           41405                           DMP      PUSH
000603: 34,2421           00001                                    0
000604: 34,2422           72405                           DMP      SL1
000605: 34,2423           00751                                    COSCDUX
000606: 34,2424           41325                           PDDL     DMP
000607: 34,2425           00743                                    SINCDUX
000608: 34,2426           00003                                    2
000609: 34,2427           72415                           DAD      SL1
000610: 34,2430           77626                           STADR
000611: 34,2431           63755                           STODL    17D                                   #  17D,  .5(DTHETA*COS(CDUX)*COS(CDUZ)
000612: 34,2432           72405                           DMP      SL1                                   #                        +DPSI*SIN(CDUX))
000613: 34,2433           00743                                    SINCDUX
000614: 34,2434           41325                           PDDL     DMP
000615: 34,2435           00751                                    COSCDUX
000616: 34,2436           00003                                    2
000617: 34,2437           72425                           DSU      SL1
000618: 34,2440           77626                           STADR
000619: 34,2441           77754                           STORE    18D                                   #  18D,  .5(-DTHETA*SIN(CDUX)*COS(CDUZ)
000620: 34,2442           77751                           TLOAD                                          #                        +DPSI*COS(CDUX))
000621: 34,2443           00021                                    16D
000622: 34,2444           03077                           STORE    AK                                    #  STORE ATTITUDE ERRORS IN AK,AK1,AK2
000623: 34,2445           77776                           EXIT
000624:
000625: 34,2446           31725                           CA       SATSW
000626: 34,2447           10000                           CCS      A                                     #  CHK TAKEOVER STATUS
000627: 34,2450           02471                           TC       SATOUT                                #  POS - DISPLAY ONLY
000628: 34,2451           02477                           TC       AKLOAD                                #  0     STORE BIAS
000629: 34,2452           06006        STEERSAT           TC       INTPRET                               #  NEG   STEER L/V
000630: 34,2453           76351                           TLOAD    TAD
000631: 34,2454           03327                                    BIASAK
000632: 34,2455           03077                                    AK
000633: 34,2456           03077                           STORE    AK                                    #  AKS = AKS - STORED BIAS
000634: 34,2457           77776                           EXIT
000635: 34,2460           31476                           CA       AK
000636: 34,2461           02623                           TC       RESCALES
000637: 34,2462           55476                           TS       AK
000638: 34,2463           31477                           CA       AK1
000639: 34,2464           02623                           TC       RESCALES
000640: 34,2465           55477                           TS       AK1
000641: 34,2466           31500                           CA       AK2
000642: 34,2467           02623                           TC       RESCALES
000643: 34,2470           55500                           TS       AK2
000644:                                                                                                  #        DISPLAY ATTITUDE ERRORS ON FDAI VIA NEEDLER
000645:
000646: 34,2471           04676        SATOUT             TC       BANKCALL
000647: 34,2472           42432                           CADR     NEEDLER
000648: 34,2473           34113        ATERSET            CAF      OCT31                                 #  DELAY .25 SEC
000649: 34,2474           04676                           TC       BANKCALL                              #  EXECUTION + DELAY = .56SEC APPROX
000650: 34,2475           01732                           CADR     DELAYJOB
000651: 34,2476           02345                           TC       ATERJOB                               #  END OF ATT ERROR DISPLAY CYCLE
000652:
000653: 34,2477           41476        AKLOAD             CS       AK                                    #  STORE AKS
000654: 34,2500           55726                           TS       BIASAK                                #  INTO BIAS
000655: 34,2501           41477                           CS       AK1                                   #  COMPLEMENTED
000656: 34,2502           55727                           TS       BIASAK     +1
000657: 34,2503           41500                           CS       AK2
000658: 34,2504           55730                           TS       BIASAK     +2
000659: 34,2505           45033                           CS       BIT1                                  #  SET SW
000660: 34,2506           55725                           TS       SATSW                                 #  TO STEER
000661: 34,2507           02452                           TC       STEERSAT                              #  GO STEER
000662: 34,2510           31725        STRSAT             CA       SATSW                                 #  CHECK IF NEEDLER
000663: 34,2511           00006                           EXTEND                                         #  HAS BEEN INITIALIZED
000664: 34,2512           62363                           BZMF     ATTDISP                               #  YES - CONTINUE
000665: 34,2513           41501        ATRESET            CS       RCSFLAGS                              #  NO - SET
000666: 34,2514           75031                           MASK     BIT3                                  #  INITIALIZATION SW
000667: 34,2515           27501                           ADS      RCSFLAGS                              #  FOR NEEDLER
000668: 34,2516           04676                           TC       BANKCALL                              #  AND GO
000669: 34,2517           42432                           CADR     NEEDLER                               #  DO IT
000670: 34,2520           36211                           CAF      REVCNT                                #  OCT 6
000671: 34,2521           04676                           TC       BANKCALL                              #  DELAY JOB
000672: 34,2522           01732                           CADR     DELAYJOB                              #  60 MS -WAIT TILL IMUERRCNTR ZEROED
000673: 34,2523           11725                           CCS      SATSW                                 #  CHECK SW STATUS
000674: 34,2524           02534                           TC       TAKEON                                #  POS   STEER INIT.
000675: 34,2525           02526                           TC       +1                                    #  0     RETURN TO DISPLAY
000676: 34,2526           35033                           CA       BIT1                                  #  NEG   RETURN TO DISPLAY
000677: 34,2527           55725                           TS       SATSW                                 #  SW = DISPLAY ONLY
000678: 34,2530           45023                           CS       BIT9                                  #  DISABLE
000679: 34,2531           00006                           EXTEND                                         #  SIVB
000680: 34,2532           03012                           WAND     CHAN12                                #  TAKEOVER
000681: 34,2533           02471                           TC       SATOUT                                #  DISPLAY
000682: 34,2534           35023        TAKEON             CAF      BIT9                                  #  ENABLE
000683: 34,2535           00006                           EXTEND                                         #  SIVB
000684: 34,2536           05012                           WOR      CHAN12                                #  TAKEOVER
000685: 34,2537           35035                           CA       ZERO                                  #  INDICATE NEEDLER
000686: 34,2540           55725                           TS       SATSW                                 #  WAS INITIALIZED
000687: 34,2541           02471                           TC       SATOUT
000688: 34,2542           51575        S11.1              VLOAD    ABVAL
000689: 34,2543           01177                                    VN
000690: 34,2544           27723                           STOVL    VMAGI                                 #  VI    SCALED 2(7) IN METERS/CSEC
000691: 34,2545           01171                                    RN
000692: 34,2546           50256                           UNIT     DOT
000693: 34,2547           01177                                    VN
000694: 34,2550           77752                           SL1
000695: 34,2551           17741                           STODL    HDOT
000696: 34,2552           05152                                    RPAD
000697: 34,2553           77214                           BOF      VLOAD
000698: 34,2554           00355                                    AMOONFLG
000699: 34,2555           70560                                    EARTHALT
000700: 34,2556           02026                                    RLS
000701: 34,2557           60446                           ABVAL    SR2
000702: 34,2560           77621        EARTHALT           BDSU
000703: 34,2561           00045                                    36D
000704: 34,2562           03737                           STORE    ALTI
000705: 34,2563           77616                           RVQ
000706: 34,2564           31716        DELSTOR            CA       BOOSTEMP
000707: 34,2565           00006                           EXTEND                                         #  STORE DELTACDU INTO PDL 0,2,4
000708: 34,2566           20154                           MSU      MPAC
000709: 34,2567           50120                           INDEX    FIXLOC
000710: 34,2570           54000                           TS       0
000711: 34,2571           31717                           CA       BOOSTEMP   +1
000712: 34,2572           00006                           EXTEND
000713: 34,2573           20155                           MSU      MPAC       +1
000714: 34,2574           50120                           INDEX    FIXLOC
000715: 34,2575           54002                           TS       2
000716: 34,2576           31720                           CA       BOOSTEMP   +2
000717: 34,2577           00006                           EXTEND
000718: 34,2600           20156                           MSU      MPAC       +2
000719: 34,2601           50120                           INDEX    FIXLOC
000720: 34,2602           54004                           TS       4
000721: 34,2603           16030                           TCF      DANZIG
000722: 34,2604           30154        RLTST              CA       MPAC                                  #  DETERMINE IF ROLLOUT
000723: 34,2605           00006                           EXTEND                                         #  IS COMPLETED
000724: 34,2606           71701                           MP       SATRLRT    +1
000725: 34,2607           00006                           EXTEND
000726: 34,2610           66030                           BZMF     DANZIG                                #  UNLIKE SIGNS STILL ROLLING
000727: 34,2611           00006                           EXTEND                                         #  ROLLOUT COMPLETED
000728: 34,2612           33672                           DCA      MBDYTCTL   +2                         #  ZERO OUT ROLL CONTRIBUTION
000729: 34,2613           52155                           DXCH     MPAC
000730: 34,2614           06030                           TC       DANZIG
000731: 34,2615           06006        NOPOLY             TC       INTPRET                               #  COMES HERE IF
000732: 34,2616           52001                           SETPD    GOTO                                  #  ATTITUDE HOLD
000733: 34,2617           00001                                    0
000734: 34,2620           76242                                    NOPOLYM
000735: 34,2621           01673        COEFPOLY           ADRES    POLYLOC
000736: 34,2622           01476        V06N62             VN       0662
000737: 34,2623           00006        RESCALES           EXTEND                                         #  RESCALE AK S FOR
000738: 34,2624           71731                           MP       SATSCALE                              #  NEW HARDWARE
000739: 34,2625           20001                           DDOUBL                                         #  SCALING FOR
000740: 34,2626           20001                           DDOUBL                                         #  STEERING
000741: 34,2627           00002                           TC       Q                                     #  SATURN
000742:
000743:                                                                                                  #  SATURN TAKEOVER FUNCTION
000744:                                                                                                  #  ************************
000745:                                                                                                  #
000746:                                                                                                  #  PROGRAM DESCRIPTION
000747:
000748:                                                                                                  #        MOD NUMBER 1
000749:                                                                                                  #        MOD BY ELIASSEN
000750:
000751:                                                                                                  #  FUNCTIONAL DESCRIPTION
000752:
000753:                                                                                                  #        DURING THE COASTING PHASE OF SIVB ATTACHED, THE
000754:                                                                                                  #        ASTRONAUT MAY REQUEST SATURN TAKEOVER THROUGH
000755:                                                                                                  #        EXTENDED VERB 46 (BITS 13,14 OF DAPDATR1 SET ).
000756:                                                                                                  #        THE CMC REGARDS RHC COMMANDS AS BODY-AXES RATE
000757:                                                                                                  #        COMMANDS AND IT TRANSMITS THESE TO SATURN AS DC
000758:                                                                                                  #        VOLTAGES.  THE VALUE OF THE CONSTANT RATE COMMAND
000759:                                                                                                  #        IS 0.5 DEG/SEC.  AN ABSENCE OF RHC ACTIVITY RE-
000760:                                                                                                  #        SULTS IN A ZERO RATE COMMAND.
000761:
000762:                                                                                                  #        THE FDAI ERROR NEEDLES WILL INDICATE THE VALUE
000763:                                                                                                  #        OF THE RATE COMMAND.
000764:
000765:                                                                                                  #  CALLING SEQUENCE
000766:
000767:                                                                                                  #        DAPFIG +9D      TC      POSTJUMP
000768:                                                                                                  #                        CADR    SATSTKON
000769:
000770:                                                                                                  #  SUBROUTINES CALLED
000771:
000772:                                                                                                  #        ENDEXT
000773:                                                                                                  #        IBNKCALL
000774:                                                                                                  #        STICKCHK
000775:                                                                                                  #        NEEDLER
000776:                                                                                                  #        T5RUPT
000777:                                                                                                  #        RESUME
000778:
000779:                                                                                                  #  ASTRONAUT REQUESTS
000780:
000781:                                                                                                  #        ENTRY -  VERB 46 ENTER
000782:                                                                                                  #                 (CONDITION - BITS 13, 14 OF DAPDATR1 SET)
000783:
000784:                                                                                                  #        EXIT -   VERB 48 ENTER  (FLASH V06N46)
000785:                                                                                                  #                 VERB 21 ENTER  AXXXX ENTER WHERE A=0 OR 1
000786:                                                                                                  #                 VERB 34 ENTER
000787:                                                                                                  #                 VERB 46 ENTER
000788:
000789:                                                                                                  #  NORMAL EXIT MODE
000790:
000791:                                                                                                  #        VERB 46 ENTER   (SEE ASTRONAUT ABOVE)
000792:
000793:                                                                                                  #  ALARM OR ABORT EXIT MODES
000794:
000795:                                                                                                  #        NONE
000796:
000797:                                                                                                  #  OUTPUT
000798:
000799:                                                                                                  #        SATURN RATES IN CDUXCMD, CDUYCMD, CDUZCMD
000800:
000801:                                                                                                  #  ERASABLE INITIALIZATION
000802:
000803:                                                                                                  #        DAPDATR1        (BITS 13, 14 MUST BE SET)
000804:
000805:                                                                                                  #  DEBRIS
000806:
000807:                                                                                                  #        CENTRALS
000808:                                                                                                  #        CDUXCMD, CDUYCMD, CDUZCMD
000809:
000810: 43,3225                                           BANK     43
000811: 43,2000                                           SETLOC   EXTVERBS
000812: 43,2000                                           BANK
000813:
000814: 43,3225                                           COUNT    23/STTKE
000815: 43,3225           00006        SATSTKON           EXTEND
000816: 43,3226           33243                           DCA      2REDOSAT
000817: 43,3227           00004                           INHINT
000818: 43,3230           53313                           DXCH     T5LOC
000819: 43,3231           35013                           CAF      POSMAX
000820: 43,3232           54030                           TS       TIME5
000821: 43,3233           40102                           CS       FLAGWRD6                              #  TURN ON BITS 15,14 OF
000822: 43,3234           74105                           MASK     RELTAB11                              #  FLAGWRD6
000823: 43,3235           26102                           ADS      FLAGWRD6                              #        SATSTICK CONTROL OF T5
000824: 43,3236           04754                           TC       IBNKCALL                              #  ZERO JET CHANNELS IN 14 MS AND THEN
000825: 43,3237           42644                           CADR     ZEROJET                               #  LEAVE THE T6 CLOCK DISABLED
000826: 43,3240           00003                           RELINT
000827: 43,3241           02121                           TC       GOPIN                                 #  EXIT THUS BECAUSE WE CAME VIA V46
000828:
000829: 43,3242  E6,1704                                  EBANK=   BODY3
000830: 43,3242           02767 46106  2REDOSAT           2CADR    REDOSAT
000831:
000832:
000833: 43,3244  30,2000                                  SBANK=   LOWSUPER
000834: 32,2017                                           BANK     32
000835: 23,2000                                           SETLOC   P11FOUR
000836: 23,2000                                           BANK
000837:
000838: 23,2767           22016        REDOSAT            LXCH     BANKRUPT                              #  ALSO COMES HERE FOR RESTARTS
000839: 23,2770           00006                           EXTEND
000840: 23,2771           22012                           QXCH     QRUPT
000841: 23,2772           41501                           CS       RCSFLAGS                              #  TURN ON BIT3 OF RCSFLAGX
000842: 23,2773           75031                           MASK     BIT3                                  #  FOR
000843: 23,2774           27501                           ADS      RCSFLAGS                              #  NEEDLER INITIALIZATION
000844: 23,2775           04754                           TC       IBNKCALL
000845: 23,2776           42432                           CADR     NEEDLER                               #  DISABLE IMU ERR COUNTERS ETC.
000846: 23,2777           35023                           CAF      BIT9                                  #  SIVB
000847: 23,3000           00006                           EXTEND                                         #  TAKEOVER
000848: 23,3001           05012                           WOR      CHAN12                                #  ENABLE
000849: 23,3002           00006                           EXTEND                                         #  SET UP T5 CYCLE
000850: 23,3003           33044                           DCA      2SATSTCK
000851: 23,3004           53313                           DXCH     T5LOC
000852: 23,3005           33042                           CAF      100MST5                               #  IN 100 MSECS
000853: 23,3006           54030                           TS       TIME5
000854: 23,3007           15347                           TCF      RESUME                                #  END OF SATURN STICK INITIALIZATION
000855:
000856:                                                                                                  #        THIS SECTION IS EXECUTED EVERY 100 MSECS
000857: 23,3010           22016        SATSTICK           LXCH     BANKRUPT
000858: 23,3011           00006                           EXTEND
000859: 23,3012           22012                           QXCH     QRUPT
000860:
000861: 23,3013           33043                           CAF      2SATSTCK                              #  SET UP RUPT
000862: 23,3014           55312                           TS       T5LOC                                 #  LO ORDER LOC SET
000863: 23,3015           33042                           CAF      100MST5                               #  100 MSECS
000864: 23,3016           54030                           TS       TIME5
000865: 23,3017           33041                           CAF      STIKBITS
000866: 23,3020           00006                           EXTEND
000867: 23,3021           06031                           RXOR     CHAN31                                #  CHECK IF MAN ROT BITS SAME
000868: 23,3022           73041                           MASK     STIKBITS
000869: 23,3023           04754                           TC       IBNKCALL                              #  SET RATE INDICES
000870: 23,3024           43142                           CADR     STICKCHK                              #  FOR PITCH YAW AND ROLL
000871:
000872: 23,3025           51656                           INDEX    RMANNDX                               #  SET SATURN RATES
000873: 23,3026           31721                           CA       SATRATE
000874: 23,3027           55476                           TS       AK                                    #        ROLL
000875: 23,3030           51657                           INDEX    PMANNDX
000876: 23,3031           31721                           CA       SATRATE
000877: 23,3032           55477                           TS       AK1                                   #        PITCH
000878: 23,3033           51660                           INDEX    YMANNDX
000879: 23,3034           31721                           CA       SATRATE
000880: 23,3035           55500                           TS       AK2                                   #        YAW
000881:
000882: 23,3036           04754                           TC       IBNKCALL                              #  FOR SATURN INTERFACE AND FDAI DISPLAY
000883: 23,3037           42432                           CADR     NEEDLER
000884: 23,3040           15347                           TCF      RESUME                                #  END OF SATURN STICK CONTROL
000885:
000886: 23,3041           00077        STIKBITS           OCT      00077
000887: 23,3042           37766        100MST5            DEC      16374      B-14
000888: 23,3043  E6,1704                                  EBANK=   BODY3
000889: 23,3043           03010 46066  2SATSTCK           2CADR    SATSTICK

End of include-file P11.agc.  Parent file is MAIN.agc


