
Source Code


000002:                                                                                                  ## Copyright:   Public domain.
000003:                                                                                                  ## Filename:    P30,P37.agc
000004:                                                                                                  ## Purpose:     A section of Comanche revision 067.
000005:                                                                                                  ##              It is part of the reconstructed source code for the flight
000006:                                                                                                  ##              software for the Command Module's (CM) Apollo Guidance Computer
000007:                                                                                                  ##              (AGC) for Apollo 12. No original listings of this program are
000008:                                                                                                  ##              available; instead, this file was created via dissassembly of
000009:                                                                                                  ##              dumps of Comanche 067 core rope modules and comparison with
000010:                                                                                                  ##              other AGC programs.
000011:                                                                                                  ## Assembler:   yaYUL
000012:                                                                                                  ## Contact:     Ron Burkey <info@sandroid.org>.
000013:                                                                                                  ## Website:     www.ibiblio.org/apollo/index.html
000014:                                                                                                  ## Mod history: 2023-08-16 MAS  Created from Comanche 055.
000015:                                                                                                  ##              2024-03-15 MAS  Updated for Comanche 067.
000016:
000017: 32,2017                                           BANK     32
000018:
000019: 35,2000                                           SETLOC   P30S1
000020: 35,2000                                           BANK
000021:
000022: 35,3264  E7,1625                                  EBANK=   +MGA
000023:
000024: 35,3264                                           COUNT    35/P34
000025:
000026: 35,3264           77420        DISPMGA            STQ      EXIT                                  #  USED IN P30
000027:
000028: 35,3265           02370                                    RGEXIT
000029: 35,3266           03304                           TC       COMPTGO
000030:
000031: 35,3267           34621        DISP45             CAF      V16N45
000032: 35,3270           04676                           TC       BANKCALL
000033: 35,3271           21057                           CADR     GOFLASHR
000034: 35,3272           04106                           TC       GOTOPOOH
000035: 35,3273           03300                           TC       END45
000036: 35,3274           03267                           TC       DISP45
000037: 35,3275           05426        P30PHSI            TC       PHASCHNG
000038: 35,3276           00014                           OCT      14
000039: 35,3277           05233                           TCR      ENDOFJOB
000040: 35,3300           06006        END45              TC       INTPRET
000041: 35,3301           52014                           CLEAR    GOTO
000042: 35,3302           03664                                    TIMRFLAG
000043: 35,3303           02370                                    RGEXIT
000044:
000045: 35,3304           00006        COMPTGO            EXTEND                                         #  USED TO COMPUTE TTOGO
000046: 35,3305           23066                           QXCH     PHSPRDT6                              #  ** GROUP 6 TEMPORARY USED ,, BEWARE **
000047:
000048: 35,3306           05562                           TC       UPFLAG                                #  SET TIMRFLAG
000049: 35,3307           00155                           ADRES    TIMRFLAG                              #  BIT 11 FLAG 7
000050: 35,3310           35035                           CAF      ZERO
000051: 35,3311           55145                           TS       NVWORD1
000052:
000053: 35,3312           35033                           CAF      ONE
000054: 35,3313           05261                           TC       WAITLIST
000055: 35,3314  E7,1412                                  EBANK=   TIG
000056: 35,3314           03260 50067                     2CADR    CLOKTASK
000057:
000058: 35,3316           05406                           TC       2PHSCHNG
000059: 35,3317           40036                           OCT      40036                                 #  6.3SPOT FOR CLOKTASK
000060: 35,3320           05024                           OCT      05024                                 #  GROUP 4 CONTINUES HERE
000061: 35,3321           13000                           OCT      13000
000062:
000063: 35,3322           01066                           TC       PHSPRDT6
000064:                                                                                                  #  PROGRAM DESCRIPTION P30       DATE 3-6-67
000065:                                                                                                  #  MOD. I BY S. ZELDIN-  TO ADD P31 AND ADAPT P30 FOR P31 USE.   22DEC67
000066:
000067:                                                                                                  #  FUNCTIONAL DESCRIPTION
000068:                                                                                                  #        +30     (EXTERNAL DELTA-V TARGETTING PROGRAM)
000069:                                                                                                  #                ACCEPTS ASTRONAUT INPUTS OF TIG,DELV(LV) AND COMPUTES, FOR DISPLAY,
000070:                                                                                                  #                APOGEE, PERIGEE, DELV(MAG), MGA ASSOCIATED WITH DESIRED MANEUVER
000071:                                                                                                  #        P31     (GENERAL LAMBERT AIMPOINT GUIDANCE)
000072:                                                                                                  #                A GROUND RULE FOR P31 IS THE ANGLE BETWEEN THE TARGET VECTOR AND
000073:                                                                                                  #                POSITION VECTOR AT TIG IS NOT 165-195 DEGREES APART
000074:                                                                                                  #                BASED ON STORED INPUT OF OFFSET TARGET(B+29) AND DELTA T TRANS, AND
000075:                                                                                                  #                ASTRONAUT ENTRY OF TIG, P31 COMPUTES REQUIRED VELOCITY FOR MANEUVER
000076:                                                                                                  #                AND, FOR DISPLAY, APOGEE, PERIGEE, DELV(7AG), +MGA ASSOCIATED WITH
000077:                                                                                                  #                DESIRED MANEUVER
000078:
000079:                                                                                                  #  THE FOLLOWING SUBROUTINES ARE USED IN P30 AND P31
000080:                                                                                                  #        S30.1 (P30 ONLY)
000081:                                                                                                  #        S31.1 (P31 ONLY)
000082:                                                                                                  #        P30/P31 - DISPLAYS TIG
000083:                                                                                                  #        CNTUP30 - DISPLAYS DELV(LV)
000084:                                                                                                  #        PARAM30 - DISPLAYS APOGEE, PERIGEE, DELV(MAG), MGA, TIME FROM TIG,
000085:                                                                                                  #                  MARKS SINCE LAST THRUSTING MANEUVER
000086:
000087:                                                                                                  #  CALLING SEQUENCE VIA JOB FROM V37
000088:
000089:                                                                                                  #  EXIT VIA V37 CALL OR GOTOPOOH
000090:
000091:                                                                                                  #  OUTPUT FOR POWERED FLIGHT
000092:                                                                                                  #        VTIG    X
000093:                                                                                                  #        RTIG    X       SEE S30.1
000094:                                                                                                  #        DELVSIN X
000095:                                                                                                  #        VGDISP
000096:                                                                                                  #        RTARG   X
000097:                                                                                                  #        TPASS4  X       SEE S31.1
000098:                                                                                                  #                X
000099:
000100: 35,3323                                           COUNT    35/P30
000101:
000102: 35,3323           03355        P30                TC       P30/P31
000103: 35,3324           03374                           TC       CNTNUP30
000104: 35,3325           05562                           TC       UPFLAG
000105: 35,3326           00045                           ADRES    XDELVFLG                              #  SET XDELVFLG BIT 8 FLAG 2
000106: 35,3327           05574                           TC       DOWNFLAG                              #  RESET UPDATFLG
000107: 35,3330           00027                           ADRES    UPDATFLG                              #  BIT 7 FLAG 1
000108: 35,3331           06006                           TC       INTPRET
000109: 35,3332           77624                           CALL
000110: 35,3333           63475                                    S30.1
000111: 35,3334           77776                           EXIT
000112: 35,3335           03404                           TC       PARAM30
000113: 35,3336           14106                           TCF      GOTOPOOH
000114:
000115: 35,3337           03355        P31                TC       P30/P31
000116: 35,3340           05574                           TC       DOWNFLAG
000117: 35,3341           00027                           ADRES    UPDATFLG                              #  RESET UPDATFLG BIT 7 FLAG 1
000118: 35,3342           05574                           TC       DOWNFLAG
000119: 35,3343           00156                           ADRES    NORMSW                                #  RESET NORMSW BIT 10 FLAG 7
000120: 35,3344           06006                           TC       INTPRET
000121: 35,3345           77624                           CALL
000122: 35,3346           63547                                    S31.1
000123: 35,3347           77776                           EXIT
000124: 35,3350           03374                           TC       CNTNUP30
000125: 35,3351           03404                           TC       PARAM30
000126: 35,3352           05574                           TC       DOWNFLAG
000127: 35,3353           00045                           ADRES    XDELVFLG                              #  BIT 8 FLAG 2
000128: 35,3354           14106                           TCF      GOTOPOOH
000129:
000130: 35,3355           56002        P30/P31            XCH      Q
000131: 35,3356           55664                           TS       P30/31RT
000132: 35,3357           05562                           TC       UPFLAG
000133: 35,3360           00027                           ADRES    UPDATFLG                              #  SET UPDATFLG BIT 7 FLAG 1
000134: 35,3361           05562                           TC       UPFLAG
000135: 35,3362           00031                           ADRES    TRACKFLG                              #  SET TRACKFLG BIT 5 FLAG 1
000136: 35,3363           33441                           CAF      V06N33                                #  T OF IGN
000137: 35,3364           04676                           TC       BANKCALL
000138: 35,3365           21057                           CADR     GOFLASHR
000139: 35,3366           14106                           TCF      GOTOPOOH
000140: 35,3367           01664                           TC       P30/31RT
000141: 35,3370           13361                           TCF      P30/P31    +4
000142: 35,3371           05426                           TC       PHASCHNG
000143: 35,3372           00014                           OCT      00014
000144: 35,3373           05233                           TC       ENDOFJOB
000145:
000146: 35,3374           56002        CNTNUP30           XCH      Q
000147: 35,3375           55127                           TS       P30/RET
000148: 35,3376           34620                           CAF      V06N81
000149: 35,3377           04676                           TC       BANKCALL
000150: 35,3400           20720                           CADR     GOFLASH
000151: 35,3401           14106                           TCF      GOTOPOOH
000152: 35,3402           01127                           TC       P30/RET
000153: 35,3403           13376                           TCF      CNTNUP30   +2
000154: 35,3404           56002        PARAM30            XCH      Q
000155: 35,3405           55664                           TS       P30/31RT
000156: 35,3406           33442                           CAF      V06N42
000157: 35,3407           04676                           TC       BANKCALL
000158: 35,3410           20720                           CADR     GOFLASH
000159: 35,3411           04106                           TC       GOTOPOOH                              #  ON TERMINATION GOTOPOOH
000160: 35,3412           13414                           TCF      REFTEST                               #  ON PROCEED GO DO REFTEST
000161: 35,3413           13406                           TCF      PARAM30    +2
000162: 35,3414           35017        REFTEST            CAF      BIT13
000163: 35,3415           70077                           MASK     STATE      +3                         #  REFSMFLAG
000164: 35,3416           00006                           EXTEND
000165: 35,3417           13427                           BZF      NOTSET                                #  REFSMFLAG =0, THEN BRANCH TO NOTSET
000166: 35,3420           06006                           TC       INTPRET
000167: 35,3421           41575                           VLOAD    PUSH
000168: 35,3422           03646                                    DELVSIN
000169: 35,3423           77624                           CALL
000170: 35,3424           10654                                    GET+MGA
000171: 35,3425           77650                           GOTO
000172: 35,3426           73433                                    FLASHMGA
000173: 35,3427           00006        NOTSET             EXTEND
000174: 35,3430           43440                           DCS      MARSDP
000175: 35,3431           53626                           DXCH     +MGA                                  #  +MGA, +MGA+1 CONTAINS (-00001)
000176: 35,3432           06006                           TC       INTPRET
000177: 35,3433           77624        FLASHMGA           CALL
000178: 35,3434           73264                                    DISPMGA
000179: 35,3435           77776                           EXIT
000180: 35,3436           01664                           TC       P30/31RT
000181: 35,3437           00000        MARSDP             OCT      00000                                 #  (00000) (16440) = (+00001)
000182: 35,3440           35100                           OCT      35100
000183:                                                                                                  #  ( .01 ) DEGREES IN THE LOW ORDER REGISTE
000184:
000185: 35,3441           01441        V06N33             VN       0633
000186: 35,3442           01452        V06N42             VN       0642
000187: 35,3443           04043        V16N35             VN       1635
000188: 35,3444           01455        V06N45             VN       0645
000189:
000190:                                                                                                  #  PROGRAM DESCRIPTION S30.1     DATE 9NOV66
000191:                                                                                                  #  MOD NO 1                      LOG SECTION P30,P37
000192:                                                                                                  #  MOD BY RAMA AIYAWAR **
000193:                                                                                                  #  MOD.2 BY S.ZELDIN - TO CORRECT MOD.1 FOR COLOSSUS             29DEC67
000194:
000195:                                                                                                  #  FUNCTIONAL DESCRIPTION
000196:                                                                                                  #        BASED ON STORED TARGET PARAMETERS (R OF IGNITION (RTIG), V OF
000197:                                                                                                  #        IGNITION (VTIG), TIME OF IGNITION (TIG), DELV(LV), COMPUTE PERIGEE ALTITUDE
000198:                                                                                                  #        A+OGEE ALTITUDE AND DELTA-V REQUIRED IN REF. COORDS. (DELVSIN)
000199:
000200:                                                                                                  #  CALLING SEQUENCE
000201:                                                                                                  #        L       CALL
000202:                                                                                                  #        L+1             S30.1
000203:
000204:                                                                                                  #  NORMAL EXIT MODE
000205:                                                                                                  #        AT L+2 OR CALLING SEQUENCE (GOTO L+2)
000206:
000207:                                                                                                  #  SUBROUTINES CALLED
000208:                                                                                                  #        THISPREC
000209:                                                                                                  #        PERIAPO
000210:
000211:                                                                                                  #  ALARM OR ABORT EXIT MODES
000212:                                                                                                  #        NONE
000213:
000214:                                                                                                  #  ERASABLE INITIALIZATION REQUIRED
000215:                                                                                                  #        TIG             TIME OF IGNITION        DP B28CS
000216:                                                                                                  #        DELVSLV         SPECIFIED DELTA-V IN LOCAL VERT.
000217:                                                                                                  #                        COORDS. OF ACTIVE VEHICLE AT
000218:                                                                                                  #                        TIME OF IGNITION        VCT. B+7 M/CS
000219:
000220:                                                                                                  #  OUTPUT
000221:                                                                                                  #        RTIG            POSITION AT TIG         VCT.    B+29 M
000222:                                                                                                  #        VTIG            VELOCITY AT TIG         VCT.    B+7 M
000223:                                                                                                  #        HAPO            APOGEE ALT.             DP      B+29 M
000224:                                                                                                  #        HPER            PERIGEE ALT.            DP      B+29 M
000225:                                                                                                  #        DELVSIN         DELVSLV IN REF COORDS   VCT.    B+7 M/CS
000226:                                                                                                  #        VGDISP          MAG. OF DELVSIN         DP      B+7 M/CS
000227:
000228:                                                                                                  #  DEBRIS        QTEMP   TEMP.ERASABLE
000229:                                                                                                  #                QPRET, MPAC
000230:                                                                                                  #                PUSHLIST
000231:
000232: 31,2000                                           SETLOC   P30S1A
000233: 31,2000                                           BANK
000234:
000235: 31,3475                                           COUNT    35/S30S
000236:
000237: 31,3475           71220        S30.1              STQ      DLOAD
000238: 31,3476           03657                                    QTEMP
000239: 31,3477           03413                                    TIG                                   #  TIME IGNITION SCALED AT 2(+28)CS
000240: 31,3500           34041                           STCALL   TDEC1
000241: 31,3501           27101                                    THISPREC                              #  ENCKE ROUTINE FOR
000242:
000243: 31,3502           67175                           VLOAD    SXA,2
000244: 31,3503           00007                                    VATT
000245: 31,3504           03746                                    RTX2
000246: 31,3505           27640                           STOVL    VTIG
000247: 31,3506           00001                                    RATT
000248: 31,3507           03632                           STORE    RTIG
000249: 31,3510           03540                           STORE    RACT3
000250: 31,3511           53435                           VXV      UNIT
000251: 31,3512           03640                                    VTIG
000252: 31,3513           36617                           STCALL   UNRM
000253: 31,3514           72666                                    LOMAT
000254: 31,3515           61375                           VLOAD    VXM
000255: 31,3516           03405                                    DELVSLV
000256: 31,3517           00001                                    0
000257: 31,3520           66172                           VSL1     SXA,1
000258: 31,3521           03745                                    RTX1
000259: 31,3522           03646                           STORE    DELVSIN
000260: 31,3523           77646                           ABVAL
000261: 31,3524           27773                           STOVL    VGDISP                                #  MAG DELV
000262: 31,3525           03632                                    RTIG
000263: 31,3526           53315                           PDVL     VAD
000264: 31,3527           03646                                    DELVSIN
000265: 31,3530           03640                                    VTIG
000266: 31,3531           77624                           CALL
000267: 31,3532           45153                                    PERIAPO1
000268: 31,3533           77624                           CALL
000269: 31,3534           45263                                    SHIFTR1
000270: 31,3535           77624                           CALL
000271: 31,3536           46756                                    MAXCHK
000272: 31,3537           16366                           STODL    HPER                                  #  PERIGEE ALT B+29
000273: 31,3540           00005                                    4D
000274: 31,3541           77624                           CALL
000275: 31,3542           45263                                    SHIFTR1
000276: 31,3543           77624                           CALL
000277: 31,3544           46756                                    MAXCHK
000278: 31,3545           36364                           STCALL   HAPO                                  #  APOGEE ALT B+29
000279: 31,3546           03657                                    QTEMP
000280:
000281:                                                                                                  #  S31.1 PROGRAM DESCRIPTION             28DEC67
000282:                                                                                                  #  MOD.1 BY S.ZELDIN
000283:
000284:                                                                                                  #  S31.1 COMPUTES DELV IN REF AND LV COORDS,MAG OF DELV,INTERCEPT TIME,
000285:                                                                                                  #  APOGEE AND PERIGEE ALT FOR REQUIRED MANEUVER
000286:
000287:                                                                                                  #  CALLING SEQUENCE
000288:                                                                                                  #        L       CALL
000289:                                                                                                  #        L+1             S31.1
000290:
000291:                                                                                                  #  NORMAL EXIT MODE
000292:                                                                                                  #        AT L +2 OF CALLING SEQUENCE (GOTO L+2)
000293:
000294:                                                                                                  #  SUBROUTINES CALLED
000295:                                                                                                  #        AGAIN
000296:                                                                                                  #        PERIAPO1
000297:                                                                                                  #        SHIFTR1
000298:                                                                                                  #        MIDGIM
000299:
000300:                                                                                                  #  NO ALARM OR ABORT MODES
000301:
000302:                                                                                                  #  INPUT
000303:                                                                                                  #        DELLT4          DP      +28
000304:                                                                                                  #        TIG             DP      +28
000305:                                                                                                  #        RTARG           VCT     +29
000306:
000307:                                                                                                  #  OUTPUT
000308:                                                                                                  #        DELVLVC         VCT     +7
000309:                                                                                                  #        VGDISP          DP      +7
000310:                                                                                                  #        HAPO            DP      +29
000311:                                                                                                  #        HPER            DP      +29
000312:                                                                                                  #        TPASS4          DP      +28
000313:
000314:                                                                                                  #  DEBRIS - QTEMP
000315:
000316: 31,3547           71220        S31.1              STQ      DLOAD
000317: 31,3550           03657                                    QTEMP
000318: 31,3551           03413                                    TIG
000319: 31,3552           34041                           STCALL   TDEC1
000320: 31,3553           61651                                    AGAIN                                 #  RETURNS RTX2,RTX1,RATT,VATT,VIPRIME
000321: 31,3554           63375                           VLOAD    PDVL                                  #  DELUEET3
000322: 31,3555           03632                                    RTIG
000323: 31,3556           03612                                    VIPRIME
000324: 31,3557           77624                           CALL
000325: 31,3560           45153                                    PERIAPO1
000326: 31,3561           77624                           CALL
000327: 31,3562           45263                                    SHIFTR1
000328: 31,3563           77624                           CALL
000329: 31,3564           46756                                    MAXCHK
000330: 31,3565           16366                           STODL    HPER                                  #  B29
000331: 31,3566           00005                                    4D
000332: 31,3567           77624                           CALL
000333: 31,3570           45263                                    SHIFTR1
000334: 31,3571           77624                           CALL
000335: 31,3572           46756                                    MAXCHK
000336: 31,3573           26364                           STOVL    HAPO                                  #  B29
000337: 31,3574           03646                                    DELVEET3
000338: 31,3575           00001                           STORE    0
000339: 31,3576           45014                           SET      CALL
000340: 31,3577           01072                                    AVFLAG
000341: 31,3600           10647                                    MIDGIM                                #  GET DELVLVC B7 FOR DISPLAY
000342: 31,3601           77646                           ABVAL
000343: 31,3602           17773                           STODL    VGDISP                                #  B+7 FOR DISPLAY
000344: 31,3603           03423                                    DELLT4
000345: 31,3604           77615                           DAD
000346: 31,3605           03413                                    TIG
000347: 31,3606           37656                           STCALL   TPASS4                                #  FOR S40.1
000348: 31,3607           03657                                    QTEMP
000349:
000350:                                                                                                  #  SUBROUTINE NAME:      DELRSPL         (CONTINUATION OF V 82 IN CSM IF P11 ACTI
000351:                                                                                                  #  TRANSFERRED COMPLETELY FROM SUNDISK, P30S REV 33.  9 SEPT 67.
000352:                                                                                                  #  MOD NO: 0     MOD BY: ZELDIN          DATE:
000353:                                                                                                  #  MOD NO: 1     MOD BY: RR BAIRNSFATHER DATE: 11 APR 67
000354:                                                                                                  #  MOD NO: 2     MOD BY: RR BAIRNSFATHER DATE: 12 MAY 67         ADD UR.RT CALC WHEN BELOW 300K FT
000355:                                                                                                  #  MOD NO: 2.1   MOD BY: RR BAIRNSFATHER DATE: 5 JULY 67         FIX ERROR IN MOD. 2.
000356:                                                                                                  #  MOD NO: 3     MOD BY: RR BAIRNSFATHER DATE: 12 JUL 67         CHANGE SIGN OF DISPLAYED ERROR.
000357:                                                                                                  #  MOD 4         MOD BY  S.ZELDIN        DATE  3 APRIL 68        CHANGE EQUATIONS FOR L/D=.18 WHICH REPLA
000358:
000359:                                                                                                  #  FUNCTION:     CALCULATE (FOR DISPLAY ON CALL) AN APPROXIMATE MEASURE OF IN-PLANE SPLASH DOWN
000360:                                                                                                  #                ERROR.  IF THE FREE-FALL TRANSFER ANGLE TO 300K FT ABOVE PAD RADIUS IS POSITIVE:
000361:                                                                                                  #                SPLASH ERROR= -RANGE TO TARGET + FREE-FALL TRANSFER ANGLE + ESTIMATED ENTRY ANGLE.
000362:                                                                                                  #                THE TARGET LOCATION AT ESTIMATED TIME OF IMPACT IS USED.  IF THE FREE-FALL TRANSFER
000363:                                                                                                  #                ANGLE IS NEGATIVE:  SPLASH ERROR= -RANGE TO TARGET
000364:                                                                                                  #                THE PRESENT TARGET LOCATION IS USED.
000365:
000366:                                                                                                  #  CALLING SEQUENCE  CALLED AFTER SR30.1 IF IN CSM AND IF P11 OPERATING (UNDER CONTROL OF V82)
000367:
000368:                                                                                                  #  SUBROUTINES CALLED:  VGAMCALC, TFF/TRIG, LALOTORV.
000369:
000370:                                                                                                  #  EXIT          RETURN DIRECTLY TO V 82 PROG. AT SPLRET
000371:
000372:                                                                                                  #  ERASABLE INITIALIZATION   LEFT BY SR30.1 AND V82GON1
000373:
000374:                                                                                                  #  OUTPUT:       RSP-RREC RANGE IN REVOLUTIONS                   DSKY DISPLAY IN N. MI.
000375:
000376:                                                                                                  #  DEBRIS:       QPRET, PDL0 ... PDL7, PDL10
000377:
000378:                                                                                                  #  THETA(1)
000379:
000380: 32,2017                                           BANK     32
000381: 32,2000                                           SETLOC   DELRSPL1
000382: 32,2000                                           BANK
000383: 32,2017                                           COUNT*   $$/P30                                #  PROGRAMS: P30 EXTERNAL DELTA V
000384:
000385: 32,2017           00011        DELRSPL            STORE    8D
000386: 32,2020           45244                           BPL      DSU
000387: 32,2021           64067                                    CANTDO                                #  GONE PAST 300K FT ALT
000388: 32,2022           16326                                    1BITDP
000389: 32,2023           45000                           BOV      CALL
000390: 32,2024           64067                                    CANTDO                                #  POSMAX INDICATES NO 300K FT SOLUTION.
000391: 32,2025           55050                                    VGAMCALC                              #  +GAMMA(REV) IN PMAC,V300 MAG(B-7)=PDL 0
000392: 32,2026           45006                           PUSH     CALL
000393: 32,2027           56632                                    TFF/TRIG
000394: 32,2030           77624                           CALL
000395: 32,2031           64075                                    AUGEKUGL
000396: 32,2032           65525                           PDDL     ACOS                                  #  T ENTRY PDL 6
000397: 32,2033           00017                                    CDELF/2
000398: 32,2034           77615                           DAD
000399: 32,2035           00005                                    4
000400: 32,2036           26350        GETARG             STOVL    THETA(1)
000401: 32,2037           03401                                    LAT(SPL)
000402: 32,2040           15104                           STODL    LAT
000403: 32,2041           15334                                    HI6ZEROS
000404: 32,2042           15110                           STODL    ALT                                   #  ALT=0 = LAT +4
000405: 32,2043           01205                                    PIPTIME
000406: 32,2044           71214                           BON      DLOAD
000407: 32,2045           03711                                    V37FLAG
000408: 32,2046           64050                                    +2
000409: 32,2047           02325                                    TSTART82
000410: 32,2050           43225                           DSU      DAD
000411: 32,2051           00011                                    8D
000412: 32,2052           45014                           CLEAR    CALL
000413: 32,2053           00662                                    ERADFLAG
000414: 32,2054           26451                                    LALOTORV                              #  R RECOV. IN ALPHAV AND MPAC
000415:
000416: 32,2055           63256                           UNIT     PDVL
000417: 32,2056           02327                                    RONE
000418: 32,2057           50256                           UNIT     DOT
000419: 32,2060           65552                           SL1      ARCCOS
000420: 32,2061           77621                           BDSU                                           #  ERROR = THETA EST - THETA TARG
000421:                                                                                                  #  NEGATIVE NUMBER SIGNIFIES THAT WILL FALL SHORT.
000422:                                                                                                  #  POSITIVE NUMBER SIGNIFIES THAT WILL OVERSHOOT.
000423: 32,2062           02350                                    THETA(1)
000424: 32,2063           36356        DELRDONE           STCALL   RSP-RREC                              #  DOWNRANGE RECOVERY RANGE ERROR        /360
000425: 32,2064           27465                                    INTWAKE0
000426: 32,2065           77624                           CALL
000427: 32,2066           46655                                    SPLRET
000428: 32,2067           65345        CANTDO             DLOAD    PDDL                                  #  INITIALIZE ERASE TO DOT TARGET AND UR
000429:                                                                                                  #  FOR RANGE ANGLE.
000430: 32,2070           15332                                    HIDPHALF                              #  TO PDL 0 FOR DEN INDDV.
000431: 32,2071           15334                                    HI6ZEROS
000432: 32,2072           77606                           PUSH                                           #  ZERO TO PDL 2 FOR PHI ENTRY
000433: 32,2073           34011                           STCALL   8D
000434: 32,2074           64036                                    GETARG                                #  GO SET RSP-RREC =0
000435:
000436: 32,2075           77775        AUGEKUGL           VLOAD
000437: 32,2076           24256                                    X1CON      -2
000438: 32,2077           14045                           STODL    X1         -2
000439: 32,2100           00001                                    0
000440: 32,2101           50025                           DSU      BMN
000441: 32,2102           24250                                    V(21K)
000442: 32,2103           64130                                    LOOPSET
000443: 32,2104           65060                           XSU,1    XCHX,2
000444: 32,2105           00050                                    S1
000445: 32,2106           00046                                    X1
000446: 32,2107           45324                           XCHX,2   DSU
000447: 32,2110           00050                                    S1
000448: 32,2111           24236                                    V(3K)
000449: 32,2112           65040                           BMN      XCHX,2
000450: 32,2113           64130                                    LOOPSET
000451: 32,2114           00050                                    S1
000452: 32,2115           50025                           DSU      BMN
000453: 32,2116           24246                                    V(4K)
000454: 32,2117           64130                                    LOOPSET
000455: 32,2120           65124                           XCHX,2   XCHX,2
000456: 32,2121           00050                                    S1
000457: 32,2122           00046                                    X1
000458: 32,2123           50025                           DSU      BMN
000459: 32,2124           24232                                    V(400)
000460: 32,2125           64130                                    LOOPSET
000461: 32,2126           77730                           SXA,1
000462: 32,2127           00050                                    S1
000463: 32,2130           52110        LOOPSET            INCR,1   GOTO
000464: 32,2131           00001                           DEC      1          B-14
000465: 32,2132           64135                                    K1K2LOOP
000466: 32,2133           77730        K2CALC             SXA,1
000467: 32,2134           00050                                    S1
000468: 32,2135           44745        K1K2LOOP           DLOAD    DSU*
000469: 32,2136           00001                                    0
000470: 32,2137           24245                                    V(32K)     +1,1
000471: 32,2140           42603                           DMP*     DAD*
000472: 32,2141           24231                                    YK1K2      +1,1
000473: 32,2142           24215                                    CK1K2      +1,1
000474: 32,2143           60125                           PDDL     TIX,1
000475: 32,2144           00003                                    2
000476: 32,2145           64133                                    K2CALC
000477: 32,2146           55225                           DSU      BDDV
000478: 32,2147           40006                           PUSH     BOV
000479: 32,2150           64173                                    MAXPHI
000480: 32,2151           45240                           BMN      DSU
000481: 32,2152           64173                                    MAXPHI
000482: 32,2153           24200                                    MAXPHIC
000483: 32,2154           77644                           BPL
000484: 32,2155           64173                                    MAXPHI
000485: 32,2156           45345        PHICALC            DLOAD    DSU                                   #  PHI ENTRY PDL 4D
000486: 32,2157           00001                                    0
000487: 32,2160           24256                                    V(26K)
000488: 32,2161           71244                           BPL      DLOAD
000489: 32,2162           64170                                    TGR26
000490: 32,2163           24252                                    TLESS26
000491: 32,2164           77671                           DDV
000492: 32,2165           00001                                    0
000493: 32,2166           43405        TENT               DMP      RVQ
000494: 32,2167           00005                                    4D
000495: 32,2170           52145        TGR26              DLOAD    GOTO
000496: 32,2171           24254                                    TGR26CON
000497: 32,2172           64166                                    TENT
000498:
000499: 32,2173           65345        MAXPHI             DLOAD    PDDL
000500: 32,2174           24200                                    MAXPHIC
000501: 32,2175           77650                           GOTO
000502: 32,2176           64156                                    PHICALC
000503: 32,2177           02755 01307  MAXPHIC            2DEC     .09259298                             #  2000 NM FOR MAXIMUM PHI ENTRY
000504:
000505:
000506: 32,2201                                           COUNT*   $$/P30
000507:
000508:                                                                                                  #                BELOW
000509:                                                                                                  #  <<<< TABLE IS INDEXED. KEEP IN ORDER >>>
000510:
000511: 32,2201           00013 22652                     2DEC     7.07304526 E-4                        #  5500
000512: 32,2203           00005 01642                     2DEC     3.08641975 E-4                        #  2400
000513: 32,2205           00005 01642                     2DEC     3.08641975 E-4                        #  2400
000514: 32,2207           77556 53522                     2DEC     -8.8888888 E-3                        #  -3.2
000515: 32,2211           00055 20266                     2DEC     2.7777777  E-3                        #  1
000516: 32,2213           00155 07202  CK1K2              2DEC     6.6666666  E-3                        #  2.4
000517: 32,2215           00000 00000                     2DEC     0          B-28                       #  0
000518: 32,2217           77730 71525                     2DEC*    -1.86909989 E-5        B7*             #  -.443
000519: 32,2221           00000 00000                     2DEC     0          B-28
000520: 32,2223           04445 10102                     2DEC*    1.11639691 E-3        B7*             #  .001225
000521: 32,2225           03726 31201                     2DEC*    9.56911636 E-4        B7*             #  .00105
000522: 32,2227           01040 26313  YK1K2              2DEC*    2.59733157 E-4        B7*             #  .000285
000523: 32,2231           00234 01660  V(400)             2DEC     1.2192     B-7
000524: 32,2233           25254 01014  V(28K)             2DEC     85.344     B-7
000525: 32,2235           02222 15646  V(3K)              2DEC     9.144      B-7
000526: 32,2237           22223 16457  V(24K)             2DEC     73.152     B-7
000527: 32,2241           25254 01014                     2DEC     85.344     B-7
000528: 32,2243           30304 23351  V(32K)             2DEC     97.536     B-7
000529: 32,2245           03030 22335  V(4K)              2DEC     12.192     B-7
000530: 32,2247           20000 00000  V(21K)             2DEC     64.000     B-7
000531: 32,2251           00033 05763  TLESS26            2DEC*    5.70146688 E7         B-35*           #  8660PHI/V
000532: 32,2253           00053 36200  TGR26CON           2DEC     7.2        E5         B-28            #  PHI/3
000533: 32,2255           23637 27636  V(26K)             2DEC     79.248     B-7                        #  26000
000534:
000535:
000536: 32,2257           00012        X1CON              DEC      10         B-14
000537: 32,2260           00010                           DEC      8          B-14
000538: 32,2261           00006                           DEC      6          B-14
000539:                                                                                                  #  <<<< TABLE IS INDEXED. KEEP IN ORDER >>>
000540:                                                                                                  #                     ABOVE
000541:                                                                                                  #  ..... AVFLAGA/P .....
000542:
000543:                                                                                                  #  SUBROUTINES USED
000544:
000545:                                                                                                  #        UPFLAG
000546:                                                                                                  #        DOWNFLAG
000547:
000548:    4000                                           SETLOC   P30SUBS
000549:    4000                                           BANK
000550:    4627  E4,1770                                  EBANK=   SUBEXIT
000551:    4627           00006        AVFLAGA            EXTEND                                         #  AVFLAG = CSM
000552:    4630           23770                           QXCH     SUBEXIT
000553:    4631           05574                           TC       DOWNFLAG
000554:    4632           00050                           ADRES    AVFLAG                                #  BIT 5 FLAG 2
000555:    4633           35074                           CAF      EBANK7
000556:    4634           54003                           TS       EBANK
000557:    4635  E7,1424                                  EBANK=   ECSTEER
000558:    4635           35017                           CAF      BIT13
000559:    4636           55424                           TS       ECSTEER                               #  SET ECSTEER = 1
000560:    4637           35021                           CAF      EBANK4
000561:    4640           54003                           TS       EBANK
000562:    4641  E4,1770                                  EBANK=   SUBEXIT
000563:    4641           01770                           TC       SUBEXIT
000564:    4642           00006        AVFLAGP            EXTEND                                         #  AVFLAG = LEM
000565:    4643           23770                           QXCH     SUBEXIT
000566:    4644           05562                           TC       UPFLAG
000567:    4645           00050                           ADRES    AVFLAG                                #  BIT 5 FLAG 2
000568:    4646           01770                           TC       SUBEXIT
000569:    4647           00006        P20FLGON           EXTEND
000570:    4650           23770                           QXCH     SUBEXIT
000571:    4651           05562                           TC       UPFLAG
000572:    4652           00031                           ADRES    TRACKFLG
000573:    4653           05562                           TC       UPFLAG
000574:    4654           00027                           ADRES    UPDATFLG
000575:    4655           01770                           TC       SUBEXIT                               #  DP B4
000576:
000577:

End of include-file P30,P37.agc.  Parent file is MAIN.agc


