
Source Code


000002:                                                                                                  ## Copyright:   Public domain.
000003:                                                                                                  ## Filename:    P34-P35,_P74-P75.agc
000004:                                                                                                  ## Purpose:     A section of Comanche revision 067.
000005:                                                                                                  ##              It is part of the reconstructed source code for the flight
000006:                                                                                                  ##              software for the Command Module's (CM) Apollo Guidance Computer
000007:                                                                                                  ##              (AGC) for Apollo 12. No original listings of this program are
000008:                                                                                                  ##              available; instead, this file was created via dissassembly of
000009:                                                                                                  ##              dumps of Comanche 067 core rope modules and comparison with
000010:                                                                                                  ##              other AGC programs.
000011:                                                                                                  ## Assembler:   yaYUL
000012:                                                                                                  ## Contact:     Ron Burkey <info@sandroid.org>.
000013:                                                                                                  ## Website:     www.ibiblio.org/apollo/index.html
000014:                                                                                                  ## Mod history: 2023-08-16 MAS  Created from Comanche 055.
000015:                                                                                                  ##              2024-03-15 MAS  Updated for Comanche 067.
000016:
000017:                                                                                                  #  TRANSFER PHASE INITIATION (TPI) PROGRAMS (P34 AND P74)
000018:                                                                                                  #  MOD NO -1                     LOG SECTION - P32-P35, P72-P75
000019:                                                                                                  #  MOD BY WHITE.P                DATE 1JUNE67
000020:
000021:                                                                                                  #  PURPOSE
000022:                                                                                                  #        (1)     TO CALCULATE THE REQUIRED DELTA V AND OTHER INITIAL CONDITIONS
000023:                                                                                                  #                REQUIRED BY THE ACTIVE VEHICLE FOR EXECUTION OF THE TRANSFER
000024:                                                                                                  #                PHASE INITIATION (TPI) MANEUVER, GIVEN -
000025:                                                                                                  #                (A)     TIME OF IGNITION TIG (TPI) OR THE ELEVATION ANGLE (E) OF
000026:                                                                                                  #                        THE ACTIVE/PASSIVE VEHICLE LOS AT TIG (TPI).
000027:                                                                                                  #                (B)     CENTRAL ANGLE OF TRANSFER (CENTANG) FROM TIG (TPI) TO
000028:                                                                                                  #                        INTERCEPT TIME (TIG (TPF)).
000029:                                                                                                  #        (2)     TO CALCULATE TIG (TPI) GIVEN E OR E GIVEN TIG (TPI).
000030:                                                                                                  #        (3)     TO CALCULATE THESE PARAMETERS BASED UPON MANEUVER DATA
000031:                                                                                                  #                APPROVED AND KEYED INTO THE DSKY BY THE ASTRONAUT.
000032:                                                                                                  #        (4)     TO DISPLAY TO THE ASTRONAUT AND THE GROUND CERTAIN DEPENDENT
000033:                                                                                                  #                VARIABLES ASSOCIATED WITH THE MANEUVER FOR APPROVAL BY THE
000034:                                                                                                  #                ASTRONAUT/GROUND.
000035:                                                                                                  #        (5)     TO STORE THE TPI TARGET PARAMETERS FOR USE BY THE DESIRED
000036:                                                                                                  #                THRUSTING PROGRAM.
000037:
000038:                                                                                                  #  ASSUMPTIONS
000039:                                                                                                  #        (1)     LM ONLY - THIS PROGRAM IS BASED UPON PREVIOUS COMPLETION OF
000040:                                                                                                  #                THE CONSTANT DELTA ALTITUDE (CDH) PROGRAM (P33/P73).
000041:                                                                                                  #                THEREFORE -
000042:                                                                                                  #                (A)     AT A SELECTED TPI TIME (NOW IN STORAGE) THE LINE OF SIGHT
000043:                                                                                                  #                        BETWEEN THE ACTIVE AND PASSIVE VEHICLES WAS SELECTED TO BE
000044:                                                                                                  #                        A PRESCRIBED ANGLE (E) (NOW IN STORAGE) FROM THE
000045:                                                                                                  #                        HORIZONTAL PLANE DEFINED BY THE ACTIVE VEHICLE POSITION.
000046:                                                                                                  #                (B)     THE TIME BETWEEN CDH IGNITION AND TPI IGNITION WAS
000047:                                                                                                  #                        COMPUTED TO BE GREATER THAN 10 MINUTES.
000048:                                                                                                  #                (C)     THE VARIATION OF THE ALTITUDE DIFFERENCE BETWEEN THE
000049:                                                                                                  #                        ORBITS WAS MINIMIZED.
000050:                                                                                                  #                (D)     THE PERICENTER ALTITUDES OF ORBITS FOLLOWING CSI AND
000051:                                                                                                  #                        CDH WERE COMPUTED TO BE GREATER THAN 35,000 FT FOR LUNAR
000052:                                                                                                  #                        ORBIT OR 85 NM FOR EARTH ORBIT.
000053:                                                                                                  #                (E)     THE CSI AND CDH MANEUVERS WERE ASSUMED TO BE PARALLEL TO
000054:                                                                                                  #                        THE PLANE OF THE PASSIVE VEHICLE ORBIT.  HOWEVER, CREW
000055:                                                                                                  #                        MODIFICATION OF DELTA V (LV) COMPONENTS MAY HAVE RESULTED
000056:                                                                                                  #                        IN AN OUT-OF-PLANE MANEUVER.
000057:                                                                                                  #        (2)     STATE VECTOR UPDATED BY P27 ARE DISALLOWED DURING AUTOMATIC
000058:                                                                                                  #                STATE VECTOR UPDATING INITIATED BY P20 (SEE ASSUMPTION (4)).
000059:                                                                                                  #        (3)     THIS PROGRAM MUST BE DONE OVER A TRACKING STATION FOR REAL
000060:                                                                                                  #                TIME GROUND PARTICIPATION IN DATA INPUT AND OUTPUT.  COMPUTED
000061:                                                                                                  #                VARIABLES MAY BE STORED FOR LATER VERIFICATION BY THE GROUND.
000062:                                                                                                  #                THESE STORAGE CAPABILITIES ARE LIMITED ONLY TO THE PARAMETERS
000063:                                                                                                  #                FOR ONE THRUSTING MANEUVER AT A TIME EXCEPT FOR CONCENTRIC
000064:                                                                                                  #                FLIGHT PLAN MANEUVER SEQUENCES.
000065:                                                                                                  #        (4)     THE RENDEZVOUS RADAR MAY OR MAY NOT BE USED TO UPDATE THE LM
000066:                                                                                                  #                OR CSM STATE VECTORS FOR THIS PROGRAM.  IF RADAR USE IS
000067:                                                                                                  #                DESIRED THE RADAR WAS TURNED ON AND LOCKED ON THE CSM BY
000068:                                                                                                  #                PREVIOUS SELECTION OF P20.  RADAR SIGHTING MARKS WILL BE MADE
000069:                                                                                                  #                AUTOMATICALLY APPROXIMATELY ONCE A MINUTE WHEN ENABLED BY THE
000070:                                                                                                  #                TRACK AND UPDATE FLAGS (SEE P20).  THE RENDEZVOUS TRACKING
000071:                                                                                                  #                MARK COUNTER IS ZEROED BY THE SELECTION OF P20 AND AFTER EACH
000072:                                                                                                  #                THRUSTING MANEUVER.
000073:                                                                                                  #        (5)     THE ISS NEED NOT BE ON TO COMPLETE THIS PROGRAM.
000074:                                                                                                  #        (6)     THE OPERATION OF THE PROGRAM UTILIZES THE FOLLOWING FLAGS -
000075:
000076:                                                                                                  #                        ACTIVE VEHICLE FLAG - DESIGNATES THE VEHICLE WHICH IS
000077:                                                                                                  #                        DOING RENDEZVOUS THRUSTING MANEUVERS TO THE PROGRAM WHICH
000078:                                                                                                  #                        CALCULATES THE MANEUVER PARAMETERS.  SET AT THE START OF
000079:                                                                                                  #                        EACH RENDEZVOUS PRE-THRUSTING PROGRAM.
000080:
000081:                                                                                                  #                        FINAL FLAG - SELECTS FINAL PROGRAM DISPLAYS AFTER CREW HAS
000082:                                                                                                  #                        SELECTED THE FINAL MANEUVER COMPUTATION CYCLE.
000083:
000084:                                                                                                  #                        EXTERNAL DELTA V FLAG - DESIGNATES THE TYPE OF STEERING
000085:                                                                                                  #                        REQUIRED FOR EXECUTION OF THIS MANEUVER BY THE THRUSTING
000086:                                                                                                  #                        PROGRAM SELECTED AFTER COMPLETION OF THIS PROGRAM.
000087:
000088:                                                                                                  #        (7)     ONCE THE PARAMETWRS REQUIRED FOR COMPUTION OF THE MANEUVER
000089:                                                                                                  #                HAVE BEEN COMPLETELY SPECIFIED, THE VALUE OF THE ACTIVE
000090:                                                                                                  #                VEHICLE CENTRAL ANGLE OF TRANSFER IS COMPUTED AND STORED.
000091:                                                                                                  #                THIS NUMBER WILL BE AVAILABLE FOR DISPLAY TO THE ASTRONAUT
000092:                                                                                                  #                THROUGH THE USE OF V06N52.
000093:
000094:                                                                                                  #                THE ASTRONAUT WILL CALL THIS DISPLAY TO VERIFY THAT THE
000095:                                                                                                  #                CENTRAL ANGLE OF TRANSFER OF THE ACTIVE VEHICLE IS NOT WITHIN
000096:                                                                                                  #                170 TO 190 DEGREES.  IF THE ANGLE IS WITHIN THIS ZONE THE
000097:                                                                                                  #                ASTRONAUT SHOULD REASSESS THE INPUT TARGETING PARAMETERS BASED
000098:                                                                                                  #                UPON DELTA V AND EXPECTED MANEUVER TIME.
000099:                                                                                                  #        (8)     THIS PROGRAM IS SELECTED BY THE ASTRONAUT BY DSKY ENTRY -
000100:
000101:                                                                                                  #                        P34 IF THIS VEHICLE IS ACTIVE VEHICLE.
000102:
000103:                                                                                                  #                        P74 IF THIS VEHICLE IS PASSIVE VEHICLE.
000104:
000105:                                                                                                  #  INPUT
000106:                                                                                                  #        (1)     TTPI    TIME OF THE TPI MANEUVER
000107:                                                                                                  #        (2)     ELEV    DESIRED LOS ANGLE AT TPI
000108:                                                                                                  #        (3)     CENTANG ORBITAL CENTRAL ANGLE OF THE PASSIVE VEHICLE DURING
000109:                                                                                                  #                        TRANSFER FROM TPI TO TIME OF INTERCEPT
000110:
000111:                                                                                                  #  OUTPUT
000112:                                                                                                  #        (1)     TRKMKCNT        NUMBER OF MARKS
000113:                                                                                                  #        (2)     TTOGO           TIME TO GO
000114:                                                                                                  #        (3)     +MGA            MIDDLE GIMBAL ANGLE
000115:                                                                                                  #        (4)     TTPI            COMPUTED TIME OF TPI MANEUVER
000116:                                                                                                  #                 OR
000117:                                                                                                  #                ELEV            COMPUTED LOS ANGLE AT TPI
000118:                                                                                                  #        (5)     POSTTPI         PERIGEE ALTITUDE AFTER THE TPI MANEUVER
000119:                                                                                                  #        (6)     DELVTPI         MAGNITUDE OF DELTA V AT TPI
000120:                                                                                                  #        (7)     DELVTPF         MAGNITUDE OF DELTA V AT INTERCEPT
000121:                                                                                                  #        (8)     DVLOS           DELTA VELOCITY AT TPI - LINE OF SIGHT
000122:                                                                                                  #        (9)     DELVLVC         DELTA VELOCITY AT TPI - LOCAL VERTICAL COORDINATES
000123:
000124:                                                                                                  #  DOWNLINK
000125:                                                                                                  #        (1)     TTPI            TIME OF THE TPI MANEUVER
000126:                                                                                                  #        (2)     TIG             TIME OF THE TPI MANEUVER
000127:                                                                                                  #        (3)     ELEV            DESIRED LOS ANGLE AT TPI
000128:                                                                                                  #        (4)     CENTANG         ORBITAL CENTRAL ANGLE OF THE PASSIVE VEHICLE DURING
000129:                                                                                                  #                                TRANSFER FROM TPI TO TIME OF INTERCEPT
000130:                                                                                                  #        (5)     DELVEET3        DELTA VELOCITY AT TPI - REFERENCE COORDINATES
000131:                                                                                                  #        (6)     TPASS4          TIME OF INTERCEPT
000132:
000133:                                                                                                  #  COMMUNICATION TO THRUSTING PROGRAMS
000134:                                                                                                  #        (1)     TIG             TIME OF THE TPI MANEUVER
000135:                                                                                                  #        (2)     RTARG           OFFSET TARGET POSITION
000136:                                                                                                  #        (3)     TPASS4          TIME OF INTERCEPT
000137:                                                                                                  #        (4)     XDELVFLG        RESET TO INDICATE LAMBERT (AIMPOINT) VG COMPUTATION
000138:
000139:                                                                                                  #  SUBROUTINES USED
000140:                                                                                                  #        AVFLAGA
000141:                                                                                                  #        AVFLAGP
000142:                                                                                                  #        VNPOOH
000143:                                                                                                  #        DISPLAYE
000144:                                                                                                  #        SELECTMU
000145:                                                                                                  #        PRECSET
000146:                                                                                                  #        S33/34.1
000147:                                                                                                  #        ALARM
000148:                                                                                                  #        BANKCALL
000149:                                                                                                  #        GOFLASH
000150:                                                                                                  #        GOTOPOOH
000151:                                                                                                  #        TIMETHET
000152:                                                                                                  #        S34/35.2
000153:                                                                                                  #        PERIAPO1
000154:                                                                                                  #        SHIFTR1
000155:                                                                                                  #        S34/35.5
000156:                                                                                                  #        VN1645
000157:
000158: 35,2000                                           SETLOC   CSI/CDH
000159: 35,2000                                           BANK
000160: 35,2000  E4,1770                                  EBANK=   SUBEXIT
000161: 35,2000                                           COUNT    35/P3474
000162:
000163: 35,2000           04627        P34                TC       AVFLAGA
000164: 35,2001           02003                           TC       P34/P74A
000165: 35,2002           04642        P74                TC       AVFLAGP
000166: 35,2003           04647        P34/P74A           TC       P20FLGON                              #  SET UPDATFLG, TRACKFLG
000167: 35,2004           34614                           CAF      V06N37                                #  TTPI
000168: 35,2005           04575                           TC       VNPOOH
000169: 35,2006           06006                           TC       INTPRET
000170: 35,2007           77531                           SSP      EXIT
000171: 35,2010           03766                                    NN
000172: 35,2011           00000                                    0
000173: 35,2012           03070                           TC       DISPLAYE                              #  ELEV AND CENTANG
000174: 35,2013           06006                           TC       INTPRET
000175: 35,2014           71214                           CLEAR    DLOAD
000176: 35,2015           01270                                    ETPIFLAG
000177: 35,2016           03663                                    TTPI
000178: 35,2017           17413                           STODL    TIG
000179: 35,2020           03744                                    ELEV
000180: 35,2021           43054                           BZE      SET
000181: 35,2022           72024                                    P34/P74B
000182: 35,2023           01070                                    ETPIFLAG
000183: 35,2024           77624        P34/P74B           CALL
000184: 35,2025           10712                                    SELECTMU
000185: 35,2026                        DELELO             EQUALS   26D
000186: 35,2026           43145        P34/P74C           DLOAD    SET
000187: 35,2027           15334                                    ZEROVECS
000188: 35,2030           03461                                    ITSWICH
000189: 35,2031           43014                           BON      CLEAR
000190: 35,2032           01310                                    ETPIFLAG
000191: 35,2033           72035                                    SWCHSET
000192: 35,2034           03661                                    ITSWICH
000193: 35,2035           02364        SWCHSET            STORE    NOMTPI
000194: 35,2036           43345        INTLOOP            DLOAD    DAD
000195: 35,2037           03663                                    TTPI
000196: 35,2040           02364                                    NOMTPI
000197: 35,2041           34041                           STCALL   TDEC1
000198: 35,2042           45215                                    PRECSET
000199: 35,2043           77624                           CALL
000200: 35,2044           72216                                    S33/34.1
000201: 35,2045           77454                           BZE      EXIT
000202: 35,2046           72057                                    SWCHCLR
000203: 35,2047           05664                           TC       ALARM
000204: 35,2050           00611                           OCT      611
000205: 35,2051           35064                           CAF      V05N09
000206: 35,2052           04676                           TC       BANKCALL
000207: 35,2053           20720                           CADR     GOFLASH
000208: 35,2054           04106                           TC       GOTOPOOH
000209: 35,2055           02003                           TC       P34/P74A                              #  PROCEED
000210: 35,2056           02047                           TC       -7                                    #  V32
000211:
000212: 35,2057           43014        SWCHCLR            BONCLR   BON
000213: 35,2060           03601                                    ITSWICH
000214: 35,2061           72036                                    INTLOOP
000215: 35,2062           01310                                    ETPIFLAG
000216: 35,2063           72067                                    P34/P74D                              #  DISPLAY TTPI
000217: 35,2064           77776                           EXIT
000218: 35,2065           03070                           TC       DISPLAYE                              #  DISPLAY ELEV AND CENTANG
000219: 35,2066           02072                           TC       P34/P74E
000220: 35,2067           77776        P34/P74D           EXIT
000221: 35,2070           34614                           CAF      V06N37                                #  TTPI
000222: 35,2071           04575                           TC       VNPOOH
000223: 35,2072           06006        P34/P74E           TC       INTPRET
000224: 35,2073           71201                           SETPD    DLOAD
000225: 35,2074           00001                                    0D
000226: 35,2075           03746                                    RTX1
000227: 35,2076           14047                           STODL    X1
000228: 35,2077           03754                                    CENTANG
000229: 35,2100           71406                           PUSH     COS
000230: 35,2101           16734                           STODL    CSTH
000231: 35,2102           77756                           SIN
000232: 35,2103           26732                           STOVL    SNTH
000233: 35,2104           03554                                    RPASS3
000234: 35,2105           77657                           VSR*
000235: 35,2106           57176                                    0,2
000236: 35,2107           26657                           STOVL    RVEC
000237: 35,2110           03562                                    VPASS3
000238: 35,2111           43057                           VSR*     SET
000239: 35,2112           57176                                    0,2
000240: 35,2113           03466                                    RVSW
000241: 35,2114           36746                           STCALL   VVEC
000242: 35,2115           24744                                    TIMETHET
000243: 35,2116           77745                           DLOAD
000244: 35,2117           03663                                    TTPI
000245: 35,2120           03503                           STORE    INTIME                                #  FOR INITVEL
000246: 35,2121           77615                           DAD
000247: 35,2122           00037                                    T                                     #  RENDEZVOUS TIME
000248: 35,2123           37656                           STCALL   TPASS4                                #  FOR INITVEL
000249: 35,2124           72526                                    S34/35.2
000250: 35,2125           51575                           VLOAD    ABVAL
000251: 35,2126           03646                                    DELVEET3
000252: 35,2127           26635                           STOVL    DELVTPI
000253: 35,2130           03640                                    VPASS4
000254: 35,2131           51451                           VSU      ABVAL
000255: 35,2132           03620                                    VTPRIME
000256: 35,2133           26637                           STOVL    DELVTPF
000257: 35,2134           03540                                    RACT3
000258: 35,2135           45115                           PDVL     CALL
000259: 35,2136           03612                                    VIPRIME
000260: 35,2137           45153                                    PERIAPO1
000261: 35,2140           77624                           CALL
000262: 35,2141           45263                                    SHIFTR1
000263: 35,2142           16641                           STODL    POSTTPI
000264: 35,2143           03663                                    TTPI
000265: 35,2144           03413                           STORE    TIG
000266: 35,2145           77776                           EXIT
000267: 35,2146           34616                           CAF      V06N58
000268: 35,2147           04575                           TC       VNPOOH
000269: 35,2150           06006                           TC       INTPRET
000270: 35,2151           77624                           CALL
000271: 35,2152           72741                                    S34/35.5
000272: 35,2153           77624                           CALL
000273: 35,2154           73002                                    VN1645
000274: 35,2155           77650                           GOTO
000275: 35,2156           72026                                    P34/P74C
000276:
000277:                                                                                                  #  RENDEZVOUS MID-COURSE MANEUVER PROGRAMS (P35 AND P75)
000278:                                                                                                  #  MOD NO -1                     LOG SECTION - P32-P35, P72-P75
000279:                                                                                                  #  MOD BY WHITE.P                DATE  1JUNE67
000280:
000281:                                                                                                  #  PURPOSE
000282:                                                                                                  #        (1)     TO CALCULATE THE REQUIRED DELTA V AND OTHER INITIAL CONDITIONS
000283:                                                                                                  #                REQUIRED BY THE ACTIVE VEHICLE FOR EXECUTION OF THE NEXT
000284:                                                                                                  #                MIDCOURSE CORRECTION OF THE TRANSFER PHASE OF AN ACTIVE
000285:                                                                                                  #                VEHICLE RENDEZVOUS.
000286:                                                                                                  #        (2)     TO DISPLAY TO THE ASTRONAUT AND THE GROUND CERTAIN DEPENDENT
000287:                                                                                                  #                VARIABLES ASSOCIATED WITH THE MANEUVER FOR APPROVAL BY THE
000288:                                                                                                  #                ASTRONAUT/GROUND.
000289:                                                                                                  #        (3)     TO STORE THE TPM TARGET PARAMETERS FOR USE BY THE DESIRED
000290:                                                                                                  #                THRUSTING PROGRAM.
000291:
000292:                                                                                                  #  ASSUMPTIONS
000293:                                                                                                  #        (1)     THE ISS NEED NOT BE ON TO COMPLETE THIS PROGRAM.
000294:                                                                                                  #        (2)     STATE VECTOR UPDATES BY P27 ARE DISALLOWED DURING AUTOMATIC
000295:                                                                                                  #                STATE VECTOR UPDATING INITIATED BY P20 (SEE ASSUMPTION (3)).
000296:                                                                                                  #        (3)     THE RENDEZVOUS RADAR IS ON AND IS LOCKED ON THE CSM.  THIS WAS
000297:                                                                                                  #                DONE DURING PREVIOUS SELECTION OF P20.  RADAR SIGHTING MARKS
000298:                                                                                                  #                WILL BE MADE AUTOMATICALLY APPROXIMATELY ONCE A MINUTE WHEN
000299:                                                                                                  #                ENABLED BY THE TRACK AND UPDATE FLAGS (SEE P20).  THE
000300:                                                                                                  #                RENDEZVOUS TRACKING MARK COUNTER IS ZEROED BY THE SELECTION OF
000301:                                                                                                  #                P20 AND AFTER EACH THRUSTING MANEUVER.
000302:                                                                                                  #        (4)     THE OPERATION OF THE PROGRAM UTILIZES THE FOLLOWING FLAGS -
000303:
000304:                                                                                                  #                        ACTIVE VEHICLE FLAG - DESIGNATES THE VEHICLE WHICH IS
000305:                                                                                                  #                        DOING RENDEZVOUS THRUSTING MANEUVERS TO THE PROGRAM WHICH
000306:                                                                                                  #                        CALCULATES THE MANEUVER PARAMETERS.  SET AT THE START OF
000307:                                                                                                  #                        EACH RENDEZVOUS PRE-THRUSTING PROGRAM.
000308:
000309:                                                                                                  #                        FINAL FLAG - SELECTS FINAL PROGRAM DISPLAYS AFTER CREW HAS
000310:                                                                                                  #                        SELECTED THE FINAL MANEUVER COMPUTATION CYCLE.
000311:
000312:                                                                                                  #                        EXTERNAL DELTA V FLAG - DESIGNATES THE TYPE OF STEERING
000313:                                                                                                  #                        REQUIRED FOR EXECUTION OF THIS MANEUVER BY THE THRUSTING
000314:                                                                                                  #                        PROGRAM SELECTED AFTER COMPLETION OF THIS PROGRAM.
000315:
000316:                                                                                                  #        (5)     THE TIME OF INTERCEPT (T(INT)) WAS DEFINED BY PREVIOUS
000317:                                                                                                  #                COMPLETION OF THE TRANSFER PHASE INITIATION (TPI) PROGRAM
000318:                                                                                                  #                (P34/P74) AND IS PRESENTLY AVAILABLE IN STORAGE.
000319:                                                                                                  #        (6)     ONCE THE PARAMETERS REQUIRED FOR COMPUTION OF THE MANEUVER
000320:                                                                                                  #                HAVE BEEN COMPLETELY SPECIFIED, THE VALUE OF THE ACTIVE
000321:                                                                                                  #                VEHICLE CENTRAL ANGLE OF TRANSFER IS COMPUTED AND STORED.
000322:                                                                                                  #                THIS NUMBER WILL BE AVAILABLE FOR DISPLAY TO THE ASTRONAUT
000323:                                                                                                  #                THROUGH THE USE OF V06N52.
000324:
000325:                                                                                                  #                THE ASTRONAUT WILL CALL THIS DISPLAY TO VERIFY THAT THE
000326:                                                                                                  #                CENTRAL ANGLE OF TRANSFER OF THE ACTIVE VEHICLE IS NOT WITHIN
000327:                                                                                                  #                170 TO 190 DEGREES.  IF THE ANGLE IS WITHIN THIS ZONE THE
000328:                                                                                                  #                ASTRONAUT SHOULD REASSESS THE INPUT TARGETING PARAMETERS BASED
000329:                                                                                                  #                UPON DELTA V AND EXPECTED MANEUVER TIME.
000330:                                                                                                  #        (7)     THIS PROGRAM IS SELECTED BY THE ASTRONAUT BY DSKY ENTRY -
000331:
000332:                                                                                                  #                        P35 IF THIS VEHICLE IS ACTIVE VEHICLE.
000333:
000334:                                                                                                  #                        P75 IF THIS VEHICLE IS PASSIVE VEHICLE.
000335:
000336:                                                                                                  #  INPUT
000337:                                                                                                  #        (1)     TPASS4          TIME OF INTERCEPT - SAVED FROM P34/P74
000338:
000339:                                                                                                  #  OUTPUT
000340:                                                                                                  #        (1)     TRKMKCNT        NUMBER OF MARKS
000341:                                                                                                  #        (2)     TTOGO           TIME TO GO
000342:                                                                                                  #        (3)     +MGA            MIDDLE GIMBAL ANGLE
000343:                                                                                                  #        (4)     DVLOS           DELTA VELOCITY AT MID - LINE OF SIGHT
000344:                                                                                                  #        (5)     DELVLVC         DELTA VELOCITY AT MID - LOCAL VERTICAL COORDINATES
000345:
000346:                                                                                                  #  DOWNLINK
000347:                                                                                                  #        (1)     TIG             TIME OF THE TPM MANEUVER
000348:                                                                                                  #        (2)     DELVEET3        DELTA VELOCITY AT TPM - REFERENCE COORDINATES
000349:                                                                                                  #        (3)     TPASS4          TIME OF INTERCEPT
000350:
000351:                                                                                                  #  COMMUNICATION TO THRUSTING PROGRAMS
000352:                                                                                                  #        (1)     TIG             TIME OF THE TPM MANEUVER
000353:                                                                                                  #        (2)     RTARG           OFFSET TARGET POSITION
000354:                                                                                                  #        (3)     TPASS4          TIME OF INTERCEPT
000355:                                                                                                  #        (4)     XDELVFLG        RESET TO INDICATE LAMBERT (AIMPOINT) VG COMPUTATION
000356:
000357:                                                                                                  #  SUBROUTINES USED
000358:                                                                                                  #        AVFLAGA
000359:                                                                                                  #        AVFLAGP
000360:                                                                                                  #        LOADTIME
000361:                                                                                                  #        SELECTMU
000362:                                                                                                  #        PRECSET
000363:                                                                                                  #        S34/35.1
000364:                                                                                                  #        S34/35.2
000365:                                                                                                  #        S34/35.5
000366:                                                                                                  #        VN1645
000367:
000368: 35,2157                                           COUNT    35/P3575
000369: 35,2157  E4,1763                                  EBANK=   KT
000370:
000371: 35,2157           04627        P35                TC       AVFLAGA
000372: 35,2160           00006                           EXTEND
000373: 35,2161           31422                           DCA      ATIGINC
000374: 35,2162           02166                           TC       P35/P75A
000375: 35,2163           04642        P75                TC       AVFLAGP
000376: 35,2164           00006                           EXTEND
000377: 35,2165           31424                           DCA      PTIGINC
000378: 35,2166           53764        P35/P75A           DXCH     KT
000379: 35,2167           04647                           TC       P20FLGON                              #  SET UPDATFLG, TRACKFLG
000380: 35,2170           06006                           TC       INTPRET
000381: 35,2171           77624                           CALL
000382: 35,2172           10712                                    SELECTMU
000383: 35,2173           77634        P35/P75B           RTB
000384: 35,2174           45510                                    LOADTIME
000385: 35,2175           03665                           STORE    TSTRT
000386: 35,2176           77615                           DAD
000387: 35,2177           02364                                    KT
000388: 35,2200           03413                           STORE    TIG
000389: 35,2201           03503                           STORE    INTIME                                #  FOR INITVEL
000390: 35,2202           34041                           STCALL   TDEC1
000391: 35,2203           45215                                    PRECSET                               #  ADVANCE BOTH VEHICLES
000392: 35,2204           77624                           CALL
000393: 35,2205           74000                                    S34/35.1                              #  GET NORM AND LOS FOR TRANSFORM
000394: 35,2206           77624                           CALL
000395: 35,2207           72526                                    S34/35.2                              #  GET DELTA V(LV)
000396: 35,2210           77624                           CALL
000397: 35,2211           72741                                    S34/35.5
000398: 35,2212           77624                           CALL
000399: 35,2213           73002                                    VN1645
000400: 35,2214           77650                           GOTO
000401: 35,2215           72173                                    P35/P75B
000402:                                                                                                  #  ..... S33/34.1 .....
000403:
000404: 35,2216           66220        S33/34.1           STQ      SSP
000405: 35,2217           01340                                    NORMEX
000406: 35,2220           03665                                    TITER
000407: 35,2221           40000                           OCT      40000
000408: 35,2222           40345                           DLOAD    SETPD
000409: 35,2223           33111                                    MAX250
000410: 35,2224           00001                                    0D
000411: 35,2225           27454                           STOVL    SECMAX
000412: 35,2226           03540                                    RACT3
000413: 35,2227           27576                           STOVL    RAPREC
000414: 35,2230           03546                                    VACT3
000415: 35,2231           27570                           STOVL    VAPREC
000416: 35,2232           03554                                    RPASS3
000417: 35,2233           27620                           STOVL    RPPREC
000418: 35,2234           03562                                    VPASS3
000419: 35,2235           03612                           STORE    VPPREC
000420: 35,2236           77624        ELCALC             CALL
000421: 35,2237           74000                                    S34/35.1                              #  NORMAL AND LOS
000422: 35,2240           63235                           VXV      PDVL
000423: 35,2241           03540                                    RACT3                                 #  (RA*VA)*RA 0D
000424: 35,2242           53515                           PDVL     UNIT                                  #  ULOS AT 6D
000425: 35,2243           03540                                    RACT3
000426: 35,2244           46315                           PDVL     VPROJ                                 #  XCHNJ AND UP
000427: 35,2245           51352                           VSL2     BVSU
000428: 35,2246           02625                                    ULOS
000429: 35,2247           63256                           UNIT     PDVL                                  #  UP AT 0D
000430: 35,2250           63241                           DOT      PDVL                                  #  UP.UN*RA AT 0D
000431: 35,2251           00001                                    0D                                    #  UP IN MPAC
000432: 35,2252           75241                           DOT      SIGN
000433: 35,2253           02625                                    ULOS
000434: 35,2254           65552                           SL1      ACOS
000435: 35,2255           50315                           PDVL     DOT                                   #  EA AT 0D
000436: 35,2256           02625                                    ULOS
000437: 35,2257           03540                                    RACT3
000438: 35,2260           71244                           BPL      DLOAD
000439: 35,2261           72264                                    TESTY
000440: 35,2262           15342                                    DPPOSMAX
000441: 35,2263           41425                           DSU      PUSH
000442: 35,2264           71214        TESTY              BOFF     DLOAD
000443: 35,2265           03741                                    ITSWICH
000444: 35,2266           72513                                    ELEX
000445: 35,2267           03452                                    DELEL
000446: 35,2270           14033                           STODL    DELELO
000447: 35,2271           77625                           DSU
000448: 35,2272           03744                                    ELEV
000449: 35,2273           03452                           STORE    DELEL
000450: 35,2274           45246                           ABS      DSU
000451: 35,2275           33115                                    ELEPS
000452: 35,2276           77640                           BMN
000453: 35,2277           72523                                    TIMEX                                 #  COMMERCIALS EVERYWHERE
000454: 35,2300           70535        FIGTIME            SLOAD    SR1
000455: 35,2301           03665                                    TITER
000456: 35,2302           72030                           BHIZ     LXA,1
000457: 35,2303           01340                                    NORMEX                                #  TOO MANY ITERATIONS
000458: 35,2304           00154                                    MPAC
000459: 35,2305           77330                           SXA,1    VLOAD
000460: 35,2306           03664                                    TITER
000461: 35,2307           03554                                    RPASS3
000462: 35,2310           65256                           UNIT     PDDL
000463: 35,2311           00045                                    36D
000464: 35,2312           53515                           PDVL     UNIT
000465: 35,2313           03540                                    RACT3
000466: 35,2314           77725                           PDDL
000467: 35,2315           41525                           PDDL     PUSH
000468: 35,2316           00045                                    36D
000469: 35,2317           77621                           BDSU
000470: 35,2320           00015                                    12D
000471: 35,2321           14037                           STODL    30D                                   #  RP-RA MAGNITUDES
000472: 35,2322           15332                                    DPHALF
000473: 35,2323           41425                           DSU      PUSH
000474: 35,2324           03744                                    ELEV
000475: 35,2325           50165                           SIGN     BMN
000476: 35,2326           00037                                    30D
000477: 35,2327           01340                                    NORMEX
000478: 35,2330           71545                           DLOAD    COS
000479: 35,2331           56205                           DMP      DDV
000480: 35,2332           00017                                    14D
000481: 35,2333           00015                                    12D
000482: 35,2334           77676                           DCOMP                                          #  SINCE COS(180-A)=-COS A
000483: 35,2335           00035                           STORE    28D
000484: 35,2336           44246                           ABS      BDSU
000485: 35,2337           15332                                    DPHALF
000486: 35,2340           77240                           BMN      VLOAD
000487: 35,2341           01340                                    NORMEX
000488: 35,2342           02617                                    UNRM
000489: 35,2343           53435                           VXV      UNIT
000490: 35,2344           00007                                    6D                                    #  UN*RA
000491: 35,2345           41241                           DOT      DMP
000492: 35,2346           03546                                    VACT3
000493: 35,2347           00015                                    12D
000494: 35,2350           47315                           PDVL     VXV
000495: 35,2351           00001                                    0D
000496: 35,2352           03562                                    VPASS3
000497: 35,2353           53435                           VXV      UNIT
000498: 35,2354           00001                                    0D                                    #  (RP*VP)*RP
000499: 35,2355           41241                           DOT      DMP
000500: 35,2356           03562                                    VPASS3
000501: 35,2357           00017                                    14D
000502: 35,2360           77621                           BDSU
000503: 35,2361           63301                           NORM     PDVL                                  #  NORMALIZED WA-WP 12D
000504: 35,2362           00047                                    X1
000505: 35,2363           00007                                    6D
000506: 35,2364           50235                           VXV      DOT
000507: 35,2365           00001                                    0D
000508: 35,2366           02617                                    UNRM                                  #  RA*RP.UN 14D
000509: 35,2367           50315                           PDVL     DOT
000510: 35,2370           00001                                    0D
000511: 35,2371           00007                                    6D
000512: 35,2372           65552                           SL1      ACOS
000513: 35,2373           77765                           SIGN
000514: 35,2374           43225                           DSU      DAD                                   #  ALPHA PI
000515: 35,2375           15332                                    DPHALF
000516: 35,2376           03744                                    ELEV
000517: 35,2377           65525                           PDDL     ACOS
000518: 35,2400           00035                                    28D
000519: 35,2401           75221                           BDSU     SIGN
000520: 35,2402           15332                                    DPHALF
000521: 35,2403           00037                                    30D                                   #  CONTAINS RP-RA
000522: 35,2404           77615                           DAD
000523: 35,2405           56205                           DMP      DDV
000524: 35,2406           33107                                    TWOPI
000525: 35,2407           77605                           DMP
000526: 35,2410           41257                           SL*      DMP
000527: 35,2411           20176                                    0          -3,1
000528: 35,2412           51406                           PUSH     ABS
000529: 35,2413           50025                           DSU      BMN
000530: 35,2414           03454                                    SECMAX
000531: 35,2415           72421                                    OKMAX
000532: 35,2416           75345                           DLOAD    SIGN                                  #  REPLACE TIME WITH MAX TIME SIGNED
000533: 35,2417           03454                                    SECMAX
000534: 35,2420           77606                           PUSH
000535: 35,2421           51135        OKMAX              SLOAD    BPL                                   #  TEST FIRST ITERATION
000536: 35,2422           03665                                    TITER
000537: 35,2423           72431                                    REPETE
000538: 35,2424           71331                           SSP      DLOAD
000539: 35,2425           03665                                    TITER
000540: 35,2426           37777                           OCT      37777
000541: 35,2427           77650                           GOTO
000542: 35,2430           72467                                    STORDELT
000543: 35,2431           41345        REPETE             DLOAD    DMP
000544: 35,2432           03452                                    DELEL
000545: 35,2433           00033                                    DELELO
000546: 35,2434           71244                           BPL      DLOAD
000547: 35,2435           72445                                    NEXTES
000548: 35,2436           03454                                    SECMAX
000549: 35,2437           77605                           DMP
000550: 35,2440           33113                                    THIRD
000551: 35,2441           17454                           STODL    SECMAX
000552: 35,2442           70446                           ABS      SR1                                   #  CROSSED OVER SOLUTION
000553: 35,2443           52076                           DCOMP    GOTO                                  #  DT=(-SIGN(DTO)//DT//)/2
000554: 35,2444           72455                                    RESIGN
000555: 35,2445           51545        NEXTES             DLOAD    ABS
000556: 35,2446           03452                                    DELEL
000557: 35,2447           51525                           PDDL     ABS
000558: 35,2450           00033                                    DELELO
000559: 35,2451           77625                           DSU
000560: 35,2452           71240                           BMN      DLOAD
000561: 35,2453           72460                                    REVERS                                #  WRONG DIRECTION
000562: 35,2454           77646                           ABS
000563: 35,2455           52165        RESIGN             SIGN     GOTO
000564: 35,2456           03450                                    DELTEEO
000565: 35,2457           72467                                    STORDELT
000566: 35,2460           57545        REVERS             DLOAD    DCOMP
000567: 35,2461           03450                                    DELTEEO
000568: 35,2462           70406                           PUSH     SR1
000569: 35,2463           03450                           STORE    DELTEEO
000570: 35,2464           77615                           DAD
000571: 35,2465           77650                           GOTO
000572: 35,2466           72470                                    ADTIME
000573: 35,2467           03450        STORDELT           STORE    DELTEEO
000574: 35,2470           77615        ADTIME             DAD
000575: 35,2471           02364                                    NOMTPI                                #  SUM OF DELTA T:S
000576: 35,2472           02364                           STORE    NOMTPI
000577: 35,2473           63375                           VLOAD    PDVL
000578: 35,2474           03570                                    VAPREC
000579: 35,2475           03576                                    RAPREC
000580: 35,2476           77624                           CALL
000581: 35,2477           72701                                    GOINT
000582: 35,2500           77624                           CALL
000583: 35,2501           45237                                    ACTIVE                                #  STORE NEW RACT3 VACT3
000584: 35,2502           63375                           VLOAD    PDVL
000585: 35,2503           03612                                    VPPREC
000586: 35,2504           03620                                    RPPREC
000587: 35,2505           77624                           CALL
000588: 35,2506           72701                                    GOINT
000589: 35,2507           77624                           CALL
000590: 35,2510           45247                                    PASSIVE                               #  STORE NEW RPASS3 VPASS3
000591: 35,2511           77650                           GOTO
000592: 35,2512           72236                                    ELCALC
000593: 35,2513           43345        ELEX               DLOAD    DAD
000594: 35,2514           03663                                    TTPI
000595: 35,2515           02364                                    NOMTPI
000596: 35,2516           17663                           STODL    TTPI
000597: 35,2517           77614                           BON
000598: 35,2520           01310                                    ETPIFLAG
000599: 35,2521           72523                                    TIMEX
000600: 35,2522           03744                           STORE    ELEV
000601: 35,2523           52145        TIMEX              DLOAD    GOTO
000602: 35,2524           15334                                    ZEROVECS
000603: 35,2525           01340                                    NORMEX
000604:
000605:                                                                                                  #  ..... S34/35.1 .....
000606:
000607:                                                                                                  #  COMPUTE UNIT NORMAL AND LINE OF SIGHT VECTORS GIVEN THE ACTIVE AND
000608:                                                                                                  #  PASSIVE POS AND VEL AT TIME T3
000609: 36,2000                                           SETLOC   S3435LOC
000610: 36,2000                                           BANK
000611:
000612: 36,2000           52375        S34/35.1           VLOAD    VSU
000613: 36,2001           03554                                    RPASS3
000614: 36,2002           03540                                    RACT3
000615: 36,2003           41456                           UNIT     PUSH
000616: 36,2004           26625                           STOVL    ULOS
000617: 36,2005           03540                                    RACT3
000618: 36,2006           53435                           VXV      UNIT
000619: 36,2007           03546                                    VACT3
000620: 36,2010           02617                           STORE    UNRM
000621: 36,2011           77616                           RVQ
000622:
000623:                                                                                                  #  ..... S34/35.2 .....
000624:
000625:                                                                                                  #  ADVANCE PASSIVE VEH TO RENDEZVOUS TIME AND GET REQ VEL FROM LAMBERT
000626: 35,2000                                           SETLOC   CSI/CDH
000627: 35,2000                                           BANK
000628:
000629: 35,2526           77220        S34/35.2           STQ      VLOAD
000630: 35,2527           02370                                    SUBEXIT
000631: 35,2530           03562                                    VPASS3
000632: 35,2531           65315                           PDVL     PDDL
000633: 35,2532           03554                                    RPASS3
000634: 35,2533           03503                                    INTIME
000635: 35,2534           65325                           PDDL     PDDL
000636: 35,2535           03656                                    TPASS4
000637: 35,2536           33107                                    TWOPI                                 #  CONIC
000638: 35,2537           46125                           PDDL     BHIZ
000639: 35,2540           03766                                    NN
000640: 35,2541           72544                                    S3435.23
000641: 35,2542           65345                           DLOAD    PDDL
000642: 35,2543           15334                                    ZEROVECS                              #  PRECISION
000643: 35,2544           77624        S3435.23           CALL
000644: 35,2545           72705                                    INTINT                                #  GET TARGET VECTOR
000645: 35,2546           27415        S3435.25           STOVL    RTARG
000646: 35,2547           00007                                    VATT
000647: 35,2550           27640                           STOVL    VPASS4
000648: 35,2551           03415                                    RTARG
000649:                                                                                                  #  COMPUTE PHI = PI + (ACOS(UNIT RA.UNIT RP) - PI) SIGN(RA*RP.U)
000650: 35,2552           63256                           UNIT     PDVL                                  #  UNIT RP
000651: 35,2553           03540                                    RACT3
000652: 35,2554           41456                           UNIT     PUSH                                  #  UNIT RA
000653: 35,2555           50235                           VXV      DOT
000654: 35,2556           00001                                    0D
000655: 35,2557           02617                                    UNRM                                  #  RA*RP.U
000656: 35,2560           77715                           PDVL
000657: 35,2561           72441                           DOT      SL1                                   #  UNIT RA.UNIT RP
000658: 35,2562           00001                                    0D
000659: 35,2563           75326                           ACOS     SIGN
000660: 35,2564           43244                           BPL      DAD
000661: 35,2565           72567                                    NOPIE
000662: 35,2566           15342                                    DPPOSMAX                              #  REASONABLE TWO PI
000663: 35,2567           16633        NOPIE              STODL    ACTCENT
000664: 35,2570           03656                                    TPASS4
000665: 35,2571           77625                           DSU
000666: 35,2572           03503                                    INTIME
000667: 35,2573           03423                           STORE    DELLT4
000668: 35,2574           40335                           SLOAD    SETPD
000669: 35,2575           03766                                    NN                                    #  NUMBER OF OFFSETS
000670: 35,2576           00001                                    0D
000671: 35,2577           63325                           PDDL     PDVL
000672: 35,2600           33122                                    EPSFOUR
000673: 35,2601           03540                                    RACT3
000674: 35,2602           27570                           STOVL    RINIT
000675: 35,2603           03546                                    VACT3
000676: 35,2604           37576                           STCALL   VINIT
000677: 35,2605           22000                                    INITVEL
000678: 35,2606           77624                           CALL
000679: 35,2607           72666                                    LOMAT
000680: 35,2610           64375                           VLOAD    MXV
000681: 35,2611           03646                                    DELVEET3
000682: 35,2612           00001                                    0D
000683: 35,2613           77772                           VSL1
000684: 35,2614           37405                           STCALL   DELVLVC
000685: 35,2615           02370                                    SUBEXIT
000686:
000687:                                                                                                  #  ..... S34/35.3 .....
000688:
000689: 35,2616           45020        S34/35.3           STQ      CALL
000690: 35,2617           01340                                    NORMEX
000691: 35,2620           72666                                    LOMAT                                 #  GET MATRIX IN PUSH LIST
000692: 35,2621           61375                           VLOAD    VXM
000693: 35,2622           03405                                    DELVLVC                               #  NEW DEL V TPI
000694: 35,2623           00001                                    0D
000695: 35,2624           77772                           VSL1
000696: 35,2625           03646                           STORE    DELVEET3                              #  SAVE FOR TRANSFORM
000697: 35,2626           63255                           VAD      PDVL
000698: 35,2627           03546                                    VACT3                                 #  NEW V REQ
000699: 35,2630           03540                                    RACT3
000700: 35,2631           65325                           PDDL     PDDL
000701: 35,2632           03413                                    TIG
000702: 35,2633           03656                                    TPASS4
000703: 35,2634           41525                           PDDL     PUSH
000704: 35,2635           15342                                    DPPOSMAX
000705: 35,2636           77624                           CALL                                           #  INTEG. FOR NEW TARGET VEC
000706: 35,2637           72705                                    INTINT
000707: 35,2640           77775                           VLOAD
000708: 35,2641           00001                                    RATT
000709: 35,2642           03415                           STORE    RTARG
000710: 35,2643           41575        NOVRWRT            VLOAD    PUSH
000711: 35,2644           02625                                    ULOS
000712: 35,2645           57435                           VXV      VCOMP
000713: 35,2646           02617                                    UNRM
000714: 35,2647           41456                           UNIT     PUSH
000715: 35,2650           76435                           VXV      VSL1
000716: 35,2651           02625                                    ULOS
000717: 35,2652           77715                           PDVL
000718: 35,2653           64315                           PDVL     MXV
000719: 35,2654           03646                                    DELVEET3
000720: 35,2655           00001                                    0D
000721: 35,2656           77772                           VSL1
000722: 35,2657           36611                           STCALL   DVLOS
000723: 35,2660           01340                                    NORMEX
000724:
000725:                                                                                                  #  ..... S34/35.4 .....
000726:
000727: 35,2661           40220        S34/35.4           STQ      SETPD                                 #  NO ASTRONAUT OVERWRITE
000728: 35,2662           01340                                    NORMEX
000729: 35,2663           00001                                    0D
000730: 35,2664           77650                           GOTO
000731: 35,2665           72643                                    NOVRWRT
000732:
000733:                                                                                                  #  ..... LOMAT .....
000734:
000735: 35,2666           57575        LOMAT              VLOAD    VCOMP
000736: 35,2667           02617                                    UNRM
000737: 35,2670           24007                           STOVL    6D                                    #  Y
000738: 35,2671           03540                                    RACT3
000739: 35,2672           57456                           UNIT     VCOMP
000740: 35,2673           00015                           STORE    12D
000741: 35,2674           76435                           VXV      VSL1
000742: 35,2675           02617                                    UNRM                                  #  Z*-Y
000743: 35,2676           00001                           STORE    0D
000744: 35,2677           43401                           SETPD    RVQ
000745: 35,2700           00023                                    18D
000746: 35,2701           65325        GOINT              PDDL     PDDL                                  #  DO
000747: 35,2702           15334                                    ZEROVECS                              #        NOT
000748: 35,2703           02364                                    NOMTPI
000749: 35,2704           41406                           PUSH     PUSH                                  #                ORDER OR INSERT BEFORE INTINT
000750: 35,2705           45020        INTINT             STQ      CALL
000751: 35,2706           02367                                    RTRN
000752: 35,2707           27452                                    INTSTALL
000753: 35,2710           71214                           CLEAR    DLOAD
000754: 35,2711           01673                                    INTYPFLG
000755: 35,2712           43054                           BZE      SET
000756: 35,2713           72715                                    +2
000757: 35,2714           01473                                    INTYPFLG
000758: 35,2715           45545                           DLOAD    STADR
000759: 35,2716           63736                           STODL    TDEC1
000760: 35,2717           73014                           SET      LXA,2
000761: 35,2720           00063                                    MOONFLAG
000762: 35,2721           03746                                    RTX2
000763: 35,2722           43014                           BON      CLEAR
000764: 35,2723           04303                                    CMOONFLG
000765: 35,2724           72726                                    ALLSET
000766: 35,2725           00263                                    MOONFLAG
000767: 35,2726           25517        ALLSET             STOVL    TET
000768: 35,2727           77657                           VSR*
000769: 35,2730           57176                                    0,2
000770: 35,2731           25535                           STOVL    RCV
000771: 35,2732           77657                           VSR*
000772: 35,2733           57176                                    0,2
000773: 35,2734           35543                           STCALL   VCV
000774: 35,2735           27145                                    INTEGRVS
000775: 35,2736           52175                           VLOAD    GOTO
000776: 35,2737           00001                                    RATT
000777: 35,2740           02367                                    RTRN
000778:
000779:                                                                                                  #  ..... S34/35.5 .....
000780:
000781:                                                                                                  #  SUBROUTINES USED
000782:                                                                                                  #        BANKCALL
000783:                                                                                                  #        GOFLASH
000784:                                                                                                  #        GOTOPOOH
000785:                                                                                                  #        S34/35.3
000786:                                                                                                  #        S34/35.4
000787:                                                                                                  #        VNPOOH
000788:
000789: 35,2741           43020        S34/35.5           STQ      BON
000790: 35,2742           02370                                    SUBEXIT
000791: 35,2743           01311                                    FINALFLG
000792: 35,2744           72750                                    FLAGON
000793: 35,2745           52014                           SET      GOTO
000794: 35,2746           00470                                    UPDATFLG
000795: 35,2747           72772                                    FLAGOFF
000796: 35,2750           77775        FLAGON             VLOAD
000797: 35,2751           03405                                    DELVLVC
000798: 35,2752           02611                           STORE    DVLOS                                 #  SAVE DELTA V BEFORE DISPLAY
000799: 35,2753           77776                           EXIT
000800: 35,2754           34620                           CAF      V06N81
000801: 35,2755           04575                           TC       VNPOOH
000802: 35,2756           06006                           TC       INTPRET
000803: 35,2757           52375                           VLOAD    VSU                                   #  TEST FOR OVERWRITE OF COMPUTED
000804: 35,2760           03405                                    DELVLVC                               #                       DELTA V
000805: 35,2761           02611                                    DVLOS
000806: 35,2762           53046                           ABVAL    BZE
000807: 35,2763           72766                                    NOCHG                                 #  NO OVERWRITE
000808: 35,2764           77624                           CALL
000809: 35,2765           72616                                    S34/35.3                              #  COMPUTE NEW TARGET VECTOR
000810: 35,2766           77214        NOCHG              CLEAR    VLOAD
000811: 35,2767           01267                                    XDELVFLG
000812: 35,2770           03646                                    DELVEET3
000813: 35,2771           03646                           STORE    DELVSIN
000814: 35,2772           77624        FLAGOFF            CALL
000815: 35,2773           72661                                    S34/35.4
000816: 35,2774           77776                           EXIT
000817: 35,2775           34617                           CAF      V06N59
000818: 35,2776           04575                           TC       VNPOOH
000819: 35,2777           06006                           TC       INTPRET
000820: 35,3000           77650                           GOTO
000821: 35,3001           02370                                    SUBEXIT
000822:
000823:                                                                                                  #  ..... VN1645 .....
000824:
000825:                                                                                                  #  SUBROUTINES USED
000826:                                                                                                  #        P3XORP7X
000827:                                                                                                  #        GET+MGA
000828:                                                                                                  #        BANKCALL
000829:                                                                                                  #        DELAYJOB
000830:                                                                                                  #        COMPTGO
000831:                                                                                                  #        GOFLASHR
000832:                                                                                                  #        GOTOPOOH
000833:                                                                                                  #        FLAGUP
000834:
000835: 35,3002           71220        VN1645             STQ      DLOAD
000836: 35,3003           02370                                    SUBEXIT
000837: 35,3004           33120                                    DP-.01
000838: 35,3005           03626                           STORE    +MGA                                  #  MGA = -.01
000839: 35,3006           71214                           BOFF     DLOAD
000840: 35,3007           01351                                    FINALFLG
000841: 35,3010           73030                                    GET45
000842: 35,3011           33120                                    DP-.01
000843: 35,3012           77615                           DAD
000844: 35,3013           33120                                    DP-.01
000845: 35,3014           03626                           STORE    +MGA                                  #  MGA = -.02
000846: 35,3015           77414                           BOFF     EXIT
000847: 35,3016           01742                                    REFSMFLG
000848: 35,3017           73030                                    GET45
000849: 35,3020           03100                           TC       P3XORP7X
000850: 35,3021           03023                           TC       +2                                    #  P3X
000851: 35,3022           03031                           TC       GET45      +1                         #  P7X
000852: 35,3023           06006                           TC       INTPRET
000853: 35,3024           41575                           VLOAD    PUSH
000854: 35,3025           03646                                    DELVSIN
000855: 35,3026           77624                           CALL                                           #  COMPUTE MGA
000856: 35,3027           10654                                    GET+MGA
000857: 35,3030           77776        GET45              EXIT
000858: 35,3031           03304                           TC       COMPTGO                               #  INITIATE TASK TO UPDATE TTOGO
000859: 35,3032           31770                           CA       SUBEXIT
000860: 35,3033           55766                           TS       QSAVED
000861: 35,3034           35055                           CAF      1SEC
000862: 35,3035           04676                           TC       BANKCALL
000863: 35,3036           01732                           CADR     DELAYJOB
000864: 35,3037           34621                           CAF      V16N45                                #  TRKMKCNT, TTOGO, +MGA
000865: 35,3040           04676                           TC       BANKCALL
000866: 35,3041           20720                           CADR     GOFLASH
000867: 35,3042           03045                           TC       KILCLOCK                              #  TERMINATE
000868: 35,3043           03050                           TC       N45PROC                               #  PROCEED
000869: 35,3044           03060                           TC       CLUPDATE                              #  RECYCLE - RETURN FOR INITIAL COMPUTATION
000870: 35,3045           30005        KILCLOCK           CA       Z
000871: 35,3046           54000                           TS       DISPDEX
000872: 35,3047           04106                           TC       GOTOPOOH
000873: 35,3050           40076        N45PROC            CS       FLAGWRD2
000874: 35,3051           75026                           MASK     BIT6
000875: 35,3052           00006                           EXTEND
000876: 35,3053           13045                           BZF      KILCLOCK                              #  FINALFLG IS SET - FLASH V37 - AWAIT NEW PGM
000877: 35,3054           05426                           TC       PHASCHNG
000878: 35,3055           04024                           OCT      04024
000879: 35,3056           05562                           TC       UPFLAG                                #  SET
000880: 35,3057           00047                           ADRES    FINALFLG                              #  FINALFLG
000881: 35,3060           30005        CLUPDATE           CA       Z
000882: 35,3061           54000                           TS       DISPDEX
000883: 35,3062           05426                           TC       PHASCHNG
000884: 35,3063           04024                           OCT      04024
000885: 35,3064           06006                           TC       INTPRET
000886: 35,3065           52014                           CLEAR    GOTO
000887: 35,3066           00670                                    UPDATFLG
000888: 35,3067           02366                                    QSAVED
000889:
000890:                                                                                                  #  ..... DISPLAYE .....
000891:
000892:                                                                                                  #  SUBROUTINES USED
000893:                                                                                                  #        BANKCALL
000894:                                                                                                  #        GOFLASHR
000895:                                                                                                  #        GOTOPOOH
000896:                                                                                                  #        BLANKET
000897:                                                                                                  #        ENDOFJOB
000898:
000899: 35,3070           00006        DISPLAYE           EXTEND
000900: 35,3071           23340                           QXCH     NORMEX
000901: 35,3072           34615                           CAF      V06N55
000902: 35,3073           04676                           TCR      BANKCALL
000903: 35,3074           20720                           CADR     GOFLASH
000904: 35,3075           14106                           TCF      GOTOPOOH
000905: 35,3076           01340                           TC       NORMEX
000906: 35,3077           13072                           TCF      -5
000907:
000908:                                                                                                  #  ..... P3XORP7X .....
000909:
000910: 35,3100           37713        P3XORP7X           CAF      HIGH9
000911: 35,3101           71011                           MASK     MODREG
000912: 35,3102           00006                           EXTEND
000913: 35,3103           13105                           BZF      +2
000914: 35,3104           24002                           INCR     Q
000915: 35,3105           00002                           RETURN
000916:
000917:                                                                                                  #  ..... VNPOOH .....
000918:
000919:                                                                                                  #  SUBROUTINES USED
000920:                                                                                                  #        BANKCALL
000921:                                                                                                  #        GOFLASH
000922:                                                                                                  #        GOTOPOOH
000923:
000924:    4000                                           SETLOC   P30SUBS
000925:    4000                                           BANK
000926:
000927:    4575           00006        VNPOOH             EXTEND
000928:    4576           23767                           QXCH     RTRN
000929:    4577           55765                           TS       VERBNOUN
000930:    4600           34610                           CAF      VNBANK                                #  ***** THIS ROUTINE MUST REMAIN IN
000931:    4601           56004                           XCH      FBANK                                 #        FIXED-FIXED *****
000932:    4602           55063                           TS       TBASE5                                #  * WATCH OUT *
000933:
000934:    4603           31765                           CA       VERBNOUN
000935:    4604           04676                           TCR      BANKCALL
000936:    4605           20720                           CADR     GOFLASH
000937:    4606           14106                           TCF      GOTOPOOH
000938:    4607           14611                           TCF      +2
000939:    4610           04603        VNBANK             TC       -5
000940:
000941:    4611           31063                           CA       TBASE5
000942:    4612           54004                           TS       FBANK
000943:    4613           01767                           TC       RTRN
000944:
000945:                                                                                                  #  ..... CONSTANTS .....
000946:
000947:    4614           01445        V06N37             VN       0637
000948:    4615           01467        V06N55             VN       0655
000949:    4616           01472        V06N58             VN       0658
000950:    4617           01473        V06N59             VN       0659
000951:    4620           01521        V06N81             VN       0681
000952:    4621           04055        V16N45             VN       1645
000953: 35,2000                                           SETLOC   CSI/CDH
000954: 35,2000                                           BANK
000955:
000956: 35,3106           14441 37325  TWOPI              2DEC     6.283185307 B-4
000957: 35,3110           00001 20650  MAX250             2DEC     25         E3
000958: 35,3112           12525 12525  THIRD              2DEC     .333333333
000959: 35,3114           00004 21505  ELEPS              2DEC     .27777777  E-3
000960: 35,3116           00002        DECTWO             OCT      2
000961: 35,3117           77777        DP-.01             OCT      77777                                 #  CONSTANTS
000962: 35,3120           61337                           OCT      61337                                 #  ADJACENT      -.01 FOR MGA DSP
000963: 35,3121           01252 25253  EPSFOUR            2DEC     .0416666666
000964:
000965:                                                                                                  #  ..... INITVEL .....
000966:                                                                                                  #  MOD NO -1                     LOG SECTION - P34-P35, P74-P75
000967:                                                                                                  #  MOD BY WHITE.P                DATE  21NOV67
000968:
000969:                                                                                                  #  FUNCTIONAL DESCRIPTION
000970:                                                                                                  #        THIS SUBROUTINE COMPUTES THE REQUIRED INITIAL VELOCITY VECTOR FOR
000971:                                                                                                  #        A TRAJECTORY OF SPECIFIED TRANSFER TIME BETWEEN SPECIFIED INITIAL
000972:                                                                                                  #        AND TARGET POSITIONS.  THE TRAJECTORY MAY BE EITHER CONIC OR
000973:                                                                                                  #        PRECISION DEPENDING ON AN INPUT PARAMETER (NAMELY, NUMBER OF
000974:                                                                                                  #        OFFSETS).  IN ADDITION, IN THE PRECISION TRAJECTORY CASE, THE
000975:                                                                                                  #        SUBROUTINE ALSO COMPUTES AN OFFSET TARGET VECTOR, TO BE USED
000976:                                                                                                  #        DURING PURE-CONIC CROSS-PRODUCT STEERING.  THE OFFSET TARGET
000977:                                                                                                  #        VECTOR IS THE TERMINAL POSITION VECTOR OF A CONIC TRAJECTORY WHICH
000978:                                                                                                  #        HAS THE SAME INITIAL STATE AS A PRECISION TRAJECTORY WHOSE
000979:                                                                                                  #        TERMINAL POSITION VECTOR IS THE SPECIFIED TARGET VECTOR.
000980:
000981:                                                                                                  #        IN ORDER TO AVOID THE INHERENT SINGULARITIES IN THE 180 DEGREE
000982:                                                                                                  #        TRANSFER CASE WHEN THE (TRUE OR OFFSET) TARGET VECTOR MAY BE
000983:                                                                                                  #        SLIGHTLYOUT OF THE ORBITAL PLANE, THIS SUBROUTINE ROTATES THIS
000984:                                                                                                  #        VECTOR INTO A PLANE DEFINED BY THE INPUT INITIAL POSITION VECTOR
000985:                                                                                                  #        AND ANOTHER INPUT VECTOR (USUALLY THE INITIAL VELOCITY VECTOR),
000986:                                                                                                  #        WHENEVER THE INPUT TARGET VECTOR LIES INSIDE A CONE WHOSE VERTEX
000987:                                                                                                  #        IS THE ORIGIN OF COORDINATES, WHOSE AXIS IS THE 180 DEGREE
000988:                                                                                                  #        TRANSFER DIRECTION, AND WHOSE CONE ANGLE IS SPECIFIED BY THE USER.
000989:
000990:                                                                                                  #        THE LAMBERT SUBROUTINE IS UTILIZED FOR THE CONIC COMPUTATIONS AND
000991:                                                                                                  #        THE COASTING INTEGRATION SUBROUTINE IS UTILIZED FOR THE PRECISION
000992:                                                                                                  #        TRAJECTORY COMPUTATIONS.
000993:
000994:                                                                                                  #  CALLING SEQUENCE
000995:                                                                                                  #        L       CALL
000996:                                                                                                  #        L+1             INITVEL
000997:                                                                                                  #        L+2     (RETURN - ALWAYS)
000998:
000999:                                                                                                  #  INPUT
001000:                                                                                                  #        (1)     RINIT           INITIAL POSITION RADIUS VECTOR
001001:                                                                                                  #        (2)     VINIT           INITIAL POSITION VELOCITY VECTOR
001002:                                                                                                  #        (3)     RTARG           TARGET POSITION RADIUS VECTOR
001003:                                                                                                  #        (4)     DELLT4          DESIRED TIME OF FLIGHT FROM RINIT TO RTARG
001004:                                                                                                  #        (5)     INTIME          TIME OF RINIT
001005:                                                                                                  #        (6)     0D              NUMBER OF ITERATIONS OF LAMBERT/INTEGRVS
001006:                                                                                                  #        (7)     2D              ANGLE TO 180 DEGREES WHEN ROTATION STARTS
001007:                                                                                                  #        (8)     RTX1            -2 FOR EARTH, -10D FOR LUNAR
001008:                                                                                                  #        (9)     RTX2            COORDINATE SYSTEM ORIGIN - 0 FOR EARTH, 2 FOR LUNAR
001009:                                                                                                  #        PUSHLOC SET AT 4D
001010:
001011:                                                                                                  #  OUTPUT
001012:                                                                                                  #        (1)     RTARG           OFFSET TARGET POSITION VECTOR
001013:                                                                                                  #        (2)     VIPRIME         MANEUVER VELOCITY REQUIRED
001014:                                                                                                  #        (3)     VTPRIME         VELOCITY AT TARGET AFTER MANEUVER
001015:                                                                                                  #        (4)     DELVEET3        DELTA VELOCITY REQUIRED FOR MANEUVER
001016:
001017:                                                                                                  #  SUBROUTINES USED
001018:                                                                                                  #        LAMBERT
001019:                                                                                                  #        INTSTALL
001020:                                                                                                  #        INTEGRVS
001021:
001022: 11,2000                                           SETLOC   INTVEL
001023: 11,2000                                           BANK
001024:
001025: 11,2000                                           COUNT    11/INITV
001026: 11,2000           77614        INITVEL            SET                                            #  COGA GUESS NOT AVAILABLE
001027: 11,2001           00475                                    GUESSW
001028: 11,2002           44175        HAVEGUES           VLOAD    STQ
001029: 11,2003           03415                                    RTARG
001030: 11,2004           01340                                    NORMEX
001031: 11,2005           03604                           STORE    RTARG1
001032: 11,2006           46135                           SLOAD    BHIZ
001033: 11,2007           03747                                    RTX2
001034: 11,2010           22022                                    INITVEL1
001035: 11,2011           72575                           VLOAD    VSL2
001036: 11,2012           03570                                    RINIT                                 #  B29
001037: 11,2013           27570                           STOVL    RINIT                                 #  B27
001038: 11,2014           03576                                    VINIT                                 #  B7
001039: 11,2015           77752                           VSL2
001040: 11,2016           27576                           STOVL    VINIT                                 #  B5
001041: 11,2017           03604                                    RTARG1
001042: 11,2020           77752                           VSL2
001043: 11,2021           03604                           STORE    RTARG1
001044:
001045:                                                                                                  #  INITIALIZATION
001046:
001047: 11,2022           71331        INITVEL1           SSP      DLOAD                                 #  SET ITCTR TO -1,LOAD MPAC WITH E4 (PL 2D)
001048: 11,2023           03505                                    ITCTR
001049: 11,2024           77776                                    0          -1
001050: 11,2025           70546                           COSINE   SR1                                   #  CALCULATE COSINE (E4) (+2)
001051: 11,2026           17630                           STODL    COZY4                                 #  SET COZY4 TO COSINE (E4) (PL 0D)
001052: 11,2027           67154                           LXA,2    SXA,2
001053: 11,2030           00154                                    MPAC
001054: 11,2031           02703                                    VTARGTAG                              #  SET VTARGTAG TO 0D (SP)
001055: 11,2032           77775                           VLOAD
001056: 11,2033           03570                                    RINIT
001057: 11,2034           26657                           STOVL    R1VEC                                 #  R1VEC EQ RINIT
001058: 11,2035           03604                                    RTARG1
001059: 11,2036           16665                           STODL    R2VEC                                 #  R2VEC EQ RTARG
001060: 11,2037           03423                                    DELLT4
001061: 11,2040           02673                           STORE    TDESIRED                              #  TDESIRED EQ DELLT4
001062: 11,2041           77201                           SETPD    VLOAD
001063: 11,2042           00001                                    0D                                    #  INITIALIZE PL TO 0D
001064: 11,2043           03570                                    RINIT                                 #  MPAC EQ RINIT (+29)
001065: 11,2044           41456                           UNIT     PUSH                                  #  UNIT(RI) (+1)         (PL 6D)
001066: 11,2045           53435                           VXV      UNIT
001067: 11,2046           03576                                    VINIT                                 #  MPAC EQ UNIT(RI) X VI (+8)
001068: 11,2047           26676                           STOVL    UN
001069: 11,2050           03604                                    RTARG1
001070: 11,2051           50256                           UNIT     DOT                                   #  TEMP=URT.URI (+2)     (PL 0D)
001071: 11,2052           43015                           DAD      CLEAR
001072: 11,2053           03630                                    COZY4
001073: 11,2054           03665                                    NORMSW
001074: 11,2055           03630                           STORE    COZY4
001075: 11,2056           43044        INITVEL2           BPL      SET
001076: 11,2057           22101                                    INITVEL3                              #  UN CALCULATED IN LAMBERT
001077: 11,2060           03465                                    NORMSW
001078:
001079:                                                                                                  #  ROTATE RC INTO YC PLANE - SET UNIT NORMAL TO YC
001080:
001081: 11,2061           41575                           VLOAD    PUSH                                  #                                   (PL 6D)
001082: 11,2062           02665                                    R2VEC                                 #  RC TO 6D (+29)
001083: 11,2063           63246                           ABVAL    PDVL                                  #  RC TO MPAC, ABVAL(RC) (+29) TO OD(PL 2D)
001084: 11,2064           46206                           PUSH     VPROJ                                 #                                   (PL 8D)
001085: 11,2065           02676                                    UN
001086: 11,2066           51352                           VSL2     BVSU
001087: 11,2067           74256                           UNIT     VXSC                                  #                                   (PL 0D)
001088: 11,2070           77772                           VSL1
001089: 11,2071           02665                           STORE    R2VEC
001090: 11,2072           67351                           TLOAD    SLOAD
001091: 11,2073           11566                                    ZEROVEC
001092: 11,2074           03505                                    ITCTR
001093: 11,2075           77244                           BPL      VLOAD
001094: 11,2076           22101                                    INITVEL3
001095: 11,2077           02665                                    R2VEC
001096: 11,2100           03604                           STORE    RTARG1
001097: 11,2101           63345        INITVEL3           DLOAD    PDVL                                  #                                (PL 2D)
001098: 11,2102           27745                                    MUEARTH                               #  POSITIVE VALUE
001099: 11,2103           02665                                    R2VEC
001100: 11,2104           63256                           UNIT     PDVL                                  #  2D = UNIT(R2VEC)              (PL 8D)
001101: 11,2105           02657                                    R1VEC
001102: 11,2106           41456                           UNIT     PUSH                                  #  8D = UNIT(R1VEC)              (PL 14D)
001103: 11,2107           57435                           VXV      VCOMP                                 #  -N = UNIT(R2VEC) X UNIT(R1VEC)
001104: 11,2110           00003                                    2D
001105: 11,2111           77606                           PUSH                                           #                                (PL 20D)
001106: 11,2112           71350                           LXA,1    DLOAD
001107: 11,2113           03745                                    RTX1
001108: 11,2114           00023                                    18D
001109: 11,2115           62040                           BMN      INCR,1
001110: 11,2116           22120                                    +2
001111: 11,2117           77767                           DEC      -8         B-14
001112: 11,2120           67310                           INCR,1   SLOAD
001113: 11,2121           00012                                    10D
001114: 11,2122           00047                                    X1
001115: 11,2123           77230                           BHIZ     VLOAD                                 #                        (PL 14D)
001116: 11,2124           22126                                    +2
001117: 11,2125           41476                           VCOMP    PUSH                                  #                        (PL 20 D)
001118: 11,2126           77775                           VLOAD                                          #                        (PL 14D)
001119: 11,2127           50235                           VXV      DOT                                   #                        (PL 2D)
001120: 11,2130           71244                           BPL      DLOAD                                 #                        (PL 0D)
001121: 11,2131           22133                                    INITVEL4
001122: 11,2132           41476                           DCOMP    PUSH                                  #                        (PL 2D)
001123: 11,2133           67154        INITVEL4           LXA,2    SXA,2
001124: 11,2134           00000                                    0D
001125: 11,2135           02674                                    GEOMSGN
001126:
001127:                                                                                                  #  SET INPUTS UP FOR LAMBERT
001128:
001129: 11,2136           45150                           LXA,1    CALL
001130: 11,2137           03745                                    RTX1
001131:                                                                                                  #   OPERATE THE LAMBERT CONIC ROUTINE (COASTFLT SUBROUTINE)
001132:
001133: 11,2140           25224                                    LAMBERT
001134:
001135:                                                                                                  #        DELETE THRU 4521
001136:                                                                                                  #  ARRIVED AT SOLUTION IS GOOD ENOUGH ACCORDING TO SLIGHTLY WIDER BOUNDS.
001137:
001138: 11,2141           77214                           CLEAR    VLOAD
001139: 11,2142           00675                                    GUESSW
001140: 11,2143           02746                                    VVEC
001141:
001142:                                                                                                  #  STORE CALCULATED INITIAL VELOCITY REQUIRED IN VIPRIME
001143:
001144: 11,2144           17612                           STODL    VIPRIME                               #  INITIAL VELOCITY REQUIRED (+7)
001145:
001146:                                                                                                  #     IF NUMIT IS ZERO, CONTINUE AT INITVELB, OTHERWISE
001147:                                                                                                  #  SET UP INPUTS FOR ENCKE INTEGRATION (INTEGRVS).
001148:
001149: 11,2145           02704                                    VTARGTAG
001150: 11,2146           45030                           BHIZ     CALL
001151: 11,2147           22224                                    INITVEL7
001152: 11,2150           27452                                    INTSTALL
001153: 11,2151           43135                           SLOAD    CLEAR
001154: 11,2152           03747                                    RTX2
001155: 11,2153           00263                                    MOONFLAG
001156: 11,2154           43030                           BHIZ     SET
001157: 11,2155           22157                                    INITVEL5
001158: 11,2156           00063                                    MOONFLAG
001159: 11,2157           77775        INITVEL5           VLOAD
001160: 11,2160           03570                                    RINIT
001161: 11,2161           02657                           STORE    R1VEC
001162: 11,2162           25535                           STOVL    RCV
001163: 11,2163           03612                                    VIPRIME
001164: 11,2164           15543                           STODL    VCV
001165: 11,2165           03503                                    INTIME
001166: 11,2166           01517                           STORE    TET
001167: 11,2167           43015                           DAD      CLEAR
001168: 11,2170           03423                                    DELLT4
001169: 11,2171           01673                                    INTYPFLG
001170: 11,2172           34041                           STCALL   TDEC1
001171: 11,2173           27145                                    INTEGRVS
001172: 11,2174           77775                           VLOAD
001173: 11,2175           00025                                    VATT1
001174: 11,2176           02705                           STORE    VTARGET
001175:
001176:                                                                                                  #  IF ITERATION COUNTER (ITCTR) EQ NO. ITERATIONS (NUMIT), CONTINUE AT
001177:                                                                                                  #  INITVELC, OTHERWISE REITERATE LAMBERT AND ENCKE
001178:
001179: 11,2177           63154                           LXA,2    INCR,2
001180: 11,2200           03504                                    ITCTR
001181: 11,2201           00001                                    1D                                    #  INCREMENT ITCTR
001182: 11,2202           55134                           SXA,2    XSU,2
001183: 11,2203           03504                                    ITCTR
001184: 11,2204           02703                                    VTARGTAG
001185: 11,2205           46135                           SLOAD    BHIZ                                  #  IF SP(MPAC) EQ 0, CONTINUE AT INITVELC
001186: 11,2206           00050                                    X2
001187: 11,2207           22221                                    INITVEL6
001188:
001189:                                                                                                  #  OFFSET CONIC TARGET VECTOR
001190:
001191: 11,2210           52375                           VLOAD    VSU
001192: 11,2211           03604                                    RTARG1
001193: 11,2212           00017                                    RATT1
001194: 11,2213           77655                           VAD
001195: 11,2214           02665                                    R2VEC
001196: 11,2215           16665                           STODL    R2VEC
001197: 11,2216           03630                                    COZY4
001198: 11,2217           77650                           GOTO
001199: 11,2220           22056                                    INITVEL2                              #  CONTINUE ITERATING AT INITVEL2
001200:
001201:                                                                                                  #  COMPUTE THE DELTA VELOCITY
001202:
001203: 11,2221           77775        INITVEL6           VLOAD
001204: 11,2222           02665                                    R2VEC
001205: 11,2223           03604                           STORE    RTARG1
001206: 11,2224           52375        INITVEL7           VLOAD    VSU
001207: 11,2225           03612                                    VIPRIME
001208: 11,2226           03576                                    VINIT
001209: 11,2227           27646                           STOVL    DELVEET3                              #  DELVEET3 = VIPRIME-VINIT (+7)
001210: 11,2230           02705                                    VTARGET
001211: 11,2231           03620                           STORE    VTPRIME
001212: 11,2232           46135                           SLOAD    BHIZ
001213: 11,2233           03747                                    RTX2
001214: 11,2234           22251                                    INITVELX
001215: 11,2235           70575                           VLOAD    VSR2
001216: 11,2236           03620                                    VTPRIME
001217: 11,2237           27620                           STOVL    VTPRIME
001218: 11,2240           03612                                    VIPRIME
001219: 11,2241           77742                           VSR2
001220: 11,2242           27612                           STOVL    VIPRIME
001221: 11,2243           03604                                    RTARG1
001222: 11,2244           77742                           VSR2
001223: 11,2245           27604                           STOVL    RTARG1
001224: 11,2246           03646                                    DELVEET3
001225: 11,2247           77742                           VSR2
001226: 11,2250           03646                           STORE    DELVEET3
001227: 11,2251           77201        INITVELX           SETPD    VLOAD
001228: 11,2252           00001                                    0D
001229: 11,2253           03604                                    RTARG1
001230: 11,2254           03415                           STORE    RTARG
001231: 11,2255           77614                           CLRGO
001232: 11,2256           01227                                    XDELVFLG
001233: 11,2257           01340                                    NORMEX
001234:
001235:                                                                                                  #  ..... END OF INITVEL ROUTINE .....
001236:
001237:                                                                                                  #  ..... MIDGIM .....
001238:                                                                                                  #  MOD NO. 0, BY WILLMAN, SUBROUTINE RENDGUID, LOG P34-P35, P74-P75
001239:                                                                                                  #  REVISION 03, 17 FEB 67
001240:
001241:                                                                                                  #  IF THE ACTIVE VEHICLE IS DOING THE COMPUTATION, MIDGIM COMPUTES
001242:                                                                                                  #  THE POSITIVE MIDDLE GIMBAL ANGLE OF THE ACTIVE VEHICLE TO THE INPUT
001243:                                                                                                  #  DELTA VELOCITY VECTOR (0D IN PUSH LIST), OTHERWISE
001244:                                                                                                  #  MIDGIM CONVERTS THE INPUT DELTA VELOCITY VECTOR FROM INERTIAL COORDIN-
001245:                                                                                                  #  ATES TO LOCAL VERTICAL COORDINATES OF THE ACTIVE VEHICLE.
001246:
001247:                                                                                                  #  .. INPUTS ..
001248:                                                                                                  #    NAME     MEANING                                            UNITS/SCALING/MODE
001249:                                                                                                  #    AVFLAG   INT FLAG - 0 IS CSM ACTIVE, 1 IS LEM ACTIVE        BIT
001250:                                                                                                  #    COMPUTER INT FLAG - 0 IS LEM COMPUTER, 1 IS CSM COMPUTER    BIT
001251:                                                                                                  #    RINIT    ACTIVE VEHICLE RADIUS VECTOR                       METERS/CSEC (+7) VT
001252:                                                                                                  #    VINIT    ACTIVE VEHICLE VELOCITY VECTOR                     METERS/CSEC (+7) VT
001253:                                                                                                  #    0D(PL)   ACTIVE VEHICLE DELTA VELOCITY VECTOR               METERS/CSEC (+7) VT
001254:
001255:                                                                                                  #  .. OUTPUTS ..
001256:                                                                                                  #    NAME     MEANING                                            UNITS/SCALING/MODE
001257:                                                                                                  #    +MGA     + MIDDLE GIMBAL ANGLE                              REVOLUTIONS (+0) DP
001258:                                                                                                  #    DELVLVC  DELTA VELOCITY VECTOR IN LV COORD.                 METERS/CSEC (+7) VT
001259:                                                                                                  #    MGLVFLAG INT FLAG - 0 IS +MGA COMPUTED, 1 IS DELVLVC COMP.        -         BIT
001260:
001261:                                                                                                  #  .. CALLING SEQUENCE ..
001262:                                                                                                  #        L       CALL
001263:                                                                                                  #        L+1             MIDGIM
001264:                                                                                                  #        L+2     (RETURN - ALWAYS)
001265:
001266:                                                                                                  #  .. NO SUBROUTINES CALLED ..
001267:
001268:                                                                                                  #  .. DEBRIS - ERASEABLE TEMPORARY USAGE
001269:                                                                                                  #        A,Q,L, PUSH LIST, MPAC.
001270:
001271:                                                                                                  #  .. ALARMS - NONE ..
001272:
001273:                                                                                                  #  MIDDLE GIMBAL ANGLE COMPUTATION.
001274: 04,2000                                           SETLOC   MIDDGIM
001275: 04,2000                                           BANK
001276:
001277: 04,2645                                           COUNT*   $$/MIDG
001278:
001279: 04,2645           20000 00000  HALFREV            2DEC     1          B-1
001280:
001281: 04,2647           43014        MIDGIM             BON      BOFF
001282: 04,2650           01312                                    AVFLAG
001283: 04,2651           10667                                    MIDGIM1
001284: 04,2652           02747                                    COMPUTER
001285: 04,2653           10672                                    GET.LVC
001286:
001287:                                                                                                  #  COMPUTE +MGA IF AVFLAG AND COMPUTER HAVE OPPOSITE VALUES.
001288:
001289: 04,2654           53575        GET+MGA            VLOAD    UNIT                                  #  (PL 0D) V (+7) TO MPAC, UNITIZE UV (+1)
001290: 04,2655           72441                           DOT      SL1                                   #  DOT UV WITH Y(STABLE MEMBER) AND RESCALE
001291: 04,2656           01744                                    REFSMMAT   +6                         #  FROM +2 TO +1 FOR ASIN ROUTINE
001292: 04,2657           51136                           ARCSIN   BPL
001293: 04,2660           10664                                    SETMGA
001294: 04,2661           43215                           DAD      DAD                                   #  CONVERT -MGA TO +MGA BY
001295: 04,2662           10646                                    HALFREV                               #  ADDING ONE REVOLUTION
001296: 04,2663           10646                                    HALFREV
001297: 04,2664           03626        SETMGA             STORE    +MGA
001298: 04,2665           43414                           CLR      RVQ                                   #  CLEAR MGLVFLAG TO INDICATE +MGA CALC
001299: 04,2666           02675                                    MGLVFLAG                              #  AND EXIT
001300:
001301: 04,2667           77614        MIDGIM1            BOFF
001302: 04,2670           02747                                    COMPUTER
001303: 04,2671           10654                                    GET+MGA
001304:
001305:                                                                                                  #  COMPUTE DELVLVC IF AVFLAG AND COMPUTER HAVE SAME VALUES.
001306:
001307: 04,2672           53575        GET.LVC            VLOAD    UNIT                                  #  (PL 6D) R (+29) IN MPAC, UNITIZE UR
001308: 04,2673           03570                                    RINIT
001309: 04,2674           77676                           VCOMP                                          #  U(-R)
001310: 04,2675           00023                           STORE    18D                                   #  U(-R) TO 18D
001311: 04,2676           53435                           VXV      UNIT                                  #  U(-R)*V EQ V*U(R), U(V*R)
001312: 04,2677           03576                                    VINIT
001313: 04,2700           00015                           STORE    12D                                   #  U(V*R) TO 12D
001314: 04,2701           53435                           VXV      UNIT                                  #  U(V*R)*U(-R), U((V*R)*(-R))
001315: 04,2702           00023                                    18D
001316: 04,2703           24007                           STOVL    6D                                    #  TRANSFORMATION MATRIX IS IN 6D (+1)
001317: 04,2704           00001                                    0D                                    #  DELTA V (+7) IN 0D
001318: 04,2705           76521                           MXV      VSL1                                  #  CONVERT FROM INER COOR TO LV COOR (+8)
001319: 04,2706           00007                                    6D                                    #  AND SCALE +7 IN MPAC
001320: 04,2707           03405                           STORE    DELVLVC                               #  STORE IN DELVLVC (+7)
001321: 04,2710           43414                           SET      RVQ                                   #  SET MGLVFLAG TO INDICATE LVC CALC
001322: 04,2711           02475                                    MGLVFLAG                              #  AND EXIT
001323:
001324:                                                                                                  #  ..... END OF MIDGIM ROUTINE .....
001325:
001326: 04,2712           77160        SELECTMU           AXC,1    AXT,2
001327: 04,2713           00002                                    2D
001328: 04,2714           00000                                    0D
001329: 04,2715           77614                           BOFF
001330: 04,2716           04343                                    CMOONFLG
001331: 04,2717           10723                                    SETMUER
001332: 04,2720           77160                           AXC,1    AXT,2
001333: 04,2721           00012                                    10D
001334: 04,2722           00002                                    2D
001335: 04,2723           66143        SETMUER            DLOAD*   SXA,1
001336: 04,2724           11744                                    MUTABLE    +4,1
001337: 04,2725           03745                                    RTX1
001338: 04,2726           23752                           STODL*   RTSR1/MU
001339: 04,2727           11736                                    MUTABLE    -2,1
001340: 04,2730           54214                           BOFF     SR
001341: 04,2731           04343                                    CMOONFLG
001342: 04,2732           10734                                    RTRNMU
001343: 04,2733           20607                                    6D
001344: 04,2734           03750        RTRNMU             STORE    RTMU
001345: 04,2735           43134                           SXA,2    CLEAR
001346: 04,2736           03746                                    RTX2
001347: 04,2737           01271                                    FINALFLG
001348: 04,2740           77650                           GOTO
001349: 04,2741           73002                                    VN1645
001350:
001351:                                                                                                  #  ..... PERIAPO .....
001352:                                                                                                  #  MOD NO -1                     LOG SECTION - P34-P35, P74-P75
001353:                                                                                                  #  MOD BY WHITE.P                DATE 18JAN68
001354:
001355:                                                                                                  #  FUNCTIONAL DESCRIPTION
001356:
001357:                                                                                                  #        THIS SUBROUTINE COMPUTES THE TWO BODY APOCENTER AND PERICENTER
001358:                                                                                                  #        ALTITUDES GIVEN THE POSITION AND VELOCITY VECTORS FOR A POINT ON
001359:                                                                                                  #        THE TRAJECTORY AND THE PRIMARY BODY.
001360:
001361:                                                                                                  #        SETRAD IS CALLED TO DETERMINE THE RADIUS OF THE PRIMARY BODY.
001362:
001363:                                                                                                  #        APSIDES IS CALLED TO SOLVE FOR THE TWO BODY RADII OF APOCENTER AND
001364:                                                                                                  #        PERICENTER AND THE ECCENTRICITY OF THE TRAJECTORY.
001365:
001366:                                                                                                  #  CALLING SEQUENCE
001367:                                                                                                  #        L       CALL
001368:                                                                                                  #        L+1             PERIAPO
001369:                                                                                                  #        L+2     (RETURN - ALWAYS)
001370:
001371:                                                                                                  #  INPUT
001372:                                                                                                  #        (1)     RVEC    POSITION VECTOR IN METERS
001373:                                                                                                  #                        SCALE FACTOR - EARTH +29, MOON +27
001374:                                                                                                  #        (2)     VVEC    VELOCITY VECTOR IN METERS/CENTISECOND
001375:                                                                                                  #                        SCALE FACTOR - EARTH +7, MOON +5
001376:                                                                                                  #        (3)     X1      PRIMARY BODY INDICATOR
001377:                                                                                                  #                        EARTH -2, MOON -10
001378:
001379:                                                                                                  #  OUTPUT
001380:                                                                                                  #        (1)     2D      APOCENTER RADIUS IN METERS
001381:                                                                                                  #                        SCALE FACTOR - EARTH +29, MOON +27
001382:                                                                                                  #        (2)     4D      APOCENTER ALTITUDE IN METERS
001383:                                                                                                  #                        SCALE FACTOR - EARTH +29, MOON P27
001384:                                                                                                  #        (3)     6D      PERICENTER RADIUS IN METERS
001385:                                                                                                  #                        SCALE FACTOR - EARTH +29, MOON +27
001386:                                                                                                  #        (4)     8D      PERICENTER ALTITUDE IN METERS
001387:                                                                                                  #                        SCALE FACTOR - EARTH +29, MOON +27
001388:                                                                                                  #        (5)     ECC     ECCENTRICITY OF CONIC TRAJECTORY
001389:                                                                                                  #                        SCALE FACTOR - +3
001390:                                                                                                  #        (6)     XXXALT  RADIUS OF THE PRIMARY BODY IN METERS
001391:                                                                                                  #                        SCALE FACTOR - EARTH +29, MOON +27
001392:                                                                                                  #        (7)     PUSHLOC EQUALS 10D
001393:
001394:                                                                                                  #  SUBROUTINES USED
001395:                                                                                                  #        SETRAD
001396:                                                                                                  #        APSIDES
001397:
001398: 22,2000                                           SETLOC   APOPERI
001399: 22,2000                                           BANK
001400:
001401: 22,3151                                           COUNT*   $$/PERAP
001402:
001403: 22,3151           00302 17755  RPAD               2DEC     6373338    B-29                       #  STANDARD RADIUS OF PAD 37-B.
001404:                                                                                                  #  = 20 909 901.57 FT
001405:
001406: 22,3153           53754        PERIAPO1           LXA,2    VSR*
001407: 22,3154           03746                                    RTX2
001408: 22,3155           57176                                    0,2
001409: 22,3156           26746                           STOVL    VVEC
001410: 22,3157           53750                           LXA,1    VSR*
001411: 22,3160           03745                                    RTX1
001412: 22,3161           57176                                    0,2
001413: 22,3162           02657                           STORE    RVEC
001414: 22,3163           45020        PERIAPO            STQ      CALL
001415: 22,3164           01340                                    NORMEX
001416: 22,3165           45201                                    SETRAD
001417: 22,3166           37456                           STCALL   XXXALT
001418: 22,3167           25713                                    APSIDES
001419: 22,3170           41401                           SETPD    PUSH                                  #  2D = APOCENTER RADIUS         B29 OR B27
001420: 22,3171           00003                                    2D
001421: 22,3172           65225                           DSU      PDDL                                  #  4D = APOGEE ALTITUDE          B29 OR B27
001422: 22,3173           03456                                    XXXALT
001423: 22,3174           00001                                    0D
001424: 22,3175           45206                           PUSH     DSU                                   #  6D = PERICENTER RADIUS        B29 OR B27
001425: 22,3176           03456                                    XXXALT
001426: 22,3177           52006                           PUSH     GOTO                                  #  8D = PERIGEE ALTITUDE         B29 OR B27
001427: 22,3200           01340                                    NORMEX
001428:                                                                                                  #  SETRAD
001429: 22,3201           41545        SETRAD             DLOAD    PUSH
001430: 22,3202           05152                                    RPAD
001431: 22,3203           63130                           SXA,1    INCR,2
001432: 22,3204           00047                                    X2
001433: 22,3205           00002                                    2D
001434: 22,3206           46135                           SLOAD    BHIZ
001435: 22,3207           00050                                    X2
001436: 22,3210           45214                                    SETRADX
001437: 22,3211           51575                           VLOAD    ABVAL
001438: 22,3212           02026                                    RLS
001439: 22,3213           77725                           PDDL
001440: 22,3214           43545        SETRADX            DLOAD    RVQ
001441:
001442:                                                                                                  #  PRECSET
001443: 22,3215           77620        PRECSET            STQ
001444: 22,3216           01340                                    NORMEX
001445: 22,3217           36635                           STCALL   TDEC2
001446: 22,3220           27115                                    LEMPREC
001447: 22,3221           77624                           CALL
001448: 22,3222           45233                                    LEMSTORE
001449: 22,3223           77745                           DLOAD
001450: 22,3224           02635                                    TDEC2
001451: 22,3225           34041                           STCALL   TDEC1
001452: 22,3226           27101                                    CSMPREC
001453: 22,3227           77624                           CALL
001454: 22,3230           45243                                    CSMSTORE
001455: 22,3231           77650                           GOTO
001456: 22,3232           01340                                    NORMEX
001457: 22,3233           43175        LEMSTORE           VLOAD    BOFF
001458: 22,3234           00001                                    RATT
001459: 22,3235           01352                                    AVFLAG
001460: 22,3236           45247                                    PASSIVE
001461: 22,3237           27540        ACTIVE             STOVL    RACT3
001462: 22,3240           00007                                    VATT
001463: 22,3241           03546                           STORE    VACT3
001464: 22,3242           77616                           RVQ
001465: 22,3243           43175        CSMSTORE           VLOAD    BOFF
001466: 22,3244           00001                                    RATT
001467: 22,3245           01352                                    AVFLAG
001468: 22,3246           45237                                    ACTIVE
001469: 22,3247           27554        PASSIVE            STOVL    RPASS3
001470: 22,3250           00007                                    VATT
001471: 22,3251           03562                           STORE    VPASS3
001472: 22,3252           77616                           RVQ
001473:
001474:                                                                                                  #  VECSHIFT
001475: 22,3253           53754        VECSHIFT           LXA,2    VSR*
001476: 22,3254           03746                                    RTX2
001477: 22,3255           57176                                    0,2
001478: 22,3256           63350                           LXA,1    PDVL
001479: 22,3257           03745                                    RTX1
001480: 22,3260           63257                           VSR*     PDVL
001481: 22,3261           57176                                    0,2
001482: 22,3262           77616                           RVQ
001483:
001484:                                                                                                  #  SHIFTR1
001485: 22,3263           53754        SHIFTR1            LXA,2    SL*
001486: 22,3264           03746                                    RTX2
001487: 22,3265           57576                                    0,2
001488: 22,3266           77616                           RVQ
001489:
001490:                                                                                                  #  PROGRAM DESCRIPTION
001491:
001492:                                                                                                  #  SUBROUTINE NAME       R36     OUT-OF-PLANE RENDEZVOUS ROUTINE
001493:                                                                                                  #  MOD NO. 2             DATE 2 JANUARY 1969
001494:                                                                                                  #  MOD BY A.W.BANCROFT   LOG SECTION EXTENDED VERBS
001495:
001496:                                                                                                  #  FUNCTIONAL DESCRIPTION
001497:
001498:                                                                                                  #  TO DISPLAY AT ASTRONAUT REQUEST LGC CALCULATED RENDEZVOUS
001499:                                                                                                  #  OUT-OF-PLANE PARAMETERS (Y, YDOT, PSI).  (REQUESTED BY DSKY).
001500:
001501:                                                                                                  #  CALLING SEQUENCE
001502:                                                                                                  #        ASTRONAUT REQUEST THROUGH DSKY V 90 E
001503:
001504:                                                                                                  #  SUBROUTINES CALLED
001505:                                                                                                  #        EXDSPRET
001506:                                                                                                  #        GOMARKF
001507:                                                                                                  #        CSMPREC
001508:                                                                                                  #        LEMPREC
001509:                                                                                                  #        SGNAGREE
001510:                                                                                                  #        LOADTIME
001511:
001512:                                                                                                  #  NORMAL EXIT MODES
001513:                                                                                                  #        ASTRONAUT REQUEST THROUGH DSKY TO TERMINATE PROGRAM V 34 E
001514:
001515:                                                                                                  #  ALARM OR ABORT EXIT MODES
001516:                                                                                                  #        NONE
001517:
001518:                                                                                                  #  OUTPUT
001519:                                                                                                  #        DECIMAL DISPLAY OF TIME, Y, YDOT AND PSI
001520:
001521:                                                                                                  #        DISPLAYED VALUES Y, YDOT, AND PSI, ARE STORED IN ERASABLE
001522:                                                                                                  #        REGISTERS RANGE, RRATE AND RTHETA RESPECTIVELY.
001523:
001524:                                                                                                  #  ERASABLE INITIALIZATION REQUIRED
001525:                                                                                                  #        CSM AND LEM STATE VECTORS
001526:
001527:                                                                                                  #  DEBRIS
001528:                                                                                                  #        CENTRALS A,Q,L
001529:                                                                                                  #        OTHER THOSE USED BY THE ABOVE LISTED SUBROUTINES
001530:
001531: 20,2164                                           BANK     20
001532: 20,2000                                           SETLOC   R36CM
001533: 20,2000                                           BANK
001534: 20,2164  E4,1726                                  EBANK=   RPASS36
001535:
001536: 20,2164  41,3727                                  SBANK=   R36A
001537: 20,2164                                           COUNT*   $$/R36
001538:
001539: 20,2164           35032        R36                CAF      TWO
001540: 20,2165           55051                           TS       OPTIONX
001541: 20,2166           35033                           CAF      ONE
001542: 20,2167           55052                           TS       OPTIONX    +1
001543: 20,2170           32200                           CAF      OPTION36                              #  V 04 N 12
001544: 20,2171           04676                           TC       BANKCALL
001545: 20,2172           20561                           CADR     GOXDSPF
001546: 20,2173           05550                           TC       ENDEXT                                #  TERMINATE
001547: 20,2174           02176                           TC       +2                                    #  PROCEED
001548: 20,2175           02170                           TC       -5                                    #  R2 LOADED VIA DSKY
001549: 20,2176           04715                           TC       POSTJUMP
001550: 20,2177           63727                           CADR     R36A
001551:
001552: 20,2200           01014        OPTION36           VN       0412
001553:
001554: 41,2000                                           SETLOC   R36LM
001555: 41,2000                                           BANK
001556:
001557: 41,3727           22007        R36A               ZL
001558: 41,3730           35035                           CAF      ZERO                                  #  SET TIME OF EVENT TO ZERO FOR FIRST
001559: 41,3731           53052                           DXCH     DSPTEMX                               #  DISPLAY
001560: 41,3732           23742                           LXCH     OPTIONY                               #  SAVE VEH. OPTION
001561: 41,3733           33775        R36P3              CAF      V06N16N
001562: 41,3734           04676                           TC       BANKCALL
001563: 41,3735           20561                           CADR     GOMARKF
001564: 41,3736           15550                           TCF      ENDEXT                                #  TERMINATE
001565: 41,3737           13741                           TCF      +2                                    #  PROCEED
001566: 41,3740           13733                           TCF      -5                                    #  RECYCLE FOR ASTRONAUT INPUT TIME
001567: 41,3741           53052                           DXCH     DSPTEMX
001568: 41,3742           00006                           EXTEND
001569: 41,3743           13764                           BZF      LREGCHK                               #  A-REG ZERO GOTO CHECK L-REG FOR ZERO
001570: 41,3744           52155        ASTROTIM           DXCH     MPAC                                  #  A-REG NON-ZERO, TIME = ASTRO INPUT TIME
001571: 41,3745           06006                           TC       INTPRET
001572: 41,3746           52034                           RTB      GOTO
001573: 41,3747           45716                                    DPMODE
001574: 41,3750           65521                                    R36INT
001575:
001576: 42,2000                                           SETLOC   R36LM1
001577: 42,2000                                           BANK
001578:
001579: 42,3521           00041        R36INT             STORE    TDEC1
001580: 42,3522           70535                           SLOAD    SR1
001581: 42,3523           02343                                    OPTIONY
001582: 42,3524           45030                           BHIZ     CALL
001583: 42,3525           65531                                    R36PROG2                              #  FOR CSM DISPLAY
001584: 42,3526           27101                                    THISPREC                              #  FOR LEM DISPLAY
001585: 42,3527           77650                           GOTO
001586: 42,3530           65533                                    R36PROG3
001587: 42,3531           77624        R36PROG2           CALL
001588: 42,3532           27115                                    OTHPREC
001589: 42,3533           63375        R36PROG3           VLOAD    PDVL
001590: 42,3534           00007                                    VATT
001591: 42,3535           00001                                    RATT                                  #  -
001592: 42,3536           02327                           STORE    RPASS36                               #  R
001593: 42,3537           63256                           UNIT     PDVL                                  #   P
001594: 42,3540           53435                           VXV      UNIT                                  #  -
001595: 42,3541           77626                           STADR
001596: 42,3542           61442                           STODL    UNP36                                 #  U
001597: 42,3543           00015                                    TAT
001598: 42,3544           00041                           STORE    TDEC1
001599: 42,3545           70535                           SLOAD    SR1
001600: 42,3546           02343                                    OPTIONY
001601: 42,3547           45030                           BHIZ     CALL
001602: 42,3550           65554                                    R36PROG4                              #  FOR CSM DISPLAY
001603: 42,3551           27115                                    OTHPREC                               #  FOR LEM DISPLAY
001604: 42,3552           77650                           GOTO
001605: 42,3553           65556                                    R36PROG5
001606: 42,3554           77624        R36PROG4           CALL
001607: 42,3555           27101                                    THISPREC
001608: 42,3556           63375        R36PROG5           VLOAD    PDVL                                  #                        -
001609: 42,3557           00007                                    VATT                                  #  VELOCITY VECTOR       V       00D
001610: 42,3560           00001                                    RATT                                  #                         A
001611: 42,3561           77725                           PDDL
001612: 42,3562           00015                                    TAT                                   #  SAVE TIME IN LOCATION 30D FOR REDISPLAY
001613: 42,3563           24037                           STOVL    30D                                   #                   -
001614: 42,3564           41406                           PUSH     PUSH                                  #  POSITION VECTOR  R   IN  06D AND 12D
001615: 42,3565           63245                           BVSU     PDVL                                  #                    A  -   -
001616: 42,3566           02327                                    RPASS36                               #  LINE OF SIGHT VECTOR R - R       12D
001617: 42,3567           72441                           DOT      SL1                                   #                        P   A
001618: 42,3570           02335                                    UNP36                                 #      -   -
001619: 42,3571           26321                           STOVL    RANGE                                 #  Y = U . R
001620: 42,3572           00001                                    00D                                   #           A
001621: 42,3573           72441                           DOT      SL1
001622: 42,3574           02335                                    UNP36                                 #  .   -   -
001623: 42,3575           26323                           STOVL    RRATE                                 #  Y = U . V
001624: 42,3576           00007                                    06D                                   #  -        A  -
001625: 42,3577           41456                           UNIT     PUSH                                  #  U  = UNIT ( R  )              18D
001626: 42,3600           47235                           VXV      VXV                                   #   RA          A
001627: 42,3601           00001                                    00D                                   #   -    -     -     -
001628: 42,3602           00023                                    18D                                   #  (U  X V ) X U   = U
001629: 42,3603           53552                           VSL2     UNIT                                  #    RA   A     RA    A
001630: 42,3604           52056                           UNIT     GOTO
001631: 42,3605           61606                                    R36B
001632:
001633: 40,2000                                           SETLOC   R36CM1
001634: 40,2000                                           BANK
001635:
001636: 40,3606           24001        R36B               STOVL    00D                                   #  UNIT HORIZONTAL IN FORWARD DIR. 00D
001637: 40,3607           00023                                    18D
001638: 40,3610           74241                           DOT      VXSC                                  #  -
001639: 40,3611           00015                                    12D                                   #  U
001640: 40,3612           77752                           VSL2                                           #   L
001641: 40,3613           53445                           BVSU     UNIT
001642: 40,3614           77656                           UNIT
001643: 40,3615           50206                           PUSH     DOT                                   #  LOS PROJECTED INTO HORIZONTAL  12D
001644: 40,3616           00001                                    00D                                   #  PLANE
001645: 40,3617           65552                           SL1      ARCCOS                                #               -   -
001646: 40,3620           26325                           STOVL    RTHETA                                #  PSI = ARCCOS(U . U )
001647: 40,3621           50235                           VXV      DOT                                   #                A   L
001648: 40,3622           00001                                    00D
001649: 40,3623           71244                           BPL      DLOAD
001650: 40,3624           63751                                    R36TAG2
001651: 40,3625           15342                                    DPPOSMAX
001652: 40,3626           77625                           DSU
001653: 40,3627           02325                                    RTHETA
001654: 40,3630           36325                           STCALL   RTHETA
001655: 40,3631           63751                                    R36TAG2
001656:
001657: 41,2000                                           SETLOC   R36LM
001658: 41,2000                                           BANK
001659:
001660: 41,3751           47145        R36TAG2            DLOAD    RTB
001661: 41,3752           00037                                    30D
001662: 41,3753           45544                                    SGNAGREE
001663: 41,3754           01052                           STORE    DSPTEMX
001664: 41,3755           77776                           EXIT
001665: 41,3756           33776                           CAF      V06N90N                               #  DISPLAY Y, YDOT, AND PSI
001666: 41,3757           04676                           TC       BANKCALL
001667: 41,3760           20561                           CADR     GOMARKF
001668: 41,3761           15550                           TCF      ENDEXT                                #  TERMINATE
001669: 41,3762           15550                           TCF      ENDEXT                                #  PROCEED, END OF PROGRAM
001670: 41,3763           13733                           TCF      R36P3                                 #  REDISPLAY OUTPUT
001671: 41,3764           56001        LREGCHK            XCH      L
001672: 41,3765           00006                           EXTEND
001673: 41,3766           13771                           BZF      ENTTIM2                               #  L-REG ZERO, SET TIME = PRESENT TIME
001674: 41,3767           56001                           XCH      L                                     #  L-REG NON ZERO, TIME = ASTRO INPUT TIME
001675: 41,3770           13744                           TCF      ASTROTIM
001676: 41,3771           06006        ENTTIM2            TC       INTPRET
001677: 41,3772           52034                           RTB      GOTO
001678: 41,3773           45510                                    LOADTIME
001679: 41,3774           65521                                    R36INT
001680: 41,3775           01420        V06N16N            VN       00616
001681: 41,3776           01532        V06N90N            VN       00690
001682: 41,3777  30,2000                                  SBANK=   LOWSUPER

End of include-file P34-P35,_P74-P75.agc.  Parent file is MAIN.agc


