
Source Code


000002:                                                                                                  ## Copyright:   Public domain.
000003:                                                                                                  ## Filename:    P37,P70.agc
000004:                                                                                                  ## Purpose:     A section of Comanche revision 067.
000005:                                                                                                  ##              It is part of the reconstructed source code for the flight
000006:                                                                                                  ##              software for the Command Module's (CM) Apollo Guidance Computer
000007:                                                                                                  ##              (AGC) for Apollo 12. No original listings of this program are
000008:                                                                                                  ##              available; instead, this file was created via dissassembly of
000009:                                                                                                  ##              dumps of Comanche 067 core rope modules and comparison with
000010:                                                                                                  ##              other AGC programs.
000011:                                                                                                  ## Assembler:   yaYUL
000012:                                                                                                  ## Contact:     Ron Burkey <info@sandroid.org>.
000013:                                                                                                  ## Website:     www.ibiblio.org/apollo/index.html
000014:                                                                                                  ## Mod history: 2023-08-16 MAS  Created from Comanche 055.
000015:
000016: 31,3700                                           BANK     31
000017: 36,2000                                           SETLOC   RTE1
000018: 36,2000                                           BANK
000019:
000020: 36,2466  E7,1631                                  EBANK=   RTEDVD
000021: 36,2466                                           COUNT    31/P37
000022:
000023:                                                                                                  #  PROGRAM DESCRIPTION - P37, RETURN TO EARTH
000024:
000025:                                                                                                  #  DESCRIPTION
000026:                                                                                                  #        A RETURN TO EARTH TRAJECTORY IS COMPUTED PROVIDED THE CSM IS OUTSIDE THE LUNAR SPHERE OF INFLUENCE AT THE
000027:                                                                                                  #        TIME OF IGNITION.  INITIALLY A CONIC TRAJECTORY IS DETERMINED AND RESULTING IGNITION AND REENTRY PARAMETERS ARE
000028:                                                                                                  #        DISPLAYED TO THE ASTRONAUT.  THEN IF THE ASTRONAUT SO DESIRES, A PRECISION TRAJECTORY IS DETERMINED WITH THE
000029:                                                                                                  #        RESULTING IGNITION AND REENTRY PARAMETERS DISPLAYED.  UPON FINAL ACCEPTANCE BY THE ASTRONAUT, THE PROGRAM
000030:                                                                                                  #        COMPUTES AND STORES THE TARGET PARAMETERS FOR RETURN TO EARTH FOR USE BY SPS PROGRAM (P40) OR RCS PROGRAM (P41).
000031:
000032:                                                                                                  #  CALLING SEQUENCE
000033:                                                                                                  #        L       TC      P37
000034:
000035:                                                                                                  #  SUBROUTINES CALLED
000036:                                                                                                  #        PREC100
000037:                                                                                                  #                V2T100
000038:                                                                                                  #                RTENCK2
000039:                                                                                                  #                RTENCK3
000040:                                                                                                  #                TIMERAD
000041:                                                                                                  #                PARAM
000042:                                                                                                  #        V2T100
000043:                                                                                                  #                GAMDV10
000044:                                                                                                  #                XT1LIM
000045:                                                                                                  #                DVCALC
000046:                                                                                                  #        RTENCK1
000047:                                                                                                  #                INTSTALL
000048:                                                                                                  #                INTEGRVS
000049:                                                                                                  #        RTEVN
000050:                                                                                                  #                RTEDISP
000051:                                                                                                  #                TMRAD100
000052:                                                                                                  #                AUGEKUGL
000053:                                                                                                  #                LAT-LONG
000054:                                                                                                  #        TMRAD100
000055:                                                                                                  #                TIMERAD
000056:                                                                                                  #        INVC100
000057:                                                                                                  #                CSMPREC
000058:                                                                                                  #        GETERAD
000059:                                                                                                  #        TIMETHET
000060:                                                                                                  #        P370ALRM
000061:                                                                                                  #        VN1645
000062:                                                                                                  #        POLY
000063:
000064:                                                                                                  #  ERASABLE INITIALIZATION REQUIRED
000065:                                                                                                  #        CSM STATE VECTOR
000066:                                                                                                  #        NJETSFLG        NUMBER OF JETS IF THE RCS PROPULSION SYSTEM SELECTED    STATE FLAG      0=4 JETS  1=2 JETS
000067:
000068:                                                                                                  #  ASTRONAUT INPUT
000069:                                                                                                  #        SPRTETIG        TIME OF IGNITION (OVERLAYS TIG)                         DP      B28     CS
000070:                                                                                                  #        VPRED           DESIRED CHANGE IN VELOCITY AT TIG(PROGRM COMPUTED IF 0) DP      B7      METERS/CS
000071:                                                                                                  #        GAMMAEI         DESIRED FLIGHT PATH ANGLE AT REENTRY (COMPUTED IF 0)    DP      B0      REVS + ABOVE HORIZ.
000072:                                                                                                  #        OPTION2         PROPULSION SYSTEM OPTION                                SP      B14     1=SPS, 2=RCS
000073:
000074:                                                                                                  #  OUTPUT
000075:                                                                                                  #     CONIC OR PRECISION TRAJECTORY DISPLAY
000076:                                                                                                  #        VPRED           VELOCITY MAGNITUDE AT 400,000 FT. ENTRY ALTITUDE        DP      B7      METERS/CS
000077:                                                                                                  #        T3TOT4          TRANSIT TIME TO 400,000 FT. ENTRY ALTITUDE              DP      B28     CS
000078:                                                                                                  #        GAMMAEI         FLIGHT PATH ANGLE AT 400,000 FT. ENTRY ALTITUDE         DP      B0      REVS + ABOVE HORIZON
000079:                                                                                                  #        DELVLVC         INITIAL VELOCITY CHANGE VECTOR IN LOCAL VERTICAL COORD. VECTOR  B7      METERS/CS
000080:                                                                                                  #        LAT(SPL)        LATITUDE OF THE LANDING SITE                            DP      B0      REVS
000081:                                                                                                  #        LNG(SPL)        LONGITUDE OF THE LANDING SITE                           DP      B0      REVS
000082:                                                                                                  #     TARGETING COMPUTATION DISPLAY
000083:                                                                                                  #        TIG             RECOMPUTED TIG BASED ON THRUST OPTION                   DP      B28     CS
000084:                                                                                                  #        TTOGO           TIME FROM TIG                                           DP      B28     CS
000085:                                                                                                  #        +MGA            POSITIVE MIDDLE GIMBAL ANGLE                            DP      B0      REVS -.02 IF REFSMFLG=0
000086:                                                                                                  #     THRUST PROGRAM COMMUNICATION
000087:                                                                                                  #        XDELVFLG        EXTERNAL DELTA V FLAG                                   STATE   FLAG    SET 0 FOR LAMBERT AIMPT
000088:                                                                                                  #        NORMSW          LAMBERT AIMPT ROTATION SWITCH                           STATE   FLAG    SET 0 FOR NO ROTATION
000089:                                                                                                  #        ECSTEER         CROSS PRODUCT STEERING CONSTANT                         SP      B2      SET 1
000090:                                                                                                  #        RTARG           CONICALLY INTEGRATED REENTRY POSITION VECTOR            VECTOR  B29     METERS
000091:                                                                                                  #        TPASS4          REENTRY TIME                                            DP      B28     CS
000092:
000093: 36,2466           05426        P37                TC       PHASCHNG                              #  P37 IS NOT RESTARTABLE.
000094: 36,2467           00004                           OCT      4
000095:
000096: 36,2470           06006                           TC       INTPRET
000097: 36,2471           66170                           AXT,1    SXA,1
000098: 36,2472           04000                           OCT      04000
000099: 36,2473           03424                                    ECSTEER
000100: 36,2474           77745                           DLOAD
000101: 36,2475           15334                                    ZEROVECS
000102: 36,2476           03767                           STORE    VPRED
000103: 36,2477           03771                           STORE    GAMMAEI
000104: 36,2500           77776                           EXIT
000105: 36,2501           33246                           CAF      V6N33RTE                              #  INPUT TIG     STORED IN SPRTETIG
000106: 36,2502           03235                           TCR      P370GOF                               #                OVERLAYED WITH TIG
000107: 36,2503           12501                           TCF      -2                                    #  DESPLAY NEW DATA
000108: 36,2504           33252                           CAF      V6N60RTE                              #  INPUT REENTRY ANGLE IN GAMMAEI
000109: 36,2505           03211                           TCR      P37GFRB1                              #        AND DESIRED DELTA V IN RTEDVD
000110: 36,2506           12504                           TCF      -2                                    #  DISPLAY NEW DATA
000111: 36,2507           06006        RTE299             TC       INTPRET
000112: 36,2510           71331                           SSP      DLOAD
000113: 36,2511           00122                                    OVFIND
000114: 36,2512           00000                                    0
000115: 36,2513           03767                                    VPRED
000116: 36,2514           17632                           STODL    RTEDVD
000117: 36,2515           03771                                    GAMMAEI
000118: 36,2516           17634                           STODL    RTEGAM2D
000119: 36,2517           33514                                    1RTEB13
000120: 36,2520           17735                           STODL    CONICX1
000121: 36,2521           33620                                    C4RTE
000122: 36,2522           37652                           STCALL   MAMAX1
000123: 36,2523           64450                                    INVC100                               #  GET R(T1)/,V(T1)/,UR1/,UH/
000124: 36,2524           71214                           CLEAR    DLOAD
000125: 36,2525           02662                                    SLOWFLG
000126: 36,2526           03632                                    RTEDVD
000127: 36,2527           51444                           BPL      ABS
000128: 36,2530           74540                                    RTE317
000129: 36,2531           03632                           STORE    RTEDVD
000130: 36,2532           45345                           DLOAD    DSU
000131: 36,2533           03646                                    R(T1)
000132: 36,2534           33622                                    K1RTE
000133: 36,2535           43040                           BMN      SET
000134: 36,2536           74540                                    RTE317
000135: 36,2537           02462                                    SLOWFLG
000136: 36,2540           77545        RTE317             DLOAD    EXIT
000137: 36,2541           03646                                    R(T1)
000138: 36,2542           07171                           TC       POLY
000139: 36,2543           00002                           DEC      2          B-14
000140: 36,2544           02544 35436                     2DEC     181000434. B-31
000141: 36,2546           14040 05066                     2DEC     1.50785145 B-2
000142: 36,2550           44052 60030                     2DEC*    -6.49993057 E-9        B27*
000143: 36,2552           26415 25057                     2DEC*    9.76938926 E-18       B56*
000144: 36,2554           06006                           TC       INTPRET
000145: 36,2555           77752                           SL1
000146: 36,2556           17654                           STODL    MAMAX2                                #  C0+C1*R+C2*R**2+C3*R**3=MAMAX2 B30
000147: 36,2557           33544                                    M9RTEB28
000148: 36,2560           17730                           STODL    NN1A
000149: 36,2561           33624                                    K2RTE
000150: 36,2562           17636        RTE320             STODL    RCON                                  #  RCON=K2
000151: 36,2563           03634                                    RTEGAM2D
000152: 36,2564           44254                           BZE      BDSU
000153: 36,2565           74574                                    RTE340                                #  GOTORTE340 IF REENTRY ANGLE NOT INPUT
000154: 36,2566           33502                                    1RTEB2
000155: 36,2567           71406                           PUSH     COS                                   #                                        PL02D
000156: 36,2570           73525                           PDDL     SIN
000157: 36,2571           45465                           BDDV     STADR                                 #                                        PL00D
000158: 36,2572           40051                           STCALL   X(T2)                                 #  X(T2)=COT(GAM2D)                      B0
000159: 36,2573           74607                                    RTE360
000160: 36,2574           45345        RTE340             DLOAD    DSU
000161: 36,2575           03646                                    R(T1)
000162: 36,2576           33622                                    K1RTE
000163: 36,2577           71240                           BMN      DLOAD
000164: 36,2600           74604                                    RTE350
000165: 36,2601           33630                                    K4RTE
000166: 36,2602           37726                           STCALL   X(T2)                                 #  X(T2)=K4
000167: 36,2603           74607                                    RTE360
000168: 36,2604           77745        RTE350             DLOAD
000169: 36,2605           33626                                    K3RTE
000170: 36,2606           03726                           STORE    X(T2)                                 #  X(T2)=K3
000171: 36,2607           77624        RTE360             CALL
000172: 36,2610           65075                                    V2T100
000173: 36,2611           52054                           BZE      GOTO
000174: 36,2612           74614                                    RTE367
000175: 36,2613           74776                                    RTEALRM
000176: 36,2614           77775        RTE367             VLOAD
000177: 36,2615           03640                                    R(T1)/
000178: 36,2616           16657                           STODL    RVEC
000179: 36,2617           03636                                    RCON
000180: 36,2620           26760                           STOVL    RDESIRED
000181: 36,2621           03700                                    V2(T1)/
000182: 36,2622           36746                           STCALL   VVEC
000183: 36,2623           64277                                    TMRAD100
000184: 36,2624           77615                           DAD
000185: 36,2625           03716                                    T1
000186: 36,2626           17736                           STODL    T2
000187: 36,2627           03634                                    RTEGAM2D
000188: 36,2630           52054                           BZE      GOTO
000189: 36,2631           74633                                    RTE369
000190: 36,2632           74655                                    RTE372
000191: 36,2633           51575        RTE369             VLOAD    ABVAL
000192: 36,2634           03710                                    V(T2)/
000193: 36,2635           77776                           EXIT
000194: 36,2636           07171                           TC       POLY
000195: 36,2637           00002                           DEC      2          B-14
000196: 36,2640           00000 00000                     2DEC     0          B-28
000197: 36,2642           47021 65002                     2DEC     -4.8760771 E-2        B4
000198: 36,2644           35610 07722                     2DEC     4.5419476  E-4        B11
000199: 36,2646           63772 63276                     2DEC     -1.4317675 E-6        B18
000200:
000201: 36,2650           06006                           TC       INTPRET
000202: 36,2651           77615                           DAD
000203: 36,2652           01346                                    RTED1
000204: 36,2653           52052                           SL3      GOTO                                  #  X(T2),=D1+D2V2+D3V2**2+D4V2**3
000205: 36,2654           74657                                    RTE373
000206: 36,2655           77745        RTE372             DLOAD                                          #  X(T2),=X(T2)
000207: 36,2656           03726                                    X(T2)
000208: 36,2657           41425        RTE373             DSU      PUSH                                  #  X(T2)ERR                              B0 PL02D
000209: 36,2660           03726                                    X(T2)
000210: 36,2661           53575                           VLOAD    UNIT
000211: 36,2662           03656                                    R(T2)/                                #                                        B58
000212: 36,2663           36152                           STCALL   ALPHAV
000213: 36,2664           26515                                    GETERAD
000214: 36,2665           77615                           DAD
000215: 36,2666           33634                                    E3RTE
000216: 36,2667           45206                           PUSH     DSU                                   #  RCON,=(E1/(1+E2BETA11)**.5)+E3        B29 PL04D
000217: 36,2670           03636                                    RCON
000218: 36,2671           45246                           ABS      DSU
000219: 36,2672           33600                                    EPC2RTE
000220: 36,2673           52040                           BMN      GOTO
000221: 36,2674           74676                                    RTE374
000222: 36,2675           74703                                    RTE375
000223: 36,2676           51545        RTE374             DLOAD    ABS
000224: 36,2677           00001                                    00D
000225: 36,2700           50025                           DSU      BMN
000226: 36,2701           33602                                    EPC3RTE
000227: 36,2702           74753                                    P37E
000228: 36,2703           43345        RTE375             DLOAD    DAD
000229: 36,2704           03730                                    NN1A
000230: 36,2705           33522                                    1RTEB28
000231: 36,2706           67240                           BMN      SLOAD
000232: 36,2707           74713                                    RTE380
000233: 36,2710           33562                                    OCT605
000234: 36,2711           77650                           GOTO
000235: 36,2712           74776                                    RTEALRM                               #  TOO MANY ITERATIONS
000236: 36,2713           03730        RTE380             STORE    NN1A
000237: 36,2714           53025                           DSU      BZE
000238: 36,2715           33546                                    M8RTEB28
000239: 36,2716           74734                                    RTE385
000240: 36,2717           45345                           DLOAD    DSU
000241: 36,2720           00001                                    00D
000242: 36,2721           03666                                    DRCON
000243: 36,2722           65301                           NORM     PDDL                                  #  X(T2)ERR-X(T2)ERR,=Z1                 PL06D
000244: 36,2723           00047                                    X1
000245: 36,2724           03670                                    RPRE'
000246: 36,2725           56225                           DSU      DDV                                   #  X(T2)PRI-X(T2)=Z2                     PL04D
000247: 36,2726           03726                                    X(T2)
000248: 36,2727           53605                           DMP      SL*                                   #  DX(T2)=X(T2)ERR(Z2/Z1)
000249: 36,2730           00001                                    00D
000250: 36,2731           20201                                    0,1
000251: 36,2732           77650                           GOTO
000252: 36,2733           74736                                    RTE390
000253: 36,2734           77745        RTE385             DLOAD                                          #  DX(T2)=X(T2)ERR
000254: 36,2735           00001                                    00D
000255: 36,2736           14021        RTE390             STODL    16D                                   #  DX(T2)                                PL02D
000256: 36,2737           77626                           STADR
000257: 36,2740           60141                           STODL    RCON                                  #  RCON=RCON,
000258: 36,2741           77600                           BOV
000259: 36,2742           74607                                    RTE360
000260: 36,2743           17666                           STODL    DRCON                                 #  X(T2)ERR,=X(T2)ERR
000261: 36,2744           03726                                    X(T2)
000262: 36,2745           17670                           STODL    RPRE'                                 #  X(T2)PRI=X(T2)
000263: 36,2746           00021                                    16D
000264: 36,2747           77615                           DAD
000265: 36,2750           03726                                    X(T2)
000266: 36,2751           37726                           STCALL   X(T2)                                 #  X(T2)=X(T2)+DX(T2)
000267: 36,2752           74607                                    RTE360                                #  REITERATE
000268: 36,2753           77624        P37E               CALL                                           #  DISPLAY CONIC SOLUTION
000269: 36,2754           75002                                    RTEVN
000270: 36,2755           41345        RTE505             DLOAD    DMP
000271: 36,2756           03720                                    PCON
000272: 36,2757           03754                                    BETA1
000273: 36,2760           53021                           BDSU     BZE
000274: 36,2761           03636                                    RCON
000275: 36,2762           74770                                    RTE510
000276: 36,2763           71240                           BMN      DLOAD
000277: 36,2764           74770                                    RTE510
000278: 36,2765           33502                                    1RTEB2
000279: 36,2766           77650                           GOTO                                           #  ENTRY NEAR APOGEE
000280: 36,2767           74772                                    RTE515
000281: 36,2770           57545        RTE510             DLOAD    DCOMP                                 #  ENTRY NEAR PERIGEE
000282: 36,2771           33502                                    1RTEB2
000283: 36,2772           37761        RTE515             STCALL   PHI2
000284: 36,2773           64541                                    PREC100                               #  PRECISION TRAJECTORY COMPUTATION
000285: 36,2774           77654        RTE625             BZE
000286: 36,2775           75030                                    P37G
000287: 36,2776           77624        RTEALRM            CALL
000288: 36,2777           64262                                    P370ALRM
000289: 36,3000           77776                           EXIT
000290: 36,3001           12466                           TCF      P37                                   #  RECYCLE AFTER ALARM DISPLAY
000291:
000292:                                                                                                  #  RETURN TO EARTH DISPLAY SUBROUTINE
000293:
000294: 36,3002           45020        RTEVN              STQ      CALL
000295: 36,3003           03763                                    VNSTORE
000296: 36,3004           64316                                    RTEDISP                               #  DISPLAY PREPARATION
000297: 36,3005           77776                           EXIT
000298: 36,3006           33250                           CAF      V6N61RTE                              #  LATITUDE,LONGITUDE,BLANK
000299: 36,3007           03221                           TCR      P370GOFR                              #    IN LAT(SPL),LNG(SPL),-
000300: 36,3010           35031                           CAF      FOUR
000301: 36,3011           03215                           TCR      37BLANK    +1
000302: 36,3012           13017                           TCF      +5
000303: 36,3013           12466                           TCF      P37                                   #  RECYCLE
000304: 36,3014           33251                           CAF      V6N39RTE                              #  T21 HRS,MIN,SEC IN T3TOT4
000305: 36,3015           03235                           TCR      P370GOF
000306: 36,3016           12466                           TCF      P37                                   #  RECYCLE
000307: 36,3017           33252                           CAF      V6N60RTE                              #  DISPLAY BLANK,V(T2),FPA2
000308: 36,3020           03211                           TCR      P37GFRB1                              #    IN -,VPRED,GAMMAEI
000309: 36,3021           12466                           TCF      P37                                   #  RECYCLE
000310: 36,3022           33253                           CAF      V6N81RTE                              #  DISPLAY DELTA V (LV) IN DELVLVC
000311: 36,3023           03235                           TCR      P370GOF
000312: 36,3024           12466                           TCF      P37                                   #  RECYCLE
000313: 36,3025           06006                           TCR      INTPRET
000314: 36,3026           77650                           GOTO
000315: 36,3027           03763                                    VNSTORE
000316:
000317:                                                                                                  #  PRECISION DISPLAY, TARGETING COMPUTATION AND RTE END PROCESSING
000318:
000319: 36,3030           77624        P37G               CALL
000320: 36,3031           75002                                    RTEVN
000321: 36,3032           77776                           EXIT
000322: 36,3033           35037        P37N               CAF      SEVEN
000323: 36,3034           55131                           TS       OPTION1
000324: 36,3035           35033                           CAF      ONE
000325: 36,3036           55132                           TS       OPTION2
000326: 36,3037           33247                           CAF      V4N06RTE                              #  DISPLAY RCS OR SPS OPTION  SPS ASSUMED
000327: 36,3040           03235                           TCR      P370GOF
000328: 36,3041           13037                           TCF      -2                                    #  RECYCLE
000329: 36,3042           06006                           TC       INTPRET                               #  PROCEED
000330: 36,3043           67201                           SETPD    SLOAD
000331: 36,3044           00001                                    00D
000332: 36,3045           01133                                    OPTION2
000333: 36,3046           53025                           DSU      BZE
000334: 36,3047           33514                                    1RTEB13
000335: 36,3050           75057                                    P37Q
000336: 36,3051           60335                           SLOAD    NORM                                  #  SPS
000337: 36,3052           00111                                    EMDOT
000338: 36,3053           00047                                    X1
000339: 36,3054           52125                           PDDL     GOTO
000340: 36,3055           33552                                    VCSPS
000341: 36,3056           75070                                    P37T
000342: 36,3057           43145        P37Q               DLOAD    BON                                   #  RCS
000343: 36,3060           33556                                    MDOTRCS
000344: 36,3061           00700                                    NJETSFLG
000345: 36,3062           75064                                    P37R
000346: 36,3063           77752                           SL1
000347: 36,3064           77752        P37R               SL1
000348: 36,3065           65301                           NORM     PDDL
000349: 36,3066           00047                                    X1
000350: 36,3067           33554                                    VCRCS
000351: 36,3070           56325        P37T               PDDL     DDV                                   #  DV/VC                 B7 -B5 = B2     PL02D
000352: 36,3071           03706                                    DV
000353: 36,3072           77776                           EXIT
000354: 36,3073           07171                           TC       POLY
000355: 36,3074           00001                           DEC      1          B-14
000356: 36,3075           00001 05070                     2DEC     5.66240507 E-4        B-3
000357: 36,3077           17527 36700                     2DEC     9.79487897 E-1        B-1
000358: 36,3101           47114 70670                     2DEC     -.388281955 B1
000359: 36,3103           06006                           TC       INTPRET
000360: 36,3104           67206                           PUSH     SLOAD                                 #  (1-E)**(-DV/VC)=A             B3      PL04D
000361: 36,3105           03076                                    WEIGHT/G
000362: 36,3106           56205                           DMP      DDV                                   #  DTB=(M0/MDOT)A        B16+B3-B3=B16   PL00D
000363: 36,3107           41257                           SL*      DMP
000364: 36,3110           20165                                    0          -12D,1
000365: 36,3111           33560                                    CSUBT
000366: 36,3112           77621                           BDSU
000367: 36,3113           03716                                    T1
000368: 36,3114           03413                           STORE    TIG                                   #  TIG=T1-CT*DTB                 B28
000369: 36,3115           77776                           EXIT
000370: 36,3116           33246                           CAF      V6N33RTE                              #  DISPLAY BIASED TIG
000371: 36,3117           03235                           TCR      P370GOF
000372: 36,3120           13116                           TCF      -2
000373: 36,3121           35035                           CAF      ZERO
000374: 36,3122           55125                           TS       VHFCNT
000375: 36,3123           55126                           TS       TRKMKCNT
000376: 36,3124           06006                           TC       INTPRET
000377: 36,3125           77624                           CALL                                           #  CONICALLY INTEGRATE FROM R1,V1 OVER T12
000378: 36,3126           63700                                    RTENCK1
000379: 36,3127           53575                           VLOAD    UNIT                                  #                                        PL00D
000380: 36,3130           03656                                    R(T2)/
000381: 36,3131           74315                           PDVL     VXSC                                  #  UR2                           B1      PL06D
000382: 36,3132           03740                                    UR1/
000383: 36,3133           33564                                    MCOS7.5
000384: 36,3134           74315                           PDVL     VXSC                                  #  -UR1(COS7.5)                  B1      PL12D
000385: 36,3135           03746                                    UH/
000386: 36,3136           33566                                    MSIN7.5
000387: 36,3137           50255                           VAD      DOT                                   #  K/=-UR1(COS7.5)-UH(SIN7.5)    B2      PL00D
000388: 36,3140           50015                           DAD      BMN
000389: 36,3141           33570                                    MCOS22.5
000390: 36,3142           75167                                    P37W
000391: 36,3143           50375                           VLOAD    DOT                                   #  K/ . UR2 GR COS22.5
000392: 36,3144           03746                                    UH/
000393: 36,3145           03656                                    R(T2)/
000394: 36,3146           71240                           BMN      DLOAD
000395: 36,3147           75153                                    P37U
000396: 36,3150           33572                                    THETA165
000397: 36,3151           52006                           PUSH     GOTO
000398: 36,3152           75155                                    P37V
000399: 36,3153           41545        P37U               DLOAD    PUSH
000400: 36,3154           33574                                    THETA210
000401: 36,3155           77756        P37V               SIN
000402: 36,3156           16732                           STODL    SNTH
000403: 36,3157           43146                           COS      CLEAR
000404: 36,3160           03666                                    RVSW
000405: 36,3161           26734                           STOVL    CSTH
000406: 36,3162           03640                                    R(T1)/
000407: 36,3163           26657                           STOVL    RVEC
000408: 36,3164           03700                                    V2(T1)/
000409: 36,3165           36746                           STCALL   VVEC
000410: 36,3166           24744                                    TIMETHET
000411: 36,3167           43014        P37W               CLEAR    CLEAR
000412: 36,3170           01267                                    XDELVFLG
000413: 36,3171           03665                                    NORMSW
000414: 36,3172           77214                           SET      VLOAD
000415: 36,3173           01071                                    FINALFLG
000416: 36,3174           77626                           STADR
000417: 36,3175           60362                           STODL    RTARG
000418: 36,3176           00037                                    T
000419: 36,3177           77615                           DAD
000420: 36,3200           03716                                    T1
000421: 36,3201           27656                           STOVL    TPASS4
000422: 36,3202           03700                                    V2(T1)/
000423: 36,3203           77651                           VSU
000424: 36,3204           03672                                    V(T1)/
000425: 36,3205           37646                           STCALL   DELVSIN
000426: 36,3206           73002                                    VN1645
000427: 36,3207           77650                           GOTO
000428: 36,3210           75167                                    P37W
000429:
000430:                                                                                                  #  SUBROUTINE TO GO TO GOFLASHR AND BLANK R1
000431:
000432: 36,3211           00006        P37GFRB1           EXTEND
000433: 36,3212           23762                           QXCH     SPRTEX
000434: 36,3213           03221                           TCR      P370GOFR
000435: 36,3214           35033        37BLANK            CAF      ONE
000436: 36,3215           05542                           TCR      BLANKET
000437: 36,3216           15233                           TCF      ENDOFJOB
000438: 36,3217           01762                           TC       SPRTEX                                #  RECYCLE
000439: 36,3220           13244                           TCF      P37PROC                               #  PROCEED
000440:
000441:                                                                                                  #  SUBROUTINE TO GO TO GOFLASHR
000442:
000443: 36,3221           00006        P370GOFR           EXTEND
000444: 36,3222           23733                           QXCH     RTENCKEX
000445: 36,3223           04676                           TCR      BANKCALL
000446: 36,3224           21057                           CADR     GOFLASHR
000447: 36,3225           14106                           TCF      GOTOPOOH                              #  TERMINATE
000448: 36,3226           13231                           TCF      +3
000449: 36,3227           13233                           TCF      +4
000450: 36,3230           01733                           TC       RTENCKEX                              #  IMMEDIATE RETURN
000451: 36,3231           51733                           INDEX    RTENCKEX                              #  PROCEED
000452: 36,3232           10004                           TCF      0          +4
000453: 36,3233           51733                           INDEX    RTENCKEX                              #  RECYCLE
000454: 36,3234           10003                           TCF      0          +3
000455:
000456:                                                                                                  #  SUBROUTINE TO GO TO GOFLASH
000457:
000458: 36,3235           00006        P370GOF            EXTEND
000459: 36,3236           23762                           QXCH     SPRTEX
000460: 36,3237           04676                           TCR      BANKCALL
000461: 36,3240           20720                           CADR     GOFLASH
000462: 36,3241           14106                           TCF      GOTOPOOH
000463: 36,3242           13244                           TCF      +2
000464: 36,3243           01762                           TC       SPRTEX
000465: 36,3244           51762        P37PROC            INDEX    SPRTEX
000466: 36,3245           10001                           TCF      0          +1
000467: 36,3246           01441        V6N33RTE           VN       0633
000468: 36,3247           01006        V4N06RTE           VN       0406
000469: 36,3250           01475        V6N61RTE           VN       0661
000470: 36,3251           01447        V6N39RTE           VN       0639
000471: 36,3252           01474        V6N60RTE           VN       0660
000472: 36,3253           01521        V6N81RTE           VN       0681
000473: 32,2262                                           BANK     32
000474: 32,2000                                           SETLOC   RTE
000475: 32,2000                                           BANK
000476: 32,2262                                           COUNT    32/RTE
000477:
000478:                                                                                                  #  ALARM DISPLAY SUBROUTINE
000479:
000480: 32,2262           77420        P370ALRM           STQ      EXIT
000481: 32,2263           03762                                    SPRTEX
000482: 32,2264           30154                           CA       MPAC
000483: 32,2265           05770                           TC       VARALARM
000484: 32,2266           32276                           CAF      V5N09RTE
000485: 32,2267           04676                           TC       BANKCALL
000486: 32,2270           20720                           CADR     GOFLASH
000487: 32,2271           14106                           TCF      GOTOPOOH
000488: 32,2272           12266                           TCF      -4
000489: 32,2273           06006                           TC       INTPRET
000490: 32,2274           77650                           GOTO
000491: 32,2275           03762                                    SPRTEX
000492: 32,2276           01211        V5N09RTE           VN       0509
000493:
000494:                                                                                                  #  TIME RADIUS CALLING SUBROUTINE
000495:
000496:                                                                                                  #  INPUT
000497:                                                                                                  #        RVEC            INITIAL POSITION VECTOR                                 VECTOR  B29     METERS
000498:                                                                                                  #        VVEC            INITIAL VELOCITY VECTOR                                 VECTOR  B7      METERS/CS
000499:                                                                                                  #        RDESIRED        FINAL RADIUS FOR WHICH TRANSFER TIME IS TO BE COMPUTED  DP      B29     METERS
000500:                                                                                                  #        CONICX1         X1 SETTING FOR CONIC SUBROUTINES  -2=EARTH              SP      B14
000501:
000502:                                                                                                  #  OUTPUT
000503:                                                                                                  #        R(T2)/          FINAL POSITION VECTOR                                   VECTOR  B29     METERS
000504:                                                                                                  #        V(T2)/          FINAL VELOCITY VECTOR                                   VECTOR  B7      METERS/CS
000505:                                                                                                  #        T12             TRANSFER TIME TO FINAL RADIUS                           DP      B28     CS
000506:
000507: 32,2277           43020        TMRAD100           STQ      CLEAR
000508: 32,2300           03733                                    RTENCKEX
000509: 32,2301           03666                                    RVSW
000510: 32,2302           67164                           AXC,2    SXA,2
000511: 32,2303           20000                           OCT      20000
000512: 32,2304           02756                                    SGNRDOT
000513: 32,2305           45140                           LXC,1    CALL
000514: 32,2306           03734                                    CONICX1
000515: 32,2307           25566                                    TIMERAD
000516: 32,2310           27710                           STOVL    V(T2)/                                #                                        PL00D
000517: 32,2311           77626                           STADR
000518: 32,2312           60121                           STODL    R(T2)/
000519: 32,2313           00037                                    T
000520: 32,2314           37724                           STCALL   T12
000521: 32,2315           03733                                    RTENCKEX
000522:
000523:                                                                                                  #  DISPLAY CALCULATION SUBROUTINE
000524:
000525:                                                                                                  #  DESCRIPTION
000526:                                                                                                  #        OUTPUT FOR DISPLAY IS CONVERTED TO PROPER UNITS AND PLACED IN OUTPUT STORAGE REGISTERS.  LANDING SITE
000527:                                                                                                  #        COMPUTATION FOR DETERMINING LANDING SITE LATITUDE AND LONGITUDE IS INCLUDED IN THE ROUTINE.
000528:
000529:                                                                                                  #  CALLING SEQUENCE
000530:                                                                                                  #        L       CALL
000531:                                                                                                  #        L+1             RTEDISP
000532:
000533:                                                                                                  #  SUBROUTINES CALLED
000534:                                                                                                  #        TMRAD100
000535:                                                                                                  #        AUGEKUGL
000536:                                                                                                  #        LAT-LONG
000537:
000538:                                                                                                  #  ERASABLE INITIALIZATION REQUIRED
000539:                                                                                                  #     PUSHLIST
000540:                                                                                                  #        NONE
000541:                                                                                                  #     MPAC
000542:                                                                                                  #        NONE
000543:                                                                                                  #     OTHER
000544:                                                                                                  #        R(T2)/          FINAL POSITION VECTOR                                   VECTOR  B29     METERS
000545:                                                                                                  #        V(T2)/          FINAL VELOCITY VECTOR                                   VECTOR  B7      METERS/CS
000546:                                                                                                  #        T2              FINAL TIME                                              DP      B28     CS
000547:                                                                                                  #        V2(T1)/         POST IMPULSE INITIAL VELOCITY VECTOR                    VECTOR  B7      METERS/CS
000548:                                                                                                  #        V(T1)/          INITIAL VELOCITY VECTOR                                 VECTOR  B7      METERS/CS
000549:                                                                                                  #        UR1/            UNIT INITIAL VECTOR                                     VECTOR  B1
000550:                                                                                                  #        UH/             UNIT HORIZONTAL VECTOR                                  VECTOR  B1
000551:
000552:                                                                                                  #  OUTPUT
000553:                                                                                                  #        VPRED           VELOCITY MAGNITUDE AT 400,000 FT. ENTRY ALTITUDE        DP      B7      METERS/CS
000554:                                                                                                  #        T3TOT4          TRANSIT TIME TO 400,000 FT. ENTRY ALTITUDE              DP      B28     CS
000555:                                                                                                  #        GAMMAEI         FLIGHT PATH ANGLE AT 400,000 FT. ENTRY ALTITUDE         DP      B0      REVS + ABOVE HORIZ
000556:                                                                                                  #        DELVLVC         INITIAL VELOCITY CHANGE VECTOR IN LOCAL VERTICAL COORD. VECTOR  B7      METERS/CS
000557:                                                                                                  #        LAT(SPL)        LATITUDE OF THE LANDING SITE                            DP      B0      REVS
000558:                                                                                                  #        LNG(SPL)        LONGITUDE OF THE LANDING SITE                           DP      B0      REVS
000559:
000560: 32,2316           77220        RTEDISP            STQ      VLOAD                                 #  DISPLAY
000561: 32,2317           03762                                    SPRTEX
000562: 32,2320           03710                                    V(T2)/
000563: 32,2321           65256                           UNIT     PDDL
000564: 32,2322           00045                                    36D
000565: 32,2323           17767                           STODL    VPRED                                 #  V(T2)
000566: 32,2324           03736                                    T2
000567: 32,2325           77625                           DSU
000568: 32,2326           03413                                    SPRTETIG
000569: 32,2327           26641                           STOVL    T3TOT4                                #  T21
000570: 32,2330           03656                                    R(T2)/
000571: 32,2331           50256                           UNIT     DOT
000572: 32,2332           77752                           SL1
000573:
000574: 32,2333           44326                           ARCCOS   BDSU
000575: 32,2334           33502                                    1RTEB2
000576: 32,2335           27771                           STOVL    GAMMAEI                               #  FLIGHT PATH ANGLE T2
000577: 32,2336           03700                                    V2(T1)/
000578: 32,2337           41451                           VSU      PUSH
000579: 32,2340           03672                                    V(T1)/
000580: 32,2341           57441                           DOT      DCOMP
000581: 32,2342           03740                                    UR1/
000582: 32,2343           41515                           PDVL     PUSH
000583: 32,2344           63345                           DLOAD    PDVL
000584: 32,2345           33524                                    ZERORTE
000585: 32,2346           55441                           DOT      VDEF
000586: 32,2347           03746                                    UH/
000587: 32,2350           77772                           VSL1
000588: 32,2351           17405                           STODL    DELVLVC
000589: 32,2352           03405                                    DELVLVC
000590: 32,2353           57414                           BOFF     DCOMP
000591: 32,2354           02741                                    RETROFLG
000592: 32,2355           64357                                    RTD18
000593: 32,2356           03405                           STORE    DELVLVC                               #  NEGATE X COMPONENT, RETROGRADE
000594: 32,2357           51575        RTD18              VLOAD    ABVAL
000595: 32,2360           03405                                    DELVLVC
000596: 32,2361           27773                           STOVL    VGDISP
000597: 32,2362           03656                                    R(T2)/
000598: 32,2363           02657                           STORE    RVEC                                  #  ***** LANDING SITE COMPUTATION *****
000599: 32,2364           45246                           ABVAL    DSU
000600: 32,2365           33550                                    30480RTE
000601: 32,2366           26760                           STOVL    RDESIRED
000602: 32,2367           03710                                    V(T2)/
000603: 32,2370           36746                           STCALL   VVEC
000604: 32,2371           64277                                    TMRAD100                              #  R3,V3,T23 FROM TIMERAD
000605: 32,2372           53575                           VLOAD    UNIT
000606: 32,2373           03656                                    R(T2)/
000607: 32,2374           53515                           PDVL     UNIT                                  #  UR3                                   PL06D
000608: 32,2375           03710                                    V(T2)/
000609: 32,2376           72441                           DOT      SL1                                   #  GAMMAE=ARCSIN(UR3 . UV3)              PL00D
000610: 32,2377           65336                           ARCSIN   PDDL                                  #  V(T3)                                 PL02D
000611: 32,2400           00045                                    36D
000612: 32,2401           51525                           PDDL     ABS
000613: 32,2402           45006                           PUSH     CALL                                  #  /GAMMAE/                              PL04D
000614: 32,2403           64075                                    AUGEKUGL                              #  PHIE                                  PL06D
000615: 32,2404           43215                           DAD      DAD
000616: 32,2405           03724                                    T12                                   #  T23
000617: 32,2406           03736                                    T2
000618: 32,2407           00003                           STORE    02D                                   #  T(LS)=T2&T23&TE
000619: 32,2410           53135                           SLOAD    BZE
000620: 32,2411           03377                                    P37RANGE
000621: 32,2412           64414                                    RTD22
000622: 32,2413           00005                           STORE    04D                                   #  OVERRIDE RANGE (PCR 261)
000623: 32,2414           73545        RTD22              DLOAD    SIN
000624:
000625: 32,2415           00005                                    04D
000626: 32,2416           17403                           STODL    LNG(SPL)                              #  LNG(SPL)=SIN(PHIE)                    PL04D
000627: 32,2417           77746                           COS
000628: 32,2420           03401                           STORE    LAT(SPL)                              #  LAT(SPL)=COS(PHIE)
000629: 32,2421           53575                           VLOAD    UNIT
000630: 32,2422           03656                                    R(T2)/
000631: 32,2423           41406                           PUSH     PUSH
000632: 32,2424           53515                           PDVL     UNIT                                  #                                        PL22D
000633: 32,2425           03710                                    V(T2)/
000634: 32,2426           47315                           PDVL     VXV
000635: 32,2427           53435                           VXV      UNIT                                  #  UH3=UNIT(UR3 X UV3 X UR3)             PL10D
000636: 32,2430           63361                           VXSC     PDVL
000637: 32,2431           03403                                    LNG(SPL)
000638: 32,2432           53361                           VXSC     VAD                                   #                                        PL04D
000639: 32,2433           03401                                    LAT(SPL)
000640: 32,2434           43014                           CLEAR    CLEAR                                 #  T(LS) IN MPAC
000641: 32,2435           00662                                    ERADFLAG
000642: 32,2436           01663                                    LUNAFLAG
000643: 32,2437           16152                           STODL    ALPHAV                                #  ALPHAV=UR3(COSPHIE)+UH3(SINPHIE)      PL02D
000644: 32,2440           77624                           CALL
000645: 32,2441           26400                                    LAT-LONG
000646: 32,2442           77745                           DLOAD
000647: 32,2443           01104                                    LAT
000648: 32,2444           17401                           STODL    LAT(SPL)                              #  LATITUDE LANDING SITE  *****
000649: 32,2445           01106                                    LONG
000650: 32,2446           37403                           STCALL   LNG(SPL)                              #  LONGITUDE LANDING SITE *****
000651: 32,2447           03762                                    SPRTEX
000652: 32,2450                                           COUNT*   $$/RTE
000653:
000654:                                                                                                  #  INITIAL VECTOR SUBROUTINE
000655:
000656:                                                                                                  #  DESCRIPTION
000657:                                                                                                  #        A PRECISION INTEGRATION OF THE STATE VECTOR TO THE TIME OF IGNITION IS PERFORMED. PRECOMPUTATIONS OCCUR.
000658:
000659:                                                                                                  #  CALLING SEQUENCE
000660:                                                                                                  #        L       CALL
000661:                                                                                                  #        L+1             INVC100
000662:
000663:                                                                                                  #  NORMAL EXIT MODE
000664:                                                                                                  #        AT L+2 OF CALLING SEQUENCE WITH MPAC = 0
000665:
000666:                                                                                                  #  ALARM EXIT MODE
000667:                                                                                                  #        AT L+2 OF CALLING SEQUENCE WITH MPAC = OCTAL 612 FOR STATE VECTOR IN MOONS SPHERE OF INFLUENCE
000668:
000669:                                                                                                  #  SUBROUTINES CALLED
000670:                                                                                                  #        CSMPREC
000671:
000672:                                                                                                  #  ERASABLE INITIALIZATION REQUIRED
000673:                                                                                                  #     PUSHLIST
000674:                                                                                                  #        NONE
000675:                                                                                                  #     MPAC
000676:                                                                                                  #        NONE
000677:                                                                                                  #     OTHER
000678:                                                                                                  #        SPRTETIG        TIME OF IGNITION                                        DP      B28     CS
000679:                                                                                                  #        CSM STATE VECTOR
000680:
000681:                                                                                                  #  OUTPUT
000682:                                                                                                  #        R(T1)/          INITIAL POSITION VECTOR AT TIG                          VECTOR  B29     METERS
000683:                                                                                                  #        V(T1)/          INITIAL VELOCITY VECTOR AT TIG                          VECTOR  B7      METERS/CS
000684:                                                                                                  #        T1              INITIAL VECTOR TIME (TIG)                               DP      B28     CS
000685:                                                                                                  #        UR1/            UNIT INITIAL VECTOR                                     VECTOR  B1
000686:                                                                                                  #        UH/             UNIT HORIZONTAL VECTOR                                  VECTOR  B1
000687:                                                                                                  #        CFPA            COSINE OF INITIAL FLIGHT PATH ANGLE                     DP      B1
000688:
000689: 32,2450           71220        INVC100            STQ      DLOAD
000690: 32,2451           03762                                    SPRTEX
000691: 32,2452           03413                                    SPRTETIG
000692: 32,2453           34041                           STCALL   TDEC1
000693: 32,2454           27101                                    CSMPREC                               #  PRECISION INTEGRATION  R0,V0 TO R1,V1
000694: 32,2455           67175                           VLOAD    SXA,2
000695: 32,2456           00001                                    RATT
000696: 32,2457           03755                                    P(T1)
000697: 32,2460           27640                           STOVL    R(T1)/
000698: 32,2461           00007                                    VATT
000699: 32,2462           17672                           STODL    V(T1)/
000700: 32,2463           00015                                    TAT
000701: 32,2464           03716                           STORE    T1
000702: 32,2465           53135                           SLOAD    BZE
000703: 32,2466           03756                                    P(T1)
000704: 32,2467           64473                                    INVC109
000705: 32,2470           52135        INVC107            SLOAD    GOTO
000706: 32,2471           33563                                    OCT612
000707: 32,2472           74776                                    RTEALRM                               #  R1,V1 NOT IN PROPER SPHERE OF INFLUENCE
000708: 32,2473           53575        INVC109            VLOAD    UNIT
000709: 32,2474           03640                                    R(T1)/
000710: 32,2475           17740                           STODL    UR1/                                  #  UR1/                                  B1
000711: 32,2476           00045                                    36D
000712: 32,2477           27646                           STOVL    R(T1)                                 #  R(T1)                                 B29
000713: 32,2500           03672                                    V(T1)/
000714: 32,2501           77656                           UNIT
000715: 32,2502           03746                           STORE    UV1/
000716: 32,2503           72441                           DOT      SL1
000717: 32,2504           03740                                    UR1/
000718: 32,2505           03757                           STORE    CFPA                                  #  CFPA                                  B1
000719: 32,2506           45246                           ABS      DSU
000720: 32,2507           33576                                    EPC1RTE
000721: 32,2510           71240                           BMN      DLOAD
000722: 32,2511           64520                                    INVC115                               #  NOT NEAR RECTILINEAR
000723: 32,2512           33502                                    1RTEB2
000724: 32,2513           41525                           PDDL     PUSH
000725: 32,2514           33524                                    ZERORTE
000726: 32,2515           41466                           VDEF     PUSH                                  #  N/ = (0,0,1)
000727: 32,2516           77650                           GOTO
000728: 32,2517           64524                                    INVC120
000729: 32,2520           47375        INVC115            VLOAD    VXV
000730: 32,2521           03740                                    UR1/
000731: 32,2522           03746                                    UV1/
000732: 32,2523           77606                           PUSH                                           #  N/ = UR X UV                          B2
000733: 32,2524           71214        INVC120            CLEAR    DLOAD
000734: 32,2525           02661                                    RETROFLG
000735: 32,2526           51006                           PUSH     BPL
000736: 32,2527           64533                                    INVC125
000737: 32,2530           57575                           VLOAD    VCOMP                                 #  RETROGRADE ORBIT
000738: 32,2531           43006                           PUSH     SET
000739: 32,2532           02461                                    RETROFLG
000740: 32,2533           77775        INVC125            VLOAD
000741: 32,2534           53435                           VXV      UNIT
000742: 32,2535           03740                                    UR1/
000743: 32,2536           03746                           STORE    UH/                                   #  UH/                                   B1
000744: 32,2537           77650                           GOTO
000745: 32,2540           03762                                    SPRTEX
000746:
000747:                                                                                                  #  PRECISION TRAJECTORY COMPUTATION SUBROUTINE
000748:
000749:                                                                                                  #  DESCRIPTION
000750:                                                                                                  #        A NUMERICALLY INTEGRATED TRAJECTORY IS GENERATED WHICH FOR THE RETURN TO EARTH PROBLEM SATISFIES THE REENTRY
000751:                                                                                                  #        CONSTRAINTS (RCON AND X(T2)) ACHIEVED BY THE INITIAL CONIC TRAJECTORY AND MEETS THE DVD REQUIREMENT AS CLOSELY
000752:                                                                                                  #        AS POSSIBLE.
000753:
000754:                                                                                                  #  CALLING SEQUENCE
000755:                                                                                                  #        L       CALL
000756:                                                                                                  #        L+1             PREC100
000757:
000758:                                                                                                  #  NORMAL EXIT MODE
000759:                                                                                                  #        AT L+2 OF CALLING SEQUENCE WITH MPAC = 0
000760:
000761:                                                                                                  #  ALARM EXIT MODE
000762:                                                                                                  #        AT L+2 OF CALLING SEQUENCE WITH MPAC =
000763:                                                                                                  #                OCTAL 605       FOR EXCESS ITERATIONS
000764:                                                                                                  #                OCTAL 613       FOR REENTRY ANGLE OUT OF LIMITS
000765:
000766:                                                                                                  #  SUBROUTINES CALLED
000767:                                                                                                  #        INTSTALL
000768:                                                                                                  #        RTENCK2
000769:                                                                                                  #        RTENCK3
000770:                                                                                                  #        TIMERAD
000771:                                                                                                  #        PARAM
000772:                                                                                                  #        V2T100
000773:
000774:                                                                                                  #  ERASABLE INITIALIZATION REQUIRED
000775:                                                                                                  #     PUSHLIST
000776:                                                                                                  #        NONE
000777:                                                                                                  #     MPAC
000778:                                                                                                  #        NONE
000779:                                                                                                  #     OTHER
000780:                                                                                                  #        R(T1)/          INITIAL POSITION VECTOR                                 VECTOR  B29/B27 METERS
000781:                                                                                                  #        V2(T1)/         POST IMPULSE INITIAL VELOCITY VECTOR                    VECTOR  B7/B5   METERS/CS
000782:                                                                                                  #        V(T1)/          INITIAL VELOCITY VECTOR                                 VECTOR  B7/B5   METERS/CS
000783:                                                                                                  #        T1              INITIAL VECTOR TIME                                     DP      B28     CS
000784:                                                                                                  #        T12             INITIAL TO FINAL POSITION TIME                          DP      B28     CS
000785:                                                                                                  #        RCON            CONIC FINAL RADIUS                                      DP      B29/B27 METERS
000786:                                                                                                  #        R(T1)           MAGNITUDE OF INITIAL POSITION VECTOR                    DP      B29/B27 METERS
000787:                                                                                                  #        X(T2)           COTANGENT OF FINAL FLIGHT PATH ANGLE                    DP      B0
000788:                                                                                                  #        X(T1)           COTANGENT OF INITIAL FLIGHT PATH ANGLE                  DP      B5
000789:                                                                                                  #        RTEDVD          DELTA VELOCITY DESIRED                                  DP      B7/B5   METERS/CS
000790:                                                                                                  #        MAMAX1          MAJOR AXIS LIMIT FOR LOWER BOUND ON GAMDV ITERATOR      DP      B30/B28 METERS
000791:                                                                                                  #        MAMAX2          MAJOR AXIS LIMIT FOR UPPER BOUND ON GAMDV ITERATOR      DP      B30/B28 METERS
000792:                                                                                                  #        UR1/            UNIT INITIAL VECTOR                                     VECTOR  B1
000793:                                                                                                  #        UH/             UNIT HORIZONTAL VECTOR                                  VECTOR  B1
000794:                                                                                                  #        BETA1           1+X(T2)**2                                              DP      B1
000795:                                                                                                  #        PHI2            PERIGEE OR APOGEE INDICATOR                             DP      B2      -1 PERIGEE, +1 APOGEE
000796:
000797:
000798:                                                                                                  #  OUTPUT
000799:                                                                                                  #        V2(T1)/         POST IMPULSE INITIAL VELOCITY VECTOR                    VECTOR  B7      METERS/CS
000800:                                                                                                  #        R(T2)/          FINAL POSITION VECTOR                                   VECTOR  B29     METERS
000801:                                                                                                  #        V(T2)/          FINAL VELOCITY VECTOR                                   VECTOR  B7      METERS/CS
000802:                                                                                                  #        T2              FINAL TIME                                              DP      B28     CENTISECONDS
000803:
000804:                                                                                                  #  DEBRIS
000805:                                                                                                  #        RD              FINAL R DESIRED                                         DP      B29/B27 METERS
000806:                                                                                                  #        R/APRE          R/A                                                     DP      B6
000807:                                                                                                  #        P/RPRE          P/R                                                     DP      B4
000808:                                                                                                  #        RPRE            MAGNITUDE OF R(T2)/                                     DP      B29/B27 METERS
000809:                                                                                                  #        X(T2)PRE        COTANGENT OF GAMMA2                                     DP      B0
000810:                                                                                                  #        DT12            CORRECTION TO FINAL TIME T2                             DP      B28     CENTISECONDS
000811:                                                                                                  #        RCON            FINAL RADIUS                                            DP      B29/B27 METERS
000812:                                                                                                  #        DRCON           DELTA RCON                                              DP      B29/B27 METERS
000813:
000814: 32,2541           71220        PREC100            STQ      DLOAD
000815: 32,2542           03762                                    SPRTEX
000816: 32,2543           33532                                    10RTE
000817: 32,2544           17730                           STODL    NN1A
000818: 32,2545           03636                                    RCON
000819: 32,2546           03664                           STORE    RD
000820: 32,2547           77745        PREC120            DLOAD
000821: 32,2550           33542                                    2RTEB1
000822: 32,2551           17650                           STODL    DT21PR                                #  DT21PR = POSMAX
000823: 32,2552           33530                                    M15RTE
000824: 32,2553           37732                           STCALL   NN2
000825: 32,2554           63726                                    RTENCK3
000826: 32,2555           77624        PREC125            CALL
000827: 32,2556           11637                                    PARAM
000828: 32,2557           77745                           DLOAD
000829: 32,2560           02742                                    P
000830: 32,2561           14033                           STODL    P/RPRE
000831: 32,2562           02744                                    R1A
000832: 32,2563           14035                           STODL    R/APRE
000833: 32,2564           00041                                    R1
000834: 32,2565           14031                           STODL    RPRE
000835: 32,2566           03775                                    COGA
000836: 32,2567           77661                           SL
000837: 32,2570           20206                                    5
000838: 32,2571           03724                           STORE    X(T2)PRE
000839: 32,2572           43276                           DCOMP    DAD
000840: 32,2573           03726                                    X(T2)
000841: 32,2574           45246                           ABS      DSU
000842: 32,2575           33604                                    EPC4RTE
000843: 32,2576           50000                           BOV      BMN
000844: 32,2577           64601                                    PREC130
000845: 32,2600           64770                                    PREC175
000846:
000847:                                                                                                  #  DESIRED REENTRY ANGLE NOT ACHIEVED
000848:
000849: 32,2601           50145        PREC130            DLOAD    BMN
000850: 32,2602           03732                                    NN2
000851: 32,2603           64607                                    PREC140
000852: 32,2604           52135        PREC132            SLOAD    GOTO                                  #  TOO MANY ITERATIONS
000853: 32,2605           33562                                    OCT605                                #        EXIT WITH ALARM
000854: 32,2606           65073                                    PRECX
000855:
000856:                                                                                                  #  DETERMINE RADIUS AT WHICH THE DESIRED REENTRY ANGLE WILL BE ACHIEVED
000857:
000858: 32,2607           53145        PREC140            DLOAD    BZE
000859: 32,2610           03730                                    NN1A
000860: 32,2611           64647                                    PREC162
000861: 32,2612           62545        PREC150            DLOAD    SL2                                   #                                B2
000862: 32,2613           00033                                    P/RPRE
000863: 32,2614           72405                           DMP      SL1                                   #  BETA2=BETA1*P/R               B2      PL02
000864: 32,2615           03754                                    BETA1
000865: 32,2616           71206                           PUSH     DLOAD
000866: 32,2617           00035                                    R/APRE
000867: 32,2620           41212                           SL4      DMP
000868: 32,2621           00001                                    00D
000869: 32,2622           50021                           BDSU     BMN                                   #  BETA3=1-BETA2*R/A
000870: 32,2623           33506                                    1RTEB4
000871: 32,2624           64637                                    PREC160
000872: 32,2625           75512        PREC155            SL2      SQRT
000873: 32,2626           44205                           DMP      BDSU
000874: 32,2627           03761                                    PHI2
000875: 32,2630           33504                                    1RTEB3
000876: 32,2631           65301                           NORM     PDDL
000877: 32,2632           00047                                    X1
000878: 32,2633           56342                           SR1      DDV                                   #  BETA4=BETA2/(1-PHI2*SQRT(BETA3))
000879: 32,2634           52057                           SL*      GOTO                                  #                                B1
000880: 32,2635           20200                                    0          -1,1
000881: 32,2636           64655                                    PREC165
000882: 32,2637           60345        PREC160            DLOAD    NORM
000883: 32,2640           00035                                    R/APRE
000884: 32,2641           00047                                    X1
000885: 32,2642           53665                           BDDV     SL*                                   #                                B1
000886: 32,2643           33500                                    1RTEB1
000887: 32,2644           20173                                    0          -6,1
000888: 32,2645           77650                           GOTO
000889: 32,2646           64655                                    PREC165
000890: 32,2647           60345        PREC162            DLOAD    NORM
000891: 32,2650           00031                                    RPRE
000892: 32,2651           00047                                    X1
000893: 32,2652           53665                           BDDV     SL*                                   #  BETA4=RD/RPRE                 B1
000894: 32,2653           03664                                    RD
000895: 32,2654           20200                                    0          -1,1
000896: 32,2655           41401        PREC165            SETPD    PUSH
000897: 32,2656           00001                                    0
000898: 32,2657           57425                           DSU      DCOMP
000899: 32,2660           33500                                    1RTEB1
000900: 32,2661           03765                           STORE    BETA12
000901: 32,2662           71240                           BMN      DLOAD
000902: 32,2663           64674                                    PREC168
000903: 32,2664           03724                                    X(T2)PRE
000904: 32,2665           71240                           BMN      DLOAD
000905: 32,2666           64672                                    PREC167
000906: 32,2667           03765                                    BETA12
000907: 32,2670           77676                           DCOMP
000908: 32,2671           03765                           STORE    BETA12
000909: 32,2672           77745        PREC167            DLOAD
000910: 32,2673           03765                                    BETA12
000911: 32,2674           45246        PREC168            ABS      DSU
000912: 32,2675           33610                                    EPC6RTE
000913: 32,2676           71240                           BMN      DLOAD
000914: 32,2677           64770                                    PREC175
000915: 32,2700           72405                           DMP      SL1
000916: 32,2701           00031                                    RPRE
000917: 32,2702           77606                           PUSH                                           #  RF = NEW RADIUS
000918: 32,2703           43345        PREC170            DLOAD    DAD
000919: 32,2704           03732                                    NN2
000920: 32,2705           33522                                    1RTEB28
000921: 32,2706           03732                           STORE    NN2
000922: 32,2707           43175                           VLOAD    SET
000923: 32,2710           03656                                    R(T2)/
000924: 32,2711           03466                                    RVSW
000925: 32,2712           26657                           STOVL    RVEC
000926: 32,2713           03710                                    V(T2)/
000927: 32,2714           77765                           SIGN
000928: 32,2715           03765                                    BETA12
000929: 32,2716           16746                           STODL    VVEC
000930: 32,2717           33500                                    1RTEB1
000931: 32,2720           57565                           SIGN     DCOMP
000932: 32,2721           03765                                    BETA12
000933: 32,2722           71354                           LXA,2    DLOAD
000934: 32,2723           00154                                    MPAC
000935: 32,2724           67140                           LXC,1    SXA,2
000936: 32,2725           03734                                    CONICX1
000937: 32,2726           02756                                    SGNRDOT
000938: 32,2727           36760                           STCALL   RDESIRED                              #  COMPUTE DT12 (CORRECTION TO TIME OF
000939: 32,2730           25566                                    TIMERAD                               #        NEW RADIUS)
000940: 32,2731           75345                           DLOAD    SIGN
000941: 32,2732           00037                                    T
000942: 32,2733           03765                                    BETA12
000943: 32,2734           60325                           PDDL     NORM                                  #  DT21=(PHI4)DT21                       PL02D
000944: 32,2735           03650                                    DT21PR
000945: 32,2736           00047                                    X1
000946: 32,2737           53665                           BDDV     SL*
000947: 32,2740           00001                                    00D
000948: 32,2741           20176                                    0          -3,1
000949: 32,2742           50006                           PUSH     BMN                                   #  BETA13=(DT21)/(DT21PR)        B3      PL04D
000950: 32,2743           64750                                    PREC172
000951: 32,2744           65345                           DLOAD    PDDL                                  #  BETA14=1                      B0      PL04D
000952: 32,2745           33542                                    2RTEB1
000953: 32,2746           77650                           GOTO
000954: 32,2747           64752                                    PREC173
000955: 32,2750           65345        PREC172            DLOAD    PDDL                                  #  BETA14=.6                     B0      PL04D
000956: 32,2751           33534                                    M.6RTE
000957: 32,2752           45271        PREC173            DDV      DSU
000958: 32,2753           00003                                    02D
000959: 32,2754           33504                                    1RTEB3
000960: 32,2755           71240                           BMN      DLOAD
000961: 32,2756           64762                                    PREC174
000962: 32,2757           77605                           DMP
000963: 32,2760           03650                                    DT21PR
000964: 32,2761           00001                           STORE    00D                                   #  DT21=(BETA14)DT21PR           B28
000965: 32,2762           41545        PREC174            DLOAD    PUSH
000966: 32,2763           00001                                    00D
000967: 32,2764           37650                           STCALL   DT21PR
000968: 32,2765           63710                                    RTENCK2
000969: 32,2766           77650                           GOTO
000970: 32,2767           64555                                    PREC125
000971: 32,2770           45345        PREC175            DLOAD    DSU
000972: 32,2771           00031                                    RPRE
000973: 32,2772           03664                                    RD
000974: 32,2773           51406                           PUSH     ABS                                   #  RPRE-RD = RERR
000975: 32,2774           50025                           DSU      BMN
000976: 32,2775           33612                                    EPC7RTE
000977: 32,2776           34755                                    PREC220
000978:
000979:                                                                                                  #  DESIRED RADIUS HAS NOT BEEN ACHIEVED
000980:
000981: 32,2777           53145                           DLOAD    BZE
000982: 32,3000           03730                                    NN1A
000983: 32,3001           64604                                    PREC132                               #  TOO MANY ITERATIONS
000984: 32,3002           53025                           DSU      BZE
000985: 32,3003           33532                                    10RTE
000986: 32,3004           65037                                    PREC207
000987: 32,3005           45345        PREC205            DLOAD    DSU                                   #  NOT FIRST PASS OF ITERATION
000988: 32,3006           03670                                    RPRE'
000989: 32,3007           00031                                    RPRE                                  #  RPRE,-RPRE                    B29/B27
000990: 32,3010           55301                           NORM     BDDV
000991: 32,3011           00050                                    X2
000992: 32,3012           03666                                    DRCON
000993: 32,3013           41457                           SL*      PUSH                                  #  DRCON/(RPRE,-RPRE)=S          B2
000994: 32,3014           57600                                    0          -2,2
000995: 32,3015           40015                           DAD      BOV                                   #  S GR +4 OR LS -4
000996: 32,3016           33500                                    1RTEB1
000997: 32,3017           65024                                    PREC205M
000998: 32,3020           45246                           ABS      DSU
000999: 32,3021           33500                                    1RTEB1
001000: 32,3022           77640                           BMN
001001: 32,3023           65027                                    PREC206
001002: 32,3024           57545        PREC205M           DLOAD    DCOMP                                 #  S GR 0 OR LS -4
001003: 32,3025           33542                                    2RTEB1
001004: 32,3026           77725                           PDDL                                           #  S=-4                          B2
001005: 32,3027           41345        PREC206            DLOAD    DMP
001006: 32,3030           77712                           SL2
001007: 32,3031           03666                           STORE    DRCON                                 #  DRCON=S(RERR)                 B29
001008: 32,3032           77615                           DAD
001009: 32,3033           03636                                    RCON
001010: 32,3034           03636                           STORE    RCON                                  #  RCON+DRCON=RCON
001011: 32,3035           77650                           GOTO
001012: 32,3036           65056                                    PREC210
001013: 32,3037           63545        PREC207            DLOAD    DSQ                                   #  FIRST PASS OF ITERATION
001014: 32,3040           03664                                    RD
001015: 32,3041           70501                           NORM     SR1
001016: 32,3042           00047                                    X1
001017: 32,3043           60325                           PDDL     NORM
001018: 32,3044           00031                                    RPRE
001019: 32,3045           00050                                    X2
001020: 32,3046           55260                           XSU,1    BDDV
001021: 32,3047           00047                                    X2
001022: 32,3050           77657                           SR*
001023: 32,3051           20600                                    0          -1,1
001024: 32,3052           03636                           STORE    RCON                                  #  RD**2/RPRE=RCON
001025: 32,3053           77625                           DSU
001026: 32,3054           03664                                    RD
001027: 32,3055           03666                           STORE    DRCON                                 #  RCON-RD=DRCON
001028: 32,3056           77745        PREC210            DLOAD                                          #  PREPARE FOR NEXT ITERATION
001029: 32,3057           00031                                    RPRE
001030: 32,3060           17670                           STODL    RPRE'
001031: 32,3061           03730                                    NN1A
001032: 32,3062           77625                           DSU
001033: 32,3063           33522                                    1RTEB28
001034: 32,3064           37730                           STCALL   NN1A
001035: 32,3065           65075                                    V2T100
001036: 32,3066           52030                           BHIZ     GOTO
001037: 32,3067           64547                                    PREC120
001038: 32,3070           65073                                    PRECX
001039:
001040:                                                                                                  #  DESIRED RADIUS ACHIEVED
001041:
001042: 16,2000                                           SETLOC   RTE2
001043: 16,2000                                           BANK
001044: 16,2755           45345        PREC220            DLOAD    DSU
001045: 16,2756           03726                                    X(T2)
001046: 16,2757           03724                                    X(T2)PRE
001047: 16,2760           45246                           ABS      DSU
001048: 16,2761           34770                                    EPC8RTE
001049: 16,2762           67240                           BMN      SLOAD
001050: 16,2763           65071                                    PREC225
001051: 16,2764           34772                                    OCT613
001052: 16,2765           77650                           GOTO
001053: 16,2766           65073                                    PRECX                                 #  IF REENTRY ANGLE OUT OF LIMITS
001054:
001055: 16,2767           00040 30447  EPC8RTE            2DEC     .002
001056:
001057: 16,2771           00613        OCT613             OCT      613
001058:
001059:                                                                                                  #  DESIRED FINAL ANGLE HAS BEEN REACHED
001060:
001061: 32,2000                                           SETLOC   RTE
001062: 32,2000                                           BANK
001063: 32,3071           77745        PREC225            DLOAD
001064: 32,3072           33524                                    ZERORTE
001065: 32,3073           77650        PRECX              GOTO
001066: 32,3074           03762                                    SPRTEX
001067:
001068:                                                                                                  #  INTEGRATION CALLING SUBROUTINE
001069:
001070:                                                                                                  #  DESCRIPTION
001071:                                                                                                  #        PERFORMS CONIC AND PRECISION INTEGRATIONS USING SUBROUTINE INTEGRVS.  THERE ARE THREE ENTRANCES (RTENCK1,
001072:                                                                                                  #        RTENCK2 AND RTENCK3) FOR DIFFERENT SOURCES OF INPUT AND DIFFERENT OPTIONS.  THERE IS A COMMON SET OF OUTPUT
001073:                                                                                                  #        WHICH INCLUDES SET UP OF INPUT FOR THE PARAM SUBROUTINE
001074:
001075:                                                                                                  #  RTENCK1 (CONIC INTEGRATION)
001076:
001077:                                                                                                  #     CALLING SEQUENCE
001078:                                                                                                  #        L       CALL
001079:                                                                                                  #        L+1             RTENCK1
001080:
001081:                                                                                                  #     ERASABLE INITIALIZATION REQUIRED
001082:                                                                                                  #        SAME AS FOR THE RTENCK3 ENTRANCE
001083:
001084:                                                                                                  #  RTENCK2 (PRECISION INTEGRATION)
001085:
001086:                                                                                                  #     CALLING SEQUENCE
001087:                                                                                                  #        L       CALL
001088:                                                                                                  #        L+1             RTENCK2
001089:
001090:                                                                                                  #     ERASABLE INITIALIZATION REQUIRED
001091:                                                                                                  #        PUSHLIST
001092:                                                                                                  #            PUSHLOC-2   INTEGRATION TIME DT12 (CORRECTION TO T2)                DP      B28     CS
001093:                                                                                                  #        OTHER
001094:                                                                                                  #            R(T2)/      FINAL POSITION VECTOR                                   VECTOR .B29     METERS
001095:                                                                                                  #            V(T2)/      FINAL VELOCITY VECTOR                                   VECTOR  B7      METERS/CS
001096:                                                                                                  #            T2          FINAL TIME                                              DP      B28     CS
001097:
001098:                                                                                                  #  RTENCK3 (PRECISION INTEGRATION)
001099:
001100:                                                                                                  #     CALLING SEQUENCE
001101:                                                                                                  #        L       CALL
001102:                                                                                                  #        L+1             RTENCK3
001103:
001104:                                                                                                  #     ERASABLE INITIALIZATION REQUIRED
001105:                                                                                                  #        R(T1)/          INITIAL POSITION VECTOR                                 VECTOR  B29     METERS
001106:                                                                                                  #        V2(T1)/         POST IMPULSE INITIAL VELOCITY VECTOR                    VECTOR  B7      M/CS
001107:                                                                                                  #        T1              INITIAL VECTOR TIME                                     DP      B28     CS
001108:                                                                                                  #        T2              FINAL TIME                                              DP      B28     CS
001109:
001110:                                                                                                  #  EXIT MODE
001111:                                                                                                  #        AT L+2 OF CALLING SEQUENCE
001112:
001113:                                                                                                  #  SUBROUTINES CALLED
001114:                                                                                                  #        INTSTALL
001115:                                                                                                  #        INTEGRVS
001116:
001117:                                                                                                  #  OUTPUT
001118:                                                                                                  #     PUSHLIST
001119:                                                                                                  #        PUSHLOC-6       FINAL POSITION VECTOR R(T2)/                            VECTOR  B29     METERS
001120:                                                                                                  #        X1              CONICS MUTABLE ENTRY FOR EARTH (-2)                     SP      B14
001121:                                                                                                  #     MPAC
001122:                                                                                                  #                        FINAL VELOCITY VECTOR V(T2)/                            VECTOR  B7      M/CS
001123:                                                                                                  #     OTHER
001124:                                                                                                  #        R(T2)/          AS IN PUSHLIST
001125:                                                                                                  #        V(T2)/          AS IN MPAC
001126:                                                                                                  #        T2              FINAL TIME                                              DP      B28     CS
001127:
001128: 31,2000                                           SETLOC   RTE3
001129: 31,2000                                           BANK
001130: 31,3700           45020        RTENCK1            STQ      CALL
001131: 31,3701           03733                                    RTENCKEX
001132: 31,3702           27452                                    INTSTALL
001133: 31,3703           43175                           VLOAD    SET
001134: 31,3704           03640                                    R(T1)/
001135: 31,3705           01473                                    INTYPFLG
001136: 31,3706           77650                           GOTO
001137: 31,3707           63734                                    RTENCK3B
001138:
001139: 31,3710           45020        RTENCK2            STQ      CALL
001140: 31,3711           03733                                    RTENCKEX
001141: 31,3712           27452                                    INTSTALL
001142: 31,3713           77214                           CLEAR    VLOAD
001143: 31,3714           01673                                    INTYPFLG
001144: 31,3715           03656                                    R(T2)/
001145: 31,3716           25535                           STOVL    RCV
001146: 31,3717           03710                                    V(T2)/
001147: 31,3720           15543                           STODL    VCV
001148: 31,3721           03736                                    T2
001149: 31,3722           01517                           STORE    TET
001150: 31,3723           77615                           DAD
001151: 31,3724           77650                           GOTO
001152: 31,3725           63742                                    RTENCK3D
001153:
001154: 31,3726           45020        RTENCK3            STQ      CALL
001155: 31,3727           03733                                    RTENCKEX
001156: 31,3730           27452                                    INTSTALL
001157: 31,3731           43175        RTENCK3A           VLOAD    CLEAR
001158: 31,3732           03640                                    R(T1)/
001159: 31,3733           01673                                    INTYPFLG
001160: 31,3734           25535        RTENCK3B           STOVL    RCV
001161: 31,3735           03700                                    V2(T1)/
001162: 31,3736           15543                           STODL    VCV
001163: 31,3737           03716                                    T1
001164: 31,3740           15517                           STODL    TET
001165: 31,3741           03736                                    T2
001166: 31,3742           00041        RTENCK3D           STORE    TDEC1
001167: 31,3743           45014                           CLEAR    CALL
001168: 31,3744           00263                                    MOONFLAG
001169: 31,3745           27145                                    INTEGRVS
001170: 31,3746           77775                           VLOAD
001171: 31,3747           00001                                    RATT
001172: 31,3750           03656                           STORE    R(T2)/
001173: 31,3751           70125                           PDDL     LXC,1
001174: 31,3752           00015                                    TAT
001175: 31,3753           03734                                    CONICX1
001176: 31,3754           27736                           STOVL    T2
001177: 31,3755           00007                                    VATT
001178: 31,3756           03710                           STORE    V(T2)/
001179: 31,3757           77650                           GOTO
001180: 31,3760           03733                                    RTENCKEX
001181: 32,2000                                           SETLOC   RTE
001182: 32,2000                                           BANK
001183:
001184:                                                                                                  #  V2(T1) COMPUTATION SUBROUTINE
001185:
001186:                                                                                                  #  DESCRIPTION
001187:                                                                                                  #        A POST IMPULSE VELOCITY VECTOR (V2(T1)) IS COMPUTED WHICH EITHER
001188:                                                                                                  #        (1)     MEETS THE INPUT VELOCITY CHANGE DESIRED (RTEDVD) IN A MINIMUM TIME      OR
001189:                                                                                                  #        (2)     IF A VELOCITY CHANGE ISN:T SPECIFIED (RTEDVD) = 0), A V2(T1) IS COMPUTED WHICH MINIMIZES THE IMPULSE (DV)
001190:                                                                                                  #                AND CONSEQUENTLY FUEL.
001191:
001192:                                                                                                  #  CALLING SEQUENCE
001193:                                                                                                  #        L       CALL
001194:                                                                                                  #        L+1             V2T100
001195:
001196:                                                                                                  #  NORMAL EXIT MODE
001197:                                                                                                  #        AT L+2 OF CALLING SEQUENCE WITH MPAC = 0
001198:
001199:                                                                                                  #  ALARM EXIT MODE
001200:                                                                                                  #        AT L+2 OF CALLING SEQUENCE WITH MPAC = OCTAL 605 FOR EXCESS ITERATIONS
001201:
001202:                                                                                                  #  SUBROUTINES CALLED
001203:                                                                                                  #        GAMDV10
001204:                                                                                                  #        XT1LIM
001205:                                                                                                  #        DVCALC
001206:
001207:                                                                                                  #  ERASABLE INITIALIZATION REQUIRED
001208:                                                                                                  #     PUSHLIST
001209:                                                                                                  #        NONE
001210:                                                                                                  #     MPAC
001211:                                                                                                  #        NONE
001212:                                                                                                  #     OTHER
001213:                                                                                                  #        R(T1)           MAGNITUDE OF INITIAL POSITION VECTOR                    DP      B29/B27 METERS
001214:                                                                                                  #        RCON            MAGNITUDE OF FINAL POSITION VECTOR                      DP      B29/B27 METERS
001215:                                                                                                  #        V(T1)/          INITIAL VELOCITY VECTOR                                 VECTOR  B7/B5   METERS/CS
001216:                                                                                                  #        RTEDVD          DELTA VELOCITY DESIRED                                  DP      B7/B5   METERS/CS
001217:                                                                                                  #        UR1/            UNIT INITIAL VECTOR                                     VECTOR  B1
001218:                                                                                                  #        UH/             UNIT HORIZONTAL VECTOR                                  VECTOR  B1
001219:                                                                                                  #        X(T2)           COTANGENT OF FINAL FLIGHT PATH ANGLE                    DP      B0
001220:                                                                                                  #        X(T1)           COTANGENT OF INITIAL FLIGHT PATH ANGLE (INPUT FOR PREC) DP      B5
001221:                                                                                                  #        CFPA            COSINE OF INITIAL FLIGHT PATH ANGLE                     DP      B1
001222:                                                                                                  #        MAMAX1          MAJOR AXIS LIMIT FOR LOWER BOUND ON GAMDV ITERATOR      DP      B30/B28 METERS
001223:                                                                                                  #        MAMAX2          MAJOR AXIS LIMIT FOR UPPER BOUND ON GAMDV ITERATOR      DP      B30/B28 METERS
001224:                                                                                                  #        PHI2            REENTRY NEAR PERIGEE OR APOGEE INDICATE (RTE ONLY)      DP       B2     -1 PERIGEE, +1 APOGEE
001225:                                                                                                  #        N1              CONIC OR PRECISION ITERATION COUNTER                    DP      B28     NEGATIVE CONIC,PLUS PREC
001226:
001227:                                                                                                  #  OUTPUT
001228:                                                                                                  #        V2(T1)/         POST IMPULSE INITIAL VELOCITY VECTOR                    VECTOR  B7/B5   METERS/CS
001229:                                                                                                  #        DV              INITIAL VELOCITY CHANGE                                 DP      B7/B5   METERS/CS
001230:                                                                                                  #        X(T1)           COTANGENT OF INITIAL FLIGHT PATH ANGLE (POST IMPULSE)   DP      B5
001231:                                                                                                  #        PCON            SEMI-LATUS RECTUM                                       DP      B28/B26 METERS
001232:                                                                                                  #        BETA1           1+X(T2)**2                                              DP      B1
001233:
001234:
001235:                                                                                                  #  DEBRIS
001236:                                                                                                  #     PUSHLIST
001237:                                                                                                  #        00D             X(T1),,=PREVIOUS PRECISION X(T1)                        DP      B5
001238:                                                                                                  #        02D             THETA1=BETA5*LAMBDA-1                                   TP      B17
001239:                                                                                                  #        05D             THETA2=2*R(T1)*(LAMBDA-1)                               TP      B38/B36
001240:                                                                                                  #        08D             THETA3=MU**.5/R(T1)                                     DP      B-4/B-5
001241:                                                                                                  #        10D             X(T1)MIN=LOWER BOUND ON X(T1) IN GAMDV ITERATOR         DP      B5
001242:                                                                                                  #        12D             DX(T1)MAX=MAXIMUM DELTA X(T1)                           DP      B5
001243:                                                                                                  #        14D             X(T1)MAX=UPPER BOUND ON X(T1) IN GAMDV ITERATOR         DP      B5
001244:                                                                                                  #        16D             DX(T1)=ITERATOR INCREMENT                               DP      B5
001245:                                                                                                  #        31D             GAMDV10 SUBROUTINE RETURN ADDRESS
001246:                                                                                                  #        32D             DVCALC SUBROUTINE RETURN ADDRESS
001247:                                                                                                  #        33D             V2T100 SUBROUTINE RETURN ADDRESS
001248:
001249: 32,3075           71220        V2T100             STQ      DLOAD
001250: 32,3076           00041                                    33D
001251: 32,3077           03636                                    RCON
001252: 32,3100           45240                           BMN      DSU                                   #  ABORT IF RCON NEGATIVE
001253: 32,3101           65105                                    V2TERROR
001254: 32,3102           03646                                    R(T1)
001255: 32,3103           77640                           BMN
001256: 32,3104           65110                                    V2T101
001257: 32,3105           77776        V2TERROR           EXIT                                           #        OR IF LAMBDA LESS THAN ONE
001258: 32,3106           05725                           TC       POODOO                                #  NO SOLUTION IF LAMBDA LESS THAN 1
001259: 32,3107           20610                           OCT      20610
001260: 32,3110           43001        V2T101             SETPD    CLEAR
001261: 32,3111           00001                                    0                                     #                                        PL00D
001262: 32,3112           00272                                    F2RTE
001263: 32,3113           60345                           DLOAD    NORM
001264: 32,3114           03636                                    RCON
001265: 32,3115           00047                                    X1
001266: 32,3116           60325                           PDDL     NORM
001267: 32,3117           03646                                    R(T1)
001268: 32,3120           00051                                    S1
001269: 32,3121           00013                           STORE    10D
001270: 32,3122           56342                           SR1      DDV                                   #  R1/RCON = LAMBDA              B1
001271: 32,3123           65260                           XSU,1    PDDL                                  #                                        PL02D
001272: 32,3124           00050                                    S1
001273: 32,3125           03726                                    X(T2)
001274: 32,3126           77716                           DSQ
001275: 32,3127           43342                           SR1      DAD
001276: 32,3130           33500                                    1RTEB1
001277: 32,3131           03754                           STORE    BETA1                                 #  1+X(T2)**2 = BETA1            B1
001278: 32,3132           77605                           DMP
001279: 32,3133           00001                                    00D
001280: 32,3134           00035                           STORE    28D                                   #  BETAI*LAMBDA = BETA5
001281: 32,3135           53605                           DMP      SL*
001282: 32,3136           00001                                    00D
001283: 32,3137           20172                                    0          -7,1
001284: 32,3140           45257                           SL*      DSU
001285: 32,3141           20172                                    0          -7,1
001286: 32,3142           33516                                    1RTEB17
001287: 32,3143           65234                           RTB      PDDL                                  #  BETA5*LAMBDA-1 = THETA1       B17     PL05D
001288: 32,3144           45565                                    TPMODE
001289: 32,3145           33500                                    1RTEB1
001290: 32,3146           57457                           SR*      DCOMP
001291: 32,3147           20601                                    0,1
001292: 32,3150           41215                           DAD      DMP
001293: 32,3151           00001                                    00D
001294: 32,3152           03646                                    R(T1)
001295: 32,3153           47057                           SL*      RTB
001296: 32,3154           20172                                    0          -7D,1
001297: 32,3155           45565                                    TPMODE
001298: 32,3156           77725                           PDDL                                           #  2*R(T1)*(LAMBDA-1)=THETA2     B38/B36 PL08D
001299: 32,3157           33632                                    RTMURTE
001300: 32,3160           70501                           NORM     SR1
001301: 32,3161           00050                                    X2
001302: 32,3162           56264                           XSU,2    DDV
001303: 32,3163           00050                                    S1
001304: 32,3164           00013                                    10D
001305: 32,3165           65257                           SR*      PDDL                                  #  MU**.5/R(T1)=THETA3           B-4/B-5 PL10D
001306: 32,3166           57170                                    6,2
001307: 32,3167           03652                                    MAMAX1
001308: 32,3170           41406                           PUSH     PUSH                                  #  MAMAX1=MA
001309: 32,3171           77624                           CALL
001310: 32,3172           65734                                    XT1LIM
001311: 32,3173           41476                           DCOMP    PUSH                                  #  X(T1)MIN                      B5      PL12D
001312: 32,3174           40476                           DCOMP    SR4
001313: 32,3175           41525                           PDDL     PUSH                                  #  DX(T1)MAX                     B5      PL14D
001314: 32,3176           03654                                    MAMAX2
001315: 32,3177           45006                           PUSH     CALL
001316: 32,3200           65734                                    XT1LIM
001317: 32,3201           50125                           PDDL     BMN                                   #  X(T1)MAX                      B5      PL16D
001318: 32,3202           03730                                    NN1A
001319: 32,3203           65206                                    V2T102
001320: 32,3204           77650                           GOTO
001321: 32,3205           65220                                    V2T110
001322:
001323:                                                                                                  #  PROCEED HERE IF NOT PRECISION COMPUTATION
001324:
001325: 32,3206           77745        V2T102             DLOAD
001326: 32,3207           03632                                    RTEDVD
001327: 32,3210           52054                           BZE      GOTO
001328: 32,3211           65213                                    V2T105
001329: 32,3212           65314                                    V2T140
001330: 32,3213           50145        V2T105             DLOAD    BMN
001331: 32,3214           03757                                    CFPA
001332: 32,3215           65314                                    V2T140
001333: 32,3216           77650                           GOTO
001334: 32,3217           65322                                    V2T145
001335:                                                                                                  #  DURING A PRECISION TRAJECTORY ITERATION CONSTRAIN THE INDEPENDENT
001336:                                                                                                  #  VARIABLE TO INSURE THAT ALL CONICS PASS THROUGH RCON ON THE SAME PASS
001337:                                                                                                  #  THROUGH X(T2)
001338:
001339: 32,3220           47145        V2T110             DLOAD    RTB
001340: 32,3221           33516                                    1RTEB17
001341: 32,3222           45565                                    TPMODE
001342: 32,3223           65276                           DCOMP    PDDL                                  #  -1                            B17     PL19D
001343: 32,3224           33542                                    2RTEB1
001344: 32,3225           45257                           SR*      DSU
001345: 32,3226           20601                                    0,1
001346: 32,3227           00001                                    00D
001347: 32,3230           53605                           DMP      SL*
001348: 32,3231           00035                                    28D
001349: 32,3232           20172                                    0          -7,1
001350: 32,3233           76257                           SL*      TAD
001351: 32,3234           20172                                    0          -7,1
001352: 32,3235           65234                           RTB      PDDL                                  #  BETA5(2-LAMBDA)-1=BETA6       B17     PL19D
001353: 32,3236           45565                                    TPMODE
001354: 32,3237           03722                                    X(T1)
001355: 32,3240           00001                           STORE    00D                                   #  X(T1),,                       B5
001356: 32,3241           77751                           TLOAD                                          #                                        PL16D
001357: 32,3242           53040                           BMN      BZE
001358: 32,3243           65250                                    V2T115
001359: 32,3244           65250                                    V2T115
001360: 32,3245           52061                           SL       GOTO
001361: 32,3246           20210                                    7
001362: 32,3247           65261                                    V2T120
001363: 32,3250           50145        V2T115             DLOAD    BMN
001364: 32,3251           03761                                    PHI2
001365: 32,3252           65272                                    V2T125
001366: 32,3253           77676                           DCOMP
001367: 32,3254           17761                           STODL    PHI2
001368: 32,3255           33532                                    10RTE
001369: 32,3256           03730                           STORE    NN1A
001370: 32,3257           77650                           GOTO
001371: 32,3260           65272                                    V2T125
001372: 32,3261           47166        V2T120             SQRT     RTB
001373: 32,3262           45716                                    DPMODE
001374: 32,3263           50125                           PDDL     BMN                                   #  BETA6**.5=X(T1)LIM            B5      PL18D
001375: 32,3264           03761                                    PHI2
001376: 32,3265           65300                                    V2T130
001377: 32,3266           45545                           DLOAD    STADR                                 #                                        PL16D
001378: 32,3267           77760                           STORE    14D                                   #  X(T1)LIM = X(T1)MAX
001379: 32,3270           77676                           DCOMP
001380: 32,3271           00013                           STORE    10D                                   #  -X(T1)LIM = X(T1)MIN
001381: 32,3272           53145        V2T125             DLOAD    BZE
001382: 32,3273           03722                                    X(T1)
001383: 32,3274           65314                                    V2T140
001384: 32,3275           52040                           BMN      GOTO
001385: 32,3276           65314                                    V2T140
001386: 32,3277           65322                                    V2T145
001387: 32,3300           53145        V2T130             DLOAD    BZE
001388: 32,3301           03722                                    X(T1)
001389: 32,3302           65311                                    V2T135
001390: 32,3303           71240                           BMN      DLOAD                                 #                                        PL16D
001391: 32,3304           65311                                    V2T135
001392: 32,3305           77626                           STADR
001393: 32,3306           77764                           STORE    10D                                   #  X(T1)LIM = X(T1)MIN
001394: 32,3307           77650                           GOTO
001395: 32,3310           65322                                    V2T145
001396: 32,3311           57545        V2T135             DLOAD    DCOMP                                 #                                        PL16D
001397: 32,3312           77626                           STADR
001398: 32,3313           77760                           STORE    14D                                   #  -X(T1)LIM = X(T1)MAX
001399: 32,3314           77745        V2T140             DLOAD
001400: 32,3315           00013                                    10D
001401: 32,3316           17722                           STODL    X(T1)                                 #  X(T1)MIN = X(T1)
001402: 32,3317           00015                                    12D
001403: 32,3320           52006                           PUSH     GOTO                                  #  DX(T1)MAX = DX(T1)                    PL18D
001404: 32,3321           65327                                    V2T150
001405: 32,3322           77745        V2T145             DLOAD
001406: 32,3323           00017                                    14D
001407: 32,3324           17722                           STODL    X(T1)                                 #  X(T1)MAX = X(T1)
001408: 32,3325           00015                                    12D
001409: 32,3326           41476                           DCOMP    PUSH                                  #  -DX(T1)MAX = DX(T1)                   PL18D
001410: 32,3327           77624        V2T150             CALL                                           #  GOTO X(T1)-DV ITERATOR
001411: 32,3330           65457                                    GAMDV10
001412: 32,3331           53145                           DLOAD    BZE                                   #  EXIT IF MINIMUM FUEL MODE
001413: 32,3332           03632                                    RTEDVD
001414: 32,3333           65455                                    V2T1X
001415:
001416:                                                                                                  #  CONTINUE IF TIME CRITICAL MODE
001417:
001418: 32,3334           50025                           DSU      BMN
001419: 32,3335           03706                                    DV
001420: 32,3336           65341                                    V2T155
001421: 32,3337           77650                           GOTO
001422: 32,3340           65374                                    V2T175
001423: 32,3341           50145        V2T155             DLOAD    BMN
001424: 32,3342           03730                                    NN1A
001425: 32,3343           65346                                    V2T160
001426: 32,3344           77650                           GOTO
001427: 32,3345           65416                                    V2T185
001428:
001429:                                                                                                  #  CONIC TRAJECTORY COMPUTATION
001430:
001431: 32,3346           53145        V2T160             DLOAD    BZE
001432: 32,3347           03722                                    X(T1)
001433: 32,3350           65354                                    V2T165
001434: 32,3351           52040                           BMN      GOTO
001435: 32,3352           65354                                    V2T165
001436: 32,3353           65453                                    V2T300
001437: 32,3354           53145        V2T165             DLOAD    BZE
001438: 32,3355           03757                                    CFPA
001439: 32,3356           65453                                    V2T300
001440: 32,3357           71240                           BMN      DLOAD
001441: 32,3360           65453                                    V2T300
001442: 32,3361           00017                                    14D
001443: 32,3362           17722                           STODL    X(T1)                                 #  X(T1)MAX=X(T1)
001444: 32,3363           00015                                    12D
001445: 32,3364           77676                           DCOMP
001446: 32,3365           34021                           STCALL   16D                                   #  -DX(T1)MAX=DX(T1)
001447: 32,3366           65457                                    GAMDV10
001448: 32,3367           45345                           DLOAD    DSU
001449: 32,3370           03632                                    RTEDVD
001450: 32,3371           03706                                    DV
001451: 32,3372           77640                           BMN
001452: 32,3373           65453                                    V2T300
001453: 32,3374           71214        V2T175             SET      DLOAD
001454: 32,3375           00072                                    F2RTE
001455: 32,3376           03722                                    X(T1)
001456: 32,3377           77614                           BOFF
001457: 32,3400           02742                                    SLOWFLG
001458: 32,3401           65406                                    V2T177
001459: 32,3402           14013                           STODL    10D                                   #  X(T1)MIN
001460: 32,3403           00015                                    12D                                   #  DX(T1)MAX
001461: 32,3404           77650                           GOTO
001462: 32,3405           65411                                    V2T179
001463: 32,3406           14017        V2T177             STODL    14D
001464: 32,3407           00015                                    12D
001465: 32,3410           77676                           DCOMP
001466: 32,3411           34021        V2T179             STCALL   16D                                   #  DX(T1)
001467: 32,3412           65457                                    GAMDV10
001468: 32,3413           50145                           DLOAD    BMN
001469: 32,3414           03730                                    NN1A
001470: 32,3415           65453                                    V2T300
001471:
001472:                                                                                                  #  PREVENT A LARGE CHANGE IN INDEPENDENT VARIABLE DURING AN ITERATION FOR A
001473:                                                                                                  #  PRECISION TRAJECTORY
001474:
001475: 32,3416           45345        V2T185             DLOAD    DSU
001476: 32,3417           03722                                    X(T1)
001477: 32,3420           00001                                    00D
001478: 32,3421           65246                           ABS      PDDL                                  #  /X(T1)-X(T1),,/ = BETA7
001479: 32,3422           00015                                    12D
001480: 32,3423           44352                           SL1      BDSU
001481: 32,3424           71240                           BMN      DLOAD
001482: 32,3425           65453                                    V2T300
001483: 32,3426           00001                                    00D                                   #  CONTINUE IF BETA7 LARGER THAN 2DX(T1)MAX
001484: 32,3427           03722                           STORE    X(T1)                                 #  X(T1),, = X(T1)
001485: 32,3430           50025                           DSU      BMN
001486: 32,3431           00017                                    14D
001487: 32,3432           65440                                    V2T195
001488: 32,3433           77745                           DLOAD
001489: 32,3434           00017                                    14D
001490: 32,3435           03722                           STORE    X(T1)                                 #  X(T1)MAX = X(T1)
001491: 32,3436           77650                           GOTO
001492: 32,3437           65451                                    V2T205
001493: 32,3440           45345        V2T195             DLOAD    DSU
001494: 32,3441           03722                                    X(T1)
001495: 32,3442           00013                                    10D
001496: 32,3443           52040                           BMN      GOTO
001497: 32,3444           65446                                    V2T200
001498: 32,3445           65451                                    V2T205
001499: 32,3446           77745        V2T200             DLOAD
001500: 32,3447           00013                                    10D
001501: 32,3450           03722                           STORE    X(T1)                                 #  X(T1)MIN = X(T1)
001502: 32,3451           77624        V2T205             CALL
001503: 32,3452           65660                                    DVCALC
001504: 32,3453           77745        V2T300             DLOAD
001505: 32,3454           33524                                    ZERORTE
001506: 32,3455           77650        V2T1X              GOTO
001507: 32,3456           00041                                    33D
001508:
001509:                                                                                                  #  X(T1)-DV ITERATOR SUBROUTINE
001510:
001511:                                                                                                  #  DESCRIPTION
001512:                                                                                                  #        COMPUTES A POST IMPULSE VELOCITY VECTOR (V2(T1)) WHICH REQUIRES A MINIMUM DV.
001513:
001514:                                                                                                  #  CALLING SEQUENCE
001515:                                                                                                  #        L       CALL
001516:                                                                                                  #        L+1             GAMDV10
001517:
001518:                                                                                                  #  NORMAL EXIT MODE
001519:                                                                                                  #        AT L+2 OF CALLING SEQUENCE
001520:
001521:                                                                                                  #  ALARM EXIT MODE
001522:                                                                                                  #        AT V2T1X WITH MPAC = OCTAL 605 FOR EXCESS ITERATIONS
001523:
001524:                                                                                                  #  SUBROUTINES CALLED
001525:                                                                                                  #        DVCALC
001526:
001527:                                                                                                  #  ERASABLE INITIALIZATION REQUIRED
001528:                                                                                                  #     PUSHLIST
001529:                                                                                                  #        02D             THETA1=BETA5*LAMBDA-1                                   TP      B17
001530:                                                                                                  #        05D             THETA2=2*R(T1)*(LAMBDA-1)                               TP      B38/B36
001531:                                                                                                  #        08D             THETA3=MU**.5/R(T1)                                     DP      B-4/B-5
001532:                                                                                                  #        10D             X(T1)MIN=LOWER BOUND ON INDEPENDENT VARIABLE X(T1)      DP      B5
001533:                                                                                                  #        12D             DX(T1)MAX=MAXIMUM DX(T1)                                DP      B5
001534:                                                                                                  #        14D             X(T1)MAX=UPPER BOUND ON INDEPENDENT VARIABLE X(T1)      DP      B5
001535:                                                                                                  #        16D             DX(T1)=ITERATOR INCREMENT                               DP      B5
001536:                                                                                                  #     MPAC
001537:                                                                                                  #        NONE
001538:                                                                                                  #     OTHER
001539:                                                                                                  #        V(T1)/          INITIAL VELOCITY VECTOR                                 VECTOR  B7/B5   METERS/CS
001540:                                                                                                  #        RTEDVD          DELTA VELOCITY DESIRED                                  DP      B7/B5   METERS/CS
001541:                                                                                                  #        UR1/            UNIT INITIAL VECTOR                                     VECTOR  B1
001542:                                                                                                  #        UH/             UNIT HORIZONTAL VECTOR                                  VECTOR  B1
001543:                                                                                                  #        X(T1)           COTANGENT OF INITIAL FLIGHT PATH ANGLE (FROM VERTICAL)  DP      B5
001544:                                                                                                  #        F2RTE           TIME CRITICAL OR MINIMUM FUEL MODE INDICATOR            STATE AREA      0 MIN. FUEL, 1 MIN. TIME
001545:
001546:                                                                                                  #  OUTPUT
001547:                                                                                                  #        V2(T1)/         POST IMPULSE INITIAL VELOCITY VECTOR                    VECTOR  B7/B5   METERS/CS
001548:                                                                                                  #        DV              INITIAL VELOCITY CHANGE                                 DP      B7/B5   METERS/CS
001549:                                                                                                  #        X(T1)           COTANGENT OF INITIAL FPA MEASURED FROM VERTICAL         DP      B5
001550:                                                                                                  #        PCON            SEMI-LATUS RECTUM                                       DP      B28/B26 METERS
001551:
001552:                                                                                                  #  DEBRIS
001553:                                                                                                  #     PUSHLIST
001554:                                                                                                  #        00D             X(T1),,
001555:                                                                                                  #        02D             THETA1
001556:                                                                                                  #        05D             THETA2
001557:                                                                                                  #        08D             THETA3
001558:                                                                                                  #        10D             X(T1)MIN
001559:                                                                                                  #        12D             DX(T1)MAX
001560:                                                                                                  #        14D             X(T1)MAX
001561:                                                                                                  #        16D             DX(T1)
001562:                                                                                                  #        22D             DV,=PREVIOUS DV                                         DP      B7/B5
001563:                                                                                                  #        24D             BETA9=X(T1)+1.1DX(T1)                                   DP      B5
001564:                                                                                                  #        31D             GAMDV10 SUBROUTINE RETURN ADDRESS
001565:                                                                                                  #        32D             DVCALC SUBROUTINE RETURN ADDRESS
001566:                                                                                                  #        33D             V2T100 SUBROUTINE RETURN ADDRESS
001567:
001568: 32,3457           77620        GAMDV10            STQ
001569: 32,3460           00037                                    31D
001570: 32,3461           45001                           SETPD    CALL
001571: 32,3462           00023                                    18D                                   #                                        PL18D
001572: 32,3463           65660                                    DVCALC
001573: 32,3464           45345                           DLOAD    DSU
001574: 32,3465           00017                                    14D
001575: 32,3466           00013                                    10D
001576: 32,3467           77600                           BOV
001577: 32,3470           65510                                    GAMDV20
001578: 32,3471           45206                           PUSH     DSU                                   #  X(T1)MAX-X(T1)MIN=BETA8       B5      PL20D
001579: 32,3472           33614                                    EPC9RTE
001580: 32,3473           71240                           BMN      DLOAD
001581: 32,3474           65656                                    GAMDVX                                #  BOUNDS CLOSE TOGETHER
001582: 32,3475           00023                                    18D
001583: 32,3476           50025                           DSU      BMN                                   #  BETA8-DX(T1)MAX
001584: 32,3477           00015                                    12D
001585: 32,3500           65504                                    GAMDV15
001586: 32,3501           52001                           SETPD    GOTO                                  #                                        PL18D
001587: 32,3502           00023                                    18D
001588: 32,3503           65510                                    GAMDV20
001589: 32,3504           77745        GAMDV15            DLOAD                                          #                                        PL18D
001590: 32,3505           70565                           SIGN     SR1
001591: 32,3506           00021                                    16D
001592: 32,3507           00021                           STORE    16D                                   #  BETA8(SIGNDX(T1))/2=DX(T1)
001593: 32,3510           77745        GAMDV20            DLOAD
001594: 32,3511           33526                                    M144RTE
001595: 32,3512           03732                           STORE    NN2
001596: 32,3513           43345        GAMDV25            DLOAD    DAD
001597: 32,3514           03732                                    NN2
001598: 32,3515           33522                                    1RTEB28
001599: 32,3516           67240                           BMN      SLOAD
001600: 32,3517           65523                                    GAMDV30
001601: 32,3520           33562                                    OCT605
001602: 32,3521           77650                           GOTO
001603: 32,3522           65455                                    V2T1X
001604: 32,3523           03732        GAMDV30            STORE    NN2                                   #  NN2=NN2+1
001605: 32,3524           65345                           DLOAD    PDDL                                  #  X(T1)=X(T1),                  B5      PL20D
001606: 32,3525           03722                                    X(T1)
001607: 32,3526           03706                                    DV
001608: 32,3527           43325                           PDDL     DAD                                   #  DV=DV,                        B7/B5   PL22D
001609: 32,3530           03722                                    X(T1)
001610: 32,3531           00021                                    16D
001611: 32,3532           37722                           STCALL   X(T1)                                 #  X(T1)+DX(T1)=X(T1)            B5
001612: 32,3533           65660                                    DVCALC
001613: 32,3534           71214                           BON      DLOAD
001614: 32,3535           00312                                    F2RTE
001615: 32,3536           65552                                    GAMDV35
001616: 32,3537           03706                                    DV
001617: 32,3540           50025                           DSU      BMN                                   #  CONTINUE IF FUEL CRITICAL MODE
001618: 32,3541           00025                                    20D
001619: 32,3542           65547                                    GAMDV33
001620: 32,3543           57545        GAMDV32            DLOAD    DCOMP
001621: 32,3544           00021                                    16D
001622: 32,3545           77742                           SR1
001623: 32,3546           00021                           STORE    16D
001624: 32,3547           52001        GAMDV33            SETPD    GOTO
001625: 32,3550           00023                                    18D                                   #                                        PL18D
001626: 32,3551           65615                                    GAMDV50
001627:
001628:                                                                                                  #  TIME CRITICAL MODE
001629:
001630: 32,3552           45345        GAMDV35            DLOAD    DSU
001631: 32,3553           03632                                    RTEDVD
001632: 32,3554           03706                                    DV
001633: 32,3555           41525                           PDDL     PUSH                                  #  DVD-DV=DVERR                  B7/B5   PL22D
001634: 32,3556           51545        GAMDV40            DLOAD    ABS                                   #  DV,                                   PL24D
001635: 32,3557           00025                                    20D
001636: 32,3560           50025                           DSU      BMN
001637: 32,3561           33616                                    EPC10RTE
001638: 32,3562           65656                                    GAMDVX
001639: 32,3563           71204        GAMDV45            BOVB     DLOAD
001640: 32,3564           57353                                    TCDANZIG                              #  ASSURE OVFIND IS 0
001641: 32,3565           60221                           BDSU     NORM
001642: 32,3566           03706                                    DV
001643: 32,3567           00050                                    X2
001644: 32,3570           77725                           PDDL                                           #  DV-DV,                        B7/B5-N2 PL22D
001645: 32,3571           70501                           NORM     SR1                                   #  DVERR                         B8/B6-N1
001646: 32,3572           00047                                    X1
001647: 32,3573           65271                           DDV      PDDL                                  #  DVERR/ DV - DV
001648: 32,3574           41221                           BDSU     DMP                                   #                                        PL18D
001649: 32,3575           03722                                    X(T1)
001650: 32,3576           77660                           XSU,1
001651: 32,3577           00047                                    X2
001652: 32,3600           00021                           STORE    16D                                   #  PRESERVE SIGN IF OVERFLOW
001653: 32,3601           40057                           SR*      BOV
001654: 32,3602           20600                                    0          -1,1
001655: 32,3603           65611                                    GAMDV47
001656: 32,3604           00021                           STORE    16D                                   #  (X(T1)-X(T1),)DVERR/(DV-DV,)=DX(T1)
001657: 32,3605           45246                           ABS      DSU
001658: 32,3606           00015                                    12D
001659: 32,3607           77640                           BMN
001660: 32,3610           65615                                    GAMDV50
001661: 32,3611           75345        GAMDV47            DLOAD    SIGN
001662: 32,3612           00015                                    12D
001663: 32,3613           00021                                    16D
001664: 32,3614           00021                           STORE    16D                                   #  DX(T1)MAX(SIGNDX(T1))=DX(T1)
001665:
001666:                                                                                                  #  CHECK TO KEEP INDEPENDENT VARIABLE IN BOUNDS
001667:
001668: 32,3615           41345        GAMDV50            DLOAD    DMP
001669: 32,3616           00021                                    16D
001670: 32,3617           33536                                    1.1RTEB1
001671: 32,3620           43352                           SL1      DAD
001672: 32,3621           03722                                    X(T1)
001673: 32,3622           00031                           STORE    24D                                   #  X(T1)+1.1DX(T1)=BETA9         B5
001674: 32,3623           50025                           DSU      BMN
001675: 32,3624           00017                                    14D
001676: 32,3625           65634                                    GAMDV55
001677: 32,3626           45345                           DLOAD    DSU
001678: 32,3627           00017                                    14D
001679: 32,3630           03722                                    X(T1)
001680: 32,3631           77742                           SR1
001681: 32,3632           34021                           STCALL   16D                                   #  (X(T1)MAX-X(T1))/2=DX(T1)     B5
001682: 32,3633           65647                                    GAMDV65
001683: 32,3634           45345        GAMDV55            DLOAD    DSU
001684: 32,3635           00031                                    24D
001685: 32,3636           00013                                    10D
001686: 32,3637           52040                           BMN      GOTO
001687: 32,3640           65642                                    GAMDV60
001688: 32,3641           65647                                    GAMDV65
001689: 32,3642           45345        GAMDV60            DLOAD    DSU
001690: 32,3643           00013                                    10D
001691: 32,3644           03722                                    X(T1)
001692: 32,3645           77742                           SR1
001693: 32,3646           00021                           STORE    16D                                   #  (X(T1)MIN-X(T1))/2=DX(T1)     B5
001694: 32,3647           51545        GAMDV65            DLOAD    ABS
001695: 32,3650           00021                                    16D
001696: 32,3651           50025                           DSU      BMN
001697: 32,3652           33614                                    EPC9RTE
001698: 32,3653           65656                                    GAMDVX
001699: 32,3654           77650                           GOTO
001700: 32,3655           65513                                    GAMDV25
001701: 32,3656           77650        GAMDVX             GOTO
001702: 32,3657           00037                                    31D
001703:
001704:                                                                                                  #  DV CALCULATION SUBROUTINE
001705:
001706:                                                                                                  #  INPUT
001707:                                                                                                  #     PUSHLIST
001708:                                                                                                  #        02D             THETA1=BETA5*LAMBDA-1                                   TP      B17
001709:                                                                                                  #        05D             THETA2=2*R(T1)*(LAMBDA-1)                               TP      B38/B36
001710:                                                                                                  #        08D             THETA3=MU**.5/R(T1)                                     DP      B-4/B-5
001711:                                                                                                  #     OTHER
001712:                                                                                                  #        X(T1)           COTANGENT OF POST IMPULSE INITIAL FLIGHT PATH ANGLE     DP      B5
001713:                                                                                                  #        V(T1)/          INITIAL VELOCITY VECTOR (PRE IMPULSE)                   VECTOR  B7/B5   METERS/CS
001714:                                                                                                  #        UR1/            UNIT INITIAL VECTOR                                     VECTOR  B1
001715:                                                                                                  #        UH/             UNIT HORIZONTAL VECTOR                                  VECTOR  B1
001716:
001717:                                                                                                  #  OUTPUT
001718:                                                                                                  #        V2(T1)/         POST IMPULSE INITIAL VELOCITY VECTOR                    VECTOR  B7/B5   METERS/CS
001719:                                                                                                  #        DV              INITIAL VELOCITY CHANGE                                 DP      B7/B5   METERS/CS
001720:                                                                                                  #        PCON            SEMI-LATUS RECTUM                                       DP      B28/B26 METERS
001721:
001722:                                                                                                  #  DEBRIS
001723:                                                                                                  #        28D             THETA3*PCON**.5                                         DP      B10/B8-N1
001724:                                                                                                  #        C(PUSLOC)       THETA3(PCON**.5)*X(T1)*UR1/                             VECTOR  B7/B5
001725:                                                                                                  #        32D             DVCALC SUBROUTINE RETURN ADDRESS
001726:                                                                                                  #        X1              NORMALIZATION FACTOR FOR VALUE IN 28D
001727:
001728:                                                                                                  #  PUSHLOC IS RESTORED TO ITS ENTRANCE VALUE UPON EXITING DVCALC
001729:
001730: 32,3660           71220        DVCALC             STQ      DLOAD
001731: 32,3661           00040                                    32D
001732: 32,3662           03722                                    X(T1)
001733: 32,3663           54316                           DSQ      SR
001734: 32,3664           20610                                    7
001735: 32,3665           76276                           DCOMP    TAD
001736: 32,3666           00003                                    02D
001737: 32,3667           41501                           NORM     PUSH
001738: 32,3670           00047                                    X1
001739: 32,3671           60351                           TLOAD    NORM
001740: 32,3672           00006                                    05D
001741: 32,3673           00050                                    X2
001742: 32,3674           70434                           RTB      SR1
001743: 32,3675           45716                                    DPMODE
001744: 32,3676           56264                           XSU,2    DDV
001745: 32,3677           00046                                    X1
001746: 32,3700           77657                           SR*
001747: 32,3701           57170                                    6,2
001748: 32,3702           03720                           STORE    PCON                                  #  THETA2/(THETA1-X(T1)**2)=PCON B28/26
001749: 32,3703           41366                           SQRT     DMP
001750: 32,3704           00011                                    08D
001751: 32,3705           77701                           NORM
001752: 32,3706           00047                                    X1
001753: 32,3707           14035                           STODL    28D                                   #  THETA3*PCON**.5               B10/B8 -N1
001754: 32,3710           03722                                    X(T1)
001755: 32,3711           74301                           NORM     VXSC
001756: 32,3712           00050                                    X2
001757: 32,3713           03740                                    UR1/                                  #  X(T1)*UR1/                    B5+B1 -N2
001758: 32,3714           74274                           XAD,2    VXSC
001759: 32,3715           00046                                    X1
001760: 32,3716           00035                                    28D
001761: 32,3717           63257                           VSR*     PDVL                                  #  THETA3(PCON**.5)X(T1)*UR1/    B7/B5
001762: 32,3720           57207                                    0          -9D,2                      #                +
001763: 32,3721           03746                                    UH/
001764: 32,3722           53761                           VXSC     VSR*                                  #  THETA3(PCON**.5)UH/           B7/B5
001765: 32,3723           00035                                    28D
001766: 32,3724           20575                                    0          -4,1                       #                =
001767: 32,3725           45455                           VAD      STADR
001768: 32,3726           74077                           STORE    V2(T1)/                               #  V2(T1)/                       B7/B5
001769: 32,3727           51451                           VSU      ABVAL
001770: 32,3730           03672                                    V(T1)/
001771: 32,3731           03706                           STORE    DV                                    #  ABVAL(V2(T1)/-V1(T)/)=DV      B7/B5
001772: 32,3732           77650                           GOTO
001773: 32,3733           00040                                    32D
001774:
001775:                                                                                                  #  SUBROUTINE TO COMPUTE BOUNDS ON INDEPENDENT VARIABLE X(T1)
001776:
001777:                                                                                                  #  INPUT
001778:                                                                                                  #     PUSHLIST
001779:                                                                                                  #        PUSHLOC -4      MAJOR AXIS (MA)                                         DP      B30/B28
001780:                                                                                                  #        PUSHLOC -2      MAJOR AXIS (MA) AGAIN                                   DP      B30/B28
001781:                                                                                                  #        28D             BETA5=LAMBDA*BETA1                                      DP      B9
001782:                                                                                                  #     OTHER
001783:                                                                                                  #        RCON                                                                    DP      B29/B27
001784:                                                                                                  #        R(T1)                                                                   DP      B29/B27
001785:
001786:                                                                                                  #  OUTPUT
001787:                                                                                                  #     MPAC
001788:                                                                                                  #        X(T1)LIM        LIMIT ON INDEPENDENT VARIABLE X(T1)                     DP      B5
001789:
001790:                                                                                                  #  DEBRIS
001791:                                                                                                  #     PUSHLIST
001792:                                                                                                  #        C(PUSHLOC)      MA-RCON                                                 DP      (B30/28)-N1
001793:                                                                                                  #        C(PSHLOC)+2     MA                                                      DP      B30/B28
001794:                                                                                                  #        X1              NORMALIZATION FACTOR FOR MA-RCON
001795:                                                                                                  #        20D             XT1LIM SUBROUTINE RETURN ADDRESS
001796:
001797:                                                                                                  #  PUSHLOC IS RESTORED TO ITS ENTRANCE VALUE UPON EXITING XT1LIM
001798:
001799: 32,3734           71220        XT1LIM             STQ      DLOAD
001800: 32,3735           00024                                    20D
001801: 32,3736           03636                                    RCON
001802: 32,3737           44342                           SR1      BDSU
001803: 32,3740           65301                           NORM     PDDL                                  #  MA-RCON                       B30-N1
001804: 32,3741           00050                                    X2
001805: 32,3742           70525                           PDDL     SR1
001806: 32,3743           03646                                    R(T1)
001807: 32,3744           56221                           BDSU     DDV
001808: 32,3745           41257                           SL*      DMP
001809: 32,3746           57601                                    0          -3,2                       #                                B3
001810: 32,3747           00035                                    28D
001811: 32,3750           45257                           SL*      DSU                                   #  BETA10=BETA5(MA-RT)/(MA-RC)-1 B11
001812: 32,3751           20173                                    0          -6,1
001813: 32,3752           33521                                    1RTEB25    +1                         #  1.0 B-11
001814: 32,3753           40152                           SL1      BOV
001815: 32,3754           65760                                    XT1LIM2                               #                                B10
001816: 32,3755           52040                           BMN      GOTO
001817: 32,3756           65764                                    XT1LIM5
001818: 32,3757           65762                                    XT1LIM3
001819: 32,3760           77745        XT1LIM2            DLOAD                                          #  BETA10=POSMAX IF OVERFLOW
001820: 32,3761           33542                                    2RTEB1
001821: 32,3762           52166        XT1LIM3            SQRT     GOTO                                  #  X(T1)=SQRT(BETA10)            B5
001822: 32,3763           65766                                    XT1LIMX
001823: 32,3764           77745        XT1LIM5            DLOAD
001824: 32,3765           33524                                    ZERORTE
001825: 32,3766           77650        XT1LIMX            GOTO
001826: 32,3767           00024                                    20D
001827:
001828:                                                                                                  #  CONSTANTS FOR THE P37 AND P70 PROGRAMS AND SUBROUTINES
001829:
001830: 36,3254                                           BANK     36
001831: 35,2000                                           SETLOC   RTECON1
001832: 35,2000                                           BANK
001833:
001834: 35,3477           20000 00000  1RTEB1             2DEC     1.         B-1
001835: 35,3501           10000 00000  1RTEB2             2DEC     1.         B-2
001836: 35,3503           04000 00000  1RTEB3             2DEC     1.         B-3
001837: 35,3505           02000 00000  1RTEB4             2DEC     1.         B-4
001838: 35,3507           00020 00000  1RTEB10            2DEC     1.         B-10
001839: 35,3511           00004 00000  1RTEB12            2DEC     1.         B-12
001840: 35,3513           00002 00000  1RTEB13            2DEC     1.         B-13
001841: 35,3515           00000 04000  1RTEB17            2DEC     1.         B-17
001842: 35,3517           00000 00010  1RTEB25            2DEC     1.         B-25
001843:                                                                                                  #                                        * * B25 AND B28 MUST BE CONSECUTIVE * *
001844: 35,3521           00000 00001  1RTEB28            2DEC     1.         B-28
001845: 35,3523           00000 00000  ZERORTE            2DEC     0          B-28
001846: 35,3525           77777 77557  M144RTE            2DEC     -144.      B-28
001847: 35,3527           77777 77760  M15RTE             2DEC     -15        B-28
001848: 35,3531           00000 00012  10RTE              2DEC     10         B-28
001849: 35,3533           54631 63145  M.6RTE             2DEC     -.6
001850: 35,3535           21463 06315  1.1RTEB1           2DEC     1.1        B-1
001851: 35,3537           77777 77771  M6RTEB28           2DEC     -6         B-28
001852: 35,3541           37777 37777  2RTEB1             2OCT     3777737777
001853: 35,3543           77777 77766  M9RTEB28           2DEC     -9         B-28
001854: 35,3545           77777 77767  M8RTEB28           2DEC     -8         B-28
001855: 35,3547           00000 35610  30480RTE           2DEC     30480.     B-29
001856: 35,3551           37405 12250  VCSPS              2DEC     31.510396  B-5                        #  (SEE 2VEXHUST)
001857: 35,3553           33041 37714  VCRCS              2DEC     27.0664    B-5
001858: 35,3555           00003 13241  MDOTRCS            2DEC     .0016375   B-3
001859: 35,3557           20000 00000  CSUBT              2DEC     .5
001860: 35,3561           00605        OCT605             OCT      00605
001861: 35,3562           00612        OCT612             OCT      00612
001862: 35,3563           40214 45266  MCOS7.5            2DEC     -.99144486
001863: 35,3565           73645 56536  MSIN7.5            2DEC     -.13052619
001864: 35,3567           70467 71205  MCOS22.5           2DEC     -.92387953 B-2
001865: 35,3571           16525 12525  THETA165           2DEC     .4583333333
001866: 35,3573           22525 12525  THETA210           2DEC     .5833333333
001867: 35,3575           17775 06676  EPC1RTE            2DEC     .99966     B-1
001868: 35,3577           00000 00062  EPC2RTE            2DEC     100.       B-29
001869: 35,3601           00020 14223  EPC3RTE            2DEC     .001
001870: 35,3603           00000 05174  EPC4RTE            2DEC     .00001
001871: 35,3605           00002 21727  EPC5RTE            2DEC     .01        B-6
001872: 35,3607           00000 01654  EPC6RTE            2DEC     .000007    B-1
001873: 35,3611           00000 00764  EPC7RTE            2DEC     1000.      B-29
001874: 35,3613           00000 00010  EPC9RTE            2DEC     1.         B-25
001875: 35,3615           00000 00322  EPC10RTE           2DEC     .0001      B-7
001876:
001877: 35,3617                                           BANK     35
001878: 35,2000                                           SETLOC   RTECON1
001879: 35,2000                                           BANK
001880:
001881: 35,3617           75725 75417  C4RTE              2DEC     -6.986643  E7         B-30
001882: 35,3621           00325 23740  K1RTE              2DEC     7.         E6         B-29
001883: 35,3623           00306 06614  K2RTE              2DEC     6495000.   B-29
001884: 35,3625           76027 70156  K3RTE              2DEC     -.06105
001885: 35,3627           74517 54131  K4RTE              2DEC     -.10453
001886: 35,3631           30276 05001  RTMURTE            2DEC     199650.501 B-18
001887: 35,3633           00003 27040  E3RTE              2DEC     121920.    B-29
001888:

End of include-file P37,P70.agc.  Parent file is MAIN.agc


