
Source Code


000002:                                                                                                  ## Copyright:   Public domain.
000003:                                                                                                  ## Filename:    P51-P53.agc
000004:                                                                                                  ## Purpose:     A section of Comanche revision 067.
000005:                                                                                                  ##              It is part of the reconstructed source code for the flight
000006:                                                                                                  ##              software for the Command Module's (CM) Apollo Guidance Computer
000007:                                                                                                  ##              (AGC) for Apollo 12. No original listings of this program are
000008:                                                                                                  ##              available; instead, this file was created via dissassembly of
000009:                                                                                                  ##              dumps of Comanche 067 core rope modules and comparison with
000010:                                                                                                  ##              other AGC programs.
000011:                                                                                                  ## Assembler:   yaYUL
000012:                                                                                                  ## Contact:     Ron Burkey <info@sandroid.org>.
000013:                                                                                                  ## Website:     www.ibiblio.org/apollo/index.html
000014:                                                                                                  ## Mod history: 2023-08-16 MAS  Created from Comanche 055.
000015:                                                                                                  ##              2024-03-15 MAS  Updated for Comanche 067.
000016:
000017:                                                                                                  #  PROGRAM NAME - PROG52                 DATE - NOV 30, 1966
000018:                                                                                                  #  MOD NO - 2                                    LOG SECTION - P51-P53
000019:                                                                                                  #  MODIFICATION BY - LONSKE                      ASSEMBLY - SUNDISK REV 30
000020:
000021:                                                                                                  #  FUNCTIONAL DESCRIPTION -
000022:
000023:                                                                                                  #        ALIGNS THE IMU TO ONE OF THREE ORIENTATIONS SELECTED BY THE ASTRONAUT.  THE PRESENT IMU ORIENTATION IS KNOWN
000024:                                                                                                  #        AND IS STORED IN REFSMMAT.  THE THREE POSSIBLE ORIENTATIONS MAY BE_
000025:
000026:                                                                                                  #        (A)     PREFERRED ORIENTATION
000027:
000028:                                                                                                  #                AN OPTIMUM ORIENTATION FOR A PREVIOUSLY CALCULATED MANUEVER.  THIS ORIENTATION MUST BE CALCULATED AND
000029:                                                                                                  #                STORED BY A PREVIOUSLY SELECTED PROGRAM.
000030:
000031:                                                                                                  #        (B)     NOMINAL ORIENTATION
000032:
000033:                                                                                                  #                X   = UNIT ( Y   X Z   )
000034:                                                                                                  #                -SM          -SM   -SM
000035:
000036:                                                                                                  #                Y   = UNIT (V X R)
000037:                                                                                                  #                -SM         -   -
000038:
000039:                                                                                                  #                Z   = UNIT ( -R )
000040:                                                                                                  #                -SM           -
000041:
000042:                                                                                                  #                WHERE_
000043:
000044:                                                                                                  #                R = THE GEOCENTRIC RADIUS VECTOR AT TIME T(ALIGN) SELECTED BY THE ASTRONAUT
000045:                                                                                                  #                -
000046:
000047:                                                                                                  #                V = THE INERTIAL VELOCITY VECTOR AT TIME T(ALIGN) SELECTED BY THE ASTRONAUT
000048:                                                                                                  #                -
000049:
000050:                                                                                                  #        (C)     REFSMMAT ORIENTATION
000051:
000052:                                                                                                  #                THIS SELECTION CORRECTS THE PRESENT IMU ORIENTATION.  THE PRESENT ORIENTATION DIFFERS FROM THAT TO WHICH IT
000053:                                                                                                  #                WAS LAST ALIGNED ONLY DUE TO GYRO DRIFT (I.E. NEITHER GIMBAL LOCK NOR IMU POWER INTERRUPTION HAS OCCURED
000054:                                                                                                  #                SINCE THE LAST ALIGNMENT).
000055:
000056:                                                                                                  #        AFTER A IMU ORIENTATION HAS BEEN SELECTED ROUTINE S52.2 IS OPERATED TO COMPUTE THE GIMBAL ANGLES USING THE
000057:                                                                                                  #        NEW ORIENTATION AND THE PRESENT VEHICLE ATTITUDE.  CAL52A THEN USES THESE ANGLES, STORED IN THETAD,+1,+2, TO
000058:                                                                                                  #        COARSE ALIGN THE IMU.  THE STAR SELECTION ROUTINE, R56, IS THEN OPERATED.  IF 2 STARS ARE NOT AVAILABLE AN ALARM
000059:                                                                                                  #        IS FLASHED TO NOTIFY THE ASTRONAUT.  AT THIS POINT THE ASTRONAUT WILL MANUEVER THE VEHICLE AND SELECT 2 STARS
000060:                                                                                                  #        EITHER MANUALLY OR AUTOMATICALLY.  AFTER 2 STARS HAVE BEEN SELECTED THE IMU IS FINE ALIGNED USING ROUTINE R51.  IF
000061:                                                                                                  #        THE RENDEZVOUS NAVIGATION PROCESS IS OPERATING (INDICATED BY RNDVZFLG) P20 IS DISPLAYED.  OTHERWISE P00 IS
000062:                                                                                                  #        REQUESTED.
000063:
000064:                                                                                                  #  CALLING SEQUENCE -
000065:
000066:                                                                                                  #        THE PROGRAM IS CALLED BY THE ASTRONAUT BY DSKY ENTRY.
000067:
000068:                                                                                                  #  SUBROUTINES CALLED -
000069:
000070:                                                                                                  #        1. FLAGDOWN              7. S52.2               13. NEWMODEX
000071:                                                                                                  #        2. R02BOTH               8. CAL53A              14. PRIOLARM
000072:                                                                                                  #        3. GOPERF4               9. FLAGUP
000073:                                                                                                  #        4. MATMOVE              10. R56
000074:                                                                                                  #        5. GOFLASH              11. R51
000075:                                                                                                  #        6. S52.3                12. GOPERF3
000076:
000077:                                                                                                  #  NORMAL EXIT MODES -
000078:
000079:                                                                                                  #        EXITS TO ENDOFJOB
000080:
000081:                                                                                                  #  ALARM OR ABORT EXIT MODES -
000082:
000083:                                                                                                  #        NONE
000084:
000085:                                                                                                  #  OUTPUT -
000086:
000087:                                                                                                  #        THE FOLLOWING MAY BE FLASHED ON THE DSKY
000088:                                                                                                  #                1. IMU ORIENTATION CODE
000089:                                                                                                  #                2. ALARM CODE 215 - PREFERRED IMU ORIENTATION NOT SPECIFIED
000090:                                                                                                  #                3. TIME OF NEXT IGNITION
000091:                                                                                                  #                4. GIMBAL ANGLES
000092:                                                                                                  #                5. ALARM CODE 405 - TWO STARS NOT AVAILABLE
000093:                                                                                                  #                6. PLEASE PERFORM P00
000094:                                                                                                  #        THE MODE DISPLAY MAY BE CHANGED TO 20
000095:
000096:                                                                                                  #  ERASABLE INITIALIZATION REQUIRED -
000097:
000098:                                                                                                  #        PFRATFLG SHOULD BE SET IF A PREFERRED ORIENTATION HAS BEEN COMPUTED.  IF IT HAS BEEN COMPUTED IT IS STORED IN
000099:                                                                                                  #        XSMD, YSMD, ZSMD.
000100:
000101:                                                                                                  #        RNDVZFLG INDICATES WHETHER THE RENDEZVOUS NAVIGATION PROCESS IS OPERATING.
000102:
000103:                                                                                                  #  DEBRIS -
000104:
000105:                                                                                                  #        WORK AREA
000106:
000107: 21,2054  15,2000               P54                =        PROG52
000108: 33,3776                                           BANK     33
000109: 15,2000                                           SETLOC   P50S
000110: 15,2000                                           BANK
000111:
000112: 15,2000  30,2000                                  SBANK=   LOWSUPER
000113: 15,2000  E5,1773                                  EBANK=   SAC
000114: 15,2000                                           COUNT    15/P52
000115:
000116: 15,2000           05426        PROG52             TC       PHASCHNG
000117: 15,2001           00254                           OCT      00254
000118: 15,2002           05574                           TC       DOWNFLAG
000119: 15,2003           00027                           ADRES    UPDATFLG                              #  BIT 7 FLAG 1
000120: 15,2004           05574                           TC       DOWNFLAG
000121: 15,2005           00031                           ADRES    TRACKFLG                              #  BIT 5 FLAG 1
000122: 15,2006           04676                           TC       BANKCALL
000123: 15,2007           17653                           CADR     R02BOTH                               #  IMU STATUS CHECK
000124: 15,2010           35030                           CAF      BIT4
000125: 15,2011           70076                           MASK     STATE      +2                         #  IS PFRATFLG SET(PREFERRED ORIENTATION)
000126: 15,2012           10000                           CCS      A
000127: 15,2013           02016                           TC       P52A                                  #  YES
000128: 15,2014           36214                           CAF      THREE                                 #  DISPLAY REFSMMAT OPTION 3
000129: 15,2015           02017                           TC       P52A       +1
000130: 15,2016           35033        P52A               CAF      BIT1
000131: 15,2017           55132                           TS       OPTION2
000132: 15,2020           35033        P52B               CAF      BIT1
000133: 15,2021           04676                           TC       BANKCALL                              #  FLASH OPTION CODE AND ORIENTATION CODE
000134: 15,2022           21135                           CADR     GOPERF4R
000135: 15,2023           04106                           TC       GOTOPOOH
000136: 15,2024           02031                           TC       +5
000137: 15,2025           02020                           TC       P52B                                  #  NEW CODE - NEW ORIENTATION CODE INPUT
000138: 15,2026           05426                           TC       PHASCHNG
000139: 15,2027           00014                           OCT      00014
000140: 15,2030           05233                           TC       ENDOFJOB
000141: 15,2031           31132                           CA       OPTION2
000142: 15,2032           76214                           MASK     THREE
000143: 15,2033           50000                           INDEX    A
000144: 15,2034           02035                           TC       +1
000145: 15,2035           02041                           TC       P52T                                  #  L.S.
000146: 15,2036           02110                           TC       P52J                                  #  PREF
000147: 15,2037           02041                           TC       P52T                                  #  NOM
000148: 15,2040           12120                           TCF      P52C                                  #  REF
000149: 15,2041           00006        P52T               EXTEND
000150: 15,2042           35035                           DCA      NEG0
000151: 15,2043           53046                           DXCH     DSPTEM1
000152: 15,2044           32157                           CAF      V06N34
000153: 15,2045           04676                           TC       BANKCALL
000154: 15,2046           20720                           CADR     GOFLASH
000155: 15,2047           04106                           TC       GOTOPOOH
000156: 15,2050           02052                           TC       +2
000157: 15,2051           02044                           TC       -5
000158: 15,2052           00006                           EXTEND
000159: 15,2053           31046                           DCA      DSPTEM1
000160: 15,2054           00006                           EXTEND
000161: 15,2055           12057                           BZF      +2
000162: 15,2056           12062                           TCF      +4
000163:
000164: 15,2057           00006                           EXTEND
000165: 15,2060           30025                           DCA      TIME2
000166: 15,2061           53046                           DXCH     DSPTEM1
000167: 15,2062           31132                           CA       OPTION2
000168: 15,2063           75032                           MASK     BIT2
000169: 15,2064           10000                           CCS      A
000170: 15,2065           12073                           TCF      +6                                    #  NOM
000171: 15,2066           06006                           TC       INTPRET                               #  LS
000172: 15,2067           77624                           CALL
000173: 15,2070           34603                                    P52LS
000174: 15,2071           77650                           GOTO
000175: 15,2072           32100                                    P52D
000176: 15,2073           06006                           TC       INTPRET
000177: 15,2074           77745                           DLOAD
000178: 15,2075           01046                                    DSPTEM1
000179: 15,2076           77624                           CALL                                           #  COMPUTE NOMINAL IMU
000180: 15,2077           34733                                    S52.3                                 #        ORIENTATION
000181: 15,2100           77624        P52D               CALL                                           #  READ VEHICLE ATTITUDE AND
000182: 15,2101           22260                                    S52.2                                 #        COMPUTE GIMBAL ANGLES
000183: 15,2102           77776                           EXIT
000184: 15,2103           32160                           CAF      VB06N22
000185: 15,2104           04676                           TC       BANKCALL                              #  DISPLAY GIMBAL ANGLES
000186: 15,2105           20720                           CADR     GOFLASH
000187: 15,2106           04106                           TC       GOTOPOOH
000188: 15,2107           02161                           TC       COARSTYP
000189: 15,2110           06006        P52J               TC       INTPRET                               #  RECYCLE- VEHICLE HAS BEEN MENUEVERED
000190: 15,2111           77650                           GOTO
000191: 15,2112           32100                                    P52D
000192: 15,2113           06006                           TC       INTPRET
000193: 15,2114           77624                           CALL                                           #  DO COARSE ALIGN
000194: 15,2115           30770                                    CAL53A                                #        ROUTINE
000195: 15,2116           77414        CAL53RET           SET      EXIT
000196: 15,2117           01462                                    REFSMFLG
000197: 15,2120           05426        P52C               TC       PHASCHNG
000198: 15,2121           04024                           OCT      04024
000199: 15,2122           35041                           CAF      ALRM15
000200: 15,2123           04676                           TC       BANKCALL
000201: 15,2124           21045                           CADR     GOPERF1
000202: 15,2125           04106                           TC       GOTOPOOH
000203: 15,2126           02130                           TC       +2                                    #  V33
000204: 15,2127           02142                           TC       P52F                                  #  E
000205: 15,2130           06006                           TC       INTPRET
000206: 15,2131           43234                           RTB      DAD
000207: 15,2132           45510                                    LOADTIME
000208: 15,2133           32264                                    TSIGHT1
000209: 15,2134           77624                           CALL
000210: 15,2135           30225                                    LOCSAM
000211: 15,2136           77776                           EXIT
000212: 15,2137           04676        P52E               TC       BANKCALL                              #  DO STAR SELECTION
000213: 15,2140           30333                           CADR     PICAPAR
000214: 15,2141           02147                           TC       P52I                                  #  2 STARS NOT AVAILABLE
000215: 15,2142           06006        P52F               TC       INTPRET                               #  2 STARS AVAILABLE
000216: 15,2143           77624                           CALL
000217: 15,2144           30532                                    R51
000218: 15,2145           77776        ENDP50S            EXIT
000219: 15,2146           04106                           TC       GOTOPOOH
000220: 15,2147           05664        P52I               TC       ALARM
000221: 15,2150           00405                           OCT      405
000222: 15,2151           35064                           CAF      V05N09
000223: 15,2152           04676                           TC       BANKCALL
000224: 15,2153           20720                           CADR     GOFLASH
000225: 15,2154           04106                           TC       GOTOPOOH
000226: 15,2155           02142                           TC       P52F                                  #  PROCEED - DO FINE ALIGN-R51
000227: 15,2156           02120                           TC       P52C                                  #  RECYCLE - VEHICLE HAS BEEN MANUEVERED
000228: 15,2157           01442        V06N34             VN       0634
000229: 15,2160           01426        VB06N22            VN       00622
000230: 15,2161           35040        COARSTYP           CAF      OCT13
000231: 15,2162           04676                           TC       BANKCALL
000232: 15,2163           21045                           CADR     GOPERF1
000233: 15,2164           14106                           TCF      GOTOPOOH                              #  V34
000234: 15,2165           12113                           TCF      P52J       +3                         #   NORMAL
000235: 15,2166           06006                           TC       INTPRET                               #  GYRO COARSE
000236: 15,2167           64375        GYCRS              VLOAD    MXV
000237: 15,2170           00307                                    XSMD
000238: 15,2171           01736                                    REFSMMAT
000239: 15,2172           77656                           UNIT
000240: 15,2173           26714                           STOVL    XDC
000241: 15,2174           00315                                    YSMD
000242: 15,2175           53521                           MXV      UNIT
000243: 15,2176           01736                                    REFSMMAT
000244: 15,2177           26722                           STOVL    YDC
000245: 15,2200           00323                                    ZSMD
000246: 15,2201           53521                           MXV      UNIT
000247: 15,2202           01736                                    REFSMMAT
000248: 15,2203           36730                           STCALL   ZDC
000249: 15,2204           47207                                    CALCGTA
000250: 15,2205           43014                           CLEAR    CLEAR
000251: 15,2206           01260                                    DRIFTFLG
000252: 15,2207           01662                                    REFSMFLG
000253: 15,2210           77776                           EXIT
000254: 15,2211           32244                           CAF      V16N20
000255: 15,2212           04676                           TC       BANKCALL
000256: 15,2213           20676                           CADR     GODSPR
000257: 15,2214           32323                           CA       R55CDR
000258: 15,2215           04676                           TC       BANKCALL
000259: 15,2216           17206                           CADR     IMUPULSE
000260: 15,2217           04676                           TC       BANKCALL
000261: 15,2220           17577                           CADR     IMUSTALL
000262: 15,2221           05763                           TC       CURTAINS
000263: 15,2222           05426                           TC       PHASCHNG
000264: 15,2223           04024                           OCT      04024
000265: 15,2224           06006                           TC       INTPRET
000266: 15,2225           75160                           AXC,1    AXC,2
000267: 15,2226           00306                                    XSMD
000268: 15,2227           01735                                    REFSMMAT
000269: 15,2230           77624                           CALL
000270: 15,2231           31042                                    MATMOVE
000271: 15,2232           43014                           CLEAR    SET
000272: 15,2233           01273                                    PFRATFLG
000273: 15,2234           01462                                    REFSMFLG
000274: 15,2235           77234                           RTB      VLOAD
000275: 15,2236           31253                                    SET1/PDT
000276: 15,2237           11566                                    ZEROVEC
000277: 15,2240           01472                           STORE    GCOMP
000278: 15,2241           52014                           SET      GOTO
000279: 15,2242           01060                                    DRIFTFLG
000280: 15,2243           30655                                    R51K
000281: 15,2244           04024        V16N20             VN       1620
000282: 15,2245     5041               ALRM15             EQUALS   OCT15
000283: 16,2000                                           SETLOC   P50S2
000284: 16,2000                                           BANK
000285: 16,2602           01531        V06N89*            VN       0689
000286:
000287:                                                                                                  #  NAME - P52LS
000288:
000289:                                                                                                  #  FUNCTION - TO DISPLAY THE LANDING SITE LATITUDE,
000290:                                                                                                  #  LONGTITUDE AND ALTITUDE.  TO ACCEPT NEW DATA VIA
000291:                                                                                                  #  THE KEYBOARD.  TO COMPUTE THE LANDING SITE
000292:                                                                                                  #  ORIENTATION FOR P52 OR P54
000293:
000294:                                                                                                  #  LET:
000295:                                                                                                  #        RLS  = LANDING SITE VECTOR IN REF COORDINATES
000296:                                                                                                  #        R    = CSM POSITION VECTOR IN REF COORDINATES
000297:                                                                                                  #        V    = CSM VELOCITY VECTOR IN REF COORDINATES
000298:                                                                                                  #  THEN THE LANDING SITE ORIENTATION IS:
000299:                                                                                                  #        XSMD = UNIT(RLS)
000300:                                                                                                  #        YSMD = UNIT(ZSMD*XSMD)
000301:                                                                                                  #        ZSMD = UNIT((R*V)*RLS)
000302:
000303:                                                                                                  #  CALL -        CALL
000304:                                                                                                  #                        P52LS
000305:
000306:                                                                                                  #  INPUTS-       DSPTEM1 = TIME OF ALIGNMENT
000307:                                                                                                  #                RLS = LANDING SITE VECTOR IN MOON FIXED COORINATES
000308:
000309:                                                                                                  #  OUTPUTS-      XSMD, YSMD, ZSMD
000310:
000311:                                                                                                  #  SUBROUTINES-  RP-TO-R, LAT-LONG, LLASRD, LLASRDA, CSMPREC
000312:
000313:                                                                                                  #  DEBRIS-       VAC, SEE SUBROUTINES
000314:
000315: 16,2603           43020        P52LS              STQ      SET
000316: 16,2604           00300                                    QMAJ
000317: 16,2605           01463                                    LUNAFLAG
000318: 16,2606           77745                           DLOAD
000319: 16,2607           01046                                    DSPTEM1
000320: 16,2610           02607                           STORE    TSIGHT
000321: 16,2611           43175                           VLOAD    SET
000322: 16,2612           02026                                    RLS
000323: 16,2613           00462                                    ERADFLAG
000324: 16,2614           14001                           STODL    0D
000325: 16,2615           02607                                    TSIGHT
000326: 16,2616           34007                           STCALL   6D
000327: 16,2617           55343                                    RP-TO-R
000328: 16,2620           77742                           VSR2
000329: 16,2621           16152                           STODL    ALPHAV
000330: 16,2622           02607                                    TSIGHT
000331: 16,2623           77624                           CALL
000332: 16,2624           26400                                    LAT-LONG
000333: 16,2625           77624                           CALL
000334: 16,2626           62365                                    LLASRD
000335: 16,2627           77776                           EXIT
000336: 16,2630           32602        LSDISP             CAF      V06N89*
000337: 16,2631           04676                           TC       BANKCALL
000338: 16,2632           20720                           CADR     GOFLASH
000339: 16,2633           04106                           TC       GOTOPOOH
000340: 16,2634           02636                           TC       +2
000341: 16,2635           02630                           TC       LSDISP
000342: 16,2636           06006                           TC       INTPRET
000343: 16,2637           77624                           CALL
000344: 16,2640           62374                                    LLASRDA
000345: 16,2641           45145                           DLOAD    CALL
000346: 16,2642           02607                                    TSIGHT
000347: 16,2643           26451                                    LALOTORV
000348: 16,2644           53575                           VLOAD    UNIT
000349: 16,2645           02152                                    ALPHAV
000350: 16,2646           14307                           STODL    XSMD
000351: 16,2647           02607                                    TSIGHT
000352: 16,2650           34041                           STCALL   TDEC1
000353: 16,2651           27101                                    CSMPREC
000354: 16,2652           47375                           VLOAD    VXV
000355: 16,2653           00001                                    RATT
000356: 16,2654           00007                                    VATT
000357: 16,2655           53435                           VXV      UNIT
000358: 16,2656           00307                                    XSMD
000359: 16,2657           00323                           STORE    ZSMD
000360: 16,2660           53435                           VXV      UNIT
000361: 16,2661           00307                                    XSMD
000362: 16,2662           34315                           STCALL   YSMD
000363: 16,2663           00300                                    QMAJ
000364: 14,2000                                           SETLOC   P50S1
000365: 14,2000                                           BANK
000366:
000367:                                                                                                  #  NAME-         AUTOMATIC OPTICS POSITIONING ROUTINE
000368:
000369:                                                                                                  #  FUNCTION-     (1) TO POINT THE STAR LOS OF THE OPTICS AT A STAR OR LANDMARK DEFINED BY THE PROGRAM OR BY DSKY INPUT.
000370:                                                                                                  #                (2) TO POINT THE STAR LOS OF THE OPTICS AT THE LEM DURING RENDEZVOUS TRACKING OPERATIONS.
000371:
000372:                                                                                                  #  CALLING SEQUENCE- CALL R52
000373:
000374:                                                                                                  #  INPUT-        1.  TARG1FLG AND TARG2FLG- PRESET BY CALLER
000375:                                                                                                  #                2.  RNDVZFLG AND TRACKFLG- PRESET BY CALLER
000376:                                                                                                  #                3.  STAR CODE- PRESET BY CALLER. ALSO INPUT THROUGH DSKY
000377:                                                                                                  #                4.  LAT, LONG AND ALT OF LANDMARK- INPUT THROUGH DSKY
000378:                                                                                                  #                5.  NO. OF MARKS (MARKINDX)- PRESET BY CALLER
000379:
000380:                                                                                                  #  OUTPUT-       DRIVE SHAFT AND TRUNNION CDUS
000381:
000382:                                                                                                  #  SUBROUTINES-  1.  FIXDELAY            7.  CLEANDSP
000383:                                                                                                  #                2.  GOPERF1             8.  GODSPR
000384:                                                                                                  #                3.  GOFLASH             9.  REFLASHR
000385:                                                                                                  #                4.  R53                 10. R52.2
000386:                                                                                                  #                5.  ALARM               11. R52.3
000387:                                                                                                  #                6.  SR52.1
000388:
000389: 14,2011                                           COUNT    15/R52
000390:
000391: 14,2011           43020        R52                STQ      CLEAR
000392: 14,2012           02576                                    SAVQR52
000393: 14,2013           04265                                    ADVTRK
000394: 14,2014           77776        R52VRB             EXIT
000395: 14,2015           00006                           EXTEND
000396: 14,2016           30036                           DCA      CDUT
000397: 14,2017           53161                           DXCH     DESOPTT
000398: 14,2020           06006                           TC       INTPRET
000399: 14,2021           43131                           SSP      CLEAR
000400: 14,2022           01304                                    OPTIND
000401: 14,2023           00000                                    0
000402: 14,2024           00271                                    R53FLAG
000403: 14,2025           77776                           EXIT
000404: 14,2026           06006        R52A               TC       INTPRET
000405: 14,2027           43014                           SET      BON
000406: 14,2030           00073                                    TRUNFLAG
000407: 14,2031           00705                                    TARG1FLG
000408: 14,2032           30112                                    R52H
000409: 14,2033           77414                           CLEAR    EXIT
000410: 14,2034           03660                                    TERMIFLG
000411: 14,2035           31314        R52C               CA       SWSAMPLE                              #  IS OPTICS MODE IN AGC
000412: 14,2036           00006                           EXTEND
000413: 14,2037           62140                           BZMF     R52M                                  #  MANUAL
000414: 14,2040           04676        R52D               TC       BANKCALL                              #  AGC
000415: 14,2041           26254                           CADR     SR52.1
000416: 14,2042           12170                           TCF      R52L                                  #  GR 90 DEGREES
000417: 14,2043           12133                           TCF      R52J                                  #  GR 50 DEGREES
000418: 14,2044           05562                           TC       UPFLAG                                #  LS 50 DEGREES
000419: 14,2045           00013                           ADRES    TRUNFLAG                              #  SET TRUNFLAG BIT 4 FLAG 0
000420: 14,2046           35022        R52JA              CAF      BIT10                                 #  IS THIS A LEM
000421: 14,2047           70075                           MASK     STATE      +1
000422: 14,2050           10000                           CCS      A
000423: 14,2051           02061                           TC       R52E                                  #  YES
000424: 14,2052           35026                           CAF      BIT6                                  #  NO, IS R53FLAG SET
000425: 14,2053           70074                           MASK     STATE
000426: 14,2054           10000                           CCS      A
000427: 14,2055           12061                           TCF      R52E                                  #  YES
000428: 14,2056           32160                           CAF      V06N92                                #  NO
000429: 14,2057           04676                           TC       BANKCALL
000430: 14,2060           20676                           CADR     GODSPR
000431: 14,2061           31314        R52E               CA       SWSAMPLE                              #  IS OSS IN CMC MODE
000432: 14,2062           00006                           EXTEND
000433: 14,2063           62074                           BZMF     R52F                                  #  NO
000434: 14,2064           40074                           CS       STATE                                 #  YES- IS TRUNFLAG SET
000435: 14,2065           75030                           MASK     BIT4
000436: 14,2066           10000                           CCS      A
000437: 14,2067           02072                           TC       +3                                    #  NO
000438: 14,2070           31775                           CA       PAC                                   #  YES
000439: 14,2071           55160                           TS       DESOPTT
000440: 14,2072           31773                           CA       SAC
000441: 14,2073           55161                           TS       DESOPTS
000442: 14,2074           35052        R52F               CAF      .5SEC                                 #  WAIT 1/2 SEC
000443: 14,2075           04676                           TC       BANKCALL
000444: 14,2076           01732                           CADR     DELAYJOB
000445: 14,2077           35022                           CAF      BIT10
000446: 14,2100           70075                           MASK     STATE      +1
000447: 14,2101           10000                           CCS      A
000448: 14,2102           12113                           TCF      R52HA                                 #  YES, LEM
000449: 14,2103           35015                           CAF      BIT15                                 #  NO
000450: 14,2104           70103                           MASK     STATE      +7                         #  IS TERMIFLG SET
000451: 14,2105           00006                           EXTEND
000452: 14,2106           12035                           BZF      R52C                                  #  NO
000453: 14,2107           06006        R52Q               TC       INTPRET                               #  YES
000454: 14,2110           77650                           GOTO
000455: 14,2111           02576                                    SAVQR52
000456: 14,2112           77776        R52H               EXIT                                           #  LEM
000457: 14,2113           04676        R52HA              TC       BANKCALL
000458: 14,2114           76570                           CADR     R61CSM
000459: 14,2115           30075                           CA       STATE      +1
000460: 14,2116           75027                           MASK     BIT5
000461: 14,2117           00006                           EXTEND                                         #  TRACKFLG
000462: 14,2120           12107                           BZF      R52Q
000463:
000464: 14,2121           40075                           CS       STATE      +1
000465: 14,2122           75025                           MASK     BIT7                                  #  UPDATFLG
000466: 14,2123           10000                           CCS      A
000467: 14,2124           12131                           TCF      R52SYNC
000468:
000469: 14,2125           30101        R52I               CA       STATE      +5
000470: 14,2126           75022                           MASK     BIT10
000471: 14,2127           10000                           CCS      A
000472: 14,2130           02040                           TC       R52D                                  #  PRFTRKAT = 1
000473: 14,2131           32204        R52SYNC            CAF      1.8SEC                                #  MAKE UP FOR LOST TIME
000474: 14,2132           12075                           TCF      R52F       +1
000475:
000476: 14,2133           05574        R52J               TC       DOWNFLAG                              #  CLEAR TRUNFLAG
000477: 14,2134           00013                           ADRES    TRUNFLAG                              #  BIT 4 FLAG 0
000478: 14,2135           05664                           TC       ALARM                                 #  SET 407 ALARM
000479: 14,2136           00407                           OCT      407
000480: 14,2137           02046                           TC       R52JA
000481: 14,2140           35026        R52M               CAF      BIT6                                  #  IS R53FLAG SET
000482: 14,2141           70074                           MASK     STATE
000483: 14,2142           10000                           CCS      A
000484: 14,2143           02074                           TC       R52F                                  #  YES
000485: 14,2144           00004                           INHINT                                         #  NO
000486: 14,2145           37661                           CAF      PRIO24
000487: 14,2146           05163                           TC       FINDVAC
000488: 14,2147  E5,1773                                  EBANK=   SAC
000489: 14,2147           02153 30065                     2CADR    R53JOB
000490:
000491: 14,2151           00003                           RELINT
000492: 14,2152           12074                           TCF      R52F
000493: 14,2153           06006        R53JOB             TC       INTPRET
000494: 14,2154           77624                           CALL
000495: 14,2155           31302                                    R53
000496: 14,2156           77776        ENDPLAC            EXIT                                           #  INTERPRETER RETURN TO ENDOFJOB (R22 USES)
000497: 14,2157           05233                           TC       ENDOFJOB
000498: 14,2160           01534        V06N92             VN       00692
000499: 14,2161           01531        V06N89A            VN       0689
000500: 14,2162           10464 12470  SHAXIS             2DEC     .5376381241 B-1
000501:
000502: 14,2164           00000 00000                     2DEC     0          B-28
000503:
000504: 14,2166           15373 11554                     2DEC     .8431766920 B-1
000505:
000506: 14,2170           35022        R52L               CAF      BIT10                                 #  IS THIS A LEM
000507: 14,2171           70075                           MASK     STATE      +1
000508: 14,2172           10000                           CCS      A
000509: 14,2173           02133                           TC       R52J                                  #  YES
000510: 14,2174           32203                           CAF      OCT404
000511: 14,2175           04676                           TC       BANKCALL
000512: 14,2176           21766                           CADR     PRIOLARM
000513: 14,2177           12205                           TCF      TERM52                                #  TERMINATE
000514: 14,2200           12074                           TCF      R52F                                  #  PROCEED
000515: 14,2201           12074                           TCF      R52F                                  #  NO PROVISION FOR NEW DATA
000516: 14,2202           15233                           TCF      ENDOFJOB
000517:
000518: 14,2203           00404        OCT404             OCT      404
000519: 14,2204           00264        1.8SEC             DEC      180        B-14
000520:
000521: 14,2205           05552        TERM52             TC       CLEARMRK
000522:
000523: 14,2206           04676                           TC       BANKCALL                              #  KILL MARK SYSTEM
000524: 14,2207           16063                           CADR     MKRELEAS
000525:
000526:
000527: 14,2210           35035                           CAF      ZERO
000528: 14,2211           55323                           TS       OPTCADR
000529:
000530: 14,2212           04676                           TC       BANKCALL                              #  CLEAR OUT EXTENDED VERBS
000531: 14,2213           20560                           CADR     KLEENEX
000532:
000533: 14,2214           04106                           TC       GOTOPOOH                              #  NOW GO TO POO
000534:
000535: 14,2215           43020        ADVORB             STQ      SET                                   #  SETS UP ADVANCED ORBIT TRACKING
000536: 14,2216           02576                                    SAVQR52
000537: 14,2217           04065                                    ADVTRK
000538: 14,2220           43014                           SET      SET
000539: 14,2221           01463                                    LUNAFLAG
000540: 14,2222           00462                                    ERADFLAG
000541: 14,2223           77650                           GOTO
000542: 14,2224           30014                                    R52VRB
000543:
000544:                                                                                                  #  NAME - S50 ALIAS LOCSAM
000545:                                                                                                  #  NAME- LOCSAM
000546:
000547:                                                                                                  #  FUNCTION - TO COMPUTE QUATITIGS LISTED BELOW, USED IN THE
000548:                                                                                                  #              IMU ALIGNMENT PROGRAMS
000549:
000550:                                                                                                  #        DEFINE:
000551:
000552:                                                                                                  #        RATT = POSITION VECTOR OF CM WRT PRIMARY BODY
000553:
000554:                                                                                                  #        VATT = VELOCITY VECTOR OF CM WRT PRIMARY BODY
000555:
000556:                                                                                                  #        RE = RADIUS OF EARTH
000557:
000558:                                                                                                  #        RM = RADIUS OF MOON
000559:
000560:                                                                                                  #        ECLIPOL = POLE OF ECLIPTIC SCALED BY TANGENTIAL VELOCITY OF EARTH
000561:                                                                                                  #                  WRT TO SUN OVER THE VELOCITY OF LIGHT
000562:
000563:                                                                                                  #        REM = POSITION OF MOON WRT EARTH
000564:
000565:                                                                                                  #        RES = POSITION OF SUN WRT EARTH
000566:
000567:                                                                                                  #        C = VELOCITY OF LIGHT
000568:
000569:                                                                                                  #                EARTH IS PRIMARY                        MOON IS PRIMARY
000570:                                                                                                  #                        -                                       -
000571:                                                                                                  #                VEARTH=-1(RATT)                         VEARTH=-1(REM+RATT)
000572:                                                                                                  #                        -                                       -
000573:                                                                                                  #                VMOON = 1(REM-RATT)                     VMOON =-1(RATT)
000574:                                                                                                  #                        -                                       -
000575:                                                                                                  #                VSUN  = 1(RES)                          VSUN  = 1(RES-REM)
000576:                                                                                                  #                              -1
000577:                                                                                                  #                CEARTH=COS(SIN  (RE/RATT)+5)            CEARTH=COS 5
000578:                                                                                                  #                                                                      -1
000579:                                                                                                  #                CMOON =COS 5                            CMOON =COS(SIN  CRM/RATT)+5)
000580:
000581:                                                                                                  #                CSUN  =COS 15                           CSUN  =COS 15
000582:
000583:                                                                                                  #                            VEL/C = VSUN X ECLIPOL + VATT/C
000584:
000585:                                                                                                  #  CALL  -       DLOAD   CALL
000586:                                                                                                  #                        DESIRED TIME
000587:                                                                                                  #                        LOCSAM
000588:
000589:                                                                                                  #  INPUTS -      MPAC = TIME
000590:
000591:                                                                                                  #  OUTPUTS-      VEARTH, VMOON, VSUN, CEARTH, CMOON, CSUN, VEL/C
000592:
000593:                                                                                                  #  SUBROUTINES-  LSPOS, CSMCONIC
000594:
000595:                                                                                                  #  DEBRIS  -     VAC AREA, SEE SUBROUTINES
000596:
000597: 14,2000                                           SETLOC   P50S1
000598: 14,2000                                           BANK
000599:
000600: 14,2225                                           COUNT*   $$/S50
000601:
000602: 14,2225  14,2225               LOCSAM             =        S50
000603: 14,2225           77620        S50                STQ
000604: 14,2226           00300                                    QMAJ
000605: 14,2227           36607                           STCALL   TSIGHT
000606: 14,2230           54110                                    LSPOS
000607: 14,2231           26752                           STOVL    VMOON
000608: 14,2232           00003                                    2D
000609: 14,2233           16744                           STODL    VSUN
000610: 14,2234           02607                                    TSIGHT
000611: 14,2235           34041                           STCALL   TDEC1
000612: 14,2236           27124                                    CSMCONIC
000613: 14,2237           61131                           SSP      TIX,2
000614: 14,2240           00052                                    S2
000615: 14,2241           00000                                    0
000616: 14,2242           30265                                    MOONCNTR
000617: 14,2243           52375        EARTCNTR           VLOAD    VSU
000618: 14,2244           02752                                    VMOON
000619: 14,2245           00001                                    RATT
000620: 14,2246           77656                           UNIT
000621: 14,2247           26752                           STOVL    VMOON
000622: 14,2250           00001                                    RATT
000623: 14,2251           57456                           UNIT     VCOMP
000624: 14,2252           16736                           STODL    VEARTH
000625: 14,2253           32250                                    RSUBE
000626: 14,2254           77624                           CALL
000627: 14,2255           30325                                    OCCOS
000628: 14,2256           14017                           STODL    CEARTH
000629: 14,2257           32266                                    CSS5
000630: 14,2260           24023                           STOVL    CMOON
000631: 14,2261           02744                                    VSUN
000632: 14,2262           77656                           UNIT
000633: 14,2263           36744                           STCALL   VSUN
000634: 14,2264           30312                                    ENDSAM
000635: 14,2265           40575        MOONCNTR           VLOAD    VSR8
000636: 14,2266           02752                                    VMOON
000637: 14,2267           51362                           VSR1     BVSU
000638: 14,2270           02744                                    VSUN
000639: 14,2271           77656                           UNIT
000640: 14,2272           26744                           STOVL    VSUN
000641: 14,2273           02752                                    VMOON
000642: 14,2274           53455                           VAD      UNIT
000643: 14,2275           00001                                    RATT
000644: 14,2276           77676                           VCOMP
000645: 14,2277           26736                           STOVL    VEARTH
000646:
000647: 14,2300           00001                                    RATT
000648: 14,2301           57456                           UNIT     VCOMP
000649: 14,2302           16752                           STODL    VMOON
000650: 14,2303           32246                                    RSUBM
000651: 14,2304           77624                           CALL
000652: 14,2305           30325                                    OCCOS
000653: 14,2306           14023                           STODL    CMOON
000654: 14,2307           32266                                    CSS5
000655: 14,2310           24017                           STOVL    CEARTH
000656: 14,2311           02744                                    VSUN
000657: 14,2312           77635        ENDSAM             VXV
000658: 14,2313           32256                                    ECLIPOL
000659: 14,2314           27474                           STOVL    VEL/C
000660: 14,2315           00007                                    VATT
000661: 14,2316           53361                           VXSC     VAD
000662: 14,2317           32254                                    1/C
000663: 14,2320           03474                                    VEL/C
000664: 14,2321           17474                           STODL    VEL/C
000665: 14,2322           32270                                    CSSUN
000666: 14,2323           34021                           STCALL   CSUN
000667: 14,2324           00300                                    QMAJ
000668: 14,2325           70471        OCCOS              DDV      SR1
000669: 14,2326           00045                                    36D
000670: 14,2327           43336                           ASIN     DAD
000671: 14,2330           32252                                    5DEGREES
000672: 14,2331           70546                           COS      SR1
000673: 14,2332           77616                           RVQ
000674: 15,2000                                           SETLOC   P50S
000675: 15,2000                                           BANK
000676: 15,2245           00065 01265  RSUBM              2DEC     1738090    B-29                       #  MOON RADIUS IN METERS
000677:
000678: 15,2247           00302 24533  RSUBE              2DEC     6378166    B-29
000679:
000680: 15,2251           00343 21616  5DEGREES           2DEC     .013888889                            #  SCALED IN REVS
000681:
000682: 15,2253           00000 13143  1/C                2DEC     .000042699 B-1                        #  *
000683:
000684: 15,2255           00000 00000  ECLIPOL            2DEC     0          B-28                       #  *
000685:
000686: 15,2257           77777 53231                     2DEC     -.00007896 B-1                        #  *
000687:
000688: 15,2261           00001 17570                     2DEC     .00018209  B-1                        #  *             * FOR USE BY CSM ONLY
000689:
000690: 15,2263           00001 16700  TSIGHT1            2DEC     24000      B-28
000691:
000692: 15,2265                        CEARTH             =        14D
000693: 15,2265                        CSUN               =        16D
000694: 15,2265                        CMOON              =        18D
000695: 15,2265           07760 14473  CSS5               2DEC     .2490475                              #  (COS 5)/4
000696: 15,2267           07564 15042  CSSUN              2DEC     .24148                                #  COS 15  /4
000697:
000698:                                                                                                  #  PROGRAM NAME - PICAPAR        DATE DEC 20 66
000699:                                                                                                  #  MOD 1                         LOG SECTION P51-P53
000700:                                                                                                  #                                ASSEMBLY  SUNDISK  REV40
000701:                                                                                                  #  BY KEN VINCENT
000702:
000703:                                                                                                  #  FUNCTION
000704:                                                                                                  #        THIS PROGRAM READ THE IMU-CDUS AND COMPUTES THE VEHICLE ORIENTATION
000705:                                                                                                  #        WITH RESPECT TO INERTIAL SPACE.  IT THEN COMPUTES THE SHAFT AXIS (SAX)
000706:                                                                                                  #        WITH RESPECT TO REFERENCE INERTIAL.  EACH STAR IN THE CATALOG IS TESTED
000707:                                                                                                  #        TO DETERMINE IF IT IS OCCULTED BY EITHER THE EARTH, SUN OR MOON.  IF A
000708:                                                                                                  #        STAR IS NOT OCCULTED THEN IT IS PAIRED WITH ALL STAR OF LOWER INDEX.
000709:                                                                                                  #        THE PAIRED STAR IS TESTED FOR OCCULTATION.  PAIRS OF STARS THAT PASS
000710:                                                                                                  #        THE OCCULTATION TESTS ARE TESTED FOR GOOD SEPARATION.  A PAIR OF STARS
000711:                                                                                                  #        HAVE GOOD SEPARATION IF THE ANGLE BETWEEN THEM IS LESS THAN 66 DEGREES
000712:                                                                                                  #        AND MORE THAN 40 DEGREES.  THOSE PAIRS OF STARS WITH GOOD SEPARATION
000713:                                                                                                  #        ARE THEN TESTED TO SEE IF THEY LIE IN CURRENT FIELD OF VIEW.  (WITHIN
000714:                                                                                                  #        33 DEGREES OF SAX).  THE PAIR WITH MAXIMUM SEPARATION IS CHOSEN FROM
000715:                                                                                                  #        THOSE WITH GOOD SEPARATION, AND IN FIELD OF VIEW.
000716:
000717:                                                                                                  #  CALLING SEQUENCE
000718:                                                                                                  #        L       TC      BANKCALL
000719:                                                                                                  #        L+1     CADR    PICAPAR
000720:                                                                                                  #        L+2     ERROR RETURN - NO STARS IN FIELD OF VIEW
000721:                                                                                                  #        L+3     NORMAL RETURN
000722:
000723:                                                                                                  #  OUTPUT
000724:                                                                                                  #        BESTI, BESTJ - SINGLE PREC, INTEGERS, STAR NUMBERS TIMES 6
000725:                                                                                                  #        VFLAG - FLAG BIT SET IMPLIES NO STARS IN FIELD OF VIEW
000726:
000727:                                                                                                  #  INITIALIZATION
000728:                                                                                                  #        1)      A CALL TO LOCSAM MUST BE MADE
000729:                                                                                                  #        2)      VEARTH = -UNIT(R) WHERE R HAS BEEN UPDATED TOO APPROXIMATE TIME OF
000730:                                                                                                  #                SIGHTINGS.
000731:
000732:                                                                                                  #  DEBRIS
000733:                                                                                                  #        WORK AREA
000734:                                                                                                  #        X,Y,ZNB
000735:                                                                                                  #        SINCDU, COSCDU
000736:                                                                                                  #        STARAD - STAR +5
000737:
000738: 15,2271                                           COUNT    14/PICAP
000739:
000740: 14,2000                                           SETLOC   P50S1
000741: 14,2000                                           BANK
000742: 14,2333           04725        PICAPAR            TC       MAKECADR
000743: 14,2334           55777                           TS       QMIN
000744: 14,2335           06006                           TC       INTPRET
000745: 14,2336           77624                           CALL
000746: 14,2337           47501                                    CDUTRIG
000747: 14,2340           77624                           CALL
000748: 14,2341           34664                                    CALCSMSC
000749: 14,2342           77601                           SETPD
000750: 14,2343           00001                                    0
000751: 14,2344           71214                           SET      DLOAD                                 #  VFLAG = 1
000752: 14,2345           01465                                    VFLAG
000753: 14,2346           11566                                    DPZERO
000754: 14,2347           24303                           STOVL    BESTI
000755: 14,2350           02714                                    XNB
000756: 14,2351           63361                           VXSC     PDVL
000757: 14,2352           30511                                    SIN33
000758: 14,2353           02730                                    ZNB
000759: 14,2354           74370                           AXT,1    VXSC
000760: 14,2355           00344                                    228D                                  #  X1 = 37 X 6 + 6
000761: 14,2356           30513                                    COS33
000762: 14,2357           77655                           VAD
000763: 14,2360           53505                           VXM      UNIT
000764: 14,2361           01736                                    REFSMMAT
000765: 14,2362           02760                           STORE    SAX                                   #  SAX = SHAFT AXIS
000766: 14,2363           66331                           SSP      SSP                                   #  S1 = S2 = 6
000767: 14,2364           00051                                    S1
000768: 14,2365           00006                                    6
000769: 14,2366           00052                                    S2
000770: 14,2367           00006                                    6
000771: 14,2370           52100        PIC1               TIX,1    GOTO                                  #  MAJOR STAR
000772: 14,2371           30373                                    PIC2
000773: 14,2372           30522                                    PICEND
000774: 14,2373           45173        PIC2               VLOAD*   CALL
000775: 14,2374           31763                                    CATLOG,1
000776: 14,2375           30466                                    OCCULT
000777: 14,2376           73014                           BON      LXA,2
000778: 14,2377           01710                                    CULTFLAG
000779: 14,2400           30370                                    PIC1
000780: 14,2401           00046                                    X1
000781: 14,2402           52104        PIC3               TIX,2    GOTO
000782: 14,2403           30405                                    PIC4
000783: 14,2404           30370                                    PIC1
000784: 14,2405           45173        PIC4               VLOAD*   CALL
000785: 14,2406           46014                                    CATLOG,2
000786: 14,2407           30466                                    OCCULT
000787: 14,2410           76614                           BON      VLOAD*
000788: 14,2411           01710                                    CULTFLAG
000789: 14,2412           30402                                    PIC3
000790: 14,2413           31763                                    CATLOG,1
000791: 14,2414           45237                           DOT*     DSU
000792: 14,2415           46014                                    CATLOG,2
000793: 14,2416           30515                                    CSS66                                 #  SEPERATION LESS THAN 66 DEG.
000794: 14,2417           43240                           BMN      DAD
000795: 14,2420           30402                                    PIC3
000796: 14,2421           30517                                    CSS6640                               #  SEPERATION MORE THAN 40 DEG.
000797: 14,2422           77644                           BPL
000798: 14,2423           30402                                    PIC3
000799: 14,2424           50373                           VLOAD*   DOT
000800: 14,2425           31763                                    CATLOG,1
000801: 14,2426           02760                                    SAX
000802: 14,2427           50025                           DSU      BMN                                   #  MAJOR STAR IN CONE
000803: 14,2430           30521                                    CSS33
000804: 14,2431           30370                                    PIC1
000805: 14,2432           50373                           VLOAD*   DOT
000806: 14,2433           46014                                    CATLOG,2
000807: 14,2434           02760                                    SAX
000808: 14,2435           51025                           DSU      BPL
000809: 14,2436           30521                                    CSS33
000810: 14,2437           30442                                    STRATGY
000811: 14,2440           77650                           GOTO
000812: 14,2441           30402                                    PIC3
000813: 14,2442           77614        STRATGY            BONCLR
000814: 14,2443           01605                                    VFLAG
000815: 14,2444           30461                                    NEWPAR
000816: 14,2445           65120                           XCHX,1   XCHX,2
000817: 14,2446           00302                                    BESTI
000818: 14,2447           00303                                    BESTJ
000819: 14,2450           47773        STRAT              VLOAD*   DOT*
000820: 14,2451           31763                                    CATLOG,1
000821: 14,2452           46014                                    CATLOG,2
000822: 14,2453           43006                           PUSH     BOFINV
000823: 14,2454           01545                                    VFLAG
000824: 14,2455           30445                                    STRAT      -3
000825: 14,2456           45345                           DLOAD    DSU
000826: 14,2457           77644                           BPL
000827: 14,2460           30402                                    PIC3
000828: 14,2461           67130        NEWPAR             SXA,1    SXA,2
000829: 14,2462           00302                                    BESTI
000830: 14,2463           00303                                    BESTJ
000831: 14,2464           77650                           GOTO
000832: 14,2465           30402                                    PIC3
000833: 14,2466           51321        OCCULT             MXV      BVSU
000834: 14,2467           02736                                    CULTRIX
000835: 14,2470           00017                                    CSS
000836: 14,2471           77654                           BZE
000837: 14,2472           30505                                    CULTED
000838: 14,2473           75240                           BMN      SIGN
000839: 14,2474           30505                                    CULTED
000840: 14,2475           00160                                    MPAC       +3
000841: 14,2476           75240                           BMN      SIGN
000842: 14,2477           30505                                    CULTED
000843: 14,2500           00162                                    MPAC       +5
000844: 14,2501           43040                           BMN      CLRGO
000845: 14,2502           30505                                    CULTED
000846: 14,2503           01630                                    CULTFLAG
000847: 14,2504           00052                                    QPRET
000848: 14,2505           77614        CULTED             SETGO
000849: 14,2506           01430                                    CULTFLAG
000850: 14,2507           00052                                    QPRET
000851: 14,2510  0000016               CSS                =        CEARTH
000852: 14,2510           21150 25157  SIN33              2DEC     .5376381241
000853:
000854: 14,2512           32766 22713  COS33              2DEC     .8431756920
000855:
000856: 14,2514           01736 35137  CSS66              2DEC     .060480472                            #  (COS76)/4
000857:
000858: 14,2516           73003 65403  CSS6640            2DEC     -.15602587                            #  (COS76 - COS30)/4
000859:
000860: 14,2520           06233 26112  CSS33              2DEC     .197002688                            #  COS(1/2(76))/4
000861:
000862: 14,2522           77414        PICEND             BOFF     EXIT
000863: 14,2523           01745                                    VFLAG
000864: 14,2524           30526                                    PICGXT
000865: 14,2525           02530                           TC       PICBXT
000866: 14,2526           77776        PICGXT             EXIT
000867: 14,2527           25777                           INCR     QMIN
000868: 14,2530           31777        PICBXT             CA       QMIN
000869: 14,2531           04702                           TC       SWCALL
000870:                                                                                                  # V1             =       12D
000871:
000872:                                                                                                  #  NAME - R51    FINE ALIGN
000873:                                                                                                  #  FUNCTION - TO ALIGN THE STABLE MEMBER TO REFSMMAT
000874:                                                                                                  #  CALLING SEQ - CALL R51
000875:                                                                                                  #  INPUT - BESTI, BESTJ (PAIR OF STAR NO)
000876:                                                                                                  #  OUTPUT - GYRO TORQUE PULSES
000877:                                                                                                  #  SUBROUTINES - R52, R54, R55 (SXTNB, NBSM, AXISGEN
000878:
000879: 14,2532                                           COUNT    14/R51
000880:
000881: 14,2532           77776        R51                EXIT
000882: 14,2533           35033                           CAF      BIT1
000883: 14,2534           54304                           TS       STARIND
000884: 14,2535           54301                           TS       MARKINDX
000885: 14,2536           06006        R51.2              TC       INTPRET
000886: 14,2537           43014        R51.3              CLEAR    CLEAR
000887: 14,2540           00666                                    TARG2FLG
000888: 14,2541           00665                                    TARG1FLG
000889: 14,2542           77776                           EXIT
000890: 14,2543           05426                           TC       PHASCHNG
000891: 14,2544           05024                           OCT      05024                                 #  RESTART GR 4 FOR R52-R53
000892: 14,2545           13000                           OCT      13000
000893: 14,2546           50304                           INDEX    STARIND
000894: 14,2547           30302                           CA       BESTI
000895: 14,2550           00006                           EXTEND
000896: 14,2551           72713                           MP       1/6TH
000897: 14,2552           54735                           TS       STARCODE
000898: 14,2553           32712        R51DSP             CAF      V01N70
000899: 14,2554           04676                           TC       BANKCALL
000900: 14,2555           21057                           CADR     GOFLASHR
000901: 14,2556           04106                           TC       GOTOPOOH
000902: 14,2557           02564                           TC       +5
000903: 14,2560           02553                           TC       -5
000904: 14,2561           36211                           CAF      SIX
000905: 14,2562           05542                           TC       BLANKET
000906: 14,2563           15233                           TCF      ENDOFJOB
000907: 14,2564           03370                           TC       CHKSCODE
000908: 14,2565           04400                           TC       FALTON
000909: 14,2566           02553                           TC       R51DSP
000910: 14,2567           06006                           TC       INTPRET
000911: 14,2570           45034                           RTB      CALL
000912: 14,2571           45510                                    LOADTIME
000913: 14,2572           32340                                    PLANET
000914: 14,2573           72131                           SSP      LXA,1
000915: 14,2574           00051                                    S1
000916: 14,2575           00000                                    0
000917: 14,2576           00304                                    STARIND
000918: 14,2577           77700                           TIX,1
000919: 14,2600           30603                                    R51ST
000920: 14,2601           36617                           STCALL   STARSAV2                              #  2ND STAR
000921: 14,2602           30604                                    R51ST      +1
000922: 14,2603           02611        R51ST              STORE    STARSAV1                              #  1ST STAR
000923: 14,2604           77776                           EXIT
000924: 14,2605           41011                           CS       MODREG                                #  IS THIS P54
000925: 14,2606           62711                           AD       OCT66
000926: 14,2607           00006                           EXTEND
000927: 14,2610           12704                           BZF      R51B                                  #  YES
000928: 14,2611           06006                           TC       INTPRET
000929: 14,2612           77624                           CALL
000930: 14,2613           30011                                    R52                                   #  AOP WILL MAKE CALLS TO SIGHTING
000931: 14,2614           77624        R51A               CALL                                           #  COMPUTE LOS IN SM FROM MARK DATA
000932: 14,2615           36060                                    SXTSM
000933: 14,2616           02617                           STORE    STARSAV2
000934: 14,2617           77776                           EXIT
000935: 14,2620           04676                           TC       BANKCALL
000936: 14,2621           16063                           CADR     MKRELEAS
000937: 14,2622           06006                           TC       INTPRET
000938: 14,2623           45145                           DLOAD    CALL
000939: 14,2624           02607                                    TSIGHT
000940: 14,2625           32340                                    PLANET
000941: 14,2626           77776                           EXIT
000942: 14,2627           10304                           CCS      STARIND
000943: 14,2630           02671                           TC       R51.4
000944: 14,2631           06006                           TC       INTPRET
000945: 14,2632           53521                           MXV      UNIT
000946: 14,2633           01736                                    REFSMMAT
000947: 14,2634           02736                           STORE    STARAD
000948: 14,2635           77775                           VLOAD
000949: 14,2636           02617                                    STARSAV2
000950: 14,2637           24007                           STOVL    6D
000951: 14,2640           02611                                    STARSAV1
000952: 14,2641           24015                           STOVL    12D
000953: 14,2642           02601                                    PLANVEC
000954: 14,2643           36744                           STCALL   STARAD     +6
000955: 14,2644           30714                                    R54                                   #  STAR DATA TEST
000956: 14,2645           45014                           BOFF     CALL
000957: 14,2646           00354                                    FREEFLAG
000958: 14,2647           30655                                    R51K
000959: 14,2650           47403                                    AXISGEN
000960: 14,2651           77624                           CALL
000961: 14,2652           32271                                    R55                                   #  GYRO TORQUE
000962: 14,2653           77614                           CLEAR
000963: 14,2654           01273                                    PFRATFLG
000964: 14,2655           77776        R51K               EXIT
000965: 14,2656           35775                           CAF      OCT14
000966: 14,2657           04676                           TC       BANKCALL
000967: 14,2660           21045                           CADR     GOPERF1
000968: 14,2661           04106                           TC       GOTOPOOH
000969: 14,2662           02664                           TC       +2                                    #  V33
000970: 14,2663           02666                           TC       +3
000971: 14,2664           04676                           TC       BANKCALL
000972: 14,2665           32120                           CADR     P52C
000973: 14,2666           06006                           TC       INTPRET
000974: 14,2667           77650                           GOTO
000975: 14,2670           32145                                    ENDP50S
000976: 14,2671           06006        R51.4              TC       INTPRET
000977: 14,2672           53521                           MXV      UNIT
000978: 14,2673           01736                                    REFSMMAT
000979: 14,2674           26601                           STOVL    PLANVEC
000980: 14,2675           02617                                    STARSAV2
000981: 14,2676           02611                           STORE    STARSAV1
000982: 14,2677           77731                           SSP
000983: 14,2700           00305                                    STARIND
000984: 14,2701           00000                                    0
000985: 14,2702           77650                           GOTO
000986: 14,2703           30537                                    R51.3
000987: 14,2704           06006        R51B               TC       INTPRET
000988: 14,2705           77624                           CALL
000989: 14,2706           36114                                    R56
000990: 14,2707           77650                           GOTO
000991: 14,2710           30614                                    R51A
000992: 14,2711           00066        OCT66              OCT      00066
000993: 14,2712           00306        V01N70             VN       0170
000994: 14,2713           05253        1/6TH              DEC      .1666667
000995:
000996:                                                                                                  #  NAME-R55      GYRO TORQUE
000997:                                                                                                  #  FUNCTION - COMPUTE AND SEND GYRO PULSES
000998:                                                                                                  #  CALLING SEQ - CALL R55
000999:                                                                                                  #  INPUT - X,Y,ZDC - REFSMMAT WRT PRESENT STABLE MEMBER
001000:                                                                                                  #  OUTPUT - GYRO PULSES
001001:                                                                                                  #  SUBROUTINES - CALCGTA, GOFLASH, GODSPR, IMUFINE, IMUPULSE, GOPERF1
001002:
001003: 15,2000                                           SETLOC   P50S
001004: 15,2000                                           BANK
001005: 15,2271                                           COUNT*   $$/R55
001006: 15,2271           77620        R55                STQ
001007: 15,2272           02777                                    QMIN
001008: 15,2273           77624                           CALL
001009: 15,2274           47207                                    CALCGTA
001010: 15,2275           77776        PULSEM             EXIT
001011: 15,2276           32322        R55.1              CAF      V06N93
001012: 15,2277           04676                           TC       BANKCALL
001013: 15,2300           20720                           CADR     GOFLASH
001014: 15,2301           04106                           TC       GOTOPOOH
001015: 15,2302           02304                           TC       R55.2
001016: 15,2303           02317                           TC       R55RET
001017: 15,2304           05426        R55.2              TC       PHASCHNG
001018: 15,2305           00314                           OCT      00314
001019: 15,2306           32323                           CA       R55CDR
001020: 15,2307           04676                           TC       BANKCALL
001021: 15,2310           17206                           CADR     IMUPULSE
001022: 15,2311           04676                           TC       BANKCALL
001023: 15,2312           17577                           CADR     IMUSTALL
001024: 15,2313           05763                           TC       CURTAINS
001025: 15,2314           05426                           TC       PHASCHNG
001026: 15,2315           05024                           OCT      05024
001027: 15,2316           13000                           OCT      13000
001028: 15,2317           06006        R55RET             TC       INTPRET
001029: 15,2320           77650                           GOTO
001030: 15,2321           02777                                    QMIN
001031: 15,2322           01535        V06N93             VN       0693
001032: 15,2323           02757        R55CDR             ECADR    OGC
001033: 15,2324  14,2714               R54                =        CHKSDATA
001034:
001035:                                                                                                  #  ROUTINE NAME - CHKSDATA               DATE - JAN 9, 1967
001036:                                                                                                  #  MOD NO - 0                            LOG SECTION - P51-P53
001037:                                                                                                  #  MODIFICATION BY - LONSKE              ASSEMBLY -
001038:
001039:                                                                                                  #  FUNCTIONAL DESCRIPTION - CHECKS THE VALIDITY OF A PAIR OF STAR SIGHTINGS.  WHEN A PAIR OF STAR SIGHTINGS ARE MADE
001040:                                                                                                  #  BY THE ASTRONAUT THIS ROUTINE OPERATES AND CHECKS THE OBSERVED SIGHTINGS AGAINST STORED STAR VECTORS IN THE
001041:                                                                                                  #  COMPUTER TO INSURE A PROPER SIGHTING WAS MADE.  THE FOLLOWING COMPUTATIONS ARE PERFORMED_
001042:                                                                                                  #        OS1     =       OBSERVED STAR 1 VECTOR
001043:                                                                                                  #        OS2     =       OBSERVED STAR 2 VECTOR
001044:                                                                                                  #        SS1     =       STORED STAR 1 VECTOR
001045:                                                                                                  #        SS2     =       STORED STAR 2 VECTOR
001046:                                                                                                  #         A1     =       ARCCOS(OS1 - OS2)
001047:                                                                                                  #         A2     =       ARCCOS(SS1 - SS2)
001048:                                                                                                  #          A     =       ABS(2(A1 - A2))
001049:
001050:                                                                                                  #  THE ANGULAR DIFFERENCE IS DISPLAYED FOR ASTRONAUT ACCEPTENCE
001051:
001052:                                                                                                  #  EXIT MODE     1. FREEFLAG SET IMPLIES ASTRONAUT WANTS TO PROCEED
001053:                                                                                                  #                2. FREEFLAG RESET IMPLIES ASTRONAUT WANTS TO RECYCLE             ERANCE)
001054:
001055:                                                                                                  #  OUTPUT -      1. VERB 6,NOUN 3 - DISPLAYS ANGULAR DIFFERENCE BETWEEN 2 SETS OF STARS.
001056:                                                                                                  #                2. STAR VECTORS FROM STAR CATALOG ARE LEFT IN 6D AND 12D.
001057:
001058:                                                                                                  #  ERASABLE INITIALIZATION REQUIRED -
001059:                                                                                                  #                1. MARK VECTORS ARE STORED IN STARAD AND STARAD +6.
001060:                                                                                                  #                2. CATALOG VECTORS ARE STORED IN 6D AND 12D.
001061:
001062:                                                                                                  #  DEBRIS -
001063:
001064: 14,2000                                           SETLOC   P50S1
001065: 14,2000                                           BANK
001066: 14,2714                                           COUNT*   $$/R50
001067: 14,2714           43020        CHKSDATA           STQ      SET
001068: 14,2715           02777                                    QMIN
001069: 14,2716           00074                                    FREEFLAG
001070: 14,2717           77760        CHKSAB             AXC,1                                          #  SET X1 TO STORE EPHEMERIS DATA
001071: 14,2720           02735                                    STARAD
001072:
001073: 14,2721           47773        CHKSB              VLOAD*   DOT*                                  #  CAL. ANGLE THETA
001074: 14,2722           00001                                    0,1
001075: 14,2723           00007                                    6,1
001076: 14,2724           65552                           SL1      ACOS
001077: 14,2725           00025                           STORE    THETA
001078: 14,2726           43014                           BOFF     INVERT                                #  BRANCH TO CHKSD IF THIS IS 2ND PASS
001079: 14,2727           00354                                    FREEFLAG
001080: 14,2730           30740                                    CHKSD
001081: 14,2731           00174                                    FREEFLAG                              #  CLEAR FREEFLAG
001082: 14,2732           71360                           AXC,1    DLOAD                                 #  SET X1 TO MARK ANGLES
001083: 14,2733           00006                                    6D
001084: 14,2734           00025                                    THETA
001085: 14,2735           00023                           STORE    18D
001086: 14,2736           77650                           GOTO
001087: 14,2737           30721                                    CHKSB                                 #  RETURN TO CAL. 2ND ANGLE
001088: 14,2740           45345        CHKSD              DLOAD    DSU
001089: 14,2741           00025                                    THETA                                 #  COMPUTE POS DIFF
001090: 14,2742           00023                                    18D
001091: 14,2743           47046                           ABS      RTB
001092: 14,2744           45544                                    SGNAGREE
001093: 14,2745           01046                           STORE    NORMTEM1
001094: 14,2746           77414                           SET      EXIT
001095: 14,2747           00074                                    FREEFLAG
001096: 14,2750           35035                           CAF      ZERO
001097: 14,2751           04676                           TC       BANKCALL
001098: 14,2752           20703                           CADR     CLEANDSP
001099:
001100: 14,2753           32767                           CAF      VB6N5
001101: 14,2754           04676                           TC       BANKCALL
001102: 14,2755           20720                           CADR     GOFLASH
001103: 14,2756           14106                           TCF      GOTOPOOH
001104: 14,2757           02764                           TC       CHKSDA                                #  PROCEED
001105: 14,2760           06006                           TC       INTPRET
001106: 14,2761           52014                           CLEAR    GOTO
001107: 14,2762           00274                                    FREEFLAG
001108: 14,2763           02777                                    QMIN
001109: 14,2764           06006        CHKSDA             TC       INTPRET
001110: 14,2765           77650                           GOTO
001111: 14,2766           02777                                    QMIN
001112: 14,2767           01405        VB6N5              VN       605
001113:
001114:                                                                                                  #  NAME - CAL53A
001115:                                                                                                  #  NAME - CAL53A
001116:                                                                                                  #  FUNCTION - COARSE ALIGN THE IMU, IF NECESSARY.
001117:                                                                                                  #  CALLING SEQUENCE - CALL CAL53A
001118:                                                                                                  #  INPUT - PRESENT GIMBAL ANGLES - CDUX, CDUY, CDUZ
001119:                                                                                                  #           DESIRED GIMBAL ANGLES - THETAD,+1,+2
001120:                                                                                                  #  OUTPUT - THE IMU COORDINATES ARE STORED IN REFSMMAT
001121:                                                                                                  #  SUBROUTINES USED - 1.IMUCOARS  2.IMUSTALL  3.CURTAINS
001122:
001123: 14,2770                                           COUNT    14/R50
001124:
001125: 14,2770           77624        CAL53A             CALL
001126: 14,2771           22260                                    S52.2                                 #  MAKE FINAL COMP OF GIMBAL ANGLES
001127: 14,2772           66234                           RTB      SSP
001128: 14,2773           32324                                    RDCDUS                                #  READ CDUS
001129: 14,2774           00051                                    S1
001130: 14,2775           00001                                    1
001131: 14,2776           40370                           AXT,1    SETPD
001132: 14,2777           00003                                    3
001133: 14,3000           00005                                    4
001134: 14,3001           70543        CALOOP             DLOAD*   SR1
001135: 14,3002           01161                                    THETAD     +3D,1
001136: 14,3003           70523                           PDDL*    SR1
001137: 14,3004           00005                                    4,1
001138: 14,3005           51425                           DSU      ABS
001139: 14,3006           45206                           PUSH     DSU
001140: 14,3007           31055                                    DEGREE1
001141: 14,3010           71240                           BMN      DLOAD
001142: 14,3011           31031                                    CALOOP1
001143: 14,3012           51025                           DSU      BPL
001144: 14,3013           31056                                    DEG359
001145: 14,3014           31031                                    CALOOP1
001146: 14,3015           77776        COARFINE           EXIT
001147: 14,3016           05426                           TC       PHASCHNG
001148: 14,3017           04024                           OCT      04024
001149: 14,3020           03256                           TC       COARSUB                               #  PERFORM ALIGNMENT
001150: 14,3021           06006                           TC       INTPRET
001151: 14,3022           77234                           RTB      VLOAD
001152: 14,3023           31253                                    SET1/PDT
001153: 14,3024           11566                                    ZEROVEC
001154: 14,3025           01472                           STORE    GCOMP
001155: 14,3026           52014                           SET      GOTO
001156: 14,3027           01060                                    DRIFTFLG
001157: 14,3030           31033                                    FINEONLY
001158: 14,3031           77700        CALOOP1            TIX,1
001159: 14,3032           31001                                    CALOOP
001160: 14,3033           75160        FINEONLY           AXC,1    AXC,2
001161: 14,3034           02671                                    XSM
001162: 14,3035           01735                                    REFSMMAT
001163: 14,3036           77624                           CALL
001164: 14,3037           31042                                    MATMOVE
001165: 14,3040           77650                           GOTO
001166: 14,3041           32116                                    CAL53RET
001167: 14,3042           77773        MATMOVE            VLOAD*                                         #  TRANSFER MATRIX
001168: 14,3043           00001                                    0,1
001169: 14,3044           10001                           STORE    0,2
001170: 14,3045           77773                           VLOAD*
001171: 14,3046           00007                                    6D,1
001172: 14,3047           10007                           STORE    6D,2
001173: 14,3050           77773                           VLOAD*
001174: 14,3051           00015                                    12D,1
001175: 14,3052           10015                           STORE    12D,2
001176: 14,3053           77616                           RVQ
001177: 14,3054           00056        DEGREE1            DEC      46         B-14
001178: 14,3055           37722        DEG359             DEC      16338      B-14
001179: 15,2000                                           SETLOC   P50S
001180: 15,2000                                           BANK
001181: 15,2324           00004        RDCDUS             INHINT                                         #  READ CDUS
001182: 15,2325           30032                           CA       CDUX
001183: 15,2326           50120                           INDEX    FIXLOC
001184: 15,2327           54001                           TS       1
001185: 15,2330           30033                           CA       CDUY
001186: 15,2331           50120                           INDEX    FIXLOC
001187: 15,2332           54002                           TS       2
001188: 15,2333           30034                           CA       CDUZ
001189: 15,2334           50120                           INDEX    FIXLOC
001190: 15,2335           54003                           TS       3
001191: 15,2336           00003                           RELINT
001192: 15,2337           06030                           TC       DANZIG                                #                                                                        +
001193:
001194:
001195:                                                                                                  #  NAME - GIMB
001196:
001197:                                                                                                  #  FUNCTION - DETERMINE AND COMPUTE THE DESIRED GIMBAL ANGLES TO BE USED         FOR COARSE ALIGNMENT.
001198:
001199:                                                                                                  #  CALLING SEQUENCE - CALL GIMB
001200:
001201:                                                                                                  #  INPUT - DESIRED IMU INERTIAL ORIENTATION VECTORS-XSMD, YSMD, ZSMD
001202:
001203:                                                                                                  #  OUTPUT -GIMBAL ANGLES LEFT IN THETAD, +1, +2                         +
001204:
001205:                                                                                                  #  SUBROUTINES USED - 1.CDUTRIG 2.CALCSMSC 3.CALCGA
001206:
001207: 16,2000                                           SETLOC   P50S2
001208: 16,2000                                           BANK
001209: 16,2664                                           COUNT    14/INFLT
001210:
001211: 16,2664           41345        CALCSMSC           DLOAD    DMP
001212: 16,2665           00737                                    SINCDUY
001213: 16,2666           00747                                    COSCDUZ
001214: 16,2667           77676                           DCOMP
001215: 16,2670           70525                           PDDL     SR1
001216: 16,2671           00741                                    SINCDUZ
001217: 16,2672           41325                           PDDL     DMP
001218: 16,2673           00745                                    COSCDUY
001219: 16,2674           00747                                    COSCDUZ
001220: 16,2675           76466                           VDEF     VSL1
001221: 16,2676           02714                           STORE    XNB
001222: 16,2677           41345                           DLOAD    DMP
001223: 16,2700           00743                                    SINCDUX
001224: 16,2701           00741                                    SINCDUZ
001225: 16,2702           77752                           SL1
001226: 16,2703           00033                           STORE    26D
001227: 16,2704           77605                           DMP
001228: 16,2705           00737                                    SINCDUY
001229: 16,2706           41325                           PDDL     DMP
001230: 16,2707           00751                                    COSCDUX
001231: 16,2710           00745                                    COSCDUY
001232: 16,2711           77625                           DSU
001233: 16,2712           41325                           PDDL     DMP
001234: 16,2713           00743                                    SINCDUX
001235: 16,2714           00747                                    COSCDUZ
001236: 16,2715           77676                           DCOMP
001237: 16,2716           41325                           PDDL     DMP
001238: 16,2717           00751                                    COSCDUX
001239: 16,2720           00737                                    SINCDUY
001240: 16,2721           41325                           PDDL     DMP
001241: 16,2722           00745                                    COSCDUY
001242: 16,2723           00033                                    26D
001243: 16,2724           55415                           DAD      VDEF
001244: 16,2725           77772                           VSL1
001245: 16,2726           02730                           STORE    ZNB
001246: 16,2727           76435                           VXV      VSL1
001247: 16,2730           02714                                    XNB
001248: 16,2731           02722                           STORE    YNB
001249: 16,2732           77616                           RVQ
001250:
001251:                                                                                                  #  NAME - P51 - IMU ORIENTATION DETERMINATION
001252:                                                                                                  #  MOD. NO. 2    21 DEC 66                               LOG SECTION - P51-P53
001253:                                                                                                  #  MOD BY STURLAUGSON                                    ASSEMBLY SUNDISK REV15
001254:
001255:                                                                                                  #  FUNCTIONAL DESCRIPTION
001256:                                                                                                  #        DETERMINES THE INERTIAL ORIENTATION OF THE IMU.  THE PROGRAM IS SELECTED BY DSKY ENTRY.  THE SIGHTING
001257:                                                                                                  #        ROUTINE IS CALLED TO COLLECT THE CDU COUNTERS AND SHAFT AND TRUNNION ANGLES FOR A SIGHTED STAR.  THE DATA IS
001258:                                                                                                  #        THEN PROCESSED AS FOLLOWS.
001259:
001260:                                                                                                  #        1.  SEXTANT ANGLES ARE COMPUTED IN TERMS OF NAVIGATIONAL BASE COORDINATES.  LET SA AND TA BE THE SHAFT AND
001261:                                                                                                  #        TRUNNION ANGLES, RESPECTIVELY.  THEN,
001262:                                                                                                  #        -
001263:                                                                                                  #        V  = (SIN(TA)*COS(SA), SIN(TA)*SIN(SA), COS(TA))        (A COLUMN VECTOR)
001264:                                                                                                  #         NB
001265:                                                                                                  #        THE OUTPUT IS A HALF-UNIT VECTOR STORED IN STARM.
001266:
001267:                                                                                                  #        2.  THIS VECTOR IN NAV. BASE COORDS. IS THEN TRANSFORMED TO ONE IN STABLE MEMBER COORDINATES.
001268:                                                                                                  #        -    T  T  T -
001269:                                                                                                  #        V = Q *Q *Q *V  ,       WHERE
001270:                                                                                                  #             1  2  3  NB
001271:
001272:                                                                                                  #             ( COS(IG)   0    -SIN(IG) )
001273:                                                                                                  #             (                         )                                        THE GIMBAL ANGLES ARE COMPUTED FROM
001274:                                                                                                  #        Q  = (   0       1       0     ), IG= INNER GIMBAL ANGLE                THE CDU COUNTERS AT NBSM (USING AXIS-
001275:                                                                                                  #         1   (                         )                                        ROT AND CDULOGIC)
001276:                                                                                                  #             ( SIN(IG)   0     COS(IG) )
001277:
001278:                                                                                                  #             ( COS(MG) SIN(MG)   0     )
001279:                                                                                                  #             (                         )
001280:                                                                                                  #        Q  = (-SIN(MG) COS(MG)   0     ), MG= MIDDLE GIMBAL ANGLE
001281:                                                                                                  #         2   (                         )
001282:                                                                                                  #             (   0       0       1     )
001283:
001284:                                                                                                  #             (   1       0       0     )
001285:                                                                                                  #             (                         )
001286:                                                                                                  #        Q  = (   0     COS(OG) SIN(OG) ), OG= OUTER GIMBAL ANGLE
001287:                                                                                                  #         3   (                         )
001288:                                                                                                  #             (   0    -SIN(OG) COS(OG) )
001289:
001290:                                                                                                  #        3.  THE STAR NUMBER IS SAVED AND THE SECOND STAR IS THEN SIMILARLY PROCESSED.
001291:
001292:                                                                                                  #        4.  THE ANGLE BETWEEN THE TWO STARS IS THEN CHECKED AT CKSDATA.
001293:
001294:                                                                                                  #        5.  REFSMMAT IS THEN COMPUTED AT AXISGEN AS FOLLOWS.
001295:                                                                                                  #                    -      -
001296:                                                                                                  #                LET S  AND S  BE TWO STAR VECTORS EXPRESSED IN TWO COORDINATE SYSTEMS, A AND B (BASIC AND STABLE MEMBER).
001297:                                                                                                  #                     1      2
001298:                                                                                                  #                DEFINE, -    -
001299:                                                                                                  #                        U  = S
001300:                                                                                                  #                         A    A1
001301:                                                                                                  #                        -         -    -
001302:                                                                                                  #                        V  = UNIT(S  X S  )
001303:                                                                                                  #                         A         A1   A2
001304:                                                                                                  #                        -    -   -
001305:                                                                                                  #                        W  = U X V
001306:                                                                                                  #                         A    A   A
001307:
001308:                                                                                                  #                AND
001309:                                                                                                  #                        -    -
001310:                                                                                                  #                        U  = S
001311:                                                                                                  #                         B    B1
001312:                                                                                                  #                        -         -    -
001313:                                                                                                  #                        V  = UNIT(S  X S  )
001314:                                                                                                  #                         B         B1   B2
001315:                                                                                                  #                        -    -   -
001316:                                                                                                  #                        W  = U X V
001317:                                                                                                  #                         B    B   B
001318:
001319:                                                                                                  #                THEN    -        -       -       -
001320:                                                                                                  #                        X  = U  *U + V  *V + W  *W
001321:                                                                                                  #                              B1  A   B1  A   B1  A
001322:                                                                                                  #                        -        -       -       -              (REFSMMAT)
001323:                                                                                                  #                        Y  = U  *U + V  *V + W  *W
001324:                                                                                                  #                              B2  A   B2  A   B2  A
001325:                                                                                                  #                        -        -       -       -
001326:                                                                                                  #                        Z  = U  *U + V  *V + W  *W
001327:                                                                                                  #                              B3  A   B3  A   B3  A
001328:
001329:                                                                                                  #  THE INPUTS CONSIST OF THE FOUR HALF-UNIT VECTORS STORED AS FOLLOWS
001330:                                                                                                  #                        -
001331:                                                                                                  #                        S   IN 6-11 OF THE VAC AREA
001332:                                                                                                  #                         A1
001333:                                                                                                  #                        -
001334:                                                                                                  #                        S   IN 12-17 OF THE VAC AREA
001335:                                                                                                  #                         A2
001336:                                                                                                  #                        -
001337:                                                                                                  #                        S   IN STARAD
001338:                                                                                                  #                         B1
001339:                                                                                                  #                        -
001340:                                                                                                  #                        S   IN STARAD +6
001341:                                                                                                  #                         B2
001342:
001343:                                                                                                  #  CALLING SEQUENCE
001344:
001345:                                                                                                  #        THE PROGRAM IS CALLED BY THE ASTRONAUT BY DSKY ENTRY.
001346:
001347:                                                                                                  #  SUBROUTINES CALLED.
001348:
001349:                                                                                                  #        GOPERF3
001350:                                                                                                  #        GOPERF1R
001351:                                                                                                  #        GODSPR
001352:                                                                                                  #        IMUCOARS
001353:                                                                                                  #        IMUFIN20
001354:                                                                                                  #        R53
001355:                                                                                                  #        SXTNB
001356:                                                                                                  #        NBSM
001357:                                                                                                  #        MKRELEAS
001358:                                                                                                  #        CHKSDATA
001359:                                                                                                  #        MATMOVE
001360:
001361:                                                                                                  #  ALARMS
001362:
001363:                                                                                                  #        NONE.
001364:
001365:                                                                                                  #  ERASABLE INITIALIZATION
001366:
001367:                                                                                                  #        IMU ZERO FLAG SHOULD BE SET.
001368:
001369:                                                                                                  #  OUTPUT
001370:
001371:                                                                                                  #        REFSMMAT
001372:                                                                                                  #        REFSMFLG
001373:
001374:                                                                                                  #  DEBRIS
001375:
001376:                                                                                                  #        WORK AREA
001377:                                                                                                  #        STARAD
001378:                                                                                                  #        STARIND
001379:                                                                                                  #        BESTI
001380:                                                                                                  #        BESTJ
001381:
001382: 14,2000                                           SETLOC   P50S1
001383: 14,2000                                           BANK
001384: 14,3056                                           COUNT    14/P5153
001385:
001386: 14,3056  14,3056               P53                EQUALS   P51
001387: 14,3056           41320        P51                CS       IMODES30
001388: 14,3057           75023                           MASK     BIT9
001389: 14,3060           10000                           CCS      A
001390: 14,3061           03065                           TC       P51A
001391: 14,3062           05664                           TC       ALARM
001392: 14,3063           00210                           OCT      210
001393: 14,3064           04106                           TC       GOTOPOOH
001394: 14,3065           04676        P51A               TC       BANKCALL
001395: 14,3066           17667                           CADR     R02ZERO
001396:
001397: 14,3067           35041        P51AA              CAF      PRFMSTAQ
001398: 14,3070           04676                           TC       BANKCALL
001399: 14,3071           21045                           CADR     GOPERF1
001400: 14,3072           04106                           TC       GOTOPOOH                              #  TERM.
001401: 14,3073           03116                           TC       P51B                                  #  V33
001402: 14,3074           05426                           TC       PHASCHNG
001403: 14,3075           05024                           OCT      05024
001404: 14,3076           13000                           OCT      13000
001405: 14,3077           35035                           CAF      P51ZERO
001406: 14,3100           55155                           TS       THETAD                                #  ZERO THE GIMBALS
001407: 14,3101           55156                           TS       THETAD     +1
001408: 14,3102           55157                           TS       THETAD     +2
001409: 14,3103           33251                           CAF      V6N22
001410: 14,3104           04676                           TC       BANKCALL
001411: 14,3105           20673                           CADR     GODSPRET
001412: 14,3106           33252                           CAF      V41K                                  #  NOW DISPLAY COARSE ALIGN VERB 41
001413: 14,3107           04676                           TC       BANKCALL
001414: 14,3110           20673                           CADR     GODSPRET
001415: 14,3111           03256                           TC       COARSUB                               #  PERFORM ALIGNMENT
001416: 14,3112           05426                           TC       PHASCHNG
001417: 14,3113           05024                           OCT      05024
001418: 14,3114           13000                           OCT      13000
001419: 14,3115           13067                           TCF      P51AA                                 #  COARSE ALIGN DONE - RECYCLE FOR FINE
001420:
001421:                                                                                                  #  DO STAR SIGHTING AND COMPUTE NEW REFSMMAT
001422: 14,3116           05426        P51B               TC       PHASCHNG
001423: 14,3117           00014                           OCT      00014
001424: 14,3120           06006                           TC       INTPRET
001425: 14,3121           40331                           SSP      SETPD
001426: 14,3122           00305                                    STARIND                               #  INDEX - STAR 1 OR 2
001427: 14,3123           00000                                    0
001428: 14,3124           00001                                    0
001429: 14,3125           77234                           RTB      VLOAD
001430: 14,3126           31253                                    SET1/PDT
001431: 14,3127           11566                                    ZEROVEC
001432: 14,3130           01472                           STORE    GCOMP
001433: 14,3131           43014                           SET      CLEAR
001434: 14,3132           01060                                    DRIFTFLG                              #  ENABLE T4 COMPENSATION
001435: 14,3133           00666                                    TARG2FLG                              #  SHOW MARK IS STAR - NOT LANDMARK
001436: 14,3134           77776                           EXIT
001437: 14,3135           35033                           CAF      BIT1
001438: 14,3136           54301                           TS       MARKINDX                              #  INITIALIZE FOR ONE MARK
001439:
001440: 14,3137           05426        P51C               TC       PHASCHNG
001441: 14,3140           05024                           OCT      05024
001442: 14,3141           13000                           OCT      13000
001443: 14,3142           05400                           TC       CHECKMM
001444: 14,3143           00065                           MM       53         B-14                       #  BACKUP PROGRAM
001445: 14,3144           13152                           TCF      P51C.1                                #  NOT P53
001446: 14,3145           06006                           TC       INTPRET
001447: 14,3146           77624                           CALL
001448: 14,3147           36114                                    R56
001449: 14,3150           77650                           GOTO
001450: 14,3151           31155                                    P51C.2
001451: 14,3152           06006        P51C.1             TC       INTPRET
001452: 14,3153           77624                           CALL
001453: 14,3154           31302                                    R53                                   #  SIGHTING ROUTINE
001454: 14,3155           77624        P51C.2             CALL                                           #  COMPUTE LOS IN SM FROM MARK DATA
001455: 14,3156           36060                                    SXTSM
001456: 14,3157           77606                           PUSH
001457: 14,3160           53135                           SLOAD    BZE
001458: 14,3161           00305                                    STARIND
001459: 14,3162           31167                                    P51D
001460: 14,3163           45575                           VLOAD    STADR
001461: 14,3164           75160                           STORE    STARSAV2                              #  DOWNLINK
001462: 14,3165           77650                           GOTO
001463: 14,3166           31175                                    P51E
001464: 14,3167           45575        P51D               VLOAD    STADR
001465: 14,3170           61166                           STODL    STARSAV1
001466: 14,3171           02607                                    TSIGHT
001467: 14,3172           77624                           CALL
001468: 14,3173           32340                                    PLANET
001469: 14,3174           02601                           STORE    PLANVEC
001470: 14,3175           77776        P51E               EXIT
001471: 14,3176           05426                           TC       PHASCHNG
001472: 14,3177           05024                           OCT      05024
001473: 14,3200           13000                           OCT      13000
001474: 14,3201           04676                           TC       BANKCALL
001475: 14,3202           16063                           CADR     MKRELEAS                              #  ZERO MARKSTAT
001476: 14,3203           10304                           CCS      STARIND
001477: 14,3204           13213                           TCF      P51F                                  #  STAR 2
001478: 14,3205           05426                           TC       PHASCHNG
001479: 14,3206           05024                           OCT      05024
001480: 14,3207           13000                           OCT      13000
001481: 14,3210           35033                           CAF      BIT1
001482: 14,3211           54304                           TS       STARIND
001483: 14,3212           13137                           TCF      P51C                                  #  GO DO SECOND STAR
001484: 14,3213           05426        P51F               TC       PHASCHNG
001485: 14,3214           05024                           OCT      05024
001486: 14,3215           13000                           OCT      13000
001487: 14,3216           06006                           TC       INTPRET
001488: 14,3217           45145                           DLOAD    CALL
001489: 14,3220           02607                                    TSIGHT
001490: 14,3221           32340                                    PLANET
001491: 14,3222           24015                           STOVL    12D
001492: 14,3223           02601                                    PLANVEC
001493: 14,3224           24007                           STOVL    6D
001494: 14,3225           02611                                    STARSAV1
001495: 14,3226           26736                           STOVL    STARAD
001496: 14,3227           02617                                    STARSAV2
001497: 14,3230           36744                           STCALL   STARAD     +6
001498: 14,3231           30714                                    CHKSDATA                              #  CHECK STAR ANGLES IN STARAD AND
001499: 14,3232           77414                           BON      EXIT
001500: 14,3233           00314                                    FREEFLAG
001501: 14,3234           31236                                    P51G
001502: 14,3235           03067                           TC       P51AA
001503: 14,3236           77624        P51G               CALL
001504: 14,3237           47403                                    AXISGEN                               #  COME BACK WITH REFSMMAT IN XDC
001505: 14,3240           75160                           AXC,1    AXC,2
001506: 14,3241           02713                                    XDC
001507: 14,3242           01735                                    REFSMMAT
001508: 14,3243           45014                           CLEAR    CALL
001509: 14,3244           01662                                    REFSMFLG
001510: 14,3245           31042                                    MATMOVE
001511: 14,3246           52014                           SET      GOTO
001512: 14,3247           01462                                    REFSMFLG
001513: 14,3250           32145                                    ENDP50S
001514: 14,3251     5041               PRFMSTAQ           =        OCT15
001515: 14,3251     5035               P51ZERO            =        ZERO
001516: 14,3251     5036               P51FIVE            =        FIVE
001517: 14,3251           01426        V6N22              VN       0622
001518: 14,3252           12200        V41K               VN       4100
001519: 14,3253           30025        SET1/PDT           CA       TIME1
001520: 14,3254           55074                           TS       1/PIPADT
001521: 14,3255           16030                           TCF      DANZIG
001522:
001523: 14,3256                                           COUNT*   $$/R50
001524: 14,3256           30002        COARSUB            CA       Q
001525: 14,3257           55777                           TS       QMIN
001526: 14,3260           31322        STALLOOP           CA       MODECADR                              #  IS IMU IN USE?
001527: 14,3261           00006                           EXTEND
001528: 14,3262           13267                           BZF      CORSCALL                              #  NO, GO AHEAD WITH COARSE ALIGN
001529: 14,3263           35055                           CAF      1SEC                                  #  YES, SO WAIT A SEC
001530: 14,3264           04676                           TC       BANKCALL
001531: 14,3265           01732                           CADR     DELAYJOB
001532: 14,3266           03260                           TC       STALLOOP                              #                        AND TRY AGAIN
001533: 14,3267           04676        CORSCALL           TC       BANKCALL
001534: 14,3270           16663                           CADR     IMUCOARS                              #  PERFORM COARSE ALIGN
001535: 14,3271           04676                           TC       BANKCALL
001536: 14,3272           17577                           CADR     IMUSTALL
001537: 14,3273           05763                           TC       CURTAINS                              #  BAD END
001538: 14,3274           04676                           TC       BANKCALL
001539: 14,3275           17073                           CADR     IMUFIN20                              #  PERFORM FINE ALIGN
001540: 14,3276           04676                           TC       BANKCALL
001541: 14,3277           17577                           CADR     IMUSTALL
001542: 14,3300           05763                           TC       CURTAINS                              #  BAD END
001543: 14,3301           01777                           TC       QMIN
001544:
001545:                                                                                                  #  SXTSM COMPUTES AN LOS VECTOR IN SM COORD FROM OCDU AND ICDU MARK DATA
001546:
001547: 17,2000                                           SETLOC   P50S3
001548: 17,2000                                           BANK
001549: 17,2060           77620        SXTSM              STQ
001550: 17,2061           00300                                    QMAJ
001551: 17,2062           70740                           LXC,1    DLOAD*
001552: 17,2063           01330                                    MARKSTAT
001553: 17,2064           00001                                    0D,1
001554: 17,2065           02607                           STORE    TSIGHT
001555: 17,2066           66744                           LXC,2    SLOAD*
001556: 17,2067           00304                                    STARIND
001557: 17,2070           41664                                    MKDNCDR,2
001558: 17,2071           76744                           LXC,2    VLOAD*
001559: 17,2072           00154                                    MPAC
001560: 17,2073           00001                                    0,1
001561: 17,2074           10001                           STORE    0,2
001562: 17,2075           77743                           DLOAD*
001563: 17,2076           00006                                    5,1
001564: 17,2077           10006                           STORE    5,2
001565: 17,2100           77624                           CALL
001566: 17,2101           46000                                    SXTNB                                 #  COMPUTE LOS VECTOR FROM OCDU IN MKVAC
001567: 17,2102           62150                           LXA,1    INCR,1
001568: 17,2103           01330                                    MARKSTAT
001569: 17,2104           00002                                    2                                     #  INCREMENT TO BASE ADR OF ICDU
001570: 17,2105           45130                           SXA,1    CALL
001571: 17,2106           00050                                    S1
001572: 17,2107           47610                                    NBSM                                  #  TRANSFORM LOS TO SM
001573: 17,2110           77650                           GOTO
001574: 17,2111           00300                                    QMAJ
001575: 17,2112           03674        MKDNCDR            ECADR    MARKDOWN
001576: 17,2113           03502                           ECADR    MARK2DWN
001577:
001578:                                                                                                  #  PROGRAM DESCRIPTION - R53 - SIGHTING MARK ROUTINE
001579:                                                                                                  #  MOD. NO. 2  21 DEC 66
001580:                                                                                                  #  MOD BY STURLAUGSON
001581:
001582:                                                                                                  #  FUNCTIONAL DESCRIPTION
001583:
001584:                                                                                                  #        TO PERFORM A SATISFACTORY NUMBER OF SIGHTING MARKS FOR THE REQUESTING PROGRAM (OR ROUTINE).  SIGHTINGS
001585:                                                                                                  #        CAN BE MADE ON A STAR OR LANDMARK.  WHEN THE CMC ACCEPTS A MARK IT RECORDS AND STORES 5 ANGLES (3 ICDUS AND 2
001586:                                                                                                  #        OCDUS) AND THE TIME OF THE MARK.
001587:
001588:                                                                                                  #  CALLING SEQUENCE
001589:
001590:                                                                                                  #        R53 IS CALLED AND RETURNS IN INTERPRETIVE CODE.  RETURN IS VIA QPRET.
001591:                                                                                                  #        THERE IS NO ERROR EXIT IN THIS ROUTINE ITSELF.
001592:
001593:                                                                                                  #  SUBROUTINES CALLED
001594:                                                                                                  #
001595:                                                                                                  #        SXTMARK
001596:                                                                                                  #        OPTSTALL
001597:                                                                                                  #        GOFLASH
001598:
001599:                                                                                                  #  ERASABLE INITIALIZATION
001600:
001601:                                                                                                  #        TARGET FLAG - STAR OR LANDMARK
001602:                                                                                                  #        MARKINDX - NUMBER OF MARKS WANTED
001603:                                                                                                  #        STARIND - INDEX TO BESTI OR BESTJ (STAR NUMBER)
001604:
001605:                                                                                                  #  OUTPUT
001606:
001607:                                                                                                  #        MARKSTAT CONTAINS INDEX TO VACANT AREA WHERE MARK DATA IS STORED
001608:                                                                                                  #        BESTI (INDEXED BY STARIND) CONTAINS STAR NUMBER SIGHTED
001609:
001610:                                                                                                  #  DEBRIS
001611:
001612:                                                                                                  #        MARKINDX CONTAINS NUMBER OF MARKS DESIRED
001613:
001614: 14,2000                                           SETLOC   RT53
001615: 14,2000                                           BANK
001616:
001617: 14,3302                                           COUNT    14/R53
001618:
001619: 14,3302           43020        R53                STQ      SET                                   #  SET SIGHTING MARK FLAG
001620: 14,3303           03501                                    R53EXIT
001621: 14,3304           00071                                    R53FLAG
001622: 14,3305           77776                           EXIT
001623: 14,3306           30301        R53A               CA       MARKINDX                              #  NUMBER OF MARKS
001624: 14,3307           75037                           MASK     LOW3
001625: 14,3310           04676                           TC       BANKCALL
001626: 14,3311           16002                           CADR     SXTMARK
001627: 14,3312           04676                           TC       BANKCALL
001628: 14,3313           17573                           CADR     OPTSTALL
001629: 14,3314           05763                           TC       CURTAINS
001630: 14,3315           51330                           INDEX    MARKSTAT
001631: 14,3316           10052                           CCS      QPRET                                 #  NUMBER OF MARKS ACTUALLY DONE
001632: 14,3317           13330                           TCF      R53B
001633: 14,3320           13322                           TCF      +2                                    #  ZERO
001634: 14,3321           13322                           TCF      +1                                    #  CCS HOLE
001635: 14,3322           35035                           CAF      ZERO                                  #  HOUSEKEEP VAC AREA SAVE
001636: 14,3323           57330                           XCH      MARKSTAT                              #        AND MARKSTAT
001637: 14,3324           10000                           CCS      A
001638: 14,3325           50000                           INDEX    A
001639: 14,3326           54000                           TS       0
001640: 14,3327           13306                           TCF      R53A
001641: 14,3330           05400        R53B               TC       CHECKMM
001642: 14,3331           00026                           MM       22         B-14
001643: 14,3332           13334                           TCF      +2
001644: 14,3333           13363                           TCF      R53D
001645: 14,3334           05400                           TC       CHECKMM
001646: 14,3335           00027                           MM       23         B-14
001647: 14,3336           13340                           TCF      R53C1
001648: 14,3337           13363                           TCF      R53D
001649: 14,3340           35035        R53C1              CAF      ZERO
001650: 14,3341           04676                           TC       BANKCALL
001651: 14,3342           20703                           CADR     CLEANDSP
001652: 14,3343           33367        R53C               CAF      V01N71
001653: 14,3344           04676                           TC       BANKCALL
001654: 14,3345           20720                           CADR     GOFLASH
001655: 14,3346           04106                           TC       GOTOPOOH                              #  TERM.
001656: 14,3347           13351                           TCF      R53Z
001657: 14,3350           03343                           TC       R53C                                  #  RECYCLE
001658: 14,3351           03370        R53Z               TC       CHKSCODE
001659: 14,3352           04400                           TC       FALTON
001660: 14,3353           03343                           TC       R53C
001661: 14,3354           47713                           CS       HIGH9
001662: 14,3355           70735                           MASK     STARCODE
001663: 14,3356           00006                           EXTEND
001664: 14,3357           76211                           MP       SIGHTSIX
001665: 14,3360           56001                           XCH      L
001666: 14,3361           50304                           INDEX    STARIND
001667: 14,3362           54302                           TS       BESTI
001668: 14,3363           06006        R53D               TC       INTPRET
001669: 14,3364           77614        R53OUT             SETGO
001670: 14,3365           03420                                    TERMIFLG                              #  SET TERMINATE FOR R52
001671: 14,3366           03501                                    R53EXIT
001672: 14,3367     6211               SIGHTSIX           =        SIX
001673: 14,3367           00307        V01N71             VN       0171
001674:
001675:                                                                                                  #  ****** KEEP IN SAME BANK AS R51 AND R53 *********
001676: 14,3370           10735        CHKSCODE           CCS      STARCODE
001677: 14,3371           63400                           AD       NEG47
001678: 14,3372           10000                           CCS      A
001679: 14,3373           00002                           TC       Q                                     #  SC < 0 OR SC > 50
001680: 14,3374           13376                           TCF      +2                                    #  SC = + OR - 0
001681: 14,3375           13376                           TCF      +1                                    #  0 <= SC< 50
001682: 14,3376           50002                           INDEX    Q                                     #  SC = 50
001683: 14,3377           00002                           TC       00002
001684: 14,3400           77730        NEG47              OCT      77730
001685:
001686:                                                                                                  #  NAME - S52.2
001687:                                                                                                  #  FUNCTION - COMPUTE GIMBAL ANGLES FOR DESIRED SM AND PRESENT VEHICLE
001688:                                                                                                  #  CALL - CALL S52.2
001689:                                                                                                  #  INPUT - X,Y,ZSMD
001690:                                                                                                  #  OUTPUT - OGC,IGC,MGC,THETAD,+1,+2
001691:                                                                                                  #  SUBROUTINES - CDUTRIG, CALCSMSC, MATMOVE, CALCGA
001692:
001693: 11,2000                                           SETLOC   S52/2
001694: 11,2000                                           BANK
001695:
001696: 11,2260                                           COUNT    13/S52.2
001697: 11,2260           77620        S52.2              STQ
001698: 11,2261           00300                                    QMAJ
001699: 11,2262           77624                           CALL
001700: 11,2263           47501                                    CDUTRIG
001701: 11,2264           77624                           CALL
001702: 11,2265           34664                                    CALCSMSC
001703: 11,2266           66370                           AXT,1    SSP
001704: 11,2267           00022                                    18D
001705: 11,2270           00051                                    S1
001706: 11,2271           00006                                    6D
001707: 11,2272           61373        S52.2A             VLOAD*   VXM
001708: 11,2273           02736                                    XNB        +18D,1
001709: 11,2274           01736                                    REFSMMAT
001710: 11,2275           77656                           UNIT
001711: 11,2276           06736                           STORE    XNB        +18D,1
001712: 11,2277           77700                           TIX,1
001713: 11,2300           22272                                    S52.2A
001714: 11,2301           75160        S52.2.1            AXC,1    AXC,2
001715: 11,2302           00306                                    XSMD
001716: 11,2303           02671                                    XSM
001717: 11,2304           77624                           CALL
001718: 11,2305           31042                                    MATMOVE
001719: 11,2306           77624                           CALL
001720: 11,2307           47313                                    CALCGA
001721: 11,2310           77650                           GOTO
001722: 11,2311           00300                                    QMAJ
001723:
001724:                                                                                                  #  PROGRAM NAME - SR52.1                         DATE  DEC 20 66
001725:                                                                                                  #  MOD 1                                         LOG SEC  P51-P53
001726:                                                                                                  #  BY KEN VINCENT                                ASSEMBLY  SUNDISK REV 40
001727:
001728:                                                                                                  #  FUNCTION
001729:
001730:                                                                                                  #  TARG1 AND TARG2 FLAGS ARE LOOKED AT TO DETERMINE IF THE TARGET IS THE
001731:                                                                                                  #  LEM, STAR OR LANDMARK.  IN CASE OF LEM OR LMK, THE PRESENT TIME PLUS
001732:                                                                                                  #  2 SECONDS IS SAVED IN AOPTIME (ALIAS STARAD, +1).  IF THE LEM IS
001733:                                                                                                  #  THE TARGET THEN CONIC UPDATES      OF THE CSM AND LEM ARE MADE TO
001734:                                                                                                  #  THE TIME IN AOPTIME.  THE UNIT OF THE DIFFERENCE OF LEM AND CSM
001735:                                                                                                  #  POSITION VECTORS BECOMES THE REFERENCE SIGHTING VECTOR USED IN THE
001736:                                                                                                  #  COMMON PART OF THIS PROGRAM.
001737:
001738:                                                                                                  #  IN THE CASE OF LANDMARK, THE CSM IS UPDATED CONICALLY.  THE RADIUS
001739:                                                                                                  #  VECTOR FOR THE LANDMARK IS OBTAINED FROM LALOTORV.  BOTH OF THESE ARE
001740:                                                                                                  #  FOUND FOR THE TIME IN AOPTIME.  THE UNIT OF THE DIFFERENCE BETWEEN
001741:                                                                                                  #  THE LANDMARK AND CSM RADIUS VECTORS BECOMES THE REFERENCE SIGHTING
001742:                                                                                                  #  VECTOR FOR THE COMMON PART OF THIS ROUTINE.
001743:
001744:                                                                                                  #  IF A STAR IS THE TARGET, THE PROPER STAR IS OBTAINED FROM THE CATALOG
001745:                                                                                                  #  AND THIS VECTOR BECOMES THE REFERENCE SIGHTING VECTOR.
001746:
001747:                                                                                                  #  THE COMMON PART OF THIS PROGRAM TRANSFORMS THE REFERENCE SIGHTING
001748:                                                                                                  #  VECTOR INTO STABLE MEMBER COORDINATES.  IT READS THE IMU-CDUS AND USES
001749:                                                                                                  #  THIS DATA IN A CALL TO CALCSXA.  ON RETURN FROM CALCSXA A TEST IS
001750:                                                                                                  #  MADE TO SEE IF THE TRUNNION ANGLE IS GREATER THAN  90DEG OR 38DEG.
001751:                                                                                                  #  MADE TO SEE IF THE TRUNNION ANGLE IS GREATER THAN 90DEG. OR 50DEG.
001752:
001753:                                                                                                  #  CALLING SEQUENCE
001754:
001755:                                                                                                  #        L+4     RETURN WHEN SHAFT OR TRUNION NOT WITHIN 5 DEG OF DESIRED
001756:                                                                                                  #        L       TC      BANKCALL
001757:                                                                                                  #        L+1     CADR    SR52.1
001758:                                                                                                  #        L+2     ERROR RETURN    TRUNNION GREATER THAN 90 DEG
001759:                                                                                                  #        L&3     ERROR RETURN    TRUNNION GREATER THAN 50 DEG
001760:                                                                                                  #        L+4     NORMAL RETURN
001761:
001762:                                                                                                  #  OUTPUT
001763:
001764:                                                                                                  #        SAC -SINGLE PREC, 2S COMP, SCALED AT HALF REVS - SHAFT ANGLE DESIRED
001765:                                                                                                  #        PAC -SINGLE PREC, 2S COMP  SCALED AT EIGTH REVS - TRUNNION ANGLE DESIRED
001766:
001767:                                                                                                  #  INITIALIZATION
001768:
001769:                                                                                                  #        IF TARG1FLG =1 THEN TARGET IS LEM - NO OTHER INPUT REQUIRED
001770:
001771:                                                                                                  #        IF TARG1FLG =0 AND TARG2FLG =0 THE TARGET IS STAR, STARIND SHOULD
001772:                                                                                                  #        0 OR 1 DENOTING BESTI OR BESTJ RESPECTIVELY AS STAR CODE.  STAR CODES
001773:                                                                                                  #        ARE 6 TIMES STAR NUMBER.
001774:
001775:                                                                                                  #        IF TARG1FLG =0 AND TARG2FLG =1 THEN TARGET IS LANDMARK.  SEE ROUTINE
001776:                                                                                                  #        LALOTORV FOR INPUT REQUIREMENTS.  HERE FIXERAD=1 FOR CONSTANT EARTH
001777:                                                                                                  #        RADIUS
001778:
001779:                                                                                                  #  DEBRIS
001780:
001781:                                                                                                  #        WORK AREA
001782:                                                                                                  #        STARAD - STAR+5 (STAR IS DESIRED LOS IN STABLE MEMBER COORDINATES)
001783:
001784: 11,2312                                           COUNT*   $$/SR521
001785: 13,2000                                           SETLOC   SR52/1
001786: 13,2000                                           BANK
001787:
001788: 13,2254           04725        SR52.1             TC       MAKECADR
001789: 13,2255           55777                           TS       QMIN
001790: 13,2256           06006                           TC       INTPRET
001791: 13,2257           43234                           RTB      DAD
001792: 13,2260           45510                                    LOADTIME
001793: 13,2261           26375                                    2.4SECDP
001794: 13,2262           02356                           STORE    AOPTIME
001795: 13,2263           43014                           BON      BON
001796: 13,2264           00705                                    TARG1FLG
001797: 13,2265           26272                                    LEM52
001798: 13,2266           00706                                    TARG2FLG
001799: 13,2267           26302                                    LMK52
001800: 13,2270           77650                           GOTO
001801: 13,2271           26323                                    STAR52
001802: 13,2272           77745        LEM52              DLOAD
001803: 13,2273           02356                                    AOPTIME
001804: 13,2274           34041                           STCALL   TDEC1
001805: 13,2275           27136                                    LEMCONIC
001806: 13,2276           77775                           VLOAD
001807: 13,2277           00001                                    RATT
001808: 13,2300           77650                           GOTO
001809: 13,2301           26312                                    LMKLMCOM
001810: 13,2302           71214        LMK52              BON      DLOAD
001811: 13,2303           04305                                    ADVTRK
001812: 13,2304           54000                                    ADVTRACK
001813: 13,2305           02356                                    AOPTIME
001814: 13,2306           77624                           CALL
001815: 13,2307           26451                                    LALOTORV
001816: 13,2310           77775                           VLOAD
001817: 13,2311           02152                                    ALPHAV
001818: 13,2312           16766        LMKLMCOM           STODL    STAR
001819: 13,2313           02356                                    AOPTIME
001820: 13,2314           34041                           STCALL   TDEC1
001821: 13,2315           27124                                    CSMCONIC
001822: 13,2316           52375                           VLOAD    VSU
001823: 13,2317           02766                                    STAR
001824: 13,2320           00001                                    RATT
001825: 13,2321           52056                           UNIT     GOTO
001826: 13,2322           26336                                    COM52
001827: 13,2323           72131        STAR52             SSP      LXA,1
001828: 13,2324           00051                                    S1
001829: 13,2325           00000                                    0
001830: 13,2326           00304                                    STARIND
001831: 13,2327           77700                           TIX,1
001832: 13,2330           26334                                    ST52ST
001833: 13,2331           52175                           VLOAD    GOTO
001834: 13,2332           02617                                    STARSAV2
001835: 13,2333           26336                                    COM52
001836: 13,2334           77775        ST52ST             VLOAD
001837: 13,2335           02611                                    STARSAV1
001838: 13,2336           53521        COM52              MXV      UNIT
001839: 13,2337           01736                                    REFSMMAT
001840: 13,2340           02766                           STORE    STAR
001841: 13,2341           45001                           SETPD    CALL
001842: 13,2342           00001                                    0
001843: 13,2343           47501                                    CDUTRIG                               #  COMPUTES SINES AND COSINES FOR CALCSXA
001844: 13,2344           77624                           CALL                                           #        NOW EXPECT TO SEE THE CDU ANGLES.
001845: 13,2345           46034                                    CALCSXA
001846: 13,2346           77414                           BOFF     EXIT
001847: 13,2347           01750                                    CULTFLAG
001848: 13,2350           26352                                    TRUN38
001849: 13,2351           02370                           TC       SR52E1
001850: 13,2352           45345        TRUN38             DLOAD    DSU
001851: 13,2353           02776                                    PAC
001852: 13,2354           26373                                    38TRDEG
001853: 13,2355           71244                           BPL      DLOAD
001854: 13,2356           26363                                    SR52E22
001855: 13,2357           02776                                    PAC
001856: 13,2360           51025                           DSU      BPL
001857: 13,2361           26377                                    20DEGSMN
001858: 13,2362           26365                                    SR52E3
001859: 13,2363           77776        SR52E22            EXIT
001860: 13,2364           02367                           TC       SR52E2
001861: 13,2365           77776        SR52E3             EXIT
001862: 13,2366           25777                           INCR     QMIN
001863: 13,2367           25777        SR52E2             INCR     QMIN
001864: 13,2370           31777        SR52E1             CA       QMIN
001865: 13,2371           04702                           TC       SWCALL
001866: 13,2372           25252 25254  38TRDEG            2DEC     .66666667                             #  CORESPONDS TO 50 DEGS IN TRUNION
001867:
001868: 13,2374           00000 00360  2.4SECDP           2DEC     240        B-28
001869:
001870: 13,2376           61740        20DEGSMN           DEC      -07199     B-14
001871: 13,2377           77777                           DEC      -0         B-14
001872:
001873:                                                                                                  #     THE ADVTRACK ROUTINE IS USED TO COMPUTE AN OPTICS LOS VECTOR TO
001874:                                                                                                  #  A POINT ON THE GROUND TRACK 60 DEGRESS FORWARD OF THE LOCAL VERTICAL
001875:                                                                                                  #  OF AN ADVANCED ORBIT A SPECIFIED NUMBER OF REVOLUTIONS FROM NOW
001876:
001877: 26,2000                                           SETLOC   26P50S
001878: 26,2000                                           BANK
001879: 26,2000           77601        ADVTRACK           SETPD
001880: 26,2001           00001                                    0
001881: 26,2002           41575                           VLOAD    PUSH                                  #  INITIALIZE FOR RP-TO-R
001882: 26,2003           15326                                    UNITZ                                 #  UZ VEC IN PD 0-5
001883: 26,2004           41434                           RTB      PUSH                                  #  TIME IN PD 6-7
001884: 26,2005           45510                                    LOADTIME
001885: 26,2006           36356                           STCALL   AOPTIME                               #  TIME ALSO IN AOPTIME FOR CSMCONIC
001886: 26,2007           55343                                    RP-TO-R                               #  GET MOON ROTATION VEC IN REF
001887: 26,2010           16766                           STODL    STAR
001888: 26,2011           02356                                    AOPTIME                               #  PICK UP TIME
001889: 26,2012           34041                           STCALL   TDEC1                                 #  UPDATE STATE TO TIME
001890: 26,2013           27124                                    CSMCONIC
001891: 26,2014           47375                           VLOAD    VXV
001892: 26,2015           00007                                    VATT
001893: 26,2016           00001                                    RATT
001894: 26,2017           77656                           UNIT
001895: 26,2020           24031                           STOVL    24D                                   #  SAVE -UNIT(V X R) FOR 2ND ROTATION
001896: 26,2021           00001                                    RATT
001897: 26,2022           57456                           UNIT     VCOMP
001898: 26,2023           41401                           SETPD    PUSH                                  #  PUSH LOS=-UNIT(RVEC) PD 0-5
001899: 26,2024           00001                                    0
001900: 26,2025           77776                           EXIT
001901: 26,2026           31751                           CA       LANDMARK
001902: 26,2027           75037                           MASK     SEVEN                                 #  GET NUMBER OF ADVANCE PERIODS
001903: 26,2030           00006                           EXTEND
001904: 26,2031           75021                           MP       BIT11                                 #  GET N/16
001905: 26,2032           56001                           XCH      L
001906: 26,2033           50120                           INDEX    FIXLOC
001907: 26,2034           54036                           TS       30D                                   #  TEMP STORE N/16
001908: 26,2035           06006                           TC       INTPRET
001909: 26,2036           41335                           SLOAD    DMP
001910: 26,2037           00037                                    30D
001911: 26,2040           14107                                    MPERIOD
001912: 26,2041           36356                           STCALL   AOPTIME                               #  ROTATE ANG ABOUT UR
001913: 26,2042           54057                                    ROTA
001914: 26,2043           77775                           VLOAD
001915: 26,2044           00031                                    24D                                   #  PICK UP 2ND ROTATION AXIS
001916: 26,2045           16766                           STODL    STAR
001917: 26,2046           14105                                    DP1/6
001918: 26,2047           77625                           DSU
001919: 26,2050           02356                                    AOPTIME                               #  2ND RAT ANGLE = 60 - A
001920: 26,2051           36356                           STCALL   AOPTIME
001921: 26,2052           54057                                    ROTA                                  #  GO ROTATE 2ND TIME
001922: 26,2053           77775                           VLOAD
001923: 26,2054           00001                                    0
001924: 26,2055           36766                           STCALL   STAR                                  #  STORE FINAL LOS IN STAR
001925: 26,2056           26336                                    COM52                                 #  RETURN TO SR52.1
001926:
001927: 26,2057           73545        ROTA               DLOAD    SIN
001928: 26,2060           02356                                    AOPTIME
001929: 26,2061           47315                           PDVL     VXV                                   #  PUSH 1/2SIN(A) PD 6-7
001930: 26,2062           02766                                    STAR                                  #        UR VEC
001931: 26,2063           00001                                    0                                     #        LOS
001932: 26,2064           72561                           VXSC     VSL2                                  #  1/2SIN(A)(URXLOS) PD 6-11
001933: 26,2065           50315                           PDVL     DOT
001934: 26,2066           02766                                    STAR
001935: 26,2067           00001                                    0
001936: 26,2070           72561                           VXSC     VSL2
001937: 26,2071           02766                                    STAR
001938: 26,2072           71525                           PDDL     COS                                   #  1/2(UR . LOS)UR 12-17
001939: 26,2073           02356                                    AOPTIME
001940: 26,2074           51315                           PDVL     BVSU                                  #  PUSH 1/2COS(A) 18-19
001941: 26,2075           00015                                    12D
001942: 26,2076           00001                                    0
001943: 26,2077           76561                           VXSC     VSL1                                  #  UP 18-19
001944: 26,2100           53255                           VAD      VAD                                   #  UP 12-17 UP 6-11
001945: 26,2101           40256                           UNIT     SETPD
001946: 26,2102           00001                                    0
001947: 26,2103           43406                           PUSH     RVQ
001948:
001949: 26,2104           05252 25251  DP1/6              2DEC     .16666666
001950:
001951: 26,2106           01414 06044  MPERIOD            2DEC     .047619                               #  APPROX LUNAR ROT ANG IN 2HRS X 16
001952:
001953:                                                                                                  #  NAME - S52.3
001954:                                                                                                  #  FUNCTION -    XSMD= UNIT(YSMD X ZSMD)
001955:                                                                                                  #                YSMD= UNIT(V X R)
001956:                                                                                                  #                ZSMD= UNIT(-R)
001957:                                                                                                  #  CALL          DLOAD   CALL
001958:                                                                                                  #                        TALIGN
001959:                                                                                                  #                        S52.3
001960:                                                                                                  #  INPUT -       TIME OF ALIGNMENT IN MPAC
001961:                                                                                                  #  OUTPUT -      X,Y,ZSMD
001962:                                                                                                  #  SUBROUTINES - CSMCONIC
001963:
001964: 16,2000                                           SETLOC   P50S2
001965: 16,2000                                           BANK
001966:
001967: 16,2733                                           COUNT    15/S52.3
001968: 16,2733           77620        S52.3              STQ
001969: 16,2734           00300                                    QMAJ
001970: 16,2735           34041                           STCALL   TDEC1
001971: 16,2736           27101                                    CSMPREC
001972: 16,2737           77601                           SETPD
001973: 16,2740           00001                                    0
001974: 16,2741           57575                           VLOAD    VCOMP
001975: 16,2742           00001                                    RATT
001976: 16,2743           77656                           UNIT
001977: 16,2744           24323                           STOVL    ZSMD
001978: 16,2745           00007                                    VATT
001979: 16,2746           53435                           VXV      UNIT
001980: 16,2747           00001                                    RATT
001981: 16,2750           00315                           STORE    YSMD
001982: 16,2751           53435                           VXV      UNIT
001983: 16,2752           00323                                    ZSMD
001984: 16,2753           34307                           STCALL   XSMD
001985: 16,2754           00300                                    QMAJ
001986:
001987:                                                                                                  #  PROGRAM DESCRIPTION - R56 - ALTERNATE LOS SIGHTING MARK ROUTINE
001988:
001989:                                                                                                  #  FUNCTIONAL DESCRIPTION
001990:
001991:                                                                                                  #        TO PERFORM SIGHTING MARKS FOR THE BACK-UP ALIGNMENT PROGRAMS (P53,P54).  THE ASTRONAUT KNOWS THE
001992:                                                                                                  #        COORDINATES (OPTICS) OF THE ALTERNATE LINE OF SIGHT HE MUST USE FOR THIS ROUTINE.  WHEN THE ASTRONAUT KEYS IN
001993:                                                                                                  #        ENTER IN RESPONSE TO THE FLASHING V50 N25 R1-XXXXX THE CMC STORES THE THREE ICDU ANGLES AND TWO ANGLES DISPLAYED
001994:                                                                                                  #        IN N92.
001995:
001996:                                                                                                  #  CALLING SEQUENCE
001997:
001998:                                                                                                  #        CALL
001999:                                                                                                  #                R56
002000:
002001:                                                                                                  #  SUBROUTINES CALLED
002002:
002003:                                                                                                  #        A PORTION OF SXTMARK (VAC.AREA SEARCH)
002004:                                                                                                  #        GOFLASH
002005:                                                                                                  #        GOPERF1
002006:
002007:                                                                                                  #  ERASABLE INITIALIZATION
002008:
002009:                                                                                                  #        STARIND-INDEX TO STAR NUMBER
002010:
002011:                                                                                                  #  OUTPUT
002012:
002013:                                                                                                  #        MARKSTAT-INDEX TO VAC.AREA WHERE OUTPUT IS STORED.
002014:                                                                                                  #        BESTI (INDEXED BY STARIND) CONTAINS STAR NUMBER.
002015:                                                                                                  #        ICDU AND OCDU ANGLES IN VAC. AREA AS FOLLOWS-
002016:                                                                                                  #                VAC +2  CDUY
002017:                                                                                                  #                VAC +3  CDUS
002018:                                                                                                  #                VAC +4  CDUZ
002019:                                                                                                  #                VAC +5  CDUT
002020:                                                                                                  #                VAC +6  CDUX
002021:
002022: 16,2755                                           COUNT*   $$/R56
002023: 17,2000                                           SETLOC   P50S3
002024: 17,2000                                           BANK
002025: 17,2114           77420        R56                STQ      EXIT
002026: 17,2115           03501                                    R53EXIT
002027: 17,2116           32204                           CAF      V06N94B
002028: 17,2117           04676                           TC       BANKCALL
002029: 17,2120           20720                           CADR     GOFLASH
002030: 17,2121           04106                           TC       GOTOPOOH                              #  TERM.
002031: 17,2122           02124                           TC       R56A                                  #  PROCEED - ANGLES OK
002032: 17,2123           02116                           TC       -5                                    #  ENTER - NEW ANGLES
002033: 17,2124           04676        R56A               TC       BANKCALL
002034: 17,2125           16004                           CADR     SXTMARK    +2                         #  INHIBIR EXT VB ACT AND FIND VAC AREA
002035:
002036: 17,2126           35035                           CAF      ZERO
002037: 17,2127           04676                           TC       BANKCALL
002038: 17,2130           20703                           CADR     CLEANDSP
002039:
002040: 17,2131           32203        R56A1              CAF      VB53                                  #  DISPLAY V53 REQUESTING ALTERNATE MARK
002041: 17,2132           04676                           TC       BANKCALL
002042: 17,2133           20564                           CADR     GOMARK2
002043: 17,2134           14106                           TCF      GOTOPOOH                              #  V34-TERMINATE
002044: 17,2135           12131                           TCF      R56A1                                 #  V33-DONT PROCEED-JUST ENTER TO MARK
002045: 17,2136           06006                           TC       INTPRET
002046: 17,2137           77745                           DLOAD
002047: 17,2140           03731                                    MRKBUF1    +3
002048: 17,2141           16774                           STODL    SAC
002049: 17,2142           03733                                    MRKBUF1    +5
002050: 17,2143           02776                           STORE    PAC
002051: 17,2144           77776                           EXIT
002052: 17,2145           00004                           INHINT
002053: 17,2146           00006                           EXTEND
002054: 17,2147           30025                           DCA      TIME2
002055: 17,2150           51330                           INDEX    MARKSTAT
002056: 17,2151           52001                           DXCH     0
002057: 17,2152           30033                           CA       CDUY                                  #  ENTER-THIS IS A BACKUP SYSTEM MARK
002058: 17,2153           51330                           INDEX    MARKSTAT
002059: 17,2154           54002                           TS       2
002060: 17,2155           31773                           CA       SAC
002061: 17,2156           51330                           INDEX    MARKSTAT
002062: 17,2157           54003                           TS       3
002063: 17,2160           30034                           CA       CDUZ
002064: 17,2161           51330                           INDEX    MARKSTAT
002065: 17,2162           54004                           TS       4
002066: 17,2163           31775                           CA       PAC
002067: 17,2164           51330                           INDEX    MARKSTAT
002068: 17,2165           54005                           TS       5
002069: 17,2166           30032                           CA       CDUX
002070: 17,2167           51330                           INDEX    MARKSTAT
002071: 17,2170           54006                           TS       6
002072: 17,2171           00003                           RELINT
002073: 17,2172           05552                           TC       CLEARMRK                              #  ENABLE EXTENDED VERBS
002074: 17,2173           34333                           CAF      OCT16
002075: 17,2174           04676                           TC       BANKCALL
002076: 17,2175           21045                           CADR     GOPERF1
002077: 17,2176           04106                           TC       GOTOPOOH                              #  TERM.
002078: 17,2177           12201                           TCF      R56B                                  #  PROCEED-MARK COMPLETED
002079: 17,2200           12126                           TCF      R56A       +2                         #  RECYCLE-DO ANOTHER MARK - LIKE REJECT
002080: 17,2201           04676        R56B               TC       BANKCALL
002081: 17,2202           31340                           CADR     R53C1
002082: 17,2203           15200        VB53               VN       05300                                 #  ALTERNATE MARK VERB
002083: 17,2204           01536        V06N94B            VN       00694
002084: 15,2000                                           SETLOC   P50S
002085: 15,2000                                           BANK
002086:
002087: 15,2340           02607        PLANET             STORE    TSIGHT
002088: 15,2341           45020                           STQ      CALL
002089: 15,2342           02777                                    QMIN
002090: 15,2343           30225                                    LOCSAM
002091: 15,2344           77775                           VLOAD
002092: 15,2345           02736                                    VEARTH
002093: 15,2346           24001                           STOVL    0D
002094: 15,2347           02744                                    VSUN
002095: 15,2350           26736                           STOVL    VEARTH
002096: 15,2351           00001                                    0D
002097: 15,2352           02744                           STORE    VSUN
002098: 15,2353           77776        NOSAM              EXIT
002099: 15,2354           47713                           CS       HIGH9
002100: 15,2355           70735                           MASK     STARCODE
002101: 15,2356           00006                           EXTEND
002102: 15,2357           76211                           MP       SIGHTSIX
002103: 15,2360           56001                           XCH      L
002104: 15,2361           50304                           INDEX    STARIND
002105: 15,2362           54302                           TS       BESTI
002106: 15,2363           10000                           CCS      A
002107: 15,2364           12401                           TCF      NOTPLAN
002108: 15,2365           32431                           CAF      VNPLANV
002109: 15,2366           04676                           TC       BANKCALL
002110: 15,2367           20720                           CADR     GOFLASH
002111: 15,2370           04106                           TC       GOTOPOOH
002112: 15,2371           02373                           TC       +2
002113: 15,2372           02365                           TC       -5
002114: 15,2373           06006                           TC       INTPRET
002115: 15,2374           74375                           VLOAD    VXSC
002116: 15,2375           03705                                    STARSAV3
002117: 15,2376           32433                                    1/SQR3
002118: 15,2377           52056                           UNIT     GOTO
002119: 15,2400           32424                                    CORPLAN
002120: 15,2401           40000        NOTPLAN            CS       A
002121: 15,2402           62430                           AD       DEC227
002122: 15,2403           00006                           EXTEND
002123: 15,2404           62415                           BZMF     CALSAM1
002124: 15,2405           50304                           INDEX    STARIND
002125: 15,2406           30302                           CA       BESTI
002126: 15,2407           50120                           INDEX    FIXLOC
002127: 15,2410           54046                           TS       X1
002128: 15,2411           06006                           TC       INTPRET
002129: 15,2412           52173                           VLOAD*   GOTO
002130: 15,2413           31763                                    CATLOG,1
002131: 15,2414           32424                                    CORPLAN
002132: 15,2415           06006        CALSAM1            TC       INTPRET
002133: 15,2416           70740                           LXC,1    DLOAD*
002134: 15,2417           00304                                    STARIND
002135: 15,2420           00303                                    BESTI,1
002136: 15,2421           76740                           LXC,1    VLOAD*
002137: 15,2422           00154                                    MPAC
002138: 15,2423           02372                                    STARAD     -228D,1
002139: 15,2424           53455        CORPLAN            VAD      UNIT
002140: 15,2425           03474                                    VEL/C
002141: 15,2426           77650                           GOTO
002142: 15,2427           02777                                    QMIN
002143: 15,2430           00343        DEC227             DEC      227        B-14
002144: 15,2431           01530        VNPLANV            VN       0688
002145: 15,2432           22363 11623  1/SQR3             2DEC     .57735021
002146:
002147:

End of include-file P51-P53.agc.  Parent file is MAIN.agc


