
Source Code


000002:                                                                                                  ## Copyright:   Public domain.
000003:                                                                                                  ## Filename:    P61-P67.agc
000004:                                                                                                  ## Purpose:     A section of Comanche revision 067.
000005:                                                                                                  ##              It is part of the reconstructed source code for the flight
000006:                                                                                                  ##              software for the Command Module's (CM) Apollo Guidance Computer
000007:                                                                                                  ##              (AGC) for Apollo 12. No original listings of this program are
000008:                                                                                                  ##              available; instead, this file was created via dissassembly of
000009:                                                                                                  ##              dumps of Comanche 067 core rope modules and comparison with
000010:                                                                                                  ##              other AGC programs.
000011:                                                                                                  ## Assembler:   yaYUL
000012:                                                                                                  ## Contact:     Ron Burkey <info@sandroid.org>.
000013:                                                                                                  ## Website:     www.ibiblio.org/apollo/index.html
000014:                                                                                                  ## Mod history: 2023-08-16 MAS  Created from Comanche 055.
000015:                                                                                                  ##              2024-05-13 MAS  Updated for Comanche 067.
000016:
000017:                                                                                                  #  PROGRAM:      P61
000018:                                                                                                  #  MOD NO.:      0       MAR. 13, 1967
000019:                                                                                                  #  MOD BY:       R. HIRSCHKOP
000020:                                                                                                  #  MOD NO: 1     MOD BY:  RR BAIRNSFATHER        DATE: 22 JUN 67         RESTARTS.
000021:                                                                                                  #  MOD NO: 2     MOD BY:  RR BAIRNSFATHER        DATE: 17 JAN 68         COLOSSUS GSOP CHANGES.
000022:                                                                                                  #  MOD NO: 3     MOD BY:  RR BAIRNSFATHER        DATE:  8 MAY 68         DELETE CMSM MANEUVER (PCR 50)
000023:                                                                                                  #  MOD NO: 4     MOD BY:  RR BAIRNSFATHER        DATE:  1 JUL 69         PCR 787: TICK TTE
000024:                                                                                                  #  FUNCTION:     TO CALCULATE AND DISPLAY EMS INITIALIZATION DATA
000025:                                                                                                  #  CALLING SEQUENCE-  BY V37
000026:                                                                                                  #  EXIT-         TO P62
000027:                                                                                                  #  SUBROUTINE CALLS-  S61.1, S61.3, GOFLASH, FLAGUP, R02BOTH
000028:                                                                                                  #  ERASABLE INITIALIZATION:
000029:                                                                                                  #        EMSALT (-29) M          .05G ALTITUDE ABOVE FISCHER ELLIPSOID   PAD LOADED.
000030:                                                                                                  #        ALFAPAD /180            HYPERSONIC CM TRIM ANGLE OF ATTACK      PAD LOADED
000031:                                                                                                  #  OUTPUT:       THE FOLLOWING REGISTERS ARE WRITTEN IN FOR USE BY DISPLAYS
000032:                                                                                                  #                GMAX    100 GMAX (-14) G,S      MAXIMUM ACCELERATION
000033:                                                                                                  #                VPRED   (-7) M/CS               PREDICTED VELOCITY AT 400K FT
000034:                                                                                                  #                GAMMAEI GAMMA/360               PREDICTED GAMMA    AT 400K FT
000035:                                                                                                  #                RTGO    THETAH/360              RANGE ANGLE TO SPLASH FROM EMSALT       EMSALT IS PAD LOADED
000036:                                                                                                  #                VIO     (-7) M/CS               INERTIAL VELOCITY AT       EMSALT       EMSALT IS PAD LOADED
000037:                                                                                                  #                TTE     (-28) CS                TIME TO                    EMSALT       EMSALT IS PAD LOADED
000038:                                                                                                  #                LAT(SPL) /360                   TARGET LOCATION                         LEFT BY DSKY
000039:                                                                                                  #                LNG(SPL) /360                   TARGET LOCATION                         LEFT BY DSKY
000040:                                                                                                  #                HEADSUP (0)                     +1 = LIFT DOWN, -1 = LIFT UP            LEFT BY DSKY
000041:                                                                                                  #  DEBRIS:       SEE SUBROUTINES.
000042:
000043: 26,2217                                           BANK     26
000044: 26,2000                                           SETLOC   P60S
000045: 26,2000                                           BANK
000046:
000047: 26,2217  E6,1661                                  EBANK=   AOG
000048:
000049: 26,2217                                           COUNT*   $$/P61
000050:
000051: 26,2217           35016        P61                CA       BIT14                                 #  EXTENDED VERB SHOULD BE FREE THIS CLOSE
000052: 26,2220           55044                           TS       EXTVBACT                              #  TO V37
000053:                                                                                                  #  LOCK OUT EXTENDED VERBS SO CAN USE TFF
000054:                                                                                                  #  ROUTINES.  EXT VERB ERASE IS USED
000055:
000056: 26,2221           45033                           CS       ONE                                   #  REMOVE IF HEADSUP EVER ON UPLINK DATA
000057: 26,2222           55726                           TS       HEADSUP                               #  PRELOAD
000058:
000059: 26,2223           02537                           TC       S61.1                                 #  CHECK STATE VECTOR AND IMU ORIENTATION
000060:                                                                                                  #  RV 60GENRET. DOES PHASCHNG, GROUP 4.
000061:
000062: 26,2224           32420                           CA       V06N61                                #  LAT(SPL)      LNG(SPL)        HEADSUP
000063:                                                                                                  #  XXX.XX DEG    XXX.XX DEG      XXXXX.
000064: 26,2225           04676                           TC       BANKCALL
000065: 26,2226           21057                           CADR     GOFLASHR
000066: 26,2227           04106                           TC       GOTOPOOH
000067: 26,2230           02235                           TC       P61.4
000068: 26,2231           02224                           TC       -5
000069:
000070: 26,2232           05426        P61.3              TC       PHASCHNG
000071: 26,2233           00014                           OCT      00014
000072:
000073: 26,2234           05233                           TC       ENDOFJOB
000074:
000075: 26,2235           22007        P61.4              ZL
000076: 26,2236           11726                           CCS      HEADSUP                               #  C(HEADSUP)= +1/-1
000077: 26,2237           35016                           CA       BIT14                                 #  IF HEADSUP POS,ROLLC =180 DEG.(LIFT DWN)
000078: 26,2240           12241                           NOOP                                           #  IF HEADSUP NEG,ROLLC =0 (LIFT UP)
000079: 26,2241           53716                           DXCH     ROLLC                                 #  ROLLC IS USED BY S62.3: GIM ANG AT .05G
000080:
000081: 26,2242           35016        AGIN,MON           CA       BIT14                                 #  LOCK OUT EXTENDED VERBS.(REDUNDANT ON
000082: 26,2243           55044                           TS       EXTVBACT                              #   INITIAL PASS)
000083:
000084: 26,2244           06006                           TC       INTPRET
000085: 26,2245           77745        NEWRNVN            DLOAD
000086: 26,2246           01205                                    PIPTIME                               #  SAVE TIME OF RN,VN TO DETERMINE IF AN
000087: 26,2247           37651                           STCALL   MM                                    #  UPDATE HAS OCCURRED
000088: 26,2250           52063                                    STARTEN1                              #  INITIALIZE
000089: 26,2251           43175                           VLOAD    CLEAR                                 #  'TTE' WILL BE DECREMENTED UNTIL
000090: 26,2252           01171                                    RN
000091: 26,2253           03274                                    .05GSW                                #  THE DRAG > 0.05 G .
000092:                                                                                                  #  .05GSW SET =1 BY  FRESH START.
000093: 26,2254           02327                           STORE    RONE
000094: 26,2255           77656                           UNIT
000095: 26,2256           26343                           STOVL    URONE
000096: 26,2257           01177                                    VN
000097: 26,2260           02335                           STORE    VONE
000098: 26,2261           53435                           VXV      UNIT
000099: 26,2262           02343                                    URONE
000100: 26,2263           03502                           STORE    UNI
000101: 26,2264           45345        DUMPP61            DLOAD    DSU
000102: 26,2265           03651                                    MM                                    #  INITIAL VALUE OF PIPTIME
000103: 26,2266           01205                                    PIPTIME
000104: 26,2267           45040                           BMN      CALRB
000105: 26,2270           54245                                    NEWRNVN                               #  UPDATED... GO TRY AGAIN
000106: 26,2271           54644                                    S61.2                                 #  GET DISPLAY DATA FOR N60 AND N63
000107:                                                                                                  #  AND RETURN IN BASIC, BELOW.
000108: 26,2272           05552        P61.1              TC       CLEARMRK
000109: 26,2273           32417                           CA       V06N60                                #  GMAX          VPRED           GAMMAEI
000110:                                                                                                  #  XXX.XX G      XXXXX. FPS      XXX.XX DEG
000111: 26,2274           04676                           TC       BANKCALL
000112: 26,2275           20720                           CADR     GOFLASH
000113:
000114: 26,2276           04106                           TC       GOTOPOOH
000115: 26,2277           02301                           TC       +2                                    #  PROCEED
000116: 26,2300           02273                           TC       -5
000117:
000118:                                                                                                  #  'TICKTTE' DECREMENTS 'TTE' DISPLAY NOUN N63 AT A 2 SECOND RATE. 'TICKTTE' IS LOCATED IN 'SERVICER' AND
000119:                                                                                                  #  OPERATES ONLY DURING P61 THROUGH P63. THUS N63 IS 'ON CALL' & ON ENTRY  DOWNLIST THROUGH P63.
000120:                                                                                                  #  'TICKTTE' WILL GIVE PROPER ANSWER IN EVENT OF RESTART OR A RECYCLE VIA   V32.
000121:
000122: 26,2301           32421                           CA       V16N63                                #  RTGO          VIO             TTE
000123:                                                                                                  #  XXXX.X NM     XXXXX. FPS      XXBXX M,S
000124: 26,2302           04676                           TC       BANKCALL
000125: 26,2303           20720                           CADR     GOFLASH
000126: 26,2304           04106                           TC       GOTOPOOH
000127: 26,2305           02307                           TC       +2
000128: 26,2306           02242                           TC       AGIN,MON                              #  REDO CONIC CALC. ASSUME EXT VB INACTIVE
000129:
000130:                                                                                                  #                .... THEN FALL INTO P62
000131:
000132:                                                                                                  #  PROGRAM-      P62
000133:                                                                                                  #  MOD NO.-      0       MAR. 13, 1967
000134:                                                                                                  #  MOD BY-       R. HIRSCHKOP
000135:                                                                                                  #  MOD NO:  1    MOD BY:  RR BAIRNSFATHER        DATE: 21 MAR 67
000136:                                                                                                  #  MOD NO:  2    MOD BY:  RR BAIRNSFATHER        DATE: 22 JUN 67         RESTARTS.
000137:                                                                                                  #  MOD NO:  3    MOD BY:  RR BAIRNSFATHER        DATE: 17 JAN 68         COLOSSUS GSOP CHANGES.
000138:                                                                                                  #  MOD NO:  4    MOD BY:  RR BAIRNSFATHER        DATE:  8 MAY 68         MOVE START OF DESIRED GIMBAL CALC.
000139:                                                                                                  #  FUNCTION-     1) TO NOTIFY CREW WHEN GNC SYSTEM IS PREPARED FOR CM/SM SEPARATION
000140:                                                                                                  #                2) TO ORIENT THE CM TO THE CORRECT ATTITUDE FOR ATMOSPHERIC ENTRY
000141:                                                                                                  #  CALLING SEQUENCE-  BY V37 OR DIRECTLY FROM P61
000142:                                                                                                  #  EXIT-         TO P63
000143:                                                                                                  #  ERASABLE INITIALIZATION:
000144:                                                                                                  #        ALFAPAD                                         LEFT BY PAD LOAD
000145:                                                                                                  #        LADPAD                                          LEFT BY PAD LOAD
000146:                                                                                                  #        LODPAD                                          LEFT BY PAD LOAD
000147:                                                                                                  #        LAT(SPL)        (MAY BE CHANGED BELOW)          LEFT BY DSKY, VIA P61
000148:                                                                                                  #        LNG(SPL)        (MAY BE CHANGED BELOW)          LEFT BY DSKY, VIA P61
000149:                                                                                                  #        HEADSUP         (MAY BE CHANGED BELOW)          LEFT BY DSKY, VIA P61
000150:                                                                                                  #  SUBROUTINE CALLS:  NEWMODEX, S61.1, CM/DAPIC, CM/DAPON, R02BOTH, GOPERF1, GOFLASH, GODSPR
000151:
000152: 26,2307                                           COUNT*   $$/P62
000153:
000154: 26,2307           05370                           TC       NEWMODEX                              #  MODE CHANGE IF CAME FROM P61.
000155: 26,2310           00076                           MM       62         B-14                       #  MODE CHANGE AUTOMATIC VIA V 37.
000156: 26,2311           35033                           CA       ONE
000157: 26,2312           54332                           TS       DNLSTCOD
000158:
000159: 26,2313           02537        P62                TC       S61.1                                 #  CHECK STATE VECTOR AND IMU ORIENTATION.
000160:
000161: 26,2314           06006                           TC       INTPRET
000162: 26,2315           47131                           SSP      RTB
000163: 26,2316           03325                                    POSEXIT
000164: 26,2317           54374                                    P62.3                                 #  CALCULATE DESIRED .05G GIMBAL ANGLES,
000165:                                                                                                  #  WITHOUT DISPLAY.
000166: 26,2320           41731                                    CM/DAPIC                              #  START CM/POSE AND BODY RATE CALC
000167:
000168:                                                                                                  #  DOES 2PHSCHNG, OCT 40116, OCT 05024, OCT 13000.
000169:                                                                                                  #  CM/DAPIC SETS EBANK = EBAOG
000170:                                                                                                  #  AND RETURNS IN BASIC TO P62.2.
000171: 26,2321           00006        P62.2              EXTEND
000172: 26,2322           32425                           DCA      POSECADR                              #  CONTINUE WITH CM/POSE AFTER AV G.
000173: 26,2323           53223                           DXCH     AVEGEXIT
000174:
000175: 26,2324           34270                           CAF      OCT41                                 #  REQUEST SEPARATION
000176: 26,2325           04676                           TC       BANKCALL
000177: 26,2326           21125                           CADR     GOPERF1R
000178: 26,2327           04106                           TC       GOTOPOOH
000179: 26,2330           02333                           TC       +3                                    #  PROCEED
000180:                                                                                                  #  NOTE:  NODOFLAG WILL BE SET IN CM/DAPON. <<<
000181: 26,2331           02324                           TC       -5                                    #  ENTER
000182: 26,2332           02232                           TC       P61.3                                 #  FOR PHASCHNG AND ENDOFJOB.
000183:
000184: 26,2333           04715                 +3        TC       POSTJUMP
000185: 26,2334           41651                           CADR     CM/DAPON                              #  DISABLE RCS DAP, ENABLE ENTRY DAP AND
000186:                                                                                                  #  DO ATTITUDE HOLD.
000187:
000188:                                                                                                  #  WILL IDLE UNTIL CM/POSE DOES ONE UPDATE.
000189:                                                                                                  #  CM/DAPON DOES NO PHASCHNG.
000190:
000191: 26,2335           32420        P62.1              CA       V06N61                                #  LAT(SPL)      LNG(SPL)        HEADSUP
000192:                                                                                                  #  XXX.XX DEG    XXX.XX DEG      0000X.
000193:
000194:                                                                                                  #  TERMINATE ATTITUDE HOLD.  SET UP COMMANDS:
000195:                                                                                                  #  ROLLC, ALFACOM, BETACOM.  BEGIN MANUVER TO
000196:                                                                                                  #  ENTRY ATTITUDE.
000197:
000198: 26,2336           04676                           TC       BANKCALL
000199: 26,2337           20720                           CADR     GOFLASH
000200: 26,2340           02335                           TC       -3
000201: 26,2341           02343                           TC       +2
000202: 26,2342           02335                           TC       -5
000203:
000204: 26,2343           05426                           TC       PHASCHNG
000205: 26,2344           04024                           OCT      04024                                 #  USE ENTRYVN FOR DISPLAY BELOW.
000206:                                                                                                  #  EBANK WAS SET IN CM/DAPON TO EBAOG
000207:
000208: 26,2345           11726                           CCS      HEADSUP                               #  C(HEADSUP) = +/- 1
000209: 26,2346           35016                           CA       BIT14                                 #  IF HEADSUP POS, ROLLC=180 DEG (LIFT DWN)
000210: 26,2347           12350                           NOOP                                           #  IF HEADSUP NEG, ROLLC=0 DEG (LIFT UP)
000211: 26,2350           55715                           TS       ROLLC
000212: 26,2351           31411                           CA       ALFAPAD                               #  NOMINAL ALFATRIM PAD LOADED, NEG. NO.
000213: 26,2352           22007                           ZL
000214: 26,2353           53604                           DXCH     ALFACOM                               #  SET ALFACOM = ALFA TRIM, BETACOM=0
000215:
000216: 26,2354           35033                           CA       ONE                                   #  PERMITS EXDAP2 TO CHANGE FLAG TO +0
000217: 26,2355           55727                           TS       P63FLAG                               #  AS INDICATOR.  STARTS UP P63.
000218:
000219: 26,2356           35066                           CA       V06N22                                #  SET UP DISPLAY FOR CDU DESIRED VALUES
000220: 26,2357           55263                           TS       ENTRYVN                               #  FROM ENTRY ATTITUDE CALC, THAT IS
000221:                                                                                                  #  ALREADY GOING.
000222: 26,2360           05562                           TC       UPFLAG                                #  TURN ON ENTRY DISPLAY
000223: 26,2361           00134                           ADRES    ENTRYDSP                              #  ENTRYDSP = 92D BIT 13 FLAG 6
000224:                                                                                                  #  SKIP
000225: 26,2362           41700                           CS       CMDAPMOD                              #  GO DIRECTLY TO P63 IF BODY ATTITUDE
000226: 26,2363           75033                           MASK     ONE                                   #  IS SUCH THAT THE DELAY TASK: WAKEP62
000227: 26,2364           00006                           EXTEND                                         #  WILL BE OMITTED.
000228: 26,2365           12414                           BZF      P63.1                                 #  DISABLE GRP 4, GO TO ENDOFJOB.
000229:                                                                                                  #  (IE, CONTINUE IF CMDAPMOD = -1, OR +0)
000230: 26,2366           02400                           TC       P63
000231:
000232:                                                                                                  #  PUT JOB TO SLEEP UNTIL VEHICLE MANUVER HAS
000233:                                                                                                  #  REDUCED ALFA TO +/-45 DEG. CONSIDER REMAINING
000234:                                                                                                  #  65 DEG (25 DEG IF ALFA NEG) TO ALFA TRIM TO
000235:                                                                                                  #  OCCUR AT 3 DEG/SEC, AND TERMINATE P62 AT THAT
000236:                                                                                                  #  TIME.
000237:
000238:                                                                                                  #  TASK WAKEP62 IS CALLED FROM ENTRY DAP.
000239: 26,2367           35101        WAKEP62            CA       PRIO13
000240: 26,2370           05150                           TC       NOVAC
000241: 26,2371  E6,1661                                  EBANK=   AOG
000242: 26,2371           02400 54066                     2CADR    P63
000243:
000244: 26,2373           05340                           TC       TASKOVER
000245:
000246:                                                                                                  #  EACH 2 SEC, CALCULATE GIMBAL ANGLES FOR ENTRY CON-
000247:                                                                                                  #  DITIONS THAT WILL HOLD IF REORIENTATION WERE MADE
000248:                                                                                                  #  AT PRESENT RN, VN.  COME HERE FROM CM/POSE AND ALSO
000249:                                                                                                  #  IN KEPLER PHASE OF ENTRY.
000250:
000251: 26,2374           52131        P62.3              SSP      GOTO                                  #  SET RETURN ADDRESS SO THAT ROUTINE
000252: 26,2375           00053                                    QPRET                                 #  GOES DIRECTLY TO ENTRY GUIDANCE EXIT
000253: 26,2376           53576                                    ENDEXIT                               #  THAT DOES ENTRY DISPLAY, GRP 5.
000254: 26,2377           20376                                    S62.3                                 #  PUT DESIRED CDU VALUES IN CPHI'S FOR
000255:                                                                                                  #  N22 DISPLAY.
000256:
000257:                                                                                                  #        P63
000258:                                                                                                  #  PROGRAM-      P63
000259:                                                                                                  #  MOD NO.-      0       MAR. 13, 1967
000260:                                                                                                  #  MOD BY-       R. HIRSCHKOP
000261:                                                                                                  #  MOD NO: 1     MOD BY: RR BAIRNSFATHER         DATE: 22 JIN 67         RESTARTS.
000262:                                                                                                  #  MOD NO: 2     MOD BY: RR BAIRNSFATHER         DATE: 14 JUL 67         REVISED RESTARTS
000263:                                                                                                  #  FUNCTION-     1) TO INITIALIZE THE ENTRY EQUATIONS
000264:                                                                                                  #                2) TO CONTINUE TO HOLD THE CM TO THE CORRECT ATTITUDE WITH RESPECT TO THE ATMOSPHERE FOR
000265:                                                                                                  #                   THE ONSET OF ENTRY DECELERATION.  ROLL ANGLE IS LIFT UP/DOWN AS SPECIFIED BY HEADSUP.
000266:                                                                                                  #                3) TO SENSE .05 G
000267:                                                                                                  #  CALLING SEQUENCE-  DIRECTLY FROM P62
000268:                                                                                                  #  EXIT-         TO ENDOFJOB
000269:                                                                                                  #  SUBROUTINE CALLS-  NEWMODEX, GODSPR
000270:
000271: 26,2400                                           COUNT*   $$/P63
000272:
000273: 26,2400           05370        P63                TC       NEWMODEX
000274: 26,2401           00077                           MM       63         B-14
000275:
000276:                                                                                                  #  ARRIVE WITH EBANK = AOG.
000277:
000278: 26,2402           32423                           CA       ENTCADR                               #  CONTINUE AT STARTENT AFTER CM/POSE.
000279:
000280:                                                                                                  #  AT END OF STARTENT, CHANGE ADDRESS IN GOTOADDR
000281:                                                                                                  #  TO CONTINUE AT SCALEPOP THEREAFTER.
000282:
000283: 26,2403           55724                           TS       POSEXIT
000284:
000285: 26,2404           32422                           CA       V06N64                                #  G             VI              R TO SPLSH
000286:                                                                                                  #  XXX.XX G      XXXXX. FPS      XXXX.X NM
000287: 26,2405           55263                           TS       ENTRYVN                               #  FOR DISPLAY CALL IN OVERNOUT.
000288:
000289: 26,2406           45033                           CS       ONE                                   #  IN CASE FLAG IS LEFT AT +1 BY DAP.  THE
000290: 26,2407           55727                           TS       P63FLAG                               #  -1 ASSURES THAT EXO-ATM DAP WILL NOT
000291:                                                                                                  #  CALL P63 OUT OF SEQUENCE IN P66.
000292:
000293: 26,2410           05426                           TC       PHASCHNG                              #  THIS IS REQUIRED TO PRESERVE CLEANDSP
000294: 26,2411           00004                           OCT      00004                                 #  RETURN IN EVENT OF AN EXTENDED VERB..
000295:
000296: 26,2412           04676                           TC       BANKCALL                              #  FLUSH 'N22' DISPLAY, IF ON. (OMIT
000297: 26,2413           20703                           CADR     CLEANDSP                              #  DISPLAY DURING 'STARTENT' PASS.)
000298:
000299: 26,2414           05426        P63.1              TC       PHASCHNG
000300: 26,2415           00004                           OCT      00004                                 #  DISABLE.  DISPLAY RESTARTED VIA ENTRY.
000301:
000302: 26,2416           05233                           TC       ENDOFJOB
000303:
000304: 26,2417           01474        V06N60             VN       0660
000305: 26,2420           01475        V06N61             VN       0661
000306: 26,2421           04077        V16N63             VN       1663
000307: 26,2422           01500        V06N64             VN       0664
000308: 26,2423           52000        ENTCADR            CADR     STARTENT
000309:
000310: 26,2424  E7,1451                                  EBANK=   RTINIT                                #  TO CARY OVER INTO ENTRY STEERING.
000311: 26,2424           03473 76067  POSECADR           2CADR    CM/POSE
000312:
000313:                                                                                                  #  PROGRAM-      P64
000314:                                                                                                  #  MOD NO.-      1       SEPT. 19, 1967
000315:                                                                                                  #  MOD BY-       R. HIRSCHKOP
000316:                                                                                                  #  MOD NO: 2     MOD BY: RR BAIRNSFATHER         DATE: 8 MAY 68          REVISED COMMENTS FOR COLOSSUS
000317:                                                                                                  #  MOD NO: 3     MOD BY: RR BAIRNSFATHER         DATE: 1 MAR '69  N74
000318:                                                                                                  #  FUNCTION-     1.  TO START ENTRY GUIDANCE AT .05G SELECTING ROLL ATTITUDE, CONSTANT DRAG LEVEL, AND
000319:                                                                                                  #                    DRAG THRESHOLD, KA, WHICH ARE KEYED TO THE .05G POINT.
000320:                                                                                                  #                2.  SELECT FINAL PHASE P67 IF V < 27000 FPS WHEN .2G OCCURS.
000321:                                                                                                  #                3.  ITERATE FOR UP-CONTROL SOLUTION P65 IF V > 27000 FPS AND IF ALTITUDE RATE AND DRAG
000322:                                                                                                  #                    LEVEL CONDITIONS ARE SATISFIED.  ENTER P65 WHEN CONSTANT DRAG CONTROLLER HAS BROUGHT RANGE
000323:                                                                                                  #                    AS PREDICTED TO WITHIN 25 NM OF DESIRED RANGE.
000324:                                                                                                  #                4.  SELECT FINAL PHASE  P67  IF NO UP-CONTROL SOLUTION EXISTS WITH VL > 18000 FPS.
000325:                                                                                                  #  CALLING SEQUENCE-  BY RTB FROM REENTRY CONTROL
000326:                                                                                                  #  EXIT-         BACK TO REENTRY CONTROL
000327:                                                                                                  #  SUBROUTINE CALLS-  NEWMODEX
000328:
000329: 25,2000                                           BANK     25
000330: 26,2000                                           SETLOC   P60S1
000331: 26,2000                                           BANK
000332:
000333:                                                                                                  #  THIS DISPLAY IS CALLED EACH PASS THROUGH STEERING.  RESTART PROTECTION IS VIA STEERING.
000334:
000335: 26,2426                                           COUNT*   $$/P64
000336:
000337: 26,2426           05370        P64                TC       NEWMODEX                              #  ENTER VIA RTB WHEN .05G IS EXCEEDED.
000338: 26,2427           00100                           MM       64         B-14
000339: 26,2430           32433                           CA       V06N74                                #  ROLLC         VI              D
000340:                                                                                                  #  XXX.XX DEG    XXXXX. FPS      XXX.XX G
000341: 26,2431           55263                           TS       ENTRYVN                               #  DISPLAY VIA OVERNOUT.
000342:
000343: 26,2432           06030                           TC       DANZIG                                #  ... AND CONTINUE IN INITROLL ...
000344:
000345: 26,2433           01512        V06N74             VN       0674
000346:
000347:                                                                                                  #  PROGRAM:      P65
000348:                                                                                                  #  MOD NO:  0    MOD BY:  RR BAIRNSFATHER        DATE:  17 JAN 68        COLOSSUS GSOP ADDITION.
000349:                                                                                                  #  FUNCTION:     TO CONTINUE ENTRY GUIDANCE, USING THE UP-CONTROL PHASE TO STEER TO A CONTROLLED EXIT
000350:                                                                                                  #                CONDITION.  THIS PHASE TERMINATES  A) IF D < Q7 FPSS, GO TO P66   ,
000351:                                                                                                  #                                                   B) IF RDOT NEG, AND IF V < VL +500 FPS, GO TO P67.
000352:                                                                                                  #  CALLING SEQUENCE:  BY RTB FROM REENTRY CONTROL
000353:                                                                                                  #  EXIT:         BACK TO REENTRY CONTROL, OR TO ENDOFJOB.
000354:                                                                                                  #  SUBROUTINE CALLS:  NEWMODEX
000355:
000356: 26,2434                                           COUNT*   $$/P65
000357:
000358: 26,2434           05370        P65                TC       NEWMODEX                              #  ENTER VIA RTB WHEN RANGE < 25 N M OF
000359: 26,2435           00101                           MM       65         B-14                       #  TARGET.
000360:
000361: 26,2436           35101                           CA       PRIO13
000362: 26,2437           05150                           TC       NOVAC
000363: 26,2440     1263                                  EBANK=   ENTRYVN
000364: 26,2440           02452 54062                     2CADR    P65.1
000365:
000366: 26,2442           05406                           TC       2PHSCHNG                              #  2 PHASE CHG REQUIRED TO PREVENT RE-
000367: 26,2443           00554                           OCT      00554                                 #  STARTING FLASHING DISPLAY TWICE.
000368: 26,2444           10035                           OCT      10035                                 #  4.55 SPOT AND SERVICER, HERE.
000369: 26,2445           06006                           TC       INTPRET
000370: 26,2446           47131                           SSP      RTB
000371: 26,2447           03646                                    GOTOADDR                              #  CHANGE ENTRY MODE TO UPCONTRL.
000372: 26,2450           53035                                    UPCONTRL
000373: 26,2451           52120                                    REFAZE10                              #  GO HERE TO REESTABLISH ENTRY SEQUENCER.
000374:                                                                                                  #  AND CONTINUE AT UPCONTRL...
000375:
000376: 26,2452           05574        P65.1              TC       DOWNFLAG
000377: 26,2453           00134                           ADRES    ENTRYDSP                              #  ENTRYDSP = 92D BIT 13 FLAG 6
000378:
000379: 26,2454           32466                           CA       V16N69                                #  ROLLC         DL (Q7)         VL
000380: 26,2455           04676                           TC       BANKCALL                              #  XXX.XX DEG    XXX.XX G        XXXXX. FPS
000381: 26,2456           21057                           CADR     GOFLASHR
000382: 26,2457           02454                           TC       -3                                    #  NODOFLAG IS SET..
000383: 26,2460           02463                           TC       +3
000384: 26,2461           02454                           TC       -5
000385: 26,2462           02232                           TC       P61.3                                 #  EST. GRP 4 FOR DSPLAY AND DO ENDOFJOB
000386:                                                                                                  #  IF PROCEED, CONTINUE.
000387: 26,2463           05562                           TC       UPFLAG
000388: 26,2464           00134                           ADRES    ENTRYDSP                              #  ENTRYDSP = 92D BIT 13 FLAG 6
000389:
000390: 26,2465           02414                           TC       P63.1                                 #  DISABLE GRP 4,START UP ENTRY DISPLAY
000391:                                                                                                  #  N06V68 VIA OVERNOUT, AS USED IN P64.
000392: 26,2466           04105        V16N69             VN       1669
000393:
000394:                                                                                                  #  PROGRAM:      P66
000395:                                                                                                  #  MOD NO: 0     MOD BY: RR BAIRNSFATHER         DATE: 17 JAN 68         COLOSSUS GSOP ADDITIONS.
000396:                                                                                                  #  FUNCTION:     KEEP CM ATTITUDE IN TRIM TO THE RELATIVE VELOCITY VECTOR.  ENTRY GUIDANCE STOPS GENERATING
000397:                                                                                                  #                ROLL COMMANDS UNTIL DRAG BUILDS UP TO Q7+0.5 FPSS.
000398:                                                                                                  #  CALLING SEQUENCE:  VIA RTB FROM REENTRY CONTROL.
000399:                                                                                                  #  EXIT:         BACK TO REENTRY CONTROL.
000400:                                                                                                  #  SUBROUTINE CALLS:  NEWMODEX
000401:
000402: 26,2467                                           COUNT*   $$/P66
000403:
000404: 26,2467           05370        P66                TC       NEWMODEX                              #  ENTER VIA RTB WHEN D < Q7 FPSS
000405: 26,2470           00102                           MM       66         B-14
000406:
000407: 26,2471           35066                           CA       V06N22                                #  OGA           IGA             MGA
000408:                                                                                                  #  XXX.XX DEG    XXX.XX DEG      XXX.XX DEG
000409: 26,2472           02476                           TC       P66END                                #  IN CASE CAME FROM P65, GO DISABLE GRP4,
000410:                                                                                                  #  AND SET ENTRYDSP TO DO DISPLAY VIA
000411:                                                                                                  #  OVERNOUT.
000412:
000413:                                                                                                  #  ... AND CONTINUE AT KEP2
000414:
000415:                                                                                                  #  P67
000416:
000417:                                                                                                  #  PROGRAM-      P67
000418:                                                                                                  #  MOD NO.-      0       MAR. 16, 1967
000419:                                                                                                  #  MOD BY-       R. HIRSCHKOP
000420:                                                                                                  #  FUNCTION-     TO TERMINATE STEERING WHEN THE CM VELOCITY WRT EARTH = 1000 FT/SEC
000421:                                                                                                  #  CALLING SEQUENCE-
000422:                                                                                                  #  EXIT-         TO POOH
000423:                                                                                                  #  SUBROUTINE CALLS-  GOFLASH
000424:
000425:                                                                                                  #  THIS DISPLAY IS CALLED EACH PASS THROUGH STEERING.  RESTART PROTECTION IS VIA STEERING.
000426:
000427: 26,2473                                           COUNT*   $$/P67
000428:
000429: 26,2473           05370        P67                TC       NEWMODEX                              #  ENTER VIA RTB
000430: 26,2474           00103                           MM       67         B-14
000431: 26,2475           32504                           CA       V06N66                                #  ROLLC         XRNGERR         DNRNGERR
000432:                                                                                                  #  XXX.XX DEG    XXXX.X NM       XXXX.X NM
000433: 26,2476           55263        P66END             TS       ENTRYVN                               #  DISPLAY VIA OVERNOUT.
000434:
000435: 26,2477           05562                           TC       UPFLAG                                #  (IN CASE CAME FROM P65.  ENTRY DISPLAY
000436: 26,2500           00134                           ADRES    ENTRYDSP                              #  WILL FLUSH FLASHING DISP.  IF STILL ON)
000437:                                                                                                  #  BIT 13 FLAG 6
000438: 26,2501           05426        KILLGRP4           TC       PHASCHNG                              #  DISABLE GRP4, IN CASE CAME FROM HUNTEST.
000439: 26,2502           00004                           OCT      00004                                 #  (COME TO KILLGRP4 VIA RTB, RET TO CALLER)
000440:
000441: 26,2503           06030                           TC       DANZIG                                #  ... AND CONTINUE AT PREDICT3 ...
000442:
000443: 26,2504           01502        V06N66             VN       0666
000444:
000445: 26,2505                                           BANK     26
000446: 26,2000                                           SETLOC   P60S2
000447: 26,2000                                           BANK
000448:
000449: 26,2505           32536        P67.1              CA       V16N67                                #  RTOGO         LAT             LONG
000450:                                                                                                  #  XXXX.X NM     XXX.XX DEG      XXX.XX DEG
000451: 26,2506           04676                           TC       BANKCALL
000452: 26,2507           20720                           CADR     GOFLASH
000453: 26,2510           02513                           TC       +3                                    #  EFFECTIVE GOTOPOOH
000454: 26,2511           02513                           TC       +2
000455: 26,2512           02505                           TC       P67.1                                 #  REDO
000456:
000457: 26,2513           46214                           CS       THREE                                 #  TURN OFF ENTRY DAP
000458: 26,2514           00004                           INHINT
000459: 26,2515           70102                           MASK     CM/FLAGS                              #  CM/DSTBY, GAMDIFSW
000460: 26,2516           54102                           TS       CM/FLAGS
000461: 26,2517           00003                           RELINT
000462: 26,2520           00006                           EXTEND
000463: 26,2521           32636                           DCA      SERVCAD2
000464:
000465: 26,2522           53223                           DXCH     AVEGEXIT
000466:
000467: 26,2523           14106                           TCF      GOTOPOOH
000468:
000469: 26,2524           43175        P67.2              VLOAD    CLEAR                                 #  CALC PRESENT LAT, LONG, ALT.
000470: 26,2525           01171                                    RN
000471: 26,2526           00662                                    ERADFLAG                              #  USE PAD RAD FOR ALT. (NOT SEEN ANYWAY)
000472: 26,2527           16152                           STODL    ALPHAV
000473: 26,2530           01205                                    PIPTIME                               #  USE TIME OF RN
000474: 26,2531           45014                           CLEAR    CALL
000475: 26,2532           01663                                    LUNAFLAG
000476: 26,2533           26400                                    LAT-LONG
000477: 26,2534           77634        P67.3              RTB                                            #  ENTRY EXIT THAT OMITS DISPLAY.
000478: 26,2535           53611                                    SERVNOUT
000479:
000480: 26,2536           04103        V16N67             VN       1667
000481: 26,2537     4270               OCT41              =        33DEC
000482: 26,2537  26,2635               SERVCAD2           =        SERVCAD1
000483:
000484:                                                                                                  #  SUBROUTINE NAME:      S61.1
000485:                                                                                                  #  MOD NO:       0                                       DATE:           21 FEB 67
000486:                                                                                                  #  MOD BY:       RR BAIRNSFATHER                         LOG SECTION:    P61-P67
000487:                                                                                                  #  MOD NO:       1       MOD BY: RR BAIRNSFATHER         DATE:           22 JUN 67       RESTARTS.
000488:
000489:                                                                                                  #  FUNCTIONAL DESCRIPTION:       CALLED BY BOTH P61 AND P62
000490:                                                                                                  #        FIRST, TEST TO SEE IF  AVERAGEG  IS ON.  IF NOT, UPDATE THE STATE VECTOR TO PRESENT TIME + TOLERANCE
000491:                                                                                                  #        AND TURN ON  AVERAGEG  AT THAT TIME, AND CONTINUE.  OTHERWISE CONTINUE:  SEE IF IMU Y AXIS IS
000492:                                                                                                  #        WITHIN 30 DEG OF V*R.  IF YES, EXIT SUBROUTINE S61.1.  IF NO, SEE IF -Y AXIS OF IMU IS WITHIN
000493:                                                                                                  #        30 DEG OF V*R.  IF YES, DISPLAY ALARM:  01427   IMU REVERSED.
000494:                                                                                                  #                        IF NO, DISPLAY ALARM:   01426   IMU UNSATISFACTORY.
000495:                                                                                                  #        IN EITHER OF THESE LAST 2 CASES, WAIT 10 SEC AND THEN EXIT SUBROUTINE S61.1.
000496:
000497:                                                                                                  #  REMARK:       THERE WILL BE A SHORT 10 SEC DELAY IF AN ALARM EXIT IS TAKEN.  THE DELAY FOR INTEGRATION IS
000498:                                                                                                  #                AS SHORT AS CAN BE MADE, BUT IS ARBITRARY SINCE IT DEPENDS ON THE AGE OF THE STATE VECTOR.
000499:
000500:                                                                                                  #  CALLING SEQUENCE:     CALL
000501:                                                                                                  #                                S61.1
000502:
000503:                                                                                                  #                        C(MPAC) UNSPECIFIED
000504:                                                                                                  #                        PUSHLOC UNSPECIFIED
000505:
000506:                                                                                                  #  SUBROUTINES CALLED:   LOADTIME, CSMPREC, TPAGREE,
000507:                                                                                                  #                        WAITLIST, JOBSLEEP, JOBWAKE, PREREAD, ALARM, GODSPR, BANKCALL, DELAYJOB
000508:
000509:                                                                                                  #  NORMAL EXIT MODES:    RVQ
000510:
000511:                                                                                                  #  ALARMS:       01426   IMU UNSATISFACTORY
000512:                                                                                                  #                01427   IMU REVERSED
000513:
000514:                                                                                                  #  OUTPUT:       POSSIBLE ALARMS
000515:                                                                                                  #                POSSIBLY TDEC1, RATT, VATT, RN, VN
000516:
000517:                                                                                                  #  ERASABLE INITIALIZATION REQUIRED:
000518:                                                                                                  #        AVEGFLAG                AVERAGEG ON OR OFF                              LEFT BY SERVICER
000519:                                                                                                  #        PIPTIME   (-28) CS      TIME OF PIPA UPDATE                             LEFT BY READACCS
000520:                                                                                                  #        RN        (-29) M       STATE VECTOR                                    LEFT BY AVERAGEG
000521:                                                                                                  #        VN        (-7) M/CS     STATE VECTOR                                    LEFT BY AVERAGEG
000522:                                                                                                  #        REFSMMAT  (-1)          .5 REF TO SM MATRIX                             LEFT BY LAST IMU ALIGNMENT
000523:
000524:                                                                                                  #  DEBRIS:       QPRET
000525:                                                                                                  #                POSSIBLY PIPTIME1, RATT, VATT, TDEC1, RN1, VN1, QTEMP, X1       IF UPDATED
000526:                                                                                                  #                PUSH LIST LOCS USED BY CSMPREC
000527:
000528: 26,2537  E6,1661                                  EBANK=   AOG                                   #  FOR 60GENRET, S61DT
000529: 26,2537                                           BANK     26
000530: 26,2000                                           SETLOC   P60S3
000531: 26,2000                                           BANK
000532:
000533: 26,2537                                           COUNT*   $$/S61.1
000534:
000535: 26,2537           00006        S61.1              EXTEND
000536: 26,2540           23773                           QXCH     60GENRET                              #  SAVE RET ADDR IN EB 6
000537: 26,2541           04676                           TC       BANKCALL
000538: 26,2542           17653                           CADR     R02BOTH
000539: 26,2543           06006                           TC       INTPRET
000540: 26,2544           45014                           BON      CALRB
000541: 26,2545           00716                                    AVEGFLAG                              #  IS AVERAGEG ON
000542: 26,2546           54577                                    S61.1A                                #  YES
000543: 26,2547           27553                                    MIDTOAV2                              #  GET FUTURE STATE VECTOR SOON AS CAN
000544:
000545: 26,2550           30155                           CA       MPAC       +1                         #  RETURN INHINTED ***
000546: 26,2551           55774                           TS       S61DT                                 #  FOR RESTART.
000547: 26,2552           05261                           TC       WAITLIST
000548: 26,2553  E7,1431                                  EBANK=   DVCNTR
000549: 26,2553           02560 54067                     2CADR    S61.1C
000550:
000551: 26,2555           05426                           TC       PHASCHNG
000552: 26,2556           40434                           OCT      40434
000553: 26,2557           05233                           TC       ENDOFJOB
000554:
000555: 26,2560           35101        S61.1C             CA       PRIO13
000556: 26,2561           05163                           TC       FINDVAC
000557: 26,2562  E6,1661                                  EBANK=   AOG
000558: 26,2562           02576 54066                     2CADR    S61.1A     -1
000559:
000560: 26,2564           00006                           EXTEND
000561: 26,2565           32636                           DCA      SERVCAD1                              #  HE WHO STARTS AVERAGEG MUST SERVICE
000562: 26,2566           53223                           DXCH     AVEGEXIT                              #  THE EXIT.
000563:
000564: 26,2567           05406                           TC       2PHSCHNG
000565: 26,2570           00454                           OCT      00454
000566: 26,2571           00415                           OCT      00415
000567:
000568: 26,2572           35074                           CA       EBENTRY                               #  SET EB= 7 FOR PREREAD.
000569: 26,2573           54003                           TS       EBANK
000570:
000571: 26,2574           04715                           TC       POSTJUMP
000572: 26,2575           76714                           CADR     PREREAD                               #  PREREAD DOES TC TASKOVER.
000573:
000574: 26,2576           06006                           TC       INTPRET
000575: 26,2577           77204        S61.1A             BOVB     VLOAD
000576: 26,2600           57353                                    TCDANZIG                              #  TURN OFF OVFIND, IF ON
000577: 26,2601           01177                                    VN                                    #  VN    (-7) M/CS
000578: 26,2602           64235                           VXV      MXV
000579: 26,2603           01171                                    RN                                    #  RN    (-29) M
000580: 26,2604           01736                                    REFSMMAT                              #  .5 UNIT MATRIX
000581: 26,2605           71256                           UNIT     DLOAD
000582: 26,2606           00160                                    MPAC       +3                         #  GET COS(THETA)/2
000583: 26,2607           43240                           BMN      DAD
000584: 26,2610           54615                                    S61.1B                                #  DO TEST ON -YSM
000585: 26,2611           14640                                    C(30)LIM                              #  = 1.0 -.5 COS(30)
000586: 26,2612           47004                           BOVB     RTB
000587: 26,2613           54634                                    RETRN1
000588: 26,2614           54621                                    RETRN3
000589: 26,2615           43276        S61.1B             DCOMP    DAD
000590: 26,2616           14640                                    C(30)LIM                              #  = 1.0 - .5 COS(30)
000591: 26,2617           77404                           BOVB     EXIT
000592: 26,2620           54624                                    RETRN2
000593:
000594: 26,2621           05664        RETRN3             TC       ALARM
000595: 26,2622           01426                           OCT      01426                                 #  IMU UNSATISFACTORY
000596: 26,2623           02626                           TC       RETRN2     +2
000597:
000598: 26,2624           05664        RETRN2             TC       ALARM
000599: 26,2625           01427                           OCT      01427                                 #  IMU REVERSED
000600:
000601: 26,2626           35064                 +2        CAF      V05N09
000602: 26,2627           04676                           TC       BANKCALL
000603: 26,2630           20676                           CADR     GODSPR                                #  DO DISPLAY
000604: 26,2631           32641                           CA       10SECS
000605: 26,2632           04676                           TC       BANKCALL
000606: 26,2633           01732                           CADR     DELAYJOB
000607:
000608: 26,2634           01773        RETRN1             TC       60GENRET
000609:
000610: 26,2635  E7,1431                                  EBANK=   DVCNTR
000611: 26,2635           03231 76067  SERVCAD1           2CADR    SERVEXIT
000612:
000613: 26,2637           22111 17335  C(30)LIM           2DEC     .566985                               #  = 1.0 - .5 COS(30)
000614:
000615: 26,2641           01750        10SECS             DEC      1000       B-14                       #  1000 CS
000616: 26,2642           00000 13560  60SECDP            2DEC     6000       B-28                       #  6000 CS
000617:
000618:                                                                                                  #  PROGRAM NAME:         S61.2                   DATE:           14 FEB 67
000619:                                                                                                  #  MOD NO:       1                               LOG SECTION:    P61-P67
000620:                                                                                                  #  MOD BY:       MORTH / BAIRNSFATHER
000621:                                                                                                  #  MOD NO: 2     MOD BY: MORTH/BAIRNSFATHER      DATE: 11 MAY 67         ADD 2ND ITER FOR ERAD AT 400K FT.
000622:                                                                                                  #  MOD NO: 3     MOD BY: RR BAIRNSFATHER         DATE: 21 NOV 67         VARIABLE MU ADDED.
000623:                                                                                                  #  MOD NO: 4     MOD BY: RR BAIRNSFATHER         DATE: 21 MAR 68         DIFFERENT EARTH/MOON SCALES IN TFF'S
000624:
000625:                                                                                                  #  FUNCTIONAL DESCRIPTION:  CALLED BY P61.  PROVIDES DISPLAYS FOR NOUNS  N60  AND  N63 .
000626:                                                                                                  #        PROGRAM CALCULATES ENTRY DISPLAY OF MAXIMUM ACCELERATION EXPECTED  (GMAX)  AND ALSO THE EXPECTED
000627:                                                                                                  #        INERTIAL VELOCITY (VPRED) AND ENTRY ANGLE  (GAMMAEI)  THAT WILL OBTAIN AT 400K FT ABOVE THE FISCHER
000628:                                                                                                  #        ELLIPSOID.  PROGRAM ALSO CALCULATES A SECOND DISPLAY RELATIVE TO THE  EMSALT  ABOVE FISCHER ELLIPSOID
000629:                                                                                                  #        AND CONSISTS OF RANGE TO SPLASH FROM NOW  (RTGO) , PREDICTED INERTIAL VELOCITY  (VIO) , AND THE TIME TO
000630:                                                                                                  #        GO FROM NOW  (TTE) .
000631:
000632:                                                                                                  #  CALLING SEQUENCE:     CALL
000633:                                                                                                  #                                S61.2
000634:                                                                                                  #                        C(MPAC) UNSPECIFIED
000635:                                                                                                  #                        PUSHLOC WILL BE SET TO ZERO.
000636:
000637:                                                                                                  #  SUBROUTINES CALLED:   TFFCONIC, CALCTFF, TFF/TRIG, FISHCALC, GETERAD, VGAMCALC
000638:
000639:                                                                                                  #  NORMAL EXIT MODES:    RTB   P61.1
000640:
000641:                                                                                                  #  ALARMS:       NONE
000642:
000643:                                                                                                  #  OUTPUT:       THE FOLLOWING REGISTERS ARE WRITTEN IN FOR USE BY DISPLAYS
000644:                                                                                                  #                GMAX    100 GMAX (-14) G,S      MAXIMUM ACCELERATION
000645:                                                                                                  #                VPRED   (-7) M/CS               PREDICTED VELOCITY AT 400K FT
000646:                                                                                                  #                GAMMAEI GAMMA/360               PREDICTED GAMMA    AT 400K FT
000647:                                                                                                  #                                                FOR TM, DP(GAMMAEI) = (GAMMAEI, RTGO) / 360
000648:                                                                                                  #                RTGO    THETAH/360              RANGE ANGLE TO SPLASH FROM EMSALT       EMSALT IS PAD LOADED
000649:                                                                                                  #                VIO     (-7) M/CS               INERTIAL VELOCITY AT      EMSALT        EMSALT IS PAD LOADED
000650:                                                                                                  #                TTE     (-28) CS                TIME TO                    EMSALT       EMSALT IS PAD LOADED
000651:                                                                                                  #                PUSHLOC = 0
000652:                                                                                                  #                CONIC PARAMETERS STORED IN VAC AREA (SEE TFF SUBROUTINES)
000653:
000654:                                                                                                  #  ERASABLE INITIALIZATION REQUIRED:
000655:                                                                                                  #                RONE    (-29) M                 STATE VECTOR                            LEFT BY USER
000656:                                                                                                  #                VONE    (-7) M/CS               STATE VECTOR                            LEFT BY USER
000657:                                                                                                  #                URONE   UR/2                                                            LEFT BY USER
000658:                                                                                                  #                UNI     (-1)                    UNIT NORMAL V*R                         LEFT BY ENTRY / P61
000659:                                                                                                  #                THETAH  THETAH/360              RANGE ANGLE                             LEFT BY ENTRY / P61
000660:                                                                                                  #                UNITW   (0)                     UNIT POLAR VECTOR                       LEFT BY PAD LOAD
000661:                                                                                                  #                EMSALT  (-29) M                 EMS INTERFACE ALTITUDE                  LEFT BY PAD LOAD
000662:                                                                                                  #                                                ORBITAL REENTRY: 284643 FT, LUNAR REENTRY: 297431 FT.
000663:
000664:                                                                                                  #  DEBRIS:       QPRET,
000665:                                                                                                  #                ALL PDL LOCATIONS ABOVE 12D, INCLUDING X1,X2,S1,S2
000666:                                                                                                  #                ALSO PDL+0 ... PDL+5, WHERE INITIAL PUSHLOC = PDL
000667:
000668:                                                                                                  #  THE FOLLOWING PUSH LIST LOCATIONS HAVE BEEN RESERVED FOR TFF ROUTINES AND ARE REPEATED HERE FOR CONVENIENCE.
000669:                                                                                                  #  OF COURSE FOR S61.2 USAGE, EARTH ORIGIN SCALING IS USED.
000670:
000671:                                                                                                  #                                BELOW   E:  IS USED FOR EARTH ORIGIN SCALE
000672:                                                                                                  #                                        M:  IS USED FOR MOON ORIGIN SCALE
000673:
000674:                                                                                                  #        RTERM   =       18D             TERMINAL RADIUS M       E:  (-29)       M:  (-27)
000675:                                                                                                  #        NRTERM  =       16D             TERMINAL RADIUS M       E:  (-29+NR)
000676:                                                                                                  #                                                                M:  (-27+NR)
000677:                                                                                                  #        RMAG1   =       12D             PRESENT RADIUS M        E:  (-29)       M:  (-27)
000678:                                                                                                  #        NRMAG   =       32D             PRESENT RADIUS M        E:  (-29+NR)
000679:                                                                                                  #                                                                M:  (-27+NR)
000680:                                                                                                  #        SDELF/2                         SIN(THETA) / 2
000681:                                                                                                  #        CDELF/2 =       14D             COS(THETA) / 2
000682:                                                                                                  #        TFFX    =       34D             X, ARGUMENT OF SERIES T(X).
000683:                                                                                                  #        TFFTEM  =       36D             ARG FOR TRANSFER ANGLE CALCULATION.
000684:                                                                                                  #        TFFNP   =       28D             LC P M                  E:  (-38+2NR)   M:  (-36+2NR)
000685:                                                                                                  #        TFF/RTMU=       30D             1/SQRT(MU)              E:  (17)        M:  (14)
000686:                                                                                                  #        TFFVSQ  =       20D             -(VN.VN/MU)     1/M     E:  (20)        M:  (18)
000687:
000688: 34,3763                                           BANK     34
000689: 26,2000                                           SETLOC   P60S2
000690: 26,2000                                           BANK
000691:
000692: 26,2644                                           COUNT*   $$/S61.2
000693:                                                                                                  #  PDL LEFT AT ZERO BY TARGETNG
000694:
000695: 26,2644           45345        S61.2              DLOAD    DSU
000696: 26,2645           02020                                    EMSALT
000697: 26,2646           15000                                    290KFT
000698: 26,2647           71244                           BPL      DLOAD
000699: 26,2650           54774                                    LUNENT
000700: 26,2651           17355                                    1/RTMU                                #  ESTABLISH MU FOR ORBITAL ENTRIES
000701: 26,2652           77624        CALLCON            CALL
000702: 26,2653           56760                                    TFFCONIC                              #  FILL VAC AREA WITH CONIC PARAMETERS
000703:
000704: 26,2654           45145                           DLOAD    CALL
000705: 26,2655           15020                                    RTRIAL                                #  1ST GUESS AT TERMINAL RADIUS  (-29)
000706: 26,2656           57070                                    CALCTFF                               #  SAVES MPAC IN RTERM           (18D)
000707:
000708: 26,2657           77624                           CALL                                           #  CALC SDELF/2, CDELF/2
000709: 26,2660           56632                                    TFF/TRIG                              #  RETURN WITH S(THETA) IN MPAC
000710:
000711: 26,2661           77624                           CALL                                           #  GET FISCHER RADIUS            (-29) M
000712: 26,2662           55027                                    FISHCALC                              #  ANS IN MPAC AND IN ERADM.
000713:
000714: 26,2663           45015                           DAD      CALL
000715: 26,2664           02020                                    EMSALT
000716: 26,2665           57070                                    CALCTFF                               #  SAVES MPAC IN RTERM           (18D)
000717:
000718: 26,2666           03733                           STORE    TTE1                                  #  USED IN TARGET ITERATION (DISPTARG)
000719: 26,2667           57415                           DAD      DCOMP                                 #  DECR 'TTE' FROM BASE 'TTE2' IN 'SERVICER
000720: 26,2670           03651                                    MM                                    #  'PIPTIME' FOR STATE VECTOR
000721:                                                                                                  #  DNLIST AND DSKY WILL USE TTE.
000722: 26,2671           03735                           STORE    TTE2                                  #  TTE=PIPTIME+TTE2=-(TTE1+MM-PIPTIME)
000723: 26,2672           77615                           DAD                                            #  DECREMENT 'TTE' FOR DISPLAY AND DOWNLINK
000724: 26,2673           01205                                    PIPTIME                               #  UNTIL SERVICER COMES ALONG.
000725: 26,2674           37727                           STCALL   TTE                                   #  'TTE' IS NEGATIVE AS IN COUNTDOWN.
000726:
000727:                                                                                                  #  TTE= TIME FROM NOW TO EMSALT +FISCHER
000728:
000729: 26,2675           56632                                    TFF/TRIG                              #  S(THETA) IN MPAC ON RETURNING
000730:                                                                                                  #  AND THETA= RANGE FROM NOW TO EMSALT
000731:
000732: 26,2676           77624                           CALL
000733: 26,2677           55027                                    FISHCALC
000734: 26,2700           77624                           CALL
000735: 26,2701           56665                                    VRCALC
000736: 26,2702           77624                           CALL
000737: 26,2703           56652                                    DISPTARG
000738: 26,2704           77624                           CALL
000739: 26,2705           56652                                    DISPTARG
000740: 26,2706           37714                           STCALL   RTGO
000741: 26,2707           55050                                    VGAMCALC
000742:
000743: 26,2710           77605                           DMP                                            #  MPAC = GAMMA
000744:                                                                                                  #  PDL0 HAS VGAM.
000745: 26,2711           43265                           BDDV     DAD
000746: 26,2712           15026                                    VEMSCON                               #  -HS D 180/PI (-14)
000747: 26,2713           00001                                    0                                     #  VGAM FROM PDL0.
000748: 26,2714           17725                           STODL    VIO                                   #  PREDICTED VELOCITY AT EMSALT.
000749:
000750:                                                                                                  #  GAMMA AND VGAM AT 300K FT ARE REQUIRED BY GMAX
000751:                                                                                                  #  ALGORITHM.
000752:
000753: 26,2715           02241                                    ERADM                                 #  EARTH RADIUS FROM GETERAD (-29) M
000754:                                                                                                  #  = FISCHER RADIUS (-29)
000755:
000756: 26,2716           77615                           DAD
000757: 26,2717           06502                                    300KFT                                #  M (-29)
000758: 26,2720           34023                           STCALL   RTERM                                 #  TERMINAL RADIUS M (-29)
000759:
000760: 26,2721           55045                                    PREVGAM                               #  VGAMCALC WITH NEW RTERM
000761:
000762:                                                                                                  #  VBAR = (V(FPS) - 36KF/S) / 20KF/S
000763:                                                                                                  #  GMAX = (4/(1 + 4.8 VBARSQ))(GAM - 6.05 - 2.4 VBARSQ) - 10(L/D - .3) + 10      ASSUME L/D = 0.3, BANK =0.
000764:
000765:                                                                                                  #  GMAXCALC
000766: 26,2722           45325                           PDDL     DSU                                   #  GAM TO PDL2
000767: 26,2723           00001                                    0                                     #  VGAM IS IN PDL0 (-7)
000768: 26,2724           15004                                    36KFT/S                               #  (-7) M/CS
000769: 26,2725           63471                           DDV      DSQ
000770: 26,2726           15006                                    20KFT/S                               #  (-6) M/CS
000771: 26,2727           00001                           STORE    0                                     #  VBARSQ (-2) TO PDL0
000772:
000773: 26,2730           43205                           DMP      DAD
000774: 26,2731           15010                                    KR1
000775:                                                                                                  #  GAM, POS DOWN, FROM PDL2
000776: 26,2732           41215                           DAD      DMP
000777: 26,2733           15012                                    -6.05DEG
000778: 26,2734           15014                                    KR2
000779: 26,2735           77725                           PDDL                                           #  XCH PDL+0 FOR VBARSQ (-2)
000780: 26,2736           43271                           DDV      DAD
000781: 26,2737           15024                                    KR4
000782: 26,2740           17367                                    DP2(-4)
000783: 26,2741           77665                           BDDV
000784:                                                                                                  #  NUM FROM PDL+0
000785: 26,2742           51015                           DAD      BPL
000786: 26,2743           15016                                    KR3
000787: 26,2744           54747                                    +3
000788: 26,2745           77745                           DLOAD
000789: 26,2746           15334                                    HI6ZEROS
000790: 26,2747           17722                           STODL    GMAX                                  #  100 GMAX (-14)
000791:                                                                                                  #  DISPLAY USES GMAX AS SP, SO LO WORD IS WRITTEN OVER BY VPRED.
000792: 26,2750           02241                                    ERADM                                 #  = FISCHER RADIUS (-29) M
000793: 26,2751           45015                           DAD      CALL                                  #  2 ND ITERATION FOR FISCHER RADIUS
000794: 26,2752           15022                                    400KFT
000795: 26,2753           57070                                    CALCTFF                               #  ESTABLISH TRANSFER ANGLE DATA.
000796: 26,2754           77624                           CALL
000797: 26,2755           56632                                    TFF/TRIG                              #  GET SIN, COS DELF
000798: 26,2756           77624                           CALL
000799: 26,2757           55027                                    FISHCALC                              #  GET CORRESPONDING FISCHER RADIUS.
000800:
000801: 26,2760           73015                           DAD      LXA,2                                 #  SAVE HI-WORD FOR DOWNLIST.
000802: 26,2761           15022                                    400KFT                                #  M (-29)
000803: 26,2762           03713                                    RTGO                                  #  (RANGE ANGLE FROM EMSALT) / 360
000804: 26,2763           34023                           STCALL   RTERM
000805: 26,2764           55045                                    PREVGAM                               #  VGAMCALC WITH NEW RTERM
000806:
000807: 26,2765           67076                           DCOMP    SXA,2                                 #  HI-WORD OF EACH ON DOWNLIST.
000808: 26,2766           00155                                    MPAC       +1
000809: 26,2767           17771                           STODL    GAMMAEI                               #  CONIC GAMMA/360 AT 400K FT.   (HI-WORD)
000810:                                                                                                  #  CONIC RTGO/360 FROM EMSALT   (LOW-WORD)
000811:                                                                                                  #  FOR TM, DP(GAMMAEI) = (GAMMA, RTGO) / 360
000812:
000813:                                                                                                  #  VGAM FROM PDL+0 (-7)
000814: 26,2770           77626                           STADR
000815: 26,2771           74010                           STORE    VPRED                                 #  CONIC VELOCITY AT 400K FT
000816:
000817: 26,2772           77634                           RTB
000818: 26,2773           54272                                    P61.1
000819:                                                                                                  #  PDL BACK TO ZERO.
000820:
000821: 26,2774           52145        LUNENT             DLOAD    GOTO
000822: 26,2775           06476                                    1/RTMUE                               #  ESTABLISH MU FOR LUNAR TYPE ENTRIES
000823: 26,2776           54652                                    CALLCON
000824: 26,2777           00002 26244  290KFT             2DEC     88392.0    B-29
000825:
000826: 26,3001           00052 05716  KTETA1             2DEC*    .421844723 E2         B-14*           #  1100 2PI/16384(163.84)
000827:
000828: 26,3003           33335 05707  36KFT/S            2DEC     109.728    B-7                        #  (-7) M/CS = 36 KFT/S (-7)
000829:
000830: 26,3005           36365 30244  20KFT/S            2DEC     121.92     B-7                        #  (-6) M/CS = 2 20KFT/S (-7)
000831:
000832: 26,3007           77113 42770  KR1                2DEC     -.026666667                            #  = -2.4 4 / 360
000833:
000834: 26,3011           77354 65030  -6.05DEG           2DEC     -.016805556                            #  = -6.05 / 360
000835:
000836: 26,3013           21450 00001  KR2                2DEC     .54931641                             #  = (360/4) 100 (-14) = 9000 B-14
000837:
000838: 26,3015           01750 00000  KR3                2DEC     1000       B-14                       #  = 100 (10.0) (-14) G,S
000839:                                                                                                  #  ASSUMES L/D = 0.3, BANK =0.
000840: 26,3017           00305 04541  RTRIAL             2DEC     6460097.18 B-29                       #  RPAD +284643 FT =21 194 545 FT
000841:                                                                                                  #  RPAD DEFINED AS 20 909 901.57 FT =6 373 338 M
000842: 26,3021           00003 27040  400KFT             2DEC     121920     B-29                       #  METERS
000843:
000844:                                                                                                  #  300KFT        2DEC    91440 B-29      (-29) M
000845:
000846:                                                                                                  #  EMSALT        2DEC    86759.2 B-29    284643 FT (-29) M       (ORBITAL REENTRY)
000847:
000848:                                                                                                  #  EMSALT        2DEC    90657 B-29      297431 FT (-29) M       (LUNAR REENTRY)
000849:
000850: 26,3023           32525 12525  KR4                2DEC     .833333333
000851:
000852: 26,3025  23,2501               300KFT             EQUALS   MINPERE
000853: 26,3025           77777 76601  VEMSCON            2DEC     -.0389676  B-14                       #  = -HS D / 2 PI (-14)  M SQ / CS SQ
000854:
000855:                                                                                                  #  = -16369      .05G    32.2    .3048   .3048/2 PI      (-14)
000856:
000857:                                                                                                  #  SUBROUTINE NAME:  FISHCALC    (USED BY S61.2)         DATE:           01.21.67
000858:                                                                                                  #  MOD NO: 0                                             LOG SECTION:    P61-P67
000859:                                                                                                  #  MOD BY: MORTH / BAIRNSFATHER
000860:                                                                                                  #  MOD NO: 1     MOD BY: RR BAIRNSFATHER                 DATE:           11 MAY 67       INCLUDE GETERAD CALL
000861:
000862:                                                                                                  #  FUNCTIONAL DESCRIPTION:  GIVEN THE PRESENT POSITION, UNITR, CALCULATE A NEW UNITR THAT IS ROTATED THROUGH
000863:                                                                                                  #        TRANSFER ANGLE, THETA, ALONG TRAJECTORY.  THEN CALCULATE SIN(LAT) AND USE TO OBTAIN FISCHER RADIUS.
000864:
000865:                                                                                                  #        SINCE FISHCALC USES UNI (LEFT BY ENTRY) EARTH SCALING IS ASSUMED.  (WILL IMPROVE FOR SUITABLE TENNANT)
000866:
000867:                                                                                                  #  CALLING SEQUENCE:     CALL
000868:                                                                                                  #                                FISHCALC
000869:                                                                                                  #        ENTER WITH .5 SIN(THETA) IN MPAC.
000870:                                                                                                  #        PUSHLOC IS AT PDL+0, AN ARBITRARY BASE VALUE IF LEQ 8D
000871:
000872:                                                                                                  #  SUBROUTINES CALLED:  GET ERAD
000873:
000874:                                                                                                  #  NORMAL EXIT MODE:  RVQ
000875:
000876:                                                                                                  #  EXIT MODES:   NONE
000877:
000878:                                                                                                  #  OUTPUT:       ERADM (-29) M IN MPAC ON RETURNING
000879:                                                                                                  #                NEW UNIT VECTOR NOT SAVED.
000880:                                                                                                  #                SIN(LAT) NOT SAVED.
000881:                                                                                                  #                PUSHLOC AT PDL+0
000882:
000883:                                                                                                  #  ERASEABLE INITIALIZATION REQUIRED:
000884:                                                                                                  #                SDELF/2         =SIN(THETA) / 2, IN MPAC                LEFT BY TFF/TRIG
000885:                                                                                                  #                CDELF/2         =COS(THETA) / 2, STORED IN PDL 14D      LEFT BY TFF/TRIG
000886:                                                                                                  #                RONE            (-29) M                                 LEFT BY USER
000887:                                                                                                  #                VONE            (-7) M/CS                               LEFT BY USER
000888:                                                                                                  #                URONE           UR/2                                    LEFT BY USER
000889:                                                                                                  #                UNI             .5 UNIT(V*R)                            LEFT BY ENTRY / P61
000890:                                                                                                  #                UNITW           UNIT NORTH POLE                         LEFT BY PAD LOAD
000891:
000892:                                                                                                  #  DEBRIS:       QPRET, PDL+0 ... PDL+5
000893:                                                                                                  #  -      -          -
000894: 26,3027           47315        FISHCALC           PDVL     VXV                                   #  URPR = UR CDELF + UHOR SDELF
000895: 26,3030           02343                                    URONE
000896: 26,3031           03502                                    UNI
000897: 26,3032           76561                           VXSC     VSL1
000898:                                                                                                  #  SIN(THETA) / 2 FROM PDL+0
000899: 26,3033           74315                           PDVL     VXSC                                  #  TO PDL+0, +5
000900: 26,3034           02343                                    URONE
000901: 26,3035           00017                                    CDELF/2                               #  COS(THETA) / 2
000902: 26,3036           45455                           VAD      STADR
000903: 26,3037           74235                           STORE    URH                                   #  FOR USE IN RTGO FROM EMS DISPLAY
000904: 26,3040           72441                           DOT      SL1
000905: 26,3041           01714                                    UNITW                                 #  FULL UNIT VECTOR      UNIT NORTH
000906: 26,3042           02156                           STORE    ALPHAV     +4                         #  = .5 SIN(LAT)
000907: 26,3043           77650        DUMPFISH           GOTO
000908: 26,3044           26515                                    GETERAD                               #  SAVES FISCHER RAD (-29) M IN ERADM AND
000909:                                                                                                  #  IN MPAC.  RETURNS TO CALLER VIQ QPRET.
000910:
000911:                                                                                                  #  SUBROUTINE NAME:  VGAMCALC    (USED BY S61.2)                         DATE:           01.21.67
000912:                                                                                                  #  MOD NO: 0                                                             LOG SECTION:    P61-P67
000913:                                                                                                  #  MOD BY: MORTH / BAIRNSFATHER
000914:                                                                                                  #  MOD NO: 1     MOD BY: RR BAIRNSFATHER         DATE: 11 APR 67
000915:                                                                                                  #  MOD NO: 2     MOD BY: RR BAIRNSFATHER         DATE: 21 NOV 67         VARIABLE MU ADDED.
000916:                                                                                                  #  MOD NO: 3     MOD BY: RR BAIRNSFATHER         DATE: 21 MAR 68         ACCEPT DIFFERENT EARTH/MOON SCALE
000917:
000918:                                                                                                  #  FUNCTIONAL DESCRIPTION:  EARTH CENTERED VIS VIVA CALCULATION OF TERMINAL VELOCITY AND GAMMA (REL TO
000919:                                                                                                  #        HORIZONTAL) GIVEN THE SCALAR QUANTITIES:  PRESENT RADIUS AND VELOCITY AND THE TERMINAL RADIUS.
000920:                                                                                                  #        THE USER MUST APPEND PROPER SIGN TO GAMMA, SINCE IT IS CALCULATED AS A POSITIVE NUMBER.
000921:                                                                                                  #        THE EQUATIONS ARE
000922:
000923:                                                                                                  #                VGAM = SQRT(VN VN/MU + 2(RN-RTERM)/(RN RTERM) ) RTMU
000924:
000925:                                                                                                  #                COSGAM = H / RTERM VGAM = SQRT (LCP) / (RTERM VGAM/RTMU)
000926:
000927:                                                                                                  #        VGAMCALC ASSUMES THAT THE TERMINAL RADIUS IS LESS THAN THE PRESENT RADIUS.  BOTH CALCTFF AND CALCTPER
000928:                                                                                                  #        MAKE THIS ASSUMPTION.
000929:
000930:                                                                                                  #  CALLING SEQUENCE:     CALL                    STCALL  RTERM
000931:                                                                                                  #                                VGAMCALC                PREVGAM
000932:                                                                                                  #        PUSHLOC AT PDL+0, ARBITRARY IF LEQ 12D
000933:                                                                                                  #        C(MPAC) UNSPECIFIED                     C(MPAC)=NEW RTERM
000934:
000935:                                                                                                  #  SUBROUTINES CALLED:  NONE
000936:
000937:                                                                                                  #  NORMAL EXIT MODE:  RVQ
000938:
000939:                                                                                                  #  ALARMS:       NONE
000940:                                                                                                  #
000941:                                                                                                  #  OUTPUT:       GAMMA / 360 IN MPAC, POSITIVE NUMBER
000942:                                                                                                  #                VGAM    E: (-7)   M: (-5)       M/CS IN PDL+0
000943:                                                                                                  #                PUSHLOC AT PDL+2
000944:
000945:                                                                                                  #  ERASABLE INITIALIZATION REQD:
000946:                                                                                                  #        TFF/RTMU  E: (17)   M: (14)     1/SQRT(MU)                              LEFT BY TFFCONIC.
000947:                                                                                                  #        RMAG1     E: (-29)  M: (-27)    M  PRESENT RADIUS LENGTH                LEFT BY TFFCONIC
000948:                                                                                                  #        NRMAG     E: (-29+NR)           M  NORM LENGTH OF PRESENT POSITION      LEFT BY TFFCONIC
000949:                                                                                                  #                  M: (-27+NR)
000950:                                                                                                  #        RTERM     E: (-29)  M: (-27)    M  TERMINAL RADIUS LENGTH               LEFT BY CALCTFF
000951:                                                                                                  #        NRTERM    E: (-29+NR)           M  NORM LENGTH OF TERMINAL RADIUS       LEFT BY CALCTFF
000952:                                                                                                  #                  M: (-27+NR)
000953:                                                                                                  #        TFFVSQ    E: (20)   M: (18)   1/M  -(V SQ/MU): PRESENT VELOCITY, NORM   LEFT BY TFFCONIC
000954:                                                                                                  #        TFFNP     E: (-38+2NR)          M  LCP, SEMI-LATUS RECTUM, WEIGHT NR    LEFT BY TFFCONIC
000955:                                                                                                  #                  M: (-36+2NR)
000956:
000957:                                                                                                  #  DEBRIS:       QPRET, PDL+0 ... PDL+3
000958:                                                                                                  #                RTERM, NRTERM IF PREVGAM ENTERED.
000959:
000960: 26,3045           77657        PREVGAM            SL*                                            #  ENTER WITH NEW RTERM IN MPAC
000961:                                                                                                  #  E: (-29)  M: (-27)
000962: 26,3046           20201                                    0,1                                   #  X1 = -NR
000963: 26,3047           00021                           STORE    NRTERM                                #  RTERM M               E: (-29+NR)     M: (-27+NR)
000964:
000965: 26,3050           41345        VGAMCALC           DLOAD    DMP
000966: 26,3051           00041                                    NRMAG                                 #  RMAG M                E: (-29+NR)     M: (-27+NR)
000967: 26,3052           00021                                    NRTERM                                #  RTERM M               E: (-29+NR)     M: (-27+NR)
000968: 26,3053           45325                           PDDL     DSU                                   #  RMAG RTERM M          E: (-58+2NR)    M: (-54+2NR)
000969: 26,3054           00041                                    NRMAG                                 #  RMAG M                E: (-29+NR)     M: (-27+NR)
000970: 26,3055           00021                                    NRTERM                                #  RTERM M               E: (-29+NR)     M: (-27+NR)
000971: 26,3056           56257                           SL*      DDV                                   #  2(RN-RTERM)           E: (-30+NR)     M: (-28+NR)
000972: 26,3057           20171                                    0          -8D,1                      #  (-8+NR)
000973:                                                                                                  #  PUSH UP PRODUCT.
000974: 26,3060           77625                           DSU
000975: 26,3061           00025                                    TFFVSQ                                #  -(V SQ/MU)            E: (20)         M: (18)
000976: 26,3062           41566                           SQRT     PUSH                                  #  SAVE VGAM/RT(MU) FOR NOW.     E: (10) M: (9)
000977: 26,3063           65271                           DDV      PDDL                                  #  XCH PDL+0, LEAVING VGAM FOR OUTPUT.
000978:                                                                                                  #  VGAM TO PDL M/CS      E: (-7)         M: (-2)
000979: 26,3064           00037                                    TFF/RTMU                              #                        E: (17)         M: (14)
000980: 26,3065           65205                           DMP      PDDL                                  #  RTERM VGAM/RTMU       E: (-19+NR)     M: (-18+NR)
000981: 26,3066           00021                                    NRTERM                                #  RTERM M               E: (-29+NR)     M: (-27+NR)
000982: 26,3067           00035                                    TFFNP                                 #  LC P =H.H/MU M        E: (-38+2NR)    M: (-36+2NR)
000983: 26,3070           56366                           SQRT     DDV                                   #                        E: (-19+NR)     M: (-18+NR)
000984:                                                                                                  #  PUSH UP DEN           E: (-19+NR)     M: (-18+NR)
000985:                                                                                                  #  USE DDV OVFL AS LIMITER (|COS| <1.0)
000986: 26,3071           65542                           SR1      ACOS
000987: 26,3072           77616        DUMPVGAM           RVQ
000988:                                                                                                  #  CALLER MUST SUPPLY OWN SIGN ...
000989:                                                                                                  #                        22W     27MS
000990:
000991:                                                                                                  #  SUBROUTINE NAME:      TFF/TRIG        (USED BY S61.2)         DATE            01.17.67
000992:                                                                                                  #  MOD NO: 0                                                     LOG SECTION:    P61-P67
000993:                                                                                                  #  MOD BY: RR BAIRNSFATHER
000994:                                                                                                  #  MOD NO: 1     MOD BY: RR BAIRNSFATHER         DATE: 14 APR 67
000995:                                                                                                  #  MOD NO: 2     MOD BY: RR BAIRNSFATHER         DATE: 21 MAR 68         ACCEPT DIFFERENT EARTH/MOON SCALE
000996:
000997:                                                                                                  #  FUNCTIONAL DESCRIPTION:  USED BY ENTRY DISPLAY TO CALCULATE SIN(THETA), COS(THETA) FROM DATA LEFT IN
000998:                                                                                                  #        PDL BY TFF SUBROUTINES.  THE EQNS ARE
000999:
001000:                                                                                                  #                COS(THETA) = 1-2 ABS(ARG) / (RN RTERM (1+X) )
001001:                                                                                                  #                                                2
001002:                                                                                                  #                SIN(THETA) = SGN(ARG) SQRT(1-COS (THETA) )
001003:
001004:                                                                                                  #        WHERE THETA = TRANSFER ANGLE
001005:                                                                                                  #        AND     ARG = P Z ABS(Z)                        IF ALFA ZZ LEQ 1
001006:                                                                                                  #                ARG = (P / ALFA) SGN(Q1 + R 1/Z)        IF ALFA Z Z G 1
001007:                                                                                                  #        AND  ARG  HAS BEEN AFFIXED WITH THE SIGN OF SIN(THETA).
001008:
001009:                                                                                                  #  CALLING SEQUENCE:     CALL
001010:                                                                                                  #                                TFF/TRIG
001011:                                                                                                  #                PUSHLOC AT PDL+0, ARBITRARY IF NOT EQ 14D
001012:                                                                                                  #                C(MPAC) UNSPECIFIED
001013:
001014:                                                                                                  #  SUBROUTINES CALLED:  NONE
001015:
001016:                                                                                                  #  NORMAL EXIT MODES:  RVQ
001017:
001018:                                                                                                  #  ALARMS:       NONE
001019:
001020:                                                                                                  #  OUTPUT:       C(MPAC) = .5 SIN(THETA)
001021:                                                                                                  #                CDELF/2 = .5 COS(THETA)         (IN PDL 14D)
001022:                                                                                                  #                PUSHLOC AT PDL+0
001023:
001024:                                                                                                  #  ERASABLE INITIALIZATION REQUIRED:
001025:                                                                                                  #                TFFX                    X                                       LEFT BY CALCTFF OR CALCTPER
001026:                                                                                                  #                TFFTEM  E: (-59+2NR)    ARG                                     LEFT BY CALCTFF OR CALCTPER
001027:                                                                                                  #                        M: (-55+2NR)    WHERE ARG = LCP ZZ SGN(DELF) OR ARG = LCP/ALFA SGN(DELF)
001028:                                                                                                  #                NRTERM  E: (-29+NR)     M  NORM LENGTH OF TERMINAL RADIUS       LEFT BY CALCTFF OR CALCTPER
001029:                                                                                                  #                        M: (-27+NR)
001030:                                                                                                  #                NRMAG   E: (-29+NR)     M  NORM LENGTH OF PRESENT POSITION      LEFT BY TFFCONIC
001031:                                                                                                  #                        M: (-27+NR)
001032:
001033:                                                                                                  #  DEBRIS:       QPRET, CDELF/2
001034:
001035: 27,2632                                           BANK     27
001036: 27,2000                                           SETLOC   P60S5
001037: 27,2000                                           BANK
001038: 27,2632           70545        TFF/TRIG           DLOAD    SR1
001039: 27,2633           00043                                    TFFX
001040: 27,2634           41215                           DAD      DMP
001041: 27,2635           15332                                    HIDPHALF
001042: 27,2636           00041                                    NRMAG                                 #  RMAG M                E: (-29+NR)     M: (-27+NR)
001043: 27,2637           55205                           DMP      BDDV
001044: 27,2640           00021                                    NRTERM                                #  RTERM M               E: (-29+NR)     M: (-27+NR)
001045: 27,2641           00045                                    TFFTEM                                #  P ZSQ OR P/ALFA       E: (-59+2NR)    M: (-55+2NR)
001046: 27,2642           44246                           ABS      BDSU                                  #  THE SIGN IS FOR SDELF.
001047: 27,2643           15332                                    HIDPHALF
001048: 27,2644           00017                           STORE    CDELF/2                               #  .5 COS(THETA)
001049: 27,2645           57516                           DSQ      DCOMP                                 #  KEEP HONEST FOR SQRT.
001050: 27,2646           75415                           DAD      SQRT
001051: 27,2647           15324                                    HIDP1/4
001052: 27,2650           43565        DUMPTRIG           SIGN     RVQ
001053: 27,2651           00045                                    TFFTEM                                #  AFFIX SIGN(DELE/2)
001054:                                                                                                  #  RETURN WITH .5 SIN(THETA) IN MPAC
001055:
001056:                                                                                                  #                        16W     15MS
001057:
001058: 27,2652           77620        DISPTARG           STQ                                            #  C(MPAC) = TRGO ESTIMATE
001059: 27,2653           03373                                    60GENRET
001060: 27,2654           43205                           DMP      DAD                                   #  (TTE1 IS POSITIVE)
001061: 27,2655           15002                                    KTETA1
001062: 27,2656           03733                                    TTE1
001063: 27,2657           37606                           STCALL   DTEAROT
001064: 27,2660           46225                                    EARROT2
001065: 27,2661           77624                           CALL
001066: 27,2662           56665                                    VRCALC
001067: 27,2663           77650                           GOTO
001068: 27,2664           03373                                    60GENRET
001069: 27,2665           50375        VRCALC             VLOAD    DOT
001070: 27,2666           03542                                    URH
001071: 27,2667           03474                                    RT
001072: 27,2670           65512                           SL2      ACOS
001073: 27,2671           77616                           RVQ
001074:
001075:                                                                                                  #  END OF PROGRAM S61.2
001076:
001077:                                                                                                  #  PROGRAM DESCRIPTION S62.3     DATE 10JAN67
001078:                                                                                                  #  MOD NO 1                      LOG SECTION P60-P67
001079:                                                                                                  #  MOD BY ZELDIN
001080:                                                                                                  #  MOD NO: 2     MOD BY: RR BAIRNSFATHER         DATE: 15 MAY 67         CHANGED TO REF COORDS.
001081:                                                                                                  #  MOD NO: 3     MOD BY: RR BAIRNSFATHER         DATE: 17 JAN 68         ALFAPAD CHANGES MADE.
001082:
001083:                                                                                                  #  FUNCTIONAL DESCRIPTION
001084:
001085:                                                                                                  #        COMPUTE DESIRED GIMBOL ANGLES FOR ENTRY ATTITUDE
001086:                                                                                                  #        THE FOLLOWING TRAJECTORY TRIAD IS AVAILABLE IN MEMORY AND IS COMPUTED EACH 2 SECONDS BY CM/POSE IN
001087:                                                                                                  #        REFERENCE COORDINATES (V = VELOCITY RELATIVE TO EARTH) :
001088:
001089:                                                                                                  #                UXA = -UNIT(V)
001090:                                                                                                  #                UYA =  UNIT(V*R)
001091:                                                                                                  #                UZA =  UXA*UYA
001092:
001093:                                                                                                  #        GENERATE A DESIRED BODY TRIAD FOR TRIMMED FLIGHT WITH RESPECT TO THE RELATIVE VELOCITY VECTOR, USING
001094:                                                                                                  #        ROLL COMMAND AND TRIM ANGLE OF ATTACK:
001095:
001096:                                                                                                  #                UXD = UNIT(UYD*UXA) SIN(ALFATRIM) + UXA COS(ALFATRIM)
001097:                                                                                                  #                UYD = UYA COS(ROLLC) + UZA SIN(ROLLC)
001098:                                                                                                  #                UZD = UXD * UYD
001099:
001100:                                                                                                  #        USE THE DESIRED SET (IN REFERENCE COORDS) AND REFSMMAT TO CALL  CALCGA  AND OBTAIN GIMBAL ANGLES
001101:                                                                                                  #        IN 2S, C IN MPAC, +2 AND THETAD, +2.
001102:
001103:                                                                                                  #  CALLING SEQUENCE
001104:
001105:                                                                                                  #        L       CALL
001106:                                                                                                  #        L+1             S62.3
001107:
001108:                                                                                                  #  NORMAL EXIT MODE
001109:
001110:                                                                                                  #        RETURN VIA QPRET DIRECTLY FROM CALCGA.
001111:
001112:                                                                                                  #  SUBROUTINES CALLED
001113:
001114:                                                                                                  #        CALCGA
001115:
001116:                                                                                                  #  ALARM OR ABORT MODES
001117:
001118:                                                                                                  #        NONE
001119:
001120:                                                                                                  #  ERASABLE INITIALIZATION REQUIRED
001121:
001122:                                                                                                  #        ROLLC   ROLL COMMAND            DP 1:S COMP AT 1REV
001123:                                                                                                  #        ALFAPAD SP 1S,C / 180           LEFT BY PAD LOAD        ALFATRIM IS NEGATIVE.
001124:                                                                                                  #        UXA/2   REF COORDS              LEFT BY CM/POSE
001125:                                                                                                  #        UYA/2   REF COORDS              LEFT BY CM/POSE
001126:                                                                                                  #        UZA/2   REF COORDS              LEFT BY CM/POSE
001127:
001128:                                                                                                  #  OUTPUT
001129:                                                                                                  #
001130:                                                                                                  #        CPHI    GIMBAL ANGLES (O,I,M) 2:S COMP TP (O,I,M)/180
001131:
001132:                                                                                                  #  DEBRIS
001133:
001134:                                                                                                  #        QTEMP, QPRET, PUSHLIST
001135:
001136: 10,2376                                           BANK     10
001137: 10,2000                                           SETLOC   P60S4
001138: 10,2000                                           BANK
001139: 10,2376                                           COUNT*   $$/S62.3
001140:
001141: 10,2376           67201        S62.3              SETPD    SLOAD
001142: 10,2377           00001                                    0
001143: 10,2400           03012                                    ALFAPAD                               #  ALFATRIM / 180, ALFA IS NEG.
001144: 10,2401           41542                           SR1      PUSH
001145: 10,2402           65346                           COS      PDDL                                  #  XCH PDL, COS TO PDL0
001146: 10,2403           65356                           SIN      PDDL                                  #  SIN TO PDL2
001147: 10,2404           03316                                    ROLLC
001148: 10,2405           74346                           COS      VXSC
001149: 10,2406           03550                                    UYA/2                                 #                                REF COORDS
001150: 10,2407           73525                           PDDL     SIN                                   #  PUSH VECTOR INTO PDL4,.9
001151: 10,2410           03316                                    ROLLC
001152: 10,2411           53361                           VXSC     VAD
001153: 10,2412           03556                                    UZA/2                                 #                                REF COORDS
001154:                                                                                                  #  VECTOR FROM PDL4, 9
001155: 10,2413           77772                           VSL1
001156: 10,2414           02722                           STORE    YNB                                   #  = UYD                         REF COORDS
001157:
001158: 10,2415           76435                           VXV      VSL1
001159: 10,2416           03542                                    UXA/2                                 #                                REF COORDS
001160: 10,2417           65361                           VXSC     PDDL
001161:                                                                                                  #  SIN TRIM FROM PDL2
001162:                                                                                                  #  XCH PDL0 FOR COS TRIM
001163: 10,2420           53361                           VXSC     VAD
001164: 10,2421           03542                                    UXA/2                                 #                                REF COORDS
001165:                                                                                                  #  FROM PDL0
001166: 10,2422           77772                           VSL1
001167: 10,2423           02714                           STORE    XNB                                   #  X SC AXIS (.5 UNIT)           REF COORDS
001168:
001169: 10,2424           76435                           VXV      VSL1
001170: 10,2425           02722                                    YNB
001171: 10,2426           26730                           STOVL    ZNB                                   #  Z SC IN REF COOR. SCALED AT 2
001172: 10,2427           01736                                    REFSMMAT
001173: 10,2430           26672                           STOVL    XSM
001174: 10,2431           01744                                    REFSMMAT   +6
001175: 10,2432           26700                           STOVL    YSM
001176: 10,2433           01752                                    REFSMMAT   +12D
001177: 10,2434           02706                           STORE    ZSM
001178:
001179: 10,2435           52014                           CLEAR    GOTO
001180: 10,2436           00260                                    CPHIFLAG                              #  CAUSE CALCGA TO STORE ANS IN TP CPHI
001181: 10,2437           47313                                    CALCGA
001182:                                                                                                  #  CALCGA WILL RETURN TO ORIGINAL CALLER
001183:                                                                                                  #  VIA QPRET WITH 2,S COMP. ANGLES IN CPHI
001184:
001185:
001186:

End of include-file P61-P67.agc.  Parent file is MAIN.agc


