
Source Code


000002:                                                                                                  ## Copyright:   Public domain.
000003:                                                                                                  ## Filename:    PHASE_TABLE_MAINTENANCE.agc
000004:                                                                                                  ## Purpose:     A section of Comanche revision 067.
000005:                                                                                                  ##              It is part of the reconstructed source code for the flight
000006:                                                                                                  ##              software for the Command Module's (CM) Apollo Guidance Computer
000007:                                                                                                  ##              (AGC) for Apollo 12. No original listings of this program are
000008:                                                                                                  ##              available; instead, this file was created via dissassembly of
000009:                                                                                                  ##              dumps of Comanche 067 core rope modules and comparison with
000010:                                                                                                  ##              other AGC programs.
000011:                                                                                                  ## Assembler:   yaYUL
000012:                                                                                                  ## Contact:     Ron Burkey <info@sandroid.org>.
000013:                                                                                                  ## Website:     www.ibiblio.org/apollo/index.html
000014:                                                                                                  ## Mod history: 2023-08-16 MAS  Created from Comanche 055.
000015:
000016:                                                                                                  #  SUBROUTINE TO UPDATE THE PROGRAM NUMBER DISPLAY ON THE DSKY.
000017:
000018: 43,3736                                           COUNT    02/PHASE
000019:    5370                                           BLOCK    02
000020:    4000                                           SETLOC   FFTAG1
000021:    4000                                           BANK
000022:
000023:    5370           50002        NEWMODEX           INDEX    Q                                     #  UPDATE MODREG.  ENTRY FOR MODE IN FIXED.
000024:    5371           30000                           CAF      0
000025:    5372           24002                           INCR     Q
000026:
000027:    5373           55011        NEWMODEA           TS       MODREG                                #  ENTRY FOR MODE IN A.
000028:    5374           35377        MMDSPLAY           CAF      +3                                    #  DISPLAY MAJOR MODE.
000029:    5375           22006        PREBJUMP           LXCH     BBANK                                 #  PUTS BBANK IN L
000030:    5376           14720                           TCF      BANKJUMP                              #  PUTS Q INTO A
000031:    5377           20440                           CADR     SETUPDSP
000032:
000033:                                                                                                  #  RETURN TO CALLER +3 IF MODE = THAT AT CALLER +1.  OTHERWISE RETURN TO CALLER +2.
000034:
000035:    5400           50002        CHECKMM            INDEX    Q
000036:    5401           40000                           CS       0
000037:    5402           61011                           AD       MODREG
000038:    5403           00006                           EXTEND
000039:    5404           16710                           BZF      Q+2
000040:    5405           16706                           TCF      Q+1                                   #  NO MATCH
000041:
000042:    5406     6711               TCQ                =        Q+2        +1
000043:
000044: 14,3763                                           BANK     14
000045: 10,2000                                           SETLOC   PHASETAB
000046: 10,2000                                           BANK
000047:
000048: 10,2440                                           COUNT    10/PHASE
000049:
000050: 10,2440           00004        SETUPDSP           INHINT
000051: 10,2441           52071                           DXCH     RUPTREG1                              #  SAVE CALLER-S RETURN 2CADR
000052: 10,2442           34371                           CAF      PRIO30                                #        EITHER A TASK OR JOB CAN COME TO
000053: 10,2443           05150                           TC       NOVAC                                 #        NEWMODEX
000054: 10,2444     1011                                  EBANK=   MODREG
000055: 10,2444           03450 60102                     2CADR    DSPMMJOB
000056:
000057: 10,2446           52071                           DXCH     RUPTREG1
000058: 10,2447           00003                           RELINT
000059: 10,2450           52006                           DXCH     Z                                     #  RETURN
000060:
000061: 10,2451  40,3450               DSPMMJOB           EQUALS   DSPMMJB
000062:
000063:    5406                                           BLOCK    02
000064:    4000                                           SETLOC   FFTAG1
000065:    4000                                           BANK
000066:
000067:                                                                                                  #  PHASCHNG IS THE MAIN WAY OF MAKING PHASE CHANGES FOR RESTARTS.  THERE ARE THREE FORMS OF PHASCHNG, KNOWN AS TYPE
000068:                                                                                                  #  A, TYPE B, AND TYPE C.  THEY ARE ALL CALLED AS FOLLOWS, WHERE OCT XXXXX CONTAINS THE PHASE INFORMATION,
000069:                                                                                                  #                TC      PHASCHNG
000070:                                                                                                  #                OCT     XXXXX
000071:                                                                                                  #  TYPE A IS CONCERNED WITH FIXED PHASE CHANGES, THAT IS, PHASE INFORMATION THAT IS STORED PERMANENTLY.  THESE
000072:                                                                                                  #  OPTIONS ARE, WHERE G STANDS FOR A GROUP AND .X FOR THE PHASE,
000073:                                                                                                  #        G.0             INACTIVE, WILL NOT PERMIT A GROUP G RESTART
000074:                                                                                                  #        G.1             WILL CAUSE THE LAST DISPLAY TO BE REACTIVATED, USED MAINLY IN MANNED FLIGHTS
000075:                                                                                                  #        G.EVEN          A DOUBLE TABLE RESTART, CAN CAUSE ANY COMBINATION OF TWO JOBS, TASKS, AND/OR
000076:                                                                                                  #                        LONGCALL TO BE RESTARTED.
000077:                                                                                                  #        G.ODD NOT .1    A SINGLE TABLE RESTART, CAN CAUSE EITHER A JOB, TASK, OR LONGCALL RESTART
000078:
000079:                                                                                                  #  THIS INFORMATION IS PUT INTO THE OCTAL WORD AFTER TC PHASCHNG AS FOLLOWS
000080:                                                                                                  #                  TL0 00P PPP PPP GGG                                     ,
000081:                                                                                                  #  WHERE EACH LETTER OR NUMBER STANDS FOR A BIT.  THE G:S STAND FOR THE GROUP, OCTAL 1-7, THE P:S FOR THE PHASE,
000082:                                                                                                  #  OCTAL 0 - 127.  0:S MUST BE 0.  IF ONE WISHES TO HAVE THE TBASE OF GROUP G TO BE SET AT THIS TIME,
000083:                                                                                                  #  T IS SET TO 1, OTHERWISE IT IS SET TO 0.  SIMIARLY IF ONE WISHES TO SET LONGBASE, THEN L IS SET TO 1, OTHERWISE
000084:                                                                                                  #  IT IS SET TO 0.  SOME EXAMPLES,
000085:                                                                                                  #                TC      PHASCHNG        THIS WILL CAUSE GROUP 3 TO BE SET TO 0,
000086:                                                                                                  #                OCT     00003           MAKING GROUP 3 INACTIVE
000087:
000088:                                                                                                  #                TC      PHASCHNG        IF A RESTART OCCURS THIS WOULD CAUSE
000089:                                                                                                  #                OCT     00012           GROUP 2 TO RESTART THE LAST DISPLAY
000090:
000091:                                                                                                  #                TC      PHASCHNG        THIS SETS THE TBASE OF GROUP 4 AND IN
000092:                                                                                                  #                OCT     40064           CASE OF A RESTART WOULD START UP THE TWO
000093:                                                                                                  #                                        THINGS LOCATED IN THE DOUBLE 4.6 RESTART
000094:                                                                                                  #                                        LOCATION
000095:
000096:                                                                                                  #                TC      PHASCHNG        THIS SETS LONGBASE AND UPON A RESTART
000097:                                                                                                  #                OCT     20135           CAUSES 5.13 TO BE RESTARTED (SINCE
000098:                                                                                                  #                                        LONGBASE WAS SET THIS SINGLE ENTRY
000099:                                                                                                  #                                        SHOULD BE A LONGCALL)
000100:
000101:                                                                                                  #                TC      PHASCHNG        SINCE BOTH TBASE4 AND LONGBASE ARE SET,
000102:                                                                                                  #                OCT     60124           4.12 SHOULD CONTAIN BOTH A TASK AND A
000103:                                                                                                  #                                        LONGCALL TO BE RESTARTED
000104:
000105:                                                                                                  #  TYPE C PHASCHNG CONTAINS THE VARIABLE TYPE OF PHASCHNG INFORMATION.  INSTEAD OF THE INFORMATION BEING IN A
000106:                                                                                                  #  PERMANENT FORM, ONE STORES THE DESIRED RESTART INFORMATION IN A VARIABKE LOCATION.  THE BITS ARE AS FOLLOWS,
000107:                                                                                                  #        TL0 1AD XXX CJW GGG
000108:                                                                                                  #  WHERE EACH LETTER OR NUMBER STANDS FOR A BIT.  THE G:S STAND FOR THE GROUP, OCTAL 1 - 7.  IF THE RESTART IS TO
000109:                                                                                                  #  BE BY WAITLIST, W IS SET TO 1, IF IT IS A JOB, J IS SET TO 1, IF IT IS A LONGCALL, C IS SET TO 1.  ONLY ONE OF
000110:                                                                                                  #  THESE THREE BITS MAY BE SET.  X:S ARE IGNORED  1 MUST BE 1, AND 0 MUST BE 0.  AGAIN T STANDS FOR THE TBASE,
000111:                                                                                                  #  AND L FOR LONGBASE.  THE BITS A AND D ARE CONCERNED WITH THE VARIABLE INFORMATION.  IF D IS SET TO 1, A PRIORITY
000112:                                                                                                  #  OR DELTA TIME WILL BE READ FROM THE NEXT LOCATION AFTER THE OCTAL INFORMATION, IF THIS IS TO BE INDIRECT, THAT
000113:                                                                                                  #  IS, THE NAME OF A LOCATION COMT+INING THE INFORMATION (DELTA TIME ONLY), THEN THIS IS GIVEN AS THE -GENADR OF
000114:                                                                                                  #  THAT LOCATION WHICH CONTAINS THE DELTA TIME.  IF THE OLD PRIORITY OR DELTA TIME IS TO BE USED, THAT WHICH IS
000115:                                                                                                  #  ALREADY IN THE VARIABLE STORAGE, THEN D IS SET TO 0.  NEXT THE A BIT IS USED.  IF IT IS SET TO 0, THE ADDRESS
000116:                                                                                                  #  THAT WOULD BE RESTARTED DURING A RESTART IS THE NEXT LOCATION AFTER THE PHASE INFORMATION, THAT IS, EITHER
000117:                                                                                                  #  (TC PHASCHNG) +2 OR +3, DEPENDING ON WHETHER D HAD BEEN SET OR NOT.  IF A IS SET TO 1, THEN THE ADDRESS THAT
000118:                                                                                                  #  WOULD BE RESTARTED IS THE 2CADR THAT IS READ FROM THE NEXT TWO LOCATIONS.  EXAMPLES,
000119:                                                                                                  #        AD      TC      PHASCHNG        THIS WOULD CAUSE LOCATION AD +3 TO BE
000120:                                                                                                  #        AD+1    OCT     05023           RESTARTED BY GROUP THREE WITH A PRIORITY
000121:                                                                                                  #        AD+2    OCT     23000           OF 23.  NOTE UPON RETURNING IT WOULD
000122:                                                                                                  #        AD+3                            ALSO GO TO AD+3
000123:
000124:                                                                                                  #        AD      TC      PHASCHNG        GROUP  1 WOULD CAUSE CAUSE CALLCALL TO
000125:                                                                                                  #        AD+1    OCT     27441           BE STARTED AS A LONGCALL FROM THE TIME
000126:                                                                                                  #        AD+2    -GENADR DELTIME         STORED IN LONGBASE (LONGBASE WAS SET) BY
000127:                                                                                                  #        AD+3    2CADR   CALLCALL        A DELTATIME STORED IN DELTIME.  THE
000128:                                                                                                  #        AD+4                            BBCON OF THE 2CADR SHOULD CONTAIN THE E
000129:                                                                                                  #        AD+5                            BANK OF DELTIME.  PHASCHNG RETURNS TO
000130:                                                                                                  #                                        LOCATION AD+5
000131:
000132:                                                                                                  #  NOTE THAT IF A VARIABLE PRIORITY IS GIVEN FOR A JOB, THE JOB WILL BE RESTARTED AS A NOVAC IF THE PRIORITY IS
000133:                                                                                                  #  NEGATIVE, AS A FINDVAC IF THE PRIORITY IS POSITIVE.
000134:
000135:                                                                                                  #  TYPE B PHASCHNG IS A COMBINATION OF VARIABLE AND FIXED PHASE CHANGES.  IT WILL START UP A JOB AS INDICATED
000136:                                                                                                  #  BELOW AND ALSO START UP ONE FIXED RESTART, THAT IS EITHER AN G.1 OR A G.ODD OR THE FIRST ENTRY OF G.EVEN
000137:                                                                                                  #  DOUBLE ENTRY.  THE BIT INFORMATION IS AS FOLLOWS,
000138:                                                                                                  #        TL1 DAP PPP PPP GGG
000139:                                                                                                  #  WHERE EACH LETTER OR NUMBER STANDS FOR A BIT.  THE G:S STAND FOR THE GROUP, OCTAL 1 - 7. THE P:S FOR THE FIXED
000140:                                                                                                  #  PHASE INFORMATION, OCTAL 0 - 127.  1 MUST BE 1.  AND AGAIN T STANDS FOR THE TBASE AND L FOR LONGBASE.  D THIS
000141:                                                                                                  #  TIME STANDS ONLY FOR PRIORITY SINCE THIS WILL BE CONSIDERED A JOB, AND IT MUST BE GIVEN DIRECTLY IF GIVEN.
000142:                                                                                                  #  AGAIN A STANDS FOR THE ADDRESS OF THE LOCATION TO BE RESTARTED, 1 IF THE 2CADR IS GIVEN, OR 0 IF IT IS TO BE
000143:                                                                                                  #  THE NEXT LOCATION.  (THE RETURN LOCATION OF PHASCHNG) EXAMPLES,
000144:                                                                                                  #        AD      TC      PHASCHNG        TBASE IS SET AND A RESTART CAUSE GROUP 3
000145:                                                                                                  #        AD+1    OCT     56043           TO START THE JOB AJOBAJOB WITH PRIORITY
000146:                                                                                                  #        AD+2    OCT     31000           31 AND THE FIRST ENTRY OF 3.4SPOT (WE CAN
000147:                                                                                                  #        AD+3    2CADR   AJOBAJOB        ASSUME IT IS A TASK SINCE WE SET TBASE3)
000148:                                                                                                  #        AD+4                            UPON RETURN FROM PHASCHNG CONTROL WOULD
000149:                                                                                                  #        AD+5                            GO TO AD+5
000150:
000151:                                                                                                  #        AD      TC      PHASCHNG        UPON A RESTART THE LAST DISPLAY WOULD BE
000152:                                                                                                  #        AD+1    OCT     10015           RESTARTED AND A JOB WITH THE PREVIOUSLY
000153:                                                                                                  #        AD+2                            STORED PRIORITY WOULD BE BEGUN AT AD+2
000154:                                                                                                  #                                        BY MEANS OF GROUP 5
000155:                                                                                                  #  THE NOVAC-FINDVAC CHOICE FOR JOBS HOLDS HERE ALSO - NEGATIVE PRIORITY CAUSES A NOVAC CALL, POSITIVE A FINDVAC.
000156:
000157:                                                                                                  #  SUMMARY OF BITS
000158:                                                                                                  #        TYPE A          TL0 00P PPP PPP GGG
000159:                                                                                                  #        TYPE B          TL1 DAP PPP PPP GGG
000160:                                                                                                  #        TYPE C          TL0 1AD XXX CJW GGG
000161:
000162:                                                                                                  #  2PHSCHNG IS USED WHEN ONE WISHES TO START UP A GROUP OR CHANGE A GROUP WHILE UNDER THE CONTROL OF A DIFFERENT
000163:                                                                                                  #  GROUP.  FOR EXAMPLE, CHANGE THE PHASE OF GROUP 3 WHILE THE PORTION OF THE PROGRAM IS UNDER GROUP 5.  ALL 2PHSCHNG
000164:                                                                                                  #  CALLS ARE MADE IN THE FOLLOWING MANNER,
000165:                                                                                                  #                TC      2PHSCHNG
000166:                                                                                                  #                OCT     XXXXX
000167:                                                                                                  #                OCT     YYYYY
000168:                                                                                                  #  WHERE OCT XXXXX MUST BE OF TYPE A AND OCT YYYYY MAY BE OF EITHER TYPE A OR TYPE B OR TYPE C.  THERE IS ONE
000169:                                                                                                  #  DIFFERENCE --- NOTE- IF LONGBASE IS TO BE SET THIS INFORMATION IS GIVEN IN THE OCT YYYYY INFORMATION, IT WILL
000170:                                                                                                  #  BE DISREGARDED IF GIVEN WITH THE OCT XXXXX INFORMATION.  A COUPLE OF EXAMPLES MAY HELP,
000171:                                                                                                  #        AD      TC      2PHSCHNG        SET TBASE3 AND IF A RESTART OCCURS START
000172:                                                                                                  #        AD+1    OCT     40083           THE TWO ENTRIES IN 3.8 TABLE LOCATION
000173:                                                                                                  #        AD+2    OCT     05025           THIS IS OF TYPE C, SET THE JOB TO BE
000174:                                                                                                  #        AD+3    OCT     18000           TO BE LOCATION AD+4, WITH A PRIORITY 18,
000175:                                                                                                  #        AD+4                            FOR GROUP 5 PHASE INFORMATION
000176:
000177:    5406                                           COUNT    02/PHASE
000178:
000179:    5406           00004        2PHSCHNG           INHINT                                         #  THE ENTRY FOR A DOUBLE PHASE CHANGE
000180:    5407           50002                           NDX      Q
000181:    5410           30000                           CA       0
000182:    5411           24002                           INCR     Q
000183:    5412           54072                           TS       TEMPP2
000184:
000185:    5413           75037                           MASK     OCT7
000186:    5414           60000                           DOUBLE
000187:    5415           54071                           TS       TEMPG2
000188:
000189:    5416           30072                           CA       TEMPP2
000190:    5417           75106                           MASK     OCT17770                              #  NEED ONLY 1770, BUT WHY GET A NEW CONST.
000191:    5420           00006                           EXTEND
000192:    5421           75020                           MP       BIT12
000193:    5422           56072                           XCH      TEMPP2
000194:
000195:    5423           75015                           MASK     BIT15
000196:    5424           54066                           TS       TEMPSW2                               #  INDICATES WHETHER TO SET TBASE OR NOT
000197:
000198:    5425           15431                           TCF      PHASCHNG   +3
000199:
000200:    5426           00004        PHASCHNG           INHINT
000201:    5427           35033                           CA       ONE                                   #  INDICATESWE CAME FROM A PHASCHNG ENTRY
000202:    5430           54066                           TS       TEMPSW2
000203:
000204:    5431           50002                           NDX      Q
000205:    5432           30000                           CA       0
000206:    5433           24002                           INCR     Q
000207:    5434           54065                           TS       TEMPSW
000208:    5435           00006                           EXTEND
000209:    5436           35441                           DCA      ADRPCHN2                              #  OFF TO SWITCHED BANK
000210:    5437           52006                           DTCB
000211:
000212:    5440  E3,1400                                  EBANK=   LST1
000213:    5440           02451 20063  ADRPCHN2           2CADR    PHSCHNG2
000214:
000215:    5442           22073        ONEORTWO           LXCH     TEMPBBCN
000216:    5443           22006                           LXCH     BBANK
000217:    5444           22073                           LXCH     TEMPBBCN
000218:
000219:    5445           75102                           MASK     OCT14000                              #  SEE WHAT KIND OF PHASE CHANGE IT IS
000220:    5446           10000                           CCS      A
000221:    5447           15510                           TCF      CHECKB                                #  IT IS OF TYPE :B:
000222:
000223:    5450           30062                           CA       TEMPP
000224:    5451           75025                           MASK     BIT7
000225:    5452           10000                           CCS      A                                     #  SHALL WE USE THE OLD PRIORITY
000226:    5453           15475                           TCF      GETPRIO                               #  NO GET A NEW PRIORITY (OR DELTA T)
000227:
000228:    5454           50061        OLDPRIO            NDX      TEMPG                                 #  USE THE OLD PRIORITY (OR DELTA T)
000229:    5455           31052                           CA       PHSPRDT1   -2
000230:    5456           54070                           TS       TEMPPR
000231:
000232:    5457           30062        CON1               CA       TEMPP                                 #  SEE IF A 2CADR IS GIVEN
000233:    5460           75024                           MASK     BIT8
000234:    5461           10000                           CCS      A
000235:    5462           15501                           TCF      GETNEWNM
000236:
000237:    5463           30002                           CA       Q
000238:    5464           54063                           TS       TEMPNM
000239:    5465           30006                           CA       BB
000240:    5466           00006                           EXTEND                                         #  PICK UP USERS SUPERBANK
000241:    5467           04007                           ROR      SUPERBNK
000242:    5470           54064                           TS       TEMPBB
000243:
000244:    5471           35474        TOCON2             CA       CON2ADR                               #  BACK TO SWITCHED BANK
000245:    5472           22073                           LXCH     TEMPBBCN
000246:    5473           52006                           DTCB
000247:
000248:    5474           02537        CON2ADR            GENADR   CON2
000249:
000250:    5475           50002        GETPRIO            NDX      Q                                     #  DON:T CARE IF DIRECT OR INDIRECT
000251:    5476           30000                           CA       0                                     #  LEAVE THAT DECISION TO RESTARTS
000252:    5477           24002                           INCR     Q                                     #  OBTAIN RETURN ADDRESS
000253:    5500           15456                           TCF      CON1       -1
000254:
000255:    5501           00006        GETNEWNM           EXTEND
000256:    5502           50002                           INDEX    Q
000257:    5503           30001                           DCA      0
000258:    5504           52064                           DXCH     TEMPNM
000259:    5505           35032                           CA       TWO
000260:    5506           26002                           ADS      Q                                     #  OBTAIN RETURN ADDRESS
000261:
000262:    5507           15471                           TCF      TOCON2
000263:
000264:    5510     5102               OCT14000           EQUALS   PRIO14
000265:    5510     0061               TEMPG              EQUALS   ITEMP1
000266:    5510     0062               TEMPP              EQUALS   ITEMP2
000267:    5510     0063               TEMPNM             EQUALS   ITEMP3
000268:    5510     0064               TEMPBB             EQUALS   ITEMP4
000269:    5510     0065               TEMPSW             EQUALS   ITEMP5
000270:    5510     0066               TEMPSW2            EQUALS   ITEMP6
000271:    5510     0070               TEMPPR             EQUALS   RUPTREG1
000272:    5510     0071               TEMPG2             EQUALS   RUPTREG2
000273:    5510     0072               TEMPP2             EQUALS   RUPTREG3
000274:
000275:    5510     0073               TEMPBBCN           EQUALS   RUPTREG4
000276:    5510  0000006               BB                 EQUALS   BBANK
000277:
000278: 14,3763                                           BANK     14
000279: 10,2000                                           SETLOC   PHASETAB
000280: 10,2000                                           BANK
000281:
000282: 10,2451  E3,1436                                  EBANK=   PHSNAME1
000283: 10,2451                                           COUNT    10/PHASE
000284:
000285: 10,2451           22073        PHSCHNG2           LXCH     TEMPBBCN
000286: 10,2452           30065                           CA       TEMPSW
000287: 10,2453           75037                           MASK     OCT7
000288: 10,2454           60000                           DOUBLE
000289: 10,2455           54061                           TS       TEMPG
000290:
000291: 10,2456           30065                           CA       TEMPSW
000292: 10,2457           75106                           MASK     OCT17770
000293: 10,2460           00006                           EXTEND
000294: 10,2461           75020                           MP       BIT12
000295: 10,2462           54062                           TS       TEMPP
000296:
000297: 10,2463           30065                           CA       TEMPSW
000298: 10,2464           74105                           MASK     OCT60000
000299: 10,2465           56065                           XCH      TEMPSW
000300: 10,2466           75102                           MASK     OCT14000
000301: 10,2467           10000                           CCS      A
000302: 10,2470           15442                           TCF      ONEORTWO
000303:
000304: 10,2471           30062                           CA       TEMPP                                 #  START STORING THE PHASE INFORMATION
000305: 10,2472           50061                           NDX      TEMPG
000306: 10,2473           54751                           TS       PHASE1     -2
000307:
000308: 10,2474           10066        BELOW1             CCS      TEMPSW2                               #  IS IT A PHASCHNG OR A 2PHSCHNG
000309: 10,2475           12511                           TCF      BELOW2                                #  IT:S A PHASCHNG
000310:
000311: 10,2476           12477                           TCF      +1                                    #  IT:S A 2PHSCHNG
000312: 10,2477           40072                           CS       TEMPP2
000313: 10,2500           22072                           LXCH     TEMPP2
000314: 10,2501           50071                           NDX      TEMPG2
000315: 10,2502           52751                           DXCH     -PHASE1    -2
000316:
000317: 10,2503           10066                           CCS      TEMPSW2
000318: 10,2504           12505                           NOOP                                           #  CAN:T GET HERE
000319: 10,2505           12511                           TCF      BELOW2
000320:
000321: 10,2506           40025                           CS       TIME1
000322: 10,2507           50071                           NDX      TEMPG2
000323: 10,2510           55051                           TS       TBASE1     -2
000324:
000325: 10,2511           10065        BELOW2             CCS      TEMPSW                                #  SEE IF WE SHOULD SET TBASE OR LONGBASE
000326: 10,2512           12525                           TCF      BELOW3                                #  SET LONGBASE ONLY
000327: 10,2513           12530                           TCF      BELOW4                                #  SET NEITHER
000328:
000329: 10,2514           40025                           CS       TIME1                                 #  SET TBASE TO BEGIN WITH
000330: 10,2515           50061                           NDX      TEMPG
000331: 10,2516           55051                           TS       TBASE1     -2
000332:
000333: 10,2517           30065                           CA       TEMPSW                                #  SHALL WE NOW SET LONGBASE
000334: 10,2520           62523                           AD       BIT14COM
000335: 10,2521           10000                           CCS      A
000336: 10,2522           12523                           NOOP                                           #  ***** CANT GET HERE *****
000337: 10,2523           17777        BIT14COM           OCT      17777                                 #  ***** CANT GET HERE *****
000338: 10,2524           12530                           TCF      BELOW4                                #  NO WE NEED ONLY SET TBASE
000339:
000340: 10,2525           00006        BELOW3             EXTEND                                         #  SET LONGBASE
000341: 10,2526           30025                           DCA      TIME2
000342: 10,2527           53136                           DXCH     LONGBASE
000343:
000344: 10,2530           40062        BELOW4             CS       TEMPP                                 #  AND STORE THE FINAL PART OF THE PHASE
000345: 10,2531           50061                           NDX      TEMPG
000346: 10,2532           54750                           TS       -PHASE1    -2
000347:
000348: 10,2533           30002                           CA       Q
000349: 10,2534           22073                           LXCH     TEMPBBCN
000350: 10,2535           00003                           RELINT
000351: 10,2536           52006                           DTCB
000352: 10,2537           22073        CON2               LXCH     TEMPBBCN
000353: 10,2540           30062                           CA       TEMPP
000354: 10,2541           50061                           NDX      TEMPG
000355: 10,2542           54751                           TS       PHASE1     -2
000356:
000357: 10,2543           30070                           CA       TEMPPR
000358: 10,2544           50061                           NDX      TEMPG
000359: 10,2545           55052                           TS       PHSPRDT1   -2
000360:
000361: 10,2546           00006                           EXTEND
000362: 10,2547           30064                           DCA      TEMPNM
000363: 10,2550           50061                           NDX      TEMPG
000364: 10,2551           53435                           DXCH     PHSNAME1   -2
000365:
000366: 10,2552           12474                           TCF      BELOW1
000367:
000368:    5510                                           BLOCK    02
000369:    4000                                           SETLOC   FFTAG1
000370:    4000                                           BANK
000371:
000372:    5510                                           COUNT    02/PHASE
000373:
000374:    5510           75020        CHECKB             MASK     BIT12                                 #  SINCE THIS IS OF TYPE B, THIS BIT SHOULD
000375:    5511           10000                           CCS      A                                     #  BE HERE IF WE ARE TO GET A NEW PRIORITY
000376:    5512           15475                           TCF      GETPRIO                               #  IT IS, SO GET NEW PRIORITY
000377:
000378:    5513           15454                           TCF      OLDPRIO                               #  IT ISN:T, USE THE OLD PRIORITY
000379:
000380:
000381:

End of include-file PHASE_TABLE_MAINTENANCE.agc.  Parent file is MAIN.agc


