
Source Code


000002:                                                                                                  ## Copyright:   Public domain.
000003:                                                                                                  ## Filename:    PINBALL_NOUN_TABLES.agc
000004:                                                                                                  ## Purpose:     A section of Comanche revision 067.
000005:                                                                                                  ##              It is part of the reconstructed source code for the flight
000006:                                                                                                  ##              software for the Command Module's (CM) Apollo Guidance Computer
000007:                                                                                                  ##              (AGC) for Apollo 12. No original listings of this program are
000008:                                                                                                  ##              available; instead, this file was created via dissassembly of
000009:                                                                                                  ##              dumps of Comanche 067 core rope modules and comparison with
000010:                                                                                                  ##              other AGC programs.
000011:                                                                                                  ## Assembler:   yaYUL
000012:                                                                                                  ## Contact:     Ron Burkey <info@sandroid.org>.
000013:                                                                                                  ## Website:     www.ibiblio.org/apollo/index.html
000014:                                                                                                  ## Mod history: 2023-08-16 MAS  Created from Comanche 055.
000015:                                                                                                  ##              2024-05-13 MAS  Updated for Comanche 067.
000016:
000017:                                                                                                  #  THE FOLLOWING REFERS TO THE NOUN TABLES
000018:
000019:                                                                                                  #        COMPONENT CODE NUMBER   INTERPRETATION
000020:
000021:                                                                                                  #        00000                   1 COMPONENT
000022:                                                                                                  #        00001                   2 COMPONENT
000023:                                                                                                  #        00010                   3 COMPONENT
000024:                                                                                                  #        X1XXX                   BIT 4 = 1.  DECIMAL ONLY
000025:                                                                                                  #        1XXXX                   BIT 5 = 1.  NO LOAD
000026:
000027:                                                                                                  #        END OF COMPONENT CODE NUMBERS
000028:
000029:                                                                                                  #        SF ROUTINE CODE NUMBER  INTERPRETATION
000030:
000031:                                                                                                  #        00000                   OCTAL ONLY
000032:                                                                                                  #        00001                   STRAIGHT FRACTIONAL
000033:                                                                                                  #        00010                   CDU DEGREES (XXX.XX)
000034:                                                                                                  #        00011                   ARITHMETIC SF
000035:                                                                                                  #        00100                   ARITH DP1       OUT (MULT BY 2EXP14 AT END)     IN (STRAIGHT)
000036:                                                                                                  #        00101                   ARITH DP2       OUT (STRAIGHT)                  IN (SL 7 AT END)
000037:                                                                                                  #        00110                   Y OPTICS DEGREES (XX.XXX MAX 89.999)
000038:                                                                                                  #        00111                   ARITH DP3       OUT (SL 7 AT END)               IN (STRAIGHT)
000039:                                                                                                  #        01000                   WHOLE HOURS IN R1, WHOLE MINUTES (MOD 60) IN R2,
000040:                                                                                                  #                                        SECONDS (MOD 60) 0XX.XX IN R3.  *** ALARMS IF USED WITH OCTAL
000041:                                                                                                  #        01001                   MINUTES (MOD 60) IN D1D2, D3 BLANK, SECONDS (MOD 60) IN D4D5
000042:                                                                                                  #                                        LIMITS TO 59B59 IF MAG EXCEEDS THIS VALUE.
000043:                                                                                                  #                                        ALARMS IF USED WITH OCTAL ******** IN (ALARM)
000044:                                                                                                  #        01010                   ARITH DP4       OUT (STRAIGHT)                  IN (SL 3 AT END)
000045:                                                                                                  #        01011                   ARITH1 SF       OUT (MULT BY 2EXP14 AT END)     IN (STRAIGHT)
000046:                                                                                                  #        01100                   2 INTEGERS IN D1D2, D4D5, D3 BLANK.
000047:                                                                                                  #                                        ALARMS IF USED WITH OCTAL ******** IN (ALARM)
000048:                                                                                                  #        01101                   DP STRAIGHT FRACTIONAL
000049:
000050:                                                                                                  #        END OF SF ROUTINE CODE NUMBERS
000051:
000052:                                                                                                  #        SF CONSTANT CODE NUMBER INTERPRETATION
000053:
000054:                                                                                                  #        00000                   WHOLE                           USE ARITH
000055:                                                                                                  #        00000                   DP TIME SEC (XXX.XX SEC)        USE ARITHDP1
000056:                                                                                                  #        00001                   SPARE
000057:                                                                                                  #        00010                   CDU DEGREES                     USE CDU DEGREES
000058:                                                                                                  #        00010                   Y OPTICS DEGREES                USE Y OPTICS DEGREES
000059:                                                                                                  #        00011                   DP DEGREES (90) XX.XXX DEG      USE ARITHDP3
000060:                                                                                                  #        00100                   DP DEGREES (360) XXX.XX DEG     USE ARITHDP4
000061:                                                                                                  #        00101                   DEGREES (180) XXX.XX DEG        USE ARITH
000062:                                                                                                  #        00110                   WEIGHT2 (XXXXX. LBS)            USE ARITH1
000063:                                                                                                  #        00111                   POSITION5 (XXX.XX NAUTICAL MILES)
000064:                                                                                                  #                                                                USE ARITHDP3
000065:                                                                                                  #        01000                   POSITION4 (XXXX.X NAUTICAL MILES)
000066:                                                                                                  #                                                                USE ARITHDP3
000067:                                                                                                  #        01001                   VELOCITY2 (XXXXX. FT/SEC)       USE ARITHDP4
000068:                                                                                                  #        01010                   VELOCITY3 (XXXX.X FT/SEC)       USE ARITHDP3
000069:                                                                                                  #        01011                   ELEVATION DEGREES (89.999 MAX)  USE ARITH
000070:                                                                                                  #        01100                   TRIM DEGREES (XXX.XX DEG)       USE ARITH
000071:                                                                                                  #        01101                   INERTIA (XXXXXBB. SLUG FT FT)   USE ARITH
000072:                                                                                                  #        01101                   THRUST MOMENT (XXXXXBB. FT LBS) USE ARITH
000073:                                                                                                  #        01110                   VELOCITY/2VS (XXXXX. FT/SEC)    USE ARITHDP4
000074:                                                                                                  #        01111                   POSITION6 (XXXX.X NAUT MI)      USE ARITHDP3
000075:                                                                                                  #        10000                   DRAG ACCELERATION (XXX.XX G)    USE ARITHDP2
000076:                                                                                                  #        10001                   POSITION8 (XXXX.X NAUT MI)      USE ARITHDP3
000077:                                                                                                  #        10010                   POSITION9 (XXXXX. FT)           USE ARITHDP4
000078:                                                                                                  #        10011                   VELOCITY4 (XXXX.X FT/SEC)       USE ARITHDP2
000079:
000080:                                                                                                  #        END OF SF CONSTANT CODE NUMBERS
000081:
000082:                                                                                                  #  FOR GREATER THAN SINGLE PRECISION SCALES, PUT ADDRESS OF MAJOR PART INTO
000083:                                                                                                  #  NOUN TABLES.
000084:
000085:                                                                                                  #  OCTAL LOADS PLACE +0 INTO MAJOR PART, DATA INTO MINOR PART.
000086:
000087:                                                                                                  #  OCTAL DISPLAYS SHOW MINOR PART ONLY.
000088:
000089:                                                                                                  #  TO GET AT BOTH MAJOR AND MINOR PARTS (IN OCTAL), USE NOUN 01.
000090:
000091:                                                                                                  #  A NOUN MAY BE DECLARED :DECIMAL ONLY: BY MAKING BIT4=1 OF ITS COMPONENT
000092:                                                                                                  #  CODE NUMBER.  IF THIS NOUN IS USED WITH ANY OCTAL DISPLAY VERB, OR IF
000093:                                                                                                  #  DATA IS LOADED IN OCTAL, IT ALARMS.
000094:
000095:                                                                                                  #  IN LOADING AN :HOURS, MINUTES, SECONDS: NOUN, ALL 3 WORDS MUST BE
000096:                                                                                                  #  LOADED, OR ALARM.
000097:
000098:                                                                                                  #  ALARM IF AN ATTEMPT IS MADE TO LOAD :SPLIT MINUTES/SECONDS: (MMBSS).
000099:                                                                                                  #  THIS IS USED FOR DISPLAY ONLY.
000100:
000101:                                                                                                  #  THE FOLLOWING ROUTINES ARE FOR READING THE NOUN TABLES AND THE SF TABLES
000102:                                                                                                  #  (WHICH ARE IN A SEPARATE BANK FROM THE REST OF PINBALL).  THESE READING
000103:                                                                                                  #  ROUTINES ARE IN THE SAME BANK AS THE TABLES.  THEY ARE CALLED BY DXCH Z.
000104:
000105:                                                                                                  #  LODNNTAB LOADS NNADTEM WITH THE NNADTAB ENTRY, NNTYPTEM WITH THE
000106:                                                                                                  #  NNTYPTAB ENTRY.  IF THE NOUN IS MIXED, IDAD1TEM IS LOADED WITH THE FIRST
000107:                                                                                                  #  IDADDTAB ENTRY, IDAD2TEM THE SECOND IDADDTAB ENTRY, IDAD3TEM THE THIRD
000108:                                                                                                  #  IDADDTAB ENTRY, RUTMXTEM WITH THE RUTMXTAB ENTRY.  MIXBR IS SET FOR
000109:                                                                                                  #  MIXED OR NORMAL NOUN.
000110:
000111: 06,3262                                           BANK     06
000112: 42,2000                                           SETLOC   PINBALL3
000113: 42,2000                                           BANK
000114:
000115: 42,2062                                           COUNT    42/NOUNS
000116:
000117: 42,2062           52152        LODNNTAB           DXCH     IDAD2TEM                              #  SAVE RETURN INFO IN IDAD2TEM, IDAD3TEM.
000118: 42,2063           51002                           INDEX    NOUNREG
000119: 42,2064           32133                           CAF      NNADTAB
000120: 42,2065           54146                           TS       NNADTEM
000121: 42,2066           51002                           INDEX    NOUNREG
000122: 42,2067           32277                           CAF      NNTYPTAB
000123: 42,2070           54147                           TS       NNTYPTEM
000124: 42,2071           41002                           CS       NOUNREG
000125: 42,2072           65047                           AD       MIXCON
000126: 42,2073           00006                           EXTEND
000127: 42,2074           62100                           BZMF     LODMIXNN                              #  NOUN NUMBER G/E FIRST MIXED NOUN
000128: 42,2075           35033                           CAF      ONE                                   #  NOUN NUMBER L/ FIRST MIXED NOUN
000129: 42,2076           54140                           TS       MIXBR                                 #  NORMAL.  +1 INTO MIXBR.
000130: 42,2077           02116                           TC       LODNLV
000131: 42,2100           35032        LODMIXNN           CAF      TWO                                   #  MIXED.  +2 INTO MIXBR.
000132: 42,2101           54140                           TS       MIXBR
000133: 42,2102           51002                           INDEX    NOUNREG
000134: 42,2103           32777                           CAF      RUTMXTAB   -40D                       #  FIRST MIXED NOUN = 40.
000135: 42,2104           54153                           TS       RUTMXTEM
000136: 42,2105           35070                           CAF      LOW10
000137: 42,2106           70146                           MASK     NNADTEM
000138: 42,2107           54002                           TS       Q                                     #  TEMP
000139: 42,2110           50000                           INDEX    A
000140: 42,2111           32563                           CAF      IDADDTAB
000141: 42,2112           54150                           TS       IDAD1TEM                              #  LOAD IDAD1TEM WITH FIRST IDADDTAB ENTRY
000142: 42,2113           00006                           EXTEND
000143: 42,2114           50002                           INDEX    Q                                     #  LOAD IDAD2TEM WITH 2ND IDADDTAB ENTRY
000144: 42,2115           32565                           DCA      IDADDTAB   +1                         #  LOAD IDAD3TEM WITH 3RD IDADDTAB ENTRY.
000145: 42,2116           52152        LODNLV             DXCH     IDAD2TEM                              #  PUT RETURN INFO INTO A, L.
000146: 42,2117           52006                           DXCH     Z
000147:
000148: 42,2120     5047               MIXCON             =        OCT50                                 #  FIRST MIXED NOUN =40.  (DEC 40)
000149:
000150:                                                                                                  #  GTSFOUT LOADS SFTEMP1, SFTEMP2 WITH THE DP SFOUTAB ENTRIES.
000151:
000152: 42,2120           52124        GTSFOUT            DXCH     SFTEMP1                               #  2X (SFCONUM) ARRIVES IN SFTEMP1.
000153: 42,2121           00006                           EXTEND
000154: 42,2122           50000                           INDEX    A
000155: 42,2123           32514                           DCA      SFOUTAB
000156: 42,2124           52124        SFCOM              DXCH     SFTEMP1
000157: 42,2125           52006                           DXCH     Z
000158:
000159:                                                                                                  #  GTSFIN LOADS SFTEMP1, SFTEMP2 WITH THE DP SFINTAB ENTRIES.
000160:
000161: 42,2126           52124        GTSFIN             DXCH     SFTEMP1                               #  2X (SFCONUM) ARRIVES IN SFTEMP1.
000162: 42,2127           00006                           EXTEND
000163: 42,2130           50000                           INDEX    A
000164: 42,2131           32444                           DCA      SFINTAB
000165: 42,2132           12124                           TCF      SFCOM
000166:
000167:                                                                                                  #  NN    NORMAL NOUNS
000168:
000169: 42,2133           00000        NNADTAB            OCT      00000                                 #  00    NOT IN USE
000170: 42,2134           40000                           OCT      40000                                 #  01    SPECIFY MACHINE ADDRESS (FRACTIONAL)
000171: 42,2135           40000                           OCT      40000                                 #  02    SPECIFY MACHINE ADDRESS (WHOLE)
000172: 42,2136           40000                           OCT      40000                                 #  03    SPECIFY MACHINE ADDRESS (DEGREES)
000173: 42,2137           00000                           OCT      0                                     #  04    SPARE
000174: 42,2140           01045                           ECADR    DSPTEM1                               #  05    ANGULAR ERROR/DIFFERENCE
000175: 42,2141           01131                           ECADR    OPTION1                               #  06    OPTION CODE
000176: 42,2142           01003                           ECADR    XREG                                  #  07    ECADR OF WORD TO BE MODIFIED
000177:                                                                                                  #        ONES FOR BITS TO BE MODIFIED
000178:                                                                                                  #        1 TO SET OR 0 TO RESET SELECTED BITS
000179: 42,2143           01363                           ECADR    ALMCADR                               #  08    ALARM DATA
000180: 42,2144           00374                           ECADR    FAILREG                               #  09    ALARM CODES
000181: 42,2145           77776                           OCT      77776                                 #  10    CHANNEL TO BE SPECIFIED
000182: 42,2146           02636                           ECADR    TCSI                                  #  11    TIG OF CSI (HRS,MIN,SEC)
000183: 42,2147           01051                           ECADR    OPTIONX                               #  12    OPTION CODE
000184:                                                                                                  #        (USED BY EXTENDED VERBS ONLY)
000185: 42,2150           02634                           ECADR    TCDH                                  #  13    TIG OF CDH (HRS,MIN,SEC)
000186: 42,2151           00000                           OCT      0                                     #  14    SPARE
000187: 42,2152           77777                           OCT      77777                                 #  15    INCREMENT MACHINE ADDRESS
000188: 42,2153           01051                           ECADR    DSPTEMX                               #  16    TIME OF EVENT (HRS,MIN,SEC)
000189: 42,2154           01333                           ECADR    CPHIX                                 #  17    ASTRONAUT TOTAL ATTITUDE
000190: 42,2155           01155                           ECADR    THETAD                                #  18    AUTO MANEUVER BALL ANGLES
000191: 42,2156           01155                           ECADR    THETAD                                #  19    BYPASS ATTITUDE TRIM MANEUVER
000192: 42,2157           00032                           ECADR    CDUX                                  #  20    ICDU ANGLES
000193: 42,2160           00037                           ECADR    PIPAX                                 #  21    PIPAS
000194: 42,2161           01155                           ECADR    THETAD                                #  22    NEW ICDU ANGLES
000195: 42,2162           00000                           OCT      00000                                 #  23    SPARE
000196: 42,2163           01051                           ECADR    DSPTEM2    +1                         #  24    DELTA TIME FOR AGC CLOCK (HRS,MIN,SEC)
000197: 42,2164           01045                           ECADR    DSPTEM1                               #  25    CHECKLIST
000198:                                                                                                  #        (USED WITH PLEASE PERFORM ONLY)
000199: 42,2165           01045                           ECADR    DSPTEM1                               #  26    PRIO/DELAY, ADRES, BBCON
000200: 42,2166           01362                           ECADR    SMODE                                 #  27    SELF TEST ON/OFF SWITCH
000201: 42,2167           00000                           OCT      0                                     #  28    SPARE
000202: 42,2170           01045                           ECADR    DSPTEM1                               #  29    XSM LAUNCH AZIMUTH
000203: 42,2171           01045                           ECADR    DSPTEM1                               #  30    TARGET CODES
000204: 42,2172           01045                           ECADR    DSPTEM1                               #  31    TIME OF LANDING SITE (HRS,MIN,SEC)
000205: 42,2173           02345                           ECADR    -TPER                                 #  32    TIME TO PERIGEE (HRS,MIN,SEC)
000206: 42,2174           03412                           ECADR    TIG                                   #  33    TIME OF IGNITION (HRS,MIN(SEC)
000207: 42,2175           01045                           ECADR    DSPTEM1                               #  34    TIME OF EVENT (HRS,MIN,SEC)
000208: 42,2176           03660                           ECADR    TTOGO                                 #  35    TIME TO GO TO EVENT (HRS,MIN,SEC)
000209: 42,2177           00024                           ECADR    TIME2                                 #  36    TIME OF AGC CLOCK (HRS,MIN,SEC)
000210: 42,2200           03662                           ECADR    TTPI                                  #  37    TIG OF TPI (HRS,MIN,SEC)
000211: 42,2201           01516                           ECADR    TET                                   #  38    TIME OF STATE VECTOR
000212: 42,2202           02640                           ECADR    T3TOT4                                #  39    DELTA TIME TO TRANSFER (HRS,MIN,SEC)
000213:
000214:                                                                                                  #  END OF NNADTAB FOR NORMAL NOUNS
000215:
000216:                                                                                                  #  NN    MIXED NOUNS
000217:
000218: 42,2203           64000                           OCT      64000                                 #  40    TIME TO IGNITION/CUTOFF
000219:                                                                                                  #        VG
000220:                                                                                                  #        DELTA V (ACCUMULATED)
000221: 42,2204           02003                           OCT      02003                                 #  41    TARGET  AZIMUTH
000222:                                                                                                  #                ELEVATION
000223: 42,2205           24006                           OCT      24006                                 #  42    APOGEE
000224:                                                                                                  #        PERIGEE
000225:                                                                                                  #        DELTA V (REQUIRED)
000226: 42,2206           24011                           OCT      24011                                 #  43    LATITUDE
000227:                                                                                                  #        LONGITUDE
000228:                                                                                                  #        ALTITUDE
000229: 42,2207           64014                           OCT      64014                                 #  44    APOGEE
000230:                                                                                                  #        PERIGEE
000231:                                                                                                  #        TFF
000232: 42,2210           64017                           OCT      64017                                 #  45    MARKS (VHF -  OPTICS)
000233:                                                                                                  #        TTI OF NEXT BURN
000234:                                                                                                  #        MGA
000235: 42,2211           02022                           OCT      02022                                 #  46    AUTOPILOT CONFIGURATION
000236: 42,2212           22025                           OCT      22025                                 #  47    THIS VEHICLE WEIGHT
000237:                                                                                                  #        OTHER VEHICLE WEIGHT
000238: 42,2213           22030                           OCT      22030                                 #  48    PITCH TRIM
000239:                                                                                                  #        YAW TRIM
000240: 42,2214           24033                           OCT      24033                                 #  49    DELTA R
000241:                                                                                                  #        DELTA V
000242:                                                                                                  #        VHF OR OPTICS CODE
000243: 42,2215           64036                           OCT      64036                                 #  50    SPLASH ERROR
000244:                                                                                                  #        PERIGEE
000245:                                                                                                  #        TFF
000246: 42,2216           22041                           OCT      22041                                 #  51    S-BAND ANTENNA  PITCH
000247:                                                                                                  #                        YAW
000248: 42,2217           00044                           OCT      00044                                 #  52    CENTRAL ANGLE OF ACTIVE VEHICLE
000249: 42,2220           24047                           OCT      24047                                 #  53    RANGE
000250:                                                                                                  #        RANGE RATE
000251:                                                                                                  #        PHI
000252: 42,2221           24052                           OCT      24052                                 #  54    RANGE
000253:                                                                                                  #        RANGE RATE
000254:                                                                                                  #        THETA
000255: 42,2222           24055                           OCT      24055                                 #  55    PERIGEE CODE
000256:                                                                                                  #        ELEVATION ANGLE
000257:                                                                                                  #        CENTRAL ANGLE
000258: 42,2223           22060                           OCT      22060                                 #  56    REENTRY ANGLE,
000259:                                                                                                  #        DELTA V
000260: 42,2224           20063                           OCT      20063                                 #  57    DELTA R
000261: 42,2225           24066                           OCT      24066                                 #  58    PERIGEE ALT
000262:                                                                                                  #        DELTA V TPI
000263:                                                                                                  #        DELTA V TPF
000264: 42,2226           24071                           OCT      24071                                 #  59    DELTA VELOCITY LOS
000265: 42,2227           24074                           OCT      24074                                 #  60    GMAX
000266:                                                                                                  #        VPRED
000267:                                                                                                  #        GAMMA EI
000268: 42,2230           24077                           OCT      24077                                 #  61    IMPACT LATITUDE
000269:                                                                                                  #        IMPACT LONGITUDE
000270:                                                                                                  #        HEADS UP/DOWN
000271: 42,2231           24102                           OCT      24102                                 #  62    INERTIAL VEL MAG (VI)
000272:                                                                                                  #        ALT RATE CHANGE (HDOT)
000273:                                                                                                  #        ALT ABOVE PAD RADIUS (H)
000274: 42,2232           64105                           OCT      64105                                 #  63    RANGE 297,431 TO SPLASH (RTGO)
000275:                                                                                                  #        PREDICTED INERT VEL (VIO)
000276:                                                                                                  #        TIME TO GO TO 297,431 (TTE)
000277: 42,2233           24110                           OCT      24110                                 #  64    DRAG ACCELERATION
000278:                                                                                                  #        INERTIAL VELOCITY (VI)
000279:                                                                                                  #        RANGE TO SPLASH
000280: 42,2234           24113                           OCT      24113                                 #  65    SAMPLED AGC TIME (HRS,MIN,SEC)
000281:                                                                                                  #        (FETCHED IN INTERRUPT)
000282: 42,2235           24116                           OCT      24116                                 #  66    COMMAND BANK ANGLE (BETA)
000283:                                                                                                  #        CROSS RANGE ERROR
000284:                                                                                                  #        DOWN RANGE ERROR
000285: 42,2236           24121                           OCT      24121                                 #  67    RANGE TO TARGET
000286:                                                                                                  #        PRESENT LATITUDE
000287:                                                                                                  #        PRESENT LONGITUDE
000288: 42,2237           24124                           OCT      24124                                 #  68    COMMAND BANK ANGLE (BETA)
000289:                                                                                                  #        INERTIAL VELOCITY (VI)
000290:                                                                                                  #        ALT RATE CHANGE (RDOT)
000291: 42,2240           24127                           OCT      24127                                 #  69    BETA
000292:                                                                                                  #        DL
000293:                                                                                                  #        VL
000294: 42,2241           04132                           OCT      04132                                 #  70    STAR CODE
000295:                                                                                                  #        LANDMARK DATA
000296:                                                                                                  #        HORIZON DATA
000297: 42,2242           04135                           OCT      04135                                 #  71    STAR CODE
000298:                                                                                                  #        LANDMARK
000299:                                                                                                  #        HORIZON
000300: 42,2243           24140                           OCT      24140                                 #  72    DELT ANG
000301:                                                                                                  #        DELT ALT
000302:                                                                                                  #        SEARCH OPTION
000303: 42,2244           04143                           OCT      04143                                 #  73    ALTITUDE
000304:                                                                                                  #        VELOCITY
000305:                                                                                                  #        FLIGHT PATH ANGLE
000306: 42,2245           04146                           OCT      04146                                 #  74    COMMAND BANK ANGLE (BETA)
000307:                                                                                                  #        INERTIAL VELOCITY (VI)
000308:                                                                                                  #        DRAG ACCELERATION
000309: 42,2246           64151                           OCT      64151                                 #  75    DELTA ALTITUDE CDH
000310:                                                                                                  #        DELTA TIME (CDH-CSI OR TPI-CDH)
000311:                                                                                                  #        DELTA TIME (TPI-CDH OR TPI-NOMTPI)
000312: 42,2247           00000                           OCT      0                                     #  76    SPARE
000313: 42,2250           00000                           OCT      0                                     #  77    SPARE
000314: 42,2251           00000                           OCT      0                                     #  78    SPARE
000315: 42,2252           04165                           OCT      04165                                 #  79    RATE (+INCR CDU)
000316:                                                                                                  #        DEADBAND
000317:                                                                                                  #        AXIS CODE
000318: 42,2253           64170                           OCT      64170                                 #  80    TIME TO IGNITION/CUTOFF
000319:                                                                                                  #        VG
000320:                                                                                                  #        DELTA V (ACCUMULATED)
000321: 42,2254           24173                           OCT      24173                                 #  81    DELTA V (LV)
000322: 42,2255           24176                           OCT      24176                                 #  82    DELTA V (LV)
000323: 42,2256           24201                           OCT      24201                                 #  83    DELTA V (BODY)
000324: 42,2257           24204                           OCT      24204                                 #  84    DELTA V (OTHER VEHICLE)
000325: 42,2260           24207                           OCT      24207                                 #  85    VG (BODY)
000326: 42,2261           24212                           OCT      24212                                 #  86    DELTA V (LV)
000327: 42,2262           02215                           OCT      02215                                 #  87    MARK DATA       SHAFT
000328:                                                                                                  #                        TRUNION
000329: 42,2263           24220                           OCT      24220                                 #  88    HALF UNIT SUN OR PLANET VECTOR
000330: 42,2264           24223                           OCT      24223                                 #  89    LANDMARK        LATITUDE
000331:                                                                                                  #                        LONGITUDE/2
000332:                                                                                                  #                        ALTITUDE
000333: 42,2265           24226                           OCT      24226                                 #  90    Y
000334:                                                                                                  #        Y DOT
000335:                                                                                                  #        PSI
000336: 42,2266           02231                           OCT      02231                                 #  91    OCDU ANGLES     SHAFT
000337:                                                                                                  #                        TRUNION
000338: 42,2267           02234                           OCT      02234                                 #  92    NEW OPTICS ANGLES SHAFT
000339:                                                                                                  #                          TRUNION
000340: 42,2270           04237                           OCT      04237                                 #  93    DELTA GYRO ANGLES
000341: 42,2271           02242                           OCT      02242                                 #  94    NEW OPTICS ANGLES SHAFT
000342:                                                                                                  #                          TRUNNION
000343: 42,2272           04245                           OCT      04245                                 #  95    PREFERRED ATTITUDE ICDU ANGLES
000344: 42,2273           04250                           OCT      04250                                 #  96    +X-AXIS ATTITUDE ICDU ANGLES
000345: 42,2274           04253                           OCT      04253                                 #  97    SYSTEM TEST INPUTS
000346: 42,2275           04256                           OCT      04256                                 #  98    SYSTEM TEST RESULTS
000347: 42,2276           24261                           OCT      24261                                 #  99    RMS IN POSITION
000348:                                                                                                  #        RMS IN VELOCITY
000349:                                                                                                  #        RMS OPTION
000350:
000351:                                                                                                  #  END OF NNADTAB FOR MIXED NOUNS
000352:
000353:                                                                                                  #  NN    NORMAL NOUNS
000354: 42,2277           00000        NNTYPTAB           OCT      00000                                 #  00    NOT IN USE
000355: 42,2300           04040                           OCT      04040                                 #  01    3COMP FRACTIONAL
000356: 42,2301           04140                           OCT      04140                                 #  02    3COMP WHOLE
000357: 42,2302           04102                           OCT      04102                                 #  03    3COMP CDU DEGREES
000358: 42,2303           00000                           OCT      0                                     #  04    SPARE
000359: 42,2304           00504                           OCT      00504                                 #  05    1COMP DPDEG(360)
000360: 42,2305           02000                           OCT      02000                                 #  06    2COMP OCTAL ONLY
000361: 42,2306           04000                           OCT      04000                                 #  07    3COMP OCTAL ONLY
000362: 42,2307           04000                           OCT      04000                                 #  08    3COMP OCTAL ONLY
000363: 42,2310           04000                           OCT      04000                                 #  09    3COMP OCTAL ONLY
000364: 42,2311           00000                           OCT      00000                                 #  10    1COMP OCTAL ONLY
000365: 42,2312           24400                           OCT      24400                                 #  11    3COMP HMS (DEC ONLY)
000366: 42,2313           02000                           OCT      02000                                 #  12    2COMP OCTAL ONLY
000367: 42,2314           24400                           OCT      24400                                 #  13    3COMP HMS (DEC ONLY)
000368: 42,2315           00000                           OCT      0                                     #  14    SPARE
000369: 42,2316           00000                           OCT      00000                                 #  15    1COMP OCTAL ONLY
000370: 42,2317           24400                           OCT      24400                                 #  16    3COMP HMS (DEC ONLY)
000371: 42,2320           04102                           OCT      04102                                 #  17    3COMP CDU DEG
000372: 42,2321           04102                           OCT      04102                                 #  18    3COMP CDU DEG
000373: 42,2322           04102                           OCT      04102                                 #  19    3COMP CDU DEG
000374: 42,2323           04102                           OCT      04102                                 #  20    3COMP CDU DEGREES
000375: 42,2324           04140                           OCT      04140                                 #  21    3COMP WHOLE
000376: 42,2325           04102                           OCT      04102                                 #  22    3COMP CDU DEGREES
000377: 42,2326           00000                           OCT      00000                                 #  23    SPARE
000378: 42,2327           24400                           OCT      24400                                 #  24    3COMP HMS (DEC ONLY)
000379: 42,2330           04140                           OCT      04140                                 #  25    3COMP WHOLE
000380: 42,2331           04000                           OCT      04000                                 #  26    3COMP OCTAL ONLY
000381: 42,2332           00140                           OCT      00140                                 #  27    1COMP WHOLE
000382: 42,2333           00000                           OCT      00000                                 #  28    SPARE
000383: 42,2334           20102                           OCT      20102                                 #  29    1COMP CDU DEG (DEC ONLY)
000384: 42,2335           04140                           OCT      04140                                 #  30    3COMP WHOLE
000385: 42,2336           24400                           OCT      24400                                 #  31    3COMP HMS (DEC ONLY)
000386: 42,2337           24400                           OCT      24400                                 #  32    3COMP HMS (DEC ONLY)
000387: 42,2340           24400                           OCT      24400                                 #  33    3COMP HMS (DEC ONLY)
000388: 42,2341           24400                           OCT      24400                                 #  34    3COMP HMS (DEC ONLY)
000389: 42,2342           24400                           OCT      24400                                 #  35    3COMP HMS (DEC ONLY)
000390: 42,2343           24400                           OCT      24400                                 #  36    3COMP HMS (DEC ONLY)
000391: 42,2344           24400                           OCT      24400                                 #  37    3COMP HMS (DEC ONLY)
000392: 42,2345           24400                           OCT      24400                                 #  38    3COMP HMS (DEC ONLY)
000393: 42,2346           24400                           OCT      24400                                 #  39    3COMP HMS (DEC ONLY)
000394:
000395:                                                                                                  #  END OF NNTYPTAB FOR NORMAL NOUNS
000396:
000397:                                                                                                  #  NN    MIXED NOUNS
000398:
000399: 42,2347           24500                           OCT      24500                                 #  40    3COMP   MIN/SEC, VEL3, VEL3
000400:                                                                                                  #                (NO LOAD, DEC ONLY)
000401: 42,2350           00542                           OCT      00542                                 #  41    2COMP   CDU DEG, ELEV DEG
000402: 42,2351           24410                           OCT      24410                                 #  42    3COMP   POS4, POS4, VEL3
000403:                                                                                                  #                (DEC ONLY)
000404: 42,2352           20204                           OCT      20204                                 #  43    3COMP   DPDEG(360), DPDEG(360), POS4
000405:                                                                                                  #                (DEC ONLY)
000406: 42,2353           00410                           OCT      00410                                 #  44    3COMP   POS4, POS4, MIN/SEC
000407:                                                                                                  #                (NO LOAD, DEC ONLY)
000408: 42,2354           10000                           OCT      10000                                 #  45    3COMP   2INT, MIN/SEC, DPDEG(360)
000409:                                                                                                  #                (NO LOAD, DEC ONLY)
000410: 42,2355           00000                           OCT      00000                                 #  46    2COMP   OCTAL ONLY FOR EACH
000411: 42,2356           00306                           OCT      00306                                 #  47    2COMP   WEIGHT2 FOR EACH
000412:                                                                                                  #                (DEC ONLY)
000413: 42,2357           00614                           OCT      00614                                 #  48    2COMP   TRIM DEG, TRIM DEG
000414:                                                                                                  #                (DEC ONLY)
000415: 42,2360           00510                           OCT      00510                                 #  49    3COMP   POS4, VEL3, WHOLE
000416:                                                                                                  #                (DEC ONLY)
000417: 42,2361           00417                           OCT      00417                                 #  50    3COMP   POS6, POS4, MIN/SEC
000418:                                                                                                  #                (NO LOAD, DEC ONLY)
000419: 42,2362           00204                           OCT      00204                                 #  51    2COMP   DPDEG(360), DPDEG(360)
000420:                                                                                                  #                (DEC ONLY)
000421: 42,2363           00004                           OCT      00004                                 #  52    1COMP   DPDEG(360)
000422: 42,2364           10507                           OCT      10507                                 #  53    3COMP   POS5, VEL3, DPDEG(360)
000423:                                                                                                  #                (DEC ONLY)
000424: 42,2365           10507                           OCT      10507                                 #  54    3COMP   POS5, VEL3, DPDEG(360)
000425:                                                                                                  #                (DEC ONLY)
000426: 42,2366           10200                           OCT      10200                                 #  55    3COMP   WHOLE, DPDEG(360), DPDEG(360)
000427:                                                                                                  #                (DEC ONLY)
000428: 42,2367           00444                           OCT      00444                                 #  56    2COMP   DPDEG(360), VEL2
000429:                                                                                                  #                (DEC ONLY)
000430: 42,2370           00010                           OCT      00010                                 #  57    1COMP   POS4
000431:                                                                                                  #                (DEC ONLY)
000432: 42,2371           24510                           OCT      24510                                 #  58    3COMP   POS4, VEL3, VEL3
000433:                                                                                                  #                (DEC ONLY)
000434: 42,2372           24512                           OCT      24512                                 #  59    3COMP   VEL3 FOR EACH
000435:                                                                                                  #                (DEC ONLY)
000436: 42,2373           10440                           OCT      10440                                 #  60    3COMP   WHOLE, VEL2, DPDEG(360)
000437:                                                                                                  #                (DEC ONLY)
000438: 42,2374           00204                           OCT      00204                                 #  61    3COMP   DPDEG(360), DPDEG(360), WHOLE
000439:                                                                                                  #                (DEC ONLY)
000440: 42,2375           20451                           OCT      20451                                 #  62    3COMP   VEL2, VEL2, POS4
000441:                                                                                                  #                (DEC ONLY)
000442: 42,2376           00457                           OCT      00457                                 #  63    3COMP   POS6, VEL2, MIN/SEC
000443:                                                                                                  #                (NO LOAD, DEC ONLY)
000444: 42,2377           36460                           OCT      36460                                 #  64    3COMP   DRAG ACCEL, VEL2, POS6
000445:                                                                                                  #                (DEC ONLY)
000446: 42,2400           00000                           OCT      00000                                 #  65    3COMP   HMS (DEC ONLY)
000447: 42,2401           37044                           OCT      37044                                 #  66    3COMP   DPDEG(360), POS8, POS6
000448:                                                                                                  #                (DEC ONLY)
000449: 42,2402           10217                           OCT      10217                                 #  67    3COMP   POS6, DPDEG(360), DPDEG(360)
000450:                                                                                                  #                (DEC ONLY)
000451: 42,2403           34444                           OCT      34444                                 #  68    3COMP   DPDEG(360), VEL2, VEL/2VS
000452:                                                                                                  #                (DEC ONLY)
000453: 42,2404           35004                           OCT      35004                                 #  69    3COMP   DPDEG(360), DRAG ACCEL, VEL/2VS
000454:                                                                                                  #                (DEC ONLY)
000455: 42,2405           00000                           OCT      00000                                 #  70    3COMP   OCTAL ONLY FOR EACH
000456: 42,2406           00000                           OCT      0                                     #  71    3COMP   OCTAL ONLY FOR EACH
000457: 42,2407           00404                           OCT      00404                                 #  72    3COMP   DPDEG(360), POS4, WHOLE
000458:                                                                                                  #                (DEC ONLY)
000459: 42,2410           10450                           OCT      10450                                 #  73    3COMP   POS4, VEL2, DPDEG(360)
000460: 42,2411           40444                           OCT      40444                                 #  74    3COMP   DPDEG(360), VEL2, DRAG ACCEL
000461: 42,2412           00010                           OCT      00010                                 #  75    3COMP   POS4, MIN/SEC, MIN/SEC
000462:                                                                                                  #                (NO LOAD, DEC ONLY)
000463: 42,2413           00000                           OCT      0                                     #  76    SPARE
000464: 42,2414           00000                           OCT      0                                     #  77    SPARE
000465: 42,2415           00000                           OCT      0                                     #  78    SPARE
000466: 42,2416           00113                           OCT      00113                                 #  79    3COMP   ELEV DEG, CDU DEG, WHOLE
000467: 42,2417           22440                           OCT      22440                                 #  80    3COMP   MIN/SEC, VEL2, VEL2
000468:                                                                                                  #                (NO LOAD, DEC ONLY)
000469: 42,2420           24512                           OCT      24512                                 #  81    3COMP   VEL3 FOR EACH
000470:                                                                                                  #                (DEC ONLY)
000471: 42,2421           24512                           OCT      24512                                 #  82    3COMP   VEL3 FOR EACH
000472:                                                                                                  #                (DEC ONLY)
000473: 42,2422           24512                           OCT      24512                                 #  83    3COMP   VEL3 FOR EACH
000474:                                                                                                  #                (DEC ONLY)
000475: 42,2423           24512                           OCT      24512                                 #  84    3COMP   VEL3 FOR EACH
000476:                                                                                                  #                (DEC ONLY)
000477: 42,2424           24512                           OCT      24512                                 #  85    3COMP   VEL3 FOR EACH
000478:                                                                                                  #                (DEC ONLY)
000479: 42,2425           22451                           OCT      22451                                 #  86    3COMP   VEL2 FOR EACH
000480:                                                                                                  #                (DEC ONLY)
000481: 42,2426           00102                           OCT      00102                                 #  87    2COMP   CDU DEG, Y OPTICS DEG
000482: 42,2427           00000                           OCT      0                                     #  88    3COMP   FRAC FOR EACH
000483:                                                                                                  #                (DEC ONLY)
000484: 42,2430           16143                           OCT      16143                                 #  89    3COMP   DPDEG(90), DPDEG(90), POS5
000485:                                                                                                  #                (DEC ONLY)
000486: 42,2431           10507                           OCT      10507                                 #  90    3COMP   POS5, VEL3, DPDEG(360)
000487:                                                                                                  #                (DEC ONLY)
000488: 42,2432           00102                           OCT      00102                                 #  91    2COMP   CDUDEG, YOPTICS DEG
000489: 42,2433           00102                           OCT      00102                                 #  92    2COMP   CDUDEG, YOPTICS DEG
000490: 42,2434           06143                           OCT      06143                                 #  93    3COMP   DPDEG(90) FOR EACH
000491: 42,2435           00102                           OCT      00102                                 #  94    2COMP   CDUDEG, YOPTICS DEG
000492: 42,2436           04102                           OCT      04102                                 #  95    3COMP   CDU DEG FOR EACH
000493: 42,2437           04102                           OCT      04102                                 #  96    3COMP   CDU DEG FOR EACH
000494: 42,2440           00000                           OCT      00000                                 #  97    3COMP   WHOLE FOR EACH
000495: 42,2441           00000                           OCT      00000                                 #  98    3COMP   WHOLE, FRAC, WHOLE
000496: 42,2442           01162                           OCT      01162                                 #  99    3COMP   POS9, VEL4, WHOLE
000497:                                                                                                  #                (DEC ONLY)
000498:
000499:                                                                                                  #  END OF NNTYPTAB FOR MIXED NOUNS
000500:
000501: 42,2443           00006        SFINTAB            OCT      00006                                 #  WHOLE, DP TIME (SEC)
000502: 42,2444           03240                           OCT      03240
000503: 42,2445           00000                           OCT      00000                                 #  SPARE
000504: 42,2446           00000                           OCT      00000
000505: 42,2447           00000                           OCT      00000                                 #  CDU DEGREES, Y OPTICS DEGREES
000506: 42,2450           00000                           OCT      00000                                 #        (SFCONS IN DEGINSF, OPTDEGIN)
000507: 42,2451           10707                           OCT      10707                                 #  DP DEGREES (90)
000508: 42,2452           03435                           OCT      03435                                 #        UPPED BY 1
000509: 42,2453           13070                           OCT      13070                                 #  DP DEGREES (360) (POINT BETWN BITS 11-12)
000510: 42,2454           34345                           OCT      34345                                 #        UPPED BY 1
000511: 42,2455           00005                           OCT      00005                                 #  DEGREES (180)
000512: 42,2456           21616                           OCT      21616
000513: 42,2457           26113                           OCT      26113                                 #  WEIGHT2
000514: 42,2460           31713                           OCT      31713
000515: 42,2461           00070                           OCT      00070                                 #  POSITION5
000516: 42,2462           20460                           OCT      20460
000517: 42,2463           01065                           OCT      01065                                 #  POSITION4
000518: 42,2464           05740                           OCT      05740
000519: 42,2465           11414                           OCT      11414                                 #  VELOCITY2     (POINT BETWN BITS 11-12)
000520: 42,2466           31463                           OCT      31463
000521: 42,2467           07475                           OCT      07475                                 #  VELOCITY3
000522: 42,2470           16051                           OCT      16051
000523: 42,2471           00001                           OCT      00001                                 #  ELEVATION DEGREES
000524: 42,2472           03434                           OCT      03434
000525: 42,2473           00002                           OCT      00002                                 #  TRIM DEGREES
000526: 42,2474           22245                           OCT      22245
000527: 42,2475           00014                           OCT      00014                                 #  INERTIA, THRUST MOMENT
000528: 42,2476           35607                           OCT      35607
000529: 42,2477           07606                           OCT      07606                                 #  VELOCITY/2VS
000530: 42,2500           06300                           OCT      06300
000531: 42,2501           16631                           OCT      16631                                 #  POSITION 6
000532: 42,2502           11307                           OCT      11307
000533: 42,2503           12000                           OCT      12000                                 #  DRAG ACCELERATION (POINT BETWN BITS 7-8)
000534: 42,2504           00000                           OCT      00000
000535: 42,2505           27176                           OCT      27176                                 #  POSITION 8
000536: 42,2506           14235                           OCT      14235
000537: 42,2507           01670 20000                     2DEC     30480      B-19                       #  POSITION 9
000538:
000539: 42,2511           07475 16051                     2DEC     30.48      B-7                        #  VELOCITY4
000540:
000541:                                                                                                  #  END OF SFINTAB
000542:
000543: 42,2513           05174        SFOUTAB            OCT      05174                                 #  WHOLE, DP TIME (SEC)
000544: 42,2514           13261                           OCT      13261
000545: 42,2515           00000                           OCT      00000                                 #  SPARE
000546: 42,2516           00000                           OCT      00000
000547: 42,2517           00000                           OCT      00000                                 #  CDU DEGREES, Y OPTICS DEGREES
000548: 42,2520           00000                           OCT      00000                                 #        (SFCONS IN DEGOUTSF, OPTDEGOUT)
000549: 42,2521           00714                           OCT      00714                                 #  DP DEGREES (90) (POINT BETWN BITS 7-8)
000550: 42,2522           31463                           OCT      31463
000551: 42,2523           13412                           OCT      13412                                 #  DP DEGREES (360)
000552: 42,2524           07534                           OCT      07534
000553: 42,2525           05605                           OCT      05605                                 #  DEGREES (180)
000554: 42,2526           03656                           OCT      03656
000555: 42,2527           00001                           OCT      00001                                 #  WEIGHT2
000556: 42,2530           16170                           OCT      16170
000557: 42,2531           00441                           OCT      00441                                 #  POSITION5
000558: 42,2532           34306                           OCT      34306
000559: 42,2533           07176                           OCT      07176                                 #  POSITION4
000560: 42,2534           21603                           OCT      21603
000561: 42,2535           15340                           OCT      15340                                 #  VELOCITY2
000562: 42,2536           15340                           OCT      15340
000563: 42,2537           01031                           OCT      01031                                 #  VELOCITY3     (POINT BETWN BITS 7-8)
000564: 42,2540           21032                           OCT      21032
000565: 42,2541           34631                           OCT      34631                                 #  ELEVATION DEGREES
000566: 42,2542           23146                           OCT      23146
000567: 42,2543           14340                           OCT      14340                                 #  TRIM DEGREES
000568: 42,2544           24145                           OCT      24145
000569: 42,2545           02363                           OCT      02363                                 #  INERTIA, THRUST MOMENT
000570: 42,2546           03721                           OCT      03721
000571: 42,2547           20373                           OCT      20373                                 #  VELOCITY/2VS
000572: 42,2550           02122                           OCT      02122
000573: 42,2551           00424                           OCT      00424                                 #  POSITION 6    (POINT BETWN BITS 7-8)
000574: 42,2552           30446                           OCT      30446
000575: 42,2553           00631                           OCT      00631                                 #  DRAG ACCELERATION
000576: 42,2554           23146                           OCT      23146
000577: 42,2555           00260                           OCT      00260                                 #  POSITION 8
000578: 42,2556           06213                           OCT      06213
000579: 42,2557           04231 27400                     2DEC     17.2010499 B-7                        #  POSITION 9
000580:
000581: 42,2561           01031 21032                     2DEC     .032808399                            #  VELOCITY4
000582:
000583:                                                                                                  #  END OF SFOUTAB
000584:
000585:                                                                                                  #  NN    SF CONSTANT             SF ROUTINE
000586:
000587: 42,2563           03660        IDADDTAB           ECADR    TTOGO                                 #  40    MIN/SEC                 M/S
000588: 42,2564           03772                           ECADR    VGDISP                                #  40    VEL3                    DP3
000589: 42,2565           03425                           ECADR    DVTOTAL                               #  40    VEL3                    DP3
000590: 42,2566           01045                           ECADR    DSPTEM1                               #  41    CDU DEG                 CDU
000591: 42,2567           01046                           ECADR    DSPTEM1    +1                         #  41    ELEV DEG                ARTH
000592: 42,2570           00000                           OCT      0                                     #  41    SPARE COMPONENT
000593: 42,2571           02363                           ECADR    HAPO                                  #  42    POS4                    DP3
000594: 42,2572           02365                           ECADR    HPER                                  #  42    POS4                    DP3
000595: 42,2573           03772                           ECADR    VGDISP                                #  42    VEL3                    DP3
000596: 42,2574           01103                           ECADR    LAT                                   #  43    DPDEG(360)              DP4
000597: 42,2575           01105                           ECADR    LONG                                  #  43    DPDEG(360)              DP4
000598: 42,2576           01107                           ECADR    ALT                                   #  43    POS4                    DP3
000599: 42,2577           02351                           ECADR    HAPOX                                 #  44    POS4                    DP3
000600: 42,2600           02353                           ECADR    HPERX                                 #  44    POS4                    DP3
000601: 42,2601           02343                           ECADR    TFF                                   #  44    MIN/SEC                 M/S
000602: 42,2602           01125                           ECADR    VHFCNT                                #  45    2INT                    2INT
000603: 42,2603           03660                           ECADR    TTOGO                                 #  45    MIN/SEC                 M/S
000604: 42,2604           03625                           ECADR    +MGA                                  #  45    DPDEG(360)              DP4
000605: 42,2605           03066                           ECADR    DAPDATR1                              #  46    OCTAL ONLY              OCT
000606: 42,2606           03067                           ECADR    DAPDATR2                              #  46    OCTAL ONLY              OCT
000607: 42,2607           00000                           OCT      0                                     #  46    SPARE COMPONENT
000608: 42,2610           03074                           ECADR    CSMMASS                               #  47    WEIGHT2                 ARTH1
000609: 42,2611           03073                           ECADR    LEMMASS                               #  47    WEIGHT2                 ARTH1
000610: 42,2612           00000                           OCT      00000                                 #  47    SPARE COMPONENT
000611: 42,2613           03023                           ECADR    PACTOFF                               #  48    TRIM DEG                ARTH
000612: 42,2614           03024                           ECADR    YACTOFF                               #  48    TRIM DEG                ARTH
000613: 42,2615           00000                           OCT      00000                                 #  48    SPARE COMPONENT
000614: 42,2616           03501                           ECADR    N49DISP                               #  49    POS4                    DP3
000615: 42,2617           03503                           ECADR    N49DISP    +2                         #  49    VEL3                    DP3
000616: 42,2620           03505                           ECADR    N49DISP    +4                         #  49    WHOLE                   ARTH
000617: 42,2621           02355                           ECADR    RSP-RREC                              #  50    POS6                    DP3
000618: 42,2622           02353                           ECADR    HPERX                                 #  50    POS4                    DP3
000619: 42,2623           02343                           ECADR    TFF                                   #  50    MIN/SEC                 M/S
000620: 42,2624           02320                           ECADR    RHOSB                                 #  51    DPDEG(360)
000621: 42,2625           02322                           ECADR    GAMMASB                               #  51    DPDEG(360)              DP4
000622: 42,2626           00000                           OCT      0                                     #  51    SPARE COMPONENT
000623: 42,2627           02632                           ECADR    ACTCENT                               #  52    DPDEG(360)              DP4
000624: 42,2630           00000                           OCT      00000                                 #  52    SPARE COMPONENT
000625: 42,2631           00000                           OCT      00000                                 #  52    SPARE COMPONENT
000626: 42,2632           02320                           ECADR    RANGE                                 #  53    POS5                    DP1
000627: 42,2633           02322                           ECADR    RRATE                                 #  53    VEL3                    DP3
000628: 42,2634           02324                           ECADR    RTHETA                                #  53    DPDEG(360)              DP4
000629: 42,2635           02320                           ECADR    RANGE                                 #  54    POS5                    DP1
000630: 42,2636           02322                           ECADR    RRATE                                 #  54    VEL3                    DP3
000631: 42,2637           02324                           ECADR    RTHETA                                #  54    DPDEG(360)              DP4
000632: 42,2640           03765                           ECADR    NN1                                   #  55    WHOLE                   ARTH
000633: 42,2641           03743                           ECADR    ELEV                                  #  55    DPDEG(360)              DP4
000634: 42,2642           03753                           ECADR    CENTANG                               #  55    DPDEG(360)              DP4
000635: 42,2643           03633                           ECADR    RTEGAM2D                              #  56    DPDEG(360)              DP4
000636: 42,2644           03631                           ECADR    RTEDVD                                #  56    VEL2                    DP4
000637: 42,2645           00000                           OCT      0                                     #  56    SPARE COMPONENT
000638: 42,2646           02610                           ECADR    DELTAR                                #  57    POS4                    DP3
000639: 42,2647           00000                           OCT      0                                     #  57    SPARE COMPONENT
000640: 42,2650           00000                           OCT      0                                     #  57    SPARE COMPONENT
000641: 42,2651           02640                           ECADR    POSTTPI                               #  58    POS4                    DP3
000642: 42,2652           02634                           ECADR    DELVTPI                               #  58    VEL3                    DP3
000643: 42,2653           02636                           ECADR    DELVTPF                               #  58    VEL3                    DP3
000644: 42,2654           02610                           ECADR    DVLOS                                 #  59    VEL3                    DP3
000645: 42,2655           02612                           ECADR    DVLOS      +2                         #  59    VEL3                    DP3
000646: 42,2656           02614                           ECADR    DVLOS      +4                         #  59    VEL3                    DP3
000647: 42,2657           03721                           ECADR    GMAX                                  #  60    WHOLE                   ARTH
000648: 42,2660           03766                           ECADR    VPRED                                 #  60    VEL2                    DP4
000649: 42,2661           03770                           ECADR    GAMMAEI                               #  60    DPDEG(360)              DP4
000650: 42,2662           03400                           ECADR    LAT(SPL)                              #  61    DPDEG(360)              DP4
000651: 42,2663           03402                           ECADR    LNG(SPL)                              #  61    DPDEG(360)              DP4
000652: 42,2664           03326                           ECADR    HEADSUP                               #  61    WHOLE                   ARTH
000653: 42,2665           03722                           ECADR    VMAGI                                 #  62    VEL2                    DP4
000654: 42,2666           03740                           ECADR    HDOT                                  #  62    VEL2                    DP4
000655: 42,2667           03736                           ECADR    ALTI                                  #  62    POS4                    DP3
000656: 42,2670           03713                           ECADR    RTGO                                  #  63    POS6                    DP3
000657: 42,2671           03724                           ECADR    VIO                                   #  63    VEL2                    DP4
000658: 42,2672           03726                           ECADR    TTE                                   #  63    MIN/SEC                 M/S
000659: 42,2673           03637                           ECADR    D                                     #  64    DRAG ACCEL              DP2
000660: 42,2674           03722                           ECADR    VMAGI                                 #  64    VEL2                    DP4
000661: 42,2675           03713                           ECADR    RTGON64                               #  64    POS6                    DP3
000662: 42,2676           00013                           ECADR    SAMPTIME                              #  65    HMS (MIXED ONLY TO KEEP CODE 65) HMS
000663: 42,2677           00013                           ECADR    SAMPTIME                              #  65    HMS                     HMS
000664: 42,2700           00013                           ECADR    SAMPTIME                              #  65    HMS                     HMS
000665: 42,2701           03315                           ECADR    ROLLC                                 #  66    DPDEG(360)              DP4
000666: 42,2702           03675                           ECADR    XRNGERR                               #  66    POS8                    DP3
000667: 42,2703           03715                           ECADR    DNRNGERR                              #  66    POS6                    DP3
000668: 42,2704           03713                           ECADR    RTGON67                               #  67    POS6                    DP3
000669: 42,2705           01103                           ECADR    LAT                                   #  67    DPDEG(360)              DP4
000670: 42,2706           01105                           ECADR    LONG                                  #  67    DPDEG(360)              DP4
000671: 42,2707           03315                           ECADR    ROLLC                                 #  68    DPDEG(360)              DP4
000672: 42,2710           03722                           ECADR    VMAGI                                 #  68    VEL2                    DP4
000673: 42,2711           03677                           ECADR    RDOT                                  #  68    VEL/2VS                 DP4
000674: 42,2712           03315                           ECADR    ROLLC                                 #  69    DPDEG(360)              DP4
000675: 42,2713           03174                           ECADR    Q7                                    #  69    DRAG ACCEL              DP2
000676: 42,2714           03766                           ECADR    VL                                    #  69    VEL/2VS                 DP4
000677: 42,2715           00735                           ECADR    STARCODE                              #  70    OCTAL ONLY              OCT
000678: 42,2716           02751                           ECADR    LANDMARK                              #  70    OCTAL ONLY              OCT
000679: 42,2717           02752                           ECADR    HORIZON                               #  70    OCTAL ONLY              OCT
000680: 42,2720           00735                           ECADR    STARCODE                              #  71    OCTAL ONLY              OCT
000681: 42,2721           02751                           ECADR    LANDMARK                              #  71    OCTAL ONLY              OCT
000682: 42,2722           02752                           ECADR    HORIZON                               #  71    OCTAL ONLY              OCT
000683: 42,2723           02616                           ECADR    THETZERO                              #  72    DPDEG(360)              DP4
000684: 42,2724           03753                           ECADR    DELHITE                               #  72    POS4                    DP3
000685: 42,2725           01132                           ECADR    OPTION2                               #  72    WHOLE                   ARTH
000686: 42,2726           03620                           ECADR    P21ALT                                #  73    POS4                    DP3
000687: 42,2727           03622                           ECADR    P21VEL                                #  73    VEL2                    DP4
000688: 42,2730           03624                           ECADR    P21GAM                                #  73    DPDEG(360)              DP4
000689: 42,2731           03315                           ECADR    ROLLC                                 #  74    DPDEG(360)              DP4
000690: 42,2732           03722                           ECADR    VMAGI                                 #  74    VEL 2                   DP4
000691: 42,2733           03637                           ECADR    D                                     #  74    DRAG ACCEL              DP2
000692: 42,2734           02632                           ECADR    DIFFALT                               #  75    POS4                    DP3
000693: 42,2735           02546                           ECADR    T1TOT2                                #  75    MIN/SEC                 M/S
000694: 42,2736           03655                           ECADR    T2TOT3                                #  75    MIN/SEC                 M/S
000695: 42,2737           00000                           OCT      0                                     #  76    SPARE
000696: 42,2740           00000                           OCT      0                                     #  76    SPARE
000697: 42,2741           00000                           OCT      0                                     #  76    SPARE
000698: 42,2742           00000                           OCT      0                                     #  77    SPARE
000699: 42,2743           00000                           OCT      0                                     #  77    SPARE
000700: 42,2744           00000                           OCT      0                                     #  77    SPARE
000701: 42,2745           00000                           OCT      0                                     #  78    SPARE
000702: 42,2746           00000                           OCT      0                                     #  78    SPARE
000703: 42,2747           00000                           OCT      0                                     #  78    SPARE
000704: 42,2750           03332                           ECADR    RATEPTC                               #  79    ELEV DEG                ARTH
000705: 42,2751           03333                           ECADR    DBPTC                                 #  79    CDU DEG                 CDU
000706: 42,2752           03334                           ECADR    OPTPTC                                #  79    WHOLE                   ARTH
000707: 42,2753           03660                           ECADR    TTOGO                                 #  80    MIN/SEC                 M/S
000708: 42,2754           03772                           ECADR    VGDISP                                #  80    VEL2                    DP4
000709: 42,2755           03425                           ECADR    DVTOTAL                               #  80    VEL2                    DP4
000710: 42,2756           03404                           ECADR    DELVLVC                               #  81    VEL3                    DP3
000711: 42,2757           03406                           ECADR    DELVLVC    +2                         #  81    VEL3                    DP3
000712: 42,2760           03410                           ECADR    DELVLVC    +4                         #  81    VEL3                    DP3
000713: 42,2761           03404                           ECADR    DELVLVC                               #  82    VEL3                    DP3
000714: 42,2762           03406                           ECADR    DELVLVC    +2                         #  82    VEL3                    DP3
000715: 42,2763           03410                           ECADR    DELVLVC    +4                         #  82    VEL3                    DP3
000716: 42,2764           03674                           ECADR    DELVIMU                               #  83    VEL3                    DP3
000717: 42,2765           03676                           ECADR    DELVIMU    +2                         #  83    VEL3                    DP3
000718: 42,2766           03700                           ECADR    DELVIMU    +4                         #  83    VEL3                    DP3
000719: 42,2767           03537                           ECADR    DELVOV                                #  84    VEL3                    DP3
000720: 42,2770           03541                           ECADR    DELVOV     +2                         #  84    VEL3                    DP3
000721: 42,2771           03543                           ECADR    DELVOV     +4                         #  84    VEL3                    DP3
000722: 42,2772           03664                           ECADR    VGBODY                                #  85    VEL3                    DP3
000723: 42,2773           03666                           ECADR    VGBODY     +2                         #  85    VEL3                    DP3
000724: 42,2774           03670                           ECADR    VGBODY     +4                         #  85    VEL3                    DP3
000725: 42,2775           03404                           ECADR    DELVLVC                               #  86    VEL2                    DP4
000726: 42,2776           03406                           ECADR    DELVLVC    +2                         #  86    VEL2                    DP4
000727: 42,2777           03410                           ECADR    DELVLVC    +4                         #  86    VEL2                    DP4
000728: 42,3000           03730                           ECADR    MRKBUF1    +3                         #  87    CDU DEG                 CDU
000729: 42,3001           03732                           ECADR    MRKBUF1    +5                         #  87    Y OPTICS DEG            YOPT
000730: 42,3002           00000                           OCT      0                                     #  87    SPARE COMPONENT
000731: 42,3003           03704                           ECADR    STARSAV3                              #  88    DPFRAC                  DPFRAC
000732: 42,3004           03706                           ECADR    STARSAV3   +2                         #  88    DPFRAC                  DPFRAC
000733: 42,3005           03710                           ECADR    STARSAV3   +4                         #  88    DPFRAC                  DPFRAC
000734: 42,3006           01103                           ECADR    LANDLAT                               #  89    DPDEG(90)               DP3
000735: 42,3007           02357                           ECADR    LANDLONG                              #  89    DPDEG(90)               DP3
000736: 42,3010           02361                           ECADR    LANDALT                               #  89    POS5                    DP1
000737: 42,3011           02320                           ECADR    RANGE                                 #  90    POS5                    DP1
000738: 42,3012           02322                           ECADR    RRATE                                 #  90    VEL3                    DP3
000739: 42,3013           02324                           ECADR    RTHETA                                #  90    DPDEG(360)              DP4
000740: 42,3014           00036                           ECADR    CDUS                                  #  91    CDU DEG                 CDU
000741: 42,3015           00035                           ECADR    CDUT                                  #  91    Y OPTICS DEG            YOPT
000742: 42,3016           00000                           OCT      0                                     #  91    SPARE COMPONENT
000743: 42,3017           02773                           ECADR    SAC                                   #  92    CDU DEG                 CDU
000744: 42,3020           02775                           ECADR    PAC                                   #  92    Y OPTICS DEG            YOPT
000745: 42,3021           00000                           OCT      0                                     #  92    SPARE COMPONENT
000746: 42,3022           02757                           ECADR    OGC                                   #  93    DPDEG(90)               DP3
000747: 42,3023           02761                           ECADR    OGC        +2                         #  93    DPDEG(90)               DP3
000748: 42,3024           02763                           ECADR    OGC        +4                         #  93    DPDEG(90)               DP3
000749: 42,3025           03730                           ECADR    MRKBUF1    +3                         #  94    CDU DEG                 CDU
000750: 42,3026           03732                           ECADR    MRKBUF1    +5                         #  94    Y OPTICS DEG            YOPT
000751: 42,3027           00000                           OCT      00000                                 #  94    SPARE
000752: 42,3030           03722                           ECADR    PRAXIS                                #  95    CDU DEG                 CDU
000753: 42,3031           03723                           ECADR    PRAXIS     +1                         #  95    CDU DEG                 CDU
000754: 42,3032           03724                           ECADR    PRAXIS     +2                         #  95    CDU DEG                 CDU
000755: 42,3033           01333                           ECADR    CPHIX                                 #  96    CDU DEG                 CDU
000756: 42,3034           01334                           ECADR    CPHIX      +1                         #  96    CDU DEG                 CDU
000757: 42,3035           01335                           ECADR    CPHIX      +2                         #  96    CDU DEG                 CDU
000758: 42,3036           01045                           ECADR    DSPTEM1                               #  97    WHOLE                   ARTH
000759: 42,3037           01046                           ECADR    DSPTEM1    +1                         #  97    WHOLE                   ARTH
000760: 42,3040           01047                           ECADR    DSPTEM1    +2                         #  97    WHOLE                   ARTH
000761: 42,3041           01050                           ECADR    DSPTEM2                               #  98    WHOLE                   ARTH
000762: 42,3042           01051                           ECADR    DSPTEM2    +1                         #  98    FRAC                    FRAC
000763: 42,3043           01052                           ECADR    DSPTEM2    +2                         #  98    WHOLE                   ARTH
000764: 42,3044           02320                           ECADR    WWPOS                                 #  99    POS9                    DP3
000765: 42,3045           02322                           ECADR    WWVEL                                 #  99    VEL4                    DP2
000766: 42,3046           02324                           ECADR    WWOPT                                 #  99    WHOLE                   ARTH
000767:
000768:                                                                                                  #  END OF IDADDTAB
000769:
000770:                                                                                                  #  NN    SF ROUTINES
000771:
000772: 42,3047           16351        RUTMXTAB           OCT      16351                                 #  40    M/S, DP3, DP3
000773: 42,3050           00142                           OCT      00142                                 #  41    CDU, ARTH
000774: 42,3051           16347                           OCT      16347                                 #  42    DP3, DP3, DP3
000775: 42,3052           16512                           OCT      16512                                 #  43    DP4, DP4, DP3
000776: 42,3053           22347                           OCT      22347                                 #  44    DP3, DP3, M/S
000777: 42,3054           24454                           OCT      24454                                 #  45    2INT, M/S, DP4
000778: 42,3055           00000                           OCT      00000                                 #  46    OCT, OCT
000779: 42,3056           00553                           OCT      00553                                 #  47    ARITH1, ARITH1
000780: 42,3057           00143                           OCT      00143                                 #  48    ARTH, ARTH
000781: 42,3060           06347                           OCT      06347                                 #  49    DP3, DP3, ARTH
000782: 42,3061           22347                           OCT      22347                                 #  50    DP3, DP3, M/S
000783: 42,3062           00512                           OCT      00512                                 #  51    DP4, DP4
000784: 42,3063           00012                           OCT      00012                                 #  52    DP4
000785: 42,3064           24344                           OCT      24344                                 #  53    DP1, DP3, DP4
000786: 42,3065           24344                           OCT      24344                                 #  54    DP1, DP3, DP4
000787: 42,3066           24503                           OCT      24503                                 #  55    ARTH, DP4, DP4
000788: 42,3067           00512                           OCT      00512                                 #  56    DP4, DP4
000789: 42,3070           00007                           OCT      00007                                 #  57    DP3
000790: 42,3071           16347                           OCT      16347                                 #  58    DP3, DP3, DP3
000791: 42,3072           16347                           OCT      16347                                 #  59    DP3, DP3, DP3
000792: 42,3073           24503                           OCT      24503                                 #  60    ARTH, DP4, DP4
000793: 42,3074           06512                           OCT      06512                                 #  61    DP4, DP4, ARTH
000794: 42,3075           16512                           OCT      16512                                 #  62    DP4, DP4, DP3
000795: 42,3076           22507                           OCT      22507                                 #  63    DP3, DP4, M/S
000796: 42,3077           16505                           OCT      16505                                 #  64    DP2, DP4, DP3
000797: 42,3100           20410                           OCT      20410                                 #  65    HMS, HMS, HMS
000798: 42,3101           16352                           OCT      16352                                 #  66    DP4, DP3, DP3
000799: 42,3102           24507                           OCT      24507                                 #  67    DP3, DP4, DP4
000800: 42,3103           24512                           OCT      24512                                 #  68    DP4, DP4, DP4
000801: 42,3104           24252                           OCT      24252                                 #  69    DP4, DP2, DP4
000802: 42,3105           00000                           OCT      00000                                 #  70    OCT, OCT, OCT
000803: 42,3106           00000                           OCT      0                                     #  71    OCT, OCT,OCT
000804: 42,3107           06352                           OCT      06352                                 #  72    DP4, DP3, ARTH
000805: 42,3110           24507                           OCT      24507                                 #  73    DP3, DP4, DP4
000806: 42,3111           12512                           OCT      12512                                 #  74    DP4, DP4, DP2
000807: 42,3112           22447                           OCT      22447                                 #  75    DP3, M/S, M/S
000808: 42,3113           00000                           OCT      0                                     #  76    SPARE
000809: 42,3114           00000                           OCT      0                                     #  77    SPARE
000810: 42,3115           00000                           OCT      0                                     #  78    SPARE
000811: 42,3116           06103                           OCT      06103                                 #  79    ARTH, CDU, ARTH
000812: 42,3117           24511                           OCT      24511                                 #  80    M/S, DP4, DP4
000813: 42,3120           16347                           OCT      16347                                 #  81    DP3, DP3, DP3
000814: 42,3121           16347                           OCT      16347                                 #  82    DP3, DP3, DP3
000815: 42,3122           16347                           OCT      16347                                 #  83    DP3, DP3, DP3
000816: 42,3123           16347                           OCT      16347                                 #  84    DP3, DP3, DP3
000817: 42,3124           16347                           OCT      16347                                 #  85    DP3, DP3, DP3
000818: 42,3125           24512                           OCT      24512                                 #  86    DP4, DP4, DP4
000819: 42,3126           00302                           OCT      00302                                 #  87    CDU, YOPT
000820: 42,3127           32655                           OCT      32655                                 #  88    DPFRAC FOR EACH
000821: 42,3130           10347                           OCT      10347                                 #  89    DP3, DP3, DP1
000822: 42,3131           24344                           OCT      24344                                 #  90    DP1, DP3, DP4
000823: 42,3132           00302                           OCT      00302                                 #  91    CDU, YOPT
000824: 42,3133           00302                           OCT      00302                                 #  92    CDU, YOPT
000825: 42,3134           16347                           OCT      16347                                 #  93    DP3, DP3, DP3
000826: 42,3135           00302                           OCT      00302                                 #  94    CDU, YOPT
000827: 42,3136           04102                           OCT      04102                                 #  95    CDU, CDU, CDU
000828: 42,3137           04102                           OCT      04102                                 #  96    CDU, CDU, CDU
000829: 42,3140           06143                           OCT      06143                                 #  97    ARTH, ARTH, ARTH
000830: 42,3141           06043                           OCT      06043                                 #  98    ARTH, FRAC, ARTH
000831: 42,3142           06247                           OCT      06247                                 #  99    DP3, DP2, ARTH
000832:
000833:                                                                                                  #  END OF RUTMXTAB
000834:
000835: 42,3143  30,2000                                  SBANK=   LOWSUPER
000836:

End of include-file PINBALL_NOUN_TABLES.agc.  Parent file is MAIN.agc


