
Source Code


000002:                                                                                                  ## Copyright:   Public domain.
000003:                                                                                                  ## Filename:    PLANETARY_INERTIAL_ORIENTATION.agc
000004:                                                                                                  ## Purpose:     A section of Comanche revision 067.
000005:                                                                                                  ##              It is part of the reconstructed source code for the flight
000006:                                                                                                  ##              software for the Command Module's (CM) Apollo Guidance Computer
000007:                                                                                                  ##              (AGC) for Apollo 12. No original listings of this program are
000008:                                                                                                  ##              available; instead, this file was created via dissassembly of
000009:                                                                                                  ##              dumps of Comanche 067 core rope modules and comparison with
000010:                                                                                                  ##              other AGC programs.
000011:                                                                                                  ## Assembler:   yaYUL
000012:                                                                                                  ## Contact:     Ron Burkey <info@sandroid.org>.
000013:                                                                                                  ## Website:     www.ibiblio.org/apollo/index.html
000014:                                                                                                  ## Mod history: 2023-08-16 MAS  Created from Comanche 055.
000015:                                                                                                  ##              2024-05-13 MAS  Updated for Comanche 067.
000016:
000017:                                                                                                  #  ..... RP-TO-R SUBROUTINE .....
000018:                                                                                                  #  SUBROUTINE TO CONVERT RP (VECTOR IN PLANETARY COORDINATE SYSTEM, EITHER
000019:                                                                                                  #  EARTH-FIXED OR MOON-FIXED) TO R (SAME VECTOR IN THE BASIC REF. SYSTEM)
000020:                                                                                                  #        R = MT(T) * (RP + LP X RP)      MT = M MATRIX TRANSPOSE
000021:
000022:                                                                                                  #  CALLING SEQUENCE
000023:                                                                                                  #        L       CALL
000024:                                                                                                  #        L+1             RP-TO-R
000025:
000026:                                                                                                  #  SUBROUTINES USED
000027:                                                                                                  #        EARTHMX, MOONMX, EARTHL
000028:
000029:                                                                                                  #        ITEMS AVAILABLE FROM LAUNCH DATA
000030:                                                                                                  #                504LM = THE LIBRATION VECTOR L OF THE MOON AT TIME TIMSUBL, EXPRESSED
000031:                                                                                                  #                IN THE MOON-FIXED COORD. SYSTEM         RADIANS B0
000032:
000033:                                                                                                  #        ITEMS NECESSARY FOR SUBR. USED (SEE DESCRIPTION OF SUBR.)
000034:
000035:                                                                                                  #  INPUT
000036:                                                                                                  #        MPAC = 0 FOR EARTH, NON-ZERO FOR MOON
000037:                                                                                                  #        0-5D = RP VECTOR
000038:                                                                                                  #        6-7D = TIME
000039:
000040:                                                                                                  #  OUTPUT
000041:                                                                                                  #        MPAC = R VECTOR METERS B-29 FOR EARTH, B-27 FOR MOON
000042:
000043: 26,2000                                           SETLOC   PLANTIN
000044: 26,2000                                           BANK
000045:
000046: 26,3343                                           COUNT*   $$/LUROT
000047:
000048: 26,3343           46020        RP-TO-R            STQ      BHIZ
000049: 26,3344           00050                                    RPREXIT
000050: 26,3345           55360                                    RPTORA
000051: 26,3346           77624                           CALL                                           #  COMPUTE M MATRIX FOR MOON
000052: 26,3347           55420                                    MOONMX                                #  LP=LM FOR MOON        RADIANS B0
000053: 26,3350           77775                           VLOAD
000054: 26,3351           02012                                    504LM
000055: 26,3352           53235        RPTORB             VXV      VAD
000056: 26,3353           00001                                    504RPR
000057: 26,3354           00001                                    504RPR
000058: 26,3355           52105                           VXM      GOTO
000059: 26,3356           00025                                    MMATRIX                               #  MPAC=R=MT(T)*(RP+LPXRP)
000060: 26,3357           55406                                    RPRPXXXX                              #  RESET PUSHLOC TO 0 BEFORE EXITING
000061: 26,3360           77624        RPTORA             CALL                                           #  EARTH COMPUTATIONS
000062: 26,3361           55572                                    EARTHMX                               #  M MATRIX B-1
000063: 26,3362           77624                           CALL
000064: 26,3363           55624                                    EARTHL                                #  L VECTOR RADIANS B0
000065: 26,3364           76521                           MXV      VSL1                                  #  LP=M(T)*L     RAD B-0
000066: 26,3365           00025                                    MMATRIX
000067: 26,3366           77650                           GOTO
000068: 26,3367           55352                                    RPTORB
000069:
000070:                                                                                                  #  ..... R-TO-RP SUBROUTINE .....
000071:                                                                                                  #  SUBROUTINE TO CONVERT R (VECTOR IN REFERENCE COORD. SYSTEM) TO RP
000072:                                                                                                  #  (VECTOR IN PLANETARY COORD SYSTEM) EITHER EARTH-FIXED OR MOON-FIXED
000073:                                                                                                  #        RP = M(T) * (R - L X R)
000074:
000075:                                                                                                  #  CALLING SEQUENCE
000076:                                                                                                  #        L       CALL
000077:                                                                                                  #        L+1             R-TO-RP
000078:
000079:                                                                                                  #  SUBROUTINES USED
000080:                                                                                                  #        EARTHMX, MOONMX, EARTHL
000081:
000082:                                                                                                  #  INPUT
000083:                                                                                                  #        MPAC = 0 FOR EARTH, NON-ZERO FOR MOON
000084:                                                                                                  #        0-5D = R VECTOR
000085:                                                                                                  #        6-7D = TIME
000086:
000087:                                                                                                  #        ITEMS AVAILABLE FROM LAUNCH DATA
000088:                                                                                                  #                504LM = THE LIBRATION VECTOR L OF THE MOON AT TIME TIMSUBL, EXPRESSED
000089:                                                                                                  #                IN THE MOON-FIXED COORD. SYSTEM                 RADIANS B0
000090:
000091:                                                                                                  #        ITEMS NECESSARY FOR SUBROUTINES USED (SEE DESCRIPTION OF SUBR.)
000092:
000093:                                                                                                  #  OUTPUT
000094:                                                                                                  #        MPAC = RP VECTOR METERS B-29 FOR EARTH, B-27 FOR MOON
000095:
000096: 26,3370           46020        R-TO-RP            STQ      BHIZ
000097: 26,3371           00050                                    RPREXIT
000098: 26,3372           55412                                    RTORPA
000099: 26,3373           77624                           CALL
000100: 26,3374           55420                                    MOONMX
000101: 26,3375           61375                           VLOAD    VXM
000102: 26,3376           02012                                    504LM                                 #  LP=LM
000103: 26,3377           00025                                    MMATRIX
000104: 26,3400           77772                           VSL1                                           #  L = MT(T)*LP          RADIANS B0
000105: 26,3401           51235        RTORPB             VXV      BVSU
000106: 26,3402           00001                                    504RPR
000107: 26,3403           00001                                    504RPR
000108: 26,3404           77721                           MXV                                            #  M(T)*(R-LXR)          B-2
000109: 26,3405           00025                                    MMATRIX
000110: 26,3406           40372        RPRPXXXX           VSL1     SETPD
000111: 26,3407           00001                                    0D
000112: 26,3410           77650                           GOTO
000113: 26,3411           00050                                    RPREXIT
000114: 26,3412           77624        RTORPA             CALL                                           #  EARTH COMPUTATIONS
000115: 26,3413           55572                                    EARTHMX
000116: 26,3414           77624                           CALL
000117: 26,3415           55624                                    EARTHL
000118: 26,3416           77650                           GOTO                                           #  MPAC=L=(-AX,-AY,0)    RAD B-0
000119: 26,3417           55401                                    RTORPB
000120:
000121:                                                                                                  #  ..... MOONMX SUBROUTINE .....
000122:                                                                                                  #  SUBROUTINE TO COMPUTE THE TRANSFORMATION MATRIX M FOR THE MOON
000123:
000124:                                                                                                  #  CALLING SEQUENCE
000125:                                                                                                  #        L       CALL
000126:                                                                                                  #        L+1             MOONMX
000127:
000128:                                                                                                  #  SUBROUTINES USED
000129:                                                                                                  #        NEWANGLE
000130:
000131:                                                                                                  #  INPUT
000132:                                                                                                  #        6-7D = TIME
000133:
000134:                                                                                                  #        ITEMS AVAILABLE FROM LAUNCH DATA
000135:                                                                                                  #                BSUBO, BDOT
000136:                                                                                                  #                TIMSUBO, NODIO, NODDOT, FSUBO, FDOT
000137:                                                                                                  #                COSI = COS(I)   B-1
000138:                                                                                                  #                SINI = SIN(I)   B-1
000139:                                                                                                  #                I IS THE ANGLE BETWEEN THE MEAN LUNAR EQUATORIAL PLANE AND THE
000140:                                                                                                  #                PLANE OF THE ECLIPTIC (1 DEGREE 32.1 MINUTES)
000141:
000142:                                                                                                  #  OUTPUT
000143:                                                                                                  #        MMATRIX = 3X3 M MATRIX          B-1 (STORED IN VAC AREA)
000144:
000145: 26,3420           40220        MOONMX             STQ      SETPD
000146: 26,3421           00051                                    EARTHMXX
000147: 26,3422           00011                                    8D
000148: 26,3423           77770                           AXT,1                                          #  B REQUIRES SL 0, SL 5 IN NEWANGLE
000149: 26,3424           00005                                    5
000150: 26,3425           65345                           DLOAD    PDDL                                  #  PD 10D        8-9D=BSUBO
000151: 26,3426           15654                                    BSUBO                                 #                10-11D=BDOT
000152: 26,3427           15646                                    BDOT
000153: 26,3430           45006                           PUSH     CALL                                  #  PD 12D
000154: 26,3431           55545                                    NEWANGLE                              #  EXIT WITH PD 8D AND MPAC= B   REVS B0
000155: 26,3432           71406                           PUSH     COS                                   #  PD 10D
000156: 26,3433           14041                           STODL    COB                                   #  PD 8D         COS(B) B-1
000157: 26,3434           77756                           SIN                                            #                SIN(B) B-1
000158: 26,3435           14043                           STODL    SOB                                   #                SETUP INPUT FOR NEWANGLE
000159: 26,3436           15652                                    FSUBO                                 #                        8-9D=FSUBO
000160: 26,3437           41525                           PDDL     PUSH                                  #  PD 10D THEN 12D       10-11D=FDOT
000161: 26,3440           15644                                    FDOT
000162: 26,3441           45170                           AXT,1    CALL                                  #  F REQUIRES SL 1, SL 6 IN NEWANGLE
000163: 26,3442           00004                                    4
000164: 26,3443           55545                                    NEWANGLE                              #  EXIT WITH PD 8D AND MPAC= F REVS B0
000165: 26,3444           14027                           STODL    AVECTR     +2                         #  SAVE F TEMP
000166: 26,3445           15650                                    NODIO                                 #                        8-9D=NODIO
000167: 26,3446           41525                           PDDL     PUSH                                  #  PD 10D THEN 12D       10-11D=NODDOT
000168: 26,3447           15642                                    NODDOT                                #                        MPAC=T
000169: 26,3450           45170                           AXT,1    CALL                                  #  NODE REQUIRES SL 0, SL 5 IN NEWANGLE
000170: 26,3451           00005                                    5
000171: 26,3452           55545                                    NEWANGLE                              #  EXIT WITH PD 8D AND MPAC= NODI REVS B0
000172: 26,3453           71406                           PUSH     COS                                   #  PD 10D        8-9D= NODI REVS B0
000173: 26,3454           77606                           PUSH                                           #  PD 12D        10-11D= COS(NODI) B-1
000174: 26,3455           00025                           STORE    AVECTR
000175: 26,3456           76405                           DMP      SL1R
000176: 26,3457           00041                                    COB                                   #                        COS(NODI) B-1
000177: 26,3460           14035                           STODL    BVECTR     +2                         #  PD 10D  20-25D=AVECTR=COB*SIN(NODI)
000178: 26,3461           76405                           DMP      SL1R                                  #                        SOB*SIN(NODI)
000179: 26,3462           00043                                    SOB
000180: 26,3463           14037                           STODL    BVECTR     +4                         #  PD 8D
000181: 26,3464           41556                           SIN      PUSH                                  #  PD 10D                -SIN(NODI) B-1
000182: 26,3465           77676                           DCOMP                                          #          26-31D=BVECTR=COB*COS(NODI)
000183: 26,3466           14033                           STODL    BVECTR                                #  PD 8D                 SOB*COS(NODI)
000184: 26,3467           00027                                    AVECTR     +2                         #  MOVE F FROM TEMP LOC. TO 504F
000185: 26,3470           14007                           STODL    504F
000186: 26,3471           76405                           DMP      SL1R
000187: 26,3472           00041                                    COB
000188: 26,3473           14027                           STODL    AVECTR     +2
000189: 26,3474           00011                                    SINNODI                               #  8-9D=SIN(NODI) B-1
000190: 26,3475           76405                           DMP      SL1R
000191: 26,3476           00043                                    SOB
000192: 26,3477           14031                           STODL    AVECTR     +4                         #                        0
000193: 26,3500           15334                                    HI6ZEROS                              #        8-13D= CVECTR=  -SOB B-1
000194: 26,3501           57525                           PDDL     DCOMP                                 #  PD 10D                COB
000195: 26,3502           00043                                    SOB
000196: 26,3503           63325                           PDDL     PDVL                                  #  PD 12D THEN PD 14D
000197: 26,3504           00041                                    COB
000198: 26,3505           00033                                    BVECTR
000199: 26,3506           63361                           VXSC     PDVL                                  #  PD 20D        BVECTR*SINI B-2
000200: 26,3507           15640                                    SINI
000201: 26,3510           00011                                    CVECTR
000202: 26,3511           53361                           VXSC     VAD                                   #  PD 14D        CVECTR*COSI B-2
000203: 26,3512           15636                                    COSI
000204: 26,3513           77772                           VSL1
000205: 26,3514           24041                           STOVL    MMATRIX    +12D                       #  PD 8D  M2=BVECTR*SINI+CVECTR*COSI B-1
000206: 26,3515           63361                           VXSC     PDVL                                  #  PD 14D
000207: 26,3516           15640                                    SINI                                  #                CVECTR*SINI B-2
000208: 26,3517           00033                                    BVECTR
000209: 26,3520           52361                           VXSC     VSU                                   #  PD 8D         BVECTR*COSI B-2
000210: 26,3521           15636                                    COSI
000211: 26,3522           65372                           VSL1     PDDL                                  #  PD 14D
000212: 26,3523           00007                                    504F                                  #  8-13D=DVECTR=BVECTR*COSI-CVECTR*SINI B-1
000213: 26,3524           74346                           COS      VXSC
000214: 26,3525           00011                                    DVECTR
000215: 26,3526           73525                           PDDL     SIN                                   #  PD 20D  14-19D= DVECTR*COSF B-2
000216: 26,3527           00007                                    504F
000217: 26,3530           52361                           VXSC     VSU                                   #  PD 14D        AVECTR*SINF B-2
000218: 26,3531           00025                                    AVECTR
000219: 26,3532           77772                           VSL1
000220: 26,3533           14033                           STODL    MMATRIX    +6                         #  M1= AVECTR*SINF-DVECTR*COSF B-1
000221: 26,3534           00007                                    504F
000222: 26,3535           74356                           SIN      VXSC                                  #  PD 8D
000223: 26,3536           71525                           PDDL     COS                                   #  PD 14D  8-13D=DVECTR*SINF B-2
000224: 26,3537           00007                                    504F
000225: 26,3540           53361                           VXSC     VAD                                   #  PD 8D         AVECTR*COSF B-2
000226: 26,3541           00025                                    AVECTR
000227: 26,3542           57572                           VSL1     VCOMP
000228: 26,3543           34025                           STCALL   MMATRIX                               #  M0= -(AVECTR*COSF+DVECTR*SINF) B-1
000229: 26,3544           00051                                    EARTHMXX
000230:
000231:                                                                                                  #  COMPUTE X=X0+(XDOT)(T+T0)
000232:                                                                                                  #  8-9D= XO (REVS B-0), PUSHLOC SET AT 12D
000233:                                                                                                  #  10-11D=XDOT (REVS/CSEC) SCALED B+23 FOR WEARTH,B+28 FOR NODDOT AND BDOT
000234:                                                                                                  #                        AND B+27 FOR FDOT
000235:                                                                                                  #  X1=DIFFERENCE IN 23 AND SCALING OF XDOT, =0 FOR WEARTH, 5 FOR NODDOT AND
000236:                                                                                                  #                                        BDOT AND 4 FOR FDOT
000237:                                                                                                  #  6-7D=T (CSEC B-28), TIMSUBO= (CSEC B-42 TRIPLE PREC.)
000238:
000239: 26,3545           54345        NEWANGLE           DLOAD    SR                                    #  ENTER PD 12D
000240: 26,3546           00007                                    6D
000241: 26,3547           20617                                    14D
000242: 26,3550           72371                           TAD      TLOAD                                 #  CHANGE MODE TO TP
000243: 26,3551           01707                                    TIMSUBO
000244: 26,3552           00155                                    MPAC
000245: 26,3553           14017                           STODL    TIMSUBM                               #  T+T0 CSEC B-42
000246: 26,3554           00020                                    TIMSUBM    +1
000247: 26,3555           77605                           DMP                                            #  PD 10D        MULT BY XDOT IN 10-11D
000248: 26,3556           43257                           SL*      DAD                                   #  PD 8D         ADD XO IN 8-9D AFTER SHIFTING
000249: 26,3557           20206                                    5,1                                   #                SUCH THAT SCALING IS B-0
000250: 26,3560           67206                           PUSH     SLOAD                                 #  PD 10D  SAVE PARTIAL (X0+XDOT*T) IN 8-9D
000251: 26,3561           00017                                    TIMSUBM
000252: 26,3562           41261                           SL       DMP
000253: 26,3563           20212                                    9D
000254: 26,3564           00013                                    10D                                   #  XDOT
000255: 26,3565           43257                           SL*      DAD                                   #  PD 8D         SHIFT SUCH THAT THIS PART OF X
000256: 26,3566           20213                                    10D,1                                 #                IS SCALED REVS/CSEC B-0
000257: 26,3567           77600                           BOV                                            #  TURN OFF OVERFLOW IF SET BY SHIFT
000258: 26,3570           55571                                    +1                                    #  INSTRUCTION BEFORE EXITING
000259: 26,3571           77616                           RVQ                                            #  MPAC=X= X0+(XDOT)(T+T0)       REVS B0
000260:
000261:                                                                                                  #  ..... EARTHMX SUBROUTINE .....
000262:                                                                                                  #  SUBROUTINE TO COMPUTE THE TRANSFORMATION MATRIX M FOR THE EARTH
000263:
000264:                                                                                                  #  CALLING SEQUENCE
000265:                                                                                                  #        L       CALL
000266:                                                                                                  #        L+1             EARTHMX
000267:
000268:                                                                                                  #  SUBROUTINES USED
000269:                                                                                                  #        NEWANGLE
000270:
000271:                                                                                                  #  INPUT
000272:                                                                                                  #        INPUT AVAILABLE FROM LAUNCH DATA        AZO REVS B-0
000273:                                                                                                  #                                                TEPHEM CSEC B-42
000274:                                                                                                  #        6-7D= TIME CSEC B-28
000275:
000276:                                                                                                  #  OUTPUT
000277:                                                                                                  #        MMATRIX= 3X3 M MATRIX B-1 (STORED IN VAC AREA)
000278:
000279: 26,3572           40220        EARTHMX            STQ      SETPD                                 #  SET 8-9D=AZO
000280: 26,3573           00051                                    EARTHMXX
000281: 26,3574           00011                                    8D                                    #  10-11D=WEARTH
000282: 26,3575           77770                           AXT,1                                          #  FOR SL 5, AND SL 10 IN NEWANGLE
000283: 26,3576           00000                                    0
000284: 26,3577           65345                           DLOAD    PDDL                                  #  LEAVING PD SET AT 12D FOR NEWANGLE
000285: 26,3600           01712                                    AZO
000286: 26,3601           15656                                    WEARTH
000287: 26,3602           45006                           PUSH     CALL
000288: 26,3603           55545                                    NEWANGLE
000289: 26,3604           41401                           SETPD    PUSH                                  #  18-19D=504AZ
000290: 26,3605           00023                                    18D                                   #                         COS(AZ)   SIN(AZ)     0
000291: 26,3606           65346                           COS      PDDL                                  #  20-37D=  MMATRIX=     -SIN(AZ)   COS(AZ)     0    B-1
000292: 26,3607           00023                                    504AZ                                 #                            0         0        1
000293: 26,3610           65356                           SIN      PDDL
000294: 26,3611           15334                                    HI6ZEROS
000295: 26,3612           73525                           PDDL     SIN
000296: 26,3613           00023                                    504AZ
000297: 26,3614           65276                           DCOMP    PDDL
000298: 26,3615           00023                                    504AZ
000299: 26,3616           63346                           COS      PDVL
000300: 26,3617           15334                                    HI6ZEROS
000301: 26,3620           41525                           PDDL     PUSH
000302: 26,3621           15332                                    HIDPHALF
000303: 26,3622           77650                           GOTO
000304: 26,3623           00051                                    EARTHMXX
000305:
000306:                                                                                                  #  ..... EARTHL SUBROUTINE .....
000307:                                                                                                  #  SUBROUTINE TO COMPUTE L VECTOR FOR EARTH
000308:
000309:                                                                                                  #  CALLING SEQUENCE
000310:                                                                                                  #        L       CALL
000311:                                                                                                  #        L+1             EARTHL
000312:
000313:                                                                                                  #  INPUT
000314:                                                                                                  #        AXO,AYO SET AT LAUNCH TIME WITH AYO IMMEDIATELY FOLLOWING AXO IN CORE
000315:
000316:                                                                                                  #  OUTPUT
000317:                                                                                                  #                -AX
000318:                                                                                                  #        MPAC=   -AY     RADIANS B-0
000319:                                                                                                  #                  0
000320:
000321: 26,3624           57545        EARTHL             DLOAD    DCOMP
000322: 26,3625           01716                                    AXO
000323: 26,3626           14017                           STODL    504LPL
000324: 26,3627           01714                                    -AYO
000325: 26,3630           14021                           STODL    504LPL     +2
000326: 26,3631           15334                                    HI6ZEROS
000327: 26,3632           24023                           STOVL    504LPL     +4
000328: 26,3633           00017                                    504LPL
000329: 26,3634           77616                           RVQ
000330:
000331:                                                                                                  #  CONSTANTS AND ERASABLE ASSIGNMENTS
000332:
000333: 26,3635  04,3563               1B1                =        DP1/2                                 #  1 SCALED B-1
000334: 26,3635           17775 02052  COSI               2DEC     .99964173  B-1                        #  COS(5521.5 SEC) B-1
000335:
000336: 26,3637           00333 10374  SINI               2DEC     .02676579  B-1                        #  SIN(5521.5 SEC) B-1
000337:
000338: 26,3641  0000050               RPREXIT            =        S1                                    #  R-TO-RP AND RP-TO-R SUBR EXIT
000339: 26,3641  0000051               EARTHMXX           =        S2                                    #  EARTHMX, MOONMX SUBR. EXITS
000340: 26,3641                        504RPR             =        0D                                    #  6 REGS        R OR RP VECTOR
000341: 26,3641                        SINNODI            =        8D                                    #  2             SIN(NODI)
000342: 26,3641                        DVECTR             =        8D                                    #  6             D VECTOR MOON
000343: 26,3641                        CVECTR             =        8D                                    #  6             C VECTR MOON
000344: 26,3641                        504AZ              =        18D                                   #  2             AZ
000345: 26,3641                        TIMSUBM            =        14D                                   #  3             TIME SUB M (MOON) T+T0 IN GETAZ
000346: 26,3641                        504LPL             =        14D                                   #  6             L OR LP VECTOR
000347: 26,3641                        AVECTR             =        20D                                   #  6             A VECTOR (MOON)
000348: 26,3641                        BVECTR             =        26D                                   #  6             B VECTOR (MOON)
000349: 26,3641                        MMATRIX            =        20D                                   #  18            M MATRIX
000350: 26,3641                        COB                =        32D                                   #  2             COS(B) B-1
000351: 26,3641                        SOB                =        34D                                   #  2             SIN(B) B-1
000352: 26,3641                        504F               =        6D                                    #  2             F(MOON)
000353: 26,3641           77665 42175  NODDOT             2DEC*    -1.703706190 E-11       B28*            #  REV/CSEC
000354:
000355: 26,3643           22211 00636  FDOT               2DEC*    4.253263473 E-9        B27*            #  REV/CSEC
000356:
000357: 26,3645           77777 77767  BDOT               2DEC*    -1.145529388 E-16       B28*            #  REV/CSEC
000358:
000359: 26,3647           37436 01614  NODIO              2DEC*    9.862094363 E-1*                       #  REV
000360:
000361: 26,3651           32417 32011  FSUBO              2DEC*    8.290901511 E-1*                       #  REV
000362:
000363: 26,3653           02052 35552  BSUBO              2DEC     6.512013939 E-2                        #  REVS
000364:
000365: 26,3655           37116 32631  WEARTH             2DEC*    1.160576171 E-7        B23*            #  REV/CSEC
000366:

End of include-file PLANETARY_INERTIAL_ORIENTATION.agc.  Parent file is MAIN.agc


