
Source Code


000002:                                                                                                  ## Copyright:   Public domain.
000003:                                                                                                  ## Filename:    POWERED_FLIGHT_SUBROUTINES.agc
000004:                                                                                                  ## Purpose:     A section of Comanche revision 067.
000005:                                                                                                  ##              It is part of the reconstructed source code for the flight
000006:                                                                                                  ##              software for the Command Module's (CM) Apollo Guidance Computer
000007:                                                                                                  ##              (AGC) for Apollo 12. No original listings of this program are
000008:                                                                                                  ##              available; instead, this file was created via dissassembly of
000009:                                                                                                  ##              dumps of Comanche 067 core rope modules and comparison with
000010:                                                                                                  ##              other AGC programs.
000011:                                                                                                  ## Assembler:   yaYUL
000012:                                                                                                  ## Contact:     Ron Burkey <info@sandroid.org>.
000013:                                                                                                  ## Website:     www.ibiblio.org/apollo/index.html
000014:                                                                                                  ## Mod history: 2023-08-16 MAS  Created from Comanche 055.
000015:
000016: 14,3424                                           BANK     14                                    #  SAME FBANK AS THE FINDCDUD SUB-PROGRAM
000017: 23,2000                                           SETLOC   POWFLITE
000018: 23,2000                                           BANK
000019:
000020: 23,3501     0142                                  EBANK=   DEXDEX
000021: 23,3501                                           COUNT*   $$/POWFL
000022:
000023:                                                                                                  #  CDUTRIG, CDUTRIG1, CDUTRIG2, AND CD*TR*GS ALL COMPUTE THE SINES AND
000024:                                                                                                  #  COSINES OF THREE 2'S COMPLEMENT ANGLES AND PLACE THE RESULT, DOUBLE
000025:                                                                                                  #  PRECISION, IN THE SAME ORDER AS THE INPUTS, AT SINCDU AND COSCDU.  AN
000026:                                                                                                  #  ADDITIONAL OUTPUT IS THE 1'S COMPLEMENT ANGLES AT CDUSPOT.  THESE
000027:                                                                                                  #  ROUTINES GO OUT OF THEIR WAY TO LEAVE THE MPAC AREA AS THEY FIND IT,
000028:                                                                                                  #  EXCEPT FOR THE GENERALLY UNIMPORTANT MPAC +2.  THEY DIFFER ONLY IN
000029:                                                                                                  #  WHERE THEY GET THE ANGLES, AND IN METHOD OF CALLING.
000030:
000031:                                                                                                  #  CDUTRIG (AND CDUTRIG1, WHICH CAN BE CALLED IN BASIC) COMPUTE THE
000032:                                                                                                  #  SINES AND COSINES FROM THE CURRENT CONTENTS OF THE CDU REGISTERS.
000033:                                                                                                  #  THE CONTENTS OF CDUTEMP, ETC., ARE NOT TOUCHED SO THAT THEY MAY
000034:                                                                                                  #  CONTINUE TO FORM A CONSISTENT SET WITH THE LATEST PIPA READINGS.
000035:
000036:                                                                                                  #  CDUTRIG1 IS LIKE CDUTRIG EXCEPT THAT IT CAN BE CALLED IN BASIC.
000037:
000038:                                                                                                  #  CD*TR*GS FINDS CDU VALUES IN CDUSPOT RATHER THAN IN CDUTEMP.  THIS
000039:                                                                                                  #  ALLOWS USERS TO MAKE TRANSFORMATIONS USING ARBITRARY ANGLES, OR REAL
000040:                                                                                                  #  ANGLES IN AN ORDER OTHER THAN X Y Z.  A CALL TO THIS ROUTINE IS
000041:                                                                                                  #  NECESSARY IN PREPARATION FOR A CALL TO AX*SR*T IN EITHER OF ITS TWO
000042:                                                                                                  #  MODES (SMNB OR NBSM).  SINCE AX*SR*T EXPECTS TO FIND THE SINES AND
000043:                                                                                                  #  COSINES IN THE ORDER Y Z X THE ANGLES MUST HAVE BEEN PLACED IN CDUSPOT
000044:                                                                                                  #  IN THIS ORDER.  CD*TR*GS NEED NOT BE REPEATED WHEN AX*SR*T IS CALLED
000045:                                                                                                  #  MORE THAN ONCE, PROVIDED THE ANGLES HAVE NOT CHANGED.  NOTE THAT SINCE
000046:                                                                                                  #  IT CLOBBERS BUF2 (IN THE SINE AND COSINE ROUTINES) CD*TR*GS CANNOT BE
000047:                                                                                                  #  CALLED USING BANKCALL.  SORRY.
000048:
000049:                                                                                                  #  CD*TR*G IS LIKE CD*TR*GS EXCEPT THAT IT CAN BE CALLED IN
000050:                                                                                                  #  INTERPRETIVE.
000051:
000052: 23,3501           77776        CDUTRIG            EXIT
000053: 23,3502           03511                           TC       CDUTRIGS
000054: 23,3503           06006                           TC       INTPRET
000055: 23,3504           77616                           RVQ
000056:
000057: 23,3505           77776        CD*TR*G            EXIT
000058: 23,3506           03517                           TC       CD*TR*GS
000059: 23,3507           06006                           TC       INTPRET
000060: 23,3510           77616                           RVQ
000061:
000062: 23,3511           30032        CDUTRIGS           CA       CDUX
000063: 23,3512           54772                           TS       CDUSPOT    +4
000064: 23,3513           30033                           CA       CDUY
000065: 23,3514           54766                           TS       CDUSPOT
000066: 23,3515           30034                           CA       CDUZ
000067: 23,3516           54770                           TS       CDUSPOT    +2
000068:
000069: 23,3517           00006        CD*TR*GS           EXTEND
000070: 23,3520           22142                           QXCH     TEM2
000071: 23,3521           35031                           CAF      FOUR
000072: 23,3522           76211        TR*GL**P           MASK     SIX                                   #  MAKE IT EVEN AND SMALLER
000073: 23,3523           54143                           TS       TEM3
000074: 23,3524           50143                           INDEX    TEM3
000075: 23,3525           30766                           CA       CDUSPOT
000076: 23,3526           52155                           DXCH     MPAC                                  #  STORING 2'S COMP ANGLE, LOADING MPAC
000077: 23,3527           52127                           DXCH     VBUF       +4                         #  STORING MPAC FOR LATER RESTORATION
000078: 23,3530           04773                           TC       USPRCADR
000079: 23,3531           45513                           CADR     CDULOGIC
000080: 23,3532           00006                           EXTEND
000081: 23,3533           30155                           DCA      MPAC
000082: 23,3534           50143                           INDEX    TEM3
000083: 23,3535           52767                           DXCH     CDUSPOT                               #  STORING 1'S COMPLEMENT ANGLE
000084: 23,3536           04773                           TC       USPRCADR
000085: 23,3537           01516                           CADR     COSINE
000086: 23,3540           52155                           DXCH     MPAC
000087: 23,3541           50143                           INDEX    TEM3
000088: 23,3542           52745                           DXCH     COSCDU                                #  STORING COSINE
000089: 23,3543           00006                           EXTEND
000090: 23,3544           50143                           INDEX    TEM3
000091: 23,3545           30767                           DCA      CDUSPOT                               #  LOADING 1'S COMPLEMENT ANGLE
000092: 23,3546           04773                           TC       USPRCADR
000093: 23,3547           01530                           CADR     SINE       +1                         #  SINE +1 EXPECTS ARGUMENT IN A AND L
000094: 23,3550           52127                           DXCH     VBUF       +4                         #  BRINGING UP PRIOR MPAC TO BE RESTORED
000095: 23,3551           52155                           DXCH     MPAC
000096: 23,3552           50143                           INDEX    TEM3
000097: 23,3553           52737                           DXCH     SINCDU
000098: 23,3554           10143                           CCS      TEM3
000099: 23,3555           13522                           TCF      TR*GL**P
000100: 23,3556           00142                           TC       TEM2
000101:                                                                                                  #  ****************************************************************************************************************
000102:                                                                                                  #  QUICTRIG, INTENDED FOR GUIDANCE CYCLE USE WHERE TIME IS CRITICAL, IS A MUCH FASTER VERSION OF CD*TR*GS.
000103:                                                                                                  #  QUICTRIG COMPUTES AND STORES THE SINES AND COSINES OF THE 2'S COMPLEMENT ANGLES AT CDUSPOT, CDUSPOT +2,
000104:                                                                                                  #  AND CDUSPOT +4.  UNLIKE CD*TR*GS, QUICTRIG DOES NOT LEAVE THE 1'S COMPLEMENT VERSIONS OF THE ANGLES IN
000105:                                                                                                  #  CDUSPOT.  QUICTRIG'S EXECUTION TIME IS 4.1 MS;    THIS IS 10 TIMES AS FAST AS CD*TR*GS.    QUICTRIG MAY BE
000106:                                                                                                  #  CALLED FROM INTERPRETIVE AS AN RTB OP-CODE, OR FROM BASIC VIA BANKCALL OR IBNKCALL.
000107:
000108: 23,3557           00004        QUICTRIG           INHINT                                         #  INHINT SINCE DAP USES THE SAME TEMPS
000109: 23,3560           00006                           EXTEND
000110: 23,3561           22061                           QXCH     ITEMP1
000111: 23,3562           35031                           CAF      FOUR
000112: 23,3563           76211                 +4        MASK     SIX
000113: 23,3564           54062                           TS       ITEMP2
000114: 23,3565           50062                           INDEX    ITEMP2
000115: 23,3566           30766                           CA       CDUSPOT
000116: 23,3567           05111                           TC       SPSIN
000117: 23,3570           00006                           EXTEND
000118: 23,3571           75016                           MP       BIT14                                 #  SCALE DOWN TO MATCH INTERPRETER OUTPUTS
000119: 23,3572           50062                           INDEX    ITEMP2
000120: 23,3573           52737                           DXCH     SINCDU
000121: 23,3574           50062                           INDEX    ITEMP2
000122: 23,3575           30766                           CA       CDUSPOT
000123: 23,3576           05110                           TC       SPCOS
000124: 23,3577           00006                           EXTEND
000125: 23,3600           75016                           MP       BIT14
000126: 23,3601           50062                           INDEX    ITEMP2
000127: 23,3602           52745                           DXCH     COSCDU
000128: 23,3603           10062                           CCS      ITEMP2
000129: 23,3604           13563                           TCF      QUICTRIG   +4
000130: 23,3605           30061                           CA       ITEMP1
000131: 23,3606           00003                           RELINT
000132: 23,3607           00000                           TC       A
000133:                                                                                                  # ****************************************************************************************************************
000134:                                                                                                  #  THESE INTERFACE ROUTINES MAKE IT POSSIBLE TO CALL AX*SR*T, ETC., IN
000135:                                                                                                  #  INTERPRETIVE.  LATER, WHERE POSSIBLE, THEY WILL BE ELIMINATED.
000136:
000137:                                                                                                  #  NBSM WILL BE THE FIRST TO GO.  IT SHOULD NOT BE USED.
000138:
000139: 23,3610           77620        NBSM               STQ
000140: 23,3611           00047                                    X2
000141: 23,3612           76740                           LXC,1    VLOAD*
000142: 23,3613           00050                                    S1                                    #  BASE ADDRESS OF THE CDU ANGLES IS IN S1
000143: 23,3614           00001                                    0,1
000144: 23,3615           24767                           STOVL    CDUSPOT
000145: 23,3616           00041                                    32D                                   #  VECTOR TO BE TRANSFORMED IS IN 32D
000146: 23,3617           77624                           CALL
000147: 23,3620           47641                                    TRG*NBSM
000148: 23,3621           34041                           STCALL   32D                                   #  SINCE THERE'S NO STGOTO
000149: 23,3622           00047                                    X2
000150:
000151:                                                                                                  #  THESE INTERFACE ROUTINES ARE PERMANENT.  ALL RESTORE USER'S EBANK
000152:                                                                                                  #  SETTING. ALL ARE STRICT INTERPRETIVE SUBROUTINES, CALLED USING "CALL",
000153:                                                                                                  #  RETURNING VIA QPRET.  ALL EXPECT AND RETURN THE VECTOR TO BE TRANSFOR-
000154:                                                                                                  #  MED INTERPRETER-STYLE IN MPAC; COMPONENTS AT MPAC, MPAC +3, AND MPAC +5.
000155:
000156:                                                                                                  #  TRG*SMNB AND TRG*NBSM BOTH EXPECT TO SEE THE 2'S COMPLEMENT ANGLES
000157:                                                                                                  #  AT CDUSPOT (ORDER Y Z X, AT CDUSPOT, CDUSPOT +2, AND CDUSPOT +4; ODD
000158:                                                                                                  #  LOCATIONS NEED NOT BE ZEROED).  TRG*NBSM DOES THE NB TO SM TRANSFOR-
000159:                                                                                                  #  MATION; TRG*SMNB, VICE VERSA.
000160:
000161:                                                                                                  #  CDU*NBSM DOES ITS TRANSFORMATION USING THE PRESENT CONTENTS OF
000162:                                                                                                  #  THE CDU COUNTERS.  OTHERWISE IT IS LIKE TRG*NBSM.
000163:
000164:                                                                                                  #  CDU*SMNB IS THE COMPLEMENT OF CDU*NBSM.
000165:
000166: 23,3623           77776        CDU*SMNB           EXIT
000167: 23,3624           03511                           TC       CDUTRIGS
000168: 23,3625           13630                           TCF      C*MM*N1
000169:
000170: 23,3626           77776        TRG*SMNB           EXIT
000171: 23,3627           03517                           TC       CD*TR*GS
000172: 23,3630           07501        C*MM*N1            TC       MPACVBUF                              #  AX*SR*T EXPECTS VECTOR IN VBUF
000173: 23,3631           46214                           CS       THREE                                 #  SIGNAL FOR SM TO NB TRANSFORMATION
000174: 23,3632           03652        C*MM*N2            TC       AX*SR*T
000175: 23,3633           06006                           TC       INTPRET
000176: 23,3634           43575                           VLOAD    RVQ
000177: 23,3635           00123                                    VBUF
000178:
000179: 23,3636           77776        CDU*NBSM           EXIT
000180: 23,3637           03511                           TC       CDUTRIGS
000181:
000182:
000183: 23,3640           13643                           TCF      C*MM*N3
000184:
000185: 23,3641           77776        TRG*NBSM           EXIT
000186: 23,3642           03517                           TC       CD*TR*GS
000187: 23,3643           07501        C*MM*N3            TC       MPACVBUF                              #  FOR AX*SR*T
000188: 23,3644           36214                           CA       THREE                                 #  SIGNAL FOR NB TO SM TRANSFORMATION
000189: 23,3645           13632                           TCF      C*MM*N2
000190:
000191:                                                                                                  #  *NBSM* AND *SMNB* EXPECT TO SEE THE SINES AND COSINES (AT SINCDU
000192:                                                                                                  #  AND COSCDU) RATHER THAN THE ANGLES THEMSELVES.  OTHERWISE THEY ARE
000193:                                                                                                  #  LIKE TRG*NBSM AND TRG*SMNB.
000194:
000195:                                                                                                  #  NOTE THAT JUST AS CD*TR*GS NEED BE CALLED ONLY ONCE FOR EACH SERIES
000196:                                                                                                  #  OF TRANSFORMATIONS USING THE SAME ANGLES, SO TOO ONLY ONE OF TRG*NBSM
000197:                                                                                                  #  AND TRG*SMNB NEED BE CALLED FOR EACH SERIES.  FOR SUBSEQUENT TRANSFOR-
000198:                                                                                                  #  MATIONS USE *NBSM* AND *SMNB*.
000199:
000200: 23,3646           77776        *SMNB*             EXIT
000201: 23,3647           13630                           TCF      C*MM*N1
000202:
000203: 23,3650           77776        *NBSM*             EXIT
000204: 23,3651           13643                           TCF      C*MM*N3
000205:
000206:                                                                                                  #  AX*SR*T COMBINES THE OLD SMNB AND NBSM.  FOR THE NB TO SM
000207:                                                                                                  #  TRANSFORMATION, ENTER WITH +3 IN A.  FOR SM TO NB, ENTER WITH -3.
000208:                                                                                                  #  THE VECTOR TO BE TRANSFORMED ARRIVES, AND IS RETURNED, IN VBUF.
000209:                                                                                                  #  AX*SR*T EXPECTS TO FIND THE SINES AND COSINES OF THE ANGLES OF ROTATION
000210:                                                                                                  #  AT SINCDU AND COSCDU, IN THE ORDER Y Z X.  A CALL TO CD*TR*GS, WITH
000211:                                                                                                  #  THE 2'S COMPLEMENT ANGLES (ORDER Y Z X) AT CDUSPOT, WILL TAKE CARE OF
000212:                                                                                                  #  THIS.  HERE IS A SAMPLE CALLING SEQUENCE:-
000213:                                                                                                  #                TC      CDUTRIGS
000214:                                                                                                  #                CS      THREE           ("CA THREE" FOR NBSM)
000215:                                                                                                  #                TC      AX*SR*T
000216:                                                                                                  #  THE CALL TO CD*TR*GS NEED NOT BE REPEATED, WHEN AX*SR*T IS CALLED MORE
000217:                                                                                                  #  THAN ONCE, UNLESS THE ANGLES HAVE CHANGED.
000218:
000219:                                                                                                  #  AX*SR*T IS GUARANTEED SAFE ONLY FOR VECTORS OF MAGNITUDE LESS THAN
000220:                                                                                                  #  UNITY.  A LOOK AT THE CASE IN WHICH A VECTOR OF GREATER MAGNITUDE
000221:                                                                                                  #  HAPPENS TO LIE ALONG AN AXIS OF THE SYSTEM TO WHICH IT IS TO BE TRANS-
000222:                                                                                                  #  FORMED CONVINCES ONE THAT THIS IS A RESTRICTION WHICH MUST BE ACCEPTED.
000223:
000224: 23,3652           54142        AX*SR*T            TS       DEXDEX                                #  WHERE IT BECOMES THE INDEX OF INDEXES
000225: 23,3653           00006                           EXTEND
000226: 23,3654           22145                           QXCH     RTNSAVER
000227:
000228: 23,3655           10142        R*TL**P            CCS      DEXDEX                                #                +3 --> 0        -3 --> 2
000229: 23,3656           40142                           CS       DEXDEX                                #  THUS:         +2 --> 1        -2 --> 1
000230: 23,3657           66214                           AD       THREE                                 #                +1 --> 2        -1 --> 0
000231: 23,3660           00006                           EXTEND
000232: 23,3661           50000                           INDEX    A
000233: 23,3662           33741                           DCA      INDEXI
000234: 23,3663           52144                           DXCH     DEXI
000235:
000236: 23,3664           35033                           CA       ONE
000237: 23,3665           54130                           TS       BUF
000238: 23,3666           00006                           EXTEND
000239: 23,3667           50143                           INDEX    DEX1
000240: 23,3670           40123                           DCS      VBUF
000241: 23,3671           13673                           TCF      LOOP1                                 #  REALLY BE A SUBTRACT, AND VICE VERSA
000242:
000243: 23,3672           52131        LOOP2              DXCH     BUF                                   #  LOADING VECTOR COMPONENT, STORING INDEX
000244:
000245: 23,3673           52155        LOOP1              DXCH     MPAC
000246: 23,3674           33737                           CA       SINESLOC
000247: 23,3675           60143                           AD       DEX1
000248: 23,3676           54116                           TS       ADDRWD
000249:
000250: 23,3677           07056                           TC       DMPSUB                                #  MULTIPLY BY SIN(CDUANGLE)
000251: 23,3700           10142                           CCS      DEXDEX
000252: 23,3701           52155                           DXCH     MPAC                                  #  NBSM CASE
000253: 23,3702           13705                           TCF      +3
000254: 23,3703           00006                           EXTEND                                         #  SMNB CASE
000255: 23,3704           40155                           DCS      MPAC
000256: 23,3705           52134                           DXCH     TERM1TMP
000257:
000258: 23,3706           36211                           CA       SIX                                   #  SINCDU AND COSCDU (EACH 6 WORDS) MUST
000259: 23,3707           26116                           ADS      ADDRWD                                #        BE CONSECUTIVE AND IN THAT ORDER
000260:
000261: 23,3710           00006                           EXTEND
000262: 23,3711           50130                           INDEX    BUF
000263: 23,3712           50143                           INDEX    DEX1
000264: 23,3713           30123                           DCA      VBUF
000265: 23,3714           52155                           DXCH     MPAC
000266: 23,3715           07056                           TC       DMPSUB                                #  MULTIPLY BY COS(CDUANGLE)
000267: 23,3716           52155                           DXCH     MPAC
000268: 23,3717           20134                           DAS      TERM1TMP
000269: 23,3720           52134                           DXCH     TERM1TMP
000270: 23,3721           20001                           DDOUBL
000271: 23,3722           50130                           INDEX    BUF
000272: 23,3723           50143                           INDEX    DEX1
000273: 23,3724           52123                           DXCH     VBUF
000274: 23,3725           52131                           DXCH     BUF                                   #  LOADING INDEX, STORING VECTOR COMPONENT
000275: 23,3726           10000                           CCS      A                                     #  'CAUSE THAT'S WHERE THE INDEX NOW IS
000276: 23,3727           13672                           TCF      LOOP2
000277:
000278: 23,3730           00006                           EXTEND
000279: 23,3731           26142                           DIM      DEXDEX                                #  DECREMENT MAGNITUDE PRESERVING SIGN
000280:
000281: 23,3732           10142        TSTPOINT           CCS      DEXDEX                                #  ONLY THE BRANCHING FUNCTION IS USED
000282: 23,3733           13655                           TCF      R*TL**P
000283: 23,3734           00145                           TC       RTNSAVER
000284: 23,3735           13655                           TCF      R*TL**P
000285: 23,3736           00145                           TC       RTNSAVER
000286:
000287: 23,3737           00736        SINESLOC           ADRES    SINCDU                                #  FOR USE IN SETTING ADDRWD
000288:
000289: 23,3740           00004        INDEXI             DEC      4          B-14                       #  **********   DON'T   **********
000290: 23,3741           00002                           DEC      2          B-14                       #  **********   TOUCH   **********
000291: 23,3742           00000                           DEC      0          B-14                       #  **********   THESE   **********
000292: 23,3743           00004                           DEC      4          B-14                       #  ********** CONSTANTS **********
000293:
000294:                                                                                                  #  ****************************************************************************************************************
000295:                                                                                                  #  THIS SUBROUTINE COMPUTES INCREMENTAL CHANGES IN CDU(GIMBAL) ANGLES FROM INCREMENTAL CHANGES ABOUT SM AXES.  IT
000296:                                                                                                  #  REQUIRES SM INCREMENTS AS A DP VECTOR SCALED AT ONE REVOLUTION(DTHETASM,+2,+4).  SIN,COS(CDUY,Z,X) ARE IN
000297:                                                                                                  #  SINCDU,+2,+4 AND COSCDU,+2,+4 RESPECTIVELY, SCALED TO ONE HALF.  CDU INCREENTS ARE PLACED IN DCDU,+2,+4 SCALED TO
000298:                                                                                                  #  ONE REVOLUTION.
000299:
000300:                                                                                                  #        *  COS(IGA)SEC(MGA)             0               -SIN(IGA)SEC(MGA) *
000301:                                                                                                  #        *                                                                 *
000302:                                                                                                  #        * -COS(IGA)TAN(MGA)             1                SIN(IGA)TAN(MGA) *
000303:                                                                                                  #        *                                                                 *
000304:                                                                                                  #        *      SIN(IGA)                 0                    COS(IGA)     *
000305:
000306: 14,3424                                           BANK     14
000307: 23,2000                                           SETLOC   POWFLIT1
000308: 23,2000                                           BANK
000309:
000310: 23,3744           41345        SMCDURES           DLOAD    DMP
000311: 23,3745           03212                                    DTHETASM
000312: 23,3746           00745                                    COSCDUY
000313:
000314: 23,3747           41325                           PDDL     DMP
000315: 23,3750           03216                                    DTHETASM   +4
000316: 23,3751           00737                                    SINCDUY
000317:
000318: 23,3752           77621                           BDSU
000319: 23,3753           77671                           DDV
000320: 23,3754           00747                                    COSCDUZ
000321: 23,3755           03204                           STORE    DCDU
000322:
000323: 23,3756           72405                           DMP      SL1                                   #  SCALE
000324: 23,3757           00741                                    SINCDUZ
000325: 23,3760           77621                           BDSU
000326:
000327: 23,3761           03214                                    DTHETASM   +2
000328: 23,3762           17206                           STODL    DCDU       +2
000329: 23,3763           03212                                    DTHETASM
000330:
000331: 23,3764           65205                           DMP      PDDL
000332: 23,3765           00737                                    SINCDUY
000333: 23,3766           03216                                    DTHETASM   +4
000334:
000335: 23,3767           43205                           DMP      DAD
000336: 23,3770           00745                                    COSCDUY
000337: 23,3771           77752                           SL1
000338: 23,3772           03210                           STORE    DCDU       +4
000339: 23,3773           77616                           RVQ
000340:

End of include-file POWERED_FLIGHT_SUBROUTINES.agc.  Parent file is MAIN.agc


