
Source Code


000002:                                                                                                  ## Copyright:   Public domain.
000003:                                                                                                  ## Filename:    R30.agc
000004:                                                                                                  ## Purpose:     A section of Comanche revision 067.
000005:                                                                                                  ##              It is part of the reconstructed source code for the flight
000006:                                                                                                  ##              software for the Command Module's (CM) Apollo Guidance Computer
000007:                                                                                                  ##              (AGC) for Apollo 12. No original listings of this program are
000008:                                                                                                  ##              available; instead, this file was created via dissassembly of
000009:                                                                                                  ##              dumps of Comanche 067 core rope modules and comparison with
000010:                                                                                                  ##              other AGC programs.
000011:                                                                                                  ## Assembler:   yaYUL
000012:                                                                                                  ## Contact:     Ron Burkey <info@sandroid.org>.
000013:                                                                                                  ## Website:     www.ibiblio.org/apollo/index.html
000014:                                                                                                  ## Mod history: 2023-08-16 MAS  Created from Comanche 055.
000015:                                                                                                  ##              2024-05-13 MAS  Updated for Comanche 067.
000016:
000017:                                                                                                  #  SUBROUTINE NAME:  V82CALL
000018:                                                                                                  #  MOD NO: 0                                                             DATE: 16 FEB 67
000019:                                                                                                  #  MOD BY: RR BAIRNSFATHER                                               LOG SECTION:  R30
000020:                                                                                                  #  MOD NO: 1     MOD BY:  RR BAIRNSFATHER        DATE: 11 APR 67         SR30.1 CHANGED TO ALLOW MONITOR OPERN
000021:                                                                                                  #  MOD NO: 2     MOD  BY  ALONSO                 DATE: 11 DEC 67         VB82 PROGRAM REWRITTEN
000022:                                                                                                  #  MOD NO: 3     MOD  BY  ALONSO                 DATE: 26 MAR 68         PROG MOD TO HANDLE DIF EARTH/MOON SCALE
000023:
000024:                                                                                                  #  NEW FUNCTIONAL DESCRIPTION:   CALLED BY VERB 82 ENTER.  PRIORITY 10
000025:                                                                                                  #  USED THROUGHOUT.              CALCULATE AND DISPLAY ORBITAL PARAMETERS
000026:
000027:                                                                                                  #  1.    IF AVERAGE G IS OFF:
000028:                                                                                                  #                FLASH DISPLAY V04N06.  R2 INDICATES WHICH SHIP'S STATE VECTOR IS
000029:                                                                                                  #                        TO BE UPDATED.  INITIAL CHOICE IS THIS SHIP (R2=1).  ASTRONAUT
000030:                                                                                                  #                        CAN CHANGE TO OTHER SHIP BY V22EXE, WHERE X NOT EQ 1.
000031:                                                                                                  #                SELECTED STATE VECTOR UPDATED BY THISPREC (OTHPREC).
000032:                                                                                                  #                CALLS SR30.1 (WHICH CALLS TFFCONMU + TFFRP/RA) TO CALCULATE
000033:                                                                                                  #                        RPER (PERIGEE RADIUS), RAPO (APOGEE RADIUS), HPER (PERIGEE
000034:                                                                                                  #                        HEIGHT ABOVE LAUNCH PAD OR LUNAR LANDING SITE), HAPO (APOGEE
000035:                                                                                                  #                        HEIGHT AS ABOVE), TPER (TIME TO PERIGEE), TFF (TIME TO
000036:                                                                                                  #                        INTERSECT 300 KFT ABOVE PAD OR 35KFT ABOVE LANDING SITE).
000037:                                                                                                  #                FLASH MONITOR V16N44 (HAPO, HPER, TFF).  TFF IS -59M59S IF IT WAS
000038:                                                                                                  #                        NOT COMPUTABLE, OTHERWISE IT INCREMENTS ONCE PER SECOND.
000039:                                                                                                  #                        ASTRONAUT HAS OPTION TO MONITOR TPER BY KEYING IN N 32 E.
000040:                                                                                                  #                        DISPLAY IS IN HMS, IS NEGATIVE (AS WAS TFF), AND INCREMENTS
000041:                                                                                                  #                        ONCE PER SECOND ONLY IF TFF DISPLAY WAS -59M59S.
000042:                                                                                                  #        2.      IF AVERAGE G IS ON:
000043:                                                                                                  #                        CALLS SR30.1 APPROX EVERY TWO SECS.  STATE VECTOR IS ALWAYS
000044:                                                                                                  #                                FOR THIS VEHICLE.  V82 DOES NOT DISTURB STATE VECTOR.  RESULTS
000045:                                                                                                  #                                OF SR30.1 ARE RAPO, RPER, HAPO, HPER, TPER, TFF.
000046:                                                                                                  #                        FLASH MONITOR V16N44 (HAPO, HPER, TFF).
000047:                                                                                                  #                        IF MODE IS P11, THEN CALL DELRSPL SO ASTRONAUT CAN MONITOR
000048:                                                                                                  #                                RESULTS BY N50E.  SPLASH COMPUTATION DONE ONCE PER TWO SECS.
000049:                                                                                                  #        ADDENDUM:  HAPO AND HPER SHOULD BE CHANGED TO READ HAPOX AND HPERX IN THE
000050:                                                                                                  #                ABOVE REMARKS.
000051:
000052:                                                                                                  #  CALLING SEQUENCE: VERB 82 ENTER.
000053:
000054:                                                                                                  #  SUBROUTINES CALLED:   SR30.1, GOXDSPF
000055:                                                                                                  #                        MAYBE - THISPREC, OTHPREC, LOADTIME, DELRSPL
000056:
000057:                                                                                                  #  NORMAL EXIT MODES:  TC ENDEXT
000058:
000059:                                                                                                  #  ALARMS:  NONE
000060:
000061:                                                                                                  #  OUTPUT:       HAPOX   (-29) M
000062:                                                                                                  #                HPERX   (-29) M
000063:                                                                                                  #                RAPO    (-29) M EARTH
000064:                                                                                                  #                        (-27) M MOON
000065:                                                                                                  #                RPER    (-29) M EARTH
000066:                                                                                                  #                        (-27) M MOON
000067:                                                                                                  #                TFF     (-28) CS        CONTAINS NEGATIVE QUANTITY
000068:                                                                                                  #                -TPER   (-28) CS        CONTAINS NEGATIVE QUANTITY
000069:                                                                                                  #                RSP-RREC(-29) M         IF DELRSPL CALLED
000070:
000071:                                                                                                  #  ERASABLE INITIALIZATION REQUIRED:  STATE VECTOR.
000072:
000073:                                                                                                  #  DEBRIS:       QPRET, RONE, VONE, TFF/RTMU, HPERMIN, RPADTEM, V82EMFLG.
000074:                                                                                                  #                MAYBE:  TSTART82, V82FLAGS, TDEC1.
000075:
000076: 13,2231  E4,1751                                  EBANK=   HAPOX
000077: 31,2332                                           BANK     31
000078: 23,2000                                           SETLOC   R30LOC
000079: 23,2000                                           BANK
000080: 23,2332                                           COUNT*   $$/R30
000081:
000082: 23,2332           06006        V82CALL            TC       INTPRET
000083: 23,2333           52014                           BON      GOTO
000084: 23,2334           00716                                    AVEGFLAG
000085: 23,2335           40201                                    V82GON                                #  IF AVERAGE G ON
000086: 23,2336           46337                                    V82GOFF                               #  IF AVERAGE G OFF
000087:
000088: 23,2337           77776        V82GOFF            EXIT                                           #  ALLOW ASTRONAUT TO SELECT VEHICLE
000089: 23,2340           35032                           CAF      TWO                                   #  DESIRED FOR ORBITAL PARAMETERS
000090: 23,2341           55051                           TS       OPTIONX
000091: 23,2342           35033                           CAF      ONE
000092: 23,2343           55052                           TS       OPTIONX    +1
000093: 23,2344           32410                           CAF      OPTIONVN                              #  V 04 N 06
000094: 23,2345           04676                           TC       BANKCALL
000095: 23,2346           20561                           CADR     GOXDSPF
000096: 23,2347           05550                           TC       ENDEXT                                #  TERMINATE
000097: 23,2350           02352                           TC       +2                                    #  PROCEED
000098: 23,2351           02344                           TC       -5                                    #  DATA IN.  OPTIONX +1 = 1 FOR THIS VEHIC.
000099:                                                                                                  #                 UNEQ 1 FOR OTHER VEHICLE.
000100: 23,2352           32412                           CAF      TFFBANK
000101: 23,2353           54003                           TS       EBANK
000102: 23,2354           31052                           CA       OPTIONX    +1
000103: 23,2355           54111                           TS       OPTION82
000104:
000105: 23,2356           35030                           CAF      BIT4                                  #  80 MS
000106: 23,2357           05261                           TC       WAITLIST
000107: 23,2360  E4,1743                                  EBANK=   TFF
000108: 23,2360           02551 46064                     2CADR    TICKTEST
000109:
000110: 23,2362           00003                           RELINT
000111: 23,2363           35035        V82GOFLP           CAF      ZERO                                  #  MAJOR RECYCLE LOOP ENTRY
000112: 23,2364           55742                           TS       V82FLAGS                              #  ZERO FLAGS FOR TICKTEST. INHIBITS
000113:                                                                                                  #  DECREMENTING OF TFF AND -TPER.
000114: 23,2365           35077                           CAF      PRIO7
000115: 23,2366           05163                           TC       FINDVAC                               #  V82GOFF1 WILL EXECUTE STATE VECTOR
000116: 23,2367  E4,1743                                  EBANK=   TFF                                   #  UPDATE AND ORBIT CALCULATIONS FOR
000117: 23,2367           02413 46064                     2CADR    V82GOFF1                              #  SELECTED VEHICLE ABOUT PROPER BODY.
000118:
000119: 23,2371           00003                           RELINT
000120: 23,2372           36214        V82STALL           CAF      THREE                                 #  STALL IN THIS LOOP AND WITHOLD V 16 N 44
000121: 23,2373           71742                           MASK     V82FLAGS                              #  UNTIL STATE VECTOR UPDATE SETS ONE OF
000122: 23,2374           10000                           CCS      A                                     #  OUR FLAG BITS.
000123: 23,2375           02402                           TC       FLAGGON                               #  EXIT FROM STALL LOOP.
000124: 23,2376           35055                           CAF      1SEC
000125: 23,2377           04676                           TC       BANKCALL
000126: 23,2400           01732                           CADR     DELAYJOB
000127: 23,2401           02372                           TC       V82STALL
000128:
000129: 23,2402           32411        FLAGGON            CAF      V16N44                                #  MONITOR HAPO,HPER,TFF.
000130: 23,2403           04676                           TC       BANKCALL
000131: 23,2404           20561                           CADR     GOXDSPF
000132: 23,2405           05641                           TC       B5OFF                                 #  TERM THIS TELLS TICKTEST TO KILL ITSELF
000133: 23,2406           05641                           TC       B5OFF                                 #  PROCEED  DITTO
000134: 23,2407           02363                           TC       V82GOFLP                              #  RECYCLE  RECOMPUTE STATE VECT + DISPLAY
000135:
000136: 23,2410           01014        OPTIONVN           VN       0412
000137: 23,2411           04054        V16N44             VN       1644
000138: 23,2412           02343        TFFBANK            ECADR    TFF
000139:
000140: 23,2413           22007        V82GOFF1           ZL
000141: 23,2414           35035                           CAF      ZERO
000142: 23,2415           53052                           DXCH     DSPTEMX
000143: 23,2416           32472                           CAF      V06N16X
000144: 23,2417           04676                           TC       BANKCALL
000145: 23,2420           20561                           CADR     GOXDSPF
000146: 23,2421           05550                           TC       ENDEXT
000147: 23,2422           02424                           TC       +2
000148: 23,2423           02416                           TC       -5
000149: 23,2424           06006        ISTIMEOK           TC       INTPRET
000150: 23,2425           53145                           DLOAD    BZE
000151: 23,2426           01052                                    DSPTEMX
000152: 23,2427           46467                                    GETNOW
000153: 23,2430           00041        STRTDEC1           STORE    TDEC1                                 #  TIME FOR STATE VECTOR UPDATE.
000154: 23,2431           02325                           STORE    TSTART82                              #  TIME FOR INTERNAL USE.
000155: 23,2432           77776                           EXIT
000156: 23,2433           40111                           CS       OPTION82                              #  1 FOR THIS VEHICLE, NOT 1 FOR OTHER
000157: 23,2434           65033                           AD       ONE
000158: 23,2435           00006                           EXTEND
000159: 23,2436           12462                           BZF      THISSHIP
000160: 23,2437           06006        OTHSHIP            TC       INTPRET
000161: 23,2440           77624                           CALL                                           #  CALL STATE VECTOR UPDATE FOR OTHER SHIP.
000162: 23,2441           27115                                    OTHPREC
000163: 23,2442           77775        BOTHSHIP           VLOAD                                          #  MOVE RESULTS INTO TFFCONIC STORAGE AREAS
000164: 23,2443           00001                                    RATT                                  #  TO BE CALLED BY SR30.1.
000165: 23,2444           26327                           STOVL    RONE                                  #  RATT AT (-29)M FOR EARTH OR MOON
000166: 23,2445           00007                                    VATT
000167: 23,2446           02335                           STORE    VONE                                  #  VATT AT (-7)M/CS FOR EARTH OR MOON
000168: 23,2447           77743                           DLOAD*
000169: 23,2450           71301                                    1/RTMUE,2                             #  X2 IS 0 FOR EARTH CENTERED STATE VEC
000170: 23,2451           00037                           STORE    TFF/RTMU                              #  X2 IS 2 FOR MOON
000171: 23,2452           77743                           DLOAD*                                         #  AS LEFT BY THISPREC OR OTHPREC.
000172: 23,2453           71275                                    MINPERE,2
000173: 23,2454           02321                           STORE    HPERMIN                               #  TFFRTMU, HPERMIN AND RPADTEM ARE ALL
000174: 23,2455           46135                           SLOAD    BHIZ                                  #  EARTH/MOON PARAMETERS AS SET HERE.
000175: 23,2456           00050                                    X2
000176: 23,2457           46503                                    EARTHPAD
000177: 23,2460           77650                           GOTO
000178: 23,2461           46507                                    MOONPAD
000179: 23,2462           06006        THISSHIP           TC       INTPRET
000180: 23,2463           77624                           CALL                                           #  CALL STATE VECTOR UPDATE FOR THIS SHIP.
000181: 23,2464           27101                                    THISPREC
000182: 23,2465           77650                           GOTO
000183: 23,2466           46442                                    BOTHSHIP
000184: 23,2467           52034        GETNOW             RTB      GOTO
000185: 23,2470           45510                                    LOADTIME
000186: 23,2471           46430                                    STRTDEC1
000187: 23,2472           01420        V06N16X            VN       0616
000188:                                                                                                  #  THE FOLLOWING CONSTANTS ARE PAIRWISE INDEXED.  DO NOT SEPARATE PAIRS.
000189:
000190: 23,2473           27533 07571  1/RTMUM            2DEC*    .45162595  E-4        B14*
000191: 23,2475           25004 06702  1/RTMUE            2DEC*    .50087529  E-5        B17*
000192:
000193: 23,2477           00001 11530  MINPERM            2DEC     10668      B-27                       #  35 KFT MIN PERIGEE HEIGHT FOR MOON(-27)M
000194: 23,2501           00002 31230  MINPERE            2DEC     91440      B-29                       #  300 KFT (-29)M FOR EARTH
000195:
000196: 23,2503           43145        EARTHPAD           DLOAD    CLRGO                                 #  PAD 37-B RADIUS.  SCALED AT (-29)M.
000197: 23,2504           05152                                    RPAD
000198: 23,2505           04622                                    V82EMFLG                              #  INDICATE EARTH SCALING FOR SR30.1
000199: 23,2506           46513                                    BOTHPAD
000200:
000201: 23,2507           51575        MOONPAD            VLOAD    ABVAL                                 #  COMPUTE MOON PAD RADIUS FROM RLS VECTOR.
000202: 23,2510           02026                                    RLS                                   #  SCALED AT (-27)M.
000203: 23,2511           77614                           SET
000204: 23,2512           04462                                    V82EMFLG                              #  INDICATE MOON SCALING FOR SR30.1
000205: 23,2513           36323        BOTHPAD            STCALL   RPADTEM
000206: 23,2514           46671                                    SR30.1                                #  CALCULATE ORBITAL PARAMETERS
000207: 23,2515           77776                           EXIT
000208: 23,2516           31011                           CA       MODREG                                #  ARE WE IN POO
000209: 23,2517           00006                           EXTEND
000210: 23,2520           12647                           BZF      CANDEL                                #  YES, DO DELRSPL
000211: 23,2521           06006        SPLRET1            TC       INTPRET
000212: 23,2522           45234                           RTB      DSU
000213: 23,2523           45510                                    LOADTIME
000214: 23,2524           02325                                    TSTART82                              #  PRESENT TIME - TIME V82GOFF1 BEGAN
000215: 23,2525           02325                           STORE    TSTART82                              #                 SAVE IT
000216: 23,2526           53145                           DLOAD    BZE                                   #  SR30.1 SETS -TPER=0 IF HPER L/
000217: 23,2527           02346                                    -TPER                                 #  HPERMIN (300 OR 35) KFT.
000218: 23,2530           46541                                    TICKTFF                               #  (-TPER = 0)
000219: 23,2531           43345        TICKTPER           DLOAD    DAD                                   #  (-TPER NON ZERO) TFF WAS NOT COMPUTED,
000220: 23,2532           02346                                    -TPER                                 #  BUT WAS SET TO 59M59S.  DONT TICK TFF, DO
000221: 23,2533           02325                                    TSTART82                              #  TICK -TPER.  DISPLAY BOTH.
000222: 23,2534           02346                           STORE    -TPER                                 #  -TPER CORRECTED FOR TIME SINCE V82GOFF1
000223: 23,2535           77776                           EXIT                                           #  BEGAN.
000224:
000225: 23,2536           35033                           CAF      BIT1
000226: 23,2537           55742                           TS       V82FLAGS                              #  INFORMS TICKTEST TO INCREMENT ONLY -TPER
000227: 23,2540           05233                           TC       ENDOFJOB
000228:
000229: 23,2541           43345        TICKTFF            DLOAD    DAD                                   #  (-TPER=0) TFF WAS COMPUTED.  TICK TFF.
000230: 23,2542           02344                                    TFF                                   #  DO NOT TICK -TPER.  DISPLAY TFF, BUT NOT
000231: 23,2543           02325                                    TSTART82                              #  -TPER.
000232: 23,2544           02344                           STORE    TFF                                   #  TFF CORRECTED FOR TIME SINCE V82GOFF1
000233: 23,2545           77776                           EXIT                                           #  BEGAN.
000234: 23,2546           35032                           CAF      BIT2
000235: 23,2547           55742                           TS       V82FLAGS                              #  INFORMS TICKTEST TO INCREMENT ONLY TFF.
000236: 23,2550           05233                           TC       ENDOFJOB
000237:
000238: 23,2551           35027        TICKTEST           CAF      BIT5                                  #  THIS WAITLIST PROGRAM PERPETUATES ITSELF
000239: 23,2552           71044                           MASK     EXTVBACT                              #  ONCE A SEC UNTIL BIT 5 OF EXTVBACT =0.
000240: 23,2553           10000                           CCS      A
000241: 23,2554           02562                           TC       DOTICK
000242: 23,2555           37662                           CAF      PRIO25
000243: 23,2556           05150                           TC       NOVAC                                 #  TERMINATE V 82.  CANT CALL ENDEXT IN RUPT.
000244: 23,2557     1044                                  EBANK=   EXTVBACT
000245: 23,2557           05550 04062                     2CADR    ENDEXT
000246:
000247: 23,2561           05340                           TC       TASKOVER
000248: 23,2562           35055        DOTICK             CAF      1SEC                                  #  RE-REQUEST TICKTEST.
000249: 23,2563           05261                           TC       WAITLIST
000250: 23,2564  E4,1743                                  EBANK=   TFF
000251: 23,2564           02551 46064                     2CADR    TICKTEST
000252:
000253: 23,2566           36214                           CAF      THREE
000254: 23,2567           71742                           MASK     V82FLAGS
000255: 23,2570           50000                           INDEX    A
000256: 23,2571           02572                           TC       +1
000257: 23,2572           05340                           TC       TASKOVER                              #  IF NO FLAGBITS SET DONT CHANGE TFF OR
000258:                                                                                                  #  -TPER, BUT CONTINUE LOOP.
000259: 23,2573           02601                           TC       TPERTICK                              #  ONLY BIT 1 SET.  INCR -TPER BY 1 SEC.
000260: 23,2574           35055        TFFTICK            CAF      1SEC                                  #  ONLY BIT 2 SET.  INCR TFF BY 1 SEC.
000261: 23,2575           54001                           TS       L
000262: 23,2576           35035                           CAF      ZERO
000263: 23,2577           21744                           DAS      TFF
000264: 23,2600           05340                           TC       TASKOVER
000265: 23,2601           35055        TPERTICK           CAF      1SEC
000266: 23,2602           54001                           TS       L
000267: 23,2603           35035                           CAF      ZERO
000268: 23,2604           21746                           DAS      -TPER
000269: 23,2605           05340                           TC       TASKOVER
000270:
000271: 20,2000                                           SETLOC   R30LOC1
000272: 20,2000                                           BANK
000273: 20,2201                                           COUNT*   $$/R30
000274: 20,2201           77776        V82GON             EXIT                                           #  AVERAGE G ON.  USE CURRENT STATE VECTOR
000275:                                                                                                  #  FOR ORBITAL PARAMETER CALCULATIONS.
000276: 20,2202           35077                           CAF      PRIO7                                 #  LESS THAN LAMBERT
000277: 20,2203           05163                           TC       FINDVAC                               #  V82GON1 WILL PERFORM ORBIT CALCULATIONS
000278: 20,2204  E4,1743                                  EBANK=   TFF                                   #  ABOUT PROPER BODY APPROX ONCE PER SEC.
000279: 20,2204           02606 46064                     2CADR    V82GON1
000280:
000281: 20,2206           00003                           RELINT
000282: 20,2207           10067                           CCS      NEWJOB                                #  WITHOLD V16 N44 UNTIL FIRST ORBIT CALC
000283: 20,2210           05200                           TC       CHANG1                                #  IS DONE.  NOTE:  V82GON1 (PRIO7, FINDVAC
000284:                                                                                                  #  JOB) IS COMPLETED BEFORE V82GON (PRIO7,
000285:                                                                                                  #  NOVAC JOB).
000286: 20,2211           32217        V82REDSP           CAF      V16N44X                               #  MONITOR HAPO, HPER, TFF
000287: 20,2212           04676                           TC       BANKCALL
000288: 20,2213           20561                           CADR     GOXDSPF
000289: 20,2214           05641                           TC       B5OFF                                 #  TERM THIS TELLS V82GON1 TO KILL ITSELF.
000290: 20,2215           05641                           TC       B5OFF                                 #  PROC DITTO.
000291: 20,2216           02211                           TC       V82REDSP                              #  RECYCLE
000292:
000293: 20,2217           04054        V16N44X            VN       1644
000294:
000295: 23,2000                                           SETLOC   R30LOC
000296: 23,2000                                           BANK
000297: 23,2606                                           COUNT*   $$/R30
000298: 23,2606           06006        V82GON1            TC       INTPRET                               #  THIS EXEC PROGRAM PERPETUATES ITSELF
000299:                                                                                                  #  ONCE A SEC UNTIL BIT 5 OF EXTVBACT =0.
000300: 23,2607           52175                           VLOAD    GOTO                                  #  HOLDS OFF CCS NEWJOB BETWEEN RN AND
000301: 23,2610           01171                                    RN                                    #  VN FETCH SO RN, VN ARE FROM SAME
000302: 23,2611           46612                                    NEXTLINE                              #  STATE VECTOR UPDATE.
000303: 23,2612           26327        NEXTLINE           STOVL    RONE                                  #  RN AT (-29)M FOR EARTH OR MOON
000304: 23,2613           01177                                    VN
000305: 23,2614           02335                           STORE    VONE                                  #  VN AT (-7)M/CS FOR EARTH OR MOON
000306: 23,2615           52014                           BON      GOTO
000307: 23,2616           00315                                    AMOONFLG                              #  FLAG INDICATES BODY ABOUT WHICH ORBITAL
000308: 23,2617           46621                                    MOONGON                               #  CALCULATIONS ARE TO BE PERFORMED.
000309: 23,2620           46632                                    EARTHGON                              #  IF SET - MOON, IF RESET - EARTH.
000310:
000311: 23,2621           71214        MOONGON            SET      DLOAD
000312: 23,2622           04462                                    V82EMFLG                              #  INDICATE MOON SCALING FOR SR30.1
000313: 23,2623           06474                                    1/RTMUM                               #  LUNAR PARAMETERS LOADED HERE FOR SR30.1
000314: 23,2624           14037                           STODL    TFF/RTMU
000315: 23,2625           06500                                    MINPERM
000316: 23,2626           26321                           STOVL    HPERMIN
000317: 23,2627           02026                                    RLS                                   #  SCALED AT (-27)M.
000318: 23,2630           52046                           ABVAL    GOTO
000319: 23,2631           46641                                    V82GON2
000320: 23,2632           71214        EARTHGON           CLEAR    DLOAD
000321: 23,2633           04662                                    V82EMFLG                              #  INDICATE EARTH SCALING FOR SR30.1
000322: 23,2634           06476                                    1/RTMUE                               #  EARTH PARAMETERS LOADED HERE FOR SR30.1
000323: 23,2635           14037                           STODL    TFF/RTMU
000324: 23,2636           06502                                    MINPERE
000325: 23,2637           16321                           STODL    HPERMIN
000326: 23,2640           05152                                    RPAD
000327: 23,2641           36323        V82GON2            STCALL   RPADTEM                               #  COMMON CODE FOR EARTH & MOON.
000328: 23,2642           46671                                    SR30.1
000329: 23,2643           77776                           EXIT
000330: 23,2644           05400                           TC       CHECKMM
000331: 23,2645           00013                           DEC      11         B-14
000332: 23,2646           02661                           TC       V82GON3                               #  NOT IN MODE 11.
000333: 23,2647           06006        CANDEL             TC       INTPRET                               #  IN MODE 11 OR 00
000334: 23,2650           77624                           CALL
000335: 23,2651           27452                                    INTSTALL                              #  DELRSPL DOES INTWAKE
000336: 23,2652           45145                           DLOAD    CALL
000337: 23,2653           02344                                    TFF
000338: 23,2654           64017                                    DELRSPL                               #  RETURN IS TO NEXT LINE (SPLRET).
000339: 23,2655           77776        SPLRET             EXIT
000340:
000341: 23,2656           31011                           CA       MODREG
000342: 23,2657           00006                           EXTEND
000343: 23,2660           12521                           BZF      SPLRET1
000344: 23,2661           35027        V82GON3            CAF      BIT5
000345: 23,2662           71044                           MASK     EXTVBACT                              #  SEE IF ASTRONAUT HAS SIGNALLED TERMINATE
000346: 23,2663           00006                           EXTEND
000347: 23,2664           15550                           BZF      ENDEXT                                #  YES, TERMINATE VB 82 LOOP
000348: 23,2665           35055                           CAF      1SEC
000349: 23,2666           04676                           TC       BANKCALL                              #  WAIT ONE SECOND BEFORE REPEATING
000350: 23,2667           01732                           CADR     DELAYJOB                              #  ORBITAL PARAMETER COMPUTATION.
000351: 23,2670           02606                           TC       V82GON1
000352:
000353:                                                                                                  #  SUBROUTINE NAME: SR30.1
000354:                                                                                                  #  MOD NO: 0                                                             DATE: 16 FEB 67
000355:                                                                                                  #  MOD BY: RR BAIRNSFATHER                                               LOG SECTION: R32
000356:                                                                                                  #  MOD NO: 1     MOD BY: RR BAIRNSFATHER         DATE: 11 APR 67         SR30.1 CHANGED TO ALLOW MONITOR OPERN
000357:                                                                                                  #  MOD NO: 2     MOD BY: RR BAIRNSFATHER         DATE: 14 APR 67         ADD OVFL CK FOR RAPO
000358:                                                                                                  #  MOD NO: 3     MOD BY ALONSO                   DATE: 11 DEC 67         SUBROUTINE REWRITTEN
000359:                                                                                                  #  MOD NO: 4     MOD BY ALONSO                   DATE: 26 MAR 68         PROG MOD TO HANDLE DIF EARTH/MOON SCALE
000360:                                                                                                  #  MOD NO: 5     MOD BY: RR BAIRNSFATHER         DATE: 6 AUG 68          OVFL CK FOR HAPO & HPER. VOIDS MOD #2.
000361:
000362:                                                                                                  #  NEW FUNCTIONAL DESCRIPTION:  ORBITAL PARAMETERS DISPLAY FOR NOUNS 32 AND 44.
000363:                                                                                                  #  SR30.1 CALLS TFFCONMU AND TFFRP/RA TO CALCULATE RPER (PERIGEE RADIUS),
000364:                                                                                                  #  RAPO (APOGEE RADIUS), HPER (PERIGEE HEIGHT ABOVE LAUNCH PAD OR LUNAR
000365:                                                                                                  #  LANDING SITE), HAPO (APOGEE HEIGHT AS ABOVE), TPER (TIME TO PERIGEE),
000366:                                                                                                  #  TFF (TIME TO INTERSECT 300 KFT ABOVE PAD OR 35KFT ABOVE LANDING SITE).
000367:                                                                                                  #  IF HPER IS GREATER THAN OR EQUAL TO HPERMIN, CALCULATES TPER AND STORES
000368:                                                                                                  #  NEGATIVE    IN -TPER. OTHERWISE STORES +0 IN -TPER. WHENEVER TPER IS
000369:                                                                                                  #  CALCULATED, TFF IS NOT COMPUTABLE AND DEFAULTS TO -59MIN 59SEC.  IF HAPO
000370:                                                                                                  #  WOULD EXCEED 9999.9 NM, IT IS LIMITED TO THAT VALUE FOR DISPLAY.
000371:
000372:                                                                                                  #  ADDENDUM:     HAPO AND HPER SHOULD BE CHANGED TO READ HAPOX AND HPERX IN THE
000373:                                                                                                  #                ABOVE REMARKS.
000374:
000375:                                                                                                  #  CALLING SEQUENCE:     CALL
000376:                                                                                                  #                                SR30.1
000377:
000378:                                                                                                  #  SUBROUTINES CALLED:   TFFCONMU, TFFRP/RA, CALCTPER, CALCTFF
000379:
000380:                                                                                                  #  NORMAL EXIT MODE:     CALLING LINE +1 (STILL IN INTERPRETIVE MODE)
000381:
000382:                                                                                                  #  ALARMS:       NONE
000383:
000384:                                                                                                  #  OUTPUT:       RAPO    (-29) M EARTH   APOGEE RADIUS   EARTH CENTERED COORD.
000385:                                                                                                  #                        (-27) M MOON                    MOON CENTERED COORD.
000386:                                                                                                  #                RPER    (-29) M EARTH   PERIGEE RADIUS  EARTH CENTERED COORD.
000387:                                                                                                  #                        (-27) M MOON                    MOON CENTERED COORD.
000388:                                                                                                  #                HAPOX   (-29) M         APOGEE ALTITUDE ABOVE PAD OR LAND. SITE MAX VALUE LIMITED TO 9999.9 NM.
000389:                                                                                                  #                HPERX   (-29) M         PERIGEE ALT. ABOVE PAD OR LAND. SITE    MAX VALUE LIMITED TO 9999.9 NM.
000390:                                                                                                  #                TFF     (-28) CS        TIME TO 300KFT OR 35KFT ALTITUDE
000391:                                                                                                  #                -TPER   (-28) CS        TIME TO PERIGEE
000392:
000393:                                                                                                  #  ERASABLE INITIALIZATION REQUIRED -
000394:                                                                                                  #        TFF/RTMU        (+17) EARTH     RECIPROCAL OF PROPER GRAV CONSTANT FOR
000395:                                                                                                  #                        (+14) MOON      EARTH OR MOON = 1/SQRT(MU).
000396:                                                                                                  #        RONE            (-29) M         STATE VECTOR
000397:                                                                                                  #        VONE            (-7)  M/CS      STATE VECTOR
000398:                                                                                                  #        RPADTEM         (-29) M EARTH   RADIUS OF LAUNCH PAD OR LUNAR LANDING
000399:                                                                                                  #                        (-27) M MOON    SITE.
000400:                                                                                                  #        HPERMIN         (-29) M EARTH   (300 OR 35) KFT MINIMUM PERIGEE ALTITUDE
000401:                                                                                                  #                        (-27) M MOON    ABOVE LAUNCH PAD OR LUNAR LANDING SITE.
000402:                                                                                                  #        V82EMFLG        (INT SW BIT)    RESET FOR EARTH, SET FOR MOON.
000403:
000404:                                                                                                  #  DEBRIS:       QPRET, PDL, S2
000405:
000406: 23,2671                                           COUNT*   $$/SR30S
000407:
000408: 23,2671           44001        SR30.1             SETPD    STQ                                   #  INITIALIZE PUSHDOWN LIST.
000409: 23,2672           00001                                    0
000410: 23,2673           00051                                    S2
000411:                                                                                                  #  SR30.1 INPUT: RONE AT (-29)M EARTH/MOON
000412:                                                                                                  #                VONE AT (-7)M/CS
000413:                                                                                                  #  TFFCONMU, TFFRP/RA, CALCTPER AND CALCTFF
000414:                                                                                                  #  CALLS REQUIRE:
000415:                                                                                                  #  EARTH CENTERED (NO RESCALING REQUIRED)
000416:                                                                                                  #        RONE SCALED TO B-29 M
000417:                                                                                                  #        VONE SCALED TO B-7 M/CS
000418:                                                                                                  #  MOON CENTERED (RESCALING REQUIRED)
000419:                                                                                                  #        RONE SCALED TO B-27 M
000420:                                                                                                  #        VONE SCALED TO B-5 M/CS
000421: 23,2674           77214                           BOFF     VLOAD
000422: 23,2675           04742                                    V82EMFLG                              #  OFF FOR EARTH, ON FOR MOON.
000423: 23,2676           46705                                    TFFCALLS
000424: 23,2677           02327                                    RONE
000425: 23,2700           77752                           VSL2
000426: 23,2701           26327                           STOVL    RONE
000427: 23,2702           02335                                    VONE
000428: 23,2703           77752                           VSL2
000429: 23,2704           02335                           STORE    VONE
000430: 23,2705           77624        TFFCALLS           CALL
000431: 23,2706           56761                                    TFFCONMU
000432: 23,2707           77624                           CALL                                           #  TFFRP/RA COMPUTES RAPO,RPER.
000433: 23,2710           57027                                    TFFRP/RA
000434:                                                                                                  #  RETURNS WITH RAPO IN D(MPAC).
000435: 23,2711           77625                           DSU
000436: 23,2712           02323                                    RPADTEM
000437: 23,2713           64414                           BOFF     SR2R                                  #  NEED HAPO AT (-29)M FOR DISPLAY.
000438:                                                                                                  #  IF MOON CENTERED, RESCALE FROM (-27)M.
000439:                                                                                                  #  IF EARTH CENTERED ALREADY AT (-29)M.
000440: 23,2714           04742                                    V82EMFLG                              #  OFF FOR EARTH, ON FOR MOON.
000441: 23,2715           46716                                    +1
000442: 23,2716           77624                           CALL                                           #  IF HAPO > MAXNM, SET HAPO =9999.9 NM.
000443: 23,2717           46756                                    MAXCHK                                #  OTHERWISE STORE (RAPO-RPADTEM) IN HAPO.
000444: 23,2720           16352        STORHAPO           STODL    HAPOX
000445: 23,2721           00017                                    RPER
000446: 23,2722           77625                           DSU
000447: 23,2723           02323                                    RPADTEM                               #  GIVES HPER AT (-29)M EARTH, (-27)M MOON.
000448: 23,2724           00161                           STORE    MPAC       +4                         #  SAVE THIS FOR COMPARISON TO HPERMIN.
000449: 23,2725           64414                           BOFF     SR2R                                  #  NEED HPER AT (-29)M FOR DISPLAY.
000450:                                                                                                  #  IF MOON CENTERED, RESCALE FROM (-27)M.
000451:                                                                                                  #  IF EARTH CENTERED ALREADY AT (-29)M.
000452: 23,2726           04742                                    V82EMFLG                              #  OFF FOR EARTH, ON FOR MOON.
000453: 23,2727           46730                                    +1
000454: 23,2730           77624                           CALL                                           #  IF HPER > MAXNM, SET HPER = 9999.9 NM.
000455: 23,2731           46756                                    MAXCHK
000456: 23,2732           16354        STORHPER           STODL    HPERX                                 #  STORE (RPER - RPADTEM) INTO HPERX.
000457: 23,2733           00161                                    MPAC       +4
000458: 23,2734           51025                           DSU      BPL                                   #  HPERMIN AT (-29)M FOR EARTH, (-27)M MOON
000459: 23,2735           02321                                    HPERMIN                               #  IF HPER L/ HPERMIN (300 OR 35) KFT,
000460: 23,2736           46742                                    DOTPER                                #  THEN ZERO INTO -TPER.
000461: 23,2737           52145                           DLOAD    GOTO                                  #  OTHERWISE CALCULATE TPER.
000462: 23,2740           15334                                    HI6ZEROS
000463: 23,2741           46746                                    SKIPTPER
000464: 23,2742           45145        DOTPER             DLOAD    CALL
000465: 23,2743           00017                                    RPER
000466: 23,2744           57065                                    CALCTPER
000467: 23,2745           77676                           DCOMP                                          #  TPER IS PUT NEG INTO -TPER.
000468: 23,2746           16346        SKIPTPER           STODL    -TPER
000469: 23,2747           02321                                    HPERMIN                               #  HPERMIN AT (-29)M FOR EARTH, (-27)M MOON
000470: 23,2750           45015                           DAD      CALL
000471: 23,2751           02323                                    RPADTEM                               #  RPADTEM AT (-29)M FOR EARTH, (-27)M MOON
000472: 23,2752           57070                                    CALCTFF                               #  GIVES 59M59S FOR TFF IF RPER G/
000473: 23,2753           77676                           DCOMP                                          #  HPERMIN + RPADTEM.  (TPER WAS NON ZERO)
000474: 23,2754           36344                           STCALL   TFF                                   #  OTHERWISE COMPUTES TFF.       (GOTO)
000475: 23,2755           00051                                    S2
000476:
000477: 23,2756           51025        MAXCHK             DSU      BPL                                   #  IF C(MPAC) > 9999.9 NM, MPAC = 9999.9 NM
000478: 23,2757           06766                                    MAXNM
000479: 23,2760           46763                                    +3                                    #  OTHERWISE C(MPAC) = B(MPAC).
000480: 23,2761           43415                           DAD      RVQ
000481: 23,2762           06766                                    MAXNM
000482: 23,2763           43545                 +3        DLOAD    RVQ                                   #  (USED BY P30 - P37 ALSO)
000483: 23,2764           06766                                    MAXNM
000484:
000485: 23,2765           01065 05603  MAXNM              2OCT     0106505603

End of include-file R30.agc.  Parent file is MAIN.agc


