
Source Code


000002:                                                                                                  ## Copyright:   Public domain.
000003:                                                                                                  ## Filename:    RCS-CSM_DAP_EXECUTIVE_PROGRAMS.agc
000004:                                                                                                  ## Purpose:     A section of Comanche revision 067.
000005:                                                                                                  ##              It is part of the reconstructed source code for the flight
000006:                                                                                                  ##              software for the Command Module's (CM) Apollo Guidance Computer
000007:                                                                                                  ##              (AGC) for Apollo 12. No original listings of this program are
000008:                                                                                                  ##              available; instead, this file was created via dissassembly of
000009:                                                                                                  ##              dumps of Comanche 067 core rope modules and comparison with
000010:                                                                                                  ##              other AGC programs.
000011:                                                                                                  ## Assembler:   yaYUL
000012:                                                                                                  ## Contact:     Ron Burkey <info@sandroid.org>.
000013:                                                                                                  ## Website:     www.ibiblio.org/apollo/index.html
000014:                                                                                                  ## Mod history: 2023-08-16 MAS  Created from Comanche 055.
000015:
000016:                                                                                                  #  CALCULATION OF  AMGB, AMBG  ONCE EVERY SECOND
000017:
000018:                                                                                                  #        AMGB =  1       SIN(PSI)                0
000019:                                                                                                  #                0       COS(PSI)COS(PHI)        SIN(PHI)
000020:                                                                                                  #                0       -COS(PSI)SIN(PHI)       COS(PHI)
000021:
000022:                                                                                                  #        AMBG =  1       -TAN(PSI)COS(PHI)       TAN(PSI)SIN(PHI)
000023:                                                                                                  #                0       COS(PHI)/COS(PSI)       -SIN(PHI)/COS(PSI)
000024:                                                                                                  #                0       SIN(PHI)                COS(PHI)
000025:
000026:                                                                                                  #  WHERE PHI AND PSI ARE CDU ANGLES
000027:
000028: 20,3651                                           BANK     20
000029: 22,2000                                           SETLOC   DAPS8
000030: 22,2000                                           BANK
000031:
000032: 22,3447                                           COUNT*   $$/DAPEX
000033: 22,3447  E6,1510                                  EBANK=   KMPAC
000034: 22,3447           30102        AMBGUPDT           CA       FLAGWRD6                              #  CHECK FOR RCS AUTOPILOT
000035: 22,3450           00006                           EXTEND
000036: 22,3451           65233                           BZMF     ENDOFJOB                              #  BIT15 = 0, BIT14 = 1
000037: 22,3452           75016                           MASK     BIT14                                 #  IF NOT RCS, EXIT
000038: 22,3453           00006                           EXTEND
000039: 22,3454           15233                           BZF      ENDOFJOB                              #  TO PROTECT TVC DAP ON SWITCHOVER
000040:
000041: 22,3455           30034                           CA       CDUZ
000042: 22,3456           05111                           TC       SPSIN2
000043: 22,3457           55640                           TS       AMGB1                                 #  CALCULATE AMGB
000044: 22,3460           30034                           CA       CDUZ
000045: 22,3461           05110                           TC       SPCOS2
000046: 22,3462           55645                           TS       CAPSI                                 #  MUST CHECK FOR GIMBAL LOCK
000047: 22,3463           33507                           CAF      QUADANGL                              #  = 7.25  DEGREES JET QUAD ANGULAR OFFSET
000048: 22,3464           00006                           EXTEND
000049: 22,3465           20032                           MSU      CDUX
000050: 22,3466           40000                           COM                                            #  CDUX - 7.25 DEG
000051: 22,3467           05110                           TC       SPCOS1
000052: 22,3470           55644                           TS       AMGB8
000053: 22,3471           00006                           EXTEND
000054: 22,3472           71645                           MP       CAPSI
000055: 22,3473           55641                           TS       AMGB4
000056: 22,3474           33507                           CAF      QUADANGL
000057: 22,3475           00006                           EXTEND
000058: 22,3476           20032                           MSU      CDUX
000059: 22,3477           40000                           COM                                            #  CDUX - 7.25 DEG
000060: 22,3500           05111                           TC       SPSIN1
000061: 22,3501           55642                           TS       AMGB5
000062: 22,3502           00006                           EXTEND
000063: 22,3503           71645                           MP       CAPSI
000064: 22,3504           40000                           COM
000065: 22,3505           55643                           TS       AMGB7
000066: 22,3506           15233                           TCF      ENDOFJOB
000067: 22,3507           01224        QUADANGL           DEC      660        B-14                       #  = 7.25 DEGREES
000068:

End of include-file RCS-CSM_DAP_EXECUTIVE_PROGRAMS.agc.  Parent file is MAIN.agc


