
Source Code


000002:                                                                                                  ## Copyright:   Public domain.
000003:                                                                                                  ## Filename:    RCS-CSM_DIGITAL_AUTOPILOT.agc
000004:                                                                                                  ## Purpose:     A section of Comanche revision 067.
000005:                                                                                                  ##              It is part of the reconstructed source code for the flight
000006:                                                                                                  ##              software for the Command Module's (CM) Apollo Guidance Computer
000007:                                                                                                  ##              (AGC) for Apollo 12. No original listings of this program are
000008:                                                                                                  ##              available; instead, this file was created via dissassembly of
000009:                                                                                                  ##              dumps of Comanche 067 core rope modules and comparison with
000010:                                                                                                  ##              other AGC programs.
000011:                                                                                                  ## Assembler:   yaYUL
000012:                                                                                                  ## Contact:     Ron Burkey <info@sandroid.org>.
000013:                                                                                                  ## Website:     www.ibiblio.org/apollo/index.html
000014:                                                                                                  ## Mod history: 2023-08-16 MAS  Created from Comanche 055.
000015:
000016:                                                                                                  #  T5 INTERRUPT PROGRAM FOR THE RCS-CSM AUTOPILOT
000017:
000018:                                                                                                  #  START OF T5 INTERRUPT PROGRAM
000019:
000020: 20,3651                                           BANK     20
000021: 21,2000                                           SETLOC   DAPS3
000022: 21,2000                                           BANK
000023:
000024: 21,2117                                           COUNT    21/DAPRC
000025:
000026: 21,2117  E6,1510                                  EBANK=   KMPAC
000027: 21,2117           22016        REDORCS            LXCH     BANKRUPT                              #  RESTART OF AUTOPILOT COMES HERE
000028: 21,2120           31465                           CA       T5PHASE                               #  ON A T5 RUPT.
000029: 21,2121           00006                           EXTEND
000030: 21,2122           62124                           BZMF     +2                                    #  IF T5PHASE +0, -0, OR -, RESET TO -
000031: 21,2123           12126                           TCF      +3                                    #  IF T5PHASE +, LEAVE IT +.  DO A FRESHDAP
000032: 21,2124           45033                           CS       ONE
000033: 21,2125           55465                           TS       T5PHASE
000034: 21,2126           00006                           EXTEND
000035: 21,2127           32133                           DCA      RCSLOC
000036: 21,2130           53313                           DXCH     T5LOC                                 #  HOOK UP T5RUPT TO AUTOPILOT
000037: 21,2131           12135                           TCF      RCSATT     +1
000038: 21,2132  E6,1510                                  EBANK=   KMPAC
000039: 21,2132           02134 42066  RCSLOC             2CADR    RCSATT
000040:
000041: 21,2134           22016        RCSATT             LXCH     BANKRUPT                              #  SAVE BB
000042: 21,2135           00006                           EXTEND                                         #  SAVE Q
000043: 21,2136           22012                           QXCH     QRUPT
000044: 21,2137           35015                           CAF      BIT15                                 #  BIT15 CHAN31 = 0 IF IMU POWER IS ON AND
000045: 21,2140           00006                           EXTEND                                         #  S/C CONT SW IS IN CMC (I.E. IF G/C AUTO
000046: 21,2141           02031                           RAND     CHAN31                                #  PILOT IS FULLY ENABLED)
000047: 21,2142           00006                           EXTEND
000048: 21,2143           12172                           BZF      SETT5                                 #  IF G/C AUTOPILOT IS FULLY ENABLED,
000049:                                                                                                  #  GO TO SETT5
000050:
000051: 21,2144           41501                           CS       RCSFLAGS                              #  IF G/C AUTOPILOT IS NOT FULLY ENABLED,
000052: 21,2145           75016                           MASK     BIT14
000053: 21,2146           27501                           ADS      RCSFLAGS                              #  SET NORATE FLAG,
000054: 21,2147           35013                           CAF      POSMAX
000055: 21,2150           55332                           TS       HOLDFLAG                              #  SET HOLDFLAG +,
000056: 21,2151           35035                           CAF      ZERO                                  #  ZERO ERRORX, ERRORY, AND ERRORZ,
000057: 21,2152           55567                           TS       ERRORX
000058: 21,2153           55570                           TS       ERRORY
000059: 21,2154           55571                           TS       ERRORZ
000060: 21,2155           35016                           CAF      BIT14
000061: 21,2156           00006                           EXTEND
000062: 21,2157           02031                           RAND     CHAN31                                #  AND CHECK FREE FUNCTION (BIT14 CHAN31).
000063: 21,2160           00006                           EXTEND
000064: 21,2161           12172                           BZF      SETT5                                 #  IF IN FREE MODE, GO TO SETT5.
000065:
000066: 21,2162           55465                           TS       T5PHASE                               #  IF NOT IN FREE MODE,
000067: 21,2163           37676                           CAF      OCT37766                              #  SCHEDULE REINITIALIZATION (FRESHDAP)
000068: 21,2164           54030                           TS       TIME5                                 #  IN 100 MS VIA T5RUPT
000069:
000070: 21,2165           02644                           TCR      ZEROJET                               #  ZERO JET CHANNELS IN 14 MS VIA ZEROJET
000071:
000072: 21,2166           12362                           TCF      KMATRIX
000073: 21,2167           37770        DELTATT            OCT      37770                                 #  80MS (TIME5)
000074: 21,2170           37776        DELTATT2           OCT      37776                                 #  20MS (TIME5)
000075: 21,2171           37634        ONESEK             DEC      16284      B-14                       #  1 SEC(TIME5)
000076: 21,2172                        CHAN5              EQUALS   5
000077: 21,2172                        CHAN6              EQUALS   6
000078: 21,2172     7671               PRIO34A            =        PRIO34
000079:
000080:                                                                                                  #  CHECK PHASE OF T5 PROGRAM
000081:
000082:                                                                                                  #  BECAUSE OF THE LENGTH OF THE T5 PROGRAM,IT HAS BEEN DIVIDED INTO
000083:                                                                                                  #  THREE PARTS, T5PHASE1, T5PHASE2, AND THE JET SELECTION LOGIC,
000084:                                                                                                  #  TO ALLOW FOR THE EXECUTION OF OTHER
000085:                                                                                                  #  INTERRUPTS.  T5PHASE IS ALSO USED IN THE INITIALIZATION OF THE AUTOPILOT
000086:                                                                                                  #  VARIABLES AT TURN ON.
000087:
000088:                                                                                                  #  THE CODING OF T5PHASE IS...
000089:
000090:                                                                                                  #                + = INITIALIZE T5 RCS-CSM AUTOPILOT
000091:                                                                                                  #     T5PHASE = +0 = PHASE2 OF THE T5 PROGRAM
000092:                                                                                                  #                - = RESTART DAP
000093:                                                                                                  #               -0 = PHASE1 OF THE T5 PROGRAM
000094:
000095: 21,2172           11465        SETT5              CCS      T5PHASE
000096: 21,2173           12556                           TCF      FRESHDAP                              #  TURN ON AUTOPILOT
000097: 21,2174           12673                           TCF      T5PHASE2                              #  BRANCH TO PHASE2 OF PROGRAM
000098: 21,2175           12560                           TCF      REDAP                                 #  RESTART AUTOPILOT
000099:
000100: 21,2176           55465                           TS       T5PHASE                               #  PHASE 1  RESET  FOR PHASE 2
000101: 21,2177           30030                           CA       TIME5
000102: 21,2200           55634                           TS       T5TIME                                #  USED IN COMPENSATING FOR DELAYS IN T5
000103: 21,2201           32170                           CAF      DELTATT2                              #  RESET FOR T5RUPT IN 20MS FOR PHASE2
000104: 21,2202           54030                           TS       TIME5                                 #  OF PROGRAM
000105:
000106:                                                                                                  #  IMU STATUS CHECK
000107:
000108: 21,2203           41321                           CS       IMODES33                              #  CHECK IMU STATUS
000109: 21,2204           75026                           MASK     BIT6                                  #  BIT6 = 0 IMU OK
000110: 21,2205           10000                           CCS      A                                     #  BIT6 = 1 NO IMU
000111: 21,2206           12222                           TCF      RATEFILT
000112: 21,2207           41501        FREECHK            CS       RCSFLAGS                              #  BIT14 INDICATES THAT RATES HAVE NOT BEEN
000113: 21,2210           75016                           MASK     BIT14                                 #  INITIALIZED
000114: 21,2211           27501                           ADS      RCSFLAGS
000115: 21,2212           35016                           CAF      BIT14                                 #  NO ATTITUDE REFERENCE
000116: 21,2213           55332                           TS       HOLDFLAG                              #  STOP ANY AUTOMATIC STEERING AND PREPARE
000117:                                                                                                  #  TO PICK UP CDU ANGLES UPON RESUMPTION OF
000118:                                                                                                  #  ATTITUDE HOLD
000119: 21,2214           00006                           EXTEND
000120: 21,2215           02031                           RAND     CHAN31                                #  CHECK FOR FREE MODE
000121: 21,2216           00006                           EXTEND
000122: 21,2217           12431                           BZF      KRESUME1                              #  IN FREE MODE PROVIDE FREE CONTROL ONLY
000123: 21,2220           12546                           TCF      REINIT                                #  .....TILT...............................
000124: 21,2221           00030        BITS4,5            OCT      30
000125:
000126: 21,2222           31501        RATEFILT           CA       RCSFLAGS                              #  SEE IF RATEFILTER HAS BEEN INITIALIZED
000127: 21,2223           75016                           MASK     BIT14
000128: 21,2224           00006                           EXTEND                                         #  IF SO, PROCEED WITH RATE DERIVATION
000129: 21,2225           12227                           BZF      +2
000130: 21,2226           12362                           TCF      KMATRIX                               #  IF NOT, SKIP RATE DERIVATION
000131:
000132:                                                                                                  #        RATE FILTER     TIMING = 7.72 MS
000133:
000134:                                                                                                  #  RATE FILTER EQUATIONS
000135:
000136:
000137:                                                                                                  #  DRHO = DELRHO - (.1)ADOT + (1 - GAIN1)DRHO
000138:                                                                                                  #                                            -1
000139:
000140:                                                                                                  #  ADOT = ADOT   + GAIN2 DRHO + KMJ DFT
000141:                                                                                                  #             -1
000142:                                                                                                  #         -       *     -     -
000143:                                                                                                  #  WHERE DELRHO = AMGB (CDU - CDU  )
000144:                                                                                                  #                                -1
000145:
000146: 21,2227           35032                           CAF      TWO
000147: 21,2230           55506        DRHOLOOP           TS       SPNDX
000148: 21,2231           60000                           DOUBLE
000149: 21,2232           55507                           TS       DPNDX
000150: 21,2233           51507                           INDEX    DPNDX
000151: 21,2234           41552                           CS       DRHO                                  #  DRHO SCALED 180 DEGS
000152: 21,2235           00006                           EXTEND
000153: 21,2236           51617                           INDEX    ATTKALMN                              #  PICK UP DESIRED FILTER GAIN
000154: 21,2237           73111                           MP       GAIN1
000155: 21,2240           51507                           INDEX    DPNDX
000156: 21,2241           21553                           DAS      DRHO                                  #  (1 -.064) DRHO
000157: 21,2242           00006                           EXTEND
000158: 21,2243           51507                           INDEX    DPNDX
000159: 21,2244           41534                           DCS      ADOT
000160: 21,2245           53511                           DXCH     KMPAC                                 #  -(.1)ADOT
000161: 21,2246           35017                           CA       QUARTER
000162: 21,2247           02054                           TC       SMALLMP
000163: 21,2250           53511                           DXCH     KMPAC
000164: 21,2251           51507                           INDEX    DPNDX
000165: 21,2252           21553                           DAS      DRHO
000166: 21,2253           11506                           CCS      SPNDX
000167: 21,2254           12230                           TCF      DRHOLOOP
000168:
000169: 21,2255           30032                           CA       CDUX                                  #  MEASURED BODY RATES--
000170: 21,2256           57635                           XCH      RHO
000171: 21,2257           00006                           EXTEND
000172: 21,2260           21635                           MSU      RHO                                   #  -        *     -     -
000173: 21,2261           40000                           COM                                            #  DELRHO = AMGB (CDU - CDU  )
000174:                                                                                                  #                          -1
000175: 21,2262           22007                           ZL
000176: 21,2263           53516                           DXCH     DELTEMPX
000177: 21,2264           30033                           CA       CDUY
000178: 21,2265           57636                           XCH      RHO1
000179: 21,2266           00006                           EXTEND
000180: 21,2267           21636                           MSU      RHO1
000181: 21,2270           40000                           COM
000182: 21,2271           55502                           TS       T5TEMP                                #  (CDUY - RHO1)    SCALED 90 DEGS
000183: 21,2272           00006                           EXTEND
000184: 21,2273           71640                           MP       AMGB1
000185: 21,2274           21516                           DAS      DELTEMPX                              #  DELTEMPX = (CDUX-RHO) + AMGB1(CDUY-RHO1)
000186:                                                                                                  #  MUST BE DOUBLE PRECISION OR WILL LOSE
000187:                                                                                                  #  PULSES
000188: 21,2275           31641                           CA       AMGB4
000189: 21,2276           00006                           EXTEND
000190: 21,2277           71502                           MP       T5TEMP
000191: 21,2300           53520                           DXCH     DELTEMPY
000192: 21,2301           31643                           CA       AMGB7
000193: 21,2302           00006                           EXTEND
000194: 21,2303           71502                           MP       T5TEMP
000195: 21,2304           53522                           DXCH     DELTEMPZ
000196: 21,2305           30034                           CA       CDUZ
000197: 21,2306           57637                           XCH      RHO2
000198: 21,2307           00006                           EXTEND
000199: 21,2310           21637                           MSU      RHO2
000200: 21,2311           40000                           COM
000201: 21,2312           55502                           TS       T5TEMP                                #  (CDUZ - RHO2)    SCALED 90 DEGS
000202: 21,2313           00006                           EXTEND
000203: 21,2314           71642                           MP       AMGB5
000204: 21,2315           21520                           DAS      DELTEMPY                              #  DELTEMPY = AMGB4(CDUY-RHO1)
000205:                                                                                                  #                   + AMGB5(CDUZ-RHO2)
000206: 21,2316           31644                           CA       AMGB8
000207: 21,2317           00006                           EXTEND
000208:
000209: 21,2320           71502                           MP       T5TEMP
000210: 21,2321           21522                           DAS      DELTEMPZ                              #  DELTEMPZ = AMGB7(CDUY-RHO1)
000211:                                                                                                  #                  + AMGB8(CDUZ-RHO2)
000212: 21,2322           35032                           CAF      TWO
000213: 21,2323           55506        ADOTLOOP           TS       SPNDX
000214: 21,2324           60000                           DOUBLE
000215: 21,2325           55507                           TS       DPNDX
000216: 21,2326           00006                           EXTEND
000217: 21,2327           51507                           INDEX    DPNDX
000218: 21,2330           31516                           DCA      DELTEMPX
000219: 21,2331           51507                           INDEX    DPNDX
000220: 21,2332           21553                           DAS      DRHO
000221: 21,2333           00006                           EXTEND
000222: 21,2334           51507                           INDEX    DPNDX
000223: 21,2335           31516                           DCA      DELTEMPX
000224: 21,2336           51507                           INDEX    DPNDX
000225: 21,2337           21542                           DAS      MERRORX
000226: 21,2340           51507                           INDEX    DPNDX
000227: 21,2341           31552                           CA       DRHO
000228: 21,2342           60000                           DOUBLE                                         #  N.B.
000229: 21,2343           60000                           DOUBLE                                         #  N.B.
000230: 21,2344           00006                           EXTEND
000231: 21,2345           51617                           INDEX    ATTKALMN                              #  PICK UP DESIRED FILTER GAINS
000232: 21,2346           73127                           MP       GAIN2
000233: 21,2347           51507                           INDEX    DPNDX                                 #  ADOT   + (.16)(.1)DRHO
000234: 21,2350           21534                           DAS      ADOT                                  #      -1
000235: 21,2351           51506                           INDEX    SPNDX                                 #  S/C TORQUE TO INERTIA RATIO
000236: 21,2352           31620                           CA       KMJ                                   #  SCALED (450)(1600)/(57.3)(16384)=1/1.3
000237: 21,2353           00006                           EXTEND
000238: 21,2354           51506                           INDEX    SPNDX
000239: 21,2355           71547                           MP       DFT
000240: 21,2356           51507                           INDEX    DPNDX
000241: 21,2357           21534                           DAS      ADOT                                  #  KMJ(DFT)
000242: 21,2360           11506                           CCS      SPNDX
000243: 21,2361           12323                           TCF      ADOTLOOP                              #  END CALCULATION OF VEHICLE RATES
000244: 21,2362           31560        KMATRIX            CA       ATTSEC
000245: 21,2363           75042                           MASK     LOW4
000246: 21,2364           10000                           CCS      A
000247: 21,2365           12373                           TCF      TENTHSEK
000248: 21,2366           37671                           CAF      PRIO34                                #  CALL FOR 1 SEC UPDATE OF TRANSFORMATION
000249: 21,2367           05150                           TC       NOVAC                                 #  MATRIX FROM GIMBAL AXES TO BODY AXES
000250: 21,2370  E6,1510                                  EBANK=   KMPAC
000251: 21,2370           03447 44066                     2CADR    AMBGUPDT
000252:
000253: 21,2372           34334                           CAF      NINE
000254:
000255: 21,2373           55560        TENTHSEK           TS       ATTSEC
000256:
000257:                                                                                                  #  WHEN AUTOMATIC MANEUVERS ARE BEING PERFORMED, THE FOLLOWING ANGLE ADDITION MUST BE MADE TO PROVIDE A SMOOTH
000258:                                                                                                  #  SEQUENCE OF ANGULAR COMMANDS TO THE AUTOPILOT--
000259:
000260:                                                                                                  #        CDUXD = CDUXD + DELCDUX         (DOUBLE PRECISION)
000261:                                                                                                  #        CDUYD = CDUYD + DELCDUY         (DOUBLE PRECISION)
000262:                                                                                                  #        CDUZD = CDUZD + DELCDUZ         (DOUBLE PRECISION)
000263:
000264:                                                                                                  #  THE STEERING PROGRAMS-
000265:                                                                                                  #        1) ATTITUDE MANEUVER ROUTINE
000266:                                                                                                  #        2) LEM TRACKING
000267:
000268:                                                                                                  #  SHOULD GENERATE THE DESIRED ANGLES (CDUXD, CDUYD, CDUZD) AS WELL AS THE INCREMENTAL ANGLES (DELCDUX, DELCDUY,
000269:                                                                                                  #  DELCDUZ) SO THAT THE GIMBAL ANGLE COMMANDS CAN BE INTERPOLATED BETWEEN UPDATES.
000270:
000271:                                                                                                  #  HOLDFLAG CODING-
000272:
000273:                                                                                                  #        + = GRAB PRESENT CDU ANGLES AND STORE IN THETADX, THETADY, THETADZ
000274:                                                                                                  #            AND PERFORM ATTITUDE HOLD ABOUT THESE ANGLES
000275:                                                                                                  #            ALSO IGNORE AUTOMATIC STEERING
000276:                                                                                                  #            SET = + BY
000277:                                                                                                  #                1) INITIALIZATION PHASE OF AUTOPILOT
000278:                                                                                                  #                2) OCCURANCE OF RHC COMMANDS
000279:                                                                                                  #                3) FREE MODE
000280:                                                                                                  #                4) SWITCH OVER TO ATTITUDE HOLD FROM AUTO
000281:                                                                                                  #                   WHILE DOING AUTOMATIC STEERING (IN THIS CASE
000282:                                                                                                  #                   HOLDFLAG IS NOT ACTUALLY SET TO +, BUT THE LOGIC
000283:                                                                                                  #                   FUNCTIONS AS IF IT WERE.)
000284:                                                                                                  #                5) S/C CONTROL SWITCH IN SCS
000285:                                                                                                  #                6) IMU POWER OFF
000286:                                                                                                  #       +0 = IN ATTITUDE HOLD ABOUT A PREVIOUSLY ESTABLISHED REFERENCE
000287:                                                                                                  #        - = PERFORMING AUTOMATIC MANEUVER
000288:                                                                                                  #       -0 = NOT USED AT PRESENT
000289:
000290:                                                                                                  #  NOTE THAT THIS FLAG MUST BE SET = - BY THE STEERING PROGRAM IF IT IS TO COMMAND THE AUTOPILOT.
000291:                                                                                                  #  SINCE ASTRONAUT ACTION MAY CHANGE THE HOLDFLAG SETTING, IT SHOULD BE MONITORED BY THE STEERING PROGRAM TO
000292:                                                                                                  #  DETERMINE IF THE AUTOMATIC SEQUENCE HAS BEEN INTERRUPTED AND IF SO, TAKE APPROPRIATE ACTION.
000293:
000294: 21,2374           41332                           CS       HOLDFLAG
000295: 21,2375           00006                           EXTEND
000296: 21,2376           62423                           BZMF     DACNDLS                               #  IF HOLDFLAG +0,-0,+, BYPASS AUTOMATIC
000297:                                                                                                  #  COMMANDS
000298: 21,2377           35032        DCDUINCR           CAF      TWO
000299: 21,2400           55506        DELOOP             TS       SPNDX
000300: 21,2401           60000                           DOUBLE
000301: 21,2402           55507                           TS       DPNDX
000302: 21,2403           00006                           EXTEND
000303: 21,2404           50000                           INDEX    A
000304: 21,2405           31647                           DCA      CDUXD
000305: 21,2406           53511                           DXCH     KMPAC
000306: 21,2407           00006                           EXTEND
000307: 21,2410           51507                           INDEX    DPNDX
000308: 21,2411           31576                           DCA      DELCDUX
000309: 21,2412           02066                           TC       DPADD
000310: 21,2413           00006                           EXTEND
000311: 21,2414           31511                           DCA      KMPAC
000312: 21,2415           51506                           INDEX    SPNDX
000313: 21,2416           55572                           TS       THETADX
000314: 21,2417           51507                           INDEX    DPNDX
000315: 21,2420           53647                           DXCH     CDUXD
000316: 21,2421           11506                           CCS      SPNDX
000317: 21,2422           12400                           TCF      DELOOP
000318:
000319:                                                                                                  #  RCS-CSM AUTOPILOT ATTITUDE ERROR DISPLAY
000320:
000321:                                                                                                  #  THREE TYPES OF ATTITUDE ERRORS MAY BE DISPLAYED ON THE FDAI-
000322:
000323:                                                                                                  #        MODE 1) AUTOPILOT FOLLOWING ERRORS              SELECTED BY V61E
000324:                                                                                                  #                GENERATED INTERNALLY BY THE AUTOPILOT
000325:
000326:                                                                                                  #        MODE 2) TOTAL ATTITUDE ERRORS                   SELECTED BY V62E
000327:                                                                                                  #                WITH RESPECT TO THE CONTENTS OF N22
000328:
000329:                                                                                                  #        MODE 3) TOTAL ASTRONAUT ATTITUDE ERRORS         SELECTED BY V63E
000330:                                                                                                  #                WITH RESPECT TO THE CONTENTS OF N17
000331:
000332:                                                                                                  #  MODE 1 IS PROVIDED AS A MONITOR OF THE RCS DAP AND ITS ABILITY TO TRACK AUTOMATIC STEERING COMMANDS.  IN THIS
000333:                                                                                                  #  MODE THE ATTITUDE ERRORS WILL BE ZEROED WHEN THE CMC MODE SWITCH IS IN FREE
000334:
000335:                                                                                                  #  MODE 2 IS PROVIDED TO ASSIST THE CREW IN MANUALLY MANEUVERING THE S/C TO THE ATTITUDE (GIMBAL ANGLES) SPECIFIED
000336:                                                                                                  #  IN N22.  THE ATTITUDE ERRORS WRT THESE ANGLES AND THE CURRENT CDU ANGLES ARE RESOLVED INTO S/C CONTROL AXES
000337:                                                                                                  #  AS A FLY-TO INDICATOR.
000338:
000339:                                                                                                  #  MODE 3 IS PROVIDED TO ASSIST THE CREW IN MANUALLY MANEUVERING THE S/C TO THE ATTITUDE (GIMBAL ANGLES) SPECIFIED
000340:                                                                                                  #  IN N17.  THE ATTITUDE ERRORS WRT THESE ANGLES AND THE CURRENT CDU ANGLES ARE RESOLVED INTO S/C CONTROL AXES
000341:                                                                                                  #  AS A FLY-TO INDICATOR.
000342:
000343:                                                                                                  #  V60 IS PROVIDED TO LOAD N17 WITH A SNAPSHOT OF THE CURRENT CDU ANGLES, THUS SYNCHRONIZING THE MODE 3 DISPLAY
000344:                                                                                                  #  WITH THE CURRENT S/C ATTITUDE.  THIS VERB MAY BE USED AT ANY TIME.
000345:
000346:                                                                                                  #  THESE DISPLAYS WILL BE AVAILIABLE IN ANY MODE (AUTO, HOLD, FREE, G+N, OR SCS) ONCE THE RCS DAP HAS BEEN
000347:                                                                                                  #  INITIATED VIA V46E.  MODE 1, HOWEVER, WILL BE MEANINGFUL ONLY IN G+N AUTO OR HOLD.  THE CREW MAY PRESET (VIA
000348:                                                                                                  #  V25N17) AN ATTITUDE REFERENCE (DESIRED GIMBAL ANGLES) INTO N17 AT ANY TIME.
000349:
000350: 21,2423           41501        DACNDLS            CS       RCSFLAGS                              #  ALTERNATE BETWEEN FDAIDSP1 AND FDAIDSP2
000351: 21,2424           75030                           MASK     BIT4
000352: 21,2425           00006                           EXTEND
000353: 21,2426           13172                           BZF      FDAIDSP2
000354:
000355: 21,2427           27501        FDAIDSP1           ADS      RCSFLAGS
000356: 21,2430           02432                           TC       NEEDLER
000357: 21,2431           15347        KRESUME1           TCF      RESUME                                #  END PHASE 1
000358:
000359:                                                                                                  #  FDAI ATTITUDE ERROR DISPLAY SUBROUTINE
000360:
000361:                                                                                                  #  PROGRAM DESCRIPTION:  D. KEENE  5/24/67
000362:
000363:                                                                                                  #  THIS SUBROUTINE IS USED TO DISPLAY ATTITUDE ERRORS ON THE FDAI VIA THE DIGITAL TO ANALOG CONVERTERS (DACS)
000364:                                                                                                  #  IN THE CDUS.  CARE IS TAKEN TO METER OUT THE APPROPRIATE NUMBER OF PULSES TO THE IMU ERROR COUNTERS AND PREVENT
000365:                                                                                                  #  OVERFLOW, TO CONTROL THE RELAY SEQUENCING, AND TO AVOID INTERFERENCE WITH THE COARSE ALIGN LOOP WHICH ALSO USES
000366:                                                                                                  #  THE DACS.
000367:
000368:                                                                                                  #  CALLING SEQUENCE:
000369:
000370:                                                                                                  #  DURING THE INITIALIZATION SECTION OF THE USER'S PROGRAM, BIT3 OF RCSFLAGS SHOULD BE SET TO INITIATE THE
000371:                                                                                                  #  TURN-ON SEQUENCE WITHIN THE NEEDLES PROGRAM:
000372:
000373:                                                                                                  #                CS      RCSFLAGS        IN EBANK6
000374:                                                                                                  #                MASK    BIT3
000375:                                                                                                  #                ADS     RCSFLAGS
000376:
000377:                                                                                                  #  THEREAFTER, THE ATTITUDE ERRORS GENERATED BY THE USER SHOULD BE TRANSFERED TO THE FOLLOWING LOCATIONS IN EBANK6:
000378:
000379:                                                                                                  #                AK      SCALED 180 DEGREES      NOTE:   THESE LOCATIONS ARE SUBJECT
000380:                                                                                                  #                AK1     SCALED 180 DEGREES              TO CHANGE
000381:                                                                                                  #                AK2     SCALED 180 DEGREES
000382:
000383:                                                                                                  #  FULL SCALED DEFLECTION CORRESPONDS TO 16 7/8 DEGREES OF ATTITUDE ERROR
000384:                                                                                                  #                (= 384 BITS IN IMU ERROR COUNTER)
000385:
000386:                                                                                                  #  A CALL TO NEEDLER WILL THEN UPDATE THE DISPLAY:
000387:
000388:                                                                                                  #                INHINT
000389:                                                                                                  #                TC      IBNKCALL        NOTE: EBANK SHOULD BE SET TO E6
000390:                                                                                                  #                CADR    NEEDLER
000391:                                                                                                  #                RELINT
000392:
000393:                                                                                                  #  THIS PROCESS SHOULD BE REPEATED EACH TIME THE ERRORS ARE UPDATED.  AT LEAST 3 PASSES THRU THE PROGRAM ARE
000394:                                                                                                  #  REQUIRED BEFORE ANYTHING IS ACTUALLY DISPLAYED ON THE ERROR METERS.
000395:                                                                                                  #  NOTE:  EACH CALL TO NEEDLER MUST BE SEPARATED BY AT LEAST 50MS TO ASSURE PROPER RELAY SEQUENCING.
000396:
000397:                                                                                                  #  ERASABLE USED:
000398:                                                                                                  #                AK              CDUXCMD
000399:                                                                                                  #                AK1             CDUYCMD
000400:                                                                                                  #                AK2             CDUZCMD
000401:                                                                                                  #                EDRIVEX         A,L,Q
000402:                                                                                                  #                EDRIVEY         T5TEMP
000403:                                                                                                  #                EDRIVEZ         SPNDX
000404:
000405:                                                                                                  #  SWITCHES:     RCSFLAGS        BITS 3,2
000406:
000407:                                                                                                  #  I/O CHANNELS: CHAN12          BIT 4            (COARSE ALIGN - READ ONLY)
000408:                                                                                                  #                CHAN12          BIT 6           (IMU ERROR COUNTER ENABLE)
000409:                                                                                                  #                CHAN14          BIT 13,14,15    (DAC ACTIVITY)
000410:
000411:                                                                                                  #  SIGN CONVENTION<      AK = THETAC - THETA
000412:                                                                                                  #                WHERE   THETAC = COMMAND ANGLE
000413:                                                                                                  #                        THETA = PRESENT ANGLE
000414:
000415: 21,2432           35030        NEEDLER            CAF      BIT4                                  #  CHECK FOR COARSE ALIGN ENABLE
000416: 21,2433           00006                           EXTEND                                         #  IF IN COARSE ALIGN DO NOT USE IMU
000417: 21,2434           02012                           RAND     CHAN12                                #  ERROR COUNTERS.  DONT USE NEEDLES
000418: 21,2435           00006                           EXTEND
000419: 21,2436           12443                           BZF      NEEDLER1
000420: 21,2437           41501                           CS       RCSFLAGS                              #  SET BIT3 FOR INITIALIZATION PASS
000421: 21,2440           75031                           MASK     BIT3
000422: 21,2441           27501                           ADS      RCSFLAGS
000423: 21,2442           00002                           TC       Q
000424:
000425: 21,2443           31501        NEEDLER1           CA       RCSFLAGS
000426: 21,2444           76211                           MASK     SIX
000427: 21,2445           00006                           EXTEND
000428: 21,2446           12503                           BZF      NEEDLES3
000429: 21,2447           75031                           MASK     BIT3
000430: 21,2450           00006                           EXTEND
000431: 21,2451           12474                           BZF      NEEDLER2                              #  BIT3 = 0, BIT2 = 1
000432:
000433: 21,2452           45026                           CS       BIT6                                  #  FIRST PASS BIT3 = 1
000434: 21,2453           00006                           EXTEND                                         #  DISABLE IMU ERROR COUNTER TO ZERO DACS
000435: 21,2454           03012                           WAND     CHAN12                                #  MUST WAIT AT LEAST 60 MS BEFORE
000436: 21,2455           45035        NEEDLE11           CS       ZERO                                  #  ENABLING COUNTERS.
000437: 21,2456           55476                           TS       AK                                    #  ZERO THE INPUTS ON FIRST PASS
000438: 21,2457           55477                           TS       AK1
000439: 21,2460           55500                           TS       AK2
000440: 21,2461           55503                           TS       EDRIVEX                               #  ZERO THE DISPLAY REGISTERS
000441: 21,2462           55504                           TS       EDRIVEY
000442: 21,2463           55505                           TS       EDRIVEZ
000443: 21,2464           54050                           TS       CDUXCMD                               #  ZERO THE OUT COUNTERS
000444: 21,2465           54051                           TS       CDUYCMD
000445: 21,2466           54052                           TS       CDUZCMD
000446: 21,2467           46211                           CS       SIX                                   #  RESET RCSFLAGS FOR PASS2
000447: 21,2470           71501                           MASK     RCSFLAGS
000448: 21,2471           65032                           AD       BIT2
000449: 21,2472           55501                           TS       RCSFLAGS
000450: 21,2473           00002                           TC       Q                                     #  END PASS1
000451:
000452: 21,2474           35026        NEEDLER2           CAF      BIT6                                  #  ENABLE IMU ERROR COUNTERS
000453: 21,2475           00006                           EXTEND
000454: 21,2476           05012                           WOR      CHAN12
000455: 21,2477           46211                           CS       SIX                                   #  RESET RCSFLAGS TO DISPLAY ATTITUDE
000456: 21,2500           71501                           MASK     RCSFLAGS                              #  ERRORS    WAIT AT LEAST 4 MS FOR
000457: 21,2501           55501                           TS       RCSFLAGS                              #  RELAY CLOSURE
000458: 21,2502           00002                           TC       Q
000459:
000460: 21,2503           35026        NEEDLES3           CAF      BIT6                                  #  CHECK TO SEE IF IMU ERROR COUNTER
000461: 21,2504           00006                           EXTEND                                         #  IS ENABLED
000462: 21,2505           02012                           RAND     CHAN12
000463: 21,2506           00006                           EXTEND                                         #  IF NOT RECYCLE NEEDLES
000464: 21,2507           12437                           BZF      NEEDLER    +5
000465:
000466: 21,2510           35032        NEEDLES            CAF      TWO
000467: 21,2511           55506        DACLOOP            TS       SPNDX
000468: 21,2512           45017                           CS       QUARTER
000469: 21,2513           00006                           EXTEND
000470: 21,2514           51506                           INDEX    SPNDX
000471: 21,2515           71476                           MP       AK
000472: 21,2516           54001                           TS       L
000473: 21,2517           10000                           CCS      A
000474: 21,2520           32554                           CA       DACLIMIT
000475: 21,2521           12523                           TCF      +2
000476: 21,2522           42554                           CS       DACLIMIT
000477: 21,2523           60001                           AD       L
000478: 21,2524           55502                           TS       T5TEMP                                #  OVFLO CHK
000479: 21,2525           12531                           TCF      +4
000480: 21,2526           50000                           INDEX    A                                     #  ON OVERFLOW LIMIT OUTPUT TO +-384
000481: 21,2527           32554                           CAF      DACLIMIT
000482: 21,2530           54001                           TS       L
000483: 21,2531           51506                           INDEX    SPNDX
000484: 21,2532           41503                           CS       EDRIVEX                               #  CURRENT VALUE OF DAC
000485: 21,2533           60001                           AD       L
000486: 21,2534           51506                           INDEX    SPNDX
000487: 21,2535           26050                           ADS      CDUXCMD
000488: 21,2536           51506                           INDEX    SPNDX
000489: 21,2537           23503                           LXCH     EDRIVEX
000490: 21,2540           11506                           CCS      SPNDX
000491: 21,2541           12511                           TCF      DACLOOP
000492: 21,2542           37707                           CAF      13,14,15
000493: 21,2543           00006                           EXTEND
000494: 21,2544           05014                           WOR      CHAN14                                #  SET DAC ACTIVITY BITS
000495: 21,2545           00002                           TC       Q
000496:
000497: 21,2546           32552        REINIT             CAF      DELAY200                              #  ........TILT LOGIC
000498: 21,2547           54030                           TS       TIME5                                 #  REINITIALIZE DAP IN 200MS
000499: 21,2550           55465                           TS       T5PHASE
000500: 21,2551           15347                           TCF      RESUME
000501: 21,2552           37754        DELAY200           DEC      16364      B-14                       #  200MS
000502:
000503: 21,2553           77177                           DEC      -384       B-14
000504:
000505: 21,2554           37200        DACLIMIT           DEC      16000      B-14
000506: 21,2555           00600                           DEC      384        B-14
000507:
000508:                                                                                                  #  INITIALIZATION PROGRAM FOR RCS-CSM AUTOPILOT
000509:
000510:                                                                                                  #  THE FOLLOWING QUANTITIES WILL BE ZEROED AND SHOULD APPEAR IN CONSECUTIVE LOCATIONS IN MEMORY AFTER WBODY
000511:
000512:                                                                                                  #        WBODY   (+1)            DFT                     TAU2
000513:                                                                                                  #        WBODY1  (+1)            DFT1                    BIAS
000514:                                                                                                  #        WBODY2  (+1)            DFT2                    BIAS1
000515:                                                                                                  #        ADOT    (+1)            DRHO    (+1)            BIAS2
000516:                                                                                                  #        ADOT1   (+1)            DRHO1   (+1)            ERRORX
000517:                                                                                                  #        ADOT2   (+1)            DRHO2   (+1)            ERRORY
000518:                                                                                                  #        MERRORX (+1)            ATTSEC                  ERRORZ
000519:                                                                                                  #        MERRORY (+1)            TAU
000520:                                                                                                  #        MERRORZ (+1)            TAU1
000521:
000522: 21,2556           35033        FRESHDAP           CAF      ONE                                   #  RESET HOLDFLAG TO STOP AUTOMATIC
000523: 21,2557           55332                           TS       HOLDFLAG                              #  STEERING AND PREPARE TO PICK UP AN
000524:                                                                                                  #  ATTITUDE HOLD REFERENCE
000525:
000526: 21,2560           04754        REDAP              TC       IBNKCALL                              #  DECODE DAPDATR1, DAPDATR2 FOR DEADBANDS
000527: 21,2561           40366                           CADR     S41.2                                 #  RATES, QUADFAILS, QUAD MANAGEMENT
000528:
000529: 21,2562           04754                           TC       IBNKCALL                              #  DECODE IXX, IAVG AND CONVERT
000530: 21,2563           40517                           CADR     S40.14                                #  TO AUTOPILOT GAINS
000531:
000532: 21,2564           32635                           CAF      NO.T5VAR                              #  NO. LOCATIONS TO BE ZEROED MINUS ONE
000533: 21,2565           55506        ZEROT5             TS       SPNDX                                 #  ZERO ALL NECESSARY ERASABLE REGISTERS
000534: 21,2566           35035                           CAF      ZERO
000535: 21,2567           51506                           INDEX    SPNDX
000536: 21,2570           55525                           TS       WBODY
000537: 21,2571           11506                           CCS      SPNDX
000538: 21,2572           12565                           TCF      ZEROT5
000539: 21,2573           02644                           TCR      ZEROJET
000540:
000541: 21,2574           45035                           CS       ZERO
000542: 21,2575           55633                           TS       CHANTEMP                              #  INITIALIZE MINIMUM IMPULSE CONTROL
000543:
000544: 21,2576           55632                           TS       CH31TEMP                              #  INITIALIZE RHC POSITION MEMORY FOR
000545:                                                                                                  #  MANUAL RATE MODES
000546:
000547: 21,2577           32636                           CAF      =.24
000548: 21,2600           55654                           TS       SLOPE                                 #  INITIALIZE SWITCHING LOGIC SLOPE
000549:
000550: 21,2601           35031                           CAF      FOUR
000551: 21,2602           55634                           TS       T5TIME                                #  PHASE 0 RESETS FOR PHASE 2 INTERRUPT IN
000552:                                                                                                  #  60 MS.  PHASE 2 RESETS FOR PHASE 1 RUPT
000553:                                                                                                  #  IN (80MS - T5TIME(40MS)).  THEREFORE
000554:                                                                                                  #  PHASE 1 (RATEFILTER) BEGINS CYCLING 100
000555:                                                                                                  #  MS FROM NOW AND EVERY 100MS THEREAFTER
000556:
000557: 21,2603           35040                           CAF      ELEVEN
000558: 21,2604           55617                           TS       ATTKALMN                              #  RESET TO PICK UP KALMAN FILTER GAINS
000559:                                                                                                  #  TO INITIALIZE THE S/C ANGULAR RATES
000560: 21,2605           30032                           CA       CDUX
000561: 21,2606           55635                           TS       RHO
000562: 21,2607           30033                           CA       CDUY
000563: 21,2610           55636                           TS       RHO1
000564: 21,2611           30034                           CA       CDUZ
000565: 21,2612           55637                           TS       RHO2
000566: 21,2613           35035                           CAF      ZERO                                  #  RESET AUTOPILOT TO BEGIN EXECUTING
000567: 21,2614           55465                           TS       T5PHASE                               #  PHASE2 OF PROGRAM
000568:
000569: 21,2615           41321                           CS       IMODES33                              #  CHECK IMU STATUS
000570: 21,2616           75026                           MASK     BIT6                                  #  IF BIT6 = 0 IMU IN FINE ALIGN
000571: 21,2617           10000                           CCS      A                                     #  IF BIT6 = 1 IMU NOT READY
000572: 21,2620           12624                           TCF      IMUAOK
000573: 21,2621           55617                           TS       ATTKALMN                              #  CANNOT USE IMU
000574: 21,2622           32640                           CAF      RCSINITB                              #  PROVIDE FREE CONTROL ONLY
000575: 21,2623           12631                           TCF      RCSSWIT                               #  DONT START UP RATE FILTER
000576:                                                                                                  #  SIGNAL NO RATE FILTER
000577:
000578: 21,2624           37671        IMUAOK             CAF      PRIO34                                #  START MATRIX INITIALIZATION
000579: 21,2625           05150                           TC       NOVAC                                 #  BYPASS IF IMU NOT IN FINE ALIGN
000580: 21,2626  E6,1510                                  EBANK=   KMPAC
000581: 21,2626           03447 44066                     2CADR    AMBGUPDT
000582:
000583: 21,2630           32637                           CAF      RCSINIT                               #  CLEAR BIT14 -ASSUME WE HAVE A GOOD IMU
000584: 21,2631           55501        RCSSWIT            TS       RCSFLAGS                              #  CLEAR BIT1  -INITIALIZE T6 PROGRAM
000585:                                                                                                  #    SET BIT3  -INITIALIZE NEEDLES
000586:                                                                                                  #  CLEAR BIT4  -RESET FOR FDAIDSP1
000587: 21,2632           32641                           CAF      T5WAIT60                              #  NEXT T5RUPT 60 MS FROM NOW TO ALLOW IMU
000588:                                                                                                  #  ERROR COUNTER TO ZERO.
000589:                                                                                                  #  (MINIMUM DELAY = 15 MS)
000590: 21,2633           54030                           TS       TIME5                                 #  SINCE ATTKALMN IS +11, PROGRAM WILL THEN
000591: 21,2634           05347                           TC       RESUME                                #  PICK UP THE KALMAN FILTER GAINS.  RATE
000592:                                                                                                  #  FILTER WILL BEGIN OPERATING ZOOMS FROM
000593:                                                                                                  #  NOW
000594:
000595:                                                                                                  #  CONSTANTS USED IN INITIALIZATION PROGRAM
000596:
000597: 21,2635           00044        NO.T5VAR           DEC      36         B-14
000598: 21,2636           07534        =.24               DEC      .24                                   #  = SLOPE OF 0.6/SEC
000599: 21,2637           00004        RCSINIT            OCT      00004
000600: 21,2640           20004        RCSINITB           OCT      20004
000601: 21,2641           37772        T5WAIT60           DEC      16378      B-14                       #  = 6 CS
000602: 21,2642  E6,1510                                  EBANK=   KMPAC
000603: 21,2642           03655 36066  T6ADDR             2CADR    T6START
000604:
000605: 21,2644           35040        ZEROJET            CAF      ELEVEN                                #  ZERO BLAST2, BLAST1, BLAST, YWORD2,
000606: 21,2645           55506                           TS       SPNDX                                 #  YWORD1, PWORD2, PWORD1, RWORD2,
000607: 21,2646           35035                           CAF      ZERO                                  #  AND RWORD1.
000608:
000609: 21,2647           51506                           INDEX    SPNDX
000610: 21,2650           55451                           TS       RWORD1
000611: 21,2651           11506                           CCS      SPNDX
000612: 21,2652           12645                           TCF      ZEROJET    +1
000613:
000614: 21,2653           35031                           CAF      FOUR
000615: 21,2654           55462                           TS       BLAST1     +1
000616: 21,2655           35040                           CAF      ELEVEN
000617: 21,2656           55464                           TS       BLAST2     +1
000618:
000619: 21,2657           45033                           CS       BIT1
000620: 21,2660           71501                           MASK     RCSFLAGS
000621: 21,2661           55501                           TS       RCSFLAGS                              #  RESET BIT1 OF RCSFLAGS TO 0
000622:
000623: 21,2662           00006                           EXTEND
000624: 21,2663           32643                           DCA      T6ADDR
000625: 21,2664           53311                           DXCH     T6LOC
000626: 21,2665           33062                           CAF      =+14MS                                #  ENABLE T6RUPT TO SHUT OFF JETS IN 14 MS.
000627: 21,2666           54031                           TS       TIME6
000628: 21,2667           35015                           CAF      BIT15
000629: 21,2670           00006                           EXTEND
000630: 21,2671           05013                           WOR      CHAN13
000631:
000632: 21,2672           00002                           TC       Q
000633:
000634: 21,2673           11617        T5PHASE2           CCS      ATTKALMN                              #  IF (+) INITIALIZE RATE ESTIMATE
000635: 21,2674           13160                           TCF      KALUPDT
000636:
000637: 21,2675           12677                           TCF      +2                                    #  ONLY IF ATTKALMN POSITIVE
000638: 21,2676           12677                           TCF      +1
000639: 21,2677           32170                           CA       DELTATT2                              #  RESET FOR PHASE3 IN 20 MS
000640: 21,2700           56030                           XCH      TIME5                                 #  (JET SELECTION LOGIC)
000641: 21,2701           27634                           ADS      T5TIME                                #  TO COMPENSATE FOR DELAYS IN T5RUPT
000642:
000643: 21,2702           31501                           CA       RCSFLAGS                              #  IF A HIGH RATE AUTO MANEUVER IS IN
000644: 21,2703           75015                           MASK     BIT15                                 #  PROGRESS (BIT 15 OF RCSFLAGS SET), SET
000645: 21,2704           00006                           EXTEND                                         #  ATTKALMN TO -1
000646: 21,2705           12707                           BZF      NOHIAUTO                              #  OTHERWISE SET ATTKALMN TO 0.
000647: 21,2706           45033                           CS       ONE
000648: 21,2707           55617        NOHIAUTO           TS       ATTKALMN
000649:
000650:                                                                                                  #  MANUAL ROTATION COMMANDS
000651:
000652: 21,2710           43044                           CS       OCT01760                              #  RESET FORCED FIRING BITS (BITS 10 TO 5
000653: 21,2711           71501                           MASK     RCSFLAGS                              #  OF RCSFLAGS) TO ZERO
000654: 21,2712           55501                           TS       RCSFLAGS
000655:
000656: 21,2713           00006                           EXTEND
000657: 21,2714           00031                           READ     CHAN31
000658: 21,2715           54001                           TS       L
000659: 21,2716           31632                           CA       CH31TEMP
000660: 21,2717           00006                           EXTEND
000661: 21,2720           06001                           RXOR     LCHAN
000662: 21,2721           73050                           MASK     MANROT                                #  = OCT00077
000663: 21,2722           00006                           EXTEND
000664: 21,2723           62736                           BZMF     NOCHANGE
000665:
000666: 21,2724           22000                           LXCH     A
000667: 21,2725           55632                           TS       CH31TEMP                              #  SAVE CONTENTS OF CHANNEL 31 IN CH31TEMP
000668:
000669: 21,2726           30001                           CA       L
000670: 21,2727           00006                           EXTEND
000671: 21,2730           75027                           MP       BIT5                                  #  PUT BITS 6-1 OF A IN BITS 10-5 OF L
000672: 21,2731           30001                           CA       L
000673: 21,2732           27501                           ADS      RCSFLAGS                              #  SET FORCED FIRING BITS FOR AXES WITH
000674:                                                                                                  #  WITH CHANGES IN COMMAND.  BITS 10,9 FOR
000675:                                                                                                  #  ROLL, BITS 8,7 FOR YAW, BITS 6,5 FOR
000676:                                                                                                  #  PITCH
000677:
000678: 21,2733           41501                           CS       RCSFLAGS                              #  SET RATE DAMPING FLAGS (BITS 13,12, AND
000679: 21,2734           73051                           MASK     OCT16000                              #  11 OF RCSFLAGS)
000680: 21,2735           27501                           ADS      RCSFLAGS
000681:
000682: 21,2736           41632        NOCHANGE           CS       CH31TEMP
000683: 21,2737           73050                           MASK     MANROT
000684: 21,2740           00006                           EXTEND
000685: 21,2741           63262                           BZMF     AHFNOROT                              #  IF NO MANUAL COMMANDS, GO TO AHFNOROT
000686:
000687: 21,2742           55332                           TS       HOLDFLAG                              #  SET HOLDFLAG +
000688:
000689: 21,2743           03142                           TC       STICKCHK                              #  WHEN THE RHC IS OUT OF DETENT, PMANNDX,
000690:                                                                                                  #  YMANNDX, AND RMANNDX ARE ALL SET, BY
000691:                                                                                                  #  MEANS OF STICKCHK, TO 0, 1, OR 2 FOR NO,
000692:                                                                                                  #  +, OR - ROTATION RESPECTIVELY AS
000693:                                                                                                  #  COMMANDED BY THE RHC.
000694:
000695:                                                                                                  #  HOWEVER, IT IS WELL TO NOTE THAT AFTER
000696:                                                                                                  #  THE RHC IS RETURNED TO DETENT, THE
000697:                                                                                                  #  PROGRAM BRANCHES TO AHFNOROT AND AVOIDS
000698:                                                                                                  #  STICKCHK SO PMANNDX, YMANNDX, AND
000699:                                                                                                  #  RMANNDX ARE NOT RESET TO ZERO BUT RATHER
000700:                                                                                                  #  LEFT SET TO THEIR LAST OUT OF DETENT
000701:                                                                                                  #  VALUES.
000702:
000703: 21,2744           40075                           CS       FLAGWRD1                              #  SET STIKFLAG TO INFORM STEERING
000704: 21,2745           75016                           MASK     BIT14                                 #  PROGRAMS (P20) THAT ASTRONAUT HAS
000705: 21,2746           26075                           ADS      FLAGWRD1                              #  ASSUMED ROTATIONAL CONTROL OF SPACECRAFT
000706:
000707: 21,2747           35016                           CAF      BIT14
000708: 21,2750           00006                           EXTEND
000709: 21,2751           02031                           RAND     CHAN31
000710: 21,2752           00006                           EXTEND
000711: 21,2753           63063                           BZMF     FREEFUNC
000712:
000713: 21,2754           31501                           CA       RCSFLAGS                              #  EXAMINE RCSFLAGS TO SEE IF RATE FILTER
000714: 21,2755           75016                           MASK     BIT14                                 #  HAS BEEN INITIALIZED
000715: 21,2756           10000                           CCS      A                                     #  IF SO, PROCEED WITH MANUAL RATE COMMANDS
000716: 21,2757           12546                           TCF      REINIT                                #  .....TILT, RECYCLE TO INITIALIZE FILTER
000717:
000718: 21,2760           45036                           CS       FIVE                                  #  IF MANUAL MANEUVER IS AT HIGH RATE, SET
000719: 21,2761           61130                           AD       RATEINDX                              #  ATTKALMN TO -1.
000720: 21,2762           00006                           EXTEND                                         #  OTHERWISE, LEAVE ATTKALMN ALONE.
000721: 21,2763           62766                           BZMF     +3
000722: 21,2764           45033                           CS       ONE
000723: 21,2765           55617                           TS       ATTKALMN
000724:
000725: 21,2766           35032                           CAF      TWO                                   #  AUTO-HOLD MANUAL ROTATION
000726: 21,2767           55506        SETWBODY           TS       SPNDX
000727: 21,2770           60000                           DOUBLE
000728: 21,2771           55507                           TS       DPNDX
000729: 21,2772           51506                           INDEX    SPNDX                                 #  RMANNDX = 0 NO ROTATION
000730: 21,2773           31656                           CA       RMANNDX                               #          = 1  + ROTATION
000731: 21,2774           00006                           EXTEND                                         #          = 2  - ROTATION
000732: 21,2775           13017                           BZF      NORATE                                #  IF NO ROTATION COMMAND ON THIS AXIS,
000733:                                                                                                  #  GO TO NORATE.
000734:
000735: 21,2776           61130                           AD       RATEINDX                              #  RATEINDX = 0  0.05 DEG/SEC
000736: 21,2777           54002                           TS       Q                                     #           = 2  0.2  DEG/SEC
000737: 21,3000           50002                           INDEX    Q                                     #           = 4  0.5  DEG/SEC
000738: 21,3001           33051                           CA       MANTABLE   -1                         #           = 6  2.0  DEG/SEC
000739: 21,3002           00006                           EXTEND
000740: 21,3003           75023                           MP       BIT9                                  #  MULTIPLY MANTABLE BY 2 TO THE -6
000741: 21,3004           51507                           INDEX    DPNDX                                 #  TO GET COMMANDED RATE.
000742: 21,3005           53526                           DXCH     WBODY                                 #  SET WBODY TO COMMANDED RATE.
000743:
000744: 21,3006           31501                           CA       RCSFLAGS
000745: 21,3007           73051                           MASK     OCT16000                              #  IS RATE DAMPING COMPLETED (BITS 13,12 AND
000746: 21,3010           00006                           EXTEND                                         #  11 OF RCSFLAGS ALL ZERO.)  IF SO, GO TO
000747: 21,3011           13027                           BZF      MERUPDAT                              #  MERUPDAT TO UPDATE CUMULATIVE ATTITUDE
000748:                                                                                                  #  ERROR.
000749:
000750: 21,3012           35035        ZEROER             CA       ZERO                                  #  ZEROER ZEROS MERRORS
000751: 21,3013           22007                           ZL
000752: 21,3014           51507                           INDEX    DPNDX
000753: 21,3015           53542                           DXCH     MERRORX
000754: 21,3016           13035                           TCF      SPNDXCHK
000755:
000756: 21,3017           22007        NORATE             ZL
000757: 21,3020           51507                           INDEX    DPNDX
000758: 21,3021           53526                           DXCH     WBODY                                 #  ZERO WBODY FOR THIS AXIS
000759: 21,3022           31501                           CA       RCSFLAGS
000760: 21,3023           73051                           MASK     OCT16000
000761: 21,3024           00006                           EXTEND                                         #  IS RATE DAMPING COMPLETED
000762: 21,3025           13035                           BZF      SPNDXCHK                              #  YES, KEEP CURRENT MERRORX GO TO SPNDXCHK
000763: 21,3026           13012                           TCF      ZEROER                                #  NO, GO TO ZEROER
000764:
000765: 21,3027           50002        MERUPDAT           INDEX    Q                                     #  MERRORX=MERRORX+MEASURED CHANGE IN ANGLE
000766: 21,3030           43051                           CS       MANTABLE   -1                         #  -COMMANDED CHANGE IN ANGLE
000767: 21,3031           00006                           EXTEND                                         #  THE ADDITION OF MEASURED CHANGE IN ANGLE
000768: 21,3032           75025                           MP       BIT7                                  #  HAS ALREADY BEEN DONE IN THE RATE FILTER
000769: 21,3033           51507                           INDEX    DPNDX                                 #  COMMANDED CHANGE IN ANGLE = WBODY TIMES
000770: 21,3034           21542                           DAS      MERRORX                               #  .1SEC = MANTABLE ENTRY TIMES 2 TO THE -8
000771:
000772: 21,3035           51507        SPNDXCHK           INDEX    DPNDX
000773: 21,3036           31541                           CA       MERRORX
000774: 21,3037           51506                           INDEX    SPNDX
000775: 21,3040           55567                           TS       ERRORX                                #  ERRORX = HIGH ORDER WORD OF MERRORX
000776: 21,3041           11506                           CCS      SPNDX
000777: 21,3042           12767                           TCF      SETWBODY
000778: 21,3043           13453                           TCF      JETS
000779:
000780: 21,3044           01760        OCT01760           OCT      01760                                 #  FORCED FIRING BITS MASK
000781:
000782: 21,3045           01400        OCT01400           OCT      01400                                 #  ROLL FORCED FIRING MASK       ORDER OF
000783: 21,3046           00060        OCT00060           OCT      00060                                 #  PITCH FORCED FIRING MASK      DEFINITION
000784: 21,3047           00300        OCT00300           OCT      00300                                 #  YAW FORCED FIRING MASK        MUST BE
000785:                                                                                                  #                                PRESERVED
000786:                                                                                                  #                                FOR INDEXING
000787: 21,3050           00077        MANROT             OCT      77
000788: 21,3051           16000        OCT16000           OCT      16000                                 #  RATE DAMPING FLAGS MASK
000789: 21,3052           00165        MANTABLE           DEC      .0071111
000790: 21,3053           77612                           DEC      -.0071111
000791: 21,3054           00722                           DEC      .028444
000792: 21,3055           77055                           DEC      -0.028444
000793: 21,3056           02215                           DEC      .071111
000794: 21,3057           75562                           DEC      -.071111
000795: 21,3060           11064                           DEC      .284444
000796: 21,3061           66713                           DEC      -.284444
000797: 21,3062           00027        =+14MS             DEC      23         B-14
000798: 21,3063           51656        FREEFUNC           INDEX    RMANNDX                               #  ACCELERATION
000799: 21,3064           33075                           CA       FREETAU                               #  COMMANDS
000800: 21,3065           55561                           TS       TAU
000801: 21,3066           51657                           INDEX    PMANNDX
000802: 21,3067           33075                           CA       FREETAU                               #  FREETAU       0 SEC
000803: 21,3070           55562                           TS       TAU1                                  #  +1            +0.10 SEC
000804: 21,3071           51660                           INDEX    YMANNDX                               #  +2            -0.10 SEC
000805: 21,3072           33075                           CA       FREETAU                               #  (+3)          0 SEC
000806: 21,3073           55563                           TS       TAU2
000807: 21,3074           13101                           TCF      T6PROGM
000808:
000809: 21,3075           00000        FREETAU            DEC      0          B-14
000810: 21,3076           00740                           DEC      480        B-14
000811: 21,3077           77037                           DEC      -480       B-14
000812: 21,3100           00000                           DEC      0          B-14
000813:
000814: 21,3101           35035        T6PROGM            CAF      ZERO                                  #  FOR MANUAL ROTATIONS
000815: 21,3102           55567                           TS       ERRORX
000816: 21,3103           55570                           TS       ERRORY
000817: 21,3104           55571                           TS       ERRORZ
000818: 21,3105           13771                           TCF      T6PROG
000819:
000820: 21,3106           06604                           DEC      .2112                                 #  FILTER GAIN FOR TRANSLATION, LEM ON
000821: 21,3107           32703                           DEC      .8400                                 #  FILTER GAIN FOR TRANSLATION 2(ZETA)WN DT
000822: 21,3110           06604                           DEC      .2112                                 #  FILTER GAIN FOR 2 DEGREES/SEC MANEUVERS
000823: 21,3111           02031        GAIN1              DEC      .0640                                 #  KALMAN FILTER GAINS FOR INITIALIZATION
000824: 21,3112           12132                           DEC      .3180                                 #  OF ATTITUDE RATES
000825: 21,3113           13030                           DEC      .3452
000826: 21,3114           14047                           DEC      .3774
000827: 21,3115           15241                           DEC      .4161
000828: 21,3116           16650                           DEC      .4634
000829: 21,3117           20555                           DEC      .5223
000830: 21,3120           23065                           DEC      .5970
000831: 21,3121           26137                           DEC      .6933
000832: 21,3122           32053                           DEC      .8151
000833: 21,3123           35712                           DEC      .9342
000834:
000835: 21,3124           00435                           DEC      .0174                                 #  FILTER GAIN FOR TRANSLATION, LEM ON
000836: 21,3125           13412                           DEC      .3600                                 #  FILTER GAIN FOR TRANSLATION (WN)(WN)DT
000837: 21,3126           00435                           DEC      .0174                                 #  FILTER GAIN FOR 2 DEGREES/SEC MANEUVERS
000838: 21,3127           00032        GAIN2              DEC      .0016                                 #  SCALED 10
000839: 21,3130           01350                           DEC      .0454
000840: 21,3131           01575                           DEC      .0545
000841: 21,3132           02103                           DEC      .0666
000842: 21,3133           02523                           DEC      .0832
000843: 21,3134           03327                           DEC      .1069
000844: 21,3135           04432                           DEC      .1422
000845: 21,3136           06264                           DEC      .1985
000846: 21,3137           11351                           DEC      .2955
000847: 21,3140           17324                           DEC      .4817
000848: 21,3141           33622                           DEC      .8683
000849: 21,3142           55502        STICKCHK           TS       T5TEMP
000850: 21,3143           76214                           MASK     THREE                                 #  INDECES FOR MANUAL ROTATION
000851: 21,3144           55657                           TS       PMANNDX
000852: 21,3145           31502                           CA       T5TEMP
000853: 21,3146           00006                           EXTEND                                         #  MAN RATE  0   0 RATE (DP)
000854: 21,3147           75017                           MP       QUARTER                               #           +1   + RATE (DP)
000855: 21,3150           55502                           TS       T5TEMP                                #           +2   - RATE (DP)
000856: 21,3151           76214                           MASK     THREE                                 #          (+3)  0 RATE (DP)
000857: 21,3152           55660                           TS       YMANNDX
000858: 21,3153           31502                           CA       T5TEMP
000859: 21,3154           00006                           EXTEND
000860: 21,3155           75017                           MP       QUARTER
000861: 21,3156           55656                           TS       RMANNDX
000862: 21,3157           00002                           TC       Q
000863: 21,3160           55617        KALUPDT            TS       ATTKALMN                              #  INITIALIZATION OF ATTITUDE RATES USING
000864:                                                                                                  #  KALMAN FILTER TAKES 1.1 SEC
000865:
000866: 21,3161           32167                           CA       DELTATT                               #  =1SEC - 80MS
000867: 21,3162           61634                           AD       T5TIME                                #  + DELAYS
000868: 21,3163           54030                           TS       TIME5
000869: 21,3164           13167                           TCF      +3
000870: 21,3165           32170                           CAF      DELTATT2                              #  SAFETY PLAY TO ASSURE
000871: 21,3166           54030                           TS       TIME5                                 #  A T5RUPT
000872:
000873: 21,3167           45035        KRESUME2           CS       ZERO                                  #  RESET FOR PHASE1
000874: 21,3170           55465                           TS       T5PHASE                               #  RESUME INTERRUPTED PROGRAM
000875: 21,3171           15347                           TCF      RESUME
000876:
000877: 21,3172           45030        FDAIDSP2           CS       BIT4                                  #  RESET FOR FDAIDSP1
000878: 21,3173           71501                           MASK     RCSFLAGS
000879: 21,3174           55501                           TS       RCSFLAGS
000880:
000881: 21,3175           40074                           CS       FLAGWRD0                              #  ON - DISPLAY ONE OF THE TOTAL ATTITUDE
000882: 21,3176           75023                           MASK     BIT9                                  #  ERRORS
000883: 21,3177           00006                           EXTEND
000884: 21,3200           13207                           BZF      FDAITOTL
000885: 21,3201           00006                           EXTEND
000886: 21,3202           41570                           DCS      ERRORX                                #  OFF - DISPLAY AUTOPILOT FOLLOWING ERROR
000887: 21,3203           53477                           DXCH     AK
000888: 21,3204           41571                           CS       ERRORZ
000889: 21,3205           55500                           TS       AK2
000890: 21,3206           15347                           TCF      RESUME                                #  END PHASE 1
000891:
000892: 21,3207           30105        FDAITOTL           CA       FLAGWRD9
000893: 21,3210           75026                           MASK     BIT6
000894: 21,3211           00006                           EXTEND
000895: 21,3212           13255                           BZF      WRTN17                                #  IS N22ORN17 (BIT6 OF FLAGWRD9) = 0
000896:                                                                                                  #  IF SO, GO TO WRTN17
000897: 21,3213           00006        WRTN22             EXTEND                                         #  OTHERWISE, CONTINUE ON TO WRTN22 AND
000898: 21,3214           31157                           DCA      CTHETA                                #  GET SET TO COMPUTE TOTAL ATTITUDE
000899: 21,3215           53514                           DXCH     WTEMP                                 #  ERROR WRT N22 BY PICKING UP THE THREE
000900: 21,3216           31155                           CA       CPHI                                  #  COMPONENTS OF N22
000901:
000902: 21,3217           00006        GETAKS             EXTEND                                         #  COMPUTE TOTAL ATTITUDE ERROR FOR
000903: 21,3220           20032                           MSU      CDUX                                  #  DISPLAY ON FDAI ERROR NEEDLES
000904: 21,3221           55476                           TS       AK
000905: 21,3222           31513                           CA       WTEMP
000906: 21,3223           00006                           EXTEND
000907: 21,3224           20033                           MSU      CDUY
000908: 21,3225           55502                           TS       T5TEMP
000909: 21,3226           00006                           EXTEND
000910: 21,3227           71640                           MP       AMGB1
000911: 21,3230           27476                           ADS      AK
000912: 21,3231           31502                           CA       T5TEMP
000913: 21,3232           00006                           EXTEND
000914: 21,3233           71641                           MP       AMGB4
000915: 21,3234           55477                           TS       AK1
000916: 21,3235           31502                           CA       T5TEMP
000917: 21,3236           00006                           EXTEND
000918: 21,3237           71643                           MP       AMGB7
000919: 21,3240           55500                           TS       AK2
000920: 21,3241           31514                           CA       WTEMP      +1
000921: 21,3242           00006                           EXTEND
000922: 21,3243           20034                           MSU      CDUZ
000923: 21,3244           55502                           TS       T5TEMP
000924: 21,3245           00006                           EXTEND
000925: 21,3246           71642                           MP       AMGB5
000926: 21,3247           27477                           ADS      AK1
000927: 21,3250           31502                           CA       T5TEMP
000928: 21,3251           00006                           EXTEND
000929: 21,3252           71644                           MP       AMGB8
000930: 21,3253           27500                           ADS      AK2
000931: 21,3254           15347                           TCF      RESUME                                #  END PHASE1 OF RCS DAP
000932:
000933: 21,3255           00006        WRTN17             EXTEND                                         #  GET SET TO COMPUTE TOTAL ASTRONAUT
000934: 21,3256           31335                           DCA      CPHIX      +1                         #  ATTITUDE ERROR WRT N17 BY PICKING UP
000935: 21,3257           53514                           DXCH     WTEMP                                 #  THE THREE COMPONENTS OF N17
000936: 21,3260           31333                           CA       CPHIX
000937: 21,3261           13217                           TCF      GETAKS

End of include-file RCS-CSM_DIGITAL_AUTOPILOT.agc.  Parent file is MAIN.agc


