
Source Code


000002:                                                                                                  ## Copyright:   Public domain.
000003:                                                                                                  ## Filename:    RESTARTS_ROUTINE.agc
000004:                                                                                                  ## Purpose:     A section of Comanche revision 067.
000005:                                                                                                  ##              It is part of the reconstructed source code for the flight
000006:                                                                                                  ##              software for the Command Module's (CM) Apollo Guidance Computer
000007:                                                                                                  ##              (AGC) for Apollo 12. No original listings of this program are
000008:                                                                                                  ##              available; instead, this file was created via dissassembly of
000009:                                                                                                  ##              dumps of Comanche 067 core rope modules and comparison with
000010:                                                                                                  ##              other AGC programs.
000011:                                                                                                  ## Assembler:   yaYUL
000012:                                                                                                  ## Contact:     Ron Burkey <info@sandroid.org>.
000013:                                                                                                  ## Website:     www.ibiblio.org/apollo/index.html
000014:                                                                                                  ## Mod history: 2023-08-16 MAS  Created from Comanche 055.
000015:
000016: 01,3520                                           BANK     01
000017: 01,2000                                           SETLOC   RESTART
000018: 01,2000                                           BANK
000019:
000020: 01,3520  E3,1436                                  EBANK=   PHSNAME1                              #  GOPROG MUST SWITCH TO THIS EBANK
000021:
000022: 01,3520                                           COUNT    01/RSROU
000023:
000024: 01,3520           30161        RESTARTS           CA       MPAC       +5                         #  GET GROUP NUMBER -1
000025: 01,3521           60000                           DOUBLE                                         #  SAVE FOR INDEXING
000026: 01,3522           54155                           TS       TEMP2G
000027:
000028: 01,3523           33762                           CA       PHS2CADR                              #  SET UP EXIT IN CASE IT IS AN EVEN
000029: 01,3524           54157                           TS       TEMPSWCH                              #  TABLE PHASE
000030:
000031: 01,3525           33557                           CA       RTRNCADR                              #  TO SAVE TIME ASSUME IT WILL GET NEXT
000032: 01,3526           54707                           TS       GOLOC      +2                         #  GROUP AFTER THIS
000033:
000034: 01,3527           30154                           CA       TEMPPHS
000035: 01,3530           75065                           MASK     OCT1400
000036: 01,3531           10000                           CCS      A                                     #  IS IT A VARIABLE OR TABLE RESTART
000037: 01,3532           13543                           TCF      ITSAVAR                               #  IT:S A VARIABLE RESTART
000038:
000039: 01,3533           10154        GETPART2           CCS      TEMPPHS                               #  IS IT AN X.1 RESTART
000040: 01,3534           10000                           CCS      A
000041: 01,3535           13643                           TCF      ITSATBL                               #  NO, ITS A TABLE RESTART
000042:
000043: 01,3536           35102                           CA       PRIO14                                #  IT IS AN X.1 RESTART, THEREFORE START
000044: 01,3537           05163                           TC       FINDVAC                               #  THE DISPLAY RESTART JOB
000045: 01,3540  E3,1400                                  EBANK=   LST1
000046: 01,3540           03261 20063                     2CADR    INITDSP
000047:
000048: 01,3542           03557                           TC       RTRNCADR                              #  FINISHED WITH THIS GROUP, GET NEXT ONE
000049:
000050: 01,3543           75065        ITSAVAR            MASK     OCT1400                               #  IS IT TYPE B ?
000051: 01,3544           10000                           CCS      A
000052: 01,3545           13614                           TCF      ITSLIKEB                              #  YES, IT IS TYPE B
000053:
000054: 01,3546           00006                           EXTEND                                         #  STORE THE JOB (OR TASK) 2CADR FOR EXIT
000055: 01,3547           50155                           NDX      TEMP2G
000056: 01,3550           31437                           DCA      PHSNAME1
000057: 01,3551           52706                           DXCH     GOLOC
000058:
000059: 01,3552           30154                           CA       TEMPPHS                               #  SEE IF THIS IS A JOB, TASK, OR A LONGCAL
000060: 01,3553           75037                           MASK     OCT7
000061: 01,3554           67715                           AD       MINUS2
000062: 01,3555           10000                           CCS      A
000063: 01,3556           13726                           TCF      ITSLNGCL                              #  ITS A LONGCALL
000064:
000065: 01,3557           04711        RTRNCADR           TC       SWRETURN                              #  CANT GET HERE
000066: 01,3560           13562                           TCF      ITSAWAIT
000067:
000068: 01,3561           13627                           TCF      ITSAJOB                               #  ITS A JOB
000069:
000070: 01,3562           33766        ITSAWAIT           CA       WTLTCADR                              #  SET UP WAITLIST CALL
000071: 01,3563           54704                           TS       GOLOC      -1
000072:
000073: 01,3564           50155                           NDX      TEMP2G                                #  DIRECTLY STORED
000074: 01,3565           31054                           CA       PHSPRDT1
000075: 01,3566           10000        TIMETEST           CCS      A                                     #  IS IT AN IMMEDIATE RESTART
000076: 01,3567           24000                           INCR     A                                     #  NO,
000077: 01,3570           13573                           TCF      FINDTIME                              #  FIND OUT WHEN IT SHOULD BEGIN
000078:
000079: 01,3571           15514                           TCF      ITSINDIR                              #  STORED INDIRECTLY
000080:
000081: 01,3572           13612                           TCF      IMEDIATE                              #  IT WANTS AN IMMEDIATE RESTART
000082:
000083:                                                                                                  #  ***** THIS MUST BE IN FIXED FIXED *****
000084:
000085:    5514                                           BLOCK    02
000086:    4000                                           SETLOC   FFTAG2
000087:    4000                                           BANK
000088:
000089:    5514                                           COUNT    02/RSROU
000090:
000091:    5514           22706        ITSINDIR           LXCH     GOLOC      +1                         #  GET THE CORRECT E BANK IN CASE THIS IS
000092:    5515           22006                           LXCH     BB                                    #  SWITCHED ERRASIBLE
000093:
000094:    5516           50000                           NDX      A                                     #  GET THE TIME INDIRECTLY
000095:    5517           30001                           CA       1
000096:
000097:    5520           22006                           LXCH     BB                                    #  RESTORE THE BB AND GOLOC
000098:    5521           22706                           LXCH     GOLOC      +1
000099:
000100:    5522           13573                           TCF      FINDTIME                              #  FIND OUT WHEN IT SHOULD BEGIN
000101:
000102:                                                                                                  #  ***** YOU MAY RETURN TO SWITCHED FIXED *****
000103:
000104: 01,3573                                           BANK     01
000105: 01,2000                                           SETLOC   RESTART
000106: 01,2000                                           BANK
000107:
000108: 01,3573                                           COUNT    01/RSROU
000109:
000110: 01,3573           40000        FINDTIME           COM                                            #  MAKE NEGITIVE SINCE IT WILL BE SUBTRACTD
000111: 01,3574           54001                           TS       L                                     #  AND SAVE
000112: 01,3575           50155                           NDX      TEMP2G
000113: 01,3576           41053                           CS       TBASE1
000114: 01,3577           00006                           EXTEND
000115: 01,3600           60025                           SU       TIME1
000116: 01,3601           10000                           CCS      A
000117: 01,3602           40000                           COM
000118: 01,3603           67700                           AD       OCT37776
000119: 01,3604           65033                           AD       ONE
000120: 01,3605           60001                           AD       L
000121: 01,3606           10000                           CCS      A
000122: 01,3607           35035                           CA       ZERO
000123: 01,3610           13612                           TCF      +2
000124: 01,3611           13612                           TCF      +1
000125: 01,3612           65033        IMEDIATE           AD       ONE
000126: 01,3613           00704                           TC       GOLOC      -1
000127: 01,3614           33557        ITSLIKEB           CA       RTRNCADR                              #  TYPE B, SO STORE RETURN IN
000128: 01,3615           54157                           TS       TEMPSWCH                              #  TEMPSWCH IN CASE OF AN EVEN PHASE
000129:
000130: 01,3616           33763                           CA       PRT2CADR                              #  SET UP EXIT TO GET TABLE PART OF THIS
000131: 01,3617           54707                           TS       GOLOC      +2                         #  VARIABLE TYPE OF PHASE
000132:
000133: 01,3620           30154                           CA       TEMPPHS                               #  MAKE THE PHASE LOOK RIGHT FOR THE TABLE
000134: 01,3621           76043                           MASK     OCT177                                #  PART OF THIS VARIABLE PHASE
000135: 01,3622           54154                           TS       TEMPPHS
000136:
000137: 01,3623           00006                           EXTEND
000138: 01,3624           50155                           NDX      TEMP2G                                #  OBTAIN THE JOB:S 2CADR
000139: 01,3625           31437                           DCA      PHSNAME1
000140: 01,3626           52706                           DXCH     GOLOC
000141:
000142: 01,3627           50155        ITSAJOB            NDX      TEMP2G                                #  NOW ADD THE PRIORITY AND LET:S GO
000143: 01,3630           31054                           CA       PHSPRDT1
000144: 01,3631           54704        CHKNOVAC           TS       GOLOC      -1                         #  SAVE PRIO UNTIL WE SEE IF ITS
000145: 01,3632           00006                           EXTEND                                         #  A FINDVAC OR A NOVAC
000146: 01,3633           63637                           BZMF     ITSNOVAC
000147:
000148: 01,3634           33765                           CAF      FVACCADR                              #  POSITIVE, SET UP FINDVAC CALL.
000149: 01,3635           56704                           XCH      GOLOC      -1                         #  PICK UP PRIO,
000150: 01,3636           00704                           TC       GOLOC      -1                         #  AND GO
000151:
000152: 01,3637           33767        ITSNOVAC           CAF      NOVACADR                              #  NEGATIVE,
000153: 01,3640           56704                           XCH      GOLOC      -1                         #  SET UP NOVAC CALL,
000154: 01,3641           40000                           COM                                            #  CORRECT PRIO,
000155: 01,3642           00704                           TC       GOLOC      -1                         #  AND GO
000156:
000157: 01,3643           54020        ITSATBL            TS       CYR                                   #  FIND OUT IF THE PHASE IS ODD OR EVEN
000158: 01,3644           10020                           CCS      CYR
000159: 01,3645           13646                           TCF      +1                                    #  IT:S EVEN
000160: 01,3646           13744                           TCF      ITSEVEN
000161:
000162: 01,3647           33557                           CA       RTRNCADR                              #  IN CASE THIS IS THE SECOND PART OF A
000163: 01,3650           54707                           TS       GOLOC      +2                         #  TYPE B RESTART, WE NEED PROPER EXIT
000164: 01,3651           30154                           CA       TEMPPHS                               #  SET UP POINTER FOR FINDING OUR PLACE IN
000165: 01,3652           54021                           TS       SR                                    #  THE RESTART TABLES
000166: 01,3653           60021                           AD       SR
000167: 01,3654           50155                           NDX      TEMP2G
000168: 01,3655           62001                           AD       SIZETAB    +1
000169: 01,3656           54156                           TS       POINTER
000170:
000171: 01,3657           00006        CONTBL2            EXTEND                                         #  FIND OUT WHAT:S IN THE TABLE
000172: 01,3660           50156                           NDX      POINTER
000173: 01,3661           32002                           DCA      CADRTAB                               #  GET THE 2CADR
000174:
000175: 01,3662           22706                           LXCH     GOLOC      +1                         #  STORE THE BB INFORMATION
000176:
000177: 01,3663           10000                           CCS      A                                     #  IS IT A JOB OR IS IT TIMED
000178: 01,3664           24000                           INCR     A                                     #  POSITIVE, MUST BE A JOB
000179: 01,3665           13740                           TCF      ITSAJOB2
000180:
000181: 01,3666           24000                           INCR     A                                     #  MUST BE EITHER A WAITLIST OR LONGCALL
000182: 01,3667           54705                           TS       GOLOC                                 #  LET-S STORE THE CORRECT CADR
000183:
000184: 01,3670           33766                           CA       WTLTCADR                              #  SET UP OUR EXIT TO WAITLIST
000185: 01,3671           54704                           TS       GOLOC      -1
000186:
000187: 01,3672           30706                           CA       GOLOC      +1                         #  NOW FIND OUT IF IT IS A WAITLIST CALL
000188: 01,3673           75022                           MASK     BIT10                                 #  THIS SHOULD BE ONE IF WE HAVE -BB
000189: 01,3674           10000                           CCS      A                                     #  FOR THAT MATTER SO SHOULD BE BITS 9,8,7,
000190:                                                                                                  #  6,5, AND LAST BUT NOT LEAST (PERHAPS NOT
000191:                                                                                                  #  IN IMPORTANCE ANYWAY.  BIT 4
000192: 01,3675           13733                           TCF      ITSWTLST                              #  IT IS A WAITLIST CALL
000193:
000194: 01,3676           50156                           NDX      POINTER                               #  OBTAIN THE ORIGINAL DELTA T
000195: 01,3677           32000                           CA       PRDTTAB                               #  ADDRESS FOR THIS LONGCALL
000196:
000197: 01,3700           15523                           TCF      ITSLGCL1                              #  NOW GO GET THE DELTA TIME
000198:
000199:                                                                                                  #  ***** THIS MUST BE IN FIXED FIXED *****
000200:
000201:    5523                                           BLOCK    02
000202:    4000                                           SETLOC   FFTAG2
000203:    4000                                           BANK
000204:
000205:    5523                                           COUNT    02/RSROU
000206:
000207:    5523           22706        ITSLGCL1           LXCH     GOLOC      +1                         #  OBTAIN THE CORRECT E BANK
000208:    5524           22006                           LXCH     BB
000209:    5525           22706                           LXCH     GOLOC      +1                         #  AND PRESERVE OUR E AND F BANKS
000210:
000211:    5526           00006                           EXTEND                                         #  GET THE DELTA TIME
000212:    5527           50000                           NDX      A
000213:    5530           30001                           DCA      0
000214:    5531           22706                           LXCH     GOLOC      +1                         #  RESTORE OUR E AND F BANK
000215:    5532           22006                           LXCH     BB                                    #  RESTORE THE TASKS E AND F BANKS
000216:    5533           22706                           LXCH     GOLOC      +1                         #  AND PRESERVE OUR L
000217:    5534           13701                           TCF      ITSLGCL2                              #  NOW LET:S PROCESS THIS LONGCALL
000218:
000219:                                                                                                  #  ***** YOU MAY RETURN TO SWITCHED FIXED *****
000220:
000221: 01,3701                                           BANK     01
000222: 01,2000                                           SETLOC   RESTART
000223: 01,2000                                           BANK
000224:
000225: 01,3701                                           COUNT    01/RSROU
000226: 01,3701           53140        ITSLGCL2           DXCH     LONGTIME
000227:
000228: 01,3702           00006                           EXTEND                                         #  CALCULATE TIME LEFT
000229: 01,3703           40025                           DCS      TIME2
000230: 01,3704           21140                           DAS      LONGTIME
000231: 01,3705           00006                           EXTEND
000232: 01,3706           31136                           DCA      LONGBASE
000233: 01,3707           21140                           DAS      LONGTIME
000234:
000235: 01,3710           11137                           CCS      LONGTIME                              #  FIND OUT HOW THIS SHOULD BE RESTARTED
000236: 01,3711           13721                           TCF      LONGCLCL
000237: 01,3712           13714                           TCF      +2
000238: 01,3713           13607                           TCF      IMEDIATE   -3
000239: 01,3714           11140                           CCS      LONGTIME   +1
000240: 01,3715           13721                           TCF      LONGCLCL
000241: 01,3716           13717                           NOOP                                           #  CAN:T GET HERE *********
000242: 01,3717           13607                           TCF      IMEDIATE   -3
000243: 01,3720           13612                           TCF      IMEDIATE
000244:
000245: 01,3721           33764        LONGCLCL           CA       LGCLCADR                              #  WE WILL GO TO LONGCALL
000246: 01,3722           54704                           TS       GOLOC      -1
000247:
000248: 01,3723           00006                           EXTEND                                         #  PREPARE OUR ENTRY TO LONGCALL
000249: 01,3724           31140                           DCA      LONGTIME
000250: 01,3725           00704                           TC       GOLOC      -1
000251:
000252: 01,3726           33766        ITSLNGCL           CA       WTLTCADR                              #  ASSUME IT WILL GO TO WAITLIST
000253: 01,3727           54704                           TS       GOLOC      -1
000254:
000255: 01,3730           50155                           NDX      TEMP2G
000256: 01,3731           41054                           CS       PHSPRDT1                              #  GET THE DELTA T ADDRESS
000257:
000258: 01,3732           15523                           TCF      ITSLGCL1                              #  NOW GET THE DELTA TIME
000259:
000260: 01,3733           40706        ITSWTLST           CS       GOLOC      +1                         #  CORRECT THE BBCON INFORMATION
000261: 01,3734           54706                           TS       GOLOC      +1
000262: 01,3735           50156                           NDX      POINTER                               #  GET THE DT AND FIND OUT IF IT WAS STORED
000263: 01,3736           32000                           CA       PRDTTAB                               #  DIRECTLY OR INDIRECTLY
000264:
000265: 01,3737           13566                           TCF      TIMETEST                              #  FIND OUT HOW THE TIME IS STORED
000266:
000267: 01,3740           56705        ITSAJOB2           XCH      GOLOC                                 #  STORE THE CADR
000268:
000269: 01,3741           50156                           NDX      POINTER                               #  ADD THE PRIORITY AND LET:S GO
000270: 01,3742           32000                           CA       PRDTTAB
000271:
000272: 01,3743           13631                           TCF      CHKNOVAC
000273:
000274: 01,3744           30157        ITSEVEN            CA       TEMPSWCH                              #  SET UP FOR EITHER THE SECOND PART OF THE
000275: 01,3745           54707                           TS       GOLOC      +2                         #  TABLE, OR A RETURN FOR THE NEXT GROUP
000276:
000277: 01,3746           50155                           NDX      TEMP2G                                #  SET UP POINTER FOR OUR LOCATION WITHIN
000278: 01,3747           32000                           CA       SIZETAB                               #  THE TABLE
000279: 01,3750           60154                           AD       TEMPPHS                               #  THIS MAY LOOK BAD BUT LET:S SEE YOU DO
000280: 01,3751           60154                           AD       TEMPPHS                               #  BETTER IN TIME OR NUMBERR OF LOCATIONS
000281: 01,3752           60154                           AD       TEMPPHS
000282: 01,3753           54156                           TS       POINTER
000283:
000284: 01,3754           13657                           TCF      CONTBL2                               #  NOW PROCESS WHAT IS IN THE TABLE
000285:
000286: 01,3755           36214        PHSPART2           CA       THREE                                 #  SET THE POINTER FOR THE SECOND HALF OF
000287: 01,3756           26156                           ADS      POINTER                               #  THE TABLE
000288:
000289: 01,3757           33557                           CA       RTRNCADR                              #  THIS WILL BE OUR LAST TIME THROUGH THE
000290: 01,3760           54707                           TS       GOLOC      +2                         #  EVEN TABLE, SO AFTER IT GET THE NEXT
000291:                                                                                                  #  GROUP
000292: 01,3761           13657                           TCF      CONTBL2                               #  SO LET:S GET THE SECOND ENTRY IN THE TBL
000293:
000294: 01,3762     0154               TEMPPHS            EQUALS   MPAC
000295: 01,3762     0155               TEMP2G             EQUALS   MPAC       +1
000296: 01,3762     0156               POINTER            EQUALS   MPAC       +2
000297: 01,3762     0157               TEMPSWCH           EQUALS   MPAC       +3
000298: 01,3762     0705               GOLOC              EQUALS   VAC5       +20D
000299: 01,3762     7715               MINUS2             EQUALS   NEG2
000300: 01,3762     6043               OCT177             EQUALS   LOW7
000301:
000302: 01,3762           03755        PHS2CADR           GENADR   PHSPART2
000303: 01,3763           03533        PRT2CADR           GENADR   GETPART2
000304: 01,3764           05356        LGCLCADR           GENADR   LONGCALL
000305: 01,3765           05163        FVACCADR           GENADR   FINDVAC
000306: 01,3766           05261        WTLTCADR           GENADR   WAITLIST
000307: 01,3767           05150        NOVACADR           GENADR   NOVAC
000308:
000309:
000310:
000311:

End of include-file RESTARTS_ROUTINE.agc.  Parent file is MAIN.agc


