
Source Code


000002:                                                                                                  ## Copyright:   Public domain.
000003:                                                                                                  ## Filename:    S-BAND_ANTENNA_FOR_CM.agc
000004:                                                                                                  ## Purpose:     A section of Comanche revision 067.
000005:                                                                                                  ##              It is part of the reconstructed source code for the flight
000006:                                                                                                  ##              software for the Command Module's (CM) Apollo Guidance Computer
000007:                                                                                                  ##              (AGC) for Apollo 12. No original listings of this program are
000008:                                                                                                  ##              available; instead, this file was created via dissassembly of
000009:                                                                                                  ##              dumps of Comanche 067 core rope modules and comparison with
000010:                                                                                                  ##              other AGC programs.
000011:                                                                                                  ## Assembler:   yaYUL
000012:                                                                                                  ## Contact:     Ron Burkey <info@sandroid.org>.
000013:                                                                                                  ## Website:     www.ibiblio.org/apollo/index.html
000014:                                                                                                  ## Mod history: 2023-08-16 MAS  Created from Comanche 055.
000015:                                                                                                  ##              2024-05-13 MAS  Updated for Comanche 067.
000016:
000017: 23,3207                                           BANK     23
000018: 42,2000                                           SETLOC   SBAND
000019: 42,2000                                           BANK
000020:
000021: 42,3652                                           COUNT*   $$/R05
000022: 42,3652  E4,1417                                  EBANK=   EMSALT
000023:
000024: 42,3652           06006        SBANDANT           TC       INTPRET
000025: 42,3653           45034                           RTB      CALL
000026: 42,3654           45510                                    LOADTIME                              #  PICKUP CURRENT TIME SCALED B-28
000027: 42,3655           47501                                    CDUTRIG                               #  COMPUTE SINES AND COSINES OF CDU ANGLES
000028: 42,3656           34041                           STCALL   TDEC1                                 #  ADVANCE INTEGRATION TO TIME IN TDEC1
000029: 42,3657           27124                                    CSMCONIC                              #  USING CONIC INTEGRATION
000030: 42,3660           46135                           SLOAD    BHIZ                                  #  ORIGIN OF REFERENCE INERTIAL SYSTEM IS
000031: 42,3661           00050                                    X2                                    #  EARTH = 0, MOON = 2
000032: 42,3662           65675                                    EISOI
000033: 42,3663           77775                           VLOAD
000034: 42,3664           00001                                    RATT
000035: 42,3665           00003                           STORE    RCM                                   #  MOVE RATT TO PREVENT WIPEOUT
000036: 42,3666           45145                           DLOAD    CALL                                  #  MOON, PUSH ON
000037: 42,3667           00015                                    TAT                                   #  GET ORIGINAL TIME
000038: 42,3670           54115                                    LUNPOS                                #  COMPUTE POSITION VECTOR OF MOON
000039: 42,3671           57455                           VAD      VCOMP                                 #  R= -(REM+RCM) = NEG. OF S/C POS. VEC
000040: 42,3672           00003                                    RCM
000041: 42,3673           77650                           GOTO
000042: 42,3674           65677                                    EISOI      +2
000043: 42,3675           57575        EISOI              VLOAD    VCOMP                                 #  EARTH, R= -RCM
000044: 42,3676           00001                                    RATT
000045: 42,3677           64201                           SETPD    MXV                                   #  RCS TO STABLE MEMBER- B-1X B-29X B+1
000046: 42,3700           00003                                    2D                                    #  2D
000047: 42,3701           01736                                    REFSMMAT                              #  STABLE MEMBER.  B-1X B-29X B+1= B-29
000048: 42,3702           65372                           VSL1     PDDL                                  #  8D
000049: 42,3703           15334                                    HI6ZEROS
000050: 42,3704           24025                           STOVL    YAWANG                                #  ZERO OUT YAWANG, SET UP FOR SMNB
000051: 42,3705           00003                                    RCM                                   #  TRANSFORMATION.  SM COORD.  SCALED B-29
000052: 42,3706           77624                           CALL
000053: 42,3707           47646                                    *SMNB*
000054: 42,3710           00003                           STORE    R                                     #  SAVE NAV. BASE COORDINATES
000055: 42,3711           63256                           UNIT     PDVL                                  #  14D
000056: 42,3712           00003                                    R
000057: 42,3713           72431                           VPROJ    VSL2                                  #  COMPUTE PROJECTION OF VECTOR INTO CM
000058: 42,3714           15326                                    HIUNITZ                               #  XY-PLANE, R-(R.UZ)UZ
000059: 42,3715           40045                           BVSU     BOV                                   #  CLEAR OVERFLOW INDICATOR IF SET
000060: 42,3716           00003                                    R
000061: 42,3717           65720                                    COVCNV
000062: 42,3720           40056        COVCNV             UNIT     BOV                                   #  TEST OVERFLOW FOR INDICATION OF NULL
000063: 42,3721           65735                                    NOADJUST                              #  VECTOR
000064: 42,3722           50206                           PUSH     DOT                                   #  20D
000065: 42,3723           15332                                    HIUNITX                               #  COMPUTE YAW ANGLE = ACOS (URP.UX)
000066: 42,3724           65552                           SL1      ACOS                                  #  REVOLUTIONS SCALED B0
000067: 42,3725           50315                           PDVL     DOT                                   #  22D YAWANG
000068: 42,3726           00017                                    URP
000069: 42,3727           15330                                    HIUNITY                               #  COMPUTE FOLLOWING- URP.UY
000070: 42,3730           51152                           SL1      BPL                                   #  POSITIVE
000071: 42,3731           65735                                    NOADJUST                              #  YES, 0-180 DEGREES
000072: 42,3732           45345                           DLOAD    DSU                                   #  NO, 181-360 DEGREES 20D
000073: 42,3733           15342                                    DPPOSMAX                              #  COMPUTE 2 PI MINUS YAW ANGLE
000074: 42,3734           77606                           PUSH                                           #  22D YAWANG
000075: 42,3735           50375        NOADJUST           VLOAD    DOT                                   #  COMPUTE PITCH ANGLE
000076: 42,3736           00011                                    UR                                    #  ACOS (UR.UZ) - PI/2
000077: 42,3737           15326                                    HIUNITZ
000078: 42,3740           65552                           SL1      ACOS                                  #  REVOLUTIONS B0
000079: 42,3741           77625                           DSU
000080: 42,3742           15324                                    HIDP1/4
000081: 42,3743           16321                           STODL    RHOSB
000082: 42,3744           00025                                    YAWANG
000083: 42,3745           02323                           STORE    GAMMASB                               #  PATCH FOR CHECKOUT
000084: 42,3746           77776                           EXIT
000085: 42,3747           31044                           CA       EXTVBACT                              #  IS BIT 5 STILL ON
000086: 42,3750           75027                           MASK     BIT5
000087: 42,3751           00006                           EXTEND
000088: 42,3752           15550                           BZF      ENDEXT                                #  NO, WE HAVE BEEN ANSWERED
000089: 42,3753           33767                           CAF      V06N51                                #  DISPLAY ANGLES
000090: 42,3754           04676                           TC       BANKCALL
000091: 42,3755           20600                           CADR     GOMARKFR
000092: 42,3756           05641                           TC       B5OFF                                 #  TERMINATE
000093: 42,3757           05641                           TC       B5OFF
000094: 42,3760           05233                           TC       ENDOFJOB                              #  RECYCLE
000095: 42,3761           35031                           CAF      BIT3                                  #  IMMEDIATE RETURN
000096: 42,3762           05542                           TC       BLANKET                               #  BLANK R3
000097: 42,3763           35033                           CAF      BIT1                                  #  DELAY MINIMUM TIME TO ALLOW DISPLAY IN
000098: 42,3764           04676                           TC       BANKCALL
000099: 42,3765           01732                           CADR     DELAYJOB
000100: 42,3766           13652                           TCF      SBANDANT
000101: 42,3767           01463        V06N51             VN       0651
000102: 42,3770                        RCM                EQUALS   2D
000103: 42,3770                        UR                 EQUALS   8D
000104: 42,3770                        URP                EQUALS   14D
000105: 42,3770                        YAWANG             EQUALS   20D
000106: 42,3770                        PITCHANG           EQUALS   22D
000107: 42,3770  0000002               R                  EQUALS   RCM
000108: 42,3770  30,2000                                  SBANK=   LOWSUPER
000109:

End of include-file S-BAND_ANTENNA_FOR_CM.agc.  Parent file is MAIN.agc


