
Source Code


000002:                                                                                                  ## Copyright:   Public domain.
000003:                                                                                                  ## Filename:    SERVICE_ROUTINES.agc
000004:                                                                                                  ## Purpose:     A section of Comanche revision 067.
000005:                                                                                                  ##              It is part of the reconstructed source code for the flight
000006:                                                                                                  ##              software for the Command Module's (CM) Apollo Guidance Computer
000007:                                                                                                  ##              (AGC) for Apollo 12. No original listings of this program are
000008:                                                                                                  ##              available; instead, this file was created via dissassembly of
000009:                                                                                                  ##              dumps of Comanche 067 core rope modules and comparison with
000010:                                                                                                  ##              other AGC programs.
000011:                                                                                                  ## Assembler:   yaYUL
000012:                                                                                                  ## Contact:     Ron Burkey <info@sandroid.org>.
000013:                                                                                                  ## Website:     www.ibiblio.org/apollo/index.html
000014:                                                                                                  ## Mod history: 2023-08-16 MAS  Created from Comanche 055.
000015:                                                                                                  ##              2024-03-15 MAS  Updated for Comanche 067.
000016:
000017:    7722                                           BLOCK    3
000018:    6000                                           SETLOC   FFTAG6
000019:    6000                                           BANK
000020:    7722                                           COUNT    03/FLAG
000021:
000022:    7722           54001        UPENT2             TS       L                                     #  WHICH FLAGWORD IS IT
000023:    7723           75037                           MASK     OCT7
000024:    7724           56001                           XCH      L                                     #  SAVE IN L FOR INDEXING
000025:
000026:    7725           75735                           MASK     OCT77770                              #  OBTAIN THE BIT INFORMATION
000027:    7726           00004                           INHINT                                         #  PREVENT INTERUPTS
000028:    7727           54061                           TS       ITEMP1                                #  STORE THE BIT INFORMATION TEMPORARIALY
000029:
000030:    7730           50001                           NDX      L
000031:    7731           40074                           CS       FLAGWRD0
000032:    7732           70061                           MASK     ITEMP1
000033:    7733           50001                           NDX      L
000034:    7734           26074                           ADS      FLAGWRD0
000035:    7735           00003                           RELINT                                         #  RELEASE INTERUPT INHIBIT
000036:
000037:    7736           24002                           INCR     Q                                     #  OBTAIN THE CORRECT RETURN ADDRESS
000038:    7737           00002                           TC       Q                                     #  RETURN
000039:
000040:    7740           54001        DOWNENT2           TS       L                                     #  WHICH FLAGWORD IS IT
000041:    7741           75037                           MASK     OCT7
000042:    7742           56001                           XCH      L                                     #  SAVE IN L FOR INDEXING
000043:
000044:    7743           75735                           MASK     OCT77770                              #  OBTAIN THE BIT INFORMATION
000045:    7744           40000                           COM                                            #  START TO PROCESS THE INFORMATION
000046:
000047:    7745           00004                           INHINT                                         #  PREVENT INTERUPTS
000048:    7746           50001                           NDX      L
000049:    7747           70074                           MASK     FLAGWRD0
000050:    7750           50001                           NDX      L
000051:    7751           54074                           TS       FLAGWRD0
000052:    7752           00003                           RELINT                                         #  RELEASE INTERUPT INHIBIT
000053:
000054:    7753           24002                           INCR     Q                                     #  OBTAIN THE CORRECT RETURN ADDRESS
000055:    7754           00002                           TC       Q                                     #  RETURN
000056:
000057:    7755     5037               OCT7               EQUALS   SEVEN
000058: 10,3766                                           BANK     10
000059:
000060:                                                                                                  #  UPFLAG AND DOWNFLAG ARE ENTIRELY GENERAL FLAG SETTING AND CLEARING SUBROUTINES.  USING THEM, WHETHER OR
000061:                                                                                                  #  NOT IN INTERRUPT, ONE MAY SET OR CLEAR ANY SINGLE, NAMED BIT IN ANY ERASABLE REGISTER, SUBJECT OF COURSE TO
000062:                                                                                                  #  EBANK SETTING.  A "NAMED" BIT, AS THE WORD IS USED HERE, IS ANY BIT WITH A NAME FORMALLY ASSIGNED BY THE YUL
000063:                                                                                                  #  ASSEMBLER.
000064:
000065:                                                                                                  #  AT PRESENT THE ONLY NAMED BITS ARE THOSE IN THE FLAGWORDS.  ASSEMBLER CHANGES WILL MAKE IT POSSIBLE TO
000066:                                                                                                  #  NAME ANY BIT IN ERASABLE MEMORY.
000067:
000068:                                                                                                  #  CALLING SEQUENCES ARE AS FOLLOWS:-
000069:                                                                                                  #                TC      UPFLAG                  TC      DOWNFLAG
000070:                                                                                                  #                ADRES   NAME OF FLAG            ADRES   NAME OF FLAG
000071:
000072:                                                                                                  #  RETURN IS TO THE LOCATION FOLLOWING THE "ADRES" ABOUT .58 MS AFTER THE "TC".
000073:                                                                                                  #  UPON RETURN A CONTAINS THE CURRENT FLAGWRD SETTING.
000074:
000075:    5562                                           BLOCK    02
000076:    4000                                           SETLOC   FFTAG1
000077:    4000                                           BANK
000078:    5562                                           COUNT*   $$/FLAG
000079:
000080:    5562           30002        UPFLAG             CA       Q
000081:    5563           05600                           TC       DEBIT
000082:    5564           40000                           COM                                            #  +(15 - BIT)
000083:    5565           00006                           EXTEND
000084:    5566           04001                           ROR      LCHAN                                 #  SET BIT
000085:    5567           50061        COMFLAG            INDEX    ITEMP1
000086:    5570           54074                           TS       FLAGWRD0
000087:    5571           22063                           LXCH     ITEMP3
000088:    5572           00003                           RELINT
000089:    5573           00001                           TC       L
000090:
000091:    5574           30002        DOWNFLAG           CA       Q
000092:    5575           05600                           TC       DEBIT
000093:    5576           70001                           MASK     L                                     #  RESET BIT
000094:    5577           15567                           TCF      COMFLAG
000095:
000096:    5600           65033        DEBIT              AD       ONE                                   #  GET DE BITS
000097:    5601           00004                           INHINT
000098:    5602           54063                           TS       ITEMP3
000099:    5603           35042                           CA       LOW4                                  #  DEC15
000100:    5604           54061                           TS       ITEMP1
000101:    5605           50063                           INDEX    ITEMP3
000102:    5606           27777                           CA       0          -1                         #  ADRES
000103:    5607           54001                           TS       L
000104:    5610           35035                           CA       ZERO
000105:    5611           00006                           EXTEND
000106:    5612           10061                           DV       ITEMP1                                #  A = FLAGWRD, L = (15 - BIT)
000107:    5613           52062                           DXCH     ITEMP1
000108:    5614           50061                           INDEX    ITEMP1
000109:    5615           30074                           CA       FLAGWRD0
000110:    5616           54001                           TS       L                                     #  CURRENT STATE
000111:    5617           50062                           INDEX    ITEMP2
000112:    5620           45015                           CS       BIT15                                 #  -(15 - BIT)
000113:    5621           00002                           TC       Q
000114:
000115:                                                                                                  #  DELAYJOB- A GENERAL ROUTINE TO DELAY A JOB A SPECIFIC AMOUNT OF TIME BEFORE PICKING UP AGAIN.
000116:
000117:                                                                                                  #  ENTRANCE REQUIREMENTS...
000118:                                                                                                  #                CAF     DT              DELAY JOB FOR DT CENTISECS
000119:                                                                                                  #                TC      BANKCALL
000120:                                                                                                  #                CADR    DELAYJOB
000121:
000122: 06,3770                                           BANK     06
000123: 00,2000                                           SETLOC   DLAYJOB
000124: 00,2000                                           BANK
000125:
000126:                                                                                                  #  THIS MUST REMAIN IN BANK 0 *****************************************
000127:
000128: 00,3732                                           COUNT    00/DELAY
000129:
000130: 00,3732           00004        DELAYJOB           INHINT
000131: 00,3733           54002                           TS       Q                                     #  STORE DELAY DT IN Q FOR DLY -1 IN
000132: 00,3734           36214                           CAF      DELAYNUM                              #  WAITLIST
000133: 00,3735           54070        DELLOOP            TS       RUPTREG1
000134: 00,3736           50000                           INDEX    A
000135: 00,3737           31141                           CA       DELAYLOC                              #  IS THIS DELAYLOC AVAILABLE
000136: 00,3740           00006                           EXTEND
000137: 00,3741           13746                           BZF      OK2DELAY                              #  YES
000138:
000139: 00,3742           10070                           CCS      RUPTREG1                              #  NO, TRY NEXT DELAYLOC
000140: 00,3743           13735                           TCF      DELLOOP
000141:
000142: 00,3744           07755                           TC       BAILOUT                               #  NO AVAILABLE LOCS AVAILABLE.
000143: 00,3745           31104                           OCT      31104
000144:
000145: 00,3746           33766        OK2DELAY           CA       TCSLEEP                               #  SET WAITLIST IMMEDIATE RETURN
000146: 00,3747           54061                           TS       WAITEXIT
000147:
000148: 00,3750           30004                           CA       FBANK
000149: 00,3751           60070                           AD       RUPTREG1                              #  STORE BBANK FOR TASK CALL
000150: 00,3752           54001                           TS       L
000151:
000152: 00,3753           33767                           CAF      WAKECAD                               #  STORE CADR FOR TASK CALL
000153: 00,3754           15271                           TCF      DLY2       -1                         #  DLY IS IN WAITLIST ROUTINE
000154:
000155: 00,3755           04725        TCGETCAD           TC       MAKECADR                              #  GET CALLERS FCADR
000156:
000157: 00,3756           50070                           INDEX    RUPTREG1
000158: 00,3757           55141                           TS       DELAYLOC                              #  SAVE DELAY CADRS
000159:
000160: 00,3760           05211                           TC       JOBSLEEP
000161:
000162: 00,3761           35035        WAKER              CAF      ZERO
000163: 00,3762           50006                           INDEX    BBANK
000164: 00,3763           57141                           XCH      DELAYLOC                              #  MAKE DELAYLOC AVAILABLE
000165: 00,3764           05215                           TC       JOBWAKE
000166:
000167: 00,3765           05340                           TC       TASKOVER
000168:
000169: 00,3766           03753        TCSLEEP            GENADR   TCGETCAD   -2
000170: 00,3767           03761        WAKECAD            GENADR   WAKER
000171:
000172:                                                                                                  #  GENTRAN, A BLOCK TRANSFER ROUTINE.
000173:                                                                                                  #  WRITTEN BY D. EYLES
000174:                                                                                                  #  MOD 1 BY KERNAN                               UTILITYM REV 17 11/18/67
000175:                                                                                                  #  MOD 2 BY SCHULENBERG  (REMOVE RELINT)  SKIPPER REV 4 2/28/68
000176:
000177:                                                                                                  #  THIS ROUTINE IS USEFULL FOR TRANSFERING N CONSECUTIVE ERASABLE OR FIXED QUANTITIES TO SOME OTHER N
000178:                                                                                                  #  CONSECUTIVE ERASABLE LOCATIONS.  IF BOTH BLOCKS OF DATA ARE IN SWITCHABLE EBANKS, THEY MUST BE IN THE SAME ONE.
000179:
000180:                                                                                                  #  GENTRAN IS CALLABLE IN A JOB AS WELL AS A RUPT.  THE CALLING SEQUENCE IS:
000181:                                                                                                  #        I       CA      N-1             # OF QUANTITIES MINUS ONE.
000182:                                                                                                  #        I +1    TC      GENTRAN         IN FIXED-FIXED.
000183:                                                                                                  #        I +2    ADRES   L               STARTING ADRES OF DATA TO BE MOVED.
000184:                                                                                                  #        I +3    ADRES   M               STARTING ADRES OF DUPLICATION BLOCK.
000185:                                                                                                  #        I +4                            RETURNS HERE.
000186:
000187:                                                                                                  #  GENTRAN TAKES 25 MCT'S (300 MICROSECONDS) PER ITEM + 5 MCT'S (60 MICS) FOR ENTERING AND EXITING.
000188:                                                                                                  #  A, L AND ITEMP1 ARE NOT PRESERVED.
000189:
000190:    5622                                           BLOCK    02
000191:    4000                                           SETLOC   FFTAG4
000192:    4000                                           BANK
000193:
000194:    5622     0061                                  EBANK=   ITEMP1
000195:
000196:    5622                                           COUNT*   $$/TRAN
000197:
000198:    5622           00004        GENTRAN            INHINT
000199:    5623           54061                           TS       ITEMP1                                #  SAVE N-1.
000200:    5624           50002                           INDEX    Q                                     #  C(Q) = ADRES L.
000201:    5625           60000                           AD       0                                     #  ADRES (L + N - 1).
000202:    5626           50000                           INDEX    A
000203:    5627           30000                           CA       0                                     #  C(ABOVE).
000204:    5630           54001                           TS       L                                     #  SAVE DATA.
000205:    5631           30061                           CA       ITEMP1
000206:    5632           50002                           INDEX    Q
000207:    5633           60001                           AD       1                                     #  ADRES (M + N - 1).
000208:    5634           50000                           INDEX    A
000209:    5635           22000                           LXCH     0                                     #  STUFF IT.
000210:    5636           10061                           CCS      ITEMP1                                #  LOOP UNTIL N-1 = 0.
000211:    5637           15623                           TCF      GENTRAN    +1
000212:    5640           16710                           TCF      Q+2                                   #  RETURN TO CALLER.
000213:
000214:                                                                                                  #  B5OFF         ZERO BIT 5 OF EXTVBACT, WHICH IS SET BY TESTXACT.
000215:                                                                                                  #  MAY BE USED AS NEEDED BY ANY EXTENDED VERB WHICH HAS DONE TESTXACT
000216:
000217:    5641                                           COUNT*   $$/EXTVB
000218:
000219:    5641           45027        B5OFF              CS       BIT5
000220:    5642           71044                           MASK     EXTVBACT
000221:    5643           55044                           TS       EXTVBACT
000222:    5644           05233                           TC       ENDOFJOB
000223:
000224:                                                                                                  #  SUBROUTINES TO TURN OFF AND TURN ON TRACKER FAIL LIGHT.
000225:
000226:    5645           00004        TRFAILOF           INHINT
000227:    5646           47704                           CS       OCT40200                              #  TURN OFF TRACKER LIGHT
000228:    5647           71036                           MASK     DSPTAB     +11D
000229:    5650           65015                           AD       BIT15
000230:    5651           55036                           TS       DSPTAB     +11D
000231:    5652           41331                           CS       OPTMODES                              #  TO INSURE THAT OCDU FAIL WILL GO ON
000232:    5653           75025                           MASK     BIT7                                  #  AGAIN IF IT WAS ON IN ADDITION TO
000233:    5654           27331                           ADS      OPTMODES                              #  TRACKER FAIL.
000234:
000235:    5655           00003        REQ                RELINT
000236:    5656           00002                           TC       Q
000237:
000238:    5657           00004        TRFAILON           INHINT
000239:    5660           41036                           CS       DSPTAB     +11D                       #  TURN ON
000240:    5661           77704                           MASK     OCT40200
000241:    5662           27036                           ADS      DSPTAB     +11D
000242:    5663           15655                           TCF      REQ
000243:
000244:
000245:
000246:

End of include-file SERVICE_ROUTINES.agc.  Parent file is MAIN.agc


