
Source Code


000002:                                                                                                  ## Copyright:   Public domain.
000003:                                                                                                  ## Filename:    SINGLE_PRECISION_SUBROUTINES.agc
000004:                                                                                                  ## Purpose:     A section of Comanche revision 067.
000005:                                                                                                  ##              It is part of the reconstructed source code for the flight
000006:                                                                                                  ##              software for the Command Module's (CM) Apollo Guidance Computer
000007:                                                                                                  ##              (AGC) for Apollo 12. No original listings of this program are
000008:                                                                                                  ##              available; instead, this file was created via dissassembly of
000009:                                                                                                  ##              dumps of Comanche 067 core rope modules and comparison with
000010:                                                                                                  ##              other AGC programs.
000011:                                                                                                  ## Assembler:   yaYUL
000012:                                                                                                  ## Contact:     Ron Burkey <info@sandroid.org>.
000013:                                                                                                  ## Website:     www.ibiblio.org/apollo/index.html
000014:                                                                                                  ## Mod history: 2023-08-16 MAS  Created from Comanche 055.
000015:
000016:    5110                                           BLOCK    02
000017:
000018:                                                                                                  #  SINGLE PRECISION SINE AND COSINE
000019:
000020:    5110                                           COUNT    02/INTER
000021:
000022:    5110           65016        SPCOS              AD       HALF                                  #  ARGUMENTS SCALED AT PI
000023:    5111           55075        SPSIN              TS       TEMK
000024:    5112           15114                           TCF      SPT
000025:    5113           41075                           CS       TEMK
000026:    5114           60000        SPT                DOUBLE
000027:    5115           55075                           TS       TEMK
000028:    5116           15127                           TCF      POLLEY
000029:    5117           57075                           XCH      TEMK
000030:    5120           51075                           INDEX    TEMK
000031:    5121           65014                           AD       LIMITS
000032:    5122           40000                           COM
000033:    5123           61075                           AD       TEMK
000034:    5124           55075                           TS       TEMK
000035:    5125           15127                           TCF      POLLEY
000036:    5126           15145                           TCF      ARG90
000037:    5127           00006        POLLEY             EXTEND
000038:    5130           71075                           MP       TEMK
000039:    5131           55076                           TS       SQ
000040:    5132           00006                           EXTEND
000041:    5133           75063                           MP       C5/2
000042:    5134           67706                           AD       C3/2
000043:    5135           00006                           EXTEND
000044:    5136           71076                           MP       SQ
000045:    5137           67666                           AD       C1/2
000046:    5140           00006                           EXTEND
000047:    5141           71075                           MP       TEMK
000048:    5142           20001                           DDOUBL
000049:    5143           55075                           TS       TEMK
000050:    5144           00002                           TC       Q
000051:    5145           50000        ARG90              INDEX    A
000052:    5146           45014                           CS       LIMITS
000053:    5147           00002                           TC       Q                                     #  RESULT SCALED AT 1
000054:
000055:                                                                                                  #  SPROOT WAS DELETED IN REV 51 OF MASTER. ASS. CONT. HAS CARDS.
000056:
000057:
000058:
000059:

End of include-file SINGLE_PRECISION_SUBROUTINES.agc.  Parent file is MAIN.agc


