
Source Code


000002:                                                                                                  ## Copyright:   Public domain.
000003:                                                                                                  ## Filename:    STABLE_ORBIT_-_P38-P39.agc
000004:                                                                                                  ## Purpose:     A section of Comanche revision 067.
000005:                                                                                                  ##              It is part of the reconstructed source code for the flight
000006:                                                                                                  ##              software for the Command Module's (CM) Apollo Guidance Computer
000007:                                                                                                  ##              (AGC) for Apollo 12. No original listings of this program are
000008:                                                                                                  ##              available; instead, this file was created via dissassembly of
000009:                                                                                                  ##              dumps of Comanche 067 core rope modules and comparison with
000010:                                                                                                  ##              other AGC programs.
000011:                                                                                                  ## Assembler:   yaYUL
000012:                                                                                                  ## Contact:     Ron Burkey <info@sandroid.org>.
000013:                                                                                                  ## Website:     www.ibiblio.org/apollo/index.html
000014:                                                                                                  ## Mod history: 2023-08-16 MAS  Created from Comanche 055.
000015:
000016:                                                                                                  #  STABLE ORBIT RENDEZVOUS PROGRAMS (P38 AND P78)
000017:
000018:                                                                                                  #  MOD NO -1             LOG SECTION - STABLE ORBIT - P38-P39
000019:                                                                                                  #  MOD BY RUDNICKI.S     DATE 25JAN68
000020:
000021:                                                                                                  #  FUNCTIONAL DESCRIPTION
000022:
000023:                                                                                                  #        P38 AND P78 CALCULATE THE REQUIRED DELTA V AND OTHER INITIAL
000024:                                                                                                  #        CONDITIONS REQUIRED BY THE AGC TO (1) PUT THE ACTIVE VEHICLE
000025:                                                                                                  #        ON A TRANSFER TRAJECTORY THAT INTERCEPTS THE PASSIVE VEHICLE
000026:                                                                                                  #        ORBIT A GIVEN DISTANCE, DELTA R, EITHER AHEAD OF OR BEHIND THE
000027:                                                                                                  #        PASSIVE VEHICLE AND (2) ACTUALLY PLACE THE ACTIVE VEHICLE IN THE
000028:                                                                                                  #        PASSIVE VEHICLE ORBIT WITH A DELTA R SEPARATION BETWEEN THE TWO
000029:                                                                                                  #        VEHICLES
000030:
000031:                                                                                                  #  CALLING SEQUENCE
000032:
000033:                                                                                                  #        ASTRONAUT REQUEST THRU DSKY
000034:
000035:                                                                                                  #        V37E38E         IF THIS VEHICLE IS ACTIVE VEHICLE
000036:                                                                                                  #        V37E78E         IF OTHER VEHICLE IS ACTIVE VEHICLE
000037:
000038:                                                                                                  #  INPUT
000039:
000040:                                                                                                  #        (1)     SOI MANEUVER
000041:
000042:                                                                                                  #                (A)  TIG        TIME OF SOI MANEUVER
000043:                                                                                                  #                (B)  CENTANG    ORBITAL CENTRAL ANGLE OF THE PASSIVE VEHICLE
000044:                                                                                                  #                                DURING TRANSFER FROM TIG TO TIME OF INTERCEPT
000045:                                                                                                  #                (C)  DELTAR     THE DESIRED SEPARATION OF THE TWO VEHICLES
000046:                                                                                                  #                                SPECIFIED AS A DISTANCE ALONG THE PASSIVE VEHICLE
000047:                                                                                                  #                                ORBIT
000048:                                                                                                  #                (D)  OPTION     EQUALS 1 FOR SOI
000049:
000050:                                                                                                  #        (2)     SOR MANEUVER
000051:
000052:                                                                                                  #                (A)  TIG        TIME OF SOR MANEUVER
000053:                                                                                                  #                (B)  CENTANG    AN OPTIONAL RESPECIFICATION OF 1 (B) ABOVE
000054:                                                                                                  #                (C)  OPTION     EQUALS 2 FOR SOR
000055:                                                                                                  #                (D)  DELTTIME   THE TIME REQUIRED TO TRAVERSE DELTA R WHEN
000056:                                                                                                  #                                TRAVELING AT A VELOCITY EQUAL TO THE HORIZONTAL
000057:                                                                                                  #                                VELOCITY OF THE PASSIVE VEHICLE - SAVED FROM
000058:                                                                                                  #                                SOI PHASE
000059:                                                                                                  #                (E)  TINT       TIME OF INTERCEPT (SOI) - SAVED FROM SOI PHASE
000060:
000061:                                                                                                  #  OUTPUT
000062:
000063:                                                                                                  #        (1)  TRKMKCNT   NUMBER OF MARKS
000064:                                                                                                  #        (2)  TTOGO      TIME TO GO
000065:                                                                                                  #        (3)  +MGA       MIDDLE GIMBAL ANGLE
000066:                                                                                                  #        (4)  DSPTEM1    TIME OF INTERCEPT OF PASSIVE VEHICLE ORBIT
000067:                                                                                                  #                        (FOR SOI ONLY)
000068:                                                                                                  #        (5)  POSTTPI    PERIGEE ALTITUDE OF ACTIVE VEHICLE ORBIT AFTER
000069:                                                                                                  #                        THE SOI (SOR) MANEUVER
000070:                                                                                                  #        (6)  DELVTPI    MAGNITUDE OF DELTA V AT SOI (SOR) TIME
000071:                                                                                                  #        (7)  DELVTPF    MAGNITUDE OF DELTA V AT INTERCEPT TIME
000072:                                                                                                  #        (8)  DELVLVC    DELTA VELOCITY AT SOI (AND SOR) - LOCAL VERTICAL
000073:                                                                                                  #                        COORDINATES
000074:
000075:                                                                                                  #  SUBROUTINES USED
000076:
000077:                                                                                                  #        AVFLAGA
000078:                                                                                                  #        AVFLAGP
000079:                                                                                                  #        VNDSPLY
000080:                                                                                                  #        BANKCALL
000081:                                                                                                  #        GOFLASHR
000082:                                                                                                  #        GOTOPOOH
000083:                                                                                                  #        BLANKET
000084:                                                                                                  #        ENDOFJOB
000085:                                                                                                  #        PREC/TT
000086:                                                                                                  #        SELECTMU
000087:                                                                                                  #        INTRPVP
000088:                                                                                                  #        MAINRTNE
000089:
000090: 04,2742                                           BANK     04
000091: 04,2000                                           SETLOC   STBLEORB
000092: 04,2000                                           BANK
000093:
000094: 04,2742  E4,1770                                  EBANK=   SUBEXIT
000095: 04,2742                                           COUNT*   $$/P3879
000096:
000097: 04,2742           04627        P38                TC       AVFLAGA                               #  THIS VEHICLE ACTIVE
000098: 04,2743           02745                           TC       +2
000099: 04,2744           04642        P78                TC       AVFLAGP                               #  OTHER VEHICLE ACTIVE
000100: 04,2745           04647                           TC       P20FLGON                              #  SET UPDATFLG, TRACKFLG
000101: 04,2746           33274                           CAF      V06N33SR                              #  DISPLAY TIG
000102: 04,2747           03263                           TC       VNDSPLY
000103: 04,2750           33275                           CAF      V06N55SR                              #  DISPLAY CENTANG
000104: 04,2751           04676                           TCR      BANKCALL
000105: 04,2752           21057                           CADR     GOFLASHR
000106: 04,2753           14106                           TCF      GOTOPOOH                              #  TERMINATE
000107: 04,2754           12761                           TCF      +5                                    #  PROCEED
000108: 04,2755           12750                           TCF      -5                                    #  RECYCLE
000109: 04,2756           36214                           CAF      THREE                                 #  IMMEDIATE RETURN - BLANK R1, R2
000110: 04,2757           05542                           TCR      BLANKET
000111: 04,2760           15233                           TCF      ENDOFJOB
000112: 04,2761           35036                           CAF      FIVE
000113: 04,2762           55131                           TS       OPTION1
000114: 04,2763           35033                           CAF      ONE
000115: 04,2764           55132                           TS       OPTION2                               #  OPTION CODE IS SET TO 1
000116: 04,2765           33276                           CAF      V04N06SR                              #  DISPLAY OPTION CODE -1 = SOI, 2 = SOR
000117: 04,2766           04676                           TCR      BANKCALL
000118: 04,2767           21057                           CADR     GOFLASHR
000119: 04,2770           14106                           TCF      GOTOPOOH                              #  TERMINATE
000120: 04,2771           12776                           TCF      +5                                    #  PROCEED
000121: 04,2772           12765                           TCF      -5                                    #  RECYCLE
000122: 04,2773           35031                           CAF      BIT3                                  #  IMMEDIATE RETURN - BLANK R3
000123: 04,2774           05542                           TCR      BLANKET
000124: 04,2775           15233                           TCF      ENDOFJOB
000125: 04,2776           06006                           TC       INTPRET
000126: 04,2777           77731                           SSP
000127: 04,3000           03766                                    NN
000128: 04,3001           00002                                    2
000129: 04,3002           70535                           SLOAD    SR1
000130: 04,3003           01133                                    OPTION2
000131: 04,3004           71230                           BHIZ     DLOAD
000132: 04,3005           11013                                    OPTN1
000133: 04,3006           03656                                    TINT
000134: 04,3007           02611                           STORE    TINTSOI                               #  STORE FOR SOR PHASE
000135: 04,3010           77614                           CLRGO
000136: 04,3011           01230                                    OPTNSW                                #  OPTNSW; ON = SOI, OFF = SOR
000137: 04,3012           11042                                    JUNCTN1
000138: 04,3013           43014        OPTN1              SET      CLEAR                                 #  SOI
000139: 04,3014           01070                                    OPTNSW
000140: 04,3015           00670                                    UPDATFLG
000141: 04,3016           77624                           CALL
000142: 04,3017           11216                                    PREC/TT
000143: 04,3020           43214                           SET      DAD
000144: 04,3021           00470                                    UPDATFLG
000145: 04,3022           03413                                    TIG
000146: 04,3023           03656                           STORE    TINT                                  #  TI = TIG + TF
000147: 04,3024           01046                           STORE    DSPTEM1                               #  FOR DISPLAY
000148: 04,3025           77776                           EXIT
000149: 04,3026           33277                           CAF      V06N57SR                              #  DISPLAY DELTA R
000150: 04,3027           04676                           TCR      BANKCALL
000151: 04,3030           21057                           CADR     GOFLASHR
000152: 04,3031           14106                           TCF      GOTOPOOH                              #  TERMINATE
000153: 04,3032           13037                           TCF      +5                                    #  PROCEED
000154: 04,3033           13026                           TCF      -5                                    #  RECYCLE
000155: 04,3034           36211                           CAF      SIX                                   #  IMMEDIATE RETURN - BLANK R2, R3
000156: 04,3035           05542                           TCR      BLANKET
000157: 04,3036           15233                           TCF      ENDOFJOB
000158: 04,3037           33300                           CAF      V06N34SR                              #  DISPLAY TIME OF INTERCEPT
000159: 04,3040           03263                           TC       VNDSPLY
000160: 04,3041           06006                           TC       INTPRET
000161: 04,3042           45014        JUNCTN1            CLEAR    CALL
000162: 04,3043           04266                                    P39/79SW
000163: 04,3044           10712                                    SELECTMU                              #  SELECT MU, CLEAR FINALFLG, GO TO VN1645
000164: 04,3045           77624        RECYCLE            CALL
000165: 04,3046           11216                                    PREC/TT
000166: 04,3047           71214                           BOFF     DLOAD
000167: 04,3050           01350                                    OPTNSW
000168: 04,3051           11071                                    OPTN2
000169: 04,3052           03656                                    TINT
000170: 04,3053           34041                           STCALL   TDEC1                                 #  PRECISION UPDATE PASSIVE VEHICLE TO
000171: 04,3054           11247                                    INTRPVP                               #  INTERCEPT TIME
000172: 04,3055           53575                           VLOAD    UNIT
000173: 04,3056           00001                                    RATT                                  #  RP/(RP)
000174: 04,3057           47315                           PDVL     VXV
000175: 04,3060           00007                                    VATT
000176: 04,3061           60246                           ABVAL    NORM                                  #  (VP X RP/(RP))
000177: 04,3062           00047                                    X1
000178: 04,3063           56325                           PDDL     DDV
000179: 04,3064           02611                                    DELTAR
000180: 04,3065           77657                           SL*                                            #  DELTA R / (VP X RP/RP)
000181: 04,3066           20172                                    0          -7,1
000182: 04,3067           36613                           STCALL   DELTTIME                              #  DELTA T = (RP) DELTA R / (VP X RP)
000183: 04,3070           11075                                    JUNCTN2
000184: 04,3071           43345        OPTN2              DLOAD    DAD
000185: 04,3072           02611                                    TINTSOI
000186: 04,3073           00037                                    T
000187: 04,3074           03656                           STORE    TINT                                  #  TI = TI + TF
000188: 04,3075           45345        JUNCTN2            DLOAD    DSU
000189: 04,3076           03656                                    TINT
000190: 04,3077           02613                                    DELTTIME
000191: 04,3100           02615                           STORE    TARGTIME                              #  TT = TI - DELTA T
000192:
000193:                                                                                                  #  .... MAINRTNE ....
000194:
000195:                                                                                                  #  SUBROUTINES USED
000196:
000197:                                                                                                  #        S3435.25
000198:                                                                                                  #        PERIAPO1
000199:                                                                                                  #        SHIFTR1
000200:                                                                                                  #        VNDSPLY
000201:                                                                                                  #        BANKCALL
000202:                                                                                                  #        GOFLASH
000203:                                                                                                  #        GOTOPOOH
000204:                                                                                                  #        VN1645
000205:
000206: 04,3101           34041        MAINRTNE           STCALL   TDEC1                                 #  PRECISION UPDATE PASSIVE VEHICLE TO
000207: 04,3102           11247                                    INTRPVP                               #        TARGET TIME
000208: 04,3103           77745                           DLOAD
000209: 04,3104           03413                                    TIG
000210: 04,3105           03503                           STORE    INTIME
000211: 04,3106           77331                           SSP      VLOAD
000212: 04,3107           02371                                    SUBEXIT
000213: 04,3110           11114                                    TEST3979
000214: 04,3111           00001                                    RATT
000215: 04,3112           77624                           CALL
000216: 04,3113           72546                                    S3435.25
000217: 04,3114           43014        TEST3979           BOFF     BON
000218: 04,3115           04346                                    P39/79SW
000219: 04,3116           11125                                    MAINRTN1
000220: 04,3117           01311                                    FINALFLG
000221: 04,3120           11123                                    P39P79
000222: 04,3121           77614                           SET
000223: 04,3122           00470                                    UPDATFLG
000224: 04,3123           77776        P39P79             EXIT
000225: 04,3124           03152                           TC       DSPLY81                               #  FOR P39 AND P79
000226: 04,3125           51575        MAINRTN1           VLOAD    ABVAL
000227: 04,3126           03646                                    DELVEET3
000228: 04,3127           26635                           STOVL    DELVTPI                               #  DELTA V
000229: 04,3130           03640                                    VPASS4
000230: 04,3131           51451                           VSU      ABVAL
000231: 04,3132           03620                                    VTPRIME
000232: 04,3133           26637                           STOVL    DELVTPF                               #  DELTA V (FINAL) = V'T - VT
000233: 04,3134           03540                                    RACT3
000234: 04,3135           45115                           PDVL     CALL
000235: 04,3136           03612                                    VIPRIME
000236: 04,3137           45153                                    PERIAPO1                              #  GET PERIGEE ALTITUDE
000237: 04,3140           77624                           CALL
000238: 04,3141           45263                                    SHIFTR1
000239: 04,3142           02641                           STORE    POSTTPI
000240: 04,3143           43014                           BON      SET
000241: 04,3144           01311                                    FINALFLG
000242: 04,3145           11147                                    DSPLY58
000243: 04,3146           00470                                    UPDATFLG
000244: 04,3147           77776        DSPLY58            EXIT
000245: 04,3150           33301                           CAF      V06N58SR                              #  DISPLAY HP, DELTA V, DELTA V (FINAL)
000246: 04,3151           03263                           TC       VNDSPLY
000247: 04,3152           33302        DSPLY81            CAF      V06N81SR                              #  DISPLAY DELTA V (LV)
000248: 04,3153           03263                           TC       VNDSPLY
000249: 04,3154           06006                           TC       INTPRET
000250: 04,3155           77214                           CLEAR    VLOAD
000251: 04,3156           01267                                    XDELVFLG
000252: 04,3157           03646                                    DELVEET3
000253: 04,3160           37646                           STCALL   DELVSIN
000254: 04,3161           73002                                    VN1645                                #  DISPLAY TRKMKCNT, TTOGO, +MGA
000255: 04,3162           52014                           BON      GOTO
000256: 04,3163           04306                                    P39/79SW
000257: 04,3164           11203                                    P39/P79B
000258: 04,3165           11045                                    RECYCLE
000259:
000260:                                                                                                  #  STABLE ORBIT MIDCOURSE PROGRAM (P39 AND P79)
000261:
000262:                                                                                                  #  MOD NO -1             LOG SECTION - STABLE ORBIT - P38-P39
000263:                                                                                                  #  MOD BY RUDNICKI.S     DATE 25JAN68
000264:
000265:                                                                                                  #  FUNCTIONAL DESCRIPTION
000266:
000267:                                                                                                  #        P39 AND P79 CALCULATE THE REQUIRED DELTA V AND OTHER INITIAL
000268:                                                                                                  #        CONDITIONS REQUIRED BY THE AGC TO MAKE A MIDCOURSE CORRECTION
000269:                                                                                                  #        MANEUVER AFTER COMPLETING THE SOI MANEUVER BUT BEFORE MAKING
000270:                                                                                                  #        THE SOR MANEUVER
000271:
000272:                                                                                                  #  CALLING SEQUENCE
000273:
000274:                                                                                                  #        ASTRONAUT REQUEST THRU DSKY
000275:
000276:                                                                                                  #        V37E39E         IF THIS VEHICLE IS ACTIVE VEHICLE
000277:                                                                                                  #        V37E79E         IF OTHER VEHICLE IS ACTIVE VEHICLE
000278:
000279:                                                                                                  #  INPUT
000280:
000281:                                                                                                  #        (1)  TPASS4     TIME OF INTERCEPT - SAVED FROM P38/P78
000282:                                                                                                  #        (2)  TARGTIME   TIME THAT PASSIVE VEHICLE IS AT INTERCEPT POINT -
000283:                                                                                                  #                        SAVED FROM P38/P78
000284:
000285:                                                                                                  #  OUTPUT
000286:
000287:                                                                                                  #        (1)  TRKMKCNT   NUMBER OF MARKS
000288:                                                                                                  #        (2)  TTOGO      TIME TO GO
000289:                                                                                                  #        (3)  +MGA       MIDDLE GIMBAL ANGLE
000290:                                                                                                  #        (4)  DELVLVC    DELTA VELOCITY AT MID - LOCAL VERTICAL COORDINATES
000291:
000292:                                                                                                  #  SUBROUTINES USED
000293:
000294:                                                                                                  #        AVFLAGA
000295:                                                                                                  #        AVFLAGP
000296:                                                                                                  #        LOADTIME
000297:                                                                                                  #        SELECTMU
000298:                                                                                                  #        PRECSET
000299:                                                                                                  #        S34/35.1
000300:                                                                                                  #        MAINRTNE
000301:
000302: 04,3166           04627        P39                TC       AVFLAGA                               #  THIS VEHICLE ACTIVE
000303: 04,3167           00006                           EXTEND
000304: 04,3170           31422                           DCA      ATIGINC
000305: 04,3171           03175                           TC       P39/P79A
000306: 04,3172           04642        P79                TC       AVFLAGP                               #  OTHER VEHICLE ACTIVE
000307: 04,3173           00006                           EXTEND
000308: 04,3174           31424                           DCA      PTIGINC
000309: 04,3175           53764        P39/P79A           DXCH     KT                                    #  TIME TO PREPARE FOR BURN
000310: 04,3176           04647                           TC       P20FLGON                              #  SET UPDATFLG, TRACKFLG
000311: 04,3177           06006                           TC       INTPRET
000312: 04,3200           45014                           SET      CALL
000313: 04,3201           04066                                    P39/79SW
000314: 04,3202           10712                                    SELECTMU                              #  SELECT MU, CLEAR FINALFLG, GO TO VN1645
000315: 04,3203           43234        P39/P79B           RTB      DAD
000316: 04,3204           45510                                    LOADTIME
000317: 04,3205           02364                                    KT
000318: 04,3206           03413                           STORE    TIG                                   #  TIG = T (PRESENT) + PREPARATION TIME
000319: 04,3207           34041                           STCALL   TDEC1                                 #  PRECISION UPDATE ACTIVE AND PASSIVE
000320: 04,3210           45215                                    PRECSET                               #        VEHICLES TO TIG
000321: 04,3211           77624                           CALL
000322: 04,3212           74000                                    S34/35.1                              #  GET UNIT NORMAL
000323: 04,3213           52145                           DLOAD    GOTO
000324: 04,3214           02615                                    TARGTIME
000325: 04,3215           11101                                    MAINRTNE                              #  CALCULATE DELTA V AND DELTA V (LV)
000326:
000327:                                                                                                  #  .... PREC/TT ....
000328:
000329:                                                                                                  #  SUBROUTINES USED
000330:
000331:                                                                                                  #        PRECSET
000332:                                                                                                  #        TIMETHET
000333:                                                                                                  #        S34/35.1
000334:
000335: 04,3216           71220        PREC/TT            STQ      DLOAD
000336: 04,3217           02367                                    RTRN
000337: 04,3220           03413                                    TIG
000338: 04,3221           34041                           STCALL   TDEC1                                 #  PRECISION UPDATE ACTIVE AND PASSIVE
000339: 04,3222           45215                                    PRECSET                               #        VEHICLES TO TIG
000340: 04,3223           53775                           VLOAD    VSR*
000341: 04,3224           03554                                    RPASS3
000342: 04,3225           57176                                    0,2
000343: 04,3226           16657                           STODL    RVEC
000344: 04,3227           03754                                    CENTANG
000345: 04,3230           71406                           PUSH     COS
000346: 04,3231           16734                           STODL    CSTH
000347: 04,3232           43156                           SIN      SET
000348: 04,3233           03466                                    RVSW
000349: 04,3234           26732                           STOVL    SNTH
000350: 04,3235           03562                                    VPASS3
000351: 04,3236           77657                           VSR*
000352: 04,3237           57176                                    0,2
000353: 04,3240           36746                           STCALL   VVEC                                  #  GET TRANSFER TIME BASED ON CENTANG OF
000354: 04,3241           24744                                    TIMETHET                              #        PASSIVE VEHICLE
000355: 04,3242           77624                           CALL
000356: 04,3243           74000                                    S34/35.1                              #  GET UNIT NORMAL
000357: 04,3244           52145                           DLOAD    GOTO
000358: 04,3245           00037                                    T
000359: 04,3246           02367                                    RTRN
000360:
000361:                                                                                                  #  .... INTRPVP ....
000362:
000363:                                                                                                  #  SUBROUTINES USED
000364:
000365:                                                                                                  #        CSMPREC
000366:                                                                                                  #        LEMPREC
000367:
000368: 04,3247           43020        INTRPVP            STQ      BOFF                                  #  PRECISION UPDATE PASSIVE VEHICLE TO
000369: 04,3250           02367                                    RTRN                                  #        TDEC1
000370: 04,3251           01352                                    AVFLAG
000371: 04,3252           11257                                    OTHERV
000372: 04,3253           77624                           CALL
000373: 04,3254           27101                                    CSMPREC
000374: 04,3255           77650                           GOTO
000375: 04,3256           02367                                    RTRN
000376: 04,3257           77624        OTHERV             CALL
000377: 04,3260           27115                                    LEMPREC
000378: 04,3261           77650                           GOTO
000379: 04,3262           02367                                    RTRN
000380:
000381:                                                                                                  #  .... VNDSPLY ....
000382:
000383:                                                                                                  #  SUBROUTINES USED
000384:
000385:                                                                                                  #        BANKCALL
000386:                                                                                                  #        GOFLASH
000387:                                                                                                  #        GOTOPOOH
000388:
000389: 04,3263           00006        VNDSPLY            EXTEND                                         #  FLASH DISPLAY
000390: 04,3264           23767                           QXCH     RTRN
000391: 04,3265           55765                           TS       VERBNOUN
000392: 04,3266           31765                           CA       VERBNOUN
000393: 04,3267           04676                           TCR      BANKCALL
000394: 04,3270           20720                           CADR     GOFLASH
000395: 04,3271           14106                           TCF      GOTOPOOH                              #  TERMINATE
000396: 04,3272           01767                           TC       RTRN                                  #  PROCEED
000397: 04,3273           13266                           TCF      -5                                    #  RECYCLE
000398: 04,3274           01441        V06N33SR           VN       0633
000399: 04,3275           01467        V06N55SR           VN       0655
000400: 04,3276           01006        V04N06SR           VN       0406
000401: 04,3277           01471        V06N57SR           VN       0657
000402: 04,3300           01442        V06N34SR           VN       0634
000403: 04,3301           01472        V06N58SR           VN       0658
000404: 04,3302           01521        V06N81SR           VN       0681
000405:

End of include-file STABLE_ORBIT_-_P38-P39.agc.  Parent file is MAIN.agc


