
Source Code


000002:                                                                                                  ## Copyright:   Public domain.
000003:                                                                                                  ## Filename:    SXTMARK.agc
000004:                                                                                                  ## Purpose:     A section of Comanche revision 067.
000005:                                                                                                  ##              It is part of the reconstructed source code for the flight
000006:                                                                                                  ##              software for the Command Module's (CM) Apollo Guidance Computer
000007:                                                                                                  ##              (AGC) for Apollo 12. No original listings of this program are
000008:                                                                                                  ##              available; instead, this file was created via dissassembly of
000009:                                                                                                  ##              dumps of Comanche 067 core rope modules and comparison with
000010:                                                                                                  ##              other AGC programs.
000011:                                                                                                  ## Assembler:   yaYUL
000012:                                                                                                  ## Contact:     Ron Burkey <info@sandroid.org>.
000013:                                                                                                  ## Website:     www.ibiblio.org/apollo/index.html
000014:                                                                                                  ## Mod history: 2023-08-16 MAS  Created from Comanche 055.
000015:
000016:                                                                                                  #  PROGRAM NAME - SXTMARK                                        DATE - 5 APRIL 1967
000017:                                                                                                  #  PROGRAM MODIFIED BY 258/278 PROGRAMMERS                       LOG SECTION SXTMARK
000018:                                                                                                  #  MOD BY - R. MELANSON TO ADD DOCUMENTATION                     ASSEMBLY SUNDISK REV. 116
000019:                                                                                                  #
000020:                                                                                                  #  FUNCTIONAL DESCRIPTION-
000021:
000022:                                                                                                  #        SXTMARK IS CALLED FROM INTERNAL ROUTINES WHICH MAY REQUIRE STAR OR LANDMARK MARKINGS BY THE ASTRONAUT.  IF
000023:                                                                                                  #        THE MARK SYSTEM IS NOT IN USE, SXTMARK RESERVES A VAC AREA FOR MARKING AND REQUESTS EXECUTION OF THE MKVB51
000024:                                                                                                  #        ROUTINE VIA THE EXECUTIVE JOB PRIORITY LIST.  R21 USES THIS ROUTINE TO DETERMINE IF THE MARK SYSTEM CAN BE
000025:                                                                                                  #        USED.  IF YES, SXTMARK RETURNS TO R21 TO PERFORM ITS OWN MARK REQUESTS VIA THE V51 FLASH.
000026:
000027:                                                                                                  #  CALLING SEQUENCE-
000028:
000029:                                                                                                  #        CAF     (NO. MARK REQUESTS IN BITS 1-3 OF A)
000030:                                                                                                  #        TC      BANKCALL
000031:                                                                                                  #        CADR    SXTMARK
000032:
000033:                                                                                                  #  NORMAL EXIT MODE-
000034:
000035:                                                                                                  #        SWRETURN
000036:
000037:                                                                                                  #  ALARM OR ABORT EXIT MODE-
000038:
000039:                                                                                                  #        ABORT
000040:
000041:                                                                                                  #  OUTPUT-
000042:
000043:                                                                                                  #        1)      MARKSTAT CONTAINS MARK VALUE (BITS 14-12) AND VAC AREA ADDRESS
000044:                                                                                                  #        2)      QPRET = VAC AREA POINTER VALUE
000045:                                                                                                  #        3)      1ST WORD OF RESERVED VAC AREA SET TO +0
000046:                                                                                                  #        4)      PRIO32 PLACED IN A REGISTER
000047:
000048:                                                                                                  #  ERASABLE INITIALIZATION-
000049:
000050:                                                                                                  #        1)      BITS 1-3 OF A = NO. MARKS REQUESTED
000051:                                                                                                  #        2)      BITS 2,3 OF EXTVBACT = 0
000052:                                                                                                  #        3)      A VAC AREA MUST BE AVAILABLE (WORD 1 = ADDRESS OF VAC AREA)
000053:
000054:                                                                                                  #  DEBRIS-
000055:
000056:                                                                                                  #        A,Q,L,RUPTREG1,MARKSTAT,QPRET,BIT2 OF EXTVBACT
000057:
000058: 13,2036                                           BANK     13
000059: 07,2000                                           SETLOC   SXTMARKE
000060: 07,2000                                           BANK
000061:
000062: 07,2002  E7,1725                                  EBANK=   MRKBUF1
000063: 07,2002                                           COUNT    07/SXTMK
000064:
000065: 07,2002           00004        SXTMARK            INHINT
000066: 07,2003           54070                           TS       RUPTREG1                              #  NUMBER OF MARKS WANTED
000067:
000068: 07,2004           36211                           CAF      SIX                                   #  BIT2 = MARKING SYSTEM IN USE
000069: 07,2005           71044                           MASK     EXTVBACT                              #  BIT3 = EXTENDED VERB IN PROGRESS
000070: 07,2006           10000                           CCS      A
000071: 07,2007           02013                           TC       MKABORT                               #  SET THEREFORE ABORT
000072: 07,2010           35032                           CAF      BIT2                                  #  NOT SET
000073: 07,2011           27044                           ADS      EXTVBACT                              #  SET IT, RESET IN ENDMARK
000074: 07,2012           02015                           TC       MARKOK                                #  YES, FIND VAC AREA
000075:
000076: 07,2013           07755        MKABORT            TC       BAILOUT
000077: 07,2014           31211                           OCT      31211
000078: 07,2015           10400        MARKOK             CCS      VAC1USE                               #  FIND VAC AREA
000079: 07,2016           02031                           TC       MKVACFND
000080: 07,2017           10454                           CCS      VAC2USE
000081: 07,2020           02031                           TC       MKVACFND
000082: 07,2021           10530                           CCS      VAC3USE
000083: 07,2022           02031                           TC       MKVACFND
000084: 07,2023           10604                           CCS      VAC4USE
000085: 07,2024           02031                           TC       MKVACFND
000086: 07,2025           10660                           CCS      VAC5USE
000087: 07,2026           02031                           TC       MKVACFND
000088: 07,2027           07755                           TC       BAILOUT
000089: 07,2030           31207                           OCT      31207
000090:
000091: 07,2031           65032        MKVACFND           AD       TWO                                   #  ADDRESS OF VAC AREA
000092: 07,2032           55330                           TS       MARKSTAT
000093: 07,2033           50000                           INDEX    A
000094: 07,2034           54052                           TS       QPRET                                 #  STORE NEXT AVAILABLE MARK SLOT
000095:
000096: 07,2035           35035                           CAF      ZERO                                  #  SHOW VAC AREA OCCUPIED
000097: 07,2036           51330                           INDEX    MARKSTAT
000098: 07,2037           53777                           TS       0          -1
000099:
000100: 07,2040           05400                           TC       CHECKMM                               #  BACKUP MARK ROUTINE USES SXTMARK
000101: 07,2041           00065                           MM       53         B-14
000102: 07,2042           12044                           TCF      +2
000103: 07,2043           14711                           TCF      SWRETURN
000104: 07,2044           05400                           TC       CHECKMM
000105: 07,2045           00066                           MM       54         B-14
000106: 07,2046           12050                           TCF      +2
000107: 07,2047           14711                           TCF      SWRETURN
000108: 07,2050           35020                           CAF      BIT12                                 #  DESIRED NUMBER OF MARKS IN 12-14
000109: 07,2051           00006                           EXTEND
000110: 07,2052           70070                           MP       RUPTREG1
000111: 07,2053           56001                           XCH      L
000112: 07,2054           27330                           ADS      MARKSTAT
000113:
000114: 07,2055           37667                           CAF      PRIO32                                #  ENTER MARK JOB
000115: 07,2056           05150                           TC       NOVAC
000116: 07,2057     1330                                  EBANK=   MARKSTAT
000117: 07,2057           02347 16062                     2CADR    MKVB51
000118:
000119: 07,2061           00003                           RELINT
000120: 07,2062           14711                           TCF      SWRETURN                              #  SAME AS MODEEXIT
000121:
000122:                                                                                                  #  PROGRAM NAME - MKRELEAS                                       DATE - 5 APRIL 1967
000123:                                                                                                  #  PROGRAM MODIFIED BY 258/278 PROGRAMMERS                       LOG SECTION SXTMARK
000124:                                                                                                  #  MOD BY - R. MELANSON TO ADD DOCUMENTATION                     ASSEMBLY SUNDISK REV. 116
000125:
000126:                                                                                                  #  FUNCTIONAL DESCRIPTION-
000127:
000128:                                                                                                  #        MKRELEAS IS EXECUTED BY INTERNAL ROUTINES TO RELEASE THE MARK SYSTEM TO MAKE IT AVAILABLE TO OTHER INTERNAL
000129:                                                                                                  #        SYSTEM ROUTINES.  IT ALSO CLEARS THE COARSE OPTICS FLAG BIT AND DISABLES THE OPTICS ERROR COUNTER.
000130:
000131:                                                                                                  #  CALLING SEQUENCE-
000132:
000133:                                                                                                  #        TC      BANKCALL
000134:                                                                                                  #        CADR    MKRELEAS
000135:
000136:                                                                                                  #  NORMAL EXIT MODE-
000137:
000138:                                                                                                  #        SWRETURN
000139:
000140:                                                                                                  #  ALARM OR ABORT EXIT MODE-  NONE
000141:
000142:                                                                                                  #  OUTPUT-
000143:
000144:                                                                                                  #        1)      BIT9 OPTMODES SET TO 0
000145:                                                                                                  #        2)      OPTIND SET TO -1
000146:                                                                                                  #        3)      1ST WORD OF VAC AREA SET TO VAC ADDRESS TO SIGNIFY AVAILABILITY.
000147:                                                                                                  #        4)      MARKSTAT CLEARED
000148:                                                                                                  #        5)      BIT2 CHANNEL 12 SET TO 0
000149:
000150:                                                                                                  #  ERASABLE INITIALIZATION-  NONE
000151:
000152:                                                                                                  #  DEBRIS-
000153:
000154:                                                                                                  #        A,MARKSTAT,BIT9 OPTMODES,OPTIND,BIT2 CHANNEL 12
000155:
000156: 07,2063           35035        MKRELEAS           CAF      ZERO                                  #  SHOW MARK SYSTEM NOW AVAILABLE
000157: 07,2064           57330                           XCH      MARKSTAT
000158: 07,2065           75062                           MASK     LOW9
000159: 07,2066           10000                           CCS      A
000160: 07,2067           50000                           INDEX    A
000161: 07,2070           54000                           TS       0
000162: 07,2071           00004        MKRLEES            INHINT
000163: 07,2072           45023                           CS       BIT9                                  #  COARSE OPTICS RETURN FLAG.
000164: 07,2073           71331                           MASK     OPTMODES
000165: 07,2074           55331                           TS       OPTMODES
000166:
000167: 07,2075           37716                           CA       NEGONE
000168: 07,2076           55303                           TS       OPTIND                                #  KILL COARS OPTICS
000169:
000170: 07,2077           45032                           CS       BIT2                                  #  DISABLE OPTICS ERROR COUNTER
000171: 07,2100           00006                           EXTEND
000172: 07,2101           03012                           WAND     CHAN12
000173:
000174: 07,2102           00003                           RELINT
000175: 07,2103           04711                           TC       SWRETURN
000176:                                                                                                  #  PROGRAM NAME - MARKRUPT                                       DATE - 5 APRIL 1967
000177:                                                                                                  #  PROGRAM MODIFIED BY 258/278 PROGRAMMERS                       LOG SECTION SXTMARK
000178:                                                                                                  #  MOD BY - R. MELANSON TO ADD DOCUMENTATION                     ASSEMBLY SUNDISK REV. 116
000179:
000180:                                                                                                  #  FUNCTIONAL DESCRIPTION-
000181:                                                                                                  #        MARKRUPT STORES CDUS,OPTICS AND TIME AND TRANSFERS CONTROL TO THE MARKIT,MARK REJECT OR KEYCOM ROUTINES IF
000182:                                                                                                  #        BITS IN CHANNEL 16 ARE SET AS REQUIRED.
000183:
000184:                                                                                                  #  CALLING SEQUENCE-
000185:                                                                                                  #        ROUTINE ENTERED VIA KEYRUPT2 WHEN MARK,MARK REJECT OR DSKY KEYS DEPRESSED BY THE OPERATOR.
000186:
000187:                                                                                                  #  NORMAL EXIT MODE-
000188:                                                                                                  #        MARKIT, MKREJECT OR POSTJUMP ROUTINES (MARK, MARK REJECT OR DSKY CODE)
000189:
000190:                                                                                                  #  ALARM OR ABORT EXIT MODE-
000191:                                                                                                  #        ALARM AND RESUME
000192:
000193:                                                                                                  #  OUTPUT-
000194:                                                                                                  #        RUPTSTOR+5 = CDUT, RUPTSTOR+3 = CDUS, RUPTSTOR+2 = CDUY,
000195:                                                                                                  #        RUPTREG3 = CDUZ, RUPTSTOR+6 = CDUX, RUPTSTOR+1 AND SAMPTIME+1 = TIME1,
000196:                                                                                                  #        RUPTSTOR AND SAMPTIME = TIME2
000197:
000198:                                                                                                  #  ERASABLE INITIALIZATION-
000199:                                                                                                  #        CDUT,CDUS,CDUY,CDUZ,CDUX,TIME2,TIME1,CHANNEL 16 BITS 6,7 OR 1-5
000200:
000201:                                                                                                  #  DEBRIS-
000202:                                                                                                  #        A,QRUPT,RUPTREG3,SAMPTIME,SAMPTIME+1,RUPTSTOR TO RUPTSTOR+6 EXCEPT RUPTSTOR+4 (LOCATION 67)
000203:
000204: 07,2104           54016        MARKRUPT           TS       BANKRUPT                              #  STORE CDUS AND OPTICS NOW
000205: 07,2105           30035                           CA       CDUT
000206: 07,2106           54361                           TS       MKCDUT
000207: 07,2107           30036                           CA       CDUS
000208: 07,2110           54357                           TS       MKCDUS
000209: 07,2111           30033                           CA       CDUY
000210: 07,2112           54356                           TS       MKCDUY
000211: 07,2113           30034                           CA       CDUZ
000212: 07,2114           54360                           TS       MKCDUZ
000213: 07,2115           30032                           CA       CDUX
000214: 07,2116           54362                           TS       MKCDUX
000215: 07,2117           00006                           EXTEND
000216: 07,2120           30025                           DCA      TIME2                                 #  GET TIME
000217: 07,2121           52355                           DXCH     MKT2T1
000218: 07,2122           00006                           EXTEND
000219: 07,2123           30355                           DCA      MKT2T1
000220: 07,2124           52014                           DXCH     SAMPTIME                              #  RUPT TIME FOR NOUN 65.
000221:
000222: 07,2125           56002                           XCH      Q
000223: 07,2126           54012                           TS       QRUPT
000224:
000225: 07,2127           35026                           CAF      BIT6                                  #  SEE IF MARK OR MKREJECT
000226: 07,2130           00006                           EXTEND
000227: 07,2131           02016                           RAND     NAVKEYIN
000228: 07,2132           10000                           CCS      A
000229: 07,2133           02430                           TC       MARKIT                                #  ITS A MARK
000230:
000231: 07,2134           35025                           CAF      BIT7                                  #  NOT A MARK, SEE IF MKREJECT
000232: 07,2135           00006                           EXTEND
000233: 07,2136           02016                           RAND     NAVKEYIN
000234: 07,2137           10000                           CCS      A
000235: 07,2140           02301                           TC       MKREJECT                              #  ITS A MARK REJECT
000236:
000237: 07,2141           34362        KEYCALL            CAF      OCT37                                 #  NOT MARK OR MKREJECT, SEE IF KEYCODE
000238: 07,2142           00006                           EXTEND
000239: 07,2143           02016                           RAND     NAVKEYIN
000240: 07,2144           00006                           EXTEND
000241: 07,2145           12150                           BZF      +3                                    #  IF NO INBITS
000242: 07,2146           04715                           TC       POSTJUMP
000243: 07,2147           17702                           CADR     KEYCOM                                #  IT,S A KEY CODE, NOT A MARK.
000244:
000245: 07,2150           05664                 +3        TC       ALARM                                 #  ALARM IF NO INBITS
000246: 07,2151           00113                           OCT      113
000247: 07,2152           05347                           TC       RESUME
000248:
000249:                                                                                                  #  PROGRAM NAME - MARKCONT                               DATE - 19 SEPT 1967
000250:                                                                                                  #  PROGRAM MODIFIED BY 258/278 PROGRAMMERS               LOG SECTION SXTMARK
000251:                                                                                                  #  MOD BY - R. MELANSON TO ADD DOCUMENTATION             ASSEMBLY SUNDISK REV. 116
000252:
000253:                                                                                                  #  FUNCTIONAL DESCRIPTION-
000254:                                                                                                  #        MARKCONT IS USED TO PERFORM A SPECIAL MARK FUNCTION FOR R21, TO EXECUTE A SPECIAL DISPLAY OF OPTICS AND TIME OR
000255:                                                                                                  #        TO PERFORM A MARK OF A STAR OR LAND SIGHTING BASED UPON FLASHING V-N.
000256:
000257:                                                                                                  #  CALLING SEQUENCE-
000258:
000259:                                                                                                  #        FROM MARKDIF
000260:
000261:                                                                                                  #  NORMAL EXIT MODE-
000262:                                                                                                  #        TASKOVER
000263:
000264:                                                                                                  #  ALARM OR ABORT EXIT MODE-
000265:                                                                                                  #        ALARM AND TASKOVER
000266:
000267:                                                                                                  #  OUTPUT-
000268:                                                                                                  #        1)      FOR R21-
000269:                                                                                                  #                EBANK=EBANK7
000270:                                                                                                  #                MRKBUF1 TO MRKBUF1+6 = TIME2,TIME1,CDUY,OPTICX,CDUZ,OPTICSY,CDUX OF CURRENT R21 MARK FUNCTION.
000271:                                                                                                  #                MRKBUF2 TO MRKBUF2+6 CONTAINS PREVIOUS R21 MARK VALUES.
000272:                                                                                                  #        2)      FOR SPECIAL DISPLAY JOB-
000273:                                                                                                  #                RUPTREG1 AND MRKBUF1 = CDUS,RUPTREG2 AND MRKBUF1+1 = CDUT.
000274:                                                                                                  #                RUPTREG3 AND MRKBUF1+2 = TIME2,RUPTREG4 AND MRKBUF1+3 = TIME1
000275:                                                                                                  #        3)      FOR NORMAL MARKING-
000276:                                                                                                  #                DECREMENT BITS14-12 OF MARKSTAT BY 1,
000277:                                                                                                  #                BIT10 MARKSTAT SET TO 1, INCREMENT QPRET BY 7,
000278:                                                                                                  #                STORE TIME2,TIME1,CDUY,CDUS,CDUZ,CDUT AND CDUX IN VAC+1 TO VAC+7
000279:
000280:                                                                                                  #  ERASABLE INITIALIZATION-
000281:                                                                                                  #        1)      FOR R21-
000282:                                                                                                  #                BIT14 OF STATE+2 =1, MRKBUF1 TO MRKBUF1+6, ITEMP1, RUPTREG3,
000283:                                                                                                  #                RUPTSTOR TO RUPTSTOR+6 EXCEPT RUPTSTOR+4
000284:                                                                                                  #        2)      FOR SPECIAL DISPLAY JOB-
000285:                                                                                                  #                BIT14 OF STATE+2 =0, MARKSTAT =+0, RUPTREG1,RUPTREG2,RUPTREG3
000286:                                                                                                  #                RUPTREG4,RUPTSTOR,RUPTSTOR+1,RUPTSTOR+3,RUPTSTOR+5,
000287:                                                                                                  #                BIT12 OF STATE+5 (V59 FLAG), MRKBUF1 THRU MRKBUF1+3
000288:                                                                                                  #        3)      FOR NORMAL MARKING-
000289:                                                                                                  #                BIT14 OF STATE+2 =0, MARKSTAT =VAC ADDRESS,A REG,ITEMP1,RUPTREG3,
000290:                                                                                                  #                RUPTSTOR TO RUPTSTOR+6 EXCEPT RUPTSTOR+4
000291:
000292:                                                                                                  #  DEBRIS-
000293:                                                                                                  #        1)      FOR R21-
000294:                                                                                                  #                A, ITEMP1, MRKBUF1, MRKBUF2
000295:                                                                                                  #        2)      FOR SPECIAL DISPLAY JOB-
000296:                                                                                                  #                A,RUPTREG1,RUPTREG2,RUPTREG3,RUPTREG4,MPAC TO MPAC+3
000297:                                                                                                  #        3)      FOR NORMAL MARKING-
000298:                                                                                                  #                A,MARKSTAT,ITEMP1,QPRET,VAC+1 TO VAC+7 OF VAC AREA IN USE
000299:
000300: 07,2153           35016        MARKCONT           CAF      BIT14
000301: 07,2154           70076                           MASK     STATE      +2                         #  R21 MARK (SPECIAL MARKING FOR R21)
000302: 07,2155           00006                           EXTEND
000303: 07,2156           12170                           BZF      MARKET                                #  NOT SET THEREFORE REGULAR MARKING
000304: 07,2157           36211        MARKIT1            CAF      SIX                                   #  SPECIAL FOR R21
000305: 07,2160           05622                           TC       GENTRAN                               #  TRANSFER MRKBUF1 TO MRKBUF2
000306: 07,2161           01725                           ADRES    MRKBUF1
000307: 07,2162           01734                           ADRES    MRKBUF2
000308:
000309: 07,2163           36211                           CAF      SIX                                   #  TRANSFER CURRENT MARK DATA TO MARKBUF1
000310: 07,2164           05622                           TC       GENTRAN
000311: 07,2165           00354                           ADRES    MKT2T1
000312: 07,2166           01725                           ADRES    MRKBUF1
000313:
000314: 07,2167           15340                           TCF      TASKOVER
000315:
000316: 07,2170           11330        MARKET             CCS      MARKSTAT                              #  SEE IF MARKS CALLED FOR
000317: 07,2171           02225                           TC       MARK2                                 #  COLLECT MARKS
000318:
000319: 07,2172           35032                           CAF      TWO                                   #  IS MARKING SYSTEM IN USE (BIT2)
000320: 07,2173           71044                           MASK     EXTVBACT
000321: 07,2174           00006                           EXTEND
000322: 07,2175           12217                           BZF      MARKET3                               #  MARKING NOT CALLED FOR
000323: 07,2176           35020                           CAF      BIT12
000324: 07,2177           70101                           MASK     STATE      +5                         #  V59FLAG
000325: 07,2200           00006                           EXTEND
000326: 07,2201           12217                           BZF      MARKET3                               #  IF V59FLAG NOT SET-MARK UNCALLED FOR
000327: 07,2202           35075                           CAF      PRIO5                                 #  CALIBRATION MARK (SET) FOR P23
000328: 07,2203           05150                           TC       NOVAC                                 #  SPECIAL DISPLAY JOB
000329: 07,2204  E7,1725                                  EBANK=   MRKBUF1
000330: 07,2204           02437 76067                     2CADR    MARKDISP
000331:
000332: 07,2206           36211                           CAF      SIX
000333: 07,2207           05622                           TC       GENTRAN                               #  TRANSFER MARK DATA TO MARKDOWN
000334: 07,2210           00354                           ADRES    MKT2T1
000335: 07,2211           01674                           ADRES    MARKDOWN
000336: 07,2212           36211                           CAF      SIX
000337: 07,2213           05622                           TC       GENTRAN                               #  TRANSFER MARK DATA TO MRKBUF1 FOR
000338: 07,2214           00354                           ADRES    MKT2T1                                #  SPECIAL DISPLAY OF SHAFT AND TRUNNION
000339: 07,2215           01725                           ADRES    MRKBUF1                               #  IF V59 ACTING
000340: 07,2216           15340                           TCF      TASKOVER
000341: 07,2217           05664        MARKET3            TC       ALARM
000342: 07,2220           00122                           OCT      122                                   #  MARKING NOT CALLED FOR
000343: 07,2221           15340                           TCF      TASKOVER
000344: 07,2222           05664        114ALM             TC       ALARM                                 #  MARK NOT WANTED
000345: 07,2223           00114                           OCT      114
000346: 07,2224           15340                           TCF      TASKOVER
000347:
000348:                                                                                                  #  STORE MARK DATA IN MKVAC AND INCREMENT POINTER
000349:
000350: 07,2225           67711        MARK2              AD       74K                                   #  SEE IF MARKS WANTED-REDUCE MARKS WANTED
000351: 07,2226           00006                           EXTEND
000352: 07,2227           62222                           BZMF     114ALM                                #  MARK NOT WANTED-ALARM
000353: 07,2230           55330                           TS       MARKSTAT
000354: 07,2231           40000                           COM
000355: 07,2232           75022                           MASK     BIT10                                 #  SET BIT10 TO ENABLE REJECT
000356: 07,2233           27330                           ADS      MARKSTAT
000357:
000358: 07,2234           75062                           MASK     LOW9
000359: 07,2235           54061                           TS       ITEMP1
000360: 07,2236           50000                           INDEX    A
000361: 07,2237           56052                           XCH      QPRET                                 #  PICK UP MARK SLOT-POINTER
000362: 07,2240           54062                           TS       ITEMP2                                #  SAVE CURRENT POINTER
000363: 07,2241           65037                           AD       SEVEN                                 #  INCREMENT POINTER
000364: 07,2242           50061                           INDEX    ITEMP1
000365: 07,2243           54052                           TS       QPRET                                 #  STORE ADVANCED POINTER
000366:
000367: 07,2244           00006        VACSTOR            EXTEND
000368: 07,2245           30355                           DCA      MKT2T1
000369: 07,2246           50062                           INDEX    ITEMP2
000370: 07,2247           52001                           DXCH     0
000371: 07,2250           30356                           CA       MKCDUY
000372: 07,2251           50062                           INDEX    ITEMP2
000373: 07,2252           54002                           TS       2
000374: 07,2253           30357                           CA       MKCDUS
000375: 07,2254           50062                           INDEX    ITEMP2
000376: 07,2255           54003                           TS       3
000377: 07,2256           30360                           CA       MKCDUZ
000378: 07,2257           50062                           INDEX    ITEMP2
000379: 07,2260           54004                           TS       4
000380: 07,2261           30361                           CA       MKCDUT
000381: 07,2262           50062                           INDEX    ITEMP2
000382: 07,2263           54005                           TS       5
000383: 07,2264           30362                           CA       MKCDUX
000384: 07,2265           50062                           INDEX    ITEMP2
000385: 07,2266           54006                           TS       6
000386:
000387: 07,2267           37671                           CAF      PRIO34                                #  IF ALL MARKS MADE FLASH VB50
000388: 07,2270           71330                           MASK     MARKSTAT
000389: 07,2271           00006                           EXTEND
000390: 07,2272           12274                           BZF      +2
000391: 07,2273           15340                           TCF      TASKOVER
000392: 07,2274           37667                           CAF      PRIO32
000393: 07,2275           05150                           TC       NOVAC
000394: 07,2276     1330                                  EBANK=   MARKSTAT
000395: 07,2276           02422 16062                     2CADR    MKVB50
000396:
000397: 07,2300           15340                           TCF      TASKOVER
000398:
000399:                                                                                                  #  PROGRAM NAME - MKREJECT                                       DATE - 5 APRIL 1967
000400:                                                                                                  #  PROGRAM MODIFIED BY 258/278 PROGRAMMERS                       LOG SECTION SXTMARK
000401:                                                                                                  #  MOD BY - R. MELANSON TO ADD DOCUMENTATION                     ASSEMBLY SUNDISK REV. 116
000402:
000403:                                                                                                  #  FUNCTIONAL DESCRIPTION-
000404:                                                                                                  #        ROUTINE ALLOWS OPERATOR TO REJECT MARK MADE PRIOR TO ACCEPTANCE AND ALLOWS A NEW MARK TO BE MADE BY ASTRONAUT
000405:
000406:                                                                                                  #  CALLING SEQUENCE-
000407:                                                                                                  #        FROM MARKRUPT IF BIT7 OF CHANNEL 16 IS 1.
000408:
000409:                                                                                                  #  NORMAL EXIT MODE-
000410:                                                                                                  #        RESUME
000411:
000412:                                                                                                  #  ALARM OR ABORT EXIT MODE-
000413:                                                                                                  #        ALARM AND RESUME
000414:
000415:                                                                                                  #  OUTPUT-
000416:                                                                                                  #        1)      FOR R21-
000417:                                                                                                  #                MRKBUF1 SET TO -1
000418:                                                                                                  #        2)      FOR NORMAL MARKING-
000419:                                                                                                  #                BIT10 MARKSTAT =0, INCREMENT NO. MARKS BY 1, DECREMENT QPRET BY 7
000420:
000421:                                                                                                  #  ERASABLE INITIALIZATION-
000422:                                                                                                  #        1)      FOR R21-
000423:                                                                                                  #                BIT14 OF STATE+2 SET TO 1
000424:                                                                                                  #        2)      FOR NORMAL MARKING-
000425:                                                                                                  #                BIT14 OF STATE+2 SET TO 0, MARKSTAT,QPRET
000426:
000427:                                                                                                  #  DEBRIS-
000428:                                                                                                  #        1)      FOR R21-
000429:                                                                                                  #                A,MARKSTAT,EBANK
000430:                                                                                                  #        2)      FOR NORMAL MARKING-
000431:                                                                                                  #                A,MARKSTAT,ITEMP1,QPRET
000432:
000433: 07,2301           35016        MKREJECT           CAF      BIT14
000434: 07,2302           70076                           MASK     STATE      +2                         #  R21 MARK (SPECIAL MARKING FOR R21)
000435: 07,2303           00006                           EXTEND
000436: 07,2304           12310                           BZF      MRKREJCT                              #  NOT SET THEREFORE REGULAR REJECT
000437: 07,2305           37716                           CA       NEGONE                                #  -1 (FOR R22)
000438: 07,2306           55725                           TS       MRKBUF1                               #  -0 IN TIME IS FLAG TO R22 SIGNIFYING A
000439: 07,2307           05347                           TC       RESUME                                #  REJECTED MARK
000440: 07,2310           11330        MRKREJCT           CCS      MARKSTAT                              #  SEE IF MARKS BEING ACCEPTED
000441: 07,2311           02315                           TC       REJECT2
000442: 07,2312           05664                           TC       ALARM                                 #  MARKS NOT BEING ACCEPTED
000443: 07,2313           00112                           OCT      112
000444: 07,2314           05347                           TC       RESUME
000445:
000446: 07,2315           45022        REJECT2            CS       BIT10                                 #  SEE IF MARK HAD BEEN MADE SINCE LAST
000447: 07,2316           71330                           MASK     MARKSTAT                              #  REJECT, AND SET BIT10 TO ZERO TO
000448: 07,2317           57330                           XCH      MARKSTAT                              #  SHOW MARK REJECT
000449: 07,2320           75022                           MASK     BIT10
000450: 07,2321           10000                           CCS      A
000451: 07,2322           02326                           TC       REJECT3
000452:
000453: 07,2323           05664                           TC       ALARM                                 #  DONT ACCEPT TWO REJECTS TOGETHER
000454: 07,2324           00110                           OCT      110
000455: 07,2325           05347                           TC       RESUME
000456:
000457: 07,2326           35062        REJECT3            CAF      LOW9                                  #  DECREMENT POINTER TO REJECT MARK
000458: 07,2327           71330                           MASK     MARKSTAT
000459: 07,2330           54061                           TS       ITEMP1
000460: 07,2331           45037                           CS       SEVEN
000461: 07,2332           50061                           INDEX    ITEMP1
000462: 07,2333           26052                           ADS      QPRET                                 #  NEW POINTER
000463:
000464: 07,2334           35020                           CAF      BIT12                                 #  INCREMENT MARKS WANTED AND IF FIELD
000465: 07,2335           61330                           AD       MARKSTAT                              #  IS NOW NON-ZERO, CHANGE TO VB51 TO
000466: 07,2336           57330                           XCH      MARKSTAT                              #  INDICATE MORE MARKS WANTED
000467: 07,2337           77671                           MASK     PRIO34                                #  INDICATE MORE MARKS WANTED
000468: 07,2340           10000                           CCS      A
000469: 07,2341           05347                           TC       RESUME
000470: 07,2342           37667                           CAF      PRIO32
000471: 07,2343           05150                           TC       NOVAC
000472: 07,2344     1330                                  EBANK=   MARKSTAT
000473: 07,2344           02347 16062                     2CADR    MKVB51
000474:
000475: 07,2346           05347                           TC       RESUME
000476:
000477:                                                                                                  #  PROGRAM DESCRIPTION MKVB51 AND MKVB50
000478:
000479:                                                                                                  #  AUTHOR-BARNERT DATE-2-15-67 MOD-0
000480:                                                                                                  #  PURPOSE  FLASH V51N70,V51N43, OR V51 TO REQUEST MARKING,
000481:                                                                                                  #           AND V50N25 R1=16 TO REQUEST TERMINATE MARKING
000482:
000483:                                                                                                  #  CALLING SEQUENCE   AS JOB WITHIN SXTMARK
000484:
000485:                                                                                                  #  EXIT TO ENDMARK UPON RECEIPT OF V33, V34 CAUSES GOTOPOOH, ENTER
000486:                                                                                                  #           RECYCLES THE DISPLAY
000487:
000488:                                                                                                  #  NOTE- SXTMARK AUTOMATICALLY CHANGES FROM CALLING MKVB51 TO MKVB50 WHEN
000489:                                                                                                  #           SUFFICIENT MARKS HAVE BEEN MADE, AND THE REVERSE WHEN A MARK
000490:                                                                                                  #           REJECT REDUCES THE NUMBER MADE BELOW THAT REQUIRED
000491:
000492:                                                                                                  #  SUBROUTINES CALLED- BANKCALL, GOMARK2, GOODEND, ENDMARK, WAITLIST
000493:
000494:                                                                                                  #  ALARM OR ABORT MODES - NONE
000495:
000496:                                                                                                  #  ERASABLE USED-VERBREG,MARKSTAT,QPRET,DSPTEM1
000497:
000498:                                                                                                  #  OUTPUT MARKSTAT = VAC ADDRESS
000499:
000500:                                                                                                  #  QPRET = NO. MARKS
000501:
000502: 07,2347           04676        MKVB51             TC       BANKCALL                              #  CLEAR DISPLAY FOR MARK VERB
000503: 07,2350           20560                           CADR     KLEENEX
000504: 07,2351           32427                           CAF      VB51                                  #  DISPLAY MARK VB51
000505: 07,2352           04676                           TC       BANKCALL
000506: 07,2353           20572                           CADR     GOMARK4
000507: 07,2354           12357                           TCF      TERMSXT                               #  VB34-TERMINATE
000508: 07,2355           12370                           TCF      ENTANSWR                              #  V33-PROCEED-MARKING DONE
000509: 07,2356           12416                           TCF      MKVB5X                                #  ENTER-RECYCLE TO INITIAL MARK DISPLAY
000510:
000511: 07,2357           05552        TERMSXT            TC       CLEARMRK                              #  CLEAR MARK ACTIVITY.
000512:
000513: 07,2360           05400                           TC       CHECKMM
000514: 07,2361           00003                           MM       03         B-14
000515: 07,2362           12364                           TCF      +2
000516: 07,2363           02366                           TC       TERMP03
000517: 07,2364           04715                           TC       POSTJUMP
000518: 07,2365           30205                           CADR     TERM52
000519:
000520: 07,2366           05562        TERMP03            TC       UPFLAG
000521: 07,2367           00032                           ADRES    TRM03FLG
000522: 07,2370           35062        ENTANSWR           CAF      LOW9                                  #  PUT VAC ADR IN MARKSTAT AND NO. OF
000523: 07,2371           71330                           MASK     MARKSTAT                              #  MARKS MADE IN QPRET BEFORE LEAVING
000524: 07,2372           55330                           TS       MARKSTAT                              #  SXTMARK
000525: 07,2373           40000                           COM
000526: 07,2374           51330                           INDEX    MARKSTAT
000527: 07,2375           60052                           AD       QPRET
000528: 07,2376           00006                           EXTEND
000529: 07,2377           62403                           BZMF     JAMIT                                 #  NO MARKS MADE, SHOW IT IN QPRET, R53
000530: 07,2400           00006                           EXTEND                                         #        WILL PICK IT UP AND RECYCLE
000531: 07,2401           75020                           MP       BIT12                                 #  THIS PUTS NUMBER MARKS-1 IN A
000532: 07,2402           65033                           AD       ONE
000533: 07,2403           51330        JAMIT              INDEX    MARKSTAT                              #  STORE NO OF MARKS MADE
000534: 07,2404           54052                           TS       QPRET
000535: 07,2405           00004                           INHINT                                         #  SERVICE OPTSTALL INTERFACE WITH
000536: 07,2406           35036                           CAF      FIVE
000537: 07,2407           05261                           TC       WAITLIST
000538: 07,2410     1330                                  EBANK=   MARKSTAT
000539: 07,2410           02413 16062                     2CADR    ENDMARKS
000540:
000541: 07,2412           05550                           TC       ENDMARK                               #  KNOCKS DOWN MARKING FLAG + DOES ENDOFJOB
000542:
000543: 07,2413           35033        ENDMARKS           CAF      ONE
000544: 07,2414           04754                           TC       IBNKCALL
000545: 07,2415           17550                           CADR     GOODEND
000546: 07,2416           37671        MKVB5X             CAF      PRIO34
000547: 07,2417           71330                           MASK     MARKSTAT                              #  RE-DISPLAY VB51 IF MORE MARKS WANTED
000548: 07,2420           10000                           CCS      A                                     #  AND VB50 IF ALL IN
000549: 07,2421           12347                           TCF      MKVB51
000550: 07,2422           34333        MKVB50             CAF      R1D1                                  #  OCT 16
000551: 07,2423           55045                           TS       DSPTEM1
000552: 07,2424           32426                           CAF      V50N25
000553: 07,2425           12352                           TCF      MKVB51     +3
000554:
000555: 07,2426           14431        V50N25             VN       5025
000556: 07,2427           14600        VB51               VN       5100
000557: 07,2430     4362               OCT37              =        LOW5
000558:
000559:                                                                                                  #  PROGRAM NAME - MARKIT                         DATE - 19 SEPT 1967
000560:
000561:                                                                                                  #  CALLING SEQUENCE
000562:                                                                                                  #        FROM MARKRUPT IF CHAN 16 BIT 6 = 1
000563:
000564:                                                                                                  #  EXIT
000565:                                                                                                  #        RESUME
000566:
000567:                                                                                                  #  INPUT
000568:                                                                                                  #        CDUCHKWD.  ALSO ALL INITIALIZATION FOR MARKCONT
000569:
000570:                                                                                                  #  OUTPUT
000571:                                                                                                  #        MKT2T1,MKCDUX,MKCDUY,MKCDUZ,MKCDUS,MKCDUT
000572:
000573:                                                                                                  #  ALARM EXIT
000574:                                                                                                  #        NONE
000575:
000576: 07,2430           11341        MARKIT             CCS      CDUCHKWD
000577: 07,2431           12434                           TCF      +3                                    #  DELAY OF CDUCHKWD CS IF PNZ
000578: 07,2432           12434                           TCF      +2
000579: 07,2433           35035                           CAF      ZERO
000580: 07,2434           65033                           AD       ONE                                   #  10 MS IF NO CHECK
000581: 07,2435           05261                           TC       WAITLIST
000582: 07,2436  E7,1725                                  EBANK=   MRKBUF1
000583: 07,2436           02203 20067                     2CADR    MARKDIF
000584:
000585: 07,2440           15347                           TCF      RESUME
000586:
000587: 10,2000                                           SETLOC   SXTMARK1
000588: 10,2000                                           BANK
000589:
000590: 10,2203                                           COUNT    10/SXTMK
000591:
000592:                                                                                                  #  PROGRAM NAME - MARKDIF                        DATE- 19 SEPT 1967
000593:
000594:                                                                                                  #  CALLING SEQUENCE
000595:                                                                                                  #        WAITLIST FROM MARKIT
000596:
000597:                                                                                                  #  EXIT
000598:                                                                                                  #        TASKOVER OT IBNKCALL TO MARKCONT
000599:
000600:                                                                                                  #  INPUT
000601:                                                                                                  #        OUTPUT FROM MARKIT, INPUT TO MARKCONT, CDUCHKWD
000602:
000603:                                                                                                  #  OUTPUT
000604:                                                                                                  #        RUPTSTOR - RUPTSTOR+3, RUPTREG3, RUPTSTOR+5 - RUPTSTOR+6
000605:
000606:                                                                                                  #  ALARM EXIT
000607:                                                                                                  #        ALARM AND TASKOVER
000608:
000609: 10,2203           31341        MARKDIF            CA       CDUCHKWD                              #  IF DELAY CHECK IS ZERO OR NEG, ACP MARK
000610: 10,2204           00006                           EXTEND
000611: 10,2205           62216                           BZMF     MKACPT
000612: 10,2206           45033                           CS       BIT1
000613: 10,2207           54353                           TS       MKNDX                                 #  SET INDEX -1
000614: 10,2210           30362                           CA       MKCDUX
000615: 10,2211           02220                           TC       DIFCHK                                #  SEE IF VEHICLE RATE TO MUCH AT MARK
000616: 10,2212           30356                           CA       MKCDUY
000617: 10,2213           02220                           TC       DIFCHK
000618: 10,2214           30360                           CA       MKCDUZ
000619: 10,2215           02220                           TC       DIFCHK
000620:
000621: 10,2216           04754        MKACPT             TC       IBNKCALL
000622: 10,2217           16153                           CADR     MARKCONT                              #  MARK DATA OK, WHAT DO WE DO WITH IT
000623:
000624: 10,2220           24353        DIFCHK             INCR     MKNDX                                 #  INCREMENT INDEX
000625:
000626: 10,2221           00006                           EXTEND
000627: 10,2222           50353                           INDEX    MKNDX
000628: 10,2223           20032                           MSU      CDUX                                  #  GET MARK(ICDU) - CURRENT(ICDU)
000629: 10,2224           10000                           CCS      A
000630: 10,2225           12231                           TCF      +4
000631: 10,2226           00002                           TC       Q
000632: 10,2227           12231                           TCF      +2
000633: 10,2230           00002                           TC       Q
000634: 10,2231           67715                           AD       NEG2                                  #  SEE IF DIFFERENCE GREATER THAN 3 BITS
000635: 10,2232           00006                           EXTEND
000636: 10,2233           62230                           BZMF     -3                                    #  NOT GREATER
000637:
000638: 10,2234           05664                           TC       ALARM                                 #  COUPLED WITH PROGRAM ALARM
000639: 10,2235           00121                           OCT      00121
000640:
000641: 10,2236           15340                           TCF      TASKOVER                              #  DO NOT ACCEPT
000642:
000643:

End of include-file SXTMARK.agc.  Parent file is MAIN.agc


