
Source Code


000002:                                                                                                  ## Copyright:   Public domain.
000003:                                                                                                  ## Filename:    SYSTEM_TEST_STANDARD_LEAD_INS.agc
000004:                                                                                                  ## Purpose:     A section of Comanche revision 067.
000005:                                                                                                  ##              It is part of the reconstructed source code for the flight
000006:                                                                                                  ##              software for the Command Module's (CM) Apollo Guidance Computer
000007:                                                                                                  ##              (AGC) for Apollo 12. No original listings of this program are
000008:                                                                                                  ##              available; instead, this file was created via dissassembly of
000009:                                                                                                  ##              dumps of Comanche 067 core rope modules and comparison with
000010:                                                                                                  ##              other AGC programs.
000011:                                                                                                  ## Assembler:   yaYUL
000012:                                                                                                  ## Contact:     Ron Burkey <info@sandroid.org>.
000013:                                                                                                  ## Website:     www.ibiblio.org/apollo/index.html
000014:                                                                                                  ## Mod history: 2023-08-16 MAS  Created from Comanche 055.
000015:
000016: 22,3151  E5,1671                                  EBANK=   XSM
000017:
000018: 33,2000                                           BANK     33
000019: 13,2000                                           SETLOC   E/PROG1
000020: 13,2000                                           BANK
000021:
000022: 13,2036                                           COUNT*   $$/P07
000023:
000024:                                                                                                  #  SPECIAL PROGRAMS TO EASE THE PANGS OF ERASABLE MEMORY PROGRAMS.
000025:
000026:                                                                                                  #  E/BKCALL      FOR DOING BANKCALLS FROM AND RETURNING TO ERASABLE.
000027:
000028:                                                                                                  #  THIS ROUTINE IS CALLABLE FROM ERASABLE OR FIXED.  LIKE BANKCALL, HOWEVER, SWITCHING BETWEEN S3 AND S4
000029:                                                                                                  #  IS NOT POSSIBLE.
000030:
000031:                                                                                                  #  THE CALLING SEQUENCE IS:
000032:
000033:                                                                                                  #        TC      BANKCALL
000034:                                                                                                  #        CADR    E/BKCALL
000035:                                                                                                  #        CADR    ROUTINE         WHERE YOU WANT TO GO IN FIXED.
000036:                                                                                                  #        RETURN HERE FROM DISPLAY TERMINATE, BAD STALL OR TC Q.
000037:                                                                                                  #        RETURN HERE FROM DISPLAY PROCEED OR GOOD RETURN FROM STALL.
000038:                                                                                                  #        RETURN HERE FROM DISPLAY ENTER OR RECYCLE.
000039:
000040:                                                                                                  #  THIS ROUTINE REQUIRES TWO ERASABLES (EBUF2, +1) IN UNSWITCHED WHICH ARE UNSHARED BY INTERRUPTS AND
000041:                                                                                                  #  OTHER EMEMORY PROGRAMS.
000042:
000043:                                                                                                  #  A + L ARE PRESERVED THROUGH BANKCALL AND E/BKCALL.
000044:
000045: 13,2036           52134        E/BKCALL           DXCH     BUF2                                  #  SAVE A,L AND GET DP RETURN.
000046: 13,2037           52364                           DXCH     EBUF2                                 #  SAVE DP RETURN.
000047: 13,2040           24363                           INCR     EBUF2                                 #  RETURN +1 BECAUSE DOUBLE CADR.
000048: 13,2041           30006                           CA       BBANK
000049: 13,2042           75070                           MASK     LOW10                                 #  GET CURRENT EBANK.  (SBANK SOMEDAY)
000050: 13,2043           26364                           ADS      EBUF2      +1                         #  FORM BBCON.  (WAS FBANK)
000051: 13,2044           50363                           NDX      EBUF2
000052: 13,2045           27777                           CA       0          -1                         #  GET CADR OF ROUTINE.
000053: 13,2046           04702                           TC       SWCALL                                #  GO TO ROUTINE, SETTING Q TO SWRETURN
000054:                                                                                                  #  AND RESTORING A + L.
000055: 13,2047           02053                           TC       +4                                    #  TX Q, V34, OR BAD STALL RETURN.
000056: 13,2050           02052                           TC       +2                                    #  PROCEED OR GOOD STALL RETURN.
000057: 13,2051           24363                           INCR     EBUF2                                 #  ENTER OR RECYCLE RETURN.
000058: 13,2052           24363                           INCR     EBUF2
000059: 13,2053           52364        E/SWITCH           DXCH     EBUF2
000060: 13,2054           52006                           DTCB
000061:
000062:                                                                                                  #  E/CALL        FOR CALLING A FIXED MEMORY INTERPRETIVE SUBROUTINE FROM ERASABLE AND RETURNING TO ERASABLE.
000063:
000064:                                                                                                  #  THE CALLING SEQUENCE IS...
000065:
000066:                                                                                                  #        RTB
000067:                                                                                                  #                E/CALL
000068:                                                                                                  #        CADR    ROUTINE                 THE INTERPRETIVE SUBROUTINE YOU WANT.
000069:                                                                                                  #                                        RETURNS HERE IN INTERPRETIVE.
000070:
000071: 13,2055           22164        E/CALL             LXCH     LOC                                   #  ADRES -1 OF CADR.
000072: 13,2056           50001                           INDEX    L
000073: 13,2057           30001                           CA       L                                     #  CADR IN A.
000074: 13,2060           24001                           INCR     L
000075: 13,2061           24001                           INCR     L                                     #  RETURN ADRES IN L.
000076: 13,2062           52364                           DXCH     EBUF2                                 #  STORE CADR AND RETURN.
000077: 13,2063           06006                           TC       INTPRET
000078: 13,2064           77624                           CALL
000079: 13,2065           00363                                    EBUF2                                 #  INDIRECTLY EXECUTE ROUTINE.  IT MUST
000080: 13,2066           77776                           EXIT                                           #  LEAVE VIA RVQ OR EQUIVALENT.
000081: 13,2067           22364                           LXCH     EBUF2      +1                         #  PICK UP RETURN.
000082: 13,2070           16010                           TCF      INTPRET    +2                         #  SET LOC AND RETURB TO CALLER
000083:
000084:                                                                                                  #  E/JOBWAK      FOR WAKING UP ERASABLE MEMORY JOBS.
000085:
000086:                                                                                                  #  THIS ROUTINE MUST BE CALLED IN INTERRUPT OR WITH INTERRUPTS INHIBITED.
000087:
000088:                                                                                                  #  THE CALLING SEQUENCE IS:
000089:
000090:                                                                                                  #        INHINT
000091:                                                                                                  #          .
000092:                                                                                                  #          .
000093:                                                                                                  #        CA      WAKEADR         ADDRESS OF SLEEPING JOB
000094:                                                                                                  #        TC      IBNKCALL
000095:                                                                                                  #        CADR    E/JOBWAK
000096:                                                                                                  #          .                     RETURNS HERE
000097:                                                                                                  #          .
000098:                                                                                                  #          .
000099:                                                                                                  #        RELINT                  IF YOU DID AN INHINT.
000100:
000101: 33,2000                                           BANK     33
000102: 04,2000                                           SETLOC   E/PROG
000103: 04,2000                                           BANK
000104:
000105: 04,2606                                           COUNT*   $$/P07
000106:
000107: 04,2606           05215        E/JOBWAK           TC       JOBWAKE                               #  ARRIVE IWTH ADRES IN A.
000108: 04,2607           45021                           CS       BIT11
000109: 04,2610           50064                           NDX      LOCCTR
000110: 04,2611           26164                           ADS      LOC                                   #  KNOCK FIXED MEMORY BIT OUT OF ADRES.
000111: 04,2612           00072                           TC       RUPTREG3                              #  RETURN
000112:
000113:
000114:                                                                                                  #  THESE PROGRAMS ARE PROVIDED TO ALLOW OVERLAY OF BANKS 30 THRU 33 OF THE 205 VERSIONS OF SYSTEM TESTS AND
000115:                                                                                                  #  PRELAUNCH ALIGN.  THE INTENT IS TO ALLOW THE STG AND HYBRID LABS TO RUN ALL THE TESTS WITH COLOSSUS.
000116:
000117:
000118: 33,2000                                           BANK     33
000119: 33,2000                                           SETLOC   TESTLEAD
000120: 33,2000                                           BANK
000121:
000122: 33,2000                                           COUNT    33/COMST
000123:
000124: 33,2000  E5,1425                                  EBANK=   QPLACE
000125:
000126: 33,2000           03436        COMPVER            TC       GCOMPVER                              #  MUST BE 33,2000.
000127:
000128: 33,2001           03131        GTSCPSS1           TC       GTSCPSS                               #  MUST BE AT 33,2001
000129:
000130: 33,2002           05370        REDO               TC       NEWMODEX                              #  DISPLAY MM 07.
000131: 33,2003           00007                           MM       07         B-14                       #  FALL INTO IMUTEST
000132:

End of include-file SYSTEM_TEST_STANDARD_LEAD_INS.agc.  Parent file is MAIN.agc


