
Source Code


000002:                                                                                                  ## Copyright:   Public domain.
000003:                                                                                                  ## Filename:    T4RUPT_PROGRAM.agc
000004:                                                                                                  ## Purpose:     A section of Comanche revision 067.
000005:                                                                                                  ##              It is part of the reconstructed source code for the flight
000006:                                                                                                  ##              software for the Command Module's (CM) Apollo Guidance Computer
000007:                                                                                                  ##              (AGC) for Apollo 12. No original listings of this program are
000008:                                                                                                  ##              available; instead, this file was created via dissassembly of
000009:                                                                                                  ##              dumps of Comanche 067 core rope modules and comparison with
000010:                                                                                                  ##              other AGC programs.
000011:                                                                                                  ## Assembler:   yaYUL
000012:                                                                                                  ## Contact:     Ron Burkey <info@sandroid.org>.
000013:                                                                                                  ## Website:     www.ibiblio.org/apollo/index.html
000014:                                                                                                  ## Mod history: 2023-08-16 MAS  Created from Comanche 055.
000015:
000016: 12,2000                                           BANK     12
000017: 06,2000                                           SETLOC   T4RUP
000018: 06,2000                                           BANK
000019:
000020: 06,2000                                           COUNT    06/T4RPT
000021:
000022: 06,2000           54016        T4RUPT             TS       BANKRUPT
000023: 06,2001           00006                           EXTEND
000024: 06,2002           22012                           QXCH     QRUPT
000025:
000026: 06,2003           11302                           CCS      DSRUPTSW                              #  GOES 7(-1)0 AROUND AND AROUND
000027: 06,2004           12010                           TCF      NORMT4     +1
000028: 06,2005           12007                           TCF      NORMT4
000029:
000030: 06,2006           12136                           TCF      QUIKDSP
000031:
000032: 06,2007           35037        NORMT4             CAF      SEVEN
000033: 06,2010           54070                           TS       RUPTREG1
000034: 06,2011           55302                           TS       DSRUPTSW
000035:
000036: 06,2012                                           COUNT    02/T4RPT
000037:
000038: 06,2012     7711               74K                =        HIGH4
000039:
000040:                                                                                                  #  RELTAB IS A PACKED TABLE. RELAYWORD CODE IN UPPER 4 BITS, RELAY CODE
000041:                                                                                                  #  IN LOWER 5 BITS.
000042:
000043:    4072                                           BLOCK    02
000044:    4000                                           SETLOC   FFTAG12
000045:    4000                                           BANK
000046:
000047:    4072           04025        RELTAB             OCT      04025
000048:    4073           10003                           OCT      10003
000049:    4074           14031                           OCT      14031
000050:    4075           20033                           OCT      20033
000051:    4076           24017                           OCT      24017
000052:    4077           30036                           OCT      30036
000053:    4100           34034                           OCT      34034
000054:    4101           40023                           OCT      40023
000055:    4102           44035                           OCT      44035
000056:    4103           50037                           OCT      50037
000057:    4104           54000                           OCT      54000
000058:    4105           60000        RELTAB11           OCT      60000
000059:
000060:                                                                                                  #  SWITCHED-BANK PORTION.
000061:
000062: 12,2000                                           BANK     12
000063: 06,2000                                           SETLOC   T4RUP
000064: 06,2000                                           BANK
000065:
000066: 06,2012                                           COUNT    06/T4RPT
000067:
000068: 06,2012           11036        CDRVE              CCS      DSPTAB     +11D
000069: 06,2013           02063                           TC       DSPOUT
000070: 06,2014           02063                           TC       DSPOUT
000071:
000072: 06,2015           57036                           XCH      DSPTAB     +11D
000073: 06,2016           74372                           MASK     LOW11
000074: 06,2017           55036                           TS       DSPTAB     +11D
000075: 06,2020           64105                           AD       RELTAB11
000076: 06,2021           00006                           EXTEND
000077: 06,2022           01010                           WRITE    OUT0
000078: 06,2023           02071                           TC       HANG20
000079:
000080:                                                                                                  #  DSPOUT PROGRAM. PUTS OUT DISPLAYS.
000081:
000082: 06,2024           55016        DSPOUTSB           TS       NOUT
000083: 06,2025           45035                           CS       ZERO
000084: 06,2026           54073                           TS       DSRUPTEM                              #  SET TO -0 FOR 1ST PASS THRU DSPTAB
000085: 06,2027           56776                           XCH      DSPCNT
000086: 06,2030           65034                           AD       NEG0                                  #  TO PREVENT +0
000087: 06,2031           54776                           TS       DSPCNT
000088: 06,2032           50776        DSPSCAN            INDEX    DSPCNT
000089: 06,2033           11023                           CCS      DSPTAB
000090: 06,2034           10776                           CCS      DSPCNT                                #  IF DSPTAB ENTRY +, SKIP
000091: 06,2035           12030                           TCF      DSPSCAN    -2                         #  IF DSPCNT +, AGAIN
000092: 06,2036           12047                           TCF      DSPLAY                                #  IF DSPTAB ENTRY -, DISPLAY
000093: 06,2037           00012        TABLNTH            OCT      12                                    #  DEC 10 LENGTH OF DSPTAB
000094: 06,2040           10073                           CCS      DSRUPTEM                              #  IF DSRUPTEM=+0, 2ND PASS THRU DSPTAB
000095: 06,2041           37764        120MRUPT           DEC      16372      B-14                       #  (DSPCNT = 0).  +0 INTO NOUT.
000096: 06,2042           55016                           TS       NOUT
000097: 06,2043           00002                           TC       Q
000098: 06,2044           54073                           TS       DSRUPTEM                              #  IF DSRUPTEM=-0, 1ST PASS THRU DSPTAB
000099: 06,2045           32037                           CAF      TABLNTH                               #  (DSPCNT=0).+0 INTO DSRUPTEM. PASS AGAIN
000100: 06,2046           12031                           TCF      DSPSCAN    -1
000101:
000102: 06,2047           65033        DSPLAY             AD       ONE
000103: 06,2050           50776                           INDEX    DSPCNT
000104: 06,2051           55023                           TS       DSPTAB                                #  REPLACE POSITIVELY
000105: 06,2052           74372                           MASK     LOW11                                 #  REMOVE BITS 12 TO 15
000106: 06,2053           54073                           TS       DSRUPTEM
000107: 06,2054           34364                           CAF      HI5
000108: 06,2055           50776                           INDEX    DSPCNT
000109: 06,2056           74072                           MASK     RELTAB                                #  PICK UP BITS 12 TO 15 OF RELTAB ENTRY
000110: 06,2057           60073                           AD       DSRUPTEM
000111: 06,2060           00006                           EXTEND
000112: 06,2061           01010                           WRITE    OUT0                                  #  WRITE CHANNEL 10
000113: 06,2062           16706                           TCF      Q+1                                   #  *** NORMAL RETURN SKIPS ONE
000114:
000115: 06,2063           10101        DSPOUT             CCS      FLAGWRD5                              #  DONT DISPLAY UNLESS DSKY FLAG ON
000116: 06,2064           35035                           CAF      ZERO
000117: 06,2065           12132                           TCF      NODSPOUT
000118: 06,2066           11016                           CCS      NOUT
000119: 06,2067           02024                           TC       DSPOUTSB
000120: 06,2070           12132                           TCF      NODSPOUT                              #  NO DISPLAY REQUESTS
000121:
000122: 06,2071           42173        HANG20             CS       11,14,9
000123: 06,2072           27302                           ADS      DSRUPTSW
000124:
000125: 06,2073           37700                           CAF      20MRUPT
000126:
000127: 06,2074           54027        SETTIME4           TS       TIME4
000128:
000129:                                                                                                  #  THE STATUS OF THE PROCEED PUSHBUTTON IS MONITORED EVERY 120 MILLISECONDS VIA THE CHANNEL 32 BIT 14 INBIT.
000130:                                                                                                  #  THE STATE OF THIS INBIT IS COMPARED WITH ITS STATE DURING THE PREVIOUS T4RUPT AND IS PROCESSED AS FOLLOWS.
000131:                                                                                                  #        IF PREV ON AND NOW ON   - BYPASS
000132:                                                                                                  #        IF PREV ON AND NOW OFF  - UPDATE IMODES33
000133:                                                                                                  #        IF PREV OFF AND NOW ON  - UPDATE IMODES33 AND PROCESS VIA PINBALL
000134:                                                                                                  #        IF PREV OFF AND NOW OFF - BYPASS
000135:                                                                                                  #  THE LOGIC EMPLOYED REQUIRES ONLY 9 MCT (APPROX. 108 MICROSECONDS) OF COMPUTER TIME WHEN NO CHANGES OCCUR.
000136:
000137: 06,2075           31321        PROCEEDE           CA       IMODES33                              #  MONITIOR FOR PROCEED BUTTON
000138: 06,2076           00006                           EXTEND
000139: 06,2077           06032                           RXOR     CHAN32                                #  CHECK IF BIT 14 DIFFERENT
000140: 06,2100           75016                           MASK     BIT14
000141: 06,2101           00006                           EXTEND
000142: 06,2102           12116                           BZF      T4JUMP                                #  NO CHANGE
000143:
000144: 06,2103           23321                           LXCH     IMODES33
000145: 06,2104           00006                           EXTEND
000146: 06,2105           06001                           RXOR     LCHAN
000147: 06,2106           55321                           TS       IMODES33                              #  UPDATE IMODES33
000148: 06,2107           75016                           MASK     BIT14
000149: 06,2110           10000                           CCS      A
000150: 06,2111           12116                           TCF      T4JUMP                                #  WAS ON - NOW OFF
000151:
000152: 06,2112           34371                           CAF      CHRPRIO                               #  WAS OFF - NOW ON
000153: 06,2113           05150                           TC       NOVAC
000154: 06,2114     0777                                  EBANK=   DSPCOUNT
000155: 06,2114           03357 60101                     2CADR    PROCKEY
000156:
000157:                                                                                                  #  JUMP TO APPROPRIATE ONCE-PER SECOND (.96 SEC ACTUALLY) ACTIVITY
000158:
000159: 06,2116           50070        T4JUMP             INDEX    RUPTREG1
000160: 06,2117           12120                           TCF      +1
000161:
000162: 06,2120           12130                           TCF      OPTTEST
000163: 06,2121           12765                           TCF      OPTMON
000164: 06,2122           12174                           TCF      IMUMON
000165: 06,2123           15347                           TCF      RESUME
000166: 06,2124           12130                           TCF      OPTTEST
000167: 06,2125           12765                           TCF      OPTMON
000168: 06,2126           12174                           TCF      IMUMON
000169: 06,2127           15347                           TCF      RESUME
000170:
000171: 06,2130           04754        OPTTEST            TC       IBNKCALL
000172: 06,2131           20000                           CADR     OPTDRIVE
000173:
000174: 06,2132     7700               20MRUPT            =        OCT37776                              #  (DEC 16382)
000175:
000176: 06,2132           00006        NODSPOUT           EXTEND                                         #  TURN OFF RELAYS
000177: 06,2133           01010                           WRITE    OUT0
000178:
000179: 06,2134           32041                           CAF      120MRUPT                              #  SET FOR NEXT CDRVE
000180: 06,2135           12074                           TCF      SETTIME4
000181:
000182: 06,2136           35016        QUIKDSP            CAF      BIT14
000183: 06,2137           71302                           MASK     DSRUPTSW
000184: 06,2140           00006                           EXTEND
000185: 06,2141           12167                           BZF      QUIKOFF                               #  WROTE LAST TIME, NOW TURN OFF RELAYS.
000186:
000187: 06,2142           11016                           CCS      NOUT
000188: 06,2143           02024                           TC       DSPOUTSB
000189: 06,2144           12154                           TCF      NODSPY                                #  NOUT=0 OR BAD RETURN FROM DSPOUTSB
000190: 06,2145           45016                           CS       BIT14                                 #  GOOD RETURN (WE DISPLAYED SOMETHING)
000191: 06,2146           27302        QUIKRUPT           ADS      DSRUPTSW
000192:
000193: 06,2147           37700                           CAF      20MRUPT
000194: 06,2150           54027                           TS       TIME4
000195:
000196: 06,2151           35023                           CAF      BIT9
000197: 06,2152           27302                           ADS      DSRUPTSW
000198:
000199: 06,2153           05347                           TC       RESUME
000200:
000201: 06,2154           00006        NODSPY             EXTEND
000202: 06,2155           01010                           WRITE    OUT0
000203:
000204: 06,2156           37700        SYNCT4             CAF      20MRUPT
000205: 06,2157           26027                           ADS      TIME4
000206:
000207: 06,2160           35023                           CAF      BIT9
000208: 06,2161           27302                           ADS      DSRUPTSW
000209: 06,2162           11302                           CCS      DSRUPTSW
000210: 06,2163           05347                           TC       RESUME
000211: 06,2164           37737        OCT37737           OCT      37737
000212: 06,2165           02156                           TC       SYNCT4
000213: 06,2166           05347                           TC       RESUME
000214:
000215: 06,2167           00006        QUIKOFF            EXTEND
000216: 06,2170           01010                           WRITE    OUT0
000217: 06,2171           35016                           CAF      BIT14                                 #  RESET DSRUPTSW TO SEND DISPLAY NEXT PASS
000218: 06,2172           12146                           TCF      QUIKRUPT
000219:
000220: 06,2173           22400        11,14,9            OCT      22400
000221:
000222:                                                                                                  #  PROGRAM NAME:  IMUMON
000223:
000224:                                                                                                  #  FUNCTIONAL DESCRIPTION:  THIS PROGRAM IS ENTERED EVERY 480 MS.  IT DETECTS CHANGES OF THE IMU STATUS BITS IN
000225:                                                                                                  #  CHANNEL 30 AND CALLS THE APPROPRIATE SUBROUTINES.  THE BITS PROCESSED AND THEIR RELEVANT SUBROUTINES ARE:
000226:
000227:                                                                                                  #        FUNCTION                BIT     SUBROUTINE CALLED
000228:                                                                                                  #        --------                ---     -----------------
000229:                                                                                                  #        TEMP IN LIMITS           15     TLIM
000230:                                                                                                  #        ISS TURN-ON REQUEST      14     ITURNON
000231:                                                                                                  #        IMU FAIL                 13     IMUFAIL (SETISSW)
000232:                                                                                                  #        IMU CDU FAIL             12     ICDUFAIL (SETISSW)
000233:                                                                                                  #        IMU CAGE                 11     IMUCAGE
000234:                                                                                                  #        IMU OPERATE               9     IMUOP
000235:
000236:                                                                                                  #  THE LAST SAMPLED STATE OF THESE BITS IS LEFT IN IMODES30.  ALSO, EACH SUBROUTINE CALLED FINDS THE NEW
000237:                                                                                                  #  VALUE OF THE BIT IN A, WITH Q SET TO THE PROPER RETURN LOCATION, NXTIFAIL.
000238:
000239:                                                                                                  #  CALLING SEQUENCE:  T4RUPT EVERY 480 MILLISECONDS.
000240:
000241:                                                                                                  #  JOBS OR TASKS INITIATED:  NONE.
000242:
000243:                                                                                                  #  SUBROUTINES CALLED:  TLIM, ITURNON, SETISSW, IMUCAGE, IMUOP.
000244:
000245:                                                                                                  #  ERASABLE INITIALIZATION:
000246:                                                                                                  #        FRESH START OR RESTART WITH NO GROUPS ACTIVE:  C(IMODES30) = OCT 37411.
000247:                                                                                                  #        RESTART WITH ACTIVE GROUPS:     C(IMODES30) = (B(IMODES30)AND(OCT 00035)) PLUS OCT 37400.
000248:                                                                                                  #                                        THIS LEAVES IMU FAIL BITS INTACT.
000249:
000250:                                                                                                  #  ALARMS:  NONE.
000251:
000252:                                                                                                  #  EXIT:  TNONTEST.
000253:
000254:                                                                                                  #  OUTPUT:  UPDATED IMODES30 WITH CHANGES PROCESSED BY APPROPRIATE SUBROUTINE.
000255:
000256: 06,2174           31320        IMUMON             CA       IMODES30                              #  SEE IF THERE HAS BEEN A CHANGE IN THE
000257: 06,2175           00006                           EXTEND                                         #  RELEVANT BITS OF CHAN 30.
000258: 06,2176           06030                           RXOR     CHAN30                                #  CHECK IF BITS 9,11-15 CHANGED
000259: 06,2177           72743                           MASK     30RDMSK
000260: 06,2200           00006                           EXTEND
000261: 06,2201           12231                           BZF      TNONTEST                              #  NO CHANGE IN STATUS.
000262:
000263: 06,2202           54070                           TS       RUPTREG1                              #  SAVE BITS WHICH HAVE CHANGED.
000264: 06,2203           23320                           LXCH     IMODES30                              #  UPDATE IMODES30.
000265: 06,2204           00006                           EXTEND
000266: 06,2205           06001                           RXOR     LCHAN
000267: 06,2206           55320                           TS       IMODES30
000268:
000269: 06,2207           45033                           CS       ONE
000270: 06,2210           56070                           XCH      RUPTREG1
000271: 06,2211           00006                           EXTEND
000272: 06,2212           62507                           BZMF     TLIM                                  #  CHANGE IN IMU TEMP.
000273: 06,2213           12215                           TCF      NXTIFBIT                              #  BEGIN BIT SCAN.
000274:
000275: 06,2214           65033                 -1        AD       ONE                                   #  (RE-ENTERS HERE FROM NXTIFAIL.)
000276: 06,2215           24070        NXTIFBIT           INCR     RUPTREG1                              #  ADVANCE BIT POSITION NUMBER.
000277: 06,2216           60000                 +1        DOUBLE
000278: 06,2217           54000                           TS       A                                     #  SKIP IF OVERFLOW.
000279: 06,2220           12215                           TCF      NXTIFBIT                              #  LOOK FOR BIT.
000280:
000281: 06,2221           56071                           XCH      RUPTREG2                              #  SAVE OVERFLOW-CORRECTED DATA.
000282: 06,2222           50070                           INDEX    RUPTREG1                              #  SELECT NEW VALUE OF THIS BIT.
000283: 06,2223           35016                           CAF      BIT14
000284: 06,2224           71320                           MASK     IMODES30
000285: 06,2225           50070                           INDEX    RUPTREG1
000286: 06,2226           02737                           TC       IFAILJMP
000287:
000288: 06,2227           10071        NXTIFAIL           CCS      RUPTREG2                              #  PROCESS ANY ADDITIONAL CHANGES.
000289: 06,2230           12214                           TCF      NXTIFBIT   -1
000290:
000291:                                                                                                  #  PROGRAM NAME:  TNONTEST.
000292:
000293:                                                                                                  #  FUNCTIONAL DESCRIPTION:  THIS PROGRAM HONORS REQUESTS FOR ISS INITIALIZATION.  ISS TURN-ON (CHANNEL 30 BIT 14)
000294:                                                                                                  #  AND ISS OPERATE (CHANNEL 30 BIT 9) REQUESTS ARE TREATED AS A PAIR AND PROCESSING TAKES PLACE .480 SECONDS
000295:                                                                                                  #  AFTER EITHER ONE APPEARS.  THIS INITIALIZATION TAKES ON ONE OF THE FOLLOWING THREE FORMS:
000296:
000297:                                                                                                  #        1) ISS TURN-ON:  IN THIS SITUATION THE COMPUTER IS OPERATING WHEN THE ISS IS TURNED ON.  NOMINALLY,
000298:                                                                                                  #        BOTH ISS TURN-ON AND ISS OPERATE APPEAR.  THE PLATFORM IS CAGED FOR 90 SECONDS AND THE ICDU'S ZEROED
000299:                                                                                                  #        SO THAT AT THE END OF THE PROCESS THE GIMBAL LOCK MONITOR WILL FUNCTION PROPERLY.
000300:
000301:                                                                                                  #        2) ICDU INITIALIZATION:  IN THIS CASE THE COMPUTER WAS PROBABLY TURNED ON WITH THE ISS IN OPERATE OR
000302:                                                                                                  #        A FRESH START WAS DONE WITH THE ISS IN OPERATE.  IN THIS CASE ONLY ISS OPERATE IS ON.  THE ICDU'S ARE
000303:                                                                                                  #        ZEROED SO THE GIMBAL LOCK MONITOR WILL FUNCTION.  AN EXCEPTION IS IF THE ISS IS IN GIMBAL LOCK AFTER
000304:                                                                                                  #        A RESTART, THE ICDU'S WILL NOT BE ZEROED.
000305:
000306:                                                                                                  #        3) RESTART WITH RESTARTABLE PROGRAM USING THE IMU:  IN THIS CASE, NO INITIALIZATION TAKES PLACE SINCE
000307:                                                                                                  #        IT IS ASSUMED THAT THE USING PROGRAM DID THE INITIALIZATION AND THEREFORE T4RUPT SHOULD NOT INTERFERE.
000308:
000309:                                                                                                  #  IMODES30 BIT 7 IS SET = 1 BY THE FIRST BIT (CHANNEL 30 BIT 14 OR 9) WHICH ARRIVES.  FOLLOWING THIS. TNONTEST IS
000310:                                                                                                  #  ENTERED, FINDS BIT 7 = 1 BUT BIT 8 = 0, SO IT SETS BIT 8 = 1 AND EXITS.  THE NEXT TIME IT FINDS BIT 8 = 1 AND
000311:                                                                                                  #  PROCEEDS, SETTING BITS 8 AND 7 = 0.  AT PROCTNON, IF ISS TURN-ON REQUEST IS PRESENT, THE ISS IS CAGED (ZERO +
000312:                                                                                                  #  COARSE).  IF ISS OPERATE IS NOT PRESENT PROGRAM ALARM 00213 IS ISSUED.  AT THE END OF A 90 SECOND CAGE, BIT 2
000313:                                                                                                  #  OF IMODES30 IS TESTED.  IF IT IS = 1, ISS TURN-ON WAS NOT PRESENT FOR THE ENTIRE 90 SECONDS.  IN THAT CASE, IF
000314:                                                                                                  #  THE ISS TURN-ON REQUEST IS PRESENT THE 90 SECOND WAIT IS REPEATED,  OTHERWISE NO ACTION OCCURS UNLESS A PROGRAM
000315:                                                                                                  #  WAS WAITING FOR THE INITIALIZATION IN WHICH CASE THE PROGRAM IS GIVEN AN IMUSTALL ERROR RETURN.  IF THE DELAY
000316:                                                                                                  #  WENT PROPERLY, THE ISS DELAY OUTBIT IS SENT AND THE ICDU'S ZEROED.  A TASK IS INITIATED TO REMOVE THE PIPA FAIL
000317:                                                                                                  #  INHIBIT BIT IN 10.24 SECONDS.  IF A MISSION PROGRAM WAS WAITING IT IS INFORMED VIA ENDIMU.
000318:
000319:                                                                                                  #  AT PROCTNON, IF ONLY ISS OPERATE IS PRESENT (OPONLY), THE CDU'S ARE ZEROED UNLESS THE PLATFORM IS IN COARSE
000320:                                                                                                  #  ALIGN (= GIMBAL LOCK HERE) OR A MISSION PROGRAM IS USING THE IMU (IMUSEFLG = 1).
000321:
000322:                                                                                                  #  CALLING SEQUENCE:  T4RUPT EVERY 480 MILLISECONDS AFTER IMUMON.
000323:
000324:                                                                                                  #  JOBS OR TASKS INITIATED:  1) ENDTNON, 90 SECONDS AFTER CAGING STARTED.  2) ISSUP, 4 SECONDS AFTER CAGING DONE.
000325:                                                                                                  #        3) PFAILOK, 10.24 SECONDS AFTER INITIALIZATION COMPLETED.  4) UNZ2, 320 MILLISECONDS AFTER ZEROING
000326:                                                                                                  #        STARTED.
000327:
000328:                                                                                                  #  SUBROUTINES CALLED: CAGESUB, CAGESUB2, ZEROICDU, ENDIMU, IMUBAD, NOATTOFF, SETISSW, VARDELAY.
000329:
000330:                                                                                                  #  ERASABLE INITIALIZATION:  SEE IMUMON.
000331:
000332:                                                                                                  #  ALARMS:  PROGRAM ALARM 00213 IF ISS TURN-ON REQUESTED WITHOUT ISS OPERATE.
000333:
000334:                                                                                                  #  EXIT:  ENDTNON EXITS TO C33TEST.  TASKS HAVING TO DO WITH INITIALIZATION EXIT AS FOLLOWS:  MISSION PROGRAM
000335:                                                                                                  #  WAITING AND INITIALIZATION COMPLETE, EXIT TO ENDIMU, MISSION PROGRAM WAITING AND INITIALIZATION FAILED, EXIT TO
000336:                                                                                                  #  IMUBAD, IMU NOT IN USE, EXIT TO TASKOVER.
000337:
000338:                                                                                                  #  OUTPUT:  ISS INITIALIZED.
000339:
000340: 06,2231           41320        TNONTEST           CS       IMODES30                              #  AFTER PROCESSING ALL CHANGES, SEE IF IT
000341: 06,2232           75025                           MASK     BIT7                                  #  IS TIME TO ACT ON A TURN-ON SEQUENCE.
000342: 06,2233           10000                           CCS      A
000343: 06,2234           12367                           TCF      C33TEST                               #  NO - EXAMINE CHANNEL 33.
000344:
000345: 06,2235           35024                           CAF      BIT8                                  #  SEE IF FIRST SAMPLE OR SECOND.
000346: 06,2236           71320                           MASK     IMODES30
000347: 06,2237           10000                           CCS      A
000348: 06,2240           12244                           TCF      PROCTNON                              #  REACT AFTER SECOND SAMPLE.
000349:
000350: 06,2241           35024                           CAF      BIT8                                  #  IF FIRST SAMPLE, SET BIT TO REACT NEXT
000351: 06,2242           27320                           ADS      IMODES30                              #  TIME.
000352: 06,2243           12367                           TCF      C33TEST
000353:
000354:                                                                                                  #  PROCESS IMU TURN-ON REQUESTS AFTER WAITING 1 SAMPLE FOR ALL SIGNALS TO ARRIVE.
000355:
000356: 06,2244           42757        PROCTNON           CS       BITS7&8
000357: 06,2245           71320                           MASK     IMODES30
000358: 06,2246           55320                           TS       IMODES30
000359: 06,2247           75016                           MASK     BIT14                                 #  SEE IF TURN-ON REQUEST.
000360: 06,2250           10000                           CCS      A
000361: 06,2251           12342                           TCF      OPONLY                                #  OPERATE ON ONLY.
000362:
000363: 06,2252           41320                           CS       IMODES30                              #  IF TURN-ON REQUEST, WE SHOULD HAVE IMU
000364: 06,2253           75023                           MASK     BIT9                                  #  OPERATE.
000365: 06,2254           10000                           CCS      A
000366: 06,2255           12260                           TCF      +3
000367:
000368: 06,2256           05664                           TC       ALARM                                 #  ALARM IF NOT.
000369: 06,2257           00213                           OCT      213
000370:
000371: 06,2260           02717                 +3        TC       CAGESUB
000372:
000373: 06,2261           32764                           CAF      90SECS
000374: 06,2262           05261                           TC       WAITLIST
000375: 06,2263  E3,1474                                  EBANK=   CDUIND
000376: 06,2263           02270 14063                     2CADR    ENDTNON
000377:
000378: 06,2265           12367                           TCF      C33TEST
000379:
000380: 06,2266           32764        RETNON             CAF      90SECS
000381: 06,2267           05306                           TC       VARDELAY
000382:
000383: 06,2270           45032        ENDTNON            CS       BIT2                                  #  RESET TURN-ON REQUEST FAIL BIT.
000384: 06,2271           71320                           MASK     IMODES30
000385: 06,2272           57320                           XCH      IMODES30
000386: 06,2273           75032                           MASK     BIT2                                  #  IF IT WAS OFF, SEND ISS DELAY COMPLETE.
000387: 06,2274           00006                           EXTEND
000388: 06,2275           12310                           BZF      ENDTNON2
000389: 06,2276           35016                           CAF      BIT14                                 #  IF IT WAS ON AND TURN-ON REQUEST NOW
000390: 06,2277           71320                           MASK     IMODES30                              #  PRESENT, RE-ENTER 90 SEC DELAY IN WL.
000391: 06,2300           00006                           EXTEND
000392: 06,2301           12266                           BZF      RETNON
000393:
000394: 06,2302           40074                           CS       STATE                                 #  IF IT IS NOT ON NOW, SEE IF A PROG WAS
000395: 06,2303           75024                           MASK     IMUSEFLG                              #  WAITING.
000396: 06,2304           10000                           CCS      A
000397: 06,2305           15340                           TCF      TASKOVER
000398: 06,2306           04715                           TC       POSTJUMP
000399: 06,2307           17522                           CADR     IMUBAD                                #  UNSUCCESSFUL TURN-ON.
000400:
000401: 06,2310           35015        ENDTNON2           CAF      BIT15                                 #  SEND ISS DELAY COMPLETE.
000402: 06,2311           00006                           EXTEND
000403: 06,2312           05012                           WOR      CHAN12                                #  TURN OFF ISS DELAY COUNTER
000404: 06,2313           04754                           TC       IBNKCALL                              #  TURN OFF NO ATT LAMP.
000405: 06,2314           17151                           CADR     NOATTOFF
000406:
000407: 06,2315           05535        UNZ2               TC       ZEROICDU
000408:
000409: 06,2316           45043                           CS       BITS4&5                               #  REMOVE ZERO AND COARSE.
000410: 06,2317           00006                           EXTEND
000411: 06,2320           03012                           WAND     CHAN12
000412:
000413: 06,2321           35021                           CAF      BIT11                                 #  WAIT 10 SECS FOR CTRS TO FIND GIMBALS
000414: 06,2322           05306                           TC       VARDELAY
000415:
000416: 06,2323           42754        ISSUP              CS       OCT54                                 #  REMOVE CAGING, IMU FAIL INHIBIT, AND
000417: 06,2324           71320                           MASK     IMODES30                              #  ICDUFAIL INHIBIT FLAGS.
000418: 06,2325           55320                           TS       IMODES30
000419:
000420: 06,2326           45026                           CS       BIT6                                  #  ENABLE DAP
000421: 06,2327           71321                           MASK     IMODES33
000422: 06,2330           55321                           TS       IMODES33
000423:
000424: 06,2331           02665                           TC       SETISSW                               #  ISS WARNING MIGHT HAVE BEEN INHIBITED.
000425:
000426: 06,2332           45015                           CS       BIT15                                 #  REMOVE IMU DELAY COMPLETE DISCRETE.
000427: 06,2333           00006                           EXTEND
000428: 06,2334           03012                           WAND     CHAN12
000429:
000430: 06,2335           35061                           CAF      4SECS                                 #  DONT ENABLE PROG ALARM ON PIP FAIL FOR
000431: 06,2336           05261                           TC       WAITLIST                              #  ANOTHER 4 SECS.
000432: 06,2337  E3,1474                                  EBANK=   CDUIND
000433: 06,2337           03137 16063                     2CADR    PFAILOK
000434:
000435: 06,2341           15340                           TCF      TASKOVER
000436:
000437: 06,2342           35030        OPONLY             CAF      BIT4
000438: 06,2343           00006                           EXTEND                                         #  IF OPERATE ON ONLY AND WE ARE IN COARSE
000439: 06,2344           02012                           RAND     CHAN12                                #  ALIGN, DONT ZERO THE CDUS BECAUSE WE
000440: 06,2345           10000                           CCS      A                                     #  MIGHT BE IN GIMBAL LOCK. USE V41N20 TO
000441: 06,2346           12367                           TCF      C33TEST                               #  RECOVER.
000442:
000443: 06,2347           35024                           CAF      IMUSEFLG                              #  OTHERWISE, ZERO THE COUNTERS
000444: 06,2350           70074                           MASK     STATE                                 #  UNLESS SOMEONE IS USING THE IMU.
000445: 06,2351           10000                           CCS      A
000446: 06,2352           12367                           TCF      C33TEST
000447:
000448: 06,2353           02730                           TC       CAGESUB2                              #  SET TURNON FLAGS.
000449:
000450: 06,2354           04754        ISSZERO            TC       IBNKCALL                              #  TURN OFF NO ATT LAMP
000451: 06,2355           17151                           CADR     NOATTOFF                              #      IMU CAGE OFF ENTRY
000452:
000453: 06,2356           35027                           CAF      BIT5                                  #  ISS CDU ZERO
000454: 06,2357           00006                           EXTEND
000455: 06,2360           05012                           WOR      CHAN12
000456:
000457: 06,2361           05535                           TC       ZEROICDU
000458: 06,2362           35026                           CAF      BIT6                                  #  WAIT 300 MS FOR AGS TO RECEIVE SIGNAL.
000459: 06,2363           05261                           TC       WAITLIST
000460: 06,2364     1331                                  EBANK=   OPTMODES
000461: 06,2364           02315 14062                     2CADR    UNZ2
000462:
000463: 06,2366           12367                           TCF      C33TEST
000464:
000465:                                                                                                  #  PROGRAM NAME:  C33TEST
000466:
000467:                                                                                                  #  FUNCTIONAL DESCRIPTION:  THIS PROGRAM MONITORS THREE FLIP-FLOP INBITS OF CHANNEL 33 AND CALLS THE APPROPRIATE
000468:                                                                                                  #  SUBROUTINE TO PROCESS A CHANGE.  IT IS ANALOGOUS TO IMUMON, WHICH MONITORS CHANNEL 30, EXCEPT THAT IT READS
000469:                                                                                                  #  CHANNEL 33 WITH A WAND INSTRUCTION BECAUSE A 'WRITE' PULSE IS REQUIRED TO RESET THE FLIP-FLOPS.  THE BITS
000470:                                                                                                  #  PROCESSED AND THE SUBROUTINES CALLED ARE:
000471:                                                                                                  #        BIT     FUNCTION                SUBROUTINE
000472:                                                                                                  #        ---     --------                ----------
000473:                                                                                                  #         13     PIPA FAIL               PIPFAIL
000474:                                                                                                  #         12     DOWNLINK TOO FAST       DNTMFAST
000475:                                                                                                  #         11     UPLINK TOO FAST         UPTMFAST
000476:
000477:                                                                                                  #  UPON ENTRY TO THE SUBROUTINE, THE NEW BIT STATE IS IN A.
000478:
000479:                                                                                                  #  CALLING SEQUENCE:  EVERY 480 MILLISECONDS AFTER TNONTEST.
000480:
000481:                                                                                                  #  JOBS OR TASKS INITIATED:  NONE.
000482:
000483:                                                                                                  #  SUBROUTINES CALLED:  PIPFAIL, DNTMFAST AND UPTMFAST ON BIT CHANGES.
000484:
000485:                                                                                                  #  ERASABLE INITIALIZATION:  C(IMODES33) = OCT 16000 ON A FRESH START OR RESTART, THEREFORE, THESE ALARMS WILL
000486:                                                                                                  #  REAPPEAR IF THE CONDITIONS PERSIST.
000487:
000488:                                                                                                  #  ALARMS:  NONE.
000489:
000490:                                                                                                  #  EXIT:  GLOCKMON.
000491:
000492:                                                                                                  #  OUTPUT:  UPDATED BITS 13, 12 AND 11 OF IMODES33 WITH CHANGES PROCESSED.
000493:
000494: 06,2367           31321        C33TEST            CA       IMODES33                              #  SEE IF RELEVANT CHAN33 BITS HAVE
000495: 06,2370           75104                           MASK     33RDMSK
000496: 06,2371           54001                           TS       L                                     #  CHANGED.
000497: 06,2372           35104                           CAF      33RDMSK
000498: 06,2373           00006                           EXTEND
000499: 06,2374           03033                           WAND     CHAN33                                #  RESETS FLIP-FLOP INPUTS.
000500: 06,2375           00006                           EXTEND
000501: 06,2376           06001                           RXOR     LCHAN
000502: 06,2377           00006                           EXTEND
000503: 06,2400           12427                           BZF      GLOCKMON                              #  ON NO CHANGE.
000504:
000505: 06,2401           54070                           TS       RUPTREG1                              #  SAVE BITS WHICH HAVE CHANGED.
000506: 06,2402           23321                           LXCH     IMODES33
000507: 06,2403           00006                           EXTEND
000508: 06,2404           06001                           RXOR     LCHAN
000509: 06,2405           55321                           TS       IMODES33                              #  UPDATED IMODES33.
000510:
000511: 06,2406           35035                           CAF      ZERO
000512: 06,2407           56070                           XCH      RUPTREG1
000513: 06,2410           60000                           DOUBLE
000514: 06,2411           12414                           TCF      NXTIBT     +1                         #  SCAN FOR BIT CHANGES.
000515:
000516: 06,2412           65033                 -1        AD       ONE
000517: 06,2413           24070        NXTIBT             INCR     RUPTREG1
000518: 06,2414           60000                 +1        DOUBLE
000519: 06,2415           54000                           TS       A                                     #  (CODING IDENTICAL TO CHAN 30).
000520: 06,2416           12413                           TCF      NXTIBT
000521:
000522: 06,2417           56071                           XCH      RUPTREG2
000523: 06,2420           50070                           INDEX    RUPTREG1                              #  GET NEW VALUE OF BIT WHICH CHANGED.
000524: 06,2421           35017                           CAF      BIT13
000525: 06,2422           71321                           MASK     IMODES33
000526: 06,2423           50070                           INDEX    RUPTREG1
000527: 06,2424           02745                           TC       C33JMP
000528:
000529: 06,2425           10071        NXTFL33            CCS      RUPTREG2                              #  PROCESS POSSIBLE ADDITIONAL CHANGES.
000530: 06,2426           12412                           TCF      NXTIBT     -1
000531:
000532:                                                                                                  #  PROGRAM NAME:  GLOCKMON
000533:
000534:                                                                                                  #  FUNCTIONAL DESCRIPTION:  THIS PROGRAM MONITORS THE CDUZ COUNTER TO DETERMINE WHETHER THE ISS IS IN GIMBAL LOCK
000535:                                                                                                  #  AND TAKES ACTION IF IT IS.  THREE REGIONS OF MIDDLE GIMBAL ANGLE (MGA) ARE USED:
000536:
000537:                                                                                                  #        1) ABS(MGA) LESS THAN OR EQUAL TO 70 DEGREES - NORMAL MODE.
000538:                                                                                                  #        2) ABS(MGA) GREATER THAN 70 DEGREES AND LESS THAN OR EQUAL TO 85 DEGREES - GIMBAL LOCK LAMP TURNED ON.
000539:                                                                                                  #        3) ABS(MGA) GREATER THAN 85 DEGREES - ISS PUT IN COARSE ALIGN AND NO ATT LAMP TURNED ON.
000540:
000541:                                                                                                  #  CALLING SEQUENCE:  EVERY 480 MILLISECONDS AFTER C33TEST.
000542:
000543:                                                                                                  #  JOBS OR TASKS INITIATED:  NONE.
000544:
000545:                                                                                                  #  SUBROUTINES CALLED:   1) SETCOARS WHEN ABS(MGA) GREATER THAN 85 DEGREES AND ISS NOT IN COARSE ALIGN.
000546:                                                                                                  #                        2) LAMPTEST BEFORE TURNING OFF GIMBAL LOCK LAMP.
000547:
000548:                                                                                                  #  ERASABLE INITIALIZATION:
000549:                                                                                                  #                1) FRESH START OR RESTART WITH NO GROUPS ACTIVE:  C(CDUZ) = 0, IMODES30 BIT 6 = 0, IMODES33 BIT 1 = 0.
000550:                                                                                                  #                2) RESTART WITH GROUPS ACTIVE:  SAME AS FRESH START EXCEPT C(CDUZ) NOT CHANGED SO GIMBAL MONITOR
000551:                                                                                                  #                                                PROCEEDS AS BEFORE.
000552:
000553:                                                                                                  #  ALARMS:       1) MGA REGION (2) CAUSES GIMBAL LOCK LAMP TO BE LIT.
000554:                                                                                                  #                2) MGA REGION (3) CAUSES THE ISS TO BE PUT IN COARSE ALIGN AND THE NO ATT LAMP TO BE LIT IF EITHER NOT
000555:                                                                                                  #                   SO ALREADY.
000556:
000557: 06,2427           10034        GLOCKMON           CCS      CDUZ
000558: 06,2430           12434                           TCF      GLOCKCHK                              #  SEE IF MAGNITUDE OF MGA IS GREATER THAN
000559: 06,2431           12460                           TCF      SETGLOCK                              #  70 DEGREES.
000560: 06,2432           12434                           TCF      GLOCKCHK
000561: 06,2433           12460                           TCF      SETGLOCK
000562:
000563: 06,2434           62505        GLOCKCHK           AD       -70DEGS
000564: 06,2435           00006                           EXTEND
000565: 06,2436           62457                           BZMF     SETGLOCK   -1                         #  NO LOCK.
000566:
000567: 06,2437           62506                           AD       -15DEGS                               #  SEE IF ABS(MGA) GREATER THAN 85 DEGS.
000568: 06,2440           00006                           EXTEND
000569: 06,2441           62455                           BZMF     NOGIMRUN
000570:
000571: 06,2442           35030                           CAF      BIT4                                  #  IF SO, SYSTEM SHOULD BE IN COARSE ALIGN
000572: 06,2443           00006                           EXTEND                                         #  TO PREVENT GIMBAL RUN-AWAY.
000573: 06,2444           02012                           RAND     CHAN12
000574: 06,2445           10000                           CCS      A
000575: 06,2446           12455                           TCF      NOGIMRUN
000576:
000577: 06,2447           04754                           TC       IBNKCALL                              #  GO INTO COARSE ALIGN.
000578: 06,2450           17027                           CADR     SETCOARS
000579:
000580: 06,2451           36211                           CAF      SIX                                   #  ENABLE ISS ERROR COUNTERS IN 60 MS
000581: 06,2452           05261                           TC       WAITLIST
000582: 06,2453  E3,1474                                  EBANK=   CDUIND
000583: 06,2453           03023 16063                     2CADR    CA+ECE
000584:
000585: 06,2455           35026        NOGIMRUN           CAF      BIT6                                  #  TURN ON GIMBAL LOCK LAMP.
000586: 06,2456           12460                           TCF      SETGLOCK
000587:
000588: 06,2457           35035                 -1        CAF      ZERO
000589: 06,2460           61036        SETGLOCK           AD       DSPTAB     +11D                       #  SEE IF PRESENT STATE OF GIMBAL LOCK LAMP
000590: 06,2461           75026                           MASK     BIT6                                  #  AGREES WITH DESIRED STATE BY HALF ADDING
000591: 06,2462           00006                           EXTEND                                         #  THE TWO.
000592: 06,2463           15347                           BZF      GLOCKOK                               #  OK AS IS.
000593:
000594: 06,2464           71036                           MASK     DSPTAB     +11D                       #  IF OFF, DONT TURN ON IF IMU BEING CAGED.
000595: 06,2465           10000                           CCS      A
000596: 06,2466           12502                           TCF      GLAMPTST                              #  TURN OFF UNLESS LAMP TEST IN PROGRESS.
000597:
000598: 06,2467           35026                           CAF      BIT6
000599: 06,2470           71320                           MASK     IMODES30
000600: 06,2471           10000                           CCS      A
000601: 06,2472           15347                           TCF      GLOCKOK
000602:
000603: 06,2473           41036        GLINVERT           CS       DSPTAB     +11D                       #  INVERT GIMBAL LOCK LAMP.
000604: 06,2474           75026                           MASK     BIT6
000605: 06,2475           65015                           AD       BIT15                                 #  TO INDICATE CHANGE IN DSPTAB +11D.
000606: 06,2476           57036                           XCH      DSPTAB     +11D
000607: 06,2477           72164                           MASK     OCT37737
000608: 06,2500           27036                           ADS      DSPTAB     +11D
000609: 06,2501           15347                           TCF      GLOCKOK
000610:
000611: 06,2502           02750        GLAMPTST           TC       LAMPTEST                              #  TURN OFF UNLESS LAMP TEST IN PROGRESS.
000612: 06,2503           15347                           TCF      GLOCKOK
000613: 06,2504           12473                           TCF      GLINVERT
000614:
000615: 06,2505           63434        -70DEGS            DEC      -.38888                               #  -70 DEGREES SCALED IN HALF-REVOLUTIONS.
000616: 06,2506           75252        -15DEGS            DEC      -.08333
000617:
000618:                                                                                                  #  PROGRAM NAME:  TLIM.
000619:
000620:                                                                                                  #  FUNCTIONAL DESCRIPTION:  THIS PROGRAM MAINTAINS THE TEMP LAMP (BIT 4 OF CHANNEL 11) ON THE DSKY TO AGREE WITH
000621:                                                                                                  #  THE TEMP SIGNAL FROM THE ISS (BIT 15 OF CHANNEL 30).  HOWEVER, THE LIGHT WILL NOT BE TURNED OFF IF A LAMP TEST
000622:                                                                                                  #  IS IN PROGRESS.
000623:
000624:                                                                                                  #  CALLING SEQUENCE:  CALLED BY IMUMON ON A CHANGE OF BIT 15 OF CHANNEL 30.
000625:
000626:                                                                                                  #  JOBS OR TASKS INITIATED:  NONE.
000627:
000628:                                                                                                  #  SUBROUTINES CALLED:  LAMPTEST.
000629:
000630:                                                                                                  #  ERASABLE INITIALIZATION:  FRESH START AND RESTART TURN THE TEMP LAMP OFF.
000631:
000632:                                                                                                  #  ALARMS:  TEMP LAMP TURNED ON WHEN IMU TEMP GOES OUT OF LIMITS.
000633:
000634:                                                                                                  #  EXIT:  NXTIFAIL.
000635:
000636:                                                                                                  #  OUTPUT:  SERVICE OF TEMP LAMP.                  IN A, EXCEPT FOR TLIM.
000637:
000638: 06,2507           75013        TLIM               MASK     POSMAX                                #  REMOVE BIT FROM WORD OF CHANGES AND SET
000639: 06,2510           54071                           TS       RUPTREG2                              #  DSKY TEMP LAMP ACCORDINGLY.
000640:
000641: 06,2511           11320                           CCS      IMODES30
000642: 06,2512           12520                           TCF      TEMPOK
000643: 06,2513           12520                           TCF      TEMPOK
000644:
000645: 06,2514           35030                           CAF      BIT4                                  #  TURN ON LAMP.
000646: 06,2515           00006                           EXTEND
000647: 06,2516           05011                           WOR      DSALMOUT
000648: 06,2517           12227                           TCF      NXTIFAIL
000649:
000650: 06,2520           02750        TEMPOK             TC       LAMPTEST                              #  IF TEMP NOW OK, DONT TURN OFF LAMP IF
000651: 06,2521           12227                           TCF      NXTIFAIL                              #  LAMP TEST IN PROGRESS.
000652:
000653: 06,2522           45030                           CS       BIT4
000654: 06,2523           00006                           EXTEND
000655: 06,2524           03011                           WAND     DSALMOUT                              #  TURN OFF TEMP CAUTION
000656: 06,2525           12227                           TCF      NXTIFAIL
000657:
000658:                                                                                                  #  PROGRAM NAME:  ITURNON.
000659:
000660:                                                                                                  #  FUNCTIONAL DESCRIPTION:  THIS PROGRAM IS CALLED BY IMUMON WHEN A CHANGE OF BIT 14 OF CHANNEL 30 (ISS TURN-ON
000661:                                                                                                  #  REQUEST) IS DETECTED.  UPON ENTRY, ITURNON CHECKS IF A TURN-ON DELAY SEQUENCE HAS FAILED, AND IF SO, IT EXITS.
000662:                                                                                                  #  IF NOT, IT CHECKS WHETHER THE TURN-ON REQUEST CHANGE IS TO ON OR OFF.  IF ON, IT SETS BIT 7 OF IMODES30 TO 1 SO
000663:                                                                                                  #  THAT TNONTEST WILL INITIATE THE ISS INITIALIZATION SEQUENCE.  IF OFF, THE TURN-ON DELAY SIGNAL, CHANNEL 12 BIT
000664:                                                                                                  #  15, IS CHECKED AND IF IT IS ON, ITURNON EXITS.  IF THE DELAY SIGNAL IS OFF, PROGRAM ALARM 00207 IS ISSUED, BIT 2
000665:                                                                                                  #  OF IMODES30 IS SET TO 1 AND THE PROGRAM EXITS.
000666:
000667:                                                                                                  #  THE SETTING OF BIT 2 OF IMODES30 (ISS DELAY SEQUENCE FAIL) INHIBITS THIS ROUTINE AND IMUOP FROM
000668:                                                                                                  #  PROCESSING ANY CHANGES.  THIS BIT WILL BE RESET BY THE ENDTNON ROUTINE WHEN THE CURRENT 90 SECOND DELAY PERIOD
000669:                                                                                                  #  ENDS.
000670:
000671:                                                                                                  #  CALLING SEQUENCE:  FROM IMUMOM WHEN ISS TURN-ON REQUEST CHANGES STATE.
000672:
000673:                                                                                                  #  JOBS OR TASKS INITIATED:  NONE.
000674:
000675:                                                                                                  #  SUBROUTINES CALLED:  ALARM, IF THE ISS TURN-ON REQUEST IS NOT PRESENT FOR 90 SECONDS.
000676:
000677:                                                                                                  #  ERASABLE INITIALIZATION:  FRESH START AND RESTART SET BIT 15 OF CHANNEL 12 AND BITS 2 AND 7 OF IMODES30 TO 0,
000678:                                                                                                  #  AND BIT 14 OF IMODES30 TO 1.
000679:
000680:                                                                                                  #  ALARMS: PROGRAM ALARM 00207 IS ISSUED IF THE ISS TURN-ON REQUEST SIGNAL IS NOT PRESENT FOR 90 SECONDS.
000681:
000682:                                                                                                  #  EXIT:  NXTIFAIL.
000683:
000684:                                                                                                  #  OUTPUT:  BIT 7 OF IMODES30 TO START ISS INITIALIZATION, OR BIT 2 OF IMODES30 AND PROGRAM ALARM 00207 TO INDICATE
000685:                                                                                                  #  A FAILED TURN-ON SEQUENCE.
000686:
000687: 06,2526           35032        ITURNON            CAF      BIT2                                  #  IF DELAY REQUEST HAS GONE OFF
000688: 06,2527           71320                           MASK     IMODES30                              #  PREMATURELY, DO NOT PROCESS ANY CHANGES
000689: 06,2530           10000                           CCS      A                                     #  UNTIL THE CURRENT 90 SEC WAIT EXPIRES.
000690: 06,2531           12227                           TCF      NXTIFAIL
000691:
000692: 06,2532           35016                           CAF      BIT14                                 #  SEE IF JUST ON OR OFF.
000693: 06,2533           71320                           MASK     IMODES30
000694: 06,2534           00006                           EXTEND
000695: 06,2535           12551                           BZF      ITURNON2                              #  IF JUST ON.
000696:
000697: 06,2536           35015                           CAF      BIT15
000698: 06,2537           00006                           EXTEND                                         #  SEE IF DELAY PRESENT DISCRETE HAS BEEN
000699: 06,2540           02012                           RAND     CHAN12                                #  SENT.  IF SO, ACTION COMPLETE.
000700: 06,2541           00006                           EXTEND
000701: 06,2542           12544                           BZF      +2
000702: 06,2543           12227                           TCF      NXTIFAIL
000703:
000704: 06,2544           35032                           CAF      BIT2                                  #  IF NOT, SET BIT TO INDICATE REQUEST NOT
000705: 06,2545           27320                           ADS      IMODES30                              #  PRESENT FOR FULL DURATION.
000706: 06,2546           05664                           TC       ALARM
000707: 06,2547           00207                           OCT      207
000708: 06,2550           12227                           TCF      NXTIFAIL
000709:
000710: 06,2551           41320        ITURNON2           CS       IMODES30                              #  SET BIT7 TO INDICATE WAIT OF 1 SAMPLE
000711: 06,2552           75025                           MASK     BIT7
000712: 06,2553           27320                           ADS      IMODES30
000713: 06,2554           12227                           TCF      NXTIFAIL
000714:
000715:                                                                                                  #  PROGRAM NAME:  IMUCAGE.
000716:
000717:                                                                                                  #  FUNCTIONAL DESCRIPTION:  THIS PROGRAM PROCESSES CHANGES OF THE IMUCAGE INBIT, CHANNEL 30 BIT 11.  IF THE BIT
000718:                                                                                                  #  CHANGES TO 0 (CAGE BUTTON PRESSED), THE ISS IS CAGED (ICDU ZERO + COARSE ALIGN + NO ATT LAMP) UNTIL THE
000719:                                                                                                  #  ASTRONAUT SELECTS ANOTHER PROGRAM TO ALIGN THE ISS.  ANY PULSE TRAINS TO THE ICDU'S AND GYRO'S ARE TERMINATED,
000720:                                                                                                  #  THE ASSOCIATED OUTCOUNTERS ARE ZEROED AND THE GYRO'S ARE DE-SELECTED.  NO ACTION OCCURS WHEN THE BUTTON IS
000721:                                                                                                  #  RELEASED (INBIT CHANGES TO 1).
000722:
000723:                                                                                                  #  CALLING SEQUENCE:  BY IMUMON WHEN IMU CAGE BIT CHANGES.
000724:
000725:                                                                                                  #  JOBS OR TASKS INITIATED:  NONE.
000726:
000727:                                                                                                  #  SUBROUTINES CALLED:  CAGESUB.
000728:
000729:                                                                                                  #  ERASABLE INITIALIZATION:  FRESH START AND RESTART SET BIT 11 OF IMODES30 TO 1.
000730:
000731:                                                                                                  #  ALARMS: NONE.
000732:
000733:                                                                                                  #  EXIT:  NXTIFAIL.
000734:
000735:                                                                                                  #  OUTPUT:  ISS CAGED, COUNTERS ZEROED, PULSE TRAINS TERMINATED AND NO ATT LAMP LIT.
000736:
000737: 06,2555           10000        IMUCAGE            CCS      A                                     #  NO ACTION IF GOING OFF.
000738: 06,2556           12354                           TCF      ISSZERO
000739: 06,2557           42762                           CS       OCT77000                              #  TERMINATE ICDU, OPTICS, GYRO PULSE TRAINS
000740: 06,2560           00006                           EXTEND
000741: 06,2561           03014                           WAND     CHAN14
000742:
000743: 06,2562           42756                           CS       OCT272                                #  KNOCK DOWN TVC ENABLE, IMU ERROR COUNTER
000744: 06,2563           00006                           EXTEND                                         #    ENABLE, ZERO ICDU, COARSE ALIGN
000745: 06,2564           03012                           WAND     CHAN12                                #    ENABLE, OPTICS ERR CNTR ENABLE
000746:
000747: 06,2565           45017                           CS       BIT13                                 #  TURN OFF ENGINE
000748: 06,2566           00006                           EXTEND
000749: 06,2567           03011                           WAND     DSALMOUT
000750:
000751: 06,2570           02725                           TC       CAGESUB1
000752:
000753: 06,2571           04754                           TC       IBNKCALL                              #  KNOCK DOWN TRACK, REFSMMAT, DRIFT FLAGS
000754: 06,2572           17060                           CADR     RNDREFDR
000755:
000756: 06,2573           45035                           CS       ZERO                                  #  ZERO COMMAND OUT-COUNTERS
000757: 06,2574           54050                           TS       CDUXCMD
000758: 06,2575           54051                           TS       CDUYCMD
000759: 06,2576           54052                           TS       CDUZCMD
000760: 06,2577           54047                           TS       GYROCMD
000761:
000762: 06,2600           42761                           CS       OCT740                                #  HAVING WAITED AT LEAST 27 MCT FROM
000763: 06,2601           00006                           EXTEND                                         #  GYRO PULSE TRAIN TERMINATION, WE CAN
000764: 06,2602           03014                           WAND     CHAN14                                #  DE-SELECT THE GYROS.
000765: 06,2603           12227                           TCF      NXTIFAIL
000766:
000767:                                                                                                  #  PROGRAM NAME:  IMUOP.
000768:
000769:                                                                                                  #  FUNCTIONAL DESCRIPTION:  THIS PROGRAM PROCESSES CHANGES IN THE ISS OPERATE DISCRETE, BIT 9 OF CHANNEL 30.
000770:                                                                                                  #  IF THE INBIT CHANGES TO 0, INDICATING ISS ON, IMUOP GENERALLY SETS BIT 7 OF IMODES30 TO 1 TO REQUEST ISS
000771:                                                                                                  #  INITIALIZATION VIA TNONTEST.  AN EXCEPTION IS DURING A FAILED ISS DELAY DURING WHICH BIT 2 OF IMODES30 IS SET
000772:                                                                                                  #  TO 1 AND NO FURTHER INITIALIZATION IS REQUIRED.  WHEN THE INBIT CHANGES TO 1, INDICATING ISS OFF, IMUSEFLG IS
000773:                                                                                                  #  TESTED TO SEE IF ANY PROGRAM WAS USING THE ISS.  IF SO, PROGRAM ALARM 00214 IS ISSUED.
000774:
000775:                                                                                                  #  CALLING SEQUENCE:  BY IMUMON WHEN BIT 9 OF CHANNEL 30 CHANGES.
000776:
000777:                                                                                                  #  JOBS OR TASKS INITIATED:  NONE.
000778:
000779:                                                                                                  #  SUBROUTINES CALLED:  ALARM, IF ISS IS TURNED OFF WHILE IN USE.
000780:
000781:                                                                                                  #  ERASABLE INITIALIZATION:  ON FRESH START AND RESTART, BIT 9 OF IMODES30 IS SET TO 1 EXCEPT WHEN THE GIMBAL LOCK
000782:                                                                                                  #  LAMP IS ON, IN WHICH CASE IT IS SET TO 0.  THIS PREVENTS ICDU ZERO BY TNONTEST WITH THE ISS IN GIMBAL LOCK.
000783:
000784:                                                                                                  #  ALARMS:  PROGRAM ALARM 00214 IF THE ISS IS TURNED OFF WHILE IN USE.
000785:
000786:                                                                                                  #  EXIT:  NXTIFAIL.
000787:
000788:                                                                                                  #  OUTPUT:  ISS INITIALIZATION REQUEST (IMODES30 BIT 7) OR PROGRAM ALARM 00214.
000789:
000790: 06,2604           00006        IMUOP              EXTEND                                         #  IF OPERATE JUST ON, WAIT 1 SAMPLE.
000791: 06,2605           12625                           BZF      IMUOP2
000792:
000793: 06,2606           41321                           CS       IMODES33                              #  DISABLE DAP
000794: 06,2607           75026                           MASK     BIT6
000795: 06,2610           27321                           ADS      IMODES33
000796:
000797: 06,2611           04754                           TC       IBNKCALL                              #  KNOCK DOWN TRACK, REFSMMAT, DRIFT FLAGS
000798: 06,2612           17060                           CADR     RNDREFDR
000799:
000800: 06,2613           42757                           CS       BITS7&8                               #  KNOCK DOWN RENDEVOUS, IMUUSE FLAGS
000801: 06,2614           70074                           MASK     STATE
000802: 06,2615           56074                           XCH      STATE                                 #  IF GOING OFF, ALARM IF PROG USING IMU
000803: 06,2616           40000                           COM
000804: 06,2617           75024                           MASK     IMUSEFLG
000805: 06,2620           10000                           CCS      A
000806: 06,2621           12227                           TCF      NXTIFAIL
000807:
000808: 06,2622           05664                           TC       ALARM
000809: 06,2623           00214                           OCT      214
000810: 06,2624           12227                           TCF      NXTIFAIL
000811:
000812: 06,2625           35032        IMUOP2             CAF      BIT2                                  #  SEE IF FAILED ISS TURN-ON SEQ IN PROG.
000813: 06,2626           71320                           MASK     IMODES30
000814: 06,2627           10000                           CCS      A
000815: 06,2630           12227                           TCF      NXTIFAIL                              #  IF SO, DONT PROCESS UNTIL PRESENT 90
000816: 06,2631           12551                           TCF      ITURNON2                              #  SECONDS EXPIRES.
000817:
000818:                                                                                                  #  PROGRAM NAME:  PIPFAIL
000819:
000820:                                                                                                  #  FUNCTIONAL DESCRIPTION:  THIS PROGRAM PROCESSES CHANGES OF BIT 13 OF CHANNEL 33, PIPA FAIL.  IT SETS BIT 10 OF
000821:                                                                                                  #  IMODES30 TO AGREE.  IT CALLS SETISSW IN CASE A PIPA FAIL NECESSITATES AN ISS WARNING.  IF NOT, I.E., IMODES30
000822:                                                                                                  #  BIT 1 = 1, AND A PIPA FAIL IS PRESENT AND THE ISS IS NOT BEING INITIALIZED, PROGRAM ALARM 00212 IS ISSUED.
000823:
000824:                                                                                                  #  CALLING SEQUENCE:  BY C33TEST ON CHANGES OF CHANNEL 33 BIT 13.
000825:
000826:                                                                                                  #  JOBS OR TASKS INITIATED:  NONE.
000827:
000828:                                                                                                  #  SUBROUTINES CALLED:  1) SETISSW, AND 2) ALARM (SEE FUNCTIONAL DESCRIPTION).
000829:
000830:                                                                                                  #  ERASABLE INITIALIZATION:  SEE IMUMON FOR INITIALIZATION OF IMODES30.  THE RELAVANT BITS ARE 5, 7, 8, 9, AND 10.
000831:
000832:                                                                                                  #  ALARMS:  PROGRAM ALARM 00212 IF PIPA FAIL IS PRESENT BUT NEITHER ISS WARNING IS TO BE ISSUED NOR THE ISS IS
000833:                                                                                                  #  BEING INITIALIZED.
000834:
000835:                                                                                                  #  EXIT:  NXTFL33.
000836:
000837:                                                                                                  #  OUTPUT:  PROGRAM ALARM 00212 AND ISS WARNING MAINTENANCE.
000838:
000839: 06,2632           10000        PIPFAIL            CCS      A                                     #  SET BIT10 IN IMODES30 SO ALL ISS WARNING
000840: 06,2633           35022                           CAF      BIT10                                 #  INFO IS IN ONE REGISTER.
000841: 06,2634           57320                           XCH      IMODES30
000842: 06,2635           72763                           MASK     -BIT10
000843: 06,2636           27320                           ADS      IMODES30
000844:
000845: 06,2637           02665                           TC       SETISSW
000846:
000847: 06,2640           41320                           CS       IMODES30                              #  IF PIP FAIL DOESNT LIGHT ISS WARNING, DO
000848: 06,2641           75033                           MASK     BIT1                                  #  A PROGRAM ALARM IF IMU OPERATING BUT NOT
000849: 06,2642           10000                           CCS      A                                     #  CAGED OR BEING TURNED ON.
000850: 06,2643           12425                           TCF      NXTFL33
000851:
000852: 06,2644           31320                           CA       IMODES30
000853: 06,2645           72760                           MASK     OCT1720
000854: 06,2646           10000                           CCS      A
000855: 06,2647           12425                           TCF      NXTFL33                               #  ABOVE CONDITION NOT MET.
000856:
000857: 06,2650           05664                           TC       ALARM
000858: 06,2651           00212                           OCT      212
000859: 06,2652           12425                           TCF      NXTFL33
000860:
000861:                                                                                                  #  PROGRAM NAMES:  DNTMFAST, UPTMFAST
000862:
000863:                                                                                                  #  FUNCTIONAL DESCRIPTION:  THESE PROGRAMS PROCESS CHANGES OF BITS 12 AND 11 OF CHANNEL 33.  IF A BIT CHANGES TO A
000864:                                                                                                  #  0, A PROGRAM ALARM IS ISSUED.  THE ALARMS ARE:
000865:
000866:                                                                                                  #        BIT     ALARM   CAUSE
000867:                                                                                                  #        ---     -----   -----
000868:                                                                                                  #         12     01105   DOWNLINK TOO FAST
000869:                                                                                                  #         11     01106   UPLINK TOO FAST
000870:
000871:                                                                                                  #  CALLING SEQUENCE:  BY C33TEST ON A BIT CHANGE.
000872:
000873:                                                                                                  #  SUBROUTINES CALLED:  ALARM, IF A BIT CHANGES TO A 0.
000874:
000875:                                                                                                  #  ERASABLE INITIALIZATION:  FRESH START OR RESTART, BITS 12 AND 11 OF IMODES33 ARE SET TO 1.
000876:
000877:                                                                                                  #  ALARMS:  SEE FUNCTIONAL DESCRIPTION.
000878:
000879:                                                                                                  #  EXIT:  NXTFL33.
000880:
000881:                                                                                                  #  OUTPUT:  PROGRAM ALARM ON A BIT CHANGE TO 0.
000882:
000883: 06,2653           10000        DNTMFAST           CCS      A                                     #  DO PROG ALARM IF TM TOO FAST.
000884: 06,2654           12425                           TCF      NXTFL33
000885:
000886: 06,2655           05664                           TC       ALARM
000887: 06,2656           01105                           OCT      1105
000888: 06,2657           12425                           TCF      NXTFL33
000889:
000890: 06,2660           10000        UPTMFAST           CCS      A                                     #  SAME AS DNLINK TOO FAST WITH DIFFERENT
000891: 06,2661           12425                           TCF      NXTFL33                               #  ALARM CODE.
000892:
000893: 06,2662           05664                           TC       ALARM
000894: 06,2663           01106                           OCT      1106
000895: 06,2664           12425                           TCF      NXTFL33
000896:
000897:                                                                                                  #  PROGRAM NAME:  SETISSW
000898:
000899:                                                                                                  #  FUNCTIONAL DESCRIPTION:  THIS PROGRAM TURNS THE ISS WARNING LAMP ON AND OFF (CHANNEL 11 BIT 1 = 1 FOR ON,
000900:                                                                                                  #  0 FOR OFF) DEPENDING ON THE STATUS OF IMODES30 BITS 13 (IMU FAIL) AND 4 (INHIBIT IMU FAIL), 12 (ICDU FAIL) AND
000901:                                                                                                  #  3 (INHIBIT ICDU FAIL), AND 10 (PIPA FAIL) AND 1 (INHIBIT PIPA FAIL).  THE LAMP IS LEFT ON IF A LAMP TEST IS IN
000902:                                                                                                  #  PROGRESS.
000903:
000904:                                                                                                  #  CALLING SEQUENCE:  CALLED BY IMUMON ON CHANGES TO IMU FAIL AND ICDU FAIL.  CALLED BY IFAILOK AND PFAILOK UPON
000905:                                                                                                  #  REMOVAL OF THE FAIL INHIBITS.  CALLED BY PIPFAIL WHEN THE PIPA FAIL DISCRETE CHANGES.  IT IS CALLED BY PIPUSE
000906:                                                                                                  #  SINCE THE PIPA FAIL PROGRAM ALARM MAY NECESSITATE AN ISS WARNING, AND LIKEWISE BY PIPFREE WHEN THE ALARM DEPARTS
000907:                                                                                                  #  AND IT IS CALLED BY IMUZERO3 AND ISSUP AFTER THE FAIL INHIBITS HAVE BEEN REMOVED.
000908:
000909:                                                                                                  #  JOBS OR TASKS INITIATED:  NONE.
000910:
000911:                                                                                                  #  SUBROUTINES CALLED:  NONE.
000912:
000913:                                                                                                  #  ERASABLE INITIALIZATION:
000914:
000915:                                                                                                  #        1) IMODES30 - SEE IMUMON.
000916:                                                                                                  #        2) IMODES33 BIT 1 = 0 (LAMP TEST NOT IN PROGRESS).
000917:
000918:                                                                                                  #  ALARMS:  ISS WARNING.
000919:
000920:                                                                                                  #  EXIT: VIA Q.
000921:
000922:                                                                                                  #  OUTPUT: ISS WARNING LAMP SET PROPERLY.
000923:
000924: 06,2665           35041        SETISSW            CAF      OCT15                                 #  SET ISS WARNING USING THE FAIL BITS IN
000925: 06,2666           71320                           MASK     IMODES30                              #  BITS 13, 12, AND 10 OF IMODES30 AND THE
000926: 06,2667           00006                           EXTEND                                         #  FAILURE INHIBIT BITS IN POSITIONS
000927: 06,2670           75022                           MP       BIT10                                 #  4, 3, AND 1.
000928: 06,2671           31320                           CA       IMODES30
000929: 06,2672           00006                           EXTEND
000930: 06,2673           04001                           ROR      LCHAN                                 #  0 INDICATES FAILURE.
000931: 06,2674           40000                           COM
000932: 06,2675           75103                           MASK     OCT15000
000933: 06,2676           10000                           CCS      A
000934: 06,2677           12710                           TCF      ISSWON                                #  FAILURE.
000935:
000936: 06,2700           35033        ISSWOFF            CAF      BIT1                                  #  DONT TURN OFF ISS WARNING IF LAMP TEST
000937: 06,2701           71321                           MASK     IMODES33                              #  IN PROGRESS.
000938: 06,2702           10000                           CCS      A
000939: 06,2703           00002                           TC       Q
000940:
000941: 06,2704           45033                           CS       BIT1
000942: 06,2705           00006                           EXTEND
000943: 06,2706           03011                           WAND     DSALMOUT                              #  TURN OFF ISS WARNING
000944: 06,2707           00002                           TC       Q
000945:
000946: 06,2710           00006        ISSWON             EXTEND
000947: 06,2711           22066                           QXCH     ITEMP6
000948: 06,2712           05770                           TC       VARALARM                              #  TELL EVERYONE WHAT CAUSED THE ISS WARNING
000949: 06,2713           35033                           CAF      BIT1
000950: 06,2714           00006                           EXTEND
000951: 06,2715           05011                           WOR      DSALMOUT                              #  TURN ON ISS WARNING
000952: 06,2716           00066                           TC       ITEMP6
000953:
000954: 06,2717           47703        CAGESUB            CS       BIT15+6                               #  SET OUTBITS + INTERNAL FLAGS FOR
000955: 06,2720           00006                           EXTEND                                         #  SYSTEM TURN-ON OR CAGE.  DISABLE THE
000956: 06,2721           03012                           WAND     CHAN12                                #  ERROR COUNTER AND REMOVE IMU DELAY COMP.
000957: 06,2722           35043                           CAF      BITS4&5                               #  SEND ZERO AND COARSE.
000958: 06,2723           00006                           EXTEND
000959: 06,2724           05012                           WOR      CHAN12
000960:
000961: 06,2725           41036        CAGESUB1           CS       DSPTAB     +11D                       #  TURN ON NO ATT LAMP
000962: 06,2726           72753                           MASK     OC40010
000963: 06,2727           27036                           ADS      DSPTAB     +11D
000964:
000965: 06,2730           41320        CAGESUB2           CS       IMODES30                              #  SET FLAGS TO INDICATE CAGING OR TURN-ON
000966: 06,2731           72755                           MASK     OCT75                                 #  AND INHIBIT ALL ISS WARNING INFO
000967: 06,2732           27320                           ADS      IMODES30
000968:
000969: 06,2733           41321                           CS       IMODES33                              #  DISABLE DAP AUTO AND HOLD MODES
000970: 06,2734           75026                           MASK     BIT6
000971: 06,2735           27321                           ADS      IMODES33
000972:
000973: 06,2736           00002                           TC       Q
000974:
000975: 06,2737  06,2665               IMUFAIL            EQUALS   SETISSW
000976: 06,2737  06,2665               ICDUFAIL           EQUALS   SETISSW
000977:
000978:                                                                                                  #  JUMP TABLES AND CONSTANTS.
000979:
000980: 06,2737           12526        IFAILJMP           TCF      ITURNON                               #  CHANNEL 30 DISPATCH.
000981: 06,2740           12665                           TCF      IMUFAIL
000982: 06,2741           12665                           TCF      ICDUFAIL
000983: 06,2742           12555                           TCF      IMUCAGE
000984: 06,2743           76400        30RDMSK            OCT      76400                                 #  (BIT 10 NOT SAMPLED HERE).
000985: 06,2744           12604                           TCF      IMUOP
000986:
000987: 06,2745           12632        C33JMP             TCF      PIPFAIL                               #  CHANNEL 33 DISPATCH.
000988: 06,2746           12653                           TCF      DNTMFAST
000989: 06,2747           12660                           TCF      UPTMFAST
000990:
000991:                                                                                                  #  SUBROUTINE TO SKIP IF LAMP TEST NOT IN PROGRESS.
000992:
000993: 06,2750           41321        LAMPTEST           CS       IMODES33                              #  BIT 1 OF IMODES33 = 1 IF LAMP TEST IN
000994: 06,2751           75033                           MASK     BIT1                                  #  PROGRESS.
000995: 06,2752           13065                           TCF      ZOPFIN3
000996:
000997: 06,2753     5104               33RDMSK            EQUALS   PRIO16
000998: 06,2753           40010        OC40010            OCT      40010
000999: 06,2754           00054        OCT54              OCT      54
001000: 06,2755           00075        OCT75              OCT      75
001001: 06,2756           00272        OCT272             OCT      00272
001002: 06,2757           00300        BITS7&8            OCT      300
001003: 06,2760           01720        OCT1720            OCT      1720
001004: 06,2761           00740        OCT740             OCT      00740
001005: 06,2762     5103               OCT15000           EQUALS   PRIO15
001006: 06,2762           77000        OCT77000           OCT      77000
001007: 06,2763           76777        -BIT10             OCT      -1000
001008:
001009: 06,2764           21450        90SECS             DEC      9000       B-14
001010: 06,2765     5775               120MS              =        OCT14                                 #  (DEC12)
001011: 06,2765     5347               GLOCKOK            EQUALS   RESUME
001012:
001013:                                                                                                  #  OPTICS MONITORING AND ZERO ROUTINES
001014: 06,2765           31331        OPTMON             CA       OPTMODES                              #  MONITOR OPTICS INBITS IN CHAN 30 AND 33
001015: 06,2766           00006                           EXTEND
001016: 06,2767           06030                           RXOR     CHAN30                                #  LOOK FOR OCDU FAIL BIT CHANGE
001017: 06,2770           75025                           MASK     BIT7
001018: 06,2771           54070                           TS       RUPTREG1                              #  STORE CHANGE BIT
001019: 06,2772           10000                           CCS      A
001020: 06,2773           03224                           TC       OCDUFTST                              #  PROCESS OCDUFAIL BIT CHANGE
001021:
001022: 06,2774           11303        33OPTMON           CCS      OPTIND                                #  BYPASS IF TVC TAKEOVER
001023: 06,2775           13001                           TCF      +4
001024: 06,2776           13001                           TCF      +3
001025: 06,2777           13001                           TCF      +2
001026: 06,3000           15347                           TCF      RESUME
001027:
001028: 06,3001           31331                           CA       OPTMODES                              #  LOOK FOR OPTICS MODE SWITCH CHANGE
001029: 06,3002           00006                           EXTEND
001030: 06,3003           06033                           RXOR     CHAN33
001031: 06,3004           75043                           MASK     OCTHIRTY
001032: 06,3005           26070                           ADS      RUPTREG1                              #  STORE INBIT CHANGES
001033: 06,3006           23331                           LXCH     OPTMODES
001034: 06,3007           00006                           EXTEND
001035: 06,3010           06001                           RXOR     LCHAN
001036: 06,3011           55331                           TS       OPTMODES                              #  UPDATE OPTMODES TO SHOW BIT CHANGES
001037:
001038: 06,3012           40000                           COM                                            #  SAMPLE CURRENT SWITCH SETTING
001039: 06,3013           75043                           MASK     OCTHIRTY
001040: 06,3014           00006                           EXTEND
001041: 06,3015           13022                           BZF      SETSAMP                               #  MANUAL-SET ZERO IN SWSAMPLE
001042:
001043: 06,3016           75027                           MASK     BIT5                                  #  SEE IF CSC
001044: 06,3017           10000                           CCS      A
001045: 06,3020           03022                           TC       +2                                    #  CSC-SET SWSAMPLE POS
001046: 06,3021           37716                           CAF      NEGONE                                #  ZOPTICS-SET SWSAMPLE (-1)
001047: 06,3022           55314        SETSAMP            TS       SWSAMPLE                              #  CURRENT OPTICS SWITCH SETTING
001048:
001049: 06,3023           11315        PROCESSW           CCS      DESOPMOD                              #  BRANCH ON PREVIOUS SETTING
001050: 06,3024           03125                           TC       CSCDES                                #  CSC
001051: 06,3025           03077                           TC       MANUDES                               #  MANUAL
001052: 06,3026           03027                           TC       ZOPTDES                               #  ZERO OPTICS
001053: 06,3027           11314        ZOPTDES            CCS      SWSAMPLE                              #  IS SWITCH STILL AT ZOPTICS
001054: 06,3030           03047                           TC       ZTOCSC                                #  NOW AT CSC
001055: 06,3031           03037                           TC       ZTOMAN                                #  MANUAL
001056: 06,3032           03057                           TC       ZOPFINI                               #  ZOPTICS-SEE IF ZOPT PROCESSING
001057: 06,3033           03154                           TC       SETDESMD                              #  ZOPT NOT PROCESSING-NO ACTION
001058:
001059: 06,3034           11317                           CCS      ZOPTCNT                               #  ZOPT PROCESSING-CHECK COUNTER
001060: 06,3035           03153                           TC       SETCNT                                #  32 SAMPLE NOT FINISHED-SET COUNTER
001061: 06,3036           03157                           TC       SETZOEND                              #  32 SAMPLE WAIT COMPLETED-SET UP ZOP END
001062:
001063: 06,3037           03057        ZTOMAN             TC       ZOPFINI                               #  ZOP TO MANUAL-IS ZOPT DONE
001064: 06,3040           03154                           TC       SETDESMD                              #  YES-NORMAL EXIT
001065:
001066: 06,3041           05664        ZOPALARM           TC       ALARM                                 #  ALARM-SWITCHED ALTERED WHILE ZOPTICS
001067: 06,3042           00116                           OCT      00116
001068: 06,3043           35040                           CAF      OCT13                                 #  PROCESSING-SET RETURN OPTION
001069: 06,3044           55316                           TS       WTOPTION
001070:
001071: 06,3045           03070                           TC       CANZOPT                               #  CANCEL ZOPT
001072:
001073: 06,3046           03154                           TC       SETDESMD
001074:
001075: 06,3047           03057        ZTOCSC             TC       ZOPFINI                               #  SEE IF ZOPT PROCESSING
001076: 06,3050           03115                           TC       MANTOCSC   +3                         #  NO-CHECK RETURN TO COARS OPT
001077: 06,3051           05664                           TC       ALARM                                 #  ZOPT PROCESSING-ALARM
001078: 06,3052           00116                           OCT      00116
001079: 06,3053           03070                           TC       CANZOPT                               #  CANCEL ZOPT
001080: 06,3054           03112                           TC       MANTOCSC                              #  ZERO CNT-LOOK FOR COARS OPT RETURN
001081:
001082: 06,3055           35023        COARSLOK           CAF      BIT9                                  #  IF COARS OPT SINCE FSTART GO TO L+2
001083: 06,3056           13064                           TCF      ZOPFIN2                               #  IF NOT GO TO L+1
001084: 06,3057           35033        ZOPFINI            CAF      BIT1                                  #  SEE IF END ZOPT TASK WORKING
001085: 06,3060           71331                           MASK     OPTMODES
001086: 06,3061           10000                           CCS      A
001087: 06,3062           05347                           TC       RESUME                                #  ZOPT TASK WORKING-WAIT ONE SAMPLE PERIOD
001088:
001089: 06,3063           35031                           CAF      BIT3                                  #  TEST IF ZOPTICS PROCESSING
001090: 06,3064           71331        ZOPFIN2            MASK     OPTMODES                              #  RETURNS TO L+1 PROCESSING AND
001091: 06,3065           10000        ZOPFIN3            CCS      A
001092: 06,3066           24002                           INCR     Q                                     #  L+2 IF NOT
001093: 06,3067           00002                           TC       Q
001094:
001095: 06,3070           46211        CANZOPT            CS       SIX                                   #  CANCEL ZERO OPTICS
001096: 06,3071           71331                           MASK     OPTMODES                              #  ZERO ZOPT PROCESSING BIT-ENABLE OCDUFAIL
001097: 06,3072           55331                           TS       OPTMODES
001098: 06,3073           45033                           CS       BIT1                                  #  MAKE SURE ZERO OCDU IS OFF
001099: 06,3074           00006                           EXTEND
001100: 06,3075           03012                           WAND     CHAN12
001101: 06,3076           00002                           TC       Q
001102:
001103: 06,3077           11314        MANUDES            CCS      SWSAMPLE                              #  SEE IF SWITCH STILL IN MANUAL MODE
001104: 06,3100           03112                           TC       MANTOCSC                              #  NOW AT CSC
001105: 06,3101           03107                           TC       MANTOMAN                              #  STILL MANUAL
001106: 06,3102           11316                           CCS      WTOPTION                              #  ZOPTICS-LOOK AT ZOPTICS RETURN OPTION
001107: 06,3103           03105                           TC       +2                                    #  5 SEC RETURN GOOD-CONTINUE ZOPTICS
001108: 06,3104           03151                           TC       OPTZERO                               #  ZOPTICS MUST START ANEW
001109:
001110: 06,3105           03216                           TC       INITZOPT                              #  SHOW ZERO OPTICS PROCESSING
001111: 06,3106           03154                           TC       SETDESMD                              #  NORMAL EXIT
001112:
001113: 06,3107           11316        MANTOMAN           CCS      WTOPTION                              #  DECREMENT RETURN OPTION TIME
001114: 06,3110           55316                           TS       WTOPTION
001115: 06,3111           03154                           TC       SETDESMD
001116:
001117: 06,3112           35035        MANTOCSC           CAF      ZERO                                  #  CANCEL ZOPT RETURN OPTION IF SET
001118: 06,3113           55316                           TS       WTOPTION
001119: 06,3114           55317                           TS       ZOPTCNT
001120:
001121: 06,3115           03055                           TC       COARSLOK                              #  CHECK FOR COARS OPT RETURN
001122: 06,3116           03154                           TC       SETDESMD                              #  NO COARS TASK-NO ACTION
001123:
001124: 06,3117           35033                           CAF      ONE                                   #  SET COARS OPT WORKING
001125: 06,3120           55303                           TS       OPTIND
001126: 06,3121           35032                           CAF      BIT2                                  #  ENABLE OPTICS CDU ERROR CNTS
001127: 06,3122           00006                           EXTEND
001128: 06,3123           05012                           WOR      CHAN12
001129:
001130: 06,3124           03154                           TC       SETDESMD
001131:
001132: 06,3125           11314        CSCDES             CCS      SWSAMPLE                              #  SEE IF SWITCH STILL AT CSC
001133: 06,3126           03154                           TC       SETDESMD                              #  STILL AT CSC
001134: 06,3127           03133                           TC       CSCTOMAN                              #  MANUAL
001135: 06,3130           35026        CSCTOZOP           CAF      OCT40                                 #  ZOPTICS-INITIALIZE FOR ZOPT
001136: 06,3131           55317                           TS       ZOPTCNT
001137: 06,3132           03216                           TC       INITZOPT
001138:
001139: 06,3133           11303        CSCTOMAN           CCS      OPTIND                                #  SEE IF COARS WORKING
001140: 06,3134           03140                           TC       CANCOARS                              #  COARS WORKING-SWITCH NOT CSC-KILL COARS
001141: 06,3135           03140                           TC       CANCOARS
001142: 06,3136           03137                           TC       +1                                    #  NO COARS-NORMAL EXIT
001143: 06,3137           03154                           TC       SETDESMD
001144: 06,3140           37716        CANCOARS           CA       NEGONE
001145: 06,3141           55303                           TS       OPTIND                                #  SET OPTIND (-1) TO SHOW NOT WORKING
001146: 06,3142           45032                           CS       BIT2                                  #  DISABLE OCDU ERR CNTS
001147: 06,3143           00006                           EXTEND
001148: 06,3144           03012                           WAND     CHAN12
001149: 06,3145           41331                           CS       OPTMODES                              #  SET RETURN-TO-COARS BIT
001150: 06,3146           75023                           MASK     BIT9
001151: 06,3147           27331                           ADS      OPTMODES
001152:
001153: 06,3150           03154                           TC       SETDESMD
001154: 06,3151           03216        OPTZERO            TC       INITZOPT                              #  INITIALIZE ZERO OPTICS
001155:
001156: 06,3152           35026                           CA       OCT40                                 #  SET UP 32 SAMPLE WAIT
001157: 06,3153           55317        SETCNT             TS       ZOPTCNT
001158: 06,3154           31314        SETDESMD           CA       SWSAMPLE                              #  SET CURRENT SWITCH INDICATION-RESUME
001159: 06,3155           55315                           TS       DESOPMOD
001160: 06,3156           05347                           TC       RESUME
001161:
001162: 06,3157           35033        SETZOEND           CAF      BIT1                                  #  SEND ZERO OPTICS CDU
001163: 06,3160           00006                           EXTEND
001164: 06,3161           05012                           WOR      CHAN12
001165: 06,3162           34112                           CA       200MS                                 #  HOLD ZERO CDU FOR 200 MS
001166: 06,3163           05261                           TC       WAITLIST
001167: 06,3164     1331                                  EBANK=   OPTMODES
001168: 06,3164           03172 14062                     2CADR    ENDZOPT
001169:
001170: 06,3166           41331                           CS       OPTMODES                              #  SHOW ZOPTICS TASK WORKING
001171: 06,3167           75033                           MASK     BIT1
001172: 06,3170           27331                           ADS      OPTMODES
001173:
001174: 06,3171           03154                           TC       SETDESMD
001175:
001176: 06,3172           03210        ENDZOPT            TC       ZEROPCDU                              #  ZERO OCDU COUNTERS
001177: 06,3173           45033                           CS       BIT1                                  #  TURN OFF ZERO OCDU
001178: 06,3174           00006                           EXTEND
001179: 06,3175           03012                           WAND     CHAN12
001180: 06,3176           34112                           CAF      200MS                                 #  DELAY 200MS FOR CDUS TO RESYNCHRONIZE
001181: 06,3177           05306                           TC       VARDELAY
001182:
001183: 06,3200           41331                           CS       OPTMODES                              #  SHOW ZOPTICS SINCE LAST FRESH START
001184: 06,3201           75022                           MASK     BIT10                                 #        OR RESTART
001185: 06,3202           27331                           ADS      OPTMODES
001186:
001187: 06,3203           45037                           CS       SEVEN                                 #  ENABLE OCDUFAIL-SHOW OPTICS COMPLETE
001188: 06,3204           71331                           MASK     OPTMODES
001189: 06,3205           55331                           TS       OPTMODES
001190:
001191: 06,3206           03224                           TC       OCDUFTST                              #  CHECK OCDU FAIL BIT AFTER ENABLE
001192: 06,3207           05340                           TC       TASKOVER
001193:
001194: 06,3210           35035        ZEROPCDU           CAF      ZERO
001195: 06,3211           54036                           TS       CDUS                                  #  ZERO IN CDUS,-20 IN CDUT
001196: 06,3212           55307                           TS       ZONE                                  #  INITIALIZE SHAFT MONITOR ZONE
001197: 06,3213           43261                           CS       20DEGS
001198: 06,3214           54035                           TS       CDUT
001199: 06,3215           00002                           TC       Q
001200:
001201: 06,3216           35035        INITZOPT           CAF      ZERO                                  #  INITIALIZE ZOPTICS-INHIBIT OCDUFAIL
001202: 06,3217           55316                           TS       WTOPTION                              #  AND SHOW OPTICS PROCESSING
001203: 06,3220           41331                           CS       OPTMODES                              #  SET ZERO OPTICS PROCESSING
001204: 06,3221           76211                           MASK     SIX                                   #        OPTICS CDU FAIL INHIBITED
001205: 06,3222           27331                           ADS      OPTMODES
001206: 06,3223           00002                           TC       Q
001207:
001208: 06,3224           35025        OCDUFTST           CAF      BIT7                                  #  SEE IF OCDUFAIL ON OR OFF
001209: 06,3225           00006                           EXTEND
001210: 06,3226           02030                           RAND     CHAN30
001211: 06,3227           10000                           CCS      A
001212: 06,3230           13252                           TCF      OPFAILOF                              #  OCDUFAIL LIGHT OFF
001213:
001214: 06,3231           35032                           CAF      BIT2                                  #  OCDUFAIL LIGHT ON UNLESS INHIBITED
001215: 06,3232           71331                           MASK     OPTMODES
001216: 06,3233           10000                           CCS      A
001217: 06,3234           00002                           TC       Q                                     #  OCDUFAIL INHIBITED
001218:
001219: 06,3235           35024        OPFAILON           CAF      BIT8                                  #  ON BIT
001220: 06,3236           61036                           AD       DSPTAB     +11D
001221: 06,3237           75024                           MASK     BIT8
001222: 06,3240           00006        SETOFF             EXTEND
001223: 06,3241           16711                           BZF      TCQ                                   #  NO CHANGE
001224:
001225: 06,3242           54001                           TS       L
001226: 06,3243           31036                           CA       DSPTAB     +11D
001227: 06,3244           00006                           EXTEND
001228: 06,3245           06001                           RXOR     LCHAN
001229: 06,3246           75013                           MASK     POSMAX
001230: 06,3247           65015                           AD       BIT15                                 #  SHOW ACTION WANTED
001231: 06,3250           55036                           TS       DSPTAB     +11D
001232: 06,3251           00002                           TC       Q
001233:
001234: 06,3252           35033        OPFAILOF           CAF      BIT1                                  #  DONT TURN OFF IF LAMP TEST
001235: 06,3253           71321                           MASK     IMODES33
001236: 06,3254           10000                           CCS      A
001237: 06,3255           00002                           TC       Q                                     #  LAMP TEST IN PROGRESS
001238:
001239: 06,3256           35024                           CAF      BIT8                                  #  TURN OFF OCDUFAIL LIGHT
001240: 06,3257           71036                           MASK     DSPTAB     +11D
001241: 06,3260           13240                           TCF      SETOFF
001242:
001243: 06,3261     5040               OCT13              =        ELEVEN
001244: 06,3261     5043               OCTHIRTY           EQUALS   BITS4&5
001245: 06,3261           16037        20DEGS             DEC      7199       B-14
001246: 06,3262     5026               OCT40              EQUALS   BIT6
001247: 06,3262     4112               200MS              EQUALS   OCT24
001248:
001249:                                                                                                  #  OPTICS CDU DRIVING PROGRAM
001250:
001251: 10,2000                                           BANK     10
001252: 10,2000                                           SETLOC   OPTDRV
001253: 10,2000                                           BANK
001254: 10,2000                                           COUNT*   $$/SXT
001255:
001256:                                                                                                  #  SHAFT STOP MONITOR-ZONE UPDATE
001257:
001258: 10,2000           30036        OPTDRIVE           CA       CDUS                                  #  GRAB OPTIC SHAFT CDU
001259: 10,2001           54001                           TS       L
001260: 10,2002           10000                           CCS      A                                     #  GET ABS(CDUS)
001261: 10,2003           67707                           AD       13,14,15
001262: 10,2004           12006                           TCF      +2                                    #  ABS(CDUS) - 45 DEG
001263: 10,2005           12003                           TCF      -2
001264: 10,2006           00006                           EXTEND
001265: 10,2007           62016                           BZMF     OZONE                                 #  LESS THAN 45 DEG-SET ZONE 0
001266: 10,2010           31307                           CA       ZONE                                  #  IF ZONE ZERO, CHANGE TO + OR - OTHERWISE
001267: 10,2011           00006                           EXTEND                                         #  DONT MESS WITH ZONE
001268: 10,2012           12014                           BZF      +2
001269: 10,2013           12020                           TCF      CONTDRVE                              #  JUST CONTINUE
001270: 10,2014           56001                           XCH      L                                     #  GREATER THAN 45 DEG-SET ZONE TO SIGN CDU
001271: 10,2015           12017                           TCF      OZONE      +1
001272: 10,2016           35035        OZONE              CAF      ZERO                                  #  ABS(CDUS) LESS THEN 90 DEG-ZONE ZERO
001273: 10,2017           55307                           TS       ZONE
001274: 10,2020                                           COUNT*   $$/T4RPT
001275: 10,2020           11303        CONTDRVE           CCS      OPTIND
001276: 10,2021           02025                           TC       +4                                    #  WORK COARS OPTICS
001277: 10,2022           02025                           TC       +3                                    #  WORK COARS OPTICS
001278: 10,2023           05347                           TC       RESUME                                #  NO OPT
001279: 10,2024           05347                           TC       RESUME                                #  NO OPT
001280:
001281: 10,2025           31314                           CA       SWSAMPLE                              #  SEE IF SWITCH AT CMC
001282: 10,2026           00006                           EXTEND
001283: 10,2027           65347                           BZMF     RESUME                                #  ZERO (-1)     MANUAL (+0)
001284:
001285: 10,2030           35022                           CAF      BIT10                                 #  SEE IF OCDUS ZEROED SINCE LAST FSTART
001286: 10,2031           71331                           MASK     OPTMODES
001287: 10,2032           10000                           CCS      A
001288: 10,2033           02036                           TC       +3
001289: 10,2034           05664                           TC       ALARM                                 #  OPTICS NOT ZEROED
001290: 10,2035           00120                           OCT      00120
001291:
001292: 10,2036           35032                           CA       BIT2                                  #  SEE IF ERR CNTS ENABLED
001293: 10,2037           00006                           EXTEND
001294: 10,2040           02012                           RAND     CHAN12
001295: 10,2041           00006                           EXTEND
001296: 10,2042           12175                           BZF      SETBIT                                #  CNTS NOT ENABLED-DO IT AND RESUME
001297:
001298: 10,2043           35033                           CAF      ONE                                   #  INITIALIZE OPTIND
001299: 10,2044           55303        OPT2               TS       OPTIND
001300: 10,2045           00006                           EXTEND
001301: 10,2046           12132                           BZF      TRUNCMD                               #  CHECK TRUNION COMMAND
001302:
001303: 10,2047           51303        GETOPCMD           INDEX    OPTIND
001304: 10,2050           31160                           CA       DESOPTT                               #  PICK UP DESIRED OPT ANGLE
001305: 10,2051           00006                           EXTEND
001306: 10,2052           51303                           INDEX    OPTIND
001307: 10,2053           20035                           MSU      CDUT                                  #  GET DIFFERENCE
001308: 10,2054           00006                           EXTEND
001309: 10,2055           75017                           MP       BIT13
001310: 10,2056           56001                           XCH      L
001311: 10,2057           60000                           DOUBLE
001312: 10,2060           54061                           TS       ITEMP1
001313: 10,2061           12063                           TCF      +2                                    #  NO OVFL
001314:
001315: 10,2062           26001                           ADS      L                                     #  WITH OVFL
001316: 10,2063           51303        STORCMD            INDEX    OPTIND
001317: 10,2064           23305                           LXCH     COMMANDO                              #  STORE COMMAND
001318: 10,2065           11303                           CCS      OPTIND
001319: 10,2066           12044                           TCF      OPT2                                  #  GET NEXT COMMAND
001320:
001321: 10,2067           54061                           TS       ITEMP1                                #  INITIALIZE SEND INDICATOR TO ZERO
001322: 10,2070                                           COUNT*   $$/SXT
001323:
001324:                                                                                                  #  SHAFT STOP AVOIDANCE
001325:
001326: 10,2070           10036                           CCS      CDUS                                  #  IF CDUS GREATER THAN + OR - 90 DEG CHECK
001327: 10,2071           65014                           AD       NEG1/2                                #  FOR POSSIBLE STOP PROBLEM
001328: 10,2072           12074                           TCF      +2
001329: 10,2073           12071                           TCF      -2
001330: 10,2074           00006                           EXTEND
001331: 10,2075           62122                           BZMF     CMDSETUP                              #  CDUS LESS THAN 90 DEG, NO PROBLEMS
001332:
001333: 10,2076           31307                           CA       ZONE
001334: 10,2077           00006                           EXTEND
001335: 10,2100           12122                           BZF      CMDSETUP                              #  ZONE=3, NORMAL COMMAND
001336: 10,2101           75015                           MASK     BIT15                                 #  GRAB SIGN OF ZONE
001337: 10,2102           54001                           TS       L
001338: 10,2103           31306                           CA       COMMANDO   +1
001339: 10,2104           75015                           MASK     BIT15                                 #  GRAB SIGN OF SHAFT COMMAND
001340: 10,2105           00006                           EXTEND
001341: 10,2106           06001                           RXOR     LCHAN
001342: 10,2107           10000                           CCS      A
001343: 10,2110           12122                           TCF      CMDSETUP                              #  SIGN ZONE NOT EQUAL TO SIGN COMMAND
001344: 10,2111           11161                           CCS      DESOPTS                               #  SEE IF DESOPTS BETWEEN -90 AND +90
001345: 10,2112           65014                           AD       NEG1/2
001346: 10,2113           12115                           TCF      +2                                    #  ABS(DESOPTS) - 90 DEG
001347: 10,2114           12112                           TCF      -2
001348: 10,2115           00006                           EXTEND
001349: 10,2116           62120                           BZMF     +2                                    #  DESOPTS IN FIRST OR FOURTH QUAD
001350: 10,2117           12122                           TCF      CMDSETUP
001351: 10,2120           41306                           CS       COMMANDO   +1                         #  REVERSE REGULAR COMMAND
001352: 10,2121           55306                           TS       COMMANDO   +1
001353:
001354: 10,2122                                           COUNT*   $$/T4RPT
001355:
001356: 10,2122           35033        CMDSETUP           CAF      ONE                                   #  SET OPTIND
001357: 10,2123           55303                           TS       OPTIND
001358: 10,2124           50000                           INDEX    A
001359: 10,2125           11305                           CCS      COMMANDO                              #  GET SIGN OF COMMAND
001360: 10,2126           02144                           TC       POSOPCMD
001361: 10,2127           02151                           TC       NEXTOPT    +1                         #  ZERO COMMAND-SKIP SEND INDICATOR
001362: 10,2130           02161                           TC       NEGOPCMD
001363: 10,2131           02151                           TC       NEXTOPT    +1                         #  ZERO COMMAND
001364:
001365: 10,2132           40035        TRUNCMD            CS       CDUT                                  #  IF COMMAND GREATER THAN 45 DEG-COMMAND
001366: 10,2133           61160                           AD       DESOPTT                               #  45 DEG
001367: 10,2134           54002                           TS       Q
001368: 10,2135           02047                           TC       GETOPCMD                              #  LESS THAN 45 DEG-NORMAL OPERATION
001369:
001370: 10,2136           10000                           CCS      A                                     #  GREATER THAN 45 DEG-USE OPSMAX WITH
001371: 10,2137           35013                           CA       POSMAX                                #  CORRECT SIGN
001372: 10,2140           02142                           TC       +2
001373: 10,2141           45013                           CS       POSMAX
001374: 10,2142           54001                           TS       L
001375: 10,2143           02063                           TC       STORCMD
001376: 10,2144           62202        POSOPCMD           AD       MAXPLS1
001377: 10,2145           00006                           EXTEND
001378: 10,2146           62166                           BZMF     DELOPCMD                              #  COMMAND LESS THAN MAX PULSE
001379: 10,2147           42201                           CS       MAXPLS                                #  GREATER THAN MAX PULSE-USE MAX PULSE
001380:
001381: 10,2150           24061        NEXTOPT            INCR     ITEMP1                                #  SET SEND INDICATOR
001382: 10,2151           65034                           AD       NEG0                                  #  MAKE SURE ZERO COMMAND IS -ZERO
001383: 10,2152           51303                           INDEX    OPTIND
001384: 10,2153           54053                           TS       CDUTCMD                               #  STORE PULSE IN SEND REG
001385:
001386: 10,2154           11303                           CCS      OPTIND
001387: 10,2155           02123                           TC       CMDSETUP   +1                         #  GET NEXT OPT
001388:
001389: 10,2156           10061                           CCS      ITEMP1                                #  ARE ANY PULSES TO GO
001390: 10,2157           12171                           TCF      SENDOCMD                              #  YES-SEND EM
001391: 10,2160           05347                           TC       RESUME                                #  NO
001392:
001393: 10,2161           62202        NEGOPCMD           AD       MAXPLS1
001394: 10,2162           00006                           EXTEND
001395: 10,2163           62166                           BZMF     DELOPCMD                              #  LESS THAN MAX PULSE
001396: 10,2164           32201                           CA       MAXPLS                                #  MAX PULSES
001397: 10,2165           12150                           TCF      NEXTOPT
001398: 10,2166           51303        DELOPCMD           INDEX    OPTIND
001399: 10,2167           57305                           XCH      COMMANDO                              #  SET UP SMALL COMMAND
001400: 10,2170           12150                           TCF      NEXTOPT
001401:
001402: 10,2171           35076        SENDOCMD           CAF      11,12                                 #  SEND OCDU DRIVE COMMANDS
001403: 10,2172           00006                           EXTEND
001404: 10,2173           05014                           WOR      CHAN14
001405: 10,2174           05347                           TC       RESUME
001406:
001407: 10,2175           35032        SETBIT             CAF      BIT2                                  #  ENABLE OCDU ERR CNTS
001408: 10,2176           00006                           EXTEND
001409: 10,2177           05012                           WOR      CHAN12
001410: 10,2200           05347                           TC       RESUME                                #  START COARS NEXT TIME AROUND
001411:
001412: 10,2201           77532        MAXPLS             DEC      -165       B-14                       #  WAS -80
001413: 10,2202           77533        MAXPLS1            DEC      -164       B-14                       #  WAS -79
001414: 10,2203     5076               11,12              EQUALS   PRIO6
001415:

End of include-file T4RUPT_PROGRAM.agc.  Parent file is MAIN.agc


