
Source Code


000002:                                                                                                  ## Copyright:   Public domain.
000003:                                                                                                  ## Filename:    TAGS_FOR_RELATIVE_SETLOC_AND_BLANK_BANK_CARDS.agc
000004:                                                                                                  ## Purpose:     A section of Comanche revision 067.
000005:                                                                                                  ##              It is part of the reconstructed source code for the flight
000006:                                                                                                  ##              software for the Command Module's (CM) Apollo Guidance Computer
000007:                                                                                                  ##              (AGC) for Apollo 12. No original listings of this program are
000008:                                                                                                  ##              available; instead, this file was created via dissassembly of
000009:                                                                                                  ##              dumps of Comanche 067 core rope modules and comparison with
000010:                                                                                                  ##              other AGC programs.
000011:                                                                                                  ## Assembler:   yaYUL
000012:                                                                                                  ## Contact:     Ron Burkey <info@sandroid.org>.
000013:                                                                                                  ## Website:     www.ibiblio.org/apollo/index.html
000014:                                                                                                  ## Mod history: 2023-08-16 MAS  Created from Comanche 055.
000015:
000016: ???????                        FIXED              MEMORY   120000     -          167777
000017: ???????                                           COUNT    BANKSUM
000018:
000019:                                                                                                  #  MODULE 1 CONTAINS BANKS 0 THROUGH 5
000020:
000021:    4000                                           BLOCK    02
000022:    4000                        FFTAG1             EQUALS
000023:    4000                        FFTAG2             EQUALS
000024:    4000                        FFTAG3             EQUALS
000025:    4000                        FFTAG4             EQUALS
000026:    4000                        FFTAG7             EQUALS
000027:    4000                        FFTAG8             EQUALS
000028:    4000                        FFTAG9             EQUALS
000029:    4000                        FFTAG10            EQUALS
000030:    4000                        FFTAG12            EQUALS
000031:    4000                        P30SUBS            EQUALS
000032:    4000                        STOPRAT            EQUALS
000033:    4000                        P23S               EQUALS
000034:    4000                                           BNKSUM   02
000035:
000036:    6000                                           BLOCK    03
000037:    6000                        FFTAG5             EQUALS
000038:    6000                        FFTAG6             EQUALS
000039:    6000                        DAPS9              EQUALS
000040:    6000                        FFTAG13            EQUALS
000041:    6000                                           BNKSUM   03
000042:
000043: 00,2000                                           BANK     00
000044: 00,2000                        DLAYJOB            EQUALS
000045: 00,2000                                           BNKSUM   00
000046:
000047: 01,2000                                           BANK     01
000048: 01,2000                        RESTART            EQUALS
000049: 01,2000                                           BNKSUM   01
000050:
000051: 04,2000                                           BANK     4
000052: 04,2000                        VERB37             EQUALS
000053: 04,2000                        CONICS1            EQUALS
000054: 04,2000                        PINBALL4           EQUALS
000055: 04,2000                        CSI/CDH1           EQUALS
000056: 04,2000                        INTPRET2           EQUALS
000057: 04,2000                        IMUCAL1            EQUALS
000058:
000059:
000060: 04,2000                        STBLEORB           EQUALS
000061: 04,2000                        E/PROG             EQUALS
000062: 04,2000                        MIDDGIM            EQUALS
000063:
000064: 04,2000                                           BNKSUM   04
000065:
000066: 05,2000                                           BANK     5
000067: 05,2000                        FRANDRES           EQUALS
000068: 05,2000                        DOWNTELM           EQUALS
000069: 05,2000                        DAPMASS            EQUALS
000070: 05,2000                        CDHTAG             EQUALS
000071: 05,2000                                           BNKSUM   05
000072:
000073:                                                                                                  #  MODULE 2 CONTAINS BANKS 6 THROUGH 13
000074:
000075: 06,2000                                           BANK     6
000076: 06,2000                        IMUCOMP            EQUALS
000077: 06,2000                        T4RUP              EQUALS
000078: 06,2000                        IMUCAL2            EQUALS
000079: 06,2000                        CSIPROG            EQUALS
000080: 06,2000                                           BNKSUM   06
000081:
000082: 07,2000                                           BANK     7
000083: 07,2000                        SXTMARKE           EQUALS
000084: 07,2000                        R02                EQUALS
000085: 07,2000                        MODESW             EQUALS
000086: 07,2000                        XANG               EQUALS
000087: 07,2000                        KEYRUPT            EQUALS
000088: 07,2000                        CSIPROG6           EQUALS
000089: 07,2000                                           BNKSUM   07
000090:
000091: 10,2000                                           BANK     10
000092: 10,2000                        DISPLAYS           EQUALS
000093: 10,2000                        PHASETAB           EQUALS
000094: 10,2000                        COMGEOM2           EQUALS
000095: 10,2000                        SXTMARK1           EQUALS
000096: 10,2000                        P60S4              EQUALS
000097: 10,2000                        OPTDRV             EQUALS
000098: 10,2000                        CSIPROG8           EQUALS
000099: 10,2000                                           BNKSUM   10
000100:
000101: 11,2000                                           BANK     11
000102: 11,2000                        ORBITAL            EQUALS
000103: 11,2000                        ORBITAL1           EQUALS                                         #  CONSTANTS
000104:
000105:
000106: 11,2000                        INTVEL             EQUALS
000107: 11,2000                        S52/2              EQUALS
000108: 11,2000                        INTINIT1           EQUALS
000109: 11,2000                                           BNKSUM   11
000110:
000111: 12,2000                                           BANK     12
000112: 12,2000                        CONICS             EQUALS
000113: 12,2000                        CSIPROG2           EQUALS
000114: 12,2000                        CSI/CDH2           EQUALS
000115: 12,2000                                           BNKSUM   12
000116:
000117: 13,2000                                           BANK     13
000118: 13,2000                        P76LOC             EQUALS
000119: 13,2000                        LATLONG            EQUALS
000120: 13,2000                        INTINIT            EQUALS
000121: 13,2000                        SR52/1             EQUALS
000122: 13,2000                        ORBITAL2           EQUALS
000123: 13,2000                        CDHTAGS            EQUALS
000124: 13,2000                        E/PROG1            EQUALS
000125: 13,2000                        P40S4              EQUALS
000126: 13,2000                                           BNKSUM   13
000127:
000128:                                                                                                  #  SPACER
000129:
000130:                                                                                                  #           MODULE 3 CONTAINS BANKS 14 THROUGH 21
000131:
000132: 14,2000                                           BANK     14
000133: 14,2000                        STARTAB            EQUALS
000134: 14,2000                        RT53               EQUALS
000135: 14,2000                        P50S1              EQUALS
000136: 14,2000                        MEASINC2           EQUALS
000137: 14,2000                        CSI/CDH3           EQUALS
000138: 14,2000                                           BNKSUM   14
000139:
000140: 15,2000                                           BANK     15
000141: 15,2000                        P50S               EQUALS
000142: 15,2000                        ETRYDAP            EQUALS
000143: 15,2000                        S52/3              EQUALS
000144: 15,2000                        SERV1              EQUALS
000145: 15,2000                                           BNKSUM   15
000146:
000147: 16,2000                                           BANK     16
000148: 16,2000                        P40S1              EQUALS
000149:
000150:
000151: 16,2000                        DAPROLL            EQUALS
000152: 16,2000                        P50S2              EQUALS
000153: 16,2000                        P23S1              EQUALS
000154: 16,2000                        RTE2               EQUALS
000155: 16,2000                        CSIPROG5           EQUALS
000156: 16,2000                                           BNKSUM   16
000157:
000158: 17,2000                                           BANK     17
000159: 17,2000                        EXTVRBS1           EQUALS
000160: 17,2000                        DAPS4              EQUALS
000161: 17,2000                        DAPS5              EQUALS
000162: 17,2000                        DAPS7              EQUALS
000163: 17,2000                        P50S3              EQUALS
000164: 17,2000                                           BNKSUM   17
000165:
000166: 20,2000                                           BANK     20
000167: 20,2000                        DAPS6              EQUALS
000168: 20,2000                        DAPS1              EQUALS
000169: 20,2000                        DAPS2              EQUALS
000170: 20,2000                        MANUSTUF           EQUALS
000171: 20,2000                        R36CM              EQUALS
000172: 20,2000                        VAC5LOC            EQUALS
000173: 20,2000                        R30LOC1            EQUALS
000174: 20,2000                                           BNKSUM   20
000175:
000176: 21,2000                                           BANK     21
000177: 21,2000                        EXTVRBS2           EQUALS
000178: 21,2000                        DAPS3              EQUALS
000179: 21,2000                        MYSUBS             EQUALS
000180: 21,2000                        KALCMON3           EQUALS
000181: 21,2000                                           BNKSUM   21
000182:
000183:                                                                                                  #  MODULE 4 CONTAINS BANKS 22 THROUGH 27
000184:
000185: 22,2000                                           BANK     22
000186: 22,2000                        RTBCODES           EQUALS
000187: 22,2000                        RTBCODE1           EQUALS
000188: 22,2000                        DAPS8              EQUALS
000189: 22,2000                        APOPERI            EQUALS
000190: 22,2000                        P40S5              EQUALS
000191: 22,2000                        KALCMON2           EQUALS
000192: 22,2000                        KALCMON1           EQUALS
000193: 22,2000                        CSIPROG3           EQUALS
000194: 22,2000                                           BNKSUM   22
000195:
000196:
000197: 23,2000                                           BANK     23
000198: 23,2000                        P20S2              EQUALS
000199: 23,2000                        INFLIGHT           EQUALS
000200: 23,2000                        COMGEOM1           EQUALS
000201: 23,2000                        POWFLITE           EQUALS
000202: 23,2000                        POWFLIT1           EQUALS
000203: 23,2000                        RENDGUID           EQUALS
000204: 23,2000                        POWFLIT2           EQUALS
000205: 23,2000                        R30LOC             EQUALS
000206: 23,2000                        P11FOUR            EQUALS
000207: 23,2000                        CSIPROG4           EQUALS
000208: 23,2000                                           BNKSUM   23
000209:
000210: 24,2000                                           BANK     24
000211: 24,2000                        LOADDAP            EQUALS
000212: 24,2000                        P40S               EQUALS
000213: 24,2000                        CSIPROG7           EQUALS
000214: 24,2000                                           BNKSUM   24
000215:
000216: 25,2000                                           BANK     25
000217: 25,2000                        REENTRY            EQUALS
000218: 25,2000                        CDHTAG1            EQUALS
000219: 25,2000                                           BNKSUM   25
000220:
000221: 26,2000                                           BANK     26
000222: 26,2000                        INTPRET1           EQUALS
000223: 26,2000                        REENTRY1           EQUALS
000224: 26,2000                        P60S               EQUALS
000225: 26,2000                        P60S1              EQUALS
000226: 26,2000                        P60S2              EQUALS
000227: 26,2000                        P60S3              EQUALS
000228: 26,2000                        PLANTIN            EQUALS                                         #  LUNAR ROT
000229: 26,2000                        EPHEM              EQUALS
000230: 26,2000                        P05P06             EQUALS
000231: 26,2000                        26P50S             EQUALS
000232: 26,2000                                           BNKSUM   26
000233:
000234: 27,2000                                           BANK     27
000235: 27,2000                        TOF-FF             EQUALS
000236: 27,2000                        TOF-FF1            EQUALS
000237: 27,2000                        MANUVER            EQUALS
000238: 27,2000                        MANUVER1           EQUALS
000239:
000240:
000241: 27,2000                        VECPT              EQUALS
000242: 27,2000                        UPDATE1            EQUALS
000243: 27,2000                        UPDATE2            EQUALS
000244: 27,2000                        R22S1              EQUALS
000245: 27,2000                        P60S5              EQUALS
000246: 27,2000                        P40S2              EQUALS
000247: 27,2000                                           BNKSUM   27
000248:
000249:                                                                                                  #  MODULE 5 CONTAINS BANKS 30 THROUGH 35
000250:
000251: 30,2000                                           BANK     30
000252: 30,2000                        IMUSUPER           EQUALS
000253: 30,2000                        LOWSUPER           EQUALS
000254: 30,2000                        FCSTART            EQUALS                                         #  STANDARD LOCATION FOR THIS. (FOR EXTVB)
000255: 30,2000                        LOPC               EQUALS
000256: 30,2000                        P20S1              EQUALS
000257: 30,2000                        P20S6              EQUALS
000258: 30,2000                        P40S3              EQUALS
000259: 30,2000                        R35A               EQUALS
000260: 30,2000                                           BNKSUM   30
000261:
000262: 31,2000                                           BANK     31
000263: 31,2000                        R35                EQUALS
000264: 31,2000                        RT23               EQUALS
000265: 31,2000                        P30S1A             EQUALS
000266: 31,2000                        R34                EQUALS
000267: 31,2000                        CDHTAG2            EQUALS
000268: 31,2000                        CSIPROG9           EQUALS
000269: 31,2000                        R31                EQUALS
000270: 31,2000                        P22S               EQUALS
000271: 31,2000                        RTE3               EQUALS
000272: 31,2000                                           BNKSUM   31
000273:
000274: 32,2000                                           BANK     32
000275: 32,2000                        MSGSCAN1           EQUALS
000276: 32,2000                        RTE                EQUALS
000277: 32,2000                        DELRSPL1           EQUALS
000278: 32,2000                        IMUCAL3            EQUALS
000279: 32,2000                                           BNKSUM   32
000280:
000281: 33,2000                                           BANK     33
000282: 33,2000                        TESTLEAD           EQUALS
000283:
000284:
000285: 33,2000                        IMUCAL             EQUALS
000286: 33,2000                                           BNKSUM   33
000287:
000288: 34,2000                                           BANK     34
000289: 34,2000                        P11ONE             EQUALS
000290: 34,2000                        P20S3              EQUALS
000291: 34,2000                        P20S4              EQUALS
000292: 34,2000                        RTECON             EQUALS
000293: 34,2000                                           BNKSUM   34
000294:
000295: 35,2000                                           BANK     35
000296: 35,2000                        RTECON1            EQUALS
000297: 35,2000                        CSI/CDH            EQUALS
000298: 35,2000                        P30S1              EQUALS
000299: 35,2000                        P30S               EQUALS
000300: 35,2000                        P17S1              EQUALS
000301: 35,2000                        MEASINC3           EQUALS
000302: 35,2000                        INTINIT2           EQUALS
000303: 35,2000                                           BNKSUM   35
000304:
000305:                                                                                                  #  MODULE 6 CONTAINS BANKS 36 THROUGH 43
000306:
000307: 36,2000                                           BANK     36
000308: 36,2000                        MEASINC            EQUALS
000309: 36,2000                        MEASINC1           EQUALS
000310: 36,2000                        P17S               EQUALS
000311: 36,2000                        RTE1               EQUALS
000312: 36,2000                        S3435LOC           EQUALS
000313: 36,2000                                           BNKSUM   36
000314:
000315: 37,2000                                           BANK     37
000316: 37,2000                        P20S               EQUALS
000317: 37,2000                        BODYATT            EQUALS
000318: 37,2000                        RENDEZ             EQUALS
000319: 37,2000                        SERVICES           EQUALS
000320: 37,2000                        P11TWO             EQUALS
000321: 37,2000                        CDHTAG3            EQUALS
000322: 37,2000                                           BNKSUM   37
000323:
000324: 40,2000                                           BANK     40
000325: 40,2000                        PINSUPER           EQUALS
000326:
000327:
000328: 40,2000                        SELFSUPR           EQUALS
000329: 40,2000                        PINBALL1           EQUALS
000330: 40,2000                        R36CM1             EQUALS
000331: 40,2000                                           BNKSUM   40
000332:
000333: 41,2000                                           BANK     41
000334: 41,2000                        PINBALL2           EQUALS
000335: 41,2000                        R36LM              EQUALS
000336: 41,2000                                           BNKSUM   41
000337:
000338: 42,2000                                           BANK     42
000339: 42,2000                        SBAND              EQUALS
000340: 42,2000                        PINBALL3           EQUALS
000341: 42,2000                        EXTVBS             EQUALS
000342: 42,2000                        R36LM1             EQUALS
000343: 42,2000                                           BNKSUM   42
000344:
000345: 43,2000                                           BANK     43
000346: 43,2000                        SELFCHEC           EQUALS
000347: 43,2000                        EXTVERBS           EQUALS
000348: 43,2000                                           BNKSUM   43
000349:
000350: 43,2000  26,3333               HI6ZEROS           EQUALS   ZEROVECS                              #  ZERO VECTOR ALWAYS IN HIGH MEMORY
000351: 43,2000  04,3565               LO6ZEROS           EQUALS   ZEROVEC                               #  ZERO VECTOR ALWAYS IN LOW MEMORY
000352: 43,2000  26,3331               HIDPHALF           EQUALS   UNITX
000353: 43,2000  04,3563               LODPHALF           EQUALS   XUNIT
000354: 43,2000  26,3323               HIDP1/4            EQUALS   DP1/4TH
000355: 43,2000  04,3611               LODP1/4            EQUALS   D1/4                                  #  2DEC .25
000356: 43,2000  26,3331               HIUNITX            EQUALS   UNITX
000357: 43,2000  26,3327               HIUNITY            EQUALS   UNITY
000358: 43,2000  26,3325               HIUNITZ            EQUALS   UNITZ
000359: 43,2000  04,3563               LOUNITX            EQUALS   XUNIT                                 #  2DEC .5
000360: 43,2000  04,3561               LOUNITY            EQUALS   YUNIT                                 #  2DEC 0
000361: 43,2000  04,3557               LOUNITZ            EQUALS   ZUNIT                                 #  2DEC 0
000362: 43,2000  11,3745               3/4LOWDP           EQUALS   3/4                                   #  2DEC 3.0 B-2
000363:
000364: 43,2000  30,2000                                  SBANK=   LOWSUPER
000365:
000366:                                                                                                  #  ROPE SPECIFIC ASSIGNS OBVIATING NEED TO CHECK COMPUTER FLAG IN DETVRUZVING INTEGRATION AREA ENTRIES
000367:
000368: 43,2000  13,3115               OTHPREC            EQUALS   LEMPREC
000369: 43,2000  13,2770               ATOPOTH            EQUALS   ATOPLEM
000370: 43,2000  13,2715               ATOPTHIS           EQUALS   ATOPCSM
000371: 43,2000  0000173               MOONTHIS           EQUALS   CMOONFLG
000372:
000373:
000374: 43,2000  0000174               MOONOTH            EQUALS   LMOONFLG
000375: 43,2000  13,2730               MOVATHIS           EQUALS   MOVEACSM
000376: 43,2000  31,2032               STATEST            EQUALS   V83CALL                               #  * TEMPORARY
000377: 43,2000  13,3101               THISPREC           EQUALS   CSMPREC
000378: 43,2000  26,3331               THISAXIS           =        UNITX
000379: 43,2000     5070               ERASID             EQUALS   LOW10                                 #  DOWNLINK ERASABLE DUMP ID
000380: 43,2000     6214               DELAYNUM           EQUALS   THREE
000381:
000382:                                                                                                  # ****************************************************************************************************************
000383:
000384:                                                                                                  #  THE FOLLOWING ECADRS ARE DEFINED TO FACILITATE EBANK SWITCHING.  THEY ALSO MAKE IT EASIER FOR
000385:                                                                                                  #  ERASABLE CONTROL TO REARRANGE ERASABLE MEMORY WITHOUT DISRUPTING THE PROGRAMS WHICH SET EBANKS.
000386:                                                                                                  #  PRIOR TO ROPE RELEASE FIXED MEMORY CAN BE SAVED BY SETTING EACH EBXXXX =EBANKX (X=4,5,6,7).  EBANKX OF COURSE
000387:                                                                                                  #  WILL BE THE BANK WHERE THE ERASABLES REFERENCED IN EBXXXX WILL BE STORED.
000388:
000389: 07,2000                                           BANK     7
000390: 07,2000  E7,1674                                  EBANK=   MARKDOWN
000391: 07,2000           03674        EBMARKDO           ECADR    MARKDOWN
000392: 07,2001  E7,1725                                  EBANK=   MRKBUF1
000393: 07,2001           03725        EBMRKBUF           ECADR    MRKBUF1
000394:
000395: 24,2000                                           BANK     24
000396: 24,2000  E7,1431                                  EBANK=   DVCNTR
000397: 24,2000           03431        EBDVCNTR           ECADR    DVCNTR
000398: 24,2001  E7,1672                                  EBANK=   P40TMP
000399: 24,2001           03672        EBP40TMP           ECADR    P40TMP
000400:
000401: 34,2000                                           BANK     34
000402: 34,2000  E7,1431                                  EBANK=   DVCNTR
000403: 34,2000           03431        EBDVCNT            ECADR    DVCNTR
000404: 34,2001  E5,1426                                  EBANK=   QPLACES
000405: 34,2001           02426        EBQPLACE           ECADR    QPLACES
000406:
000407: 37,2000                                           BANK     37
000408: 37,2000     1231                                  EBANK=   RN1
000409: 37,2000           01231        EBRN1              ECADR    RN1
000410:
000411:                                                                                                  # ****************************************************************************************************************

End of include-file TAGS_FOR_RELATIVE_SETLOC_AND_BLANK_BANK_CARDS.agc.  Parent file is MAIN.agc


