
Source Code


000002:                                                                                                  ## Copyright:   Public domain.
000003:                                                                                                  ## Filename:    TIME_OF_FREE_FALL.agc
000004:                                                                                                  ## Purpose:     A section of Comanche revision 067.
000005:                                                                                                  ##              It is part of the reconstructed source code for the flight
000006:                                                                                                  ##              software for the Command Module's (CM) Apollo Guidance Computer
000007:                                                                                                  ##              (AGC) for Apollo 12. No original listings of this program are
000008:                                                                                                  ##              available; instead, this file was created via dissassembly of
000009:                                                                                                  ##              dumps of Comanche 067 core rope modules and comparison with
000010:                                                                                                  ##              other AGC programs.
000011:                                                                                                  ## Assembler:   yaYUL
000012:                                                                                                  ## Contact:     Ron Burkey <info@sandroid.org>.
000013:                                                                                                  ## Website:     www.ibiblio.org/apollo/index.html
000014:                                                                                                  ## Mod history: 2023-08-16 MAS  Created from Comanche 055.
000015:
000016:                                                                                                  #  THE TFF SUBROUTINES MAY BE USED IN EITHER EARTH OR MOON CENTERED COORDINATES.  THE TFF ROUTINES NEVER
000017:                                                                                                  #  KNOW WHICH ORIGIN APPLIES.  IT IS THE USER WHO KNOWS, AND WHO SUPPLIES RONE, VONE AND 1/SQRT(MU) AT THE
000018:                                                                                                  #  APPROPRIATE SCALE LEVEL FOR THE PROPER PRIMARY BODY.
000019:
000020:                                                                                                  #        EARTH ORIGIN    POSITION        -29     METERS
000021:                                                                                                  #                        VELOCITY        -7      METERS/CENTISECOND
000022:                                                                                                  #                        1/SQRT(MU)      +17     SQRT(CS SQ/METERS CUBED)
000023:
000024:                                                                                                  #        MOON ORIGIN     POSITION        -27     METERS
000025:                                                                                                  #                        VELOCITY        -5      METERS/CENTISECONDS
000026:                                                                                                  #                        1/SQRT(MU)      +14     SQRT(CS SQ/METERS CUBED)
000027:
000028:                                                                                                  #  ALL DATA PROVIDED TO AND RECEIVED FROM ANY TFF SUBROUTINE WILL BE AT ONE OF THE LEVELS ABOVE.  IN ALL CASES,
000029:                                                                                                  #  THE FREE FALL TIME IS RETURNED IN CENTISECONDS AT (-28).  PROGRAM TFF/CONIC WILL GENERATE VONE/RTMU AND
000030:                                                                                                  #  LEAVE IT IN VONE' AT (+10) IF EARTH ORIGIN AND (+9) IF MOON ORIGIN.
000031:
000032:                                                                                                  #  THE USER MUST STORE THE STATE VECTOR IN RONE, VONE  AND MU IN THE FORM 1/SQRT(MU) IN TFF/RTMU
000033:                                                                                                  #  AT THE PROPER SCALE BEFORE CALLING TFF/CONIC.  SINCE RONE, VONE ARE IN THE EXTENDED VERB STORAGE AREA,
000034:                                                                                                  #  THE USER MUST ALSO LOCK OUT THE EXTENDED VERBS, AND RELEASE THEM WHEN FINISHED.
000035:
000036:                                                                                                  #  PROGRAMS CALC/TFF AND CALC/TPER ASSUME THAT THE TERMINAL RADIUS IS LESS THAN THE PRESENT
000037:                                                                                                  #  RADIUS.  THIS RESTRICTION CAN BE REMOVED BY A 15 W CODING CHANGE, BUT AT PRESENT IT IS NOT DEEMED NECESSARY.
000038:
000039:                                                                                                  #  THE FOLLOWING ERASABLE QUANTITIES ARE USED BY THE TFF ROUTINES, AND ARE LOCATED IN THE PUSH LIST.
000040:
000041:                                                                                                  #                                        BELOW   E:  IS USED FOR EARTH ORIGIN SCALE
000042:                                                                                                  #                                                M:  IS USED FOR MOON  ORIGIN SCALE
000043:
000044:                                                                                                  # TFFSW          =       119D            BIT1    0 = CALCTFF             1 = CALCTPER
000045: 23,3774                        TFFDELQ            =        10D                                   #        Q2-Q1                   E: (-16)  M: (-15)
000046: 23,3774                        RMAG1              =        12D                                   #        ABVAL(RN)  M            E: (-29)  M: (-27)
000047:                                                                                                  # RPER           =       14D             PERIGEE RADIUS  M       E: (-29)  M: (-27)
000048: 23,3774                        TFFQ1              =        14D                                   #        R.V / SQRT(MUE)         E: (-16)  M: (-15)
000049:                                                                                                  # SDELF/2                                SIN(THETA) /2
000050: 23,3774                        CDELF/2            =        14D                                   #        COS(THETA) /2
000051:                                                                                                  # RAPO           =       16D             APOGEE RADIUS  M        E: (-29)  M: (-27)
000052: 23,3774                        NRTERM             =        16D                                   #        TERMINAL RADIUS  M      E: (-29+NR)
000053:                                                                                                  #                                          M: (-27+NR)
000054: 23,3774                        RTERM              =        18D                                   #        TERMINAL RADIUS  M      E: (-29)  M: (-27)
000055: 23,3774                        TFFVSQ             =        20D                                   #        -(V SQUARED/MU)  1/M    E: (20)   M: (18)
000056: 23,3774                        TFF1/ALF           =        22D                                   #        SEMI MAJ AXIS  M        E: (-22-2 NA)
000057:                                                                                                  #                                          M: (-20-2 NA)
000058: 23,3774                        TFFRTALF           =        24D                                   #        SQRT(ALFA)              E:(10+NA) M: (9+NA)
000059: 23,3774                        TFFALFA            =        26D                                   #        ALFA  1/M               E:(26-NR) M: (24-NR)
000060: 23,3774                        TFFNP              =        28D                                   #        SEMI LATUS RECTUM  M    E: (-38+2 NR)
000061:                                                                                                  #                                          M: (-36+2 NR)
000062: 23,3774                        TFF/RTMU           =        30D                                   #        1/SQRT(MU)              E: (17)   M: (14)
000063: 23,3774                        NRMAG              =        32D                                   #        PRESENT RADIUS  M       E: (-29+NR)
000064:                                                                                                  #                                          M: (-27+NR)
000065: 23,3774                        TFFX               =        34D
000066: 23,3774                        TFFTEM             =        36D                                   #        TEMPORARY
000067:                                                                                                  #                REGISTERS S1, S2 ARE UNTOUCHED BY ANY TFF SUBROUTINE
000068:                                                                                                  #                INDEX REGISTERS X1, X2 ARE USED BY ALL TFF SUBROUTINES.  THEY ARE ESTAB-
000069:                                                                                                  #                LISHED IN TFF/CONIC AND MUST BE PRESERVED BETWEEN CALLS TO SUBSEQUENT
000070:                                                                                                  #                SUBROUTINES.
000071:                                                                                                  #                -NR                             C(X1) = NORM COUNT OF RMAG
000072:                                                                                                  #                -NA                             C(X2) = NORM COUNT OF SQRT(ABS(ALFA))
000073:
000074:                                                                                                  #  SUBROUTINE NAME:  TFFCONIC                    DATE:  01.29.67
000075:                                                                                                  #  MOD NO:  0                                    LOG SECTION:  TIME OF FREE FALL
000076:                                                                                                  #  MOD BY:  RR BAIRNSFATHER
000077:                                                                                                  #  MOD NO:  1    MOD BY:  RR BAIRNSFATHER        DATE: 11 APR 67
000078:                                                                                                  #  MOD NO:  2    MOD BY:  RR BAIRNSFATHER        DATE: 21 NOV 67         ADD MOON MU.
000079:                                                                                                  #  MOD NO:  3    MOD BY:  RR BAIRNSFATHER        DATE: 21 MAR 68         ACCEPT DIFFERENT EARTH/MOON SCALES
000080:
000081:                                                                                                  #  FUNCTIONAL DESCRIPTION:  THIS SUBROUTINE IS CALLED TO COMPUTE THOSE CONIC PARAMETERS REQUIRED BY THE TFF
000082:                                                                                                  #        SUBROUTINES AND TO ESTABLISH THEM IN THE PUSH LIST AREA.  THE PARAMETERS ARE LISTED UNDER OUTPUT.
000083:                                                                                                  #        THE EQUATIONS ARE
000084:                                                                                                  #                -   -  -
000085:                                                                                                  #                H = RN*VN                       ANGULAR MOMENTUM
000086:                                                                                                  #                      - -
000087:                                                                                                  #                LCP = H.H / MU                  SEMI LATUS RECTUM
000088:                                                                                                  #                              -  -
000089:                                                                                                  #                ALFA = 2/RN - VN.VN / MU        RECIPROCAL SEMI MAJ AXIS, SIGNED
000090:
000091:                                                                                                  #        AND ALFA IS POS FOR ELLIPTIC ORBITS
000092:                                                                                                  #                      0 FOR PARABOLIC ORBITS
000093:                                                                                                  #                    NEG FOR HYPERBOLIC ORBITS.
000094:                                                                                                  #        SUBROUTINE ALSO COMPUTES AND SAVES RMAG.
000095:
000096:                                                                                                  #  CALLING SEQUENCE:
000097:                                                                                                  #        TFFCONIC EXPECTS CALLER TO ENTER WITH CORRECT GRAVITATIONAL CONSTANT IN MPAC, IN THE FORM
000098:                                                                                                  #        1/SQRT(MU).  PROGRAM WILL SAVE IN TFF/RTMU.  THE SCALE IS DETERMINED BY WHETHER EARTH OR MOON
000099:                                                                                                  #        ORIGIN IS USED.  THE CALLER MUST LOCK OUT THE EXTENDED VERBS BEFORE PROVIDING STATE VECTOR IN RONE,
000100:                                                                                                  #        VONE AT PROPER SCALE.  THE EXTENDED VERBS MUST BE RESTORED WHEN THE CALLER IS FINISHED USING THE
000101:                                                                                                  #        TFF ROUTINES.
000102:
000103:                                                                                                  #        ENTRY POINT TFFCONMU EXPECTS THAT TFF/RTMU IS ALREADY LOADED.
000104:
000105:                                                                                                  #        TO SPECIFY MU:  DLOAD   CALL            IF MU ALREADY STORED:           CALL
000106:                                                                                                  #                                YOURMU          1/RTMU E:(17) M:(14)                    TFFCONMU
000107:                                                                                                  #                                TFFCONIC
000108:                                                                                                  #        PUSHLOC = PDL+0, ARBITRARY IF LEQ 18D
000109:
000110:                                                                                                  #  SUBROUTINES CALLED:  NONE
000111:
000112:                                                                                                  #  NORMAL EXIT MODES:  RVQ
000113:
000114:                                                                                                  #  ALARMS:  NONE
000115:
000116:                                                                                                  #  OUTPUT:       THE FOLLOWING ARE STORED IN THE PUSH LIST AREA.
000117:                                                                                                  #                RMAG1           E:(-29) M:(-27)         M  RN, PRESENT RADIUS LENGTH.
000118:                                                                                                  #                NRMAG           E:(-29+NR)              M  RMAG, NORMALIZED
000119:                                                                                                  #                                M:(-27+NR)
000120:                                                                                                  #                X1                                      -NR, NORM COUNT
000121:                                                                                                  #                TFFNP           E:(-38+2NR)             M  LCP, SEMI LATUS RECTUM, WEIGHTED BY NR.  FOR VGAMCALC
000122:                                                                                                  #                                M:(-36+2NR)
000123:                                                                                                  #                TFF/RTMU        E:(17) M:(14)           1/SQRT(MU)
000124:                                                                                                  #                TFFVSQ          E:(20) M:(18)           1/M  -(V SQ/MU):  PRESENT VELOCITY, NORMLIZED.  FOR VGAMCALC
000125:                                                                                                  #                TFFALFA         E:(26-NR)               1/M  ALFA, WEIGHTED BY NR
000126:                                                                                                  #                                M:(24-NR)
000127:                                                                                                  #                TFFRTALF        E:(10+NA)               SQRT(ALFA), NORMALIZED
000128:                                                                                                  #                                M:(9+NA)
000129:                                                                                                  #                X2                                      -NA, NORM COUNT
000130:                                                                                                  #                TFF1/ALF        E:(-22-2NA)             SIGNED SEMI MAJ AXIS, WEIGHTED BY NA
000131:                                                                                                  #                                M:(-20-2NA)
000132:                                                                                                  #                PUSHLOC AT PDL+0
000133:
000134:                                                                                                  #        THE FOLLOWING IS STORED IN GENERAL ERASABLE
000135:                                                                                                  #                VONE'           E:(10) M:(9)            V/RT(MU), NORMALIZED VELOCITY
000136:
000137:                                                                                                  #  ERASABLE INITIALIZATION REQUIRED:
000138:                                                                                                  #                RONE            E:(-29) M:(-27)         M  STATE VECTOR         LEFT BY CALLER
000139:                                                                                                  #                VONE            E:(-7) M:(-5)           M/CS  STATE VECTOR      LEFT BY CALLER
000140:                                                                                                  #                TFF/RTMU        E:(17) M:(14)           1/RT(CS SQ/M CUBE)      IF ENTER VIA TFFCONMU.
000141:
000142:                                                                                                  #  DEBRIS:       QPRET,  PDL+0 ... PDL+3
000143:
000144: 33,3776                                           BANK     33
000145: 27,2000                                           SETLOC   TOF-FF
000146: 27,2000                                           BANK
000147:
000148: 27,2760                                           COUNT*   $$/TFF
000149:
000150: 27,2760           00037        TFFCONIC           STORE    TFF/RTMU                              #  1/SQRT(MU)    E:(17) M:(14)
000151:
000152: 27,2761           53575        TFFCONMU           VLOAD    UNIT                                  #  COME HERE WITH TFFRTMU LOADED.
000153: 27,2762           02327                                    RONE                                  #  SAVED RN.  M  E:(-29) M:(-27)
000154: 27,2763           77725                           PDDL                                           #  UR/2 TO PDL+0, +5
000155: 27,2764           00045                                    36D                                   #  MAGNITUDE
000156: 27,2765           00015                           STORE    RMAG1                                 #  M  E:(-29) M:(-27)
000157:
000158: 27,2766           77701                           NORM
000159: 27,2767           00047                                    X1                                    #  -NR
000160: 27,2770           24041                           STOVL    NRMAG                                 #  RMAG  M  E:(-29+NR) M:(-27+NR)
000161: 27,2771           02335                                    VONE                                  #  SAVED VN.  M/CS  E:(-7) M:(-5)
000162: 27,2772           77761                           VXSC
000163: 27,2773           00037                                    TFF/RTMU                              #  E:(17) M:(14)
000164: 27,2774           02372                           STORE    VONE'                                 #  VN/SQRT(MU)  E:(10) M:(9)
000165:
000166: 27,2775           47361                           VXSC     VXV
000167: 27,2776           00041                                    NRMAG                                 #  E:(-29+NR) M:(-27+NR)
000168:                                                                                                  #  UR/2 FROM PDL
000169: 27,2777           47572                           VSL1     VSQ                                   #  BEFORE:  E:(-19+NR) M:(-18+NR)
000170: 27,3000           14035                           STODL    TFFNP                                 #  LC P  M  E:(-38+2NR) M:(-36+2NR)
000171:                                                                                                  #  SAVE ALSO FOR VGAMCALC
000172: 27,3001           15324                                    TFF1/4
000173: 27,3002           63271                           DDV      PDVL                                  #  (2/RMAG)  1/M  E:(26-NR) M:(24-NR)
000174: 27,3003           00041                                    NRMAG                                 #  RMAG  M  E:(-29+NR) M:(-27+NR)
000175: 27,3004           02372                                    VONE'                                 #  SAVED VN.  E:(10) M:(9)
000176: 27,3005           57436                           VSQ      DCOMP                                 #  KEEP MPAC+2 HONEST FOR SQRT.
000177: 27,3006           00025                           STORE    TFFVSQ                                #  -(V SQ/MU)  E:(20) M:(18)
000178:                                                                                                  #  SAVE FOR VGAMCALC
000179: 27,3007           43257                           SR*      DAD
000180: 27,3010           20573                                    0          -6,1                       #  GET -VSQ/MU  E:(26-NR) M:(24-NR)
000181: 27,3011           77626                           STADR
000182:                                                                                                  #  2/RMAG  FROM PDL+2
000183: 27,3012           77744                           STORE    TFFALFA                               #  ALFA  1/M  E:(26-NR) M:(24-NR)
000184: 27,3013           41457                           SL*      PUSH                                  #  TEMP SAVE ALFA  E:(20) M:(18)
000185: 27,3014           20173                                    0          -6,1
000186: 27,3015           75446                           ABS      SQRT                                  #  E:(10) M:(9)
000187: 27,3016           77701                           NORM
000188: 27,3017           00050                                    X2                                    #  X2 = -NA
000189: 27,3020           00031                           STORE    TFFRTALF                              #  SQRT( ABS(ALFA) )  E:(10+NA) M:(9+NA)
000190: 27,3021           75316                           DSQ      SIGN                                  #  NOT SO ACCURATE, BUT OK
000191:                                                                                                  #  ALFA FROM PDL+2  E:(20) M:(18)
000192: 27,3022           55254                           BZE      BDDV                                  #  SET 1/ALFA =0, TO SHOW SMALL ALFA
000193: 27,3023           57025                                    +2
000194: 27,3024           15324                                    TFF1/4
000195: 27,3025           00027                 +2        STORE    TFF1/ALF                              #  1/ALFA  E:(-22-2NA) M:(-20-2NA)
000196: 27,3026           77616        DUMPCNIC           RVQ
000197:                                                                                                  #                        39 W
000198:                                                                                                  #  SUBROUTINE NAME:  TFFRP/RA                    DATE: 01.17.67
000199:                                                                                                  #  MOD NO:  0                                    LOG SECTION:  TIME OF FREE FALL
000200:                                                                                                  #  MOD BY:  RR BAIRNSFATHER
000201:                                                                                                  #  MOD NO:  1    MOD BY:  RR BAIRNSFATHER        DATE: 11 APR 67
000202:                                                                                                  #  MOD NO:  2    MOD BY:  RR BAIRNSFATHER        DATE: 21 MAR 68         ACCEPT DIFFERENT EARTH/MOON SCALES
000203:                                                                                                  #                                                                        ALSO IMPROVE ACCURACY OF RAPO.
000204:
000205:                                                                                                  #  FUNCTIONAL DESCRIPTION:  USED BY CALCTPER AND TFF DISPLAYS TO CALCULATE PERIGEE RADIUS AND ALSO
000206:                                                                                                  #        APOGEE RADIUS FOR A GENERAL CONIC.
000207:                                                                                                  #        PROGRAM GIVES PERIGEE RADIUS AS         APOGEE RADIUS IS GIVEN BY
000208:                                                                                                  #                RP = P/(1+E)                            RA = (1+E) / ALFA
000209:                                                                                                  #        WHERE    2
000210:                                                                                                  #                E  = 1 - P ALFA
000211:                                                                                                  #        IF RA IS NEGATIVE OR SHOWS DIVIDE OVERFLOW, THEN RA = POSMAX BECAUSE
000212:                                                                                                  #                1. APOGEE RADIUS IS NOT MEANINGFUL FOR HYPERBOLA
000213:                                                                                                  #                2. APOGEE RADIUS IS NOT DEFINED FOR PARABOLA
000214:                                                                                                  #                3. APOGEE RADIUS EXCEEDS THE SCALING FOR ELLIPSE.
000215:
000216:                                                                                                  #        THIS SUBROUTINE REQUIRES THE SIGNED RECIPROCAL SEMI MAJ AXIS, ALFA, AND SEMI LATUS RECTUM AS DATA.
000217:
000218:                                                                                                  #  CALLING SEQUENCE:     CALL
000219:                                                                                                  #                                TFFRP/RA
000220:                                                                                                  #        PUSHLOC = PDL+0, ARBITRARY IF LEQ 10D
000221:                                                                                                  #        C(MPAC) UNSPECIFIED
000222:
000223:                                                                                                  #  SUBROUTINES CALLED:   NONE
000224:
000225:                                                                                                  #  NORMAL EXIT MODE:     RVQ
000226:                                                                                                  #        IF ELLIPSE, WITHIN NORMAL SCALING, RAPO IS CORRECT.
000227:                                                                                                  #        OTHERWISE, RAPO = POSMAX.
000228:
000229:                                                                                                  #  ALARMS:       NONE
000230:
000231:                                                                                                  #  OUTPUT:       STORED IN PUSH LIST AREA.  SCALE OF OUTPUT AGREES WITH DATA SUPPLIED TO TFF/CONIC.
000232:                                                                                                  #        RPER    E:(-29) M:(-27)         M       PERIGEE RADIUS          DESTROYED BY CALCTFF/CALCTPER, TFFTRIG.
000233:                                                                                                  #        RAPO    E:(-29) M:(-27)         M       APOGEE RADIUS           WILL BE DESTROYED BY CALCTFF/CALCTPER
000234:                                                                                                  #        PUSHLOC AT PDL+0
000235:
000236:                                                                                                  #  ERASABLE INITIALIZATION REQUIRED:
000237:                                                                                                  #        TFFALFA E:(26-NR)               M       1/SEMI MAJ AXIS LEFT BY TFFCONIC
000238:                                                                                                  #                M:(24-NR)
000239:                                                                                                  #        TFFNP   E:(-38+2NR)             M       LC P, SEMI LATUS RECTUM LEFT BY TFFCONIC
000240:                                                                                                  #                M:(-36+2NR)
000241:                                                                                                  #        X1                              -NR, NORM COUNT OF RMAG         LEFT BY TFFCONIC
000242:                                                                                                  #        X2                              -NA, NORM COUNT OF ALFA         LEFT BY TFFCONIC
000243:
000244:                                                                                                  #  DEBRIS:       QPRET, PDL+0 ... PDL+1
000245:
000246: 27,3027                        RAPO               =        16D                                   #  APOGEE RADIUS  M  E:(-29) M:(-27)
000247: 27,3027                        RPER               =        14D                                   #  PERIGEE RADIUS  M  E:(-29) M:(-27)
000248:
000249: 27,3027           41345        TFFRP/RA           DLOAD    DMP
000250: 27,3030           00033                                    TFFALFA                               #  ALFA  1/M  E:(26-NR) M:(24-NR)
000251: 27,3031           00035                                    TFFNP                                 #  LC P  M E:(-38+2NR) M:(-36+2NR)
000252: 27,3032           57457                           SR*      DCOMP                                 #  ALFA P (-12+NR)
000253: 27,3033           20571                                    0          -8D,1                      #  ALFA P (-4)
000254: 27,3034           51415                           DAD      ABS                                   #  (DCOMP GIVES VALID TP RESULT FOR SQRT)
000255:                                                                                                  #  (ABS PROTECTS SQRT IF E IS VERY NEAR 0)
000256: 27,3035           17367                                    DP2(-4)
000257: 27,3036           43366                           SQRT     DAD                                   #  E SQ = (1- P ALFA) (-4)
000258: 27,3037           15324                                    TFF1/4
000259: 27,3040           55206                           PUSH     BDDV                                  #  (1+E)  (-2)  TO PDL+0
000260: 27,3041           00035                                    TFFNP                                 #  LCP  M  E:(-38+2NR) M:(-36+2NR)
000261: 27,3042           53657                           SR*      SR*                                   #  (DOES SR THEN SL TO AVOID OVFL)
000262: 27,3043           20601                                    0,1                                   #  X1=-NR
000263: 27,3044           20572                                    0          -7,1                       #  (EFFECTIVE SL)
000264: 27,3045           14017                           STODL    RPER                                  #  PERIGEE RADIUS  M  E:(-29) M:(-27)
000265:                                                                                                  #  (1+E)  (-2)  FROM PDL+0
000266: 27,3046           41005                           DMP      BOVB
000267: 27,3047           00027                                    TFF1/ALF                              #  E:(-22-2NA) M:(-20-2NA)
000268: 27,3050           57353                                    TCDANZIG                              #  CLEAR OVFIND, IF ON.
000269: 27,3051           53654                           BZE      SL*
000270: 27,3052           57061                                    MAXRA                                 #  SET POSMAX, IF ALFA=0
000271: 27,3053           57603                                    0          -5,2                       #  -5+NA
000272: 27,3054           40057                           SL*      BOV
000273: 27,3055           57576                                    0,2
000274: 27,3056           57061                                    MAXRA                                 #  SET POSMAX IF OVFL.
000275: 27,3057           77644                           BPL                                            #  CONTINUE WITH VALID RAPO.
000276: 27,3060           57063                                    +3
000277: 27,3061           77745        MAXRA              DLOAD                                          #  RAPO CALC IS NOT VALID.  SET RAPO =
000278: 27,3062           17373                                    NEARONE                               #  POSMAX AS A TAG.
000279: 27,3063           00021                 +3        STORE    RAPO                                  #  APOGEE RADIUS  M  E:(-29) M:(-27)
000280: 27,3064           77616        DUMPRPRA           RVQ
000281:                                                                                                  #                        30 W
000282:                                                                                                  #  SUBROUTINE NAME:  CALCTPER / CALCTFF          DATE:  01.29.67
000283:                                                                                                  #  MOD NO:  0                                    LOG SECTION:  TIME OF FREE FALL
000284:                                                                                                  #  MOD BY:  RR BAIRNSFATHER
000285:                                                                                                  #  MOD NO:  1    MOD BY:  RR BAIRNSFATHER        DATE: 21 MAR 67
000286:                                                                                                  #  MOD NO:  2    MOD BY:  RR BAIRNSFATHER        DATE: 14 APR 67
000287:                                                                                                  #  MOD NO:  3    MOD BY:  RR BAIRNSFATHER        DATE: 8 JUL 67          NEAR EARTH MUE AND NEG TFF (GONEPAST)
000288:                                                                                                  #  MOD NO:  4    MOD BY:  RR BAIRNSFATHER        DATE: 21 NOV 67         ADD VARIABLE MU.
000289:                                                                                                  #  MOD NO:  5    MOD BY:  RR BAIRNSFATHER        DATE: 21 MAR 68         ACCEPT DIFFERENT EARTH/MOON SCALES
000290:
000291:                                                                                                  #  FUNCTIONAL DESCRIPTION:  PROGRAM CALCULATES THE FREE-FALL TIME OF FLIGHT FROM PRESENT POSITION RN AND
000292:                                                                                                  #        VELOCITY VN TO A RADIUS LENGTH SPECIFIED BY RTERM, SUPPLIED BY THE USER.  THE POSITION VECTOR
000293:                                                                                                  #        RN MAY BE ON EITHER SIDE OF THE CONIC, BUT RTERM IS CONSIDERED ON THE INBOUND SIDE.
000294:                                                                                                  #        THE EQUATIONS ARE
000295:
000296:                                                                                                  #                Q2 = -SQRT(RTERM (2-RTERM ALFA) - LCP)  (INBOUND SIDE)) LEQ +- LCE/SQRT(ALFA)
000297:                                                                                                  #                     -  -
000298:                                                                                                  #                Q1 = RN.VN / SQRT(MU)                                   LEQ +- LCE/SQRT(ALFA)
000299:
000300:                                                                                                  #                Z = NUM / DEN                                           LEQ +- 1/SQRT(ALFA)
000301:
000302:                                                                                                  #        WHERE, IF INBOUND
000303:                                                                                                  #                NUM = RTERM -RN                                         LEQ +- 2 LCE/ALFA
000304:                                                                                                  #                DEN = Q2+Q1                                             LEQ +- 2 LCE/SQRT(ALFA)
000305:
000306:                                                                                                  #        AND, IF OUTBOUND
000307:                                                                                                  #                NUM = Q2-Q1                                             LEQ +- 2 LCE/SQRT(ALFA)
000308:                                                                                                  #                DEN = 2 - ALFA (RTERM + RN).                            LEQ +- 2 LCE
000309:
000310:                                                                                                  #        IF      ALFA ZZ < 1.0           (FOR ALL CONICS EXCEPT ELLIPSES HAVING ABS(DEL ECC ANOM) G 90 DEG)
000311:                                                                                                  #        THEN    X = ALFA Z Z
000312:                                                                                                  #        AND     TFF = (RTERM +RN -2 ZZ T(X) ) Z/SQRT(MU)
000313:                                                                                                  #                EXCEPT  IF ALFA PNZ, AND IF TFF NEG,
000314:                                                                                                  #                THEN    TFF = 2 PI /(ALFA SQRT(ALFA)) + TFF
000315:                                                                                                  #        OR      IF ALFA ZZ GEQ 1.0      (FOR ELLIPSES HAVING ABS(DEL ECC ANOM) GEQ 90 DEG)
000316:                                                                                                  #        THEN    X = 1/ALFA Z Z
000317:                                                                                                  #        AND     TFF = (PI/SQRT(ALFA) -Q2 +Q1 +2(X T(X) -1) /ALFA Z) /ALFA SQRT(MU)
000318:                                                                                                  #        WHERE   T(X) IS A POLYNOMIAL APPROXIMATION TO THE SERIES
000319:                                                                                                  #                             2      3             2
000320:                                                                                                  #                1/3 - X/5 + X /7 - X /9 ...     (X  < 1.0)
000321:
000322:                                                                                                  #  CALLING SEQUENCE:     TIME TO RTERM                   TIME TO PERIGEE
000323:                                                                                                  #                        CALL                            CALL
000324:                                                                                                  #                                CALCTFF                         CALCTPER
000325:                                                                                                  #                        C(MPAC) = TERMNL RAD M          C(MPAC) = PERIGEE RAD M
000326:                                                                                                  #        FOR EITHER, E:(-29) M:(-27)
000327:                                                                                                  #        FOR EITHER, PUSHLOC = PDL+0, ARBITRARY IF LEQ 8D.
000328:
000329:                                                                                                  #  SUBROUTINES CALLED:   T(X), VIA RTB
000330:
000331:                                                                                                  #  NORMAL EXIT MODE:     RVQ
000332:                                                                                                  #        HOWEVER, PROGRAM EXITS WITH ONE OF THE FOLLOWING VALUES FOR TFF (-28) CS IN MPAC.  USER MUST STORE.
000333:                                                                                                  #                A. TFF = FLIGHT TIME.  NORMAL CASE FOR POSITIVE FLIGHT TIME LESS THAN ONE ORBITAL PERIOD.
000334:                                                                                                  #                B. (THIS OPTION IS NO LONGER USED.)
000335:                                                                                                  #                C. TFF = POSMAX.  THIS INDICATES THAT THE CONIC FROM THE PRESENT POSITION WILL NOT RETURN TO
000336:                                                                                                  #                   THE SPECIFIED ALTITUDE.  ALSO INDICATES OUTBOUND PARABOLA OR HYPERBOLA.
000337:
000338:                                                                                                  #  OUTPUT:       C(MPAC)         (-28) CS        TIME OF FLIGHT, OR TIME TO PERIGEE
000339:                                                                                                  #                TFFX            (0)             X,                                      LEFT FOR ENTRY DISPLAY TFF ROUTINES
000340:                                                                                                  #                NRTERM          E:(-29+NR) M    RTERM, WEIGHTED BY NR                   LEFT FOR ENTRY DISPLAY TFF ROUTINES
000341:                                                                                                  #                                M:(-27+NR)
000342:                                                                                                  #                TFFTEM          E:(-59+2NR)     LCP Z Z SGN(SDELF)                      LEFT FOR ENTRY DISPLAY TFF ROUTINES
000343:                                                                                                  #                                M:(-55+2NR)     LCP /ALFA SGN(SDELF)                    LEFT FOR ENTRY DISPLAY TFF ROUTINES
000344:                                                                                                  #                NOTE:   TFFTEM = PDL 36D AND WILL BE DESTROYED BY .:UNIT:.
000345:                                                                                                  #                RMAG1           E:(-29) M:(-27) PDL 12 NOT TOUCHED.
000346:                                                                                                  #                TFFQ1           E:(-16) M:(-15) PDL 14D
000347:                                                                                                  #                TFFDELQ         E:(-16) M:(-15) PDL 10D
000348:                                                                                                  #                PUSHLOC AT PDL+0
000349:
000350:                                                                                                  #  ERASABLE INITIALIZATION REQUIRED:
000351:                                                                                                  #                RONE            E:(-29) M:(-27) M  STATE VECTOR                         LEFT BY USER
000352:                                                                                                  #                VONE'           E:(+10) M:(+9)  VN/SQRT(MU)                             LEFT BY TFF/CONIC
000353:                                                                                                  #                RMAG1           E:(-29) M:(-27) PRESENT RADIUS, M                       LEFT BY TFFCONIC
000354:                                                                                                  #                C(MPAC)         E:(-29) M:(-27) RTERM, TERMINAL RADIUS LENGTH, M        LEFT BY USER
000355:
000356:                                                                                                  #                THE FOLLOWING ARE STORED IN THE PUSH LIST AREA.
000357:                                                                                                  #                TFF/RTMU        E:(17) M:(14)   1/SQRT(MU)                              LEFT BY TFFCONIC.
000358:                                                                                                  #                NRMAG           E:(-29+NR)      M  RMAG, NORMALIZED                     LEFT BY TFFCONIC
000359:                                                                                                  #                                M:(-27+NR)
000360:                                                                                                  #                X1                              -NR, NORM COUNT                         LEFT BY TFFCONIC
000361:                                                                                                  #                TFFNP           E:(-38+2NR)     M  LCP, SEMI LATUS RECTUM, WEIGHT NR    LEFT BY TFFCONIC
000362:                                                                                                  #                                M:(-36+2NR)
000363:                                                                                                  #                TFFALFA         E:(26-NR)       1/M  ALFA, WEIGHT NR                    LEFT BY TFFCONIC
000364:                                                                                                  #                                M:(24-NR)
000365:                                                                                                  #                TFFRTALF        E:(10+NA)       SQRT(ALFA), NORMALIZED                  LEFT BY TFFCONIC
000366:                                                                                                  #                                M:(9+NA)
000367:                                                                                                  #                X2                              -NA, NORM COUNT                         LEFT BY TFFCONIC
000368:                                                                                                  #                TFF1/ALF        E:(-22-2NA)     SIGNED SEMIMAJ AXIS, WEIGHTED BY NA     LEFT BY TFFCONIC
000369:                                                                                                  #                                M:(-20-2NA)
000370:
000371:                                                                                                  #  DEBRIS:       QPRET, PDL+0 ... PDL+3
000372:                                                                                                  #                RTERM           E:(-29) M:(-27) RTERM, TERMINAL RADIUS LENGTH
000373:                                                                                                  #                RAPO            E:(-29) M:(-27) PDL 16D (=NRTERM)
000374:                                                                                                  #                RPER            E:(-29) M:(-27) PDL 14D (=TFFQ1)
000375:
000376: 27,3065           77614        CALCTPER           SETGO                                          #  ENTER WITH RPER IN MPAC
000377: 27,3066           03436                                    TFFSW
000378: 27,3067           57072                                    +3
000379: 27,3070           77614        CALCTFF            CLEAR                                          #  ENTER WITH RTERM IN MPAC
000380: 27,3071           03676                                    TFFSW
000381: 27,3072           00023                 +3        STORE    RTERM                                 #  E:(-29) M:(-27)
000382: 27,3073           77657                           SL*
000383: 27,3074           20201                                    0,1                                   #  X1=-NR
000384: 27,3075           00021                           STORE    NRTERM                                #  RTERM  E:(-29+NR) M:(-27+NR)
000385: 27,3076           44205                           DMP      BDSU
000386: 27,3077           00033                                    TFFALFA                               #  ALFA  E:(26-NR) M:(24-NR)
000387: 27,3100           15324                                    TFF1/4
000388: 27,3101           41206                           PUSH     DMP                                   #  (2-ALFA RTERM)  (-3)  TO PDL+0
000389: 27,3102           00021                                    NRTERM                                #  E:(-29+NR) M:(-27+NR)
000390: 27,3103           53725                           PDDL     SR*                                   #  RTERM(2-ALFA RTERM) TO PDL+2
000391:                                                                                                  #  E:(-32+NR) M:(-30+NR)
000392: 27,3104           00035                                    TFFNP                                 #  LC P  E:(-38+2NR) M:(-36+2NR)
000393: 27,3105           20573                                    0          -6,1                       #  X1 = -NR
000394: 27,3106           43276                           DCOMP    DAD                                   #  DUE TO SHIFTS, KEEP PRECISION FOR SQRT
000395:                                                                                                  #  RTERM(2-ALFA RTERM) FROM PDL +2
000396:                                                                                                  #  E:(-32+NR) M:(-30+NR)
000397: 27,3107           77657                           SR*                                            #  LEAVE  E:(-32) M:(-30)
000398: 27,3110           20601                                    0,1                                   #  X1 = -NR
000399: 27,3111           71214                           BOFF     DLOAD                                 #  CHECK TFF /TPER SWITCH
000400: 27,3112           03756                                    TFFSW
000401: 27,3113           57115                                    +2                                    #  IF TFF, CONTINUE
000402: 27,3114           15334                                    TFFZEROS                              #  IF TPER, SET Q2 = 0
000403: 27,3115           75440                 +2        BMN      SQRT                                  #  E:(-16) M:(-15)
000404: 27,3116           57250                                    MAXTFF1                               #  NO FREE FALL CONIC TO RTERM FROM HERE
000405:                                                                                                  #  RESET PDL, SET TFF=POSMAX, AND EXIT.
000406:
000407: 27,3117           41076                           DCOMP    BOVB                                  #  RT IS ON INBOUND SIDE.  ASSURE OVFIND=0
000408: 27,3120           57353                                    TCDANZIG                              #  ANY PORT IN A STORM.
000409: 27,3121           24045                           STOVL    TFFTEM                                #  Q2  E:(-16) M:(-15)
000410: 27,3122           02372                                    VONE'                                 #  VN/SQRT(MU)  E:(10) M:(9)
000411: 27,3123           52441                           DOT      SL3
000412: 27,3124           02327                                    RONE                                  #  SAVED RN.  E:(-29) M:(-27)
000413: 27,3125           00017                           STORE    TFFQ1                                 #  Q1, SAVE FOR GONEPAST TEST.
000414:                                                                                                  #  E:(-16) M:(-15)
000415: 27,3126           44240                           BMN      BDSU
000416: 27,3127           57150                                    INBOUND                               #  USE ALTERNATE Z
000417: 27,3130           00045                                    TFFTEM                                #  Q2  E:(-16) M:(-15)
000418:
000419:                                                                                                  #  OUTBOUND Z CALC CONTINUES HERE
000420:
000421: 27,3131           14043                           STODL    TFFX                                  #  NUM=Q2-Q1  E:(-16) M:(-15)
000422: 27,3132           00033                                    TFFALFA                               #  ALFA  E:(26-NR) M:(24-NR)
000423: 27,3133           44205                           DMP      BDSU
000424: 27,3134           00041                                    NRMAG                                 #  RMAG  E:(-29+NR) M:(-27+NR)
000425:                                                                                                  #  (2-RTERM ALFA)  (-3) FROM PDL+0
000426: 27,3135           51406        SAVEDEN            PUSH     ABS                                   #  DEN TO PDL+0  E:(-3) OR (-16)
000427:                                                                                                  #                M:(-3) OR (-15)
000428: 27,3136           40015                           DAD      BOV                                   #  INDETERMINANCY TEST
000429: 27,3137           17361                                    LIM(-22)                              #  =1.0-B(-22)
000430: 27,3140           57161                                    TFFXTEST                              #  GO IF DEN >/= B(-22)
000431: 27,3141           65345                           DLOAD    PDDL                                  #  SET DEN=0 OTHERWISE
000432: 27,3142           15334                                    TFFZEROS
000433:                                                                                                  #  XCH ZERO WITH PDL+0
000434: 27,3143           57545                           DLOAD    DCOMP
000435: 27,3144           00033                                    TFFALFA                               #  ALFA  E:(26-NR) M:(24-NR)
000436: 27,3145           71240                           BMN      DLOAD                                 #  FOR TPER:  Z INDET AT DELE/2=0 AND 90.
000437: 27,3146           57255                                    TFFEL1                                #  ASSUME 90, AND LEAVE 0 IN PDL: 1/Z=D/N
000438:
000439:                                                                                                  #  Z INDET. AT PERIGEE FOR PARAB OR HYPERB.
000440: 27,3147           77616        DUMPTFF1           RVQ                                            #  RETURN TFF =0
000441:
000442:                                                                                                  #  INBOUND Z CALC CONTINUES HERE
000443:
000444: 27,3150           77745        INBOUND            DLOAD                                          #  RESET PDL+0
000445: 27,3151           45345                           DLOAD    DSU                                   #  ALTERNATE Z CALC
000446: 27,3152           00023                                    RTERM                                 #  E:(-29) M:(-27)
000447: 27,3153           00015                                    RMAG1                                 #  E:(-29) M:(-27)
000448: 27,3154           14043                           STODL    TFFX                                  #  NUM=RTERM-RN  E:(-29) M:(-27)
000449: 27,3155           00045                                    TFFTEM                                #  Q2  E:(-16) M:(-15)
000450: 27,3156           52015                           DAD      GOTO
000451: 27,3157           00017                                    TFFQ1                                 #  Q1  E:(-16) M:(-15)
000452: 27,3160           57135                                    SAVEDEN                               #  DEN = Q2+Q1  E:(-16) M:(-15)
000453:
000454: 27,3161           65215        TFFXTEST           DAD      PDDL                                  #  (ABS(DEN) TO PDL+2))  E:(-3) OR (-16)
000455:                                                                                                  #                        M:(-3) OR (-15)
000456: 27,3162           17363                                    DP(-22)                               #  RESTORE ABS(DEN) TO MPAC
000457: 27,3163           00043                                    TFFX                                  #  NUM  E:(-16) OR (-29)  M:(-15) OR (-27)
000458: 27,3164           53605                           DMP      SR*
000459: 27,3165           00031                                    TFFRTALF                              #  SQRT(ALFA)  E:(10+NA) M:(9+NA)
000460: 27,3166           57201                                    0          -3,2                       #  X2=-NA
000461: 27,3167           77671                           DDV                                            #  C(MPAC) =NUM SQRT(ALFA)       E:(-3) OR (-16)
000462:                                                                                                  #                                M:(-3) OR (-15)
000463:                                                                                                  #  ABS(DEN) FROM PDL+2   E:(-3) OR (-16)
000464:                                                                                                  #                        M:(-3) OR (-15)
000465: 27,3170           40145                           DLOAD    BOV                                   #  (THE DLOAD IS SHARED WITH TFFELL)
000466: 27,3171           00043                                    TFFX                                  #  NUM  E:(-16) OR (-29)  M:(-15) OR (-27)
000467: 27,3172           57253                                    TFFELL                                #  USE EQN FOR DELE GEQ 90, LEQ -90
000468:
000469:                                                                                                  #  OTHERWISE, CONTINUE FOR GENERAL CONIC FOR TFF EQN
000470:
000471: 27,3173           45471                           DDV      STADR
000472:                                                                                                  #  DEN FROM PDL+0        E:(-3) OR (-16)
000473:                                                                                                  #                        M:(-3) OR (-15)
000474: 27,3174           77732                           STORE    TFFTEM                                #  Z SAVE FOR SIGN OF SDELF.
000475:                                                                                                  #  E:(-13) M:(-12)
000476: 27,3175           63406                           PUSH     DSQ                                   #  Z TO PDL+0
000477: 27,3176           41206                           PUSH     DMP                                   #  Z SQ TO PDL+2  E:(-26) M:(-24)
000478: 27,3177           00035                                    TFFNP                                 #  LC P  E:(-38+2NR) M:(-36+2NR)
000479: 27,3200           75261                           SL       SIGN
000480: 27,3201           20206                                    5
000481: 27,3202           00045                                    TFFTEM                                #  AFFIX SIGN FOR SDELF (ENTRY DISPLAY)
000482: 27,3203           14045                           STODL    TFFTEM                                #  P ZSQ  E:(-59+2NR) M:(-55+2NR)
000483:                                                                                                  #  (ARG IS USED IN TFF/TRIG)
000484:                                                                                                  #  ZSQ FROM PDL+2  E:(-26) M:(-24)
000485: 27,3204           41206                           PUSH     DMP                                   #  RESTORE PUSH LOC
000486: 27,3205           00033                                    TFFALFA                               #  ALFA  E:(26-NR) M:(24-NR)
000487: 27,3206           77657                           SL*
000488: 27,3207           20201                                    0,1                                   #  X1=-NR
000489: 27,3210           00043                           STORE    TFFX                                  #  X
000490: 27,3211           41234                           RTB      DMP
000491: 27,3212           57335                                    T(X)                                  #  POLY
000492:                                                                                                  #  ZSQ FROM PDL+2  E:(-26) M:(-24)
000493: 27,3213           44302                           SR2      BDSU                                  #  2 ZSQ T(X)  E:(-29) M:(-27)
000494: 27,3214           00023                                    RTERM                                 #  RTERM  E:(-29) M:(-27)
000495: 27,3215           41215                           DAD      DMP
000496: 27,3216           00015                                    RMAG1                                 #  E:(-29) M:(-27)
000497:                                                                                                  #  Z FROM PDL+0  E:(-13) M:(-12)
000498: 27,3217           51042                           SR3      BPL                                   #  TFF SQRT(MU)  E:(-45) M:(-42)
000499: 27,3220           57241                                    ENDTFF                                #  (NO PUSH UP)
000500: 27,3221           75206                           PUSH     SIGN                                  #  TFF SQRT(MU) TO PDL+0
000501: 27,3222           00017                                    TFFQ1                                 #  Q1 FOR GONEPAST TEST
000502: 27,3223           71244                           BPL      DLOAD                                 #  GONE PAST ?
000503: 27,3224           57245                                    NEGTFF                                #  YES. TFF < 0.
000504: 27,3225           00027                                    TFF1/ALF                              #  1/ALFA  E:(-22-2NA) M:(-20-2NA)
000505: 27,3226           51076                           DCOMP    BPL                                   #  ALFA > 0 ?
000506: 27,3227           57245                                    NEGTFF                                #  NO. TFF IS NEGATIVE.
000507:
000508:                                                                                                  #  CORRECT FOR ORBITAL PERIOD.
000509:
000510: 27,3230           77676                           DCOMP                                          #  YES.  CORRECT FOR ORB PERIOD.
000511: 27,3231           56205                           DMP      DDV
000512: 27,3232           17357                                    PI/16                                 #  2 PI (-5)
000513: 27,3233           00031                                    TFFRTALF                              #  SQRT(ALFA)  E:(10+NA) M:(9+NA)
000514: 27,3234           53657                           SL*      SL*
000515: 27,3235           57602                                    0          -4,2                       #  X2=-NA
000516: 27,3236           57602                                    0          -4,2
000517: 27,3237           43257                           SL*      DAD
000518: 27,3240           57576                                    0,2
000519:                                                                                                  #  TFF SQRT(MU) FROM PDL+0       E:(-45) M:(-42)
000520: 27,3241           40005        ENDTFF             DMP      BOV                                   #  TFF SQRT(MU) IN MPAC          E:(-45) M:(-42)
000521: 27,3242           00037                                    TFF/RTMU                              #  E:(17) M:(14)
000522: 27,3243           57251                                    MAXTFF                                #  SET POSMAX IF OVFL.
000523:
000524: 27,3244           77616        DUMPTFF2           RVQ                                            #  RETURN TFF (-28) CS IN MPAC.
000525:
000526: 27,3245           77745        NEGTFF             DLOAD
000527:                                                                                                  #  TFF SQRT(MU) FROM PDL+0, NEGATIVE.
000528: 27,3246           77650                           GOTO
000529: 27,3247           57241                                    ENDTFF
000530:
000531: 27,3250           77745        MAXTFF1            DLOAD                                          #  RESET PDL
000532: 27,3251           43545        MAXTFF             DLOAD    RVQ
000533: 27,3252           17373                                    NEARONE
000534:
000535:                                                                                                  #  TIME OF FLIGHT ELLIPSE WHEN DEL (ECCENTRIC ANOM) GEQ 90 AND LEQ -90.
000536:
000537:                                                                                                  #  NUM FROM TFFX.        E:(-16) OR (-29)
000538:                                                                                                  #                        M:(-15) OR (-27)
000539: 27,3253           77712        TFFELL             SL2                                            #  NUM  E:(-14) OR (-27)  M:(-13) OR (-25)
000540: 27,3254           41465                           BDDV     PUSH                                  #  TEMP SAVE D/N IN PDL+0
000541:                                                                                                  #  DEN FROM PDL+0  E:(-3)/( 16)  M:(-3)/(-15)
000542:                                                                                                  #  N/D TO PDL+0  E:(11) M:(10)
000543: 27,3255           45345        TFFEL1             DLOAD    DSU                                   #  (ENTER WITH D/N=0 IN PDL+0)
000544: 27,3256           00045                                    TFFTEM                                #  Q2  E:(-16) M:(-15)
000545: 27,3257           00017                                    TFFQ1                                 #  Q1  E:(-16) M:(-15)
000546: 27,3260           14013                           STODL    TFFDELQ                               #  Q2-Q1  E:(-16) M:(-15)
000547:                                                                                                  #  D/N FROM PDL+0
000548: 27,3261           77626                           STADR
000549: 27,3262           77732                           STORE    TFFTEM                                #  D/N  E:(11) M:(10)
000550: 27,3263           53605                           DMP      SL*
000551: 27,3264           00027                                    TFF1/ALF                              #  1/ALFA  E:(-22-2NA) M:(-20-2NA)
000552: 27,3265           57576                                    0,2                                   #  1/ALFA Z  E:(-11-NA) M:(-10-NA)
000553: 27,3266           41206                           PUSH     DMP                                   #  TO PDL+0
000554: 27,3267           00045                                    TFFTEM                                #  1/Z  E:(11) M:(10)
000555: 27,3270           41057                           SL*      BOVB
000556: 27,3271           57576                                    0,2                                   #  X2= -NA
000557: 27,3272           45712                                    SIGNMPAC                              #  IN CASE X= 1.0, CONTINUE
000558: 27,3273           00043                           STORE    TFFX                                  #  X=1/ALFA ZSQ
000559: 27,3274           41234                           RTB      DMP
000560: 27,3275           57335                                    T(X)                                  #  POLY
000561: 27,3276           00043                                    TFFX
000562: 27,3277           45242                           SR3      DSU
000563: 27,3300           17365                                    DP2(-3)
000564: 27,3301           41405                           DMP      PUSH                                  #  2(X T(X)-1) /Z ALFA   E:(-15-NA)
000565:                                                                                                  #                        M:(-14-NA)
000566:                                                                                                  #  1/ALFA Z FROM PDL+0   E:(-11-NA)
000567:                                                                                                  #                        M:(-10-NA)
000568: 27,3302           41345                           DLOAD    DMP                                   #  GET SIGN FOR SDELF
000569: 27,3303           00045                                    TFFTEM                                #  1/Z  E:(11) M:(10)
000570: 27,3304           00015                                    RMAG1                                 #  E:(-29) M:(-27)
000571: 27,3305           43312                           SL2      DAD
000572: 27,3306           00017                                    TFFQ1                                 #  Q1  E:(-16) M:(-15)
000573: 27,3307           14045                           STODL    TFFTEM                                #  (Q1+R 1/Z) =SGN OF SDELF  E:(-16) M:(-15
000574: 27,3310           00035                                    TFFNP                                 #  LC P  E:(-38+2NR) M:(-36+2NR)
000575: 27,3311           53605                           DMP      SL*                                   #  CALC FOR ARG FOR TFF/TRIG.
000576: 27,3312           00027                                    TFF1/ALF                              #  1/ALFA  E:(-22-2NA) M:(-20-2NA)
000577: 27,3313           57575                                    1,2                                   #  X2=-NA
000578: 27,3314           53765                           SIGN     SL*
000579: 27,3315           00045                                    TFFTEM                                #  AFFIX SIGN FOR SDELF
000580: 27,3316           57576                                    0,2
000581: 27,3317           14045                           STODL    TFFTEM                                #  P/ALFA  E:(-59+2NR) M:(-55+2NR)
000582:                                                                                                  #  (ARG FOR USE IN TFF/TRIG)
000583: 27,3320           00027                                    TFF1/ALF                              #  1/ALFA  E:(-22-2NA) M:(-20-2NA)
000584: 27,3321           41366                           SQRT     DMP
000585: 27,3322           17357                                    PI/16                                 #  PI (-4)
000586: 27,3323           77615                           DAD
000587:                                                                                                  #  2(XT(X)-1)/Z ALFA FROM PDL    E:(-15-NA)
000588:                                                                                                  #                                M:(-14-NA)
000589: 27,3324           45257                           SL*      DSU
000590: 27,3325           57577                                    0          -1,2
000591: 27,3326           00013                                    TFFDELQ                               #  Q2-Q1  E:(-16) M:(-15)
000592: 27,3327           53605                           DMP      SL*
000593: 27,3330           00027                                    TFF1/ALF                              #  1/ALFA  E:(-22-2NA) M:(-20-2NA)
000594: 27,3331           57601                                    0          -3,2
000595: 27,3332           52057                           SL*      GOTO
000596: 27,3333           57602                                    0          -4,2
000597: 27,3334           57241                                    ENDTFF                                #  TFF SQRT(MU) IN MPAC E:(-45) M:(-42)
000598:
000599:                                                                                                  #  PROGRAM NAME:  T(X)                           DATE:  01.17.67
000600:                                                                                                  #  MOD NO:  0                                    LOG SECTION:  TIME OF FREE FALL
000601:                                                                                                  #  MOD BY:  RR BAIRNSFATHER
000602:
000603:                                                                                                  #  FUNCTIONAL DESCRIPTION:  THE POLYNOMIAL T(X) IS USED BY TIME OF FLIGHT SUBROUTINES CALCTFF AND
000604:                                                                                                  #        CALCTPER TO APPROXIMATE THE SERIES
000605:                                                                                                  #                           2     3
000606:                                                                                                  #                1/3 -X/5 +X /7 -X /9 ...
000607:
000608:                                                                                                  #        WHERE   X = ALFA Z Z            IF ALFA Z Z LEQ 1
000609:                                                                                                  #                X = 1/(ALFA Z Z)        IF ALFA Z Z G 1
000610:
000611:                                                                                                  #        ALSO    X IS NEG FOR HYPERBOLIC ORBITS
000612:                                                                                                  #                X = 0 FOR PARABOLIC ORBITS
000613:                                                                                                  #                X IS POSITIVE FOR ELLIPTIC ORBITS
000614:
000615:                                                                                                  #        FOR FLIGHT 278, THE POLYNOMIAL T(X) IS FITTED OVER THE RANGE (0,+1) AND HAS A MAXIMUM
000616:                                                                                                  #        DEVIATION FROM THE SERIES OF 2 E-5       (T(X) IS A CHEBYCHEV TYPE FIT AND WAS OBTAINED USING
000617:                                                                                                  #        MAC PROGRAM AUTCURFIT294RRB AND IS VALID TO THE SAME TOLERANCE OVER THE RANGE (-.08,+1).)
000618:
000619:                                                                                                  #  CALLING SEQUENCE:     RTB
000620:                                                                                                  #                                T(X)
000621:                                                                                                  #        C(MPAC) = X
000622:
000623:                                                                                                  #  SUBROUTINES CALLED:  NONE
000624:
000625:                                                                                                  #  NORMAL EXIT MODE:  TC DANZIG
000626:
000627:                                                                                                  #  ALARMS:  NONE
000628:
000629:                                                                                                  #  OUTPUT:  C(MPAC) = T(X)
000630:
000631:                                                                                                  #  ERASABLE INITIALIZATION REQUIRED:
000632:                                                                                                  #        C(MPAC) = X
000633:
000634:                                                                                                  #  DEBRIS:  NONE
000635:
000636: 27,3335           07171        T(X)               TC       POLY
000637: 27,3336           00004                           DEC      4          B-14                       #  N-1
000638: 27,3337           12525 12525                     2DEC     3.333333333 E-1
000639: 27,3341           71463 57703                     2DEC*    -1.999819135 E-1*
000640: 27,3343           04423 17645                     2DEC*    1.418148467 E-1*
000641: 27,3345           74604 43667                     2DEC*    -1.01310997 E-1*
000642: 27,3347           01626 37256                     2DEC*    5.609004986 E-2*
000643: 27,3351           77404 52071                     2DEC*    -1.536156925 E-2*
000644:
000645: 27,3353           06030        ENDT(X)            TC       DANZIG
000646:
000647: 27,3354  27,3353               TCDANZIG           =        ENDT(X)
000648:
000649:                                                                                                  #  TFF CONSTANTS
000650:
000651: 32,3770                                           BANK     32
000652:
000653: 27,2000                                           SETLOC   TOF-FF1
000654: 27,2000                                           BANK
000655:
000656:                                                                                                  #                                                NOTE _  NOTE _ ADJUSTED MUE FOR NEAR EARTH TRAJ.
000657:                                                                                                  # MUE            =       3.990815471 E10         M CUBE/CS SQ
000658:                                                                                                  # RTMUE          =       1.997702549 E5 B-18*    MODIFIED EARTH MU
000659:
000660: 27,3354           24775 30424  1/RTMU             2DEC*    .5005750271 E-5        B17*            #  MODIFIED EARTH MU
000661:
000662:                                                                                                  #                                                NOTE _  NOTE _ ADJUSTED MUE FOR NEAR EARTH TRAJ.
000663:                                                                                                  # MUM            =       4.902778 E8             M CUBE/CS SQ
000664:                                                                                                  # RTMUM          2DEC*   2.21422176 E4 B-18*
000665: 27,3356           06220 37553  PI/16              2DEC     3.141592653 B-4
000666: 27,3360           37777 37700  LIM(-22)           2OCT     3777737700                            #  1.0 -B(-22)
000667: 27,3362           00000 00100  DP(-22)            2OCT     0000000100                            #  B(-22)
000668: 27,3364           04000 00000  DP2(-3)            2DEC     1          B-3
000669: 27,3366           02000 00000  DP2(-4)            2DEC     1          B-4                        #  1/16
000670:
000671:                                                                                                  #  RPAD1         2DEC    6373338 B-29            M (-29) = 20909901.57 FT
000672: 27,3370  22,3151               RPAD1              =        RPAD
000673:
000674: 27,3370           00305 11205  R300K              2DEC     6464778    B-29                       #  (-29) M
000675: 27,3372           37777 37777  NEARONE            2DEC     .999999999
000676: 27,3374  26,3333               TFFZEROS           EQUALS   HI6ZEROS
000677: 27,3374  26,3323               TFF1/4             EQUALS   HIDP1/4

End of include-file TIME_OF_FREE_FALL.agc.  Parent file is MAIN.agc


