
Source Code


000002:                                                                                                  ## Copyright:   Public domain.
000003:                                                                                                  ## Filename:    TVCDAPS.agc
000004:                                                                                                  ## Purpose:     A section of Comanche revision 067.
000005:                                                                                                  ##              It is part of the reconstructed source code for the flight
000006:                                                                                                  ##              software for the Command Module's (CM) Apollo Guidance Computer
000007:                                                                                                  ##              (AGC) for Apollo 12. No original listings of this program are
000008:                                                                                                  ##              available; instead, this file was created via dissassembly of
000009:                                                                                                  ##              dumps of Comanche 067 core rope modules and comparison with
000010:                                                                                                  ##              other AGC programs.
000011:                                                                                                  ## Assembler:   yaYUL
000012:                                                                                                  ## Contact:     Ron Burkey <info@sandroid.org>.
000013:                                                                                                  ## Website:     www.ibiblio.org/apollo/index.html
000014:                                                                                                  ## Mod history: 2023-08-16 MAS  Created from Comanche 055.
000015:                                                                                                  ##              2024-05-13 MAS  Updated for Comanche 067.
000016:
000017:                                                                                                  #  PROGRAM NAME....TVCDAP, CONSISTING OF PITCHDAP, YAWDAP, ETC.
000018:                                                                                                  #  LOG SECTION...TVCDAPS                 SUBROUTINE...DAPCSM
000019:                                                                                                  #  MODIFIED BY SCHLUNDT                          21 OCTOBER 1968
000020:
000021:                                                                                                  #  FUNCTIONAL DESCRIPTION....
000022:
000023:                                                                                                  #        SELF-PERPETUATING T5 TASKS WHICH GENERATE THE COMMAND SIGNALS
000024:                                                                                                  #        FOR THE PITCH AND YAW SPS GIMBAL ACTUATORS DURING TVC (SPS) BURNS,
000025:                                                                                                  #        IN RESPONSE TO BODY-AXIS RATE COMMANDS FROM CROSS-PRODUCT STEERING
000026:                                                                                                  #        (S40.8).  IF NO STEERING (IMPULSIVE BURNS) MAINTAINS ATTITUDE-HOLD
000027:                                                                                                  #        ABOUT THE REFERENCE (INITIAL) DIRECTIONS (ZERO RATE COMMANDS).
000028:
000029:                                                                                                  #        THE PITCH AND YAW LOOPS ARE SEPARATE, BUT STRUCTURED IDENTICALLY.
000030:                                                                                                  #        EACH ATTITUDE-RATE LOOP INCLUDES GIMBAL ANGLE RATE DERIVATION,
000031:                                                                                                  #        GIMBAL/BODY AXIS TRANSFORMATION, BODY-AXIS ATTITUDE ERROR
000032:                                                                                                  #        INTEGRATION WITH ERROR LIMITING, THE GENERALIZED 6TH-ORDER FILTER
000033:                                                                                                  #        FOR CSM OR CSM/LM OPERATION, A FILTER OUTPUT LIMITER,
000034:                                                                                                  #        CG-OFFSET TRACKER FILTER, AND THE CG-TRACKER MINOR LOOP.
000035:
000036:                                                                                                  #        THE DAPS ARE CYCLIC, CALLING EACH OTHER AT 1/2 THE DAP SAMPLE
000037:                                                                                                  #        TIME, AS DETERMINED BY T5TVCDT.  THE ACTUATOR COMMANDS ARE
000038:                                                                                                  #        REGENERATED AS ANALOG VOLTAGES BY THE OPTICS ERROR COUNTERS, WHICH
000039:                                                                                                  #        TRANSMIT THE SIGNAL TO THE ACTUATOR SERVOS WHEN THERE IS PROPER CDU
000040:                                                                                                  #        MODING.
000041:
000042:                                                                                                  #  CALLING SEQUENCE.... (TYPICALLY)
000043:
000044:                                                                                                  #        T5 CALL OF TVCDAPON (TVCINITIALIZE) BY DOTVCON (P40)
000045:                                                                                                  #        T5 CALL OF DAPINIT (TVCDAPS) BY TVCINIT4 (TVCINITIALIZE)
000046:                                                                                                  #        T5 CALL OF PITCHDAP BY DAPINIT
000047:                                                                                                  #        T5 CALL OF YAWDAP BY PITCHDAP
000048:                                                                                                  #        T5 CALL OF PITCHDAP BY YAWDAP
000049:                                                                                                  #                ETC.
000050:                                                                                                  #        (AUTOMATIC SEQUENCING FROM TVCDAPON)
000051:
000052:                                                                                                  #  NORMAL EXIT MODE....RESUME
000053:
000054:                                                                                                  #  ALARM OR ABORT EXIT MODES....NONE
000055:
000056:                                                                                                  #  SUBROUTINES CALLED....
000057:
000058:                                                                                                  #        HACK FOR STROKE TEST (V68) WAVEFORM GENERATION
000059:                                                                                                  #        PCOPY, YCOPY FOR COPY-CYCLES (USED ALSO BY TVC RESTART PACKAGE)
000060:                                                                                                  #        DAPINIT FOR INITIAL CDUS FOR RATE MEASUREMENTS
000061:                                                                                                  #        ERRORLIM, ACTLIM FOR INPUT (ATTITUDE-ERROR INTEGRATION) AND
000062:                                                                                                  #                OUTPUT (ACTUATOR COMMAND) LIMITING, COMMON TO PITCH AND
000063:                                                                                                  #                YAW DAPS
000064:                                                                                                  #        FWDFLTR (INCLUDING OPTVARK) AND PRECOMP, TO COMPUTE FILTER
000065:                                                                                                  #                OUTPUTS AND STORAGE VALUES
000066:                                                                                                  #        RESUME
000067:
000068:                                                                                                  #  OTHER INTERFACES....
000069:
000070:                                                                                                  #        S40.8 CROSS-PRODUCT STEERING FOR BODY AXIS RATE COMMANDS OMEGAY,ZC
000071:                                                                                                  #        S40.15 FOR THE INITIAL DAP GAINS VARK AND 1/CONACC
000072:                                                                                                  #        TVCEXECUTIVE FOR DAP GAIN UPDATES AND TMC LOOP OPERATIONS
000073:                                                                                                  #        TVCRESTART PACKAGE FOR TVC RESTART PROTECTION.
000074:
000075:                                                                                                  #  ERASABLE INITIALIZATION REQUIRED....
000076:
000077:                                                                                                  #        PAD-LOAD ERASABLES (SEE ERASABLE ASSIGNMENTS)
000078:                                                                                                  #        CONFIGURATION BITS (14, 13) OF DAPDATR1 AS IN R03
000079:                                                                                                  #        ENGINE-ON BIT (11.13) FOR RESTARTS
000080:                                                                                                  #        TVCPHASE FOR RESTARTS (SEE DOTVCON, AND TVCINIT4)
000081:                                                                                                  #        T5 BITS (15,14 OF FLAGWRD6) FOR RESTARTS
000082:                                                                                                  #        MISCELLANEOUS VARIABLES SET UP OR COMPUTED BY TVCDAPON....TVCINIT4,
000083:                                                                                                  #                INCLUDING THE ZEROING OF TEMPORARIES BY MRCLEAN
000084:                                                                                                  #        CDUX,Y,Z AND SINCDUX.... COSCDUZ AS PREPARED BY QUICTRIG (WITH
000085:                                                                                                  #                UPDATES EVERY 1/2 SECOND)
000086:                                                                                                  #        ALSO G+N PRIMARY, TVC ENABLE, AND OPTICS ERROR COUNTER ENABLE
000087:                                                                                                  #                UNLESS BENCH-TESTING.
000088:
000089:                                                                                                  #  OUTPUT....
000090:
000091:                                                                                                  #        TVCPITCH AND TVCYAW WITH COUNTER RELEASE (11.14 AND 11.13 INCREMEN-
000092:                                                                                                  #                TAL COMMANDS TO OPTICS ERROR COUNTERS), FILTER NODES, BODY-
000093:                                                                                                  #                AXIS ATTITUDE ERROR INTEGRATOR, TOTAL ACTUATOR COMMANDS,
000094:                                                                                                  #                OFFSET-TRACKER-FILTER OUTPUTS, ETC.
000095:
000096:                                                                                                  #  DEBRIS....
000097:
000098:                                                                                                  #        MUCH, SHAREABLE WITH RCS/ENTRY, IN EBANK6 ONLY
000099:
000100: 17,2610                                           BANK     17
000101: 20,2000                                           SETLOC   DAPS2
000102: 20,2000                                           BANK
000103:
000104: 20,2547  E6,1704                                  EBANK=   BZERO
000105:
000106: 20,2547                                           COUNT*   $$/DAPS
000107:
000108:                                                                                                  #  PITCH TVCDAP STARTS HERE....(INCORPORATES CSM/LEM DAP FILTER, MODOR DESIGN)
000109:
000110: 20,2547           22016        PITCHDAP           LXCH     BANKRUPT                              #  T5 ENTRY, NORMAL OR VIA DAPINIT
000111: 20,2550           00006                           EXTEND
000112: 20,2551           22012                           QXCH     QRUPT
000113:
000114: 20,2552           33534                           CAF      YAWT5                                 #  SET UP T5 CALL FOR YAW AUTOPILOT (LOW-
000115: 20,2553           55312                           TS       T5LOC                                 #        ORDER PART OF 2CADR ALREADY THERE)
000116: 20,2554           31625                           CAE      T5TVCDT
000117: 20,2555           54030                           TS       TIME5
000118:
000119: 20,2556           11574        PSTROKER           CCS      STROKER                               #  (STRKFLG) CHECK FOR STROKE TEST
000120: 20,2557           03572                           TC       HACK                                  #  TEST-START OR TEST-IN-PROGRESS
000121: 20,2560           12562                           TCF      +2                                    #  NO-TEST
000122: 20,2561           03572                           TC       HACK                                  #  TEST-IN-PROGRESS
000123:
000124: 20,2562           30033        PCDUDOTS           CAE      CDUY                                  #  COMPUTE CDUYDOT (USED BY PITCH AND YAW)
000125: 20,2563           57645                           XCH      PCDUYPST
000126: 20,2564           00006                           EXTEND
000127: 20,2565           21645                           MSU      PCDUYPST
000128: 20,2566           02577                           TCR      RLIMTEST                              #        RATE TEST
000129: 20,2567           55651                           TS       MCDUYDOT                              #        (MINUS, SC.AT 1/2TVCDT REVS/SEC)
000130:
000131: 20,2570           30034                           CAE      CDUZ                                  #  COMPUTE CDUZDOT (USED BY PITCH AND YAW)
000132: 20,2571           57646                           XCH      PCDUZPST
000133: 20,2572           00006                           EXTEND
000134: 20,2573           21646                           MSU      PCDUZPST
000135: 20,2574           02577                           TCR      RLIMTEST                              #        RATE TEST
000136: 20,2575           55652                           TS       MCDUZDOT                              #        (MINUS, SC.AT 1/2TVCDT REVS/SEC)
000137: 20,2576           12610                           TCF      PINTEGRL
000138:
000139: 20,2577           55611        RLIMTEST           TS       TTMP1                                 #  TEST FOR EXCESSIVE CDU RATES (GREATER
000140: 20,2600           00006                           EXTEND                                         #        THAN 2.33 DEG IN ONE SAMPLE PERIOD)
000141: 20,2601           73535                           MP       1/RTLIM
000142: 20,2602           00006                           EXTEND
000143: 20,2603           12606                           BZF      +3
000144: 20,2604           35035                           CAF      ZERO
000145: 20,2605           55611                           TS       TTMP1
000146: 20,2606           31611                           CAE      TTMP1
000147: 20,2607           00002                           TC       Q
000148:
000149: 20,2610           00006        PINTEGRL           EXTEND                                         #  COMPUTE INTEGRAL OF BODY-AXIS PITCH-RATE
000150: 20,2611           31576                           DCA      PERRB                                 #        ERROR, SC.AT B-1 REVS
000151: 20,2612           53705                           DXCH     ERRBTMP
000152:
000153: 20,2613           00006                           EXTEND
000154: 20,2614           31530                           DCA      OMEGAYC
000155: 20,2615           21705                           DAS      ERRBTMP
000156:
000157: 20,2616           40746                           CS       COSCDUZ                               #  PREPARE BODY-AXIS PITCH RATE, OMEGAYB
000158: 20,2617           00006                           EXTEND
000159: 20,2620           70750                           MP       COSCDUX
000160: 20,2621           20001                           DDOUBL
000161: 20,2622           00006                           EXTEND
000162: 20,2623           71651                           MP       MCDUYDOT
000163: 20,2624           20001                           DDOUBL
000164: 20,2625           53536                           DXCH     OMEGAYB
000165:
000166: 20,2626           41652                           CS       MCDUZDOT
000167: 20,2627           00006                           EXTEND
000168: 20,2630           70742                           MP       SINCDUX
000169: 20,2631           20001                           DDOUBL
000170: 20,2632           21536                           DAS      OMEGAYB                               #  (COMPLETED OMEGAYB, SC.AT 1/2TVCDT REVS)
000171:
000172: 20,2633           00006                           EXTEND                                         #  PICK UP -OMEGAYB (SIGN CHNG, INTEGRATE)
000173: 20,2634           41536                           DCS      OMEGAYB
000174: 20,2635           21705                           DAS      ERRBTMP
000175:
000176: 20,2636           03161        PERORLIM           TCR      ERRORLIM                              #  PITCH BODY-AXIS-ERROR INPUT LIMITER
000177:
000178: 20,2637           00006        PFORWARD           EXTEND                                         #        PREPARE THE FILTER STORAGE LOCATIONS
000179: 20,2640           31542                           DCA      PTMP1                                 #        FOR THE PITCH CHANNEL
000180: 20,2641           53711                           DXCH     TMP1
000181: 20,2642           00006                           EXTEND
000182: 20,2643           31546                           DCA      PTMP3
000183: 20,2644           53715                           DXCH     TMP3
000184: 20,2645           00006                           EXTEND
000185: 20,2646           31552                           DCA      PTMP5
000186: 20,2647           53721                           DXCH     TMP5
000187:
000188: 20,2650           03213                           TCR      FWDFLTR                               #  GO COMPUTE PRESENT OUTPUT
000189:                                                                                                  #  (INCLUDES VARIABLE GAIN PACKAGE)
000190:
000191: 20,2651           00006        POFFSET            EXTEND
000192: 20,2652           31606                           DCA      PDELOFF
000193: 20,2653           21707                           DAS      CMDTMP                                #  NOW SCALED AT B+0 ASCREV
000194:
000195: 20,2654           03174        PACLIM             TCR      ACTLIM                                #  ROUND OFF & LIMIT PITCH ACTUATOR COMMAND
000196:
000197: 20,2655           41623        POUT               CS       PCMD                                  #  INCREMENTAL PITCH COMMAND
000198: 20,2656           61706                           AD       CMDTMP
000199: 20,2657           26054                           ADS      TVCPITCH                              #  UPDATE THE ERROR COUNTER (NO RESTART-
000200:                                                                                                  #        PROTECT, SINCE ERROR CNTR ZEROED)
000201:
000202: 20,2660           35021                           CAF      BIT11                                 #  BIT FOR TVCPITCH COUNT RELEASE
000203: 20,2661           00006                           EXTEND
000204: 20,2662           05014                           WOR      CHAN14
000205:
000206: 20,2663           00006        PPRECOMP           EXTEND                                         #        PREPARE THE FILTER STORAGE FOR PITCH
000207: 20,2664           31544                           DCA      PTMP2
000208: 20,2665           53713                           DXCH     TMP2
000209: 20,2666           00006                           EXTEND
000210: 20,2667           31550                           DCA      PTMP4
000211: 20,2670           53717                           DXCH     TMP4
000212: 20,2671           00006                           EXTEND
000213: 20,2672           31554                           DCA      PTMP6
000214: 20,2673           53723                           DXCH     TMP6
000215:
000216: 20,2674           03306                           TCR      PRECOMP                               #      TO THE FILTER FOR PRECOMPUTATION
000217:
000218: 20,2675           31602        DELBARP            CAE      DELPBAR    +1                         #  UPDATE PITCH OFFSET-TRACKER-FILTER
000219: 20,2676           00006                           EXTEND
000220: 20,2677           73537                           MP       E(-AT)
000221: 20,2700           55703                           TS       DELBRTMP   +1
000222: 20,2701           31601                           CAE      DELPBAR
000223: 20,2702           00006                           EXTEND
000224: 20,2703           73537                           MP       E(-AT)
000225: 20,2704           21703                           DAS      DELBRTMP
000226: 20,2705           31706                           CAE      CMDTMP
000227: 20,2706           00006                           EXTEND
000228: 20,2707           73536                           MP       1-E(-AT)
000229: 20,2710           21703                           DAS      DELBRTMP
000230:
000231: 20,2711           02713        PCOPYCYC           TCR      PCOPY                                 #  PITCH COPYCYCLE
000232:
000233: 20,2712           15347        PDAPEND            TCF      RESUME                                #  PITCH DAP COMPLETED
000234:                                                                                                  #  PITCH TVCDAP COPYCYCLE SUBROUTINE (CALLED VIA PITCH TVCDAP OR TVC RESTART PACKAGE)
000235:
000236: 20,2713           25644        PCOPY              INCR     TVCPHASE                              #  RESTART-PROTECT THE COPYCYCLE.        (1)
000237:                                                                                                  #        NOTE POSSIBLE RE-ENTRY FROM RESTART
000238:                                                                                                  #        PACKAGE, SHOULD A RESTART OCCUR
000239:                                                                                                  #        DURING PITCH COPYCYCLE.
000240:
000241: 20,2714           00006                           EXTEND
000242: 20,2715           31711                           DCA      TMP1
000243: 20,2716           53542                           DXCH     PTMP1
000244: 20,2717           00006                           EXTEND
000245: 20,2720           31713                           DCA      TMP2
000246: 20,2721           53544                           DXCH     PTMP2
000247: 20,2722           00006                           EXTEND
000248: 20,2723           31715                           DCA      TMP3
000249: 20,2724           53546                           DXCH     PTMP3
000250: 20,2725           00006                           EXTEND
000251: 20,2726           31717                           DCA      TMP4
000252: 20,2727           53550                           DXCH     PTMP4
000253: 20,2730           00006                           EXTEND
000254: 20,2731           31721                           DCA      TMP5
000255: 20,2732           53552                           DXCH     PTMP5
000256: 20,2733           00006                           EXTEND
000257: 20,2734           31723                           DCA      TMP6
000258: 20,2735           53554                           DXCH     PTMP6
000259:
000260: 20,2736           00006        PMISC              EXTEND                                         #  MISC....PITCH-RATE-ERROR INTEGRATOR
000261: 20,2737           31705                           DCA      ERRBTMP
000262: 20,2740           55477                           TS       AK1                                   #        FOR PITCH NEEDLES, SC.AT B-1 REVS
000263: 20,2741           53576                           DXCH     PERRB
000264:
000265: 20,2742           31706                           CAE      CMDTMP                                #        PITCH ACTUATOR COMMAND
000266: 20,2743           55623                           TS       PCMD
000267:
000268: 20,2744           00006                           EXTEND                                         #        PITCH OFFSET-TRACKER-FILTER
000269: 20,2745           31703                           DCA      DELBRTMP
000270: 20,2746           53602                           DXCH     DELPBAR
000271:
000272: 20,2747           25644                           INCR     TVCPHASE                              #  PITCH COPYCYCLE COMPLETED             (2)
000273:
000274: 20,2750           00002                           TC       Q
000275:
000276:                                                                                                  #  YAW TVCDAP STARTS HERE....(INCORPORATES CSM/LEM DAP FILTER, MODOR DESIGN)
000277:
000278: 20,2751           22016        YAWDAP             LXCH     BANKRUPT                              #  T5 ENTRY, NORMAL
000279: 20,2752           00006                           EXTEND
000280: 20,2753           22012                           QXCH     QRUPT
000281:
000282: 20,2754           33532                           CAF      PITCHT5                               #  SET UP T5 CALL FOR PITCH AUTOPILOT (LOW-
000283: 20,2755           55312                           TS       T5LOC                                 #        ORDER PART OF 2CADR ALREADY THERE)
000284: 20,2756           31625                           CAE      T5TVCDT
000285: 20,2757           54030                           TS       TIME5
000286:
000287: 20,2760           11574        YSTROKER           CCS      STROKER                               #  (STRKFLG) CHECK FOR STROKE TEST
000288: 20,2761           03572                           TC       HACK                                  #  TEST-START OR TEST-IN-PROGRESS
000289: 20,2762           12764                           TCF      +2                                    #  NO-TEST
000290: 20,2763           03572                           TC       HACK                                  #  TEST-IN-PROGRESS
000291:
000292: 20,2764           30033        YCDUDOTS           CAE      CDUY                                  #  COMPUTE CDUYDOT
000293: 20,2765           57647                           XCH      YCDUYPST
000294: 20,2766           00006                           EXTEND
000295: 20,2767           21647                           MSU      YCDUYPST
000296: 20,2770           02577                           TCR      RLIMTEST                              #        RATE TEST
000297: 20,2771           55651                           TS       MCDUYDOT                              #        (MINUS, SCALED 1/2TVCDT REV/SEC)
000298:
000299: 20,2772           30034                           CAE      CDUZ                                  #  COMPUTE CDUZDOT
000300: 20,2773           57650                           XCH      YCDUZPST
000301: 20,2774           00006                           EXTEND
000302: 20,2775           21650                           MSU      YCDUZPST
000303: 20,2776           02577                           TCR      RLIMTEST                              #        RATE TEST
000304: 20,2777           55652                           TS       MCDUZDOT                              #        (MINUS, SCALED 1/2TVCDT REV/SEC)
000305:
000306: 20,3000           00006        YINTEGRL           EXTEND                                         #  COMPUTE INTEGRAL OF BODY-AXIS YAW-RATE
000307: 20,3001           31600                           DCA      YERRB                                 #        ERROR, SC.AT B-1 REVS
000308: 20,3002           53705                           DXCH     ERRBTMP
000309:
000310: 20,3003           00006                           EXTEND
000311: 20,3004           31532                           DCA      OMEGAZC
000312: 20,3005           21705                           DAS      ERRBTMP
000313:
000314: 20,3006           30746                           CAE      COSCDUZ                               #  PREPARE BODY-AXIS YAW-RATE, OMEGAZB
000315: 20,3007           00006                           EXTEND
000316: 20,3010           70742                           MP       SINCDUX
000317: 20,3011           20001                           DDOUBL
000318: 20,3012           00006                           EXTEND
000319: 20,3013           71651                           MP       MCDUYDOT
000320: 20,3014           20001                           DDOUBL
000321: 20,3015           53540                           DXCH     OMEGAZB
000322:
000323: 20,3016           41652                           CS       MCDUZDOT
000324: 20,3017           00006                           EXTEND
000325: 20,3020           70750                           MP       COSCDUX
000326: 20,3021           20001                           DDOUBL
000327: 20,3022           21540                           DAS      OMEGAZB                               #  (COMPLETED OMEGAZB, SC.AT 1/2TVCDT REVS)
000328:
000329: 20,3023           00006                           EXTEND                                         #  PICK UP -OMEGAZB (SIGN CHNG, INTEGRATE)
000330: 20,3024           41540                           DCS      OMEGAZB
000331: 20,3025           21705                           DAS      ERRBTMP
000332:
000333: 20,3026           03161        YERORLIM           TCR      ERRORLIM                              #  YAW BODY-AXIS-ERROR INPUT LIMITER
000334:
000335: 20,3027           00006        YFORWARD           EXTEND                                         #        PREPARE THE FILTER STORAGE LOCATIONS
000336: 20,3030           31556                           DCA      YTMP1                                 #        FOR THE YAW CHANNEL
000337: 20,3031           53711                           DXCH     TMP1
000338: 20,3032           00006                           EXTEND
000339: 20,3033           31562                           DCA      YTMP3
000340: 20,3034           53715                           DXCH     TMP3
000341: 20,3035           00006                           EXTEND
000342: 20,3036           31566                           DCA      YTMP5
000343: 20,3037           53721                           DXCH     TMP5
000344:
000345: 20,3040           03213                           TCR      FWDFLTR                               #  GO COMPUTE PRESENT OUTPUT
000346:                                                                                                  #  (INCLUDES VARIABLE GAIN PACKAGE)
000347:
000348: 20,3041           00006        YOFFSET            EXTEND
000349: 20,3042           31610                           DCA      YDELOFF
000350: 20,3043           21707                           DAS      CMDTMP                                #  NOW SCALED AT B+0 ASCREV
000351:
000352: 20,3044           03174        YACLIM             TCR      ACTLIM                                #  ROUND OFF & LIMIT YAW ACTUATOR COMMAND
000353:
000354: 20,3045           41624        YOUT               CS       YCMD                                  #  INCREMENTAL YAW COMMAND
000355: 20,3046           61706                           AD       CMDTMP
000356: 20,3047           26053                           ADS      TVCYAW                                #  UPDATE THE ERROR COUNTER (NO RESTART-
000357:                                                                                                  #        PROTECT, SINCE ERROR CNTR ZEROED)
000358:
000359: 20,3050           35020                           CAF      BIT12                                 #  BIT FOR TVCYAW COUNT RELEASE
000360: 20,3051           00006                           EXTEND
000361: 20,3052           05014                           WOR      CHAN14
000362:
000363: 20,3053           00006        YPRECOMP           EXTEND                                         #        PREPARE THE FILTER STORAGE FOR YAW
000364: 20,3054           31560                           DCA      YTMP2
000365: 20,3055           53713                           DXCH     TMP2
000366: 20,3056           00006                           EXTEND
000367: 20,3057           31564                           DCA      YTMP4
000368: 20,3060           53717                           DXCH     TMP4
000369: 20,3061           00006                           EXTEND
000370: 20,3062           31570                           DCA      YTMP6
000371: 20,3063           53723                           DXCH     TMP6
000372:
000373: 20,3064           03306                           TCR      PRECOMP                               #        TO THE FILTER FOR PRECOMPUTATION
000374:
000375: 20,3065           31604        DELBARY            CAE      DELYBAR    +1                         #  UPDATE YAW OFFSET-TRACKER-FILTER
000376: 20,3066           00006                           EXTEND
000377: 20,3067           73537                           MP       E(-AT)
000378: 20,3070           55703                           TS       DELBRTMP   +1
000379: 20,3071           31603                           CAE      DELYBAR
000380: 20,3072           00006                           EXTEND
000381: 20,3073           73537                           MP       E(-AT)
000382: 20,3074           21703                           DAS      DELBRTMP
000383: 20,3075           31706                           CAE      CMDTMP
000384: 20,3076           00006                           EXTEND
000385: 20,3077           73536                           MP       1-E(-AT)
000386: 20,3100           21703                           DAS      DELBRTMP
000387:
000388: 20,3101           03103        YCOPYCYC           TCR      YCOPY                                 #  YAW COPYCYCLE
000389:
000390: 20,3102           15347        YDAPEND            TCF      RESUME                                #  YAW DAP COMPLETED
000391:
000392:                                                                                                  #  YAW   TVCDAP COPYCYCLE SUBROUTINE (CALLED VIA YAW   TVCDAP OR TVC RESTART PACKAGE)
000393:
000394: 20,3103           25644        YCOPY              INCR     TVCPHASE                              #  RESTART-PROTECT THE COPYCYCLE.        (3)
000395:                                                                                                  #        NOTE POSSIBLE RE-ENTRY FROM RESTART
000396:                                                                                                  #        PACKAGE, SHOULD A RESTART OCCUR
000397:                                                                                                  #        DURING YAW   COPYCYCLE.
000398:
000399: 20,3104           00006                           EXTEND
000400: 20,3105           31711                           DCA      TMP1
000401: 20,3106           53556                           DXCH     YTMP1
000402: 20,3107           00006                           EXTEND
000403: 20,3110           31713                           DCA      TMP2
000404: 20,3111           53560                           DXCH     YTMP2
000405: 20,3112           00006                           EXTEND
000406: 20,3113           31715                           DCA      TMP3
000407: 20,3114           53562                           DXCH     YTMP3
000408: 20,3115           00006                           EXTEND
000409: 20,3116           31717                           DCA      TMP4
000410: 20,3117           53564                           DXCH     YTMP4
000411: 20,3120           00006                           EXTEND
000412: 20,3121           31721                           DCA      TMP5
000413: 20,3122           53566                           DXCH     YTMP5
000414: 20,3123           00006                           EXTEND
000415: 20,3124           31723                           DCA      TMP6
000416: 20,3125           53570                           DXCH     YTMP6
000417:
000418: 20,3126           00006        YMISC              EXTEND                                         #  MISC....YAW-RATE-ERROR INTEGRATOR
000419: 20,3127           31705                           DCA      ERRBTMP
000420: 20,3130           55500                           TS       AK2                                   #        FOR YAW   NEEDLES, SC.AT B-1 REVS
000421: 20,3131           53600                           DXCH     YERRB
000422:
000423: 20,3132           31706                           CAE      CMDTMP
000424: 20,3133           55624                           TS       YCMD
000425:
000426: 20,3134           00006                           EXTEND
000427: 20,3135           31703                           DCA      DELBRTMP
000428: 20,3136           53604                           DXCH     DELYBAR
000429:
000430: 20,3137           35035                           CAF      ZERO                                  #  YAW   COPYCYCLE COMPLETED
000431: 20,3140           55644                           TS       TVCPHASE                              #        RESET TVCPHASE
000432:
000433: 20,3141           00002                           TC       Q
000434:
000435:                                                                                                  #  SUBROUTINES COMMON TO BOTH PITCH AND YAW DAPS....
000436:
000437:                                                                                                  #  INITIALIZATION PACKAGE FOR CDURATES....
000438:
000439: 20,3142           22016        DAPINIT            LXCH     BANKRUPT                              #  T5 RUPT ENTRY (CALLED BY TVCINT4)
000440:
000441: 20,3143           37716                           CAF      NEGONE                                #        SET UP
000442: 20,3144           61625                           AD       T5TVCDT                               #        T5 CALL FOR PITCHDAP IN TVCDT SECS
000443: 20,3145           65015                           AD       NEGMAX                                #        (T5TVCDT = POSMAX - TVCDT/2 +1)
000444: 20,3146           61625                           AD       T5TVCDT
000445: 20,3147           54030                           TS       TIME5
000446: 20,3150           33532                           CAF      PITCHT5                               #        (BBCON ALREADY THERE)
000447: 20,3151           55312                           TS       T5LOC
000448:
000449: 20,3152           30033                           CAE      CDUY                                  #  READ AND STORE CDUS FOR DIFFERENTIATOR
000450: 20,3153           55645                           TS       PCDUYPST                              #        PAST-VALUES
000451: 20,3154           55647                           TS       YCDUYPST
000452: 20,3155           30034                           CAE      CDUZ
000453: 20,3156           55646                           TS       PCDUZPST
000454: 20,3157           55650                           TS       YCDUZPST
000455:
000456: 20,3160           15351                           TCF      NOQRSM
000457:
000458:                                                                                                  #  BODY-AXIS-ERROR   INPUT LIMITER PACKAGE....
000459:
000460: 20,3161           31704        ERRORLIM           CAE      ERRBTMP                               #  CHECK FOR INPUT-ERROR LIMIT
000461: 20,3162           00006                           EXTEND                                         #        CHECKS UPPER WORD ONLY
000462: 20,3163           75031                           MP       1/ERRLIM
000463: 20,3164           00006                           EXTEND
000464: 20,3165           13173                           BZF      +6
000465: 20,3166           11704                           CCS      ERRBTMP
000466: 20,3167           35017                           CAF      ERRLIM
000467: 20,3170           13172                           TCF      +2
000468: 20,3171           45017                           CS       ERRLIM
000469: 20,3172           55704                           TS       ERRBTMP                               #  LIMIT WRITES OVER UPPER WORD ONLY
000470:
000471: 20,3173           00002                           TC       Q
000472:
000473:                                                                                                  #  ACTUATOR-COMMAND LIMITER PACKAGE....
000474:
000475: 20,3174           31707        ACTLIM             CAE      CMDTMP     +1                         #  ROUND UP FOR OUTPUT
000476: 20,3175           60000                           DOUBLE
000477: 20,3176           54001                           TS       L
000478: 20,3177           35035                           CAF      ZERO
000479: 20,3200           61706                           AD       CMDTMP
000480:
000481: 20,3201           00006                           EXTEND                                         #  CHECK FOR ACTUATOR COMMAND LIMIT
000482: 20,3202           73531                           MP       1/ACTSAT
000483: 20,3203           00006                           EXTEND
000484: 20,3204           13212                           BZF      +6
000485: 20,3205           11706                           CCS      CMDTMP                                #  APPLY LIMITS
000486: 20,3206           33530                           CAF      ACTSAT
000487: 20,3207           13211                           TCF      +2
000488: 20,3210           43530                           CS       ACTSAT
000489: 20,3211           55706                           TS       CMDTMP                                #  LIMITS WRITE OVER CMDTMP
000490:
000491: 20,3212           00002                           TC       Q
000492:
000493:                                                                                                  #  FILTER COMPUTATIONS FOR PRESENT OUTPUT................
000494:
000495: 20,3213           35035        FWDFLTR            CAF      ZERO
000496: 20,3214           55615                           TS       DAP1
000497: 20,3215           55617                           TS       DAP2
000498: 20,3216           55621                           TS       DAP3
000499: 20,3217           55706                           TS       CMDTMP
000500:
000501: 20,3220           55702                           TS       DELBRTMP
000502:
000503: 20,3221           31705        1DAPCAS            CAE      ERRBTMP    +1                         #  FIRST DAP CASCADE
000504: 20,3222           00006                           EXTEND
000505: 20,3223           71725                           MP       N10                                   #        N10
000506: 20,3224           55616                           TS       DAP1       +1
000507: 20,3225           31704                           CA       ERRBTMP
000508: 20,3226           00006                           EXTEND
000509: 20,3227           71725                           MP       N10                                   #        N10
000510: 20,3230           21616                           DAS      DAP1
000511: 20,3231           53711                           DXCH     TMP1
000512: 20,3232           21616                           DAS      DAP1
000513:
000514: 20,3233           31616        2DAPCAS            CAE      DAP1       +1                         #  SECOND DAP CASCADE
000515: 20,3234           00006                           EXTEND
000516: 20,3235           71732                           MP       N10        +5                         #        N20
000517: 20,3236           55620                           TS       DAP2       +1
000518: 20,3237           31615                           CA       DAP1
000519: 20,3240           00006                           EXTEND
000520: 20,3241           71732                           MP       N10        +5                         #        N20
000521: 20,3242           21620                           DAS      DAP2
000522: 20,3243           53715                           DXCH     TMP3
000523: 20,3244           21620                           DAS      DAP2
000524:
000525: 20,3245           31466                           CAE      DAPDATR1                              #  TEST FOR LEM ON OR OFF
000526: 20,3246           75016                           MASK     BIT14
000527: 20,3247           10000                           CCS      A
000528: 20,3250           13257                           TCF      3DAPCAS                               #  LEM ON
000529: 20,3251           00006                           EXTEND                                         #  LEM OFF
000530: 20,3252           31620                           DCA      DAP2
000531: 20,3253           20001                           DDOUBL
000532: 20,3254           20001                           DDOUBL
000533: 20,3255           53622                           DXCH     DAP3
000534: 20,3256           13271                           TCF      OPTVARK
000535:
000536: 20,3257           31620        3DAPCAS            CAE      DAP2       +1                         #  THIRD DAP CASCADE
000537: 20,3260           00006                           EXTEND
000538: 20,3261           71737                           MP       N10        +10D                       #        N30
000539: 20,3262           55622                           TS       DAP3       +1
000540: 20,3263           31617                           CA       DAP2
000541: 20,3264           00006                           EXTEND
000542: 20,3265           71737                           MP       N10        +10D                       #        N30
000543: 20,3266           21622                           DAS      DAP3
000544: 20,3267           53721                           DXCH     TMP5
000545: 20,3270           21622                           DAS      DAP3
000546:
000547: 20,3271           41622        OPTVARK            CS       DAP3       +1                         #  VARIABLE GAIN PACKAGE
000548: 20,3272           00006                           EXTEND                                         #  (ALSO, SIGN CHANGE IN FORWARD LOOP)
000549: 20,3273           71641                           MP       VARK                                  #        SCALED (1.08 B+2)   CSM/LM
000550: 20,3274           55707                           TS       CMDTMP     +1                         #               (  "  B+4)   CSM
000551: 20,3275           55707                           TS       CMDTMP     +1
000552: 20,3276           41621                           CS       DAP3
000553: 20,3277           00006                           EXTEND
000554: 20,3300           71641                           MP       VARK
000555: 20,3301           21707                           DAS      CMDTMP
000556:
000557: 20,3302           53707                           DXCH     CMDTMP                                #  FIX UP SCALING - SCALED B+3 ASCREVS
000558: 20,3303           20001                           DDOUBL
000559: 20,3304           53707                           DXCH     CMDTMP                                #                 - SCALED B+1 ASCREVS
000560:                                                                                                  #  NOTE - THERE IS AN INHERANT GAIN OF
000561:                                                                                                  #  (B+1 ASCREVS) ON THE OUTPUT DACS.
000562:
000563: 20,3305           00002                           TC       Q
000564:
000565:                                                                                                  #  FILTER PRECOMPUTATIONS FOR NEXT PASS...................
000566:
000567: 20,3306           35035        PRECOMP            CAF      ZERO                                  #  ***** FIRST CASCADE FILTER **********
000568: 20,3307           55611                           TS       TTMP1
000569: 20,3310           55613                           TS       TTMP2
000570:
000571: 20,3311           31705                           CA       ERRBTMP    +1                         #  MULTIPLY INPUT BY
000572: 20,3312           00006                           EXTEND
000573: 20,3313           71726                           MP       N10        +1                         #        N11/2
000574: 20,3314           55612                           TS       TTMP1      +1
000575: 20,3315           31704                           CA       ERRBTMP
000576: 20,3316           00006                           EXTEND
000577: 20,3317           71726                           MP       N10        +1                         #        N11/2
000578: 20,3320           21612                           DAS      TTMP1
000579:
000580: 20,3321           41616                           CS       DAP1       +1                         #  MULTIPLY OUTPUT BY
000581: 20,3322           00006                           EXTEND
000582: 20,3323           71730                           MP       N10        +3                         #        D11/2
000583: 20,3324           55614                           TS       TTMP2      +1
000584: 20,3325           41615                           CS       DAP1
000585:
000586: 20,3326           00006                           EXTEND
000587: 20,3327           71730                           MP       N10        +3                         #        D11/2
000588: 20,3330           21614                           DAS      TTMP2
000589:
000590: 20,3331           53614                           DXCH     TTMP2
000591: 20,3332           21612                           DAS      TTMP1
000592: 20,3333           53612                           DXCH     TTMP1
000593: 20,3334           20001                           DDOUBL
000594: 20,3335           21713                           DAS      TMP2
000595:
000596: 20,3336           53713                           DXCH     TMP2
000597: 20,3337           53711                           DXCH     TMP1
000598:
000599: 20,3340           35035                           CAF      ZERO
000600: 20,3341           55611                           TS       TTMP1
000601: 20,3342           55712                           TS       TMP2
000602:
000603: 20,3343           31705                           CA       ERRBTMP    +1                         #  MULTIPLY INPUT BY
000604: 20,3344           00006                           EXTEND                                         #  SECOND-ORDER NUMERATOR COEFF.
000605: 20,3345           71727                           MP       N10        +2                         #        N12
000606: 20,3346           55612                           TS       TTMP1      +1
000607: 20,3347           31704                           CA       ERRBTMP
000608: 20,3350           00006                           EXTEND
000609: 20,3351           71727                           MP       N10        +2                         #        N12
000610: 20,3352           21612                           DAS      TTMP1
000611:
000612: 20,3353           41616                           CS       DAP1       +1                         #  MULTIPLY OUTPUT BY
000613: 20,3354           00006                           EXTEND
000614: 20,3355           71731                           MP       N10        +4                         #        D12
000615: 20,3356           55713                           TS       TMP2       +1
000616: 20,3357           41615                           CS       DAP1
000617: 20,3360           00006                           EXTEND
000618: 20,3361           71731                           MP       N10        +4                         #        D12
000619: 20,3362           21713                           DAS      TMP2
000620:
000621: 20,3363           53612                           DXCH     TTMP1
000622: 20,3364           21713                           DAS      TMP2
000623:
000624: 20,3365           35035        2CASFLTR           CAF      ZERO                                  #  ***** SECOND CASCADE FILTER *****
000625: 20,3366           55611                           TS       TTMP1
000626: 20,3367           55613                           TS       TTMP2
000627:
000628: 20,3370           31616                           CA       DAP1       +1                         #  MULTIPLY INPUT BY
000629: 20,3371           00006                           EXTEND
000630: 20,3372           71733                           MP       N10        +6                         #        N21/2
000631: 20,3373           55612                           TS       TTMP1      +1
000632: 20,3374           31615                           CA       DAP1
000633: 20,3375           00006                           EXTEND
000634: 20,3376           71733                           MP       N10        +6                         #        N21/2
000635: 20,3377           21612                           DAS      TTMP1
000636:
000637: 20,3400           41620                           CS       DAP2       +1                         #  MULTIPLY OUTPUT BY
000638: 20,3401           00006                           EXTEND
000639: 20,3402           71735                           MP       N10        +8D                        #        D21/2
000640: 20,3403           55614                           TS       TTMP2      +1
000641: 20,3404           41617                           CS       DAP2
000642: 20,3405           00006                           EXTEND
000643: 20,3406           71735                           MP       N10        +8D                        #        D21/2
000644: 20,3407           21614                           DAS      TTMP2
000645:
000646: 20,3410           53614                           DXCH     TTMP2
000647: 20,3411           21612                           DAS      TTMP1
000648: 20,3412           53612                           DXCH     TTMP1
000649: 20,3413           20001                           DDOUBL
000650: 20,3414           21717                           DAS      TMP4
000651:
000652: 20,3415           53717                           DXCH     TMP4
000653: 20,3416           53715                           DXCH     TMP3
000654:
000655: 20,3417           35035                           CAF      ZERO
000656: 20,3420           55611                           TS       TTMP1
000657: 20,3421           55716                           TS       TMP4
000658:
000659: 20,3422           31616                           CA       DAP1       +1                         #  MULTIPLY INPUT BY
000660: 20,3423           00006                           EXTEND
000661: 20,3424           71734                           MP       N10        +7                         #        N22
000662: 20,3425           55612                           TS       TTMP1      +1
000663: 20,3426           31615                           CA       DAP1
000664: 20,3427           00006                           EXTEND
000665: 20,3430           71734                           MP       N10        +7                         #        N22
000666: 20,3431           21612                           DAS      TTMP1
000667:
000668: 20,3432           41620                           CS       DAP2       +1                         #  MULTIPLY OUTPUT BY
000669: 20,3433           00006                           EXTEND
000670: 20,3434           71736                           MP       N10        +9D                        #        D22
000671: 20,3435           55717                           TS       TMP4       +1
000672: 20,3436           41617                           CS       DAP2
000673: 20,3437           00006                           EXTEND
000674: 20,3440           71736                           MP       N10        +9D                        #        D22
000675: 20,3441           21717                           DAS      TMP4
000676:
000677: 20,3442           53612                           DXCH     TTMP1
000678: 20,3443           21717                           DAS      TMP4
000679:
000680: 20,3444           31466                           CAE      DAPDATR1                              #  TEST FOR LEM ON OR OFF
000681: 20,3445           75017                           MASK     BIT13
000682: 20,3446           10000                           CCS      A
000683: 20,3447           00002                           TC       Q                                     #  EXIT IF LEM OFF
000684:
000685: 20,3450           35035        3CASFLTR           CAF      ZERO                                  #  ***** THIRD CASCADE FILTER *****
000686: 20,3451           55611                           TS       TTMP1
000687: 20,3452           55613                           TS       TTMP2
000688:
000689: 20,3453           31620                           CA       DAP2       +1                         #  MULTIPLY INPUT BY (1/2)
000690: 20,3454           00006                           EXTEND
000691: 20,3455           71740                           MP       N10        +11D                       #        N31/2
000692: 20,3456           55612                           TS       TTMP1      +1
000693: 20,3457           31617                           CA       DAP2
000694: 20,3460           00006                           EXTEND
000695: 20,3461           71740                           MP       N10        +11D                       #        N31/2
000696: 20,3462           21612                           DAS      TTMP1
000697:
000698: 20,3463           41622                           CS       DAP3       +1
000699: 20,3464           00006                           EXTEND
000700: 20,3465           71742                           MP       N10        +13D                       #        D31/2
000701: 20,3466           55614                           TS       TTMP2      +1
000702: 20,3467           41621                           CS       DAP3
000703: 20,3470           00006                           EXTEND
000704: 20,3471           71742                           MP       N10        +13D                       #        D31/2
000705: 20,3472           21614                           DAS      TTMP2
000706:
000707: 20,3473           53614                           DXCH     TTMP2
000708: 20,3474           21612                           DAS      TTMP1
000709: 20,3475           53612                           DXCH     TTMP1
000710: 20,3476           20001                           DDOUBL
000711: 20,3477           21723                           DAS      TMP6
000712:
000713: 20,3500           53723                           DXCH     TMP6
000714: 20,3501           53721                           DXCH     TMP5
000715:
000716: 20,3502           35035                           CAF      ZERO
000717: 20,3503           55611                           TS       TTMP1
000718: 20,3504           55722                           TS       TMP6
000719:
000720: 20,3505           31620                           CA       DAP2       +1                         #  MULTIPLY INPUT BY
000721: 20,3506           00006                           EXTEND
000722: 20,3507           71741                           MP       N10        +12D                       #        N32
000723: 20,3510           55612                           TS       TTMP1      +1
000724: 20,3511           31617                           CA       DAP2
000725: 20,3512           00006                           EXTEND
000726: 20,3513           71741                           MP       N10        +12D                       #        N32
000727: 20,3514           21612                           DAS      TTMP1
000728:
000729: 20,3515           41622                           CS       DAP3       +1
000730: 20,3516           00006                           EXTEND
000731: 20,3517           71743                           MP       N10        +14D                       #        D32
000732: 20,3520           55723                           TS       TMP6       +1
000733: 20,3521           41621                           CS       DAP3
000734: 20,3522           00006                           EXTEND
000735: 20,3523           71743                           MP       N10        +14D                       #        D32
000736: 20,3524           21723                           DAS      TMP6
000737:
000738: 20,3525           53612                           DXCH     TTMP1
000739: 20,3526           21723                           DAS      TMP6
000740:
000741: 20,3527           00002                           TC       Q
000742:
000743:                                                                                                  #  CONSTANTS FOR AUTOPILOTS
000744:
000745:                                                                                                  #  NOTE....1 ASCREV (ACTUATOR CMD SCALING) = 85.41 ARCSEC/BIT OR 1.07975111 REVS (85.41X16384/3600/360)
000746:                                                                                                  #          1 SPASCREV (SPECIAL ACTUATOR CMD SCALING) = 1.04620942 REVS
000747:
000748: 20,3530           00375        ACTSAT             DEC      253        B-14                       #  ACTUATOR LIMIT (6 DEG), SC.AT 1ASCREV
000749: 20,3531           00101        1/ACTSAT           DEC      .0039525692                            #  RECIPROCAL (1/253)
000750:
000751: 20,3532     5017               ERRLIM             EQUALS   BIT13                                 #  FILTER INPUT LIMIT....B-3 REVS (45DEG),
000752: 20,3532     5031               1/ERRLIM           EQUALS   BIT3                                  #        SC.AT B-1 REV, AND ITS RECIPROCAL
000753:
000754: 20,3532           02547        PITCHT5            GENADR   PITCHDAP                              #  UPPER WORDS OF T5 2CADRS, LOWER WORDS
000755: 20,3533           03142        DAPT5              GENADR   DAPINIT                               #        (BBCON) ALREADY THERE.  ORDER IS
000756: 20,3534           02751        YAWT5              GENADR   YAWDAP                                #        REQUIRED.
000757:
000758: 20,3535           00115        1/RTLIM            DEC      0.004715                              #  .004715(CDUDIF) = 0 IF CDUDIF < 2.33 DEG
000759: 20,3536           00243        1-E(-AT)           OCT      00243                                 #  AT = .01SEC....EITHER(1/A=4SEC, T=40MS),
000760: 20,3537           37535        E(-AT)             OCT      37535                                 #                     OR(1/A=8SEC, T=80MS)
000761:

End of include-file TVCDAPS.agc.  Parent file is MAIN.agc


