
Source Code


000002:                                                                                                  ## Copyright:   Public domain.
000003:                                                                                                  ## Filename:    TVCEXECUTIVE.agc
000004:                                                                                                  ## Purpose:     A section of Comanche revision 067.
000005:                                                                                                  ##              It is part of the reconstructed source code for the flight
000006:                                                                                                  ##              software for the Command Module's (CM) Apollo Guidance Computer
000007:                                                                                                  ##              (AGC) for Apollo 12. No original listings of this program are
000008:                                                                                                  ##              available; instead, this file was created via dissassembly of
000009:                                                                                                  ##              dumps of Comanche 067 core rope modules and comparison with
000010:                                                                                                  ##              other AGC programs.
000011:                                                                                                  ## Assembler:   yaYUL
000012:                                                                                                  ## Contact:     Ron Burkey <info@sandroid.org>.
000013:                                                                                                  ## Website:     www.ibiblio.org/apollo/index.html
000014:                                                                                                  ## Mod history: 2023-08-16 MAS  Created from Comanche 055.
000015:
000016:                                                                                                  #  PROGRAM NAME....      TVCEXECUTIVE, CONSISTING OF TVCEXEC, NEEDLEUP, VARGAINS
000017:                                                                                                  #                        1SHOTCHK, REPCHEK, CG.CORR, COPYCYCLES, ETC.
000018:                                                                                                  #  LOG SECTION...        TVCEXECUTIVE            SUBROUTINE...DAPCSM
000019:                                                                                                  #  MODIFIED BY SCHLUNDT                          21 OCTOBER 1968
000020:
000021:                                                                                                  #  FUNCTIONAL DESCRIPTION....
000022:                                                                                                  #       *A SELF-PERPETUATING WAITLIST TASK AT 1/2 SECOND INTERVALS WHICH:
000023:                                                                                                  #        PREPARES THE ROLL DAP WITH OGA (CDUX)
000024:                                                                                                  #        PREPARES THE ROLL FDAI NEEDLE (FLY-TO  OGA ERROR)
000025:                                                                                                  #        PREPARES THE ROLL PHASE PLANE  OGAERR  (FLY-FROM  OGA ERROR)
000026:                                                                                                  #        PREPARES THE TVC ROLLDAP TASK WAITLIST CALL (3 CS DELAY)
000027:                                                                                                  #        UPDATES THE NEEDLES DISPLAY
000028:                                                                                                  #        UPDATES VEHICLE MASS AND CALLS MASSPROP TO UPDATE INERTIA DATA
000029:                                                                                                  #        UPDATES PITCH, YAW, AND ROLL DAP GAINS FROM MASSPROP DATA
000030:                                                                                                  #        PERFORMS ONE-SHOT CORRECTION FOR TMC LOOP 0-3 SEC AFTER IGNITION
000031:                                                                                                  #        PERFORMS REPETITIVE UPDATES FOR TMC LOOP AFTER THE ONE-SHOT CORR.
000032:
000033:                                                                                                  #  CALLING SEQUENCE....
000034:                                                                                                  #       *TVCEXEC CALLED AS A WAITLIST TASK, IN PARTICULAR BY TVCINIT4 AND BY
000035:                                                                                                  #        ITSELF, BOTH AT 1/2 SECOND INTERVALS
000036:
000037:                                                                                                  #  NORMAL EXIT MODE.... TASKOVER
000038:
000039:                                                                                                  #  ALARM OR ABORT EXIT MODES.... NONE
000040:
000041:                                                                                                  #  SUBROUTINES CALLED....NEEDLER, S40.15, MASSPROP, TASKOVER, IBNKCALL
000042:
000043:                                                                                                  #  OTHER INTERFACES....
000044:                                                                                                  #       *TVCRESTART PACKAGE FOR RESTARTS
000045:                                                                                                  #       *PITCHDAP, YAWDAP FOR VARIABLE GAINS AND ENGINE TRIM ANGLES
000046:
000047:                                                                                                  #  ERASABLE INITIALIZATION REQUIRED....
000048:                                                                                                  #       *SEE TVCDAPON....TVCINIT4
000049:                                                                                                  #       *VARK AND 1/CONACC (S40.15 OF TVCINITIALIZE)
000050:                                                                                                  #       *PAD LOAD EREPFRAC
000051:                                                                                                  #       *BITS 15,14 OF FLAGWRD6 (T5 BITS)
000052:                                                                                                  #       *TVCEXPHS FOR RESTARTS
000053:                                                                                                  #       *ENGINE-ON BIT (11.13) FOR RESTARTS
000054:                                                                                                  #       *CDUX, OGAD
000055:
000056:                                                                                                  #  OUTPUT....
000057:                                                                                                  #       *ROLL DAP OGANOW, FDAI NEEDLE (AK). AND PHASE PLANE OGAERR
000058:                                                                                                  #       *VARIABLE GAINS FOR PITCH/YAW AND ROLL TVC DAPS
000059:                                                                                                  #       *SINGLE-SHOT AND REPETITIVE CORRECTIONS TO ENGINE TRIM ANGLES
000060:                                                                                                  #        PACTOFF AND YACTOFF
000061:
000062:                                                                                                  #  DEBRIS....    MUCH, BUT SHAREABLE WITH RCS/ENTRY, ALL IN EBANK6
000063:
000064: 16,2772                                           BANK     16
000065: 16,2000                                           SETLOC   DAPROLL
000066: 16,2000                                           BANK
000067: 16,2772  E6,1704                                  EBANK=   BZERO
000068: 16,2772                                           COUNT*   $$/TVCX
000069:
000070: 16,2772           40102        TVCEXEC            CS       FLAGWRD6                              #  CHECK FOR TERMINATION (BITS 15,14 READ
000071: 16,2773           74105                           MASK     OCT60000                              #        10 FROM TVCDAPON TO RCSDAPON)
000072: 16,2774           00006                           EXTEND
000073: 16,2775           63206                           BZMF     TVCEXFIN                              #  TERMINATE
000074:
000075: 16,2776           35052                           CAF      .5SEC                                 #  W.L. CALL TO PERPETUATE TVCEXEC
000076: 16,2777           05261                           TC       WAITLIST
000077: 16,3000  E6,1704                                  EBANK=   BZERO
000078: 16,3000           02772 34066                     2CADR    TVCEXEC
000079:
000080: 16,3002           30032        ROLLPREP           CAE      CDUX                                  #  UPDATE ROLL LADDERS (NO NEED TO RESTART-
000081: 16,3003           57664                           XCH      OGANOW                                #        PROTECT, SINCE ROLL DAPS RE-START)
000082: 16,3004           57665                           XCH      OGAPAST
000083:
000084: 16,3005           31450                           CAE      OGAD                                  #  PREPARE ROLL FDAI NEEDLE WITH FLY-TO
000085: 16,3006           00006                           EXTEND                                         #        ERROR (COMMAND - MEASURED)
000086: 16,3007           21664                           MSU      OGANOW
000087: 16,3010           55476                           TS       AK                                    #  FLY-TO OGA ERROR, SC.AT B-1 REVS
000088:
000089: 16,3011           00006                           EXTEND                                         #  PREPARE ROLL DAP PHASE PLANE OGAERR
000090: 16,3012           77705                           MP       -BIT14
000091: 16,3013           55666                           TS       OGAERR                                #  PHASE-PLANE (FLY-FROM) OGAERROR,
000092:                                                                                                  #        SC.AT B+0 REVS
000093:
000094: 16,3014           36214                           CAF      THREE                                 #  SET UP ROLL DAP TASK (ALLOW SOME TIME)
000095: 16,3015           05261                           TC       WAITLIST
000096: 16,3016  E6,1704                                  EBANK=   BZERO
000097: 16,3016           03344 34066                     2CADR    ROLLDAP
000098:
000099: 16,3020           04754        NEEDLEUP           TC       IBNKCALL                              #  DO A NEEDLES UPDATE (RETURNS AFTER CADR)
000100: 16,3021           42432                           CADR     NEEDLER                               #        (NEEDLES RESTARTS ITSELF)
000101:
000102: 16,3022           35017        VARGAINS           CAF      BIT13                                 #  CHECK ENGINE-ON BIT TO INHIBIT VARIABLE
000103: 16,3023           00006                           EXTEND                                         #        GAINS AND MASS IF ENGINE OFF
000104: 16,3024           02011                           RAND     DSALMOUT                              #  CHANNEL 11
000105: 16,3025           10000                           CCS      A
000106: 16,3026           13032                           TCF      +4                                    #        ON, SO OK TO UPDATE GAINS AND MASS
000107: 16,3027           35032                 +5        CAF      TWO                                   #        OFF, SO BYPASS MASS/GAIN UPDATES,
000108: 16,3030           55653                           TS       TVCEXPHS                              #                ALSO ENTRY FROM CCS BELOW WITH
000109: 16,3031           13063                           TCF      1SHOTCHK                              #                VCNTR = -0 (V97 R40 ENGFAIL)
000110: 16,3032           11643                           CCS      VCNTR                                 #        TEST FOR GAIN UPDATE TIME
000111: 16,3033           13037                           TCF      +4                                    #                NOT YET
000112: 16,3034           13043                           TCF      GAINCHNG                              #                NOW
000113: 16,3035           13035                           TCF      +0                                    #                NOT USED
000114: 16,3036           13027                           TCF      VARGAINS   +5                         #                NO, LOTHRUST (S40.8 R40)
000115:
000116: 16,3037           55655                 +4        TS       VCNTRTMP                              #        PROTECT VCNTR AND
000117: 16,3040           31474                           CAE      CSMMASS                               #        CSMMASS DURING AN IMPULSIVE BURN
000118: 16,3041           55654                           TS       MASSTMP
000119: 16,3042           13054                           TCF      EXECCOPY
000120:
000121: 16,3043           04754        GAINCHNG           TC       IBNKCALL                              #  UPDATE IXX, IAVG, IAVG/TLX
000122: 16,3044           13424                           CADR     FIXCW                                 #  MASSPROP ENTRY (ALREADY INITIALIZED)
000123: 16,3045           04754                           TC       IBNKCALL                              #  UPDATE 1/CONACC, VARK
000124: 16,3046           36520                           CADR     S40.15                                #        (S40.15 IS IN TVCINITIALIZE)
000125: 16,3047           41637                           CS       TENMDOT                               #  UPDATE MASS FOR NEXT 10 SEC. OF BURN
000126: 16,3050           61474                           AD       CSMMASS
000127: 16,3051           55654                           TS       MASSTMP                               #  KG B+16
000128:
000129: 16,3052           34374                           CAF      NINETEEN                              #  RESET THE VARIABLE-GAIN UPDATE COUNTER
000130: 16,3053           55655                           TS       VCNTRTMP
000131:
000132: 16,3054           25653        EXECCOPY           INCR     TVCEXPHS                              #  RESTART-PROTECT THE COPYCYCLE         (1)
000133:
000134: 16,3055           31654                           CAE      MASSTMP                               #  CSMMASS KG B+16
000135: 16,3056           55474                           TS       CSMMASS
000136:
000137: 16,3057           31655                           CAE      VCNTRTMP                              #  VCNTR
000138: 16,3060           55643                           TS       VCNTR
000139: 16,3061           55444                           TS       V97VCNTR                              #  FOR ENGFAIL (R41) MASS UPDATES AT SPSOFF
000140:
000141: 16,3062           25653                           INCR     TVCEXPHS                              #  COPYCYCLE OVER                        (2)
000142:
000143: 16,3063           11447        1SHOTCHK           CCS      CNTR                                  #  CHECK TIME FOR ONE-SHOT OR REPCORR
000144: 16,3064           13070                           TCF      +4                                    #        NOT YET
000145: 16,3065           13103                           TCF      1SHOTOK                               #        NOW
000146: 16,3066           13074                           TCF      REPCHEK                               #        ONE-SHOT OVER, ON TO REPCORR
000147: 16,3067           13103                           TCF      1SHOTOK                               #        NOW (ONE-SHOT ONLY, NO REPCORR)
000148:
000149: 16,3070           55700                 +4        TS       CNTRTMP                               #  COUNT DOWN
000150: 16,3071           36211                           CAF      SIX                                   #  SETUP TVCEXPHS FOR ENTRY AT CNTRCOPY
000151: 16,3072           55653                           TS       TVCEXPHS
000152: 16,3073           13204                           TCF      CNTRCOPY
000153:
000154: 16,3074           31642        REPCHEK            CAE      REPFRAC                               #  CHECK FOR REPETITIVE UPDATES
000155: 16,3075           00006                           EXTEND
000156: 16,3076           63206                           BZMF     TVCEXFIN                              #        NO,  OVER-AND-OUT
000157: 16,3077           55446                           TS       TEMPDAP    +1                         #        YES, SET UP CORRECTION FRACTION
000158: 16,3100           35031                           CAF      FOUR                                  #  SET UP TVCEXPHS FOR ENTRY AT CORSETUP
000159: 16,3101           55653                           TS       TVCEXPHS
000160: 16,3102           13115                           TCF      CORSETUP
000161: 16,3103           35017        1SHOTOK            CAF      BIT13                                 #  CHECK ENGINE-ON BIT, NOT PERMITTING
000162: 16,3104           00006                           EXTEND                                         #        ONE-SHOT DURING ENGINE-SHUTDOWN
000163: 16,3105           02011                           RAND     DSALMOUT
000164: 16,3106           10000                           CCS      A
000165: 16,3107           13111                           TCF      +2                                    #        ONE-SHOT OK
000166: 16,3110           13206                           TCF      TVCEXFIN                              #        NO, TERMINATE
000167:
000168: 16,3111           25653                           INCR     TVCEXPHS                              #                                        (3)
000169:
000170: 16,3112           33211        TEMPSET            CAF      FCORFRAC                              #        SET UP CORRECTION FRACTION
000171: 16,3113           55446                           TS       TEMPDAP    +1
000172:
000173: 16,3114           25653                           INCR     TVCEXPHS                              #  ENTRY FROM REPCHEK AT NEXT LOCATION   (4)
000174:
000175: 16,3115           31466        CORSETUP           CAE      DAPDATR1                              #  CHECK FOR LEM-OFF/ON
000176: 16,3116           75017                           MASK     BIT13                                 #  (NOTE, SHOWS LEM-OFF)
000177: 16,3117           00006                           EXTEND
000178: 16,3120           13122                           BZF      +2                                    #  LEM IS ON,  PICK UP   TEMPDAP+1
000179: 16,3121           31446                           CAE      TEMPDAP    +1                         #  LEM IS OFF, PICK UP 2(TEMPDAP+1)
000180: 16,3122           61446                           AD       TEMPDAP    +1
000181: 16,3123           55445                           TS       TEMPDAP                               #  CG.CORR USES TEMPDAP
000182:
000183: 16,3124           37716                           CAF      NEGONE                                #  SET UP FOR CNTR = -1 (ONE-SHOT DONE)
000184: 16,3125           55700                           TS       CNTRTMP                               #        (COPYCYCLE AT .CNTRCOPY.)
000185:
000186: 16,3126           00006        CG.CORR            EXTEND                                         #  PITCH TMC LOOP
000187: 16,3127           31606                           DCA      PDELOFF
000188: 16,3130           53675                           DXCH     PACTTMP
000189: 16,3131           00006                           EXTEND
000190: 16,3132           41606                           DCS      PDELOFF
000191: 16,3133           20001                           DDOUBL
000192: 16,3134           20001                           DDOUBL
000193: 16,3135           53612                           DXCH     TTMP1
000194: 16,3136           00006                           EXTEND
000195: 16,3137           31602                           DCA      DELPBAR
000196: 16,3140           20001                           DDOUBL
000197: 16,3141           20001                           DDOUBL
000198: 16,3142           21612                           DAS      TTMP1
000199: 16,3143           00006                           EXTEND
000200: 16,3144           31612                           DCA      TTMP1
000201: 16,3145           00006                           EXTEND
000202: 16,3146           71445                           MP       TEMPDAP
000203: 16,3147           21675                           DAS      PACTTMP
000204:
000205: 16,3150           00006                           EXTEND                                         #  YAW TMC LOOP
000206: 16,3151           31610                           DCA      YDELOFF
000207: 16,3152           53677                           DXCH     YACTTMP
000208: 16,3153           00006                           EXTEND
000209: 16,3154           41610                           DCS      YDELOFF
000210: 16,3155           20001                           DDOUBL
000211: 16,3156           20001                           DDOUBL
000212: 16,3157           53612                           DXCH     TTMP1
000213: 16,3160           00006                           EXTEND
000214: 16,3161           31604                           DCA      DELYBAR
000215: 16,3162           20001                           DDOUBL
000216: 16,3163           20001                           DDOUBL
000217: 16,3164           21612                           DAS      TTMP1
000218: 16,3165           00006                           EXTEND
000219: 16,3166           31612                           DCA      TTMP1
000220: 16,3167           00006                           EXTEND
000221: 16,3170           71445                           MP       TEMPDAP
000222: 16,3171           21677                           DAS      YACTTMP
000223:
000224: 16,3172           25653        CORCOPY            INCR     TVCEXPHS                              #  RESTART PROTECT THE COPYCYCLE         (5)
000225:
000226: 16,3173           00006                           EXTEND                                         #  TRIM-ESTIMATES, AND
000227: 16,3174           31675                           DCA      PACTTMP
000228: 16,3175           55423                           TS       PACTOFF                               #        TRIMS
000229: 16,3176           53606                           DXCH     PDELOFF
000230:
000231: 16,3177           00006                           EXTEND
000232: 16,3200           31677                           DCA      YACTTMP
000233: 16,3201           55424                           TS       YACTOFF
000234: 16,3202           53610                           DXCH     YDELOFF
000235:
000236: 16,3203           25653                           INCR     TVCEXPHS                              #  ENTRY FROM 1SHOTCHK AT NEXT LOCATION  (6)
000237:
000238: 16,3204           31700        CNTRCOPY           CAE      CNTRTMP                               #  UPDATE CNTR (RESTARTS OK, FOLLOWS CPYCY)
000239: 16,3205           55447                           TS       CNTR
000240:
000241: 16,3206           35035        TVCEXFIN           CAF      ZERO                                  #  RESET TVCEXPHS
000242: 16,3207           55653                           TS       TVCEXPHS
000243: 16,3210           15340                           TCF      TASKOVER                              #  TVCEXECUTIVE FINISHED
000244:
000245: 16,3211           10000        FCORFRAC           OCT      10000                                 #  ONE-SHOT CORRECTION FRACTION

End of include-file TVCEXECUTIVE.agc.  Parent file is MAIN.agc


