
Source Code


000002:                                                                                                  ## Copyright:   Public domain.
000003:                                                                                                  ## Filename:    TVCRESTARTS.agc
000004:                                                                                                  ## Purpose:     A section of Comanche revision 067.
000005:                                                                                                  ##              It is part of the reconstructed source code for the flight
000006:                                                                                                  ##              software for the Command Module's (CM) Apollo Guidance Computer
000007:                                                                                                  ##              (AGC) for Apollo 12. No original listings of this program are
000008:                                                                                                  ##              available; instead, this file was created via dissassembly of
000009:                                                                                                  ##              dumps of Comanche 067 core rope modules and comparison with
000010:                                                                                                  ##              other AGC programs.
000011:                                                                                                  ## Assembler:   yaYUL
000012:                                                                                                  ## Contact:     Ron Burkey <info@sandroid.org>.
000013:                                                                                                  ## Website:     www.ibiblio.org/apollo/index.html
000014:                                                                                                  ## Mod history: 2023-08-16 MAS  Created from Comanche 055.
000015:
000016:                                                                                                  #  NAME....TVCRESTART PACKAGE, CONSISTING OF REDOTVC, ENABL1, 2, CMDSOUT, PHSCHK2, ETC.
000017:                                                                                                  #  LOG SECTION...TVCRESTARTS                     SUBROUTINE...DAPCSM
000018:                                                                                                  #  MODIFIED BY SCHLUNDT                          21 OCTOBER 1968
000019:
000020:                                                                                                  #  FUNCTIONAL DESCRIPTION....
000021:
000022:                                                                                                  #       *RESTART-PROOFS THE TVC DAPS, INCLUDING PITCHDAP, YAWDAP,
000023:                                                                                                  #        TVCEXECUTIVE, ROLLDAP, TVCINIT4, TVCDAPON, AND CSM/.M V46 SWTCHOVR.
000024:
000025:                                                                                                  #       *TVC RESTARTS DESERVE SPECIAL CONSIDERATION IN SEVERAL AREAS.
000026:                                                                                                  #        RESTART DOWN-TIME IS IMPORTANT BECAUSE OF THE TRANSIENTS INTRODUCED
000027:                                                                                                  #        BY THE THRUST VECTOR RETURN TO THE ACTUATOR MECHANICAL NULLS
000028:                                                                                                  #        FOLLOWING TVC- AND OPTICS-ERROR-COUNTER-DISENABLES (CHANNEL 12).
000029:                                                                                                  #        TVC USES A MIXTURE OF WAITLIST, T5, T6, AND JOB CALLS.  THERE IS
000030:                                                                                                  #        FILTER MEMORY (UP TO 6TH ORDER) TO BE PROTECTED IF WILD TRANSIENTS
000031:                                                                                                  #        ARE TO BE AVOIDED.  COUNTERS ARE INVOLVED FOR ONE-SHOT
000032:                                                                                                  #        CORRECTIONS AND GAIN UPDATES.  THE GIMBAL TRIM ESTIMATORS AND THE
000033:                                                                                                  #        BODY AXIS ATTITUDE ERROR INTEGRATORS INVOLVE DIGITAL SUMMATION.
000034:                                                                                                  #        DIGITAL DIFFERENTIATORS ARE INVOLVED IN THE BODY AXIS RATE ESTIMA-
000035:                                                                                                  #        TIONS AND IN THE OUTPUTTING OF ACTUATOR COMMANDS.  THERE IS AN
000036:                                                                                                  #        OFFSET-TRACKER-FILTER TO PROTECT.  ETC., ETC.
000037:
000038:                                                                                                  #       *THOSE QUANTITIES WHICH MUST BE PROTECTED ARE STORED IN TEMPORARY
000039:                                                                                                  #        REGISTERS AS THEY ARE COMPUTED, FOR UPDATING THE REAL REGISTERS
000040:                                                                                                  #        DURING COPYCYCLES.
000041:
000042:                                                                                                  #       *THE SEVERAL COPYCYCLES ARE EACH PROTECTED BY PHASE POINTS AT THEIR
000043:                                                                                                  #        BEGINNING AND AT THEIR TERMINATION.  THE PHASE POINTS ARE SIMPLY
000044:                                                                                                  #        ..INCR.. INSTRUCTIONS, EITHER ..INCR TVCEXPHS.. FOR COPYCYCLES
000045:                                                                                                  #        IN THE TVCEXECUTIVE, OR ..INCR TVCPHASE.. FOR THE PITCH AND YAW
000046:                                                                                                  #        COPYCYCLES.  INDEXING ON EACH OF THESE POINTERS THEN PERMITS A
000047:                                                                                                  #        RETURN TO THE APPROPRIATE RESTART POINTS.
000048:
000049:                                                                                                  #       *IF A RESTART OCCURS DURING EITHER COPYCYCLE, THAT COPYCYCLE IS
000050:                                                                                                  #        COMPLETED.  THEN THE NORMAL TVCINIT4....DAPINIT....PITCHDAP STARTUP
000051:                                                                                                  #        SEQUENCE IS CALLED UPON TO GET THINGS GOING AGAIN.
000052:
000053:                                                                                                  #       *TVC-ENABLE AND OPTICS-ERROR-COUNTER ENABLE MUST BE SET ASAP
000054:                                                                                                  #        (ALLOWING FOR PROCEDURAL DELAYS).  THEN THE ENGINES ARE COMMANDED
000055:                                                                                                  #        TO THE P,YACTOFF TRIM VALUES.  THE DAPS ARE THEN READY TO GO ON THE
000056:                                                                                                  #        AIR, WITH THE REGULAR STARTUP SEQUENCE, EITHER AT MRCLEAN FOR A
000057:                                                                                                  #        COMPLETE INITIALIZATION OR AT TVCINIT4 FOR A PARTIAL INITIALIZATION
000058:
000059:                                                                                                  #       *FOR RESTARTS PRIOR TO THE SETTING OF THE T5 BITS AT DOTVCON THE
000060:                                                                                                  #        PRE40.6 SECTION OF S40.6 TAKES CARE OF RE-ESTABLISHING TRIMS.
000061:
000062:                                                                                                  #       *IF A RESTART OCCURS DURING THE TVCEXEC....TVCEXFIN SEQUENCE THE
000063:                                                                                                  #        COMPUTATIONS WILL BE COMPLETED, STARTING AT THE APPROPRIATE RESTART
000064:                                                                                                  #        POINT, AFTER THE DAPS ARE READY TO GO ON THE AIR.
000065:
000066:                                                                                                  #       *IF A RESTART OCCURS PRIOR TO TVCINIT4 (TVCPHASE = -1) E.G. DURING
000067:                                                                                                  #        THE EARLY DAP INITIALIZATION PHASE, THE DAP STARTUP SEQUENCE IS
000068:                                                                                                  #        ENTERED AT MRCLEAN FOR A FULL INITIALIZATION.
000069:
000070:                                                                                                  #       *FOR RESTARTS DURING CSM/LM V46 SWITCH-OVER, TVCPHASE IS SET TO -2.
000071:                                                                                                  #        AND THE RESTART LOGIC GOES BACK TO REDO SWITCH-OVER (AFTER THE
000072:                                                                                                  #        NORMAL DAP RESTART SEQUENCE IS FOLLOWED).
000073:
000074:                                                                                                  #       *RESTARTS ARE NOT CRITICAL TO THE ROLL DAP PERFORMANCES HENCE THE
000075:                                                                                                  #        THE ROLL DAP IS MERELY RESTARTED.
000076:
000077:                                                                                                  #       *RESTARTS DURING A STROKE TEST (STROKER IS NON-ZERO) WILL CAUSE THE
000078:                                                                                                  #        STROKE TEST TO BE TERMINATED.  A NEW V68 ENTRY WILL BE REQUIRED
000079:                                                                                                  #        TO GET IT GOING AGAIN (NO AUTOMATIC RESTART).
000080:                                                                                                  #
000081:                                                                                                  #       *REDOTVC IS REACHED FOLLOWING ANY RESTART WHICH FINDS THE T5 BITS
000082:                                                                                                  #        (BITS 15,14 OF FLAGWRD6) SET FOR TVC.  DOTVCON SETS TVCPHASE = -1
000083:                                                                                                  #        AND TVC EXPHS = 0 JUST BEFORE SETTING THESE BITS, JUST BEFORE
000084:                                                                                                  #        MAKING THE T5 CALL TO TVCDAPON.  ON A NORMAL SHUTDOWN DOTVCRCS
000085:                                                                                                  #        CALLS RCSDAPON, WHICH RESETS THE T5 BITS FOR RCS.
000086:
000087:                                                                                                  #  CALLING SEQUENCE....T5, IN PARTICULAR BY ELRSKIP OF FRESH START/RESTART
000088:
000089:                                                                                                  #  NORMAL EXIT MODES....RESUME, NOQRSM, POSTJUMP (TO TVCINIT4 OR MRCLEAN)
000090:
000091:                                                                                                  #  ALARM OR ABORT EXIT MODES....NONE
000092:
000093:                                                                                                  #  SUBROUTINES CALLED....
000094:
000095:                                                                                                  #       *PCOPY+1, YCOPY+1 (PITCH AND YAW COPYCYCLES)
000096:                                                                                                  #       *ENABLE1,2, CMDSOUT (RE-ESTABLISH ACTUATOR TRIMS)
000097:                                                                                                  #       *MRCLEAN OR TVCINIT4 (TVCDAP INITIALIZATIONS)
000098:                                                                                                  #       *SWICHOVR +5 (CSM/LM V46 SWITCH-OVER)
000099:                                                                                                  #       *EXRSTRT AND TVCEXECUTIVE PHASE POINTS 1 THRU 6
000100:                                                                                                  #       *WAITLIST, IBNKCALL, POSTJUMP, ISWCALL
000101:
000102:                                                                                                  #  OTHER INTERFACES....DOTVCON AND RCSDAPON (T5 BITS), ELRSKIP (CALLS IT)
000103:
000104:                                                                                                  #  ERASABLE INITIALIZATION REQUIRED....
000105:
000106:                                                                                                  #       *T5 BITS (1,0), TVCPHASE (-2,-1,0,1,2,3), TVCEXPHS (1 THRU 6)
000107:                                                                                                  #       *TVC DAP VARIABLES
000108:                                                                                                  #       *OPERATIONS PERFORMED BY REDOTVC ARE BASED ON THE ASSUMPTION THAT
000109:                                                                                                  #        THE TVC DAPS ARE RUNNING NORMALLY
000110:
000111:                                                                                                  #  OUTPUT....
000112:
000113:                                                                                                  #       *PITCH AND YAW TVC DAP COPYCYCLES COMPLETED IF INTERUPTED
000114:                                                                                                  #       *TVCEXECUTIVE COMPLETED IF INTERUPTED
000115:                                                                                                  #       *STROKE TEST TERMINATED IF INTERRUPTED
000116:                                                                                                  #       *CSM/LM V46 SWITCH-OVER REPEATED IF INTERRUPTED
000117:                                                                                                  #       *ACTUATOR TRIMS RE-ESTABLISHED (ACTUATORS BACK ON THE AIR)
000118:                                                                                                  #       *TVC DAP INITIALIZATION AS REQUIRED
000119:                                                                                                  #       *ALL TVC DAP OPERATIONS ON THE AIR
000120:
000121:                                                                                                  #  DEBRIS....TVC TEMPORARIES IN EBANK6
000122:
000123:
000124: 16,3212                                           BANK     16
000125: 16,2000                                           SETLOC   DAPROLL
000126: 16,2000                                           BANK
000127: 16,3212  E6,1644                                  EBANK=   TVCPHASE
000128: 16,3212                                           COUNT*   $$/RSRT
000129:
000130: 16,3212           22016        REDOTVC            LXCH     BANKRUPT                              #  TVC RESTART PACKAGE
000131: 16,3213           00006                           EXTEND
000132: 16,3214           22012                           QXCH     QRUPT                                 #  (..TCR.. IN ..FINCOPY..)
000133:
000134: 16,3215           11653        EXECPHS            CCS      TVCEXPHS                              #  CHECK TVCEXECUTIVE PHASE
000135: 16,3216           13220                           TCF      +2                                    #        MUST RESTART TVCEXECUTIVE
000136: 16,3217           13224                           TCF      TVCDAPHS                              #        NO NEED TO RESTART TVCEXECUTIVE
000137:
000138: 16,3220           34334                           CAF      NINE                                  #  9CS DELAY TO FORCE EXRSTRT TO OCCUR
000139: 16,3221           05261                           TC       WAITLIST                              #        BEFORE PITCHDAP, AFTER CMDSOUT
000140: 16,3222  E6,1653                                  EBANK=   TVCEXPHS
000141: 16,3222           03325 34066                     2CADR    EXRSTRT
000142:
000143: 16,3224           47700        TVCDAPHS           CS       OCT37776                              #  CHECK BITS 15 AND 1 OF TVCPHASE TO SEE
000144: 16,3225           71644                           MASK     TVCPHASE                              #        DAP RESTART LOCATION (-1,1,2,3)
000145: 16,3226           10000                           CCS      A
000146: 16,3227           13312                           TCF      FINCOPY                               #        FINISH THE COPYCYCLE FIRST
000147: 16,3230           13235                           TCF      ENABL1                                #        JUST PREPARE THE OUTCOUNTERS AND GO
000148:
000149: 16,3231           41644                           CS       TVCPHASE                              #  TEST FOR TVCPHASE = -2
000150: 16,3232           75032                           MASK     BIT2                                  #        (THIS INDICATES RESTART OCCURRED
000151: 16,3233           00006                           EXTEND                                         #         DURING CSM/LM V46 SWITCH-OVER)
000152: 16,3234           13316                           BZF      TRIM/CMD                              #  NO, TVCPHASE = -1, RSTRT WAS IN TVCINIT
000153:
000154: 16,3235           35024        ENABL1             CAF      BIT8                                  #  TVC ENABLE, FOLLOWED BY 40 MS (MIN) WAIT
000155: 16,3236           65021                           AD       BIT11                                 #        SET BIT FOR OPTICS-DAC-ENABLE ALSO
000156: 16,3237           00006                           EXTEND                                         #        (ENABL1 ENTERED FROM TVCDAPHS / FINCOPY)
000157: 16,3240           05012                           WOR      CHAN12
000158: 16,3241           33331                           CAF      TVCADDR                               #  WAIT, CALLING ENABL2 (BBCON THERE)
000159: 16,3242           55312                           TS       T5LOC
000160: 16,3243           33335                           CAF      TVCADDR    +4                         #        60 MS (TVCEXADR)
000161: 16,3244           54030                           TS       TIME5
000162:
000163: 16,3245           15347                           TCF      RESUME
000164:
000165: 16,3246           22016        ENABL2             LXCH     BANKRUPT                              #  CONTINUE PREPARATION OF OUTCOUNTERS
000166:
000167: 16,3247           35032                           CAF      BIT2                                  #  OPTICS ERROR CNTR ENABLE, 4MS MIN WAIT
000168: 16,3250           00006                           EXTEND
000169: 16,3251           05012                           WOR      CHAN12
000170: 16,3252           33333                           CAF      TVCADDR    +2                         #  WAIT, CALLING CMDSOUT (BBCON THERE)
000171: 16,3253           55312                           TS       T5LOC
000172: 16,3254           37700                           CAF      OCT37776                              #        20MS
000173: 16,3255           54030                           TS       TIME5
000174:
000175: 16,3256           15351                           TCF      NOQRSM
000176:
000177: 16,3257           22016        CMDSOUT            LXCH     BANKRUPT                              #  CONTINUE PREPARATION OF OUTCOUNTERS
000178: 16,3260           00006                           EXTEND
000179: 16,3261           22012                           QXCH     QRUPT
000180:
000181: 16,3262           45035                           CS       ZERO                                  #  MOST RECENT ACTUATOR COMMANDS
000182: 16,3263           61623                           AD       PCMD                                  #        (AVOID +0)
000183: 16,3264           54054                           TS       TVCPITCH
000184: 16,3265           45035                           CS       ZERO
000185: 16,3266           61624                           AD       YCMD
000186: 16,3267           54053                           TS       TVCYAW
000187:
000188: 16,3270           35076                           CAF      PRIO6                                 #  RELEASE THE COUNTERS (BITS 11,12)
000189: 16,3271           00006                           EXTEND
000190: 16,3272           05014                           WOR      CHAN14
000191:
000192: 16,3273           11644        PHSCHK2            CCS      TVCPHASE                              #  CHECK TVCPHASE AGAIN
000193: 16,3274           13304                           TCF      CHKSTRK
000194: 16,3275           13304                           TCF      CHKSTRK
000195: 16,3276           10000                           CCS      A                                     #  A CONTAINS THE DIMINISHED ABSOLUTE OF
000196: 16,3277           03302                           TC       +3                                    #  TVCPHASE (-2 BECOMES +1. -1 BECOMES +0)
000197:
000198: 16,3300           04715                           TC       POSTJUMP                              #        REPEAT TVC INITIALIZATION
000199: 16,3301           36210                           CADR     MRCLEAN                               #        (DO NOT RETURN)
000200:
000201: 16,3302           04754                 +3        TC       IBNKCALL                              #        REPEAT CSM/LM V46 SWITCH-OVER
000202: 16,3303           36417                           CADR     SWICHOVR   +5                         #        (RETURN TO CHECK FOR STROKE TEST)
000203:
000204: 16,3304           11574        CHKSTRK            CCS      STROKER                               #  CHECK FOR STROKE TEST IN PROGRESS
000205: 16,3305           13322                           TCF      TSTINITJ                              #  YES, KILL IT
000206: 16,3306           13310                           TCF      +2                                    #  NO, PROCEED
000207: 16,3307           13322                           TCF      TSTINITJ                              #  YES, KILL IT
000208:
000209: 16,3310           04715                 +4        TC       POSTJUMP                              #        IF POSITIVE OR ZERO, RESTART AT
000210: 16,3311           36362                           CADR     TVCINIT4                              #                TVCINIT4 (ZEROS TVCPHASE, AND
000211:                                                                                                  #                CALLS TVC DAPS VIA DAPINIT)
000212: 16,3312           51644        FINCOPY            INDEX    TVCPHASE                              #  PICK UP THE APPROPRIATE COPYCYCLE
000213: 16,3313           33331                           CAF      TVCCADR
000214: 16,3314           04760                           TCR      ISWCALL                               #  RE-ENTER THE COPYCYCLE, RETURN AT END
000215: 16,3315           13235                           TCF      ENABL1                                #  NOW PREPARE THE OUTCOUNTERS
000216:
000217: 16,3316           00006        TRIM/CMD           EXTEND                                         #  TVCDAPON INITIALIZATION NOT COMPLETED,
000218: 16,3317           31424                           DCA      PACTOFF                               #        EG. P,YCMD MAY NOT BE SET.  SET...
000219: 16,3320           53624                           DXCH     PCMD
000220: 16,3321           13235                           TCF      ENABL1                                #  NOW PREPARE THE OUTCOUNTERS
000221:
000222: 16,3322           35035        TSTINITJ           CAF      ZERO                                  #  DISABLE STROKE TEST (-0 SHOWS PRIOR V68)
000223: 16,3323           55574                           TS       STROKER                               #  (+0 MEANS NEW V68 REQUIRED FOR STARTUP)
000224:
000225: 16,3324           13310                           TCF      CHKSTRK    +4
000226:
000227: 16,3325           51653        EXRSTRT            INDEX    TVCEXPHS                              #  TVCEXECUTIVE RESTARTS....GO TO
000228: 16,3326           33335                           CAF      TVCEXADR                              #        APPROPRIATE RESTART POINT
000229: 16,3327           50000                           INDEX    A
000230: 16,3330           10000                           TCF      0
000231:
000232:                                                                                                  #  TVC RESTART TABLES.... ORDER IS REQUIRED.  HI-ORDER WORDS ONLY, OF 2CADRS, SINCE BBCON IS ALREADY THERE.
000233:
000234: 16,3331  16,3331               TVCADDR            =        TVCCADR                               #  TABLE OF CADRS, UNUSED LOCS FOR GENADRS
000235: 16,3331           03246        TVCCADR            GENADR   ENABL2                                #  (FOR T5 CALL, UNUSED TABLE LOC)
000236: 16,3332           40714                 +1        CADR     PCOPY      +1                         #  PITCH COPYCYCLE
000237: 16,3333           03257                 +2        GENADR   CMDSOUT                               #  (FOR T5 CALL, UNUSED TABLE LOC)
000238: 16,3334           41104                 +3        CADR     YCOPY      +1                         #  YAW COPYCYCLE
000239: 16,3335           37772        TVCEXADR           OCT      37772                                 #  (UNUSED TABLE LOC, FILL WITH 60MS, T5)
000240: 16,3336           03055                 +1        GENADR   EXECCOPY   +1                         #  TVCEXECUTIVE RESTART POINTS (ORDERED)
000241: 16,3337           03063                 +2        GENADR   1SHOTCHK
000242: 16,3340           03112                 +3        GENADR   TEMPSET
000243: 16,3341           03115                 +4        GENADR   CORSETUP
000244: 16,3342           03173                 +5        GENADR   CORCOPY    +1
000245: 16,3343           03204                 +6        GENADR   CNTRCOPY

End of include-file TVCRESTARTS.agc.  Parent file is MAIN.agc


