
Source Code


000002:                                                                                                  ## Copyright:   Public domain.
000003:                                                                                                  ## Filename:    TVCROLLDAP.agc
000004:                                                                                                  ## Purpose:     A section of Comanche revision 067.
000005:                                                                                                  ##              It is part of the reconstructed source code for the flight
000006:                                                                                                  ##              software for the Command Module's (CM) Apollo Guidance Computer
000007:                                                                                                  ##              (AGC) for Apollo 12. No original listings of this program are
000008:                                                                                                  ##              available; instead, this file was created via dissassembly of
000009:                                                                                                  ##              dumps of Comanche 067 core rope modules and comparison with
000010:                                                                                                  ##              other AGC programs.
000011:                                                                                                  ## Assembler:   yaYUL
000012:                                                                                                  ## Contact:     Ron Burkey <info@sandroid.org>.
000013:                                                                                                  ## Website:     www.ibiblio.org/apollo/index.html
000014:                                                                                                  ## Mod history: 2023-08-16 MAS  Created from Comanche 055.
000015:
000016:                                                                                                  #  PROGRAM NAME...TVC ROLL AUTOPILOT
000017:                                                                                                  #  LOG SECTION...TVCROLLDAP                      SUBROUTINE...DAPCSM
000018:                                                                                                  #  MODIFIED BY SCHLUNDT                          21 OCTOBER 1968
000019:
000020:                                                                                                  #  FUNCTIONAL DESCRIPTION....
000021:
000022:                                                                                                  #       *AN ADAPTATION OF THE LEM P-AXIS CONTROLLER
000023:                                                                                                  #       *MAINTAIN OGA WITHIN 5 DEG DEADBND OF OGAD, WHERE OGAD = OGA AS SEEN
000024:                                                                                                  #        BY IGNITION (P40)
000025:                                                                                                  #       *MAINTAIN OGA RATE LESS THAN 0.1 DEG/SEC LIMIT CYCLE RATE
000026:                                                                                                  #       *SWITCHING LOGIC IN PHASE PLANE.... SEE GSOP CHAPTER 3
000027:                                                                                                  #       *USES T6 CLOCK TO TIME JET FIRINGS
000028:                                                                                                  #       *MAXIMUM JET FIRING TIME = 2.56 SECONDS, LIMITED TO 2.5 IF GREATER
000029:                                                                                                  #       *MINIMUM JET FIRING TIME = 15 MS
000030:                                                                                                  #       *JET PAIRS FIRE ALTERNATELY
000031:                                                                                                  #       *AT LEAST 1/2 SECOND DELAY BEFORE A NEW JET PAIR IS FIRED
000032:                                                                                                  #       *JET FIRINGS MAY NOT BE EXTENDED, ONLY SHORTENED, WHEN RE-EVALUATION
000033:                                                                                                  #        OF A JET FIRING TIME IS MADE ON A LATER PASS
000034:
000035:                                                                                                  #  CALLING SEQUENCE....
000036:
000037:                                                                                                  #       *ROLLDAP CALL VIA WAITLIST, IN PARTICULAR BY TVCEXEC (EVERY 1/2 SEC)
000038:                                                                                                  #        WITH A 3CS DELAY TO ALLOW FREE TIME FOR OTHER RUPTS (DWNRPT, ETC.)
000039:
000040:                                                                                                  #  NORMAL EXIT MODES.... ENDOFJOB
000041:
000042:                                                                                                  #  ALARM OR ABORT EXIT MODES.... NONE
000043:
000044:                                                                                                  #  SUBROUTINES CALLED.....NONE
000045:
000046:                                                                                                  #  OTHER INTERFACES....
000047:
000048:                                                                                                  #       *TVCEXEC SETS UP ROLLDAP TASK EVERY 1/2 SECOND AND UPDATES 1/CONACC
000049:                                                                                                  #        EVERY 10 SECONDS (VIA MASSPROP AND S40.15)
000050:                                                                                                  #       *RESTARTS SUSPEND ROLL DAP COMPUTATIONS UNTIL THE NEXT 1/2 SEC
000051:                                                                                                  #        SAMPLE PERIOD.  (THE PART OF TVCEXECUTIVE THAT CALLS ROLL DAP IS
000052:                                                                                                  #        NOT RESTARTED.)  THE OGAD FROM IGNITION IS MAINTAINED.
000053:
000054:                                                                                                  #  ERASABLE INITIALIZATION REQUIRED....
000055:
000056:                                                                                                  #       *1/CONACC                                (S40.15)
000057:                                                                                                  #       *OGAD                                    (CDUX AT IGNITION)
000058:                                                                                                  #       *OGANOW                                  (CDUX AT TVCINIT4 AND TVCEXECUTIVE)
000059:                                                                                                  #       *OGAPAST                                 (OGANOW AT TVCEXECUTIVE)
000060:                                                                                                  #       *ROLLFIRE = TEMREG = ROLLWORD = 0        (MRCLEAN LOOP IN TVCDAPON)
000061:
000062:                                                                                                  #  OUTPUT....
000063:
000064:                                                                                                  #       *ROLL JET PAIR FIRINGS
000065:
000066:                                                                                                  #  DEBRIS.... MISCELLANEOUS, SHAREABLE WITH RCS/ENTRY, IN EBANK6 ONLY
000067:
000068:                                                                                                  #  SOME NOTES ON THE ROLL AUTOPILOT, AND IN PARTICULAR, ON ITS SWITCHING
000069:                                                                                                  #  LOGIC.  SEE SECTION THREE OF THE GSOP (SUNDISK/COLOSSUS) FOR DETAILS.
000070:
000071:                                                                                                  #  SWITCHING LOGIC IN THE PHASE PLANE....
000072:
000073:                                                                                                  #                               OGARATE
000074:                                                                                                  #                                  *
000075:                                                                                                  #                                  *
000076:                                                                                                  #   * * * * * * * * * * *          *
000077:                                                                                                  #                                  *     (REGION 1, SEE TEXT BELOW)
000078:                                                                                                  #                             *    *
000079:                                                                                                  #                                  *
000080:                                                                                                  #  * * * * * * *     (COAST)       *     ...PARABOLA (SWITCHING = CONTROL)
000081:                                                                                                  #                *                 *    .
000082:                                                                                                  #                  *               *   *
000083:                                                                                                  #                    *             *                (FIRE NEG ROLL JETS)
000084:                                                                                                  #                      *           *      *
000085:                                                                                                  #      (-DB,+LMCRATE)....*         *
000086:                                                                                                  #                        *         *        *
000087:                                                                                                  #                        *         *                              OGAERROR
000088:                                                                                                  #  ************************************************************************
000089:                                                                                                  #                                  *         *                (-AK, OGAERR)
000090:                                                                                                  #                         *        *         *      (REGION 6-PRIME)
000091:                                                                                                  #                                  *         *      (SEE TEXT BELOW)
000092:                                                                                                  #                           *      *           *
000093:                                                                                                  #                                  *             *     ...STRAIGHT LINE
000094:                                                                                                  #     (FIRE POS ROLL JETS)     *   *               *  .
000095:                                                                                                  #                                  *   (COAST)       *
000096:                                                                                                  #                                  *                   * * * * * * * * * *
000097:                                                                                                  #                                  *                         -MINLIM
000098:                                                                                                  #                                  *    *
000099:                                                                                                  #                                  *
000100:                                                                                                  #                                  *          * * * * * * * * * * * * * * *
000101:                                                                                                  #                                  *                        -MAXLIM
000102:                                                                                                  #                                  *
000103:                                                                                                  #                                  *
000104:
000105:                                                                                                  #  SWITCHING PARABOLAS ARE CONTROL PARABOLAS, THUS REQUIRING KNOWLEDGE OF
000106:                                                                                                  #        CONTROL ACCELERATION CONACC, OR ITS RECIPROCAL, 1/CONACC, THE TVC
000107:                                                                                                  #        ROLL DAP GAIN  (SEE TVCEXECUTIVE VARIABLE GAIN PACKAGE).  JET
000108:                                                                                                  #        FIRING TIME IS SIMPLY THAT REQUIRED TO ACHIEVE THE DESIRED OGARATE,
000109:                                                                                                  #        SUBJECT TO THE LIMITATIONS DISCUSSED UNDER FUNCTIONAL DESCRIPTION,
000110:                                                                                                  #        ABOVE.
000111:
000112:                                                                                                  #  THE THREE CONTROL REGIONS  (+, -, AND ZERO TORQUE) ARE COMPRIZED OF
000113:                                                                                                  #        TWELVE SUBSET REGIONS  ( 1...6, AND THE CORRESPONDING 1-PRIME...
000114:                                                                                                  #        6-PRIME )  SEE SECTION 3 OF THE GSOP  (SUNDISK OR COLOSSUS)
000115:
000116:                                                                                                  #  GIVEN THE OPERATING POINT NOT IN THE COAST REGION, THE DESIRED OGARATE
000117:                                                                                                  #        IS AT THE POINT OF PENETRATION OF THE COAST REGION BY THE CONTROL
000118:                                                                                                  #        PARABOLA WHICH PASSES THROUGH THE OPERATING POINT.  FOR REGION 3
000119:                                                                                                  #        DESIRED OGARATE IS SIMPLY +-MAXLIM.  FOR REGIONS 1 OR 6 THE SOLUTION
000120:                                                                                                  #        TO A QUADRATIC IS REQUIRED (THE PENETRATION IS ALONG THE STRAIGHT
000121:                                                                                                  #        LINE OR MINLIM BOUNDRY SWITCH LINES).  AN APPROXIMATION IS MADE
000122:                                                                                                  #        INSTEAD. TAKE AN OPERATING POINT IN REGION 6'.  PASS A TANGENT TO
000123:                                                                                                  #        THE CONTROL PARABOLA THROUGH THE OPERATING POINT, AND FIND ITS
000124:                                                                                                  #        INTERSECTION WITH THE STRAIGHT LINE SECTION OF THE SWITCH CURVE...
000125:                                                                                                  #        THE INTERSECTION DEFINES DESIRED OGARATE.  IF THE OPERATING POINT IS
000126:                                                                                                  #        CLOSE TO THE SWITCH LINE, THE APPROXIMATION IS QUITE GOOD (INDEED
000127:                                                                                                  #        THE APPROXIMATE AND QUADRATIC SOLUTIONS CONVERGE IN THE LIMIT AS
000128:                                                                                                  #        THE SWITCH LINE IS APPROACHED).  IF THE OPERATING POINT IS NOT CLOSE
000129:                                                                                                  #        TO THE SWITCH LINE, THE APPROXIMATE SOLUTION GIVES VALID TREND
000130:                                                                                                  #        INFORMATION (DIRECTION OF DESIRED OGARATE) AT LEAST.  THE
000131:                                                                                                  #        RE-EVALUATION OF DESIRED OGARATE IN SUBSEQUENT ROLL DAP PASSES (1/2
000132:                                                                                                  #        SECOND INTERVALS) WILL BENEFIT FROM THE CONVERGENT NATURE OF THE
000133:                                                                                                  #        APPROXIMATION.
000134:
000135:                                                                                                  #  FOR LARGE OGAERROR THE TANGENT INTERSECTS +-MINLIM SWITCH BOUNDRY BEFORE
000136:                                                                                                  #        INTERSECTING THE STRAIGHT LINE SWITCH.  HOWEVER THE MINLIM IS
000137:                                                                                                  #        IGNORED IN COMPUTING THE FIRING TIME, SO THAT THE EXTENSION (INTO
000138:                                                                                                  #        THE COAST REGION) OF THE STRAIGHT LINE SWITCH IS WHAT IS FIRED TO.
000139:                                                                                                  #        IF THE ROLL DAP FINDS ITSELF IN THE COAST REGION BEFORE REACHING
000140:                                                                                                  #        THE DESIRED INTERSECTION (IE, IN THE REGION BETWEEN THE MINLIM
000141:                                                                                                  #        AND THE STRAIGHT LINE SWITCH) IT WILL EXIBIT NORMAL COAST-REGION
000142:                                                                                                  #        BEHAVIOR AND TURN OFF THE JETS.  THE PURPOSE OF THIS FIRING POLICY
000143:                                                                                                  #        IS TO MAINTAIN STATIC ROLL STABILITY IN THE EVENT OF A JET
000144:                                                                                                  #        FAILED-ON.
000145:
000146:                                                                                                  #  WHEN THE OPERATING POINT IS IN REGION 1 THE SAME APPROXIMATION IS
000147:                                                                                                  #        MADE, BUT AT AN ARTIFICIALLY-CREATED OR DUMMY OPERATING POINT,
000148:                                                                                                  #        DEFINED BY.. OGAERROR = INTERSECTION OF CONTROL PARABOLA AND
000149:                                                                                                  #        OGAERROR AXIS, OGARATE = +-LMCRATE WHERE SIGN IS OPPOSITE THAT OF
000150:                                                                                                  #        REAL OPERATING POINT RATE.  WHEN THE OPERATING POINT HAS PASSED
000151:                                                                                                  #        FROM REGION 1 TO REGION 6', THE DUMMY POINT IS NO LONGER REQUIRED,
000152:                                                                                                  #        AND THE SOLUTION REVERTS TO THAT OF A REGULAR REGION 6' POINT.
000153:
000154:                                                                                                  #  EQUATION FOR SWITCHING PARABOLA (SEE FIGURE ABOVE)....
000155:                                                                                                  #                                    2
000156:                                                                                                  #        SOGAERROR = (DB - (SOGARATE) (1/CONACC)/2) SGN(SOGARATE)
000157:
000158:                                                                                                  #  EQUATION FOR SWITCHING STRAIGHT LINE SEGMENT....
000159:
000160:                                                                                                  #        SOGARATE = -(-SLOPE)(SOGAERROR) - SGN(SOGARATE) INTERCEP
000161:
000162:                                                                                                  #                WHERE  INTERCEP = DB(-SLOPE) - LMCRATE
000163:
000164:                                                                                                  #  EQUATION FOR INTERSECTION, CONTROL PARABOLA AND STRAIGHT SWITCH LINE....
000165:
000166:                                                                                                  #        DOGADOT = NUM/DEN, WHERE
000167:                                                                                                  #                                       2
000168:                                                                                                  #                NUM = (-SLOPE)(OGARATE) (1/CONACC)
000169:                                                                                                  #                      +SGN(DELOGA)(-SLOPE)(OGAERROR - SGN(DELOGA)(DB))
000170:                                                                                                  #                      +LMCRATE
000171:
000172:                                                                                                  #                DEN = (-SLOPE)(LMCRATE)(1/CONACC) - SGN(DELOGA)
000173:                                                                                                  #                                                  2
000174:                                                                                                  #                DELOGA = OGAERROR - (DB -  OGARATE (1/CONACC)/2)SGN(OGARATE)
000175:
000176:                                                                                                  #  FOR REGIONS 6 AND 6-PRIME  USE ACTUAL OPERATING POINT  (OGA, OGARATE)
000177:                                                                                                  #        FOR OGAERROR AND OGARATE IN THE INTERSECTION EQUATIONS ABOVE.
000178:                                                                                                  #        FOR REGIONS 1 AND 1-PRIME USE DUMMY OPERATING POINT FOR OGAERROR
000179:                                                                                                  #        AND OGARATE, WHERE THE DUMMY POINT IS GIVEN BY....
000180:
000181:                                                                                                  #                OGAERROR = DELOGA + DB SGN(OGARATE)
000182:
000183:                                                                                                  #                OGARATE = -LMCRATE SGN(OGARATE)
000184:
000185:                                                                                                  #  NOTE, OGAERROR = OGA - OGAD  USES DUMMY REGISTER  OGA  IN ROLL DAP CODING
000186:                                                                                                  #        ALSO, AT POINT WHERE DOGARATE IS COMPUTED, REGISTER DELOGA IS USED
000187:                                                                                                  #        AS A DUMMY REGISTER FOR THE OGAERROR IN THE NUM EQUATION ABOVE
000188:
000189:                                                                                                  #  ROLLDAP CODING....
000190:
000191: 16,2000                                           SETLOC   DAPROLL
000192: 16,2000                                           BANK
000193: 16,3344  E6,1664                                  EBANK=   OGANOW
000194: 16,3344                                           COUNT*   $$/ROLL
000195: 16,3344           31664        ROLLDAP            CAE      OGANOW                                #  OGA RATE ESTIMATOR...SIMPLE FIRST-ORDER
000196: 16,3345           00006                           EXTEND                                         #        DIFFERENCE (SAMPLE TIME = 1/2 SEC)
000197: 16,3346           21665                           MSU      OGAPAST
000198: 16,3347           00006                           EXTEND
000199: 16,3350           75027                           MP       BIT5
000200: 16,3351           22000                           LXCH     A
000201: 16,3352           55533                           TS       OGARATE                               #  SC.AT B-4 REV/SEC
000202:
000203:                                                                                                  #  COMPUTATIONS WHICH FOLLOW USE OGA FOR OGAERR (SAME REGISTER)
000204:                                                                                                  #  EXAMINE DURATION OF LAST JET FIRING IF JETS NOW ON.
000205:
000206: 16,3353           31571        DURATION           CA       ROLLFIRE                              #  SAME SGN AS PRESENT TORQ,MAGN=POSMAX
000207: 16,3354           00006                           EXTEND
000208: 16,3355           13357                           BZF      +2                                    #  ROLL JETS ARE NOW OFF.
000209: 16,3356           13365                           TCF      ROLLOGIC                              #  ENTER LOGIC, JETS NOW ON.
000210:
000211: 16,3357           31573                           CAE      TEMREG                                #  EXAMINE LAST FIRING INTERVAL
000212: 16,3360           00006                           EXTEND                                         #  IF POSITIVE, DONT FIRE
000213: 16,3361           13365                           BZF      ROLLOGIC                              #  ENTER LOGIC, JETS NOW OFF.
000214:
000215: 16,3362           35035                           CAF      ZERO                                  #  JETS HAVE NOT BEEN OFF FOR 1/2 SEC. WAIT
000216: 16,3363           55573                           TS       TEMREG                                #  RESET TEMREG
000217: 16,3364           15340        WAIT1/2            TCF      TASKOVER                              #  EXIT ROLL DAP
000218:
000219:                                                                                                  #  COMPUTE DB-(1/2 CONACC) (OGARATE)SQ  (1/2 IN THE SCALING)
000220:
000221: 16,3365           41533        ROLLOGIC           CS       OGARATE                               #  SCALED AT 2(-4) REV/SEC
000222: 16,3366           00006                           EXTEND
000223: 16,3367           71640                           MP       1/CONACC                              #  SCALED AT 2(+9) SEC SQ /REV
000224: 16,3370           00006                           EXTEND
000225: 16,3371           71533                           MP       OGARATE
000226: 16,3372           63760                           AD       DB                                    #  SCALED AT 2(+0) REV
000227: 16,3373           55573                           TS       TEMREG                                #  QUANTITY SCALED AT 2(+0) REV.
000228:
000229:                                                                                                  #  GET SIGN OF OGARATE
000230:
000231: 16,3374           31533                           CA       OGARATE
000232: 16,3375           00006                           EXTEND
000233: 16,3376           63401                           BZMF     +3                                    #  LET SGN(0) BE NEGATIVE
000234: 16,3377           35033                           CA       BIT1
000235: 16,3400           13402                           TCF      +2
000236: 16,3401           45033                           CS       BIT1
000237: 16,3402           55670                           TS       SGNRT                                 #  + OR -  2(-14)
000238:
000239:                                                                                                  #  CALCULATE DISTANCE FROM SWITCH PARABOLA (DELOGA)
000240: 16,3403           00006                           EXTEND
000241: 16,3404           71573                           MP       TEMREG                                #  SGN(OGARATE) TEMREG NOW IN L
000242: 16,3405           40001                           CS       L
000243: 16,3406           61666                           AD       OGA                                   #  SCALED AT 2(+0) REV
000244: 16,3407           55671        DELOGAC            TS       DELOGA                                #  SCALE B+0 REV, PLUS TO RIGHT OF C-PARAB
000245:
000246:                                                                                                  #  EXAMINE SGN(DELOGA) AND CREATE CA OR CS INSTR. DEPENDING UPON SIGN.
000247:
000248: 16,3410           00006                           EXTEND
000249: 16,3411           63414                           BZMF     +3
000250: 16,3412           34371                           CAF      PRIO30                                #  = CA (30000)
000251: 16,3413           13415                           TCF      +2
000252: 16,3414           35015                           CAF      BIT15                                 #  = CS (40000)
000253: 16,3415           55672                           TS       I
000254:
000255: 16,3416           51672                           INDEX    I                                     #  TSET ON  I SGN(OGARATE)
000256: 16,3417           01670                           0        SGNRT                                 #  CA OR CS
000257: 16,3420           40000                           COM
000258: 16,3421           00006                           EXTEND
000259: 16,3422           63473        REG1TST            BZMF     ROLLON                                #  IF REGION 1 (DELOGA OGARATE SAME SIGN)
000260:
000261:                                                                                                  #  NO JET FIRE YET, TEST FOR MAX OGARATE
000262:
000263: 16,3423           51672                           INDEX    I
000264: 16,3424           01533                           0        OGARATE                               #  CA OR CS...BOTH MUST BE NEG. HERE
000265: 16,3425           55673                           TS       IOGARATE                              #  I.E. I OGARATE
000266: 16,3426           63766                           AD       MAXLIM                                #  SCALED AT 2(-4) REV/SEC
000267: 16,3427           00006                           EXTEND
000268: 16,3430           63552        REG3TST            BZMF     RATELIM                               #  IF REGION 3 (RATES TOO HIGH, FIRE JETS)
000269:
000270:                                                                                                  #  COMPUTATION OF I((-SLOPE)OGA + OGARATE) - INTERCEPT..NOTE THAT STR. LINE
000271:                                                                                                  #  SWITCH SLOPE IS (SLOPE) DEG/SEC/DEG, A NEG QUANTITY
000272:
000273: 16,3431           31533                           CA       OGARATE
000274: 16,3432           00006                           EXTEND
000275: 16,3433           75016                           MP       BIT14
000276: 16,3434           55573                           TS       TEMREG
000277: 16,3435           31666                           CA       OGA
000278: 16,3436           00006                           EXTEND
000279: 16,3437           73761                           MP       -SLOPE
000280: 16,3440           20001                           DDOUBL
000281: 16,3441           20001                           DDOUBL
000282: 16,3442           20001                           DDOUBL                                         #  (OGA ERROR MUST BE LESS THAN +-225 DEG)
000283: 16,3443           61573                           AD       TEMREG
000284:
000285: 16,3444           51672                           INDEX    I
000286: 16,3445           00000                           0        A                                     #  I((-SLOPE)OGA+OGARATE) AT 2(-3)REV/SEC
000287: 16,3446           40000                           COM
000288: 16,3447           63763                           AD       INTERCEP                              #  SCALED AT 2(-3) REV.
000289: 16,3450           40000                           COM
000290: 16,3451           00006                           EXTEND
000291: 16,3452           63663        REG2TST            BZMF     NOROLL                                #  IF REGION 2 (COAST SIDE OF STRT LINE)
000292:
000293:                                                                                                  #  CHECK TO SEE IF OGARATE IS ABOVE MINLIM BOUNDARY
000294:
000295: 16,3453           31673                           CA       IOGARATE                              #  ALWAYS NEGATIVE
000296: 16,3454           63764                           AD       MINLIM                                #  SCALED AT 2(-4) REV/SEC
000297: 16,3455           00006                           EXTEND
000298: 16,3456           63663        REG4TST            BZMF     NOROLL                                #  IF REGION 4 (COAST SIDE OF MINLIM)
000299:
000300:                                                                                                  #  ALL AREAS CHECKED EXCEPT LAST AREA...NO FIRE IN THIS SMALL SEGMENT
000301:
000302: 16,3457           51672                           INDEX    I
000303: 16,3460           01666                           0        OGA
000304: 16,3461           40000                           COM
000305: 16,3462           63760                           AD       DB
000306: 16,3463           40000                           COM
000307: 16,3464           00006                           EXTEND
000308: 16,3465           63663        REG5TST            BZMF     NOROLL                                #  IF REGION 5 (COAST SIDE OF DB)
000309:
000310:                                                                                                  #  JETS MUST FIRE NOW.  OGARATE IS NEG. (OR VISA VERSA).  USE DIRECT STR. LINE.
000311:                                                                                                  #  DELOGA AND DELOGART ARE USED AS DUMMY VARIABLES IN THE SOLUTION OF A
000312:                                                                                                  #  STRAIGHT LINE APPROXIMATION TO A QUADRATIC SOLUTION OF THE INTERSECTION
000313:                                                                                                  #  OF THE CONTROL PARABOLA AND THE STRAIGHT-LINE SWITCH LINE.  THE STRAIGHT
000314:                                                                                                  #  LINE IS THE TANGENT TO THE CONTROL PARABOLA AT THE OPERATING POINT.  (FOR
000315:                                                                                                  #  OPERATING POINTS IN REGIONS 6 OR 6')
000316:
000317: 16,3466           31666        REGION6            CAE      OGA                                   #  USE ACTUAL OPERATING POINT FOR TANGENT
000318: 16,3467           55671                           TS       DELOGA                                #  ACTUAL STATE
000319: 16,3470           31533                           CA       OGARATE
000320: 16,3471           55667                           TS       DELOGART                              #  ACTUAL STATE, I.E. DEL OGARATE
000321: 16,3472           13502                           TCF      ONROLL
000322:
000323:                                                                                                  #  JETS ALSO FIRE FROM HERE EXCEPT OGARATE IS POS (VISA VERSA), USE INDIRECT
000324:                                                                                                  #  STRAIGHT LINE ESTABLISHED BY TANGENT TO A CONTROL PARABOLA AT  ((DELOGA
000325:                                                                                                  #  + DB SGN(DELOGA) ), -LMCRATE SGN(DELOGA) )    (THIS IS THE DUMMY
000326:                                                                                                  #  OPERATING POINT FOR OPERATING POINTS IN REGIONS 1 AND 1')
000327:
000328: 16,3473           51672        ROLLON             INDEX    I
000329: 16,3474           03760                           0        DB
000330: 16,3475           27671                           ADS      DELOGA                                #  DELOGA WAS DIST. FROM SWITCH PARABOLA
000331:
000332: 16,3476           43762                           CS       LMCRATE                               #  LIMIT CYCLE RATE AT 2(-4) REV/SEC
000333: 16,3477           51672                           INDEX    I
000334: 16,3500           00000                           0        A
000335: 16,3501           55667                           TS       DELOGART                              #  EVALUATE STATE FOR INDIRECT LINE.
000336:
000337:                                                                                                  #  SOLVE STRAIGHT LINES SIMULTANEOUSLY TO OBTAIN DESIRED OGARATE.
000338:
000339: 16,3502           00006        ONROLL             EXTEND                                         #  DELOGART IN ACC. ON ARRIVAL
000340: 16,3503           71640                           MP       1/CONACC
000341: 16,3504           60000                           DOUBLE
000342: 16,3505           00006                           EXTEND
000343: 16,3506           73761                           MP       -SLOPE
000344: 16,3507           55573                           TS       TEMREG                                #  2(-SLOPE)RATE /CONACC
000345: 16,3510           00006                           EXTEND
000346: 16,3511           71667                           MP       DELOGART
000347: 16,3512           55667                           TS       DELOGART                              #  2(-SLOPE)(RATESQ)/CONACC
000348: 16,3513           45021                           CS       BIT11
000349: 16,3514           51672                           INDEX    I
000350: 16,3515           00000                           0        A
000351: 16,3516           27573        RATEDEN            ADS      TEMREG                                #  DENOMINATOR COMPLETED
000352:
000353: 16,3517           51672                           INDEX    I
000354: 16,3520           01671                           0        DELOGA
000355: 16,3521           40000                           COM
000356: 16,3522           63760                           AD       DB
000357: 16,3523           40000                           COM
000358: 16,3524           00006                           EXTEND
000359: 16,3525           73761                           MP       -SLOPE
000360: 16,3526           27667                           ADS      DELOGART
000361: 16,3527           33762                           CA       LMCRATE
000362: 16,3530           00006                           EXTEND
000363: 16,3531           75021                           MP       BIT11
000364: 16,3532           61667        RATENUM            AD       DELOGART                              #  NUMERATOR COMPLETED
000365:
000366: 16,3533           56001                           XCH      L                                     #  PLACE NUMERATOR IN L FOR OVERFL.  CHECK
000367: 16,3534           35035                           CA       ZERO
000368: 16,3535           00006                           EXTEND
000369: 16,3536           11573                           DV       TEMREG                                #  OVERFLOW, IF ANYTHING, NOW APPEARS IN A
000370: 16,3537           00006                           EXTEND
000371: 16,3540           13546                           BZF      DVOK                                  #  NO OVERFLOW....(0,L)/TEMREG = 0,L
000372:
000373: 16,3541           10000        MINLIMAP           CCS      A
000374: 16,3542           35013                           CAF      POSMAX                                #        POSITIVE OVERFLOW
000375: 16,3543           13555                           TCF      ROLLSET
000376: 16,3544           45013                           CS       POSMAX                                #        NEGATIVE OVERFLOW
000377: 16,3545           13555                           TCF      ROLLSET
000378:
000379: 16,3546           22000        DVOK               LXCH     A                                     #  PUT NUMERATOR BACK INTO A, 0 IN L
000380: 16,3547           00006                           EXTEND
000381: 16,3550           11573                           DV       TEMREG                                #  RESULT OF DIVISION IS DESIRED OGARATE
000382: 16,3551           13555                           TCF      ROLLSET                               #        (SCALED AT B-4 REV/SEC)
000383:
000384: 16,3552           43766        RATELIM            CS       MAXLIM
000385: 16,3553           51672                           INDEX    I
000386: 16,3554           00000                           0        A                                     #  IF I = CA, DESIRED RATE IS  -MAXLIM
000387:
000388:                                                                                                  #  COMPUTE JET FIRE TIME, BASED ON DESIRED RATE MINUS PRESENT RATE
000389:
000390: 16,3555           55573        ROLLSET            TS       TEMREG                                #  STORE DESIRED OGARATE (SCALED B-4)
000391: 16,3556           00006                           EXTEND
000392: 16,3557           61533                           SU       OGARATE                               #  RATE DIFF. SCALED AT 2(-4) REV/SEC
000393: 16,3560           55573                           TS       TEMREG                                #        OVERFLOW PROTECT
000394: 16,3561           13564                           TCF      +3                                    #            "       "
000395: 16,3562           50000                           INDEX    A                                     #            "       "
000396: 16,3563           45014                           CS       LIMITS                                #            "       "
000397: 16,3564           00006                           EXTEND
000398: 16,3565           77665                           MP       T6SCALE                               #  T6SCALE = 8/10.24
000399: 16,3566           00006                           EXTEND
000400: 16,3567           71640                           MP       1/CONACC                              #  SCALED AT B+9 SECSQ/REV (MAX < .60)
000401: 16,3570           20001                           DDOUBL
000402: 16,3571           20001                           DDOUBL
000403: 16,3572           55573                           TS       TEMREG                                #        OVERFLOW PROTECT
000404: 16,3573           13576                           TCF      +3                                    #            "       "
000405: 16,3574           50000                           INDEX    A                                     #            "       "
000406: 16,3575           45014                           CS       LIMITS                                #            "       "
000407: 16,3576           55573                           TS       TEMREG                                #  JET FIRE TIME AT 625 MICROSEC/BIT
000408: 16,3577           00006                           EXTEND                                         #  POS MEANS POSITIVE ROLL TORQUE.
000409: 16,3600           13663                           BZF      NOROLL
000410:
000411:                                                                                                  #  JET FIRE TIME IS NZ, TEST FOR JETS NOW ON.
000412:
000413: 16,3601           31573                           CAE      TEMREG                                #  DESIRED CHANGE IN OGARATE
000414: 16,3602           00006                           EXTEND
000415: 16,3603           71571                           MP       ROLLFIRE                              #  (SGN OF TORQUE..ZERO IF JETS NOW OFF)
000416: 16,3604           10000                           CCS      A
000417: 16,3605           13611                           TCF      MOREROLL                              #  CONTINUE FIRING WITH PRESENT POLARITY
000418: 16,3606           13614                           TCF      NEWROLL                               #  START NEW FIRING NOW, PLUS
000419: 16,3607           13663                           TCF      NOROLL                                #  TERMINATE OLD FIRING, NEW SIGN REQUESTED
000420: 16,3610           13614                           TCF      NEWROLL                               #  START NEW FIRING NOW, MINUS
000421:
000422:                                                                                                  #  CONTINUE PRESENT FIRING
000423:
000424: 16,3611           35035        MOREROLL           CAF      ZERO
000425: 16,3612           55672                           TS       I                                     #  USE TEMP. AS MOREROLL SWITCH
000426: 16,3613           13625                           TCF      MAXTFIRE
000427:
000428:                                                                                                  #  START NEW FIRING, BUT CHECK IF GREATER THAN MIN FIRE TIME.
000429:
000430: 16,3614           11573        NEWROLL            CCS      TEMREG                                #  CALL THIS T6FIRE
000431: 16,3615           65033                           AD       ONE
000432: 16,3616           13620                           TCF      +2
000433: 16,3617           65033                           AD       ONE
000434: 16,3620           40000                           COM                                            #  -MAG(T6FIRE)
000435: 16,3621           63767                           AD       TMINFIRE                              #  TMINFIRE-MAG(T6FIRE)
000436: 16,3622           40000                           COM
000437: 16,3623           00006                           EXTEND
000438: 16,3624           63663        MINTST             BZMF     NOROLL                                #  IF NOT GREATER THAN TMINFIRE (NEW FIRE)
000439:
000440:                                                                                                  #  PROCEED WITH NEW FIRING, BUT NOT LONGER THAN TMAXFIRE.
000441:
000442: 16,3625           31573        MAXTFIRE           CA       TEMREG
000443: 16,3626           00006                           EXTEND
000444: 16,3627           75031                           MP       1/TMXFIR                              #  I.E. 1/TMAXFIRE
000445: 16,3630           00006                           EXTEND
000446: 16,3631           13637        MAXTST             BZF      NOMXFIRE                              #  IF LESS THAN TMAXFIRE
000447:
000448: 16,3632           10000                           CCS      A
000449: 16,3633           33770                           CAF      TMAXFIRE                              #  USE MAXIMUM
000450: 16,3634           13636                           TCF      +2
000451: 16,3635           43770                           CS       TMAXFIRE                              #  USE MAXIMUM
000452: 16,3636           55573                           TS       TEMREG
000453:
000454:                                                                                                  #  SET UP SIGN OF REQUIRED TORQUE.
000455:
000456: 16,3637           11573        NOMXFIRE           CCS      TEMREG                                #  FOR TORQUE SIGN
000457: 16,3640           35013                           CA       POSMAX                                #  POSITIVE TORQUE REQUIRED
000458: 16,3641           13643                           TCF      +2
000459: 16,3642           35015                           CA       NEGMAX                                #  NEGATIVE TORQUE REQUIRED
000460: 16,3643           55571                           TS       ROLLFIRE                              #  SET ROLLFIRE FOR + OR - TORQUE
000461:
000462: 16,3644           40000                           COM                                            #  COMPLEMENT... POS. FOR NEG. TORQUE
000463: 16,3645           00006                           EXTEND
000464: 16,3646           63651                           BZMF     +3                                    #  POSITIVE TORQUE REQUIRED
000465: 16,3647           41573                           CS       TEMREG
000466: 16,3650           55573                           TS       TEMREG
000467:
000468: 16,3651           31672        FIRELOOK           CA       I                                     #  IS IT MOREROLL
000469: 16,3652           00006                           EXTEND
000470: 16,3653           13655                           BZF      FIREPLUG                              #  YES
000471: 16,3654           13666                           TCF      JETROLL                               #  MAG(T6FIRE) NOW IN TEMREG
000472:
000473: 16,3655           30031        FIREPLUG           CAE      TIME6                                 #  CHECK FOR EXTENDED FIRING
000474: 16,3656           00006                           EXTEND
000475: 16,3657           61573                           SU       TEMREG
000476: 16,3660           00006                           EXTEND
000477: 16,3661           65340        EXTENTST           BZMF     TASKOVER                              #  IF EXTENSION WANTED, DONT, EXIT ROLL DAP
000478: 16,3662           13666                           TCF      JETROLL
000479:
000480: 16,3663           45035        NOROLL             CS       ZERO                                  #  COAST....(NEG ZERO FOR TIME6)
000481: 16,3664           55571                           TS       ROLLFIRE                              #  NOTE, JETS CAN FIRE NEXT PASS
000482: 16,3665           55573                           TS       TEMREG
000483:
000484: 16,3666           00006        JETROLL            EXTEND
000485: 16,3667           33757                           DCA      NOROL1T6
000486: 16,3670           53311                           DXCH     T6LOC
000487: 16,3671           31573                           CA       TEMREG                                #  ENTER JET FIRING TIME
000488: 16,3672           54031                           TS       TIME6
000489:
000490: 16,3673           31672                           CA       I                                     #  I=0 IF MOREROLL, KEEP SAME JETS ON
000491: 16,3674           00006                           EXTEND
000492: 16,3675           15340        SAMEJETS           BZF      TASKOVER                              #  IF JETS ON KEEP SAME JETS.  EXIT ROLL DAP
000493:
000494: 16,3676           11571                           CCS      ROLLFIRE
000495: 16,3677           13703                           TCF      +TORQUE
000496: 16,3700           13744                           TCF      T6ENABL
000497: 16,3701           13724                           TCF      -TORQUE
000498: 16,3702           13744                           TCF      T6ENABL
000499:
000500:                                                                                                  #  PROCEED WITH PLUS TORQUE.
000501:
000502: 16,3703           31572        +TORQUE            CA       ROLLWORD                              #  WHAT WAS THE LAST +TORQUE COMBINATION
000503: 16,3704           75033                           MASK     BIT1                                  #  WAS IT NO.9-11
000504: 16,3705           00006                           EXTEND
000505: 16,3706           13716                           BZF      NO.9-11                               #  NOT 9-11, SO USE IT THIS TIME
000506:
000507: 16,3707           45033        NO.13-15           CS       BIT1
000508: 16,3710           71572                           MASK     ROLLWORD
000509: 16,3711           55572                           TS       ROLLWORD                              #  CHANGE BIT 1 TO ZERO
000510: 16,3712           35053                           CAF      +ROLL2
000511: 16,3713           00006                           EXTEND
000512: 16,3714           01006                           WRITE    CHAN6
000513: 16,3715           13744                           TCF      T6ENABL
000514:
000515: 16,3716           35033        NO.9-11            CAF      BIT1                                  #  1ST + JETS TO FIRE (MRCLEAN OS ROLLWORD)
000516: 16,3717           27572                           ADS      ROLLWORD                              #  CHANGE BIT 1 TO ONE
000517: 16,3720           35036                           CAF      +ROLL1
000518: 16,3721           00006                           EXTEND
000519: 16,3722           01006                           WRITE    CHAN6
000520: 16,3723           13744                           TCF      T6ENABL
000521:
000522: 16,3724           31572        -TORQUE            CA       ROLLWORD                              #  WHAT WAS LAST -TORQUE COMBINATION
000523: 16,3725           75032                           MASK     BIT2                                  #  WAS IT NO.12-10
000524: 16,3726           00006                           EXTEND
000525: 16,3727           13737                           BZF      NO.12-10                              #  NOT 12-10, SO USE IT THIS TIME
000526:
000527: 16,3730           45032        NO.16-14           CS       BIT2
000528: 16,3731           71572                           MASK     ROLLWORD
000529: 16,3732           55572                           TS       ROLLWORD                              #  CHANGE BIT 2 TO ZERO
000530: 16,3733           33771                           CAF      -ROLL2
000531: 16,3734           00006                           EXTEND
000532: 16,3735           01006                           WRITE    CHAN6
000533: 16,3736           13744                           TCF      T6ENABL
000534:
000535: 16,3737           35032        NO.12-10           CAF      BIT2                                  #  1ST -JETS TO FIRE (MRCLEAN OS ROLLWORD)
000536: 16,3740           27572                           ADS      ROLLWORD                              #  CHANGE BIT 2 TO ONE
000537: 16,3741           34377                           CAF      -ROLL1
000538: 16,3742           00006                           EXTEND
000539: 16,3743           01006                           WRITE    CHAN6
000540:
000541: 16,3744           35015        T6ENABL            CAF      BIT15
000542: 16,3745           00006                           EXTEND
000543: 16,3746           05013                           WOR      CHAN13
000544: 16,3747           15340        RDAPEND            TCF      TASKOVER                              #  EXIT ROLL DAP
000545:
000546:                                                                                                  #  THIS T6 TASK SHUTS OFF ALL ROLL JETS
000547:
000548: 16,3750           22016        NOROLL1            LXCH     BANKRUPT                              #  SHUT OFF ALL (ROLL) JETS, (A T6 TASK
000549: 16,3751           35035                           CAF      ZERO                                  #        CALLED BY ..JETROLL..)
000550: 16,3752           55571                           TS       ROLLFIRE                              #  ZERO INDICATES JETS NOW OFF
000551: 16,3753           00006                           EXTEND
000552: 16,3754           01006        KILLJETS           WRITE    CHAN6
000553: 16,3755           15351                           TCF      NOQRSM
000554:
000555:                                                                                                  #  CONSTANTS FOR ROLL AUTOPILOT....
000556:
000557: 16,3756  E6,1704                                  EBANK=   BZERO
000558: 16,3756           03750 34066  NOROL1T6           2CADR    NOROLL1
000559:
000560: 16,3760           00344        DB                 DEC      .01388889                             #  DEAD BAND (5 DEG), SC.AT B+0 REV
000561:
000562: 16,3761           06315        -SLOPE             DEC      0.2                                   #  -SWITCHLINE SLOPE(0.2 PER SEC) SC.AT B+0
000563:                                                                                                  #        PER SEC
000564: 16,3762           00111        LMCRATE            DEC      .00027778  B+4                        #  LIMIT CYCLE RATE (0.1 DEG/SEC) SC.AT
000565:                                                                                                  #        B-4 REV/SEC
000566: 16,3763           00510        INTERCEP           DEC      .0025      B+3                        #  DB(-SLOPE) - LMCRATE, SC.AT B-3 REV/SC
000567:
000568: 16,3764           01330        MINLIM             DEC      .00277778  B+4                        #  RATELIM,MIN (1DEG/SEC), SC.AT B-4 REV/SC
000569:
000570: 16,3765           00027        1/MINLIM           DEC      360        B-18                       #  RECIPROCAL THEREOF, SHIFTED 14 RIGHT
000571:
000572: 16,3766           07071        MAXLIM             DEC      .01388889  B+4                        #  RATELIM,MAX (5DEG/SEC), SC.AT B-4 REV/SC
000573:
000574: 16,3767           00030        TMINFIRE           DEC      1.5        B+4                        #  15 MS (14MIN), SC.AT 16 BITS/CS
000575:
000576: 16,3770           07640        TMAXFIRE           DEC      250        B+4                        #  2.5 SEC, SC.AT 16 BITS/CS
000577:
000578: 16,3771     5031               1/TMXFIR           =        BIT3                                  #  RECIPROCAL THEREOF, SHIFTED 14 RIGHT,
000579:                                                                                                  #        ROUNDS TO OCT00004, SO ALLOWS 2.56
000580:                                                                                                  #        SEC FIRINGS BEFORE APPLYING LIMIT
000581: 16,3771     7665               T6SCALE            =        PRIO31                                #  (B+3) (16 BITS/CS)  (100CS/SEC)
000582:
000583: 16,3771     5036               +ROLL1             =        FIVE                                  #  ONBITS FOR JETS 9 AND 11
000584: 16,3771     5053               +ROLL2             =        OCT120                                #  ONBITS FOR JETS 13 AND 15
000585: 16,3771     4377               -ROLL1             =        TEN                                   #  ONBITS FOR JETS 12 NAD 10
000586: 16,3771           00240        -ROLL2             OCT      240                                   #  ONBITS FOR JETS 16 AND 14
000587:

End of include-file TVCROLLDAP.agc.  Parent file is MAIN.agc


