
Source Code


000002:                                                                                                  ## Copyright:   Public domain.
000003:                                                                                                  ## Filename:    TVCSTROKETEST.agc
000004:                                                                                                  ## Purpose:     A section of Comanche revision 067.
000005:                                                                                                  ##              It is part of the reconstructed source code for the flight
000006:                                                                                                  ##              software for the Command Module's (CM) Apollo Guidance Computer
000007:                                                                                                  ##              (AGC) for Apollo 12. No original listings of this program are
000008:                                                                                                  ##              available; instead, this file was created via dissassembly of
000009:                                                                                                  ##              dumps of Comanche 067 core rope modules and comparison with
000010:                                                                                                  ##              other AGC programs.
000011:                                                                                                  ## Assembler:   yaYUL
000012:                                                                                                  ## Contact:     Ron Burkey <info@sandroid.org>.
000013:                                                                                                  ## Website:     www.ibiblio.org/apollo/index.html
000014:                                                                                                  ## Mod history: 2023-08-16 MAS  Created from Comanche 055.
000015:
000016:                                                                                                  #  NAME          STROKE TEST PACKAGE             (INCLUDING INITIALIZATION PACKAGE)
000017:                                                                                                  #  LOG SECTION...TVCSTROKETEST                   SUBROUTINE...DAPCSM
000018:                                                                                                  #  MODIFIED BY SCHLUNDT                          21 OCTOBER 1968
000019:
000020:                                                                                                  #  FUNCTIONAL DESCRIPTION....
000021:                                                                                                  #        STROKE TEST PACKAGE GENERATES A WAVEFORM DESIGNED TO EXCITE BENDING
000022:                                                                                                  #        STRKTSTI (STROKE TEST INITIALIZATION) IS CALLED AS A JOB BY VB68.
000023:                                                                                                  #                IT INITIALIZES ALL ERASABLES REQD FOR A STROKE TEST, AND
000024:                                                                                                  #                THEN TESTS FOR CSM/LM (BIT 13 OF DAPDATR1). IF CSM/LM,
000025:                                                                                                  #                IN EITHER HIGH OR LOW-BANDWIDTH MODE, THE TEST IS STARTED
000026:                                                                                                  #                IMMEDIATELY.  IF NOT CSM/LM, PROGRAM EXITS WITH NO ACTION.
000027:                                                                                                  #        HACK (STROKE TEST) GENERATES THE WAVEFORM BY DUMPING PULSE BURSTS
000028:                                                                                                  #                OF PROPER SIGN AND IN PROPER SEQUENCE DIRECTLY INTO
000029:                                                                                                  #                TVCPITCH, WORKING IN CONJUNCITON WITH BOTH PITCH AND YAW
000030:                                                                                                  #                TVC DAPS, WITH INTERMEDIATE WAITLIST CALLS.  NOTE, HOWEVER
000031:                                                                                                  #                THAT THE STROKE TEST IS PERFORMED ONLY IN THE PITCH AXIS.
000032:                                                                                                  #                AN EXAMPLE WAVEFORM IS GIVEN BELOW, TO DEMONSTRATE STROKE-
000033:                                                                                                  #                TEST PARAMETER SELECTION
000034:                                                                                                  #        RESTARTS CAUSE TEST TO BE TERMINATED.  ANOTHER V68 REQD IF TEST
000035:                                                                                                  #                IS TO BE RE-RUN.
000036:                                                                                                  #        PULSE BURST SIZE IS PAD-LOADED (ESTROKER) SO THAT AMPLITUDE OF
000037:                                                                                                  #                WAVEFORM CAN BE CHANGED.  THERE ARE TEN PULSE BURSTS IN
000038:                                                                                                  #                THE HALF-AMPLITUDE OF THE FIRST FREQUENCY SET IN THE
000039:                                                                                                  #                STANDARD WAVEFORM.  AMPLITUDE IS 10(ESTROKER)(1/42.15),
000040:                                                                                                  #                NOMINALLY 50/42.15 = 1.185 DEG
000041:
000042:                                                                                                  #  CALLING SEQUENCE....
000043:                                                                                                  #        EXTENDED VERB 68 SETS UP STRKTSTI JOB
000044:                                                                                                  #        PITCH AND YAW TVCDAPS, FINDING STROKER NON-ZERO, DO A ..TC HACK..
000045:                                                                                                  #        AN INTERNALLY-GENERATED WAITLIST CALL ENTERS AT ..HACKWLST..
000046:
000047:                                                                                                  #  NORMAL EXIT MODES....
000048:                                                                                                  #        TC BUNKER (..Q.. IF ENTRY FROM DAP, ..TCTSKOVR.. IF FROM WAITLIST) LIST
000049:
000050:                                                                                                  #  SUBROUTINES CALLED....
000051:                                                                                                  #        WAITLIST
000052:
000053:                                                                                                  #  ALARM OR ABORT EXIT MODES....
000054:                                                                                                  #        NONE
000055:
000056:                                                                                                  #  ERASABLE INITIALIZATION REQUIRED....
000057:                                                                                                  #        ESTROKER (PAD-LOAD)
000058:                                                                                                  #        STROKER, CADDY, REVS, CARD, N
000059:
000060:                                                                                                  #  OUTPUT....
000061:                                                                                                  #        STRKTSTI...INITIALIZATION FOR STROKE TEST
000062:                                                                                                  #        HACK, HACKWLST...PULSE BURSTS INTO TVCPITCH VIA ..ADS..
000063:                                                                                                  #                          RESETS STROKER = +0 WHEN TEST COMPLETED
000064:
000065:                                                                                                  #  DEBRIS....
000066:                                                                                                  #        N = CADDY = +0, CARD = -0, REVS = -1
000067:                                                                                                  #        BUNKER
000068:
000069:                                                                                                  #  EXAMPLE STROKE TEST WAVE FORM, DEMONSTRATING PARAMETER SELECTION
000070:
000071:                                                                                                  #  NOTE....THIS IS NOT THE OFFICIAL WAVEFORM....
000072:
000073:                                                                                                  #         **              **
000074:                                                                                                  #         **              **
000075:                                                                                                  #         **              **             EXAMPLE WAVEFORM (EACH * REPRESENTS
000076:                                                                                                  #        *  *            *  *                 85.41 ARCSEC OF ACTUATOR CMND)
000077:                                                                                                  #        *  *            *  *
000078:                                                                                                  #        *  *            *  *
000079:                                                                                                  #       *    *          *    *          **      **      **      **      **
000080:                                                                                                  #       *    *          *    *          **      **      **      **      **
000081:                                                                                                  #       *    *          *    *          **      **      **      **      **
000082:                                                                                                  #      *      *        *      *        *  *    *  *    *  *    *  *    *  *    **  **  **  **  **
000083:                                                                                                  #      *      *        *      *        *  *    *  *    *  *    *  *    *  *    **  **  **  **  **
000084:                                                                                                  #      *      *        *      *        *  *    *  *    *  *    *  *    *  *    **  **  **  **  **
000085:                                                                                                  #  -----------------------------------------------------------------------------------------------------
000086:                                                                                                  #              *      *        *      *    *  *    *  *    *  *    *  *    *  *  **  **  **  **  **
000087:                                                                                                  #              *      *        *      *    *  *    *  *    *  *    *  *    *  *  **  **  **  **  **
000088:                                                                                                  #              *      *        *      *    *  *    *  *    *  *    *  *    *  *  **  **  **  **  **
000089:                                                                                                  #               *    *          *    *      **      **      **      **      **
000090:                                                                                                  #               *    *          *    *      **      **      **      **      **
000091:                                                                                                  #               *    *          *    *      **      **      **      **      **
000092:                                                                                                  #                *  *            *  *
000093:                                                                                                  #                *  *            *  *
000094:                                                                                                  #                *  *            *  *
000095:                                                                                                  #                 **              **
000096:                                                                                                  #                 **              **
000097:                                                                                                  #                 **              **
000098:
000099:                                                                                                  #  FOR THIS (UNOFFICIAL, EXAMPLE) WAVEFORM, THE REQUIRED PARAMETERS ARE AS FOLLOWS....
000100:
000101:                                                                                                  #        FCARD    = +3           (NUMBER OF SETS)
000102:                                                                                                  #        ESTROKER = +3           (PULSE BURST SIZE, SC.AT 85.41 ARCSEC/BIT)
000103:
000104:                                                                                                  #        SET1..
000105:                                                                                                  #                FREVS   = +3    (NUMBER REVERSALS MINUS 1)
000106:                                                                                                  #                FCADDY  = +4    (NUMBER OF PULSE BURSTS IN 1/2 AMPLITUDE)
000107:                                                                                                  #        SET2..
000108:                                                                                                  #                FCARD1  = +9    (NUMBER REVERSALS MINUS 1)
000109:                                                                                                  #                FCARD4  = +2    (NUMBER OF PULSE BURSTS IN 1/2 AMPLITUDE)
000110:                                                                                                  #        SET3..
000111:                                                                                                  #                FCARD2  = +9    (NUMBER REVERSALS MINUS 1)
000112:                                                                                                  #                FCARD5  = +1    (NUMBER OF PULSE BURSTS IN 1/2 AMPLITUDE)
000113:                                                                                                  #        SET4..
000114:                                                                                                  #                FCARD3  = +0    (NUMBER REVERSALS MINUS 1)
000115:                                                                                                  #                FCARD6  = +0    (NUMBER OF PULSE BURSTS IN 1/2 AMPLITUDE)
000116:
000117:                                                                                                  #  STROKE TEST INITIALIZATION PACKAGE (AS A JOB, FROM VERB 68)
000118:
000119: 17,2610                                           BANK     17
000120: 20,2000                                           SETLOC   DAPS2
000121: 20,2000                                           BANK
000122:
000123: 20,3540                                           COUNT*   $$/STRK
000124: 20,3540  E6,1657                                  EBANK=   CADDY
000125:
000126: 20,3540           03551        STRKTSTI           TCR      TSTINIT                               #  STROKE TEST INITIALIZATION PKG (CALLED
000127:                                                                                                  #  AS A JOB BY VERB68)
000128:
000129: 20,3541           00004        STRKCHK            INHINT
000130:
000131: 20,3542           31466                           CAE      DAPDATR1                              #  CHECK FOR CSM/LM CONFIGURATION
000132: 20,3543           75016                           MASK     BIT14
000133: 20,3544           00006                           EXTEND
000134: 20,3545           13550                           BZF      +3
000135:
000136: 20,3546           31413                           CAE      ESTROKER                              #  BEGIN ON NEXT DAP PASS (PITCH OR YAW)
000137: 20,3547           55574                           TS       STROKER                               #  (STROKING DONE IN PITCH ONLY, HOWEVER)
000138:
000139: 20,3550           15233                           TCF      ENDOFJOB
000140:
000141: 20,3551           43561        TSTINIT            CS       FCADDY                                #  NORMAL ENTRY FROM STRKTSTI
000142: 20,3552           55657                           TS       CADDY
000143: 20,3553           55660                           TS       N                                     #        NOTE SGN CHNG FCADDY(+) TO CADDY(-)
000144:
000145: 20,3554           33562                           CAF      FREVS
000146: 20,3555           55662                           TS       REVS
000147:
000148: 20,3556           43563                           CS       FCARD                                 #        NOTE SGN CHNG FCARD(+) TO CARD(-)
000149: 20,3557           55663                           TS       CARD
000150:
000151: 20,3560           00002                           TC       Q                                     #  RETURN TO STRKTSTI+1 (OR CHKSTRK+2 OR +4)
000152:
000153:                                                                                                  #  THE OFFICIAL STROKE TEST WAVEFORM (3 JAN, 1967) CONSISTS OF FOUR STROKE SETS, AS FOLLOWS....
000154:
000155:                                                                                                  #        SET 1...10 BURSTS IN 1/2 AMP,   4 REVERSALS
000156:                                                                                                  #        SET 2... 6 BURSTS IN 1/2 AMP,   6 REVERSALS
000157:                                                                                                  #        SET 3... 5 BURSTS IN 1/2 AMP,  10 REVERSALS
000158:                                                                                                  #        SET 4... 4 BURSTS IN 1/2 AMP,  14 REVERSALS
000159:
000160:                                                                                                  #  THE PULSE BURST SIZE (ESTROKER) IS PAD-LOADED (5 BITS AS OF 3 JAN, 1967)
000161:                                                                                                  #  THE REMAINING WAVEFORM-GENERATING PARAMETERS ARE AS FOLLOWS....
000162:
000163: 20,3561           00012        FCADDY             DEC      10         B-14                       #  NO. PULSE BURSTS IN 1/2 AMP, SET1..(+10)
000164: 20,3562           00003        FREVS              DEC      3          B-14                       #  NO. REVERSALS MINUS 1, SET1........(  3)
000165:
000166: 20,3563           00004        FCARD              DEC      4          B-14                       #  NO. STROKE SETS....................(+ 4)
000167:
000168: 20,3564           00005        FCARD1             DEC      5          B-14                       #  NO. REVERSALS MINUS 1, SET2........(  5)
000169:
000170: 20,3565           00011        FCARD2             DEC      9          B-14                       #                            3........(  9)
000171: 20,3566           00015        FCARD3             DEC      13         B-14                       #                            4........( 13)
000172:
000173: 20,3567           00006        FCARD4             DEC      6          B-14                       #  NO. PULSE BURSTS IN 1/2 AMP, SET2..(+ 6)
000174: 20,3570           00005        FCARD5             DEC      5          B-14                       #                               SET3..(+ 5)
000175: 20,3571           00004        FCARD6             DEC      4          B-14                       #                               SET4..(+ 4)
000176:
000177: 20,3572     5032               20MS               =        BIT2
000178:
000179:                                                                                                  #  STROKE TEST PACKAGE PROPER....
000180:
000181: 20,3572  E6,1661                                  EBANK=   BUNKER
000182:
000183: 20,3572           00006        HACK               EXTEND                                         #  ENTRY (IN T5 RUPT) FROM TVCDAPS
000184: 20,3573           23661                           QXCH     BUNKER                                #  SAVE Q FOR DAP RETURN
000185:
000186: 20,3574           35032                           CAF      20MS                                  #  2DAPSX2(PASSES/DAP)X2(CS/PASS)=8CS=TVCDT
000187: 20,3575           05261                           TC       WAITLIST
000188: 20,3576  E6,1661                                  EBANK=   BUNKER
000189: 20,3576           03601 40066                     2CADR    HACKWLST
000190:
000191: 20,3600           13603                           TCF      +3
000192:
000193: 20,3601           34367        HACKWLST           CAF      TCTSKOVR                              #  ENTRY FROM WAITLIST
000194: 20,3602           55661                           TS       BUNKER                                #  BUNKER IS TC TASKOVER
000195:
000196: 20,3603           31574                           CA       STROKER                               #  STROKE
000197: 20,3604           26054                           ADS      TVCPITCH
000198:
000199: 20,3605           35021                           CAF      BIT11                                 #  RELEASE THE ERROR COUNTERS
000200: 20,3606           00006                           EXTEND
000201: 20,3607           05014                           WOR      CHAN14
000202: 20,3610           25657                           INCR     CADDY                                 #  COUNT DOWN THE NO. BURSTS, THIS SLOPE
000203: 20,3611           41657                           CS       CADDY
000204: 20,3612           00006                           EXTEND
000205: 20,3613           63615                           BZMF     +2
000206: 20,3614           01661                           TC       BUNKER                                #  EXIT, WHILE ON A SLOPE
000207:
000208: 20,3615           11662                           CCS      REVS
000209: 20,3616           13636                           TCF      REVUP                                 #  POSITIVE REVS
000210: 20,3617           13642                           TCF      REVUP      +4                         #  FINAL REVERSAL, THIS SET
000211:
000212: 20,3620           25663                           INCR     CARD                                  #  NEGATIVE REVS SET LAST PASS, READY FOR
000213: 20,3621           41663                           CS       CARD                                  #        THE NEXT SET.  CHECK IF NO MORE SETS
000214: 20,3622           00006                           EXTEND
000215: 20,3623           13634                           BZF      STROKILL                              #  ALL SETS COMPLETED
000216:
000217: 20,3624           51663                           INDEX    CARD
000218: 20,3625           33567                           CAF      FCARD      +4                         #  PICK UP NO. REVERSALS (-), NEXT SET
000219: 20,3626           55662                           TS       REVS                                  #  REINITIALIZE
000220: 20,3627           51663                           INDEX    CARD
000221: 20,3630           43572                           CS       FCARD      +7                         #  PICK UP NO. BURSTS IN 1/2AMP, NEXT SET
000222: 20,3631           55660                           TS       N                                     #  REINITIALIZE
000223: 20,3632           55657                           TS       CADDY
000224: 20,3633           01661                           TC       BUNKER                                #  EXIT, AT END OF SET
000225:
000226: 20,3634           55574        STROKILL           TS       STROKER                               #  RESET (TO +0) TO END TEST
000227: 20,3635           01661                           TC       BUNKER                                #  EXIT, STROKE TEST FINIS
000228:
000229: 20,3636           55662        REVUP              TS       REVS                                  #  ALL REVERSALS EXCEPT LAST OF SET
000230: 20,3637           31660                           CA       N
000231: 20,3640           60000                           DOUBLE                                         #  2 X 1/2AMP
000232: 20,3641           13645                           TCF      +4
000233:
000234: 20,3642           45033                 +4        CS       ONE                                   #  FINAL REVERSAL, THIS SET
000235: 20,3643           55662                           TS       REVS                                  #  PREPARE TO BRANCH TO NEW BURST
000236: 20,3644           31660                           CA       N                                     #  JUST RETURN TO ZERO, FINAL SLOPE OF SET
000237: 20,3645           55657                           TS       CADDY                                 #  CADUP
000238:
000239: 20,3646           41574                           CS       STROKER                               #  CHANGE SIGN OF SLOPE
000240: 20,3647           55574                           TS       STROKER
000241: 20,3650           01661                           TC       BUNKER                                #  EXIT AT A REVERSAL (SLOPE CHANGE)
000242:

End of include-file TVCSTROKETEST.agc.  Parent file is MAIN.agc


