
Source Code


000002:                                                                                                  ## Copyright:   Public domain.
000003:                                                                                                  ## Filename:    WAITLIST.agc
000004:                                                                                                  ## Purpose:     A section of Comanche revision 067.
000005:                                                                                                  ##              It is part of the reconstructed source code for the flight
000006:                                                                                                  ##              software for the Command Module's (CM) Apollo Guidance Computer
000007:                                                                                                  ##              (AGC) for Apollo 12. No original listings of this program are
000008:                                                                                                  ##              available; instead, this file was created via dissassembly of
000009:                                                                                                  ##              dumps of Comanche 067 core rope modules and comparison with
000010:                                                                                                  ##              other AGC programs.
000011:                                                                                                  ## Assembler:   yaYUL
000012:                                                                                                  ## Contact:     Ron Burkey <info@sandroid.org>.
000013:                                                                                                  ## Website:     www.ibiblio.org/apollo/index.html
000014:                                                                                                  ## Mod history: 2023-08-16 MAS  Created from Comanche 055.
000015:                                                                                                  ##              2024-05-13 MAS  Updated for Comanche 067.
000016:
000017:                                                                                                  #  PROGRAM DESCRIPTION                                           DATE - 10 OCTOBER 1966
000018:                                                                                                  #  MOD NO - 2                                                    LOG SECTION - WAITLIST
000019:                                                                                                  #  MOD BY - MILLER       (DTMAX INCREASED TO 162.5 SEC)          ASSEMBLY SUNBURST REV 5
000020:                                                                                                  #  MOD 3 BY KERNAN       (INHINT INSERTED AT WAITLIST) 2/28/68 SKIPPER REV 4
000021:                                                                                                  #  MOD 4 BY KERNAN       (TWIDDLE IN 54) 3/28/68 SKIPPER REV 13.
000022:
000023:                                                                                                  #  FUNCTIONAL DESCRIPTION -
000024:                                                                                                  #        PART OF A SECTION OF PROGRAMS,- WAITLIST, TASKOVER, T3RUPT, USED TO CALL A PROGRAM, (CALLED A TASK),
000025:                                                                                                  #        WHICH IS TO BEGIN IN C(A) CENTISECONDS.  WAITLIST UPDATES TIME3, LST1 AND LST2.  THE MEANING OF THESE LISTS
000026:                                                                                                  #        FOLLOW.
000027:
000028:                                                                                                  #                C(TIME3) = 16384 -(T1-T) CENTISECONDS, (T=PRESENT TIME, T1-TIME FOR TASK1)
000029:
000030:                                                                                                  #                        C(LST1)         =       -(T2-T1)+1
000031:                                                                                                  #                        C(LST1 +1)      =       -(T3-T2)+1
000032:                                                                                                  #                        C(LST1 +2)      =       -(T4-T3)+1
000033:                                                                                                  #                                        .
000034:                                                                                                  #                                        .
000035:                                                                                                  #                        C(LST1 +6)      =       -(T8-T7)+1
000036:                                                                                                  #                        C(LST1 +7)      =       -(T9-T8)+1
000037:
000038:                                                                                                  #                        C(LST2)         =       2CADR OF TASK1
000039:                                                                                                  #                        C(LST2 +2)      =       2CADR OF TASK2
000040:                                                                                                  #                                        .
000041:                                                                                                  #                                        .
000042:                                                                                                  #                        C(LST2 +14)     =       2CADR OF TASK8
000043:                                                                                                  #                        C(LST2 +16)     =       2CADR OF TASK9
000044:
000045:                                                                                                  #  WARNINGS-
000046:                                                                                                  #  --------
000047:                                                                                                  #        1)      1 <= C(A) <= 16250D (1 CENTISECOND TO 162.5 SEC)
000048:                                                                                                  #        2)      9 TASKS MAXIMUM
000049:                                                                                                  #        3)      TASKS CALLED UNDER INTERRUPT INHIBITED
000050:                                                                                                  #        4)      TASKS END BY TC TASKOVER
000051:
000052:                                                                                                  #  CALLING SEQUENCE -
000053:                                                                                                  #        L-1     CA      DELTAT  (TIME IN CENTISECONDS TO TASK START)
000054:                                                                                                  #        L       TC      WAITLIST
000055:                                                                                                  #        L+1     2CADR   DESIRED TASK
000056:                                                                                                  #        L+2     (MINOR OF 2CADR)
000057:                                                                                                  #        L+3     RELINT          (RETURNS HERE)
000058:
000059:                                                                                                  #  TWIDDLE-
000060:                                                                                                  #  -------
000061:                                                                                                  #        TWIDDLE IS FOR USE WHEN THE TASK BEING SET UP IS IN THE SAME EBANK AND FBANK AS THE USER.  IN
000062:                                                                                                  #        SUCH CASES, IT IMPROVES UPON WAITLIST BY ELIMINATING THE NEED FOR THE BBCON HALF OF THE 2CADR,
000063:                                                                                                  #        SAVING A WORD.  TWIDDLE IS LIKE WAITLIST IN EVERY RESPECT EXCEPT CALLING SEQUENCE, TO WIT-
000064:                                                                                                  #                L-1     CA      DELTAT
000065:                                                                                                  #                L       TC      TWIDDLE
000066:                                                                                                  #                L+1     ADRES   DESIRED TASK
000067:                                                                                                  #                L+2     RELINT          (RETURNS HERE)
000068:
000069:                                                                                                  #  NORMAL EXIT MODES -
000070:                                                                                                  #        AT L+3 OF CALLING SEQUENCE
000071:
000072:                                                                                                  #  ALARM OR ABORT EXIT MODES -
000073:                                                                                                  #        TC      ABORT
000074:                                                                                                  #        OCT     1203    (WAITLIST OVERFLOW - TOO MANY TASKS)
000075:
000076:                                                                                                  #  ERASABLE INITIALIZATION REQUIRED -
000077:                                                                                                  #        ACCOMPLISHED BY FRESH START,--  LST2, ..., LST2 +16 = ENDTASK
000078:                                                                                                  #                                        LST1, ..., LST1 +7  = NEG1/2
000079:
000080:                                                                                                  #  OUTPUT --
000081:                                                                                                  #        LST1 AND LST2 UPDATED WITH NEW TASK AND ASSOCIATED TIME.
000082:
000083:                                                                                                  #  DEBRIS -
000084:                                                                                                  #        CENTRALS - A,Q,L
000085:                                                                                                  #        OTHER    - WAITEXIT, WAITADR, WAITTEMP, WAITBANK
000086:
000087:                                                                                                  #  DETAILED ANALYSIS OF TIMING -
000088:                                                                                                  #        CONTROL WILL NOT BE RETURNED TO THE SPECIFIED ADDRESS (2CADR) IN EXACTLY DELTA T CENTISECONDS.
000089:                                                                                                  #        THE APPROXIMATE TIME MAY BE CALCULATED AS FOLLOWS
000090:                                                                                                  #                LET TO = THE TIME OF THE TC WAITLIST
000091:                                                                                                  #                LET TS = TO +147U + COUNTER INCREMENTS (SET UP TIME)
000092:                                                                                                  #                LET X  = TS -(100TS)/100  (VARIANCE FROM COUNTERS)
000093:                                                                                                  #                LET Y  = LENGTH OF TIME OF INHIBIT INTERRUPT AFTER T3RUPT
000094:                                                                                                  #                LET Z  = LENGTH OF TIME TO PROCESS TASKS WHICH ARE DUE THIS T3RUPT BUT DISPATCHED EARLIER.
000095:                                                                                                  #                (Z=0, USUALLY)
000096:                                                                                                  #                LET DELTD = THE ACTUAL TIME TAKEN TO GIVE CONTROL TO 2CADR
000097:                                                                                                  #        THEN DELTD = TS+DELTA T -X +Y +Z +1.05MS* +COUNTERS*
000098:                                                                                                  #                *-THE TIME TAKEN BY WAITLIST ITSELF AND THE COUNTER TICKING DURING THIS WAITLIST TIME.
000099:                                                                                                  #        IN SHORT, THE ACTUAL TIME TO RETURN CONTROL TO A 2CADR IS AUGMENTED BY THE TIME TO SET UP THE TASK:S
000100:                                                                                                  #        INTERRUPT, ALL COUNTERS TICKING, THE T3RUPT PROCESSING TIME, THE WAITLIST PROCESSING TIME AND THE POSSIBILITY
000101:                                                                                                  #        OF OTHER TASKS INHIBITING THE INTERRUPT.
000102:
000103:    5251                                           BLOCK    02
000104:    5251  E3,1400                                  EBANK=   LST1                                  #  TASK LISTS IN SWITCHED E BANK.
000105:
000106:    5251                                           COUNT    02/WAIT
000107:
000108:    5251           00004        TWIDDLE            INHINT
000109:    5252           54001                           TS       L                                     #  SAVE DELAY TIME IN L
000110:    5253           35013                           CA       POSMAX
000111:    5254           26002                           ADS      Q                                     #  CREATING OVERFLOW AND Q-1 IN Q
000112:    5255           30006                           CA       BBANK
000113:    5256           00006                           EXTEND
000114:    5257           04007                           ROR      SUPERBNK
000115:    5260           56001                           XCH      L
000116:
000117:    5261           00004        WAITLIST           INHINT
000118:    5262           00006                           EXTEND
000119:    5263           65275                           BZMF     WATLST0-
000120:    5264           56002                           XCH      Q                                     #  SAVE DELTA T IN Q AND RETURN IN
000121:    5265           54061                           TS       WAITEXIT                              #  WAITEXIT.
000122:    5266           00006                           EXTEND
000123:    5267           50061                           INDEX    WAITEXIT                              #  IF TWIDDLING, THE TS SKIPS TO HERE
000124:    5270           30001                           DCA      0                                     #  PICK UP 2CADR OF TASK.
000125:    5271           54063                 -1        TS       WAITADR                               #  BBCON WILL REMAIN IN L
000126:    5272           35302        DLY2               CAF      WAITBB                                #  ENTRY FROM FIXDELAY AND VARDELAY.
000127:    5273           56006                           XCH      BBANK
000128:    5274           13246                           TCF      WAIT2
000129:
000130:    5275           05725        WATLST0-           TC       POODOO
000131:    5276           21204                           OCT      21204
000132:
000133:                                                                                                  #  RETURN TO CALLER AFTER TASK INSERTION:
000134:
000135:    5277           52062        LVWTLIST           DXCH     WAITEXIT
000136:    5300           65032                           AD       TWO
000137:    5301           52006                           DTCB
000138:
000139:    5302  E3,1400                                  EBANK=   LST1
000140:    5302           02063        WAITBB             BBCON    WAIT2
000141:
000142:                                                                                                  #  RETURN TO CALLER +2 AFTER WAITING DT SPECIFIED AT CALLER +1.
000143:
000144:    5303           50002        FIXDELAY           INDEX    Q                                     #  BOTH ROUTINES MUST BE CALLED UNDER
000145:    5304           30000                           CAF      0                                     #  WAITLIST CONTROL AND TERMINATE THE TASK
000146:    5305           24002                           INCR     Q                                     #  IN WHICH THEY WERE CALLED.
000147:
000148:                                                                                                  #  RETURN TO CALLER +1 AFTER WAITING THE DT AS ARRIVING IN A.
000149:
000150:    5306           56002        VARDELAY           XCH      Q                                     #  DT TO Q.  TASK ADRES TO WAITADR.
000151:    5307           54063                           TS       WAITADR
000152:    5310           30006                           CA       BBANK                                 #  BBANK IS SAVED DURING DELAY.
000153:    5311           00006                           EXTEND
000154:    5312           04007                           ROR      SUPERBNK                              #  ADD SBANK TO BBCON.
000155:    5313           54001                           TS       L
000156:    5314           35317                           CAF      DELAYEX
000157:    5315           54061                           TS       WAITEXIT                              #  GO TO TASKOVER AFTER TASK ENTRY.
000158:    5316           15272                           TCF      DLY2
000159:
000160:    5317           15336        DELAYEX            TCF      TASKOVER   -2                         #  RETURNS TO TASKOVER
000161:
000162:                                                                                                  #  ENDTASK MUST BE ENTERED IN FIXED-FIXED SO IT IS DISTINGUISHABLE BY ITS ADRES ALONE.
000163:
000164:    5320  E3,1400                                  EBANK=   LST1
000165:    5320           72455 73714  ENDTASK            -2CADR   SVCT3
000166:
000167:    5322           10076        SVCT3              CCS      FLAGWRD2                              #  DRIFT FLAG
000168:    5323           15340                           TCF      TASKOVER
000169:    5324           15340                           TCF      TASKOVER
000170:    5325           15326                           TCF      +1
000171:
000172:    5326           11322                           CCS      IMUCADR                               #  DON'T DO NBDONLY IF SOMEONE ELSE IS IN
000173:    5327           17717                           TCF      SVCT3X
000174:    5330           15333                           TCF      +3
000175:    5331           17717                           TCF      SVCT3X
000176:    5332           17717                           TCF      SVCT3X
000177:    5333           37672                 +3        CAF      PRIO35                                #  COMPENSATE FOR NBD COEFFICIENTS ONLY.
000178:    5334           05150                           TC       NOVAC                                 #        ENABLE EVERY 81.93 SECONDS
000179:    5335  E3,1460                                  EBANK=   NBDX
000180:    5335           03542 14063                     2CADR    NBDONLY
000181:
000182:    5337           15340                           TCF      TASKOVER
000183:
000184:    6000                                           SETLOC   FFTAG6
000185:    6000                                           BANK
000186:
000187:    7717           05303        SVCT3X             TC       FIXDELAY                              #  DELAY MAX OF 2 TIMES FOR IMU ZERO
000188:    7720           00764                           DEC      500        B-14
000189:    7721           05322                           TC       SVCT3                                 #  CHECK DRIFT FLAG AGAIN
000190:
000191:                                                                                                  #  BEGIN TASK INSERTION.
000192:
000193: 01,3246                                           BANK     01
000194: 01,3246                                           COUNT    01/WAIT
000195:
000196: 01,3246           54062        WAIT2              TS       WAITBANK                              #  BBANK OF CALLING PROGRAM.
000197: 01,3247           40026                           CS       TIME3
000198: 01,3250           65024                           AD       BIT8                                  #  BIT 8 = OCT 200
000199: 01,3251           10000                           CCS      A                                     #  TEST 200 - C(TIME3).  IF POSITIVE,
000200:                                                                                                  #  IT MEANS THAT TIME3 OVERFLOW HAS OCCURRED PRIOR TO CS TIME3 AND THAT
000201:                                                                                                  #  C(TIME3) = T - T1, INSTEAD OF 1.0 - (T1 - T).  THE FOLLOWING FOUR
000202:                                                                                                  #  ORDERS SET C(A) = TD - T1 + 1 IN EITHER CASE.
000203:
000204: 01,3252           66056                           AD       OCT40001                              #  OVERFLOW HAS OCCURRED.  SET C(A) =
000205: 01,3253           40000                           CS       A                                     #  T - T1 + 1.0 - 201
000206:
000207:                                                                                                  #  NORMAL CASE (C(A) NNZ) YIELDS SAME C(A):  -( -(1.0-(T1-T)) + 200) - 1
000208:
000209: 01,3254           63402                           AD       OCT40201
000210: 01,3255           60002                           AD       Q                                     #  RESULT = TD - T1 + 1.
000211:
000212: 01,3256           10000                           CCS      A                                     #  TEST TD - T1 +1
000213:
000214: 01,3257           61400                           AD       LST1                                  #  IF TD - T1 POS, GO TO WTLST5 WITH
000215: 01,3260           13322                           TCF      WTLST5                                #  C(A) = (TD - T1) + C(LST1) = TD-T2+1
000216:
000217: 01,3261           13262                           NOOP
000218: 01,3262           40002                           CS       Q
000219:
000220:                                                                                                  #  NOTE THAT THIS PROGRAM SECTION IS NEVER ENTERED WHEN T-T1 G/E -1,
000221:                                                                                                  #  SINCE TD-T1+1 = (TD-T) + (T-T1+1), AND DELTA T = TD-T G/E +1.  (G/E
000222:                                                                                                  #  SYMBOL MEANS GREATER THAN OR EQUAL TO).  THUS THERE NEED BE NO CON-
000223:                                                                                                  #  CERN OVER A PREVIOUS OR IMMINENT OVERFLOW OF TIME3 HERE.
000224:
000225: 01,3263           65016                           AD       POS1/2                                #  WHEN TD IS NEXT, FORM QUANTITY
000226: 01,3264           65016                           AD       POS1/2                                #        1.0 - DELTA T = 1.0 - (TD - T)
000227: 01,3265           56026                           XCH      TIME3
000228: 01,3266           65015                           AD       NEGMAX
000229: 01,3267           60002                           AD       Q                                     #  1.0 - DELTAT T NOW COMPLETE.
000230: 01,3270           00006                           EXTEND                                         #  ZERO INDEX Q.
000231: 01,3271           22007                           QXCH     7                                     #  (ZQ)
000232:
000233: 01,3272           57400        WTLST4             XCH      LST1
000234: 01,3273           57401                           XCH      LST1       +1
000235: 01,3274           57402                           XCH      LST1       +2
000236: 01,3275           57403                           XCH      LST1       +3
000237: 01,3276           57404                           XCH      LST1       +4
000238: 01,3277           57405                           XCH      LST1       +5
000239: 01,3300           57406                           XCH      LST1       +6
000240: 01,3301           57407                           XCH      LST1       +7
000241:
000242: 01,3302           30063                           CA       WAITADR                               #  (MINOR PART OF TASK CADR HAS BEEN IN L.)
000243: 01,3303           50002                           INDEX    Q
000244: 01,3304           13305                           TCF      +1
000245:
000246: 01,3305           53411                           DXCH     LST2
000247: 01,3306           53413                           DXCH     LST2       +2
000248: 01,3307           53415                           DXCH     LST2       +4
000249: 01,3310           53417                           DXCH     LST2       +6
000250: 01,3311           53421                           DXCH     LST2       +8D
000251: 01,3312           53423                           DXCH     LST2       +10D                       #  AT END, CHECK THAT C(LST2 +10) IS STD
000252: 01,3313           53425                           DXCH     LST2       +12D
000253: 01,3314           53427                           DXCH     LST2       +14D
000254: 01,3315           53431                           DXCH     LST2       +16D
000255: 01,3316           65320                           AD       ENDTASK                               #  END ITEM, AS CHECK FOR EXCEEDING
000256:                                                                                                  #  THE LENGTH OF THE LIST.
000257: 01,3317           00006                           EXTEND                                         #  DUMMY TASK ADRES SHOULD BE IN FIXED-
000258: 01,3320           15277                           BZF      LVWTLIST                              #  FIXED SO ITS ADRES ALONE DISTINGUISHES
000259: 01,3321           13375                           TCF      WTABORT                               #  IT.
000260:
000261: 01,3322           10000        WTLST5             CCS      A                                     #  TEST TD - T2 + 1
000262: 01,3323           61401                           AD       LST1       +1
000263: 01,3324           13330                           TCF      +4
000264: 01,3325           65033                           AD       ONE
000265: 01,3326           03403                           TC       WTLST2
000266: 01,3327           00001                           OCT      1
000267:
000268: 01,3330           10000                 +4        CCS      A                                     #  TEST TD - T3 + 1
000269: 01,3331           61402                           AD       LST1       +2
000270: 01,3332           13336                           TCF      +4
000271: 01,3333           65033                           AD       ONE
000272: 01,3334           03403                           TC       WTLST2
000273: 01,3335           00002                           OCT      2
000274:
000275: 01,3336           10000                 +4        CCS      A                                     #  TEST TD - T4 + 1
000276: 01,3337           61403                           AD       LST1       +3
000277: 01,3340           13344                           TCF      +4
000278: 01,3341           65033                           AD       ONE
000279: 01,3342           03403                           TC       WTLST2
000280: 01,3343           00003                           OCT      3
000281:
000282: 01,3344           10000                 +4        CCS      A                                     #  TEST TD - T5 + 1
000283: 01,3345           61404                           AD       LST1       +4
000284: 01,3346           13352                           TCF      +4
000285: 01,3347           65033                           AD       ONE
000286: 01,3350           03403                           TC       WTLST2
000287: 01,3351           00004                           OCT      4
000288:
000289: 01,3352           10000                 +4        CCS      A                                     #  TEST TD - T6 + 1
000290: 01,3353           61405                           AD       LST1       +5
000291: 01,3354           13360                           TCF      +4
000292: 01,3355           65033                           AD       ONE
000293: 01,3356           03403                           TC       WTLST2
000294: 01,3357           00005                           OCT      5
000295:
000296: 01,3360           10000                 +4        CCS      A                                     #  TEST TD - T7 + 1
000297: 01,3361           61406                           AD       LST1       +6
000298: 01,3362           13366                           TCF      +4
000299: 01,3363           65033                           AD       ONE
000300: 01,3364           03403                           TC       WTLST2
000301: 01,3365           00006                           OCT      6
000302:
000303: 01,3366           10000                 +4        CCS      A
000304: 01,3367           61407                           AD       LST1       +7
000305: 01,3370           13374                           TCF      +4
000306: 01,3371           65033                           AD       ONE
000307: 01,3372           03403                           TC       WTLST2
000308: 01,3373           00007                           OCT      7
000309:
000310: 01,3374           10000                 +4        CCS      A
000311: 01,3375           07755        WTABORT            TC       BAILOUT                               #  NO ROOM IN THE INN.
000312: 01,3376           31203                           OCT      31203
000313:
000314: 01,3377           65033                           AD       ONE
000315: 01,3400           03403                           TC       WTLST2
000316: 01,3401           00010                           OCT      10
000317:
000318: 01,3402           40201        OCT40201           OCT      40201
000319:
000320:                                                                                                  #  THE ENTRY TO WTLST2 JUST PRECEDING OCT N IS FOR T  LE TD LE T   -1.
000321:                                                                                                  #                                                   N           N+1
000322:
000323:                                                                                                  #  (LE MEANS LESS THAN OR EQUAL TO).  AT ENTRY, C(A) = -(TD - T   + 1)
000324:                                                                                                  #                                                              N+1
000325:
000326:                                                                                                  #  THE LST1 ENTRY-(T   -T +1) IS TO BE REPLACED BY -(TD - T  + 1), AND
000327:                                                                                                  #                   N+1  N                                 N
000328:
000329:                                                                                                  #  THE ENTRY-(T   - TD + 1) IS TO BE INSERTED IMMEDIATELY FOLLOWING.
000330:                                                                                                  #              N+1
000331:
000332: 01,3403           54064        WTLST2             TS       WAITTEMP                              #  C(A) = -(TD - T + 1)
000333: 01,3404           50002                           INDEX    Q
000334: 01,3405           30000                           CAF      0
000335: 01,3406           54002                           TS       Q                                     #  INDEX VALUE INTO Q.
000336:
000337: 01,3407           35033                           CAF      ONE
000338: 01,3410           60064                           AD       WAITTEMP
000339: 01,3411           50002                           INDEX    Q                                     #  C(A) = -(TD - T ) + 1.
000340: 01,3412           27377                           ADS      LST1       -1                         #                 N
000341:
000342: 01,3413           40064                           CS       WAITTEMP
000343: 01,3414           50002                           INDEX    Q
000344: 01,3415           13272                           TCF      WTLST4
000345:
000346:                                                                                                  #  C(TIME3) = 1.0 - (T1 - T)
000347:
000348:                                                                                                  #  C(LST1  ) = - (T2 - T1) + 1
000349:                                                                                                  #  C(LST1+1) = - (T3 - T2) + 1
000350:                                                                                                  #  C(LST1+2) = - (T4 - T3) + 1
000351:                                                                                                  #  C(LST1+3) = - (T5 - T4) + 1
000352:                                                                                                  #  C(LST1+4) = - (T6 - T5) + 1
000353:
000354:                                                                                                  #  C(LST2   ) = 2CADR  TASK1
000355:                                                                                                  #  C(LST2+2 ) = 2CADR  TASK2
000356:                                                                                                  #  C(LST2+4 ) = 2CADR  TASK3
000357:                                                                                                  #  C(LST2+6 ) = 2CADR  TASK4
000358:                                                                                                  #  C(LST2+8 ) = 2CADR  TASK5
000359:                                                                                                  #  C(LST2+10) = 2CADR  TASK6
000360:
000361:                                                                                                  #  ENTERS HERE ON T3 RUPT TO DISPATCH WAITLISTED TASK.
000362:
000363: 01,3416           00006        T3RUPT             EXTEND
000364: 01,3417           04007                           ROR      SUPERBNK                              #  READ CURRENT SUPERBANK VALUE AND
000365: 01,3420           54016                           TS       BANKRUPT                              #  SAVE WITH E AND F BANK VALUES.
000366: 01,3421           00006                           EXTEND
000367: 01,3422           22012                           QXCH     QRUPT
000368:
000369: 01,3423           35014        T3RUPT2            CAF      NEG1/2                                #  DISPATCH WAITLIST TASK.
000370: 01,3424           57407                           XCH      LST1       +7
000371: 01,3425           57406                           XCH      LST1       +6
000372: 01,3426           57405                           XCH      LST1       +5
000373: 01,3427           57404                           XCH      LST1       +4                         #  1. MOVE UP LST1 CONTENTS, ENTERING
000374: 01,3430           57403                           XCH      LST1       +3                         #     A VALUE OF 1/2 +1 AT THE BOTTOM
000375: 01,3431           57402                           XCH      LST1       +2                         #     FOR T6-T5, CORRESPONDING TO THE
000376: 01,3432           57401                           XCH      LST1       +1                         #     INTERVAL 81.91 SEC FOR ENDTASK.
000377: 01,3433           57400                           XCH      LST1
000378: 01,3434           65013                           AD       POSMAX                                #  2. SET T3 = 1.0 - T2 - T USING LIST 1.
000379: 01,3435           26026                           ADS      TIME3                                 #  SO T3 WONT TICK DURING UPDATE.
000380: 01,3436           54734                           TS       RUPTAGN
000381: 01,3437           45035                           CS       ZERO
000382: 01,3440           54734                           TS       RUPTAGN                               #  SETS RUPTAGN TO +1 ON OVERFLOW.
000383:
000384: 01,3441           00006                           EXTEND                                         #  DISPATCH TASK.
000385: 01,3442           45321                           DCS      ENDTASK
000386: 01,3443           53431                           DXCH     LST2       +16D
000387: 01,3444           53427                           DXCH     LST2       +14D
000388: 01,3445           53425                           DXCH     LST2       +12D
000389: 01,3446           53423                           DXCH     LST2       +10D
000390: 01,3447           53421                           DXCH     LST2       +8D
000391: 01,3450           53417                           DXCH     LST2       +6
000392: 01,3451           53415                           DXCH     LST2       +4
000393: 01,3452           53413                           DXCH     LST2       +2
000394: 01,3453           53411                           DXCH     LST2
000395:
000396: 01,3454           56001                           XCH      L
000397: 01,3455           00006                           EXTEND
000398: 01,3456           01007                           WRITE    SUPERBNK                              #  SET SUPERBANK FROM BBCON OF 2CADR
000399: 01,3457           56001                           XCH      L                                     #  RESTORE TO L FOR DXCH Z.
000400: 01,3460           52006                           DTCB
000401:
000402:                                                                                                  #  RETURN, AFTER EXECUTION OF T3 OVERFLOW TASK:
000403:
000404:    5340                                           BLOCK    02
000405:    5340                                           COUNT    02/WAIT
000406:
000407:    5340           10734        TASKOVER           CCS      RUPTAGN                               #  IF +1 RETURN TO T3RUPT, IF -0 RESUME.
000408:    5341           35302                           CAF      WAITBB
000409:    5342           54006                           TS       BBANK
000410:    5343           13423                           TCF      T3RUPT2                               #  DISPATCH NEXT TASK IF IT WAS DUE.
000411:
000412:    5344           30016                           CA       BANKRUPT
000413:    5345           00006                           EXTEND
000414:    5346           01007                           WRITE    SUPERBNK                              #  RESTORE SUPERBANK BEFORE RESUME IS DONE
000415:
000416:    5347           00006        RESUME             EXTEND
000417:    5350           22012                           QXCH     QRUPT
000418:    5351           30016        NOQRSM             CA       BANKRUPT
000419:    5352           56006                           XCH      BBANK
000420:    5353           52011        NOQBRSM            DXCH     ARUPT
000421:    5354           00003                           RELINT
000422:    5355           50017                           RESUME
000423:
000424:                                                                                                  #  LONGCALL
000425:                                                                                                  #  PROGRAM DESCRIPTION                           DATE - 17 MARCH 1967
000426:                                                                                                  #  PROGRAM WRITTEN BY W.H.VANDEVER               LOG SECTION WAITLIST
000427:                                                                                                  #  MOD BY - R. MELANSON TO ADD DOCUMENTATION     ASSEMBLY SUNDISK REV. 100
000428:
000429:                                                                                                  #  FUNCTIONAL DESCRIPTION -
000430:                                                                                                  #        LONGCALL IS CALLED WITH THE DELTA TIME ARRIVING IN A,L SCALED AS TIME2,TIME1 WITH THE 2CADR OF THE TASK
000431:                                                                                                  #        IMMEDIATELY FOLLOWING THE TC LONGCALL.  FOR EXAMPLE, IT MIGHT BE DONE AS FOLLOWS WHERE TIMELOC IS THE NAME OF
000432:                                                                                                  #        A DP REGISTER CONTAINING A DELTA TIME AND WHERE TASKTODO IS THE NAME OF THE LOCATION AT WHICH LONGCALL IS TO
000433:                                                                                                  #        START
000434:
000435:                                                                                                  #  CALLING SEQUENCE -
000436:                                                                                                  #                EXTEND
000437:                                                                                                  #                DCA     TIMELOC
000438:                                                                                                  #                TC      LONGCALL
000439:                                                                                                  #                2CADR   TASKTODO
000440:
000441:                                                                                                  #  NORMAL EXIT MODE -
000442:                                                                                                  #        1).     TC      WAITLIST
000443:                                                                                                  #        2).     DTCB    (TO L+3 OF CALLING ROUTINE 1ST PASS THRU LONGCYCL)
000444:                                                                                                  #        3).     DTCB    (TO TASKOVER ON SUBSEQUENT PASSES THRU LONGCYCL)
000445:
000446:                                                                                                  #  ALARM OR ABORT EXIT MODE -
000447:                                                                                                  #        NONE
000448:
000449:                                                                                                  #  OUTPUT -
000450:                                                                                                  #        LONGTIME AND LONGTIME+1 = DELTA TIME
000451:                                                                                                  #        LONGEXIT AND LONGEXIT+1 = RETURN 2CADR
000452:                                                                                                  #        LONGCADR AND LONGCADR+1 = TASK 2CADR
000453:                                                                                                  #        A = SINGLE PRECISION TIME FOR WAITLIST
000454:
000455:                                                                                                  #  ERASABLE INITIALIZATION -
000456:                                                                                                  #        A = MOST SIGNIFICANT PART OF DELTA TIME
000457:                                                                                                  #        L = LEAST SIGNIFICANT PART OF DELTA TIME
000458:                                                                                                  #        Q = ADDRESS OF 2CADR TASK VALUE
000459:
000460:                                                                                                  #  DEBRIS -
000461:                                                                                                  #        A,Q,L
000462:                                                                                                  #        LONGCADR AND LONGCADR+1
000463:                                                                                                  #        LONGEXIT AND LONGEXIT+1
000464:                                                                                                  #        LONGTIME AND LONGTIME+1
000465:
000466:                                                                                                  #  *** THE FOLLOWING IS TO BE IN FIXED-FIXED AND UNSWITCHED ERRASIBLE ***
000467:
000468:    5356                                           BLOCK    02
000469:    5356  E3,1400                                  EBANK=   LST1
000470:    5356           53140        LONGCALL           DXCH     LONGTIME                              #  OBTAIN THE DELTA TIME
000471:
000472:    5357           00006                           EXTEND                                         #  OBTAIN THE 2CADR
000473:    5360           50002                           NDX      Q
000474:    5361           30001                           DCA      0
000475:    5362           53134                           DXCH     LONGCADR
000476:
000477:    5363           00006                           EXTEND                                         #  NOW GO TO THE APPROPRIATE SWITCHED BANK
000478:    5364           35367                           DCA      LGCL2CDR                              #  FOR THE REST OF LONGCALL
000479:    5365           52006                           DTCB
000480:
000481:    5366  E3,1400                                  EBANK=   LST1
000482:    5366           03461 02063  LGCL2CDR           2CADR    LNGCALL2
000483:
000484:                                                                                                  #  *** THE FOLLOWING MAY BE IN A SWITCHED BANK, INCLUDING ITS ERASABLE ***
000485:
000486: 01,3461                                           BANK     01
000487: 01,3461                                           COUNT    01/WAIT
000488:
000489: 01,3461           23435        LNGCALL2           LXCH     LONGEXIT   +1                         #  SAVE THE CORRECT BB FOR RETURN
000490: 01,3462           35032                           CA       TWO                                   #  OBTAIN THE RETURN ADDRESS
000491: 01,3463           26002                           ADS      Q
000492: 01,3464           55434                           TS       LONGEXIT
000493:
000494:                                                                                                  #  *** WAITLIST TASK LONGCYCL ***
000495:
000496: 01,3465           00006        LONGCYCL           EXTEND                                         #  CAN WE SUCCESFULLY TAKE ABOUT 1.25
000497: 01,3466           43477                           DCS      DPBIT14                               #  MINUTES OFF OF LONGTIME
000498: 01,3467           21140                           DAS      LONGTIME
000499:
000500: 01,3470           11140                           CCS      LONGTIME   +1                         #  THE REASONIBG BEHIND THIS PART IS
000501: 01,3471           13510                           TCF      MUCHTIME                              #  INVOLVED, TAKING INTO ACCOUNT THAT THE
000502:                                                                                                  #  WORDS MAY NOT BE SIGNED CORRECTED (DP
000503:                                                                                                  #  BASIC INSTRUCTIONS
000504:                                                                                                  #  DO NOT SIGN CORRECT) AND THAT WE SUBTRAC
000505:                                                                                                  #  TED BIT14 (1 OVER HALF THE POS. VALUE
000506:                                                                                                  #  REPRESENTIBLE IN SINGLE WORD)
000507: 01,3472           13473                           NOOP                                           #  CAN:T GET HERE    **********
000508: 01,3473           13474                           TCF      +1
000509: 01,3474           11137                           CCS      LONGTIME
000510: 01,3475           13510                           TCF      MUCHTIME
000511: 01,3476           00000        DPBIT14            OCT      00000
000512: 01,3477           20000                           OCT      20000
000513:
000514:                                                                                                  #  LONGCALL
000515: 01,3500           35016        LASTTIME           CA       BIT14                                 #  GET BACK THE CORRECT DELTA TFOR WAITLIST
000516: 01,3501           27140                           ADS      LONGTIME   +1
000517: 01,3502           05261                           TC       WAITLIST
000518: 01,3503  E3,1400                                  EBANK=   LST1
000519: 01,3503           03515 02063                     2CADR    GETCADR                               #  THE ENTRY TO OUR LONGCADR
000520:
000521: 01,3505           33517        LONGRTRN           CA       TSKOVCDR                              #  SET IT UP SO THAT ONLY THE FIRST EXIT IS
000522: 01,3506           53435                           DXCH     LONGEXIT                              #  TO THE CALLER OF LONGCALL
000523: 01,3507           52006                           DTCB                                           #  THE REST ARE TO TASKOVER
000524:
000525: 01,3510           35016        MUCHTIME           CA       BIT14                                 #  WE HAVE OVER OUR ABOUT 1.25 MINUTES
000526: 01,3511           05261                           TC       WAITLIST                              #  SO SET UP FOR ANOTHER CYCLE THROUGH HERE
000527: 01,3512  E3,1400                                  EBANK=   LST1
000528: 01,3512           03465 02063                     2CADR    LONGCYCL
000529:
000530: 01,3514           13505                           TCF      LONGRTRN                              #  NOW EXIT PROPERLY
000531:
000532:                                                                                                  #  *** WAITLIST TASK GETCADR ***
000533:
000534: 01,3515           53134        GETCADR            DXCH     LONGCADR                              #  GET THE LONGCALL THAT WE WISHED TO START
000535: 01,3516           52006                           DTCB                                           #  AND TRANSFER CONTROL TO IT
000536:
000537: 01,3517           05340        TSKOVCDR           GENADR   TASKOVER
000538:
000539:

End of include-file WAITLIST.agc.  Parent file is MAIN.agc


