
Source Code


000002:                                                                                                  ## Copyright:   Public domain.
000003:                                                                                                  ## Filename:    ALARM_AND_ABORT.agc
000004:                                                                                                  ## Purpose:     A section of Aurora 88.
000005:                                                                                                  ##              It is part of the reconstructed source code for the final
000006:                                                                                                  ##              release of the Lunar Module system test software. No original
000007:                                                                                                  ##              listings of this program are available; instead, this file
000008:                                                                                                  ##              was created via disassembly of dumps of Aurora 88 core rope
000009:                                                                                                  ##              modules and comparison with other AGC programs.
000010:                                                                                                  ## Assembler:   yaYUL
000011:                                                                                                  ## Contact:     Ron Burkey <info@sandroid.org>.
000012:                                                                                                  ## Website:     www.ibiblio.org/apollo/index.html
000013:                                                                                                  ## Mod history: 2023-06-30 MAS  Created from Aurora 12.
000014:
000015:                                                                                                  #           THE FOLLOWING SUBROUTINE MAY BE CALLED TO DISPLAY A NON-ABORTIVE ALARM CONDITION. IT MAY BE CALLED
000016:                                                                                                  #  EITHER IN INTERRUPT OR UNDER EXECUTIVE CONTROL.
000017:
000018:                                                                                                  #           CALLING SEQUENCE IS AS FOLLOWS:
000019:
000020:                                                                                                  #           TC     ALARM
000021:                                                                                                  #           OCT    AAANN           ALARM NO. NN IN GENERAL AREA AAA.
000022:                                                                                                  #                                  (RETURNS HERE)
000023:
000024:    5315                                           SETLOC   ENDPINBF
000025:    5315     1363                                  EBANK=   FAILREG
000026:
000027:    5315           00004        ALARM              INHINT
000028:    5316           56002                           XCH      Q
000029:    5317           54077                           TS       RUPTREG4
000030:
000031:    5320           11363                           CCS      FAILREG                               #  SEE IF ONE FAILURE HAS OCCURRED SINCE
000032:                                                                                                  #   THE LAST ERROR RESET.
000033:    5321           05327                           TC       MULTFAIL                              #  YES - INDICATE MULTIPLE FAILURES.
000034:    5322           05332                           TC       NEWALARM                              #  FIRST SINCE RESET.
000035:
000036:    5323           30077        MULTEXIT           CA       RUPTREG4                              #  FREE RUPTREG4 BEFORE RELINT.
000037:    5324           00003                           RELINT
000038:    5325           50000                           INDEX    A
000039:    5326           00001                           TC       1                                     #  RETURN TO CALLER.
000040:
000041:    5327           66042        MULTFAIL           AD       OCT40001                              #  BIT 15 = 1 INDICATES MULTIPLE FAILURES.
000042:    5330           55363                           TS       FAILREG
000043:    5331           05323                           TC       MULTEXIT
000044:
000045:    5332           05342        NEWALARM           TC       PROGLARM                              #  TURN ON THE PROGRAM ALARM LIGHT.
000046:
000047:    5333           34450                           CAF      PRIO37
000048:    5334           04276                           TC       NOVAC
000049:    5335           02773 02002                     2CADR    DOALARM                               #  CALL (SEPARATE) JOB FOR DISPLAY.
000050:
000051:    5337           50077                           INDEX    RUPTREG4
000052:    5340           30000                           CAF      0
000053:    5341           05330                           TC       MULTFAIL   +1
000054:
000055:    5342           45347        PROGLARM           CS       OCT40400                              #  TURN ON PROGRAM ALARM LIGHT VIA OUT0.
000056:    5343           70322                           MASK     DSPTAB     +11D
000057:    5344           65347                           AD       OCT40400
000058:    5345           54322                           TS       DSPTAB     +11D
000059:    5346           00002                           TC       Q
000060:
000061:    5347           40400        OCT40400           OCT      40400
000062:
000063:                                                                                                  #           THE FOLLOWING ROUTINE IS CALLED TO INITIATE AN ABORT. FAILREG IS SET (ACCORDING TO THE MULTIPLE
000064:                                                                                                  #  FAILURES CONVENTION) AND A RE-START IS INITIATED BY TC-SELF. THIS IS CALLED ONLY UNDER RARE CIRCUMSTANCES.
000065:
000066:    5350           00004        ABORT              INHINT                                         #  MAY BE CALLED IN INTERRUPT OR UNDER EXEC
000067:    5351           50002                           INDEX    Q                                     #  PICK UP FAILURE CODE.
000068:    5352           30000                           CAF      0
000069:    5353           54065                           TS       ITEMP1
000070:
000071:    5354           11363                           CCS      FAILREG                               #  SEE IF THIS IS A MULTIPLE FAILURE.
000072:    5355           05360                           TC       SETMULTF                              #  SET BIT 15 TO INDICATE YES.
000073:    5356           05362                           TC       NEWABORT                              #  FIRST FAILURE.
000074:
000075:    5357           05357        WHIMPER            TC       WHIMPER                               #  NOT WITH A BANG...
000076:
000077:    5360           66042        SETMULTF           AD       OCT40001                              #  RESTORE AND SET BIT 15.
000078:    5361           05364                           TC       +3
000079:
000080:    5362           05342        NEWABORT           TC       PROGLARM                              #  FIRST FAILURE - TURN ON ALARM LIGHT.
000081:    5363           56065                           XCH      ITEMP1
000082:    5364           55363                 +3        TS       FAILREG
000083:    5365           05357                           TC       WHIMPER                               #  UNIVERSAL ABORT LOCATION.
000084:
000085:    5366           56002        CCSHOLE            XCH      Q
000086:    5367           55364                           TS       SFAIL
000087:
000088:    5370           05350                           TC       ABORT
000089:    5371           01103                           OCT      1103
000090:
000091:    5372                        ENDFAILF           EQUALS
000092:
000093:                                                                                                  #           JOB WHICH CALLS NVSUB FOR ALARM DISPLAY.
000094:
000095: 01,2773                                           SETLOC   ENDWAITS
000096:
000097: 01,2773           05221        DOALARM            TC       GRABWAIT                              #  DISPLAY FAILREG.
000098: 01,2774           32777                           CAF      FAILDISP
000099: 01,2775           05234                           TC       NVSBWAIT
000100:
000101: 01,2776           04352                           TC       EJFREE                                #  FREE DISPLAY AND END JOB.
000102:
000103: 01,2777           00531        FAILDISP           OCT      00531
000104:
000105: 01,3000                        ENDFAILS           EQUALS

End of include-file ALARM_AND_ABORT.agc.  Parent file is MAIN.agc


