
Source Code


000002:                                                                                                  ## Copyright:   Public domain.
000003:                                                                                                  ## Filename:    AOTMARK.agc
000004:                                                                                                  ## Purpose:     A section of Aurora 88.
000005:                                                                                                  ##              It is part of the reconstructed source code for the final
000006:                                                                                                  ##              release of the Lunar Module system test software. No original
000007:                                                                                                  ##              listings of this program are available; instead, this file
000008:                                                                                                  ##              was created via disassembly of dumps of Aurora 88 core rope
000009:                                                                                                  ##              modules and comparison with other AGC programs.
000010:                                                                                                  ## Assembler:   yaYUL
000011:                                                                                                  ## Contact:     Ron Burkey <info@sandroid.org>.
000012:                                                                                                  ## Website:     www.ibiblio.org/apollo/index.html
000013:                                                                                                  ## Mod history: 2023-06-30 MAS  Created from Aurora 12.
000014:                                                                                                  ##              2023-07-12 MAS  Updated for Aurora 88.
000015:
000016: 13,2753                                           SETLOC   ENDIMODS
000017:
000018: 13,2753  E3,1462                                  EBANK=   AOTAZ
000019: 13,2753           00004        AOTMARK            INHINT
000020: 13,2754           54075                           TS       RUPTREG2                              #  BIT14=INFLIGHT 0=NONFLIGHT
000021: 13,2755           10374                           CCS      MARKSTAT                              #  ARE MARKS BUTTONS IN USE
000022: 13,2756           02760                           TC       +2                                    #  MARKS BUTTONS NOT AVAILABLE
000023: 13,2757           02763                           TC       MKVAC                                 #  FIND A VAC AREA
000024: 13,2760           05315                           TC       ALARM
000025: 13,2761           00105                           OCT      00105
000026: 13,2762           04353                           TC       ENDOFJOB
000027:
000028: 13,2763           10431        MKVAC              CCS      VAC1USE
000029: 13,2764           02777                           TC       MKVACFND
000030: 13,2765           10505                           CCS      VAC2USE
000031: 13,2766           02777                           TC       MKVACFND
000032: 13,2767           10561                           CCS      VAC3USE
000033: 13,2770           02777                           TC       MKVACFND
000034: 13,2771           10635                           CCS      VAC4USE
000035: 13,2772           02777                           TC       MKVACFND
000036: 13,2773           10711                           CCS      VAC5USE
000037: 13,2774           02777                           TC       MKVACFND
000038: 13,2775           05350                           TC       ABORT                                 #  VAC AREAS OCCUPIED
000039: 13,2776           01207                           OCT      01207
000040:
000041: 13,2777           67651        MKVACFND           AD       TWO
000042: 13,3000           54374                           TS       MARKSTAT
000043: 13,3001           37657                           CAF      ZERO
000044: 13,3002           54375                           TS       XYMARK                                #  INITIALIZE MARK ID REGISTER
000045: 13,3003           50374                           INDEX    MARKSTAT
000046: 13,3004           53777                           TS       0          -1                         #  SHOW VAC OCCUPIED
000047:
000048: 13,3005           30075                           CA       RUPTREG2
000049: 13,3006           26374                           ADS      MARKSTAT
000050:
000051: 13,3007           34443                           CAF      PRIO32
000052: 13,3010           04276                           TC       NOVAC
000053: 13,3011           03022 26003                     2CADR    GETMKS
000054:
000055: 13,3013           02033                           TC       MODEEXIT
000056:
000057: 13,3014           37657        MKRELEAS           CAF      ZERO
000058: 13,3015           56374                           XCH      MARKSTAT                              #  SET MARKSTAT ZERO
000059: 13,3016           10000                           CCS      A
000060: 13,3017           50000                           INDEX    A
000061: 13,3020           54000                           TS       0                                     #  SHOW VAC AREA AVAILABLE
000062: 13,3021           04076                           TC       SWRETURN
000063: 13,3022           37657        GETMKS             CAF      ZERO
000064: 13,3023           54375                           TS       XYMARK
000065: 13,3024           37635                           CAF      BIT14                                 #  FIND IF IN-FLIGHT OR NON-FLIGHT
000066: 13,3025           70374                           MASK     MARKSTAT
000067: 13,3026           10000                           CCS      A
000068: 13,3027           03036                           TC       MKVB53                                #  IN-FLIGHT
000069: 13,3030           47640                           CS       BIT11                                 #  NON-FLIGHT, SET Y MARK =1
000070: 13,3031           70374                           MASK     MARKSTAT
000071: 13,3032           67640                           AD       BIT11
000072: 13,3033           54374                           TS       MARKSTAT
000073: 13,3034           33355                           CAF      VB51                                  #  REQUEST X MARK
000074: 13,3035           03037                           TC       +2
000075: 13,3036           33431        MKVB53             CAF      VB53                                  #  REQUEST X AND Y MARKS
000076: 13,3037           05234                           TC       NVSBWAIT
000077: 13,3040           05176                           TC       FLASHON
000078: 13,3041           05042                           TC       ENDIDLE
000079: 13,3042           03023                           TC       GETMKS     +1
000080: 13,3043           03023                           TC       GETMKS     +1
000081:
000082: 13,3044           37641        MKCHEK             CAF      BIT10                                 #  WAS X MARK MADE
000083: 13,3045           70374                           MASK     MARKSTAT
000084: 13,3046           10000                           CCS      A
000085: 13,3047           03051                           TC       +2                                    #  X MARK MADE-LOOK AT Y MARK
000086: 13,3050           03055                           TC       MKALARM
000087: 13,3051           37640                           CAF      BIT11
000088: 13,3052           70374                           MASK     MARKSTAT
000089: 13,3053           10000                           CCS      A
000090: 13,3054           03063                           TC       GETDET                                #  BOTH MARKS MADE-SHOW ACCEPT-GET DETENT
000091:
000092: 13,3055           05315        MKALARM            TC       ALARM                                 #  IF EITHER MARK IS MISSING AFTER ENTER
000093: 13,3056           00111                           OCT      111
000094: 13,3057           44431                           CS       PRIO17                                #  SET BITS 10,11,12,13 TO ZERO IN MARKSTAT
000095: 13,3060           70374                           MASK     MARKSTAT
000096: 13,3061           54374                           TS       MARKSTAT
000097: 13,3062           03022                           TC       GETMKS                                #  GETMKS AGAIN
000098:
000099: 13,3063           47637        GETDET             CS       BIT12
000100: 13,3064           70374                           MASK     MARKSTAT
000101: 13,3065           67637                           AD       BIT12                                 #  SET BIT12=1 TO SHOW MARKS ACCEPTED
000102: 13,3066           54374                           TS       MARKSTAT
000103: 13,3067           33427        DETVB21            CAF      V21N43E
000104: 13,3070           05234                           TC       NVSBWAIT
000105: 13,3071           05042                           TC       ENDIDLE
000106: 13,3072           03067                           TC       DETVB21
000107: 13,3073           03067                           TC       DETVB21
000108:
000109: 13,3074           46165                           CS       OCT3
000110: 13,3075           70375                           MASK     DETCODE
000111: 13,3076           10000                           CCS      A
000112: 13,3077           03067                           TC       DETVB21                               #  BAD CODE, REQUEST AGAIN
000113: 13,3100           03103                           TC       +3                                    #  LOOKS GOOD BUT COULD BE ZERO
000114: 13,3101           03102                           TC       +1
000115: 13,3102           03067                           TC       DETVB21
000116: 13,3103           36165                           CAF      OCT3
000117: 13,3104           70375                           MASK     DETCODE                               #  SEE IF ZERO
000118: 13,3105           10000                           CCS      A
000119: 13,3106           03110                           TC       +2                                    #  GOOD CODE-STORE ANGLES
000120: 13,3107           03067                           TC       DETVB21                               #  ZERO-BAD CODE-REQUEST AGAIN
000121:
000122: 13,3110           37664                           CAF      LOW9
000123: 13,3111           70374                           MASK     MARKSTAT
000124: 13,3112           54002                           TS       BASVAC                                #  STORE VAC AREA ADDRESS
000125: 13,3113           50375                           INDEX    DETCODE
000126: 13,3114           31464                           CA       AOTEL      -1
000127: 13,3115           50002                           INDEX    BASVAC
000128: 13,3116           54011                           TS       9D                                    #  STORE ELV ANGLE IN VAC +9
000129: 13,3117           50375                           INDEX    DETCODE
000130: 13,3120           31461                           CA       AOTAZ      -1
000131: 13,3121           50002                           INDEX    BASVAC
000132: 13,3122           54010                           TS       8D                                    #  STORE AZIMUTH IN VAC +8
000133:
000134: 13,3123           13541                           TCF      DETVB21A                              #  IN-FLIGHT OR NON-FLIGHT
000135: 13,3124           70374        DETVB21B           MASK     MARKSTAT
000136: 13,3125           10000                           CCS      A
000137: 13,3126           03146                           TC       MKOUT                                 #  IN-FLIGHT, NO MORE DATA NEEDED
000138: 13,3127           03130                           TC       ROTVB24                               #  NON-FLIGHT, GET ROTATION ANGLES
000139:
000140: 13,3130           33430        ROTVB24            CAF      V24N42E                               #  REQUEST RETICLE ROTATION ANGLES
000141: 13,3131           05234                           TC       NVSBWAIT
000142: 13,3132           05042                           TC       ENDIDLE
000143: 13,3133           03130                           TC       ROTVB24
000144: 13,3134           03130                           TC       ROTVB24
000145:
000146: 13,3135           37664                           CAF      LOW9
000147: 13,3136           70374                           MASK     MARKSTAT
000148: 13,3137           54002                           TS       BASVAC
000149: 13,3140           30336                           CA       DSPTEM2                               #  YROT
000150: 13,3141           50002                           INDEX    BASVAC
000151: 13,3142           54003                           TS       3                                     #  STORE Y RETICLE ROT ANGLE IN VAC +3
000152: 13,3143           30337                           CA       DSPTEM2    +1                         #  SROT
000153: 13,3144           50002                           INDEX    BASVAC
000154: 13,3145           54005                           TS       5                                     #  STORE SPIRAL ROT ANGLE VAC +5
000155:
000156: 13,3146           37664        MKOUT              CAF      LOW9
000157: 13,3147           70374                           MASK     MARKSTAT
000158: 13,3150           54374                           TS       MARKSTAT                              #  SET HI5 ZERO
000159:
000160: 13,3151           00004                           INHINT
000161: 13,3152           37652                           CAF      ONE
000162: 13,3153           04451                           TC       WAITLIST
000163: 13,3154           03157 26003                     2CADR    ENDMARKS
000164: 13,3156           04353                           TC       ENDOFJOB
000165:
000166: 13,3157           37652        ENDMARKS           CAF      ONE
000167: 13,3160           12667                           TCF      GOODEND
000168: 13,3161           54016        MARKRUPT           TS       BANKRUPT
000169: 13,3162           30033                           CA       CDUY                                  #  STORE CDU DATA AND TIME IN TEMP
000170: 13,3163           54072                           TS       RUPTSTOR   +2
000171: 13,3164           30034                           CA       CDUZ
000172: 13,3165           54074                           TS       RUPTSTOR   +4
000173: 13,3166           30032                           CA       CDUX
000174: 13,3167           54076                           TS       RUPTSTOR   +6
000175: 13,3170           00006                           EXTEND
000176: 13,3171           30025                           DCA      TIME2
000177: 13,3172           52071                           DXCH     RUPTSTOR
000178:
000179: 13,3173           56002                           XCH      Q
000180: 13,3174           54012                           TS       QRUPT
000181:
000182: 13,3175           33425                           CAF      OCT34                                 #  SEE IF X OR Y MARK OR MKREJECT
000183: 13,3176           00006                           EXTEND
000184: 13,3177           02016                           RAND     NAVKEYIN
000185: 13,3200           10000                           CCS      A
000186: 13,3201           03203                           TC       +2                                    #  ITS A LIVE ONE-CHECK FOR ACCEPT
000187: 13,3202           03233                           TC       SOMEKEY                               #  SOME OTHER KEY
000188:
000189: 13,3203           37637                           CAF      BIT12                                 #  HAVE MARKS BEEN ACCEPTED
000190: 13,3204           70374                           MASK     MARKSTAT
000191: 13,3205           10000                           CCS      A
000192: 13,3206           04511                           TC       RESUME                                #  MARKS MADE AND ACCEPTED - DO NOTHING
000193:
000194: 13,3207           10374                           CCS      MARKSTAT                              #  ARE MARKS BEING ACCEPTED
000195: 13,3210           03214                           TC       FINDKEY
000196: 13,3211           05315                           TC       ALARM                                 #  MARKS NOT BEING ACCEPTED
000197: 13,3212           00112                           OCT      112
000198: 13,3213           04511                           TC       RESUME
000199:
000200: 13,3214           37646        FINDKEY            CAF      BIT5
000201: 13,3215           00006                           EXTEND
000202: 13,3216           02016                           RAND     NAVKEYIN                              #  CHANNEL 16
000203: 13,3217           10000                           CCS      A
000204: 13,3220           03361                           TC       MKREJ                                 #  ITS A MARK REJECT
000205: 13,3221           37647                           CAF      BIT4
000206: 13,3222           00006                           EXTEND
000207: 13,3223           02016                           RAND     NAVKEYIN
000208: 13,3224           10000                           CCS      A
000209: 13,3225           03251                           TC       YMKRUPT                               #  ITS A Y MARK
000210: 13,3226           37650                           CAF      BIT3
000211: 13,3227           00006                           EXTEND
000212: 13,3230           02016                           RAND     NAVKEYIN
000213: 13,3231           10000                           CCS      A
000214: 13,3232           03245                           TC       XMKRUPT                               #  ITS AN X MARK
000215: 13,3233           33426        SOMEKEY            CAF      OCT140                                #  NOT MARK OR MARK REJECT
000216: 13,3234           00006                           EXTEND
000217: 13,3235           02016                           RAND     NAVKEYIN
000218: 13,3236           00006                           EXTEND
000219: 13,3237           13242                           BZF      +3                                    #  IF NO INBITS.
000220:
000221: 13,3240           04102                           TC       POSTJUMP                              #  IF DESCENT BITS.
000222: 13,3241           22751                           CADR     DESCBITS
000223: 13,3242           05315                 +3        TC       ALARM
000224: 13,3243           00113                           OCT      113
000225: 13,3244           04511                           TC       RESUME
000226:
000227: 13,3245           37657        XMKRUPT            CAF      ZERO
000228: 13,3246           54065                           TS       ITEMP1
000229: 13,3247           37641                           CAF      BIT10
000230: 13,3250           03254                           TC       +4
000231: 13,3251           37652        YMKRUPT            CAF      ONE
000232: 13,3252           54065                           TS       ITEMP1
000233: 13,3253           37640                           CAF      BIT11
000234: 13,3254           54375                           TS       XYMARK                                #  SET MARK ID
000235:
000236: 13,3255           70374                           MASK     MARKSTAT
000237: 13,3256           10000                           CCS      A
000238: 13,3257           03261                           TC       +2                                    #  MARK MADE BUT NOT DESIRED
000239: 13,3260           03264                           TC       VACSTOR                               #  MARK DESIRED AND MADE-STORE CDUS
000240: 13,3261           05315                           TC       ALARM
000241: 13,3262           00114                           OCT      114
000242: 13,3263           03315                           TC       REMARK                                #  RENEW REQUEST
000243:
000244: 13,3264           37664        VACSTOR            CAF      LOW9                                  #  STORE TIME AND CDUS IN VAC AREA
000245: 13,3265           70374                           MASK     MARKSTAT
000246: 13,3266           54066                           TS       ITEMP2
000247: 13,3267           00006                           EXTEND
000248: 13,3270           30071                           DCA      RUPTSTOR
000249: 13,3271           50066                           INDEX    ITEMP2
000250: 13,3272           52001                           DXCH     0                                     #  STORE TIME1 AND TIME2 IN VAC
000251: 13,3273           30066                           CA       ITEMP2
000252: 13,3274           26065                           ADS      ITEMP1
000253: 13,3275           30072                           CA       RUPTSTOR   +2
000254: 13,3276           50065                           INDEX    ITEMP1
000255: 13,3277           54002                           TS       2
000256: 13,3300           30074                           CA       RUPTSTOR   +4
000257: 13,3301           50065                           INDEX    ITEMP1
000258: 13,3302           54004                           TS       4
000259: 13,3303           30076                           CA       RUPTSTOR   +6
000260: 13,3304           50065                           INDEX    ITEMP1
000261: 13,3305           54006                           TS       6
000262:
000263: 13,3306           37636                           CAF      BIT13
000264: 13,3307           60375                           AD       XYMARK
000265: 13,3310           40000                           COM
000266: 13,3311           70374                           MASK     MARKSTAT
000267: 13,3312           60375                           AD       XYMARK                                #  SET MARK MADE BIT IN MARKSTAT=1
000268: 13,3313           54374                           TS       MARKSTAT                              #  AND SET BIT13 ZERO TO SHOW MARK
000269: 13,3314           03315                           TC       REMARK                                #  MADE BEFORE A REJECT - GO REMARK
000270: 13,3315           37657        REMARK             CAF      ZERO
000271: 13,3316           54077                           TS       MKDEX                                 #  MKDEX=0
000272: 13,3317           37640                           CAF      BIT11                                 #  LOOK A Y MARK
000273: 13,3320           70374                           MASK     MARKSTAT
000274: 13,3321           10000                           CCS      A
000275: 13,3322           03325                           TC       +3                                    #  Y MARK MADE
000276: 13,3323           37643                           CAF      BIT8                                  #  Y MARK REQUIRED
000277: 13,3324           54077                           TS       MKDEX
000278:
000279: 13,3325           37641                           CAF      BIT10                                 #  LOOK AT X MARK
000280: 13,3326           70374                           MASK     MARKSTAT
000281: 13,3327           10000                           CCS      A
000282: 13,3330           03333                           TC       MKJOB
000283: 13,3331           37644                           CAF      BIT7                                  #  X MARK REQUIRED
000284: 13,3332           26077                           ADS      MKDEX
000285:
000286: 13,3333           34443        MKJOB              CAF      PRIO32
000287: 13,3334           04276                           TC       NOVAC                                 #  ENTER JOB TO PASTE VERB
000288: 13,3335           03343 26003                     2CADR    CHANGVB
000289:
000290: 13,3337           30077                           CA       RUPTREG4
000291: 13,3340           50071                           INDEX    LOCCTR
000292: 13,3341           54140                           TS       MPAC
000293: 13,3342           04511                           TC       RESUME
000294:
000295: 13,3343           10140        CHANGVB            CCS      MPAC
000296: 13,3344           03347                           TC       SHOWVB
000297: 13,3345           33432                           CAF      VB21N30E
000298: 13,3346           03351                           TC       SHOWVB     +2
000299: 13,3347           33433        SHOWVB             CAF      VB50
000300: 13,3350           60140                           AD       MPAC
000301: 13,3351           54107                           TS       NVTEMP
000302: 13,3352           30323                           CA       CADRSTOR                              #  NVSUB CLOBBERS THIS-USE LOC AS TEMP
000303: 13,3353           54150                           TS       LOC
000304: 13,3354           05014                           TC       NVSUB      +3
000305: 13,3355           05100        VB51               OCT      5100
000306: 13,3356           30150                           CA       LOC                                   #  RESTORE CADRSTOR
000307: 13,3357           54323                           TS       CADRSTOR
000308: 13,3360           04353                           TC       ENDOFJOB
000309:
000310: 13,3361           37635        MKREJ              CAF      BIT14                                 #  IN-FLIGHT OR NON-FLIGHT
000311: 13,3362           70374                           MASK     MARKSTAT
000312: 13,3363           10000                           CCS      A
000313: 13,3364           03372                           TC       REJIN                                 #  IN-FLIGHT
000314: 13,3365           37641                           CAF      BIT10                                 #  NON-FLIGHT, SEE IF X MARK MADE
000315: 13,3366           70374                           MASK     MARKSTAT
000316: 13,3367           10000                           CCS      A
000317: 13,3370           03414                           TC       REJECT2                               #  XMARK MADE-REJECT IT
000318: 13,3371           03376                           TC       REJALARM                              #  X MARK NOT MADE-ALARM-NO MARKS TO REJ
000319: 13,3372           34417        REJIN              CAF      PRIO3                                 #  WERE IN-FLIGHT MARKS MADE
000320: 13,3373           70374                           MASK     MARKSTAT
000321: 13,3374           10000                           CCS      A
000322: 13,3375           03401                           TC       REJECT                                #  MARKS MADE-REJECT ONE
000323: 13,3376           05315        REJALARM           TC       ALARM                                 #  NO MARKS MADE TO REJECT-GET MARKS
000324: 13,3377           00115                           OCT      115
000325: 13,3400           03414                           TC       REJECT2
000326: 13,3401           47636        REJECT             CS       BIT13                                 #  SHOW MKREJECT AND SEE MARK MADE
000327: 13,3402           70374                           MASK     MARKSTAT                              #  SINCE LAST REJECT
000328: 13,3403           67636                           AD       BIT13
000329: 13,3404           56374                           XCH      MARKSTAT
000330: 13,3405           77636                           MASK     BIT13
000331: 13,3406           10000                           CCS      A
000332: 13,3407           03414                           TC       REJECT2                               #  ANOTHER REJECT
000333: 13,3410           40375                           CS       XYMARK                                #  MARK MADE SINCE LAST REJECT-REJECT IT
000334: 13,3411           70374                           MASK     MARKSTAT
000335: 13,3412           54374                           TS       MARKSTAT
000336: 13,3413           03315                           TC       REMARK                                #  GO REQUEST MARKS
000337:
000338: 13,3414           44417        REJECT2            CS       PRIO3                                 #  NO MARKS SINCE LAST REJECT SO SET
000339: 13,3415           70374                           MASK     MARKSTAT                              #  MARKSTAT TO WANT X AND Y MARKS
000340: 13,3416           56374                           XCH      MARKSTAT
000341: 13,3417           77635                           MASK     BIT14                                 #  IN-FLIGHT OR NON-FLIGHT
000342: 13,3420           10000                           CCS      A
000343: 13,3421           03315                           TC       REMARK                                #  IN-FLIGHT, GO GET MARKS
000344: 13,3422           37640                           CAF      BIT11                                 #  NON-FLIGHT, STILL REQUEST X MARK ONLY
000345: 13,3423           26374                           ADS      MARKSTAT
000346: 13,3424           03315                           TC       REMARK                                #  GO GET X MARK
000347:
000348: 13,3425     6165               OCT3               EQUALS   THREE
000349: 13,3425           00034        OCT34              OCT      00034
000350: 13,3426           00140        OCT140             OCT      00140
000351: 13,3427           02143        V21N43E            OCT      2143
000352: 13,3430           02442        V24N42E            OCT      2442
000353: 13,3431           05300        VB53               OCT      5300
000354: 13,3432     0077               MKDEX              EQUALS   RUPTREG4
000355: 13,3432     0375               DETCODE            EQUALS   XYMARK
000356: 13,3432  0000002               BASVAC             EQUALS   Q
000357: 13,3432           02130        VB21N30E           OCT      2130
000358: 13,3433           05000        VB50               OCT      5000
000359:


000363:
000364: 13,3434           00620        4SECSM             DEC      400        B-14
000365:
000366:
000367:
000368: 13,3435           00004        IMUZERO1           INHINT
000369: 13,3436           40322                           CS       DSPTAB     +11D                       #  DONT ZERO CDUS IF IMU IN GIMBAL LOCK AND
000370: 13,3437           72744                           MASK     BITS4&6                               #  COARSE ALIGN.
000371: 13,3440           10000                           CCS      A
000372:
000373: 13,3441           12001                           TCF      IMUZEROA
000374:
000375: 13,3442           05315                           TC       ALARM                                 #  IF SO.
000376: 13,3443           00206                           OCT      206
000377:
000378: 13,3444           12661                           TCF      CAGETSTJ   +4
000379: 13,3445           02001                           TC       IMUZEROA
000380:
000381: 13,3446           03503        IMUZEROB           TC       NOATTOFF                              #  TURN OFF NO ATT LAMP.
000382: 13,3447           37646                           CAF      BIT5
000383: 13,3450           02017                           TC       IMUZEROC
000384:
000385:
000386:
000387: 13,3451           37647        SETCOARS           CAF      BIT4                                  #  PUT ISS IN COARSE ALIGN.
000388: 13,3452           00006                           EXTEND
000389: 13,3453           05012                           WOR      12
000390:
000391: 13,3454           43465        NOATTON            CS       OCT40010                              #  TURN ON NO ATT LAMP.
000392: 13,3455           70322                           MASK     DSPTAB     +11D
000393: 13,3456           63465                           AD       OCT40010
000394: 13,3457           54322                           TS       DSPTAB     +11D
000395:
000396: 13,3460           47647                           CS       BIT4                                  #  INHIBIT IMU FAIL.
000397: 13,3461           70367                           MASK     IMODES30
000398: 13,3462           67647                           AD       BIT4
000399: 13,3463           54367                           TS       IMODES30
000400:
000401: 13,3464           00002                           TC       Q
000402:
000403: 13,3465           40010        OCT40010           OCT      40010
000404:
000405:
000406:
000407: 13,3466           03503        IMUFINE1           TC       NOATTOFF                              #  TURN OFF NO ATT LAMP.
000408: 13,3467           37641                           CAF      BIT10
000409: 13,3470           02235                           TC       IMUFINE2
000410:
000411:
000412:
000413: 13,3471           47641        PFAILOK1           CS       BIT10                                 #  MAKE PREVIOUS VALUE OF PIPA FAIL THE
000414: 13,3472           70367                           MASK     IMODES30                              #  NO FAIL STATE SO THAT IF THE FAILURE
000415: 13,3473           67641                           AD       BIT10                                 #  INDICATION IS ON NOW, IT WILL BE PICKED
000416: 13,3474           54367                           TS       IMODES30                              #  UP (ROUTINE DETECTS ONLY CHANGES).
000417:
000418: 13,3475           47636                           CS       BIT13                                 #  PIPA FAIL BIT IS KEPT IN TWO PLACES FOR
000419: 13,3476           70370                           MASK     IMODES33
000420: 13,3477           67636                           AD       BIT13
000421: 13,3500           54370                           TS       IMODES33
000422:
000423: 13,3501           47646                           CS       BIT5
000424: 13,3502           12257                           TCF      PFAILOK2
000425:
000426:
000427:
000428: 13,3503           43465        NOATTOFF           CS       OCT40010                              #  TURN OFF NO ATT LAMP.
000429: 13,3504           70322                           MASK     DSPTAB     +11D
000430: 13,3505           67634                           AD       BIT15
000431: 13,3506           54322                           TS       DSPTAB     +11D
000432: 13,3507           00002                           TC       Q
000433:
000434:
000435:
000436: 13,3510           54001        GLCKCHK1           TS       L
000437:
000438: 13,3511           40322                           CS       DSPTAB     +11D
000439: 13,3512           00006                           EXTEND
000440: 13,3513           02012                           RAND     12
000441: 13,3514           77647                           MASK     BIT4
000442: 13,3515           10000                           CCS      A
000443: 13,3516           03454                           TC       NOATTON
000444:
000445: 13,3517           30001                           CA       L
000446: 13,3520           00006                           EXTEND
000447: 13,3521           63536                           BZMF     SETGLCK1                              #  NO LOCK.
000448:
000449: 13,3522           63540                           AD       -15DEGS                               #  SEE IF ABS(MGA) GREATER THAN 85 DEGREES.
000450: 13,3523           00006                           EXTEND
000451: 13,3524           63533                           BZMF     NOGIMRUN
000452:
000453: 13,3525           37647                           CAF      BIT4                                  #  IF SO, SYSTEM SHOULD BE IN COARSE ALIGN
000454: 13,3526           00006                           EXTEND                                         #  TO PREVENT GIMBAL RUNAWAY.
000455: 13,3527           02012                           RAND     12
000456: 13,3530           10000                           CCS      A
000457: 13,3531           13533                           TCF      NOGIMRUN
000458:
000459: 13,3532           03451                           TC       SETCOARS
000460:
000461: 13,3533           37645        NOGIMRUN           CAF      BIT6                                  #  TURN ON GIMBAL LOCK LAMP.
000462: 13,3534           04102                           TC       POSTJUMP
000463: 13,3535           25177                           CADR     GLOCKCHK   +4
000464:
000465: 13,3536           04102        SETGLCK1           TC       POSTJUMP
000466: 13,3537           25200                           CADR     SETGLOCK   -1
000467:
000468: 13,3540           75252        -15DEGS            DEC      -.08333
000469:
000470:
000471:
000472: 13,3541           31463        DETVB21A           CA       AOTAZ      +1                         #  COMPENSATION FOR THE APPARENT TILT OF
000473: 13,3542           00006                           EXTEND                                         #  AOT FIELD OF VIEW IN THE LEFT AND RIGHT
000474: 13,3543           50375                           INDEX    DETCODE                               #  DETENTS IS STORED IN LOC 10D OF VAC
000475: 13,3544           21461                           MSU      AOTAZ      -1                         #  IN ONES COMPLEMENT
000476: 13,3545           50002                           INDEX    BASVAC
000477: 13,3546           54012                           TS       10D                                   #  SINGLE PREC. TILT COMPENSATION ANGLE
000478:
000479: 13,3547           37635                           CAF      BIT14                                 #  IN-FLIGHT OR NON-FLIGHT
000480: 13,3550           13124                           TCF      DETVB21B
000481:
000482: 13,3551                        ENDAMODS           EQUALS

End of include-file AOTMARK.agc.  Parent file is MAIN.agc


