
Source Code


000002:                                                                                                  ## Copyright:   Public domain.
000003:                                                                                                  ## Filename:    CONTROLLER_AND_METER_ROUTINES.agc
000004:                                                                                                  ## Purpose:     A section of Aurora 88.
000005:                                                                                                  ##              It is part of the reconstructed source code for the final
000006:                                                                                                  ##              release of the Lunar Module system test software. No original
000007:                                                                                                  ##              listings of this program are available; instead, this file
000008:                                                                                                  ##              was created via disassembly of dumps of Aurora 88 core rope
000009:                                                                                                  ##              modules and comparison with other AGC programs.
000010:                                                                                                  ## Assembler:   yaYUL
000011:                                                                                                  ## Contact:     Ron Burkey <info@sandroid.org>.
000012:                                                                                                  ## Website:     www.ibiblio.org/apollo/index.html
000013:                                                                                                  ## Mod history: 2023-06-30 MAS  Created from Aurora 12.
000014:                                                                                                  ##              2023-07-12 MAS  Updated for Aurora 88.
000015:
000016:
000017: 11,3147                                           SETLOC   ENDEXTVS
000018: 11,3147  E6,1602                                  EBANK=   PCOM
000019:
000020: 11,3147           37641        RHCNTRL            CAF      BIT10
000021: 11,3150           00006                           EXTEND
000022: 11,3151           02030                           RAND     30                                    #  CHECK PGNCS CONTROL OF S/C
000023: 11,3152           00006                           EXTEND
000024: 11,3153           13155                           BZF      +2
000025: 11,3154           13236                           TCF      NORATE
000026: 11,3155           37634                           CAF      BIT15
000027: 11,3156           00006                           EXTEND
000028: 11,3157           02031                           RAND     31                                    #  CHECK OUT-OF-DETENT BIT
000029: 11,3160           10000                           CCS      A
000030: 11,3161           13236                           TCF      NORATE
000031:
000032: 11,3162           37657                           CAF      ZERO                                  #  ZERO COUNTERS
000033: 11,3163           54042                           TS       RHCP
000034: 11,3164           54043                           TS       RHCY
000035: 11,3165           54044                           TS       RHCR
000036: 11,3166           37643                           CAF      BIT8                                  #  ENABLE COUNTERS
000037: 11,3167           67642                           AD       BIT9                                  #  START READING INTO COUNTERS
000038: 11,3170           00006                           EXTEND
000039: 11,3171           05013                           WOR      13
000040: 11,3172           37646                           CAF      BIT5
000041: 11,3173           04451                           TC       WAITLIST                              #  COUNTERS FILLED
000042: 11,3174           03177 22006                     2CADR    ATTCONT
000043:
000044: 11,3176           04505                           TC       TASKOVER
000045:
000046: 11,3177           47643        ATTCONT            CS       BIT8
000047: 11,3200           00006                           EXTEND
000048: 11,3201           03013                           WAND     13                                    #  RESET COUNTER ENABLE
000049: 11,3202           37636                           CAF      BIT13
000050: 11,3203           00006                           EXTEND
000051: 11,3204           02031                           RAND     31                                    #  CHECK IF IN ATTITUDE HOLD MODE
000052: 11,3205           00006                           EXTEND
000053: 11,3206           13210                           BZF      +2
000054: 11,3207           03226                           TC       XAXOVRD
000055: 11,3210           30042                           CA       RHCP
000056: 11,3211           00006                           EXTEND
000057: 11,3212           77641                           MP       BIT10
000058: 11,3213           33243                           CAF      RHCSCALE
000059: 11,3214           00006                           EXTEND
000060: 11,3215           70001                           MP       L
000061: 11,3216           55602                           TS       PCOM
000062: 11,3217           30044                           CA       RHCR
000063: 11,3220           00006                           EXTEND
000064: 11,3221           77641                           MP       BIT10
000065: 11,3222           33243                           CAF      RHCSCALE
000066: 11,3223           00006                           EXTEND
000067:
000068:
000069: 11,3224           70001                           MP       L
000070: 11,3225           55603                           TS       RCOM
000071: 11,3226           30043        XAXOVRD            CA       RHCY                                  #  YAW CHANNEL ONLY IN AUTO MODE
000072: 11,3227           00006                           EXTEND
000073: 11,3230           77641                           MP       BIT10
000074: 11,3231           33243                           CAF      RHCSCALE
000075: 11,3232           00006                           EXTEND
000076: 11,3233           70001                           MP       L
000077: 11,3234           55604                           TS       YCOM
000078: 11,3235           13147                           TCF      RHCNTRL
000079:
000080: 11,3236           37657        NORATE             CAF      ZERO                                  #  SET RATE COMMANDS TO ZERO
000081: 11,3237           55602                           TS       PCOM
000082: 11,3240           55603                           TS       RCOM
000083: 11,3241           55604                           TS       YCOM
000084: 11,3242           04505                           TC       TASKOVER
000085:
000086: 11,3243           16171        RHCSCALE           DEC      .44488                                #  LEAVES INPUTS SCALED AS PI/4 RAD/SEC.
000087:


000091:
000092:                                                                                                  #  VB 60 PREPARE FOR STANDBY OPERATION
000093:
000094:                                                                                                  #  ROUTINE WRITTEN FOR TEST ROPES ONLY*** MUST BE UPDATED TO INCLUDE
000095:                                                                                                  #                                  FLIGHT REQUIREMENTS FOR FLIGHT OPERATION
000096:
000097: 11,3244  E3,1400                                  EBANK=   LST1
000098:
000099: 11,3244           33365        PRESTAND           CAF      EBANK3                                #  COMES HERE FROM LST2FAN
000100: 11,3245           56003                           XCH      EBANK                                 #  SET UP EBANK FOR BANK 3
000101: 11,3246           00004                           INHINT
000102: 11,3247           30025                           CA       TIME1
000103: 11,3250           55501                           TS       TIMESAV                               #  THIS ROUTINE WILL LOOK AT TIME1 UNTIL
000104: 11,3251           32750                           CAF      OKT30                                 #   TIME1 IS INCREMENTED, THEN IT WILL
000105: 11,3252           55505        LONGER             TS       TIMAR                                 #  SNATCH THE MISSION TIME REGS AND STORE
000106: 11,3253           41501                           CS       TIMESAV                               #  THEM IN TIMESAV FOR LATER ISE IN ARITH.
000107: 11,3254           60025                           AD       TIME1                                 #  OPERATIONS WHICH SHOULD FIND THE
000108: 11,3255           00006                           EXTEND                                         #  STANDING DIFFERENCE BETWEEN THE SCALAR
000109: 11,3256           13263                           BZF      CHKTIME                               #  AND THE TIME1-TIME2S REGS.
000110:
000111: 11,3257           00006                           EXTEND
000112: 11,3260           30025                           DCA      TIME2                                 #  READ AND STORE THE DP TIME AND GO
000113: 11,3261           53502                           DXCH     TIMESAV                               #  READ THE SCALAR USING THE EXISTING PROG
000114: 11,3262           13271                           TCF      CATCHFIN                              #  FINETIME.
000115:
000116: 11,3263           11505        CHKTIME            CCS      TIMAR                                 #  MUST WATCH THE TIME SPENT IN INHINT OR
000117: 11,3264           03252                           TC       LONGER                                #  THE COPS MIGHT CATCH US.
000118: 11,3265           00003                           RELINT
000119: 11,3266           10067                           CCS      NEWJOB
000120: 11,3267           04317                           TC       CHANG1
000121: 11,3270           03251                           TC       LONGER     -1                         #  GO BACK AND LOOK AGAIN
000122:
000123: 11,3271           05372        CATCHFIN           TC       FINETIME                              #  WILL READ CHANNELS 3 AND 4 AND RETURN
000124: 11,3272           53504                           DXCH     SCALSAV                               #  WITH 3 IN A AND 4 IN L..
000125: 11,3273           00003                           RELINT
000126: 11,3274           47647                           CS       BIT4
000127: 11,3275           70367                           MASK     IMODES30                              #  INHIBIT THE IMU FAIL LIGHT.
000128: 11,3276           67647                           AD       BIT4
000129: 11,3277           54367                           TS       IMODES30
000130:
000131: 11,3300           37647                           CAF      BIT4                                  #  SET ALL CHAN 12 BITS EXCEPT C/A TO ZERO.
000132: 11,3301           00006                           EXTEND                                         #  THIS IS NECESSARY SO THAT THE GIMBALS DO
000133: 11,3302           03012                           WAND     12                                    #  NOT DRIFT INTO GIMBALLOCK IF THE SYSTEM
000134:
000135: 11,3303           37647                           CAF      BIT4                                  #  SHOULD BE IN OPERATE AT THE TIME STBY
000136: 11,3304           00006                           EXTEND                                         #  WAS STARTED.  THIS SECTION WILL MAKE
000137: 11,3305           05012                           WOR      12                                    #  SURE THE IMU IS IN C/A.....
000138:
000139: 11,3306           37640                           CAF      BIT11                                 #  WHEN BIT 11 IS PRESENT IN CHANNEL 13 THE
000140: 11,3307           00006                           EXTEND                                         #  DSKY PB. CAN THEN ENERGIZE THE STANDBY
000141: 11,3310           05013                           WOR      13                                    #  RELAY IN THE CGC PWR SUPPLIES....
000142: 11,3311           04353                           TC       ENDOFJOB                              #  GO TO DUMMY JOB UNTIL YOU DIE...
000143:
000144:                                                                                                  #   VB 61 RECOVER FROM STANDBY OPERATION
000145:
000146:                                                                                                  #  ROUTINE WRITTEN FOR TEST ROPES ONLY**** MUST BE UPDATED TO INCLUDE
000147:                                                                                                  #                  FLIGHT REQUIREMENTS FOR FLIGHT OPERATIONS SEQUENCES....
000148:
000149: 11,3312           33365        POSTAND            CAF      EBANK3                                #  COMES HERE FROM LST2FAN
000150: 11,3313           56003                           XCH      EBANK                                 #  SET UP EBANK FOR BANK 3
000151: 11,3314           05372                           TC       FINETIME
000152: 11,3315           53506                           DXCH     TIMAR                                 #  READ THE SCALAR AND SEE IF IT OVERFLOW-
000153: 11,3316           00003                           RELINT                                         #  ED WHILE THE CGC WAS IN STBY, IF SO
000154: 11,3317           31505                           CAE      TIMAR                                 #  THE OVERFLOW MUST BE ADDED OR IT WILL
000155: 11,3320           00006                           EXTEND                                         #  SEEM THAT THE REALATIVITY THEORY WORKS
000156: 11,3321           61503                           SU       SCALSAV                               #  BETTER THAN IT SHOULD...
000157: 11,3322           00006                           EXTEND
000158: 11,3323           63346                           BZMF     ADDTIME                               #  IF ITS NEG. IT MUST HAVE OV:FLWD..
000159:
000160: 11,3324           06000                           TC       INTPRET
000161: 11,3325           45345                           DLOAD    DSU                                   #  IF IT DID NOT OV-FLW. FIND OUT HOW LONG
000162: 11,3326           01506                                    TIMAR                                 #  THE CGC WAS IN STBY BY SUBTRACTING THE
000163: 11,3327           01504                                    SCALSAV                               #  SCALAR AT THE START OF STBY FROM THE
000164: 11,3330           45061                           SRR      RTB                                   #  SCALAR AT THE END OF STBY AND THEN ADD
000165: 11,3331           01606                                    5                                     #  THE DIFFERENCE TO THE TIME EXISTING
000166: 11,3332           33524                                    SGNAGREE                              #  WHEN THE SCALAR WAS READ AT STBY ENTRY**
000167: 11,3333           77615                           DAD
000168: 11,3334           01502                                    TIMESAV
000169: 11,3335           01506                           STORE    TIMAR
000170: 11,3336           77776                           EXIT
000171:
000172: 11,3337           00006        CORCTTIM           EXTEND
000173: 11,3340           31506                           DCA      TIMAR                                 #  THIS IS THE CORRECTED TIME TO BE READ
000174: 11,3341           52025                           DXCH     TIME2                                 #  INTO TIME1 AND TIME2 REGS. ADDR 24-25
000175:
000176: 11,3342           47640                           CS       BIT11
000177: 11,3343           00006                           EXTEND                                         #  DISABLE THE DSKY STBY PUSHBUTTON.
000178: 11,3344           03013                           WAND     13
000179: 11,3345           04353                           TC       ENDOFJOB
000180:
000181: 11,3346           00006        ADDTIME            EXTEND
000182: 11,3347           37632                           DCA      DPOSMAX                               #  IF THE SCALAR OVERFLOWED, FIND OUT HOW
000183: 11,3350           53510                           DXCH     TIMEDIFF                              #  MUCH TIME REMAINED WHEN READ THE FIRST
000184: 11,3351           06000                           TC       INTPRET                               #  TIME AND THEN ADD THE PRESENT READING-
000185: 11,3352           45345                           DLOAD    DSU                                   #  WHICH WILL BE THE TOTAL TIME SPENT IN
000186: 11,3353           01510                                    TIMEDIFF                              #  STANDBY, TO WHICH THE TIME AT STBY
000187: 11,3354           01504                                    SCALSAV                               #  MAY BE ADDED TO FIND THE PRESENT TIME
000188: 11,3355           54215                           DAD      SRR                                   #  CORRECT TO 10 MSEC..
000189: 11,3356           01506                                    TIMAR                                 #  **** THE TIME IN STANDBY MODE MUST NOT
000190: 11,3357           01606                                    5                                     #  EXCEED 23 HOURS IF TIME IS TO BE
000191: 11,3360           77615                           DAD                                            #  CORRECTLY COMPUTED BY THIS ROUTINE.*****
000192: 11,3361           01502                                    TIMESAV
000193: 11,3362           01506                           STORE    TIMAR
000194: 11,3363           77776                           EXIT
000195: 11,3364           03337                           TC       CORCTTIM
000196:
000197: 11,3365           01400        EBANK3             OCT      01400                                 #  CONST USED TO SET EBANK REG FOR BANK 3
000198:
000199:
000200: 11,3366           02101        TESTNV             OCT      2101
000201: 11,3367           02546        LQPL               ECADR    QPLACE
000202:
000203: 11,3370           61546        TSELECT1           AD       QPLACE
000204: 11,3371           00006                           EXTEND
000205: 11,3372           63375                           BZMF     +3
000206: 11,3373           05145                           TC       FALTON
000207: 11,3374           02343                           TC       REDO
000208: 11,3375           02364                           TC       TSELECT    +2
000209: 11,3376           13377                           NOOP
000210:
000211: 11,3377                        ENDCMS             EQUALS

End of include-file CONTROLLER_AND_METER_ROUTINES.agc.  Parent file is MAIN.agc


