
Source Code


000002:                                                                                                  ## Copyright:   Public domain.
000003:                                                                                                  ## Filename:    DOWN-TELEMETRY_PROGRAM.agc
000004:                                                                                                  ## Purpose:     A section of Aurora 88.
000005:                                                                                                  ##              It is part of the reconstructed source code for the final
000006:                                                                                                  ##              release of the Lunar Module system test software. No original
000007:                                                                                                  ##              listings of this program are available; instead, this file
000008:                                                                                                  ##              was created via disassembly of dumps of Aurora 88 core rope
000009:                                                                                                  ##              modules and comparison with other AGC programs.
000010:                                                                                                  ## Assembler:   yaYUL
000011:                                                                                                  ## Contact:     Ron Burkey <info@sandroid.org>.
000012:                                                                                                  ## Website:     www.ibiblio.org/apollo/index.html
000013:                                                                                                  ## Mod history: 2023-06-30 MAS  Created from Aurora 12.
000014:                                                                                                  ##              2023-07-12 MAS  Updated for Aurora 88.
000015:
000016: 15,2000                                           BANK     15
000017: 15,2000  E7,1403                                  EBANK=   DNTMBUFF
000018: 15,2000           00437        LOWIDCOD           OCT      00437                                 #  FOD'S CHOICE.
000019:                                                                                                  #        SPECIAL DOWNLINK LIST FOR AGS INITIALIZATION, MUST BE IN LOCATION 2001 OF DOWNLINK FBANK,
000020: 15,2001           00342        AGSLIST            ECADR    UPLOCK
000021: 15,2002           00025                           ECADR    TIME1
000022: 15,2003           00024                           ECADR    TIME2
000023: 15,2004           00412                           ECADR    AGSWORD
000024: 15,2005           03602                           ECADR    AGSBUFF    +27D
000025: 15,2006           03601                           ECADR    AGSBUFF    +26D
000026: 15,2007           03600                           ECADR    AGSBUFF    +25D
000027: 15,2010           03577                           ECADR    AGSBUFF    +24D
000028: 15,2011           00412                           ECADR    AGSWORD
000029: 15,2012           03576                           ECADR    AGSBUFF    +23D
000030: 15,2013           03575                           ECADR    AGSBUFF    +22D
000031: 15,2014           03574                           ECADR    AGSBUFF    +21D
000032: 15,2015           03573                           ECADR    AGSBUFF    +20D
000033: 15,2016           00412                           ECADR    AGSWORD
000034: 15,2017           03572                           ECADR    AGSBUFF    +19D
000035: 15,2020           03571                           ECADR    AGSBUFF    +18D
000036: 15,2021           03570                           ECADR    AGSBUFF    +17D
000037: 15,2022           03567                           ECADR    AGSBUFF    +16D
000038: 15,2023           00412                           ECADR    AGSWORD
000039: 15,2024           03566                           ECADR    AGSBUFF    +15D
000040: 15,2025           03565                           ECADR    AGSBUFF    +14D
000041: 15,2026           03564                           ECADR    AGSBUFF    +13D
000042: 15,2027           03563                           ECADR    AGSBUFF    +12D
000043: 15,2030           00412                           ECADR    AGSWORD
000044: 15,2031           03562                           ECADR    AGSBUFF    +11D
000045: 15,2032           03561                           ECADR    AGSBUFF    +10D
000046: 15,2033           01560                           ADRES    AGSBUFF    +9D
000047: 15,2034           01557                           ADRES    AGSBUFF    +8D
000048: 15,2035           00412                           ADRES    AGSWORD
000049: 15,2036           01556                           ADRES    AGSBUFF    +7
000050: 15,2037           01555                           ADRES    AGSBUFF    +6
000051: 15,2040           01554                           ADRES    AGSBUFF    +5
000052: 15,2041           01553                           ADRES    AGSBUFF    +4
000053: 15,2042           00412                           ADRES    AGSWORD
000054: 15,2043           01552                           ADRES    AGSBUFF    +3
000055: 15,2044           01551                           ADRES    AGSBUFF    +2
000056: 15,2045           01550                           ADRES    AGSBUFF    +1
000057: 15,2046           01547                           ADRES    AGSBUFF
000058:                                                                                                  #        THIS ROUTINE IS INITITATED EVERY 20MS BY AN INTERRUPT TRIGGERED
000059:                                                                                                  #  BY THE RECEIPT OF AN ENDPULSE FROM THE SPACECRAFT TELEMETRY PROGRAMMER.
000060:
000061: 15,2047           54016        DODOWNTM           TS       BANKRUPT                              #  DO APPROPRIATE TM PHASE.
000062: 15,2050           51401                           INDEX    DNTMGOTO
000063: 15,2051           10000                           TCF      0
000064:
000065: 15,2052           30411        DNPHASE1           CA       DNLSTADR                              #  ONCE PER CYCLE (1 SECOND), AN ID IS SENT
000066: 15,2053           55400                           TS       LDATALST                              #  AND THE DATA LIST SWITCHED TO THAT
000067: 15,2054           76426                           MASK     LOW10                                 #  SELECTED BY A MISSION OR TEST PROGRAM.
000068: 15,2055           00006                           EXTEND
000069: 15,2056           01034                           WRITE    DNTM1
000070: 15,2057           47644                           CS       BIT7                                  #  WORD ORDER BIT IS 0 FOR ID OWRD ONLY.
000071: 15,2060           00006                           EXTEND
000072: 15,2061           03013                           WAND     13
000073:
000074: 15,2062           32212                           CAF      LDNPHAS2                              #  SWITCH TO PHASE 2.
000075: 15,2063           55401                           TS       DNTMGOTO
000076: 15,2064           32000                           CAF      LOWIDCOD                              #  SPECIAL ID CODE IN L.
000077: 15,2065           12151                           TCF      TMEXITL
000078:
000079: 15,2066           37644        DNPHASE2           CAF      BIT7                                  #  SET WORD ORDER BACK TO 1 FOR REMAINDER
000080: 15,2067           00006                           EXTEND                                         #  OF CYCLE AND SET UP TO PICK UP 12 PAIRS
000081: 15,2070           05013                           WOR      13                                    #  FROM ANYWHERE IN COMMON ERASABLE OR E7.
000082:
000083: 15,2071           37657                           CAF      ZERO
000084: 15,2072           54065                           TS       ITEMP1                                #  TAKE SNAPSHOT OF 12 DP WORDS.
000085: 15,2073           37654                           CAF      TEN
000086:
000087: 15,2074           54066        LOOP               TS       ITEMP2                                #  THESE 12 DP WORDS ARE READ INTO AN
000088: 15,2075           61400                           AD       LDATALST                              #  INTERMEDIATE BUFFER SO THEY REFER TO THE
000089: 15,2076           00006                           EXTEND                                         #  SAME POINT IN THE EXECUTION OF A MISSION
000090: 15,2077           50000                           INDEX    A                                     #  PROGRAM. THE WORDS MAY BE IN NON-
000091: 15,2100           50032                           INDEX    26D
000092: 15,2101           30001                           DCA      0                                     #  12 OF THE DATA LIST ARE USED AS
000093: 15,2102           50065                           INDEX    ITEMP1                                #  ADDRESSES OF THE DESIRED DATA.
000094: 15,2103           53404                           DXCH     DNTMBUFF
000095:
000096: 15,2104           37651                           CAF      TWO
000097: 15,2105           26065                           ADS      ITEMP1
000098: 15,2106           10066                           CCS      ITEMP2
000099: 15,2107           12074                           TCF      LOOP
000100:
000101: 15,2110           32220                           CAF      DEC11                                 #  SET UP TO SEND 11 REMAINING WORDS
000102: 15,2111           55402                           TS       TMINDEX
000103: 15,2112           32213                           CAF      LDNPHASX
000104: 15,2113           55401                           TS       DNTMGOTO
000105:
000106: 15,2114           00006                           EXTEND
000107: 15,2115           51400                           INDEX    LDATALST
000108: 15,2116           50045                           INDEX    37D
000109: 15,2117           30001                           DCA      0
000110: 15,2120           12146                           TCF      DNTMEXIT
000111:
000112: 15,2121           55402        DNPHASXA           TS       TMINDEX
000113: 15,2122           00006                           EXTEND
000114: 15,2123           50000                           INDEX    A                                     #  SENDS SNAPSHOT BUFFER.
000115: 15,2124           52230                           INDEX    FIXLISTB
000116: 15,2125           30001                           DCA      0
000117: 15,2126           12146                           TCF      DNTMEXIT
000118:
000119: 15,2127           11402        DNPHASEX           CCS      TMINDEX                               #  AT END OF SNAPSHOT TRANSMISSION, SET UP
000120: 15,2130           12121                           TCF      DNPHASXA                              #  TO SEND 26 PRS FROM ANY ERASABLE LOC AS
000121:
000122: 15,2131           32214                           CAF      LDNPHAS3                              #  SPECIFIED BY WORDS 1 - 26 OF THE DATA
000123: 15,2132           55401                           TS       DNTMGOTO                              #  LIST.
000124: 15,2133           32217                           CAF      NOGENWDS
000125:
000126: 15,2134           55402        PHASE3A            TS       TMINDEX                               #  GET DP WORD FROM ANY EBANK.
000127: 15,2135           61400                           AD       LDATALST
000128: 15,2136           00006                           EXTEND
000129: 15,2137           50000                           INDEX    A
000130: 15,2140           30001                           DCA      0                                     #  THIS GETS THE ADDRESS - MUST USE DCA
000131: 15,2141           54003                           TS       EBANK
000132: 15,2142           75137                           MASK     LOW8
000133: 15,2143           00006                           EXTEND
000134: 15,2144           50000                           INDEX    A
000135: 15,2145           31401                           DCA      3400                                  #  (NOTE ASSEMBLY AS DCA 1400)
000136: 15,2146           00006        DNTMEXIT           EXTEND                                         #  GENERAL DNTM EXIT LOCATION.
000137: 15,2147           01034                           WRITE    DNTM1
000138: 15,2150           30001                           CA       L
000139: 15,2151           00006        TMEXITL            EXTEND
000140: 15,2152           01035                           WRITE    DNTM2
000141: 15,2153           14513                           TCF      NOQRSM
000142:
000143: 15,2154           11402        DNPHASE3           CCS      TMINDEX
000144: 15,2155           12134                           TCF      PHASE3A
000145:
000146: 15,2156           32215                           CAF      LDNPHAS4                              #  SEND FIXED FORMAT LIST OF DSPTAB AND
000147: 15,2157           55401                           TS       DNTMGOTO                              #  T2, T1.
000148: 15,2160           36162                           CAF      SIX
000149:
000150: 15,2161           55402        PHASE4A            TS       TMINDEX
000151: 15,2162           00006                           EXTEND                                         #  FIXED DATA LIST FOR DSPTAB AND TIME.
000152: 15,2163           50000                           INDEX    A
000153: 15,2164           52221                           INDEX    FIXLIST
000154: 15,2165           30001                           DCA      0
000155: 15,2166           12146                           TCF      DNTMEXIT
000156: 15,2167           11402        DNPHASE4           CCS      TMINDEX
000157: 15,2170           12161                           TCF      PHASE4A
000158:
000159: 15,2171           32216                           CAF      LPHASE5                               #  SET UP FOR CHANNEL TRANSMISSION.
000160: 15,2172           55401                           TS       DNTMGOTO
000161: 15,2173           36165                           CAF      THREE                                 #  FOUR PAIRS OF CHANNELS.
000162:
000163: 15,2174           55402        PHASE5A            TS       TMINDEX
000164: 15,2175           00006                           EXTEND
000165: 15,2176           50000                           INDEX    A
000166: 15,2177           52247                           INDEX    FIXLSTCL
000167: 15,2200           00000                           READ     0
000168: 15,2201           54001                           TS       L
000169: 15,2202           00006                           EXTEND
000170: 15,2203           51402                           INDEX    TMINDEX
000171: 15,2204           52243                           INDEX    FIXLSTCA
000172: 15,2205           00000                           READ     0
000173: 15,2206           12146                           TCF      DNTMEXIT
000174: 15,2207           11402        DNPHASE5           CCS      TMINDEX
000175: 15,2210           12174                           TCF      PHASE5A
000176: 15,2211           12052                           TCF      DNPHASE1                              #  START NEXT CYCLE.
000177:                                                                                                  #        CONSTNATS AND FIXED FORMAT DATA LIST.
000178: 15,2212           02066        LDNPHAS2           ADRES    DNPHASE2
000179: 15,2213           02127        LDNPHASX           ADRES    DNPHASEX
000180: 15,2214           02154        LDNPHAS3           ADRES    DNPHASE3
000181: 15,2215           02167        LDNPHAS4           ADRES    DNPHASE4
000182: 15,2216           02207        LPHASE5            ADRES    DNPHASE5
000183:
000184: 15,2217           00031        NOGENWDS           DEC      25         B-14                       #  26 WORDS SENT DURING PHASE 3.
000185: 15,2220           00013        DEC11              DEC      11         B-14
000186:
000187: 15,2221           00024        FIXLIST            ADRES    TIME2                                 #  FIXED-FORMAT PORTION INCLUDES BUFFER,
000188: 15,2222           00321                           ADRES    DSPTAB     +10D                       #  DSPTAB, AND TIME.
000189: 15,2223           00317                           ADRES    DSPTAB     +8D
000190: 15,2224           00315                           ADRES    DSPTAB     +6
000191: 15,2225           00313                           ADRES    DSPTAB     +4
000192: 15,2226           00311                           ADRES    DSPTAB     +2
000193: 15,2227           00307                           ADRES    DSPTAB
000194:
000195: 15,2230           01427        FIXLISTB           ADRES    DNTMBUFF   +20D
000196: 15,2231           01425                           ADRES    DNTMBUFF   +18D
000197: 15,2232           01423                           ADRES    DNTMBUFF   +16D
000198: 15,2233           01421                           ADRES    DNTMBUFF   +14D
000199: 15,2234           01417                           ADRES    DNTMBUFF   +12D
000200: 15,2235           01415                           ADRES    DNTMBUFF   +10D
000201: 15,2236           01413                           ADRES    DNTMBUFF   +8D
000202: 15,2237           01411                           ADRES    DNTMBUFF   +6D
000203: 15,2240           01407                           ADRES    DNTMBUFF   +4D
000204: 15,2241           01405                           ADRES    DNTMBUFF   +2D
000205: 15,2242           01403                           ADRES    DNTMBUFF
000206:
000207: 15,2243           00032        FIXLSTCA           OCT      32                                    #  CHANNEL ADDRESSES.
000208: 15,2244           00030                           OCT      30
000209: 15,2245           00013                           OCT      13
000210: 15,2246           00011                           OCT      11
000211:
000212: 15,2247           00033        FIXLSTCL           OCT      33
000213: 15,2250           00031                           OCT      31
000214: 15,2251           00014                           OCT      14
000215: 15,2252           00012                           OCT      12
000216:                                                                                                  #        SPECIAL DATA LIST FOR HIGH SPEED RADAR SAMPLING. TELEMETERS TABLE OF 12 MEASUREMENTS OF 5 WORDS EACH -
000217:                                                                                                  #  DATA IN WORDS 1 & 2, RR CDU ANGLES IN 3 & 4, AND TIME 1 IN 5.
000218: 15,2253           00342        FSTRADTM           ECADR    UPLOCK
000219: 15,2254           03436                           ECADR    RFAILCNT                              #  COUNTS BAD SAMPLES.
000220: 15,2255           03545                           ECADR    RSTACK     +70D
000221: 15,2256           03543                           ECADR    RSTACK     +68D
000222: 15,2257           03541                           ECADR    RSTACK     +66D
000223: 15,2260           03537                           ECADR    RSTACK     +64D
000224: 15,2261           03535                           ECADR    RSTACK     +62D
000225: 15,2262           03533                           ECADR    RSTACK     +60D
000226: 15,2263           03531                           ECADR    RSTACK     +58D
000227: 15,2264           03527                           ECADR    RSTACK     +56D
000228: 15,2265           03525                           ECADR    RSTACK     +54D
000229: 15,2266           03523                           ECADR    RSTACK     +52D
000230: 15,2267           03521                           ECADR    RSTACK     +50D
000231: 15,2270           03517                           ECADR    RSTACK     +48D
000232: 15,2271           03515                           ECADR    RSTACK     +46D
000233: 15,2272           03513                           ECADR    RSTACK     +44D
000234: 15,2273           03511                           ECADR    RSTACK     +42D
000235: 15,2274           03507                           ECADR    RSTACK     +40D
000236: 15,2275           03505                           ECADR    RSTACK     +38D
000237: 15,2276           03503                           ECADR    RSTACK     +36D
000238: 15,2277           03501                           ECADR    RSTACK     +34D
000239: 15,2300           03477                           ECADR    RSTACK     +32D
000240: 15,2301           03475                           ECADR    RSTACK     +30D
000241: 15,2302           03473                           ECADR    RSTACK     +28D
000242: 15,2303           03471                           ECADR    RSTACK     +26D
000243: 15,2304           03467                           ECADR    RSTACK     +24D
000244: 15,2305           01465                           ADRES    RSTACK     +22D
000245: 15,2306           01463                           ADRES    RSTACK     +20D
000246: 15,2307           01461                           ADRES    RSTACK     +18D
000247: 15,2310           01457                           ADRES    RSTACK     +16D
000248: 15,2311           01455                           ADRES    RSTACK     +14D
000249: 15,2312           01453                           ADRES    RSTACK     +12D
000250: 15,2313           01451                           ADRES    RSTACK     +10D
000251: 15,2314           01447                           ADRES    RSTACK     +8D
000252: 15,2315           01445                           ADRES    RSTACK     +6
000253: 15,2316           01443                           ADRES    RSTACK     +4
000254: 15,2317           01441                           ADRES    RSTACK     +2
000255: 15,2320           01437                           ADRES    RSTACK
000256:                                                                                                  #        NOMINAL AURORA DOWNLIST.
000257: 15,2321           00342        NOMDNLST           ECADR    UPLOCK
000258: 15,2322           03461                           ECADR    RSTACK     +18D
000259: 15,2323           03453                           ECADR    RSTACK     +12D
000260: 15,2324           03445                           ECADR    RSTACK     +6
000261: 15,2325           03437                           ECADR    RSTACK
000262: 15,2326           02653                           ECADR    VLAUN      +4
000263: 15,2327           02647                           ECADR    VLAUN
000264: 15,2330           02637                           ECADR    ANGX
000265: 15,2331           02635                           ECADR    ANGY
000266: 15,2332           02631                           ECADR    ANGZ
000267: 15,2333           02621                           ECADR    TORQUE
000268: 15,2334           02645                           ECADR    DRIFTT
000269: 15,2335           02643                           ECADR    DRIFTI
000270: 15,2336           02641                           ECADR    DRIFTO
000271: 15,2337           00374                           ECADR    MARKSTAT
000272: 15,2340           00402                           ECADR    THETAD     +2
000273: 15,2341           00400                           ECADR    THETAD
000274: 15,2342           00423                           ECADR    TANG
000275: 15,2343           00362                           ECADR    LASTYCMD
000276: 15,2344           00366                           ECADR    LMPCMD
000277: 15,2345           01362                           ECADR    REDOCTR                               #  INCLUDES FAILREG.
000278: 15,2346           00063                           ECADR    STATE      +2
000279: 15,2347           00061                           ECADR    STATE
000280: 15,2350           00035                           ECADR    OPTY
000281: 15,2351           00034                           ECADR    CDUZ
000282: 15,2352           00032                           ECADR    CDUX
000283: 15,2353           00360                           ADRES    FORVEL
000284: 15,2354           00355                           ADRES    FINALT
000285: 15,2355           00364                           ADRES    ALTSAVE
000286: 15,2356           00354                           ADRES    ALTRATE
000287: 15,2357           00352                           ADRES    ALT
000288: 15,2360           00421                           ADRES    TIMEHOLD
000289: 15,2361           00417                           ADRES    OPTYHOLD
000290: 15,2362           00415                           ADRES    SAMPLSUM
000291: 15,2363           00427                           ADRES    OLDATAGD
000292: 15,2364           00413                           ADRES    RADMODES
000293: 15,2365           00041                           ADRES    PIPAZ
000294: 15,2366           00037                           ADRES    PIPAX
000295: 15,2367                        ENDDNTMS           EQUALS

End of include-file DOWN-TELEMETRY_PROGRAM.agc.  Parent file is MAIN.agc


