
Source Code


000002:                                                                                                  ## Copyright:   Public domain.
000003:                                                                                                  ## Filename:    EXECUTIVE.agc
000004:                                                                                                  ## Purpose:     A section of Aurora 88.
000005:                                                                                                  ##              It is part of the reconstructed source code for the final
000006:                                                                                                  ##              release of the Lunar Module system test software. No original
000007:                                                                                                  ##              listings of this program are available; instead, this file
000008:                                                                                                  ##              was created via disassembly of dumps of Aurora 88 core rope
000009:                                                                                                  ##              modules and comparison with other AGC programs.
000010:                                                                                                  ## Assembler:   yaYUL
000011:                                                                                                  ## Contact:     Ron Burkey <info@sandroid.org>.
000012:                                                                                                  ## Website:     www.ibiblio.org/apollo/index.html
000013:                                                                                                  ## Mod history: 2023-06-30 MAS  Created from Aurora 12.
000014:
000015:
000016:    4276                                           SETLOC   ENDSUBSF
000017:
000018:                                                                                                  #  TO ENTER A JOB REQUEST REQUIRING NO VAC AREA:
000019:
000020:    4276           54070        NOVAC              TS       NEWPRIO                               #  SAVE PRIORITY OF NEW JOB.
000021:    4277           00006                           EXTEND
000022:    4300           50002                           INDEX    Q                                     #  Q WILL BE UNDISTURBED THROUGHOUT.
000023:    4301           30001                           DCA      0                                     #  2CADR OF JOB ENTERED.
000024:    4302           52073                           DXCH     NEWLOC
000025:    4303           34362                           CAF      EXECBANK
000026:    4304           56004                           XCH      FBANK
000027:    4305           54065                           TS       EXECTEM1
000028:    4306           12242                           TCF      NOVAC2                                #  ENTER EXECUTIVE BANK.
000029:
000030:                                                                                                  #  TO ENTER A JOB REQUEST REQUIRING A VAC AREA - E.G., ALL (PARTIALLY) INTERPRETIVE JOBS.
000031:
000032:    4307           54070        FINDVAC            TS       NEWPRIO
000033:    4310           00006                           EXTEND
000034:    4311           50002                           INDEX    Q
000035:    4312           30001                           DCA      0
000036:    4313           52073                           DXCH     NEWLOC
000037:    4314           34362                           CAF      EXECBANK
000038:    4315           56004                           XCH      FBANK
000039:    4316           12220                           TCF      FINDVAC2                              #  OFF TO EXECUTIVE SWITCHED-BANK.
000040:
000041:                                                                                                  #  TO SUSPEND A BASIC JOB SO A HIGHER PRIORITY JOB MAY BE SERVICED:
000042:
000043:    4317           34362        CHANG1             CAF      EXECBANK
000044:    4320           54001                           TS       L
000045:    4321           30002                           CA       Q
000046:    4322           22006                 +3        LXCH     BBANK
000047:    4323           00004                           INHINT
000048:    4324           12320                           TCF      CHANJOB
000049:
000050:                                                                                                  #  TO SUSPEND AN INTERPRETIVE JOB:
000051:
000052:    4325           34362        CHANG2             CAF      EXECBANK
000053:    4326           54001                           TS       L
000054:    4327           40150                           CS       LOC                                   #  NEGATIVE LOC SHOWS JOB INTERPRETIVE.
000055:    4330           14322                           TCF      CHANG1     +3
000056:
000057:
000058:                                                                                                  #  TO VOLUNTARILY SUSPEND A JOB UNTIL THE COMPLETION OF SOME ANTICIPATED EVENT (I/O EVENT ETC.):
000059:
000060:    4331           54150        JOBSLEEP           TS       LOC
000061:    4332           34362                           CAF      EXECBANK
000062:    4333           54004                           TS       FBANK
000063:    4334           12403                           TCF      JOBSLP1
000064:
000065:                                                                                                  #  TO AWAKEN A JOB PUT TO SLEEP IN THE ABOVE FASHION:
000066:
000067:    4335           54072        JOBWAKE            TS       NEWLOC
000068:    4336           47651                           CS       TWO                                   #  EXIT IS VIA FINDVAC/NOVAC PROCEDURES.
000069:    4337           26002                           ADS      Q
000070:    4340           34362                           CAF      EXECBANK
000071:    4341           56004                           XCH      FBANK
000072:    4342           12414                           TCF      JOBWAKE2
000073:
000074:                                                                                                  #  TO CHANGE THE PRIORITY OF A JOB CURRENTLY UNDER EXECUTION:
000075:
000076:    4343           00004        PRIOCHNG           INHINT                                         #  NEW PRIORITY ARRIVES IN A. RETURNS TO
000077:    4344           54070                           TS       NEWPRIO                               #  CALLER AS SOON AS NEW JOB PRIORITY IS
000078:    4345           34362                           CAF      EXECBANK                              #  HIGHEST. PREPARE FOR POSSIBLE BASIC-
000079:    4346           56006                           XCH      BBANK                                 #  STYLE CHANGE-JOB.
000080:    4347           54151                           TS       BANKSET
000081:    4350           30002                           CA       Q
000082:    4351           12463                           TCF      PRIOCH2
000083:
000084:                                                                                                  #  TO FREE THE DISPLAY BEFORE ENDOFJOB:
000085:
000086:    4352           05303        EJFREE             TC       FREEDSP
000087:
000088:                                                                                                  #  TO REMOVE A JOB FROM EXECUTIVE CONSIDERATIONS:
000089:
000090:    4353           34362        ENDOFJOB           CAF      EXECBANK
000091:    4354           54004                           TS       FBANK
000092:    4355           12474                           TCF      ENDJOB1
000093:
000094:    4356           30065        ENDFIND            CA       EXECTEM1                              #  RETURN TO CALLER AFTER JOB ENTRY
000095:    4357           54004                           TS       FBANK                                 #  COMPLETE.
000096:    4360           50002                           INDEX    Q
000097:    4361           00002                           TC       2
000098:
000099:    4362           02220        EXECBANK           CADR     FINDVAC2
000100:
000101:
000102:                                                                                                  #  LOCATE AN AVAILABLE VAC AREA.
000103:
000104: 01,2220                                           SETLOC   ENDINTS1
000105:
000106: 01,2220           54065        FINDVAC2           TS       EXECTEM1                              #  (SAVE CALLER'S BANK FIRST.)
000107: 01,2221           10431                           CCS      VAC1USE
000108: 01,2222           12235                           TCF      VACFOUND
000109: 01,2223           10505                           CCS      VAC2USE
000110: 01,2224           12235                           TCF      VACFOUND
000111: 01,2225           10561                           CCS      VAC3USE
000112: 01,2226           12235                           TCF      VACFOUND
000113: 01,2227           10635                           CCS      VAC4USE
000114: 01,2230           12235                           TCF      VACFOUND
000115: 01,2231           10711                           CCS      VAC5USE
000116: 01,2232           12235                           TCF      VACFOUND
000117: 01,2233           05350                           TC       ABORT
000118: 01,2234           01201                           OCT      1201                                  #  NO VAC AREAS.
000119:
000120: 01,2235           67651        VACFOUND           AD       TWO                                   #  RESERVE THIS VAC AREA BY STORING A ZERO
000121: 01,2236           22007                           ZL                                             #  IN ITS VAC USE REGISTER AND STORE THE
000122: 01,2237           50000                           INDEX    A                                     #  ADDRESS OF THE FIRST WORD OF IT IN THE
000123: 01,2240           21777                           LXCH     0          -1                         #  LOW NINE BITS OF THE PRIORITY WORD.
000124: 01,2241           26070                           ADS      NEWPRIO
000125:
000126: 01,2242           37657        NOVAC2             CAF      ZERO                                  #  NOVAC ENTERS HERE.  FIND A CORE SET.
000127: 01,2243           54071                           TS       LOCCTR
000128: 01,2244           32251                           CAF      NO.CORES                              #  SEVEN SETS OF ELEVEN REGISTERS EACH.
000129: 01,2245           54066        NOVAC3             TS       EXECTEM2
000130: 01,2246           50071                           INDEX    LOCCTR
000131: 01,2247           10153                           CCS      PRIORITY                              #  EACH PRIORITY REGISTER CONTAINS -0 IF
000132: 01,2250           12311                           TCF      NEXTCORE                              #  THE CORRESPONDING CORE SET IS AVAILABLE.
000133: 01,2251           00006        NO.CORES           DEC      6          B-14
000134: 01,2252           12311                           TCF      NEXTCORE                              #  AN ACTIVE JOB HAS A POSITIVE PRIORITY
000135:                                                                                                  #  BUT A DORMANT JOB'S PRIORITY IS NEGATIVE
000136:
000137:
000138: 01,2253           30070        CORFOUND           CA       NEWPRIO                               #  SET THE PRIORITY OF THIS JOB IN THE CORE
000139: 01,2254           50071                           INDEX    LOCCTR                                #  SET'S PRIORITY REGISTER AND SET THE
000140: 01,2255           54153                           TS       PRIORITY                              #  JOB'S PUSH-DOWN POINTER AT THE BEGINNING
000141: 01,2256           77664                           MASK     LOW9                                  #  OF THE WORK AREA AND OVERFLOW INDICATOR
000142: 01,2257           50071                           INDEX    LOCCTR
000143: 01,2260           54152                           TS       PUSHLOC                               #  OFF TO PREPARE FOR INTERPRETIVE PROGRAMS
000144:
000145: 01,2261           10071                           CCS      LOCCTR                                #  IF CORE SET ZERO IS BEING LOADED, SET UP
000146: 01,2262           12276                           TCF      SETLOC                                #  OVFIND AND FIXLOC IMMEDIATELY.
000147: 01,2263           54105                           TS       OVFIND
000148: 01,2264           30152                           CA       PUSHLOC
000149: 01,2265           54104                           TS       FIXLOC
000150:
000151: 01,2266           10067        SPECTEST           CCS      NEWJOB                                #  SEE IF ANY ACTIVE JOBS WAITING (RARE).
000152: 01,2267           12276                           TCF      SETLOC                                #  MUST BE AWAKENED BUT UNCHANGED JOB.
000153: 01,2270           05366                           TC       CCSHOLE
000154: 01,2271           05366                           TC       CCSHOLE
000155: 01,2272           54067                           TS       NEWJOB                                #  +0 SHOWS ACTIVE JOB ALREADY SET.
000156: 01,2273           52073                           DXCH     NEWLOC
000157: 01,2274           52151                           DXCH     LOC
000158: 01,2275           14356                           TCF      ENDFIND
000159:
000160: 01,2276           52073        SETLOC             DXCH     NEWLOC                                #  SET UP THE LOCATION REGISTERS FOR THIS
000161: 01,2277           50071                           INDEX    LOCCTR
000162: 01,2300           52151                           DXCH     LOC
000163: 01,2301           50067                           INDEX    NEWJOB                                #  THIS INDEX INSTRUCTION INSURES THAT THE
000164: 01,2302           40153                           CS       PRIORITY                              #  HIGHEST ACTIVE PRIORITY WILL BE COMPARED
000165: 01,2303           60070                           AD       NEWPRIO                               #  WITH THE NEW PRIORITY TO SEE IF NEWJOB
000166: 01,2304           00006                           EXTEND                                         #  SHOULD BE SET TO SIGNAL A SWITCH.
000167: 01,2305           64356                           BZMF     ENDFIND
000168: 01,2306           30071                           CA       LOCCTR                                #  LOCCTR IS LEFT SET AT THIS CORE SET IF
000169: 01,2307           54067                           TS       NEWJOB                                #  THE CALLER WANTS TO LOAD ANY MPAC
000170: 01,2310           14356                           TCF      ENDFIND                               #  REGISTERS, ETC.
000171:
000172: 01,2311           32424        NEXTCORE           CAF      COREINC
000173: 01,2312           26071                           ADS      LOCCTR
000174: 01,2313           10066                           CCS      EXECTEM2
000175: 01,2314           12245                           TCF      NOVAC3
000176: 01,2315           05350                           TC       ABORT                                 #  NO CORE SETS.
000177: 01,2316           01202                           OCT      1202
000178:
000179:
000180:                                                                                                  #  THE FOLLOWING ROUTINE SWAPS CORE SET 0 WITH THAT WHOSE RELATIVE ADDRESS IS IN NEWJOB.
000181:
000182: 01,2317           52151                 -1        DXCH     LOC
000183: 01,2320           50067        CHANJOB            INDEX    NEWJOB                                #  LOC ARRIVES IN A AND BBANK IN L.
000184: 01,2321           52151                           DXCH     LOC
000185: 01,2322           52151                           DXCH     LOC
000186:
000187: 01,2323           52141                           DXCH     MPAC                                  #  SWAP MULTI-PURPOSE ACCUMULATOR AREAS.
000188: 01,2324           50067                           INDEX    NEWJOB
000189: 01,2325           52141                           DXCH     MPAC
000190: 01,2326           52141                           DXCH     MPAC
000191: 01,2327           52143                           DXCH     MPAC       +2
000192: 01,2330           50067                           INDEX    NEWJOB
000193: 01,2331           52143                           DXCH     MPAC       +2
000194: 01,2332           52143                           DXCH     MPAC       +2
000195: 01,2333           52145                           DXCH     MPAC       +4
000196: 01,2334           50067                           INDEX    NEWJOB
000197: 01,2335           52145                           DXCH     MPAC       +4
000198: 01,2336           52145                           DXCH     MPAC       +4
000199: 01,2337           52147                           DXCH     MPAC       +6
000200: 01,2340           50067                           INDEX    NEWJOB
000201: 01,2341           52147                           DXCH     MPAC       +6
000202: 01,2342           52147                           DXCH     MPAC       +6
000203:
000204: 01,2343           37657                           CAF      ZERO
000205: 01,2344           56105                           XCH      OVFIND                                #  MAKE PUSHLOC NEGATIVE IF OVFIND NZ.
000206: 01,2345           00006                           EXTEND
000207: 01,2346           12351                           BZF      +3
000208: 01,2347           40152                           CS       PUSHLOC
000209: 01,2350           54152                           TS       PUSHLOC
000210:
000211: 01,2351           52153                           DXCH     PUSHLOC
000212: 01,2352           50067                           INDEX    NEWJOB
000213: 01,2353           52153                           DXCH     PUSHLOC
000214: 01,2354           52153                           DXCH     PUSHLOC                               #  SWAPS PUSHLOC AND PRIORITY.
000215: 01,2355           37664                           CAF      LOW9                                  #  SET FIXLOC TO BASE OF VAC AREA.
000216: 01,2356           70153                           MASK     PRIORITY
000217: 01,2357           54104                           TS       FIXLOC
000218:
000219: 01,2360           10152                           CCS      PUSHLOC                               #  SET OVERFLOW INDICATOR ACCORDING TO
000220: 01,2361           37657                           CAF      ZERO
000221: 01,2362           12367                           TCF      ENDPRCHG   -1
000222: 01,2363           40152                           CS       PUSHLOC
000223: 01,2364           54152                           TS       PUSHLOC
000224: 01,2365           37652                           CAF      ONE
000225: 01,2366           56105                           XCH      OVFIND
000226: 01,2367           54067                           TS       NEWJOB
000227:
000228: 01,2370           00003        ENDPRCHG           RELINT
000229: 01,2371           52151                           DXCH     LOC                                   #  BASIC JOBS HAVE POSITIVE ADDRESSES, SO
000230:
000231:
000232: 01,2372           00006                           EXTEND                                         #  DISPATCH WITH A DTCB.
000233: 01,2373           62375                           BZMF     +2                                    #  IF INTERPRETIVE, SET UP EBANK, ETC.
000234: 01,2374           52006                           DTCB
000235:
000236:
000237: 01,2375           40000                           COM                                            #  EPILOGUE TO JOB CHANGE FOR INTERPRETIVE
000238: 01,2376           67652                           AD       ONE
000239: 01,2377           54150                           TS       LOC                                   #  RESUME.
000240: 01,2400           36232                           CAF      FBANKMSK
000241: 01,2401           70001                           MASK     L
000242: 01,2402           16011                           TCF      INTRSM
000243:
000244:                                                                                                  #  COMPLETE JOBSLEEP PREPARATIONS.
000245:
000246: 01,2403           00004        JOBSLP1            INHINT
000247: 01,2404           40153                           CS       PRIORITY                              #  NNZ PRIORITY SHOWS JOB ASLEEP.
000248: 01,2405           54153                           TS       PRIORITY
000249: 01,2406           36027                           CAF      LOW7
000250: 01,2407           70006                           MASK     BBANK
000251: 01,2410           54151                           TS       BANKSET
000252: 01,2411           47657                           CS       ZERO
000253: 01,2412           54115        JOBSLP2            TS       BUF        +1                         #  HOLDS - HIGHEST PRIORITY.
000254: 01,2413           12504                           TCF      EJSCAN                                #  SCAN FOR HIGHEST PRIORITY ALA ENDOFJOB.
000255:
000256:
000257:                                                                                                  #  TO WAKE UP A JOB, EACH CORE SET IS FOUND TO LOCATE ALL JOBS WHICH ARE ASLEEP. IF THE FCADR IN THE
000258:                                                                                                  #  LOC REGISTER OF ANY SUCH JOB MATCHES THAT SUPPLIED BY THE CALLER, THAT JOB IS AWAKENED. IF NO JOB IS FOUND,
000259:                                                                                                  #  LOCCTR IS SET TO -1 AND NO FURTHER ACTION TAKES PLACE.
000260:
000261: 01,2414           54065        JOBWAKE2           TS       EXECTEM1
000262: 01,2415           37657                           CAF      ZERO                                  #  BEGIN CORE SET SCAN.
000263: 01,2416           54071                           TS       LOCCTR
000264: 01,2417           32251                           CAF      NO.CORES
000265: 01,2420           54066        JOBWAKE4           TS       EXECTEM2
000266: 01,2421           50071                           INDEX    LOCCTR
000267: 01,2422           10153                           CCS      PRIORITY
000268: 01,2423           12426                           TCF      JOBWAKE3                              #  ACTIVE JOB - CHECK NEXT CORE SET.
000269: 01,2424           00014        COREINC            DEC      12         B-14                       #  12 REGISTERS PER CORE SET.
000270: 01,2425           12435                           TCF      WAKETEST                              #  SLEEPING JOB - SEE IF CADR MATCHES.
000271:
000272: 01,2426           32424        JOBWAKE3           CAF      COREINC
000273: 01,2427           26071                           ADS      LOCCTR
000274: 01,2430           10066                           CCS      EXECTEM2
000275: 01,2431           12420                           TCF      JOBWAKE4
000276: 01,2432           47652                           CS       ONE                                   #  EXIT IF SLEEPING JOB NOT FOUND.
000277: 01,2433           54071                           TS       LOCCTR
000278: 01,2434           14356                           TCF      ENDFIND
000279:
000280: 01,2435           40072        WAKETEST           CS       NEWLOC
000281: 01,2436           50071                           INDEX    LOCCTR
000282: 01,2437           60150                           AD       LOC
000283: 01,2440           00006                           EXTEND
000284: 01,2441           12443                           BZF      +2                                    #  IF MATCH.
000285: 01,2442           12426                           TCF      JOBWAKE3                              #  EXAMINE NEXT CORE SET IF NO MATCH.
000286:
000287: 01,2443           50071                           INDEX    LOCCTR                                #  RE-COMPLEMENT PRIORITY TO SHOW JOB AWAKE
000288: 01,2444           40153                           CS       PRIORITY
000289: 01,2445           54070                           TS       NEWPRIO
000290: 01,2446           50071                           INDEX    LOCCTR
000291: 01,2447           54153                           TS       PRIORITY
000292:
000293: 01,2450           46232                           CS       FBANKMSK                              #  MAKE UP THE 2CADR OF THE WAKE ADDRESS
000294: 01,2451           70072                           MASK     NEWLOC                                #  USING THE CADR IN NEWLOC AND THE EBANK
000295: 01,2452           67640                           AD       2K                                    #  HALF OF BBANK SAVED IN BANKSET.
000296: 01,2453           56072                           XCH      NEWLOC
000297: 01,2454           76232                           MASK     FBANKMSK
000298: 01,2455           50071                           INDEX    LOCCTR
000299: 01,2456           60151                           AD       BANKSET
000300: 01,2457           54073                           TS       NEWLOC     +1
000301:
000302: 01,2460           10071                           CCS      LOCCTR                                #  SPECIAL TREATMENT IF THIS JOB WAS
000303: 01,2461           12276                           TCF      SETLOC                                #  ALREADY IN THE RUN (0) POSITION.
000304: 01,2462           12266                           TCF      SPECTEST
000305:
000306:
000307:                                                                                                  #  PRIORITY CHANGE. CHANGE THE CONTENTS OF PRIORITY AND SCAN FOR THE JOB OF HIGHEST PRIORITY.
000308:
000309: 01,2463           54150        PRIOCH2            TS       LOC
000310: 01,2464           37657                           CAF      ZERO                                  #  SET FLAG TO TELL ENDJOB SCANNER IF THIS
000311: 01,2465           54114                           TS       BUF                                   #  JOB IS STILL HIGHEST PRIORITY.
000312: 01,2466           37664                           CAF      LOW9
000313: 01,2467           70153                           MASK     PRIORITY
000314: 01,2470           60070                           AD       NEWPRIO
000315: 01,2471           54153                           TS       PRIORITY
000316: 01,2472           40000                           COM
000317: 01,2473           12412                           TCF      JOBSLP2                               #  AND TO EJSCAN.
000318:
000319:
000320:                                                                                                  #  RELEASE THIS CORE SET AND VAC AREA AND SCAN FOR THE JOB OF HIGHEST ACTIVE PRIORITY.
000321:
000322: 01,2474           00004        ENDJOB1            INHINT
000323: 01,2475           47657                           CS       ZERO
000324: 01,2476           54115                           TS       BUF        +1
000325: 01,2477           56153                           XCH      PRIORITY
000326: 01,2500           77664                           MASK     LOW9
000327: 01,2501           10000                           CCS      A
000328: 01,2502           50000                           INDEX    A
000329: 01,2503           54000                           TS       0
000330:
000331: 01,2504           10167        EJSCAN             CCS      PRIORITY   +12D
000332: 01,2505           02551                           TC       EJ1
000333: 01,2506           05366                           TC       CCSHOLE
000334: 01,2507           12510                           TCF      +1
000335:
000336: 01,2510           10203                           CCS      PRIORITY   +24D                       #  EXAMINE EACH PRIORITY REGISTER TO FIND
000337: 01,2511           02551                           TC       EJ1                                   #  THE JOB OF HIGHEST ACTIVE PRIORITY.
000338: 01,2512           05366                           TC       CCSHOLE
000339: 01,2513           12514                           TCF      +1
000340:
000341: 01,2514           10217                           CCS      PRIORITY   +36D
000342: 01,2515           02551                           TC       EJ1
000343: 01,2516           67624        -CCSPR             -CCS     PRIORITY
000344: 01,2517           12520                           TCF      +1
000345:
000346: 01,2520           10233                           CCS      PRIORITY   +48D
000347: 01,2521           02551                           TC       EJ1
000348: 01,2522           05366                           TC       CCSHOLE
000349: 01,2523           12524                           TCF      +1
000350:
000351: 01,2524           10247                           CCS      PRIORITY   +60D
000352: 01,2525           02551                           TC       EJ1
000353: 01,2526           05366                           TC       CCSHOLE
000354: 01,2527           12530                           TCF      +1
000355:
000356: 01,2530           10263                           CCS      PRIORITY   +72D
000357: 01,2531           02551                           TC       EJ1
000358: 01,2532           05366                           TC       CCSHOLE
000359: 01,2533           12534                           TCF      +1
000360:
000361:
000362:                                                                                                  #  EVALUATE THE RESULTS OF THE SCAN.
000363:
000364: 01,2534           10115                           CCS      BUF        +1                         #  SEE IF THERE ARE ANY ACTIVE JOBS WAITING
000365: 01,2535           05366                           TC       CCSHOLE
000366: 01,2536           05366                           TC       CCSHOLE
000367:
000368: 01,2537           12541                           TCF      +2
000369: 01,2540           14363                           TCF      DUMMYJOB
000370: 01,2541           10114                           CCS      BUF                                   #  BUF IS ZERO IF THIS IS A PRIOCHNG AND
000371: 01,2542           12544                           TCF      +2                                    #  CHANGED PRIORITY IS STILL HIGHEST.
000372: 01,2543           12370                           TCF      ENDPRCHG
000373:
000374: 01,2544           50000                           INDEX    A                                     #  OTHERWISE, SET NEWJOB TO THE RELATIVE
000375: 01,2545           27777                           CAF      0          -1                         #  ADDRESS OF THE NEW JOB'S CORE SET.
000376: 01,2546           62516                           AD       -CCSPR
000377: 01,2547           54067                           TS       NEWJOB
000378: 01,2550           12317                           TCF      CHANJOB    -1
000379:
000380: 01,2551           54116        EJ1                TS       BUF        +2
000381: 01,2552           60115                           AD       BUF        +1                         #  - OLD HIGH PRIORITY.
000382: 01,2553           10000                           CCS      A
000383: 01,2554           40116                           CS       BUF        +2
000384: 01,2555           12561                           TCF      EJ2                                   #  NEW HIGH PRIORITY.
000385: 01,2556           12557                           NOOP
000386: 01,2557           50002                           INDEX    Q
000387: 01,2560           00002                           TC       2                                     #  PROCEED WITH SEARCH.
000388:
000389: 01,2561           54115        EJ2                TS       BUF        +1
000390: 01,2562           00006                           EXTEND
000391: 01,2563           22114                           QXCH     BUF                                   #  FOR LOCATING CCS PRIORITY + X INSTR.
000392: 01,2564           50114                           INDEX    BUF
000393: 01,2565           00002                           TC       2
000394:
000395: 01,2566                        ENDEXECS           EQUALS
000396:
000397:
000398:                                                                                                  #  IDLING AND COMPUTER ACTIVITY (GREEN) LIGHT MAINTENANCE. THE IDLING ROUTINE IS NOT A JOB IN ITSELF,
000399:                                                                                                  #  BUT RATHER A SUBROUTINE OF THE EXECUTIVE.
000400:
000401:    4363                                           SETLOC   EXECBANK   +1
000402:
000403:    4363     1360                                  EBANK=   SELFRET                               #  SELF-CHECK STORAGE IN EBANK.
000404:
000405:    4363           47657        DUMMYJOB           CS       ZERO                                  #  SET NEWJOB TO -0 FOR IDLING.
000406:    4364           54067                           TS       NEWJOB
000407:    4365           00003                           RELINT
000408:    4366           47651                           CS       TWO                                   #  TURN OFF THE ACTIVITY LIGHT.
000409:    4367           00006                           EXTEND
000410:    4370           03011                           WAND     DSALMOUT
000411:    4371           14374                           TCF      CHECKNJ    +2
000412:
000413:    4372           00006        CHECKNJ            EXTEND                                         #  SPECIAL NEWJOB TEST FOR SELF-CHECK,
000414:    4373           23360                           QXCH     SELFRET                               #  WHICH RUNS UNDER EXECUTIVE CONTROL,
000415:    4374           10067                 +2        CCS      NEWJOB                                #  BUT DOES NOT HAVE A JOBS CORE REGISTERS.
000416:    4375           14407                           TCF      NUCHANGE                              #  NEW JOB REQUIRING A CHANGE JOB.
000417:    4376           37651                           CAF      TWO                                   #  NEW JOB ALREADY IN POSITION FOR
000418:    4377           14403                           TCF      NUDIRECT                              #  EXECUTION.
000419:
000420:    4400           34416        ADVAN              CAF      SELFBANK                              #  (SIMULATOR ADVAN IF NEWJOB = 77777).
000421:    4401           54006                           TS       BBANK
000422:    4402           01360                           TC       SELFRET
000423:
000424:    4403           00006        NUDIRECT           EXTEND                                         #  TURN THE GREEN LIGHT BACK ON.
000425:    4404           05011                           WOR      DSALMOUT
000426:    4405           52151                           DXCH     LOC                                   #  JOBS STARTED IN THIS FASHION MUST BE
000427:    4406           52006                           DTCB                                           #  BASIC.
000428:
000429:    4407           37651        NUCHANGE           CAF      TWO
000430:    4410           00006                           EXTEND
000431:    4411           05011                           WOR      DSALMOUT
000432:    4412           34362                           CAF      EXECBANK                              #  SWAP CORE SETS.
000433:    4413           54004                           TS       FBANK
000434:    4414           00004                           INHINT                                         #  CHANGE JOBS
000435:    4415           12317                           TCF      CHANJOB    -1
000436:
000437:    4416           40002        SELFBANK           BBCON    SELFCHK
000438:
000439:
000440:                                                                                                  #  PRIORITY CONSTANTS (NOTE IN FIXED-FIXED).
000441:
000442:    4417     7641               PRIO1              EQUALS   BIT10
000443:    4417     7640               PRIO2              EQUALS   BIT11
000444:    4417           03000        PRIO3              OCT      03000
000445:    4420     7637               PRIO4              EQUALS   BIT12
000446:    4420           05000        PRIO5              OCT      05000
000447:    4421           06000        PRIO6              OCT      06000
000448:    4422           07000        PRIO7              OCT      07000
000449:    4423     7636               PRIO10             EQUALS   BIT13
000450:    4423           11000        PRIO11             OCT      11000
000451:    4424           12000        PRIO12             OCT      12000
000452:    4425           13000        PRIO13             OCT      13000
000453:    4426           14000        PRIO14             OCT      14000
000454:    4427           15000        PRIO15             OCT      15000
000455:    4430           16000        PRIO16             OCT      16000
000456:    4431           17000        PRIO17             OCT      17000
000457:    4432     7635               PRIO20             EQUALS   BIT14
000458:    4432           21000        PRIO21             OCT      21000
000459:    4433           22000        PRIO22             OCT      22000
000460:    4434           23000        PRIO23             OCT      23000
000461:    4435           24000        PRIO24             OCT      24000
000462:    4436           25000        PRIO25             OCT      25000
000463:    4437           26000        PRIO26             OCT      26000
000464:    4440           27000        PRIO27             OCT      27000
000465:    4441           30000        PRIO30             OCT      30000
000466:    4442           31000        PRIO31             OCT      31000
000467:    4443           32000        PRIO32             OCT      32000
000468:    4444           33000        PRIO33             OCT      33000
000469:    4445           34000        PRIO34             OCT      34000
000470:    4446           35000        PRIO35             OCT      35000
000471:    4447           36000        PRIO36             OCT      36000
000472:    4450           37000        PRIO37             OCT      37000
000473:    4451                        ENDEXECF           EQUALS

End of include-file EXECUTIVE.agc.  Parent file is MAIN.agc


