
Source Code


000002:                                                                                                  ## Copyright:   Public domain.
000003:                                                                                                  ## Filename:    EXTENDED_VERBS.agc
000004:                                                                                                  ## Purpose:     A section of Aurora 88.
000005:                                                                                                  ##              It is part of the reconstructed source code for the final
000006:                                                                                                  ##              release of the Lunar Module system test software. No original
000007:                                                                                                  ##              listings of this program are available; instead, this file
000008:                                                                                                  ##              was created via disassembly of dumps of Aurora 88 core rope
000009:                                                                                                  ##              modules and comparison with other AGC programs.
000010:                                                                                                  ## Assembler:   yaYUL
000011:                                                                                                  ## Contact:     Ron Burkey <info@sandroid.org>.
000012:                                                                                                  ## Website:     www.ibiblio.org/apollo/index.html
000013:                                                                                                  ## Mod history: 2023-06-30 MAS  Created from Aurora 12.
000014:                                                                                                  ##              2023-07-12 MAS  Updated for Aurora 88.
000015:
000016:
000017: 11,2000                                           BANK     11
000018: 11,2000  E5,1500                                  EBANK=   OGC
000019:
000020:                                                                                                  #  FAN-OUT
000021:
000022: 11,2000           02070        LST2FAN            TC       VBZERO                                #  VB40 ZERO (USED WITH NOUN 20, 40, OR 70
000023:                                                                                                  #                                     ONLY)
000024: 11,2001           02074                           TC       VBCOARK                               #  VB41 COARSE ALIGN (USED WITH NOUN 20, 40
000025:                                                                                                  #                               OR 70 ONLY)
000026: 11,2002           02213                           TC       IMUFINEK                              #  VB42 FINE ALIGN IMU
000027: 11,2003           02577                           TC       IMUATTCK                              #  VB43  LOAD IMU ATTITUDE ERROR METERS.
000028: 11,2004           02066                           TC       ALM/END                               #  ILLEGAL VERB.
000029: 11,2005           12135                           TCF      LRPOS2K                               #  VB45 COMMAND LR TO POSITION 2.
000030: 11,2006           02420                           TC       REGRSAMP                              #  VB46 SAMPLE RADAR ONCE PER SECOND
000031: 11,2007           02412                           TC       DOFCSTST                              #  VB47 PERFORM LEM FCS TEST
000032: 11,2010           02271                           TC       GOLOADLV                              #  VB50 PLEASE PERFORM
000033: 11,2011           02271                           TC       GOLOADLV                              #  VB51 PLEASE MARK
000034: 11,2012           02271                           TC       GOLOADLV                              #  VB52 PLEASE MARK Y
000035: 11,2013           02271                           TC       GOLOADLV                              #  VB53 PLEASE MARK X OR Y.
000036: 11,2014           02275                           TC       TORQGYRS                              #  VB54 PULSE TORQUE GYROS
000037: 11,2015           02312                           TC       ALINTIME                              #  VB55 ALIGN TIME
000038: 11,2016           02410                           TC       GOSHOSUM                              #  VB56 PERFORM BANKSUM
000039: 11,2017           02340                           TC       SYSTEST                               #  VB57 PERFORM SYSTEM TEST
000040: 11,2020           03244                           TC       PRESTAND                              #  VB60 PREPARE FOR STANDBY
000041: 11,2021           03312                           TC       POSTAND                               #  VB61 RECOVER FROM STANDBY
000042: 11,2022           02656                           TC       SETUPMSG                              #  VB62 SCAM LEM INBITS
000043: 11,2023           12535                           TCF      AGSINIT                               #  VB63 INITIALIZE AGS
000044: 11,2024           12066                           TCF      ALM/END
000045: 11,2025           12066                           TCF      ALM/END
000046: 11,2026           13143                           TCF      LOTSTRT                               #  VB66 LOTS FRESH START
000047: 11,2027           12066                           TCF      ALM/END
000048: 11,2030           02645                           TC       LOTSACQ                               #  VB70 ACQUIRE WITH LOTS
000049: 11,2031           02650                           TC       LOTSTEST                              #  VB71 LOTS SELF TEST
000050: 11,2032           02653                           TC       LOTSSTOW                              #  VB72 RETURN LOTS TO STOW
000051: 11,2033           12066                           TCF      ALM/END
000052: 11,2034           12066                           TCF      ALM/END
000053: 11,2035           12066                           TCF      ALM/END
000054: 11,2036           12066                           TCF      ALM/END
000055: 11,2037           02066                           TC       ALM/END
000056:
000057: 11,2040           37650        TESTXACT           CAF      BIT3
000058: 11,2041           70332                           MASK     EXTVBACT
000059: 11,2042           10000                           CCS      A
000060: 11,2043           02053                           TC       XACTALM
000061:
000062: 11,2044           47650        XACT1              CS       BIT3
000063: 11,2045           00004                           INHINT
000064: 11,2046           70332                           MASK     EXTVBACT
000065: 11,2047           67650                           AD       BIT3
000066: 11,2050           54332                           TS       EXTVBACT
000067:
000068: 11,2051           00003                           RELINT
000069: 11,2052           00002                           TC       Q
000070:
000071: 11,2053           05145        XACTALM            TC       FALTON
000072: 11,2054           04353                           TC       ENDOFJOB
000073:
000074: 11,2055           05303        TERMEXTV           TC       FREEDSP                               #  IF WE GET A TERMINATE INSTEAD OF A LOAD.
000075:
000076: 11,2056           02060        ENDEXTVB           TC       XACT0
000077: 11,2057           04353                           TC       ENDOFJOB
000078:
000079: 11,2060           47650        XACT0              CS       BIT3
000080: 11,2061           00004                           INHINT
000081: 11,2062           70332                           MASK     EXTVBACT
000082: 11,2063           54332                           TS       EXTVBACT
000083: 11,2064           00003                           RELINT
000084: 11,2065           00002        XACT0Q             TC       Q
000085:
000086:
000087:
000088: 11,2066           05145        ALM/END            TC       FALTON
000089: 11,2067           02056                           TC       ENDEXTVB
000090:
000091:
000092:
000093: 11,2070           02100        VBZERO             TC       OP/INERT
000094: 11,2071           02117                           TC       IMUZEROK                              #  RETURN HERE IF NOUN = ICDU(20)
000095: 11,2072           02126                           TC       RRZEROK                               #  RETURN HERE IF NOUN = RCDU(40)
000096: 11,2073           02066                           TC       ALM/END                               #  RETURN HERE IF NOUN = OCDU(70)
000097:
000098: 11,2074           02100        VBCOARK            TC       OP/INERT
000099: 11,2075           02141                           TC       IMUCOARK                              #  RETURN HERE IF NOUN = ICDU (20)
000100: 11,2076           02243                           TC       RRDESNBK                              #  RETURN HERE IF NOUN = RCDU (40)
000101: 11,2077           02066                           TC       ALM/END                               #  RETURN HERE IF NOUN = OCDU (70)
000102:
000103:                                                                                                  #  RETURNS TO L+1 IF IMU, L+2 IF RR, AND L+3 IF OT.
000104:
000105: 11,2100           47646        OP/INERT           CS       BIT5                                  #  OCT20
000106: 11,2101           60267                           AD       NOUNREG
000107: 11,2102           00006                           EXTEND
000108: 11,2103           12065                           BZF      XACT0Q                                #  IF = 20.
000109:
000110: 11,2104           24002                           INCR     Q
000111: 11,2105           62115                           AD       RRIMUDIF                              #  = -20 OCT.
000112: 11,2106           00006                           EXTEND
000113: 11,2107           12065                           BZF      XACT0Q
000114:
000115: 11,2110           24002                           INCR     Q
000116: 11,2111           62116                           AD       OTRRDIF                               #  = -30 OCT.
000117: 11,2112           00006                           EXTEND
000118: 11,2113           12065                           BZF      XACT0Q
000119:
000120: 11,2114           02066                           TC       ALM/END                               #  ILLEGAL.
000121:
000122: 11,2115           77757        RRIMUDIF           OCT      -20
000123: 11,2116           77747        OTRRDIF            OCT      -30
000124:
000125:                                                                                                  #  KEYBOARD REQUEST TO ZERO IMU ENCODERS
000126:
000127: 11,2117           02040        IMUZEROK           TC       TESTXACT                              #  ZERO ENCODERS.
000128: 11,2120           04063                           TC       BANKCALL
000129: 11,2121           26000                           CADR     IMUZERO
000130:
000131: 11,2122           04063                           TC       BANKCALL                              #  STALL
000132: 11,2123           26716                           CADR     IMUSTALL
000133: 11,2124           02125                           TC       +1
000134:
000135: 11,2125           02056                           TC       ENDEXTVB
000136: 11,2126           02040        RRZEROK            TC       TESTXACT
000137: 11,2127           04063                           TC       BANKCALL                              #  ZERO RR CDUS.
000138: 11,2130           20246                           CADR     RRZERO
000139:
000140: 11,2131           04063        RWAITK             TC       BANKCALL
000141: 11,2132           26712                           CADR     RADSTALL
000142: 11,2133           12134                           TCF      +1
000143: 11,2134           12056                           TCF      ENDEXTVB
000144:
000145: 11,2135           02040        LRPOS2K            TC       TESTXACT                              #  COMMAND LR TO POSITION 2.
000146: 11,2136           04063                           TC       BANKCALL
000147: 11,2137           21173                           CADR     LRPOS2
000148: 11,2140           12131                           TCF      RWAITK
000149:
000150:                                                                                                  #  KEYBOARD REQUEST TO COARSE ALIGN THE IMU
000151:
000152: 11,2141           02040        IMUCOARK           TC       TESTXACT                              #  COARSE ALIGN FROM KEYBOARD.
000153: 11,2142           05221                           TC       GRABWAIT
000154: 11,2143           32161                           CAF      VNLODCDU                              #  CALL FOR THETAD LOAD
000155: 11,2144           05234                           TC       NVSBWAIT
000156: 11,2145           05042                           TC       ENDIDLE                               #  STALL WAITING FOR THE LOAD
000157: 11,2146           02055                           TC       TERMEXTV
000158: 11,2147           02163                           TC       ICSDEL                                #  PROCEED - ASK FOR INCREMENTAL LOAD.
000159:
000160: 11,2150           32162        ICORK2             CAF      IMUCOARV                              #  RE-DISPLAY COARSE ALIGN VERB.
000161: 11,2151           05234                           TC       NVSBWAIT
000162: 11,2152           05303                           TC       FREEDSP                               #  RELEASE THE DISPLAYS
000163:
000164: 11,2153           04063                           TC       BANKCALL                              #  CALL MODE SWITCHING PROG
000165: 11,2154           26055                           CADR     IMUCOARS
000166:
000167: 11,2155           04063                           TC       BANKCALL                              #  STALL
000168: 11,2156           26716                           CADR     IMUSTALL
000169: 11,2157           02056                           TC       ENDEXTVB
000170: 11,2160           02056                           TC       ENDEXTVB
000171:
000172: 11,2161           02522        VNLODCDU           OCT      02522
000173: 11,2162           04100        IMUCOARV           OCT      04100
000174:
000175:                                                                                                  #           PROVISION FOR COARSE ALIGN TO INCREMENTAL ANGLES.
000176:
000177: 11,2163           32211        ICSDEL             CAF      DELLOAD
000178: 11,2164           05234                           TC       NVSBWAIT                              #  REQUEST LOAD OF DELTA ICDU ANGLES.
000179: 11,2165           05042                           TC       ENDIDLE
000180: 11,2166           02055                           TC       TERMEXTV
000181: 11,2167           02150                           TC       ICORK2                                #  PROCEED WITHOUT DATA HERE TOO.
000182: 11,2170           02172                           TC       INCLOOP                               #  LOOP TO INCREMENT THETAD FROM DSPTEM2.
000183: 11,2171           02150                           TC       ICORK2                                #  RE-DISPLAY COARSE ALIGN VERB.
000184:
000185: 11,2172           56002        INCLOOP            XCH      Q                                     #  INCREMENTS THETADS IN 2S COMPLEMENT FROM
000186: 11,2173           54140                           TS       MPAC                                  #   THREE ANGLE INCREMENTS IN DSPTEM2S.
000187: 11,2174           32212                           CAF      LTHD+2
000188: 11,2175           54114                           TS       BUF                                   #  SET UP FOR CDUINC.
000189: 11,2176           37651                           CAF      TWO                                   #  THREE TIMES THROUGH.
000190:
000191: 11,2177           54141        INCLOOP2           TS       MPAC       +1
000192: 11,2200           50000                           INDEX    A
000193: 11,2201           56336                           XCH      DSPTEM2                               #  INCREMENT TO TEM2 FOR CDUINC.
000194: 11,2202           04063                           TC       BANKCALL
000195: 11,2203           33606                           CADR     CDUINC
000196: 11,2204           10114                           CCS      BUF
000197: 11,2205           54114                           TS       BUF
000198: 11,2206           10141                           CCS      MPAC       +1
000199: 11,2207           02177                           TC       INCLOOP2
000200:
000201: 11,2210           00140                           TC       MPAC                                  #  RETURN WHEN FINISHED.
000202:
000203: 11,2211           02523        DELLOAD            OCT      02523
000204: 11,2212           00402        LTHD+2             ADRES    THETAD     +2
000205:
000206:                                                                                                  #  KEYBOARD REQUEST TO FINE ALIGN AND GYRO TORQUE IMU
000207:
000208: 11,2213           02040        IMUFINEK           TC       TESTXACT                              #  FINE ALIGN WITH GYRO TORQUING.
000209: 11,2214           05221                           TC       GRABWAIT
000210: 11,2215           32241                           CAF      VNLODGYR                              #  CALL FOR LOAD OF GYRO COMMANDS
000211: 11,2216           05234                           TC       NVSBWAIT
000212: 11,2217           05042                           TC       ENDIDLE                               #  HOLD UP FOR THE DATA LOAD
000213: 11,2220           02055                           TC       TERMEXTV
000214: 11,2221           02222                           TC       +1                                    #  PROCEED WITHOUT A LOAD
000215:
000216: 11,2222           32242                           CAF      IMUFINEV                              #  RE-DISPLAY OUR OWN VERB
000217: 11,2223           05234                           TC       NVSBWAIT
000218: 11,2224           05303                           TC       FREEDSP                               #  RELEASE DISPLAYS
000219:
000220: 11,2225           04063                           TC       BANKCALL                              #  CALL MODE SWITCH PROG
000221: 11,2226           26227                           CADR     IMUFINE
000222:
000223: 11,2227           04063                           TC       BANKCALL                              #  HIBERNATION
000224: 11,2230           26716                           CADR     IMUSTALL
000225: 11,2231           02056                           TC       ENDEXTVB
000226:
000227: 11,2232           32310        FINEK2             CAF      LGYROBIN                              #  PINBALL LEFT COMMANDS IN OGC REGIST5RS
000228: 11,2233           04063                           TC       BANKCALL
000229: 11,2234           26317                           CADR     IMUPULSE
000230:
000231: 11,2235           04063                           TC       BANKCALL                              #  WAIT FOR PULSES TO GET OUT.
000232: 11,2236           26716                           CADR     IMUSTALL
000233: 11,2237           02056                           TC       ENDEXTVB
000234: 11,2240           02056                           TC       ENDEXTVB
000235:
000236: 11,2241           02567        VNLODGYR           OCT      02567
000237: 11,2242           04200        IMUFINEV           OCT      04200                                 #  FINE ALIGN VERB
000238:
000239:                                                                                                  #           DESIGNATE TO DESIRED GIMBAL ANGLES.
000240:
000241: 11,2243           02040        RRDESNBK           TC       TESTXACT
000242: 11,2244           05221                           TC       GRABWAIT
000243: 11,2245           32264                           CAF      VNLDRCDU                              #  ASK FOR GIMBAL ANGLES.
000244: 11,2246           05234                           TC       NVSBWAIT
000245: 11,2247           05042                           TC       ENDIDLE                               #  WAIT FOR THE LOAD
000246: 11,2250           02055                           TC       TERMEXTV
000247: 11,2251           02252                           TC       +1                                    #  PROCEED
000248:
000249: 11,2252           04063                           TC       BANKCALL                              #  ASK OP FOR LOCK ON REQUIREMENTS.
000250: 11,2253           23022                           CADR     AURLOKON
000251:
000252: 11,2254           32162                           CAF      OPTCOARV                              #  RE-DISPLAY OUR OWN VERB
000253: 11,2255           05234                           TC       NVSBWAIT
000254: 11,2256           00004                           INHINT                                         #  FIRE UP JOB TO DO DESIGNATE.
000255: 11,2257           37635                           CAF      PRIO20
000256: 11,2260           04307                           TC       FINDVAC
000257: 11,2261  E5,1500                                  EBANK=   OGC
000258: 11,2261           02265 22005                     2CADR    RRDESK2
000259:
000260: 11,2263           12055                           TCF      TERMEXTV                              #  FREES DISPLAY.
000261:
000262: 11,2264           02441        VNLDRCDU           OCT      02441
000263: 11,2265  11,2162               OPTCOARV           EQUALS   IMUCOARV                              #  DIFFERENT NOUNS.
000264:
000265: 11,2265           06000        RRDESK2            TC       INTPRET
000266:
000267: 11,2266           77634                           CALL
000268: 11,2267           20362                                    RRDESNB                               #  RETURNS IN BASIC.
000269:
000270: 11,2270           02131                           TC       RWAITK
000271:
000272:                                                                                                  #  PLEASE PERFORM VERB AND PLEASE MARK VERB ----- PRESSING ENTER INDICATES
000273:                                                                                                  #  ACTION REQUESTED HAS BEEN PERFORMED, AND DOES SAME RECALL AS A COMPLETED
000274:                                                                                                  #  LOAD.  OPERATOR SHOULD DO VB PROCEED WITHOUT DATA IF HE WISHES NOT TO
000275:                                                                                                  #  PERFORM THE REQUESTED ACTION.
000276:
000277: 11,2271           05202        GOLOADLV           TC       FLASHOFF
000278: 11,2272           02060                           TC       XACT0
000279: 11,2273           04102                           TC       POSTJUMP
000280: 11,2274           12002                           CADR     LOADLV1
000281:
000282:                                                                                                  #  KEYBOARD REQUEST TO PULSE TORQUE IRIGA
000283:
000284:
000285:
000286: 11,2275           02040        TORQGYRS           TC       TESTXACT                              #  GYRO TORQUING WITH NO MODE-SWITCH.
000287: 11,2276           05221                           TC       GRABWAIT
000288: 11,2277           32241                           CAF      VNLODGYR
000289: 11,2300           05234                           TC       NVSBWAIT
000290: 11,2301           05042                           TC       ENDIDLE
000291: 11,2302           02055                           TC       TERMEXTV
000292: 11,2303           02304                           TC       +1
000293: 11,2304           32311                           CAF      TORQGYRV                              #  RE-DISPLAY OUR OWN VERB
000294: 11,2305           05234                           TC       NVSBWAIT
000295: 11,2306           05303                           TC       FREEDSP
000296: 11,2307           12232                           TCF      FINEK2
000297:
000298: 11,2310           00403        LGYROBIN           ECADR    DELVX
000299: 11,2311           05400        TORQGYRV           OCT      05400
000300:
000301:                                                                                                  #  ALIGN TIME
000302: 11,2312           32335        ALINTIME           CAF      VNLODDT                               #  USES NVSUBMON. DOES NOT TEST DSPLOCK.
000303: 11,2313           54107                           TS       NVTEMP                                #  DOES NOT KILL MONITOR.
000304: 11,2314           05025                           TC       NVSUBMON
000305: 11,2315           04353                           TC       ENDOFJOB                              #  IN CASE OF ALARM IN LOAD REQUEST SET UP.
000306: 11,2316           05042                           TC       ENDIDLE
000307: 11,2317           04353                           TC       ENDOFJOB                              #  TERMINATE
000308: 11,2320           04353                           TC       ENDOFJOB                              #  PROCEED WITHOUT DATA
000309: 11,2321           00004        UPDATIME           INHINT                                         #  DELTA TIME IS IN DSPTEM1, +1.
000310: 11,2322           37657                           CAF      ZERO
000311: 11,2323           54142                           TS       MPAC       +2                         #  NEEDED FOR TP AGREE
000312: 11,2324           54001                           TS       L                                     #  ZERO T1 & 2 WHILE ALIGNING.
000313: 11,2325           52025                           DXCH     TIME2
000314: 11,2326           52141                           DXCH     MPAC
000315: 11,2327           52334                           DXCH     DSPTEM1                               #  INCREMENT.
000316: 11,2330           20141                           DAS      MPAC
000317:
000318: 11,2331           07230                           TC       TPAGREE                               #  FORCE SIGN AGREEMENT.
000319: 11,2332           52141                           DXCH     MPAC                                  #  NEW CLOCK.
000320: 11,2333           20025                           DAS      TIME2
000321: 11,2334           04353                           TC       ENDOFJOB
000322:
000323: 11,2335           02124        VNLODDT            OCT      02124                                 #  V/N FOR LOAD DELTA TIME
000324:
000325: 11,2336           12337                           NOOP
000326: 11,2337           12340                           NOOP
000327:
000328:                                                                                                  #           SELECT AND INITIATE DESIRED SYSTEM TEST PROGRAM.
000329:
000330: 11,2340  E5,1546                                  EBANK=   QPLACE
000331:
000332: 11,2340           10276        SYSTEST            CCS      MODREG                                #  DEMAND MODE 00.
000333: 11,2341           12053                           TCF      XACTALM
000334:
000335: 11,2342           05221                           TC       GRABWAIT
000336: 11,2343           33367        REDO               CAF      LQPL                                  #  ASK FOR TEST OPTION (1 - 7).
000337: 11,2344           54142                           TS       MPAC       +2
000338: 11,2345           33366                           CAF      TESTNV
000339: 11,2346           05234                           TC       NVSBWAIT
000340: 11,2347           05042                           TC       ENDIDLE
000341: 11,2350           04352                           TC       EJFREE
000342: 11,2351           02343                           TC       REDO
000343:
000344: 11,2352           04572                           TC       NEWMODEX
000345: 11,2353           00007                           OCT      07
000346:
000347: 11,2354           00004                           INHINT
000348: 11,2355           37635                           CAF      PRIO20
000349: 11,2356           04307                           TC       FINDVAC
000350: 11,2357           02362 22005                     2CADR    TSELECT
000351:
000352: 11,2361           04353                           TC       ENDOFJOB                              #  LEAVING DISPLAY GRABBED FOR SYSTEM TEST.
000353:
000354: 11,2362           47665        TSELECT            CS       LOW4                                  #    OCTAL 17 OPTIONS WITHOUT OPERATOR ERRO
000355: 11,2363           03370                           TC       TSELECT1
000356: 11,2364           51546                           INDEX    QPLACE
000357: 11,2365           32367                           CAF      TESTCADR
000358: 11,2366           04105                           TC       BANKJUMP
000359:
000360: 11,2367           22066        TESTCADR           CADR     ALM/END                               #  0  ILLEGAL
000361: 11,2370           36000                           CADR     IMUTEST                               #  1  GYRO DRIFT TEST
000362: 11,2371           36021                           CADR     IMUBACK                               #  2 REPEAT OF IMUTEST
000363: 11,2372           30000                           CADR     AOTNBIMU                              #  3  IMU ALIGNMENT TEST
000364: 11,2373           36263                           CADR     OPCHK                                 #  4  IMU CHECK
000365: 11,2374           36463                           CADR     GYRSFTST                              #  5  GYRO TORQUING TEST
000366: 11,2375           34564                           CADR     STARTPL                               #  6  GYROCOMPASS TEST
000367: 11,2376           22376                           CADR                                           #   AVAILABLE
000368: 11,2377           43143                           CADR     SAMODCHK                              #  10 SEMI-AUTOMATIC MODING CHECK
000369: 11,2400           31331                           CADR     SAUTOIFS                              #  11 SEMI-AUTOMATIC INTERFACE TEST
000370: 11,2401           31567                           CADR     AOTANGCK                              #  12 AOT ANGLE CHECK
000371: 11,2402           31125                           CADR     RDRINIT                               #  13 RENDEZVOUS RADAR / ANTENNAE TRACKING
000372: 11,2403           22414                           CADR     FSTRSAMP                              #  14 HIGH SPEED RADAR SAMPLING.
000373:
000374: 11,2404           31620                           CADR     ZEROERAS
000375: 11,2405           23051                           CADR     DISINDT                               #  DISPLAY INERTIAL DATA TEST.
000376: 11,2406           22066                           CADR     ALM/END
000377: 11,2407           22066                           CADR     ALM/END
000378:
000379: 11,2410           04102        GOSHOSUM           TC       POSTJUMP                              #  START ROUTINE TO DISPLAY SUM OF EACH
000380: 11,2411           41453                           CADR     SHOWSUM                               #  BANK ON DSKY
000381:
000382: 11,2412           04102        DOFCSTST           TC       POSTJUMP
000383: 11,2413           14000                           CADR     FCSSTART
000384:
000385:                                                                                                  #           SET UP FOR RADAR SAMPLING.
000386:
000387: 11,2414  E7,1434                                  EBANK=   RSTKLOC
000388:
000389: 11,2414           32503        FSTRSAMP           CAF      RSTKLIST                              #  HIGH SPEED SAMPLING. SWITCH TO SPECIAL
000390: 11,2415           54411                           TS       DNLSTADR                              #  DOWNLIST.
000391: 11,2416           47652                           CS       ONE                                   #  WANTS TM BUFFERING.
000392: 11,2417           12422                           TCF      RSAMPTST
000393:
000394: 11,2420           05221        REGRSAMP           TC       GRABWAIT
000395: 11,2421           32504                           CAF      1SEC+1                                #  SHOWS NO TM BUFFERING.
000396:
000397: 11,2422           54142        RSAMPTST           TS       MPAC       +2
000398: 11,2423           00004                           INHINT
000399: 11,2424           42505                           CS       LRPOSCAL                              #  INITIALIZE SCALE AND LR POSITION BITS.
000400: 11,2425           70413                           MASK     RADMODES
000401: 11,2426           54413                           TS       RADMODES
000402:
000403: 11,2427           32505                           CAF      LRPOSCAL
000404: 11,2430           00006                           EXTEND
000405: 11,2431           02033                           RAND     33
000406: 11,2432           26413                           ADS      RADMODES
000407:
000408: 11,2433           00003                           RELINT
000409: 11,2434           32455                           CAF      LRTSTDEX
000410: 11,2435           54003                           TS       EBANK
000411: 11,2436           56142                           XCH      MPAC       +2
000412: 11,2437           55435                           TS       RSAMPDT                               #  HI SPEED NNZ - LO SPEED PNZ.
000413: 11,2440           37657                           CAF      ZERO
000414: 11,2441           55434                           TS       RTSTLOC
000415: 11,2442           55436                           TS       RFAILCNT                              #  ZERO BAD SAMPLE COUNTER.
000416: 11,2443           32501                           CAF      HISPMAX
000417: 11,2444           55432                           TS       RTSTMAX
000418:
000419: 11,2445           32502                           CAF      RTSTNV
000420: 11,2446           05234                           TC       NVSBWAIT
000421: 11,2447           05042                           TC       ENDIDLE
000422: 11,2450           04352                           TC       EJFREE                                #  ON TERMINATE.
000423: 11,2451           12506                           TCF      RSEMIAUT                              #  PROCEED MEANS SEMI-AUTO SEQUENCING.
000424: 11,2452           05303        RDRDFREE           TC       FREEDSP
000425: 11,2453           11435                           CCS      RSAMPDT                               #  SEE IF HI OR LO SPEED SAMPLING.
000426: 11,2454           12460                           TCF      +4
000427:
000428: 11,2455           03431        LRTSTDEX           ECADR    RTSTDEX
000429:
000430: 11,2456           04102                           TC       POSTJUMP                              #  EXEC. OTHERWISE, SET UP WAITLIST TIMING.
000431: 11,2457           21275                           CADR     DORSAMP
000432:
000433: 11,2460           36162                           CAF      SIX                                   #  FIND OUT WHICH RADAR WANTED.
000434: 11,2461           71431                           MASK     RTSTDEX
000435:
000436: 11,2462           10000                           CCS      A
000437: 11,2463           12467                           TCF      LRCYCLE                               #  LANDING RADAR ARE SERIALS 2 - 5.
000438:
000439: 11,2464           55433                           TS       RTSTBASE                              #  FOR RR BASE = 0, MAX = 1.
000440: 11,2465           36162                           CAF      SIX
000441: 11,2466           12472                           TCF      +4
000442:
000443: 11,2467           37651        LRCYCLE            CAF      TWO                                   #  FOR LR BASE = 2, MAX = 3.
000444: 11,2470           55433                           TS       RTSTBASE
000445: 11,2471           32500                           CAF      18R
000446:
000447: 11,2472           55432                 +4        TS       RTSTMAX
000448: 11,2473           00004                           INHINT
000449: 11,2474           04451                           TC       WAITLIST
000450: 11,2475  E7,1434                                  EBANK=   RSTKLOC
000451: 11,2475           03255 20007                     2CADR    RADSAMP
000452:
000453: 11,2477           04353                           TC       ENDOFJOB
000454:
000455: 11,2500           00022        18R                DEC      18         B-14
000456: 11,2501           00102        HISPMAX            DEC      66         B-14
000457: 11,2502           02101        RTSTNV             OCT      2101
000458: 11,2503           02253        RSTKLIST           GENADR   FSTRADTM
000459: 11,2504           00145        1SEC+1             DEC      101        B-14
000460: 11,2505           00444        LRPOSCAL           OCT      444
000461:
000462:                                                                                                  #           SEMI-AUTO RADAR TESTING.
000463:
000464: 11,2506           00004        RSEMIAUT           INHINT
000465: 11,2507           34436                           CAF      PRIO25                                #  START HI SPEED SAMPLING.
000466: 11,2510           04276                           TC       NOVAC
000467: 11,2511           03275 20007                     2CADR    DORSAMP
000468:
000469: 11,2513           00003                           RELINT
000470: 11,2514           37227                           CAF      FIVE                                  #  SEQUENCE THROUGH ALL SIX CHANNELS.
000471: 11,2515           55431                 -1        TS       RTSTDEX
000472:
000473: 11,2516           32534        33PASTE            CAF      RV33                                  #  ON ENTER, SWITCH TO NEXT CHANNEL.
000474: 11,2517           05234                           TC       NVSBWAIT
000475: 11,2520           05176                           TC       FLASHON
000476: 11,2521           05042                           TC       ENDIDLE
000477: 11,2522           02527                           TC       ENDRTST                               #  ON TERMINATE.
000478: 11,2523           12525                           TCF      +2
000479: 11,2524           12516                           TCF      33PASTE                               #  DONT ACCEPT DATA.
000480:
000481: 11,2525           11431                           CCS      RTSTDEX
000482: 11,2526           12515                           TCF      33PASTE    -1
000483:
000484: 11,2527           37657        ENDRTST            CAF      ZERO                                  #  ENDTEST.
000485: 11,2530           55435                           TS       RSAMPDT
000486: 11,2531           04572                           TC       NEWMODEX
000487: 11,2532           00000                           OCT      0
000488: 11,2533           04352                           TC       EJFREE
000489:
000490: 11,2534           03300        RV33               OCT      3300
000491:
000492:                                                                                                  #           AGS INITIALIZATION PROGRAM.
000493:
000494: 11,2535           10412        AGSINIT            CCS      AGSWORD                               #  ZERO IF AGS NOT NOW BEING INITIALIZED.
000495: 11,2536           02066                           TC       ALM/END                               #  DO IT LATER.
000496:
000497: 11,2537           30025                           CA       TIME1
000498: 11,2540           62575                           AD       12SECS
000499: 11,2541           54001                           TS       L
000500: 11,2542           02557                           TC       SENDIT
000501:
000502: 11,2543           00004                           INHINT                                         #  T1 WILL OVERFLOW, DELAY FOR 12 SECS
000503: 11,2544           32575                           CA       12SECS
000504: 11,2545           54412                           TS       AGSWORD
000505: 11,2546           04451                           TC       WAITLIST
000506: 11,2547           02552 22007                     2CADR    AGSJOB
000507: 11,2551           04353                           TC       ENDOFJOB
000508:
000509: 11,2552           34441        AGSJOB             CAF      PRIO30                                #  ENTER AGSINIT JOB VIA EXEC
000510: 11,2553           04276                           TC       NOVAC
000511: 11,2554           02557 22007                     2CADR    SENDIT
000512:
000513: 11,2556           04505                           TC       TASKOVER
000514:
000515: 11,2557           00004        SENDIT             INHINT
000516: 11,2560           32576                           CAF      LAGSLIST                              #  SWITCH TO SPECIAL DOWNLIST FOR 10 SECS.
000517: 11,2561           56411                           XCH      DNLSTADR
000518: 11,2562           54412                           TS       AGSWORD                               #  TO SHOW INITIALIZATION IN PROGRESS.
000519:
000520: 11,2563           32574                           CAF      10SECS
000521: 11,2564           04451                           TC       WAITLIST
000522: 11,2565           02570 22007                     2CADR    AGSINIT2
000523:
000524: 11,2567           14353                           TCF      ENDOFJOB
000525:
000526: 11,2570           37657        AGSINIT2           CAF      ZERO                                  #  END OF INITIALIZATION.
000527: 11,2571           56412                           XCH      AGSWORD
000528: 11,2572           54411                           TS       DNLSTADR                              #  REVERT TO ORIGINAL DOWNLIST.
000529: 11,2573           14505                           TCF      TASKOVER
000530:
000531: 11,2574           01750        10SECS             DEC      1000       B-14
000532: 11,2575           02260        12SECS             DEC      1200       B-14
000533: 11,2576           02001        LAGSLIST           GENADR   AGSLIST
000534:
000535:                                                                                                  #           VB 43  IMU ATTITUDE ERROR METER LOADER.
000536:
000537: 11,2577           02040        IMUATTCK           TC       TESTXACT
000538: 11,2600           42642                           CS       OCT50K                                #  REMOVE COARSE AND ECTR ENABLE.
000539: 11,2601           00006                           EXTEND
000540: 11,2602           03012                           WAND     12
000541:
000542: 11,2603           05221                           TC       GRABWAIT
000543: 11,2604           32161                           CAF      VNLODCDU
000544: 11,2605           05234                           TC       NVSBWAIT
000545: 11,2606           05042                           TC       ENDIDLE
000546: 11,2607           02055                           TC       TERMEXTV
000547: 11,2610           02611                           TC       +1
000548: 11,2611           32643                           CAF      V43K                                  #  REDISPLAY OUR VERB.
000549: 11,2612           05234                           TC       NVSBWAIT
000550: 11,2613           37645                           CAF      BIT6                                  #  ENABLE ERROR COUNTER.
000551: 11,2614           00006                           EXTEND
000552: 11,2615           05012                           WOR      12
000553: 11,2616           37651                           CAF      TWO
000554: 11,2617           00004                           INHINT
000555: 11,2620           04451                           TC       WAITLIST                              #  PUT OUT COMMAND IN .32 SECS.
000556: 11,2621           02624 22007                     2CADR    ATTCK2
000557:
000558: 11,2623           12055                           TCF      TERMEXTV                              #  FREES DISPLAY.
000559:
000560: 11,2624           37651        ATTCK2             CAF      TWO                                   #  PUT OUT ALL COMMANDS - CDU WILL DO LIMIT
000561: 11,2625           54002                           TS       Q                                     #  INCASE OF EXCESS DATA.
000562: 11,2626           50000                           INDEX    A
000563: 11,2627           30400                           CA       THETAD
000564: 11,2630           00006                           EXTEND
000565: 11,2631           77636                           MP       BIT13                                 #  SHIFT RIGHT 2.
000566: 11,2632           50002                           INDEX    Q
000567: 11,2633           54050                           TS       CDUXCMD
000568: 11,2634           10002                           CCS      Q
000569: 11,2635           12625                           TCF      ATTCK2     +1
000570:
000571: 11,2636           32644                           CAF      OCT70K
000572: 11,2637           00006                           EXTEND
000573: 11,2640           05014                           WOR      14
000574: 11,2641           14505                           TCF      TASKOVER
000575:
000576: 11,2642           00050        OCT50K             OCT      50
000577: 11,2643           04300        V43K               OCT      4300
000578: 11,2644           70000        OCT70K             OCT      70000
000579:
000580: 11,2645           02040        LOTSACQ            TC       TESTXACT
000581: 11,2646           04063                           TC       BANKCALL
000582: 11,2647           16001                           CADR     LOTSACQB
000583:
000584: 11,2650           02040        LOTSTEST           TC       TESTXACT
000585: 11,2651           04063                           TC       BANKCALL
000586: 11,2652           16002                           CADR     LOTTESTB
000587:
000588: 11,2653           02040        LOTSSTOW           TC       TESTXACT
000589: 11,2654           04063                           TC       BANKCALL
000590: 11,2655           16003                           CADR     LOTSTOWB
000591:
000592:                                                                                                  #           PROGRAM TO SCAN CHANNELS 30 - 32 FOR CHANGES IN SELECTED INBITS. CALLED BY SPECIAL VERB.
000593:
000594: 11,2656  E7,1606                                  EBANK=   MSGCNT
000595:
000596: 11,2656           37652        SETUPMSG           CAF      BIT1                                  #  BEGIN SCAN.
000597: 11,2657           00004                           INHINT
000598: 11,2660           04451                           TC       WAITLIST
000599: 11,2661           02666 22007                     2CADR    MSGSCAN    +2
000600:
000601: 11,2663           04353                           TC       ENDOFJOB
000602:
000603: 11,2664           04467        MSGSCAN            TC       FIXDELAY
000604: 11,2665           00062                           DEC      50         B-14
000605:
000606: 11,2666           37651                           CAF      TWO                                   #  SCAN ALL 3 CHANNELS FOR CHANGES.
000607: 11,2667           55606                           TS       MSGCNT
000608: 11,2670           50000                           INDEX    A
000609: 11,2671           31603                           CA       LAST30                                #  OLD VALUE OF INBITS.
000610: 11,2672           00006                           EXTEND
000611: 11,2673           51606                           INDEX    MSGCNT
000612: 11,2674           06030                           RXOR     30
000613: 11,2675           51606                           INDEX    MSGCNT
000614: 11,2676           72745                           MASK     30MSGMSK
000615: 11,2677           00006                           EXTEND
000616: 11,2700           12742                           BZF      NOMSG
000617:
000618: 11,2701           54002                           TS       Q                                     #  SAVE DIFFERENCE.
000619: 11,2702           51606                           INDEX    MSGCNT
000620: 11,2703           23603                           LXCH     LAST30                                #  UPDATE OLD VALUE.
000621: 11,2704           00006                           EXTEND
000622: 11,2705           06001                           RXOR     L
000623: 11,2706           51606                           INDEX    MSGCNT
000624: 11,2707           55603                           TS       LAST30
000625:
000626: 11,2710           40000                           COM
000627: 11,2711           56002                           XCH      Q
000628: 11,2712           70002                           MASK     Q                                     #  SEE IF ANY OF CHANGED BITS JUST ON.
000629: 11,2713           00006                           EXTEND
000630: 11,2714           12742                           BZF      NOMSG                                 #  NO MESSAGE IF SO.
000631:
000632: 11,2715           77634                           MASK     BIT15
000633: 11,2716           00006                           EXTEND
000634: 11,2717           12735                           BZF      NOTRHC
000635:
000636: 11,2720           31606                           CA       MSGCNT
000637: 11,2721           77652                           MASK     BIT1
000638: 11,2722           00006                           EXTEND
000639: 11,2723           12735                           BZF      NOTRHC
000640:
000641: 11,2724           36162                           CAF      SIX
000642:
000643: 11,2725           04451                           TC       WAITLIST
000644: 11,2726  E6,1602                                  EBANK=   PCOM
000645: 11,2726           03147 22006                     2CADR    RHCNTRL
000646:
000647: 11,2730           37635                           CAF      PRIO20                                #  INITIATE MONITOR.
000648: 11,2731           04276                           TC       NOVAC
000649: 11,2732           02754 22007                     2CADR    RHCMON
000650: 11,2734           12742                           TCF      NOMSG
000651:
000652: 11,2735           32750        NOTRHC             CAF      OKT30
000653: 11,2736           61606                           AD       MSGCNT
000654: 11,2737           54075                           TS       RUPTREG2
000655:
000656: 11,2740           40002                           CS       Q
000657: 11,2741           02766                           TC       VMESSAGE
000658:
000659: 11,2742           11606        NOMSG              CCS      MSGCNT
000660: 11,2743           12667                           TCF      MSGSCAN    +3
000661: 11,2744           12664                           TCF      MSGSCAN
000662:
000663: 11,2745           01037        30MSGMSK           OCT      1037
000664: 11,2746           77777                           OCT      77777
000665: 11,2747           01777                           OCT      1777
000666:
000667: 11,2750           00030        OKT30              OCT      30
000668: 11,2751           02761        DESCBITS           TC       MESSAGE                               #  DESCENT BITS COME HERE IN A.
000669: 11,2752           00016                           OCT      16
000670: 11,2753           04511                           TC       RESUME
000671:
000672: 11,2754           05221        RHCMON             TC       GRABWAIT                              #  FIRE UP DSKY MONITOR.
000673: 11,2755           32760                           CAF      RHCMONVN
000674: 11,2756           05234                           TC       NVSBWAIT
000675: 11,2757           04352                           TC       EJFREE
000676:
000677: 11,2760           01645        RHCMONVN           OCT      1645
000678:
000679:                                                                                                  #           MESSAGE DISPLAY - 3 COMPONENT OCTAL.
000680:
000681: 11,2761           54075        MESSAGE            TS       RUPTREG2                              #  NEW CHANNEL CONTENTS ARRIVE IN A.
000682: 11,2762           50002                           INDEX    Q                                     #  CHANNEL NUMBER IN OCTAL AT CALLER +1.
000683: 11,2763           30000                           CAF      0
000684: 11,2764           24002                           INCR     Q
000685: 11,2765           56075                           XCH      RUPTREG2
000686:
000687: 11,2766           54074        VMESSAGE           TS       RUPTREG1                              #  FOR VARIABLE CHANNEL.
000688: 11,2767           00006                           EXTEND
000689: 11,2770           22076                           QXCH     RUPTREG3
000690: 11,2771           34440                           CAF      PRIO27                                #  FIRE UP SPECIAL JOB.
000691: 11,2772           04276                           TC       NOVAC
000692: 11,2773           03004 22007                     2CADR    DOMSG
000693:
000694: 11,2775           52075                           DXCH     RUPTREG1                              #  NEW CONTENTS TO MPAC - CHANNEL NUMBER TO
000695: 11,2776           50071                           INDEX    LOCCTR                                #  MPAC +1.
000696: 11,2777           52141                           DXCH     MPAC
000697: 11,3000           30025                           CA       TIME1
000698: 11,3001           50071                           INDEX    LOCCTR
000699: 11,3002           54142                           TS       MPAC       +2
000700: 11,3003           00076                           TC       RUPTREG3
000701:
000702: 11,3004           05221        DOMSG              TC       GRABWAIT
000703: 11,3005           00006                           EXTEND
000704: 11,3006           30141                           DCA      MPAC
000705: 11,3007           52334                           DXCH     DSPTEM1
000706: 11,3010           30142                           CA       MPAC       +2
000707: 11,3011           54335                           TS       DSPTEM1    +2
000708: 11,3012           33021                           CAF      MSGVN
000709: 11,3013           05011                           TC       NVSUB
000710: 11,3014           13016                           TCF      MSGBUSY
000711: 11,3015           04352                           TC       EJFREE
000712:
000713: 11,3016           33020        MSGBUSY            CAF      +2
000714: 11,3017           05231                           TC       NVSUBUSY
000715: 11,3020           23005                           CADR     DOMSG      +1
000716:
000717: 11,3021           00535        MSGVN              OCT      0535
000718:
000719:                                                                                                  #           ROUTINE FOR AURORA ONLY TO ASK OPERATOR IF RR LOCK ON REQUESTED.
000720:
000721: 11,3022           04112        AURLOKON           TC       MAKECADR
000722: 11,3023           54427                           TS       DESRET
000723: 11,3024           32534                           CAF      RV33                                  #  ASSUMES DSKY GRABBED.
000724: 11,3025           05234                           TC       NVSBWAIT
000725: 11,3026           05176                           TC       FLASHON
000726: 11,3027           05042                           TC       ENDIDLE
000727: 11,3030           13033                           TCF      +3                                    #  ON TERM.
000728: 11,3031           37646                           CAF      LOKONFLG
000729: 11,3032           13034                           TCF      +2
000730: 11,3033           37657                           CAF      ZERO
000731: 11,3034           00004                           INHINT
000732: 11,3035           56061                           XCH      STATE
000733: 11,3036           73050                           MASK     -LOKONFG
000734: 11,3037           26061                           ADS      STATE
000735:
000736: 11,3040           77646                           MASK     LOKONFLG                              #  IF NO LOCK-ON CALLED FOR, SET BIT15 OF
000737: 11,3041           10000                           CCS      A                                     #  RADMODES TO INDICATE THAT ARBITRARILY-
000738: 11,3042           13045                           TCF      +3                                    #  LONG DESIGNATION IS WANTED (TO BE
000739:
000740: 11,3043           37634                           CAF      BIT15                                 #  TERMINATED BY FRESH START).
000741: 11,3044           26413                           ADS      RADMODES
000742: 11,3045           00003                           RELINT
000743: 11,3046           30427                           CA       DESRET
000744: 11,3047           14105                           TCF      BANKJUMP
000745:
000746: 11,3050           77757        -LOKONFG           OCT      -20
000747:
000748:                                                                                                  #           PROGRAM TO RUN DISPLAY INERTIAL DATA TEST.
000749:
000750: 11,3051           33141        DISINDT            CAF      FLVELVN                               #  ASK FOR FORWARD, LATERAL VELOCITY.
000751: 11,3052           05234                           TC       NVSBWAIT
000752: 11,3053           05042                           TC       ENDIDLE
000753: 11,3054           13076                           TCF      ENDDISIN
000754: 11,3055           13056                           TCF      +1
000755: 11,3056           33142                           CAF      ALT,R,VN                              #  ASK FOR INITIAL AND FINIAL ALTITUDES AND
000756: 11,3057           05234                           TC       NVSBWAIT                              #  ALTITUDE RATE.
000757: 11,3060           05042                           TC       ENDIDLE
000758: 11,3061           13076                           TCF      ENDDISIN
000759: 11,3062           13063                           TCF      +1
000760:
000761: 11,3063           00004                           INHINT
000762: 11,3064           47652                           CS       ONE
000763: 11,3065           54351                           TS       DIDFLG
000764:
000765: 11,3066           00006                           EXTEND
000766: 11,3067           30353                           DCA      ALT                                   #  SO FOLLOWING MONITOR WORKS.
000767: 11,3070           52365                           DXCH     ALTSAVE
000768:
000769: 11,3071           37652                           CAF      ONE
000770: 11,3072           04451                           TC       WAITLIST
000771: 11,3073           03104 22007                     2CADR    DISINLUP   +2
000772:
000773: 11,3075           14352                           TCF      EJFREE
000774:
000775: 11,3076           05303        ENDDISIN           TC       FREEDSP
000776: 11,3077           04572                 +1        TC       NEWMODEX
000777: 11,3100           00000                           OCT      0
000778:
000779: 11,3101           04353                           TC       ENDOFJOB
000780:
000781:                                                                                                  #           WATCH ALTSAVE FOR END OF PROBLEM.
000782:
000783: 11,3102           04467        DISINLUP           TC       FIXDELAY
000784: 11,3103           00062                           DEC      50         B-14
000785:
000786: 11,3104           00006                 +2        EXTEND
000787: 11,3105           30356                           DCA      FINALT
000788: 11,3106           52066                           DXCH     ITEMP1
000789: 11,3107           00006                           EXTEND
000790: 11,3110           40365                           DCS      ALTSAVE                               #  LATEST ALTITUDE.
000791: 11,3111           20066                           DAS      ITEMP1
000792:
000793: 11,3112           10065                           CCS      ITEMP1
000794: 11,3113           13133                           TCF      +DIF
000795: 11,3114           13116                           TCF      +2
000796: 11,3115           13137                           TCF      -DIF
000797:
000798: 11,3116           10066                           CCS      ITEMP2
000799: 11,3117           13133                           TCF      +DIF
000800: 11,3120           13122                           TCF      +2
000801: 11,3121           13137                           TCF      -DIF
000802:
000803: 11,3122           37657        DISINDUN           CAF      ZERO
000804: 11,3123           54354                           TS       ALTRATE
000805: 11,3124           52356                           DXCH     FINALT
000806: 11,3125           52353                           DXCH     ALT
000807: 11,3126           37635                           CAF      PRIO20
000808: 11,3127           04276                           TC       NOVAC
000809: 11,3130           03077 22007                     2CADR    ENDDISIN   +1
000810:
000811: 11,3132           14505                           TCF      TASKOVER
000812:
000813: 11,3133           30354        +DIF               CA       ALTRATE
000814: 11,3134           00006                           EXTEND
000815: 11,3135           63122                           BZMF     DISINDUN
000816: 11,3136           13102                           TCF      DISINLUP
000817:
000818: 11,3137           40354        -DIF               CS       ALTRATE
000819: 11,3140           13134                           TCF      +DIF       +1
000820:
000821: 11,3141           02444        FLVELVN            OCT      2444
000822: 11,3142           02564        ALT,R,VN           OCT      2564
000823:
000824: 11,3143           00004        LOTSTRT            INHINT
000825: 11,3144           37652                           CAF      ONE
000826: 11,3145           04102                           TC       POSTJUMP
000827: 11,3146           24003                           CADR     SLAP2
000828:
000829: 11,3147                        ENDEXTVS           EQUALS

End of include-file EXTENDED_VERBS.agc.  Parent file is MAIN.agc


