
Source Code


000002:                                                                                                  ## Copyright:   Public domain.
000003:                                                                                                  ## Filename:    IMU_PERFORMANCE_TESTS_3.agc
000004:                                                                                                  ## Purpose:     A section of Aurora 88.
000005:                                                                                                  ##              It is part of the reconstructed source code for the final
000006:                                                                                                  ##              release of the Lunar Module system test software. No original
000007:                                                                                                  ##              listings of this program are available; instead, this file
000008:                                                                                                  ##              was created via disassembly of dumps of Aurora 88 core rope
000009:                                                                                                  ##              modules and comparison with other AGC programs.
000010:                                                                                                  ## Assembler:   yaYUL
000011:                                                                                                  ## Contact:     Ron Burkey <info@sandroid.org>.
000012:                                                                                                  ## Website:     www.ibiblio.org/apollo/index.html
000013:                                                                                                  ## Mod history: 2023-06-30 MAS  Created from Aurora 12.
000014:                                                                                                  ##              2023-07-12 MAS  Updated for Aurora 88.
000015:
000016:
000017: 21,3105                                           SETLOC   ENDPREL1
000018: 21,3105  E5,1400                                  EBANK=   XSM
000019:
000020:
000021:
000022: 21,3105           00006        SILVER             EXTEND
000023: 21,3106           23546                           QXCH     QPLACE                                #   SHOULD BE ADDRESS OF STRTWACH
000024:
000025: 21,3107           11615                           CCS      CALCDIR                               #  2F COMMAND IS POSITIVE THE MINUS TORQ
000026: 21,3110           37642                           CAF      BIT9                                  #   WINDING IS TO BE ENERGIZED
000027: 21,3111           03113                           TC       +2
000028: 21,3112           03115                           TC       TORK                                  #   COMMAND IS NEG SO USE PLUS WINDING
000029: 21,3113           00006                           EXTEND
000030: 21,3114           05014                           WOR      14C                                   #   SELECTS THE MINUS WINDING
000031:
000032: 21,3115           37632        TORK               CAF      POSMAX
000033: 21,3116           54047                           TS       GYROCTR                               #  16383 PULSES =2.8125 DEG LESS ONE PULSE
000034:
000035: 21,3117           11617                           CCS      GYTOBETQ                              #  C(K)= 1 FOR X, -0 FOR Y, -1FOR Z.
000036: 21,3120           03124                           TC       SELECTX
000037: 21,3121           05366                           TC       CCSHOLE
000038: 21,3122           03134                           TC       SELECTZ
000039: 21,3123           03130                           TC       SELECTY
000040: 21,3124           33140        SELECTX            CAF      TORKX                                 #  BBITS 7AND 10 IN CHANNEL 14 WILL
000041: 21,3125           00006                           EXTEND                                         #   SELECT X GYRO AND TURN ON BCSW 1/3200
000042: 21,3126           05014                           WOR      14C                                   #  SSEC LATER BY CHANNEL OUTPUT DESIGN.....
000043: 21,3127           01546                           TC       QPLACE
000044:
000045: 21,3130           33141        SELECTY            CAF      TORKY                                 #  BBITS 8 AND 10 TO TORQ Y GYRO
000046: 21,3131           00006                           EXTEND
000047: 21,3132           05014                           WOR      14C
000048: 21,3133           01546                           TC       QPLACE
000049:
000050: 21,3134           33142        SELECTZ            CAF      TORKZ                                 #  BBITS 7,8AND 10 TO TORQZ GYRO
000051: 21,3135           00006                           EXTEND
000052: 21,3136           05014                           WOR      14C
000053: 21,3137           01546                           TC       QPLACE
000054: 21,3140           01100        TORKX              OCT      01100
000055: 21,3141           01200        TORKY              OCT      01200
000056: 21,3142           01300        TORKZ              OCT      01300
000057:
000058:
000059: 21,3143           37657        SAMODCHK           CAF      ZERO
000060: 21,3144           55563                           TS       TESTNO
000061: 21,3145           55550                           TS       RUN
000062:
000063: 21,3146           03535                           TC       ZEROMODE
000064: 21,3147           03561                           TC       OPRTRDLY
000065:
000066: 21,3150           03631                           TC       COARZERO
000067:
000068: 21,3151           03545                           TC       ZEROMAIN
000069: 21,3152           03561                           TC       OPRTRDLY
000070:
000071: 21,3153           03535                           TC       ZEROMODE
000072:
000073: 21,3154           37657                           CAF      ZERO
000074: 21,3155           03467                           TC       THETADLD
000075:
000076: 21,3156           33717                           CAF      45ANG
000077: 21,3157           03467                           TC       THETADLD
000078:
000079: 21,3160           03645                           TC       FNZEROFN
000080:
000081: 21,3161           33721                           CAF      90ANG
000082: 21,3162           03467                           TC       THETADLD
000083:
000084: 21,3163           33722                           CAF      135ANG
000085: 21,3164           03467                           TC       THETADLD
000086:
000087: 21,3165           37657                           CAF      ZERO
000088: 21,3166           03471                           TC       THETADLD   +2
000089:
000090: 21,3167           03645                           TC       FNZEROFN
000091:
000092: 21,3170           33725                           CAF      180ANG
000093: 21,3171           54400                           TS       THETAD
000094: 21,3172           54401                           TS       THETAD     +1
000095: 21,3173           33720                           CAF      71ANG
000096: 21,3174           03471                           TC       THETADLD   +2
000097:
000098: 21,3175           33726                           CAF      225ANG
000099: 21,3176           03467                           TC       THETADLD
000100:
000101: 21,3177           37657                           CAF      ZERO
000102: 21,3200           03467                           TC       THETADLD
000103:
000104: 21,3201           37651                           CAF      TWO
000105: 21,3202           55673        CHK2               TS       CDUNDX
000106:
000107: 21,3203           33727                           CAF      170ANG
000108: 21,3204           51673                           INDEX    CDUNDX
000109:
000110:
000111: 21,3205           54400                           TS       THETAD
000112:
000113: 21,3206           04063                           TC       BANKCALL
000114: 21,3207           26055                           CADR     IMUCOARS
000115:
000116: 21,3210           33723                           CAF      10ANG
000117: 21,3211           03410                           TC       CDURATE
000118:
000119: 21,3212           33724                           CAF      160ANG
000120: 21,3213           03410                           TC       CDURATE
000121:
000122: 21,3214           03433                           TC       CALCRATE
000123:
000124: 21,3215           04063                           TC       BANKCALL
000125: 21,3216           26716                           CADR     IMUSTALL
000126: 21,3217           13353                           TCF      ENDTST03
000127:
000128: 21,3220           03631                           TC       COARZERO
000129:
000130: 21,3221           11673                           CCS      CDUNDX
000131: 21,3222           13202                           TCF      CHK2
000132:
000133: 21,3223           43717                           CS       45ANG
000134: 21,3224           03467                           TC       THETADLD
000135:
000136: 21,3225           03645                           TC       FNZEROFN
000137:
000138: 21,3226           43722                           CS       135ANG
000139: 21,3227           54400                           TS       THETAD
000140: 21,3230           54401                           TS       THETAD     +1
000141: 21,3231           43720                           CS       71ANG
000142: 21,3232           03762                           TC       CHK3
000143:
000144: 21,3233           03645                           TC       FNZEROFN
000145:
000146: 21,3234           03631                           TC       COARZERO
000147:
000148: 21,3235           03602                           TC       FINEZERO
000149: 21,3236           03602                           TC       FINEZERO
000150:
000151: 21,3237           43733        CHK5               CS       4+6BITS
000152: 21,3240           00006                           EXTEND
000153: 21,3241           03012                           WAND     12
000154: 21,3242           37650                           CAF      FOUR
000155: 21,3243           04451                           TC       WAITLIST
000156: 21,3244           03250 42005                     2CADR    ECE1
000157:
000158: 21,3246           33742                           CAF      ECE2CADR
000159: 21,3247           04331                           TC       JOBSLEEP
000160:
000161:
000162: 21,3250           33742        ECE1               CAF      ECE2CADR
000163: 21,3251           04335                           TC       JOBWAKE
000164: 21,3252           04505                           TC       TASKOVER
000165:
000166: 21,3253           46162        ECE2               CS       SIX
000167: 21,3254           61563                           AD       TESTNO
000168: 21,3255           00006                           EXTEND
000169: 21,3256           63260                           BZMF     +2
000170: 21,3257           13301                           TCF      CHKX
000171:
000172: 21,3260           51563                           INDEX    TESTNO
000173: 21,3261           33355                           CAF      ERCTRANG
000174: 21,3262           54400                           TS       THETAD
000175: 21,3263           54401                           TS       THETAD     +1
000176: 21,3264           54402                           TS       THETAD     +2
000177:
000178: 21,3265           37645                           CAF      BIT6
000179: 21,3266           00006                           EXTEND
000180: 21,3267           05012                           WOR      12
000181:
000182: 21,3270           00004                           INHINT
000183: 21,3271           37651                           CAF      TWO
000184: 21,3272           04451                           TC       WAITLIST
000185: 21,3273           02624 22005                     2CADR    ATTCK2
000186:
000187: 21,3275           00003                           RELINT
000188:
000189: 21,3276           03561                           TC       OPRTRDLY
000190:
000191: 21,3277           25563                           INCR     TESTNO
000192:
000193: 21,3300           13237                           TCF      CHK5
000194:
000195: 21,3301           03631        CHKX               TC       COARZERO
000196:
000197: 21,3302           37657                           CAF      ZERO
000198: 21,3303           55563                           TS       TESTNO
000199:
000200: 21,3304           04063                           TC       BANKCALL
000201: 21,3305           20246                           CADR     RRZERO
000202: 21,3306           04063                           TC       BANKCALL
000203: 21,3307           26712                           CADR     RADSTALL
000204: 21,3310           13353                           TCF      ENDTST03
000205:
000206: 21,3311           51563        CHK6               INDEX    TESTNO
000207: 21,3312           33364                           CAF      RADECNTR
000208: 21,3313           54424                           TS       TANG       +1
000209: 21,3314           54423                           TS       TANG
000210:
000211: 21,3315           06000                           TC       INTPRET
000212:
000213:
000214: 21,3316           77634                           CALL
000215: 21,3317           20362                                    RRDESNB
000216:
000217: 21,3320           04063                           TC       BANKCALL
000218: 21,3321           26712                           CADR     RADSTALL
000219: 21,3322           13353                           TCF      ENDTST03
000220:
000221: 21,3323           03554                           TC       RROPRDLY
000222:
000223: 21,3324           25563                           INCR     TESTNO
000224:
000225: 21,3325           47650                           CS       FOUR
000226: 21,3326           61563                           AD       TESTNO
000227: 21,3327           00006                           EXTEND
000228: 21,3330           63311                           BZMF     CHK6
000229:
000230: 21,3331           37657                           CAF      ZERO
000231: 21,3332           55563                           TS       TESTNO
000232: 21,3333           54354                           TS       ALTRATE
000233: 21,3334           54352                           TS       ALT
000234: 21,3335           54353                           TS       ALT        +1
000235:
000236: 21,3336           47652                           CS       ONE
000237: 21,3337           54351                           TS       DIDFLG
000238:
000239: 21,3340           51563        CHK7               INDEX    TESTNO
000240: 21,3341           33371                           CAF      RRRATFPS
000241: 21,3342           54360                           TS       FORVEL
000242: 21,3343           54361                           TS       LATVEL
000243:
000244: 21,3344           03554                           TC       RROPRDLY
000245:
000246: 21,3345           25563                           INCR     TESTNO
000247:
000248: 21,3346           47646                           CS       BIT5
000249: 21,3347           67651                           AD       TWO
000250: 21,3350           61563                           AD       TESTNO
000251: 21,3351           00006                           EXTEND
000252: 21,3352           63340                           BZMF     CHK7
000253:
000254: 21,3353           04063        ENDTST03           TC       BANKCALL
000255: 21,3354           30752                           CADR     ENDTEST
000256:
000257:
000258:
000259:
000260:
000261: 21,3355           03013        ERCTRANG           OCT      03013
000262: 21,3356           02660                           OCT      02660
000263: 21,3357           01042                           OCT      01042
000264:
000265:
000266: 21,3360           00000                           OCT      00000
000267: 21,3361           76736                           OCT      76736
000268: 21,3362           75120                           OCT      75120
000269: 21,3363           74765                           OCT      74765
000270:
000271:
000272:
000273:
000274:
000275: 21,3364           01463        RADECNTR           OCT      01463
000276: 21,3365           01042                           OCT      01042
000277: 21,3366           00000                           OCT      00000
000278: 21,3367           76736                           OCT      76736
000279: 21,3370           76315                           OCT      76315
000280:
000281:
000282:
000283:
000284:
000285: 21,3371           00000        RRRATFPS           OCT      00000
000286: 21,3372           00001                           OCT      00001
000287: 21,3373           00002                           OCT      00002
000288: 21,3374           00004                           OCT      00004
000289: 21,3375           00010                           OCT      00010
000290: 21,3376           00020                           OCT      00020
000291: 21,3377           00040                           OCT      00040
000292: 21,3400           00100                           OCT      00100
000293: 21,3401           00200                           OCT      00200
000294: 21,3402           00237                           OCT      00237
000295: 21,3403           00400                           OCT      00400
000296: 21,3404           00545                           OCT      00545
000297: 21,3405           00544                           OCT      00544
000298: 21,3406           77540                           OCT      77540
000299: 21,3407           77232                           OCT      77232
000300:
000301:
000302: 21,3410           00006        CDURATE            EXTEND
000303: 21,3411           23546                           QXCH     QPLACE
000304:
000305: 21,3412           55600                           TS       CDULIMIT
000306:
000307: 21,3413           10067                           CCS      NEWJOB
000308: 21,3414           04317                           TC       CHANG1
000309:
000310: 21,3415           41600                           CS       CDULIMIT
000311: 21,3416           51673                           INDEX    CDUNDX
000312: 21,3417           60032                           AD       CDUX                                  #  CATCH FIRST PULSE
000313: 21,3420           00006                           EXTEND
000314: 21,3421           63413                           BZMF     CDURATE    +3                         #  LOOK AGAIN
000315:
000316: 21,3422           51673                           INDEX    CDUNDX
000317: 21,3423           30032                           CAE      CDUX
000318: 21,3424           57576                           XCH      CDUREADF                              #  CDU FINAL READING
000319: 21,3425           57577                           XCH      CDUREADI                              #  CDU INITIAL READING
000320:
000321: 21,3426           05372                           TC       FINETIME
000322: 21,3427           53574                           DXCH     CDUTIMEF                              #  DP FINAL TIME
000323: 21,3430           53572                           DXCH     CDUTIMEI                              #  DP INITIAL READING
000324:
000325: 21,3431           00003                           RELINT
000326: 21,3432           01546                           TC       QPLACE
000327:
000328:
000329:
000330:
000331: 21,3433           00006        CALCRATE           EXTEND
000332: 21,3434           23546                           QXCH     QPLACE
000333:
000334: 21,3435           53577                           DXCH     CDUREADF
000335: 21,3436           00006                           EXTEND
000336: 21,3437           20001                           MSU      L
000337: 21,3440           55700                           TS       CDUANG
000338:
000339: 21,3441           06000                           TC       INTPRET
000340: 21,3442           45345                           DLOAD    DSU
000341: 21,3443           01574                                    CDUTIMEF
000342: 21,3444           01572                                    CDUTIMEI
000343: 21,3445           67206                           PUSH     SLOAD
000344: 21,3446           01701                                    CDUANG
000345: 21,3447           56261                           SR       DDV
000346: 21,3450           00617                                    14D
000347: 21,3451           45005                           DMP      RTB
000348: 21,3452           03746                                    DEG/SEC
000349: 21,3453           33524                                    SGNAGREE
000350: 21,3454           00337                           STORE    DSPTEM2
000351:
000352: 21,3455           77776                           EXIT
000353:
000354: 21,3456           33740        RATEDSP            CAF      V06N66X
000355: 21,3457           05234                           TC       NVSBWAIT
000356: 21,3460           05176                           TC       FLASHON
000357: 21,3461           05042                           TC       ENDIDLE
000358: 21,3462           13353                           TCF      ENDTST03
000359: 21,3463           13465                           TCF      +2
000360: 21,3464           13456                           TCF      RATEDSP
000361:
000362: 21,3465           25550                           INCR     RUN
000363: 21,3466           01546                           TC       QPLACE
000364:
000365:
000366: 21,3467           54400        THETADLD           TS       THETAD
000367: 21,3470           54401                           TS       THETAD     +1
000368: 21,3471           54402                           TS       THETAD     +2
000369:
000370: 21,3472           00006                           EXTEND
000371: 21,3473           23546                           QXCH     QPLACE
000372:
000373: 21,3474           37656                           CAF      SEVEN
000374: 21,3475           55551        THLD1              TS       STOREPL
000375:
000376: 21,3476           04063                           TC       BANKCALL
000377: 21,3477           26055                           CADR     IMUCOARS
000378: 21,3500           04063                           TC       BANKCALL
000379: 21,3501           26716                           CADR     IMUSTALL
000380: 21,3502           13353                           TCF      ENDTST03
000381:
000382: 21,3503           11551                           CCS      STOREPL
000383: 21,3504           03475                           TC       THLD1
000384:
000385: 21,3505           03561                           TC       OPRTRDLY
000386:
000387: 21,3506           01546                           TC       QPLACE
000388:
000389:
000390:
000391:
000392: 21,3507           00006        FINEALGN           EXTEND
000393: 21,3510           23546                           QXCH     QPLACE
000394:
000395: 21,3511           04063                           TC       BANKCALL
000396: 21,3512           26227                           CADR     IMUFINE
000397: 21,3513           04063                           TC       BANKCALL
000398: 21,3514           26716                           CADR     IMUSTALL
000399: 21,3515           13353                           TCF      ENDTST03
000400:
000401: 21,3516           01546                           TC       QPLACE
000402:
000403:
000404: 21,3517           00006        CH30DSPY           EXTEND
000405: 21,3520           23546                           QXCH     QPLACE
000406:
000407: 21,3521           33731                           CAF      OCT30
000408: 21,3522           54142                           TS       MPAC       +2
000409: 21,3523           33734                           CAF      V01N10X
000410: 21,3524           05234                           TC       NVSBWAIT
000411: 21,3525           05176                           TC       FLASHON
000412: 21,3526           05042                           TC       ENDIDLE
000413: 21,3527           13353                           TCF      ENDTST03
000414: 21,3530           13532                           TCF      +2
000415: 21,3531           13521                           TCF      CH30DSPY   +2
000416:
000417: 21,3532           05202                           TC       FLASHOFF
000418: 21,3533           25550                           INCR     RUN
000419: 21,3534           01546                           TC       QPLACE
000420:
000421:
000422:
000423:
000424: 21,3535           00006        ZEROMODE           EXTEND
000425: 21,3536           23546                           QXCH     QPLACE
000426:
000427: 21,3537           04063                           TC       BANKCALL
000428: 21,3540           26000                           CADR     IMUZERO
000429: 21,3541           04063                           TC       BANKCALL
000430: 21,3542           26716                           CADR     IMUSTALL
000431: 21,3543           13353                           TCF      ENDTST03
000432:
000433: 21,3544           01546                           TC       QPLACE
000434:
000435:
000436:
000437:
000438: 21,3545           43733        ZEROMAIN           CS       4+6BITS
000439: 21,3546           00006                           EXTEND
000440: 21,3547           03012                           WAND     12
000441:
000442: 21,3550           37646                           CAF      BIT5
000443: 21,3551           00006                           EXTEND
000444: 21,3552           05012                           WOR      12
000445:
000446: 21,3553           00002                           TC       Q
000447:
000448:
000449: 21,3554           00006        RROPRDLY           EXTEND
000450: 21,3555           23545                           QXCH     QPLAC
000451:
000452: 21,3556           25550                           INCR     RUN
000453:
000454: 21,3557           33737                           CAF      V06N40X
000455: 21,3560           13565                           TCF      OPRTRDLY   +4
000456:
000457:
000458:
000459:
000460: 21,3561           00006        OPRTRDLY           EXTEND
000461: 21,3562           23545                           QXCH     QPLAC
000462:
000463: 21,3563           25550                           INCR     RUN
000464: 21,3564           33736                           CAF      V06N20X
000465: 21,3565           05234                           TC       NVSBWAIT
000466: 21,3566           33741                           CAF      V33N00X
000467: 21,3567           05234                           TC       NVSBWAIT
000468: 21,3570           31550                           CA       RUN
000469: 21,3571           73730                           MASK     6LOW
000470: 21,3572           05234                           TC       NVSBWAIT
000471: 21,3573           05176                           TC       FLASHON
000472: 21,3574           05042                           TC       ENDIDLE
000473: 21,3575           13353                           TCF      ENDTST03
000474: 21,3576           13600                           TCF      +2
000475: 21,3577           13564                           TCF      OPRTRDLY   +3
000476:
000477: 21,3600           05202                           TC       FLASHOFF
000478: 21,3601           01545                           TC       QPLAC
000479:
000480: 21,3602           00006        FINEZERO           EXTEND
000481: 21,3603           23545                           QXCH     QPLAC
000482:
000483: 21,3604           04063                           TC       BANKCALL
000484: 21,3605           26000                           CADR     IMUZERO
000485:
000486: 21,3606           37651                           CAF      TWO
000487: 21,3607           55512                           TS       EROPTN
000488: 21,3610           37650                           CAF      FOUR
000489: 21,3611           55544                           TS       POSITON
000490:
000491: 21,3612           00004                           INHINT
000492: 21,3613           47641                           CS       BIT10
000493: 21,3614           70061                           MASK     STATE
000494: 21,3615           67641                           AD       BIT10
000495: 21,3616           54061                           TS       STATE
000496: 21,3617           00003                           RELINT
000497:
000498:
000499: 21,3620           04063                           TC       BANKCALL
000500: 21,3621           30765                           CADR     LEMLAB
000501:
000502: 21,3622           05221        SAMODRTN           TC       GRABWAIT
000503:
000504: 21,3623           13625                           TCF      +2
000505: 21,3624           05234                           TC       NVSBWAIT
000506:
000507: 21,3625           03747                           TC       DSPY30WT
000508:
000509: 21,3626           03517        DSPYCH30           TC       CH30DSPY
000510: 21,3627           03535                           TC       ZEROMODE
000511:
000512: 21,3630           01545                           TC       QPLAC
000513:
000514:
000515:
000516: 21,3631           37657        COARZERO           CAF      ZERO
000517: 21,3632           54400                           TS       THETAD
000518: 21,3633           54401                           TS       THETAD     +1
000519: 21,3634           54402                           TS       THETAD     +2
000520:
000521: 21,3635           00006                           EXTEND
000522: 21,3636           23546                           QXCH     QPLACE
000523:
000524: 21,3637           04063                           TC       BANKCALL
000525: 21,3640           26055                           CADR     IMUCOARS
000526: 21,3641           04063                           TC       BANKCALL
000527: 21,3642           26716                           CADR     IMUSTALL
000528: 21,3643           13353                           TCF      ENDTST03
000529:
000530: 21,3644           01546                           TC       QPLACE
000531:
000532:
000533: 21,3645           00006        FNZEROFN           EXTEND
000534: 21,3646           23545                           QXCH     QPLAC
000535:
000536: 21,3647           03507                           TC       FINEALGN
000537:
000538: 21,3650           30032                           CAE      CDUX
000539: 21,3651           55576                           TS       CDUREADF
000540: 21,3652           30033                           CAE      CDUY
000541: 21,3653           55577                           TS       CDUREADI
000542: 21,3654           30034                           CAE      CDUZ
000543: 21,3655           55600                           TS       CDULIMIT
000544:
000545: 21,3656           03535                           TC       ZEROMODE
000546:
000547: 21,3657           13670                           TCF      FZF2
000548: 21,3660           04451                           TC       WAITLIST
000549: 21,3661           03665 42005                     2CADR    FZF1
000550:
000551: 21,3663           33743                           CAF      FZF2CADR
000552: 21,3664           04331                           TC       JOBSLEEP
000553:
000554: 21,3665           33743        FZF1               CAF      FZF2CADR
000555: 21,3666           04335                           TC       JOBWAKE
000556: 21,3667           04505                           TC       TASKOVER
000557:
000558: 21,3670           31576        FZF2               CAE      CDUREADF
000559: 21,3671           00006                           EXTEND
000560: 21,3672           20032                           MSU      CDUX
000561: 21,3673           54333                           TS       DSPTEM1
000562:
000563: 21,3674           31577                           CAE      CDUREADI
000564: 21,3675           00006                           EXTEND
000565: 21,3676           20033                           MSU      CDUY
000566: 21,3677           54334                           TS       DSPTEM1    +1
000567:
000568: 21,3700           31600                           CAE      CDULIMIT
000569: 21,3701           00006                           EXTEND
000570: 21,3702           20034                           MSU      CDUZ
000571: 21,3703           54335                           TS       DSPTEM1    +2
000572:
000573: 21,3704           33735        FZFDSP             CAF      V05N30X
000574: 21,3705           05234                           TC       NVSBWAIT
000575: 21,3706           05176                           TC       FLASHON
000576: 21,3707           05042                           TC       ENDIDLE
000577: 21,3710           13353                           TCF      ENDTST03
000578: 21,3711           13713                           TCF      +2
000579: 21,3712           13704                           TCF      FZFDSP
000580:
000581: 21,3713           25550                           INCR     RUN
000582: 21,3714           01545                           TC       QPLAC
000583:
000584:
000585: 21,3715           00133        1ANG               OCT      00133
000586: 21,3716           06000        33.75ANG           OCT      06000
000587: 21,3717           10000        45ANG              OCT      10000
000588: 21,3720           14477        71ANG              OCT      14477
000589: 21,3721           20000        90ANG              OCT      20000
000590: 21,3722           30000        135ANG             OCT      30000
000591: 21,3723           01616        10ANG              OCT      01616
000592: 21,3724           34344        160ANG             OCT      34344
000593: 21,3725           40000        180ANG             OCT      40000
000594: 21,3726           50000        225ANG             OCT      50000
000595: 21,3727           36162        170ANG             OCT      36162
000596:
000597: 21,3730           00077        6LOW               OCT      77
000598: 21,3731           00030        OCT30              OCT      30
000599: 21,3732           00454        3SEC               DEC      300        B-14
000600: 21,3733           00050        4+6BITS            OCT      00050
000601:
000602: 21,3734           00110        V01N10X            OCT      00110
000603: 21,3735           00530        V05N30X            OCT      00530
000604: 21,3736           00620        V06N20X            OCT      00620
000605: 21,3737           00640        V06N40X            OCT      00640
000606: 21,3740           00666        V06N66X            OCT      00666
000607: 21,3741           03300        V33N00X            OCT      03300
000608:
000609: 21,3742           43253        ECE2CADR           CADR     ECE2
000610: 21,3743           43670        FZF2CADR           CADR     FZF2
000611: 21,3744           02500        OGCECADR           ECADR    OGC
000612:
000613: 21,3745           00043 05000  DEG/SEC            2DEC     576000     B-28
000614:


000618:
000619: 21,3747           03545        DSPY30WT           TC       ZEROMAIN
000620: 21,3750           37640                           CAF      BIT11
000621: 21,3751           04451                           TC       WAITLIST
000622: 21,3752  E5,1400                                  EBANK=   XSM
000623: 21,3752           03756 42005                     2CADR    DSPY30
000624:
000625: 21,3754           33761                           CAF      CH30WAKE
000626: 21,3755           04331                           TC       JOBSLEEP
000627:
000628: 21,3756           33761        DSPY30             CAF      CH30WAKE
000629: 21,3757           04335                           TC       JOBWAKE
000630: 21,3760           04505                           TC       TASKOVER
000631:
000632: 21,3761           43626        CH30WAKE           CADR     DSPYCH30
000633:
000634:
000635:
000636: 21,3762           00006        CHK3               EXTEND
000637: 21,3763           23547                           QXCH     QPLACES
000638:
000639: 21,3764           03471                           TC       THETADLD   +2
000640:
000641: 21,3765           37657                           CAF      ZERO
000642: 21,3766           03471                           TC       THETADLD   +2
000643:
000644: 21,3767           01547                           TC       QPLACES
000645:
000646: 21,3770                        ENDIMUS3           EQUALS

End of include-file IMU_PERFORMANCE_TESTS_3.agc.  Parent file is MAIN.agc


