
Source Code


000002:                                                                                                  ## Copyright:   Public domain.
000003:                                                                                                  ## Filename:    IMU_PERFORMANCE_TESTS_1.agc
000004:                                                                                                  ## Purpose:     A section of Aurora 88.
000005:                                                                                                  ##              It is part of the reconstructed source code for the final
000006:                                                                                                  ##              release of the Lunar Module system test software. No original
000007:                                                                                                  ##              listings of this program are available; instead, this file
000008:                                                                                                  ##              was created via disassembly of dumps of Aurora 88 core rope
000009:                                                                                                  ##              modules and comparison with other AGC programs.
000010:                                                                                                  ## Assembler:   yaYUL
000011:                                                                                                  ## Contact:     Ron Burkey <info@sandroid.org>.
000012:                                                                                                  ## Website:     www.ibiblio.org/apollo/index.html
000013:                                                                                                  ## Mod history: 2023-06-30 MAS  Created from Aurora 12.
000014:                                                                                                  ##              2023-07-12 MAS  Updated for Aurora 88.
000015:
000016:
000017: 14,2000                                           BANK     14
000018: 14,2000  E5,1400                                  EBANK=   XSM
000019:
000020:
000021:
000022: 14,2000           37652        AOTNBIMU           CAF      ONE                                   #  AOT-NB-IMU FINE ALIGNMENT TEST
000023: 14,2001           55512                           TS       EROPTN                                #  ... TEST CAPABILITY ...
000024:
000025: 14,2002           04063                           TC       BANKCALL
000026: 14,2003           26000                           CADR     IMUZERO                               #  IMU ZERO ENCODER MODE
000027: 14,2004           06000                           TC       INTPRET
000028: 14,2005           77634                           CALL
000029: 14,2006           30535                                    LATAZCHK                              #  TO LOAD AZIMUTH (SM) AND LATITUDE
000030: 14,2007           77634                           CALL
000031: 14,2010           30332                                    MAKEXSMD                              #  TO SET UP A STABLE MEMBER DESIRED MATRIX
000032: 14,2011           47014                           SET      CALL
000033: 14,2012           00065                                    COAROFIN                              #  FOR COARSE OR FINE ALIGN MARKS
000034: 14,2013           30412                                    ERTHRVSE                              #  TO CALCULATE EARTH RATE VECTOR
000035: 14,2014           77776                           EXIT
000036:
000037: 14,2015           33657        POSLOAD            CAF      V24N30E                               #  R1  0000X ENTER     POSITION 1,2, OR 3
000038: 14,2016           05234                           TC       NVSBWAIT                              #  R2  00000 ENTER     00001 FOR LAB OPTION
000039: 14,2017           05042                           TC       ENDIDLE
000040: 14,2020           12752                           TCF      ENDTEST
000041: 14,2021           12015                           TCF      -4
000042: 14,2022           56333                           XCH      DSPTEM1                               #  DO NOT USE POSITION 3 WITH NAV BASE AT
000043: 14,2023           55544                           TS       POSITON                               #     ZERO DEGREE TILT ANGLE. (GIMBAL LOCK)
000044:
000045: 14,2024           10334                           CCS      DSPTEM1    +1
000046: 14,2025           12765                           TCF      LEMLAB                                #  SPECIAL LAB TEST TO BYPASS MARKS
000047:
000048: 14,2026           02603                           TC       POSNJUMP                              #  SET UP STABLE MEMBER DESIRED COORDINATES
000049:
000050: 14,2027           02506                           TC       OPTDATA                               #  TARGETS 1,2 AZIMUTH AND ELEVATION
000051:
000052: 14,2030           02135                           TC       FINDNAVB                              #  COARSE ALIGN MARKS
000053:
000054: 14,2031           04063                           TC       BANKCALL
000055: 14,2032           26716                           CADR     IMUSTALL                              #  INSURE IMUZERO COMPLETION
000056: 14,2033           12752                           TCF      ENDTEST
000057:
000058: 14,2034           02254                           TC       PUTPOSX                               #  TO COARSE ALIGN STABLE MEMBER
000059:
000060: 14,2035           02744                           TC       GMLCKCHK                              #  CHECK FOR GIMBAL LOCK BEFORE FINE ALIGN
000061: 14,2036           02734                           TC       OGCZERO                               #  FOR EARTH RATE COMPENSATION
000062:
000063: 14,2037           04063                           TC       BANKCALL
000064: 14,2040           26227                           CADR     IMUFINE                               #  FINE ALIGN MODE
000065: 14,2041           04063                           TC       BANKCALL
000066: 14,2042           26716                           CADR     IMUSTALL
000067: 14,2043           12752                           TCF      ENDTEST
000068:
000069: 14,2044           02135                           TC       FINDNAVB                              #  FINE ALIGN MARKS
000070:
000071: 14,2045           05303                           TC       FREEDSP                               #  FREE DISPLAY SYSTEM
000072:
000073: 14,2046           02270                           TC       SMDCALC                               #  TO FINE ALIGN STABLE MEMBER
000074:
000075: 14,2047           04063        ERFINAL            TC       BANKCALL                              #  LAST EARTH RATE SHOT
000076: 14,2050           30427                           CADR     EARTHR
000077: 14,2051           11512                           CCS      EROPTN                                #  IF DESIRED TO COMPENSATE CONTINUALLY
000078: 14,2052           12065                           TCF      MONSTART                              #      CHANGE BY V21 N02 E XXXXX E 00000 E
000079: 14,2053           12047                           TCF      ERFINAL
000080: 14,2054           12752                           TCF      ENDTEST
000081: 14,2055           55512                           TS       EROPTN
000082: 14,2056           00004                           INHINT
000083: 14,2057           34432                           CAF      PRIO21                                #  PRIORITY 1 HIGHER THAN SXTNBIMU
000084: 14,2060           04307                           TC       FINDVAC
000085: 14,2061           03067 30005                     2CADR    RDR37511
000086: 14,2063           00003                           RELINT
000087: 14,2064           02047                           TC       ERFINAL
000088:
000089: 14,2065           05372        MONSTART           TC       FINETIME                              #  TIME AT INITIAL MISALIGNMENT
000090: 14,2066           52141                           DXCH     MPAC
000091: 14,2067           00003                           RELINT
000092: 14,2070           37657                           CAF      ZERO                                  #  ZERO PIPA COUNTERS
000093: 14,2071           54037                           TS       PIPAX
000094: 14,2072           54040                           TS       PIPAY
000095: 14,2073           54041                           TS       PIPAZ
000096: 14,2074           55551                           TS       STOREPL
000097: 14,2075           55537                           TS       NDXCTR
000098: 14,2076           02461                           TC       STORRSLT                              #  STORE T(INITIAL) AND PIPAI = 0
000099:
000100: 14,2077           00004                           INHINT
000101: 14,2100           33670                           CAF      60SEC                                 #  INSURE PIPAI VARIES IN ONE DIRECTION
000102: 14,2101           04451                           TC       WAITLIST
000103: 14,2102           02106 30005                     2CADR    PIP1
000104:
000105: 14,2104           32134                           CAF      PIP2ADR
000106: 14,2105           04331                           TC       JOBSLEEP
000107:
000108: 14,2106           32134        PIP1               CAF      PIP2ADR
000109: 14,2107           04335                           TC       JOBWAKE
000110: 14,2110           04505                           TC       TASKOVER
000111:
000112: 14,2111           31542        PIP2               CAE      PIPNDX
000113: 14,2112           55541                           TS       PIPINDEX                              #  POS1 PIPAY     POS2 PIPAX     POS3 PIPAX
000114: 14,2113           04063                           TC       BANKCALL
000115: 14,2114           36774                           CADR     CHECKG                                #  SYNC ON PIPA PULSE
000116:
000117: 14,2115           00003                           RELINT
000118:
000119: 14,2116           02461                           TC       STORRSLT                              #  STORE TIME AND PIPAI
000120:
000121: 14,2117           31543                           CAE      PIPNDX     +1
000122: 14,2120           55541                           TS       PIPINDEX                              #  POS1 PIPAZ    POS2 PIPAY    POS3 PIPAZ
000123: 14,2121           04063                           TC       BANKCALL
000124: 14,2122           36774                           CADR     CHECKG                                #  SYNC ON PIPA PULSE
000125:
000126: 14,2123           00003                           RELINT
000127: 14,2124           02461                           TC       STORRSLT                              #  STORE TIME AND PIPAI
000128:
000129: 14,2125           00004                           INHINT
000130: 14,2126           33667                           CAF      30SEC                                 #  MONITOR PIPAS AT 30 SECOND INTERVALS
000131: 14,2127           04451                           TC       WAITLIST
000132: 14,2130           02106 30005                     2CADR    PIP1
000133: 14,2132           32134                           CAF      PIP2ADR
000134: 14,2133           04331                           TC       JOBSLEEP
000135: 14,2134           30111        PIP2ADR            CADR     PIP2
000136:
000137: 14,2135           00006        FINDNAVB           EXTEND                                         #  MARKS * CALC NB OR SM WRT EARTH REF
000138: 14,2136           23546                           QXCH     QPLACE
000139:
000140: 14,2137           11212                           CCS      LOTSFLAG
000141: 14,2140           12142                           TCF      +2
000142: 14,2141           12144                           TCF      +3
000143: 14,2142           04063                           TC       BANKCALL
000144: 14,2143           16004                           CADR     LOTMARKB
000145:
000146: 14,2144           04063                           TC       BANKCALL
000147: 14,2145           27014                           CADR     MKRELEAS                              #  RELEASE MARK SYSTEM
000148: 14,2146           37652                           CAF      ONE
000149: 14,2147           54333                           TS       DSPTEM1
000150: 14,2150           33653                           CAF      V01N30E                               #  DISPLAY 00001 IN R1
000151: 14,2151           05234                           TC       NVSBWAIT
000152: 14,2152           37657                           CAF      ZERO                                  #  TO INDICATE GROUND MARKS
000153: 14,2153           04063                           TC       BANKCALL
000154: 14,2154           26753                           CADR     AOTMARK                               #  MARK ON TARGET 1
000155:
000156: 14,2155           04063                           TC       BANKCALL
000157: 14,2156           26714                           CADR     OPTSTALL                              #  INSURE SUCCESSFUL MARK
000158: 14,2157           12752                           TCF      ENDTEST
000159: 14,2160           00006                           EXTEND
000160: 14,2161           50374                           INDEX    MARKSTAT
000161: 14,2162           30001                           DCA      0
000162: 14,2163           53565                           DXCH     TMARK                                 #  TIME(PRES) FOR EARTH RATE COMPENSATION
000163:
000164: 14,2164           02247                           TC       GIMANGS1
000165:
000166: 14,2165           06000                           TC       INTPRET
000167: 14,2166           47140                           LXC,1    CALL
000168: 14,2167           00374                                    MARKSTAT                              #  BASE ADDRESS VAC AREA FOR AOTNB
000169: 14,2170           33167                                    AOTNB                                 #  OPTICS TO NAV BASE COORDINATE FRAME
000170: 14,2171           47014                           BON      CALL
000171: 14,2172           00305                                    COAROFIN                              #  COARSE MARKS = 0    FINE MARKS = 1
000172: 14,2173           30175                                    +2
000173: 14,2174           32517                                    NBSM                                  #  NAV BASE DIRECT TO STABLE MEMBER
000174: 14,2175           01445                           STORE    STARAD                                #  TARGET 1 WRT NAV BASE OR STABLE MEMBER
000175: 14,2176           01602                           STORE    LOS1                                  #  ...FOR K...
000176: 14,2177           77776                           EXIT
000177:
000178: 14,2200           04063                           TC       BANKCALL
000179: 14,2201           27014                           CADR     MKRELEAS                              #  RELEASE MARK SYSTEM
000180: 14,2202           37651                           CAF      TWO
000181: 14,2203           54333                           TS       DSPTEM1
000182: 14,2204           33653                           CAF      V01N30E                               #  DISPLAY 00002 IN R1
000183: 14,2205           05234                           TC       NVSBWAIT
000184: 14,2206           37657                           CAF      ZERO                                  #  TO INDICATE GROUND MARKS
000185: 14,2207           04063                           TC       BANKCALL
000186: 14,2210           26753                           CADR     AOTMARK                               #  MARK ON TARGET 2
000187:
000188: 14,2211           37641                           CAF      BIT10
000189: 14,2212           70061                           MASK     STATE                                 #  BIT10 = COAROFIN
000190: 14,2213           10000                           CCS      A
000191: 14,2214           12222                           TCF      EARRTCOM   +5                         #  IF COARSE ALIGN MARKS
000192:
000193: 14,2215           04063        EARRTCOM           TC       BANKCALL                              #  EARTH RATE COMPENSATION BETWEEN MARKS
000194: 14,2216           30427                           CADR     EARTHR
000195: 14,2217           10372                           CCS      OPTCADR                               #  +0 IF MARK BUTTON NOT DEPRESSED
000196: 14,2220           12223                           TCF      +3
000197: 14,2221           12215                           TCF      EARRTCOM                              #  CONTINUE TO COMPENSATE FOR EARTH RATE
000198: 14,2222           12223                           TCF      +1
000199: 14,2223           04063                           TC       BANKCALL
000200: 14,2224           26714                           CADR     OPTSTALL                              #  INSURE SUCCESSFUL MARK
000201: 14,2225           12752                           TCF      ENDTEST
000202:
000203: 14,2226           02247                           TC       GIMANGS1
000204:
000205: 14,2227           06000                           TC       INTPRET
000206: 14,2230           47140                           LXC,1    CALL
000207: 14,2231           00374                                    MARKSTAT                              #  BASE ADDRESS VAC AREA FOR AOTNB
000208: 14,2232           33167                                    AOTNB                                 #  OPTICS TO NAV BASE COORDINATE FRAME
000209: 14,2233           47014                           BONCLR   CALL                                  #  SET TO ZERO FOR FINE ALIGN MARKS
000210: 14,2234           00205                                    COAROFIN                              #  COARSE MARKS = 0    FINE MARKS = 1
000211: 14,2235           30237                                    +2
000212: 14,2236           32517                                    NBSM                                  #  NAV BASE DIRECT TO STABLE MEMBER
000213: 14,2237           01453                           STORE    STARAD     +6                         #  TARGET 2 WRT NAV BASE OR STABLE MEMBER
000214: 14,2240           01610                           STORE    LOS2                                  #  ...FOR K...
000215:
000216: 14,2241           77634        MAXDET             CALL
000217: 14,2242           30355                                    TAR/EREF                              #  TARGETS 1,2 WRT EARTH REF FRAME
000218: 14,2243           77634                           CALL
000219: 14,2244           32677                                    AXISGEN                               #  NAV BASE OR SM WRT EARTH REF FRAME
000220: 14,2245           77776                           EXIT
000221: 14,2246           01546                           TC       QPLACE
000222:
000223:
000224:
000225: 14,2247           37651        GIMANGS1           CAF      TWO                                   #  BASE ADDRESS GIMBAL ANGLES FOR NBSM
000226: 14,2250           60374                           AD       MARKSTAT
000227: 14,2251           50104                           INDEX    FIXLOC
000228: 14,2252           54050                           TS       S1
000229: 14,2253           00002                           TC       Q
000230:
000231: 14,2254           00006        PUTPOSX            EXTEND                                         #  COARSE ALIGNS STABLE MEMBER
000232: 14,2255           23546                           QXCH     QPLACE
000233:
000234: 14,2256           06000                           TC       INTPRET
000235: 14,2257           77634                           CALL
000236: 14,2260           32615                                    CALCGA                                #  CALCULATE COARSE ALIGN GIMBAL ANGLES
000237: 14,2261           77776                           EXIT
000238:
000239: 14,2262           04063                           TC       BANKCALL
000240: 14,2263           26055                           CADR     IMUCOARS                              #  COARSE ALIGN MODE
000241: 14,2264           04063                           TC       BANKCALL
000242: 14,2265           26716                           CADR     IMUSTALL
000243: 14,2266           12752                           TCF      ENDTEST
000244: 14,2267           01546                           TC       QPLACE
000245:
000246:
000247:
000248:
000249: 14,2270           00006        SMDCALC            EXTEND                                         #  FINE ALIGNS STABLE MEMBER
000250: 14,2271           23546                           QXCH     QPLACE
000251:
000252: 14,2272           06000                           TC       INTPRET
000253: 14,2273           64375                           VLOAD    MXV
000254: 14,2274           01401                                    XSM                                   #  XSM DESIRED WRT EARTH REF FRAME
000255: 14,2275           01445                                    STARAD                                #  THEN TO SM PRESENT OR NAV BASE FRAME
000256: 14,2276           43172                           VSL1     BOFF
000257: 14,2277           00345                                    COAROFIN                              #  BIT10 FOR LEMLAB TEST
000258: 14,2300           30303                                    +3
000259: 14,2301           36041                           STCALL   32D
000260: 14,2302           32517                                    NBSM                                  #  THEN TO SM PRESENT FRAME
000261: 14,2303           23423                           STOVL    XDC
000262: 14,2304           01407                                    YSM                                   #  YSM DESIRED WRT EARTH REF FRAME
000263:
000264: 14,2305           76521                           MXV      VSL1
000265: 14,2306           01445                                    STARAD                                #  THEN TO SM PRESENT OR NAV BASE FRAME
000266: 14,2307           77614                           BOFF
000267: 14,2310           00345                                    COAROFIN                              #  BIT10 FOR LEMLAB TEST
000268: 14,2311           30314                                    +3
000269: 14,2312           36041                           STCALL   32D
000270: 14,2313           32517                                    NBSM                                  #  THEN TO SM PRESENT FRAME
000271: 14,2314           23431                           STOVL    YDC
000272: 14,2315           01423                                    XDC
000273:
000274: 14,2316           76435                           VXV      VSL1
000275: 14,2317           01431                                    YDC
000276: 14,2320           37437                           STCALL   ZDC                                   #  ZSM DESIRED WRT SM PRESENT FRAME
000277: 14,2321           32367                                    CALCGTA                               #  CALCULATE FINE ALIGN TORQUING ANGLES
000278:
000279: 14,2322           45170                           AXT,1    RTB
000280:
000281: 14,2323           02500                           ECADR    OGC                                   #  X1 = BASE ADDRESS OF TORQUING ANGLES
000282: 14,2324           33633                                    PULSEIMU                              #  TO PUT OUT GYRO TORQUING PULSES
000283: 14,2325           77776                           EXIT
000284:
000285: 14,2326           04063                           TC       BANKCALL
000286: 14,2327           26716                           CADR     IMUSTALL                              #  WAIT FOR PULSES TO GET OUT
000287: 14,2330           12752                           TCF      ENDTEST
000288: 14,2331           01546                           TC       QPLACE
000289:
000290: 14,2332           77776        MAKEXSMD           EXIT                                           #  XSM V   YSM SW   ZSM SE
000291: 14,2333           33662                           CAF      17DEC                                 #  ZERO XSM, YSM, AND ZSM
000292: 14,2334           55747                           TS       ZERONDX
000293: 14,2335           33700                           CAF      XSMADRX
000294: 14,2336           04063                           TC       BANKCALL
000295: 14,2337           37241                           CADR     ZEROING                               #          VERT       SOUTH      EAST
000296:
000297: 14,2340           37635                           CAF      HALF                                  #  XSM    * +1          0          0     *
000298: 14,2341           55400                           TS       XSM                                   #         *                              *
000299: 14,2342           06000                           TC       INTPRET                               #         *                              *
000300: 14,2343           73545                           DLOAD    SIN                                   #  YSM    *  0      +SIN(AZ)    +COS(AZ) *
000301: 14,2344           01507                                    AZIMUTH                               #         *                              *
000302: 14,2345           01411                           STORE    XSM        +8D                        #         *                              *
000303: 14,2346           07421                           STODL    XSM        +16D                       #  ZSM    *  0      -COS(AZ)    +SIN(AZ) *
000304: 14,2347           01507                                    AZIMUTH
000305: 14,2350           77746                           COS
000306: 14,2351           01413                           STORE    XSM        +10D
000307: 14,2352           77676                           DCOMP
000308: 14,2353           01417                           STORE    XSM        +14D
000309: 14,2354           77616                           RVQ
000310:
000311:
000312:
000313: 14,2355           77170        TAR/EREF           AXT,1    AXT,2                                 #                TARGET VECTOR
000314: 14,2356           00002                                    2                                     #  SIN(EL)  -COS(AZ)COS(EL)  SIN(AZ)COS(EL)
000315: 14,2357           00014                                    12D
000316: 14,2360           77731                           SSP
000317: 14,2361           00052                                    S2
000318: 14,2362           00006                                    6                                     #  TARGET 1                        TARGET 2
000319:
000320: 14,2363           60533        TAR1               SLOAD*   SR2                                   #  X1=2  X2=12  S2=6 . X1=0  X2=6  S2=6
000321: 14,2364           01557                                    TAZEL1     +3,1
000322: 14,2365           00001                           STORE    0                                     #  PD00           ELEVATION            PD00
000323: 14,2366           77756                           SIN
000324: 14,2367           12023                           STODL    18D,2                                 #  PD06  ***       SIN(EL)        ***  PD12
000325:
000326: 14,2370           00001                                    0
000327: 14,2371           41546                           COS      PUSH                                  #  PDOO            COS(EL)             PD00
000328: 14,2372           45133                           SLOAD*   RTB
000329: 14,2373           01556                                    TAZEL1     +2,1
000330: 14,2374           33463                                    CDULOGIC
000331: 14,2375           00003                           STORE    2                                     #  PD02            AZIMUTH             PD02
000332: 14,2376           41356                           SIN      DMP
000333: 14,2377           00001                                    0
000334: 14,2400           77752                           SL1
000335: 14,2401           12027                           STODL    22D,2                                 #  PD10  ***   +SIN(AZ)COS(EL)    ***  PD16
000336:
000337: 14,2402           00003                                    2
000338: 14,2403           41346                           COS      DMP
000339: 14,2404           57552                           SL1      DCOMP
000340: 14,2405           04025                           STORE    20D,2                                 #  PD08  ***   -COS(AZ)COS(EL)    ***  PD14
000341:
000342: 14,2406           61170                           AXT,1    TIX,2
000343: 14,2407           00000                                    0
000344: 14,2410           30363                                    TAR1
000345: 14,2411           77616                           RVQ
000346:
000347: 14,2412           65345        ERTHRVSE           DLOAD    PDDL
000348: 14,2413           33160                                    ZERODP                                #  PD24 = (SIN -COS  0)(OMEG/MS)
000349: 14,2414           01511                                    LATITUDE
000350: 14,2415           57546                           COS      DCOMP
000351: 14,2416           73525                           PDDL     SIN
000352: 14,2417           01511                                    LATITUDE                              #  EARTH RATE = .1504 ARCSEC / 10 MSEC
000353: 14,2420           74266                           VDEF     VXSC                                  #  1.618 GYRO PULSES = 1 ARCSEC
000354: 14,2421           31704                                    OMEG/MS                               #  OMEG/MS = .243... GYRO PULSES / 10 MSEC
000355: 14,2422           01514                           STORE    ERVECTOR
000356:
000357: 14,2423           77624                           RTB
000358: 14,2424           33460                                    LOADTIME
000359: 14,2425           01565                           STORE    TMARK                                 #  TIME FOR GYRO DRIFT - PIPA SCALE FACTOR
000360: 14,2426           77616                           RVQ
000361:
000362:
000363:
000364:
000365:
000366: 14,2427           04112        EARTHR             TC       MAKECADR                              #  CLACULATES AND COMPENSATES EARTH RATE
000367: 14,2430           55547                           TS       QPLACES
000368:
000369: 14,2431           06000                           TC       INTPRET
000370: 14,2432           77624                           RTB
000371: 14,2433           33460                                    LOADTIME                              #  T(PRESENT)
000372: 14,2434           01562                           STORE    TEMPTIME
000373: 14,2435           54225                           DSU      SL
000374: 14,2436           01565                                    TMARK                                 #  T(PRES) - T(PREV) = DT    SCALED 10 MSEC
000375: 14,2437           00212                                    9D                                    #  2 TO 21ST POWER = 1 REVOLUTION
000376: 14,2440           64361                           VXSC     MXV
000377: 14,2441           01514                                    ERVECTOR                              #  VT = (SIN  -COS  0)(OMEG/MS)(DT)
000378: 14,2442           01401                                    XSM                                   #  (XSM)(VT) = EARTH RATE COMPENSATION
000379: 14,2443           77655                           VAD
000380: 14,2444           01501                                    ERCOMP
000381: 14,2445           07501                           STODL    ERCOMP
000382: 14,2446           01562                                    TEMPTIME
000383: 14,2447           01565                           STORE    TMARK                                 #  T(PREVIOUS)
000384:
000385: 14,2450           45170                           AXT,1    RTB
000386: 14,2451           02500                           ECADR    ERCOMP
000387: 14,2452           33633                                    PULSEIMU                              #  TO PUT OUT GYRO TORQUING PULSES
000388: 14,2453           77776                           EXIT
000389:
000390: 14,2454           04063                           TC       BANKCALL
000391: 14,2455           26716                           CADR     IMUSTALL                              #  WAIT FOR PULSES TO GET OUT
000392: 14,2456           12752                           TCF      ENDTEST
000393: 14,2457           31547                           CAE      QPLACES
000394: 14,2460           14105                           TCF      BANKJUMP
000395:
000396: 14,2461           00006        STORRSLT           EXTEND
000397: 14,2462           23546                           QXCH     QPLACE
000398:
000399: 14,2463           06000                           TC       INTPRET                               #  DP TIME IN MPAC SCALED .312(5) MSEC
000400: 14,2464           54340                           LXC,1    SL
000401: 14,2465           01537                                    NDXCTR
000402: 14,2466           00204                                    3
000403: 14,2467           45005                           DMP      RTB
000404: 14,2470           31702                                    SCALFTR
000405: 14,2471           33524                                    SGNAGREE
000406: 14,2472           03572                           STORE    GENPL,1                               #  STORE DP TIME
000407: 14,2473           77776                           EXIT
000408:
000409: 14,2474           57551                           XCH      STOREPL                               #  CONTAINS C(PIPAI)
000410: 14,2475           51537                           INDEX    NDXCTR
000411: 14,2476           55573                           TS       GENPL      +2                         #  STORE PIPA COUNTER READING
000412: 14,2477           41537                           CS       NDXCTR
000413: 14,2500           63666                           AD       72DEC
000414: 14,2501           00006                           EXTEND
000415: 14,2502           63130                           BZMF     MISALIGN                              #  TO CALCULATE MISALIGNMENT
000416: 14,2503           36165                           CAF      THREE
000417: 14,2504           27537                           ADS      NDXCTR
000418: 14,2505           01546                           TC       QPLACE
000419:
000420: 14,2506           00006        OPTDATA            EXTEND                                         #  CALLS FOR AZIMUTH AND ELEVATION OF
000421: 14,2507           23546                           QXCH     QPLACE                                #     TARGET 1, THEN TARGET 2
000422:
000423: 14,2510           37652                           CAF      BIT1                                  #  AZIMUTH CLOCKWISE FROM NORTH TO TARGET
000424: 14,2511           22007                           ZL                                             #  ELEVATION MEASURED FROM HORIZONTAL
000425: 14,2512           23550                           LXCH     RUN
000426: 14,2513           54335                           TS       DSPTEM1    +2
000427: 14,2514           33654                           CAF      V05N30E                               #  DISPLAY TARGET NUMBER IN R3
000428: 14,2515           05234                           TC       NVSBWAIT
000429: 14,2516           51550                           INDEX    RUN
000430: 14,2517           53554                           DXCH     TAZEL1
000431: 14,2520           52334                           DXCH     DSPTEM1
000432:
000433: 14,2521           02561                           TC       CHECKLD                               #  R1  +- XXX.XX    AZIMUTH IN DEGREES
000434: 14,2522           00661                           OCT      00661                                 #  R2  +- XX.XXX    ELEVATION IN DEGREES
000435: 14,2523           12752                           TCF      ENDTEST                               #  R3      0000X    TARGET NUMBER 1 OR 2
000436:
000437: 14,2524           52334                           DXCH     DSPTEM1                               #  TAZEL1        TARGET 1 AZIMUTH
000438: 14,2525           51550                           INDEX    RUN
000439: 14,2526           53554                           DXCH     TAZEL1                                #  TAZEL1 +2     TARGET 2 AZIMUTH
000440: 14,2527           11550                           CCS      RUN
000441: 14,2530           12534                           TCF      +4
000442: 14,2531           37651        OPTRDRIN           CAF      TWO                                   #  SPECIAL ENTRY FOR RDR37511
000443: 14,2532           54001                           TS       L
000444: 14,2533           12512                           TCF      OPTDATA    +4                         #  MPAC    1ST PASS = 0    2ND PASS = 2
000445: 14,2534           01546                           TC       QPLACE
000446:
000447: 14,2535           62545        LATAZCHK           DLOAD    SL2                                   #  CALLS FOR AZIMUTH (SM) AND LATITUDE
000448: 14,2536           01511                                    LATITUDE
000449: 14,2537           06335                           STODL    DSPTEM1    +1
000450: 14,2540           01507                                    AZIMUTH                               #  ...NOT REALLY...
000451:
000452: 14,2541           77424                           RTB      EXIT
000453: 14,2542           33526                                    1STO2S                                #  FRACTION OF REVOLUTION TO 2S COMPLEMENT
000454:
000455: 14,2543           56140                           XCH      MPAC                                  #  AZIMUTH MUST BE 135 DEGREES R1 = .13500
000456: 14,2544           54333                           TS       DSPTEM1                               #     FOR SXT-NB-IMU FINE ALIGNMENT TEST
000457: 14,2545           02561                           TC       CHECKLD                               #  R1  +- XXX.XX    AZIMUTH IN DEGREES (SM)
000458: 14,2546           00661                           OCT      00661                                 #  R2  +- XX.XXX    LATITUDE IN DEGREES
000459: 14,2547           12752                           TCF      ENDTEST                               #  R3               NOT USED
000460:
000461: 14,2550           06000                           TC       INTPRET
000462: 14,2551           45135                           SLOAD    RTB
000463: 14,2552           00334                                    DSPTEM1
000464: 14,2553           33463                                    CDULOGIC                              #  BACK TO FRACTION OF REVOLUTION
000465: 14,2554           01507                           STORE    AZIMUTH
000466:
000467: 14,2555           60535                           SLOAD    SR2
000468: 14,2556           00335                                    DSPTEM1    +1
000469: 14,2557           01511                           STORE    LATITUDE
000470: 14,2560           77616                           RVQ
000471:
000472:
000473: 14,2561           00006        CHECKLD            EXTEND
000474: 14,2562           23545                           QXCH     QPLAC
000475:
000476: 14,2563           51545                           INDEX    QPLAC
000477: 14,2564           30000                           CA       A
000478: 14,2565           05011                           TC       NVSUB
000479: 14,2566           12600                           TCF      CHECKLD1
000480:
000481: 14,2567           05176                           TC       FLASHON
000482:
000483: 14,2570           05042                           TC       ENDIDLE                               #  CHANGE R1  V21 N61 E  +- XXX.XX E
000484: 14,2571           12574                           TCF      +3                                    #  CHANGE R2  V22 N61 E  +- XX.XXX E
000485: 14,2572           12576                           TCF      +4                                    #  VERIFY, THEN PROCEED WITH VERB 33 ENTER
000486: 14,2573           12563                           TCF      CHECKLD    +2
000487: 14,2574           51545                           INDEX    QPLAC
000488: 14,2575           00001                           TC       1
000489: 14,2576           51545                           INDEX    QPLAC
000490: 14,2577           00002                           TC       2
000491:
000492: 14,2600           32602        CHECKLD1           CAF      CHECKLD2
000493: 14,2601           05231                           TC       NVSUBUSY
000494: 14,2602           30563        CHECKLD2           CADR     CHECKLD    +2
000495:
000496: 14,2603           00006        POSNJUMP           EXTEND                                         #  POSITIONS FOR SXTNBIMU
000497: 14,2604           23546                           QXCH     QPLACE
000498:
000499: 14,2605           51544                           INDEX    POSITON
000500: 14,2606           12607                           TCF      +1
000501: 14,2607           12752                           TCF      ENDTEST
000502: 14,2610           12615                           TCF      POS1
000503: 14,2611           12622                           TCF      POS2
000504: 14,2612           12640                           TCF      POS3
000505: 14,2613           12661                           TCF      POS4
000506: 14,2614           12713                           TCF      POS5
000507:
000508:
000509:
000510: 14,2615           37652        POS1               CAF      ONE                                   #  XSM = V    YSM = SW    ZSM = SE
000511: 14,2616           55542                           TS       PIPNDX
000512: 14,2617           37651                           CAF      TWO
000513: 14,2620           55543                           TS       PIPNDX     +1                         #  MONITOR PIPAY AND PIPAZ
000514: 14,2621           01546                           TC       QPLACE
000515:
000516:
000517:
000518: 14,2622           06000        POS2               TC       INTPRET                               #  XSM = SE   YSM = SW    ZSM = -V
000519: 14,2623           57575                           VLOAD    VCOMP
000520: 14,2624           01401                                    XSM
000521: 14,2625           77715                           PDVL
000522: 14,2626           01415                                    ZSM
000523: 14,2627           23401                           STOVL    XSM
000524: 14,2630           77626                           STADR
000525: 14,2631           76362                           STORE    ZSM
000526: 14,2632           77776                           EXIT
000527: 14,2633           37657                           CAF      ZERO
000528: 14,2634           55542                           TS       PIPNDX
000529: 14,2635           37652                           CAF      ONE
000530: 14,2636           55543                           TS       PIPNDX     +1                         #  MONITOR PIPAX AND PIPAY
000531: 14,2637           01546                           TC       QPLACE
000532:
000533:
000534:
000535: 14,2640           06000        POS3               TC       INTPRET                               #  XSM = SE    YSM = V    ZSM = SW
000536: 14,2641           63375                           VLOAD    PDVL
000537: 14,2642           01401                                    XSM
000538: 14,2643           01407                                    YSM
000539: 14,2644           77715                           PDVL
000540: 14,2645           01415                                    ZSM
000541: 14,2646           23401                           STOVL    XSM
000542:
000543: 14,2647           77626                           STADR
000544: 14,2650           54362                           STOVL    ZSM
000545:
000546: 14,2651           77626                           STADR
000547: 14,2652           76370                           STORE    YSM
000548: 14,2653           77776                           EXIT
000549: 14,2654           37657                           CAF      ZERO
000550: 14,2655           55542                           TS       PIPNDX
000551: 14,2656           37651                           CAF      TWO
000552: 14,2657           55543                           TS       PIPNDX     +1                         #  MONITOR PIPAX AND PIPAZ
000553: 14,2660           01546                           TC       QPLACE
000554:
000555:
000556:
000557: 14,2661           37646        POS4               CAF      BIT5                                  #  OPTION TO ALIGN SM TO SPECIFIED ANGLES
000558: 14,2662           60104                           AD       FIXLOC
000559: 14,2663           50104                           INDEX    FIXLOC
000560: 14,2664           54050                           TS       S1                                    #  BASE ADDRESS GIMBAL ANGLES
000561: 14,2665           33660                           CAF      V25N22E                               #  R1  +- XXX.XX   OUTER GIMBAL ANGLE
000562: 14,2666           05234                           TC       NVSBWAIT                              #  R2  +- XXX.XX   INNER GIMBAL ANGLE
000563: 14,2667           05042                           TC       ENDIDLE                               #  R3  +- XXX.XX   MIDDLE GIMBAL ANGLE
000564: 14,2670           12752                           TCF      ENDTEST
000565: 14,2671           12665                           TCF      -4
000566: 14,2672           30400                           CA       THETAD                                #  SET UP ANGLES FOR SMNB
000567: 14,2673           50104                           INDEX    FIXLOC
000568: 14,2674           54024                           TS       24
000569: 14,2675           30401                           CA       THETAD     +1
000570: 14,2676           50104                           INDEX    FIXLOC
000571: 14,2677           54020                           TS       20
000572: 14,2700           30402                           CA       THETAD     +2
000573: 14,2701           50104                           INDEX    FIXLOC
000574: 14,2702           54022                           TS       22
000575:
000576: 14,2703           06000                           TC       INTPRET
000577: 14,2704           47024                           RTB      CALL
000578: 14,2705           33104                                    TRANSPSE                              #  EARTH REF WRT NAV BASE
000579: 14,2706           33116                                    SMD/EREF                              #  STABLE MEMBER DESIRED WRT EARTH REF
000580: 14,2707           77624                           RTB
000581: 14,2710           33104                                    TRANSPSE                              #  BACK TO NAV BASE WRT TO EARTH REF
000582: 14,2711           77776                           EXIT
000583: 14,2712           01546                           TC       QPLACE
000584:
000585: 14,2713           31546        POS5               CA       QPLACE                                #  OPTION TO ALIGN SM TO ANY ORIENTATION
000586: 14,2714           55551                           TS       STOREPL                               #    WRT EARTH REFERENCE FRAME
000587:
000588: 14,2715           02506                           TC       OPTDATA                               #  LOAD YSM AND ZSM AZIMUTH AND ELEVATION
000589:
000590: 14,2716           06000                           TC       INTPRET
000591: 14,2717           77634                           CALL
000592: 14,2720           30355                                    TAR/EREF                              #  CALC YSM AND ZSM WRT EARTH REF. FRAME
000593: 14,2721           41575                           VLOAD    PUSH
000594: 14,2722           00007                                    6D
000595: 14,2723           01407                           STORE    YSM
000596: 14,2724           76435                           VXV      VSL1
000597: 14,2725           00015                                    12D
000598: 14,2726           01401                           STORE    XSM                                   #  XSM = (YSM) X (ZSM)
000599: 14,2727           76435                           VXV      VSL1
000600: 14,2730           77626                           STADR
000601: 14,2731           76362                           STORE    ZSM                                   #  ZSM = (XSM) X (YSM)
000602: 14,2732           77776                           EXIT
000603:
000604: 14,2733           01551                           TC       STOREPL
000605: 14,2734           00006        OGCZERO            EXTEND                                         #  ZERO EARTH RATE TORQUING ANGLES
000606: 14,2735           23546                           QXCH     QPLACE
000607:
000608: 14,2736           06000                           TC       INTPRET
000609: 14,2737           77775                           VLOAD
000610: 14,2740           33160                                    ZERODP                                #  VECTOR IN THIS CASE
000611: 14,2741           01501                           STORE    ERCOMP
000612: 14,2742           77776                           EXIT
000613: 14,2743           01546                           TC       QPLACE
000614:
000615:
000616:
000617:
000618:
000619: 14,2744           37645        GMLCKCHK           CAF      BIT6                                  #  CHECK FOR GIMBAL LOCK  (MGA GREATER 70)
000620: 14,2745           70322                           MASK     DSPTAB     +11D
000621: 14,2746           00006                           EXTEND
000622: 14,2747           12751                           BZF      +2
000623: 14,2750           12752                           TCF      ENDTEST
000624: 14,2751           00002                           TC       Q
000625:
000626:
000627:
000628:
000629:
000630: 14,2752           37643        ENDTEST            CA       IMUSEFLG                              #  BIT8
000631: 14,2753           67644                           AD       RRUSEFLG                              #  BIT7
000632: 14,2754           40000                           CS       A
000633: 14,2755           00004                           INHINT
000634: 14,2756           70061                           MASK     STATE
000635: 14,2757           54061                           TS       STATE
000636:
000637: 14,2760           04572                           TC       NEWMODEX
000638: 14,2761           00000                           OCT      00000
000639:
000640: 14,2762           04063                           TC       BANKCALL
000641: 14,2763           27014                           CADR     MKRELEAS                              #  RELEASE MARK SYSTEM
000642: 14,2764           04352                           TC       EJFREE
000643:
000644: 14,2765           06000        LEMLAB             TC       INTPRET
000645: 14,2766           57575                           VLOAD    VCOMP
000646: 14,2767           33154                                    YUNIT
000647:
000648: 14,2770           01437                           STORE    ZNB                                   #  XNB MATRIX USED IN CALCGA
000649: 14,2771           23461                           STOVL    STARAD     +12D                       #  STARAD MATRIX USED IN AXISGEN * SMDCALC
000650: 14,2772           33156                                    XUNIT
000651:
000652: 14,2773           01423                           STORE    XNB                                   #  *XNB*   *1    0    0* *V*
000653: 14,2774           23445                           STOVL    STARAD                                #  *   *   *           * * *
000654: 14,2775           33152                                    ZUNIT                                 #  *YNB* = *0    0    1* *S*
000655: 14,2776           01431                           STORE    YNB                                   #  *   *   *           * * *
000656: 14,2777           01453                           STORE    STARAD     +6                         #  *ZNB*   *0   -1    0* *E*
000657: 14,3000           77776                           EXIT
000658:
000659: 14,3001           41544                           CS       POSITON
000660: 14,3002           66165                           AD       THREE
000661: 14,3003           00006                           EXTEND
000662: 14,3004           13006                           BZF      +2
000663: 14,3005           13021                           TCF      LEMLAB1
000664:
000665: 14,3006           06000                           TC       INTPRET
000666: 14,3007           57575                           VLOAD    VCOMP
000667: 14,3010           01423                                    XNB
000668: 14,3011           77715                           PDVL                                           #  *XNB*   * 0   -1    0* *V*
000669: 14,3012           01437                                    ZNB                                   #  *   *   *            * * *
000670: 14,3013           01423                           STORE    XNB                                   #  *YNB* = * 0    0    1* *S*
000671: 14,3014           23445                           STOVL    STARAD                                #  *   *   *            * * *
000672: 14,3015           77626                           STADR                                          #  *ZNB*   *-1    0    0* * *
000673: 14,3016           76340                           STORE    ZNB
000674: 14,3017           01461                           STORE    STARAD     +12D
000675: 14,3020           77776                           EXIT
000676:
000677: 14,3021           04063        LEMLAB1            TC       BANKCALL
000678: 14,3022           26716                           CADR     IMUSTALL                              #  INSURE IMUZERO COMPLETION
000679:
000680: 14,3023           12752                           TCF      ENDTEST
000681:
000682: 14,3024           02603                           TC       POSNJUMP                              #  SET UP STABLE MEMBER DESIRED COORDINATES
000683: 14,3025           05303                           TC       FREEDSP                               #  FREE DISPLAY SYSTEM
000684: 14,3026           02254                           TC       PUTPOSX                               #  TO COARSE ALIGN STABLE MEMBER
000685:
000686: 14,3027           02744                           TC       GMLCKCHK
000687:
000688: 14,3030           04063                           TC       BANKCALL
000689: 14,3031           26227                           CADR     IMUFINE                               #  FINE ALIGN MODE
000690: 14,3032           04063                           TC       BANKCALL
000691: 14,3033           26716                           CADR     IMUSTALL
000692: 14,3034           12752                           TCF      ENDTEST
000693:
000694: 14,3035           30032                           CA       CDUX
000695: 14,3036           50104                           INDEX    FIXLOC
000696: 14,3037           54024                           TS       24
000697: 14,3040           30033                           CA       CDUY
000698: 14,3041           50104                           INDEX    FIXLOC
000699: 14,3042           54020                           TS       20
000700: 14,3043           30034                           CA       CDUZ
000701: 14,3044           50104                           INDEX    FIXLOC
000702: 14,3045           54022                           TS       22
000703:
000704: 14,3046           37646                           CAF      BIT5
000705: 14,3047           60104                           AD       FIXLOC
000706: 14,3050           50104                           INDEX    FIXLOC
000707: 14,3051           54050                           TS       S1
000708:
000709: 14,3052           02270                           TC       SMDCALC                               #  TO FINE ALIGN STABLE MEMBER
000710:
000711: 14,3053           06000                           TC       INTPRET                               #  IF EARTH RATE COMPENSATION DESIRED
000712: 14,3054           77624                           RTB
000713: 14,3055           33460                                    LOADTIME
000714: 14,3056           01565                           STORE    TMARK
000715: 14,3057           77776                           EXIT
000716:
000717: 14,3060           41512                           CS       EROPTN
000718: 14,3061           67651                           AD       TWO
000719: 14,3062           00006                           EXTEND
000720: 14,3063           13065                           BZF      +2
000721:
000722: 14,3064           12051                           TCF      ERFINAL    +2
000723:
000724: 14,3065           04063                           TC       BANKCALL
000725: 14,3066           43622                           CADR     SAMODRTN                              #  RETURN TO SEMI-AUTOMATIC MODING TEST
000726:
000727: 14,3067           33676        RDR37511           CAF      RDRRETN                               #  RENDEZVOUS RADAR AND ANTENNA TRACKING
000728: 14,3070           55546                           TS       QPLACE                                #  TO RETURN FROM OPTDATA
000729:
000730: 14,3071           04063                           TC       BANKCALL
000731: 14,3072           20246                           CADR     RRZERO
000732:
000733: 14,3073           04063                           TC       BANKCALL
000734: 14,3074           23022                           CADR     AURLOKON                              #  OPERATOR DECISION TO LOCK ON OR NOT
000735:
000736: 14,3075           12531        RDR1               TCF      OPTRDRIN                              #  CALL FOR AZIMUTH AND ELEVATION
000737:
000738: 14,3076           04063                           TC       BANKCALL
000739: 14,3077           26712                           CADR     RADSTALL
000740: 14,3100           14353                           TCF      ENDOFJOB
000741:
000742: 14,3101           06000                           TC       INTPRET
000743: 14,3102           77170                           AXT,1    AXT,2                                 #  SET UP X1 AND X2 FOR TAR/EREF
000744: 14,3103           00000                                    0
000745: 14,3104           00006                                    6
000746: 14,3105           77634                           CALL
000747: 14,3106           30360                                    TAR/EREF   +3                         #  LINE-OF-SIGHT WRT EARTH REF FRAME
000748: 14,3107           64375                           VLOAD    MXV
000749: 14,3110           00015                                    12D                                   #  LINE-OF-SIGHT WRT EARTH REF FRAME
000750: 14,3111           01401                                    XSM                                   #  TO STABLE MEMBER PRESENT FRAME
000751: 14,3112           77772                           VSL1
000752: 14,3113           36416                           STCALL   RRTARGET
000753: 14,3114           20305                                    RRDESSM
000754:
000755: 14,3115           13122                           TCF      37511ALM
000756: 14,3116           04063                           TC       BANKCALL
000757: 14,3117           26712                           CADR     RADSTALL
000758: 14,3120           14353                           TCF      ENDOFJOB
000759: 14,3121           14353                           TCF      ENDOFJOB
000760:
000761:
000762:
000763:
000764:
000765: 14,3122           05315        37511ALM           TC       ALARM
000766: 14,3123           00524                           OCT      524
000767: 14,3124           14353                           TCF      ENDOFJOB
000768:
000769:
000770:
000771:
000772:
000773: 14,3125           47657        RDRINIT            CS       ZERO
000774: 14,3126           55512                           TS       EROPTN
000775: 14,3127           12002                           TCF      AOTNBIMU   +2
000776:
000777: 14,3130           05221        MISALIGN           TC       GRABWAIT                              #  DISPLAY SYSTEM WAS FREED
000778: 14,3131           37657                           CAF      ZERO
000779: 14,3132           55537                           TS       NDXCTR
000780: 14,3133           51537        BBBB               INDEX    NDXCTR
000781: 14,3134           41675                           CS       GENPL      +68D
000782: 14,3135           51537                           INDEX    NDXCTR
000783: 14,3136           27703                           ADS      GENPL      +74D
000784: 14,3137           33664                           CAF      63DEC
000785: 14,3140           61537                           AD       NDXCTR
000786: 14,3141           10000                           CCS      A
000787: 14,3142           46165                           CS       THREE
000788: 14,3143           27537                           ADS      NDXCTR
000789: 14,3144           13133                           TCF      BBBB
000790: 14,3145           55537                           TS       NDXCTR
000791:
000792:
000793:
000794: 14,3146           06000        CCCC               TC       INTPRET
000795: 14,3147           70750                           LXA,1    DLOAD*
000796: 14,3150           01537                                    NDXCTR
000797: 14,3151           01702                                    GENPL      +72D,1
000798: 14,3152           77625                           DSU
000799: 14,3153           01572                                    GENPL
000800: 14,3154           03702                           STORE    GENPL      +72D,1
000801: 14,3155           77776                           EXIT
000802: 14,3156           41537                           CS       NDXCTR
000803: 14,3157           63665                           AD       69DEC
000804: 14,3160           10000                           CCS      A
000805: 14,3161           36165                           CAF      THREE
000806: 14,3162           27537                           ADS      NDXCTR
000807: 14,3163           13146                           TCF      CCCC
000808: 14,3164           55550                           TS       RUN
000809: 14,3165           36165                           CAF      THREE
000810: 14,3166           55537                           TS       NDXCTR
000811:
000812:
000813:
000814: 14,3167           06000        DDDD               TC       INTPRET
000815: 14,3170           77775                           VLOAD
000816: 14,3171           33160                                    ZERODP
000817: 14,3172           00031                           STORE    24D
000818: 14,3173           00037                           STORE    30D
000819: 14,3174           77735                           SLOAD
000820: 14,3175           31662                                    11DEC
000821: 14,3176           00041                           STORE    32D
000822: 14,3177           77776                           EXIT
000823:
000824: 14,3200           06000        DDDD1              TC       INTPRET
000825: 14,3201           70750                           LXA,1    DLOAD*
000826: 14,3202           01537                                    NDXCTR
000827:
000828: 14,3203           01702                                    GENPL      +72D,1
000829: 14,3204           41423                           DSU*     PUSH
000830: 14,3205           01674                                    GENPL      +66D,1
000831: 14,3206           42742                           SR1      DAD*
000832: 14,3207           01674                                    GENPL      +66D,1
000833: 14,3210           03702                           STORE    GENPL      +72D,1
000834:
000835: 14,3211           43312                           SL2      DAD
000836: 14,3212           00031                                    24D
000837: 14,3213           14031                           STODL*   24D
000838: 14,3214           01702                                    GENPL      +72D,1
000839: 14,3215           63412                           SL4      DSQ
000840: 14,3216           77615                           DAD
000841: 14,3217           00033                                    26D
000842: 14,3220           00033                           STORE    26D
000843: 14,3221           77776                           EXIT
000844: 14,3222           31550                           CAE      RUN
000845: 14,3223           61537                           AD       NDXCTR
000846: 14,3224           40000                           COM
000847: 14,3225           63664                           AD       63DEC
000848: 14,3226           10000                           CCS      A
000849: 14,3227           36162                           CAF      SIX
000850: 14,3230           27537                           ADS      NDXCTR
000851: 14,3231           13200                           TCF      DDDD1
000852: 14,3232           61550                           AD       RUN
000853: 14,3233           55537                           TS       NDXCTR
000854:
000855:
000856:
000857: 14,3234           06000        EEEE               TC       INTPRET
000858: 14,3235           66740                           LXC,1    SLOAD*
000859: 14,3236           01537                                    NDXCTR
000860: 14,3237           01605                                    GENPL      +11D,1
000861: 14,3240           00043                           STORE    34D
000862: 14,3241           77745                           DLOAD
000863: 14,3242           54206                           PUSH     SL
000864: 14,3243           00211                                    8D
000865: 14,3244           43265                           BDDV     DAD
000866: 14,3245           00043                                    34D
000867: 14,3246           00035                                    28D
000868: 14,3247           06035                           STODL    28D
000869: 14,3250           55261                           SL       BDDV
000870: 14,3251           00207                                    6
000871: 14,3252           00043                                    34D
000872: 14,3253           42523                           PDDL*    SL4
000873: 14,3254           01603                                    GENPL      +9D,1
000874: 14,3255           77605                           DMP
000875: 14,3256           77615                           DAD
000876: 14,3257           00037                                    30D
000877: 14,3260           00037                           STORE    30D
000878:
000879: 14,3261           77776                           EXIT
000880: 14,3262           41537                           CS       NDXCTR
000881: 14,3263           63663                           AD       60DEC
000882: 14,3264           61550                           AD       RUN
000883: 14,3265           10000                           CCS      A
000884: 14,3266           36162                           CAF      SIX
000885: 14,3267           27537                           ADS      NDXCTR
000886: 14,3270           13234                           TCF      EEEE
000887:
000888:
000889:
000890: 14,3271           06000                           TC       INTPRET
000891: 14,3272           41345                           DLOAD    DMP
000892: 14,3273           00031                                    24D
000893: 14,3274           00037                                    30D
000894: 14,3275           41325                           PDDL     DMP
000895: 14,3276           00033                                    26D
000896: 14,3277           00035                                    28D
000897: 14,3300           77625                           DSU
000898: 14,3301           63525                           PDDL     DSQ
000899: 14,3302           00031                                    24D
000900: 14,3303           65342                           SR1      PDDL
000901: 14,3304           00041                                    32D
000902: 14,3305           41261                           SL       DMP
000903: 14,3306           00212                                    11
000904: 14,3307           00033                                    26D
000905: 14,3310           55225                           DSU      BDDV
000906: 14,3311           54205                           DMP      SL
000907: 14,3312           31675                                    KKKK
000908: 14,3313           00204                                    3
000909: 14,3314           00337                           STORE    DSPTEM2
000910: 14,3315           77776                           EXIT
000911:
000912: 14,3316           31544                           CA       POSITON
000913: 14,3317           54340                           TS       DSPTEM2    +2
000914:
000915: 14,3320           33656                           CAF      V06N66E
000916: 14,3321           05234                           TC       NVSBWAIT
000917: 14,3322           05176                           TC       FLASHON
000918: 14,3323           05042                           TC       ENDIDLE
000919: 14,3324           12752                           TCF      ENDTEST
000920: 14,3325           36165                           CAF      THREE
000921: 14,3326           55550                           TS       RUN
000922: 14,3327           37657                           CAF      ZERO
000923: 14,3330           13166                           TCF      DDDD       -1
000924:
000925:                                                                                                  #  THIS REVISION REFLECTS CHANGES AS OF
000926:                                                                                                  #   1/31/66
000927:                                                                                                  #  ENGINE ON/OFF NOW IN CHANNEL ELEVEN.  THE BITS FOR EACH CHANNEL GET TURNED ON ALL AT ONCE.  THEY STAY ON UNTIL
000928:                                                                                                  #   :ENTER:IS PUSHED.  THEN THEY ALL GO OUT AND THE NEXT CHANNEL:S BITS ARE TURNED ON.
000929:                                                                                                  #  CHANNEL 5  BITS 1-8
000930:                                                                                                  #  CHANNEL 6  BITS 1-8
000931:                                                                                                  #  CHANNEL 11 BITS  13,14
000932:                                                                                                  #  CHANNEL 12 BITS 9-14
000933:                                                                                                  #  FOLLOWING THE CHANNEL 12 TESTS ENTER IS PRESSED.  CHANNEL 12 IS SET TO ZERO AND THE NEXT TEST BEGUN. LOW9
000934:                                                                                                  #  GOES IN LOCATION (COUNTER) 55.
000935:                                                                                                  #  INCREASE THROTTLE RATE DESCENT ENGINE
000936:                                                                                                  #  :ENTER: NOW CAUSES THE CONTENTS OF 55 TO BE MADE NEGATIVE
000937:                                                                                                  #  DECREASE THROTTLE RATE DESCENT ENGINE
000938:                                                                                                  #  THE NEXT :ENTER: ZEROS THE REGISTER AND SENDS A PULSE TRAIN (HERE ALTERN
000939:                                                                                                  #  ZEROS FOR CLARITY) TO THE ALTITUDE METER.
000940:                                                                                                  #  THE NEXT :ENTER: WILL ADVANCE THE TEST TO THE ALTITUDE RATE METER TEST.
000941:                                                                                                  #  THE NEXT :ENTER : WILL TERMINATE THE TEST.
000942:
000943:
000944:
000945: 14,3331           37632        SAUTOIFS           CA       POSMAX
000946: 14,3332           55577                           TS       NOBITS
000947: 14,3333           37657                           CA       ZERO
000948: 14,3334           55600                           TS       CHAN
000949: 14,3335           55576                           TS       TEMP
000950: 14,3336           03340                           TC       DINO
000951: 14,3337           25600        BACK1              INCR     CHAN
000952:
000953: 14,3340           51600        DINO               INDEX    CHAN
000954: 14,3341           33343                           CA       SAUTLOCS
000955: 14,3342           14067                           TCF      SWCALL
000956: 14,3343           31357        SAUTLOCS           CADR     CHAN5D
000957: 14,3344           31375                           CADR     CHAN6D
000958: 14,3345           31403                           CADR     CHAN11D
000959: 14,3346           31415                           CADR     CHAN12D
000960: 14,3347           31427                           CADR     PTITRDE
000961: 14,3350           31454                           CADR     PTDTRDE
000962: 14,3351           31531                           CADR     ALTMET
000963: 14,3352           31556                           CADR     ALTRMET
000964: 14,3353           30752                           CADR     ENDTEST
000965: 14,3354           31461        THROTADD           CADR     PTDTRDE    +5
000966: 14,3355           31534        METERADD           CADR     ALTMET     +3
000967: 14,3356           31561        MRATEADD           CADR     ALTRMET    +3
000968: 14,3357           37227        CHAN5D             CA       FIVE
000969: 14,3360           54333                           TS       DSPTEM1
000970: 14,3361           35137        2ENTRY             CA       LOW8                                  #  CHANNEL 6 RETURNS HERE
000971: 14,3362           54334                           TS       DSPTEM1    +1
000972: 14,3363           00006                           EXTEND
000973: 14,3364           51576                           INDEX    TEMP
000974: 14,3365           01005                           WRITE    5
000975:
000976: 14,3366           33645        3ENTRY             CA       V04N30D                               #  CH11,12 RETURN HERE TO USE THE DISPLAY
000977: 14,3367           05234                           TC       NVSBWAIT
000978: 14,3370           33652        4ENTRY             CAF      WAITER                                #  WAITER IS 03300
000979: 14,3371           05234                           TC       NVSBWAIT
000980: 14,3372           05042                           TC       ENDIDLE
000981: 14,3373           02752                           TC       ENDTEST
000982: 14,3374           03337                           TC       BACK1
000983:
000984: 14,3375           25576        CHAN6D             INCR     TEMP
000985: 14,3376           24333                           INCR     DSPTEM1
000986: 14,3377           37657                           CAF      ZERO
000987: 14,3400           00006                           EXTEND
000988: 14,3401           01005                           WRITE    5                                     #  GET RID OF CHANNEL 5 BITS
000989: 14,3402           03361                           TC       2ENTRY
000990: 14,3403           37655        CHAN11D            CA       OCT11
000991: 14,3404           54333                           TS       DSPTEM1
000992: 14,3405           33644                           CA       BIT13-14
000993: 14,3406           54334                           TS       DSPTEM1    +1
000994: 14,3407           00006                           EXTEND
000995: 14,3410           05011                           WOR      11                                    #  WOR IS NON EXCLUSIVE OR
000996: 14,3411           37657                           CAF      ZERO
000997: 14,3412           00006                           EXTEND
000998: 14,3413           01006                           WRITE    6
000999: 14,3414           03366                           TC       3ENTRY
001000: 14,3415           37654        CHAN12D            CA       OCT12
001001: 14,3416           54333                           TS       DSPTEM1
001002: 14,3417           43644                           CS       BIT13-14
001003: 14,3420           00006                           EXTEND
001004: 14,3421           03011                           WAND     11
001005: 14,3422           33650                           CA       CH12BITS
001006: 14,3423           54334                           TS       DSPTEM1    +1
001007: 14,3424           00006                           EXTEND
001008: 14,3425           05012                           WOR      12
001009: 14,3426           03366                           TC       3ENTRY
001010: 14,3427           43650        PTITRDE            CS       CH12BITS
001011: 14,3430           00006                           EXTEND
001012: 14,3431           03012                           WAND     12
001013: 14,3432           37657                           CA       ZERO
001014: 14,3433           54333                           TS       DSPTEM1
001015: 14,3434           54334                           TS       DSPTEM1    +1
001016: 14,3435           55576                           TS       TEMP
001017: 14,3436           37652                           CA       BIT1
001018: 14,3437           55577                           TS       NOBITS
001019: 14,3440           00004        PIT                INHINT
001020: 14,3441           04451                           TC       WAITLIST
001021: 14,3442           03465 30005                     2CADR    THROTASK
001022:
001023: 14,3444           00003                           RELINT
001024: 14,3445           33652                           CA       WAITER
001025: 14,3446           05234                           TC       NVSBWAIT
001026:
001027: 14,3447           05042                           TC       ENDIDLE
001028: 14,3450           02752                           TC       ENDTEST
001029: 14,3451           37657                           CA       ZERO
001030: 14,3452           55577                           TS       NOBITS
001031: 14,3453           03337                           TC       BACK1
001032:
001033: 14,3454           37657        PTDTRDE            CA       ZERO
001034: 14,3455           54055                           TS       THRUST
001035: 14,3456           33354                           CA       THROTADD
001036: 14,3457           55575                           TS       TEMPADD
001037: 14,3460           04331                           TC       JOBSLEEP                              #  THIS INHIBITS THE NEXT TASK UNTIL
001038:                                                                                                  #  CURRENT TASK HAS BEEN COMPLETED
001039: 14,3461           37632                           CA       POSMAX
001040: 14,3462           55576                           TS       TEMP
001041: 14,3463           37644                           CA       BIT7
001042: 14,3464           03440                           TC       PIT
001043: 14,3465           11577        THROTASK           CCS      NOBITS                                #  IS THIS TASK STILL REQ
001044: 14,3466           03473                           TC       +5                                    #  YES
001045: 14,3467           31575                           CA       TEMPADD                               #  NO
001046: 14,3470           55577                           TS       NOBITS
001047: 14,3471           04335                           TC       JOBWAKE
001048: 14,3472           04505                           TC       TASKOVER
001049: 14,3473           11576                           CCS      TEMP
001050: 14,3474           03507                           TC       SOMETIME
001051: 14,3475           35136                           CA       LOW11
001052: 14,3476           54055        ALWAYS             TS       THRUST
001053: 14,3477           37647                           CA       BIT4
001054: 14,3500           00006                           EXTEND                                         #  A SMERZH FIX.
001055: 14,3501           05014                           WOR      14
001056: 14,3502           37645                           CA       BIT6                                  #  320 MS.DELAY
001057: 14,3503           04451                           TC       WAITLIST
001058: 14,3504           03465 30005                     2CADR    THROTASK
001059: 14,3506           04505                           TC       TASKOVER
001060: 14,3507           45136        SOMETIME           CS       LOW11
001061: 14,3510           03476                           TC       ALWAYS
001062: 14,3511           11577        ALTASK             CCS      NOBITS                                #  IS TASK STILL REQ
001063: 14,3512           03517                           TC       +5
001064: 14,3513           31575                           CA       TEMPADD                               #  NO
001065: 14,3514           55577                           TS       NOBITS                                #  ENABLES NEXT TASK
001066: 14,3515           04335                           TC       JOBWAKE
001067: 14,3516           04505                           TC       TASKOVER
001068: 14,3517           33646                           CA       ALBITS                                #  ACTUAL TASK STARTS HERE
001069: 14,3520           54060                           TS       ALTM
001070: 14,3521           37650                           CA       BIT3
001071: 14,3522           00006                           EXTEND
001072: 14,3523           05014                           WOR      14
001073: 14,3524           37645                           CA       BIT6                                  #  320 MS. DELAY
001074: 14,3525           04451                           TC       WAITLIST
001075: 14,3526           03511 30005                     2CADR    ALTASK
001076:
001077: 14,3530           04505                           TC       TASKOVER
001078: 14,3531           33355        ALTMET             CA       METERADD
001079: 14,3532           55575                           TS       TEMPADD
001080: 14,3533           04331                           TC       JOBSLEEP
001081: 14,3534           37657                           CA       ZERO
001082: 14,3535           55576                           TS       TEMP
001083: 14,3536           47647                           CS       BIT4
001084: 14,3537           00006                           EXTEND
001085: 14,3540           03014                           WAND     14
001086: 14,3541           00004                           INHINT
001087: 14,3542           37652                           CA       ONE
001088: 14,3543           04451                           TC       WAITLIST
001089: 14,3544           03511 30005                     2CADR    ALTASK
001090: 14,3546           00003                           RELINT
001091: 14,3547           33652                           CA       WAITER
001092: 14,3550           05234                           TC       NVSBWAIT
001093: 14,3551           05042                           TC       ENDIDLE
001094: 14,3552           02752                           TC       ENDTEST
001095: 14,3553           37657                           CA       ZERO
001096: 14,3554           55577                           TS       NOBITS
001097: 14,3555           03337                           TC       BACK1
001098:
001099: 14,3556           33356        ALTRMET            CA       MRATEADD
001100: 14,3557           55575                           TS       TEMPADD
001101: 14,3560           04331                           TC       JOBSLEEP
001102: 14,3561           37652                           CA       ONE
001103: 14,3562           55576                           TS       TEMP                                  #  TEMP WILL BE INDEXED TO ACQUIRE BIT2 INS
001104:                                                                                                  #  TEAD OF BIT3
001105: 14,3563           37651                           CA       BIT2
001106: 14,3564           00006                           EXTEND
001107: 14,3565           05014                           WOR      14
001108: 14,3566           03541                           TC       ALTMET     +8D
001109:
001110:                                                                                                  #       THE AOT ANGLE CHECKING PROGRAM PROVIDES A SIMPLE VERIFICATION OF THE ACCURACY OF THE AOT,  THE IDEA IS TO
001111:                                                                                                  #  COMPUTE THE ANGLE BETWEEN TWO LINES OF SIGHT AS INDICATED BY THE AOT, WHICH IS WHAT THIS PROGRAM DOES.
001112:                                                                                                  #  INDEPENDENT KNOWLEDGE OF THE INCLUDED ANGLE PROVIDES A COMPARISON AND THUS A MEASURE OF THE AOT ACCURACY.
001113:                                                                                                  #        THE ISS NEED NOT BE ON TO RUN THIS PROGRAM.
001114:
001115:
001116:
001117: 14,3567           06000        AOTANGCK           TC       INTPRET
001118: 14,3570           77414                           SET      EXIT                                  #  IN CASE THE ISS IS OFF.
001119: 14,3571           00065                                    COAROFIN
001120: 14,3572           02135                           TC       FINDNAVB                              #  FOR LOS1 AND LOS2.
001121: 14,3573           06000                           TC       INTPRET
001122: 14,3574           47375                           VLOAD    VXV
001123: 14,3575           01602                                    LOS1
001124: 14,3576           01610                                    LOS2
001125: 14,3577           77646                           ABVAL
001126: 14,3600           22023                           STOVL    SINTH                                 #  SINTH = ABVAL (VXV ).
001127: 14,3601           01602                                    LOS1
001128: 14,3602           77641                           DOT
001129: 14,3603           01610                                    LOS2
001130: 14,3604           36021                           STCALL   COSTH                                 #  COSTH = V.V
001131: 14,3605           32440                                    ARCTRIG
001132: 14,3606           77624                           RTB
001133: 14,3607           33526                                    1STO2S                                #  DP 1S COMP TO SP 2S COMP.
001134: 14,3610           00025                           STORE    THETA
001135: 14,3611           77776                           EXIT
001136: 14,3612           33677                           CAF      THETAADR
001137: 14,3613           60104                           AD       FIXLOC
001138: 14,3614           54142                           TS       MPAC       +2
001139: 14,3615           33655                           CAF      V06N03E                               #  XXX.XX DEGREES IN R1.
001140: 14,3616           05234                           TC       NVSBWAIT
001141: 14,3617           12752                           TCF      ENDTEST
001142:
001143: 14,3620  E3,1400                                  EBANK=   1400
001144: 14,3620           00004        ZEROERAS           INHINT                                         #  PROGRAM BY MUNTZ TO ZERO ERASEABLE
001145: 14,3621           13730                           TCF      ZEROERS1
001146: 14,3622           54003                           TS       EBANK
001147: 14,3623           22007        ZEROLP             ZL
001148: 14,3624           50000                           INDEX    A
001149: 14,3625           23401                           LXCH     1401
001150: 14,3626           67651                           AD       TWO
001151: 14,3627           26003                           ADS      EBANK
001152: 14,3630           75137                           MASK     LOW8
001153: 14,3631           10000                           CCS      A
001154: 14,3632           13623                           TCF      ZEROLP
001155: 14,3633           10003                           CCS      EBANK
001156: 14,3634           13637                           TCF      ZEROLP1
001157: 14,3635           04102                           TC       POSTJUMP
001158: 14,3636           24000                           CADR     SLAP1
001159: 14,3637           00003        ZEROLP1            RELINT
001160: 14,3640           47652                           CS       ONE
001161: 14,3641           00004                           INHINT
001162: 14,3642           13623                           TCF      ZEROLP
001163: 14,3643           00025        OCT25              OCT      25
001164:
001165: 14,3644  E5,1500                                  EBANK=   OGC
001166: 14,3644           30000        BIT13-14           OCT      30000
001167: 14,3645           00430        V04N30D            OCT      00430
001168: 14,3646           52525        ALBITS             OCT      52525
001169: 14,3647           70707        THRSBITS           OCT      70707
001170: 14,3650     7654               OCT12              =        TEN
001171: 14,3650     7655               OCT11              =        NINE
001172: 14,3650           37400        CH12BITS           OCT      37400
001173: 14,3651           00130        V01N30D            OCT      00130
001174: 14,3652           03300        WAITER             OCT      03300
001175:
001176:
001177:
001178:
001179:
001180: 14,3653           00130        V01N30E            OCT      00130                                 #  FOR FINDNAVB
001181: 14,3654           00530        V05N30E            OCT      00530                                 #  FOR OPTDATA
001182: 14,3655           00603        V06N03E            OCT      00603
001183: 14,3656           00666        V06N66E            OCT      00666
001184: 14,3657           02430        V24N30E            OCT      02430                                 #  FOR POSITION LOAD
001185: 14,3660           02522        V25N22E            OCT      02522                                 #  FOR POS4
001186:
001187: 14,3661           00013        11DEC              DEC      11         B-14
001188: 14,3662           00021        17DEC              DEC      17         B-14
001189: 14,3663           00074        60DEC              DEC      60         B-14
001190: 14,3664           00077        63DEC              DEC      63         B-14
001191: 14,3665           00105        69DEC              DEC      69         B-14                       #  FOR MISALIGN
001192: 14,3666           00110        72DEC              DEC      72         B-14                       #  FOR STORRSLT
001193:
001194: 14,3667           05670        30SEC              DEC      3000       B-14                       #  3000 X 10 MSEC
001195: 14,3670           13560        60SEC              DEC      6000       B-14                       #  6000 X 10 MSEC
001196:
001197: 14,3671           01500        OGCADR             ADRES    OGC                                   #  FOR ZEROING
001198: 14,3672           01571        GENPLAD1           ADRES    GENPL
001199: 14,3673           02571        GENPLADR           ECADR    GENPL                                 #  FOR POS4
001200: 14,3674           00322 14366  KKKK               2DEC     210.39     B-14                       #  1230 B-14 FOR CSM
001201:
001202: 14,3676           03076        RDRRETN            ADRES    RDR1       +1                         #  FOR RDR37511
001203: 14,3677           00024        THETAADR           ECADR    THETA
001204: 14,3700           01400        XSMADRX            ADRES    XSM                                   #  FOR MAKEXSMD
001205:
001206: 14,3701           24365 30244  SCALFTR            2DEC     .64                                   #  FOR STORRSLT
001207:
001208: 14,3703           07623 26552  OMEG/MS            2DEC     .24339048                             #  GYRO PULSES / 10 MSEC
001209:
001210:                                                                                                  #           THE FOLLOWING ROUTINE READS THE CLOCK AND SCALAR (CHANNELS 3 AND 4) INTO A AND L, INSURING THAT THE
001211:                                                                                                  #  DATA WAS NOT IN TRANSITION WHEN IT WAS READ.
001212:    5372                                           SETLOC   ENDFAILF
001213:    5372           00004        FINETIME           INHINT                                         #  RETURNS WITH INTERRUPT INHIBITED.
001214:    5373           00006                           EXTEND
001215:    5374           00004                           READ     LOSCALAR
001216:    5375           54001                           TS       L
001217:
001218:    5376           00006                           EXTEND                                         #  SEE IF 2 READINGS AGREE. IF NOT, READ
001219:    5377           06004                           RXOR     LOSCALAR                              #  LOSCALAR AGAIN.
001220:    5400           00006                           EXTEND
001221:    5401           15405                           BZF      +4
001222:
001223:    5402           00006                           EXTEND                                         #  IF CLOCK RIPPLED BEFORE, IT WONT NOW.
001224:    5403           00004                           READ     LOSCALAR
001225:    5404           54001                           TS       L
001226:
001227:    5405           47632                 +4        CS       POSMAX                                #  IF LOW PART CONTAINS SOMETHING LESS THAN
001228:    5406           60001                           AD       L                                     #  POSMAX, THE HIGH PART CAN BE READ SAFELY
001229:    5407           00006                           EXTEND
001230:    5410           15373                           BZF      FINETIME   +1                         #  TRY AGAIN - CONDITION WILL DISAPPEAR.
001231:
001232:    5411           00006                           EXTEND
001233:    5412           00003                           READ     HISCALAR
001234:    5413           00002                           TC       Q
001235:
001236:    5414                        ENDIMUF            =
001237:
001238: 14,3705                                           SETLOC   OMEG/MS    +2
001239: 14,3705           04063        REDYTORK           TC       BANKCALL
001240: 14,3706           26716                           CADR     IMUSTALL
001241: 14,3707           12752                           TCF      ENDTEST
001242:
001243: 14,3710           02734                           TC       OGCZERO
001244:
001245: 14,3711           06000                           TC       INTPRET
001246: 14,3712           77634                           CALL
001247: 14,3713           30412                                    ERTHRVSE                              #  SETS UP EARTHRATE ANGLES AND TIME
001248: 14,3714           77776                           EXIT
001249: 14,3715           31620                           CA       OPTNREG                               #  INITIALIZE CDUNDX FOR PULSE CATCHING
001250: 14,3716           67662                           AD       NEG2                                  #  C(K) WAS 4 2 1 NOW C(A) IS 2 0 -1
001251: 14,3717           55617                           TS       GYTOBETQ                              #  C(K) = 2,0,-1 FOR  X,Y,Z.
001252: 14,3720           00006                           EXTEND
001253: 14,3721           13724                           BZF      +3
001254: 14,3722           37651                           CAF      TWO
001255: 14,3723           03725                           TC       +2
001256: 14,3724           37652                           CAF      ONE
001257: 14,3725           55673                           TS       CDUNDX                                #  C(K) = 1 FOR Y, 2 FOR Z CDU SELECT
001258: 14,3726           04063                           TC       BANKCALL
001259: 14,3727           36552                           CADR     ENABLE
001260:
001261:


001265:
001266: 14,3730           37657        ZEROERS1           CAF      ZERO
001267: 14,3731           54026                           TS       TIME3
001268: 14,3732           33734                           CAF      OCT27
001269: 14,3733           13622                           TCF      ZEROERAS   +2
001270:
001271: 14,3734           00027        OCT27              OCT      27
001272:
001273: 14,3735                        ENDIMUS1           EQUALS

End of include-file IMU_PERFORMANCE_TESTS_1.agc.  Parent file is MAIN.agc


