
Source Code


000002:                                                                                                  ## Copyright:   Public domain.
000003:                                                                                                  ## Filename:    IMU_MODE_SWITCHING_ROUTINES.agc
000004:                                                                                                  ## Purpose:     A section of Aurora 88.
000005:                                                                                                  ##              It is part of the reconstructed source code for the final
000006:                                                                                                  ##              release of the Lunar Module system test software. No original
000007:                                                                                                  ##              listings of this program are available; instead, this file
000008:                                                                                                  ##              was created via disassembly of dumps of Aurora 88 core rope
000009:                                                                                                  ##              modules and comparison with other AGC programs.
000010:                                                                                                  ## Assembler:   yaYUL
000011:                                                                                                  ## Contact:     Ron Burkey <info@sandroid.org>.
000012:                                                                                                  ## Website:     www.ibiblio.org/apollo/index.html
000013:                                                                                                  ## Mod history: 2023-06-30 MAS  Created from Aurora 12.
000014:                                                                                                  ##              2023-07-12 MAS  Updated for Aurora 88.
000015:
000016:
000017:    4660                                           SETLOC   ENDT4FF
000018:    4660  E3,1451                                  EBANK=   COMMAND
000019:
000020:                                                                                                  #  FIXED-FIXED ROUTINES.
000021:    4660           37657        ZEROICDU           CAF      ZERO                                  #  ZERO ICDU COUNTERS.
000022:    4661           54032                           TS       CDUX
000023:    4662           54033                           TS       CDUY
000024:    4663           54034                           TS       CDUZ
000025:    4664           00002                           TC       Q
000026:
000027:    4665           00454        3SECS              DEC      300        B-14
000028:
000029:    4666                        ENDIMODF           EQUALS
000030:
000031:                                                                                                  #  IMU ZEROING ROUTINE.
000032:
000033: 13,2000                                           BANK     13
000034:
000035: 13,2000           03435        IMUZERO            TC       IMUZERO1                              #  ROUTINE TO ZERO ICDUS.
000036: 13,2001           47643        IMUZEROA           CS       IMUSEFLG                              #  SET INDICATION THAT A MISSION OR TEST
000037: 13,2002           70061                           MASK     STATE                                 #  PROGRAM IS USING THE IMU.
000038: 13,2003           67643                           AD       IMUSEFLG
000039: 13,2004           54061                           TS       STATE
000040:
000041: 13,2005           02650                           TC       CAGETSTQ                              #  IF IMU COMING UP, TURN-ON PROGRAM WILL
000042: 13,2006           12033                           TCF      MODEEXIT                              #  DO ALL THE WORK.
000043:
000044: 13,2007           42743                           CS       BITS3&4                               #  INHIBIT ICDUFAIL AND IMUFAIL (IN CASE WE
000045: 13,2010           70367                           MASK     IMODES30                              #  JUST CAME OUT OF COARSE ALIGN).
000046: 13,2011           62743                           AD       BITS3&4
000047: 13,2012           54367                           TS       IMODES30
000048:
000049: 13,2013           42744                           CS       BITS4&6                               #  SEND ZERO ENCODE WITH COARSE AND ERROR
000050: 13,2014           00006                           EXTEND                                         #  COUNTER DISABLED.
000051: 13,2015           03012                           WAND     12
000052:
000053: 13,2016           03446                           TC       IMUZEROB
000054: 13,2017           00006        IMUZEROC           EXTEND
000055: 13,2020           05012                           WOR      12
000056:
000057: 13,2021           37645                           CAF      BIT6                                  #  WAIT 320 MS TO GIVE AGS ADEQUATE TIME TO
000058: 13,2022           04451                           TC       WAITLIST                              #  RECEIVE ITS PULSE TRAIN.
000059: 13,2023           02035 26003                     2CADR    IMUZERO2
000060:
000061: 13,2025           40367                           CS       IMODES30                              #  SEE IF IMU OPERATING AND ALARM IF NOT.
000062: 13,2026           77642                           MASK     BIT9
000063: 13,2027           10000                           CCS      A
000064: 13,2030           12033                           TCF      MODEEXIT
000065:
000066: 13,2031           05315                           TC       ALARM
000067: 13,2032           00210                           OCT      210
000068:
000069: 13,2033           00003        MODEEXIT           RELINT                                         #  GENERAL MODE-SWITCHING EXIT.
000070: 13,2034           14076                           TCF      SWRETURN
000071:
000072: 13,2035           02650        IMUZERO2           TC       CAGETSTQ                              #  POSSIBLY SWITCH TO TURN-ON PROGRAM.
000073: 13,2036           14505                           TCF      TASKOVER
000074:
000075: 13,2037           04660                           TC       ZEROICDU                              #  ZERO COUNTERS.
000076: 13,2040           47646                           CS       BIT5                                  #  REMOVE ZERO DISCRETE.
000077: 13,2041           00006                           EXTEND
000078: 13,2042           03012                           WAND     12
000079:
000080: 13,2043           33434                           CAF      4SECSM                                #  WAIT FOR COUNTERS TO SYNCRONIZE.
000081: 13,2044           04472                           TC       VARDELAY
000082:
000083: 13,2045           02650        IMUZERO3           TC       CAGETSTQ
000084: 13,2046           14505                           TCF      TASKOVER
000085:
000086: 13,2047           42743                           CS       BITS3&4                               #  REMOVE IMUFAIL AND ICDUFAIL INHIBIT.
000087: 13,2050           70367                           MASK     IMODES30
000088: 13,2051           54367                           TS       IMODES30
000089:
000090: 13,2052           04131                           TC       IBNKCALL                              #  SET ISS WARNING IF EITHER OF ABOVE ARE
000091: 13,2053           25367                           CADR     SETISSW                               #  PRESENT.
000092:
000093: 13,2054           12633                           TCF      ENDIMU
000094:
000095:                                                                                                  #  IMU COARSE ALIGN MODE.
000096:
000097: 13,2055           00004        IMUCOARS           INHINT
000098: 13,2056           03451                           TC       SETCOARS
000099: 13,2057           12065                           TCF      IMUCOAR1
000100: 13,2060           12061                           NOOP
000101:
000102: 13,2061           47647                           CS       BIT4                                  #  INHIBIT IMU FAIL.
000103: 13,2062           70367                           MASK     IMODES30
000104: 13,2063           67647                           AD       BIT4
000105: 13,2064           54367                           TS       IMODES30
000106:
000107: 13,2065           36162        IMUCOAR1           CAF      SIX
000108: 13,2066           04451                           TC       WAITLIST
000109: 13,2067           02072 26003                     2CADR    COARS
000110:
000111: 13,2071           12033                           TCF      MODEEXIT
000112:
000113: 13,2072           02643        COARS              TC       CAGETEST
000114: 13,2073           37645                           CAF      BIT6                                  #  ENABLE ALL THREE ISS CDU ERROR COUNTERS
000115: 13,2074           00006                           EXTEND
000116: 13,2075           05012                           WOR      CHAN12
000117:
000118: 13,2076           37651                           CAF      TWO                                   #  SET CDU INDICATOR
000119: 13,2077           55454        COARS1             TS       CDUIND
000120:
000121: 13,2100           51454                           INDEX    CDUIND                                #  COMPUTE THETAD - THETAA IN 1:S
000122: 13,2101           30400                           CA       THETAD                                #    COMPLEMENT FORM
000123: 13,2102           00006                           EXTEND
000124: 13,2103           51454                           INDEX    CDUIND
000125: 13,2104           20032                           MSU      CDUX
000126: 13,2105           00006                           EXTEND
000127: 13,2106           77636                           MP       BIT13                                 #  SHIFT RIGHT 2
000128: 13,2107           56001                           XCH      L                                     #  ROUND
000129: 13,2110           60000                           DOUBLE
000130: 13,2111           54065                           TS       ITEMP1
000131: 13,2112           12114                           TCF      +2
000132: 13,2113           26001                           ADS      L
000133:
000134: 13,2114           51454                           INDEX    CDUIND                                #  DIFFERENCE TO BE COMPUTED
000135: 13,2115           23451                           LXCH     COMMAND
000136: 13,2116           11454                           CCS      CDUIND
000137: 13,2117           02077                           TC       COARS1
000138:
000139: 13,2120           37651                           CAF      TWO                                   #  MINIMUM OF 4 MS WAIT
000140: 13,2121           04472                           TC       VARDELAY
000141:
000142: 13,2122           02643        COARS2             TC       CAGETEST                              #  DONT CONTINUE IF CAGED.
000143: 13,2123           54065                           TS       ITEMP1                                #  SETS TO +0.
000144: 13,2124           37651                           CAF      TWO                                   #  SET CDU INDICATOR
000145: 13,2125           55454                 +3        TS       CDUIND
000146:
000147: 13,2126           51454                           INDEX    CDUIND
000148: 13,2127           11451                           CCS      COMMAND                               #  NUMBER OF PULSES REQUIRED
000149: 13,2130           02134                           TC       COMPOS                                #  GREATER THAN MAX ALLOWED
000150: 13,2131           02143                           TC       NEXTCDU    +1
000151: 13,2132           02206                           TC       COMNEG
000152: 13,2133           02143                           TC       NEXTCDU    +1
000153:
000154: 13,2134           62747        COMPOS             AD       -COMMAX                               #  COMMAX = MAX NUMBER OF PULSES ALLOWED
000155: 13,2135           00006                           EXTEND                                         #    MINUS ONE
000156: 13,2136           62216                           BZMF     COMZERO
000157: 13,2137           51454                           INDEX    CDUIND
000158: 13,2140           55451                           TS       COMMAND                               #  REDUCE COMMAND BY MAX NUMBER OF PULSES
000159: 13,2141           42750                           CS       -COMMAX-                              #    ALLOWED
000160:
000161: 13,2142           24065        NEXTCDU            INCR     ITEMP1
000162: 13,2143           51454                           INDEX    CDUIND
000163: 13,2144           54050                           TS       CDUXCMD                               #  SET UP COMMAND REGISTER.
000164:
000165: 13,2145           11454                           CCS      CDUIND
000166: 13,2146           02125                           TC       COARS2     +3
000167:
000168: 13,2147           10065                           CCS      ITEMP1                                #  SEE IF ANY PULSES TO GO OUT.
000169: 13,2150           12222                           TCF      SENDPULS
000170:
000171: 13,2151           04467                           TC       FIXDELAY                              #  WAIT FOR GIMBALS TO SETTLE.
000172: 13,2152           00226                           DEC      150        B-14
000173:
000174: 13,2153           37651                           CAF      TWO                                   #  AT END OF COMMAND, CHECK TO SEE THAT
000175: 13,2154           54065        CHKCORS            TS       ITEMP1                                #  GIMBALS ARE WITHIN 2 DEGREES OF THETAD.
000176: 13,2155           50000                           INDEX    A
000177: 13,2156           30032                           CA       CDUX
000178: 13,2157           00006                           EXTEND
000179: 13,2160           50065                           INDEX    ITEMP1
000180: 13,2161           20400                           MSU      THETAD
000181: 13,2162           10000                           CCS      A
000182: 13,2163           12177                           TCF      COARSERR
000183: 13,2164           12166                           TCF      CORSCHK2
000184: 13,2165           12177                           TCF      COARSERR
000185:
000186: 13,2166           10065        CORSCHK2           CCS      ITEMP1
000187: 13,2167           12154                           TCF      CHKCORS
000188: 13,2170           55451                           TS       GCOMP                                 #  ZERO GYRO COMPENSATION REGISTERS IN
000189: 13,2171           55452                           TS       GCOMP      +1                         #  PREPARATION FOR COMPENSATION.
000190: 13,2172           55453                           TS       GCOMP      +2
000191: 13,2173           55454                           TS       GCOMP      +3
000192: 13,2174           55455                           TS       GCOMP      +4
000193: 13,2175           55456                           TS       GCOMP      +5
000194:
000195: 13,2176           12633                           TCF      ENDIMU                                #  END OF COARSE ALIGNMENT.
000196:
000197: 13,2177           62205        COARSERR           AD       COARSTOL                              #  2 DEGREES.
000198: 13,2200           00006                           EXTEND
000199: 13,2201           62166                           BZMF     CORSCHK2
000200:
000201: 13,2202           05315                           TC       ALARM                                 #  COARSE ALIGN ERROR.
000202: 13,2203           00211                           OCT      211
000203:
000204: 13,2204           12641                           TCF      IMUBAD
000205:
000206: 13,2205           77511        COARSTOL           DEC      -.01111                               #  2 DEGREES SCALED AT HALF-REVOLUTIONS.
000207:
000208: 13,2206           62747        COMNEG             AD       -COMMAX
000209: 13,2207           00006                           EXTEND
000210: 13,2210           62216                           BZMF     COMZERO
000211: 13,2211           40000                           COM
000212: 13,2212           51454                           INDEX    CDUIND
000213: 13,2213           55451                           TS       COMMAND
000214: 13,2214           32750                           CA       -COMMAX-
000215: 13,2215           02142                           TC       NEXTCDU
000216:
000217: 13,2216           37657        COMZERO            CAF      ZERO
000218: 13,2217           51454                           INDEX    CDUIND
000219: 13,2220           57451                           XCH      COMMAND
000220: 13,2221           02142                           TC       NEXTCDU
000221:
000222: 13,2222           32746        SENDPULS           CAF      13,14,15
000223: 13,2223           00006                           EXTEND
000224: 13,2224           05014                           WOR      CHAN14
000225: 13,2225           32751                           CAF      600MS
000226: 13,2226           12121                           TCF      COARS2     -1                         #  AND THEN TO VARDELAY.
000227:
000228:                                                                                                  #  IMU FINE ALIGN MODE SWITCH.
000229:
000230: 13,2227           00004        IMUFINE            INHINT
000231: 13,2230           02655                           TC       CAGETSTJ                              #  SEE IF IMU BEING CAGED.
000232:
000233: 13,2231           42745                           CS       BITS4-6                               #  RESET ZERO, COARSE, AND ECTR ENABLE.
000234: 13,2232           00006                           EXTEND
000235: 13,2233           03012                           WAND     12
000236:
000237: 13,2234           03466                           TC       IMUFINE1                              #  IMU FAIL WAS INHIBITED DURING THE
000238: 13,2235           04451        IMUFINE2           TC       WAITLIST                              #  PRESUMABLY PRECEDING COARSE ALIGN.  LEAVE
000239: 13,2236           02247 26003                     2CADR    IFAILOK                               #  IT ON FOR THE FIRST 5 SECS OF FINE ALIGN
000240:
000241: 13,2240           32752                           CAF      90SEC                                 #  GYRO RE-CENTERING TIME.
000242: 13,2241           04451                           TC       WAITLIST
000243: 13,2242           02245 26003                     2CADR    IMUFINED
000244:
000245: 13,2244           12033                           TCF      MODEEXIT
000246:
000247: 13,2245           02643        IMUFINED           TC       CAGETEST                              #  SEE THAT NO ONE HAS CAGED THE IMU.
000248: 13,2246           12633                           TCF      ENDIMU
000249:
000250: 13,2247           02650        IFAILOK            TC       CAGETSTQ                              #  ENABLE IMU FAIL UNLESS IMU BEING CAGED.
000251: 13,2250           14505                           TCF      TASKOVER                              #  IT IS.
000252:
000253: 13,2251           37647                           CAF      BIT4                                  #  DONT RESET IMU FAIL INHIBIT IF SOMEONE
000254: 13,2252           00006                           EXTEND                                         #  HAS GONE INTO COARSE ALIGN.
000255: 13,2253           02012                           RAND     12
000256: 13,2254           10000                           CCS      A
000257: 13,2255           14505                           TCF      TASKOVER
000258:
000259: 13,2256           47647                           CS       BIT4
000260: 13,2257           70367        PFAILOK2           MASK     IMODES30
000261: 13,2260           54367                           TS       IMODES30
000262: 13,2261           14505                           TCF      TASKOVER
000263:
000264: 13,2262           02650        PFAILOK            TC       CAGETSTQ                              #  ENABLE PIP FAIL PROG ALARM.
000265: 13,2263           14505                           TCF      TASKOVER
000266:
000267: 13,2264           03471                           TC       PFAILOK1
000268: 13,2265           00002                           TC       Q
000269:
000270:                                                                                                  #  ROUTINES TO INITIATE AND TERMINATE PROGRAM USE OF THE PIPAS. NO IMUSTALL REQUIRED IN EITHER CASE.
000271:
000272: 13,2266           02650        PIPUSE             TC       CAGETSTQ                              #  DONT ENABLE PIPA FAIL IF IMU BEING CAGED
000273: 13,2267           14076                           TCF      SWRETURN
000274:
000275: 13,2270           00004                           INHINT
000276: 13,2271           37657                           CAF      ZERO                                  #  ZERO COUNTERS.
000277: 13,2272           54037                           TS       PIPAX
000278: 13,2273           54040                           TS       PIPAY
000279: 13,2274           54041                           TS       PIPAZ
000280:
000281: 13,2275           47652                           CS       BIT1                                  #  IF PIPA FAILS FROM NOW ON (UNTIL
000282: 13,2276           70367                           MASK     IMODES30                              #  PIPFREE), LIGHT ISS WARNING.
000283: 13,2277           54367                           TS       IMODES30
000284:
000285: 13,2300           04131        PIPFREE2           TC       IBNKCALL                              #  ISS WARNING MIGHT COME ON NOW.
000286: 13,2301           25367                           CADR     SETISSW                               #  (OR GO OFF ON PIPFREE).
000287:
000288: 13,2302           12033                           TCF      MODEEXIT
000289:
000290: 13,2303           00004        PIPFREE            INHINT                                         #  PROGRAM DONE WITH PIPAS. DONT LIGHT
000291: 13,2304           47652                           CS       BIT1                                  #  ISS WARNING.
000292: 13,2305           70367                           MASK     IMODES30
000293: 13,2306           67652                           AD       BIT1
000294: 13,2307           54367                           TS       IMODES30
000295:
000296: 13,2310           77641                           MASK     BIT10                                 #  IF PIP FAIL ON, DO PROG ALSRM AND RESET
000297: 13,2311           10000                           CCS      A                                     #  ISS WARNING.
000298: 13,2312           12033                           TCF      MODEEXIT
000299:
000300: 13,2313           05315                           TC       ALARM
000301: 13,2314           00212                           OCT      212
000302:
000303: 13,2315           00004                           INHINT
000304:
000305: 13,2316           12300                           TCF      PIPFREE2
000306:
000307:                                                                                                  #           THE FOLLOWING ROUTINE TORQUES THE IRIGS ACCORDING TO DOUBLE PRECISION INPUTS IN THE SIX REGISTERS
000308:                                                                                                  #  BEGINNING AT THE ECADR ARRIVING IN A. THE MINIMUM SIZE OF ANY PULSE TRAIN IS 16 PULSES (.25 CDU COUNTS). THE
000309:                                                                                                  #  UNSENT PORTION OF THE COMMAND IS LEFT INTACT IN THE INPUT COMMAND REGISTERS.
000310:
000311: 13,2317  E3,1400                                  EBANK=   1400                                  #  VARIABLE, ACTUALLY.
000312:
000313: 13,2317           54145        IMUPULSE           TS       MPAC       +5                         #  SAVE ARRIVING ECADR.
000314: 13,2320           02655                           TC       CAGETSTJ                              #  DONT PROCEED IF IMU BEING CAGED.
000315:
000316: 13,2321           10357                           CCS      LGYRO                                 #  SEE IF GYROS BUSY.
000317: 13,2322           02364                           TC       GYROBUSY                              #  SLEEP.
000318:
000319: 13,2323           54142                           TS       MPAC       +2
000320: 13,2324           37645                           CAF      BIT6                                  #  ENABLE THE POWER SUPPLY.
000321: 13,2325           00006                           EXTEND
000322: 13,2326           05014                           WOR      14
000323:
000324: 13,2327           37650                           CAF      FOUR
000325: 13,2330           00004        GWAKE2             INHINT                                         #  (IF A JOB WAS PUT TO SLEEP, THE POWER
000326: 13,2331           04451                           TC       WAITLIST                              #  SUPPLY IS LEFT ON BY THE WAKING JOB).
000327: 13,2332           02402 26003                     2CADR    STRTGYRO
000328:
000329: 13,2334           30145                           CA       MPAC       +5                         #  SET UP EBANK, SAVING CALLER'S EBANK FOR
000330: 13,2335           56003                           XCH      EBANK                                 #  RESTORATION ON RETURN.
000331: 13,2336           56145                           XCH      MPAC       +5
000332: 13,2337           54357                           TS       LGYRO                                 #  RESERVES GYROS.
000333: 13,2340           75137                           MASK     LOW8
000334: 13,2341           54065                           TS       ITEMP1
000335:
000336: 13,2342           37651                           CAF      TWO                                   #  FORCE SIGN AGREEMENT ON INPUTS.
000337: 13,2343           54143        GYROAGRE           TS       MPAC       +3
000338: 13,2344           60000                           DOUBLE
000339: 13,2345           60065                           AD       ITEMP1
000340: 13,2346           54144                           TS       MPAC       +4
000341: 13,2347           00006                           EXTEND
000342: 13,2350           50000                           INDEX    A
000343: 13,2351           31401                           DCA      1400
000344: 13,2352           52141                           DXCH     MPAC
000345: 13,2353           07230                           TC       TPAGREE
000346: 13,2354           52141                           DXCH     MPAC
000347: 13,2355           50144                           INDEX    MPAC       +4
000348: 13,2356           53401                           DXCH     1400
000349:
000350: 13,2357           10143                           CCS      MPAC       +3
000351: 13,2360           12343                           TCF      GYROAGRE
000352:
000353: 13,2361           30145                           CA       MPAC       +5                         #  RESTORE CALLER'S EBANK.
000354: 13,2362           54003                           TS       EBANK
000355: 13,2363           12033                           TCF      MODEEXIT
000356:
000357:                                                                                                  #  ROUTINES TO ALLOW TORQUING BY ONLY ONE JOB AT A TIME.
000358:
000359: 13,2364           00006        GYROBUSY           EXTEND                                         #  SAVE RETURN 2FCADR.
000360: 13,2365           30120                           DCA      BUF2
000361: 13,2366           52141                           DXCH     MPAC
000362: 13,2367           32401        REGSLEEP           CAF      LGWAKE
000363: 13,2370           14331                           TCF      JOBSLEEP
000364:
000365: 13,2371           10357        GWAKE              CCS      LGYRO                                 #  WHEN AWAKENED, SEE IF GYROS STILL BUSY.
000366: 13,2372           12367                           TCF      REGSLEEP                              #  IF SO, SLEEP SOME MORE.
000367:
000368: 13,2373           54142                           TS       MPAC       +2
000369: 13,2374           00006                           EXTEND
000370: 13,2375           30141                           DCA      MPAC
000371: 13,2376           52120                           DXCH     BUF2                                  #  RESTORE SWRETURN INFO.
000372: 13,2377           37652                           CAF      ONE
000373: 13,2400           12330                           TCF      GWAKE2
000374:
000375: 13,2401           26371        LGWAKE             CADR     GWAKE
000376:
000377:                                                                                                  #  GYRO-TORQUING WAITLIST TASKS.
000378:
000379: 13,2402           42630        STRTGYRO           CS       GDESELCT                              #  DE-SELECT LAST GYRO.
000380: 13,2403           00006                           EXTEND
000381: 13,2404           03014                           WAND     14
000382:
000383: 13,2405           02643                           TC       CAGETEST
000384:
000385: 13,2406           30357        STRTGYR2           CA       LGYRO                                 #  JUMP ON PHASE COUNTER IN BITS 13-14.
000386: 13,2407           00006                           EXTEND
000387: 13,2410           77647                           MP       BIT4
000388: 13,2411           50000                           INDEX    A
000389: 13,2412           12413                           TCF      +1
000390: 13,2413           02442                           TC       GSELECT                               #  =0. DO Y GYRO.
000391: 13,2414           00202                           OCT      00202
000392:
000393: 13,2415           02442                           TC       GSELECT                               #  =1. DO Z GYRO.
000394: 13,2416           00302                           OCT      00302
000395:
000396: 13,2417           02440                           TC       GSELECT    -2                         #  =2. DO X GYRO.
000397: 13,2420           00100                           OCT      00100
000398:
000399: 13,2421           37657                           CAF      ZERO                                  #  =3. DONE
000400: 13,2422           54357                           TS       LGYRO
000401: 13,2423           32401                           CAF      LGWAKE                                #  WAKE A POSSIBLE SLEEPING JOB.
000402: 13,2424           04335                           TC       JOBWAKE
000403:
000404: 13,2425           37651                           CAF      BIT2                                  #  DONT RESET POWER SUPPLY IF BIT SET
000405: 13,2426           70370                           MASK     IMODES33                              #  (ONLY DURING GYRO TORQUE SCALE FACTOR
000406: 13,2427           10000                           CCS      A                                     #  TEST).
000407: 13,2430           12437                           TCF      NORESET
000408:
000409: 13,2431           10071                           CCS      LOCCTR                                #  IF A JOB WAS AWAKENED, DONT RESET GYRO
000410: 13,2432           12437                           TCF      NORESET                               #  ENABLE.
000411:
000412: 13,2433           12437                           TCF      NORESET
000413:
000414: 13,2434           47645                           CS       BIT6                                  #  IF NO JOB AWAKENED, RESET GYRO ENABLE.
000415: 13,2435           00006                           EXTEND
000416: 13,2436           03014                           WAND     14
000417:
000418: 13,2437           12245        NORESET            TCF      IMUFINED
000419:
000420: 13,2440           47650                 -2        CS       FOUR                                  #  SPECIAL ENTRY TO REGRESS LGYRO FOR X.
000421: 13,2441           26357                           ADS      LGYRO
000422:
000423: 13,2442           50002        GSELECT            INDEX    Q                                     #  SELECT GYRO.
000424: 13,2443           30000                           CAF      0                                     #  PACKED WORD CONTAINS GYRO SELECT BITS
000425: 13,2444           54071                           TS       ITEMP4                                #  AND INCREMENT TO LGYRO.
000426: 13,2445           77656                           MASK     SEVEN
000427: 13,2446           67636                           AD       BIT13
000428: 13,2447           26357                           ADS      LGYRO
000429: 13,2450           54003                           TS       EBANK
000430: 13,2451           75137                           MASK     LOW8
000431: 13,2452           54065                           TS       ITEMP1
000432:
000433: 13,2453           47656                           CS       SEVEN
000434: 13,2454           70071                           MASK     ITEMP4
000435: 13,2455           54071                           TS       ITEMP4
000436:
000437: 13,2456           00006                           EXTEND                                         #  MOVE DP COMMAND TO RUPTREGS FOR TESTING.
000438: 13,2457           50065                           INDEX    ITEMP1
000439: 13,2460           31401                           DCA      1400
000440: 13,2461           52075                           DXCH     RUPTREG1
000441:
000442: 13,2462           10074                           CCS      RUPTREG1
000443: 13,2463           12476                           TCF      MAJ+
000444: 13,2464           12466                           TCF      +2
000445: 13,2465           12611                           TCF      MAJ-
000446:
000447: 13,2466           10075                           CCS      RUPTREG2
000448: 13,2467           12473                           TCF      MIN+
000449: 13,2470           12406                           TCF      STRTGYR2
000450: 13,2471           12606                           TCF      MIN-
000451: 13,2472           12406                           TCF      STRTGYR2
000452:
000453: 13,2473           62527        MIN+               AD       -GYROMIN                              #  SMALL POSITIVE COMMAND. SEE IF AT LEAST
000454: 13,2474           00006                           EXTEND                                         #  16 GYRO PULSES.
000455: 13,2475           62406                           BZMF     STRTGYR2
000456:
000457: 13,2476           00006        MAJ+               EXTEND                                         #  DEFINITE POSITIVE OUTPUT.
000458: 13,2477           32632                           DCA      GYROFRAC
000459: 13,2500           20075                           DAS      RUPTREG1
000460:
000461: 13,2501           30071                           CA       ITEMP4                                #  SELECT POSITIVE TORQUING FOR THIS GYRO.
000462: 13,2502           00006                           EXTEND
000463: 13,2503           05014                           WOR      14
000464:
000465: 13,2504           36027                           CAF      LOW7                                  #  LEAVE NUMBER OF POSSIBLE 8192 AUGMENTS
000466: 13,2505           70075                           MASK     RUPTREG2                              #  TO INITIAL COMMAND IN MAJOR PART OF LONG
000467: 13,2506           56075                           XCH      RUPTREG2                              #  TERM STORAGE AND TRUNCATED FRACTION
000468: 13,2507           00006        GMERGE             EXTEND                                         #  IN MINOR PART. THE MAJOR PART WILL BE
000469: 13,2510           77643                           MP       BIT8                                  #  COUNTED DOWN TO ZERO IN THE COURSE OF
000470: 13,2511           54066                           TS       ITEMP2                                #  PUTTING OUT THE ENTIRE COMMAND.
000471: 13,2512           30074                           CA       RUPTREG1
000472: 13,2513           00006                           EXTEND
000473: 13,2514           77642                           MP       BIT9
000474: 13,2515           54074                           TS       RUPTREG1
000475: 13,2516           30001                           CA       L
000476: 13,2517           00006                           EXTEND
000477: 13,2520           77635                           MP       BIT14
000478: 13,2521           26066                           ADS      ITEMP2                                #  INITIAL COMMAND.
000479:
000480: 13,2522           00006                           EXTEND                                         #  SEE IF MORE THAN ONE PULSE TRAIN NEEDED
000481: 13,2523           30075                           DCA      RUPTREG1                              #  (MORE THAN 16383 PULSES).
000482: 13,2524           67661                           AD       MINUS1
000483: 13,2525           10000                           CCS      A
000484: 13,2526           12552                           TCF      LONGGYRO
000485: 13,2527           77600        -GYROMIN           OCT      -177                                  #  MAY BE ADJUSTED TO SPECIFY MINIMUM CMD.
000486:
000487: 13,2530           12534                           TCF      +4
000488:
000489: 13,2531           37635                           CAF      BIT14
000490: 13,2532           26066                           ADS      ITEMP2
000491: 13,2533           37657                           CAF      ZERO
000492:
000493: 13,2534           50065                 +4        INDEX    ITEMP1
000494: 13,2535           53401                           DXCH     1400
000495: 13,2536           30066                           CA       ITEMP2                                #  ENTIRE COMMAND.
000496: 13,2537           54047        LASTSEG            TS       GYROCMD
000497: 13,2540           00006                           EXTEND
000498: 13,2541           77641                           MP       BIT10                                 #  WAITLIST DT
000499: 13,2542           66165                           AD       THREE                                 #  TRUNCATION AND PHASE UNCERTAINTIES.
000500: 13,2543           04451                           TC       WAITLIST
000501: 13,2544           02402 26003                     2CADR    STRTGYRO
000502:
000503: 13,2546           37641        GYROEXIT           CAF      BIT10                                 #  TURN ON GYRO ACTIVITY TO START TRAIN.
000504: 13,2547           00006                           EXTEND
000505: 13,2550           05014                           WOR      14
000506: 13,2551           14505                           TCF      TASKOVER
000507:
000508: 13,2552           50065        LONGGYRO           INDEX    ITEMP1
000509: 13,2553           53401                           DXCH     1400                                  #  INITIAL COMMAND OUT PLUS N AUGMENTS OF
000510: 13,2554           37635                           CAF      BIT14                                 #  8192. INITIAL COMMAND IS AT LEAST 8192.
000511: 13,2555           60066                           AD       ITEMP2
000512: 13,2556           54047                           TS       GYROCMD
000513:
000514: 13,2557           00006        AUG3               EXTEND                                         #  GET WAITLIST DT TO TIME WHEN TRAIN IS
000515: 13,2560           77641                           MP       BIT10                                 #  ALMOST OUT.
000516: 13,2561           67663                           AD       NEG3
000517: 13,2562           04451                           TC       WAITLIST
000518: 13,2563           02566 26003                     2CADR    8192AUG
000519:
000520: 13,2565           12546                           TCF      GYROEXIT
000521:
000522: 13,2566           02643        8192AUG            TC       CAGETEST
000523:
000524: 13,2567           30357                           CA       LGYRO                                 #  ADD 8192 PULSES TO GYROCMD
000525: 13,2570           54003                           TS       EBANK
000526: 13,2571           75137                           MASK     LOW8
000527: 13,2572           54065                           TS       ITEMP1
000528:
000529: 13,2573           50065                           INDEX    ITEMP1                                #  SEE IF THIS IS THE LAST AUG.
000530: 13,2574           11400                           CCS      1400
000531: 13,2575           12601                           TCF      AUG2                                  #  MORE TO COME.
000532:
000533: 13,2576           37635                           CAF      BIT14
000534: 13,2577           26047                           ADS      GYROCMD
000535: 13,2600           12540                           TCF      LASTSEG    +1
000536:
000537: 13,2601           50065        AUG2               INDEX    ITEMP1
000538: 13,2602           55400                           TS       1400
000539: 13,2603           37635                           CAF      BIT14
000540: 13,2604           26047                           ADS      GYROCMD
000541: 13,2605           12557                           TCF      AUG3                                  #  COMPUTE DT.
000542:
000543: 13,2606           62527        MIN-               AD       -GYROMIN                              #  POSSIBLE NEGATIVE OUTPUT.
000544: 13,2607           00006                           EXTEND
000545: 13,2610           62406                           BZMF     STRTGYR2
000546:
000547: 13,2611           00006        MAJ-               EXTEND                                         #  DEFINITE NEGATIVE OUTPUT.
000548: 13,2612           42632                           DCS      GYROFRAC
000549: 13,2613           20075                           DAS      RUPTREG1
000550:
000551: 13,2614           30071                           CA       ITEMP4                                #  SELECT NEGATIVE TORQUING FOR THIS GYRO.
000552: 13,2615           67642                           AD       BIT9
000553: 13,2616           00006                           EXTEND
000554: 13,2617           05014                           WOR      14
000555:
000556: 13,2620           40074                           CS       RUPTREG1                              #  SET UP RUPTREGS TO FALL INTO GMERGE.
000557: 13,2621           54074                           TS       RUPTREG1                              #  ALL NUMBERS PUT INTO GYROCMD ARE
000558: 13,2622           40075                           CS       RUPTREG2                              #  POSITIVE - BIT9 OF CHAN 14 DETERMINES
000559: 13,2623           76027                           MASK     LOW7                                  #  THE SIGN OF THE COMMAND.
000560: 13,2624           40000                           COM
000561: 13,2625           56075                           XCH      RUPTREG2
000562: 13,2626           40000                           COM
000563: 13,2627           12507                           TCF      GMERGE
000564:
000565: 13,2630           01700        GDESELCT           OCT      1700                                  #  TURN OFF SELECT AND ACTIVITY BITS.
000566:
000567: 13,2631           00000 00034  GYROFRAC           2DEC     .215       B-21
000568:
000569:                                                                                                  #  IMU MODE SWITCHING ROUTINES COME HERE WHEN ACTION COMPLETE.
000570:
000571: 13,2633           00006        ENDIMU             EXTEND                                         #  MODE IS BAD IF CAGE HAS OCCURED OR IF
000572: 13,2634           00011                           READ     11                                    #  ISS WARNING IS ON.
000573: 13,2635           77652                           MASK     BIT1
000574: 13,2636           10000                           CCS      A
000575: 13,2637           12641                           TCF      IMUBAD
000576:
000577: 13,2640           12667        IMUGOOD            TCF      GOODEND                               #  WITH C(A) = 0.
000578:
000579: 13,2641           37657        IMUBAD             CAF      ZERO
000580: 13,2642           12664                           TCF      BADEND
000581:
000582: 13,2643           37645        CAGETEST           CAF      BIT6                                  #  SUBROUTINE TO TERMINATE IMU MODE
000583: 13,2644           70367                           MASK     IMODES30                              #  SWITCH IF IMU HAS BEEN CAGED.
000584: 13,2645           10000                           CCS      A
000585: 13,2646           12641                           TCF      IMUBAD                                #  DIRECTLY.
000586: 13,2647           00002                           TC       Q                                     #  WITH C(A) = +0.
000587:
000588: 13,2650           40367        CAGETSTQ           CS       IMODES30                              #  SKIP IF IMU NOT BEING CAGED.
000589: 13,2651           77645                           MASK     BIT6
000590: 13,2652           10000                           CCS      A
000591: 13,2653           24002                           INCR     Q
000592: 13,2654           00002                           TC       Q
000593:
000594: 13,2655           40367        CAGETSTJ           CS       IMODES30                              #  IF DURING MODE SWITCH INITIALIZATION
000595: 13,2656           77645                           MASK     BIT6                                  #  IT IS FOUND THAT THE IMU IS BEING CAGED,
000596: 13,2657           10000                           CCS      A                                     #  SET IMUCADR TO -0 TO INDICATE OPERATION
000597: 13,2660           00002                           TC       Q                                     #  COMPLETE BUT FAILED. RETURN IMMEDIATELY
000598:
000599: 13,2661           47657                           CS       ZERO                                  #  TO SWRETURN.
000600: 13,2662           54371                           TS       IMUCADR
000601: 13,2663           12033                           TCF      MODEEXIT
000602:
000603:                                                                                                  #           GENERALIZED MODE SWITCHING TERMINATION. ENTER AT GOODEND FOR SUCCESSFUL COMPLETION OF AN I/O OPERATION
000604:                                                                                                  #  OR AT BADEND FOR A N UNSUCCESSFUL ONE. C(A) OR ARRIVAL =0 FOR IMU, 1 FOR AOT, AND 2 FOR RADARS.
000605:
000606: 13,2664           54075        BADEND             TS       RUPTREG2                              #  DEVICE INDEX.
000607: 13,2665           47657                           CS       ZERO                                  #  FOR FAILURE.
000608: 13,2666           12671                           TCF      GOODEND    +2
000609:
000610: 13,2667           54075        GOODEND            TS       RUPTREG2
000611: 13,2670           47652                           CS       ONE                                   #  FOR SUCCESS.
000612:
000613: 13,2671           54076                           TS       RUPTREG3
000614: 13,2672           50075                           INDEX    RUPTREG2                              #  SEE IF USING PROGRAM ASLEEP.
000615: 13,2673           10371                           CCS      MODECADR
000616: 13,2674           12676                           TCF      +2                                    #  YES - WAKE IT UP.
000617: 13,2675           12706                           TCF      ENDMODE                               #  IF 0, PROGRAM NOT IN YET.
000618:
000619: 13,2676           37657                           CAF      ZERO                                  #  WAKE SLEEPING PROGRAM.
000620: 13,2677           50075                           INDEX    RUPTREG2
000621: 13,2700           56371                           XCH      MODECADR
000622: 13,2701           04335                           TC       JOBWAKE
000623:
000624: 13,2702           40076                           CS       RUPTREG3                              #  ADVANCE LOC IF SUCCESSFUL.
000625: 13,2703           50071                           INDEX    LOCCTR
000626: 13,2704           26150                           ADS      LOC
000627:
000628: 13,2705           14505                           TCF      TASKOVER
000629:
000630: 13,2706           30076        ENDMODE            CA       RUPTREG3                              #  -0 INDICATES OPERATION COMPLETE BUT
000631: 13,2707           50075                           INDEX    RUPTREG2                              #  UNSUCCESSFUL - -1 INDICATES COMPLETE AND
000632: 13,2710           54371                           TS       MODECADR                              #  SUCCESSFUL.
000633: 13,2711           14505                           TCF      TASKOVER
000634:
000635:                                                                                                  #  GENERAL STALLING ROUTINE. USING PROGRAMS COME HERE TO WAIT FOR I/O COMPLETION.
000636:
000637: 13,2712           37651        RADSTALL           CAF      TWO                                   #  RR AND LR STALL.
000638: 13,2713           12717                           TCF      STALL
000639:
000640: 13,2714           37652        AOTSTALL           CAF      ONE                                   #  AOT.
000641: 13,2715           02717                           TC       STALL
000642:
000643: 13,2716  13,2714               OPTSTALL           EQUALS   AOTSTALL
000644:
000645: 13,2716  13,2712               LOTSTALL           EQUALS   RADSTALL
000646: 13,2716           37657        IMUSTALL           CAF      ZERO                                  #  IMU.
000647:
000648: 13,2717           00004        STALL              INHINT
000649: 13,2720           54075                           TS       RUPTREG2                              #  SAVE DEVICE INDEX.
000650: 13,2721           50000                           INDEX    A                                     #  SEE IF OPERATION COMPLETE.
000651: 13,2722           10371                           CCS      MODECADR
000652: 13,2723           12741                           TCF      MODABORT                              #  ALLOWABLE STATES ARE +0, -1, AND -0.
000653: 13,2724           12735                           TCF      MODESLP                               #  OPERATION INCOMPLETE.
000654: 13,2725           12731                           TCF      MODEGOOD                              #  COMPLETE AND GOOD IF = -1.
000655:
000656: 13,2726           50075        MG2                INDEX    RUPTREG2                              #  COMPLETE AND FAILED IF -0. RESET TO +0.
000657: 13,2727           54371                           TS       MODECADR                              #  RETURN TO CALLER.
000658: 13,2730           12033                           TCF      MODEEXIT
000659:
000660: 13,2731           10000        MODEGOOD           CCS      A                                     #  MAKE SURE INITIAL STATE -1.
000661: 13,2732           12741                           TCF      MODABORT
000662:
000663: 13,2733           24117                           INCR     BUF2                                  #  IF SO, INCREMENT RETURN ADDRESS AND
000664: 13,2734           12726                           TCF      MG2                                   #  RETURN IMMEDIATELY, SETTING CADR = +0.
000665:
000666: 13,2735           04112        MODESLP            TC       MAKECADR                              #  CALL FROM SWITCHABLE FIXED ONLY.
000667: 13,2736           50075                           INDEX    RUPTREG2
000668: 13,2737           54371                           TS       MODECADR
000669: 13,2740           14331                           TCF      JOBSLEEP
000670:
000671: 13,2741           05350        MODABORT           TC       ABORT                                 #  TWO PROGRAMS USING SAME DEVICE.
000672: 13,2742           01210                           OCT      1210
000673:
000674:                                                                                                  #  CONSTANTS FOR MODE SWITCHING ROUTINES
000675:
000676: 13,2743           00014        BITS3&4            OCT      14
000677: 13,2744           00050        BITS4&6            OCT      00050
000678: 13,2745           00070        BITS4-6            OCT      00070
000679: 13,2746     7643               IMUSEFLG           EQUALS   BIT8                                  #  INTERPRETER SWITCH 7.
000680: 13,2746           70000        13,14,15           OCT      70000
000681:
000682: 13,2747           77500        -COMMAX            DEC      -191       B-14
000683: 13,2750           77477        -COMMAX-           DEC      -192       B-14
000684: 13,2751           00074        600MS              DEC      60         B-14
000685: 13,2752     4665               3SECSM             EQUALS   3SECS
000686: 13,2752           21450        90SEC              DEC      9000       B-14
000687:
000688: 13,2753                        ENDIMODS           EQUALS

End of include-file IMU_MODE_SWITCHING_ROUTINES.agc.  Parent file is MAIN.agc


