
Source Code


000002:                                                                                                  ## Copyright:   Public domain.
000003:                                                                                                  ## Filename:    INTERRUPT_LEAD_INS.agc
000004:                                                                                                  ## Purpose:     A section of Aurora 88.
000005:                                                                                                  ##              It is part of the reconstructed source code for the final
000006:                                                                                                  ##              release of the Lunar Module system test software. No original
000007:                                                                                                  ##              listings of this program are available; instead, this file
000008:                                                                                                  ##              was created via disassembly of dumps of Aurora 88 core rope
000009:                                                                                                  ##              modules and comparison with other AGC programs.
000010:                                                                                                  ## Assembler:   yaYUL
000011:                                                                                                  ## Contact:     Ron Burkey <info@sandroid.org>.
000012:                                                                                                  ## Website:     www.ibiblio.org/apollo/index.html
000013:                                                                                                  ## Mod history: 2023-06-30 MAS  Created from Aurora 12.
000014:                                                                                                  ##              2023-07-12 MAS  Updated for Aurora 88.
000015:
000016:
000017:    4000                                           SETLOC   4000
000018:
000019:    4000           00004                           INHINT                                         #  GO
000020:    4001           34054                           CAF      GOBB
000021:    4002           56006                           XCH      BBANK
000022:    4003           12076                           TCF      GOPROG
000023:
000024:    4004           52011                           DXCH     ARUPT                                 #  T6RUPT
000025:    4005           34055                           CAF      T6RPTBB
000026:    4006           56006                           XCH      BBANK
000027:    4007           14514                           TCF      RESUME     +3                         #  ***FIX LATER***
000028:
000029:    4010           52011                           DXCH     ARUPT                                 #  T5RUPT
000030:    4011           00006                           EXTEND
000031:    4012           30346                           DCA      T5LOC                                 #  T5LOC EQUALS T5ADR
000032:    4013           52006                           DTCB
000033:
000034:    4014           52011                           DXCH     ARUPT                                 #  T3RUPT
000035:    4015           34056                           CAF      T3RPTBB
000036:    4016           56006                           XCH      BBANK
000037:    4017           12736                           TCF      T3RUPT
000038:
000039:    4020           52011                           DXCH     ARUPT                                 #  T4RUPT
000040:    4021           37657                           CAF      ZERO
000041:    4022           14616                           TCF      T4RUPT
000042:    4023     0350                                  EBANK=   DSRUPTSW
000043:    4023           24000        T4RPTBB            BBCON    T4RUPTA
000044:
000045:    4024           52011                           DXCH     ARUPT                                 #  KEYRUPT1
000046:    4025           34057                           CAF      KEYRPTBB
000047:    4026           56006                           XCH      BBANK
000048:    4027           13602                           TCF      KEYRUPT1
000049:
000050:    4030           52011                           DXCH     ARUPT                                 #  KEYRUPT2
000051:    4031           34060                           CAF      MKRUPTBB
000052:    4032           56006                           XCH      BBANK
000053:    4033           13161                           TCF      MARKRUPT
000054:
000055:    4034           52011                           DXCH     ARUPT                                 #  UPRUPT
000056:    4035           34057                           CAF      UPRPTBB
000057:    4036           56006                           XCH      BBANK
000058:    4037           13622                           TCF      UPRUPT
000059:
000060:    4040           52011                           DXCH     ARUPT                                 #  DOWNRUPT
000061:    4041           34061                           CAF      DWNRPTBB
000062:    4042           56006                           XCH      BBANK
000063:    4043           12047                           TCF      DODOWNTM
000064:
000065:    4044           52011                           DXCH     ARUPT                                 #  RADAR RUPT
000066:    4045           34062                           CAF      RDRPTBB
000067:    4046           56006                           XCH      BBANK
000068:    4047           12706                           TCF      RADAREAD
000069:
000070:    4050           50017                           RESUME                                         #  HAND CONTROL RUPT   ***FIX LATER****
000071:    4051           34051                           CA
000072:    4052           56006                           XCH      BBANK
000073:    4053           14053                           TCF      +0
000074:
000075:    4054  E3,1400                                  EBANK=   LST1                                  #  RESTART USES E0, E3
000076:    4054           24003        GOBB               BBCON    GOPROG
000077:
000078:    4055     0025                                  EBANK=   TIME1
000079:    4055           04000        T6RPTBB            BBCON    RESUME                                #  ***FIX LATER***
000080:
000081:    4056  E3,1400                                  EBANK=   LST1
000082:    4056           02003        T3RPTBB            BBCON    T3RUPT
000083:
000084:    4057     0077                                  EBANK=   KEYTEMP1
000085:    4057           24000        KEYRPTBB           BBCON    KEYRUPT1
000086:
000087:    4060  E3,1462                                  EBANK=   AOTAZ
000088:    4060           26003        MKRUPTBB           BBCON    MARKRUPT
000089:
000090:    4061     4057               UPRPTBB            =        KEYRPTBB
000091:
000092:    4061  E7,1403                                  EBANK=   DNTMBUFF
000093:    4061           32007        DWNRPTBB           BBCON    DODOWNTM
000094:
000095:    4062     0413                                  EBANK=   RADMODES
000096:    4062           20001        RDRPTBB            BBCON    RADAREAD
000097:
000098:    4063                        ENDINTFF           EQUALS

End of include-file INTERRUPT_LEAD_INS.agc.  Parent file is MAIN.agc


