
Source Code


000002:                                                                                                  ## Copyright:   Public domain.
000003:                                                                                                  ## Filename:    INTER-BANK_COMMUNICATION.agc
000004:                                                                                                  ## Purpose:     A section of Aurora 88.
000005:                                                                                                  ##              It is part of the reconstructed source code for the final
000006:                                                                                                  ##              release of the Lunar Module system test software. No original
000007:                                                                                                  ##              listings of this program are available; instead, this file
000008:                                                                                                  ##              was created via disassembly of dumps of Aurora 88 core rope
000009:                                                                                                  ##              modules and comparison with other AGC programs.
000010:                                                                                                  ## Assembler:   yaYUL
000011:                                                                                                  ## Contact:     Ron Burkey <info@sandroid.org>.
000012:                                                                                                  ## Website:     www.ibiblio.org/apollo/index.html
000013:                                                                                                  ## Mod history: 2023-06-30 MAS  Created from Aurora 12.
000014:                                                                                                  ##              2023-07-12 MAS  Updated for Aurora 88.
000015:
000016:
000017:                                                                                                  #           THE FOLLOWING ROUTINE CAN BE USED TO CALL A SUBROUTINE IN ANOTHER BANK. IN THE BANKCALL VERSION, THE
000018:                                                                                                  #  CADR OF THE SUBROUTINE IMMEDIATELY FOLLOWS THE  TC BANKCALL  INSTRUCTION, WITH C(A) AND C(L) PRESERVED.
000019:
000020:    4063                                           SETLOC   ENDINTFF
000021:    4063           52120        BANKCALL           DXCH     BUF2                                  #  SAVE INCOMING A,L.
000022:    4064           50002                           INDEX    Q                                     #  PICK UP CADR.
000023:    4065           30000                           CA       0
000024:    4066           24002                           INCR     Q                                     #  SO WE RETURN TO THE LOC. AFTER THE CADR.
000025:
000026:                                                                                                  #           SWCALL IS IDENTICAL TO BANKCALL, EXCEPT THAT THE CADR ARRIVES IN A.
000027:
000028:    4067           54001        SWCALL             TS       L
000029:    4070           22004                           LXCH     FBANK                                 #  SWITCH BANKS, SAVING RETURN.
000030:    4071           76426                           MASK     LOW10                                 #  GET SUB-ADDRESS OF CADR.
000031:    4072           56002                           XCH      Q                                     #  A,L NOW CONTAINS DP RETURN.
000032:    4073           52120                           DXCH     BUF2                                  #  RESTORING INPUTS IF THIS IS A BANKCALL.
000033:    4074           50002                           INDEX    Q
000034:    4075           02000                           TC       10000                                 #  SETTING Q TO SWRETURN.
000035:
000036:    4076           56120        SWRETURN           XCH      BUF2       +1                         #  COMES HERE TO RETURN TO CALLER. C(A,L)
000037:    4077           56004                           XCH      FBANK                                 #  ARE PRESERVED FOR RETURN.
000038:    4100           56120                           XCH      BUF2       +1
000039:    4101           00117                           TC       BUF2
000040:
000041:                                                                                                  #           THE FOLLOWING ROUTINE CAN BE USED AS A UNILATERAL JUMP WITH C(A,L) PRESERVED AND THE CADR IMMEDIATELY
000042:                                                                                                  #  FOLLOWING THE TC POSTJUMP INSTRUCTION.
000043:
000044:    4102           56002        POSTJUMP           XCH      Q                                     #  SAVE INCOMING C(A).
000045:    4103           50000                           INDEX    A                                     #  GET CADR.
000046:    4104           30000                           CA       0
000047:
000048:                                                                                                  #           BANKJUMP IS THE SAME AS POSTJUMP, EXCEPT THAT THE CADR ARRIVES IN A.
000049:
000050:    4105           54004        BANKJUMP           TS       FBANK
000051:    4106           76426                           MASK     LOW10
000052:    4107           56002                           XCH      Q                                     #  RESTORING INPUT C(A) IF THIS WAS A
000053:    4110           50002                           INDEX    Q                                     #  POSTJUMP.
000054:    4111           12000                           TCF      10000
000055:
000056:                                                                                                  #  THE FOLLOWING ROUTINE GETS THE RETURN CADR SAVED BY SWCALL OR BANKCALL AND LEAVES IT IN A.
000057:
000058:    4112           36426        MAKECADR           CAF      LOW10
000059:    4113           70117                           MASK     BUF2
000060:    4114           60120                           AD       BUF2       +1
000061:    4115           00002                           TC       Q
000062:
000063:                                                                                                  #  THE FOLLOWING ROUTINE OBTAINS THE TWO WORDS BEGINNING AT THE ADDRESS ARRIVING IN A, AND LEAVES THEM IN
000064:                                                                                                  #  A,L.
000065:
000066:    4116           54001        DATACALL           TS       L
000067:    4117           22004                           LXCH     FBANK
000068:    4120           22121                           LXCH     MPTEMP                                #  SAVE FORMER BANK.
000069:    4121           76426                           MASK     LOW10
000070:    4122           00006                           EXTEND
000071:    4123           50000                           INDEX    A
000072:    4124           32001                           DCA      10000
000073:
000074:    4125           56121                           XCH      MPTEMP
000075:    4126           54004                           TS       FBANK                                 #  RESTORE FBANK.
000076:    4127           30121                           CA       MPTEMP
000077:    4130           00002                           TC       Q
000078:
000079:                                                                                                  #  THE FOLLOWING ROUTINES ARE IDENTICAL TO BANKCALL AND SWCALL EXCEPT THAT THEY ARE USED IN INTERRUPT.
000080:
000081:    4131           52077        IBNKCALL           DXCH     RUPTREG3                              #  USES RUPTREG3,4 FOR DP RETURN ADDRESS.
000082:    4132           50002                           INDEX    Q
000083:    4133           30000                           CAF      0
000084:    4134           24002                           INCR     Q
000085:
000086:    4135           54001        ISWCALL            TS       L
000087:    4136           22004                           LXCH     FBANK
000088:    4137           76426                           MASK     LOW10
000089:    4140           56002                           XCH      Q
000090:    4141           52077                           DXCH     RUPTREG3
000091:    4142           50002                           INDEX    Q
000092:    4143           02000                           TC       10000
000093:
000094:    4144           56077        ISWRETRN           XCH      RUPTREG4
000095:    4145           56004                           XCH      FBANK
000096:    4146           56077                           XCH      RUPTREG4
000097:    4147           00076                           TC       RUPTREG3
000098:
000099:    4150                        ENDIBNKF           EQUALS

End of include-file INTER-BANK_COMMUNICATION.agc.  Parent file is MAIN.agc


