
Source Code


000002:                                                                                                  ## Copyright:   Public domain.
000003:                                                                                                  ## Filename:    KEYRUPT,_UPRUPT.agc
000004:                                                                                                  ## Purpose:     A section of Aurora 88.
000005:                                                                                                  ##              It is part of the reconstructed source code for the final
000006:                                                                                                  ##              release of the Lunar Module system test software. No original
000007:                                                                                                  ##              listings of this program are available; instead, this file
000008:                                                                                                  ##              was created via disassembly of dumps of Aurora 88 core rope
000009:                                                                                                  ##              modules and comparison with other AGC programs.
000010:                                                                                                  ## Assembler:   yaYUL
000011:                                                                                                  ## Contact:     Ron Burkey <info@sandroid.org>.
000012:                                                                                                  ## Website:     www.ibiblio.org/apollo/index.html
000013:                                                                                                  ## Mod history: 2023-06-30 MAS  Created from Aurora 12.
000014:                                                                                                  ##              2023-07-12 MAS  Updated for Aurora 88.
000015:
000016:
000017: 12,3602                                           SETLOC   ENDT4S
000018:
000019: 12,3602           54016        KEYRUPT1           TS       BANKRUPT
000020: 12,3603           56002                           XCH      Q
000021: 12,3604           54012                           TS       QRUPT
000022: 12,3605           05161                           TC       LODSAMPT                              #  TIME IS SNATCHED IN RUPT FOR NOUN 65.
000023: 12,3606           35126                           CAF      LOW5
000024: 12,3607           00006                           EXTEND
000025: 12,3610           02015                           RAND     MNKEYIN
000026: 12,3611           54077        KEYCOM             TS       RUPTREG4
000027: 12,3612           35135                           CAF      CHRPRIO
000028: 12,3613           04276                           TC       NOVAC
000029: 12,3614     0264                                  EBANK=   DSPCOUNT
000030: 12,3614           02002 10000                     2CADR    CHARIN
000031: 12,3616           30077                           CA       RUPTREG4
000032: 12,3617           50071                           INDEX    LOCCTR
000033: 12,3620           54140                           TS       MPAC                                  #  LEAVE 5 BIT KEY CDE IN MPAC FOR CHARIN
000034: 12,3621           04511                           TC       RESUME
000035:
000036:                                                                                                  #  UPRUPT PROGRAM
000037:
000038: 12,3622           54016        UPRUPT             TS       BANKRUPT
000039: 12,3623           56002                           XCH      Q
000040: 12,3624           54012                           TS       QRUPT
000041: 12,3625           05161                           TC       LODSAMPT                              #  TIME IS SNATCHED IN RUPT FOR NOUN 65.
000042: 12,3626           37657                           CAF      ZERO
000043: 12,3627           56045                           XCH      INLINK
000044: 12,3630           54077                           TS       KEYTEMP1
000045: 12,3631           37650                           CAF      BIT3                                  #  TURN ON UPACT LIGHT
000046: 12,3632           00006                           EXTEND                                         #  (BIT 3 OF CHANNEL 11)
000047: 12,3633           05011                           WOR      DSALMOUT
000048: 12,3634           35126        UPRUPT1            CAF      LOW5                                  #  TEST FOR TRIPLE CHAR REDUNDANCY
000049: 12,3635           70077                           MASK     KEYTEMP1                              #  LOW5 OF WORD
000050: 12,3636           56077                           XCH      KEYTEMP1                              #  LOW5 INTO KEYTEMP1
000051: 12,3637           56021                           XCH      SR                                    #  WHOLE WORD INTO SR
000052: 12,3640           55071                           TS       KEYTEMP2                              #  ORIGINAL SR INTO KEYTEMP2
000053: 12,3641           03705                           TC       SRGHT5
000054: 12,3642           75126                           MASK     LOW5                                  #  MID 5
000055: 12,3643           63717                           AD       HI10
000056: 12,3644           03714                           TC       UPTEST
000057: 12,3645           03705                           TC       SRGHT5
000058: 12,3646           75126                           MASK     LOW5                                  #  HIGH 5
000059: 12,3647           40000                           COM
000060: 12,3650           03714                           TC       UPTEST
000061: 12,3651           03701        UPOK               TC       RESTORSR                              #  CODE IS GOOD
000062: 12,3652           43656                           CS       ELRCODE                               #  IF CODE = ERROR LIGHT RESET, PUT +0
000063: 12,3653           60077                           AD       KEYTEMP1                              #  INTO BIT1 OF UPLOCK.
000064: 12,3654           10000                           CCS      A                                     #  IF CODE NOT= ELR, PASS CODE ONLY IF
000065: 12,3655           03664                           TC       TSTUPLOK                              #  BIT1 OF UPLOCK = 0.
000066: 12,3656           00022        ELRCODE            OCT      22
000067: 12,3657           03664                           TC       TSTUPLOK
000068: 12,3660           47652                           CS       BIT1                                  #  PUT 0 INTO BIT1 OF UPLOCK
000069: 12,3661           70342                           MASK     UPLOCK
000070: 12,3662           54342                           TS       UPLOCK
000071: 12,3663           03670                           TC       ACCEPTUP
000072: 12,3664           37652        TSTUPLOK           CAF      BIT1
000073: 12,3665           70342                           MASK     UPLOCK
000074: 12,3666           10000                           CCS      A
000075: 12,3667           04511                           TC       RESUME                                #  BIT1 OF UPLOCK = 1.
000076: 12,3670           56077        ACCEPTUP           XCH      KEYTEMP1                              #  BIT1 OF UPLOCK = 0.
000077: 12,3671           03611                           TC       KEYCOM
000078:
000079: 12,3672           03701        TMFAIL2            TC       RESTORSR                              #  CODE IS BAD
000080: 12,3673           47652                           CS       BIT1                                  #  LOCK OUT FURTHER UPLINK ACTIVITY (BY
000081: 12,3674           70342                           MASK     UPLOCK                                #  PUTTING 1 INTO BIT1 OF UPLOCK) UNTIL ELR
000082: 12,3675           67652                           AD       BIT1                                  #  IS SENT UP UPLINK.
000083: 12,3676           54342                           TS       UPLOCK
000084: 12,3677           04511        TMFAIL1            TC       TMALM
000085: 12,3700           04511                           TC       RESUME
000086: 12,3701           57071        RESTORSR           XCH      KEYTEMP2
000087: 12,3702           60000                           DOUBLE
000088: 12,3703           54021                           TS       SR
000089: 12,3704           00002                           TC       Q
000090:
000091: 12,3705     4511               TMALM              =        RESUME                                #  FOR NOW
000092:
000093: 12,3705           40021        SRGHT5             CS       SR
000094: 12,3706           40021                           CS       SR
000095: 12,3707           40021                           CS       SR
000096: 12,3710           40021                           CS       SR
000097: 12,3711           40021                           CS       SR
000098: 12,3712           40000                           CS       A
000099: 12,3713           00002                           TC       Q                                     #  DELIVERS WORD UNCOMPLEMENTED
000100:
000101: 12,3714           60077        UPTEST             AD       KEYTEMP1
000102: 12,3715           10000                           CCS      A
000103: 12,3716           03672                           TC       TMFAIL2
000104: 12,3717           77740        HI10               OCT      77740
000105: 12,3720           03672                           TC       TMFAIL2
000106: 12,3721           00002                           TC       Q
000107:
000108:                                                                                                  #  UPACT IS TURNED OFF BY VBRELDSP, ALSO BY ERROR LIGHT RESET.
000109:                                                                                                  #  THE RECEPTION OF A BAD CODE BY UPLINK LOCKS OUT FURTHER UPLINK ACTIVITY
000110:                                                                                                  #  BY PLACING A 1 INTO BIT1 OF UPLOCK. BIT9 (ALONG WITH BIT11) OF TMKEYBUF
000111:                                                                                                  #  IS SET TO 1 TO SEND AN INDICATION OF THIS SITUATION DOWN THE DOWNLINK.
000112:                                                                                                  #  THE UPLINK INTERLOCK IS ALLOWED WHEN AN ERROR LIGHT RESET CODE IS SENT
000113:                                                                                                  #  UP THE UPLINK, OR WHEN A FRESH START IS PERFORMED.
000114:
000115:
000116:


000120:
000121: 12,3722           00620        4SECS              DEC      400        B-14
000122:
000123:
000124:
000125: 12,3723           25362        GOPROG1            INCR     REDOCTR                               #  ADVANCE RESTART COUNTER.
000126:
000127: 12,3724           31357                           CA       ERESTORE
000128: 12,3725           00006                           EXTEND
000129: 12,3726           13733                           BZF      +5
000130:
000131: 12,3727           00006                           EXTEND                                         #  RESTORE B(X) AND B(X+1) IF RESTART
000132: 12,3730           31376                           DCA      SKEEP5                                #  HAPPENED WHILE SELF-CHECK HAD REPLACED
000133: 12,3731           51377                           NDX      SKEEP7                                #  THEM WITH CHECKING WORDS.
000134: 12,3732           52001                           DXCH     0000
000135:
000136: 12,3733           02077                           TC       GOPROG     +1
000137:
000138:
000139:
000140: 12,3734           55357        STARTSB1           TS       ERESTORE                              #       ERASCHK RESTORE FLAG
000141: 12,3735           34445                           CAF      PRIO34                                #  ENABLE INTERRUPTS.
000142: 12,3736           02252                           TC       STARTSB2
000143:
000144:
000145:
000146: 12,3737           04131        ENDTNON3           TC       IBNKCALL                              #  TURN OFF NO ATT LAMP.
000147: 12,3740           27503                           CADR     NOATTOFF
000148:
000149: 12,3741           04660        UNZ2               TC       ZEROICDU
000150: 12,3742           03063                           TC       UNZ2B
000151:
000152:
000153:
000154: 12,3743           37647        OPONLY1            CAF      BIT4                                  #  IF OPERATE ON ONLY, AND WE ARE IN COARSE
000155: 12,3744           00006                           EXTEND                                         #  ALIGN, DONT ZERO THE CDUS BECAUSE WE
000156: 12,3745           02012                           RAND     CHAN12                                #  MIGHT BE IN GIMBAL LOCK.
000157: 12,3746           10000                           CCS      A
000158: 12,3747           13126                           TCF      C33TEST
000159:
000160: 12,3750           37643                           CAF      IMUSEFLG                              #  OTHERWISE, ZERO THE COUNTERS
000161: 12,3751           03112                           TC       OPONLY     +1                         #  UNLESS SOMEONE IS USING THE IMU.
000162:
000163:
000164:
000165: 12,3752           43760        CAGESUB1           CS       OC40010                               #  TURN ON NO ATT LAMP.
000166: 12,3753           70322                           MASK     DSPTAB     +11D
000167: 12,3754           63760                           AD       OC40010
000168: 12,3755           54322                           TS       DSPTAB     +11D
000169: 12,3756           43452        CAGESUB2           CS       OCT75                                 #  SET FLAGS TO INDICATE CAGING OR TURN-ON,
000170: 12,3757           13425                           TCF      CAGESUB3                              #  AND TO INHIBIT ALL ISS WARNING INFO.
000171:
000172: 12,3760           40010        OC40010            OCT      40010
000173:
000174: 12,3761                        ENDKRURS           EQUALS

End of include-file KEYRUPT,_UPRUPT.agc.  Parent file is MAIN.agc


