
Source Code


000002:                                                                                                  ## Copyright:   Public domain.
000003:                                                                                                  ## Filename:    LIST_PROCESSING_INTERPRETER.agc
000004:                                                                                                  ## Purpose:     A section of Aurora 88.
000005:                                                                                                  ##              It is part of the reconstructed source code for the final
000006:                                                                                                  ##              release of the Lunar Module system test software. No original
000007:                                                                                                  ##              listings of this program are available; instead, this file
000008:                                                                                                  ##              was created via disassembly of dumps of Aurora 88 core rope
000009:                                                                                                  ##              modules and comparison with other AGC programs.
000010:                                                                                                  ## Assembler:   yaYUL
000011:                                                                                                  ## Contact:     Ron Burkey <info@sandroid.org>.
000012:                                                                                                  ## Website:     www.ibiblio.org/apollo/index.html
000013:                                                                                                  ## Mod history: 2023-06-30 MAS  Created from Aurora 12.
000014:                                                                                                  ##              2023-07-12 MAS  Updated for Aurora 88.
000015:
000016:
000017:                                                                                                  #  SECTION 1  DISPATCHER
000018:
000019:                                                                                                  #           ENTRY TO THE INTERPRETER. INTPRET SETS LOC TO THE FIRST INSTRUCTION, BANKSET TO THE FBANK OF THE
000020:                                                                                                  #  OBJECT INTERPRETIVE PROGRAM, AND INTBIT15 TO THE BIT15 CONTENTS OF FBANK. INTERPRETIVE PROGRAMS MAY BE IN
000021:                                                                                                  #  VIRTUALLY ALL BANKS PRESENT UNDER ANY SUPER-BANK SETTING, WITH THE RESTRICTION THAT PROGRAMS IN HIGH BANKS
000022:                                                                                                  #  (BIT15 OF FBANK = 1) DO NOT REFER TO LOWBANKS, AND VICE-VERSA. THE INTERPRETER DOES NOT SWITCH SUPER-BANK,
000023:                                                                                                  #  NOR DOES IT SWITCH EBANKS. MOST EBANK SWITCHING IS DONE BY THE EXECUTIVE PROGRAM.
000024:
000025:    6000                                           SETLOC   6000
000026:
000027:    6000           00006        INTPRET            EXTEND                                         #  SET LOC TO THE WORD FOLLOWING THE TC.
000028:    6001           22150                           QXCH     LOC
000029:
000030:    6002           30004                 +2        CA       FBANK                                 #  INTERPRETIVE BRANCHES FINISH HERE.
000031:    6003           54151                           TS       BANKSET
000032:    6004           77634                           MASK     BIT15                                 #  GET 15TH BIT FOR INDEXABLE ADDRESSES.
000033:    6005           54101                           TS       INTBIT15
000034:    6006           66426                           AD       LOW10                                 #  THIS VERSION IS USED IN PROCESSING
000035:    6007           54100                           TS       INTB15+                               #  INDEXABLE FIXED-BANK ADDRESSES.
000036:
000037:    6010           16023                           TCF      NEWOPS                                #  PICK UP OP CODE PAIR AND BEGIN.
000038:
000039:    6011           22006        INTRSM             LXCH     BBANK                                 #  RESUME SUSPENDED INTERPRETIVE JOB
000040:    6012           16003                           TCF      INTPRET    +3                         #  (ACTUALLY PART OF THE EXECUTIVE).
000041:
000042:                                                                                                  #        AT THE END OF MOST INSTRUCTIONS, CONTROL IS GIVEN TO DANZIG TO DISPATCH THE NEXT OPERATION.
000043:    6013           54147        NEWMODE            TS       MODE                                  #  PROLOGUE FOR MODE-CHANGING INSTRUCTIONS.
000044:
000045:    6014           30151        DANZIG             CA       BANKSET                               #  SET BBANK BEFORE TESTING NEWJOB SO THAT
000046:    6015           54004                           TS       FBANK                                 #  BBANK MAY BE SAVED DIRECTLY BY CHANJOB.
000047:
000048:    6016           10023        NOIBNKSW           CCS      EDOP                                  #  SEE IF AN ORDER CODE IS LEFT OVER FROM
000049:    6017           16032                           TCF      OPJUMP                                #  THE LAST PAIR RETRIEVED. IF SO, EXECUTE.
000050:                                                                                                  #  EDOP IS SET TO ZERO ON ITS RE-EDITING.
000051:
000052:    6020           10067                           CCS      NEWJOB                                #  SEE IF A JOB OF HIGHER PRIORITY IS
000053:    6021           14325                           TCF      CHANG2                                #  PRESENT, AND IF SO, CHANGE JOBS.
000054:
000055:    6022           24150                           INCR     LOC                                   #  ADVANCE THE LOCATION COUNTER.
000056:    6023           50150        NEWOPS             INDEX    LOC                                   #  ENTRY TO BEGIN BY PICKING OP CODE PAIR.
000057:    6024           30000                           CA       0                                     #  MAY BE AN OPCODE PAIR OR A STORE CODE.
000058:    6025           10000                           CCS      A                                     #  TEST SIGN AND GET DABS(A).
000059:    6026           16342                           TCF      DOSTORE                               #  PROCESS STORE CODE.
000060:
000061:    6027           00177        LOW7               OCT      177
000062:
000063:    6030           54023                           TS       EDOP                                  #  OP CODE PAIR.  LEAVE THE OTHER IN EDOP
000064:    6031           76027                           MASK     LOW7                                  #  WHERE CCS EDOP WILL HONOR IT NEXT.
000065:
000066:    6032           54020        OPJUMP             TS       CYR                                   #  LOWWD ENTERS HERE IF A RIGHT-HAND OP
000067:    6033           10020                           CCS      CYR                                   #  CODE IS TO BE PROCESSED. TEST PREFICES.
000068:    6034           16167                           TCF      OPJUMP2                               #  TEST SECOND PREFIX BIT.
000069:
000070:    6035           16731                           TCF      EXIT                                  #  +0 OP CODE IS EXIT.
000071:
000072:                                                                                                  #        PROCESS ADDRESSES WHICH MAY BE DIRECT, INDEXED, OR REFERENCE THE PUSHDOWN LIST.
000073:
000074:    6036           77652        ADDRESS            MASK     BIT1                                  #  SEE IF ADDRESS IS INDEXED.  CYR CONTAINED
000075:    6037           10000                           CCS      A                                     #  400XX, SO BIT 1 IS NOW AS IT WAS IN CYR.
000076:    6040           16073                           TCF      INDEX                                 #  FORM INDEXED ADDRESS.
000077:
000078:    6041           50150        DIRADRES           INDEX    LOC                                   #  LOOK AHEAD TO NEXT WORD TO SEE IF
000079:    6042           40001        OCT40001           CS       1                                     #  ADDRESS IS GIVEN.
000080:    6043           10000                           CCS      A
000081:    6044           16135                           TCF      PUSHUP                                #  IF NOT.
000082:
000083:    6045           77773        NEG4               DEC      -4         B-14
000084:
000085:    6046           24150                           INCR     LOC                                   #  IF SO, TO SHOW WE PICKED UP A WORD.
000086:    6047           54102                           TS       ADDRWD
000087:
000088:                                                                                                  #           FINAL DIGESTION OF DIRECT ADDRESSES OF OP CODES WITH 01 PREFIX IS DONE HERE. IN EACH CASE, THE
000089:                                                                                                  #  REQUIRED 12 BIT SUB-ADDRESS IS LEFT IN ADDRWD, WITH ANY REQUIRED BANK SWITCHING DONE (F ONLY). ADDRESSES LESS
000090:                                                                                                  #  THAN 45D ARE TAKEN TO BE RELATIVE TO THE WORK AREA. THE OP CODE IS NOW IN BITS 1-5 OF CYR WITH BIT 14 = 1.
000091:
000092:
000093:
000094:    6050           66171                           AD       -ENDVAC                               #  SEE IF ADDRESS RELATIVE TO WORK AREA.
000095:    6051           10000                           CCS      A
000096:    6052           66234                           AD       -ENDERAS                              #  IF NOT, SEE IF IN GENERAL ERASABLE.
000097:    6053           16060                           TCF      IERASTST
000098:
000099:    6054           30104        NETZERO            CA       FIXLOC                                #  IF SO, LEAVE THE MODIFIED ADDRESS IN
000100:    6055           26102                           ADS      ADDRWD                                #  ADDRWD AND DISPATCH.
000101:    6056           50020                 +2        INDEX    CYR                                   #  THIS INDEX MAKES THE NEXT INSTRUCTION
000102:    6057           76234                           7        INDJUMP    -1                         #  TCF INDJUMP + OP, EDITING CYR.
000103:
000104:    6060           00006        IERASTST           EXTEND
000105:    6061           66056                           BZMF     NETZERO    +2                         #  GENERAL ERASABLE - DISPATCH IMMEDIATELY.
000106:
000107:    6062           60100        FIXEDADR           AD       INTB15+                               #  FIXED BANK ADDRESS. RESTORE AND ADD B15.
000108:    6063           54004                 +1        TS       FBANK                                 #  SWITCH BANKS AND LEAVE SUB-ADDRESS IN
000109:    6064           76426                           MASK     LOW10                                 #  ADDRWD FOR OPERAND RETRIEVAL.
000110:    6065           67640                           AD       2K
000111:    6066           54102                           TS       ADDRWD
000112:    6067           50020                           INDEX    CYR
000113:    6070           76234                           7        INDJUMP    -1
000114:
000115:                                                                                                  #           THE FOLLOWING ROUTINE PROCESSES INTERPRETIVE INDEXED ADDRESSES. AN INTERPRETER INDEX REGISTER MAY
000116:                                                                                                  #  CONTAIN THE ADDRESS OF ANY ERASABLE REGISTER (0-42 BEING RELATIVE TO THE VAC AREA) OR ANY INTERPRETIVE PROGRAM
000117:                                                                                                  #  BANK, OR ANY INTEGER IN THAT RANGE.
000118:
000119:    6071           37670        DODLOAD*           CAF      DLOAD*                                #  STODL* COMES HERE TO PROCESS LOAD ADR.
000120:    6072           54020                           TS       CYR                                   #  (STOVL* ENTERS HERE).
000121:
000122:    6073           30104        INDEX              CA       FIXLOC                                #  SET UP INDEX LOCATION.
000123:    6074           54114                           TS       INDEXLOC
000124:    6075           24150                           INCR     LOC                                   #  (ADDRESS ALWAYS GIVEN).
000125:    6076           50150                           INDEX    LOC
000126:    6077           40000                           CS       0
000127:    6100           10000                           CCS      A                                     #  INDEX 2 IF ADDRESS STORED COMPLEMENTED.
000128:    6101           24114                           INCR     INDEXLOC
000129:    6102           16103                           NOOP
000130:
000131:    6103           54102                           TS       ADDRWD                                #  14 BIT ADDRESS TO ADDRWD.
000132:    6104           76232                           MASK     BANKMASK                              #  IF ADDRESS GREATER THAN 1K, ADD INTBIT15
000133:    6105           00006                           EXTEND
000134:    6106           16111                           BZF      INDEX2
000135:    6107           30101                           CA       INTBIT15
000136:    6110           26102                           ADS      ADDRWD
000137:
000138:    6111           50114        INDEX2             INDEX    INDEXLOC
000139:    6112           40046                           CS       X1
000140:    6113           26102                           ADS      ADDRWD                                #  DO AUGMENT, IGNORING AND CORRECTING OVF.
000141:
000142:    6114           76231                           MASK     HIGH9                                 #  SEE IF ADDRESS IS IN WORK AREA.
000143:    6115           00006                           EXTEND
000144:    6116           16131                           BZF      INDWORK
000145:    6117           76232                           MASK     BANKMASK                              #  SEE IF IN FIXED BANK.
000146:    6120           00006                           EXTEND
000147:    6121           16133                           BZF      INDERASE
000148:
000149:    6122           30102                           CA       ADDRWD                                #  IN FIXED - SWITCH BANKS AND CREATE
000150:    6123           54004                           TS       FBANK                                 #  SUB-ADDRESS.
000151:    6124           76426                           MASK     LOW10
000152:    6125           67640                           AD       2K
000153:    6126           54102                           TS       ADDRWD
000154:    6127           50020                           INDEX    CYR
000155:    6130           36234                           3        INDJUMP    -1
000156:
000157:    6131           30104        INDWORK            CA       FIXLOC                                #  MAKE ADDRWD RELATIVE TO WORK AREA.
000158:    6132           26102                           ADS      ADDRWD
000159:
000160:    6133           50020        INDERASE           INDEX    CYR
000161:    6134           36234                           3        INDJUMP    -1
000162:
000163:                                                                                                  #           PUSH-UP ROUTINES. WHEN NO OPERAND ADDRESS IS GIVEN, THE APPROPRIATE OPERAND IS TAKEN FROM THE PUSH-DOWN
000164:                                                                                                  #  LIST. IN MOST CASES THE MODE OF THE RESULT (VECTOR OR SCALAR) OF THE LAST ARITHMETIC OPERATION PERFORMED
000165:                                                                                                  #  IS THE SAME AS THE TYPE OF OPERAND DESIRED (ALL ADD/SUBTRACT ETC.). EXCEPTIONS TO THIS GENERAL RULE ARE LISTED
000166:                                                                                                  #  BELOW (NOTE THAT IN EVERY CASE THE MODE REGISTER IS LEFT INTACT):
000167:
000168:                                                                                                  #           1.  VXSC AND V/SC WANT THE OPPOSITE TYPE OF OPERAND, E.G., IF THE LAST OPERATION YIELDED A VECTOR
000169:                                                                                                  #  RESULT, VXSC WANTS A SCALAR.
000170:
000171:                                                                                                  #           2.  THE LOAD CODES SHOULD LOAD THE ACCUMULATOR INDEPENDENT OF THE RESULT OF THE LAST OPERATION. THIS
000172:                                                                                                  #  INCLUDES VLOAD, DLOAD, TLOAD, PDDL, AND PDVL (NO PUSHUP WITH SLOAD).
000173:
000174:                                                                                                  #           3.  SOME ARITHMETIC OPERATIONS REQUIRE A STANDARD TYPE OF OPERAND REGARDLESS OF THE PREVIOUS OPERATION.
000175:                                                                                                  #  THIS INCLUDES SIGN WANTING DP AND TAD REQUIRING TP.
000176:
000177:    6135           36227        PUSHUP             CAF      OCT23                                 #  IF THE LOW 5 BITS OF CYR ARE LESS THAN
000178:    6136           70020                           MASK     CYR                                   #  20, THIS OP REQUIRES SPECIAL ATTENTION.
000179:    6137           66142                           AD       -OCT10                                #  (NO -0).
000180:    6140           10000                           CCS      A
000181:    6141           16153                           TCF      REGUP                                 #  FOR ALL CODES GREATER THAN OCT 7.
000182:
000183:    6142           77767        -OCT10             OCT      -10
000184:
000185:    6143           66045                           AD       NEG4                                  #  WE NOW HAVE 7 - OP CODE (MOD4). SEE IF
000186:    6144           10000                           CCS      A                                     #  THE OP CODE (MOD4) IS THREE (REVERSE).
000187:    6145           50000                           INDEX    A                                     #  NO - THE MODE IS DEFINITE.  PICK UP THE
000188:    6146           46164                           CS       NO.WDS
000189:    6147           16155                           TCF      REGUP      +2
000190:
000191:    6150           50147                           INDEX    MODE                                  #  FOR VXSC AND V/SC WE WANT THE REQUIRED
000192:    6151           46162                           CS       REVCNT                                #  PUSHLOC DECREMENT WITHOUT CHANGING THE
000193:    6152           16155                           TCF      REGUP      +2                         #  MODE AT THIS TIME.
000194:
000195:    6153           50147        REGUP              INDEX    MODE                                  #  MOST ALL OP CODES PUSHUP HERE.
000196:    6154           46164                           CS       NO.WDS
000197:    6155           26152                 +2        ADS      PUSHLOC
000198:    6156           54102                           TS       ADDRWD
000199:    6157           50020                           INDEX    CYR
000200:    6160           76234                           7        INDJUMP    -1                         #  (THE INDEX MAKES THIS A TCF.)
000201:
000202:    6161           00002                           OCT      2                                     #  REVERSE PUSHUP DECREMENT. VECTOR TAKES 2
000203:    6162           00006        REVCNT             OCT      6                                     #  WORDS, SCALAR TAKES 6.
000204:    6163           00006                           OCT      6
000205:    6164           00002        NO.WDS             OCT      2                                     #  CONVENTIONAL DECREMENT IS 6 WORDS VECTOR
000206:    6165           00003                           OCT      3                                     #  2 IN DP, AND 3 IN TP.
000207:    6166           00006                           OCT      6
000208:
000209:                                                                                                  #           TEST THE SECOND PREFIX BIT TO SEE IF THIS IS A MISCELLANEOUS OR A UNARY/SHORT SHIFT OPERATION.
000210:
000211:    6167           10020        OPJUMP2            CCS      CYR                                   #  TEST SECOND PREFIX BIT.
000212:    6170           16217                           TCF      OPJUMP3                               #  TEST THIRD BIT TO SEE IF UNARY OR SHIFT.
000213:
000214:    6171           77722        -ENDVAC            DEC      -45        B-14
000215:
000216:                                                                                                  #           THE FOLLOWING ROUTINE PROCESSES ADDRESSES OF SUFFIX CLASS 10. THEY ARE BASICALLY WORK AREA ADDRESSES
000217:                                                                                                  #  IN THE RANGE 0 - 52, ERASABLE ADRES CONSTANTS FROM 100 - 1777, AND FCADRS ABOVE THAT. ALL 15 BITS ARE AVAILABLE
000218:                                                                                                  #  IN CONTRAST TO SUFFIX 1, IN WHICH ONLY THE LOW ORDER 14 ARE AVAILABLE.
000219:
000220:    6172           24150        15BITADR           INCR     LOC                                   #  (ENTRY HERE FROM STCALL).
000221:    6173           50150                           INDEX    LOC                                   #  PICK UP ADDRESS WORD.
000222:    6174           30000                           CA       0
000223:    6175           54103                           TS       POLISH                                #  THE ABSOLUTE ADDRESS WILL BE LEFT IN
000224:    6176           54102                           TS       ADDRWD                                #  POLISH WITH AN ERASABLE SUBADDRESS IN
000225:                                                                                                  #  ADDRWD.
000226:    6177           76231                           MASK     HIGH9                                 #  SEE IF RELATIVE TO THE WORK AREA.
000227:    6200           10000                           CCS      A
000228:    6201           16203                           TCF      +2
000229:    6202           16210                           TCF      RELWORK                               #  ONLY IF ZERO.
000230:
000231:    6203           36230                           CAF      LOW7+2K                               #  THESE INSTRUCTIONS ARE IN BANK 1.
000232:    6204           54004                           TS       FBANK
000233:    6205           70020                           MASK     CYR
000234:    6206           50000                           INDEX    A
000235:    6207           16275                           TCF      MISCJUMP
000236:
000237:    6210           30104        RELWORK            CA       FIXLOC                                #  MAKE ADDRWD RELATIVE TO FIXLOC, LEAVING
000238:    6211           26102                           ADS      ADDRWD                                #  POLISH ABSOLUTE IN CASE THIS WAS AN
000239:    6212           36230                           CAF      LOW7+2K                               #  AXT, ETC.
000240:    6213           54004                           TS       FBANK
000241:    6214           70020                           MASK     CYR
000242:    6215           50000                           INDEX    A
000243:    6216           16275                           TCF      MISCJUMP
000244:
000245:                                                                                                  #           COMPLETE THE DISPATCHING OF UNARY AND SHORT SHIFT OPERATIONS.
000246:
000247:    6217           54004        OPJUMP3            TS       FBANK                                 #  CALL IN BANK 0 (BITS 11-15 OF A ARE 0.)
000248:    6220           10020                           CCS      CYR                                   #  TEST THIRD PREFIX BIT.
000249:    6221           50000                           INDEX    A                                     #  THE DECREMENTED UNARY CODE IS IN BITS
000250:    6222           16315                           TCF      UNAJUMP                               #  1-4 OF A (ZERO, EXIT, HAS BEEN DETECTED)
000251:
000252:    6223           10147                           CCS      MODE                                  #  ITS A SHORT SHIFT CODE. SEE IF PRESENT
000253:    6224           12000                           TCF      SHORTT                                #  SCALAR OR VECTOR.
000254:    6225           12000                           TCF      SHORTT
000255:    6226           12102                           TCF      SHORTV                                #  CALLS THE APPROPRIATE ROUTINE.
000256:
000257:
000258:    6227           00023        OCT23              OCT      23                                    #  MASK USED BY PUSH-UP ROUTINE.
000259:    6230           02177        LOW7+2K            OCT      2177                                  #  OP CODE MASK + BANK 1 FBANK SETTING.
000260:    6231           77700        HIGH9              OCT      77700
000261:    6232           76000        BANKMASK           OCT      76000                                 #  FBANK MASK.
000262:    6233     6232               FBANKMSK           EQUALS   BANKMASK
000263:    6233           36000        B11T14             OCT      36000                                 #  USED IN PROCESSING STORE CODES.
000264:    6234           76056        -ENDERAS           DEC      -977       B-14
000265:
000266:                                                                                                  #           THE FOLLOWING IS THE JUMP TABLE FOR OP CODES WHICH MAY HAVE INDEXABLE ADDRESSES OR MAY PUSH UP.
000267:
000268:    6235           16511        INDJUMP            TCF      VLOAD                                 #  00 - LOAD MPAC WITH A VECTOR.
000269:    6236           17050                           TCF      TAD                                   #  01 - TRIPLE PRECISION ADD TO MPAC.
000270:    6237           17576                           TCF      SIGN                                  #  02 - COMPLEMENT MPAC (V OR SC) IF X NEG.
000271:    6240           17347                           TCF      VXSC                                  #  03 - VECTOR TIMES SCALAR.
000272:    6241           16672                           TCF      CGOTO                                 #  04 - COMPUTED GO TO.
000273:    6242           16474                           TCF      TLOAD                                 #  05 - LOAD MPAC WITH TRIPLE PRECISION.
000274:    6243           16465                           TCF      DLOAD                                 #  06 - LOAD MPAC WITH A DP SCALAR.
000275:    6244           17545                           TCF      V/SC                                  #  07 - VECTOR DIVIDED BY SCALAR.
000276:
000277:    6245           16505                           TCF      SLOAD                                 #  10 - LOAD MPAC IN SINGLE PRECISION.
000278:    6246           16624                           TCF      SSP                                   #  11 - SET SINGLE PRECISION INTO X.
000279:    6247           16527                           TCF      PDDL                                  #  12 - PUSH DOWN MPAC AND RE-LOAD IN DP.
000280:    6250           17302                           TCF      MXV                                   #  13 - MATRIX POST-MULTIPLIED BY VECTOR.
000281:    6251           16563                           TCF      PDVL                                  #  14 - PUSH DOWN AND VECTOR LOAD.
000282:    6252           16632                           TCF      CCALL                                 #  15 - COMPUTED CALL.
000283:    6253           17305                           TCF      VXM                                   #  16 - MATRIX PRE-MULTIPLIED BY VECTOR.
000284:    6254           17537                           TCF      TSLC                                  #  17 - NORMALIZE MPAC (SCALAR ONLY).
000285:
000286:    6255           17515                           TCF      DMPR                                  #  20 - DP MULTIPLY AND ROUND.
000287:    6256           17520                           TCF      DDV                                   #  21 - DP DIVIDE BY.
000288:    6257           17524                           TCF      BDDV                                  #  22 - DP DIVIDE INTO.
000289:    6260           17542                           TCF      GSHIFT                                #  23 - GENERAL SHIFT INSTRUCTION.
000290:    6261           16733                           TCF      VAD                                   #  24 - VECTOR ADD.
000291:    6262           16761                           TCF      VSU                                   #  25 - VECTOR SUBTRACT.
000292:    6263           17011                           TCF      BVSU                                  #  26 - VECTOR SUBTRACT FROM.
000293:    6264           17277                           TCF      DOT                                   #  27 - VECTOR DOT PRODUCT.
000294:
000295:    6265           17427                           TCF      VXV                                   #  30 - VECTOR CROSS PRODUCT.
000296:    6266           17373                           TCF      VPROJ                                 #  31 - VECTOR PROJECTION.
000297:    6267           16777                           TCF      DSU                                   #  32 - DP SUBTRACT.
000298:    6270           17035                           TCF      BDSU                                  #  33 - DP SUBTRACT FROM.
000299:    6271           16751                           TCF      DAD                                   #  34 - DP ADD.
000300:    6272           16272                           TCF      +0                                    #  35 - AVAILABLE
000301:    6273           17513                           TCF      DMP1                                  #  36 - DP MULTIPLY.
000302:    6274           17534                           TCF      SETPD                                 #  37 - SET PUSH DOWN POINTER (DIRECT ONLY)
000303:
000304:                                                                                                  #  CODES 10 AND 14 MUST NOT PUSH UP. CODE 04 MAY BE USED FOR VECTOR DECLARE BEFORE PUSHUP IF DESIRED.
000305:
000306:                                                                                                  #           THE FOLLOWING JUMP TABLE APPLIES TO INDEX, BRANCH, AND MISCELLANEOUS INSTRUCTIONS.
000307:
000308:    6275           12000        MISCJUMP           TCF      AXT                                   #  00 - ADDRESS TO INDEX TRUE.
000309:    6276           12005                           TCF      AXC                                   #  01 - ADDRESS TO INDEX COMPLEMENTED.
000310:    6277           12010                           TCF      LXA                                   #  02 - LOAD INDEX FROM ERASABLE.
000311:    6300           12014                           TCF      LXC                                   #  03 - LOAD INDEX FROM COMPLEMENT OF ERAS.
000312:    6301           12020                           TCF      SXA                                   #  04 - STORE INDEX IN ERASABLE.
000313:    6302           12024                           TCF      XCHX                                  #  05 - EXCHANGE INDEX WITH ERASABLE.
000314:    6303           12040                           TCF      INCR                                  #  06 - INCREMENT INDEX REGISTER.
000315:    6304           12047                           TCF      TIX                                   #  07 - TRANSFER ON INDEX.
000316:
000317:    6305           12032                           TCF      XAD                                   #  10 - INDEX REGISTER ADD FROM ERASABLE.
000318:    6306           12043                           TCF      XSU                                   #  11 - INDEX SUBTRACT FROM ERASABLE.
000319:    6307           12107                           TCF      BZE/GOTO                              #  12 - BRANCH ZERO AND GOTO.
000320:    6310           12114                           TCF      BPL/BMN                               #  13 - BRANCH PLUS AND BRANCH MINUS.
000321:    6311           12127                           TCF      CALL/ITA                              #  14 - CALL AND STORE QPRET.
000322:    6312           12067                           TCF      RTB/BHIZ                              #  15 - RETURN TO BASIC AND BRANCH HI ZERO.
000323:    6313           12135                           TCF      SW/                                   #  16 - SWITCH INSTRUCTIONS AND AVAILABLE.
000324:    6314           12077                           TCF      BOV(B)                                #  17 - BRANCH ON OVERFLOW TO BASIC OR INT.
000325:
000326:                                                                                                  #           THE FOLLOWING JUMP TABLE APPIES TO UNARY INSTRUCTIONS.
000327:
000328:                                                                                                  #  00 - EXIT - DETECTED EARLIER.
000329:    6315           13135        UNAJUMP            TCF      SQRT                                  #  01 - SQUARE ROOT.
000330:    6316           13456                           TCF      SINE                                  #  02 - SIN.
000331:    6317           13445                           TCF      COSINE                                #  03 - COS.
000332:    6320           13536                           TCF      ARCSIN                                #  04 - ARC SIN.
000333:    6321           13540                           TCF      ARCCOS                                #  05 - ARC COS.
000334:    6322           13122                           TCF      DSQ                                   #  06 - DP SQUARE.
000335:    6323           12077                           TCF      ROUND                                 #  07 - ROUND TO DP.
000336:
000337:    6324           17611                           TCF      COMP                                  #  10 - COMPLEMENT VECTOR OR SCALAR.
000338:    6325           13160                           TCF      VDEF                                  #  11 - VECTOR DEFINE.
000339:    6326           12750                           TCF      UNIT                                  #  12 - UNIT VECTOR.
000340:    6327           13124                           TCF      ABVALABS                              #  13 - LENGTH OF VECTOR OR MAG OF SCALAR.
000341:    6330           13174                           TCF      VSQ                                   #  14 - SQUARE OF LENGTH OF VECTOR.
000342:    6331           16334                           TCF      STADR                                 #  15 - PUSH UP ON STORE CODE.
000343:    6332           13224                           TCF      RVQ                                   #  16 - RETURN VIA QPRET.
000344:    6333           13177                           TCF      PUSH                                  #  17 - PUSH MPAC DOWN.
000345:
000346:                                                                                                  #  SECTION 2  LOAD AND STORE PACKAGE.
000347:
000348:                                                                                                  #           A SET OF SIXTEEN STORE CODES ARE PROVIDED AS THE PRIMARY METHOD OF STORING THE MULTI-PURPOSE
000349:                                                                                                  #  ACCUMULATOR (MPAC). IF IN THE DANZIG SECTION LOC REFERS TO AN ALGEBRAICALLY POSITIVE WORD, IT IS TAKEN AS A
000350:                                                                                                  #  STORE CODE WITH A CORRESPONDING ERASABLE ADDRESS. MOST OF THESE CODES ARE TWO ADDRESS, SPECIFYING THAT THE WORD
000351:                                                                                                  #  FOLLOWING THE STORE CODE IS TO BE USED AS AN ADDRESS FROM WHICH TO RE-LOAD MPAC. FOUR OPTIONS ARE AVAILABLE:
000352:
000353:                                                                                                  #           1. STORE               STORE MPAC. THE E ADDRESS MAY BE INDEXED.
000354:                                                                                                  #           2. STODL               STORE MPAC AND RE-LOAD IT IN DP WITH THE NEXT ADDRESS (EITHER MAY BE INDEXED).
000355:                                                                                                  #           3. STOVL               STORE MPAC AND RE-LOAD A VECTOR (AS ABOVE).
000356:                                                                                                  #           4. STCALL              STORE AND DO A CALL (BOTH ADDRESSES MUST BE DIRECT HERE).
000357:
000358:                                                                                                  #           STODL AND STOVL WILL TAKE FROM THE PUSH-DOWN LIST IF NO LOAD ADDRESS IS GIVEN.
000359:
000360:
000361:
000362:    6334           30151        STADR              CA       BANKSET                               #  THE STADR CODE (PUSHUP UP ON STORE
000363:    6335           54004                           TS       FBANK                                 #  ADDRESS) ENTERS HERE.
000364:    6336           24150                           INCR     LOC
000365:    6337           50150                           INDEX    LOC                                   #  THE STORE CODE WAS STORE COMPLEMENTED TO
000366:    6340           40000                           CS       0                                     #  MAKE IT LOOK LIKE AN OPCODE PAIR.
000367:    6341           67661                           AD       NEGONE                                #  (YUL CANT REMOVE 1 BECAUSE OF EARLY CCS)
000368:
000369:    6342           54102        DOSTORE            TS       ADDRWD
000370:    6343           76426                           MASK     LOW10                                 #  ENTRY FROM DISPATCHER. SAVE THE ERASABLE
000371:    6344           56102                           XCH      ADDRWD                                #  ADDRESS AND JUMP ON THE STORE CODE NO.
000372:    6345           76233                           MASK     B11T14
000373:    6346           00006                           EXTEND
000374:    6347           77645                           MP       BIT6                                  #  EACH TRANSFER VECTOR ENTRY IS TWO WORDS.
000375:    6350           50000                           INDEX    A
000376:    6351           16352                           TCF      STORJUMP
000377:
000378:                                                                                                  #           STORE CODE JUMP TABLE. CALLS THE APPROPRIATE STORING ROUTINE AND EXITS TO DANZIG OR TO ADDRESS WITH
000379:                                                                                                  #  A SUPPLIED OPERATION CODE.
000380:
000381:    6352           06422        STORJUMP           TC       STORE                                 #  STORE.
000382:    6353           16022                           TCF      NEWOPS     -1                         #  PICK UP NEW OP CODE(S).
000383:    6354           06414                           TC       STORE,1
000384:    6355           16022                           TCF      NEWOPS     -1
000385:    6356           06417                           TC       STORE,2
000386:    6357           16022                           TCF      NEWOPS     -1
000387:
000388:    6360           06422                           TC       STORE                                 #  STODL.
000389:    6361           16455                           TCF      DODLOAD
000390:    6362           06414                           TC       STORE,1
000391:    6363           16455                           TCF      DODLOAD
000392:    6364           06417                           TC       STORE,2
000393:    6365           16455                           TCF      DODLOAD
000394:
000395:    6366           06422                           TC       STORE                                 #  STODL WITH INDEXED LOAD ADDRESS.
000396:    6367           16071                           TCF      DODLOAD*
000397:    6370           06414                           TC       STORE,1
000398:    6371           16071                           TCF      DODLOAD*
000399:    6372           06417                           TC       STORE,2
000400:    6373           16071                           TCF      DODLOAD*
000401:
000402:    6374           06422                           TC       STORE                                 #  STOVL.
000403:    6375           16460                           TCF      DOVLOAD
000404:    6376           06414                           TC       STORE,1
000405:    6377           16460                           TCF      DOVLOAD
000406:    6400           06417                           TC       STORE,2
000407:    6401           16460                           TCF      DOVLOAD
000408:
000409:    6402           06422                           TC       STORE                                 #  STOVL WITH INDEXED LOAD ADDRESS.
000410:    6403           16463                           TCF      DOVLOAD*
000411:    6404           06414                           TC       STORE,1
000412:    6405           16463                           TCF      DOVLOAD*
000413:    6406           06417                           TC       STORE,2
000414:    6407           16463                           TCF      DOVLOAD*
000415:
000416:    6410           06422                           TC       STORE                                 #  STOTC.
000417:    6411           37666                           CAF      CALLCODE
000418:    6412           54020                           TS       CYR
000419:    6413           16172                           TCF      15BITADR                              #  GET A 15 BIT ADDRESS.
000420:
000421:                                                                                                  #           STORE CODE ADDRESS PROCESSOR.
000422:
000423:    6414           50104        STORE,1            INDEX    FIXLOC
000424:    6415           40046                           CS       X1
000425:    6416           16421                           TCF      PRESTORE
000426:
000427:    6417           50104        STORE,2            INDEX    FIXLOC
000428:    6420           40047                           CS       X2
000429:    6421           26102        PRESTORE           ADS      ADDRWD                                #  RESULTANT ADDRESS IS IN ERASABLE.
000430:
000431:    6422           30102        STORE              CA       ADDRWD                                #  SEE IF ADDRESS RELATIVE TO WORK AREA.
000432:    6423           66171                           AD       -ENDVAC
000433:    6424           10000                           CCS      A
000434:    6425           16431                           TCF      STARTSTO                              #  ADDRESS OK AS IS.
000435:
000436:    6426           01777        LOW10              OCT      1777
000437:
000438:    6427           30104                           CA       FIXLOC                                #  GIVEN ADDRESS IS RELATIVE TO WORK AREA.
000439:    6430           26102                           ADS      ADDRWD
000440:
000441:                                                                                                  #           STORING ROUTINES. STORE DP, TP, OR VECTOR AS INDICATED BY MODE.
000442:
000443:    6431           00006        STARTSTO           EXTEND                                         #  MPAC,+1 MUST BE STORED IN ANY EVENT.
000444:    6432           30141                           DCA      MPAC
000445:    6433           50102                           INDEX    ADDRWD
000446:    6434           52001                           DXCH     0
000447:
000448:    6435           10147                           CCS      MODE
000449:    6436           16451                           TCF      TSTORE
000450:    6437           00002                           TC       Q
000451:
000452:    6440           00006        VSTORE             EXTEND
000453:    6441           30144                           DCA      MPAC       +3
000454:    6442           50102                           INDEX    ADDRWD
000455:    6443           52003                           DXCH     2
000456:
000457:    6444           00006                           EXTEND
000458:    6445           30146                           DCA      MPAC       +5
000459:    6446           50102                           INDEX    ADDRWD
000460:    6447           52005                           DXCH     4
000461:    6450           00002                           TC       Q
000462:
000463:    6451           30142        TSTORE             CA       MPAC       +2
000464:    6452           50102                           INDEX    ADDRWD
000465:    6453           54002                           TS       2
000466:    6454           00002                           TC       Q
000467:
000468:                                                                                                  #           ROUTINES TO BEGIN PROCESSING OF THE SECOND ADDRESS ASSOCIATED WITH ALL STORE-TYPE CODES EXCEPT STORE
000469:                                                                                                  #  ITSELF.
000470:
000471:    6455           37667        DODLOAD            CAF      DLOADCOD
000472:    6456           54020                           TS       CYR
000473:    6457           16041                           TCF      DIRADRES                              #  GO GET A DIRECT ADDRESS.
000474:
000475:    6460           37634        DOVLOAD            CAF      VLOADCOD
000476:    6461           54020                           TS       CYR
000477:    6462           16041                           TCF      DIRADRES
000478:
000479:    6463           36042        DOVLOAD*           CAF      VLOAD*
000480:    6464           16072                           TCF      DODLOAD*   +1                         #  PROLOGUE TO INDEX ROUTINE.
000481:
000482:                                                                                                  #           THE FOLLOWING LOAD INSTRUCTIONS ARE PROVIDED FOR LOADING THE MULTI-PURPOSE ACCUMULATOR MPAC.
000483:
000484:    6465           00006        DLOAD              EXTEND
000485:    6466           50102                           INDEX    ADDRWD
000486:    6467           30001                           DCA      0                                     #  PICK UP DP ARGUMENT AND LEAVE IT IN
000487:    6470           52141        SLOAD2             DXCH     MPAC                                  #  MPAC,+1, SETTING MPAC +2 TO ZERO. THE
000488:    6471           37657                           CAF      ZERO                                  #  CONTENTS OF THE OTHER FOUR REGISTERS OF
000489:    6472           54142                           TS       MPAC       +2                         #  MPAC ARE IRRELEVANT.
000490:    6473           16013                           TCF      NEWMODE                               #  DECLARE DOUBLE PRECISION MODE.
000491:
000492:    6474           50102        TLOAD              INDEX    ADDRWD
000493:    6475           30002                           CA       2                                     #  LOAD A TRIPLE PRECISION ARGUMENT INTO
000494:    6476           54142                           TS       MPAC       +2                         #  THE FIRST THREE MPAC REGISTERS, WITH THE
000495:    6477           00006                           EXTEND                                         #  CONTENTS OF THE OTHER FOUR IRRELEVANT.
000496:    6500           50102                           INDEX    ADDRWD
000497:    6501           30001                           DCA      0
000498:    6502           52141                           DXCH     MPAC
000499:    6503           37652                           CAF      ONE
000500:    6504           16013                           TCF      NEWMODE                               #  DECLARE TRIPLE PRECISION MODE.
000501:
000502:    6505           22007        SLOAD              ZL                                             #  LOAD A SINGLE PRECISION NUMBER INTO
000503:    6506           50102                           INDEX    ADDRWD                                #  MPAC, SETTING MPAC+1,2 TO ZERO. THE
000504:    6507           30000                           CA       0                                     #  CONTENTS OF THE REMAINING MPAC REGISTERS
000505:    6510           16470                           TCF      SLOAD2                                #  ARE IRRELEVANT.
000506:
000507:    6511           00006        VLOAD              EXTEND                                         #  LOAD A DOUBLE PRECISION VECTOR INTO
000508:    6512           50102                           INDEX    ADDRWD                                #  MPAC,+1, MPAC+3,4, AND MPAC+5,6. THE
000509:    6513           30001                           DCA      0                                     #  CONTENTS OF MPAC +2 ARE IRRELEVANT.
000510:    6514           52141                           DXCH     MPAC
000511:
000512:    6515           00006        ENDVLOAD           EXTEND                                         #  PDVL COMES HERE TO FINISH UP FOR DP, TP.
000513:    6516           50102                           INDEX    ADDRWD
000514:    6517           30003                           DCA      2
000515:    6520           52144                           DXCH     MPAC       +3
000516:
000517:    6521           00006                 +4        EXTEND                                         #  TPDVL FINISHES HERE.
000518:    6522           50102                           INDEX    ADDRWD
000519:    6523           30005                           DCA      4
000520:    6524           52146                           DXCH     MPAC       +5
000521:
000522:    6525           47652                           CS       ONE                                   #  DECLARE VECTOR MODE.
000523:    6526           16013                           TCF      NEWMODE
000524:
000525:                                                                                                  #           THE FOLLOWING INSTRUCTIONS ARE PROVIDED FOR STORING OPERANDS IN THE PUSHDOWN LIST:
000526:
000527:                                                                                                  #           1.  PUSH               PUSHDOWN AND NO LOAD.
000528:                                                                                                  #           2.  PDDL               PUSHDOWN AND DOUBLE PRECISION LOAD.
000529:                                                                                                  #           3.  PDVL               PUSHDOWN AND VECTOR LOAD.
000530:
000531:    6527           00006        PDDL               EXTEND
000532:    6530           50102                           INDEX    ADDRWD                                #  LOAD MPAC,+1, PUSHING THE FORMER
000533:    6531           30001                           DCA      0                                     #  CONTENTS DOWN.
000534:    6532           52141                           DXCH     MPAC
000535:    6533           50152                           INDEX    PUSHLOC
000536:    6534           52001                           DXCH     0
000537:
000538:    6535           50147                           INDEX    MODE                                  #  ADVANCE THE PUSHDOWN POINTER APPRO-
000539:    6536           36164                           CAF      NO.WDS                                #  PRIATELY.
000540:    6537           26152                           ADS      PUSHLOC
000541:
000542:    6540           10147                           CCS      MODE
000543:    6541           16556                           TCF      ENDTPUSH
000544:    6542           16554                           TCF      ENDDPUSH
000545:
000546:    6543           54147                           TS       MODE                                  #  NOW DP.
000547:    6544           54142        ENDVPUSH           TS       MPAC       +2
000548:    6545           52144                           DXCH     MPAC       +3                         #  PUSH DOWN THE REST OF THE VECTOR HERE.
000549:    6546           50152                           INDEX    PUSHLOC
000550:    6547           51775                           DXCH     0          -4
000551:
000552:    6550           52146                           DXCH     MPAC       +5
000553:    6551           50152                           INDEX    PUSHLOC
000554:    6552           51777                           DXCH     0          -2
000555:
000556:    6553           16014                           TCF      DANZIG
000557:
000558:    6554           54142        ENDDPUSH           TS       MPAC       +2                         #  SET MPAC +2 TO ZERO AND EXIT ON DP.
000559:    6555           16014                           TCF      DANZIG
000560:
000561:    6556           54147        ENDTPUSH           TS       MODE
000562:    6557           56142                           XCH      MPAC       +2                         #  ON TRIPLE, SET MPAC +2 TO ZERO, PUSHING
000563:    6560           50152                 +2        INDEX    PUSHLOC                               #  DOWN THE OLD CONTENTS
000564:    6561           53777                           TS       0          -1
000565:    6562           16014                           TCF      DANZIG
000566:
000567:                                                                                                  #           PDVL - PUSHDOWN AND VECTOR LOAD.
000568:
000569:    6563           00006        PDVL               EXTEND                                         #  RELOAD MPAC AND PUSH DOWN ITS CONTENTS.
000570:    6564           50102                           INDEX    ADDRWD
000571:    6565           30001                           DCA      0
000572:    6566           52141                           DXCH     MPAC
000573:    6567           50152                           INDEX    PUSHLOC
000574:    6570           52001                           DXCH     0
000575:
000576:    6571           50147                           INDEX    MODE                                  #  ADVANCE THE PUSHDOWN POINTER.
000577:    6572           36164                           CAF      NO.WDS
000578:    6573           26152                           ADS      PUSHLOC
000579:
000580:    6574           10147                           CCS      MODE                                  #  TEST PAST MODE.
000581:    6575           16614                           TCF      TPDVL
000582:    6576           16515                           TCF      ENDVLOAD                              #  JUST LOAD LAST FOUR REGISTERS ON DP.
000583:
000584:    6577           00006        VPDVL              EXTEND                                         #  PUSHDOWN AND RE-LOAD LAST TWO COMPONENTS
000585:    6600           50102                           INDEX    ADDRWD
000586:    6601           30003                           DCA      2
000587:    6602           52144                           DXCH     MPAC       +3
000588:    6603           50152                           INDEX    PUSHLOC
000589:    6604           51775                           DXCH     0          -4
000590:
000591:    6605           00006                           EXTEND
000592:    6606           50102                           INDEX    ADDRWD
000593:    6607           30005                           DCA      4
000594:    6610           52146                           DXCH     MPAC       +5
000595:    6611           50152                           INDEX    PUSHLOC
000596:    6612           51777                           DXCH     0          -2
000597:
000598:    6613           16014                           TCF      DANZIG
000599:
000600:    6614           00006        TPDVL              EXTEND                                         #  ON TP, WE MUST LOAD THE Y COMPONENT
000601:    6615           50102                           INDEX    ADDRWD                                #  BEFORE STORING MPAC +2 IN CASE THIS IS A
000602:    6616           30003                           DCA      2                                     #  PUSHUP.
000603:    6617           52144                           DXCH     MPAC       +3
000604:
000605:    6620           30142                           CA       MPAC       +2
000606:    6621           50152                           INDEX    PUSHLOC                               #  IN DP.
000607:    6622           53777                           TS       0          -1
000608:    6623           16521                           TCF      ENDVLOAD   +4
000609:
000610:                                                                                                  #           SSP (STORE SINGLE PRECISION) IS EXECUTED HERE.
000611:
000612:    6624           24150        SSP                INCR     LOC                                   #  PICK UP THE WORD FOLLOWING THE GIVEN
000613:    6625           50150                           INDEX    LOC                                   #  ADDRESS AND STORE IT AT X.
000614:    6626           30000                           CA       0
000615:    6627           50102        STORE1             INDEX    ADDRWD                                #  SOME INDEX AND MISCELLANEOUS OPS END
000616:    6630           54000                           TS       0                                     #  HERE.
000617:
000618:    6631           16014                           TCF      DANZIG
000619:
000620:                                                                                                  #  SEQUENCE CHANGING AND SUBROUTINE CALLING OPTIONS.
000621:
000622:                                                                                                  #           THE FOLLOWING OPERATIONS ARE AVAILABLE FOR SEQUENCING CHANGING, BRANCHING, AND CALLING SUBROUTINES:
000623:
000624:                                                                                                  #           1. GOTO                GO TO.
000625:                                                                                                  #           2. CALL                CALL SUBROUTINE SETTING QPRET.
000626:                                                                                                  #           3. CGOTO               COMPUTED GO TO.
000627:                                                                                                  #           4. CCALL               COMPUTED CALL.
000628:                                                                                                  #           7. BPL                 BRANCH IF MPAC POSITIVE OR ZERO.
000629:                                                                                                  #           8. BZE                 BRANCH IF MPAC ZERO.
000630:                                                                                                  #           9. BMN                 BRANCH IF MPAC NEGATIVE NON-ZERO.
000631:
000632:    6632           24150        CCALL              INCR     LOC                                   #  MAINTAIN LOC FOR QPRET COMPUTATION.
000633:    6633           50150                           INDEX    LOC
000634:    6634           30000                           CAF      0                                     #  GET BASE ADDRESS OF CADR LIST.
000635:    6635           50102                           INDEX    ADDRWD
000636:    6636           60000                           AD       0                                     #  ADD INCREMENT.
000637:    6637           54004                           TS       FBANK                                 #  SELECT DESIRED CADR.
000638:    6640           76426                           MASK     LOW10
000639:    6641           50000                           INDEX    A
000640:    6642           32000                           CAF      10000
000641:    6643           54103                 -1        TS       POLISH
000642:
000643:    6644           46426        CALL               CS       LOW10                                 #  FOR ANY OF THE CALL OPTIONS, MAKE UP THE
000644:    6645           60150                           AD       LOC                                   #  ADDRESS OF THE NEXT OP-CODE PAIR/STORE
000645:    6646           60151                           AD       BANKSET                               #  CODE AND LEAVE IT IN QPRET. NOTE THAT
000646:    6647           50104                           INDEX    FIXLOC                                #  LOW10 = 2000 - 1.
000647:    6650           54052                           TS       QPRET
000648:
000649:    6651           30103        GOTO               CA       POLISH                                #  BASIC BRANCHING SEQUENCE.
000650:    6652           54004                           TS       FBANK
000651:    6653           76426                           MASK     LOW10                                 #  MAKE UP 12 BIT SUB-ADDRESS AND FALL INTO
000652:    6654           67640                           AD       2K                                    #  FALL INTO THE INTPRET ENTRY UNLESS THE
000653:    6655           54150                           TS       LOC                                   #  GIVEN ADDRESS WAS IN ERASABLE, IN WHICH
000654:    6656           10004                           CCS      FBANK                                 #  CASE IT IS USED AS THE ADDRESS OF THE
000655:    6657           16002                           TCF      INTPRET    +2                         #  BRANCH ADDRESS.
000656:    6660           16662                           TCF      +2
000657:    6661           16002                           TCF      INTPRET    +2
000658:
000659:    6662           40150                           CS       LOC                                   #  THE GIVEN ADDRESS IS IN ERASABLE - SEE
000660:    6663           66710                           AD       EVAC+2K                               #  IF RELATIVE TO THE WORK AREA.
000661:    6664           10000                           CCS      A
000662:    6665           30104                           CA       FIXLOC                                #  ADD FIXLOC IF SO.
000663:    6666           26150                           ADS      LOC
000664:
000665:    6667           50150                           INDEX    LOC
000666:    6670           26000                           CA       0          -2000                      #  (ADDRESS HAD BEEN AUGMENTED BY 2000.)
000667:    6671           16652                           TCF      GOTO       +1                         #  ALLOWS ARBITRARY INDIRECTNESS.
000668:
000669:    6672           50150        CGOTO              INDEX    LOC                                   #  COMPUTED GO TO. PICK UP ADDRESS OF CADR
000670:    6673           30001                           CA       1                                     #  LIST.
000671:    6674           50102                           INDEX    ADDRWD                                #  ADD MODIFIER.
000672:    6675           60000                           AD       0
000673:    6676           54004                           TS       FBANK                                 #  SELECT GOTO ADDRESS.
000674:    6677           76426                           MASK     LOW10
000675:    6700           50000                           INDEX    A
000676:    6701           32000                           CA       10000
000677:    6702           16652                           TCF      GOTO       +1                         #  WITH ADDRESS IN A.
000678:
000679:    6703           30151        SWBRANCH           CA       BANKSET                               #  SWITCH INSTRUCTIONS WHICH ELECT TO
000680:    6704           54004                           TS       FBANK                                 #  BRANCH COME HERE TO DO SO.
000681:    6705           50150                           INDEX    LOC
000682:    6706           30001                           CA       1
000683:    6707           16652                           TCF      GOTO       +1
000684:
000685:    6710           02055        EVAC+2K            DEC      1069       B-14                       #  =1024+45
000686:
000687:                                                                                                  #           TRIPLE PRECISION BRANCHING ROUTINE. IF CALLING TC IS AT L, RETURN IS AS FOLLOWS:
000688:                                                                                                  #           L+1  IF MPAC IS GREATER THAN ZERO.
000689:                                                                                                  #           L+2  IF MPAC IS EQUAL TO +0 OR -0.
000690:                                                                                                  #           L+3  IF MPAC IS LESS THAN ZERO.
000691:
000692:
000693:
000694:    6711           10140        BRANCH             CCS      MPAC
000695:    6712           00002                           TC       Q
000696:    6713           16715                           TCF      +2                                    #  ON ZERO.
000697:    6714           16727                           TCF      NEG
000698:
000699:    6715           10141                           CCS      MPAC       +1
000700:    6716           00002                           TC       Q
000701:    6717           16721                           TCF      +2
000702:    6720           16727                           TCF      NEG
000703:
000704:    6721           10142                           CCS      MPAC       +2
000705:    6722           00002                           TC       Q
000706:    6723           16725                           TCF      +2
000707:    6724           16727                           TCF      NEG
000708:
000709:    6725           50002                           INDEX    Q                                     #  IF ALL THREE REGISTERS WERE +-0.
000710:    6726           00001                           TC       1
000711:
000712:    6727           50002        NEG                INDEX    Q                                     #  IF FIRST NON-ZERO REGISTER WAS NEGATIVE.
000713:    6730           00002                           TC       2
000714:
000715:
000716:
000717:    6731           50150        EXIT               INDEX    LOC                                   #  LEAVE INTERPRETIVE MODE.
000718:    6732           10001                           TCF      1
000719:
000720:                                                                                                  #  SECTION 3 - ADD/SUBTRACT PACKAGE.
000721:
000722:                                                                                                  #           THE FOLLOWING OPERATIONS ARE PROVIDED FOR ADDING TO AND SUBTRACTING FROM THE MULTI-PURPOSE ACCUMULATOR
000723:                                                                                                  #  MPAC:
000724:
000725:                                                                                                  #           1. DAD                 DOUBLE PRECISION ADD.
000726:                                                                                                  #           2. DSU                 DOUBLE PRECISION SUBTRACT.
000727:                                                                                                  #           3. BDSU                DOUBLE PRECISION SUBTRACT FROM.
000728:
000729:                                                                                                  #           4. TAD                 TRIPLE PRECISION ADD.
000730:
000731:                                                                                                  #           5. VAD                 VECTOR ADD.
000732:                                                                                                  #           6. VSU                 VECTOR SUBTRACT.
000733:                                                                                                  #           7. BVSU                VECTOR SUBTRACT FROM.
000734:
000735:                                                                                                  #  THE INTERPRETIVE OVERFLOW INDICATOR OVFIND IS SET NON-ZERO IF OVERFLOW OCCURS IN ANY OF THE ABOVE.
000736:
000737:
000738:
000739:    6733           00006        VAD                EXTEND
000740:    6734           50102                           INDEX    ADDRWD
000741:    6735           30003                           DCA      2
000742:    6736           20144                           DAS      MPAC       +3
000743:    6737           00006                           EXTEND                                         #  CHECK OVERFLOW.
000744:    6740           16742                           BZF      +2
000745:    6741           07007                           TC       OVERFLOW
000746:
000747:    6742           00006                           EXTEND
000748:    6743           50102                           INDEX    ADDRWD
000749:    6744           30005                           DCA      4
000750:    6745           20146                           DAS      MPAC       +5
000751:    6746           00006                           EXTEND
000752:    6747           16751                           BZF      +2
000753:    6750           07007                           TC       OVERFLOW
000754:
000755:    6751           00006        DAD                EXTEND
000756:    6752           50102                           INDEX    ADDRWD
000757:    6753           30001                           DCA      0
000758:    6754           20141        ENDVXV             DAS      MPAC                                  #  VXV FINISHES HERE.
000759:    6755           00006                           EXTEND
000760:    6756           16014                           BZF      DANZIG
000761:    6757           07007                           TC       OVERFLOW
000762:    6760           16014                           TCF      DANZIG
000763:
000764:    6761           00006        VSU                EXTEND
000765:    6762           50102                           INDEX    ADDRWD
000766:    6763           40003                           DCS      2
000767:    6764           20144                           DAS      MPAC       +3
000768:    6765           00006                           EXTEND
000769:    6766           16770                           BZF      +2
000770:    6767           07007                           TC       OVERFLOW
000771:
000772:    6770           00006                           EXTEND
000773:    6771           50102                           INDEX    ADDRWD
000774:    6772           40005                           DCS      4
000775:    6773           20146                           DAS      MPAC       +5
000776:    6774           00006                           EXTEND
000777:    6775           16777                           BZF      +2
000778:    6776           07007                           TC       OVERFLOW
000779:
000780:    6777           00006        DSU                EXTEND
000781:    7000           50102                           INDEX    ADDRWD
000782:    7001           40001                           DCS      0
000783:    7002           20141                           DAS      MPAC
000784:    7003           00006                           EXTEND
000785:    7004           16014                           BZF      DANZIG
000786:    7005           07007                           TC       OVERFLOW
000787:    7006           16014                           TCF      DANZIG
000788:
000789:    7007           37652        OVERFLOW           CAF      ONE                                   #  SUBROUTINE TO TURN OVFIND ON.
000790:    7010           17132                           TCF      SETOVF2
000791:
000792:    7011           00006        BVSU               EXTEND
000793:    7012           50102                           INDEX    ADDRWD
000794:    7013           30003                           DCA      2
000795:    7014           52144                           DXCH     MPAC       +3
000796:    7015           00006                           EXTEND
000797:    7016           40001                           DCOM
000798:    7017           20144                           DAS      MPAC       +3
000799:    7020           00006                           EXTEND
000800:    7021           17023                           BZF      +2
000801:    7022           07007                           TC       OVERFLOW
000802:
000803:    7023           00006                           EXTEND
000804:    7024           50102                           INDEX    ADDRWD
000805:    7025           30005                           DCA      4
000806:    7026           52146                           DXCH     MPAC       +5
000807:    7027           00006                           EXTEND
000808:    7030           40001                           DCOM
000809:    7031           20146                           DAS      MPAC       +5
000810:    7032           00006                           EXTEND
000811:    7033           17035                           BZF      +2
000812:    7034           07007                           TC       OVERFLOW
000813:
000814:    7035           00006        BDSU               EXTEND
000815:    7036           50102                           INDEX    ADDRWD
000816:    7037           30001                           DCA      0
000817:    7040           52141                           DXCH     MPAC
000818:    7041           00006                           EXTEND
000819:    7042           40001                           DCOM
000820:    7043           20141                           DAS      MPAC
000821:    7044           00006                           EXTEND
000822:    7045           16014                           BZF      DANZIG
000823:    7046           07007                           TC       OVERFLOW
000824:    7047           16014                           TCF      DANZIG
000825:
000826:                                                                                                  #           TRIPLE PRECISION ADD ROUTINE.
000827:
000828:    7050           00006        TAD                EXTEND
000829:    7051           50102                           INDEX    ADDRWD
000830:    7052           30002                           DCA      1                                     #  ADD MINOR PARTS FIRST.
000831:    7053           20142                           DAS      MPAC       +1
000832:    7054           50102                           INDEX    ADDRWD
000833:    7055           60000                           AD       0
000834:    7056           60140                           AD       MPAC
000835:    7057           54140                           TS       MPAC
000836:    7060           16014                           TCF      DANZIG
000837:
000838:    7061           54105        SETOVF             TS       OVFIND                                #  SET OVFIND IF SUCH OCCURS.
000839:    7062           16014                           TCF      DANZIG
000840:
000841:                                                                                                  #  ARITHMETIC SUBROUTINES REQUIRED IN FIXED-FIXED.
000842:
000843:                                                                                                  #           1.  DMPSUB     DOUBLE PRECISION MULTIPLY. MULTIPLY THE CONTENTS OF MPAC,+1 BY THE DP WORD WHOSE ADDRESS
000844:                                                                                                  #                          IS IN ADDRWD AND LEAVE A TRIPLE PRECISION RESULT IN MPAC.
000845:                                                                                                  #           2.  ROUNDSUB   ROUND THE TRIPLE PRECISON CONTENTS OF MPAC TO DOUBLE PRECISION.
000846:                                                                                                  #           3.  DOTSUB     TAKE THE DOT PRODUCT OF THE VECTOR IN MPAC AND THE VECTOR WHOSE ADDRESS IS IN ADDRWD
000847:                                                                                                  #                          AND LEAVE THE TRIPLE PRECISION RESULT IN MPAC.
000848:                                                                                                  #           4.  POLY       USING THE CONTENTS OF MPAC AS A DP ARGUMENT, EVALUATE THE POLYNOMIAL WHOSE DEGREE AND
000849:                                                                                                  #                          COEFFICIENTS IMMEDIATELY FOLLOW THE TC POLY INSTRUCTION (SEE ROUTINE FOR DETAILS).
000850:
000851:
000852:
000853:    7063           50002        DMP                INDEX    Q                                     #  BASIC SUBROUTINE FOR USE BY PINBALL, ETC
000854:    7064           30000                           CAF      0                                     #  ADRES OF ARGUMENT FOLLOWS  TC DMP  .
000855:    7065           24002                           INCR     Q
000856:    7066           54102                 -1        TS       ADDRWD                                #  (PROLOGUE FOR SETTING ADDRWD.)
000857:
000858:    7067           50102        DMPSUB             INDEX    ADDRWD                                #  GET MINOR PART OF OPERAND AT C(ADDRWD).
000859:    7070           30001                           CA       1
000860:    7071           54142                           TS       MPAC       +2                         #  THIS WORKS FOR SQUARING MPAC AS WELL.
000861:    7072           37657                           CAF      ZERO                                  #  SET MPAC +1 TO ZERO SO WE CAN ACCUMULATE
000862:    7073           56141                           XCH      MPAC       +1                         #  THE PARTIAL PRODUCTS WITH DAS
000863:    7074           54121                           TS       MPTEMP                                #  INSTRUCTIONS.
000864:    7075           00006                           EXTEND
000865:    7076           70142                           MP       MPAC       +2                         #  MINOR OF MPAC X MINOR OF C(ADDRWD).
000866:
000867:    7077           56142                           XCH      MPAC       +2                         #  DISCARD MINOR PART OF ABOVE RESULT AND
000868:    7100           00006                           EXTEND                                         #  FORM MAJOR OF MPAC X MINOR OF C(ADDRWD).
000869:    7101           70140                           MP       MPAC
000870:    7102           20142                           DAS      MPAC       +1                         #  GUARANTEED NO OVERFLOW.
000871:
000872:    7103           50102                           INDEX    ADDRWD                                #  GET MAJOR PART OF ARGUMENT AT C(ADDRWD).
000873:    7104           30000                           CA       0
000874:    7105           56121                           XCH      MPTEMP                                #  SAVE AND BRING OUT MINOR OF MPAC.
000875:    7106           00006                           EXTEND
000876:    7107           70121                           MP       MPTEMP                                #  MAJOR OF C(ADDRWD) X MINOR OF MPAC.
000877:    7110           20142                           DAS      MPAC       +1                         #  ACCUMULATE, SETTING A TO NET OVERFLOW.
000878:
000879:    7111           56140                           XCH      MPAC                                  #  SETTING MPAC TO 0 OR +-1.
000880:    7112           00006                           EXTEND
000881:    7113           70121                           MP       MPTEMP                                #  MAJOR OF MPAC X MAJOR OF C(ADDRWD).
000882:    7114           20141                           DAS      MPAC                                  #  GUARANTEED NO OVERFLOW.
000883:    7115           00002                           TC       Q                                     #  49 MCT = .573 MS. INCLUDING RETURN.
000884:
000885:                                                                                                  #           ROUND MPAC TO DOUBLE PRECISION, SETTING OVFIND ON THE RARE EVENT OF OVERFLOW.
000886:
000887:    7116           37657        ROUNDSUB           CAF      ZERO                                  #  SET MPAC +2 = 0 FOR SCALARS AND CHANGE
000888:    7117           54147                 +1        TS       MODE                                  #  MODE TO DP.
000889:
000890:    7120           56142        VROUND             XCH      MPAC       +2                         #  BUT WE NEEDNT TAKE THE TIME FOR VECTORS.
000891:    7121           60000                           DOUBLE
000892:    7122           54001                           TS       L
000893:    7123           00002                           TC       Q
000894:
000895:    7124           60141                           AD       MPAC       +1                         #  ADD ROUNDING BIT IF MPAC +2 WAS GREATER
000896:    7125           54141                           TS       MPAC       +1                         #  THAN .5 IN MAGNITUDE.
000897:    7126           00002                           TC       Q
000898:
000899:    7127           60140                           AD       MPAC                                  #  PROPAGATE INTERFLOW.
000900:    7130           54140                           TS       MPAC
000901:    7131           00002                           TC       Q
000902:
000903:    7132           54105        SETOVF2            TS       OVFIND                                #  (RARE).
000904:    7133           00002                           TC       Q
000905:
000906:                                                                                                  #           THE DOT PRODUCT SUBROUTINE USUALLY FORMS THE DOT PRODUCT OF THE VECTOR IN MPAC WITH A STANDARD SIX
000907:                                                                                                  #  REGISTER VECTOR WHOSE ADDRESS IS IN ADDRWD. IN THIS CASE C(DOTINC) ARE SET TO 2. VXM, HOWEVER, SETS C(DOTINC) TO
000908:                                                                                                  #  6 SO THAT DOTSUB DOTS MPAC WITH A COLUMN VECTOR OF THE MATRIX IN QUESTION IN THIS CASE.
000909:
000910:
000911:
000912:    7134           37651        PREDOT             CAF      TWO                                   #  PROLOGUE TO SET DOTINC TO 2.
000913:    7135           54122                           TS       DOTINC
000914:
000915:    7136           00006        DOTSUB             EXTEND
000916:    7137           22123                           QXCH     DOTRET                                #  SAVE RETURN.
000917:    7140           07067                           TC       DMPSUB                                #  DOT X COMPONENTS.
000918:    7141           52144                           DXCH     MPAC       +3                         #  POSITION Y COMPONENT OF MPAC FOR
000919:    7142           52141                           DXCH     MPAC                                  #  MULTIPLICATION WHILE SAVING RESULT IN
000920:    7143           52115                           DXCH     BUF                                   #  THREE WORD BUFFER, BUF.
000921:    7144           30142                           CA       MPAC       +2
000922:    7145           54116                           TS       BUF        +2
000923:
000924:    7146           30122                           CA       DOTINC                                #  ADVANCE ADDRWD TO Y COMPONENT OF
000925:    7147           26102                           ADS      ADDRWD                                #  OTHER ARGUMENT.
000926:    7150           07067                           TC       DMPSUB
000927:    7151           52142                           DXCH     MPAC       +1                         #  ACCUMULATE PARTIAL PRODUCTS.
000928:    7152           20116                           DAS      BUF        +1
000929:    7153           60140                           AD       MPAC
000930:    7154           60114                           AD       BUF
000931:    7155           54114                           TS       BUF
000932:    7156           17160                           TCF      +2
000933:    7157           54105                           TS       OVFIND                                #  IF OVERFLOW OCCURS.
000934:
000935:    7160           52146                           DXCH     MPAC       +5                         #  MULTIPLY Z COMPONENTS.
000936:    7161           52141                           DXCH     MPAC
000937:    7162           30122                           CA       DOTINC
000938:    7163           26102                           ADS      ADDRWD
000939:    7164           07067                           TC       DMPSUB
000940:    7165           52116        ENDDOT             DXCH     BUF        +1                         #  LEAVE FINAL ACCUMULATION IN MPAC.
000941:    7166           20142                           DAS      MPAC       +1
000942:    7167           60140                           AD       MPAC
000943:    7170           60114                           AD       BUF
000944:    7171           54140                           TS       MPAC
000945:    7172           00123                           TC       DOTRET
000946:
000947:    7173           54105                           TS       OVFIND                                #  ON OVERFLOW HERE.
000948:    7174           00123                           TC       DOTRET
000949:
000950:                                                                                                  #  DOUBLE PRECISION POLYNOMIAL EVALUATOR.
000951:
000952:                                                                                                  #                                     N        N-1
000953:                                                                                                  #           THIS ROUTINE EVALUATES A X  + A   X    + ... + A X + A LEAVING THE DP RESULT IN MPAC ON EXIT.
000954:                                                                                                  #                                   N      N-1              1     0
000955:
000956:                                                                                                  #  IT IS ASSUMED THAT X ARRIVES IN MPAC AND N AND THE COEFFICIENTS IN THE CALLING SEQUENCE AS FOLLOWS:
000957:
000958:                                                                                                  #                                          L        TC     POLY
000959:                                                                                                  #                                          L+1      DEC    N-1
000960:                                                                                                  #                                          L+2      2DEC   A(0)
000961:                                                                                                  #                                                   ...
000962:                                                                                                  #                                          L+2N+2   2DEC   A(N)            RETURN IS TO L+2N+4.
000963:
000964:    7175           37671        POLY               CAF      LVBUF                                 #  INCOMING X WILL BE STORED IN VBUF, SO
000965:    7176           54102                           TS       ADDRWD                                #  SET ADDRWD SO DMPSUB WILL MPY BY VBUF.
000966:
000967:    7177           50002                           INDEX    Q
000968:    7200           30000                           CAF      0
000969:    7201           54124                           TS       POLYCNT                               #  N-1 TO COUNTER.
000970:    7202           60000                           DOUBLE
000971:    7203           60002                           AD       Q
000972:    7204           54125                           TS       POLYRET                               #  SAVE L+2N-1 FOR RETURN
000973:    7205           54103                           TS       POLISH                                #  AND FOR REFERENCING COEFFICIENTS.
000974:
000975:    7206           00006                           EXTEND
000976:    7207           50000                           INDEX    A                                     #  LOAD A(N) INTO MPAC, SAVING MPAC IN
000977:    7210           30004                           DCA      3                                     #  VBUF.
000978:    7211           52141                           DXCH     MPAC
000979:    7212           52107                           DXCH     VBUF
000980:    7213           17217                           TCF      POLY2                                 #  NO ZERO-ORDER POLYNOMIALS ALLOWED.
000981:
000982:    7214           54124        POLYLOOP           TS       POLYCNT                               #  SAVE DECREMENTED LOOP COUNTER.
000983:    7215           47651                           CS       TWO                                   #  REGRESS COEFFICIENT POINTER.
000984:    7216           26103                           ADS      POLISH
000985:
000986:    7217           07067        POLY2              TC       DMPSUB                                #  MULTIPLY BY X.
000987:    7220           00006                           EXTEND
000988:    7221           50103                           INDEX    POLISH                                #  ADD IN NEXT COEFFICIENT.
000989:    7222           30002                           DCA      1
000990:    7223           20141                           DAS      MPAC                                  #  NO CHECK FOR OVERFLOW SINCE SIN, ETC.,
000991:                                                                                                  #  SHOULD NOT OVERFLOW.
000992:    7224           10124                           CCS      POLYCNT                               #  LOOP ON COUNTER.
000993:    7225           17214                           TCF      POLYLOOP
000994:    7226           50125                           INDEX    POLYRET                               #  DONE - RETURN TO CALLER AT L+2N+4.
000995:    7227           00005        FIVE               TC       5
000996:
000997:                                                                                                  #           MISCELLANEOUS MULTI-PRECISION ROUTINES REQUIRED IN FIXED-FIXED BUT NOT USED BY THE INTERPRETER.
000998:
000999:    7230           00006        TPAGREE            EXTEND                                         #  FORCE SIGN AGREEMENT AMONG THE TRIPLE-
001000:    7231           22114                           QXCH     BUF                                   #  PRECISION CONTENTS OF MPAC, RETURNING
001001:    7232           06711                           TC       BRANCH                                #  WITH THE SIGNUM OF THE INPUT IN A.
001002:    7233           17237                           TCF      ARG+
001003:    7234           17257                           TCF      ARGZERO
001004:
001005:    7235           47632                           CS       POSMAX                                #  IF NEGATIVE.
001006:    7236           17240                           TCF      +2
001007:
001008:    7237           37632        ARG+               CAF      POSMAX
001009:    7240           54115                 +2        TS       BUF        +1
001010:    7241           00006                           EXTEND
001011:    7242           24000                           AUG      A                                     #  FORMS +-1.0.
001012:    7243           60142                           AD       MPAC       +2
001013:    7244           54142                           TS       MPAC       +2
001014:    7245           37657                           CAF      ZERO
001015:    7246           60115                           AD       BUF        +1
001016:    7247           60141                           AD       MPAC       +1
001017:    7250           54141                           TS       MPAC       +1
001018:    7251           37657                           CAF      ZERO
001019:    7252           60115                           AD       BUF        +1
001020:    7253           60140                           AD       MPAC
001021:    7254           54140        ARGZERO2           TS       MPAC                                  #  ALWAYS SKIPPING UNLESS ARGZERO.
001022:    7255           54141                           TS       MPAC       +1
001023:    7256           00114                           TC       BUF                                   #  RETURN.
001024:
001025:    7257           54142        ARGZERO            TS       MPAC       +2                         #  SET ALL THREE MPAC REGISTERS TO ZERO.
001026:    7260           17254                           TCF      ARGZERO2
001027:
001028:                                                                                                  #           SHORTMP MULTIPLIES THE TP CONTENTS OF MPAC BY THE SINGLE PRECISION NUMBER ARRIVING IN A.
001029:
001030:    7261           54121        SHORTMP            TS       MPTEMP
001031:    7262           00006                           EXTEND
001032:    7263           70142                           MP       MPAC       +2
001033:    7264           54142                           TS       MPAC       +2
001034:    7265           37657                           CAF      ZERO                                  #  SO SUBSEQUENT DAS WILL WORK.
001035:    7266           56141                           XCH      MPAC       +1
001036:    7267           00006                           EXTEND
001037:    7270           70121                           MP       MPTEMP
001038:    7271           20142                           DAS      MPAC       +1
001039:    7272           56140                           XCH      MPAC                                  #  SETTING MPAC TO 0.
001040:    7273           00006                           EXTEND
001041:    7274           70121                           MP       MPTEMP
001042:    7275           20141                           DAS      MPAC
001043:    7276           00002                           TC       Q
001044:
001045:                                                                                                  #  MISCELLANEOUS VECTOR OPERATIONS. INCLUDED HERE ARE THE FOLLOWING:
001046:
001047:                                                                                                  #           1.  DOT                DP VECTOR DOT PRODUCT.
001048:                                                                                                  #           2.  VXV                DP VECTOR CROSS PRODUCT.
001049:                                                                                                  #           3.  VXSC               DP VECTOR TIMES SCALAR.
001050:                                                                                                  #           4.  V/SC               DP VECTOR DIVIDED BY SCALAR.
001051:                                                                                                  #           5.  VPROJ              DP VECTOR PROJECTION. ( (MPAC.X)MPAC ).
001052:                                                                                                  #           6.  VXM                DP VECTOR POST-MULTIPLIED BY MATRIX.
001053:                                                                                                  #           7.  MXV                DP VECTOR PRE-MULTIPLIED BY MATRIX.
001054:
001055:    7277           07134        DOT                TC       PREDOT                                #  DO THE DOT PRODUCT AND EXIT, CHANGING
001056:    7300           37657                           CAF      ZERO                                  #  THE MODE TO DP SCALAR.
001057:    7301           16013                           TCF      NEWMODE
001058:
001059:
001060:
001061:    7302           37651        MXV                CAF      TWO                                   #  SET UP MATINC AND DOTINC FOR ROW
001062:    7303           54124                           TS       MATINC                                #  VECTORS.
001063:    7304           17310                           TCF      VXM/MXV                               #  GO TO COMMON PORTION.
001064:
001065:    7305           47654        VXM                CS       TEN                                   #  SET MATINC AND DOTINC TO REFER TO MATRIX
001066:    7306           54124                           TS       MATINC                                #  AS THREE COLUMN VECTORS.
001067:    7307           36162                           CAF      SIX
001068:
001069:                                                                                                  #           COMMON PORTION OF MXV AND VXM.
001070:
001071:    7310           54122        VXM/MXV            TS       DOTINC
001072:    7311           07501                           TC       MPACVBUF                              #  SAVE VECTOR IN MPAC FOR FURTHER USE.
001073:
001074:    7312           07136                           TC       DOTSUB                                #  GO DOT TO GET X COMPONENT OF ANSWER.
001075:    7313           00006                           EXTEND
001076:    7314           30107                           DCA      VBUF                                  #  MOVE MPAC VECTOR BACK INTO MPAC, SAVING
001077:    7315           52141                           DXCH     MPAC                                  #  NEW X COMPONENT IN BUF2.
001078:    7316           52120                           DXCH     BUF2
001079:    7317           00006                           EXTEND
001080:    7320           30111                           DCA      VBUF       +2
001081:    7321           52144                           DXCH     MPAC       +3
001082:    7322           00006                           EXTEND
001083:    7323           30113                           DCA      VBUF       +4
001084:    7324           52146                           DXCH     MPAC       +5
001085:    7325           30124                           CA       MATINC                                #  INITIALIZE ADDRWD FOR NEXT DOT PRODUCT.
001086:    7326           26102                           ADS      ADDRWD                                #  FORMS BASE ADDRESS OF NEXT COLUMN(ROW).
001087:
001088:    7327           07136                           TC       DOTSUB
001089:    7330           52107                           DXCH     VBUF                                  #  MOVE GIVEN VECTOR BACK TO MPAC, SAVING Y
001090:    7331           52141                           DXCH     MPAC                                  #  COMPONENT OF ANSWER IN VBUF +2.
001091:    7332           52111                           DXCH     VBUF       +2
001092:    7333           52144                           DXCH     MPAC       +3
001093:    7334           52113                           DXCH     VBUF       +4
001094:    7335           52146                           DXCH     MPAC       +5
001095:    7336           30124                           CA       MATINC                                #  FORM ADDRESS OF LAST COLUMN OR ROW.
001096:    7337           26102                           ADS      ADDRWD
001097:
001098:    7340           07136                           TC       DOTSUB
001099:    7341           52120                           DXCH     BUF2                                  #  ANSWER NOW COMPLETE. PUT COMPONENTS INTO
001100:    7342           52141                           DXCH     MPAC                                  #  PROPER MPAC REGISTERS.
001101:    7343           52146                           DXCH     MPAC       +5
001102:    7344           52111                           DXCH     VBUF       +2
001103:    7345           52144                           DXCH     MPAC       +3
001104:    7346           16014                           TCF      DANZIG                                #  EXIT.
001105:
001106:                                                                                                  #           VXSC - VECTOR TIMES SCALAR.
001107:
001108:    7347           10147        VXSC               CCS      MODE                                  #  TEST PRESENT MODE.
001109:    7350           17376                           TCF      DVXSC                                 #  SEPARATE ROUTINE WHEN SCALAR IS IN MPAC.
001110:    7351           17376                           TCF      DVXSC
001111:
001112:    7352           07067        VVXSC              TC       DMPSUB                                #  COMPUTE X COMPONENT
001113:    7353           07120                           TC       VROUND                                #  AND ROUND IT.
001114:    7354           52144                           DXCH     MPAC       +3                         #  PUT Y COMPONENT INTO MPAC SAVING MPAC IN
001115:    7355           52141                           DXCH     MPAC                                  #  MPAC +3.
001116:    7356           52144                           DXCH     MPAC       +3
001117:
001118:    7357           07067                           TC       DMPSUB                                #  DO SAME FOR Y AND Z COMPONENTS.
001119:    7360           07120                           TC       VROUND
001120:    7361           52146                           DXCH     MPAC       +5
001121:    7362           52141                           DXCH     MPAC
001122:    7363           52146                           DXCH     MPAC       +5
001123:
001124:    7364           07067                           TC       DMPSUB
001125:    7365           07120                           TC       VROUND
001126:    7366           52141        VROTATEX           DXCH     MPAC                                  #  EXIT USED TO RESTORE MPAC AFTER THIS
001127:    7367           52146                           DXCH     MPAC       +5                         #  TYPE OF ROTATION. CALLED BY VECTOR SHIFT
001128:    7370           52144                           DXCH     MPAC       +3                         #  RIGHT, V/SC, ETC.
001129:    7371           52141                           DXCH     MPAC
001130:    7372           16014                           TCF      DANZIG
001131:
001132:                                                                                                  #           DP VECTOR PROJECTION ROUTINE.
001133:
001134:
001135:
001136:    7373           07134        VPROJ              TC       PREDOT                                #  (MPAC.X)MPAC IS COMPUTED AND LEFT IN
001137:    7374           47650                           CS       FOUR                                  #  MPAC. DO DOT AND FALL INTO DVXSC.
001138:    7375           26102                           ADS      ADDRWD
001139:
001140:                                                                                                  #           VXSC WHEN SCALAR ARRIVES IN MPAC AND VECTOR IS AT X.
001141:
001142:    7376           00006        DVXSC              EXTEND                                         #  SAVE SCALAR IN MPAC +3 AND GET X
001143:    7377           30141                           DCA      MPAC                                  #  COMPONENT OF ANSWER.
001144:    7400           52144                           DXCH     MPAC       +3
001145:    7401           07067                           TC       DMPSUB
001146:    7402           07120                           TC       VROUND
001147:
001148:    7403           37651                           CAF      TWO                                   #  ADVANCE ADDRWD TO Y COMPONENT OF X.
001149:    7404           26102                           ADS      ADDRWD
001150:    7405           00006                           EXTEND
001151:    7406           30144                           DCA      MPAC       +3                         #  PUT SCALAR BACK INTO MPAC AND SAVE
001152:    7407           52141                           DXCH     MPAC                                  #  X RESULT IN MPAC +5.
001153:    7410           52146                           DXCH     MPAC       +5
001154:    7411           07067                           TC       DMPSUB
001155:    7412           07120                           TC       VROUND
001156:
001157:    7413           37651                           CAF      TWO
001158:    7414           26102                           ADS      ADDRWD                                #  TO Z COMPONENT.
001159:    7415           52144                           DXCH     MPAC       +3                         #  BRING SCALAR BACK, PUTTING Y RESULT IN
001160:    7416           52141                           DXCH     MPAC                                  #  THE PROPER PLACE.
001161:    7417           52144                           DXCH     MPAC       +3
001162:    7420           07067                           TC       DMPSUB
001163:    7421           07120                           TC       VROUND
001164:
001165:    7422           52141                           DXCH     MPAC                                  #  PUT Z COMPONENT IN PROPER PLACE, ALSO
001166:    7423           52146                           DXCH     MPAC       +5                         #  POSITIONING X.
001167:    7424           52141                           DXCH     MPAC
001168:
001169:    7425           47652                           CS       ONE                                   #  MODE HAS CHANGED TO VECTOR.
001170:    7426           16013                           TCF      NEWMODE
001171:
001172:                                                                                                  #           THE VECTOR CROSS PRODUCT ROUTINE CALCULATES (X M -X M ,X M -X M ,X M -X M ) WHERE M IS THE VECTOR IN
001173:                                                                                                  #                                                         3 2  2 3  1 3  3 1  2 1  1 2
001174:                                                                                                  #  MPAC AND X THE VECTOR AT THE GIVEN ADDRESS.
001175:
001176:
001177:
001178:    7427           00006        VXV                EXTEND
001179:    7430           30146                           DCA      MPAC       +5                         #  FORM UP M3X1, LEAVING M1 IN VBUF.
001180:    7431           52141                           DXCH     MPAC
001181:    7432           52107                           DXCH     VBUF
001182:    7433           07067                           TC       DMPSUB                                #  BY X1.
001183:
001184:    7434           00006                           EXTEND
001185:    7435           40144                           DCS      MPAC       +3                         #  CALCULATE -X1M2, SAVING X1M3 IN VBUF +2.
001186:    7436           52141                           DXCH     MPAC
001187:    7437           52111                           DXCH     VBUF       +2
001188:    7440           07067                           TC       DMPSUB
001189:
001190:    7441           37651                           CAF      TWO                                   #  ADVANCE ADDRWD TO X2.
001191:    7442           26102                           ADS      ADDRWD
001192:    7443           00006                           EXTEND
001193:    7444           40146                           DCS      MPAC       +5                         #  PREPARE TO GET -X2M3, SAVING -X1M2 IN
001194:    7445           52141                           DXCH     MPAC                                  #  MPAC +5.
001195:    7446           52146                           DXCH     MPAC       +5
001196:    7447           07067                           TC       DMPSUB
001197:
001198:    7450           00006                           EXTEND
001199:    7451           30107                           DCA      VBUF                                  #  GET X2M1, SAVING -X2M3 IN VBUF +4.
001200:    7452           52141                           DXCH     MPAC
001201:    7453           52113                           DXCH     VBUF       +4
001202:    7454           07067                           TC       DMPSUB
001203:
001204:    7455           37651                           CAF      TWO                                   #  ADVANCE ADDRWD TO X3.
001205:    7456           26102                           ADS      ADDRWD
001206:    7457           00006                           EXTEND
001207:    7460           40107                           DCS      VBUF                                  #  GET -X3M1, ADDING X2M1 TO MPAC +5 TO
001208:    7461           52141                           DXCH     MPAC                                  #  COMPLETE THE Z COMPONENT OF THE ANSWER.
001209:    7462           20146                           DAS      MPAC       +5
001210:
001211:    7463           00006                           EXTEND
001212:    7464           17466                           BZF      +2
001213:    7465           07007                           TC       OVERFLOW
001214:
001215:    7466           07067                           TC       DMPSUB
001216:    7467           52111                           DXCH     VBUF       +2                         #  MOVE X1M3 TO MPAC +3 SETTING UP FOR X3M2
001217:    7470           52144                           DXCH     MPAC       +3                         #  AND ADD -X3M1 TO MPAC +3 TO COMPLETE THE
001218:    7471           52141                           DXCH     MPAC                                  #  Y COMPONENT OF THE RESULT.
001219:    7472           20144                           DAS      MPAC       +3
001220:
001221:    7473           00006                           EXTEND
001222:    7474           17476                           BZF      +2
001223:    7475           07007                           TC       OVERFLOW
001224:
001225:    7476           07067                           TC       DMPSUB
001226:    7477           52113                           DXCH     VBUF       +4                         #  GO ADD -X2M3 TO X3M2 TO COMPLETE THE X
001227:    7500           16754                           TCF      ENDVXV                                #  COMPONENT (TAIL END OF DAD).
001228:
001229:                                                                                                  #           THE MPACVBUF SUBROUTINE SAVES THE VECTOR IN MPAC IN VBUF WITHOUT CLOBBERING MPAC.
001230:
001231:    7501           00006        MPACVBUF           EXTEND                                         #  CALLED BY MXV, VXM, AND UNIT.
001232:    7502           30141                           DCA      MPAC
001233:    7503           52107                           DXCH     VBUF
001234:    7504           00006                           EXTEND
001235:    7505           30144                           DCA      MPAC       +3
001236:    7506           52111                           DXCH     VBUF       +2
001237:    7507           00006                           EXTEND
001238:    7510           30146                           DCA      MPAC       +5
001239:    7511           52113                           DXCH     VBUF       +4
001240:    7512           00002                           TC       Q                                     #  RETURN TO CALLER.
001241:
001242:                                                                                                  #           INTERPRETIVE INSTRUCTIONS WHOSE EXECUTION CONSISTS OF PRINCIPALLY CALLING SUBROUTINES.
001243:
001244:    7513           07067        DMP1               TC       DMPSUB                                #  DMP INSTRUCTION.
001245:    7514           16014                           TCF      DANZIG
001246:
001247:    7515           07067        DMPR               TC       DMPSUB
001248:    7516           07117                           TC       ROUNDSUB   +1                         #  (C(A) = +0).
001249:    7517           16014                           TCF      DANZIG
001250:
001251:    7520           00006        DDV                EXTEND
001252:    7521           50102                           INDEX    ADDRWD                                #  MOVE DIVIDEND INTO BUF.
001253:    7522           30001                           DCA      0
001254:    7523           17530                           TCF      BDDV       +4
001255:
001256:    7524           00006        BDDV               EXTEND                                         #  MOVE DIVISOR INTO MPAC SAVING MPAC, THE
001257:    7525           50102                           INDEX    ADDRWD                                #  DIVIDEND, IN BUF.
001258:    7526           30001                           DCA      0
001259:    7527           52141                           DXCH     MPAC
001260:    7530           52115                 +4        DXCH     BUF
001261:    7531           37657                           CAF      ZERO                                  #  DIVIDE ROUTINES IN BANK 0.
001262:    7532           54004                           TS       FBANK
001263:    7533           12332                           TCF      DDV/BDDV
001264:
001265:    7534           30102        SETPD              CA       ADDRWD                                #  ANYWHERE IN ERASABLE IN GENERAL, BUT
001266:    7535           54152                           TS       PUSHLOC                               #  ALMOST ALWAYS IN THE WORK AREA.
001267:    7536           16016                           TCF      NOIBNKSW                              #  NO FBANK SWITCH REQUIRED.
001268:
001269:    7537           37657        TSLC               CAF      ZERO                                  #  SHIFTING ROUTINES LOCATED IN BANK 00.
001270:    7540           54004                           TS       FBANK
001271:    7541           12153                           TCF      TSLC2
001272:
001273:    7542           36027        GSHIFT             CAF      LOW7                                  #  USED AS MASK AT GENSHIFT. THIS PROCESSES
001274:    7543           54004                           TS       FBANK                                 #  ANY SHIFT INSTRUCTION (EXCEPT TSLC) WITH
001275:    7544           12174                           TCF      GENSHIFT                              #  AN ADDRESS (ROUTINES IN BANK 0).
001276:
001277:                                                                                                  #           THE FOLLOWING IS THE PROLOGUE TO V/SC. IF THE PRESENT MODE IS VECTOR, IT SAVES THE SCALAR AT X IN BUF
001278:                                                                                                  #  AND CALLS THE V/SC ROUTINE IN BANK 0. IF THE PRESENT MODE IS SCALAR, IT MOVES THE VECTOR AT X INTO MPAC, SAVING
001279:                                                                                                  #  THE SCALAR IN MPAC IN BUF BEFORE CALLING THE V/SC ROUTINE IN BANK 0.
001280:
001281:    7545           10147        V/SC               CCS      MODE
001282:    7546           17557                           TCF      DV/SC                                 #  MOVE VECTOR INTO MPAC.
001283:    7547           17557                           TCF      DV/SC
001284:
001285:    7550           00006        VV/SC              EXTEND
001286:    7551           50102                           INDEX    ADDRWD
001287:    7552           30001                           DCA      0
001288:    7553           52115        V/SC1              DXCH     BUF                                   #  IN BOTH CASES, VECTOR IS NOW IN MPAC AND
001289:    7554           37657                           CAF      ZERO                                  #  SCALAR IN BUF.
001290:    7555           54004                           TS       FBANK
001291:    7556           12576                           TCF      V/SC2
001292:
001293:    7557           00006        DV/SC              EXTEND
001294:    7560           50102                           INDEX    ADDRWD
001295:    7561           30003                           DCA      2
001296:    7562           52144                           DXCH     MPAC       +3
001297:    7563           00006                           EXTEND
001298:    7564           50102                           INDEX    ADDRWD
001299:    7565           30005                           DCA      4
001300:    7566           52146                           DXCH     MPAC       +5
001301:
001302:    7567           47652                           CS       ONE                                   #  CHANGE MODE TO VECTOR.
001303:    7570           54147                           TS       MODE
001304:
001305:    7571           00006                           EXTEND
001306:    7572           50102                           INDEX    ADDRWD
001307:    7573           30001                           DCA      0
001308:    7574           52141                           DXCH     MPAC
001309:    7575           17553                           TCF      V/SC1                                 #  FINISH PROLOGUE AT COMMON SECTION.
001310:
001311:                                                                                                  #           SIGN AND COMPLEMENT INSTRUCTIONS.
001312:
001313:    7576           50102        SIGN               INDEX    ADDRWD                                #  CALL COMP INSTRUCTION IF WORD AT X IS
001314:    7577           10000                           CCS      0                                     #  NEGATIVE NON-ZERO.
001315:    7600           16016                           TCF      NOIBNKSW                              #  NO FBANK SWITCH REQUIRED.
001316:    7601           17603                           TCF      +2
001317:    7602           17611                           TCF      COMP                                  #  DO THE COMPLEMENT.
001318:
001319:    7603           50102                           INDEX    ADDRWD
001320:    7604           10001                           CCS      1
001321:    7605           16016                           TCF      NOIBNKSW                              #  NO FBANK SWITCH REQUIRED.
001322:    7606           16016                           TCF      NOIBNKSW                              #  NO FBANK SWITCH REQUIRED.
001323:    7607           17611                           TCF      COMP
001324:    7610           16016                           TCF      NOIBNKSW                              #  NO FBANK SWITCH REQUIRED.
001325:
001326:
001327:
001328:    7611           00006        COMP               EXTEND                                         #  COMPLEMENT DP MPAC IN EVERY CASE.
001329:    7612           40141                           DCS      MPAC
001330:    7613           52141                           DXCH     MPAC
001331:
001332:    7614           10147                           CCS      MODE                                  #  EITHER COMPLEMENT MPAC +3 OR THE REST OF
001333:    7615           17626                           TCF      DCOMP                                 #  THE VECTOR ACCUMULATOR.
001334:    7616           17626                           TCF      DCOMP
001335:
001336:    7617           00006                           EXTEND                                         #  VECTOR COMPLEMENT.
001337:    7620           40144                           DCS      MPAC       +3
001338:    7621           52144                           DXCH     MPAC       +3
001339:    7622           00006                           EXTEND
001340:    7623           40146                           DCS      MPAC       +5
001341:    7624           52146                           DXCH     MPAC       +5
001342:    7625           16014                           TCF      DANZIG
001343:
001344:    7626           40142        DCOMP              CS       MPAC       +2
001345:    7627           54142                           TS       MPAC       +2
001346:    7630           16014                           TCF      DANZIG
001347:
001348:                                                                                                  #           CONSTANTS REQUIRED IN FIXED-FIXED.
001349:
001350:    7631           37777        DPOSMAX            OCT      37777
001351:    7632           37777        POSMAX             OCT      37777
001352:    7633     7633               LIMITS             EQUALS   POSMAX     +1
001353:    7633           57777        NEG1/2             OCT      -20000                                #  MUST BE TWO LOCATIONS AHEAD OF POS1/2.
001354:
001355:    7634           40000        BIT15              OCT      40000                                 #  BIT TABLE FOLLOWS.
001356:    7635           20000        BIT14              OCT      20000
001357:    7636           10000        BIT13              OCT      10000
001358:    7637           04000        BIT12              OCT      04000
001359:    7640           02000        BIT11              OCT      02000
001360:    7641           01000        BIT10              OCT      01000
001361:    7642           00400        BIT9               OCT      00400
001362:    7643           00200        BIT8               OCT      00200
001363:    7644           00100        BIT7               OCT      00100
001364:    7645           00040        BIT6               OCT      00040
001365:    7646           00020        BIT5               OCT      00020
001366:    7647           00010        BIT4               OCT      00010
001367:    7650           00004        BIT3               OCT      00004
001368:    7651           00002        BIT2               OCT      00002
001369:    7652           00001        BIT1               OCT      00001
001370:
001371:    7653     7634               NEGMAX             EQUALS   BIT15
001372:    7653     7635               HALF               EQUALS   BIT14
001373:    7653     7635               POS1/2             EQUALS   HALF
001374:    7653     7636               QUARTER            EQUALS   BIT13
001375:    7653     7640               2K                 EQUALS   BIT11
001376:    7653           00013        ELEVEN             DEC      11         B-14
001377:    7654     7653               NOUTCON            =        ELEVEN
001378:    7654           00012        TEN                DEC      10         B-14
001379:    7655           00011        NINE               DEC      9          B-14
001380:    7656     7647               EIGHT              EQUALS   BIT4
001381:    7656           00007        SEVEN              OCT      7
001382:    7657     6162               SIX                EQUALS   REVCNT
001383:    7657     7650               FOUR               EQUALS   BIT3
001384:    7657     6165               THREE              EQUALS   NO.WDS     +1
001385:    7657     7651               TWO                EQUALS   BIT2
001386:    7657     7652               ONE                EQUALS   BIT1
001387:    7657           00000        ZERO               OCT      0
001388:    7660           77777        NEG0               OCT      77777
001389:    7661           77776        NEGONE             DEC      -1         B-14
001390:
001391:    7662     7661               NEG1               =        NEGONE
001392:    7662     7661               MINUS1             EQUALS   NEG1
001393:    7662           77775        NEG2               OCT      77775
001394:    7663           77774        NEG3               DEC      -3         B-14
001395:    7664           00777        LOW9               OCT      777
001396:    7665           00017        LOW4               OCT      17
001397:
001398:    7666     7656               LOW3               EQUALS   SEVEN
001399:    7666     6165               LOW2               EQUALS   THREE
001400:
001401:    7666           00030        CALLCODE           OCT      00030
001402:    7667           40014        DLOADCOD           OCT      40014
001403:    7670     7634               VLOADCOD           EQUALS   BIT15
001404:    7670           40015        DLOAD*             OCT      40015
001405:    7671     6042               VLOAD*             EQUALS   OCT40001
001406:    7671           00106        LVBUF              ADRES    VBUF
001407:    7672                        ENDINTF            EQUALS
001408:
001409:                                                                                                  #  SHIFTING AND ROUNDING PACKAGE.
001410:
001411:                                                                                                  #           THE FOLLOWING SHORT SHIFT CODES REQUIRE NO ADDRESS WORD:
001412:
001413:                                                                                                  #           1.  SR1 TO SR4         SCALAR SHIFT RIGHT.
001414:                                                                                                  #           2.  SR1R TO SR4R       SCALAR SHIFT RIGHT AND ROUND.
001415:                                                                                                  #           3.  SL1 TO SL4         SCALAR SHIFT LEFT.
001416:                                                                                                  #           4.  SL1R TO SL4R       SCALAR SHIFT LEFT AND ROUND.
001417:
001418:                                                                                                  #           5.  VSR1 TO VSR8       VECTOR SHIFT RIGHT (ALWAYS ROUNDS).
001419:                                                                                                  #           6.  VSL1 TO VSL8       VECTOR SHIFT LEFT (NEVER ROUNDS).
001420:
001421:                                                                                                  #           THE FOLLOWING CODES REQUIRE AN ADDRESS WHICH MAY BE INDEXED:*
001422:
001423:                                                                                                  #           1.  SR                 SCALAR SHIFT RIGHT.
001424:                                                                                                  #           2.  SRR                SCALAR SHIFT RIGHT AND ROUND.
001425:                                                                                                  #           3.  SL                 SCALAR SHIFT LEFT.
001426:                                                                                                  #           4.  SLR                SCALAR SHIFT LEFT AND ROUND.
001427:
001428:                                                                                                  #           5.  VSR                VECTOR SHIFT RIGHT.
001429:                                                                                                  #           6.  VSL                VECTOR SHIFT LEFT.
001430:
001431:                                                                                                  #  *  IF THE ADDRESS IS INDEXED, AND THE INDEX MODIFICATION RESULTS IN A NEGATIVE SHIFT COUNT, A SHIFT OF THE
001432:                                                                                                  #  ABSOLUTE VALUE OF THE COUNT IS DONE IN THE OPPOSITE DIRECTION.
001433:
001434:
001435: 00,2000                                           SETLOC   10000                                 #  BANK 0 PORTION FOLLOWS.
001436:
001437: 00,2000           36162        SHORTT             CAF      SIX                                   #  SCALAR SHORT SHIFTS COME HERE. THE SHIFT
001438: 00,2001           70020                           MASK     CYR                                   #  COUNT-1 IS NOW IN BITS 2-3 OF CYR. THE
001439: 00,2002           54021                           TS       SR                                    #  ROUNDING BIT IS IN BIT1 AT THIS POINT.
001440:
001441: 00,2003           10020                           CCS      CYR                                   #  SEE IF RIGHT OR LEFT SHIFT DESIRED.
001442: 00,2004           12062                           TCF      TSSL                                  #  SHIFT LEFT.
001443:
001444: 00,2005           00024        SRDDV              DEC      20         B-14                       #  MPTEMP SETTING FOR SR BEFORE DDV.
001445:
001446: 00,2006           50021        TSSR               INDEX    SR                                    #  GET SHIFTING BIT.
001447: 00,2007           37635                           CAF      BIT14
001448: 00,2010           54121                           TS       MPTEMP
001449:
001450: 00,2011           10020                           CCS      CYR                                   #  SEE IF A ROUND IS DESIRED.
001451: 00,2012           02031        RIGHTR             TC       MPACSRND                              #  YES - SHIFT RIGHT AND ROUND.
001452: 00,2013           16013                           TCF      NEWMODE                               #  SET MODE TO DP (C(A) = 0).
001453: 00,2014           30121        MPACSHR            CA       MPTEMP                                #  DO A TRIPLE PRECISION SHIFT RIGHT.
001454: 00,2015           00006                           EXTEND
001455: 00,2016           70142                           MP       MPAC       +2
001456: 00,2017           54142                 +3        TS       MPAC       +2                         #  (EXIT FROM SQRT AND ABVAL).
001457: 00,2020           30121                           CA       MPTEMP
001458:
001459: 00,2021           00006                           EXTEND
001460: 00,2022           70140                           MP       MPAC                                  #  SHIFT MAJOR PART INTO A,L AND PLACE IN
001461: 00,2023           52141                           DXCH     MPAC                                  #  MPAC,+1.
001462: 00,2024           30121                           CA       MPTEMP
001463: 00,2025           00006                           EXTEND
001464: 00,2026           70001                           MP       L                                     #  ORIGINAL C(MPAC +1).
001465: 00,2027           20142                           DAS      MPAC       +1                         #  GUARANTEED NO OVERFLOW.
001466: 00,2030           16014                           TCF      DANZIG
001467:
001468:                                                                                                  #           MPAC SHIFT RIGHT AND ROUND SUBROUTINES.
001469:
001470: 00,2031           30142        MPACSRND           CA       MPAC       +2                         #  WE HAVE TO DO ALL THREE MULTIPLIES SINCE
001471: 00,2032           00006                           EXTEND                                         #  MPAC +1 AND MPAC +2 MIGHT HAVE SIGN
001472: 00,2033           70121                           MP       MPTEMP                                #  DISAGREEMENT WITH A SHIFT RIGHT OF 1.
001473: 00,2034           56141                           XCH      MPAC       +1
001474: 00,2035           00006                           EXTEND
001475: 00,2036           70121                           MP       MPTEMP
001476: 00,2037           56141                           XCH      MPAC       +1                         #  TRIAL MINOR PART.
001477: 00,2040           60001                           AD       L
001478:
001479: 00,2041           60000        VSHR2              DOUBLE                                         #  (FINISH VECTOR COMPONENT SHIFT RIGHT
001480: 00,2042           54142                           TS       MPAC       +2                         #  AND ROUND.
001481: 00,2043           12045                           TCF      +2
001482: 00,2044           26141                           ADS      MPAC       +1                         #  GUARANTEED NO OVERFLOW.
001483:
001484: 00,2045           37657                           CAF      ZERO
001485: 00,2046           54142                           TS       MPAC       +2
001486: 00,2047           56140                           XCH      MPAC                                  #  SETTING TO ZERO SO FOLLOWING DAS WORKS.
001487: 00,2050           00006                           EXTEND
001488: 00,2051           70121                           MP       MPTEMP
001489: 00,2052           20141                           DAS      MPAC                                  #  AGAIN NO OVERFLOW.
001490: 00,2053           00002                           TC       Q
001491:
001492: 00,2054           30121        VSHRRND            CA       MPTEMP                                #  ENTRY TO SHIFT RIGHT AND ROUND MPAC WHEN
001493: 00,2055           00006                           EXTEND                                         #  MPAC CONTAINS A VECTOR COMPONENT.
001494: 00,2056           70141                           MP       MPAC       +1
001495: 00,2057           54141                           TS       MPAC       +1
001496: 00,2060           56001                           XCH      L
001497: 00,2061           12041                           TCF      VSHR2                                 #  GO ADD ONE IF NECESSARY AND FINISH.
001498:
001499:                                                                                                  #           ROUTINE FOR SHORT SCALAR SHIFT LEFT (AND MAYBE ROUND).
001500:
001501: 00,2062           30021        TSSL               CA       SR                                    #  GET SHIFT COUNT FOR SR.
001502: 00,2063           54121                 +1        TS       MPTEMP
001503:
001504: 00,2064           00006                 +2        EXTEND                                         #  ENTRY HERE FROM SL FOR SCALARS.
001505: 00,2065           30142                           DCA      MPAC       +1                         #  SHIFTING LEFT ONE PLACE AT A TIME IS
001506: 00,2066           20142                           DAS      MPAC       +1                         #  FASTER THAN DOING THE WHOLE SHIFT WITH
001507: 00,2067           60140                           AD       MPAC                                  #  MULTIPLIES ASSUMING THAT FREQUENCY OF
001508: 00,2070           60140                           AD       MPAC                                  #  SHIFT COUNTS GOES DOWN RAPIDLY AS A
001509: 00,2071           54140                           TS       MPAC                                  #  FUNCTION OF THEIR MAGNITUDE.
001510: 00,2072           12074                           TCF      +2
001511: 00,2073           54105                           TS       OVFIND                                #  OVERFLOW. (LEAVES OVERFLOW-CORRECTED
001512:                                                                                                  #  RESULT ANYWAY).
001513: 00,2074           10121                           CCS      MPTEMP                                #  LOOP ON DECREMENTED SHIFT COUNT.
001514: 00,2075           12063                           TCF      TSSL       +1
001515:
001516: 00,2076           10020                           CCS      CYR                                   #  SEE IF ROUND WANTED.
001517: 00,2077           07116        ROUND              TC       ROUNDSUB                              #  YES - ROUND AND EXIT.
001518: 00,2100           16014                           TCF      DANZIG                                #  SL LEAVES A ZERO IN CYR FOR NO ROUND.
001519: 00,2101           16014                           TCF      DANZIG                                #  NO - EXIT IMMEDIATL
001520:
001521:                                                                                                  #  VECTOR SHIFTING ROUTINES.
001522:
001523: 00,2102           37656        SHORTV             CAF      LOW3                                  #  SAVE 3 BIT SHIFT COUNT - 1 WITHOUT
001524: 00,2103           70020                           MASK     CYR                                   #  EDITING CYR.
001525: 00,2104           54121                           TS       MPTEMP
001526: 00,2105           10020                           CCS      CYR                                   #  SEE IF LEFT OR RIGHT SHIFT.
001527: 00,2106           12126                           TCF      VSSL                                  #  VECTOR SHIFT LEFT.
001528: 00,2107           00176        OCT176             OCT      176                                   #  USED IN PROCESSED SHIFTS WITH - COUNT.
001529:
001530: 00,2110           50121        VSSR               INDEX    MPTEMP                                #  (ENTRY FROM SR). PICK UP SHIFTING BIT.
001531: 00,2111           37635                           CAF      BIT14                                 #  MPTEMP CONTAINS THE SHIFT COUNT - 1.
001532: 00,2112           54121                           TS       MPTEMP
001533: 00,2113           02054                           TC       VSHRRND                               #  SHIFT X COMPONENT.
001534:
001535: 00,2114           52141                           DXCH     MPAC                                  #  SWAP X AND Y COMPONENTS.
001536: 00,2115           52144                           DXCH     MPAC       +3
001537: 00,2116           52141                           DXCH     MPAC
001538: 00,2117           02054                           TC       VSHRRND                               #  SHIFT Y COMPONENT.
001539:
001540: 00,2120           52141                           DXCH     MPAC                                  #  SWAP Y AND Z COMPONENTS.
001541: 00,2121           52146                           DXCH     MPAC       +5
001542: 00,2122           52141                           DXCH     MPAC
001543: 00,2123           02054                           TC       VSHRRND                               #  SHIFT Z COMPONENT.
001544:
001545: 00,2124           17366                           TCF      VROTATEX                              #  RESTORE COMPONENTS TO PROPER PLACES.
001546:
001547:                                                                                                  #  VECTOR SHIFT LEFT - DONE ONE PLACE AT A TIME.
001548:
001549: 00,2125           54121                 -1        TS       MPTEMP                                #  SHIFTING LOOP.
001550:
001551: 00,2126           00006        VSSL               EXTEND
001552: 00,2127           30141                           DCA      MPAC
001553: 00,2130           20141                           DAS      MPAC
001554: 00,2131           00006                           EXTEND
001555: 00,2132           12134                           BZF      +2
001556: 00,2133           07007                           TC       OVERFLOW
001557:
001558: 00,2134           00006                           EXTEND
001559: 00,2135           30144                           DCA      MPAC       +3
001560: 00,2136           20144                           DAS      MPAC       +3
001561: 00,2137           00006                           EXTEND
001562: 00,2140           12142                           BZF      +2
001563: 00,2141           07007                           TC       OVERFLOW
001564:
001565: 00,2142           00006                           EXTEND
001566: 00,2143           30146                           DCA      MPAC       +5
001567: 00,2144           20146                           DAS      MPAC       +5
001568: 00,2145           00006                           EXTEND
001569: 00,2146           12150                           BZF      +2
001570: 00,2147           07007                           TC       OVERFLOW
001571:
001572: 00,2150           10121                           CCS      MPTEMP                                #  LOOP ON DECREMENTED SHIFT COUNTER.
001573: 00,2151           12125                           TCF      VSSL       -1
001574: 00,2152           16014                           TCF      DANZIG                                #  EXIT.
001575:
001576:                                                                                                  #           TSLC - TRIPLE SHIFT LEFT AND COUNT. SHIFTS MPAC LEFT UNTIL GREATER THAN .5 IN MAGNITUDE, LEAVING
001577:                                                                                                  #  THE COMPLEMENT OF THE NUMBER OF SHIFTS REQUIRED IN X.
001578:
001579: 00,2153           54121        TSLC2              TS       MPTEMP                                #  START BY ZEROING SHIFT COUNT (IN A NOW).
001580: 00,2154           06711                           TC       BRANCH                                #  EXIT WITH NO SHIFTING IF ARGUMENT ZERO.
001581: 00,2155           12157                           TCF      +2
001582: 00,2156           12172                           TCF      ENDTSLC                               #  STORES ZERO SHIFT COUNT IN THIS CASE.
001583:
001584: 00,2157           30140                           CA       MPAC                                  #  BEGIN NORMALIZATION LOOP.
001585: 00,2160           12167                           TCF      TSLCTEST
001586:
001587: 00,2161           24121        TSLCLOOP           INCR     MPTEMP                                #  INCREMENT SHIFT COUNTER.
001588: 00,2162           00006                           EXTEND
001589: 00,2163           30142                           DCA      MPAC       +1
001590: 00,2164           20142                           DAS      MPAC       +1
001591: 00,2165           60140                           AD       MPAC
001592: 00,2166           26140                           ADS      MPAC
001593: 00,2167           60000        TSLCTEST           DOUBLE                                         #  SEE IF (ANOTHER) SHIFT IS REQUIRED.
001594: 00,2170           54000                           OVSK
001595: 00,2171           12161                           TCF      TSLCLOOP                              #  YES - INCREMENT COUNT AND SHIFT AGAIN.
001596:
001597: 00,2172           40121        ENDTSLC            CS       MPTEMP
001598: 00,2173           16627                           TCF      STORE1                                #  STORE SHIFT COUNT AND RETURN TO DANZIG.
001599:
001600:                                                                                                  #           THE FOLLOWING ROUTINES PROCESSES THE GENERAL SHIFT INSTRUCTIONS SR, SRR, SL, AND SLR.
001601:                                                                                                  #  THE GIVEN ADDRESS IS DECODED AS FOLLOWS:
001602:
001603:                                                                                                  #           BITS 1-7        SHIFT COUNT (SUBADDRESS) LESS THAN 125 DECIMAL.
001604:                                                                                                  #           BIT 8           PSEUDO SIGN BIT (DETECTS CHANGE IN SIGN IN INDEXED SHIFTS).
001605:                                                                                                  #           BIT 9           0 FOR LEFT SHIFT, AND 1 FOR RIGHT SHIFT.
001606:                                                                                                  #           BIT 10          1 FOR TERMINAL ROUND ON SCALAR SHIFTS, 0 OTHERWISE.
001607:                                                                                                  #           BITS 11-15      0.
001608:
001609:                                                                                                  #  THE ABOVE ENCODING IS DONE BY THE YUL SYSTEM.
001610:
001611:
001612:
001613: 00,2174           70102        GENSHIFT           MASK     ADDRWD                                #  GET SHIFT COUNT, TESTING FOR ZERO.
001614: 00,2175           10000                           CCS      A                                     #  (ARRIVES WITH C(A) = LOW7).
001615: 00,2176           12204                           TCF      GENSHFT2                              #  IF NON-ZERO, PROCEED WITH DECREMENTED CT
001616:
001617: 00,2177           37641                           CAF      BIT10                                 #  ZERO SHIFT COUNT. NO SHIFTS NEEDED BUT
001618: 00,2200           70102                           MASK     ADDRWD                                #  WE MIGHT HAVE TO ROUND MPAC ON SLR AND
001619: 00,2201           10000                           CCS      A                                     #  SRR (SCALAR ONLY).
001620: 00,2202           07116                           TC       ROUNDSUB
001621: 00,2203           16014                           TCF      DANZIG
001622:
001623: 00,2204           54121        GENSHFT2           TS       MPTEMP                                #  DECREMENTED SHIFT COUNT TO MPTEMP.
001624: 00,2205           37643                           CAF      BIT8                                  #  TEST MEANING OF LOW SEVEN BIT COUNT IN
001625: 00,2206           00006                           EXTEND                                         #  MPTEMP NOW.
001626: 00,2207           70102                           MP       ADDRWD
001627: 00,2210           76165                           MASK     LOW2                                  #  JUMPS ON SHIFT DIRECTION (BIT8) AND
001628: 00,2211           50000                           INDEX    A
001629: 00,2212           12213                           TCF      +1                                    #  ORIGINAL SHIFT DIRECTION (BIT 9).
001630: 00,2213           12312                           TCF      RIGHT-                                #  NEGATIVE SHIFT COUNT FOR SL OR SLR.
001631: 00,2214           12321                           TCF      LEFT                                  #  SL OR SLR.
001632: 00,2215           12316                           TCF      LEFT-                                 #  NEGATIVE SHIFT COUNT WITH SR OR SRR.
001633:
001634:                                                                                                  #           GENERAL SHIFT RIGHT.
001635:
001636: 00,2216           10147        RIGHT              CCS      MODE                                  #  SEE IF VECTOR OR SCALAR.
001637: 00,2217           12257                           TCF      GENSCR
001638: 00,2220           12257                           TCF      GENSCR
001639:
001640: 00,2221           30121                           CA       MPTEMP                                #  SEE IF SHIFT COUNT GREATER THAN 13D.
001641: 00,2222           62273        VRIGHT2            AD       NEG12
001642: 00,2223           00006                           EXTEND
001643: 00,2224           62110                           BZMF     VSSR                                  #  IF SO, BRANCH AND SHIFT IMMEDIATELY.
001644:
001645: 00,2225           67661                           AD       NEGONE                                #  IF NOT, REDUCE MPTEMP BY A TOTAL OF 14,
001646: 00,2226           54121                           TS       MPTEMP                                #  AND DO A SHIFT RIGHT AND ROUND BY 14.
001647: 00,2227           37657                           CAF      ZERO                                  #  THE ROUND AT THIS STAGE MAY INTRODUCE A
001648: 00,2230           54001                           TS       L                                     #  ONE BIT ERROR IN A SHIFT RIGHT 15D.
001649: 00,2231           56140                           XCH      MPAC
001650: 00,2232           56141                           XCH      MPAC       +1
001651: 00,2233           02252                           TC       SETROUND                              #  X COMPONENT NOW SHIFTED, SO MAKE UP THE
001652: 00,2234           20141                           DAS      MPAC                                  #  ROUNDING QUANTITY (0 IN A AND 0 OR +-1
001653:                                                                                                  #  IN L).
001654: 00,2235           56143                           XCH      MPAC       +3                         #  REPEAT THE ABOVE PROCESS FOR Y AND Z.
001655: 00,2236           56144                           XCH      MPAC       +4
001656: 00,2237           02252                           TC       SETROUND
001657: 00,2240           20144                           DAS      MPAC       +3                         #  NO OVERFLOW ON THESE ADDS.
001658:
001659: 00,2241           56145                           XCH      MPAC       +5
001660: 00,2242           56146                           XCH      MPAC       +6
001661: 00,2243           02252                           TC       SETROUND
001662: 00,2244           20146                           DAS      MPAC       +5
001663:
001664: 00,2245           10121                           CCS      MPTEMP                                #  SEE IF DONE, DOING FINAL DECREMENT.
001665: 00,2246           12222                           TCF      VRIGHT2
001666: 00,2247           13630        TCSUBTR            TCF      SUBTR
001667: 00,2250           04604        BIASLO             DEC      .2974      B-1                        #  SQRT CONSTANT
001668:
001669: 00,2251           16014                           TCF      DANZIG
001670:
001671:
001672:
001673: 00,2252           60000        SETROUND           DOUBLE                                         #  MAKES UP ROUNDING QUANTITY FROM ARRIVING
001674: 00,2253           54142                           TS       MPAC       +2                         #  C(A). L IS ZERO INITIALLY.
001675: 00,2254           37657                           CAF      ZERO
001676: 00,2255           56001                           XCH      L
001677: 00,2256           00002                           TC       Q                                     #  RETURN AND DO THE DAS, RESETTING L TO 0.
001678:
001679:                                                                                                  #           PROCESS SR AND SRR FOR SCALARS.
001680:
001681: 00,2257           30121        GENSCR             CA       MPTEMP                                #  SEE IF THE ORIGINAL SHIFT COUNT WAS LESS
001682: 00,2260           62273                 +1        AD       NEG12                                 #  THAN 14D.
001683: 00,2261           00006                           EXTEND
001684: 00,2262           62302                           BZMF     DOSSHFT                               #  DO THE SHIFT IMMEDIATELY IF SO.
001685:
001686: 00,2263           67661                 +4        AD       NEGONE                                #  IF NOT, DECREMENT SHIFT COUNT BY 14D AND
001687: 00,2264           54121                           TS       MPTEMP                                #  SHIFT MPAC RIGHT 14 PLACES.
001688: 00,2265           37657                           CAF      ZERO
001689: 00,2266           56140                           XCH      MPAC
001690: 00,2267           56141                           XCH      MPAC       +1
001691: 00,2270           54142                           TS       MPAC       +2
001692: 00,2271           10121                           CCS      MPTEMP                                #  SEE IF FINISHED, DO FINAL DECREMENT.
001693: 00,2272           02260                           TC       GENSCR     +1
001694: 00,2273           77763        NEG12              DEC      -12        B-14
001695: 00,2274           22650        SLOPEHI            DEC      .5884                                 #  SQRT CONSTANT.
001696: 00,2275           37641                           CAF      BIT10                                 #  FINISHED WITH SHIFT. SEE IF ROUND
001697: 00,2276           70102                           MASK     ADDRWD                                #  WANTED.
001698: 00,2277           10000                           CCS      A
001699: 00,2300           07116                           TC       ROUNDSUB
001700: 00,2301           16014                           TCF      DANZIG                                #  DO SO AND/OR EXIT.
001701:
001702: 00,2302           50121        DOSSHFT            INDEX    MPTEMP                                #  PICK UP SHIFTING BIT.
001703: 00,2303           37635                           CAF      BIT14
001704: 00,2304           54121                           TS       MPTEMP
001705: 00,2305           37641                           CAF      BIT10                                 #  SEE IF TERMINAL ROUND DESIRED.
001706: 00,2306           70102                           MASK     ADDRWD
001707: 00,2307           10000                           CCS      A
001708: 00,2310           12012                           TCF      RIGHTR                                #  YES.
001709: 00,2311           12014                           TCF      MPACSHR                               #  JUST SHIFT RIGHT.
001710:
001711:                                                                                                  #           PROCESS THE RIGHT- (SL(R) WITH A NEGATIVE COUNT), LEFT-, AND LEFT OPTIONS.
001712:
001713: 00,2312           40121        RIGHT-             CS       MPTEMP                                #  GET ABSOLUTE VALUE - 1 OF SHIFT COUNT
001714: 00,2313           62107                           AD       OCT176                                #  UNDERSTANDING THAT BIT8 (PSEUDO-SIGN)
001715: 00,2314           54121                           TS       MPTEMP                                #  WAS 1 INITIALLY.
001716: 00,2315           12216                           TCF      RIGHT                                 #  DO NORMAL SHIFT RIGHT.
001717:
001718: 00,2316           40121        LEFT-              CS       MPTEMP                                #  SAME PROLOGUE TO LEFT FOR INDEXED RIGHT
001719: 00,2317           62107                           AD       OCT176                                #  SHIFTS WHOSE NET SHIFT COUNT IS NEGATIVE
001720: 00,2320           54121                           TS       MPTEMP
001721:
001722: 00,2321           10147        LEFT               CCS      MODE                                  #  SINCE LEFT SHIFTING IS SONE ONE PLACE AT
001723: 00,2322           12325                           TCF      GENSCL                                #  A TIME, NO COMPARISON WITH 14 NEED BE
001724: 00,2323           12325                           TCF      GENSCL                                #  DONE. FOR SCALARS, SEE IF TERMINAL ROUND
001725: 00,2324           12126                           TCF      VSSL                                  #  DESIRED. FOR VECTORS, SHIFT IMMEDIATELY.
001726:
001727: 00,2325           37645        GENSCL             CAF      BIT6                                  #  PUT ROUNDING BIT (BIT10 OF ADDRWD) INTO
001728: 00,2326           00006                           EXTEND                                         #  BIT 15 OF CYR WHERE THE ROUNDING BIT OF
001729: 00,2327           70102                           MP       ADDRWD                                #  A SHORT SHIFT LEFT WOULD BE.
001730: 00,2330           54020                           TS       CYR
001731: 00,2331           12064                           TCF      TSSL       +2                         #  DO THE SHIFT.
001732:
001733:                                                                                                  #           SCALAR DIVISION INSTRUCTIONS, DDV AND BDDV, ARE EXECUTED HERE. AT THIS POINT, THE DIVIDEND IS IN MPAC
001734:                                                                                                  #  AND THE DIVISOR IN BUF.
001735:
001736: 00,2332           47652        DDV/BDDV           CS       ONE                                   #  INITIALIZATION.
001737: 00,2333           54122                           TS       DVSIGN                                #  +-1 FOR POSITIVE QUOTIENT - -0 FOR NEG.
001738: 00,2334           54123                           TS       DVNORMCT                              #  DIVIDEND NORMALIZATION COUNT.
001739: 00,2335           54124                           TS       MAXDVSW                               #  NEAR-ONE DIVIDE FLAG.
001740:
001741: 00,2336           10114                           CCS      BUF                                   #  FORCE BUF POSITIVE WITH THE MAJOR PART
001742: 00,2337           12366                           TCF      BUF+                                  #  NON-ZERO.
001743: 00,2340           12342                           TCF      +2
001744: 00,2341           12362                           TCF      BUF-
001745:
001746: 00,2342           56115                           XCH      BUF        +1                         #  SHIFT DIVIDEND AND DIVISOR LEFT 14.
001747: 00,2343           56114                           XCH      BUF
001748: 00,2344           56141                           XCH      MPAC       +1
001749: 00,2345           56140                           XCH      MPAC
001750: 00,2346           00006                           EXTEND                                         #  CHECK FOR OVERFLOW.
001751: 00,2347           12351                           BZF      +2
001752: 00,2350           12355                           TCF      DVOVF
001753:
001754: 00,2351           10114                           CCS      BUF                                   #  TRY AGAIN ON FORMER MINOR PART.
001755: 00,2352           12366                           TCF      BUF+
001756: 00,2353           12355                           TCF      DVOVF                                 #  OVERFLOW ON ZERO DIVISOR.
001757: 00,2354           12362                           TCF      BUF-
001758:
001759: 00,2355           37632        DVOVF              CAF      POSMAX                                #  ON DIVISION OVERFLOW OF ANY SORT, SET
001760: 00,2356           54140                           TS       MPAC                                  #  SET DP MPAC TO +-POSMAX.
001761: 00,2357           02552                           TC       FINALDV    +3
001762: 00,2360           37652                           CAF      ONE                                   #  SET OVERFLOW INDICATOR AND EXIT.
001763: 00,2361           17061                           TCF      SETOVF
001764:
001765: 00,2362           00006        BUF-               EXTEND                                         #  IF BUF IS NEGATIVE, COMPLEMENT IT AND
001766: 00,2363           40115                           DCS      BUF                                   #  MAINTAIN DVSIGN FOR FINAL QUOTIENT SIGN.
001767: 00,2364           52115                           DXCH     BUF
001768: 00,2365           24122                           INCR     DVSIGN                                #  NOW -0.
001769:
001770: 00,2366           10140        BUF+               CCS      MPAC                                  #  FORCE MPAC POSITIVE, CHECKING FOR ZERO
001771: 00,2367           12403                           TCF      MPAC+                                 #  DIVIDEND IN THE PROCESS.
001772: 00,2370           12372                           TCF      +2
001773: 00,2371           12377                           TCF      MPAC-
001774: 00,2372           10141                           CCS      MPAC       +1
001775: 00,2373           12403                           TCF      MPAC+
001776: 00,2374           16014                           TCF      DANZIG                                #  EXIT IMMEDIATELY ON ZERO DIVIDEND.
001777: 00,2375           12377                           TCF      MPAC-
001778: 00,2376           16014                           TCF      DANZIG
001779:
001780: 00,2377           00006        MPAC-              EXTEND                                         #  FORCE MPAC POSITIVE AS BUF IN BUF-.
001781: 00,2400           40141                           DCS      MPAC
001782: 00,2401           52141                           DXCH     MPAC
001783:
001784: 00,2402           24122                           INCR     DVSIGN                                #  NOW +1 OR -0.
001785:
001786: 00,2403           40140        MPAC+              CS       MPAC                                  #  CHECK FOR DIVISION OVERFLOW. IF THE
001787: 00,2404           67661                           AD       NEGONE                                #  MAJOR PART OF THE DIVIDEND IS LESS THAN
001788: 00,2405           60114                           AD       BUF                                   #  THE MAJOR PART OF THE DIVISOR BY AT
001789: 00,2406           10000                           CCS      A                                     #  LEAST TWO, WE CAN PROCEED IMMEDIATELY
001790: 00,2407           12451                           TCF      DVNORM                                #  WITHOUT NORMALIZATION PRODUCING A DVMAX.
001791: 00,2410           60001        -1/2+2             OCT      60001                                 #  USED IN SQRTSUB.
001792:
001793: 00,2411           12412                           TCF      +1                                    #  IF THE ABOVE DOES NOT HOLD, FORCE SIGN
001794: 00,2412           37635                           CAF      HALF                                  #  AGREEMENT IN NUMERATOR AND DENOMINATOR
001795: 00,2413           60000                           DOUBLE                                         #  TO FACILITATE OVERFLOW AND NEAR-ONE
001796: 00,2414           60141                           AD       MPAC       +1                         #  CHECKING.
001797: 00,2415           54141                           TS       MPAC       +1
001798: 00,2416           37657                           CAF      ZERO
001799: 00,2417           67632                           AD       POSMAX
001800: 00,2420           26140                           ADS      MPAC
001801:
001802: 00,2421           37635                           CAF      HALF                                  #  SAME FOR BUF.
001803: 00,2422           60000                           DOUBLE
001804: 00,2423           60115                           AD       BUF        +1
001805: 00,2424           54115                           TS       BUF        +1
001806: 00,2425           37657                           CAF      ZERO
001807: 00,2426           67632                           AD       POSMAX
001808: 00,2427           26114                           ADS      BUF
001809:
001810: 00,2430           40140                           CS       MPAC                                  #  CHECK MAGNITUDE OF SIGN-CORRECTED
001811: 00,2431           60114                           AD       BUF                                   #  OPERANDS.
001812: 00,2432           10000                           CCS      A
001813: 00,2433           12451                           TCF      DVNORM                                #  DIVIDE OK - WILL NOT BECOME MAXDV CASE.
001814: 00,2434           00117        LBUF2              ADRES    BUF2
001815: 00,2435           12355                           TCF      DVOVF                                 #  DIVISOR NOT LESS THAN DIVIDEND - OVF.
001816:
001817: 00,2436           54124                           TS       MAXDVSW                               #  IF THE MAJOR PARTS OF THE DIVIDEND AND
001818: 00,2437           40141                           CS       MPAC       +1                         #  DIVISOR ARE EQUAL, A SPECIAL APPROXIMA-
001819: 00,2440           60115                           AD       BUF        +1                         #  TION IS USED (PROVIDED THE DIVISION IS
001820: 00,2441           00006                           EXTEND                                         #  POSSIBLE, OF COURSE).
001821: 00,2442           62355                           BZMF     DVOVF
001822: 00,2443           12451                           TCF      DVNORM                                #  IF NO OVERFLOW.
001823:
001824: 00,2444           00006        BUFNORM            EXTEND                                         #  ADD -1 TO AUGMENT SHIFT COUNT AND SHIFT
001825: 00,2445           24123                           AUG      DVNORMCT                              #  LEFT ONE PLACE.
001826: 00,2446           00006                           EXTEND
001827: 00,2447           30115                           DCA      BUF
001828: 00,2450           20115                           DAS      BUF
001829:
001830: 00,2451           30114        DVNORM             CA       BUF                                   #  SEE IF DIVISOR NORMALIZED YET.
001831: 00,2452           60000                           DOUBLE
001832: 00,2453           54000                           OVSK
001833: 00,2454           12444                           TCF      BUFNORM                               #  NO - SHIFT LEFT ONE AND TRY AGAIN.
001834:
001835: 00,2455           52141                           DXCH     MPAC                                  #  CALL DIVIDEND NORMALIZATION SEQUENCE
001836: 00,2456           50123                           INDEX    DVNORMCT                              #  PRIOR TO DOING THE DIVIDE.
001837: 00,2457           02507                           TC       MAXTEST
001838:
001839: 00,2460           54142                           TS       MPAC       +2                         #  RETURNS WITH DIVISION DONE AND C(A) = 0.
001840: 00,2461           16014                           TCF      DANZIG
001841:
001842:                                                                                                  #           THE FOLLOWING ARE PROLOGUES TO SHIFT THE DIVIDEND ARRIVING IN A AND L BEFORE THE DIVIDE.
001843:
001844: 00,2462           22021                 -21D      LXCH     SR                                    #  SPECIAL PROLOGUE FOR UNIT WHEN THE
001845: 00,2463           00006                           EXTEND                                         #  LENGTH OF THE ARGUMENT WAS NOT LESS THAN
001846: 00,2464           77635                           MP       HALF                                  #  .5.  IN THIS CASE, EACH COMPONENT MUST BE
001847: 00,2465           56001                           XCH      L                                     #  SHIFTED RIGHT ONE TO PRODUCE A HALF-UNIT
001848: 00,2466           60021                           AD       SR                                    #  VECTOR.
001849: 00,2467           56001                           XCH      L
001850: 00,2470           12513                           TCF      GENDDV     +1                         #  WITH DP DIVIDEND IN A,L.
001851:
001852: 00,2471           20001                           DDOUBL                                         #  PROLOGUE WHICH NORMALIZES THE DIVIDEND
001853: 00,2472           20001                           DDOUBL                                         #  WHEN IT IS KNOWN THAT NO DIVISION
001854: 00,2473           20001                           DDOUBL                                         #  OVERFLOW WILL OCCUR.
001855: 00,2474           20001                           DDOUBL
001856: 00,2475           20001                           DDOUBL
001857: 00,2476           20001                           DDOUBL
001858: 00,2477           20001                           DDOUBL
001859: 00,2500           20001                           DDOUBL
001860: 00,2501           20001                           DDOUBL
001861: 00,2502           20001                           DDOUBL
001862: 00,2503           20001                           DDOUBL
001863: 00,2504           20001                           DDOUBL
001864: 00,2505           20001                           DDOUBL
001865: 00,2506           52141                           DXCH     MPAC
001866:
001867: 00,2507           10124        MAXTEST            CCS      MAXDVSW                               #  0 IF MAJORS MIGHT BE =, -1 OTHERWISE.
001868: 00,2510           06552        BIASHI             DEC      .4192      B-1                        #  SQRT CONSTANTS
001869:
001870: 00,2511           12564                           TCF      MAXDV                                 #  CHECK TO SEE IF THEY ARE NOW EQUAL.
001871:
001872:                                                                                                  #           THE FOLLOWING IS A GENERAL PURPOSE DOUBLE PRECISION DIVISION ROUTINE. IT DIVIDES MPAC BY BUF AND LEAVES
001873:                                                                                                  #  THE RESULT IN MPAC. THE FOLLOWING CONDITIONS MUST BE SATISFIED:
001874:
001875:                                                                                                  #           1.  THE DIVISOR (BUF) MUST BE POSITIVE AND NOT LESS THAN .5.
001876:
001877:                                                                                                  #           2.  THE DIVIDEND (MPAC) MUST BE POSITIVE WITH THE MAJOR PART OF MPAC STRICTLY LESS THAN THAT OF BUF
001878:                                                                                                  #  (A SPECIAL APPROXIMATION, MAXDV, IS USED WHEN THE MAJOR PARTS ARE EQUAL).
001879:
001880:                                                                                                  #           UNDERSTANDING THAT A/B = Q + S(R/B) WHERE S = 2(-14) AND Q AND R ARE QUOTIENT AND REMAINDER, RESPEC-
001881:                                                                                                  #  TIVELY, THE FOLLOWING APPROXIMATION IS OBTAINED BY MULTIPLYING ABOVE AND BELOW BY C - SD AND NEGLECTING TERMS OF
001882:                                                                                                  #  ORDER S-SQUARED (POSSIBLY INTRODUCING ERROR INTO THE LOW TWO BITS OF THE RESULT). SIGN AGREEMENT IS UNNECESSARY.
001883:
001884:                                                                                                  #           A + SB .      (R - QD)                                             A + SB
001885:                                                                                                  #           ------ = Q + S(------) WHERE Q AND R ARE QUOTIENT AND REMAINDER OF ------ RESPECTIVELY.
001886:                                                                                                  #           C + SD        (  C   )                                               C
001887:
001888: 00,2512           52141        GENDDV             DXCH     MPAC                                  #  WE NEED A AND B ONLY FOR FIRST DV.
001889: 00,2513           00006                 +1        EXTEND                                         #  (SPECIAL UNIT PROLOGUE ENTERS HERE).
001890: 00,2514           10114                           DV       BUF                                   #  A NOW CONTAINS Q AND L, R.
001891: 00,2515           52141                           DXCH     MPAC
001892:
001893: 00,2516           40140                           CS       MPAC                                  #  FORM DIVIDEND FOR MINOR PART OF RESULT.
001894: 00,2517           00006                           EXTEND
001895: 00,2520           70115                           MP       BUF        +1
001896: 00,2521           60141                           AD       MPAC       +1                         #  OVERFLOW AT THIS POINT IS POSITIVE SINCE
001897: 00,2522           54000                           OVSK                                           #  R IS POSITIVE IN EVERY CASE.
001898: 00,2523           12530                           TCF      +5
001899:
001900: 00,2524           00006                           EXTEND                                         #  OVERFLOW CAN BE REMOVED BY SUBTRACTING C
001901: 00,2525           60114                           SU       BUF                                   #  (BUF) ONCE SINCE R IS ALWAYS LESS THAN C
001902: 00,2526           24140                           INCR     MPAC                                  #  IN THIS CASE. INCR COMPENSATES SUBTRACT.
001903: 00,2527           12532                           TCF      +DOWN                                 #  (SINCE C(A) IS STILL POSITIVE).
001904:
001905: 00,2530           00006                 +5        EXTEND                                         #  C(A) CAN BE MADE LESS THAN C IN MAGNI-
001906: 00,2531           62542                           BZMF     -UP                                   #  TUDE BY DIMINISHING IT BY C (SINCE C IS
001907:                                                                                                  #  NOT LESS THAN .5) UNLESS C(A) = 0.
001908:
001909: 00,2532           00006        +DOWN              EXTEND
001910: 00,2533           60114                           SU       BUF                                   #  IF POSITIVE, REDUCE ONLY IF NECESSARY
001911: 00,2534           00006                           EXTEND                                         #  SINCE THE COMPENSATING INCR MIGHT CAUSE
001912: 00,2535           12540                           BZF      +3                                    #  OVERFLOW.
001913: 00,2536           00006                           EXTEND                                         #  DONT SUBTRACT UNLESS RESULT IS POSITIVE
001914: 00,2537           62546                           BZMF     ENDMAXDV                              #  OR ZERO.
001915:
001916: 00,2540           24140                 +3        INCR     MPAC                                  #  KEEP SUBTRACT HERE AND COMPENSATE.
001917: 00,2541           12547                           TCF      FINALDV
001918:
001919: 00,2542           00006        -UP                EXTEND                                         #  IF ZERO, SET MINOR PART OF RESULT TO
001920: 00,2543           12552                           BZF      FINALDV    +3                         #  ZERO.
001921:
001922: 00,2544           00006                           EXTEND                                         #  IF NEGATIVE, ADD C TO A, SUBTRACTING ONE
001923: 00,2545           26140                           DIM      MPAC                                  #  TO COMPENSATE. DIM IS OK HERE SINCE THE
001924: 00,2546           60114        ENDMAXDV           AD       BUF                                   #  MAJOR PART NEVER GOES NEGATIVE.
001925:
001926: 00,2547           22007        FINALDV            ZL                                             #  DO DV TO OBTAIN MINOR PART OF RESULT.
001927: 00,2550           00006                           EXTEND
001928: 00,2551           10114                           DV       BUF
001929: 00,2552           54141                 +3        TS       MPAC       +1
001930:
001931: 00,2553           10122                           CCS      DVSIGN                                #  LEAVE RESULT POSITIVE UNLESS C(DVSIGN)=
001932: 00,2554           00002                           TC       Q                                     #  -0.
001933: 00,2555           00002                           TC       Q
001934: 00,2556           00002                           TC       Q
001935:
001936: 00,2557           00006                           EXTEND
001937: 00,2560           40141                           DCS      MPAC
001938: 00,2561           52141                           DXCH     MPAC
001939: 00,2562           37657                           CAF      ZERO                                  #  SO WE ALWAYS RETURN WITH C(A) = 0.
001940: 00,2563           00002                           TC       Q
001941:
001942:                                                                                                  #           IF THE MAJOR PARTS OF THE DIVISOR AND DIVIDEND ARE EQUAL, BUT THE MINOR PARTS ARE SUCH THAT THE
001943:                                                                                                  #  DIVIDEND IS STRICTLY LESS THAN THE DIVISOR IN MAGNITUDE, THE FOLLOWING APPROXIMATION IS USED. THE ASSUMPTIONS
001944:                                                                                                  #  ARE THE SAME AS THE GENERAL ROUTINE WITH THE ADDITION THAT SIGN AGREEMENT IS NECESSARY (B, C, & D POSITIVE).
001945:
001946:                                                                                                  #                  C + SB .          (C + B - D)
001947:                                                                                                  #                  ------ = 37777 + S(---------)
001948:                                                                                                  #                  C + SD            (    C    )
001949:
001950:                                                                                                  #           THE DIVISION MAY BE PERFORMED IMMEDIATELY SINCE B IS STRICTLY LESS THAN D AND C IS NOT LESS THAN .5.
001951:
001952:
001953:
001954: 00,2564           40140        MAXDV              CS       MPAC                                  #  SEE IF MAXDV CASE STILL HOLDS AFTER
001955: 00,2565           60114                           AD       BUF                                   #  NORMALIZATION.
001956: 00,2566           00006                           EXTEND
001957: 00,2567           12571                           BZF      +2
001958: 00,2570           12512                           TCF      GENDDV                                #  MPAC NOW LESS THAN BUF - DIVIDE AS USUAL
001959:
001960: 00,2571           37632                 +2        CAF      POSMAX                                #  SET MAJOR PART OF RESULT.
001961: 00,2572           54140                           TS       MPAC
001962:
001963: 00,2573           40115                           CS       BUF        +1                         #  FORM DIVIDEND OF MINOR PART OF RESULT.
001964: 00,2574           60141                           AD       MPAC       +1
001965: 00,2575           12546                           TCF      ENDMAXDV                              #  GO ADD C AND DO DIVIDE, ATTACHING SIGN
001966:                                                                                                  #  BEFORE EXITING.
001967:
001968:                                                                                                  #        VECTOR DIVIDED BY SCALAR, V/SC, IS EXECUTED HERE. THE VECTOR IS NOW IN MPAC WITH SCALAR IN BUF.
001969:
001970: 00,2576           47652        V/SC2              CS       ONE                                   #  INITIALIZE DIVIDEND NORMALIZATION COUNT
001971: 00,2577           54123                           TS       DVNORMCT                              #  AND DIVISION SIGN REGISTER.
001972: 00,2600           54113                           TS       VBUF       +5
001973:
001974: 00,2601           10114                           CCS      BUF                                   #  FORCE DIVISOR POSITIVE WITH MAJOR PART
001975: 00,2602           12637                           TCF      /BUF+                                 #  NON-ZERO (IF POSSIBLE).
001976: 00,2603           12605                           TCF      +2
001977: 00,2604           12633                           TCF      /BUF-
001978:
001979: 00,2605           56115                           XCH      BUF        +1                         #  SHIFT VECTOR AND SCALAR LEFT 14.
001980: 00,2606           56114                           XCH      BUF
001981: 00,2607           56141                           XCH      MPAC       +1
001982: 00,2610           56140                           XCH      MPAC
001983: 00,2611           00006                           EXTEND                                         #  CHECK FOR OVERFLOW IN EACH CASE.
001984: 00,2612           12614                           BZF      +2
001985: 00,2613           12355                           TCF      DVOVF
001986:
001987: 00,2614           56144                           XCH      MPAC       +4
001988: 00,2615           56143                           XCH      MPAC       +3
001989: 00,2616           00006                           EXTEND
001990: 00,2617           12621                           BZF      +2
001991: 00,2620           12355                           TCF      DVOVF
001992:
001993: 00,2621           56146                           XCH      MPAC       +6
001994: 00,2622           56145                           XCH      MPAC       +5
001995: 00,2623           00006                           EXTEND
001996: 00,2624           12626                           BZF      +2
001997: 00,2625           12355                           TCF      DVOVF
001998:
001999: 00,2626           10114                           CCS      BUF
002000: 00,2627           12637                           TCF      /BUF+
002001: 00,2630           12355                           TCF      DVOVF                                 #  ZERO DIVISOR - OVERFLOW.
002002: 00,2631           12633                           TCF      /BUF-
002003: 00,2632           12355                           TCF      DVOVF
002004:
002005: 00,2633           00006        /BUF-              EXTEND                                         #  ON NEGATIVE, COMPLEMENT BUF AND MAINTAIN
002006: 00,2634           40115                           DCS      BUF                                   #  DVSIGN IN VBUF +5.
002007: 00,2635           52115                           DXCH     BUF
002008: 00,2636           24113                           INCR     VBUF       +5
002009:
002010: 00,2637           37635        /BUF+              CAF      HALF                                  #  FORCE SIGN AGREEMENT IN DIVISOR.
002011: 00,2640           60000                           DOUBLE
002012: 00,2641           60115                           AD       BUF        +1
002013: 00,2642           54115                           TS       BUF        +1
002014: 00,2643           37657                           CAF      ZERO
002015: 00,2644           67632                           AD       POSMAX
002016: 00,2645           26114                           ADS      BUF
002017:
002018: 00,2646           56117                           XCH      BUF2                                  #  LEAVE ABS(ORIGINAL DIVISOR) IN BUF2 FOR
002019: 00,2647           30115                           CA       BUF        +1                         #  OVERFLOW TESTING.
002020: 00,2650           54120                           TS       BUF2       +1
002021: 00,2651           12657                           TCF      /NORM                                 #  NORMALIZE DIVISOR IN BUF.
002022:
002023: 00,2652           00006        /NORM2             EXTEND                                         #  IF LESS THAN .5, AUGMENT DVNORMCT AND
002024: 00,2653           24123                           AUG      DVNORMCT                              #  DOUBLE DIVISOR.
002025: 00,2654           00006                           EXTEND
002026: 00,2655           30115                           DCA      BUF
002027: 00,2656           20115                           DAS      BUF
002028:
002029: 00,2657           30114        /NORM              CA       BUF                                   #  SEE IF DIVISOR NORMALIZED.
002030: 00,2660           60000                           DOUBLE
002031: 00,2661           54000                           OVSK
002032: 00,2662           12652                           TCF      /NORM2                                #  DOUBLE AND TRY AGAIN IF NOT.
002033:
002034: 00,2663           02675                           TC       V/SCDV                                #  DO X COMPONENT DIVIDE.
002035: 00,2664           52144                           DXCH     MPAC       +3                         #  SUPPLY ARGUMENTS IN USUAL SEQUENCE.
002036: 00,2665           52141                           DXCH     MPAC
002037: 00,2666           52144                           DXCH     MPAC       +3
002038:
002039: 00,2667           02675                           TC       V/SCDV                                #  Y COMPONENT.
002040: 00,2670           52146                           DXCH     MPAC       +5
002041: 00,2671           52141                           DXCH     MPAC
002042: 00,2672           52146                           DXCH     MPAC       +5
002043:
002044: 00,2673           02675                           TC       V/SCDV                                #  Z COMPONENT.
002045: 00,2674           17366                           TCF      VROTATEX                              #  GO RE-ARRANGE COMPONENTS BEFORE EXIT.
002046:
002047:                                                                                                  #           SUBROUTINE USED BY V/SC TO DIVIDE VECTOR COMPONENT IN MPAC,+1 BY THE SCALAR GIVEN IN BUF.
002048:
002049: 00,2675           30113        V/SCDV             CA       VBUF       +5                         #  REFLECTS SIGN OF SCALAR.
002050: 00,2676           54122                           TS       DVSIGN
002051:
002052: 00,2677           10140                           CCS      MPAC                                  #  FORCE MPAC POSITIVE, EXITING ON ZERO.
002053: 00,2700           12714                           TCF      /MPAC+
002054: 00,2701           12703                           TCF      +2
002055: 00,2702           12710                           TCF      /MPAC-
002056:
002057: 00,2703           10141                           CCS      MPAC       +1
002058: 00,2704           12714                           TCF      /MPAC+
002059: 00,2705           00002                           TC       Q
002060: 00,2706           12710                           TCF      /MPAC-
002061: 00,2707           00002                           TC       Q
002062:
002063: 00,2710           00006        /MPAC-             EXTEND                                         #  USUAL COMPLEMENTING AND SETTING OF SIGN.
002064: 00,2711           40141                           DCS      MPAC
002065: 00,2712           52141                           DXCH     MPAC
002066: 00,2713           24122                           INCR     DVSIGN
002067:
002068: 00,2714           47652        /MPAC+             CS       ONE                                   #  INITIALIZE NEAR-ONE SWITCH.
002069: 00,2715           54124                           TS       MAXDVSW
002070:
002071: 00,2716           40140                           CS       MPAC                                  #  CHECK POSSIBLE OVERFLOW.
002072: 00,2717           60117                           AD       BUF2                                  #  UNNORMALIZED INPUT DIVISOR.
002073: 00,2720           00006                           EXTEND
002074: 00,2721           62725                           BZMF     /AGREE                                #  CHECK FOR NEAR-ONE OR OVERFLOW.
002075:
002076: 00,2722           52141        DDVCALL            DXCH     MPAC                                  #  CALL PRE-DIVIDE NORMALIZATION.
002077: 00,2723           50123                           INDEX    DVNORMCT
002078: 00,2724           12507                           TCF      MAXTEST
002079:
002080: 00,2725           37635        /AGREE             CAF      HALF                                  #  FORCE SIGN AGREEMENT IN DIVIDEND
002081: 00,2726           60000                           DOUBLE                                         #  (ALREADY DONE FOR DIVISOR).
002082: 00,2727           60141                           AD       MPAC       +1
002083: 00,2730           54141                           TS       MPAC       +1
002084: 00,2731           37657                           CAF      ZERO
002085: 00,2732           67632                           AD       POSMAX
002086: 00,2733           26140                           ADS      MPAC
002087:
002088: 00,2734           40140                           CS       MPAC                                  #  CHECK TO SEE IF OVERFLOW GONE OR IF
002089: 00,2735           60117                           AD       BUF2                                  #  NEAR-ONE CASE IS PRESENT.
002090: 00,2736           10000                           CCS      A
002091: 00,2737           12722                           TCF      DDVCALL                               #  NOT NEAR-ONE.
002092: 00,2740           32506        SLOPELO            DEC      .8324
002093: 00,2741           12355                           TCF      DVOVF                                 #  NO HOPE.
002094:
002095: 00,2742           54124                           TS       MAXDVSW                               #  SIGNAL POSSIBLE NEAR-ONE CASE.
002096: 00,2743           40141                           CS       MPAC       +1                         #  SEE IF DIVISION CAN BE DONE.
002097: 00,2744           60120                           AD       BUF2       +1
002098: 00,2745           00006                           EXTEND
002099: 00,2746           62355                           BZMF     DVOVF
002100: 00,2747           12722                           TCF      DDVCALL                               #  GOING TO MAXDV.
002101:
002102:                                                                                                  #           THE FOLLOWING ROUTINE EXECUTES THE UNIT INSTRUCTION, WHICH TAKES THE UNIT OF THE VECTOR IN MPAC.
002103:
002104: 00,2750           07501        UNIT               TC       MPACVBUF                              #  SAVE THE ARGUMENT IN VBUF.
002105: 00,2751           37657                           CAF      ZERO                                  #  MUST SENSE OVERFLOW IN FOLLOWING DOT.
002106: 00,2752           56105                           XCH      OVFIND
002107: 00,2753           54125                           TS       TEM1
002108: 00,2754           03246                           TC       VSQSUB                                #  DOT MPAC WITH ITSELF.
002109: 00,2755           30125                           CA       TEM1
002110: 00,2756           56105                           XCH      OVFIND
002111: 00,2757           00006                           EXTEND
002112: 00,2760           12762                           BZF      +2
002113: 00,2761           12355                           TCF      DVOVF
002114: 00,2762           00006                           EXTEND
002115: 00,2763           30141                           DCA      MPAC                                  #  LEAVE THE SQUARE OF THE LENGTH OF THE
002116: 00,2764           50104                           INDEX    FIXLOC                                #  ARGUMENT IN LVSQUARE.
002117: 00,2765           52043                           DXCH     LVSQUARE
002118:
002119: 00,2766           03272                           TC       SQRTSUB                               #  GO TAKE THE NORMALIZED SQUARE ROOT.
002120:
002121: 00,2767           10140                           CCS      MPAC                                  #  CHECK FOR UNIT OVERFLOW.
002122: 00,2770           12775                           TCF      +5                                    #  MPAC IS NOT LESS THAN .5 UNLESS
002123: 00,2771           54001                           TS       L
002124: 00,2772           50104                           INDEX    FIXLOC
002125: 00,2773           52045                           DXCH     LV
002126: 00,2774           12355                           TCF      DVOVF                                 #  INPUT TO SQRTSUB WAS 0.
002127:
002128: 00,2775           43076                           CS       FOURTEEN                              #  SEE IF THE INPUT WAS SO SMALL THE THE
002129: 00,2776           60121                           AD       MPTEMP                                #  FIRST TWO REGISTERS OF THE SQUARE WERE 0
002130: 00,2777           10000                           CCS      A
002131: 00,3000           40000                           COM                                            #  IF SO, SAVE THE NEGATIVE OF THE SHIFT
002132: 00,3001           13057                           TCF      SMALL                                 #  COUNT -15D.
002133:
002134: 00,3002           13011                           TCF      LARGE                                 #  (THIS IS USUALLY THE CASE.)
002135:
002136: 00,3003           43075                           CS       THIRTEEN                              #  IF THE SHIFT COUNT WAS EXACTLY 14, SET
002137: 00,3004           54121                           TS       MPTEMP                                #  THE PRE-DIVIDE NORM COUNT TO -13D.
002138:
002139: 00,3005           30140                           CA       MPAC                                  #  SHIFT THE LENGTH RIGHT 14 BEFORE STORING
002140: 00,3006           54001        SMALL2             TS       L                                     #  (SMALL EXITS TO THIS POINT).
002141: 00,3007           37657                           CAF      ZERO
002142: 00,3010           13036                           TCF      LARGE2                                #  GO TO STORE LENGTH AND PROCEED.
002143:
002144: 00,3011           10121        LARGE              CCS      MPTEMP                                #  MOST ALL CASES COME HERE.
002145: 00,3012           13020                           TCF      LARGE3                                #  SEE IF NO NORMALIZATION WAS REQUIRED BY
002146:
002147: 00,3013           42005                           CS       SRDDV                                 #  SQRT, AND IF SO, SET UP FOR A SHIFT
002148: 00,3014           54121                           TS       MPTEMP                                #  RIGHT 1 BEFORE DIVIDING TO PRODUCE
002149: 00,3015           00006                           EXTEND                                         #  THE DESIRED HALF UNIT VECTOR.
002150: 00,3016           30141                           DCA      MPAC
002151: 00,3017           13036                           TCF      LARGE2
002152:
002153: 00,3020           40000        LARGE3             COM                                            #  LEAVE NEGATIVE OF SHIFT COUNT-1 FOR
002154: 00,3021           54121                           TS       MPTEMP                                #  PREDIVIDE LEFT SHIFT.
002155:
002156: 00,3022           40000                           COM                                            #  PICK UP REQUIRED SHIFTING BIT TO UNNORM-
002157: 00,3023           50000                           INDEX    A                                     #  ALIZE THE SQRT RESULT.
002158: 00,3024           37635                           CAF      BIT14
002159: 00,3025           54114                           TS       BUF
002160: 00,3026           00006                           EXTEND
002161: 00,3027           70141                           MP       MPAC       +1
002162: 00,3030           56114                           XCH      BUF
002163: 00,3031           00006                           EXTEND                                         #  (UNNORMALIZE THE SQRT FOR LV).
002164: 00,3032           70140                           MP       MPAC
002165: 00,3033           56001                           XCH      L
002166: 00,3034           60114                           AD       BUF
002167: 00,3035           56001                           XCH      L
002168:
002169: 00,3036           50104        LARGE2             INDEX    FIXLOC
002170: 00,3037           52045                           DXCH     LV                                    #  LENGTH NOW STORED IN WORK AREA.
002171:
002172: 00,3040           47652                           CS       ONE
002173: 00,3041           54124                           TS       MAXDVSW                               #  NO MAXDV CASES IN UNIT.
002174:
002175: 00,3042           52107                           DXCH     VBUF                                  #  PREPARE X COMPONENT FOR DIVIDE, SETTING
002176: 00,3043           52141                           DXCH     MPAC                                  #  LENGTH OF VECTOR AS DIVISOR IN BUF.
002177: 00,3044           52115                           DXCH     BUF
002178: 00,3045           03077                           TC       UNITDV
002179:
002180: 00,3046           52111                           DXCH     VBUF       +2                         #  DO Y AND Z IN USUAL FASHION SO WE CAN
002181: 00,3047           52141                           DXCH     MPAC                                  #  EXIT THROUGH VROTATEX.
002182: 00,3050           52144                           DXCH     MPAC       +3
002183: 00,3051           03077                           TC       UNITDV
002184:
002185: 00,3052           52113                           DXCH     VBUF       +4
002186: 00,3053           52141                           DXCH     MPAC
002187: 00,3054           52146                           DXCH     MPAC       +5
002188: 00,3055           03077                           TC       UNITDV
002189: 00,3056           17366                           TCF      VROTATEX                              #  AND EXIT.
002190:
002191:                                                                                                  #           IF THE LENGTH OF THE ARGUMENT VECTOR WAS LESS THAN 2(-28), EACH COMPONENT MUST BE SHIFTED LEFT AT LEAST
002192:                                                                                                  #  14 PLACES BEFORE THE DIVIDE. NOTE THAT IN THIS CASE, THE MAJOR PART OF EACH COMPONENT IS ZERO.
002193:
002194: 00,3057           54121        SMALL              TS       MPTEMP                                #  NEGATIVE OF PRE-DIVIDE SHIFT COUNT.
002195:
002196: 00,3060           37657                           CAF      ZERO                                  #  SHIFT EACH COMPONENT LEFT 14.
002197: 00,3061           56107                           XCH      VBUF       +1
002198: 00,3062           56106                           XCH      VBUF
002199: 00,3063           56111                           XCH      VBUF       +3
002200: 00,3064           56110                           XCH      VBUF       +2
002201: 00,3065           56113                           XCH      VBUF       +5
002202: 00,3066           56112                           XCH      VBUF       +4
002203:
002204: 00,3067           40121                           CS       MPTEMP
002205: 00,3070           50000                           INDEX    A
002206: 00,3071           37635                           CAF      BIT14
002207: 00,3072           00006                           EXTEND
002208: 00,3073           70140                           MP       MPAC
002209: 00,3074           13006                           TCF      SMALL2
002210:
002211: 00,3075           00015        THIRTEEN           DEC      13         B-14
002212: 00,3076           00016        FOURTEEN           DEC      14         B-14
002213:
002214:                                                                                                  #           THE FOLLOWING ROUTINE SETS UP THE CALL TO THE DIVIDE ROUTINES.
002215:
002216: 00,3077           10140        UNITDV             CCS      MPAC                                  #  FORCE MPAC POSITIVE IF POSSIBLE, SETTING
002217: 00,3100           13116                           TCF      UMPAC+                                #  DVSIGN ACCORDING TO THE SIGN OF MPAC
002218: 00,3101           13103                           TCF      +2                                    #  SINCE THE DIVISOR IS ALWAYS POSITIVE
002219: 00,3102           13110                           TCF      UMPAC-                                #  HERE.
002220:
002221: 00,3103           10141                           CCS      MPAC       +1
002222: 00,3104           13116                           TCF      UMPAC+
002223: 00,3105           00002                           TC       Q                                     #  EXIT IMMEDIATELY ON ZERO.
002224: 00,3106           13110                           TCF      UMPAC-
002225: 00,3107           00002                           TC       Q
002226:
002227: 00,3110           47657        UMPAC-             CS       ZERO                                  #  IF NEGATIVE, SET -0 IN DVSIGN FOR FINAL
002228: 00,3111           54122                           TS       DVSIGN                                #  COMPLEMENT.
002229: 00,3112           00006                           EXTEND
002230: 00,3113           40141                           DCS      MPAC                                  #  PICK UP ABSOLUTE VALUE OF ARG AND JUMP.
002231: 00,3114           50121                           INDEX    MPTEMP
002232: 00,3115           12506                           TCF      MAXTEST    -1
002233:
002234: 00,3116           54122        UMPAC+             TS       DVSIGN                                #  SET DVSIGN FOR POSITIVE QUOTIENT.
002235: 00,3117           52141                           DXCH     MPAC
002236: 00,3120           50121                           INDEX    MPTEMP
002237: 00,3121           12506                           TCF      MAXTEST    -1
002238:
002239:                                                                                                  #           MISCELLANEOUS UNARY OPERATIONS.
002240:
002241: 00,3122           03227        DSQ                TC       DSQSUB                                #  SQUARE THE DP CONTENTS OF MPAC.
002242: 00,3123           16014                           TCF      DANZIG
002243:
002244: 00,3124           10147        ABVALABS           CCS      MODE                                  #  ABVAL OR ABS INSTRUCTION.
002245: 00,3125           13154                           TCF      ABS                                   #  DO ABS ON SCALAR.
002246: 00,3126           13154                           TCF      ABS
002247:
002248: 00,3127           03246        ABVAL              TC       VSQSUB                                #  DOT MPAC WITH ITSELF.
002249: 00,3130           22147                           LXCH     MODE                                  #  MODE IS NOW DP (L ZERO AFTER DAS).
002250:
002251: 00,3131           00006                           EXTEND                                         #  STORE SQUARE OF LENGTH IN WORK AREA.
002252: 00,3132           30141                           DCA      MPAC
002253: 00,3133           50104                           INDEX    FIXLOC
002254: 00,3134           52043                           DXCH     LVSQUARE
002255:
002256: 00,3135           03272        SQRT               TC       SQRTSUB                               #  TAKE THE SQUARE ROOT OF MPAC.
002257: 00,3136           10121                           CCS      MPTEMP                                #  RETURNED NORMALIZED SQUARE ROOT. SEE IF
002258: 00,3137           13141                           TCF      +2                                    #  ANY UN-NORMALIZATION REQUIRED AND EXIT
002259: 00,3140           16014                           TCF      DANZIG                                #  IF NOT.
002260:
002261: 00,3141           62273                           AD       NEG12                                 #  A RIGHT SHIFT OF MORE THAN 13 COULD BE
002262: 00,3142           00006                           EXTEND                                         #  REQUIRED IF INPUT WAS ZERO IN MPAC,+1.
002263: 00,3143           63147                           BZMF     SQRTSHFT                              #  GOES HERE IN MOST CASES.
002264: 00,3144           22007                           ZL                                             #  IF A LONG SHIFT IS REQUIRED, GO TO
002265: 00,3145           22102                           LXCH     ADDRWD                                #  GENERAL RIGHT SHIFT ROUTINES.
002266: 00,3146           12263                           TCF      GENSCR     +4                         #  ADDRWD WAS ZERO TO PREVENT ROUND.
002267:
002268: 00,3147           50121        SQRTSHFT           INDEX    MPTEMP                                #  SELECT SHIFTING BIT AND EXIT THROUGH
002269: 00,3150           37634                           CAF      BIT15                                 #  SHIFT ROUTINES.
002270: 00,3151           54121                           TS       MPTEMP
002271: 00,3152           37657                           CAF      ZERO                                  #  TO ZERO MPAC +2 IN THE PROCESS.
002272: 00,3153           12017                           TCF      MPACSHR    +3
002273:
002274: 00,3154           06711        ABS                TC       BRANCH                                #  TEST SIGN OF MPAC AND COMPLEMENT IF
002275: 00,3155           16014                           TCF      DANZIG
002276: 00,3156           16014                           TCF      DANZIG
002277: 00,3157           17611                           TCF      COMP
002278:
002279: 00,3160           47650        VDEF               CS       FOUR                                  #  VECTOR DEFINE - ESSENTIALLY TREATS
002280: 00,3161           26152                           ADS      PUSHLOC                               #  SCALAR IN MPAC AS X COMPONENT, PUSHES UP
002281: 00,3162           00006                           EXTEND                                         #  FOR Y AND THEN AGAIN FOR Z.
002282: 00,3163           50000                           INDEX    A
002283: 00,3164           30003                           DCA      2
002284: 00,3165           52144                           DXCH     MPAC       +3
002285: 00,3166           00006                           EXTEND
002286: 00,3167           50152                           INDEX    PUSHLOC
002287: 00,3170           30001                           DCA      0
002288: 00,3171           52146                           DXCH     MPAC       +5
002289: 00,3172           47652                           CS       ONE                                   #  MODE IS NOW VECTOR.
002290: 00,3173           16013                           TCF      NEWMODE
002291:
002292: 00,3174           03246        VSQ                TC       VSQSUB                                #  DOT MPAC WITH ITSELF.
002293: 00,3175           37657                           CAF      ZERO
002294: 00,3176           16013                           TCF      NEWMODE                               #  MODE IS NOW DP.
002295:
002296: 00,3177           00006        PUSH               EXTEND                                         #  PUSH DOWN MPAC LEAVING IT LOADED.
002297: 00,3200           30141                           DCA      MPAC
002298: 00,3201           50152                           INDEX    PUSHLOC                               #  PUSH DOWN FIRST TWO REGISTERS IN EACH
002299: 00,3202           52001                           DXCH     0
002300:
002301: 00,3203           50147                           INDEX    MODE                                  #  INCREMENT PUSHDOWN POINTER.
002302: 00,3204           36164                           CAF      NO.WDS
002303: 00,3205           26152                           ADS      PUSHLOC
002304:
002305: 00,3206           10147                           CCS      MODE
002306: 00,3207           13222                           TCF      TPUSH                                 #  PUSH DOWN MPAC +2.
002307: 00,3210           16014                           TCF      DANZIG                                #  DONE FOR DP.
002308:
002309: 00,3211           00006                           EXTEND                                         #  ON VECTOR, PUSH DOWN Y AND Z COMPONENTS.
002310: 00,3212           30144                           DCA      MPAC       +3
002311: 00,3213           50152                           INDEX    PUSHLOC
002312: 00,3214           51775                           DXCH     0          -4
002313: 00,3215           00006                           EXTEND
002314: 00,3216           30146                           DCA      MPAC       +5
002315: 00,3217           50152                           INDEX    PUSHLOC
002316: 00,3220           51777                           DXCH     0          -2
002317: 00,3221           16014                           TCF      DANZIG
002318:
002319: 00,3222           30142        TPUSH              CA       MPAC       +2
002320: 00,3223           16560                           TCF      ENDTPUSH   +2
002321:
002322: 00,3224           50104        RVQ                INDEX    FIXLOC                                #  RVQ - RETURN IVA QPRET.
002323: 00,3225           30052                           CA       QPRET
002324: 00,3226           16652                           TCF      GOTO       +1
002325:
002326:                                                                                                  #           THE FOLLOWING SUBROUTINES ARE USED IN SQUARING MPAC, IN BOTH THE SCALAR AND VECTOR SENSE. THEY ARE
002327:                                                                                                  #  SPECIAL CASES OF DMPSUB AND DOTSUB, PUT IN TO SAVE SOME TIME.
002328:
002329: 00,3227           30141        DSQSUB             CA       MPAC       +1                         #  SQUARES THE SCALAR CONTENTS OF MPAC.
002330: 00,3230           00006                           EXTEND
002331: 00,3231           70000                           SQUARE
002332: 00,3232           54142                           TS       MPAC       +2
002333: 00,3233           37657                           CAF      ZERO                                  #  FORM 2(CROSS TERM).
002334: 00,3234           56141                           XCH      MPAC       +1
002335: 00,3235           00006                           EXTEND
002336: 00,3236           70140                           MP       MPAC
002337: 00,3237           20001                           DDOUBL                                         #  AND MAYBE OVERFLOW.
002338: 00,3240           20142                           DAS      MPAC       +1                         #  AND SET A TO NET OVERFLOW.
002339: 00,3241           56140                           XCH      MPAC
002340: 00,3242           00006                           EXTEND
002341: 00,3243           70000                           SQUARE
002342: 00,3244           20141                           DAS      MPAC
002343: 00,3245           00002                           TC       Q
002344:
002345: 00,3246           00006        VSQSUB             EXTEND                                         #  DOTS THE VECTOR IN MPAC WITH ITSELF.
002346: 00,3247           22123                           QXCH     DOTRET
002347: 00,3250           03227                           TC       DSQSUB                                #  SQUARE THE X COMPONENT.
002348: 00,3251           52144                           DXCH     MPAC       +3
002349: 00,3252           52141                           DXCH     MPAC
002350: 00,3253           52115                           DXCH     BUF                                   #  SO WE CAN END IN DOTSUB.
002351: 00,3254           30142                           CA       MPAC       +2
002352: 00,3255           54116                           TS       BUF        +2
002353:
002354: 00,3256           03227                           TC       DSQSUB                                #  SQUARE Y COMPONENT.
002355: 00,3257           52142                           DXCH     MPAC       +1
002356: 00,3260           20116                           DAS      BUF        +1
002357: 00,3261           60140                           AD       MPAC
002358: 00,3262           60114                           AD       BUF
002359: 00,3263           54114                           TS       BUF
002360: 00,3264           13266                           TCF      +2
002361: 00,3265           54105                           TS       OVFIND                                #  IF OVERFLOW.
002362:
002363: 00,3266           52146                           DXCH     MPAC       +5
002364: 00,3267           52141                           DXCH     MPAC
002365: 00,3270           03227                           TC       DSQSUB                                #  SQUARE Z COMPONENT.
002366: 00,3271           17165                           TCF      ENDDOT                                #  END AS IN DOTSUB.
002367:
002368:                                                                                                  #           DOUBLE PRECISION SQUARE ROOT ROUTINE. TAKE THE SQUARE ROOT OF THE TRIPLE PRECISION (MPAC +2 USED ONLY
002369:                                                                                                  #  IN NORMALIZATION) CONTENTS OF MPAC AND LEAVE THE NORMALIZED RESULT IN MPAC (C(MPAC) GREATER THAN OR EQUAL TO
002370:                                                                                                  #  .5).  THE RIGHT SHIFT COUNT (TO UNNORMALIZE) IS LEFT IN MPTEMP.
002371:
002372:
002373:
002374: 00,3272           37657        SQRTSUB            CAF      ZERO                                  #  START BY ZEROING RIGHT SHIFT COUNT.
002375: 00,3273           54121                           TS       MPTEMP
002376:
002377: 00,3274           10140                           CCS      MPAC                                  #  CHECK FOR POSITIVE ARGUMENT, SHIFTING
002378: 00,3275           13333                           TCF      SMPAC+                                #  FIRST SIGNIFICANT MPAC REGISTER INTO
002379: 00,3276           13300                           TCF      +2                                    #  MPAC ITSELF.
002380: 00,3277           13322                           TCF      SQRTNEG                               #  SEE IF MAG OF ARGUMENT LESS THAN 10(-4).
002381:
002382: 00,3300           56142                           XCH      MPAC       +2                         #  MPAC IS ZERO - SHIFT LEFT 14.
002383: 00,3301           56141                           XCH      MPAC       +1
002384: 00,3302           54140                           TS       MPAC
002385: 00,3303           37656                           CAF      SEVEN                                 #  AUGMENT RIGHT SHIFT COUNTER.
002386: 00,3304           54121                           TS       MPTEMP
002387:
002388: 00,3305           10140                           CCS      MPAC                                  #  SEE IF MPAC NOW PNZ.
002389: 00,3306           13333                           TCF      SMPAC+
002390: 00,3307           13311                           TCF      +2
002391: 00,3310           13325                           TCF      ZEROANS                               #  NEGATIVE BUT LESS THAN 10(-4) IN MAG.
002392:
002393: 00,3311           56141                           XCH      MPAC       +1                         #  ZERO - SHIFT LEFT 14 AGAIN.
002394: 00,3312           54140                           TS       MPAC
002395: 00,3313           37656                           CAF      SEVEN                                 #  AUGMENT RIGHT SHIFT COUNTER.
002396: 00,3314           26121                           ADS      MPTEMP
002397:
002398: 00,3315           10140                           CCS      MPAC
002399: 00,3316           13333                           TCF      SMPAC+
002400: 00,3317           00002                           TC       Q                                     #  SQRT(0) = 0.
002401: 00,3320           13325                           TCF      ZEROANS
002402: 00,3321           00002                           TC       Q
002403:
002404:
002405:
002406: 00,3322           10000        SQRTNEG            CCS      A                                     #  ARGUMENT IS NEGATIVE, BUT SEE IF SIGN-
002407: 00,3323           13331                           TCF      SQRTABRT                              #  CORRECTED ARGUMENT IS LESS THAN 10(-4)
002408:
002409: 00,3324           10141                           CCS      MPAC       +1                         #  IN MAGNITUDE. IF SO, CALL ANSWER ZERO.
002410: 00,3325           37657        ZEROANS            CAF      ZERO                                  #  FORCE ANSWER TO ZERO HERE.
002411: 00,3326           13401                           TCF      FIXROOT
002412: 00,3327           13331                           TCF      SQRTABRT
002413: 00,3330           13401                           TCF      FIXROOT
002414:
002415: 00,3331           05350        SQRTABRT           TC       ABORT
002416: 00,3332           01302                           OCT      1302
002417:
002418: 00,3333           62410        SMPAC+             AD       -1/2+2                                #  SEE IF ARGUMENT GREATER THAN OR EQUAL TO
002419: 00,3334           00006                           EXTEND                                         #  .5.
002420: 00,3335           63404                           BZMF     SRTEST                                #  IF SO, SEE IF LESS THAN .25.
002421:
002422: 00,3336           52141                           DXCH     MPAC                                  #  WE WILL TAKE THE SQUARE ROOT OF MPAC/2.
002423: 00,3337           22021                           LXCH     SR                                    #  SHIFT RIGHT 1 AND GO TO THE SQRT ROUTINE
002424: 00,3340           00006                           EXTEND
002425: 00,3341           77635                           MP       HALF
002426: 00,3342           52141                           DXCH     MPAC
002427: 00,3343           56021                           XCH      SR
002428: 00,3344           26141                           ADS      MPAC       +1                         #  GUARANTEED NO OVERFLOW.
002429:
002430: 00,3345           32274        ARGHI              CAF      SLOPEHI                               #  ARGUMENT BETWEEN .25 AND .5. GET A
002431: 00,3346           00006                           EXTEND                                         #  LINEAR APPROXIMATION FOR THIS RANGE.
002432: 00,3347           70140                           MP       MPAC
002433: 00,3350           62510                           AD       BIASHI                                #  X0/2 = (MPAC/2)(SLOPEHI) + BIASHI/2.
002434:
002435: 00,3351           54114                 +4        TS       BUF                                   #  X0/2 (ARGLO ENTERS HERE).
002436: 00,3352           30140                           CA       MPAC                                  #  SINGLE-PRECISION THROUGHOUT.
002437: 00,3353           22007                           ZL
002438: 00,3354           00006                           EXTEND
002439: 00,3355           10114                           DV       BUF                                   #  (MPAC/2)/(X0/2)
002440: 00,3356           00006                           EXTEND
002441: 00,3357           77635                           MP       HALF
002442: 00,3360           26114                           ADS      BUF                                   #  X1 = X0/2 + .5(MPAC/2)/(X0/2).
002443:
002444: 00,3361           00006                           EXTEND
002445: 00,3362           77635                           MP       HALF                                  #  FORM UP X1/2.
002446: 00,3363           52141                           DXCH     MPAC                                  #  SAVE AND BRING OUT ARGUMENT.
002447: 00,3364           00006                           EXTEND                                         #  TAKE DP QUOTIENT WITH X1.
002448: 00,3365           10114                           DV       BUF
002449: 00,3366           54115                           TS       BUF        +1                         #  SAVE MAJOR PART OF QUOTIENT.
002450: 00,3367           37657                           CAF      ZERO                                  #  FORM MINOR PART OF QUOTIENT USING
002451: 00,3370           56001                           XCH      L                                     #  (REMAINDER,0).
002452: 00,3371           00006                           EXTEND
002453: 00,3372           10114                           DV       BUF
002454: 00,3373           54001                           TS       L                                     #  IN PREPARATION FOR DAS.
002455: 00,3374           30115                           CA       BUF        +1
002456: 00,3375           20141                           DAS      MPAC                                  #  X2 = X1/2 + (MPAC/2)X1
002457:
002458: 00,3376           00006                           EXTEND                                         #  OVERFLOWS IF ARG. NEAR POSMAX.
002459: 00,3377           13403                           BZF      TCQBNK00
002460: 00,3400           37632                           CAF      POSMAX
002461: 00,3401           54140        FIXROOT            TS       MPAC
002462: 00,3402           54141                           TS       MPAC       +1
002463: 00,3403           00002        TCQBNK00           TC       Q                                     #  RETURN TO CALLER TO UNNORMALIZE, ETC.
002464:
002465: 00,3404           67636        SRTEST             AD       QUARTER                               #  ARGUMENT WAS LESS THAN .5, SEE IF LESS
002466: 00,3405           00006                           EXTEND                                         #  THAN .25.
002467: 00,3406           63430                           BZMF     SQRTNORM                              #  IF SO, BEGIN NORMALIZATION.
002468:
002469: 00,3407           52141                           DXCH     MPAC                                  #  IF BETWEEN .5 AND .25, SHIFT RIGHT 1 AND
002470: 00,3410           22021                           LXCH     SR                                    #  START AT ARGLO.
002471: 00,3411           00006                           EXTEND
002472: 00,3412           77635                           MP       HALF
002473: 00,3413           52141                           DXCH     MPAC
002474: 00,3414           56021                           XCH      SR
002475: 00,3415           26141                           ADS      MPAC       +1                         #  NO OVERFLOW.
002476:
002477: 00,3416           32740        ARGLO              CAF      SLOPELO                               #  (NORMALIZED) ARGUMENT BETWEEN .125 AND
002478: 00,3417           00006                           EXTEND                                         #  .25
002479: 00,3420           70140                           MP       MPAC
002480: 00,3421           62250                           AD       BIASLO
002481: 00,3422           13351                           TCF      ARGHI      +4                         #  BEGIN SQUARE ROOT.
002482:
002483: 00,3423           00006        SQRTNM2            EXTEND                                         #  SHIFT LEFT 2 AND INCREMENT RIGHT SHIFT
002484: 00,3424           30142                           DCA      MPAC       +1                         #  COUNT (FOR TERMINAL UNNORMALIZATION).
002485: 00,3425           20142                           DAS      MPAC       +1
002486: 00,3426           60140                           AD       MPAC
002487: 00,3427           26140                           ADS      MPAC                                  #  (NO OVERFLOW).
002488:
002489: 00,3430           24121        SQRTNORM           INCR     MPTEMP                                #  FIRST TIME THROUGH, JUST SHIFT LEFT 1
002490: 00,3431           00006                           EXTEND                                         #  (PUTS IN EFFECTIVE RIGHT SHIFT SINCE
002491: 00,3432           30142                           DCA      MPAC       +1                         #  WE WANT MPAC/2).
002492: 00,3433           20142                           DAS      MPAC       +1
002493: 00,3434           60140                           AD       MPAC
002494: 00,3435           26140                           ADS      MPAC                                  #  (AGAIN NO OVERFLOW).
002495: 00,3436           60000                           DOUBLE
002496: 00,3437           54022                           TS       CYL
002497:
002498: 00,3440           10022        NORMTEST           CCS      CYL                                   #  SEE IF ARGUMENT NOW NORMALIZED AT
002499: 00,3441           10022                           CCS      CYL                                   #  GREATER THAN .125.
002500: 00,3442           13423                           TCF      SQRTNM2                               #  NO - SHIFT LEFT 2 MORE AND TRY AGAIN.
002501: 00,3443           13345                           TCF      ARGHI                                 #  YES - NOW BETWEEN .5 AND .25.
002502: 00,3444           13416                           TCF      ARGLO                                 #  ARGUMENT NOW BETWEEN .25 AND .125.
002503:
002504:                                                                                                  #  TRIGONOMETRIC FUNCTION PACKAGE.
002505:
002506:                                                                                                  #           THE FOLLOWING TRIGONOMETRIC FUNCTIONS ARE AVAILABLE AS INTERPRETIVE OPERATIONS:
002507:
002508:                                                                                                  #           1.      SIN            COMPUTES (1/2)SINE(2 PI MPAC).
002509:                                                                                                  #           2.      COS            COMPUTES (1/2)COSINE(2 PI MPAC).
002510:
002511:                                                                                                  #           3.      ASIN           COMPUTES (1/2PI)ARCSINE(2 MPAC).
002512:                                                                                                  #           4.      ACOS           COMPUTES (1/2PI)ARCCOSINE(2 MPAC).
002513:
002514:                                                                                                  #  SIN-ASIN AND COS-ACOS ARE MUTUALLY INVERSE, IE SIN(ASIN(X)) = X.
002515:
002516: 00,3445           06711        COSINE             TC       BRANCH                                #  FINDS COSINE USING THE IDENTITY
002517: 00,3446           13451                           TCF      +3                                    #  COS(X) = SIN(PI/2 - ABS(X)).
002518: 00,3447           13454                           TCF      PRESINE
002519: 00,3450           13454                           TCF      PRESINE
002520:
002521: 00,3451           00006                 +3        EXTEND
002522: 00,3452           40141                           DCS      MPAC
002523: 00,3453           52141                           DXCH     MPAC
002524:
002525: 00,3454           37636        PRESINE            CAF      QUARTER                               #  PI/2 SCALED.
002526: 00,3455           26140                           ADS      MPAC
002527:
002528:
002529:
002530: 00,3456           52141        SINE               DXCH     MPAC                                  #  DOUBLE ARGUMENT.
002531: 00,3457           20001                           DDOUBL
002532: 00,3460           54000                           OVSK                                           #  SEE IF OVERFLOW PRESENT.
002533: 00,3461           13464                           TCF      +3                                    #  IF NOT, ARGUMENT OK AS IS.
002534:
002535: 00,3462           00006                           EXTEND                                         #  IF SO, WE LOST (OR GAINED) PI, SO
002536: 00,3463           40001                           DCOM                                           #  COMPLEMENT MPAC USING THE IDENTITY
002537:                                                                                                  #  SIN(X-(+)PI) = SIN(-X).
002538: 00,3464           52141                 +3        DXCH     MPAC
002539: 00,3465           30140                           CA       MPAC                                  #  SEE IF ARGUMENT GREATER THAN .5 IN
002540: 00,3466           60000                           DOUBLE                                         #  MAGNITUDE. IF SO, REDUCE IT TO LESS THAN
002541: 00,3467           54001                           TS       L                                     #  .5 (+-PI/2 SCALED) AS FOLLOWS:
002542: 00,3470           13501                           TCF      SN1
002543:
002544: 00,3471           50000                           INDEX    A                                     #  IF POSITIVE, FORM PI - X, IF NEGATIVE
002545: 00,3472           37634                           CAF      NEG1/2     +1                         #  USE -PI - X.
002546: 00,3473           60000                           DOUBLE
002547: 00,3474           00006                           EXTEND
002548: 00,3475           60140                           SU       MPAC                                  #  GUARANTEED NO OVERFLOW.
002549: 00,3476           54140                           TS       MPAC
002550: 00,3477           40141                           CS       MPAC       +1
002551: 00,3500           54141                           TS       MPAC       +1
002552:
002553: 00,3501           00006        SN1                EXTEND                                         #  SET UP TO EVALUATE HASTINGS POLYNOMIAL
002554: 00,3502           30141                           DCA      MPAC
002555: 00,3503           52120                           DXCH     BUF2
002556: 00,3504           03227                           TC       DSQSUB                                #  SQUARE MPAC.
002557:
002558: 00,3505           07175                           TC       POLY                                  #  EVALUATE FOURTH ORDER POLYNOMIAL.
002559: 00,3506           00003                           DEC      3          B-14
002560: 00,3507           14441 37325                     2DEC     +.3926990796
002561:
002562: 00,3511           53250 60764                     2DEC     -.6459637111
002563:
002564: 00,3513           12146 21276                     2DEC     +.318758717
002565:
002566: 00,3515           75466 71471                     2DEC     -.074780249
002567:
002568: 00,3517           00236 32757                     2DEC     +.009694988
002569:
002570: 00,3521           32434                           CAF      LBUF2                                 #  MULTIPLY BY ARGUMENT AND SHIFT LEFT 2.
002571: 00,3522           07066                           TC       DMPSUB     -1
002572:
002573: 00,3523           00006                           EXTEND
002574: 00,3524           30142                           DCA      MPAC       +1
002575: 00,3525           20142                           DAS      MPAC       +1
002576: 00,3526           60140                           AD       MPAC
002577: 00,3527           26140                           ADS      MPAC                                  #  NEITHER SHIFT OVERFLOWS.
002578: 00,3530           00006                           EXTEND
002579: 00,3531           30142                           DCA      MPAC       +1
002580: 00,3532           20142                           DAS      MPAC       +1
002581: 00,3533           60140                           AD       MPAC
002582: 00,3534           26140                           ADS      MPAC
002583: 00,3535           16014                           TCF      DANZIG
002584:
002585:                                                                                                  #           ARCSIN/ARCCOS ROUTINE.
002586:
002587: 00,3536           33557        ARCSIN             CAF      LASINEX                               #  COMPUTE ARCSIN BY USING THE IDENTITY
002588: 00,3537           13541                           TCF      +2                                    #  ARCSIN(X) = PI/2 - ARCCOS(X).
002589:
002590: 00,3540           33641        ARCCOS             CAF      LDANZIG                               #  (EXITS IMMEDIATELY).
002591: 00,3541           54122                           TS       ESCAPE
002592: 00,3542           06711                           TC       BRANCH                                #  TEST SIGN OF INPUT.
002593: 00,3543           13553                           TCF      ACOSST                                #  START IMMEDIATELY IF POSITIVE.
002594: 00,3544           13655                           TCF      ACOSZERO                              #  ARCCOS(0) = PI/2 = .25.
002595: 00,3545           00006                           EXTEND                                         #  IF NEGATIVE, USE THE IDENTITY
002596: 00,3546           40141                           DCS      MPAC                                  #  ARCCOS(X) = PI - ARCCOS(-X), FORCING
002597: 00,3547           52141                           DXCH     MPAC                                  #  ARGUMENT POSITIVE.
002598: 00,3550           32247                           CAF      TCSUBTR                               #  SET EXIT TO DO ABOVE BEFORE
002599: 00,3551           56122                           XCH      ESCAPE                                #  ARCSIN/ARCCOS CONSIDERATIONS.
002600: 00,3552           54123                           TS       ESCAPE2
002601:
002602: 00,3553           47635        ACOSST             CS       HALF                                  #  TEST MAGNITUDE OF INPUT.
002603: 00,3554           60140                           AD       MPAC
002604: 00,3555           10000                           CCS      A
002605: 00,3556           13647                           TCF      ACOSOVF                               #  THIS IS PROBABLY AN OVERFLOW CASE.
002606:
002607: 00,3557           13635        LASINEX            TCF      ASINEX
002608:
002609: 00,3560           13570                           TCF      ACOSST2                               #  NO OVERFLOW - PROCEED.
002610:
002611: 00,3561           10141                           CCS      MPAC       +1                         #  IF MAJOR PART IS .5, CALL ANSWER 0
002612: 00,3562           37657                           CAF      ZERO                                  #  UNLESS MINOR PART NEGATIVE.
002613: 00,3563           13565                           TCF      ACOS=0
002614:
002615: 00,3564           13570                           TCF      ACOSST2
002616:
002617: 00,3565           54141        ACOS=0             TS       MPAC       +1
002618: 00,3566           54140                           TS       MPAC
002619: 00,3567           00122                           TC       ESCAPE
002620:
002621: 00,3570           00006        ACOSST2            EXTEND                                         #  NOW THAT ARGUMENT IS IN PROPER RANGE,
002622: 00,3571           40141                           DCS      MPAC                                  #  BEGIN COMPUTATION. USE HASTINGS
002623: 00,3572           67635                           AD       HALF                                  #  APPROXIMATION ARCCOS(X) = SQRT(1-X)P(X)
002624: 00,3573           52141                           DXCH     MPAC                                  #  IN A SCALED VERSION WHERE P(X) IS A
002625: 00,3574           52120                           DXCH     BUF2                                  #  SEVENTH ORDER POLYNOMIAL.
002626:
002627: 00,3575           03272                           TC       SQRTSUB                               #  RETURNS WITH NORMALIZED SQUARE ROOT.
002628:
002629: 00,3576           10121                           CCS      MPTEMP                                #  SEE IF UN-NORMALIZATION REQUIRED.
002630: 00,3577           13642                           TCF      ACOSSHR                               #  IF SO.
002631:
002632: 00,3600           52141        ACOS3              DXCH     MPAC                                  #  SET UP FOR POLYNOMIAL EVALUATION.
002633: 00,3601           52120                           DXCH     BUF2
002634: 00,3602           52141                           DXCH     MPAC
002635:
002636: 00,3603           07175                           TC       POLY
002637: 00,3604           00006                           DEC      6          B-14
002638: 00,3605           13240 23630                     2DEC     +.353553385                            #  COEFFICIENTS ARE C 2(+I)/PISQRT(2) WHERE
002639:
002640: 00,3607           74721 47775                     2DEC*    -.0483017006 B+1*                       #                  I
002641:
002642: 00,3611           02440 20237                     2DEC*    +.0200273085 B+2*                       #       WHERE C STANDS FOR ORIGINAL COEFFS.
002643:
002644: 00,3613           75067 70742                     2DEC*    -.0112931863 B+3*
002645:
002646: 00,3615           03436 26756                     2DEC*    +.00695311612 B+4*
002647:
002648: 00,3617           74037 57640                     2DEC*    -.00384617957 B+5*
002649:
002650: 00,3621           03046 07143                     2DEC*    +.001501297736 B+6*
002651:
002652: 00,3623           76654 42244                     2DEC*    -.000284160334 B+7*
002653:
002654: 00,3625           32434                           CAF      LBUF2                                 #  DO FINAL MULTIPLY AND GO TO ANY
002655: 00,3626           07066                           TC       DMPSUB     -1                         #  EPILOGUE SEQUENCES.
002656: 00,3627           00122                           TC       ESCAPE
002657:
002658: 00,3630           00006        SUBTR              EXTEND                                         #  EPILOGUE FOR NEGATIVE INPUTS TO ARCCOS.
002659: 00,3631           40141                           DCS      MPAC
002660: 00,3632           67635                           AD       HALF                                  #  FORMS PI - ARCCOS(-X) = ARCCOS(X).
002661: 00,3633           52141                           DXCH     MPAC
002662: 00,3634           00123                           TC       ESCAPE2                               #  GO TO POSSIBLE ARCSIN EPILOGUE.
002663:
002664: 00,3635           00006        ASINEX             EXTEND
002665: 00,3636           40141                           DCS      MPAC                                  #  ARCSIN EPILOGUE - GET ARCSIN(X)
002666: 00,3637           67636                           AD       QUARTER                               #  = PI/2 - ARCCOS(X).
002667: 00,3640           52141                           DXCH     MPAC
002668: 00,3641           16014        LDANZIG            TCF      DANZIG
002669:
002670: 00,3642           50000        ACOSSHR            INDEX    A                                     #  THE SHIFT RIGHT IS LESS THAN 14 SINCE
002671: 00,3643           37635                           CAF      BIT14                                 #  THE INPUT WAS NON-ZERO DP.
002672: 00,3644           54121                           TS       MPTEMP
002673: 00,3645           02054                           TC       VSHRRND                               #  DP SHIFT RIGHT AND ROUND.
002674: 00,3646           13600                           TCF      ACOS3                                 #  PROCEED.
002675:
002676: 00,3647           10000        ACOSOVF            CCS      A                                     #  IF MAJOR PART WAS ONLY 1 MORE THAN .5,
002677: 00,3650           13652                           TCF      +2                                    #  CALL ANSWER 0.
002678: 00,3651           13565                           TCF      ACOS=0
002679: 00,3652           13565                           TCF      ACOS=0
002680:
002681: 00,3653           05350        ACOSABRT           TC       ABORT
002682: 00,3654           01301                           OCT      1301
002683:
002684: 00,3655           37636        ACOSZERO           CAF      QUARTER                               #  ACOS(0) = PI/2.
002685: 00,3656           13566                           TCF      ACOS=0     +1                         #  SET MPAC AND EXIT VIA ESCAPE.
002686:
002687: 00,3657                        ENDINTS0           EQUALS
002688:
002689:                                                                                                  #           THE FOLLOWING INSTRUCTIONS ARE AVAILABLE FOR SETTING, MODIFYING, AND BRANCHING ON INDEX REGISTERS:
002690:                                                                                                  #           1.  AXT                ADDRESS TO INDEX TRUE.
002691:                                                                                                  #           1.  AXC                ADDRESS TO INDEX COMPLEMENTED.
002692:                                                                                                  #           3.  LXA                LOAD INDEX FROM ERASABLE.
002693:                                                                                                  #           4.  LXC                LOAD INDEX COMPLEMENTED FROM ERASABLE.
002694:                                                                                                  #           5.  SXA                STORE INDEX IN ERASABLE.
002695:                                                                                                  #           6.  XCHX               EXCHANGE INDEX REIGSTER WITH ERASABLE.
002696:
002697:                                                                                                  #           7.  INCR               INCREMENT INDEX REGISTER.
002698:                                                                                                  #           8.  XAD                ERASABLE ADD TO INDEX REGISTER.
002699:                                                                                                  #           9.  XSU                ERASABLE SUBTRACT FROM INDEX REGISTER.
002700:
002701:                                                                                                  #          10.  TIX                BRANCH ON INDEX REGISTER AND DECREMENT.
002702:
002703:
002704:
002705: 01,2000                                           SETLOC   12000                                 #  SUFFIX CLASS 01 IS IN BANK 1.
002706:
002707: 01,2000           02061        AXT                TC       TAGSUB                                #  SELECT APPROPRIATE INDEX REGISTER.
002708: 01,2001           30103                           CA       POLISH
002709: 01,2002           50114        XSTORE             INDEX    INDEXLOC                              #  CONTAINS C(FIXLOC) OR C(FIXLOC)+1.
002710: 01,2003           54046                           TS       X1
002711: 01,2004           16014                           TCF      DANZIG
002712:
002713: 01,2005           02061        AXC                TC       TAGSUB
002714: 01,2006           40103                           CS       POLISH
002715: 01,2007           02002                           TC       XSTORE
002716:
002717: 01,2010           02061        LXA                TC       TAGSUB                                #  LOAD INDEX FROM ERASABLE.
002718: 01,2011           50102                           INDEX    ADDRWD
002719: 01,2012           30000                           CA       0
002720: 01,2013           12002                           TCF      XSTORE
002721:
002722: 01,2014           02061        LXC                TC       TAGSUB                                #  LOAD INDEX FROM ERASABLE COMPLEMENTED.
002723: 01,2015           50102                           INDEX    ADDRWD
002724: 01,2016           40000                           CS       0
002725: 01,2017           12002                           TCF      XSTORE
002726:
002727: 01,2020           02061        SXA                TC       TAGSUB                                #  STORE INDEX IN ERASABLE.
002728: 01,2021           50114                           INDEX    INDEXLOC
002729: 01,2022           30046                           CA       X1
002730: 01,2023           16627                           TCF      STORE1                                # (STORE SINGLE PRECISION BEFORE EXIT).
002731:
002732: 01,2024           02061        XCHX               TC       TAGSUB                                #  EXCHANGE INDEX REGISTER WITH ERASABLE.
002733: 01,2025           50102                           INDEX    ADDRWD
002734: 01,2026           30000                           CA       0
002735: 01,2027           50114                           INDEX    INDEXLOC
002736: 01,2030           56046                           XCH      X1
002737: 01,2031           16627                           TCF      STORE1
002738:
002739: 01,2032           02061        XAD                TC       TAGSUB                                #  ERASABLE ADD TO INDEX.
002740: 01,2033           50102                           INDEX    ADDRWD
002741: 01,2034           30000                           CA       0
002742: 01,2035           50114        XAD2               INDEX    INDEXLOC
002743: 01,2036           26046                           ADS      X1                                    #  IGNORING OVERFLOWS.
002744: 01,2037           16014                           TCF      DANZIG
002745:
002746: 01,2040           02061        INCR               TC       TAGSUB                                #  INCREMENT INDEX REGISTER.
002747: 01,2041           30103                           CA       POLISH
002748: 01,2042           12035                           TCF      XAD2
002749:
002750: 01,2043           02061        XSU                TC       TAGSUB                                #  ERASABLE SUBTRACT FROM INDEX.
002751: 01,2044           50102                           INDEX    ADDRWD
002752: 01,2045           40000                           CS       0
002753: 01,2046           12035                           TCF      XAD2
002754:
002755:
002756:
002757: 01,2047           02061        TIX                TC       TAGSUB                                #  BRANCH AND DECREMENT ON INDEX.
002758: 01,2050           50114                           INDEX    INDEXLOC
002759: 01,2051           40050                           CS       S1
002760: 01,2052           50114                           INDEX    INDEXLOC
002761: 01,2053           60046                           AD       X1
002762: 01,2054           00006                           EXTEND                                         #  NO OPERATION IF DECREMENTED INDEX IS
002763: 01,2055           66014                           BZMF     DANZIG                                #  NEGATIVE OR ZERO.
002764:
002765: 01,2056           50114        DOTIXBR            INDEX    INDEXLOC
002766: 01,2057           56046                           XCH      X1                                    #  IGNORING OVERFLOWS.
002767:
002768: 01,2060           16651                           TCF      GOTO                                  #  DO THE BRANCH USING THE CADR IN POLISH.
002769:
002770:
002771:
002772:                                                                                                  #           SUBROUTINE WHICH SETS THE ADDRESS OF THE SPECIFIED INDEX IN INDEXLOC. (ACTUALLY, THE ADDRESS -38D.)
002773:
002774: 01,2061           30104        TAGSUB             CA       FIXLOC
002775: 01,2062           54114                           TS       INDEXLOC
002776:
002777: 01,2063           10020                           CCS      CYR                                   #  BIT 15 SPECIFIES INDEX.
002778: 01,2064           24114                           INCR     INDEXLOC                              #  0 MEANS USE X2.
002779: 01,2065           00002                           TC       Q
002780: 01,2066           00002                           TC       Q                                     #  1 FOR X1.
002781:
002782:                                                                                                  #           MISCELLANEOUS OPERATION CODES WITH DIRECT ADDRESSES. INCLUDED HERE ARE:
002783:
002784:                                                                                                  #           1.  ITA                STORE QPRET (RETURN ADDRESS) IN ERASABLE.
002785:                                                                                                  #           2.  CALL               CALL A SUBROUTINE, LEAVING RETURN IN QPRET.
002786:                                                                                                  #           3.  RTB                RETURN TO BASIC LANGUAGE AT THE GIVEN ADDRESS.
002787:                                                                                                  #           4.  BHIZ               BRANCH IF THE HIGH ORDER OF MPAC IS ZERO (SINGLE PRECISION).
002788:                                                                                                  #           5.  BOV                BRANCH ON OVERFLOW.
002789:                                                                                                  #           6.  GOTO               SIMPLE SEQUENCE CHANGE.
002790:
002791: 01,2067           10020        RTB/BHIZ           CCS      CYR
002792: 01,2070           30103        RTB                CA       POLISH
002793: 01,2071           14105                           TCF      BANKJUMP                              #  CALL BASIC ROUTINE.
002794:
002795: 01,2072           10140        BHIZ               CCS      MPAC
002796: 01,2073           16014                           TCF      DANZIG
002797: 01,2074           16651                           TCF      GOTO
002798: 01,2075           16014                           TCF      DANZIG
002799: 01,2076           16651                           TCF      GOTO
002800:
002801: 01,2077           10105        BOV(B)             CCS      OVFIND                                #  BRANCH ON OVERFLOW TO BASIC OR INTERP.
002802: 01,2100           12102                           TCF      +2
002803: 01,2101           16014                           TCF      DANZIG
002804: 01,2102           54105                           TS       OVFIND
002805: 01,2103           10020                           CCS      CYR
002806: 01,2104           12070                           TCF      RTB                                   #  IF BASIC.
002807: 01,2105           00360        B5TOB8             OCT      360
002808: 01,2106           16651                           TCF      GOTO
002809:
002810: 01,2107           10020        BZE/GOTO           CCS      CYR                                   #  SEE WHICH OP-CODE IS DESIRED.
002811: 01,2110           06711                           TC       BRANCH                                #  DO BZE.
002812: 01,2111           16014                           TCF      DANZIG
002813: 01,2112           16651                           TCF      GOTO                                  #  DO GOTO.
002814: 01,2113           16014                           TCF      DANZIG
002815:
002816: 01,2114           10020        BPL/BMN            CCS      CYR
002817: 01,2115           12123                           TCF      BPL
002818: 01,2116           12000        5B10               DEC      5          B+10                       #  SHIFTS OP CODE IN SWITCH INSTRUCTION ADR
002819:
002820: 01,2117           06711                           TC       BRANCH                                #  DO BMN.
002821: 01,2120           16014                           TCF      DANZIG
002822: 01,2121           16014                           TCF      DANZIG
002823: 01,2122           16651                           TCF      GOTO                                  #  ONLY IF NNZ.
002824:
002825: 01,2123           06711        BPL                TC       BRANCH
002826: 01,2124           16651                           TCF      GOTO                                  #  IF POSITIVE OR ZERO.
002827: 01,2125           16651                           TCF      GOTO
002828: 01,2126           16014                           TCF      DANZIG
002829:
002830: 01,2127           10020        CALL/ITA           CCS      CYR
002831: 01,2130           16644                           TCF      CALL
002832:
002833: 01,2131           05366                           TC       CCSHOLE
002834: 01,2132           50104                           INDEX    FIXLOC                                #  STORE QPRET.
002835: 01,2133           30052                           CA       QPRET
002836: 01,2134           16627                           TCF      STORE1
002837:
002838:                                                                                                  #           THE FOLLOWING OPERATIONS ARE AVAILABLE FOR ALTERING AND TESTING INTERPRETIVE SWITCHES:
002839:
002840:                                                                                                  #  00       BONSET                 SET A SWITCH AND DO A GOTO IF IT WAS ON.
002841:                                                                                                  #  01       SETGO                  SET A SWITCH AND DO A GOTO.
002842:                                                                                                  #  02       BOFSET                 SET A SWITCH AND DO A GOTO IF IT WAS OFF
002843:                                                                                                  #  03       SET                    SET A SWITCH.
002844:
002845:                                                                                                  #  04       BONINV                 INVERT A SWITCH AND BRANCH IF IT WAS ON.
002846:                                                                                                  #  05       INVGO                  INVERT A SWITCH AND DO A GOTO.
002847:                                                                                                  #  06       BOFINV                 INVERT A SWITCH AND BRANCH IF IT WAS OFF
002848:                                                                                                  #  07       INVERT                 INVERT A SWITCH.
002849:
002850:                                                                                                  #  10       BONCLR                 CLEAR A SWITCH AND BRANCH IF IT WAS ON.
002851:                                                                                                  #  11       CLRGO                  CLEAR A SWITCH AND DO A GOTO.
002852:                                                                                                  #  12       BOFCLR                 CLEAR A SWITCH AND BRANCH IF IT WAS OFF.
002853:                                                                                                  #  13       CLEAR                  CLEAR A SWITCH.
002854:
002855:                                                                                                  #  14       BON                    BRANCH IF A SWITCH WAS ON.
002856:                                                                                                  #  16       BOFF                   BRANCH IF A SWITCH WAS OFF.
002857:
002858:
002859:
002860:                                                                                                  #           THE ADDRESS SUPPLIED WITH THE SWITCH INSTRUCTION IS INTERPRETED AS FOLLOWS:
002861:
002862:                                                                                                  #           BITS 1-4    SWITCH BIT NUMBER (1-15).
002863:                                                                                                  #           BITS 5-8    SWITCH OPERATION NUMBER.
002864:                                                                                                  #           BITS 9-     SWITCH WORD NUMBER (UP TO 64 SWITCH WORDS).
002865:
002866:                                                                                                  #           THE ADDRESS ITSELF IS MADE UP BY THE YUL SYSTEM ASSEMBLER. THE BRANCH INSTRUCTIONS REQUIRE TWO
002867:                                                                                                  #  ADDRESSES, THE SECOND TAKEN AS THE DIRECT (OR INDIRECT IF IN ERASABLE) ADDRESS OF THE BRANCH.
002868:
002869:
002870:
002871: 01,2135           37665        SWITCHES           CAF      LOW4                                  #  LEAVE THE SWITCH BIT IN SWBIT  .
002872: 01,2136           70103                           MASK     POLISH
002873: 01,2137           50000                           INDEX    A
002874: 01,2140           37634                           CAF      BIT15                                 #  (NUMBER FROM LEFT TO RIGHT.)
002875: 01,2141           54115                           TS       SWBIT
002876:
002877: 01,2142           37644                           CAF      BIT7                                  #  LEAVE THE SWITCH NUMBER IN SWWORD.
002878: 01,2143           00006                           EXTEND
002879: 01,2144           70103                           MP       POLISH
002880: 01,2145           54114                           TS       SWWORD
002881:
002882: 01,2146           00004                           INHINT                                         #  DURING SWITCH CHANGE SO RUPT CAN USE TOO
002883: 01,2147           50000                           INDEX    A                                     #  LEAVE THE SWITCH WORD ITSELF IN L.
002884: 01,2150           30061                           CA       STATE
002885: 01,2151           54002                           TS       Q                                     #  Q WILL BE USED AS A CHANNEL.
002886:
002887:
002888: 01,2152           37640                           CAF      BIT11
002889: 01,2153           00006                           EXTEND                                         #  DISPATCH SWITCH BIT OPERATION AS IN BITS
002890: 01,2154           70103                           MP       POLISH                                #  7-8 OF POLISH.
002891: 01,2155           72215                           MASK     B3TOB4                                #  GETS 4X2-BIT CODE.
002892: 01,2156           50000                           INDEX    A
002893: 01,2157           12160                           TCF      +1
002894:
002895: 01,2160           30115                 +1        CA       SWBIT                                 #  00 - SET SWITCH IN QUESTION.
002896: 01,2161           00006                           EXTEND
002897: 01,2162           04002                           ROR      Q
002898: 01,2163           12172                           TCF      SWSTORE
002899:
002900: 01,2164           30115                 +5        CA       SWBIT                                 #  01 - INVERT SWITCH.
002901: 01,2165           00006                           EXTEND
002902: 01,2166           06002                           RXOR     Q
002903: 01,2167           12172                           TCF      SWSTORE
002904:
002905: 01,2170           40115                 +9D       CS       SWBIT                                 #  10 - CLEAR.
002906: 01,2171           70002                           MASK     Q
002907: 01,2172           50114        SWSTORE            INDEX    SWWORD
002908: 01,2173           54061                           TS       STATE                                 #  NEW SWITCH WORD.
002909:
002910: 01,2174           00003                 +13D      RELINT                                         #  11 - NOOP.
002911: 01,2175           37636                           CAF      BIT13
002912: 01,2176           00006                           EXTEND                                         #  DISPATCH SEQUCE CHANGING OR BRANCHING
002913: 01,2177           70103                           MP       POLISH                                #  CODE.
002914: 01,2200           72215                           MASK     B3TOB4
002915: 01,2201           50000                           INDEX    A
002916: 01,2202           12203                           TCF      +1                                    #  ORIGINALLY STORED IN BITS 5-6.
002917:
002918: 01,2203           40002                 +1        CS       Q                                     #  00 - BRANCH IF ON.
002919: 01,2204           70115        TEST               MASK     SWBIT
002920: 01,2205           10000                           CCS      A
002921: 01,2206           12216                           TCF      SWSKIP
002922:
002923: 01,2207           16703                 +5        TCF      SWBRANCH                              #  01 - GO TO.
002924:
002925: 01,2210           12216                           TCF      SWSKIP                                #  HERE ONLY ON BIT 15.
002926:
002927: 01,2211           05366                           TC       CCSHOLE
002928: 01,2212           05366                           TC       CCSHOLE
002929:
002930: 01,2213           30002                 +9D       CA       Q                                     #  10 - BRANCH IF OFF.
002931: 01,2214           12204                           TCF      TEST
002932:
002933: 01,2215           00014        B3TOB4             OCT      14
002934: 01,2216           24150        SWSKIP             INCR     LOC
002935:
002936: 01,2217  01,2135               SW/                EQUALS   SWITCHES
002937:
002938: 01,2217           16014                 +13D      TCF      DANZIG                                #  11 - NOOP.
002939: 01,2220                        ENDINTS1           EQUALS

End of include-file LIST_PROCESSING_INTERPRETER.agc.  Parent file is MAIN.agc


