
Source Code


000002:                                                                                                  ## Copyright:   Public domain.
000003:                                                                                                  ## Filename:    LOTS_INTERFACE.agc
000004:                                                                                                  ## Purpose:     A section of Aurora 88.
000005:                                                                                                  ##              It is part of the reconstructed source code for the final
000006:                                                                                                  ##              release of the Lunar Module system test software. No original
000007:                                                                                                  ##              listings of this program are available; instead, this file
000008:                                                                                                  ##              was created via disassembly of dumps of Aurora 88 core rope
000009:                                                                                                  ##              modules and comparison with other AGC programs.
000010:                                                                                                  ## Assembler:   yaYUL
000011:                                                                                                  ## Contact:     Ron Burkey <info@sandroid.org>.
000012:                                                                                                  ## Website:     www.ibiblio.org/apollo/index.html
000013:                                                                                                  ## Mod history: 2023-07-12 MAS  Created via disassembly.
000014:
000015: 07,2000                                           BANK     7
000016: 07,2000     1212                                  EBANK=   LOTSFLAG
000017:


000035:                                                                                                  ##</ul>
000036:
000037: 07,2000           12005        LOTSMONB           TCF      LOTSMON1
000038: 07,2001           12036        LOTSACQB           TCF      LOTSACQ1
000039: 07,2002           12071        LOTTESTB           TCF      LOTTEST1
000040: 07,2003           13251        LOTSTOWB           TCF      LOTSTOW1
000041: 07,2004           00002        LOTMARKB           TC       Q
000042:
000043: 07,2005           00006        LOTSMON1           EXTEND
000044: 07,2006           00033                           READ     33
000045: 07,2007           77644                           MASK     BIT7
000046: 07,2010           10000                           CCS      A
000047: 07,2011           12022                           TCF      U07,2022
000048:
000049: 07,2012           00006                           EXTEND
000050: 07,2013           00012                           READ     12
000051: 07,2014           77652                           MASK     BIT1
000052: 07,2015           10000                           CCS      A
000053: 07,2016           12022                           TCF      U07,2022
000054:
000055: 07,2017           05315                           TC       ALARM                                 #  TRACKER CDU FAIL
000056: 07,2020           00641                           OCT      00641
000057: 07,2021           13411                           TCF      U07,3411
000058:
000059: 07,2022           37635        U07,2022           CAF      BIT14
000060: 07,2023           71111                           MASK     LOTMODES
000061: 07,2024           00006                           EXTEND
000062: 07,2025           14353                           BZF      ENDOFJOB
000063:
000064: 07,2026           02143                           TC       U07,2143
000065:
000066: 07,2027           37657                           CAF      ZERO
000067: 07,2030           04063                           TC       BANKCALL
000068: 07,2031           14555                           CADR     U06,2555
000069:
000070: 07,2032           31204                           CA       UNK1204
000071: 07,2033           00006                           EXTEND
000072: 07,2034           14353                           BZF      ENDOFJOB
000073:
000074: 07,2035           12753                           TCF      U07,2753
000075:
000076: 07,2036           37641        LOTSACQ1           CAF      BIT10
000077: 07,2037           71111                           MASK     LOTMODES
000078: 07,2040           10000                           CCS      A
000079: 07,2041           12736                           TCF      ENDLOTVB
000080:
000081: 07,2042           02127                           TC       U07,2127
000082: 07,2043           55131                           TS       UNK1131
000083:
000084: 07,2044           37635                           CAF      BIT14
000085: 07,2045           71111                           MASK     LOTMODES
000086: 07,2046           55111                           TS       LOTMODES
000087:
000088: 07,2047           05221                           TC       GRABWAIT
000089: 07,2050           32135                           CAF      LUNK1116
000090: 07,2051           54142                           TS       MPAC       +2
000091: 07,2052           32136        U07,2052           CAF      V05N01E
000092: 07,2053           05234                           TC       NVSBWAIT
000093: 07,2054           05176                           TC       FLASHON
000094: 07,2055           05042                           TC       ENDIDLE
000095: 07,2056           12736                           TCF      ENDLOTVB
000096: 07,2057           12061                           TCF      +2
000097: 07,2060           12052                           TCF      U07,2052
000098:
000099: 07,2061           32142                           CAF      V24N71E
000100: 07,2062           05234                           TC       NVSBWAIT
000101: 07,2063           05042                           TC       ENDIDLE
000102: 07,2064           12736                           TCF      ENDLOTVB
000103: 07,2065           12070                           TCF      +3
000104: 07,2066           05303                           TC       FREEDSP
000105: 07,2067           12335                           TCF      U07,2335
000106: 07,2070           12736                           TCF      ENDLOTVB
000107:
000108: 07,2071           32140        LOTTEST1           CAF      9,13,14
000109: 07,2072           71111                           MASK     LOTMODES
000110: 07,2073           10000                           CCS      A
000111: 07,2074           12736                           TCF      ENDLOTVB
000112:
000113: 07,2075           05221                           TC       GRABWAIT
000114: 07,2076           32135                           CAF      LUNK1116
000115: 07,2077           54142                           TS       MPAC       +2
000116: 07,2100           32136        U07,2100           CAF      V05N01E
000117: 07,2101           05234                           TC       NVSBWAIT
000118: 07,2102           05176                           TC       FLASHON
000119: 07,2103           05042                           TC       ENDIDLE
000120: 07,2104           12736                           TCF      ENDLOTVB
000121: 07,2105           12107                           TCF      +2
000122: 07,2106           12100                           TCF      U07,2100
000123:
000124: 07,2107           00006                           EXTEND
000125: 07,2110           31115                           DCA      UNK1114
000126: 07,2111           53126                           DXCH     DESLOTSY   +1
000127:
000128: 07,2112           37657                           CAF      ZERO
000129: 07,2113           55124                           TS       DESLOTSY
000130:
000131: 07,2114           32137        U07,2114           CAF      V06N71E
000132: 07,2115           05234                           TC       NVSBWAIT
000133: 07,2116           05176                           TC       FLASHON
000134: 07,2117           05042                           TC       ENDIDLE
000135: 07,2120           12736                           TCF      ENDLOTVB
000136: 07,2121           12123                           TCF      +2
000137: 07,2122           12114                           TCF      U07,2114
000138:
000139: 07,2123           53126                           DXCH     DESLOTSY   +1
000140: 07,2124           53115                           DXCH     UNK1114
000141:
000142: 07,2125           05303                           TC       FREEDSP
000143: 07,2126           13422                           TCF      LOTTEST2
000144:
000145: 07,2127           42141        U07,2127           CS       BITS2&14
000146: 07,2130           00006                           EXTEND
000147: 07,2131           03012                           WAND     12
000148: 07,2132           37657                           CAF      ZERO
000149: 07,2133           55204                           TS       UNK1204
000150: 07,2134           00002                           TC       Q
000151:
000152: 07,2135           01116        LUNK1116           ADRES    UNK1116
000153: 07,2136           00501        V05N01E            OCT      00501
000154: 07,2137           00671        V06N71E            OCT      00671
000155: 07,2140           30400        9,13,14            OCT      30400
000156: 07,2141           20002        BITS2&14           OCT      20002
000157: 07,2142           02471        V24N71E            OCT      02471
000158:
000159: 07,2143           00006        U07,2143           EXTEND
000160: 07,2144           23207                           QXCH     UNK1207
000161: 07,2145           00006                           EXTEND
000162: 07,2146           30036                           DCA      OPTY
000163: 07,2147           53130                           DXCH     UNK1127
000164: 07,2150           55210                           TS       UNK1210
000165:
000166: 07,2151           00004                           INHINT
000167: 07,2152           32332                           CAF      LUNK1130
000168: 07,2153           54114                           TS       BUF
000169: 07,2154           31117                           CA       UNK1117
000170: 07,2155           54126                           TS       TEM2
000171:
000172: 07,2156           37651                           CAF      BIT2
000173: 07,2157           00006                           EXTEND
000174: 07,2160           02033                           RAND     33
000175: 07,2161           10000                           CCS      A
000176: 07,2162           12165                           TCF      +3
000177: 07,2163           32334                           CAF      U07,2334
000178: 07,2164           26126                           ADS      TEM2
000179: 07,2165           04063                           TC       BANKCALL
000180: 07,2166           33607                           CADR     CDUINC     +1
000181:
000182: 07,2167           31130                           CA       UNK1130
000183: 07,2170           55123                           TS       ELANG
000184:
000185: 07,2171           32333                           CAF      LUNK1127
000186: 07,2172           54114                           TS       BUF
000187: 07,2173           31120                           CA       UNK1120
000188: 07,2174           54126                           TS       TEM2
000189: 07,2175           04063                           TC       BANKCALL
000190: 07,2176           33607                           CADR     CDUINC     +1
000191:
000192: 07,2177           11127                           CCS      UNK1127
000193: 07,2200           31127                           CA       UNK1127
000194: 07,2201           12212                           TCF      U07,2212
000195: 07,2202           12203                           NOOP
000196:
000197: 07,2203           41111                           CS       LOTMODES
000198: 07,2204           55111                           TS       LOTMODES
000199: 07,2205           41121                           CS       AZANG
000200: 07,2206           55121                           TS       AZANG
000201:
000202: 07,2207           37657                           CAF      ZERO
000203: 07,2210           00006                           EXTEND
000204: 07,2211           21127                           MSU      UNK1127
000205: 07,2212           55122        U07,2212           TS       AZANG      +1
000206:
000207: 07,2213           31210                           CA       UNK1210
000208: 07,2214           54001                           TS       L
000209: 07,2215           31111                           CA       LOTMODES
000210: 07,2216           00006                           EXTEND
000211: 07,2217           06001                           RXOR     L
000212: 07,2220           77634                           MASK     BIT15
000213: 07,2221           10000                           CCS      A
000214: 07,2222           12224                           TCF      +2
000215: 07,2223           12253                           TCF      U07,2253
000216:
000217: 07,2224           41122                           CS       AZANG      +1
000218: 07,2225           67635                           AD       HALF
000219: 07,2226           00006                           EXTEND
000220: 07,2227           62241                           BZMF     U07,2241
000221:
000222: 07,2230           37651                           CAF      TWO
000223: 07,2231           61121                           AD       AZANG
000224: 07,2232           00006                           EXTEND
000225: 07,2233           12245                           BZF      U07,2245
000226:
000227: 07,2234           11121                           CCS      AZANG
000228: 07,2235           12251                           TCF      U07,2251
000229: 07,2236           12251                           TCF      U07,2251
000230: 07,2237           12247                           TCF      U07,2247
000231: 07,2240           12247                           TCF      U07,2247
000232:
000233: 07,2241           11121        U07,2241           CCS      AZANG
000234: 07,2242           12247                           TCF      U07,2247
000235: 07,2243           12247                           TCF      U07,2247
000236: 07,2244           12245                           NOOP
000237:
000238: 07,2245           47652        U07,2245           CS       ONE
000239: 07,2246           12252                           TCF      +4
000240: 07,2247           37657        U07,2247           CAF      ZERO
000241: 07,2250           12252                           TCF      +2
000242: 07,2251           37651        U07,2251           CAF      TWO
000243: 07,2252           55121                           TS       AZANG
000244:
000245: 07,2253           31111        U07,2253           CA       LOTMODES
000246: 07,2254           00006                           EXTEND
000247: 07,2255           62257                           BZMF     +2
000248: 07,2256           12264                           TCF      U07,2264
000249:
000250: 07,2257           41111                           CS       LOTMODES
000251: 07,2260           55111                           TS       LOTMODES
000252: 07,2261           00006                           EXTEND
000253: 07,2262           41122                           DCS      AZANG
000254: 07,2263           53122                           DXCH     AZANG
000255:
000256: 07,2264           32331        U07,2264           CAF      LAZANG
000257: 07,2265           02270                           TC       U07,2270
000258: 07,2266           00003                           RELINT
000259: 07,2267           01207                           TC       UNK1207
000260:
000261: 07,2270           00006        U07,2270           EXTEND
000262: 07,2271           23210                           QXCH     UNK1210
000263: 07,2272           55211                           TS       UNK1211
000264: 07,2273           50000                           INDEX    A
000265: 07,2274           22001                           LXCH     1
000266: 07,2275           51211                           INDEX    UNK1211
000267: 07,2276           30000                           CA       0
000268: 07,2277           00006                           EXTEND
000269: 07,2300           06001                           RXOR     L
000270: 07,2301           77634                           MASK     BIT15
000271: 07,2302           10000                           CCS      A
000272: 07,2303           12305                           TCF      +2
000273: 07,2304           12326                           TCF      U07,2326
000274:
000275: 07,2305           51211                           INDEX    UNK1211
000276: 07,2306           10000                           CCS      0
000277: 07,2307           37632                           CAF      POSMAX
000278: 07,2310           12312                           TCF      +2
000279: 07,2311           47632                           CS       POSMAX
000280: 07,2312           26001                           ADS      L
000281:
000282: 07,2313           51211                           INDEX    UNK1211
000283: 07,2314           30000                           CA       0
000284: 07,2315           00006                           EXTEND
000285: 07,2316           62326                           BZMF     U07,2326
000286:
000287: 07,2317           30001                           CA       L
000288: 07,2320           00006                           EXTEND
000289: 07,2321           62324                           BZMF     +3
000290: 07,2322           67652                           AD       ONE
000291: 07,2323           12325                           TCF      +2
000292: 07,2324           37657                           CA       ZERO
000293: 07,2325           54001                           TS       L
000294:
000295: 07,2326           51211        U07,2326           INDEX    UNK1211
000296: 07,2327           22001                           LXCH     1
000297: 07,2330           01210                           TC       UNK1210
000298:
000299: 07,2331           01121        LAZANG             ADRES    AZANG
000300: 07,2332           01130        LUNK1130           ADRES    UNK1130
000301: 07,2333           01127        LUNK1127           ADRES    UNK1127
000302: 07,2334           00032        U07,2334           DEC      26         B-14
000303:
000304: 07,2335           37652        U07,2335           CAF      ONE
000305: 07,2336           55145                           TS       UNK1145
000306:
000307: 07,2337           32743                           CAF      9,10,13
000308: 07,2340           71111                           MASK     LOTMODES
000309: 07,2341           00006                           EXTEND
000310: 07,2342           12347                           BZF      U07,2347
000311:
000312: 07,2343           05315                           TC       ALARM                                 #  MORE THAN ONE PROGRAM TRYING TO USE
000313: 07,2344           00611                           OCT      00611                                 #  OPTICAL TRACKER
000314:
000315: 07,2345           02713                           TC       OTRKFLON
000316: 07,2346           12736                           TCF      ENDLOTVB
000317:
000318: 07,2347           02127        U07,2347           TC       U07,2127
000319: 07,2350           02532                           TC       U07,2532
000320: 07,2351           12736                           TCF      ENDLOTVB
000321:
000322: 07,2352           37635        U07,2352           CAF      BIT14
000323: 07,2353           71111                           MASK     LOTMODES
000324: 07,2354           10000                           CCS      A
000325: 07,2355           12432                           TCF      U07,2432
000326:
000327: 07,2356           37642                           CAF      BIT9
000328: 07,2357           02704                           TC       OTFLAGUP
000329:
000330: 07,2360           04063                           TC       BANKCALL
000331: 07,2361           16502                           CADR     LOTZERO
000332: 07,2362           04063                           TC       BANKCALL
000333: 07,2363           26714                           CADR     OPTSTALL
000334: 07,2364           12365                           NOOP
000335: 07,2365           04063                           TC       BANKCALL
000336: 07,2366           16462                           CADR     U07,2462
000337: 07,2367           04063                           TC       BANKCALL
000338: 07,2370           26714                           CADR     OPTSTALL
000339: 07,2371           12372                           NOOP
000340:
000341: 07,2372           00006                           EXTEND
000342: 07,2373           31125                           DCA      DESLOTSY
000343: 07,2374           53147                           DXCH     UNK1146
000344: 07,2375           31126                           CA       DESLOTSX
000345: 07,2376           55150                           TS       UNK1150
000346:
000347: 07,2377           02616                           TC       U07,2616
000348: 07,2400           12727                           TCF      U07,2727
000349:
000350: 07,2401           32752                           CAF      95DEG
000351: 07,2402           55125                           TS       DESLOTSY   +1
000352:
000353: 07,2403           37652                           CAF      ONE
000354: 07,2404           04063                           TC       BANKCALL
000355: 07,2405           16457                           CADR     U07,2457
000356: 07,2406           04063                           TC       BANKCALL
000357: 07,2407           26714                           CADR     OPTSTALL
000358: 07,2410           12661                           TCF      U07,2661
000359:
000360: 07,2411           32751                           CAF      85.7DEG
000361: 07,2412           55125                           TS       DESLOTSY   +1
000362:
000363: 07,2413           37652                           CAF      ONE
000364: 07,2414           04063                           TC       BANKCALL
000365: 07,2415           16457                           CADR     U07,2457
000366: 07,2416           04063                           TC       BANKCALL
000367: 07,2417           26714                           CADR     OPTSTALL
000368: 07,2420           12663                           TCF      U07,2663
000369:
000370: 07,2421           00006        U07,2421           EXTEND
000371: 07,2422           31147                           DCA      UNK1146
000372: 07,2423           53125                           DXCH     DESLOTSY
000373: 07,2424           31150                           CA       UNK1150
000374: 07,2425           55126                           TS       DESLOTSX
000375:
000376: 07,2426           47642                           CS       BIT9
000377: 07,2427           71111                           MASK     LOTMODES
000378: 07,2430           55111                           TS       LOTMODES
000379: 07,2431           12437                           TCF      U07,2437
000380:
000381: 07,2432           04063        U07,2432           TC       BANKCALL
000382: 07,2433           16462                           CADR     U07,2462
000383: 07,2434           04063                           TC       BANKCALL
000384: 07,2435           26714                           CADR     OPTSTALL
000385: 07,2436           12437                           NOOP
000386:
000387: 07,2437           04063        U07,2437           TC       BANKCALL
000388: 07,2440           16452                           CADR     U07,2452
000389: 07,2441           04063                           TC       BANKCALL
000390: 07,2442           26714                           CADR     OPTSTALL
000391: 07,2443           12724                           TCF      U07,2724
000392:
000393: 07,2444           37657                           CAF      ZERO
000394: 07,2445           55135                           TS       UNK1135
000395: 07,2446           02127                           TC       U07,2127
000396:
000397: 07,2447           32747                           CAF      30.0SEC
000398: 07,2450           04063                           TC       BANKCALL
000399: 07,2451           15001                           CADR     U06,3001
000400:
000401: 07,2452           37636        U07,2452           CAF      PRIO10
000402: 07,2453           04276                           TC       NOVAC
000403: 07,2454           02477 16002                     2CADR    U07,2477
000404:
000405: 07,2456           31145                           CA       UNK1145
000406: 07,2457           62744        U07,2457           AD       U07,2744
000407: 07,2460           55204        U07,2460           TS       UNK1204
000408: 07,2461           04076                           TC       SWRETURN
000409:
000410: 07,2462           42742        U07,2462           CS       BITS1&14
000411: 07,2463           00006                           EXTEND
000412: 07,2464           03012                           WAND     12
000413:
000414: 07,2465           37651                           CAF      BIT2
000415: 07,2466           00006                           EXTEND
000416: 07,2467           05012                           WOR      12
000417:
000418: 07,2470           36165                           CAF      THREE
000419: 07,2471           00004                           INHINT
000420: 07,2472           04451                           TC       WAITLIST
000421: 07,2473           03064 16002                     2CADR    OGOODEND
000422:
000423: 07,2475           00003                           RELINT
000424: 07,2476           04076                           TC       SWRETURN
000425:
000426: 07,2477           05303        U07,2477           TC       FREEDSP
000427: 07,2500           04063                           TC       BANKCALL
000428: 07,2501           22056                           CADR     ENDEXTVB
000429:
000430: 07,2502           47651        LOTZERO            CS       BIT2
000431: 07,2503           00006                           EXTEND
000432: 07,2504           03012                           WAND     12
000433:
000434: 07,2505           37652                           CAF      BIT1
000435: 07,2506           00006                           EXTEND
000436: 07,2507           05012                           WOR      12
000437:
000438: 07,2510           37645                           CAF      BIT6
000439: 07,2511           00004                           INHINT
000440: 07,2512           04451                           TC       WAITLIST
000441: 07,2513           02517 16002                     2CADR    LOTZ2
000442:
000443: 07,2515           00003                           RELINT
000444: 07,2516           04076                           TC       SWRETURN
000445:
000446: 07,2517           37657        LOTZ2              CAF      ZERO
000447: 07,2520           54036                           TS       OPTX
000448: 07,2521           54035                           TS       OPTY
000449:
000450: 07,2522           47652                           CS       BIT1
000451: 07,2523           00006                           EXTEND
000452: 07,2524           03012                           WAND     12
000453:
000454: 07,2525           32750                           CAF      3.0SEC
000455: 07,2526           04451                           TC       WAITLIST
000456: 07,2527           03064 16002                     2CADR    OGOODEND
000457:
000458: 07,2531           04505                           TC       TASKOVER
000459:
000460: 07,2532           00006        U07,2532           EXTEND
000461: 07,2533           23152                           QXCH     UNK1152
000462:
000463: 07,2534           37652                           CAF      ONE
000464: 07,2535           55144                           TS       UNK1144
000465:
000466: 07,2536           31116                           CA       UNK1116
000467: 07,2537           00006                           EXTEND
000468: 07,2540           06033                           RXOR     33
000469: 07,2541           77651                           MASK     BIT2
000470: 07,2542           10000                           CCS      A
000471: 07,2543           12551                           TCF      U07,2551
000472:
000473: 07,2544           04063                           TC       BANKCALL
000474: 07,2545           16553                           CADR     U07,2553
000475: 07,2546           04063                           TC       BANKCALL
000476: 07,2547           26714                           CADR     OPTSTALL
000477:
000478: 07,2550           01152                           TC       UNK1152
000479:
000480: 07,2551           51152        U07,2551           INDEX    UNK1152
000481: 07,2552           00001                           TC       1
000482:
000483: 07,2553           31144        U07,2553           CA       UNK1144
000484: 07,2554           67647                           AD       BIT4
000485: 07,2555           00006                           EXTEND
000486: 07,2556           05013                           WOR      13
000487:
000488: 07,2557           37647                           CAF      EIGHT
000489: 07,2560           00004                           INHINT
000490: 07,2561           04451                           TC       WAITLIST
000491: 07,2562           02566 16002                     2CADR    U07,2566
000492:
000493: 07,2564           00003                           RELINT
000494: 07,2565           04076                           TC       SWRETURN
000495:
000496: 07,2566           41144        U07,2566           CS       UNK1144
000497: 07,2567           00006                           EXTEND
000498: 07,2570           03013                           WAND     13
000499:
000500: 07,2571           32741                           CAF      1.0SEC
000501: 07,2572           04451                           TC       WAITLIST
000502: 07,2573           02576 16002                     2CADR    U07,2576
000503:
000504: 07,2575           04505                           TC       TASKOVER
000505:
000506: 07,2576           37651        U07,2576           CAF      BIT2
000507: 07,2577           71144                           MASK     UNK1144
000508: 07,2600           10000                           CCS      A
000509: 07,2601           12607                           TCF      U07,2607
000510:
000511: 07,2602           31116                           CA       UNK1116
000512: 07,2603           00006                           EXTEND
000513: 07,2604           06033                           RXOR     33
000514: 07,2605           77651                           MASK     BIT2
000515: 07,2606           10000                           CCS      A
000516: 07,2607           13064        U07,2607           TCF      OGOODEND
000517:
000518: 07,2610           05315                           TC       ALARM                                 #  STAR/BEACON MODE SWITCH FAILURE
000519: 07,2611           00613                           OCT      00613
000520: 07,2612           02713                           TC       OTRKFLON
000521:
000522: 07,2613           37652        OBADEND            CAF      ONE
000523: 07,2614           04102                           TC       POSTJUMP
000524: 07,2615           26664                           CADR     BADEND
000525:
000526: 07,2616           00006        U07,2616           EXTEND
000527: 07,2617           23153                           QXCH     UNK1153
000528:
000529: 07,2620           00006                           EXTEND
000530: 07,2621           30036                           DCA      OPTY
000531: 07,2622           55127                           TS       UNK1127
000532: 07,2623           53123                           DXCH     AZANG      +1
000533:
000534: 07,2624           37657                           CAF      ZERO
000535: 07,2625           55121                           TS       AZANG
000536:
000537: 07,2626           47652                           CS       ONE
000538: 07,2627           55112                           TS       UNK1112
000539:
000540: 07,2630           00006                           EXTEND
000541: 07,2631           31122                           DCA      AZANG
000542: 07,2632           53125                           DXCH     DESLOTSY
000543:
000544: 07,2633           37635                           CAF      BIT14
000545: 07,2634           02704                           TC       OTFLAGUP
000546:
000547: 07,2635           37636                           CAF      BIT13
000548: 07,2636           71111                           MASK     LOTMODES
000549: 07,2637           10000                           CCS      A
000550: 07,2640           12647                           TCF      U07,2647
000551:
000552: 07,2641           37657                           CAF      ZERO
000553: 07,2642           55126                           TS       DESLOTSX
000554:
000555: 07,2643           37632                           CAF      POSMAX
000556: 07,2644           55161                           TS       UNK1161
000557:
000558: 07,2645           32746                           CAF      U07,2746
000559: 07,2646           12652                           TCF      U07,2652
000560:
000561: 07,2647           33417        U07,2647           CAF      -75DEG
000562: 07,2650           55126                           TS       DESLOTSX
000563:
000564: 07,2651           32745                           CAF      U07,2745
000565: 07,2652           04063        U07,2652           TC       BANKCALL
000566: 07,2653           16460                           CADR     U07,2460
000567: 07,2654           04063                           TC       BANKCALL
000568: 07,2655           26714                           CADR     OPTSTALL
000569: 07,2656           01153                           TC       UNK1153
000570:
000571: 07,2657           51153                           INDEX    UNK1153
000572: 07,2660           00001                           TC       1
000573:
000574: 07,2661           37651        U07,2661           CAF      TWO
000575: 07,2662           12666                           TCF      +4
000576: 07,2663           41122        U07,2663           CS       AZANG      +1
000577: 07,2664           55122                           TS       AZANG      +1
000578: 07,2665           47652                           CS       ONE
000579: 07,2666           55121                 +4        TS       AZANG
000580:
000581: 07,2667           37657                           CAF      ZERO
000582: 07,2670           55124                           TS       DESLOTSY
000583:
000584: 07,2671           37635                           CAF      HALF
000585: 07,2672           55125                           TS       DESLOTSY   +1
000586:
000587: 07,2673           37657                           CAF      ZERO
000588: 07,2674           54372                           TS       OPTCADR
000589:
000590: 07,2675           37652                           CAF      ONE
000591: 07,2676           04063                           TC       BANKCALL
000592: 07,2677           16457                           CADR     U07,2457
000593: 07,2700           04063                           TC       BANKCALL
000594: 07,2701           26714                           CADR     OPTSTALL
000595: 07,2702           12727                           TCF      U07,2727
000596:
000597: 07,2703           12421                           TCF      U07,2421
000598:
000599: 07,2704           00004        OTFLAGUP           INHINT
000600: 07,2705           23111                           LXCH     LOTMODES
000601: 07,2706           00006                           EXTEND
000602: 07,2707           05001                           WOR      L
000603: 07,2710           23111                           LXCH     LOTMODES
000604: 07,2711           00003                           RELINT
000605: 07,2712           00002                           TC       Q
000606:
000607: 07,2713           00004        OTRKFLON           INHINT
000608: 07,2714           22322                           LXCH     DSPTAB     +11D
000609: 07,2715           37643                           CAF      BIT8
000610: 07,2716           67634                           AD       BIT15
000611: 07,2717           00006                           EXTEND
000612: 07,2720           05001                           WOR      L
000613: 07,2721           22322                           LXCH     DSPTAB     +11D
000614: 07,2722           00003                           RELINT
000615: 07,2723           00002                           TC       Q
000616:
000617: 07,2724           05315        U07,2724           TC       ALARM                                 #  UNABLE TO ACHIEVE DESIRED LOS WITHIN
000618: 07,2725           00614                           OCT      00614                                 #  30 SECONDS
000619: 07,2726           12731                           TCF      U07,2731
000620:
000621: 07,2727           05315        U07,2727           TC       ALARM                                 #  CANNOT GET OUT OF STOW
000622: 07,2730           00612                           OCT      00612
000623:
000624: 07,2731           02713        U07,2731           TC       OTRKFLON
000625: 07,2732           37635                           CAF      PRIO20
000626: 07,2733           04276                           TC       NOVAC
000627: 07,2734           03251 16002                     2CADR    LOTSTOW1
000628:
000629: 07,2736           05303        ENDLOTVB           TC       FREEDSP
000630: 07,2737           04102                           TC       POSTJUMP
000631: 07,2740           22056                           CADR     ENDEXTVB
000632:
000633: 07,2741           00144        1.0SEC             DEC      100        B-14
000634: 07,2742           20001        BITS1&14           OCT      20001
000635: 07,2743           11400        9,10,13            OCT      11400
000636: 07,2744           00750        U07,2744           OCT      00750
000637: 07,2745           00245        U07,2745           OCT      00245
000638: 07,2746           00754        U07,2746           OCT      00754
000639: 07,2747           05670        30.0SEC            DEC      3000       B-14
000640: 07,2750           00454        3.0SEC             DEC      300        B-14
000641: 07,2751           17171        85.7DEG            OCT      17171
000642: 07,2752           20707        95DEG              OCT      20707
000643:
000644: 07,2753           47647        U07,2753           CS       BIT4
000645: 07,2754           27204                           ADS      UNK1204
000646: 07,2755           73241                           MASK     U07,3241
000647: 07,2756           10000                           CCS      A
000648: 07,2757           12770                           TCF      U07,2770
000649: 07,2760           55204                           TS       UNK1204
000650:
000651: 07,2761           37652                           CAF      ONE
000652: 07,2762           00004                           INHINT
000653: 07,2763           04451                           TC       WAITLIST
000654: 07,2764           02613 16002                     2CADR    OBADEND
000655:
000656: 07,2766           00003                           RELINT
000657: 07,2767           04353                           TC       ENDOFJOB
000658:
000659: 07,2770           31204        U07,2770           CA       UNK1204
000660: 07,2771           77656                           MASK     LOW3
000661: 07,2772           50000                           INDEX    A
000662: 07,2773           12773                           TCF      +0
000663: 07,2774           13003                           TCF      U07,3003
000664: 07,2775           13075                           TCF      U07,3075
000665: 07,2776           13104                           TCF      U07,3104
000666: 07,2777           13220                           TCF      U07,3220
000667: 07,3000           13046                           TCF      U07,3046
000668: 07,3001           13227                           TCF      U07,3227
000669: 07,3002           13230                           TCF      U07,3230
000670:
000671: 07,3003           36165        U07,3003           CAF      THREE
000672: 07,3004           55151                           TS       UNK1151
000673: 07,3005           50000                           INDEX    A
000674: 07,3006           31123                           CA       ELANG
000675: 07,3007           63245                           AD       1DEG
000676: 07,3010           00006                           EXTEND
000677: 07,3011           63025                           BZMF     U07,3025
000678:
000679: 07,3012           51151                           INDEX    UNK1151
000680: 07,3013           31123                           CA       ELANG
000681: 07,3014           63246                           AD       -84DEG
000682: 07,3015           00006                           EXTEND
000683: 07,3016           63020                           BZMF     +2
000684: 07,3017           13027                           TCF      U07,3027
000685:
000686: 07,3020           11151                           CCS      UNK1151
000687: 07,3021           47657                           CS       ZERO
000688: 07,3022           13004                           TCF      U07,3003   +1
000689: 07,3023           15366                           TCF      CCSHOLE
000690: 07,3024           13046                           TCF      U07,3046
000691:
000692: 07,3025           37657        U07,3025           CAF      ZERO
000693: 07,3026           13030                           TCF      +2
000694: 07,3027           43246        U07,3027           CS       -84DEG
000695: 07,3030           57126                           XCH      DESLOTSX
000696: 07,3031           55151                           TS       UNK1151
000697:
000698: 07,3032           33231                           CAF      U07,3231
000699: 07,3033           55205                           TS       UNK1205
000700:
000701: 07,3034           33243                           CAF      U07,3243
000702: 07,3035           03067                           TC       U07,3067
000703: 07,3036           13075                           TCF      U07,3075
000704:
000705: 07,3037           31151        U07,3037           CA       UNK1151
000706: 07,3040           55126                           TS       DESLOTSX
000707:
000708: 07,3041           33247                           CAF      U07,3247
000709: 07,3042           55205                           TS       UNK1205
000710:
000711: 07,3043           33242                           CAF      U07,3242
000712: 07,3044           03067                           TC       U07,3067
000713: 07,3045           13104                           TCF      U07,3104
000714:
000715: 07,3046           33232        U07,3046           CAF      U07,3232
000716: 07,3047           55205                           TS       UNK1205
000717:
000718: 07,3050           33237                           CAF      U07,3237
000719: 07,3051           03067                           TC       U07,3067
000720: 07,3052           13104                           TCF      U07,3104
000721:
000722: 07,3053           37657        U07,3053           CAF      ZERO
000723: 07,3054           55204                           TS       UNK1204
000724:
000725: 07,3055           37652                           CAF      ONE
000726: 07,3056           00004                           INHINT
000727: 07,3057           04451                           TC       WAITLIST
000728: 07,3060           03064 16002                     2CADR    OGOODEND
000729:
000730: 07,3062           00003                           RELINT
000731: 07,3063           04353                           TC       ENDOFJOB
000732:
000733: 07,3064           37652        OGOODEND           CAF      ONE
000734: 07,3065           04102                           TC       POSTJUMP
000735: 07,3066           26667                           CADR     GOODEND
000736:
000737: 07,3067           55154        U07,3067           TS       UNK1154
000738: 07,3070           33240                           CAF      U07,3240
000739: 07,3071           71204                           MASK     UNK1204
000740: 07,3072           61154                           AD       UNK1154
000741: 07,3073           55204                           TS       UNK1204
000742: 07,3074           00002                           TC       Q
000743:
000744: 07,3075           37652        U07,3075           CAF      ONE
000745: 07,3076           55206                           TS       UNK1206
000746: 07,3077           31126                           CA       DESLOTSX
000747: 07,3100           00006                           EXTEND
000748: 07,3101           21123                           MSU      ELANG
000749: 07,3102           22000                           LXCH     A
000750: 07,3103           13124                           TCF      U07,3124
000751:
000752: 07,3104           37657        U07,3104           CAF      ZERO
000753: 07,3105           55206                           TS       UNK1206
000754: 07,3106           54142                           TS       MPAC       +2
000755:
000756: 07,3107           00006                           EXTEND
000757: 07,3110           31125                           DCA      DESLOTSY
000758: 07,3111           52141                           DXCH     MPAC
000759:
000760: 07,3112           00006                           EXTEND
000761: 07,3113           41122                           DCS      AZANG
000762: 07,3114           20141                           DAS      MPAC
000763: 07,3115           07230                           TC       TPAGREE
000764: 07,3116           52141                           DXCH     MPAC
000765: 07,3117           00006                           EXTEND
000766: 07,3120           13124                           BZF      U07,3124
000767: 07,3121           00006                           EXTEND
000768: 07,3122           63146                           BZMF     U07,3146
000769: 07,3123           13135                           TCF      U07,3135
000770:
000771: 07,3124           10001        U07,3124           CCS      L
000772: 07,3125           13131                           TCF      U07,3131
000773: 07,3126           13203                           TCF      U07,3203
000774: 07,3127           13142                           TCF      U07,3142
000775: 07,3130           13203                           TCF      U07,3203
000776:
000777: 07,3131           51206        U07,3131           INDEX    UNK1206
000778: 07,3132           63233                           AD       U07,3233
000779: 07,3133           00006                           EXTEND
000780: 07,3134           63140                           BZMF     U07,3140
000781:
000782: 07,3135           51206        U07,3135           INDEX    UNK1206
000783: 07,3136           43235                           CS       U07,3235
000784: 07,3137           13166                           TCF      U07,3166
000785:
000786: 07,3140           30001        U07,3140           CA       L
000787: 07,3141           13152                           TCF      U07,3151   +1
000788:
000789: 07,3142           51206        U07,3142           INDEX    UNK1206
000790: 07,3143           63233                           AD       U07,3233
000791: 07,3144           00006                           EXTEND
000792: 07,3145           63151                           BZMF     U07,3151
000793:
000794: 07,3146           51206        U07,3146           INDEX    UNK1206
000795: 07,3147           33235                           CAF      U07,3235
000796: 07,3150           13166                           TCF      U07,3166
000797:
000798: 07,3151           40001        U07,3151           CS       L
000799: 07,3152           63604                           AD       U07,3604
000800: 07,3153           00006                           EXTEND
000801: 07,3154           63203                           BZMF     U07,3203
000802:
000803: 07,3155           22000                           LXCH     A
000804: 07,3156           00006                           EXTEND
000805: 07,3157           77636                           MP       BIT13
000806: 07,3160           56001                           XCH      L
000807: 07,3161           60000                           DOUBLE
000808: 07,3162           54065                           TS       ITEMP1
000809: 07,3163           13165                           TCF      +2
000810: 07,3164           26001                           ADS      L
000811: 07,3165           22000                           LXCH     A
000812:
000813: 07,3166           51206        U07,3166           INDEX    UNK1206
000814: 07,3167           54053                           TS       OPTYCMD
000815: 07,3170           37635        U07,3170           CAF      BIT14
000816: 07,3171           71204                           MASK     UNK1204
000817: 07,3172           00006                           EXTEND
000818: 07,3173           13177                           BZF      U07,3177
000819:
000820: 07,3174           11206                           CCS      UNK1206
000821: 07,3175           13177                           TCF      U07,3177
000822: 07,3176           13075                           TCF      U07,3075
000823:
000824: 07,3177           33244        U07,3177           CAF      U07,3244
000825: 07,3200           00006                           EXTEND
000826: 07,3201           05014                           WOR      14
000827: 07,3202           04353                           TC       ENDOFJOB
000828:
000829: 07,3203           11205        U07,3203           CCS      UNK1205
000830: 07,3204           13206                           TCF      +2
000831: 07,3205           13170                           TCF      U07,3170
000832:
000833: 07,3206           11206                           CCS      UNK1206
000834: 07,3207           37637                           CAF      BIT12
000835: 07,3210           67637                           AD       BIT12
000836: 07,3211           40000                           COM
000837: 07,3212           71204                           MASK     UNK1204
000838: 07,3213           55204                           TS       UNK1204
000839:
000840: 07,3214           73250                           MASK     U07,3250
000841: 07,3215           10000                           CCS      A
000842: 07,3216           13170                           TCF      U07,3170
000843: 07,3217           01205                           TC       UNK1205
000844:
000845: 07,3220           37657        U07,3220           CAF      ZERO
000846: 07,3221           54053                           TS       OPTYCMD
000847:
000848: 07,3222           31161                           CA       UNK1161
000849: 07,3223           54054                           TS       OPTXCMD
000850:
000851: 07,3224           37227                           CAF      FIVE
000852: 07,3225           03067                           TC       U07,3067
000853: 07,3226           13177                           TCF      U07,3177
000854:
000855: 07,3227           04353        U07,3227           TC       ENDOFJOB
000856: 07,3230           04353        U07,3230           TC       ENDOFJOB
000857:
000858: 07,3231           03037        U07,3231           OCT      03037
000859: 07,3232           03053        U07,3232           OCT      03053
000860:
000861: 07,3233           75614        U07,3233           OCT      75614
000862: 07,3234           76054                           OCT      76054
000863:
000864: 07,3235           77342        U07,3235           OCT      77342
000865: 07,3236           77412                           OCT      77412
000866:
000867: 07,3237           34003        U07,3237           OCT      34003
000868: 07,3240           02770        U07,3240           OCT      02770
000869: 07,3241           00770        U07,3241           OCT      00770
000870: 07,3242           04003        U07,3242           OCT      04003
000871: 07,3243           10002        U07,3243           OCT      10002
000872: 07,3244           06000        U07,3244           OCT      06000
000873: 07,3245           00133        1DEG               OCT      00133
000874: 07,3246           61042        -84DEG             OCT      61042
000875: 07,3247           03046        U07,3247           OCT      03046
000876: 07,3250           14000        U07,3250           OCT      14000
000877:
000878: 07,3251           37635        LOTSTOW1           CAF      BIT14
000879: 07,3252           71111                           MASK     LOTMODES
000880: 07,3253           00006                           EXTEND
000881: 07,3254           12736                           BZF      ENDLOTVB
000882:
000883: 07,3255           37641                           CAF      BIT10
000884: 07,3256           71111                           MASK     LOTMODES
000885: 07,3257           10000                           CCS      A
000886: 07,3260           12736                           TCF      ENDLOTVB
000887:
000888: 07,3261           37641                           CAF      BIT10
000889: 07,3262           02704                           TC       OTFLAGUP
000890: 07,3263           02127                           TC       U07,2127
000891:
000892: 07,3264           37657                           CAF      ZERO
000893: 07,3265           54372                           TS       OPTCADR
000894: 07,3266           04063                           TC       BANKCALL
000895: 07,3267           16502                           CADR     LOTZERO
000896: 07,3270           04063                           TC       BANKCALL
000897: 07,3271           26714                           CADR     OPTSTALL
000898: 07,3272           13273                           NOOP
000899:
000900: 07,3273           37635                           CAF      HALF
000901: 07,3274           55125                           TS       DESLOTSY   +1
000902:
000903: 07,3275           37657                           CAF      ZERO
000904: 07,3276           55124                           TS       DESLOTSY
000905: 07,3277           55126                           TS       DESLOTSX
000906:
000907: 07,3300           04063                           TC       BANKCALL
000908: 07,3301           16462                           CADR     U07,2462
000909: 07,3302           04063                           TC       BANKCALL
000910: 07,3303           26714                           CADR     OPTSTALL
000911: 07,3304           13305                           NOOP
000912:
000913: 07,3305           37652                           CAF      ONE
000914: 07,3306           04063                           TC       BANKCALL
000915: 07,3307           16457                           CADR     U07,2457
000916: 07,3310           04063                           TC       BANKCALL
000917: 07,3311           26714                           CADR     OPTSTALL
000918: 07,3312           13405                           TCF      U07,3405
000919:
000920: 07,3313           33417        U07,3313           CAF      -75DEG
000921: 07,3314           55126                           TS       DESLOTSX
000922:
000923: 07,3315           47632                           CS       POSMAX
000924: 07,3316           55161                           TS       UNK1161
000925:
000926: 07,3317           33421                           CAF      U07,3421
000927: 07,3320           04063                           TC       BANKCALL
000928: 07,3321           16460                           CADR     U07,2460
000929: 07,3322           04063                           TC       BANKCALL
000930: 07,3323           26714                           CADR     OPTSTALL
000931:
000932: 07,3324           37657                           CAF      ZERO
000933: 07,3325           54372                           TS       OPTCADR
000934: 07,3326           02127                           TC       U07,2127
000935: 07,3327           55111                           TS       LOTMODES
000936: 07,3330           55131                           TS       UNK1131
000937:
000938: 07,3331           37637                           CAF      BIT12
000939: 07,3332           02704                           TC       OTFLAGUP
000940:
000941: 07,3333           33414                           CAF      U07,3414
000942: 07,3334           55151                           TS       UNK1151
000943:
000944: 07,3335           33415                           CAF      15SEC
000945: 07,3336           00004                           INHINT
000946: 07,3337           04451                           TC       WAITLIST
000947: 07,3340           03360 16002                     2CADR    U07,3360
000948:
000949: 07,3342           00003                           RELINT
000950:
000951: 07,3343           05221                           TC       GRABWAIT
000952: 07,3344           33420        U07,3344           CAF      V50N00E
000953: 07,3345           05234                           TC       NVSBWAIT
000954: 07,3346           05176                           TC       FLASHON
000955: 07,3347           05303                           TC       FREEDSP
000956: 07,3350           05042                           TC       ENDIDLE
000957: 07,3351           13354                           TCF      +3
000958: 07,3352           13344                           TCF      U07,3344
000959: 07,3353           13344                           TCF      U07,3344
000960:
000961: 07,3354           05303                           TC       FREEDSP
000962: 07,3355           37657                           CAF      ZERO
000963: 07,3356           55111                           TS       LOTMODES
000964: 07,3357           12736                           TCF      ENDLOTVB
000965:
000966: 07,3360           37637        U07,3360           CAF      BIT12
000967: 07,3361           71111                           MASK     LOTMODES
000968: 07,3362           00006                           EXTEND
000969: 07,3363           14505                           BZF      TASKOVER
000970:
000971: 07,3364           11151                           CCS      UNK1151
000972: 07,3365           13377                           TCF      U07,3377
000973:
000974: 07,3366           37657                           CAF      ZERO
000975: 07,3367           55363                           TS       FAILREG
000976: 07,3370           05315                           TC       ALARM                                 #  15 MINUTE POWER OFF WARNING
000977: 07,3371           00615                           OCT      00615
000978:
000979: 07,3372           02713                           TC       OTRKFLON
000980:
000981: 07,3373           47636                           CS       BIT13
000982: 07,3374           70332                           MASK     EXTVBACT
000983: 07,3375           54332                           TS       EXTVBACT
000984: 07,3376           04505                           TC       TASKOVER
000985:
000986: 07,3377           55151        U07,3377           TS       UNK1151
000987: 07,3400           33415                           CAF      15SEC
000988: 07,3401           04451                           TC       WAITLIST
000989: 07,3402           03360 16002                     2CADR    U07,3360
000990:
000991: 07,3404           04505                           TC       TASKOVER
000992:
000993: 07,3405           37657        U07,3405           CAF      ZERO
000994: 07,3406           55363                           TS       FAILREG
000995: 07,3407           05315                           TC       ALARM                                 #  CANNOT GET BACK TO STOW
000996: 07,3410           00616                           OCT      00616
000997:
000998: 07,3411           02713        U07,3411           TC       OTRKFLON
000999: 07,3412           02127                           TC       U07,2127
001000: 07,3413           12736                           TCF      ENDLOTVB
001001:
001002: 07,3414           00073        U07,3414           DEC      59         B-14
001003: 07,3415           02734        15SEC              DEC      1500       B-14
001004: 07,3416           73301        -26DEG             OCT      73301
001005: 07,3417           62524        -75DEG             OCT      62524
001006: 07,3420           05000        V50N00E            OCT      05000
001007: 07,3421           00364        U07,3421           OCT      00364
001008:
001009: 07,3422           02127        LOTTEST2           TC       U07,2127
001010: 07,3423           55111                           TS       LOTMODES
001011: 07,3424           55131                           TS       UNK1131
001012:
001013: 07,3425           37636                           CAF      BIT13
001014: 07,3426           02704                           TC       OTFLAGUP
001015:
001016: 07,3427           02532                           TC       U07,2532
001017: 07,3430           12736                           TCF      ENDLOTVB
001018:
001019: 07,3431           33501                           CAF      BIT3&4
001020: 07,3432           00006                           EXTEND
001021: 07,3433           06033                           RXOR     33
001022: 07,3434           73501                           MASK     BIT3&4
001023: 07,3435           00006                           EXTEND
001024: 07,3436           13442                           BZF      +4
001025:
001026: 07,3437           05315                           TC       ALARM                                 #  LOCK ON, DATA GOOD ILLEGALY PRESENT
001027: 07,3440           00621                           OCT      00621                                 #  DURING SELF TEST
001028: 07,3441           13637                           TCF      OTSTFAIL
001029:
001030: 07,3442           04063                           TC       BANKCALL
001031: 07,3443           16502                           CADR     LOTZERO
001032: 07,3444           04063                           TC       BANKCALL
001033: 07,3445           26714                           CADR     OPTSTALL
001034: 07,3446           13447                           NOOP
001035:
001036: 07,3447           00006                           EXTEND
001037: 07,3450           30036                           DCA      OPTY
001038: 07,3451           55127                           TS       UNK1127
001039: 07,3452           53123                           DXCH     AZANG      +1
001040:
001041: 07,3453           37657                           CAF      ZERO
001042: 07,3454           55121                           TS       AZANG
001043:
001044: 07,3455           37635                           CAF      BIT14
001045: 07,3456           02704                           TC       OTFLAGUP
001046:
001047: 07,3457           02143                           TC       U07,2143
001048:
001049: 07,3460           43416                           CS       -26DEG
001050: 07,3461           61123                           AD       ELANG
001051: 07,3462           10000                           CCS      A
001052: 07,3463           13467                           TCF      +4
001053: 07,3464           77644        -1DEG              OCT      77644
001054: 07,3465           13467                           TCF      +2
001055: 07,3466           13475                           TCF      U07,3475
001056:
001057: 07,3467           63464                           AD       -1DEG
001058: 07,3470           00006                           EXTEND
001059: 07,3471           63475                           BZMF     U07,3475
001060:
001061: 07,3472           05315        BADSTOW            TC       ALARM                                 #  STOW COORDINATES NOT WITHIN LIMITS
001062: 07,3473           00622                           OCT      00622
001063: 07,3474           13637                           TCF      OTSTFAIL
001064:
001065: 07,3475           47635        U07,3475           CS       BIT14
001066: 07,3476           61122                           AD       AZANG      +1
001067: 07,3477           10000                           CCS      A
001068: 07,3500           13504                           TCF      +4
001069: 07,3501           00014        BIT3&4             OCT      00014
001070: 07,3502           13504                           TCF      +2
001071: 07,3503           13510                           TCF      U07,3510
001072:
001073: 07,3504           63464                           AD       -1DEG
001074: 07,3505           00006                           EXTEND
001075: 07,3506           63510                           BZMF     U07,3510
001076: 07,3507           13472                           TCF      BADSTOW
001077:
001078: 07,3510           37635        U07,3510           CAF      BIT14
001079: 07,3511           00006                           EXTEND
001080: 07,3512           05012                           WOR      12
001081:
001082: 07,3513           03621                           TC       U07,3621
001083:
001084: 07,3514           32747                           CAF      30.0SEC
001085: 07,3515           00004                           INHINT
001086: 07,3516           04451                           TC       WAITLIST
001087: 07,3517           03524 16002                     2CADR    U07,3524
001088:
001089: 07,3521           00003                           RELINT
001090:
001091: 07,3522           33527                           CAF      U07,3527
001092: 07,3523           04331                           TC       JOBSLEEP
001093:
001094: 07,3524           33527        U07,3524           CAF      U07,3527
001095: 07,3525           04335                           TC       JOBWAKE
001096: 07,3526           04505                           TC       TASKOVER
001097:
001098: 07,3527           17530        U07,3527           CADR     U07,3530
001099:
001100: 07,3530           37647        U07,3530           CAF      BIT4
001101: 07,3531           00006                           EXTEND
001102: 07,3532           06033                           RXOR     33
001103: 07,3533           73501                           MASK     BIT3&4
001104: 07,3534           00006                           EXTEND
001105: 07,3535           13541                           BZF      +4
001106:
001107: 07,3536           05315                           TC       ALARM                                 #  LOCK ON FAILURE DURING SELF TEST
001108: 07,3537           00623                           OCT      00623
001109: 07,3540           13636                           TCF      U07,3636
001110:
001111: 07,3541           03641                           TC       U07,3641
001112: 07,3542           04063                           TC       BANKCALL
001113: 07,3543           16462                           CADR     U07,2462
001114: 07,3544           04063                           TC       BANKCALL
001115: 07,3545           26714                           CADR     OPTSTALL
001116: 07,3546           13547                           NOOP
001117:
001118: 07,3547           02616                           TC       U07,2616
001119:
001120: 07,3550           37657                           CAF      ZERO
001121: 07,3551           54372                           TS       OPTCADR
001122:
001123: 07,3552           00006                           EXTEND
001124: 07,3553           00033                           READ     33
001125: 07,3554           73501                           MASK     BIT3&4
001126: 07,3555           00006                           EXTEND
001127: 07,3556           13562                           BZF      +4
001128:
001129: 07,3557           05315                           TC       ALARM                                 #  DATA GOOD FAILURE DURING SELF TEST
001130: 07,3560           00624                           OCT      00624
001131: 07,3561           13633                           TCF      U07,3633
001132:
001133: 07,3562           02143                           TC       U07,2143
001134:
001135: 07,3563           41115                           CS       UNK1115
001136: 07,3564           61123                           AD       ELANG
001137: 07,3565           10000                           CCS      A
001138: 07,3566           13572                           TCF      +4
001139: 07,3567           77776        U07,3567           DEC      -1         B-14
001140: 07,3570           13572                           TCF      +2
001141: 07,3571           13600                           TCF      U07,3600
001142:
001143: 07,3572           63567                           AD       U07,3567
001144: 07,3573           00006                           EXTEND
001145: 07,3574           63600                           BZMF     U07,3600
001146:
001147: 07,3575           05315        U07,3575           TC       ALARM                                 #  SELF TEST LIGHT COORDINATES NOT WITHIN
001148: 07,3576           00625                           OCT      00625                                 #  LIMITS
001149: 07,3577           13633                           TCF      U07,3633
001150:
001151: 07,3600           41114        U07,3600           CS       UNK1114
001152: 07,3601           61122                           AD       AZANG      +1
001153: 07,3602           10000                           CCS      A
001154: 07,3603           13607                           TCF      +4
001155: 07,3604           77767        U07,3604           DEC      -8         B-14
001156: 07,3605           13607                           TCF      +2
001157: 07,3606           13613                           TCF      U07,3613
001158:
001159: 07,3607           63567                           AD       U07,3567
001160: 07,3610           00006                           EXTEND
001161: 07,3611           63613                           BZMF     U07,3613
001162: 07,3612           13575                           TCF      U07,3575
001163:
001164: 07,3613           03641        U07,3613           TC       U07,3641
001165: 07,3614           03621                           TC       U07,3621
001166:
001167: 07,3615           47635        U07,3615           CS       BIT14
001168: 07,3616           00006                           EXTEND
001169: 07,3617           03012                           WAND     12
001170: 07,3620           13313                           TCF      U07,3313
001171:
001172: 07,3621           00006        U07,3621           EXTEND
001173: 07,3622           23151                           QXCH     UNK1151
001174:
001175: 07,3623           37651                           CAF      TWO
001176: 07,3624           55144                           TS       UNK1144
001177: 07,3625           04063                           TC       BANKCALL
001178: 07,3626           16553                           CADR     U07,2553
001179: 07,3627           04063                           TC       BANKCALL
001180: 07,3630           26714                           CADR     OPTSTALL
001181: 07,3631           13632                           NOOP
001182: 07,3632           01151                           TC       UNK1151
001183:
001184: 07,3633           03621        U07,3633           TC       U07,3621
001185: 07,3634           02713                           TC       OTRKFLON
001186: 07,3635           13615                           TCF      U07,3615
001187:
001188: 07,3636           03621        U07,3636           TC       U07,3621
001189: 07,3637           02713        OTSTFAIL           TC       OTRKFLON
001190: 07,3640           12736                           TCF      ENDLOTVB
001191:
001192: 07,3641           00006        U07,3641           EXTEND
001193: 07,3642           23205                           QXCH     UNK1205
001194:
001195: 07,3643           37652                           CAF      BIT1
001196: 07,3644           71116                           MASK     UNK1116
001197: 07,3645           00006                           EXTEND
001198: 07,3646           13660                           BZF      U07,3660
001199:
001200: 07,3647           05221                           TC       GRABWAIT
001201: 07,3650           33661        U07,3650           CAF      V06N70E
001202: 07,3651           05234                           TC       NVSBWAIT
001203: 07,3652           05176                           TC       FLASHON
001204: 07,3653           05042                           TC       ENDIDLE
001205: 07,3654           13650                           TCF      U07,3650
001206: 07,3655           13657                           TCF      +2
001207: 07,3656           13650                           TCF      U07,3650
001208:
001209: 07,3657           05303                           TC       FREEDSP
001210: 07,3660           01205        U07,3660           TC       UNK1205
001211:
001212: 07,3661           00670        V06N70E            OCT      00670
001213:
001214: 07,3662                        ENDLOTSS           EQUALS

End of include-file LOTS_INTERFACE.agc.  Parent file is MAIN.agc


