
Source Code


000002:                                                                                                  ## Copyright:   Public domain.
000003:                                                                                                  ## Filename:    LOTS_TRACKING.agc
000004:                                                                                                  ## Purpose:     A section of Aurora 88.
000005:                                                                                                  ##              It is part of the reconstructed source code for the final
000006:                                                                                                  ##              release of the Lunar Module system test software. No original
000007:                                                                                                  ##              listings of this program are available; instead, this file
000008:                                                                                                  ##              was created via disassembly of dumps of Aurora 88 core rope
000009:                                                                                                  ##              modules and comparison with other AGC programs.
000010:                                                                                                  ## Assembler:   yaYUL
000011:                                                                                                  ## Contact:     Ron Burkey <info@sandroid.org>.
000012:                                                                                                  ## Website:     www.ibiblio.org/apollo/index.html
000013:                                                                                                  ## Mod history: 2023-06-30 MAS  Created from Aurora 12.
000014:
000015: 06,2555                                           SETLOC   ENDLFCSS
000016: 06,2555     1212                                  EBANK=   LOTSFLAG
000017:


000035:                                                                                                  ##</ul>
000036:
000037: 06,2555           00006        U06,2555           EXTEND
000038: 06,2556           23207                           QXCH     UNK1207
000039: 06,2557           57113                           XCH      UNK1113
000040:
000041: 06,2560           32772                           CAF      U06,2772
000042: 06,2561           71111                           MASK     LOTMODES
000043: 06,2562           55111                           TS       LOTMODES
000044:
000045: 06,2563           31121                           CA       AZANG
000046: 06,2564           00006                           EXTEND
000047: 06,2565           12633                           BZF      U06,2633
000048:
000049: 06,2566           31127                           CA       UNK1127
000050: 06,2567           00006                           EXTEND
000051: 06,2570           62633                           BZMF     U06,2633
000052:
000053: 06,2571           31121                           CA       AZANG
000054: 06,2572           00006                           EXTEND
000055: 06,2573           62614                           BZMF     U06,2614
000056:
000057: 06,2574           31127                           CA       UNK1127
000058: 06,2575           62777                           AD       -89DEG
000059: 06,2576           00006                           EXTEND
000060: 06,2577           62633                           BZMF     U06,2633
000061:
000062: 06,2600           37642                           CAF      BIT9
000063: 06,2601           71111                           MASK     LOTMODES
000064: 06,2602           10000                           CCS      A
000065: 06,2603           12633                           TCF      U06,2633
000066:
000067: 06,2604           51113                           INDEX    UNK1113
000068: 06,2605           12606                           TCF      +1
000069:
000070: 06,2606           05315                           TC       ALARM                                 #  +AZIMUTH LIMIT STOP
000071: 06,2607           00601                           OCT      00601
000072:
000073: 06,2610           51113                           INDEX    UNK1113
000074: 06,2611           37647                           CAF      BIT4
000075: 06,2612           02757                           TC       U06,2757
000076: 06,2613           12633                           TCF      U06,2633
000077:
000078: 06,2614           41127        U06,2614           CS       UNK1127
000079: 06,2615           63000                           AD       91DEG
000080: 06,2616           00006                           EXTEND
000081: 06,2617           62633                           BZMF     U06,2633
000082:
000083: 06,2620           37642                           CAF      BIT9
000084: 06,2621           71111                           MASK     LOTMODES
000085: 06,2622           10000                           CCS      A
000086: 06,2623           12633                           TCF      U06,2633
000087:
000088: 06,2624           51113                           INDEX    UNK1113
000089: 06,2625           12626                           TCF      +1
000090:
000091: 06,2626           05315                           TC       ALARM                                 #  -AZIMUTH LIMIT STOP
000092: 06,2627           00602                           OCT      00602
000093:
000094: 06,2630           51113                           INDEX    UNK1113
000095: 06,2631           37650                           CAF      BIT3
000096: 06,2632           02757                           TC       U06,2757
000097:
000098: 06,2633           31123        U06,2633           CA       ELANG
000099: 06,2634           62766                           AD       1.0DEG
000100: 06,2635           00006                           EXTEND
000101: 06,2636           62737                           BZMF     U06,2737
000102:
000103: 06,2637           11113                           CCS      UNK1113
000104: 06,2640           12642                           TCF      +2
000105: 06,2641           12650                           TCF      U06,2650
000106:
000107: 06,2642           31123                           CA       ELANG
000108: 06,2643           62776                           AD       -84.0DEG
000109: 06,2644           00006                           EXTEND
000110: 06,2645           62650                           BZMF     U06,2650
000111:
000112: 06,2646           37645                           CAF      BIT6
000113: 06,2647           02757                           TC       U06,2757
000114:
000115: 06,2650           31123        U06,2650           CA       ELANG
000116: 06,2651           62775                           AD       -87DEG
000117: 06,2652           00006                           EXTEND
000118: 06,2653           62662                           BZMF     U06,2662
000119:
000120: 06,2654           37644                           CAF      BIT7
000121: 06,2655           02757                           TC       U06,2757
000122:
000123: 06,2656           51113                           INDEX    UNK1113
000124: 06,2657           12660                           TCF      +1
000125:
000126: 06,2660           05315                           TC       ALARM                                 #  +ELEVATION LIMIT STOP
000127: 06,2661           00603                           OCT      00603
000128:
000129: 06,2662           32773        U06,2662           CAF      U06,2773
000130: 06,2663           71111                           MASK     LOTMODES
000131: 06,2664           10000                           CCS      A
000132: 06,2665           12671                           TCF      U06,2671
000133:
000134: 06,2666           47652                           CS       ONE
000135: 06,2667           55112                           TS       UNK1112
000136: 06,2670           01207                           TC       UNK1207
000137:
000138: 06,2671           37643        U06,2671           CAF      BIT8
000139: 06,2672           02757                           TC       U06,2757
000140:
000141: 06,2673           11113                           CCS      UNK1113
000142: 06,2674           01207                           TC       UNK1207
000143:
000144: 06,2675           11112                           CCS      UNK1112
000145: 06,2676           12701                           TCF      +3
000146: 06,2677           12703                           TCF      +4
000147: 06,2700           32774                           CA       U06,2774
000148: 06,2701           55112                           TS       UNK1112
000149: 06,2702           12713                           TCF      U06,2713
000150:
000151: 06,2703           37641                           CAF      BIT10
000152: 06,2704           71111                           MASK     LOTMODES
000153: 06,2705           10000                           CCS      A
000154: 06,2706           12713                           TCF      U06,2713
000155:
000156: 06,2707           37635                           CAF      PRIO20
000157: 06,2710           04276                           TC       NOVAC
000158: 06,2711           03251 16002                     2CADR    LOTSTOW1
000159:
000160: 06,2713           00004        U06,2713           INHINT
000161: 06,2714           22322                           LXCH     DSPTAB     +11D
000162: 06,2715           31111                           CA       LOTMODES
000163: 06,2716           00006                           EXTEND
000164: 06,2717           06001                           RXOR     L
000165: 06,2720           77643                           MASK     BIT8
000166: 06,2721           10000                           CCS      A
000167: 06,2722           12724                           TCF      +2
000168: 06,2723           12734                           TCF      U06,2734
000169:
000170: 06,2724           47643                           CS       BIT8
000171: 06,2725           00006                           EXTEND
000172: 06,2726           03001                           WAND     L
000173:
000174: 06,2727           31111                           CA       LOTMODES
000175: 06,2730           77643                           MASK     BIT8
000176: 06,2731           67634                           AD       BIT15
000177: 06,2732           00006                           EXTEND
000178: 06,2733           05001                           WOR      L
000179:
000180: 06,2734           22322        U06,2734           LXCH     DSPTAB     +11D
000181: 06,2735           00003                           RELINT
000182: 06,2736           01207                           TC       UNK1207
000183:
000184: 06,2737           00006        U06,2737           EXTEND
000185: 06,2740           00012                           READ     12
000186: 06,2741           72770                           MASK     U06,2770
000187: 06,2742           10000                           CCS      A
000188: 06,2743           12662                           TCF      U06,2662
000189:
000190: 06,2744           32771                           CAF      U06,2771
000191: 06,2745           71111                           MASK     LOTMODES
000192: 06,2746           10000                           CCS      A
000193: 06,2747           12662                           TCF      U06,2662
000194:
000195: 06,2750           37646                           CAF      BIT5
000196: 06,2751           02757                           TC       U06,2757
000197:
000198: 06,2752           51113                           INDEX    UNK1113
000199: 06,2753           12754                           TCF      +1
000200:
000201: 06,2754           05315                           TC       ALARM                                 #  -ELEVATION LIMIT STOP
000202: 06,2755           00604                           OCT      00604
000203:
000204: 06,2756           12662                           TCF      U06,2662
000205:
000206: 06,2757           00004        U06,2757           INHINT
000207: 06,2760           23111                           LXCH     LOTMODES
000208: 06,2761           00006                           EXTEND
000209: 06,2762           05001                           WOR      L
000210: 06,2763           23111                           LXCH     LOTMODES
000211: 06,2764           00003                           RELINT
000212: 06,2765           00002                           TC       Q
000213:
000214: 06,2766           00133        1.0DEG             OCT      00133
000215: 06,2767           04476        26DEG              OCT      04476
000216: 06,2770           20002        U06,2770           OCT      20002
000217: 06,2771           11400        U06,2771           OCT      11400
000218: 06,2772           77400        U06,2772           OCT      77400
000219: 06,2773           00134        U06,2773           OCT      00134
000220: 06,2774           00024        U06,2774           OCT      00024
000221: 06,2775           60421        -87DEG             OCT      60421
000222: 06,2776           61042        -84.0DEG           OCT      61042
000223: 06,2777           60132        -89DEG             OCT      60132
000224: 06,3000           20133        91DEG              OCT      20133
000225:
000226: 06,3001           55132        U06,3001           TS       UNK1132
000227:
000228: 06,3002           37652                           CAF      BIT1
000229: 06,3003           71131                           MASK     UNK1131
000230: 06,3004           00006                           EXTEND
000231: 06,3005           13014                           BZF      U06,3014
000232:
000233: 06,3006           47652                           CS       BIT1
000234: 06,3007           71131                           MASK     UNK1131
000235: 06,3010           55131                           TS       UNK1131
000236:
000237: 06,3011           37652                           CAF      BIT1
000238: 06,3012           55135                           TS       UNK1135
000239: 06,3013           03025                           TC       U06,3025
000240:
000241: 06,3014           37635        U06,3014           CAF      BIT14
000242: 06,3015           00006                           EXTEND
000243: 06,3016           05012                           WOR      12
000244:
000245: 06,3017           37635        U06,3017           CAF      BIT14
000246: 06,3020           00006                           EXTEND
000247: 06,3021           02012                           RAND     12
000248: 06,3022           10000                           CCS      A
000249: 06,3023           03025                           TC       +2
000250: 06,3024           04353                           TC       ENDOFJOB
000251:
000252: 06,3025           37650        U06,3025           CAF      BIT3
000253: 06,3026           00006                           EXTEND
000254: 06,3027           02033                           RAND     33
000255: 06,3030           10000                           CCS      A
000256: 06,3031           03051                           TC       U06,3051
000257:
000258: 06,3032           37635                           CAF      BIT14
000259: 06,3033           00006                           EXTEND
000260: 06,3034           05012                           WOR      12
000261:
000262: 06,3035           37657                           CAF      ZERO
000263: 06,3036           55135                           TS       UNK1135
000264:
000265: 06,3037           37647                           CAF      BIT4
000266: 06,3040           00006                           EXTEND
000267: 06,3041           02033                           RAND     33
000268: 06,3042           10000                           CCS      A
000269: 06,3043           03053                           TC       U06,3053
000270: 06,3044           55204                           TS       UNK1204
000271:
000272: 06,3045           47651                           CS       BIT2
000273: 06,3046           00006                           EXTEND
000274: 06,3047           03012                           WAND     12
000275:
000276: 06,3050           03122                           TC       U06,3122
000277:
000278: 06,3051           37652        U06,3051           CAF      ONE
000279: 06,3052           03054                           TC       +2
000280: 06,3053           47657        U06,3053           CS       ZERO
000281: 06,3054           55136                           TS       UNK1136
000282:
000283: 06,3055           11132                           CCS      UNK1132
000284: 06,3056           03073                           TC       U06,3073
000285:
000286: 06,3057           37651                           CAF      BIT2
000287: 06,3060           71131                           MASK     UNK1131
000288: 06,3061           10000                           CCS      A
000289: 06,3062           03071                           TC       U06,3071
000290:
000291: 06,3063           11136                           CCS      UNK1136
000292: 06,3064           05315                           TC       ALARM                                 #  COULD NOT GET LOCK ON AFTER ISSUANCE
000293: 06,3065           00631                           OCT      00631                                 #  OF TRACK ENABLE
000294: 06,3066           03071                           TC       U06,3071
000295: 06,3067           05315                           TC       ALARM                                 #  COULD NOT GET DATA GOOD AFTER ISSUANCE
000296: 06,3070           00632                           OCT      00632                                 #  OF TRACK ENABLE
000297:
000298: 06,3071           04063        U06,3071           TC       BANKCALL
000299: 06,3072           16731                           CADR     U07,2731
000300:
000301: 06,3073           55132        U06,3073           TS       UNK1132
000302:
000303: 06,3074           00004                           INHINT
000304: 06,3075           37652                           CAF      ONE
000305: 06,3076           04451                           TC       WAITLIST
000306: 06,3077           03110 14002                     2CADR    U06,3110
000307:
000308: 06,3101           00003                           RELINT
000309:
000310: 06,3102           11135                           CCS      UNK1135
000311: 06,3103           03106                           TC       +3
000312:
000313: 06,3104           33120                           CAF      U06,3120
000314: 06,3105           04331                           TC       JOBSLEEP
000315:
000316: 06,3106           33121                           CAF      U06,3121
000317: 06,3107           04331                           TC       JOBSLEEP
000318:
000319: 06,3110           11135        U06,3110           CCS      UNK1135
000320: 06,3111           03115                           TC       +4
000321:
000322: 06,3112           33120                           CAF      U06,3120
000323: 06,3113           04335                           TC       JOBWAKE
000324: 06,3114           03117                           TC       +3
000325:
000326: 06,3115           33121                           CAF      U06,3121
000327: 06,3116           04335                           TC       JOBWAKE
000328:
000329: 06,3117           04505                           TC       TASKOVER
000330:
000331: 06,3120           15017        U06,3120           CADR     U06,3017
000332: 06,3121           15025        U06,3121           CADR     U06,3025
000333:
000334: 06,3122           37657        U06,3122           CAF      ZERO
000335: 06,3123           55134                           TS       UNK1134
000336:
000337: 06,3124           43303                           CS       U06,3303
000338: 06,3125           71131                           MASK     UNK1131
000339: 06,3126           67640                           AD       BIT11
000340: 06,3127           55131                           TS       UNK1131
000341:
000342: 06,3130           37635        U06,3130           CAF      BIT14
000343: 06,3131           00006                           EXTEND
000344: 06,3132           02012                           RAND     12
000345: 06,3133           10000                           CCS      A
000346: 06,3134           03136                           TC       +2
000347: 06,3135           04353                           TC       ENDOFJOB
000348:
000349: 06,3136           37647                           CAF      BIT4
000350: 06,3137           00006                           EXTEND
000351: 06,3140           02033                           RAND     33
000352: 06,3141           10000                           CCS      A
000353: 06,3142           03156                           TC       U06,3156
000354:
000355: 06,3143           11134                           CCS      UNK1134
000356: 06,3144           03146                           TC       +2
000357: 06,3145           03166                           TC       U06,3166
000358: 06,3146           55134                           TS       UNK1134
000359:
000360: 06,3147           00004                           INHINT
000361: 06,3150           43300                           CS       U06,3300
000362: 06,3151           70322                           MASK     DSPTAB     +11D
000363: 06,3152           67634                           AD       BIT15
000364: 06,3153           54322                           TS       DSPTAB     +11D
000365: 06,3154           00003                           RELINT
000366:
000367: 06,3155           03166                           TC       U06,3166
000368:
000369: 06,3156           11134        U06,3156           CCS      UNK1134
000370: 06,3157           03166                           TC       U06,3166
000371:
000372: 06,3160           37652                           CAF      ONE
000373: 06,3161           55134                           TS       UNK1134
000374:
000375: 06,3162           04063                           TC       BANKCALL
000376: 06,3163           16713                           CADR     OTRKFLON
000377:
000378: 06,3164           05315                           TC       ALARM                                 #  LOSS OF DATA GOOD DURING TRACKING
000379: 06,3165           00633                           OCT      00633
000380:
000381: 06,3166           37650        U06,3166           CAF      BIT3
000382: 06,3167           00006                           EXTEND
000383: 06,3170           02033                           RAND     33
000384: 06,3171           10000                           CCS      A
000385: 06,3172           03207                           TC       U06,3207
000386:
000387: 06,3173           00004                           INHINT
000388: 06,3174           37227                           CAF      FIVE
000389: 06,3175           04451                           TC       WAITLIST
000390: 06,3176           03202 14002                     2CADR    U06,3202
000391:
000392: 06,3200           00003                           RELINT
000393: 06,3201           04353                           TC       ENDOFJOB
000394:
000395: 06,3202           37635        U06,3202           CAF      BIT14
000396: 06,3203           04307                           TC       FINDVAC
000397: 06,3204           03130 14002                     2CADR    U06,3130
000398:
000399: 06,3206           04505                           TC       TASKOVER
000400:
000401: 06,3207           47640        U06,3207           CS       BIT11
000402: 06,3210           71131                           MASK     UNK1131
000403: 06,3211           55131                           TS       UNK1131
000404:
000405: 06,3212           11170                           CCS      UNK1170
000406: 06,3213           03230                           TC       U06,3230
000407:
000408: 06,3214           37657                           CAF      ZERO
000409: 06,3215           55363                           TS       FAILREG
000410: 06,3216           05315                           TC       ALARM                                 #  LOSS OF LOCK ON DURING TRACKING
000411: 06,3217           00634                           OCT      00634
000412:
000413: 06,3220           47651                           CS       BIT2
000414: 06,3221           71131                           MASK     UNK1131
000415: 06,3222           67651                           AD       BIT2
000416: 06,3223           55131                           TS       UNK1131
000417:
000418: 06,3224           37657                           CAF      ZERO
000419: 06,3225           55135                           TS       UNK1135
000420:
000421: 06,3226           33304                           CAF      U06,3304
000422: 06,3227           03001                           TC       U06,3001
000423:
000424: 06,3230           04063        U06,3230           TC       BANKCALL
000425: 06,3231           16143                           CADR     U07,2143
000426:
000427: 06,3232           37651                           CAF      BIT2
000428: 06,3233           02555                           TC       U06,2555
000429:
000430: 06,3234           33301                           CAF      U06,3301
000431: 06,3235           71111                           MASK     LOTMODES
000432: 06,3236           10000                           CCS      A
000433: 06,3237           03242                           TC       +3
000434: 06,3240           04063                           TC       BANKCALL
000435: 06,3241           16731                           CADR     U07,2731
000436:
000437: 06,3242           31122                           CA       AZANG      +1
000438: 06,3243           55125                           TS       DESLOTSY   +1
000439:
000440: 06,3244           11121                           CCS      AZANG
000441: 06,3245           13261                           TCF      U06,3261
000442:
000443: 06,3246           03256                           TC       U06,3256
000444: 06,3247           03254                           TC       U06,3254
000445:
000446: 06,3250           41125                           CS       DESLOTSY   +1
000447: 06,3251           55125                           TS       DESLOTSY   +1
000448:
000449: 06,3252           37657                           CAF      ZERO
000450: 06,3253           13261                           TCF      U06,3261
000451:
000452: 06,3254           47657        U06,3254           CS       ZERO
000453: 06,3255           13261                           TCF      U06,3261
000454:
000455: 06,3256           41125        U06,3256           CS       DESLOTSY   +1
000456: 06,3257           55125                           TS       DESLOTSY   +1
000457: 06,3260           37652                           CAF      ONE
000458: 06,3261           55124        U06,3261           TS       DESLOTSY
000459:
000460: 06,3262           33302                           CAF      83DEG
000461: 06,3263           55126                           TS       DESLOTSX
000462:
000463: 06,3264           00004                           INHINT
000464: 06,3265           31202                           CA       UNK1202
000465: 06,3266           04451                           TC       WAITLIST
000466: 06,3267           03305 14002                     2CADR    U06,3305
000467:
000468: 06,3271           00003                           RELINT
000469:
000470: 06,3272           47652                           CS       BIT1
000471: 06,3273           71131                           MASK     UNK1131
000472: 06,3274           67652                           AD       BIT1
000473: 06,3275           55131                           TS       UNK1131
000474:
000475: 06,3276           04063                           TC       BANKCALL
000476: 06,3277           16335                           CADR     U07,2335
000477:
000478: 06,3300           40200        U06,3300           OCT      40200
000479: 06,3301           00140        U06,3301           OCT      00140
000480: 06,3302           16603        83DEG              OCT      16603
000481: 06,3303           02003        U06,3303           OCT      02003
000482: 06,3304           05670        U06,3304           DEC      3000       B-14
000483:
000484: 06,3305           37635        U06,3305           CAF      BIT14
000485: 06,3306           00006                           EXTEND
000486: 06,3307           05012                           WOR      12
000487: 06,3310           04505                           TC       TASKOVER
000488:
000489: 06,3311                        ENDLOTTS           EQUALS

End of include-file LOTS_TRACKING.agc.  Parent file is MAIN.agc


