
Source Code


000002:                                                                                                  ## Copyright:   Public domain.
000003:                                                                                                  ## Filename:    PRELAUNCH_ALIGNMENT_PROGRAM.agc
000004:                                                                                                  ## Purpose:     A section of Aurora 88.
000005:                                                                                                  ##              It is part of the reconstructed source code for the final
000006:                                                                                                  ##              release of the Lunar Module system test software. No original
000007:                                                                                                  ##              listings of this program are available; instead, this file
000008:                                                                                                  ##              was created via disassembly of dumps of Aurora 88 core rope
000009:                                                                                                  ##              modules and comparison with other AGC programs.
000010:                                                                                                  ## Assembler:   yaYUL
000011:                                                                                                  ## Contact:     Ron Burkey <info@sandroid.org>.
000012:                                                                                                  ## Website:     www.ibiblio.org/apollo/index.html
000013:                                                                                                  ## Mod history: 2023-07-12 MAS  Created via disassembly.
000014:
000015: 16,2520                                           SETLOC   ENDPINS3
000016: 16,2520  E5,1400                                  EBANK=   XSM
000017:
000018: 16,2520           10000        2STODP1S           CCS      A
000019: 16,2521           67652                           AD       ONE
000020: 16,2522           12533                           TCF      2TO1OUT
000021: 16,2523           67652                           AD       ONE
000022: 16,2524           67652                           AD       ONE
000023: 16,2525           54000                           OVSK
000024: 16,2526           12532                           TCF      +4
000025: 16,2527           22007                           ZL
000026: 16,2530           47635                           CS       BIT14
000027: 16,2531           00002                           TC       Q
000028: 16,2532           40000                           COM
000029: 16,2533           00006        2TO1OUT            EXTEND
000030: 16,2534           77635                           MP       BIT14
000031: 16,2535           00002                           TC       Q
000032:
000033: 16,2536           20001        DP1STO2S           DDOUBL
000034: 16,2537           10000                           CCS      A
000035: 16,2540           67652                           AD       ONE
000036: 16,2541           12543                           TCF      +2
000037: 16,2542           40000                           COM
000038: 16,2543           54001                           TS       L
000039: 16,2544           00002                           TC       Q
000040: 16,2545           50000                           INDEX    A
000041: 16,2546           37633                           CAF      LIMITS
000042: 16,2547           26001                           ADS      L
000043: 16,2550           00002                           TC       Q
000044:
000045: 16,2551           00006        LODLATAZ           EXTEND
000046: 16,2552           23663                           QXCH     QSAVED
000047: 16,2553           32562                           CAF      V06N61E
000048: 16,2554           05234                           TC       NVSBWAIT
000049: 16,2555           05176                           TC       FLASHON
000050: 16,2556           05042                           TC       ENDIDLE
000051: 16,2557           02553                           TC       LODLATAZ   +2
000052: 16,2560           01663                           TC       QSAVED
000053: 16,2561           02553                           TC       LODLATAZ   +2
000054:
000055: 16,2562           00661        V06N61E            OCT      00661
000056:
000057: 16,2563           05221                           TC       GRABWAIT
000058: 16,2564           04572        STARTPL            TC       NEWMODEX
000059: 16,2565           00001                           OCT      01
000060: 16,2566           00006                           EXTEND
000061: 16,2567           31507                           DCA      AZIMUTH
000062: 16,2570           02536                           TC       DP1STO2S
000063: 16,2571           54333                           TS       DSPTEM1
000064:
000065: 16,2572           37657                           CAF      ZERO
000066: 16,2573           54334                           TS       DSPTEM1    +1
000067: 16,2574           02551                           TC       LODLATAZ
000068:
000069: 16,2575           30333                           CA       DSPTEM1
000070: 16,2576           02520                           TC       2STODP1S
000071: 16,2577           53507                           DXCH     AZIMUTH
000072: 16,2600           00006                           EXTEND
000073: 16,2601           31507                           DCA      AZIMUTH
000074: 16,2602           53760                           DXCH     AZIMUTH1
000075: 16,2603           53672                           DXCH     LATITUD1
000076: 16,2604           02536                           TC       DP1STO2S
000077: 16,2605           54333                           TS       DSPTEM1
000078: 16,2606           53511                           DXCH     LATITUDE
000079: 16,2607           20001                           DDOUBL
000080: 16,2610           20001                           DDOUBL
000081: 16,2611           54334                           TS       DSPTEM1    +1
000082: 16,2612           02551                           TC       LODLATAZ
000083:
000084: 16,2613           30333                           CA       DSPTEM1
000085: 16,2614           02520                           TC       2STODP1S
000086: 16,2615           53672                           DXCH     LATITUD1
000087: 16,2616           30334                           CA       DSPTEM1    +1
000088: 16,2617           00006                           EXTEND
000089: 16,2620           77636                           MP       BIT13
000090: 16,2621           53511                           DXCH     LATITUDE
000091: 16,2622           05303                           TC       FREEDSP
000092:
000093: 16,2623           00006                           EXTEND
000094: 16,2624           31672                           DCA      LATITUD1
000095: 16,2625           02536                           TC       DP1STO2S
000096: 16,2626           54140                           TS       MPAC
000097: 16,2627           00006                           EXTEND
000098: 16,2630           31760                           DCA      AZIMUTH1
000099: 16,2631           02536                           TC       DP1STO2S
000100: 16,2632           00006                           EXTEND
000101: 16,2633           20140                           MSU      MPAC
000102: 16,2634           02537                           TC       DP1STO2S   +1
000103: 16,2635           54400                           TS       THETAD
000104: 16,2636           37635                           CAF      BIT14
000105: 16,2637           54401                           TS       THETAD     +1
000106: 16,2640           37657                           CAF      ZERO
000107: 16,2641           54402                           TS       THETAD     +2
000108:
000109: 16,2642           04063                           TC       BANKCALL
000110: 16,2643           26000                           CADR     IMUZERO
000111: 16,2644           04063                           TC       BANKCALL
000112: 16,2645           26716                           CADR     IMUSTALL
000113: 16,2646           03335                           TC       PRELEXIT
000114:
000115: 16,2647           04517                           TC       PHASCHNG
000116: 16,2650           00100                           OCT      00100
000117:
000118: 16,2651           04063        REDO0.1            TC       BANKCALL
000119: 16,2652           26055                           CADR     IMUCOARS
000120: 16,2653           04063                           TC       BANKCALL
000121: 16,2654           26716                           CADR     IMUSTALL
000122: 16,2655           03335                           TC       PRELEXIT
000123:
000124: 16,2656           04517                           TC       PHASCHNG
000125: 16,2657           00200                           OCT      00200
000126:
000127: 16,2660           04063        REDO0.2            TC       BANKCALL
000128: 16,2661           26227                           CADR     IMUFINE
000129:
000130: 16,2662           32742                           CAF      DEC49
000131: 16,2663           54140        ZEROS1             TS       MPAC
000132: 16,2664           37657                           CAF      ZERO
000133: 16,2665           50140                           INDEX    MPAC
000134: 16,2666           55571                           TS       XSM1
000135: 16,2667           10140                           CCS      MPAC
000136: 16,2670           02663                           TC       ZEROS1
000137:
000138: 16,2671           00006                           EXTEND
000139: 16,2672           30025                           DCA      TIME2
000140: 16,2673           53644                           DXCH     PREVTIME
000141: 16,2674           04063                           TC       BANKCALL
000142: 16,2675           26716                           CADR     IMUSTALL
000143: 16,2676           03335                           TC       PRELEXIT
000144:
000145: 16,2677           04572                           TC       NEWMODEX
000146: 16,2700           00005                           OCT      05
000147:
000148: 16,2701           32743                           CAF      SIXHNDRD                              #  INITIALIZE FOR 5 MIN VERTICAL
000149: 16,2702           55661                           TS       GYROCSW
000150:
000151: 16,2703           04063                           TC       BANKCALL
000152: 16,2704           26266                           CADR     PIPUSE
000153:
000154: 16,2705           37655                           CAF      NINE
000155: 16,2706           55662                           TS       PRELTEMP
000156: 16,2707           06000                           TC       INTPRET
000157: 16,2710           73545                           DLOAD    SIN
000158: 16,2711           01511                                    LATITUDE
000159: 16,2712           41276                           DCOMP    DMP
000160: 16,2713           35251                                    GOMEGA
000161: 16,2714           07652                           STODL    ERVECT1    +4
000162: 16,2715           01511                                    LATITUDE
000163: 16,2716           41346                           COS      DMP
000164: 16,2717           35251                                    GOMEGA
000165: 16,2720           07646                           STODL    ERVECT1
000166: 16,2721           01760                                    AZIMUTH1
000167: 16,2722           71406                           PUSH     COS
000168: 16,2723           01572                           STORE    XSM1
000169: 16,2724           07602                           STODL    XSM1       +8D
000170: 16,2725           77756                           SIN
000171: 16,2726           01574                           STORE    XSM1       +2
000172: 16,2727           77676                           DCOMP
000173: 16,2730           07600                           STODL    XSM1       +6
000174: 16,2731           35241                                    GEOCONS5
000175: 16,2732           01612                           STORE    XSM1       +16D
000176: 16,2733           77776                           EXIT
000177:
000178: 16,2734           00004                           INHINT
000179: 16,2735           33257                           CAF      PRELDT
000180: 16,2736           04451                           TC       WAITLIST
000181: 16,2737           02744 34005                     2CADR    PRELALTS
000182:
000183: 16,2741           04353                           TC       ENDOFJOB
000184:
000185: 16,2742           00061        DEC49              DEC      49         B-14
000186: 16,2743           01130        SIXHNDRD           DEC      600        B-14
000187:
000188:                                                                                                  #        PRELAUNCH WAITLIST TASK - EXECUTED EVERY .5 SEC. IN LOOP.
000189:
000190: 16,2744           37657        PRELALTS           CAF      ZERO
000191: 16,2745           56037                           XCH      PIPAX
000192: 16,2746           54403                           TS       DELVX
000193: 16,2747           37657                           CAF      ZERO
000194: 16,2750           56040                           XCH      PIPAY
000195: 16,2751           54405                           TS       DELVX      +2
000196: 16,2752           37657                           CAF      ZERO
000197: 16,2753           56041                           XCH      PIPAZ
000198: 16,2754           54407                           TS       DELVX      +4
000199: 16,2755           37657                           CAF      ZERO
000200: 16,2756           54404                           TS       DELVX      +1
000201: 16,2757           54406                           TS       DELVX      +3
000202: 16,2760           54410                           TS       DELVX      +5
000203:
000204: 16,2761           04517                           TC       PHASCHNG
000205: 16,2762           00300                           OCT      00300
000206:
000207: 16,2763           00006                           EXTEND
000208: 16,2764           30025                           DCA      TIME2
000209: 16,2765           53674                           DXCH     PIPTIME
000210:
000211: 16,2766           33257        REPRELAL           CAF      PRELDT                                #  SELF-SUSTAINING WAITLIST CALL
000212: 16,2767           04451                           TC       WAITLIST
000213: 16,2770           02744 34005                     2CADR    PRELALTS
000214:
000215: 16,2772           37635                           CAF      PRIO20
000216: 16,2773           04307                           TC       FINDVAC
000217: 16,2774           03001 34005                     2CADR    PRAWAKE
000218:
000219: 16,2776           04505                           TC       TASKOVER                              #  RESUME
000220:
000221: 16,2777           03357        REDO0.4            TC       PRLRSTOR
000222: 16,3000           03004                           TC       RE0.4
000223:
000224: 16,3001           03346        PRAWAKE            TC       PRLSAVE
000225: 16,3002           04517                           TC       PHASCHNG
000226: 16,3003           00400                           OCT      00400
000227:
000228: 16,3004           06000        RE0.4              TC       INTPRET
000229: 16,3005           61375                           VLOAD    VXM
000230: 16,3006           00404                                    DELVX
000231: 16,3007           01572                                    XSM1
000232: 16,3010           52372                           VSL1     VSU
000233: 16,3011           01630                                    FILDELV
000234: 16,3012           53361                           VXSC     VAD
000235: 16,3013           35253                                    GEOCONS1
000236: 16,3014           01630                                    FILDELV
000237: 16,3015           01630                           STORE    FILDELV
000238: 16,3016           77655                           VAD
000239: 16,3017           01636                                    THETAN
000240: 16,3020           01636                           STORE    THETAN
000241: 16,3021           77776                           EXIT
000242:
000243: 16,3022           04605                           TC       CHECKMM
000244: 16,3023           00005                           OCT      5
000245: 16,3024           03047                           TC       TJL
000246:
000247: 16,3025           11661        NOGYROCM           CCS      GYROCSW                               #  COUNT DOWN FOR 5 MIN OF VERTICAL ERECT.
000248: 16,3026           03031                           TC       MORE                                  #   IF MORE TO COME.
000249: 16,3027           04572                           TC       NEWMODEX                              #  IF NOT, GO INTO GYROCOMP. (MM 02)
000250: 16,3030           00002                           OCT      2
000251:
000252: 16,3031           55661        MORE               TS       GYROCSW
000253:
000254: 16,3032           06000                           TC       INTPRET
000255: 16,3033           74375                           VLOAD    VXSC
000256: 16,3034           01636                                    THETAN
000257: 16,3035           35247                                    GEOCONS2
000258: 16,3036           74255                           VAD      VXSC
000259: 16,3037           01630                                    FILDELV
000260: 16,3040           35245                                    POINT2
000261: 16,3041           53235                           VXV      VAD
000262: 16,3042           35235                                    PRUNITZ
000263: 16,3043           01614                                    ERCOMP1
000264: 16,3044           01614                           STORE    ERCOMP1
000265: 16,3045           77650                           GOTO
000266: 16,3046           35063                                    ENDOFPR
000267:
000268: 16,3047           06000        TJL                TC       INTPRET
000269: 16,3050           64375                           VLOAD    MXV
000270: 16,3051           01630                                    FILDELV
000271: 16,3052           35215                                    GEOCONS3
000272: 16,3053           77655                           VAD
000273: 16,3054           01614                                    ERCOMP1
000274: 16,3055           07614                           STODL    ERCOMP1
000275: 16,3056           01640                                    THETAN     +2
000276: 16,3057           43205                           DMP      DAD
000277: 16,3060           35243                                    GEOCONS4
000278: 16,3061           01614                                    ERCOMP1
000279: 16,3062           01614                           STORE    ERCOMP1
000280: 16,3063           77776        ENDOFPR            EXIT
000281:
000282: 16,3064           11662                           CCS      PRELTEMP
000283: 16,3065           03207                           TC       JUMPY
000284:
000285: 16,3066           10357                           CCS      LGYRO                                 #  IF BUSY GO AROUND LOOP AGAIN
000286: 16,3067           13210                           TCF      JUMPY      +1                         #  WAIT TIL NEXT TIME.  PRELTEM = 0 STILL.
000287:
000288: 16,3070           04605                           TC       CHECKMM
000289: 16,3071           00003                           OCT      03
000290: 16,3072           03102                           TC       EARTHRAT   -1
000291:
000292: 16,3073           37657                           CAF      ZERO
000293: 16,3074           55613                           TS       ERCOMP1
000294: 16,3075           55614                           TS       ERCOMP1    +1
000295: 16,3076           55615                           TS       ERCOMP1    +2
000296: 16,3077           55616                           TS       ERCOMP1    +3
000297: 16,3100           55617                           TS       ERCOMP1    +4
000298: 16,3101           55620                           TS       ERCOMP1    +5
000299:
000300: 16,3102           06000                           TC       INTPRET
000301: 16,3103           45345        EARTHRAT           DLOAD    DSU
000302: 16,3104           01674                                    PIPTIME
000303: 16,3105           01644                                    PREVTIME
000304: 16,3106           43244                           BPL      DAD
000305: 16,3107           35111                                    ERTHR
000306: 16,3110           33310                                    NEARONE
000307: 16,3111           74261        ERTHR              SL       VXSC
000308: 16,3112           00207                                    6D
000309: 16,3113           01646                                    ERVECT1
000310: 16,3114           64255                           VAD      MXV
000311: 16,3115           01614                                    ERCOMP1
000312: 16,3116           01572                                    XSM1
000313: 16,3117           53372                           VSL1     VAD
000314: 16,3120           01622                                    GYROANG
000315: 16,3121           23622                           STOVL    GYROANG
000316: 16,3122           35233                                    SCHZEROS
000317: 16,3123           07614                           STODL    ERCOMP1
000318: 16,3124           01507                                    AZIMUTH
000319: 16,3125           53025                           DSU      BZE
000320: 16,3126           01760                                    AZIMUTH1
000321: 16,3127           35170                                    ERTHROUT
000322: 16,3130           45206                           PUSH     DSU
000323: 16,3131           35255                                    2DEGS
000324: 16,3132           71244                           BPL      DLOAD
000325: 16,3133           35142                                    TOOPOS
000326: 16,3134           00001                                    0D
000327: 16,3135           50015                           DAD      BMN
000328: 16,3136           35255                                    2DEGS
000329: 16,3137           35147                                    TOONEG
000330: 16,3140           77650                           GOTO
000331: 16,3141           35152                                    JUSTRITE
000332:
000333: 16,3142           77745        TOOPOS             DLOAD
000334: 16,3143           35255                                    2DEGS
000335: 16,3144           00001                           STORE    0D
000336: 16,3145           77650                           GOTO
000337: 16,3146           35152                                    JUSTRITE
000338:
000339: 16,3147           57545        TOONEG             DLOAD    DCOMP
000340: 16,3150           35255                                    2DEGS
000341: 16,3151           00001                           STORE    0D
000342:
000343: 16,3152           43345        JUSTRITE           DLOAD    DAD
000344: 16,3153           00001                                    0D
000345: 16,3154           01626                                    AZERR
000346: 16,3155           07626                           STODL    AZERR
000347: 16,3156           77615                           DAD
000348: 16,3157           01760                                    AZIMUTH1
000349: 16,3160           01760                           STORE    AZIMUTH1
000350: 16,3161           71406                           PUSH     COS
000351: 16,3162           01572                           STORE    XSM1
000352: 16,3163           07602                           STODL    XSM1       +8D
000353: 16,3164           77756                           SIN
000354: 16,3165           01574                           STORE    XSM1       +2
000355: 16,3166           77676                           DCOMP
000356: 16,3167           01600                           STORE    XSM1       +6
000357: 16,3170           77776        ERTHROUT           EXIT
000358:
000359: 16,3171           00006                           EXTEND
000360: 16,3172           31674                           DCA      PIPTIME
000361: 16,3173           53644                           DXCH     PREVTIME
000362:
000363: 16,3174           04517                           TC       PHASCHNG
000364: 16,3175           00500                           OCT      00500
000365:
000366: 16,3176           37655                           CAF      NINE
000367: 16,3177           55662                           TS       PRELTEMP
000368:
000369: 16,3200           33213        SPITGYRO           CAF      LGYROANG
000370: 16,3201           04063                           TC       BANKCALL
000371: 16,3202           26317                           CADR     IMUPULSE
000372: 16,3203           04063                           TC       BANKCALL
000373: 16,3204           26716                           CADR     IMUSTALL
000374: 16,3205           03335                           TC       PRELEXIT
000375: 16,3206           14353                           TCF      ENDOFJOB
000376:
000377: 16,3207           55662        JUMPY              TS       PRELTEMP
000378: 16,3210           04517                           TC       PHASCHNG
000379: 16,3211           00500                           OCT      00500
000380: 16,3212           04353                           TC       ENDOFJOB
000381:
000382: 16,3213           02621        LGYROANG           ECADR    GYROANG
000383:
000384: 16,3214           00000 00000  GEOCONS3           2DEC     0          B-28
000385: 16,3216           00631 23146                     2DEC     .025
000386: 16,3220           00000 00000                     2DEC     0          B-28
000387: 16,3222           77146 54631                     2DEC     -.025
000388: 16,3224           00000 00000                     2DEC     0          B-28
000389: 16,3226           00000 00000                     2DEC     0          B-28
000390: 16,3230           40000 40000                     2DEC     -.999999999
000391: 16,3232           00000 00000  SCHZEROS           2DEC     0          B-28
000392: 16,3234           00000 00000  PRUNITZ            2DEC     0          B-28
000393: 16,3236           00000 00000                     2DEC     0          B-28
000394: 16,3240           20000 00000  GEOCONS5           2DEC     .5
000395:
000396: 16,3242           00000 17565  GEOCONS4           2DEC     .00003
000397: 16,3244           06314 31463  POINT2             2DEC     .2
000398: 16,3246           00121 35341  GEOCONS2           2DEC     .005
000399: 16,3250           37116 32652  GOMEGA             2DEC     0.97356192                            #  EARTH RATE IN IRIG PULSES/CS
000400: 16,3252           03146 14632  GEOCONS1           2DEC     .1
000401: 16,3254           00133 00554  2DEGS              2DEC     .005555555
000402: 16,3256           00053        DEC43              DEC      43         B-14
000403: 16,3257           00062        PRELDT             DEC      .5         E2                         #  HALF SECOND PRELAUNCH CYCLE
000404:
000405: 16,3260           51073        PRELGO             INDEX    PHASE0
000406: 16,3261           03261                           TC       +0
000407: 16,3262           03267                           TC       REPL1
000408: 16,3263           03274                           TC       REPL2
000409: 16,3264           03301                           TC       REPL3
000410: 16,3265           03306                           TC       REPL4
000411: 16,3266           03312                           TC       REPL5
000412:
000413: 16,3267           34432        REPL1              CAF      PRIO21
000414: 16,3270           04307                           TC       FINDVAC
000415: 16,3271           02651 34005                     2CADR    REDO0.1
000416:
000417: 16,3273           04076                           TC       SWRETURN
000418:
000419: 16,3274           34432        REPL2              CAF      PRIO21
000420: 16,3275           04307                           TC       FINDVAC
000421: 16,3276           02660 34005                     2CADR    REDO0.2
000422:
000423: 16,3300           04076                           TC       SWRETURN
000424:
000425: 16,3301           37652        REPL3              CAF      ONE
000426: 16,3302           04451                           TC       WAITLIST
000427: 16,3303           02766 34005                     2CADR    REPRELAL
000428:
000429: 16,3305           04076                           TC       SWRETURN
000430:
000431: 16,3306           34432        REPL4              CAF      PRIO21
000432: 16,3307           04307                           TC       FINDVAC
000433: 16,3310           02777 34005                     2CADR    REDO0.4
000434:
000435: 16,3312           33213        REPL5              CAF      LGYROANG
000436: 16,3313           54003                           TS       EBANK
000437: 16,3314           40025                           CS       TIME1
000438: 16,3315           61674                           AD       PIPTIME    +1
000439: 16,3316           00006                           EXTEND
000440: 16,3317           63321                           BZMF     +2
000441: 16,3320           67634                           AD       NEGMAX
000442: 16,3321           63257                           AD       PRELDT
000443: 16,3322           00006                           EXTEND
000444: 16,3323           63330                           BZMF     RIGHTGTS
000445: 16,3324           04451        WTGTSMPL           TC       WAITLIST
000446: 16,3325           02744 34005                     2CADR    PRELALTS
000447:
000448: 16,3327           04076                           TC       SWRETURN
000449:
000450: 16,3330           37652        RIGHTGTS           CAF      ONE
000451: 16,3331           04451                           TC       WAITLIST
000452: 16,3332           02744 34005                     2CADR    PRELALTS
000453:
000454: 16,3334           04076                           TC       SWRETURN
000455:
000456:                                                                                                  #        PRELAUNCH TERMINATION.
000457:
000458: 16,3335           04063        PRELEXIT           TC       BANKCALL
000459: 16,3336           26303                           CADR     PIPFREE
000460: 16,3337           00004                           INHINT
000461: 16,3340           47643                           CS       IMUSEFLG
000462: 16,3341           70061                           MASK     STATE
000463: 16,3342           54061                           TS       STATE
000464: 16,3343           04572                           TC       NEWMODEX
000465: 16,3344           00000                           OCT      0
000466: 16,3345           04353                           TC       ENDOFJOB
000467:
000468: 16,3346           33256        PRLSAVE            CAF      DEC43                                 #  SAVE CURRENT VARIABLES FOR RESTARTS
000469: 16,3347           54140                           TS       MPAC
000470: 16,3350           50140                           INDEX    MPAC
000471: 16,3351           31571                           CAF      XSM1
000472: 16,3352           50140                           INDEX    MPAC
000473: 16,3353           55703                           TS       PTEMP
000474: 16,3354           10140                           CCS      MPAC
000475: 16,3355           13347                           TCF      PRLSAVE    +1
000476: 16,3356           00002                           TC       Q
000477:
000478: 16,3357           33256        PRLRSTOR           CAF      DEC43                                 #  RESTORE OLD VALUES OF VARIABLES
000479: 16,3360           54140                           TS       MPAC
000480: 16,3361           50140                           INDEX    MPAC
000481: 16,3362           31703                           CA       PTEMP
000482: 16,3363           50140                           INDEX    MPAC
000483: 16,3364           55571                           TS       XSM1
000484: 16,3365           10140                           CCS      MPAC
000485: 16,3366           13360                           TCF      PRLRSTOR   +1
000486: 16,3367           00002                           TC       Q
000487:
000488:


000492:
000493: 16,3370           55615        TESTCAL1           TS       CALCDIR
000494: 16,3371           00006                           EXTEND                                         #  THIS ROUTINE LOOKS AT THE SIZE OF THE
000495: 16,3372           63400                           BZMF     NEGSIZ                                #  ENTRY MADE BY THE OPERATOR, IF HE DID NO
000496: 16,3373           77663        SIZLOOK            MASK     NEG3                                  #  T ENTER TEST NO THAT IS W/I PERMISSIBLE
000497: 16,3374           00006                           EXTEND                                         #  RANGE- HE WILL BE ASKED TO LOAD AGAIN.
000498: 16,3375           13402                           BZF      GUDENTRY                              #    THIS IS CONSIDERED NECESSARY BECAUSE
000499: 16,3376           04102                           TC       POSTJUMP                              #  OF FOLLOWING INDEXED TC WHICH COULD
000500: 16,3377           36467                           CADR     TESTCALL
000501: 16,3400           40000        NEGSIZ             COM                                            #  SEND THE COMPUTER OFF INTO THE BOONDOCKS
000502: 16,3401           03373                           TC       SIZLOOK                               #  TO PLAY WITH ITSELF IF THE OPERATOR
000503: 16,3402           31615        GUDENTRY           CA       CALCDIR                               #  MAKES ABAD ENTRY******
000504: 16,3403           67650                           AD       FOUR
000505: 16,3404           04102                           TC       POSTJUMP
000506: 16,3405           36477                           CADR     GUDENT1
000507:
000508:
000509:
000510: 16,3406           37657        STOPTST1           CAF      ZERO
000511: 16,3407           54357                           TS       LGYRO                                 #  **** RELEASE GYROS FOR OTHERS USAGE*****
000512: 16,3410           04102                           TC       POSTJUMP
000513: 16,3411           36456                           CADR     ALARMS
000514: 16,3412           04102                           TC       POSTJUMP
000515: 16,3413           36261                           CADR     ENDTEST1
000516:
000517:
000518:
000519: 16,3414           61375        ALFLT2             VLOAD    VXM
000520: 16,3415           01773                                    FILDELVX
000521: 16,3416           01001                                    GEOMTRX
000522: 16,3417           57545                           DLOAD    DCOMP
000523: 16,3420           00144                                    MPAC       +3
000524: 16,3421           07662                           STODL    DPIPAY
000525: 16,3422           00146                                    MPAC       +5
000526: 16,3423           01666                           STORE    DPIPAZ
000527:
000528: 16,3424           76001                           SETPD    AXT,1                                 #  MEASUREMENT INCORPORATION ROUTINES.
000529: 16,3425           00001                                    0
000530: 16,3426           00010                                    8D
000531: 16,3427           77650                           GOTO
000532: 16,3430           42252                                    DELMLP
000533:
000534:
000535:
000536: 16,3431           55361        SHOWSUM2           TS       SMODE                                 #  PUT SELF-CHECK TO SLEEP
000537: 16,3432           33436                           CA       SELFADR1                              #  INITIALIZE SELFRET TO GO TO SELFCHK.
000538: 16,3433           55360                           TS       SELFRET
000539: 16,3434           04102                           TC       POSTJUMP
000540: 16,3435           41457                           CADR     SHOWSUM3
000541:
000542: 16,3436           02100        SELFADR1           GENADR   SELFCHK                               #  SELFCHK RETURN ADDRESS.
000543:
000544: 16,3437                        ENDPRELS           EQUALS

End of include-file PRELAUNCH_ALIGNMENT_PROGRAM.agc.  Parent file is MAIN.agc


