
Source Code


000002:                                                                                                  ## Copyright:   Public domain.
000003:                                                                                                  ## Filename:    RADAR_LEAD-IN_ROUTINES.agc
000004:                                                                                                  ## Purpose:     A section of Aurora 88.
000005:                                                                                                  ##              It is part of the reconstructed source code for the final
000006:                                                                                                  ##              release of the Lunar Module system test software. No original
000007:                                                                                                  ##              listings of this program are available; instead, this file
000008:                                                                                                  ##              was created via disassembly of dumps of Aurora 88 core rope
000009:                                                                                                  ##              modules and comparison with other AGC programs.
000010:                                                                                                  ## Assembler:   yaYUL
000011:                                                                                                  ## Contact:     Ron Burkey <info@sandroid.org>.
000012:                                                                                                  ## Website:     www.ibiblio.org/apollo/index.html
000013:                                                                                                  ## Mod history: 2023-06-30 MAS  Created from Aurora 12.
000014:                                                                                                  ##              2023-07-12 MAS  Updated for Aurora 88.
000015:
000016:
000017:    4666                                           SETLOC   ENDIMODF
000018:    4666  E3,1457                                  EBANK=   RRRET
000019:
000020:                                                                                                  #           THE FOLLOWING SUBROUTINE RETURNS TO CALLER + 2 IF THE ABSOLUTE VALUE OF C(A) IS GREATER THAN THE
000021:                                                                                                  #  NEGATIVE OF THE NUMBER AT CALLER +1. OTHERWISE IT RETURNS TO CALLER +3. MAY BE CALLED IN RUPT OR UNDER EXEC.
000022:
000023:    4666           00006        MAGSUB             EXTEND
000024:    4667           64671                           BZMF     +2
000025:    4670           14672                           TCF      +2
000026:    4671           40000                           COM
000027:
000028:    4672           50002                           INDEX    Q
000029:    4673           60000                           AD       0
000030:    4674           00006                           EXTEND
000031:    4675           64700                           BZMF     +3                                    #  ABS(A) G CONST
000032:    4676           50002                           INDEX    Q
000033:    4677           00001                           TC       1                                     #  ABS(A) LEQ CONST
000034:
000035:    4700           50002        MAGLESS            INDEX    Q
000036:    4701           00002                           TC       2
000037:
000038:                                                                                                  #           THE FOLLOWING SUBROUTINE CHECKS RR GIMBAL ANGLES TO SEE IF THEY ARE IN THE LIMITS OF THE CURRENT MODE.
000039:                                                                                                  #  CALLING SEQUENCE IS AS FOLLOWS:
000040:
000041:                                                                                                  #                                                   TC     RRLIMCHK        (WITH INTERRUPT INHIBITED).
000042:                                                                                                  #                                                   ADRES  T,S             (IN UNSWITCHED E OR CURRENT EBANK).
000043:
000044:                                                                                                  #           RETURN IS TO CALLER +2 IF NOT IN LIMITS AND TO CALLER +3 IF SO.
000045:
000046:    4702           50002        RRLIMCHK           INDEX    Q                                     #  READ GIMBAL ANGLES INTO ITEMP STORAGE.
000047:    4703           30000                           CAF      0
000048:    4704           24002                           INCR     Q
000049:    4705           00006                           EXTEND
000050:    4706           50000                           INDEX    A
000051:    4707           30001                           DCA      0
000052:    4710           52066                           DXCH     ITEMP1
000053:    4711           22002                           LXCH     Q                                     #  L(CALLER +2) TO L.
000054:
000055:    4712           37637                           CAF      BIT12                                 #  SEE WHICH MODE RR IS IN.
000056:    4713           70413                           MASK     RADMODES
000057:    4714           10000                           CCS      A
000058:    4715           14730                           TCF      MODE2CHK
000059:
000060:    4716           30065                           CA       ITEMP1                                #  MODE 1 IS DEFINED AS
000061:    4717           04666                           TC       MAGSUB                                #      1. ABS(T) L 70 DEGS.
000062:    4720           63434                           DEC      -.38885                               #      2. ABS(S + 5 DEGS) L 65 DEGS
000063:    4721           00001                           TC       L                                     #          (SHAFT LIMITS AT +59, -70 DEGS)
000064:
000065:    4722           34742                           CAF      5DEGS
000066:    4723           60066                           AD       ITEMP2                                #  S
000067:    4724           04666                           TC       MAGSUB
000068:    4725           64343                           DEC      -.36108                               #  65 DEGS
000069:    4726           00001                           TC       L
000070:    4727           04740                           TC       RRLIMOK                               #  IN LIMITS.
000071:
000072:    4730           34743        MODE2CHK           CAF      82.5DEGS                              #  MODE 2 IS DEFINED AS
000073:    4731           60066                           AD       ITEMP2                                #      1. ABS(T) G 110 DEGS
000074:    4732           04666                           TC       MAGSUB                                #      2. ABS(S + 82.5 DEGS) L 57.5 DEGS
000075:    4733           65615                           DEC      -.31946                               #          (SHAFT LIMITS AT -25, -139 DEGS)
000076:    4734           00001                           TC       L
000077:
000078:    4735           30065                           CA       ITEMP1
000079:    4736           04666                           TC       MAGSUB
000080:    4737           54343                           DEC      -.61111                               #  110 DEGS
000081:
000082:    4740           50001        RRLIMOK            INDEX    L
000083:    4741           00001                           TC       L                                     #  ( = TC 1)
000084:
000085:    4742           00707        5DEGS              DEC      .02777                                #  SCALED IN HALF-REVOLUTIONS.
000086:    4743           16525        82.5DEGS           DEC      .45831
000087:
000088:                                                                                                  #           THE FOLLOWING ROUTINE UPDATES THE TRACKER FAIL LAMP ON THE DSKY, IF EITHER:
000089:
000090:                                                                                                  #           1. N SAMPLES OF RR DATA COULD NOT BE OBTAINED FROM 2N TRIES
000091:                                                                                                  #           2. N SAMPLES OF LR DATA COULD NOT BE TAKEN IN 2N TRIES WITH EITHER THE ALT OR VEL INFORMATION.
000092:                                                                                                  #           3. RR CDU FAILED WITH RR IN AUTO MODE AND RR CDU NOT BEING ZEROED.
000093:
000094:    4744           37652        SETTRKF            CAF      BIT1                                  #  NO ACTION IF DURING LAMP TEST.
000095:    4745           70370                           MASK     IMODES33
000096:    4746           10000                           CCS      A
000097:    4747           00002                           TC       Q
000098:
000099:    4750           35000                           CAF      13,7,2                                #  SEE IF CDU FAILED.
000100:    4751           70413                           MASK     RADMODES
000101:    4752           00006                           EXTEND
000102:    4753           14763                           BZF      TRKFLON                               #  CONDITION 3 ABOVE.
000103:
000104:    4754           40413                           CS       RADMODES                              #  SEE IF LR FAILED.
000105:    4755           75001                           MASK     8,5
000106:    4756           00006                           EXTEND
000107:    4757           14763                           BZF      TRKFLON                               #  CONDITION 2 ABOVE.
000108:
000109:    4760           37647                           CAF      BIT4                                  #  SEE IF RR DATA FAILED.
000110:    4761           70413                           MASK     RADMODES
000111:    4762           10000                           CCS      A
000112:    4763           37643        TRKFLON            CAF      BIT8
000113:    4764           60322                           AD       DSPTAB     +11D                       #  HALF ADD DESIRED AND PRESENT STATES.
000114:    4765           77643                           MASK     BIT8
000115:    4766           00006                           EXTEND
000116:    4767           14615                           BZF      TCQ                                   #  NO CHANGE.
000117:
000118:    4770           54001                           TS       L                                     #  INVERT BIT 8 AND SET BIT 15.
000119:    4771           30322                           CA       DSPTAB     +11D                       #  CANT USE LXCH DSPTAB +11D (RESTART PROB)
000120:    4772           00006                           EXTEND
000121:    4773           06001                           RXOR     L
000122:    4774           77632                           MASK     POSMAX
000123:    4775           67634                           AD       BIT15
000124:    4776           54322                           TS       DSPTAB     +11D
000125:    4777           00002                           TC       Q
000126:
000127:    5000           10102        13,7,2             OCT      10102
000128:    5001           00220        8,5                OCT      00220
000129:
000130:    5002                        ENDRMODF           EQUALS
000131:
000132:                                                                                                  #           TURNON SEQUENCE TO ZERO THE CDUS AND DETERMINE THE RR MODE.
000133:
000134: 10,2000                                           BANK     10
000135:
000136: 10,2000           02013        RRTURNON           TC       RRZEROSB
000137: 10,2001           04467                           TC       FIXDELAY                              #  WAIT 1 SEC BEFORE REMOVING TURN ON FLAG
000138: 10,2002           00144                           DEC      100        B-14                       #  SO A MONITOR REPOSITION WONT ALARM.
000139: 10,2003           47652                           CS       BIT1
000140: 10,2004           70413                           MASK     RADMODES
000141: 10,2005           54413                           TS       RADMODES
000142: 10,2006           40061                           CS       STATE                                 #  SEE IF SOMEONE IS WAITING TO USE THE RR.
000143: 10,2007           77644                           MASK     RRUSEFLG
000144: 10,2010           10000                           CCS      A
000145: 10,2011           14505                           TCF      TASKOVER
000146:
000147: 10,2012           13236                           TCF      ENDRADAR                              #  CHECK RR CDU FAIL BEFORE EXIT.
000148:
000149:                                                                                                  #           CLOSED SUBROUTINE TO ZERO THE RR CDUS.
000150:
000151: 10,2013           00006        RRZEROSB           EXTEND
000152: 10,2014           23457                           QXCH     RRRET
000153: 10,2015           37652                           CAF      BIT1                                  #  BIT 13 OF RADMODES MUST BE SET BEFORE
000154: 10,2016           00006                           EXTEND                                         #  COMING HERE.
000155: 10,2017           05012                           WOR      12
000156: 10,2020           04467                           TC       FIXDELAY
000157: 10,2021           00002                           DEC      2          B-14
000158:
000159: 10,2022           37657                           CAF      ZERO
000160: 10,2023           54035                           TS       OPTY
000161: 10,2024           54036                           TS       OPTX
000162: 10,2025           47652                           CS       ONE                                   #  REMOVE ZEROING BIT.
000163: 10,2026           00006                           EXTEND
000164: 10,2027           03012                           WAND     12
000165: 10,2030           04467                           TC       FIXDELAY
000166: 10,2031           00620                           DEC      400        B-14
000167:
000168: 10,2032           47636                           CS       BIT13                                 #  REMOVE ZEROING IN PROCESS BIT.
000169: 10,2033           70413                           MASK     RADMODES
000170: 10,2034           54413                           TS       RADMODES
000171:
000172: 10,2035           30035                           CA       OPTY
000173: 10,2036           04666                           TC       MAGSUB
000174: 10,2037           57777                           DEC      -.5
000175: 10,2040           12043                           TCF      +3                                    #  IF MODE 2.
000176:
000177: 10,2041           37657                           CAF      ZERO
000178: 10,2042           12044                           TCF      +2
000179: 10,2043           37637                           CAF      BIT12
000180: 10,2044           56413                           XCH      RADMODES
000181: 10,2045           74273                           MASK     -BIT12
000182: 10,2046           26413                           ADS      RADMODES
000183:
000184: 10,2047           04744                           TC       SETTRKF                               #  TRACKER LAMP MIGHT GO ON NOW.
000185:
000186: 10,2050           01457                           TC       RRRET                                 #  DONE.
000187:
000188: 10,2051     4273               -BIT12             EQUALS   -1/8                                  #  IN SPROOT
000189:
000190:                                                                                                  #           SEQUENCE OF TASKS TO DRIVE THE RR TO A SAFE POSITION.
000191:
000192: 10,2051           02106        DORREPOS           TC       SETRRECR                              #  SET UP RR CDU ERROR COUNTERS.
000193:
000194: 10,2052           37652                           CAF      BIT1                                  #  DO AN ALARM UNLESS RR JUST TURNED ON.
000195: 10,2053           70413                           MASK     RADMODES
000196: 10,2054           10000                           CCS      A
000197: 10,2055           12060                           TCF      +3
000198:
000199: 10,2056           05315                           TC       ALARM
000200: 10,2057           00501                           OCT      501
000201: 10,2060           04467                           TC       FIXDELAY
000202: 10,2061           00002                           DEC      2          B-14
000203:
000204: 10,2062           37637                           CAF      BIT12                                 #  MANEUVER TRUNNION ANGLE TO NOMINAL POS.
000205: 10,2063           70413                           MASK     RADMODES
000206: 10,2064           10000                           CCS      A
000207: 10,2065           37634                           CAF      BIT15                                 #  0 FOR MODE 1 AND 180 FOR MODE 2.
000208: 10,2066           02147                           TC       RRTONLY
000209:
000210: 10,2067           37637                           CAF      BIT12                                 #  NOW PUT SHAFT IN RIGHT POSITION.
000211: 10,2070           70413                           MASK     RADMODES
000212: 10,2071           10000                           CCS      A
000213: 10,2072           47635                           CS       HALF                                  #  -90 FOR MODE 2.
000214: 10,2073           02152                           TC       RRSONLY
000215:
000216: 10,2074           47640        REPOSRPT           CS       BIT11                                 #  RETURNS HERE FROM RR1AXIS IF REMODE
000217:                                                                                                  #  REQUESTED DURING REPOSITION.
000218: 10,2075           70413                           MASK     RADMODES                              #  REMOVE REPOSITION BIT.
000219: 10,2076           54413                           TS       RADMODES
000220: 10,2077           77641                           MASK     BIT10                                 #  SEE IF SOMEONE IS WAITING TO DESIGNATE.
000221: 10,2100           10000                           CCS      A
000222: 10,2101           12421                           TCF      BEGDES
000223: 10,2102           47651                           CS       BIT2                                  #  IF NO FURTHER ANTENNA CONTROL REQUIRED,
000224: 10,2103           00006                           EXTEND                                         #  REMOVE ERROR COUNTER ENABLE.
000225: 10,2104           03012                           WAND     12
000226: 10,2105           14505                           TCF      TASKOVER
000227:
000228: 10,2106           37651        SETRRECR           CAF      BIT2                                  #  SET UP RR ERROR COUNTERS.
000229: 10,2107           00006                           EXTEND
000230: 10,2110           05012                           WOR      12
000231:
000232: 10,2111           37657                           CAF      ZERO
000233: 10,2112           54362                           TS       LASTYCMD
000234: 10,2113           54363                           TS       LASTXCMD
000235: 10,2114           00002                           TC       Q
000236:
000237:                                                                                                  #           GENERAL REMODING SUBROUTINE. DRIVES TRUNION TO 0 (180), THEN DRIVES SHAFT TO -45, AND FINALLY DRIVES
000238:                                                                                                  #  TRUNNION TO -130 (-50) BEFORE INITIATING 2-AXIS CONTROL. ALL RE-MODING IONE WITH SINGLE AXIS ROTATIONS (RR1AXIS)
000239: 10,2115           37637        REMODE             CAF      BIT12                                 #  DRIVE TRUNNION TO 0 (180).
000240: 10,2116           70413                           MASK     RADMODES                              #  (ERROR COUNTER ALREADY ENABLED)
000241: 10,2117           10000                           CCS      A
000242: 10,2120           37634                           CAF      BIT15
000243: 10,2121           02147                           TC       RRTONLY
000244:
000245: 10,2122           32137                           CAF      -45DEGSR
000246: 10,2123           02152                           TC       RRSONLY
000247:
000248: 10,2124           40413                           CS       RADMODES
000249: 10,2125           77637                           MASK     BIT12
000250: 10,2126           10000                           CCS      A
000251: 10,2127           32140                           CAF      -60DEGSR                              #  GO TO T = -130 (-50).
000252: 10,2130           62140                           AD       -60DEGSR
000253: 10,2131           02147                           TC       RRTONLY
000254:
000255: 10,2132           02141                           TC       RMODINV
000256:
000257: 10,2133           47635                           CS       BIT14                                 #  END OF REMODE.
000258: 10,2134           70413                           MASK     RADMODES
000259: 10,2135           54413                           TS       RADMODES
000260:
000261: 10,2136           02430                           TC       STDESIG                               #  BEGIN 2-AXIS CONTROL.
000262:
000263: 10,2137           70000        -45DEGSR           OCT      70000
000264: 10,2140           65252        -60DEGSR           OCT      65252
000265:
000266: 10,2141           22413        RMODINV            LXCH     RADMODES                              #  INVERT THE MODE STATUS.
000267: 10,2142           37637                           CAF      BIT12
000268: 10,2143           00006                           EXTEND
000269: 10,2144           06001                           RXOR     L
000270: 10,2145           54413                           TS       RADMODES
000271: 10,2146           00002                           TC       Q
000272:
000273:                                                                                                  #           SUBROUTINES FOR DOING SINGLE AXIS RR MANEUVERS FOR REMODE AND REPOSITION. DRIVES TO WITHIN 1 DEGREE.
000274:
000275: 10,2147           55460        RRTONLY            TS       RDES                                  #  DESIRED TRUNION ANGLE.
000276: 10,2150           37657                           CAF      ZERO
000277: 10,2151           12154                           TCF      RR1AXIS
000278:
000279: 10,2152           55460        RRSONLY            TS       RDES                                  #  SHAFT COMMANDS ARE UNRESOLVED SINCE THIS
000280: 10,2153           37652                           CAF      ONE                                   #  ROUTINE ENTERED ONLY WHEN T = 0 OR 180.
000281:
000282: 10,2154           55461        RR1AXIS            TS       RRINDEX
000283: 10,2155           00006                           EXTEND
000284: 10,2156           23457                           QXCH     RRRET
000285: 10,2157           12162                           TCF      RR1AX2
000286:
000287: 10,2160           04467        NXTRR1AX           TC       FIXDELAY
000288: 10,2161           00062                           DEC      50         B-14                       #  2 SAMPLES PER SECOND.
000289:
000290: 10,2162           40413        RR1AX2             CS       RADMODES                              #  IF SOMEONE REQUESTES AS DESIGNATE WHICH
000291: 10,2163           74433                           MASK     PRIO22                                #  REQUIRES A REMODE AND A REPOSITION IS IN
000292: 10,2164           00006                           EXTEND                                         #  PROGRESS, INTERRUPT IT AND START THE
000293: 10,2165           12074                           BZF      REPOSRPT                              #  REMODE IMMEDIATELY.
000294:
000295: 10,2166           31460                           CA       RDES
000296: 10,2167           00006                           EXTEND
000297: 10,2170           51461                           INDEX    RRINDEX
000298: 10,2171           20035                           MSU      OPTY
000299: 10,2172           54002                           TS       Q                                     #  SAVE ERROR SIGNAL.
000300: 10,2173           00006                           EXTEND
000301: 10,2174           72211                           MP       RRSPGAIN                              #  TRIES TO NULL .7 OF ERROR OVER NEXT .5
000302: 10,2175           54001                           TS       L
000303: 10,2176           30002                           CA       Q                                     #  SEE IF WITHIN 1 DEGREE.
000304: 10,2177           04666                           TC       MAGSUB
000305: 10,2200           77644                           DEC      -.00555                               #  SCALED IN HALF-REVS.
000306:
000307: 10,2201           12203                           TCF      +2                                    #  NO.
000308: 10,2202           01457                           TC       RRRET                                 #  RETURN TO CALLER.
000309:
000310: 10,2203           11461                           CCS      RRINDEX                               #  COMMAND FOR OTHER AXIS IS ZERO.
000311: 10,2204           12206                           TCF      +2                                    #  SETTING A TO 0.
000312: 10,2205           56001                           XCH      L
000313: 10,2206           52424                           DXCH     TANG
000314:
000315: 10,2207           02212                           TC       RROUT
000316:
000317: 10,2210           12160                           TCF      NXTRR1AX                              #  COME BACK IN .5 SECONDS.
000318:
000319: 10,2211           22715        RRSPGAIN           DEC      .59062                                #  NULL .7 ERROR IN .5 SEC.
000320:
000321:                                                                                                  #           THE FOLLOWING ROUTINE RECEIVES RR GYRO COMMANDS IN TANG,+1 IN ERROR COUNTER SCALING. RROUT LIMITS THEM
000322:                                                                                                  #  AND GENERATES COMMANDS TO THE CDU TO ADJUST THE ERROR COUNTERS TO THE DESIRED VALUES. RUPT MUST BE INHIBITED.
000323:
000324: 10,2212           22002        RROUT              LXCH     Q                                     #  SAVE RETURN.
000325: 10,2213           37652                           CAF      ONE                                   #  LOOP TWICE.
000326: 10,2214           54066        RROUT2             TS       ITEMP2
000327: 10,2215           50000                           INDEX    A
000328: 10,2216           30423                           CA       TANG
000329: 10,2217           54065                           TS       ITEMP1                                #  SAVE SIGN OF COMMAND FOR LIMITING.
000330:
000331: 10,2220           04666                           TC       MAGSUB                                #  SEE IF WITHIN LMITS.
000332: 10,2221           77177        -RRLIMIT           DEC      -384       B-14
000333: 10,2222           12240                           TCF      RROUTLIM                              #  LIMIT COMMAND TO MAG OF 384.
000334:
000335: 10,2223           30065        SETRRCTR           CA       ITEMP1                                #  COUNT OUT DIFFERENCE BETWEEN DESIRED
000336: 10,2224           50066                           INDEX    ITEMP2                                #  STATE AND PRESENT STATE AS RECORDED IN
000337: 10,2225           56362                           XCH      LASTYCMD                              #  LASTYCMD AND LASTXCMD
000338: 10,2226           40000                           COM
000339: 10,2227           60065                           AD       ITEMP1
000340: 10,2230           50066                           INDEX    ITEMP2
000341: 10,2231           54053                           TS       OPTYCMD
000342:
000343: 10,2232           10066                           CCS      ITEMP2                                #  PROCESS BOTH INPUTS.
000344: 10,2233           12214                           TCF      RROUT2
000345:
000346: 10,2234           34421                           CAF      PRIO6                                 #  ENABLE COUNTERS.
000347: 10,2235           00006                           EXTEND
000348: 10,2236           05014                           WOR      14
000349:
000350: 10,2237           00001                           TC       L                                     #  RETURN.
000351:
000352: 10,2240           10065        RROUTLIM           CCS      ITEMP1                                #  LIMIT COMMAND TO ABS VAL OF 384.
000353: 10,2241           42221                           CS       -RRLIMIT
000354: 10,2242           12244                           TCF      +2
000355: 10,2243           32221                           CA       -RRLIMIT
000356: 10,2244           54065                           TS       ITEMP1
000357: 10,2245           12224                           TCF      SETRRCTR   +1
000358:
000359:                                                                                                  #           ROUTINE TO ZERO THE RR CDUS AND DETERMINE THE ANTENNA MODE.
000360:
000361: 10,2246           00004        RRZERO             INHINT
000362: 10,2247           47644                           CS       RRUSEFLG                              #  SET FLAG TO SHOW SOMEONE USING THE RR.
000363: 10,2250           70061                           MASK     STATE
000364: 10,2251           67644                           AD       RRUSEFLG
000365: 10,2252           54061                           TS       STATE
000366:
000367: 10,2253           37652                           CAF      BIT1                                  #  SEE IF RR COMING UP. IF SO, TURNON
000368: 10,2254           70413                           MASK     RADMODES                              #  PROGRAM WILL DO THE WORK.
000369: 10,2255           10000                           CCS      A
000370: 10,2256           12301                           TCF      ROADBACK
000371:
000372: 10,2257           37640                           CAF      BIT11                                 #  SEE IF MONITOR REPOSITION IN PROGRESS.
000373: 10,2260           70413                           MASK     RADMODES                              #  IF SO, DONT RE-ZERO CDUS.
000374: 10,2261           10000                           CCS      A
000375: 10,2262           13230                           TCF      RADNOOP                               #  (IMMEDIATE TASK TO RGOODEND).
000376:
000377: 10,2263           47636                           CS       BIT13                                 #  SET FLAG TO SHOW ZEROING IN PROGRESS.
000378: 10,2264           70413                           MASK     RADMODES
000379: 10,2265           67636                           AD       BIT13
000380: 10,2266           54413                           TS       RADMODES
000381:
000382: 10,2267           37652                           CAF      ONE
000383: 10,2270           04451                           TC       WAITLIST
000384: 10,2271           02303 20003                     2CADR    RRZ2
000385:
000386: 10,2273           40413                           CS       RADMODES                              #  SEE IF IN AUTO MODE.
000387: 10,2274           77651                           MASK     BIT2
000388: 10,2275           10000                           CCS      A
000389: 10,2276           12301                           TCF      ROADBACK
000390: 10,2277           05315                           TC       ALARM                                 #  AUTO DISCRETE NOT PRESENT - TRYING
000391: 10,2300           00510                           OCT      510
000392: 10,2301           00003        ROADBACK           RELINT
000393: 10,2302           14076                           TCF      SWRETURN
000394:
000395: 10,2303           02013        RRZ2               TC       RRZEROSB                              #  COMMON TO TURNON AND RRZERO.
000396: 10,2304           13236                           TCF      ENDRADAR
000397:
000398: 10,2305     7644               RRUSEFLG           EQUALS   BIT7
000399: 10,2305     7646               LOKONFLG           EQUALS   BIT5
000400:
000401:                                                                                                  #           STABLE-MEMBER RR DESIGNATE ROUTINE. DESIGNATE TO A SM LOS VECTOR (HALF-UNIT) IN RRTARGET. REMODES IF
000402:                                                                                                  #  REQUIRED. RETURNS TO CALLER IF MANEUVER REQUIRED FOR DES AND SKIPS IF IT CAN BE DONE IN PRESENT VEH ATTITUDE.
000403:
000404: 10,2305           43030        RRDESSM            STQ      CLEAR
000405: 10,2306           00427                                    DESRET
000406: 10,2307           00271                                    RRNBSW
000407: 10,2310           66224                           RTB      SSP                                   #  READ CDUS FOR SMNB.
000408: 10,2311           33477                                    READCDUS
000409: 10,2312           00051                                    S1
000410: 10,2313           00024                                    20D
000411: 10,2314           22025                           STOVL    20D
000412: 10,2315           00416                                    RRTARGET
000413: 10,2316           36041                           STCALL   32D
000414: 10,2317           32473                                    SMNB
000415:
000416: 10,2320           77634                           CALL                                           #  GET RR GIMBAL ANGLES IN PRESENT AND
000417: 10,2321           33405                                    RRANGLES                              #  ALTERNATE MODE.
000418: 10,2322           77776                           EXIT
000419:
000420: 10,2323           00004                           INHINT
000421: 10,2324           04702                           TC       RRLIMCHK
000422: 10,2325           00423                           ADRES    MODEA                                 #  CONFIGURATION FOR CURRENT MODE.
000423: 10,2326           12350                           TCF      TRYSWS
000424:
000425: 10,2327           24427        OKDESSM            INCR     DESRET                                #  INCREMENT SAYS NO VEHICLE MANEUVER REQ.
000426:
000427:                                                                                                  #           AT THIS POINT WE ARE READY TO BEGIN DESIGNATION. THE TARGET IS STORED AS A HALF-UNIT VECTOR IN RRTARGET
000428:                                                                                                  #  WITH RRNBSW SET IF IT IS REFERRED TO NAV BASE AXES. LOKONSW IS SET IF LOCKON IS DESIRED. BIT14 OF RADMODES IS
000429:                                                                                                  #  SET IF A REMODE IS REQUIRED. AT THIS TIME, THE ANTENNA MAY BE IN A MONITOR REPOSITION OPERATION. IN THIS
000430:                                                                                                  #  CASE, IF A REMODE IS REQUIRED IT MAY HAVE ALREADY BEGUN BUT IT ANY CASE THE REPOSITION WILL BE INTERRUPTED.
000431:                                                                                                  #  OTHERWISE, THE REPOSITION WILL BE COMPLETED BEFORE 2-AXIS DESIGNATION BEGINS.
000432:
000433: 10,2330           32347        STARTDES           CAF      MAXTRIES                              #  ALLOW 30 SECS.
000434: 10,2331           54430                           TS       DESCOUNT
000435:
000436: 10,2332           37641                           CAF      BIT10                                 #  SHOW DESIGNATE REQUIRED.
000437: 10,2333           26413                           ADS      RADMODES
000438: 10,2334           77640                           MASK     BIT11                                 #  SEE IF REPOSITION IN PROGRESS.
000439: 10,2335           10000                           CCS      A
000440: 10,2336           12344                           TCF      DESRETRN                              #  ECTR ALREADY SET UP.
000441:
000442: 10,2337           02106                           TC       SETRRECR                              #  SET UP ERROR COUNTERS.
000443:
000444: 10,2340           37651                           CAF      TWO
000445: 10,2341           04451                           TC       WAITLIST
000446: 10,2342           02421 20003                     2CADR    BEGDES
000447:
000448: 10,2344           00003        DESRETRN           RELINT                                         #  RETURN VIA DESRET
000449: 10,2345           30427                 +1        CA       DESRET
000450: 10,2346           14105                           TCF      BANKJUMP
000451:
000452: 10,2347           00074        MAXTRIES           DEC      60         B-14
000453:
000454:                                                                                                  #           SEE IF RRDESSM CAN BE ACCOMPLISHED AFTER A REMODE.
000455:
000456: 10,2350           02141        TRYSWS             TC       RMODINV                               #  (NOTE RUPT INHIBIT)
000457: 10,2351           04702                           TC       RRLIMCHK                              #  TRY DIFFERENT MODE.
000458: 10,2352           00425                           ADRES    MODEB
000459: 10,2353           12360                           TCF      NODESSM                               #  VEHICLE MANEUVER REQUIRED.
000460:
000461: 10,2354           02141                           TC       RMODINV                               #  RESET BIT12
000462: 10,2355           37635                           CAF      BIT14                                 #  SET FLAG FOR REMODE.
000463: 10,2356           26413                           ADS      RADMODES
000464:
000465: 10,2357           12327                           TCF      OKDESSM
000466:
000467: 10,2360           02141        NODESSM            TC       RMODINV                               #  RE-INVERT MODE AND RETURN WITHOUT IN-
000468: 10,2361           12344                           TCF      DESRETRN                              #  CREMENTING DESRET
000469:
000470:                                                                                                  #           DESIGNATE TO SPECIFIC RR GIMBAL ANGLES (INDEPENDENT OF VEHICLE MOTION).  ENTER WITH DESIRED ANGLES IN
000471:                                                                                                  #  TANG AND TANG +1.
000472:
000473: 10,2362           77430        RRDESNB            STQ      EXIT                                  #  ENTER IN INTERP. - EXIT IN BASIC.
000474: 10,2363           00427                                    DESRET
000475:
000476: 10,2364           00004                           INHINT                                         #  SEE IF CURRENT MODE OK.
000477: 10,2365           04702                           TC       RRLIMCHK
000478: 10,2366           00423                           ADRES    TANG
000479: 10,2367           12401                           TCF      TRYSWN                                #  SEE IF IN OTHER MODE.
000480:
000481: 10,2370           00003        OKDESNB            RELINT
000482: 10,2371           06000                           TC       INTPRET
000483:
000484: 10,2372           77634                           CALL                                           #  GET LOS IN NB COORDS.
000485: 10,2373           33361                                    RRNB
000486: 10,2374           00416                           STORE    RRTARGET
000487:
000488: 10,2375           77414                           SET      EXIT
000489: 10,2376           00071                                    RRNBSW
000490:
000491: 10,2377           00004                           INHINT
000492: 10,2400           12330                           TCF      STARTDES
000493:
000494: 10,2401           02141        TRYSWN             TC       RMODINV                               #  SEE IF OTHER MODE WILL DO.
000495: 10,2402           04702                           TC       RRLIMCHK
000496: 10,2403           00423                           ADRES    TANG
000497: 10,2404           12411                           TCF      NODESNB                               #  NOT POSSIBLE.
000498:
000499: 10,2405           02141                           TC       RMODINV
000500: 10,2406           37635                           CAF      BIT14                                 #  CALL FOR REMODE.
000501: 10,2407           26413                           ADS      RADMODES
000502: 10,2410           12370                           TCF      OKDESNB
000503:
000504: 10,2411           37652        NODESNB            CAF      BIT1                                  #  CALL FOR ERROR RETURN.
000505: 10,2412           04451                           TC       WAITLIST
000506: 10,2413           03252 20003                     2CADR    RDBADEND
000507:
000508: 10,2415           02141                           TC       RMODINV
000509: 10,2416           05315                           TC       ALARM                                 #  BAD GIMBAL ANGLE INPUTS.
000510: 10,2417           00502                           OCT      502
000511: 10,2420           12345                           TCF      DESRETRN   +1                         #  ALARM DID A RELINT.
000512:
000513:                                                                                                  #           WAITLIST TASKS TO RUN RR DESIGNATION.
000514:
000515: 10,2421           37635        BEGDES             CAF      BIT14                                 #  ENTER HERE FROM STARTDES OR REPOSRPT.
000516: 10,2422           70413                           MASK     RADMODES                              #  SEE IF REMODE REQUIRED.
000517: 10,2423           10000                           CCS      A
000518: 10,2424           12115                           TCF      REMODE
000519: 10,2425           12430                           TCF      STDESIG
000520:
000521: 10,2426           04467        DESLOOP            TC       FIXDELAY                              #  2 SAMPLES PER SECOND.
000522: 10,2427           00062                           DEC      50         B-14
000523:
000524: 10,2430           37640        STDESIG            CAF      BIT11                                 #  ENTRY FROM BEGDES AND REMODE.
000525: 10,2431           70413                           MASK     RADMODES                              #  SEE IF GIMBAL LIMIT MONITOR HAS FOUND US
000526: 10,2432           10000                           CCS      A                                     #  OUT OF BOUNDS. IF SO, THIS BIT SHOWS A
000527: 10,2433           12453                           TCF      BADDES                                #  REPOSITION TO BE IN PROGRESS.
000528:
000529: 10,2434           10413                           CCS      RADMODES                              #  SEE IF CONTINUOUS DESIGNATE WANTED.
000530: 10,2435           12440                           TCF      +3                                    #  IF SO, DONT CHECK BIT 10 TO SEE IF IN
000531: 10,2436           12440                           TCF      +2                                    #  LIMITS BUT GO RIGHT TO FINDVAC ENTRY.
000532: 10,2437           12460                           TCF      MOREDES    +1
000533:
000534: 10,2440           40413                           CS       RADMODES                              #  IF NON-CONTINUOUS, SEE IF END OF
000535: 10,2441           77641                           MASK     BIT10                                 #  PROBLEM (DATA GOOD IF LOCK-ON WANTED OR
000536: 10,2442           10000                           CCS      A                                     #  WITHIN LIMITS IF NOT). IF SO, EXIT AFTER
000537: 10,2443           13236                           TCF      ENDRADAR                              #  CHECKING RR CDU FAIL.
000538:
000539: 10,2444           10430                           CCS      DESCOUNT                              #  SEE IF TIME LIMIT HAS EXPIRED.
000540: 10,2445           12457                           TCF      MOREDES
000541:
000542: 10,2446           05315                           TC       ALARM                                 #  OUT OF TIME.
000543: 10,2447           00503                           OCT      503
000544: 10,2450           42465                           CS       B14+B2                                #  IF OUT OF TIME, REMOVE ECR ENABLE + TRKR
000545: 10,2451           00006                           EXTEND
000546: 10,2452           03012                           WAND     12
000547: 10,2453           47641        BADDES             CS       BIT10                                 #  REMOVE DESIGNATE FLAG.
000548: 10,2454           70413                           MASK     RADMODES
000549: 10,2455           54413                           TS       RADMODES
000550: 10,2456           13252                           TCF      RDBADEND
000551:
000552: 10,2457           54430        MOREDES            TS       DESCOUNT
000553: 10,2460           34437                           CAF      PRIO26                                #  UPDATE GYRO TORQUE COMMANDS.
000554: 10,2461           04307                           TC       FINDVAC
000555: 10,2462           02466 20003                     2CADR    DODES
000556:
000557: 10,2464           12426                           TCF      DESLOOP
000558:
000559: 10,2465           20002        B14+B2             OCT      20002
000560:
000561:                                                                                                  #           CALCULATE GYRO TORQUE COMMANDS.
000562:
000563: 10,2466           00006        DODES              EXTEND
000564: 10,2467           30036                           DCA      OPTY
000565: 10,2470           52424                           DXCH     TANG
000566:
000567: 10,2471           06000                           TC       INTPRET
000568:
000569: 10,2472           77775                           VLOAD                                          #  MOVE TARGET VECTOR TO 32D.
000570: 10,2473           00416                                    RRTARGET
000571: 10,2474           00041                           STORE    32D
000572:
000573: 10,2475           45014                           BON      RTB                                   #  DO STABLE-MEMBER TO NAVBASE TRANSFORMA-
000574: 10,2476           00311                                    RRNBSW                                #  TION IF TARGET IN SM COORDS. OTHERWISE,
000575: 10,2477           20506                                    DONBRD                                #  IN NB COORDS ALREADY.
000576: 10,2500           33477                                    READCDUS
000577:
000578: 10,2501           77731                           SSP
000579: 10,2502           00051                                    S1
000580: 10,2503           00024                                    20D                                   #  LOC OF ICDUS.
000581: 10,2504           36025                           STCALL   20D
000582: 10,2505           32473                                    SMNB
000583:
000584: 10,2506           67201        DONBRD             SETPD    SLOAD                                 #  DO NAVBASE TO RADAR DISH TRANSFORMATION.
000585: 10,2507           00001                                    0
000586: 10,2510           00425                                    TANG       +1
000587: 10,2511           41424                           RTB      PUSH                                  #  SHAFT COMMAND = V(32D).(COS(S), 0,
000588: 10,2512           33463                                    CDULOGIC                              #        (-SIN(S)).
000589: 10,2513           65356                           SIN      PDDL                                  #  SIN(S) TO 0 AND COS(S) TO 2.
000590: 10,2514           41546                           COS      PUSH
000591: 10,2515           65205                           DMP      PDDL
000592: 10,2516           00041                                    32D
000593: 10,2517           00045                                    36D
000594: 10,2520           44205                           DMP      BDSU
000595: 10,2521           00001                                    0
000596: 10,2522           77626                           STADR
000597: 10,2523           77352                           STORE    TANG       +1                         #  SHAFT COMMAND
000598:
000599: 10,2524           45135                           SLOAD    RTB
000600: 10,2525           00424                                    TANG
000601: 10,2526           33463                                    CDULOGIC
000602: 10,2527           71406                           PUSH     COS                                   #  COS(T) TO 4.
000603: 10,2530           73525                           PDDL     SIN
000604: 10,2531           41206                           PUSH     DMP                                   #  SIN(T) TO 6.
000605: 10,2532           00003                                    2
000606: 10,2533           65352                           SL1      PDDL                                  #  DEFINE VECTOR U =     (SIN(T)SIN(S))
000607: 10,2534           00005                                    4                                     #                        (   COS(T)   )
000608: 10,2535           41325                           PDDL     DMP                                   #                        (SIN(T)COS(S))
000609: 10,2536           00007                                    6
000610: 10,2537           00001                                    0
000611: 10,2540           55552                           SL1      VDEF
000612: 10,2541           77441                           DOT      EXIT                                  #  DOT U WITH LOS TO GET TRUNNION COMMAND.
000613: 10,2542           00041                                    32D
000614:
000615:                                                                                                  #           AT THIS POINT WE HAVE A ROTATION VECTOR IN DISH AXES LYING IN THE TS PLANE. CONVERT THIS TO A
000616:                                                                                                  #  COMMANDED RATE AND ENABLE THE TRACKER IF WE ARE WITHIN 1 DEGREE OF THE TARGET.
000617:
000618: 10,2543           40140                           CS       MPAC                                  #  DOT WAS NEGATIVE OF DESIRED ANGLE.
000619: 10,2544           54423                           TS       TANG
000620:
000621: 10,2545           40413                           CS       RADMODES                              #  A RELAY IN THE RR REVERSES POLARITY OF
000622: 10,2546           77637                           MASK     BIT12                                 #  THE SHAFT COMMANDS IN MODE 2 SO THAT A
000623: 10,2547           10000                           CCS      A                                     #  POSITIVE TORQUE APPLIED TO THE SHAFT
000624: 10,2550           12553                           TCF      +3                                    #  GYRO CAUSES A POSITIVE CHANGE IN THE
000625:
000626: 10,2551           40424                           CS       TANG       +1                         #  SHAFT ANGLE.  COMPENSATE FOR THIS SWITCH
000627: 10,2552           54424                           TS       TANG       +1                         #  BY CHANGING THE POLARITY OF OUR COMMAND.
000628:
000629: 10,2553           37657                           CAF      ZERO
000630: 10,2554           54141                           TS       MPAC       +1
000631: 10,2555           37652                           CAF      ONE
000632:
000633: 10,2556           54140        RRSCALUP           TS       MPAC
000634: 10,2557           50000                           INDEX    A
000635: 10,2560           30423                           CA       TANG                                  #  TRUNNION COMPONENT OF ROTATION.
000636: 10,2561           00006                           EXTEND
000637: 10,2562           72634                           MP       RDESGAIN                              #  SCALING ON INPUT ANGLE WAS 4 RADIANS.
000638: 10,2563           50140                           INDEX    MPAC
000639: 10,2564           56423                           XCH      TANG                                  #  MAKE EACH COMPONENT LESS THAN .35 DEGREES
000640: 10,2565           04666                           TC       MAGSUB                                #  BEFORE SENDING TRACK ENABLE.
000641: 10,2566           77737                           DEC      -.00195
000642: 10,2567           24141                           INCR     MPAC       +1                         #  IF OUT OF BOUNDS.
000643:
000644: 10,2570           10140                           CCS      MPAC
000645: 10,2571           12556                           TCF      RRSCALUP
000646:
000647:                                                                                                  #           SEE IF TRACKER SHOULD BE ENABLED OR DISABLED.
000648:
000649: 10,2572           00004                           INHINT
000650:
000651: 10,2573           10413                           CCS      RADMODES                              #  IF CONTINUOUS DESIGNATE WANTED, PUT OUT
000652: 10,2574           12577                           TCF      +3                                    #  COMMANDS WITHOUT CHECKING MAGNITUDE OF
000653: 10,2575           12577                           TCF      +2                                    #  ERROR SIGNALS.
000654: 10,2576           12624                           TCF      TRKOFF
000655:
000656: 10,2577           10141                           CCS      MPAC       +1                         #  SEE IF BOTH AXES WERE WITHIN .7 DEGS.
000657: 10,2600           12624                           TCF      TRKOFF
000658:
000659: 10,2601           40061                           CS       STATE                                 #  IF WITHIN LIMITS AND NO LOCK-ON WANTED,
000660: 10,2602           77646                           MASK     LOKONFLG                              #  PROBLEM IS FINISHED.
000661: 10,2603           10000                           CCS      A
000662: 10,2604           12615                           TCF      RRDESDUN
000663:
000664: 10,2605           37635                           CAF      BIT14                                 #  ENABLE THE TRACKER.
000665: 10,2606           00006                           EXTEND
000666: 10,2607           05012                           WOR      12
000667:
000668: 10,2610           37647                           CAF      BIT4                                  #  SEE IF DATA GOOD RECEIVED YET.
000669: 10,2611           00006                           EXTEND
000670: 10,2612           02033                           RAND     33
000671: 10,2613           10000                           CCS      A
000672: 10,2614           12627                           TCF      DORROUT
000673:
000674: 10,2615           47641        RRDESDUN           CS       BIT10                                 #  WHEN PROBLEM DONE, REMOVE BIT 10 SO NEXT
000675: 10,2616           70413                           MASK     RADMODES                              #  WAITLIST TASK WE WILL GO TO RGOODEND.
000676: 10,2617           54413                           TS       RADMODES
000677:
000678: 10,2620           47651                           CS       BIT2
000679: 10,2621           00006                           EXTEND
000680: 10,2622           03012                           WAND     12
000681: 10,2623           14353                           TCF      ENDOFJOB                              #  WITH ECTR DISABLED.
000682:
000683: 10,2624           47635        TRKOFF             CS       BIT14
000684: 10,2625           00006                           EXTEND
000685: 10,2626           03012                           WAND     12
000686:
000687: 10,2627           40413        DORROUT            CS       RADMODES                              #  PUT OUT COMMAND UNLESS MONITOR
000688: 10,2630           77640                           MASK     BIT11                                 #  REPOSITION HAS TAKEN OVER.
000689: 10,2631           10000                           CCS      A
000690: 10,2632           02212                           TC       RROUT
000691:
000692: 10,2633           14353                           TCF      ENDOFJOB
000693:
000694: 10,2634           21122        RDESGAIN           DEC      .53624                                #  TRIES TO NULL .5 ERROR IN .5 SEC.
000695:
000696:                                                                                                  #  RADAR READ INITIALIZATION
000697:
000698:                                                                                                  #  RADAR DATA ARE READ BY A BANKCALL FOR THE APPROPRIATE LEAD-IN BELOW.
000699:
000700:
000701:
000702: 10,2635           02651        LRALT              TC       INITREAD   -1                         #  ONE SAMPLE PER READING.
000703: 10,2636           00017        ALLREAD            OCT      17
000704:
000705: 10,2637           02652        LRVELZ             TC       INITREAD
000706: 10,2640           00016                           OCT      16
000707:
000708: 10,2641           02652        LRVELY             TC       INITREAD
000709: 10,2642           00015                           OCT      15
000710:
000711: 10,2643           02652        LRVELX             TC       INITREAD
000712: 10,2644           00014                           OCT      14
000713:
000714: 10,2645           02651        RRRDOT             TC       INITREAD   -1
000715: 10,2646           00012                           OCT      12
000716:
000717: 10,2647           02651        RRRANGE            TC       INITREAD   -1
000718: 10,2650           00011                           OCT      11
000719:
000720: 10,2651           37652                 -1        CAF      ONE                                   #  ENTRY TO TAKE ONLY 1 SAMPLE.
000721: 10,2652           00004        INITREAD           INHINT
000722:
000723: 10,2653           54421                           TS       TIMEHOLD                              #  GET DT OF MIDPOINT OF NOMINAL SAMPLING
000724: 10,2654           00006                           EXTEND                                         #  INTERVAL (ASSUMES NO BAD SAMPLES WILL BE
000725: 10,2655           77650                           MP       BIT3                                  #  ENCOUNTERED).
000726: 10,2656           52422                           DXCH     TIMEHOLD
000727:
000728: 10,2657           10000                           CCS      A
000729: 10,2660           54425                           TS       NSAMP
000730: 10,2661           67652                           AD       ONE
000731:                                                                                                  #           INSERT FOLLOWING INSTRUCTION TO GET 2N TRIES FOR N SAMPLES.
000732:                                                                                                  #                DOUBLE
000733: 10,2662           54414                           TS       SAMPLIM
000734:
000735: 10,2663           32705                           CAF      DGBITS                                #  READ CURRENT VALUE OF DATA GOOD BITS.
000736: 10,2664           00006                           EXTEND
000737: 10,2665           02033                           RAND     33
000738: 10,2666           54427                           TS       OLDATAGD
000739:
000740: 10,2667           42636                           CS       ALLREAD
000741: 10,2670           00006                           EXTEND
000742: 10,2671           03013                           WAND     13                                    #  REMOVE ALL RADAR BITS
000743:
000744: 10,2672           50002                           INDEX    Q
000745: 10,2673           30000                           CAF      0
000746: 10,2674           00006                           EXTEND
000747: 10,2675           05013                           WOR      13                                    #  SET NEW RADAR BITS
000748:
000749: 10,2676           00006                           EXTEND
000750: 10,2677           30025                           DCA      TIME2
000751: 10,2700           20422                           DAS      TIMEHOLD                              #  TIME OF NOMINAL MIDPOINT.
000752:
000753: 10,2701           37657                           CAF      ZERO
000754: 10,2702           54001                           TS       L
000755: 10,2703           52416                           DXCH     SAMPLSUM
000756: 10,2704           12301                           TCF      ROADBACK
000757:
000758: 10,2705           00230        DGBITS             OCT      230
000759:
000760:                                                                                                  #  RADAR RUPT READER
000761:
000762:                                                                                                  #  THIS ROUTINE STARTS FROM A RADARUPT. IT READS THE DATA $ LOTS MORE.
000763:
000764: 10,2706           54016        RADAREAD           TS       BANKRUPT
000765: 10,2707           00006                           EXTEND
000766: 10,2710           22012                           QXCH     QRUPT
000767:
000768: 10,2711           11212                           CCS      LOTSFLAG
000769: 10,2712           04511                           TC       RESUME
000770:
000771: 10,2713           00006        ANGLREAD           EXTEND
000772: 10,2714           30036                           DCA      OPTY
000773: 10,2715           52420                           DXCH     OPTYHOLD                              #  SAVE RAW CDU ANGLES
000774:
000775: 10,2716           10414        TRYCOUNT           CCS      SAMPLIM
000776: 10,2717           12731                           TCF      PLENTY
000777: 10,2720           12724                           TCF      NOMORE
000778: 10,2721           05315                           TC       ALARM
000779: 10,2722           00520                           OCT      520
000780: 10,2723           04511                           TC       RESUME
000781:
000782: 10,2724           05315        NOMORE             TC       ALARM
000783: 10,2725           00521                           OCT      521
000784: 10,2726           47652        BADRAD             CS       ONE
000785: 10,2727           54414                           TS       SAMPLIM
000786: 10,2730           03250                           TC       RDBADEND   -2
000787:
000788: 10,2731           54414        PLENTY             TS       SAMPLIM
000789: 10,2732           37650                           CAF      BIT3
000790: 10,2733           00006                           EXTEND
000791: 10,2734           02013                           RAND     13                                    #  TO FIND OUT WHICH RADAR
000792: 10,2735           00006                           EXTEND
000793: 10,2736           13015                           BZF      RENDRAD
000794:
000795: 10,2737           30413        LRPOSCHK           CA       RADMODES                              #  SEE IF LR IN DESIRED POSITION.
000796: 10,2740           00006                           EXTEND
000797: 10,2741           06033                           RXOR     33
000798: 10,2742           77645                           MASK     BIT6
000799: 10,2743           00006                           EXTEND
000800: 10,2744           12750                           BZF      VELCHK
000801:
000802: 10,2745           05315                           TC       ALARM
000803: 10,2746           00522                           OCT      522
000804: 10,2747           02726                           TC       BADRAD
000805:
000806: 10,2750           36165        VELCHK             CAF      BIN3                                  #  = 00003 OCT
000807: 10,2751           00006                           EXTEND
000808: 10,2752           06013                           RXOR     13
000809: 10,2753           76165                           MASK     BIN3
000810: 10,2754           00006                           EXTEND
000811: 10,2755           13011                           BZF      LRHEIGHT                              #  TAKE A LR RANGE READING
000812:
000813: 10,2756           37632                           CAF      POSMAX
000814: 10,2757           70046                           MASK     RNRAD
000815: 10,2760           63170                           AD       LVELBIAS
000816: 10,2761           54001                           TS       L
000817: 10,2762           30046                           CAE      RNRAD
000818: 10,2763           60000                           DOUBLE
000819: 10,2764           77652                           MASK     BIT1
000820: 10,2765           52071                           DXCH     ITEMP3
000821:
000822: 10,2766           37643                           CAF      BIT8                                  #  DATA GOOD ISNT CHECKED UNTIL AFTER READ-
000823: 10,2767           03140                           TC       DGCHECK                               #  ING DATA SO SOME RADAR TESTS WILL WORK
000824:                                                                                                  #  INDEPENDENT OF DATA GOOD.
000825:
000826: 10,2770           10425                           CCS      NSAMP
000827: 10,2771           03001                           TC       NOEND
000828: 10,2772           47652        GOODRAD            CS       ONE
000829: 10,2773           54414                           TS       SAMPLIM
000830: 10,2774           40065                           CS       ITEMP1                                #  WHEN ENOUGH GOOD DATA HAS BEEN GATHERED,
000831: 10,2775           70413                           MASK     RADMODES                              #  RESET DATA FAIL FLAGS FOR SETTRKF.
000832: 10,2776           54413                           TS       RADMODES
000833: 10,2777           04744                           TC       SETTRKF                               #  LAMP MIGHT GO OFF IF DATA JUST GOOD.
000834: 10,3000           03243                           TC       RGOODEND   -2
000835:
000836: 10,3001           54425        NOEND              TS       NSAMP
000837: 10,3002           10414        RESAMPLE           CCS      SAMPLIM                               #  SEE IF ANY MORE TRIES SHOULD BE MADE.
000838: 10,3003           13005                           TCF      +2
000839: 10,3004           13157                           TCF      DATAFAIL                              #  N SAMPLES NOT AVAILABLE.
000840: 10,3005           37647                           CAF      BIT4                                  #  RESET ACTIVITY BIT.
000841: 10,3006           00006                           EXTEND
000842: 10,3007           05013                           WOR      13                                    #  RESET ACTIVITY BIT
000843: 10,3010           04511                           TC       RESUME
000844:
000845:
000846: 10,3011           37646        LRHEIGHT           CAF      BIT5
000847: 10,3012           54065                           TS       ITEMP1                                #  (POSITION OF DATA GOOD BIT IN CHAN 33)
000848:
000849: 10,3013           37642                           CAF      BIT9
000850: 10,3014           03050                           TC       SCALECHK   -1
000851:
000852: 10,3015           37640        RENDRAD            CAF      BIT11                                 #  MAKE SURE ANTENNA HAS NOT GONE OUT OF
000853: 10,3016           70413                           MASK     RADMODES                              #  LIMITS.
000854: 10,3017           10000                           CCS      A
000855: 10,3020           12726                           TCF      BADRAD
000856:
000857: 10,3021           40413                           CS       RADMODES                              #  BE SURE RR CDU HASNT FAILED.
000858: 10,3022           77644                           MASK     BIT7
000859: 10,3023           10000                           CCS      A
000860: 10,3024           12726                           TCF      BADRAD
000861:
000862: 10,3025           37637                           CAF      BIT12                                 #  DONT ACCEPT RR DATA IF TRUNNION MORE
000863: 10,3026           70413                           MASK     RADMODES                              #  THAN 55 DEGREES FROM NOMINAL POSITION.
000864: 10,3027           10000                           CCS      A
000865: 10,3030           37634                           CAF      BIT15                                 #  180 FOR MODE 2 - 0 FOR MODE 1.
000866: 10,3031           00006                           EXTEND
000867: 10,3032           20035                           MSU      OPTY
000868: 10,3033           04666                           TC       MAGSUB
000869: 10,3034           66161                           DEC      -.30555                               #  55 DEGS AT HALF-REVS.
000870: 10,3035           12726                           TCF      BADRAD
000871:
000872: 10,3036           37647                           CAF      BIT4                                  #  SEE IF DATA HAS BEEN GOOD.
000873: 10,3037           54065                           TS       ITEMP1                                #  (POSITION OF DATA GOOD BIT IN CHAN 33)
000874:
000875: 10,3040           37652                           CAF      BIT1                                  #  SEE IF RR RDOT.
000876: 10,3041           00006                           EXTEND
000877: 10,3042           02013                           RAND     13
000878: 10,3043           54002                           TS       Q                                     #  FOR LATER TESTING.
000879: 10,3044           10000                           CCS      A
000880: 10,3045           13047                           TCF      +2
000881: 10,3046           13061                           TCF      RADIN                                 #  NO SCALE CHECK FOR RR RDOT.
000882: 10,3047           37650                           CAF      BIT3
000883: 10,3050           54001                           TS       L
000884:
000885: 10,3051           00006        SCALECHK           EXTEND
000886: 10,3052           02033                           RAND     33                                    #  SCALE STATUS NOW
000887: 10,3053           56001                           XCH      L
000888: 10,3054           70413                           MASK     RADMODES                              #  SCALE STATUS BEFORE
000889: 10,3055           00006                           EXTEND
000890: 10,3056           06001                           RXOR     01                                    #  SEE IF THEY DIFFER
000891: 10,3057           10000                           CCS      A
000892: 10,3060           03100                           TC       SCALCHNG                              #  THEY DIFFER
000893:
000894: 10,3061           37632        RADIN              CAF      POSMAX
000895: 10,3062           70046                           MASK     RNRAD
000896: 10,3063           54071                           TS       ITEMP4
000897:
000898: 10,3064           30046                           CAE      RNRAD
000899: 10,3065           60000                           DOUBLE
000900: 10,3066           77652                           MASK     BIT1
000901: 10,3067           54070                           TS       ITEMP3
000902:
000903: 10,3070           10002                           CCS      Q                                     #  SEE IF RR RDOT.
000904: 10,3071           13112                           TCF      SCALADJ                               #  NO, BUT SCALE CHANGING MAY BE NEEDED.
000905:
000906: 10,3072           00006                           EXTEND                                         #  IF RR RANGE RATE, THROW OUT BIAS.
000907: 10,3073           43172                           DCS      RDOTBIAS
000908: 10,3074           20071        DASAMPL            DAS      ITEMP3
000909: 10,3075           30065        DGCHECK2           CA       ITEMP1                                #  SEE THAT DATA HAS BEEN GOOD BEFORE AND
000910: 10,3076           03141                           TC       DGCHECK    +1                         #  AFTER TAKING SAMPLE.
000911: 10,3077           02772                           TC       GOODRAD
000912:
000913: 10,3100           22413        SCALCHNG           LXCH     RADMODES
000914: 10,3101           67652                           AD       BIT1
000915: 10,3102           00006                           EXTEND
000916: 10,3103           06001                           RXOR     01
000917: 10,3104           54413                           TS       RADMODES
000918: 10,3105           32705                           CAF      DGBITS                                #  UPDATE LAST VALUE OF DATA GOOD BITS.
000919: 10,3106           00006                           EXTEND
000920: 10,3107           02033                           RAND     33
000921: 10,3110           54427                           TS       OLDATAGD
000922: 10,3111           12726                           TCF      BADRAD
000923:
000924:                                                                                                  #           THE FOLLOWING ROUTINE INCORPORATES RR RANGE AND LR ALT SCALE INFORMATION AND LEAVES DATA AT LO SCALE.
000925:
000926: 10,3112           10001        SCALADJ            CCS      L                                     #  L HAS SCALE INBIT FOR THIS RADAR.
000927: 10,3113           13115                           TCF      +2                                    #  ON HIGH SCALE.
000928: 10,3114           13075                           TCF      DGCHECK2
000929:
000930: 10,3115           52071                           DXCH     ITEMP3
000931: 10,3116           20001                           DDOUBL
000932: 10,3117           20001                           DDOUBL
000933: 10,3120           20001                           DDOUBL
000934: 10,3121           52071                           DXCH     ITEMP3
000935:
000936: 10,3122           37650                           CAF      BIT3                                  #  SEE IF LR OR RR.
000937: 10,3123           00006                           EXTEND
000938: 10,3124           02013                           RAND     13
000939: 10,3125           00006                           EXTEND                                         #  IF RR, NO MORE ACTION REQUIRED.
000940: 10,3126           13075                           BZF      DGCHECK2
000941:
000942: 10,3127           33167                           CAF      LRRATIO                               #  IF LR, CONVERT TO LO SCALING.
000943: 10,3130           00006                           EXTEND
000944: 10,3131           70071                           MP       ITEMP4
000945: 10,3132           54071                           TS       ITEMP4
000946: 10,3133           37657                           CAF      ZERO                                  #  (SO SUBSEQUENT DAS WILL BE OK)
000947: 10,3134           56070                           XCH      ITEMP3
000948: 10,3135           00006                           EXTEND
000949: 10,3136           73167                           MP       LRRATIO
000950: 10,3137           13074                           TCF      DASAMPL
000951:
000952: 10,3140           54065        DGCHECK            TS       ITEMP1                                #  UPDATE DATA GOOD BIT IN OLDATAGD AND
000953: 10,3141           00006                           EXTEND                                         #  MAKE SURE IT WAS ON BEFORE AND AFTER THE
000954: 10,3142           02033                           RAND     33                                    #  SAMPLE WAS TAKEN BEFORE RETURNING. IF
000955: 10,3143           54001                           TS       L                                     #  NOT, GOES TO RESAMPLE TO TRY AGAIN. IF
000956: 10,3144           40065                           CS       ITEMP1                                #  MAX NUMBER OF TRIES HAS BEEN REACHED,
000957: 10,3145           70427                           MASK     OLDATAGD                              #  THE BIT CORRESPONDING TO THE DATA GOOD
000958: 10,3146           60001                           AD       L                                     #  WHICH FAILED TO APPEAR IS IN ITEMP1 AND
000959: 10,3147           56427                           XCH      OLDATAGD                              #  CAN BE USED TO SET RADMODES WHICH VIA
000960: 10,3150           70065                           MASK     ITEMP1                                #  SETTRKF SETS THE TRACKER FAIL LAMP.
000961: 10,3151           60001                           AD       L
000962: 10,3152           10000                           CCS      A                                     #  SHOULD BOTH BE ZERO.
000963: 10,3153           03002                           TC       RESAMPLE
000964: 10,3154           52071                           DXCH     ITEMP3                                #  IF DATA GOOD BEFORE AND AFTER, ADD TO
000965: 10,3155           20416                           DAS      SAMPLSUM                              #  ACCUMULATION.
000966: 10,3156           00002                           TC       Q
000967:
000968: 10,3157           40065        DATAFAIL           CS       ITEMP1                                #  IN THE ABOVE CASE, SET RADMODES BIT
000969: 10,3160           70413                           MASK     RADMODES                              #  SHOWING SOME RADAR DATA FAILED.
000970: 10,3161           60065                           AD       ITEMP1
000971: 10,3162           54413                           TS       RADMODES
000972:
000973: 10,3163           52071                           DXCH     ITEMP3                                #  IF WE HAVE BEEN UNABLE TO GATHER N
000974: 10,3164           52416                           DXCH     SAMPLSUM                              #  SAMPLES, USE LAST ONE ONLY.
000975:
000976: 10,3165           04744                           TC       SETTRKF
000977:
000978: 10,3166           12724                           TCF      NOMORE
000979:
000980: 10,3167           23773        LRRATIO            DEC      4.9977     B-3
000981: 10,3170           47777        LVELBIAS           DEC      -12288     B-14                       #  LANDING RADAR BIAS FOR 153.6 KC.
000982: 10,3171           00001 01150  RDOTBIAS           2DEC     17000      B-28                       #  BIAS COUNT FOR RR RANGE RATE
000983:
000984:                                                                                                  #  THIS ROUTINE CHANGES THE LR POSITION, AND CHECKS THAT IT GOT THERE.
000985:
000986: 10,3173           00004        LRPOS2             INHINT
000987:
000988: 10,3174           47645                           CS       BIT6                                  #  DESIRED LR POSITION IS NOW 2.
000989: 10,3175           70413                           MASK     RADMODES
000990: 10,3176           67645                           AD       BIT6
000991: 10,3177           54413                           TS       RADMODES
000992:
000993: 10,3200           37644                           CAF      BIT7
000994: 10,3201           00006                           EXTEND
000995: 10,3202           02033                           RAND     33                                    #  SEE IF ALREADY THERE.
000996: 10,3203           00006                           EXTEND
000997: 10,3204           13230                           BZF      RADNOOP
000998:
000999: 10,3205           37636                           CAF      BIT13
001000: 10,3206           00006                           EXTEND
001001: 10,3207           05012                           WOR      12                                    #  COMMAND TO POSITION 2
001002:
001003: 10,3210           33361                           CAF      6SECS                                 #  START SCANNING FOR INBIT AFTER 7 SECS.
001004: 10,3211           04451                           TC       WAITLIST
001005: 10,3212           03357 20003                     2CADR    LRPOSCAN
001006:
001007: 10,3214           02301                           TC       ROADBACK
001008:
001009: 10,3215           03342        LRPOSNXT           TC       LRPSNXT1
001010: 10,3216           00006                           EXTEND
001011: 10,3217           13235                           BZF      LSTLRDT1                              #  IF THERE, WAIT FINAL SECOND FOR BOUNCE.
001012:
001013: 10,3220           10414                           CCS      SAMPLIM                               #  SEE IF MAX TIME UP.
001014: 10,3221           13215                           TCF      LRPOSNXT
001015:
001016: 10,3222           47636                           CS       BIT13                                 #  IF TIME UP, DISABLE COMMAND AND ALARM.
001017: 10,3223           00006                           EXTEND
001018: 10,3224           03012                           WAND     12
001019:
001020: 10,3225           05315                           TC       ALARM                                 #  LR ANTENNA DIDNT MAKE IT.
001021: 10,3226           00523                           OCT      523
001022: 10,3227           13252                           TCF      RDBADEND
001023:
001024: 10,3230           37652        RADNOOP            CAF      ONE                                   #  NO FURTHER ACTION REQUESTED.
001025: 10,3231           04451                           TC       WAITLIST
001026: 10,3232           03245 20003                     2CADR    RGOODEND
001027:
001028: 10,3234           02301                           TC       ROADBACK
001029:
001030: 10,3235           03351        LSTLRDT1           TC       LASTLRDT
001031:
001032:                                                                                                  #           SEQUENCES TO TERMINATE RR OPERATIONS.
001033:
001034: 10,3236           37644        ENDRADAR           CAF      BIT7                                  #  PROLOG TO CHECK RR CDU FAIL BEFORE END.
001035: 10,3237           70413                           MASK     RADMODES
001036: 10,3240           10000                           CCS      A
001037: 10,3241           13245                           TCF      RGOODEND
001038: 10,3242           13252                           TCF      RDBADEND
001039: 10,3243           47657                 -2        CS       ZERO                                  #  RGOODEND WHEN NOT UNDER WAITLIST CONTROL
001040: 10,3244           55071                           TS       RUPTAGN
001041:
001042: 10,3245           37651        RGOODEND           CAF      TWO
001043: 10,3246           04102                           TC       POSTJUMP
001044: 10,3247           26667                           CADR     GOODEND
001045:
001046: 10,3250           47657                 -2        CS       ZERO                                  #  RDBADEND WHEN NOT UNDER WAITLIST.
001047: 10,3251           55071                           TS       RUPTAGN
001048: 10,3252           37651        RDBADEND           CAF      TWO
001049: 10,3253           04102                           TC       POSTJUMP
001050: 10,3254           26664                           CADR     BADEND
001051:
001052: 10,3255     6165               BIN3               EQUALS   THREE
001053: 10,3255                        ENDRMODS           EQUALS

End of include-file RADAR_LEAD-IN_ROUTINES.agc.  Parent file is MAIN.agc


