
Source Code


000002:                                                                                                  ## Copyright:   Public domain.
000003:                                                                                                  ## Filename:    RADAR_TEST_PROGRAMS.agc
000004:                                                                                                  ## Purpose:     A section of Aurora 88.
000005:                                                                                                  ##              It is part of the reconstructed source code for the final
000006:                                                                                                  ##              release of the Lunar Module system test software. No original
000007:                                                                                                  ##              listings of this program are available; instead, this file
000008:                                                                                                  ##              was created via disassembly of dumps of Aurora 88 core rope
000009:                                                                                                  ##              modules and comparison with other AGC programs.
000010:                                                                                                  ## Assembler:   yaYUL
000011:                                                                                                  ## Contact:     Ron Burkey <info@sandroid.org>.
000012:                                                                                                  ## Website:     www.ibiblio.org/apollo/index.html
000013:                                                                                                  ## Mod history: 2023-06-30 MAS  Created from Aurora 12.
000014:                                                                                                  ##              2023-07-12 MAS  Updated for Aurora 88.
000015:
000016:
000017: 10,3255                                           SETLOC   ENDRMODS
000018: 10,3255  E7,1434                                  EBANK=   RSTKLOC
000019:
000020:                                                                                                  #  RADAR SAMPLING LOOP.
000021:
000022: 10,3255           11435        RADSAMP            CCS      RSAMPDT                               #  TIMES NORMAL ONCE-PER-SECOND SAMPLING.
000023: 10,3256           13260                           TCF      +2
000024:
000025: 10,3257           14505                           TCF      TASKOVER                              #  +0 INSERTED MANUALLY TERMINATES TEST.
000026:
000027: 10,3260           04451                           TC       WAITLIST
000028: 10,3261           03255 20007                     2CADR    RADSAMP
000029:
000030: 10,3263           34436                           CAF      PRIO25
000031: 10,3264           04276                           TC       NOVAC
000032: 10,3265           03275 20007                     2CADR    DORSAMP
000033:
000034: 10,3267           33326                           CAF      1/6                                   #  FOR CYCLIC SAMPLING, RTSTDEX =
000035: 10,3270           00006                           EXTEND                                         #  RTSTLOC/6 + RTSTBASE.
000036: 10,3271           71434                           MP       RTSTLOC
000037: 10,3272           61433                           AD       RTSTBASE                              #  0 FOR RR, 2 FOR LR.
000038: 10,3273           55431                           TS       RTSTDEX
000039:
000040: 10,3274           14505                           TCF      TASKOVER
000041:
000042:                                                                                                  #  DO THE ACTUAL RADAR SAMPLE.
000043:
000044: 10,3275           03327        DORSAMP            TC       VARADAR                               #  SELECTS VARIABLE RADAR CHANNEL.
000045: 10,3276           04063                           TC       BANKCALL
000046: 10,3277           26712                           CADR     RADSTALL
000047: 10,3300           25436                           INCR     RFAILCNT                              #  ADVANCE FAIL COUNTER BUT ACCEPT BAD DATA
000048:
000049: 10,3301           00004        DORSAMP2           INHINT                                         #  YES - UPDATE TM BUFFER.
000050: 10,3302           52416                           DXCH     SAMPLSUM
000051: 10,3303           51434                           INDEX    RSTKLOC
000052: 10,3304           53440                           DXCH     RSTACK
000053:
000054: 10,3305           52420                           DXCH     OPTYHOLD
000055: 10,3306           51434                           INDEX    RSTKLOC
000056: 10,3307           53442                           DXCH     RSTACK     +2
000057:
000058: 10,3310           52422                           DXCH     TIMEHOLD
000059: 10,3311           51434                           INDEX    RSTKLOC
000060: 10,3312           53444                           DXCH     RSTACK     +4
000061:
000062: 10,3313           41434                           CS       RTSTLOC                               #  CYCLE RTSTLOC.
000063: 10,3314           61432                           AD       RTSTMAX
000064: 10,3315           00006                           EXTEND
000065: 10,3316           13321                           BZF      +3
000066: 10,3317           31434                           CA       RSTKLOC
000067: 10,3320           66162                           AD       SIX
000068: 10,3321           55434                           TS       RSTKLOC
000069:
000070: 10,3322           11435                           CCS      RSAMPDT                               #  SEE IF TIME TO RE-SAMPLE.
000071: 10,3323           14353                           TCF      ENDOFJOB                              #  NO - WAIT FOR T3 (REGULAR SAMPLING).
000072:
000073: 10,3324           14353                           TCF      ENDOFJOB                              #  TEST TERMINATED.
000074: 10,3325           13275                           TCF      DORSAMP                               #  JUMP RIGHT BACK AND GET ANOTHER SAMPLE.
000075:
000076: 10,3326           05341        1/6                DEC      .17
000077:
000078:                                                                                                  #  VARIABLE RADAR DATA CALLER FOR ONE MEASUREMENT ONLY.
000079:
000080: 10,3327           37652        VARADAR            CAF      ONE                                   #  WILL BE SENT TO RADAR ROUTINE IN A BY
000081: 10,3330           54117                           TS       BUF2                                  #  SWCALL.
000082: 10,3331           51431                           INDEX    RTSTDEX
000083: 10,3332           33334                           CAF      RDRLOCS
000084: 10,3333           14067                           TCF      SWCALL                                #  NOT TOUCHING Q.
000085:
000086: 10,3334           20647        RDRLOCS            CADR     RRRANGE                               #  =0
000087: 10,3335           20645                           CADR     RRRDOT                                #  =1
000088: 10,3336           20643                           CADR     LRVELX                                #  =2
000089: 10,3337           20641                           CADR     LRVELY                                #  =3
000090: 10,3340           20637                           CADR     LRVELZ                                #  =4
000091: 10,3341           20635                           CADR     LRALT                                 #  =5
000092:
000093:


000097:
000098: 10,3342           54414        LRPSNXT1           TS       SAMPLIM
000099: 10,3343           04467                           TC       FIXDELAY                              #  SCAN ONCE PER SECOND 15 TIMES MAX AFTER
000100: 10,3344           00144                           DEC      100        B-14                       #  INITIAL DELAY OF 7 SECONDS.
000101:
000102: 10,3345           37644                           CAF      BIT7
000103: 10,3346           00006                           EXTEND
000104: 10,3347           02033                           RAND     33
000105: 10,3350           03216                           TC       LRPOSNXT   +1
000106:
000107: 10,3351           04467        LASTLRDT           TC       FIXDELAY                              #  WAIT ONE SECOND AFTER RECEIPT OF INBIT
000108: 10,3352           00144                           DEC      100        B-14                       #  TO WAIT FOR ANTENNA BOUNCE TO DIE OUT.
000109:
000110: 10,3353           47636                           CS       BIT13                                 #  REMOVE COMMAND
000111: 10,3354           00006                           EXTEND
000112: 10,3355           03012                           WAND     12
000113: 10,3356           13245                           TCF      RGOODEND
000114:
000115: 10,3357           37646        LRPOSCAN           CAF      BIT5                                  #  SET UP FOR 15 SAMPLES.
000116: 10,3360           13215                           TCF      LRPOSNXT
000117:
000118: 10,3361           01130        6SECS              DEC      600        B-14
000119:
000120: 10,3362                        ENDRTSTS           EQUALS

End of include-file RADAR_TEST_PROGRAMS.agc.  Parent file is MAIN.agc


