
Source Code


000002:                                                                                                  ## Copyright:   Public domain.
000003:                                                                                                  ## Filename:    SINGLE_PRECISION_SUBROUTINES.agc
000004:                                                                                                  ## Purpose:     A section of Aurora 88.
000005:                                                                                                  ##              It is part of the reconstructed source code for the final
000006:                                                                                                  ##              release of the Lunar Module system test software. No original
000007:                                                                                                  ##              listings of this program are available; instead, this file
000008:                                                                                                  ##              was created via disassembly of dumps of Aurora 88 core rope
000009:                                                                                                  ##              modules and comparison with other AGC programs.
000010:                                                                                                  ## Assembler:   yaYUL
000011:                                                                                                  ## Contact:     Ron Burkey <info@sandroid.org>.
000012:                                                                                                  ## Website:     www.ibiblio.org/apollo/index.html
000013:                                                                                                  ## Mod history: 2023-06-30 MAS  Created from Aurora 12.
000014:                                                                                                  ##              2023-07-12 MAS  Updated for Aurora 88.
000015:
000016:
000017:    4150                                           SETLOC   ENDIBNKF
000018:
000019:                                                                                                  #  SINGLE PRECISION SINE AND COSINE
000020:
000021:    4150           67635        SPCOS              AD       HALF                                  #  ARGUMENTS SCALED AT PI
000022:    4151           55106        SPSIN              TS       TEMK
000023:    4152           14154                           TCF      SPT
000024:    4153           41106                           CS       TEMK
000025:    4154           60000        SPT                DOUBLE
000026:    4155           55106                           TS       TEMK
000027:    4156           14171                           TCF      POLLEY
000028:    4157           57106                           XCH      TEMK
000029:    4160           51106                           INDEX    TEMK
000030:    4161           67633                           AD       LIMITS
000031:    4162           40000                           COM
000032:    4163           61106                           AD       TEMK
000033:    4164           55106                           TS       TEMK
000034:    4165           14171                           TCF      POLLEY
000035:    4166           50000                           INDEX    A
000036:    4167           37634                           CA       LIMITS     +1
000037:    4170           00002                           TC       Q
000038:    4171           00006        POLLEY             EXTEND
000039:    4172           71106                           MP       TEMK
000040:    4173           55107                           TS       SQ
000041:    4174           00006                           EXTEND
000042:    4175           74207                           MP       C5/2
000043:    4176           64206                           AD       C3/2
000044:    4177           00006                           EXTEND
000045:    4200           71107                           MP       SQ
000046:    4201           64205                           AD       C1/2
000047:    4202           00006                           EXTEND
000048:    4203           71106                           MP       TEMK
000049:    4204           00002                           TC       Q                                     #  RESULT SCALED AT 1
000050:    4205           31103        C1/2               DEC      .7853134
000051:    4206           65552        C3/2               DEC      -.3216146
000052:    4207           01124        C5/2               DEC      .0363551
000053:                                                                                                  #  ENTER WITH ARGUMENT IN A, EXIT WITH ROOT IN A.  IF GIVEN A NEGATIVE ARGUMENT, THE RETURN SKIPS WITH CCS RESULT.
000054:                                                                                                  #  MINUS ZERO RETURNS LIKE PLUS ZERO.
000055:                                                                                                  #  MAXIMUM ERROR IN ANSWER IS NO GREATER THAN 2 BITS.
000056:                                                                                                  #  INTERRUPT PROGRAMS USING SPROOT MUST SAVE AND RESTORE SR.
000057:
000058:
000059:
000060:    4210           55110        SPROOT             TS       SQRARG                                #  ENTER WITH C(A) = Y
000061:    4211           10000                           CCS      A
000062:    4212           14216                           TCF      POSARG                                #  IF PNZ, CONTINUE
000063:    4213           00002                           TC       Q                                     #  RETURN WITH 0 FOR +0
000064:    4214           24002                           INCR     Q
000065:    4215           00002                           TC       Q                                     #  RETURN WITH 0 FOR -0
000066:
000067:    4216           00006        POSARG             EXTEND
000068:    4217           23107                           QXCH     ROOTRET                               #  WILL BE CALLING SPROOT1
000069:    4220           64275                           AD       63/64+1                               #  B(A) = Y - 1
000070:    4221           54000                           OVSK
000071:    4222           14264                           TCF      SPROOT2
000072:    4223           57110                           XCH      SQRARG                                #  ARG JUGGLING
000073:
000074:    4224           55110        SPROOT3            TS       SQRARG
000075:    4225           54021                           TS       SR                                    #  C(A) = Y
000076:    4226           56021                           XCH      SR                                    #  (LOSE 1 BIT)
000077:    4227           55106                           TS       HALFY                                 #  HALFY = Y/2
000078:    4230           64273                           AD       -1/8                                  #  FORM Y/2 - 1/8
000079:    4231           10000                           CCS      A                                     #  TEST FOR FIRST GUESS
000080:    4232           64274                           AD       5/8+1                                 #  Y .G. 1/4, X = Y/2 + 1/2
000081:    4233           04240                           TC       HIGUESS                               #  +0 IMPOSSIBLE FROM ADDITION
000082:    4234           14235                           NOOP                                           #  Y .LE. 1/4, X/2 = Y + 1/16
000083:    4235           37640                           CAF      BIT11                                 #  1/16
000084:    4236           61110                           AD       SQRARG                                #  SQRARG = Y
000085:    4237           60000                           DOUBLE                                         #  X FROM X/2
000086:    4240           04253        HIGUESS            TC       SPROOT1
000087:    4241           04253                           TC       SPROOT1                               #  ITERATE TWICE
000088:    4242           57107                           XCH      ROOTRET                               #  SAVE ANSWER AND GET Q
000089:    4243           10000                           CCS      A
000090:    4244           57107                           XCH      ROOTRET                               #  NO SHIFT NEEDED
000091:    4245           04251                           TC       ROOTBCK
000092:    4246           57107                           XCH      ROOTRET                               #  Q NEG, SHIFT RIGHT THREE
000093:    4247           00006                           EXTEND
000094:    4250           77637                           MP       BIT12                                 #  EXP -3
000095:    4251           51107        ROOTBCK            INDEX    ROOTRET                               #  ROOTRET = Q - 1
000096:    4252           00001                           TC       1                                     #  RETURN, C(A) = SQRT(Y)
000097:
000098:    4253           56021        SPROOT1            XCH      SR                                    #  SR = X/2
000099:    4254           41106                           CS       HALFY                                 #  NEWTON ITER  X = X/2 + (Y/2 / X/2) / 2
000100:    4255           22007                           ZL
000101:    4256           00006                           EXTEND
000102:    4257           10021                           DV       SR                                    #  C(SR) = X/2 DV DOES NOT EDIT
000103:    4260           56021                           XCH      SR
000104:    4261           00006                           EXTEND
000105:    4262           60021                           SU       SR
000106:    4263           00002                           TC       Q                                     #  C(A) = X (NEXT)
000107:
000108:    4264           41107        SPROOT2            CS       ROOTRET                               #  SET RETURN Q NEG, AS FLAG
000109:    4265           55107                           TS       ROOTRET
000110:    4266           37644                           CAF      BIT7                                  #  SHIFT FOR SIGNIFCANCE
000111:    4267           00006                           EXTEND
000112:    4270           71110                           MP       SQRARG
000113:    4271           30001                           CA       L                                     #  B(A) = 0
000114:    4272           04224                           TC       SPROOT3
000115:
000116:    4273           73777        -1/8               OCTAL    73777
000117:    4274           24001        5/8+1              OCTAL    24001
000118:    4275           37401        63/64+1            OCTAL    37401
000119:
000120:
000121:
000122:    4276                        ENDSUBSF           EQUALS

End of include-file SINGLE_PRECISION_SUBROUTINES.agc.  Parent file is MAIN.agc


