
Source Code


000002:                                                                                                  ## Copyright:   Public domain.
000003:                                                                                                  ## Filename:    SUM_CHECK_END_OF_BANK_MARKERS.agc
000004:                                                                                                  ## Purpose:     A section of Aurora 88.
000005:                                                                                                  ##              It is part of the reconstructed source code for the final
000006:                                                                                                  ##              release of the Lunar Module system test software. No original
000007:                                                                                                  ##              listings of this program are available; instead, this file
000008:                                                                                                  ##              was created via disassembly of dumps of Aurora 88 core rope
000009:                                                                                                  ##              modules and comparison with other AGC programs.
000010:                                                                                                  ## Assembler:   yaYUL
000011:                                                                                                  ## Contact:     Ron Burkey <info@sandroid.org>.
000012:                                                                                                  ## Website:     www.ibiblio.org/apollo/index.html
000013:                                                                                                  ## Mod history: 2023-06-30 MAS  Created from Aurora 12.
000014:                                                                                                  ##              2023-07-12 MAS  Updated for Aurora 88.
000015:
000016:
000017:    5414                                           SETLOC   ENDIMUF
000018:    5414           05414                           TC       -0
000019:    5415           05415                           TC       -0
000020:
000021:    7672                                           SETLOC   ENDINTF
000022:    7672           07672                           TC       -0
000023:    7673           07673                           TC       -0
000024:
000025: 00,3657                                           SETLOC   ENDINTS0
000026: 00,3657           03657                           TC       -0
000027: 00,3660           03660                           TC       -0
000028:
000029: 01,3145                                           SETLOC   ENDSLFS2
000030: 01,3145           03145                           TC       -0
000031: 01,3146           03146                           TC       -0
000032:
000033: 04,3540                                           SETLOC   ENDPINS1
000034: 04,3540           03540                           TC       -0
000035: 04,3541           03541                           TC       -0
000036:
000037: 05,3524                                           SETLOC   ENDPINS2
000038: 05,3524           03524                           TC       -0
000039: 05,3525           03525                           TC       -0
000040:
000041: 06,3311                                           SETLOC   ENDLOTTS
000042: 06,3311           03311                           TC       -0
000043: 06,3312           03312                           TC       -0
000044:
000045: 07,3662                                           SETLOC   ENDLOTSS
000046: 07,3662           03662                           TC       -0
000047: 07,3663           03663                           TC       -0
000048:
000049: 10,3362                                           SETLOC   ENDRTSTS
000050: 10,3362           03362                           TC       -0
000051: 10,3363           03363                           TC       -0
000052:
000053: 11,3377                                           SETLOC   ENDCMS
000054: 11,3377           03377                           TC       -0
000055: 11,3400           03400                           TC       -0
000056:
000057: 12,3761                                           SETLOC   ENDKRURS
000058: 12,3761           03761                           TC       -0
000059: 12,3762           03762                           TC       -0
000060:
000061: 13,3551                                           SETLOC   ENDAMODS
000062: 13,3551           03551                           TC       -0
000063: 13,3552           03552                           TC       -0
000064:
000065: 14,3735                                           SETLOC   ENDIMUS1
000066: 14,3735           03735                           TC       -0
000067: 14,3736           03736                           TC       -0
000068:
000069: 15,3716                                           SETLOC   ENDRTBSS
000070: 15,3716           03716                           TC       -0
000071: 15,3717           03717                           TC       -0
000072:
000073: 16,3437                                           SETLOC   ENDPRELS
000074: 16,3437           03437                           TC       -0
000075: 16,3440           03440                           TC       -0
000076:
000077: 17,3774                                           SETLOC   ENDIMUS2
000078: 17,3774           03774                           TC       -0
000079: 17,3775           03775                           TC       -0
000080:
000081: 20,3774                                           SETLOC   ENDSLFS1
000082: 20,3774           03774                           TC       -0
000083: 20,3775           03775                           TC       -0
000084:
000085: 21,3770                                           SETLOC   ENDIMUS3
000086: 21,3770           03770                           TC       -0
000087: 21,3771           03771                           TC       -0

End of include-file SUM_CHECK_END_OF_BANK_MARKERS.agc.  Parent file is MAIN.agc


