
Source Code


000002:                                                                                                  ## Copyright:   Public domain.
000003:                                                                                                  ## Filename:    T4RUPT_PROGRAM.agc
000004:                                                                                                  ## Purpose:     A section of Aurora 88.
000005:                                                                                                  ##              It is part of the reconstructed source code for the final
000006:                                                                                                  ##              release of the Lunar Module system test software. No original
000007:                                                                                                  ##              listings of this program are available; instead, this file
000008:                                                                                                  ##              was created via disassembly of dumps of Aurora 88 core rope
000009:                                                                                                  ##              modules and comparison with other AGC programs.
000010:                                                                                                  ## Assembler:   yaYUL
000011:                                                                                                  ## Contact:     Ron Burkey <info@sandroid.org>.
000012:                                                                                                  ## Website:     www.ibiblio.org/apollo/index.html
000013:                                                                                                  ## Mod history: 2023-06-30 MAS  Created from Aurora 12.
000014:                                                                                                  ##              2023-07-12 MAS  Updated for Aurora 88.
000015:
000016:    4616                                           SETLOC   ENDPHMNF
000017:
000018:    4616           00006        T4RUPT             EXTEND                                         #  ZERO OUT0 EVERY T4RUPT.
000019:    4617           01010                           WRITE    OUT0                                  #  (COMES HERE WITH +0 IN A)
000020:
000021:    4620           50347                           INDEX    T4LOC                                 #  NORMALLY TO NORMT4, BUT TO LMPRESET OR
000022:    4621           10000                           TCF      0                                     #  DSKYRSET AFTER OUT0 COMMAND.
000023:
000024:    4622           10350        NORMT4             CCS      DSRUPTSW                              #  GOES 7(-1)0.
000025:    4623           14625                           TCF      +2
000026:    4624           37656                           CAF      SEVEN
000027:    4625           54350                           TS       DSRUPTSW
000028:
000029:    4626           34023                           CAF      T4RPTBB                               #  OFF TO SWITCHED BANK
000030:    4627           56006                           XCH      BBANK
000031:    4630           12474                           TCF      T4RUPTA
000032:
000033:    4631           34640        LMPRESET           CAF      90MRUPT                               #  30 MS ON / 90 MS OFF.
000034:    4632           14634                           TCF      +2
000035:
000036:    4633           34641        DSKYRSET           CAF      100MRUPT                              #  20 MS ON / 100 MS OFF.
000037:    4634           54027                           TS       TIME4
000038:    4635           34642                           CAF      LNORMT4
000039:    4636           54347                           TS       T4LOC
000040:    4637           14515                           TCF      NOQBRSM
000041:
000042:    4640           37767        90MRUPT            DEC      16375      B-14
000043:    4641           37766        100MRUPT           DEC      16374      B-14
000044:    4642           04622        LNORMT4            ADRES    NORMT4
000045:    4643           74000        74K                OCT      74000
000046:
000047:                                                                                                  #  RELTAB IS A PACKED TABLE. RELAYWORD CODE IN UPPER 4 BITS, RELAY CODE
000048:                                                                                                  #  IN LOWER 5 BITS.
000049:
000050:    4644           04025        RELTAB             OCT      04025
000051:    4645           10003                           OCT      10003
000052:    4646           14031                           OCT      14031
000053:    4647           20033                           OCT      20033
000054:    4650           24017                           OCT      24017
000055:    4651           30036                           OCT      30036
000056:    4652           34034                           OCT      34034
000057:    4653           40023                           OCT      40023
000058:    4654           44035                           OCT      44035
000059:    4655           50037                           OCT      50037
000060:    4656           54000                           OCT      54000
000061:    4657           60000        RELTAB11           OCT      60000
000062:    4660                        ENDT4FF            EQUALS
000063:
000064:                                                                                                  #           SWITCHED-BANK PORTION.
000065:
000066: 12,2474                                           SETLOC   ENDFRESS
000067:
000068: 12,2474           54016        T4RUPTA            TS       BANKRUPT
000069: 12,2475           00006                           EXTEND
000070: 12,2476           22012                           QXCH     QRUPT
000071:
000072: 12,2477           10366        LMPOUT             CCS      LMPCMD                                #  SEE IF LMP COMMAND TO BE SENT. IF SO,
000073: 12,2500           12514                           TCF      CDRVE                                 #  BIT 15 = 1 AND (UP TO) BITS 1 - 11
000074: 12,2501           12514                           TCF      CDRVE                                 #  CONTAIN THE COMMAND.
000075:
000076: 12,2502           35136                           CAF      LOW11
000077: 12,2503           70366                           MASK     LMPCMD                                #  LEAVE COMMAND PORTION INTACT.
000078: 12,2504           54366                           TS       LMPCMD
000079: 12,2505           64643                           AD       74K
000080: 12,2506           00006                           EXTEND
000081: 12,2507           01010                           WRITE    OUT0
000082:
000083: 12,2510           32605                           CAF      LLMPRS
000084: 12,2511           54347                           TS       T4LOC
000085: 12,2512           32606                           CAF      30MRUPT
000086: 12,2513           12571                           TCF      SETTIME4
000087:
000088: 12,2514           10322        CDRVE              CCS      DSPTAB     +11D
000089: 12,2515           02524                           TC       DSPOUT
000090: 12,2516           02524                           TC       DSPOUT
000091:
000092: 12,2517           56322                           XCH      DSPTAB     +11D
000093: 12,2520           75136                           MASK     LOW11
000094: 12,2521           54322                           TS       DSPTAB     +11D
000095: 12,2522           64657                           AD       RELTAB11
000096: 12,2523           02564                           TC       DSPLAYC
000097:
000098:                                                                                                  #  DSPOUT PROGRAM. PUTS OUT DISPLAYS.
000099:
000100: 12,2524           10303        DSPOUT             CCS      NOUT                                  #  DRIVE DISPLAY SYSTEM RELAYS.
000101: 12,2525           12530                           TCF      +3
000102:
000103: 12,2526           32545        NODSPOUT           CAF      120MRUPT                              #  SET FOR RUPT IN 120 MS IF NO RELAYS.
000104: 12,2527           12571                           TCF      SETTIME4
000105:
000106: 12,2530           54303                           TS       NOUT
000107: 12,2531           47657                           CS       ZERO
000108: 12,2532           54077                           TS       DSRUPTEM                              #  SET TO -0 FOR 1ST PASS THRU DSPTAB
000109: 12,2533           56341                           XCH      DSPCNT
000110: 12,2534           67660                           AD       NEG0                                  #  TO PREVENT +0
000111: 12,2535           54341                           TS       DSPCNT
000112: 12,2536           50341        DSPSCAN            INDEX    DSPCNT
000113: 12,2537           10307                           CCS      DSPTAB
000114: 12,2540           10341                           CCS      DSPCNT                                #  IF DSPTAB ENTRY +, SKIP
000115: 12,2541           02534                           TC       DSPSCAN    -2                         #  IF DSPCNT +, AGAIN
000116: 12,2542           02553                           TC       DSPLAY                                #  IF DSPTAB ENTRY -, DISPLAY
000117: 12,2543           00012        TABLNTH            OCT      12                                    #  DEC 10   LENGTH OF DSPTAB
000118: 12,2544           10077                           CCS      DSRUPTEM                              #  IF DSRUPTEM=+0,2ND PASS THRU DSPTAB
000119: 12,2545           37764        120MRUPT           DEC      16372      B-14                       #  (DSPCNT = 0). +0 INTO NOUT.
000120: 12,2546           54303                           TS       NOUT
000121: 12,2547           12526                           TCF      NODSPOUT
000122: 12,2550           54077                           TS       DSRUPTEM                              #  IF DSRUPTEM=-0,1ST PASS THRU DSPTAB
000123: 12,2551           32543                           CAF      TABLNTH                               #  (DSPCNT=0). +0 INTO DSRUPTEM. PASS AGAIN
000124: 12,2552           02535                           TC       DSPSCAN    -1
000125:
000126: 12,2553           67652        DSPLAY             AD       ONE
000127: 12,2554           50341                           INDEX    DSPCNT
000128: 12,2555           54307                           TS       DSPTAB                                #  REPLACE POSITIVELY
000129: 12,2556           75136                           MASK     LOW11                                 #  REMOVE BITS 12 TO 15
000130: 12,2557           54077                           TS       DSRUPTEM
000131: 12,2560           35130                           CAF      HI5
000132: 12,2561           50341                           INDEX    DSPCNT
000133: 12,2562           74644                           MASK     RELTAB                                #  PICK UP BITS 12 TO 15 OF RELTAB ENTRY
000134: 12,2563           60077                           AD       DSRUPTEM
000135: 12,2564           00006        DSPLAYC            EXTEND
000136: 12,2565           01010                           WRITE    OUT0
000137:
000138: 12,2566           32604                           CAF      LDSKYRS
000139: 12,2567           54347                           TS       T4LOC
000140: 12,2570           32607                           CAF      20MRUPT
000141:
000142: 12,2571           54027        SETTIME4           TS       TIME4
000143:                                                                                                  #  JUMP TO APPROPRIATE ONCE-PER SECOND (.96 SEC ACTUALLY) ACTIVITY
000144:
000145: 12,2572           50350        T4JUMP             INDEX    DSRUPTSW
000146: 12,2573           12574                           TCF      +1
000147:
000148: 12,2574           02610                           TC       ALTOUT
000149:
000150: 12,2575           13463                           TCF      RRAUTCHK
000151: 12,2576           12743                           TCF      IMUMON
000152: 12,2577           14511                           TCF      RESUME
000153: 12,2600           02655                           TC       ALTROUT
000154: 12,2601           13463                           TCF      RRAUTCHK
000155: 12,2602           12743                           TCF      IMUMON
000156: 12,2603           14511                           TCF      RESUME
000157: 12,2604           04633        LDSKYRS            ADRES    DSKYRSET
000158: 12,2605           04631        LLMPRS             ADRES    LMPRESET
000159:
000160: 12,2606           37775        30MRUPT            DEC      16381      B-14
000161: 12,2607           37776        20MRUPT            DEC      16382      B-14
000162:                                                                                                  #  THIS ROUTINE SERVICES THE METER OUTPUTS.
000163:
000164:
000165:                                                                                                  #  DIDFLG INDICATES THE STATE OF THE PROGRAM..............
000166:                                                                                                  #  IF GREATER THAN ZERO, THEN UNABLE TO DISPLAY DATA
000167:                                                                                                  #  IF EQUAL TO ZERO, THEN THE PROGRAM IS IN USE
000168:                                                                                                  #  IF LESS THAN ZERO, THEN THE PROGRAM IS ABLE TO BE USED............
000169:
000170: 12,2610           02663        ALTOUT             TC       DISINDAT
000171: 12,2611           47651                           CS       BIT2
000172: 12,2612           00006                           EXTEND
000173: 12,2613           03014                           WAND     14                                    #  SET UP OUTPUT FOR ALTITUDE
000174: 12,2614           10352                           CCS      ALT                                   #  -1 IF OLD DATA TO BE EXTRAPOLATED.
000175: 12,2615           12621                           TCF      +4                                    #  NEW DATA.
000176: 12,2616           12621                           TCF      +3
000177: 12,2617           12625                           TCF      OLDDATA
000178:
000179: 12,2620           54352                           TS       ALT                                   #  CHANGE -0 IN ALT TO +0.
000180: 12,2621           47652                           CS       ONE                                   #  RESET ALTSAVE.
000181: 12,2622           52353                           DXCH     ALT
000182: 12,2623           52365        ZDATA2             DXCH     ALTSAVE
000183: 12,2624           12645                           TCF      NEWDATA
000184:
000185: 12,2625           30354        OLDDATA            CA       ALTRATE                               #  USE ALTRATE TO EXTRAPOLATE.
000186: 12,2626           00006                           EXTEND
000187: 12,2627           72740                           MP       ARTOA                                 #  RATE APPLIES FOR .96 SEC.
000188: 12,2630           60365                           AD       ALTSAVE    +1
000189: 12,2631           54365                           TS       ALTSAVE    +1                         #  AND MAYBE SKIP.
000190: 12,2632           37657                           CAF      ZERO
000191: 12,2633           26364                           ADS      ALTSAVE
000192:
000193: 12,2634           37632                           CAF      POSMAX                                #  FORCE SIGN AGREEMENT ASSUMING ALTSAVE IS
000194: 12,2635           67652                           AD       ONE                                   #  NOT NEGATIVE. IF IT IS, THE FINAL TS
000195: 12,2636           60365                           AD       ALTSAVE    +1                         #  WILL NOT SKIP AND WE CAN SET ALTSAVE TO
000196: 12,2637           54365                           TS       ALTSAVE    +1                         #  ZERO IN THAT CASE.
000197: 12,2640           37657                           CAF      ZERO
000198: 12,2641           67632                           AD       POSMAX
000199: 12,2642           60364                           AD       ALTSAVE
000200: 12,2643           54364                           TS       ALTSAVE
000201: 12,2644           12735                           TCF      ZERODATA                              #  ALTSAVE NEGATIVE - SET TO ZERO.
000202:
000203: 12,2645           10364        NEWDATA            CCS      ALTSAVE                               #  MAKE UP 15 BIT UNSIGNED OUTPUT.
000204: 12,2646           37634                           CAF      BIT15                                 #  MAJOR PART +1 OR +0.
000205: 12,2647           60365                           AD       ALTSAVE    +1
000206: 12,2650           54060        METEROUT           TS       ALTM
000207: 12,2651           32741                           CAF      BITSET
000208: 12,2652           00006                           EXTEND
000209: 12,2653           05014                           WOR      14
000210: 12,2654           12734                           TCF      DONEDID
000211: 12,2655           02663        ALTROUT            TC       DISINDAT
000212: 12,2656           37651                           CAF      BIT2
000213: 12,2657           00006                           EXTEND
000214: 12,2660           05014                           WOR      14                                    #  SET UP OUTPUT FOR ALT. RATE
000215: 12,2661           30354                           CA       ALTRATE
000216: 12,2662           12650                           TCF      METEROUT
000217:
000218: 12,2663           10351        DISINDAT           CCS      DIDFLG
000219: 12,2664           12734                           TCF      DONEDID
000220: 12,2665           12666                           NOOP
000221: 12,2666           37645                           CAF      BIT6
000222: 12,2667           00006                           EXTEND
000223: 12,2670           02030                           RAND     30                                    #  CHECK DISPLAY INERTIAL DATA BIT
000224: 12,2671           10000                           CCS      A
000225: 12,2672           12731                           TCF      ALLDONE
000226: 12,2673           10351                           CCS      DIDFLG
000227: 12,2674           12675                           NOOP
000228: 12,2675           12716                           TCF      GOAGN
000229:
000230: 12,2676           37643        FIRSTIME           CAF      BIT8
000231: 12,2677           00006                           EXTEND
000232: 12,2700           05012                           WOR      12                                    #  ENABLE DISPLAY INERTIAL DATA
000233: 12,2701           37657                           CAF      ZERO
000234: 12,2702           54351                           TS       DIDFLG
000235: 12,2703           54363                           TS       LASTXCMD
000236: 12,2704           54362                           TS       LASTYCMD
000237: 12,2705           36162                           CAF      SIX
000238: 12,2706           04451                           TC       WAITLIST
000239: 12,2707           02712 24007                     2CADR    INTLZE
000240:
000241: 12,2711           02734                           TC       DONEDID
000242:
000243: 12,2712           37651        INTLZE             CAF      BIT2
000244: 12,2713           00006                           EXTEND
000245: 12,2714           05012                           WOR      12                                    #  ENABLE RR ERROR COUNTER
000246: 12,2715           04505                           TC       TASKOVER
000247:
000248: 12,2716           40363        GOAGN              CS       LASTXCMD
000249: 12,2717           60360                           AD       FORVEL
000250: 12,2720           54054                           TS       OPTXCMD
000251: 12,2721           30360                           CA       FORVEL
000252: 12,2722           54363                           TS       LASTXCMD
000253: 12,2723           40362                           CS       LASTYCMD
000254: 12,2724           60361                           AD       LATVEL
000255: 12,2725           54053                           TS       OPTYCMD
000256: 12,2726           30361                           CA       LATVEL
000257: 12,2727           54362                           TS       LASTYCMD
000258: 12,2730           00002                           TC       Q
000259:
000260: 12,2731           42742        ALLDONE            CS       DIDRESET                              #  REMOVE DISPLAY INERTIAL DATA AND ECTR.
000261: 12,2732           00006                           EXTEND
000262: 12,2733           03012                           WAND     12                                    #  RESET RR ERROR COUNTER
000263: 12,2734           14511        DONEDID            TCF      RESUME                                #  ** FIX LATER**
000264:
000265: 12,2735           37657        ZERODATA           CAF      ZERO
000266: 12,2736           54001                           TS       L
000267: 12,2737           12623                           TCF      ZDATA2
000268:
000269: 12,2740           06432        ARTOA              DEC      .20469                                #  ALT DUE TO ALTRATE FOR .96 SEC.
000270: 12,2741           06004        BITSET             OCT      6004
000271:
000272: 12,2742           00202        DIDRESET           OCT      202
000273:                                                                                                  #  IMU INBIT MONITOR - ENTERED EVERY 480 MS BY T4RUPT.
000274:
000275: 12,2743           30367        IMUMON             CA       IMODES30                              #  SEE IF THERE HAS BEEN A CHANGE IN THE
000276: 12,2744           00006                           EXTEND                                         #  RELEVENT BITS OF CHAN 30.
000277: 12,2745           06030                           RXOR     30
000278: 12,2746           73435                           MASK     30RDMSK
000279: 12,2747           00006                           EXTEND
000280: 12,2750           13000                           BZF      TNONTEST                              #  NO CHANGE IN STATUS.
000281:
000282: 12,2751           54074                           TS       RUPTREG1                              #  SAVE BITS WHICH HAVE CHANGED.
000283: 12,2752           22367                           LXCH     IMODES30                              #  UPDATE IMODES30.
000284: 12,2753           00006                           EXTEND
000285: 12,2754           06001                           RXOR     L
000286: 12,2755           54367                           TS       IMODES30
000287:
000288: 12,2756           47652                           CS       ONE
000289: 12,2757           56074                           XCH      RUPTREG1
000290: 12,2760           00006                           EXTEND
000291: 12,2761           63230                           BZMF     TLIM                                  #  CHANGE IN IMU TEMP.
000292: 12,2762           12764                           TCF      NXTIFBIT                              #  BEGIN BIT SCAN.
000293:
000294: 12,2763           67652                 -1        AD       ONE                                   #  (RE-ENTERS HERE FROM NXTIFAIL.)
000295: 12,2764           24074        NXTIFBIT           INCR     RUPTREG1                              #  ADVANCE BIT POSITION NUMBER.
000296: 12,2765           60000                 +1        DOUBLE
000297: 12,2766           54000                           TS       A                                     #  SKIP IF OVERFLOW.
000298: 12,2767           12764                           TCF      NXTIFBIT                              #  LOOK FOR BIT.
000299:
000300: 12,2770           56075                           XCH      RUPTREG2                              #  SAVE OVERFLOW-CORRECTED DATA.
000301: 12,2771           50074                           INDEX    RUPTREG1                              #  SELECT NEW VALUE OF THIS BIT.
000302: 12,2772           37635                           CAF      BIT14
000303: 12,2773           70367                           MASK     IMODES30
000304: 12,2774           50074                           INDEX    RUPTREG1
000305: 12,2775           03431                           TC       IFAILJMP
000306:
000307: 12,2776           10075        NXTIFAIL           CCS      RUPTREG2                              #  PROCESS ANY ADDITIONAL CHANGES.
000308: 12,2777           12763                           TCF      NXTIFBIT   -1
000309:
000310: 12,3000           40367        TNONTEST           CS       IMODES30                              #  AFTER PROCESSING ALL CHANGES, SEE IF IT
000311: 12,3001           77644                           MASK     BIT7                                  #  IS TIME TO ACT ON A TURN-ON SEQUENCE.
000312: 12,3002           10000                           CCS      A
000313: 12,3003           13126                           TCF      C33TEST                               #  NO - EXAMINE CHANNEL 33.
000314:
000315: 12,3004           37643                           CAF      BIT8                                  #  SEE IF FIRST SAMPLE OR SECOND.
000316: 12,3005           70367                           MASK     IMODES30
000317: 12,3006           10000                           CCS      A
000318: 12,3007           13013                           TCF      PROCTNON                              #  REACT AFTER SECOND SAMPLE.
000319:
000320: 12,3010           37643                           CAF      BIT8                                  #  IF FIRST SAMPLE, SET BIT TO REACT NEXT
000321: 12,3011           26367                           ADS      IMODES30                              #  TIME.
000322: 12,3012           13126                           TCF      C33TEST
000323:                                                                                                  #  PROCESS IMU TURN-ON REQUESTS AFTER WAITING 1 SAMPLE FOR ALL SIGNALS TO ARRIVE.
000324:
000325: 12,3013           43453        PROCTNON           CS       BITS7&8
000326: 12,3014           70367                           MASK     IMODES30
000327: 12,3015           54367                           TS       IMODES30
000328: 12,3016           77635                           MASK     BIT14                                 #  SEE IF TURN-ON REQUEST.
000329: 12,3017           10000                           CCS      A
000330: 12,3020           13111                           TCF      OPONLY                                #  OPERATE ON ONLY.
000331:
000332: 12,3021           40367                           CS       IMODES30                              #  IF TURN-ON REQUEST, WE SHOULD HAVE IMU
000333: 12,3022           77642                           MASK     BIT9                                  #  OPERATE.
000334: 12,3023           10000                           CCS      A
000335: 12,3024           13027                           TCF      +3
000336:
000337: 12,3025           05315                           TC       ALARM                                 #  ALARM IF NOT.
000338: 12,3026           00213                           OCT      213
000339:
000340: 12,3027           03416                 +3        TC       CAGESUB
000341: 12,3030           33461                           CAF      90SECS
000342: 12,3031           04451                           TC       WAITLIST
000343: 12,3032           03037 24007                     2CADR    ENDTNON
000344: 12,3034           13126                           TCF      C33TEST
000345:
000346: 12,3035           33461        RETNON             CAF      90SECS
000347: 12,3036           04472                           TC       VARDELAY
000348:
000349: 12,3037           47651        ENDTNON            CS       BIT2                                  #  RESET TURN-ON REQUEST FAIL BIT.
000350: 12,3040           70367                           MASK     IMODES30
000351: 12,3041           56367                           XCH      IMODES30
000352: 12,3042           77651                           MASK     BIT2                                  #  IF IT WAS OFF, SEND ISS DELAY COMPLETE.
000353: 12,3043           00006                           EXTEND
000354: 12,3044           13057                           BZF      ENDTNON2
000355:
000356: 12,3045           37635                           CAF      BIT14                                 #  IF IT WAS ON AND TURN-ON REQUEST NOW
000357: 12,3046           70367                           MASK     IMODES30                              #  PRESENT, RE-ENTER 90 SEC DELAY IN WL.
000358: 12,3047           00006                           EXTEND
000359: 12,3050           13035                           BZF      RETNON
000360:
000361: 12,3051           40061                           CS       STATE                                 #  IF IT IS NOT ON NOW, SEE IF A PROG WAS
000362: 12,3052           77643                           MASK     IMUSEFLG                              #  WAITING.
000363: 12,3053           10000                           CCS      A
000364: 12,3054           14505                           TCF      TASKOVER
000365: 12,3055           04102                           TC       POSTJUMP
000366: 12,3056           26641                           CADR     IMUBAD                                #  UNSUCCESSFUL TURN-ON.
000367:
000368: 12,3057           37634        ENDTNON2           CAF      BIT15                                 #  SEND ISS DELAY COMPLETE.
000369: 12,3060           00006                           EXTEND
000370: 12,3061           05012                           WOR      12
000371: 12,3062           03737                           TC       ENDTNON3
000372:
000373: 12,3063           43450        UNZ2B              CS       BITS4&5                               #  REMOVE ZERO AND COARSE.
000374: 12,3064           00006                           EXTEND
000375: 12,3065           03012                           WAND     12
000376:
000377: 12,3066           33722                           CAF      4SECS                                 #  WAIT 4 SECS FOR COUNTERS TO FIND GIMBALS
000378: 12,3067           04472                           TC       VARDELAY
000379:
000380: 12,3070           43451        ISSUP              CS       OCT54                                 #  REMOVE CAGING, IMU FAIL INHIBIT, AND
000381: 12,3071           70367                           MASK     IMODES30                              #  ICDUFAIL INHIBIT FLAGS.
000382: 12,3072           54367                           TS       IMODES30
000383:
000384: 12,3073           03367                           TC       SETISSW                               #  ISS WARNING MIGHT HAVE BEEN INHIBITED.
000385:
000386: 12,3074           47634                           CS       BIT15                                 #  REMOVE IMU DELAY COMPLETE DISCRETE.
000387: 12,3075           00006                           EXTEND
000388: 12,3076           03012                           WAND     12
000389:
000390: 12,3077           37640                           CAF      BIT11                                 #  DONT ENABLE PROG ALARM ON PIP FAIL FOR
000391: 12,3100           04451                           TC       WAITLIST                              #  ANOTHER 10 SECS.
000392: 12,3101           02262 26007                     2CADR    PFAILOK
000393: 12,3103           40061                           CS       STATE                                 #  SEE IF ANYONE IS WAITING FOR THE IMU AT
000394: 12,3104           77643                           MASK     IMUSEFLG                              #  IMUZERO. IF SO, WAKE THEM UP.
000395: 12,3105           10000                           CCS      A
000396: 12,3106           14505                           TCF      TASKOVER
000397:
000398: 12,3107           04102                           TC       POSTJUMP
000399: 12,3110           26633                           CADR     ENDIMU
000400:
000401: 12,3111           03743        OPONLY             TC       OPONLY1
000402: 12,3112           70061                           MASK     STATE
000403: 12,3113           10000                           CCS      A
000404: 12,3114           13126                           TCF      C33TEST
000405:
000406: 12,3115           03756                           TC       CAGESUB2                              #  SET TURNON FLAGS.
000407:
000408: 12,3116           37646                           CAF      BIT5
000409: 12,3117           00006                           EXTEND
000410: 12,3120           05012                           WOR      12
000411:
000412: 12,3121           37645                           CAF      BIT6                                  #  WAIT 300 MS FOR AGS TO RECEIVE SIGNAL.
000413: 12,3122           04451                           TC       WAITLIST
000414: 12,3123           03741 24007                     2CADR    UNZ2
000415: 12,3125           13126                           TCF      C33TEST
000416:                                                                                                  #  MONITOR CHANNEL 33 FLIP-FLOP INPUTS.
000417:
000418: 12,3126           30370        C33TEST            CA       IMODES33                              #  SEE IF RELEVENT CHAN33 BITS HAVE
000419: 12,3127           74430                           MASK     33RDMSK
000420: 12,3130           54001                           TS       L                                     #  CHANGED.
000421: 12,3131           34430                           CAF      33RDMSK
000422: 12,3132           00006                           EXTEND
000423: 12,3133           03033                           WAND     33                                    #  RESETS FLIP-FLOP INPUTS.
000424: 12,3134           00006                           EXTEND
000425: 12,3135           06001                           RXOR     L
000426: 12,3136           00006                           EXTEND
000427: 12,3137           13166                           BZF      GLOCKMON                              #  ON NO CHANGE.
000428:
000429: 12,3140           54074                           TS       RUPTREG1                              #  SAVE BITS WHICH HAVE CHANGED.
000430: 12,3141           22370                           LXCH     IMODES33
000431: 12,3142           00006                           EXTEND
000432: 12,3143           06001                           RXOR     L
000433: 12,3144           54370                           TS       IMODES33                              #  UPDATED IMODES33.
000434:
000435: 12,3145           37657                           CAF      ZERO
000436: 12,3146           56074                           XCH      RUPTREG1
000437: 12,3147           60000                           DOUBLE
000438: 12,3150           13153                           TCF      NXTIBT     +1                         #  SCAN FOR BIT CHANGES.
000439:
000440: 12,3151           67652                 -1        AD       ONE
000441: 12,3152           24074        NXTIBT             INCR     RUPTREG1
000442: 12,3153           60000                 +1        DOUBLE
000443: 12,3154           54000                           TS       A                                     #  (CODING IDENTICAL TO CHAN 30).
000444: 12,3155           13152                           TCF      NXTIBT
000445:
000446: 12,3156           56075                           XCH      RUPTREG2
000447: 12,3157           50074                           INDEX    RUPTREG1                              #  GET NEW VALUE OF BIT WHICH CHANGED.
000448: 12,3160           37636                           CAF      BIT13
000449: 12,3161           70370                           MASK     IMODES33
000450: 12,3162           50074                           INDEX    RUPTREG1
000451: 12,3163           03437                           TC       C33JMP
000452:
000453: 12,3164           10075        NXTFL33            CCS      RUPTREG2                              #  PROCESS POSSIBLE ADDITIONAL CHANGES.
000454: 12,3165           13151                           TCF      NXTIBT     -1
000455:                                                                                                  #  MONITOR FOR GIMBAL LOCK.
000456:
000457: 12,3166           10034        GLOCKMON           CCS      CDUZ
000458: 12,3167           13173                           TCF      GLOCKCHK                              #  SEE IF MAGNITUDE OF MGA IS GREATER THAN
000459: 12,3170           13201                           TCF      SETGLOCK                              #  70 DEGREES.
000460: 12,3171           13173                           TCF      GLOCKCHK
000461: 12,3172           13201                           TCF      SETGLOCK
000462:
000463: 12,3173           63226        GLOCKCHK           AD       -70DEGS
000464: 12,3174           04102                           TC       POSTJUMP
000465: 12,3175           27510                           CADR     GLCKCHK1
000466:
000467: 12,3176           13177                           NOOP
000468: 12,3177           13201                           TCF      SETGLOCK
000469:
000470: 12,3200           37657                 -1        CAF      ZERO
000471: 12,3201           60322        SETGLOCK           AD       DSPTAB     +11D                       #  SEE IF PRESENT STATE OF GIMBAL LOCK LAMP
000472: 12,3202           77645                           MASK     BIT6                                  #  AGREES WITH DESIRED STATE BY HALF ADDING
000473: 12,3203           00006                           EXTEND                                         #  THE TWO.
000474: 12,3204           14511                           BZF      GLOCKOK                               #  OK AS IS.
000475:
000476: 12,3205           70322                           MASK     DSPTAB     +11D                       #  IF OFF, DONT TURN ON IF IMU BEING CAGED.
000477: 12,3206           10000                           CCS      A
000478: 12,3207           13223                           TCF      GLAMPTST                              #  TURN OFF UNLESS LAMP TEST IN PROGRESS.
000479:
000480: 12,3210           37645                           CAF      BIT6
000481: 12,3211           70367                           MASK     IMODES30
000482: 12,3212           10000                           CCS      A
000483: 12,3213           14511                           TCF      GLOCKOK
000484:
000485: 12,3214           40322        GLINVERT           CS       DSPTAB     +11D                       #  INVERT GIMBAL LOCK LAMP.
000486: 12,3215           77645                           MASK     BIT6
000487: 12,3216           67634                           AD       BIT15                                 #  TO INDICATE CHANGE IN DSPTAB +11D.
000488: 12,3217           56322                           XCH      DSPTAB     +11D
000489: 12,3220           73227                           MASK     OCT37737
000490: 12,3221           26322                           ADS      DSPTAB     +11D
000491: 12,3222           14511                           TCF      GLOCKOK
000492:
000493: 12,3223           03442        GLAMPTST           TC       LAMPTEST                              #  TURN OFF UNLESS LAMP TEST IN PROGRESS.
000494: 12,3224           14511                           TCF      GLOCKOK
000495: 12,3225           13214                           TCF      GLINVERT
000496:
000497: 12,3226           63434        -70DEGS            DEC      -.38888                               #  -70 DEGREES SCALED IN HALF-REVOLUTIONS.
000498: 12,3227           37737        OCT37737           OCT      37737
000499:                                                                                                  #  SUBROUTINES TO PROCESS INBIT CHANGES. NEW VALUE OF BIT ARRIVES IN A, EXCEPT FOR TLIM.
000500:
000501: 12,3230           77632        TLIM               MASK     POSMAX                                #  REMOVE BIT FROM WORD OF CHANGES AND SET
000502: 12,3231           54075                           TS       RUPTREG2                              #  DSKY TEMP LAMP ACCORDINGLY.
000503:
000504: 12,3232           10367                           CCS      IMODES30
000505: 12,3233           13241                           TCF      TEMPOK
000506: 12,3234           13241                           TCF      TEMPOK
000507:
000508: 12,3235           37647                           CAF      BIT4                                  #  TURN ON LAMP.
000509: 12,3236           00006                           EXTEND
000510: 12,3237           05011                           WOR      11
000511: 12,3240           12776                           TCF      NXTIFAIL
000512:
000513: 12,3241           03442        TEMPOK             TC       LAMPTEST                              #  IF TEMP NOW OK, DONT TURN OFF LAMP IF
000514: 12,3242           12776                           TCF      NXTIFAIL                              #  LAMP TEST IN PROGRESS.
000515:
000516: 12,3243           47647                           CS       BIT4
000517: 12,3244           00006                           EXTEND
000518: 12,3245           03011                           WAND     11
000519: 12,3246           12776                           TCF      NXTIFAIL
000520:
000521: 12,3247           37651        ITURNON            CAF      BIT2                                  #  IF DELAY REQUEST HAS GONE OFF
000522: 12,3250           70367                           MASK     IMODES30                              #  PREMATURELY, DO NOT PROCESS ANY CHANGES
000523: 12,3251           10000                           CCS      A                                     #  UNTIL THE CURRENT 90 SEC WAIT EXPIRES.
000524: 12,3252           12776                           TCF      NXTIFAIL
000525:
000526: 12,3253           37635                           CAF      BIT14                                 #  SEE IF JUST ON OR OFF.
000527: 12,3254           70367                           MASK     IMODES30
000528: 12,3255           00006                           EXTEND
000529: 12,3256           13272                           BZF      ITURNON2                              #  IF JUST ON.
000530:
000531: 12,3257           37634                           CAF      BIT15
000532: 12,3260           00006                           EXTEND                                         #  SEE IF DELAY PRESENT DISCRETE HAS BEEN
000533: 12,3261           02012                           RAND     12                                    #  SENT. IF SO, ACTION COMPLETE.
000534: 12,3262           00006                           EXTEND
000535: 12,3263           13265                           BZF      +2
000536: 12,3264           12776                           TCF      NXTIFAIL
000537:
000538: 12,3265           37651                           CAF      BIT2                                  #  IF NOT, SET BIT TO INDICATE REQUEST NOT
000539: 12,3266           26367                           ADS      IMODES30                              #  PRESENT FOR FULL DURATION.
000540: 12,3267           05315                           TC       ALARM
000541: 12,3270           00207                           OCTAL    207
000542: 12,3271           12776                           TCF      NXTIFAIL
000543:
000544: 12,3272           47644        ITURNON2           CS       BIT7                                  #  SET BIT 7 TO INITIATE WAIT OF 1 SAMPLE.
000545: 12,3273           70367                           MASK     IMODES30
000546: 12,3274           67644                           AD       BIT7
000547: 12,3275           54367                           TS       IMODES30
000548: 12,3276           12776                           TCF      NXTIFAIL
000549: 12,3277           10000        IMUCAGE            CCS      A                                     #  NO ACTION IF GOING OFF.
000550: 12,3300           12776                           TCF      NXTIFAIL
000551:
000552: 12,3301           43456                           CS       OCT71000                              #  TERMINATE ICDU AND GYRO PULSE TRAINS.
000553: 12,3302           00006                           EXTEND
000554: 12,3303           03014                           WAND     14
000555:
000556: 12,3304           03416                           TC       CAGESUB
000557:
000558: 12,3305           37657                           CAF      ZERO                                  #  ZERO COMMAND OUT-COUNTERS.
000559: 12,3306           54050                           TS       CDUXCMD
000560: 12,3307           54051                           TS       CDUYCMD
000561: 12,3310           54052                           TS       CDUZCMD
000562: 12,3311           54047                           TS       GYROCMD
000563:
000564: 12,3312           43455                           CS       OCT1700                               #  HAVING WAITED AT LEAST 27 MCT FROM
000565: 12,3313           00006                           EXTEND                                         #  GYRO PULSE TRAIN TERMINATION, WE CAN
000566: 12,3314           03014                           WAND     14                                    #  DE-SELECT THE GYROS.
000567:
000568: 12,3315           12776                           TCF      NXTIFAIL
000569:
000570: 12,3316           00006        IMUOP              EXTEND
000571: 12,3317           13327                           BZF      IMUOP2
000572:
000573: 12,3320           40061                           CS       STATE                                 #  IF GOING OFF, ALARM IF PROG USING IMU.
000574: 12,3321           77643                           MASK     IMUSEFLG
000575: 12,3322           10000                           CCS      A
000576: 12,3323           12776                           TCF      NXTIFAIL
000577:
000578: 12,3324           05315                           TC       ALARM
000579: 12,3325           00214                           OCT      214
000580: 12,3326           12776                           TCF      NXTIFAIL
000581:
000582: 12,3327           37651        IMUOP2             CAF      BIT2                                  #  SEE IF FAILED ISS TURN-ON SEQ IN PROG.
000583: 12,3330           70367                           MASK     IMODES30
000584: 12,3331           10000                           CCS      A
000585: 12,3332           12776                           TCF      NXTIFAIL                              #  IF SO, DONT PROCESS UNTIL PRESENT 90
000586: 12,3333           13272                           TCF      ITURNON2                              #  SECONDS EXPIRES.
000587:
000588: 12,3334           10000        PIPFAIL            CCS      A                                     #  SET BIT10 IN IMODES30 SO ALL ISS WARNING
000589: 12,3335           37641                           CAF      BIT10                                 #  INFO IS IN ONE REGISTER.
000590: 12,3336           56367                           XCH      IMODES30
000591: 12,3337           73460                           MASK     -BIT10
000592: 12,3340           26367                           ADS      IMODES30
000593:
000594: 12,3341           03367                           TC       SETISSW
000595:
000596: 12,3342           40367                           CS       IMODES30                              #  IF PIP FAIL DOESNT LIGHT ISS WARNING, DO
000597: 12,3343           77652                           MASK     BIT1                                  #  A PROGRAM ALARM IF IMU OPERATING BUT NOT
000598: 12,3344           10000                           CCS      A                                     #  CAGED OR BEING TURNED ON.
000599: 12,3345           13164                           TCF      NXTFL33
000600:
000601: 12,3346           30367                           CA       IMODES30
000602: 12,3347           73454                           MASK     OCT1720
000603: 12,3350           10000                           CCS      A
000604: 12,3351           13164                           TCF      NXTFL33                               #  ABOVE CONDITION NOT MET.
000605:
000606: 12,3352           05315                           TC       ALARM
000607: 12,3353           00212                           OCT      212
000608: 12,3354           13164                           TCF      NXTFL33
000609:
000610: 12,3355           10000        DNTMFAST           CCS      A                                     #  DO PROG ALARM IF TM TOO FAST.
000611: 12,3356           13164                           TCF      NXTFL33
000612:
000613: 12,3357           05315                           TC       ALARM
000614: 12,3360           01105                           OCT      1105
000615: 12,3361           13164                           TCF      NXTFL33
000616:
000617: 12,3362           10000        UPTMFAST           CCS      A                                     #  SAME AS DNLINK TOO FAST WITH DIFFERENT
000618: 12,3363           13164                           TCF      NXTFL33                               #  ALARM CODE.
000619:
000620: 12,3364           05315                           TC       ALARM
000621: 12,3365           01106                           OCT      1106
000622: 12,3366           13164                           TCF      NXTFL33
000623:                                                                                                  #  CLOSED SUBROUTINES FOR IMU MONITORING.
000624: 12,3367           33447        SETISSW            CAF      OCT15                                 #  SET ISS WARNING USING THE FAIL BITS IN
000625: 12,3370           70367                           MASK     IMODES30                              #  BITS 13, 12, AND 10 OF IMODES30 AND THE
000626: 12,3371           00006                           EXTEND                                         #  FAILURE INHIBIT BITS IN POSITIONS
000627: 12,3372           77641                           MP       BIT10                                 #  4, 3, AND 1.
000628: 12,3373           30367                           CA       IMODES30
000629: 12,3374           00006                           EXTEND
000630: 12,3375           04001                           ROR      L                                     #  0 INDICATES FAILURE.
000631: 12,3376           40000                           COM
000632: 12,3377           74427                           MASK     OCT15000
000633: 12,3400           10000                           CCS      A
000634: 12,3401           13412                           TCF      ISSWON                                #  FAILURE.
000635:
000636: 12,3402           37652        ISSWOFF            CAF      BIT1                                  #  DONT TURN OFF ISS WARNING IF LAMP TEST
000637: 12,3403           70370                           MASK     IMODES33                              #  IN PROGRESS.
000638: 12,3404           10000                           CCS      A
000639: 12,3405           00002                           TC       Q
000640:
000641: 12,3406           47652                           CS       BIT1
000642: 12,3407           00006                           EXTEND
000643: 12,3410           03011                           WAND     11
000644: 12,3411           00002                           TC       Q
000645:
000646: 12,3412           37652        ISSWON             CAF      BIT1
000647: 12,3413           00006                           EXTEND
000648: 12,3414           05011                           WOR      11
000649: 12,3415           00002                           TC       Q
000650:
000651: 12,3416           43457        CAGESUB            CS       BITS6&15                              #  SET OUTBITS AND INTERNAL FLAGS FOR
000652: 12,3417           00006                           EXTEND                                         #  SYSTEM TURN-ON OR CAGE. DISABLE THE
000653: 12,3420           03012                           WAND     12                                    #  ERROR COUNTER AND REMOVE IMU DELAY COMP.
000654: 12,3421           33450                           CAF      BITS4&5                               #  SEND ZERO AND COARSE.
000655: 12,3422           00006                           EXTEND
000656: 12,3423           05012                           WOR      12
000657: 12,3424           13752                           TCF      CAGESUB1
000658:
000659: 12,3425           70367        CAGESUB3           MASK     IMODES30
000660: 12,3426           63452                           AD       OCT75
000661: 12,3427           54367                           TS       IMODES30
000662:
000663: 12,3430           00002                           TC       Q
000664:
000665: 12,3431  12,3367               IMUFAIL            EQUALS   SETISSW
000666: 12,3431  12,3367               ICDUFAIL           EQUALS   SETISSW
000667:                                                                                                  #  JUMP TABLES AND CONSTANTS.
000668: 12,3431           13247        IFAILJMP           TCF      ITURNON                               #  CHANNEL 30 DISPATCH.
000669: 12,3432           13367                           TCF      IMUFAIL
000670: 12,3433           13367                           TCF      ICDUFAIL
000671: 12,3434           13277                           TCF      IMUCAGE
000672: 12,3435           76400        30RDMSK            OCT      76400                                 #  (BIT 10 NOT SAMPLED HERE).
000673: 12,3436           13316                           TCF      IMUOP
000674:
000675: 12,3437           13334        C33JMP             TCF      PIPFAIL                               #  CHANNEL 33 DISPATCH.
000676: 12,3440           13355                           TCF      DNTMFAST
000677: 12,3441           13362                           TCF      UPTMFAST
000678:
000679:                                                                                                  #  SUBROUTINE TO SKIP IF LAMP TEST NOT IN PROGRESS.
000680: 12,3442           40370        LAMPTEST           CS       IMODES33                              #  BIT1 OF IMODES33 = 1 IF LAMP TEST IN
000681: 12,3443           77652                           MASK     BIT1                                  #  PROGRESS.
000682: 12,3444           10000                           CCS      A
000683: 12,3445           24002                           INCR     Q
000684: 12,3446           00002                           TC       Q
000685:
000686: 12,3447     4430               33RDMSK            EQUALS   PRIO16
000687: 12,3447           00015        OCT15              OCT      15
000688: 12,3450           00030        BITS4&5            OCT      30
000689: 12,3451           00054        OCT54              OCT      54
000690: 12,3452           00075        OCT75              OCT      75
000691: 12,3453           00300        BITS7&8            OCT      300
000692: 12,3454           01720        OCT1720            OCT      1720
000693: 12,3455           01700        OCT1700            OCT      1700
000694: 12,3456     4427               OCT15000           EQUALS   PRIO15
000695: 12,3456           71000        OCT71000           OCT      71000
000696: 12,3457           40040        BITS6&15           OCT      40040
000697: 12,3460           76777        -BIT10             OCT      -1000
000698:
000699: 12,3461           21450        90SECS             DEC      9000       B-14
000700: 12,3462           00014        120MS              DEC      12         B-14
000701:
000702: 12,3463     4511               GLOCKOK            EQUALS   RESUME
000703: 12,3463     4511               NOIMUMON           EQUALS   GLOCKOK
000704:                                                                                                  #  RR INBIT MONITOR.
000705: 12,3463           11212        RRAUTCHK           CCS      LOTSFLAG
000706: 12,3464           13572                           TCF      LOTSMON
000707:
000708: 12,3465           30413                           CA       RADMODES                              #  SEE IF CHANGE IN RR AUTO MODE BIT.
000709: 12,3466           00006                           EXTEND
000710: 12,3467           06033                           RXOR     33
000711: 12,3470           77651                           MASK     BIT2
000712: 12,3471           00006                           EXTEND
000713: 12,3472           13526                           BZF      RRCDUCHK
000714:
000715: 12,3473           22413                           LXCH     RADMODES                              #  UPDATE RADMODES.
000716: 12,3474           00006                           EXTEND
000717: 12,3475           06001                           RXOR     L
000718: 12,3476           54413                           TS       RADMODES
000719: 12,3477           77651                           MASK     BIT2                                  #  SEE IF JUST ON.
000720: 12,3500           10000                           CCS      A
000721: 12,3501           13520                           TCF      RROFF                                 #  OFF.
000722:
000723: 12,3502           37644                           CAF      BIT7                                  #  IF JUST ON AND SOME PROGRAM IS USING THE
000724: 12,3503           70061                           MASK     STATE                                 #  RR, DONT ZERO THE CDUS.
000725: 12,3504           10000                           CCS      A
000726: 12,3505           13526                           TCF      RRCDUCHK
000727:
000728: 12,3506           43517                           CS       OCT10001                              #  SET BITS TO INDICATE ZERO AND TURNON
000729: 12,3507           70413                           MASK     RADMODES                              #  IN PROGRESS.
000730: 12,3510           63517                           AD       OCT10001
000731: 12,3511           54413                           TS       RADMODES
000732:
000733: 12,3512           37652                           CAF      ONE
000734: 12,3513           04451                           TC       WAITLIST
000735: 12,3514           02000 20007                     2CADR    RRTURNON
000736: 12,3516           14511                           TCF      NORRGMON
000737:
000738: 12,3517           10001        OCT10001           OCT      10001
000739:
000740: 12,3520           40061        RROFF              CS       STATE                                 #  IF SOMEONE WAS USING THE RR, DISPLAY AN
000741: 12,3521           77644                           MASK     BIT7                                  #  ALARM IF THE RR GOES OUT OF AUTO MODE.
000742: 12,3522           10000                           CCS      A
000743: 12,3523           13526                           TCF      RRCDUCHK
000744:
000745: 12,3524           05315                           TC       ALARM
000746: 12,3525           00514                           OCT      514
000747:                                                                                                  #  CHECK FOR RR CDU FAIL.
000748: 12,3526           30413        RRCDUCHK           CA       RADMODES                              #  LAST SAMPLED BIT IN RADMODES.
000749: 12,3527           00006                           EXTEND
000750: 12,3530           06030                           RXOR     30
000751: 12,3531           77644                           MASK     BIT7
000752: 12,3532           00006                           EXTEND
000753: 12,3533           13546                           BZF      RRGIMON
000754:
000755: 12,3534           37651                           CAF      BIT2                                  #  IF RR NOT IN AUTO MODE, DONT CHANGE BIT
000756: 12,3535           70413                           MASK     RADMODES                              #  7 OF RADMODES. IF THIS WERE NOT DONE,
000757: 12,3536           10000                           CCS      A                                     #  THE TRACKER FAIL MIGHT COME ON WHEN
000758: 12,3537           14511                           TCF      NORRGMON                              #  JUST READING LR DATA.
000759:
000760: 12,3540           37644                           CAF      BIT7                                  #  SET BIT 7 OF RADMODES FOR SETTRKF.
000761: 12,3541           22413                           LXCH     RADMODES                              #  UPDATE RADMODES.
000762: 12,3542           00006                           EXTEND
000763: 12,3543           06001                           RXOR     L
000764: 12,3544           54413                           TS       RADMODES
000765:
000766: 12,3545           04744        TRKFLCDU           TC       SETTRKF                               #  UPDATE TRACKER FAIL LAMP ON DSKY.
000767:                                                                                                  #  THE RR GIMBAL LIMIT MONITOR IS ENABLED WHENEVER THE RR IS IN THE AUTO MODE EXCEPT WHEN THE RR CDUS ARE
000768:                                                                                                  #  BEING ZEROED, OR DURING A REMODE OR MONITOR REPOSITION OPERATION. THE LATTER IS INITIATED BY THIS MONITOR WHEN
000769:                                                                                                  #  THE GIMBALS EXCEED THE LIMITS FOR THE CURRENT MODE. A ROUTINE IS INITIATED TO DRIVE THE GIMBALS TO T = 0 AND
000770:                                                                                                  #  S = 0 IF IN MODE 1 AND T = 180 WITH S = -90 FOR MODE 2.
000771:
000772: 12,3546           33570        RRGIMON            CAF      OCT32002                              #  INHIBITED BY REMODE, ZEROING, MONITOR,
000773: 12,3547           70413                           MASK     RADMODES                              #  OR RR NOT IN AUTO.
000774: 12,3550           10000                           CCS      A
000775: 12,3551           14511                           TCF      NORRGMON
000776:
000777: 12,3552           04702                           TC       RRLIMCHK                              #  SEE IF ANGLES IN LIMITS.
000778: 12,3553           00035                           ADRES    OPTY
000779:
000780: 12,3554           13556                           TCF      MONREPOS
000781:
000782: 12,3555           14511                           TCF      NORRGMON                              #  (ADDITIONAL CODING MAY GO HERE).
000783:
000784: 12,3556           37640        MONREPOS           CAF      BIT11                                 #  SET FLAG TO SHOW REPOSITION IN PROGRESS.
000785: 12,3557           26413                           ADS      RADMODES
000786:
000787: 12,3560           43571                           CS       OCT20002                              #  DISABLE TRACKER AND ERROR COUNTER.
000788: 12,3561           00006                           EXTEND
000789: 12,3562           03012                           WAND     12
000790:
000791: 12,3563           37651                           CAF      TWO
000792: 12,3564           04451                           TC       WAITLIST
000793: 12,3565           02051 20007                     2CADR    DORREPOS
000794: 12,3567           14511                           TCF      NORRGMON
000795:
000796: 12,3570           32002        OCT32002           OCT      32002
000797: 12,3571           20002        OCT20002           OCT      20002
000798:
000799: 12,3572     4511               NORRGMON           EQUALS   RESUME
000800:
000801: 12,3572           31111        LOTSMON            CA       LOTMODES
000802: 12,3573           00006                           EXTEND
000803: 12,3574           14511                           BZF      RESUME
000804:
000805: 12,3575           37635                           CAF      PRIO20
000806: 12,3576           04276                           TC       NOVAC
000807: 12,3577     1212                                  EBANK=   LOTSFLAG
000808: 12,3577           02000 16002                     2CADR    LOTSMONB
000809:
000810: 12,3601           14511                           TCF      RESUME
000811:
000812: 12,3602                        ENDT4S             EQUALS

End of include-file T4RUPT_PROGRAM.agc.  Parent file is MAIN.agc


