
Source Code


000002:                                                                                                  ## Copyright:   Public domain.
000003:                                                                                                  ## Filename:    ALARM_AND_ABORT.agc
000004:                                                                                                  ## Purpose:     The main source file for Luminary revision 069.
000005:                                                                                                  ##              It is part of the source code for the original release
000006:                                                                                                  ##              of the flight software for the Lunar Module's (LM) Apollo
000007:                                                                                                  ##              Guidance Computer (AGC) for Apollo 10. The actual flown
000008:                                                                                                  ##              version was Luminary 69 revision 2, which included a
000009:                                                                                                  ##              newer lunar gravity model and only affected module 2.
000010:                                                                                                  ##              This file is intended to be a faithful transcription, except
000011:                                                                                                  ##              that the code format has been changed to conform to the
000012:                                                                                                  ##              requirements of the yaYUL assembler rather than the
000013:                                                                                                  ##              original YUL assembler.
000014:                                                                                                  ## Reference:   pp. 1375-1378
000015:                                                                                                  ## Assembler:   yaYUL
000016:                                                                                                  ## Contact:     Ron Burkey <info@sandroid.org>.
000017:                                                                                                  ## Website:     www.ibiblio.org/apollo/index.html
000018:                                                                                                  ## Mod history: 2016-12-13 MAS  Created from Luminary 99.
000019:                                                                                                  ##              2016-12-18 MAS  Updated from comment-proofed Luminary 99 version.
000020:                                                                                                  ##              2017-01-04 RRB  Updated for Luminary 69.
000021:                                                                                                  ##              2017-01-28 RSB  Proofed comment text using octopus/prooferComments
000022:                                                                                                  ##                              but no errors found.
000023:


000025:                                                                                                  #           THE FOLLOWING SUBROUTINE MAY BE CALLED TO DISPLAY A NON-ABORTIVE ALARM CONDITION. IT MAY BE CALLED
000026:                                                                                                  #  EITHER IN INTERRUPT OR UNDER EXECUTIVE CONTROL.
000027:
000028:                                                                                                  #  CALLING SEQUENCE IS AS FOLLOWS:
000029:                                                                                                  #                TC      ALARM
000030:                                                                                                  #                OCT     AAANN           ALARM NO. NN IN GENERAL AREA AAA.
000031:                                                                                                  #                                        (RETURNS HERE)
000032:
000033:    5567                                           BLOCK    02
000034:    4000                                           SETLOC   FFTAG7
000035:    4000                                           BANK
000036:
000037:    5567     0375                                  EBANK=   FAILREG
000038:
000039:    5567                                           COUNT*   $$/ALARM
000040:                                                                                                  #  ALARM TURNS ON THE PROGRAM ALARM LIGHT, BUT DOES NOT DISPLAY.
000041:
000042:    5567           00004        ALARM              INHINT
000043:
000044:    5570           30002                           CA       Q
000045:    5571           55363        ALARM2             TS       ALMCADR
000046:    5572           50002                           INDEX    Q
000047:    5573           30000                           CA       0
000048:    5574           54001        BORTENT            TS       L
000049:
000050:    5575           30006        PRIOENT            CA       BBANK
000051:    5576           00006                 +1        EXTEND
000052:    5577           04007                           ROR      SUPERBNK                              #  ADD SUPER BITS.
000053:    5600           55364                           TS       ALMCADR    +1
000054:
000055:    5601           30002        LARMENT            CA       Q                                     #  STORE RETURN FOR ALARM
000056:    5602           54061                           TS       ITEMP1
000057:
000058:    5603           10375        CHKFAIL1           CCS      FAILREG                               #  IS ANYTHING IN FAILREG
000059:    5604           15607                           TCF      CHKFAIL2                              #  YES TRY NEXT REG
000060:    5605           22375                           LXCH     FAILREG
000061:    5606           15621                           TCF      PROGLARM                              #  TURN ALARM LIGHT ON FOR FIRST ALARM
000062:
000063:    5607           10376        CHKFAIL2           CCS      FAILREG    +1
000064:    5610           15613                           TCF      FAIL3
000065:    5611           22376                           LXCH     FAILREG    +1
000066:    5612           15624                           TCF      MULTEXIT
000067:
000068:    5613           30377        FAIL3              CA       FAILREG    +2
000069:    5614           74733                           MASK     POSMAX
000070:    5615           10000                           CCS      A
000071:    5616           15630                           TCF      MULTFAIL
000072:    5617           22377                           LXCH     FAILREG    +2
000073:    5620           15624                           TCF      MULTEXIT
000074:


000076:
000077:    5621           41036        PROGLARM           CS       DSPTAB     +11D
000078:    5622           75642                           MASK     OCT40400
000079:    5623           27036                           ADS      DSPTAB     +11D
000080:
000081:    5624           56061        MULTEXIT           XCH      ITEMP1                                #  OBTAIN RETURN ADDRESS IN A
000082:    5625           00003                           RELINT
000083:    5626           50000                           INDEX    A
000084:    5627           00001                           TC       1
000085:
000086:    5630           30001        MULTFAIL           CA       L
000087:    5631           64735                           AD       BIT15
000088:    5632           54377                           TS       FAILREG    +2
000089:
000090:    5633           15624                           TCF      MULTEXIT
000091:
000092:                                                                                                  #  PRIOLARM DISPLAYS V05N09 VIA PRIODSPR WITH 3 RETURNS TO THE USER FROM THE ASTRONAUT AT CALL LOC +1,+2,+3 AND
000093:                                                                                                  #  AN IMMEDIATE RETURN TO THE USER AT CALL LOC +4.  EXAMPLE FOLLOWS,
000094:                                                                                                  #                CAF     OCTXX           ALARM CODE
000095:                                                                                                  #                TC      BANKCALL
000096:                                                                                                  #                CADR    PRIOLARM
000097:
000098:                                                                                                  #                ...     ...
000099:                                                                                                  #                ...     ...
000100:                                                                                                  #                ...     ...             ASTRONAUT RETURN
000101:                                                                                                  #                TC      PHASCHNG        IMMEDIATE RETURN TO USER.  RESTART
000102:                                                                                                  #                OCT     X.1             PHASE CHANGE FOR PRIO DISPLAY
000103:
000104: 10,3451                                           BANK     10
000105: 10,2000                                           SETLOC   DISPLAYS
000106: 10,2000                                           BANK
000107:
000108: 10,3451                                           COUNT*   $$/DSPLA
000109: 10,3451           00004        PRIOLARM           INHINT                                         #  * * * KEEP IN DISPLAY ROUTINES BANK
000110: 10,3452           54001                           TS       L                                     #  SAVE ALARM CODE
000111:
000112: 10,3453           30133                           CA       BUF2                                  #  2 CADR OF PRIOLARM USER
000113: 10,3454           55363                           TS       ALMCADR
000114: 10,3455           30134                           CA       BUF2       +1
000115: 10,3456           05576                           TC       PRIOENT    +1                         #  * LEAVE L ALONE
000116: 10,3457           77467        -2SEC              DEC      -200       B-14                       #  *** DONT MOVE
000117: 10,3460           35006                           CAF      V05N09
000118: 10,3461           12357                           TCF      PRIODSPR
000119:
000120:    5634                                           BLOCK    02
000121:    4000                                           SETLOC   FFTAG7
000122:    4000                                           BANK
000123:
000124:    5634                                           COUNT*   $$/ALARM
000125:    5634           00004        BAILOUT            INHINT
000126:    5635           30002                           CA       Q


000128:    5636           55363                           TS       ALMCADR
000129:
000130:    5637           50002                           INDEX    Q
000131:    5640           30000                           CAF      0
000132:    5641           05574                           TC       BORTENT
000133:    5642           40400        OCT40400           OCT      40400
000134:
000135:    5643           00004                           INHINT
000136:    5644           34752        WHIMPER            CA       TWO
000137:    5645           60005                           AD       Z
000138:    5646           54017                           TS       BRUPT
000139:    5647           50017                           RESUME
000140:    5650           04635                           TC       POSTJUMP                              #  RESUME SENDS CONTROL HERE
000141:    5651           12766                           CADR     ENEMA
000142:    5652           00004        POODOO             INHINT
000143:    5653           30002                           CA       Q
000144:    5654           55363        ABORT2             TS       ALMCADR
000145:    5655           50002                           INDEX    Q
000146:    5656           30000                           CAF      0
000147:    5657           05574                           TC       BORTENT
000148:    5660           77770        OCT77770           OCT      77770                                 #  DON'T MOVE
000149:
000150:    5661           34765                           CAF      OCT35                                 #  4.35SPOT FOR GOPOODOO
000151:    5662           54001                           TS       L
000152:    5663           40000                           COM
000153:    5664           52761                           DXCH     -PHASE4
000154:    5665           00004        GOPOODOO           INHINT
000155:    5666           30103                           CA       FLAGWRD7                              #  IS SERVICER CURRENTLY IN OPERATION?
000156:    5667           74746                           MASK     V37FLBIT
000157:    5670           10000                           CCS      A
000158:    5671           15675                           TCF      STRTIDLE
000159:    5672           04616                           TC       BANKCALL
000160:    5673           12643                           CADR     MR.KLEAN
000161:    5674           15644                           TCF      WHIMPER
000162:    5675           04635        STRTIDLE           TC       POSTJUMP                              #  PUT SERVICER INTO ITS "GROUND" STATE
000163:    5676           65711                           CADR     SERVIDLE                              #  AND PROCEED TO GOTOPOOH.
000164:    5677           00004        CCSHOLE            INHINT
000165:    5700           30002                           CA       Q
000166:    5701           05654                           TC       ABORT2
000167:    5702           01103        OCT21103           OCT      1103
000168:    5703           00004        CURTAINS           INHINT
000169:    5704           30002                           CA       Q
000170:    5705           05571                           TC       ALARM2
000171:    5706           00217        OCT217             OCT      00217
000172:    5707           01363                           TC       ALMCADR                               #  RETURN TO USER
000173:
000174:    5710           00004        BAILOUT1           INHINT
000175:    5711           53364                           DXCH     ALMCADR
000176:    5712           35734                           CAF      ADR40400
000177:    5713           54061        BOTHABRT           TS       ITEMP1


000179:    5714           50002                           INDEX    Q
000180:    5715           30000                           CAF      0
000181:    5716           54001                           TS       L
000182:    5717           15603                           TCF      CHKFAIL1
000183:    5720           00004        POODOO1            INHINT
000184:    5721           53364                           DXCH     ALMCADR
000185:    5722           35733                           CAF      ADR77770
000186:    5723           15713                           TCF      BOTHABRT
000187:
000188:    5724           00004        ALARM1             INHINT
000189:    5725           53364                           DXCH     ALMCADR
000190:    5726           00004        ALMNCADR           INHINT
000191:    5727           50002                           INDEX    Q
000192:    5730           30000                           CA       0
000193:    5731           54001                           TS       L
000194:    5732           15601                           TCF      LARMENT
000195:
000196:    5733           15660        ADR77770           TCF      OCT77770
000197:    5734           15642        ADR40400           TCF      OCT40400
000198:    5735     5155               DOALARM            EQUALS   ENDOFJOB
000199:
000200:                                                                                                  #  CALLING SEQUENCE FOR VARALARM
000201:                                                                                                  #                CAF     (ALARM)
000202:                                                                                                  #                TC      VARALARM
000203:
000204:                                                                                                  #  VARALARM TURNS ON PROGRAM ALARM LIGHT BUT DOES NOT DISPLAY
000205:
000206:    5735           00004        VARALARM           INHINT
000207:
000208:    5736           54001                           TS       L                                     #  SAVE USERS ALARM CODE
000209:
000210:    5737           30002                           CA       Q                                     #  SAVE USERS Q
000211:    5740           55363                           TS       ALMCADR
000212:
000213:    5741           05575                           TC       PRIOENT
000214:    5742           00014        OCT14              OCT      14                                    #  DONT MOVE
000215:
000216:    5743           01363                           TC       ALMCADR                               #  RETURN TO USER
000217:
000218:    5744     5644               ABORT              EQUALS   WHIMPER
000219:

End of include-file ALARM_AND_ABORT.agc.  Parent file is MAIN.agc


