
Source Code


000002:                                                                                                  ## Copyright:   Public domain.
000003:                                                                                                  ## Filename:    BURN,_BABY,_BURN_--_MASTER_IGNITION_ROUTINE.agc
000004:                                                                                                  ## Purpose:     The main source file for Luminary revision 069.
000005:                                                                                                  ##              It is part of the source code for the original release
000006:                                                                                                  ##              of the flight software for the Lunar Module's (LM) Apollo
000007:                                                                                                  ##              Guidance Computer (AGC) for Apollo 10. The actual flown
000008:                                                                                                  ##              version was Luminary 69 revision 2, which included a
000009:                                                                                                  ##              newer lunar gravity model and only affected module 2.
000010:                                                                                                  ##              This file is intended to be a faithful transcription, except
000011:                                                                                                  ##              that the code format has been changed to conform to the
000012:                                                                                                  ##              requirements of the yaYUL assembler rather than the
000013:                                                                                                  ##              original YUL assembler.
000014:                                                                                                  ## Reference:   pp. 739-758
000015:                                                                                                  ## Assembler:   yaYUL
000016:                                                                                                  ## Contact:     Ron Burkey <info@sandroid.org>.
000017:                                                                                                  ## Website:     www.ibiblio.org/apollo/index.html
000018:                                                                                                  ## Mod history: 2016-12-13 MAS  Created from Luminary 99.
000019:                                                                                                  ##              2016-12-15 MAS  Updated from comment-proofed Luminary 99 version.
000020:                                                                                                  ##              2017-01-20 HG   Transcribed
000021:                                                                                                  ##              2017-01-22 HG   Shift pseudo label +3 to column 2
000022:                                                                                                  ##              2017-01-28 RSB  Proofed comment text using octopus/prooferComments
000023:                                                                                                  ##                              and fixed errors found.
000024:


000038:
000039: 36,2022                                           BANK     36
000040: 36,2000                                           SETLOC   P40S
000041: 36,2000                                           BANK
000042: 36,2022  E7,1453                                  EBANK=   WHICH
000043: 36,2022                                           COUNT*   $$/P40
000044:                                                                                                  #      THE MASTER IGNITION ROUTINE IS DESIGNED FOR USE BY THE FOLLOWING LEM PROGRAMS:  P12, P40, P42, P61, P63.
000045:                                                                                                  #  IT PERFORMS ALL FUNCTIONS IMMEDIATELY ASSOCIATED WITH APS OR DPS IGNITION:  IN PARTICULAR, EVERYTHING LYING
000046:                                                                                                  #  BETWEEN THE PRE-IGNITION TIME CHECK -- ARE WE WITHIN 45 SECONDS OF TIG? -- AND TIG + 26 SECONDS, WHEN DPS
000047:                                                                                                  #  PROGRAMS THROTTLE UP.
000048:
000049:                                                                                                  #      VARIATIONS AMONG PROGRAMS ARE ACCOMODATED BY MEANS OF TABLES CONTAINING CONSTANTS (FOR AVEGEXIT, FOR
000050:                                                                                                  #  WAITLIST, FOR PINBALL) AND TCF INSTRUCTIONS.   USERS PLACE THE ADRES OF THE HEAD OF THE APPROPRIATE TABLE
000051:                                                                                                  #  (OF P61TABLE FOR P61LM, FOR EXAMPLE) IN ERASABLE REGISTER 'WHICH' (E4).   THE IGNITION ROUTINE THEN INDEXES BY
000052:                                                                                                  #  WHICH TO OBTAIN OR EXECUTE THE PROPER TABLE ENTRY.   THE IGNITION ROUTINE IS INITIATED BY A TCF BURNBABY,
000053:                                                                                                  #  THROUGH BANKJUMP IF NECESSARY.   THERE IS NO RETURN.
000054:
000055:                                                                                                  #      THE MASTER IGNITION ROUTINE WAS CONCEIVED AND EXECUTED, AND (NOTA BENE) IS MAINTAINED BY ADLER AND EYLES.
000056:
000057:
000058:                                                                                                  #                                         HONI SOIT QUI MAL Y PENSE
000059:
000060:
000061:                                                                                                  #                                  ****************************************
000062:                                                                                                  #                                  TABLES FOR THE IGNITION ROUTINE
000063:                                                                                                  #                                  ****************************************
000064:
000065:                                                                                                  #                                              NOLI SE TANGERE
000066:
000067: 36,2022           01512        P12TABLE           VN       0674                                  #  (0)
000068: 36,2023           01512                           VN       0674                                  #  (1)
000069: 36,2024           12615                           TCF      COMFAIL3                              #  (2)
000070: 36,2025           13072                           TCF      GOCUTOFF                              #  (3)
000071: 36,2026           15261                           TCF      TASKOVER                              #  (4)
000072: 36,2027           12144                           TCF      P12SPOT                               #  (5)
000073: 36,2030           00000                           DEC      0          B-14                       #  (6)       NO ULLAGE
000074: 36,2031  E7,1453                                  EBANK=   WHICH
000075: 36,2031           03525 76067                     2CADR    SERVEXIT                              #  (7)
000076: 36,2033           12364                           TCF      DISPCHNG                              #  (11)
000077: 36,2034           12541                           TCF      WAITABIT                              #  (12)
000078: 36,2035           12506                           TCF      P12IGN                                #  (13)
000079:
000080:
000081:
000082: 36,2036           01450        P40TABLE           VN       0640                                  #  (0)
000083: 36,2037           01450                           VN       0640                                  #  (1)
000084: 36,2040           12617                           TCF      COMFAIL4                              #  (2)
000085: 36,2041           13057                           TCF      GOPOST                                #  (3)
000086: 36,2042           12564                           TCF      P40ZOOM                               #  (4)
000087: 36,2043           12144                           TCF      P40SPOT                               #  (5)
000088:


000090: 36,2044           04300                           DEC      2240       B-14                       #  (6)
000091: 36,2045  E6,1420                                  EBANK=   OMEGAQ
000092: 36,2045           03641 74066                     2CADR    STEERING                              #  (7)
000093: 36,2047           12360                           TCF      P40SJUNK                              #  (11)
000094: 36,2050           12541                           TCF      WAITABIT                              #  (12)
000095: 36,2051           12467                           TCF      P40IGN                                #  (13)
000096:
000097:
000098:
000099: 36,2052           12147        P41TABLE           TCF      P41SPOT                               #  (5)
000100: 36,2053           77776                           DEC      -1         B-14                       #  (6)
000101: 36,2054  E6,1420                                  EBANK=   OMEGAQ
000102: 36,2054           03376 74066                     2CADR    CALCN85                               #  (7)
000103:
000104: 36,2056           15261                           TCF      TASKOVER                              #  (11)
000105: 36,2057           12545                           TCF      TIGTASK                               #  (12)
000106:
000107:
000108:
000109: 36,2060           01450        P42TABLE           VN       0640                                  #  (0)
000110: 36,2061           01450                           VN       0640                                  #  (1)
000111: 36,2062           12617                           TCF      COMFAIL4                              #  (2)
000112: 36,2063           13057                           TCF      GOPOST                                #  (3)
000113: 36,2064           15261                           TCF      TASKOVER                              #  (4)
000114: 36,2065           12144                           TCF      P42SPOT                               #  (5)
000115: 36,2066           05120                           DEC      2640       B-14                       #  (6)
000116: 36,2067  E6,1420                                  EBANK=   OMEGAQ
000117: 36,2067           03641 74066                     2CADR    STEERING                              #  (7)
000118: 36,2071           12360                           TCF      P40SJUNK                              #  (11)
000119: 36,2072           12541                           TCF      WAITABIT                              #  (12)
000120: 36,2073           12516                           TCF      P42IGN                                #  (13)
000121:
000122:
000123:
000124: 36,2074           01476        P63TABLE           VN       0662                                  #  (0)
000125: 36,2075           01475                           VN       0661                                  #  (1)
000126: 36,2076           12615                           TCF      COMFAIL3                              #  (2)
000127: 36,2077           13006                           TCF      V99RECYC                              #  (3)
000128: 36,2100           12556                           TCF      P63ZOOM                               #  (4)
000129: 36,2101           12147                           TCF      P63SPOT                               #  (5)
000130: 36,2102           04300                           DEC      2240       B-14                       #  (6)
000131: 36,2103  E7,1453                                  EBANK=   WHICH
000132: 36,2103           03525 76067                     2CADR    SERVEXIT                              #  (7)
000133: 36,2105           12364                           TCF      DISPCHNG                              #  (11)
000134: 36,2106           12541                           TCF      WAITABIT                              #  (12)
000135: 36,2107           12440                           TCF      P63IGN                                #  (13)
000136:


000138:
000139: 36,2110           01477        ABRTABLE           VN       0663                                  #  (0)
000140: 36,2111           12112                           NOOP                                           #  (1)
000141: 36,2112           12615                           TCF      COMFAIL3                              #  (2)
000142: 36,2113           13072                           TCF      GOCUTOFF                              #  (3)
000143: 36,2114           15261                           TCF      TASKOVER                              #  (4)
000144: 36,2115           12116                           NOOP                                           #  (5)
000145: 36,2116           12117                           NOOP                                           #  (6)
000146: 36,2117           12120                           NOOP                                           #  (7)
000147: 36,2120           12121                           NOOP
000148: 36,2121           12364                           TCF      DISPCHNG                              #  (11)
000149: 36,2122           12541                           TCF      WAITABIT                              #  (12)
000150: 36,2123           12503                           TCF      ABRTIGN                               #  (13)
000151:
000152:
000153:
000154:                                                                                                  #                ****************************************
000155:                                                                                                  #                GENERAL PURPOSE IGNITION ROUTINES
000156:                                                                                                  #                ****************************************
000157:
000158: 36,2124           05353        BURNBABY           TC       PHASCHNG                              #  GROUP 4 RESTARTS HERE
000159: 36,2125           04024                           OCT      04024
000160:
000161: 36,2126           34755                           CAF      ZERO                                  #  EXTIRPATE JUNK LEFT IN DVTOTAL
000162: 36,2127           55505                           TS       DVTOTAL
000163: 36,2130           55506                           TS       DVTOTAL    +1
000164:
000165: 36,2131           04616                           TC       BANKCALL                              #  P40AUTO MUST BE BANKCALLED EVEN FROM ITS
000166: 36,2132           73707                           CADR     P40AUTO                               #    OWN BANK TO SET UP RETURN PROPERLY
000167:
000168: 36,2133           00006        B*RNB*B*           EXTEND
000169: 36,2134           31440                           DCA      TIG                                   #  STORE NOMINAL TIG FOR OBLATENESS COMP.
000170: 36,2135           53510                           DXCH     GOBLTIME                              #  AND FOR P70 OR P71.
000171:
000172: 36,2136           00004                           INHINT
000173: 36,2137           04674                           TC       IBNKCALL
000174: 36,2140           75564                           CADR     ENGINOF3
000175: 36,2141           00003                           RELINT
000176:
000177: 36,2142           51453                           INDEX    WHICH
000178: 36,2143           10005                           TCF      5
000179:
000180:
000181: 36,2144  36,2144               P12SPOT            =        P40SPOT                               #  (5)
000182: 36,2144  36,2144               P42SPOT            =        P40SPOT                               #  (5)
000183: 36,2144  36,2147               P63SPOT            =        P41SPOT                               #  (5)      IN P63 CLOKTASK ALREADY GOING
000184: 36,2144           44747        P40SPOT            CS       OCT20                                 #  (5)
000185: 36,2145           04616                           TC       BANKCALL                              #  MUST BE BANKCALLED FOR GENERALIZED
000186: 36,2146           74667                           CADR     STCLOK2                               #        RETURN
000187: 36,2147           06036        P41SPOT            TC       INTPRET                               #  (5)
000188: 36,2150           45345                           DLOAD    DSU
000189:


000191: 36,2151           03440                                    TIG
000192: 36,2152           35143                                    D29.9SEC
000193: 36,2153           34041                           STCALL   TDEC1
000194: 36,2154           61055                                    INITCDUW
000195: 36,2155           45014                           BOFF     CALL
000196: 36,2156           03347                                    MUNFLAG
000197: 36,2157           74176                                    GOMIDAV
000198: 36,2160           27043                                    CSMPREC
000199: 36,2161           64375                           VLOAD    MXV
000200: 36,2162           00025                                    VATT1
000201: 36,2163           01734                                    REFSMMAT
000202: 36,2164           77762                           VSR1
000203: 36,2165           25726                           STOVL    V(CSM)                                #  CSM VELOCITY - M/CS*2(7)
000204: 36,2166           00017                                    RATT1
000205: 36,2167           64312                           VSL4     MXV
000206: 36,2170           01734                                    REFSMMAT
000207: 36,2171           35720                           STCALL   R(CSM)                                #  CSM POSITION - M*2(24)
000208: 36,2172           67162                                    MUNGRAV
000209: 36,2173           16323                           STODL    G(CSM)                                #  CSM GRAVITY VEC. - M/CS*2(7)
000210: 36,2174           00015                                    TAT
000211: 36,2175           00041                           STORE    TDEC1                                 #  RELOAD TDEC1 FOR MIDTOAV.
000212: 36,2176           77624        GOMIDAV            CALRB
000213: 36,2177           27603                                    MIDTOAV1
000214: 36,2200           12207                           TCF      CALLT-35                              #  MADE IT IN TIME.
000215:
000216: 36,2201           00006                           EXTEND                                         #  TIG WAS SLIPPED, SO RESET TIG TO 29.9
000217: 36,2202           31557                           DCA      PIPTIME1                              #  SECONDS AFTER THE TIME TO WHICH WE DID
000218: 36,2203           53440                           DXCH     TIG                                   #  INTEGRATE.
000219: 36,2204           00006                           EXTEND
000220: 36,2205           33143                           DCA      D29.9SEC
000221: 36,2206           21440                           DAS      TIG
000222:
000223: 36,2207           52155        CALLT-35           DXCH     MPAC
000224: 36,2210           53476                           DXCH     SAVET-30                              #  DELTA-T UNTIL TIG-30
000225: 36,2211           00006                           EXTEND
000226: 36,2212           43741                           DCS      5SECDP
000227: 36,2213           21476                           DAS      SAVET-30                              #  DELTA-T UNTIL TIG-35
000228: 36,2214           00006                           EXTEND
000229: 36,2215           31476                           DCA      SAVET-30
000230: 36,2216           05277                           TC       LONGCALL
000231: 36,2217  E7,1451                                  EBANK=   TTOGO
000232: 36,2217           02236 74067                     2CADR    TIG-35
000233: 36,2221           05353                           TC       PHASCHNG
000234: 36,2222           20254                           OCT      20254                                 #  4.25SPOT FOR TIG-35 RESTART.
000235:
000236: 36,2223           05321                           TC       CHECKMM
000237: 36,2224           00077                           DEC      63         B-14
000238: 36,2225           15155                           TCF      ENDOFJOB                              #  NOT P63
000239: 36,2226           44747                           CS       CNTDNDEX                              #  P63 CAN START DISPLAYING NOW.
000240:


000242: 36,2227           55163                           TS       DISPDEX
000243: 36,2230           06036                           TC       INTPRET
000244: 36,2231           51575                           VLOAD    ABVAL
000245: 36,2232           03551                                    VN1
000246: 36,2233           03470                           STORE    ABVEL                                 #  INITIALIZE ABVEL FOR P63 DISPLAY
000247: 36,2234           77776                           EXIT
000248: 36,2235           15155                           TCF      ENDOFJOB
000249:
000250:
000251:                                                                                                  #                ****************************************
000252:
000253: 36,2236           33741        TIG-35             CAF      5SEC
000254: 36,2237           05173                           TC       TWIDDLE
000255: 36,2240           02274                           ADRES    TIG-30
000256:
000257: 36,2241           05353                           TC       PHASCHNG
000258: 36,2242           40154                           OCT      40154                                 #  4.15SPOT FOR TIG-30 RESTART
000259:
000260: 36,2243           44752                           CS       BLANKDEX                              #  BLANK DSKY FOR 5 SECONDS
000261: 36,2244           55163                           TS       DISPDEX
000262:
000263: 36,2245           51453                           INDEX    WHICH
000264: 36,2246           40006                           CS       6                                     #  CHECK ULLAGE TIME.
000265: 36,2247           00006                           EXTEND
000266: 36,2250           65261                           BZMF     TASKOVER
000267: 36,2251           33145                           CAF      4.9SEC                                #  SET UP TASK TO RESTORE DISPLAY AT TIG-30
000268: 36,2252           05173                           TC       TWIDDLE
000269: 36,2253           02264                           ADRES    TIG-30.1
000270:
000271: 36,2254           35027                           CAF      PRIO17                                #  A NEGATIVE ULLAGE TIME INDICATES P41, IN
000272: 36,2255           05072                           TC       NOVAC                                 #  WHICH CASE WE HAVE TO SET UP A JOB TO
000273: 36,2256  E7,1451                                  EBANK=   TTOGO                                 #  BLANK THE DSKY FOR FIVE SECONDS, SINCE
000274: 36,2256           02261 74067                     2CADR    P41BLANK                              #  CLOKJOB IS NOT RUNNING DURING P41.
000275:
000276: 36,2260           15261                           TCF      TASKOVER
000277:
000278: 36,2261           04616        P41BLANK           TC       BANKCALL                              #  BLANK DSKY.
000279: 36,2262           20334                           CADR     CLEANDSP
000280: 36,2263           15155                           TCF      ENDOFJOB
000281:
000282: 36,2264           35027        TIG-30.1           CAF      PRIO17                                #  SET UP JOB TO RESTORE DISPLAY AT TIG-30
000283: 36,2265           05072                           TC       NOVAC
000284: 36,2266  E7,1451                                  EBANK=   TTOGO
000285: 36,2266           02271 74067                     2CADR    TIG-30A
000286: 36,2270           15261                           TCF      TASKOVER
000287:
000288: 36,2271           33744        TIG-30A            CAF      V16N85B
000289: 36,2272           04616                           TC       BANKCALL                              #  RESTORE DISPLAY.
000290: 36,2273           20343                           CADR     REGODSP                               #  REGODSP DOES A TCF ENDOFJOB
000291:


000293:
000294:                                                                                                  #                *****************************************
000295:
000296:
000297: 36,2274           33144        TIG-30             CAF      S24.9SEC
000298: 36,2275           05173                           TC       TWIDDLE
000299: 36,2276           02343                           ADRES    TIG-5
000300:
000301: 36,2277           44747                           CS       CNTDNDEX                              #  START UP CLOKTASK AGAIN
000302: 36,2300           55163                           TS       DISPDEX
000303:
000304: 36,2301           51453                           INDEX    WHICH                                 #  PICK UP APPROPRIATE ULLAGE-ON TIME
000305: 36,2302           30006                           CAF      6
000306: 36,2303           00006                           EXTEND
000307: 36,2304           62316                           BZMF     ULLGNOT                               #  DON'T SET UP ULLAGE IF DT IS NEG OR ZERO
000308: 36,2305           55475                           TS       SAVET-30                              #  SAVE DELTA-T FOR RESTART
000309: 36,2306           05173                           TC       TWIDDLE
000310: 36,2307           02337                           ADRES    ULLGTASK
000311:
000312: 36,2310           36244                           CA       THREE                                 #  RESTART PROTECT ULLGTASK (1.3SPOT)
000313: 36,2311           54001                           TS       L
000314: 36,2312           46244                           CS       THREE
000315: 36,2313           52753                           DXCH     -PHASE1
000316: 36,2314           40025                           CS       TIME1
000317: 36,2315           55053                           TS       TBASE1
000318:
000319: 36,2316           00006        ULLGNOT            EXTEND
000320: 36,2317           51453                           INDEX    WHICH
000321: 36,2320           30010                           DCA      7                                     #  LOAD AVEGEXIT WITH APPROPRIATE 2CADR
000322: 36,2321           53253                           DXCH     AVEGEXIT
000323:
000324: 36,2322           34752                           CAF      TWO                                   #  4.2SPOT RESTARTS IMMEDIATELY AT REDO4.2
000325: 36,2323           54001                           TS       L
000326: 36,2324           44752                           CS       TWO                                   #  AND ALSO AT TIG-5 AT THE CORRECT TIME.
000327: 36,2325           52761                           DXCH     -PHASE4
000328:
000329: 36,2326           40025                           CS       TIME1
000330: 36,2327           55061                           TS       TBASE4                                #  SET TBASE4 FOR TIG-5 RESTART
000331:
000332: 36,2330           00006        REDO2.17           EXTEND
000333: 36,2331           34755                           DCA      NEG0                                  #  CLEAR OUT GROUP 2 SO LAMBERT CAN START
000334: 36,2332           52755                           DXCH     -PHASE2                               #        IF NEEDED.
000335:
000336: 36,2333           10763        REDO4.2            CCS      PHASE5                                #  IS SERVICER GOING?
000337: 36,2334           15261                           TCF      TASKOVER                              #  YES, DON'T START IT UP AGAIN.
000338:
000339: 36,2335           04635                           TC       POSTJUMP
000340: 36,2336           77374                           CADR     PREREAD                               #  PREREAD ENDS THIS TASK
000341:
000342:
000343:                                                                                                  #                ****************************************
000344:


000346:
000347: 36,2337           02662        ULLGTASK           TC       ONULLAGE                              #  THIS COMES AT TIG-7.5 OR TIG-3.5
000348: 36,2340           05353                           TC       PHASCHNG
000349: 36,2341           00001                           OCT      1
000350: 36,2342           15261                           TCF      TASKOVER
000351:
000352:
000353:                                                                                                  #                ****************************************
000354:
000355: 36,2343           33741        TIG-5              CAF      5SEC
000356: 36,2344           05173                           TC       TWIDDLE
000357: 36,2345           02367                           ADRES    TIG-0
000358:
000359: 36,2346           05516                           TC       DOWNFLAG                              #  RESET IGNFLAG AND ASTNFLAG
000360: 36,2347           00153                           ADRES    IGNFLAG                               #    FOR LIGHT-UP LOGIC
000361: 36,2350           05516                           TC       DOWNFLAG
000362: 36,2351           00154                           ADRES    ASTNFLAG
000363:
000364: 36,2352           05327                           TC       2PHSCHNG
000365: 36,2353           40074                           OCT      40074                                 #  RESTART TIG-0 (4.7SPOT)
000366: 36,2354           05013                           OCT      05013                                 #  RESTART HERE (FOR S40.13 IF NEEDED)
000367: 36,2355           77777                           OCT      77777
000368:
000369: 36,2356           51453                           INDEX    WHICH
000370: 36,2357           10011                           TCF      11
000371:
000372: 36,2360           34736        P40SJUNK           CAF      PRIO20                                #  (11)     P40 AND P42 COME HERE
000373: 36,2361           05105                           TC       FINDVAC
000374: 36,2362  E7,1451                                  EBANK=   TTOGO
000375: 36,2362           02574 56067                     2CADR    S40.13
000376:
000377:
000378: 36,2364           45742        DISPCHNG           CS       VB99DEX                               #  (11)
000379: 36,2365           55163                           TS       DISPDEX
000380: 36,2366           15261                           TCF      TASKOVER
000381:
000382:
000383:                                                                                                  #                ****************************************
000384:
000385: 36,2367           40103        TIG-0              CS       FLAGWRD7                              #  SET IGNFLAG SINCE TIG HAS ARRIVED
000386: 36,2370           74737                           MASK     IGNFLBIT
000387: 36,2371           26103                           ADS      FLAGWRD7
000388:
000389: 36,2372           05321                           TC       CHECKMM                               #  IN P63 CASE, THROTTLE-UP IS ZOOMTIME
000390: 36,2373           00077                           DEC      63         B-14                       #    AFTER NOMINAL IGNITION, NOT ACTUAL
000391: 36,2374           12404                           TCF      IGNYET?
000392: 36,2375           31424                           CA       ZOOMTIME
000393: 36,2376           05173                           TC       TWIDDLE
000394: 36,2377           02554                           ADRES    ZOOM
000395:


000397: 36,2400           05327                           TC       2PHSCHNG
000398: 36,2401           40033                           OCT      40033
000399:
000400: 36,2402           05014                           OCT      05014
000401: 36,2403           77777                           OCT      77777
000402:
000403: 36,2404           34740        IGNYET?            CAF      ASTNBIT                               #  CHECK ASTNFLAG:  HAS ASTRONAUT RESPONDED
000404: 36,2405           70103                           MASK     FLAGWRD7                              #    TO OUR ENGINE ENABLE REQUEST?
000405: 36,2406           00006                           EXTEND
000406: 36,2407           51453                           INDEX    WHICH
000407: 36,2410           10012                           BZF      12                                    #  BRANCH IF HE HAS NOT RESPONDED YET
000408:
000409: 36,2411           40101        IGNITION           CS       FLAGWRD5                              #  INSURE ENGONFLG IS SET.
000410: 36,2412           74745                           MASK     ENGONBIT
000411: 36,2413           26101                           ADS      FLAGWRD5
000412: 36,2414           44355                           CS       PRIO30                                #  TURN ON THE ENGINE.
000413: 36,2415           00006                           EXTEND
000414: 36,2416           02011                           RAND     DSALMOUT
000415: 36,2417           64737                           AD       BIT13
000416: 36,2420           00006                           EXTEND
000417: 36,2421           01011                           WRITE    DSALMOUT
000418: 36,2422           00006                           EXTEND                                         #  SET TEVENT FOR DOWNLINK
000419: 36,2423           30025                           DCA      TIME2
000420: 36,2424           53345                           DXCH     TEVENT
000421:
000422: 36,2425           00006                           EXTEND                                         #  UPDATE TIG USING TGO FROM S40.13
000423: 36,2426           31515                           DCA      TGO
000424: 36,2427           53440                           DXCH     TIG
000425: 36,2430           00006                           EXTEND
000426: 36,2431           30025                           DCA      TIME2
000427: 36,2432           21440                           DAS      TIG
000428:
000429: 36,2433           44742                           CS       FLUNDBIT                              #  PERMIT GUIDANCE LOOP DISPLAYS
000430: 36,2434           70104                           MASK     FLAGWRD8
000431: 36,2435           54104                           TS       FLAGWRD8
000432:
000433: 36,2436           51453                           INDEX    WHICH
000434: 36,2437           10013                           TCF      13
000435:
000436: 36,2440           00006        P63IGN             EXTEND                                         #  (13)     INITIATE BURN DISPLAYS
000437: 36,2441           33135                           DCA      DSP2CADR
000438: 36,2442           53253                           DXCH     AVGEXIT
000439:
000440: 36,2443           30005                           CA       Z                                     #  ASSASSINATE CLOKTASK
000441: 36,2444           55163                           TS       DISPDEX
000442:
000443: 36,2445           40105                           CS       FLAGWRD9                              #  SET FLAG FOR P70-P71
000444: 36,2446           74743                           MASK     LETABBIT
000445: 36,2447           26105                           ADS      FLAGWRD9
000446:


000448: 36,2450           40103                           CS       FLAGWRD7                              #  SET SWANDISP TO ENABLE R10.
000449: 36,2451           74741                           MASK     SWANDBIT
000450: 36,2452           26103                           ADS      FLAGWRD7
000451:
000452: 36,2453           44735                           CS       PULSES                                #  MAKE SURE DAP IS NOT IN MINIMUM-IMPULSE
000453: 36,2454           70111                           MASK     DAPBOOLS                              #    MODE, IN CASE OF SWITCH TO P66
000454: 36,2455           54111                           TS       DAPBOOLS
000455:
000456: 36,2456           00006                           EXTEND                                         #  INITIALIZE TIG FOR P70 AND P71.
000457: 36,2457           30025                           DCA      TIME2
000458: 36,2460           53440                           DXCH     TIG
000459:
000460: 36,2461           34755                           CAF      ZERO                                  #  INITIALIZE WCHPHASE AND FLPASS0
000461: 36,2462           55620                           TS       WCHPHASE
000462: 36,2463           55617                           TS       WCHPHOLD                              #  ALSO WHCPHOLD
000463: 36,2464           34752                           CA       TWO
000464: 36,2465           55621                           TS       FLPASS0
000465:
000466: 36,2466           12516                           TCF      P42IGN
000467: 36,2467           40101        P40IGN             CS       FLAGWRD5                              #  (13)
000468: 36,2470           74740                           MASK     NOTHRBIT
000469: 36,2471           00006                           EXTEND
000470: 36,2472           12516                           BZF      P42IGN
000471: 36,2473           31424                           CA       ZOOMTIME                              #  WAITLIST FOR ZOOM (FLATOUT. ETC.)
000472: 36,2474           05173                           TC       TWIDDLE
000473: 36,2475           02554                           ADRES    ZOOM
000474:
000475: 36,2476           05327        P63IGN1            TC       2PHSCHNG
000476: 36,2477           40033                           OCT      40033                                 #  3.3SPOT FOR ZOOM RESTART.
000477: 36,2500           05014                           OCT      05014                                 #  TYPE C   RESTARTS HERE IMMEDIATELY
000478: 36,2501           77777                           OCT      77777
000479:
000480: 36,2502           12516                           TCF      P42IGN
000481: 36,2503           05321        ABRTIGN            TC       CHECKMM                               #  (13) BRANCH TO APPROPRIATE ABORT
000482: 36,2504           00107                           DEC      71         B-14                       #  ENGINE-ON SEQUENCE.
000483: 36,2505           12516                           TCF      P42IGN                                #  CONTINUE ENGINE-ON SEQUENCE
000484: 36,2506           30005        P12IGN             CA       Z                                     #  (13)     KILL CLOKTASK
000485: 36,2507           55163                           TS       DISPDEX
000486:
000487: 36,2510           00006                           EXTEND                                         #  CONNECT ASCENT GYIDANCE TO SERVICER.
000488: 36,2511           33141                           DCA      ATMAGADR
000489: 36,2512           53253                           DXCH     AVGEXIT
000490:
000491: 36,2513           40103                           CS       FLAGWRD7                              #  ENABLE R10.
000492: 36,2514           74741                           MASK     SWANDBIT
000493: 36,2515           26103                           ADS      FLAGWRD7
000494:
000495: 36,2516           44744        P42IGN             CS       DRIFTBIT                              #  ENSURE THAT POWERED-FLIGHT SWITCHING
000496: 36,2517           44744                           CS       DRIFTBIT                              #  ENSURE THAT POWERED-FLIGHT SWITCHING
000497: 36,2520           70111                           MASK     DAPBOOLS                              #    CURVES ARE USED.
000498:


000500: 36,2521           54111                           TS       DAPBOOLS
000501: 36,2522           34743                           CAF      IMPULBIT                              #  EXAMINE IMPULSE SWITCH
000502: 36,2523           70076                           MASK     FLAGWRD2
000503: 36,2524           10000                           CCS      A
000504: 36,2525           13522                           TCF      IMPLBURN
000505:
000506: 36,2526           05516        DVMONCON           TC       DOWNFLAG
000507: 36,2527           00153                           ADRES    IGNFLAG                               #  CONNECT DVMON
000508: 36,2530           05516                           TC       DOWNFLAG
000509: 36,2531           00154                           ADRES    ASTNFLAG
000510: 36,2532           05516                           TC       DOWNFLAG
000511: 36,2533           00161                           ADRES    IDLEFLAG
000512:
000513: 36,2534           05353                           TC       PHASCHNG
000514: 36,2535           40054                           OCT      40054
000515:
000516: 36,2536           05221                           TC       FIXDELAY                              #  TURN ULLAGE OFF HALF A SECOND AFTER
000517: 36,2537           00062                           DEC      50         B-14                       #  LIGHT UP.
000518:
000519: 36,2540           02656        ULLAGOFF           TC       NOULLAGE
000520:
000521: 36,2541           00006        WAITABIT           EXTEND                                         #  KILL GROUP 4
000522: 36,2542           34755                           DCA      NEG0
000523: 36,2543           52761                           DXCH     -PHASE4
000524:
000525: 36,2544           15261                           TCF      TASKOVER
000526:
000527:
000528:                                                                                                  #                ****************************************
000529:
000530: 36,2545           35026        TIGTASK            CAF      PRIO16                                #  TIGNOW MUST BE A JOB.
000531: 36,2546           05072                           TC       NOVAC
000532: 36,2547  E7,1460                                  EBANK=   TRKMKCNT
000533: 36,2547           03241 74067                     2CADR    TIGNOW
000534: 36,2551           05353                           TC       PHASCHNG
000535: 36,2552           00006                           OCT      6                                     #  KILL GROUP 6.
000536:
000537: 36,2553           15261                           TCF      TASKOVER
000538:
000539:
000540:                                                                                                  #                ****************************************
000541:
000542: 36,2554           51453        ZOOM               INDEX    WHICH
000543: 36,2555           10004                           TCF      4
000544:
000545: 36,2556           00006        P63ZOOM            EXTEND                                         #  (4)   SET UP GUIDANCE.
000546: 36,2557           33137                           DCA      LUNLANAD
000547: 36,2560           53253                           DXCH     AVEGEXIT
000548:


000550:
000551: 36,2561           04674                           TC       IBNKCALL
000552: 36,2562           62415                           CADR     FLATOUT
000553: 36,2563           12571                           TCF      P40ZOOMA
000554:
000555: 36,2564           34737        P40ZOOM            CAF      BIT13                                 #  (4) THROTTLE THE DPS TO MAXIMUM THRUST.
000556: 36,2565           54055                           TS       THRUST
000557: 36,2566           34750                           CAF      BIT4
000558:
000559: 36,2567           00006                           EXTEND
000560: 36,2570           05014                           WOR      CHAN14
000561:
000562: 36,2571           05353        P40ZOOMA           TC       PHASCHNG
000563: 36,2572           00003                           OCT      3
000564: 36,2573           15261                           TCF      TASKOVER
000565:
000566:
000567:                                                                                                  #                ****************************************
000568:
000569: 36,2574           05504        COMFAIL            TC       UPFLAG                                #  (15)
000570: 36,2575           00161                           ADRES    IDLEFLAG
000571: 36,2576           05504                           TC       UPFLAG                                #  SET FLAG TO SUPPRESS CONFLICTING DISPLAY
000572: 36,2577           00175                           ADRES    FLUNDISP
000573: 36,2600           34751                           CAF      FOUR                                  #  RESET DVMON
000574: 36,2601           55513                           TS       DVCNTR
000575: 36,2602           10765                           CCS      PHASE6                                #  CLOCKTASK ACTIVE?
000576: 36,2603           12606                           TCF      +3                                    #  YES
000577: 36,2604           04616                           TC       BANKCALL                              #  OTHERWISE, START IT UP
000578: 36,2605           74666                           CADR     STCLOK1
000579: 36,2606           44242                 +3        CS       VB97DEX
000580: 36,2607           55163                           TS       DISPDEX
000581: 36,2610           05353                           TC       PHASCHNG                              #  TURN OFF GROUP 4.
000582: 36,2611           00004                           OCT      00004
000583: 36,2612           15155                           TCF      ENDOFJOB
000584:
000585: 36,2613           51453        COMFAIL1           INDEX    WHICH
000586: 36,2614           10002                           TCF      2
000587:
000588: 36,2615           30005        COMFAIL3           CA       Z                                     #  (15)       KILL CLOKTASK USING Z
000589: 36,2616           12620                           TCF      +2
000590:
000591: 36,2617           44747        COMFAIL4           CS       CNTDNDEX
000592: 36,2620           55163                           TS       DISPDEX
000593:
000594: 36,2621           05516                           TC       DOWNFLAG                              #  RECONNECT DV MONITOR
000595: 36,2622           00161                           ADRES    IDLEFLAG
000596: 36,2623           05516                           TC       DOWNFLAG                              #  PERMIT GUIDANCE LOOP DISPLAYS
000597: 36,2624           00175                           ADRES    FLUNDISP
000598: 36,2625           15155                           TCF      ENDOFJOB
000599:


000601: 36,2626           05353        COMFAIL2           TC       PHASCHNG                              #  KILL ZOOM RESTART PROTECTION
000602: 36,2627           00003                           OCT      00003
000603:
000604: 36,2630           00004                           INHINT
000605: 36,2631           06027                           TC       KILLTASK                              #  KILL ZOOM, IN CASE IT'S STILL TO COME
000606: 36,2632           74554                           CADR     ZOOM
000607: 36,2633           04674                           TC       IBNKCALL                              #  COMMAND ENGINE OFF
000608: 36,2634           75561                           CADR     ENGINOF4
000609: 36,2635           05504                           TC       UPFLAG                                #  SET THE DRIFT BIT FOR THE DAP.
000610: 36,2636           00312                           ADRES    DRIFTDFL
000611: 36,2637           02650                           TC       INVFLAG                               #  USE OTHER RCS SYSTEM
000612: 36,2640           00310                           ADRES    AORBTFLG
000613: 36,2641           05504                           TC       UPFLAG                                #  TURN ON ULLAGE
000614: 36,2642           00314                           ADRES    ULLAGFLG
000615: 36,2643           34753                           CAF      BIT1
000616: 36,2644           00004                           INHINT
000617: 36,2645           05173                           TC       TWIDDLE
000618: 36,2646           02343                           ADRES    TIG-5
000619: 36,2647           15155                           TCF      ENDOFJOB
000620:
000621:
000622:                                                                                                  #                ****************************************
000623:                                                                                                  #                SUBROUTINES OF THE IGNITION ROUTINE
000624:                                                                                                  #                ****************************************
000625:
000626: 36,2650           30002        INVFLAG            CA       Q
000627: 36,2651           05522                           TC       DEBIT
000628: 36,2652           40000                           COM
000629: 36,2653           00006                           EXTEND
000630: 36,2654           06001                           RXOR     LCHAN
000631: 36,2655           15511                           TCF      COMFLAG
000632:
000633:
000634:                                                                                                  #                ****************************************
000635:
000636: 36,2656           44746        NOULLAGE           CS       ULLAGER                               #  MUST BE CALLED IN A TASK OR UNDER INHINT
000637: 36,2657           70111                           MASK     DAPBOOLS
000638: 36,2660           54111                           TS       DAPBOOLS
000639: 36,2661           00002                           TC       Q
000640:
000641:
000642:                                                                                                  #                ****************************************
000643:
000644: 36,2662           40111        ONULLAGE           CS       DAPBOOLS                              #  TURN ON ULLAGE.  MUST BE CALLED IN
000645: 36,2663           74746                           MASK     ULLAGER                               #  A TASK OR WHILE INHINTED.
000646: 36,2664           26111                           ADS      DAPBOOLS
000647: 36,2665           00002                           TC       Q
000648:
000649:
000650:                                                                                                  #                ****************************************
000651:


000653:
000654: 36,2666           34755        STCLOK1            CA       ZERO                                  #  THIS ROUTINE STARTS THE COUNT-DOWN
000655: 36,2667           55163        STCLOK2            TS       DISPDEX                               #    (CLOKTASK AND CLOKJOB).   SETTING
000656: 36,2670           04645        STCLOK3            TC       MAKECADR                              #  SETTING DISPDEX POSITIVE KILLS IT.
000657: 36,2671           55061                           TS       TBASE4                                #  RETURN SAVE (NOT FOR RESTARTS)
000658: 36,2672           00006                           EXTEND
000659: 36,2673           31440                           DCA      TIG
000660: 36,2674           52155                           DXCH     MPAC
000661: 36,2675           00006                           EXTEND
000662: 36,2676           40025                           DCS      TIME2
000663: 36,2677           20155                           DAS      MPAC                                  #  HAVE TIG - TIME2, UNDOUBTEDLY A + NUMBER
000664: 36,2700           07256                           TC       TPAGREE                               #  POSITIVE, SINCE WE PASSED THE
000665: 36,2701           34777                           CAF      1SEC                                  #    45 SECOND CHECK
000666: 36,2702           54002                           TS       Q
000667: 36,2703           52155                           DXCH     MPAC
000668: 36,2704           74346                           MASK     LOW5                                  #  RESTRICT MAGNITUDE OF NUMBER IN A
000669: 36,2705           00006                           EXTEND
000670: 36,2706           10002                           DV       Q
000671: 36,2707           30001                           CA       L                                     #  GET REMAINDER
000672: 36,2710           64752                           AD       TWO
000673: 36,2711           00004                           INHINT
000674: 36,2712           05173                           TC       TWIDDLE
000675: 36,2713           02722                           ADRES    CLOKTASK
000676: 36,2714           05327                           TC       2PHSCHNG
000677: 36,2715           40036                           OCT      40036                                 #  6.3SPOT FOR CLOKTASK
000678: 36,2716           05024                           OCT      05024
000679: 36,2717           13000                           OCT      13000
000680:
000681: 36,2720           31061                           CA       TBASE4
000682: 36,2721           04640                           TC       BANKJUMP
000683:
000684:
000685: 36,2722           40025        CLOKTASK           CS       TIME1                                 #  SET TBASE6 FOR GROUP 6 RESTART
000686: 36,2723           55065                           TS       TBASE6
000687:
000688: 36,2724           11163                           CCS      DISPDEX
000689: 36,2725           12736                           TCF      KILLCLOK
000690: 36,2726           12727                           NOOP
000691: 36,2727           37714                           CAF      PRIO27
000692: 36,2730           05072                           TC       NOVAC
000693: 36,2731  E7,1451                                  EBANK=   TTOGO
000694: 36,2731           02742 74067                     2CADR    CLOKJOB
000695:
000696:
000697: 36,2733           05221                           TC       FIXDELAY                              #  WAIT A SECOND BEFORE STARTING OVER
000698: 36,2734           00144                           DEC      100        B-14
000699: 36,2735           12722                           TCF      CLOKTASK
000700:
000701: 36,2736           00006        KILLCLOK           EXTEND                                         #  KILL RESTART
000702:


000704: 36,2737           34755                           DCA      NEG0
000705: 36,2740           52765                           DXCH     -PHASE6
000706: 36,2741           15261                           TCF      TASKOVER
000707:
000708:
000709: 36,2742           00006        CLOKJOB            EXTEND
000710: 36,2743           41440                           DCS      TIG
000711: 36,2744           53452                           DXCH     TTOGO
000712: 36,2745           00006                           EXTEND
000713: 36,2746           30025                           DCA      TIME2
000714: 36,2747           21452                           DAS      TTOGO
000715: 36,2750           00004                           INHINT
000716: 36,2751           11163                           CCS      DISPDEX                               #  IF DISPDEX HAS BEEN SET POSITIVE BY A
000717: 36,2752           15155                           TCF      ENDOFJOB                              #  TASK OR A HIGHER PRIORITY JOB SINCE THE
000718: 36,2753           15155                           TCF      ENDOFJOB                              #  LAST CLOKTASK, AVOID USING IT AS AN
000719: 36,2754           40000                           COM                                            #  INDEX.
000720: 36,2755           00003                           RELINT                                         #  *****  DISPDEX MUST NEVER BE -0  *****
000721: 36,2756           50000                           INDEX    A
000722: 36,2757           13021                           TCF      DISPNOT    -1                         #  (-1 DUE TO EFFECT OF CCS)
000723:
000724: 36,2760     4242               VB97DEX            =        34DEC
000725:
000726: 36,2760           30371                 -42       CA       NVWORD     +2                         #  NVWORD+2 CONTAINS V06 & APPROPRIATE NOUN
000727: 36,2761           04616                           TC       BANKCALL
000728: 36,2762           20510                           CADR     GOFLASHR
000729: 36,2763           13023                           TCF      STOPCLOK                              #  TERMINATE CLOKTASK ON THE WAY TO P00H
000730: 36,2764           12613                           TCF      COMFAIL1
000731: 36,2765           12626                           TCF      COMFAIL2
000732: 36,2766           44755                           CS       ZERO
000733: 36,2767           55067        V97ORV99           TS       NVWORD1
000734: 36,2770           33146                           CAF      VB99CON
000735: 36,2771           05464                           TC       LINUS
000736: 36,2772           15155                           TCF      ENDOFJOB
000737:                                                                                                  #  THIS DISPLAY IS CALLED VIA ASTNCLOK.
000738: 36,2773           51453                 -27       INDEX    WHICH                                 #  IT IS PRIMARILY USED BY THE ASTRONAUT
000739: 36,2774           30001                           CAF      1                                     #  TO RESET HIS EVENT TIMER TO AGREE WITH
000740: 36,2775           04616                           TC       BANKCALL                              #  TIG.
000741: 36,2776           20335                           CADR     REFLASH
000742: 36,2777           13023                           TCF      STOPCLOK
000743: 36,3000           13040                           TCF      ASTNRETN
000744: 36,3001           12773                           TCF      -6
000745:
000746: 36,3002     4747               CNTDNDEX           =        OCT20                                 #  NEGATIVE OF THIS IS PROPER FOR DISPDEX
000747:
000748: 36,3002           51453                 -20       INDEX    WHICH                                 #  THIS DISPLAY COMES UP AT ONE SECOND
000749: 36,3003           30000                           CAF      0                                     #  INTERVALS.  IT IS NORMALLY OPERATED
000750: 36,3004           04616                           TC       BANKCALL                              #  BETWEEN TIG-30 SECONDS AND TIG-5 SECONDS
000751: 36,3005           20343                           CADR     REGODSP                               #  REGODSP DOES ITS OWN TCF ENDOFJOB
000752:
000753: 36,3006     5742               VB99DEX            =        OCT14                                 #  NEGATIVE OF THIS IS PROPER FOR DISPDEX
000754:


000756:
000757: 36,3006                        V99RECYC           EQUALS
000758:
000759: 36,3006           51453                 -14       INDEX    WHICH                                 #  THIS IS THE "PLEASE ENABLE ENGINE"
000760: 36,3007           30000                           CAF      0                                     #  DISPLAY; IT IS INITIATED AT TIG-5 SEC.
000761: 36,3010           04616                           TC       BANKCALL                              #  THE DISPLAY IS A V99NXX, WHERE XX IS THE
000762: 36,3011           20510                           CADR     GOFLASHR                              #  NOUN THAT HAD PREVIOUSLY BEEN DISPLAYED
000763: 36,3012           13023                           TCF      STOPCLOK                              #  TERMINATE  GOTOPOOH TURNS OFF ULLAGE.
000764: 36,3013           13051                           TCF      *PROCEED
000765: 36,3014           13054                           TCF      *ENTER
000766: 36,3015           44743                           CS       BIT9
000767: 36,3016           12767                           TCF      V97ORV99
000768:
000769: 36,3017           13020                           NOOP
000770: 36,3020     4752               BLANKDEX           =        TWO                                   #  NEGATIVE OF THIS IS PROPER FOR DISPDEX
000771:
000772: 36,3020           04616                 -2        TC       BANKCALL                              #  BLANK DSKY.  THE DSKY IS BLANKED FOR
000773: 36,3021           20334                           CADR     CLEANDSP                              #  5 SECONDS AT TIG-35 TO INDICATE THAT
000774: 36,3022           15155        DISPNOT            TCF      ENDOFJOB                              #  AVERAGE G IS STARTING.
000775:
000776:
000777: 36,3023           03025        STOPCLOK           TC       NULLCLOK                              #  STOP CLOKTASK & TURN OFF ULLAGE ON THE
000778: 36,3024           16001                           TCF      GOTOPOOH                              #      WAY TO P00  (GOTOPOOH RELINTS)
000779:
000780: 36,3025           00004        NULLCLOK           INHINT
000781: 36,3026           00006                           EXTEND
000782: 36,3027           23142                           QXCH     P40/RET
000783: 36,3030           02656                           TC       NOULLAGE                              #  TURN OFF ULLAGE ...
000784: 36,3031           06027                           TC       KILLTASK                              #     DON'T LET IT COME ON, EITHER ...
000785: 36,3032           74337                           CADR     ULLGTASK
000786: 36,3033           05353                           TC       PHASCHNG                              #           NOT EVEN IF THERE'S A RESTART.
000787: 36,3034           00001                           OCT      1
000788: 36,3035           30005                           CA       Z                                     #  KILL CLOKTASK
000789: 36,3036           55163                           TS       DISPDEX
000790: 36,3037           01142                           TC       P40/RET
000791:
000792:
000793: 36,3040           05353        ASTNRETN           TC       PHASCHNG
000794: 36,3041           04024                           OCT      04024
000795: 36,3042           34755                           CAF      ZERO                                  #  STOP DISPLAYING BUT KEEP RUNNING.
000796: 36,3043           55163                           TS       DISPDEX
000797: 36,3044           35023                           CAF      PRIO13
000798: 36,3045           05105                           TC       FINDVAC
000799: 36,3046  E5,1757                                  EBANK=   STARIND
000800: 36,3046           03203 64065                     2CADR    ASTNRET
000801: 36,3050           15155                           TCF      ENDOFJOB
000802:
000803:
000804: 36,3051           05504        *PROCEED           TC       UPFLAG
000805: 36,3052           00154                           ADRES    ASTNFLAG
000806:


000808: 36,3053           13112                           TCF      IGNITE
000809:
000810:
000811: 36,3054           00004        *ENTER             INHINT
000812: 36,3055           51453                           INDEX    WHICH
000813: 36,3056           10003                           TCF      3
000814:
000815:
000816: 36,3057           34644        GOPOST             CAF      PRIO12                                #  (3)  MUST BE LOWER PRIORITY THAN CLOKJOB
000817: 36,3060           05105                           TC       FINDVAC
000818: 36,3061  E7,1451                                  EBANK=   TTOGO
000819: 36,3061           03223 74067                     2CADR    POSTBURN
000820: 36,3063           00004                           INHINT                                         #  SET UP THE DAP FOR COASTING FLIGHT.
000821: 36,3064           04674                           TC       IBNKCALL
000822: 36,3065           40204                           CADR     ALLCOAST
000823: 36,3066           03025                           TC       NULLCLOK
000824: 36,3067           05353                           TC       PHASCHNG                              #  4.13 RESTART FOR POSTBURN
000825: 36,3070           00134                           OCT      00134
000826:
000827: 36,3071           15155                           TCF      ENDOFJOB
000828:
000829:
000830: 36,3072           35027        GOCUTOFF           CAF      PRIO17                                #  (3)
000831: 36,3073           05105                           TC       FINDVAC
000832: 36,3074  E7,1514                                  EBANK=   TGO
000833: 36,3074           03261 56067                     2CADR    CUTOFF
000834: 36,3076           05516                           TC       DOWNFLAG
000835: 36,3077           00175                           ADRES    FLUNDISP
000836:
000837: 36,3100           00004                           INHINT                                         #  SET UP THE DAP FOR COASTING FLIGHT.
000838: 36,3101           04674                           TC       IBNKCALL
000839: 36,3102           40204                           CADR     ALLCOAST
000840: 36,3103           03025                           TC       NULLCLOK
000841: 36,3104           05353                           TC       PHASCHNG
000842: 36,3105           07024                           OCT      07024
000843: 36,3106           17000                           OCT      17000
000844: 36,3107  E7,1514                                  EBANK=   TGO
000845: 36,3107           03261 56067                     2CADR    CUTOFF
000846: 36,3111           15155                           TCF      ENDOFJOB
000847:
000848:
000849: 36,3112           40103        IGNITE             CS       FLAGWRD7                              #  (2)
000850: 36,3113           74737                           MASK     IGNFLBIT
000851: 36,3114           10000                           CCS      A
000852: 36,3115           13126                           TCF      IGNITE1
000853: 36,3116           34753                           CAF      BIT1
000854: 36,3117           00004                           INHINT
000855:


000857: 36,3120           05173                           TC       TWIDDLE
000858: 36,3121           02411                           ADRES    IGNITION
000859:
000860: 36,3122           34360                           CAF      OCT23                                 #  IMMEDIATE RESTART AT IGNITION.
000861: 36,3123           54001                           TS       L
000862: 36,3124           40000                           COM
000863: 36,3125           52761                           DXCH     -PHASE4
000864:
000865: 36,3126           44747        IGNITE1            CS       CNTDNDEX                              #  RESTORE OLD DISPLAY.
000866: 36,3127           55163                           TS       DISPDEX
000867:
000868: 36,3130           15155                           TCF      ENDOFJOB
000869:
000870:
000871:                                                                                                  #                ****************************************
000872:
000873: 31,2172                                           BANK     31
000874: 35,2000                                           SETLOC   P40S2
000875: 35,2000                                           BANK
000876:
000877: 35,3707                                           COUNT*   $$/P40
000878:
000879: 35,3707           04645        P40AUTO            TC       MAKECADR                              #  HELLO THERE.
000880: 35,3710           55164                           TS       TEMPR60                               #  FOR GENERALIZED RETURN TO OTHER BANKS.
000881: 35,3711           04616        P40A/P             TC       BANKCALL                              #  SUBROUTINE TO CHECK PGNCS CONTROL
000882: 35,3712           54233                           CADR     G+N,AUTO                              #  AND AUTO STABILIZATION MODES
000883: 35,3713           10000                           CCS      A                                     #  +0  INDICATES IN PGNCS, IN AUTO
000884: 35,3714           13726                           TCF      TURNITON                              #  + INDICATES NOT IN PGNCS AND/OR AUTO
000885: 35,3715           34737                           CAF      APSFLBIT                              #  ARE WE ON THE DESCENT STAGE?
000886: 35,3716           70106                           MASK     FLGWRD10
000887: 35,3717           10000                           CCS      A
000888: 35,3720           13733                           TCF      GOBACK                                #  RETURN
000889: 35,3721           34747                           CAF      BIT5                                  #  YES, CHECK FOR AUTOTHROTTLE MODE
000890: 35,3722           00006                           EXTEND
000891: 35,3723           02030                           RAND     CHAN30
000892: 35,3724           00006                           EXTEND
000893: 35,3725           13733                           BZF      GOBACK                                #  IN AUTOTHROTTLE MODE -- RETURN
000894: 35,3726           33735        TURNITON           CAF      P40A/PMD                              #  DISPLAY V50N25 R1=203 PLEASE PERFORM
000895: 35,3727           04616                           TC       BANKCALL                              #  CHECKLIST 203 TURN ON PGNCS ETC.
000896: 35,3730           20476                           CADR     GOPERF1
000897: 35,3731           16001                           TCF      GOTOPOOH                              #  V34E  TERMINATE
000898: 35,3732           13711                           TCF      P40A/P                                #  RECYCLE
000899: 35,3733           31164        GOBACK             CA       TEMPR60
000900: 35,3734           04640                           TC       BANKJUMP                              #  GOODBYE.  COME AGAIN SOON.
000901:
000902:
000903: 35,3735           00203        P40A/PMD           OCT      00203
000904:
000905: 36,3131                                           BANK     36
000906: 36,2000                                           SETLOC   P40S
000907:


000909: 36,2000                                           BANK
000910:
000911: 36,3131                                           COUNT*   $$/P40
000912:
000913:                                                                                                  #                ****************************************
000914:                                                                                                  #                CONSTANTS FOR THE IGNITION ROUTINE
000915:                                                                                                  #                ****************************************
000916:
000917: 36,3131  36,2103               SERVCADR           =        P63TABLE   +7
000918:
000919: 36,3131           02036        P40ADRES           ADRES    P40TABLE
000920:
000921: 36,3132           02045        P41ADRES           ADRES    P41TABLE   -5
000922:
000923: 36,3133           02060        P42ADRES           ADRES    P42TABLE
000924:
000925: 36,3134  E7,1620                                  EBANK=   WCHPHASE
000926: 36,3134           03437 62067  DSP2CADR           2CADR    P63DISPS   -2
000927:
000928:
000929: 36,3136  E7,1620                                  EBANK=   WCHPHASE
000930: 36,3136           02522 62067  LUNLANAD           2CADR    LUNLAND
000931:
000932:
000933: 36,3140  E7,1513                                  EBANK=   DVCNTR
000934: 36,3140           03637 70067  ATMAGADR           2CADR    ATMAG
000935: 36,3142     6001               ?                  =        GOTOPOOH
000936:
000937: 36,3142           00000 05656  D29.9SEC           2DEC     2990       B-28
000938:
000939:
000940: 36,3144           04672        S24.9SEC           DEC      2490       B-14
000941:
000942: 36,3145           00752        4.9SEC             DEC      490        B-14
000943:
000944: 36,3146     4747               OCT20              =        BIT5
000945:
000946: 36,3146           24020        VB99CON            OCT      24020                                 #  BITS 5, 12, AND 14
000947:


000949:                                                                                                  #           KILLTASK
000950:                                                                                                  #  MOD NO: NEW PROGRAM
000951:                                                                                                  #  MOD BY: COVELLI
000952:
000953:
000954:                                                                                                  #  FUNCTIONAL DESCRIPTION:
000955:
000956:                                                                                                  #     KILLTASK IS USED TO REMOVE A TASK FROM THE WAITLIST BY SUBSTITUTING ANULL TASK CALLED 'NULLTASK' (OF COURSE),
000957:                                                                                                  #  WHICH MERELY DOES A TC TASKOVER. IF THE SAME TASK IS SCHEDULED MORE THAN ONCE, ONLY THE ONE WHICH WILL OCCUR
000958:                                                                                                  #  FIRST IS REMOVED. IF THE TASK IS NOT SCHEDULED, KILLTASK TAKES NO ACTION AND RETURNS WITH NO ALARM. KILLTASK
000959:                                                                                                  #  MUST BE CALLED IN INTERRUPT OR WITH INTERRUPT INHIBITED.
000960:
000961:                                                                                                  #  CALLING SEQUENCE:
000962:                                                                                                  #                                          L-1     (INHINT)
000963:                                                                                                  #                                          L        TC     KILLTASK       IN FIXED-FIXED
000964:                                                                                                  #                                          L+1      CADR   ????????       CADR (NOT 2CADR) OF TASK TO BE REMOVED.
000965:                                                                                                  #                                          L+2      (RELINT)              RETURN
000966:
000967:                                                                                                  #  EXIT MODE:  AT L+2 OF CALLING SEQUENCE.
000968:
000969:                                                                                                  #  ERASABLE INITIALIZATION=  NONE.
000970:
000971:                                                                                                  #  OUTPUT:  2CADR OF NULLTASK IN LST2
000972:
000973:                                                                                                  #  DEBRIS:  ITEMP1 - ITEMP4, A,L,Q.
000974:
000975: 36,3147  E3,1410                                  EBANK=   LST2
000976:    6027                                           BLOCK    3                                     #  KILLTASK MUST BE IN FIXED-FIXED.
000977:    6000                                           SETLOC   FFTAG6
000978:    6000                                           BANK
000979:    6027                                           COUNT*   $$/KILL
000980:    6027           36035        KILLTASK           CA       KILLBB
000981:    6030           22000                           LXCH     A
000982:    6031           50002                           INDEX    Q
000983:    6032           30000                           CA       0                                     #  GET CADR.
000984:    6033           22006                           LXCH     BBANK
000985:    6034           12223                           TCF      KILLTSK2                              #  CONTINUE IN SWITCHED FIXED
000986:
000987:    6035  E3,1410                                  EBANK=   LST2
000988:    6035           56063        KILLBB             BBCON    KILLTSK2
000989:
000990:
000991: 27,2223                                           BANK     27
000992:
000993: 27,2000                                           SETLOC   P40S1
000994: 27,2000                                           BANK
000995: 27,2223                                           COUNT*   $$/KILL
000996:
000997: 27,2223           22062        KILLTSK2           LXCH     ITEMP2                                #  SAVE CALLER'S BBANK
000998:


001000: 27,2224           24002                           INCR     Q
001001: 27,2225           00006                           EXTEND
001002: 27,2226           22061                           QXCH     ITEMP1                                #  RETURN 2CADR IN ITEMP1,ITEMP2
001003:
001004: 27,2227           54063                           TS       ITEMP3                                #  CADR IS IN A
001005: 27,2230           75012                           MASK     LOW10
001006: 27,2231           64741                           AD       BIT11
001007: 27,2232           54064                           TS       ITEMP4                                #  GENADR OF TASK
001008:
001009: 27,2233           45012                           CS       LOW10
001010: 27,2234           70063                           MASK     ITEMP3
001011: 27,2235           54063                           TS       ITEMP3                                #  FBANK OF TASK
001012:
001013: 27,2236           22007                           ZL
001014: 27,2237           50001        ADRSCAN            INDEX    L
001015: 27,2240           41410                           CS       LST2
001016: 27,2241           60064                           AD       ITEMP4                                #  COMPARE GENADRS
001017: 27,2242           00006                           EXTEND
001018: 27,2243           12255                           BZF      TSTFBANK                              #  IF THEY MATCH, COMPARE FBANKS
001019: 27,2244           44747        LETITLIV           CS       LSTLIM
001020: 27,2245           60001                           AD       L
001021: 27,2246           00006                           EXTEND                                         #  ARE WE DONE?
001022: 27,2247           12253                           BZF      DEAD                                  #  YES - DONE, SO RETURN
001023: 27,2250           24001                           INCR     L
001024: 27,2251           24001                           INCR     L
001025: 27,2252           12237                           TCF      ADRSCAN                               #  CONTINUE LOOP.
001026:
001027: 27,2253           52062        DEAD               DXCH     ITEMP1
001028: 27,2254           52006                           DTCB
001029:
001030: 27,2255           45012        TSTFBANK           CS       LOW10
001031: 27,2256           50001                           INDEX    L
001032: 27,2257           71411                           MASK     LST2       +1                         #  COMPARE FBANKS ONLY.
001033: 27,2260           00006                           EXTEND
001034: 27,2261           60063                           SU       ITEMP3
001035: 27,2262           00006                           EXTEND
001036: 27,2263           12265                           BZF      KILLDEAD                              #  MATCH - KILL IT.
001037: 27,2264           12244                           TCF      LETITLIV                              #  NO MATCH - CONTINUE.
001038:
001039: 27,2265           34353        KILLDEAD           CA       TCTSKOVR
001040: 27,2266           50001                           INDEX    L
001041: 27,2267           55410                           TS       LST2                                  #  REMOVE TASK BY INSERTING TASKOVER
001042: 27,2270           12253                           TCF      DEAD
001043:
001044: 27,2271     4747               LSTLIM             EQUALS   BIT5                                  #  DEC 16

End of include-file BURN,_BABY,_BURN_--_MASTER_IGNITION_ROUTINE.agc.  Parent file is MAIN.agc


