
Source Code


000002:                                                                                                  ## Copyright:   Public domain.
000003:                                                                                                  ## Filename:    BURN,_BABY,_BURN_--_MASTER_IGNITION_ROUTINE.agc
000004:                                                                                                  ## Purpose:     The main source file for Luminary revision 069.
000005:                                                                                                  ##              It is part of the source code for the original release
000006:                                                                                                  ##              of the flight software for the Lunar Module's (LM) Apollo
000007:                                                                                                  ##              Guidance Computer (AGC) for Apollo 10. The actual flown
000008:                                                                                                  ##              version was Luminary 69 revision 2, which included a
000009:                                                                                                  ##              newer lunar gravity model and only affected module 2.
000010:                                                                                                  ##              This file is intended to be a faithful transcription, except
000011:                                                                                                  ##              that the code format has been changed to conform to the
000012:                                                                                                  ##              requirements of the yaYUL assembler rather than the
000013:                                                                                                  ##              original YUL assembler.
000014:                                                                                                  ## Reference:   pp. 739-758
000015:                                                                                                  ## Assembler:   yaYUL
000016:                                                                                                  ## Contact:     Ron Burkey <info@sandroid.org>.
000017:                                                                                                  ## Website:     www.ibiblio.org/apollo/index.html
000018:                                                                                                  ## Mod history: 2016-12-13 MAS  Created from Luminary 99.
000019:                                                                                                  ##              2016-12-15 MAS  Updated from comment-proofed Luminary 99 version.
000020:                                                                                                  ##              2017-01-20 HG   Transcribed
000021:                                                                                                  ##              2017-01-22 HG   Shift pseudo label +3 to column 2
000022:                                                                                                  ##              2017-01-28 RSB  Proofed comment text using octopus/prooferComments
000023:                                                                                                  ##                              and fixed errors found.
000024:                                                                                                  ##              2017-03-16 RSB  Comment-text fixes identified in 5-way
000025:                                                                                                  ##                              side-by-side diff of Luminary 69/99/116/131/210.
000026:


000040:
000041: 36,2022                                           BANK     36
000042: 36,2000                                           SETLOC   P40S
000043: 36,2000                                           BANK
000044: 36,2022  E7,1453                                  EBANK=   WHICH
000045: 36,2022                                           COUNT*   $$/P40
000046:                                                                                                  #      THE MASTER IGNITION ROUTINE IS DESIGNED FOR USE BY THE FOLLOWING LEM PROGRAMS:  P12, P40, P42, P61, P63.
000047:                                                                                                  #  IT PERFORMS ALL FUNCTIONS IMMEDIATELY ASSOCIATED WITH APS OR DPS IGNITION:  IN PARTICULAR, EVERYTHING LYING
000048:                                                                                                  #  BETWEEN THE PRE-IGNITION TIME CHECK -- ARE WE WITHIN 45 SECONDS OF TIG? -- AND TIG + 26 SECONDS, WHEN DPS
000049:                                                                                                  #  PROGRAMS THROTTLE UP.
000050:
000051:                                                                                                  #      VARIATIONS AMONG PROGRAMS ARE ACCOMODATED BY MEANS OF TABLES CONTAINING CONSTANTS (FOR AVEGEXIT, FOR
000052:                                                                                                  #  WAITLIST, FOR PINBALL) AND TCF INSTRUCTIONS.   USERS PLACE THE ADRES OF THE HEAD OF THE APPROPRIATE TABLE
000053:                                                                                                  #  (OF P61TABLE FOR P61LM, FOR EXAMPLE) IN ERASABLE REGISTER 'WHICH' (E4).   THE IGNITION ROUTINE THEN INDEXES BY
000054:                                                                                                  #  WHICH TO OBTAIN OR EXECUTE THE PROPER TABLE ENTRY.   THE IGNITION ROUTINE IS INITIATED BY A TCF BURNBABY,
000055:                                                                                                  #  THROUGH BANKJUMP IF NECESSARY.   THERE IS NO RETURN.
000056:
000057:                                                                                                  #      THE MASTER IGNITION ROUTINE WAS CONCEIVED AND EXECUTED, AND (NOTA BENE) IS MAINTAINED BY ADLER AND EYLES.
000058:
000059:
000060:                                                                                                  #                                         HONI SOIT QUI MAL Y PENSE
000061:
000062:
000063:                                                                                                  #                                  ****************************************
000064:                                                                                                  #                                  TABLES FOR THE IGNITION ROUTINE
000065:                                                                                                  #                                  ****************************************
000066:
000067:                                                                                                  #                                              NOLI SE TANGERE
000068:
000069: 36,2022           01512        P12TABLE           VN       0674                                  #  (0)
000070: 36,2023           01512                           VN       0674                                  #  (1)
000071: 36,2024           12615                           TCF      COMFAIL3                              #  (2)
000072: 36,2025           13072                           TCF      GOCUTOFF                              #  (3)
000073: 36,2026           15261                           TCF      TASKOVER                              #  (4)
000074: 36,2027           12144                           TCF      P12SPOT                               #  (5)
000075: 36,2030           00000                           DEC      0          B-14                       #  (6)       NO ULLAGE
000076: 36,2031  E7,1453                                  EBANK=   WHICH
000077: 36,2031           03525 76067                     2CADR    SERVEXIT                              #  (7)
000078: 36,2033           12364                           TCF      DISPCHNG                              #  (11)
000079: 36,2034           12541                           TCF      WAITABIT                              #  (12)
000080: 36,2035           12506                           TCF      P12IGN                                #  (13)
000081:
000082:
000083:
000084: 36,2036           01450        P40TABLE           VN       0640                                  #  (0)
000085: 36,2037           01450                           VN       0640                                  #  (1)
000086: 36,2040           12617                           TCF      COMFAIL4                              #  (2)
000087: 36,2041           13057                           TCF      GOPOST                                #  (3)
000088: 36,2042           12564                           TCF      P40ZOOM                               #  (4)
000089: 36,2043           12144                           TCF      P40SPOT                               #  (5)
000090:


000092: 36,2044           04300                           DEC      2240       B-14                       #  (6)
000093: 36,2045  E6,1420                                  EBANK=   OMEGAQ
000094: 36,2045           03641 74066                     2CADR    STEERING                              #  (7)
000095: 36,2047           12360                           TCF      P40SJUNK                              #  (11)
000096: 36,2050           12541                           TCF      WAITABIT                              #  (12)
000097: 36,2051           12467                           TCF      P40IGN                                #  (13)
000098:
000099:
000100:
000101: 36,2052           12147        P41TABLE           TCF      P41SPOT                               #  (5)
000102: 36,2053           77776                           DEC      -1         B-14                       #  (6)
000103: 36,2054  E6,1420                                  EBANK=   OMEGAQ
000104: 36,2054           03376 74066                     2CADR    CALCN85                               #  (7)
000105:
000106: 36,2056           15261                           TCF      TASKOVER                              #  (11)
000107: 36,2057           12545                           TCF      TIGTASK                               #  (12)
000108:
000109:
000110:
000111: 36,2060           01450        P42TABLE           VN       0640                                  #  (0)
000112: 36,2061           01450                           VN       0640                                  #  (1)
000113: 36,2062           12617                           TCF      COMFAIL4                              #  (2)
000114: 36,2063           13057                           TCF      GOPOST                                #  (3)
000115: 36,2064           15261                           TCF      TASKOVER                              #  (4)
000116: 36,2065           12144                           TCF      P42SPOT                               #  (5)
000117: 36,2066           05120                           DEC      2640       B-14                       #  (6)
000118: 36,2067  E6,1420                                  EBANK=   OMEGAQ
000119: 36,2067           03641 74066                     2CADR    STEERING                              #  (7)
000120: 36,2071           12360                           TCF      P40SJUNK                              #  (11)
000121: 36,2072           12541                           TCF      WAITABIT                              #  (12)
000122: 36,2073           12516                           TCF      P42IGN                                #  (13)
000123:
000124:
000125:
000126: 36,2074           01476        P63TABLE           VN       0662                                  #  (0)
000127: 36,2075           01475                           VN       0661                                  #  (1)
000128: 36,2076           12615                           TCF      COMFAIL3                              #  (2)
000129: 36,2077           13006                           TCF      V99RECYC                              #  (3)
000130: 36,2100           12556                           TCF      P63ZOOM                               #  (4)
000131: 36,2101           12147                           TCF      P63SPOT                               #  (5)
000132: 36,2102           04300                           DEC      2240       B-14                       #  (6)
000133: 36,2103  E7,1453                                  EBANK=   WHICH
000134: 36,2103           03525 76067                     2CADR    SERVEXIT                              #  (7)
000135: 36,2105           12364                           TCF      DISPCHNG                              #  (11)
000136: 36,2106           12541                           TCF      WAITABIT                              #  (12)
000137: 36,2107           12440                           TCF      P63IGN                                #  (13)
000138:


000140:
000141: 36,2110           01477        ABRTABLE           VN       0663                                  #  (0)
000142: 36,2111           12112                           NOOP                                           #  (1)
000143: 36,2112           12615                           TCF      COMFAIL3                              #  (2)
000144: 36,2113           13072                           TCF      GOCUTOFF                              #  (3)
000145: 36,2114           15261                           TCF      TASKOVER                              #  (4)
000146: 36,2115           12116                           NOOP                                           #  (5)
000147: 36,2116           12117                           NOOP                                           #  (6)
000148: 36,2117           12120                           NOOP                                           #  (7)
000149: 36,2120           12121                           NOOP
000150: 36,2121           12364                           TCF      DISPCHNG                              #  (11)
000151: 36,2122           12541                           TCF      WAITABIT                              #  (12)
000152: 36,2123           12503                           TCF      ABRTIGN                               #  (13)
000153:
000154:
000155:
000156:                                                                                                  #                ****************************************
000157:                                                                                                  #                GENERAL PURPOSE IGNITION ROUTINES
000158:                                                                                                  #                ****************************************
000159:
000160: 36,2124           05353        BURNBABY           TC       PHASCHNG                              #  GROUP 4 RESTARTS HERE
000161: 36,2125           04024                           OCT      04024
000162:
000163: 36,2126           34755                           CAF      ZERO                                  #  EXTIRPATE JUNK LEFT IN DVTOTAL
000164: 36,2127           55505                           TS       DVTOTAL
000165: 36,2130           55506                           TS       DVTOTAL    +1
000166:
000167: 36,2131           04616                           TC       BANKCALL                              #  P40AUTO MUST BE BANKCALLED EVEN FROM ITS
000168: 36,2132           73707                           CADR     P40AUTO                               #    OWN BANK TO SET UP RETURN PROPERLY
000169:
000170: 36,2133           00006        B*RNB*B*           EXTEND
000171: 36,2134           31440                           DCA      TIG                                   #  STORE NOMINAL TIG FOR OBLATENESS COMP.
000172: 36,2135           53510                           DXCH     GOBLTIME                              #  AND FOR P70 OR P71.
000173:
000174: 36,2136           00004                           INHINT
000175: 36,2137           04674                           TC       IBNKCALL
000176: 36,2140           75564                           CADR     ENGINOF3
000177: 36,2141           00003                           RELINT
000178:
000179: 36,2142           51453                           INDEX    WHICH
000180: 36,2143           10005                           TCF      5
000181:
000182:
000183: 36,2144  36,2144               P12SPOT            =        P40SPOT                               #  (5)
000184: 36,2144  36,2144               P42SPOT            =        P40SPOT                               #  (5)
000185: 36,2144  36,2147               P63SPOT            =        P41SPOT                               #  (5)      IN P63 CLOKTASK ALREADY GOING
000186: 36,2144           44747        P40SPOT            CS       OCT20                                 #  (5)
000187: 36,2145           04616                           TC       BANKCALL                              #  MUST BE BANKCALLED FOR GENERALIZED
000188: 36,2146           74667                           CADR     STCLOK2                               #        RETURN
000189: 36,2147           06036        P41SPOT            TC       INTPRET                               #  (5)
000190: 36,2150           45345                           DLOAD    DSU
000191:


000193: 36,2151           03440                                    TIG
000194: 36,2152           35143                                    D29.9SEC
000195: 36,2153           34041                           STCALL   TDEC1
000196: 36,2154           61055                                    INITCDUW
000197: 36,2155           45014                           BOFF     CALL
000198: 36,2156           03347                                    MUNFLAG
000199: 36,2157           74176                                    GOMIDAV
000200: 36,2160           27043                                    CSMPREC
000201: 36,2161           64375                           VLOAD    MXV
000202: 36,2162           00025                                    VATT1
000203: 36,2163           01734                                    REFSMMAT
000204: 36,2164           77762                           VSR1
000205: 36,2165           25726                           STOVL    V(CSM)                                #  CSM VELOCITY - M/CS*2(7)
000206: 36,2166           00017                                    RATT1
000207: 36,2167           64312                           VSL4     MXV
000208: 36,2170           01734                                    REFSMMAT
000209: 36,2171           35720                           STCALL   R(CSM)                                #  CSM POSITION - M*2(24)
000210: 36,2172           67162                                    MUNGRAV
000211: 36,2173           16323                           STODL    G(CSM)                                #  CSM GRAVITY VEC. - M/CS*2(7)
000212: 36,2174           00015                                    TAT
000213: 36,2175           00041                           STORE    TDEC1                                 #  RELOAD TDEC1 FOR MIDTOAV.
000214: 36,2176           77624        GOMIDAV            CALRB
000215: 36,2177           27603                                    MIDTOAV1
000216: 36,2200           12207                           TCF      CALLT-35                              #  MADE IT IN TIME.
000217:
000218: 36,2201           00006                           EXTEND                                         #  TIG WAS SLIPPED, SO RESET TIG TO 29.9
000219: 36,2202           31557                           DCA      PIPTIME1                              #  SECONDS AFTER THE TIME TO WHICH WE DID
000220: 36,2203           53440                           DXCH     TIG                                   #  INTEGRATE.
000221: 36,2204           00006                           EXTEND
000222: 36,2205           33143                           DCA      D29.9SEC
000223: 36,2206           21440                           DAS      TIG
000224:
000225: 36,2207           52155        CALLT-35           DXCH     MPAC
000226: 36,2210           53476                           DXCH     SAVET-30                              #  DELTA-T UNTIL TIG-30
000227: 36,2211           00006                           EXTEND
000228: 36,2212           43741                           DCS      5SECDP
000229: 36,2213           21476                           DAS      SAVET-30                              #  DELTA-T UNTIL TIG-35
000230: 36,2214           00006                           EXTEND
000231: 36,2215           31476                           DCA      SAVET-30
000232: 36,2216           05277                           TC       LONGCALL
000233: 36,2217  E7,1451                                  EBANK=   TTOGO
000234: 36,2217           02236 74067                     2CADR    TIG-35
000235: 36,2221           05353                           TC       PHASCHNG
000236: 36,2222           20254                           OCT      20254                                 #  4.25SPOT FOR TIG-35 RESTART.
000237:
000238: 36,2223           05321                           TC       CHECKMM
000239: 36,2224           00077                           DEC      63         B-14
000240: 36,2225           15155                           TCF      ENDOFJOB                              #  NOT P63
000241: 36,2226           44747                           CS       CNTDNDEX                              #  P63 CAN START DISPLAYING NOW.
000242:


000244: 36,2227           55163                           TS       DISPDEX
000245: 36,2230           06036                           TC       INTPRET
000246: 36,2231           51575                           VLOAD    ABVAL
000247: 36,2232           03551                                    VN1
000248: 36,2233           03470                           STORE    ABVEL                                 #  INITIALIZE ABVEL FOR P63 DISPLAY
000249: 36,2234           77776                           EXIT
000250: 36,2235           15155                           TCF      ENDOFJOB
000251:
000252:
000253:                                                                                                  #                ****************************************
000254:
000255: 36,2236           33741        TIG-35             CAF      5SEC
000256: 36,2237           05173                           TC       TWIDDLE
000257: 36,2240           02274                           ADRES    TIG-30
000258:
000259: 36,2241           05353                           TC       PHASCHNG
000260: 36,2242           40154                           OCT      40154                                 #  4.15SPOT FOR TIG-30 RESTART
000261:
000262: 36,2243           44752                           CS       BLANKDEX                              #  BLANK DSKY FOR 5 SECONDS
000263: 36,2244           55163                           TS       DISPDEX
000264:
000265: 36,2245           51453                           INDEX    WHICH
000266: 36,2246           40006                           CS       6                                     #  CHECK ULLAGE TIME.
000267: 36,2247           00006                           EXTEND
000268: 36,2250           65261                           BZMF     TASKOVER
000269: 36,2251           33145                           CAF      4.9SEC                                #  SET UP TASK TO RESTORE DISPLAY AT TIG-30
000270: 36,2252           05173                           TC       TWIDDLE
000271: 36,2253           02264                           ADRES    TIG-30.1
000272:
000273: 36,2254           35027                           CAF      PRIO17                                #  A NEGATIVE ULLAGE TIME INDICATES P41, IN
000274: 36,2255           05072                           TC       NOVAC                                 #  WHICH CASE WE HAVE TO SET UP A JOB TO
000275: 36,2256  E7,1451                                  EBANK=   TTOGO                                 #  BLANK THE DSKY FOR FIVE SECONDS, SINCE
000276: 36,2256           02261 74067                     2CADR    P41BLANK                              #  CLOKJOB IS NOT RUNNING DURING P41.
000277:
000278: 36,2260           15261                           TCF      TASKOVER
000279:
000280: 36,2261           04616        P41BLANK           TC       BANKCALL                              #  BLANK DSKY.
000281: 36,2262           20334                           CADR     CLEANDSP
000282: 36,2263           15155                           TCF      ENDOFJOB
000283:
000284: 36,2264           35027        TIG-30.1           CAF      PRIO17                                #  SET UP JOB TO RESTORE DISPLAY AT TIG-30
000285: 36,2265           05072                           TC       NOVAC
000286: 36,2266  E7,1451                                  EBANK=   TTOGO
000287: 36,2266           02271 74067                     2CADR    TIG-30A
000288: 36,2270           15261                           TCF      TASKOVER
000289:
000290: 36,2271           33744        TIG-30A            CAF      V16N85B
000291: 36,2272           04616                           TC       BANKCALL                              #  RESTORE DISPLAY.
000292: 36,2273           20343                           CADR     REGODSP                               #  REGODSP DOES A TCF ENDOFJOB
000293:


000295:
000296:                                                                                                  #                *****************************************
000297:
000298:
000299: 36,2274           33144        TIG-30             CAF      S24.9SEC
000300: 36,2275           05173                           TC       TWIDDLE
000301: 36,2276           02343                           ADRES    TIG-5
000302:
000303: 36,2277           44747                           CS       CNTDNDEX                              #  START UP CLOKTASK AGAIN
000304: 36,2300           55163                           TS       DISPDEX
000305:
000306: 36,2301           51453                           INDEX    WHICH                                 #  PICK UP APPROPRIATE ULLAGE-ON TIME
000307: 36,2302           30006                           CAF      6
000308: 36,2303           00006                           EXTEND
000309: 36,2304           62316                           BZMF     ULLGNOT                               #  DON'T SET UP ULLAGE IF DT IS NEG OR ZERO
000310: 36,2305           55475                           TS       SAVET-30                              #  SAVE DELTA-T FOR RESTART
000311: 36,2306           05173                           TC       TWIDDLE
000312: 36,2307           02337                           ADRES    ULLGTASK
000313:
000314: 36,2310           36244                           CA       THREE                                 #  RESTART PROTECT ULLGTASK (1.3SPOT)
000315: 36,2311           54001                           TS       L
000316: 36,2312           46244                           CS       THREE
000317: 36,2313           52753                           DXCH     -PHASE1
000318: 36,2314           40025                           CS       TIME1
000319: 36,2315           55053                           TS       TBASE1
000320:
000321: 36,2316           00006        ULLGNOT            EXTEND
000322: 36,2317           51453                           INDEX    WHICH
000323: 36,2320           30010                           DCA      7                                     #  LOAD AVEGEXIT WITH APPROPRIATE 2CADR
000324: 36,2321           53253                           DXCH     AVEGEXIT
000325:
000326: 36,2322           34752                           CAF      TWO                                   #  4.2SPOT RESTARTS IMMEDIATELY AT REDO4.2
000327: 36,2323           54001                           TS       L
000328: 36,2324           44752                           CS       TWO                                   #  AND ALSO AT TIG-5 AT THE CORRECT TIME.
000329: 36,2325           52761                           DXCH     -PHASE4
000330:
000331: 36,2326           40025                           CS       TIME1
000332: 36,2327           55061                           TS       TBASE4                                #  SET TBASE4 FOR TIG-5 RESTART
000333:
000334: 36,2330           00006        REDO2.17           EXTEND
000335: 36,2331           34755                           DCA      NEG0                                  #  CLEAR OUT GROUP 2 SO LAMBERT CAN START
000336: 36,2332           52755                           DXCH     -PHASE2                               #        IF NEEDED.
000337:
000338: 36,2333           10763        REDO4.2            CCS      PHASE5                                #  IS SERVICER GOING?
000339: 36,2334           15261                           TCF      TASKOVER                              #  YES, DON'T START IT UP AGAIN.
000340:
000341: 36,2335           04635                           TC       POSTJUMP
000342: 36,2336           77374                           CADR     PREREAD                               #  PREREAD ENDS THIS TASK
000343:
000344:
000345:                                                                                                  #                ****************************************
000346:


000348:
000349: 36,2337           02662        ULLGTASK           TC       ONULLAGE                              #  THIS COMES AT TIG-7.5 OR TIG-3.5
000350: 36,2340           05353                           TC       PHASCHNG
000351: 36,2341           00001                           OCT      1
000352: 36,2342           15261                           TCF      TASKOVER
000353:
000354:
000355:                                                                                                  #                ****************************************
000356:
000357: 36,2343           33741        TIG-5              CAF      5SEC
000358: 36,2344           05173                           TC       TWIDDLE
000359: 36,2345           02367                           ADRES    TIG-0
000360:
000361: 36,2346           05516                           TC       DOWNFLAG                              #  RESET IGNFLAG AND ASTNFLAG
000362: 36,2347           00153                           ADRES    IGNFLAG                               #    FOR LIGHT-UP LOGIC
000363: 36,2350           05516                           TC       DOWNFLAG
000364: 36,2351           00154                           ADRES    ASTNFLAG
000365:
000366: 36,2352           05327                           TC       2PHSCHNG
000367: 36,2353           40074                           OCT      40074                                 #  RESTART TIG-0 (4.7SPOT)
000368: 36,2354           05013                           OCT      05013                                 #  RESTART HERE (FOR S40.13 IF NEEDED)
000369: 36,2355           77777                           OCT      77777
000370:
000371: 36,2356           51453                           INDEX    WHICH
000372: 36,2357           10011                           TCF      11
000373:
000374: 36,2360           34736        P40SJUNK           CAF      PRIO20                                #  (11)     P40 AND P42 COME HERE
000375: 36,2361           05105                           TC       FINDVAC
000376: 36,2362  E7,1451                                  EBANK=   TTOGO
000377: 36,2362           02574 56067                     2CADR    S40.13
000378:
000379:
000380: 36,2364           45742        DISPCHNG           CS       VB99DEX                               #  (11)
000381: 36,2365           55163                           TS       DISPDEX
000382: 36,2366           15261                           TCF      TASKOVER
000383:
000384:
000385:                                                                                                  #                ****************************************
000386:
000387: 36,2367           40103        TIG-0              CS       FLAGWRD7                              #  SET IGNFLAG SINCE TIG HAS ARRIVED
000388: 36,2370           74737                           MASK     IGNFLBIT
000389: 36,2371           26103                           ADS      FLAGWRD7
000390:
000391: 36,2372           05321                           TC       CHECKMM                               #  IN P63 CASE, THROTTLE-UP IS ZOOMTIME
000392: 36,2373           00077                           DEC      63         B-14                       #    AFTER NOMINAL IGNITION, NOT ACTUAL
000393: 36,2374           12404                           TCF      IGNYET?
000394: 36,2375           31424                           CA       ZOOMTIME
000395: 36,2376           05173                           TC       TWIDDLE
000396: 36,2377           02554                           ADRES    ZOOM
000397:


000399: 36,2400           05327                           TC       2PHSCHNG
000400: 36,2401           40033                           OCT      40033
000401:
000402: 36,2402           05014                           OCT      05014
000403: 36,2403           77777                           OCT      77777
000404:
000405: 36,2404           34740        IGNYET?            CAF      ASTNBIT                               #  CHECK ASTNFLAG:  HAS ASTRONAUT RESPONDED
000406: 36,2405           70103                           MASK     FLAGWRD7                              #    TO OUR ENGINE ENABLE REQUEST?
000407: 36,2406           00006                           EXTEND
000408: 36,2407           51453                           INDEX    WHICH
000409: 36,2410           10012                           BZF      12                                    #  BRANCH IF HE HAS NOT RESPONDED YET
000410:
000411: 36,2411           40101        IGNITION           CS       FLAGWRD5                              #  INSURE ENGONFLG IS SET.
000412: 36,2412           74745                           MASK     ENGONBIT
000413: 36,2413           26101                           ADS      FLAGWRD5
000414: 36,2414           44355                           CS       PRIO30                                #  TURN ON THE ENGINE.
000415: 36,2415           00006                           EXTEND
000416: 36,2416           02011                           RAND     DSALMOUT
000417: 36,2417           64737                           AD       BIT13
000418: 36,2420           00006                           EXTEND
000419: 36,2421           01011                           WRITE    DSALMOUT
000420: 36,2422           00006                           EXTEND                                         #  SET TEVENT FOR DOWNLINK
000421: 36,2423           30025                           DCA      TIME2
000422: 36,2424           53345                           DXCH     TEVENT
000423:
000424: 36,2425           00006                           EXTEND                                         #  UPDATE TIG USING TGO FROM S40.13
000425: 36,2426           31515                           DCA      TGO
000426: 36,2427           53440                           DXCH     TIG
000427: 36,2430           00006                           EXTEND
000428: 36,2431           30025                           DCA      TIME2
000429: 36,2432           21440                           DAS      TIG
000430:
000431: 36,2433           44742                           CS       FLUNDBIT                              #  PERMIT GUIDANCE LOOP DISPLAYS
000432: 36,2434           70104                           MASK     FLAGWRD8
000433: 36,2435           54104                           TS       FLAGWRD8
000434:
000435: 36,2436           51453                           INDEX    WHICH
000436: 36,2437           10013                           TCF      13
000437:
000438: 36,2440           00006        P63IGN             EXTEND                                         #  (13)     INITIATE BURN DISPLAYS
000439: 36,2441           33135                           DCA      DSP2CADR
000440: 36,2442           53253                           DXCH     AVGEXIT
000441:
000442: 36,2443           30005                           CA       Z                                     #  ASSASSINATE CLOKTASK
000443: 36,2444           55163                           TS       DISPDEX
000444:
000445: 36,2445           40105                           CS       FLAGWRD9                              #  SET FLAG FOR P70-P71
000446: 36,2446           74743                           MASK     LETABBIT
000447: 36,2447           26105                           ADS      FLAGWRD9
000448:


000450: 36,2450           40103                           CS       FLAGWRD7                              #  SET SWANDISP TO ENABLE R10.
000451: 36,2451           74741                           MASK     SWANDBIT
000452: 36,2452           26103                           ADS      FLAGWRD7
000453:
000454: 36,2453           44735                           CS       PULSES                                #  MAKE SURE DAP IS NOT IN MINIMUM-IMPULSE
000455: 36,2454           70111                           MASK     DAPBOOLS                              #    MODE, IN CASE OF SWITCH TO P66
000456: 36,2455           54111                           TS       DAPBOOLS
000457:
000458: 36,2456           00006                           EXTEND                                         #  INITIALIZE TIG FOR P70 AND P71.
000459: 36,2457           30025                           DCA      TIME2
000460: 36,2460           53440                           DXCH     TIG
000461:
000462: 36,2461           34755                           CAF      ZERO                                  #  INITIALIZE WCHPHASE AND FLPASSO
000463: 36,2462           55620                           TS       WCHPHASE
000464: 36,2463           55617                           TS       WCHPHOLD                              #  ALSO WHCPHOLD
000465: 36,2464           34752                           CA       TWO
000466: 36,2465           55621                           TS       FLPASS0
000467:
000468: 36,2466           12516                           TCF      P42IGN
000469: 36,2467           40101        P40IGN             CS       FLAGWRD5                              #  (13)
000470: 36,2470           74740                           MASK     NOTHRBIT
000471: 36,2471           00006                           EXTEND
000472: 36,2472           12516                           BZF      P42IGN
000473: 36,2473           31424                           CA       ZOOMTIME                              #  WAITLIST FOR ZOOM (FLATOUT. ETC.)
000474: 36,2474           05173                           TC       TWIDDLE
000475: 36,2475           02554                           ADRES    ZOOM
000476:
000477: 36,2476           05327        P63IGN1            TC       2PHSCHNG
000478: 36,2477           40033                           OCT      40033                                 #  3.3SPOT FOR ZOOM RESTART.
000479: 36,2500           05014                           OCT      05014                                 #  TYPE C   RESTARTS HERE IMMEDIATELY
000480: 36,2501           77777                           OCT      77777
000481:
000482: 36,2502           12516                           TCF      P42IGN
000483: 36,2503           05321        ABRTIGN            TC       CHECKMM                               #  (13) BRANCH TO APPROPRIATE ABORT
000484: 36,2504           00107                           DEC      71         B-14                       #  ENGINE-ON SEQUENCE.
000485: 36,2505           12516                           TCF      P42IGN                                #  CONTINUE ENGINE-ON SEQUENCE
000486: 36,2506           30005        P12IGN             CA       Z                                     #  (13)     KILL CLOKTASK
000487: 36,2507           55163                           TS       DISPDEX
000488:
000489: 36,2510           00006                           EXTEND                                         #  CONNECT ASCENT GYIDANCE TO SERVICER.
000490: 36,2511           33141                           DCA      ATMAGADR
000491: 36,2512           53253                           DXCH     AVGEXIT
000492:
000493: 36,2513           40103                           CS       FLAGWRD7                              #  ENABLE R10.
000494: 36,2514           74741                           MASK     SWANDBIT
000495: 36,2515           26103                           ADS      FLAGWRD7
000496:
000497: 36,2516           44744        P42IGN             CS       DRIFTBIT                              #  ENSURE THAT POWERED-FLIGHT SWITCHING
000498: 36,2517           44744                           CS       DRIFTBIT                              #  ENSURE THAT POWERED-FLIGHT SWITCHING
000499: 36,2520           70111                           MASK     DAPBOOLS                              #    CURVES ARE USED.
000500:


000502: 36,2521           54111                           TS       DAPBOOLS
000503: 36,2522           34743                           CAF      IMPULBIT                              #  EXAMINE IMPULSE SWITCH
000504: 36,2523           70076                           MASK     FLAGWRD2
000505: 36,2524           10000                           CCS      A
000506: 36,2525           13522                           TCF      IMPLBURN
000507:
000508: 36,2526           05516        DVMONCON           TC       DOWNFLAG
000509: 36,2527           00153                           ADRES    IGNFLAG                               #  CONNECT DVMON
000510: 36,2530           05516                           TC       DOWNFLAG
000511: 36,2531           00154                           ADRES    ASTNFLAG
000512: 36,2532           05516                           TC       DOWNFLAG
000513: 36,2533           00161                           ADRES    IDLEFLAG
000514:
000515: 36,2534           05353                           TC       PHASCHNG
000516: 36,2535           40054                           OCT      40054
000517:
000518: 36,2536           05221                           TC       FIXDELAY                              #  TURN ULLAGE OFF HALF A SECOND AFTER
000519: 36,2537           00062                           DEC      50         B-14                       #  LIGHT UP.
000520:
000521: 36,2540           02656        ULLAGOFF           TC       NOULLAGE
000522:
000523: 36,2541           00006        WAITABIT           EXTEND                                         #  KILL GROUP 4
000524: 36,2542           34755                           DCA      NEG0
000525: 36,2543           52761                           DXCH     -PHASE4
000526:
000527: 36,2544           15261                           TCF      TASKOVER
000528:
000529:
000530:                                                                                                  #                ****************************************
000531:
000532: 36,2545           35026        TIGTASK            CAF      PRIO16                                #  TIGNOW MUST BE A JOB.
000533: 36,2546           05072                           TC       NOVAC
000534: 36,2547  E7,1460                                  EBANK=   TRKMKCNT
000535: 36,2547           03241 74067                     2CADR    TIGNOW
000536: 36,2551           05353                           TC       PHASCHNG
000537: 36,2552           00006                           OCT      6                                     #  KILL GROUP 6.
000538:
000539: 36,2553           15261                           TCF      TASKOVER
000540:
000541:
000542:                                                                                                  #                ****************************************
000543:
000544: 36,2554           51453        ZOOM               INDEX    WHICH
000545: 36,2555           10004                           TCF      4
000546:
000547: 36,2556           00006        P63ZOOM            EXTEND                                         #  (4)   SET UP GUIDANCE.
000548: 36,2557           33137                           DCA      LUNLANAD
000549: 36,2560           53253                           DXCH     AVEGEXIT
000550:


000552:
000553: 36,2561           04674                           TC       IBNKCALL
000554: 36,2562           62415                           CADR     FLATOUT
000555: 36,2563           12571                           TCF      P40ZOOMA
000556:
000557: 36,2564           34737        P40ZOOM            CAF      BIT13                                 #  (4) THROTTLE THE DPS TO MAXIMUM THRUST.
000558: 36,2565           54055                           TS       THRUST
000559: 36,2566           34750                           CAF      BIT4
000560:
000561: 36,2567           00006                           EXTEND
000562: 36,2570           05014                           WOR      CHAN14
000563:
000564: 36,2571           05353        P40ZOOMA           TC       PHASCHNG
000565: 36,2572           00003                           OCT      3
000566: 36,2573           15261                           TCF      TASKOVER
000567:
000568:
000569:                                                                                                  #                ****************************************
000570:
000571: 36,2574           05504        COMFAIL            TC       UPFLAG                                #  (15)
000572: 36,2575           00161                           ADRES    IDLEFLAG
000573: 36,2576           05504                           TC       UPFLAG                                #  SET FLAG TO SUPPRESS CONFLICTING DISPLAY
000574: 36,2577           00175                           ADRES    FLUNDISP
000575: 36,2600           34751                           CAF      FOUR                                  #  RESET DVMON
000576: 36,2601           55513                           TS       DVCNTR
000577: 36,2602           10765                           CCS      PHASE6                                #  CLOCKTASK ACTIVE?
000578: 36,2603           12606                           TCF      +3                                    #  YES
000579: 36,2604           04616                           TC       BANKCALL                              #  OTHERWISE, START IT UP
000580: 36,2605           74666                           CADR     STCLOK1
000581: 36,2606           44242                 +3        CS       VB97DEX
000582: 36,2607           55163                           TS       DISPDEX
000583: 36,2610           05353                           TC       PHASCHNG                              #  TURN OFF GROUP 4.
000584: 36,2611           00004                           OCT      00004
000585: 36,2612           15155                           TCF      ENDOFJOB
000586:
000587: 36,2613           51453        COMFAIL1           INDEX    WHICH
000588: 36,2614           10002                           TCF      2
000589:
000590: 36,2615           30005        COMFAIL3           CA       Z                                     #  (15)       KILL CLOKTASK USING Z
000591: 36,2616           12620                           TCF      +2
000592:
000593: 36,2617           44747        COMFAIL4           CS       CNTDNDEX
000594: 36,2620           55163                           TS       DISPDEX
000595:
000596: 36,2621           05516                           TC       DOWNFLAG                              #  RECONNECT DV MONITOR
000597: 36,2622           00161                           ADRES    IDLEFLAG
000598: 36,2623           05516                           TC       DOWNFLAG                              #  PERMIT GUIDANCE LOOP DISPLAYS
000599: 36,2624           00175                           ADRES    FLUNDISP
000600: 36,2625           15155                           TCF      ENDOFJOB
000601:


000603: 36,2626           05353        COMFAIL2           TC       PHASCHNG                              #  KILL ZOOM RESTART PROTECTION
000604: 36,2627           00003                           OCT      00003
000605:
000606: 36,2630           00004                           INHINT
000607: 36,2631           06027                           TC       KILLTASK                              #  KILL ZOOM, IN CASE IT'S STILL TO COME
000608: 36,2632           74554                           CADR     ZOOM
000609: 36,2633           04674                           TC       IBNKCALL                              #  COMMAND ENGINE OFF
000610: 36,2634           75561                           CADR     ENGINOF4
000611: 36,2635           05504                           TC       UPFLAG                                #  SET THE DRIFT BIT FOR THE DAP.
000612: 36,2636           00312                           ADRES    DRIFTDFL
000613: 36,2637           02650                           TC       INVFLAG                               #  USE OTHER RCS SYSTEM
000614: 36,2640           00310                           ADRES    AORBTFLG
000615: 36,2641           05504                           TC       UPFLAG                                #  TURN ON ULLAGE
000616: 36,2642           00314                           ADRES    ULLAGFLG
000617: 36,2643           34753                           CAF      BIT1
000618: 36,2644           00004                           INHINT
000619: 36,2645           05173                           TC       TWIDDLE
000620: 36,2646           02343                           ADRES    TIG-5
000621: 36,2647           15155                           TCF      ENDOFJOB
000622:
000623:
000624:                                                                                                  #                ****************************************
000625:                                                                                                  #                SUBROUTINES OF THE IGNITION ROUTINE
000626:                                                                                                  #                ****************************************
000627:
000628: 36,2650           30002        INVFLAG            CA       Q
000629: 36,2651           05522                           TC       DEBIT
000630: 36,2652           40000                           COM
000631: 36,2653           00006                           EXTEND
000632: 36,2654           06001                           RXOR     LCHAN
000633: 36,2655           15511                           TCF      COMFLAG
000634:
000635:
000636:                                                                                                  #                ****************************************
000637:
000638: 36,2656           44746        NOULLAGE           CS       ULLAGER                               #  MUST BE CALLED IN A TASK OR UNDER INHINT
000639: 36,2657           70111                           MASK     DAPBOOLS
000640: 36,2660           54111                           TS       DAPBOOLS
000641: 36,2661           00002                           TC       Q
000642:
000643:
000644:                                                                                                  #                ****************************************
000645:
000646: 36,2662           40111        ONULLAGE           CS       DAPBOOLS                              #  TURN ON ULLAGE.  MUST BE CALLED IN
000647: 36,2663           74746                           MASK     ULLAGER                               #  A TASK OR WHILE INHINTED.
000648: 36,2664           26111                           ADS      DAPBOOLS
000649: 36,2665           00002                           TC       Q
000650:
000651:
000652:                                                                                                  #                ****************************************
000653:


000655:
000656: 36,2666           34755        STCLOK1            CA       ZERO                                  #  THIS ROUTINE STARTS THE COUNT-DOWN
000657: 36,2667           55163        STCLOK2            TS       DISPDEX                               #    (CLOKTASK AND CLOKJOB).   SETTING
000658: 36,2670           04645        STCLOK3            TC       MAKECADR                              #  SETTING DISPDEX POSITIVE KILLS IT.
000659: 36,2671           55061                           TS       TBASE4                                #  RETURN SAVE (NOT FOR RESTARTS)
000660: 36,2672           00006                           EXTEND
000661: 36,2673           31440                           DCA      TIG
000662: 36,2674           52155                           DXCH     MPAC
000663: 36,2675           00006                           EXTEND
000664: 36,2676           40025                           DCS      TIME2
000665: 36,2677           20155                           DAS      MPAC                                  #  HAVE TIG - TIME2, UNDOUBTEDLY A + NUMBER
000666: 36,2700           07256                           TC       TPAGREE                               #  POSITIVE, SINCE WE PASSED THE
000667: 36,2701           34777                           CAF      1SEC                                  #    45 SECOND CHECK
000668: 36,2702           54002                           TS       Q
000669: 36,2703           52155                           DXCH     MPAC
000670: 36,2704           74346                           MASK     LOW5                                  #  RESTRICT MAGNITUDE OF NUMBER IN A
000671: 36,2705           00006                           EXTEND
000672: 36,2706           10002                           DV       Q
000673: 36,2707           30001                           CA       L                                     #  GET REMAINDER
000674: 36,2710           64752                           AD       TWO
000675: 36,2711           00004                           INHINT
000676: 36,2712           05173                           TC       TWIDDLE
000677: 36,2713           02722                           ADRES    CLOKTASK
000678: 36,2714           05327                           TC       2PHSCHNG
000679: 36,2715           40036                           OCT      40036                                 #  6.3SPOT FOR CLOKTASK
000680: 36,2716           05024                           OCT      05024
000681: 36,2717           13000                           OCT      13000
000682:
000683: 36,2720           31061                           CA       TBASE4
000684: 36,2721           04640                           TC       BANKJUMP
000685:
000686:
000687: 36,2722           40025        CLOKTASK           CS       TIME1                                 #  SET TBASE6 FOR GROUP 6 RESTART
000688: 36,2723           55065                           TS       TBASE6
000689:
000690: 36,2724           11163                           CCS      DISPDEX
000691: 36,2725           12736                           TCF      KILLCLOK
000692: 36,2726           12727                           NOOP
000693: 36,2727           37714                           CAF      PRIO27
000694: 36,2730           05072                           TC       NOVAC
000695: 36,2731  E7,1451                                  EBANK=   TTOGO
000696: 36,2731           02742 74067                     2CADR    CLOKJOB
000697:
000698:
000699: 36,2733           05221                           TC       FIXDELAY                              #  WAIT A SECOND BEFORE STARTING OVER
000700: 36,2734           00144                           DEC      100        B-14
000701: 36,2735           12722                           TCF      CLOKTASK
000702:
000703: 36,2736           00006        KILLCLOK           EXTEND                                         #  KILL RESTART
000704:


000706: 36,2737           34755                           DCA      NEG0
000707: 36,2740           52765                           DXCH     -PHASE6
000708: 36,2741           15261                           TCF      TASKOVER
000709:
000710:
000711: 36,2742           00006        CLOKJOB            EXTEND
000712: 36,2743           41440                           DCS      TIG
000713: 36,2744           53452                           DXCH     TTOGO
000714: 36,2745           00006                           EXTEND
000715: 36,2746           30025                           DCA      TIME2
000716: 36,2747           21452                           DAS      TTOGO
000717: 36,2750           00004                           INHINT
000718: 36,2751           11163                           CCS      DISPDEX                               #  IF DISPDEX HAS BEEN SET POSITIVE BY A
000719: 36,2752           15155                           TCF      ENDOFJOB                              #  TASK OR A HIGHER PRIORITY JOB SINCE THE
000720: 36,2753           15155                           TCF      ENDOFJOB                              #  LAST CLOKTASK, AVOID USING IT AS AN
000721: 36,2754           40000                           COM                                            #  INDEX.
000722: 36,2755           00003                           RELINT                                         #  *****  DISPDEX MUST NEVER BE -0  *****
000723: 36,2756           50000                           INDEX    A
000724: 36,2757           13021                           TCF      DISPNOT    -1                         #  (-1 DUE TO EFFECT OF CCS)
000725:
000726: 36,2760     4242               VB97DEX            =        34DEC
000727:
000728: 36,2760           30371                 -42       CA       NVWORD     +2                         #  NVWORD+2 CONTAINS V06 & APPROPRIATE NOUN
000729: 36,2761           04616                           TC       BANKCALL
000730: 36,2762           20510                           CADR     GOFLASHR
000731: 36,2763           13023                           TCF      STOPCLOK                              #  TERMINATE CLOKTASK ON THE WAY TO P00H
000732: 36,2764           12613                           TCF      COMFAIL1
000733: 36,2765           12626                           TCF      COMFAIL2
000734: 36,2766           44755                           CS       ZERO
000735: 36,2767           55067        V97ORV99           TS       NVWORD1
000736: 36,2770           33146                           CAF      VB99CON
000737: 36,2771           05464                           TC       LINUS
000738: 36,2772           15155                           TCF      ENDOFJOB
000739:                                                                                                  #  THIS DISPLAY IS CALLED VIA ASTNCLOK.
000740: 36,2773           51453                 -27       INDEX    WHICH                                 #  IT IS PRIMARILY USED BY THE ASTRONAUT
000741: 36,2774           30001                           CAF      1                                     #  TO RESET HIS EVENT TIMER TO AGREE WITH
000742: 36,2775           04616                           TC       BANKCALL                              #  TIG.
000743: 36,2776           20335                           CADR     REFLASH
000744: 36,2777           13023                           TCF      STOPCLOK
000745: 36,3000           13040                           TCF      ASTNRETN
000746: 36,3001           12773                           TCF      -6
000747:
000748: 36,3002     4747               CNTDNDEX           =        OCT20                                 #  NEGATIVE OF THIS IS PROPER FOR DISPDEX
000749:
000750: 36,3002           51453                 -20       INDEX    WHICH                                 #  THIS DISPLAY COMES UP AT ONE SECOND
000751: 36,3003           30000                           CAF      0                                     #  INTERVALS.  IT IS NORMALLY OPERATED
000752: 36,3004           04616                           TC       BANKCALL                              #  BETWEEN TIG-30 SECONDS AND TIG-5 SECONDS
000753: 36,3005           20343                           CADR     REGODSP                               #  REGODSP DOES ITS OWN TCF ENDOFJOB
000754:
000755: 36,3006     5742               VB99DEX            =        OCT14                                 #  NEGATIVE OF THIS IS PROPER FOR DISPDEX
000756:


000758:
000759: 36,3006                        V99RECYC           EQUALS
000760:
000761: 36,3006           51453                 -14       INDEX    WHICH                                 #  THIS IS THE "PLEASE ENABLE ENGINE"
000762: 36,3007           30000                           CAF      0                                     #  DISPLAY; IT IS INITIATED AT TIG-5 SEC.
000763: 36,3010           04616                           TC       BANKCALL                              #  THE DISPLAY IS A V99NXX, WHERE XX IS THE
000764: 36,3011           20510                           CADR     GOFLASHR                              #  NOUN THAT HAD PREVIOUSLY BEEN DISPLAYED
000765: 36,3012           13023                           TCF      STOPCLOK                              #  TERMINATE  GOTOPOOH TURNS OFF ULLAGE.
000766: 36,3013           13051                           TCF      *PROCEED
000767: 36,3014           13054                           TCF      *ENTER
000768: 36,3015           44743                           CS       BIT9
000769: 36,3016           12767                           TCF      V97ORV99
000770:
000771: 36,3017           13020                           NOOP
000772: 36,3020     4752               BLANKDEX           =        TWO                                   #  NEGATIVE OF THIS IS PROPER FOR DISPDEX
000773:
000774: 36,3020           04616                 -2        TC       BANKCALL                              #  BLANK DSKY.  THE DSKY IS BLANKED FOR
000775: 36,3021           20334                           CADR     CLEANDSP                              #  5 SECONDS AT TIG-35 TO INDICATE THAT
000776: 36,3022           15155        DISPNOT            TCF      ENDOFJOB                              #  AVERAGE G IS STARTING.
000777:
000778:
000779: 36,3023           03025        STOPCLOK           TC       NULLCLOK                              #  STOP CLOKTASK & TURN OFF ULLAGE ON THE
000780: 36,3024           16001                           TCF      GOTOPOOH                              #      WAY TO P00  (GOTOPOOH RELINTS)
000781:
000782: 36,3025           00004        NULLCLOK           INHINT
000783: 36,3026           00006                           EXTEND
000784: 36,3027           23142                           QXCH     P40/RET
000785: 36,3030           02656                           TC       NOULLAGE                              #  TURN OFF ULLAGE ...
000786: 36,3031           06027                           TC       KILLTASK                              #     DON'T LET IT COME ON, EITHER ...
000787: 36,3032           74337                           CADR     ULLGTASK
000788: 36,3033           05353                           TC       PHASCHNG                              #           NOT EVEN IF THERE'S A RESTART.
000789: 36,3034           00001                           OCT      1
000790: 36,3035           30005                           CA       Z                                     #  KILL CLOKTASK
000791: 36,3036           55163                           TS       DISPDEX
000792: 36,3037           01142                           TC       P40/RET
000793:
000794:
000795: 36,3040           05353        ASTNRETN           TC       PHASCHNG
000796: 36,3041           04024                           OCT      04024
000797: 36,3042           34755                           CAF      ZERO                                  #  STOP DISPLAYING BUT KEEP RUNNING.
000798: 36,3043           55163                           TS       DISPDEX
000799: 36,3044           35023                           CAF      PRIO13
000800: 36,3045           05105                           TC       FINDVAC
000801: 36,3046  E5,1757                                  EBANK=   STARIND
000802: 36,3046           03203 64065                     2CADR    ASTNRET
000803: 36,3050           15155                           TCF      ENDOFJOB
000804:
000805:
000806: 36,3051           05504        *PROCEED           TC       UPFLAG
000807: 36,3052           00154                           ADRES    ASTNFLAG
000808:


000810: 36,3053           13112                           TCF      IGNITE
000811:
000812:
000813: 36,3054           00004        *ENTER             INHINT
000814: 36,3055           51453                           INDEX    WHICH
000815: 36,3056           10003                           TCF      3
000816:
000817:
000818: 36,3057           34644        GOPOST             CAF      PRIO12                                #  (3)  MUST BE LOWER PRIORITY THAN CLOKJOB
000819: 36,3060           05105                           TC       FINDVAC
000820: 36,3061  E7,1451                                  EBANK=   TTOGO
000821: 36,3061           03223 74067                     2CADR    POSTBURN
000822: 36,3063           00004                           INHINT                                         #  SET UP THE DAP FOR COASTING FLIGHT.
000823: 36,3064           04674                           TC       IBNKCALL
000824: 36,3065           40204                           CADR     ALLCOAST
000825: 36,3066           03025                           TC       NULLCLOK
000826: 36,3067           05353                           TC       PHASCHNG                              #  4.13 RESTART FOR POSTBURN
000827: 36,3070           00134                           OCT      00134
000828:
000829: 36,3071           15155                           TCF      ENDOFJOB
000830:
000831:
000832: 36,3072           35027        GOCUTOFF           CAF      PRIO17                                #  (3)
000833: 36,3073           05105                           TC       FINDVAC
000834: 36,3074  E7,1514                                  EBANK=   TGO
000835: 36,3074           03261 56067                     2CADR    CUTOFF
000836: 36,3076           05516                           TC       DOWNFLAG
000837: 36,3077           00175                           ADRES    FLUNDISP
000838:
000839: 36,3100           00004                           INHINT                                         #  SET UP THE DAP FOR COASTING FLIGHT.
000840: 36,3101           04674                           TC       IBNKCALL
000841: 36,3102           40204                           CADR     ALLCOAST
000842: 36,3103           03025                           TC       NULLCLOK
000843: 36,3104           05353                           TC       PHASCHNG
000844: 36,3105           07024                           OCT      07024
000845: 36,3106           17000                           OCT      17000
000846: 36,3107  E7,1514                                  EBANK=   TGO
000847: 36,3107           03261 56067                     2CADR    CUTOFF
000848: 36,3111           15155                           TCF      ENDOFJOB
000849:
000850:
000851: 36,3112           40103        IGNITE             CS       FLAGWRD7                              #  (2)
000852: 36,3113           74737                           MASK     IGNFLBIT
000853: 36,3114           10000                           CCS      A
000854: 36,3115           13126                           TCF      IGNITE1
000855: 36,3116           34753                           CAF      BIT1
000856: 36,3117           00004                           INHINT
000857:


000859: 36,3120           05173                           TC       TWIDDLE
000860: 36,3121           02411                           ADRES    IGNITION
000861:
000862: 36,3122           34360                           CAF      OCT23                                 #  IMMEDIATE RESTART AT IGNITION.
000863: 36,3123           54001                           TS       L
000864: 36,3124           40000                           COM
000865: 36,3125           52761                           DXCH     -PHASE4
000866:
000867: 36,3126           44747        IGNITE1            CS       CNTDNDEX                              #  RESTORE OLD DISPLAY.
000868: 36,3127           55163                           TS       DISPDEX
000869:
000870: 36,3130           15155                           TCF      ENDOFJOB
000871:
000872:
000873:                                                                                                  #                ****************************************
000874:
000875: 31,2172                                           BANK     31
000876: 35,2000                                           SETLOC   P40S2
000877: 35,2000                                           BANK
000878:
000879: 35,3707                                           COUNT*   $$/P40
000880:
000881: 35,3707           04645        P40AUTO            TC       MAKECADR                              #  HELLO THERE.
000882: 35,3710           55164                           TS       TEMPR60                               #  FOR GENERALIZED RETURN TO OTHER BANKS.
000883: 35,3711           04616        P40A/P             TC       BANKCALL                              #  SUBROUTINE TO CHECK PGNCS CONTROL
000884: 35,3712           54233                           CADR     G+N,AUTO                              #  AND AUTO STABILIZATION MODES
000885: 35,3713           10000                           CCS      A                                     #  +0  INDICATES IN PGNCS, IN AUTO
000886: 35,3714           13726                           TCF      TURNITON                              #  + INDICATES NOT IN PGNCS AND/OR AUTO
000887: 35,3715           34737                           CAF      APSFLBIT                              #  ARE WE ON THE DESCENT STAGE?
000888: 35,3716           70106                           MASK     FLGWRD10
000889: 35,3717           10000                           CCS      A
000890: 35,3720           13733                           TCF      GOBACK                                #  RETURN
000891: 35,3721           34747                           CAF      BIT5                                  #  YES, CHECK FOR AUTOTHROTTLE MODE
000892: 35,3722           00006                           EXTEND
000893: 35,3723           02030                           RAND     CHAN30
000894: 35,3724           00006                           EXTEND
000895: 35,3725           13733                           BZF      GOBACK                                #  IN AUTOTHROTTLE MODE -- RETURN
000896: 35,3726           33735        TURNITON           CAF      P40A/PMD                              #  DISPLAY V50N25 R1=203 PLEASE PERFORM
000897: 35,3727           04616                           TC       BANKCALL                              #  CHECKLIST 203 TURN ON PGNCS ETC.
000898: 35,3730           20476                           CADR     GOPERF1
000899: 35,3731           16001                           TCF      GOTOPOOH                              #  V34E  TERMINATE
000900: 35,3732           13711                           TCF      P40A/P                                #  RECYCLE
000901: 35,3733           31164        GOBACK             CA       TEMPR60
000902: 35,3734           04640                           TC       BANKJUMP                              #  GOODBYE.  COME AGAIN SOON.
000903:
000904:
000905: 35,3735           00203        P40A/PMD           OCT      00203
000906:
000907: 36,3131                                           BANK     36
000908: 36,2000                                           SETLOC   P40S
000909:


000911: 36,2000                                           BANK
000912:
000913: 36,3131                                           COUNT*   $$/P40
000914:
000915:                                                                                                  #                ****************************************
000916:                                                                                                  #                CONSTANTS FOR THE IGNITION ROUTINE
000917:                                                                                                  #                ****************************************
000918:
000919: 36,3131  36,2103               SERVCADR           =        P63TABLE   +7
000920:
000921: 36,3131           02036        P40ADRES           ADRES    P40TABLE
000922:
000923: 36,3132           02045        P41ADRES           ADRES    P41TABLE   -5
000924:
000925: 36,3133           02060        P42ADRES           ADRES    P42TABLE
000926:
000927: 36,3134  E7,1620                                  EBANK=   WCHPHASE
000928: 36,3134           03437 62067  DSP2CADR           2CADR    P63DISPS   -2
000929:
000930:
000931: 36,3136  E7,1620                                  EBANK=   WCHPHASE
000932: 36,3136           02522 62067  LUNLANAD           2CADR    LUNLAND
000933:
000934:
000935: 36,3140  E7,1513                                  EBANK=   DVCNTR
000936: 36,3140           03637 70067  ATMAGADR           2CADR    ATMAG
000937: 36,3142     6001               ?                  =        GOTOPOOH
000938:
000939: 36,3142           00000 05656  D29.9SEC           2DEC     2990       B-28
000940:
000941:
000942: 36,3144           04672        S24.9SEC           DEC      2490       B-14
000943:
000944: 36,3145           00752        4.9SEC             DEC      490        B-14
000945:
000946: 36,3146     4747               OCT20              =        BIT5
000947:
000948: 36,3146           24020        VB99CON            OCT      24020                                 #  BITS 5, 12, AND 14
000949:


000951:                                                                                                  #           KILLTASK
000952:                                                                                                  #  MOD NO: NEW PROGRAM
000953:                                                                                                  #  MOD BY: COVELLI
000954:
000955:
000956:                                                                                                  #  FUNCTIONAL DESCRIPTION:
000957:
000958:                                                                                                  #     KILLTASK IS USED TO REMOVE A TASK FROM THE WAITLIST BY SUBSTITUTING ANULL TASK CALLED 'NULLTASK' (OF COURSE),
000959:                                                                                                  #  WHICH MERELY DOES A TC TASKOVER. IF THE SAME TASK IS SCHEDULED MORE THAN ONCE, ONLY THE ONE WHICH WILL OCCUR
000960:                                                                                                  #  FIRST IS REMOVED. IF THE TASK IS NOT SCHEDULED, KILLTASK TAKES NO ACTION AND RETURNS WITH NO ALARM. KILLTASK
000961:                                                                                                  #  MUST BE CALLED IN INTERRUPT OR WITH INTERRUPT INHIBITED.
000962:
000963:                                                                                                  #  CALLING SEQUENCE:
000964:                                                                                                  #                                          L-1     (INHINT)
000965:                                                                                                  #                                          L        TC     KILLTASK       IN FIXED-FIXED
000966:                                                                                                  #                                          L+1      CADR   ????????       CADR (NOT 2CADR) OF TASK TO BE REMOVED.
000967:                                                                                                  #                                          L+2      (RELINT)              RETURN
000968:
000969:                                                                                                  #  EXIT MODE:  AT L+2 OF CALLING SEQUENCE.
000970:
000971:                                                                                                  #  ERASABLE INITIALIZATION=  NONE.
000972:
000973:                                                                                                  #  OUTPUT:  2CADR OF NULLTASK IN LST2
000974:
000975:                                                                                                  #  DEBRIS:  ITEMP1 - ITEMP4, A,L,Q.
000976:
000977: 36,3147  E3,1410                                  EBANK=   LST2
000978:    6027                                           BLOCK    3                                     #  KILLTASK MUST BE IN FIXED-FIXED.
000979:    6000                                           SETLOC   FFTAG6
000980:    6000                                           BANK
000981:    6027                                           COUNT*   $$/KILL
000982:    6027           36035        KILLTASK           CA       KILLBB
000983:    6030           22000                           LXCH     A
000984:    6031           50002                           INDEX    Q
000985:    6032           30000                           CA       0                                     #  GET CADR.
000986:    6033           22006                           LXCH     BBANK
000987:    6034           12223                           TCF      KILLTSK2                              #  CONTINUE IN SWITCHED FIXED
000988:
000989:    6035  E3,1410                                  EBANK=   LST2
000990:    6035           56063        KILLBB             BBCON    KILLTSK2
000991:
000992:
000993: 27,2223                                           BANK     27
000994:
000995: 27,2000                                           SETLOC   P40S1
000996: 27,2000                                           BANK
000997: 27,2223                                           COUNT*   $$/KILL
000998:
000999: 27,2223           22062        KILLTSK2           LXCH     ITEMP2                                #  SAVE CALLER'S BBANK
001000:


001002: 27,2224           24002                           INCR     Q
001003: 27,2225           00006                           EXTEND
001004: 27,2226           22061                           QXCH     ITEMP1                                #  RETURN 2CADR IN ITEMP1,ITEMP2
001005:
001006: 27,2227           54063                           TS       ITEMP3                                #  CADR IS IN A
001007: 27,2230           75012                           MASK     LOW10
001008: 27,2231           64741                           AD       BIT11
001009: 27,2232           54064                           TS       ITEMP4                                #  GENADR OF TASK
001010:
001011: 27,2233           45012                           CS       LOW10
001012: 27,2234           70063                           MASK     ITEMP3
001013: 27,2235           54063                           TS       ITEMP3                                #  FBANK OF TASK
001014:
001015: 27,2236           22007                           ZL
001016: 27,2237           50001        ADRSCAN            INDEX    L
001017: 27,2240           41410                           CS       LST2
001018: 27,2241           60064                           AD       ITEMP4                                #  COMPARE GENADRS
001019: 27,2242           00006                           EXTEND
001020: 27,2243           12255                           BZF      TSTFBANK                              #  IF THEY MATCH, COMPARE FBANKS
001021: 27,2244           44747        LETITLIV           CS       LSTLIM
001022: 27,2245           60001                           AD       L
001023: 27,2246           00006                           EXTEND                                         #  ARE WE DONE?
001024: 27,2247           12253                           BZF      DEAD                                  #  YES - DONE, SO RETURN
001025: 27,2250           24001                           INCR     L
001026: 27,2251           24001                           INCR     L
001027: 27,2252           12237                           TCF      ADRSCAN                               #  CONTINUE LOOP.
001028:
001029: 27,2253           52062        DEAD               DXCH     ITEMP1
001030: 27,2254           52006                           DTCB
001031:
001032: 27,2255           45012        TSTFBANK           CS       LOW10
001033: 27,2256           50001                           INDEX    L
001034: 27,2257           71411                           MASK     LST2       +1                         #  COMPARE FBANKS ONLY.
001035: 27,2260           00006                           EXTEND
001036: 27,2261           60063                           SU       ITEMP3
001037: 27,2262           00006                           EXTEND
001038: 27,2263           12265                           BZF      KILLDEAD                              #  MATCH - KILL IT.
001039: 27,2264           12244                           TCF      LETITLIV                              #  NO MATCH - CONTINUE.
001040:
001041: 27,2265           34353        KILLDEAD           CA       TCTSKOVR
001042: 27,2266           50001                           INDEX    L
001043: 27,2267           55410                           TS       LST2                                  #  REMOVE TASK BY INSERTING TASKOVER
001044: 27,2270           12253                           TCF      DEAD
001045:
001046: 27,2271     4747               LSTLIM             EQUALS   BIT5                                  #  DEC 16

End of include-file BURN,_BABY,_BURN_--_MASTER_IGNITION_ROUTINE.agc.  Parent file is MAIN.agc


