
Source Code


000002:                                                                                                  ## Copyright:   Public domain.
000003:                                                                                                  ## Filename:    CONIC_SUBROUTINES.agc
000004:                                                                                                  ## Purpose:     The main source file for Luminary revision 069.
000005:                                                                                                  ##              It is part of the source code for the original release
000006:                                                                                                  ##              of the flight software for the Lunar Module's (LM) Apollo
000007:                                                                                                  ##              Guidance Computer (AGC) for Apollo 10. The actual flown
000008:                                                                                                  ##              version was Luminary 69 revision 2, which included a
000009:                                                                                                  ##              newer lunar gravity model and only affected module 2.
000010:                                                                                                  ##              This file is intended to be a faithful transcription, except
000011:                                                                                                  ##              that the code format has been changed to conform to the
000012:                                                                                                  ##              requirements of the yaYUL assembler rather than the
000013:                                                                                                  ##              original YUL assembler.
000014:                                                                                                  ## Reference:   pp. 1154-1199
000015:                                                                                                  ## Assembler:   yaYUL
000016:                                                                                                  ## Contact:     Ron Burkey <info@sandroid.org>.
000017:                                                                                                  ## Website:     www.ibiblio.org/apollo/index.html
000018:                                                                                                  ## Mod history: 2016-12-13 MAS  Created from Luminary 99.
000019:                                                                                                  ##              2016-12-18 MAS  Updated from comment-proofed Luminary 99 version.
000020:                                                                                                  ##              2017-01-22 MAS  Updated for Luminary 69
000021:                                                                                                  ##              2017-01-28 RSB  WTIH -> WITH.
000022:                                                                                                  ##              2017-01-28 RSB  Proofed comment text using octopus/prooferComments
000023:                                                                                                  ##                              and fixed errors found.
000024:


000026:                                                                                                  #  PROGRAM DESCRIPTION - ENTIRE CONIC SUBROUTINE LOG SECTION                       DATE - 1 SEPTEMBER 1967
000027:                                                                                                  #  MOD NO. - 0                                                                     LOG SECTION - CONIC SUBROUTINES
000028:                                                                                                  #  MOD BY KRAUSE                                                                   ASSEMBLY - COLOSSUS REVISION 88
000029:
000030:
000031:                                                                                                  #  FUNCTIONAL DESCRIPTION -
000032:
000033:                                                                                                  #       THE FOLLOWING SET OF SUBROUTINES SOLVE VARIOUS PROBLEMS INVOLVING THE TRAJECTORY PRODUCED BY A CENTRAL
000034:                                                                                                  #  INVERSE-SQUARE FORCE ACTING ON A POINT MASS, AS OUTLINED IN THE CMC AND LGC LUNAR LANDING MISSION GSOP, SECTION
000035:                                                                                                  #  5.5.1.2.  A GENERAL USAGE POINT-OF-VIEW WAS TAKEN IN FORMULATING, MECHANIZING, AND SCALING THE SUBROUTINES,
000036:                                                                                                  #  RATHER THAN OPTIMIZING EACH FOR A PARTICULAR USE.  THEREFORE, MULTIPLE USAGE CAN BE MADE OF THE SUBROUTINES
000037:                                                                                                  #  INVOLVING ANY REALISTIC SET OF CONSTRAINTS.  IT SHOULD BE NOTED THAT ONLY ONE SET OF CODING IS USED, WHETHER THE
000038:                                                                                                  #  EARTH, MOON, OR ANY OTHER CELESTIAL BODY IS SPECIFIED AS THE CENTRAL BODY OF THE PROBLEM, PROVIDED ONE OBSERVES
000039:                                                                                                  #  THE INHERENT SCALE CHANGE REQUIRED IN POSITION, VELOCITY, MU, AND TIME, AS OUTLINED IN MISSION PROGRAMMING
000040:                                                                                                  #  DEFINITION MEMO NO. 10.  THIS CAN BE ACCOMPLISHED BY SIMPLY ADDING TO THE MUTABLE AND INITIALIZING THE SUBROU-
000041:                                                                                                  #  TINES APPROPRIATELY.
000042:                                                                                                  #       DUE TO THE UNIFORMITY OF THE EQUATIONS INVOLVED, CODING WAS MINIMIZED BY TREATING INDIVIDUAL EQUATIONS AND
000043:                                                                                                  #  BLOCKS OF EQUATIONS AS SUBROUTINES OF LOWER RANK WHENEVER POSSIBLE.  AS A RESULT, THREE BY-PRODUCTS SUBROUTINES,
000044:                                                                                                  #  DIRECTLY USABLE AS INDEPENDENT SUBROUTINES, WERE GENERATED.
000045:
000046:
000047:                                                                                                  #  RESTRICTIONS -
000048:
000049:                                                                                                  #       THE ONLY LIMITATION IN THE SCOPE OF PROBLEM WHICH CAN BE SOLVED BY A PARTICULAR SUBROUTINE IS THE SCALING
000050:                                                                                                  #  LIMIT OF EACH PARAMETER AS SPECIFIED IN THE GSOP.  THESE SCALING LIMITS WERE CHOSEN SO THAT ALL FEASIBLE TRAJEC-
000051:                                                                                                  #  TORIES COULD BE HANDLED.
000052:                                                                                                  #       SINCE THE SUBROUTINES (EXCEPT KEPLER) USE COMMON SUBROUTINES OF LOWER RANK WHICH USE ERASABLE OTHER THAN
000053:                                                                                                  #  THE PUSHLIST (DUE TO ITS LIMITED SIZE) AND COMMON INTERPRETIVE SWITCHES, THE CONIC SUBROUTINES CANNOT BE ALLOWED
000054:                                                                                                  #  TO INTERRUPT EACH OTHER.  IT IS UP TO THE USER TO GUARANTEE THIS CONDITION.
000055:
000056:


000058:                                                                                                  #  PROGRAM DESCRIPTION - KEPLER SUBROUTINE                                 DATE - 11 OCTOBER 1967
000059:                                                                                                  #  MOD NO. -1                                                                       LOG SECTION - CONIC SUBROUTINES
000060:                                                                                                  #  MOD BY KRAUSE                                                           ASSEMBLY - COLOSSUS 103 AND SUNDANCE 222
000061:                                                                                                  #  MOD NO. - 2  (AUGUST 1968) BY ROBERTSON: TO PERMIT BACKDATING BY MORE THAN ONE ORBITAL PERIOD.
000062:
000063:
000064:                                                                                                  #  FUNCTIONAL DESCRIPTION -
000065:                                                                                                  #       THIS SUBROUTINE, GIVEN AN INITIAL STATE VECTOR AND THE DESIRED TRANSFER TIME THROUGH WHICH THE STATE IS TO
000066:                                                                                                  #  BE UPDATED ALONG A CONIC TRAJECTORY, COMPUTES THE NEW, UPDATED STATE VECTOR.  THE TRAJECTORY MAY BE ANY CONIC
000067:                                                                                                  #  SECTION - CIRCULAR, ELLIPTIC, PARABOLIC, HYPERPOLIC, OR RECTILINEAR WITH RESPECT TO THE EARTH OR THE MOON.  THE
000068:                                                                                                  #  USE OF THE SUBROUTINE CAN BE EXTENDED USING OTHER PRIMARY BODIES BY SIMPLE ADDITIONS TO THE MUTABLE WITHOUT
000069:                                                                                                  #  INTRODUCING ANY CODING CHANGES, ACCEPTING THE INHERENT SCALE FACTOR CHANGES IN POSITION AND VELOCITY.  AN ITERA-
000070:                                                                                                  #  TION TECHNIQUE IS UTILIZED IN THE COMPUTATION.
000071:                                                                                                  #       IF A NEGATIVE TIME-OF-FLIGHT IS INPUT, THE PROGRAM WILL SOLVE FOR THE STATE WHICH WOULD BE PRODUCED BY
000072:                                                                                                  #  EXTRAPOLATING THE POSITION BACKWARD IN TIME.
000073:                                                                                                  #       IF THE ABSOLUTE VALUE OF THE DESIRED TRANSFER TIME EXCEEDS THE ORBITAL PERIOD, THE SUBROUTINE, THROUGH A
000074:                                                                                                  #  MODULAR TECHNIQUE, WILL COMPUTE THE STATE CORRESPONDING TO THE DESIRED TIME (WHETHER POSITIVE OR NEGATIVE).
000075:
000076:
000077:                                                                                                  #  THE RESTRICTIONS ARE -
000078:                                                                                                  #       1. (PREVIOUS RESTRICTION ON THE NEGATIVE DESIRED TRANSFER TIME IS NOW DELETED.)
000079:                                                                                                  #       2.  THE PARAMETERS IN THE PROBLEM CANNOT EXCEED THEIR SCALING LIMITS AS SPECIFIED IN THE GSOP.  IF
000080:                                                                                                  #  ANY OF THESE LIMITS ARE EXCEEDED, THE RESULTING SOLUTION WILL BE MEANINGLESS.
000081:
000082:
000083:                                                                                                  #       THE NUMBER OF ITERATIONS AND, THEREFORE, THE COMPUTATION SPEED IS DEPENDENT ON THE ACCURACY OF THE
000084:                                                                                                  #  GUESS, XKFPNEW.  THE AGC COMPUTATION TIME IS APPROXIMATELY .061 SECONDS FOR INITIALIZATION, .065 SECONDS FOR THE
000085:                                                                                                  #  FINAL COMPUTATIONS, PLUS .083 SECONDS FOR EACH ITERATION.
000086:
000087:
000088:
000089:                                                                                                  #  REFERENCES -
000090:                                                                                                  #       R-479, MISSION PROGRAMMING DEFINITION MEMO NO. 10, LUNAR LANDING MISSION GSOP, SECTION 5.5, SGA
000091:                                                                                                  #  MEMO 67-4.
000092:
000093:
000094:
000095:                                                                                                  #  INPUT - ERASABLE INITIALIZATION REQUIRED
000096:
000097:                                                                                                  #          * SCALE FACTOR *
000098:                                                                                                  #  VARIABLE*IN POWERS OF 2*                         DESCRIPTION AND REMARKS
000099:                                                                                                  #  --------*--------------*                         -----------------------
000100:                                                                                                  #  RRECT   * +29 FOR EARTH*DP INITIAL POSITION VECTOR IN METERS
000101:                                                                                                  #          * +27 FOR MOON *
000102:                                                                                                  #  VRECT   * +7 FOR EARTH *DP INITIAL VELOCITY VECTOR IN METERS/CENTISECOND
000103:                                                                                                  #          * +5 FOR MOON  *
000104:                                                                                                  #  X1 (38D)* NONE         *INDEX REGISTER SET TO -2D OR -10D ACCORDING TO WHETHER THE EARTH OR MOON,
000105:                                                                                                  #          *              *RESPECTIVELY, IS THE CENTRAL BODY
000106:                                                                                                  #  TAU.    * +28          *DESIRED TRANSFER TIME IN CENTISECONDS (DP)
000107:                                                                                                  #  XKEPNEW * +17 FOR EARTH*GUESS OF X IN METERS-TO-THE-ONE-HALF FROM KEPPREP


000109:                                                                                                  #          * +16 FOR MOON *(DP)
000110:                                                                                                  #  TC      * +28          *DP PREV. VALUE OF TIME IN CENTISECS FROM KEPPREP
000111:                                                                                                  #  XPREV   * +17 FOR EARTH*PREVIOUS VALUE OF X IN METERS-TO-THE-ONE-HALF POWER FROM KEPPREP (DP)
000112:                                                                                                  #          * +16 FOR MOON *(DP)
000113:
000114:
000115:
000116:                                                                                                  #  SUBROUTINES CALLED -
000117:                                                                                                  #       DELTIME
000118:
000119:
000120:
000121:                                                                                                  #  CALLING SEQUENCE AND NORMAL EXIT MODES -
000122:
000123:                                                                                                  #  KEPRTN-2 GOTO                   MUST BE IN INTERPRETIVE MODE AND OVFIND MUST BE CLEAR
000124:                                                                                                  #  KEPRTN-1        KEPLER          RETURNS WITH XPREV IN MPAC. PL IS AT 0.
000125:                                                                                                  #  KEPRTN   ...                    CONTINUE
000126:
000127:                                                                                                  #  KEPLER MUST NOT BE CALLED DIRECTLY SINCE AN INTERRUPTION OF IT WOULD DESTROY THE ERASABLES IT NEEDS TO COMPLETE
000128:                                                                                                  #  THE INTERRUPTED JOB.  THEREFORE THE USER MUST CALL CSMCONIC OR LEMCONIC WHICH GUARANTEES NO INTERRUPTS AND WHICH
000129:                                                                                                  #  ALSO CALLS KEPPREP TO COMPUTE A GUESS OF XKEPNEW.
000130:
000131:
000132:
000133:                                                                                                  #  ABORT EXIT MODES -
000134:                                                                                                  #       NONE
000135:
000136:
000137:
000138:                                                                                                  #  OUTPUT -
000139:
000140:                                                                                                  #          * SCALE FACTOR *
000141:                                                                                                  #  VARIABLE*IN POWERS OF 2*                         DESCRIPTION AND REMARKS
000142:                                                                                                  #  --------*--------------*                         -----------------------
000143:                                                                                                  #  RCV     * +29 FOR EARTH*DP TERMINAL POSITION VECTOR IN METERS
000144:                                                                                                  #          * +27 FOR MOON *
000145:                                                                                                  #  VCV     * +7 FOR EARTH *DP TERMINAL VELOCITY VECTOR IN METERS/CENTISEC
000146:                                                                                                  #          * +5 FOR MOON  *
000147:                                                                                                  #  TC      * +28          *DP TRANSFER TIME IN CENTISECS TO WHICH KEPLER CONVERGED.
000148:                                                                                                  #  XPREV   * +17 FOR EARTH*DP X IN METERS-TO-THE-ONE-HALF-POWER TO WHICH KEPLER CONVERGED.
000149:                                                                                                  #          * +16 FOR MOON *(DP)
000150:                                                                                                  #  FOR OTHER OUTPUT WHICH MAY BE OF USE, SEE DEBRIS.
000151:
000152:
000153:
000154:                                                                                                  #  DEBRIS -
000155:
000156:                                                                                                  #       PARAMETERS WHICH MAY BE OF USE -
000157:
000158:                                                                                                  #          * SCALE FACTOR *


000160:                                                                                                  #  VARIABLE*IN POWERS OF 2*                         DESCRIPTION AND REMARKS
000161:                                                                                                  #  --------*--------------*                         -----------------------
000162:                                                                                                  #  URRECT  * +1           *DP UNIT VECTOR OF INITIAL POSITION
000163:                                                                                                  #  R1      * +29 FOR EARTH*DP MAGNITUDE OF INITIAL POSITION IN METERS
000164:                                                                                                  #          * +27 FOR MOON *
000165:                                                                                                  #  ALPHA   * -22 FOR EARTH*DP INVERSE OF SEMIMAJOR AXIS IN 1/METERS
000166:                                                                                                  #          * -20 FOR MOON *
000167:                                                                                                  #  TMODULO * +28          *DP INTEGRAL NUMBER OF PERIODS IN CENTISECS. WHICH WAS SUBTRACTED FROM TAU. TO PRODUCE A
000168:                                                                                                  #          *              *TAU. OF LESS THAN ONE PERIOD.
000169:
000170:                                                                                                  #       PARAMETERS OF NO USE -
000171:                                                                                                  #  DP PARAMETERS - EPSILONT, DELX, DELT, RCNORM, XMODULO, PLUS PUSHLIST REGISTERS 0 THROUGH 39D.
000172:
000173:


000175:                                                                                                  #  PROGRAM DESCRIPTION - LAMBERT SUBROUTINE                                        DATE - 1 SEPTEMBER 1967
000176:                                                                                                  #  MOD NO. - 0                                                                     LOG SECTION - CONIC SUBROUTINES
000177:                                                                                                  #  MOD BY KRAUSE                                                                   ASSEMBLY - COLOSSUS REVISION 88
000178:
000179:
000180:
000181:                                                                                                  #  FUNCTIONAL DESCRIPTION -
000182:
000183:                                                                                                  #       THIS SUBROUTINE CALCULATES THE INITIAL VELOCITY REQUIRED TO TRANSFER A POINT-MASS ALONG A CONIC TRAJECTORY
000184:                                                                                                  #  FROM AN INITIAL POSITION TO A TERMINAL POSITION IN A PRESCRIBED TIME INTERVAL.  THE RESULTING TRAJECTORY MAY BE
000185:                                                                                                  #  A SECTION OF A CIRCLE, ELLIPSE, PARABOLA, OR HYPERBOLA WITH RESPECT TO THE EARTH OR THE MOON.  THE USE OF THE
000186:                                                                                                  #  SUBROUTINE CAN BE EXTENDED USING OTHER PRIMARY BODIES BY SIMPLE ADDITIONS TO THE MUTABLE WITHOUT INTRODUCING ANY
000187:                                                                                                  #  CODING CHANGES, ACCEPTING THE INHERENT SCALE FACTOR CHANGES IN POSITION AND VELOCITY.  AN ITERATION TECHNIQUE IS
000188:                                                                                                  #  UTILIZED IN THE COMPUTATION.
000189:
000190:
000191:                                                                                                  #  THE RESTRICTIONS ARE -
000192:                                                                                                  #       1. RECTILINEAR TRAJECTORIES CANNOT BE COMPUTED.
000193:                                                                                                  #       2. AN ACCURACY DEGRADATION OCCURS AS THE COSINE OF THE TRUE ANOMALY DIFFERENCE APPROACHES +1.0.
000194:                                                                                                  #       3. THE ANGLE BETWEEN ANY POSITION VECTOR AND ITS VELOCITY VECTOR MUST BE GREATER THAN 1 DEGREE 47.5 MINUTES
000195:                                                                                                  #  AND LESS THAN 178 DEGREES 12.5 MINUTES.
000196:                                                                                                  #       4. NEGATIVE TRANSFER TIME IS AMBIGUOUS AND WILL RESULT IN NO SOLUTION.
000197:                                                                                                  #       5. THE PARAMETERS IN THE PROBLEM MUST NOT EXCEED THEIR SCALING LIMITS SPECIFIED IN THE GSOP.  IF THE
000198:                                                                                                  #  LIMITS ARE EXCEEDED, THE RESULTING SOLUTION WILL BE MEANINGLESS.
000199:                                                                                                  #       THE NUMBER OF ITERATIONS AND, THEREFORE, THE COMPUTATIONS SPEED IS DEPENDENT ON THE ACCURACY OF THE FIRST
000200:                                                                                                  #  GUESS OF THE INDEPENDENT VARIABLE, COGA.                                THE AGC COMPUTATION TIME IS APPROXIMATE-
000201:                                                                                                  #  LY .105 SECONDS FOR INITIALIZATION, .069 SECONDS FOR FINAL COMPUTATIONS, PLUS .205 SECONDS FOR EACH ITERATION.
000202:
000203:
000204:
000205:                                                                                                  #  REFERENCES -
000206:                                                                                                  #       R-479, MISSION PROGRAMMING DEFINITION MEMO NO. 10, LUNAR LANDING MISSION GSOP-SECTION 5.5, SGA MEMO 67-8,
000207:                                                                                                  #  SGA MEMO 67-4.
000208:
000209:
000210:
000211:                                                                                                  #  INPUT - ERASABLE INITIALIZATION REQUIRED
000212:
000213:                                                                                                  #          * SCALE FACTOR *
000214:                                                                                                  #  VARIABLE*IN POWERS OF 2*       DESCRIPTION AND REMARKS
000215:                                                                                                  #  --------*--------------*-----------------------
000216:                                                                                                  #  R1VEC   * +29 FOR EARTH*DP INITIAL POSITION VECTOR IN METERS
000217:                                                                                                  #          * +27 FOR MOON *
000218:                                                                                                  #  R2VEC   * +29 FOR EARTH*DP TARGET OR TERMINAL POSITION VECTOR IN METERS
000219:                                                                                                  #          * +27 FOR MOON *
000220:                                                                                                  #  TDESIRED* +28          *DP DESIRED TRANSFER TIME IN CENTISECONDS
000221:                                                                                                  #  X1 (38D)* NONE         *INDEX REGISTER SET TO -2D OR -10D ACCORDING TO WHETHER THE EARTH OR MOON,
000222:                                                                                                  #          *              *RESPECTIVELY, IS THE CENTRAL BODY
000223:                                                                                                  #  GEOMSGN * NONE         *SP +.5 IF DESIRED TRANSFER ANGLE IS LESS THAN 180 DEGREES, -.5 IF GREATER THAN 180 DEG.
000224:                                                                                                  #  GUESSW  * NONE         *AN INTERPRETER SWITCH TO BE SET IF NO GUESS OF COGA IS AVAILABLE, CLEAR IF A GUESS OF


000226:                                                                                                  #          *              *COGA IS TO BE USED BY LAMBERT
000227:                                                                                                  #  COGA    * +5           *DP GUESS OF COTANGNT OF FLIGHT PATH ANGLE (MEASURED FROM VERTICAL).  THIS WILL BE
000228:                                                                                                  #                         *IGNORED IF GUESSW IS SET.
000229:                                                                                                  #  NORMSW  * NONE         *AN INTERPRETER SWITCH TO BE SET IF UN IS TO BE AN INPUT TO THE SUBROUTINE, CLEAR IF
000230:                                                                                                  #          *              *LAMBERT IS TO COMPUTE ITS OWN NORMAL (UN).
000231:                                                                                                  #  UN      * +1           *DP UNIT  NORMAL TO THE DESIRED ORBIT PLANE IN THE DIRECTION OF THE RESULTING ANGULAR
000232:                                                                                                  #          *              *MOMENTUM VECTOR.  THIS WILL BE IGNORED IF NORMSW IS CLEAR.
000233:                                                                                                  #  VTARGTAG* NONE         *A S.P. TAG TO BE SET TO ZERO IF LAMBERT IS TO COMPUTE THE VELOCITY AT R2VEC AS WELL AS
000234:                                                                                                  #          *              *AT R1VEC.
000235:                                                                                                  #  ITERCTR * NONE         *A S.P. COUNTER WHICH SPECIFIES THE MAXIMUM NUMBER OF ITERATIONS ALLOWABLE.
000236:                                                                                                  #          *              *(AN ITERATION MEANS A PASS THRU KEPLER EQN (DELTIME). AT LEAST ONE OF THESE MUST
000237:                                                                                                  #          *              *ALWAYS OCCUR, EVEN IF COGA CORRESPONDING TO SOLUTION WERE INPUT AS A GUESS.)
000238:                                                                                                  #          *              *TWENTY ITERATIONS ARE SUFFICIENT TO SOLVE ALL PROBLEMS INCLUDING THOSE WITHOUT GUESS.
000239:
000240:
000241:                                                                                                  #  SUBROUTINES CALLED -
000242:                                                                                                  #       GEOM, GETX, DELTIME, ITERATOR, LAMENTER (PART OF NEWSTATE)
000243:
000244:
000245:
000246:                                                                                                  #  CALLING SEQUENCE AND NORMAL EXIT MODES -
000247:
000248:                                                                                                  #  L        CALL                   MUST BE IN INTERPRETIVE MODE AND OVFIND MUST BE CLEAR
000249:                                                                                                  #  L+1             LAMBERT         RETURNS WITH PL AT 0 AND WITH VVEC IN MPAC IF VTARGTAG WAS NON-ZERO OR VTARGET
000250:                                                                                                  #                                  IN MPAC IF VTARGTAG WAS ZERO
000251:                                                                                                  #  L+2      BON                    CONTINUE IF SOLNSW CLEAR SINCE SOLUTION IS ACCEPTABLE
000252:                                                                                                  #  L+3             SOLNSW
000253:                                                                                                  #  L+4             LAMABORT
000254:                                                                                                  #       IF A LAMBERT RESULT IS TO BE A FIRST GUESS FOR THE NEXT LAMBERT CALCULATION, COGA MUST BE PRESERVED AND
000255:                                                                                                  #  GUESSW MUST BE CLEAR FOR EACH SUCCEEDING LAMBERT CALL.
000256:
000257:
000258:
000259:                                                                                                  #  ABORT EXIT MODES -
000260:                                                                                                  #       IF SOLNSW WAS SET UPON EXITING, EITHER LAMBERT WAS ASKED TO COMPUTE A TRANSFER TOO NEAR 0 OR 360 DEG, OR T
000261:                                                                                                  #  WAS TOO SMALL TO PRODUCE A REALISTIC TRANSFER BETWEEN R1VEC AND R2VEC.  IN EITHER CASE THE FIX MUST BE MADE
000262:                                                                                                  #  ACCORDING TO THE NEEDS OF THE PARTICULAR USER.  THE ABORT EXIT MODE MAY BE CODED AS ...
000263:                                                                                                  #  LAMABORT DLOAD  ABS                     A MEASURE OF PROXIMITY TO 0 OR
000264:                                                                                                  #                  1-CSTH                  360 DEGREES.
000265:                                                                                                  #           DSU    BMN
000266:                                                                                                  #                  ONEBIT
000267:                                                                                                  #                  CHANGER2                CHANGE R2VEC DIRECTION SLIGHTLY.
000268:                                                                                                  #           DLOAD  DAD
000269:                                                                                                  #                  TDESIRED
000270:                                                                                                  #                  SOMETIME
000271:                                                                                                  #           STCALL TDESIRED                INCREASE TDESIRED
000272:                                                                                                  #                  LAMBERT
000273:
000274:


000276:                                                                                                  #  OUTPUT -
000277:                                                                                                  #          * SCALE FACTOR *
000278:                                                                                                  #  VARIABLE*IN POWERS OF 2*                         DESCRIPTION AND REMARKS
000279:                                                                                                  #  --------*--------------*                         -----------------------
000280:                                                                                                  #  VVEC    * +7 FOR EARTH *DP INITIAL VELOCITY VECTOR IN METERS/CENTISECOND REQUIRED TO SATISFY THE BOUNDARY VALUE
000281:                                                                                                  #          * +5 FOR MOON  *PROBLEM.
000282:                                                                                                  #  VTARGET * +7 FOR EARTH *DP RESULTANT VELOCITY VECTOR AT R2VEC IN METERS/CENTISECOND.
000283:                                                                                                  #          * +5 FOR MOON  *
000284:                                                                                                  #  SOLNSW  * NONE         *INTERPRETER SWITCH WHICH IS SET IF THE SUBROUTINE CANNOT SOLVE THE PROBLEM, CLEAR IF THE
000285:                                                                                                  #          *              *SOLUTION EXISTS.
000286:                                                                                                  #  FOR OTHER OUTPUT WHICH MAY BE OF USE, SEE DEBRIS.
000287:
000288:
000289:
000290:                                                                                                  #  DEBRIS -
000291:                                                                                                  #       PARAMETERS WHICH MAY BE OF USE -
000292:
000293:                                                                                                  #          * SCALE FACTOR *
000294:                                                                                                  #  VARIABLE*IN POWERS OF 2*                         DESCRIPTION AND REMARKS
000295:                                                                                                  #  --------*--------------*                         -----------------------
000296:                                                                                                  #  SNTH    * +1           *DP SIN OF ANGLE BETWEEN R1VEC AND R2VEC
000297:                                                                                                  #  CSTH    * +1           *DP COSINE OF ANGLE
000298:                                                                                                  #  1-CSTH  * +2           *DP 1-CSTH
000299:                                                                                                  #  COGA    * +5           *DP COTAN OF INITIAL REQUIRED FLIGHT PATH ANGLE MEASURED FROM VERTICAL
000300:                                                                                                  #  P       * +4           *DP RATIO  OF SEMILATUS RECTUM TO INITIAL RADIUS
000301:                                                                                                  #  R1A     * +6           *DP RATIO OF INITIAL RADIUS TO SEMIMAJOR AXIS
000302:                                                                                                  #  R1 (32D)* +29 FOR EARTH*DP INITIAL RADIUS IN METERS
000303:                                                                                                  #          * +27 FOR MOON *
000304:                                                                                                  #  UR1     * +1           *DP UNIT VECTOR OF R1VEC
000305:                                                                                                  #  U2      * +1           *DP UNIT VECTOR OF R2VEC
000306:
000307:                                                                                                  #       PARAMETERS OF NO USE
000308:                                                                                                  #  DP PARAMETERS - EPSILONL, CSTH-RHO, TPREV, TERRLAMB, R2, RTNLAMB (SP),  PLUS PUSHLIST REGISTER 0 THROUGH 41D
000309:                                                                                                  #  ADDITIONAL INTERPRETIVE SWITCHES USED - INFINFLG, 360SW, SLOPESW, ORDERSW
000310:
000311:


000313:                                                                                                  #  PROGRAM DESCRIPTION - TIME-THETA SUBROUTINE                                     DATE - 1 SEPTEMBER 1967
000314:                                                                                                  #  MOD NO. - 0                                                                     LOG SECTION - CONIC SUBROUTINES
000315:                                                                                                  #  MOD BY KRAUSE                                                                   ASSEMBLY - COLOSSUS REVISION 88
000316:
000317:
000318:
000319:                                                                                                  #  FUNCTIONAL DESCRIPTION -
000320:
000321:                                                                                                  #       THIS SUBROUTINE, GIVEN AN INITIAL STATE VECTOR AND A DESIRED TRUE-ANOMALY-DIFFERENCE THROUGH WHICH THE
000322:                                                                                                  #  STATE IS TO BE UPDATED ALONG A CONIC TRAJECTORY, CALCULATES THE CORRESPONDING TIME-OF-FLIGHT AND, IN ADDITION,
000323:                                                                                                  #  PROVIDES THE OPTION OF COMPUTING THE NEW UPDATED STATE VECTOR.  THE RESULTING TRAJECTORY MAY BE A SECTION OF A
000324:                                                                                                  #  CIRCLE, ELLIPSE, PARABOLA, OR HYPERBOLA WITH RESPECT TO THE EARTH OR THE MOON.  THE USE OF THE SUBROUTINE CAN BE
000325:                                                                                                  #  EXTENDED USING OTHER PRIMARY BODIES BY SIMPLE ADDITIONS TO THE MUTABLE WITHOUT INTRODUCING ANY CODING CHANGES,
000326:                                                                                                  #  ACCEPTING THE INHERENT SCALE FACTOR CHANGES IN POSITION AND VELOCITY.
000327:
000328:
000329:                                                                                                  #  THE RESTRICTIONS ARE -
000330:                                                                                                  #       1. THE ANGLE BETWEEN ANY POSITION VECTOR AND ITS VELOCITY VECTOR MUST BE GREATER THAN 1 DEGREE 47.5 MINUTES
000331:                                                                                                  #  AND LESS THAN 178 DEGREES 12.5 MINUTES.
000332:                                                                                                  #       2. THE PARAMETERS IN THE PROBLEM MUST NOT EXCEED THEIR SCALING LIMITS SPECIFIED IN THE GSOP.  IF THE LIMITS
000333:                                                                                                  #  ARE EXCEEDED, THE RESULTING SOLUTION WILL BE MEANINGLESS.
000334:
000335:                                                                                                  #       THE AGC COMPUTATION TIME IS APPROXIMATELY .292 SECONDS.
000336:
000337:
000338:
000339:                                                                                                  #  REFERENCES -
000340:                                                                                                  #       R-479, MISSION PROGRAMMING DEFINITION MEMO NO. 10, LUNAR LANDING MISSION GSOP-SECTION 5.5, SGA MEMO 67-8.
000341:
000342:
000343:
000344:                                                                                                  #  INPUT - ERASABLE INITIALIZATION REQUIRED
000345:
000346:                                                                                                  #          * SCALE FACTOR *
000347:                                                                                                  #  VARIABLE*IN POWERS OF 2*                         DESCRIPTION AND REMARKS
000348:                                                                                                  #  --------*--------------*                         -----------------------
000349:                                                                                                  #  RVEC    * +29 FOR EARTH*DP INITIAL POSITION VECTOR IN METERS
000350:                                                                                                  #          * +27 FOR MOON *
000351:                                                                                                  #  VVEC    * +7 FOR EARTH *DP INITIAL VELOCITY VECTOR IN METERS/CENTISECOND
000352:                                                                                                  #          * +5 FOR MOON  *
000353:                                                                                                  #  SNTH    * +1           *DP SINE OF TRUE-ANOMALY-DIFFERENCE THROUGH WHICH THE STATE IS TO BE UPDATED
000354:                                                                                                  #  CSTH    * +1           *DP COSINE OF THE ANGLE
000355:                                                                                                  #  RVSW    * NONE         *AN INTERPRETIVE SWITCH TO BE SET IF ONLY TIME IS TO BE AN OUTPUT, CLEAR IF THE NEW STATE
000356:                                                                                                  #          *              *IS TO BE COMPUTED ALSO.
000357:                                                                                                  #  X1 (38D)* NONE         *INDEX REGISTER TO BE SET TO -2D OR -10D ACCORDING TO WHETHER THE EARTH OR MOON,
000358:                                                                                                  #          *              *RESPECTIVELY, IS THE CENTRAL BODY.
000359:
000360:
000361:
000362:                                                                                                  #  SUBROUTINES CALLED -


000364:                                                                                                  #       PARAM, GEOM, GETX, DELTIME, NEWSTATE
000365:
000366:
000367:
000368:                                                                                                  #  CALLING SEQUENCE AND NORMAL EXIT MODES -
000369:
000370:                                                                                                  #     IF ONLY TIME IS DESIRED AS OUTPUT -
000371:                                                                                                  #  L        SET    CALL            MUST BE IN INTERPRETIVE MODE AND OVFIND MUST BE CLEAR
000372:                                                                                                  #  L+1             RVSW
000373:                                                                                                  #  L+2             TIMETHET        RETURN WITH PL AT 0 AND T IN MPAC
000374:                                                                                                  #  L+3      ...                    CONTINUE
000375:
000376:
000377:                                                                                                  #     IF THE UPDATE STATE VECTOR IS DESIRED AS WELL -
000378:                                                                                                  #  L        CLEAR  CALL            MUST BE IN INTERPRETIVE MODE AND OVFIND MUST BE CLEAR
000379:                                                                                                  #  L+1             RVSW
000380:                                                                                                  #  L+2             TIMETHET        RETURNS WITH PL AT 6.  THE INITIAL POSITION VECTOR IS IN 0D OF THE PUSHLIST AND
000381:                                                                                                  #                                  THE INITIAL VELOCITY VECTOR IN MPAC.
000382:                                                                                                  #  L+3      STOVL  NEWVVEC
000383:                                                                                                  #  L+4      STADR
000384:                                                                                                  #  L+5      STORE  NEWRVEC                 NEWVVEC AND NEWRVEC ARE SYMBOLIC REPRESENTATIONS OF THE USERS LOCATIONS.
000385:                                                                                                  #  L+6      ...                            CONTINUE
000386:
000387:
000388:
000389:                                                                                                  #  ABORT EXIT MODES -
000390:                                                                                                  #  L        CALL   BON
000391:                                                                                                  #  L+1             TIMETHET
000392:                                                                                                  #  L+2             COGAFLAG
000393:                                                                                                  #  L+3             COGABORT        RESTRICTION 1 HAS BEEN VIOLATED.
000394:                                                                                                  #  L+4      BON                    IF NEITHER FLAG IS SET AND RESTRICTION 2 HAS NOT BEEN VIOLATED, THE SOLUTION IS
000395:                                                                                                  #                                  GOOD, SO CONTINUE
000396:                                                                                                  #  L+5             INFINFLG
000397:                                                                                                  #  L+6             IMPOSSBL        NO SOLUTION EXISTS.
000398:
000399:
000400:
000401:                                                                                                  #  OUTPUT -
000402:                                                                                                  #          * SCALE FACTOR *
000403:                                                                                                  #  VARIABLE*IN POWERS OF 2*                         DESCRIPTION AND REMARKS
000404:                                                                                                  #  --------*--------------*                         -----------------------
000405:                                                                                                  #  T (30D) * +28          *DP TRANSFER TIME IN CENTISECONDS
000406:                                                                                                  #  INFINFLG* NONE         *AN INTERPRETIVE SWITCH WHICH IS SET IF THE TRANSFER ANGLE REQUIRES CLOSURE THROUGH
000407:                                                                                                  #          *              *INFINITY (NO SOLUTION), CLEAR IF A PHYSICAL SOLUTION IS POSSIBLE.
000408:                                                                                                  #  COGAFLAG* NONE         *AN INTERPRETIVE SWITCH WHICH IS SET IF RESTRICTION 1 HAS BEEN VIOLATED (NO SOLUTION),
000409:                                                                                                  #          *              *CLEAR IF NOT.
000410:
000411:                                                                                                  #  IN ADDITION, IF VTARGTAG IS NON-ZERO, THE FOLLOWING ARE OUTPUT -
000412:                                                                                                  #  MPAC -  * +7 FOR EARTH *DP TERMINAL VELOCITY VECTOR IN METERS/CENTISEC.
000413:                                                                                                  #   MPAC +5* +5 FOR MOON  *


000415:                                                                                                  #  0D - 5D * +29 FOR EARTH*DP TERMINAL POSITION VECTOR IN METERS (PL AT 6D)
000416:                                                                                                  #          * +27 FOR MOON *
000417:
000418:                                                                                                  #  FOR OTHER OUTPUT WHICH MAY BE OF USE, SEE DEBRIS.
000419:
000420:
000421:
000422:                                                                                                  #  DEBRIS -
000423:
000424:                                                                                                  #       PARAMETERS WHICH MAY BE OF USE -
000425:
000426:                                                                                                  #          * SCALE FACTOR *
000427:                                                                                                  #  VARIABLE*IN POWERS OF 2*                         DESCRIPTION AND REMARKS
000428:                                                                                                  #  --------*--------------*                         -----------------------
000429:                                                                                                  #  R1 (32D)* +29 FOR EARTH*DP MAGNITUDE OF INITIAL POSITION VECTOR, RVEC, IN METERS
000430:                                                                                                  #          * +27 FOR MOON *
000431:                                                                                                  #  R1A     * +6           *DP RATIO OF R1 TO SEMIMAJOR AXIS (NEG. FOR HYPERBOLIC TRAJECTORIES)
000432:                                                                                                  #  P       * +4           *DP RATIO OF SEMILATUS RECTUM TO R1
000433:                                                                                                  #  COGA    * +5           *DP COTAN OF ANGLE BETWEEN RVEC AND VVEC
000434:                                                                                                  #  UR1     * +1           *DP UNIT VECTOR OF RVEC
000435:                                                                                                  #  U2      * +1           *DP UNIT VECTOR OF VVEC
000436:                                                                                                  #  UN      * +1           *DP UNIT VECTOR OF UR1*U2
000437:
000438:
000439:                                                                                                  #       PARAMETERS OF NO USE -
000440:                                                                                                  #  SP PARAMETERS -  RTNTT, GEOMSGN, RTNPRM, MAGVEC2=R2 (DP), PLUS PUSHLIST LOCATIONS 0-11D, 14D-21D, 24D-39D, 41D
000441:                                                                                                  #  ADDITIONAL INTERPRETIVE SWITCHES USED - NORMSW, 360SW
000442:
000443:


000445:                                                                                                  #  PROGRAM DESCRIPTION - TIME-RADIUS SUBROUTINE                            DATE - 11 OCTOBER 1967
000446:                                                                                                  #  MOD NO. -1                                                                      LOG SECTION - CONIC SUBROUTINES
000447:                                                                                                  #  MOD BY KRAUSE                                                                   ASSEMBLY - COLOSSUS REVISION 88
000448:
000449:
000450:
000451:                                                                                                  #  FUNCTIONAL DESCRIPTION -
000452:
000453:                                                                                                  #       THIS SUBROUTINE, GIVEN AN INITIAL STATE VECTOR AND A DESIRED RADIUS TO WHICH THE
000454:                                                                                                  #  STATE IS TO BE UPDATED ALONG A CONIC TRAJECTORY, CALCULATES THE CORRESPONDING TIME-OF-FLIGHT AND, IN ADDITION,
000455:                                                                                                  #  PROVIDES THE OPTION OF COMPUTING THE NEW UPDATED STATE VECTOR.  THE RESULTING TRAJECTORY MAY BE A SECTION OF A
000456:                                                                                                  #  CIRCLE, ELLIPSE, PARABOLA, OR HYPERBOLA WITH RESPECT TO THE EARTH OR THE MOON.  THE USE OF THE SUBROUTINE CAN BE
000457:                                                                                                  #  EXTENDED USING OTHER PRIMARY BODIES BY SIMPLE ADDITIONS TO THE MUTABLE WITHOUT INTRODUCING ANY CODING CHANGES,
000458:                                                                                                  #  ACCEPTING THE INHERENT SCALE FACTOR CHANGES IN POSITION AND VELOCITY.
000459:                                                                                                  #       IF THE DESIRED RADIUS IS BEYOND THE RADIUS OF APOCENTER OF THE CONIC OR BELOW THE RADIUS OF PERICENTER,
000460:                                                                                                  #  APSESW WILL BE SET AND THE SUBROUTINE WILL RETURN THE APOCENTER OR PERICENTER SOLUTION, RESPECTIVELY.
000461:
000462:
000463:                                                                                                  #  THE RESTRICTIONS ARE -
000464:                                                                                                  #       1. THE ANGLE BETWEEN ANY POSITION VECTOR AND ITS VELOCITY VECTOR MUST BE GREATER THAN 1 DEGREE 47.5 MINUTES
000465:                                                                                                  #  AND LESS THAN 178 DEGREES 12.5 MINUTES.
000466:                                                                                                  #       2. THE PARAMETERS IN THE PROBLEM MUST NOT EXCEED THEIR SCALING LIMITS SPECIFIED IN THE GSOP.  IF THE LIMITS
000467:                                                                                                  #  ARE EXCEEDED, THE RESULTING SOLUTION WILL BE MEANINGLESS.
000468:                                                                                                  #       3. AN ACCURACY DEGRADATION OCCURS AS THE SENSITIVITIES OF TIME AND UPDATED STATE VECTOR TO CHANGES IN
000469:                                                                                                  #  RDESIRED INCREASE.  THIS WILL OCCUR NEAR EITHER APSIS OF THE CONIC AND WHEN THE CONIC IS NEARLY CIRCULAR.  IN
000470:                                                                                                  #  PARTICULAR, IF THE CONIC IS AN EXACT CIRCLE, THE PROBLEM IS UNDEFINED AND THE SUBROUTINE WILL ABORT.
000471:
000472:
000473:                                                                                                  #       THE AGC COMPUTATION TIME IS APPROXIMATELY .363 SECONDS
000474:
000475:
000476:
000477:                                                                                                  #  REFERENCES -
000478:                                                                                                  #       R-479, MISSION PROGRAMMING DEFINITION MEMO NO. 10, LUNAR LANDING MISSION GSOP-SECTION 5.5, SGA MEMO 67-8.
000479:
000480:
000481:
000482:                                                                                                  #  INPUT - ERASABLE INITIALIZATION REQUIRED
000483:
000484:                                                                                                  #          * SCALE FACTOR *
000485:                                                                                                  #  VARIABLE*IN POWERS OF 2*                         DESCRIPTION AND REMARKS
000486:                                                                                                  #  --------*--------------*                         -----------------------
000487:                                                                                                  #  RVEC    * +29 FOR EARTH*DP INITIAL POSITION VECTOR IN METERS
000488:                                                                                                  #          * +27 FOR MOON *
000489:                                                                                                  #  VVEC    * +7 FOR EARTH *DP INITIAL VELOCITY VECTOR IN METERS/CENTISECOND
000490:                                                                                                  #          * +5 FOR MOON  *
000491:                                                                                                  #  RDESIRED* +29 FOR EARTH*DP TERMINAL RADIAL DISTANCE ON CONIC TRAJECTORY FOR WHICH TRANSFER TIME IS TO BE
000492:                                                                                                  #          * +27 FOR MOON *COMPUTED.
000493:                                                                                                  #  SGNRDOT * NONE         *SP TAG SET TO +.5 OR -.5 ACCORDING TO WHETHER THE RADIAL VELOCITY AT RDESIRED IS TO BE
000494:                                                                                                  #          *              *POSITIVE OR NEGATIVE, RESPECTIVELY.  THIS TAG REDUCES THE DOUBLE-VALUED PROBLEM TO A


000496:                                                                                                  #          *              *SINGLE-VALUED PROBLEM.
000497:                                                                                                  #  X1 (38D)* NONE         *INDEX REGISTER TO BE SET TO -2D OR -10D ACCORDING TO WHETHER THE EARTH OR MOON,
000498:                                                                                                  #          *              *RESPECTIVELY, IS THE CENTRAL BODY.
000499:                                                                                                  #  RVSW    * NONE         *AN INTERPRETIVE SWITCH TO BE SET IF ONLY TIME IS TO BE AN OUTPUT, CLEAR IF THE NEW STATE
000500:                                                                                                  #          *              *IS TO BE COMPUTED ALSO.
000501:
000502:
000503:
000504:                                                                                                  #  SUBROUTINES CALLED -
000505:                                                                                                  #        PARAM, GEOM, GETX, DELTIME, NEWSTATE
000506:
000507:
000508:
000509:                                                                                                  #  CALLING SEQUENCE AND NORMAL EXIT MODES -
000510:
000511:                                                                                                  #     IF ONLY TIME IS DESIRED AS OUTPUT -
000512:                                                                                                  #  L        SET    CALL            MUST BE IN INTERPRETIVE MODE AND OVFIND MUST BE CLEAR
000513:                                                                                                  #  L+1             RVSW
000514:                                                                                                  #  L+2             TIMERAD         RETURN WITH PL AT 0 AND T IN MPAC
000515:                                                                                                  #  L+3      ...                    CONTINUE
000516:
000517:                                                                                                  #     IF THE UPDATE STATE VECTOR IS DESIRED AS WELL -
000518:                                                                                                  #  L        CLEAR  CALL            MUST BE IN INTERPRETIVE MODE AND OVFIND MUST BE CLEAR
000519:                                                                                                  #  L+1             RVSW
000520:                                                                                                  #  L+2             TIMERAD         RETURNS WITH PL AT 6.  THE INITIAL POSITION VECTOR IS IN 0D OF THE PUSHLIST AND
000521:                                                                                                  #                                  THE INITIAL VELOCITY VECTOR IN MPAC.
000522:                                                                                                  #  L+3      STOVL  NEWVVEC
000523:                                                                                                  #  L+4      STADR
000524:                                                                                                  #  L+5      STORE  NEWRVEC                 NEWVVEC AND NEWRVEC ARE SYMBOLIC REPRESENTATIONS OF THE USERS LOCATIONS.
000525:                                                                                                  #  L+6      ...                            CONTINUE
000526:
000527:
000528:
000529:                                                                                                  #  ABORT EXIT MODES -
000530:                                                                                                  #  L        CALL   BON
000531:                                                                                                  #  L+1             TIMERAD
000532:                                                                                                  #  L+2             COGAFLAG
000533:                                                                                                  #  L+3             COGABORT        RESTRICTION 1 HAS BEEN VIOLATED.
000534:                                                                                                  #  L+4      BON    BON
000535:                                                                                                  #  L+5             INFINFLG
000536:                                                                                                  #  L+6             IMPOSSBL        NO SOLUTION EXISTS.
000537:                                                                                                  #  L+7             SOLNSW
000538:                                                                                                  #  L+8             IMPOSSBL        SOLUTION IS UNDEFINED SINCE CONIC IS A CIRCLE.  RESTRICTION 3 HAS BEEN VIOLATED.
000539:                                                                                                  #  L+9      ...                    IF ALL THREE OF THE FLAGS ARE CLEAR, A SOLUTION EXISTS, SO CONTINUE.
000540:
000541:
000542:
000543:                                                                                                  #  OUTPUT -
000544:                                                                                                  #          * SCALE FACTOR *


000546:                                                                                                  #  VARIABLE*IN POWERS OF 2*                         DESCRIPTION AND REMARKS
000547:                                                                                                  #  --------*--------------*                         -----------------------
000548:                                                                                                  #  T (30D) * +28          *DP TRANSFER TIME IN CENTISECONDS
000549:                                                                                                  #  INFINFLG* NONE         *AN INTERPRETIVE SWITCH WHICH IS SET IF RDESIRED AND SGNRDOT REQUIRE CLOSURE THROUGH
000550:                                                                                                  #          *              *INFINITY (NO SOLUTION), CLEAR IF A PHYSICAL SOLUTION IS POSSIBLE.
000551:                                                                                                  #  COGAFLAG* NONE         *AN INTERPRETIVE SWITCH WHICH IS SET IF RESTRICTION 1 HAS BEEN VIOLATED (NO SOLUTION),
000552:                                                                                                  #          *              *CLEAR IF NOT.
000553:                                                                                                  #  APSESW  * NONE         *AN INTERPRETIVE SWITCH WHICH IS SET IF RDESIRED WAS GREATER THAN RADIUS OF APOCENTER OR
000554:                                                                                                  #          *              *LESS THAN RADIUS OF PERICENTER.  THE APOCENTER OR PERICENTER SOLUTION, RESPECTIVELY,
000555:                                                                                                  #          *              *WILL THEN BE RETURNED.  THE SWITCH IS CLEAR IF RDESIRED WAS BETWEEN PERICENTER AND
000556:                                                                                                  #          *              *APOCENTER.
000557:                                                                                                  #  SOLNSW  * NONE         *AN INTERPRETIVE SWITCH WHICH IS SET IF THE CONIC IS SO CLOSE TO A CIRCLE THAT THE TERMIN
000558:                                                                                                  #                         *POINT IS AMBIGUOUS, VIOLATING RESTRICTION 3.  IF ECCENTRICITY IS GREATER THAN 2-TO-THE-
000559:                                                                                                  #                         *MINUS-18, THE SWITCH IS CLEAR.
000560:
000561:
000562:
000563:                                                                                                  #  IN ADDITION, IF VTARGTAG IS NON-ZERO, THE FOLLOWING ARE OUTPUT -
000564:
000565:                                                                                                  #  MPAC -  * +7 FOR EARTH *DP TERMINAL VELOCITY VECTOR IN METERS/CENTISEC.
000566:                                                                                                  #   MPAC +5* +5 FOR MOON  *
000567:                                                                                                  #  0D - 5D * +29 FOR EARTH*DP TERMINAL POSITION VECTOR IN METERS (PL AT 6D)
000568:                                                                                                  #          * +27 FOR MOON *
000569:
000570:                                                                                                  #  FOR OTHER OUTPUT WHICH MAY BE OF USE, SEE DEBRIS.
000571:
000572:
000573:
000574:                                                                                                  #  DEBRIS -
000575:
000576:                                                                                                  #       PARAMETERS WHICH MAY BE OF USE -
000577:
000578:                                                                                                  #          * SCALE FACTOR *
000579:                                                                                                  #  VARIABLE*IN POWERS OF 2*                         DESCRIPTION AND REMARKS
000580:                                                                                                  #  --------*--------------*                         -----------------------
000581:                                                                                                  #  R1 (32D)* +29 FOR EARTH*DP MAGNITUDE OF INITIAL POSITION VECTOR, RVEC, IN METERS
000582:                                                                                                  #          * +27 FOR MOON *
000583:                                                                                                  #  R1A     * +6           *DP RATIO OF R1 TO SEMIMAJOR AXIS (NEG. FOR HYPERBOLIC TRAJECTORIES)
000584:                                                                                                  #  P       * +4           *DP RATIO OF SEMILATUS RECTUM TO R1
000585:                                                                                                  #  COGA    * +5           *DP COTAN OF ANGLE BETWEEN RVEC AND VVEC
000586:                                                                                                  #  UR1     * +1           *DP UNIT VECTOR OF RVEC
000587:                                                                                                  #  U2      * +1           *DP UNIT VECTOR OF VVEC
000588:                                                                                                  #  UN      * +1           *DP UNIT VECTOR OF UR1*U2
000589:                                                                                                  #  CSTH    * +1           *DP COSINE OF TRUE ANOMALY DIFFERENCE BETWEEN RVEC AND RDESIRED.
000590:                                                                                                  #  SNTH    * +1           *DP SINE OF TRUE ANOMALY DIFFERENCE.
000591:
000592:
000593:                                                                                                  #       PARAMETERS OF NO USE -
000594:                                                                                                  #  SP PARAMETERS -  RTNTT, GEOMSGN, RTNPRM, MAGVEC2=R2 (DP), PLUS PUSHLIST LOCATIONS 0-11D, 14D-21D, 24D-39D, 41D
000595:                                                                                                  #  ADDITIONAL INTERPRETIVE SWITCHES USED - NORMSW, 360SW
000596:
000597:


000599:                                                                                                  #  PROGRAM DESCRIPTION - APSIDES SUBROUTINE                                        DATE - 1 SEPTEMBER 1967
000600:                                                                                                  #  MOD NO. - 0                                                                     LOG SECTION - CONIC SUBROUTINES
000601:                                                                                                  #  MOD BY KRAUSE                                                                   ASSEMBLY - COLOSSUS REVISION 88
000602:
000603:
000604:
000605:                                                                                                  #  FUNCTIONAL DESCRIPTION -
000606:
000607:                                                                                                  #       THIS SUBROUTINE, GIVEN AN INITIAL STATE VECTOR CALCULATES THE RADIUS OF PERICENTER AND OF APOCENTER AND THE
000608:                                                                                                  #  ECCENTRICITY OF THE RESULTING CONIC TRAJECTORY, WHICH MAY BE A STRAIGHT LINE,
000609:                                                                                                  #  CIRCLE, ELLIPSE, PARABOLA, OR HYPERBOLA WITH RESPECT TO THE EARTH OR THE MOON.  THE USE OF THE SUBROUTINE CAN BE
000610:                                                                                                  #  EXTENDED USING OTHER PRIMARY BODIES BY SIMPLE ADDITIONS TO THE MUTABLE WITHOUT INTRODUCING ANY CODING CHANGES,
000611:                                                                                                  #  ACCEPTING THE INHERENT SCALE FACTOR CHANGES IN POSITION AND VELOCITY.
000612:
000613:
000614:                                                                                                  #  THE RESTRICTIONS ARE -
000615:                                                                                                  #       1.  IF APOCENTER IS BEYOND THE SCALING OF POSITION, THE SCALE FACTOR LIMIT (536,870,910 METERS WITH RESPECT
000616:                                                                                                  #  TO THE EARTH OR 134,217,727.5 METERS WITH RESPECT TO THE MOON) WILL BE RETURNED.
000617:                                                                                                  #       2. THE PARAMETERS IN THE PROBLEM MUST NOT EXCEED THEIR SCALING LIMITS SPECIFIED IN THE GSOP.  IF THE LIMITS
000618:                                                                                                  #  ARE EXCEEDED, THE RESULTING SOLUTION WILL BE MEANINGLESS.
000619:
000620:                                                                                                  #       THE AGC COMPUTATION TIME IS APPROXIMATELY .103 SECONDS.
000621:
000622:
000623:
000624:                                                                                                  #  REFERENCES -
000625:                                                                                                  #       MISSION PROGRAMMING DEFINITION MEMO NO. 10, LUNAR LANDING MISSION GSOP-SECTION 5.5
000626:
000627:
000628:
000629:                                                                                                  #  INPUT - ERASABLE INITIALIZATION REQUIRED
000630:
000631:                                                                                                  #          * SCALE FACTOR *
000632:                                                                                                  #  VARIABLE*IN POWERS OF 2*                         DESCRIPTION AND REMARKS
000633:                                                                                                  #  --------*--------------*                         -----------------------
000634:                                                                                                  #  RVEC    * +29 FOR EARTH*DP INITIAL POSITION VECTOR IN METERS
000635:                                                                                                  #          * +27 FOR MOON *
000636:                                                                                                  #  VVEC    * +7 FOR EARTH *DP INITIAL VELOCITY VECTOR IN METERS/CENTISECOND
000637:                                                                                                  #          * +5 FOR MOON  *
000638:                                                                                                  #  X1 (38D)*NONE          *INDEX REGISTER TO BE SET TO -2D OR -10D ACCORDING TO WHETHER THE EARTH OR MOON,
000639:                                                                                                  #          *              *RESPECTIVELY, IS THE CENTRAL BODY.
000640:
000641:
000642:
000643:                                                                                                  #  SUBROUTINES CALLED -
000644:                                                                                                  #       PARAM, GEOM
000645:
000646:
000647:
000648:                                                                                                  #  CALLING SEQUENCE AND NORMAL EXIT MODES -


000650:                                                                                                  #     IF ONLY TIME IS DESIRED AS OUTPUT -
000651:                                                                                                  #  L        CALL                   MUST BE IN INTERPRETIVE MODE AND OVFIND MUST BE CLEAR.
000652:                                                                                                  #  L+1             APSIDES         RETURNS WITH PL AT 0, RADIUS OF APOCENTER IN MPAC AND RADIUS OF PERICENTER IN 0D
000653:                                                                                                  #  L+2      STODL  APOAPSE
000654:                                                                                                  #  L+3             0D
000655:                                                                                                  #  L+4      STORE  PERIAPSE                APOAPSE AND PERIAPSE ARE SYMBOLIC REPRESENTATIONS OF THE USERS LOCATIONS
000656:                                                                                                  #  L+5      ...                    CONTINUE
000657:
000658:
000659:
000660:                                                                                                  #  OUTPUT -
000661:                                                                                                  #          * SCALE FACTOR *
000662:                                                                                                  #  VARIABLE*IN POWERS OF 2*                         DESCRIPTION AND REMARKS
000663:                                                                                                  #  --------*--------------*                         -----------------------
000664:                                                                                                  #  MPAC    * +29 FOR EARTH*DP RADIUS OF APOCENTER IN METERS
000665:                                                                                                  #          * +27 FOR MOON *
000666:                                                                                                  #  0D-1D   * +29 FOR EARTH*DP RADIUS OF PERICENTER IN METERS
000667:                                                                                                  #          * +27 FOR MOON *
000668:                                                                                                  #  ECC     * +3           *DP ECCENTRICITY OF CONIC TRAJECTORY.
000669:
000670:                                                                                                  #  FOR OTHER OUTPUT WHICH MAY BE OF USE, SEE DEBRIS.
000671:
000672:
000673:
000674:                                                                                                  #  DEBRIS -
000675:
000676:                                                                                                  #       PARAMETERS WHICH MAY BE OF USE -
000677:
000678:                                                                                                  #          * SCALE FACTOR *
000679:                                                                                                  #  VARIABLE*IN POWERS OF 2*                         DESCRIPTION AND REMARKS
000680:                                                                                                  #  --------*--------------*                         -----------------------
000681:                                                                                                  #  R1 (32D)* +29 FOR EARTH*DP MAGNITUDE OF INITIAL POSITION VECTOR, RVEC, IN METERS
000682:                                                                                                  #          * +27 FOR MOON *
000683:                                                                                                  #  R1A     * +6           *DP RATIO OF R1 TO SEMIMAJOR AXIS (NEG. FOR HYPERBOLIC TRAJECTORIES)
000684:                                                                                                  #  P       * +4           *DP RATIO OF SEMILATUS RECTUM TO R1
000685:                                                                                                  #  COGA    * +5           *DP COTAN OF ANGLE BETWEEN RVEC AND VVEC
000686:                                                                                                  #  UR1     * +1           *DP UNIT VECTOR OF RVEC
000687:                                                                                                  #  U2      * +1           *DP UNIT VECTOR OF VVEC
000688:                                                                                                  #  UN      * +1           *DP UNIT VECTOR OF UR1*U2
000689:                                                                                                  #  MAGVEC2 * +7 FOR EARTH *DP MAGNITUDE OF VVEC
000690:                                                                                                  #          * +5 FOR MOON  *
000691:
000692:
000693:                                                                                                  #       PARAMETERS OF NO USE -
000694:                                                                                                  #  SP PARAMETERS - RTNAPSE, GEOMSGN, RTNPRM, PLUS PUSHLIST LOCATIONS 0-5, 10D-11D, 14D-21D, 31D-38D.
000695:                                                                                                  #  ADDITIONAL INTERPRETIVE SWITCHES USED - NORMSW
000696:
000697:
000698:
000699: 12,2000                                           SETLOC   CONICS


000701: 12,2000                                           BANK
000702:
000703: 12,2000                                           COUNT*   $$/CONIC
000704: 12,2000  E5,1721                                  EBANK=   UR1
000705: 12,2000           71201        KEPLERN            SETPD    DLOAD
000706: 12,2001           00001                                    0
000707: 12,2002           22275                                    KEPZERO
000708: 12,2003           02177                           STORE    XMODULO
000709: 12,2004           32201                           STOVL*   TMODULO
000710: 12,2005           10005                                    MUTABLE,1
000711: 12,2006           24017                           STOVL    14D
000712: 12,2007           01503                                    RRECT
000713: 12,2010           66256                           UNIT     SSP
000714: 12,2011           00027                                    ITERCTR
000715: 12,2012           00024                                    20D
000716: 12,2013           16647                           STODL    URRECT
000717: 12,2014           00045                                    36D
000718: 12,2015           24041                           STOVL    R1
000719: 12,2016           01503                                    RRECT
000720: 12,2017           76441                           DOT      SL1R
000721: 12,2020           01511                                    VRECT
000722: 12,2021           76405                           DMP      SL1R
000723: 12,2022           00023                                    1/ROOTMU                              #  1/ROOTMU (-17 OR -14)
000724: 12,2023           24043                           STOVL    KEPC1                                 #  C1=R.V/ROOTMU (+17 OR +16)
000725:
000726: 12,2024           01511                                    VRECT
000727: 12,2025           57236                           VSQ      DMPR
000728: 12,2026           00017                                    1/MU                                  #  1/MU (-34 OR -28)
000729: 12,2027           52405                           DMP      SL3
000730: 12,2030           00041                                    R1
000731: 12,2031           61425                           DSU      ROUND
000732: 12,2032           10756                                    D1/64
000733: 12,2033           00045                           STORE    KEPC2                                 #  C2=RV.V/MU -1 (+6)
000734:
000735: 12,2034           74421                           BDSU     SR1R
000736: 12,2035           10756                                    D1/64
000737: 12,2036           77671                           DDV
000738: 12,2037           00041                                    R1
000739: 12,2040           00011                           STORE    ALPHA                                 #  ALPHA=(1-C2)/R1 (-22 OR -20)
000740:
000741:
000742: 12,2041           71244                           BPL      DLOAD                                 #  MAXIMUM X DEPENDS ON TYPE OF CONIC
000743: 12,2042           24051                                    1REV
000744: 12,2043           10774                                    -50SC                                 #  -50SC (+12)
000745: 12,2044           40071                           DDV      BOV
000746: 12,2045           00011                                    ALPHA
000747: 12,2046           24055                                    STOREMAX
000748: 12,2047           52166                           SQRT     GOTO
000749: 12,2050           24055                                    STOREMAX
000750:


000752: 12,2051           55366        1REV               SQRT     BDDV
000753: 12,2052           10776                                    2PISC                                 #  2PISC (+6)
000754: 12,2053           77600                           BOV
000755: 12,2054           24055                                    STOREMAX
000756: 12,2055           00013        STOREMAX           STORE    XMAX
000757: 12,2056           65205                           DMP      PDDL
000758: 12,2057           00023                                    1/ROOTMU
000759: 12,2060           00011                                    ALPHA
000760: 12,2061           65301                           NORM     PDDL
000761: 12,2062           00047                                    X1
000762: 12,2063           56257                           SL*      DDV
000763: 12,2064           20173                                    0          -6,1
000764: 12,2065           50000                           BOV      BMN
000765: 12,2066           24112                                    MODDONE
000766: 12,2067           24112                                    MODDONE                               #  MPAC=PERIOD
000767: 12,2070           51525        PERIODCH           PDDL     ABS                                   #  0D=PERIOD
000768: 12,2071           02074                                    TAU.
000769: 12,2072           50025                           DSU      BMN
000770: 12,2073           00001                                    0D
000771: 12,2074           24112                                    MODDONE
000772: 12,2075           77765                           SIGN
000773: 12,2076           02074                                    TAU.
000774: 12,2077           16074                           STODL    TAU.
000775: 12,2100           00013                                    XMAX
000776: 12,2101           77615                           DAD
000777: 12,2102           02177                                    XMODULO
000778: 12,2103           16177                           STODL    XMODULO
000779: 12,2104           00001                                    0D
000780: 12,2105           77615                           DAD
000781: 12,2106           02201                                    TMODULO
000782: 12,2107           16201                           STODL    TMODULO
000783: 12,2110           77650                           GOTO
000784: 12,2111           24070                                    PERIODCH
000785: 12,2112           77601        MODDONE            SETPD
000786: 12,2113           00001                                    0
000787: 12,2114           75345                           DLOAD    SIGN
000788: 12,2115           02201                                    TMODULO
000789: 12,2116           02074                                    TAU.
000790: 12,2117           02201                           STORE    TMODULO
000791: 12,2120           75345                           DLOAD    SIGN
000792: 12,2121           02177                                    XMODULO
000793: 12,2122           02074                                    TAU.
000794: 12,2123           02177                           STORE    XMODULO
000795: 12,2124           77621                           BDSU
000796: 12,2125           02130                                    XKEPNEW
000797: 12,2126           00025                           STORE    X
000798: 12,2127           53165                           SIGN     BZE
000799: 12,2130           02074                                    TAU.
000800: 12,2131           24311                                    BADX
000801: 12,2132           51440                           BMN      ABS


000803: 12,2133           24311                                    BADX
000804: 12,2134           51025                           DSU      BPL
000805: 12,2135           00013                                    XMAX
000806: 12,2136           24311                                    BADX
000807: 12,2137           51145        STORBNDS           DLOAD    BPL
000808: 12,2140           02074                                    TAU.
000809: 12,2141           24151                                    STOREMIN
000810: 12,2142           57545                           DLOAD    DCOMP
000811: 12,2143           00013                                    XMAX
000812: 12,2144           14015                           STODL    XMIN
000813: 12,2145           22275                                    KEPZERO
000814: 12,2146           00013                           STORE    XMAX
000815: 12,2147           77650                           GOTO
000816: 12,2150           24154                                    DXCOMP
000817: 12,2151           77745        STOREMIN           DLOAD
000818: 12,2152           22275                                    KEPZERO
000819: 12,2153           00015                           STORE    XMIN
000820: 12,2154           57345        DXCOMP             DLOAD    DMPR
000821: 12,2155           02074                                    TAU.
000822: 12,2156           10767                                    BEE22
000823: 12,2157           77646                           ABS
000824: 12,2160           16203                           STODL    EPSILONT
000825: 12,2161           01551                                    TC
000826: 12,2162           45254                           BZE      DSU
000827: 12,2163           24165                                    NEWTC
000828: 12,2164           02201                                    TMODULO
000829: 12,2165           15551        NEWTC              STODL    TC
000830: 12,2166           01553                                    XPREV
000831: 12,2167           45254                           BZE      DSU
000832: 12,2170           24172                                    XDIFF
000833: 12,2171           02177                                    XMODULO
000834: 12,2172           77621        XDIFF              BDSU
000835: 12,2173           00025                                    X
000836: 12,2174           02643                           STORE    DELX
000837:
000838:
000839: 12,2175           63545        KEPLOOP            DLOAD    DSQ
000840: 12,2176           00025                                    X                                     #  X=XKEP
000841: 12,2177           41501                           NORM     PUSH                                  #  0D=XSQ (+34 OR +32 -N1)       PL AT 2
000842: 12,2200           00047                                    X1
000843: 12,2201           53605                           DMP      SRR*
000844: 12,2202           00011                                    ALPHA
000845: 12,2203           21573                                    0          -6,1
000846: 12,2204           34031                           STCALL   XI                                    #  XI=ALPHA XSQ (+6)
000847: 12,2205           24434                                    DELTIME
000848: 12,2206           44200                           BOV      BDSU
000849: 12,2207           24320                                    TIMEOVFL                              #  UNLIKELY
000850: 12,2210           02074                                    TAU.
000851: 12,2211           02645                           STORE    DELT                                  #  DELT=DELINDEP
000852: 12,2212           44246                           ABS      BDSU


000854: 12,2213           02203                                    EPSILONT
000855: 12,2214           71244                           BPL      DLOAD
000856: 12,2215           24342                                    KEPCONVG
000857: 12,2216           00037                                    T
000858: 12,2217           60225                           DSU      NORM
000859: 12,2220           01551                                    TC
000860: 12,2221           00047                                    X1
000861: 12,2222           60325                           PDDL     NORM
000862: 12,2223           02643                                    DELX
000863: 12,2224           00050                                    X2
000864: 12,2225           41260                           XSU,1    DMP
000865: 12,2226           00047                                    X2
000866: 12,2227           02645                                    DELT
000867: 12,2230           56257                           SLR*     DDV
000868: 12,2231           21202                                    1,1
000869: 12,2232           41542                           SR1      PUSH                                  #  0D=TRIAL DELX              PL AT 2
000870: 12,2233           71244                           BPL      DLOAD
000871: 12,2234           24255                                    POSDELX
000872: 12,2235           00025                                    X
000873: 12,2236           00013                           STORE    XMAX                                  #  MOVE MAX BOUND IN
000874: 12,2237           45221                           BDSU     DSU                                   #                             PL AT 0
000875: 12,2240           00015                                    XMIN
000876: 12,2241           51000                           BOV      BPL
000877: 12,2242           24247                                    NDXCHNGE
000878: 12,2243           24247                                    NDXCHNGE
000879: 12,2244           52145                           DLOAD    GOTO
000880: 12,2245           00001                                    0D
000881: 12,2246           24267                                    NEWDELX
000882:
000883:
000884: 12,2247           45345        NDXCHNGE           DLOAD    DSU
000885: 12,2250           00015                                    XMIN
000886: 12,2251           00025                                    X
000887: 12,2252           52075                           DMPR     GOTO                                  #  TO FORCE MPAC +2 TO ZERO
000888: 12,2253           10772                                    DP9/10
000889: 12,2254           24267                                    NEWDELX
000890:
000891:
000892: 12,2255           77745        POSDELX            DLOAD
000893: 12,2256           00025                                    X
000894: 12,2257           00015                           STORE    XMIN                                  #  MOVE MIN BOUND IN
000895: 12,2260           45221                           BDSU     DSU                                   #                             PL AT 0
000896: 12,2261           00013                                    XMAX
000897: 12,2262           50000                           BOV      BMN
000898: 12,2263           24303                                    PDXCHNGE
000899: 12,2264           24303                                    PDXCHNGE
000900: 12,2265           77745                           DLOAD
000901: 12,2266           00001                                    0D
000902: 12,2267           02643        NEWDELX            STORE    DELX
000903: 12,2270           43254                           BZE      DAD


000905: 12,2271           24342                                    KEPCONVG
000906: 12,2272           00025                                    X
000907: 12,2273           14025                           STODL    X
000908: 12,2274           00037                                    T
000909: 12,2275           01551                           STORE    TC
000910: 12,2276           46034        BRNCHCTR           RTB      BHIZ
000911: 12,2277           24657                                    CHECKCTR
000912: 12,2300           24342                                    KEPCONVG
000913: 12,2301           77650                           GOTO
000914: 12,2302           24175                                    KEPLOOP                               #  ITERATE
000915:
000916:
000917: 12,2303           45345        PDXCHNGE           DLOAD    DSU
000918: 12,2304           00013                                    XMAX
000919: 12,2305           00025                                    X
000920: 12,2306           52075                           DMPR     GOTO                                  #  TO FORCE MPAC +2 TO ZERO
000921: 12,2307           10772                                    DP9/10
000922: 12,2310           24267                                    NEWDELX
000923:
000924:
000925: 12,2311           70545        BADX               DLOAD    SR1
000926: 12,2312           00013                                    XMAX
000927: 12,2313           77765                           SIGN
000928: 12,2314           02074                                    TAU.
000929: 12,2315           00025                           STORE    X
000930: 12,2316           77650                           GOTO
000931: 12,2317           24137                                    STORBNDS
000932: 12,2320           50145        TIMEOVFL           DLOAD    BMN                                   #  X WAS TOO BIG
000933: 12,2321           00025                                    X
000934: 12,2322           24337                                    NEGTOVFL
000935: 12,2323           00013                           STORE    XMAX
000936: 12,2324           70545        CMNTOVFL           DLOAD    SR1
000937: 12,2325           02643                                    DELX
000938: 12,2326           02643                           STORE    DELX
000939: 12,2327           44254                           BZE      BDSU
000940: 12,2330           02112                                    KEPRTN
000941: 12,2331           00025                                    X
000942: 12,2332           14025                           STODL    X
000943: 12,2333           01551                                    TC
000944: 12,2334           00037                           STORE    T
000945: 12,2335           77650                           GOTO
000946: 12,2336           24276                                    BRNCHCTR
000947: 12,2337           00015        NEGTOVFL           STORE    XMIN
000948: 12,2340           77650                           GOTO
000949: 12,2341           24324                                    CMNTOVFL
000950: 12,2342           44545        KEPCONVG           DLOAD    SR4R
000951: 12,2343           00041                                    R1
000952: 12,2344           74225                           DSU      VXSC
000953: 12,2345           00035                                    XSQC(XI)
000954: 12,2346           02647                                    URRECT


000956: 12,2347           65372                           VSL1     PDDL                                  #  0D=(R1-XSQC(XI))URRECT (+33 OR +31)
000957: 12,2350           00025                                    X
000958: 12,2351           60316                           DSQ      NORM
000959: 12,2352           00047                                    X1
000960: 12,2353           57275                           DMPR     DMPR
000961: 12,2354           00023                                    1/ROOTMU
000962: 12,2355           00025                                    X
000963: 12,2356           53605                           DMP      SRR*
000964: 12,2357           00033                                    S(XI)
000965: 12,2360           21572                                    0          -7,1
000966: 12,2361           77621                           BDSU
000967: 12,2362           00037                                    T
000968: 12,2363           74352                           SL1      VXSC
000969: 12,2364           01511                                    VRECT
000970: 12,2365           53372                           VSL1     VAD                                   #                               PL AT 0
000971: 12,2366           77712                           VSL4
000972: 12,2367           01535                           STORE    RCV                                   #  RCV (+29 OR +27)
000973:
000974:
000975: 12,2370           60246                           ABVAL    NORM
000976: 12,2371           00050                                    X2
000977: 12,2372           14043                           STODL    RCNORM
000978: 12,2373           00031                                    XI
000979: 12,2374           45275                           DMPR     DSU
000980: 12,2375           00033                                    S(XI)
000981: 12,2376           10754                                    D1/128
000982: 12,2377           76405                           DMP      SL1R
000983: 12,2400           00021                                    ROOTMU
000984: 12,2401           53605                           DMP      SLR*
000985: 12,2402           00025                                    X
000986: 12,2403           56601                                    0          -3,2
000987: 12,2404           74271                           DDV      VXSC
000988: 12,2405           00043                                    RCNORM
000989: 12,2406           02647                                    URRECT
000990: 12,2407           65372                           VSL1     PDDL                                  #  0D=URRECT(XI S(XI)-1)X ROOTMU/RCV (+15
000991: 12,2410           00035                                    XSQC(XI)                              #  OR +13)                        PL AT 6
000992: 12,2411           56257                           SLR*     DDV
000993: 12,2412           56602                                    0          -4,2
000994: 12,2413           00043                                    RCNORM
000995: 12,2414           74221                           BDSU     VXSC
000996: 12,2415           10770                                    D1/256
000997: 12,2416           01511                                    VRECT
000998: 12,2417           42455                           VAD      VSL8
000999: 12,2420           77626                           STADR                                          #                               PL AT 0
001000: 12,2421           62234                           STODL    VCV                                   #  VCV (+7 OR +5)
001001: 12,2422           00037                                    T
001002: 12,2423           77615                           DAD
001003: 12,2424           02201                                    TMODULO
001004: 12,2425           15551                           STODL    TC
001005: 12,2426           00025                                    X


001007: 12,2427           77615                           DAD
001008: 12,2430           02177                                    XMODULO
001009: 12,2431           01553                           STORE    XPREV
001010: 12,2432           77650                           GOTO
001011: 12,2433           02112                                    KEPRTN
001012:


001014: 12,2434           77776        DELTIME            EXIT                                           #  MPAC=XI (+6), 0D=XSQ (+34 OR +32 -N1)
001015: 12,2435           07221                           TC       POLY
001016: 12,2436           00010                           DEC      8          B-14
001017: 12,2437           02525 12526                     2DEC     .083333334
001018:
001019: 12,2441           67356 75666                     2DEC     -.266666684
001020:
001021: 12,2443           15001 23771                     2DEC     .406349155
001022:
001023: 12,2445           64342 43674                     2DEC     -.361198675
001024:
001025: 12,2447           06563 04645                     2DEC     .210153242
001026:
001027: 12,2451           75173 52672                     2DEC     -.086221951
001028:
001029: 12,2453           00656 14331                     2DEC     .026268812
001030:
001031: 12,2455           77633 40512                     2DEC     -.006163316
001032:
001033: 12,2457           00023 11210                     2DEC     .001177342
001034:
001035: 12,2461           77774 67506                     2DEC     -.000199055
001036:
001037: 12,2463           06036                           TC       INTPRET
001038: 12,2464           14033                           STODL    S(XI)
001039: 12,2465           00031                                    XI
001040: 12,2466           77776                           EXIT
001041: 12,2467           07221                           TC       POLY
001042: 12,2470           00010                           DEC      8          B-14
001043: 12,2471           01000 00000                     2DEC     .031250001
001044:
001045: 12,2473           72525 52506                     2DEC     -.166666719
001046:
001047: 12,2475           13301 15337                     2DEC     .355555413
001048:
001049: 12,2477           62776 54733                     2DEC     -.406347410
001050:
001051: 12,2501           11176 13267                     2DEC     .288962094
001052:
001053: 12,2503           73410 51674                     2DEC     -.140117894
001054:
001055: 12,2505           01446 33641                     2DEC     .049247387
001056:
001057: 12,2507           77451 65233                     2DEC     -.013081923
001058:
001059: 12,2511           00055 37266                     2DEC     .002806389
001060:
001061: 12,2513           77767 52336                     2DEC     -.000529414
001062:
001063: 12,2515           06036                           TC       INTPRET


001065: 12,2516           53605                           DMP      SRR*                                  #                               PL AT 0
001066: 12,2517           00001                                    0D
001067: 12,2520           21574                                    0          -5,1
001068: 12,2521           00035                           STORE    XSQC(XI)                              #  XSQC(XI) (+33 OR +31)
001069: 12,2522           72405                           DMP      SL1
001070: 12,2523           00043                                    KEPC1
001071: 12,2524           65234                           RTB      PDDL                                  #  XCH WITH PL. 0D=C1 XSQ C(XI) (+49 OR +46
001072: 12,2525           21537                                    TPMODE                                #                               PL AT 0,3
001073: 12,2526           53605                           DMP      SRR*
001074: 12,2527           00033                                    S(XI)
001075: 12,2530           21574                                    0          -5,1
001076: 12,2531           72405                           DMP      SL1
001077: 12,2532           00045                                    KEPC2
001078: 12,2533           65234                           RTB      PDDL                                  #  3D=C2 XSQ S(XI) (+35 OR +33)  PL AT 6
001079: 12,2534           21537                                    TPMODE
001080: 12,2535           00041                                    R1
001081: 12,2536           76261                           SR       TAD                                   #                               PL AT 3
001082: 12,2537           20607                                    6
001083: 12,2540           41301                           NORM     DMP                                   #  TO PRESERVE SIGNIF.
001084: 12,2541           00047                                    X1
001085: 12,2542           00025                                    X
001086: 12,2543           76257                           SR*      TAD                                   #  X(C2 XSQ S(XI) +R1) (+49 OR +46) PL AT 0
001087: 12,2544           20576                                    0          -3,1
001088: 12,2545           57232                           SL4R     DMPR
001089: 12,2546           00023                                    1/ROOTMU
001090: 12,2547           00037                           STORE    T
001091: 12,2550           77616                           RVQ
001092:


001094: 12,2551           71214        ITERATOR           BONCLR   DLOAD
001095: 12,2552           00614                                    SLOPESW
001096: 12,2553           24621                                    FIRSTIME
001097: 12,2554           00037                                    DEP
001098: 12,2555           60225                           DSU      NORM
001099: 12,2556           02762                                    DEPREV
001100: 12,2557           00047                                    X1
001101: 12,2560           60325                           PDDL     NORM
001102: 12,2561           00015                                    DELINDEP
001103: 12,2562           00050                                    X2
001104: 12,2563           41260                           XSU,1    DMP
001105: 12,2564           00047                                    X2
001106: 12,2565           02760                                    DELDEP
001107: 12,2566           56257                           SLR*     DDV                                   #                               PL UP 2
001108: 12,2567           21202                                    1,1
001109: 12,2570           43142                           SR1      BOFF
001110: 12,2571           04351                                    ORDERSW
001111: 12,2572           24575                                    SGNCHECK
001112: 12,2573           75246                           ABS      SIGN                                  #  IN CASE 2ND DERIV. CHANGED SIGN, MUST
001113: 12,2574           02760                                    DELDEP                                #  DISREGARD IT TO FIND MIN.
001114:
001115: 12,2575           51006        SGNCHECK           PUSH     BPL                                   #  TRIAL DELINDEP               PL DOWN 2
001116: 12,2576           24633                                    POSDEL
001117: 12,2577           43145                           DLOAD    BON
001118: 12,2600           02766                                    INDEP
001119: 12,2601           04311                                    ORDERSW
001120: 12,2602           24604                                    MINCHECK
001121: 12,2603           00017                           STORE    MAX                                   #  IF NOT 2ND ORDER, CAN MOVE MAX BOUND IN.
001122:
001123: 12,2604           45221        MINCHECK           BDSU     DSU
001124: 12,2605           00011                                    MIN
001125: 12,2606           51000                           BOV      BPL
001126: 12,2607           24613                                    MODNGDEL
001127: 12,2610           24613                                    MODNGDEL
001128: 12,2611           77650                           GOTO
001129: 12,2612           24645                                    DELOK
001130:
001131:
001132: 12,2613           45345        MODNGDEL           DLOAD    DSU                                   #  TRIAL DELINDEP WOULD EXCEED MIN BOUND
001133: 12,2614           00011                                    MIN
001134: 12,2615           02766                                    INDEP
001135: 12,2616           52005                           DMP      GOTO
001136: 12,2617           10772                                    DP9/10
001137: 12,2620           24647                                    NEWDEL
001138:
001139:
001140: 12,2621           41345        FIRSTIME           DLOAD    DMP
001141: 12,2622           00011                                    MIN
001142: 12,2623           00051                                    TWEEKIT                               #  DLOAD TWEEKIT(40D) SENSITIVE TO CHANGE.
001143: 12,2624           41325                           PDDL     DMP                                   #  S2(41D) SHOULDNT CONTAIN HI ORDER ONES


001145: 12,2625           00017                                    MAX
001146: 12,2626           00051                                    TWEEKIT
001147: 12,2627           77625                           DSU
001148: 12,2630           52165                           SIGN     GOTO
001149: 12,2631           02760                                    DELDEP
001150: 12,2632           24575                                    SGNCHECK
001151:
001152:
001153: 12,2633           43145        POSDEL             DLOAD    BON
001154: 12,2634           02766                                    INDEP
001155: 12,2635           04311                                    ORDERSW
001156: 12,2636           24640                                    MAXCHECK
001157: 12,2637           00011                           STORE    MIN                                   #  IF NOT 2ND ORDER, CAN MOVE MIN BOUND IN.
001158:
001159: 12,2640           45221        MAXCHECK           BDSU     DSU
001160: 12,2641           00017                                    MAX
001161: 12,2642           50000                           BOV      BMN
001162: 12,2643           24651                                    MODPSDEL
001163: 12,2644           24651                                    MODPSDEL
001164: 12,2645           77745        DELOK              DLOAD
001165: 12,2646           00001                                    0D
001166: 12,2647           00015        NEWDEL             STORE    DELINDEP
001167: 12,2650           77616                           RVQ
001168:
001169:
001170: 12,2651           45345        MODPSDEL           DLOAD    DSU
001171: 12,2652           00017                                    MAX
001172: 12,2653           02766                                    INDEP
001173: 12,2654           52005                           DMP      GOTO
001174: 12,2655           10772                                    DP9/10
001175: 12,2656           24647                                    NEWDEL
001176:
001177:
001178: 12,2657           44753        CHECKCTR           CS       ONE
001179: 12,2660           50120                           INDEX    FIXLOC
001180: 12,2661           60026                           AD       ITERCTR
001181: 12,2662           50120                           INDEX    FIXLOC
001182: 12,2663           54026                           TS       ITERCTR
001183: 12,2664           54154                           TS       MPAC
001184: 12,2665           06060                           TC       DANZIG
001185:


001187: 12,2666           44545        NEWSTATE           DLOAD    SR4R
001188: 12,2667           00041                                    R1
001189: 12,2670           74225                           DSU      VXSC
001190: 12,2671           00035                                    XSQC(XI)
001191: 12,2672           02722                                    UR1
001192: 12,2673           65372                           VSL1     PDDL                                  #  0D=(R1-XSQC(XI))UR1 (+33 OR 31) PL AT 6
001193: 12,2674           00025                                    X
001194: 12,2675           60316                           DSQ      NORM
001195: 12,2676           00047                                    X1
001196: 12,2677           57275                           DMPR     DMPR
001197: 12,2700           00023                                    1/ROOTMU
001198: 12,2701           00025                                    X
001199: 12,2702           53605                           DMP      SRR*
001200: 12,2703           00033                                    S(XI)
001201: 12,2704           21572                                    0          -7,1
001202: 12,2705           77621                           BDSU
001203: 12,2706           00037                                    T
001204: 12,2707           74352                           SL1      VXSC
001205: 12,2710           02744                                    VVEC
001206: 12,2711           53372                           VSL1     VAD                                   #                               PL AT 0
001207: 12,2712           41512                           VSL4     PUSH
001208: 12,2713           77646                           ABVAL
001209: 12,2714           77701        LAMENTER           NORM
001210: 12,2715           00047                                    X1
001211: 12,2716           16720                           STODL    R2
001212: 12,2717           00031                                    XI
001213: 12,2720           45205                           DMP      DSU
001214: 12,2721           00033                                    S(XI)
001215: 12,2722           10754                                    D1/128
001216: 12,2723           76405                           DMP      SL1R
001217: 12,2724           00021                                    ROOTMU
001218: 12,2725           53605                           DMP      SLR*
001219: 12,2726           00025                                    X
001220: 12,2727           21176                                    0          -3,1
001221: 12,2730           74271                           DDV      VXSC
001222: 12,2731           02720                                    R2
001223: 12,2732           02722                                    UR1
001224: 12,2733           65372                           VSL1     PDDL                                  #  6D=V2VEC PART (+15 OR 13)       PL AT 12
001225: 12,2734           00035                                    XSQC(XI)
001226: 12,2735           56257                           SLR*     DDV
001227: 12,2736           21175                                    0          -4,1
001228: 12,2737           02720                                    R2
001229: 12,2740           77621                           BDSU
001230: 12,2741           10770                                    D1/256
001231: 12,2742           53361                           VXSC     VAD                                   #                               PL AT 6
001232: 12,2743           02744                                    VVEC
001233: 12,2744           43412                           VSL8     RVQ
001234:


001236: 04,2000                                           SETLOC   CONICS1
001237: 04,2000                                           BANK
001238:
001239: 04,2750                                           COUNT*   $$/CONIC
001240:                                                                                                  #  DO NOT DISTURB THE ORDER OF THESE CDS, OVERLAYS HAVE BEEN MADE.
001241: 04,2750           00000        BEE17              DEC      0          B-14                       #  KEEP WITH D1/8 2DEC 1.0B-17 (0000004000)
001242: 04,2751           04000 00000  D1/8               2DEC     1.0        B-3
001243:
001244: 04,2753           00200 00000  D1/128             2DEC     1.0        B-7
001245:
001246: 04,2755           00400 00000  D1/64              2DEC     1.0        B-6
001247:
001248: 04,2757           10000 00000  D1/4               2DEC     1.0        B-2
001249:
001250: 04,2761           02000 00000  D1/16              2DEC     1.0        B-4
001251:
001252: 04,2763           01000 00000  D1/32              2DEC     1.0        B-5
001253:
001254: 04,2765           00020 00000  D1/1024            2DEC     1.0        B-10
001255:
001256: 04,2767           00100 00000  D1/256             2DEC     1.0        B-8
001257:
001258: 04,2771           34631 23146  DP9/10             2DEC     .9
001259:
001260: 04,2773  11,2274               KEPZERO            EQUALS   LO6ZEROS
001261: 04,2773           77467 77777  -50SC              2DEC     -50.0      B-12
001262:
001263: 04,2775           03110 17665  2PISC              2DEC     6.28318530 B-6
001264:
001265: 04,2777  04,2762               BEE19              EQUALS   D1/32      -1                         #  2DEC 1.0 B-19 (00000 01000)
001266: 04,2777  04,2766               BEE22              EQUALS   D1/256     -1                         #  2DEC 1.0 B-22 (00000 00100)
001267: 04,2777           00000 00001  ONEBIT             2DEC     1.0        B-28
001268:
001269: 04,3001           37767 37737  COGUPLIM           2DEC     .999511597
001270:
001271: 04,3003           40010 40040  COGLOLIM           2DEC     -.999511597
001272:
001273:


001275: 12,2000                                           SETLOC   CONICS
001276: 12,2000                                           BANK
001277:
001278: 12,2745                                           COUNT*   $$/CONIC
001279: 12,2745           40220        TIMETHET           STQ      SETPD                                 #                                PL AT 0
001280: 12,2746           02710                                    RTNTT
001281: 12,2747           00001                                    0
001282: 12,2750           63375                           VLOAD    PDVL                                  #  SETUP FOR PARAM CALL          PL AT 6
001283: 12,2751           02655                                    RVEC
001284: 12,2752           02744                                    VVEC
001285: 12,2753           77624                           CALL
001286: 12,2754           11005                                    PARAM
001287: 12,2755           45000                           BOV      CALL                                  #                                PL AT 0
001288: 12,2756           24775                                    COGAOVFL
001289: 12,2757           25000                                    GETX
001290: 12,2760           43145        COMMNOUT           DLOAD    BON
001291: 12,2761           00031                                    XI
001292: 12,2762           04310                                    INFINFLG
001293: 12,2763           02710                                    RTNTT
001294: 12,2764           45014                           CLEAR    CALL
001295: 12,2765           04273                                    COGAFLAG
001296: 12,2766           24434                                    DELTIME
001297: 12,2767           45014                           BON      CALL
001298: 12,2770           03706                                    RVSW
001299: 12,2771           02710                                    RTNTT
001300: 12,2772           24666                                    NEWSTATE
001301: 12,2773           77650                           GOTO
001302: 12,2774           02710                                    RTNTT
001303:
001304:
001305: 12,2775           77614        COGAOVFL           SETGO
001306: 12,2776           04033                                    COGAFLAG
001307: 12,2777           02710                                    RTNTT
001308:


001310: 04,3005                                           BANK     4
001311: 04,2000                                           SETLOC   CONICS1
001312: 04,2000                                           BANK
001313: 04,3005                                           COUNT*   $$/CONIC
001314: 04,3005           43020        PARAM              STQ      CLEAR                                 #  MPAC=V1VEC, 0D=R1VEC         PL AT 6
001315: 04,3006           02753                                    RTNPRM
001316: 04,3007           03665                                    NORMSW
001317: 04,3010           77614                           CLEAR
001318: 04,3011           04273                                    COGAFLAG
001319: 04,3012           45131                           SSP      CALL
001320: 04,3013           02673                                    GEOMSGN
001321: 04,3014           27777                                    37777                                 #  GAMMA ALWAYS LESS THAN 180DEG
001322: 04,3015           11051                                    GEOM                                  #  MPAC=SNGA (+1), 0D=CSGA (+1) PL AT 2
001323: 04,3016           14045                           STODL    36D                                   #  36D=SIN GAMMA (+1)           PL AT 0
001324: 04,3017           56261                           SR       DDV
001325: 04,3020           20606                                    5
001326:
001327: 04,3021           00045                                    36D
001328: 04,3022           32766                           STOVL*   COGA
001329: 04,3023           10005                                    MUTABLE,1
001330: 04,3024           14017                           STODL    1/MU
001331: 04,3025           02720                                    MAGVEC2
001332: 04,3026           60316                           DSQ      NORM
001333: 04,3027           00047                                    X1
001334: 04,3030           41275                           DMPR     DMP
001335: 04,3031           00017                                    1/MU
001336: 04,3032           00041                                    R1
001337: 04,3033           77657                           SRR*
001338: 04,3034           21576                                    0          -3,1
001339: 04,3035           44206                           PUSH     BDSU                                  #  0D=R1 V1SQ/MU (+6)           PL AT 2
001340: 04,3036           10764                                    D1/32
001341: 04,3037           16742                           STODL    R1A                                   #  R1A (+6)                     PL AT 0
001342:
001343: 04,3040           60205                           DMP      NORM
001344: 04,3041           00045                                    36D
001345: 04,3042           00047                                    X1
001346: 04,3043           53605                           DMP      SR*
001347: 04,3044           00045                                    36D
001348: 04,3045           20575                                    0          -4,1
001349: 04,3046           02740                           STORE    P                                     #  P (+4)
001350: 04,3047           77650                           GOTO
001351: 04,3050           02753                                    RTNPRM
001352:


001354: 04,3051           77656        GEOM               UNIT                                           #  MPAC=V2VEC, 0D=R1VEC         PL AT 6
001355: 04,3052           16712                           STODL    U2                                    #  U2 (+1)
001356: 04,3053           00045                                    36D
001357: 04,3054           26720                           STOVL    MAGVEC2                               #                               PL AT 0
001358: 04,3055           77656                           UNIT
001359: 04,3056           02722                           STORE    UR1                                   #  UR1 (+1)
001360: 04,3057           72441                           DOT      SL1
001361: 04,3060           02712                                    U2
001362: 04,3061           77725                           PDDL                                           #  0D=CSTH (+1)                 PL AT 2
001363: 04,3062           00045                                    36D
001364: 04,3063           24041                           STOVL    R1                                    #  R1 (+29 OR +27)
001365: 04,3064           02722                                    UR1
001366: 04,3065           76435                           VXV      VSL1
001367: 04,3066           02712                                    U2
001368: 04,3067           75214                           BON      SIGN
001369: 04,3070           03705                                    NORMSW
001370: 04,3071           11103                                    HAVENORM
001371: 04,3072           02673                                    GEOMSGN
001372: 04,3073           40056                           UNIT     BOV
001373: 04,3074           11101                                    COLINEAR
001374: 04,3075           16674        UNITNORM           STODL    UN                                    #  UN (+1)
001375: 04,3076           00045                                    36D
001376: 04,3077           43565                           SIGN     RVQ                                   #  MPAC=SNTH (+1), 34D=SNTH.SNTH (+2)
001377: 04,3100           02673                                    GEOMSGN
001378:
001379:
001380: 04,3101           52162        COLINEAR           VSR1     GOTO
001381: 04,3102           11075                                    UNITNORM
001382:
001383:
001384: 04,3103           75246        HAVENORM           ABVAL    SIGN
001385: 04,3104           02673                                    GEOMSGN
001386: 04,3105           77616                           RVQ                                            #  MPAC=SNTH (+1), 34D=SNTH.SNTH (+2)
001387:


001389: 12,3000                                           BANK     12
001390: 12,2000                                           SETLOC   CONICS
001391: 12,2000                                           BANK
001392:
001393: 12,3000                                           COUNT*   $$/CONIC
001394: 12,3000           66374        GETX               AXT,2    SSP                                   #  ASSUMES P (+4) IN MPAC
001395: 12,3001           00003                                    3
001396: 12,3002           00052                                    S2
001397: 12,3003           00001                                    1
001398: 12,3004           77614                           CLEAR
001399: 12,3005           04276                                    360SW
001400: 12,3006           65366                           SQRT     PDDL                                  #  0D=SQRT(P)                        PL AT 2
001401: 12,3007           02732                                    CSTH
001402: 12,3010           44342                           SR1      BDSU
001403: 12,3011           10760                                    D1/4
001404: 12,3012           54325                           PDDL     SRR                                   #                                PL AT 4D
001405: 12,3013           02730                                    SNTH
001406: 12,3014           21607                                    6
001407: 12,3015           77671                           DDV                                            #                                PL AT 2
001408: 12,3016           77600                           BOV
001409: 12,3017           25133                                    360CHECK
001410: 12,3020           41225                           DSU      DMP
001411: 12,3021           02766                                    COGA                                  #                                    PL AT 0
001412: 12,3022           40132                           SL2R     BOV
001413: 12,3023           25133                                    360CHECK
001414: 12,3024           63406        WLOOP              PUSH     DSQ                                   #  0D=W (+5)                         PL AT 2
001415: 12,3025           65351                           TLOAD    PDDL                                  #  2D=WSQ (+10)                      PL AT 5
001416: 12,3026           00155                                    MPAC
001417: 12,3027           02742                                    R1A
001418: 12,3030           76202                           SR4      TAD                                   #                                PL AT 2
001419: 12,3031           75440                           BMN      SQRT
001420: 12,3032           25216                                    INFINITY
001421: 12,3033           43306                           ROUND    DAD                                   #                                PL AT 0D
001422: 12,3034           61000                           BOV      TIX,2
001423: 12,3035           25131                                    RESETX2
001424: 12,3036           25024                                    WLOOP
001425:
001426:
001427: 12,3037           40065                           BDDV     BOV
001428: 12,3040           10754                                    D1/128
001429: 12,3041           25216                                    INFINITY
001430: 12,3042           41440        POLYCOEF           BMN      PUSH                                  #  0D=1/W (+2) OR 16/W (+6)      PL AT 2
001431: 12,3043           25216                                    INFINITY
001432: 12,3044           77716                           DSQ
001433: 12,3045           41301                           NORM     DMP
001434: 12,3046           00047                                    X1
001435: 12,3047           02742                                    R1A
001436: 12,3050           77457                           SRR*     EXIT
001437: 12,3051           21567                                    0          -10D,1
001438: 12,3052           07221                           TC       POLY


001440: 12,3053           00005                           DEC      5          B-14
001441: 12,3054           20000 00000                     2DEC     .5
001442:
001443: 12,3056           72525 52471                     2DEC     -.166666770
001444:
001445: 12,3060           03146 15003                     2DEC     .100000392
001446:
001447: 12,3062           75556 45210                     2DEC     -.071401086
001448:
001449: 12,3064           01615 13553                     2DEC     .055503292
001450:
001451: 12,3066           76371 63777                     2DEC     -.047264098
001452:
001453: 12,3070           01232 27367                     2DEC     .040694204
001454:
001455: 12,3072           06036                           TC       INTPRET
001456: 12,3073           76405                           DMP      SL1R                                  #                                PL AT 0D
001457: 12,3074           43006                           PUSH     BON
001458: 12,3075           04316                                    360SW
001459: 12,3076           25203                                    TRUE360X
001460: 12,3077           60316        XCOMMON            DSQ      NORM
001461: 12,3100           00047                                    X1
001462: 12,3101           53605                           DMP      SRR*
001463: 12,3102           02742                                    R1A
001464: 12,3103           21565                                    0          -12D,1
001465: 12,3104           14031                           STODL    XI                                    #  XI (+6)
001466:
001467:
001468: 12,3105           00041                                    R1
001469: 12,3106           75542                           SR1      SQRT
001470: 12,3107           41306                           ROUND    DMP
001471: 12,3110           77632                           SL4R                                           #                                PL AT 0
001472: 12,3111           00025                           STORE    X                                     #  X (+17 OR +16)
001473:
001474:
001475: 12,3112           60316                           DSQ      NORM
001476: 12,3113           00047                                    X1
001477: 12,3114           41325                           PDDL     DMP                                   #  0D=XSQ (+34 OR +32 -N1)       PL AT 2
001478: 12,3115           02740                                    P
001479: 12,3116           00041                                    R1
001480: 12,3117           75452                           SL3      SQRT
001481: 12,3120           56405                           DMP      SL3R
001482: 12,3121           02766                                    COGA
001483: 12,3122           14043                           STODL    KEPC1
001484: 12,3123           02742                                    R1A
001485: 12,3124           43021                           BDSU     CLEAR
001486: 12,3125           10756                                    D1/64
001487: 12,3126           04270                                    INFINFLG
001488: 12,3127           00045                           STORE    KEPC2
001489: 12,3130           77616                           RVQ
001490:


001492: 12,3131           77774        RESETX2            AXT,2
001493: 12,3132           00003                                    3
001494:
001495:
001496: 12,3133           51001        360CHECK           SETPD    BPL
001497: 12,3134           00001                                    0D
001498: 12,3135           25140                                    INVRSEQN
001499: 12,3136           77614                           SET
001500: 12,3137           04076                                    360SW
001501:
001502:
001503: 12,3140           75545        INVRSEQN           DLOAD    SQRT
001504: 12,3141           02740                                    P
001505: 12,3142           41325                           PDDL     DMP                                   #  0D=SQRT(P) (+2)                   PL AT 2
001506: 12,3143           02730                                    SNTH
001507: 12,3144           02766                                    COGA
001508: 12,3145           65352                           SL1      PDDL                                  #  2D=SNTH COGA (+5)                 PL AT 4
001509: 12,3146           02732                                    CSTH
001510: 12,3147           43202                           SR4      DAD
001511: 12,3150           10764                                    D1/32
001512: 12,3151           41225                           DSU      DMP                                   #                               PL AT 2,0
001513: 12,3152           55301                           NORM     BDDV
001514: 12,3153           00047                                    X1
001515: 12,3154           02730                                    SNTH
001516: 12,3155           51457                           SLR*     ABS                                   #  NOTE: NEAR 360 CASE TREATED DIFFERENTLY
001517: 12,3156           21174                                    0          -5,1
001518: 12,3157           63406                           PUSH     DSQ                                   #  0D=1/W (-1)                  PL AT 2
001519: 12,3160           14043                           STODL    34D
001520: 12,3161           10762                                    D1/16
001521: 12,3162           63406        1/WLOOP            PUSH     DSQ                                   #  2D=G (+4)                        PL AT 4
001522: 12,3163           65234                           RTB      PDDL                                  #                               PL AT 7
001523: 12,3164           21537                                    TPMODE
001524: 12,3165           02742                                    R1A
001525: 12,3166           40405                           DMP      SR4
001526: 12,3167           00043                                    34D
001527: 12,3170           77771                           TAD                                            #                                   PL AT 4
001528: 12,3171           75440                           BMN      SQRT
001529: 12,3172           25216                                    INFINITY
001530: 12,3173           77615                           DAD                                            #                               PL AT 2
001531: 12,3174           60304                           TIX,2    NORM
001532: 12,3175           25162                                    1/WLOOP
001533: 12,3176           00047                                    X1
001534: 12,3177           77665                           BDDV
001535: 12,3200           52057                           SLR*     GOTO                                  #                                   PL AT 0
001536: 12,3201           21172                                    0          -7,1
001537: 12,3202           25042                                    POLYCOEF
001538:
001539:
001540: 12,3203           50145        TRUE360X           DLOAD    BMN
001541: 12,3204           02742                                    R1A


001543: 12,3205           25216                                    INFINITY
001544: 12,3206           60366                           SQRT     NORM
001545: 12,3207           00047                                    X1
001546: 12,3210           53665                           BDDV     SL*
001547: 12,3211           10776                                    2PISC
001548: 12,3212           20176                                    0          -3,1
001549: 12,3213           41425                           DSU      PUSH                                  #  0D=2PI/SQRT(R1A) -X          PL AT 0,2
001550: 12,3214           77650                           GOTO
001551: 12,3215           25077                                    XCOMMON
001552: 12,3216           40001        INFINITY           SETPD    BOV                                   #  NO SOLUTION EXISTS SINCE CLOSURE THROUGH
001553: 12,3217           00001                                    0                                     #  INFINITY IS REQUIRED
001554: 12,3220           25221                                    OVFLCLR
001555: 12,3221           43414        OVFLCLR            SET      RVQ
001556: 12,3222           04070                                    INFINFLG
001557:


001559: 12,3223           40220        LAMBERT            STQ      SETPD
001560: 12,3224           02710                                    RTNLAMB
001561: 12,3225           00001                                    0D
001562: 12,3226           76614                           CLEAR    VLOAD*
001563: 12,3227           02674                                    SOLNSW
001564: 12,3230           10005                                    MUTABLE,1
001565: 12,3231           14017                           STODL    1/MU
001566: 12,3232           02671                                    TDESIRED
001567: 12,3233           77675                           DMPR
001568: 12,3234           10763                                    BEE19
001569: 12,3235           02764                           STORE    EPSILONL
001570: 12,3236           77214                           SET      VLOAD
001571: 12,3237           00474                                    SLOPESW
001572: 12,3240           02655                                    R1VEC
001573: 12,3241           45115                           PDVL     CALL                                  #  0D=R1VEC (+29 OR +27)        PL AT 6
001574: 12,3242           02663                                    R2VEC                                 #  MPAC=R2VEC (+29 OR +27)
001575: 12,3243           11051                                    GEOM
001576: 12,3244           16730                           STODL    SNTH                                  #  0D=CSTH (+1)                 PL AT 2
001577: 12,3245           02720                                    MAGVEC2
001578: 12,3246           65301                           NORM     PDDL                                  #                               PL AT 4
001579: 12,3247           00047                                    X1
001580: 12,3250           00041                                    R1
001581: 12,3251           56342                           SR1      DDV                                   #                               PL AT 2
001582: 12,3252           65257                           SL*      PDDL                                  #  DXCH WITH 0D, 0D=R1/R2 (+7)  PL AT 0,2
001583: 12,3253           20173                                    0          -6,1
001584: 12,3254           77626                           STADR
001585: 12,3255           75045                           STORE    CSTH                                  #  CSTH (+1)
001586: 12,3256           44342                           SR1      BDSU
001587: 12,3257           10760                                    D1/4
001588: 12,3260           02734                           STORE    1-CSTH                                #  1-CSTH (+2)
001589:
001590: 12,3261           53106                           ROUND    BZE
001591: 12,3262           25472                                    360LAMB
001592: 12,3263           65301                           NORM     PDDL                                  #                               PL AT 4
001593: 12,3264           00047                                    X1
001594: 12,3265           00001                                    0D
001595: 12,3266           56342                           SR1      DDV                                   #                               PL AT 2
001596: 12,3267           75457                           SL*      SQRT
001597: 12,3270           20176                                    0          -3,1
001598: 12,3271           54325                           PDDL     SR                                    #  2D=SQRT(2R1/R2(1-CSTH)) (+5) PL AT 4
001599: 12,3272           02730                                    SNTH
001600: 12,3273           20607                                    6
001601: 12,3274           43271                           DDV      DAD                                   #                               PL AT 2
001602: 12,3275           02734                                    1-CSTH
001603: 12,3276           77626                           STADR
001604: 12,3277           77760                           STORE    COGAMAX
001605: 12,3300           50000                           BOV      BMN                                   #  IF OVFL, COGAMAX=COGUPLIM
001606: 12,3301           25306                                    UPLIM                                 #  IF NEG, USE EVEN IF LT COGLOLIM, SINCE
001607: 12,3302           25311                                    MAXCOGA                               #    THIS WOULD BE RESET IN LAMBLOOP
001608: 12,3303           50025                           DSU      BMN                                   #  IF COGAMAX GT COGUPLIM, COGAMAX=COGUPLIM


001610: 12,3304           11002                                    COGUPLIM
001611: 12,3305           25311                                    MAXCOGA                               #  OTHERWISE OK, SO GO TO MAXCOGA
001612: 12,3306           77745        UPLIM              DLOAD
001613: 12,3307           11002                                    COGUPLIM                              #  COGUPLIM=.999511597 = MAX VALUE OF COGA
001614: 12,3310           00017                           STORE    COGAMAX                               #    NOT CAUSING OVFL IN R1A CALCULATION
001615: 12,3311           77745        MAXCOGA            DLOAD
001616: 12,3312           02732                                    CSTH
001617: 12,3313           45261                           SR       DSU                                   #                               PL AT 0
001618: 12,3314           20607                                    6
001619: 12,3315           77626                           STADR
001620: 12,3316           61041                           STODL    CSTH-RHO
001621: 12,3317           02673                                    GEOMSGN
001622: 12,3320           71240                           BMN      DLOAD
001623: 12,3321           25512                                    LOLIM
001624: 12,3322           02736                                    CSTH-RHO
001625: 12,3323           56352                           SL1      DDV
001626: 12,3324           02730                                    SNTH
001627: 12,3325           77600                           BOV
001628: 12,3326           25512                                    LOLIM
001629: 12,3327           00011        MINCOGA            STORE    COGAMIN                               #  COGAMIN (+5)
001630: 12,3330           66214                           BON      SSP
001631: 12,3331           00715                                    GUESSW
001632: 12,3332           25476                                    NOGUESS
001633: 12,3333           00051                                    TWEEKIT
001634: 12,3334           00001                                    00001
001635: 12,3335           77745                           DLOAD
001636: 12,3336           02766                                    COGA
001637:
001638:
001639: 12,3337           77605        LAMBLOOP           DMP
001640: 12,3340           02730                                    SNTH
001641: 12,3341           45342                           SR1      DSU
001642: 12,3342           02736                                    CSTH-RHO
001643: 12,3343           65301                           NORM     PDDL                                  #  0D=SNTH COGA-(CSTH-RHO) (+7+C(X1)) PL=2
001644: 12,3344           00047                                    X1
001645: 12,3345           02734                                    1-CSTH
001646: 12,3346           56257                           SL*      DDV                                   #  1-CSTH (+2)                  PL AT 0
001647: 12,3347           20170                                    0          -9D,1
001648: 12,3350           53040                           BMN      BZE
001649: 12,3351           25426                                    NEGP
001650: 12,3352           25426                                    NEGP
001651: 12,3353           16740                           STODL    P                                     #  P=(1-CSTH)/(SNTH COGA-(CSTH-RHO)) (+4)
001652: 12,3354           02766                                    COGA
001653: 12,3355           43316                           DSQ      DAD
001654: 12,3356           10766                                    D1/1024
001655: 12,3357           41301                           NORM     DMP
001656: 12,3360           00047                                    X1
001657: 12,3361           02740                                    P
001658: 12,3362           44257                           SR*      BDSU
001659: 12,3363           20571                                    0          -8D,1


001661: 12,3364           10764                                    D1/32
001662: 12,3365           16742                           STODL    R1A                                   #  R1A=2-P(1+COGA COGA) (+6)
001663: 12,3366           02740                                    P
001664: 12,3367           45000                           BOV      CALL
001665: 12,3370           25431                                    HIENERGY
001666: 12,3371           25000                                    GETX
001667: 12,3372           77745                           DLOAD
001668: 12,3373           00037                                    T
001669: 12,3374           16762                           STODL    TPREV
001670: 12,3375           00031                                    XI
001671: 12,3376           45014                           BON      CALL
001672: 12,3377           04310                                    INFINFLG
001673: 12,3400           25426                                    NEGP                                  #  HAVE EXCEEDED THEORETICAL BOUNDS
001674: 12,3401           24434                                    DELTIME
001675: 12,3402           44200                           BOV      BDSU
001676: 12,3403           25446                                    BIGTIME
001677: 12,3404           02671                                    TDESIRED
001678: 12,3405           02760                           STORE    TERRLAMB
001679: 12,3406           44246                           ABS      BDSU
001680: 12,3407           02764                                    EPSILONL
001681: 12,3410           47044                           BPL      RTB
001682: 12,3411           25515                                    INITV
001683: 12,3412           24657                                    CHECKCTR
001684: 12,3413           45030                           BHIZ     CALL
001685: 12,3414           25457                                    SUFFCHEK
001686: 12,3415           24551                                    ITERATOR
001687: 12,3416           53145                           DLOAD    BZE
001688: 12,3417           00155                                    MPAC
001689: 12,3420           25457                                    SUFFCHEK
001690: 12,3421           77615                           DAD
001691: 12,3422           02766                                    COGA
001692: 12,3423           02766                           STORE    COGA
001693: 12,3424           77650                           GOTO
001694: 12,3425           25337                                    LAMBLOOP
001695:
001696:
001697: 12,3426           51145        NEGP               DLOAD    BPL                                   #  IMPOSSIBLE TRAJECTORY DUE TO INACCURATE
001698: 12,3427           00015                                    DCOGA                                 #  BOUND CALCULATION. TRY NEW COGA.
001699: 12,3430           25451                                    LOENERGY
001700:
001701:
001702: 12,3431           71201        HIENERGY           SETPD    DLOAD                                 #  HIGH ENERGY TRAJECTORY RESULTED
001703: 12,3432           00001                                    0
001704: 12,3433           02766                                    COGA                                  #  IN OVFL OF P OR R1A, OR XI EXCEEDING 50.
001705: 12,3434           00011                           STORE    COGAMIN                               #  THIS IS THE NEW BOUND.
001706: 12,3435           70545        COMMONLM           DLOAD    SR1
001707: 12,3436           00015                                    DCOGA
001708: 12,3437           00015                           STORE    DCOGA                                 #  USE DCOGA/2 AS DECREMENT
001709: 12,3440           44254                           BZE      BDSU


001711: 12,3441           25457                                    SUFFCHEK
001712: 12,3442           02766                                    COGA
001713: 12,3443           02766                           STORE    COGA
001714: 12,3444           77650                           GOTO                                           #  RESTART THIS LOOP
001715: 12,3445           25337                                    LAMBLOOP
001716:
001717:
001718: 12,3446           77745        BIGTIME            DLOAD
001719: 12,3447           02762                                    TPREV
001720: 12,3450           00037                           STORE    T
001721:
001722:
001723: 12,3451           71201        LOENERGY           SETPD    DLOAD                                 #  LOW ENERGY TRAJECTORY RESULTED
001724: 12,3452           00001                                    0
001725: 12,3453           02766                                    COGA                                  #  IN OVERFLOW OF TIME.
001726: 12,3454           00017                           STORE    COGAMAX                               #  THIS IS THE NEW BOUND.
001727: 12,3455           77650                           GOTO
001728: 12,3456           25435                                    COMMONLM
001729:
001730:
001731: 12,3457           51545        SUFFCHEK           DLOAD    ABS
001732: 12,3460           02760                                    TERRLAMB
001733: 12,3461           41325                           PDDL     DMP                                   #                               PL AT 2D
001734: 12,3462           02671                                    TDESIRED
001735: 12,3463           10751                                    BEE17
001736: 12,3464           45215                           DAD      DSU                                   #                               PL AT 0D
001737: 12,3465           11000                                    ONEBIT
001738: 12,3466           43044                           BPL      SETGO
001739: 12,3467           25515                                    INITV
001740: 12,3470           02434                                    SOLNSW
001741: 12,3471           25515                                    INITV
001742: 12,3472           43001        360LAMB            SETPD    SETGO                                 #  LAMBERT CANNOT HANDLE CSTH=1
001743: 12,3473           00001                                    0
001744: 12,3474           02434                                    SOLNSW
001745: 12,3475           02710                                    RTNLAMB
001746:
001747:
001748: 12,3476           71331        NOGUESS            SSP      DLOAD
001749: 12,3477           00051                                    TWEEKIT
001750: 12,3500           10000                                    20000
001751: 12,3501           00011                                    COGAMIN
001752: 12,3502           65342                           SR1      PDDL                                  #                               PL AT 2
001753: 12,3503           00017                                    COGAMAX
001754: 12,3504           43342                           SR1      DAD
001755: 12,3505           77626                           STADR                                          #                               PL AT 0
001756: 12,3506           75011                           STORE    COGA
001757: 12,3507           00015                           STORE    DCOGA
001758: 12,3510           77650                           GOTO
001759: 12,3511           25337                                    LAMBLOOP
001760:


001762: 12,3512           52145        LOLIM              DLOAD    GOTO
001763: 12,3513           11004                                    COGLOLIM                              #  COGLOLIM=-.999511597
001764: 12,3514           25327                                    MINCOGA
001765:
001766:
001767: 12,3515           60345        INITV              DLOAD    NORM
001768: 12,3516           00041                                    R1
001769: 12,3517           00047                                    X1
001770: 12,3520           70525                           PDDL     SR1                                   #                               PL AT 2
001771: 12,3521           02740                                    P
001772: 12,3522           77671                           DDV                                            #                               PL AT 0
001773: 12,3523           75457                           SL*      SQRT
001774: 12,3524           20175                                    0          -4,1
001775: 12,3525           72405                           DMP      SL1
001776: 12,3526           00021                                    ROOTMU
001777: 12,3527           41206                           PUSH     DMP                                   #  0D=VTAN (+7)                 PL AT 2
001778: 12,3530           02766                                    COGA
001779: 12,3531           74261                           SL       VXSC
001780: 12,3532           20206                                    5
001781: 12,3533           02722                                    UR1
001782: 12,3534           77725                           PDDL                                           #  XCH WITH 0D                  PL AT 0,6
001783: 12,3535           76561                           VXSC     VSL1
001784: 12,3536           02674                                    UN
001785: 12,3537           53235                           VXV      VAD                                   #                               PL AT 0
001786: 12,3540           02722                                    UR1
001787: 12,3541           77772                           VSL1
001788: 12,3542           02744                           STORE    VVEC
001789: 12,3543           53135                           SLOAD    BZE
001790: 12,3544           02702                                    VTARGTAG
001791: 12,3545           25550                                    TARGETV
001792: 12,3546           77650                           GOTO
001793: 12,3547           02710                                    RTNLAMB
001794:
001795:
001796: 12,3550           45145        TARGETV            DLOAD    CALL
001797: 12,3551           02720                                    MAGVEC2
001798: 12,3552           24714                                    LAMENTER
001799: 12,3553           02703                           STORE    VTARGET
001800: 12,3554           77650                           GOTO
001801: 12,3555           02710                                    RTNLAMB
001802:


001804: 12,3556           40220        TIMERAD            STQ      SETPD                                 #                                  PL AT 0
001805: 12,3557           02710                                    RTNTR
001806: 12,3560           00001                                    0
001807: 12,3561           63375                           VLOAD    PDVL                                  #                                  PL AT 6
001808: 12,3562           02655                                    RVEC
001809: 12,3563           02744                                    VVEC
001810: 12,3564           77624                           CALL
001811: 12,3565           11005                                    PARAM
001812: 12,3566           71200                           BOV      DLOAD                                 #                                  PL AT 0
001813: 12,3567           24775                                    COGAOVFL
001814: 12,3570           10764                                    D1/32
001815: 12,3571           41225                           DSU      DMP
001816: 12,3572           02742                                    R1A
001817: 12,3573           02740                                    P
001818: 12,3574           41366                           SQRT     DMP
001819: 12,3575           02766                                    COGA
001820: 12,3576           74212                           SL4      VXSC
001821: 12,3577           02712                                    U2
001822: 12,3600           45325                           PDDL     DSU                                   #                                  PL AT 6
001823: 12,3601           10756                                    D1/64
001824: 12,3602           02742                                    R1A
001825: 12,3603           52361                           VXSC     VSU                                   #                                  PL AT 0
001826: 12,3604           02722                                    UR1
001827: 12,3605           53512                           VSL4     UNIT
001828: 12,3606           77600                           BOV
001829: 12,3607           25472                                    360LAMB                               #  NO SOLUTION SINCE CONIC IS A CIRCLE
001830: 12,3610           60325                           PDDL     NORM                                  #  0D=UNIT(ECC) (+3)               PL AT 6
001831: 12,3611           02756                                    RDESIRED                              #  36D=ECC (+3)
001832: 12,3612           00047                                    X1
001833: 12,3613           41325                           PDDL     DMP                                   #                               PL AT 8
001834: 12,3614           00041                                    R1
001835: 12,3615           02740                                    P
001836: 12,3616           56257                           SL*      DDV                                   #                               PL AT 6
001837: 12,3617           20201                                    0,1
001838: 12,3620           56225                           DSU      DDV
001839: 12,3621           10762                                    D1/16
001840: 12,3622           00045                                    36D                                   #  36D=ECC (+3)
001841: 12,3623           00031                           STORE    COSF
001842: 12,3624           63400                           BOV      DSQ
001843: 12,3625           25665                                    BADR2
001844: 12,3626           50021                           BDSU     BMN
001845: 12,3627           10760                                    D1/4
001846: 12,3630           25665                                    BADR2
001847: 12,3631           75366                           SQRT     SIGN
001848: 12,3632           02755                                    SGNRDOT
001849: 12,3633           77614                           CLEAR
001850: 12,3634           04272                                    APSESW
001851:
001852: 12,3635           76561        TERMNVEC           VXSC     VSL1
001853: 12,3636           02674                                    UN


001855: 12,3637           63235                           VXV      PDVL                                  #  VXCH WITH 0D                 PL AT 0,6
001856: 12,3640           00001                                    0D
001857: 12,3641           53361                           VXSC     VAD                                   #                               PL AT 0
001858: 12,3642           00031                                    COSF
001859: 12,3643           41572                           VSL1     PUSH                                  #  0D=U2                        PL AT 6
001860:
001861: 12,3644           56241                           DOT      DDV                                   #  LIMITS RESULT TO POSMAX OR NEGMAX
001862: 12,3645           02722                                    UR1
001863: 12,3646           23702                                    DP1/4
001864: 12,3647           40142                           SR1      BOV                                   #  SCALE BACK DOWN TO NORMAL
001865: 12,3650           25651                                    +1                                    #  CLEAR OVFIND IF SET
001866: 12,3651           26732                           STOVL    CSTH                                  #  CSTH (+1)
001867: 12,3652           02722                                    UR1
001868: 12,3653           76435                           VXV      VSL1
001869: 12,3654           72441                           DOT      SL1
001870: 12,3655           02674                                    UN
001871: 12,3656           16730                           STODL    SNTH                                  #  SNTH (+1)
001872: 12,3657           02740                                    P
001873: 12,3660           77624                           CALL
001874: 12,3661           25000                                    GETX
001875: 12,3662           77614                           CLRGO
001876: 12,3663           02634                                    SOLNSW
001877: 12,3664           24760                                    COMMNOUT
001878:
001879:
001880: 12,3665           75345        BADR2              DLOAD    SIGN
001881: 12,3666           22273                                    LODPHALF
001882: 12,3667           00031                                    COSF
001883: 12,3670           14031                           STODL    COSF
001884: 12,3671           22275                                    KEPZERO
001885: 12,3672           77614                           SETGO
001886: 12,3673           04032                                    APSESW
001887: 12,3674           25635                                    TERMNVEC
001888: 12,3675           40220        APSIDES            STQ      SETPD                                 #                                 PL AT 0
001889: 12,3676           02710                                    RTNAPSE
001890: 12,3677           00001                                    0D
001891: 12,3700           63375                           VLOAD    PDVL                                  #                                 PL AT 6
001892: 12,3701           02655                                    RVEC
001893: 12,3702           02744                                    VVEC
001894: 12,3703           77624                           CALL
001895: 12,3704           11005                                    PARAM
001896: 12,3705           77600                           BOV                                            #                                 PL AT 0
001897: 12,3706           25707                                    GETECC
001898: 12,3707           42405        GETECC             DMP      SL4
001899: 12,3710           02742                                    R1A
001900: 12,3711           75421                           BDSU     SQRT
001901: 12,3712           10756                                    D1/64
001902: 12,3713           02752                           STORE    ECC
001903: 12,3714           65215                           DAD      PDDL                                  #                                 PL AT 2
001904: 12,3715           10752                                    D1/8


001906: 12,3716           00041                                    R1
001907: 12,3717           72405                           DMP      SL1
001908: 12,3720           02740                                    P
001909: 12,3721           77671                           DDV                                            #                                  PL AT 0
001910: 12,3722           60325                           PDDL     NORM                                  #  0D=RP (+29 OR +27)              PL AT 2
001911: 12,3723           02742                                    R1A
001912: 12,3724           00047                                    X1
001913: 12,3725           53725                           PDDL     SL*                                   #                                  PL AT 4
001914: 12,3726           00041                                    R1
001915: 12,3727           20174                                    0          -5,1
001916: 12,3730           45271                           DDV      DSU                                   #                                  PL AT 2,0
001917: 12,3731           50000                           BOV      BMN
001918: 12,3732           25736                                    INFINAPO
001919: 12,3733           25736                                    INFINAPO
001920: 12,3734           77650                           GOTO
001921: 12,3735           02710                                    RTNAPSE
001922: 12,3736           52145        INFINAPO           DLOAD    GOTO                                  #  RETURNS WITH APOAPSIS IN MPAC, PERIAPSIS
001923: 12,3737           22306                                    LDPOSMAX
001924: 12,3740           02710                                    RTNAPSE                               #  THAT PL IS AT 0.
001925:


001927: 12,3741  11,2305               LDPOSMAX           EQUALS   LODPMAX                               #  DPPOSMAX IN LOW MEMORY.
001928:
001929:                                                                                                  #  ERASABLE ASSIGNMENTS
001930:
001931:
001932:                                                                                                  #  KEPLER SUBROUTINE
001933:
001934:                                                                                                  #     INPUT -
001935:                                                                                                  #  RRECT    ERASE  +5
001936:                                                                                                  #  VRECT    ERASE  +5
001937:                                                                                                  #  TAU.     ERASE  +1
001938:                                                                                                  #  XKEP     ERASE  +1
001939:                                                                                                  #  TC       ERASE  +1
001940:                                                                                                  #  XPREV    ERASE  +1
001941: 12,3741                        1/MU               EQUALS   14D
001942: 12,3741                        ROOTMU             EQUALS   16D
001943: 12,3741                        1/ROOTMU           EQUALS   18D
001944:                                                                                                  #     OUTPUT -
001945:                                                                                                  #  RCV      ERASE  +5
001946:                                                                                                  #  VCV      ERASE  +5
001947:                                                                                                  #  RC       ERASE  +1
001948:                                                                                                  #  XPREV    ERASE  +1
001949:
001950:                                                                                                  #  DEBRIS -
001951: 12,3741                        ALPHA              EQUALS   8D
001952: 12,3741                        XMAX               EQUALS   10D
001953: 12,3741                        XMIN               EQUALS   12D
001954: 12,3741                        X                  EQUALS   20D
001955: 12,3741                        XI                 EQUALS   24D
001956: 12,3741                        S(XI)              EQUALS   26D
001957: 12,3741                        XSQC(XI)           EQUALS   28D
001958: 12,3741                        T                  EQUALS   30D
001959: 12,3741                        R1                 EQUALS   32D
001960: 12,3741                        KEPC1              EQUALS   34D
001961: 12,3741                        KEPC2              EQUALS   36D
001962:                                                                                                  #  DELX     ERASE  +1
001963:                                                                                                  #  DELT     ERASE  +1
001964:                                                                                                  #  URRECT   ERASE  +5
001965:                                                                                                  #  RCNORM   ERASE  +1
001966:                                                                                                  #  XPREV    EQUALS XKEP
001967:
001968:
001969:                                                                                                  #  LAMBERT SUBROUTINE
001970:
001971:                                                                                                  #     INPUT-
001972:                                                                                                  #  R1VEC    ERASE  +5
001973:                                                                                                  #  R2VEC    ERASE  +5
001974:                                                                                                  #  TDESIRED ERASE  +1
001975:                                                                                                  #  GEOMSGN  ERASE  +0
001976:                                                                                                  #  GUESSW                      0 IF COGA GUESS AVAILABLE, 1 IF NOT


001978:                                                                                                  #  COGA     ERASE  +1          INPUT ONLY IF GUESSW IS ZERO.
001979:                                                                                                  #  NORMSW                      0 IF UN TO BE COMPUTED, 1 IF UN INPUT
001980:                                                                                                  #  UN       ERASE  +5          ONLY USED IF NORMSW IS 1
001981:                                                                                                  #  VTARGTAG ERASE  +0
001982:                                                                                                  #  TWEEKIT  EQUALS  40D        ONLY USED IF GUESSW IS 0
001983:
001984:                                                                                                  #     OUTPUT -
001985:                                                                                                  #  VTARGET  ERASE  +5          AVAILABLE ONLY IF VTARGTAG IS ZERO.
001986:                                                                                                  #  V1VEC    EQUALS MPAC
001987:
001988:                                                                                                  #     DEBRIS -
001989:                                                                                                  #  RTNLAMB  ERASE  +0
001990:                                                                                                  #  U2       ERASE  +5
001991:                                                                                                  #  MAGVEC2  ERASE  +1
001992:                                                                                                  #  UR1      ERASE  +5
001993:                                                                                                  #  R1       EQUALS 31D
001994:                                                                                                  #  UN       ERASE  +5
001995:                                                                                                  #  SNTH     ERASE  +1
001996:                                                                                                  #  CSTH     ERASE  +1
001997:                                                                                                  #  1-CSTH   ERASE  +1
001998:                                                                                                  #  CSTH-RHO ERASE  +1
001999: 12,3741                        COGAMAX            EQUALS   14D                                   #  CLOBBERS 1/MU
002000: 12,3741                        COGAMIN            EQUALS   8D
002001: 12,3741                        DCOGA              EQUALS   12D
002002:                                                                                                  #  TWEEKIT  EQUALS 40D
002003:                                                                                                  #  P        ERASE  +1
002004:                                                                                                  #  COGA     ERASE  +1
002005:                                                                                                  #  R1A      ERASE  +1
002006:                                                                                                  #  X        EQUALS 20D
002007:                                                                                                  #  XSQ      EQUALS 22D
002008:                                                                                                  #  XI       EQUALS 24D
002009:                                                                                                  #  S(XI)    EQUALS 26D
002010:                                                                                                  #  XSQC(XI) EQUALS 28D
002011:                                                                                                  #  T        EQUALS 30D
002012:                                                                                                  #  KEPC1    EQUALS 34D
002013:                                                                                                  #  KEPC2    EQUALS 36D
002014:                                                                                                  #  SLOPESW
002015:                                                                                                  #  SOLNSW
002016:                                                                                                  #  OTHERS -
002017:
002018:                                                                                                  #  RVEC     EQUALS R1VEC
002019:                                                                                                  #  VVEC     ERASE  +5
002020:                                                                                                  #  COGAFLAG
002021:                                                                                                  #  RVSW
002022:                                                                                                  #  INFINFLG
002023:                                                                                                  #  APSESW
002024:                                                                                                  #  360SW
002025:                                                                                                  #  RTNTT    EQUALS RTNLAMB
002026:                                                                                                  #  ECC      ERASE  +1
002027:                                                                                                  #  RTNTR    EQUALS RTNLAMB


002029:                                                                                                  #  RTNAPSE  EQUALS RTNLAMB
002030:                                                                                                  #  R2       EQUALS MAGVEC2
002031: 12,3741                        COSF               EQUALS   24D
002032:                                                                                                  #  RTNPRM   ERASE  +0
002033:                                                                                                  #  SCNRDOT  ERASE  +0
002034:                                                                                                  #  RDESIRED ERASE  +1
002035:
002036:
002037:                                                                                                  #  ITERATOR SUBROUTINE
002038:
002039:                                                                                                  #  ORDERSW
002040: 12,3741                        MAX                EQUALS   14D                                   #  CLOBBERS 1/MU
002041: 12,3741                        MIN                EQUALS   8D
002042:                                                                                                  #  INDEP    ERASE  +1
002043: 12,3741                        DELINDEP           EQUALS   12D
002044: 12,3741                        ITERCTR            EQUALS   22D
002045: 12,3741                        DEP                EQUALS   30D
002046:                                                                                                  #  DELDEP   ERASE  +1
002047:                                                                                                  #  DEPREV   ERASE  +1
002048: 12,3741                        TWEEKIT            EQUALS   40D
002049:
002050:
002051:                                                                                                  #  MORE KEPLER
002052:
002053:                                                                                                  #  EPSILONT ERASE  +1
002054:
002055:
002056:                                                                                                  #  MORE LAMBERT
002057:
002058:                                                                                                  #  TERRLAMB EQUALS DELDEP
002059:                                                                                                  #  TPREV    EQUALS DEPREV
002060:
002061:
002062:                                                                                                  #  EPSILONL EQUALS EPSILONT +2     DOUBLE PRECISION WORD

End of include-file CONIC_SUBROUTINES.agc.  Parent file is MAIN.agc


