
Source Code


000002:                                                                                                  ## Copyright:   Public domain.
000003:                                                                                                  ## Filename:    CONIC_SUBROUTINES.agc
000004:                                                                                                  ## Purpose:     The main source file for Luminary revision 069.
000005:                                                                                                  ##              It is part of the source code for the original release
000006:                                                                                                  ##              of the flight software for the Lunar Module's (LM) Apollo
000007:                                                                                                  ##              Guidance Computer (AGC) for Apollo 10. The actual flown
000008:                                                                                                  ##              version was Luminary 69 revision 2, which included a
000009:                                                                                                  ##              newer lunar gravity model and only affected module 2.
000010:                                                                                                  ##              This file is intended to be a faithful transcription, except
000011:                                                                                                  ##              that the code format has been changed to conform to the
000012:                                                                                                  ##              requirements of the yaYUL assembler rather than the
000013:                                                                                                  ##              original YUL assembler.
000014:                                                                                                  ## Reference:   pp. 1154-1199
000015:                                                                                                  ## Assembler:   yaYUL
000016:                                                                                                  ## Contact:     Ron Burkey <info@sandroid.org>.
000017:                                                                                                  ## Website:     www.ibiblio.org/apollo/index.html
000018:                                                                                                  ## Mod history: 2016-12-13 MAS  Created from Luminary 99.
000019:                                                                                                  ##              2016-12-18 MAS  Updated from comment-proofed Luminary 99 version.
000020:                                                                                                  ##              2017-01-22 MAS  Updated for Luminary 69
000021:                                                                                                  ##              2017-01-28 RSB  WTIH -> WITH.
000022:                                                                                                  ##              2017-01-28 RSB  Proofed comment text using octopus/prooferComments
000023:                                                                                                  ##                              and fixed errors found.
000024:                                                                                                  ##              2017-03-14 RSB  Comment-text fixes noted in proofing Luminary 116.
000025:                                                                                                  ##              2017-03-15 RSB  Comment-text fixes identified in 5-way
000026:                                                                                                  ##                              side-by-side diff of Luminary 69/99/116/131/210.
000027:                                                                                                  ##              2017-03-17 RSB  Comment-text fixes identified in diff'ing
000028:                                                                                                  ##                              Luminary 99 vs Comanche 55.
000029:


000031:                                                                                                  #  PROGRAM DESCRIPTION - ENTIRE CONIC SUBROUTINE LOG SECTION                       DATE - 1 SEPTEMBER 1967
000032:                                                                                                  #  MOD NO. - 0                                                                     LOG SECTION - CONIC SUBROUTINES
000033:                                                                                                  #  MOD BY KRAUSE                                                                   ASSEMBLY - COLOSSUS REVISION 88
000034:
000035:
000036:                                                                                                  #  FUNCTIONAL DESCRIPTION -
000037:
000038:                                                                                                  #       THE FOLLOWING SET OF SUBROUTINES SOLVE VARIOUS PROBLEMS INVOLVING THE TRAJECTORY PRODUCED BY A CENTRAL
000039:                                                                                                  #  INVERSE-SQUARE FORCE ACTING ON A POINT MASS, AS OUTLINED IN THE CMC AND LGC LUNAR LANDING MISSION GSOP, SECTION
000040:                                                                                                  #  5.5.1.2.  A GENERAL USAGE POINT-OF-VIEW WAS TAKEN IN FORMULATING, MECHANIZING, AND SCALING THE SUBROUTINES,
000041:                                                                                                  #  RATHER THAN OPTIMIZING EACH FOR A PARTICULAR USE.  THEREFORE, MULTIPLE USAGE CAN BE MADE OF THE SUBROUTINES
000042:                                                                                                  #  INVOLVING ANY REALISTIC SET OF CONSTRAINTS.  IT SHOULD BE NOTED THAT ONLY ONE SET OF CODING IS USED, WHETHER THE
000043:                                                                                                  #  EARTH, MOON, OR ANY OTHER CELESTIAL BODY IS SPECIFIED AS THE CENTRAL BODY OF THE PROBLEM, PROVIDED ONE OBSERVES
000044:                                                                                                  #  THE INHERENT SCALE CHANGE REQUIRED IN POSITION, VELOCITY, MU, AND TIME, AS OUTLINED IN MISSION PROGRAMMING
000045:                                                                                                  #  DEFINITION MEMO NO. 10.  THIS CAN BE ACCOMPLISHED BY SIMPLY ADDING TO THE MUTABLE AND INITIALIZING THE SUBROU-
000046:                                                                                                  #  TINES APPROPRIATELY.
000047:                                                                                                  #       DUE TO THE UNIFORMITY OF THE EQUATIONS INVOLVED, CODING WAS MINIMIZED BY TREATING INDIVIDUAL EQUATIONS AND
000048:                                                                                                  #  BLOCKS OF EQUATIONS AS SUBROUTINES OF LOWER RANK WHENEVER POSSIBLE.  AS A RESULT, THREE BY-PRODUCTS SUBROUTINES,
000049:                                                                                                  #  DIRECTLY USABLE AS INDEPENDENT SUBROUTINES, WERE GENERATED.
000050:
000051:
000052:                                                                                                  #  RESTRICTIONS -
000053:
000054:                                                                                                  #       THE ONLY LIMITATION IN THE SCOPE OF PROBLEM WHICH CAN BE SOLVED BY A PARTICULAR SUBROUTINE IS THE SCALING
000055:                                                                                                  #  LIMIT OF EACH PARAMETER AS SPECIFIED IN THE GSOP.  THESE SCALING LIMITS WERE CHOSEN SO THAT ALL FEASIBLE TRAJEC-
000056:                                                                                                  #  TORIES COULD BE HANDLED.
000057:                                                                                                  #       SINCE THE SUBROUTINES (EXCEPT KEPLER) USE COMMON SUBROUTINES OF LOWER RANK WHICH USE ERASABLE OTHER THAN
000058:                                                                                                  #  THE PUSHLIST (DUE TO ITS LIMITED SIZE) AND COMMON INTERPRETIVE SWITCHES, THE CONIC SUBROUTINES CANNOT BE ALLOWED
000059:                                                                                                  #  TO INTERRUPT EACH OTHER.  IT IS UP TO THE USER TO GUARANTEE THIS CONDITION.
000060:
000061:


000063:                                                                                                  #  PROGRAM DESCRIPTION - KEPLER SUBROUTINE                                 DATE - 11 OCTOBER 1967
000064:                                                                                                  #  MOD NO. -1                                                                       LOG SECTION - CONIC SUBROUTINES
000065:                                                                                                  #  MOD BY KRAUSE                                                           ASSEMBLY - COLOSSUS 103 AND SUNDANCE 222
000066:                                                                                                  #  MOD NO. - 2  (AUGUST 1968) BY ROBERTSON: TO PERMIT BACKDATING BY MORE THAN ONE ORBITAL PERIOD.
000067:
000068:
000069:                                                                                                  #  FUNCTIONAL DESCRIPTION -
000070:                                                                                                  #       THIS SUBROUTINE, GIVEN AN INITIAL STATE VECTOR AND THE DESIRED TRANSFER TIME THROUGH WHICH THE STATE IS TO
000071:                                                                                                  #  BE UPDATED ALONG A CONIC TRAJECTORY, COMPUTES THE NEW, UPDATED STATE VECTOR.  THE TRAJECTORY MAY BE ANY CONIC
000072:                                                                                                  #  SECTION - CIRCULAR, ELLIPTIC, PARABOLIC, HYPERBOLIC, OR RECTILINEAR WITH RESPECT TO THE EARTH OR THE MOON.  THE
000073:                                                                                                  #  USE OF THE SUBROUTINE CAN BE EXTENDED USING OTHER PRIMARY BODIES BY SIMPLE ADDITIONS TO THE MUTABLE WITHOUT
000074:                                                                                                  #  INTRODUCING ANY CODING CHANGES, ACCEPTING THE INHERENT SCALE FACTOR CHANGES IN POSITION AND VELOCITY.  AN ITERA-
000075:                                                                                                  #  TION TECHNIQUE IS UTILIZED IN THE COMPUTATION.
000076:                                                                                                  #       IF A NEGATIVE TIME-OF-FLIGHT IS INPUT, THE PROGRAM WILL SOLVE FOR THE STATE WHICH WOULD BE PRODUCED BY
000077:                                                                                                  #  EXTRAPOLATING THE POSITION BACKWARD IN TIME.
000078:                                                                                                  #       IF THE ABSOLUTE VALUE OF THE DESIRED TRANSFER TIME EXCEEDS THE ORBITAL PERIOD, THE SUBROUTINE, THROUGH A
000079:                                                                                                  #  MODULAR TECHNIQUE, WILL COMPUTE THE STATE CORRESPONDING TO THE DESIRED TIME (WHETHER POSITIVE OR NEGATIVE).
000080:
000081:
000082:                                                                                                  #  THE RESTRICTIONS ARE -
000083:                                                                                                  #       1. (PREVIOUS RESTRICTION ON THE NEGATIVE DESIRED TRANSFER TIME IS NOW DELETED.)
000084:                                                                                                  #       2.  THE PARAMETERS IN THE PROBLEM CANNOT EXCEED THEIR SCALING LIMITS AS SPECIFIED IN THE GSOP.  IF
000085:                                                                                                  #  ANY OF THESE LIMITS ARE EXCEEDED, THE RESULTING SOLUTION WILL BE MEANINGLESS.
000086:
000087:
000088:                                                                                                  #       THE NUMBER OF ITERATIONS AND, THEREFORE, THE COMPUTATION SPEED IS DEPENDENT ON THE ACCURACY OF THE
000089:                                                                                                  #  GUESS, XKFPNEW.  THE AGC COMPUTATION TIME IS APPROXIMATELY .061 SECONDS FOR INITIALIZATION, .065 SECONDS FOR THE
000090:                                                                                                  #  FINAL COMPUTATIONS, PLUS .083 SECONDS FOR EACH ITERATION.
000091:
000092:
000093:
000094:                                                                                                  #  REFERENCES -
000095:                                                                                                  #       R-479, MISSION PROGRAMMING DEFINITION MEMO NO. 10, LUNAR LANDING MISSION GSOP, SECTION 5.5, SGA
000096:                                                                                                  #  MEMO 67-4.
000097:
000098:
000099:
000100:                                                                                                  #  INPUT - ERASABLE INITIALIZATION REQUIRED
000101:
000102:                                                                                                  #          * SCALE FACTOR *
000103:                                                                                                  #  VARIABLE*IN POWERS OF 2*                         DESCRIPTION AND REMARKS
000104:                                                                                                  #  --------*--------------*                         -----------------------
000105:                                                                                                  #  RRECT   * +29 FOR EARTH*DP INITIAL POSITION VECTOR IN METERS
000106:                                                                                                  #          * +27 FOR MOON *
000107:                                                                                                  #  VRECT   * +7 FOR EARTH *DP INITIAL VELOCITY VECTOR IN METERS/CENTISECOND
000108:                                                                                                  #          * +5 FOR MOON  *
000109:                                                                                                  #  X1 (38D)* NONE         *INDEX REGISTER SET TO -2D OR -10D ACCORDING TO WHETHER THE EARTH OR MOON,
000110:                                                                                                  #          *              *RESPECTIVELY, IS THE CENTRAL BODY
000111:                                                                                                  #  TAU.    * +28          *DESIRED TRANSFER TIME IN CENTISECONDS (DP)
000112:                                                                                                  #  XKEPNEW * +17 FOR EARTH*GUESS OF X IN METERS-TO-THE-ONE-HALF FROM KEPPREP


000114:                                                                                                  #          * +16 FOR MOON *(DP)
000115:                                                                                                  #  TC      * +28          *DP PREV. VALUE OF TIME IN CENTISECS FROM KEPPREP
000116:                                                                                                  #  XPREV   * +17 FOR EARTH*PREVIOUS VALUE OF X IN METERS-TO-THE-ONE-HALF POWER FROM KEPPREP (DP)
000117:                                                                                                  #          * +16 FOR MOON *(DP)
000118:
000119:
000120:
000121:                                                                                                  #  SUBROUTINES CALLED -
000122:                                                                                                  #       DELTIME
000123:
000124:
000125:
000126:                                                                                                  #  CALLING SEQUENCE AND NORMAL EXIT MODES -
000127:
000128:                                                                                                  #  KEPRTN-2 GOTO                   MUST BE IN INTERPRETIVE MODE AND OVFIND MUST BE CLEAR
000129:                                                                                                  #  KEPRTN-1        KEPLER          RETURNS WITH XPREV IN MPAC. PL IS AT 0.
000130:                                                                                                  #  KEPRTN   ...                    CONTINUE
000131:
000132:                                                                                                  #  KEPLER MUST NOT BE CALLED DIRECTLY SINCE AN INTERRUPTION OF IT WOULD DESTROY THE ERASABLES IT NEEDS TO COMPLETE
000133:                                                                                                  #  THE INTERRUPTED JOB.  THEREFORE THE USER MUST CALL CSMCONIC OR LEMCONIC WHICH GUARANTEES NO INTERRUPTS AND WHICH
000134:                                                                                                  #  ALSO CALLS KEPPREP TO COMPUTE A GUESS OF XKEPNEW.
000135:
000136:
000137:
000138:                                                                                                  #  ABORT EXIT MODES -
000139:                                                                                                  #       NONE
000140:
000141:
000142:
000143:                                                                                                  #  OUTPUT -
000144:
000145:                                                                                                  #          * SCALE FACTOR *
000146:                                                                                                  #  VARIABLE*IN POWERS OF 2*                         DESCRIPTION AND REMARKS
000147:                                                                                                  #  --------*--------------*                         -----------------------
000148:                                                                                                  #  RCV     * +29 FOR EARTH*DP TERMINAL POSITION VECTOR IN METERS
000149:                                                                                                  #          * +27 FOR MOON *
000150:                                                                                                  #  VCV     * +7 FOR EARTH *DP TERMINAL VELOCITY VECTOR IN METERS/CENTISEC
000151:                                                                                                  #          * +5 FOR MOON  *
000152:                                                                                                  #  TC      * +28          *DP TRANSFER TIME IN CENTISECS TO WHICH KEPLER CONVERGED.
000153:                                                                                                  #  XPREV   * +17 FOR EARTH*DP X IN METERS-TO-THE-ONE-HALF-POWER TO WHCIH KEPLER CONVERGED.
000154:                                                                                                  #          * +16 FOR MOON *(DP)
000155:                                                                                                  #  FOR OTHER OUTPUT WHICH MAY BE OF USE, SEE DEBRIS.
000156:
000157:
000158:
000159:                                                                                                  #  DEBRIS -
000160:
000161:                                                                                                  #       PARAMETERS WHICH MAY BE OF USE -
000162:
000163:                                                                                                  #          * SCALE FACTOR *


000165:                                                                                                  #  VARIABLE*IN POWERS OF 2*                         DESCRIPTION AND REMARKS
000166:                                                                                                  #  --------*--------------*                         -----------------------
000167:                                                                                                  #  URRECT  * +1           *DP UNIT VECTOR OF INITIAL POSITION
000168:                                                                                                  #  R1      * +29 FOR EARTH*DP MAGNITUDE OF INITIAL POSITION IN METERS
000169:                                                                                                  #          * +27 FOR MOON *
000170:                                                                                                  #  ALPHA   * -22 FOR EARTH*DP INVERSE OF SEMIMAJOR AXIS IN 1/METERS
000171:                                                                                                  #          * -20 FOR MOON *
000172:                                                                                                  #  TMODULO * +28          *DP INTEGRAL NUMBER OF PERIODS IN CENTISECS. WHICH WAS SUBTRACTED FROM TAU. TO PRODUCE A
000173:                                                                                                  #          *              *TAU. OF LESS THAN ONE PERIOD.
000174:
000175:                                                                                                  #       PARAMETERS OF NO USE -
000176:                                                                                                  #  DP PARAMETERS - EPSILONT, DELX, DELT, RCNORM, XMODULO, PLUS PUSHLIST REGISTERS 0 THROUGH 39D.
000177:
000178:


000180:                                                                                                  #  PROGRAM DESCRIPTION - LAMBERT SUBROUTINE                                        DATE - 1 SEPTEMBER 1967
000181:                                                                                                  #  MOD NO. - 0                                                                     LOG SECTION - CONIC SUBROUTINES
000182:                                                                                                  #  MOD BY KRAUSE                                                                   ASSEMBLY - COLOSSUS REVISION 88
000183:
000184:
000185:
000186:                                                                                                  #  FUNCTIONAL DESCRIPTION -
000187:
000188:                                                                                                  #       THIS SUBROUTINE CALCULATES THE INITIAL VELOCITY REQUIRED TO TRANSFER A POINT-MASS ALONG A CONIC TRAJECTORY
000189:                                                                                                  #  FROM AN INITIAL POSITION TO A TERMINAL POSITION IN A PRESCRIBED TIME INTERVAL.  THE RESULTING TRAJECTORY MAY BE
000190:                                                                                                  #  A SECTION OF A CIRCLE, ELLIPSE, PARABOLA, OR HYPERBOLA WITH RESPECT TO THE EARTH OR THE MOON.  THE USE OF THE
000191:                                                                                                  #  SUBROUTINE CAN BE EXTENDED USING OTHER PRIMARY BODIES BY SIMPLE ADDITIONS TO THE MUTABLE WITHOUT INTRODUCING ANY
000192:                                                                                                  #  CODING CHANGES, ACCEPTING THE INHERENT SCALE FACTOR CHANGES IN POSITION AND VELOCITY.  AN ITERATION TECHNIQUE IS
000193:                                                                                                  #  UTILIZED IN THE COMPUTATION.
000194:
000195:
000196:                                                                                                  #  THE RESTRICTIONS ARE -
000197:                                                                                                  #       1. RECTILINEAR TRAJECTORIES CANNOT BE COMPUTED.
000198:                                                                                                  #       2. AN ACCURACY DEGRADATION OCCURS AS THE COSINE OF THE TRUE ANOMALY DIFFERENCE APPROACHES +1.0.
000199:                                                                                                  #       3. THE ANGLE BETWEEN ANY POSITION VECTOR AND ITS VELOCITY VECTOR MUST BE GREATER THAN 1 DEGREE 47.5 MINUTES
000200:                                                                                                  #  AND LESS THAN 178 DEGREES 12.5 MINUTES.
000201:                                                                                                  #       4. NEGATIVE TRANSFER TIME IS AMBIGUOUS AND WILL RESULT IN NO SOLUTION.
000202:                                                                                                  #       5. THE PARAMETERS IN THE PROBLEM MUST NOT EXCEED THEIR SCALING LIMITS SPECIFIED IN THE GSOP.  IF THE
000203:                                                                                                  #  LIMITS ARE EXCEEDED, THE RESULTING SOLUTION WILL BE MEANINGLESS.
000204:                                                                                                  #       THE NUMBER OF ITERATIONS AND, THEREFORE, THE COMPUTATIONS SPEED IS DEPENDENT ON THE ACCURACY OF THE FIRST
000205:                                                                                                  #  GUESS OF THE INDEPENDENT VARIABLE, COGA.                                THE AGC COMPUTATION TIME IS APPROXIMATE-
000206:                                                                                                  #  LY .105 SECONDS FOR INITIALIZATION, .069 SECONDS FOR FINAL COMPUTATIONS, PLUS .205 SECONDS FOR EACH ITERATION.
000207:
000208:
000209:
000210:                                                                                                  #  REFERENCES -
000211:                                                                                                  #       R-479, MISSION PROGRAMMING DEFINITION MEMO NO. 10, LUNAR LANDING MISSION GSOP-SECTION 5.5, SGA MEMO 67-8,
000212:                                                                                                  #  SGA MEMO 67-4.
000213:
000214:
000215:
000216:                                                                                                  #  INPUT - ERASABLE INITIALIZATION REQUIRED
000217:
000218:                                                                                                  #          * SCALE FACTOR *
000219:                                                                                                  #  VARIABLE*IN POWERS OF 2*       DESCRIPTION AND REMARKS
000220:                                                                                                  #  --------*--------------*-----------------------
000221:                                                                                                  #  R1VEC   * +29 FOR EARTH*DP INITIAL POSITION VECTOR IN METERS
000222:                                                                                                  #          * +27 FOR MOON *
000223:                                                                                                  #  R2VEC   * +29 FOR EARTH*DP TARGET OR TERMINAL POSITION VECTOR IN METERS
000224:                                                                                                  #          * +27 FOR MOON *
000225:                                                                                                  #  TDESIRED* +28          *DP DESIRED TRANSFER TIME IN CENTISECONDS
000226:                                                                                                  #  X1 (38D)* NONE         *INDEX REGISTER SET TO -2D OR -10D ACCORDING TO WHETHER THE EARTH OR MOON,
000227:                                                                                                  #          *              *RESPECTIVELY, IS THE CENTRAL BODY
000228:                                                                                                  #  GEOMSGN * NONE         *SP +.5 IF DESIRED TRANSFER ANGLE IS LESS THAN 180 DEGREES, -.5 IF GREATER THAN 180 DEG.
000229:                                                                                                  #  GUESSW  * NONE         *AN INTERPRETER SWITCH TO BE SET IF NO GUESS OF COGA IS AVAILABLE, CLEAR IF A GUESS OF


000231:                                                                                                  #          *              *COGA IS TO BE USED BY LAMBERT
000232:                                                                                                  #  COGA    * +5           *DP GUESS OF COTANGNT OF FLIGHT PATH ANGLE (MEASURED FROM VERTICAL).  THIS WILL BE
000233:                                                                                                  #                         *IGNORED IF GUESSW IS SET.
000234:                                                                                                  #  NORMSW  * NONE         *AN INTERPRETER SWITCH TO BE SET IF UN IS TO BE AN INPUT TO THE SUBROUTINE, CLEAR IF
000235:                                                                                                  #          *              *LAMBERT IS TO COMPUTE ITS OWN NORMAL (UN).
000236:                                                                                                  #  UN      * +1           *DP UNIT  NORMAL TO THE DESIRED ORBIT PLANE IN THE DIRECTION OF THE RESULTING ANGULAR
000237:                                                                                                  #          *              *MOMENTUM VECTOR.  THIS WILL BE IGNORED IF NORMSW IS CLEAR.
000238:                                                                                                  #  VTARGTAG* NONE         *A S.P. TAG TO BE SET TO ZERO IF LAMBERT IS TO COMPUTE THE VELOCITY AT R2VEC AS WELL AS
000239:                                                                                                  #          *              *AT R1VEC.
000240:                                                                                                  #  ITERCTR * NONE         *A S.P. COUNTER WHICH SPECIFIES THE MAXIMUM NUMBER OF ITERATIONS ALLOWABLE.
000241:                                                                                                  #          *              *(AN ITERATION MEANS A PASS THRU KEPLER EQN (DELTIME). AT LEAST ONE OF THESE MUST
000242:                                                                                                  #          *              *ALWAYS OCCUR, EVEN IF COGA CORRESPONDING TO SOLUTION WERE INPUT AS A GUESS.)
000243:                                                                                                  #          *              *TWENTY ITERATIONS ARE SUFFICIENT TO SOLVE ALL PROBLEMS INCLUDING THOSE WITHOUT GUESS.
000244:
000245:
000246:                                                                                                  #  SUBROUTINES CALLED -
000247:                                                                                                  #       GEOM, GETX, DELTIME, ITERATOR, LAMENTER (PART OF NEWSTATE)
000248:
000249:
000250:
000251:                                                                                                  #  CALLING SEQUENCE AND NORMAL EXIT MODES -
000252:
000253:                                                                                                  #  L        CALL                   MUST BE IN INTERPRETIVE MODE AND OVFIND MUST BE CLEAR
000254:                                                                                                  #  L+1             LAMBERT         RETURNS WITH PL AT 0 AND WITH VVEC IN MPAC IF VTARGTAG WAS NON-ZERO OR VTARGET
000255:                                                                                                  #                                  IN MPAC IF VTARGTAG WAS ZERO
000256:                                                                                                  #  L+2      BON                    CONTINUE IF SOLNSW CLEAR SINCE SOLUTION IS ACCEPTABLE
000257:                                                                                                  #  L+3             SOLNSW
000258:                                                                                                  #  L+4             LAMABORT
000259:                                                                                                  #       IF A LAMBERT RESULT IS TO BE A FIRST GUESS FOR THE NEXT LAMBERT CALCULATION, COGA MUST BE PRESERVED AND
000260:                                                                                                  #  GUESSW MUST BE CLEAR FOR EACH SUCCEEDING LAMBERT CALL.
000261:
000262:
000263:
000264:                                                                                                  #  ABORT EXIT MODES -
000265:                                                                                                  #       IF SOLNSW WAS SET UPON EXITING, EITHER LAMBERT WAS ASKED TO COMPUTE A TRANSFER TOO NEAR 0 OR 360 DEG, OR T
000266:                                                                                                  #  WAS TOO SMALL TO PRODUCE A REALISTIC TRANSFER BETWEEN R1VEC AND R2VEC.  IN EITHER CASE THE FIX MUST BE MADE
000267:                                                                                                  #  ACCORDING TO THE NEEDS OF THE PARTICULAR USER.  THE ABORT EXIT MODE MAY BE CODED AS ...
000268:                                                                                                  #  LAMABORT DLOAD  ABS                     A MEASURE OF PROXIMITY TO 0 OR
000269:                                                                                                  #                  1-CSTH                  360 DEGREES.
000270:                                                                                                  #           DSU    BMN
000271:                                                                                                  #                  ONEBIT
000272:                                                                                                  #                  CHANGER2                CHANGE R2VEC DIRECTION SLIGHTLY.
000273:                                                                                                  #           DLOAD  DAD
000274:                                                                                                  #                  TDESIRED
000275:                                                                                                  #                  SOMETIME
000276:                                                                                                  #           STCALL TDESIRED                INCREASE TDESIRED
000277:                                                                                                  #                  LAMBERT
000278:
000279:


000281:                                                                                                  #  OUTPUT -
000282:                                                                                                  #          * SCALE FACTOR *
000283:                                                                                                  #  VARIABLE*IN POWERS OF 2*                         DESCRIPTION AND REMARKS
000284:                                                                                                  #  --------*--------------*                         -----------------------
000285:                                                                                                  #  VVEC    * +7 FOR EARTH *DP INITIAL VELOCITY VECTOR IN METERS/CENTISECOND REQUIRED TO SATISFY THE BOUNDARY VALUE
000286:                                                                                                  #          * +5 FOR MOON  *PROBLEM.
000287:                                                                                                  #  VTARGET * +7 FOR EARTH *DP RESULTANT VELOCITY VECTOR AT R2VEC IN METERS/CENTISECOND.
000288:                                                                                                  #          * +5 FOR MOON  *
000289:                                                                                                  #  SOLNSW  * NONE         *INTERPRETER SWITCH WHICH IS SET IF THE SUBROUTINE CANNOT SOLVE THE PROBLEM, CLEAR IF THE
000290:                                                                                                  #          *              *SOLUTION EXISTS.
000291:                                                                                                  #  FOR OTHER OUTPUT WHICH MAY BE OF USE, SEE DEBRIS.
000292:
000293:
000294:
000295:                                                                                                  #  DEBRIS -
000296:                                                                                                  #       PARAMETERS WHICH MAY BE OF USE -
000297:
000298:                                                                                                  #          * SCALE FACTOR *
000299:                                                                                                  #  VARIABLE*IN POWERS OF 2*                         DESCRIPTION AND REMARKS
000300:                                                                                                  #  --------*--------------*                         -----------------------
000301:                                                                                                  #  SNTH    * +1           *DP SIN OF ANGLE BETWEEN R1VEC AND R2VEC
000302:                                                                                                  #  CSTH    * +1           *DP COSINE OF ANGLE
000303:                                                                                                  #  1-CSTH  * +2           *DP 1-CSTH
000304:                                                                                                  #  COGA    * +5           *DP COTAN OF INITIAL REQUIRED FLIGHT PATH ANGLE MEASURED FROM VERTICAL
000305:                                                                                                  #  P       * +4           *DP RATIO  OF SEMILATUS RECTUM TO INITIAL RADIUS
000306:                                                                                                  #  R1A     * +6           *DP RATIO OF INITIAL RADIUS TO SEMIMAJOR AXIS
000307:                                                                                                  #  R1 (32D)* +29 FOR EARTH*DP INITIAL RADIUS IN METERS
000308:                                                                                                  #          * +27 FOR MOON *
000309:                                                                                                  #  UR1     * +1           *DP UNIT VECTOR OF R1VEC
000310:                                                                                                  #  U2      * +1           *DP UNIT VECTOR OF R2VEC
000311:
000312:                                                                                                  #       PARAMETERS OF NO USE
000313:                                                                                                  #  DP PARAMETERS - EPSILONL, CSTH-RHO, TPREV, TERRLAMB, R2, RTNLAMB (SP),  PLUS PUSHLIST REGISTER 0 THROUGH 41D
000314:                                                                                                  #  ADDITIONAL INTERPRETIVE SWITCHES USED - INFINFLG, 360SW, SLOPESW, ORDERSW
000315:
000316:


000318:                                                                                                  #  PROGRAM DESCRIPTION - TIME-THETA SUBROUTINE                                     DATE - 1 SEPTEMBER 1967
000319:                                                                                                  #  MOD NO. - 0                                                                     LOG SECTION - CONIC SUBROUTINES
000320:                                                                                                  #  MOD BY KRAUSE                                                                   ASSEMBLY - COLOSSUS REVISION 88
000321:
000322:
000323:
000324:                                                                                                  #  FUNCTIONAL DESCRIPTION -
000325:
000326:                                                                                                  #       THIS SUBROUTINE, GIVEN AN INITIAL STATE VECTOR AND A DESIRED TRUE-ANOMALY-DIFFERENCE THROUGH WHICH THE
000327:                                                                                                  #  STATE IS TO BE UPDATED ALONG A CONIC TRAJECTORY, CALCULATES THE CORRESPONDING TIME-OF-FLIGHT AND, IN ADDITION,
000328:                                                                                                  #  PROVIDES THE OPTION OF COMPUTING THE NEW UPDATED STATE VECTOR.  THE RESULTING TRAJECTORY MAY BE A SECTION OF A
000329:                                                                                                  #  CIRCLE, ELLIPSE, PARABOLA, OR HYPERBOLA WITH RESPECT TO THE EARTH OR THE MOON.  THE USE OF THE SUBROUTINE CAN BE
000330:                                                                                                  #  EXTENDED USING OTHER PRIMARY BODIES BY SIMPLE ADDITIONS TO THE MUTABLE WITHOUT INTRODUCING ANY CODING CHANGES,
000331:                                                                                                  #  ACCEPTING THE INHERENT SCALE FACTOR CHANGES IN POSITION AND VELOCITY.
000332:
000333:
000334:                                                                                                  #  THE RESTRICTIONS ARE -
000335:                                                                                                  #       1. THE ANGLE BETWEEN ANY POSITION VECTOR AND ITS VELOCITY VECTOR MUST BE GREATER THAN 1 DEGREE 47.5 MINUTES
000336:                                                                                                  #  AND LESS THAN 178 DEGREES 12.5 MINUTES.
000337:                                                                                                  #       2. THE PARAMETERS IN THE PROBLEM MUST NOT EXCEED THEIR SCALING LIMITS SPECIFIED IN THE GSOP.  IF THE LIMITS
000338:                                                                                                  #  ARE EXCEEDED, THE RESULTING SOLUTION WILL BE MEANINGLESS.
000339:
000340:                                                                                                  #       THE AGC COMPUTATION TIME IS APPROXIMATELY .292 SECONDS.
000341:
000342:
000343:
000344:                                                                                                  #  REFERENCES -
000345:                                                                                                  #       R-479, MISSION PROGRAMMING DEFINITION MEMO NO. 10, LUNAR LANDING MISSION GSOP-SECTION 5.5, SGA MEMO 67-8.
000346:
000347:
000348:
000349:                                                                                                  #  INPUT - ERASABLE INITIALIZATION REQUIRED
000350:
000351:                                                                                                  #          * SCALE FACTOR *
000352:                                                                                                  #  VARIABLE*IN POWERS OF 2*                         DESCRIPTION AND REMARKS
000353:                                                                                                  #  --------*--------------*                         -----------------------
000354:                                                                                                  #  RVEC    * +29 FOR EARTH*DP INITIAL POSITION VECTOR IN METERS
000355:                                                                                                  #          * +27 FOR MOON *
000356:                                                                                                  #  VVEC    * +7 FOR EARTH *DP INITIAL VELOCITY VECTOR IN METERS/CENTISECOND
000357:                                                                                                  #          * +5 FOR MOON  *
000358:                                                                                                  #  SNTH    * +1           *DP SINE OF TRUE-ANOMALY-DIFFERENCE THROUGH WHICH THE STATE IS TO BE UPDATED
000359:                                                                                                  #  CSTH    * +1           *DP COSINE OF THE ANGLE
000360:                                                                                                  #  RVSW    * NONE         *AN INTERPRETIVE SWITCH TO BE SET IF ONLY TIME IS TO BE AN OUTPUT, CLEAR IF THE NEW STATE
000361:                                                                                                  #          *              *IS TO BE COMPUTED ALSO.
000362:                                                                                                  #  X1 (38D)* NONE         *INDEX REGISTER TO BE SET TO -2D OR -10D ACCORDING TO WHETHER THE EARTH OR MOON,
000363:                                                                                                  #          *              *RESPECTIVELY, IS THE CENTRAL BODY.
000364:
000365:
000366:
000367:                                                                                                  #  SUBROUTINES CALLED -


000369:                                                                                                  #       PARAM, GEOM, GETX, DELTIME, NEWSTATE
000370:
000371:
000372:
000373:                                                                                                  #  CALLING SEQUENCE AND NORMAL EXIT MODES -
000374:
000375:                                                                                                  #     IF ONLY TIME IS DESIRED AS OUTPUT -
000376:                                                                                                  #  L        SET    CALL            MUST BE IN INTERPRETIVE MODE AND OVFIND MUST BE CLEAR
000377:                                                                                                  #  L+1             RVSW
000378:                                                                                                  #  L+2             TIMETHET        RETURN WITH PL AT 0 AND T IN MPAC
000379:                                                                                                  #  L+3      ...                    CONTINUE
000380:
000381:
000382:                                                                                                  #     IF THE UPDATE STATE VECTOR IS DESIRED AS WELL -
000383:                                                                                                  #  L        CLEAR  CALL            MUST BE IN INTERPRETIVE MODE AND OVFIND MUST BE CLEAR
000384:                                                                                                  #  L+1             RVSW
000385:                                                                                                  #  L+2             TIMETHET        RETURNS WITH PL AT 6.  THE INITIAL POSITION VECTOR IS IN 0D OF THE PUSHLIST AND
000386:                                                                                                  #                                  THE INITIAL VELOCITY VECTOR IN MPAC.
000387:                                                                                                  #  L+3      STOVL  NEWVVEC
000388:                                                                                                  #  L+4      STADR
000389:                                                                                                  #  L+5      STORE  NEWRVEC                 NEWVVEC AND NEWRVEC ARE SYMBOLIC REPRESENTATIONS OF THE USERS LOCATIONS.
000390:                                                                                                  #  L+6      ...                            CONTINUE
000391:
000392:
000393:
000394:                                                                                                  #  ABORT EXIT MODES -
000395:                                                                                                  #  L        CALL   BON
000396:                                                                                                  #  L+1             TIMETHET
000397:                                                                                                  #  L+2             COGAFLAG
000398:                                                                                                  #  L+3             COGABORT        RESTRICTION 1 HAS BEEN VIOLATED.
000399:                                                                                                  #  L+4      BON                    IF NEITHER FLAG IS SET AND RESTRICTION 2 HAS NOT BEEN VIOLATED, THE SOLUTION IS
000400:                                                                                                  #                                  GOOD, SO CONTINUE
000401:                                                                                                  #  L+5             INFINFLG
000402:                                                                                                  #  L+6             IMPOSSBL        NO SOLUTION EXISTS.
000403:
000404:
000405:
000406:                                                                                                  #  OUTPUT -
000407:                                                                                                  #          * SCALE FACTOR *
000408:                                                                                                  #  VARIABLE*IN POWERS OF 2*                         DESCRIPTION AND REMARKS
000409:                                                                                                  #  --------*--------------*                         -----------------------
000410:                                                                                                  #  T (30D) * +28          *DP TRANSFER TIME IN CENTISECONDS
000411:                                                                                                  #  INFINFLG* NONE         *AN INTERPRETIVE SWITCH WHICH IS SET IF THE TRANSFER ANGLE REQUIRES CLOSURE THROUGH
000412:                                                                                                  #          *              *INFINITY (NO SOLUTION), CLEAR IF A PHYSICAL SOLUTION IS POSSIBLE.
000413:                                                                                                  #  COGAFLAG* NONE         *AN INTERPRETIVE SWITCH WHICH IS SET IF RESTRICTION 1 HAS BEEN VIOLATED (NO SOLUTION),
000414:                                                                                                  #          *              *CLEAR IF NOT.
000415:
000416:                                                                                                  #  IN ADDITION, IF VTARGTAG IS NON-ZERO, THE FOLLOWING ARE OUTPUT -
000417:                                                                                                  #  MPAC -  * +7 FOR EARTH *DP TERMINAL VELOCITY VECTOR IN METERS/CENTISEC.
000418:                                                                                                  #   MPAC +5* +5 FOR MOON  *


000420:                                                                                                  #  0D - 5D * +29 FOR EARTH*DP TERMINAL POSITION VECTOR IN METERS (PL AT 6D)
000421:                                                                                                  #          * +27 FOR MOON *
000422:
000423:                                                                                                  #  FOR OTHER OUTPUT WHICH MAY BE OF USE, SEE DEBRIS.
000424:
000425:
000426:
000427:                                                                                                  #  DEBRIS -
000428:
000429:                                                                                                  #       PARAMETERS WHICH MAY BE OF USE -
000430:
000431:                                                                                                  #          * SCALE FACTOR *
000432:                                                                                                  #  VARIABLE*IN POWERS OF 2*                         DESCRIPTION AND REMARKS
000433:                                                                                                  #  --------*--------------*                         -----------------------
000434:                                                                                                  #  R1 (32D)* +29 FOR EARTH*DP MAGNITUDE OF INITIAL POSITION VECTOR, RVEC, IN METERS
000435:                                                                                                  #          * +27 FOR MOON *
000436:                                                                                                  #  R1A     * +6           *DP RATIO OF R1 TO SEMIMAJOR AXIS (NEG. FOR HYPERBOLIC TRAJECTORIES)
000437:                                                                                                  #  P       * +4           *DP RATIO OF SEMILATUS RECTUM TO R1
000438:                                                                                                  #  COGA    * +5           *DP COTAN OF ANGLE BETWEEN RVEC AND VVEC
000439:                                                                                                  #  UR1     * +1           *DP UNIT VECTOR OF RVEC
000440:                                                                                                  #  U2      * +1           *DP UNIT VECTOR OF VVEC
000441:                                                                                                  #  UN      * +1           *DP UNIT VECTOR OF UR1*U2
000442:
000443:
000444:                                                                                                  #       PARAMETERS OF NO USE -
000445:                                                                                                  #  SP PARAMETERS -  RTNTT, GEOMSGN, RTNPRM, MAGVEC2=R2 (DP), PLUS PUSHLIST LOCATIONS 0-11D, 14D-21D, 24D-39D, 41D
000446:                                                                                                  #  ADDITIONAL INTERPRETIVE SWITCHES USED - NORMSW, 360SW
000447:
000448:


000450:                                                                                                  #  PROGRAM DESCRIPTION - TIME-RADIUS SUBROUTINE                            DATE - 11 OCTOBER 1967
000451:                                                                                                  #  MOD NO. -1                                                                      LOG SECTION - CONIC SUBROUTINES
000452:                                                                                                  #  MOD BY KRAUSE                                                                   ASSEMBLY - COLOSSUS REVISION 88
000453:
000454:
000455:
000456:                                                                                                  #  FUNCTIONAL DESCRIPTION -
000457:
000458:                                                                                                  #       THIS SUBROUTINE, GIVEN AN INITIAL STATE VECTOR AND A DESIRED RADIUS TO WHICH THE
000459:                                                                                                  #  STATE IS TO BE UPDATED ALONG A CONIC TRAJECTORY, CALCULATES THE CORRESPONDING TIME-OF-FLIGHT AND, IN ADDITION,
000460:                                                                                                  #  PROVIDES THE OPTION OF COMPUTING THE NEW UPDATED STATE VECTOR.  THE RESULTING TRAJECTORY MAY BE A SECTION OF A
000461:                                                                                                  #  CIRCLE, ELLIPSE, PARABOLA, OR HYPERBOLA WITH RESPECT TO THE EARTH OR THE MOON.  THE USE OF THE SUBROUTINE CAN BE
000462:                                                                                                  #  EXTENDED USING OTHER PRIMARY BODIES BY SIMPLE ADDITIONS TO THE MUTABLE WITHOUT INTRODUCING ANY CODING CHANGES,
000463:                                                                                                  #  ACCEPTING THE INHERENT SCALE FACTOR CHANGES IN POSITION AND VELOCITY.
000464:                                                                                                  #       IF THE DESIRED RADIUS IS BEYOND THE RADIUS OF APOCENTER OF THE CONIC OR BELOW THE RADIUS OF PERICENTER,
000465:                                                                                                  #  APSESW WILL BE SET AND THE SUBROUTINE WILL RETURN THE APOCENTER OR PERICENTER SOLUTION, RESPECTIVELY.
000466:
000467:
000468:                                                                                                  #  THE RESTRICTIONS ARE -
000469:                                                                                                  #       1. THE ANGLE BETWEEN ANY POSITION VECTOR AND ITS VELOCITY VECTOR MUST BE GREATER THAN 1 DEGREE 47.5 MINUTES
000470:                                                                                                  #  AND LESS THAN 178 DEGREES 12.5 MINUTES.
000471:                                                                                                  #       2. THE PARAMETERS IN THE PROBLEM MUST NOT EXCEED THEIR SCALING LIMITS SPECIFIED IN THE GSOP.  IF THE LIMITS
000472:                                                                                                  #  ARE EXCEEDED, THE RESULTING SOLUTION WILL BE MEANINGLESS.
000473:                                                                                                  #       3. AN ACCURACY DEGRADATION OCCURS AS THE SENSITIVITIES OF TIME AND UPDATED STATE VECTOR TO CHANGES IN
000474:                                                                                                  #  RDESIRED INCREASE.  THIS WILL OCCUR NEAR EITHER APSIS OF THE CONIC AND WHEN THE CONIC IS NEARLY CIRCULAR.  IN
000475:                                                                                                  #  PARTICULAR, IF THE CONIC IS AN EXACT CIRCLE, THE PROBLEM IS UNDEFINED AND THE SUBROUTINE WILL ABORT.
000476:
000477:
000478:                                                                                                  #       THE AGC COMPUTATION TIME IS APPROXIMATELY .363 SECONDS
000479:
000480:
000481:
000482:                                                                                                  #  REFERENCES -
000483:                                                                                                  #       R-479, MISSION PROGRAMMING DEFINITION MEMO NO. 10, LUNAR LANDING MISSION GSOP-SECTION 5.5, SGA MEMO 67-8.
000484:
000485:
000486:
000487:                                                                                                  #  INPUT - ERASABLE INITIALIZATION REQUIRED
000488:
000489:                                                                                                  #          * SCALE FACTOR *
000490:                                                                                                  #  VARIABLE*IN POWERS OF 2*                         DESCRIPTION AND REMARKS
000491:                                                                                                  #  --------*--------------*                         -----------------------
000492:                                                                                                  #  RVEC    * +29 FOR EARTH*DP INITIAL POSITION VECTOR IN METERS
000493:                                                                                                  #          * +27 FOR MOON *
000494:                                                                                                  #  VVEC    * +7 FOR EARTH *DP INITIAL VELOCITY VECTOR IN METERS/CENTISECOND
000495:                                                                                                  #          * +5 FOR MOON  *
000496:                                                                                                  #  RDESIRED* +29 FOR EARTH*DP TERMINAL RADIAL DISTANCE ON CONIC TRAJECTORY FOR WHICH TRANSFER TIME IS TO BE
000497:                                                                                                  #          * +27 FOR MOON *COMPUTED.
000498:                                                                                                  #  SGNRDOT * NONE         *SP TAG SET TO +.5 OR -.5 ACCORDING TO WHETHER THE RADIAL VELOCITY AT RDESIRED IS TO BE
000499:                                                                                                  #          *              *POSITIVE OR NEGATIVE, RESPECTIVELY.  THIS TAG REDUCES THE DOUBLE-VALUED PROBLEM TO A


000501:                                                                                                  #          *              *SINGLE-VALUED PROBLEM.
000502:                                                                                                  #  X1 (38D)* NONE         *INDEX REGISTER TO BE SET TO -2D OR -10D ACCORDING TO WHETHER THE EARTH OR MOON,
000503:                                                                                                  #          *              *RESPECTIVELY, IS THE CENTRAL BODY.
000504:                                                                                                  #  RVSW    * NONE         *AN INTERPRETIVE SWITCH TO BE SET IF ONLY TIME IS TO BE AN OUTPUT, CLEAR IF THE NEW STATE
000505:                                                                                                  #          *              *IS TO BE COMPUTED ALSO.
000506:
000507:
000508:
000509:                                                                                                  #  SUBROUTINES CALLED -
000510:                                                                                                  #        PARAM, GEOM, GETX, DELTIME, NEWSTATE
000511:
000512:
000513:
000514:                                                                                                  #  CALLING SEQUENCE AND NORMAL EXIT MODES -
000515:
000516:                                                                                                  #     IF ONLY TIME IS DESIRED AS OUTPUT -
000517:                                                                                                  #  L        SET    CALL            MUST BE IN INTERPRETIVE MODE AND OVFIND MUST BE CLEAR
000518:                                                                                                  #  L+1             RVSW
000519:                                                                                                  #  L+2             TIMERAD         RETURN WITH PL AT 0 AND T IN MPAC
000520:                                                                                                  #  L+3      ...                    CONTINUE
000521:
000522:                                                                                                  #     IF THE UPDATE STATE VECTOR IS DESIRED AS WELL -
000523:                                                                                                  #  L        CLEAR  CALL            MUST BE IN INTERPRETIVE MODE AND OVFIND MUST BE CLEAR
000524:                                                                                                  #  L+1             RVSW
000525:                                                                                                  #  L+2             TIMERAD         RETURNS WITH PL AT 6.  THE INITIAL POSITION VECTOR IS IN 0D OF THE PUSHLIST AND
000526:                                                                                                  #                                  THE INITIAL VELOCITY VECTOR IN MPAC.
000527:                                                                                                  #  L+3      STOVL  NEWVVEC
000528:                                                                                                  #  L+4      STADR
000529:                                                                                                  #  L+5      STORE  NEWRVEC                 NEWVVEC AND NEWRVEC ARE SYMBOLIC REPRESENTATIONS OF THE USERS LOCATIONS.
000530:                                                                                                  #  L+6      ...                            CONTINUE
000531:
000532:
000533:
000534:                                                                                                  #  ABORT EXIT MODES -
000535:                                                                                                  #  L        CALL   BON
000536:                                                                                                  #  L+1             TIMERAD
000537:                                                                                                  #  L+2             COGAFLAG
000538:                                                                                                  #  L+3             COGABORT        RESTRICTION 1 HAS BEEN VIOLATED.
000539:                                                                                                  #  L+4      BON    BON
000540:                                                                                                  #  L+5             INFINFLG
000541:                                                                                                  #  L+6             IMPOSSBL        NO SOLUTION EXISTS.
000542:                                                                                                  #  L+7             SOLNSW
000543:                                                                                                  #  L+8             IMPOSSBL        SOLUTION IS UNDEFINED SINCE CONIC IS A CIRCLE.  RESTRICTION 3 HAS BEEN VIOLATED.
000544:                                                                                                  #  L+9      ...                    IF ALL THREE OF THE FLAGS ARE CLEAR, A SOLUTION EXISTS, SO CONTINUE.
000545:
000546:
000547:
000548:                                                                                                  #  OUTPUT -
000549:                                                                                                  #          * SCALE FACTOR *


000551:                                                                                                  #  VARIABLE*IN POWERS OF 2*                         DESCRIPTION AND REMARKS
000552:                                                                                                  #  --------*--------------*                         -----------------------
000553:                                                                                                  #  T (30D) * +28          *DP TRANSFER TIME IN CENTISECONDS
000554:                                                                                                  #  INFINFLG* NONE         *AN INTERPRETIVE SWITCH WHICH IS SET IF RDESIRED AND SGNRDOT REQUIRE CLOSURE THROUGH
000555:                                                                                                  #          *              *INFINITY (NO SOLUTION), CLEAR IF A PHYSICAL SOLUTION IS POSSIBLE.
000556:                                                                                                  #  COGAFLAG* NONE         *AN INTERPRETIVE SWITCH WHICH IS SET IF RESTRICTION 1 HAS BEEN VIOLATED (NO SOLUTION),
000557:                                                                                                  #          *              *CLEAR IF NOT.
000558:                                                                                                  #  APSESW  * NONE         *AN INTERPRETIVE SWITCH WHICH IS SET IF RDESIRED WAS GREATER THAN RADIUS OF APOCENTER OR
000559:                                                                                                  #          *              *LESS THAN RADIUS OF PERICENTER.  THE APOCENTER OR PERICENTER SOLUTION, RESPECTIVELY,
000560:                                                                                                  #          *              *WILL THEN BE RETURNED.  THE SWITCH IS CLEAR IF RDESIRED WAS BETWEEN PERICENTER AND
000561:                                                                                                  #          *              *APOCENTER.
000562:                                                                                                  #  SOLNSW  * NONE         *AN INTERPRETIVE SWITCH WHICH IS SET IF THE CONIC IS SO CLOSE TO A CIRCLE THAT THE TERMIN
000563:                                                                                                  #                         *POINT IS AMBIGUOUS, VIOLATING RESTRICTION 3.  IF ECCENTRICITY IS GREATER THAN 2-TO-THE-
000564:                                                                                                  #                         *MINUS-18, THE SWITCH IS CLEAR.
000565:
000566:
000567:
000568:                                                                                                  #  IN ADDITION, IF VTARGTAG IS NON-ZERO, THE FOLLOWING ARE OUTPUT -
000569:
000570:                                                                                                  #  MPAC -  * +7 FOR EARTH *DP TERMINAL VELOCITY VECTOR IN METERS/CENTISEC.
000571:                                                                                                  #   MPAC +5* +5 FOR MOON  *
000572:                                                                                                  #  0D - 5D * +29 FOR EARTH*DP TERMINAL POSITION VECTOR IN METERS (PL AT 6D)
000573:                                                                                                  #          * +27 FOR MOON *
000574:
000575:                                                                                                  #  FOR OTHER OUTPUT WHICH MAY BE OF USE, SEE DEBRIS.
000576:
000577:
000578:
000579:                                                                                                  #  DEBRIS -
000580:
000581:                                                                                                  #       PARAMETERS WHICH MAY BE OF USE -
000582:
000583:                                                                                                  #          * SCALE FACTOR *
000584:                                                                                                  #  VARIABLE*IN POWERS OF 2*                         DESCRIPTION AND REMARKS
000585:                                                                                                  #  --------*--------------*                         -----------------------
000586:                                                                                                  #  R1 (32D)* +29 FOR EARTH*DP MAGNITUDE OF INITIAL POSITION VECTOR, RVEC, IN METERS
000587:                                                                                                  #          * +27 FOR MOON *
000588:                                                                                                  #  R1A     * +6           *DP RATIO OF R1 TO SEMIMAJOR AXIS (NEG. FOR HYPERBOLIC TRAJECTORIES)
000589:                                                                                                  #  P       * +4           *DP RATIO OF SEMILATUS RECTUM TO R1
000590:                                                                                                  #  COGA    * +5           *DP COTAN OF ANGLE BETWEEN RVEC AND VVEC
000591:                                                                                                  #  UR1     * +1           *DP UNIT VECTOR OF RVEC
000592:                                                                                                  #  U2      * +1           *DP UNIT VECTOR OF VVEC
000593:                                                                                                  #  UN      * +1           *DP UNIT VECTOR OF UR1*U2
000594:                                                                                                  #  CSTH    * +1           *DP COSINE OF TRUE ANOMALY DIFFERENCE BETWEEN RVEC AND RDESIRED.
000595:                                                                                                  #  SNTH    * +1           *DP SINE OF TRUE ANOMALY DIFFERENCE.
000596:
000597:
000598:                                                                                                  #       PARAMETERS OF NO USE -
000599:                                                                                                  #  SP PARAMETERS -  RTNTT, GEOMSGN, RTNPRM, MAGVEC2=R2 (DP), PLUS PUSHLIST LOCATIONS 0-11D, 14D-21D, 24D-39D, 41D
000600:                                                                                                  #  ADDITIONAL INTERPRETIVE SWITCHES USED - NORMSW, 360SW
000601:
000602:


000604:                                                                                                  #  PROGRAM DESCRIPTION - APSIDES SUBROUTINE                                        DATE - 1 SEPTEMBER 1967
000605:                                                                                                  #  MOD NO. - 0                                                                     LOG SECTION - CONIC SUBROUTINES
000606:                                                                                                  #  MOD BY KRAUSE                                                                   ASSEMBLY - COLOSSUS REVISION 88
000607:
000608:
000609:
000610:                                                                                                  #  FUNCTIONAL DESCRIPTION -
000611:
000612:                                                                                                  #       THIS SUBROUTINE, GIVEN AN INITIAL STATE VECTOR CALCULATES THE RADIUS OF PERICENTER AND OF APOCENTER AND THE
000613:                                                                                                  #  ECCENTRICITY OF THE RESULTING CONIC TRAJECTORY, WHICH MAY BE A STRAIGHT LINE,
000614:                                                                                                  #  CIRCLE, ELLIPSE, PARABOLA, OR HYPERBOLA WITH RESPECT TO THE EARTH OR THE MOON.  THE USE OF THE SUBROUTINE CAN BE
000615:                                                                                                  #  EXTENDED USING OTHER PRIMARY BODIES BY SIMPLE ADDITIONS TO THE MUTABLE WITHOUT INTRODUCING ANY CODING CHANGES,
000616:                                                                                                  #  ACCEPTING THE INHERENT SCALE FACTOR CHANGES IN POSITION AND VELOCITY.
000617:
000618:
000619:                                                                                                  #  THE RESTRICTIONS ARE -
000620:                                                                                                  #       1.  IF APOCENTER IS BEYOND THE SCALING OF POSITION, THE SCALE FACTOR LIMIT (536,870,910 METERS WITH RESPECT
000621:                                                                                                  #  TO THE EARTH OR 134,217,727.5 METERS WITH RESPECT TO THE MOON) WILL BE RETURNED.
000622:                                                                                                  #       2. THE PARAMETERS IN THE PROBLEM MUST NOT EXCEED THEIR SCALING LIMITS SPECIFIED IN THE GSOP.  IF THE LIMITS
000623:                                                                                                  #  ARE EXCEEDED, THE RESULTING SOLUTION WILL BE MEANINGLESS.
000624:
000625:                                                                                                  #       THE AGC COMPUTATION TIME IS APPROXIMATELY .103 SECONDS.
000626:
000627:
000628:
000629:                                                                                                  #  REFERENCES -
000630:                                                                                                  #       MISSION PROGRAMMING DEFINITION MEMO NO. 10, LUNAR LANDING MISSION GSOP-SECTION 5.5
000631:
000632:
000633:
000634:                                                                                                  #  INPUT - ERASABLE INITIALIZATION REQUIRED
000635:
000636:                                                                                                  #          * SCALE FACTOR *
000637:                                                                                                  #  VARIABLE*IN POWERS OF 2*                         DESCRIPTION AND REMARKS
000638:                                                                                                  #  --------*--------------*                         -----------------------
000639:                                                                                                  #  RVEC    * +29 FOR EARTH*DP INITIAL POSITION VECTOR IN METERS
000640:                                                                                                  #          * +27 FOR MOON *
000641:                                                                                                  #  VVEC    * +7 FOR EARTH *DP INITIAL VELOCITY VECTOR IN METERS/CENTISECOND
000642:                                                                                                  #          * +5 FOR MOON  *
000643:                                                                                                  #  X1 (38D)*NONE          *INDEX REGISTER TO BE SET TO -2D OR -10D ACCORDING TO WHETHER THE EARTH OR MOON,
000644:                                                                                                  #          *              *RESPECTIVELY, IS THE CENTRAL BODY.
000645:
000646:
000647:
000648:                                                                                                  #  SUBROUTINES CALLED -
000649:                                                                                                  #       PARAM, GEOM
000650:
000651:
000652:
000653:                                                                                                  #  CALLING SEQUENCE AND NORMAL EXIT MODES -


000655:                                                                                                  #     IF ONLY TIME IS DESIRED AS OUTPUT -
000656:                                                                                                  #  L        CALL                   MUST BE IN INTERPRETIVE MODE AND OVFIND MUST BE CLEAR.
000657:                                                                                                  #  L+1             APSIDES         RETURNS WITH PL AT 0, RADIUS OF APOCENTER IN MPAC AND RADIUS OF PERICENTER IN 0D
000658:                                                                                                  #  L+2      STODL  APOAPSE
000659:                                                                                                  #  L+3             0D
000660:                                                                                                  #  L+4      STORE  PERIAPSE                APOAPSE AND PERIAPSE ARE SYMBOLIC REPRESENTATIONS OF THE USERS LOCATIONS
000661:                                                                                                  #  L+5      ...                    CONTINUE
000662:
000663:
000664:
000665:                                                                                                  #  OUTPUT -
000666:                                                                                                  #          * SCALE FACTOR *
000667:                                                                                                  #  VARIABLE*IN POWERS OF 2*                         DESCRIPTION AND REMARKS
000668:                                                                                                  #  --------*--------------*                         -----------------------
000669:                                                                                                  #  MPAC    * +29 FOR EARTH*DP RADIUS OF APOCENTER IN METERS
000670:                                                                                                  #          * +27 FOR MOON *
000671:                                                                                                  #  0D-1D   * +29 FOR EARTH*DP RADIUS OF PERICENTER IN METERS
000672:                                                                                                  #          * +27 FOR MOON *
000673:                                                                                                  #  ECC     * +3           *DP ECCENTRICITY OF CONIC TRAJECTORY.
000674:
000675:                                                                                                  #  FOR OTHER OUTPUT WHICH MAY BE OF USE, SEE DEBRIS.
000676:
000677:
000678:
000679:                                                                                                  #  DEBRIS -
000680:
000681:                                                                                                  #       PARAMETERS WHICH MAY BE OF USE -
000682:
000683:                                                                                                  #          * SCALE FACTOR *
000684:                                                                                                  #  VARIABLE*IN POWERS OF 2*                         DESCRIPTION AND REMARKS
000685:                                                                                                  #  --------*--------------*                         -----------------------
000686:                                                                                                  #  R1 (32D)* +29 FOR EARTH*DP MAGNITUDE OF INITIAL POSITION VECTOR, RVEC, IN METERS
000687:                                                                                                  #          * +27 FOR MOON *
000688:                                                                                                  #  R1A     * +6           *DP RATIO OF R1 TO SEMIMAJOR AXIS (NEG. FOR HYPERBOLIC TRAJECTORIES)
000689:                                                                                                  #  P       * +4           *DP RATIO OF SEMILATUS RECTUM TO R1
000690:                                                                                                  #  COGA    * +5           *DP COTAN OF ANGLE BETWEEN RVEC AND VVEC
000691:                                                                                                  #  UR1     * +1           *DP UNIT VECTOR OF RVEC
000692:                                                                                                  #  U2      * +1           *DP UNIT VECTOR OF VVEC
000693:                                                                                                  #  UN      * +1           *DP UNIT VECTOR OF UR1*U2
000694:                                                                                                  #  MAGVEC2 * +7 FOR EARTH *DP MAGNITUDE OF VVEC
000695:                                                                                                  #          * +5 FOR MOON  *
000696:
000697:
000698:                                                                                                  #       PARAMETERS OF NO USE -
000699:                                                                                                  #  SP PARAMETERS - RTNAPSE, GEOMSGN, RTNPRM, PLUS PUSHLIST LOCATIONS 0-5, 10D-11D, 14D-21D, 31D-38D.
000700:                                                                                                  #  ADDITIONAL INTERPRETIVE SWITCHES USED - NORMSW
000701:
000702:
000703:
000704: 12,2000                                           SETLOC   CONICS


000706: 12,2000                                           BANK
000707:
000708: 12,2000                                           COUNT*   $$/CONIC
000709: 12,2000  E5,1721                                  EBANK=   UR1
000710: 12,2000           71201        KEPLERN            SETPD    DLOAD
000711: 12,2001           00001                                    0
000712: 12,2002           22275                                    KEPZERO
000713: 12,2003           02177                           STORE    XMODULO
000714: 12,2004           32201                           STOVL*   TMODULO
000715: 12,2005           10005                                    MUTABLE,1
000716: 12,2006           24017                           STOVL    14D
000717: 12,2007           01503                                    RRECT
000718: 12,2010           66256                           UNIT     SSP
000719: 12,2011           00027                                    ITERCTR
000720: 12,2012           00024                                    20D
000721: 12,2013           16647                           STODL    URRECT
000722: 12,2014           00045                                    36D
000723: 12,2015           24041                           STOVL    R1
000724: 12,2016           01503                                    RRECT
000725: 12,2017           76441                           DOT      SL1R
000726: 12,2020           01511                                    VRECT
000727: 12,2021           76405                           DMP      SL1R
000728: 12,2022           00023                                    1/ROOTMU                              #  1/ROOTMU (-17 OR -14)
000729: 12,2023           24043                           STOVL    KEPC1                                 #  C1=R.V/ROOTMU (+17 OR +16)
000730:
000731: 12,2024           01511                                    VRECT
000732: 12,2025           57236                           VSQ      DMPR
000733: 12,2026           00017                                    1/MU                                  #  1/MU (-34 OR -28)
000734: 12,2027           52405                           DMP      SL3
000735: 12,2030           00041                                    R1
000736: 12,2031           61425                           DSU      ROUND
000737: 12,2032           10756                                    D1/64
000738: 12,2033           00045                           STORE    KEPC2                                 #  C2=RV.V/MU -1 (+6)
000739:
000740: 12,2034           74421                           BDSU     SR1R
000741: 12,2035           10756                                    D1/64
000742: 12,2036           77671                           DDV
000743: 12,2037           00041                                    R1
000744: 12,2040           00011                           STORE    ALPHA                                 #  ALPHA=(1-C2)/R1 (-22 OR -20)
000745:
000746:
000747: 12,2041           71244                           BPL      DLOAD                                 #  MAXIMUM X DEPENDS ON TYPE OF CONIC
000748: 12,2042           24051                                    1REV
000749: 12,2043           10774                                    -50SC                                 #  -50SC (+12)
000750: 12,2044           40071                           DDV      BOV
000751: 12,2045           00011                                    ALPHA
000752: 12,2046           24055                                    STOREMAX
000753: 12,2047           52166                           SQRT     GOTO
000754: 12,2050           24055                                    STOREMAX
000755:


000757: 12,2051           55366        1REV               SQRT     BDDV
000758: 12,2052           10776                                    2PISC                                 #  2PISC (+6)
000759: 12,2053           77600                           BOV
000760: 12,2054           24055                                    STOREMAX
000761: 12,2055           00013        STOREMAX           STORE    XMAX
000762: 12,2056           65205                           DMP      PDDL
000763: 12,2057           00023                                    1/ROOTMU
000764: 12,2060           00011                                    ALPHA
000765: 12,2061           65301                           NORM     PDDL
000766: 12,2062           00047                                    X1
000767: 12,2063           56257                           SL*      DDV
000768: 12,2064           20173                                    0          -6,1
000769: 12,2065           50000                           BOV      BMN
000770: 12,2066           24112                                    MODDONE
000771: 12,2067           24112                                    MODDONE                               #  MPAC=PERIOD
000772: 12,2070           51525        PERIODCH           PDDL     ABS                                   #  0D=PERIOD
000773: 12,2071           02074                                    TAU.
000774: 12,2072           50025                           DSU      BMN
000775: 12,2073           00001                                    0D
000776: 12,2074           24112                                    MODDONE
000777: 12,2075           77765                           SIGN
000778: 12,2076           02074                                    TAU.
000779: 12,2077           16074                           STODL    TAU.
000780: 12,2100           00013                                    XMAX
000781: 12,2101           77615                           DAD
000782: 12,2102           02177                                    XMODULO
000783: 12,2103           16177                           STODL    XMODULO
000784: 12,2104           00001                                    0D
000785: 12,2105           77615                           DAD
000786: 12,2106           02201                                    TMODULO
000787: 12,2107           16201                           STODL    TMODULO
000788: 12,2110           77650                           GOTO
000789: 12,2111           24070                                    PERIODCH
000790: 12,2112           77601        MODDONE            SETPD
000791: 12,2113           00001                                    0
000792: 12,2114           75345                           DLOAD    SIGN
000793: 12,2115           02201                                    TMODULO
000794: 12,2116           02074                                    TAU.
000795: 12,2117           02201                           STORE    TMODULO
000796: 12,2120           75345                           DLOAD    SIGN
000797: 12,2121           02177                                    XMODULO
000798: 12,2122           02074                                    TAU.
000799: 12,2123           02177                           STORE    XMODULO
000800: 12,2124           77621                           BDSU
000801: 12,2125           02130                                    XKEPNEW
000802: 12,2126           00025                           STORE    X
000803: 12,2127           53165                           SIGN     BZE
000804: 12,2130           02074                                    TAU.
000805: 12,2131           24311                                    BADX
000806: 12,2132           51440                           BMN      ABS


000808: 12,2133           24311                                    BADX
000809: 12,2134           51025                           DSU      BPL
000810: 12,2135           00013                                    XMAX
000811: 12,2136           24311                                    BADX
000812: 12,2137           51145        STORBNDS           DLOAD    BPL
000813: 12,2140           02074                                    TAU.
000814: 12,2141           24151                                    STOREMIN
000815: 12,2142           57545                           DLOAD    DCOMP
000816: 12,2143           00013                                    XMAX
000817: 12,2144           14015                           STODL    XMIN
000818: 12,2145           22275                                    KEPZERO
000819: 12,2146           00013                           STORE    XMAX
000820: 12,2147           77650                           GOTO
000821: 12,2150           24154                                    DXCOMP
000822: 12,2151           77745        STOREMIN           DLOAD
000823: 12,2152           22275                                    KEPZERO
000824: 12,2153           00015                           STORE    XMIN
000825: 12,2154           57345        DXCOMP             DLOAD    DMPR
000826: 12,2155           02074                                    TAU.
000827: 12,2156           10767                                    BEE22
000828: 12,2157           77646                           ABS
000829: 12,2160           16203                           STODL    EPSILONT
000830: 12,2161           01551                                    TC
000831: 12,2162           45254                           BZE      DSU
000832: 12,2163           24165                                    NEWTC
000833: 12,2164           02201                                    TMODULO
000834: 12,2165           15551        NEWTC              STODL    TC
000835: 12,2166           01553                                    XPREV
000836: 12,2167           45254                           BZE      DSU
000837: 12,2170           24172                                    XDIFF
000838: 12,2171           02177                                    XMODULO
000839: 12,2172           77621        XDIFF              BDSU
000840: 12,2173           00025                                    X
000841: 12,2174           02643                           STORE    DELX
000842:
000843:
000844: 12,2175           63545        KEPLOOP            DLOAD    DSQ
000845: 12,2176           00025                                    X                                     #  X=XKEP
000846: 12,2177           41501                           NORM     PUSH                                  #  0D=XSQ (+34 OR +32 -N1)       PL AT 2
000847: 12,2200           00047                                    X1
000848: 12,2201           53605                           DMP      SRR*
000849: 12,2202           00011                                    ALPHA
000850: 12,2203           21573                                    0          -6,1
000851: 12,2204           34031                           STCALL   XI                                    #  XI=ALPHA XSQ (+6)
000852: 12,2205           24434                                    DELTIME
000853: 12,2206           44200                           BOV      BDSU
000854: 12,2207           24320                                    TIMEOVFL                              #  UNLIKELY
000855: 12,2210           02074                                    TAU.
000856: 12,2211           02645                           STORE    DELT                                  #  DELT=DELINDEP
000857: 12,2212           44246                           ABS      BDSU


000859: 12,2213           02203                                    EPSILONT
000860: 12,2214           71244                           BPL      DLOAD
000861: 12,2215           24342                                    KEPCONVG
000862: 12,2216           00037                                    T
000863: 12,2217           60225                           DSU      NORM
000864: 12,2220           01551                                    TC
000865: 12,2221           00047                                    X1
000866: 12,2222           60325                           PDDL     NORM
000867: 12,2223           02643                                    DELX
000868: 12,2224           00050                                    X2
000869: 12,2225           41260                           XSU,1    DMP
000870: 12,2226           00047                                    X2
000871: 12,2227           02645                                    DELT
000872: 12,2230           56257                           SLR*     DDV
000873: 12,2231           21202                                    1,1
000874: 12,2232           41542                           SR1      PUSH                                  #  0D=TRIAL DELX              PL AT 2
000875: 12,2233           71244                           BPL      DLOAD
000876: 12,2234           24255                                    POSDELX
000877: 12,2235           00025                                    X
000878: 12,2236           00013                           STORE    XMAX                                  #  MOVE MAX BOUND IN
000879: 12,2237           45221                           BDSU     DSU                                   #                             PL AT 0
000880: 12,2240           00015                                    XMIN
000881: 12,2241           51000                           BOV      BPL
000882: 12,2242           24247                                    NDXCHNGE
000883: 12,2243           24247                                    NDXCHNGE
000884: 12,2244           52145                           DLOAD    GOTO
000885: 12,2245           00001                                    0D
000886: 12,2246           24267                                    NEWDELX
000887:
000888:
000889: 12,2247           45345        NDXCHNGE           DLOAD    DSU
000890: 12,2250           00015                                    XMIN
000891: 12,2251           00025                                    X
000892: 12,2252           52075                           DMPR     GOTO                                  #  TO FORCE MPAC +2 TO ZERO
000893: 12,2253           10772                                    DP9/10
000894: 12,2254           24267                                    NEWDELX
000895:
000896:
000897: 12,2255           77745        POSDELX            DLOAD
000898: 12,2256           00025                                    X
000899: 12,2257           00015                           STORE    XMIN                                  #  MOVE MIN BOUND IN
000900: 12,2260           45221                           BDSU     DSU                                   #                             PL AT 0
000901: 12,2261           00013                                    XMAX
000902: 12,2262           50000                           BOV      BMN
000903: 12,2263           24303                                    PDXCHNGE
000904: 12,2264           24303                                    PDXCHNGE
000905: 12,2265           77745                           DLOAD
000906: 12,2266           00001                                    0D
000907: 12,2267           02643        NEWDELX            STORE    DELX
000908: 12,2270           43254                           BZE      DAD


000910: 12,2271           24342                                    KEPCONVG
000911: 12,2272           00025                                    X
000912: 12,2273           14025                           STODL    X
000913: 12,2274           00037                                    T
000914: 12,2275           01551                           STORE    TC
000915: 12,2276           46034        BRNCHCTR           RTB      BHIZ
000916: 12,2277           24657                                    CHECKCTR
000917: 12,2300           24342                                    KEPCONVG
000918: 12,2301           77650                           GOTO
000919: 12,2302           24175                                    KEPLOOP                               #  ITERATE
000920:
000921:
000922: 12,2303           45345        PDXCHNGE           DLOAD    DSU
000923: 12,2304           00013                                    XMAX
000924: 12,2305           00025                                    X
000925: 12,2306           52075                           DMPR     GOTO                                  #  TO FORCE MPAC +2 TO ZERO
000926: 12,2307           10772                                    DP9/10
000927: 12,2310           24267                                    NEWDELX
000928:
000929:
000930: 12,2311           70545        BADX               DLOAD    SR1
000931: 12,2312           00013                                    XMAX
000932: 12,2313           77765                           SIGN
000933: 12,2314           02074                                    TAU.
000934: 12,2315           00025                           STORE    X
000935: 12,2316           77650                           GOTO
000936: 12,2317           24137                                    STORBNDS
000937: 12,2320           50145        TIMEOVFL           DLOAD    BMN                                   #  X WAS TOO BIG
000938: 12,2321           00025                                    X
000939: 12,2322           24337                                    NEGTOVFL
000940: 12,2323           00013                           STORE    XMAX
000941: 12,2324           70545        CMNTOVFL           DLOAD    SR1
000942: 12,2325           02643                                    DELX
000943: 12,2326           02643                           STORE    DELX
000944: 12,2327           44254                           BZE      BDSU
000945: 12,2330           02112                                    KEPRTN
000946: 12,2331           00025                                    X
000947: 12,2332           14025                           STODL    X
000948: 12,2333           01551                                    TC
000949: 12,2334           00037                           STORE    T
000950: 12,2335           77650                           GOTO
000951: 12,2336           24276                                    BRNCHCTR
000952: 12,2337           00015        NEGTOVFL           STORE    XMIN
000953: 12,2340           77650                           GOTO
000954: 12,2341           24324                                    CMNTOVFL
000955: 12,2342           44545        KEPCONVG           DLOAD    SR4R
000956: 12,2343           00041                                    R1
000957: 12,2344           74225                           DSU      VXSC
000958: 12,2345           00035                                    XSQC(XI)
000959: 12,2346           02647                                    URRECT


000961: 12,2347           65372                           VSL1     PDDL                                  #  0D=(R1-XSQC(XI))URRECT (+33 OR +31)
000962: 12,2350           00025                                    X
000963: 12,2351           60316                           DSQ      NORM
000964: 12,2352           00047                                    X1
000965: 12,2353           57275                           DMPR     DMPR
000966: 12,2354           00023                                    1/ROOTMU
000967: 12,2355           00025                                    X
000968: 12,2356           53605                           DMP      SRR*
000969: 12,2357           00033                                    S(XI)
000970: 12,2360           21572                                    0          -7,1
000971: 12,2361           77621                           BDSU
000972: 12,2362           00037                                    T
000973: 12,2363           74352                           SL1      VXSC
000974: 12,2364           01511                                    VRECT
000975: 12,2365           53372                           VSL1     VAD                                   #                               PL AT 0
000976: 12,2366           77712                           VSL4
000977: 12,2367           01535                           STORE    RCV                                   #  RCV (+29 OR +27)
000978:
000979:
000980: 12,2370           60246                           ABVAL    NORM
000981: 12,2371           00050                                    X2
000982: 12,2372           14043                           STODL    RCNORM
000983: 12,2373           00031                                    XI
000984: 12,2374           45275                           DMPR     DSU
000985: 12,2375           00033                                    S(XI)
000986: 12,2376           10754                                    D1/128
000987: 12,2377           76405                           DMP      SL1R
000988: 12,2400           00021                                    ROOTMU
000989: 12,2401           53605                           DMP      SLR*
000990: 12,2402           00025                                    X
000991: 12,2403           56601                                    0          -3,2
000992: 12,2404           74271                           DDV      VXSC
000993: 12,2405           00043                                    RCNORM
000994: 12,2406           02647                                    URRECT
000995: 12,2407           65372                           VSL1     PDDL                                  #  0D=URRECT(XI S(XI)-1)X ROOTMU/RCV (+15
000996: 12,2410           00035                                    XSQC(XI)                              #  OR +13)                        PL AT 6
000997: 12,2411           56257                           SLR*     DDV
000998: 12,2412           56602                                    0          -4,2
000999: 12,2413           00043                                    RCNORM
001000: 12,2414           74221                           BDSU     VXSC
001001: 12,2415           10770                                    D1/256
001002: 12,2416           01511                                    VRECT
001003: 12,2417           42455                           VAD      VSL8
001004: 12,2420           77626                           STADR                                          #                               PL AT 0
001005: 12,2421           62234                           STODL    VCV                                   #  VCV (+7 OR +5)
001006: 12,2422           00037                                    T
001007: 12,2423           77615                           DAD
001008: 12,2424           02201                                    TMODULO
001009: 12,2425           15551                           STODL    TC
001010: 12,2426           00025                                    X


001012: 12,2427           77615                           DAD
001013: 12,2430           02177                                    XMODULO
001014: 12,2431           01553                           STORE    XPREV
001015: 12,2432           77650                           GOTO
001016: 12,2433           02112                                    KEPRTN
001017:


001019: 12,2434           77776        DELTIME            EXIT                                           #  MPAC=XI (+6), 0D=XSQ (+34 OR +32 -N1)
001020: 12,2435           07221                           TC       POLY
001021: 12,2436           00010                           DEC      8          B-14
001022: 12,2437           02525 12526                     2DEC     .083333334
001023:
001024: 12,2441           67356 75666                     2DEC     -.266666684
001025:
001026: 12,2443           15001 23771                     2DEC     .406349155
001027:
001028: 12,2445           64342 43674                     2DEC     -.361198675
001029:
001030: 12,2447           06563 04645                     2DEC     .210153242
001031:
001032: 12,2451           75173 52672                     2DEC     -.086221951
001033:
001034: 12,2453           00656 14331                     2DEC     .026268812
001035:
001036: 12,2455           77633 40512                     2DEC     -.006163316
001037:
001038: 12,2457           00023 11210                     2DEC     .001177342
001039:
001040: 12,2461           77774 67506                     2DEC     -.000199055
001041:
001042: 12,2463           06036                           TC       INTPRET
001043: 12,2464           14033                           STODL    S(XI)
001044: 12,2465           00031                                    XI
001045: 12,2466           77776                           EXIT
001046: 12,2467           07221                           TC       POLY
001047: 12,2470           00010                           DEC      8          B-14
001048: 12,2471           01000 00000                     2DEC     .031250001
001049:
001050: 12,2473           72525 52506                     2DEC     -.166666719
001051:
001052: 12,2475           13301 15337                     2DEC     .355555413
001053:
001054: 12,2477           62776 54733                     2DEC     -.406347410
001055:
001056: 12,2501           11176 13267                     2DEC     .288962094
001057:
001058: 12,2503           73410 51674                     2DEC     -.140117894
001059:
001060: 12,2505           01446 33641                     2DEC     .049247387
001061:
001062: 12,2507           77451 65233                     2DEC     -.013081923
001063:
001064: 12,2511           00055 37266                     2DEC     .002806389
001065:
001066: 12,2513           77767 52336                     2DEC     -.000529414
001067:
001068: 12,2515           06036                           TC       INTPRET


001070: 12,2516           53605                           DMP      SRR*                                  #                               PL AT 0
001071: 12,2517           00001                                    0D
001072: 12,2520           21574                                    0          -5,1
001073: 12,2521           00035                           STORE    XSQC(XI)                              #  XSQC(XI) (+33 OR +31)
001074: 12,2522           72405                           DMP      SL1
001075: 12,2523           00043                                    KEPC1
001076: 12,2524           65234                           RTB      PDDL                                  #  XCH WITH PL. 0D=C1 XSQ C(XI) (+49 OR +46
001077: 12,2525           21537                                    TPMODE                                #                               PL AT 0,3
001078: 12,2526           53605                           DMP      SRR*
001079: 12,2527           00033                                    S(XI)
001080: 12,2530           21574                                    0          -5,1
001081: 12,2531           72405                           DMP      SL1
001082: 12,2532           00045                                    KEPC2
001083: 12,2533           65234                           RTB      PDDL                                  #  3D=C2 XSQ S(XI) (+35 OR +33)  PL AT 6
001084: 12,2534           21537                                    TPMODE
001085: 12,2535           00041                                    R1
001086: 12,2536           76261                           SR       TAD                                   #                               PL AT 3
001087: 12,2537           20607                                    6
001088: 12,2540           41301                           NORM     DMP                                   #  TO PRESERVE SIGNIF.
001089: 12,2541           00047                                    X1
001090: 12,2542           00025                                    X
001091: 12,2543           76257                           SR*      TAD                                   #  X(C2 XSQ S(XI) +R1) (+49 OR +46) PL AT 0
001092: 12,2544           20576                                    0          -3,1
001093: 12,2545           57232                           SL4R     DMPR
001094: 12,2546           00023                                    1/ROOTMU
001095: 12,2547           00037                           STORE    T
001096: 12,2550           77616                           RVQ
001097:


001099: 12,2551           71214        ITERATOR           BONCLR   DLOAD
001100: 12,2552           00614                                    SLOPESW
001101: 12,2553           24621                                    FIRSTIME
001102: 12,2554           00037                                    DEP
001103: 12,2555           60225                           DSU      NORM
001104: 12,2556           02762                                    DEPREV
001105: 12,2557           00047                                    X1
001106: 12,2560           60325                           PDDL     NORM
001107: 12,2561           00015                                    DELINDEP
001108: 12,2562           00050                                    X2
001109: 12,2563           41260                           XSU,1    DMP
001110: 12,2564           00047                                    X2
001111: 12,2565           02760                                    DELDEP
001112: 12,2566           56257                           SLR*     DDV                                   #                               PL UP 2
001113: 12,2567           21202                                    1,1
001114: 12,2570           43142                           SR1      BOFF
001115: 12,2571           04351                                    ORDERSW
001116: 12,2572           24575                                    SGNCHECK
001117: 12,2573           75246                           ABS      SIGN                                  #  IN CASE 2ND DERIV. CHANGED SIGN, MUST
001118: 12,2574           02760                                    DELDEP                                #  DISREGARD IT TO FIND MIN.
001119:
001120: 12,2575           51006        SGNCHECK           PUSH     BPL                                   #  TRIAL DELINDEP               PL DOWN 2
001121: 12,2576           24633                                    POSDEL
001122: 12,2577           43145                           DLOAD    BON
001123: 12,2600           02766                                    INDEP
001124: 12,2601           04311                                    ORDERSW
001125: 12,2602           24604                                    MINCHECK
001126: 12,2603           00017                           STORE    MAX                                   #  IF NOT 2ND ORDER, CAN MOVE MAX BOUND IN.
001127:
001128: 12,2604           45221        MINCHECK           BDSU     DSU
001129: 12,2605           00011                                    MIN
001130: 12,2606           51000                           BOV      BPL
001131: 12,2607           24613                                    MODNGDEL
001132: 12,2610           24613                                    MODNGDEL
001133: 12,2611           77650                           GOTO
001134: 12,2612           24645                                    DELOK
001135:
001136:
001137: 12,2613           45345        MODNGDEL           DLOAD    DSU                                   #  TRIAL DELINDEP WOULD EXCEED MIN BOUND
001138: 12,2614           00011                                    MIN
001139: 12,2615           02766                                    INDEP
001140: 12,2616           52005                           DMP      GOTO
001141: 12,2617           10772                                    DP9/10
001142: 12,2620           24647                                    NEWDEL
001143:
001144:
001145: 12,2621           41345        FIRSTIME           DLOAD    DMP
001146: 12,2622           00011                                    MIN
001147: 12,2623           00051                                    TWEEKIT                               #  DLOAD TWEEKIT(40D) SENSITIVE TO CHANGE.
001148: 12,2624           41325                           PDDL     DMP                                   #  S2(41D) SHOULDNT CONTAIN HI ORDER ONES


001150: 12,2625           00017                                    MAX
001151: 12,2626           00051                                    TWEEKIT
001152: 12,2627           77625                           DSU
001153: 12,2630           52165                           SIGN     GOTO
001154: 12,2631           02760                                    DELDEP
001155: 12,2632           24575                                    SGNCHECK
001156:
001157:
001158: 12,2633           43145        POSDEL             DLOAD    BON
001159: 12,2634           02766                                    INDEP
001160: 12,2635           04311                                    ORDERSW
001161: 12,2636           24640                                    MAXCHECK
001162: 12,2637           00011                           STORE    MIN                                   #  IF NOT 2ND ORDER, CAN MOVE MIN BOUND IN.
001163:
001164: 12,2640           45221        MAXCHECK           BDSU     DSU
001165: 12,2641           00017                                    MAX
001166: 12,2642           50000                           BOV      BMN
001167: 12,2643           24651                                    MODPSDEL
001168: 12,2644           24651                                    MODPSDEL
001169: 12,2645           77745        DELOK              DLOAD
001170: 12,2646           00001                                    0D
001171: 12,2647           00015        NEWDEL             STORE    DELINDEP
001172: 12,2650           77616                           RVQ
001173:
001174:
001175: 12,2651           45345        MODPSDEL           DLOAD    DSU
001176: 12,2652           00017                                    MAX
001177: 12,2653           02766                                    INDEP
001178: 12,2654           52005                           DMP      GOTO
001179: 12,2655           10772                                    DP9/10
001180: 12,2656           24647                                    NEWDEL
001181:
001182:
001183: 12,2657           44753        CHECKCTR           CS       ONE
001184: 12,2660           50120                           INDEX    FIXLOC
001185: 12,2661           60026                           AD       ITERCTR
001186: 12,2662           50120                           INDEX    FIXLOC
001187: 12,2663           54026                           TS       ITERCTR
001188: 12,2664           54154                           TS       MPAC
001189: 12,2665           06060                           TC       DANZIG
001190:


001192: 12,2666           44545        NEWSTATE           DLOAD    SR4R
001193: 12,2667           00041                                    R1
001194: 12,2670           74225                           DSU      VXSC
001195: 12,2671           00035                                    XSQC(XI)
001196: 12,2672           02722                                    UR1
001197: 12,2673           65372                           VSL1     PDDL                                  #  0D=(R1-XSQC(XI))UR1 (+33 OR 31) PL AT 6
001198: 12,2674           00025                                    X
001199: 12,2675           60316                           DSQ      NORM
001200: 12,2676           00047                                    X1
001201: 12,2677           57275                           DMPR     DMPR
001202: 12,2700           00023                                    1/ROOTMU
001203: 12,2701           00025                                    X
001204: 12,2702           53605                           DMP      SRR*
001205: 12,2703           00033                                    S(XI)
001206: 12,2704           21572                                    0          -7,1
001207: 12,2705           77621                           BDSU
001208: 12,2706           00037                                    T
001209: 12,2707           74352                           SL1      VXSC
001210: 12,2710           02744                                    VVEC
001211: 12,2711           53372                           VSL1     VAD                                   #                               PL AT 0
001212: 12,2712           41512                           VSL4     PUSH
001213: 12,2713           77646                           ABVAL
001214: 12,2714           77701        LAMENTER           NORM
001215: 12,2715           00047                                    X1
001216: 12,2716           16720                           STODL    R2
001217: 12,2717           00031                                    XI
001218: 12,2720           45205                           DMP      DSU
001219: 12,2721           00033                                    S(XI)
001220: 12,2722           10754                                    D1/128
001221: 12,2723           76405                           DMP      SL1R
001222: 12,2724           00021                                    ROOTMU
001223: 12,2725           53605                           DMP      SLR*
001224: 12,2726           00025                                    X
001225: 12,2727           21176                                    0          -3,1
001226: 12,2730           74271                           DDV      VXSC
001227: 12,2731           02720                                    R2
001228: 12,2732           02722                                    UR1
001229: 12,2733           65372                           VSL1     PDDL                                  #  6D=V2VEC PART (+15 OR 13)       PL AT 12
001230: 12,2734           00035                                    XSQC(XI)
001231: 12,2735           56257                           SLR*     DDV
001232: 12,2736           21175                                    0          -4,1
001233: 12,2737           02720                                    R2
001234: 12,2740           77621                           BDSU
001235: 12,2741           10770                                    D1/256
001236: 12,2742           53361                           VXSC     VAD                                   #                               PL AT 6
001237: 12,2743           02744                                    VVEC
001238: 12,2744           43412                           VSL8     RVQ
001239:


001241: 04,2000                                           SETLOC   CONICS1
001242: 04,2000                                           BANK
001243:
001244: 04,2750                                           COUNT*   $$/CONIC
001245:                                                                                                  #  DO NOT DISTURB THE ORDER OF THESE CDS, OVERLAYS HAVE BEEN MADE.
001246: 04,2750           00000        BEE17              DEC      0          B-14                       #  KEEP WITH D1/8 2DEC 1.0B-17 (0000004000)
001247: 04,2751           04000 00000  D1/8               2DEC     1.0        B-3
001248:
001249: 04,2753           00200 00000  D1/128             2DEC     1.0        B-7
001250:
001251: 04,2755           00400 00000  D1/64              2DEC     1.0        B-6
001252:
001253: 04,2757           10000 00000  D1/4               2DEC     1.0        B-2
001254:
001255: 04,2761           02000 00000  D1/16              2DEC     1.0        B-4
001256:
001257: 04,2763           01000 00000  D1/32              2DEC     1.0        B-5
001258:
001259: 04,2765           00020 00000  D1/1024            2DEC     1.0        B-10
001260:
001261: 04,2767           00100 00000  D1/256             2DEC     1.0        B-8
001262:
001263: 04,2771           34631 23146  DP9/10             2DEC     .9
001264:
001265: 04,2773  11,2274               KEPZERO            EQUALS   LO6ZEROS
001266: 04,2773           77467 77777  -50SC              2DEC     -50.0      B-12
001267:
001268: 04,2775           03110 17665  2PISC              2DEC     6.28318530 B-6
001269:
001270: 04,2777  04,2762               BEE19              EQUALS   D1/32      -1                         #  2DEC 1.0 B-19 (00000 01000)
001271: 04,2777  04,2766               BEE22              EQUALS   D1/256     -1                         #  2DEC 1.0 B-22 (00000 00100)
001272: 04,2777           00000 00001  ONEBIT             2DEC     1.0        B-28
001273:
001274: 04,3001           37767 37737  COGUPLIM           2DEC     .999511597
001275:
001276: 04,3003           40010 40040  COGLOLIM           2DEC     -.999511597
001277:
001278:


001280: 12,2000                                           SETLOC   CONICS
001281: 12,2000                                           BANK
001282:
001283: 12,2745                                           COUNT*   $$/CONIC
001284: 12,2745           40220        TIMETHET           STQ      SETPD                                 #                                PL AT 0
001285: 12,2746           02710                                    RTNTT
001286: 12,2747           00001                                    0
001287: 12,2750           63375                           VLOAD    PDVL                                  #  SETUP FOR PARAM CALL          PL AT 6
001288: 12,2751           02655                                    RVEC
001289: 12,2752           02744                                    VVEC
001290: 12,2753           77624                           CALL
001291: 12,2754           11005                                    PARAM
001292: 12,2755           45000                           BOV      CALL                                  #                                PL AT 0
001293: 12,2756           24775                                    COGAOVFL
001294: 12,2757           25000                                    GETX
001295: 12,2760           43145        COMMNOUT           DLOAD    BON
001296: 12,2761           00031                                    XI
001297: 12,2762           04310                                    INFINFLG
001298: 12,2763           02710                                    RTNTT
001299: 12,2764           45014                           CLEAR    CALL
001300: 12,2765           04273                                    COGAFLAG
001301: 12,2766           24434                                    DELTIME
001302: 12,2767           45014                           BON      CALL
001303: 12,2770           03706                                    RVSW
001304: 12,2771           02710                                    RTNTT
001305: 12,2772           24666                                    NEWSTATE
001306: 12,2773           77650                           GOTO
001307: 12,2774           02710                                    RTNTT
001308:
001309:
001310: 12,2775           77614        COGAOVFL           SETGO
001311: 12,2776           04033                                    COGAFLAG
001312: 12,2777           02710                                    RTNTT
001313:


001315: 04,3005                                           BANK     4
001316: 04,2000                                           SETLOC   CONICS1
001317: 04,2000                                           BANK
001318: 04,3005                                           COUNT*   $$/CONIC
001319: 04,3005           43020        PARAM              STQ      CLEAR                                 #  MPAC=V1VEC, 0D=R1VEC         PL AT 6
001320: 04,3006           02753                                    RTNPRM
001321: 04,3007           03665                                    NORMSW
001322: 04,3010           77614                           CLEAR
001323: 04,3011           04273                                    COGAFLAG
001324: 04,3012           45131                           SSP      CALL
001325: 04,3013           02673                                    GEOMSGN
001326: 04,3014           27777                                    37777                                 #  GAMMA ALWAYS LESS THAN 180DEG
001327: 04,3015           11051                                    GEOM                                  #  MPAC=SNGA (+1), 0D=CSGA (+1) PL AT 2
001328: 04,3016           14045                           STODL    36D                                   #  36D=SIN GAMMA (+1)           PL AT 0
001329: 04,3017           56261                           SR       DDV
001330: 04,3020           20606                                    5
001331:
001332: 04,3021           00045                                    36D
001333: 04,3022           32766                           STOVL*   COGA
001334: 04,3023           10005                                    MUTABLE,1
001335: 04,3024           14017                           STODL    1/MU
001336: 04,3025           02720                                    MAGVEC2
001337: 04,3026           60316                           DSQ      NORM
001338: 04,3027           00047                                    X1
001339: 04,3030           41275                           DMPR     DMP
001340: 04,3031           00017                                    1/MU
001341: 04,3032           00041                                    R1
001342: 04,3033           77657                           SRR*
001343: 04,3034           21576                                    0          -3,1
001344: 04,3035           44206                           PUSH     BDSU                                  #  0D=R1 V1SQ/MU (+6)           PL AT 2
001345: 04,3036           10764                                    D1/32
001346: 04,3037           16742                           STODL    R1A                                   #  R1A (+6)                     PL AT 0
001347:
001348: 04,3040           60205                           DMP      NORM
001349: 04,3041           00045                                    36D
001350: 04,3042           00047                                    X1
001351: 04,3043           53605                           DMP      SR*
001352: 04,3044           00045                                    36D
001353: 04,3045           20575                                    0          -4,1
001354: 04,3046           02740                           STORE    P                                     #  P (+4)
001355: 04,3047           77650                           GOTO
001356: 04,3050           02753                                    RTNPRM
001357:


001359: 04,3051           77656        GEOM               UNIT                                           #  MPAC=V2VEC, 0D=R1VEC         PL AT 6
001360: 04,3052           16712                           STODL    U2                                    #  U2 (+1)
001361: 04,3053           00045                                    36D
001362: 04,3054           26720                           STOVL    MAGVEC2                               #                               PL AT 0
001363: 04,3055           77656                           UNIT
001364: 04,3056           02722                           STORE    UR1                                   #  UR1 (+1)
001365: 04,3057           72441                           DOT      SL1
001366: 04,3060           02712                                    U2
001367: 04,3061           77725                           PDDL                                           #  OD=CSTH (+1)                 PL AT 2
001368: 04,3062           00045                                    36D
001369: 04,3063           24041                           STOVL    R1                                    #  R1 (+29 OR +27)
001370: 04,3064           02722                                    UR1
001371: 04,3065           76435                           VXV      VSL1
001372: 04,3066           02712                                    U2
001373: 04,3067           75214                           BON      SIGN
001374: 04,3070           03705                                    NORMSW
001375: 04,3071           11103                                    HAVENORM
001376: 04,3072           02673                                    GEOMSGN
001377: 04,3073           40056                           UNIT     BOV
001378: 04,3074           11101                                    COLINEAR
001379: 04,3075           16674        UNITNORM           STODL    UN                                    #  UN (+1)
001380: 04,3076           00045                                    36D
001381: 04,3077           43565                           SIGN     RVQ                                   #  MPAC=SNTH (+1), 34D=SNTH.SNTH (+2)
001382: 04,3100           02673                                    GEOMSGN
001383:
001384:
001385: 04,3101           52162        COLINEAR           VSR1     GOTO
001386: 04,3102           11075                                    UNITNORM
001387:
001388:
001389: 04,3103           75246        HAVENORM           ABVAL    SIGN
001390: 04,3104           02673                                    GEOMSGN
001391: 04,3105           77616                           RVQ                                            #  MPAC=SNTH (+1), 34D=SNTH.SNTH (+2)
001392:


001394: 12,3000                                           BANK     12
001395: 12,2000                                           SETLOC   CONICS
001396: 12,2000                                           BANK
001397:
001398: 12,3000                                           COUNT*   $$/CONIC
001399: 12,3000           66374        GETX               AXT,2    SSP                                   #  ASSUMES P (+4) IN MPAC
001400: 12,3001           00003                                    3
001401: 12,3002           00052                                    S2
001402: 12,3003           00001                                    1
001403: 12,3004           77614                           CLEAR
001404: 12,3005           04276                                    360SW
001405: 12,3006           65366                           SQRT     PDDL                                  #  0D=SQRT(P)                        PL AT 2
001406: 12,3007           02732                                    CSTH
001407: 12,3010           44342                           SR1      BDSU
001408: 12,3011           10760                                    D1/4
001409: 12,3012           54325                           PDDL     SRR                                   #                                PL AT 4D
001410: 12,3013           02730                                    SNTH
001411: 12,3014           21607                                    6
001412: 12,3015           77671                           DDV                                            #                                PL AT 2
001413: 12,3016           77600                           BOV
001414: 12,3017           25133                                    360CHECK
001415: 12,3020           41225                           DSU      DMP
001416: 12,3021           02766                                    COGA                                  #                                    PL AT 0
001417: 12,3022           40132                           SL2R     BOV
001418: 12,3023           25133                                    360CHECK
001419: 12,3024           63406        WLOOP              PUSH     DSQ                                   #  0D=W (+5)                         PL AT 2
001420: 12,3025           65351                           TLOAD    PDDL                                  #  2D=WSQ (+10)                      PL AT 5
001421: 12,3026           00155                                    MPAC
001422: 12,3027           02742                                    R1A
001423: 12,3030           76202                           SR4      TAD                                   #                                PL AT 2
001424: 12,3031           75440                           BMN      SQRT
001425: 12,3032           25216                                    INFINITY
001426: 12,3033           43306                           ROUND    DAD                                   #                                PL AT 0D
001427: 12,3034           61000                           BOV      TIX,2
001428: 12,3035           25131                                    RESETX2
001429: 12,3036           25024                                    WLOOP
001430:
001431:
001432: 12,3037           40065                           BDDV     BOV
001433: 12,3040           10754                                    D1/128
001434: 12,3041           25216                                    INFINITY
001435: 12,3042           41440        POLYCOEF           BMN      PUSH                                  #  0D=1/W (+2) OR 16/W (+6)      PL AT 2
001436: 12,3043           25216                                    INFINITY
001437: 12,3044           77716                           DSQ
001438: 12,3045           41301                           NORM     DMP
001439: 12,3046           00047                                    X1
001440: 12,3047           02742                                    R1A
001441: 12,3050           77457                           SRR*     EXIT
001442: 12,3051           21567                                    0          -10D,1
001443: 12,3052           07221                           TC       POLY


001445: 12,3053           00005                           DEC      5          B-14
001446: 12,3054           20000 00000                     2DEC     .5
001447:
001448: 12,3056           72525 52471                     2DEC     -.166666770
001449:
001450: 12,3060           03146 15003                     2DEC     .100000392
001451:
001452: 12,3062           75556 45210                     2DEC     -.071401086
001453:
001454: 12,3064           01615 13553                     2DEC     .055503292
001455:
001456: 12,3066           76371 63777                     2DEC     -.047264098
001457:
001458: 12,3070           01232 27367                     2DEC     .040694204
001459:
001460: 12,3072           06036                           TC       INTPRET
001461: 12,3073           76405                           DMP      SL1R                                  #                                PL AT 0D
001462: 12,3074           43006                           PUSH     BON
001463: 12,3075           04316                                    360SW
001464: 12,3076           25203                                    TRUE360X
001465: 12,3077           60316        XCOMMON            DSQ      NORM
001466: 12,3100           00047                                    X1
001467: 12,3101           53605                           DMP      SRR*
001468: 12,3102           02742                                    R1A
001469: 12,3103           21565                                    0          -12D,1
001470: 12,3104           14031                           STODL    XI                                    #  XI (+6)
001471:
001472:
001473: 12,3105           00041                                    R1
001474: 12,3106           75542                           SR1      SQRT
001475: 12,3107           41306                           ROUND    DMP
001476: 12,3110           77632                           SL4R                                           #                                PL AT 0
001477: 12,3111           00025                           STORE    X                                     #  X (+17 OR +16)
001478:
001479:
001480: 12,3112           60316                           DSQ      NORM
001481: 12,3113           00047                                    X1
001482: 12,3114           41325                           PDDL     DMP                                   #  0D=XSQ (+34 OR +32 -N1)       PL AT 2
001483: 12,3115           02740                                    P
001484: 12,3116           00041                                    R1
001485: 12,3117           75452                           SL3      SQRT
001486: 12,3120           56405                           DMP      SL3R
001487: 12,3121           02766                                    COGA
001488: 12,3122           14043                           STODL    KEPC1
001489: 12,3123           02742                                    R1A
001490: 12,3124           43021                           BDSU     CLEAR
001491: 12,3125           10756                                    D1/64
001492: 12,3126           04270                                    INFINFLG
001493: 12,3127           00045                           STORE    KEPC2
001494: 12,3130           77616                           RVQ
001495:


001497: 12,3131           77774        RESETX2            AXT,2
001498: 12,3132           00003                                    3
001499:
001500:
001501: 12,3133           51001        360CHECK           SETPD    BPL
001502: 12,3134           00001                                    0D
001503: 12,3135           25140                                    INVRSEQN
001504: 12,3136           77614                           SET
001505: 12,3137           04076                                    360SW
001506:
001507:
001508: 12,3140           75545        INVRSEQN           DLOAD    SQRT
001509: 12,3141           02740                                    P
001510: 12,3142           41325                           PDDL     DMP                                   #  0D=SQRT(P) (+2)                   PL AT 2
001511: 12,3143           02730                                    SNTH
001512: 12,3144           02766                                    COGA
001513: 12,3145           65352                           SL1      PDDL                                  #  2D=SNTH COGA (+5)                 PL AT 4
001514: 12,3146           02732                                    CSTH
001515: 12,3147           43202                           SR4      DAD
001516: 12,3150           10764                                    D1/32
001517: 12,3151           41225                           DSU      DMP                                   #                               PL AT 2,0
001518: 12,3152           55301                           NORM     BDDV
001519: 12,3153           00047                                    X1
001520: 12,3154           02730                                    SNTH
001521: 12,3155           51457                           SLR*     ABS                                   #  NOTE: NEAR 360 CASE TREATED DIFFERENTLY
001522: 12,3156           21174                                    0          -5,1
001523: 12,3157           63406                           PUSH     DSQ                                   #  0D=1/W (-1)                  PL AT 2
001524: 12,3160           14043                           STODL    34D
001525: 12,3161           10762                                    D1/16
001526: 12,3162           63406        1/WLOOP            PUSH     DSQ                                   #  2D=G (+4)                        PL AT 4
001527: 12,3163           65234                           RTB      PDDL                                  #                               PL AT 7
001528: 12,3164           21537                                    TPMODE
001529: 12,3165           02742                                    R1A
001530: 12,3166           40405                           DMP      SR4
001531: 12,3167           00043                                    34D
001532: 12,3170           77771                           TAD                                            #                                   PL AT 4
001533: 12,3171           75440                           BMN      SQRT
001534: 12,3172           25216                                    INFINITY
001535: 12,3173           77615                           DAD                                            #                               PL AT 2
001536: 12,3174           60304                           TIX,2    NORM
001537: 12,3175           25162                                    1/WLOOP
001538: 12,3176           00047                                    X1
001539: 12,3177           77665                           BDDV
001540: 12,3200           52057                           SLR*     GOTO                                  #                                   PL AT 0
001541: 12,3201           21172                                    0          -7,1
001542: 12,3202           25042                                    POLYCOEF
001543:
001544:
001545: 12,3203           50145        TRUE360X           DLOAD    BMN
001546: 12,3204           02742                                    R1A


001548: 12,3205           25216                                    INFINITY
001549: 12,3206           60366                           SQRT     NORM
001550: 12,3207           00047                                    X1
001551: 12,3210           53665                           BDDV     SL*
001552: 12,3211           10776                                    2PISC
001553: 12,3212           20176                                    0          -3,1
001554: 12,3213           41425                           DSU      PUSH                                  #  0D=2PI/SQRT(R1A) -X          PL AT 0,2
001555: 12,3214           77650                           GOTO
001556: 12,3215           25077                                    XCOMMON
001557: 12,3216           40001        INFINITY           SETPD    BOV                                   #  NO SOLUTION EXISTS SINCE CLOSURE THROUGH
001558: 12,3217           00001                                    0                                     #  INFINITY IS REQUIRED
001559: 12,3220           25221                                    OVFLCLR
001560: 12,3221           43414        OVFLCLR            SET      RVQ
001561: 12,3222           04070                                    INFINFLG
001562:


001564: 12,3223           40220        LAMBERT            STQ      SETPD
001565: 12,3224           02710                                    RTNLAMB
001566: 12,3225           00001                                    0D
001567: 12,3226           76614                           CLEAR    VLOAD*
001568: 12,3227           02674                                    SOLNSW
001569: 12,3230           10005                                    MUTABLE,1
001570: 12,3231           14017                           STODL    1/MU
001571: 12,3232           02671                                    TDESIRED
001572: 12,3233           77675                           DMPR
001573: 12,3234           10763                                    BEE19
001574: 12,3235           02764                           STORE    EPSILONL
001575: 12,3236           77214                           SET      VLOAD
001576: 12,3237           00474                                    SLOPESW
001577: 12,3240           02655                                    R1VEC
001578: 12,3241           45115                           PDVL     CALL                                  #  0D=R1VEC (+29 OR +27)        PL AT 6
001579: 12,3242           02663                                    R2VEC                                 #  MPAC=R2VEC (+29 OR +27)
001580: 12,3243           11051                                    GEOM
001581: 12,3244           16730                           STODL    SNTH                                  #  0D=CSTH (+1)                 PL AT 2
001582: 12,3245           02720                                    MAGVEC2
001583: 12,3246           65301                           NORM     PDDL                                  #                               PL AT 4
001584: 12,3247           00047                                    X1
001585: 12,3250           00041                                    R1
001586: 12,3251           56342                           SR1      DDV                                   #                               PL AT 2
001587: 12,3252           65257                           SL*      PDDL                                  #  DXCH WITH 0D, 0D=R1/R2 (+7)  PL AT 0,2
001588: 12,3253           20173                                    0          -6,1
001589: 12,3254           77626                           STADR
001590: 12,3255           75045                           STORE    CSTH                                  #  CSTH (+1)
001591: 12,3256           44342                           SR1      BDSU
001592: 12,3257           10760                                    D1/4
001593: 12,3260           02734                           STORE    1-CSTH                                #  1-CSTH (+2)
001594:
001595: 12,3261           53106                           ROUND    BZE
001596: 12,3262           25472                                    360LAMB
001597: 12,3263           65301                           NORM     PDDL                                  #                               PL AT 4
001598: 12,3264           00047                                    X1
001599: 12,3265           00001                                    0D
001600: 12,3266           56342                           SR1      DDV                                   #                               PL AT 2
001601: 12,3267           75457                           SL*      SQRT
001602: 12,3270           20176                                    0          -3,1
001603: 12,3271           54325                           PDDL     SR                                    #  2D=SQRT(2R1/R2(1-CSTH)) (+5) PL AT 4
001604: 12,3272           02730                                    SNTH
001605: 12,3273           20607                                    6
001606: 12,3274           43271                           DDV      DAD                                   #                               PL AT 2
001607: 12,3275           02734                                    1-CSTH
001608: 12,3276           77626                           STADR
001609: 12,3277           77760                           STORE    COGAMAX
001610: 12,3300           50000                           BOV      BMN                                   #  IF OVFL, COGAMAX=COGUPLIM
001611: 12,3301           25306                                    UPLIM                                 #  IF NEG, USE EVEN IF LT COGLOLIM, SINCE
001612: 12,3302           25311                                    MAXCOGA                               #    THIS WOULD BE RESET IN LAMBLOOP
001613: 12,3303           50025                           DSU      BMN                                   #  IF COGAMAX GT COGUPLIM, COGAMAX=COGUPLIM


001615: 12,3304           11002                                    COGUPLIM
001616: 12,3305           25311                                    MAXCOGA                               #  OTHERWISE OK, SO GO TO MAXCOGA
001617: 12,3306           77745        UPLIM              DLOAD
001618: 12,3307           11002                                    COGUPLIM                              #  COGUPLIM=.999511597 = MAX VALUE OF COGA
001619: 12,3310           00017                           STORE    COGAMAX                               #    NOT CAUSING OVFL IN R1A CALCULATION
001620: 12,3311           77745        MAXCOGA            DLOAD
001621: 12,3312           02732                                    CSTH
001622: 12,3313           45261                           SR       DSU                                   #                               PL AT 0
001623: 12,3314           20607                                    6
001624: 12,3315           77626                           STADR
001625: 12,3316           61041                           STODL    CSTH-RHO
001626: 12,3317           02673                                    GEOMSGN
001627: 12,3320           71240                           BMN      DLOAD
001628: 12,3321           25512                                    LOLIM
001629: 12,3322           02736                                    CSTH-RHO
001630: 12,3323           56352                           SL1      DDV
001631: 12,3324           02730                                    SNTH
001632: 12,3325           77600                           BOV
001633: 12,3326           25512                                    LOLIM
001634: 12,3327           00011        MINCOGA            STORE    COGAMIN                               #  COGAMIN (+5)
001635: 12,3330           66214                           BON      SSP
001636: 12,3331           00715                                    GUESSW
001637: 12,3332           25476                                    NOGUESS
001638: 12,3333           00051                                    TWEEKIT
001639: 12,3334           00001                                    00001
001640: 12,3335           77745                           DLOAD
001641: 12,3336           02766                                    COGA
001642:
001643:
001644: 12,3337           77605        LAMBLOOP           DMP
001645: 12,3340           02730                                    SNTH
001646: 12,3341           45342                           SR1      DSU
001647: 12,3342           02736                                    CSTH-RHO
001648: 12,3343           65301                           NORM     PDDL                                  #  0D=SNTH COGA-(CSTH-RHO) (+7+C(X1)) PL=2
001649: 12,3344           00047                                    X1
001650: 12,3345           02734                                    1-CSTH
001651: 12,3346           56257                           SL*      DDV                                   #  1-CSTH (+2)                  PL AT 0
001652: 12,3347           20170                                    0          -9D,1
001653: 12,3350           53040                           BMN      BZE
001654: 12,3351           25426                                    NEGP
001655: 12,3352           25426                                    NEGP
001656: 12,3353           16740                           STODL    P                                     #  P=(1-CSTH)/(SNTH COGA-(CSTH-RHO)) (+4)
001657: 12,3354           02766                                    COGA
001658: 12,3355           43316                           DSQ      DAD
001659: 12,3356           10766                                    D1/1024
001660: 12,3357           41301                           NORM     DMP
001661: 12,3360           00047                                    X1
001662: 12,3361           02740                                    P
001663: 12,3362           44257                           SR*      BDSU
001664: 12,3363           20571                                    0          -8D,1


001666: 12,3364           10764                                    D1/32
001667: 12,3365           16742                           STODL    R1A                                   #  R1A=2-P(1+COGA COGA) (+6)
001668: 12,3366           02740                                    P
001669: 12,3367           45000                           BOV      CALL
001670: 12,3370           25431                                    HIENERGY
001671: 12,3371           25000                                    GETX
001672: 12,3372           77745                           DLOAD
001673: 12,3373           00037                                    T
001674: 12,3374           16762                           STODL    TPREV
001675: 12,3375           00031                                    XI
001676: 12,3376           45014                           BON      CALL
001677: 12,3377           04310                                    INFINFLG
001678: 12,3400           25426                                    NEGP                                  #  HAVE EXCEEDED THEORETICAL BOUNDS
001679: 12,3401           24434                                    DELTIME
001680: 12,3402           44200                           BOV      BDSU
001681: 12,3403           25446                                    BIGTIME
001682: 12,3404           02671                                    TDESIRED
001683: 12,3405           02760                           STORE    TERRLAMB
001684: 12,3406           44246                           ABS      BDSU
001685: 12,3407           02764                                    EPSILONL
001686: 12,3410           47044                           BPL      RTB
001687: 12,3411           25515                                    INITV
001688: 12,3412           24657                                    CHECKCTR
001689: 12,3413           45030                           BHIZ     CALL
001690: 12,3414           25457                                    SUFFCHEK
001691: 12,3415           24551                                    ITERATOR
001692: 12,3416           53145                           DLOAD    BZE
001693: 12,3417           00155                                    MPAC
001694: 12,3420           25457                                    SUFFCHEK
001695: 12,3421           77615                           DAD
001696: 12,3422           02766                                    COGA
001697: 12,3423           02766                           STORE    COGA
001698: 12,3424           77650                           GOTO
001699: 12,3425           25337                                    LAMBLOOP
001700:
001701:
001702: 12,3426           51145        NEGP               DLOAD    BPL                                   #  IMPOSSIBLE TRAJECTORY DUE TO INACCURATE
001703: 12,3427           00015                                    DCOGA                                 #  BOUND CALCULATION. TRY NEW COGA.
001704: 12,3430           25451                                    LOENERGY
001705:
001706:
001707: 12,3431           71201        HIENERGY           SETPD    DLOAD                                 #  HIGH ENERGY TRAJECTORY RESULTED
001708: 12,3432           00001                                    0
001709: 12,3433           02766                                    COGA                                  #  IN OVFL OF P OR R1A, OR XI EXCEEDING 50.
001710: 12,3434           00011                           STORE    COGAMIN                               #  THIS IS THE NEW BOUND.
001711: 12,3435           70545        COMMONLM           DLOAD    SR1
001712: 12,3436           00015                                    DCOGA
001713: 12,3437           00015                           STORE    DCOGA                                 #  USE DCOGA/2 AS DECREMENT
001714: 12,3440           44254                           BZE      BDSU


001716: 12,3441           25457                                    SUFFCHEK
001717: 12,3442           02766                                    COGA
001718: 12,3443           02766                           STORE    COGA
001719: 12,3444           77650                           GOTO                                           #  RESTART THIS LOOP
001720: 12,3445           25337                                    LAMBLOOP
001721:
001722:
001723: 12,3446           77745        BIGTIME            DLOAD
001724: 12,3447           02762                                    TPREV
001725: 12,3450           00037                           STORE    T
001726:
001727:
001728: 12,3451           71201        LOENERGY           SETPD    DLOAD                                 #  LOW ENERGY TRAJECTORY RESULTED
001729: 12,3452           00001                                    0
001730: 12,3453           02766                                    COGA                                  #  IN OVERFLOW OF TIME.
001731: 12,3454           00017                           STORE    COGAMAX                               #  THIS IS THE NEW BOUND.
001732: 12,3455           77650                           GOTO
001733: 12,3456           25435                                    COMMONLM
001734:
001735:
001736: 12,3457           51545        SUFFCHEK           DLOAD    ABS
001737: 12,3460           02760                                    TERRLAMB
001738: 12,3461           41325                           PDDL     DMP                                   #                               PL AT 2D
001739: 12,3462           02671                                    TDESIRED
001740: 12,3463           10751                                    BEE17
001741: 12,3464           45215                           DAD      DSU                                   #                               PL AT 0D
001742: 12,3465           11000                                    ONEBIT
001743: 12,3466           43044                           BPL      SETGO
001744: 12,3467           25515                                    INITV
001745: 12,3470           02434                                    SOLNSW
001746: 12,3471           25515                                    INITV
001747: 12,3472           43001        360LAMB            SETPD    SETGO                                 #  LAMBERT CANNOT HANDLE CSTH=1
001748: 12,3473           00001                                    0
001749: 12,3474           02434                                    SOLNSW
001750: 12,3475           02710                                    RTNLAMB
001751:
001752:
001753: 12,3476           71331        NOGUESS            SSP      DLOAD
001754: 12,3477           00051                                    TWEEKIT
001755: 12,3500           10000                                    20000
001756: 12,3501           00011                                    COGAMIN
001757: 12,3502           65342                           SR1      PDDL                                  #                               PL AT 2
001758: 12,3503           00017                                    COGAMAX
001759: 12,3504           43342                           SR1      DAD
001760: 12,3505           77626                           STADR                                          #                               PL AT 0
001761: 12,3506           75011                           STORE    COGA
001762: 12,3507           00015                           STORE    DCOGA
001763: 12,3510           77650                           GOTO
001764: 12,3511           25337                                    LAMBLOOP
001765:


001767: 12,3512           52145        LOLIM              DLOAD    GOTO
001768: 12,3513           11004                                    COGLOLIM                              #  COGLOLIM=-.999511597
001769: 12,3514           25327                                    MINCOGA
001770:
001771:
001772: 12,3515           60345        INITV              DLOAD    NORM
001773: 12,3516           00041                                    R1
001774: 12,3517           00047                                    X1
001775: 12,3520           70525                           PDDL     SR1                                   #                               PL AT 2
001776: 12,3521           02740                                    P
001777: 12,3522           77671                           DDV                                            #                               PL AT 0
001778: 12,3523           75457                           SL*      SQRT
001779: 12,3524           20175                                    0          -4,1
001780: 12,3525           72405                           DMP      SL1
001781: 12,3526           00021                                    ROOTMU
001782: 12,3527           41206                           PUSH     DMP                                   #  0D=VTAN (+7)                 PL AT 2
001783: 12,3530           02766                                    COGA
001784: 12,3531           74261                           SL       VXSC
001785: 12,3532           20206                                    5
001786: 12,3533           02722                                    UR1
001787: 12,3534           77725                           PDDL                                           #  XCH WITH 0D                  PL AT 0,6
001788: 12,3535           76561                           VXSC     VSL1
001789: 12,3536           02674                                    UN
001790: 12,3537           53235                           VXV      VAD                                   #                               PL AT 0
001791: 12,3540           02722                                    UR1
001792: 12,3541           77772                           VSL1
001793: 12,3542           02744                           STORE    VVEC
001794: 12,3543           53135                           SLOAD    BZE
001795: 12,3544           02702                                    VTARGTAG
001796: 12,3545           25550                                    TARGETV
001797: 12,3546           77650                           GOTO
001798: 12,3547           02710                                    RTNLAMB
001799:
001800:
001801: 12,3550           45145        TARGETV            DLOAD    CALL
001802: 12,3551           02720                                    MAGVEC2
001803: 12,3552           24714                                    LAMENTER
001804: 12,3553           02703                           STORE    VTARGET
001805: 12,3554           77650                           GOTO
001806: 12,3555           02710                                    RTNLAMB
001807:


001809: 12,3556           40220        TIMERAD            STQ      SETPD                                 #                                  PL AT 0
001810: 12,3557           02710                                    RTNTR
001811: 12,3560           00001                                    0
001812: 12,3561           63375                           VLOAD    PDVL                                  #                                  PL AT 6
001813: 12,3562           02655                                    RVEC
001814: 12,3563           02744                                    VVEC
001815: 12,3564           77624                           CALL
001816: 12,3565           11005                                    PARAM
001817: 12,3566           71200                           BOV      DLOAD                                 #                                  PL AT 0
001818: 12,3567           24775                                    COGAOVFL
001819: 12,3570           10764                                    D1/32
001820: 12,3571           41225                           DSU      DMP
001821: 12,3572           02742                                    R1A
001822: 12,3573           02740                                    P
001823: 12,3574           41366                           SQRT     DMP
001824: 12,3575           02766                                    COGA
001825: 12,3576           74212                           SL4      VXSC
001826: 12,3577           02712                                    U2
001827: 12,3600           45325                           PDDL     DSU                                   #                                  PL AT 6
001828: 12,3601           10756                                    D1/64
001829: 12,3602           02742                                    R1A
001830: 12,3603           52361                           VXSC     VSU                                   #                                  PL AT 0
001831: 12,3604           02722                                    UR1
001832: 12,3605           53512                           VSL4     UNIT
001833: 12,3606           77600                           BOV
001834: 12,3607           25472                                    360LAMB                               #  NO SOLUTION SINCE CONIC IS A CIRCLE
001835: 12,3610           60325                           PDDL     NORM                                  #  0D=UNIT(ECC) (+3)               PL AT 6
001836: 12,3611           02756                                    RDESIRED                              #  36D=ECC (+3)
001837: 12,3612           00047                                    X1
001838: 12,3613           41325                           PDDL     DMP                                   #                               PL AT 8
001839: 12,3614           00041                                    R1
001840: 12,3615           02740                                    P
001841: 12,3616           56257                           SL*      DDV                                   #                               PL AT 6
001842: 12,3617           20201                                    0,1
001843: 12,3620           56225                           DSU      DDV
001844: 12,3621           10762                                    D1/16
001845: 12,3622           00045                                    36D                                   #  36D=ECC (+3)
001846: 12,3623           00031                           STORE    COSF
001847: 12,3624           63400                           BOV      DSQ
001848: 12,3625           25665                                    BADR2
001849: 12,3626           50021                           BDSU     BMN
001850: 12,3627           10760                                    D1/4
001851: 12,3630           25665                                    BADR2
001852: 12,3631           75366                           SQRT     SIGN
001853: 12,3632           02755                                    SGNRDOT
001854: 12,3633           77614                           CLEAR
001855: 12,3634           04272                                    APSESW
001856:
001857: 12,3635           76561        TERMNVEC           VXSC     VSL1
001858: 12,3636           02674                                    UN


001860: 12,3637           63235                           VXV      PDVL                                  #  VXCH WITH 0D                 PL AT 0,6
001861: 12,3640           00001                                    0D
001862: 12,3641           53361                           VXSC     VAD                                   #                               PL AT 0
001863: 12,3642           00031                                    COSF
001864: 12,3643           41572                           VSL1     PUSH                                  #  0D=U2                        PL AT 6
001865:
001866: 12,3644           56241                           DOT      DDV                                   #  LIMITS RESULT TO POSMAX OR NEGMAX
001867: 12,3645           02722                                    UR1
001868: 12,3646           23702                                    DP1/4
001869: 12,3647           40142                           SR1      BOV                                   #  SCALE BACK DOWN TO NORMAL
001870: 12,3650           25651                                    +1                                    #  CLEAR OVFIND IF SET
001871: 12,3651           26732                           STOVL    CSTH                                  #  CSTH (+1)
001872: 12,3652           02722                                    UR1
001873: 12,3653           76435                           VXV      VSL1
001874: 12,3654           72441                           DOT      SL1
001875: 12,3655           02674                                    UN
001876: 12,3656           16730                           STODL    SNTH                                  #  SNTH (+1)
001877: 12,3657           02740                                    P
001878: 12,3660           77624                           CALL
001879: 12,3661           25000                                    GETX
001880: 12,3662           77614                           CLRGO
001881: 12,3663           02634                                    SOLNSW
001882: 12,3664           24760                                    COMMNOUT
001883:
001884:
001885: 12,3665           75345        BADR2              DLOAD    SIGN
001886: 12,3666           22273                                    LODPHALF
001887: 12,3667           00031                                    COSF
001888: 12,3670           14031                           STODL    COSF
001889: 12,3671           22275                                    KEPZERO
001890: 12,3672           77614                           SETGO
001891: 12,3673           04032                                    APSESW
001892: 12,3674           25635                                    TERMNVEC
001893: 12,3675           40220        APSIDES            STQ      SETPD                                 #                                 PL AT 0
001894: 12,3676           02710                                    RTNAPSE
001895: 12,3677           00001                                    0D
001896: 12,3700           63375                           VLOAD    PDVL                                  #                                 PL AT 6
001897: 12,3701           02655                                    RVEC
001898: 12,3702           02744                                    VVEC
001899: 12,3703           77624                           CALL
001900: 12,3704           11005                                    PARAM
001901: 12,3705           77600                           BOV                                            #                                 PL AT 0
001902: 12,3706           25707                                    GETECC
001903: 12,3707           42405        GETECC             DMP      SL4
001904: 12,3710           02742                                    R1A
001905: 12,3711           75421                           BDSU     SQRT
001906: 12,3712           10756                                    D1/64
001907: 12,3713           02752                           STORE    ECC
001908: 12,3714           65215                           DAD      PDDL                                  #                                 PL AT 2
001909: 12,3715           10752                                    D1/8


001911: 12,3716           00041                                    R1
001912: 12,3717           72405                           DMP      SL1
001913: 12,3720           02740                                    P
001914: 12,3721           77671                           DDV                                            #                                  PL AT 0
001915: 12,3722           60325                           PDDL     NORM                                  #  0D=RP (+29 OR +27)              PL AT 2
001916: 12,3723           02742                                    R1A
001917: 12,3724           00047                                    X1
001918: 12,3725           53725                           PDDL     SL*                                   #                                  PL AT 4
001919: 12,3726           00041                                    R1
001920: 12,3727           20174                                    0          -5,1
001921: 12,3730           45271                           DDV      DSU                                   #                                  PL AT 2,0
001922: 12,3731           50000                           BOV      BMN
001923: 12,3732           25736                                    INFINAPO
001924: 12,3733           25736                                    INFINAPO
001925: 12,3734           77650                           GOTO
001926: 12,3735           02710                                    RTNAPSE
001927: 12,3736           52145        INFINAPO           DLOAD    GOTO                                  #  RETURNS WITH APOAPSIS IN MPAC, PERIAPSIS
001928: 12,3737           22306                                    LDPOSMAX
001929: 12,3740           02710                                    RTNAPSE                               #  THAT PL IS AT 0.
001930:


001932: 12,3741  11,2305               LDPOSMAX           EQUALS   LODPMAX                               #  DPPOSMAX IN LOW MEMORY.
001933:
001934:                                                                                                  #  ERASABLE ASSIGNMENTS
001935:
001936:
001937:                                                                                                  #  KEPLER SUBROUTINE
001938:
001939:                                                                                                  #     INPUT -
001940:                                                                                                  #  RRECT    ERASE  +5
001941:                                                                                                  #  VRECT    ERASE  +5
001942:                                                                                                  #  TAU.     ERASE  +1
001943:                                                                                                  #  XKEP     ERASE  +1
001944:                                                                                                  #  TC       ERASE  +1
001945:                                                                                                  #  XPREV    ERASE  +1
001946: 12,3741                        1/MU               EQUALS   14D
001947: 12,3741                        ROOTMU             EQUALS   16D
001948: 12,3741                        1/ROOTMU           EQUALS   18D
001949:                                                                                                  #     OUTPUT -
001950:                                                                                                  #  RCV      ERASE  +5
001951:                                                                                                  #  VCV      ERASE  +5
001952:                                                                                                  #  RC       ERASE  +1
001953:                                                                                                  #  XPREV    ERASE  +1
001954:
001955:                                                                                                  #  DEBRIS -
001956: 12,3741                        ALPHA              EQUALS   8D
001957: 12,3741                        XMAX               EQUALS   10D
001958: 12,3741                        XMIN               EQUALS   12D
001959: 12,3741                        X                  EQUALS   20D
001960: 12,3741                        XI                 EQUALS   24D
001961: 12,3741                        S(XI)              EQUALS   26D
001962: 12,3741                        XSQC(XI)           EQUALS   28D
001963: 12,3741                        T                  EQUALS   30D
001964: 12,3741                        R1                 EQUALS   32D
001965: 12,3741                        KEPC1              EQUALS   34D
001966: 12,3741                        KEPC2              EQUALS   36D
001967:                                                                                                  #  DELX     ERASE  +1
001968:                                                                                                  #  DELT     ERASE  +1
001969:                                                                                                  #  URRECT   ERASE  +5
001970:                                                                                                  #  RCNORM   ERASE  +1
001971:                                                                                                  #  XPREV    EQUALS XKEP
001972:
001973:
001974:                                                                                                  #  LAMBERT SUBROUTINE
001975:
001976:                                                                                                  #     INPUT-
001977:                                                                                                  #  R1VEC    ERASE  +5
001978:                                                                                                  #  R2VEC    ERASE  +5
001979:                                                                                                  #  TDESIRED ERASE  +1
001980:                                                                                                  #  GEOMSGN  ERASE  +0
001981:                                                                                                  #  GUESSW                      0 IF COGA GUESS AVAILABLE, 1 IF NOT


001983:                                                                                                  #  COGA     ERASE  +1          INPUT ONLY IF GUESSW IS ZERO.
001984:                                                                                                  #  NORMSW                      0 IF UN TO BE COMPUTED, 1 IF UN INPUT
001985:                                                                                                  #  UN       ERASE  +5          ONLY USED IF NORMSW IS 1
001986:                                                                                                  #  VTARGTAG ERASE  +0
001987:                                                                                                  #  TWEEKIT  EQUALS  40D        ONLY USED IF GUESSW IS 0
001988:
001989:                                                                                                  #     OUTPUT -
001990:                                                                                                  #  VTARGET  ERASE  +5          AVAILABLE ONLY IF VTARGTAG IS ZERO.
001991:                                                                                                  #  V1VEC    EQUALS MPAC
001992:
001993:                                                                                                  #     DEBRIS -
001994:                                                                                                  #  RTNLAMB  ERASE  +0
001995:                                                                                                  #  U2       ERASE  +5
001996:                                                                                                  #  MAGVEC2  ERASE  +1
001997:                                                                                                  #  UR1      ERASE  +5
001998:                                                                                                  #  R1       EQUALS 31D
001999:                                                                                                  #  UN       ERASE  +5
002000:                                                                                                  #  SNTH     ERASE  +1
002001:                                                                                                  #  CSTH     ERASE  +1
002002:                                                                                                  #  1-CSTH   ERASE  +1
002003:                                                                                                  #  CSTH-RHO ERASE  +1
002004: 12,3741                        COGAMAX            EQUALS   14D                                   #  CLOBBERS 1/MU
002005: 12,3741                        COGAMIN            EQUALS   8D
002006: 12,3741                        DCOGA              EQUALS   12D
002007:                                                                                                  #  TWEEKIT  EQUALS 40D
002008:                                                                                                  #  P        ERASE  +1
002009:                                                                                                  #  COGA     ERASE  +1
002010:                                                                                                  #  R1A      ERASE  +1
002011:                                                                                                  #  X        EQUALS 20D
002012:                                                                                                  #  XSQ      EQUALS 22D
002013:                                                                                                  #  XI       EQUALS 24D
002014:                                                                                                  #  S(XI)    EQUALS 26D
002015:                                                                                                  #  XSQC(XI) EQUALS 28D
002016:                                                                                                  #  T        EQUALS 30D
002017:                                                                                                  #  KEPC1    EQUALS 34D
002018:                                                                                                  #  KEPC2    EQUALS 36D
002019:                                                                                                  #  SLOPESW
002020:                                                                                                  #  SOLNSW
002021:                                                                                                  #  OTHERS -
002022:
002023:                                                                                                  #  RVEC     EQUALS R1VEC
002024:                                                                                                  #  VVEC     ERASE  +5
002025:                                                                                                  #  COGAFLAG
002026:                                                                                                  #  RVSW
002027:                                                                                                  #  INFINFLG
002028:                                                                                                  #  APSESW
002029:                                                                                                  #  360SW
002030:                                                                                                  #  RTNTT    EQUALS RTNLAMB
002031:                                                                                                  #  ECC      ERASE  +1
002032:                                                                                                  #  RTNTR    EQUALS RTNLAMB


002034:                                                                                                  #  RTNAPSE  EQUALS RTNLAMB
002035:                                                                                                  #  R2       EQUALS MAGVEC2
002036: 12,3741                        COSF               EQUALS   24D
002037:                                                                                                  #  RTNPRM   ERASE  +0
002038:                                                                                                  #  SGNRDOT  ERASE  +0
002039:                                                                                                  #  RDESIRED ERASE  +1
002040:
002041:
002042:                                                                                                  #  ITERATOR SUBROUTINE
002043:
002044:                                                                                                  #  ORDERSW
002045: 12,3741                        MAX                EQUALS   14D                                   #  CLOBBERS 1/MU
002046: 12,3741                        MIN                EQUALS   8D
002047:                                                                                                  #  INDEP    ERASE  +1
002048: 12,3741                        DELINDEP           EQUALS   12D
002049: 12,3741                        ITERCTR            EQUALS   22D
002050: 12,3741                        DEP                EQUALS   30D
002051:                                                                                                  #  DELDEP   ERASE  +1
002052:                                                                                                  #  DEPREV   ERASE  +1
002053: 12,3741                        TWEEKIT            EQUALS   40D
002054:
002055:
002056:                                                                                                  #  MORE KEPLER
002057:
002058:                                                                                                  #  EPSILONT ERASE  +1
002059:
002060:
002061:                                                                                                  #  MORE LAMBERT
002062:
002063:                                                                                                  #  TERRLAMB EQUALS DELDEP
002064:                                                                                                  #  TPREV    EQUALS DEPREV
002065:
002066:
002067:                                                                                                  #  EPSILONL EQUALS EPSILONT +2     DOUBLE PRECISION WORD

End of include-file CONIC_SUBROUTINES.agc.  Parent file is MAIN.agc


