
Source Code


000002:                                                                                                  ## Copyright:   Public domain.
000003:                                                                                                  ## Filename:    CONTROLLED_CONSTANTS.agc
000004:                                                                                                  ## Purpose:     The main source file for Luminary revision 069.
000005:                                                                                                  ##              It is part of the source code for the original release
000006:                                                                                                  ##              of the flight software for the Lunar Module's (LM) Apollo
000007:                                                                                                  ##              Guidance Computer (AGC) for Apollo 10. The actual flown
000008:                                                                                                  ##              version was Luminary 69 revision 2, which included a
000009:                                                                                                  ##              newer lunar gravity model and only affected module 2.
000010:                                                                                                  ##              This file is intended to be a faithful transcription, except
000011:                                                                                                  ##              that the code format has been changed to conform to the
000012:                                                                                                  ##              requirements of the yaYUL assembler rather than the
000013:                                                                                                  ##              original YUL assembler.
000014:                                                                                                  ## Reference:   pp. 53-69
000015:                                                                                                  ## Assembler:   yaYUL
000016:                                                                                                  ## Contact:     Ron Burkey <info@sandroid.org>.
000017:                                                                                                  ## Website:     www.ibiblio.org/apollo/index.html
000018:                                                                                                  ## Mod history: 2016-12-13 MAS  Created from Luminary 99.
000019:                                                                                                  ##              2017-01-03 HG   Transcribed
000020:                                                                                                  ##              2017-01-25 RSB  Proofed comment text using octopus/prooferComments
000021:                                                                                                  ##                              and fixed errors found.
000022:


000024:                                                                                                  #  DPS AND APS ENGINE PARAMETERS
000025:
000026: 36,2000                                           SETLOC   P40S
000027: 36,2000                                           BANK
000028: 36,2000                                           COUNT*   $$/P40
000029:
000030:                                                                                                  #  *** THE ORDER OF THE FOLLOWING SIX CONSTANTS MUST NOT BE CHANGED ***
000031:
000032: 36,2000           01056 37167  FDPS               2DEC     4.3670     B-7                        #  9817.5 LBS FORCE IN NEWTONS
000033: 36,2002           00457 03250  MDOTDPS            2DEC     0.1480     B-3                        #  32.62 LBS/SEC IN KGS/CS.
000034: 36,2004           77777 77731  DTDECAY            2DEC     -38        B-28
000035: 36,2006           00307 11040  FAPS               2DEC     1.5569     B-7                        #  3500 LBS FORCE IN NEWTONS
000036: 36,2010           00151 05214  MDOTAPS            2DEC     0.05135    B-3                        #  11.32 LBS/SEC IN KGS/CS
000037: 36,2012           77777 77765  ATDECAY            2DEC     -10        B-28
000038:
000039:                                                                                                  #  ************************************************************************
000040:
000041: 36,2014           00026 30605  FRCS4              2DEC     0.17792    B-7                        #  400 LBS FORCE IN NEWTONS
000042: 36,2016           00013 14303  FRCS2              2DEC     0.08896    B-7                        #  200 LBS FORCE IN NEWTONS
000043:
000044: 27,2000                                           SETLOC   P40S1
000045: 27,2000                                           BANK
000046: 27,2000                                           COUNT*   $$/P40
000047:
000048:                                                                                                  #  *** APS IMPULSE DATA FOR P42 *******************************************
000049:
000050: 27,2000           00000 07622  K1VAL              2DEC     124.55     B-23                       #  2800 LB-SEC
000051: 27,2002           00000 00762  K2VAL              2DEC     31.138     B-24                       #  700  LB-SEC
000052: 27,2004           00030 35104  K3VAL              2DEC     1.5569     B-10                       #  FAPS ( 3500 LBS THRUST)
000053:
000054:                                                                                                  #  ************************************************************************
000055:
000056: 27,2006           00016 36237  S40.136            2DEC     .4671      B-9                        #  .4671 M NEWTONS (DPS)
000057: 27,2010           35711 35663  S40.136_           2DEC     .4671      B+1                        #  S40.136 SHIFTED LEFT 10.
000058: 32,2000                                           SETLOC   ABORTS
000059: 32,2000                                           BANK
000060: 32,2000                                           COUNT*   $$/P70
000061:
000062: 32,2000           03631 23146  (1/DV)A            2DEC     15.20      B-7                        #  2 SECONDS WORTH OF INITIAL ASCENT
000063:


000065:                                                                                                  #  STAGE ACCELERATION -- INVERTED (M/CS)
000066:                                                                                                  #  1) PREDICATED ON A LIFTOFF MASS OF
000067:                                                                                                  #     4869.9 KG (SNA-8-D-027  7/11/68)
000068:                                                                                                  #  2) PREDICATED ON A CONTRIBUTION TO VEH-
000069:                                                                                                  #     ICLE ACCELERATION FROM RCS THRUSTERS
000070:                                                                                                  #     EQUIV. TO 1 JET ON CONTINUOUSLY.
000071: 32,2002           33226 14632  K(1/DV)            2DEC     436.70     B-9                        #  DPS ENGINE THRUST IN NEWTONS / 100 CS.
000072:
000073: 32,2004           05306 15503  (AT)A              2DEC     3.2883     E-4        B9              #  INITIAL ASC. STG. ACCELERATION ** M/CS.
000074:                                                                                                  #  ASSUMPTIONS SAME AS FOR (1/DV)A.
000075: 32,2006           26337 30000  (TBUP)A            2DEC     91902      B-17                       #  ESTIMATED BURN-UP TIME OF THE ASCENT STG
000076:                                                                                                  #  ASSUMPTIONS SAME AS FOR (1/DV)A WITH THE
000077:                                                                                                  #  ADDITIONAL ASSUMPTION THAT NET MASS-FLOW
000078:                                                                                                  #  RATE = 5.299 KG/SEC = 5.135 (APS) +
000079:                                                                                                  #  .164 (1 RCS JET).
000080: 30,2000                                           SETLOC   ASENT
000081: 30,2000                                           BANK
000082: 30,2000                                           COUNT*   $$/ASENT
000083: 30,2000           02445 00274  AT/RCS             2DEC     .0000785   B+10                       #  4 JETS IN A DRY LEM
000084: 33,2000                                           SETLOC   SERVICES
000085: 33,2000                                           BANK
000086: 33,2000                                           COUNT*   $$/SERV
000087:
000088:                                                                                                  #  *** THE ORDER OF THE FOLLOWING TWO CONSTANTS MUST NOT BE CHANGED *******
000089:
000090: 33,2000           41545        APSVEX             DEC      -3030      E-2        B-5             #  9942 FT/SEC IN M/CS.
000091:
000092: 33,2001           42365        DPSVEX             DEC*     -2952      E-2        B-5             #  9684 FT/SEC IN M/CS.
000093:
000094:                                                                                                  #  ************************************************************************
000095:
000096: 31,2000                                           SETLOC   F2DPS*31
000097: 31,2000                                           BANK
000098: 31,2000                                           COUNT*   $$/F2DPS
000099:
000100: 31,2000           00233 15340  TRIMACCL           2DEC*    +3.7055    E-5        B+8*            #  ACCELERATION DURING TRIM PHASE.
000101:


000103:                                                                                                  #  THROTTLING AND THRUST DETECTION PARAMETERS
000104:
000105: 36,2000                                           SETLOC   P40S
000106: 36,2000                                           BANK
000107: 36,2020                                           COUNT*   $$/P40
000108:
000109: 36,2020           00030        THRESH1            DEC      24         B-14
000110:
000111: 36,2021           00014        THRESH3            DEC      12         B-14
000112:
000113: 36,2022     4737               HIRTHROT           =        BIT13
000114:
000115:    6000                                           SETLOC   FFTAG5
000116:    6000                                           BANK
000117:    6000                                           COUNT*   $$/P40
000118:
000119:    6000           00464        THRESH2            DEC      308        B-14
000120:
000121: 31,2000                                           SETLOC   FTHROT
000122: 31,2000                                           BANK
000123: 31,2002                                           COUNT*   $$/THROT
000124:
000125: 31,2002           07432        FMAXODD            DEC      +3866      B-14                       #  THROTTLE SATURATION THRESHOLD
000126:
000127: 31,2003           07012        FMAXPOS            DEC      +3594      B-14                       #  FMAX    43245 NEWTONS
000128: 31,2004           00024        THROTLAG           DEC      20         B-14                       #  EMPIRICALLY DETERMINED THROTTLE LAG TIME
000129:
000130: 32,2000                                           SETLOC   F2DPS*32
000131: 32,2000                                           BANK
000132: 32,2010                                           COUNT*   $$/F2DPS
000133:
000134: 32,2010           00044        DPSTHRSH           DEC      36         B-14                       #  (THRESH1 + THRESH3 FOR P63)
000135:


000137:                                                                                                  #  LM HARDWARE-RELATED PARAMETERS
000138:
000139:
000140: 25,2000                                           SETLOC   RADARUPT
000141: 25,2000                                           BANK
000142: 25,2000                                           COUNT*   $$/RRUPT
000143:
000144: 25,2000           47777        LVELBIAS           DEC      -12288     B-14                       #  LANDING RADAR BIAS FOR 153.6 KC.
000145: 25,2001           00001 01150  RDOTBIAS           2DEC     17000      B-28                       #  BIAS COUNT FOR RR RANGE RATE.
000146:
000147: 32,2000                                           SETLOC   LRS22
000148: 32,2000                                           BANK
000149: 32,2011                                           COUNT*   $$/LRS22
000150:
000151: 32,2011           70123 40702  RDOTCONV           2DEC     -.0019135344 B7                         #  CONVERTS RR RDOT READING TO M/CS AT 2(7)
000152: 32,2013           13337 10776  RANGCONV           2DEC     2.859024   B-3                        #  CONVERTS RR RANGE READING TO M. AT 2(-29
000153: 31,2000                                           SETLOC   FTHROT
000154: 31,2000                                           BANK
000155: 31,2005                                           COUNT*   $$/THROT
000156:
000157: 31,2005           00317 31157  SCALEFAC           2DEC     51.947     B-12                       #  SCALES A (AT 2(-4) M/CS/CS) TIMES MASS
000158:                                                                                                  #  (AT 2(16) KGS. ) TO PULSE UNITS.
000159:
000160: 33,2000                                           SETLOC   SERVICES
000161: 33,2000                                           BANK
000162: 33,2002                                           COUNT*   $$/SERV
000163:
000164: 33,2002           61000 71210  HBEAMANT           2DEC     -.4687018041                            #  RANGE BEAM IN LR ANTENNA COORDINATES.
000165: 33,2004           00000 00000                     2DEC     0          B-28
000166: 33,2006           72333 45546                     2DEC     -.1741224271
000167:
000168: 33,2010           65363 64451  HSCAL              2DEC     -.3288792                             #  SCALES 1.079 FT/BIT TO 2(22)M.
000169:                                                                                                  #  ***** THE SEQUENCE OF THE FOLLOWING CONSTANTS MUST BE PRESERVED ********
000170:
000171: 33,2012           21241 03216  VZSCAL             2DEC     +.5410829105                            #  SCALES .8668 FT/SEC/BIT TO 2(18) M/CS.
000172: 33,2014           30153 23101  VYSCAL             2DEC     +.7565672446                            #  SCALES 1.212 FT/SEC/BIT TO 2(18) M/CS.
000173: 33,2016           63105 61733  VXSCAL             2DEC     -.4020043770                            #  SCALES -.644 FT/SEC/BIT TO 2(18) M/CS.
000174:


000176:                                                                                                  #  ************************************************************************
000177:
000178: 33,2020           01507        KPIP               DEC      .0512                                 #  SCALES DELV TO UNITS OF 2(5) M/CS.
000179: 33,2021           00321 26706  KPIP1              2DEC     .0128                                 #  SCALES DELV TO UNITS OF 2(7) M/CS.
000180: 33,2023           00150 33343  KPIP2              2DEC     .0064                                 #  SCALES DELV TO UNITS OF 2(8) M/CS.
000181:
000182: 33,2025           02630 25010  ALTCONV            2DEC     1.399078846 B-4                        #  CONVERTS M*2(-24) TO BIT UNITS *2(-28).
000183: 33,2027           24402 26003  ARCONV1            2DEC     656.167979 B-10                       #  CONV. ALTRATE COMP. TO BIT UNITS<
000184: 21,2000                                           SETLOC   R10
000185: 21,2000                                           BANK
000186: 21,2000                                           COUNT*   $$/R10
000187:
000188: 21,2000           24402        ARCONV             OCT      24402                                 #  656.1679798B-10 CONV ALTRATE TO BIT UNIT
000189:
000190: 21,2001           01551        ARTOA              DEC      .1066098   B-1                        #  .25/2.345 B-1 4X/SEC CYCLE RATE.
000191:
000192: 21,2002           21357        ARTOA2             DEC      .0021322   B8                         #  (.5)/(2.345)(100)
000193:
000194: 21,2003           22316        VELCONV            OCT      22316                                 #  588.914 B-10 CONV VEL. TO BIT UNITS.
000195:
000196: 21,2004           01507        KPIP1(5)           DEC      .0512                                 #  SCALES DELV TO M/CS*2(-5).
000197:
000198: 21,2005           00547        MAXVBITS           OCT      00547                                 #  MAX. DISPLAYED VELOCITY 199.9989 FT/SEC.
000199:
000200: 20,2000                                           SETLOC   DAPS3
000201: 20,2000                                           BANK
000202: 20,2000                                           COUNT*   $$/DAPAO
000203:
000204: 20,2000           01150        TORKJET1           DEC      .03757                                #  550 / .2 SCALED AT (+16) 64 / 180
000205:


000207:                                                                                                  #  PARAMETERS RELATING TO MASS, INERTIA, AND VEHICLE DIMENSTIONS
000208:
000209:
000210: 05,2000                                           SETLOC   FRANDRES
000211: 05,2000                                           BANK
000212: 05,2000                                           COUNT*   $$/START
000213:
000214: 05,2000           02357        FULLAPS            DEC      5050       B-16                       #  NOMINAL FULL ASCENT MASS -- 2(16) KG.
000215:
000216: 01,2000                                           SETLOC   LOADDAP1
000217: 01,2000                                           BANK
000218: 01,2000                                           COUNT*   $$/R03
000219:
000220: 01,2000           76466        MINLMD             DEC      -2850      B-16                       #  MIN. DESCENT STAGE MASS -- 2(16) KG.
000221:
000222: 01,2001           76731        MINMINLM           DEC      -2200      B-16                       #  MIN ASCENT STAGE MASS -- 2(16) KG.
000223:
000224: 01,2002     4741               MINCSM             =        BIT11                                 #  MIN CSM MASS (OK FOR 1/ACCS) = 9050 LBS
000225:
000226: 20,2000                                           SETLOC   DAPS3
000227: 20,2000                                           BANK
000228: 20,2001                                           COUNT*   $$/DAPAD
000229:
000230: 20,2001           01046        LOASCENT           DEC      2200       B-16                       #  MIN ASCENT LEM MASS -- 2(16) KG.
000231:
000232: 20,2002           07361        HIDESCNT           DEC      15300      B-16                       #  MAX DESCENT LEM MASS -- 2(16) KG.
000233:
000234: 20,2003           00666        LODESCNT           DEC      1750       B-16                       #  MIN DESCENT STAGE (ALONE) -- 2(16) KG.
000235:


000237:                                                                                                  #  PHYSICAL CONSTANTS ( TIME - INVARIANT )
000238:
000239:
000240: 37,2000                                           SETLOC   IMU2
000241: 37,2000                                           BANK
000242: 37,2000                                           COUNT*   $$/P07
000243:
000244: 37,2000           07623 26552  OMEG/MS            2DEC     .24339048
000245: 22,2000                                           SETLOC   R30LOC
000246: 22,2000                                           BANK
000247: 22,2000                                           COUNT*   $$/R30
000248:
000249:                                                                                                  #  *** THE ORDER OF THE FOLLOWING TWO CONSTANTS MUST BE PRESERVED *********
000250:
000251: 22,2000           27533 07571  1/RTMUM            2DEC*    .45162595  E-4        B14*
000252: 22,2002           25004 06702  1/RTMUE            2DEC*    .50087529  E-5        B17*
000253:                                                                                                  #  ************************************************************************
000254:
000255: 27,2000                                           SETLOC   P40S1
000256: 27,2000                                           BANK
000257: 27,2012                                           COUNT*   $$/S40.9
000258:
000259: 27,2012           55340 61710  EARTHMU            2DEC*    -3.986032  E10        B-36*           #  M(3)/CS(2)
000260: 31,2000                                           SETLOC   F2DPS*31
000261: 31,2000                                           BANK
000262: 31,2007                                           COUNT*   $$/F2DPS
000263:
000264: 31,2007           77765 53556  MOONG              2DEC     -1.6226    E-4        B2
000265: 30,2000                                           SETLOC   P12
000266: 30,2000                                           BANK
000267: 30,2002                                           COUNT*   $$/P12
000268:
000269: 30,2002           00072 16206  MUM(-37)           2DEC*    4.9027780  E8         B-37*
000270: 30,2004           00344 24331  MOONRATE           2DEC*    .26616994890062991 E-7        B+19*           #  RAD/CS.
000271: 33,2000                                           SETLOC   SERVICES
000272: 33,2000                                           BANK
000273: 33,2031                                           COUNT*   $$/SERV
000274:
000275:                                                                                                  #  *** THE ORDER OF THE FOLLOWING TWO CONSTANTS MUST BE PRESERVED *********
000276:
000277: 33,2031           61377 55754  -MUDT              2DEC*    -7.9720645 E+12       B-44*
000278: 33,2033           77644 65556  -MUDT1             2DEC*    -9.8055560 E+10       B-44*
000279:


000281:                                                                                                  #  ************************************************************************
000282:
000283: 33,2035           64453 55670  -MUDTMUN           2DEC*    -9.8055560 E+10       B-38*
000284: 33,2037           00002 11777  RESQ               2DEC*    40.6809913 E12        B-58*
000285: 33,2041           01023 37155  20J                2DEC     3.24692010 E-2
000286: 33,2043           00065 06244  2J                 2DEC     3.24692010 E-3
000287: 14,2000                                           SETLOC   P50S1
000288: 14,2000                                           BANK
000289: 14,2000                                           COUNT*   $$/LOSAM
000290:
000291: 14,2000           26723 00450  RSUBEM             2DEC     384402000  B-29
000292: 14,2002           00065 01265  RSUBM              2DEC     1738090    B-29
000293: 14,2004           00302 24533  RSUBE              2DEC     6378166    B-29
000294: 14,2006           00052 04047  ROE                2DEC     .00257125
000295: 04,2000                                           SETLOC   CONICS1
000296: 04,2000                                           BANK
000297: 04,2000                                           COUNT*   $$/LT-LG
000298:
000299: 04,2000           00302 17755  ERAD               2DEC     6373338    B-29                       #  PAD RADIUS
000300: 04,2002           00065 01265  504RM              2DEC     1738090    B-29                       #  METERS B-29 (EQUATORIAL MOON RADIUS)
000301: 04,2000                                           SETLOC   CONICS1
000302: 04,2000                                           BANK
000303: 04,2004                                           COUNT*   $$/CONIC
000304:
000305:                                                                                                  #  *** THE ORDER OF THE FOLLOWING CONSTANTS MUST BE PRESERVED *************
000306:
000307: 04,2004           22437 16067  MUTABLE            2DEC*    3.986032   E10        B-36*           #  MUE
000308: 04,2006           15625 21042                     2DEC*    .25087606  E-10       B+34*           #  1/MUE
000309: 04,2010           30276 04773                     2DEC*    1.99650495 E5         B-18*           #  SQRT(MUE)
000310: 04,2012           25004 06702                     2DEC*    .50087529  E-5        B+17*           #  1/SQRT(MUE)
000311:
000312:
000313: 04,2014           16471 01352                     2DEC*    4.902778   E8         B-30*           #  MUM
000314: 04,2016           21412 20500                     2DEC*    .203966    E-8        B+28*           #  1/MUM
000315:


000317: 04,2020           25477 03367                     2DEC*    2.21422176 E4         B-15*           #  SQRT(MUM)
000318: 04,2022           27533 07571                     2DEC*    .45162595  E-4        B+14*           #  1/SQRT(MUM)
000319:                                                                                                  #  ************************************************************************
000320:
000321: 13,2000                                           SETLOC   INTINIT
000322: 13,2000                                           BANK
000323: 13,2000                                           COUNT*   $$/INTIN
000324:
000325: 13,2000           07112 06620  OMEGMOON           2DEC*    2.66169947 E-8        B+23*
000326:
000327: 13,2000                                           SETLOC   ORBITAL2
000328: 13,2000                                           BANK
000329: 13,2002                                           COUNT*   $$/ORBIT
000330:
000331:                                                                                                  #  *** THE ORDER OF THE FOLLOWING CONSTANTS MUST NOT BE CHANGED ***********
000332:
000333: 13,2002           27446 14620                     2DEC*    1.32715445 E16        B-54*           #  S
000334: 13,2004           16471 01352  MUM                2DEC*    4.9027780  E8         B-30*           #  M
000335: 13,2006           22437 16067  MUEARTH            2DEC*    3.986032   E10        B-36*
000336: 13,2010           00000 00000                     2DEC     0          B-28
000337: 13,2012           02302 24736  J4REQ/J3           2DEC*    .4991607391 E7         B-26*
000338: 13,2014           00000 00000                     2DEC     0          B-28
000339: 13,2016           77776 53032  2J3RE/J2           2DEC*    -.1355426363 E5         B-27*
000340: 13,2020           10407 05344                     2DEC*    .3067493316 E18        B-60*
000341: 13,2022           13710 35320  J2REQSQ            2DEC*    1.75501139 E21        B-72*
000342: 13,2024           12160 12124  3J22R2MU           2DEC*    9.20479048 E16        B-58*
000343:                                                                                                  #  ************************************************************************
000344:
000345: 27,2000                                           SETLOC   TOF-FF1
000346: 27,2000                                           BANK
000347: 27,2014                                           COUNT*   $$/TFF
000348:
000349: 27,2014           24775 30424  1/RTMU             2DEC*    .5005750271 E-5        B17*            #  MODIFIED EARTH MU
000350:
000351: 42,2000                                           SETLOC   SBAND
000352: 42,2000                                           BANK
000353: 42,2000                                           COUNT*   $$/R05
000354:


000356: 42,2000           26723 00450  REMDIST            2DEC     384402000  B-29                       #  MEAN DISTANCE BETWEEN EARTH AND MOON.
000357:


000359:                                                                                                  #  PHYSICAL CONSTANTS (TIME - VARIANT)
000360: 14,2000                                           SETLOC   STARTAB
000361: 14,2000                                           BANK
000362: 14,2010                                           COUNT*   $$/STARS
000363:
000364: 14,2010           15261 27231                     2DEC     +.8341953207 B-1                        #  STAR 37       X
000365: 14,2012           74126 61161                     2DEC     -.2394362567 B-1                        #  STAR 37       Y
000366: 14,2014           70032 54470                     2DEC     -.4967780649 B-1                        #  STAR 37       Z
000367:
000368: 14,2016           15013 10432                     2DEC     +.8138753897 B-1                        #  STAR 36       X
000369: 14,2020           67066 40370                     2DEC     -.5559063490 B-1                        #  STAR 36       Y
000370: 14,2022           02550 31133                     2DEC     +.1690413589 B-1                        #  STAR 36       Z
000371:
000372: 14,2024           07207 24243                     2DEC     +.4540570017 B-1                        #  STAR 35       X
000373: 14,2026           67275 67544                     2DEC     -.5393383149 B-1                        #  STAR 35       Y
000374: 14,2030           13261 25121                     2DEC     +.7091871552 B-1                        #  STAR 35       Z
000375:
000376: 14,2032           05075 16350                     2DEC     +.3200014224 B-1                        #  STAR 34       X
000377: 14,2034           70715 55404                     2DEC     -.4436740480 B-1                        #  STAR 34       Y
000378: 14,2036           62466 54577                     2DEC     -.8371095679 B-1                        #  STAR 34       Z
000379:
000380: 14,2040           10650 17202                     2DEC     +.5518160037 B-1                        #  STAR 33       X
000381: 14,2042           63234 43704                     2DEC     -.7934422090 B-1                        #  STAR 33       Y
000382: 14,2044           73710 50170                     2DEC     -.2568045150 B-1                        #  STAR 33       Z
000383:
000384: 14,2046           07203 13612                     2DEC     +.4535361097 B-1                        #  STAR 32       X
000385: 14,2050           61746 77370                     2DEC     -.8780537171 B-1                        #  STAR 32       Y
000386: 14,2052           02343 05340                     2DEC     +.1527307006 B-1                        #  STAR 32       Z
000387:
000388: 14,2054           03235 14762                     2DEC     +.2067145272 B-1                        #  STAR 31       X
000389: 14,2056           62030 51212                     2DEC     -.8720349419 B-1                        #  STAR 31       Y
000390: 14,2060           70715 64117                     2DEC     -.4436486945 B-1                        #  STAR 31       Z
000391:
000392: 14,2062           01744 11157                     2DEC     +.1216171923 B-1                        #  STAR 30       X
000393: 14,2064           63531 66055                     2DEC     -.7703014754 B-1                        #  STAR 30       Y
000394:


000396: 14,2066           12007 37503                     2DEC     +.6259751556 B-1                        #  STAR 30       Z
000397:
000398: 14,2070           76145 53477                     2DEC     -.1126265542 B-1                        #  STAR 29       X
000399: 14,2072           60372 43624                     2DEC     -.9694679589 B-1                        #  STAR 29       Y
000400: 14,2074           03370 15121                     2DEC     +.2178236347 B-1                        #  STAR 29       Z
000401:
000402: 14,2076           76123 64245                     2DEC     -.1147906312 B-1                        #  STAR 28       X
000403: 14,2100           72437 45623                     2DEC     -.3399437395 B-1                        #  STAR 28       Y
000404: 14,2102           61041 57124                     2DEC     -.9334138229 B-1                        #  STAR 28       Z
000405:
000406: 14,2104           72275 55365                     2DEC     -.3518772846 B-1                        #  STAR 27       X
000407: 14,2106           62641 72150                     2DEC     -.8239967165 B-1                        #  STAR 27       Y
000408: 14,2110           70712 41542                     2DEC     -.4440853383 B-1                        #  STAR 27       Z
000409:
000410: 14,2112           67363 50441                     2DEC     -.5328042377 B-1                        #  STAR 26       X
000411: 14,2114           64426 77263                     2DEC     -.7159448596 B-1                        #  STAR 26       Y
000412: 14,2116           07157 34056                     2DEC     +.4511569595 B-1                        #  STAR 26       Z
000413:
000414: 14,2120           63326 77723                     2DEC     -.7862552143 B-1                        #  STAR 25       X
000415: 14,2122           67516 72566                     2DEC     -.5216265404 B-1                        #  STAR 25       Y
000416: 14,2124           05231 14031                     2DEC     +.3312227199 B-1                        #  STAR 25       Z
000417:
000418: 14,2126           64753 63156                     2DEC     -.6899901699 B-1                        #  STAR 24       X
000419: 14,2130           71237 42272                     2DEC     -.4180817959 B-1                        #  STAR 24       Y
000420: 14,2132           66427 64260                     2DEC     -.5908647707 B-1                        #  STAR 24       Z
000421:
000422: 14,2134           66546 73302                     2DEC     -.5811943804 B-1                        #  STAR 23       X
000423: 14,2136           73261 73575                     2DEC     -.2907877154 B-1                        #  STAR 23       Y
000424: 14,2140           14122 07016                     2DEC     +.7600365758 B-1                        #  STAR 23       Z
000425:
000426: 14,2142           61247 42015                     2DEC     -.9171065276 B-1                        #  STAR 22       X
000427: 14,2144           72314 67004                     2DEC     -.3500098785 B-1                        #  STAR 22       Y
000428: 14,2146           74744 74104                     2DEC     -.1908106439 B-1                        #  STAR 22       Z
000429:


000431: 14,2150           70605 63103                     2DEC     -.4524416631 B-1                        #  STAR 21       X
000432: 14,2152           77154 54113                     2DEC     -.0492700670 B-1                        #  STAR 21       Y
000433: 14,2154           61601 62472                     2DEC     -.8904319187 B-1                        #  STAR 21       Z
000434:
000435: 14,2156           60604 63166                     2DEC     -.9525633510 B-1                        #  STAR 20       X
000436: 14,2160           77033 63044                     2DEC     -.0591313500 B-1                        #  STAR 20       Y
000437: 14,2162           73162 53261                     2DEC     -.2985406935 B-1                        #  STAR 20       Z
000438:
000439: 14,2164           60431 63350                     2DEC     -.9656240240 B-1                        #  STAR 19       X
000440: 14,2166           00660 22763                     2DEC     +.0528067543 B-1                        #  STAR 19       Y
000441: 14,2170           04045 01424                     2DEC     +.2545224762 B-1                        #  STAR 19       Z
000442:
000443: 14,2172           62165 45335                     2DEC     -.8606970465 B-1                        #  STAR 18       X
000444: 14,2174           07327 21564                     2DEC     +.4638127405 B-1                        #  STAR 18       Y
000445: 14,2176           03267 34557                     2DEC     +.2099484122 B-1                        #  STAR 18       Z
000446:
000447: 14,2200           63472 50705                     2DEC     -.7741360248 B-1                        #  STAR 17       X
000448: 14,2202           11661 21433                     2DEC     +.6154234025 B-1                        #  STAR 17       Y
000449: 14,2204           75501 72421                     2DEC     -.1482142053 B-1                        #  STAR 17       Z
000450:
000451: 14,2206           70431 65316                     2DEC     -.4656165921 B-1                        #  STAR 16       X
000452: 14,2210           07510 12666                     2DEC     +.4775804724 B-1                        #  STAR 16       Y
000453: 14,2212           13727 21520                     2DEC     +.7450624681 B-1                        #  STAR 16       Z
000454:
000455: 14,2214           72161 43161                     2DEC     -.3611937602 B-1                        #  STAR 15       X
000456: 14,2216           11144 32323                     2DEC     +.5748077840 B-1                        #  STAR 15       Y
000457: 14,2220           64200 76476                     2DEC     -.7342581827 B-1                        #  STAR 15       Z
000458:
000459: 14,2222           71323 70264                     2DEC     -.4116502629 B-1                        #  STAR 14       X
000460: 14,2224           16403 05717                     2DEC     +.9066387314 B-1                        #  STAR 14       Y
000461: 14,2226           01365 17662                     2DEC     +.0924676785 B-1                        #  STAR 14       Z
000462:
000463: 14,2230           75055 75101                     2DEC     -.1818957154 B-1                        #  STAR 13       X
000464:


000466: 14,2232           17030 32613                     2DEC     +.9405318128 B-1                        #  STAR 13       Y
000467: 14,2234           73321 65667                     2DEC     -.2869039173 B-1                        #  STAR 13       Z
000468:
000469: 14,2236           77010 66714                     2DEC     -.0614360769 B-1                        #  STAR 12       X
000470: 14,2240           11515 05314                     2DEC     +.6031700106 B-1                        #  STAR 12       Y
000471: 14,2242           63215 53630                     2DEC     -.7952430739 B-1                        #  STAR 12       Z
000472:
000473: 14,2244           02145 21163                     2DEC     +.1373948084 B-1                        #  STAR 11       X
000474: 14,2246           12715 21123                     2DEC     +.6813398852 B-1                        #  STAR 11       Y
000475: 14,2250           13401 26125                     2DEC     +.7189566241 B-1                        #  STAR 11       Z
000476:
000477: 14,2252           03161 14610                     2DEC     +.2013426456 B-1                        #  STAR 10       X
000478: 14,2254           17401 36465                     2DEC     +.9689888101 B-1                        #  STAR 10       Y
000479: 14,2256           75552 56556                     2DEC     -.1432544058 B-1                        #  STAR 10       Z
000480:
000481: 14,2260           05473 01565                     2DEC     +.3509587451 B-1                        #  STAR 9        X
000482: 14,2262           16217 31643                     2DEC     +.8925545449 B-1                        #  STAR 9        Y
000483: 14,2264           04417 22211                     2DEC     +.2831507435 B-1                        #  STAR 9        Z
000484:
000485: 14,2266           06444 33354                     2DEC     +.4107492871 B-1                        #  STAR 8        X
000486: 14,2270           07765 20153                     2DEC     +.4987190610 B-1                        #  STAR 8        Y
000487: 14,2272           14154 23613                     2DEC     +.7632590132 B-1                        #  STAR 8        Z
000488:
000489: 14,2274           13202 05024                     2DEC     +.7033883645 B-1                        #  STAR 7        X
000490: 14,2276           13243 07665                     2DEC     +.7074274193 B-1                        #  STAR 7        Y
000491: 14,2300           01067 01242                     2DEC     +.0692188921 B-1                        #  STAR 7        Z
000492:
000493: 14,2302           10561 05666                     2DEC     +.5450662811 B-1                        #  STAR 6        X
000494: 14,2304           10401 00357                     2DEC     +.5313738486 B-1                        #  STAR 6        Y
000495: 14,2306           65477 61124                     2DEC     -.6484940879 B-1                        #  STAR 6        Z
000496:
000497: 14,2310           00154 03111                     2DEC     +.0131955837 B-1                        #  STAR 5        X
000498: 14,2312           00077 35676                     2DEC     +.0078043793 B-1                        #  STAR 5        Y
000499:


000501: 14,2314           17777 01142                     2DEC     +.9998824772 B-1                        #  STAR 5        Z
000502:
000503: 14,2316           07674 11416                     2DEC     +.4917355618 B-1                        #  STAR 4        X
000504: 14,2320           03415 12707                     2DEC     +.2203784481 B-1                        #  STAR 4        Y
000505: 14,2322           62413 43135                     2DEC     -.8423950835 B-1                        #  STAR 4        Z
000506:
000507: 14,2324           07511 03423                     2DEC     +.4776746280 B-1                        #  STAR 3        X
000508: 14,2326           01672 12054                     2DEC     +.1164935557 B-1                        #  STAR 3        Y
000509: 14,2330           15735 15405                     2DEC     +.8707790771 B-1                        #  STAR 3        Z
000510:
000511: 14,2332           16745 21763                     2DEC     +.9342726691 B-1                        #  STAR 2        X
000512: 14,2334           02613 24675                     2DEC     +.1732973829 B-1                        #  STAR 2        Y
000513: 14,2336           73007 50430                     2DEC     -.3116128956 B-1                        #  STAR 2        Z
000514:
000515: 14,2340           15777 12457                     2DEC     +.8749183324 B-1                        #  STAR 1        X
000516: 14,2342           00324 03265                     2DEC     +.0258916990 B-1                        #  STAR 1        Y
000517: 14,2344           07571 17020                     2DEC     +.4835778442 B-1                        #  STAR 1        Z
000518:
000519: 14,2346           15325        CATLOG             DEC      6869       B-14
000520:
000521:                                                                                                  #  ************************************************************************
000522:
000523:
000524: 05,2000                                           SETLOC   EPHEM1
000525: 05,2000                                           BANK
000526: 05,2001                                           COUNT*   $$/EPHEM
000527:
000528: 05,2001           20000 00000  KONMAT             2DEC     1.0        B-1                        #          *************
000529: 05,2003           00000 00000                     2DEC     0          B-28                       #                      *
000530: 05,2005           00000 00000                     2DEC     0          B-28                       #                      *
000531: 05,2007           00000 00000                     2DEC     0          B-28                       #                      *
000532: 05,2011           16533 30007                     2DEC     .91745     B-1                        #  K1 COS(OBL)         *
000533: 05,2013           77333 56654                     2DEC     -.03571    B-1                        #  K2 SIN(OBL)SIN(IM)  *
000534: 05,2015           00000 00000                     2DEC     0          B-28                       #                      *
000535: 05,2017           06273 03275                     2DEC     .39784     B-1                        #  K3 SIN(OBL)         *
000536:


000538: 05,2021           01242 24467                     2DEC     .082354    B-1                        #  K4 COS(OBL)SIN(IM)  *
000539: 05,2023           00020 17260  CSTODAY            2DEC     8640000    B-33                       #                      * NOTE           *
000540: 05,2025           00002        RCB-13             OCT      00002                                 #                      * TABLES CONTAIN *
000541: 05,2026           00000                           OCT      00000                                 #                      * CONSTANTS FOR  *
000542: 05,2027           22572 27214  RATESP             2DEC     .03660098  B+4                        #                      * 1968 - 1969    *
000543: 05,2031           01315 26177                     2DEC     .00273779  B+4                        #  LOSR                *
000544: 05,2033           77731 55217                     2DEC     -.00014719 B+4                        #  LONR                *
000545: 05,2035           16455 04475                     2DEC     .455880394                            #  LOMO                *
000546: 05,2037           10637 04312                     2DEC     .275337971                            #  LOSO                *
000547: 05,2041           01215 26351                     2DEC     .0398987882                            #  LONO                *
000548: 05,2043           01070 35243  VAL67              2DEC*    .017361944 B+1                        #  AMOD                *
000549: 05,2045           11126 14467                     2DEC     .286523072                            #  AARG                *
000550: 05,2047           02245 06475                     2DEC     .036291712 B+1                        #  1/27                *
000551: 05,2051           00163 32331                     2DEC     .003534722 B+1                        #  BMOD                *
000552: 05,2053           03476 03302                     2DEC     .113165625                            #  BARG                *
000553: 05,2055           02000 00000                     2DEC     .03125     B+1                        #  1/32                *
000554: 05,2057           00256 25374                     2DEC     .005330555 B+1                        #  CMOD                *
000555: 05,2061           77525 53143                     2DEC     -.010415660                            #  CARG       VALUE COMPUTED USING 1/364.24
000556: 05,2063           00131 26730                     2DEC     .002737925 B+1                        #  1/365   *************
000557:                                                                                                  #  ************************************************************************
000558:
000559: 24,2000                                           SETLOC   PLANTIN
000560: 24,2000                                           BANK
000561: 24,2000                                           COUNT*   $$/LUROT
000562:
000563: 24,2000           17775 01734  COSI               2DEC     .99964115  B-1                        #  COS(1 DEG 32.1 MIN) B-1
000564: 24,2002           00333 16153  SINI               2DEC     .02678760  B-1                        #  SIN(1 DEG 32.1 MIN) B-1
000565: 24,2004           77665 42175  NODDOT             2DEC     -.457335143 E-2                        #  REVS/CSEC B+28=-1.07047016 E-8  RAD/SEC
000566: 24,2006           22211 00265  FDOT               2DEC     .570862491                            #  REVS/CSEC B+27= 2.67240019 E-6  RAD/SEC
000567:


000569: 24,2010           77777 77767  BDOT               2DEC     -3.07500412 E-8                        #  REVS/CSEC B+28=-7.19756666 E-14 RAD/SEC
000570: 24,2012           41215 66331  NODIO              2DEC     -.960101269                            #  REVS B-O    = -6.03249419  RAD
000571: 24,2014           15237 26751  FSUBO              2DEC     .415998375                            #  REVS B-O    =  2.61379488  RAD
000572: 24,2016           02052 35713  BSUBO              2DEC     .0651205006                            #  REVS B-O    =  0.409164173 RAD
000573: 24,2020           37116 32630  WEARTH             2DEC     .973561855                            #  REVS/CSEC B+23=7.29211515 E-5 RAD/SEC

End of include-file CONTROLLED_CONSTANTS.agc.  Parent file is MAIN.agc


