
Source Code


000002:                                                                                                  ## Copyright:   Public domain.
000003:                                                                                                  ## Filename:    DAP_INTERFACE_SUBROUTINES.agc
000004:                                                                                                  ## Purpose:     The main source file for Luminary revision 069.
000005:                                                                                                  ##              It is part of the source code for the original release
000006:                                                                                                  ##              of the flight software for the Lunar Module's (LM) Apollo
000007:                                                                                                  ##              Guidance Computer (AGC) for Apollo 10. The actual flown
000008:                                                                                                  ##              version was Luminary 69 revision 2, which included a
000009:                                                                                                  ##              newer lunar gravity model and only affected module 2.
000010:                                                                                                  ##              This file is intended to be a faithful transcription, except
000011:                                                                                                  ##              that the code format has been changed to conform to the
000012:                                                                                                  ##              requirements of the yaYUL assembler rather than the
000013:                                                                                                  ##              original YUL assembler.
000014:                                                                                                  ## Reference:   pp. 1401-1404
000015:                                                                                                  ## Assembler:   yaYUL
000016:                                                                                                  ## Contact:     Ron Burkey <info@sandroid.org>.
000017:                                                                                                  ## Website:     www.ibiblio.org/apollo/index.html
000018:                                                                                                  ## Mod history: 2016-12-13 MAS  Created from Luminary 99.
000019:                                                                                                  ##              2016-12-18 MAS  Updated from comment-proofed Luminary 99 version.
000020:                                                                                                  ##              2016-12-24 RRB  Updated for Luminary 69.
000021:                                                                                                  ##              2017-01-28 RSB  Proofed comment text using octopus/prooferComments
000022:                                                                                                  ##                              but no errors found.
000023:


000025: 20,2123                                           BANK     20
000026: 20,2000                                           SETLOC   DAPS3
000027: 20,2000                                           BANK
000028:
000029: 20,2123  E6,1633                                  EBANK=   CDUXD
000030: 20,2123                                           COUNT*   $$/DAPIF
000031:
000032:                                                                                                  #  MOD 0         DATE    11/15/66        BY GEORGE W. CHERRY
000033:                                                                                                  #  MOD 1                  1/23/67        MODIFICATION BY PETER ADLER
000034:
000035:                                                                                                  #  FUNCTIONAL DESCRIPTION
000036:                                                                                                  #        HEREIN ARE A COLLECTION OF SUBROUTINES WHICH ALLOW MISSION CONTROL PROGRAMS TO CONTROL THE MODE
000037:                                                                                                  #        AND INTERFACE WITH THE DAP.
000038:
000039:                                                                                                  #  CALLING SEQUENCES
000040:                                                                                                  #        IN INTERRUPT OR WITH INTERRUPT INHIBITED
000041:                                                                                                  #                TC      IBNKCALL
000042:                                                                                                  #                FCADR   ROUTINE
000043:                                                                                                  #        IN A JOB WITHOUT INTERRUPT INHIBITED
000044:                                                                                                  #                INHINT
000045:                                                                                                  #                TC      IBNKCALL
000046:                                                                                                  #                FCADR   ROUTINE
000047:                                                                                                  #                RELINT
000048:
000049:                                                                                                  #  OUTPUT
000050:                                                                                                  #        SEE INDIVIDUAL ROUTINES BELOW
000051:
000052:                                                                                                  #  DEBRIS
000053:                                                                                                  #        A, L, AND SOMETIMES MDUETEMP                    ODE     NOT IN PULSES MODE
000054:


000056:                                                                                                  #  SUBROUTINE NAMES:
000057:                                                                                                  #        SETMAXDB, SETMINDB, RESTORDB, PFLITEDB
000058:                                                                                                  #  MODIFIED:     30 JANUARY 1968 BY P S WEISSMAN TO CREATE RESTORDB.
000059:                                                                                                  #  MODIFIED:     1 MARCH 1968 BY P S WEISSMAN TO SAVE EBANK AND CREATE PFLITEDB
000060:
000061:                                                                                                  #  FUNCTIONAL DESCRIPTION:
000062:                                                                                                  #        SETMAXDB - SET DEADBAND TO 5.0 DEGREES
000063:                                                                                                  #        SETMINDB - SET DEADBAND TO 0.3 DEGREE
000064:                                                                                                  #        RESTORDB - SET DEADBAND TO MAX OR MIN ACCORDING TO SETTING OF DBSELECT BIT OF DAPBOOLS
000065:                                                                                                  #        PFLITEDB - SET DEADBAND TO 1.0 DEGREE AND ZERO THE COMMANDED ATTITUDE CHANGE AND COMMANDED RATE
000066:
000067:                                                                                                  #        ALL ENTRIES SET UP A NOVAC JOB TO DO 1/ACCS SO THAT THE TJETLAW SWITCH CURVES ARE POSITIONED TO
000068:                                                                                                  #        REFLECT THE NEW DEADBAND.  IT SHOULD BE NOTED THAT THE DEADBAND REFERS TO THE ATTITUDE IN THE P-, U-, AND V-AXES.
000069:
000070:                                                                                                  #  SUBROUTINE CALLED:    NOVAC
000071:
000072:                                                                                                  #  CALLING SEQUENCE:     SAME AS ABOVE
000073:                                                                                                  #                        OR      TC RESTORDB +1    FROM ALLCOAST
000074:
000075:                                                                                                  #  DEBRIS:               A, L, Q, RUPTREG1, (ITEMPS IN NOVAC)
000076:
000077: 20,2123           30111        RESTORDB           CAE      DAPBOOLS                              #  DETERMINE CREW-SELECTED DEADBAND.
000078: 20,2124           74750                           MASK     DBSELECT
000079: 20,2125           00006                           EXTEND
000080: 20,2126           12140                           BZF      SETMINDB
000081:
000082: 20,2127           32151        SETMAXDB           CAF      WIDEDB                                #  SET 5 DEGREE DEADBAND.
000083: 20,2130           55346                 +1        TS       DB
000084:
000085: 20,2131           00006                           EXTEND                                         #  SET UP JOB TO RE-POSITION SWITCH CURVES.
000086: 20,2132           22070                           QXCH     RUPTREG1
000087: 20,2133           37714        CALLACCS           CAF      PRIO27
000088: 20,2134           05072                           TC       NOVAC
000089: 20,2135  E6,1537                                  EBANK=   AOSQ
000090: 20,2135           02454 40106                     2CADR    1/ACCJOB
000091:
000092: 20,2137           00070                           TC       RUPTREG1                              #  RETURN TO CALLER.
000093:
000094: 20,2140           32150        SETMINDB           CAF      NARROWDB                              #  SET 0.3 DEGREE DEADBAND.
000095: 20,2141           12130                           TCF      SETMAXDB   +1
000096:
000097: 20,2142           00006        PFLITEDB           EXTEND                                         #  THE RETURN FROM CALLACCS IS TO RUPTREG1.
000098: 20,2143           22070                           QXCH     RUPTREG1
000099: 20,2144           02153                           TC       ZATTEROR                              #  ZERO THE ERRORS AND COMMANDED RATES.
000100: 20,2145           32152                           CAF      POWERDB                               #  SET DB TO 1.0 DEG.
000101: 20,2146           55346                           TS       DB
000102: 20,2147           12133                           TCF      CALLACCS                              #  SET UP 1/ACCS AND RETURN TO CALLER.
000103: 20,2150           00155        NARROWDB           OCTAL    00155                                 #  0.3 DEGREE SCALED AT 45.


000105: 20,2151           03434        WIDEDB             OCTAL    03434                                 #  5.0 DEGREES SCALED AT 45.
000106: 20,2152           00554        POWERDB            DEC      .02222                                #  1.0 DEGREE SCALED AT 45.
000107:
000108: 20,2153           35015        ZATTEROR           CAF      EBANK6
000109: 20,2154           56003                           XCH      EBANK
000110: 20,2155           54001                           TS       L                                     #  SAVE CALLERS EBANK IN L.
000111: 20,2156           30032                           CAE      CDUX
000112: 20,2157           55633                           TS       CDUXD
000113: 20,2160           30033                           CAE      CDUY
000114: 20,2161           55634                           TS       CDUYD
000115: 20,2162           30034                           CAE      CDUZ
000116: 20,2163           55635                           TS       CDUZD
000117: 20,2164           12170                           TCF      STOPRATE   +3
000118:
000119: 20,2165           35015        STOPRATE           CAF      EBANK6
000120: 20,2166           56003                           XCH      EBANK
000121: 20,2167           54001                           TS       L                                     #  SAVE CALLERS EBANK IN L.
000122: 20,2170           34755                 +3        CAF      ZERO
000123: 20,2171           55641                           TS       OMEGAPD
000124: 20,2172           55642                           TS       OMEGAQD
000125: 20,2173           55643                           TS       OMEGARD
000126: 20,2174           55636                           TS       DELCDUX
000127: 20,2175           55637                           TS       DELCDUY
000128: 20,2176           55640                           TS       DELCDUZ
000129: 20,2177           55277                           TS       DELPEROR
000130: 20,2200           55300                           TS       DELQEROR
000131: 20,2201           55301                           TS       DELREROR
000132: 20,2202           22003                           LXCH     EBANK                                 #  RESTORE CALLERS EBANK.
000133: 20,2203           00002                           TC       Q
000134:
000135:                                                                                                  #  SUBROUTINE NAME:      ALLCOAST
000136:                                                                                                  #  WILL BE CALLED BY FRESH STARTS AND ENGINE OFF ROUTINES.               -
000137:
000138:                                                                                                  #  CALLING SEQUENCE:     (SAME AS ABOVE)
000139:
000140:                                                                                                  #  EXIT:                 RETURN TO Q.
000141:
000142:                                                                                                  #  SUBROUTINES CALLED:   STOPRATE, RESTORDB, NOVAC
000143:
000144:                                                                                                  #  ZERO:                 (FOR ALL AXES) AOS, ALPHA, AOSTERM, OMEGAD, DELCDU, DELEROR
000145:
000146:                                                                                                  #  OUTPUT:               DRIFTBIT/DAPBOOLS, DB, JOB TO DO 1/ACCS
000147:
000148:                                                                                                  #  DEBRIS:               A, L, Q, RUPTREG1, RUPTREG2, (ITEMPS IN NOVAC)
000149:
000150: 20,2204           00006        ALLCOAST           EXTEND                                         #  SAVE Q FOR RETURN
000151: 20,2205           22071                           QXCH     RUPTREG2


000153: 20,2206           02165                           TC       STOPRATE                              #  CLEAR RATE INTERFACE.  RETURN WITH A=0
000154: 20,2207           22003                           LXCH     EBANK                                 #  AND L=EBANK6.  SAVE CALLERS EBANK.
000155: 20,2210           55537                           TS       AOSQ
000156: 20,2211           55540                           TS       AOSQ       +1
000157: 20,2212           55541                           TS       AOSR
000158: 20,2213           55542                           TS       AOSR       +1
000159: 20,2214           55422                           TS       ALPHAQ                                #  FOR DOWNLIST.
000160: 20,2215           55423                           TS       ALPHAR
000161: 20,2216           55545                           TS       AOSQTERM
000162: 20,2217           55546                           TS       AOSRTERM
000163: 20,2220           22003                           LXCH     EBANK                                 #  RESTORE EBANK (EBANK6 NO LONGER NEEDED)
000164:
000165: 20,2221           40111                           CS       DAPBOOLS                              #  SET UP DRIFTBIT
000166: 20,2222           74744                           MASK     DRIFTBIT
000167: 20,2223           26111                           ADS      DAPBOOLS
000168: 20,2224           02124                           TC       RESTORDB   +1                         #  RESTORE DEADBANK TO CREW-SELECTED VALUE.
000169:
000170: 20,2225           00071                           TC       RUPTREG2                              #  RETURN.
000171:

End of include-file DAP_INTERFACE_SUBROUTINES.agc.  Parent file is MAIN.agc


