
Source Code


000002:                                                                                                  ## Copyright:   Public domain.
000003:                                                                                                  ## Filename:    DISPLAY_INTERFACE_ROUTINES.agc
000004:                                                                                                  ## Purpose:     The main source file for Luminary revision 069.
000005:                                                                                                  ##              It is part of the source code for the original release
000006:                                                                                                  ##              of the flight software for the Lunar Module's (LM) Apollo
000007:                                                                                                  ##              Guidance Computer (AGC) for Apollo 10. The actual flown
000008:                                                                                                  ##              version was Luminary 69 revision 2, which included a
000009:                                                                                                  ##              newer lunar gravity model and only affected module 2.
000010:                                                                                                  ##              This file is intended to be a faithful transcription, except
000011:                                                                                                  ##              that the code format has been changed to conform to the
000012:                                                                                                  ##              requirements of the yaYUL assembler rather than the
000013:                                                                                                  ##              original YUL assembler.
000014:                                                                                                  ## Reference:   pp. 1335-1367
000015:                                                                                                  ## Assembler:   yaYUL
000016:                                                                                                  ## Contact:     Ron Burkey <info@sandroid.org>.
000017:                                                                                                  ## Website:     www.ibiblio.org/apollo/index.html
000018:                                                                                                  ## Mod history: 2016-12-13 MAS  Created from Luminary 99.
000019:                                                                                                  ##              2016-12-18 MAS  Updated from comment-proofed Luminary 99 version.
000020:                                                                                                  ##              2017-01-16 MAS  Updated for Luminary 69.
000021:                                                                                                  ##              2017-01-28 RSB  Proofed comment text using octopus/prooferComments
000022:                                                                                                  ##                              but no errors found.
000023:                                                                                                  ##              2017-03-13 RSB  Comment-text fixes noted in proofing Luminary 116.
000024:                                                                                                  ##              2017-03-15 RSB  Comment-text fixes identified in 5-way
000025:                                                                                                  ##                              side-by-side diff of Luminary 69/99/116/131/210.
000026:


000028:                                                                                                  #  DISPLAYS CAN BE CLASSIFIED INTO THE FOLLOWING CATEGORIES-
000029:
000030:                                                                                                  #      1. PRIORITY DISPLAYS- DISPLAYS WHICH TAKE PRIORITY OVER ALL OTHER DISPLAYS. USUALLY THESE DISPLAYS ARE SENT
000031:                                                                                                  #         OUT UNDER CRITICAL ALARM CONDITIONS.
000032:                                                                                                  #      2. EXTENDED VERB DISPLAYS- ALL EXTENDED VERBS AND MARK ROUTINES SHOULD USE EXTENDED VERB (MARK) DISPLAYS.
000033:                                                                                                  #      3. NORMAL DISPLAYS- ALL MISSION PROGRAM DISPLAYS WHICH INTERFACE WITH THE ASTRONAUT DURING THE NORMAL
000034:                                                                                                  #         SEQUENCE OF EVENTS.
000035:                                                                                                  #      4. MISC. DISPLAYS- ALL DISPLAYS NOT HANDLED BY THE DISPLAY INTERFACEROUTINES. THESE INCLUDE SUCH DISPLAYS AS
000036:                                                                                                  #         MM DISPLAYS AND SPECIAL PURPOSE DISPLAYS HANDLED BY PINBALL.
000037:
000038:
000039:                                                                                                  #      5. ASTRONAUT INITIATED DISPLAYS- ALL DISPLAYS INITIATED EXTERNALLY.
000040:                                                                                                  #  THE FOLLOWING TERMS ARE USED TO DESCRIBE THE STATUS OF DISPLAYS-
000041:
000042:                                                                                                  #      1. ACTIVE-THE DISPLAY WHICH IS (1) BEING DISPLAYED TO THE ASTRONAUT AND WAITING FOR A RESPONSE OR
000043:                                                                                                  #         (2) WAITING FIRST IN LINE FOR THE ASTRONAUT TO FINISH USING THE DSKY OR (3) BEING DISPLAYED ON THE DSKY
000044:                                                                                                  #         BUT NOT WAITING FOR A RESPONSE.
000045:                                                                                                  #      2. INACTIVE -A DISPLAY WHICH HAS (1) BEEN ACTIVE BUT WAS INTERRUPTEDBY A DISPLAY OF HIGHER PRIORITY,
000046:                                                                                                  #         (2) BEEN PUT INTO THE WAITING LIST AT TIME IT WAS REQUESTED DUE TO THE FACT A HIGHER PRIORITY DISPLAY
000047:                                                                                                  #         WAS ALREADY GOING, (3) BEEN INTERRUPTED BY THE ASTRONAUT (CALLED A PINBRANCH CONDITION, SINCE THIS TYPE
000048:                                                                                                  #         OF INACTIVE DISPLAY IS USUALLY REACTIVATED ONLY BY PINBALL) OR (4) A DISPLAY WHICH HAS FINISHED BUT STILL
000049:                                                                                                  #         HAS INFO SAVED FOR RESTART PURPOSES.
000050:
000051:
000052:                                                                                                  #  DISPLAY PRIORITIES WORK AS FOLLOWS-
000053:
000054:                                                                                                  #    INTERRUPTS-
000055:                                                                                                  #      1. THE ASTRONAUT CAN INTERRUPT ANY DISPLAY WITH AN EXTERNAL DISPLAY REQUEST.
000056:                                                                                                  #      2. INTERNAL DISPLAYS CAN NOT BE SENT OUT WHEN THE ASTRONAUT IS USING THE DSKY.
000057:                                                                                                  #      3. PRIORITY DISPLAYS INTERRUPT ALL OTHER TYPES OF INTERNAL DISPLAYS. A PRIORITY DISPLAY INTERRUPTING ANOTHER
000058:                                                                                                  #         PRIORITY DISPLAY WILL CAUSE AN ABORT UNLESS BIT14 IS SET FOR THE LINUS ROUTINE.
000059:                                                                                                  #      4. A MARK DISPLAY INTERRUPTS ANY NORMAL DISPLAY.
000060:                                                                                                  #      5. A MARK THAT INTERRUPTS A MARK COMPLETELY REPLACES IT.
000061:
000062:                                                                                                  #    ORDER OF WAITING DISPLAYS-
000063:                                                                                                  #      1. ASTRONAUT EXTERNAL USE
000064:                                                                                                  #      2. PRIORITY
000065:                                                                                                  #      3. INTERRUPTED MARK
000066:                                                                                                  #      4. INTERRUPTED NORMAL
000067:
000068:                                                                                                  #      5. MARK TO BE REQUESTED (SEE DESCRIPTION OF ENDMARK)
000069:                                                                                                  #      6. MARK WAITING
000070:                                                                                                  #      7. NORMAL WAITING
000071:


000073:                                                                                                  #  THE DISPLAY ROUTINES ARE INTENDED TO SERVE AS AN INTERFACE BETWEEN THE USER AND PINBALL.  THE
000074:                                                                                                  #  FOLLOWING STATEMENTS CAN BE MADE ABOUT NORMAL DISPLAYS AND PRIORITY DISPLAYS (A DESCRIPTION OF MARK ROUTINES
000075:                                                                                                  #  WILL FOLLOW LATER):
000076:
000077:                                                                                                  #       1.  ALL ROUTINES THAT END IN R HAVE AN IMMEDIATE RETURN TO THE USER.  FOR ALL FLASHING DISPLAYS THIS RETURN
000078:                                                                                                  #           IS TO THE USERS CALL CADR +4.  FOR THE ONLY NON FLASHING IMMEDIATE RETURN DISPLAY (GODSPR) THIS RETURN
000079:                                                                                                  #           IS TO THE USERS CALLING LOC +1.
000080:                                                                                                  #       2.  ALL ROUTINES NOT ENDING IN R DO NOT DO AN IMMEDIATE RETURN TO THE USER.
000081:                                                                                                  #       3.  ALL ROUTINES THAT END IN R START A SEPARATE JOB (MAKEPLAY) WITH USERS JOB PRIORITY.
000082:                                                                                                  #       4.  ALL ROUTINES NOT ENDING IN R BRANCH DIRECTLY TO MAKEPLAY WHICH MAKES THESE DISPLAYS A PART OF THE
000083:                                                                                                  #           USERS JOB.
000084:                                                                                                  #       5.  ALL DISPLAY ROUTINES ARE CALLED VIA BANKCALL.
000085:                                                                                                  #       6.  TO RESTART A DISPLAY THE USER WILL GENERALLY USE A PHASE OF ONE WITH DESIRED RESTART GROUP (SEE
000086:                                                                                                  #           DESCRIPTION OF RESTARTS).
000087:                                                                                                  #       7.  ALL FLASHING DISPLAYS HAVE 3 RETURNS TO THE USER FROM ASTRONAUT RESPONSES.  A TERMINATE (V34) BRANCHES
000088:                                                                                                  #           TO THE USERS CALL CADR +1.  A PROCEED (V33) BRANCHES TO THE USERS CALL CADR +2.  AN ENTER OR RECYCLE
000089:                                                                                                  #           (V32) BRANCHES TO THE USERS CALL CADR +3.
000090:                                                                                                  #       8.  ALL ROUTINES MUST BE USED UNDER EXECUTIVE CONTROL.
000091:
000092:                                                                                                  #  A DESCRIPTION OF EACH ROUTINE WITH AN EXAMPLE FOLLOWS:
000093:
000094:                                                                                                  #  GODSP IS USED TO DISPLAY A VERB NOUN ARRIVING IN A.  NO RETURN IS MADE TO THE USER.
000095:
000096:                                                                                                  #       1. GODSP IS NOT RESTARTABLE
000097:                                                                                                  #       2. A VERB PASTE WITH GODSP ALWAYS TURNS ON THE FLASH.
000098:                                                                                                  #                                                   CAF    VXXNYY
000099:                                                                                                  #                                                   TC     BANKCALL
000100:                                                                                                  #                                                   CADR   GODSP
000101:
000102:                                                                                                  #                                          VXXNYY   OCT    0XXYY
000103:
000104:                                                                                                  #  GODSPR IS THE SAME AS GODSP ONLY RETURN IS TO THE USER.
000105:
000106:                                                                                                  #                                                   CAF    VXXNYY
000107:                                                                                                  #                                                   TC     BANKCALL
000108:                                                                                                  #                                                   CADR   GODSPR
000109:
000110:                                                                                                  #                                                   ...    ...             IMMEDIATE RETURN OF GODSPR
000111:
000112:                                                                                                  #  GOFLASH DISPLAYS A FLASHING VERB NOUN WITH NO IMMEDIATE RETURN TO THE USER. 3 RETURNS ARE POSSIBLE FROM
000113:                                                                                                  #  THE ASTRONAUT (SEE NO. 7 ABOVE).
000114:
000115:                                                                                                  #                                                   CAF    VXXNYY          VXX NYY WILL BE A FLASHING VERB NOUN.
000116:                                                                                                  #                                                   TC     BANKCALL
000117:                                                                                                  #                                                   CADR   GOFLASH
000118:                                                                                                  #                                                   ...    ...             TERMINATE RETURN
000119:                                                                                                  #                                                   ...    ...             PROCEED RETURN
000120:                                                                                                  #                                                   ...    ...             ENTER OR RECYCLE RETURN
000121:
000122:                                                                                                  #  GOPERF1 IS ENTERED WITH DESIRED CHECKLIST VALUE IN A.  GOPERF1 WILL DISPLAY THIS VALUE IN R1 BY MEANS OF A


000124:                                                                                                  #  V01 N25.A FLASHING PLEASE PERFORM ON CHECKLIST ( V50 N25) IS THEN DISPLAYED.  NO IMMEDIATE RETURN IS MADE TO
000125:                                                                                                  #  USER (SEE NO. 7 ABOVE).
000126:
000127:                                                                                                  #  GOPERF1 BLANKS REGISTERS R2 AND R3
000128:                                                                                                  #                                                   CAF    OCTXX           CODE FOR CHECKLIST VALUE XX
000129:                                                                                                  #                                                   TC     BANKCALL
000130:                                                                                                  #                                                   CADR   GOPERF1
000131:                                                                                                  #                                                   ...    ...             TERMINATE RETURN
000132:                                                                                                  #                                                   ...    ...             PROCEED RETURN
000133:                                                                                                  #                                                   ...    ...             ENTER RETURN
000134:
000135:                                                                                                  #  GOPERF2 IS ENTERED WITH A VARIABLE NOUN AND V01 ( V00 FOR N10 OR N11) IN A.  GOPERF2 WILL FIRST DISPLAY THE
000136:                                                                                                  #  REQUESTED NOUN BY MEANS OF A V01NYY OR A V00NYY. PLEASE PERFORM ON NOUN (V50 NYY) THEN BECOMES A FLASHING
000137:                                                                                                  #  DISPLAY.  NO IMMEDIATE RETURN IS MADE TO THE USER (SEE NO. 7 ABOVE).
000138:
000139:                                                                                                  #  GOPERF2 DOES NOT BLANK ANY REGISTERS
000140:
000141:                                                                                                  #                                                   CAF    VXXNYY          VARIABLE NOUN YY. XX=00 OR 01.
000142:                                                                                                  #                                                   TC     BANKCALL
000143:                                                                                                  #                                                   CADR   GOPERF2
000144:                                                                                                  #                                                   ...    ...             TERMINATE RETURN
000145:                                                                                                  #                                                   ...    ...             PROCEED RETURN
000146:                                                                                                  #                                                   ...    ...             ENTER RETURN
000147:
000148:                                                                                                  #  GOPERF3 IS USED FOR A PLEASE PERFORM ON A PROGRAM NUMBER.  THE DESIRED PROGRAM NO. IS ENTERED IN A.  GOPERF3
000149:                                                                                                  #  DISPLAYS THE NO. BY MEANS OF A V06 N07 FOLLOWED BY A FLASHING V50 N07 FOR A PLEASE PERFORM. NO IMMEDIATE RETURN
000150:                                                                                                  #  IS MADE TO THE USER (SEE NO. 7 ABOVE).
000151:
000152:                                                                                                  #  GOPERF3 BLANKS REGISTERS R2 AND R3
000153:
000154:                                                                                                  #                                                   CAF    DECXX           REQUEST PERFORM ON PXX
000155:                                                                                                  #                                                   TC     BANKCALL
000156:                                                                                                  #                                                   CADR   GOPERF3
000157:                                                                                                  #                                                   ...    ...             TERMINATE RETURN
000158:                                                                                                  #                                                   ...    ...             PROCEED RETURN
000159:                                                                                                  #                                                   ...    ...             ENTER RETURN
000160:
000161:                                                                                                  #  GOPERF4 IS USED FOR A PLEASE PERFORM ON AN OPTION. THE DESIRED OPTION ISENTERED IN A AND STORED IN OPTION1.
000162:                                                                                                  #  GOPERF4 DISPLAYS R1 AND R2 BY MEANS OF A V04N06 FOLLOWED BY A FLASHING  V50N06 FOR A PLEASE PERFORM. NO
000163:                                                                                                  #  IMMEDIATE RETURN IS MADE TO THE USER (SEE NO. 7 ABOVE).
000164:
000165:                                                                                                  #                                                   CAF    OCTXX           REQUEST PERFORM ON OPTION XX
000166:                                                                                                  #                                                   TC     BANKCALL
000167:                                                                                                  #                                                   CADR   GOPERF4
000168:                                                                                                  #                                                   ...    ...             TERMINATE RETURN
000169:                                                                                                  #                                                   ...    ...             PROCEED RETURN
000170:                                                                                                  #                                                   ...    ...             ENTER RETURN
000171:
000172:                                                                                                  #  GOPERF4 BLANKS REGISTER R3
000173:


000175:                                                                                                  #  GODSPRET IS USED TO DISPLAY A VERB NOUN ARRIVING IN A WITH A RETURN TO THE USER AFTER THE DISPLAY HAS BEEN SENT
000176:                                                                                                  #  OUT.
000177:
000178:                                                                                                  #                                                   CAF    VXXNYY
000179:                                                                                                  #                                                   TC     BANKCALL
000180:                                                                                                  #                                                   CADR   GODSPRET
000181:                                                                                                  #                                                   ...    ...             RETURN TO USER
000182:
000183:                                                                                                  #  REGODSP IS USED TO DISPLAY A VERB NOUN ARRIVING IN A.  REGODSP IS THE SAME AS GODSP ONLY REGODSP REPLACES ANY
000184:                                                                                                  #  ACTIVE NORMAL DISPLAY IF ONE WAS ACTIVE.
000185:
000186:                                                                                                  #                                                   CAF    VXXNYY
000187:                                                                                                  #                                                   TC     BANKCALL
000188:                                                                                                  #                                                   CADR   REGODSP
000189:
000190:                                                                                                  #  REFLASH IS THE SAME AS GOFLASH ONLY REFLASH REPLACES ANY ACTIVE NORMAL DISPLAY IF ONE WAS ACTIVE.
000191:
000192:                                                                                                  #                                                   CAF    VXXNYY          VXX NYY WILL BE A FLASHING VERB NOUN
000193:                                                                                                  #                                                   TC     BANKCALL
000194:                                                                                                  #                                                   CADR   REFLASH
000195:                                                                                                  #                                                   ...    ...             TERMINATE RETURN
000196:                                                                                                  #                                                   ...    ...             PROCEED RETURN
000197:                                                                                                  #                                                   ...    ...             ENTER RETURN
000198:
000199:                                                                                                  #  GOFLASHR IS SAME AS GOFLASH ONLY AN IMMEDIATE RETURN IS MADE TO THE USERS CALL CADR +4.
000200:
000201:                                                                                                  #                                                   CAF    VXXNYY
000202:                                                                                                  #                                                   TC     BANKCALL
000203:                                                                                                  #                                                   CADR   GOFLASHR
000204:                                                                                                  #                                                   ...    ...             TERMINATE RETURN
000205:                                                                                                  #                                                   ...    ...             PROCEED RETURN
000206:                                                                                                  #                                                   ...    ...             ENTER OR RECYCLE RETURN
000207:
000208:                                                                                                  #                                                   ...    ...             IMMEDIATE RETURN FROM GOFLASHR
000209:
000210:                                                                                                  #  GOPERF1R IS THE SAME AS GOPERF1 ONLY GOPERF1R HAS AN IMMEDIATE RETURN TOUSERS CALL CADR +4.
000211:
000212:                                                                                                  #  GOPERF1R BLANKS REGISTERS R2 AND R3
000213:
000214:                                                                                                  #                                                   CAF    OCTXX           CODE FOR CHECKLIST VALUE XX.
000215:                                                                                                  #                                                   TC     BANKCALL
000216:                                                                                                  #                                                   CADR   GOPERF1R
000217:                                                                                                  #                                                   ...    ...             TERMINATE RETURN
000218:                                                                                                  #                                                   ...    ...             PROCEED RETURN
000219:                                                                                                  #                                                   ...    ...             ENTER RETURN
000220:
000221:                                                                                                  #                                                   ...    ...             IMMEDIATE RETURN FROM GOPERF1R
000222:
000223:                                                                                                  #  GOPERF2R IS THE SAME AS GOPERF2 ONLY AN IMMEDIATE RETURN IS MADE TO USERS CALL CADR +4.
000224:


000226:                                                                                                  #  GOPERF2R DOES NOT BLANK ANY REGISTERS
000227:
000228:                                                                                                  #                                                   CAF    VXXNYY          VARIABLE NOUN YY REQUESTED.  XX=00 OR 01
000229:                                                                                                  #                                                   TC     BANKCALL
000230:                                                                                                  #                                                   CADR   GOPERF2R
000231:                                                                                                  #                                                   ...    ...             TERMINATE RETURN
000232:                                                                                                  #                                                   ...    ...             PROCEED RETURN
000233:                                                                                                  #                                                   ...    ...             ENTER RETURN
000234:
000235:                                                                                                  #                                                   ...    ...             IMMEDIATE RETURN HERE FROM GOPERF2R
000236:
000237:                                                                                                  #  GOPERF3R IS THE SAME AS GOPERF3 ONLY AN IMMEDIATE RETURN IS MADE TO USERS CALL CADR +4.
000238:
000239:                                                                                                  #  GOPERF3R BLANKS REGISTERS R2 AND R3
000240:
000241:                                                                                                  #                                                   CAF    PROGXX          PERFORM PROGRAM XX
000242:                                                                                                  #                                                   TC     BANKCALL
000243:                                                                                                  #                                                   CADR   GOPERF3R
000244:                                                                                                  #                                                   ...    ...             TERMINATE RETURN
000245:                                                                                                  #                                                   ...    ...             PROCEED RETURN
000246:                                                                                                  #                                                   ...    ...             ENTER RETURN
000247:
000248:                                                                                                  #                                                   ...    ...             GOPERF3R IMMEDIATELY RETURNS HERE
000249:
000250:                                                                                                  #  GOPERF4R IS THE SAME AS GOPERF4 ONLY AN IMMEDIATE RETURN IS MADE TO USERS CALL CADR +4.
000251:
000252:                                                                                                  #                                                   CAF    OCTXX           REQUEST PERFORM ON OPTIONXX
000253:                                                                                                  #                                                   TC     BANKCALL
000254:                                                                                                  #                                                   CADR   GOPERF4R
000255:                                                                                                  #                                                   ...    ...             TERMINATE RETURN
000256:                                                                                                  #                                                   ...    ...             PROCEED RETURN
000257:                                                                                                  #                                                   ...    ...             ENTER RETURN
000258:
000259:                                                                                                  #                                                   ...    ...             IMMEDIATE RETURN TO USER
000260:
000261:                                                                                                  #  GOPERF4R BLANKS REGISTER R3
000262:
000263:                                                                                                  #  REFLASHR IS THE SAME AS REFLASH ONLY AN IMMEDIATE RETURN IS MADE TO THE USERS CALL CADR +4.
000264:
000265:                                                                                                  #                                                   CAF    VXXNYY          VXX NYY WILL BE A FLASHING VERB NOUN
000266:                                                                                                  #                                                   TC     BANKCALL
000267:                                                                                                  #                                                   CADR   REFLASHR
000268:                                                                                                  #                                                   ...    ...             TERMINATE RETURN
000269:                                                                                                  #                                                   ...    ...             PROCEED RETURN
000270:                                                                                                  #                                                   ...    ...             ENTER RETURN
000271:
000272:                                                                                                  #                                                   ...    ...             IMMEDIATE RETURN TO USER
000273:
000274:                                                                                                  #  REGODSPR IS THE SAME AS REGODSP ONLY A RETURN (IMMEDIATE) IS MADE TO THE USER.
000275:


000277:                                                                                                  #                                                   CAF    VXXNYY
000278:                                                                                                  #                                                   TC     BANKCALL
000279:                                                                                                  #                                                   CADR   REGODSPR
000280:                                                                                                  #                                                   ...    ...             IMMEDIATE RETURN TO USER


000282:                                                                                                  #  GOMARK IS USED TO DISPLAY A MARK VERB NOUN ARRIVING IN A.  NO RETURN IS MADE TO THE USER.
000283:
000284:                                                                                                  #  GOXDSP = GOMARK
000285:
000286:                                                                                                  #                                                   CAF    VXXNYY          VXXNYY CONTAINS VERB AND NOUN
000287:                                                                                                  #                                                   TC     BANKCALL
000288:                                                                                                  #                                                   CADR   GOMARK          OTHER EXTENDED VERBS USE CADR GOXDSP
000289:
000290:                                                                                                  #  GOMARKR IS THE SAME AS GOMARK ONLY RETURN IS TO THE USER.
000291:
000292:                                                                                                  #  GOXDSPR = GOMARKR
000293:
000294:                                                                                                  #                                                   CAF    VXXNYY
000295:                                                                                                  #                                                   TC     BANKCALL
000296:                                                                                                  #                                                   CADR   GOMARKR         OTHER EXTENDED VERBS USE CADR GOXDSPR
000297:
000298:                                                                                                  #                                                   ...    ...             IMMEDIATE RETURN OF GOMARKR
000299:
000300:                                                                                                  #  GOMARKF DISPLAYS A FLASHING MARK VERB NOUN WITH NO IMMEDIATE RETURN TO THE USER. 3 RETURNS ARE POSSIBLE FROM
000301:                                                                                                  #  THE ASTRONAUT (SEE NO. 7 ABOVE ).
000302:
000303:                                                                                                  #  GOXDSPF = GOMARKF
000304:
000305:                                                                                                  #                                                   CAF    VXXNYY          VXXNYY WILL BE A FLASHING MARK VERB NOUN
000306:                                                                                                  #                                                   TC     BANKCALL
000307:                                                                                                  #                                                   CADR   GOMARKF         OTHER EXTENDED VERBS USE CADR GOXDSPF
000308:                                                                                                  #                                                   ...    ...             TERMINATE RETURN
000309:                                                                                                  #                                                   ...    ...             PROCEED RETURN
000310:                                                                                                  #                                                   ...    ...             ENTER OR RECYCLE RETURN
000311:
000312:                                                                                                  #  GOMARKFR IS THE SAME AS GOMARKF ONLY AN IMMEDIATE RETURN IS MADE TO THE USER CALL CADR +4.
000313:
000314:                                                                                                  #  GOXDSPFR = GOMARKFR
000315:
000316:                                                                                                  #                                                   CAF    VXXNYY          FLASHING MARK VERB NOUN
000317:                                                                                                  #                                                   TC     BANKCALL
000318:                                                                                                  #                                                   CADR   GOMARKFR        OTHER EXTENDED VERBS USE CADR GOXDSPFR
000319:                                                                                                  #                                                   ...    ...             TERMINATE RETURN
000320:                                                                                                  #                                                   ...    ...             PROCEED RETURN
000321:                                                                                                  #                                                   ...    ...             ENTER OR RECYCLE RETURN
000322:
000323:                                                                                                  #                                                   ...    ...             IMMEDIATE RETURN TO THE USER
000324:
000325:                                                                                                  #  GOMARK1 IS USED FOR A PLEASE PERFORM ON A MARK REQUEST WITH ONLY 1 ASTRONAUT RETURN TO THE USER. NO IMMEDIATE
000326:                                                                                                  #  RETURN IS MADE. THE DESIRED MARK PLEASE PERFORM VERB AND DESIRED NOUN ISENTERED IN A. GOMARK1 DISPLAYS R1, R2, R
000327:                                                                                                  #  MEANS OF A V05NYY FOLLOWED BY A FLASHING V5XNYY FOR A PLEASE PERFORM. THE ASTRONAUT WILL RESPOND WITH A MARK
000328:                                                                                                  #  OR MARK REJECT OR AN ENTER. THE ENTER IS THE ONLY ASTRONAUT RESPONSE THAT WILL COME BACK TO THE USER.
000329:
000330:                                                                                                  #                                                   CAF    V5XNYY          X=1,2,3,4   Y=NOUN
000331:                                                                                                  #                                                   TC     BANKCALL


000333:                                                                                                  #                                                   CADR   GOMARK1
000334:
000335:                                                                                                  #                                                   ...    ...             ENTER RETURN
000336:
000337:                                                                                                  #  *** IF BLANKING DESIRED ON NON R ROUTINES, NOTIFY DISPLAYER.
000338:
000339:                                                                                                  #  GOMARK1R IS THE SAME AS A GOMARK1 ONLY AN IMMEDIATE RETURN IS MADE TO THE USERS CALL CADR +2.
000340:                                                                                                  #                                                   CAF    V5XNYY          X=1,2,3,4    YY = NOUN
000341:                                                                                                  #                                                   TC     BANKCALL
000342:                                                                                                  #                                                   CADR   GOMARK1R
000343:
000344:                                                                                                  #                                                   ...    ...             ASTRONAUT ENTER RETURN
000345:                                                                                                  #                                                   ...    ...             IMMEDIATE RETURN TO USER
000346:
000347:                                                                                                  #  GOMARK2 IS THE SAME AS GOMARK1 ONLY 3 RETURNS ARE MADE TO THE USER FROM THE ASTRONAUT.
000348:                                                                                                  #                                                   CAF    V5XNYY          X=1,2,3,4   YY=NOUN
000349:                                                                                                  #                                                   TC     BANKCALL
000350:                                                                                                  #                                                   CADR   GOMARK2
000351:                                                                                                  #                                                   ...    ...             TERMINATE RETURN
000352:                                                                                                  #                                                   ...    ...             PROCEED RETURN
000353:                                                                                                  #                                                   ...    ...             ENTER RETURN
000354:                                                                                                  #  GOMARK2R IS THE SAME AS GOMARK1R ONLY 3 ASTRONAUT RETURNS ARE MADE TO THE USER.
000355:
000356:                                                                                                  #                                                   CAF    V5XNYY          X=0,1,2,3,4   YY=NOUN
000357:                                                                                                  #                                                   TC     BANKCALL
000358:                                                                                                  #                                                   CADR   GOMARK2R
000359:                                                                                                  #                                                   ...    ...             TERMINATE RETURN
000360:                                                                                                  #                                                   ...    ...             PROCEED RETURN
000361:                                                                                                  #                                                   ...    ...             ENTER RETURN
000362:
000363:                                                                                                  #                                                   ...    ...             IMMEDIATE RETURN TO THE USER
000364:
000365:                                                                                                  #  GOMARK3 IS USED FOR A PLEASE PERFORM ON A MARK REQUEST WITH A 3 COMP. DEC DISPLAY. THE DESIRED MARK PLEASE
000366:                                                                                                  #  PERFORM VERB AND NOUN ARE ENTERED IN A. GOMARK3 DISPLAYS R1, R2, R3 BY MEANS OF A V06NYY FOLLOWED BY A FLASHING
000367:                                                                                                  #  V5XNYY FOR A PLEASE PERFORM. GOMARK3 HAS 3 ASTRONAUT RETURNS TO THE USER WITH NO IMMEDIATE RETURN.
000368:
000369:                                                                                                  #                                                   CAF    V5XNYY          X=1, 2,3,4 YY=NOUN
000370:                                                                                                  #                                                   TC     BANKCALL
000371:                                                                                                  #                                                   CADR   GOMARK3
000372:                                                                                                  #                                                   ...    ...             TERMINATE RETURN
000373:                                                                                                  #                                                   ...    ...             PROCEED RETURN
000374:                                                                                                  #                                                   ...    ...             ENTER RETURN
000375:
000376:                                                                                                  #  GOMARK4 IS THE SAME AS GOMARK3 ONLY R2 AND R3 ARE BLANKED AND R1 IS DISPLAYED IN OCTAL.
000377:
000378:                                                                                                  #                                                   CAF    V5XNYY          X=1,2,3,4 YY=NOUN
000379:                                                                                                  #                                                   TC     BANKCALL
000380:                                                                                                  #                                                   CADR   GOMARK4
000381:                                                                                                  #                                                   ...    ...             TERMINATE RETURN
000382:                                                                                                  #                                                   ...    ...             PROCEED RETURN


000384:                                                                                                  #                                                   ...    ...             ENTER RETURN
000385:
000386:                                                                                                  #  EXDSPRET IS USED TO DISPLAY A VERB NOUN ARRIVING IN A WITH A RETURN MADE TO THE USER AFTER THE DISPLAY HAS BEEN
000387:                                                                                                  #  SENT OUT.
000388:                                                                                                  #                                                   CAF    VXXNYY
000389:                                                                                                  #                                                   TC     BANKCALL
000390:                                                                                                  #                                                   CADR   EXDSPRET
000391:
000392:                                                                                                  #                                                   ...    ...             RETURN TO USER
000393:
000394:                                                                                                  #  KLEENEX CLEANS OUT ALL MARK DISPLAYS (ACTIVE AND INACTIVE). A RETURN IS MADE TO THE USER AFTER THE MARK DISPLAYS
000395:                                                                                                  #  HAVE BEEN CLEANED OUT.
000396:
000397:                                                                                                  #                                                   TC     BANKCALL
000398:                                                                                                  #                                                   CADR   KLEENEX
000399:
000400:                                                                                                  #                                                   ...    ...             RETURN TO USER
000401:
000402:                                                                                                  #  MARKBRAN IS A SPECIAL PURPOSE ROUTINE USED FOR SAVING JOB VAC AREAS (SEE DESCRIPTION OF MARKBRAN BELOW).
000403:
000404:                                                                                                  #                                                   TC     BANKCALL
000405:                                                                                                  #                                                   CADR   MARKBRAN
000406:
000407:                                                                                                  #                                                   ...    ...             BAD RETURN IF MARK DISPLAY NOT ACTIVE
000408:
000409:                                                                                                  #                                                                          (GOOD RETURN TO IMMEDIATE RETURN LOC OF
000410:                                                                                                  #                                                                          LAST FLASHING MARK R ROUTINE)
000411:
000412:                                                                                                  #  PINBRNCH REESTABLISHES THE LAST ACTIVE FLASHING DISPLAY. IF THERE IS NO ACTIVE FLASHING DISPLAY, THE DSKY IS
000413:                                                                                                  #  BLANKED AND CONTROL IS SENT TO ENDOFJOB.
000414:
000415:                                                                                                  #                                                   TC     POSTJUMP
000416:                                                                                                  #                                                   CADR   PINBRNCH
000417:
000418:                                                                                                  #  PRIODSP IS USED AS A PRIORITY DISPLAY.  IT WILL DISPLAY A GOFLASH TYPE DISPLAY WITH THREE POSSIBLE RETURNS FROM
000419:                                                                                                  #  THE ASTRONAUT(SEE NO.7 ABOVE).
000420:
000421:                                                                                                  #       THE MAIN PURPOSE OF PRIODSP IS TO REPLACE THE PRESENT DISPLAY WITH A DISPLAY OF HIGHER PRIORITY AND TO
000422:                                                                                                  #  PROVIDE A MEANS FOR RESTORING THE OLD DISPLAY WHEN THE PRIORITY DISPLAY
000423:                                                                                                  #  IS RESPONDED TO BY THE ASTRONAUT.
000424:
000425:                                                                                                  #       THE FORMER DISPLAY IS RESTORED BY AN AUTOMATIC BRANCH TO WAKE UP THE DISPLAY THAT WAS INTERRUPTED BY THE
000426:                                                                                                  #  PRIO DISPLAY.
000427:
000428:                                                                                                  #                                                   CAF    VXXNYY          VXXNYY WILL BE A FLASHING VERB NOUN
000429:                                                                                                  #                                                   TC     BANKCALL
000430:                                                                                                  #                                                   CADR   PRIODSP
000431:                                                                                                  #                                                   ...    ...             TERMINATE RETURN
000432:                                                                                                  #                                                   ...    ...             PROCEED RETURN


000434:                                                                                                  #                                                   ...    ...             ENTER OR RECYCLE RETURN
000435:
000436:                                                                                                  #  PRIODSPR IS THE SAME AS PRIODSP ONLY AN IMMEDIATE RETURN IS MADE TO THE USERS CALL CADR +4.
000437:
000438:                                                                                                  #                                                   CAF    VXXNYY          VXXNYY WILL BE A FLASHING VERB NOUN
000439:                                                                                                  #                                                   TC     BANKCALL
000440:                                                                                                  #                                                   CADR   PRIODSPR
000441:                                                                                                  #                                                   ...    ...             TERMINATE RETURN
000442:                                                                                                  #                                                   ...    ...             PROCEED RETURN
000443:                                                                                                  #                                                   ...    ...             ENTER OR RECYCLE RETURN
000444:
000445:                                                                                                  #                                                   ...    ...             IMMEDIATE RETURN
000446:
000447:                                                                                                  #  PRIOLARM DOES A V05N09 PRIODSPR.
000448:                                                                                                  #  CLEANDSP CLEANS OUT ALL NORMAL DISPLAYS (ACTIVE AND INACTIVE). A RETURN IS MADE TO THE USER AFTER NORMAL
000449:                                                                                                  #  DISPLAYS ARE CLEANED OUT.
000450:                                                                                                  #                                                   TC     BANKCALL
000451:                                                                                                  #                                                   CADR   CLEANDSP
000452:
000453:                                                                                                  #                                                   ...    ...             RETURN TO USER
000454:


000456:
000457:                                                                                                  #  GENERAL INFORMATION
000458:                                                                                                  #  ------- -----------
000459:
000460:
000461:                                                                                                  #  ALARM OR ABORT EXIT MODES--
000462:
000463:                                                                                                  #                                          PRIOBORT TC     ABORT
000464:                                                                                                  #                                                   OCT    1502
000465:
000466:                                                                                                  #  PRIOBORT IS BRANCED TO WHEN (1)  A NORMAL DISPLAY IS REQUESTED AND  ANOTHER NORMAL DISPLAY IS ALREADY ACTIVE
000467:                                                                                                  #  (REFLASH AND REGODSP ARE EXCEPTIONS) OR (2) A PRIORITY DISPLAY IS REQUESTED WHEN ANOTHER PRIORITY DISPLAY IS
000468:                                                                                                  #  ALREADY ACTIVE (A PRIORITY WITH LINUS BIT14 IS AN EXCEPTION).
000469:
000470:
000471:                                                                                                  #  ERASABLE INITIALIZATION REQUIRED--
000472:
000473:                                                                                                  #       ACCOMPLISHED BY FRESH START- 1. FLAGWRD4 (USED EXCLUSIVELY BY DISPLAY INTERFACE ROUTINES)
000474:                                                                                                  #                                    2. NVSAVE = NORMAL VERB AND NOUN      REGISTER.
000475:                                                                                                  #                                    3. EBANKTEM = NORMAL INACTIVE FLAGWORD(ALSO CONTAINS NORMALS EBANK).
000476:
000477:
000478:                                                                                                  #                                    5. R1SAVE = MARKBRAN CONTROL WORD
000479:                                                                                                  #                                    4. RESTREG = PRIORITY 30 AND SUPERBANK 3.
000480:
000481:                                                                                                  #  OUTPUT --
000482:
000483:                                                                                                  #       NVWORD = PRIO VERB AND NOUN
000484:                                                                                                  #       NVWORD +1(MARKNV) = MARK VERB AND NOUN
000485:                                                                                                  #       NVWORD +2(NVSAVE) = NORMAL VERB AND NOUN
000486:
000487:                                                                                                  #       DSPFLG(EBANKSAV) = PRIO FLAGWORD (INCLUDING EBANK)
000488:                                                                                                  #       DSPFLG +1(MARKEBAN) = MARK FLAGWORD (INCLUDING EBANK)
000489:                                                                                                  #       DSPFLG +2(EBANKTEM) = NORMAL FLAGWORD (INCLUDIG EBANK)
000490:
000491:                                                                                                  #       CADRFLSH = PRIO USERS CALL CADR +1 LOCATION
000492:                                                                                                  #       CADRFLSH +1(MARKFLSH) = MARK USERS CALL CADR +1 LOCATION
000493:                                                                                                  #       CADRFLSH +2(TEMPFLSH) = NORMAL USERS CALL CADR +1 LOCATION
000494:
000495:                                                                                                  #       PRIOTIME = TIME EACH PRIO REQUEST FIRST SENT OUT
000496:                                                                                                  #       OPTION1 = DESIRED OPTION FROM GOPERF4
000497:                                                                                                  #       FLAGWRD4 = BIT INFO FOR CONTROL OF ALL DISPLAY ROUTINES
000498:                                                                                                  #       DSPTEM1 = R1 INFO FOR ASTRONAUT FROM PERFORM DISPLAYS(NORMAL)
000499:                                                                                                  #  SUBROUTINES USED-- NVSUB, FLAGUP, FLAGDOWN, ENDOFJOB, BLANKSUB, ABORT, JOBWAKE, JOBSLEEP, FINDVAC, PRIOCHNG,
000500:                                                                                                  #  JAMTERM, NVSUBUSY, FLASHON, ENDIDLE, CHANG1, BANKJUMP, MAKECADR, NOVAC,
000501:                                                                                                  #  DEBRIS-- (STORED INTO)
000502:
000503:                                                                                                  #       TEMPORARY TEMPORARIES- A, Q, L, MPAC +2, MPAC +3, MPAC +4, MPAC +5, MPAC +6, RUPTREG2, RUPTREG3, CYL,
000504:                                                                                                  #  EBANK, RUPTREG4, LOC, BANKSET, MODE, MPAC, MPAC +1                      4, FACEREG
000505:                                                                                                  #       ERASABES(SHARED AND USED WITH OTHER PROGRAMS) CADRSTOR, DSPLIST, LOC, DSPTEM1, OPTION1
000506:
000507:                                                                                                  #       ERASABLES(USED ONLY BY DISPLAY ROUTINES)- NVWORD,+1,+2, DSPFLG,+1,+2, CADRFLSH,+1,+2, PRIOTIME, FLAGWRD4,


000509:                                                                                                  #  R1SAVE, MARK2PAC,
000510:
000511:
000512:                                                                                                  #  DEBRIS-- (USED BUT NOT STORED INTO)- NOUNREG, VERBREG, LOCCTR, MONSAVE1
000513:                                                                                                  #  FLAGWORD DESCRIPTIONS--
000514:                                                                                                  #      FLAGWRD4- SEE DESCRIPTION UNDER LOG SECTION ERASABLE ASSIGNMENTS
000515:
000516:                                                                                                  #      DSPFLG, DSPFLG+1, DSPFLG +2-
000517:                                                                                                  #      ----------------------------
000518:                                                                                                  #  BITS 1 BLANK R1
000519:                                                                                                  #       2 BLANK R2
000520:                                                                                                  #       3 BLANK R3
000521:                                                                                                  #       4 FLASHING DISPLAY REQUESTED
000522:                                                                                                  #       5 PERFORM DISPLAY REQUESTED
000523:                                                                                                  #       6 -----            EXDSPRET           GODSPRET
000524:                                                                                                  #       7 PRIO DISPLAY     -----               -----
000525:                                                                                                  #       8 -----         DEC MARK PERFORM      -----
000526:                                                                                                  #       9 EBANK
000527:                                                                                                  #      10 EBANK
000528:                                                                                                  #      11 EBANK
000529:                                                                                                  #      12 -----           -----       V99PASTE
000530:                                                                                                  #      13 2ND PART OF PERFORM
000531:                                                                                                  #      15 REFLASH OR REDO  -----           REFLASH OR REDO
000532:                                                                                                  #      15 -----          MARK REQUEST          -----
000533:                                                                                                  #  RESTARTING DISPLAYS--
000534:
000535:                                                                                                  #  RULES FOR THE DSKY OPERATOR--
000536:
000537:                                                                                                  #       1. PROCEED AND TERMINATE SERVE AS RESPONSES TO REQUESTS FOR OPERATOR RESPONSE (FLASHING V/N).  AS LONG
000538:                                                                                                  #          AS THERE IS ANY REQUEST AWAITING OPERATOR RESPONSE, ANY USE OF PROCEED OR TERMINATE WILL SERVE AS
000539:                                                                                                  #          RESPONSES TO THAT REQUEST.  CARE SHOULD BE EXERCISED IN ATTEMPTING TO KILL AN OPERATOR INITIATED MONITOR
000540:                                                                                                  #          WITH PROCEED AND TERMINATE FOR THIS REASON.
000541:                                                                                                  #       2. THE ASTRONAUT MUST RESPOND TO A PRIORITY DISPLAY NO             SOONER THAN 2 SECONDS FROM THE TIME THE
000542:                                                                                                  #          PROGRAM SENT OUT THE REQUEST FOR OPERATOR RESPONSE (THE ASTRONAUT WOULD SEE THIS DISPLAY FOR LESS TIME
000543:                                                                                                  #          DUE TO TIME IT TAKES TO GET DISPLAY SENT OUT.) IF THE ASTRONAUT RESPONDS TOO SOON, THE PRIORITY DISPLAY
000544:                                                                                                  #           IS SENT OUT AGAIN -- AND AGAIN UNTIL AN ACCUMULATED 2 SECS     FROM THE TIME THE FIRST PRIORITY DISPLAY
000545:                                                                                                  #          OUT. THE SAME 2 SEC. DELAY WILL OCCUR AT 163.84 SECS OR IN ANY  MULTIPLE OF THAT TIME DUE TO PROGRAM
000546:                                                                                                  #          CONSIDERATION.
000547:                                                                                                  #       3. KEY RELEASE BUTTON-
000548:                                                                                                  #          A) IF THE KEY RELEASE LIGHT IS ON, IT SIMPLY RELEASES THE KEYBOARD AND DISPLAY FOR INTERNAL USE.
000549:                                                                                                  #          B) IF THE KEY RELEASE LIGHT IS OFF, AND IF SOME REQUEST FOR OPERATOR RESPONSE (FLASHING V/N) IS STILL
000550:                                                                                                  #             AWAITING RESPONSE  THEN IT RE-ESTABLISHES THE DISPLAYS THAT ORIGINALLY REQUESTED RESPONSE.
000551:                                                                                                  #          IF AN OPERATOR WANTS THEREFORE TO RE-ESTABLISH BUT CONDITION (A) IS ENCOUNTERED, A SECOND DEPRESSION OF
000552:                                                                                                  #          KEY RELEASE BUTTON MAY BE NECESSARY.
000553:                                                                                                  #       4. IT IS IMPORTANT TO ANSWER ALL REQUESTS FOR OPERATOR RESPONSE.
000554:                                                                                                  #       5. IT IS ALWAYS GOOD PRACTICE TO TERMINATE AN EXTENDED VERB BEFORE ASKING FOR ANOTHER ONE OR THE SAME ONE
000555:                                                                                                  #          OVER AGAIN.
000556:
000557:
000558:                                                                                                  #  SPECIAL CONSIDERATIONS--


000560:                                                                                                  #       1. MPAC +2  SAVED ONLY IN MARK DISPLAYS
000561:                                                                                                  #       2. GODSP(R),REGODSP(R),GOMARK(R) ALWAYS TURN ON THE FLASH IF ENTERED WITH A PASTE VERB REQUEST.
000562:                                                                                                  #       3. ALL NORMAL DISPLAYS ARE RESTARTABLE EXCEPT GODSP(R), REGODSP(R)
000563:                                                                                                  #       4. ALL EXTENDED VERBS WITH DISPLAYS SHOULD START WITH A TC TESTXACT AND FINISH WITH A TC ENDEXT.
000564:                                                                                                  #       5. GODSP(R) AND REGODSP(R) MUST BE IN THE SAME EBANK AND SUPERBANK AS THE LAST NORMAL DISPLAY RESTARTED
000565:                                                                                                  #          BY A .1 RESTART PHASE CHANGE.
000566:                                                                                                  #       6. IN ORDER TO SET UP A NON DISPLAY .1 RESTART POINT, THE USER MUST MAKE CERTAIN THAT RESTREG CONTAINS THE
000567:                                                                                                  #          CORRECT PRIORITY AND SUPERBANK AND THAT EBANKTEM CONTAINS THE CO
000568:                                                                                                  #       7. IF CLEANDSP IS RESTARTED VIA A .1 PHASE CHANGE, CAF ZERO SHOULD BE EXECUTED  BEFORE THE TC BANKCALL.
000569:


000571:                                                                                                  #  CALLING SEQUENCE FOR BLANKING
000572:                                                                                                  #                                                   CAF    BITX            X=1,2,3 BLANK R1,R2,R3 RESPECTIVELY
000573:                                                                                                  #                                                   TC     BLANKET
000574:                                                                                                  #                                                   ...    ...             RETURN TO USER HERE
000575:
000576:                                                                                                  #  IN ORDER TO USE BLANKET CORRECTLY THE USER MUST USE A DISPLAY ROUTINE THAT ENDS IN R FIRST FOLLOWED BY THE CALL
000577:                                                                                                  #  TO BLANKET AT THE IMMEDIATE RETURN LOC.
000578:
000579:    5464                                           BLOCK    02
000580:    4000                                           SETLOC   FFTAG4
000581:    4000                                           BANK
000582:
000583:    5464                                           COUNT*   $$/DSPLA
000584:    5464           54162        BLANKET            TS       MPAC       +6
000585:    5465           40160                           CS       PLAYTEM4
000586:    5466           70162                           MASK     MPAC       +6
000587:    5467           50161                           INDEX    MPAC       +5
000588:    5470           26160                           ADS      PLAYTEM4
000589:
000590:    5471           00002                           TC       Q
000591:
000592:    5472           04635        ENDMARK            TC       POSTJUMP
000593:    5473           20204                           CADR     MARKEND
000594:
000595:    5474           34755        CLEARMRK           CAF      ZERO
000596:    5475           55044                           TS       EXTVBACT
000597:
000598:    5476           00004                           INHINT
000599:    5477           44753                           CS       BIT1
000600:    5500           70100                           MASK     FLAGWRD4
000601:    5501           54100                           TS       FLAGWRD4
000602:
000603:    5502           00003                           RELINT
000604:    5503           00002                           TC       Q
000605:                                                                                                  #  ***ALL EXTENDED VERB ROUTINES THAT HAVE AT LEAST ONE FLASHING DISPLAY MUST TCF ENDMARK OR TCF ENDEXT WHEN
000606:                                                                                                  #  FINISHED.
000607:
000608: 10,2204                                           BANK     10
000609: 10,2000                                           SETLOC   DISPLAYS
000610: 10,2000                                           BANK
000611:
000612: 10,2204                                           COUNT*   $$/DSPLA
000613:                                                                                                  #  NTERONLY IS USED TO DIFFERENTIATE THE MARK ROUTINE WITH ONLY ONE RETURN TO THE USER FROM THE MARKING ROUTINE WIT
000614:                                                                                                  #  3 RETURNS TO THE USER. THIS ROUTINE IS ONLY USED BY GOMARK1 AND GOMARK1R.
000615:
000616: 10,2204           05474        MARKEND            TC       CLEARMRK
000617: 10,2205           13274                           TCF      MARKOVER
000618:
000619: 10,2206           54155        GOMARK             TS       PLAYTEM1                              #  ENTRANCE FOR MARK GODSP


000621: 10,2207           34735        GOMARS             CAF      BIT15                                 #  BIT15 SET FOR ALL MARK REQUESTS
000622: 10,2210           12353                           TCF      GOFLASH2
000623:
000624: 10,2211           34755        KLEENEX            CAF      ZERO                                  #  CLEAN OUT EXTENDED VERBS
000625: 10,2212           54155        GOMARKF            TS       PLAYTEM1                              #  ENTRANCE FOR MARK GOFLASH
000626:
000627: 10,2213           32704                           CAF      MARKFMSK                              #  MARK,FLASH
000628: 10,2214           12353                           TCF      GOFLASH2
000629:
000630: 10,2215           54155        GOMARK2            TS       PLAYTEM1                              #  MARK GOPERFS-3 AST. RETURNS
000631: 10,2216           33373        MARKFORM           CAF      MPERFMSK                              #  MARK, PERFORM, FLASH
000632: 10,2217           12353                           TCF      GOFLASH2
000633:
000634: 10,2220           54155        GOMARK3            TS       PLAYTEM1                              #  USED FOR 3COMP DECIMAL PERFORM
000635: 10,2221           33360                           CAF      MARK3MSK
000636: 10,2222           12353                           TCF      GOFLASH2
000637:
000638: 10,2223           54155        GOMARK4            TS       PLAYTEM1
000639: 10,2224           33361                           CAF      MARK4MSK                              #  MARK,PERFORM,FLASH,BLANK
000640: 10,2225           12353                           TCF      GOFLASH2
000641:
000642: 10,2226           54155        GOMARKR            TS       PLAYTEM1                              #  ENTR+NCE FOR MARK GODSPR
000643:
000644: 10,2227           34735                           CAF      BIT15
000645: 10,2230           12331                           TCF      GODSPR2
000646:
000647: 10,2231           54155        GOMARKFR           TS       PLAYTEM1                              #  ENTRANCE FOR MARK GOFLASHR
000648:
000649: 10,2232           32704                           CAF      MARKFMSK
000650: 10,2233           12512                           TCF      GODSPRS
000651:
000652: 10,2234           54155        GOMARK2R           TS       PLAYTEM1                              #  MARK GOPERFS-3 AST. RETS+ IMMEDIATE RET.
000653: 10,2235           33373                           CAF      MPERFMSK                              #  MARK, PERFORM, FLASH
000654: 10,2236           12512                           TCF      GODSPRS
000655:
000656: 10,2237           54155        GOMARK3R           TS       PLAYTEM1
000657: 10,2240           33360                           CAF      MARK3MSK
000658: 10,2241           12512                           TCF      GODSPRS
000659:
000660: 10,2242           34753        MAKEMARK           CAF      ONE
000661: 10,2243           02610                           TC       COPIES
000662:
000663: 10,2244           30100                           CA       FLAGWRD4                              #  IS NORM OR PRIO BUSY OR WAITING
000664: 10,2245           73374                           MASK     OCT34300
000665: 10,2246           10000                           CCS      A
000666: 10,2247           12305                           TCF      CHKPRIO
000667:
000668: 10,2250           30100                           CA       FLAGWRD4                              #  IS MARK SLEEPING DUE TO ASTRO BUSY
000669: 10,2251           74743                           MASK     MRKNVBIT
000670:
000671: 10,2252           00006                           EXTEND


000673: 10,2253           12255                           BZF      MARKPLAY                              #  NO
000674:
000675: 10,2254           15155                           TCF      ENDOFJOB
000676:
000677: 10,2255           00004        MARKPLAY           INHINT
000678: 10,2256           44756                           CS       FIVE                                  #  RESET MARK OVER NORM, SET MARK
000679: 10,2257           70100                           MASK     FLAGWRD4
000680: 10,2260           64753                           AD       ONE
000681: 10,2261           54100                           TS       FLAGWRD4
000682: 10,2262           00003                           RELINT
000683:
000684: 10,2263           41071        GOGOMARK           CS       MARKFLAG                              #  PERFORM
000685: 10,2264           74747                           MASK     BIT5
000686: 10,2265           10000                           CCS      A
000687: 10,2266           12271                           TCF      MARKCOP
000688: 10,2267           40370                           CS       MARKNV
000689: 10,2270           54370                           TS       MARKNV
000690:
000691: 10,2271           34753        MARKCOP            CAF      ONE                                   #  MARK INDEX
000692: 10,2272           12471                           TCF      PRIOPLAY
000693:
000694: 10,2273           30165        COPYTOGO           CA       MPAC2SAV
000695: 10,2274           54156                           TS       MPAC       +2
000696:
000697: 10,2275           50164        COPYPACS           INDEX    COPINDEX
000698: 10,2276           33404                           CAF      PRIOOCT
000699: 10,2277           54162                           TS       GENMASK
000700:
000701: 10,2300           50164                           INDEX    COPINDEX
000702: 10,2301           31070                           CAF      EBANKSAV
000703: 10,2302           54160                           TS       TEMPOR2                               #  ACTIVE EBANK AND FLAG
000704:
000705: 10,2303           54003                           TS       EBANK
000706:
000707: 10,2304           00002                           TC       Q
000708:
000709:                                                                                                  #  PINCHEK CHECKS TO SEE IF THE CURRENT MARK REQUEST IS MADE BY THE ASTRONAUT WHILE INTERRUPTING A GOPLAY DISPLAY
000710:                                                                                                  #  (A NORMAL OR A PRIO). IF THE ASTRONAUT TRIES TO MARK DURING A PRIO, THE CHECK FAIL LIGHT GOES ON AND THE MARK
000711:                                                                                                  #  REQUEST IS ENDED. IF HE TRIES TO MARK DURING A NORM, THE MARK IS ALLOWED. IN THIS CASE THE NORM IS PUT TO SLEEP
000712:                                                                                                  #  UNTIL ALL MARKING IS FINISHED.
000713:
000714:                                                                                                  #       IF THE MARK REQUEST COMES FROM THE PROGRAM DURING A TIME THE ASTRONAUT IS NOT INTERRUPTING A NORMAL OR A
000715:                                                                                                  #  PRIO, THE MARK REQUEST IS PUT TO SLEEP UNTIL THE +RESENT ACTIVE DISPLAY IS RESPONDED TO BY THE ASTRONAUT.
000716:
000717: 10,2305           30100        CHKPRIO            CA       FLAGWRD4                              #  MARK ATTEMPT DURING PRIO
000718: 10,2306           73127                           MASK     OCT24100
000719: 10,2307           10000                           CCS      A
000720: 10,2310           13327                           TCF      MARSLEEP
000721:
000722: 10,2311           40100                           CS       FLAGWRD4


000724: 10,2312           74751                           MASK     MKOVBIT                               #  SET MARK OVER NORM
000725: 10,2313           00004                           INHINT
000726: 10,2314           26100                           ADS      FLAGWRD4
000727:
000728: 10,2315           12407                           TCF      SETNORM
000729:
000730: 10,2316           30370        MARKPERF           CA       MARKNV
000731: 10,2317           74144                           MASK     VERBMASK
000732: 10,2320           12773                           TCF      NV50DSP
000733:
000734: 10,2321           54155        GODSP              TS       PLAYTEM1
000735:
000736: 10,2322           34755        GODSP2             CAF      ZERO
000737: 10,2323           12353                           TCF      GOFLASH2
000738:
000739: 10,2324           54155        GODSPRET           TS       PLAYTEM1                              #  ENTRANCE FOR A GODSP WITH A PASTE
000740:
000741: 10,2325           34746                           CAF      BIT6                                  #  SET BIT6 TO GO BACK TO USER AFTER NVSUB
000742: 10,2326           12353                           TCF      GOFLASH2
000743:
000744: 10,2327           54155        GODSPR             TS       PLAYTEM1
000745:
000746: 10,2330           34755        GODSPR1            CAF      ZERO
000747: 10,2331           54160        GODSPR2            TS       PLAYTEM4
000748:
000749: 10,2332           34755                           CAF      ZERO                                  #  * DONT MOVE
000750: 10,2333           12514                           TCF      GODSPRS1
000751:
000752:                                                                                                  #       CLEANDSP IS USED FOR CLEARING OUT A NORMAL DISPLAY THAT IS PRESENTLY ACTIVE OR A NORMAL DISPLAY THAT IS
000753:                                                                                                  #  SET UP TO BE STARTED OR RESTARTED.
000754:
000755:                                                                                                  #       NORMALLY THE USER WILL NOT NEED TO USE THIS ROUTINE SINCE A NEW NORMAL DISPLAY AUTOMATICALLY CLEARS OUT AN
000756:                                                                                                  #  OLD DISPLAY.
000757:
000758:                                                                                                  #       CALLING SEQUENCE FOR CLEANDSP-
000759:
000760:                                                                                                  #                TC      BANKCALL
000761:                                                                                                  #                CADR    CLEANDSP
000762:
000763: 10,2334           34755        CLEANDSP           CAF      ZERO
000764: 10,2335           54155        REFLASH            TS       PLAYTEM1
000765:
000766: 10,2336           33357                           CAF      REDOMASK                              #  FLASH AND PERMIT
000767: 10,2337           12353                           TCF      GOFLASH2
000768:
000769: 10,2340           54155        REFLASHR           TS       PLAYTEM1
000770:
000771: 10,2341           33357                           CAF      REDOMASK                              #  FLASH AND PERMIT
000772: 10,2342           12512                           TCF      GODSPRS
000773:


000775: 10,2343           54155        REGODSP            TS       PLAYTEM1
000776:
000777: 10,2344           34736                           CAF      BIT14
000778: 10,2345           12353                           TCF      GOFLASH2
000779:
000780: 10,2346           54155        REGODSPR           TS       PLAYTEM1
000781:
000782: 10,2347           34736                           CAF      BIT14
000783: 10,2350           12331                           TCF      GODSPR2
000784:
000785: 10,2351           54155        GOFLASH            TS       PLAYTEM1
000786:
000787: 10,2352           34750                           CAF      BIT4                                  #  LEAVE ONLY FLASH BIT SET
000788: 10,2353           54160        GOFLASH2           TS       PLAYTEM4
000789:
000790: 10,2354           02575                           TC       SAVELOCS
000791:
000792: 10,2355           00003                           RELINT
000793:
000794: 10,2356           12421                           TCF      MAKEPLAY                              #  BRANCH DIRECT WITH NO SEPARATE JOB CALL
000795:
000796: 10,2357           54155        PRIODSPR           TS       PLAYTEM1
000797:
000798: 10,2360           33376                           CAF      BITS7+4
000799: 10,2361           12512                           TCF      GODSPRS
000800:
000801: 10,2362           54155        PRIODSP            TS       PLAYTEM1
000802:
000803: 10,2363           33376        SETPRIO            CAF      BITS7+4
000804: 10,2364           12353                           TCF      GOFLASH2
000805:
000806: 10,2365           34755        MAKEPRIO           CAF      ZERO
000807: 10,2366           54164                           TS       COPINDEX
000808:
000809: 10,2367           03247                           TC       LINUSCHR
000810: 10,2370           12375                           TCF      HIPRIO                                #  LINUS RETURN
000811: 10,2371           30100                           CA       FLAGWRD4
000812: 10,2372           73415                           MASK     OCT20100                              #  IS PRIO IN ENDIDLE OR BUSY
000813: 10,2373           10000                           CCS      A
000814: 10,2374           12450                           TCF      PRIOBORT                              #  YES, ABORT
000815:
000816: 10,2375           30100        HIPRIO             CA       FLAGWRD4                              #  MARK ACTIVE
000817: 10,2376           75642                           MASK     OCT40400
000818: 10,2377           00006                           EXTEND
000819: 10,2400           12403                           BZF      ASKIFNRM                              #  NO
000820:
000821: 10,2401           34755        SETMARK            CAF      ZERO
000822: 10,2402           12647                           TCF      JOBXCHS
000823:
000824: 10,2403           30100        ASKIFNRM           CA       FLAGWRD4                              #  NORMAL ACTIVE


000826: 10,2404           73413                           MASK     OCT10200                              #  BITS 13+8
000827: 10,2405           00006                           EXTEND
000828: 10,2406           12411                           BZF      OKTOCOPY                              #  NO
000829:
000830: 10,2407           34753        SETNORM            CAF      ONE
000831: 10,2410           12647                           TCF      JOBXCHS
000832:
000833: 10,2411           02607        OKTOCOPY           TC       COPYNORM
000834: 10,2412           03060                           TC       WITCHONE
000835:
000836: 10,2413           05137                           TC       JOBWAKE
000837:
000838: 10,2414           03075                           TC       XCHTOEND
000839:
000840: 10,2415           30025        REDOPRIO           CA       TIME1                                 #  SAVE TIME PRIODSP SENT OUT
000841: 10,2416           55165                           TS       PRIOTIME
000842:
000843: 10,2417           34755        KEEPPRIO           CAF      ZERO                                  #  START UP PRIO DISPLAY
000844: 10,2420           12471                           TCF      PRIOPLAY
000845:
000846: 10,2421           30167        MAKEPLAY           CA       PRIORITY                              #  SAVE USERS PRIORITY
000847: 10,2422           77724                           MASK     PRIO37
000848: 10,2423           54163                           TS       USERPRIO
000849:
000850: 10,2424           37720                           CAF      PRIO33                                #  RAISE PRIORITY FOR FAST JOBS AFTER WAKE
000851: 10,2425           05146                           TC       PRIOCHNG
000852:
000853: 10,2426           30160                           CA       PLAYTEM4                              #  IS IT MARK OR PRIO OR NORM
000854: 10,2427           73375                           MASK     BITS15+7
000855: 10,2430           10000                           CCS      A
000856: 10,2431           12365                           TCF      MAKEPRIO                              #  ITS PRIO
000857: 10,2432           12434                           TCF      IFLEGAL
000858: 10,2433           12242                           TCF      MAKEMARK                              #  ITS MARK
000859:
000860: 10,2434           34752        IFLEGAL            CAF      TWO
000861: 10,2435           54164                           TS       COPINDEX
000862:
000863: 10,2436           03247                           TC       LINUSCHR
000864:
000865: 10,2437           12452                           TCF      OKTOPLAY                              #  LINUS RETURN
000866: 10,2440           41072                           CS       EBANKTEM
000867: 10,2441           74750                           MASK     BIT4
000868: 10,2442           10000                           CCS      A
000869: 10,2443           12452                           TCF      OKTOPLAY                              #  NO
000870:
000871: 10,2444           30100                           CA       FLAGWRD4                              #  WAS NORM ASLEEP
000872: 10,2445           73366                           MASK     NBUSMASK                              #  ARE ANY NORMS ASLEEP
000873: 10,2446           00006                           EXTEND
000874: 10,2447           12452                           BZF      OKTOPLAY                              #  NO
000875:


000877: 10,2450           05652        PRIOBORT           TC       POODOO
000878: 10,2451           01502                           OCT      1502
000879:
000880: 10,2452           02611        OKTOPLAY           TC       COPIES2
000881:
000882: 10,2453           30163                           CA       USERPRIO
000883: 10,2454           00006                           EXTEND
000884: 10,2455           04007                           ROR      SUPERBNK
000885: 10,2456           54366                           TS       RESTREG
000886:
000887: 10,2457           30100                           CA       FLAGWRD4                              #  PRIO OR MARK GOING
000888: 10,2460           73367                           MASK     PMMASK
000889: 10,2461           10000                           CCS      A
000890: 10,2462           12627                           TCF      GOSLEEPS                              #  YES
000891:
000892: 10,2463           12465                           TCF      +2
000893: 10,2464           12627                           TCF      GOSLEEPS                              #  MARK GOING
000894:
000895:                                                                                                  #  COULD PUT NORM BUSY CHECK HERE TO SAVE TIME
000896: 10,2465           03060                           TC       WITCHONE                              #  IS IT NVSUB BUSY, ENDIDLE OR NOONE
000897: 10,2466           05137                           TC       JOBWAKE
000898:
000899: 10,2467           03075                           TC       XCHTOEND
000900:
000901: 10,2470           34752        PLAYJUM1           CAF      TWO
000902: 10,2471           54164        PRIOPLAY           TS       COPINDEX
000903:
000904: 10,2472           12743                           TCF      GOPLAY
000905:
000906: 10,2473           54155        EXDSPRET           TS       PLAYTEM1
000907:
000908: 10,2474           37733                           CAF      BIT15+6
000909: 10,2475           12353                           TCF      GOFLASH2
000910:
000911: 10,2476           55045        GOPERF1            TS       NORMTEM1                              #  STORE DESIRED CHECKLIST VALUE
000912: 10,2477           33351                           CAF      V01N25                                #  USED TO DISPLAY CHECKLIST VALUE IN R1
000913:
000914: 10,2500           54155        GOPERFS            TS       PLAYTEM1
000915:
000916: 10,2501           33350                           CAF      PERFMASK                              #  LEAVE ONLY FLASH, PERFORM, BLANKING
000917: 10,2502           12353                           TCF      GOFLASH2
000918:
000919: 10,2503           54155        GOPERF2            TS       PLAYTEM1                              #  DESIRED VERB-NOUN TO DISPLAY R1,R2,R3
000920:
000921: 10,2504           33354                           CAF      PERF2MSK
000922: 10,2505           12353                           TCF      GOFLASH2
000923:
000924: 10,2506           02570        GOPERF4            TC       PURRS4
000925:
000926: 10,2507           12353                           TCF      GOFLASH2
000927:


000929: 10,2510           54155        GOFLASHR           TS       PLAYTEM1
000930:
000931: 10,2511           34750                           CAF      BIT4                                  #  LEAVE ONLY FLASH BIT SET
000932: 10,2512           54160        GODSPRS            TS       PLAYTEM4
000933:
000934: 10,2513           36244                           CAF      THREE
000935:
000936: 10,2514           00004        GODSPRS1           INHINT                                         #  IMMEDIATE RETURN IS CALL CADR +4
000937: 10,2515           54072                           TS       RUPTREG3
000938:
000939: 10,2516           30167                           CA       PRIORITY                              #  MAKE DISPLAY ONE HIGHER THAN USER
000940: 10,2517           77724                           MASK     PRIO37
000941: 10,2520           54063                           TS       NEWPRIO
000942:
000943: 10,2521           30160                           CA       PLAYTEM4                              #  IS THIS A FLASHING R DISPLAY
000944: 10,2522           74750                           MASK     BIT4
000945: 10,2523           10000                           CCS      A
000946: 10,2524           12532                           TCF      VACDSP                                #  YES, MAKE DSPLAY JOB A VAC
000947: 10,2525           30063                           CA       NEWPRIO                               #  NO, MAKE DSPLAY JOB A NOVAC
000948: 10,2526           05072                           TC       NOVAC
000949: 10,2527  E7,1467                                  EBANK=   WHOCARES
000950: 10,2527           02421 20067                     2CADR    MAKEPLAY
000951:
000952: 10,2531           12540                           TCF      BOTHJOBS
000953:
000954: 10,2532           30006        VACDSP             CA       BBANK
000955: 10,2533           00006                           EXTEND
000956: 10,2534           04007                           ROR      SUPERBNK
000957: 10,2535           54001                           TS       L
000958: 10,2536           33412                           CAF      MAKEGEN
000959: 10,2537           05116                           TC       SPVAC
000960:
000961: 10,2540           02575        BOTHJOBS           TC       SAVELOCS                              #  COPY TEMPS INTO PERMANENT REGISTERS
000962:
000963: 10,2541           00006                           EXTEND                                         #  SAVE NVWORD AND USERS MPAC +2
000964: 10,2542           30156                           DCA      MPAC       +1
000965: 10,2543           50064                           INDEX    LOCCTR
000966: 10,2544           52156                           DXCH     MPAC       +1
000967:
000968: 10,2545           00006                           EXTEND                                         #  SAVE USERS CADR, FLAGS AND EBANK
000969: 10,2546           30160                           DCA      MPAC       +3
000970: 10,2547           50064                           INDEX    LOCCTR
000971: 10,2550           52160                           DXCH     MPAC       +3
000972:
000973: 10,2551           30064                           CA       LOCCTR
000974: 10,2552           54161                           TS       MPAC       +5
000975:
000976: 10,2553           02602                           TC       SAVELOCR
000977: 10,2554           00003                           RELINT
000978:


000980: 10,2555           14640                           TCF      BANKJUMP                              #  CALL CADR +4
000981:
000982: 10,2556           55045        GOPERF1R           TS       NORMTEM1                              #  DESIRED CHECKLIST VALUE
000983:
000984: 10,2557           33351                           CAF      V01N25                                #  DISPLAYS CHECKLIST VALUE IN R1
000985:
000986: 10,2560           54155        GOPERFRS           TS       PLAYTEM1
000987:
000988: 10,2561           33350                           CAF      PERFMASK                              #  LEAVE ONLY FLASH, PERFORM, BLANKING
000989: 10,2562           12512                           TCF      GODSPRS
000990:
000991: 10,2563           54155        GOPERF2R           TS       PLAYTEM1                              #  DESIRED VERB-NOUN TO DISPLAY R1,R2,R3
000992:
000993: 10,2564           33354                           CAF      PERF2MSK
000994: 10,2565           12512                           TCF      GODSPRS
000995:
000996: 10,2566           02570        GOPERF4R           TC       PURRS4
000997:
000998: 10,2567           12512                           TCF      GODSPRS
000999:
001000: 10,2570           55144        PURRS4             TS       OPTION1                               #  DESIRED OPTION CODE
001001:
001002: 10,2571           33355                           CAF      V04N06
001003: 10,2572           54155                           TS       PLAYTEM1
001004:
001005: 10,2573           33356                           CAF      PERF4MSK                              #  FLASH,PERFORM AND BLANK R3
001006: 10,2574           00002                           TC       Q
001007:
001008: 10,2575           00004        SAVELOCS           INHINT
001009:
001010: 10,2576           43365                           CS       OCT3400                               #  EBANK BITS
001011: 10,2577           70160                           MASK     PLAYTEM4
001012: 10,2600           60003                           AD       EBANK
001013: 10,2601           54160                           TS       PLAYTEM4
001014:
001015: 10,2602           22002        SAVELOCR           LXCH     Q
001016:
001017: 10,2603           04645                           TC       MAKECADR
001018: 10,2604           54157                           TS       PLAYTEM3
001019:
001020: 10,2605           60072                           AD       RUPTREG3                              #  NOT USED FOR NON R ROUTINES
001021: 10,2606           00001                           TC       L
001022:
001023: 10,2607           34755        COPYNORM           CAF      ZERO
001024: 10,2610           54164        COPIES             TS       COPINDEX
001025: 10,2611           00004        COPIES2            INHINT
001026: 10,2612           30160                           CA       PLAYTEM4                              #  FLAGWORD
001027: 10,2613           50164                           INDEX    COPINDEX
001028: 10,2614           55070                           TS       EBANKSAV                              #  EQUIV TO DSPFLG
001029:


001031: 10,2615           73403                           MASK     CADRMASK                              #  FLASH AND GODSPRET
001032: 10,2616           00006                           EXTEND
001033: 10,2617           12623                           BZF      SKIPADD
001034:
001035: 10,2620           30157                           CA       PLAYTEM3
001036: 10,2621           50164                           INDEX    COPINDEX
001037: 10,2622           54372                           TS       CADRFLSH
001038:
001039: 10,2623           30155        SKIPADD            CA       PLAYTEM1                              #  VERB NOUN
001040: 10,2624           50164                           INDEX    COPINDEX
001041: 10,2625           54367                           TS       NVWORD
001042:
001043: 10,2626           13104                           TCF      RELINTQ
001044:
001045: 10,2627           50164        GOSLEEPS           INDEX    COPINDEX
001046: 10,2630           33404                           CA       PRIOOCT
001047: 10,2631           72633                           MASK     WAITMASK
001048: 10,2632           03416                           TC       UPENT2
001049: 10,2633           03004        WAITMASK           OCT      3004
001050: 10,2634           44753                           CS       ONE
001051: 10,2635           60164                           AD       COPINDEX
001052: 10,2636           54154                           TS       FACEREG
001053:
001054: 10,2637           50154        XCHSLEEP           INDEX    FACEREG
001055: 10,2640           33363                           CAF      WAKECADR
001056: 10,2641           00004                           INHINT
001057: 10,2642           05137                           TC       JOBWAKE                               #  FIND CADR IN JOB AREA
001058:
001059: 10,2643           03075                           TC       XCHTOEND                              #  CAUSES AWAKENED JOB TO GO TO ENDOFJOB
001060:
001061: 10,2644           50154                           INDEX    FACEREG                               #  REPLACE SAME CADR BUT NEW JOB AREA
001062: 10,2645           33363                           CAF      WAKECADR
001063: 10,2646           15133                           TCF      JOBSLEEP
001064:
001065: 10,2647           54154        JOBXCHS            TS       FACEREG                               #  CONTROLS TYPE OF DISPLAY PUT TO SLEEP
001066: 10,2650           03060                           TC       WITCHONE
001067: 10,2651           05137                           TC       JOBWAKE
001068: 10,2652           30154                           CA       FACEREG
001069: 10,2653           50064                           INDEX    LOCCTR
001070: 10,2654           54154                           TS       FACEREG
001071:
001072: 10,2655           32670                           CAF      XCHQADD
001073: 10,2656           03076                           TC       XCHNYLOC
001074:
001075: 10,2657           50154                           INDEX    FACEREG
001076: 10,2660           33405                           CA       MARKOCT
001077: 10,2661           73407                           MASK     IDLESLEP
001078: 10,2662           03434                           TC       DOWNENT2
001079: 10,2663           74004        IDLEMASK           OCT      74004                                 #  * DONT MOVE
001080:


001082: 10,2664           50154                           INDEX    FACEREG                               #  BIT SHOWS PRIO INTERRUPTED NORM OR MARK
001083: 10,2665           34747                           CA       BIT5                                  #  BIT5 FOR MARK, BIT4 FOR NORMAL
001084: 10,2666           64751                           AD       FOUR
001085: 10,2667           03416                           TC       UPENT2                                #  FLAG ROUTINE DOES RELINT
001086: 10,2670           02637        XCHQADD            GENADR   XCHSLEEP                              #  * DONT MOVE
001087: 10,2671           30100                           CA       FLAGWRD4
001088: 10,2672           74751                           MASK     MKOVBIT                               #  MARK OVER NORM ?
001089: 10,2673           10000                           CCS      A
001090: 10,2674           02255        GENMARK            TC       MARKPLAY                              #  USED AS GENADR FOR JOBWAKE
001091: 10,2675           12411                           TCF      OKTOCOPY
001092:
001093: 10,2676           34755        MARKWAKE           CAF      ZERO
001094: 10,2677           54160        WAKEPLAY           TS       TEMPOR2
001095:
001096: 10,2700           50160                           INDEX    TEMPOR2
001097: 10,2701           33377                           CA       BITS5+11
001098: 10,2702           64751                           AD       FOUR
001099: 10,2703           03434                           TC       DOWNENT2
001100: 10,2704           40010        MARKFMSK           OCT      40010                                 #  ***DONT MOVE
001101:
001102: 10,2705           50160                           INDEX    TEMPOR2
001103: 10,2706           33363                           CAF      WAKECADR
001104: 10,2707           00004                           INHINT
001105: 10,2710           05137                           TC       JOBWAKE
001106:
001107: 10,2711           13210                           TCF      ENDRET
001108:
001109:                                                                                                  #       ALL .1 RESTARTS BRANCH DIRECTLY TO INITDSP. NORMAL DISPLAYS ARE THEONLY DISPLAYS ALLOWED TO USE .1 RESTARTS
001110:                                                                                                  #  INITDSP FIRST RESTORES THE EBANK AND THE SUPERBANK TO THE MOST RECENT NORMAL EBANK AND SUPERBANK.
001111:                                                                                                  #       IF THE MOST RECENT NORMAL DISPLAY REQUEST WAS NOT FINISHED, CONTROLIS SENT BACK TO THE LAST NORMAL USER.
001112:                                                                                                  #  OTHERWISE THE NORMAL DISPLAY SET UP IN THE NORMAL DISPLAY REGS IS STARTED UP IMMEDIATELY.
001113:
001114: 10,2712           31072        INITDSP            CA       EBANKTEM                              #  RESTORE MOST RECECT NORMAL EBANK
001115: 10,2713           54003                           TS       EBANK
001116:
001117: 10,2714           30366                           CA       RESTREG                               #  SUPERBANK AND JOB PRIORITY
001118: 10,2715           04727                           TC       SUPERSW                               #  RESTORE SUPERBANK
001119:
001120: 10,2716           77724                           MASK     PRIO37
001121: 10,2717           05146                           TC       PRIOCHNG
001122:
001123: 10,2720           46244                           CS       THREE
001124: 10,2721           60374                           AD       TEMPFLSH
001125: 10,2722           14640                           TCF      BANKJUMP
001126:
001127: 10,2723           00003        PINBRNCH           RELINT                                         #  FOR GOPIN USERS
001128: 10,2724           31073                           CA       MARK2PAC                              #  NEEDED TO SAVE MPAC +2 FOR MARK USERS
001129: 10,2725           54156                           TS       MPAC       +2                         #  ONLY
001130:
001131: 10,2726           30100                           CA       FLAGWRD4                              #  PINBRANCH CONDITION


001133: 10,2727           77737                           MASK     PINMASK
001134: 10,2730           10000                           CCS      A
001135: 10,2731           12734                           TCF      +3
001136: 10,2732           13344                           TCF      ERASER                                #  ** NOTHING IN ENDIDLE
001137: 10,2733           12255                           TCF      MARKPLAY
001138:
001139: 10,2734           05504        NORMBNCH           TC       UPFLAG                                #  SET PINBRANCH BIT
001140: 10,2735           00105                           ADRES    PINBRFLG
001141:
001142: 10,2736           34736                           CAF      PRIODBIT                              #  PRIO INTERRUPTED
001143: 10,2737           70100                           MASK     FLAGWRD4
001144: 10,2740           10000                           CCS      A
001145: 10,2741           12417                           TCF      KEEPPRIO
001146:
001147: 10,2742           12470                           TCF      PLAYJUM1
001148:
001149: 10,2743           02275        NVDSP              TC       COPYPACS
001150:
001151: 10,2744           30160                           CA       TEMPOR2                               #  SET UP BLANK BITS FOR NVMONOPT IN CASE
001152: 10,2745           74757                           MASK     SEVEN                                 #  USER REQUESTS BLANKING MONITOR
001153: 10,2746           54001                           TS       L
001154:
001155: 10,2747           44737                           CS       BIT13
001156: 10,2750           50164                           INDEX    COPINDEX
001157: 10,2751           71070                           MASK     DSPFLG
001158: 10,2752           50164                           INDEX    COPINDEX
001159: 10,2753           55070                           TS       DSPFLG
001160:
001161: 10,2754           74744                           MASK     BIT8                                  #  BIT8 SET IF DEC MARK PERFORM DISPLAY
001162: 10,2755           54141                           TS       TEM1
001163:
001164: 10,2756           30156                           CA       MPAC       +2
001165: 10,2757           54165                           TS       MPAC2SAV
001166:
001167: 10,2760           55073                           TS       MARK2PAC                              #  * FOR DISK ONLY *
001168: 10,2761           50164                           INDEX    COPINDEX
001169: 10,2762           10367                           CCS      NVWORD
001170: 10,2763           12772                           TCF      NVDSP1
001171: 10,2764           13106                           TCF      CLEANEND
001172: 10,2765           40370                           CS       MARKNV
001173: 10,2766           54370                           TS       MARKNV                                #  IN CASE MARKPLAY AWAKENED AFTER SLEEPING
001174: 10,2767           76073                           MASK     LOW7
001175: 10,2770           63370                           AD       V05N00M1
001176: 10,2771           60141                           AD       TEM1
001177: 10,2772           64753        NVDSP1             AD       ONE
001178: 10,2773           04155        NV50DSP            TC       NVMONOPT
001179: 10,2774           13120                           TCF      REST                                  #  IF BUSY
001180: 10,2775           04433                           TC       FLASHOFF                              #  IN CASE OF EXTENDED VERB NON FLASH
001181:
001182: 10,2776           02273                           TC       COPYTOGO                              #  MPACS DESTROYED BY NVSUB


001184: 10,2777           05516                           TC       DOWNFLAG                              #  UNSET SLEEPING BITS
001185: 10,3000           00102                           ADRES    MRKNVFLG
001186: 10,3001           05516                           TC       DOWNFLAG
001187: 10,3002           00103                           ADRES    NRMNVFLG
001188: 10,3003           05516                           TC       DOWNFLAG
001189: 10,3004           00104                           ADRES    PRONVFLG
001190: 10,3005           30160        BLANKCHK           CA       TEMPOR2                               #  BLANK BITS 1,2,3 IF SET
001191: 10,3006           04255                           TC       BLANKSUB
001192: 10,3007           12743                           TCF      NVDSP
001193: 10,3010           34747        PERFCHEK           CAF      BIT5                                  #  BIT5 FOR PERFORM
001194: 10,3011           70160                           MASK     TEMPOR2
001195: 10,3012           10000                           CCS      A                                     #  IS THIS A GOPERF DISPLAY
001196: 10,3013           13036                           TCF      1STOR2ND                              #  YES
001197:
001198: 10,3014           34750        GOANIDLE           CAF      BIT4
001199: 10,3015           70160                           MASK     TEMPOR2
001200: 10,3016           10000                           CCS      A
001201: 10,3017           13133                           TCF      FLASHSUB                              #  IT IS
001202:
001203: 10,3020           40160                           CS       TEMPOR2                               #  IS THIS A GODSPRET
001204: 10,3021           74746                           MASK     BIT6
001205: 10,3022           10000                           CCS      A
001206: 10,3023           13030                           TCF      ISITN00
001207:
001208: 10,3024           50164                           INDEX    COPINDEX
001209: 10,3025           30372                           CA       CADRFLSH
001210: 10,3026           54157                           TS       MPAC       +3
001211: 10,3027           13226                           TCF      ENDIT
001212:
001213: 10,3030           50164        ISITN00            INDEX    COPINDEX                              #  IS THIS A PASTE
001214: 10,3031           30367                           CA       NVWORD
001215: 10,3032           76073                           MASK     LOW7                                  #  CHECK MADE FOR PINBRNCH AND PRIO ON MARK
001216: 10,3033           00006                           EXTEND
001217: 10,3034           13133                           BZF      FLASHSUB                              #  YES, ASSUME PASTE ALWAYS ON FLASH
001218:
001219: 10,3035           15155                           TCF      ENDOFJOB                              #  NOT FLASH, NOT GOPERF, THERFORE EXIT
001220:
001221: 10,3036           30160        1STOR2ND           CA       TEMPOR2
001222: 10,3037           74737                           MASK     BIT13
001223: 10,3040           10000                           CCS      A
001224: 10,3041           13014                           TCF      GOANIDLE                              #  SECOND
001225:
001226: 10,3042           34737                           CA       BIT13
001227: 10,3043           50164                           INDEX    COPINDEX
001228: 10,3044           27070                           ADS      DSPFLG
001229:
001230: 10,3045           22007                           ZL
001231: 10,3046           00006                           EXTEND                                         #  IS IT MARK
001232: 10,3047           62316                           BZMF     MARKPERF                              #  YES
001233:


001235: 10,3050           74740                           MASK     BIT12
001236: 10,3051           00006                           EXTEND
001237: 10,3052           13056                           BZF      V50PASTE
001238: 10,3053           41067                           CS       NVWORD1                               #  NVOWRD1= -0 IS V97. NVWORD1= -400 IS V99
001239: 10,3054           63414                           AD       V97N00
001240: 10,3055           12773                           TCF      NV50DSP
001241: 10,3056           33353        V50PASTE           CAF      V50N00
001242: 10,3057           12773                           TCF      NV50DSP                               #  DISPLAY SECOND PART OF GOPERF
001243:
001244: 10,3060           44747        WITCHONE           CS       BIT5                                  #  TURN OFF KEY RELEASE LIGHT
001245: 10,3061           00006                           EXTEND
001246: 10,3062           03011                           WAND     DSALMOUT
001247:
001248: 10,3063           30100                           CA       FLAGWRD4
001249: 10,3064           73371                           MASK     NVBUSMSK                              #  IS IT NVSUB ASLEEP
001250: 10,3065           10000                           CCS      A
001251: 10,3066           34753                           CAF      ONE
001252: 10,3067           54001                           TS       L
001253: 10,3070           34755                           CAF      ZERO
001254: 10,3071           50001                           INDEX    L
001255: 10,3072           57042                           XCH      CADRSTOR
001256:
001257: 10,3073           00004                           INHINT
001258: 10,3074           00002                           TC       Q
001259:
001260: 10,3075           34217        XCHTOEND           CAF      ENDINST                               #  TC ENDOFJOB REPLACES GENADR IN LOC FOR
001261: 10,3076           56064        XCHNYLOC           XCH      LOCCTR                                #  WAS THIS ADDRESS SLEEPING
001262: 10,3077           00006                           EXTEND
001263: 10,3100           63104                           BZMF     RELINTQ                               #  NO
001264: 10,3101           56064                           XCH      LOCCTR                                #  YES
001265: 10,3102           50064                           INDEX    LOCCTR
001266: 10,3103           54164                           TS       LOC
001267:
001268: 10,3104           00003        RELINTQ            RELINT
001269: 10,3105           00002                           TC       Q                                     #  BACK TO USER
001270:
001271: 10,3106           37717        CLEANEND           CAF      PRIO32                                #  ONE LOWER THAN DISPLAYS SLEEPING
001272: 10,3107           05105                           TC       FINDVAC
001273: 10,3110     0371                                  EBANK=   NVSAVE
001274: 10,3110           04231 04060                     2CADR    JAMTERM
001275:
001276:
001277: 10,3112           13134                           TCF      FLASHSUB   +1
001278:
001279: 10,3113           30100        ISITPRIO           CA       FLAGWRD4
001280: 10,3114           73141                           MASK     ITISMASK                              #  IS PINBRFLG, MARKIDFLG SET
001281: 10,3115           00006                           EXTEND
001282: 10,3116           12450                           BZF      PRIOBORT
001283: 10,3117           15155                           TCF      ENDOFJOB
001284:


001286: 10,3120           11042        REST               CCS      CADRSTOR                              #  IS SOMEONE IN ENDIDLE
001287: 10,3121           15155                           TCF      ENDOFJOB                              #  YES
001288: 10,3122           13124                           TCF      RESTSLEP
001289:
001290: 10,3123           15155                           TCF      ENDOFJOB
001291:
001292: 10,3124           30162        RESTSLEP           CA       GENMASK                               #  SET NVSLEEP BITS
001293: 10,3125           73372                           MASK     ASTROMSK
001294: 10,3126           03416                           TC       UPENT2
001295: 10,3127           24100        OCT24100           OCT      24100                                 #  *** DONT MOVE
001296:
001297: 10,3130           50164                           INDEX    COPINDEX
001298: 10,3131           33362                           CAF      NVCADR
001299: 10,3132           04442                           TC       NVSUBUSY                              #  BUSY OR ABORT IF ILLEGAL
001300:
001301: 10,3133           04427        FLASHSUB           TC       FLASHON
001302:
001303: 10,3134           30164                           CA       COPINDEX                              #  COPINDEX DESTROYED BY ENDIDLE
001304: 10,3135           54157                           TS       COPMPAC
001305:
001306: 10,3136           30162                           CA       GENMASK
001307: 10,3137           72663                           MASK     IDLEMASK
001308: 10,3140           03416                           TC       UPENT2
001309: 10,3141           40040        ITISMASK           OCT      40040                                 #  *** ENDIDLE ALLOW *** DONT MOVE
001310:
001311: 10,3142           31074                           CA       R1SAVE                                #  IS THIS A REPEAT AND RETURN DISPLAY
001312: 10,3143           50164                           INDEX    COPINDEX
001313: 10,3144           74751                           MASK     BIT3
001314: 10,3145           10000                           CCS      A
001315: 10,3146           13233                           TCF      UNSETR1                               #  YES
001316:
001317: 10,3147           11042                           CCS      CADRSTOR                              #  SEE IF SOMEONE ALREADY IN ENDIDLE
001318: 10,3150           13113                           TCF      ISITPRIO
001319: 10,3151           13153                           TCF      +2
001320: 10,3152           13113                           TCF      ISITPRIO
001321:
001322: 10,3153           04207                           TC       ENDIDLE
001323: 10,3154           13245        IDLERET1           TCF      TERMATE
001324:
001325: 10,3155           13264                           TCF      PROCEED                               #  ENDIDLE RETURNS HERE ON PROCEED
001326:
001327: 10,3156           43401                           CS       LOWLOAD
001328: 10,3157           60154                           AD       MPAC                                  #  VERBREG
001329: 10,3160           00006                           EXTEND
001330: 10,3161           26000                           DIM      A
001331: 10,3162           00006                           EXTEND
001332: 10,3163           13334                           BZF      LOADITIS                              #  V21 OR V22 OR V23 ON DSKY
001333: 10,3164           34752        OKTOENT            CAF      TWO
001334: 10,3165           54161        ENDOUT             TS       OUTHERE
001335:


001337: 10,3166           30100                           CA       FLAGWRD4                              #  CHECK NATURE OF ENDIDLE RETURN
001338: 10,3167           74101                           MASK     OCT60000
001339: 10,3170           10000                           CCS      A
001340: 10,3171           13174                           TCF      TIMECHEK                              #  PRIO ENDIDLE RETURN
001341: 10,3172           13302                           TCF      NORMRET                               #  NORMAL ENDIDLE RETURN
001342: 10,3173           13266                           TCF      MARKRET                               #  MARK ENDIDLE RETURN
001343:
001344: 10,3174           40025        TIMECHEK           CS       TIME1
001345: 10,3175           61165                           AD       PRIOTIME
001346: 10,3176           10000                           CCS      A
001347: 10,3177           40000                           COM
001348: 10,3200           67730                           AD       OCT37776
001349: 10,3201           64753                           AD       ONE
001350: 10,3202           63457                           AD       -2SEC
001351: 10,3203           00006                           EXTEND
001352: 10,3204           62417                           BZMF     KEEPPRIO
001353:
001354: 10,3205           13302                           TCF      NORMRET
001355:
001356: 10,3206           34753        NORMWAKE           CAF      ONE
001357: 10,3207           12677                           TCF      WAKEPLAY
001358:
001359: 10,3210           10161        ENDRET             CCS      OUTHERE
001360: 10,3211           64753                           AD       ONE
001361: 10,3212           13214                           TCF      +2                                    #  NORMAL ENDIDLE EXIT
001362: 10,3213           15155                           TCF      ENDOFJOB
001363: 10,3214           50157                           INDEX    COPMPAC
001364: 10,3215           60372                           AD       CADRFLSH
001365: 10,3216           54157                           TS       MPAC       +3
001366:
001367: 10,3217           30162                           CA       GENMASK                               #  REMOVE ENDIDLE AND PINBRANCH BITS
001368: 10,3220           73222                           MASK     PINIDMSK
001369: 10,3221           03434                           TC       DOWNENT2
001370: 10,3222           74044        PINIDMSK           OCT      74044                                 #  *** DONT MOVE
001371:
001372: 10,3223           46244                           CS       THREE                                 #  BLANK EVERYTHING EXCEPT MM
001373: 10,3224           04154                           TC       NVSUB
001374: 10,3225           13226                           TCF      +1
001375:
001376: 10,3226           30163        ENDIT              CA       USERPRIO                              #  RETURN TO USERS PRIORITY
001377: 10,3227           77724                           MASK     PRIO37
001378: 10,3230           05146                           TC       PRIOCHNG
001379: 10,3231           30157                           CA       MPAC       +3
001380: 10,3232           14640                           TCF      BANKJUMP
001381:
001382: 10,3233           50164        UNSETR1            INDEX    COPINDEX                              #  RESET REPEAT AND RETURN REQUEST
001383: 10,3234           44751                           CS       BIT3
001384: 10,3235           71074                           MASK     R1SAVE
001385: 10,3236           55074                           TS       R1SAVE
001386:


001388: 10,3237           34755                           CAF      ZERO                                  #  *** 205 ONLY MARKBRAN USERS IN
001389: 10,3240           04727                           TC       SUPERSW                               #  SUPERBANK 0
001390:
001391: 10,3241           36244                 -1        CAF      THREE                                 #  RETURN TO USERS IMMEDIATE RETURN LOC
001392: 10,3242           50164        IMMEDRET           INDEX    COPINDEX
001393: 10,3243           60372                           AD       CADRFLSH
001394: 10,3244           14640                           TCF      BANKJUMP
001395:
001396: 10,3245           34755        TERMATE            CAF      ZERO                                  #  ASTRONAUT TERMINATE (V34) RETURNS TO
001397: 10,3246           13165                           TCF      ENDOUT
001398:
001399: 10,3247           40160        LINUSCHR           CS       PLAYTEM4                              #  IS THIS A LINUS
001400: 10,3250           74736                           MASK     BIT14
001401: 10,3251           10000                           CCS      A
001402: 10,3252           16736                           TCF      Q+1                                   #  NO
001403: 10,3253           40157                           CS       PLAYTEM3                              #  YES, IS IT ALREADY IN ENDIDLE
001404: 10,3254           50164                           INDEX    COPINDEX
001405: 10,3255           60372                           AD       CADRFLSH
001406: 10,3256           00006                           EXTEND
001407: 10,3257           13261                           BZF      +2                                    #  YES
001408:
001409: 10,3260           00002                           TC       Q                                     #  NO
001410: 10,3261           11012                           CCS      DSPLOCK                               #  IS THE ASTRONAUT BUSY
001411: 10,3262           05155                           TC       ENDOFJOB                              #  END THE NEW DISPLAY, ITS ALREADY ACTIVE
001412: 10,3263           00002                           TC       Q
001413:
001414:                                                                                                  #  MORE LOGIC COULD BE INCORPORATED HERE TO MAKE SURE A RECYCLE IS A RECYCLAND CONVERSLY THAT A LOAD IS A LOAD.
001415: 10,3264           34753        PROCEED            CAF      ONE                                   #  ASTRONAUT PROCEED (V33) RETURNS
001416: 10,3265           13165                           TCF      ENDOUT
001417:
001418:                                                                                                  #       LASTPLAY CHECKS TO SEE IF (1) THE LAST NORMAL DISPLAY WAS EITHER INTERRUPTED BY A PRIO OR A MARK (MARK
001419:                                                                                                  #  COULD ONLY HAPPEN DURING PINBRANCH) OR IF (2) THE LAST NORMAL DISPLAY WAS REQUESTED WHILE A HIGHER PRIORITY
001420:                                                                                                  #  DISPLAY WAS GOING RESULTING IN THE NORMAL BEING PUT TO SLEEP.
001421:
001422:                                                                                                  #       IF EITHER OF THE ABOVE 2 CONDITIONS EXISTS , THE NORMAL DISPLAY IS AWAKENED TO GO TO PLAYJUM1 WHICH STARTS
001423:                                                                                                  #  UP THE MOST RECENT VALID NORMAL DISPLAY. IF THESE 2 CONDITIONS DO NOT EXIST, CONTROL GOES TO PLAYJUM1 WHICH IS
001424:                                                                                                  #  STARTED IMMEDIATELY WITH THE ASSUMPTION THAT THE MOST RECENT NORMAL DISPLAY IS ALREADY IN-ENDIDLE(DURING A
001425:                                                                                                  #  PINBRANCH) OR THAT A RESTART HAS OCCURRED AND THE DISPLAY CAN BE STARTED AS A .1 RESTART.
001426:
001427: 10,3266           46241        MARKRET            CS       SIX
001428: 10,3267           70100                           MASK     FLAGWRD4
001429: 10,3270           00004                           INHINT                                         #  *** MAY MOVE DISPLAY FLAGWORD OUT OF
001430: 10,3271           54100                           TS       FLAGWRD4
001431:
001432: 10,3272           00003                           RELINT                                         #  INHINT REALM
001433: 10,3273           13210                           TCF      ENDRET
001434:
001435: 10,3274           37746        MARKOVER           CAF      MINUS1                                #  RUPTREG2 IS - MEANS ENDOFJOB TO ENDRET
001436: 10,3275           54161                           TS       OUTHERE
001437:


001439: 10,3276           30100                           CA       FLAGWRD4                              #  IS ENDIDFLG SET
001440: 10,3277           74355                           MASK     PRIO30                                #  IS NORMAL OR PRIO IN ENDIDLE
001441: 10,3300           10000                           CCS      A
001442: 10,3301           12734                           TCF      NORMBNCH
001443:
001444: 10,3302           30100        NORMRET            CA       FLAGWRD4                              #  IS MARK SLEEPING
001445: 10,3303           73377                           MASK     BITS5+11                              #  OR WAITING
001446: 10,3304           10000                           CCS      A
001447: 10,3305           12676                           TCF      MARKWAKE
001448:
001449: 10,3306           30100                           CA       FLAGWRD4                              #  NO
001450: 10,3307           73400                           MASK     BITS4+10                              #  IS NORMAL INTERRUPTED OR WAITING
001451: 10,3310           10000                           CCS      A
001452: 10,3311           13206                           TCF      NORMWAKE                              #  YES
001453:
001454: 10,3312           31072                           CA       EBANKTEM                              #  NO, WAS IT A FLASH REQUEST
001455: 10,3313           74771                           MASK     OCT50                                 #  OR A GODSPRET
001456: 10,3314           10000                           CCS      A
001457: 10,3315           13210                           TCF      ENDRET                                #  YES
001458: 10,3316           30371                           CA       NVSAVE
001459: 10,3317           00006                           EXTEND
001460: 10,3320           13210                           BZF      ENDRET
001461:
001462: 10,3321           35025                           CAF      PRIO15
001463: 10,3322           00004                           INHINT
001464: 10,3323           05072                           TC       NOVAC
001465: 10,3324     0367                                  EBANK=   NVWORD
001466: 10,3324           02470 20060                     2CADR    PLAYJUM1
001467:
001468:
001469: 10,3326           13210                           TCF      ENDRET
001470:
001471: 10,3327           30100        MARSLEEP           CA       FLAGWRD4                              #  IS MARK ALREADY IN
001472: 10,3330           73377                           MASK     BITS5+11
001473: 10,3331           10000                           CCS      A
001474: 10,3332           15155                           TCF      ENDOFJOB                              #  YES
001475: 10,3333           12627                           TCF      GOSLEEPS
001476:
001477: 10,3334           50157        LOADITIS           INDEX    COPMPAC
001478: 10,3335           30367                           CA       NVWORD
001479: 10,3336           76073                           MASK     LOW7
001480: 10,3337           40000                           COM
001481: 10,3340           60155                           AD       MPAC       +1                         #  NOUNREG
001482: 10,3341           00006                           EXTEND
001483: 10,3342           13164                           BZF      OKTOENT                               #  NO, THEN LOAD IS VALID
001484: 10,3343           12723                           TCF      PINBRNCH                              #  YES, ACCEPT LOAD BUT ASK FOR LAST AGAIN
001485:
001486: 10,3344           46244        ERASER             CS       THREE                                 #  BLANK EVERYTHING EXCEPT MM
001487: 10,3345           04154                           TC       NVSUB
001488: 10,3346           15155                           TCF      ENDOFJOB


001490: 10,3347           15155                           TCF      ENDOFJOB
001491:
001492: 10,3350           00036        PERFMASK           OCT      0036                                  #  FLASH,PERFORM,BLANK R2 AND R3
001493: 10,3351           00231        V01N25             VN       00125
001494: 10,3352           01407        V06N07             VN       00607                                 #  GOPERF3 VN DISPLAY BEFORE V50
001495: 10,3353           14400        V50N00             VN       5000
001496: 10,3354           00030        PERF2MSK           OCT      00030                                 #  FLASH, PERFORM
001497: 10,3355           01006        V04N06             VN       00406
001498: 10,3356           00014        PERF4MSK           OCT      14                                    #  FLASH, BLANK R3
001499: 10,3357  10,2723               GOAGIN             EQUALS   PINBRNCH
001500: 10,3357           20010        REDOMASK           OCT      20010                                 #  BITS 4 AND 14
001501: 10,3360           40230        MARK3MSK           OCT      40230                                 #  MARK,DECIMAL NOUN, PERFORM,FLASH
001502: 10,3361           40036        MARK4MSK           OCT      40036                                 #  MARK,PERFORM,FLASH,BLANK 2 AND 3
001503: 10,3362           20415        NVCADR             CADR     REDOPRIO
001504: 10,3363           20255        WAKECADR           CADR     MARKPLAY
001505: 10,3364           20470                           CADR     PLAYJUM1
001506:
001507: 10,3365           03400        OCT3400            OCT      3400                                  #  EBANK MASK
001508: 10,3366           11210        NBUSMASK           OCT      11210
001509: 10,3367           66521        PMMASK             OCT      66521
001510: 10,3370     4144               VERBMASK           =        MID7                                  #  (OCT 37600)
001511: 10,3370           01177        V05N00M1           OCT      1177                                  #  V05 MINUS ONE
001512: 10,3371  10,2206               GOXDSP             EQUALS   GOMARK
001513: 10,3371  10,2226               GOXDSPR            EQUALS   GOMARKR
001514: 10,3371  10,2212               GOXDSPF            EQUALS   GOMARKF
001515: 10,3371  10,2231               GOXDSPFR           EQUALS   GOMARKFR
001516: 10,3371     5472               ENDEXT             EQUALS   ENDMARK
001517: 10,3371     0165               MPAC2SAV           EQUALS   BANKSET
001518: 10,3371           00700        NVBUSMSK           OCT      700
001519: 10,3372           00704        ASTROMSK           OCT      704
001520: 10,3373           40030        MPERFMSK           OCT      40030                                 #  BIT 15,5,4 FOR MARK,PERFORM,FLASH
001521: 10,3374           34300        OCT34300           OCT      34300
001522: 10,3375           40100        BITS15+7           OCT      40100
001523: 10,3376           00110        BITS7+4            OCT      110
001524: 10,3377     1070               DSPFLG             EQUALS   EBANKSAV
001525: 10,3377     1071               MARKFLAG           EQUALS   MARKEBAN
001526: 10,3377     1072               SAVEFLAG           EQUALS   EBANKTEM
001527: 10,3377           02020        BITS5+11           OCT      2020                                  #  * DONT MOVE
001528: 10,3400           01010        BITS4+10           OCT      1010                                  #  * DONT MOVE
001529: 10,3401           00026        LOWLOAD            DEC      22         B-14
001530: 10,3402           77730        BUSYMASK           OCT      77730
001531: 10,3403           00050        CADRMASK           OCT      50
001532: 10,3404     7737               PINMASK            EQUALS   13,14,15
001533: 10,3404  10,2743               GOPLAY             EQUALS   NVDSP
001534:                                                                                                  #  PRIOSAVE      EQUALS  R1SAVE
001535: 10,3404     0157               COPMPAC            EQUALS   MPAC       +3
001536: 10,3404     0160               TEMPOR2            EQUALS   MPAC       +4
001537: 10,3404     0161               OUTHERE            EQUALS   MPAC       +5
001538: 10,3404     0164               COPINDEX           EQUALS   LOC
001539: 10,3404     0163               USERPRIO           EQUALS   MODE


001541: 10,3404     0162               GENMASK            EQUALS   MPAC       +6
001542: 10,3404           20144        PRIOOCT            OCT      20144                                 #  PRIO
001543: 10,3405           42424        MARKOCT            OCT      42424                                 #  MARK
001544: 10,3406           11254                           OCT      11254                                 #  NORM
001545:
001546: 10,3407           74704        IDLESLEP           OCT      74704
001547: 10,3410           67777        OCT67777           OCT      67777
001548: 10,3411     5464               LINUS              EQUALS   BLANKET
001549: 10,3411     0154               FACEREG            EQUALS   MPAC
001550: 10,3411     0155               PLAYTEM1           EQUALS   MPAC       +1
001551: 10,3411     0157               PLAYTEM3           EQUALS   MPAC       +3
001552: 10,3411     0160               PLAYTEM4           EQUALS   MPAC       +4
001553: 10,3411           40420        OCT40420           OCT      40420
001554: 10,3412           02421        MAKEGEN            GENADR   MAKEPLAY
001555: 10,3413           10200        OCT10200           OCT      10200
001556: 10,3414           30200        V97N00             VN       09700                                 #  PASTE FOR V97 OR V99
001557: 10,3415           20100        OCT20100           OCT      20100

End of include-file DISPLAY_INTERFACE_ROUTINES.agc.  Parent file is MAIN.agc


