
Source Code


000002:                                                                                                  ## Copyright:   Public domain.
000003:                                                                                                  ## Filename:    ERASABLE_ASSIGNMENTS.agc
000004:                                                                                                  ## Purpose:     The main source file for Luminary revision 069.
000005:                                                                                                  ##              It is part of the source code for the original release
000006:                                                                                                  ##              of the flight software for the Lunar Module's (LM) Apollo
000007:                                                                                                  ##              Guidance Computer (AGC) for Apollo 10. The actual flown
000008:                                                                                                  ##              version was Luminary 69 revision 2, which included a
000009:                                                                                                  ##              newer lunar gravity model and only affected module 2.
000010:                                                                                                  ##              This file is intended to be a faithful transcription, except
000011:                                                                                                  ##              that the code format has been changed to conform to the
000012:                                                                                                  ##              requirements of the yaYUL assembler rather than the
000013:                                                                                                  ##              original YUL assembler.
000014:                                                                                                  ## Reference:   pp. 106-167
000015:                                                                                                  ## Assembler:   yaYUL
000016:                                                                                                  ## Contact:     Ron Burkey <info@sandroid.org>.
000017:                                                                                                  ## Website:     www.ibiblio.org/apollo/index.html
000018:                                                                                                  ## Mod history: 2016-12-13 MAS  Created from Luminary 99.
000019:                                                                                                  ##              2017-01-05 HG   Transcribed
000020:                                                                                                  ##              2017-01-06 HG   Fix operand JBREG* -> JBRFG*
000021:                                                                                                  ##                                          JAPEG* -> JAPFG*
000022:                                                                                                  ##                                          TITOT2 -> T1TOT2
000023:                                                                                                  ##                                          TABLTFF-> TABLTTF
000024:                                                                                                  ##              2017-01-08 HG   fix operand modifier JBRFG* +1 -> JBRFG* +2
000025:                                                                                                  ##              2017-01-16 HG   uncomment LMPOS and LMVEL
000026:                                                                                                  ##              2017-01-25 RSB  Proofed comment text using octopus/prooferComments
000027:                                                                                                  ##                              and fixed errors found.
000028:                                                                                                  ##              2017-03-11 MAS  Corrected errors found during transcription of Luminary 116.
000029:                                                                                                  ##              2017-08-11 RSB  Comment-text fixes identified from AP11ROPE.
000030:


000032:                                                                                                  #  CONVENTIONS AND NOTATIONS UTILIZED FOR ERASABLE ASSIGNMENTS.
000033:
000034:                                                                                                  #           EQUALS IS USED IN TWO WAYS.  IT IS OFTEN USED TO CHAIN A GROUP
000035:                                                                                                  #                  OF ASSIGNMENTS SO THAT THE GROUP MAY BE MOVED WITH THE
000036:                                                                                                  #                  CHANGING OF ONLY ONE CARD.  EXAMPLE.
000037:
000038:                                                                                                  #                                          X        EQUALS  START
000039:                                                                                                  #                                          Y        EQUALS  X       +SIZE.X
000040:                                                                                                  #                                          Z        EQUALS  Y       +SIZE.Y
000041:
000042:                                                                                                  #                  (X, Y, AND Z ARE CONSECUTIVE AND BEGIN AT START.       )
000043:                                                                                                  #                  (SIZE.X AND SIZE.Y ARE THE RESPECTIVE SIZES OF X AND Y,
000044:                                                                                                  #                   USUALLY NUMERIC,  IE. 1, 2, 6, 18D ETC.                )
000045:
000046:                                                                                                  #           EQUALS OFTEN IMPLIES THE SHARING OF REGISTERS (DIFFERENT NAMES
000047:                                                                                                  #                  AND DIFFERENT DATA).  EXAMPLE.
000048:
000049:                                                                                                  #                                          X        EQUALS Y
000050:
000051:                                                                                                  #           = MEANS THAT MULTIPLE NAMES HAVE BEEN GIVEN TO THE SAME DATA.
000052:                                                                                                  #                  (THIS IS LOGICAL EQUIVALENCE, NOT SHARING)  EXAMPLE.
000053:
000054:                                                                                                  #                                          X        =      Y
000055:
000056:                                                                                                  #           THE SIZE AND UTILIZATION OF AN ERASABLE ARE OFTEN INCLUDED IN
000057:                                                                                                  #           THE COMMENTS IN THE FOLLOWING FORM.  M(SIZE)N.
000058:
000059:                                                                                                  #                  M REFERS TO THE MOBILITY OF THE ASSIGNMENT.
000060:                                                                                                  #                       B   MEANS THAT THE SYMBOL IS REFERENCED BY BASIC
000061:                                                                                                  #                           INSTRUCTIONS AND THUS IS E-BANK SENSITIVE.
000062:                                                                                                  #                       I   MEANS THAT THE SYMBOL IS REFERENCED ONLY BY
000063:                                                                                                  #                           INTERPRETIVE INSTRUCTIONS, AND IS THUS E-BANK
000064:                                                                                                  #                           INSENSITIVE AND MAY APPEAR IN ANY E-BANK.
000065:
000066:                                                                                                  #                  SIZE IS THE NUMBER OF REGISTERS INCLUDED BY THE SYMBOL.
000067:
000068:                                                                                                  #                  N INDICATES THE NATURE OR PERMANENCE OF THE CONTENTS.
000069:                                                                                                  #                       PL  MEANS THAT THE CONTENTS ARE PAD LOADED.
000070:                                                                                                  #                       DSP MEANS THAT THE REGISTER IS USED FOR A DISPLAY.
000071:                                                                                                  #                       PRM MEANS THAT THE REGISTER IS PERMANENT, IE. IT
000072:                                                                                                  #                           IS USED DURING THE ENTIRE MISSION FOR ONE
000073:                                                                                                  #                           PURPOSE AND CANNOT BE SHARED.
000074:                                                                                                  #                       TMP MEANS THAT THE REGISTER IS USED TEMPORARILY OR
000075:                                                                                                  #                           IS A SCRATCH REGISTER FOR THE ROUTINE TO WHICH
000076:                                                                                                  #                           IT IS ASSIGNED.  THAT IS, IT NEED NOT BE SET
000077:                                                                                                  #                           PRIOR TO INVOCATION OF THE ROUTINE NOR DOES IT
000078:                                                                                                  #                           CONTAIN USEFUL OUTPUT TO ANOTHER ROUTINE.  THUS
000079:


000081:                                                                                                  #                           IT MAY BE SHARED WITHANY OTHER ROUTINE WHICH
000082:                                                                                                  #                           IS NOT ACTIVE IN PARALLEL.
000083:                                                                                                  #                      IN   MEANS INPUT TO THE ROUTINE AND IT IS PROBABLY
000084:                                                                                                  #                           TEMPORARY FOR A HIGHER-LEVEL ROUTINE/PROGRAM.
000085:                                                                                                  #                      OUT  MEANS OUTPUT FROM THE ROUTINE, PROBABLY
000086:                                                                                                  #                           TEMPORARY FOR A HIGHER-LEVEL ROUTINE/PROGRAM.
000087:


000089:                                                                                                  #           SPECIAL REGISTERS.
000090:
000091: 24,2022                        A                  EQUALS   0
000092: 24,2022                        L                  EQUALS   1                                     #  L AND Q ARE BOTH CHANNELS AND REGISTERS.
000093: 24,2022                        Q                  EQUALS   2
000094: 24,2022                        EBANK              EQUALS   3
000095: 24,2022                        FBANK              EQUALS   4
000096: 24,2022                        Z                  EQUALS   5                                     #  ADJACENT TO FBANK AND BBANK FOR DXCH Z
000097: 24,2022                        BBANK              EQUALS   6                                     #  (DTCB) AND DXCH FBANK (DTCF).
000098:                                                                                                  #  REGISTER 7 IS A ZERO-SOURCE, USED BY ZL.
000099:
000100: 24,2022                        ARUPT              EQUALS   10                                    #  INTERRUPT STORAGE.
000101: 24,2022                        LRUPT              EQUALS   11
000102: 24,2022                        QRUPT              EQUALS   12
000103: 24,2022                        SAMPTIME           EQUALS   13                                    #  SAMPLED TIME 1 & 2.
000104: 24,2022                        ZRUPT              EQUALS   15                                    #  (13 AND 14 ARE SPARES.)
000105: 24,2022                        BANKRUPT           EQUALS   16                                    #  USUALLY HOLDS FBANK OR BBANK.
000106: 24,2022                        BRUPT              EQUALS   17                                    #  RESUME ADDRESS AS WELL.
000107:
000108: 24,2022                        CYR                EQUALS   20
000109: 24,2022                        SR                 EQUALS   21
000110: 24,2022                        CYL                EQUALS   22
000111: 24,2022                        EDOP               EQUALS   23                                    #  EDITS INTERPRETIVE OPERATION CODE PAIRS.
000112:
000113: 24,2022                        TIME2              EQUALS   24
000114: 24,2022                        TIME1              EQUALS   25
000115: 24,2022                        TIME3              EQUALS   26
000116: 24,2022                        TIME4              EQUALS   27
000117: 24,2022                        TIME5              EQUALS   30
000118: 24,2022                        TIME6              EQUALS   31
000119: 24,2022                        CDUX               EQUALS   32
000120: 24,2022                        CDUY               EQUALS   33
000121: 24,2022                        CDUZ               EQUALS   34
000122: 24,2022                        CDUT               EQUALS   35                                    #  REND RADAR TRUNNION CDU
000123: 24,2022                        CDUS               EQUALS   36                                    #  REND RADAR SHAFT CDU
000124: 24,2022                        PIPAX              EQUALS   37
000125: 24,2022                        PIPAY              EQUALS   40
000126: 24,2022                        PIPAZ              EQUALS   41
000127: 24,2022                        Q-RHCCTR           EQUALS   42                                    #  RHC COUNTER REGISTERS
000128: 24,2022                        P-RHCCTR           EQUALS   43
000129: 24,2022                        R-RHCCTR           EQUALS   44
000130: 24,2022                        INLINK             EQUALS   45
000131: 24,2022                        RNRAD              EQUALS   46
000132: 24,2022                        GYROCMD            EQUALS   47
000133: 24,2022                        CDUXCMD            EQUALS   50
000134: 24,2022                        CDUYCMD            EQUALS   51
000135: 24,2022                        CDUZCMD            EQUALS   52
000136: 24,2022                        CDUTCMD            EQUALS   53                                    #  RADAR TRUNNION COMMAND
000137: 24,2022                        CDUSCMD            EQUALS   54                                    #  RADAR SHAFT COMMAND
000138:


000140: 24,2022                        THRUST             EQUALS   55
000141: 24,2022                        LEMONM             EQUALS   56
000142: 24,2022                        OUTLINK            EQUALS   57
000143: 24,2022                        ALTM               EQUALS   60
000144:
000145:                                                                                                  #           INTERPRETIVE REGISTERS ADDRESSED RELATIVE TO VAC AREA.
000146:
000147: 24,2022                        LVSQUARE           EQUALS   34D                                   #  SQUARE OF VECTOR INPUT TO ABVAL AND UNIT
000148: 24,2022                        LV                 EQUALS   36D                                   #  LENGTH OF VECTOR INPUT TO UNIT.
000149: 24,2022                        X1                 EQUALS   38D                                   #  INTERPRETIVE SPECIAL REGISTERS RELATIVE
000150: 24,2022                        X2                 EQUALS   39D                                   #  TO THE WORK AREA.
000151: 24,2022                        S1                 EQUALS   40D
000152: 24,2022                        S2                 EQUALS   41D
000153: 24,2022                        QPRET              EQUALS   42D
000154:
000155:                                                                                                  #  INPUT/OUTPUT CHANNELS
000156:
000157:                                                                                                  #                                *** CHANNEL ZERO IS TO BE USED IN AN INDEXED OPERATION ONLY. ***
000158: 24,2022  0000001               LCHAN              EQUALS   L
000159: 24,2022  0000002               QCHAN              EQUALS   Q
000160: 24,2022                        HISCALAR           EQUALS   3
000161: 24,2022                        LOSCALAR           EQUALS   4
000162: 24,2022                        CHAN5              EQUALS   5
000163: 24,2022                        CHAN6              EQUALS   6
000164: 24,2022                        SUPERBNK           EQUALS   7                                     #  SUPER-BANK.
000165: 24,2022                        OUT0               EQUALS   10
000166: 24,2022                        DSALMOUT           EQUALS   11
000167: 24,2022                        CHAN12             EQUALS   12
000168: 24,2022                        CHAN13             EQUALS   13
000169: 24,2022                        CHAN14             EQUALS   14
000170: 24,2022                        MNKEYIN            EQUALS   15
000171: 24,2022                        NAVKEYIN           EQUALS   16
000172: 24,2022                        CHAN30             EQUALS   30
000173: 24,2022                        CHAN31             EQUALS   31
000174: 24,2022                        CHAN32             EQUALS   32
000175: 24,2022                        CHAN33             EQUALS   33
000176: 24,2022                        DNTM1              EQUALS   34
000177: 24,2022                        DNTM2              EQUALS   35
000178:                                                                                                  #  END OF CHANNEL ASSIGNMENTS
000179:


000181:                                                                                                  #  INTERPRETIVE SWITCH BIT ASSIGNMENTS
000182:
000183:
000184:                                                                                                  #              **  FLAGWORDS AND BITS NOW ASSIGNED AND DEFINED IN THEIR OWN LOG SECTION.  **
000185:


000187:                                                                                                  #  GENERAL ERASABLE ASSIGNMENTS.
000188:
000189:    0061                                           SETLOC   61
000190:                                                                                                  #           INTERRUPT TEMPORARY STORAGE POOL.                              (11D)
000191:
000192:                                                                                                  #             (ITEMP1 THROUGH RUPTREG4)
000193:
000194:                                                                                                  #           ANY OF THESE MAY BE USED AS TEMPORARIES DURING INTERRUPT OR WITH INTERRUPT INHIBITED. THE ITEMP SERIES
000195:                                                                                                  #  IS USED DURING CALLS TO THE EXECUTIVE AND WAITLIST - THE RUPTREGS ARE NOT.
000196:
000197:    0061                        ITEMP1             ERASE
000198:    0062     0061               WAITEXIT           EQUALS   ITEMP1
000199:    0062     0061               EXECTEM1           EQUALS   ITEMP1
000200:
000201:    0062                        ITEMP2             ERASE
000202:    0063     0062               WAITBANK           EQUALS   ITEMP2
000203:    0063     0062               EXECTEM2           EQUALS   ITEMP2
000204:
000205:    0063                        ITEMP3             ERASE
000206:    0064     0063               RUPTSTOR           EQUALS   ITEMP3
000207:    0064     0063               WAITADR            EQUALS   ITEMP3
000208:    0064     0063               NEWPRIO            EQUALS   ITEMP3
000209:
000210:    0064                        ITEMP4             ERASE
000211:    0065     0064               LOCCTR             EQUALS   ITEMP4
000212:    0065     0064               WAITTEMP           EQUALS   ITEMP4
000213:
000214:    0065                        ITEMP5             ERASE
000215:    0066     0065               NEWLOC             EQUALS   ITEMP5
000216:
000217:    0066                        ITEMP6             ERASE
000218:                                                                                                  #  NEWLOC+1      EQUALS  ITEMP6          DP ADDRESS.
000219:
000220:    0067                                           SETLOC   67
000221:    0067                        NEWJOB             ERASE                                          #  MUST BE AT LOC 67 DUE TO WIRING.
000222:
000223:    0070                        RUPTREG1           ERASE
000224:    0071                        RUPTREG2           ERASE
000225:    0072                        RUPTREG3           ERASE
000226:    0073                        RUPTREG4           ERASE
000227:    0074     0073               KEYTEMP1           EQUALS   RUPTREG4
000228:    0074     0073               DSRUPTEM           EQUALS   RUPTREG4
000229:
000230:                                                                                                  #           FLAGWORD RESERVATIONS.                (16D)
000231:
000232:    0074                        STATE              ERASE    +15D                                  #  FLAGWORD REGISTERS.
000233:
000234:                                                                                                  #           P25 RADAR STORAGE.  (MAY BE UNSHARED IN E7)  (TEMP OVERLAY)  (2D)  OVERLAYS FLGWRD 14 & 15
000235:


000237:    0114     0112               LASTYCMD           EQUALS   STATE      +14D                       #  B(1)PRM  THESE ARE CALLED BY T4RUPT
000238:    0114     0113               LASTXCMD           EQUALS   LASTYCMD   +1                         #  B(1)PRM  THEY MUST BE CONTIGUOUS,Y FIRST
000239:
000240:
000241:
000242:                                                                                                  #           EXEC TEMPORARIES WHICH MAY BE USED BETWEEN CCS NEWJOBS. (32D) (INTB15+ THROUGH RUPTMXTM)
000243:    0114                        INTB15+            ERASE                                          #  REFLECTS 15TH BIT OF INDEXABLE ADDRESSES
000244:    0115     0114               DSEXIT             =        INTB15+                               #  RETURN FOR DSPIN
000245:    0115     0114               EXITEM             =        INTB15+                               #  RETURN FOR SCALE FACTOR ROUTINE SELECT
000246:    0115     0114               BLANKRET           =        INTB15+                               #  RETURN FOR 2BLANK
000247:
000248:    0115                        INTBIT15           ERASE                                          #  SIMILAR TO ABOVE.
000249:    0116     0115               WRDRET             =        INTBIT15                              #  RETURN FOR 5BLANK
000250:    0116     0115               WDRET              =        INTBIT15                              #  RETURN FOR DSPWD
000251:    0116     0115               DECRET             =        INTBIT15                              #  RETURN FOR PUTCOM(DEC LOAD)
000252:    0116     0115               21/22REG           =        INTBIT15                              #  TEMP FOR CHARIN
000253:
000254:                                                                                                  #           THE REGISTERS BETWEEN ADDRWD AND PRIORITY MUST STAY IN THE FOLLOWING ORDER FOR INTERPRETIVE TRACE.
000255:
000256:    0116                        ADDRWD             ERASE                                          #  12 BIT INTERPRETIVE OPERAND SUB-ADDRESS.
000257:    0117                        POLISH             ERASE                                          #  HOLDS CADR MADE FROM POLISH ADDRESS.
000258:    0120     0117               UPDATRET           =        POLISH                                #  RETURN FOR UPDATNN, UPDATVB
000259:    0120     0117               CHAR               =        POLISH                                #  TEMP FOR CHARIN
000260:    0120     0117               ERCNT              =        POLISH                                #  COUNTER FOR ERROR LIGHT RESET
000261:    0120     0117               DECOUNT            =        POLISH                                #  COUNTER FOR SCALING AND DISPLAY (DEC)
000262:
000263:    0120                        FIXLOC             ERASE                                          #  WORK AREA ADDRESS.
000264:    0121                        OVFIND             ERASE                                          #  SET NON-ZERO ON OVERFLOW.
000265:
000266:    0122                        VBUF               ERASE    +5                                    #  TEMPORARY STORAGE USED FOR VECTORS.
000267:    0130     0122               SGNON              =        VBUF                                  #  TEMP FOR +,- ON
000268:    0130     0122               NOUNTEM            =        VBUF                                  #  COUNTER FOR MIXNOUN FETCH
000269:    0130     0122               DISTEM             =        VBUF                                  #  COUNTER FOR OCTAL DISPLAY VERBS
000270:    0130     0122               DECTEM             =        VBUF                                  #  COUNTER FOR FETCH (DEC DISPLAY VERBS)
000271:
000272:    0130     0123               SGNOFF             =        VBUF       +1                         #  TEMP FOR +,- ON
000273:    0130     0123               NVTEMP             =        VBUF       +1                         #  TEMP FOR NVSUB
000274:    0130     0123               SFTEMP1            =        VBUF       +1                         #  STORAGE FOR SF CONST HI PART(=SFTEMP2-1)
000275:    0130     0123               HITEMIN            =        VBUF       +1                         #  TEMP FOR LOAD OF HRS, MIN, SEC
000276:                                                                                                  #           MUST = LOTEMIN-1.
000277:    0130     0124               CODE               =        VBUF       +2                         #  FOR DSPIN
000278:    0130     0124               SFTEMP2            =        VBUF       +2                         #  STORAGE FOR SF CONST LO PART(=SFTEMP1+1)
000279:    0130     0124               LOTEMIN            =        VBUF       +2                         #  TEMP FOR LOAD OF HRS, MIN, SEC
000280:                                                                                                  #           MUST = HITEMIN+1.
000281:    0130     0125               MIXTEMP            =        VBUF       +3                         #  FOR MIXNOUN DATA
000282:    0130     0125               SIGNRET            =        VBUF       +3                         #  RETURN FOR +,- ON
000283:
000284:                                                                                                  #  ALSO MIXTEMP+1 = VBUF+4, MIXTEMP+2 = VBUF+5.
000285:
000286:    0130                        BUF                ERASE    +2                                    #  TEMPORARY SCALAR STORAGE.
000287:


000289:    0133                        BUF2               ERASE    +1
000290:    0135     0130               INDEXLOC           EQUALS   BUF                                   #  CONTAINS ADDRESS OF SPECIFIED INDEX.
000291:    0135     0130               SWWORD             EQUALS   BUF                                   #  ADDRESS OF SWITCH WORD.
000292:    0135     0131               SWBIT              EQUALS   BUF        +1                         #  SWITCH BIT WITHIN SWITCH WORD.
000293:    0135                        MPTEMP             ERASE                                          #  TEMPORARY USED IN MULTIPLY AND SHIFT.
000294:    0136     0135               DMPNTEMP           =        MPTEMP                                #  DMPSUB TEMPORARY
000295:    0136                        DOTINC             ERASE                                          #  COMPONENT INCREMENT FOR DOT SUBROUTINE.
000296:    0137     0136               DVSIGN             EQUALS   DOTINC                                #  DETERMINES SIGN OF DDV RESULT.
000297:    0137     0136               ESCAPE             EQUALS   DOTINC                                #  USED IN ARCSIN/ARCCOS.
000298:    0137     0136               ENTRET             =        DOTINC                                #  EXIT FROM ENTER
000299:
000300:    0137                        DOTRET             ERASE                                          #  RETURN FROM DOT SUBROUTINE.
000301:    0140     0137               DVNORMCT           EQUALS   DOTRET                                #  DIVIDEND NORMALIZATION COUNT IN DDV.
000302:    0140     0137               ESCAPE2            EQUALS   DOTRET                                #  ALTERNATE ARCSIN/ARCCOS SWITCH.
000303:    0140     0137               WDCNT              =        DOTRET                                #  CHAR COUNTER FOR DSPWD
000304:    0140     0137               INREL              =        DOTRET                                #  INPUT BUFFER SELECTOR ( X,Y,Z, REG )
000305:
000306:    0140                        MATINC             ERASE                                          #  VECTOR INCREMENT IN MXV AND VXM.
000307:    0141     0140               MAXDVSW            EQUALS   MATINC                                #  +0 IF DP QUOTIENT IS NEAR ONE - ELSE -1.
000308:    0141     0140               POLYCNT            EQUALS   MATINC                                #  POLYNOMIAL LOOP COUNTER
000309:    0141     0140               DSPMMTEM           =        MATINC                                #  DSPCOUNT SAVE FOR DSPMM
000310:    0141     0140               MIXBR              =        MATINC                                #  INDICATOR FOR MIXED OR NORMAL NOUN
000311:
000312:    0141                        TEM1               ERASE                                          #  EXEC TEMP
000313:    0142     0141               POLYRET            =        TEM1
000314:    0142     0141               DSREL              =        TEM1                                  #  REL ADDRESS FOR DSPIN
000315:
000316:    0142                        TEM2               ERASE                                          #  EXEC TEMP
000317:    0143     0142               DSMAG              =        TEM2                                  #  MAGNITUDE STORE FOR DSPIN
000318:    0143     0142               IDADDTEM           =        TEM2                                  #  MIXNOUN INDIRECT ADDRESS STORAGE
000319:
000320:    0143                        TEM3               ERASE                                          #  EXEC TEMP
000321:    0144     0143               COUNT              =        TEM3                                  #  FOR DSPIN
000322:
000323:    0144                        TEM4               ERASE                                          #  EXEC TEMP
000324:    0145     0144               LSTPTR             =        TEM4                                  #  LIST POINTER FOR GRABUSY
000325:    0145     0144               RELRET             =        TEM4                                  #  RETURN FOR RELDSP
000326:    0145     0144               FREERET            =        TEM4                                  #  RETURN FOR FREEDSP
000327:    0145     0144               DSPWDRET           =        TEM4                                  #  RETURN FOR DSPSIGN
000328:    0145     0144               SEPSCRET           =        TEM4                                  #  RETURN FOR SEPSEC
000329:    0145     0144               SEPMNRET           =        TEM4                                  #  RETURN FOR SEPMIN
000330:
000331:    0145                        TEM5               ERASE                                          #  EXEC TEMP
000332:    0146     0145               NOUNADD            =        TEM5                                  #  TEMP STORAGE FOR NOUN ADDRESS
000333:
000334:    0146                        NNADTEM            ERASE                                          #  TEMP FOR NOUN ADDRESS TABLE ENTRY
000335:    0147                        NNTYPTEM           ERASE                                          #  TEMP FOR NOUN TYPE TABLE ENTRY
000336:    0150                        IDAD1TEM           ERASE                                          #  TEMP FOR INDIR ADRESS TABLE ENTRY(MIXNN)
000337:                                                                                                  #  MUST = IDAD2TEM-1, = IDAD3TEM-2.
000338:    0151                        IDAD2TEM           ERASE                                          #  TEMP FOR INDIR ADRESS TABLE ENTRY(MIXNN)
000339:


000341:                                                                                                  #  MUST = IDAD1TEM+1, = IDAD3TEM-1.
000342:    0152                        IDAD3TEM           ERASE                                          #  TEMP FOR INDIR ADRESS TABLE ENTRY (MIXNN)
000343:                                                                                                  #  MUST = IDAD1TEM+2, = IDAD2TEM+1.
000344:    0153                        RUTMXTEM           ERASE                                          #  TEMP FOR SF ROUT TABLE ENTRY (MIXNN ONLY)
000345:
000346:                                                                                                  #           AX*SR*T STORAGE.                      (6D)
000347:    0154     0142               DEXDEX             EQUALS   TEM2                                  #  B(1)TMP
000348:    0154     0143               DEX1               EQUALS   TEM3                                  #  B(1)TMP
000349:    0154     0144               DEX2               EQUALS   TEM4                                  #  B(1)TMP
000350:    0154     0145               RTNSAVER           EQUALS   TEM5                                  #  B(1)TMP
000351:    0154     0157               TERM1TMP           EQUALS   MPAC       +3                         #  B(2)TMP
000352:
000353:    0154     0143               DEXI               =        DEX1
000354:
000355:                                                                                                  #           THE FOLLOWING 10 REGISTERS ARE USED FOR TEMPORARY STORAGE OF THE DERIVATIVE COEFFICIENT TABLE OF
000356:                                                                                                  #  SUBROUTINE ROOTPSRS.   THEY MUST REMAIN WITHOUT INTERFERENCE WITH ITS SUBROUTINES WHICH ARE POWRSERS (POLY),
000357:                                                                                                  #  DMPSUB, DMPNSUB, SHORTMP, DDV/BDDV, ABS, AND USPRCADR.
000358:
000359:    0154     0142               DERCOF-8           =        MPAC       -12                        #  ROOTPSRS DER COF N-4 HI ORDER
000360:    0154     0143               DERCOF-7           =        MPAC       -11                        #  ROOTPSRS DER COF N-4 LO ORDER
000361:    0154     0144               DERCOF-6           =        MPAC       -10                        #  ROOTPSRS DER COF N-3 HI ORDER
000362:    0154     0145               DERCOF-5           =        MPAC       -7                         #  ROOTPSRS DER COF N-3 LO ORDER
000363:    0154     0146               DERCOF-4           =        MPAC       -6                         #  ROOTPSRS DER COF N-2 HI ORDER
000364:    0154     0147               DERCOF-3           =        MPAC       -5                         #  ROOTPSRS DER COF N-2 LO ORDER
000365:    0154     0150               DERCOF-2           =        MPAC       -4                         #  ROOTPSRS DER COF N-1 HI ORDER
000366:    0154     0151               DERCOF-1           =        MPAC       -3                         #  ROOTPSRS DER COF N-1 LO ORDER
000367:    0154     0152               DERCOFN            =        MPAC       -2                         #  ROOTPSRS DER COF N HI ORDER
000368:    0154     0153               DERCOF+1           =        MPAC       -1                         #  ROOTPSRS DER COF N LO ORDER
000369:
000370:    0154     0117               PWRPTR             =        POLISH                                #  ROOTPSRS POWER TABLE POINTER
000371:    0154     0124               DXCRIT             =        VBUF       +2                         #  ROOTPSRS CRITERION FOR ENDING ITERS HI
000372:    0154     0125               DXCRIT+1           =        VBUF       +3                         #  ROOTPSRS CRITERION FOR ENDING ITERS LO
000373:    0154     0126               ROOTPS             =        VBUF       +4                         #  ROOTPSRS ROOT HI ORDER
000374:    0154     0127               ROOTPS+1           =        VBUF       +5                         #  ROOTPSRS ROOT LO ORDER
000375:    0154     0132               RETROOT            =        BUF        +2                         #  ROOTPSRS RETURN ADDRESS OF USER
000376:    0154     0140               PWRCNT             =        MATINC                                #  ROOTPSRS DER TABLE LOOP COUNTER
000377:    0154     0141               DERPTR             =        TEM1                                  #  ROOTPSRS DER TABLE POINTER
000378:


000380:                                                                                                  #           DYNAMICALLY ALLOCATED CORE SETS FOR JOBS.                    (84D)
000381:
000382:    0154                        MPAC               ERASE    +6                                    #  MULTI-PURPOSE ACCUMULATOR.
000383:    0163                        MODE               ERASE                                          #  +1 FOR TP, +0 FOR DP, OR -1 FOR VECTOR.
000384:    0164                        LOC                ERASE                                          #  LOCATION ASSOCIATED WITH JOB.
000385:    0165                        BANKSET            ERASE                                          #  USUALLY CONTAINS BBANK SETTING.
000386:    0166                        PUSHLOC            ERASE                                          #  WORD OF PACKED INTERPRETIVE PARAMETERS.
000387:    0167                        PRIORITY           ERASE                                          #  PRIORITY OF PRESENT JOB AND WORK AREA.
000388:
000389:    0170                                           ERASE    +83D                                  #  EIGHT SETS OF  12 REGISTERS EACH
000390:
000391:                                                                                                  #  INCORP STORAGE: R22 (N29)    (SHARES WITH FOLLOWING SECTION)         (4D)
000392:
000393:    0314     0314               R22DISP            EQUALS   TIME2SAV                              #  I(4) N49 DISPLAY OF DELTA R AND DELTA V
000394:
000395:
000396:                                                                                                  #  STANDBY VERB ERASABLES.  REDOCTR BEFORE THETADS.                      (14D)
000397:
000398:    0314                        TIME2SAV           ERASE    +1
000399:    0316                        SCALSAVE           ERASE    +1
000400:    0320                        REDOCTR            ERASE                                          #  CONTAINS NUMBER OF RESTARTS
000401:    0321                        THETAD             ERASE    +2
000402:    0324     0321               CPHI               =        THETAD                                #  O   DESIRED GIMBAL ANGLES
000403:    0324     0322               CTHETA             =        THETAD     +1                         #  I   FOR
000404:    0324     0323               CPSI               =        THETAD     +2                         #  M   MANEUVER.
000405:    0324                        DELV               ERASE    +5
000406:    0332     0324               DELVX              =        DELV
000407:    0332     0326               DELVY              =        DELV       +2
000408:    0332     0330               DELVZ              =        DELV       +4
000409:
000410:
000411:
000412:                                                                                                  #           DOWNLINK STORAGE.                                            (28D)
000413:
000414:    0332     0332               DNLSTADR           EQUALS   DNLSTCOD
000415:
000416:    0332                        DNLSTCOD           ERASE                                          #  B(1)PRM DOWNLIINK LIST CODE
000417:    0333                        DUMPCNT            ERASE                                          #  B(1)
000418:    0334                        LDATALST           ERASE    +25D                                  #  (26D)
000419:    0366     0335               DNTMGOTO           EQUALS   LDATALST   +1                         #  B(1)
000420:    0366     0336               TMINDEX            EQUALS   DNTMGOTO   +1                         #  B(1)
000421:    0366     0336               DUMPLOC            EQUALS   TMINDEX                               #  CONTAINS ECADR OF AGC DP WORD BEING DUMP
000422:                                                                                                  #  ED AND COUNT OF COMPLETE DUMPS ALREADY S
000423:                                                                                                  #  ENT.
000424:    0366     0337               DNQ                EQUALS   TMINDEX    +1                         #  B(1)
000425:    0366     0340               DNTMBUFF           EQUALS   DNQ        +1                         #  B(22)PRM DOWNLINK SNAPSHOT BUFFER
000426:
000427:                                                                                                  #           UNSWITCHED FOR DISPLAY INTERFACE ROUTINES.                   (10D) FIVE MORE IN EBANK 2
000428:


000430:    0366                        RESTREG            ERASE                                          #  B(1)PRM FOR DISPLAY RESTARTS
000431:    0367                        NVWORD             ERASE
000432:    0370                        MARKNV             ERASE
000433:    0371                        NVSAVE             ERASE
000434:                                                                                                  #                  (RETAIN THE ORDER OF CADRFLSH TO FAILREG +2 FOR DOWNLINK PURPOSES)
000435:    0372                        CADRFLSH           ERASE
000436:    0373                        CADRMARK           ERASE
000437:    0374                        TEMPFLSH           ERASE
000438:    0375                        FAILREG            ERASE    +2                                    #  B(3)PRM 3 ALARM CODE REGISTERS
000439:
000440:                                                                                                  #           VAC AREAS. -BE CAREFUL OF PLACEMENT-                         (220D)
000441:
000442:    0400                        VAC1USE            ERASE
000443:    0401                        VAC1               ERASE    +42D
000444:    0454                        VAC2USE            ERASE
000445:    0455                        VAC2               ERASE    +42D
000446:    0530                        VAC3USE            ERASE
000447:    0531                        VAC3               ERASE    +42D
000448:    0604                        VAC4USE            ERASE
000449:    0605                        VAC4               ERASE    +42D
000450:    0660                        VAC5USE            ERASE
000451:    0661                        VAC5               ERASE    +42D
000452:
000453:                                                                                                  #           WAITLIST REPEAT FLAG.                                        (1D)
000454:
000455:    0734                        RUPTAGN            ERASE
000456:    0735     0734               KEYTEMP2           =        RUPTAGN                               #  TEMP FOR KEYRUPT, UPRUPT
000457:
000458:
000459:                                                                                                  #           STARALIGN ERASABLES.                                         (13D)
000460:
000461:    0735                        STARCODE           ERASE                                          #  (1)
000462:    0736     0735               AOTCODE            =        STARCODE
000463:    0736                        STARALGN           ERASE    +11D
000464:    0752     0736               SINCDU             =        STARALGN
000465:    0752     0744               COSCDU             =        STARALGN   +6
000466:
000467:    0752     0742               SINCDUX            =        SINCDU     +4
000468:    0752     0736               SINCDUY            =        SINCDU
000469:    0752     0740               SINCDUZ            =        SINCDU     +2
000470:    0752     0750               COSCDUX            =        COSCDU     +4
000471:    0752     0744               COSCDUY            =        COSCDU
000472:    0752     0746               COSCDUZ            =        COSCDU     +2
000473:
000474:
000475:                                                                                                  #           PHASE TABLE AND RESTART COUNTERS.                            (12D)
000476:
000477:    0752                        -PHASE1            ERASE
000478:


000480:    0753                        PHASE1             ERASE
000481:    0754                        -PHASE2            ERASE
000482:    0755                        PHASE2             ERASE
000483:    0756                        -PHASE3            ERASE
000484:    0757                        PHASE3             ERASE
000485:    0760                        -PHASE4            ERASE
000486:    0761                        PHASE4             ERASE
000487:    0762                        -PHASE5            ERASE
000488:    0763                        PHASE5             ERASE
000489:    0764                        -PHASE6            ERASE
000490:    0765                        PHASE6             ERASE
000491:
000492:                                                                                                  #           A**SR*T STORAGE.                                             (6D)
000493:
000494:    0766                        CDUSPOT            ERASE    +5                                    #  B(6)
000495:
000496:    0774     0766               CDUSPOTY           =        CDUSPOT
000497:    0774     0770               CDUSPOTZ           =        CDUSPOT    +2
000498:    0774     0772               CDUSPOTX           =        CDUSPOT    +4
000499:
000500:                                                                                                  #           VERB 37 STORAGE.                                             (2D)
000501:
000502:    0774                        MINDEX             ERASE                                          #  B(1)TMP INDEX FOR MAJOR MODE
000503:    0775                        MMNUMBER           ERASE                                          #  B(1)TMP MAJOR MODE REQUESTED BY V37
000504:
000505:                                                                                                  #  PINBALL INTERRUPT ACTION.                                             (1D)
000506:
000507:    0776                        DSPCNT             ERASE                                          #  B(1)PRM COUNTER FOR DSPOUT.
000508:
000509:                                                                                                  #  PINBALL EXECUTIVE ACTION                                              (44D)
000510:
000511:    0777                        DSPCOUNT           ERASE                                          #  DISPLAY POSITION INDICATOR.
000512:    1000                        DECBRNCH           ERASE                                          #  +DEC, -DEC, OCT INDICATOR
000513:    1001                        VERBREG            ERASE                                          #  VERB CODE
000514:    1002                        NOUNREG            ERASE                                          #  NOUN CODE
000515:    1003                        XREG               ERASE                                          #  R1 INPUT BUFFER
000516:    1004                        YREG               ERASE                                          #  R2 INPUT BUFFER
000517:    1005                        ZREG               ERASE                                          #  R3 INPUT BUFFER
000518:    1006                        XREGLP             ERASE                                          #  LO PART OF XREG (FOR DEC CONV ONLY)
000519:    1007                        YREGLP             ERASE                                          #  LO PART OF YREG (FOR DEC CONV ONLY)
000520:    1010     1007               HITEMOUT           =        YREGLP                                #  TEMP FOR DISPLAY OF HRS, MIN, SEC
000521:                                                                                                  #           MUST = LOTEMOUT-1.
000522:    1010                        ZREGLP             ERASE                                          #  LO PART OF ZREG (FOR DEC CONV ONLY)
000523:    1011     1010               LOTEMOUT           =        ZREGLP                                #  TEMP FOR DISPLAY OF HRS, MIN, SEC
000524:                                                                                                  #           MUST = HITEMOUT+1.
000525:    1011                        MODREG             ERASE                                          #  MODE CODE
000526:


000528:    1012                        DSPLOCK            ERASE                                          #  KEYBOARD/SUBROUTINE CALL INTERLOCK
000529:    1013                        REQRET             ERASE                                          #  RETURN REGISTER FOR LOAD
000530:    1014                        LOADSTAT           ERASE                                          #  STATUS INDICATOR FOR LOADTST
000531:    1015                        CLPASS             ERASE                                          #  PASS INDICATOR CLEAR
000532:    1016                        NOUT               ERASE                                          #  ACTIVITY COUNTER FOR DSPTAB
000533:    1017                        NOUNCADR           ERASE                                          #  MACHINE CADR FOR NOUN
000534:    1020                        MONSAVE            ERASE                                          #  N/V CODE FOR MONITOR. (= MONSAVE1-1)
000535:    1021                        MONSAVE1           ERASE                                          #  NOUNCADR FOR MONITOR(MATBS) =MONSAVE +1
000536:    1022                        MONSAVE2           ERASE                                          #  NVMONOPT OPTIONS
000537:    1023                        DSPTAB             ERASE    +11D                                  #  0-10D, DISPLAY PANEL BUFF. 11D, C/S LTS.
000538:    1037                        NVQTEM             ERASE                                          #  NVSUB STORAGE FOR CALLING ADDRESS
000539:                                                                                                  #  MUST = NVBNKTEM-1
000540:    1040                        NVBNKTEM           ERASE                                          #  NVSUB STORAGE FOR CALLING BANK
000541:                                                                                                  #  MUST = NVQTEM+1
000542:    1041                        VERBSAVE           ERASE                                          #  NEEDED FOR RECYCLE
000543:    1042                        CADRSTOR           ERASE                                          #  ENDIDLE STORAGE
000544:    1043                        DSPLIST            ERASE                                          #  WAITING REG FOR DSP SYST INTERNAL USE
000545:    1044                        EXTVBACT           ERASE                                          #  EXTENDED VERB ACTIVITY INTERLOCK
000546:    1045                        DSPTEM1            ERASE    +2                                    #  BUFFER STORAGE AREA 1 (MOSTLY FOR TIME)
000547:    1050                        DSPTEM2            ERASE    +2                                    #  BUFFER STORAGE AREA 2 (MOSTLY FOR DEG)
000548:
000549:    1053     1051               DSPTEMX            EQUALS   DSPTEM2    +1                         #  B(2) S-S DISPLAY BUFFER FOR EXT. VERBS
000550:    1053     1045               NORMTEM1           EQUALS   DSPTEM1                               #  B(3)DSP NORMAL DISPLAY REGISTERS.
000551:
000552:
000553:                                                                                                  #           DISPLAY FOR EXTENDED VERBS (V82, R04(V62), V41(N72) )        (2D)
000554:
000555:    1053     1051               OPTIONX            EQUALS   DSPTEMX                               #  (2) EXTENDED VERB OPTION CODE
000556:
000557:                                                                                                  #           TBASES AND PHSPRDT S.                                        (12D)
000558:
000559:    1053                        TBASE1             ERASE
000560:    1054                        PHSPRDT1           ERASE
000561:    1055                        TBASE2             ERASE
000562:    1056                        PHSPRDT2           ERASE
000563:    1057                        TBASE3             ERASE
000564:    1060                        PHSPRDT3           ERASE
000565:    1061                        TBASE4             ERASE
000566:    1062                        PHSPRDT4           ERASE
000567:    1063                        TBASE5             ERASE
000568:    1064                        PHSPRDT5           ERASE
000569:    1065                        TBASE6             ERASE
000570:    1066                        PHSPRDT6           ERASE
000571:
000572:                                                                                                  #           UNSWITCHED FOR DISPLAY INTERFACE ROUTINES.                   (6D)
000573:


000575:    1067                        NVWORD1            ERASE                                          #  B(1) PROBABLY FOR DISPLAY DURING SERVICER
000576:    1070                        EBANKSAV           ERASE
000577:    1071                        MARKEBAN           ERASE
000578:    1072                        EBANKTEM           ERASE
000579:    1073                        MARK2PAC           ERASE
000580:    1074                        R1SAVE             ERASE
000581:
000582:
000583:                                                                                                  #           IMU COMPENSATION UNSWITCHED ERASABLE.                        (1D)
000584:
000585:    1075                        1/PIPADT           ERASE
000586:
000587:
000588:                                                                                                  #           SINGLE PRECISION SUBROUTINE TEMPORARIES.                     (2D)
000589:
000590:    1076                        TEMK               ERASE                                          #  (1)
000591:    1077                        SQ                 ERASE                                          #  (1)
000592:
000593:
000594:                                                                                                  #           UNSWITCHED RADAR ERASABLE                                    (13D)
000595:
000596:    1100                        SAMPLIM            ERASE
000597:    1101                        SAMPLSUM           ERASE    +3
000598:    1105                        TIMEHOLD           ERASE    +1
000599:    1107     1101               RRTARGET           EQUALS   SAMPLSUM                              #  HALF U IT VECTOR IN SM OR NB AXES.
000600:    1107                        TANG               ERASE    +1                                    #  DESIRE TRUNNION AND SHAFT ANGLES.
000601:    1111     1107               MODEA              EQUALS   TANG
000602:    1111                        MODEB              ERASE    +1                                    #  DODES LOBBERS TANG +2.
000603:    1113     1111               NSAMP              EQUALS   MODEB
000604:    1113                        DESRET             ERASE
000605:    1114     1113               OLDATAGD           EQUALS   DESRET                                #  USED I  DATA READING ROUTINES.
000606:    1114                        DESCOUNT           ERASE
000607:
000608:                                                                                                  #           ******   P22   ******                                        (6D)
000609:
000610:    1115     1101               RSUBC              EQUALS   RRTARGET                              #  I(6)S-S  CSM POSITION VECTOR
000611:


000613:                                                                                                  #           UNSWITCHED FOR ORBIT INTEGRATION.                            (21D)
000614:
000615:    1115                        TDEC               ERASE    +20D                                  #  I(2)
000616:    1142     1117               COLREG             EQUALS   TDEC       +2                         #  I(1)
000617:    1142     1120               LAT                EQUALS   COLREG     +1                         #  I(2)
000618:    1142     1122               LONG               EQUALS   LAT        +2                         #  I(2)
000619:    1142     1124               ALT                EQUALS   LONG       +2                         #  I(2)
000620:    1142     1126               YV                 EQUALS   ALT        +2                         #  I(6)
000621:    1142     1134               ZV                 EQUALS   YV         +6                         #  I(6)
000622:
000623:
000624:                                                                                                  #           MISCELLANEOUS UNSWITCHED.                                    (20D)
000625:
000626:    1142                        P40/RET            ERASE                                          #  (WILL BE PUT IN E6 WHEN THERE IS ROOM)
000627:    1143                        GENRET             ERASE                                          #  B(1)  R61 RETURN CADR.
000628:    1144                        OPTION1            ERASE                                          #  B(1)   NOUN 06 USES THIS
000629:    1145                        OPTION2            ERASE                                          #  B(1)   NOUN 06 USES THIS
000630:    1146                        OPTION3            ERASE                                          #  B(1)  NOUN 06 USES THIS
000631:    1147                        LONGCADR           ERASE    +1                                    #  B(2)  LONGCALL REGISTER
000632:    1151                        LONGBASE           ERASE    +1
000633:    1153                        LONGTIME           ERASE    +1                                    #  B(2)    LONGCALL REGISTER
000634:    1155                        CDUTEMPX           ERASE                                          #  B(1)TMP
000635:    1156                        CDUTEMPY           ERASE                                          #  B(1)TMP
000636:    1157                        CDUTEMPZ           ERASE                                          #  B(1)TMP
000637:    1160                        PIPATMPX           ERASE                                          #  B(1)TMP
000638:    1161                        PIPATMPY           ERASE                                          #  B(1)TMP
000639:    1162                        PIPATMPZ           ERASE                                          #  B(1)TMP
000640:
000641:    1163                        DISPDEX            ERASE                                          #  B(1)
000642:    1164                        TEMPR60            ERASE                                          #  B(1)
000643:    1165                        PRIOTIME           ERASE                                          #  B(1)
000644:
000645:                                                                                                  #  P27  (UPDATE PROGRAM ) STORAGE.                                       (26D)
000646:
000647:    1166                        UPVERBSV           ERASE                                          #  B(1) UPDATE VERB ATTEMPTED.
000648:    1167                        UPTEMP             ERASE    +24D                                  #  B(1)TMP SCRATCH
000649:    1220     1167               INTWAK1Q           EQUALS   UPTEMP                                #      (BORROWS UPTEMP REGISTERS)
000650:                                                                                                  #  RETAIN THE ORDER OF COMPNUMB THRU UPBUFF +19D FOR DOWNLINK PURPOSES.
000651:    1220     1170               COMPNUMB           EQUALS   UPTEMP     +1                         #  B(1)TMP NUMBER OF ITEMS TO BE UPLINKED
000652:    1220     1171               UPOLDMOD           EQUALS   COMPNUMB   +1                         #  B(1)TMP INTERRUPTED PROGRAM MM
000653:    1220     1172               UPVERB             EQUALS   UPOLDMOD   +1                         #  B(1)TMP VERB NUMBER
000654:    1220     1173               UPCOUNT            EQUALS   UPVERB     +1                         #  B(1)TMP UPBUFF INDEX
000655:    1220     1174               UPBUFF             EQUALS   UPCOUNT    +1                         #  B(20D)
000656:
000657:
000658:                                                                                                  #           SPECIAL DEFINITION FOR SYSTEM TEST ERASABLE PGMS.            (2D)
000659:
000660:    1220     1167               EBUF2              EQUALS   UPTEMP                                #  B(2) FOR EXCLUSIVE USE OF SYSTEM TEST
000661:
000662:


000664:                                                                                                  #           PERM STATE VECTORS FOR BOOST AND DOWNLINK-WHOLE MISSION-     (14D)
000665:
000666:    1220                        RN                 ERASE    +5                                    #  B(6)PRM
000667:    1226                        VN                 ERASE    +5                                    #  B(6)PRM
000668:    1234                        PIPTIME            ERASE    +1                                    #  B(2)PRM  (MUST BE FOLLOWED BY GDT/2)
000669:
000670:
000671:                                                                                                  #           SERVICER   -MUST FOLLOW PIPTIME-                             (19D)
000672:
000673:    1236                        GDT/2              ERASE    +19D                                  #  B(6)TMP (MUST FOLLOW PIPTIME)
000674:    1262     1244               MASS               EQUALS   GDT/2      +6                         #  B(2)
000675:    1262     1244               WEIGHT/G           =        MASS
000676:    1262     1246               ABDELV             EQUALS   MASS       +2                         #  ALCMANU STORAGE)
000677:    1262     1247               PGUIDE             EQUALS   ABDELV     +1                         #  (2)
000678:    1262     1251               DVTHRUSH           EQUALS   PGUIDE     +2                         #  (1)
000679:    1262     1252               AVEGEXIT           EQUALS   DVTHRUSH   +1                         #   (2)
000680:    1262     1252               AVGEXIT            =        AVEGEXIT
000681:    1262     1254               TEMX               EQUALS   AVEGEXIT   +2                         #   (1)
000682:    1262     1255               TEMY               EQUALS   TEMX       +1                         #   (1)
000683:    1262     1256               TEMZ               EQUALS   TEMY       +1                         #   (1)
000684:    1262     1257               PIPAGE             EQUALS   TEMZ       +1                         #  B(1)
000685:    1262     1260               OUTROUTE           EQUALS   PIPAGE     +1                         #  B(1)
000686:
000687:
000688:
000689:                                                                                                  #           PERMANENT LEM DAP STORAGE.                                   (12D)
000690:
000691:    1262                        CH5MASK            ERASE                                          #  B(1)PRM
000692:    1263                        CH6MASK            ERASE                                          #  B(1)PRM JET FAILURE MASK.
000693:    1264                        DTHETASM           ERASE    +5                                    #   (6)
000694:    1272                        SPNDX              ERASE                                          #  B(1)
000695:    1273                        RCSFLAGS           ERASE                                          #  AUTOPILOT FLAG WORD
000696:                                                                                                  #  BIT ASSIGNMENTS:
000697:                                                                                                  #   1) ALTERYZ SWITCH  (ZEROOR1)
000698:                                                                                                  #   2) NEEDLER SWITCH
000699:                                                                                                  #   3) NEEDLER SWITCH
000700:                                                                                                  #   4) NEEDLER SWITCH
000701:                                                                                                  #   5) NEEDLER SWITCH
000702:                                                                                                  #   9) JUST-IN-DETENT SWITCH
000703:                                                                                                  #  10) PBIT - MANUAL CONTROL SWITCH
000704:                                                                                                  #  11) QRBIT - MANUAL CONTROL SWITCH
000705:                                                                                                  #  12) PSKIP CONTROL (PJUMPADR)
000706:                                                                                                  #  13) 1/ACCJOB CONTROL (ACCSET)
000707:    1274                        T5ADR              ERASE    +1                                    #  GENADR OF NEXT LM DAP T5RUPT. * 2CADR *
000708:                                                                                                  #  BBCON  OF NEXT LM DAP T5RUPT.   2CADR
000709:
000710:
000711:                                                                                                  #           RCS FAILURE MONITOR STORAGE.                                  (1)
000712:


000714:    1276                        PVALVEST           ERASE                                          #  B(1)PRM
000715:
000716:
000717:                                                                                                  #           KALCMANU/DAP INTERFACE.                                      (3D)
000718:
000719:    1277                        DELPEROR           ERASE                                          #  B(1)PRM COMMAND LAGS.
000720:    1300                        DELQEROR           ERASE                                          #  B(1)PRM
000721:    1301                        DELREROR           ERASE                                          #  B(1)PRM
000722:
000723:
000724:                                                                                                  #           MODE SWITCHING ERASABLE.                                     (9D)
000725:
000726:                                                                                                  #      RETAIN THE ORDER OF IMODES30 AND IMODES33 FOR DOWNLINK PURPOSES.
000727:    1302                        IMODES30           ERASE                                          #  B(1)
000728:    1303                        IMODES33           ERASE
000729:    1304                        MODECADR           ERASE    +2                                    #  B(3)PRM
000730:    1307     1304               IMUCADR            EQUALS   MODECADR
000731:    1307     1305               OPTCADR            EQUALS   MODECADR   +1
000732:    1307     1306               RADCADR            EQUALS   MODECADR   +2
000733:    1307                        ATTCADR            ERASE    +2                                    #  B(3)PRM
000734:    1312     1311               ATTPRIO            =        ATTCADR    +2
000735:    1312                        MARKSTAT           ERASE
000736:
000737:                                                                                                  #           T4RUPT ERASABLE.                                             (2D)
000738:
000739:    1313                        DSRUPTSW           ERASE
000740:    1314                        LGYRO              ERASE                                          #  (1)
000741:
000742:                                                                                                  #           RENDEZVOUS RADAR TASK STORAGE                                (3D)
000743:
000744:    1315                        RRRET              ERASE    +2D                                   #  B(1)TMP  P20'S, PERHAPS R29 & R12
000745:    1320     1316               RDES               EQUALS   RRRET      +1                         #  B(1)TMP
000746:    1320     1317               RRINDEX            EQUALS   RDES       +1                         #  B(1)TMP
000747:
000748:
000749:
000750:                                                                                                  #           MEASINC                                                      (4D)
000751:
000752:    1320                        WIXA               ERASE                                          #  B(1)
000753:    1321                        WIXB               ERASE                                          #  B(1)
000754:    1322                        ZIXA               ERASE                                          #  B(1)
000755:    1323                        ZIXB               ERASE                                          #  B(1)
000756:
000757:                                                                                                  #           AGS DUMMY ID WORD.                                           (1D)
000758:
000759:    1324                        AGSWORD            ERASE
000760:
000761:                                                                                                  #           SOME MISCELLANEOUS UNSWITCHED.                               (6D)
000762:


000764:
000765:    1325                        RATEINDX           ERASE                                          #   (1)    USED BY KALCMANU
000766:    1326                        DELAYLOC           ERASE    +2
000767:    1331                        LEMMASS            ERASE                                          #  KEEP CONTIGUOUS W.  CSMMASS  (1)EACH
000768:    1332                        CSMMASS            ERASE
000769:
000770:                                                                                                  #  LESS IS MORE.
000771:
000772:                                                                                                  #           RENDEZVOUS AND LANDING RADAR DOWNLINK STORAGE.               (7D)
000773:
000774:                                                                                                  #                  (NORMALLY USED DURING P20, BUT MAY ALSO)
000775:                                                                                                  #                  (BE REQUIRED FOR THE V62 SPURIOUS TEST.)
000776:
000777:                                                                                                  #                                  (PLEASE KEEP IN THIS ORDER)
000778:
000779:    1333                        DNRRANGE           ERASE    +6                                    #  B(1) TMP
000780:    1342     1334               DNRRDOT            EQUALS   DNRRANGE   +1                         #  B(1)TMP
000781:    1342     1335               DNINDEX            EQUALS   DNRRDOT    +1                         #  B(1)TMP
000782:    1342     1336               DNLRVELX           EQUALS   DNINDEX    +1                         #  B(1)TMP
000783:    1342     1337               DNLRVELY           EQUALS   DNLRVELX   +1                         #  B(1)TMP
000784:    1342     1340               DNLRVELZ           EQUALS   DNLRVELY   +1                         #  B(1)TMP
000785:    1342     1341               DNLRALT            EQUALS   DNLRVELZ   +1                         #  B(1) TMP
000786:
000787:                                                                                                  #           INCORPORATION UNSWITCHED.                                    (2D)
000788:
000789:    1342     1257               W.IND              EQUALS   PIPAGE                                #  B(1)
000790:    1342     1260               W.INDI             EQUALS   W.IND      +1                         #  I(1)
000791:
000792:
000793:                                                                                                  #           SUBROUTINE BALLANGS OF R60.                                  (1D)
000794:
000795:    1342                        BALLEXIT           ERASE                                          #  B(1)SAVE LOCATION FOR BALLINGS SUBR EXIT
000796:
000797:
000798:                                                                                                  #           SOME LEM DAP STORAGE.                         (4D)
000799:
000800:    1343                        DAPDATR1           ERASE                                          #  B(1)DSP DAP CONFIG.
000801:    1344                        TEVENT             ERASE    +1                                    #  B(2)DSP
000802:    1346                        DB                 ERASE                                          #  B(1)TMP DEAD BAND.
000803:
000804:
000805:
000806:                                                                                                  #           NOUN 87                                                      (2D)
000807:
000808:    1347                        AZ                 ERASE    +1D                                   #  B(1)  AZ AND EL MUST BE CONTIGUOUS
000809:    1351     1350               EL                 EQUALS   AZ         +1D                        #  B(1)
000810:
000811:
000812:    1351                        END-UE             EQUALS                                         #  NEXT UNUSED UE ADDRESS
000813:
000814:
000815:                                                                                                  #           SELF-CHECK ASSIGNMENTS.                                      (17D)
000816:


000818:                                                                                                  #                                  (DO NOT MOVE, S-C IS ADDRESS SENSITIVE)
000819:
000820:    1351                        SELFERAS           ERASE    1357       -          1377            #  *** MUST NOT BE MOVED ***
000821:    1351     1357               SFAIL              EQUALS   SELFERAS                              #  B(1)
000822:    1351     1360               ERESTORE           EQUALS   SFAIL      +1                         #  B(1)
000823:    1351     1361               SELFRET            EQUALS   ERESTORE   +1                         #  B(1)    RETURN
000824:    1351     1362               SMODE              EQUALS   SELFRET    +1                         #  B(1)
000825:    1351     1363               ALMCADR            EQUALS   SMODE      +1                         #  B(2)   ALARM-ABORT USER'S 2CADR
000826:    1351     1365               ERCOUNT            EQUALS   ALMCADR    +2                         #  B(1)
000827:    1351     1366               SCOUNT             EQUALS   ERCOUNT    +1                         #  B(3)
000828:    1351     1371               SKEEP1             EQUALS   SCOUNT     +3                         #  B(1)
000829:    1351     1372               SKEEP2             EQUALS   SKEEP1     +1                         #  B(1)
000830:    1351     1373               SKEEP3             EQUALS   SKEEP2     +1                         #  B(1)
000831:    1351     1374               SKEEP4             EQUALS   SKEEP3     +1                         #  B(1)
000832:    1351     1375               SKEEP5             EQUALS   SKEEP4     +1                         #  B(1)
000833:    1351     1376               SKEEP6             EQUALS   SKEEP5     +1                         #  B(1)
000834:    1351     1377               SKEEP7             EQUALS   SKEEP6     +1                         #  B(1)
000835:


000837:                                                                                                  #                  EBANK-3 ASSIGNMENTS
000838:
000839: E3,1400                                           SETLOC   1400
000840:
000841:                                                                                                  #           WAITLIST TASK LISTS.                                         (26D)
000842:
000843: E3,1400                        LST1               ERASE    +7                                    #  B(8D)PRM DELTA T S.
000844: E3,1410                        LST2               ERASE    +17D                                  #  B(18D)PRM TASK 2CADR ADDRESSES.
000845:
000846:
000847:                                                                                                  #           RESTART STORAGE.                                             (2D)
000848:
000849: E3,1432                        RSBBQ              ERASE    +1                                    #  B(2)PRM SAVE BB AND Q FOR RESTARTS.
000850:
000851:                                                                                                  #           MORE LONGCALL STORAGE.(MUST BE IN LST1 S BANK.               (2D)
000852:
000853: E3,1434                        LONGEXIT           ERASE    +1                                    #  B(2)TMP MAY BE SELDOM OVERLAYED.
000854:
000855:
000856:                                                                                                  #           PHASE-CHANGE LISTS PART II.                                  (12D)
000857:
000858: E3,1436                        PHSNAME1           ERASE                                          #  B(1)PRM
000859: E3,1437                        PHSBB1             ERASE                                          #  B(1)PRM
000860: E3,1440                        PHSNAME2           ERASE                                          #  B(1)PRM
000861: E3,1441                        PHSBB2             ERASE                                          #  B(1)PRM
000862: E3,1442                        PHSNAME3           ERASE                                          #  B(1)PRM
000863: E3,1443                        PHSBB3             ERASE                                          #  B(1)PRM
000864: E3,1444                        PHSNAME4           ERASE                                          #  B(1)PRM
000865: E3,1445                        PHSBB4             ERASE                                          #  B(1)PRM
000866: E3,1446                        PHSNAME5           ERASE                                          #  B(1)PRM
000867: E3,1447                        PHSBB5             ERASE                                          #  B(1)PRM
000868: E3,1450                        PHSNAME6           ERASE                                          #  B(1)PRM
000869: E3,1451                        PHSBB6             ERASE                                          #  B(1)PRM
000870:
000871:
000872:                                                                                                  #           IMU COMPENSATION PARAMETERS.                                 (22D)
000873:
000874: E3,1452                        PBIASX             ERASE                                          #  B(1)   PIPA BIAS, PIPA SCALE FACTR TERMS
000875: E3,1453  E3,1452               PIPABIAS           =        PBIASX                                #      INTERMIXED.
000876: E3,1453                        PIPASCFX           ERASE
000877: E3,1454  E3,1453               PIPASCF            =        PIPASCFX
000878: E3,1454                        PBIASY             ERASE
000879: E3,1455                        PIPASCFY           ERASE
000880: E3,1456                        PBIASZ             ERASE
000881: E3,1457                        PIPASCFZ           ERASE
000882:
000883: E3,1460                        NBDX               ERASE                                          #  GYRO BIAS DRIFTS
000884: E3,1461                        NBDY               ERASE
000885: E3,1462                        NBDZ               ERASE
000886:


000888: E3,1463                        ADIAX              ERASE                                          #  ACCELERATION SENSITIVE DRIFT ALONG THE
000889: E3,1464                        ADIAY              ERASE                                          #      INPUT AXIS
000890: E3,1465                        ADIAZ              ERASE
000891:
000892: E3,1466                        ADSRAX             ERASE                                          #  ACCELERATION SENSITIVE DRIFT ALONG THE
000893: E3,1467                        ADSRAY             ERASE                                          #      SPIN REFERENCE AXIS
000894: E3,1470                        ADSRAZ             ERASE
000895:
000896: E3,1471                        GCOMP              ERASE    +5                                    #  CONTAINS COMPENSATING TORQUES
000897:
000898: E3,1477  E3,1471               COMMAND            EQUALS   GCOMP
000899: E3,1477  E3,1474               CDUIND             EQUALS   GCOMP      +3
000900:
000901:
000902: E3,1477                        GCOMPSW            ERASE
000903:
000904:                                                                                                  #           STATE VECTORS FOR ORBIT INTEGRATION.                         (44D)
000905:
000906:                                                                                                  #                                  (DIFEQCNT THRU XKEP MUST BE IN SAME
000907:                                                                                                  #                                    EBANK AS RRECTCSM, RRECTLEM ETC
000908:                                                                                                  #                                    BECAUSE THE COPY-CYCLES (ATOPCSM,
000909:                                                                                                  #                                    PTOACSM ETC) ARE EXECUTED IN BASIC.
000910:                                                                                                  #                                      ALL OTHER REFERENCES TO THIS GROUP
000911:                                                                                                  #                                    ARE BY INTERPRETIVE INSTRUCTIONS.)
000912:
000913: E3,1500                        DIFEQCNT           ERASE    +43D                                  #  B(1)
000914:                                                                                                  #                                  (UPSVFLAG...XKEP MUST BE KEPT IN ORDER)
000915:
000916: E3,1554  E3,1501               UPSVFLAG           EQUALS   DIFEQCNT   +1                         #  B(1)
000917: E3,1554  E3,1502               RRECT              EQUALS   UPSVFLAG   +1                         #  B(6)
000918: E3,1554  E3,1510               VRECT              EQUALS   RRECT      +6                         #  B(6)
000919: E3,1554  E3,1516               TET                EQUALS   VRECT      +6                         #  B(2)
000920: E3,1554  E3,1520               TDELTAV            EQUALS   TET        +2                         #  B(6)
000921: E3,1554  E3,1526               TNUV               EQUALS   TDELTAV    +6                         #  B(6)
000922: E3,1554  E3,1534               RCV                EQUALS   TNUV       +6                         #  B(6)
000923: E3,1554  E3,1542               VCV                EQUALS   RCV        +6                         #  B(6)
000924: E3,1554  E3,1550               TC                 EQUALS   VCV        +6                         #  B(2)
000925: E3,1554  E3,1552               XKEP               EQUALS   TC         +2                         #  B(2)
000926:
000927:                                                                                                  #           PERMANENT STATE VECTORS AND TIMES.                           (99D)
000928:
000929:                                                                                                  #           (DO NOT OVERLAY WITH ANYTHING AFTER BOOST)
000930:
000931:                                                                                                  #           (RRECTCSM ...XKEPCSM MUST BE KEPT IN THIS ORDER)
000932:
000933: E3,1554                        RRECTCSM           ERASE    +5                                    #  B(6)PRM CSM VARIABLES.
000934: E3,1562  E3,1554               RRECTOTH           =        RRECTCSM
000935: E3,1562                        VRECTCSM           ERASE    +5                                    #  B(6)PRM
000936:


000938: E3,1570                        TETCSM             ERASE    +1                                    #  B(2)PRM
000939: E3,1572  E3,1570               TETOTHER           =        TETCSM
000940: E3,1572                        DELTACSM           ERASE    +5                                    #  B(6)PRM
000941: E3,1600                        NUVCSM             ERASE    +5                                    #  B(6)PRM
000942: E3,1606                        RCVCSM             ERASE    +5                                    #  B(6)PRM
000943: E3,1614                        VCVCSM             ERASE    +5                                    #  B(6)PRM
000944: E3,1622                        TCCSM              ERASE    +1                                    #  B(2)PRM
000945: E3,1624                        XKEPCSM            ERASE    +1                                    #  B(2)PRM
000946:
000947:                                                                                                  #           (RRECTLEM ...XKEPLEM MUST BE KEPT IN THIS ORDER)
000948:
000949: E3,1626                        RRECTLEM           ERASE    +5                                    #  B(6)PRM LEM VARIABLES
000950: E3,1634  E3,1626               RRECTHIS           =        RRECTLEM
000951: E3,1634                        VRECTLEM           ERASE    +5                                    #  B(6)PRM
000952: E3,1642                        TETLEM             ERASE    +1                                    #  B(2)PRM
000953: E3,1644  E3,1642               TETTHIS            =        TETLEM
000954: E3,1644                        DELTALEM           ERASE    +5                                    #  B(6)PRM
000955: E3,1652                        NUVLEM             ERASE    +5                                    #  B(6)PRM
000956: E3,1660                        RCVLEM             ERASE    +5                                    #  B(6)PRM
000957: E3,1666                        VCVLEM             ERASE    +5                                    #  B(6)PRM
000958: E3,1674                        TCLEM              ERASE    +1                                    #  B(2)PRM
000959: E3,1676                        XKEPLEM            ERASE    +1                                    #  B(2)PRM
000960:
000961: E3,1700                        X789               ERASE    +5
000962: E3,1706                        TEPHEM             ERASE    +2
000963: E3,1711                        AZO                ERASE    +1
000964: E3,1713                        -AYO               ERASE    +1
000965: E3,1715                        AXO                ERASE    +1
000966:
000967:
000968:
000969:                                                                                                  #           STATE VECTORS FOR DOWNLINK.                                  (12D)
000970:
000971: E3,1717                        R-OTHER            ERASE    +5                                    #  B(6)PRM POS VECT (OTHER VECH) FOR DNLINK
000972: E3,1725                        V-OTHER            ERASE    +5                                    #  B(6)PRM VEL VECT (OTHER VECH) FOR DNLINK
000973:
000974: E3,1733  E3,1570               T-OTHER            =        TETCSM                                #              TIME (OTHER VECH) FOR DNLINK
000975:
000976:                                                                                                  #           REFSMMAT.                                                    (18D)
000977:
000978: E3,1733                        REFSMMAT           ERASE    +17D                                  #  I(18D)PRM
000979:
000980:
000981:                                                                                                  #           ACTIVE VEHICLE CENTANG.  MUST BE DISPLAYED ANYTIME (ALMOST.)  (2D)
000982:
000983: E3,1755                        ACTCENT            ERASE    +1                                    #  I(2) S-S CENTRAL ANGLE BETWEEN ACTIVE
000984:                                                                                                  #   VEHICLE AT TPI TIG AND TARGET VECTOR.
000985:
000986:                                                                                                  #           **** USED IN CONICSEX (PLAN INERT ORIENT) ****
000987:


000989: E3,1757  E3,1706               TIMSUBO            EQUALS   TEPHEM                                #  CSEC B-42 (TRIPLE PRECISION)
000990:
000991:
000992:                                                                                                  #           LPS20.1 STORAGE     -ALL ARE PRM -                           (9D)
000993:
000994: E3,1757                        LS21X              ERASE                                          #  I(1)
000995: E3,1760                        LOSVEL             ERASE    +5                                    #  I(6)
000996: E3,1766                        MLOSV              ERASE    +1                                    #  I(2) MAGNITUDE OF LOS, METERS B-29
000997:
000998:
000999:                                                                                                  #       ***** P22  *****  (OVERLAYS LPS 20.1 STORAGE)                    (6D)
001000: E3,1770  E3,1760               VSUBC              EQUALS   LOSVEL                                #  I(6) S-S  CSM VELOCITY VECTOR
001001:
001002:
001003:                                                                                                  #           PADLOADED ERASABLES FOR P20/P22                              (6D)
001004:
001005: E3,1770                        RANGEVAR           ERASE    +1                                    #  I(2) RR RANGE ERROR VARIANCE
001006: E3,1772                        RATEVAR            ERASE    +1                                    #  I(2) RR RANGE-RATE ERROR VARIANCE
001007: E3,1774                        RVARMIN            ERASE                                          #  I(1) MINIMUM RANGE ERROR VARIANCE
001008: E3,1775                        VVARMIN            ERASE                                          #  I(1) MINIMUM RANGE-RATE ERROR VARIANCE
001009:
001010:
001011: E3,1776                        END-E3             EQUALS                                         #  NEXT UNUSED E3 ADDRESS
001012:


001014:                                                                                                  #                  EBANK-4 ASSIGNMENTS
001015:
001016: E4,1400                                           SETLOC   2000
001017:
001018:                                                                                                  #  E4 IS, FOR THE MOST PART RESERVED FOR PAD LOADED AND UNSHARABLE ERASE.
001019:
001020: E4,1400                        AMEMORY            EQUALS
001021:
001022:                                                                                                  #           P20 STORAGE. -PAD LOADED-                                    (6D)
001023:
001024: E4,1400                        WRENDPOS           ERASE                                          #  B(1)PL                          KM*2(-7)
001025: E4,1401                        WRENDVEL           ERASE                                          #  B(1)PL                    KM(-1/2)*2(11)
001026: E4,1402                        WSHAFT             ERASE                                          #  B(1)PL                          KM*2(-7)
001027: E4,1403                        WTRUN              ERASE                                          #  B(1)PL                          KM*2(-7)
001028: E4,1404                        RMAX               ERASE                                          #  B(1)PL                     METERS*2(-19)
001029: E4,1405                        VMAX               ERASE                                          #  B(1)PL                      M/CSEC*2(-7)
001030:
001031:
001032:                                                                                                  #           LUNAR SURFACE NAVIGATION                                     (2D)
001033:
001034: E4,1406                        WSURFPOS           ERASE                                          #  B(1)PL
001035: E4,1407                        WSURFVEL           ERASE                                          #  B(1)PL
001036:
001037:                                                                                                  #           P22 STORAGE. -PAD LOADED-                                    (2D)
001038:
001039: E4,1410                        SHAFTVAR           ERASE                                          #  B(1)PL                      RAD SQ*2(12)
001040: E4,1411                        TRUNVAR            ERASE                                          #  B(1)PL                      RAD SQ*2(10)
001041:
001042:
001043:                                                                                                  #           CONISEX STORAGE.-PAD LOADED-                                 (6D)
001044:
001045: E4,1412                        504LM              ERASE    +5                                    #  I(6)MOON LIBRATION VECTOR
001046:
001047:                                                                                                  #           V47(R47) AGS INITIALIZATION STORAGE. -PAD LOADED-            (2D)
001048:
001049: E4,1420                        AGSK               ERASE    +1
001050:
001051:                                                                                                  #           LUNAR LANDING STORAGE. -PAD LOADED-                          (6D)
001052:
001053: E4,1422                        RLS                ERASE    +5                                    #  I(6) LANDING SITE VECTOR -MOON REF
001054:
001055:
001056:                                                                                                  #           INTEGRATION STORAGE.                                         (102D)
001057:
001058: E4,1430                        PBODY              ERASE    +101D                                 #  I(1)
001059:


001061: E4,1576  E4,1431               ALPHAV             EQUALS   PBODY      +1                         #  I(6)
001062: E4,1576  E4,1437               BETAV              EQUALS   ALPHAV     +6                         #  I(6)
001063: E4,1576  E4,1445               PHIV               EQUALS   BETAV      +6                         #  I(6)
001064: E4,1576  E4,1453               PSIV               EQUALS   PHIV       +6                         #  I(6)
001065: E4,1576  E4,1461               FV                 EQUALS   PSIV       +6                         #  I(6)    PERTURBING ACCELERATIONS
001066: E4,1576  E4,1467               ALPHAM             EQUALS   FV         +6                         #  I(2)
001067: E4,1576  E4,1471               BETAM              EQUALS   ALPHAM     +2                         #  I(2)
001068: E4,1576  E4,1473               TAU.               EQUALS   BETAM      +2                         #  I(2)
001069: E4,1576  E4,1475               DT/2               EQUALS   TAU.       +2                         #  I(2)
001070: E4,1576  E4,1477               H                  EQUALS   DT/2       +2                         #  I(2)
001071: E4,1576  E4,1501               GMODE              EQUALS   H          +2                         #  I(1)
001072: E4,1576  E4,1502               IRETURN            EQUALS   GMODE      +1                         #  I(1)
001073: E4,1576  E4,1503               NORMGAM            EQUALS   IRETURN    +1                         #  I(1)
001074: E4,1576  E4,1504               RPQV               EQUALS   NORMGAM    +1
001075: E4,1576  E4,1512               ORIGEX             EQUALS   RPQV       +6                         #  I(1)
001076: E4,1576  E4,1512               KEPRTN             EQUALS   ORIGEX                                #  I(1)
001077: E4,1576  E4,1513               RQVV               EQUALS   ORIGEX     +1                         #  I(6)
001078: E4,1576  E4,1521               RPSV               EQUALS   RQVV       +6                         #  I(6)
001079: E4,1576  E4,1527               XKEPNEW            EQUALS   RPSV       +6                         #  I(2)
001080: E4,1576  E4,1531               VECTAB             EQUALS   XKEPNEW    +2                         #  I(36D)
001081: E4,1576  E4,1574               VECTABND           EQUALS   VECTAB     +35D                       #  END MARK
001082:
001083:
001084:
001085:                                                                                                  #           THESE PROBABLY CAN SHARE MID-COURSE VARIABLES.               (6D)
001086:
001087: E4,1576  E4,1537               VACX               EQUALS   VECTAB     +6                         #  I(2)
001088: E4,1576  E4,1541               VACY               EQUALS   VACX       +2                         #  I(2)
001089: E4,1576  E4,1543               VACZ               EQUALS   VACY       +2                         #  I(2)
001090:
001091:                                                                                                  #           SERVICER STORAGE  (USED BY ALL POWERED FLIGHT PROGS.)        (18D)
001092:
001093: E4,1576  E4,1545               XNBPIP             EQUALS   VECTAB     +12D                       #  I(6)
001094: E4,1576  E4,1553               YNBPIP             EQUALS   XNBPIP     +6                         #  I(6)
001095: E4,1576  E4,1561               ZNBPIP             EQUALS   YNBPIP     +6                         #  I(6)
001096:
001097:
001098:                                                                                                  #           SOME VERB 82 STORAGE                                         (4D)
001099:
001100: E4,1576  E4,1517               HAPOX              EQUALS   RQVV       +4                         #  I(2)
001101: E4,1576  E4,1521               HPERX              EQUALS   HAPOX      +2                         #  I(2)
001102:
001103:
001104:                                                                                                  #           V82 STORAGE                                                  (6D)
001105:
001106: E4,1576  E4,1567               VONE'              EQUALS   VECTAB     +30D                       #  I(6)TMP  NORMAL VELOCITY VONE /SQRT. MU
001107:
001108:                                                                                                  #           R31(V83) STORAGE. -SHARES WITH INTEGRATION STORAGE-          (28D)
001109:


001111: E4,1576  E4,1504               BASETHV            EQUALS   RPQV                                  #  I(6)     BASE VEL VECTOR THIS VEH
001112:
001113:
001114: E4,1576  E4,1513               BASETIME           EQUALS   RQVV                                  #  I(2)     TIME ASSOC WITH BASE VECS
001115: E4,1576  E4,1515               ORIG               EQUALS   RQVV       +2                         #  I(1)     =0 FOR EARTH =2 FOR MOON
001116: E4,1576  E4,1516               STATEXIT           EQUALS   RQVV       +3                         #  I(1)     STQ ADDRESS FOR STATEXTP
001117: E4,1576  E4,1517               BASEOTV            EQUALS   RQVV       +4                         #  I(6)     BASE VEL VECTOR OTHER VEH
001118:
001119:
001120: E4,1576  E4,1537               BASEOTP            EQUALS   VECTAB     +6                         #  I(6)     BASE POS VECTOR OTHER VEH
001121:
001122:
001123: E4,1576  E4,1567               BASETHP            EQUALS   VECTAB     +30D                       #  I(6)     BASE POS VECTOR THIS VEH
001124:
001125:
001126:
001127:                                                                                                  #           KEPLER STORAGE. (KEPLER IS CALLED BY PRECISION INTEGRATION AND (6D)
001128:                                                                                                  #           CONICS)
001129:
001130: E4,1576                        XMODULO            ERASE    +5                                    #  I(2)
001131: E4,1604  E4,1600               TMODULO            EQUALS   XMODULO    +2                         #  I(2)
001132: E4,1604  E4,1602               EPSILONT           EQUALS   TMODULO    +2                         #  I(2)
001133:
001134:
001135:                                                                                                  #           VERB 83 STORAGE.                                             (18D)
001136:
001137: E4,1604                        RANGE              ERASE    +17D                                  #  I(2)DSP NOUN 54 DISTANCE TO OPTICAL SUBJ
001138: E4,1626  E4,1606               RRATE              EQUALS   RANGE      +2                         #  I(2)DSP NOUN 54 RATE OF APPROACH.
001139: E4,1626  E4,1610               RTHETA             EQUALS   RRATE      +2                         #  I(2)DSP NOUN 54.
001140: E4,1626  E4,1612               RONE               EQUALS   RTHETA     +2                         #  I(6)TMP VECTOR STORAGE.  (SCRATCH)
001141: E4,1626  E4,1620               VONE               EQUALS   RONE       +6                         #  I(6)TMP VECTOR STORAGE.  (SCRATCH)
001142:
001143:
001144: E4,1626  E4,1604               WWPOS              =        RANGE                                 #  NOUN 99 (V67)
001145: E4,1626  E4,1606               WWVEL              =        RRATE                                 #  NOUN 99 (V67)
001146:                                                                                                  #           V82 STORAGE. (CANNOT OVERLAY RONE OR VONE)                   (11D) TWO SEPARATE LOCATIONS
001147:
001148: E4,1626  E4,1537               V82FLAGS           EQUALS   VECTAB     +6                         #   (1) FOR V82 BITS.
001149: E4,1626  E4,1540               TFF                EQUALS   V82FLAGS   +1                         #  I(2)
001150: E4,1626  E4,1542               -TPER              EQUALS   TFF        +2                         #  I(2)
001151:
001152:
001153: E4,1626  E4,1604               HPERMIN            EQUALS   RANGE                                 #  I(2) SET TO 300KFT OR 35KFT FOR SR30.1
001154: E4,1626  E4,1606               RPADTEM            EQUALS   HPERMIN    +2                         #  I(2) PAD OR LANDING RADIUS FOR SR30.1
001155: E4,1626  E4,1610               TSTART82           EQUALS   RPADTEM    +2                         #  I(2) TEMP TIME STORAGE FOR V82.
001156:
001157:
001158:
001159:                                                                                                  #           VARIOUS DISPLAY REGISTERS                                    (6D)     NOUN 84; P76
001160:


001162: E4,1626                        DELVOV             ERASE    +5D                                   #  (6)
001163:
001164:
001165:                                                                                                  #           ALIGNMENT PLANETARY-INERTIAL TRANSFORMATION STORAGE.         (18D)
001166:
001167:                                                                                                  #                  UNSHARED WHILE LM ON LUNAR SURFACE.
001168:
001169: E4,1634                        GSAV               ERASE    +17D                                  #  I(6)
001170: E4,1656  E4,1642               YNBSAV             EQUALS   GSAV       +6                         #  I(6)
001171: E4,1656  E4,1650               ZNBSAV             EQUALS   YNBSAV     +6                         #  I(6)
001172:
001173:
001174:
001175:                                                                                                  #           KALCMANU STORAGE. CAN OVERLAY GSAV.                          (18D)
001176:
001177: E4,1656  E4,1634               MFS                EQUALS   GSAV                                  #  I(18)
001178: E4,1656  E4,1634               MFI                EQUALS   MFS                                   #  I
001179: E4,1656  E4,1634               KEL                EQUALS   MFS                                   #  I(18)
001180: E4,1656  E4,1634               E01                EQUALS   MFS                                   #  I(6)
001181: E4,1656  E4,1642               E02                EQUALS   E01        +6                         #  I(6)
001182:
001183:                                                                                                  #           LR VEL BEAM VECTORS.                                         (26D)
001184:
001185:                                                                                                  #           CAN OVERLAY GSAV WITH CARE, USED DURING POWERED DESCENT ONLY.
001186:
001187: E4,1656  E4,1634               VZBEAMNB           EQUALS   GSAV                                  #  I(6) LR VELOCITY BEAMS IN NB COORDS.
001188: E4,1656  E4,1642               VYBEAMNB           EQUALS   VZBEAMNB   +6                         #  I(6)
001189: E4,1656  E4,1650               VXBEAMNB           EQUALS   VYBEAMNB   +6                         #  I(6) PRESERVE Z,Y,X ORDER.
001190:
001191:
001192: E4,1656  E4,1656               LRVTIME            =        VXBEAMNB   +6                         #  B(2)     LR
001193: E4,1656  E4,1660               LRXCDU             =        LRVTIME    +2                         #  B(1)     LR
001194: E4,1656  E4,1661               LRYCDU             =        LRXCDU     +1                         #  B(1)     LR
001195: E4,1656  E4,1662               LRZCDU             =        LRYCDU     +1                         #  B(1)     LR
001196: E4,1656  E4,1663               PIPTEM             =        LRZCDU     +1                         #  B(3)     LR
001197:
001198:
001199:                                                                                                  #           P32-P35, P72-P75 STORAGE.                                    (40D)
001200:
001201: E4,1656                        T1TOT2             ERASE    +1                                    #   (2)     TIME FROM CSI TO CDH
001202: E4,1660                        T2TOT3             ERASE    +1                                    #   (2)
001203: E4,1662                        ELEV               ERASE    +1                                    #   (2)
001204: E4,1664                        UP1                ERASE    +5                                    #   (6)
001205: E4,1672                        DELVEET1           ERASE    +5                                    #  I(6)     DV CSI IN REF
001206: E4,1700                        DELVEET2           ERASE    +5                                    #  I(6)     DV CSH IN REF
001207: E4,1706                        RACT1              ERASE    +5                                    #   (6)     POS VEC OF ACTIVE AT CSI TIME
001208: E4,1714                        RACT2              ERASE    +5                                    #   (6)     POS VEC OF ACTIVE AT CDH TIME
001209:


001211: E4,1722                        RTSR1/MU           ERASE    +1                                    #  (2)      SQ ROOT 1/MU STORAGE
001212: E4,1724                        RTMU               ERASE    +1                                    #  (2)      MU STORAGE
001213:
001214:
001215:
001216:                                                                                                  #           (THE FOLLOWING ERASABLES OVERLAY PORTIONS OF THE PREVIOUS SECTION)
001217:
001218: E4,1726  E4,1656               +MGA               EQUALS   T1TOT2                                #   (2) S-S + MID GIM ANGL TO DELVEET3
001219:
001220:
001221: E4,1726  E4,1664               UNRM               EQUALS   UP1                                   #  I(6) S-S
001222:
001223:
001224: E4,1726  E4,1706               DVLOS              EQUALS   RACT1                                 #  I(6) S-S DELTA VELOCITY,LOS COORD-DISPLA
001225: E4,1726  E4,1714               ULOS               EQUALS   RACT2                                 #  I(6) S-S UNIT LINE OF SIGHT VECTOR
001226:
001227:
001228: E4,1726  E4,1722               NOMTPI             EQUALS   RTSR1/MU                              #  (2) S-S NOMINAL TPI TIME FOR RECYCLE
001229:
001230:
001231:                                                                                                  #           SOME P30 STORAGE.                                            (4D)
001232:
001233: E4,1726  E4,1722               HAPO               EQUALS   RTSR1/MU                              #  I(2)
001234: E4,1726  E4,1724               HPER               EQUALS   HAPO       +2                         #  I(2)
001235:
001236:
001237:
001238:                                                                                                  #           SOME P38-P39,P78-79 STORAGE.                                 (6D)
001239:
001240: E4,1726  E4,1706               DELTAR             EQUALS   DVLOS                                 #  I(2)
001241: E4,1726  E4,1710               DELTTIME           EQUALS   DELTAR     +2                         #  I(2) TIME REPRESENTATION OF DELTAR
001242: E4,1726  E4,1712               TARGTIME           EQUALS   DELTTIME   +2                         #  I(2) TINT MINUS DELTTIME
001243:
001244: E4,1726  E4,1706               TINTSOI            EQUALS   DELTAR                                #  I(2) TIME OF INTERCEPT FOR SOI PHASE
001245:
001246:
001247:
001248:                                                                                                  #           THE FOLLOWING ARE ERASABLE LOADS DURING A PERFORMANCE TEST.
001249:
001250: E4,1726  E4,1400               TRANSM1            =        WRENDPOS                              #  E4,1400
001251: E4,1726  E4,1422               ALFDK              =        TRANSM1    +18D
001252:
001253:
001254:                                                                                                  #  ******* THE FOLLOWING SECTIONS OVERLAY V83 AND DISPLAY STORAGE *******
001255:
001256:
001257:                                                                                                  #           V47(R47)AGS INITIALIZATION PROGRAM STORAGE. (OVERLAYS V83)   (14D)
001258:
001259: E4,1726  E4,1604               AGSBUFF            EQUALS   RANGE                                 #  B(14D)
001260: E4,1726  E4,1621               AGSBUFFE           EQUALS   AGSBUFF    +13D                       #  ENDMARK
001261:


001263:
001264:                                                                                                  #           R36 OUT-OF-PLANE RENDEZVOUS DISPLAY STORAGE. (OVERLAYS V83)  (12D)
001265:
001266: E4,1726  E4,1612               RPASS36            EQUALS   RONE                                  #  I(6) S-S
001267: E4,1726  E4,1620               UNP36              EQUALS   RPASS36    +6                         #  I(6) S-S
001268:
001269:
001270:                                                                                                  #           S-BAND ANTENNA GIMBAL ANGLES. DISPLAYED BY R05(V64).(OVERLAYS V83) (10D)
001271:                                                                                                  #                 (OPERATES DURING P00 ONLY)
001272:
001273: E4,1726  E4,1604               ALPHASB            EQUALS   RANGE                                 #  B(2)DSP NOUN 51.  PITCH ANGLE.
001274: E4,1726  E4,1606               BETASB             EQUALS   ALPHASB    +2                         #  B(2)DSP NOUN 51.  YAW ANGLE.
001275: E4,1726  E4,1610               RLM                EQUALS   BETASB     +2                         #  I(6)S S/C POSITION VECTOR.
001276:
001277:                                                                                                  #           **** USED IN S-BAND ANTENNA FOR LM ****
001278:
001279: E4,1726  E4,1606               YAWANG             EQUALS   BETASB
001280: E4,1726  E4,1604               PITCHANG           EQUALS   ALPHASB
001281:
001282:
001283:                                                                                                  #           NOUN 56 DATA - COMPUTED AND DISPLAYED BY VERB 85.            (4)
001284:
001285: E4,1726  E4,1604               RR-AZ              EQUALS   PITCHANG                              #  I(2) ANGLE BETWEEN LOS AND X-Z PLANE.
001286: E4,1726  E4,1606               RR-ELEV            EQUALS   RR-AZ      +2                         #  I(2) ANGLE BETWEEN LOS AND Y-Z PLANE.
001287:
001288:                                                                                                  #           R04(V62) RADAR TEST STORAGE.                         (8D)
001289:                                                                                                  #           R04 IS RESTRICTED TO P00.
001290:
001291: E4,1726  E4,1604               RSTACK             EQUALS   RANGE                                 #  B(8) BUFFER FOR R04 NOUNS.
001292:
001293:
001294:
001295:                                                                                                  #           INITVEL STORAGE.  ALSO USED BY P31,P34,P35,P74,P75,P10,P11,MIDGIM,S40.1 AND S40.9. (18D)
001296:
001297:                                                                                                  #                   (POSSIBLY RINIT & VINIT CAN OVERLAY DELVEET1 & 2 ABOVE)
001298:
001299: E4,1726                        RINIT              ERASE    +5                                    #  I(6) ACTIVE VEHICLE POSITION
001300: E4,1734                        VINIT              ERASE    +5                                    #  I(6) ACTIVE VEHICLE VELOCITY
001301: E4,1742                        VIPRIME            ERASE    +5                                    #  I(6) NEW VEL REQUIRED AT INITIAL RADIUS.
001302:
001303:                                                                                                  #           VARIOUS DISPLAY REGISTERS.  BALLANGS                         (3D)
001304:
001305: E4,1750                        FDAIX              ERASE                                          #  I(1)
001306: E4,1751                        FDAIY              ERASE                                          #  I(1)
001307: E4,1752                        FDAIZ              ERASE                                          #  I(1)
001308:
001309:                                                                                                  #          P34-P35 STORAGE.  DOWNLINKED.
001310:
001311:                                                                                                  #  (2D)
001312:


001314: E4,1753                        DELVTPF            ERASE    +1                                    #  I(2) DELTA V FOR TPF
001315:
001316:                                                                                                  #           SOME R04(V62)-R77 RADAR TEST STORAGE                         (6D)
001317:
001318: E4,1755                        RTSTDEX            ERASE                                          #  (1)
001319: E4,1756                        RTSTMAX            ERASE                                          #  (1)
001320: E4,1757                        RTSTBASE           ERASE                                          #  (1)
001321: E4,1760                        RTSTLOC            ERASE                                          #  (1)
001322: E4,1761  E4,1760               RSTKLOC            =        RTSTLOC
001323: E4,1761                        RSAMPDT            ERASE                                          #  (1)
001324: E4,1762                        RFAILCNT           ERASE                                          #  (1)
001325:
001326:
001327:                                                                                                  #          LPS20.1 STORAGE
001328:
001329:                                                                                                  #  (12D)
001330:
001331:
001332: E4,1763  E4,1755               LMPOS              EQUALS   RTSTDEX                               #  I(6)TEMP.  STORAGE FOR LM POS. VECTOR.
001333: E4,1763  E4,1763               LMVEL              EQUALS   LMPOS      +6                         #  I(6)TEMP.  STORAGE FOR LM VEL. VECTOR.
001334:
001335:
001336: E4,1763                        END-E4             EQUALS                                         #  FIRST UNUSED LOCATION IN E4
001337:
001338:                                                                                                  #           SECOND DPS GUIDANCE (LUNAR LANDING)  (OVERLAY P32-35,INITVEL) (26D)
001339:
001340: E4,1763  E4,1666               VHORIZ             EQUALS   PIPTEM     +3                         #  I(2) DISPLAY
001341: E4,1763  E4,1670               ACG                EQUALS   VHORIZ     +2                         #  I(6) GUIDANCE
001342: E4,1763  E4,1676               JLING              EQUALS   ACG        +6                         #  I(6) GUIDANCE
001343: E4,1763  E4,1704               ANGTERM            EQUALS   JLING      +6                         #  I(6) GUIDANCE
001344: E4,1763  E4,1712               HBEAMNB            EQUALS   ANGTERM    +6                         #  I(6) LANDING RADAR
001345: E4,1763  E4,1740               LRXCDUDL           EQUALS   /LAND/     +2                         #  B(1) LANDING RADAR DOWNLINK
001346: E4,1763  E4,1741               LRYCDUDL           EQUALS   LRXCDUDL   +1                         #  B(1) LANDING RADAR DOWNLINK
001347: E4,1763  E4,1742               LRZCDUDL           EQUALS   LRYCDUDL   +1                         #  B(1) LANDING RADAR DOWNLINK
001348: E4,1763  E4,1743               LRVTIMDL           EQUALS   LRZCDUDL   +1                         #  B(2) LANDING RADAR DOWNLINK
001349:
001350:
001351:
001352:
001353:                                                                                                  #           ASCENT GUIDANCE FOR LUNAR LANDING                            (62D)
001354:
001355: E4,1763  E4,1656               AT                 EQUALS   T1TOT2                                #  I(2)TMP  ENGINE DATA -- THRUST ACC.*2(9)
001356: E4,1763  E4,1660               VE                 EQUALS   AT         +2                         #  I(2)TMP  EXHAUST VELOCITY * 2(7)M/CS.
001357: E4,1763  E4,1662               TTO                EQUALS   VE         +2                         #  I(2)TMP  TAILOFF TIME * 2(17)CS.
001358: E4,1763  E4,1664               TBUP               EQUALS   TTO        +2                         #  I(2)TMP  (M/MDOT) * 2(17)CS.
001359: E4,1763  E4,1666               RDOTD              EQUALS   TBUP       +2                         #  I(2)TMP  TARGET VELOCITY COMPONENTS
001360: E4,1763  E4,1670               YDOTD              EQUALS   RDOTD      +2                         #  I(2)TMP SCALING IS 2(7)M/CS.
001361: E4,1763  E4,1672               ZDOTD              EQUALS   YDOTD      +2                         #  I(2)TMP
001362:
001363: E4,1763  E4,1674               /R/MAG             EQUALS   ZDOTD      +2                         #  I(2)TMP
001364: E4,1763  E4,1676               LAXIS              EQUALS   /R/MAG     +2                         #  I(6)TMP
001365:


001367: E4,1763  E4,1704               ZAXIS1             EQUALS   LAXIS      +6                         #  I(6)TMP  SYSTEM (R,L,Z).
001368: E4,1763  E4,1712               RDOT               EQUALS   ZAXIS1     +6                         #  I(2)TMP  RADIAL RATE *2 (-7).
001369: E4,1763  E4,1714               YDOT               EQUALS   RDOT       +2                         #  I(2)TMP  VEL. NORMAL TO REF. PLANE*2(-7)
001370: E4,1763  E4,1716               ZDOT               EQUALS   YDOT       +2                         #  I(2)TMP  DOWN RANGE VEL *2(-7).
001371: E4,1763  E4,1720               GEFF               EQUALS   ZDOT       +2                         #  I(2)TMP  EFFECTIVE GRAVITY
001372:
001373:                                                                                                  #        THESE TWO GROUPS OF ASCENT GUIDANCE ARE SPLIT BY THE ASCENT-DESCENT SERVICER SECTION FOLLOWING THIS SECTION
001374:
001375: E4,1763  E4,1740               Y                  EQUALS   /LAND/     +2                         #  I(2)TMP  OUT-OF-PLANE DIST *2(24)M
001376: E4,1763  E4,1742               DRDOT              EQUALS   Y          +2                         #  I(2)TMP  RDOTD - RDOT
001377: E4,1763  E4,1744               DYDOT              EQUALS   DRDOT      +2                         #  I(2)TMP  YDOTD - YDOT
001378: E4,1763  E4,1746               DZDOT              EQUALS   DYDOT      +2                         #  I(2)TMP  ZDOTD - ZDOT
001379: E4,1763  E4,1750               PCONS              EQUALS   DZDOT      +2                         #  I(2)TMP  CONSTANT IN ATR EQUATION
001380: E4,1763  E4,1752               YCONS              EQUALS   PCONS      +2                         #  I(2)TMP  CONSTANT IN ATY EQUATION
001381: E4,1763  E4,1754               PRATE              EQUALS   YCONS      +2                         #  I(2)TMP  RATE COEFF. IN ATR EQUATION
001382: E4,1763  E4,1756               YRATE              EQUALS   PRATE      +2                         #  I(2)TMP  RATE COEFF. IN ATY EQUATION
001383: E4,1763  E4,1760               ATY                EQUALS   YRATE      +2                         #  I(2)TMP  OUT-OF-PLANE THRUST COMP.*2(9)
001384: E4,1763  E4,1762               ATR                EQUALS   ATY        +2                         #  I(2)TMP  RADIAL THRUST COMP.*2(9)
001385: E4,1763  E4,1764               ATP                EQUALS   ATR        +2                         #  I(2)TMP  DOWN-RANGE THRUST COMP
001386: E4,1763  E4,1766               YAW                EQUALS   ATP        +2                         #  I(2)TMP
001387: E4,1763  E4,1770               PITCH              EQUALS   YAW        +2                         #  I(2)RMP
001388:
001389:
001390:                                                                                                  #           SERVICER FOR LUNAR ASCENT AND DESCENT                        (14D)
001391:
001392: E4,1763  E4,1722               G(CSM)             EQUALS   GEFF       +2                         #  I(6) FOR UPDATE OF COMMAND MODULE STATE
001393: E4,1763  E3,1717               R(CSM)             EQUALS   R-OTHER                               #       VECTORS BY LEM; ANALOGS OF GDT/2,
001394: E4,1763  E3,1725               V(CSM)             EQUALS   V-OTHER                               #       R, AND V, RESPECTIVELY OF THE CSM
001395: E4,1763  E4,1730               WM                 EQUALS   G(CSM)     +6                         #  I(6) TMP - LUNAR ROTATION VECTOR (SM)
001396: E4,1763  E4,1736               /LAND/             EQUALS   WM         +6                         #  B(2) LUNAR RADIUS AT LANDING SITE
001397:


001399:                                                                                                  #           EBANK-5 ASSIGNMENTS
001400:
001401: E5,1400                                           SETLOC   2400
001402:
001403:                                                                                                  #           W-MATRIX. ESSENTIALLY UNSHARABLE.            (162D)
001404:
001405: E5,1400                        W                  ERASE    +161D
001406: E5,1642  E5,1642               ENDW               EQUALS   W          +162D
001407:
001408:
001409:
001410:                                                                                                  #  *******  OVERLAY NUMBER 1 IN EBANK 5  *******
001411:
001412:
001413:                                                                                                  #           LUNAR LANDING TARGET PARAMETERS   - PADLOADED -              (64D)
001414:
001415:                                                                                                  #   PLEASE RETAIN THE ORDER OF TLAND THRU JAPFG
001416:
001417: E5,1642  E5,1400               TLAND              EQUALS   W                                     #  I(2)  NOMINAL TIME OF LANDING
001418: E5,1642  E5,1402               RBRFG              EQUALS   TLAND      +2                         #  I(6) BRAKING
001419: E5,1642  E5,1410               VBRFG              EQUALS   RBRFG      +6                         #  I(6)      PHASE
001420: E5,1642  E5,1416               ABRFG              EQUALS   VBRFG      +6                         #  I(6)         TARGET
001421: E5,1642  E5,1424               VBRFG*             EQUALS   ABRFG      +6                         #  I(2)            PARAMETERS:
001422: E5,1642  E5,1426               ABRFG*             EQUALS   VBRFG*     +2                         #  I(2)               HIGH
001423: E5,1642  E5,1430               JBRFG*             EQUALS   ABRFG*     +2                         #  I(2)                  GATE
001424: E5,1642  E5,1432               RAPFG              EQUALS   JBRFG*     +2                         #  I(6) APPROACH
001425: E5,1642  E5,1440               VAPFG              EQUALS   RAPFG      +6                         #  I(6)      PHASE
001426: E5,1642  E5,1446               AAPFG              EQUALS   VAPFG      +6                         #  I(6)         TARGET
001427: E5,1642  E5,1454               VAPFG*             EQUALS   AAPFG      +6                         #  I(2)            PARAMETERS:
001428: E5,1642  E5,1456               AAPFG*             EQUALS   VAPFG*     +2                         #  I(2)               LOW
001429: E5,1642  E5,1460               JAPFG*             EQUALS   AAPFG*     +2                         #  I(2)                  GATE
001430: E5,1642  E5,1462               VIGN               EQUALS   JAPFG*     +2                         #  I(2)  DESIRED SPEED FOR IGNITION
001431: E5,1642  E5,1464               RIGNX              EQUALS   VIGN       +2                         #  I(2)  DESIRED 'ALTITUDE' FOR IGNITION
001432: E5,1642  E5,1466               RIGNZ              EQUALS   RIGNX      +2                         #  I(2)  DESIRED GROUND RANGE FOR IGNITION
001433: E5,1642  E5,1470               KIGNX/B4           EQUALS   RIGNZ      +2                         #  I(2)
001434: E5,1642  E5,1472               KIGNY/B8           EQUALS   KIGNX/B4   +2                         #  I(2)
001435: E5,1642  E5,1474               KIGNV/B4           EQUALS   KIGNY/B8   +2                         #  I(2)
001436: E5,1642  E5,1476               LOWCRIT            EQUALS   KIGNV/B4   +2                         #  B(1) (HIGHCRIT MUST FOLLOW LOWCRIT)
001437: E5,1642  E5,1477               HIGHCRIT           EQUALS   LOWCRIT    +1                         #  B(1) %S OF NOMINAL MAXIMUM THRUST
001438:
001439: E5,1642     0130               L*WCR*T            =        BUF                                   #      TEMPORARY STORAGE IN UNSWITCHED
001440: E5,1642     0131               H*GHCR*T           =        BUF        +1                         #       FOR USE IN EBANK SWITCHING LOWCRIT
001441:
001442: E5,1642  E5,1500               DELQFIX            EQUALS   HIGHCRIT   +1                         #  I(2) LR ALTITUDE DATA REASONABLE PARM.
001443:
001444:
001445:
001446:                                                                                                  #           P70-P71    PADLOADED  *  ASCENT  *                           (5D)
001447:


001449: E5,1642  E5,1502               TBRKPNT            EQUALS   DELQFIX    +2                         #  I(1) TFI BRANCH TIME:ABORT TARGET PCR133
001450: E5,1642  E5,1503               ABTVINJ1           EQUALS   TBRKPNT    +1                         #  I(2) ABORT VELOCITY;TFI LESSTHAN TBRKPNT
001451: E5,1642  E5,1505               ABTVINJ2           EQUALS   ABTVINJ1   +2                         #  I(2) ABORT VEL ;TFI GREATER THAN TBRKPNT
001452:
001453:
001454:                                                                                                  #           SOME VARIABLES FOR SECOND DPS GUIDANCE                       (34D)
001455:
001456: E5,1642  E5,1507               CG                 EQUALS   ABTVINJ2   +2                         #  I(18D) GUIDANCE
001457: E5,1642  E5,1531               RANGEDSP           =        CG         +18D                       #  B(2)     DISPLAY
001458: E5,1642  E5,1533               OUTOFPLN           =        RANGEDSP   +2                         #  B(2)    DISPLAY
001459: E5,1642  E5,1535               R60VSAVE           EQUALS   OUTOFPLN   +2                         #  I(6)TMP SAVES VALUE OF POINTVSM THRU R51
001460: E5,1642  E5,1543               RGU                EQUALS   R60VSAVE   +6                         #  I(6) UNSHARED FOR DOWNLINK
001461:
001462:                                                                                                  #           ALIGNMENT/SYSTEST/CALCSMSC COMMON STORAGE.                   (36D)
001463:
001464: E5,1642  E5,1642               XSM                EQUALS   ENDW                                  #  B(6)
001465: E5,1642  E5,1650               YSM                EQUALS   XSM        +6                         #  B(6)
001466: E5,1642  E5,1656               ZSM                EQUALS   YSM        +6                         #  B(6)
001467:
001468: E5,1642  E5,1664               XDC                EQUALS   ZSM        +6                         #  B(6)
001469: E5,1642  E5,1672               YDC                EQUALS   XDC        +6                         #  B(6)
001470: E5,1642  E5,1700               ZDC                EQUALS   YDC        +6                         #  B(6)
001471:
001472: E5,1642  E5,1664               XNB                =        XDC
001473: E5,1642  E5,1672               YNB                =        YDC
001474: E5,1642  E5,1700               ZNB                =        ZDC
001475:
001476:                                                                                                  #           OVERLAYS WITHIN ALIGNMENT/SYSTEST/CALCSMSC COMMON STORAGE.   (4D)
001477:
001478: E5,1642  E5,1644               -COSB              EQUALS   XSM        +2                         #  (2)TMP
001479: E5,1642  E5,1646               SINB               EQUALS   -COSB      +2                         #  (2)TMP
001480:
001481:
001482:                                                                                                  #           MORE OVERLAYS TO ALIGNMENT /SYSTEST  (THESE ARE P52)         (6D)
001483:
001484: E5,1642  E5,1706               LANDLAT            EQUALS   STARAD                                #  (2) LATITUDE, LONGITUDE
001485: E5,1642  E5,1710               LANDLONG           EQUALS   LANDLAT    +2                         #  (2)     AND ALTITUDE
001486: E5,1642  E5,1712               LANDALT            EQUALS   LANDLONG   +2                         #  (2)     OF LANDING SITE
001487:
001488:                                                                                                  #           ALIGNMENT/SYSTEST COMMON STORAGE.                    (31D)
001489:
001490: E5,1642  E5,1706               STARAD             EQUALS   ZDC        +6                         #  I(18D)TMP
001491: E5,1642  E5,1730               STAR               EQUALS   STARAD     +18D                       #  I(6)
001492: E5,1642  E5,1736               GCTR               EQUALS   STAR       +6                         #  B(1)
001493: E5,1642  E5,1737               OGC                EQUALS   GCTR       +1                         #  I(2)
001494: E5,1642  E5,1741               IGC                EQUALS   OGC        +2                         #  I(2)
001495: E5,1642  E5,1743               MGC                EQUALS   IGC        +2                         #  I(2)
001496:


001498:                                                                                                  #           P57 ALIGNMENT (OVERLAY OF ALIGNMENT/SYSTEST COMMON STORAGE)  (12D)
001499:
001500: E5,1642  E5,1706               GACC               =        STARAD                                #   (6) SS
001501: E5,1642  E5,1714               GOUT               =        STARAD     +6                         #   (6) SS
001502:
001503:
001504:                                                                                                  #           OVERLAYS WITHIN ALIGNMENT/SYSTEST COMMON STORAGE             (24D)
001505:
001506: E5,1642  E5,1706               VEARTH             EQUALS   STARAD                                #   (6)TMP
001507: E5,1642  E5,1714               VSUN               EQUALS   VEARTH     +6                         #   (6)TMP
001508: E5,1642  E5,1722               VMOON              EQUALS   VSUN       +6                         #   (6)TMP
001509: E5,1642  E5,1730               SAX                EQUALS   VMOON      +6                         #   (6)TMP
001510:
001511:
001512:                                                                                                  #           P50'S,R50'S Q STORES.                                        (2D)
001513:
001514: E5,1642  E5,1745               QMIN               EQUALS   MGC        +2                         #  B(1)TMP
001515: E5,1642  E5,1746               QMAJ               EQUALS   QMIN       +1                         #  B(1)TMP
001516:
001517:
001518:                                                                                                  #         **** USED IN P50S ****   (SCATTERED OVERLAYS)
001519: E5,1642  E5,1706               XSCI               EQUALS   STARAD
001520: E5,1642  E5,1714               YSCI               EQUALS   XSCI       +6
001521: E5,1642  E5,1714               ZSCI               EQUALS   YSCI
001522: E5,1642  E5,1706               CULTRIX            EQUALS   VEARTH                                #  VEARTH, VSUN, VMOON
001523: E5,1642  E5,1722               VEC1               EQUALS   STARAD     +12D
001524: E5,1642  E5,1730               VEC2               EQUALS   STAR
001525:
001526:
001527:
001528:                                                                                                  #           ALIGNMENT STORAGE.                                           (23D)
001529:
001530: E5,1642  E5,1747               OGCT               EQUALS   QMAJ       +1                         #  I(6)
001531: E5,1642  E5,1755               BESTI              EQUALS   OGCT       +6                         #  I(1)
001532: E5,1642  E5,1756               BESTJ              EQUALS   BESTI      +1
001533: E5,1642  E5,1757               STARIND            EQUALS   BESTJ      +1
001534:                                                                                                  #     RETAIN THE ORDER OF STARSAV1 TO STARSAV2 +5 FOR DOWNLINK PURPOSES.
001535: E5,1642  E5,1760               STARSAV1           EQUALS   STARIND    +1                         #  I(6)
001536: E5,1642  E5,1766               STARSAV2           EQUALS   STARSAV1   +6                         #  I(6)
001537: E5,1642  E5,1774               TALIGN             EQUALS   STARSAV2   +6                         #  B(2) TIME OF IMU ALIGNMENT  (DOWNLINKED)
001538:                                                                                                  #                VEL/C     EQUALS  STARSAV2  +6            I(6)TMP  (NOT USED IN LEM)
001539:
001540:
001541: E5,1642                        ZPRIME             =        22D
001542: E5,1642                        PDA                =        22D
001543: E5,1642                        COSTH              =        16D
001544: E5,1642                        SINTH              =        18D
001545: E5,1642                        THETA              =        20D
001546: E5,1642                        STARM              =        32D
001547:


001549:                                                                                                  #  *******  OVERLAY NUMBER 2 IN EBANK 5  *******
001550:
001551:
001552:                                                                                                  #           CONICS ROUTINE STORAGE.                       (85D)
001553:
001554: E5,1642  E5,1642               DELX               EQUALS   ENDW                                  #  I(2)TMP
001555: E5,1642  E5,1644               DELT               EQUALS   DELX       +2                         #  I(2)TMP
001556: E5,1642  E5,1646               URRECT             EQUALS   DELT       +2                         #  I(6)TMP
001557: E5,1642                        RCNORM             EQUALS   34D                                   #  I(2) TMP
001558: E5,1642  E3,1552               XPREV              EQUALS   XKEP                                  #  I(2)TMP
001559: E5,1642  E5,1654               R1VEC              EQUALS   URRECT     +6                         #  I(6) TMP
001560: E5,1642  E5,1662               R2VEC              EQUALS   R1VEC      +6                         #  I(6)TMP
001561: E5,1642  E5,1670               TDESIRED           EQUALS   R2VEC      +6                         #  I(2)TMP
001562: E5,1642  E5,1672               GEOMSGN            EQUALS   TDESIRED   +2                         #  I(1)TMP
001563: E5,1642  E5,1673               UN                 EQUALS   GEOMSGN    +1                         #  I(6)TMP
001564: E5,1642  E5,1701               VTARGTAG           EQUALS   UN         +6                         #  I(1)TMP
001565: E5,1642  E5,1702               VTARGET            EQUALS   VTARGTAG   +1                         #  I(6)TMP
001566: E5,1642  E5,1710               RTNLAMB            EQUALS   VTARGET    +6                         #  I(1)TMP
001567: E5,1642  E5,1711               U2                 EQUALS   RTNLAMB    +1                         #  I(6)TMP
001568: E5,1642  E5,1717               MAGVEC2            EQUALS   U2         +6                         #  I(2)TMP
001569: E5,1642  E5,1721               UR1                EQUALS   MAGVEC2    +2                         #  I(6)TMP
001570: E5,1642  E5,1727               SNTH               EQUALS   UR1        +6                         #  I(2)TMP
001571: E5,1642  E5,1731               CSTH               EQUALS   SNTH       +2                         #  I(2)TMP
001572: E5,1642  E5,1733               1-CSTH             EQUALS   CSTH       +2                         #  I(2)TMP
001573: E5,1642  E5,1735               CSTH-RHO           EQUALS   1-CSTH     +2                         #  I(2)TMP
001574: E5,1642  E5,1737               P                  EQUALS   CSTH-RHO   +2                         #  I(2)TMP
001575: E5,1642  E5,1741               R1A                EQUALS   P          +2                         #  I(2)TMP
001576: E5,1642  E5,1654               RVEC               EQUALS   R1VEC                                 #  I(6)TMP
001577: E5,1642  E5,1743               VVEC               EQUALS   R1A        +2                         #  I(6)TMP
001578: E5,1642  E5,1710               RTNTT              EQUALS   RTNLAMB                               #  I(1)TMP
001579: E5,1642  E5,1751               ECC                EQUALS   VVEC       +6                         #  I(2)TMP
001580: E5,1642  E5,1710               RTNTR              EQUALS   RTNLAMB                               #  I(1)TMP
001581: E5,1642  E5,1710               RTNAPSE            EQUALS   RTNLAMB                               #  I(1)TMP
001582: E5,1642  E5,1717               R2                 EQUALS   MAGVEC2                               #  I(2)TMP
001583: E5,1642  E5,1753               RTNPRM             EQUALS   ECC        +2                         #  I(1)TMP
001584: E5,1642  E5,1754               SGNRDOT            EQUALS   RTNPRM     +1                         #  I(1)TMP
001585: E5,1642  E5,1755               RDESIRED           EQUALS   SGNRDOT    +1                         #  I(2)TMP
001586: E5,1642  E5,1757               DELDEP             EQUALS   RDESIRED   +2                         #  I(2)TMP
001587: E5,1642  E5,1761               DEPREV             EQUALS   DELDEP     +2                         #  I(2)TMP
001588: E5,1642  E5,1757               TERRLAMB           EQUALS   DELDEP                                #  I(2)TMP
001589: E5,1642  E5,1761               TPREV              EQUALS   DEPREV                                #  I(2)TMP
001590: E5,1642  E5,1763               EPSILONL           EQUALS   DEPREV     +2                         #  I(2)TMP
001591: E5,1642  E5,1765               COGA               EQUALS   EPSILONL   +2                         #  I(2) COTAN OF INITIAL FLIGHT PATH ANGLE.
001592: E5,1642  E5,1765               INDEP              EQUALS   COGA                                  #       USED BY SUBROUTINE'ITERATOR'.
001593:


001595:                                                                                                  #  *******  OVERLAY NUMBER 3 IN EBANK 5  *******
001596:
001597:                                                                                                  #           INCORP STORAGE.                               (18D)
001598:
001599: E5,1642  E5,1642               ZI                 EQUALS   ENDW                                  #  I(18)TMP
001600:
001601:                                                                                                  #           INCORP/L SR22.3 STORAGE.                                     (21D)
001602:
001603: E5,1642  E5,1664               DELTAX             EQUALS   ZI         +18D                       #  I(18)
001604: E5,1642  E5,1706               VARIANCE           EQUALS   DELTAX     +18D                       #  I(3)
001605:
001606:                                                                                                  #           MEASUREMENT INCORPORATION -R22- STORAGE.                     (49D)
001607:
001608: E5,1642  E5,1711               GRP2SVQ            EQUALS   VARIANCE   +3                         #  I(1)TMP QSAVE FOR RESTARTS
001609: E5,1642  E5,1712               OMEGAM1            EQUALS   GRP2SVQ    +1                         #  I(6)
001610: E5,1642  E5,1720               OMEGAM2            EQUALS   OMEGAM1    +6                         #  I(6)
001611: E5,1642  E5,1726               OMEGAM3            EQUALS   OMEGAM2    +6                         #  I(6)
001612: E5,1642  E5,1734               HOLDW              EQUALS   OMEGAM3    +6                         #  I(18)
001613: E5,1642  E5,1756               TDPOS              EQUALS   HOLDW      +18D                       #  I(6)
001614: E5,1642  E5,1764               TDVEL              EQUALS   TDPOS      +6                         #  I(6)
001615:
001616:
001617: E5,1642  E5,1664               TRIPA              EQUALS   DELTAX                                #  I(3)TMP
001618: E5,1642  E5,1667               TEMPVAR            EQUALS   TRIPA      +3                         #  I(3)TMP
001619:
001620:
001621:
001622:
001623:                                                                                                  #           INCORPORATION/INTEGRATION Q STORAGE.                         (1D)
001624:
001625: E5,1642  E5,1772               EGRESS             EQUALS   TDVEL      +6                         #  I(1)
001626:
001627:
001628:
001629:                                                                                                  #           P30/P31 STORAGE.                                             (1D) AND ONE OVERLAY
001630:
001631: E5,1642  E5,1773               P30EXIT            EQUALS   EGRESS     +1                         #  B(1)TMP
001632:
001633:
001634: E5,1642  E5,1773               ORIGIN             EQUALS   P30EXIT                               #  I(1)TMP  INDEX DURING INITVEL
001635:
001636:


001638:                                                                                                  #           SYSTEM TEST ERASABLES.  CAN OVERLAY W MATRIX. (127D)
001639:
001640:                                                                                                  #  *******  OVERLAY NUMBER 0 IN EBANK 5  *******
001641:
001642:
001643: E5,1642  E5,1400               AZIMUTH            EQUALS   W                                     #  2
001644: E5,1642  E5,1402               LATITUDE           EQUALS   AZIMUTH    +2                         #  2
001645: E5,1642  E5,1404               ERVECTOR           EQUALS   LATITUDE   +2                         #  6
001646: E5,1642  E5,1412               LENGTHOT           EQUALS   ERVECTOR   +6                         #  1
001647: E5,1642  E5,1413               LOSVEC             EQUALS   LENGTHOT   +1                         #  6
001648: E5,1642  E5,1414               NDXCTR             EQUALS   LOSVEC     +1                         #  1
001649: E5,1642  E5,1415               PIPINDEX           EQUALS   NDXCTR     +1                         #  1
001650: E5,1642  E5,1416               POSITON            EQUALS   PIPINDEX   +1                         #  1
001651: E5,1642  E5,1417               QPLACE             EQUALS   POSITON    +1                         #  1
001652: E5,1642  E5,1420               QPLACES            EQUALS   QPLACE     +1                         #  1
001653: E5,1642  E5,1421               SOUTHDR            EQUALS   QPLACES    +1                         #  7
001654: E5,1642  E5,1430               TEMPTIME           EQUALS   SOUTHDR    +7                         #  2
001655: E5,1642  E5,1432               TMARK              EQUALS   TEMPTIME   +2                         #  2
001656: E5,1642  E5,1434               GENPL              EQUALS   TMARK      +2
001657: E5,1642  E5,1434               CDUTIMEI           =        GENPL
001658: E5,1642  E5,1436               CDUTIMEF           =        GENPL      +2
001659: E5,1642  E5,1440               CDUDANG            =        GENPL      +4
001660: E5,1642  E5,1441               CDUREADF           =        GENPL      +5
001661: E5,1642  E5,1442               CDUREADI           =        GENPL      +6
001662: E5,1642  E5,1443               CDULIMIT           =        GENPL      +7
001663:
001664: E5,1642  E5,1440               TEMPADD            =        GENPL      +4
001665: E5,1642  E5,1441               TEMP               =        GENPL      +5
001666: E5,1642  E5,1442               NOBITS             =        GENPL      +6
001667: E5,1642  E5,1443               CHAN               =        GENPL      +7
001668:
001669: E5,1642  E5,1444               LOS1               =        GENPL      +8D
001670: E5,1642  E5,1452               LOS2               =        GENPL      +14D
001671:
001672: E5,1642  E5,1460               CALCDIR            EQUALS   GENPL      +20D
001673: E5,1642  E5,1461               CDUFLAG            EQUALS   GENPL      +21D
001674: E5,1642  E5,1462               GYTOBETQ           EQUALS   GENPL      +22D
001675: E5,1642  E5,1463               OPTNREG            EQUALS   GENPL      +23D
001676: E5,1642  E5,1464               SAVE               EQUALS   GENPL      +24D                       #  THREE  ONSEC LOC
001677: E5,1642  E5,1467               SFCONST1           EQUALS   GENPL      +27D
001678: E5,1642  E5,1470               TIMER              EQUALS   GENPL      +28D
001679:
001680: E5,1642  E5,1472               DATAPL             EQUALS   GENPL      +30D
001681: E5,1642  E5,1434               RDSP               EQUALS   GENPL                                 #  FIX LA ER   POSSIBLY KEEP1
001682: E5,1642  E5,1534               MASKREG            EQUALS   GENPL      +64D
001683: E5,1642  E5,1536               CDUNDX             EQUALS   GENPL      +66D
001684: E5,1642  E5,1537               RESULTCT           EQUALS   GENPL      +67D
001685: E5,1642  E5,1542               COUNTPL            EQUALS   GENPL      +70D
001686:
001687: E5,1642  E5,1543               CDUANG             EQUALS   GENPL      +71D
001688:


001690: E5,1642  E5,1434               AINLA              =        GENPL                                 #  110 DE  OR 156 OCT LOCATIONS
001691:
001692: E5,1642  E5,1434               WANGO              EQUALS   AINLA                                 #  VERT E ATE
001693: E5,1642  E5,1436               WANGI              EQUALS   AINLA      +2D                        #  HORIZO TAL ERATE
001694: E5,1642  E5,1440               WANGT              EQUALS   AINLA      +4D                        #  T
001695: E5,1642  E5,1440               TORQNDX            =        WANGT
001696: E5,1642  E5,1442               DRIFTT             EQUALS   AINLA      +6D
001697: E5,1642  E5,1444               ALX1S              EQUALS   AINLA      +8D
001698: E5,1642  E5,1445               CMPX1              EQUALS   AINLA      +9D                        #  IND
001699: E5,1642  E5,1446               ALK                EQUALS   AINLA      +10D                       #  GAINS
001700: E5,1642  E5,1462               VLAUNS             EQUALS   AINLA      +22D
001701: E5,1642  E5,1464               WPLATO             EQUALS   AINLA      +24D
001702: E5,1642  E5,1470               INTY               EQUALS   AINLA      +28D                       #  SOUTH  IP INTE
001703: E5,1642  E5,1472               ANGZ               EQUALS   AINLA      +30D                       #  EAST A IS
001704: E5,1642  E5,1474               INTZ               EQUALS   AINLA      +32D                       #  EAST P P I
001705: E5,1642  E5,1476               ANGY               EQUALS   AINLA      +34D                       #  SOUTH
001706: E5,1642  E5,1500               ANGX               EQUALS   AINLA      +36D                       #  VE
001707: E5,1642  E5,1502               DRIFTO             EQUALS   AINLA      +38D                       #  VERT
001708: E5,1642  E5,1504               DRIFTI             EQUALS   AINLA      +40D                       #  SOU
001709: E5,1642  E5,1510               VLAUN              EQUALS   AINLA      +44D
001710: E5,1642  E5,1512               ACCWD              EQUALS   AINLA      +46D
001711: E5,1642  E5,1520               POSNV              EQUALS   AINLA      +52D
001712: E5,1642  E5,1522               DPIPAY             EQUALS   AINLA      +54D                       #  SOUTH
001713: E5,1642  E5,1526               DPIPAZ             EQUALS   AINLA      +58D                       #  NORTH  IP INCREMENT
001714: E5,1642  E5,1530               ALTIM              EQUALS   AINLA      +60D
001715: E5,1642  E5,1531               ALTIMS             EQUALS   AINLA      +61D                       #   INDEX
001716: E5,1642  E5,1532               ALDK               EQUALS   AINLA      +62D                       #   TIME  ONSTAN
001717: E5,1642  E5,1550               DELM               EQUALS   AINLA      +76D
001718: E5,1642  E5,1560               WPLATI             EQUALS   AINLA      +84D
001719: E5,1642  E5,1562               GEOCOMPS           EQUALS   AINLA      +86D
001720: E5,1642  E5,1563               ERCOMP             EQUALS   AINLA      +87D
001721: E5,1642  E5,1571               ZERONDX            EQUALS   AINLA      +93D
001722:
001723: E5,1642  E5,1452               THETAN             =        ALK        +4
001724: E5,1642  E5,1460               FILDELV            EQUALS   THETAN     +6                         #   AGS ALIGNMENT STORAGE
001725: E5,1642  E5,1462               INTVEC             EQUALS   FILDELV    +2
001726: E5,1642  E5,1572               1SECXT             =        AINLA      +94D
001727: E5,1642  E5,1573               ASECXT             =        AINLA      +95D
001728: E5,1642  E5,1574               PERFDLAY           EQUALS   AINLA      +96D                       #  B(2) DELAY TIME BEF. START DRIFT MEASURE
001729: E5,1642  E5,1576               OVFLOWCK           EQUALS   AINLA      +98D                       #  (1) SET MEANS OVERFLOW IN IMU PERF TEST
001730:                                                                                                  #      AND CAUSES TERMINATION
001731:
001732:
001733: E5,1642  E5,1774               END-E5             EQUALS   STARSAV2   +6                         #  *** FIRST FREE LOCATION IN E5***
001734:


001736:                                                                                                  #           EBANK-6 ASSIGNMENTS.
001737:
001738: E6,1400                                           SETLOC   3000
001739:
001740:                                                                                                  #           DAP    PAD-LOADED    DATA.                          (10D)
001741:
001742:                                                                                                  #    ALL OF THE FOLLOWING EXCEPT PITTIME AND ROLLTIME ARE INITIALIZED IN FRESH START TO PERMIT IMMEDIATE USE OF DAP
001743:
001744: E6,1400                        HIASCENT           ERASE                                          #  (1) MASS AFTER STAGING, SCALE AT B16 KG.
001745: E6,1401                        ROLLTIME           ERASE                                          #  (1) TIME TO TRIM Z GIMBAL IN R03, CSEC.
001746: E6,1402                        PITTIME            ERASE                                          #  (1) TIME TO TRIM Y GIMBAL IN R03, CSEC.
001747: E6,1403                        DKTRAP             ERASE                                          #  (1) DAP STATE            (POSSIBLE 77001
001748: E6,1404                        DKOMEGAN           ERASE                                          #  (1)   ESTIMATOR PARA-      (VALUES 00012
001749: E6,1405                        DKKAOSN            ERASE                                          #  (1)      METERS FOR THE           00074
001750: E6,1406                        LMTRAP             ERASE                                          #  (1)         DOCKED AND            77001
001751: E6,1407                        LMOMEGAN           ERASE                                          #  (1)            LEM-ALONE CASES    00000
001752: E6,1410                        LMKAOSN            ERASE                                          #  (1)               RESPECTIVELY    00074
001753: E6,1411                        DKDB               ERASE                                          #  (1) WIDTH OF DEADBAND FOR DOCKED RCS
001754:                                                                                                  #      AUTOPILOT (DB=1.4DEG IN FRESH START)
001755:                                                                                                  #      DEADBAND = PI/DKDB RAD.
001756:
001757:                                                                                                  #  AXIS TRANSFORMATION MATRIX - GIMBAL TO PILOT AXES:                    (5D)
001758:
001759: E6,1412                        M11                ERASE                                          #  SCALED AT 1
001760: E6,1413                        M21                ERASE                                          #  SCALED AT 1
001761: E6,1414                        M31                ERASE
001762: E6,1415                        M22                ERASE                                          #  SCALED AT 1.
001763: E6,1416                        M32                ERASE                                          #  SCALED AT 1.
001764:
001765:                                                                                                  #  ANGLE MEASUREMENTS.                                                   (31D)
001766:
001767: E6,1417                        OMEGAP             ERASE    +4                                    #  BODY-AXIS ROT. RATES SCALED AT PI/4 AND
001768: E6,1424  E6,1420               OMEGAQ             EQUALS   OMEGAP     +1                         #  BODY-AXIS ACCELERATIONS SCALED AT PI/8
001769: E6,1424  E6,1421               OMEGAR             EQUALS   OMEGAP     +2
001770:                                                                                                  #     RETAIN THE ORDER OF ALPHAQ AND ALPHAR FOR DOWNLINK PURPOSES.
001771: E6,1424  E6,1422               ALPHAQ             EQUALS   OMEGAP     +3
001772: E6,1424  E6,1423               ALPHAR             EQUALS   OMEGAP     +4
001773: E6,1424                        OMEGAU             ERASE    +1
001774: E6,1426  E6,1425               OMEGAV             =        OMEGAU     +1
001775:
001776: E6,1426                        TRAPEDP            ERASE    +5
001777: E6,1434  E6,1427               TRAPEDQ            =        TRAPEDP    +1
001778: E6,1434  E6,1430               TRAPEDR            =        TRAPEDP    +2
001779: E6,1434  E6,1431               NPTRAPS            =        TRAPEDP    +3
001780: E6,1434  E6,1432               NQTRAPS            =        TRAPEDP    +4
001781: E6,1434  E6,1433               NRTRAPS            =        TRAPEDP    +5
001782: E6,1434  E6,1425               EDOTP              =        EDOT
001783: E6,1434                        EDOTQ              ERASE    +1
001784: E6,1436  E6,1435               EDOTR              =        EDOTQ      +1                         #   MANY SHARING NAMES
001785: E6,1436  E6,1434               QRATEDIF           EQUALS   EDOTQ                                 #  ALTERNATIVE NAMES:
001786:


001788: E6,1436  E6,1435               RRATEDIF           EQUALS   EDOTR                                 #  DELETE WHEN NO. OF REFERENCES = 0
001789:
001790: E6,1436  E6,1424               URATEDIF           EQUALS   OMEGAU
001791: E6,1436  E6,1425               VRATEDIF           EQUALS   OMEGAV
001792: E6,1436                        OLDXFORP           ERASE    +2                                    #  STORED CDU READINGS FOR STATE
001793: E6,1441  E6,1437               OLDYFORP           EQUALS   OLDXFORP   +1                         #  DERIVATIONS: SCALED AT PI RADIANS (2'S)
001794: E6,1441  E6,1440               OLDZFORQ           EQUALS   OLDXFORP   +2
001795:
001796:                                                                                                  #  RATE-COMMAND AND MINIMUM IMPULSE MODES
001797:
001798: E6,1441                        CH31TEMP           ERASE
001799: E6,1442                        STIKSENS           ERASE
001800: E6,1443                        TCP                ERASE
001801: E6,1444                        DXERROR            ERASE    +5
001802: E6,1452  E6,1446               DYERROR            EQUALS   DXERROR    +2
001803: E6,1452  E6,1450               DZERROR            EQUALS   DXERROR    +4
001804: E6,1452                        PLAST              ERASE
001805: E6,1453                        QLAST              ERASE
001806: E6,1454                        RLAST              ERASE
001807: E6,1455                        TCQR               ERASE
001808:                                                                                                  #  OTHER VARIABLES.                                                      (5D)
001809:
001810: E6,1456                        OLDPMIN            ERASE                                          #  THESE THREE USED IN MIN IMPULSE MODE.
001811: E6,1457                        OLDQRMIN           ERASE
001812: E6,1460  E6,1735               TEMP31             EQUALS   DAPTEMP1
001813:
001814: E6,1460                        SAVEHAND           ERASE    +1
001815: E6,1462                        PERROR             ERASE
001816: E6,1463  E6,1446               QERROR             EQUALS   DYERROR
001817: E6,1463  E6,1450               RERROR             EQUALS   DZERROR
001818:                                                                                                  #  JET STATE CHANGE VARIABLES- TIME (TOFJTCHG),JET BITS WRITTEN NOW      (10D)
001819:                                                                                                  #    (JTSONNOW), AND JET BITS WRITTEN AT T6 RUPT (JTSATCHG).
001820:
001821: E6,1463                        NXT6ADR            ERASE
001822: E6,1464                        T6NEXT             ERASE    +1
001823: E6,1466                        T6FURTHA           ERASE    +1
001824: E6,1470                        NEXTP              ERASE    +2
001825: E6,1473  E6,1471               NEXTU              =        NEXTP      +1
001826: E6,1473  E6,1472               NEXTV              =        NEXTP      +2
001827: E6,1473                        -2JETLIM           ERASE    +1                                    #  RATE COMMAND 4-JET RATE DIFFERENCE LIMIT
001828: E6,1475  E6,1474               -RATEDB            EQUALS   -2JETLIM   +1                         #  AND RATE DEADBAND FOR ASCENT OR DESCENT
001829:
001830: E6,1475  E6,1474               TARGETDB           EQUALS   -RATEDB                               #  MAN. CONTROL TARGET DB COMPLEMENT.
001831:
001832:                                                                                                  #      *** Q,R AXIS ERASABLES ***                                        (3)
001833:
001834: E6,1475     4742               PBIT               EQUALS   BIT10
001835: E6,1475     4741               QRBIT              EQUALS   BIT11
001836: E6,1475  E6,1747               UERROR             EQUALS   DAPTREG5                              #  U,V-AXES ATT ERROR FOR RCS CONTROL LAWS
001837: E6,1475  E6,1750               VERROR             =        UERROR     +1
001838: E6,1475                        RETJADR            ERASE
001839:


001841: E6,1476  E6,1740               TEMPNUM            EQUALS   DAPTEMP4
001842: E6,1476  E6,1741               NUMBERT            EQUALS   DAPTEMP5
001843: E6,1476  E6,1742               ROTINDEX           EQUALS   DAPTEMP6
001844: E6,1476  E6,1735               ROTEMP1            EQUALS   DAPTEMP1
001845: E6,1476  E6,1736               ROTEMP2            EQUALS   DAPTEMP2
001846: E6,1476                        AXISCTR            ERASE
001847: E6,1477  E6,1737               POLYTEMP           EQUALS   DAPTEMP3
001848: E6,1477                        SENSETYP           ERASE
001849: E6,1500  E6,1735               ABSTJ              EQUALS   DAPTEMP1                              #  ABS VALUE OF JET-FIRING TIME
001850: E6,1500  E6,1735               ABSEDOTP           EQUALS   DAPTEMP1
001851:
001852: E6,1500  E6,1746               DPSBURN            EQUALS   DAPTREG4                              #  USED WITH SNUFFBIT.  VERY TEMPORARY.
001853:


001855:                                                                                                  #  TRIM GIMBAL CONTROL LAW ERASABLES:                            (11D)
001856:
001857: E6,1500  E6,1735               GTSTEMPS           EQUALS   DAPTEMP1                              #  GTS IS PART OF THE JASK.
001858: E6,1500  E6,1737               SHFTFLAG           EQUALS   GTSTEMPS   +2                         #  COUNT HIGH ORDER ZERO BITS FOR SHIFTING.
001859:
001860: E6,1500  E6,1740               ININDEX            EQUALS   GTSTEMPS   +3                         #  INDEX FOR SHIFT LOOP.
001861:
001862: E6,1500  E6,1476               SAVESR             EQUALS   AXISCTR                               #  CANNOT BE A DAPTEMP - GTS USES THEM ALL.
001863:
001864: E6,1500  E6,1742               SCRATCH            EQUALS   GTSTEMPS   +5                         #  ERASABLE FOR ROOTCYCL
001865: E6,1500  E6,1743               HALFARG            EQUALS   GTSTEMPS   +6
001866:
001867: E6,1500  E6,1735               K2THETA            EQUALS   GTSTEMPS                              #  D.P. K(2)THETA AND NEGUSUM
001868: E6,1500  E6,1737               A2CNTRAL           EQUALS   GTSTEMPS   +2                         #  D.P. ALPHA(2), AT PI(2)/164 RAD/SEC(2)
001869: E6,1500  E6,1741               KCENTRAL           EQUALS   GTSTEMPS   +4                         #  S.P. K FROM KQ OR KR, AT PI/2(8)
001870: E6,1500  E6,1741               OMEGA.K            EQUALS   KCENTRAL                              #  D.P. OMEGA*K   OVERLAYS K AND K(2)
001871: E6,1500  E6,1742               K2CNTRAL           EQUALS   GTSTEMPS   +5                         #  S.P. K(2) FROM Q OR R, AT PI(2)/2(16)
001872: E6,1500  E6,1743               WCENTRAL           EQUALS   GTSTEMPS   +6                         #  S.P. OMEGA, AT PI/4 RAD/SEC
001873: E6,1500  E6,1744               ACENTRAL           EQUALS   GTSTEMPS   +7                         #  S.P. ALPHA, AT PI/8 RAD/SEC(2)
001874: E6,1500  E6,1745               DEL                EQUALS   GTSTEMPS   +8D                        #  S.P. SGN FUNCTION VALUE
001875:
001876: E6,1500  E6,1746               QRCNTR             EQUALS   GTSTEMPS   +9D                        #  INDEX FOR GTS LOOP THROUGH Q,R AXES.
001877:
001878: E6,1500  E6,1747               FUNCTION           EQUALS   GTSTEMPS   +10D                       #  D.P. WORD FOR DRIVE FUNCTION
001879:
001880: E6,1500                        NEGUQ              ERASE    +2                                    #  NEGATIVE OF Q-AXIS GIMBAL DRIVE
001881:                                                                                                  #                                NEGUQ +1               DEFINED AND USED ELSEWHERE
001882: E6,1503  E6,1502               NEGUR              EQUALS   NEGUQ      +2                         #  NEGATIVE OF R-AXIS GIMBAL DRIVE
001883:
001884: E6,1503                        KQ                 ERASE    +3                                    #  .3ACCDOTQ SCALED AT PI/2(8)
001885: E6,1507  E6,1504               KQ2                EQUALS   KQ         +1                         #  KQ2 = KQ*KQ
001886: E6,1507  E6,1505               KRDAP              EQUALS   KQ         +2                         #  .3 ACCDOTR SCALED AT PI/2(8)
001887: E6,1507  E6,1506               KR2                EQUALS   KQ         +3                         #  KR2 = KR*KR
001888:
001889: E6,1507                        ACCDOTQ            ERASE    +3                                    #  Q-JERK SCALED AT PI/2(7) UNSIGNED
001890: E6,1513  E6,1510               QACCDOT            EQUALS   ACCDOTQ    +1                         #  Q-JERK SCALED AT PI/2(7) SIGNED
001891: E6,1513  E6,1511               ACCDOTR            EQUALS   ACCDOTQ    +2                         #  R-JERK SCALED AT PI/2(7) UNSIGNED
001892: E6,1513  E6,1512               RACCDOT            EQUALS   ACCDOTQ    +3                         #  R-JERK SCALED AT PI/2(7) SIGNED
001893:
001894: E6,1513  E6,1446               QDIFF              EQUALS   QERROR                                #  ATTITUDE ERRORS:
001895: E6,1513  E6,1450               RDIFF              EQUALS   RERROR                                #  SCALED AT PI RADIANS
001896:
001897:
001898:
001899:
001900:                                                                                                  #  TORQUE VECTOR RECONSTRUCTION VARIABLES:                               (18D)
001901:
001902: E6,1513  E6,1743               JETRATE            EQUALS   DAPTREG1
001903: E6,1513  E6,1744               JETRATEQ           EQUALS   JETRATE    +1                         #  THE LAST CONTROL SAMPLE PERIOD OF 100 MS
001904: E6,1513  E6,1745               JETRATER           EQUALS   JETRATE    +2                         #  SCALED AT PI/4 RADIANS/SECOND
001905:


001907:
001908: E6,1513                        DOWNTORK           ERASE    +5                                    #  ACCUMULATED JET TORQUE COMMANDED ABOUT
001909: E6,1521  E6,1513               POSTORKP           EQUALS   DOWNTORK                              #    +,-P, +,-U, +,-V RESPECTIVELY.
001910: E6,1521  E6,1514               NEGTOTKP           EQUALS   DOWNTORK   +1                         #    EMPLOYED EXCLUSIVELY FOR DOWNLIST.
001911: E6,1521  E6,1515               POSTORKU           EQUALS   DOWNTORK   +2                         #    NOT INITIALIZED; PERMITTED TO OVERFLOW
001912: E6,1521  E6,1516               NEGTORKU           EQUALS   DOWNTORK   +3                         #  SCALED AT 32 JET-SEC, OR ABOUT 2.0 JET-
001913: E6,1521  E6,1517               POSTORKV           EQUALS   DOWNTORK   +4                         #      MSEC PER BIT.
001914: E6,1521  E6,1520               NEGTORKV           EQUALS   DOWNTORK   +5
001915:
001916: E6,1521                        NO.PJETS           ERASE    +2
001917: E6,1524  E6,1522               NO.UJETS           =        NO.PJETS   +1
001918: E6,1524  E6,1523               NO.VJETS           =        NO.UJETS   +1
001919: E6,1524                        TJP                ERASE    +2
001920: E6,1527  E6,1525               TJU                =        TJP        +1
001921: E6,1527  E6,1526               TJV                =        TJP        +2
001922:
001923: E6,1527                        L,PVT-CG           ERASE
001924: E6,1530                        1JACC              ERASE    +4                                    #  ACCELERATIONS DUE TO 1 JET TORQUING
001925: E6,1535  E6,1531               1JACCQ             EQUALS   1JACC      +1                         #  SCALED AT PI/4 RADIANS/SECOND
001926: E6,1535  E6,1532               1JACCR             EQUALS   1JACC      +2
001927: E6,1535  E6,1533               1JACCU             EQUALS   1JACC      +3                         #  FOR U,V-AXES THE SCALE FACTOR IS  DIFF:
001928: E6,1535  E6,1534               1JACCV             EQUALS   1JACC      +4                         #  SCALED AT PI/2 RADIANS/SECOND (FOR ASC)
001929:
001930:                                                                                                  #  ASCENT VARIABLES:                                                     (10D)
001931:
001932: E6,1535                        SKIPU              ERASE    +1
001933: E6,1537  E6,1536               SKIPV              =        SKIPU      +1
001934:                                                                                                  #  THE FOLLOWING LM DAP ERASABLES ARE ZEROED IN THE STARTDAP SECTION OF THE DAPIDLER PROGRAM AND THE COASTASC
001935:                                                                                                  #  SECTION OF THE AOSTASK.  THE ORDER MUST BE PRESERVED FOR THE INDEXING METHODS WHICH ARE EMPLOYED IN THOSE
001936:                                                                                                  #  SECTIONS AND ELSEWHERE.
001937:
001938: E6,1537                        AOSQ               ERASE    +5                                    #  OFFSET ACC. ESTIMATES, UPDATED IN D.P.,
001939: E6,1545  E6,1541               AOSR               EQUALS   AOSQ       +2                         #  AND SCALED AT PI/2.
001940: E6,1545  E6,1543               AOSU               EQUALS   AOSQ       +4                         #  UV-AXES OFFSET ACC. FROMED BY VECTOR
001941: E6,1545  E6,1544               AOSV               EQUALS   AOSQ       +5                         #  ADDITION OF Q,R.  AT PI/2 RAD/SEC(2).
001942:
001943: E6,1545                        AOSQTERM           ERASE    +1                                    #  (.1-.05K)AOS
001944: E6,1547  E6,1546               AOSRTERM           EQUALS   AOSQTERM   +1                         #  SCALED AT PI/4 RADIANS/SECOND.
001945:
001946:                                                                                                  #  FOR TJET LAW SUBROUTINE:                                              (TEMPS ONLY)
001947:
001948:                                                                                                  # NUMBERT        EQUALS          DAPTEMP5                  DEFINED IN QRAXIS.
001949: E6,1547  E6,1735               EDOTSQ             EQUALS   DAPTEMP1
001950: E6,1547  E6,1736               ROTSENSE           EQUALS   DAPTEMP2
001951: E6,1547  E6,1737               FIREFCT            EQUALS   DAPTEMP3                              #  LOOKED AT BY PAXIS.
001952: E6,1547  E6,1740               TTOAXIS            EQUALS   DAPTEMP4
001953: E6,1547  E6,1742               ADRSDIF2           EQUALS   DAPTEMP6
001954: E6,1547  E6,1743               HOLDQ              EQUALS   DAPTREG1
001955: E6,1547  E6,1744               ADRSDIF1           EQUALS   DAPTREG2
001956: E6,1547  E6,1745               HH                 EQUALS   DAPTREG3                              #  DOUBLE PRECISION
001957:


001959:                                                                                                  #  HH +1         EQUALS          DAPTREG4
001960: E6,1547  E6,1750               E                  EQUALS   DAPTREG6                              #  TIME SHARE WITH VERROR
001961: E6,1547  E6,1425               EDOT               EQUALS   OMEGAV
001962:
001963:                                                                                                  #  INPUT TO TJET LAW (PERMANENT ERASABLES).                              (48D)
001964:
001965: E6,1547  E6,1525               TJETU              =        TJU                                   #  EQUATE NAMES.  INDEXED BY -1, 0, +1.
001966: E6,1547                        BLOCKTOP           ERASE    +47D
001967: E6,1627  E6,1567               1/ANET1            =        BLOCKTOP   +16D                       #  THESE 8 PARAMETERS ARE SET UP BY 1/ACCS
001968: E6,1627  E6,1570               1/ANET2            =        1/ANET1    +1                         #  FOR MINIMUM JETS ABOUT THE U-AXIS WHEN
001969: E6,1627  E6,1573               1/ACOAST           =        1/ANET1    +4                         #  EDOT IS POSITIVE.  TJETLAW INDEXES BY
001970: E6,1627  E6,1575               ACCFCTZ1           =        1/ANET1    +6                         #  ADRSDIFF FROM THESE REGISTERS TO PICK UP
001971: E6,1627  E6,1576               ACCFCTZ5           =        1/ANET1    +7                         #  PARAMETERS FOR THE PROPER AXIS, NUMBER
001972: E6,1627  E6,1601               FIREDB             =        1/ANET1    +10D                       #  OF JETS AND SIGN OF EDOT.  THERE ARE 48
001973: E6,1627  E6,1603               COASTDB            =        1/ANET1    +12D                       #  REGISTERS IN ALL IN THIS BLOCK.
001974: E6,1627  E6,1605               AXISDIST           =        1/ANET1    +14D                       #  FOUR NOT REFERENCED (P-AXIS) ARE FILLED
001975:                                                                                                  #    IN BY THE FOLLOWING:
001976: E6,1627  E6,1547               ACCSWU             =        BLOCKTOP                              #  SET BY 1/ACCS TO SHOW WHETHER MAXIMUM
001977: E6,1627  E6,1550               ACCSWV             =        ACCSWU     +1                         #  JETS ARE REQUIRED BECAUSE OF AOS.
001978: E6,1627  E6,1555               FLAT               =        BLOCKTOP   +6                         #  WIDTH OF MINIMUM IMPULSE ZONE.
001979: E6,1627  E6,1556               ZONE3LIM           =        BLOCKTOP   +7                         #  HEIGHT OF MINIMUM IMPULSE ZONE(AT 4 SEC)
001980:
001981:
001982:
001983:                                                                                                  #  VARIABLES FOR GTS-QRAXIS CONTROL EXCHANGE.                            (4)
001984:
001985: E6,1627  E6,1501               ALLOWGTS           EQUALS   NEGUQ      +1                         #  INSERT INTO UNUSED LOCATION
001986: E6,1627                        COTROLER           ERASE                                          #  INDICATES WHICH CONTROL SYSTEM TO USE.
001987: E6,1630                        QGIMTIMR           ERASE    +2                                    #  Q-GIMBAL DRIVE ITMER, DECISECONDS.
001988: E6,1633  E6,1631               INGTS              EQUALS   QGIMTIMR   +1                         #  INDICATOR OF CURRENT GTS CONTROL.
001989: E6,1633  E6,1632               RGIMTIMR           EQUALS   QGIMTIMR   +2                         #  R-GIMBAL DRIVE TIMER, DECISECONDS.
001990:
001991:                                                                                                  #  PLEASE RETAIN THE ORDER OF CDUXD THRU CDUZD FOR DOWNLINK PURPOSES.
001992:
001993:                                                                                                  #           KALCMANU:DAP INTERFACE.                                      (9D)
001994:
001995: E6,1633                        CDUXD              ERASE    +2                                    #  CDU DESIRED REGISTERS:
001996: E6,1636  E6,1634               CDUYD              EQUALS   CDUXD      +1                         #  SCALED AT PI RADIANS (180 DEGREES)
001997: E6,1636  E6,1635               CDUZD              EQUALS   CDUXD      +2                         #  (STORE IN 2S COMPLEMENT)
001998:
001999: E6,1636                        DELCDUX            ERASE    +2                                    #  NEGATIVE OF DESIRED 100MS CDU INCREMENT:
002000: E6,1641  E6,1637               DELCDUY            EQUALS   DELCDUX    +1                         #  SCALED AT PI RADIANS (180 DEGREES)
002001: E6,1641  E6,1640               DELCDUZ            EQUALS   DELCDUX    +2                         #  (STORE IN 2S COMPLEMENT)
002002:
002003:                                                                                                  #     RETAIN THE ORDER OF OMEGAPD TO OMEGARD FOR DOWNLINK PURPOSES.
002004: E6,1641                        OMEGAPD            ERASE    +2                                    #  ATTITUDE MANEUVER DESIRED RATES:
002005: E6,1644  E6,1642               OMEGAQD            EQUALS   OMEGAPD    +1                         #  (NOT EXPLICITLY REFERENCED IN GTS CNTRL)
002006: E6,1644  E6,1643               OMEGARD            EQUALS   OMEGAPD    +2                         #  SCALED AT PI/4 RADIANS/SECOND
002007:
002008:                                                                                                  #  KALCMANU STORAGE.                                                     (24D)
002009:


002011: E6,1644                        MIS                ERASE    +23D                                  #  I(18D)
002012: E6,1674  E6,1666               COF                EQUALS   MIS        +18D                       #  I(6)
002013:
002014:
002015:                                                                                                  #           KALCMANU STORAGE.                                             (33D)
002016:
002017: E6,1674                        BCDU               ERASE    +30D                                  #  B(3)
002018: E6,1733  E6,1677               KSPNDX             EQUALS   BCDU       +3                         #  B(1)
002019: E6,1733  E6,1700               KDPNDX             EQUALS   KSPNDX     +1                         #  B(1)
002020:
002021: E6,1733  E6,1701               TMIS               EQUALS   KDPNDX     +1                         #  I(18) MUST BE IN SAME BANK AS RCS DAP
002022: E6,1733  E6,1723               COFSKEW            EQUALS   TMIS       +18D                       #  I(6)  MUST BE IN SAME BANK AS RCS DAP
002023: E6,1733  E6,1731               CAM                EQUALS   COFSKEW    +6                         #  I(2)  MUST BE IN SAME BANK AS RCS DAP
002024:
002025:
002026: E6,1733                        AM                 ERASE    +1                                    #  I(2) THIS WAS ONCE IN E5 OVERLAYING OGC
002027:
002028:
002029:                                                                                                  #  FIRST-ORDER OVERLAYS IN KALCMANU                                      (25D)
002030:
002031: E6,1735  E6,1701               KV1                EQUALS   TMIS                                  #  I(6)
002032: E6,1735  E6,1701               MFISYM             EQUALS   TMIS                                  #  I
002033: E6,1735  E6,1701               TMFI               EQUALS   TMIS                                  #  I
002034: E6,1735  E6,1701               NCDU               EQUALS   TMIS                                  #  B
002035: E6,1735  E6,1704               NEXTIME            EQUALS   TMIS       +3                         #  B
002036: E6,1735  E6,1705               TTEMP              EQUALS   TMIS       +4                         #  B
002037: E6,1735  E6,1707               KV2                EQUALS   TMIS       +6                         #  I(6)
002038: E6,1735  E6,1707               BIASTEMP           EQUALS   TMIS       +6                         #  B
002039: E6,1735  E6,1715               KV3                EQUALS   TMIS       +12D                       #  I(6)
002040: E6,1735  E6,1715               OGF                EQUALS   TMIS       +12D                       #  I
002041:
002042: E6,1735  E6,1723               BRATE              EQUALS   COFSKEW                               #  B
002043: E6,1735  E6,1723               IG                 EQUALS   COFSKEW                               #  I
002044:
002045: E6,1735  E6,1731               TM                 EQUALS   CAM                                   #  B
002046:
002047:                                                                                                  #  SECOND-ORDER OVERLAYS IN KALCMANU                                     (24D)
002048:
002049: E6,1735  E6,1701               K1                 =        KV1
002050: E6,1735  E6,1707               K2                 =        KV2
002051: E6,1735  E6,1715               K3                 =        KV3
002052: E6,1735  E6,1701               P21                EQUALS   KV1                                   #  I(2)
002053: E6,1735  E6,1703               D21                EQUALS   KV1        +2                         #  I(2)
002054: E6,1735  E6,1705               G21                EQUALS   KV1        +4                         #  I(2)
002055: E6,1735  E6,1707               C2SQP              EQUALS   KV2                                   #  I(2)
002056: E6,1735  E6,1711               C2SQM              EQUALS   KV2        +2                         #  I(2)
002057: E6,1735  E6,1713               C2PP               EQUALS   KV2        +4                         #  I(2)
002058: E6,1735  E6,1715               C2MP               EQUALS   KV3                                   #  I(2)
002059: E6,1735  E6,1717               C1PP               EQUALS   KV3        +2                         #  I(2)
002060: E6,1735  E6,1721               C1MP               EQUALS   KV3        +4                         #  I(2)
002061:


002063: E6,1735  E6,1723               VECQTEMP           =        COFSKEW
002064:
002065: E6,1735  E6,1633               DCDU               =        CDUXD
002066: E6,1735  E6,1636               DELDCDU            =        DELCDUX
002067: E6,1735  E6,1637               DELDCDU1           =        DELCDUY
002068: E6,1735  E6,1640               DELDCDU2           =        DELCDUZ
002069:
002070:
002071:                                                                                                  #  *  *  *  *  *  *  *  *  *  *  *  *  *  *  *  *  *  *  *  *  *  *  *  *
002072:
002073:                                                                                                  #  STORAGE FOR FINDCDUW
002074:
002075:                                                                                                  #           OVERLAYING KALCMANU STORAGE:                                 (26D)
002076:
002077: E6,1735  E6,1644               ECDUW              EQUALS   MIS
002078: E6,1735  E6,1644               ECDUWUSR           EQUALS   ECDUW                                 #  B(1)TMP
002079: E6,1735  E6,1645               QCDUWUSR           EQUALS   ECDUWUSR   +1                         #  I(1)TMP
002080: E6,1735  E6,1646               NDXCDUW            EQUALS   QCDUWUSR   +1                         #  B(1)TMP
002081: E6,1735  E6,1647               FLAGOODW           EQUALS   NDXCDUW    +1                         #  B(1)TMP
002082: E6,1735  E6,1650               FLPAUTNO           EQUALS   FLAGOODW   +1                         #  B(1)TMP
002083: E6,1735  E6,1651               UNFC/2             EQUALS   FLPAUTNO   +1                         #  I(6)IN
002084: E6,1735  E6,1657               UNWC/2             EQUALS   UNFC/2     +6                         #  I(6)IN
002085: E6,1735  E6,1665               UNFV/2             EQUALS   UNWC/2     +6                         #  I(6) S-S
002086: E6,1735  E6,1665               UNFVX/2            =        UNFV/2
002087: E6,1735  E6,1667               UNFVY/2            =        UNFV/2     +2
002088: E6,1735  E6,1671               UNFVZ/2            =        UNFV/2     +4
002089: E6,1735  E6,1673               -DELGMB            EQUALS   UNFV/2     +6                         #  B(3)TMP
002090:
002091:                                                                                                  #           DEFINED IN THE WORK AREA:                                    (18D)
002092:
002093: E6,1735                        UNX/2              =        0
002094: E6,1735                        UNY/2              =        6
002095: E6,1735                        UNZ/2              =        14
002096:
002097:                                                                                                  #  END OF FINDCDUW ERASABLES
002098:
002099:                                                                                                  #  *  *  *  *  *  *  *  *  *  *  *  *  *  *  *  *  *  *  *  *  *  *  *  *
002100:
002101:                                                                                                  #  THE FOLLOWING ARE THE DAP REPLACEMENTS FOR THE ITEMPS AND RUPTREGS,NEEDED BECAUSE DAP IS NOW A TOB,JASK,JAB,TOSK
002102:                                                                                                  #  ...ANYWAY, THE DAP CAN NOW BE INTERRUPTED.                            (18D)
002103:
002104: E6,1735                        DAPTEMP1           ERASE    +17D
002105: E6,1757  E6,1736               DAPTEMP2           EQUALS   DAPTEMP1   +1
002106: E6,1757  E6,1737               DAPTEMP3           EQUALS   DAPTEMP1   +2
002107: E6,1757  E6,1740               DAPTEMP4           EQUALS   DAPTEMP1   +3
002108: E6,1757  E6,1741               DAPTEMP5           EQUALS   DAPTEMP1   +4
002109: E6,1757  E6,1742               DAPTEMP6           EQUALS   DAPTEMP1   +5
002110: E6,1757  E6,1743               DAPTREG1           EQUALS   DAPTEMP1   +6
002111: E6,1757  E6,1744               DAPTREG2           EQUALS   DAPTEMP1   +7
002112: E6,1757  E6,1745               DAPTREG3           EQUALS   DAPTEMP1   +8D
002113:


002115: E6,1757  E6,1746               DAPTREG4           EQUALS   DAPTEMP1   +9D
002116: E6,1757  E6,1747               DAPTREG5           EQUALS   DAPTEMP1   +10D
002117: E6,1757  E6,1750               DAPTREG6           EQUALS   DAPTEMP1   +11D
002118:
002119: E6,1757  E6,1751               DAPARUPT           EQUALS   DAPTEMP1   +12D
002120: E6,1757  E6,1752               DAPLRUPT           EQUALS   DAPARUPT   +1
002121: E6,1757  E6,1753               DAPBQRPT           EQUALS   DAPARUPT   +2
002122: E6,1757  E6,1755               DAPZRUPT           EQUALS   DAPARUPT   +4
002123:
002124:                                                                                                  #  (DAPZRUPT IS ALSO JASK-IN-PROGRESS FLAG)
002125:
002126:
002127:
002128:                                                                                                  #           NEEDLER(ATTITUDE ERROR EIGHT BALL DISPLAY) STORAGE.          (6D)
002129:
002130: E6,1757     0061               T5TEMP             EQUALS   ITEMP1
002131: E6,1757     0063               DINDX              EQUALS   ITEMP3
002132: E6,1757                        AK                 ERASE    +2                                    #  NEEDLER ATTITUDE INPUTS, SCALED AT 180
002133: E6,1762  E6,1760               AK1                EQUALS   AK         +1                         #  DEGREES.  P,Q,R AXES IN AK,AK1,AK2.
002134: E6,1762  E6,1761               AK2                EQUALS   AK         +2
002135:
002136: E6,1762                        EDRIVEX            ERASE    +2                                    #  NEEDLER DISPLAY REGS AT 1800 DEGREES.
002137: E6,1765  E6,1763               EDRIVEY            EQUALS   EDRIVEX    +1                         #  SO THAT 384 BITS REPRESENT 42 3/16 DEG.
002138: E6,1765  E6,1764               EDRIVEZ            EQUALS   EDRIVEX    +2
002139:
002140:
002141:                                                                                                  #           INITVEL STORAGE.  ALSO USED BY P31,P34,P35,P74,P75,S40.1 AND DOWNLINKED. (6D)
002142:
002143: E6,1765                        DELVEET3           ERASE    +5                                    #  I(6)     DELTA V IN INERTIAL
002144:
002145:
002146:                                                                                                  #           P32-P33 STORAGE.                                             (2)
002147:
002148: E6,1773                        TCDH               ERASE    +1                                    #   I(2) T2 CDH TIME IN C.S. ALSO DWNLINKED
002149:
002150:
002151:
002152:                                                                                                  #           P32 - 35                                                     (2D)
002153:
002154: E6,1775                        RTX1               ERASE                                          #  I(1) X1  -2 FOR EARTH, -10 FOR MOON
002155: E6,1776                        RTX2               ERASE                                          #  I(1) X2 FOR SHIFT-EARTH 0, MOON 2
002156:
002157:
002158: E6,1777  E6,1776               END-E6             EQUALS   RTX2                                  #  LAST LOCATION USED IN E6.
002159:


002161:                                                                                                  #                  EBANK-7 ASSIGNMENTS
002162:
002163: E7,1400                                           SETLOC   3400
002164:
002165:
002166:                                                                                                  #           P35 CONSTANTS.         -PAD LOADED-                          (4D)
002167:
002168: E7,1400                        ATIGINC            ERASE    +1                                    #  B(2)PL  *MUST BE AT 1400 FOR SYSTEMSTEST
002169: E7,1402                        PTIGINC            ERASE    +1                                    #  B(2)PL
002170:
002171:
002172:                                                                                                  #           AOTMARK STORAGE.       -PAD LOADED-                          (6D)
002173:
002174: E7,1404                        AOTAZ              ERASE    +2                                    #  B(3)PL
002175: E7,1407                        AOTEL              ERASE    +2                                    #  B(3)PL
002176:
002177:
002178:                                                                                                  #           LANDING RADAR.         -PAD LOADED-                          (10D)
002179:
002180: E7,1412                        LRALPHA            ERASE    +3                                    #  B(1)    POS1 X ROTATION      * MUST *
002181: E7,1416  E7,1413               LRBETA1            EQUALS   LRALPHA    +1                         #  B(1)    POS1 Y ROTATION    *  BE  *
002182: E7,1416  E7,1414               LRALPHA2           EQUALS   LRBETA1    +1                         #  B(1)    POS2 X ROTATION    *  IN  *
002183: E7,1416  E7,1415               LRBETA2            EQUALS   LRALPHA2   +1                         #  B(1)    POS2 Y ROTATION    * ORDER *
002184: E7,1416                        LRHMAX             ERASE                                          #  B(1)
002185: E7,1417                        LRVMAX             ERASE                                          #  B(1)
002186: E7,1420                        LRWH               ERASE                                          #  B(1)
002187: E7,1421                        LRWVZ              ERASE                                          #  B(1)    * MUST  *
002188: E7,1422                        LRWVY              ERASE                                          #  B(1)    * BE IN *
002189: E7,1423                        LRWVX              ERASE                                          #  B(1)    * ORDER *
002190:
002191:
002192:
002193:                                                                                                  #           THROTTLE STORAGE.      -PAD LOADED-                          (1D)
002194:
002195: E7,1424                        ZOOMTIME           ERASE                                          #  B(1)PL TIME OF DPS THROTTLE-UP COMMAND
002196:
002197:                                                                                                  #           P63 AND P64 CONSTANTS.    -PAD LOADED-                       (2D)
002198:
002199: E7,1425                        TENDBRAK           ERASE                                          #  B(1) LANDING PHASE SWITCHING CRITERION
002200: E7,1426                        TENDAPPR           ERASE                                          #  B(1) LANDING PHASE SWITCHING CRITERION
002201:
002202:
002203:                                                                                                  #           LANDING RADAR      -PAD LOADED-                              (2D)
002204:
002205: E7,1427                        RPCRTIME           ERASE                                          #  B(1) REPOSITIONING CRITERION  (TIME)
002206: E7,1430                        RPCRTQSW           ERASE                                          #  B(1) REPOSITIONING CRITERION (ANGLE)
002207:
002208:
002209:                                                                                                  #  *** RETAIN THE ORDER OF DELVSLV, TIG, RTARG, DELLT4 FOR UPDATE. ***
002210:


002212:                                                                                                  #           P32-35  P72-75 STORAGE.                        (6D)
002213:
002214: E7,1431                        DELVLVC            ERASE    +5                                    #  I(6) DELTA VELOCITY - LOCAL VERTICAL COO
002215: E7,1437  E7,1431               DELVSLV            =        DELVLVC                               #  (TEMP STORAGE OF SAME VECTOR)   -RDINATE
002216:
002217:
002218:
002219:                                                                                                  #           P30-P40 INTERFACE UNSHARED.                   (2D)
002220:
002221: E7,1437                        TIG                ERASE    +1                                    #  B(2)
002222:
002223:                                                                                                  #           INITVEL STORAGE. ALSO USED BY P34,35,74,75,10,11 OTHERS      (8D)
002224:
002225: E7,1441                        RTARG              ERASE    +5                                    #  I(6) TARGET VECTOR
002226: E7,1447                        DELLT4             ERASE    +1                                    #  I(2) TIME DIFFERENCE
002227:
002228:
002229:                                                                                                  #           P30-P40 INTERFACE UNSHARED.                                  (3D)
002230:
002231: E7,1451                        TTOGO              ERASE    +1                                    #  B(2)
002232: E7,1453  E7,1451               TFI                EQUALS   TTOGO
002233: E7,1453                        WHICH              ERASE                                          #  B(1)
002234:
002235:
002236:                                                                                                  #           ***  R21  ***                                                (1D)
002237:
002238: E7,1454                        LOSCOUNT           ERASE                                          #  B(1)
002239:
002240:
002241:                                                                                                  #           L SR22.3 (RENDEZVOUS NAVIGATION) STORAGE.                    (4D)
002242:
002243:                                                                                                  #     RETAIN THE ORDER OF AIG TO TRKMKCNT FOR DOWNLINK PURPOSES.
002244: E7,1455                        AIG                ERASE                                          #  B(1)OUT  GIMGAL ANGLES
002245: E7,1456                        AMG                ERASE                                          #  B(1)OUT  (MUST BE
002246: E7,1457                        AOG                ERASE                                          #  B(1)OUT   CONSECUTIVE)
002247:
002248: E7,1460                        TRKMKCNT           ERASE                                          #  B(1)TMP  TEMPORARY MARK STORAGE.
002249: E7,1461  E7,1460               MARKCTR            =        TRKMKCNT
002250:
002251:
002252:                                                                                                  #           P32-P35, P72-P75 STORAGE.  -PERMANENT-                       (6)
002253:
002254: E7,1461                        NORMEX             ERASE                                          #  B(1) PRM SAVE FOR Q
002255: E7,1462                        QSAVED             ERASE                                          #  B(1) PRM SAVE FOR Q
002256: E7,1463                        RTRN               ERASE                                          #  B(1) PRM SAVE FOR Q
002257: E7,1464                        NN                 ERASE    +1                                    #  B(2)
002258: E7,1466                        SUBEXIT            ERASE                                          #  B(1) PRM SAVE Q
002259:


002261:
002262: E7,1467                        E7OVERLA           EQUALS                                         #           START OF E7 OVERLAYS
002263:
002264: E7,1467  E7,1467               WHOCARES           EQUALS   E7OVERLA                              #  A DUMMY FOR E-BANK INSENSITIVE 2CADRS.
002265:


002267:                                                                                                  #  *******  OVERLAY NUMBER 0 IN EBANK 7  *******
002268:
002269:
002270:
002271:                                                                                                  #  RENDEZVOUS GUIDANCE STORAGE -P32....P35-                              (89D)
002272:
002273: E7,1467  E7,1607               TSTRT              EQUALS   DELDV                                 #  MIDCOURSE START TIME
002274: E7,1467  E7,1571               TDEC2              EQUALS   DELVCSI                               #  TEMP STORAGE FOR INTEGRATION TIME INPUT
002275: E7,1467  E7,1573               KT                 EQUALS   DELVTPI                               #  TEMP STORAGE FOR MIDCOURSE DELTA TIME
002276: E7,1467                        VACT1              ERASE    +5D                                   #  VELOCITY VECTOR OF ACTIVE  AT CSI TIME
002277: E7,1475                        RPASS1             ERASE    +5D                                   #  POSITION VECTOR OF PASSIVE AT CSI TIME
002278: E7,1503                        VPASS1             ERASE    +5D                                   #  VELOCITY VECTOR OF PASSIVE AT CSI TIME
002279: E7,1511                        VACT2              ERASE    +5D                                   #  VELOCITY VECTOR OF ACTIVE  AT CDH TIME
002280: E7,1517                        RPASS2             ERASE    +5D                                   #  POSITION VECTOR OF PASSIVE AT CDH TIME
002281: E7,1525                        VPASS2             ERASE    +5D                                   #  VELOCITY VECTOR OF PASSIVE AT CDH TIME
002282: E7,1533                        RACT3              ERASE    +5D                                   #  POSITION VECTOR OF ACTIVE  AT TPI TIME
002283: E7,1541                        VACT3              ERASE    +5D                                   #  VELOCITY VECTOR OF ACTIVE  AT TPI TIME
002284: E7,1547                        RPASS3             ERASE    +5D                                   #  POSITION VECTOR OF PASSIVE AT TPI TIME
002285: E7,1555                        VPASS3             ERASE    +5D                                   #  VELOCITY VECTOR OF PASSIVE AT TPI TIME
002286: E7,1563                        VACT4              ERASE    +5D                                   #  VELOCITY VECTOR OF ACTIVE  AT INTERCEPT
002287: E7,1571  E7,1541               UNVEC              EQUALS   VACT3                                 #  CDHMVR UNIT VECTOR TEMP STORAGE.
002288: E7,1571                        DELVCSI            ERASE    +1D                                   #  THRUST VALUE AT CSI
002289: E7,1573                        DELVTPI            ERASE    +1D                                   #  THRUST VALUE AT TPI OR MID
002290: E7,1575  E7,1573               DELVMID            EQUALS   DELVTPI
002291: E7,1575                        DIFFALT            ERASE    +1D                                   #  ALT DIFFERENCE AT CDH
002292: E7,1577                        POSTCSI            ERASE    +1                                    #  PERIGEE ALTITUDE AFTER CSI MANEUVER
002293: E7,1601                        POSTCDH            ERASE    +1                                    #  PERIGEE ALTITUDE AFTER CDH MANEUVER
002294: E7,1603                        POSTTPI            ERASE    +1                                    #  PERIGEE ALTITUDE AFTER TPI MANEUVER
002295: E7,1605  E7,1603               LOOPCT             EQUALS   POSTTPI                               #  CSI NEWTON ITERATION COUNTER
002296: E7,1605  E7,1601               HAFPA1             EQUALS   POSTCDH                               #  HALF PERIOD
002297: E7,1605                        GAMPREV            ERASE    +1                                    #  PREVIOUS GAMMA
002298: E7,1607  E7,1573               DVPREV             EQUALS   DELVTPI                               #  PREVIOUS DELVCSI
002299: E7,1607                        DELDV              ERASE    +1D
002300: E7,1611                        CSIALRM            ERASE    +1                                    #  FIRST SOLUTION ALARM
002301: E7,1613                        VERBNOUN           ERASE
002302: E7,1614  E7,1611               TITER              EQUALS   CSIALRM                               #  ITERATION COUNTER
002303: E7,1614                        RDOTV              ERASE    +1
002304: E7,1616  E7,1503               VAPREC             EQUALS   VPASS1                                #  I(6) S-S PREC VEC FOR NOM TPI TIME(ACT V
002305: E7,1616  E7,1475               RAPREC             EQUALS   RPASS1                                #  I(6) S-S PREC VEC FOR NOM TPI TIME(ACT V
002306: E7,1616  E7,1525               VPPREC             EQUALS   VPASS2                                #  I(6) S-S PREC VEC FOR NOM TPI TIME(PASS
002307: E7,1616  E7,1517               RPPREC             EQUALS   RPASS2                                #  I(6) S-S PREC VEC FOR NOM TPI TIME(PASS
002308: E7,1616  E7,1573               DELEL              EQUALS   DELVTPI                               #  I(2) S-S
002309: E7,1616  E7,1607               DELTEE             EQUALS   DELDV                                 #  I(2)S-S
002310: E7,1616  E7,1571               SECMAX             EQUALS   DELVCSI                               #  I(2) S-S MAX STOP SIZE FOR ROUTINE
002311: E7,1616  E7,1603               DELTEEO            EQUALS   POSTTPI                               #  I(2) S-S BACK VALUES OF DELTA TIME
002312: E7,1616                        CENTANG            ERASE    +1                                    #  I(2) S-S CENTRAL ANGLE COVERED(TPI-TPF)
002313:


002315:                                                                                                  #           SOME P47 STORAGE                                             (6D)
002316:
002317: E7,1620                        DELVIMU            ERASE    +5                                    #  I(6)DSP NOUN 83 FOR P47 DELTA V (IMU)
002318:
002319:
002320:                                                                                                  #           P30-P40 COMMON STORAGE.                                      (3D)
002321:
002322: E7,1626                        TPASS4             ERASE    +1                                    #  INTERCEPT TIME
002323: E7,1630                        QTEMP              ERASE                                          #  I(1)TMP COMMON RETURN SAVE REGISTER.
002324:
002325:
002326:
002327:                                                                                                  #           P32,33,34 STORAGE.                                            (6D)
002328:
002329: E7,1631                        TCSI               ERASE    +1                                    #  B(2) TMP CSI TIME IN CENTISECONDS
002330: E7,1633                        TTPI               ERASE    +1                                    #  B(2) TMP TPI TIME IN CENTISECONDS
002331: E7,1635                        TTPIO              ERASE    +1                                    #  B(2) TMP TTPI STORAGE FOR RECYCLE
002332:
002333:
002334:                                                                                                  #           P30,P40 INTERFACE.                                            (21D)
002335:
002336: E7,1637                        RTIG               ERASE    +19D                                  #  I(6)TMP
002337: E7,1663  E7,1645               VTIG               EQUALS   RTIG       +6                         #  I(6)TMP
002338: E7,1663  E7,1653               DELVSIN            EQUALS   VTIG       +6                         #  I(6)TMP
002339: E7,1663  E7,1661               DELVSAB            EQUALS   DELVSIN    +6                         #  I(2)TMP
002340: E7,1663  E7,1661               VGDISP             =        DELVSAB
002341:
002342:
002343: E7,1663                        QTEMP1             ERASE                                          #  I(1)TMP HOLDS RETURN.
002344: E7,1664  E7,1663               RGEXIT             EQUALS   QTEMP1                                #  SAVE Q
002345: E7,1664  E7,1663               SAVQR52            EQUALS   QTEMP1
002346:
002347:
002348:                                                                                                  #           INITVEL STORAGE.  (IN OVERLAY 0 AND OVERLAY 1.                (2D)
002349:                                                                                                  #                  (CALLS LAMBERT, CONIC SUBROUTINES)
002350:
002351: E7,1664  E7,1563               VTPRIME            EQUALS   VACT4                                 #  TOTAL VELOCITY AT DESIRED RADIUS
002352: E7,1664  E7,1614               ITCTR              EQUALS   RDOTV                                 #  ITERATION COUNTER
002353: E7,1664                        COZY4              ERASE    +1                                    #  COS OF ANGLE WHEN ROTATION STARTS
002354: E7,1666  E7,1607               X1INPUT            EQUALS   DELDV                                 #  X1 TEMP STORAGE
002355: E7,1666  E7,1605               INTIME             EQUALS   GAMPREV                               #  TIME OF RINIT
002356:
002357:
002358:
002359:                                                                                                  #           PERIAPO STORAGE. (2D)                                 (2D)
002360:
002361: E7,1666                        XXXALT             ERASE    +1                                    #  RADIUS TO LAUNCH PAD OR LANDING SIGHT
002362:
002363: E7,1670  E7,1670               END-IN/M           EQUALS   XXXALT     +2                         #  NEXT AVAIL ERASABLE AFTER INITVEL/MIDGIM
002364:


002366:                                                                                                  #           S40.1 STORAGE.                                               (19D)
002367:
002368: E7,1670                        BDT                ERASE    +18D                                  #  I(6) IN
002369: E7,1713  E7,1676               UT                 EQUALS   BDT        +6                         #  I(6)OUT THRUST DIRECTION
002370: E7,1713  E7,1704               VGTIG              EQUALS   UT         +6                         #  I(6)OUT
002371: E7,1713  E7,1704               VGPREV             =        VGTIG
002372:                                                                                                  #          S40.9 STORAGE.                                                (16D)
002373:
002374: E7,1713                        VG                 ERASE    +15D                                  #  I(6)TMP
002375: E7,1733  E7,1721               VRPREV             EQUALS   VG         +6                         #  I(6)TMP
002376: E7,1733  E7,1727               TNIT               EQUALS   VRPREV     +6                         #  I(2)TMP TIME SIMCE LAST CALL TO S40.9
002377: E7,1733  E7,1731               TNITPREV           EQUALS   TNIT       +2                         #  I(2)TMP PREVIOUS INIT.
002378:
002379:
002380:                                                                                                  #          P40 STORAGE.                                                  (6D)
002381:
002382:                                                                                                  #               F,MDOT,AND TDECAY MUST BE CONTIGUOUS FOR VLOAD.
002383: E7,1733                        F                  ERASE    +5                                    #  I(2)TMP  S40.1 GENERATES THIS FOR S40.3
002384: E7,1741  E7,1735               MDOT               EQUALS   F          +2                         #  I(2)TMP MASS CHNG RATE, KG/CS AT 2**3.
002385: E7,1741  E7,1737               TDECAY             EQUALS   MDOT       +2                         #  I(2)IN  DELTA-T TAILOFF, (2**28)CS.
002386: E7,1741                        VEX                ERASE    +1                                    #  I(2) EXHAUST VELOCITY FOR TGO COMPUTAT'N
002387:
002388:
002389:
002390:                                                                                                  #           MIDTOAV1(2) STORAGE.  (CALLED BY P40,P41,P42)                (1D)
002391:
002392: E7,1743                        IRETURN1           ERASE                                          #  B(1)     RETURN FROM MIDTOAV1 AND 2
002393:


002395:                                                                                                  #  ******* OVERLAY  NUMBER 1 IN EBANK 7  *******
002396:
002397:
002398:
002399:                                                                                                  #           INITVEL  (CALLED BY P34,35,38,39,10,11,S40.9,S40.1)          (6D)
002400:
002401: E7,1744  E7,1467               RTARG1             EQUALS   VACT1                                 #  I(6)S TEMP STORAGE OF RTARG
002402:
002403:
002404:                                                                                                  #           P35-P40 INTERFACE.                                           (6D)
002405:
002406: E7,1744  E7,1503               VPASS4             EQUALS   VPASS1                                #  I(6)TMP VELOCITY OF PASSIVE AT INTERCEPT
002407:
002408:
002409:                                                                                                  #           INITVEL OVERLAYS RENDESVOUS GUIDANCE (LISTED IN OVERLAY O)
002410:
002411:                                                                                                  #           SOME P38-39,P78-79 STORAGE.                                  (2D)
002412:
002413: E7,1744  E7,1626               TINT               EQUALS   TPASS4                                #  I(2) TIME OF INTERCEPT
002414:
002415:
002416:                                                                                                  #           LAT - LONG TEMPORARIES. CAN OVERLAY WITH S40.1               (3D)
002417:
002418: E7,1744  E7,1670               ERADM              EQUALS   BDT                                   #  I(2)
002419: E7,1744  E7,1672               INCORPEX           EQUALS   ERADM      +2                         #  I(1)
002420:
002421:
002422:                                                                                                  #           LRS24.1 STORAGE. (CAN SHARE WITH P30'S)                      (40D)
002423:
002424: E7,1744  E7,1673               RLMSRCH            EQUALS   INCORPEX   +1                         #  I(6) TMP LM POSITION VECTOR
002425: E7,1744  E7,1701               VXRCM              EQUALS   RLMSRCH    +6                         #  I(6)    CM V X R VECTOR
002426: E7,1744  E7,1707               LOSDESRD           EQUALS   VXRCM      +6                         #  I(6)    DESIRED LOS VECTOR
002427: E7,1744  E7,1715               UXVECT             EQUALS   LOSDESRD   +6                         #  I(6)    X-AXIS SRCH PATTERN COORDS
002428: E7,1744  E7,1723               UYVECT             EQUALS   UXVECT     +6                         #  I(6)    Y-AXIS SRCH PATTERN COORDS
002429: E7,1744  E7,1731               DATAGOOD           EQUALS   UYVECT     +6                         #  B(1)DSP FOR R1 - ALL 1-S WHEN LOCKON
002430: E7,1744  E7,1732               OMEGDISP           EQUALS   DATAGOOD   +1                         #  B(2)    ANGLE OMEGA DISPLAYED IN R2
002431: E7,1744  E7,1732               OMEGAD             =        OMEGDISP                              #          PINBALL DEFINITION.
002432: E7,1744  E7,1734               NSRCHPNT           EQUALS   OMEGDISP   +2                         #  B(1)TMP SEARCH PATTERN POINT COUNTER.
002433: E7,1744  E7,1735               SAVLEMV            EQUALS   NSRCHPNT   +1                         #  I(6)S-S SAVES LOSVEL
002434:
002435:
002436:
002437:


002439:                                                                                                  #  ******* OVERLAY NUMBER 2 IN EBANK 7  *******
002440:
002441:
002442:
002443:                                                                                                  #           INCORP STORAGE IN E7.                                        (47D)
002444:
002445: E7,1744  E7,1467               TX789              EQUALS   E7OVERLA                              #  I(6)
002446: E7,1744  E7,1475               GAMMA              EQUALS   TX789      +6                         #  I(3)
002447: E7,1744  E7,1500               OMEGA              EQUALS   GAMMA      +3                         #  I(18)
002448: E7,1744  E7,1522               BVECTOR            EQUALS   OMEGA      +18D                       #  I(18)
002449: E7,1744  E7,1544               DELTAQ             EQUALS   BVECTOR    +18D                       #  I(2)
002450:                                                                                                  #           AOTMARK STORAGE                                              (3D)
002451:
002452: E7,1744  E7,1546               MARKCNTR           EQUALS   DELTAQ     +2                         #  I(1)
002453: E7,1744  E7,1547               XYMARK             EQUALS   MARKCNTR   +1                         #  B(1)
002454: E7,1744  E7,1550               MKDEX              EQUALS   XYMARK     +1                         #  B(1)TMP INDEX FOR AOTMARK
002455:
002456:
002457:                                                                                                  #           PLANET STORAGE.                                              (8D)
002458:
002459: E7,1744  E7,1551               PLANVEC            EQUALS   MKDEX      +1                         #  (6) REFER VECTOR OF PLANET
002460: E7,1744  E7,1557               TSIGHT             EQUALS   PLANVEC    +6                         #  (2) TIME OF MARK OR EST TIME OF MARK
002461:
002462:
002463:
002464:                                                                                                  #           LRS22.3 STORAGE. (CAN SHARE WITH P30'S AND OVERLAY LRS24.1   (30D).
002465:
002466: E7,1744  E7,1673               LGRET              EQUALS   RLMSRCH                               #  I(1) TMP
002467: E7,1744  E7,1673               RDRET              EQUALS   LGRET                                 #  B(1)  TEMP RETURN.
002468: E7,1744  E7,1673               IGRET              EQUALS   LGRET                                 #  B(1)  TEMP RETURN.
002469: E7,1744  E7,1674               MX                 EQUALS   RDRET      +1                         #  I(6)
002470: E7,1744  E7,1702               MY                 EQUALS   MX         +6                         #  I(6)
002471: E7,1744  E7,1710               MZ                 EQUALS   MY         +6                         #  I(6)
002472: E7,1744  E7,1674               E0                 EQUALS   MX                                    #  I(2)
002473: E7,1744  E7,1676               E1                 EQUALS   MX         +2                         #  I(2)
002474: E7,1744  E7,1700               E2                 EQUALS   MX         +4                         #  I(2)
002475: E7,1744  E7,1702               E3                 EQUALS   E2         +2                         #  I(2)
002476: E7,1744  E7,1716               SCALSHFT           EQUALS   MZ         +6                         #  B(1) SCALE SHIFT FOR EARTH/MOON
002477: E7,1744  E7,1717               RXZ                EQUALS   SCALSHFT   +1                         #  I(2)
002478: E7,1744  E7,1721               ULC                EQUALS   RXZ        +2                         #  I(6)
002479: E7,1744  E7,1727               SINTHETA           EQUALS   ULC        +6                         #  I(2)
002480:
002481:                                                                                                  #      ***** IN OVERLAY ONE *****
002482:
002483: E7,1744  E7,1744               N49FLAG            EQUALS   RDOTMSAV                              #  B(1)S    FLAG INDICATING V0649 RESPONSE
002484:
002485:
002486:                                                                                                  #           LRS22.1 STORAGE. (MUST NOT SHARE WITH P30'S)                 (13D)
002487:
002488:                                                                                                  #           (OUTPUTS ARE TO LRS22.3)
002489:


002491: E7,1744  E7,1731               RRTRUN             EQUALS   SINTHETA   +2                         #  B(2)OUT  RR TRUNION ANGLE
002492: E7,1744  E7,1733               RRSHAFT            EQUALS   RRTRUN     +2                         #  B(2)OUT RRSHAFT ANGLE
002493: E7,1744  E7,1735               LRS22.1X           EQUALS   RRSHAFT    +2                         #  B(1)TMP
002494: E7,1744  E7,1736               RRBORSIT           EQUALS   LRS22.1X   +1                         #  I(6) TMP RADAR BORESIGHT VECTOR.
002495: E7,1744  E7,1744               RDOTMSAV           EQUALS   RRBORSIT   +6                         #  B(2) S    RR RANGE-RATE(FPS)
002496:
002497:
002498:                                                                                                  #           LRS22.1  (SAME AS PREVIOUS SECTION) ALSO DOWNLINK FOR RR  (R29)(8D) CANNOT SHARE WITH L.A.D.
002499:
002500: E7,1744  E7,1746               RDOTM              EQUALS   RDOTMSAV   +2                         #  B(2)OUT  RANGE-RATE READING
002501: E7,1744  E7,1750               TANGNB             EQUALS   RDOTM      +2                         #  B(2)TMP  RR GIMBAL ANGLES
002502:                                                                                                  #           RETAIN THE ORDER OF MKTIME TO RM FOR DOWNLINK PURPOSES
002503: E7,1744  E7,1752               MKTIME             EQUALS   TANGNB     +2                         #  B(2)OUT  TIME OF RR READING
002504: E7,1744  E7,1754               RM                 EQUALS   MKTIME     +2                         #  I(2)OUT  RANGE READING
002505:
002506:
002507:                                                                                                  #           R61LEM - PREFERRED TRACKING ATTITUDE ROUTINE  **IN OVERLAY ONE*
002508:                                                                                                  #                    (CALLED BY P20,R22LEM,LSR22.3)                      (1D)
002509:
002510: E7,1744  E7,1743               R65CNTR            EQUALS   RRBORSIT   +5                         #  B(1)SS  COUNT NUMBER OF TIMES PREFERRED
002511:                                                                                                  #          TRACKING ROUTINE IS TO CYCLE
002512:
002513:
002514:
002515:
002516:                                                                                                  #           P21 STORAGE                                                  (2D)
002517:
002518: E7,1744  E7,1756               P21TIME            EQUALS   RM         +2                         #  I(2)TMP
002519:
002520:
002521:                                                                                                  #           KALCMANU, VECPOINT STORAGE.  CALLED BY R63, R61, R65.         (12D)
002522:
002523: E7,1744  E7,1760               SCAXIS             EQUALS   P21TIME    +2                         #  I(6)
002524: E7,1744  E7,1766               POINTVSM           EQUALS   SCAXIS     +6                         #  I(6)
002525:
002526:


002528:                                                                                                  #  *******  OVERLAY NUMBER 3 IN EBANK 7  *******
002529:
002530:
002531:
002532:                                                                                                  #           SERVICER STORAGE                                             (6D)
002533:
002534: E7,1744  E7,1467               ABVEL              EQUALS   E7OVERLA                              #  B(2) DISPLAY
002535: E7,1744  E7,1471               HDOTDISP           EQUALS   ABVEL      +2                         #  B(2) DISPLAY
002536: E7,1744  E7,1473               TTFDISP            EQUALS   HDOTDISP   +2                         #  B(2) DISPLAY
002537:
002538:
002539:                                                                                                  #           BURN PROG STORAGE.                                           (2D)
002540:
002541: E7,1744  E7,1475               SAVET-30           EQUALS   TTFDISP    +2                         #  B(2)TMP TIG-30 RESTART
002542:
002543:
002544:                                                                                                  #           SERVICER STORAGE.                                            (69D)
002545:
002546: E7,1744  E7,1477               VGBODY             EQUALS   SAVET-30   +2                         #  B(6)OUT SET.BY S41.1 VG LEM, SC.COORDS
002547: E7,1744  E7,1477               DELVCTL            =        VGBODY
002548: E7,1744  E7,1505               DVTOTAL            EQUALS   VGBODY     +6                         #  B(2) DISPLAY NOUN
002549: E7,1744  E7,1507               GOBLTIME           EQUALS   DVTOTAL    +2                         #  B(2) NOMINAL TIG FOR CALC. OF GOBLATE.
002550: E7,1744  E7,1511               ABDVCONV           EQUALS   GOBLTIME   +2                         #  I(2)
002551: E7,1744  E7,1513               DVCNTR             EQUALS   ABDVCONV   +2                         #  B(1)
002552: E7,1744  E7,1514               TGO                EQUALS   DVCNTR     +1                         #  B(2)
002553: E7,1744  E7,1516               R                  EQUALS   TGO        +2                         #  I(6)
002554: E7,1744  E7,1516               UNITGOBL           EQUALS   R                                     #  I(6)
002555: E7,1744  E7,1524               V                  EQUALS   R          +6
002556: E7,1744  E7,1524               DELVREF            EQUALS   V                                     #  I(6)
002557: E7,1744  E7,1532               HCALC              EQUALS   DELVREF    +6                         #  B(2)     LR
002558: E7,1744  E7,1534               UNIT/R/            EQUALS   HCALC      +2                         #  I(6)
002559:                                                                                                  #           (THE FOLLOWING SERVICER ERASABLES CAN BE SHARED WITH SECOND DPS GUIDANCE STORAGE)
002560:
002561: E7,1744  E7,1542               RN1                EQUALS   UNIT/R/    +6                         #  B(6)
002562: E7,1744  E7,1550               VN1                EQUALS   RN1        +6                         #  I(6)                      (IN ORDER  )
002563: E7,1744  E7,1556               PIPTIME1           EQUALS   VN1        +6                         #  B(2)                      (   FOR    )
002564: E7,1744  E7,1560               GDT1/2             EQUALS   PIPTIME1   +2                         #  I(6)                      (  COPY    )
002565: E7,1744  E7,1566               MASS1              EQUALS   GDT1/2     +6                         #  I(2)                      (  CYCLE   )
002566: E7,1744  E7,1570               R1S                EQUALS   MASS1      +2                         #  I(6)
002567: E7,1744  E7,1576               V1S                EQUALS   R1S        +6                         #  I(6)
002568:
002569:
002570:                                                                                                  #           ALIGNMENT/S40.2.3 COMMON STORAGE.                            (18D)
002571:
002572: E7,1744  E7,1604               XSMD               EQUALS   V1S        +6                         #  I(6)
002573: E7,1744  E7,1612               YSMD               EQUALS   XSMD       +6                         #  I(6)
002574: E7,1744  E7,1620               ZSMD               EQUALS   YSMD       +6                         #  I(6)
002575:
002576: E7,1744  E7,1604               XSCREF             =        XSMD
002577: E7,1744  E7,1612               YSCREF             =        YSMD
002578:


002580: E7,1744  E7,1620               ZSCREF             =        ZSMD
002581:
002582: E7,1744  E7,1626               END-ALIG           EQUALS   ZSMD       +6                         #  NEXT AVAIL ERASABLE AFTER ALIGN/S40.2,3
002583:
002584:
002585:                                                                                                  #           ******   P22   ******                                        (24D)
002586:
002587: E7,1744  E7,1626               RSUBL              EQUALS   END-ALIG                              #  I(6)S-S  LM POSITION VECTOR
002588: E7,1744  E7,1634               UCSM               EQUALS   RSUBL      +6                         #  I(6)S-S  VECTOR U
002589: E7,1744  E7,1642               NEWVEL             EQUALS   UCSM       +6                         #  I(6)S-S  TERMINAL VELOCITY VECTOR
002590: E7,1744  E7,1650               NEWPOS             EQUALS   NEWVEL     +6                         #  I(6)S-S  TERMINAL POSITION VECTOR
002591: E7,1744  E7,1656               LNCHTM             EQUALS   NEWPOS     +6                         #  I(2)S-S EST. LAUNCH TIME FOR LEM
002592: E7,1744  E7,1660               TRANSTM            EQUALS   LNCHTM     +2                         #  I(2)S-S TRANSFER TIME
002593: E7,1744  E7,1662               NCSMVEL            EQUALS   TRANSTM    +2                         #  I(6)S-S NEW CSM VELOCITY
002594:


002596:                                                                                                  #  *******  OVERLAY NUMBER 4 IN EBANK 7  *******
002597:
002598:
002599:                                                                                                  #           AUTO-OPTICS STORAGE.  -R52-                                  (1)
002600:
002601: E7,1744  E7,1467               XNB1               =        WHOCARES                              #  THESE WHOCARES THINGS ARE REFERENCED.
002602: E7,1744  E7,1467               YNB1               =        WHOCARES                              #  BUT NOT USED IN SUNDANCE
002603: E7,1744  E7,1467               ZNB1               =        WHOCARES
002604:
002605:
002606:                                                                                                  #  VARIABLES FOR SECOND DPS GUIDANCE (THE LUNAR LANDING)                 (84D)
002607:
002608:                                                                                                  #  THESE ERASABLES MAY BE SHARED WITH CARE
002609:
002610: E7,1744  E7,1542               OURTEMPS           =        RN1                                   #  OVERLAY LAST PART OF SERVICER
002611: E7,1744  E7,1542               LANDTEMP           =        OURTEMPS                              #  B(6)     GUIDANCE
002612: E7,1744  E7,1550               TTF/8TMP           =        LANDTEMP   +6                         #  B(2)    GUIDANCE
002613: E7,1744  E7,1552               ELINCR             =        TTF/8TMP   +2                         #  B(2)    GUIDANCE
002614: E7,1744  E7,1554               AZINCR             =        ELINCR     +2                         #  B(2)    GUIDANCE
002615: E7,1744  E7,1556               KEEP-2             =        AZINCR     +2                         #  B(2)    TO PREVENT PIPTIME1 OVERLAY
002616: E7,1744  E7,1560               TABLTTF            =        KEEP-2     +2                         #  B(2)    GUIDANCE
002617: E7,1744  E7,1571               TPIPOLD            =        TABLTTF    +9D                        #  B(2)    GUIDANCE
002618: E7,1744  E7,1573               /AFC/              =        TPIPOLD    +2                         #  B(2)    GUIDANCE AND  THROTTLE
002619:
002620:
002621:
002622:                                                                                                  #  (ERASABLES WHICH OVERLAP WITH THE ABOVE BLOCK)
002623:
002624: E7,1744  E7,1560               FCODD              =        TABLTTF                               #  B(2)    THROTTLE
002625: E7,1744  E7,1562               FP                 =        FCODD      +2                         #  B(2)    THROTTLE
002626: E7,1744  E7,1617               E2DPS              EQUALS   OURPERMS
002627:
002628:
002629:
002630:                                                                                                  #  THESE ERASABLES MUST NOT OVERLAY GOBLTIME OR SERVICER
002631: E7,1744  E7,1604               PIFPSET            =        XSMD                                  #  B(1)    THROTTLE
002632: E7,1744  E7,1605               RTNHOLD            =        PIFPSET    +1                         #  B(1)    THROTTLE
002633: E7,1744  E7,1606               FWEIGHT            =        RTNHOLD    +1                         #  B(2)    THROTTLE
002634: E7,1744  E7,1610               PIF                =        FWEIGHT    +2                         #  B(2)   THROTTLE
002635: E7,1744  E7,1612               PSEUDO55           =        PIF        +2                         #  B(1)   THROTTLE DOWNLINK
002636: E7,1744  E7,1613               FC                 =        PSEUDO55   +1                         #  B(2)    THROTTLE
002637: E7,1744  E7,1615               TTHROT             =        FC         +2                         #  B(1)    THROTTLE
002638: E7,1744  E7,1616               FCOLD              =        TTHROT     +1                         #  B(1)    THROTTLE
002639:
002640:
002641:
002642:                                                                                                  #  THESE ERASABLES SHOULD NOT BE SHARED DURING P63, P64, P65, P66, P67
002643:
002644: E7,1744  E7,1617               OURPERMS           =        FCOLD      +1                         #  MUSTN'T OVERLAY OURTEMPS OR SERVICER
002645: E7,1744  E7,1617               WCHPHOLD           =        OURPERMS                              #  B(1)    GUIDANCE
002646:


002648: E7,1744  E7,1620               WCHPHASE           =        WCHPHOLD   +1                         #  B(1)    GUIDANCE
002649: E7,1744  E7,1621               FLPASS0            =        WCHPHASE   +1                         #  B(1)    GUIDANCE
002650: E7,1744  E7,1622               TPIP               =        FLPASS0    +1                         #  B(2)
002651: E7,1744  E7,1624               VGU                =        TPIP       +2                         #  B(6)    GUIDANCE
002652: E7,1744  E7,1632               LAND               =        VGU        +6                         #  B(6)    GUIDANCE    CONTIGUOUS
002653: E7,1744  E7,1640               TTF/8              =        LAND       +6                         #  B(2)    GUIDANCE     CONTIGUOUS
002654: E7,1744  E7,1642               ELINCR1            =        TTF/8      +2                         #  B(1)    GUIDANCE
002655: E7,1744  E7,1643               AZINCR1            =        ELINCR1    +1                         #  B(1)     GUIDANCE
002656: E7,1744  E7,1644               ZERLINA            =        AZINCR1    +1                         #  B(1)     GUIDANCE
002657: E7,1744  E7,1645               ELVIRA             =        ZERLINA    +1                         #  B(1)     GUIDANCE
002658: E7,1744  E7,1646               LRADRET            =        ELVIRA     +1                         #  B(1)    LR
002659: E7,1744  E7,1647               VSELECT            =        LRADRET    +1                         #  B(1)    LR
002660: E7,1744  E7,1650               VMEAS              =        VSELECT    +1                         #  B(2)    LR
002661: E7,1744  E7,1652               HMEAS              =        VMEAS      +2                         #  B(2)    LR
002662: E7,1744  E7,1654               VN2                =        HMEAS      +2                         #  B(6)    LR
002663: E7,1744  E7,1654               GNUR               =        VN2                                   #  B(6)     LR
002664: E7,1744  E7,1654               GNUV               =        VN2                                   #  B(6)     LR
002665: E7,1744  E7,1654               LRADRET1           =        VN2                                   #  B(1)     LR
002666: E7,1744  E7,1662               DELTAH             =        VN2        +6                         #  B(2)    DISPLAY
002667: E7,1744  E7,1664               FUNNYDSP           =        DELTAH     +2                         #  B(2)    DISPLAY
002668: E7,1744  E7,1666               EOURPERM           EQUALS   FUNNYDSP   +2                         #  NEXT AVAILABLE ERASABLE AFTER OURPERMS
002669:
002670:
002671:                                                                                                  #  (ERASABLES WHICH OVERLAY THE ABOVE BLOCK)
002672:
002673: E7,1744  E7,1642               VDGVERT            =        ELINCR1                               #  B(2)    P65,66
002674: E7,1744  E7,1644               NIGNLOOP           =        ZERLINA                               #  B(1)    IGNALG
002675: E7,1744  E7,1645               NGUIDSUB           =        ELVIRA                                #  B(1)    IGNALG
002676: E7,1744  E7,1644               RODCOUNT           =        ZERLINA                               #  B(1)    P66
002677: E7,1744  E7,1645               WCHVERT            =        ELVIRA                                #  B(1)    P65,66,67
002678: E7,1744  E7,1664               FUELNEED           =        FUNNYDSP                              #  B(1)    DISPLAY
002679: E7,1744  E7,1664               TREDES             =        FUNNYDSP                              #  B(1)    DISPLAY
002680: E7,1744  E7,1665               LOOKANGL           =        FUNNYDSP   +1                         #  B(1)    DISPLAY
002681:
002682:
002683:                                                                                                  #  ERASABLES CONVENIENTLY DEFINABLE IN THE WORK AREA
002684:
002685: E7,1744                        PROJ               =        18D                                   #  I(2)    GUIDANCE
002686: E7,1744                        UNLRB/2            =        20D                                   #  I(6)    GUIDANCE (DURING P64 ONLY)
002687: E7,1744                        UNLR/2             =        20D                                   #  I(6)    GUIDANCE
002688:
002689:
002690:                                                                                                  #  THE END OF THE LUNAR LANDING ERASABLES
002691:
002692:
002693:
002694:                                                                                                  #           R12    (FOR LUNAR LANDING)                                   (6D)
002695:
002696: E7,1744  E7,1666               LRLCTR             EQUALS   EOURPERM                              #  B(1) LR DATA TEST
002697: E7,1744  E7,1667               LRRCTR             EQUALS   LRLCTR     +1                         #  B(1)
002698:


002700: E7,1744  E7,1670               LRMCTR             EQUALS   LRRCTR     +1                         #  B(1)
002701: E7,1744  E7,1671               LRSCTR             EQUALS   LRMCTR     +1                         #  B(1)
002702: E7,1744  E7,1672               STILBADH           EQUALS   LRSCTR     +1                         #  B(1)
002703: E7,1744  E7,1673               STILBADV           EQUALS   STILBADH   +1                         #  B(1)
002704:
002705:
002706:
002707:                                                                                                  #           LANDING ANALOGS DISPLAY STORAGE.                             (40D)
002708:
002709: E7,1744  E7,1674               LATVMETR           EQUALS   STILBADV   +1                         #  B(1)PRM LATVEL MONITOR METER  (AN ORDER)
002710: E7,1744  E7,1675               FORVMETR           EQUALS   LATVMETR   +1                         #  B(1)PRM FORVEL MONITOR METER  (-ED PAIR)
002711: E7,1744  E7,1676               LATVEL             EQUALS   FORVMETR   +1                         #  B(1)PRM LATERAL VELOCITY   (AN ORDER)
002712: E7,1744  E7,1677               FORVEL             EQUALS   LATVEL     +1                         #  B(1)PRM FORWARD VELOCITY   (-ED PAIR)
002713: E7,1744  E7,1700               TRAKLATV           EQUALS   FORVEL     +1                         #  B(1)PRM MONITOR FLG 4 LATVEL  (AN ORDER)
002714: E7,1744  E7,1701               TRAKFWDV           EQUALS   TRAKLATV   +1                         #  B(1)PRM MONIT. FLAG FOR FORVEL (ED PAIR)
002715: E7,1744  E7,1702               VHY                EQUALS   TRAKFWDV   +1                         #  B(1)PRM VHY=VMP.UHYP   (AN ORDER)
002716: E7,1744  E7,1703               VHZ                EQUALS   VHY        +1                         #  B(1)PRM VHZ=VMP.UHZP   (-ED PAIR)
002717: E7,1744  E7,1704               VVECT              EQUALS   VHZ        +1                         #  B(3)PRM UPDATED S.P. VELOCITY VECTOR
002718: E7,1744  E7,1707               ALTRATE            EQUALS   VVECT      +3                         #  B(1)PRM ALTITUDE RATE IN BIT UNITS
002719: E7,1744  E7,1710               ALTSAVE            EQUALS   ALTRATE    +1                         #  B(2)PRM ALTITUDE IN BIT UNITS
002720: E7,1744  E7,1712               LADQSAVE           EQUALS   ALTSAVE    +2                         #  B(1)PRM SAVE Q IN LANDISP
002721: E7,1744  E7,1713               DT                 EQUALS   LADQSAVE   +1                         #  B(1)PRM TIME 1 MINUS (PIPTIME +1)
002722: E7,1744  E7,1714               DALTRATE           EQUALS   DT         +1                         #  B(1)PRM ALTITUDE RATE ERROR CORRECTION
002723: E7,1744  E7,1715               UHYP               EQUALS   DALTRATE   +1                         #  B(6)PRM SM UNIT VECTOR
002724: E7,1744  E7,1715               QAXIS              =        UHYP
002725: E7,1744  E7,1723               UHZP               EQUALS   UHYP       +6                         #  B(6)PRM SM UNIT VECTOR
002726: E7,1744  E7,1731               DELVS              EQUALS   UHZP       +6                         #  B(6)PRM DELVS = WMXR
002727: E7,1744  E7,1737               ALTBITS            EQUALS   DELVS      +6                         #  B(2)PRM ALTITUDE IN BIT UNITS, 2.34FT/BT
002728: E7,1744  E7,1741               RUNIT              EQUALS   ALTBITS    +2                         #  B(3)PRM SM HALF-UNIT R VECTOR
002729: E7,1744  E7,1743               LASTLADW           EQUALS   RUNIT      +2                         #  ONLY A TAG TO SIGNIFY LAST L.A.D. WORD
002730:
002731:


002733:                                                                                                  #  *******  OVERLAY NUMBER 5 IN EBANK 7  *******
002734:
002735:
002736:
002737:                                                                                                  #           ASCENT GUIDANCE ERASABLES.                                   (23D)
002738:
002739: E7,1744  E7,1626               RCO                EQUALS   END-ALIG                              #  I(2)TMP  TARGET RADIUS AND OUT-OF-PLANE
002740: E7,1744  E7,1630               YCO                EQUALS   RCO        +2                         #  I(2)TMP  DISTANCE, SCALED AT 2(24).
002741: E7,1744  E7,1632               1/DV1              EQUALS   YCO        +2                         #  B(2)TMP  ATMAG
002742: E7,1744  E7,1634               1/DV2              EQUALS   1/DV1      +2                         #  B(2)TMP  ATMAG
002743: E7,1744  E7,1636               1/DV3              EQUALS   1/DV2      +2                         #  B(2)TMP  ATMAG
002744: E7,1744  E7,1640               XRANGE             EQUALS   1/DV3      +2                         #  B(2)TMP
002745: E7,1744  E7,1642               APO                EQUALS   XRANGE     +2                         #  B(2)TMP  APOLUNE ALTITUDE DESIRED - M.
002746:                                                                                                  #           SCALED AT 2(2().
002747:
002748: E7,1744  E7,1644               ENGOFFDT           EQUALS   APO        +2                         #  B(1)TMP PROTECTION OFENGOFF1 CALL
002749: E7,1744  E7,1645               VGVECT             EQUALS   ENGOFFDT   +1                         #  I(6)OUT  VELOCITY-TO-BE-GAINED
002750: E7,1744  E7,1653               TXO                EQUALS   VGVECT     +6                         #  I(2)TMP  TIME AT WHICH X-AXIS OVERRIDE
002751:                                                                                                  #  IS ALLOWED.
002752:
002753:                                                                                                  #  END OF THE ASCENT GUIDANCE ERASABLES.
002754:
002755:                                                                                                  #  THE FOLLOWING CARDS KEEP THE ASSEMBLER HAPPY UNTIL THE SYMBOLS ARE DELETED FROM THE PINBALL NOUN TABLES.
002756:
002757: E7,1744  E7,1744               END-E7.0           EQUALS   IRETURN1   +1                         #  FIRST UNUSED LOCATION IN E7 OVERLAY 0
002758: E7,1744  E7,1745               END-E7.1           EQUALS   N49FLAG    +1                         #  FIRST UNUSED LOCATION IN E7 OVERLAY 1
002759: E7,1744  E7,1774               END-E7.2           EQUALS   POINTVSM   +6                         #  FIRST UNUSED LOCATION IN E7 OVERLAY 2
002760: E7,1744  E7,1626               END-E7.3           EQUALS   END-ALIG                              #  FIRST UNUSED LOCATION IN E7 OVERLAY 3
002761: E7,1744  E7,1744               END-E7.4           EQUALS   LASTLADW   +1                         #  FIRST UNUSED LOCATION IN E7 OVERLAY 4
002762: E7,1744  E7,1655               END-E7.5           EQUALS   TXO        +2                         #  FIRST UNUSED LOCATION IN E7 OVERLAY 5
002763: E7,1744                        END-E7             EQUALS   3777                                  #  **LAST LOCATION USED IN E7 **

End of include-file ERASABLE_ASSIGNMENTS.agc.  Parent file is MAIN.agc


