
Source Code


000002:                                                                                                  ## Copyright:   Public domain.
000003:                                                                                                  ## Filename:    EXTENDED_VERBS.agc
000004:                                                                                                  ## Purpose:     The main source file for Luminary revision 069.
000005:                                                                                                  ##              It is part of the source code for the original release
000006:                                                                                                  ##              of the flight software for the Lunar Module's (LM) Apollo
000007:                                                                                                  ##              Guidance Computer (AGC) for Apollo 10. The actual flown
000008:                                                                                                  ##              version was Luminary 69 revision 2, which included a
000009:                                                                                                  ##              newer lunar gravity model and only affected module 2.
000010:                                                                                                  ##              This file is intended to be a faithful transcription, except
000011:                                                                                                  ##              that the code format has been changed to conform to the
000012:                                                                                                  ##              requirements of the yaYUL assembler rather than the
000013:                                                                                                  ##              original YUL assembler.
000014:                                                                                                  ## Reference:   pp. 277-315
000015:                                                                                                  ## Assembler:   yaYUL
000016:                                                                                                  ## Contact:     Ron Burkey <info@sandroid.org>.
000017:                                                                                                  ## Website:     www.ibiblio.org/apollo/index.html
000018:                                                                                                  ## Mod history: 2016-12-13 MAS  Created from Luminary 99.
000019:                                                                                                  ##              2017-01-11 HG   Transcribed
000020:                                                                                                  ##              2017-01-23 HG   Remove SBANK= Workaround. Not needed in this version
000021:                                                                                                  ##              2017-01-25 RSB  Proofed comment text using octopus/prooferComments
000022:                                                                                                  ##                              and fixed errors found.
000023:                                                                                                  ##              2017-03-17 RSB  Comment-text fixes identified in diff'ing
000024:                                                                                                  ##                              Luminary 99 vs Comanche 55.
000025:


000027: 07,2667                                           BANK     7
000028: 43,2000                                           SETLOC   EXTVERBS
000029: 43,2000                                           BANK
000030:
000031: 43,2000  E5,1737                                  EBANK=   OGC
000032:
000033: 43,2000                                           COUNT*   $$/EXTVB
000034:                                                                                                  #  FAN-OUT
000035:
000036: 43,2000           50154        GOEXTVB            INDEX    MPAC                                  #  VERB-40 IS IN MPAC
000037: 43,2001           02002                           TC       LST2FAN                               #  FAN AS BEFORE.
000038:
000039: 43,2002           02130        LST2FAN            TC       VBZERO                                #  VB40 ZERO (USED WITH NOUN 20 OR 72 ONLY)
000040: 43,2003           02171                           TC       VBCOARK                               #  VB41 COARSE ALIGN (USED WITH NOUN 20 OR
000041:                                                                                                  #                                  72 ONLY)
000042: 43,2004           02340                           TC       IMUFINEK                              #  VB42 FINE ALIGN IMU
000043: 43,2005           02717                           TC       IMUATTCK                              #  VB43  LOAD IMU ATTITUDE ERROR METERS.
000044: 43,2006           02302                           TC       RRDESEND                              #  VB44 TERMINATE CONTINUOUS DESIGNATE
000045: 43,2007           02120                           TC       ALM/END                               #  VB45 SPARE
000046: 43,2010           02120                           TC       ALM/END                               #  VB46 SPARE
000047: 43,2011           02377                           TC       V47TXACT                              #  VB47 AGS INITIALIZATION
000048: 43,2012           03143                           TC       DAPDISP                               #  VB48  LOAD A/P DATA
000049: 43,2013           13025                           TCF      CREWMANU                              #  VB49 START AUTOMATIC ATTITUDE MANEUVER
000050: 43,2014           02371                           TC       GOLOADLV                              #  VB50 PLEASE PERFORM
000051: 43,2015           02120                           TC       ALM/END                               #  VB51 SPARE
000052: 43,2016           02371                           TC       GOLOADLV                              #  VB52 PLEASE MARK X - RETICLE.
000053: 43,2017           02371                           TC       GOLOADLV                              #  VB53 PLEASE MARK Y - RETICLE.
000054: 43,2020           02371                           TC       GOLOADLV                              #  VB54 PLEASE MARK X OR Y - RETICLE
000055: 43,2021           02411                           TC       ALINTIME                              #  VB55 ALIGN TIME
000056: 43,2022           03034                           TC       TRMTRACK                              #  VB56 TERMINATE TRACKING - P20 + P25
000057: 43,2023           02322                           TC       LRON                                  #  VB57 PERMIT  LANDING RADAR UPDATES
000058: 43,2024           02325                           TC       LROFF                                 #  VB58 INHIBIT LANDING RADAR UPDATES
000059: 43,2025           02120                           TC       ALM/END                               #  VB59 SPARE
000060: 43,2026           02151                           TC       LRPOS2K                               #  VB60 COMMAND LR TO POSITION 2.
000061: 43,2027           02163                           TC       DAPATTER                              #  VB61 DISPLAY DAP ATTITUDE ERROR
000062: 43,2030           02166                           TC       TOTATTER                              #  VB62 DISPLAY TOTAL ATTITUDE ERROR
000063: 43,2031           02424                           TC       R04                                   #  VB63 SAMPLE RADAR ONCE PER SECOND
000064: 43,2032           02710                           TC       VB64                                  #  VB64 CALCULATE,DISPLAY S-BAND ANT ANGLES
000065: 43,2033           03227                           TC       SNUFFOUT                              #  VB65 DISABLE U,V JETS DURING DPS BURNS.
000066: 43,2034           03150                           TC       ATTACHED                              #  VB66 ATTACHED   MOVE THIS TO OTHER STATE
000067: 43,2035           03221                           TC       V67                                   #  VB67 W MATRIX MONITOR
000068: 43,2036           02330                           TC       P64NOW                                #  VB68 START P64 IMMEDIATELY.
000069: 43,2037           02037        VERB69             TC       VERB69                                #  VB69 FORCE A HARDWARE RESTART
000070: 43,2040           03732                           TC       V70UPDAT                              #  VB70 UPDATE LIFTOFF TIME.
000071: 43,2041           03734                           TC       V71UPDAT                              #  VB71 UNIVERSAL UPDATE - BLOCK ADDRESS.
000072: 43,2042           03736                           TC       V72UPDAT                              #  VB72 UNIVERSAL UPDATE - SINGLE ADDRESS.
000073: 43,2043           03740                           TC       V73UPDAT                              #  VB73 UPDATE AGC TIME (OCTAL).
000074: 43,2044           03053                           TC       DNEDUMP                               #  VB74 INITIALIZE DOWN-TELEMETRY PROGRAM
000075:                                                                                                  #         FOR ERASABLE DUMP.
000076: 43,2045           03232                           TC       OUTSNUFF                              #  VB75 ENABLE U,V JETS DURING DPS BURNS.
000077:


000079: 43,2046           03011                           TC       MINIMP                                #  VB76 MINIMUM IMPULSE MODE
000080: 43,2047           03016                           TC       NOMINIMP                              #  VB77 RATE COMMAND MODE
000081: 43,2050           02414                           TC       R77                                   #  VB78 START LR SPURIOUS RETURN TEST
000082: 43,2051           02627                           TC       R77END                                #  VB79 TERMINATE LR SPURIOUS RETURN TEST
000083: 43,2052           03057                           TC       LEMVEC                                #  VB80 UPDATE LEM STATE VECTOR
000084: 43,2053           03062                           TC       CSMVEC                                #  VB81 UPDATE CSM STATE VECTOR
000085: 43,2054           02756                           TC       V82PERF                               #  VB82 REQUEST ORBIT PARAM DISPLAY (R30)
000086: 43,2055           02766                           TC       V83PERF                               #  VB83 REQUEST REND PARAM DISPLAY (R31)
000087: 43,2056           02120                           TC       ALM/END                               #  VB84 SPARE
000088: 43,2057           03235                           TC       VERB85                                #  VB85 DISPLAY RR LOS AZ AND ELEV
000089: 43,2060           02120                           TC       ALM/END                               #  VB86 SPARE
000090: 43,2061           02120                           TC       ALM/END                               #  VB87 SPARE
000091: 43,2062           02120                           TC       ALM/END                               #  VB88 SPARE
000092: 43,2063           02774                           TC       V89PERF                               #  VB89 ALIGN XORZ LEM AXIS ALONG LOS (R63)
000093: 43,2064           03003                           TC       V90PERF                               #  VB90 OUT OF PLANE RENDEZVOUS DISPLAY
000094: 43,2065           03106                           TC       GOSHOSUM                              #  VB91 DISPLAY BANK SUM.
000095: 43,2066           03072                           TC       SYSTEST                               #  VB92 OPERATE IMU PERFORMANCE TEST.
000096: 43,2067           03101                           TC       WMATRXNG                              #  VB93 CLEAR RENDWFLG
000097: 43,2070           02120                           TC       ALM/END                               #  VB94 SPARE
000098: 43,2071           03067                           TC       UPDATOFF                              #  VB95 NO STATE VECTOR UPDATE ALLOWED
000099: 43,2072           03214                           TC       VERB96                                #  VB96 INTERRUPT INTEGRATION AND GO TO POO
000100: 43,2073           02371                           TC       GOLOADLV                              #  VB97 PLEASE VERIFY ENGINE FAILURE
000101: 43,2074           02120                           TC       ALM/END                               #  VB98 SPARE
000102: 43,2075           02371                           TC       GOLOADLV                              #  VB99 PLEASE ENABLE ENGINE
000103:
000104:                                                                                                  #  END OF EXTENDED VERB FAN
000105:
000106: 43,2076           11044        TESTXACT           CCS      EXTVBACT                              #  ARE EXTENDED VERBS BUSY
000107: 43,2077           02120                           TC       ALM/END                               #  YES, TURN ON OPERATOR LIGHT
000108: 43,2100           30100                           CA       FLAGWRD4                              #  ARE PRIORITY DISPLAYS USING DSKY
000109: 43,2101           72127                           MASK     OC24100
000110: 43,2102           10000                           CCS      A
000111: 43,2103           02120                           TC       ALM/END                               #  YES
000112: 43,2104           36007                           CAF      OCT24                                 #  SET BITS 3 AND 5
000113: 43,2105           55044        SETXTACT           TS       EXTVBACT                              #  NO. SET FLAG TO SHOW EXT VERB DISPLAY
000114:                                                                                                  #  SYSTEM BUSY
000115:
000116: 43,2106           30002                           CA       Q
000117: 43,2107           54155                           TS       MPAC       +1
000118:
000119: 43,2110           44752                           CS       TWO                                   #  BLANK EVERYTHING EXCEPT MM AND VERB
000120: 43,2111           04154                           TC       NVSUB
000121: 43,2112           02113                           TC       +1
000122: 43,2113           00155                           TC       MPAC       +1
000123:
000124: 43,2114           04364        XACTALM            TC       FALTON                                #  TURN ON OPERATOR ERROR LIGHT.
000125: 43,2115           05472                           TC       ENDEXT                                #  RELEASE MARK AND EXT. VERB DISPLAY SYS.
000126:
000127: 43,2116     5472               TERMEXTV           EQUALS   ENDEXT
000128:


000130: 43,2116     5472               ENDEXTVB           EQUALS   ENDEXT
000131:
000132: 43,2116           34755        XACT0              CAF      ZERO                                  #  RELEASE MARK AND EXT. VERB DISPLAY SYS.
000133: 43,2117           02105                           TC       SETXTACT
000134:
000135: 43,2120           04364        ALM/END            TC       FALTON                                #  TURN ON OPERATOR ERROR LIGHT
000136: 43,2121           04635        GOPIN              TC       POSTJUMP
000137: 43,2122           20723                           CADR     PINBRNCH
000138:
000139: 43,2123           31011        CHKPOOH            CA       MODREG                                #  CHECK FOR POO OR POO-.
000140: 43,2124           00006                           EXTEND
000141: 43,2125           16741                           BZF      TCQ
000142: 43,2126           02120                           TC       ALM/END
000143:
000144: 43,2127           24100        OC24100            OCT      24100
000145:


000147:                                                                                                  #           VBZERO       VERB 40            DESCRIPTION
000148:
000149:                                                                                                  #               1. REQUIRE NOUN 20 (ICDU ANGLES) OR NOUN 72 (RCDU ANGLES).
000150:                                                                                                  #              2. FOR N20, CHECK IMUCADR IN AN EFFORT TO AVOID A 1210 RESTART.
000151:                                                                                                  #                 FOR N72, CHECK IF EITHER RADAR IS IN USE.
000152:                                                                                                  #               3. EXECUTE THE CDU ZERO.
000153:                                                                                                  #               4. STALL UNTILL THE ZERO IS DONE.
000154:                                                                                                  #               5. DON'T DIFFERENIATE BETWEEN A BAD OR GOOD RETURN.
000155:                                                                                                  #               6. EXIT, RE-ESTABLISHING THE INTERRUPTED DISPLAY (IF ANY).
000156:
000157: 43,2130           02174        VBZERO             TC       OP/INERT
000158: 43,2131           02133                           TC       IMUZEROK                              #  RETURN HERE IF NOUN = ICDU(20)
000159: 43,2132           02142                           TC       RRZEROK                               #  RETURN HERE IF NOUN = RCDU(72)
000160: 43,2133           02405        IMUZEROK           TC       CKMODCAD
000161: 43,2134           04616                           TC       BANKCALL                              #  KEYBOARD REQ FOR ISS CDUZERO
000162: 43,2135           16667                           CADR     IMUZERO
000163:
000164: 43,2136           04616                           TC       BANKCALL                              #  STALL
000165: 43,2137           17671                           CADR     IMUSTALL
000166: 43,2140           02141                           TC       +1
000167:
000168: 43,2141           02121                           TC       GOPIN                                 #  IMUZERO
000169:
000170: 43,2142           02652        RRZEROK            TC       RDRUSECK
000171: 43,2143           04616                           TC       BANKCALL
000172: 43,2144           52343                           CADR     RRZERO
000173:
000174: 43,2145           04616        RWAITK             TC       BANKCALL
000175: 43,2146           17667                           CADR     RADSTALL
000176: 43,2147           12150                           TCF      +1
000177: 43,2150           02121                           TC       GOPIN                                 #  RRZERO
000178:
000179:                                                                                                  #           LRPOS2K     VERB 60             DESCRIPTION
000180:                                                                                                  #               COMMAND LANDING RADAR TO POSITION 2
000181:                                                                                                  #              1. EXIT WITH OP ERROR IF SOMEONE IS USING EITHER RADAR.
000182:                                                                                                  #               2. ALARM WITH CODE 523 IF POS 2 IS NOT INDICATED WITHIN
000183:                                                                                                  #                  THE PRESCRIBED TIME.
000184:                                                                                                  #               3. RE-ESTABLISH THE DISPLAYS.
000185:
000186: 43,2151           02652        LRPOS2K            TC       RDRUSECK
000187: 43,2152           04616                           TC       BANKCALL                              #  COMMAND LR TO POSITION 2
000188: 43,2153           53471                           CADR     LRPOS2
000189: 43,2154           04616                           TC       BANKCALL
000190: 43,2155           17667                           CADR     RADSTALL
000191: 43,2156           02160                           TC       LRP2ALM
000192: 43,2157           02121                           TC       GOPIN
000193:
000194: 43,2160           05567        LRP2ALM            TC       ALARM
000195: 43,2161           00523                           OCT      523
000196: 43,2162           02121                           TC       GOPIN
000197:


000199:
000200:                                                                                                  #  V61      VERB 61, DISPLAY DAP ATTITUDE ERRORS ON FDAI ATTITUDE ERROR NEEDLES.
000201:
000202: 43,2163           05516        DAPATTER           TC       DOWNFLAG
000203: 43,2164           00013                           ADRES    NEEDLFLG
000204: 43,2165           02121                           TC       GOPIN
000205:
000206:                                                                                                  #  V62      VERB 62, DISPLAY TOTAL ATTITUDE ERRORS ON FDAI ATTITUDE ERROR NEEDLES.
000207:
000208: 43,2166           05504        TOTATTER           TC       UPFLAG
000209: 43,2167           00013                           ADRES    NEEDLFLG
000210: 43,2170           02121                           TC       GOPIN
000211:


000213:                                                                                                  #           VBCOARK      VERB 41            DESCRIPTION
000214:                                                                                                  #               COARSE ALIGN IMU OR RADAR
000215:                                                                                                  #              1. REQUIRE NOUN 20 OR NOUN 72 OR TURN ON OPERATOR ERROR.
000216:                                                                                                  #               2. REQUIRE EXT VERB DISPLAY SYS AVAILABLE OR TURN ON OPERATOR ERROR LIGHT AND GO TO PINBRNCH.
000217:                                                                                                  #               CASE 1     NOUN 20     (ICDU ANGLES)
000218:                                                                                                  #               3. SET EXT VERB DISPLAY ACTIVE FLAG.
000219:                                                                                                  #               4. DISPLAY FLASHING V25,N22 (LOAD NEW ICDU ANGLES).
000220:                                                                                                  #                  RESPONSES
000221:                                                                                                  #                    A. TERMINATE
000222:                                                                                                  #                       1. RELEASE EXT VERB DISPLAY SYSTEM
000223:                                                                                                  #                    B. PROCEED
000224:                                                                                                  #                      1. COARSE ALIGN TO THE EXISTING THETAD'S (ICORK2).
000225:                                                                                                  #                    C. ENTER
000226:                                                                                                  #                      1. COARSE ALIGN TO THE LOADED THETAD'S (ICORK2).
000227:                                                                                                  #               ICORK2
000228:                                                                                                  #                  1. RE-DISPLAY VERB 41.
000229:                                                                                                  #                  2. EXECUTE IMUCOARS (IMU COARSE ALIGN).
000230:                                                                                                  #                  3. EXECUTE IMUSTALL (ALLOW TIME FOR DATA TRANSFER).
000231:                                                                                                  #                  4. RELEASE EXT VERB DISPLAY SYSTEM.
000232:                                                                                                  #               CASE 2     NOUN 72     (RCDU ANGLES)
000233:                                                                                                  #                 EXIT WITH OP ERROR IF SOMEONE IS USING EITHER RADAD.
000234:                                                                                                  #               5. DISPLAY FLASHING V24,N73 (LOAD NEW RR TRUNION ANGLE AND NEW SHAFT ANGLE).
000235:                                                                                                  #                  RESPONSES
000236:                                                                                                  #                  A. TERMINATE
000237:                                                                                                  #                     1. RELEASE EXT VERB DISPLAY SYS.
000238:                                                                                                  #                  B. PROCEED OR ENTER
000239:                                                                                                  #                     1. EXECUTE AURLOKON (ASK OPERATOR FOR LOCK-ON REQUIREMENTS).
000240:                                                                                                  #                     2. RE-DISPLAY VERB 41.
000241:                                                                                                  #                     3. SCHEDULE RRDESK2 WITH PRIORITY 20.
000242:                                                                                                  #                     4. RELEASE EXT VERB DISPLAY SYS.
000243:
000244:                                                                                                  #                  AURLOKON
000245:
000246:                                                                                                  #                 1. FLASH V04 N12 R1 = 00006 R2 = 00002
000247:                                                                                                  #                     RESPONSES
000248:                                                                                                  #                     A. TERMINATE
000249:                                                                                                  #                     B. PROCEED
000250:                                                                                                  #                       1. RESET LOCK-ON SWITCH
000251:                                                                                                  #                       2. SET CONTINUOUS DESIGNATE FLAG
000252:                                                                                                  #                       3. DISABLE R25
000253:                                                                                                  #                    C. V22 E 1 E, R1 = 00001, PROCEED
000254:                                                                                                  #                       1. SET LOCK-ON SWITCH
000255: 43,2171           02174        VBCOARK            TC       OP/INERT
000256: 43,2172           02205                           TC       IMUCOARK                              #  RETURN HERE IF NOUN = ICDU (20)
000257: 43,2173           02227                           TC       RRDESNBK                              #  RETURN HERE IF NOUN = RCDU (72)
000258:                                                                                                  #           RETURNS TO L+1 IF IMU OR L+2 IF RR.
000259:
000260: 43,2174           46007        OP/INERT           CS       OCT24
000261: 43,2175           61002                           AD       NOUNREG
000262: 43,2176           00006                           EXTEND
000263:


000265: 43,2177           16741                           BZF      TCQ                                   #  IF = 20.
000266:
000267: 43,2200           62204                           AD       RRIMUDIF                              #  -52
000268: 43,2201           00006                           EXTEND
000269: 43,2202           16736                           BZF      Q+1
000270:
000271: 43,2203           02120                           TC       ALM/END                               #  ILLEGAL.
000272:
000273: 43,2204           77713        RRIMUDIF           DEC      -52        B-14                       #  THE IMU
000274: 43,2205           02405        IMUCOARK           TC       CKMODCAD
000275: 43,2206           02076                           TC       TESTXACT                              #  COARSE ALIGN FROM KEYBOARD.
000276: 43,2207           32225                           CAF      VNLODCDU                              #  CALL FOR THETAD LOAD
000277: 43,2210           04616                           TC       BANKCALL
000278: 43,2211           20212                           CADR     GOXDSPF
000279: 43,2212           05472                           TC       TERMEXTV
000280: 43,2213           12214                           TCF      +1
000281:
000282: 43,2214           32226        ICORK2             CAF      IMUCOARV                              #  RE-DISPLAY COARSE ALIGN VERB.
000283: 43,2215           04616                           TC       BANKCALL
000284: 43,2216           20473                           CADR     EXDSPRET
000285:
000286: 43,2217           04616                           TC       BANKCALL                              #  CALL MODE SWITCHING PROG
000287: 43,2220           16753                           CADR     IMUCOARS
000288:
000289: 43,2221           04616                           TC       BANKCALL                              #  STALL
000290: 43,2222           17671                           CADR     IMUSTALL
000291: 43,2223           05472                           TC       ENDEXTVB
000292: 43,2224           05472                           TC       ENDEXTVB
000293:
000294: 43,2225           06226        VNLODCDU           VN       2522
000295: 43,2226           12200        IMUCOARV           VN       4100
000296:


000298:                                                                                                  #           DESIGNATE TO DESIRED GIMBAL ANGLES.
000299:
000300: 43,2227           02652        RRDESNBK           TC       RDRUSECK
000301: 43,2230           02076                           TC       TESTXACT
000302: 43,2231           34745                           CA       RNDVZBIT                              #  IS P20 RUNNING?
000303: 43,2232           70074                           MASK     FLAGWRD0
000304: 43,2233           10000                           CCS      A
000305: 43,2234           12114                           TCF      XACTALM                               #  OPERATOR ERROR IF IN P20
000306: 43,2235           42321                           CS       OCT41000                              #  TERMINATE PRESENT DESIGNATION
000307: 43,2236           00004                           INHINT                                         #  RELINT DONE IN GOXDSPF
000308: 43,2237           70110                           MASK     RADMODES
000309: 43,2240           54110                           TS       RADMODES
000310:
000311: 43,2241           32260                           CAF      VNLDRCDU                              #  ASK FOR GIMBAL ANGLES.
000312: 43,2242           04616                           TC       BANKCALL
000313: 43,2243           20212                           CADR     GOXDSPF
000314: 43,2244           05472                           TC       TERMEXTV
000315: 43,2245           12241                           TCF      -4                                    #  V33
000316:
000317: 43,2246           04616                           TC       BANKCALL                              #  ASK OP FOR LOCK ON REQUIREMENTS.
000318: 43,2247           46000                           CADR     AURLOKON
000319:
000320: 43,2250           32226                           CAF      OPTCOARV                              #  RE-DISPLAY OUR OWN VERB
000321: 43,2251           04616                           TC       BANKCALL
000322: 43,2252           20473                           CADR     EXDSPRET
000323:
000324: 43,2253           34736                           CAF      PRIO20
000325: 43,2254           05105                           TC       FINDVAC
000326: 43,2255  E7,1454                                  EBANK=   LOSCOUNT
000327: 43,2255           02261 66107                     2CADR    RRDESK2
000328:
000329: 43,2257           15472                           TCF      TERMEXTV                              #  FREES DISPLAY.
000330:
000331: 43,2260           06111        VNLDRCDU           VN       2473
000332: 43,2261  43,2226               OPTCOARV           EQUALS   IMUCOARV                              #  DIFFERENT NOUNS.
000333:
000334: 43,2261           04616        RRDESK2            TC       BANKCALL
000335: 43,2262           52475                           CADR     RRDESNB
000336:
000337: 43,2263           02264                           TC       +1                                    #  DUMMY NEEDED SINCE DESRETRN DOES INCR
000338: 43,2264           30167                           CA       PRIORITY
000339: 43,2265           75004                           MASK     LOW9
000340: 43,2266           10000                           CCS      A
000341: 43,2267           50000                           INDEX    A
000342: 43,2270           54000                           TS       A                                     #  RELEASE THIS JOBS VAC AREA.
000343: 43,2271           40000                           COM                                            #  INSURE ENDOFJOB DOES A NOVAC END (BZMF).
000344: 43,2272           26167                           ADS      PRIORITY
000345: 43,2273           04616                           TC       BANKCALL                              #  WAIT FOR COMPLETION OF DESIGNATE
000346: 43,2274           17667                           CADR     RADSTALL
000347:


000349: 43,2275           02277                           TC       +2                                    #  BADEND-NO LOCKON OR OUT OF LIMITS
000350: 43,2276           05155                           TC       ENDOFJOB                              #  GOODEND-LOCKON ACHIEVED
000351: 43,2277           05567                           TC       ALARM
000352: 43,2300           00503                           OCT      503                                   #  TURN ON ALARM LIGHT -503 DESIGNATE FAIL
000353: 43,2301           05155                           TC       ENDOFJOB
000354:
000355: 43,2302           10110        RRDESEND           CCS      RADMODES                              #  TERMINATE CONTINUOUS DESIGNATE ONLY
000356: 43,2303           12121                           TCF      GOPIN
000357: 43,2304           12121                           TCF      GOPIN
000358: 43,2305           12306                           TCF      +1
000359: 43,2306           42321                           CS       OCT41000                              #  BEGDES GOES TO ENDRADAR
000360: 43,2307           00004                           INHINT                                         #  RELINT DONE IN DOWNFLAG
000361: 43,2310           70110                           MASK     RADMODES
000362: 43,2311           54110                           TS       RADMODES
000363: 43,2312           06011                           TC       CLRADMOD
000364: 43,2313           34777                           CAF      1SEC
000365: 43,2314           04616                           TC       BANKCALL
000366: 43,2315           01735                           CADR     DELAYJOB
000367: 43,2316           05516                           TC       DOWNFLAG                              #  ENABLE R25 GIMBAL MONITOR
000368: 43,2317           00126                           ADRES    NORRMON
000369: 43,2320           12121                           TCF      GOPIN
000370: 43,2321           41000        OCT41000           OCT      41000                                 #  CONTINUOUS DESIGNATE - DESIGNATE
000371:


000373: 23,2000                                           BANK     23
000374: 23,2000                                           SETLOC   EXTVB1
000375: 23,2000                                           BANK
000376: 23,2000                                           COUNT*   $$/EXTVB
000377:
000378: 23,2000           04645        AURLOKON           TC       MAKECADR
000379: 23,2001           55113                           TS       DESRET
000380: 23,2002           34752                           CAF      TWO
000381: 23,2003           55052                           TS       OPTIONX    +1
000382: 23,2004           36241                           CAF      SIX                                   #  OPTION CODE FOR V04N12
000383: 23,2005           55051                           TS       OPTIONX
000384:
000385: 23,2006           32037                 -5        CAF      V04N1272
000386: 23,2007           04616                           TC       BANKCALL                              #       R2   00001  LOCK-ON
000387: 23,2010           20231                           CADR     GOMARKFR
000388: 23,2011           15472                           TCF      ENDEXT                                #  V34
000389: 23,2012           12017                           TCF      +5                                    #  V33
000390: 23,2013           12006                           TCF      -5                                    #  V32
000391: 23,2014           34751                           CAF      BIT3
000392: 23,2015           05464                           TC       BLANKET
000393: 23,2016           05155                           TC       ENDOFJOB
000394:
000395: 23,2017           31052                 +5        CA       OPTIONX    +1
000396: 23,2020           74752                           MASK     BIT2
000397: 23,2021           10000                           CCS      A
000398: 23,2022           12026                           TCF      NOLOKON
000399: 23,2023           05504                           TC       UPFLAG
000400: 23,2024           00012                           ADRES    LOKONSW
000401: 23,2025           12034                           TCF      AURLKON1
000402:
000403: 23,2026           05516        NOLOKON            TC       DOWNFLAG                              #  IF NO LOCK-ON, SET BIT15 OF RADMODES TO
000404: 23,2027           00012                           ADRES    LOKONSW                               #  INDICATE THAT CONTINUOUS DESIGNATION IS
000405: 23,2030           05504                           TC       UPFLAG                                #  WANTED (TO BE TERMINATED BY V44.)
000406: 23,2031           00264                           ADRES    CDESFLAG
000407: 23,2032           05504                           TC       UPFLAG                                #  SET NO RR ANGLE MONITOR FLAG.
000408: 23,2033           00126                           ADRES    NORRMON                               #  (DISABLE R25 RR GIMBAL MONITOR IN T4RUPT
000409: 23,2034           00003        AURLKON1           RELINT
000410: 23,2035           31113                           CA       DESRET
000411: 23,2036           14640                           TCF      BANKJUMP
000412:
000413:
000414: 23,2037           01014        V04N1272           VN       412
000415: 23,2040           77757        -LOKONFG           OCT      -20
000416:
000417: 43,2322                                           BANK     43
000418: 43,2000                                           SETLOC   EXTVERBS
000419: 43,2000                                           BANK
000420: 43,2322                                           COUNT*   $$/EXTVB
000421:
000422: 43,2322           05504        LRON               TC       UPFLAG                                #  PERMIT  INCORPORATION OF LR DATA     V57
000423:


000425: 43,2323           00254                           ADRES    LRINH
000426: 43,2324           12121                           TCF      GOPIN
000427:
000428: 43,2325           05516        LROFF              TC       DOWNFLAG                              #  INHIBIT INCORPORATION OF LR DATA      V58
000429: 43,2326           00254                           ADRES    LRINH
000430: 43,2327           12121                           TCF      GOPIN
000431:
000432:
000433:                                                                                                  #  THIS EXTENDED VERB CAUSES P63 TO SWITCH INTO P64.
000434:
000435:
000436: 43,2330  E7,1425                                  EBANK=   TENDBRAK
000437: 43,2330           05321        P64NOW             TC       CHECKMM                               #  ARE WE CURRENTLY IN P63?
000438: 43,2331           00077                           DEC      63         B-14
000439: 43,2332           12120                           TCF      ALM/END                               #  NO   LIGHT OPERATOR ERROR LIGHT.
000440: 43,2333           35016                           CAF      EBANK7
000441: 43,2334           54003                           TS       EBANK
000442: 43,2335           34733                           CAF      POSMAX
000443: 43,2336           55425                           TS       TENDBRAK
000444: 43,2337           12121                           TCF      GOPIN
000445:
000446: 43,2340  E5,1737                                  EBANK=   OGC
000447:


000449:                                                                                                  #           IMUFINEK     VERB 42            DESCRIPTION
000450:                                                                                                  #               FINE ALIGN IMU
000451:                                                                                                  #               1. REQUIRE EXT VERB DISPLAY AVAILABLE AND SET BUSY FLAG OR TURN ON OPER ERROR AND GO TO PINBRNCH.
000452:                                                                                                  #               2. DISPLAY FLASHING V25,N93....LOAD DELTA GYRO ANGLES....
000453:                                                                                                  #                  RESPONSES
000454:                                                                                                  #                  A. TERMINATE
000455:                                                                                                  #                     1. RELEASE EXT VERB DISPLAY SYSTEM.
000456:                                                                                                  #                  B. PROCEED OR ENTER
000457:                                                                                                  #                     1. RE-DISPLAY VERB 42
000458:                                                                                                  #                     2. EXECUTE IMUFINE (IMU FIVE ALIGN MODE SWITCHING).
000459:                                                                                                  #                     3. EXECUTE IMUSTALL (ALLOW FOR DATA TRANSFER)
000460:                                                                                                  #                        A. FAILED
000461:                                                                                                  #                           1. RELEASE EXT VERB DISPLAY SYSTEM.
000462:                                                                                                  #                        B. GOOD
000463:                                                                                                  #                           1. EXECUTE IMUPULSE (TORQUE IRIGS).
000464:                                                                                                  #                           2. EXECUTE IMUSTALL AND RELEASE EXT VERB DISPLAY SYSTEM.
000465:
000466: 43,2340           02405        IMUFINEK           TC       CKMODCAD
000467: 43,2341           02076                           TC       TESTXACT                              #  FINE ALIGN WITH GYRO TORQUING.
000468: 43,2342           32367                           CAF      VNLODGYR                              #  CALL FOR LOAD OF GYRO COMMANDS
000469: 43,2343           04616                           TC       BANKCALL
000470: 43,2344           20212                           CADR     GOXDSPF
000471: 43,2345           05472                           TC       TERMEXTV
000472: 43,2346           02347                           TC       +1                                    #  PROCEED WITHOUT A LOAD
000473:
000474: 43,2347           32370                           CAF      IMUFINEV                              #  RE-DISPLAY OUR OWN VERB
000475: 43,2350           04616                           TC       BANKCALL
000476: 43,2351           20473                           CADR     EXDSPRET
000477:
000478: 43,2352           04616                           TC       BANKCALL                              #  CALL MODE SWITCH PROG
000479: 43,2353           17163                           CADR     IMUFINE
000480:
000481: 43,2354           04616                           TC       BANKCALL                              #  HIBERNATION
000482: 43,2355           17671                           CADR     IMUSTALL
000483: 43,2356           05472                           TC       ENDEXTVB
000484:
000485: 43,2357           32366        FINEK2             CAF      LGYROBIN                              #  PINBALL LEFT COMMANDS IN OGC REGIST5RS
000486: 43,2360           04616                           TC       BANKCALL
000487: 43,2361           17276                           CADR     IMUPULSE
000488:
000489: 43,2362           04616                           TC       BANKCALL                              #  WAIT FOR PULSES TO GET OUT.
000490: 43,2363           17671                           CADR     IMUSTALL
000491: 43,2364           05472                           TC       ENDEXTVB
000492: 43,2365           05472                           TC       ENDEXTVB
000493:
000494: 43,2366           02737        LGYROBIN           ECADR    OGC
000495: 43,2367           06335        VNLODGYR           VN       2593
000496: 43,2370           12400        IMUFINEV           VN       4200
000497:                                                                                                  #           GOLOADLV     VERB 50            DESCRIPTION
000498:                                                                                                  #                        AND OTHER PLEASE
000499:


000501:                                                                                                  #                        DO SOMETHING VERBS
000502:                                                                                                  #               PLEASE PERFORM, MARK, CALIBRATE, ETC.
000503:                                                                                                  #               1. PRESSING ENTER ON DSKY INDICATES REQUESTED ACTION HAS BEEN  PERFORMED, AND THE PROGRAM DOES THE
000504:                                                                                                  #                  SAME RECALL AS A COMPLETED LOAD.
000505:                                                                                                  #               2. THE EXECUTION OF A VERB 33 (PROCEED WITHOUT DATA) INDICATES THE REQUESTED ACTION IS NOT DESIRED.
000506:
000507: 43,2371  40,2000                                  SBANK=   PINSUPER                              #  FOR LOADLV1 AND SHOWSUM CADR'S.
000508:
000509: 43,2371           04433        GOLOADLV           TC       FLASHOFF
000510:
000511: 43,2372           34201                           CAF      PINSUPBT
000512: 43,2373           00006                           EXTEND
000513: 43,2374           01007                           WRITE    SUPERBNK
000514: 43,2375           04635                           TC       POSTJUMP
000515: 43,2376           62001                           CADR     LOADLV1
000516:
000517:                                                                                                  #  VERB 47 - AGS INITIALIZATION - R47.
000518:
000519:                                                                                                  #           SEE LOG SECTION AGS INITIALIZATION FOR OTHER PERTINENT REMARKS.
000520:
000521: 43,2377           02076        V47TXACT           TC       TESTXACT                              #  NO OTHER EXTVERB.
000522: 43,2400           34740                           CAF      PRIO4
000523: 43,2401           05105                           TC       FINDVAC
000524: 43,2402  E4,1604                                  EBANK=   AGSBUFF
000525: 43,2402           02015 64064                     2CADR    AGSINIT
000526:
000527: 43,2404           05155                           TC       ENDOFJOB
000528:
000529: 43,2405           31304        CKMODCAD           CA       MODECADR
000530: 43,2406           00006                           EXTEND
000531: 43,2407           16741                           BZF      TCQ
000532: 43,2410           02120                           TC       ALM/END                               #  SOMEBODY IS USING MODECADR SO EXIT
000533:


000535:                                                                                                  #           ALINTIME     VERB 55            DESCRIPTION
000536:                                                                                                  #                  REQUIRE POO OR POO-.
000537:                                                                                                  #               1. SET EXT VERB DISPLAY BUSY FLAG.
000538:                                                                                                  #               2. DISPLAY FLASHING V25,N24 (LOAD DELTA TIME FOR AGC CLOCK.
000539:                                                                                                  #               3. REQUIRE EXECUTION OF VERB 23.
000540:                                                                                                  #               4. ADD DELTA TIME, RECEIVED FROM INPUT REGISTER, TO THE COMPUTER TIME.
000541:                                                                                                  #               5. RELEASE EXT VERB DISPLAY SYSTEM
000542:
000543: 43,2411           02076        ALINTIME           TC       TESTXACT
000544: 43,2412           04635                           TC       POSTJUMP                              #  NO ROOM IN 43
000545: 43,2413           64002                           CADR     R33
000546:
000547: 42,2002                                           BANK     42
000548: 42,2000                                           SETLOC   SBAND
000549: 42,2000                                           BANK
000550: 42,2002                                           COUNT*   $$/R33
000551:
000552: 42,2002           35021        R33                CAF      PRIO7
000553: 42,2003           05146                           TC       PRIOCHNG
000554: 42,2004           32034                           CAF      VNLODDT
000555: 42,2005           04616                           TC       BANKCALL
000556: 42,2006           20212                           CADR     GOXDSPF
000557: 42,2007           05472                           TC       ENDEXT                                #  TERMINATE
000558: 42,2010           05472                           TC       ENDEXT                                #  PROCEED
000559: 42,2011           42033                           CS       DEC23                                 #  DATA IN OR RESEQUENCE(UNLIKELY)
000560: 42,2012           60154                           AD       MPAC                                  #  RECALL LEFT VERB IN MPAC
000561: 42,2013           00006                           EXTEND
000562: 42,2014           12016                           BZF      UPDATIME                              #  GO AHEAD WITH UPDATE ONLY IF RECALL
000563: 42,2015           05472                           TC       ENDEXT                                #    WITH V23 (DATA IN).
000564:
000565: 42,2016           00004        UPDATIME           INHINT                                         #  DELTA TIME IS IN DSPTEM1, +1.
000566: 42,2017           34755                           CAF      ZERO
000567: 42,2020           54156                           TS       MPAC       +2                         #  NEEDED FOR TP AGREE
000568: 42,2021           54001                           TS       L                                     #  ZERO T1 + 2 WHILE ALIGNING.
000569: 42,2022           52025                           DXCH     TIME2
000570: 42,2023           52155                           DXCH     MPAC
000571: 42,2024           53052                           DXCH     DSPTEM2    +1                         #  INCREMENT
000572: 42,2025           20155                           DAS      MPAC
000573:
000574: 42,2026           07256                           TC       TPAGREE                               #  FORCE SIGN AGREEMENT.
000575: 42,2027           52155                           DXCH     MPAC                                  #  NEW CLOCK.
000576: 42,2030           20025                           DAS      TIME2
000577: 42,2031           00003                           RELINT
000578: 42,2032           05472        UPDTMEND           TC       ENDEXT
000579:
000580: 42,2033           00027        DEC23              DEC      23         B-14                       #  V 23
000581:
000582: 42,2034           06230        VNLODDT            VN       2524                                  #  V25N24 FOR LOAD DELTA TIME
000583:


000585:                                                                                                  #  SET UP FOR RADAR SAMPLING.
000586:
000587: 42,2035                                           BANK     42
000588: 43,2000                                           SETLOC   EXTVERBS
000589: 43,2000                                           BANK
000590:
000591: 43,2414  E4,1604                                  EBANK=   RSTACK
000592:
000593: 43,2414                                           COUNT*   $$/R0477
000594:
000595: 43,2414           02652        R77                TC       RDRUSECK                              #  TRY TO AVOID THE 1210.
000596: 43,2415           30077                           CA       FLAGWRD3                              #  IS R04 RUNNING?
000597: 43,2416           74743                           MASK     R04FLBIT
000598: 43,2417           10000                           CCS      A
000599: 43,2420           02120                           TC       ALM/END                               #  YES.
000600: 43,2421           05504                           TC       UPFLAG
000601: 43,2422           00117                           ADRES    R77FLAG
000602: 43,2423           12430                           TCF      R04Z
000603:
000604: 43,2424           02652        R04                TC       RDRUSECK                              #  TRY TO AVOID THE 1210.
000605: 43,2425           02076                           TC       TESTXACT
000606: 43,2426           05504                           TC       UPFLAG
000607: 43,2427           00063                           ADRES    R04FLAG                               #  SET R04FLAG FOR ALARMS
000608:
000609: 43,2430           34741        R04Z               CAF      EBANK4
000610: 43,2431           54003                           TS       EBANK
000611: 43,2432           32650                           CAF      1SEC+1                                #  SAMPLE ONCE PER SECOND
000612: 43,2433           55761                           TS       RSAMPDT
000613: 43,2434           34755                           CAF      ZERO
000614: 43,2435           55760                           TS       RTSTLOC
000615: 43,2436           55762                           TS       RFAILCNT                              #  ZERO BAD SAMPLE COUNTER
000616:
000617: 43,2437           00004                           INHINT
000618: 43,2440           42651                           CS       LRPOSCAL                              #  INITIALIZE
000619: 43,2441           70110                           MASK     RADMODES                              #      BIT 9   LR RANGE  LOW SCALE =0
000620: 43,2442           54110                           TS       RADMODES                              #      BIT 6   LR POS 1 =0
000621: 43,2443           32651                           CAF      LRPOSCAL                              #      BIT 3   RR RANGE  LOW SCALE =0
000622: 43,2444           00006                           EXTEND
000623: 43,2445           02033                           RAND     CHAN33
000624: 43,2446           26110                           ADS      RADMODES
000625: 43,2447           00003                           RELINT
000626:
000627: 43,2450           40077                           CS       FLAGWRD3                              #  CHECK R04FLAG       R04 =1    R77 =0
000628: 43,2451           74743                           MASK     R04FLBIT
000629: 43,2452           10000                           CCS      A
000630: 43,2453           12605                           TCF      R04K
000631:
000632: 43,2454           34753                           CAF      ONE                                   #  INDICATES RENDEZVOUS DESIRED
000633: 43,2455           55052                           TS       OPTIONX    +1
000634: 43,2456           34751        R04A               CAF      BIT3                                  #  OPTION CODE FOR V04N12
000635:


000637: 43,2457           55051                           TS       OPTIONX
000638: 43,2460           32645                           CAF      V04N12X
000639: 43,2461           04616                           TC       BANKCALL                              #        R2   00001  RENDEZVOUS RADAR
000640: 43,2462           20231                           CADR     GOMARKFR                              #             00002  LANDING RADAR
000641: 43,2463           12613                           TCF      R04END                                #  V34
000642: 43,2464           12471                           TCF      +5                                    #  V33
000643: 43,2465           12460                           TCF      R04A       +2                         #  R2
000644: 43,2466           34751                           CAF      BIT3
000645: 43,2467           05464                           TC       BLANKET
000646: 43,2470           05155                           TC       ENDOFJOB
000647:
000648: 43,2471           31052                           CA       OPTIONX    +1                         #  SAVE DESIRED OPTION       RR =1      LR =2
000649: 43,2472           55755                           TS       RTSTDEX
000650:
000651: 43,2473           36241        R04X               CAF      SIX                                   #  RR OR LR DESIRED
000652: 43,2474           71755                           MASK     RTSTDEX
000653: 43,2475           10000                           CCS      A
000654: 43,2476           12607                           TCF      R04L                                  #  LANDING RADAR
000655: 43,2477           55757                           TS       RTSTBASE                              #  FOR RR   BASE = 0, MAX = 1
000656:
000657: 43,2500           34752        R04B               CAF      BIT2                                  #  IS RR AUTO MODE DISCRETE PRESENT
000658: 43,2501           00006                           EXTEND
000659: 43,2502           02033                           RAND     CHAN33
000660: 43,2503           00006                           EXTEND
000661: 43,2504           12515                           BZF      R04C                                  #  YES
000662:
000663: 43,2505           32647                           CAF      201R04                                #  REQUEST SELECTION OF RR AUTO MODE
000664: 43,2506           55045                           TS       DSPTEM1
000665: 43,2507           32646                           CAF      V50N25X
000666: 43,2510           04616                           TC       BANKCALL
000667: 43,2511           20223                           CADR     GOMARK4
000668: 43,2512           12613                           TCF      R04END                                #  V34
000669: 43,2513           12500                           TCF      R04B                                  #  V33
000670: 43,2514           12505                           TCF      -7                                    #  E
000671:
000672: 43,2515           34736        R04C               CAF      BIT14                                 #  ENABLE RR AUTO TRACKER
000673: 43,2516           00006                           EXTEND
000674: 43,2517           05012                           WOR      CHAN12
000675:
000676: 43,2520           34752                           CAF      TWO
000677: 43,2521           55756                           TS       RTSTMAX                               #  FOR SEQUENTIAL STORAGE
000678:
000679: 43,2522           05203                           TC       WAITLIST
000680: 43,2523  E4,1604                                  EBANK=   RSTACK
000681: 43,2523           02003 52104                     2CADR    RADSAMP
000682:
000683: 43,2525           00003                           RELINT
000684:
000685: 43,2526           40077                           CS       FLAGWRD3                              #  CHECK R04FLAG      R04 =1    R77 =0
000686: 43,2527           74743                           MASK     R04FLBIT
000687:


000689: 43,2530           10000                           CCS      A
000690: 43,2531           12121                           TCF      GOPIN                                 #  R77
000691:
000692: 43,2532           36241                           CAF      SIX                                   #  RR OR LR
000693: 43,2533           71755                           MASK     RTSTDEX
000694: 43,2534           10000                           CCS      A
000695: 43,2535           12552                           TCF      R04LR                                 #  LR
000696:
000697: 43,2536           32641        R04RR              CAF      V16N72                                #  DISPLAY RR CDU ANGLES (1/SEC)
000698: 43,2537           04616                           TC       BANKCALL                              #           R1  +  XXX.XX DEG   TRUNNION
000699: 43,2540           20212                           CADR     GOMARKF                               #           R2  +  XXX.XX DEG   SHAFT
000700: 43,2541           12613                           TCF      R04END                                #  V34      R3     BLANK
000701: 43,2542           12544                           TCF      +2                                    #  V33
000702: 43,2543           12536                           TCF      R04RR                                 #  V32
000703:
000704: 43,2544           32642                           CAF      V16N78                                #  DISPLAY RR RANGE AND RANGE RATE (1/SEC)
000705: 43,2545           04616                           TC       BANKCALL                              #           R1  +- XXX.XX NM    RANGE
000706: 43,2546           20212                           CADR     GOMARKF                               #           R2  +- XXXXX. FPS   RANGE RATE
000707: 43,2547           12613                           TCF      R04END                                #  V34      R3     BLANK
000708: 43,2550           12566                           TCF      R04Y                                  #  V33
000709: 43,2551           12536                           TCF      R04RR                                 #  V32
000710:
000711: 43,2552           32643        R04LR              CAF      V16N66                                #  DISPLAY LR RANGE AND POSITION (1/SEC)
000712: 43,2553           04616                           TC       BANKCALL                              #           R1  +- XXXXX. FT    LR RANGE
000713: 43,2554           20212                           CADR     GOMARKF                               #           R2  +  0000X.       POS. NO.
000714: 43,2555           12613                           TCF      R04END                                #  V34      R3     BLANK
000715: 43,2556           12560                           TCF      +2                                    #  V33
000716: 43,2557           12552                           TCF      R04LR                                 #  V32
000717:
000718: 43,2560           32644                           CAF      V16N67                                #  DISPLAY LR VELX, VELY, VELZ (1/SEC)
000719: 43,2561           04616                           TC       BANKCALL                              #           R1  +- XXXXX. FPS   LR V(X)
000720: 43,2562           20212                           CADR     GOMARKF                               #           R2  +- XXXXX. FPS   LR V(Y)
000721: 43,2563           12613                           TCF      R04END                                #  V34      R3  +- XXXXX. FPS   LR V(Z)
000722: 43,2564           12566                           TCF      R04Y                                  #  V33
000723: 43,2565           12552                           TCF      R04LR                                 #  V32
000724:
000725: 43,2566           34755        R04Y               CAF      ZERO                                  #  TO TERMINATE SAMPLING
000726: 43,2567           55761                           TS       RSAMPDT
000727: 43,2570           35000                           CAF      2SECS                                 #  WAIT FOR LAST RADARUPT
000728: 43,2571           04616                           TC       BANKCALL
000729: 43,2572           01735                           CADR     DELAYJOB
000730: 43,2573           32650                           CAF      1SEC+1                                #  SAMPLE ONCE PER SECOND
000731: 43,2574           55761                           TS       RSAMPDT
000732: 43,2575           34755                           CAF      ZERO                                  #  FOR STORING RESULTS
000733: 43,2576           55760                           TS       RTSTLOC
000734: 43,2577           36241                           CAF      SIX
000735: 43,2600           71755                           MASK     RTSTDEX
000736: 43,2601           10000                           CCS      A
000737: 43,2602           44753                           CS       ONE                                   #  WAS LR
000738: 43,2603           64752                           AD       TWO                                   #  WAS RR
000739:


000741:
000742: 43,2604           12472                           TCF      R04X       -1
000743:
000744: 43,2605           34766        R04K               CAF      250MS+1                               #  SAMPLE 4 LR COMPONENTS PER SECOND.
000745: 43,2606           55761                           TS       RSAMPDT
000746:
000747: 43,2607           34752        R04L               CAF      TWO
000748: 43,2610           55757                           TS       RTSTBASE                              #  FOR LR   BASE = 2, MAX = 3
000749: 43,2611           36241                           CAF      SIX
000750: 43,2612           12521                           TCF      R04C       +4
000751: 43,2613           34755        R04END             CAF      ZERO                                  #  ZERO RSAMPDT
000752: 43,2614           55761                           TS       RSAMPDT                               #  TO TERMINATE SAMPLING
000753: 43,2615           34744                           CAF      BIT8                                  #  WAIT 1.28 SECONDS FOR POSSIBLE
000754: 43,2616           04616                           TC       BANKCALL                              #  PENDING RUPT.
000755: 43,2617           01735                           CADR     DELAYJOB
000756:
000757: 43,2620           00004                           INHINT
000758: 43,2621           44736                           CS       BIT14                                 #  DISABLE RR AUTO TRACKER
000759: 43,2622           00006                           EXTEND
000760: 43,2623           03012                           WAND     CHAN12
000761:
000762: 43,2624           05516                           TC       DOWNFLAG
000763: 43,2625           00063                           ADRES    R04FLAG                               #  SIGNAL END OF R04.
000764:
000765: 43,2626           05472                           TC       ENDEXT
000766:
000767: 43,2627           34741        R77END             CAF      EBANK4                                #  TO TERMINATE SAMPLING
000768: 43,2630           54003                           TS       EBANK
000769: 43,2631           34755                           CAF      ZERO
000770: 43,2632           55761                           TS       RSAMPDT
000771: 43,2633           34746                           CAF      BIT6                                  #  WAIT 320 MS FOR POSSIBLE
000772: 43,2634           04616                           TC       BANKCALL                              #  PENDING RUPT.
000773: 43,2635           01735                           CADR     DELAYJOB
000774:
000775: 43,2636           05516                           TC       DOWNFLAG
000776: 43,2637           00117                           ADRES    R77FLAG
000777: 43,2640           12121                           TCF      GOPIN
000778:
000779: 43,2641           04110        V16N72             VN       1672
000780: 43,2642           04116        V16N78             VN       1678
000781: 43,2643           04102        V16N66             VN       1666
000782: 43,2644           04103        V16N67             VN       1667
000783: 43,2645           01014        V04N12X            VN       412
000784: 43,2646           14431        V50N25X            VN       5025
000785: 43,2647           00201        201R04             OCT      00201
000786: 43,2650           00145        1SEC+1             DEC      101        B-14
000787: 43,2651     4766               250MS+1            EQUALS   CALLCODE
000788: 43,2651           00444        LRPOSCAL           OCT      444
000789:


000791: 43,2652           40077        RDRUSECK           CS       FLAGWRD3                              #  IS R29 ON?
000792: 43,2653           74741                           MASK     NR29FBIT
000793: 43,2654           10000                           CCS      A
000794: 43,2655           02120                           TC       ALM/END                               #  YES
000795: 43,2656           30101                           CA       FLAGWRD5                              #  IS R77 RUNNING?
000796: 43,2657           74741                           MASK     R77FLBIT
000797: 43,2660           10000                           CCS      A
000798: 43,2661           02120                           TC       ALM/END                               #  YES.
000799: 43,2662           40103                           CS       FLAGWRD7                              #  IS SERVICER RUNNING AND HENCE POSSIBLY
000800: 43,2663           74746                           MASK     V37FLBIT                              #  R12 USING THE LR?
000801: 43,2664           10000                           CCS      A
000802: 43,2665           12672                           TCF      CHECKRR                               #  NO
000803: 43,2666           40107                           CS       FLGWRD11                              #  YES, IS R12 ON?
000804: 43,2667           74735                           MASK     LRBYBIT
000805: 43,2670           10000                           CCS      A
000806: 43,2671           02120                           TC       ALM/END                               #  YES
000807: 43,2672           40075        CHECKRR            CS       FLAGWRD1                              #  IS THE TRACK FLAG SET AND HENCE POSSIBLY
000808: 43,2673           74747                           MASK     TRACKBIT                              #  P20 USING THE RR?
000809: 43,2674           10000                           CCS      A
000810: 43,2675           12702                           TCF      CHECKP22                              #  NO, CHECK FOR P22.
000811:
000812: 43,2676           30074        CKRNDBIT           CA       FLAGWRD0                              #  YES, BUT IS IT P25?
000813: 43,2677           74745                           MASK     RNDVZBIT
000814: 43,2700           10000                           CCS      A
000815: 43,2701           02120                           TC       ALM/END
000816: 43,2702           41011        CHECKP22           CS       MODREG
000817: 43,2703           62707                           AD       DEC22
000818: 43,2704           00006                           EXTEND
000819: 43,2705           12120                           BZF      ALM/END
000820: 43,2706           00002                           TC       Q
000821:
000822: 43,2707           00026        DEC22              DEC      22         B-14
000823:
000824: 43,2710                                           COUNT*   $$/EXTVB
000825:
000826: 43,2710           02123        VB64               TC       CHKPOOH                               #  DEMAND PROGRAM 00.
000827: 43,2711           02076                           TC       TESTXACT                              #  IF DISPLAY SYS. NOT BUSY,MAKE IT BUSY.
000828: 43,2712           34740                           CAF      PRIO4
000829: 43,2713           05105                           TC       FINDVAC
000830: 43,2714  E4,1604                                  EBANK=   ALPHASB
000831: 43,2714           03602 64104                     2CADR    SBANDANT                              #  CALC.,DISPLAY S-BAND ANTENNA ANGLES.
000832:
000833: 43,2716           05155                           TC       ENDOFJOB
000834:


000836:                                                                                                  #           IMUATTCK      VERB 43           DESCRIPTION
000837:                                                                                                  #               LOAD IMU ATTITUDE ERROR METERS
000838:                                                                                                  #                  1. REQUIRE POO OR FRESH START.
000839:                                                                                                  #                  2. REQUIRE COARSE ALIGN ENABLE AND ZERO ICDU BITS OFF.
000840:                                                                                                  #                  3. REQUIRE THAT NEEDLES BE OFF.
000841:                                                                                                  #                  4. REQUEST LOAD OF N22  (VAUES TO BE DISPLAYED).
000842:                                                                                                  #                  5. ON PROCEED OR ENTER RE-DISPLAY V43 AND SEND PULSES.
000843:
000844: 43,2717           02123        IMUATTCK           TC       CHKPOOH                               #  VB 76 - LOAD IMU ATT. ERROR METERS
000845:
000846: 43,2720           34763                           CAF      BITS4&5                               #  SEE IF COARSE ALIGN ENABLE AND ZERO IMU
000847: 43,2721           00006                           EXTEND                                         #  CDUS BITS ARE ON
000848: 43,2722           02012                           RAND     CHAN12
000849: 43,2723           10000                           CCS      A
000850: 43,2724           12120                           TCF      ALM/END                               #  NOT ALLOWED IF IMU COARSE OR IMU ZERO ON
000851:
000852: 43,2725           34355                           CAF      BIT13-14                              #  BOTH BITS 13 AND 14 MUST BE 1
000853: 43,2726           00006                           EXTEND                                         #  INDICATING THE MODE SELECTED IS OFF.
000854: 43,2727           06031                           RXOR     CHAN31
000855: 43,2730           74355                           MASK     BIT13-14
000856: 43,2731           00006                           EXTEND
000857: 43,2732           12734                           BZF      +2                                    #  NEEDLES IS OFF.
000858: 43,2733           12120                           TCF      ALM/END                               #  EXIT.  NEEDLES IS ON.
000859:
000860: 43,2734           02076                           TC       TESTXACT
000861:
000862: 43,2735           32225                           CAF      VNLODCDU
000863: 43,2736           04616                           TC       BANKCALL
000864: 43,2737           20212                           CADR     GOXDSPF
000865: 43,2740           05472                           TC       ENDEXT                                #  V34
000866: 43,2741           02742                           TC       +1
000867: 43,2742           32755                           CAF      V43K                                  #  REDISPLAY OUR VERB.
000868: 43,2743           04616                           TC       BANKCALL
000869: 43,2744           20473                           CADR     EXDSPRET
000870: 43,2745           34746                           CAF      BIT6
000871: 43,2746           00006                           EXTEND
000872: 43,2747           05012                           WOR      CHAN12                                #  ENABLE ERROR COUNTERS.
000873: 43,2750           34752                           CAF      TWO
000874: 43,2751           05203                           TC       WAITLIST                              #  PUT OUT COMMANDS IN .32 SECONDS.
000875: 43,2752     0321                                  EBANK=   THETAD
000876: 43,2752           02035 64100                     2CADR    ATTCK2
000877:
000878: 43,2754           15472                           TCF      ENDEXT
000879:
000880: 42,2035                                           BANK     42
000881: 42,2000                                           SETLOC   PINBALL3                              #  SOMETHING IN B42.
000882: 42,2000                                           BANK
000883:
000884: 42,2035                                           COUNT*   $$/EXTVB
000885:


000887: 42,2035           34752        ATTCK2             CAF      TWO                                   #  PUT OUT COMMANDS.
000888: 42,2036           54002                 +1        TS       Q                                     #  CDU WILL LIMIT EXCESS DATA.
000889: 42,2037           50000                           INDEX    A
000890: 42,2040           30321                           CA       THETAD
000891: 42,2041           00006                           EXTEND
000892: 42,2042           72053                           MP       ATTSCALE
000893: 42,2043           50002                           INDEX    Q
000894: 42,2044           56050                           XCH      CDUXCMD
000895: 42,2045           10002                           CCS      Q
000896: 42,2046           12036                           TCF      ATTCK2     +1
000897:
000898: 42,2047           37737                           CAF      13,14,15
000899: 42,2050           00006                           EXTEND
000900: 42,2051           05014                           WOR      CHAN14
000901: 42,2052           15261                           TCF      TASKOVER                              #  LEAVE ERROR COUNTERS ENABLED.
000902:
000903: 42,2053           03146        ATTSCALE           DEC      0.1
000904:
000905: 07,2667                                           BANK     7
000906: 43,2000                                           SETLOC   EXTVERBS
000907: 43,2000                                           BANK
000908:
000909: 43,2755                                           COUNT*   $$/EXTVB
000910:
000911: 43,2755           12600        V43K               VN       4300
000912:                                                                                                  #           V82PERF     VERB 82             DESCRIPTION
000913:                                                                                                  #               REQUEST ORBIT PARAMETERS DISPLAY (R30)
000914:                                                                                                  #  1. IF AVERAGE G IS OFF:
000915:                                                                                                  #           FLASH DISPLAY V04N06. R2 INDICATES WHICH SHIP'S STATE VECTOR IS
000916:                                                                                                  #            TO BE UPDATED. INITIAL CHOICE IS THIS SHIP (R2=1). ASTRONAUT
000917:                                                                                                  #            CAN CHANGE TO OTHER SHIP BY V22EXE, WHERE X NOT EQ 1.
000918:                                                                                                  #           SELECTED STATE VECTOR UPDATED BY THISPREC (OTHPREC).
000919:                                                                                                  #           CALLS SR30.1 (WHICH CALLS TFFCONMU + TFFRP/RA) TO CALCULATE
000920:                                                                                                  #            RPER (PERIGEE RADIUS), RAPO (APOGEE RADIUS), HPER (PERIGEE
000921:                                                                                                  #            HEIGHT ABOVE LAUNCH PAD OR LUNAR LANDING SITE), HAPO (APOGEE
000922:                                                                                                  #            HEIGHT AS ABOVE), TPER (TIME TO PERIGEE), TFF (TIME TO
000923:                                                                                                  #            INTERSECT 300 KFT ABOVE PAD OR 35KFT ABOVE LANDING SITE).
000924:                                                                                                  #           FLASH MONITOR V16N44 (HAPO, HPER, TFF).TFF IS -59M59S IF IT WAS
000925:                                                                                                  #            NOT COMPUTABLE, OTHERWISE IT INCREMENTS ONCE PER SECOND.
000926:                                                                                                  #            ASTRONAUT HAS OPTION TO MONITOR TPER BY KEYING IN N 32 E.
000927:                                                                                                  #            DISPLAY IS IN HMS, IS NEGATIVE (AS WAS TFF), AND INCREMENTS
000928:                                                                                                  #            ONCE PER SECOND ONLY IF TFF DISPLAY WAS -59M59S.
000929:
000930:                                                                                                  #  2. IF AVERAGE G IS ON:
000931:                                                                                                  #           CALLS SR30.1 APPROX EVERY TWO SECS.  STATE VECTOR IS ALWAYS
000932:                                                                                                  #            FOR THIS VEHICLE. V82 DOES NOT DISTURB STATE VECTOR.  RESULTS
000933:                                                                                                  #            OF SR30.1 ARE RAPO, RPER, HAPO, HPER, TPER, TFF.
000934:                                                                                                  #           FLASH MONITOR V16N44 (HAPO, HPER, TFF).
000935:                                                                                                  #           IF MODE IS P11, THEN CALL DELRSPL SO ASTRONAUT CAN MONITOR
000936:                                                                                                  #            RESULTS BY N50E. SPLASH COMPUTATION DONE ONCE PER TWO SECS.
000937:


000939: 43,2756           02076        V82PERF            TC       TESTXACT
000940:
000941: 43,2757           35021                           CAF      PRIO7                                 #  LESS THAN LAMBERT.  R30,V82
000942: 43,2760           05146                           TC       PRIOCHNG
000943: 43,2761           00006                           EXTEND
000944: 43,2762           32765                           DCA      V82CON
000945: 43,2763           05165                           TC       SUPDXCHZ                              #  V82CALL IN DIFF SUPERBANK FROM V82PERF
000946:
000947: 43,2764  E4,1722                                  EBANK=   HAPO
000948: 43,2764           03242 44104  V82CON             2CADR    V82CALL
000949:
000950:
000951:                                                                                                  #           VB83PERF     VERB 83            DESCRIPTION
000952:                                                                                                  #               REQUEST RENDEZVOUS PARAMETER DISPLAY (R31)
000953:                                                                                                  #               1. SET EXT VERB DISPLAY BUSY FLAG.
000954:                                                                                                  #               2. SCHEDULE R31CALL WITH PRIORITY 5.
000955:                                                                                                  #                  A. DISPLAY
000956:                                                                                                  #                      R1  RANGE
000957:                                                                                                  #                      R2  RANGE RATE
000958:                                                                                                  #                      R3  THETA
000959:
000960: 43,2766           02076        V83PERF            TC       TESTXACT
000961:
000962: 43,2767           34752                           CAF      BIT2
000963: 43,2770           05203                           TC       WAITLIST
000964: 43,2771  E7,1607                                  EBANK=   TSTRT
000965: 43,2771           03113 76067                     2CADR    R31CALL
000966:
000967: 43,2773           05155                           TC       ENDOFJOB
000968:
000969:                                                                                                  #  VERB 89 DESCRIPTION     RENDEZVOUS FINAL ATTITUDE ROUTINE (R63)
000970:
000971:                                                                                                  #  CALLED BY VERB 89 ENTER DURING P00. PRIO 10 USED.  CALCULATES AND
000972:                                                                                                  #  DISPLAYS FINAL FDAI BALL ANGLES TO POINT LM +X OR +Z AXIS AT CSM.
000973:
000974:                                                                                                  #  1. KEY IN V 89 E ONLY IF IN PROG 00. IF NOT IN P00, OPERATOR ERROR AND
000975:                                                                                                  #  EXIT R63, OTHERWISE CONTINUE.
000976:
000977:                                                                                                  #  2. IF IN P00, DO IMU STATUS CHECK ROUTINE (R02BOTH). IF IMU ON AND ITS
000978:                                                                                                  #  ORIENTATION KNOWN TO LGC, CONTINUE.
000979:
000980:                                                                                                  #  3. FLASH DISPLAY V 04 N 06.  R2 INDICATES WHICH SPACECRAFT AXIS IS TO
000981:                                                                                                  #  BE POINTED AT CSM.  INITIAL CHOICE IS PREFERRED (+Z) AXIS (R2=1).
000982:                                                                                                  #  ASTRONAUT CAN CHANGE TO (+X) AXIS (R2 NOT = 1) BY V 22 E 2 E.  CONTINUE
000983:                                                                                                  #  AFTER KEYING IN PROCEED.
000984:
000985:                                                                                                  #  4. BOTH VEHICLE STATE VECTORS UPDATED BY CONIC EQS.
000986:
000987:                                                                                                  #  5. HALF MAGNITUDE UNIT LOS VECTOR (IN STABLE MEMBER COORDINATES) AND
000988:


000990:                                                                                                  #  HALF MAGNITUDE UNIT SPACECRAFT AXIS VECTOR (IN BODY COORDINATES)
000991:                                                                                                  #  PREPARED FOR VECPOINT.
000992:
000993:                                                                                                  #  6. GIMBAL ANGLES FROM VECPOINT TRANSFORMED INTO FDAI BALL ANGLES BY
000994:                                                                                                  #  BALLANGS. FLASH DISPLAY V 06 N 18 AND AWAIT RESPONSE.
000995:
000996:                                                                                                  #  7. RECYCLE - RETURN TO STEP 4.
000997:                                                                                                  #     TERMINATE - EXIT R63.
000998:                                                                                                  #     PROCEED - RESET 3AXISFLG AND CALL R60LEM FOR ATTITUDE MANEUVER.
000999:
001000:
001001: 43,2774           02123        V89PERF            TC       CHKPOOH
001002: 43,2775           02076                           TC       TESTXACT
001003: 43,2776           34737                           CAF      PRIO10
001004: 43,2777           05105                           TC       FINDVAC
001005: 43,3000  E4,1612                                  EBANK=   RONE
001006: 43,3000           02000 54104                     2CADR    V89CALL
001007: 43,3002           05155                           TC       ENDOFJOB
001008:
001009:                                                                                                  #           V90PERF     VERB 90             DESCRIPTION
001010:                                                                                                  #               REQUEST RENDEZVOUS OUT-OF-PLANE DISPLAY (R36)
001011:                                                                                                  #               1. SET EXT VERB DISPLAY BUSY FLAG.
001012:                                                                                                  #               2. SCHEDULE R36 CALL WITH PRIORITY 10
001013:                                                                                                  #                  A. DISPLAY
001014:                                                                                                  #                      TIME OF EVENT - HOURS , MINUTES , SECONDS
001015:                                                                                                  #                      Y  OUT-OF-PLANE POSITION - NAUTICAL MILES
001016:                                                                                                  #                      YDOT  OUT-OF-PLANE VELOCITY - FEET/SECOND
001017:                                                                                                  #                      PSI  ANGLE BTW LINE OF SIGHT AND FORWARD
001018:                                                                                                  #                           DIRECTION VECTOR IN HORIZONTAL PLANE - DEGREES
001019:
001020: 43,3003           02076        V90PERF            TC       TESTXACT
001021: 43,3004           35021                           CAF      PRIO7                                 #  R36,V90
001022: 43,3005           05105                           TC       FINDVAC
001023: 43,3006  E4,1612                                  EBANK=   RPASS36
001024: 43,3006           02613 10104                     2CADR    R36
001025: 43,3010           15155                           TCF      ENDOFJOB
001026:                                                                                                  #           MINIMP     VERB 76              DESCRIPTION
001027:                                                                                                  #               MINIMUM IMPULSE MODE
001028:                                                                                                  #               1. SET MINIMUM IMPULSE RHC MODE FLAG TO 1.
001029:
001030: 43,3011           00004        MINIMP             INHINT
001031: 43,3012           40111                           CS       DAPBOOLS
001032: 43,3013           74735                           MASK     PULSES                                #  PULSES = 1 INDICATES MIN IMP MODE
001033: 43,3014           26111                           ADS      DAPBOOLS
001034: 43,3015           12121                           TCF      GOPIN                                 #  RETURN VIA PINBRNCH
001035:
001036:                                                                                                  #           NOMINIMP     VERB 77            DESCRIPTION
001037:                                                                                                  #               RATE COMMAND MODE
001038:


001040:                                                                                                  #               1. SET MINIMUM IMPULSE RHC MODE FLAG TO 0. (ZERO INDICATES NOT MINIMUM IMPULSE MODE.).
001041:                                                                                                  #               2. MOVE CDUX,CDUY,CDUZ INTO CDUXD,CDUYD,CDUZD.
001042:
001043: 43,3016           00004        NOMINIMP           INHINT
001044: 43,3017           44735                           CS       PULSES
001045: 43,3020           70111                           MASK     DAPBOOLS
001046: 43,3021           54111                           TS       DAPBOOLS                              #  PULSES = 0 NOT IN MINIMUM UMPULSE MODE
001047: 43,3022           04674                           TC       IBNKCALL
001048: 43,3023           40153                           CADR     ZATTEROR
001049: 43,3024           02121                           TC       GOPIN
001050:


001052:                                                                                                  #           CREWMANU     VERB 49            DESCRIPTION
001053:                                                                                                  #               START AUTOMATIC ATTITUDE MANEUVER
001054:                                                                                                  #               1. REQUIRE PROGRAM 00 ACTIVE.
001055:                                                                                                  #               2. SET EXT VERB DISPLAY BUSY FLAG.
001056:                                                                                                  #               3. SCHEDULE R62DISP WITH PRIORITY 10.
001057:                                                                                                  #               4. RELEASE EXT VERB DISPLAY.
001058:
001059:                                                                                                  #             R62DISP
001060:                                                                                                  #               1. DISPLAY FLASHING V06,N22.
001061:                                                                                                  #                  RESPONSES
001062:                                                                                                  #                  A. TERMINATE
001063:                                                                                                  #                     1. GO TO GOTOPOOH.
001064:                                                                                                  #                  B. PROCEED
001065:                                                                                                  #                     1. SET 3AXISFLG TO INDICATE MANEUVER IS SPECIFIED BY 3 AXIS.
001066:                                                                                                  #                     2. EXECUTE R60LEM (ATTITUDE MANEUVER).
001067:                                                                                                  #                  C. ENTER
001068:                                                                                                  #                     1. REPEAT FLASHING V06,N22.
001069:
001070: 43,3025           02123        CREWMANU           TC       CHKPOOH                               #  DEMAND POO
001071:
001072: 43,3026           02076                           TC       TESTXACT
001073:
001074: 43,3027           34737                           CAF      PRIO10
001075: 43,3030           05105                           TC       FINDVAC
001076: 43,3031  E6,1674                                  EBANK=   BCDU
001077: 43,3031           02065 46106                     2CADR    R62DISP
001078: 43,3033           05155                           TC       ENDOFJOB
001079:


001081:                                                                                                  #  TRMTRACK     VERB 56                     DESCRIPTION
001082:                                                                                                  #               TERMINATE TRACKING (P20 AND P25).
001083:                                                                                                  #               1. KNOCK DOWN RENDEZVOUS, TRACK, AND UPDATE FLAGS.
001084:                                                                                                  #               2. REQUIRE P20 OR  P25 NOT RUNNING ALONE OR GO TO GOTOPOOH (REQUEST PROGRAM 00).
001085:                                                                                                  #               3. SCHEDULE V56TOVAC WITH PRIORITY 30.
001086:
001087:                                                                                                  #               V56TOVAC
001088:                                                                                                  #               1. EXECUTE INTSTALL (IF INTEGRATION IS RUNNING, STALL UNTIL IT IS FINISHED.).
001089:                                                                                                  #               2. ZERO GROUP 2 TO HALT P20.
001090:                                                                                                  #               3. TRANSFER CONTROL TO GOPROG2 (SOFTWARE RESTART).
001091:
001092: 43,3034           33052        TRMTRACK           CA       BITS9+7                               #  IS REND OR P25 FLAG ON
001093: 43,3035           70074                           MASK     FLAGWRD0
001094: 43,3036           00006                           EXTEND
001095: 43,3037           12121                           BZF      GOPIN                                 #  NO
001096:
001097: 43,3040           05516                           TC       DOWNFLAG
001098: 43,3041           00010                           ADRES    RNDVZFLG
001099:
001100: 43,3042           05516                           TC       DOWNFLAG
001101: 43,3043           00006                           ADRES    P25FLAG
001102:
001103: 43,3044           34747                           CA       TRACKBIT                              #  IS TRACK FLAG ON?
001104: 43,3045           70075                           MASK     FLAGWRD1
001105: 43,3046           00006                           EXTEND
001106: 43,3047           12121                           BZF      GOPIN
001107:
001108: 43,3050           04635                           TC       POSTJUMP
001109: 43,3051           64054                           CADR     TRMTRAK1
001110:
001111: 43,3052           00500        BITS9+7            OCT      500
001112:
001113: 42,2000                                           SETLOC   SBAND                                 #  BANK 42
001114: 42,2000                                           BANK
001115:
001116: 42,2054                                           COUNT*   $$/EXTVB
001117:
001118: 42,2054           05516        TRMTRAK1           TC       DOWNFLAG
001119: 42,2055           00027                           ADRES    UPDATFLG                              #  UPDATE FLAG DOWN
001120: 42,2056           05516                           TC       DOWNFLAG
001121: 42,2057           00031                           ADRES    TRACKFLG                              #  TRACK FLAG DOWN
001122: 42,2060           05516                           TC       DOWNFLAG
001123: 42,2061           00007                           ADRES    IMUSE
001124:
001125: 42,2062           06036                           TC       INTPRET
001126: 42,2063           77624                           CALL
001127: 42,2064           27412                                    INTSTALL                              #  DONT INTERRUPT INTEGRATION
001128: 42,2065           77776                           EXIT
001129:
001130: 42,2066           05353                           TC       PHASCHNG
001131:


001133: 42,2067           00002                           OCT      2                                     #  KILL GROUP 2 TO HALT P20 ACTIVITY
001134:
001135: 42,2070           00004                           INHINT
001136: 42,2071           04674                           TC       IBNKCALL                              #  ZERO THE COMMANDED RATES TO STOP
001137: 42,2072           40165                           CADR     STOPRATE                              #  MANEUVER
001138:
001139: 42,2073           04674                           TC       IBNKCALL
001140: 42,2074           40123                           CADR     RESTORDB
001141:
001142: 42,2075           06011                           TC       CLRADMOD                              #  CLEAR BITS 10 + 15 OF RADMODES.
001143:
001144: 42,2076           44736                           CS       BIT14                                 #  DISABLE LOCKON
001145: 42,2077           00006                           EXTEND
001146: 42,2100           03012                           WAND     CHAN12
001147: 42,2101           04635                           TC       POSTJUMP
001148: 42,2102           12771                           CADR     GOPROG2                               #  CAUSE RESTART.
001149:
001150:                                                                                                  #           DNEDUMP     VERB 74             DESCRIPTION
001151:                                                                                                  #               INITIALIZE DOWN-TELEMETRY PROGRAM FOR ERASABLE MEMORY DUMP.
001152:                                                                                                  #               1. SET EXT VERB DISPLAY BUSY FLAG.
001153:                                                                                                  #               2. REPLACE CURRENT DOWNLIST WITH ERASABLE MEMORY.
001154:                                                                                                  #               3. RELEASE EXT VERB DISPLAY.
001155:
001156: 43,2000                                           SETLOC   EXTVERBS
001157: 43,2000                                           BANK
001158:
001159: 43,3053                                           COUNT*   $$/EXTVB
001160:
001161: 43,3053     0400                                  EBANK=   400
001162: 43,3053           33056        DNEDUMP            CAF      LDNDUMPI
001163: 43,3054           54335                           TS       DNTMGOTO
001164: 43,3055           02121                           TC       GOPIN
001165:
001166: 43,3056  43,3053               V74                EQUALS   DNEDUMP
001167: 43,3056           03631        LDNDUMPI           REMADR   DNDUMPI
001168:
001169:
001170:                                                                                                  #           LEMVEC     VERB 80              DESCRIPTION
001171:                                                                                                  #               UPDATE LEM STATE VECTOR
001172:                                                                                                  #                  RESET VEHUPFLG TO 0
001173:
001174: 43,3057           05516        LEMVEC             TC       DOWNFLAG
001175: 43,3060           00026                           ADRES    VEHUPFLG                              #  VB 80 - VEHUPFLG DOWN INDICATES LEM
001176:
001177: 43,3061           03064                           TC       NOUPDOWN
001178:                                                                                                  #           CSMVEC     VERB 81              DESCRIPTION
001179:                                                                                                  #               UPDATE CSM STATE VECTOR
001180:                                                                                                  #                  SET   VEHUPFLG TO 1
001181:
001182: 43,3062           05504        CSMVEC             TC       UPFLAG
001183:


001185: 43,3063           00026                           ADRES    VEHUPFLG                              #  VB 81 - VEHUPFLG UP INDICATES CSM
001186:
001187: 43,3064           05516        NOUPDOWN           TC       DOWNFLAG
001188: 43,3065           00030                           ADRES    NOUPFLAG
001189:
001190: 43,3066           12121                           TCF      GOPIN
001191:
001192:                                                                                                  #           UPDATOFF   VERB 95      DESCRIPTION
001193:                                                                                                  #               INHIBIT STATE VECTOR UPDATES BY INCORP
001194:                                                                                                  #                  SET NOUPFLAG TO 1
001195:
001196: 43,3067           05504        UPDATOFF           TC       UPFLAG                                #  VB 95 SET NOUPFLAG
001197: 43,3070           00030                           ADRES    NOUPFLAG
001198:
001199: 43,3071           02121                           TC       GOPIN
001200:


001202:                                                                                                  #           SYSTEST     VERB 92             DESCRIPTION
001203:                                                                                                  #             OPERATE IMU PERFORMANCE TEST.
001204:                                                                                                  #               1. REQUIRE PROGRAM 00 OR TURN ON OPERATOR ERROR.
001205:                                                                                                  #               2. SET EXT VERB BUSY FLAG.
001206: 43,3072  E5,1417                                  EBANK=   QPLACE
001207:
001208: 43,3072           02123        SYSTEST            TC       CHKPOOH                               #  DEMAND POO
001209:
001210: 43,3073           02076                           TC       TESTXACT
001211:
001212: 43,3074           37707                           CAF      PRIO22
001213: 43,3075           05105                           TC       FINDVAC
001214: 43,3076  E5,1417                                  EBANK=   QPLACE
001215: 43,3076  37,2000                                  SBANK=   IMUSUPER
001216: 43,3076           02002 76065                     2CADR    REDO
001217:
001218: 43,3100           05155                           TC       ENDOFJOB
001219:
001220:                                                                                                  #  VERB 93         CLEAR RENDWFLG, CAUSES W-MATRIX TO BE RE-INITIALIZED.
001221:
001222: 43,3101           00004        WMATRXNG           INHINT
001223: 43,3102           44753                           CS       RENDWBIT
001224: 43,3103           70101                           MASK     FLAGWRD5
001225: 43,3104           54101                           TS       FLAGWRD5
001226:
001227: 43,3105           02121                           TC       GOPIN
001228:
001229: 43,3106  43,3106               GOSHOSUM           EQUALS   SHOWSUM
001230:
001231: 43,3106           02123        SHOWSUM            TC       CHKPOOH                               #  *
001232: 43,3107           02076                           TC       TESTXACT                              #  *
001233: 43,3110           35021                           CAF      PRIO7                                 #  ALLOW OTHER CHARINS.
001234: 43,3111           05146                           TC       PRIOCHNG
001235: 43,3112           34753                           CAF      S+1                                   #  *
001236: 43,3113           55376                           TS       SKEEP6                                #  * SHOWSUM OPTION
001237: 43,3114           34755                           CAF      S+ZERO                                #  *
001238: 43,3115           55362                           TS       SMODE                                 #  * TURN OFF SELF-CHECK
001239: 43,3116           33253                           CA       SELFADRS                              #  *
001240: 43,3117           55361                           TS       SELFRET                               #  *
001241: 43,3120           03530                           TC       STSHOSUM                              #  * ENTER ROPECHK
001242:
001243: 43,3121           23372        SDISPLAY           LXCH     SKEEP2                                #  * BANK # FOR DISPLAY
001244: 43,3122           23373                           LXCH     SKEEP3                                #  * BUGGER WORD FOR DISPLAY
001245: 43,3123           33252        NOKILL             CA       ADRS1                                 #  *
001246: 43,3124           54156                           TS       MPAC       +2                         #  *
001247: 43,3125           33136                           CA       VNCON                                 #  * 0501
001248: 43,3126           04616                           TC       BANKCALL                              #  *
001249: 43,3127           20212                           CADR     GOXDSPF                               #  *
001250: 43,3130           03133                           TC       +3                                    #  *
001251: 43,3131           03641                           TC       NXTBNK                                #  *
001252:


001254: 43,3132           03123                           TC       NOKILL                                #  *
001255: 43,3133           33253                           CA       SELFADRS
001256: 43,3134           55371                           TS       SKEEP1
001257:
001258: 43,3135           05472                           TC       ENDEXT                                #  *
001259:
001260: 43,3136           01201        VNCON              VN       501                                   #  *
001261:
001262: 43,3137           31376        ENDSUMS            CA       SKEEP6                                #  *
001263: 43,3140           00006                           EXTEND                                         #  *
001264: 43,3141           13344                           BZF      SELFCHK                               #  * ROPECHK, START SELFCHK AGAIN.
001265: 43,3142           03530                           TC       STSHOSUM                              #  * START SHOWSUM AGAIN.
001266:


001268:                                                                                                  #           DAPDISP     VERB 48             DESCRIPTION
001269:                                                                                                  #               LOAD AUTO PILOT  DATA
001270:                                                                                                  #               1. REQUIRE EXT VERB DISPLAY AVAILABLE AND SET BUSY FLAG.
001271:                                                                                                  #               2. EXECUTE DAPDATA1, DAPDATA2, AND DAPDATA3.
001272:                                                                                                  #               3. RELEASE EXT VERB DISPLAY SYSTEM.
001273: 43,3143           02076        DAPDISP            TC       TESTXACT
001274: 43,3144           35021                           CAF      PRIO7                                 #  R03
001275: 43,3145           05146                           TC       PRIOCHNG
001276: 43,3146           04635                           TC       POSTJUMP
001277: 43,3147           40004                           CADR     DAPDATA1
001278: 34,2000                                           BANK     34
001279: 20,2000                                           SETLOC   LOADDAP
001280: 20,2000                                           BANK
001281:
001282: 20,2004                                           COUNT*   $$/R03
001283:
001284: 20,2004  30,2000                                  SBANK=   LOWSUPER                              #  FOR SUBSEQUENT LOW 2CADR'S.
001285:
001286: 20,2004           32114        DAPDATA1           CAF      BOOLSMSK                              #  SET DISPLAY ACCORDING TO DAPBOOLS BITS.
001287: 20,2005           70111                           MASK     DAPBOOLS                              #  LM
001288: 20,2006           55343                           TS       DAPDATR1                              #  LM
001289: 20,2007           40106                           CS       FLGWRD10                              #  SET BIT 14 TO BE COMPLEMENT OF APSFLAG.
001290: 20,2010           74737                           MASK     APSFLBIT
001291: 20,2011           10000                           CCS      A
001292: 20,2012           34736                           CAF      BIT14
001293: 20,2013           27343                           ADS      DAPDATR1
001294: 20,2014           31343        CHKDATA1           CAE      DAPDATR1                              #  IF BITS 13 AND 14 ARE BOTH ZERO, FORCE
001295: 20,2015           74355                           MASK     BIT13-14                              #    A ONE INTO BIT 13.
001296: 20,2016           00006                           EXTEND
001297: 20,2017           12034                           BZF      FORCEONE
001298: 20,2020           31343                           CAE      DAPDATR1                              #  ENSURE THAT NO ILLEGAL BITS SET BY CREW.
001299: 20,2021           72113        MSKDATR1           MASK     DSPLYMSK
001300: 20,2022           55343                           TS       DAPDATR1
001301: 20,2023           32112                           CAF      V01N46                                #  LM
001302: 20,2024           04616                           TC       BANKCALL
001303: 20,2025           20231                           CADR     GOXDSPFR
001304: 20,2026           15472                           TCF      ENDEXT                                #  V34E  TERMINATE
001305: 20,2027           12037                           TCF      DPDAT1                                #  V33E  PROCEED
001306: 20,2030           12014                           TCF      CHKDATA1                              #  E     NEW DATA    CHECK AND REDISPLAY
001307: 20,2031           36241                           CAF      REVCNT                                #  BITS 2 & 3:  BLANKS R2 & R3.
001308: 20,2032           05464                           TC       BLANKET
001309: 20,2033           15155                           TCF      ENDOFJOB
001310: 20,2034           34737        FORCEONE           CAF      BIT13
001311: 20,2035           27343                           ADS      DAPDATR1
001312: 20,2036           12021                           TCF      MSKDATR1
001313:
001314: 20,2037           00004        DPDAT1             INHINT                                         #  INHINT FOR SETTING OF FLAG BITS AND MASS
001315: 20,2040           44737                           CS       APSFLBIT                              #    ON BASIS OF DISPLAYED DAPDATR1.
001316: 20,2041           70106                           MASK     FLGWRD10
001317: 20,2042           54001                           TS       L                                     #  SET APSFLAG TO BE COMPLEMENT OF BIT 14.
001318:


001320: 20,2043           41343                           CS       DAPDATR1
001321: 20,2044           74736                           MASK     BIT14
001322: 20,2045           10000                           CCS      A
001323: 20,2046           34737                           CAF      APSFLBIT
001324: 20,2047           60001                           AD       L
001325: 20,2050           54106                           TS       FLGWRD10
001326: 20,2051           41343                           CS       DAPDATR1                              #  SET BITS OF DAPBOOLS ON BASIS OF DISPLAY
001327: 20,2052           74355                           MASK     BIT13-14                              #    MASK OUT CSMDOCKD (BIT 13) UNLESS BOTH
001328: 20,2053           10000                           CCS      A                                     #    13 AND 14 ARE SET.
001329: 20,2054           44737                           CS       CSMDOCKD
001330: 20,2055           62114                           AD       BOOLSMSK
001331: 20,2056           71343                           MASK     DAPDATR1
001332: 20,2057           54001                           TS       L
001333: 20,2060           42114                           CS       BOOLSMSK
001334: 20,2061           70111                           MASK     DAPBOOLS
001335: 20,2062           60001                           AD       L
001336: 20,2063           54111                           TS       DAPBOOLS
001337: 20,2064           74737                           MASK     CSMDOCKD                              #  LOAD MASS IN ACCORDANCE WITH CSMDOCKD.
001338: 20,2065           10000                           CCS      A                                     #    MASS IS USUALLY ALREADY OKAY, SO DO
001339: 20,2066           31332                           CAE      CSMMASS                               #    NOT TOUCH ITS LOW-ORDER PART.
001340: 20,2067           61331                           AD       LEMMASS
001341: 20,2070           55244                           TS       MASS
001342: 20,2071           30111                           CAE      DAPBOOLS
001343: 20,2072           74741                           MASK     ACC4OR2X                              #  2 OR 4 JET X-TRANSLATION
001344: 20,2073           00006                           EXTEND                                         #  (BIT ACC4OR2X = 1 FOR 4 JETS)
001345: 20,2074           12101                           BZF      +5
001346: 20,2075           44735                           CS       BIT15
001347: 20,2076           70075                           MASK     FLAGWRD1                              #  CLEAR NJTSFLAG TO 0 FOR 4 JETS
001348: 20,2077           54075                           TS       FLAGWRD1
001349: 20,2100           12104                           TCF      +4
001350: 20,2101           40075                           CS       FLAGWRD1                              #  SET NJTSFLAG TO 1 FOR 2 JETS
001351: 20,2102           74735                           MASK     BIT15
001352: 20,2103           26075                           ADS      FLAGWRD1
001353: 20,2104           30111                           CA       DAPBOOLS                              #  SELECT DESIRED KALCMANU AUTOMATIC
001354: 20,2105           76244                           MASK     THREE                                 #  MANEUVER RATE
001355: 20,2106           60000                           DOUBLE                                         #  RATEINDX HAS TO BE 0,2,4,6 SINCE RATES
001356: 20,2107           55325                           TS       RATEINDX                              #  ARE DP
001357: 20,2110           04635                           TC       POSTJUMP
001358: 20,2111           02203                           CADR     STIKLOAD
001359:
001360: 20,2112           00256        V01N46             VN       0146
001361: 20,2113           33113        DSPLYMSK           OCT      33113
001362: 20,2114           13113        BOOLSMSK           OCT      13113
001363: 01,2203                                           BANK     01
001364: 01,2000                                           SETLOC   LOADDAP1
001365: 01,2000                                           BANK
001366:
001367: 01,2203                                           COUNT*   $$/R03
001368:
001369: 01,2203           35015        STIKLOAD           CAF      EBANK6
001370:


001372: 01,2204           54003                           TS       EBANK
001373: 01,2205  E6,1442                                  EBANK=   STIKSENS
001374: 01,2205           34745                           CA       RHCSCALE                              #  SET STICK SENSITIVITY TO CORRESPOND TO A
001375: 01,2206           70111                           MASK     DAPBOOLS                              #  MAXIMUM COMMANDED RATE (AT 42 COUNTS) OF
001376: 01,2207           10000                           CCS      A                                     #  20 D/S(NORMAL) OR 4 D/S(FINE), SCALED
001377: 01,2210           32334                           CA       NORMAL                                #  AT 45 D/S.
001378: 01,2211           62335                           AD       FINE
001379: 01,2212           55442                           TS       STIKSENS
001380: 01,2213           32337                           CA       -0.6D/S
001381: 01,2214           55474                           TS       -RATEDB                               #  LM-ONLY BREAKOUT LEVEL IS .6 D/S.
001382: 01,2215           34737                           CA       CSMDOCKD                              #  IF CSM-DOCKED, DIVIDE STICK SENSITIVITY
001383: 01,2216           70111                           MASK     DAPBOOLS                              #  BY 10. NORMAL SCALING IS THEN 2 D/S AND
001384: 01,2217           00006                           EXTEND                                         #  FINE SCALING IS 0.4 D/S
001385: 01,2220           12227                           BZF      +7                                    #  BRANCH IF CSM IS NOT DOCKED.
001386: 01,2221           31442                           CA       STIKSENS
001387: 01,2222           00006                           EXTEND
001388: 01,2223           72336                           MP       1/10
001389: 01,2224           55442                           TS       STIKSENS
001390: 01,2225           32340                           CA       -0.3D/S                               #  CSM-DOCKED BREAKOUT LEVEL IS .3 D/S.
001391: 01,2226           55474                           TS       -RATEDB
001392: 01,2227           00003                           RELINT                                         #  PROCEED TO NOUN 47, MASS LOAD,
001393:
001394: 01,2230           32331        DAPDATA2           CAF      V0647
001395: 01,2231           04616                           TC       BANKCALL
001396: 01,2232           20231                           CADR     GOXDSPFR
001397: 01,2233           12241                           TCF      ENDR03                                #  V34E  TERMINATE. FIRST SET DB, DO 1/ACCS
001398: 01,2234           12245                           TCF      DAPDAT2                               #  V33E  PROCEED
001399: 01,2235           12230                           TCF      DAPDATA2                              #        LOAD NEW DATA AND RECYCLE
001400: 01,2236           34751                           CAF      BIT3                                  #  BLANKS R3
001401: 01,2237           05464                           TC       BLANKET                               #             LM
001402: 01,2240           15155                           TCF      ENDOFJOB
001403: 01,2241           00004        ENDR03             INHINT
001404: 01,2242           04674                           TC       IBNKCALL
001405: 01,2243           40123                           CADR     RESTORDB
001406: 01,2244           15472                           TCF      ENDEXT                                #  DOES RELINT
001407:
001408: 01,2245           40106        DAPDAT2            CS       FLGWRD10                              #  DETERMINE STAGE FROM APSFLAG
001409: 01,2246           74737                           MASK     APSFLBIT
001410: 01,2247           10000                           CCS      A
001411: 01,2250           32000                           CA       MINLMD
001412: 01,2251           62001                           AD       MINMINLM
001413: 01,2252           61331                           AD       LEMMASS                               #  LEMMASS MUST BE GREATER THAN EMPTY LEM
001414: 01,2253           00006                           EXTEND
001415: 01,2254           62230                           BZMF     DAPDATA2                              #  ASK FOR NEW MASSES
001416: 01,2255           30111                           CAE      DAPBOOLS
001417: 01,2256           74737                           MASK     CSMDOCKD
001418: 01,2257           00006                           EXTEND
001419: 01,2260           12266                           BZF      LEMALONE                              #  SKIP TEST ON CSMMASS IF NOT DOCKED.
001420: 01,2261           44741                           CS       MINCSM                                #  TEST CSM MASS
001421: 01,2262           61332                           AD       CSMMASS                               #  CSMMASS MUST BE GREATER THAN EMPTY CSM
001422:


001424: 01,2263           00006                           EXTEND
001425: 01,2264           62230                           BZMF     DAPDATA2                              #  ASK FOR NEW MASSES
001426: 01,2265           31332                           CAE      CSMMASS                               #  DOCKED:  MASS = CSMMASS + LEMMASS
001427: 01,2266           61331        LEMALONE           AD       LEMMASS                               #  LEM ALONE:  MASS = LEMMASS
001428: 01,2267           22007                           ZL
001429: 01,2270           53245                           DXCH     MASS
001430: 01,2271           00004                           INHINT
001431: 01,2272           04674                           TC       IBNKCALL                              #  SET DEADBANK AND COMPUTE MOMENTS OF
001432: 01,2273           40123                           CADR     RESTORDB                              #    INERTIA.
001433: 01,2274           00003                           RELINT                                         #  PROCEED TO NOUN 48 (OR END).
001434:
001435: 01,2275           40106        DAPDATA3           CS       FLGWRD10
001436: 01,2276           74737                           MASK     APSFLBIT
001437: 01,2277           00006                           EXTEND                                         #  END ROUTINE IF LEM HAS STAGED,
001438: 01,2300           15472                           BZF      ENDEXT
001439: 01,2301           32332                           CAF      V06N48                                #  DISPLAY TRIM ANGLES AND REQUEST RESPONSE
001440: 01,2302           04616                           TC       BANKCALL
001441: 01,2303           20231                           CADR     GOXDSPFR
001442: 01,2304           05472                           TC       ENDEXT
001443: 01,2305           12312                           TCF      DPDAT3                                #  V33E GO DO TRIM (WAITLIST TO TRIMGIMB)
001444: 01,2306           12301                           TCF      -5                                    #       LOAD NEW DATA AND RECYCLE
001445: 01,2307           34751                           CAF      BIT3
001446: 01,2310           05464                           TC       BLANKET                               #  BLANK R3
001447: 01,2311           15155                           TCF      ENDOFJOB
001448: 01,2312           34753        DPDAT3             CAF      BIT1                                  #  GO TO TRIMGIMB VIA WAITLIST SO IT
001449: 01,2313           00004                           INHINT                                         #  CAN USE FIXDELAY AND VARDELAY
001450: 01,2314           05203                           TC       WAITLIST
001451: 01,2315  E6,1401                                  EBANK=   ROLLTIME
001452: 01,2315           03106 56066                     2CADR    TRIMGIMB
001453: 01,2317           15155                           TCF      ENDOFJOB                              #  DOES A RELINT
001454: 01,2320           32333        TRIMDONE           CAF      V50N48
001455: 01,2321           04616                           TC       BANKCALL                              #  TRIM IS FINISHED; PLEASE TERMINATE R03
001456: 01,2322           20237                           CADR     GOMARK3R
001457: 01,2323           05472                           TC       ENDEXT                                #  V34E TERMINATE
001458: 01,2324           05472                           TC       ENDEXT
001459: 01,2325           05472                           TC       ENDEXT
001460: 01,2326           36007                           CAF      OCT24                                 #  BIT5 TO CHANGE TO PERFORM, 3 TO BLANK R3
001461: 01,2327           05464                           TC       BLANKET
001462: 01,2330           15155                           TCF      ENDOFJOB
001463:
001464: 01,2331           01457        V0647              VN       0647
001465: 01,2332           01460        V06N48             VN       0648
001466:
001467: 01,2333           14460        V50N48             VN       5048
001468: 01,2334           25101        NORMAL             DEC      .660214
001469:                                                                                                  #  NORMAL SCALING IS 20 D/S
001470: 01,2335           05220        FINE               DEC      .165054                               #  FINE STICK SCALING (4 D/S).
001471: 01,2336           03146        1/10               DEC      .1                                    #  FACTOR FOR CSM-DOCKED SCALING
001472: 01,2337           77445        -0.6D/S            DEC      -218       B-14
001473:


001475:
001476: 01,2340           77622        -0.3D/S            DEC      -109       B-14
001477:


001479:                                                                                                  #  VERB 66.  VEHICLES ARE ATTACHED.  MOVE THIS VEHICLE STATE VECTOR TO
001480:                                                                                                  #            OTHER VEHICLE STATE VECTOR.
001481:
001482:                                                                                                  #      USE SUBROUTINE GENTRAN.
001483:
001484: 07,2667                                           BANK     7
001485: 43,2000                                           SETLOC   EXTVERBS
001486: 43,2000                                           BANK
001487:
001488: 43,3150                                           COUNT*   $$/EXTVB
001489:
001490: 43,3150  E3,1626                                  EBANK=   RRECTHIS
001491:
001492: 43,3150           34737        ATTACHED           CAF      PRIO10
001493: 43,3151           05105                           TC       FINDVAC
001494: 43,3152  E3,1626                                  EBANK=   RRECTHIS
001495:
001496: 43,3152           03155 66103                     2CADR    ATTACHIT
001497:
001498: 43,3154           05155                           TC       ENDOFJOB
001499:
001500: 43,3155           06036        ATTACHIT           TC       INTPRET
001501: 43,3156           77624                           CALL
001502: 43,3157           27412                                    INTSTALL
001503: 43,3160           43014                           SET      BON
001504: 43,3161           04063                                    MOONOTH
001505: 43,3162           04304                                    MOONTHIS
001506: 43,3163           67166                                    +3
001507: 43,3164           77614                           CLEAR
001508: 43,3165           04263                                    MOONOTH
001509: 43,3166           77776                           EXIT
001510: 43,3167           33212                           CAF      OCT51
001511: 43,3170           05544                           TC       GENTRAN
001512: 43,3171           01626                           ADRES    RRECTHIS                              #  OUR STATE VECTOR INTO OTHER VIA GENTRAN
001513: 43,3172           01554                           ADRES    RRECTOTH
001514:
001515: 43,3173           00003                           RELINT
001516: 43,3174           06036                           TC       INTPRET
001517: 43,3175           77624                           CALL                                           #  UPDATE R-OTHER, V-OTHER
001518: 43,3176           26760                                    PTOALEM
001519: 43,3177           45154                           LXA,2    CALL
001520: 43,3200           02030                                    PBODY
001521: 43,3201           26114                                    SVDWN1
001522: 43,3202           77776                           EXIT
001523:
001524: 43,3203           33213                           CAF      TCPINAD
001525: 43,3204           50120                           INDEX    FIXLOC
001526: 43,3205           54052                           TS       QPRET
001527: 43,3206           04635                           TC       POSTJUMP
001528: 43,3207           27427                           CADR     INTWAKE                               #  FREE INTEGRATION AND EXIT.
001529:


001531:
001532: 43,3210           77634        TCPIN              RTB
001533: 43,3211           20723                                    PINBRNCH
001534:
001535: 43,3212           00051        OCT51              OCT      51
001536: 43,3213           67210        TCPINAD            CADR     TCPIN
001537:
001538:                                                                                                  #  VERB 96  SET QUITFLAG TO STOP INTEGRATION.
001539:
001540:                                                                                                  #           GO TO V37 WITH ZERO TO CAUSE POO.
001541:                                                                                                  #           STATEINT WILL CHECK QUITFLAG AND SKIP 1ST PASS,
001542:                                                                                                  #                  THUS ALLOWING A 10 MINUTE PERIOD WITHOUT INTEGRATION.
001543:
001544: 43,3214           05504        VERB96             TC       UPFLAG                                #  QUITFLAG WILL CAUSE INTEGRATION TO EXIT
001545: 43,3215           00221                           ADRES    QUITFLAG                              #        AT NEXT TIMESTEP
001546:
001547: 43,3216           34755                           CAF      ZERO
001548: 43,3217           04635                           TC       POSTJUMP
001549: 43,3220           10037                           CADR     V37                                   #  GO TO POO
001550:
001551:
001552:                                                                                                  #  VERB 67:     DISPLAY OF W MATRIX
001553:
001554: 43,3221           02076        V67                TC       TESTXACT
001555: 43,3222           35017                           CAF      PRIO5
001556: 43,3223           05105                           TC       FINDVAC
001557: 43,3224  E4,1604                                  EBANK=   WWPOS
001558: 43,3224           02011 62064                     2CADR    V67CALL
001559:
001560: 43,3226           05155                           TC       ENDOFJOB
001561:
001562:                                                                                                  #  VERB 65          DISABLE U,V JETS DURING DPS BURNS
001563:
001564: 43,3227           05504        SNUFFOUT           TC       UPFLAG
001565: 43,3230           00115                           ADRES    SNUFFER
001566: 43,3231           02121                           TC       GOPIN
001567:
001568:                                                                                                  #  VERB 75          ENABLE U,V JETS DURING DPS BURNS
001569:
001570: 43,3232           05516        OUTSNUFF           TC       DOWNFLAG
001571: 43,3233           00115                           ADRES    SNUFFER
001572: 43,3234           02121                           TC       GOPIN
001573:                                                                                                  #  VERB 85         DISPLAY RR LOS AZIMUTH AND ELEVATION.
001574:
001575:                                                                                                  #           AZIMUTH IS THE ANGLE BETWEEN THE LOS AND THE X-Z NB PLANE, 0 - 90 DEG IN THE +Y HEMISPHERE,
001576:                                                                                                  #  360 - 270 DEG IN THE -Y HEMISPHERE.
001577:
001578:                                                                                                  #           ELEVATION IS THE ANGLE BETWEEN +ZNB AND THE PROJECTION OF THE LOS INTO THE X-Z PLANE, 0 - 360 ABOUT +Y.
001579:
001580: 43,3235  E7,1750                                  EBANK=   TANGNB
001581:


001583: 43,3235           02076        VERB85             TC       TESTXACT
001584: 43,3236           04635                           TC       POSTJUMP
001585: 43,3237           60000                           CADR     DSPRRLOS
001586:
001587: 40,2000                                           SETLOC   PINBALL1
001588: 40,2000                                           BANK
001589:
001590: 40,2000                                           COUNT*   $$/EXTVB
001591:
001592: 40,2000           35017        DSPRRLOS           CAF      PRIO5
001593: 40,2001           05105                           TC       FINDVAC
001594: 40,2002  E7,1750                                  EBANK=   TANGNB
001595: 40,2002           02017 60107                     2CADR    RRLOSDSP
001596: 40,2004           34740                           CAF      PRIO4
001597: 40,2005           05146                           TC       PRIOCHNG
001598: 40,2006           32076                           CAF      V16N56
001599: 40,2007           04616                           TC       BANKCALL
001600: 40,2010           20231                           CADR     GOMARKFR
001601: 40,2011           05563                           TC       B5OFF
001602: 40,2012           05563                           TC       B5OFF
001603: 40,2013           05563                           TC       B5OFF
001604:
001605: 40,2014           34751                           CAF      BIT3
001606: 40,2015           05464                           TC       BLANKET
001607: 40,2016           05155                           TC       ENDOFJOB
001608:
001609: 40,2017           00006        RRLOSDSP           EXTEND
001610: 40,2020           30036                           DCA      CDUT
001611: 40,2021           53751                           DXCH     TANGNB
001612: 40,2022           06036                           TC       INTPRET
001613: 40,2023           77624                           CALL
001614: 40,2024           46041                                    RRNB                                  #  GET RR LOS IN BODY AXES.
001615: 40,2025           00001                           STORE    0D                                    #  UNIT LOS
001616: 40,2026           14007                           STODL    6D
001617: 40,2027           06424                                    HI6ZEROS
001618: 40,2030           24011                           STOVL    8D
001619: 40,2031           00007                                    6D
001620: 40,2032           77656                           UNIT
001621: 40,2033           00007                           STORE    6D                                    #  UNIT OF LOS PROJ IN X-Z PLANE
001622: 40,2034           77641                           DOT
001623: 40,2035           06416                                    UNITZ
001624: 40,2036           24021                           STOVL    COSTH                                 #  16D
001625: 40,2037           06422                                    UNITX
001626: 40,2040           77641                           DOT
001627: 40,2041           00007                                    6D
001628: 40,2042           34023                           STCALL   SINTH                                 #  18D
001629: 40,2043           47222                                    ARCTRIG
001630: 40,2044           43244                           BPL      DAD                                   #  INSURE DISPLAY OF 0 - 360 DEG.
001631: 40,2045           60047                                    +2
001632:


001634: 40,2046           06432                                    DPPOSMAX                              #  INTRODUCES AN ERROR OF B-28 REVS.
001635: 40,2047           26207                           STOVL    RR-ELEV
001636: 40,2050           00001                                    0D
001637: 40,2051           77641                           DOT
001638: 40,2052           06420                                    UNITY
001639: 40,2053           24023                           STOVL    SINTH
001640: 40,2054           00001                                    0D
001641: 40,2055           77641                           DOT
001642: 40,2056           00007                                    6D
001643: 40,2057           34021                           STCALL   COSTH
001644: 40,2060           47222                                    ARCTRIG
001645: 40,2061           43244                           BPL      DAD                                   #  INSURE DISPLAY OF 0 - 360 DEG.
001646: 40,2062           60064                                    +2
001647: 40,2063           06432                                    DPPOSMAX                              #  INTRODUCES AN ERROR OF B-28 REVS.
001648: 40,2064           02205                           STORE    RR-AZ
001649: 40,2065           77776                           EXIT
001650: 40,2066           34777                           CA       1SEC
001651: 40,2067           04616                           TC       BANKCALL
001652: 40,2070           01735                           CADR     DELAYJOB
001653:
001654: 40,2071           34747                           CA       BIT5
001655: 40,2072           71044                           MASK     EXTVBACT
001656: 40,2073           10000                           CCS      A
001657: 40,2074           02017                           TC       RRLOSDSP
001658: 40,2075           05472                           TC       ENDEXT
001659:
001660: 40,2076           04070        V16N56             VN       1656

End of include-file EXTENDED_VERBS.agc.  Parent file is MAIN.agc


