
Source Code


000002:                                                                                                  ## Copyright:   Public domain.
000003:                                                                                                  ## Filename:    FINDCDUW_-_GUIDAP_INTERFACE.agc
000004:                                                                                                  ## Purpose:     The main source file for Luminary revision 069.
000005:                                                                                                  ##              It is part of the source code for the original release
000006:                                                                                                  ##              of the flight software for the Lunar Module's (LM) Apollo
000007:                                                                                                  ##              Guidance Computer (AGC) for Apollo 10. The actual flown
000008:                                                                                                  ##              version was Luminary 69 revision 2, which included a
000009:                                                                                                  ##              newer lunar gravity model and only affected module 2.
000010:                                                                                                  ##              This file is intended to be a faithful transcription, except
000011:                                                                                                  ##              that the code format has been changed to conform to the
000012:                                                                                                  ##              requirements of the yaYUL assembler rather than the
000013:                                                                                                  ##              original YUL assembler.
000014:                                                                                                  ## Reference:   pp. 907-924
000015:                                                                                                  ## Assembler:   yaYUL
000016:                                                                                                  ## Contact:     Ron Burkey <info@sandroid.org>.
000017:                                                                                                  ## Website:     www.ibiblio.org/apollo/index.html
000018:                                                                                                  ## Mod history: 2016-12-13 MAS  Created from Luminary 99.
000019:                                                                                                  ##              2016-12-18 MAS  Updated from comment-proofed Luminary 99 version.
000020:                                                                                                  ##              2017-01-22 HG   Transcribed
000021:                                                                                                  ##              2017-01-28 RSB  Proofed comment text using octopus/prooferComments
000022:                                                                                                  ##                              and fixed errors found.
000023:


000025:                                                                                                  #  PROGRAM NAME:   FINDCDUW
000026:
000027:                                                                                                  #  MOD NUMBER:     1         68 07 15
000028:
000029:                                                                                                  #  MOD AUTHOR:     KLUMPP
000030:
000031:                                                                                                  #  OBJECTS OF MOD: 1.        TO SUPPLY COMMANDED GIMBAL ANGLES FOR NOUN 22.
000032:                                                                                                  #                  2.        TO MAINTAIN CORRECT AND CURRENT THRUST
000033:                                                                                                  #                            DIRECTION DATA IN ALL MODES.  THIS IS DONE BY
000034:                                                                                                  #                            FETCHING FOR THE THRUST DIRECTION FILTER THE
000035:                                                                                                  #                            CDUD'S IN PNGCS-AUTO, THE CDU'S IN ALL OTHER
000036:                                                                                                  #                            MODES.
000037:                                                                                                  #                  3.        TO SUBSTITUTE A STOPRATE FOR THE NORMAL
000038:                                                                                                  #                            AUTOPILOT COMMANDS WHENEVER
000039:                                                                                                  #                            1) NOT IN PNGCS-AUTO, OR
000040:                                                                                                  #                            2) ENGINE IS OFF.
000041:
000042:                                                                                                  #  FUNCTIONAL DESCRIPTION:
000043:
000044:                                                                                                  #  FINDCDUW PROVIDES THE INTERFACES BETWEEN THE VARIOUS POWERED FLITE GUIDANCE PROGRAMS
000045:                                                                                                  #  AND THE DIGITAL AUTOPILOT.  THE INPUTS TO FINDCDUW ARE THE THRUST COMMAND VECTOR
000046:                                                                                                  #  AND THE WINDOW COMMAND VECTOR, AND THE OUTPUTS ARE THE GIMBAL ANGLE
000047:                                                                                                  #  INCREMENTS, THE COMMANDED ATTITUDE ANGLE RATES, AND THE COMMANDED
000048:                                                                                                  #  ATTITUDE LAG ANGLES (WHICH ACCOUNT FOR THE ANGLES BY WHICH THE BODY WILL
000049:                                                                                                  #  LAG BEHIND A RAMP COMMAND IN ATTITUDE ANGLE DUE TO THE FINITE ANGULAR
000050:                                                                                                  #  ACCELERATIONS AVAILABLE).
000051:
000052:                                                                                                  #  FINDCDUW ALINES THE ESTIMATED THRUST VECTOR FROM THE THRUST DIRECTION
000053:                                                                                                  #  FILTER WITH THE THRUST COMMAND VECTOR, AND, WHEN  XOVINHIB  SET,
000054:                                                                                                  #  ALINES THE +Z HALF OF THE LM ZX PLANE WITH THE WINDOW COMMAND VECTOR.
000055:


000057:                                                                                                  #  SPECIFICATIONS:
000058:
000059:                                                                                                  #  INITIALIZATION: A SINGLE INTERPRETIVE CALL TO  INITCDUW  IS REQUIRED
000060:                                                                                                  #                  BEFORE EACH GUIDED MANEUVER USING FINDCDUW.
000061:
000062:                                                                                                  #  CALL:           INTERPRETIVE CALL TO FINDCDUW WITH THE THRUST COMMAND
000063:                                                                                                  #                  VECTOR IN MPAC.  INTERPRETIVE CALL TO FINDCDUW -2 WITH
000064:                                                                                                  #                  THE THRUST COMMAND VECTOR IN UNFC/2 AND NOT IN MPAC.
000065:
000066:                                                                                                  #  RETURNS:        NORMAL INTERPRETIVE IN ALL CASES
000067:
000068:                                                                                                  #                  1.       NORMALLY ALL AUTOPILOT CMDS ARE ISSUED.
000069:
000070:                                                                                                  #                  2.       IF NOT PNGCS AUTO, DO STOPRATE AND RETURN
000071:                                                                                                  #                           WITHOUT ISSUING AUTOPILOT CMDS.
000072:
000073:                                                                                                  #                  3.       IF ENGINE OFF, DO STOPRATE AND RETURN WITHOUT
000074:                                                                                                  #                           ISSUING AUTOPILOT CMDS.
000075:
000076:                                                                                                  #  ALARMS:         00401 IF INPUTS DETERMINE AN ATTITUDE IN GIMBAL LOCK.
000077:                                                                                                  #                           FINDCDUW DRIVES CDUXD AND CDUYD TO THE RQD VALUES,
000078:                                                                                                  #                           BUT DRIVES CDUZD ONLY TO THE GIMBAL LOCK CONE.
000079:                                                                                                  #                  00402 IF UNFC/2 OR UNWC/2 PRODUCE OVERFLOW WHEN
000080:                                                                                                  #                           UNITIZED USING NORMUNIT.  FINDCDUW ISSUES
000081:                                                                                                  #                           STOPRATE AS ONLY INPUT TO AUTOPILOT.
000082:
000083:                                                                                                  #  INPUTS:         UNFC/2   THRUST COMMAND VECTOR, NEED NOT BE SEMI-UNIT.
000084:                                                                                                  #                  UNWC/2   WINDOW COMMAND VECTOR, NEED NOT BE SEMI-UNIT.
000085:                                                                                                  #                  XOVINHIB FLAG DENOTING X AXIS OVERRIDE INHIBITED.
000086:                                                                                                  #                  CSMDOCKD FLAG DENOTING CSM DOCKED.
000087:                                                                                                  #                  STEERSW  FLAG DENOTING INSUFF THRUST FOR THRUST DIR FLTR.
000088:
000089:                                                                                                  #  OUTPUTS:        DELCDUX,Y,Z
000090:                                                                                                  #                  OMEGAPD,+1,+2
000091:                                                                                                  #                  DELPEROR,+1,+2
000092:                                                                                                  #                  CPHI,+1,+2 FOR NOUN22
000093:
000094:                                                                                                  #  DEBRIS:         FINDCDUW DESTROYS SINCDUX,Y,Z AND COSCDUX,Y,Z BY
000095:                                                                                                  #                  WRITING INTO THESE LOCATIONS THE SINES AND COSINES
000096:                                                                                                  #                  OF THE CDUD'S IN PNGCS-AUTO, OF THE CDU'S OTHERWISE.
000097:


000099:                                                                                                  #  INITIALIZATION FOR FINDCDUW
000100:
000101: 30,3055                                           BANK     30
000102: 30,2000                                           SETLOC   FCDUW
000103: 30,2000                                           BANK
000104:
000105: 30,3055  E6,1644                                  EBANK=   ECDUW
000106:
000107: 30,3055                                           COUNT*   $$/FCDUW
000108:
000109: 30,3055           77775        INITCDUW           VLOAD
000110: 30,3056           06422                                    UNITX
000111: 30,3057           03266                           STORE    UNFV/2
000112: 30,3060           03260                           STORE    UNWC/2
000113: 30,3061           77616                           RVQ
000114:
000115:                                                                                                  #  FINDCDUW PRELIMINARIES
000116:
000117: 30,3062           77775                           VLOAD                                          #  FINDCDUW -2: ENTRY WHEN UNFC/2 PRE-STORD
000118: 30,3063           03252                                    UNFC/2                                #  INPUT VECTORS NEED NOT BE SEMI-UNIT
000119: 30,3064           40200        FINDCDUW           BOV      SETPD                                 #  FINDCDUW: ENTRY WHEN UNFC/2 IN MPAC
000120: 30,3065           61064                                    FINDCDUW                              #  INTERPRETER NOW INITIALIZED
000121: 30,3066           00023                                    22                                    #  LOCS 0 THRU 21 FOR DIRECTION COSINE MAT
000122: 30,3067           77420                           STQ      EXIT
000123: 30,3070           03245                                    QCDUWUSR                              #  SAVE RETURN ADDRESS
000124:
000125:                                                                                                  #  MORE HAUSKEEPING
000126: 30,3071           33732                           CA       ECDUWL
000127: 30,3072           56003                           XCH      EBANK                                 #  SET EBANK
000128: 30,3073           55644                           TS       ECDUWUSR                              #  SAVE USER'S EBANK
000129:
000130: 30,3074           30111                           CA       DAPBOOLS
000131: 30,3075           74737                           MASK     CSMDOCKD                              #  CSMDOCKD MUST NOT BE BIT15
000132: 30,3076           10000                           CCS      A
000133: 30,3077           34753                           CA       ONE                                   #  INDEX IF CSM DOCKED
000134: 30,3100           55646                           TS       NDXCDUW
000135:
000136: 30,3101           34743                           CA       XOVINHIB                              #  XOVINHIB MUST NOT BE BIT15
000137: 30,3102           55650                           TS       FLPAUTNO                              #  SET TO POS-NON-ZERO FLAG PNGCS AUTO NOT
000138:
000139: 30,3103           70111                           MASK     DAPBOOLS
000140: 30,3104           55647                           TS       FLAGOODW                              #  FLAG0ODW = ANY PNZ NUMBER IF XOV INHIBTD
000141:


000143:                                                                                                  #  FETCH BASIC DATA
000144:
000145: 30,3105           00004                           INHINT                                         #  RELINT AT PAUTNO (TC INTPRET)
000146:
000147: 30,3106           30032                           CA       CDUX                                  #  FETCH CDUX,CDUY,CDUZ IN ALL CASES, BUT
000148: 30,3107           54772                           TS       CDUSPOTX                              #       REPLACE BELOW IF PNGCS AUTO
000149: 30,3110           30033                           CA       CDUY
000150: 30,3111           54766                           TS       CDUSPOTY
000151: 30,3112           30034                           CA       CDUZ
000152: 30,3113           54770                           TS       CDUSPOTZ
000153:
000154: 30,3114           34742                           CA       BIT10                                 #  PNGCS CONTROL BIT
000155: 30,3115           00006                           EXTEND
000156: 30,3116           02030                           RAND     CHAN30
000157: 30,3117           10000                           CCS      A
000158: 30,3120           13135                           TCF      PAUTNO                                #  NOT PNGCS (BITS INVERTED)
000159:
000160: 30,3121           34736                           CA       BIT14                                 #  AUTO MODE BIT
000161: 30,3122           00006                           EXTEND
000162: 30,3123           02031                           RAND     CHAN31
000163: 30,3124           10000                           CCS      A
000164: 30,3125           13135                           TCF      PAUTNO                                #  NOT AUTO (BITS INVERTED)
000165:
000166: 30,3126           55650                           TS       FLPAUTNO                              #  RESET FLAG PNGCS AUTO NOT
000167:
000168: 30,3127           31633                           CA       CDUXD                                 #  PNGCS AUTO: FETCH CDUXD,CDUYD,CDUZD
000169: 30,3130           54772                           TS       CDUSPOTX
000170: 30,3131           31634                           CA       CDUYD
000171: 30,3132           54766                           TS       CDUSPOTY
000172: 30,3133           31635                           CA       CDUZD
000173: 30,3134           54770                           TS       CDUSPOTZ
000174:


000176:                                                                                                  #  FETCH INPUTS
000177:
000178: 30,3135           06036        PAUTNO             TC       INTPRET                               #  ENTERING THRUST CMD STILL IN MPAC
000179: 30,3136           77634                           RTB
000180: 30,3137           21700                                    NORMUNIT
000181: 30,3140           24001                           STOVL    UNX/2                                 #  SEMI-UNIT THRUST CMD AS INITIAL UNX/2
000182: 30,3141           03260                                    UNWC/2
000183: 30,3142           47034                           RTB      RTB
000184: 30,3143           21700                                    NORMUNIT
000185: 30,3144           47521                                    QUICTRIG                              #  ALWAYS RQD TO OBTAIN TRIGS OF CDUD'S
000186: 30,3145           24015                           STOVL    UNZ/2                                 #  SEMI-UNIT WINDOW CMD AS INITIAL UNZ/2
000187: 30,3146           00325                                    DELV
000188: 30,3147           53404                           BOVB     UNIT
000189: 30,3150           61721                                    NOATTCNT                              #  AT LEAST ONE ENTERING CMD VCT ZERO
000190: 30,3151           45000                           BOV      CALL
000191: 30,3152           61166                                    AFTRFLTR                              #  IF UNIT DELV OVERFLOWS, SKIP FILTER
000192: 30,3153           47575                                    *SMNB*                                #  YIELDS UNIT(DELV) IN VEH COORDS FOR FLTR
000193:
000194:                                                                                                  #  THRUST DIRECTION FILTER
000195:
000196: 30,3154           77776                           EXIT
000197:
000198: 30,3155           31667                           CA       UNFVY/2                               #  FOR RESTARTS, UNFV/2 ALWAYS INTACT, MPAC
000199: 30,3156           22157                           LXCH     MPAC       +3                         #        RENEWED AFTER RETURN FROM CALLER,
000200: 30,3157           03454                           TC       FLTRSUB                               #        TWO FILTER UPDATES MAY BE DONE.
000201: 30,3160           55667                           TS       UNFVY/2                               #  UNFV/2 NEED NOT BE EXACTLY SEMI-UNIT.
000202:
000203: 30,3161           31671                           CA       UNFVZ/2
000204: 30,3162           22161                           LXCH     MPAC       +5
000205: 30,3163           03454                           TC       FLTRSUB
000206: 30,3164           55671                           TS       UNFVZ/2
000207:
000208: 30,3165           06036                           TC       INTPRET                               #  COMPLETES FILTER
000209:


000211:                                                                                                  #  FIND A SUITABLE WINDOW POINTING VECTOR
000212:
000213: 30,3166           46135        AFTRFLTR           SLOAD    BHIZ                                  #  IF XOV NOT INHIBITED, GO FETCH ZNB
000214: 30,3167           03250                                    FLAGOODW
000215: 30,3170           61174                                    FETCHZNB
000216: 30,3171           45175                           VLOAD    CALL
000217: 30,3172           00015                                    UNZ/2
000218: 30,3173           61474                                    UNWCTEST
000219:
000220: 30,3174           77775        FETCHZNB           VLOAD
000221: 30,3175           02162                                    ZNBPIP
000222: 30,3176           34015                           STCALL   UNZ/2
000223: 30,3177           61474                                    UNWCTEST
000224:
000225: 30,3200           57575                           VLOAD    VCOMP                                 #  Z AND -X CAN'T BOTH PARALLEL UNFC/2
000226: 30,3201           02146                                    XNBPIP
000227: 30,3202           00015                           STORE    UNZ/2
000228:
000229:                                                                                                  #  COMPUTE THE REQUIRED DIRECTION COSINE MATRIX
000230:
000231: 30,3203           47375        DCMCL              VLOAD    VXV
000232: 30,3204           00015                                    UNZ/2
000233: 30,3205           00001                                    UNX/2
000234: 30,3206           41456                           UNIT     PUSH                                  #  UNY/2 FIRST ITERATION
000235: 30,3207           76435                           VXV      VSL1
000236: 30,3210           00001                                    UNX/2
000237: 30,3211           00015                           STORE    UNZ/2                                 #  -UNZ/2 FIRST ITERATION
000238: 30,3212           63361                           VXSC     PDVL                                  #  EXCHANGE -UNFVZ/2 UNZ/2 FOR UNY/2
000239: 30,3213           03272                                    UNFVZ/2                               #  MUST BE SMALL
000240: 30,3214           51361                           VXSC     BVSU                                  #  YIELDS -UNFVY/2 UNY/2-UNFVZ/2 UNZ/2
000241: 30,3215           03270                                    UNFVY/2                               #  MUST BE SMALL
000242: 30,3216           53372                           VSL1     VAD
000243: 30,3217           00001                                    UNX/2
000244: 30,3220           77656                           UNIT                                           #  TOTALLY ELIMINATES THRUST POINTING ERROR
000245: 30,3221           00001                           STORE    UNX/2                                 #  UNX/2
000246: 30,3222           76435                           VXV      VSL1
000247: 30,3223           00015                                    UNZ/2                                 #  -UNZ/2 WAS STORED HERE REMEMBER
000248: 30,3224           00007                           STORE    UNY/2                                 #  UNY/2
000249: 30,3225           47276                           VCOMP    VXV
000250: 30,3226           00001                                    UNX/2
000251: 30,3227           77772                           VSL1
000252: 30,3230           00015                           STORE    UNZ/2                                 #  UNZ/2
000253:


000255:                                                                                                  #  COMPUTE THE REQUIRED GIMBAL ANGLES
000256:
000257: 30,3231           77624                           CALL
000258: 30,3232           61504                                    NB2CDUSP                              #  YIELDS THE RQD GIMBAL ANGLES, 2'S, PI
000259: 30,3233           77776                           EXIT
000260:
000261:                                                                                                  #  LIMIT THE MIDDLE GIMBAL ANGLE & COMPUTE THE UNLIMITED GIMBAL ANGLE CHGS
000262:
000263: 30,3234           30156                           CA       MPAC       +2                         #  LIMIT THE MGA
000264: 30,3235           54001                           TS       L                                     #  CAN'T LXCH: NEED UNLIMITED MGA FOR ALARM
000265: 30,3236           33744                           CA       CDUZDLIM
000266: 30,3237           03700                           TC       LIMITSUB                              #  YIELDS LIMITED MGA. 1 BIT ERROR POSSIBLE
000267: 30,3240           56156                           XCH      MPAC       +2                         #       BECAUSE USING 2'S COMP. WHO CARES?
000268: 30,3241           00006                           EXTEND
000269: 30,3242           20156                           MSU      MPAC       +2                         #  THIS BETTER YIELD ZERO
000270: 30,3243           00006                           EXTEND
000271: 30,3244           13246                           BZF      +2
000272: 30,3245           13727                           TCF      ALARMMGA
000273:
000274: 30,3246           00004        MGARET             INHINT                                         #  RELINT AT TC INTPRET AFTER TCQCDUW
000275:
000276: 30,3247           22007                           ZL
000277: 30,3250           34752                           CA       TWO
000278: 30,3251           54142        DELGMBLP           TS       TEM2
000279:
000280: 30,3252           30001                           CA       L                                     #  TO PREVENT FALSE STARTS ABOUT X, ZERO
000281: 30,3253           00006                           EXTEND                                         #       FLAGOODW IF DELGMBZ OR Y TOO BIG.
000282: 30,3254           70000                           SQUARE
000283: 30,3255           64350                           AD       HI5                                   #  WITHIN 1 BIT OF -(45 DEG SQUARED)
000284: 30,3256           00006                           EXTEND
000285: 30,3257           63262                           BZMF     +3
000286: 30,3260           34755                           CA       ZERO
000287: 30,3261           55647                           TS       FLAGOODW
000288:
000289: 30,3262           50142                           INDEX    TEM2
000290: 30,3263           30154                           CA       MPAC
000291: 30,3264           50142                           INDEX    TEM2
000292: 30,3265           54321                           TS       CPHI                                  #  OUTPUTS TO NOUN22
000293: 30,3266           00006                           EXTEND
000294: 30,3267           50142                           INDEX    TEM2
000295: 30,3270           21633                           MSU      CDUXD                                 #  NO MATTER THAT THESE SLIGHTLY DIFFERENT
000296: 30,3271           40000                           COM                                            #       FROM WHEN WE INITIALLY FETCHED THEM
000297: 30,3272           50142                           INDEX    TEM2
000298: 30,3273           55673                           TS       -DELGMB                               #  -UNLIMITED GIMBAL ANGLE CHGS, 1'S, PI
000299: 30,3274           54001                           TS       L                                     #  FOR PRECEDING TEST ON NEXT LOOP PASS
000300: 30,3275           10142                           CCS      TEM2
000301: 30,3276           13251                           TCF      DELGMBLP
000302:


000304:                                                                                                  #  BRANCHES TO NOATTCNT
000305:
000306: 30,3277           11650                           CCS      FLPAUTNO
000307: 30,3300           13723                           TCF      NOATTCNT   +2                         #  NOT PNGCS AUTO
000308:
000309: 30,3301           30101                           CA       FLAGWRD5
000310: 30,3302           74745                           MASK     ENGONBIT
000311: 30,3303           00006                           EXTEND
000312: 30,3304           13723                           BZF      NOATTCNT   +2                         #  ENGINE NOT ON
000313:


000315:                                                                                                  #  LIMIT THE ATTITUDE ANGLE CHANGES
000316:
000317:                                                                                                  #  THIS SECTION LIMITS THE ATTITUDE ANGLE CHANGES ABOUT A SET OF ORTHOGONAL VEHICLE AXES X,YPRIME,ZPRIME.
000318:                                                                                                  #  THESE AXES COINCIDE WITH THE COMMANDED VEHICLE AXES IF AND ONLY IF CDUXD IS ZERO.  THE PRIME SYSTEM IS
000319:                                                                                                  #  THE COMMANDED VEHICLE SYSTEM ROTATED ABOUT THE X AXIS TO BRING THE Z AXIS INTO ALINEMENT WITH THE MIDDLE GIMBAL
000320:                                                                                                  #  AXIS.  ATTITUDE ANGLE CHANGES IN THE PRIME SYSTEM ARE RELATED TO SMALL GIMBAL ANGLE CHANGES BY:
000321:
000322:                                                                                                  #  * -DELATTX      *   * 1  SIN(CDUZD)  0 * * -DELGMBX *
000323:                                                                                                  #  *               *   *                  * *          *
000324:                                                                                                  #  * -DELATTYPRIME * = * 0  COS(CDUZD)  0 * * -DELGMBY *
000325:                                                                                                  #  *               *   *                  * *          *
000326:                                                                                                  #  * -DELATTZPRIME *   * 0  0           1 * * -DELGMBZ *
000327:
000328: 30,3305           23675                           LXCH     -DELGMB    +2                         #  SAME AS -DELATTZPRIME UNLIMITED
000329: 30,3306           51646                           INDEX    NDXCDUW
000330: 30,3307           33740                           CA       DAZMAX
000331: 30,3310           03700                           TC       LIMITSUB
000332: 30,3311           55675                           TS       -DELGMB    +2                         #  -DELGMBZ
000333:
000334: 30,3312           31674                           CA       -DELGMB    +1
000335: 30,3313           00006                           EXTEND
000336: 30,3314           70746                           MP       COSCDUZ                               #  YIELDS -DELATTYPRIME/2 UNLIMITED
000337: 30,3315           54001                           TS       L
000338: 30,3316           51646                           INDEX    NDXCDUW
000339: 30,3317           33742                           CA       DAY/2MAX
000340: 30,3320           03700                           TC       LIMITSUB
000341: 30,3321           00006                           EXTEND
000342: 30,3322           10746                           DV       COSCDUZ
000343: 30,3323           57674                           XCH      -DELGMB    +1                         #  -DELGMBY, FETCHING UNLIMITED VALUE
000344:
000345: 30,3324           00006                           EXTEND
000346: 30,3325           70740                           MP       SINCDUZ
000347: 30,3326           20001                           DDOUBL
000348: 30,3327           40000                           COM
000349: 30,3330           00006                           EXTEND                                         #  YIELDS +DELATTX UNLIMITD, MAG < 180 DEG,
000350: 30,3331           21673                           MSU      -DELGMB                               #        BASED ON UNLIMITED DELGMBY.
000351: 30,3332           54001                           TS       L                                     #        ONE BIT ERROR IF OPERANDS IN MSU
000352: 30,3333           51646                           INDEX    NDXCDUW                               #        OF MIXED SIGNS.  WHO CARES?
000353: 30,3334           33740                           CA       DAXMAX
000354: 30,3335           03700                           TC       LIMITSUB
000355: 30,3336           55673                           TS       -DELGMB                               #  SAVE LIMITED +DELATTX
000356: 30,3337           11647                           CCS      FLAGOODW
000357: 30,3340           41673                           CS       -DELGMB                               #  FETCH IT BACK CHGING SIGN IF WINDOW GOOD
000358: 30,3341           55673                           TS       -DELGMB                               #  OTHERWISE USE ZERO FOR -DELATTX
000359: 30,3342           41674                           CS       -DELGMB    +1
000360: 30,3343           00006                           EXTEND
000361: 30,3344           70740                           MP       SINCDUZ
000362: 30,3345           20001                           DDOUBL                                         #  YIELDS -CNTRIB TO -DELATTX FROM -DELGMBY
000363: 30,3346           27673                           ADS      -DELGMB                               #  -DELGMBX.  NO OVERFLOW SINCE LIMITED TO
000364:                                                                                                  #  20DEG(1+SIN(70DEG)/COS(70DEG)) < 180DEG
000365:


000367:                                                                                                  #  COMPUTE COMMANDED ATTITUDE RATES
000368:
000369:                                                                                                  #  * OMEGAPD *   * -2  -4 SINCDUZ          +0         * * -DELGMBX *
000370:                                                                                                  #  *         *   *                                    * *          *
000371:                                                                                                  #  * OMEGAQD * = * +0  -8 COSCDUZ COSCDUX  -4 SINCDUX * * -DELGMBY *
000372:                                                                                                  #  *         *   *                                    * *          *
000373:                                                                                                  #  * OMEGARD *   * +0  +8 COSCDUZ SINCDUX  -4 COSCDUX * * -DELGMBZ *
000374:
000375:                                                                                                  #  ATTITUDE ANGLE RATES IN UNITS OF PI/4 RAD/SEC = K TRIG FCNS IN UNITS OF 2 X GIMBAL ANGLE RATES IN UNITS OF
000376:                                                                                                  #  PI/2 RAD/SEC.  THE CONSTANTS ARE BASED ON DELGMB BEING THE GIMBAL ANGLE CHANGES IN UNITS OF PI RADIANS,
000377:                                                                                                  #  AND 2 SECONDS BEING THE COMPUTATION PERIOD (THE PERIOD BETWEEN SUCCESSIVE PASSES THRU FINDCDUW).
000378:
000379: 30,3347           41673                           CS       -DELGMB
000380: 30,3350           55641                           TS       OMEGAPD
000381: 30,3351           41674                           CS       -DELGMB    +1
000382: 30,3352           00006                           EXTEND
000383: 30,3353           70740                           MP       SINCDUZ
000384: 30,3354           20001                           DDOUBL
000385: 30,3355           27641                           ADS      OMEGAPD
000386: 30,3356           27641                           ADS      OMEGAPD
000387:
000388: 30,3357           41674                           CS       -DELGMB    +1
000389: 30,3360           00006                           EXTEND
000390: 30,3361           70750                           MP       COSCDUX
000391: 30,3362           20001                           DDOUBL
000392: 30,3363           00006                           EXTEND
000393: 30,3364           70746                           MP       COSCDUZ
000394: 30,3365           55642                           TS       OMEGAQD
000395: 30,3366           41675                           CS       -DELGMB    +2
000396: 30,3367           00006                           EXTEND
000397: 30,3370           70742                           MP       SINCDUX
000398: 30,3371           27642                           ADS      OMEGAQD
000399: 30,3372           27642                           ADS      OMEGAQD
000400: 30,3373           27642                           ADS      OMEGAQD
000401:
000402: 30,3374           31674                           CA       -DELGMB    +1
000403: 30,3375           00006                           EXTEND
000404: 30,3376           70742                           MP       SINCDUX
000405: 30,3377           20001                           DDOUBL
000406: 30,3400           00006                           EXTEND
000407: 30,3401           70746                           MP       COSCDUZ
000408: 30,3402           55643                           TS       OMEGARD
000409: 30,3403           41675                           CS       -DELGMB    +2
000410: 30,3404           00006                           EXTEND
000411: 30,3405           70750                           MP       COSCDUX
000412: 30,3406           27643                           ADS      OMEGARD
000413: 30,3407           27643                           ADS      OMEGARD
000414: 30,3410           27643                           ADS      OMEGARD
000415:


000417:                                                                                                  #  FINAL TRANSFER
000418:
000419: 30,3411           34752                           CA       TWO
000420: 30,3412           54142        CDUWXFR            TS       TEM2
000421: 30,3413           50142                           INDEX    TEM2
000422: 30,3414           31673                           CA       -DELGMB
000423: 30,3415           00006                           EXTEND
000424: 30,3416           73745                           MP       DT/DELT                               #  RATIO OF DAP INTERVAL TO CDUW INTERVAL
000425: 30,3417           03714                           TC       ONESTO2S
000426: 30,3420           50142                           INDEX    TEM2
000427: 30,3421           55636                           TS       DELCDUX                               #  ANGLE INTERFACE
000428:
000429: 30,3422           50142                           INDEX    TEM2
000430: 30,3423           11641                           CCS      OMEGAPD
000431: 30,3424           64753                           AD       ONE
000432: 30,3425           13427                           TCF      +2
000433: 30,3426           64753                           AD       ONE
000434: 30,3427           00006                           EXTEND                                         #  WE NOW HAVE ABS(OMEGAPD,QD,RD)
000435: 30,3430           50142                           INDEX    TEM2
000436: 30,3431           71641                           MP       OMEGAPD
000437: 30,3432           00006                           EXTEND
000438: 30,3433           74741                           MP       BIT11                                 #  1/16
000439: 30,3434           00006                           EXTEND
000440: 30,3435           50142                           INDEX    TEM2                                  #                   2
000441: 30,3436           11530                           DV       1JACC                                 #  UNITS PI/4 RAD/SEC
000442: 30,3437           54001                           TS       L
000443: 30,3440           33742                           CA       DELERLIM
000444: 30,3441           03700                           TC       LIMITSUB
000445: 30,3442           50142                           INDEX    TEM2
000446: 30,3443           55277                           TS       DELPEROR                              #  LAG ANGLE = OMEGA ABS(OMEGA)/2 ACCEL
000447: 30,3444           10142                           CCS      TEM2
000448: 30,3445           13412                           TCF      CDUWXFR
000449:
000450:                                                                                                  #  HAUSKEEPING AND RETURN
000451:
000452: 30,3446           31644        TCQCDUW            CA       ECDUWUSR
000453: 30,3447           54003                           TS       EBANK                                 #  RETURN USER'S EBANK
000454:
000455: 30,3450           06036                           TC       INTPRET
000456: 30,3451           52001                           SETPD    GOTO
000457: 30,3452           00001                                    0
000458: 30,3453           03245                                    QCDUWUSR                              #  NORMAL AND ABNORMAL RETURN TO USER
000459:


000461:                                                                                                  #  THRUST VECTOR FILTER SUBROUTINE
000462:
000463: 30,3454           00006        FLTRSUB            EXTEND
000464: 30,3455           22142                           QXCH     TEM2
000465: 30,3456           54143                           TS       TEM3                                  #  SAVE ORIGINAL OFFSET
000466: 30,3457           40000                           COM                                            #  ONE MCT, NO WDS, CAN BE SAVED IF NEG OF
000467: 30,3460           60001                           AD       L                                     #       ORIG OFFSET ARRIVES IN A, BUT IT'S
000468: 30,3461           00006                           EXTEND                                         #       NOT WORTH THE INCREASED OBSCURITY.
000469: 30,3462           51646                           INDEX    NDXCDUW
000470: 30,3463           73733                           MP       GAINFLTR
000471: 30,3464           54001                           TS       L                                     #  INCR TO OFFSET, UNLIMITED
000472: 30,3465           33735                           CA       DUNFVLIM                              #  SAME LIMIT FOR Y AND Z
000473: 30,3466           03700                           TC       LIMITSUB                              #  YIELDS INCR TO OFFSET, LIMITED
000474: 30,3467           60143                           AD       TEM3                                  #  ORIGINAL OFFSET
000475: 30,3470           54001                           TS       L                                     #  TOTAL OFFSET, UNLIMITED
000476: 30,3471           33736                           CA       UNFVLIM                               #  SAME LIMIT FOR Y AND Z
000477: 30,3472           03700                           TC       LIMITSUB                              #  YIELDS TOTAL OFFSET, LIMITED
000478: 30,3473           00142                           TC       TEM2
000479:
000480:                                                                                                  #  SUBR TO TEST THE ANGLE BETWEEN THE PROPOSED WINDOW AND THRUST CMD VCTS
000481:
000482: 30,3474           63441        UNWCTEST           DOT      DSQ
000483: 30,3475           00001                                    UNX/2
000484: 30,3476           50025                           DSU      BMN
000485: 30,3477           21740                                    DOTSWFMX
000486: 30,3500           61203                                    DCMCL
000487: 30,3501           43531                           SSP      RVQ                                   #  RVQ FOR ALT CHOICE IF DOT MAGN TOO LARGE
000488: 30,3502           03250                                    FLAGOODW                              #       ZEROING WINDOW GOOD FLAG
000489: 30,3503           00000                                    0
000490:


000492:                                                                                                  #  NB2CDUSP RETURNS THE 2'S COMPLEMENT, PI, SP CDU ANGLES X,Y,Z IN MPAC,+1,+2 GIVEN THE MATRIX WHOSE ROW VECTORS
000493:                                                                                                  #  ARE THE SEMI-UNIT NAV BASE VECTORS X,Y,Z EXPRESSED IN STABLE MEMBER COORDINATES, LOCATED AT 0 IN THE PUSH LIST.
000494:
000495:                                                                                                  #  NB2CDUSP USES ARCTRGSP WHICH HAS A MAXIMUM ERROR OF +-4 BITS.
000496:
000497: 30,3504           63545        NB2CDUSP           DLOAD    DSQ
000498: 30,3505           00003                                    2
000499: 30,3506           51021                           BDSU     BPL
000500: 30,3507           06414                                    DP1/4TH
000501: 30,3510           61513                                    +3
000502: 30,3511           77745                           DLOAD
000503: 30,3512           06424                                    ZEROVECS                              #  IN CASE SIN WAS SLIGHTLY > 1/2
000504: 30,3513           77566                           SQRT     EXIT                                  #  YIELDS COS(CDUZ) IN UNITS OF 2
000505:
000506: 30,3514           00006                           EXTEND
000507: 30,3515           30155                           DCA      MPAC
000508: 30,3516           20001                           DDOUBL
000509: 30,3517           54145                           TS       TEM5
000510: 30,3520           13523                           TCF      +3
000511: 30,3521           34733                           CA       POSMAX                                #  OVERFLOW. FETCH POSMAX, MPAC ALWAYS POS
000512: 30,3522           54145                           TS       TEM5                                  #  COS(CDUZ) IN TEM5, UNITS 1
000513:
000514: 30,3523           50120                           INDEX    FIXLOC
000515: 30,3524           30002                           CA       2
000516: 30,3525           22154                           LXCH     MPAC
000517: 30,3526           03573                           TC       ARCTRGSP
000518: 30,3527           54156                           TS       MPAC       +2                         #  CDUZ
000519:
000520: 30,3530           34755                           CA       ZERO
000521: 30,3531           03551                           TC       DVBYCOSM
000522: 30,3532           34751                           CA       FOUR
000523: 30,3533           03551                           TC       DVBYCOSM
000524: 30,3534           40141                           CS       TEM1
000525: 30,3535           03573                           TC       ARCTRGSP
000526: 30,3536           54155                           TS       MPAC       +1                         #  CDUY
000527:
000528: 30,3537           34750                           CA       BIT4
000529: 30,3540           03551                           TC       DVBYCOSM
000530: 30,3541           33550                           CA       16OCT
000531: 30,3542           03551                           TC       DVBYCOSM
000532: 30,3543           40141                           CS       TEM1
000533: 30,3544           03573                           TC       ARCTRGSP
000534: 30,3545           54154                           TS       MPAC                                  #  CDUX
000535:
000536: 30,3546           06036                           TC       INTPRET
000537: 30,3547           77616                           RVQ
000538:
000539: 30,3550           00016        16OCT              OCT      16
000540:


000542:                                                                                                  #  THE ELEMENTS OF THE NAV BASE MATRIX WHICH WE MUST DIVIDE BY COS(MGA)
000543:                                                                                                  #  ALREADY CONTAIN COS(MGA)/2 AS A FACTOR. THEREFORE THE QUOTIENT SHOULD
000544:                                                                                                  #  ORDINARILY NEVER EXCEED 1/2 IN MAGNITUDE.  BUT IF THE MGA IS NEAR PI/2
000545:                                                                                                  #  THEN COS(MGA) IS NEAR ZERO, AND THERE MAY BE SOME CHAFF IN THE OTHER
000546:                                                                                                  #  ELEMENTS OF THE MATRIX WHICH WOULD PRODUCE CHAOS UNDER DIVISION.
000547:                                                                                                  #  BEFORE DIVIDING WE MAKE SURE COS(MGA) IS AT LEAST ONE BIT LARGER
000548:                                                                                                  #  THAN THE MAGNITUDE OF THE HIGH ORDER PART OF THE OPERAND.
000549:
000550:                                                                                                  #  IF ONE OR MORE DIVIDES CANNOT BE PERFORMED, THIS MEANS THAT THE
000551:                                                                                                  #  REQUIRED MGA IS VERY NEARLY +-PI/2 AND THEREFORE THE OTHER GIMBAL
000552:                                                                                                  #  ANGLES ARE INDETERMINATE.  THE INNER AND OUTER GIMBAL ANGLES RETURNED
000553:                                                                                                  #  IN THIS CASE WILL BE RANDOM MULTIPLES OF PI/2.
000554:
000555: 30,3551           60120        DVBYCOSM           AD       FIXLOC
000556: 30,3552           54116                           TS       ADDRWD                                #  ADRES OF OPERAND
000557:
000558: 30,3553           50116                           INDEX    ADDRWD                                #  FETCH NEG ABS OF OPERAND, AD TEM5, AND
000559: 30,3554           30000                           CA       0                                     #      SKIP DIVIDE IF RESULT NEG OR ZERO
000560: 30,3555           00006                           EXTEND
000561: 30,3556           63560                           BZMF     +2
000562: 30,3557           40000                           COM
000563: 30,3560           60145                           AD       TEM5                                  #  C(A) ZERO OR NEG, C(TEM5) ZERO OR POS
000564: 30,3561           00006                           EXTEND
000565: 30,3562           63570                           BZMF     TSL&TCQ                               #  DIFFERENCE ALWAYS SMALL IF BRANCH
000566:
000567: 30,3563           00006                           EXTEND                                         #  TEM5 EXCEEDS ABS HIGH ORDER PART OF
000568: 30,3564           50116                           INDEX    ADDRWD                                #       OPERAND BY AT LEAST ONE BIT.
000569: 30,3565           30001                           DCA      0                                     #       THEREFORE IT EXCEEDS THE DP OPERAND
000570: 30,3566           00006                           EXTEND                                         #       AND DIVISION WILL ALWAYS SUCCEED.
000571: 30,3567           10145                           DV       TEM5
000572: 30,3570           54001        TSL&TCQ            TS       L
000573: 30,3571           22141                           LXCH     TEM1
000574: 30,3572           00002                           TC       Q
000575:


000577:                                                                                                  #  ARCTRGSP RETURNS THE 2'S COMPLEMENT, PI, SP ANGLE IN THE A REGISTER GIVEN ITS SINE IN A AND ITS COSINE IN L IN
000578:                                                                                                  #  UNITS OF 2.  THE RESULT IS AN UNAMBIGUOUS ANGLE ANYWHERE IN THE CIRCLE, WITH A MAXIMUM ERROR OF +-4 BITS.
000579:                                                                                                  #  THE ERROR IS PRODUCED BY THE SUBROUTINE SPARCSIN WHICH IS USED ONLY IN THE REGION +-45 DEGREES.
000580:
000581: 30,3573           00006        ARCTRGSP           EXTEND
000582: 30,3574           13636                           BZF      SINZERO                               #  TO AVOID DIVIDING BY ZERO
000583:
000584: 30,3575           00006                           EXTEND
000585: 30,3576           22144                           QXCH     TEM4
000586: 30,3577           54142                           TS       TEM2
000587: 30,3600           30001                           CA       L
000588: 30,3601           54143                           TS       TEM3
000589: 30,3602           34755                           CA       ZERO
000590: 30,3603           00006                           EXTEND
000591: 30,3604           10142                           DV       TEM2
000592: 30,3605           00006                           EXTEND
000593: 30,3606           13625                           BZF      USECOS
000594:
000595: 30,3607           10143                           CCS      TEM3                                  #  SIN IS SMALLER OR EQUAL
000596: 30,3610           34755                           CA       ZERO
000597: 30,3611           13615                           TCF      +4
000598: 30,3612           40142                           CS       TEM2                                  #  IF COS NEG, REVERSE SIGN OF SIN,
000599: 30,3613           54142                           TS       TEM2                                  #       ANGLE = PI-ARCSIN(SIN)
000600: 30,3614           34735                           CA       NEGMAX                                #  PICK UP PI, 2'S COMPLEMENT
000601: 30,3615           54143                           TS       TEM3                                  #  WE NO LONGER NEED COS
000602: 30,3616           30142                           CA       TEM2
000603: 30,3617           03643                           TC       SPARCSIN   -1
000604: 30,3620           03714                           TC       ONESTO2S
000605: 30,3621           00006                           EXTEND
000606: 30,3622           20143                           MSU      TEM3
000607: 30,3623           03714        1TO2&TCQ           TC       ONESTO2S
000608: 30,3624           00144                           TC       TEM4
000609:
000610: 30,3625           40143        USECOS             CS       TEM3                                  #  COS IS SMALLER
000611: 30,3626           03643                           TC       SPARCSIN   -1                         #  ANGLE = SIGN(SIN)(FI/2-ARCSIN(COS))
000612: 30,3627           64736                           AD       HALF
000613: 30,3630           54143                           TS       TEM3                                  #  WE NO LONGER NEED COS
000614: 30,3631           10142                           CCS      TEM2
000615: 30,3632           30143                           CA       TEM3
000616: 30,3633           13623                           TCF      1TO2&TCQ
000617: 30,3634           40143                           CS       TEM3
000618: 30,3635           13623                           TCF      1TO2&TCQ
000619:
000620: 30,3636           10001        SINZERO            CCS      L
000621: 30,3637           34755                           CA       ZERO
000622: 30,3640           00002                           TC       Q
000623: 30,3641           34735                           CA       NEGMAX                                #  PI, 2'S COMP
000624: 30,3642           00002                           TC       Q
000625:


000627:                                                                                                  #  SPARCSIN TAKES AN ARGUMENT SCALED UNITY IN A AND RETURNS AN ANGLE SCALED
000628:                                                                                                  #  180 DEGREES IN A.  IT HAS BEEN UNIT TESTED IN THE REGION +-.94 (+-70
000629:                                                                                                  #  DEGREES) AND THE MAXIMUM ERROR IS +-5 BITS WITH AN AVERAGE TIME OF
000630:                                                                                                  #  450 MICROSECONDS.  SPARCSIN -1 TAKES THE ARGUMENT SCALED TWO.(BOB CRISP)
000631:
000632: 30,3643           60000                           DOUBLE
000633: 30,3644           54021        SPARCSIN           TS       SR
000634: 30,3645           13651                           TCF      +4
000635: 30,3646           50000                           INDEX    A
000636: 30,3647           44734                           CS       LIMITS
000637: 30,3650           54021                           TS       SR
000638: 30,3651           00006                           EXTEND
000639: 30,3652           70000                           MP       A
000640: 30,3653           54141                           TS       TEM1
000641: 30,3654           00006                           EXTEND
000642: 30,3655           73677                           MP       DPL9
000643: 30,3656           63676                           AD       DPL7
000644: 30,3657           00006                           EXTEND
000645: 30,3660           70141                           MP       TEM1
000646: 30,3661           63675                           AD       DPL5
000647: 30,3662           00006                           EXTEND
000648: 30,3663           70141                           MP       TEM1
000649: 30,3664           63674                           AD       DPL3
000650: 30,3665           00006                           EXTEND
000651: 30,3666           70141                           MP       TEM1
000652: 30,3667           63673                           AD       DPL1
000653: 30,3670           00006                           EXTEND
000654: 30,3671           70021                           MP       SR
000655: 30,3672           00002                           TC       Q
000656: 30,3673           24406        DPL1               DEC      10502      B-14
000657: 30,3674           00660        DPL3               DEC      432        B-14
000658: 30,3675           16204        DPL5               DEC      7300       B-14
000659: 30,3676           50744        DPL7               DEC      -11803     B-14
000660: 30,3677           20315        DPL9               DEC      8397       B-14
000661:


000663:                                                                                                  #  LIMITSUB LIMITS THE MAGNITUDE OF THE POSITIVE OR NEGATIVE VARIABLE
000664:                                                                                                  #  ARRIVING IN L TO THE POSITIVE LIMIT ARRIVING IN A.
000665:                                                                                                  #  THE SIGNED LIMITED VARIABLE IS RETURNED IN A.
000666:
000667:                                                                                                  #  VERSION COURTESY HUGH BLAIR-SMITH
000668:
000669: 30,3700           54141        LIMITSUB           TS       TEM1
000670: 30,3701           34755                           CA       ZERO
000671: 30,3702           00006                           EXTEND
000672: 30,3703           10141                           DV       TEM1
000673: 30,3704           10000                           CCS      A
000674: 30,3705           22141                           LXCH     TEM1
000675: 30,3706           13710                           TCF      +2
000676: 30,3707           13712                           TCF      +3
000677: 30,3710           30001                           CA       L
000678: 30,3711           00002                           TC       Q
000679: 30,3712           40141                           CS       TEM1
000680: 30,3713           00002                           TC       Q
000681:
000682:                                                                                                  #  SUBROUTINE TO CONVERT 1'S COMP SP TO 2'S COMP
000683:
000684: 30,3714           10000        ONESTO2S           CCS      A
000685: 30,3715           64753                           AD       ONE
000686: 30,3716           00002                           TC       Q
000687: 30,3717           40000                           CS       A
000688: 30,3720           00002                           TC       Q
000689:
000690:                                                                                                  #  NO ATTITUDE CONTROL
000691:
000692: 30,3721           05567        NOATTCNT           TC       ALARM
000693: 30,3722           00402                           OCT      00402                                 #  NO ATTITUDE CONTROL
000694:
000695: 30,3723           00004                 +2        INHINT                                         #  COME HERE FOR NOATTCNT WITHOUT ALARM
000696: 30,3724           04674                           TC       IBNKCALL                              #  RELINT AT TC INTPRET AFTER TCQCDUW
000697: 30,3725           40165                           FCADR    STOPRATE
000698: 30,3726           13446                           TCF      TCQCDUW                               #  RETURN TO USER SKIPPING AUTOPILOT CMDS
000699:
000700:                                                                                                  #  MIDDLE GIMBAL ANGLE ALARM
000701:
000702: 30,3727           05567        ALARMMGA           TC       ALARM
000703: 30,3730           00401                           OCT      00401
000704: 30,3731           13246                           TCF      MGARET
000705:


000707:                                                                                                  # ************************************************************************
000708:                                                                                                  #  CONSTANTS
000709:                                                                                                  # ************************************************************************
000710:
000711:                                                                                                  #  ADDRESS CONSTANTS
000712:
000713: 30,3732           03244        ECDUWL             ECADR    ECDUW
000714:
000715:                                                                                                  #  THRUST DIRECTION FILTER CONSTANTS
000716:
000717: 30,3733           06315        GAINFLTR           DEC      .2                                    #  GAIN FILTER SANS CSM
000718: 30,3734           03146                           DEC      .1                                    #  GAIN FILTER WITH CSM
000719:
000720: 30,3735           00071        DUNFVLIM           DEC      .007       B-1                        #  7 MR MAX CHG IN F DIR IN VEH IN 2 SECS.
000721:                                                                                                  #  THIS DOES NOT ALLOW FOR S/C ROT RATE.
000722:
000723: 30,3736           02041        UNFVLIM            DEC      .129       B-1                        #  129 MR MAX THRUST OFFSET.  105 MR TRAVEL
000724:                                                                                                  #  +10MR DEFL+5MR MECH MOUNT+9MR ABLATION.
000725:
000726:                                                                                                  #  CONSTANTS RELATED TO GIMBAL ANGLE COMPUTATIONS
000727:
000728: 30,3737           01673        DOTSWFMX           DEC      .93302     B-4                        #  LIM COLNRTY OF UNWC/2 & UNFC/2 TO 85 DEG
000729:                                                                                                  #  LOWER PART COMES FROM NEXT CONSTANT
000730:
000731: 30,3740           03434        DAXMAX             DEC      .11111111111                            #  DELATTX LIM TO 20 DEG IN 2 SECS, 1'S, PI
000732: 30,3741           00266                           DEC      .0111111111                            #  2 DEG WHEN CSM DOCKED
000733:
000734: 30,3742           01616        DAY/2MAX           DEC      .05555555555                            #  LIKEWISE FOR DELATTY
000735: 30,3743           00133                           DEC      .0055555555
000736:
000737: 30,3744  30,3740               DAZMAX             =        DAXMAX                                #  LIKEWISE FOR DELATTZ
000738:
000739: 30,3744           14344        CDUZDLIM           DEC      .3888888888                            #  70 DEG LIMIT FOR MGA, 1'S, PI
000740:
000741:                                                                                                  #  CONSTANTS FOR DATA TRANSFER
000742:
000743: 30,3745           01463        DT/DELT            DEC      .05                                   #  .1 SEC/2 SEC WHICH IS THE AUTOPILOT
000744:                                                                                                  #  CONTROL SAMPLE PERIOD/COMPUTATION PERIOD
000745:
000746: 30,3746  30,3742               DELERLIM           =        DAY/2MAX                              #  1D DEG LIMIT FOR LAG ANGLES, 1'S, PI
000747:
000748:

End of include-file FINDCDUW_-_GUIDAP_INTERFACE.agc.  Parent file is MAIN.agc


