
Source Code


000002:                                                                                                  ## Copyright:   Public domain.
000003:                                                                                                  ## Filename:    FIXED-FIXED_CONSTANT_POOL.agc
000004:                                                                                                  ## Purpose:     The main source file for Luminary revision 069.
000005:                                                                                                  ##              It is part of the source code for the original release
000006:                                                                                                  ##              of the flight software for the Lunar Module's (LM) Apollo
000007:                                                                                                  ##              Guidance Computer (AGC) for Apollo 10. The actual flown
000008:                                                                                                  ##              version was Luminary 69 revision 2, which included a
000009:                                                                                                  ##              newer lunar gravity model and only affected module 2.
000010:                                                                                                  ##              This file is intended to be a faithful transcription, except
000011:                                                                                                  ##              that the code format has been changed to conform to the
000012:                                                                                                  ##              requirements of the yaYUL assembler rather than the
000013:                                                                                                  ##              original YUL assembler.
000014:                                                                                                  ## Reference:   pp. 1090-1094
000015:                                                                                                  ## Assembler:   yaYUL
000016:                                                                                                  ## Contact:     Ron Burkey <info@sandroid.org>.
000017:                                                                                                  ## Website:     www.ibiblio.org/apollo/index.html
000018:                                                                                                  ## Mod history: 2016-12-13 MAS  Created from Luminary 99.
000019:                                                                                                  ##              2016-12-18 MAS  Updated from comment-proofed Luminary 99 version.
000020:                                                                                                  ##              2017-01-02 RRB  Updated for Luminary 69.
000021:                                                                                                  ##              2017-01-28 RSB  Proofed comment text using octopus/prooferComments
000022:                                                                                                  ##                              but no errors found.
000023:                                                                                                  ##              2017-03-13 RSB  Comment-text fixes noted in proofing Luminary 116.
000024:


000026:    4732                                           BLOCK    02
000027:    4732                                           COUNT*   $$/FCONS
000028:
000029:                                                                                                  #  THE FOLLOWING TABLE OF 18 VALUES IS INDEXED.  DO NOT INSERT OR REMOVE ANY QUANTITIES.
000030:
000031:    4732           37777        DPOSMAX            OCT      37777                                 #  MUST PRECEDE POSMAX
000032:    4733           37777        POSMAX             OCT      37777
000033:
000034:    4734     4734               LIMITS             =        NEG1/2
000035:
000036:    4734           57777        NEG1/2             OCT      -20000                                #  USED BY SIN ROUTINE (MUST BE TWO
000037:                                                                                                  #  LOCATIONS IN FRONT OF BIT14)
000038:
000039:                                                                                                  #  BIT TABLE
000040:
000041:    4735           40000        BIT15              OCT      40000
000042:    4736           20000        BIT14              OCT      20000
000043:    4737           10000        BIT13              OCT      10000
000044:    4740           04000        BIT12              OCT      04000
000045:    4741           02000        BIT11              OCT      02000
000046:    4742           01000        BIT10              OCT      01000
000047:    4743           00400        BIT9               OCT      00400
000048:    4744           00200        BIT8               OCT      00200
000049:    4745           00100        BIT7               OCT      00100
000050:    4746           00040        BIT6               OCT      00040
000051:    4747           00020        BIT5               OCT      00020
000052:    4750           00010        BIT4               OCT      00010
000053:    4751           00004        BIT3               OCT      00004
000054:    4752           00002        BIT2               OCT      00002
000055:    4753           00001        BIT1               OCT      00001
000056:
000057:                                                                                                  #  DO NOT DESTROY THIS COMBINATION, SINCE IT IS USED IN DOUBLE PRECISION INSTRUCTIONS.
000058:    4754           77777        NEG0               OCT      -0                                    #  MUST PRECEDE ZERO
000059:    4755           00000        ZERO               OCT      0                                     #  MUST FOLLOW NEG0
000060:                                                                                                  #  BIT1          OCT     00001
000061:                                                                                                  #  NO.WDS        OCT     2               INTERPRETER
000062:                                                                                                  #  OCTAL3        OCT     3               INTERPRETER
000063:                                                                                                  #  R3D1          OCT     4               PINBALL
000064:    4756           00005        FIVE               OCT      5
000065:                                                                                                  #  REVCNT        OCT     6               INTERPRETER
000066:    4757           00007        SEVEN              OCT      7
000067:                                                                                                  #  BIT4          OCT     00010
000068:                                                                                                  #  R2D1          OCT     11              PINBALL
000069:    4760     4320               OCT11              =        R2D1                                  #  P20S
000070:                                                                                                  #  BINCON        DEC     10              PINBALL         (OCTAL 12)
000071:    4760           00013        ELEVEN             DEC      11         B-14
000072:                                                                                                  #  OCT14         OCT     14              ALARM AND ABORT (FILLER)
000073:    4761           00015        OCT15              OCT      15
000074:                                                                                                  #  R1D1          OCT     16              PINBALL
000075:    4762           00017        LOW4               OCT      17


000077:                                                                                                  #  BIT5          OCT     00020
000078:                                                                                                  #  ND1           OCT     21              PINBALL
000079:                                                                                                  #  VD1           OCT     23              PINBALL
000080:                                                                                                  #  OCT24         OCT     24              SERVICE ROUTINES
000081:                                                                                                  #  MD1           OCT     25              PINBALL
000082:    4763           00030        BITS4&5            OCT      30
000083:                                                                                                  #  OCT31         OCT     31              SERVICE ROUTINES
000084:    4764           00033        OCT33              OCT      33
000085:    4765     4764               DEC27              =        OCT33
000086:    4765           00035        OCT35              OCT      35
000087:    4766     4765               DEC29              =        OCT35
000088:    4766           00032        CALLCODE           OCT      00032
000089:                                                                                                  #  LOW5          OCT     37              PINBALL
000090:                                                                                                  #  33DEC         DEC     33              PINBALL         (OCTAL 41)
000091:                                                                                                  #  34DEC         DEC     34              PINBALL         (OCTAL 42)
000092:    4767           00045        TBUILDFX           DEC      37         B-14                       #  BUILDUP FOR CONVIENCE IN DAPTESTING
000093:    4770           00046        TDECAYFX           DEC      38         B-14                       #  CONVENIENCE FOR DAPTESTING
000094:                                                                                                  #  BIT6          OCT     00040
000095:    4771           00050        OCT50              OCT      50
000096:    4772           00055        DEC45              DEC      45         B-14
000097:    4773           00060        SUPER011           OCT      60                                    #  BITS FOR SUPERBNK SETTING 011.
000098:    4774           00062        .5SEC              DEC      50         B-14
000099:                                                                                                  #  BIT7          OCT     00100
000100:
000101:    4775     4745               SUPER100           =        BIT7                                  #  BITS FOR SUPERBNK SETTING 100
000102:                                                                                                  #  (LAST 4K OF ROPE)
000103:    4775           00120        SUPER101           OCT      120                                   #  BITS FOR SUPERBNK SETTING 101
000104:                                                                                                  #  OCT121        OCT     121             SERVICE ROUTINES
000105:                                                                                                  #  (FIRST 8K OF ACM)
000106:    4776           00140        SUPER110           OCT      140                                   #  BITS FOR SUPERBNK SETTING 110.
000107:                                                                                                  #  (LAST 8K OF ACM)
000108:    4777           00144        1SEC               DEC      100        B-14
000109:                                                                                                  #  LOW7          OCT     177             INTERPRETER
000110:                                                                                                  #  BIT8          OCT     00200
000111:                                                                                                  #  OT215         OCT     215             ALARM AND ABORT
000112:                                                                                                  #  8,5           OCT     00220           P20-P25 SUNDANCE
000113:    5000           00310        2SECS              DEC      200        B-14
000114:                                                                                                  #  LOW8          OCT     377             PINBALL
000115:                                                                                                  #  BIT9          OCT     00400
000116:    5001           00401        GN/CCODE           OCT      00401                                 #  SET S/C CONTROL SWITCH TO G/N
000117:    5002           00454        3SECS              DEC      300        B-14
000118:    5003           00620        4SECS              DEC      400        B-14
000119:    5004           00777        LOW9               OCT      777
000120:                                                                                                  #  BIT10         OCT     01000
000121:                                                                                                  #  5.5DEGS       DEC     .03056          P20-P25 SUNDANCE        (OCTAL 00765)
000122:                                                                                                  #  OCT1103       OCT     1103            ALARM AND ABORT
000123:    5005           01124        C5/2               DEC      .0363551                              #                        (OCTAL 01124)
000124:    5006           01211        V05N09             VN       0509                                  #  (SAME AS OCTAL 1211)
000125:    5007           01400        OCT1400            OCT      01400
000126:    5010           01426        V06N22             VN       0622


000128:                                                                                                  #  MID5          OCT     1740            PINBALL
000129:    5011           01776        BITS2-10           OCT      1776
000130:    5012           01777        LOW10              OCT      1777
000131:                                                                                                  #  BIT11         OCT     02000
000132:                                                                                                  #  2K+3          OCT     2003            PINBALL
000133:    5013           02177        LOW7+2K            OCT      2177                                  #  OP CODE MASK + BANK 1 FBANK SETTING.
000134:    5014           02400        EBANK5             OCT      02400
000135:    5015           03000        PRIO3              OCT      03000
000136:    5016           03400        EBANK7             OCT      03400
000137:                                                                                                  #  LOW11         OCT     3777            PINBALL
000138:                                                                                                  #  BIT12         OCT     04000
000139:                                                                                                  #  RELTAB        OCT     04025           T4RUPT
000140:    5017           05000        PRIO5              OCT      05000
000141:    5020           06000        PRIO6              OCT      06000
000142:    5021           07000        PRIO7              OCT      07000
000143:
000144:                                                                                                  #  BIT13         OCT     10000
000145:                                                                                                  #                OCT     10003           T4RUPT  RELTAB +1D
000146:                                                                                                  #  13,7,2        OCT     10102           P20-P25 SUNDANCE
000147:    5022           11000        PRIO11             OCT      11000
000148:                                                                                                  #  PRIO12        OCT     12000           BANKCALL
000149:    5023           13000        PRIO13             OCT      13000
000150:    5024           14000        PRIO14             OCT      14000
000151:                                                                                                  #                OCT     14031           T4RUPT  RELTAB +2D
000152:    5025           15000        PRIO15             OCT      15000
000153:    5026           16000        PRIO16             OCT      16000
000154:                                                                                                  #  85DEGS        DEC     .45556          P20-P25 SUNDANCE        (OCTAL 16450)
000155:    5027           17000        PRIO17             OCT      17000
000156:    5030           17770        OCT17770           OCT      17770
000157:                                                                                                  #  BIT14         OCT     20000
000158:                                                                                                  #                OCT     20033           T4RUPT  RELTAB +3D
000159:    5031           21000        PRIO21             OCT      21000
000160:    7707                                           BLOCK    03
000161:    7707                                           COUNT*   $$/FCONS
000162:    7707           22000        PRIO22             OCT      22000                                 #  SERVICE ROUTINES
000163:    7710           23000        PRIO23             OCT      23000
000164:    7711           24000        PRIO24             OCT      24000
000165:                                                                                                  #  5/8+1         OCT     24001           SINGLE PRECISION SUBROUTINES
000166:                                                                                                  #                OCT     24017           T4RUPT  RELTAB +4D
000167:    7712           25000        PRIO25             OCT      25000
000168:    7713           26000        PRIO26             OCT      26000
000169:    7714           27000        PRIO27             OCT      27000
000170:                                                                                                  #  CHRPRIO       OCT     30000           PINBALL
000171:                                                                                                  #                OCT     30036           T4RUPT  RELTAB +5D
000172:    7715           31000        PRIO31             OCT      31000
000173:    7716           31103        C1/2               DEC      .7853134                              #                        (OCTAL 31103)
000174:    7717           32000        PRIO32             OCT      32000
000175:    7720           33000        PRIO33             OCT      33000
000176:    7721           34000        PRIO34             OCT      34000
000177:                                                                                                  #                OCT     34034           T4RUPT  RELTAB +6D


000179:    7722           35000        PRIO35             OCT      35000
000180:    7723           36000        PRIO36             OCT      36000
000181:    7724           37000        PRIO37             OCT      37000
000182:    7725           37401        63/64+1            OCT      37401
000183:                                                                                                  #  MID7          OCT     37600           PINBALL
000184:    7726           37766        OCT37766           OCT      37766
000185:    7727           37774        OCT37774           OCT      37774
000186:    7730           37776        OCT37776           OCT      37776
000187:                                                                                                  #  DPOSMAX       OCT     37777
000188:                                                                                                  #  BIT15         OCT     40000
000189:                                                                                                  #  OCT40001      OCT     40001           INTERPRETER (CS 1 INSTRUCTION)
000190:    7731           40014        DLOADCOD           OCT      40014
000191:    7732           40015        DLOAD*             OCT      40015
000192:                                                                                                  #                OCT     40023           T4RUPT  RELTAB +7D
000193:    7733           40040        BIT15+6            OCT      40040
000194:    7734           40200        OCT40200           OCT      40200
000195:                                                                                                  #                OCT     44035           T4RUPT  RELTAB +8D
000196:                                                                                                  #                OCT     50037           T4RUPT   RELTAB +9D
000197:                                                                                                  #                OCT     54000           T4RUPT   RELTAB +10D
000198:    7735           57777        -BIT14             OCT      57777
000199:                                                                                                  #  RELTAB11      OCT     60000           T4RUPT
000200:    7736           65552        C3/2               DEC      -.3216147                             #                        (OCTAL 65552)
000201:    7737           70000        13,14,15           OCT      70000
000202:    7740           73777        -1/8               OCT      73777
000203:    7741           74000        HIGH4              OCT      74000
000204:    7742           74056        -ENDERAS           DEC      -2001      B-14                       #                        (OCTAL 74056)
000205:                                                                                                  #  HI5           OCT     76000           PINBALL
000206:    7743           77700        HIGH9              OCT      77700
000207:                                                                                                  #  -ENDVAC       DEC     -45             INTERPRETER             (OCTAL 77722)
000208:                                                                                                  #  -OCT10        OCT     -10                                      (OCT 77767)
000209:                                                                                                  #  NEG4          DEC     -4                                      (OCTAL 77773)
000210:    7744           77774        NEG3               DEC      -3         B-14
000211:    7745           77775        NEG2               OCT      77775
000212:    7746           77776        NEGONE             DEC      -1         B-14
000213:


000215:
000216:                                                                                                  #  DEFINED BY EQUALS
000217:
000218:                                                                                                  #  IT WOULD BE TO THE USERS ADVANTAGE TO OCCASIONALLY CHECK ANY OF THESE SYMBOLS IN ORDER TO PREVENT ANY
000219:                                                                                                  #  ACCIDENTAL DEFINITION CHANGES.
000220:
000221:    7747     7746               MINUS1             =        NEG1
000222:    7747     7746               NEG1               =        NEGONE
000223:    7747     4753               ONE                =        BIT1
000224:    7747     4752               TWO                =        BIT2
000225:    7747     6244               THREE              =        OCTAL3
000226:    7747     6244               LOW2               =        THREE
000227:    7747     4751               FOUR               =        BIT3
000228:    7747     6241               SIX                =        REVCNT
000229:    7747     4757               LOW3               =        SEVEN
000230:    7747     4750               EIGHT              =        BIT4
000231:    7747     4320               NINE               =        R2D1
000232:    7747     4363               TEN                =        BINCON
000233:    7747     4760               NOUTCON            =        ELEVEN
000234:    7747     4360               OCT23              =        VD1
000235:    7747     4362               OCT25              =        MD1
000236:    7747     4742               PRIO1              =        BIT10
000237:    7747     5007               EBANK3             =        OCT1400
000238:    7747     4741               PRIO2              =        BIT11
000239:    7747     4775               OCT120             =        SUPER101
000240:    7747     4776               OCT140             =        SUPER110
000241:    7747     4741               2K                 =        BIT11
000242:    7747     4741               EBANK4             =        BIT11
000243:    7747     4740               PRIO4              =        BIT12
000244:    7747     5015               EBANK6             =        PRIO3
000245:    7747     4737               QUARTER            =        BIT13
000246:    7747     4737               PRIO10             =        BIT13
000247:    7747     7662               OCT10001           =        CCSL
000248:    7747     4736               POS1/2             =        HALF
000249:    7747     4736               PRIO20             =        BIT14
000250:    7747     4736               HALF               =        BIT14
000251:    7747     4355               PRIO30             =        CHRPRIO
000252:    7747     4355               BIT13-14           =        PRIO30                                #  INTERPRETER USES IN PROCESSING STORECODE
000253:    7747     6470               OCT30002           =        TLOAD      +1
000254:    7747     7721               B12T14             =        PRIO34
000255:    7747     4735               NEGMAX             =        BIT15
000256:    7747     4735               VLOADCOD           =        BIT15
000257:    7747     6106               VLOAD*             =        OCT40001
000258:    7747     4101               OCT60000           =        RELTAB11
000259:    7747     4350               BANKMASK           =        HI5
000260:

End of include-file FIXED-FIXED_CONSTANT_POOL.agc.  Parent file is MAIN.agc


