
Source Code


000002:                                                                                                  ## Copyright:   Public domain.
000003:                                                                                                  ## Filename:    FLAGWORD_ASSIGNMENTS.agc
000004:                                                                                                  ## Purpose:     The main source file for Luminary revision 069.
000005:                                                                                                  ##              It is part of the source code for the original release
000006:                                                                                                  ##              of the flight software for the Lunar Module's (LM) Apollo
000007:                                                                                                  ##              Guidance Computer (AGC) for Apollo 10. The actual flown
000008:                                                                                                  ##              version was Luminary 69 revision 2, which included a
000009:                                                                                                  ##              newer lunar gravity model and only affected module 2.
000010:                                                                                                  ##              This file is intended to be a faithful transcription, except
000011:                                                                                                  ##              that the code format has been changed to conform to the
000012:                                                                                                  ##              requirements of the yaYUL assembler rather than the
000013:                                                                                                  ##              original YUL assembler.
000014:                                                                                                  ## Reference:   pp. 77-104
000015:                                                                                                  ## Assembler:   yaYUL
000016:                                                                                                  ## Contact:     Ron Burkey <info@sandroid.org>.
000017:                                                                                                  ## Website:     www.ibiblio.org/apollo/index.html
000018:                                                                                                  ## Mod history: 2016-12-13 MAS  Created from Luminary 99.
000019:                                                                                                  ##              2016-01-03 HG   Transcribed
000020:                                                                                                  ##              2017-01-21 HG   Fix label CHIPFLAG -> CPHIFLAG
000021:                                                                                                  ##              2017-01-25 RSB  Proofed comment text using octopus/prooferComments
000022:                                                                                                  ##                              and fixed errors found.
000023:


000025:                                                                                                  #           FLAGWORDS 0-11  ARE DOWNLINKED AND CAN BE SET AND CLEARED BY UP-FLAG AND DOWN-FLAG INSTRUCTIONS IN THE
000026:                                                                                                  #                           INTERPRETER. THESE WERE PREVIOUSLY LISTED UNDER "INTERPRETIVE SWITCH BIT ASSIGNMENTS" IN
000027:                                                                                                  #                           THE ERASABLE LOG SECTION. FLAGWORDS 12 & 13 WEREPREVIOUSLY RADMODES AND DAPBOOLS AND
000028:                                                                                                  #                           ARE STILL DOWNLINKED UNDER THOSE NAMES.
000029:
000030:
000031:
000032:                                                                                                  #           ALPHABETICAL LIST OF FLAGWORDS
000033:
000034:
000035:                                                                                                  #  FLAGWORD        DEC. NUMBER     BIT AND FLAG         BIT NAME
000036:
000037:                                                                                                  #  ACCOKFLG        207             BIT 3  FLAG 13       ACCSOKAY
000038:                                                                                                  #  ACC4-2FL        199             BIT 11 FLAG 13       ACC4OR2X
000039:                                                                                                  #  ACMODFLG        032             BIT 13 FLAG 2        ACMODBIT
000040:                                                                                                  #  ALTSCALE        186             BIT 9  FLAG 12       ALTSCBIT
000041:                                                                                                  #  ANTENFLG        183             BIT 12 FLAG 12       ANTENBIT
000042:                                                                                                  #  AORBSFLG        205             BIT 5  FLAG 13       AORBSYST
000043:                                                                                                  #  AORBTFLG        200             BIT 10 FLAG 13       AORBTRAN
000044:                                                                                                  #  APSESW          130             BIT 5  FLAG 8        APSESBIT
000045:                                                                                                  #  APSFLAG         152             BIT 13 FLAG 10       APSFLBIT
000046:                                                                                                  #  ASTNFLAG        108             BIT 12 FLAG 7        ASTNBIT
000047:                                                                                                  #  ATTFLAG         104             BIT 1  FLAG 6        ATTFLBIT
000048:                                                                                                  #  AUTOMODE        193             BIT 2  FLAG 12       AUTOMBIT
000049:                                                                                                  #  AUTR1FLG        209             BIT 1  FLAG 13       AUTRATE1
000050:                                                                                                  #  AUTR2FLG        208             BIT 2  FLAG 13       AUTRATE2
000051:                                                                                                  #  AUXFLAG         103             BIT 2  FLAG 6        AUXFLBIT
000052:                                                                                                  #  AVEGFLAG        115             BIT 5  FLAG 7        AVEGFBIT
000053:                                                                                                  #  AVEMIDSW        149             BIT 1  FLAG 9        AVEMDBIT
000054:                                                                                                  #  AVFLAG          040             BIT 5  FLAG 2        AVFLBIT
000055:                                                                                                  #  CALCMAN2        043             BIT 2  FLAG 2        CALC2BIT
000056:                                                                                                  #  CALCMAN3        042             BIT 3  FLAG 2        CALC3BIT
000057:                                                                                                  #  CDESFLAG        180             BIT 15 FLAG 12       CDESBIT
000058:                                                                                                  #  CMOONFLG        123             BIT 12 FLAG 8        CMOONBIT
000059:                                                                                                  #  COGAFLAG        131             BIT 4  FLAG 8        COGAFBIT
000060:                                                                                                  #  COMPUTER        082             BIT 8  FLAG 5        COMPTBIT
000061:                                                                                                  #  CPHIFLAG        000             BIT 15 FLAG 0        CPHIBIT
000062:                                                                                                  #  CSMDKFLG        197             BIT 13 FLAG 13       CSMDOCKD
000063:                                                                                                  #  CULTFLAG        053             BIT 7  FLAG 3        CULTBIT
000064:                                                                                                  #  CYCLESW         035             BIT 10 FLAG 2        CYCLEBIT
000065:                                                                                                  #  DAPBOOLS                        FLGWRD13
000066:                                                                                                  #  DBSELFLG        206             BIT 4  FLAG 13       DBSELECT
000067:                                                                                                  #  DESIGFLG        185             BIT 10 FLAG 12       DESIGBIT
000068:                                                                                                  #  DIDFLAG         016             BIT 14 FLAG          DIDFLBIT
000069:                                                                                                  #  DIMOFLAG        059             BIT 1  FLAG 3        DIMOBIT
000070:                                                                                                  #  DMENFLG         081             BIT 9  FLAG 5        DMENFBIT
000071:


000073:                                                                                                  #  DRIFTDFL        202             BIT 8  FLAG 13       DRIFTBIT
000074:                                                                                                  #  DRIFTFLG        030             BIT 15 FLAG 2        DRFTBIT
000075:                                                                                                  #  DSKYFLAG        075             BIT 15 FLAG 5        DSKYFBIT
000076:                                                                                                  #  D6OR9FLG        058             BIT 2  FLAG 3        D6OR9BIT
000077:                                                                                                  #  ENGONFLG        083             BIT 7  FLAG 5        ENGONBIT
000078:                                                                                                  #  ERADFLAG        017             BIT 13 FLAG 1        ERADFBIT
000079:                                                                                                  #  ETPIFLAG        038             BIT 7  FLAG 2        ETPIBIT         EQUIVALENT FLAG NAME:  OPTNSW
000080:                                                                                                  #  FINALFLG        039             BIT 6  FLAG 2        FINALBIT
000081:                                                                                                  #  FIRSTFLG        094             BIT 11 FLAG 6        FIRSTBIT
000082:                                                                                                  #  FLAGWRD0        (000-014)       (STATE +0)
000083:                                                                                                  #  FLAGWRD1        (015-029)       (STATE +1)
000084:                                                                                                  #  FLAGWRD2        (030-044)       (STATE +2)
000085:                                                                                                  #  FLAGWRD3        (045-059)       (STATE +3)
000086:                                                                                                  #  FLAGWRD4        (060-074)       (STATE +4)
000087:                                                                                                  #  FLAGWRD5        (075-089)       (STATE +5)
000088:                                                                                                  #  FLAGWRD6        (090-104)       (STATE +6)
000089:                                                                                                  #  FLAGWRD7        (105-119)       (STATE +7)
000090:                                                                                                  #  FLAGWRD8        (120-134)       (STATE +8D)
000091:                                                                                                  #  FLAGWRD9        (135-149)       (STATE +9D)
000092:                                                                                                  #  FLAP            142             BIT 8  FLAG 9        FLAPBIT
000093:                                                                                                  #  FLGWRD10        (150-164)       (STATE +10D)
000094:                                                                                                  #  FLGWRD11        (165-179)       (STATE +11D)
000095:                                                                                                  #  FLGWRD12        (180-194)       (STATE +12D)
000096:                                                                                                  #  FLGWRD13        (195-209)       (STATE +13D)
000097:                                                                                                  #  FLPC            138             BIT 12 FLAG 9        FLPCBIT
000098:                                                                                                  #  FLPI            139             BIT 11 FLAG 9        FLPIBIT
000099:                                                                                                  #  FLRCS           149             BIT 10 FLAG 9        FLRCSBIT
000100:                                                                                                  #  FLUNDISP        125             BIT 10 FLAG 8        FLUNDBIT
000101:                                                                                                  #  FLVR            136             BIT 14 FLAG 9        FLVRBIT
000102:                                                                                                  #  FLZONE0         144             BIT 6  FLAG 9        FLZONBIT
000103:                                                                                                  #  FREEFLAG        012             BIT 3  FLAG 0        FREEFBIT
000104:                                                                                                  #  GLOKFAIL        046             BIT 14 FLAG 3        GLOKFBIT
000105:                                                                                                  #  GMBDRVSW        095             BIT 10 FLAG 6        GMBDRBIT
000106:                                                                                                  #  GUESSW          028             BIT 2  FLAG 1        GUESSBIT
000107:                                                                                                  #  HFLSHFLG        179             BIT 1  FLAG 11       HFLSHBIT
000108:                                                                                                  #  IDLEFLAG        113             BIT 7  FLAG 7        IDLEFBIT
000109:                                                                                                  #  IGNFLAG         107             BIT 13 FLAG 7        IGNFLBIT
000110:                                                                                                  #  IMPULSW         036             BIT 9  FLAG 2        IMPULBIT
000111:                                                                                                  #  IMUSE           007             BIT 8  FLAG 0        IMUSEBIT
000112:                                                                                                  #  INFINFLG        128             BIT 7  FLAG 8        INFINBIT
000113:                                                                                                  #  INITALGN        133             BIT 2  FLAG 8        INITABIT
000114:                                                                                                  #  INTFLAG         151             BIT 14 FLAG 10       INTFLBIT
000115:                                                                                                  #  INTYPFLG        056             BIT 4  FLAG 3        INTYPBIT
000116:                                                                                                  #  ITSWICH         105             BIT 15 FLAG 7        ITSWBIT
000117:                                                                                                  #  JSWITCH         001             BIT 14 FLAG 0        JSWCHBIT
000118:                                                                                                  #  LETABORT        141             BIT 9  FLAG 9        LETABBIT
000119:                                                                                                  #  LMOONFLG        124             BIT 11 FLAG 8        LMOONBIT
000120:                                                                                                  #  LOKONSW         010             BIT 5  FLAG 0        LOKONBIT
000121:                                                                                                  #  LOSCMFLG        033             BIT 12 FLAG 2        LOSCMBIT
000122:                                                                                                  #  LRALTFLG        190             BIT 5  FLAG 12       LRALTBIT
000123:


000125:                                                                                                  #  LRBYPASS        165             BIT 15 FLAG 11       LRBYBIT
000126:                                                                                                  #  LRINH           172             BIT 8  FLAG 11       LRINHBIT
000127:                                                                                                  #  LRPOSFLG        189             BIT 6  FLAG 12       LRPOSBIT
000128:                                                                                                  #  LRVELFLG        187             BIT 8  FLAG 12       LRVELBIT
000129:                                                                                                  #  LUNAFLAG        048             BIT 12 FLAG 3        LUNABIT
000130:                                                                                                  #  MANUFLAG        106             BIT 14 FLAG 7        MANUFBIT
000131:                                                                                                  #  MGLVFLAG        088             BIT 2  FLAG 5        MGLVFBIT
000132:                                                                                                  #  MIDAVFLG        148             BIT 2  FLAG 9        MIDAVBIT
000133:                                                                                                  #  MIDFLAG         002             BIT 13 FLAG 0        MIDFLBIT
000134:                                                                                                  #  MID1FLAG        147             BIT 3  FLAG 9        MID1BIT
000135:                                                                                                  #  MKOVFLAG        072             BIT 3  FLAG 4        MKOVBIT
000136:                                                                                                  #  MOONFLAG        003             BIT 12 FLAG 0        MOONBIT
000137:                                                                                                  #  MRKIDFLG        060             BIT 15 FLAG 4        MRKIDBIT
000138:                                                                                                  #  MRKNVFLG        066             BIT 9  FLAG 4        MRKNVBIT
000139:                                                                                                  #  MRUPTFLG        070             BIT 5 FLAG 4         MRUPTBIT
000140:                                                                                                  #  MUNFLAG         097             BIT 8 FLAG 6         MUNFLBIT
000141:                                                                                                  #  MWAITFLG        064             BIT 11 FLAG 4        MWAITBIT
000142:                                                                                                  #  NEEDLFLG        011             BIT 4  FLAG 0        NEEDLBIT
000143:                                                                                                  #  NEWIFLG         122             BIT 13  FLAG 8       NEWIBIT
000144:                                                                                                  #  NJETSFLG        015             BIT 15 FLAG          NJETSBIT
000145:                                                                                                  #  NODOFLAG        044             BIT 1  FLAG 2        NODOBIT
000146:                                                                                                  #  NOLRREAD        170             BIT 10 FLAG 11       NOLRRBIT
000147:                                                                                                  #  NORMSW          110             BIT 10 FLAG 7        NORMSBIT
000148:                                                                                                  #  NORRMON         086             BIT 4  FLAG 5        NORRMBIT
000149:                                                                                                  #  NOR29FLG        049             BIT 11 FLAG 3        NR29FBIT
000150:                                                                                                  #  NOTHROTL        078             BIT 12 FLAG 5        NOTHRBIT
000151:                                                                                                  #  NOUPFLAG        024             BIT 6  FLAG 1        NOUPFBIT
000152:                                                                                                  #  NRMNVFLG        067             BIT 8  FLAG 4        NRMNVBIT
000153:                                                                                                  #  NRMIDFLG        062             BIT 13 FLAG 4        NRMIDBIT
000154:                                                                                                  #  NRUPTFLG        071             BIT 4  FLAG 4        NRUPTBIT
000155:                                                                                                  #  NTARGFLG        102             BIT 3  FLAG 6        NTARGBIT
000156:                                                                                                  #  NWAITFLG        065             BIT 10 FLAG 4        NWAITBIT
000157:                                                                                                  #  OLDESFLG        014             BIT 1  FLAG 0        OLDESBIT
000158:                                                                                                  #  OPTNSW          038             BIT 7  FLAG 2        OPTNBIT         EQUIVALENT FLAG NAME:  ETPIFLAG
000159:                                                                                                  #  ORBWFLAG        054             BIT 6  FLAG 3        ORBWFBIT
000160:                                                                                                  #  ORDERSW         129             BIT 6  FLAG 8        ORDERBIT
000161:                                                                                                  #  OURRCFLG        198             BIT 12 FLAG 13       OURRCBIT
000162:                                                                                                  #  PDSPFLAG        063             BIT 12 FLAG 4        PDSPFBIT
000163:                                                                                                  #  PFRATFLG        041             BIT 4  FLAG 2        PFRATBIT
000164:                                                                                                  #  PINBRFLG        069             BIT 6  FLAG 4        PINBRBIT
000165:                                                                                                  #  POUTFLAG        098             BIT 7  FLAG 6        POUTBIT
000166:                                                                                                  #  PRECIFLG        052             BIT 8  FLAG 3        PRECIBIT
000167:                                                                                                  #  PRIODFLG        061             BIT 14 FLAG 1        PRIODBIT
000168:                                                                                                  #  PRONVFLG        068             BIT 7  FLAG 4        PRONVBIT
000169:                                                                                                  #  PSTHIGAT        169             BIT 11 FLAG 11       PSTHIBIT
000170:                                                                                                  #  PULSEFLG        195             BIT 15 FLAG 13       PULSES
000171:                                                                                                  #  P25FLAG         006             BIT 9  FLAG 0        P25FLBIT
000172:                                                                                                  #  P39/79SW        126             BIT 9  FLAG 8        P39SWBIT
000173:                                                                                                  #  QUITFLAG        145             BIT 5  FLAG 9        QUITBIT
000174:                                                                                                  #  RADMODES                        FLGWRD12
000175:


000177:                                                                                                  #  RASFLAG                         FLGWRD10
000178:                                                                                                  #  RCDUFAIL        188             BIT 7  FLAG 12       RCDUFBIT
000179:                                                                                                  #  RCDU0FLG        182             BIT 13 FLAG 12       RCDU0BIT
000180:                                                                                                  #  READLR          174             BIT 6  FLAG 11       READLBIT
000181:                                                                                                  #  READRFLG        051             BIT 9  FLAG 3        READRBIT        EQUIVALENT FLAG NAME:  R04FLAG
000182:                                                                                                  #  READVEL         175             BIT 5  FLAG 11       READVBIT
000183:                                                                                                  #  REDFLAG         099             BIT 6  FLAG 6        REDFLBIT
000184:                                                                                                  #  REFSMFLG        047             BIT 13 FLAG 3        REFSMBIT
000185:                                                                                                  #  REINTFLG        158             BIT 7  FLAG 10       REINTBIT
000186:                                                                                                  #  REMODFLG        181             BIT 14 FLAG 12       REMODBIT
000187:                                                                                                  #  RENDWFLG        089             BIT 1  FLAG 5        RENDWBIT
000188:                                                                                                  #  REPOSMON        184             BIT 11 FLAG 12       REPOSBIT
000189:                                                                                                  #  RHCSCFLG        203             BIT 7  FLAG 13       RHCSCALE
000190:                                                                                                  #  RNDVZFLG        008             BIT 7  FLAG 0        RNDVZBIT
000191:                                                                                                  #  RNGEDATA        176             BIT 4  FLAG 11       RNGEDBIT
000192:                                                                                                  #  RNGSCFLG        080             BIT 10 FLAG 5        RNGSCBIT
000193:                                                                                                  #  RPQFLAG         120             BIT 15 FLAG 8        RPQFLBIT
000194:                                                                                                  #  RRDATAFL        191             BIT 4  FLAG 12       RRDATABT
000195:                                                                                                  #  RRNBSW          009             BIT 6 FLAG 0         RRNBBIT
000196:                                                                                                  #  RRRSFLAG        192             BIT 3  FLAG 12       RRRSBIT
000197:                                                                                                  #  RVSW            111             BIT 9  FLAG 7        RVSWBIT
000198:                                                                                                  #  R04FLAG         051             BIT 9  FLAG 3        R04FLBIT        EQUIVALENT FLAG NAME:  READRFLG
000199:                                                                                                  #  R10FLAG         013             BIT 2  FLAG 0        R10FLBIT
000200:                                                                                                  #  R61FLAG         020             BIT 10 FLAG 1        R61FLBIT
000201:                                                                                                  #  R77FLAG         079             BIT 11 FLAG 5        R77FLBIT
000202:                                                                                                  #  SCALBAD         177             BIT 3  FLAG 11       SCABBIT
000203:                                                                                                  #  SLOPESW         027             BIT 3  FLAG 1        SLOPEBIT
000204:                                                                                                  #  SNUFFER         077             BIT 13 FLAG 5        SNUFFBIT
000205:                                                                                                  #  SOLNSW          087             BIT 3  FLAG 5        SOLNSBIT
000206:                                                                                                  #  SRCHOPTN        031             BIT 14 FLAG 2        SRCHOBIT
000207:                                                                                                  #  STATEFLG        055             BIT 5  FLAG 3        STATEBIT
000208:                                                                                                  #  STEERSW         034             BIT 11 FLAG 2        STEERBIT
000209:                                                                                                  #  SURFFLAG        127             BIT 8  FLAG 8        SURFFBIT
000210:                                                                                                  #  SWANDISP        109             BIT 11 FLAG 7        SWANDBIT
000211:                                                                                                  #  S32.1F1         090             BIT 15 FLAG 6        S32BIT1
000212:                                                                                                  #  S32.1F2         092             BIT 14 FLAG 6        S32BIT2
000213:                                                                                                  #  S32.1F3A        092             BIT 13 FLAG 6        S32BIT3A
000214:                                                                                                  #  S32.1S3B        093             BIT 12 FLAG 6        S32BIT3B
000215:                                                                                                  #  TFFSW           119             BIT 1  FLAG 7        TFFSWBIT
000216:                                                                                                  #  TRACKFLG        025             BIT 5  FLAG 1        TRACKBIT
000217:                                                                                                  #  TURNONFL        194             BIT 1  FLAG 12       TURNONBT
000218:                                                                                                  #  ULLAGFLG        204             BIT 6  FLAG 13       ULLAGER
000219:                                                                                                  #  UPDATFLG        023             BIT 7  FLAG 1        UPDATBIT
000220:                                                                                                  #  UPLOCKFL        116             BIT 4  FLAG 7        UPLOCBIT
000221:                                                                                                  #  USEQRFLG        196             BIT 14 FLAG 13       USEQRJTS
000222:                                                                                                  #  VEHUPFLG        022             BIT 8  FLAG 1        VEHUPBIT
000223:                                                                                                  #  VELDATA         173             BIT 7  FLAG 11       VELDABIT
000224:                                                                                                  #  VERIFLAG        117             BIT 3  FLAG 7        VERIFBIT
000225:                                                                                                  #  VFLAG           050             BIT 10 FLAG 3        VFLAGBIT
000226:                                                                                                  #  VFLSHFLG        178             BIT 2  FLAG 11       VFLSHBIT
000227:


000229:                                                                                                  #  VINTFLAG        057             BIT 3  FLAG 3        VINTFBIT
000230:                                                                                                  #  VXINH           168             BIT 12 FLAG 11       VXINHBIT
000231:                                                                                                  #  V37FLAG         114             BIT 6  FLAG 7        V37FLBIT
000232:                                                                                                  #  V67FLAG         112             BIT 8  FLAG 7        V67FLBIT
000233:                                                                                                  #  V82EMFLG        118             BIT 2  FLAG 7        V82EMBIT
000234:                                                                                                  #  XDELVFLG        037             BIT 8  FLAG 2        XDELVBIT
000235:                                                                                                  #  XDSPFLAG        074             BIT 1  FLAG 4        XDSPBIT
000236:                                                                                                  #  XORFLG          171             BIT 9  FLAG 11       XORFLBIT
000237:                                                                                                  #  XOVINFLG        201             BIT 9  FLAG 13       XOVINHIB
000238:                                                                                                  #  2PHASFLG        096             BIT 9  FLAG 6        2PHASBIT
000239:                                                                                                  #  3AXISFLG        084             BIT 6 FLAG 5         3AXISBIT
000240:                                                                                                  #  360SW           134             BIT 1 FLAG  8        360SWBIT
000241:
000242:
000243:
000244:                                                                                                  #            ASSIGNMENT AND DESCRIPTION OF FLAGWORDS
000245:
000246: 24,2022     0074               FLAGWRD0           =        STATE      +0                         #  (000-014)
000247:
000248:                                                                                                  #  (SET)              (RESET)
000249:
000250:                                                                                                  #  BIT 15 FLAG 0 (S)
000251: 24,2022                        CPHIFLAG           =        000D                                  #  OUTPUT OF CALCGA IS OUTPUT OF CALCGA IS
000252: 24,2022     4735               CPHIBIT            =        BIT15                                 #  CPHIX               THETAD
000253:
000254:
000255:                                                                                                  #  BIT 14 FLAG 0 (S)
000256: 24,2022                        JSWITCH            =        001D                                  #  INTEGRATION OF W    INTEGRATION OF STATE
000257: 24,2022     4736               JSWCHBIT           =        BIT14                                 #  MATRIX              VECTOR
000258:
000259:
000260:                                                                                                  #  BIT 13 FLAG 0 (S)
000261: 24,2022                        MIDFLAG            =        002D                                  #  INTEGRATION WITH    INTEGRATION WITHOUT
000262:                                                                                                  #  SECONDARY BODY AND  SOLAR PERTURBATIONS
000263: 24,2022     4737               MIDFLBIT           =        BIT13                                 #  SOLAR PERTURBATIONS
000264:
000265:                                                                                                  #  BIT 12 FLAG 0 (L)
000266: 24,2022                        MOONFLAG           =        003D                                  #  MOON IS SPHERE OF   EARTH IS SPHERE OF
000267: 24,2022     4740               MOONBIT            =        BIT12                                 #  INFLUENCE           INFLUENCE
000268:
000269:                                                                                                  #  BIT 11 FLAG 0
000270:                                                                                                  #                =               004D
000271:                                                                                                  #                =               BIT11
000272:
000273:
000274:                                                                                                  #  BIT 10 FLAG 0
000275:                                                                                                  #                =               005D
000276:


000278:                                                                                                  #                =               BIT10
000279:
000280:
000281:                                                                                                  #  BIT 9 FLAG 0  (S)
000282: 24,2022                        P25FLAG            =        006D                                  #  P25 OPERATING       P25 NOT OPERATING
000283: 24,2022     4743               P25FLBIT           =        BIT9
000284:
000285:
000286:                                                                                                  #  BIT 8 FLAG 0  (S)
000287: 24,2022                        IMUSE              =        007D                                  #  IMU IN USE          IMU NOT IN USE
000288: 24,2022     4744               IMUSEBIT           =        BIT8
000289:
000290:
000291:                                                                                                  #  BIT 7 FLAG 0  (S)
000292: 24,2022                        RNDVZFLG           =        008D                                  #  P20 RUNNING (RADAR  P20 NOT RUNNING
000293: 24,2022     4745               RNDVZBIT           =        BIT7                                  #  IN USE)
000294:
000295:
000296:                                                                                                  #  BIT 6 FLAG 0  (S)
000297: 24,2022                        RRNBSW             =        009D                                  #  RADAR TARGET IN     RADAR TARGET IN
000298: 24,2022     4746               RRNBBIT            =        BIT6                                  #  NB COORDINATES      SM COORDINATES
000299:
000300:
000301:                                                                                                  #  BIT 5 FLAG 0  (S)
000302: 24,2022                        LOKONSW            =        010D                                  #  RADAR LOCK-ON       RADAR LOCK-ON NOT
000303: 24,2022     4747               LOKONBIT           =        BIT5                                  #  DESIRED             DESIRED
000304:
000305:
000306:                                                                                                  #  BIT 4 FLAG 0  (S)
000307: 24,2022                        NEEDLFLG           =        011D                                  #  TOTAL ATTITUDE      A/P FOLLOWING
000308: 24,2022     4750               NEEDLBIT           =        BIT4                                  #  ERROR DISPLAYED     ERROR DISPLAYED
000309:
000310:
000311:                                                                                                  #  BIT 3 FLAG 0
000312: 24,2022                        FREEFLAG           =        012D                                  #  (USED BY P51-53 TEMP IN MANY DIFFERENT
000313:                                                                                                  #  ROUTINES & BY LUNAR + SOLAR EPHEMERIDES)
000314: 24,2022     4751               FREEFBIT           =        BIT3
000315:
000316:
000317:                                                                                                  #  BIT 2 FLAG 0
000318: 24,2022                        R10FLAG            =        013D                                  #  R10 OUTPUTS DATA TO BESIDES OUTPUT WHEN
000319: 24,2022     4752               R10FLBIT           =        BIT2                                  #  ALTITUDE & ALTITUDE SET, R10 ALSO OUTPUT
000320:                                                                                                  #  RATE METERS ONLY    TO FORWARD & LATERAL
000321:                                                                                                  #                      VELOCITY CROSSPOINTR
000322:
000323:
000324:                                                                                                  #  BIT 1 FLAG 0  (L)
000325: 24,2022                        OLDESFLG           =        014D                                  #  R29 GYRO CMD LOOP   R29 GYRO CMD LOOP
000326: 24,2022     4753               OLDESBIT           =        BIT1                                  #  REQUESTED           NOT REQUESTED
000327:


000329:
000330: 24,2022     0075               FLAGWRD1           =        STATE      +1                         #  (015-029)
000331:
000332:                                                                                                  #   (SET)              (RESET)
000333:
000334:                                                                                                  #  BIT 15 FLAG 1 (S)
000335: 24,2022                        NJETSFLG           =        015D                                  #   TWO JET RCS BURN    FOUR JET RCS BURN
000336: 24,2022     4735               NJETSBIT           =        BIT15
000337:
000338:
000339:                                                                                                  #  BIT 14 FLAG 1 (L)
000340: 24,2022                        DIDFLAG            =        016D                                  #  INERTIAL DATA IS     PERFORM DATA DISPLAY
000341: 24,2022     4736               DIDFLBIT           =        BIT14                                 #  AVAILABLE            INITIALIZATION FUNCS
000342:
000343:
000344:                                                                                                  #  BIT 13 FLAG 1 (S)
000345: 24,2022                        ERADFLAG           =        017D                                  #  COMPUTE REARTH       USE CONSTANT REARTH
000346: 24,2022     4737               ERADFBIT           =        BIT13                                 #  FISCHER ELLIPSOID    PAD RADIUS
000347:
000348:
000349:                                                                                                  #  BIT 12 FLAG 1
000350:                                                                                                  #                =               018D
000351:                                                                                                  #                =               BIT12
000352:
000353:
000354:                                                                                                  #  BIT 11 FLAG 1
000355:                                                                                                  #                =               019D
000356:
000357:                                                                                                  #  BIT 10 FLAG 1 (L)
000358: 24,2022                        R61FLAG            =        020D                                  #  RUN R61 LEM          RUN R65 LEM
000359: 24,2022     4742               R61FLBIT           =        BIT10
000360:
000361:                                                                                                  #  BIT 9 FLAG 1
000362:                                                                                                  #                =               021D
000363:                                                                                                  #                =               BIT9
000364:
000365:                                                                                                  #  BIT 8 FLAG 1  (S)
000366: 24,2022                        VEHUPFLG           =        022D                                  #  CSM STATE VECTOR     LEM STATE VECTOR
000367: 24,2022     4744               VEHUPBIT           =        BIT8                                  #  BEING UPDATED        BEING UPDATED
000368:
000369:
000370:                                                                                                  #  BIT 7 FLAG 1  (S)
000371: 24,2022                        UPDATFLG           =        023D                                  #  UPDATING BY MARKS    UPDATING BY MARKS
000372: 24,2022     4745               UPDATBIT           =        BIT7                                  #  ALLOWED              NOT ALLOWED
000373:
000374:
000375:                                                                                                  #  BIT 6 FLAG 1  (S)
000376:


000378: 24,2022                        NOUPFLAG           =        024D                                  #  NEITHER CSM         EITHER STATE
000379:                                                                                                  #  NOR LM STATE VECTOR VECTOR MAY BE
000380: 24,2022     4746               NOUPFBIT           =        BIT6                                  #  MAY BE UPDATED      UPDATED
000381:
000382:
000383:                                                                                                  #  BIT 5 FLAG 1  (S)
000384: 24,2022                        TRACKFLG           =        025D                                  #  TRACKING ALLOWED    TRACKING NOT ALLOWED
000385: 24,2022     4747               TRACKBIT           =        BIT5
000386:
000387:                                                                                                  #  BIT 4 FLAG 1
000388:                                                                                                  #                =               026D
000389:                                                                                                  #                =               BIT4
000390:
000391:
000392:                                                                                                  #  BIT 3 FLAG 1  (S)
000393: 24,2022                        SLOPESW            =        027D                                  #  ITERATE WITH BIAS   ITERATE WITH REGULAR
000394:                                                                                                  #  METHOD IN ITERATOR  FALSI METHOD IN
000395: 24,2022     4751               SLOPEBIT           =        BIT3                                  #                      ITERATOR
000396:
000397:
000398:                                                                                                  #  BIT 2 FLAG 1  (S)
000399: 24,2022                        GUESSW             =        028D                                  #  NO STARTING VALUE   STARTING VALUE FOR
000400: 24,2022     4752               GUESSBIT           =        BIT2                                  #  FOR ITERATION       ITERATION EXISTS
000401:
000402:
000403:                                                                                                  #  BIT 1 FLAG 1
000404:                                                                                                  #                =               029D
000405:
000406:
000407: 24,2022     0076               FLAGWRD2           =        STATE      +2                         #  (030-044)
000408:
000409:                                                                                                  #  (SET)               (RESET)
000410:
000411:                                                                                                  #  BIT 15 FLAG 2 (S)
000412: 24,2022                        DRIFTFLG           =        030D                                  #  T3RUPT CALLS GYRO   T3RUPT DOES NO GYRO
000413: 24,2022     4735               DRFTBIT            =        BIT15                                 #  COMPENSATION        COMPENSATION
000414:
000415:
000416:                                                                                                  #  BIT 14 FLAG 2 (S)
000417: 24,2022                        SRCHOPTN           =        031D                                  #  RADAR IN AUTOMATIC  RADAR NOT IN AUTO-
000418: 24,2022     4736               SRCHOBIT           =        BIT14                                 #  SEARCH OPTION(R24)  MATIC SEARCH OPTION
000419:
000420:
000421:                                                                                                  #  BIT 13 FLAG 2 (S)
000422: 24,2022                        ACMODFLG           =        032D                                  #  MANUAL ACQUISITION  AUTO ACQUISITION
000423: 24,2022     4737               ACMODBIT           =        BIT13                                 #  BY RENDESVOUS RADAR BY RENDESVOUS RADAR
000424:
000425:
000426:                                                                                                  #  BIT 12 FLAG 2 (S)
000427:


000429: 24,2022                        LOSCMFLG           =        033D                                  #  LINE OF SIGHT BEING LINE OF SIGHT NOT
000430:                                                                                                  #  COMPUTED (R21)      BEING COMPUTED
000431: 24,2022     4740               LOSCMBIT           =        BIT12
000432:                                                                                                  #  IN R29 (L): RR GYRO IN R29 (L): RR GYRO
000433:                                                                                                  #  CMD LOOP RUNNING    CMD LOOP OFF
000434:
000435:                                                                                                  #  BIT 11 FLAG 2 (S)
000436: 24,2022                        STEERSW            =        034D                                  #  SUFFICIENT THRUST   INSUFFICIENT THRUST
000437: 24,2022     4741               STEERBIT           =        BIT11                                 #  IS PRESENT          IS PRESENT
000438:
000439:
000440:                                                                                                  #  BIT 10 FLAG 2 (S)
000441: 24,2022                        CYCLESW            =        035D                                  #  LAMBERT VG CALCU-   LAMBERT CALCULATION
000442: 24,2022     4742               CYCLEBIT           =        BIT10                                 #  LATION TO BE DONE   OMITTED
000443:
000444:
000445:                                                                                                  #  BIT 9 FLAG 2 (S)
000446: 24,2022                        IMPULSW            =        036D                                  #  MINIMUM IMPULSE     STEERING BURN (NO
000447:                                                                                                  #  BURN (CUTOFF TIME   CUTOFF TIME YET
000448: 24,2022     4743               IMPULBIT           =        BIT9                                  #  SPECIFIED)          AVAILABLE)
000449:
000450:
000451:                                                                                                  #  BIT 8 FLAG 2 (S)
000452: 24,2022                        XDELVFLG           =        037D                                  #  EXTERNAL DELTAV VG  LAMBERT (AIMPOINT)
000453: 24,2022     4744               XDELVBIT           =        BIT8                                  #  COMPUTATION         VG COMPUTATION
000454:
000455:
000456:                                                                                                  #  BIT 7 FLAG 2 (S)
000457: 24,2022                        ETPIFLAG           =        038D                                  #  ELEVATION ANGLE     TPI TIME SUPPLIED
000458:                                                                                                  #  SUPPLIED FOR        FOR P34,74 TO COMPUT
000459: 24,2022     4745               ETPIBIT            =        BIT7                                  #  P34,74              ELEVATION
000460:
000461:
000462:                                                                                                  #  BIT 7 FLAG 2 (L)
000463: 24,2022  0000046               OPTNSW             =        ETPIFLAG                              #  SOI PHASE OF P38/78  SOR PHASE OF P38/78
000464: 24,2022     4745               OPTNBIT            =        BIT7
000465:
000466:
000467:                                                                                                  #  BIT 6 FLAG 2 (S)
000468: 24,2022                        FINALFLG           =        039D                                  #  LAST PASS THROUGH   INTERIM PASS THROUGH
000469:                                                                                                  #  RENDEZVOUS PROGRAM  RENDEZVOUS PROGRAM
000470: 24,2022     4746               FINALBIT           =        BIT6                                  #  COMPUTATIONS        COMPUTATIONS
000471:
000472:
000473:                                                                                                  #  BIT 5 FLAG 2 (S)
000474: 24,2022                        AVFLAG             =        040D                                  #  LEM IS ACTIVE       CSM IS ACTIVE
000475: 24,2022     4747               AVFLBIT            =        BIT5                                  #  VEHICLE             VEHICLE
000476:
000477:
000478:                                                                                                  #  BIT 4 FLAG 2 (S)
000479:


000481: 24,2022                        PFRATFLG           =        041D                                  #  PREFERRED ATTITUDE  PREFERRED ATTITUDE
000482: 24,2022     4750               PFRATBIT           =        BIT4                                  #  COMPUTED            NOT COMPUTED
000483:
000484:
000485:                                                                                                  #  BIT 3 FLAG 2 (S)
000486: 24,2022                        CALCMAN3           =        042D                                  #  NO FINAL ROLL       FINAL ROLL IS
000487: 24,2022     4751               CALC3BIT           =        BIT3                                  #                      NECESSARY
000488:
000489:
000490:                                                                                                  #  BIT 2 FLAG 2 (S)
000491: 24,2022                        CALCMAN2           =        043D                                  #  PERFORM MANEUVER    BYPASS STARTING
000492: 24,2022     4752               CALC2BIT           =        BIT2                                  #  STARTING PROCEDURE  PROCEDURE
000493:
000494:
000495:                                                                                                  #  BIT 1 FLAG 2 (S)
000496: 24,2022                        NODOFLAG           =        044D                                  #  V37 NOT PERMITTED   V37 PERMITTED
000497: 24,2022     4753               NODOBIT            =        BIT1
000498:
000499:
000500: 24,2022     0077               FLAGWRD3           =        STATE      +3                         #  (045-059)
000501:
000502:                                                                                                  #  (SET)               (RESET)
000503:
000504:                                                                                                  #  BIT 15 FLAG 3
000505:                                                                                                  #                =               045D
000506:
000507:
000508:                                                                                                  #  BIT 14 FLAG 3 (S)
000509: 24,2022                        GLOKFAIL           =        046D                                  #  GIMBAL LOCK HAS     NOT IN GIMBAL LOCK
000510: 24,2022     4736               GLOKFBIT           =        BIT14                                 #  OCCURRED
000511:
000512:
000513:                                                                                                  #  BIT 13 FLAG 3   *** PROTECTED FROM FRESH START ***
000514: 24,2022                        REFSMFLG           =        047D                                  #  REFSMMAT GOOD       REFSMMAT NO GOOD
000515: 24,2022     4737               REFSMBIT           =        BIT13
000516:
000517:
000518:                                                                                                  #  BIT 12 FLAG 3 (S)
000519: 24,2022                        LUNAFLAG           =        048D                                  #  LUNAR LAT-LONG      EARTH LAT-LONG
000520: 24,2022     4740               LUNABIT            =        BIT12
000521:
000522:
000523:                                                                                                  #  BIT 11 FLAG 3 (L)
000524: 24,2022                        NOR29FLG           =        049D                                  #  R29 NOT ALLOWED     R29 ALOWED (RR DES-
000525: 24,2022     4741               NR29FBIT           =        BIT11                                 #                      IGNATE, POWERED FLT)
000526:
000527:
000528:                                                                                                  #  BIT 10 FLAG 3 (S)
000529: 24,2022                        VFLAG              =        050D                                  #  LESS THAN TWO STARS TWO STARS IN FIELD
000530: 24,2022     4742               VFLAGBIT           =        BIT10                                 #  IN FIELD OF VIEW    OF VIEW
000531:


000533:
000534:
000535:                                                                                                  #  BIT 9 FLAG 3  (S)
000536: 24,2022                        R04FLAG            =        051D                                  #  ALARM 521           ALARM 521 ALLOWED
000537:                                                                                                  #  SUPPRESSED
000538: 24,2022     4743               R04FLBIT           =        BIT9
000539:
000540:
000541:                                                                                                  #  BIT 9 FLAG 3  (L)
000542: 24,2022  0000063               READRFLG           =        R04FLAG                               #  READING RR DATA     NOT READING RR DATA
000543: 24,2022     4743               READRBIT           =        BIT9                                  #  PURSUANT TO R29     PURSUANT TO R29
000544:
000545:
000546:                                                                                                  #  BIT 8 FLAG 3  (S)
000547: 24,2022                        PRECIFLG           =        052D                                  #  NORMAL INTEGRATION  ENGAGES 4-TIME STEP
000548:                                                                                                  #  IN POO              (POO) LOGIC IN INTE-
000549: 24,2022     4744               PRECIBIT           =        BIT8                                  #                      GRATION
000550:
000551:
000552:                                                                                                  #  BIT 7 FLAG 3  (S)
000553: 24,2022                        CULTFLAG           =        053D                                  #  STAR OCCULTED       STAR NOT OCCULTED
000554: 24,2022     4745               CULTBIT            =        BIT7
000555:
000556:
000557:                                                                                                  #  BIT 6 FLAG 3  (S)
000558: 24,2022                        ORBWFLAG           =        054D                                  #  W MATRIX VALID FOR  W MATRIX INVALID FOR
000559: 24,2022     4746               ORBWFBIT           =        BIT6                                  #  ORBITAL NAVIGATION  ORBITAL NAVIGATION
000560:
000561:
000562:                                                                                                  #  BIT 5 FLAG 3  (S)
000563: 24,2022                        STATEFLG           =        055D                                  #  PERMANENT STATE     PERMANENT STATE
000564: 24,2022     4747               STATEBIT           =        BIT5                                  #  VECTOR UPDATED      VECTOR NOT UPDATED
000565:
000566:
000567:                                                                                                  #  BIT 4 FLAG 3  (S)
000568: 24,2022                        INTYPFLG           =        056D                                  #  CONIC INTEGRATION   ENCKE INTEGRATION
000569: 24,2022     4750               INTYPBIT           =        BIT4
000570:
000571:
000572:                                                                                                  #  BIT 3 FLAG 3  (S)
000573: 24,2022                        VINTFLAG           =        057D                                  #  CSM STATE VECTOR    LEM STATE VECTOR
000574: 24,2022     4751               VINTFBIT           =        BIT3                                  #  BEING INTEGRATED    BEING INTEGRATED
000575:
000576:
000577:                                                                                                  #  BIT 2 FLAG 3 (S)
000578: 24,2022                        D6OR9FLG           =        058D                                  #  DIMENSION OF W IS 9 DIMENSION OF W IS 6
000579: 24,2022     4752               D6OR9BIT           =        BIT2                                  #  FOR INTEGRATION     FOR INTEGRATION
000580:
000581:
000582:                                                                                                  #  BIT 1 FLAG 3  (S)
000583:


000585: 24,2022                        DIM0FLAG           =        059D                                  #  W MATRIX IS TO BE   W MATRIX IS NOT TO
000586: 24,2022     4753               DIM0BIT            =        BIT1                                  #  USED                BE USED
000587:
000588:
000589: 24,2022     0100               FLAGWRD4           =        STATE      +4                         #  (060-074)
000590:
000591:                                                                                                  #  (SET)               (RESET)
000592:
000593:                                                                                                  #  BIT 15 FLAG 4 (S)
000594: 24,2022                        MRKIDFLG           =        060D                                  #  MARK DISPLAY IN     NO MARK DISPLAY IN
000595: 24,2022     4735               MRKIDBIT           =        BIT15                                 #  ENDIDLE             ENDIDLE
000596:
000597:
000598:                                                                                                  #  BIT 14 FLAG 4 (S)
000599: 24,2022                        PRIODFLG           =        061D                                  #  PRIORITY DISPLAY IN NO PRIORITY DISPLAY
000600: 24,2022     4736               PRIODBIT           =        BIT14                                 #  ENDIDLE             IN ENDIDLE
000601:
000602:
000603:                                                                                                  #  BIT 13 FLAG 4 (S)
000604: 24,2022                        NRMIDFLG           =        062D                                  #  NORMAL DISPLAY IN   NO NORMAL DISPLAY
000605: 24,2022     4737               NRMIDBIT           =        BIT13                                 #  ENDIDLE             IN ENDIDLE
000606:
000607:
000608:                                                                                                  #  BIT 12 FLAG 4 (S)
000609: 24,2022                        PDSPFLAG           =        063D                                  #  P20 SETS SO AS TO   LEAVE AS NORMAL DISP
000610:                                                                                                  #  TURN A NORMAL DIS-
000611: 24,2022     4740               PDSPFBIT           =        BIT12                                 #  PLAY INTO A PRIORITY
000612:                                                                                                  #  DISPLAY IN R60
000613:
000614:
000615:                                                                                                  #  BIT 11 FLAG 4 (S)
000616: 24,2022                        MWAITFLG           =        064D                                  #  HIGHER PRIORITY      NO HIGHER PRIORITY
000617:                                                                                                  #  DISPLAY OPERATING    DISPLAY OPERATING
000618: 24,2022     4741               MWAITBIT           =        BIT11                                 #  WHEN MARK DISPLAY    WHEN MARK DISPLAY
000619:                                                                                                  #  INITIATED            INITIATED
000620:
000621:                                                                                                  #  BIT 10 FLAG 4 (S)
000622: 24,2022                        NWAITFLG           =        065D                                  #  HIGHER PRIORITY      NO HIGHER PRIORITY
000623:                                                                                                  #  DISPLAY OPERATING    DISPLAY OPERATING
000624: 24,2022     4742               NWAITBIT           =        BIT10                                 #  WHEN NORMAL          WHEN NORMAL DISPLAY
000625:                                                                                                  #  DISPLAY INITIATED    INITIATED
000626:
000627:                                                                                                  #  BIT 9 FLAG 4  (S)
000628: 24,2022                        MRKNVFLG           =        066D                                  #  ASTRONAUT USING      ASTRONAUT NOT USING
000629:                                                                                                  #  KEYBOARD WHEN MARK   KEYBOARD WHEN MARK
000630: 24,2022     4743               MRKNVBIT           =        BIT9                                  #  DISPLAY INITIATED    DISPLAY INITIATED
000631:
000632:
000633:                                                                                                  #  BIT 8 FLAG 4  (S)
000634: 24,2022                        NRMNVFLG           =        067D                                  #  ASTRONAUT USING      ASTRONAUT NOT USING
000635:


000637:                                                                                                  #  KEYBOARD WHEN        KEYBOARD WHEN
000638: 24,2022     4744               NRMNVBIT           =        BIT8                                  #  NORMAL DISPLAY       NORMAL DISPLAY
000639:                                                                                                  #  INITIATED            INITIATED
000640:
000641:                                                                                                  #  BIT 7 FLAG 4  (S)
000642: 24,2022                        PRONVFLG           =        068D                                  #  ASTRONAUT USING      ASTRONAUT NOT USING
000643:                                                                                                  #  KEYBOARD WHEN        KEYBOARD WHEN
000644: 24,2022     4745               PRONVBIT           =        BIT7                                  #  PRIORITY DISPLAY     PRIORITY DISPLAY
000645:                                                                                                  #  INITIATED            INITIATED
000646:
000647:                                                                                                  #  BIT 6 FLAG 4  (S)
000648: 24,2022                        PINBRFLG           =        069D                                  #  ASTRONAUT HAS        ASTRONAUT HAS NOT
000649:                                                                                                  #  INTERFERED WITH      INTERFERED WITH
000650: 24,2022     4746               PINBRBIT           =        BIT6                                  #  EXISTING DISPLAY     EXISTING DISPLAY
000651:
000652:
000653:                                                                                                  #  BIT 5 FLAG 4  (S)
000654: 24,2022                        MRUPTFLG           =        070D                                  #  MARK DISPLAY         MARK DISPLAY NOT
000655:                                                                                                  #  INTERRUPTED BY       INTERRUPTED BY
000656: 24,2022     4747               MRUPTBIT           =        BIT5                                  #  PRIORITY DISPLAY     PRIORITY DISPLAY
000657:
000658:
000659:                                                                                                  #  BIT 4 FLAG 4  (S)
000660: 24,2022                        NRUPTFLG           =        071D                                  #  NORMAL DISPLAY       NORMAL DISPLAY NOT
000661:                                                                                                  #  INTERRUPTED BY       INTERRUPTED BY
000662: 24,2022     4750               NRUPTBIT           =        BIT4                                  #  PRIORITY OR MARK     PRIORITY OR MARK
000663:                                                                                                  #  DISPLAY              DISPLAY
000664:
000665:                                                                                                  #  BIT 3 FLAG 4  (S)
000666: 24,2022                        MKOVFLAG           =        072D                                  #  MARK DISPLAY OVER    NO MARK DISPLAY OVER
000667: 24,2022     4751               MKOVBIT            =        BIT3                                  #  NORMAL               NORMAL
000668:
000669:
000670:                                                                                                  #  BIT 2 FLAG 4
000671:                                                                                                  #                =               073D
000672:
000673:
000674:
000675:                                                                                                  #  BIT 1 FLAG 4  (S)
000676: 24,2022                        XDSPFLAG           =        074D                                  #  MARK DISPLAY NOT     NO SPECIAL MARK
000677: 24,2022     4753               XDSPBIT            =        BIT1                                  #  TO BE INTERRUPTED    INFORMATION
000678:
000679:
000680: 24,2022     0101               FLAGWRD5           =        STATE      +5                         #  (075-089)
000681:                                                                                                  #  (SET)                (RESET)
000682:
000683:                                                                                                  #  BIT 15 FLAG 5 (S)
000684: 24,2022                        DSKYFLAG           =        075D                                  #  DISPLAYS SENT TO     NO DISPLAYS TO DSKY
000685: 24,2022     4735               DSKYFBIT           =        BIT15                                 #  DSKY
000686:
000687:


000689:                                                                                                  #  BIT 14 FLAG 5
000690:                                                                                                  #                =               076D
000691:                                                                                                  #                =               BIT14
000692:
000693:
000694:                                                                                                  #  BIT 13 FLAG 5 (S,L)
000695: 24,2022                        SNUFFER            =        077D                                  #  U,V JETS DISABLED   U,V JETS ENABLED
000696:                                                                                                  #  DURING DPS          DURING DPS
000697: 24,2022     4737               SNUFFBIT           =        BIT13                                 #  BURNS (V65)         BURNS (V75)
000698:
000699:
000700:                                                                                                  #  BIT 12 FLAG 5 (S)
000701: 24,2022                        NOTHROTL           =        078D                                  #  INHIBIT FULL        PERMIT FULL THROTTLE
000702: 24,2022     4740               NOTHRBIT           =        BIT12                                 #  THROTTLE
000703:
000704:
000705:                                                                                                  #  BIT 11 FLAG 5 (S,L)
000706: 24,2022                        R77FLAG            =        079D                                  #  R77 IS ON,         R77 IS NOT ON.
000707:                                                                                                  #  SUPPRESS ALL RADAR
000708:                                                                                                  #  ALARMS AND TRACKER
000709: 24,2022     4741               R77FLBIT           =        BIT11                                 #  FAILS
000710:
000711:
000712:                                                                                                  #  BIT 10 FLAG 5 (S)
000713: 24,2022                        RNGSCFLG           =        080D                                  #  SCALE CHANGE HAS    NO SCALE CHANGE HAS
000714:                                                                                                  #  OCCURRED DURING     OCCURRED DURING
000715: 24,2022     4742               RNGSCBIT           =        BIT10                                 #  RR READING          RR READING
000716:
000717:
000718:                                                                                                  #  BIT 9 FLAG 5  (S)
000719: 24,2022                        DMENFLG            =        081D                                  #  DIMENSION OF W IS 9 DIMENSION OF W IS 6
000720: 24,2022     4743               DMENFBIT           =        BIT9                                  #  FOR INCORPORATION   FOR INCORPORATION
000721:
000722:
000723:                                                                                                  #  BIT 8 FLAG 5  (S)
000724: 24,2022                        COMPUTER           =        082D                                  #  COMPUTER IS CMC     COMPUTER IS LGC
000725: 24,2022     4744               COMPTBIT           =        BIT8
000726:
000727:
000728:                                                                                                  #  BIT 7 FLAG 5  (S)
000729: 24,2022                        ENGONFLG           =        083D                                  #  ENGINE TURNED ON    ENGINE TURNED OFF
000730: 24,2022     4745               ENGONBIT           =        BIT7
000731:
000732:
000733:                                                                                                  #  BIT 6 FLAG 5  (S)
000734: 24,2022                        3AXISFLG           =        084D                                  #  MANEUVER SPECIFIED  MANEUVER SPECIFIED
000735:                                                                                                  #  BY THREE AXES       BY ONE AXIS; R60
000736: 24,2022     4746               3AXISBIT           =        BIT6                                  #                      CALLS VECPOINT.
000737:
000738:


000740:                                                                                                  #  BIT 5 FLAG 5
000741:                                                                                                  #                =               085D
000742:
000743:
000744:                                                                                                  #  BIT 4 FLAG 5  (S)
000745: 24,2022                        NORRMON            =        086D                                  #  BYPASS RR GIMBAL    PERFORM
000746: 24,2022     4750               NORRMBIT           =        BIT4                                  #  MONITOR             RR GIMBAL MONITOR
000747:
000748:
000749:                                                                                                  #  BIT 3 FLAG 5  (S)
000750: 24,2022                        SOLNSW             =        087D                                  #  LAMBERT DOES NOT    LAMBERT CONVERGES OR
000751:                                                                                                  #  CONVERGE,OR TIME-RADTIME-RADIUS NON
000752: 24,2022     4751               SOLNSBIT           =        BIT3                                  #  NEARLY CIRCULAR     CIRCULAR
000753:
000754:
000755:                                                                                                  #  BIT 2 FLAG 5  (S)
000756: 24,2022                        MGLVFLAG           =        088D                                  #  LOCAL VERTICAL      MIDDLE GIMBAL ANGLE
000757:                                                                                                  #  COORDINATES         COMPUTED
000758: 24,2022     4752               MGLVFBIT           =        BIT2                                  #  COMPUTED
000759:
000760:                                                                                                  #  BIT 1 FLAG 5  (S)
000761: 24,2022                        RENDWFLG           =        089D                                  #  W MATRIX VALID      W MATRIX INVALID
000762:                                                                                                  #  FOR RENDEZVOUS      FOR RENDEZVOUS
000763: 24,2022     4753               RENDWBIT           =        BIT1                                  #  NAVIGATION          NAVIGATION
000764:
000765:
000766: 24,2022     0102               FLAGWRD6           =        STATE      +6                         #  (090-104)
000767:
000768:                                                                                                  #  (SET)               (RESET)
000769:
000770:                                                                                                  #  BIT 15 FLAG 6 (S)
000771: 24,2022                        S32.1F1            =        090D                                  #  DELTA V AT CSI TIME  DVT1 LESS THEN MAX
000772: 24,2022     4735               S32BIT1            =        BIT15                                 #  ONE EXCEEDS MAX
000773:
000774:
000775:                                                                                                  #  BIT 14 FLAG 6 (S)
000776: 24,2022                        S32.1F2            =        091D                                  #  FIRST PASS OF       REITERATION OF
000777: 24,2022     4736               S32BIT2            =        BIT14                                 #  NEWTON ITERATION    NEWTON
000778:
000779:
000780:                                                                                                  #  BIT 13 FLAG 6 (S)
000781: 24,2022                        S32.1F3A           =        092D                                  #  BIT 13 AND BIT 12 FUNCTION AS AN ORDERED
000782: 24,2022     4737               S32BIT3A           =        BIT13                                 #  PAIR (13,12) INDICATING THE POSSIBLE OC-
000783:                                                                                                  #  CURRANCE OF 2NEWTON ITERATIONS FOR S32.1
000784:                                                                                                  #  IN THE PROGRAM IN THE FOLLOWING ORDER:
000785:                                                                                                  #  BIT 12 FLAG 6                                           (0,1) (I.E.BIT 13 RESET,BIT 12 SET)
000786: 24,2022                        S32.1F3B           =        093D                                  #       = FIRST NEWTON ITERATION BEING DONE
000787: 24,2022     4740               S32BIT3B           =        BIT12                                 #  (0,0)= FIRST PASS OF SECOND NEWT.ITERAT.
000788:                                                                                                  #  (1,1)= 50 FT/SEC STAGE OF SEC. NEWT.ITER
000789:


000791:                                                                                                  #  (1,0)= REMAINDER OF SECOND NEWTON ITERA.
000792:
000793:
000794:                                                                                                  #  BIT 11 FLAG 6 (S)
000795: 24,2022                        FIRSTFLG           =        094D                                  #  SUCCEEDING PASS     FIRST PASS THRU
000796: 24,2022     4741               FIRSTBIT           =        BIT11                                 #  THRU S40.9          S40.9
000797:
000798:
000799:                                                                                                  #  BIT 10 FLAG 6 (S)
000800: 24,2022                        GMBDRVSW           =        095D                                  #  TRIMGIMB OVER       TRIMGIMB NOT OVER
000801: 24,2022     4742               GMBDRBIT           =        BIT10
000802:
000803:
000804:                                                                                                  #  BIT 9 FLAG 6
000805: 24,2022                        2PHASFLG           =        096D                                  #  2-PHASE GUIDANCE IE  ONE-PHASE GUIDANCE
000806: 24,2022     4743               2PHASBIT           =        BIT9                                  #  TTF GOES TO ZERO    I.E. SWITCH OUT OF
000807:                                                                                                  #  BEFORE YOU ENTER    BRAKING PHASE BEFORE
000808:                                                                                                  #  APPROACH PHASE      TTF GETS SMALL
000809:
000810:
000811:                                                                                                  #  BIT 8 FLAG 6  (S)
000812: 24,2022                        MUNFLAG            =        097D                                  #  SERVICER CALLS      SERVICER CALLS
000813: 24,2022     4744               MUNFLBIT           =        BIT8                                  #  MUNRVG              CALCRVG
000814:
000815:
000816:                                                                                                  #  BIT 7 FLAG 6  (L)
000817: 24,2022                        POUTFLAG           =        098D                                  #  PROHIBIT THROTTLE   PERMIT THROTTLE
000818: 24,2022     4745               POUTBIT            =        BIT7                                  #  PULSE-OUT  (P60'S)  PULSE-OUT
000819:
000820:
000821:                                                                                                  #  BIT 6 FLAG 6  (L)
000822: 24,2022                        REDFLAG            =        099D                                  #  LANDING SITE        LANDING SITE
000823:                                                                                                  #  REDESIGNATION       REDESIGNATION NOT
000824: 24,2022     4746               REDFLBIT           =        BIT6                                  #  PERMITTED           PERMITTED
000825:
000826:
000827:                                                                                                  #  BIT 5 FLAG 6
000828:                                                                                                  #                =               100D
000829: 24,2022                        3
000830:
000831:                                                                                                  #  BIT 4 FLAG 6
000832:                                                                                                  #                =               101D
000833:
000834:                                                                                                  #  BIT 3 FLAG 6  (S)
000835: 24,2022                        NTARGFLG           =        102D                                  #  ASTRONAUT DID       ASTRONAUT DID NOT
000836:                                                                                                  #  OVERWRITE DELTA     OVERWRITE DELTA
000837: 24,2022     4751               NTARGBIT           =        BIT3                                  #  VELOCITY AT TPI     VELOCITY
000838:                                                                                                  #  OR TPM (P34,35)
000839:
000840:                                                                                                  #  BIT 2 FLAG 6
000841:


000843: 24,2022                        AUXFLAG            =        103D                                  #  PROVIDING IDLEFLAG  SERVICER WILL SKIP
000844: 24,2022     4752               AUXFLBIT           =        BIT2                                  #  IS NOT SET, SERV-   DVMON ON ITS NEXT
000845:                                                                                                  #  ICER WILL EXERCISE  PASS EVEN IF THE
000846:                                                                                                  #  DVMON ON ITS NEXT   IDLEFLAG IS NOT SET.
000847:                                                                                                  #  PASS.               IT WILL THEN SET
000848:                                                                                                  #  AUXFLAG.
000849:
000850:                                                                                                  #  BIT 1 FLAG 6  (L)
000851: 24,2022                        ATTFLAG            =        104D                                  #  LEM ATTITUDE EXISTS NO LEM ATTITUDE
000852:                                                                                                  #  IN MOON-FIXED       AVAILABLE IN MOON-
000853: 24,2022     4753               ATTFLBIT           =        BIT1                                  #  COORDINATES         FIXED COORDINATES
000854:
000855:
000856: 24,2022     0103               FLAGWRD7           =        STATE      +7                         #  (105-119)
000857:
000858:                                                                                                  #  (SET)               (RESET)
000859:
000860:                                                                                                  #  BIT 15 FLAG 7 (S)
000861: 24,2022                        ITSWICH            =        105D                                  #  R34;TPI TIME TO BE  TPI HAS BEEN
000862: 24,2022     4735               ITSWBIT            =        BIT15                                 #  COMPUTED            COMPUTED
000863:
000864:
000865:                                                                                                  #  BIT 14 FLAG 7 (S)
000866: 24,2022                        MANUFLAG           =        106D                                  #  ATTITUDE MANEUVER   NO ATTITUDE MANEUVER
000867:                                                                                                  #  GOING DURING RR     DURING RR SEARCH
000868: 24,2022     4736               MANUFBIT           =        BIT14                                 #  SEARCH
000869:
000870:
000871:                                                                                                  #  BIT 13 FLAG 7 (S)
000872: 24,2022                        IGNFLAG            =        107D                                  #  TIG HAS ARRIVED     TIG HAS NOT ARRIVED
000873: 24,2022     4737               IGNFLBIT           =        BIT13
000874:
000875:
000876:                                                                                                  #  BIT 12 FLAG 7 (S)
000877: 24,2022                        ASTNFLAG           =        108D                                  #  ASTRONAUT HAS       ASTRONAUT HAS NOT
000878: 24,2022     4740               ASTNBIT            =        BIT12                                 #  OKAYED IGNITION     OKAYED IGNITION
000879:
000880:
000881:                                                                                                  #  BIT 11 FLAG 7 (L)
000882: 24,2022                        SWANDISP           =        109D                                  #  LANDING ANALOG      LANDING ANALOG
000883: 24,2022     4741               SWANDBIT           =        BIT11                                 #  DISPLAYS ENABLED    DISPLAYS SUPPRESSED
000884:
000885:
000886:                                                                                                  #  BIT 10 FLAG 7 (S)
000887: 24,2022                        NORMSW             =        110D                                  #  UNIT NORMAL INPUT   LAMBERT COMPUTES ITS
000888: 24,2022     4742               NORMSBIT           =        BIT10                                 #  TO LAMBERT          OWN UNIT NORMAL
000889:
000890:
000891:                                                                                                  #  BIT 9 FLAG 7  (S)
000892: 24,2022                        RVSW               =        111D                                  #  DO NOT COMPUTE      COMPUTE FINAL STATE
000893:


000895:                                                                                                  #  FINAL STATE VECTOR  VECTOR IN TIME-THETA
000896: 24,2022     4743               RVSWBIT            =        BIT9                                  #  IN TIME-THETA
000897:
000898:
000899:                                                                                                  #  BIT 8 FLAG 7  (S)
000900: 24,2022                        V67FLAG            =        112D                                  #  ASTRONAUT OVERWRITE  ASTRONAUT DOES NOT
000901:                                                                                                  #  W-MATRIX INITIAL    OVERWRITE W-MATRIX
000902: 24,2022     4744               V67FLBIT           =        BIT8                                  #  VALUES              INITIAL VALUES
000903:
000904:
000905:                                                                                                  #  BIT 7 FLAG 7  (S)
000906: 24,2022                        IDLEFLAG           =        113D                                  #  NO DV MONITOR       CONNECT DV MONITOR
000907: 24,2022     4745               IDLEFBIT           =        BIT7
000908:
000909:
000910:                                                                                                  #  BIT 6 FLAG 7  (S)
000911: 24,2022                        V37FLAG            =        114D                                  #  AVERAGEG (SERVICER) AVERAGEG (SERVICER)
000912: 24,2022     4746               V37FLBIT           =        BIT6                                  #  RUNNING             OFF
000913:
000914:
000915:                                                                                                  #  BIT 5 FLAG 7  (S)
000916: 24,2022                        AVEGFLAG           =        115D                                  #  AVERAGEG (SERVICER) AVERAGEG (SERVICER)
000917: 24,2022     4747               AVEGFBIT           =        BIT5                                  #  DESIRED             NOT DESIRED
000918:
000919:
000920:                                                                                                  #  BIT 4 FLAG 7  (S)
000921: 24,2022                        UPLOCKFL           =        116D                                  #  K-KBAR-K FAIL       NO K-KBAR-K FAIL
000922: 24,2022     4750               UPLOCBIT           =        BIT4
000923:
000924:
000925:                                                                                                  #  BIT 3 FLAG 7  (S)
000926: 24,2022                        VERIFLAG           =        117D                                  #  CHANGED WHEN V33E OCCURS AT END OF P27
000927: 24,2022     4751               VERIFBIT           =        BIT3
000928:
000929:
000930:                                                                                                  #  BIT 2 FLAG 7  (L,C)
000931: 24,2022                        V82EMFLG           =        118D                                  #  MOON VICINITY       EARTH VICINITY
000932: 24,2022     4752               V82EMBIT           =        BIT2
000933:
000934:
000935:                                                                                                  #  BIT 1 FLAG 7  (S)
000936: 24,2022                        TFFSW              =        119D                                  #  CALCULATE TPERIGEE  CALCULATE TFF
000937: 24,2022     4753               TFFSWBIT           =        BIT1
000938:
000939:
000940: 24,2022     0104               FLAGWRD8           =        STATE      +8D                        #  (120-134)
000941:
000942:                                                                                                  #  (SET)               (RESET)
000943:
000944:                                                                                                  #  BIT 15 FLAG 8 (S)
000945:


000947: 24,2022                        RPQFLAG            =        120D                                  #  RPQ NOT COMPUTED    RPQ COMPUTED
000948:                                                                                                  #  (RPQ = VECTOR BE-
000949: 24,2022     4735               RPQFLBIT           =        BIT15                                 #  TWEEN SECONDARY BODY
000950:                                                                                                  #  AND PRIMARY BODY
000951:
000952:
000953:                                                                                                  #  BIT 14 FLAG 8
000954:                                                                                                  #                =               121D
000955:                                                                                                  #                =               BIT14
000956:
000957:
000958:                                                                                                  #  BIT 13 FLAG 8 (S)
000959: 24,2022                        NEWIFLG            =        122D                                  #  FIRST PASS THROUGH  SUCCEEDING ITERATION
000960: 24,2022     4737               NEWIBIT            =        BIT13                                 #  INTEGRATION         OF INTEGRATION
000961:
000962:
000963:                                                                                                  #  BIT 12 FLAG 8 *** PROTECTED FROM FRESH START ***
000964: 24,2022                        CMOONFLG           =        123D                                  #  PERMANENT CSM STATE PERMANENT CSM STATE
000965: 24,2022     4740               CMOONBIT           =        BIT12                                 #  IN LUNAR SPHERE     IN EARTH SPHERE
000966:
000967:
000968:                                                                                                  #  BIT 11 FLAG 8 *** PROTECTED FROM FRESH START ***
000969: 24,2022                        LMOONFLG           =        124D                                  #  PERMANENT LM STATE  PERMANENT LM STATE
000970: 24,2022     4741               LMOONBIT           =        BIT11                                 #  IN LUNAR SPHERE     IN EARTH SPHERE
000971:
000972:
000973:                                                                                                  #  BIT 10 FLAG 8 (L)
000974: 24,2022                        FLUNDISP           =        125D                                  #  CURRENT GUIDANCE    CURRENT GUIDANCE
000975: 24,2022     4742               FLUNDBIT           =        BIT10                                 #  DISPLAYS INHIBITED  DISPLAYS PERMITTED
000976:
000977:
000978:                                                                                                  #  BIT 9 FLAG 8  (L)
000979: 24,2022                        P39/79SW           =        126D                                  #  P39/79 OPERATING    P38/P78 OPERATING
000980: 24,2022     4743               P39SWBIT           =        BIT9
000981:
000982:
000983:                                                                                                  #  BIT 8 FLAG 8  *** PROTECTED FROM FRESH START ***
000984: 24,2022                        SURFFLAG           =        127D                                  #  LM ON LUNAR SURFACE LM NOT ON LUNAR
000985: 24,2022     4744               SURFFBIT           =        BIT8                                  #                      SURFACE
000986:
000987:
000988:                                                                                                  #  BIT 7 FLAG 8  (S)
000989: 24,2022                        INFINFLG           =        128D                                  #  NO CONIC SOLUTION   CONIC SOLUTION
000990:                                                                                                  #  (CLOSURE THROUGH    EXISTS
000991: 24,2022     4745               INFINBIT           =        BIT7                                  #  INFINITY REQUIRED)
000992:
000993:
000994:                                                                                                  #  BIT 6 FLAG 8  (S)
000995: 24,2022                        ORDERSW            =        129D                                  #  ITERATOR USES 2ND   ITERATOR USES 1ST
000996: 24,2022     4746               ORDERBIT           =        BIT6                                  #  ORDER MINIMUM MODE  ORDER STANDARD MODE
000997:


000999:
001000:
001001:                                                                                                  #  BIT 5 FLAG 8  (S)
001002: 24,2022                        APSESW             =        130D                                  #  RDESIRED OUTSIDE    RDESIRED INSIDE
001003:                                                                                                  #  PERICENTER-APOCENTERPERICENTER-APOCENTER
001004: 24,2022     4747               APSESBIT           =        BIT5                                  #  RANGE IN TIME-RADI  RANGE IN TIME-RADIUS
001005:
001006:
001007:                                                                                                  #  BIT 4 FLAG 8  (S)
001008: 24,2022                        COGAFLAG           =        131D                                  #  NO CONIC SOLUTION - CONIC SOLUTION
001009:                                                                                                  #  TOO CLOSE TO RECTI- EXISTS(COGA DOES NOT
001010: 24,2022     4750               COGAFBIT           =        BIT4                                  #  LINEAR(COGA OVRFLWS) OVERFLOW)
001011:
001012:
001013:                                                                                                  #  BIT 3 FLAG 8
001014:                                                                                                  #                =               132D
001015:
001016:                                                                                                  #  BIT 2 FLAG 8  (L)
001017: 24,2022                        INITALGN           =        133D                                  #  INITIAL PASS THRU   SECOND PASS THRU P57
001018: 24,2022     4752               INITABIT           =        BIT2                                  #  P57                (CHECK RESET-MILLARD)
001019:
001020:
001021:                                                                                                  #  BIT 1 FLAG 8  (S)
001022: 24,2022                        360SW              =        134D                                  #  TRANSFER ANGLE NEAR TRANSFER ANGLE NOT
001023: 24,2022     4753               360SWBIT           =        BIT1                                  #  360 DEGREES         NEAR 360 DEGREES
001024:
001025:
001026: 24,2022     0105               FLAGWRD9           =        STATE      +9D                        #  (135-149)
001027:
001028:                                                                                                  #  (SET)               (RESET)
001029:
001030:
001031:                                                                                                  #  BIT 15 FLAG 9
001032:                                                                                                  #                =               135D
001033:                                                                                                  #                =               BIT15
001034:
001035:                                                                                                  #  BIT 14 FLAG 9 (L)
001036: 24,2022                        FLVR               =        136D                                  #  VERTICAL RISE       NON-VERTICAL RISE
001037: 24,2022     4736               FLVRBIT            =        BIT14                                 #  (ASCENT GUIDANCE)
001038:
001039:
001040:                                                                                                  #  BIT 13 FLAG 9
001041:                                                                                                  #                =               137D
001042:
001043:
001044:                                                                                                  #  BIT 12 FLAG 9 (L)
001045: 24,2022                        FLPC               =        138D                                  #  NO POSITION CONTROL  POSITION CONTROL
001046: 24,2022     4740               FLPCBIT            =        BIT12                                 #  (ASCENT GUIDANCE)
001047:
001048:


001050:
001051:                                                                                                  #  BIT 11 FLAG 9 (L)
001052: 24,2022                        FLPI               =        139D                                  #  PRE-IGNITION PHASE   REGULAR GUIDANCE
001053: 24,2022     4741               FLPIBIT            =        BIT11                                 #  (ASCENT GUIDANCE)
001054:
001055:
001056:                                                                                                  #  BIT 10 FLAG 9 (L)
001057: 24,2022                        FLRCS              =        140D                                  #  RCS INJECTION MODE   MAIN ENGINE MODE
001058: 24,2022     4742               FLRCSBIT           =        BIT10                                 #  (ASCENT GUIDANCE)
001059:
001060:
001061:                                                                                                  #  BIT 9 FLAG 9  (L)
001062: 24,2022                        LETABORT           =        141D                                  #  ABORT PROGRAMS       ABORT PROGRAMS
001063: 24,2022     4743               LETABBIT           =        BIT9                                  #  ARE ENABLED          ARE NOT ENABLED
001064:
001065:
001066:                                                                                                  #  BIT 8 FLAG 9  (L)
001067: 24,2022                        FLAP               =        142D                                  #  APS CONTINUED ABORT   APS ABORT IS NOT A
001068:                                                                                                  #  AFTER DPS STAGING    CONTINUATION
001069: 24,2022     4744               FLAPBIT            =        BIT8                                  #  (ASCENT GUIDANCE)
001070:
001071:
001072:                                                                                                  #  BIT 7 FLAG 9  (L)
001073:                                                                                                  #                =               143D
001074:
001075:                                                                                                  #  BIT 6 FLAG 9  (L)
001076: 24,2022                        FLZONE0            =        144D                                  #  EARLY ABORT          LATE ABORT
001077: 24,2022     4746               FLZONBIT           =        BIT6                                  #  TFI . 50 SECS.       TFI > 50 SECS.
001078:                                                                                                  #  P70 --> P40
001079:                                                                                                  #  P71 --> P42
001080:
001081:                                                                                                  #  BIT 5 FLAG 9  (S)
001082: 24,2022                        QUITFLAG           =        145D                                  #  DISCONTINUE INTEGR.  CONTINUE INTEGRATION
001083: 24,2022     4747               QUITBIT            =        BIT5
001084:
001085:
001086:                                                                                                  #  BIT 4 FLAG 9
001087:                                                                                                  #                =               146D
001088:                                                                                                  #                =               BIT4
001089:
001090:
001091:                                                                                                  #  BIT 3 FLAG 9  (L)
001092: 24,2022                        MID1FLAG           =        147D                                  #  INTEGRATE TO TDEC    INTEGRATE TO THE
001093: 24,2022     4751               MID1FBIT           =        BIT3                                  #                       THEN-PRESENT TIME
001094:
001095:
001096:                                                                                                  #  BIT 2 FLAG 9  (L)
001097: 24,2022                        MIDAVFLG           =        148D                                  #  INTEGRATION ENTERED  INTEGRATION WAS
001098:                                                                                                  #  FROM ONE OF MIDTOAV  NOT ENTERED VIA
001099: 24,2022     4752               MIDAVBIT           =        BIT2                                  #  PORTALS              MIDTOAV
001100:
001101:


001103:                                                                                                  #  BIT 1 FLAG 9  (S)
001104: 24,2022                        AVEMIDSW           =        149D                                  #  AVETOMID CALLING    NO AVETOMID W INTEGR
001105:                                                                                                  #  FOR W.MATRIX INTEGR ALLOW SET UP RM,VN.
001106: 24,2022     4753               AVEMDBIT           =        BIT1                                  #  DONT WRITE OVER RN, PIPTIME
001107:                                                                                                  #  VN,PIPTIME
001108:
001109:
001110:
001111: 24,2022     0106               RASFLAG            EQUALS   FLGWRD10                              #  WAS ONLY AN INSTALL- ERASTALL FLAG
001112:
001113: 24,2022     0106               FLGWRD10           =        STATE      +10D                       #  (150-164)
001114:
001115:                                                                                                  #  (SET)               (RESET)
001116:
001117:                                                                                                  #  BIT 15 FLAG 10
001118:                                                                                                  #                =               150D
001119:
001120:
001121:                                                                                                  #  BIT 14 FLAG 10 (L,C)
001122: 24,2022                        INTFLAG            =        151D                                  #  INTEGRATION IN       INTEGRATION NOT IN
001123: 24,2022     4736               INTFLBIT           =        BIT14                                 #  PROGRESS             PROGRESS
001124:
001125:
001126:                                                                                                  #  BIT 13 FLAG 10 (S,L)
001127: 24,2022                        APSFLAG            =        152D                                  #  ASCENT STAGE         DESCENT STAGE
001128: 24,2022     4737               APSFLBIT           =        BIT13                                 #  *** PROTECTED FROM FRESH START ***
001129:
001130:
001131:                                                                                                  #  BIT 12 FLAG 10
001132:                                                                                                  #                =               153D
001133:
001134:
001135:                                                                                                  #  BIT 11 FLAG 10
001136:                                                                                                  #                =               154D
001137:
001138:
001139:                                                                                                  #  BIT 10 FLAG 10
001140:                                                                                                  #                =               155D
001141:
001142:
001143:                                                                                                  #  BIT 9 FLAG 10
001144:                                                                                                  #                =               156D
001145:
001146:
001147:                                                                                                  #  BIT 8 FLAG 10
001148:                                                                                                  #                =               157D
001149:
001150:
001151:                                                                                                  #  BIT 7 FLAG 10 (L,C)
001152:


001154: 24,2022                        REINTFLG           =        158D                                  #  INTEGRATION ROUTINE INTEGRATION ROUTINE
001155: 24,2022     4745               REINTBIT           =        BIT7                                  #  TO BE RESTARTED     NOT TO BE RESTARTED
001156:
001157:
001158:                                                                                                  #  BIT 6 FLAG 10
001159:                                                                                                  #                =               159D
001160:
001161:
001162:                                                                                                  #  BIT 5 FLAG 10
001163:                                                                                                  #                =               160D
001164:
001165:
001166:                                                                                                  #  BIT 4 FLAG 10
001167:                                                                                                  #                =               161D
001168:
001169:
001170:                                                                                                  #  BIT 3 FLAG 10
001171:                                                                                                  #                =               162D
001172:
001173:
001174:                                                                                                  #  BIT 2 FLAG 10
001175:                                                                                                  #                =               163D
001176:
001177:
001178:                                                                                                  #  BIT 1 FLAG 10
001179:                                                                                                  #                =               164D
001180:
001181:
001182:
001183:
001184: 24,2022     0107               FLGWRD11           =        STATE      +11D                       #  (165-179)
001185:
001186:                                                                                                  #  (SET)               (RESET)
001187:
001188:                                                                                                  #  BIT 15 FLAG 11 (L)(R12)
001189: 24,2022                        LRBYPASS           =        165D                                  #  BYPASS ALL LANDING  DO NOT BYPASS LR
001190: 24,2022     4735               LRBYBIT            =        BIT15                                 #  RADAR UPDATES       UPDATES
001191:
001192:
001193:                                                                                                  #  BIT 14 FLAG 11
001194:                                                                                                  #                =               166D
001195:                                                                                                  #                =               BIT14
001196:
001197:
001198:                                                                                                  #                =               BIT 13 FLAG 11
001199:                                                                                                  #                =               167D
001200:                                                                                                  #                =               BIT13
001201:
001202:


001204:                                                                                                  #  BIT 12 FLAG 11 (L)(R12)
001205: 24,2022                        VXINH              =        168D                                  #  IF Z VELOCITY DATA  UPDATE X AXIS
001206:                                                                                                  #  UNREASONABLE,       VELOCITY
001207: 24,2022     4740               VXINHBIT           =        BIT12                                 #  BYPASS X VELOCITY
001208:                                                                                                  #  UPDATE ON NEXT PASS
001209:
001210:                                                                                                  #  BIT 11 FLAG 11 (L)(R12)
001211: 24,2022                        PSTHIGAT           =        169D                                  #  PAST HIGATE         PREHIGATE
001212: 24,2022     4741               PSTHIBIT           =        BIT11
001213:
001214:
001215:                                                                                                  #  BIT 10 FLAG 11 (L)(R12)
001216: 24,2022                        NOLRREAD           =        170D                                  #  LANDING RADAR       LR NOT REPOSITIONING
001217:                                                                                                  #  REPOSITIONING;
001218: 24,2022     4742               NOLRRBIT           =        BIT10                                 #  BYPASS UPDATE
001219:
001220:
001221:                                                                                                  #  BIT 9 FLAG 11 (L)(R12)
001222: 24,2022                        XORFLG             =        171D                                  #  BELOW LIMIT         ABOVE LIMIT DO
001223:                                                                                                  #  INHIBIT X AXIS      NOT INHIBIT
001224: 24,2022     4743               XORFLBIT           =        BIT9                                  #  OVERRIDE
001225:
001226:
001227:                                                                                                  #  BIT 8 FLAG 11
001228: 24,2022                        LRINH              =        172D                                  #  LANDING RADAR UP-   LR UPDATES INHIBITED
001229: 24,2022     4744               LRINHBIT           =        BIT8                                  #  DATES PERMITTED     BY ASTRONAUT
001230:                                                                                                  #  BY ASTRONAUT
001231:
001232:
001233:                                                                                                  #  BIT 7 FLAG 11 (L)(R12)
001234: 24,2022                        VELDATA            =        173D                                  #  LR VELOCITY         LR VELOCITY MEASURE
001235: 24,2022     4745               VELDABIT           =        BIT7                                  #  MEASUREMENT MADE    NOT MADE
001236:
001237:
001238:                                                                                                  #  BIT 6 FLAG 11 (L)(R12)
001239: 24,2022                        READLR             =        174D                                  #  OK TO READ LR       DO NOT READ LR RANGE
001240: 24,2022     4746               READLBIT           =        BIT6                                  #  RANGE DATA          DATA
001241:
001242:
001243:                                                                                                  #  BIT 5 FLAG 11 (L)(R12)
001244: 24,2022                        READVEL            =        175D                                  #  OK TO READ LR       DO NOT READ LR
001245: 24,2022     4747               READVBIT           =        BIT5                                  #  VELOCITY DATA       VELOCITY DATA
001246:
001247:
001248:                                                                                                  #  BIT 4 FLAG 11 (L)(R12)
001249: 24,2022                        RNGEDATA           =        176D                                  #  LR ALTITUDE         LR ALTITUDE MEASURE
001250: 24,2022     4750               RNGEDBIT           =        BIT4                                  #  MEASUREMENT MADE    NOT MADE
001251:
001252:
001253:                                                                                                  #  BIT 3 FLAG 11
001254:


001256: 24,2022                        SCALBAD            =        177D                                  #  LR LOW SCALE DIS-   LR SCALE DISCRETE
001257: 24,2022     4751               SCABBIT            =        BIT3                                  #  CRETE NOT PRESENT   APPEARS OK
001258:                                                                                                  #  WHEN IT SHOULD BE
001259:
001260:                                                                                                  #  BIT 2 FLAG 11 (L)(R12)
001261: 24,2022                        VFLSHFLG           =        178D                                  #  LR VELOCITY FAIL    LR VEL FAIL LAMP
001262:                                                                                                  #  LAMP SHOULD BE      SHOULDN'T FLASH
001263: 24,2022     4752               VFLSHBIT           =        BIT2                                  #  FLASHING
001264:
001265:
001266:                                                                                                  #  BIT 1 FLAG 11 (L)(R12)
001267: 24,2022                        HFLSHFLG           =        179D                                  #  LR ALTITUDE FAIL    LR ALTITUDE FAIL
001268: 24,2022     4753               HFLSHBIT           =        BIT1                                  #  LAMP SHOULD BE      LAMP SHOULD NOT BE
001269:                                                                                                  #  FLASHING            FLASHING
001270:
001271:
001272: 24,2022     0110               RADMODES           EQUALS   FLGWRD12                              #  RADAR FLAG WORD
001273:
001274:
001275: 24,2022     0110               FLGWRD12           =        STATE      +12D                       #  (180-194)       WAS RADMODES
001276:
001277:                                                                                                  #  (SET)               (RESET)
001278:
001279:                                                                                                  #  BIT 15 FLAG 12
001280: 24,2022                        CDESFLAG           =        180D                                  #  CONTINUOUS DESIG-   LGC CHECKS FOR LOCK-
001281: 24,2022     4735               CDESBIT            =        BIT15                                 #  NATE. LGC COMMANDS  ON WHEN ANTENNA
001282:                                                                                                  #  RR REGARDLESS OF    BEING DESIGNATED
001283:                                                                                                  #  LOCK-ON
001284:
001285:                                                                                                  #  BIT 14 FLAG 12
001286: 24,2022                        REMODFLG           =        181D                                  #  CHANGE IN ANTENNA   NO REMODE REQUESTED
001287: 24,2022     4736               REMODBIT           =        BIT14                                 #  MODE BEEN REQUESTED OR OCCURRING
001288:                                                                                                  #  I.E., REMODE
001289:
001290:
001291:                                                                                                  #  BIT 13 FLAG 12
001292: 24,2022                        RCDU0FLG           =        182D                                  #  RR CDU'S BEING      RR CDU'S NOT BEING
001293: 24,2022     4737               RCDU0BIT           =        BIT13                                 #  ZEROED              ZEROED
001294:
001295:
001296:                                                                                                  #  BIT 12 FLAG 12
001297: 24,2022                        ANTENFLG           =        183D                                  #  RR ANTENNA MODE IS  RR ANTENNA IN MODE 1
001298: 24,2022     4740               ANTENBIT           =        BIT12                                 #  MODE 2
001299:
001300:
001301:                                                                                                  #  BIT 11 FLAG 12
001302: 24,2022                        REPOSMON           =        184D                                  #  REPOSITION MONITOR. NO REPOSITION TAKING
001303: 24,2022     4741               REPOSBIT           =        BIT11                                 #  RR REPOSITION IS    PLACE
001304:


001306:                                                                                                  #  TAKING PLACE
001307:
001308:
001309:                                                                                                  #  BIT 10 FLAG 12
001310: 24,2022                        DESIGFLG           =        185D                                  #  RR DESIGNATE        RR DESIGNATE NOT
001311: 24,2022     4742               DESIGBIT           =        BIT10                                 #  REQUESTED OR IN     REQUESTED OR IN
001312:                                                                                                  #  PROGRESS            PROGRESS
001313:
001314:
001315:                                                                                                  #  BIT 9 FLAG 12
001316: 24,2022                        ALTSCALE           =        186D                                  #  LR ALTITUDE READING LR ALTITUDE READING
001317: 24,2022     4743               ALTSCBIT           =        BIT9                                  #  IS ON HIGH SCALE    IS ON LOW SCALE
001318:
001319:
001320:                                                                                                  #  BIT 8 FLAG 12
001321: 24,2022                        LRVELFLG           =        187D                                  #  LR VELOCITY DATA    NO LR VELOCITY DATA
001322: 24,2022     4744               LRVELBIT           =        BIT8                                  #  FAIL                FAIL
001323:
001324:
001325:                                                                                                  #  BIT 7 FLAG 12
001326: 24,2022                        RCDUFAIL           =        188D                                  #  RR CDU FAIL HAS     RR CDU FAIL OCCURRED
001327: 24,2022     4745               RCDUFBIT           =        BIT7                                  #  NOT OCCURRED
001328:
001329:
001330:                                                                                                  #  BIT 6 FLAG 12
001331: 24,2022                        LRPOSFLG           =        189D                                  #  LANDING RADAR       LR POSITION 1
001332: 24,2022     4746               LRPOSBIT           =        BIT6                                  #  POSITION 2
001333:
001334:
001335:                                                                                                  #  BIT 5 FLAG 12
001336: 24,2022                        LRALTFLG           =        190D                                  #  LR ALTITUDE DATA    NO LR ALTITUDE DATA
001337: 24,2022     4747               LRALTBIT           =        BIT5                                  #  FAIL. COULD NOT BE  FAIL
001338:                                                                                                  #  READ SUCCESSFULLY.
001339:
001340:
001341:                                                                                                  #  BIT 4 FLAG 12
001342: 24,2022                        RRDATAFL           =        191D                                  #  RR DATA FAIL.       NO RR DATA FAIL.
001343: 24,2022     4750               RRDATABT           =        BIT4                                  #  DATA COULD NOT BE
001344:                                                                                                  #  READ SUCCESSFULLY
001345:
001346:
001347:                                                                                                  #  BIT 3 FLAG 12
001348: 24,2022                        RRRSFLAG           =        192D                                  #  RR RANGE READING    RR RANGE READING ON
001349: 24,2022     4751               RRRSBIT            =        BIT3                                  #  ON THE HIGH SCALE   THE LOW SCALE
001350:
001351:
001352:                                                                                                  #  BIT 2 FLAG 12
001353: 24,2022                        AUTOMODE           =        193D                                  #  RR NOT IN AUTO MODE.RR IN AUTO MODE
001354: 24,2022     4752               AUTOMBIT           =        BIT2                                  #  AUTO MODE DISCRETE
001355:                                                                                                  #  IS NOT PRESENT
001356:


001358:
001359:                                                                                                  #  BIT 1 FLAG 12
001360: 24,2022                        TURNONFL           =        194D                                  #  RR TURN-ON SEQUENCE NO RR TURN-ON
001361: 24,2022     4753               TURNONBT           =        BIT1                                  #  IN PROGRESS. (ZERO  SEQUENCE IN PROGRESS
001362:                                                                                                  #  CDU'S, FIX ANTENNA
001363:                                                                                                  #  MODE)
001364:
001365:
001366: 24,2022     0111               DAPBOOLS           EQUALS   FLGWRD13                              #  DIGITAL AUTOPILOT FLAGWORD
001367:
001368:
001369: 24,2022     0111               FLGWRD13           =        STATE      +13D                       #  (195-209)       WAS DAPBOOLS
001370:
001371:                                                                                                  #  (SET)               (RESET)
001372:
001373:                                                                                                  #  BIT 15 FLAG 13
001374: 24,2022                        PULSEFLG           =        195D                                  #  MINIMUM IMPULSE     NOT IN MINIMUM
001375: 24,2022     4735               PULSES             =        BIT15                                 #  COMMAND MODE IN     IMPULSE COMMAND MODE
001376:                                                                                                  #  "ATT HOLD" (V76)    (V77)
001377:
001378:
001379:                                                                                                  #  BIT 14 FLAG 13
001380: 24,2022                        USEQRFLG           =        196D                                  #  GIMBAL UNUSABLE.    TRIM GIMBAL MAY BE
001381: 24,2022     4736               USEQRJTS           =        BIT14                                 #  USE JETS ONLY.      USED.
001382:
001383:
001384:                                                                                                  #  BIT 13 FLAG 13
001385: 24,2022                        CSMDKFLG           =        197D                                  #  CSM DOCKED.  USE    CSM NOT DOCKED TO LM
001386: 24,2022     4737               CSMDOCKD           =        BIT13                                 #  BACKUP DAP
001387:
001388:
001389:                                                                                                  #  BIT 12 FLAG 13
001390: 24,2022                        OURRCFLG           =        198D                                  #  CURRENT DAP PASS    CURRENT DAP PASS IS
001391: 24,2022     4740               OURRCBIT           =        BIT12                                 #  IS RATE COMMAND     NOT RATE COMMAND
001392:
001393:
001394:                                                                                                  #  BIT 11 FLAG 13
001395: 24,2022                        ACC4-2FL           =        199D                                  #  4 JET X-AXIS TRANS- 2 JET X-AXIS TRANS-
001396: 24,2022     4741               ACC4OR2X           =        BIT11                                 #  LATION REQUESTED    LATION REQUESTED
001397:
001398:
001399:                                                                                                  #  BIT 10 FLAG 13
001400: 24,2022                        AORBTFLG           =        200D                                  #  B SYSTEM FOR X-     A SYSTEM FOR X-
001401: 24,2022     4742               AORBTRAN           =        BIT10                                 #  TRANSLATION         TRANSLATION PREFER'D
001402:
001403:
001404:                                                                                                  #  BIT 9 FLAG 13
001405: 24,2022                        XOVINFLG           =        201D                                  #  X-AXIS OVERRIDE     X-AXIS OVERRIDE OKAY
001406: 24,2022     4743               XOVINHIB           =        BIT9                                  #  LOCKED OUT
001407:
001408:


001410:
001411:
001412:                                                                                                  #  BIT 8 FLAG 13
001413: 24,2022                        DRIFTDFL           =        202D                                  #  ASSUME 0 OFFSET     USE OFFSET ACCELERA-
001414: 24,2022     4744               DRIFTBIT           =        BIT8                                  #  DRIFTING FLIGHT.    TION ESTIMATE
001415:
001416:
001417:                                                                                                  #  BIT 7 FLAG 13
001418: 24,2022                        RHCSCFLG           =        203D                                  #  NORMAL RHC SCALING  FINE RHC SCALING
001419: 24,2022     4745               RHCSCALE           =        BIT7                                  #  REQUESTED           REQUESTED
001420:
001421:
001422:                                                                                                  #  BIT 6 FLAG 13
001423: 24,2022                        ULLAGFLG           =        204D                                  #  ULLAGE REQUEST BY   NO INTERNAL ULLAGE
001424: 24,2022     4746               ULLAGER            =        BIT6                                  #  MISSION PROGRAM     REQUEST
001425:
001426:
001427:                                                                                                  #  BIT 5 FLAG 13
001428: 24,2022                        AORBSFLG           =        205D                                  #  P-AXIS COUPLES 7.15 P-AXIS COUPLES 4.12
001429: 24,2022     4747               AORBSYST           =        BIT5                                  #  AND 8.16 PREFERRED  AND 3.11 PREFERRED
001430:
001431:
001432:                                                                                                  #  BIT 4 FLAG 13
001433: 24,2022                        DBSELFLG           =        206D                                  #  MAX DB SELECTED     MIN DB SELECTED BY
001434: 24,2022     4750               DBSELECT           =        BIT4                                  #  BY CREW (5 DEG)     CREW (0.3 DEG)
001435:
001436:
001437:                                                                                                  #  BIT 3 FLAG 13
001438: 24,2022                        ACCOKFLG           =        207D                                  #  CONTROL AUTHORITY   RESTART OR FRESH ST.
001439: 24,2022     4751               ACCSOKAY           =        BIT3                                  #  VALUES FROM 1/ACCS  SINCE LAST 1/ACCS;
001440:                                                                                                  #  USABLE              OUTPUTS SUSPECT.
001441:
001442:
001443:                                                                                                  #  BIT 2 FLAG 13
001444: 24,2022                        AUTR2FLG           =        208D                                  #  THESE FLAGS ARE USED TOGETHER TO INDICAT
001445: 24,2022     4752               AUTRATE2           =        BIT2                                  #  ASTRONAUT-CHOSEN KALCMANU MANEUVER RATES
001446:                                                                                                  #  (0,0)=(BIT2,BIT1)= 0.2 DEG/SEC
001447:                                                                                                  #  (0,1)=  0.5 DEG/SEC
001448:                                                                                                  #  BIT 1 FLAG 13
001449: 24,2022                        AUTR1FLG           =        209D                                  #  (1,0)=  2.0 DEG/SEC
001450: 24,2022     4753               AUTRATE1           =        BIT1                                  #  (1,1)= 10.0 DEG/SEC
001451:
001452:

End of include-file FLAGWORD_ASSIGNMENTS.agc.  Parent file is MAIN.agc


