
Source Code


000002:                                                                                                  ## Copyright:   Public domain.
000003:                                                                                                  ## Filename:    FLAGWORD_ASSIGNMENTS.agc
000004:                                                                                                  ## Purpose:     The main source file for Luminary revision 069.
000005:                                                                                                  ##              It is part of the source code for the original release
000006:                                                                                                  ##              of the flight software for the Lunar Module's (LM) Apollo
000007:                                                                                                  ##              Guidance Computer (AGC) for Apollo 10. The actual flown
000008:                                                                                                  ##              version was Luminary 69 revision 2, which included a
000009:                                                                                                  ##              newer lunar gravity model and only affected module 2.
000010:                                                                                                  ##              This file is intended to be a faithful transcription, except
000011:                                                                                                  ##              that the code format has been changed to conform to the
000012:                                                                                                  ##              requirements of the yaYUL assembler rather than the
000013:                                                                                                  ##              original YUL assembler.
000014:                                                                                                  ## Reference:   pp. 77-104
000015:                                                                                                  ## Assembler:   yaYUL
000016:                                                                                                  ## Contact:     Ron Burkey <info@sandroid.org>.
000017:                                                                                                  ## Website:     www.ibiblio.org/apollo/index.html
000018:                                                                                                  ## Mod history: 2016-12-13 MAS  Created from Luminary 99.
000019:                                                                                                  ##              2016-01-03 HG   Transcribed
000020:                                                                                                  ##              2017-01-21 HG   Fix label CHIPFLAG -> CPHIFLAG
000021:                                                                                                  ##              2017-01-25 RSB  Proofed comment text using octopus/prooferComments
000022:                                                                                                  ##                              and fixed errors found.
000023:                                                                                                  ##              2017-03-15 RSB  Comment-text fixes identified in 5-way
000024:                                                                                                  ##                              side-by-side diff of Luminary 69/99/116/131/210.
000025:                                                                                                  ##              2017-08-14 MAS  Fixed a typo found while transcribing Zerlina 56.
000026:                                                                                                  ##              2021-05-30 ABS  Removed erroneous "-3" line.
000027:


000029:                                                                                                  #           FLAGWORDS 0-11  ARE DOWNLINKED AND CAN BE SET AND CLEARED BY UP-FLAG AND DOWN-FLAG INSTRUCTIONS IN THE
000030:                                                                                                  #                           INTERPRETER. THESE WERE PREVIOUSLY LISTED UNDER "INTERPRETIVE SWITCH BIT ASSIGNMENTS" IN
000031:                                                                                                  #                           THE ERASABLE LOG SECTION. FLAGWORDS 12 & 13 WEREPREVIOUSLY RADMODES AND DAPBOOLS AND
000032:                                                                                                  #                           ARE STILL DOWNLINKED UNDER THOSE NAMES.
000033:
000034:
000035:
000036:                                                                                                  #           ALPHABETICAL LIST OF FLAGWORDS
000037:
000038:
000039:                                                                                                  #  FLAGWORD        DEC. NUMBER     BIT AND FLAG         BIT NAME
000040:
000041:                                                                                                  #  ACCOKFLG        207             BIT 3  FLAG 13       ACCSOKAY
000042:                                                                                                  #  ACC4-2FL        199             BIT 11 FLAG 13       ACC4OR2X
000043:                                                                                                  #  ACMODFLG        032             BIT 13 FLAG 2        ACMODBIT
000044:                                                                                                  #  ALTSCALE        186             BIT 9  FLAG 12       ALTSCBIT
000045:                                                                                                  #  ANTENFLG        183             BIT 12 FLAG 12       ANTENBIT
000046:                                                                                                  #  AORBSFLG        205             BIT 5  FLAG 13       AORBSYST
000047:                                                                                                  #  AORBTFLG        200             BIT 10 FLAG 13       AORBTRAN
000048:                                                                                                  #  APSESW          130             BIT 5  FLAG 8        APSESBIT
000049:                                                                                                  #  APSFLAG         152             BIT 13 FLAG 10       APSFLBIT
000050:                                                                                                  #  ASTNFLAG        108             BIT 12 FLAG 7        ASTNBIT
000051:                                                                                                  #  ATTFLAG         104             BIT 1  FLAG 6        ATTFLBIT
000052:                                                                                                  #  AUTOMODE        193             BIT 2  FLAG 12       AUTOMBIT
000053:                                                                                                  #  AUTR1FLG        209             BIT 1  FLAG 13       AUTRATE1
000054:                                                                                                  #  AUTR2FLG        208             BIT 2  FLAG 13       AUTRATE2
000055:                                                                                                  #  AUXFLAG         103             BIT 2  FLAG 6        AUXFLBIT
000056:                                                                                                  #  AVEGFLAG        115             BIT 5  FLAG 7        AVEGFBIT
000057:                                                                                                  #  AVEMIDSW        149             BIT 1  FLAG 9        AVEMDBIT
000058:                                                                                                  #  AVFLAG          040             BIT 5  FLAG 2        AVFLBIT
000059:                                                                                                  #  CALCMAN2        043             BIT 2  FLAG 2        CALC2BIT
000060:                                                                                                  #  CALCMAN3        042             BIT 3  FLAG 2        CALC3BIT
000061:                                                                                                  #  CDESFLAG        180             BIT 15 FLAG 12       CDESBIT
000062:                                                                                                  #  CMOONFLG        123             BIT 12 FLAG 8        CMOONBIT
000063:                                                                                                  #  COGAFLAG        131             BIT 4  FLAG 8        COGAFBIT
000064:                                                                                                  #  COMPUTER        082             BIT 8  FLAG 5        COMPTBIT
000065:                                                                                                  #  CPHIFLAG        000             BIT 15 FLAG 0        CPHIBIT
000066:                                                                                                  #  CSMDKFLG        197             BIT 13 FLAG 13       CSMDOCKD
000067:                                                                                                  #  CULTFLAG        053             BIT 7  FLAG 3        CULTBIT
000068:                                                                                                  #  CYCLESW         035             BIT 10 FLAG 2        CYCLEBIT
000069:                                                                                                  #  DAPBOOLS                        FLGWRD13
000070:                                                                                                  #  DBSELFLG        206             BIT 4  FLAG 13       DBSELECT
000071:                                                                                                  #  DESIGFLG        185             BIT 10 FLAG 12       DESIGBIT
000072:                                                                                                  #  DIDFLAG         016             BIT 14 FLAG          DIDFLBIT
000073:                                                                                                  #  DIMOFLAG        059             BIT 1  FLAG 3        DIMOBIT
000074:                                                                                                  #  DMENFLG         081             BIT 9  FLAG 5        DMENFBIT
000075:


000077:                                                                                                  #  DRIFTDFL        202             BIT 8  FLAG 13       DRIFTBIT
000078:                                                                                                  #  DRIFTFLG        030             BIT 15 FLAG 2        DRFTBIT
000079:                                                                                                  #  DSKYFLAG        075             BIT 15 FLAG 5        DSKYFBIT
000080:                                                                                                  #  D6OR9FLG        058             BIT 2  FLAG 3        D6OR9BIT
000081:                                                                                                  #  ENGONFLG        083             BIT 7  FLAG 5        ENGONBIT
000082:                                                                                                  #  ERADFLAG        017             BIT 13 FLAG 1        ERADFBIT
000083:                                                                                                  #  ETPIFLAG        038             BIT 7  FLAG 2        ETPIBIT         EQUIVALENT FLAG NAME:  OPTNSW
000084:                                                                                                  #  FINALFLG        039             BIT 6  FLAG 2        FINALBIT
000085:                                                                                                  #  FIRSTFLG        094             BIT 11 FLAG 6        FIRSTBIT
000086:                                                                                                  #  FLAGWRD0        (000-014)       (STATE +0)
000087:                                                                                                  #  FLAGWRD1        (015-029)       (STATE +1)
000088:                                                                                                  #  FLAGWRD2        (030-044)       (STATE +2)
000089:                                                                                                  #  FLAGWRD3        (045-059)       (STATE +3)
000090:                                                                                                  #  FLAGWRD4        (060-074)       (STATE +4)
000091:                                                                                                  #  FLAGWRD5        (075-089)       (STATE +5)
000092:                                                                                                  #  FLAGWRD6        (090-104)       (STATE +6)
000093:                                                                                                  #  FLAGWRD7        (105-119)       (STATE +7)
000094:                                                                                                  #  FLAGWRD8        (120-134)       (STATE +8D)
000095:                                                                                                  #  FLAGWRD9        (135-149)       (STATE +9D)
000096:                                                                                                  #  FLAP            142             BIT 8  FLAG 9        FLAPBIT
000097:                                                                                                  #  FLGWRD10        (150-164)       (STATE +10D)
000098:                                                                                                  #  FLGWRD11        (165-179)       (STATE +11D)
000099:                                                                                                  #  FLGWRD12        (180-194)       (STATE +12D)
000100:                                                                                                  #  FLGWRD13        (195-209)       (STATE +13D)
000101:                                                                                                  #  FLPC            138             BIT 12 FLAG 9        FLPCBIT
000102:                                                                                                  #  FLPI            139             BIT 11 FLAG 9        FLPIBIT
000103:                                                                                                  #  FLRCS           149             BIT 10 FLAG 9        FLRCSBIT
000104:                                                                                                  #  FLUNDISP        125             BIT 10 FLAG 8        FLUNDBIT
000105:                                                                                                  #  FLVR            136             BIT 14 FLAG 9        FLVRBIT
000106:                                                                                                  #  FLZONE0         144             BIT 6  FLAG 9        FLZONBIT
000107:                                                                                                  #  FREEFLAG        012             BIT 3  FLAG 0        FREEFBIT
000108:                                                                                                  #  GLOKFAIL        046             BIT 14 FLAG 3        GLOKFBIT
000109:                                                                                                  #  GMBDRVSW        095             BIT 10 FLAG 6        GMBDRBIT
000110:                                                                                                  #  GUESSW          028             BIT 2  FLAG 1        GUESSBIT
000111:                                                                                                  #  HFLSHFLG        179             BIT 1  FLAG 11       HFLSHBIT
000112:                                                                                                  #  IDLEFLAG        113             BIT 7  FLAG 7        IDLEFBIT
000113:                                                                                                  #  IGNFLAG         107             BIT 13 FLAG 7        IGNFLBIT
000114:                                                                                                  #  IMPULSW         036             BIT 9  FLAG 2        IMPULBIT
000115:                                                                                                  #  IMUSE           007             BIT 8  FLAG 0        IMUSEBIT
000116:                                                                                                  #  INFINFLG        128             BIT 7  FLAG 8        INFINBIT
000117:                                                                                                  #  INITALGN        133             BIT 2  FLAG 8        INITABIT
000118:                                                                                                  #  INTFLAG         151             BIT 14 FLAG 10       INTFLBIT
000119:                                                                                                  #  INTYPFLG        056             BIT 4  FLAG 3        INTYPBIT
000120:                                                                                                  #  ITSWICH         105             BIT 15 FLAG 7        ITSWBIT
000121:                                                                                                  #  JSWITCH         001             BIT 14 FLAG 0        JSWCHBIT
000122:                                                                                                  #  LETABORT        141             BIT 9  FLAG 9        LETABBIT
000123:                                                                                                  #  LMOONFLG        124             BIT 11 FLAG 8        LMOONBIT
000124:                                                                                                  #  LOKONSW         010             BIT 5  FLAG 0        LOKONBIT
000125:                                                                                                  #  LOSCMFLG        033             BIT 12 FLAG 2        LOSCMBIT
000126:                                                                                                  #  LRALTFLG        190             BIT 5  FLAG 12       LRALTBIT
000127:


000129:                                                                                                  #  LRBYPASS        165             BIT 15 FLAG 11       LRBYBIT
000130:                                                                                                  #  LRINH           172             BIT 8  FLAG 11       LRINHBIT
000131:                                                                                                  #  LRPOSFLG        189             BIT 6  FLAG 12       LRPOSBIT
000132:                                                                                                  #  LRVELFLG        187             BIT 8  FLAG 12       LRVELBIT
000133:                                                                                                  #  LUNAFLAG        048             BIT 12 FLAG 3        LUNABIT
000134:                                                                                                  #  MANUFLAG        106             BIT 14 FLAG 7        MANUFBIT
000135:                                                                                                  #  MGLVFLAG        088             BIT 2  FLAG 5        MGLVFBIT
000136:                                                                                                  #  MIDAVFLG        148             BIT 2  FLAG 9        MIDAVBIT
000137:                                                                                                  #  MIDFLAG         002             BIT 13 FLAG 0        MIDFLBIT
000138:                                                                                                  #  MID1FLAG        147             BIT 3  FLAG 9        MID1BIT
000139:                                                                                                  #  MKOVFLAG        072             BIT 3  FLAG 4        MKOVBIT
000140:                                                                                                  #  MOONFLAG        003             BIT 12 FLAG 0        MOONBIT
000141:                                                                                                  #  MRKIDFLG        060             BIT 15 FLAG 4        MRKIDBIT
000142:                                                                                                  #  MRKNVFLG        066             BIT 9  FLAG 4        MRKNVBIT
000143:                                                                                                  #  MRUPTFLG        070             BIT 5 FLAG 4         MRUPTBIT
000144:                                                                                                  #  MUNFLAG         097             BIT 8 FLAG 6         MUNFLBIT
000145:                                                                                                  #  MWAITFLG        064             BIT 11 FLAG 4        MWAITBIT
000146:                                                                                                  #  NEEDLFLG        011             BIT 4  FLAG 0        NEEDLBIT
000147:                                                                                                  #  NEWIFLG         122             BIT 13  FLAG 8       NEWIBIT
000148:                                                                                                  #  NJETSFLG        015             BIT 15 FLAG          NJETSBIT
000149:                                                                                                  #  NODOFLAG        044             BIT 1  FLAG 2        NODOBIT
000150:                                                                                                  #  NOLRREAD        170             BIT 10 FLAG 11       NOLRRBIT
000151:                                                                                                  #  NORMSW          110             BIT 10 FLAG 7        NORMSBIT
000152:                                                                                                  #  NORRMON         086             BIT 4  FLAG 5        NORRMBIT
000153:                                                                                                  #  NOR29FLG        049             BIT 11 FLAG 3        NR29FBIT
000154:                                                                                                  #  NOTHROTL        078             BIT 12 FLAG 5        NOTHRBIT
000155:                                                                                                  #  NOUPFLAG        024             BIT 6  FLAG 1        NOUPFBIT
000156:                                                                                                  #  NRMNVFLG        067             BIT 8  FLAG 4        NRMNVBIT
000157:                                                                                                  #  NRMIDFLG        062             BIT 13 FLAG 4        NRMIDBIT
000158:                                                                                                  #  NRUPTFLG        071             BIT 4  FLAG 4        NRUPTBIT
000159:                                                                                                  #  NTARGFLG        102             BIT 3  FLAG 6        NTARGBIT
000160:                                                                                                  #  NWAITFLG        065             BIT 10 FLAG 4        NWAITBIT
000161:                                                                                                  #  OLDESFLG        014             BIT 1  FLAG 0        OLDESBIT
000162:                                                                                                  #  OPTNSW          038             BIT 7  FLAG 2        OPTNBIT         EQUIVALENT FLAG NAME:  ETPIFLAG
000163:                                                                                                  #  ORBWFLAG        054             BIT 6  FLAG 3        ORBWFBIT
000164:                                                                                                  #  ORDERSW         129             BIT 6  FLAG 8        ORDERBIT
000165:                                                                                                  #  OURRCFLG        198             BIT 12 FLAG 13       OURRCBIT
000166:                                                                                                  #  PDSPFLAG        063             BIT 12 FLAG 4        PDSPFBIT
000167:                                                                                                  #  PFRATFLG        041             BIT 4  FLAG 2        PFRATBIT
000168:                                                                                                  #  PINBRFLG        069             BIT 6  FLAG 4        PINBRBIT
000169:                                                                                                  #  POUTFLAG        098             BIT 7  FLAG 6        POUTBIT
000170:                                                                                                  #  PRECIFLG        052             BIT 8  FLAG 3        PRECIBIT
000171:                                                                                                  #  PRIODFLG        061             BIT 14 FLAG 1        PRIODBIT
000172:                                                                                                  #  PRONVFLG        068             BIT 7  FLAG 4        PRONVBIT
000173:                                                                                                  #  PSTHIGAT        169             BIT 11 FLAG 11       PSTHIBIT
000174:                                                                                                  #  PULSEFLG        195             BIT 15 FLAG 13       PULSES
000175:                                                                                                  #  P25FLAG         006             BIT 9  FLAG 0        P25FLBIT
000176:                                                                                                  #  P39/79SW        126             BIT 9  FLAG 8        P39SWBIT
000177:                                                                                                  #  QUITFLAG        145             BIT 5  FLAG 9        QUITBIT
000178:                                                                                                  #  RADMODES                        FLGWRD12
000179:


000181:                                                                                                  #  RASFLAG                         FLGWRD10
000182:                                                                                                  #  RCDUFAIL        188             BIT 7  FLAG 12       RCDUFBIT
000183:                                                                                                  #  RCDU0FLG        182             BIT 13 FLAG 12       RCDU0BIT
000184:                                                                                                  #  READLR          174             BIT 6  FLAG 11       READLBIT
000185:                                                                                                  #  READRFLG        051             BIT 9  FLAG 3        READRBIT        EQUIVALENT FLAG NAME:  R04FLAG
000186:                                                                                                  #  READVEL         175             BIT 5  FLAG 11       READVBIT
000187:                                                                                                  #  REDFLAG         099             BIT 6  FLAG 6        REDFLBIT
000188:                                                                                                  #  REFSMFLG        047             BIT 13 FLAG 3        REFSMBIT
000189:                                                                                                  #  REINTFLG        158             BIT 7  FLAG 10       REINTBIT
000190:                                                                                                  #  REMODFLG        181             BIT 14 FLAG 12       REMODBIT
000191:                                                                                                  #  RENDWFLG        089             BIT 1  FLAG 5        RENDWBIT
000192:                                                                                                  #  REPOSMON        184             BIT 11 FLAG 12       REPOSBIT
000193:                                                                                                  #  RHCSCFLG        203             BIT 7  FLAG 13       RHCSCALE
000194:                                                                                                  #  RNDVZFLG        008             BIT 7  FLAG 0        RNDVZBIT
000195:                                                                                                  #  RNGEDATA        176             BIT 4  FLAG 11       RNGEDBIT
000196:                                                                                                  #  RNGSCFLG        080             BIT 10 FLAG 5        RNGSCBIT
000197:                                                                                                  #  RPQFLAG         120             BIT 15 FLAG 8        RPQFLBIT
000198:                                                                                                  #  RRDATAFL        191             BIT 4  FLAG 12       RRDATABT
000199:                                                                                                  #  RRNBSW          009             BIT 6 FLAG 0         RRNBBIT
000200:                                                                                                  #  RRRSFLAG        192             BIT 3  FLAG 12       RRRSBIT
000201:                                                                                                  #  RVSW            111             BIT 9  FLAG 7        RVSWBIT
000202:                                                                                                  #  R04FLAG         051             BIT 9  FLAG 3        R04FLBIT        EQUIVALENT FLAG NAME:  READRFLG
000203:                                                                                                  #  R10FLAG         013             BIT 2  FLAG 0        R10FLBIT
000204:                                                                                                  #  R61FLAG         020             BIT 10 FLAG 1        R61FLBIT
000205:                                                                                                  #  R77FLAG         079             BIT 11 FLAG 5        R77FLBIT
000206:                                                                                                  #  SCALBAD         177             BIT 3  FLAG 11       SCABBIT
000207:                                                                                                  #  SLOPESW         027             BIT 3  FLAG 1        SLOPEBIT
000208:                                                                                                  #  SNUFFER         077             BIT 13 FLAG 5        SNUFFBIT
000209:                                                                                                  #  SOLNSW          087             BIT 3  FLAG 5        SOLNSBIT
000210:                                                                                                  #  SRCHOPTN        031             BIT 14 FLAG 2        SRCHOBIT
000211:                                                                                                  #  STATEFLG        055             BIT 5  FLAG 3        STATEBIT
000212:                                                                                                  #  STEERSW         034             BIT 11 FLAG 2        STEERBIT
000213:                                                                                                  #  SURFFLAG        127             BIT 8  FLAG 8        SURFFBIT
000214:                                                                                                  #  SWANDISP        109             BIT 11 FLAG 7        SWANDBIT
000215:                                                                                                  #  S32.1F1         090             BIT 15 FLAG 6        S32BIT1
000216:                                                                                                  #  S32.1F2         092             BIT 14 FLAG 6        S32BIT2
000217:                                                                                                  #  S32.1F3A        092             BIT 13 FLAG 6        S32BIT3A
000218:                                                                                                  #  S32.1S3B        093             BIT 12 FLAG 6        S32BIT3B
000219:                                                                                                  #  TFFSW           119             BIT 1  FLAG 7        TFFSWBIT
000220:                                                                                                  #  TRACKFLG        025             BIT 5  FLAG 1        TRACKBIT
000221:                                                                                                  #  TURNONFL        194             BIT 1  FLAG 12       TURNONBT
000222:                                                                                                  #  ULLAGFLG        204             BIT 6  FLAG 13       ULLAGER
000223:                                                                                                  #  UPDATFLG        023             BIT 7  FLAG 1        UPDATBIT
000224:                                                                                                  #  UPLOCKFL        116             BIT 4  FLAG 7        UPLOCBIT
000225:                                                                                                  #  USEQRFLG        196             BIT 14 FLAG 13       USEQRJTS
000226:                                                                                                  #  VEHUPFLG        022             BIT 8  FLAG 1        VEHUPBIT
000227:                                                                                                  #  VELDATA         173             BIT 7  FLAG 11       VELDABIT
000228:                                                                                                  #  VERIFLAG        117             BIT 3  FLAG 7        VERIFBIT
000229:                                                                                                  #  VFLAG           050             BIT 10 FLAG 3        VFLAGBIT
000230:                                                                                                  #  VFLSHFLG        178             BIT 2  FLAG 11       VFLSHBIT
000231:


000233:                                                                                                  #  VINTFLAG        057             BIT 3  FLAG 3        VINTFBIT
000234:                                                                                                  #  VXINH           168             BIT 12 FLAG 11       VXINHBIT
000235:                                                                                                  #  V37FLAG         114             BIT 6  FLAG 7        V37FLBIT
000236:                                                                                                  #  V67FLAG         112             BIT 8  FLAG 7        V67FLBIT
000237:                                                                                                  #  V82EMFLG        118             BIT 2  FLAG 7        V82EMBIT
000238:                                                                                                  #  XDELVFLG        037             BIT 8  FLAG 2        XDELVBIT
000239:                                                                                                  #  XDSPFLAG        074             BIT 1  FLAG 4        XDSPBIT
000240:                                                                                                  #  XORFLG          171             BIT 9  FLAG 11       XORFLBIT
000241:                                                                                                  #  XOVINFLG        201             BIT 9  FLAG 13       XOVINHIB
000242:                                                                                                  #  2PHASFLG        096             BIT 9  FLAG 6        2PHASBIT
000243:                                                                                                  #  3AXISFLG        084             BIT 6 FLAG 5         3AXISBIT
000244:                                                                                                  #  360SW           134             BIT 1 FLAG  8        360SWBIT
000245:
000246:
000247:
000248:                                                                                                  #            ASSIGNMENT AND DESCRIPTION OF FLAGWORDS
000249:
000250: 24,2022     0074               FLAGWRD0           =        STATE      +0                         #  (000-014)
000251:
000252:                                                                                                  #  (SET)              (RESET)
000253:
000254:                                                                                                  #  BIT 15 FLAG 0 (S)
000255: 24,2022                        CPHIFLAG           =        000D                                  #  OUTPUT OF CALCGA IS OUTPUT OF CALCGA IS
000256: 24,2022     4735               CPHIBIT            =        BIT15                                 #  CPHIX               THETAD
000257:
000258:
000259:                                                                                                  #  BIT 14 FLAG 0 (S)
000260: 24,2022                        JSWITCH            =        001D                                  #  INTEGRATION OF W    INTEGRATION OF STATE
000261: 24,2022     4736               JSWCHBIT           =        BIT14                                 #  MATRIX              VECTOR
000262:
000263:
000264:                                                                                                  #  BIT 13 FLAG 0 (S)
000265: 24,2022                        MIDFLAG            =        002D                                  #  INTEGRATION WITH    INTEGRATION WITHOUT
000266:                                                                                                  #  SECONDARY BODY AND  SOLAR PERTURBATIONS
000267: 24,2022     4737               MIDFLBIT           =        BIT13                                 #  SOLAR PERTURBATIONS
000268:
000269:                                                                                                  #  BIT 12 FLAG 0 (L)
000270: 24,2022                        MOONFLAG           =        003D                                  #  MOON IS SPHERE OF   EARTH IS SPHERE OF
000271: 24,2022     4740               MOONBIT            =        BIT12                                 #  INFLUENCE           INFLUENCE
000272:
000273:                                                                                                  #  BIT 11 FLAG 0
000274:                                                                                                  #                =               004D
000275:                                                                                                  #                =               BIT11
000276:
000277:
000278:                                                                                                  #  BIT 10 FLAG 0
000279:                                                                                                  #                =               005D
000280:


000282:                                                                                                  #                =               BIT10
000283:
000284:
000285:                                                                                                  #  BIT 9 FLAG 0  (S)
000286: 24,2022                        P25FLAG            =        006D                                  #  P25 OPERATING       P25 NOT OPERATING
000287: 24,2022     4743               P25FLBIT           =        BIT9
000288:
000289:
000290:                                                                                                  #  BIT 8 FLAG 0  (S)
000291: 24,2022                        IMUSE              =        007D                                  #  IMU IN USE          IMU NOT IN USE
000292: 24,2022     4744               IMUSEBIT           =        BIT8
000293:
000294:
000295:                                                                                                  #  BIT 7 FLAG 0  (S)
000296: 24,2022                        RNDVZFLG           =        008D                                  #  P20 RUNNING (RADAR  P20 NOT RUNNING
000297: 24,2022     4745               RNDVZBIT           =        BIT7                                  #  IN USE)
000298:
000299:
000300:                                                                                                  #  BIT 6 FLAG 0  (S)
000301: 24,2022                        RRNBSW             =        009D                                  #  RADAR TARGET IN     RADAR TARGET IN
000302: 24,2022     4746               RRNBBIT            =        BIT6                                  #  NB COORDINATES      SM COORDINATES
000303:
000304:
000305:                                                                                                  #  BIT 5 FLAG 0  (S)
000306: 24,2022                        LOKONSW            =        010D                                  #  RADAR LOCK-ON       RADAR LOCK-ON NOT
000307: 24,2022     4747               LOKONBIT           =        BIT5                                  #  DESIRED             DESIRED
000308:
000309:
000310:                                                                                                  #  BIT 4 FLAG 0  (S)
000311: 24,2022                        NEEDLFLG           =        011D                                  #  TOTAL ATTITUDE      A/P FOLLOWING
000312: 24,2022     4750               NEEDLBIT           =        BIT4                                  #  ERROR DISPLAYED     ERROR DISPLAYED
000313:
000314:
000315:                                                                                                  #  BIT 3 FLAG 0
000316: 24,2022                        FREEFLAG           =        012D                                  #  (USED BY P51-53 TEMP IN MANY DIFFERENT
000317:                                                                                                  #  ROUTINES & BY LUNAR + SOLAR EPHEMERIDES)
000318: 24,2022     4751               FREEFBIT           =        BIT3
000319:
000320:
000321:                                                                                                  #  BIT 2 FLAG 0
000322: 24,2022                        R10FLAG            =        013D                                  #  R10 OUTPUTS DATA TO BESIDES OUTPUT WHEN
000323: 24,2022     4752               R10FLBIT           =        BIT2                                  #  ALTITUDE & ALTITUDE SET, R10 ALSO OUTPUT
000324:                                                                                                  #  RATE METERS ONLY    TO FORWARD & LATERAL
000325:                                                                                                  #                      VELOCITY CROSSPOINTR
000326:
000327:
000328:                                                                                                  #  BIT 1 FLAG 0  (L)
000329: 24,2022                        OLDESFLG           =        014D                                  #  R29 GYRO CMD LOOP   R29 GYRO CMD LOOP
000330: 24,2022     4753               OLDESBIT           =        BIT1                                  #  REQUESTED           NOT REQUESTED
000331:


000333:
000334: 24,2022     0075               FLAGWRD1           =        STATE      +1                         #  (015-029)
000335:
000336:                                                                                                  #   (SET)              (RESET)
000337:
000338:                                                                                                  #  BIT 15 FLAG 1 (S)
000339: 24,2022                        NJETSFLG           =        015D                                  #   TWO JET RCS BURN    FOUR JET RCS BURN
000340: 24,2022     4735               NJETSBIT           =        BIT15
000341:
000342:
000343:                                                                                                  #  BIT 14 FLAG 1 (L)
000344: 24,2022                        DIDFLAG            =        016D                                  #  INERTIAL DATA IS     PERFORM DATA DISPLAY
000345: 24,2022     4736               DIDFLBIT           =        BIT14                                 #  AVAILABLE            INITIALIZATION FUNCS
000346:
000347:
000348:                                                                                                  #  BIT 13 FLAG 1 (S)
000349: 24,2022                        ERADFLAG           =        017D                                  #  COMPUTE REARTH       USE CONSTANT REARTH
000350: 24,2022     4737               ERADFBIT           =        BIT13                                 #  FISCHER ELLIPSOID    PAD RADIUS
000351:
000352:
000353:                                                                                                  #  BIT 12 FLAG 1
000354:                                                                                                  #                =               018D
000355:                                                                                                  #                =               BIT12
000356:
000357:
000358:                                                                                                  #  BIT 11 FLAG 1
000359:                                                                                                  #                =               019D
000360:
000361:                                                                                                  #  BIT 10 FLAG 1 (L)
000362: 24,2022                        R61FLAG            =        020D                                  #  RUN R61 LEM          RUN R65 LEM
000363: 24,2022     4742               R61FLBIT           =        BIT10
000364:
000365:                                                                                                  #  BIT 9 FLAG 1
000366:                                                                                                  #                =               021D
000367:                                                                                                  #                =               BIT9
000368:
000369:                                                                                                  #  BIT 8 FLAG 1  (S)
000370: 24,2022                        VEHUPFLG           =        022D                                  #  CSM STATE VECTOR     LEM STATE VECTOR
000371: 24,2022     4744               VEHUPBIT           =        BIT8                                  #  BEING UPDATED        BEING UPDATED
000372:
000373:
000374:                                                                                                  #  BIT 7 FLAG 1  (S)
000375: 24,2022                        UPDATFLG           =        023D                                  #  UPDATING BY MARKS    UPDATING BY MARKS
000376: 24,2022     4745               UPDATBIT           =        BIT7                                  #  ALLOWED              NOT ALLOWED
000377:
000378:
000379:                                                                                                  #  BIT 6 FLAG 1  (S)
000380:


000382: 24,2022                        NOUPFLAG           =        024D                                  #  NEITHER CSM         EITHER STATE
000383:                                                                                                  #  NOR LM STATE VECTOR VECTOR MAY BE
000384: 24,2022     4746               NOUPFBIT           =        BIT6                                  #  MAY BE UPDATED      UPDATED
000385:
000386:
000387:                                                                                                  #  BIT 5 FLAG 1  (S)
000388: 24,2022                        TRACKFLG           =        025D                                  #  TRACKING ALLOWED    TRACKING NOT ALLOWED
000389: 24,2022     4747               TRACKBIT           =        BIT5
000390:
000391:                                                                                                  #  BIT 4 FLAG 1
000392:                                                                                                  #                =               026D
000393:                                                                                                  #                =               BIT4
000394:
000395:
000396:                                                                                                  #  BIT 3 FLAG 1  (S)
000397: 24,2022                        SLOPESW            =        027D                                  #  ITERATE WITH BIAS   ITERATE WITH REGULAR
000398:                                                                                                  #  METHOD IN ITERATOR  FALSI METHOD IN
000399: 24,2022     4751               SLOPEBIT           =        BIT3                                  #                      ITERATOR
000400:
000401:
000402:                                                                                                  #  BIT 2 FLAG 1  (S)
000403: 24,2022                        GUESSW             =        028D                                  #  NO STARTING VALUE   STARTING VALUE FOR
000404: 24,2022     4752               GUESSBIT           =        BIT2                                  #  FOR ITERATION       ITERATION EXISTS
000405:
000406:
000407:                                                                                                  #  BIT 1 FLAG 1
000408:                                                                                                  #                =               029D
000409:
000410:
000411: 24,2022     0076               FLAGWRD2           =        STATE      +2                         #  (030-044)
000412:
000413:                                                                                                  #  (SET)               (RESET)
000414:
000415:                                                                                                  #  BIT 15 FLAG 2 (S)
000416: 24,2022                        DRIFTFLG           =        030D                                  #  T3RUPT CALLS GYRO   T3RUPT DOES NO GYRO
000417: 24,2022     4735               DRFTBIT            =        BIT15                                 #  COMPENSATION        COMPENSATION
000418:
000419:
000420:                                                                                                  #  BIT 14 FLAG 2 (S)
000421: 24,2022                        SRCHOPTN           =        031D                                  #  RADAR IN AUTOMATIC  RADAR NOT IN AUTO-
000422: 24,2022     4736               SRCHOBIT           =        BIT14                                 #  SEARCH OPTION(R24)  MATIC SEARCH OPTION
000423:
000424:
000425:                                                                                                  #  BIT 13 FLAG 2 (S)
000426: 24,2022                        ACMODFLG           =        032D                                  #  MANUAL ACQUISITION  AUTO ACQUISITION
000427: 24,2022     4737               ACMODBIT           =        BIT13                                 #  BY RENDESVOUS RADAR BY RENDESVOUS RADAR
000428:
000429:
000430:                                                                                                  #  BIT 12 FLAG 2 (S)
000431:


000433: 24,2022                        LOSCMFLG           =        033D                                  #  LINE OF SIGHT BEING LINE OF SIGHT NOT
000434:                                                                                                  #  COMPUTED (R21)      BEING COMPUTED
000435: 24,2022     4740               LOSCMBIT           =        BIT12
000436:                                                                                                  #  IN R29 (L): RR GYRO IN R29 (L): RR GYRO
000437:                                                                                                  #  CMD LOOP RUNNING    CMD LOOP OFF
000438:
000439:                                                                                                  #  BIT 11 FLAG 2 (S)
000440: 24,2022                        STEERSW            =        034D                                  #  SUFFICIENT THRUST   INSUFFICIENT THRUST
000441: 24,2022     4741               STEERBIT           =        BIT11                                 #  IS PRESENT          IS PRESENT
000442:
000443:
000444:                                                                                                  #  BIT 10 FLAG 2 (S)
000445: 24,2022                        CYCLESW            =        035D                                  #  LAMBERT VG CALCU-   LAMBERT CALCULATION
000446: 24,2022     4742               CYCLEBIT           =        BIT10                                 #  LATION TO BE DONE   OMITTED
000447:
000448:
000449:                                                                                                  #  BIT 9 FLAG 2 (S)
000450: 24,2022                        IMPULSW            =        036D                                  #  MINIMUM IMPULSE     STEERING BURN (NO
000451:                                                                                                  #  BURN (CUTOFF TIME   CUTOFF TIME YET
000452: 24,2022     4743               IMPULBIT           =        BIT9                                  #  SPECIFIED)          AVAILABLE)
000453:
000454:
000455:                                                                                                  #  BIT 8 FLAG 2 (S)
000456: 24,2022                        XDELVFLG           =        037D                                  #  EXTERNAL DELTAV VG  LAMBERT (AIMPOINT)
000457: 24,2022     4744               XDELVBIT           =        BIT8                                  #  COMPUTATION         VG COMPUTATION
000458:
000459:
000460:                                                                                                  #  BIT 7 FLAG 2 (S)
000461: 24,2022                        ETPIFLAG           =        038D                                  #  ELEVATION ANGLE     TPI TIME SUPPLIED
000462:                                                                                                  #  SUPPLIED FOR        FOR P34,74 TO COMPUT
000463: 24,2022     4745               ETPIBIT            =        BIT7                                  #  P34,74              ELEVATION
000464:
000465:
000466:                                                                                                  #  BIT 7 FLAG 2 (L)
000467: 24,2022  0000046               OPTNSW             =        ETPIFLAG                              #  SOI PHASE OF P38/78  SOR PHASE OF P38/78
000468: 24,2022     4745               OPTNBIT            =        BIT7
000469:
000470:
000471:                                                                                                  #  BIT 6 FLAG 2 (S)
000472: 24,2022                        FINALFLG           =        039D                                  #  LAST PASS THROUGH   INTERIM PASS THROUGH
000473:                                                                                                  #  RENDEZVOUS PROGRAM  RENDEZVOUS PROGRAM
000474: 24,2022     4746               FINALBIT           =        BIT6                                  #  COMPUTATIONS        COMPUTATIONS
000475:
000476:
000477:                                                                                                  #  BIT 5 FLAG 2 (S)
000478: 24,2022                        AVFLAG             =        040D                                  #  LEM IS ACTIVE       CSM IS ACTIVE
000479: 24,2022     4747               AVFLBIT            =        BIT5                                  #  VEHICLE             VEHICLE
000480:
000481:
000482:                                                                                                  #  BIT 4 FLAG 2 (S)
000483:


000485: 24,2022                        PFRATFLG           =        041D                                  #  PREFERRED ATTITUDE  PREFERRED ATTITUDE
000486: 24,2022     4750               PFRATBIT           =        BIT4                                  #  COMPUTED            NOT COMPUTED
000487:
000488:
000489:                                                                                                  #  BIT 3 FLAG 2 (S)
000490: 24,2022                        CALCMAN3           =        042D                                  #  NO FINAL ROLL       FINAL ROLL IS
000491: 24,2022     4751               CALC3BIT           =        BIT3                                  #                      NECESSARY
000492:
000493:
000494:                                                                                                  #  BIT 2 FLAG 2 (S)
000495: 24,2022                        CALCMAN2           =        043D                                  #  PERFORM MANEUVER    BYPASS STARTING
000496: 24,2022     4752               CALC2BIT           =        BIT2                                  #  STARTING PROCEDURE  PROCEDURE
000497:
000498:
000499:                                                                                                  #  BIT 1 FLAG 2 (S)
000500: 24,2022                        NODOFLAG           =        044D                                  #  V37 NOT PERMITTED   V37 PERMITTED
000501: 24,2022     4753               NODOBIT            =        BIT1
000502:
000503:
000504: 24,2022     0077               FLAGWRD3           =        STATE      +3                         #  (045-059)
000505:
000506:                                                                                                  #  (SET)               (RESET)
000507:
000508:                                                                                                  #  BIT 15 FLAG 3
000509:                                                                                                  #                =               045D
000510:
000511:
000512:                                                                                                  #  BIT 14 FLAG 3 (S)
000513: 24,2022                        GLOKFAIL           =        046D                                  #  GIMBAL LOCK HAS     NOT IN GIMBAL LOCK
000514: 24,2022     4736               GLOKFBIT           =        BIT14                                 #  OCCURRED
000515:
000516:
000517:                                                                                                  #  BIT 13 FLAG 3   *** PROTECTED FROM FRESH START ***
000518: 24,2022                        REFSMFLG           =        047D                                  #  REFSMMAT GOOD       REFSMMAT NO GOOD
000519: 24,2022     4737               REFSMBIT           =        BIT13
000520:
000521:
000522:                                                                                                  #  BIT 12 FLAG 3 (S)
000523: 24,2022                        LUNAFLAG           =        048D                                  #  LUNAR LAT-LONG      EARTH LAT-LONG
000524: 24,2022     4740               LUNABIT            =        BIT12
000525:
000526:
000527:                                                                                                  #  BIT 11 FLAG 3 (L)
000528: 24,2022                        NOR29FLG           =        049D                                  #  R29 NOT ALLOWED     R29 ALOWED (RR DES-
000529: 24,2022     4741               NR29FBIT           =        BIT11                                 #                      IGNATE, POWERED FLT)
000530:
000531:
000532:                                                                                                  #  BIT 10 FLAG 3 (S)
000533: 24,2022                        VFLAG              =        050D                                  #  LESS THAN TWO STARS TWO STARS IN FIELD
000534: 24,2022     4742               VFLAGBIT           =        BIT10                                 #  IN FIELD OF VIEW    OF VIEW
000535:


000537:
000538:
000539:                                                                                                  #  BIT 9 FLAG 3  (S)
000540: 24,2022                        R04FLAG            =        051D                                  #  ALARM 521           ALARM 521 ALLOWED
000541:                                                                                                  #  SUPPRESSED
000542: 24,2022     4743               R04FLBIT           =        BIT9
000543:
000544:
000545:                                                                                                  #  BIT 9 FLAG 3  (L)
000546: 24,2022  0000063               READRFLG           =        R04FLAG                               #  READING RR DATA     NOT READING RR DATA
000547: 24,2022     4743               READRBIT           =        BIT9                                  #  PURSUANT TO R29     PURSUANT TO R29
000548:
000549:
000550:                                                                                                  #  BIT 8 FLAG 3  (S)
000551: 24,2022                        PRECIFLG           =        052D                                  #  NORMAL INTEGRATION  ENGAGES 4-TIME STEP
000552:                                                                                                  #  IN POO              (POO) LOGIC IN INTE-
000553: 24,2022     4744               PRECIBIT           =        BIT8                                  #                      GRATION
000554:
000555:
000556:                                                                                                  #  BIT 7 FLAG 3  (S)
000557: 24,2022                        CULTFLAG           =        053D                                  #  STAR OCCULTED       STAR NOT OCCULTED
000558: 24,2022     4745               CULTBIT            =        BIT7
000559:
000560:
000561:                                                                                                  #  BIT 6 FLAG 3  (S)
000562: 24,2022                        ORBWFLAG           =        054D                                  #  W MATRIX VALID FOR  W MATRIX INVALID FOR
000563: 24,2022     4746               ORBWFBIT           =        BIT6                                  #  ORBITAL NAVIGATION  ORBITAL NAVIGATION
000564:
000565:
000566:                                                                                                  #  BIT 5 FLAG 3  (S)
000567: 24,2022                        STATEFLG           =        055D                                  #  PERMANENT STATE     PERMANENT STATE
000568: 24,2022     4747               STATEBIT           =        BIT5                                  #  VECTOR UPDATED      VECTOR NOT UPDATED
000569:
000570:
000571:                                                                                                  #  BIT 4 FLAG 3  (S)
000572: 24,2022                        INTYPFLG           =        056D                                  #  CONIC INTEGRATION   ENCKE INTEGRATION
000573: 24,2022     4750               INTYPBIT           =        BIT4
000574:
000575:
000576:                                                                                                  #  BIT 3 FLAG 3  (S)
000577: 24,2022                        VINTFLAG           =        057D                                  #  CSM STATE VECTOR    LEM STATE VECTOR
000578: 24,2022     4751               VINTFBIT           =        BIT3                                  #  BEING INTEGRATED    BEING INTEGRATED
000579:
000580:
000581:                                                                                                  #  BIT 2 FLAG 3 (S)
000582: 24,2022                        D6OR9FLG           =        058D                                  #  DIMENSION OF W IS 9 DIMENSION OF W IS 6
000583: 24,2022     4752               D6OR9BIT           =        BIT2                                  #  FOR INTEGRATION     FOR INTEGRATION
000584:
000585:
000586:                                                                                                  #  BIT 1 FLAG 3  (S)
000587:


000589: 24,2022                        DIM0FLAG           =        059D                                  #  W MATRIX IS TO BE   W MATRIX IS NOT TO
000590: 24,2022     4753               DIM0BIT            =        BIT1                                  #  USED                BE USED
000591:
000592:
000593: 24,2022     0100               FLAGWRD4           =        STATE      +4                         #  (060-074)
000594:
000595:                                                                                                  #  (SET)               (RESET)
000596:
000597:                                                                                                  #  BIT 15 FLAG 4 (S)
000598: 24,2022                        MRKIDFLG           =        060D                                  #  MARK DISPLAY IN     NO MARK DISPLAY IN
000599: 24,2022     4735               MRKIDBIT           =        BIT15                                 #  ENDIDLE             ENDIDLE
000600:
000601:
000602:                                                                                                  #  BIT 14 FLAG 4 (S)
000603: 24,2022                        PRIODFLG           =        061D                                  #  PRIORITY DISPLAY IN NO PRIORITY DISPLAY
000604: 24,2022     4736               PRIODBIT           =        BIT14                                 #  ENDIDLE             IN ENDIDLE
000605:
000606:
000607:                                                                                                  #  BIT 13 FLAG 4 (S)
000608: 24,2022                        NRMIDFLG           =        062D                                  #  NORMAL DISPLAY IN   NO NORMAL DISPLAY
000609: 24,2022     4737               NRMIDBIT           =        BIT13                                 #  ENDIDLE             IN ENDIDLE
000610:
000611:
000612:                                                                                                  #  BIT 12 FLAG 4 (S)
000613: 24,2022                        PDSPFLAG           =        063D                                  #  P20 SETS SO AS TO   LEAVE AS NORMAL DISP
000614:                                                                                                  #  TURN A NORMAL DIS-
000615: 24,2022     4740               PDSPFBIT           =        BIT12                                 #  PLAY INTO A PRIORITY
000616:                                                                                                  #  DISPLAY IN R60
000617:
000618:
000619:                                                                                                  #  BIT 11 FLAG 4 (S)
000620: 24,2022                        MWAITFLG           =        064D                                  #  HIGHER PRIORITY      NO HIGHER PRIORITY
000621:                                                                                                  #  DISPLAY OPERATING    DISPLAY OPERATING
000622: 24,2022     4741               MWAITBIT           =        BIT11                                 #  WHEN MARK DISPLAY    WHEN MARK DISPLAY
000623:                                                                                                  #  INITIATED            INITIATED
000624:
000625:                                                                                                  #  BIT 10 FLAG 4 (S)
000626: 24,2022                        NWAITFLG           =        065D                                  #  HIGHER PRIORITY      NO HIGHER PRIORITY
000627:                                                                                                  #  DISPLAY OPERATING    DISPLAY OPERATING
000628: 24,2022     4742               NWAITBIT           =        BIT10                                 #  WHEN NORMAL          WHEN NORMAL DISPLAY
000629:                                                                                                  #  DISPLAY INITIATED    INITIATED
000630:
000631:                                                                                                  #  BIT 9 FLAG 4  (S)
000632: 24,2022                        MRKNVFLG           =        066D                                  #  ASTRONAUT USING      ASTRONAUT NOT USING
000633:                                                                                                  #  KEYBOARD WHEN MARK   KEYBOARD WHEN MARK
000634: 24,2022     4743               MRKNVBIT           =        BIT9                                  #  DISPLAY INITIATED    DISPLAY INITIATED
000635:
000636:
000637:                                                                                                  #  BIT 8 FLAG 4  (S)
000638: 24,2022                        NRMNVFLG           =        067D                                  #  ASTRONAUT USING      ASTRONAUT NOT USING
000639:


000641:                                                                                                  #  KEYBOARD WHEN        KEYBOARD WHEN
000642: 24,2022     4744               NRMNVBIT           =        BIT8                                  #  NORMAL DISPLAY       NORMAL DISPLAY
000643:                                                                                                  #  INITIATED            INITIATED
000644:
000645:                                                                                                  #  BIT 7 FLAG 4  (S)
000646: 24,2022                        PRONVFLG           =        068D                                  #  ASTRONAUT USING      ASTRONAUT NOT USING
000647:                                                                                                  #  KEYBOARD WHEN        KEYBOARD WHEN
000648: 24,2022     4745               PRONVBIT           =        BIT7                                  #  PRIORITY DISPLAY     PRIORITY DISPLAY
000649:                                                                                                  #  INITIATED            INITIATED
000650:
000651:                                                                                                  #  BIT 6 FLAG 4  (S)
000652: 24,2022                        PINBRFLG           =        069D                                  #  ASTRONAUT HAS        ASTRONAUT HAS NOT
000653:                                                                                                  #  INTERFERED WITH      INTERFERED WITH
000654: 24,2022     4746               PINBRBIT           =        BIT6                                  #  EXISTING DISPLAY     EXISTING DISPLAY
000655:
000656:
000657:                                                                                                  #  BIT 5 FLAG 4  (S)
000658: 24,2022                        MRUPTFLG           =        070D                                  #  MARK DISPLAY         MARK DISPLAY NOT
000659:                                                                                                  #  INTERRUPTED BY       INTERRUPTED BY
000660: 24,2022     4747               MRUPTBIT           =        BIT5                                  #  PRIORITY DISPLAY     PRIORITY DISPLAY
000661:
000662:
000663:                                                                                                  #  BIT 4 FLAG 4  (S)
000664: 24,2022                        NRUPTFLG           =        071D                                  #  NORMAL DISPLAY       NORMAL DISPLAY NOT
000665:                                                                                                  #  INTERRUPTED BY       INTERRUPTED BY
000666: 24,2022     4750               NRUPTBIT           =        BIT4                                  #  PRIORITY OR MARK     PRIORITY OR MARK
000667:                                                                                                  #  DISPLAY              DISPLAY
000668:
000669:                                                                                                  #  BIT 3 FLAG 4  (S)
000670: 24,2022                        MKOVFLAG           =        072D                                  #  MARK DISPLAY OVER    NO MARK DISPLAY OVER
000671: 24,2022     4751               MKOVBIT            =        BIT3                                  #  NORMAL               NORMAL
000672:
000673:
000674:                                                                                                  #  BIT 2 FLAG 4
000675:                                                                                                  #                =               073D
000676:
000677:
000678:
000679:                                                                                                  #  BIT 1 FLAG 4  (S)
000680: 24,2022                        XDSPFLAG           =        074D                                  #  MARK DISPLAY NOT     NO SPECIAL MARK
000681: 24,2022     4753               XDSPBIT            =        BIT1                                  #  TO BE INTERRUPTED    INFORMATION
000682:
000683:
000684: 24,2022     0101               FLAGWRD5           =        STATE      +5                         #  (075-089)
000685:                                                                                                  #  (SET)                (RESET)
000686:
000687:                                                                                                  #  BIT 15 FLAG 5 (S)
000688: 24,2022                        DSKYFLAG           =        075D                                  #  DISPLAYS SENT TO     NO DISPLAYS TO DSKY
000689: 24,2022     4735               DSKYFBIT           =        BIT15                                 #  DSKY
000690:
000691:


000693:                                                                                                  #  BIT 14 FLAG 5
000694:                                                                                                  #                =               076D
000695:                                                                                                  #                =               BIT14
000696:
000697:
000698:                                                                                                  #  BIT 13 FLAG 5 (S,L)
000699: 24,2022                        SNUFFER            =        077D                                  #  U,V JETS DISABLED   U,V JETS ENABLED
000700:                                                                                                  #  DURING DPS          DURING DPS
000701: 24,2022     4737               SNUFFBIT           =        BIT13                                 #  BURNS (V65)         BURNS (V75)
000702:
000703:
000704:                                                                                                  #  BIT 12 FLAG 5 (S)
000705: 24,2022                        NOTHROTL           =        078D                                  #  INHIBIT FULL        PERMIT FULL THROTTLE
000706: 24,2022     4740               NOTHRBIT           =        BIT12                                 #  THROTTLE
000707:
000708:
000709:                                                                                                  #  BIT 11 FLAG 5 (S,L)
000710: 24,2022                        R77FLAG            =        079D                                  #  R77 IS ON,         R77 IS NOT ON.
000711:                                                                                                  #  SUPPRESS ALL RADAR
000712:                                                                                                  #  ALARMS AND TRACKER
000713: 24,2022     4741               R77FLBIT           =        BIT11                                 #  FAILS
000714:
000715:
000716:                                                                                                  #  BIT 10 FLAG 5 (S)
000717: 24,2022                        RNGSCFLG           =        080D                                  #  SCALE CHANGE HAS    NO SCALE CHANGE HAS
000718:                                                                                                  #  OCCURRED DURING     OCCURRED DURING
000719: 24,2022     4742               RNGSCBIT           =        BIT10                                 #  RR READING          RR READING
000720:
000721:
000722:                                                                                                  #  BIT 9 FLAG 5  (S)
000723: 24,2022                        DMENFLG            =        081D                                  #  DIMENSION OF W IS 9 DIMENSION OF W IS 6
000724: 24,2022     4743               DMENFBIT           =        BIT9                                  #  FOR INCORPORATION   FOR INCORPORATION
000725:
000726:
000727:                                                                                                  #  BIT 8 FLAG 5  (S)
000728: 24,2022                        COMPUTER           =        082D                                  #  COMPUTER IS CMC     COMPUTER IS LGC
000729: 24,2022     4744               COMPTBIT           =        BIT8
000730:
000731:
000732:                                                                                                  #  BIT 7 FLAG 5  (S)
000733: 24,2022                        ENGONFLG           =        083D                                  #  ENGINE TURNED ON    ENGINE TURNED OFF
000734: 24,2022     4745               ENGONBIT           =        BIT7
000735:
000736:
000737:                                                                                                  #  BIT 6 FLAG 5  (S)
000738: 24,2022                        3AXISFLG           =        084D                                  #  MANEUVER SPECIFIED  MANEUVER SPECIFIED
000739:                                                                                                  #  BY THREE AXES       BY ONE AXIS; R60
000740: 24,2022     4746               3AXISBIT           =        BIT6                                  #                      CALLS VECPOINT.
000741:
000742:


000744:                                                                                                  #  BIT 5 FLAG 5
000745:                                                                                                  #                =               085D
000746:
000747:
000748:                                                                                                  #  BIT 4 FLAG 5  (S)
000749: 24,2022                        NORRMON            =        086D                                  #  BYPASS RR GIMBAL    PERFORM
000750: 24,2022     4750               NORRMBIT           =        BIT4                                  #  MONITOR             RR GIMBAL MONITOR
000751:
000752:
000753:                                                                                                  #  BIT 3 FLAG 5  (S)
000754: 24,2022                        SOLNSW             =        087D                                  #  LAMBERT DOES NOT    LAMBERT CONVERGES OR
000755:                                                                                                  #  CONVERGE,OR TIME-RADTIME-RADIUS NON
000756: 24,2022     4751               SOLNSBIT           =        BIT3                                  #  NEARLY CIRCULAR     CIRCULAR
000757:
000758:
000759:                                                                                                  #  BIT 2 FLAG 5  (S)
000760: 24,2022                        MGLVFLAG           =        088D                                  #  LOCAL VERTICAL      MIDDLE GIMBAL ANGLE
000761:                                                                                                  #  COORDINATES         COMPUTED
000762: 24,2022     4752               MGLVFBIT           =        BIT2                                  #  COMPUTED
000763:
000764:                                                                                                  #  BIT 1 FLAG 5  (S)
000765: 24,2022                        RENDWFLG           =        089D                                  #  W MATRIX VALID      W MATRIX INVALID
000766:                                                                                                  #  FOR RENDEZVOUS      FOR RENDEZVOUS
000767: 24,2022     4753               RENDWBIT           =        BIT1                                  #  NAVIGATION          NAVIGATION
000768:
000769:
000770: 24,2022     0102               FLAGWRD6           =        STATE      +6                         #  (090-104)
000771:
000772:                                                                                                  #  (SET)               (RESET)
000773:
000774:                                                                                                  #  BIT 15 FLAG 6 (S)
000775: 24,2022                        S32.1F1            =        090D                                  #  DELTA V AT CSI TIME  DVT1 LESS THEN MAX
000776: 24,2022     4735               S32BIT1            =        BIT15                                 #  ONE EXCEEDS MAX
000777:
000778:
000779:                                                                                                  #  BIT 14 FLAG 6 (S)
000780: 24,2022                        S32.1F2            =        091D                                  #  FIRST PASS OF       REITERATION OF
000781: 24,2022     4736               S32BIT2            =        BIT14                                 #  NEWTON ITERATION    NEWTON
000782:
000783:
000784:                                                                                                  #  BIT 13 FLAG 6 (S)
000785: 24,2022                        S32.1F3A           =        092D                                  #  BIT 13 AND BIT 12 FUNCTION AS AN ORDERED
000786: 24,2022     4737               S32BIT3A           =        BIT13                                 #  PAIR (13,12) INDICATING THE POSSIBLE OC-
000787:                                                                                                  #  CURRANCE OF 2NEWTON ITERATIONS FOR S32.1
000788:                                                                                                  #  IN THE PROGRAM IN THE FOLLOWING ORDER:
000789:                                                                                                  #  BIT 12 FLAG 6                                           (0,1) (I.E.BIT 13 RESET,BIT 12 SET)
000790: 24,2022                        S32.1F3B           =        093D                                  #       = FIRST NEWTON ITERATION BEING DONE
000791: 24,2022     4740               S32BIT3B           =        BIT12                                 #  (0,0)= FIRST PASS OF SECOND NEWT.ITERAT.
000792:                                                                                                  #  (1,1)= 50 FT/SEC STAGE OF SEC. NEWT.ITER
000793:


000795:                                                                                                  #  (1,0)= REMAINDER OF SECOND NEWTON ITERA.
000796:
000797:
000798:                                                                                                  #  BIT 11 FLAG 6 (S)
000799: 24,2022                        FIRSTFLG           =        094D                                  #  SUCCEEDING PASS     FIRST PASS THRU
000800: 24,2022     4741               FIRSTBIT           =        BIT11                                 #  THRU S40.9          S40.9
000801:
000802:
000803:                                                                                                  #  BIT 10 FLAG 6 (S)
000804: 24,2022                        GMBDRVSW           =        095D                                  #  TRIMGIMB OVER       TRIMGIMB NOT OVER
000805: 24,2022     4742               GMBDRBIT           =        BIT10
000806:
000807:
000808:                                                                                                  #  BIT 9 FLAG 6
000809: 24,2022                        2PHASFLG           =        096D                                  #  2-PHASE GUIDANCE IE  ONE-PHASE GUIDANCE
000810: 24,2022     4743               2PHASBIT           =        BIT9                                  #  TTF GOES TO ZERO    I.E. SWITCH OUT OF
000811:                                                                                                  #  BEFORE YOU ENTER    BRAKING PHASE BEFORE
000812:                                                                                                  #  APPROACH PHASE      TTF GETS SMALL
000813:
000814:
000815:                                                                                                  #  BIT 8 FLAG 6  (S)
000816: 24,2022                        MUNFLAG            =        097D                                  #  SERVICER CALLS      SERVICER CALLS
000817: 24,2022     4744               MUNFLBIT           =        BIT8                                  #  MUNRVG              CALCRVG
000818:
000819:
000820:                                                                                                  #  BIT 7 FLAG 6  (L)
000821: 24,2022                        POUTFLAG           =        098D                                  #  PROHIBIT THROTTLE   PERMIT THROTTLE
000822: 24,2022     4745               POUTBIT            =        BIT7                                  #  PULSE-OUT  (P60'S)  PULSE-OUT
000823:
000824:
000825:                                                                                                  #  BIT 6 FLAG 6  (L)
000826: 24,2022                        REDFLAG            =        099D                                  #  LANDING SITE        LANDING SITE
000827:                                                                                                  #  REDESIGNATION       REDESIGNATION NOT
000828: 24,2022     4746               REDFLBIT           =        BIT6                                  #  PERMITTED           PERMITTED
000829:
000830:
000831:                                                                                                  #  BIT 5 FLAG 6
000832:                                                                                                  #                =               100D
000833:
000834:                                                                                                  #  BIT 4 FLAG 6
000835:                                                                                                  #                =               101D
000836:
000837:                                                                                                  #  BIT 3 FLAG 6  (S)
000838: 24,2022                        NTARGFLG           =        102D                                  #  ASTRONAUT DID       ASTRONAUT DID NOT
000839:                                                                                                  #  OVERWRITE DELTA     OVERWRITE DELTA
000840: 24,2022     4751               NTARGBIT           =        BIT3                                  #  VELOCITY AT TPI     VELOCITY
000841:                                                                                                  #  OR TPM (P34,35)
000842:
000843:                                                                                                  #  BIT 2 FLAG 6
000844:


000846: 24,2022                        AUXFLAG            =        103D                                  #  PROVIDING IDLEFLAG  SERVICER WILL SKIP
000847: 24,2022     4752               AUXFLBIT           =        BIT2                                  #  IS NOT SET, SERV-   DVMON ON ITS NEXT
000848:                                                                                                  #  ICER WILL EXERCISE  PASS EVEN IF THE
000849:                                                                                                  #  DVMON ON ITS NEXT   IDLEFLAG IS NOT SET.
000850:                                                                                                  #  PASS.               IT WILL THEN SET
000851:                                                                                                  #  AUXFLAG.
000852:
000853:                                                                                                  #  BIT 1 FLAG 6  (L)
000854: 24,2022                        ATTFLAG            =        104D                                  #  LEM ATTITUDE EXISTS NO LEM ATTITUDE
000855:                                                                                                  #  IN MOON-FIXED       AVAILABLE IN MOON-
000856: 24,2022     4753               ATTFLBIT           =        BIT1                                  #  COORDINATES         FIXED COORDINATES
000857:
000858:
000859: 24,2022     0103               FLAGWRD7           =        STATE      +7                         #  (105-119)
000860:
000861:                                                                                                  #  (SET)               (RESET)
000862:
000863:                                                                                                  #  BIT 15 FLAG 7 (S)
000864: 24,2022                        ITSWICH            =        105D                                  #  P34;TPI TIME TO BE  TPI HAS BEEN
000865: 24,2022     4735               ITSWBIT            =        BIT15                                 #  COMPUTED            COMPUTED
000866:
000867:
000868:                                                                                                  #  BIT 14 FLAG 7 (S)
000869: 24,2022                        MANUFLAG           =        106D                                  #  ATTITUDE MANEUVER   NO ATTITUDE MANEUVER
000870:                                                                                                  #  GOING DURING RR     DURING RR SEARCH
000871: 24,2022     4736               MANUFBIT           =        BIT14                                 #  SEARCH
000872:
000873:
000874:                                                                                                  #  BIT 13 FLAG 7 (S)
000875: 24,2022                        IGNFLAG            =        107D                                  #  TIG HAS ARRIVED     TIG HAS NOT ARRIVED
000876: 24,2022     4737               IGNFLBIT           =        BIT13
000877:
000878:
000879:                                                                                                  #  BIT 12 FLAG 7 (S)
000880: 24,2022                        ASTNFLAG           =        108D                                  #  ASTRONAUT HAS       ASTRONAUT HAS NOT
000881: 24,2022     4740               ASTNBIT            =        BIT12                                 #  OKAYED IGNITION     OKAYED IGNITION
000882:
000883:
000884:                                                                                                  #  BIT 11 FLAG 7 (L)
000885: 24,2022                        SWANDISP           =        109D                                  #  LANDING ANALOG      LANDING ANALOG
000886: 24,2022     4741               SWANDBIT           =        BIT11                                 #  DISPLAYS ENABLED    DISPLAYS SUPPRESSED
000887:
000888:
000889:                                                                                                  #  BIT 10 FLAG 7 (S)
000890: 24,2022                        NORMSW             =        110D                                  #  UNIT NORMAL INPUT   LAMBERT COMPUTES ITS
000891: 24,2022     4742               NORMSBIT           =        BIT10                                 #  TO LAMBERT          OWN UNIT NORMAL
000892:
000893:
000894:                                                                                                  #  BIT 9 FLAG 7  (S)
000895: 24,2022                        RVSW               =        111D                                  #  DO NOT COMPUTE      COMPUTE FINAL STATE
000896:


000898:                                                                                                  #  FINAL STATE VECTOR  VECTOR IN TIME-THETA
000899: 24,2022     4743               RVSWBIT            =        BIT9                                  #  IN TIME-THETA
000900:
000901:
000902:                                                                                                  #  BIT 8 FLAG 7  (S)
000903: 24,2022                        V67FLAG            =        112D                                  #  ASTRONAUT OVERWRITE  ASTRONAUT DOES NOT
000904:                                                                                                  #  W-MATRIX INITIAL    OVERWRITE W-MATRIX
000905: 24,2022     4744               V67FLBIT           =        BIT8                                  #  VALUES              INITIAL VALUES
000906:
000907:
000908:                                                                                                  #  BIT 7 FLAG 7  (S)
000909: 24,2022                        IDLEFLAG           =        113D                                  #  NO DV MONITOR       CONNECT DV MONITOR
000910: 24,2022     4745               IDLEFBIT           =        BIT7
000911:
000912:
000913:                                                                                                  #  BIT 6 FLAG 7  (S)
000914: 24,2022                        V37FLAG            =        114D                                  #  AVERAGEG (SERVICER) AVERAGEG (SERVICER)
000915: 24,2022     4746               V37FLBIT           =        BIT6                                  #  RUNNING             OFF
000916:
000917:
000918:                                                                                                  #  BIT 5 FLAG 7  (S)
000919: 24,2022                        AVEGFLAG           =        115D                                  #  AVERAGEG (SERVICER) AVERAGEG (SERVICER)
000920: 24,2022     4747               AVEGFBIT           =        BIT5                                  #  DESIRED             NOT DESIRED
000921:
000922:
000923:                                                                                                  #  BIT 4 FLAG 7  (S)
000924: 24,2022                        UPLOCKFL           =        116D                                  #  K-KBAR-K FAIL       NO K-KBAR-K FAIL
000925: 24,2022     4750               UPLOCBIT           =        BIT4
000926:
000927:
000928:                                                                                                  #  BIT 3 FLAG 7  (S)
000929: 24,2022                        VERIFLAG           =        117D                                  #  CHANGED WHEN V33E OCCURS AT END OF P27
000930: 24,2022     4751               VERIFBIT           =        BIT3
000931:
000932:
000933:                                                                                                  #  BIT 2 FLAG 7  (L,C)
000934: 24,2022                        V82EMFLG           =        118D                                  #  MOON VICINITY       EARTH VICINITY
000935: 24,2022     4752               V82EMBIT           =        BIT2
000936:
000937:
000938:                                                                                                  #  BIT 1 FLAG 7  (S)
000939: 24,2022                        TFFSW              =        119D                                  #  CALCULATE TPERIGEE  CALCULATE TFF
000940: 24,2022     4753               TFFSWBIT           =        BIT1
000941:
000942:
000943: 24,2022     0104               FLAGWRD8           =        STATE      +8D                        #  (120-134)
000944:
000945:                                                                                                  #  (SET)               (RESET)
000946:
000947:                                                                                                  #  BIT 15 FLAG 8 (S)
000948:


000950: 24,2022                        RPQFLAG            =        120D                                  #  RPQ NOT COMPUTED    RPQ COMPUTED
000951:                                                                                                  #  (RPQ = VECTOR BE-
000952: 24,2022     4735               RPQFLBIT           =        BIT15                                 #  TWEEN SECONDARY BODY
000953:                                                                                                  #  AND PRIMARY BODY
000954:
000955:
000956:                                                                                                  #  BIT 14 FLAG 8
000957:                                                                                                  #                =               121D
000958:                                                                                                  #                =               BIT14
000959:
000960:
000961:                                                                                                  #  BIT 13 FLAG 8 (S)
000962: 24,2022                        NEWIFLG            =        122D                                  #  FIRST PASS THROUGH  SUCCEEDING ITERATION
000963: 24,2022     4737               NEWIBIT            =        BIT13                                 #  INTEGRATION         OF INTEGRATION
000964:
000965:
000966:                                                                                                  #  BIT 12 FLAG 8 *** PROTECTED FROM FRESH START ***
000967: 24,2022                        CMOONFLG           =        123D                                  #  PERMANENT CSM STATE PERMANENT CSM STATE
000968: 24,2022     4740               CMOONBIT           =        BIT12                                 #  IN LUNAR SPHERE     IN EARTH SPHERE
000969:
000970:
000971:                                                                                                  #  BIT 11 FLAG 8 *** PROTECTED FROM FRESH START ***
000972: 24,2022                        LMOONFLG           =        124D                                  #  PERMANENT LM STATE  PERMANENT LM STATE
000973: 24,2022     4741               LMOONBIT           =        BIT11                                 #  IN LUNAR SPHERE     IN EARTH SPHERE
000974:
000975:
000976:                                                                                                  #  BIT 10 FLAG 8 (L)
000977: 24,2022                        FLUNDISP           =        125D                                  #  CURRENT GUIDANCE    CURRENT GUIDANCE
000978: 24,2022     4742               FLUNDBIT           =        BIT10                                 #  DISPLAYS INHIBITED  DISPLAYS PERMITTED
000979:
000980:
000981:                                                                                                  #  BIT 9 FLAG 8  (L)
000982: 24,2022                        P39/79SW           =        126D                                  #  P39/79 OPERATING    P38/P78 OPERATING
000983: 24,2022     4743               P39SWBIT           =        BIT9
000984:
000985:
000986:                                                                                                  #  BIT 8 FLAG 8  *** PROTECTED FROM FRESH START ***
000987: 24,2022                        SURFFLAG           =        127D                                  #  LM ON LUNAR SURFACE LM NOT ON LUNAR
000988: 24,2022     4744               SURFFBIT           =        BIT8                                  #                      SURFACE
000989:
000990:
000991:                                                                                                  #  BIT 7 FLAG 8  (S)
000992: 24,2022                        INFINFLG           =        128D                                  #  NO CONIC SOLUTION   CONIC SOLUTION
000993:                                                                                                  #  (CLOSURE THROUGH    EXISTS
000994: 24,2022     4745               INFINBIT           =        BIT7                                  #  INFINITY REQUIRED)
000995:
000996:
000997:                                                                                                  #  BIT 6 FLAG 8  (S)
000998: 24,2022                        ORDERSW            =        129D                                  #  ITERATOR USES 2ND   ITERATOR USES 1ST
000999: 24,2022     4746               ORDERBIT           =        BIT6                                  #  ORDER MINIMUM MODE  ORDER STANDARD MODE
001000:


001002:
001003:
001004:                                                                                                  #  BIT 5 FLAG 8  (S)
001005: 24,2022                        APSESW             =        130D                                  #  RDESIRED OUTSIDE    RDESIRED INSIDE
001006:                                                                                                  #  PERICENTER-APOCENTERPERICENTER-APOCENTER
001007: 24,2022     4747               APSESBIT           =        BIT5                                  #  RANGE IN TIME-RADI  RANGE IN TIME-RADIUS
001008:
001009:
001010:                                                                                                  #  BIT 4 FLAG 8  (S)
001011: 24,2022                        COGAFLAG           =        131D                                  #  NO CONIC SOLUTION - CONIC SOLUTION
001012:                                                                                                  #  TOO CLOSE TO RECTI- EXISTS(COGA DOES NOT
001013: 24,2022     4750               COGAFBIT           =        BIT4                                  #  LINEAR(COGA OVRFLWS) OVERFLOW)
001014:
001015:
001016:                                                                                                  #  BIT 3 FLAG 8
001017:                                                                                                  #                =               132D
001018:
001019:                                                                                                  #  BIT 2 FLAG 8  (L)
001020: 24,2022                        INITALGN           =        133D                                  #  INITIAL PASS THRU   SECOND PASS THRU P57
001021: 24,2022     4752               INITABIT           =        BIT2                                  #  P57                (CHECK RESET-MILLARD)
001022:
001023:
001024:                                                                                                  #  BIT 1 FLAG 8  (S)
001025: 24,2022                        360SW              =        134D                                  #  TRANSFER ANGLE NEAR TRANSFER ANGLE NOT
001026: 24,2022     4753               360SWBIT           =        BIT1                                  #  360 DEGREES         NEAR 360 DEGREES
001027:
001028:
001029: 24,2022     0105               FLAGWRD9           =        STATE      +9D                        #  (135-149)
001030:
001031:                                                                                                  #  (SET)               (RESET)
001032:
001033:
001034:                                                                                                  #  BIT 15 FLAG 9
001035:                                                                                                  #                =               135D
001036:                                                                                                  #                =               BIT15
001037:
001038:                                                                                                  #  BIT 14 FLAG 9 (L)
001039: 24,2022                        FLVR               =        136D                                  #  VERTICAL RISE       NON-VERTICAL RISE
001040: 24,2022     4736               FLVRBIT            =        BIT14                                 #  (ASCENT GUIDANCE)
001041:
001042:
001043:                                                                                                  #  BIT 13 FLAG 9
001044:                                                                                                  #                =               137D
001045:
001046:
001047:                                                                                                  #  BIT 12 FLAG 9 (L)
001048: 24,2022                        FLPC               =        138D                                  #  NO POSITION CONTROL  POSITION CONTROL
001049: 24,2022     4740               FLPCBIT            =        BIT12                                 #  (ASCENT GUIDANCE)
001050:
001051:


001053:
001054:                                                                                                  #  BIT 11 FLAG 9 (L)
001055: 24,2022                        FLPI               =        139D                                  #  PRE-IGNITION PHASE   REGULAR GUIDANCE
001056: 24,2022     4741               FLPIBIT            =        BIT11                                 #  (ASCENT GUIDANCE)
001057:
001058:
001059:                                                                                                  #  BIT 10 FLAG 9 (L)
001060: 24,2022                        FLRCS              =        140D                                  #  RCS INJECTION MODE   MAIN ENGINE MODE
001061: 24,2022     4742               FLRCSBIT           =        BIT10                                 #  (ASCENT GUIDANCE)
001062:
001063:
001064:                                                                                                  #  BIT 9 FLAG 9  (L)
001065: 24,2022                        LETABORT           =        141D                                  #  ABORT PROGRAMS       ABORT PROGRAMS
001066: 24,2022     4743               LETABBIT           =        BIT9                                  #  ARE ENABLED          ARE NOT ENABLED
001067:
001068:
001069:                                                                                                  #  BIT 8 FLAG 9  (L)
001070: 24,2022                        FLAP               =        142D                                  #  APS CONTINUED ABORT   APS ABORT IS NOT A
001071:                                                                                                  #  AFTER DPS STAGING    CONTINUATION
001072: 24,2022     4744               FLAPBIT            =        BIT8                                  #  (ASCENT GUIDANCE)
001073:
001074:
001075:                                                                                                  #  BIT 7 FLAG 9  (L)
001076:                                                                                                  #                =               143D
001077:
001078:                                                                                                  #  BIT 6 FLAG 9  (L)
001079: 24,2022                        FLZONE0            =        144D                                  #  EARLY ABORT          LATE ABORT
001080: 24,2022     4746               FLZONBIT           =        BIT6                                  #  TFI . 50 SECS.       TFI > 50 SECS.
001081:                                                                                                  #  P70 --> P40
001082:                                                                                                  #  P71 --> P42
001083:
001084:                                                                                                  #  BIT 5 FLAG 9  (S)
001085: 24,2022                        QUITFLAG           =        145D                                  #  DISCONTINUE INTEGR.  CONTINUE INTEGRATION
001086: 24,2022     4747               QUITBIT            =        BIT5
001087:
001088:
001089:                                                                                                  #  BIT 4 FLAG 9
001090:                                                                                                  #                =               146D
001091:                                                                                                  #                =               BIT4
001092:
001093:
001094:                                                                                                  #  BIT 3 FLAG 9  (L)
001095: 24,2022                        MID1FLAG           =        147D                                  #  INTEGRATE TO TDEC    INTEGRATE TO THE
001096: 24,2022     4751               MID1FBIT           =        BIT3                                  #                       THEN-PRESENT TIME
001097:
001098:
001099:                                                                                                  #  BIT 2 FLAG 9  (L)
001100: 24,2022                        MIDAVFLG           =        148D                                  #  INTEGRATION ENTERED  INTEGRATION WAS
001101:                                                                                                  #  FROM ONE OF MIDTOAV  NOT ENTERED VIA
001102: 24,2022     4752               MIDAVBIT           =        BIT2                                  #  PORTALS              MIDTOAV
001103:
001104:


001106:                                                                                                  #  BIT 1 FLAG 9  (S)
001107: 24,2022                        AVEMIDSW           =        149D                                  #  AVETOMID CALLING    NO AVETOMID W INTEGR
001108:                                                                                                  #  FOR W.MATRIX INTEGR ALLOW SET UP RM,VN.
001109: 24,2022     4753               AVEMDBIT           =        BIT1                                  #  DONT WRITE OVER RN, PIPTIME
001110:                                                                                                  #  VN,PIPTIME
001111:
001112:
001113:
001114: 24,2022     0106               RASFLAG            EQUALS   FLGWRD10                              #  WAS ONLY AN INSTALL- ERASTALL FLAG
001115:
001116: 24,2022     0106               FLGWRD10           =        STATE      +10D                       #  (150-164)
001117:
001118:                                                                                                  #  (SET)               (RESET)
001119:
001120:                                                                                                  #  BIT 15 FLAG 10
001121:                                                                                                  #                =               150D
001122:
001123:
001124:                                                                                                  #  BIT 14 FLAG 10 (L,C)
001125: 24,2022                        INTFLAG            =        151D                                  #  INTEGRATION IN       INTEGRATION NOT IN
001126: 24,2022     4736               INTFLBIT           =        BIT14                                 #  PROGRESS             PROGRESS
001127:
001128:
001129:                                                                                                  #  BIT 13 FLAG 10 (S,L)
001130: 24,2022                        APSFLAG            =        152D                                  #  ASCENT STAGE         DESCENT STAGE
001131: 24,2022     4737               APSFLBIT           =        BIT13                                 #  *** PROTECTED FROM FRESH START ***
001132:
001133:
001134:                                                                                                  #  BIT 12 FLAG 10
001135:                                                                                                  #                =               153D
001136:
001137:
001138:                                                                                                  #  BIT 11 FLAG 10
001139:                                                                                                  #                =               154D
001140:
001141:
001142:                                                                                                  #  BIT 10 FLAG 10
001143:                                                                                                  #                =               155D
001144:
001145:
001146:                                                                                                  #  BIT 9 FLAG 10
001147:                                                                                                  #                =               156D
001148:
001149:
001150:                                                                                                  #  BIT 8 FLAG 10
001151:                                                                                                  #                =               157D
001152:
001153:
001154:                                                                                                  #  BIT 7 FLAG 10 (L,C)
001155:


001157: 24,2022                        REINTFLG           =        158D                                  #  INTEGRATION ROUTINE INTEGRATION ROUTINE
001158: 24,2022     4745               REINTBIT           =        BIT7                                  #  TO BE RESTARTED     NOT TO BE RESTARTED
001159:
001160:
001161:                                                                                                  #  BIT 6 FLAG 10
001162:                                                                                                  #                =               159D
001163:
001164:
001165:                                                                                                  #  BIT 5 FLAG 10
001166:                                                                                                  #                =               160D
001167:
001168:
001169:                                                                                                  #  BIT 4 FLAG 10
001170:                                                                                                  #                =               161D
001171:
001172:
001173:                                                                                                  #  BIT 3 FLAG 10
001174:                                                                                                  #                =               162D
001175:
001176:
001177:                                                                                                  #  BIT 2 FLAG 10
001178:                                                                                                  #                =               163D
001179:
001180:
001181:                                                                                                  #  BIT 1 FLAG 10
001182:                                                                                                  #                =               164D
001183:
001184:
001185:
001186:
001187: 24,2022     0107               FLGWRD11           =        STATE      +11D                       #  (165-179)
001188:
001189:                                                                                                  #  (SET)               (RESET)
001190:
001191:                                                                                                  #  BIT 15 FLAG 11 (L)(R12)
001192: 24,2022                        LRBYPASS           =        165D                                  #  BYPASS ALL LANDING  DO NOT BYPASS LR
001193: 24,2022     4735               LRBYBIT            =        BIT15                                 #  RADAR UPDATES       UPDATES
001194:
001195:
001196:                                                                                                  #  BIT 14 FLAG 11
001197:                                                                                                  #                =               166D
001198:                                                                                                  #                =               BIT14
001199:
001200:
001201:                                                                                                  #                =               BIT 13 FLAG 11
001202:                                                                                                  #                =               167D
001203:                                                                                                  #                =               BIT13
001204:
001205:


001207:                                                                                                  #  BIT 12 FLAG 11 (L)(R12)
001208: 24,2022                        VXINH              =        168D                                  #  IF Z VELOCITY DATA  UPDATE X AXIS
001209:                                                                                                  #  UNREASONABLE,       VELOCITY
001210: 24,2022     4740               VXINHBIT           =        BIT12                                 #  BYPASS X VELOCITY
001211:                                                                                                  #  UPDATE ON NEXT PASS
001212:
001213:                                                                                                  #  BIT 11 FLAG 11 (L)(R12)
001214: 24,2022                        PSTHIGAT           =        169D                                  #  PAST HIGATE         PREHIGATE
001215: 24,2022     4741               PSTHIBIT           =        BIT11
001216:
001217:
001218:                                                                                                  #  BIT 10 FLAG 11 (L)(R12)
001219: 24,2022                        NOLRREAD           =        170D                                  #  LANDING RADAR       LR NOT REPOSITIONING
001220:                                                                                                  #  REPOSITIONING;
001221: 24,2022     4742               NOLRRBIT           =        BIT10                                 #  BYPASS UPDATE
001222:
001223:
001224:                                                                                                  #  BIT 9 FLAG 11 (L)(R12)
001225: 24,2022                        XORFLG             =        171D                                  #  BELOW LIMIT         ABOVE LIMIT DO
001226:                                                                                                  #  INHIBIT X AXIS      NOT INHIBIT
001227: 24,2022     4743               XORFLBIT           =        BIT9                                  #  OVERRIDE
001228:
001229:
001230:                                                                                                  #  BIT 8 FLAG 11
001231: 24,2022                        LRINH              =        172D                                  #  LANDING RADAR UP-   LR UPDATES INHIBITED
001232: 24,2022     4744               LRINHBIT           =        BIT8                                  #  DATES PERMITTED     BY ASTRONAUT
001233:                                                                                                  #  BY ASTRONAUT
001234:
001235:
001236:                                                                                                  #  BIT 7 FLAG 11 (L)(R12)
001237: 24,2022                        VELDATA            =        173D                                  #  LR VELOCITY         LR VELOCITY MEASURE
001238: 24,2022     4745               VELDABIT           =        BIT7                                  #  MEASUREMENT MADE    NOT MADE
001239:
001240:
001241:                                                                                                  #  BIT 6 FLAG 11 (L)(R12)
001242: 24,2022                        READLR             =        174D                                  #  OK TO READ LR       DO NOT READ LR RANGE
001243: 24,2022     4746               READLBIT           =        BIT6                                  #  RANGE DATA          DATA
001244:
001245:
001246:                                                                                                  #  BIT 5 FLAG 11 (L)(R12)
001247: 24,2022                        READVEL            =        175D                                  #  OK TO READ LR       DO NOT READ LR
001248: 24,2022     4747               READVBIT           =        BIT5                                  #  VELOCITY DATA       VELOCITY DATA
001249:
001250:
001251:                                                                                                  #  BIT 4 FLAG 11 (L)(R12)
001252: 24,2022                        RNGEDATA           =        176D                                  #  LR ALTITUDE         LR ALTITUDE MEASURE
001253: 24,2022     4750               RNGEDBIT           =        BIT4                                  #  MEASUREMENT MADE    NOT MADE
001254:
001255:
001256:                                                                                                  #  BIT 3 FLAG 11
001257:


001259: 24,2022                        SCALBAD            =        177D                                  #  LR LOW SCALE DIS-   LR SCALE DISCRETE
001260: 24,2022     4751               SCABBIT            =        BIT3                                  #  CRETE NOT PRESENT   APPEARS OK
001261:                                                                                                  #  WHEN IT SHOULD BE
001262:
001263:                                                                                                  #  BIT 2 FLAG 11 (L)(R12)
001264: 24,2022                        VFLSHFLG           =        178D                                  #  LR VELOCITY FAIL    LR VEL FAIL LAMP
001265:                                                                                                  #  LAMP SHOULD BE      SHOULDN'T FLASH
001266: 24,2022     4752               VFLSHBIT           =        BIT2                                  #  FLASHING
001267:
001268:
001269:                                                                                                  #  BIT 1 FLAG 11 (L)(R12)
001270: 24,2022                        HFLSHFLG           =        179D                                  #  LR ALTITUDE FAIL    LR ALTITUDE FAIL
001271: 24,2022     4753               HFLSHBIT           =        BIT1                                  #  LAMP SHOULD BE      LAMP SHOULD NOT BE
001272:                                                                                                  #  FLASHING            FLASHING
001273:
001274:
001275: 24,2022     0110               RADMODES           EQUALS   FLGWRD12                              #  RADAR FLAG WORD
001276:
001277:
001278: 24,2022     0110               FLGWRD12           =        STATE      +12D                       #  (180-194)       WAS RADMODES
001279:
001280:                                                                                                  #  (SET)               (RESET)
001281:
001282:                                                                                                  #  BIT 15 FLAG 12
001283: 24,2022                        CDESFLAG           =        180D                                  #  CONTINUOUS DESIG-   LGC CHECKS FOR LOCK-
001284: 24,2022     4735               CDESBIT            =        BIT15                                 #  NATE. LGC COMMANDS  ON WHEN ANTENNA
001285:                                                                                                  #  RR REGARDLESS OF    BEING DESIGNATED
001286:                                                                                                  #  LOCK-ON
001287:
001288:                                                                                                  #  BIT 14 FLAG 12
001289: 24,2022                        REMODFLG           =        181D                                  #  CHANGE IN ANTENNA   NO REMODE REQUESTED
001290: 24,2022     4736               REMODBIT           =        BIT14                                 #  MODE BEEN REQUESTED OR OCCURRING
001291:                                                                                                  #  I.E., REMODE
001292:
001293:
001294:                                                                                                  #  BIT 13 FLAG 12
001295: 24,2022                        RCDU0FLG           =        182D                                  #  RR CDU'S BEING      RR CDU'S NOT BEING
001296: 24,2022     4737               RCDU0BIT           =        BIT13                                 #  ZEROED              ZEROED
001297:
001298:
001299:                                                                                                  #  BIT 12 FLAG 12
001300: 24,2022                        ANTENFLG           =        183D                                  #  RR ANTENNA MODE IS  RR ANTENNA IN MODE 1
001301: 24,2022     4740               ANTENBIT           =        BIT12                                 #  MODE 2
001302:
001303:
001304:                                                                                                  #  BIT 11 FLAG 12
001305: 24,2022                        REPOSMON           =        184D                                  #  REPOSITION MONITOR. NO REPOSITION TAKING
001306: 24,2022     4741               REPOSBIT           =        BIT11                                 #  RR REPOSITION IS    PLACE
001307:


001309:                                                                                                  #  TAKING PLACE
001310:
001311:
001312:                                                                                                  #  BIT 10 FLAG 12
001313: 24,2022                        DESIGFLG           =        185D                                  #  RR DESIGNATE        RR DESIGNATE NOT
001314: 24,2022     4742               DESIGBIT           =        BIT10                                 #  REQUESTED OR IN     REQUESTED OR IN
001315:                                                                                                  #  PROGRESS            PROGRESS
001316:
001317:
001318:                                                                                                  #  BIT 9 FLAG 12
001319: 24,2022                        ALTSCALE           =        186D                                  #  LR ALTITUDE READING LR ALTITUDE READING
001320: 24,2022     4743               ALTSCBIT           =        BIT9                                  #  IS ON HIGH SCALE    IS ON LOW SCALE
001321:
001322:
001323:                                                                                                  #  BIT 8 FLAG 12
001324: 24,2022                        LRVELFLG           =        187D                                  #  LR VELOCITY DATA    NO LR VELOCITY DATA
001325: 24,2022     4744               LRVELBIT           =        BIT8                                  #  FAIL                FAIL
001326:
001327:
001328:                                                                                                  #  BIT 7 FLAG 12
001329: 24,2022                        RCDUFAIL           =        188D                                  #  RR CDU FAIL HAS     RR CDU FAIL OCCURRED
001330: 24,2022     4745               RCDUFBIT           =        BIT7                                  #  NOT OCCURRED
001331:
001332:
001333:                                                                                                  #  BIT 6 FLAG 12
001334: 24,2022                        LRPOSFLG           =        189D                                  #  LANDING RADAR       LR POSITION 1
001335: 24,2022     4746               LRPOSBIT           =        BIT6                                  #  POSITION 2
001336:
001337:
001338:                                                                                                  #  BIT 5 FLAG 12
001339: 24,2022                        LRALTFLG           =        190D                                  #  LR ALTITUDE DATA    NO LR ALTITUDE DATA
001340: 24,2022     4747               LRALTBIT           =        BIT5                                  #  FAIL. COULD NOT BE  FAIL
001341:                                                                                                  #  READ SUCCESSFULLY.
001342:
001343:
001344:                                                                                                  #  BIT 4 FLAG 12
001345: 24,2022                        RRDATAFL           =        191D                                  #  RR DATA FAIL.       NO RR DATA FAIL.
001346: 24,2022     4750               RRDATABT           =        BIT4                                  #  DATA COULD NOT BE
001347:                                                                                                  #  READ SUCCESSFULLY
001348:
001349:
001350:                                                                                                  #  BIT 3 FLAG 12
001351: 24,2022                        RRRSFLAG           =        192D                                  #  RR RANGE READING    RR RANGE READING ON
001352: 24,2022     4751               RRRSBIT            =        BIT3                                  #  ON THE HIGH SCALE   THE LOW SCALE
001353:
001354:
001355:                                                                                                  #  BIT 2 FLAG 12
001356: 24,2022                        AUTOMODE           =        193D                                  #  RR NOT IN AUTO MODE.RR IN AUTO MODE
001357: 24,2022     4752               AUTOMBIT           =        BIT2                                  #  AUTO MODE DISCRETE
001358:                                                                                                  #  IS NOT PRESENT
001359:


001361:
001362:                                                                                                  #  BIT 1 FLAG 12
001363: 24,2022                        TURNONFL           =        194D                                  #  RR TURN-ON SEQUENCE NO RR TURN-ON
001364: 24,2022     4753               TURNONBT           =        BIT1                                  #  IN PROGRESS. (ZERO  SEQUENCE IN PROGRESS
001365:                                                                                                  #  CDU'S, FIX ANTENNA
001366:                                                                                                  #  MODE)
001367:
001368:
001369: 24,2022     0111               DAPBOOLS           EQUALS   FLGWRD13                              #  DIGITAL AUTOPILOT FLAGWORD
001370:
001371:
001372: 24,2022     0111               FLGWRD13           =        STATE      +13D                       #  (195-209)       WAS DAPBOOLS
001373:
001374:                                                                                                  #  (SET)               (RESET)
001375:
001376:                                                                                                  #  BIT 15 FLAG 13
001377: 24,2022                        PULSEFLG           =        195D                                  #  MINIMUM IMPULSE     NOT IN MINIMUM
001378: 24,2022     4735               PULSES             =        BIT15                                 #  COMMAND MODE IN     IMPULSE COMMAND MODE
001379:                                                                                                  #  "ATT HOLD" (V76)    (V77)
001380:
001381:
001382:                                                                                                  #  BIT 14 FLAG 13
001383: 24,2022                        USEQRFLG           =        196D                                  #  GIMBAL UNUSABLE.    TRIM GIMBAL MAY BE
001384: 24,2022     4736               USEQRJTS           =        BIT14                                 #  USE JETS ONLY.      USED.
001385:
001386:
001387:                                                                                                  #  BIT 13 FLAG 13
001388: 24,2022                        CSMDKFLG           =        197D                                  #  CSM DOCKED.  USE    CSM NOT DOCKED TO LM
001389: 24,2022     4737               CSMDOCKD           =        BIT13                                 #  BACKUP DAP
001390:
001391:
001392:                                                                                                  #  BIT 12 FLAG 13
001393: 24,2022                        OURRCFLG           =        198D                                  #  CURRENT DAP PASS    CURRENT DAP PASS IS
001394: 24,2022     4740               OURRCBIT           =        BIT12                                 #  IS RATE COMMAND     NOT RATE COMMAND
001395:
001396:
001397:                                                                                                  #  BIT 11 FLAG 13
001398: 24,2022                        ACC4-2FL           =        199D                                  #  4 JET X-AXIS TRANS- 2 JET X-AXIS TRANS-
001399: 24,2022     4741               ACC4OR2X           =        BIT11                                 #  LATION REQUESTED    LATION REQUESTED
001400:
001401:
001402:                                                                                                  #  BIT 10 FLAG 13
001403: 24,2022                        AORBTFLG           =        200D                                  #  B SYSTEM FOR X-     A SYSTEM FOR X-
001404: 24,2022     4742               AORBTRAN           =        BIT10                                 #  TRANSLATION         TRANSLATION PREFER'D
001405:
001406:
001407:                                                                                                  #  BIT 9 FLAG 13
001408: 24,2022                        XOVINFLG           =        201D                                  #  X-AXIS OVERRIDE     X-AXIS OVERRIDE OKAY
001409: 24,2022     4743               XOVINHIB           =        BIT9                                  #  LOCKED OUT
001410:
001411:


001413:
001414:
001415:                                                                                                  #  BIT 8 FLAG 13
001416: 24,2022                        DRIFTDFL           =        202D                                  #  ASSUME 0 OFFSET     USE OFFSET ACCELERA-
001417: 24,2022     4744               DRIFTBIT           =        BIT8                                  #  DRIFTING FLIGHT.    TION ESTIMATE
001418:
001419:
001420:                                                                                                  #  BIT 7 FLAG 13
001421: 24,2022                        RHCSCFLG           =        203D                                  #  NORMAL RHC SCALING  FINE RHC SCALING
001422: 24,2022     4745               RHCSCALE           =        BIT7                                  #  REQUESTED           REQUESTED
001423:
001424:
001425:                                                                                                  #  BIT 6 FLAG 13
001426: 24,2022                        ULLAGFLG           =        204D                                  #  ULLAGE REQUEST BY   NO INTERNAL ULLAGE
001427: 24,2022     4746               ULLAGER            =        BIT6                                  #  MISSION PROGRAM     REQUEST
001428:
001429:
001430:                                                                                                  #  BIT 5 FLAG 13
001431: 24,2022                        AORBSFLG           =        205D                                  #  P-AXIS COUPLES 7.15 P-AXIS COUPLES 4.12
001432: 24,2022     4747               AORBSYST           =        BIT5                                  #  AND 8,16 PREFERRED  AND 3,11 PREFERRED
001433:
001434:
001435:                                                                                                  #  BIT 4 FLAG 13
001436: 24,2022                        DBSELFLG           =        206D                                  #  MAX DB SELECTED     MIN DB SELECTED BY
001437: 24,2022     4750               DBSELECT           =        BIT4                                  #  BY CREW (5 DEG)     CREW (0.3 DEG)
001438:
001439:
001440:                                                                                                  #  BIT 3 FLAG 13
001441: 24,2022                        ACCOKFLG           =        207D                                  #  CONTROL AUTHORITY   RESTART OR FRESH ST.
001442: 24,2022     4751               ACCSOKAY           =        BIT3                                  #  VALUES FROM 1/ACCS  SINCE LAST 1/ACCS;
001443:                                                                                                  #  USABLE              OUTPUTS SUSPECT.
001444:
001445:
001446:                                                                                                  #  BIT 2 FLAG 13
001447: 24,2022                        AUTR2FLG           =        208D                                  #  THESE FLAGS ARE USED TOGETHER TO INDICAT
001448: 24,2022     4752               AUTRATE2           =        BIT2                                  #  ASTRONAUT-CHOSEN KALCMANU MANEUVER RATES
001449:                                                                                                  #  (0,0)=(BIT2,BIT1)= 0.2 DEG/SEC
001450:                                                                                                  #  (0,1)=  0.5 DEG/SEC
001451:                                                                                                  #  BIT 1 FLAG 13
001452: 24,2022                        AUTR1FLG           =        209D                                  #  (1,0)=  2.0 DEG/SEC
001453: 24,2022     4753               AUTRATE1           =        BIT1                                  #  (1,1)= 10.0 DEG/SEC
001454:
001455:

End of include-file FLAGWORD_ASSIGNMENTS.agc.  Parent file is MAIN.agc


