
Source Code


000002:                                                                                                  ## Copyright:   Public domain.
000003:                                                                                                  ## Filename:    FRESH_START_AND_RESTART.agc
000004:                                                                                                  ## Purpose:     The main source file for Luminary revision 069.
000005:                                                                                                  ##              It is part of the source code for the original release
000006:                                                                                                  ##              of the flight software for the Lunar Module's (LM) Apollo
000007:                                                                                                  ##              Guidance Computer (AGC) for Apollo 10. The actual flown
000008:                                                                                                  ##              version was Luminary 69 revision 2, which included a
000009:                                                                                                  ##              newer lunar gravity model and only affected module 2.
000010:                                                                                                  ##              This file is intended to be a faithful transcription, except
000011:                                                                                                  ##              that the code format has been changed to conform to the
000012:                                                                                                  ##              requirements of the yaYUL assembler rather than the
000013:                                                                                                  ##              original YUL assembler.
000014:                                                                                                  ## Reference:   pp. 226-252
000015:                                                                                                  ## Assembler:   yaYUL
000016:                                                                                                  ## Contact:     Ron Burkey <info@sandroid.org>.
000017:                                                                                                  ## Website:     www.ibiblio.org/apollo/index.html
000018:                                                                                                  ## Mod history: 2016-12-13 MAS  Created from Luminary 99.
000019:                                                                                                  ##              2017-01-09 HG   Transcribed
000020:                                                                                                  ##              2017-01-25 RSB  Proofed comment text using octopus/prooferComments
000021:                                                                                                  ##                              and fixed errors found.
000022:


000024: 10,2000                                           BANK     10
000025: 05,2000                                           SETLOC   FRANDRES
000026: 05,2000                                           BANK
000027:
000028: 05,2447  E3,1400                                  EBANK=   LST1
000029:
000030: 05,2447                                           COUNT*   $$/START                              #  FRESH AND RESTART
000031: 05,2447           00004        SLAP1              INHINT                                         #  FRESH START. COMES HERE FROM PINBALL.
000032: 05,2450           03100                           TC       STARTSUB                              #  SUBROUTINE DOES MOST OF THE WORK.
000033:
000034: 05,2451           12456        STARTSW            TCF      SKIPSIM                               #  PATCH....TCF STARTSIM...FOR SIMULATION
000035: 05,2452           34736        STARTSIM           CAF      BIT14
000036: 05,2453           05105                           TC       FINDVAC
000037: 05,2454           77777        SIM2CADR           OCT      77777                                 #  PATCH 2CADR (AND EBANK DESIGNATION) OF
000038: 05,2455           77777                           OCT      77777                                 #  SIMULATION START ADDRESS.
000039:
000040: 05,2456           31036        SKIPSIM            CA       DSPTAB     +11D                       #  TURN OFF ALL DSPTAB +11D LAMPS
000041: 05,2457           74771                           MASK     BITS4&6                               #  EXCEPT THE GIMBAL LOCK & NO ATT ONLY ON
000042: 05,2460           64735                           AD       BIT15                                 #  REQUESTED FRESH START.
000043: 05,2461           55036                           TS       DSPTAB     +11D
000044:
000045: 05,2462           34740                           CA       BIT12                                 #  INITIALIZE DOWNLINK ERASABLE MEMORY
000046: 05,2463           54333                           TS       DUMPCNT                               #  DUMP FOR ONE PASS.
000047:
000048: 05,2464           34755                           CA       ZERO
000049: 05,2465           55365                           TS       ERCOUNT
000050: 05,2466           54375                           TS       FAILREG
000051: 05,2467           54376                           TS       FAILREG    +1
000052: 05,2470           54377                           TS       FAILREG    +2
000053: 05,2471           54320                           TS       REDOCTR
000054:
000055: 05,2472           44644                           CS       PRIO12
000056: 05,2473           55313                           TS       DSRUPTSW
000057:
000058: 05,2474           34736        DOFSTART           CAF      BIT14                                 #  INSURE ENGINE IS OFF.
000059: 05,2475           00006                           EXTEND
000060: 05,2476           01011                           WRITE    DSALMOUT
000061: 05,2477           44755                           CS       ZERO
000062: 05,2500           54055                           TS       THRUST
000063:
000064: 05,2501           34751        DOFSTRT1           CAF      FOUR
000065: 05,2502           55273                           TS       RCSFLAGS                              #  INITIALIZE ATTITUDE ERROR DISPLAYS.
000066: 05,2503           34355                           CA       PRIO30
000067: 05,2504           54366                           TS       RESTREG                               #  SUPER BANK PRIORITY FOR DISPLAYS.
000068:
000069: 05,2505           34755                           CA       ZERO
000070: 05,2506           55246                           TS       ABDELV                                #  DAP INITIALIZATION
000071: 05,2507           54371                           TS       NVSAVE
000072: 05,2510           55072                           TS       EBANKTEM
000073:


000075: 05,2511           55262                           TS       CH5MASK
000076: 05,2512           55263                           TS       CH6MASK
000077: 05,2513           55276                           TS       PVALVEST                              #  FOR RCS FAILURE MONITOR
000078: 05,2514           55360                           TS       ERESTORE                              #  ***** MUST NOT BE REMOVED FROM DOFSTART
000079: 05,2515           55362                           TS       SMODE                                 #  ***** MUST NOT BE REMOVED FROM DOFSTART
000080: 05,2516           54332                           TS       DNLSTCOD                              #  SELECT POO DOWNLIST
000081: 05,2517           55324                           TS       AGSWORD                               #  ALLOW AGS INITIALIZATION
000082: 05,2520           55501                           TS       UPSVFLAG                              #  ZERO UPDATE STATE VECTOR REQUEST FLAGWRD
000083: 05,2521           00006                           EXTEND
000084: 05,2522           01005                           WRITE    CHAN5                                 #  TURN OFF RCS JETS.
000085: 05,2523           00006                           EXTEND
000086: 05,2524           01006                           WRITE    CHAN6                                 #  TURN OFF RCS JETS.
000087: 05,2525           00006                           EXTEND
000088: 05,2526           01012                           WRITE    CHAN12
000089: 05,2527           00006                           EXTEND
000090: 05,2530           01013                           WRITE    CHAN13
000091: 05,2531           00006                           EXTEND
000092: 05,2532           01014                           WRITE    CHAN14
000093: 05,2533           41036                           CS       DSPTAB     +11D
000094: 05,2534           74771                           MASK     BITS4&6
000095: 05,2535           10000                           CCS      A
000096: 05,2536           02542                           TC       +4
000097: 05,2537           34771                           CA       BITS4&6
000098: 05,2540           00006                           EXTEND                                         #  THE IMU WAS IN COARSE ALIGN IN GIMBAL
000099: 05,2541           05012                           WOR      CHAN12                                #  LOCK, SO PUT IT BACK INTO COARSE ALIGN.
000100: 05,2542           02643                 +4        TC       MR.KLEAN
000101:
000102: 05,2543           44755                           CS       ZERO
000103: 05,2544           55011                           TS       MODREG
000104:
000105: 05,2545           33350                           CAF      IM30INIF                              #  FRESH START IMU INITIALIZATION.
000106: 05,2546           55302                           TS       IMODES30
000107:
000108: 05,2547           33062                           CAF      MAXDB
000109: 05,2550           55346                           TS       DB
000110: 05,2551           34751                           CAF      FOUR
000111: 05,2552           55325                           TS       RATEINDX                              #  INITIALIZE KALCMANU RATE
000112: 05,2553           33056                           CA       BOOLSTRT
000113: 05,2554           54111                           TS       DAPBOOLS
000114: 05,2555           35015                           CAF      EBANK6
000115: 05,2556           54003                           TS       EBANK
000116: 05,2557  E6,1400                                  EBANK=   HIASCENT
000117:
000118: 05,2557           33053                           CA       STIKSTRT
000119: 05,2560           55442                           TS       STIKSENS
000120: 05,2561           33054                           CA       RATESTRT
000121: 05,2562           55474                           TS       -RATEDB
000122: 05,2563           32000                           CAF      FULLAPS                               #  INITIALIZE MAXIMUM ASCENT MASS FOR USE
000123: 05,2564           55400                           TS       HIASCENT                              #    BY 1/ACCS UNTIL THE PAD LOAD IS DONE.
000124: 05,2565           33057                           CA       77001OCT                              #      LOAD DAP FILTER GAINS PAD LOAD
000125:


000127: 05,2566           55403                           TS       DKTRAP                                #     TO BEST PRESENT ESTIMATE OF GOODIES
000128: 05,2567           55406                           TS       LMTRAP                                #  .14 DEG
000129: 05,2570           33060                           CA       60DEC
000130: 05,2571           55405                           TS       DKKAOSN
000131: 05,2572           55410                           TS       LMKAOSN                               #  6 SEC GAIN FOR ALPHA
000132: 05,2573           34755                           CA       ZERO
000133: 05,2574           55407                           TS       LMOMEGAN                              #  UNITY GAIN
000134: 05,2575           34363                           CA       TEN
000135: 05,2576           55404                           TS       DKOMEGAN                              #  1 SEC GAIN FOR OMEGA
000136: 05,2577           34744                           CAF      BIT8                                  #  SET DOCKED DB TO 1.4 DEG.  MAY OVERWRITE
000137: 05,2600           55411                           TS       DKDB                                  #    WITH PAD LOAD.
000138: 05,2601           35026                           CAF      IM33INIT
000139: 05,2602           64746                           AD       BIT6                                  #  KEEP BOTH DAP AND ERROR-NEEDLES DISPLAY
000140: 05,2603           55303                           TS       IMODES33                              #    OFF UNTIL ICDU ZERO IS FINISHED.
000141:
000142: 05,2604           00006                           EXTEND                                         #  INITIALIZE SWITCHES ONLY ON FRESH START.
000143: 05,2605           33355                           DCA      SWINIT
000144: 05,2606           52075                           DXCH     STATE
000145: 05,2607           33356                           CA       SWINIT     +2
000146: 05,2610           54076                           TS       STATE      +2
000147: 05,2611           34737                           CA       REFSMBIT                              #  DO NOT ALTER REFSMFLG ON FRESH START.
000148: 05,2612           70077                           MASK     STATE      +3
000149: 05,2613           63357                           AD       SWINIT     +3
000150: 05,2614           54077                           TS       STATE      +3
000151: 05,2615           00006                           EXTEND
000152: 05,2616           33361                           DCA      SWINIT     +4
000153: 05,2617           52101                           DXCH     STATE      +4
000154: 05,2620           00006                           EXTEND
000155: 05,2621           33363                           DCA      SWINIT     +6
000156: 05,2622           52103                           DXCH     STATE      +6
000157: 05,2623           34744                           CA       SURFFBIT                              #  DO NOT ALTER  SURFFLAG ON FRESH START.
000158: 05,2624           64740                           AD       CMOONBIT                              #                CMOONFLG
000159: 05,2625           64741                           AD       LMOONBIT                              #                LMOONFLG
000160: 05,2626           70104                           MASK     STATE      +8D
000161: 05,2627           63364                           AD       SWINIT     +8D
000162: 05,2630           54104                           TS       STATE      +8D
000163: 05,2631           33365                           CA       SWINIT     +9D
000164: 05,2632           54105                           TS       STATE      +9D
000165: 05,2633           34737                           CA       APSFLBIT                              #  DO NOT ALTER APSFLAG ON FRESH START.
000166: 05,2634           70106                           MASK     STATE      +10D
000167: 05,2635           63366                           AD       SWINIT     +10D
000168: 05,2636           54106                           TS       STATE      +10D
000169: 05,2637           33367                           CAF      SWINIT     +11D
000170: 05,2640           54107                           TS       STATE      +11D
000171:
000172: 05,2641           04635        ENDRSTRT           TC       POSTJUMP                              #  NOW IN ANOTHER BANK.
000173: 05,2642           03205                           CADR     DUMMYJOB   +2                         #  PICKS UP AT RELINT.   (DONT ZERO NEWJOB)
000174:
000175: 05,2643           00004        MR.KLEAN           INHINT
000176:


000178: 05,2644           00006                           EXTEND
000179: 05,2645           34755                           DCA      NEG0
000180: 05,2646           52755                           DXCH     -PHASE2
000181: 05,2647           00006        POOKLEAN           EXTEND
000182: 05,2650           34755                           DCA      NEG0
000183: 05,2651           52761                           DXCH     -PHASE4
000184: 05,2652           00006        V37KLEAN           EXTEND
000185: 05,2653           34755                           DCA      NEG0
000186: 05,2654           52753                           DXCH     -PHASE1
000187: 05,2655           00006                           EXTEND
000188: 05,2656           34755                           DCA      NEG0
000189: 05,2657           52757                           DXCH     -PHASE3
000190: 05,2660           00006                           EXTEND
000191: 05,2661           34755                           DCA      NEG0
000192: 05,2662           52763                           DXCH     -PHASE5
000193: 05,2663           00006                           EXTEND
000194: 05,2664           34755                           DCA      NEG0
000195: 05,2665           52765                           DXCH     -PHASE6
000196: 05,2666           00002                           TC       Q
000197:


000199:                                                                                                  #           COMES HERE FROM LOCATION 4000, GOJAM. RESTART ANY PROGRAMS WHIC
000200:
000201: 05,2667  E3,1400                                  EBANK=   LST1                                  #  H MAY HAVE BEEN RUNNING AT THE TIME.
000202: 05,2667           24320        GOPROG             INCR     REDOCTR                               #  ADVANCE RESTART COUNTER.
000203:
000204: 05,2670           22002                           LXCH     Q
000205: 05,2671           00006                           EXTEND
000206: 05,2672           04007                           ROR      SUPERBNK
000207: 05,2673           53433                           DXCH     RSBBQ
000208: 05,2674           31036                           CA       DSPTAB     +11D
000209: 05,2675           74750                           MASK     BIT4
000210: 05,2676           00006                           EXTEND
000211: 05,2677           12703                           BZF      +4
000212: 05,2700           64746                           AD       BIT6                                  #  SET ERROR COUNTER ENABLE
000213: 05,2701           00006                           EXTEND
000214: 05,2702           05012                           WOR      CHAN12                                #  ISS WAS IN COARS ALIGN SO GO BACK TO
000215: 05,2703           03100                           TC       STARTSUB
000216:
000217:                                                                                                  #                                             ERASCHK TEMPORARILY STORES THE CONTENTS OF TWO ERASABLE LOCATIONS, X
000218:                                                                                                  #                                             AND X+1 INTO SKEEP5 AND SKEEP6. IT ALSO STORES X INTO SKEEP7 AND
000219:                                                                                                  #                                             ERESTORE. IF ERASCHK IS INTERRUPTED BY A RESTART, C(ERESTORE) SHOULD
000220:                                                                                                  #                                             EQUAL C(SKEEP7),AND BE A + NUMBER LESS THAN 2000 OCT. OTHERWISE
000221:                                                                                                  #                                             C(ERESTORE) SHOULD EQUAL +0.
000222:
000223: 05,2704           34350                           CAF      HI5
000224: 05,2705           71360                           MASK     ERESTORE
000225: 05,2706           00006                           EXTEND
000226: 05,2707           12711                           BZF      +2                                    #  IF ERESTORE NOT = +0 OR +N LESS THAN 2K,
000227: 05,2710           12501                           TCF      DOFSTRT1                              #  DO FRESH START - E MEMORY MIGHT BE BAD.
000228: 05,2711           41360                           CS       ERESTORE
000229: 05,2712           00006                           EXTEND
000230: 05,2713           12730                           BZF      DORSTART                              #  = +0 CONTINUE WITH RESTART.
000231: 05,2714           61377                           AD       SKEEP7
000232: 05,2715           00006                           EXTEND
000233: 05,2716           12720                           BZF      +2                                    #  = SKEEP7, RESTORE E MEMORY.
000234: 05,2717           12501                           TCF      DOFSTRT1                              #  DO FRESH START - E MEMORY MIGHT BE BAD.
000235: 05,2720           31374                           CA       SKEEP4
000236: 05,2721           54003                           TS       EBANK                                 #  EBANK OF E MEMORY THAT WAS UNDER TEST.
000237: 05,2722           00006                           EXTEND                                         #  (NOT DXCH SINCE THIS MIGHT HAPPEN AGAIN)
000238: 05,2723           31376                           DCA      SKEEP5
000239: 05,2724           51377                           INDEX    SKEEP7
000240: 05,2725           52001                           DXCH     0000                                  #  E MEMORY RESTORED.
000241: 05,2726           34755                           CA       ZERO
000242: 05,2727           55360                           TS       ERESTORE
000243: 05,2730           12731        DORSTART           NOOP                                           #  REMOVE OSC FAIL AND LGC WARNING LOGIC
000244:                                                                                                  #  SINCE SOFTWARE PROBLEMS NO LONGER
000245:                                                                                                  #  CAUSE HARDWARE RESTARTS (EXCEPT PARITY).
000246: 05,2731           03063        BUTTONS            TC       LIGHTSET                              #  EXIT TO DOFSTART IF ERROR RESET AND
000247:                                                                                                  #  MARK REJECT DEPRESSED SIMULTANEOUSLY
000248:


000250: 05,2732           44736        SETINFL            CS       INTFLBIT
000251: 05,2733           70106                           MASK     FLGWRD10
000252: 05,2734           54106                           TS       FLGWRD10
000253:
000254: 05,2735           33352                           CA       9,6,4                                 #  LEAVE PROG ALARM, GIMBAL LOCK, NO ATT
000255: 05,2736           71036                           MASK     DSPTAB     +11D                       #  LAMPS INTACT ON HARDWARE RESTART
000256: 05,2737           64735                           AD       BIT15
000257: 05,2740           57036                           XCH      DSPTAB     +11D
000258: 05,2741           33336                           CAF      IFAILINH                              #  LEAVE IMU FAILURE INHIBITS INTACT ON
000259: 05,2742           71302                           MASK     IMODES30                              #  HARDWARE RESTART. RESET ALL FAILURE
000260: 05,2743           63351                           AD       IM30INIR                              #  CODES.
000261: 05,2744           55302                           TS       IMODES30
000262:
000263: 05,2745           31324                           CA       AGSWORD                               #  BE SURE OF CORRECT DOWNLIST
000264: 05,2746           54332                           TS       DNLSTCOD
000265:
000266: 05,2747           34750                           CA       BIT4                                  #  TURN ON THROTTLE COUNTER
000267: 05,2750           00006                           EXTEND
000268: 05,2751           05014                           WOR      CHAN14                                #  TURN ON THRUST DRIVE
000269: 05,2752           40101                           CS       FLAGWRD5
000270: 05,2753           74745                           MASK     ENGONBIT
000271: 05,2754           10000                           CCS      A
000272: 05,2755           12762                           TCF      +5
000273: 05,2756           34737                           CAF      BIT13
000274: 05,2757           00006                           EXTEND
000275: 05,2760           05011                           WOR      DSALMOUT                              #  TURN ENGINE ON
000276: 05,2761           12776                           TCF      GOPROG3
000277: 05,2762           34736                 +5        CAF      BIT14
000278: 05,2763           00006                           EXTEND
000279: 05,2764           05011                           WOR      DSALMOUT                              #  TURN ENGINE OFF.
000280: 05,2765           12776                           TCF      GOPROG3
000281:
000282: 05,2766           00004        ENEMA              INHINT
000283: 05,2767           03115                           TC       STARTSB1
000284: 05,2770           12772                           TCF      GOPROG2A
000285: 05,2771           03137        GOPROG2            TC       STARTSB2
000286: 05,2772           03063        GOPROG2A           TC       LIGHTSET
000287: 05,2773           43061                           CS       RSFLGBTS                              #  CLEAR BITS 7 AND 14.
000288: 05,2774           70106                           MASK     FLGWRD10
000289: 05,2775           54106                           TS       FLGWRD10
000290:
000291: 05,2776           34756        GOPROG3            CAF      NUMGRPS                               #  VERIFY PHASE TABLE AGREEMENTS
000292: 05,2777           54161        PCLOOP             TS       MPAC       +5
000293: 05,3000           60000                           DOUBLE
000294: 05,3001           00006                           EXTEND
000295: 05,3002           50000                           INDEX    A
000296: 05,3003           30753                           DCA      -PHASE1                               #  COMPLEMENT INTO A, DIRECT INTO L.
000297: 05,3004           00006                           EXTEND
000298: 05,3005           06001                           RXOR     LCHAN                                 #  RESULT MUST BE -0 FOR AGREEMENT.
000299: 05,3006           10000                           CCS      A
000300:


000302: 05,3007           13047                           TCF      PTBAD                                 #  RESTART FAILURE.
000303: 05,3010           13047                           TCF      PTBAD
000304: 05,3011           13047                           TCF      PTBAD
000305:
000306: 05,3012           10161                           CCS      MPAC       +5                         #  PROCESS ALL RESTART GROUPS.
000307: 05,3013           12777                           TCF      PCLOOP
000308:
000309: 05,3014           54162                           TS       MPAC       +6                         #  SET TO +0.
000310: 05,3015           05315                           TC       MMDSPLAY                              #  DISPLAY MAJOR MODE
000311:
000312: 05,3016           00004                           INHINT                                         #  RELINT DONE IN MMDSPLAY
000313:
000314: 05,3017           44736                           CS       DIDFLBIT                              #  CLEAR DIDFLAG IN ORDER TO FORCE R10 TO
000315: 05,3020           70075                           MASK     FLAGWRD1                              #  RE-INITIALIZE ITSELF IF IT HAD BEEN
000316: 05,3021           54075                           TS       FLAGWRD1                              #  OPERATING AT THE TIME OF THE RESTART.
000317:
000318: 05,3022           34756                           CAF      NUMGRPS                               #  SEE IF ANY GROUPS RUNNING.
000319: 05,3023           54161        NXTRST             TS       MPAC       +5
000320: 05,3024           60000                           DOUBLE
000321: 05,3025           50000                           INDEX    A
000322: 05,3026           10753                           CCS      PHASE1
000323: 05,3027           13031                           TCF      PACTIVE                               #  PNZ - GROUP ACTIVE.
000324: 05,3030           13036                           TCF      PINACT                                #  +0 - GROUP NOT RUNNING.
000325:
000326: 05,3031           54154        PACTIVE            TS       MPAC
000327: 05,3032           24154                           INCR     MPAC                                  #  ABS OF PHASE.
000328: 05,3033           24162                           INCR     MPAC       +6                         #  INDICATE GROUP DEMANDS PRESENT.
000329: 05,3034           33055                           CA       RACTCADR
000330: 05,3035           04622                           TC       SWCALL                                #  MUST RETURN TO SWRETURN.
000331:
000332: 05,3036           10161        PINACT             CCS      MPAC       +5                         #  PROCESS ALL RESTART GROUPS.
000333: 05,3037           13023                           TCF      NXTRST
000334:
000335: 05,3040           10162                           CCS      MPAC       +6                         #  NO, CHECK PHASE ACTIVITY FLAG
000336: 05,3041           12641                           TCF      ENDRSTRT                              #  PHASE ACTIVE
000337: 05,3042           34735                           CAF      BIT15                                 #  IS MODE -0
000338: 05,3043           71011                           MASK     MODREG
000339: 05,3044           00006                           EXTEND
000340: 05,3045           16001                           BZF      GOTOPOOH                              #  NO
000341: 05,3046           12641                           TCF      ENDRSTRT                              #  YES
000342: 05,3047           05567        PTBAD              TC       ALARM                                 #  SET ALARM TO SHOW PHASE TABLE FAILURE.
000343: 05,3050           01107                           OCT      1107
000344:
000345: 05,3051           12501                           TCF      DOFSTRT1
000346:                                                                                                  #  ******** ****** ******
000347:
000348:                                                                                                  #  DO NOT USE GOPROG2 OR ENEMA WITHOUT CONSULTING POOH PEOPLE
000349:
000350: 05,3052     4737               OCT10000           =        BIT13
000351:


000353: 05,3052     4355               OCT30000           =        PRIO30
000354: 05,3052           07777        OCT7777            OCT      7777
000355: 05,3053           32321        STIKSTRT           DEC      0.825268                              #  20 D/S MAXIMUM COMPANDED RATE
000356: 05,3054           77445        RATESTRT           DEC      -218       B-14
000357: 05,3055           03523        RACTCADR           CADR     RESTARTS
000358: 05,3056           21312        BOOLSTRT           OCT      21312
000359: 05,3057           77001        77001OCT           OCT      77001                                 #  .14 DEG SCALED AT 4.5 DEG
000360: 05,3060           00074        60DEC              DEC      60         B-14
000361: 05,3061           20100        RSFLGBTS           OCT      20100
000362: 05,3062           03434        MAXDB              OCTAL    03434                                 #  5 DEG ATTITUDE DEADBAND, SCALED AT 45.
000363:
000364: 05,3063           34747        LIGHTSET           CAF      BIT5                                  #  CHECK FOR MARK REJECT AND ERROR RESET
000365: 05,3064           00006                           EXTEND
000366: 05,3065           02016                           RAND     NAVKEYIN
000367: 05,3066           00006                           EXTEND
000368: 05,3067           13075                           BZF      NONAVKEY                              #  NO MARK REJECT
000369: 05,3070           00006                           EXTEND
000370: 05,3071           00015                           READ     MNKEYIN                               #  CHECK IF KEYS 2M AND 5M ON
000371: 05,3072           63347                           AD       -ELR                                  #  MAIN DSKY KEYCODE (BITS 1-5)
000372: 05,3073           00006                           EXTEND
000373: 05,3074           13076                           BZF      +2
000374:
000375: 05,3075           00002        NONAVKEY           TC       Q
000376:
000377: 05,3076           03100                           TC       STARTSUB
000378: 05,3077           12474                           TCF      DOFSTART
000379:


000381:                                                                                                  #           INITIALIZATION COMMON TO BOTH FRESH START AND RESTART.
000382:
000383: 05,3100  E6,1537                                  EBANK=   AOSQ
000384: 05,3100           33337        STARTSUB           CAF      LDNPHAS1                              #  SET POINTER SO NEXT 20MS DOWNRUPT WILL
000385: 05,3101           54335                           TS       DNTMGOTO                              #  CAUSE THE CURRENT DOWNLIST TO BE
000386:                                                                                                  #  INTERRUPTED AND START SENDING FROM THE
000387:                                                                                                  #  BEGINNING OF THE CURRENT DOWNLIST.
000388: 05,3102           34746                           CAF      BIT6
000389: 05,3103           00006                           EXTEND
000390: 05,3104           02033                           RAND     CHAN33
000391: 05,3105           63353                           AD       RMODINIT
000392: 05,3106           54110                           TS       RADMODES
000393:
000394: 05,3107           34733                           CAF      POSMAX
000395: 05,3110           54026                           TS       TIME3
000396: 05,3111           67745                           AD       MINUS2
000397: 05,3112           54027                           TS       TIME4
000398: 05,3113           67746                           AD       NEGONE
000399: 05,3114           54030                           TS       TIME5
000400:
000401: 05,3115           35015        STARTSB1           CAF      EBANK6
000402: 05,3116           54003                           TS       EBANK
000403:
000404: 05,3117           44737                           CS       BIT13                                 #  CAUSE DAPIDLER TO CALL 1/ACCS
000405: 05,3120           71273                           MASK     RCSFLAGS
000406: 05,3121           55273                           TS       RCSFLAGS                              #  ZERO BIT 13
000407: 05,3122           34733                           CAF      POSMAX                                #  DISABLE TIME6 CLOCK.  JUST IN CASE A T6
000408: 05,3123           55464                           TS       T6NEXT                                #    RUPT IS ALREADY IN THE PRIORITY CHAIN,
000409: 05,3124           00006                           EXTEND                                         #    ENSURE THAT IT'S INPUTS WILL RENDER IT
000410: 05,3125           03013                           WAND     CHAN13                                #    INEFFECTUAL.
000411: 05,3126           34755                           CAF      ZERO
000412: 05,3127           55463                           TS       NXT6ADR
000413: 05,3130           55470                           TS       NEXTP
000414:
000415: 05,3131           44751                           CS       ACCSOKAY
000416: 05,3132           70111                           MASK     DAPBOOLS
000417: 05,3133           54111                           TS       DAPBOOLS
000418:
000419: 05,3134           00006                           EXTEND                                         #  SET T5RUPT FOR DAPIDLER PROGRAM.
000420: 05,3135           33335                           DCA      IDLEADR
000421: 05,3136           53275                           DXCH     T5ADR
000422:
000423: 05,3137           33346        STARTSB2           CAF      OCT30001                              #  DURING SOFTWARE RESTART, DO NOT DISTURB
000424: 05,3140           00006                           EXTEND                                         #  ENGINE ON, OFF AND ISS WARNING.
000425: 05,3141           03011                           WAND     DSALMOUT
000426:
000427: 05,3142           44743                           CS       READRBIT                              #  CLEAR READRFLG FOR R29.
000428: 05,3143           70077                           MASK     FLAGWRD3
000429: 05,3144           54077                           TS       FLAGWRD3
000430:


000432:
000433: 05,3145           40077                           CS       FLAGWRD3                              #  DURING SOFTWARE RESTART,CLEAR TURNON,
000434: 05,3146           74741                           MASK     NR29FBIT                              #  REPOSITION,CDU ZERO AND REMODE BITS
000435: 05,3147           00006                           EXTEND                                         #  IN RADMODES,SINCE TASKS ASSOCIATED
000436: 05,3150           13152                           BZF      +2                                    #  WITH THESE BITS HAVE BEEN KILLED
000437: 05,3151           34742                           CAF      BIT10                                 #  ALSO IF R29 HAD BEEN REQUESTED.
000438: 05,3152           63342                           AD       OCT32001                              #  (NOR29FLG = 0) CLEAR BIT 10 RADMODES
000439: 05,3153           40000                           COM                                            #  TO MAKE R29 FORGET IT HAD STARTED
000440: 05,3154           70110                           MASK     RADMODES                              #  DESIGNATING
000441: 05,3155           54110                           TS       RADMODES
000442: 05,3156           33344                           CAF      OCT27470                              #  DURING SOFTWARE RESTART, DO NOT DISTURB
000443: 05,3157           00006                           EXTEND                                         #  IMU FLAGS.  (COURSE ALIGN ENABLE, ZERO
000444: 05,3160           03012                           WAND     CHAN12                                #  IMU CDUS, ENABLE IMU COUNTER) AND GIMBAL
000445:                                                                                                  #  TRIM DRIVES. LEAVE RR LOCKON ENABLE
000446:                                                                                                  #  ALONE.
000447:
000448: 05,3161           44750                           CS       NORRMBIT                              #  ENABLE R25.
000449: 05,3162           70101                           MASK     FLAGWRD5
000450: 05,3163           54101                           TS       FLAGWRD5
000451:
000452: 05,3164           33345                           CAF      OCT74160                              #  DURING SOFTWARE RESTART, DO NOT DUSTURB
000453: 05,3165           00006                           EXTEND                                         #  TELEMETRY FLAGS, RESET TRAP FLAGS, AND
000454: 05,3166           03013                           WAND     CHAN13                                #  ENABLE T6RUPT FLAG.
000455:
000456: 05,3167           34740                           CAF      BIT12                                 #  REENABLE RUPT10 (RUPT QUICKLY
000457: 05,3170           00006                           EXTEND                                         #    RESUMES EXCEPT DURING P64)
000458: 05,3171           05013                           WOR      CHAN13
000459:
000460: 05,3172           34746                           CAF      BIT6                                  #  DURING SOFTWARE RESTART, DO NOT DISTURB
000461: 05,3173           00006                           EXTEND                                         #  GYRO ENABLE FLAG.
000462: 05,3174           03014                           WAND     CHAN14
000463:
000464: 05,3175  E3,1400                                  EBANK=   LST1
000465: 05,3175           35007                           CAF      STARTEB
000466: 05,3176           54003                           TS       EBANK                                 #  SET FOR E3
000467:
000468: 05,3177           34734                           CAF      NEG1/2                                #  INITIALIZE WAITLIST DELTA-TS.
000469: 05,3200           55407                           TS       LST1       +7
000470: 05,3201           55406                           TS       LST1       +6
000471: 05,3202           55405                           TS       LST1       +5
000472: 05,3203           55404                           TS       LST1       +4
000473: 05,3204           55403                           TS       LST1       +3
000474: 05,3205           55402                           TS       LST1       +2
000475: 05,3206           55401                           TS       LST1       +1
000476: 05,3207           55400                           TS       LST1
000477:
000478: 05,3210           45236                           CS       ENDTASK
000479: 05,3211           55410                           TS       LST2
000480: 05,3212           55412                           TS       LST2       +2
000481: 05,3213           55414                           TS       LST2       +4
000482: 05,3214           55416                           TS       LST2       +6
000483:


000485: 05,3215           55420                           TS       LST2       +8D
000486: 05,3216           55422                           TS       LST2       +10D
000487: 05,3217           55424                           TS       LST2       +12D
000488: 05,3220           55426                           TS       LST2       +14D
000489: 05,3221           55430                           TS       LST2       +16D
000490: 05,3222           45237                           CS       ENDTASK    +1
000491: 05,3223           55411                           TS       LST2       +1
000492: 05,3224           55413                           TS       LST2       +3
000493: 05,3225           55415                           TS       LST2       +5
000494: 05,3226           55417                           TS       LST2       +7
000495: 05,3227           55421                           TS       LST2       +9D
000496: 05,3230           55423                           TS       LST2       +11D
000497: 05,3231           55425                           TS       LST2       +13D
000498: 05,3232           55427                           TS       LST2       +15D
000499: 05,3233           55431                           TS       LST2       +17D
000500:
000501: 05,3234           44755                           CS       ZERO                                  #  MAKE ALL EXECUTIVE REGISTER SETS
000502: 05,3235           54167                           TS       PRIORITY                              #  AVAILABLE.
000503: 05,3236           54203                           TS       PRIORITY   +12D
000504: 05,3237           54217                           TS       PRIORITY   +24D
000505: 05,3240           54233                           TS       PRIORITY   +36D
000506: 05,3241           54247                           TS       PRIORITY   +48D
000507: 05,3242           54263                           TS       PRIORITY   +60D
000508: 05,3243           54277                           TS       PRIORITY   +72D
000509: 05,3244           54313                           TS       PRIORITY   +84D
000510:
000511: 05,3245           55313                           TS       DSRUPTSW
000512: 05,3246           54067                           TS       NEWJOB                                #  SHOWS NO ACTIVE JOBS.
000513:
000514: 05,3247           33341                           CAF      VAC1ADRC                              #  MAKE ALL VAC AREAS AVAILABLE.
000515: 05,3250           54400                           TS       VAC1USE
000516: 05,3251           63343                           AD       LTHVACA
000517: 05,3252           54454                           TS       VAC2USE
000518: 05,3253           63343                           AD       LTHVACA
000519: 05,3254           54530                           TS       VAC3USE
000520: 05,3255           63343                           AD       LTHVACA
000521: 05,3256           54604                           TS       VAC4USE
000522: 05,3257           63343                           AD       LTHVACA
000523: 05,3260           54660                           TS       VAC5USE
000524:
000525: 05,3261           34363                           CAF      TEN
000526: 05,3262           54154        DSPOFF             TS       MPAC                                  #  R1,R2,R3).
000527: 05,3263           44740                           CS       BIT12
000528: 05,3264           50154                           INDEX    MPAC
000529: 05,3265           55023                           TS       DSPTAB
000530: 05,3266           10154                           CCS      MPAC
000531: 05,3267           13262                           TCF      DSPOFF
000532:
000533: 05,3270           55326                           TS       DELAYLOC
000534: 05,3271           55327                           TS       DELAYLOC   +1
000535:


000537: 05,3272           55330                           TS       DELAYLOC   +2
000538: 05,3273           55074                           TS       R1SAVE
000539: 05,3274           54045                           TS       INLINK
000540: 05,3275           54776                           TS       DSPCNT
000541: 05,3276           55042                           TS       CADRSTOR
000542: 05,3277           55013                           TS       REQRET
000543: 05,3300           55015                           TS       CLPASS
000544: 05,3301           55012                           TS       DSPLOCK
000545: 05,3302           55020                           TS       MONSAVE                               #  KILL MONITOR
000546: 05,3303           55021                           TS       MONSAVE1
000547: 05,3304           55001                           TS       VERBREG
000548: 05,3305           55002                           TS       NOUNREG
000549: 05,3306           55043                           TS       DSPLIST
000550: 05,3307           55312                           TS       MARKSTAT
000551: 05,3310           55044                           TS       EXTVBACT                              #  MAKE EXTENDED VERBS AVAILABLE
000552: 05,3311           55304                           TS       IMUCADR
000553: 05,3312           55305                           TS       OPTCADR
000554: 05,3313           55306                           TS       RADCADR
000555: 05,3314           55307                           TS       ATTCADR
000556: 05,3315           55314                           TS       LGYRO
000557: 05,3316           54100                           TS       FLAGWRD4                              #  KILL INTERFACE DISPLAYS
000558: 05,3317           34760                           CAF      NOUTCON
000559: 05,3320           55016                           TS       NOUT
000560:
000561: 05,3321           44753                           CS       ONE
000562: 05,3322           55100                           TS       SAMPLIM
000563: 05,3323           34746                           CAF      BIT6
000564: 05,3324           71303                           MASK     IMODES33                              #  LEAVE BIT 6 UNCHANGED
000565: 05,3325           65026                           AD       IM33INIT                              #  NO PIP OR TM FAILS.BIT6=0 IN THIS WORD.
000566: 05,3326           55303                           TS       IMODES33
000567:
000568: 05,3327           33340                           CAF      LESCHK                                #  SELF CHECK GO-TO REGISTER.
000569: 05,3330           55361                           TS       SELFRET
000570:
000571: 05,3331           44360                           CS       VD1
000572: 05,3332           54777                           TS       DSPCOUNT
000573:
000574: 05,3333           00002                           TC       Q
000575: 05,3334  E6,1537                                  EBANK=   AOSQ
000576: 05,3334           02024 34066  IDLEADR            2CADR    DAPIDLER
000577: 05,3336           00435        IFAILINH           OCT      435
000578: 05,3337           03437        LDNPHAS1           GENADR   DNPHASE1
000579: 05,3340           03344        LESCHK             GENADR   SELFCHK
000580: 05,3341           00400        VAC1ADRC           ADRES    VAC1USE
000581: 05,3342           32001        OCT32001           OCT      32001
000582: 05,3343           00054        LTHVACA            DEC      44         B-14
000583:
000584: 05,3344           27470        OCT27470           OCT      27470
000585:


000587: 05,3345           74160        OCT74160           OCT      74160
000588: 05,3346           30001        OCT30001           OCT      30001
000589: 05,3347     5007               STARTEB            EQUALS   EBANK3
000590: 05,3347     4756               NUMGRPS            EQUALS   FIVE
000591: 05,3347           77755        -ELR               OCT      -22                                   #  -ERROR LIGHT RESET KEY CODE.
000592: 05,3350           37411        IM30INIF           OCT      37411                                 #  INHIBITS IMU FAIL FOR 5 SEC AND PIP ISSW
000593: 05,3351           37000        IM30INIR           OCT      37000
000594: 05,3352     5026               IM33INIT           =        PRIO16                                #  NO PIP OR TM FAIL SIGNALS.
000595: 05,3352           00450        9,6,4              OCT      450
000596: 05,3353           00102        RMODINIT           OCT      00102
000597: 05,3354           00000        SWINIT             OCT      0
000598: 05,3355           00000                           OCT      0
000599: 05,3356           00000                           OCT      0
000600: 05,3357           02000                           OCT      02000                                 #  BIT 11 = NOR29FLG
000601: 05,3360           00000                           OCT      0
000602: 05,3361           00000                           OCT      0
000603: 05,3362           00000                           OCT      0
000604: 05,3363           00100                           OCT      00100
000605:
000606: 05,3364           00000                           OCT      0
000607: 05,3365           00000                           OCT      0
000608: 05,3366           00000                           OCT      0
000609: 05,3367           40000                           OCT      40000                                 #  BIT 15 = LRBYPASS.
000610:


000612:                                                                                                  #  PROGRAM NAME    GOTOPOOH                   ASSEMBLY       SUNDANCE
000613:                                                                                                  #  LOG SECTION     FRESH START AND RESTART
000614:
000615:                                                                                                  #  FUNCTIONAL DESCRIPTION
000616:
000617:                                                                                                  #        FLASH V 37 ON DSKY %MM CHANGE REQUEST "
000618:
000619:                                                                                                  #  INPUT/OUTPUT INFORMATION
000620:
000621:                                                                                                  #        A. CALLING SEQUENCE        TC GOTOPOOH
000622:
000623:                                                                                                  #        B. ERASABLE INITIALIZATION       NONE
000624:
000625:                                                                                                  #        C. OUTPUT FLASH V 37 ON DSKY
000626:
000627:                                                                                                  #        D. DEBRIS       L
000628:
000629:                                                                                                  #  PROGRAM ANALYSIS
000630:
000631:                                                                                                  #        A. SUBROUTINES CALLED PRIODSPR,  LINUS
000632:
000633:                                                                                                  #        B. NORMAL EXIT        TCF ENDOFJOB
000634:
000635:                                                                                                  #        C. ALARM AND ABORT EXITS       NONE
000636:
000637:    6001                                           BLOCK    03
000638:    6000                                           SETLOC   FFTAG5
000639:    6000                                           BANK
000640:
000641:    6001                                           COUNT*   $$/P00
000642:    6001           34764        GOTOPOOH           CAF      OCT33                                 #  4.33 SPOT FOR GOPOOFIX
000643:    6002           54001                           TS       L
000644:    6003           40000                           COM
000645:    6004           52761                           DXCH     -PHASE4
000646:
000647:    6005           04635                           TC       POSTJUMP
000648:    6006           10024                           CADR     GOPOOFIX
000649:    6007           00024        OCT24              MM       20         B-14
000650:    6010           00031        OCT31              MM       25         B-14
000651:
000652: 20,2004                                           BANK     20
000653: 04,2000                                           SETLOC   VERB37
000654: 04,2000                                           BANK
000655:
000656: 04,2024                                           COUNT*   $$/P00                                #  VERB 37 AND P00 IN BANK 4.
000657: 04,2024           05516        GOPOOFIX           TC       DOWNFLAG                              #  ALLOW X-AXIS OVERRIDE
000658: 04,2025           00311                           ADRES    XOVINFLG
000659:
000660: 04,2026           05516                           TC       DOWNFLAG                              #  INSURE THAT ULLAGE IS OFF
000661: 04,2027           00314                           ADRES    ULLAGFLG
000662:


000664: 04,2030           32036                           CAF      V37N99
000665: 04,2031           04616                           TC       BANKCALL
000666: 04,2032           20351                           CADR     GOFLASH
000667: 04,2033           12030                           TCF      -3
000668: 04,2034           12030                           TCF      -4
000669: 04,2035           12030                           TCF      -5
000670:
000671: 04,2036           11343        V37N99             VN       3799
000672:


000674:                                                                                                  #  PROGRAM NAME          V37                     ASSEMBLY SUNDANCE
000675:
000676:                                                                                                  #  LOG SECTION     FRESH START AND RESTART
000677:
000678:                                                                                                  #  FUNCTIONAL DESCRIPTION
000679:
000680:                                                                                                  #        1. CHECK IF NEW PROGRAM ALLOWED. IF BIT 1 OF FLAGWRD2(NODOFLAG) IS SET, AN ALARM 1520 IS CALLED.
000681:                                                                                                  #        2. CHECK FOR VALIDITY OF PROGRAM SELECTED. IF AN INVALID PROGRAM  IS SELECTED, THE OPERATOR ERROR LIGHT IS
000682:                                                                                                  #           SET AND CURRENT ACTIVITY, IF ANY, CONTINUES.
000683:                                                                                                  #        3. SERVICER IS TERMINATED IF IT HAS BEEN RUNNING.
000684:                                                                                                  #        4. INSTALL IS EXECUTED TO AVOID INTERRUPTING INTEGRATION.
000685:                                                                                                  #        5. THE ENGINE IS TURNED OFF AND THE DAP IS INITIALIZED FOR COAST.
000686:                                                                                                  #        6. TRACK AND UPDATE FLAGS ARE SET TO ZERO.
000687:                                                                                                  #        7. DISPLAY SYSTEM IS RELEASED.
000688:                                                                                                  #        8. THE FOLLOWING ARE PERFORMED FOR EACH OF THE THREE CASES.
000689:                                                                                                  #           A. PROGRAM SELECTED IS P00.
000690:                                                                                                  #              1. RENDEZVOUS AND P25 FLAGS ARE RESET.(KILL P20 AND P25)
000691:                                                                                                  #              2. STATINT1     IS SCHEDULED BY SETTING RESTART GROUP 2.
000692:                                                                                                  #              3. MAJOR MODE 00 IS STORED IN THE MODE REGISTER (MODREG).
000693:                                                                                                  #              4. SUPERBANK 3 IS SELECTED.
000694:                                                                                                  #              5. NODOFLAG IS RESET.
000695:                                                                                                  #              6. ALL RESTART GROUPS EXCEPT GROUP 2 ARE CLEARED. CONTROL ISTRANSFERRED TO RESTART PROGRAM (GOPROG2)
000696:                                                                                                  #                 WHICH CAUSES ALL CURRENT ACTIVITY TO BE DISCONTINUED AND A 9 MINUTE INTEGRATION CYCLE TO BE
000697:                                                                                                  #                 INITIATED.
000698:                                                                                                  #           B. PROGRAM SELECTED IS P20 OR P25.
000699:                                                                                                  #              1. IF THE CURRENT MAJOR MODE IS THE SAME AS THE SELECTED NEWPROGRAM, THE PROGRAM IS RE-INITIALIZED
000700:                                                                                                  #                 VIA V37XEQ, ALL RESTART GROUPS, EXCEPT GROUP 4 ARE CLEARED.
000701:                                                                                                  #              2. IF THE CURRENT MAJOR MODE IS NOT EQUAL TO THE NEW REQUEST, A CHECK IS MADE TO SEE IF THE REQUEST-
000702:                                                                                                  #                 ED MAJOR MODE HAS BEEN RUNNING IN THE BACKGROUND,
000703:                                                                                                  #                 AND IF IT HAS, NO NEW PROGRAM IS SCHEDULED, THE EXISTING
000704:                                                                                                  #                 P20 OR P25 IS RESTARTED TO CONTINUE, AND ITS M M IS SET.
000705:                                                                                                  #              3. CONTROL IS TRANSFERRED TO GOPROG2.
000706:                                                                                                  #           C. PROGRAM SELECTED IS NEITHER P00,P20, NOR P25
000707:                                                                                                  #              1. V37XEQ IS SCHEDULED (AS A JOB) BY SETTING RESTART GROUP 4
000708:                                                                                                  #              2. ALL CURRENT ACTIVITY EXCEPT RENDEZVOUS AND TRACKING IS DISCONTINUED BY CLEARING ALL RESTART
000709:                                                                                                  #                 GROUPS. IF THE RENDEZVOUS OR THE P25 FLAG IS ON, GROUP 2 IS NOT CLEARED, ALLOWING THESE PROGRAMS
000710:                                                                                                  #                 TO CONTINUE.
000711:
000712:                                                                                                  #  INPUT/OUTPUT INFORMATION
000713:
000714:                                                                                                  #        A. CALLING SEQUENCE
000715:
000716:                                                                                                  #            CONTROL IS DIRECTED TO V37 BY THE VERBFAN ROUTINE.
000717:                                                                                                  #               VERBFAN GOES TO C(VERBTAB+C(VERBREG)). VERB 37 = MMCHANG.
000718:                                                                                                  #               MMCHANG EXECUTES A   TC POSTJUMP, CADR V37.
000719:
000720:                                                                                                  #        B. ERASABLE INITIALIZATION      NONE
000721:
000722:                                                                                                  #        C. OUTPUT
000723:


000725:                                                                                                  #            MAJOR MODE CHANGE
000726:
000727:                                                                                                  #        D. DEBRIS
000728:                                                                                                  #             MMNUMBER, MPAC +1, MINDEX, BASETEMP +C(MINDEX), FLAGWRD0, FLAGWRD1, FLAGWRD2, MODREG, GOLOC -1,
000729:                                                                                                  #             GOLOC, GOLOC +1, GOLOC +2, BASETEMP, -PHASE2, PHASE2, -PHASE4
000730:
000731:                                                                                                  #  PROGRAM ANALYSIS
000732:
000733:                                                                                                  #        A. SUBROUTINES CALLED
000734:                                                                                                  #             ALARM, RELDSP, PINBRNCH, INTSTALL, ENGINOF2, ALLCOAST, V37KLEAN, GOPROG2, FALTON, FINDVAC, SUPERSW,
000735:                                                                                                  #             DSPMM
000736:
000737:                                                                                                  #        B. NORMAL EXIT        TC ENDOFJOB
000738:
000739:                                                                                                  #        C. ALARMS      1520 (MAJOR MODE CHANGE NOT PERMITTED)
000740:
000741: 04,2037           54775        V37                TS       MMNUMBER                              #  SAVE MAJOR MODE
000742: 04,2040           34355                           CAF      PRIO30                                #  RESTART AT PINBALL PRIORITY
000743: 04,2041           54366                           TS       RESTREG
000744:
000745: 04,2042           31302                           CA       IMODES30                              #  IS IMU BEINB INITIALIZED
000746: 04,2043           74746                           MASK     BIT6
000747: 04,2044           10000                           CCS      A
000748: 04,2045           12064                           TCF      CANTROO
000749:
000750: 04,2046           40775                           CS       MMNUMBER                              #  IS P70 REQUESTED?
000751: 04,2047           62375                           AD       DEC70
000752: 04,2050           00006                           EXTEND
000753: 04,2051           12370                           BZF      SETUP70                               #  YES
000754: 04,2052           64753                           AD       ONE                                   #  IS P71 REQUESTED?
000755: 04,2053           00006                           EXTEND
000756: 04,2054           12367                           BZF      SETUP71                               #  YES
000757:
000758: 04,2055           30775                           CA       MMNUMBER                              #  IS NEW REQUEST POO
000759: 04,2056           00006                           EXTEND
000760: 04,2057           12106                           BZF      ISSERVON                              #  YES, CHECK SERVICER STATUS
000761:
000762: 04,2060           40076                           CS       FLAGWRD2                              #  NO, IS NODO V37 FLAG SET
000763: 04,2061           74753                           MASK     NODOBIT
000764: 04,2062           10000                           CCS      A
000765: 04,2063           12071                           TCF      CHECKTAB                              #  NO
000766: 04,2064           05567        CANTROO            TC       ALARM
000767: 04,2065           01520                           OCT      1520
000768:
000769: 04,2066           04457        V37BAD             TC       RELDSP                                #  RELEASES DISPLAY FROM ASTRONAUT
000770:
000771: 04,2067           04635                           TC       POSTJUMP                              #  BRING BACK LAST NORMAL DISPLAY IF THERE
000772: 04,2070           20723                           CADR     PINBRNCH                              #  WAS ONE. OTHERWISE DO AN EOJ.
000773:
000774: 04,2071           32474        CHECKTAB           CA       NOV37MM                               #  INDEX FOR MM TABLES.
000775:


000777: 04,2072           54155        AGAINMM            TS       MPAC       +1
000778: 04,2073           50155                           NDX      MPAC       +1
000779: 04,2074           32436                           CA       PREMM1                                #  OBTAIN WHICH MM THIS IS FOR
000780: 04,2075           76073                           MASK     LOW7
000781: 04,2076           40000                           COM
000782: 04,2077           60775                           AD       MMNUMBER
000783: 04,2100           10000                           CCS      A
000784: 04,2101           10155                           CCS      MPAC       +1                         #  IF GR, SEE IF ANY MORE IN LIST
000785: 04,2102           12072                           TCF      AGAINMM                               #  YES, GET NEXT ONE
000786: 04,2103           12317                           TCF      V37NONO                               #  LAST TIME OR PASSED MM
000787:
000788: 04,2104           30155                           CA       MPAC       +1
000789: 04,2105           54774                           TS       MINDEX                                #  SAVE INDEX FOR LATER
000790:
000791: 04,2106           40103        ISSERVON           CS       FLAGWRD7                              #  V37 FLAG SET - I.E. IS SERVICER GOING
000792: 04,2107           74746                           MASK     V37FLBIT
000793: 04,2110           10000                           CCS      A
000794: 04,2111           12133                           TCF      CANV37                                #  NO
000795:
000796: 04,2112           05516                           TC       DOWNFLAG                              #  YES, TURN OFF THE AVERAGE FLAG AND
000797: 04,2113           00163                           ADRES    AVEGFLAG                              #  WAIT FOR SERVICER TO RETURN TO CANV37.
000798:
000799: 04,2114           32363                           CAF      V37RETAD
000800: 04,2115           55260                           TS       OUTROUTE
000801:
000802: 04,2116           15155                           TCF      ENDOFJOB
000803:
000804: 04,2117           40074        V37RET             CS       FLAGWRD0                              #  IS P20 OR P22 RUNNING?
000805: 04,2120           74745                           MASK     RNDVZBIT
000806: 04,2121           10000                           CCS      A
000807: 04,2122           12124                           TCF      +2                                    #  NO. CHECK FOR P25.
000808: 04,2123           12131                           TCF      2.7SPT                                #  YES.  DO 2.7SPOT
000809: 04,2124           40074                           CS       FLAGWRD0                              #  IS P25 RUNNING?
000810: 04,2125           74743                           MASK     P25FLBIT
000811: 04,2126           10000                           CCS      A
000812: 04,2127           32364        2.0SPT             CA       OCT37667
000813: 04,2130           64747        2.11SPT            AD       BIT5
000814: 04,2131           62365        2.7SPT             AD       OCT40072
000815: 04,2132           05357                           TC       PHSCHNGA
000816:
000817: 04,2133           34755        CANV37             CAF      ZERO
000818: 04,2134           00006                           EXTEND
000819: 04,2135           01007                           WRITE    SUPERBNK
000820:
000821: 04,2136           32362                           CAF      ROOAD
000822: 04,2137           54374                           TS       TEMPFLSH
000823:
000824: 04,2140           05353                           TC       PHASCHNG
000825: 04,2141           00014                           OCT      14
000826:


000828:
000829: 04,2142           06036        ROO                TC       INTPRET
000830:
000831: 04,2143           77624                           CALL                                           #  WAIT FOR INTEGRATION TO FINISH
000832: 04,2144           27412                                    INTSTALL
000833: 04,2145           77776        DUMMYAD            EXIT
000834:
000835: 04,2146           05516                           TC       DOWNFLAG
000836: 04,2147           00124                           ADRES    3AXISFLG                              #  RESET 3-AXIS FLAG
000837:
000838: 04,2150           34735                           CAF      LRBYBIT                               #  CLEAN UP THE R12 FLAGWORD.
000839: 04,2151           54107                           TS       FLGWRD11
000840:
000841: 04,2152           05516                           TC       DOWNFLAG                              #  INSURE THAT THE R04FLAG IS CLEAR.
000842: 04,2153           00063                           ADRES    R04FLAG
000843:
000844: 04,2154           05516                           TC       DOWNFLAG                              #  ALLOW X-AXIS OVERRIDE.
000845: 04,2155           00311                           ADRES    XOVINFLG
000846: 04,2156           10775                           CCS      MMNUMBER                              #  IS THIS A POOH REQUEST
000847: 04,2157           12305                           TCF      NOUVEAU                               #  NO, PICK UP NEW PROGRAM
000848:
000849: 04,2160           04457        POOH               TC       RELDSP                                #  RELEASE DISPLAY SYSTEM
000850:
000851: 04,2161           35017                           CAF      PRIO5                                 #  SET VARIABLE RESTART PRIORITY FOR
000852: 04,2162           55056                           TS       PHSPRDT2                              #  P00 INTEGRATION.
000853:
000854: 04,2163           06011                           TC       CLRADMOD                              #  CLRADMOD DOES AN INHINT.
000855:
000856: 04,2164           44753                           CS       NODOBIT                               #  TURN OFF NODOFLAG.
000857: 04,2165           70076                           MASK     FLAGWRD2
000858: 04,2166           54076                           TS       FLAGWRD2
000859:
000860: 04,2167           34756                           CA       FIVE                                  #  SET RESTART FOR STATEINT1
000861: 04,2170           54001                           TS       L
000862: 04,2171           40000                           COM
000863: 04,2172           52755                           DXCH     -PHASE2
000864:
000865: 04,2173           42366                           CS       OCT700                                #  TURN OFF P20,P25,IMU IN USE FLAG
000866: 04,2174           70074                           MASK     FLAGWRD0
000867: 04,2175           54074                           TS       FLAGWRD0                              #                         RENDFLG
000868:
000869: 04,2176           34755                           CAF      DNLADP00
000870:
000871: 04,2177           54332        SEUDOPOO           TS       DNLSTCOD                              #  SET UP APPROPRIATE DOWNLIST CODE
000872: 04,2200           55324                           TS       AGSWORD                               #   (CURRENT LIST WILL BE COMPLETED BEFORE
000873:                                                                                                  #     NEW ONE IS STARTED)
000874: 04,2201           04674                           TC       IBNKCALL
000875: 04,2202           75555                           CADR     ENGINOF1
000876:
000877: 04,2203           04674                           TC       IBNKCALL                              #  INSURE ALLCOAST.
000878: 04,2204           40204                           CADR     ALLCOAST                              #  DOES A RESTORDB.
000879:


000881:
000882: 04,2205           44775                           CS       OCT120                                #  TURN OFF TRACK, UPDATE FLAGS
000883: 04,2206           55072                           TS       EBANKTEM
000884: 04,2207           70075                           MASK     FLAGWRD1
000885: 04,2210           54075                           TS       FLAGWRD1
000886:
000887: 04,2211           04674                           TC       IBNKCALL                              #  KILL GROUPS 1,3,5,6
000888: 04,2212           12652                           CADR     V37KLEAN
000889:
000890: 04,2213           10775                           CCS      MMNUMBER                              #  IS IT POOH
000891: 04,2214           12223                           TCF      RENDVOO                               #  NO
000892: 04,2215           04674        GOMOD              TC       IBNKCALL                              #  REDUNDANT EXCEPT FOR GROUP 4
000893: 04,2216           12647                           CADR     POOKLEAN
000894:
000895: 04,2217           30775                           CA       MMNUMBER
000896: 04,2220           55011                           TS       MODREG
000897:
000898: 04,2221           04635        GOGOPROG           TC       POSTJUMP
000899: 04,2222           12771                           CADR     GOPROG2
000900:
000901: 04,2223           41011        RENDVOO            CS       MODREG                                #  IS CURRENT PROGRAM 22
000902: 04,2224           62323                           AD       OCT26
000903: 04,2225           00006                           EXTEND
000904: 04,2226           12245                           BZF      RESET22                               #  YES - CLEAR RENDEZVOUS FLAG
000905:
000906:
000907: 04,2227           40775                           CS       MMNUMBER                              #  IS NEW PROGRAM P22
000908: 04,2230           62323                           AD       OCT26
000909: 04,2231           00006                           EXTEND
000910: 04,2232           12245                           BZF      RESET22
000911:
000912:
000913: 04,2233           67745                           AD       NEG2                                  #  IS NEW PROGRAM = P20 OR P25
000914: 04,2234           00006                           EXTEND
000915: 04,2235           12257                           BZF      RENDNOO                               #  YES
000916: 04,2236           64756                           AD       FIVE                                  #  25
000917: 04,2237           00006                           EXTEND
000918: 04,2240           12257                           BZF      RENDNOO                               #  YES
000919:
000920: 04,2241           32321                           CA       OCT500                                #  NO, IS EITHER P20 OR P25 RUNNING
000921: 04,2242           70074                           MASK     FLAGWRD0
000922: 04,2243           10000                           CCS      A
000923: 04,2244           12254                           TCF      POOFIZZ                               #  YES, LEAVE GROUP 2 TO PICK UP P20 OR P25
000924:
000925: 04,2245           42366        RESET22            CS       OCT700                                #  CLEAR RENDEZVOUS,P25
000926: 04,2246           70074                           MASK     FLAGWRD0                              #  AND IMU IN USE FLAGS
000927: 04,2247           54074                           TS       FLAGWRD0
000928: 04,2250           06011                           TC       CLRADMOD
000929:
000930: 04,2251           00006        KILL2              EXTEND                                         #  NO, KILL 2
000931: 04,2252           34755                           DCA      NEG0
000932:


000934: 04,2253           52755                           DXCH     -PHASE2
000935:
000936: 04,2254           32361        POOFIZZ            CAF      V37QCAD                               #  RESTART POINT FOR V37XEQ
000937: 04,2255           54374                           TS       TEMPFLSH
000938:
000939: 04,2256           12221                           TCF      GOGOPROG
000940:
000941: 04,2257           41011        RENDNOO            CS       MODREG
000942: 04,2260           66007                           AD       OCT24
000943: 04,2261           00006                           EXTEND
000944: 04,2262           12251                           BZF      KILL2                                 #  P20 OR P25 ON TOP OF P20 OR P25 -
000945:
000946: 04,2263           64756                           AD       FIVE
000947: 04,2264           00006                           EXTEND
000948: 04,2265           12251                           BZF      KILL2
000949:
000950: 04,2266           32321                           CA       OCT500
000951: 04,2267           70074                           MASK     FLAGWRD0
000952: 04,2270           60775                           AD       MMNUMBER
000953: 04,2271           40000                           COM
000954: 04,2272           62324                           AD       P20REG                                #  IS IT 20 AND IS RENDEZVOUS FLAG ON
000955: 04,2273           00006                           EXTEND
000956: 04,2274           12301                           BZF      STATQUO                               #  YES
000957: 04,2275           62322                           AD       OCT305                                #  IS IT 25 AND IS P25 BIT ON
000958: 04,2276           00006                           EXTEND
000959: 04,2277           12301                           BZF      STATQUO                               #  YES, LEAVE AS IS
000960: 04,2300           12251                           TCF      KILL2
000961:
000962: 04,2301           40075        STATQUO            CS       FLAGWRD1                              #  SET TRACKFLAG
000963: 04,2302           74775                           MASK     OCT120                                #      UPDATE FLAG
000964: 04,2303           26075                           ADS      FLAGWRD1
000965:
000966: 04,2304           12215                           TCF      GOMOD
000967:
000968: 04,2305           32321        NOUVEAU            CAF      OCT500                                #  IS P20 OR P25 FLAG SET
000969: 04,2306           70074                           MASK     FLAGWRD0
000970: 04,2307           10000                           CCS      A
000971: 04,2310           12313                           TCF      +3                                    #  YES
000972: 04,2311           05516                           TC       DOWNFLAG                              #  NO,RESET IMUINUSE FLAG
000973: 04,2312           00007                           ADRES    IMUSE
000974:
000975: 04,2313           50774                           INDEX    MINDEX
000976: 04,2314           32475                           CAF      DNLADMM1                              #  OBTAIN APPROPRIATE DOWNLIST ADDRESS
000977:
000978: 04,2315           00004                           INHINT
000979: 04,2316           12177                           TCF      SEUDOPOO
000980:
000981: 04,2317           04364        V37NONO            TC       FALTON                                #  COME HERE IF MM REQUESTED DOESNT EXIST
000982:
000983: 04,2320           12066                           TCF      V37BAD
000984:


000986: 04,2321     4750               OCT00010           EQUALS   BIT4
000987: 04,2321           00500        OCT500             OCT      500                                   #  BITS 7 AND 9
000988: 04,2322           00305        OCT305             OCT      305
000989: 04,2323           00026        OCT26              OCT      26
000990: 04,2324           00124        P20REG             OCT      124
000991:
000992: 04,2325           00004        V37XEQ             INHINT
000993: 04,2326           50774                           INDEX    MINDEX
000994: 04,2327           32436                           CAF      PREMM1                                #  OBTAIN PRIO, EBANK, AND MM
000995: 04,2330           55060                           TS       MMTEMP
000996: 04,2331           54020                           TS       CYR                                   #  SHIFT RIGHT TO BITS 14 - 10
000997:
000998: 04,2332           30020                           CA       CYR
000999: 04,2333           77724                           MASK     PRIO37
001000: 04,2334           55062                           TS       PHSPRDT4                              #  PRESET GROUP 4 RESTART PRIORITY
001001: 04,2335           54063                           TS       NEWPRIO                               #  STORE PRIO FOR SPVAC
001002:
001003: 04,2336           31060                           CA       MMTEMP                                #  OBTAIN EBANK - BITS 8, 9, 10 OF MMTEMP.
001004: 04,2337           00006                           EXTEND
001005: 04,2340           74744                           MP       BIT8
001006: 04,2341           74757                           MASK     LOW3
001007: 04,2342           54001                           TS       L
001008:
001009: 04,2343           50774                           INDEX    MINDEX
001010: 04,2344           32400                           CAF      FCADRMM1
001011: 04,2345           55061                           TS       BASETEMP                              #  MAKE BBCON BY ADDING HI5 OF FCADR
001012: 04,2346           74350                           MASK     HI5
001013: 04,2347           26001                           ADS      L
001014:
001015: 04,2350           31061                           CA       BASETEMP                              #  OBTAIN GENADR PORTION OF 2CADR.
001016: 04,2351           75012                           MASK     LOW10
001017: 04,2352           64741                           AD       BIT11
001018:
001019: 04,2353           05116                           TC       SPVAC
001020:
001021: 04,2354           31060        V37XEQC            CA       MMTEMP                                #  UPON RETURN FROM FINDVAC PLACE THE
001022: 04,2355           76073                           MASK     LOW7                                  #  NEW MM IN MODREG (THE LOW 7 BITS OF
001023: 04,2356           05314                           TC       NEWMODEA                              #  PHSPRDT1)
001024:
001025: 04,2357           04457                           TC       RELDSP                                #  RELEASE DISPLAY
001026: 04,2360           05155                           TC       ENDOFJOB                              #  AND EXIT
001027:
001028: 04,2361     5660               NEG7               EQUALS   OCT77770
001029:
001030: 04,2361     1060               MMTEMP             EQUALS   PHSPRDT3
001031: 04,2361     1061               BASETEMP           EQUALS   TBASE4
001032: 04,2361           10330        V37QCAD            CADR     V37XEQ     +3
001033: 04,2362           10145        ROOAD              CADR     DUMMYAD
001034: 04,2363           10117        V37RETAD           CADR     V37RET
001035: 04,2364           37667        OCT37667           OCT      37667
001036:


001038: 04,2365           40072        OCT40072           OCT      40072
001039: 04,2366           00700        OCT700             OCT      700
001040:
001041: 04,2367           36244        SETUP71            CAF      THREE
001042: 04,2370           54002        SETUP70            TS       Q
001043: 04,2371           00006                           EXTEND
001044: 04,2372           32377                           DCA      P70CADR
001045: 04,2373           60002                           AD       Q
001046: 04,2374           52006                           DTCB
001047:
001048: 04,2375           00106        DEC70              DEC      70         B-14
001049: 04,2376  E7,1516                                  EBANK=   R
001050: 04,2376           02166 42067  P70CADR            2CADR    P70
001051:                                                                                                  #  FOR VERB 37 TWO TABLES ARE MAINTAINED. EACH TABLE HAS AN ENTRY FOR EACH
001052:                                                                                                  #  MAJOR MODE THAT CAN BE STARTED FROM THE KEYBOARD. THE ENTRIES ARE PUT
001053:                                                                                                  #  INTO THE TABLE WITH THE ENTRY FOR THE HIGHEST MAJOR MODE COMING FIRST,
001054:
001055:                                                                                                  #  TO THE LOWEST MAJOR MODE WHICH IS THE LAST ENTRY IN EACH TABLE.
001056:
001057:                                                                                                  #           THE FCADRMM TABLE CONTAINS THE FCADR OF THE STARTING JOB OF
001058:                                                                                                  #  THE MAJOR MODE.   FOR EXAMPLE,
001059:
001060:                                                                                                  #                                          FCADRMM1 FCADR   P79             START OF P 79
001061:                                                                                                  #                                                   FCADR   PROG18          START OF P 18
001062:                                                                                                  #                                                   FCADR   P01             START OF P 01
001063:
001064:                                                                                                  #  NOTE.    THE FIRST ENTRY MUST BE LABLED FCADRMM1.
001065:                                                                                                  #  ----
001066:
001067: 04,2400           71524        FCADRMM1           FCADR    P79
001068: 04,2401           71274                           FCADR    P78
001069: 04,2402           26207                           FCADR    P76
001070: 04,2403           72673                           FCADR    P75
001071: 04,2404           72513                           FCADR    P74
001072: 04,2405           72164                           FCADR    P73
001073: 04,2406           72031                           FCADR    P72
001074: 04,2407           62172                           FCADR    LANDJUNK
001075: 04,2410           64772                           FCADR    P63LM
001076: 04,2411           33317                           FCADR    P57
001077: 04,2412           32050                           FCADR    PROG52
001078: 04,2413           31340                           FCADR    P51
001079: 04,2414           75436                           FCADR    P47LM
001080: 04,2415           75410                           FCADR    P42LM
001081: 04,2416           75272                           FCADR    P41LM
001082: 04,2417           75147                           FCADR    P40LM
001083: 04,2420           71517                           FCADR    P39
001084: 04,2421           71271                           FCADR    P38
001085: 04,2422           72667                           FCADR    P35
001086: 04,2423           72511                           FCADR    P34
001087:


001089: 04,2424           72162                           FCADR    P33
001090: 04,2425           72027                           FCADR    P32
001091: 04,2426           72414                           FCADR    P31
001092: 04,2427           72000                           FCADR    P30
001093: 04,2430           50427                           FCADR    PROG25
001094: 04,2431           50022                           FCADR    PROG22
001095: 04,2432           51402                           FCADR    PROG21
001096: 04,2433           50022                           FCADR    PROG20
001097: 04,2434           60006                           FCADR    P12LM
001098: 04,2435           77641                           FCADR    P06
001099:                                                                                                  #           THE PREMM TABLE CONTAINS THE E-BANK,MAJOR MODE, AND PRIORITY
001100:                                                                                                  #  INFORMATION, IT IS IN THE FOLLOWING FORM,
001101:
001102:                                                                                                  #           PPP PPE EEM MMM MMM
001103:
001104:                                                                                                  #           WHERE THE 7 M BITS CONTAIN THE MAJOR MODE NUMBER
001105:                                                                                                  #                      3 E BITS CONTAIN THE E-BANK NUMBER
001106:                                                                                                  #                      5 P BITS CONTAIN THE PRIORITY AT WHICH THE JOB IS
001107:                                                                                                  #                          TO BE STARTED
001108:
001109:                                                                                                  #           FOR EXAMPLE,
001110:
001111:                                                                                                  #                                          PREMM1   OCT     67213           PRIORITY      33
001112:                                                                                                  #                                                                           E-BANK         5
001113:                                                                                                  #                                                                           MAJOR MODE    11
001114:                                                                                                  #                                                   OCT     25437           PRIORITY       12
001115:                                                                                                  #                                                                           E-BANK         6
001116:                                                                                                  #                                                                           MAJOR MODE    31
001117:
001118:                                                                                                  #  NOTE,    THE FIRST ENTRY MUST BE LABELED PREMM1
001119: 04,2436           27717        PREMM1             OCT      27717                                 #  MM 79  EBANK 7  PRIO 13
001120: 04,2437           27716                           OCT      27716                                 #  MM 78  EBANK 7  PRIO 13
001121: 04,2440           27714                           OCT      27714                                 #  MM 76  EBANK 7  PRIO 13
001122: 04,2441           27713                           OCT      27713                                 #  MM 75  EBANK 7  PRIO 13
001123: 04,2442           27712                           OCT      27712                                 #  MM 74  EBANK 7  PRIO 13
001124: 04,2443           27711                           OCT      27711                                 #  MM 73  EBANK 7  PRIO 13
001125: 04,2444           27710                           OCT      27710                                 #  MM 72  EBANK 7  PRIO 13
001126: 04,2445           27704                           OCT      27704                                 #  MM 68  EBANK 7  PRIO 13
001127: 04,2446           27677                           OCT      27677                                 #  MM 63  EBANK 7  PRIO 13
001128: 04,2447           27271                           OCT      27271                                 #  MM 57  EBANK 5  PRIO 13
001129: 04,2450           27264                           OCT      27264                                 #  MM 52  EBANK 5  PRIO 13
001130: 04,2451           27263                           OCT      27263                                 #  MM 51  EBANK 5  PRIO 13
001131: 04,2452           27657                           OCT      27657                                 #  MM 47  EBANK 7  PRIO 13
001132: 04,2453           27652                           OCT      27652                                 #  MM 42  EBANK 7  PRIO 13
001133: 04,2454           27651                           OCT      27651                                 #  MM 41  EBANK 7  PRIO 13
001134: 04,2455           27650                           OCT      27650                                 #  MM 40  EBANK 7  PRIO 13
001135: 04,2456           27647                           OCT      27647                                 #  MM 39  EBANK 7  PRIO 13
001136: 04,2457           27646                           OCT      27646                                 #  MM 38  EBANK 7  PRIO 13
001137: 04,2460           27643                           OCT      27643                                 #  MM 35  EBANK 7  PRIO 13
001138: 04,2461           27642                           OCT      27642                                 #  MM 34  EBANK 7  PRIO 13
001139:


001141: 04,2462           27641                           OCT      27641                                 #  MM 33  EBANK 7  PRIO 13
001142: 04,2463           27640                           OCT      27640                                 #  MM 32  EBANK 7  PRIO 13
001143: 04,2464           27637                           OCT      27637                                 #  MM 31  EBANK 7  PRIO 13
001144: 04,2465           27636                           OCT      27636                                 #  MM 30  EBANK 7  PRIO 13
001145: 04,2466           27631                           OCT      27631                                 #  MM 25  EBANK 7  PRIO 13
001146: 04,2467           27626                           OCT      27626                                 #  MM 22  EBANK 7  PRIO 13
001147: 04,2470           27625                           OCT      27625                                 #  MM 21  EBANK 7  PRIO 13
001148: 04,2471           27624                           OCT      27624                                 #  MM 20  EBANK 7  PRIO 13
001149: 04,2472           27614                           OCT      27614                                 #  MM 12  EBANK 7  PRIO 13
001150: 04,2473           27006                           OCT      27006                                 #  MM 06  EBANK 4  PRIO 13
001151:
001152:                                                                                                  #  NOTE,     THE FOLLOWING CONSTANT IS THE NUMBER OF ENTRIES IN EACH OF
001153:                                                                                                  #  ----      THE ABOVE LISTS-1(IE, THE NUMBER OF MAJOR MODES(EXCEPT P00)
001154:                                                                                                  #            THAT CAN BE CALLED FROM THE KEYBOARD MINUS ONE)
001155:
001156: 04,2474           00035        NOV37MM            DEC      29         B-14                       #  MM'S -1
001157:
001158: 04,2475           00002        DNLADMM1           ADRES    RENDEZVU                              #  P79
001159: 04,2476           00002                           ADRES    RENDEZVU                              #  P78
001160: 04,2477           00002                           ADRES    RENDEZVU
001161: 04,2500           00002                           ADRES    RENDEZVU                              #  P75
001162: 04,2501           00002                           ADRES    RENDEZVU                              #  P74
001163: 04,2502           00002                           ADRES    RENDEZVU                              #  P73
001164: 04,2503           00002                           ADRES    RENDEZVU                              #  P72
001165: 04,2504           00004                           ADRES    DESASCNT                              #  P68
001166: 04,2505           00004                           ADRES    DESASCNT                              #  P63
001167: 04,2506           00005                           ADRES    LUNRSALN                              #  P57
001168: 04,2507           00000                           ADRES    COSTALIN                              #  P52
001169: 04,2510           00000                           ADRES    COSTALIN                              #  P51
001170: 04,2511           00003                           ADRES    ORBMANUV                              #  P47
001171: 04,2512           00003                           ADRES    ORBMANUV                              #  P42
001172: 04,2513           00003                           ADRES    ORBMANUV                              #  P41
001173: 04,2514           00003                           ADRES    ORBMANUV                              #  P40
001174: 04,2515           00002                           ADRES    RENDEZVU                              #  P39
001175: 04,2516           00002                           ADRES    RENDEZVU                              #  P38
001176: 04,2517           00002                           ADRES    RENDEZVU                              #  P35
001177: 04,2520           00002                           ADRES    RENDEZVU                              #  P34
001178: 04,2521           00002                           ADRES    RENDEZVU                              #  P33
001179: 04,2522           00002                           ADRES    RENDEZVU                              #  P32
001180: 04,2523           00002                           ADRES    RENDEZVU                              #  P31LM
001181: 04,2524           00002                           ADRES    RENDEZVU                              #  P30
001182: 04,2525           00002                           ADRES    RENDEZVU                              #  P25
001183: 04,2526           00005                           ADRES    LUNRSALN                              #  P22
001184: 04,2527           00002                           ADRES    RENDEZVU                              #  P21
001185: 04,2530           00002                           ADRES    RENDEZVU                              #  P20
001186: 04,2531           00004                           ADRES    DESASCNT                              #  P12
001187: 04,2532           00000                           ADRES    COSTALIN                              #  P06
001188: 04,2533     4755               DNLADP00           =        ZERO
001189: 04,2533                        COSTALIN           =        0
001190: 04,2533                        AGSUPDAT           =        1
001191: 04,2533                        RENDEZVU           =        2
001192:


001194: 04,2533                        ORBMANUV           =        3
001195: 04,2533                        DESASCNT           =        4
001196: 04,2533                        LUNRSALN           =        5
001197:
001198: 13,2026                                           BANK     13
001199: 13,2000                                           SETLOC   INTINIT
001200: 13,2000                                           BANK
001201:
001202: 13,2026                                           COUNT*   $$/INTIN
001203:
001204: 13,2026  E3,1554                                  EBANK=   RRECTCSM
001205:
001206:                                                                                                  #  THIS ROUTINE DOES THE POO INTEGRATION
001207:
001208: 13,2026           43014        STATEUP            SET      BOF                                   #  EXTRAPOLATE CM STATE VECTOR
001209: 13,2027           01474                                    VINTFLAG
001210: 13,2030           04347                                    SURFFLAG                              #  ALSO 6X6 W-MATRIX IF LM ON LUNAR
001211: 13,2031           26036                                    DOINT                                 #       SURFACE AND W-MATRIX VALID
001212: 13,2032           43014                           BOF      SET                                   #       FOR RENDEZVOUS NAVIGATION.
001213: 13,2033           02756                                    RENDWFLG
001214: 13,2034           26036                                    DOINT
001215: 13,2035           01476                                    DIM0FLAG
001216: 13,2036           45014        DOINT              CLEAR    CALL
001217: 13,2037           01667                                    PRECIFLG                              #  ENGAGES 4-TIME STEP LOGIC IN INTEGRATION
001218: 13,2040           27134                                    INTEGRV                               #  WHEN MODREG = 0
001219:
001220: 13,2041           71214                           BON      DLOAD
001221: 13,2042           04307                                    SURFFLAG
001222: 13,2043           26063                                    NO-INT
001223: 13,2044           01571                                    TETCSM
001224: 13,2045           34041                           STCALL   TDEC1
001225: 13,2046           27412                                    INTSTALL
001226: 13,2047           45014                           CLEAR    CALL                                  #  EXTRAPOLATE LM STATE VECTOR
001227: 13,2050           01674                                    VINTFLAG
001228: 13,2051           26644                                    SETIFLGS
001229: 13,2052           77614                           BOF                                            #  ALSO 9X9 W-MATRIX IF W IS VALID
001230: 13,2053           02756                                    RENDWFLG
001231: 13,2054           26060                                    DOINT2
001232: 13,2055           43014                           SET      SET
001233: 13,2056           01476                                    DIM0FLAG
001234: 13,2057           01475                                    D6OR9FLG
001235: 13,2060           45014        DOINT2             SET      CALL
001236: 13,2061           01467                                    PRECIFLG                              #  DISENGAGE 4 TIME STEP LOGIC IN INTEG.
001237: 13,2062           27134                                    INTEGRV
001238: 13,2063           77614        NO-INT             CLRGO
001239: 13,2064           01236                                    NODOFLAG
001240: 13,2065           26632                                    ENDINT
001241:
001242:
001243:                                                                                                  #  THISVINT IS CALLED BY MIDTOAV1 AND 2
001244:


001246: 13,2066           43414        THISVINT           CLEAR    RVQ
001247: 13,2067           01674                                    VINTFLAG

End of include-file FRESH_START_AND_RESTART.agc.  Parent file is MAIN.agc


