
Source Code


000002:                                                                                                  ## Copyright:   Public domain.
000003:                                                                                                  ## Filename:    GENERAL_LAMBERT_AIMPOINT_GUIDANCE.agc
000004:                                                                                                  ## Purpose:     The main source file for Luminary revision 069.
000005:                                                                                                  ##              It is part of the source code for the original release
000006:                                                                                                  ##              of the flight software for the Lunar Module's (LM) Apollo
000007:                                                                                                  ##              Guidance Computer (AGC) for Apollo 10. The actual flown
000008:                                                                                                  ##              version was Luminary 69 revision 2, which included a
000009:                                                                                                  ##              newer lunar gravity model and only affected module 2.
000010:                                                                                                  ##              This file is intended to be a faithful transcription, except
000011:                                                                                                  ##              that the code format has been changed to conform to the
000012:                                                                                                  ##              requirements of the yaYUL assembler rather than the
000013:                                                                                                  ##              original YUL assembler.
000014:                                                                                                  ## Reference:   pp. 661-663
000015:                                                                                                  ## Assembler:   yaYUL
000016:                                                                                                  ## Contact:     Ron Burkey <info@sandroid.org>.
000017:                                                                                                  ## Website:     www.ibiblio.org/apollo/index.html
000018:                                                                                                  ## Mod history: 2016-12-13 MAS  Created from Luminary 99.
000019:                                                                                                  ##              2016-12-14 MAS  Updated from comment-proofed Luminary 99 version.
000020:                                                                                                  ##              2016-12-17 RRB  Updated for Luminary 69.
000021:                                                                                                  ##              2017-01-28 RSB  Proofed comment text using octopus/prooferComments
000022:                                                                                                  ##                              and fixed errors found.
000023:


000025:
000026:                                                                                                  #  GENERAL LAMBERT AIMPOINT GUIDANCE **
000027:                                                                                                  #  WRITTEN BY RAMA M AIYAWAR
000028:
000029:                                                                                                  #  PROGRAM P-31 DESCRIPTION **
000030:
000031:                                                                                                  #  1.    TO ACCEPT TARGETING PARAMETERS OBTAINED FROM A SOURCE EXTERNAL
000032:                                                                                                  #        TO THE LEM AND COMPUTE THERE FROM THE REQUIRED-VELOCITY AND
000033:                                                                                                  #        OTHER INITIAL CONDITIONS REQUIRED BY LM FOR DESIRED MANEUVER.
000034:                                                                                                  #        THE TARGETING PARAMETERS ARE TIG (TIME OF IGNITION), TARGET
000035:                                                                                                  #        VECTOR (RTARG), AND THE TIME FROM TIG UNTIL THE TARGET IS
000036:                                                                                                  #        REACHED(DELLT4), DESIRED TIME OF FLIGHT FROM RINIT TO RTARG..
000037:
000038:                                                                                                  #  ASSUMPTIONS **
000039:
000040:                                                                                                  #  1.    THE TARGET PARAMETERS MAY HAVE BEEN LOADED PRIOR TO THE
000041:                                                                                                  #        EXECUTION OF THIS PROGRAM.
000042:                                                                                                  #  2.    THIS PROGRAM IS APPLICABLE IN EITHER EARTH OR LUNAR ORBIT.
000043:                                                                                                  #  3.    THIS PROGRAM IS DESIGNED FOR ONE-MAN OPERATION, AND SHOULD
000044:                                                                                                  #        BE SELECTED BY THE ASTRONAUT BY DSKY ENTRY V37 E31.
000045:
000046:                                                                                                  #  SUBROUTINES USED **
000047:                                                                                                  #
000048:                                                                                                  #  MANUPARM, TTG/N35, R02BOTH, MIDGIM, DISPMGA, FLAGDOWN, BANKCALL,
000049:                                                                                                  #  GOTOPOOH, ENDOFJOB, PHASCHNG, GOFLASHR, GOFLASH.
000050:
000051:                                                                                                  #  MANUPARM      CALCULATES APOGEE, PERIGEE ALTITUDES AND DELTAV DESIRED
000052:                                                                                                  #                FOR THE MANEUVER.
000053:
000054:                                                                                                  #  TTG/N35       CLOCKTASK - UPDATES CLOCK.
000055:
000056:                                                                                                  #  MIDGIM        CALCULATES MIDDLE GIMBAL ANGLE FOR DISPLAY.
000057:
000058:                                                                                                  #  R02BOTH       IMU - STATUS CHECK ROUTINE.
000059:
000060:                                                                                                  #  DISPLAYS USED IN P-31LM **
000061:
000062:                                                                                                  #  V06N33        DISPLAY SOTRED TIG (IN HRS. MINS. SECS)
000063:                                                                                                  #  V06N42        DISPLAY APOGEE, PERIGEE, DELTAV.
000064:                                                                                                  #  V16N35        DISPLAY TIME FROM TIG.
000065:                                                                                                  #  V06N45        TIME FROM IGNITION AND MIDDLE GIMBAL ANGLE.
000066:
000067:                                                                                                  #  ERASABLE INITIALIZATION REQUIRED **
000068:
000069:                                                                                                  #  TIG           TIME OF IGNITION                DP      (B+28) CS.
000070:
000071:                                                                                                  #  DELLT4        DESIRED TIME OF FLIGHT          DP      (B+28) CS
000072:                                                                                                  #                FROM RINIT TO RTARG.
000073:                                                                                                  #  RTARG         RADIUS VECTOR OF TARGET POSITION VECTOR
000074:                                                                                                  #                RADIUS VECTOR   SCALED TO  (B+29)METERS IF EARTH ORBIT


000076:                                                                                                  #                RADIUS VECTOR SCALED TO    (B+27)METERS IF MOON ORBIT
000077:
000078:                                                                                                  #  OUTPUT **
000079:
000080:                                                                                                  #  HAPO          APOGEE ALTITUDE
000081:                                                                                                  #  HPER          PERIGEE ALTITUDE
000082:                                                                                                  #  VGDISP        MAG.OF DELTAV FOR DISPLAY ,SCALING      B+7 M/CS EARTH
000083:                                                                                                  #                MAG.OF DELTAV FOR DISPLAY, SCALING      B+5 M/CS MOON
000084:                                                                                                  #  MIDGIM        MIDDLE GIMBAL ANGLE
000085:                                                                                                  #  XDELVFLG      RESETS XDELVFLG FOR LAMBERT VG COMPUTATIONS
000086:
000087:                                                                                                  #  ALARMS OR ABORTS      NONE **
000088:
000089:                                                                                                  #  RESTARTS ARE VIA GROUP 4 **
000090:
000091: 35,2000                                           SETLOC   GLM
000092: 35,2000                                           BANK
000093:
000094: 35,2414  E7,1466                                  EBANK=   SUBEXIT
000095:
000096: 35,2414                                           COUNT*   $$/P31
000097: 35,2414           02325        P31                TC       P20FLGON
000098: 35,2415           32025                           CAF      V06N33                                #  TIG
000099: 35,2416           03651                           TC       VNPOOH
000100: 35,2417           06036                           TC       INTPRET
000101: 35,2420           71214                           CLEAR    DLOAD
000102: 35,2421           00670                                    UPDATFLG
000103: 35,2422           03440                                    TIG
000104: 35,2423           34041                           STCALL   TDEC1                                 #  INTEGRATE STATE VECTORS TO TIG
000105: 35,2424           27057                                    LEMPREC
000106: 35,2425           40375                           VLOAD    SETPD
000107: 35,2426           00001                                    RATT
000108: 35,2427           00001                                    0D
000109: 35,2430           03640                           STORE    RTIG
000110: 35,2431           26327                           STOVL    RINIT
000111: 35,2432           00007                                    VATT
000112: 35,2433           03646                           STORE    VTIG
000113: 35,2434           16335                           STODL    VINIT
000114: 35,2435           32364                                    P30ZERO
000115: 35,2436           65206                           PUSH     PDDL                                  #  E4 AND NUMIT = 0
000116: 35,2437           03450                                    DELLT4
000117: 35,2440           66015                           DAD      SXA,1
000118: 35,2441           03440                                    TIG
000119: 35,2442           03375                                    RTX1
000120: 35,2443           03627                           STORE    TPASS4
000121: 35,2444           45134                           SXA,2    CALL
000122: 35,2445           03376                                    RTX2
000123: 35,2446           22000                                    INITVEL
000124: 35,2447           41575                           VLOAD    PUSH


000126: 35,2450           03366                                    DELVEET3
000127: 35,2451           03654                           STORE    DELVSIN
000128: 35,2452           43046                           ABVAL    CLEAR
000129: 35,2453           01267                                    XDELVFLG
000130: 35,2454           37662                           STCALL   VGDISP
000131: 35,2455           20021                                    GET.LVC
000132: 35,2456           63375                           VLOAD    PDVL
000133: 35,2457           03640                                    RTIG
000134: 35,2460           02343                                    VIPRIME
000135: 35,2461           77624                           CALL
000136: 35,2462           46277                                    PERIAPO1
000137: 35,2463           77624                           CALL
000138: 35,2464           46407                                    SHIFTR1
000139: 35,2465           77624                           CALL                                           #  LIMIT DISPLAY TO 9999.9 N. MI.
000140: 35,2466           45636                                    MAXCHK
000141: 35,2467           16325                           STODL    HPER
000142: 35,2470           00005                                    4D
000143: 35,2471           77624                           CALL
000144: 35,2472           46407                                    SHIFTR1
000145: 35,2473           77624                           CALL                                           #  LIMIT DISPLAY TO 9999.9 N. MI.
000146: 35,2474           45636                                    MAXCHK
000147: 35,2475           02323                           STORE    HAPO
000148: 35,2476           77776                           EXIT
000149: 35,2477           33666                           CAF      V06N81                                #  DELVLVC
000150: 35,2500           03651                           TC       VNPOOH
000151: 35,2501           32026                           CAF      V06N42                                #  HAPO, HPER, VGDISP
000152: 35,2502           03651                           TC       VNPOOH
000153: 35,2503           06036                           TC       INTPRET
000154: 35,2504           45014        REVN1645           SET      CALL                                  #  TRKMKCNT, TTOGO, +MGA
000155: 35,2505           01071                                    FINALFLG
000156: 35,2506           73542                                    VN1645
000157: 35,2507           77650                           GOTO
000158: 35,2510           72504                                    REVN1645

End of include-file GENERAL_LAMBERT_AIMPOINT_GUIDANCE.agc.  Parent file is MAIN.agc


