
Source Code


000002:                                                                                                  ## Copyright:   Public domain.
000003:                                                                                                  ## Filename:    GIMBAL_LOCK_AVOIDANCE.agc
000004:                                                                                                  ## Purpose:     The main source file for Luminary revision 069.
000005:                                                                                                  ##              It is part of the source code for the original release
000006:                                                                                                  ##              of the flight software for the Lunar Module's (LM) Apollo
000007:                                                                                                  ##              Guidance Computer (AGC) for Apollo 10. The actual flown
000008:                                                                                                  ##              version was Luminary 69 revision 2, which included a
000009:                                                                                                  ##              newer lunar gravity model and only affected module 2.
000010:                                                                                                  ##              This file is intended to be a faithful transcription, except
000011:                                                                                                  ##              that the code format has been changed to conform to the
000012:                                                                                                  ##              requirements of the yaYUL assembler rather than the
000013:                                                                                                  ##              original YUL assembler.
000014:                                                                                                  ## Reference:   p.  377
000015:                                                                                                  ## Assembler:   yaYUL
000016:                                                                                                  ## Contact:     Ron Burkey <info@sandroid.org>.
000017:                                                                                                  ## Website:     www.ibiblio.org/apollo/index.html
000018:                                                                                                  ## Mod history: 2016-12-13 MAS  Created from Luminary 99.
000019:                                                                                                  ##              2016-12-14 MAS  Updated from comment-proofed Luminary 99 version.
000020:                                                                                                  ##              2017-01-13 RRB  Updated for Luminary 69.
000021:                                                                                                  ##              2017-01-27 RSB  Proofed comment text using octopus/prooferComments
000022:                                                                                                  ##                              and fixed errors found.
000023:                                                                                                  ##              2017-08-22 RSB  Fixed comment-text typo identified in ZERLINA 56.
000024:


000026: 15,2050                                           BANK     15
000027:
000028: 22,2000                                           SETLOC   KALCMON1
000029: 22,2000                                           BANK
000030:
000031:                                                                                                  #  DETECTING GIMBAL LOCK
000032: 22,2744  22,2744               LOCSKIRT           EQUALS   NOGIMLOC
000033:
000034: 22,2744           77614        NOGIMLOC           SET
000035: 22,2745           01074                                    CALCMAN3
000036: 22,2746           70740        WCALC              LXC,1    DLOAD*
000037: 22,2747           01325                                    RATEINDX                              #  CHOOSE THE DESIRED MANEUVER RATE
000038: 22,2750           04772                                    ARATE,1                               #  FROM A LIST OF FOUR
000039: 22,2751           45002                           SR4      CALL                                  #  COMPUTE THE INCREMENTAL ROTATION MATRIX
000040: 22,2752           44527                                    DELCOMP                               #  DEL CORRESPONDING TO A 1 SEC ROTATION
000041:                                                                                                  #  ABOUT COF
000042: 22,2753           74343                           DLOAD*   VXSC
000043: 22,2754           04772                                    ARATE,1
000044: 22,2755           03267                                    COF
000045: 22,2756           17324                           STODL    BRATE                                 #  COMPONENT MANEUVER RATES 45 DEG/SEC
000046: 22,2757           03334                                    AM
000047: 22,2760           55605                           DMP      DDV*
000048: 22,2761           05002                                    ANGLTIME
000049: 22,2762           04772                                    ARATE,1
000050: 22,2763           77661                           SR
000051: 22,2764           20606                                    5
000052: 22,2765           03332                           STORE    TM                                    #  MANEUVER EXECUTION TIME SCALED AS T2
000053: 22,2766           77614                           SETGO
000054: 22,2767           01035                                    CALCMAN2                              #  0(OFF) = CONTINUE MANEUVER
000055: 22,2770           45010                                    NEWANGL    +1                         #  1(ON) = START MANEUVER
000056:
000057:                                                                                                  #  THE FOUR SELECTABLE FREE FALL MANEUVER RATES SELECTED BY
000058:                                                                                                  #  LOADING RATEINDX WITH 0, 2, 4, 6, RESPECTIVELY
000059:
000060: 22,2771           00221 24255  ARATE              2DEC     .0088888888                            #  = 0.2 DEG/SEC         $ 22.5 DEG/SEC
000061:
000062: 22,2773           00554 02660                     2DEC     .0222222222                            #  = 0.5 DEG/SEC         $ 22.5 DEG/SEC
000063:
000064: 22,2775           02660 13301                     2DEC     .0888888888                            #  = 2.0 DEG/SEC         $ 22.5 DEG/SEC
000065:
000066: 22,2777           16161 30707                     2DEC     .4444444444                            #  = 10.0 DEG/SEC        $ 22.5 DEG/SEC
000067:
000068: 22,3001           00003 04000  ANGLTIME           2DEC     .0001907349                            #  = 100B-19 FUDGE FACTOR TO CONVERT
000069:                                                                                                  #  MANEUVER ANGLE TO MANEUVER TIME
000070:
000071:

End of include-file GIMBAL_LOCK_AVOIDANCE.agc.  Parent file is MAIN.agc


