
Source Code


000002:                                                                                                  ## Copyright:   Public domain.
000003:                                                                                                  ## Filename:    GROUND_TRACKING_DETERMINATION_PROGRAM_-_P21.agc
000004:                                                                                                  ## Purpose:     The main source file for Luminary revision 069.
000005:                                                                                                  ##              It is part of the source code for the original release
000006:                                                                                                  ##              of the flight software for the Lunar Module's (LM) Apollo
000007:                                                                                                  ##              Guidance Computer (AGC) for Apollo 10. The actual flown
000008:                                                                                                  ##              version was Luminary 69 revision 2, which included a
000009:                                                                                                  ##              newer lunar gravity model and only affected module 2.
000010:                                                                                                  ##              This file is intended to be a faithful transcription, except
000011:                                                                                                  ##              that the code format has been changed to conform to the
000012:                                                                                                  ##              requirements of the yaYUL assembler rather than the
000013:                                                                                                  ##              original YUL assembler.
000014:                                                                                                  ## Reference:   pp. 664-666
000015:                                                                                                  ## Assembler:   yaYUL
000016:                                                                                                  ## Contact:     Ron Burkey <info@sandroid.org>.
000017:                                                                                                  ## Website:     www.ibiblio.org/apollo/index.html
000018:                                                                                                  ## Mod history: 2016-12-13 MAS  Created from Luminary 99.
000019:                                                                                                  ##              2016-12-14 MAS  Updated from comment-proofed Luminary 99 version.
000020:                                                                                                  ##              2016-12-15 RRB  Updated for Luminary 69.
000021:                                                                                                  ##              2017-01-28 RSB  Proofed comment text using octopus/prooferComments
000022:                                                                                                  ##                              but no errors found.
000023:                                                                                                  ##              2017-03-15 RSB  Comment-text fixes identified in 5-way
000024:                                                                                                  ##                              side-by-side diff of Luminary 69/99/116/131/210.
000025:


000027:                                                                                                  #  GROUND TRACKING DETERMINATION PROGRAM P21
000028:                                                                                                  #  PROGRAM DESCRIPTION
000029:                                                                                                  #  MOD NO - 1
000030:                                                                                                  #  MOD BY - N. M. NEVILLE
000031:
000032:                                                                                                  #  FUNCTIONAL DECRIPTION -
000033:
000034:                                                                                                  #  TO PROVIDE THE ASTRONAUT DETAILS OF THE LM OR CSM GROUND TRACK WITHOUT
000035:                                                                                                  #  THE NEED FOR GROUND COMMUNICATION (REQUESTED BY DSKY).
000036:                                                                                                  #  CALLING SEQUENCE -
000037:
000038:                                                                                                  #        ASTRONAUT REQUEST THROUGH DSKY V37E21E
000039:                                                                                                  #  SUBROUTINES CALLED -
000040:
000041:                                                                                                  #  GOPERF4
000042:                                                                                                  #  GOFLASH
000043:                                                                                                  #  THISPREC
000044:                                                                                                  #  OTHPREC
000045:                                                                                                  #  LAT-LONG
000046:
000047:                                                                                                  #  NORMAL EXIT MODES -
000048:
000049:                                                                                                  #  ASTRONAUT REQUEST TROUGH DSKY TO TERMINATE PROGRAM V34E
000050:                                                                                                  #  ALARM OR ABORT EXIT MODES -
000051:
000052:                                                                                                  #  NONE
000053:                                                                                                  #  OUTPUT -
000054:
000055:                                                                                                  #  OCTAL DISPLAY OF OPTION CODE AND VEHICLE WHOSE GROUND TRACK IS TO BE
000056:                                                                                                  #  COMPUTED
000057:                                                                                                  #        OPTION CODE     00002
000058:                                                                                                  #        THIS            00001
000059:                                                                                                  #        OTHER           00002
000060:                                                                                                  #  DECIMAL DISPLAY OF TIME TO BE INTEGRATED TO HOURS , MINUTES , SECONDS
000061:                                                                                                  #  DECIMAL DISPLAY OF LAT,LONG,ALT
000062:
000063:                                                                                                  #  ERASABLE INITIALIZATION REQUIRED
000064:
000065:                                                                                                  #  AX0           2DEC    4.652459653 E-5 RADIANS         %68-69 CONSTANTS"
000066:
000067:                                                                                                  #  -AY0          2DEC    2.147535898 E-5 RADIANS
000068:
000069:                                                                                                  #  AZ0           2DEC    .7753206164     REVOLUTIONS
000070:                                                                                                  #  FOR LUNAR ORBITS 504LM VECTOR IS NEEDED
000071:
000072:                                                                                                  #  504LM         2DEC    -2.700340600 E-5 RADIANS
000073:
000074:                                                                                                  #  504LM _2      2DEC    -7.514128400 E-4 RADIANS
000075:
000076:                                                                                                  #  504LM _4      2DEC    _2.553198641 E-4 RADIANS
000077:
000078:                                                                                                  #  NONE
000079:                                                                                                  #  DEBRIS


000081:
000082:                                                                                                  #  CENTRALS-A,Q,L
000083:                                                                                                  #  OTHER - THOSE USED BY THE ABOVE LISTED SUBROUTINES
000084:                                                                                                  #  SEE LEMPREC, LAT-LONG
000085:
000086: 35,2511  30,2000                                  SBANK=   LOWSUPER                              #  FOR LOW 2CADR'S.
000087:
000088: 33,2200                                           BANK     33
000089: 24,2000                                           SETLOC   P20S
000090: 24,2000                                           BANK
000091:
000092: 24,3402  E7,1756                                  EBANK=   P21TIME
000093: 24,3402                                           COUNT*   $$/P21
000094: 24,3402           34753        PROG21             CAF      ONE
000095: 24,3403           55145                           TS       OPTION2                               #  ASSUMED VEHICLE IS LM, R2 = 00001
000096: 24,3404           34752                           CAF      BIT2                                  #  OPTION 2
000097: 24,3405           04616                           TC       BANKCALL
000098: 24,3406           20506                           CADR     GOPERF4
000099: 24,3407           06001                           TC       GOTOPOOH                              #  TERMINATE
000100: 24,3410           03412                           TC       +2                                    #  PROCEED VALUE OF ASSUMED VEHICLE OK
000101: 24,3411           03404                           TC       -5                                    #  R2 LOADED THROUGH DSKY
000102: 24,3412           33503        P21PROG1           CAF      V6N34                                 #  LOAD DESIRED TIME OF LAT-LONG.
000103: 24,3413           04616                           TC       BANKCALL
000104: 24,3414           20351                           CADR     GOFLASH
000105: 24,3415           06001                           TC       GOTOPOOH                              #  TERM
000106: 24,3416           03420                           TC       +2                                    #  PROCEED VALUES OK
000107: 24,3417           03412                           TC       -5                                    #  TIME LOADED THROUGH DSKY
000108: 24,3420           06036                           TC       INTPRET
000109: 24,3421           77745                           DLOAD
000110: 24,3422           01046                                    DSPTEM1
000111: 24,3423           03757                           STORE    P21TIME
000112: 24,3424           45335                           SLOAD    DSU
000113: 24,3425           01146                                    OPTION2
000114: 24,3426           11501                                    P21ONENN
000115: 24,3427           71230                           BHIZ     DLOAD
000116: 24,3430           51443                                    P21PROG2                              #  VEHICLE TO BE INTEGRATED IS LEM
000117: 24,3431           03757                                    P21TIME                               #  VEHICLE TO BE INTEGRATED IS CSM
000118: 24,3432           34041                           STCALL   TDEC1                                 #  INTEGRATE TO TIME SPECIFIED IN TDEC
000119: 24,3433           27043                                    OTHPREC                               #  ADJUST UNITS FOR LAT-LONG ROUTINE
000120: 24,3434           46135        P21PROGA           SLOAD    BHIZ
000121: 24,3435           00050                                    X2
000122: 24,3436           51451                                    P21PROG3
000123: 24,3437           43175                           VLOAD    SETGO
000124: 24,3440           00001                                    RATT
000125: 24,3441           01423                                    LUNAFLAG
000126: 24,3442           51454                                    P21PROG4
000127: 24,3443           77745        P21PROG2           DLOAD
000128: 24,3444           03757                                    P21TIME
000129: 24,3445           34041                           STCALL   TDEC1
000130: 24,3446           27057                                    THISPREC
000131: 24,3447           77650                           GOTO


000133: 24,3450           51434                                    P21PROGA
000134: 24,3451           43175        P21PROG3           VLOAD    CLEAR
000135: 24,3452           00001                                    RATT
000136: 24,3453           01663                                    LUNAFLAG
000137: 24,3454           16032        P21PROG4           STODL    ALPHAV
000138: 24,3455           00015                                    TAT
000139: 24,3456           45014                           CLEAR    CALL
000140: 24,3457           00662                                    ERADFLAG
000141: 24,3460           26351                                    LAT-LONG
000142: 24,3461           77776                           EXIT
000143: 24,3462           33502                           CAF      V06N43                                #  DISPLAY LAT,LONG,ALT
000144: 24,3463           04616                           TC       BANKCALL                              #  LAT,LONG = 1/2 REVS B0
000145: 24,3464           20351                           CADR     GOFLASH                               #  ALT = KM B14
000146: 24,3465           06001                           TC       GOTOPOOH                              #  TERM
000147: 24,3466           06001                           TC       GOTOPOOH
000148: 24,3467           06036                           TC       INTPRET                               #  V32E RECYCLE
000149: 24,3470           43345                           DLOAD    DAD
000150: 24,3471           03757                                    P21TIME
000151: 24,3472           11477                                    600SEC                                #  600 SECONDS OR 10 MIN
000152: 24,3473           01046                           STORE    DSPTEM1
000153: 24,3474           77634                           RTB
000154: 24,3475           51412                                    P21PROG1
000155: 24,3476           00003 25140  600SEC             2DEC     60000      B-28                       #  10 MIN
000156:
000157: 24,3500           00001        P21ONENN           OCT      00001                                 #  NEEDED TO DETERMINE VEHICLE
000158: 24,3501           00000                           OCT      00000                                 #  TO BE INTEGRATED
000159: 24,3502           01453        V06N43             VN       00643
000160: 24,3503           01442        V6N34              VN       00634
000161:
000162:

End of include-file GROUND_TRACKING_DETERMINATION_PROGRAM_-_P21.agc.  Parent file is MAIN.agc


