
Source Code


000002:                                                                                                  ## Copyright:   Public domain.
000003:                                                                                                  ## Filename:    IMU_PERFORMANCE_TESTS_4.agc
000004:                                                                                                  ## Purpose:     The main source file for Luminary revision 069.
000005:                                                                                                  ##              It is part of the source code for the original release
000006:                                                                                                  ##              of the flight software for the Lunar Module's (LM) Apollo
000007:                                                                                                  ##              Guidance Computer (AGC) for Apollo 10. The actual flown
000008:                                                                                                  ##              version was Luminary 69 revision 2, which included a
000009:                                                                                                  ##              newer lunar gravity model and only affected module 2.
000010:                                                                                                  ##              This file is intended to be a faithful transcription, except
000011:                                                                                                  ##              that the code format has been changed to conform to the
000012:                                                                                                  ##              requirements of the yaYUL assembler rather than the
000013:                                                                                                  ##              original YUL assembler.
000014:                                                                                                  ## Reference:   pp. 395-402
000015:                                                                                                  ## Assembler:   yaYUL
000016:                                                                                                  ## Contact:     Ron Burkey <info@sandroid.org>.
000017:                                                                                                  ## Website:     www.ibiblio.org/apollo/index.html
000018:                                                                                                  ## Mod history: 2016-12-13 MAS  Created from Luminary 99.
000019:                                                                                                  ##              2016-12-14 MAS  Updated from comment-proofed Luminary 99 version.
000020:                                                                                                  ##              2017-01-11 RRB  Updated for Luminary 69.
000021:                                                                                                  ##              2017-01-27 RSB  Proofed comment text using octopus/prooferComments
000022:                                                                                                  ##                              and fixed errors found.
000023:                                                                                                  ##              2017-03-07 RSB  Comment-text error-fixes noted in proofing Luminary 116.
000024:


000026:                                                                                                  #  PROGRAM-IMU PERFORMANCE TESTS 4
000027:                                                                                                  #  DATE-NOV 15, 1966
000028:                                                                                                  #  BY-GEORGE SCHMIDT IL7-146 EXT 1126
000029:                                                                                                  #  MOD NO-ZERO
000030:
000031:                                                                                                  #  FUNCTIONAL DESCRIPTION
000032:
000033:                                                                                                  #  THIS SECTION CONSISTS OF THE FILTER FOR THE GYRO DRIFT TESTS. NO COMPASS
000034:                                                                                                  #  IS DONE IN LEM. FOR A DESCRIPTION OF THE FILTER SEE E-1973. THIS
000035:                                                                                                  #  SECTION IS ENTERED FROM IMU 2. IT RETURNS THERE AT END OF TEST.
000036:
000037:                                                                                                  #  EARTHR,OGC ZERO,ERTHRVSE
000038:
000039:                                                                                                  #  NORMAL EXIT
000040:
000041:                                                                                                  #  LENGTHOT GOES TO ZERO-RETURN TO IMU PERF TESTS 2 CONTROL
000042:
000043:                                                                                                  #  ALARMS
000044:
000045:                                                                                                  #  1600  OVERFLOW IN DRIFT TEST
000046:                                                                                                  #  1601  BAD IMU MODING IN ANY ROUTINE THAT USES IMUSTALL
000047:                                                                                                  #  OUTPUT
000048:
000049:                                                                                                  #  FLASHING DISPLAY OF RESULTS - CONTROLLED IN IMU PERF TESTS 2
000050:
000051:                                                                                                  #  DEBRIS
000052:
000053:                                                                                                  #  ALL CENTRALS - ALL OF EBANK XSM
000054:


000056: 33,2045                                           BANK     33
000057: 37,2000                                           SETLOC   IMU4
000058: 37,2000                                           BANK
000059: 37,2500                                           COUNT*   $$/P07
000060:
000061: 37,2500  E5,1642                                  EBANK=   XSM
000062:
000063: 37,2500           00004        ESTIMS             INHINT
000064: 37,2501           31572                           CAE      1SECXT
000065: 37,2502           05173                           TC       TWIDDLE
000066: 37,2503  E5,1642                                  EBANK=   XSM
000067: 37,2503           02536                           ADRES    ALLOOP
000068: 37,2504           34755                           CAF      ZERO                                  #  ZERO THE PIPAS
000069: 37,2505           54037                           TS       PIPAX
000070: 37,2506           54040                           TS       PIPAY
000071: 37,2507           54041                           TS       PIPAZ
000072: 37,2510           00003                           RELINT
000073: 37,2511           33075                           CA       77DECML
000074: 37,2512           55571                           TS       ZERONDX
000075: 37,2513           33076                           CA       ALXXXZ
000076: 37,2514           02367                           TC       ZEROING
000077: 37,2515           06036                           TC       INTPRET
000078: 37,2516           77735                           SLOAD
000079: 37,2517           37057                                    SCHZEROS
000080: 37,2520           25477                           STOVL    GCOMPSW    -1
000081: 37,2521           37070                                    INTVAL     +2
000082: 37,2522           26445                           STOVL    ALX1S
000083: 37,2523           37057                                    SCHZEROS
000084: 37,2524           00325                           STORE    DELVX
000085: 37,2525           01472                           STORE    GCOMP
000086: 37,2526           77735                           SLOAD
000087: 37,2527           02441                                    TORQNDX
000088: 37,2530           50076                           DCOMP    BMN
000089: 37,2531           76534                                    VERTSKIP
000090: 37,2532           77624                           CALL
000091: 37,2533           76401                                    ERTHRVSE
000092: 37,2534           77776        VERTSKIP           EXIT
000093: 37,2535           03035                           TC       SLEEPIE    +1
000094:


000096: 37,2536           31576        ALLOOP             CA       OVFLOWCK
000097: 37,2537           00006                           EXTEND
000098: 37,2540           12542                           BZF      +2
000099: 37,2541           05261                           TC       TASKOVER
000100: 37,2542           11530                           CCS      ALTIM
000101: 37,2543           30000                           CA       A                                     #  SHOULD NEVER HIT THIS LOCATION
000102: 37,2544           55531                           TS       ALTIMS
000103: 37,2545           40000                           CS       A
000104: 37,2546           55530                           TS       ALTIM
000105: 37,2547           44753                           CS       ONE
000106: 37,2550           61562                           AD       GEOCOMPS
000107: 37,2551           00006                           EXTEND
000108: 37,2552           12556                           BZF      +4
000109: 37,2553           31412                           CA       LENGTHOT
000110: 37,2554           00006                           EXTEND
000111: 37,2555           62562                           BZMF     +5
000112: 37,2556           31572                           CAE      1SECXT
000113: 37,2557           05173                           TC       TWIDDLE
000114: 37,2560  E5,1642                                  EBANK=   XSM
000115: 37,2560           02536                           ADRES    ALLOOP
000116: 37,2561           34755                           CAF      ZERO
000117: 37,2562           56037                           XCH      PIPAX
000118: 37,2563           54324                           TS       DELVX
000119: 37,2564           34755                           CAF      ZERO
000120: 37,2565           56040                           XCH      PIPAY
000121: 37,2566           54326                           TS       DELVY
000122: 37,2567           34755                           CAF      ZERO
000123: 37,2570           56041                           XCH      PIPAZ
000124: 37,2571           54330                           TS       DELVZ
000125: 37,2572           34736        SPECSTS            CAF      PRIO20
000126: 37,2573           05105                           TC       FINDVAC
000127: 37,2574  E5,1642                                  EBANK=   XSM
000128: 37,2574           02577 76065                     2CADR    ALFLT                                 #  START THE JOB
000129:
000130: 37,2576           05261                           TC       TASKOVER
000131:


000133: 37,2577           11562        ALFLT              CCS      GEOCOMPS
000134: 37,2600           02602                           TC       +2
000135: 37,2601           02604                           TC       NORMLOP
000136: 37,2602           04616                           TC       BANKCALL
000137: 37,2603           15263                           CADR     1/PIPA
000138: 37,2604           06036        NORMLOP            TC       INTPRET
000139: 37,2605           77745                           DLOAD
000140: 37,2606           37066                                    INTVAL
000141: 37,2607           24051                           STOVL    S1
000142: 37,2610           00325                                    DELVX
000143: 37,2611           76505                           VXM      VSL1
000144: 37,2612           02643                                    XSM
000145: 37,2613           57545                           DLOAD    DCOMP
000146: 37,2614           00160                                    MPAC       +3
000147: 37,2615           16523                           STODL    DPIPAY
000148: 37,2616           00162                                    MPAC       +5
000149: 37,2617           02527                           STORE    DPIPAZ
000150:
000151: 37,2620           76001                           SETPD    AXT,1
000152: 37,2621           00001                                    0
000153: 37,2622           00010                                    8D
000154: 37,2623           57535                           SLOAD    DCOMP
000155: 37,2624           02563                                    GEOCOMPS
000156: 37,2625           77640                           BMN
000157: 37,2626           76772                                    PERFERAS
000158: 37,2627           50135        ALCGKK             SLOAD    BMN
000159: 37,2630           02532                                    ALTIMS
000160: 37,2631           76644                                    ALFLT3
000161: 37,2632           72174        ALKCG              AXT,2    LXA,1                                 #  LOADS SLOPES AND TIME CONSTANTS AT RQST
000162: 37,2633           00014                                    12D
000163: 37,2634           02444                                    ALX1S
000164: 37,2635           62143        ALKCG2             DLOAD*   INCR,1
000165: 37,2636           02243                                    ALFDK      +144D,1
000166: 37,2637           77775                           DEC      -2         B-14
000167: 37,2640           12545                           STORE    ALDK       +10D,2
000168: 37,2641           66104                           TIX,2    SXA,1
000169: 37,2642           76635                                    ALKCG2
000170: 37,2643           02444                                    ALX1S
000171:
000172: 37,2644           77770        ALFLT3             AXT,1
000173: 37,2645           00010                                    8D
000174: 37,2646           41343        DELMLP             DLOAD*   DMP
000175: 37,2647           02533                                    DPIPAY     +8D,1
000176: 37,2650           37100                                    PIPASC
000177: 37,2651           43661                           SLR      BDSU*
000178: 37,2652           21212                                    9D
000179: 37,2653           02501                                    INTY       +8D,1
000180: 37,2654           06501                           STORE    INTY       +8D,1
000181: 37,2655           40725                           PDDL     DMP*
000182: 37,2656           37102                                    VELSC


000184: 37,2657           02521                                    VLAUN      +8D,1
000185: 37,2660           77732                           SL2R
000186: 37,2661           45425                           DSU      STADR
000187: 37,2662           71216                           STORE    DELM       +8D,1
000188: 37,2663           06563                           STORE    DELM       +10D,1
000189: 37,2664           77100                           TIX,1    AXT,2
000190: 37,2665           76646                                    DELMLP
000191: 37,2666           00004                                    4
000192: 37,2667           56743        ALILP              DLOAD*   DMPR*
000193: 37,2670           75324                                    ALK        +4,2
000194: 37,2671           75240                                    ALDK       +4,2
000195: 37,2672           12453                           STORE    ALK        +4,2
000196: 37,2673           77104                           TIX,2    AXT,2
000197: 37,2674           76667                                    ALILP
000198: 37,2675           00010                                    8D
000199: 37,2676           66140        ALKLP              LXC,1    SXA,1
000200: 37,2677           02445                                    CMPX1
000201: 37,2700           02445                                    CMPX1
000202: 37,2701           56743                           DLOAD*   DMPR*
000203: 37,2702           02450                                    ALK        +1,1
000204: 37,2703           75216                                    DELM       +8D,2
000205: 37,2704           77613                           DAD*
000206: 37,2705           75276                                    INTY       +8D,2
000207: 37,2706           12501                           STORE    INTY       +8D,2
000208: 37,2707           42743                           DLOAD*   DAD*
000209: 37,2710           75314                                    ALK        +12D,2
000210: 37,2711           75230                                    ALDK       +12D,2
000211: 37,2712           12463                           STORE    ALK        +12D,2
000212: 37,2713           42673                           DMPR*    DAD*
000213: 37,2714           75216                                    DELM       +8D,2
000214: 37,2715           75266                                    INTY       +16D,2
000215: 37,2716           12511                           STORE    INTY       +16D,2
000216: 37,2717           40743                           DLOAD*   DMP*
000217: 37,2720           37105                                    ALSK       +1,1
000218: 37,2721           75216                                    DELM       +8D,2
000219: 37,2722           42772                           SL1R     DAD*
000220: 37,2723           75256                                    VLAUN      +8D,2
000221: 37,2724           12521                           STORE    VLAUN      +8D,2
000222: 37,2725           76104                           TIX,2    AXT,1
000223: 37,2726           76676                                    ALKLP
000224: 37,2727           00010                                    8D
000225:
000226: 37,2730           64743        LOOSE              DLOAD*   PDDL*
000227: 37,2731           02523                                    ACCWD      +8D,1
000228: 37,2732           02521                                    VLAUN      +8D,1
000229: 37,2733           55523                           PDDL*    VDEF
000230: 37,2734           02531                                    POSNV      +8D,1
000231: 37,2735           76521                           MXV      VSL1
000232: 37,2736           02001                                    TRANSM1


000234: 37,2737           77745                           DLOAD
000235: 37,2740           00155                                    MPAC
000236: 37,2741           06531                           STORE    POSNV      +8D,1
000237: 37,2742           77745                           DLOAD
000238: 37,2743           00160                                    MPAC       +3
000239: 37,2744           06521                           STORE    VLAUN      +8D,1
000240: 37,2745           77745                           DLOAD
000241: 37,2746           00162                                    MPAC       +5
000242: 37,2747           06523                           STORE    ACCWD      +8D,1
000243: 37,2750           77700                           TIX,1
000244: 37,2751           76730                                    LOOSE
000245:
000246: 37,2752           76174                           AXT,2    AXT,1                                 #  EVALUATE SINES AND COSINES
000247: 37,2753           00006                                    6
000248: 37,2754           00002                                    2
000249: 37,2755           57343        BOOP               DLOAD*   DMPR
000250: 37,2756           02503                                    ANGX       +2,1
000251: 37,2757           37110                                    GEORGEJ
000252: 37,2760           77722                           SR2R
000253: 37,2761           73406                           PUSH     SIN
000254: 37,2762           56072                           SL3R     XAD,1
000255: 37,2763           00046                                    X1
000256: 37,2764           10021                           STORE    16D,2
000257: 37,2765           77745                           DLOAD
000258: 37,2766           77746                           COS
000259: 37,2767           10027                           STORE    22D,2                                 #  COSINES
000260: 37,2770           77704                           TIX,2
000261: 37,2771           76755                                    BOOP
000262:
000263: 37,2772           77776        PERFERAS           EXIT
000264: 37,2773           35016                           CA       EBANK7
000265: 37,2774           54003                           TS       EBANK
000266: 37,2775  E7,1400                                  EBANK=   ATIGINC
000267: 37,2775           01400                           TC       ATIGINC                               #  GOTO ERASABLE TO CALCULATE ONLY TO RETN
000268:
000269:                                                                                                  #                             CAUTION
000270:
000271:                                                                                                  #  THE ERASABLE PROGRAM THAT DOES THE CALCULATIONS MUST BE LOADED
000272:                                                                                                  #  BEFORE ANY ATTEMPT IS MADE TO RUN THE IMU PERFORMANCE TEST
000273:
000274: 37,2776  E5,1400                                  EBANK=   AZIMUTH
000275: 37,2776           11412                           CCS      LENGTHOT
000276: 37,2777           03034                           TC       SLEEPIE
000277: 37,3000           11440                           CCS      TORQNDX
000278: 37,3001           13003                           TCF      +2
000279: 37,3002           03005                           TC       SETUPER1
000280: 37,3003           30032                           CA       CDUX
000281: 37,3004           55414                           TS       LOSVEC     +1                         #  FOR TROUBLESHOOTING VD POSNS 2$4
000282:


000284: 37,3005           06036        SETUPER1           TC       INTPRET
000285: 37,3006           65345                           DLOAD    PDDL                                  #  ANGLES FROM DRIFT TEST ONLY
000286: 37,3007           02473                                    ANGZ
000287: 37,3010           02477                                    ANGY
000288: 37,3011           55525                           PDDL     VDEF
000289: 37,3012           02501                                    ANGX
000290: 37,3013           74276                           VCOMP    VXSC
000291: 37,3014           37110                                    GEORGEJ
000292: 37,3015           74521                           MXV      VSR1
000293: 37,3016           02643                                    XSM
000294: 37,3017           02740                           STORE    OGC
000295: 37,3020           77776                           EXIT
000296:
000297: 37,3021           32475                           CA       OGCPL
000298: 37,3022           04616                           TC       BANKCALL
000299: 37,3023           17276                           CADR     IMUPULSE
000300: 37,3024           02315                           TC       IMUSLLLG
000301: 37,3025           11440        GEOSTRT4           CCS      TORQNDX                               #  ONLY POSITIVE IF IN VERTICAL DRIFT TEST
000302: 37,3026           02263                           TC       VALMIS
000303: 37,3027           06036                           TC       INTPRET
000304: 37,3030           77624                           CALL
000305: 37,3031           76401                                    ERTHRVSE
000306: 37,3032           77776                           EXIT
000307: 37,3033           02117                           TC       TORQUE
000308:
000309: 37,3034           55412        SLEEPIE            TS       LENGTHOT                              #  TEST NOT OVER-DECREMENT LENGTHOT
000310: 37,3035           11440                           CCS      TORQNDX                               #  ARE WE DOING VERTDRIFT
000311: 37,3036           02447                           TC       EARTHR*
000312: 37,3037           05155                           TC       ENDOFJOB
000313:
000314: 37,3040           35014        SOMEERRR           CA       EBANK5
000315: 37,3041           54003                           TS       EBANK
000316: 37,3042           34753                           CA       ONE
000317: 37,3043           55576                           TS       OVFLOWCK                              #  STOP ALLOOP FROM CALLING ITSELF
000318: 37,3044           05567                           TC       ALARM
000319: 37,3045           01600                           OCT      1600
000320: 37,3046           02270                           TC       ENDTEST1
000321: 37,3047           33054        SOMERR2            CAF      OCT1601
000322: 37,3050           05735                           TC       VARALARM
000323: 37,3051           05516                           TC       DOWNFLAG
000324: 37,3052           00007                           ADRES    IMUSE
000325: 37,3053           05155                           TC       ENDOFJOB
000326:
000327: 37,3054           01601        OCT1601            OCT      01601
000328: 37,3055           06200        DEC585             OCT      06200                                 #  3200 B+14  ORDER IS IMPORTANT
000329: 37,3056           00000 00000  SCHZEROS           2DEC     .00000000


000331: 37,3060           00000 00000                     2DEC     .00000000
000332:
000333: 37,3062           00000                           OCT      00000
000334: 37,3063           00000        ONEDPP             OCT      00000                                 #  ORDER IS IMPORTANT
000335: 37,3064           00001                           OCT      00001
000336:
000337: 37,3065           00004        INTVAL             OCT      4
000338: 37,3066           00002                           OCT      2
000339: 37,3067           00220                           DEC      144        B-14
000340: 37,3070           77776                           DEC      -1         B-14
000341: 37,3071           35730 00035  SOUPLY             2DEC     .93505870                             #  INITIAL GAINS FOR PIP OUTPUTS
000342:
000343: 37,3073           10317 17550                     2DEC     .26266423                             #  INITIAL GAINS/4 FOR ERECTION ANGLES
000344:
000345: 37,3075           00115        77DECML            DEC      77         B-14
000346: 37,3076           01443        ALXXXZ             GENADR   ALX1S      -1
000347: 37,3077           04133 02265  PIPASC             2DEC     .13055869
000348:
000349: 37,3101           57223 66451  VELSC              2DEC     -.52223476                            #  512/980.402
000350:
000351: 37,3103           05427 12577  ALSK               2DEC     .17329931                             #  SSWAY VEL GAIN X 980.402/4096
000352:
000353: 37,3105           77567 44202                     2DEC     -.00835370                            #  SSWAY ACCEL GAIN X 980.402/4096
000354:
000355: 37,3107           24276 14066  GEORGEJ            2DEC     .63661977
000356:
000357: 37,3111           23073 11773  GEORGEK            2DEC     .59737013
000358:

End of include-file IMU_PERFORMANCE_TESTS_4.agc.  Parent file is MAIN.agc


