
Source Code


000002:                                                                                                  ## Copyright:   Public domain.
000003:                                                                                                  ## Filename:    IMU_COMPENSATION_PACKAGE.agc
000004:                                                                                                  ## Purpose:     The main source file for Luminary revision 069.
000005:                                                                                                  ##              It is part of the source code for the original release
000006:                                                                                                  ##              of the flight software for the Lunar Module's (LM) Apollo
000007:                                                                                                  ##              Guidance Computer (AGC) for Apollo 10. The actual flown
000008:                                                                                                  ##              version was Luminary 69 revision 2, which included a
000009:                                                                                                  ##              newer lunar gravity model and only affected module 2.
000010:                                                                                                  ##              This file is intended to be a faithful transcription, except
000011:                                                                                                  ##              that the code format has been changed to conform to the
000012:                                                                                                  ##              requirements of the yaYUL assembler rather than the
000013:                                                                                                  ##              original YUL assembler.
000014:                                                                                                  ## Reference:   pp. 339-350
000015:                                                                                                  ## Assembler:   yaYUL
000016:                                                                                                  ## Contact:     Ron Burkey <info@sandroid.org>.
000017:                                                                                                  ## Website:     www.ibiblio.org/apollo/index.html
000018:                                                                                                  ## Mod history: 2016-12-13 MAS  Created from Luminary 99.
000019:                                                                                                  ##              2016-12-14 MAS  Updated from comment-proofed Luminary 99 version.
000020:                                                                                                  ##              2017-01-19 RRB  Updated for Luminary 69.
000021:                                                                                                  ##              2017-01-25 RSB  Proofed comment text using octopus/prooferComments
000022:                                                                                                  ##                              and fixed errors found.
000023:


000025: 07,2667                                           BANK     7
000026: 06,2000                                           SETLOC   IMUCOMP
000027: 06,2000                                           BANK
000028:
000029: 06,3263  E3,1460                                  EBANK=   NBDX
000030:
000031: 06,3263                                           COUNT*   $$/ICOMP
000032: 06,3263           33531        1/PIPA             CAF      LGCOMP                                #  SAVE EBANK OF CALLING PROGRAM
000033: 06,3264           56003                           XCH      EBANK
000034: 06,3265           54163                           TS       MODE
000035:
000036: 06,3266           11477                           CCS      GCOMPSW                               #  BYPASS IF GCOMPSW NEGATIVE
000037: 06,3267           13272                           TCF      +3
000038: 06,3270           13272                           TCF      +2
000039: 06,3271           13353                           TCF      IRIG1                                 #  RETURN
000040:
000041: 06,3272           34751        1/PIPA1            CAF      FOUR                                  #  PIPAZ, PIPAY, PIPAX
000042: 06,3273           54132                           TS       BUF        +2
000043:
000044: 06,3274           50132                           INDEX    BUF        +2
000045: 06,3275           31453                           CA       PIPASCF                               #  (P.P.M.) X 2(-9)
000046: 06,3276           00006                           EXTEND
000047: 06,3277           50132                           INDEX    BUF        +2
000048: 06,3300           70324                           MP       DELVX                                 #  (PP) X 2(+14) NOW (PIPA PULSES) X 2(+5)
000049: 06,3301           54002                           TS       Q                                     #  SAVE MAJOR PART
000050:
000051: 06,3302           30001                           CA       L                                     #  MINOR PART
000052: 06,3303           00006                           EXTEND
000053: 06,3304           74746                           MP       BIT6                                  #  SCALE 2(+9)   SHIFT RIGHT 9
000054: 06,3305           50132                           INDEX    BUF        +2
000055: 06,3306           54325                           TS       DELVX      +1                         #  FRACTIONAL PIPA PULSES SCALED 2(+14)
000056:
000057: 06,3307           30002                           CA       Q                                     #  MAJOR PART
000058: 06,3310           00006                           EXTEND
000059: 06,3311           74746                           MP       BIT6                                  #  SCALE 2(+9)   SHIFT RIGHT 9
000060: 06,3312           50132                           INDEX    BUF        +2
000061: 06,3313           20325                           DAS      DELVX                                 #  (PIPAI) + (PIPAI)(SFE)
000062:


000066: 06,3314           50132                           INDEX    BUF        +2
000067: 06,3315           41452                           CS       PIPABIAS                              #  (PIPA PULSES)/(CS) X 2(-5)             *
000068: 06,3316           00006                           EXTEND
000069: 06,3317           71075                           MP       1/PIPADT                              #  (CS) X 2(+8) NOW (PIPA PULSES) X 2(+3) *
000070: 06,3320           00006                           EXTEND
000071: 06,3321           74750                           MP       BIT4                                  #  SCALE 2(+11) SHIFT RIGHT 11            *
000072: 06,3322           50132                           INDEX    BUF        +2
000073: 06,3323           20325                           DAS      DELVX                                 #  (PIPAI) + (PIPAI)(SFE) - (BIAS)(DELTAT)
000074:
000075: 06,3324           10132                           CCS      BUF        +2                         #  PIPAZ, PIPAY, PIPAX
000076: 06,3325           67746                           AD       NEG1
000077: 06,3326           13273                           TCF      1/PIPA1    +1


000079: 06,3327           13330                           NOOP                                           #  LESS THAN ZERO IMPOSSIBLE
000080:


000082: 06,3330           55477        IRIGCOMP           TS       GCOMPSW                               #  INDICATE COMMANDS 2 PULSES OR LESS.
000083: 06,3331           54130                           TS       BUF                                   #  INDEX COUNTER . IRIGX, IRIGY, IRIGZ.
000084:
000085: 06,3332           03356                           TC       IRIGX                                 #  COMPENSATE ACCELERATION TERMS
000086:
000087: 06,3333           41460                           CS       NBDX                                  #  (GYRO PULSES)/(CS) X 2(-5)
000088: 06,3334           03454                           TC       DRIFTSUB                              #  -(NBOX)(DELTAT)   (GYRO PULSES) X 2(+14)
000089:
000090: 06,3335           03373                           TC       IRIGY                                 #  COMPENSATE ACCELERATION TERMS
000091:
000092: 06,3336           41461                           CS       NBDY                                  #  (GYRO PULSES)/(CS) X 2(-5)
000093: 06,3337           03454                           TC       DRIFTSUB                              #  +(NBDY)(DELTAT)   (GYRO PULSES) X 2(+14)
000094:
000095: 06,3340           03410                           TC       IRIGZ                                 #  COMPENSATE ACCELERATION TERMS
000096:
000097: 06,3341           31462                           CA       NBDZ                                  #  (GYRO PULSES)/(CS) X 2(-5)
000098: 06,3342           03454                           TC       DRIFTSUB                              #  +(NBDZ)(DELTAT)   (GYRO PULSES) X 2(+14)
000099:
000100: 06,3343           11477                           CCS      GCOMPSW                               #  ARE GYRO COMMANDS GREATER THAN 2 PULSES
000101: 06,3344           13346                           TCF      +2                                    #  YES   SEND OUT GYRO TORQUING COMMANDS.
000102: 06,3345           13353                           TCF      IRIG1                                 #  NO    RETURN
000103:
000104: 06,3346           35031                           CA       PRIO21                                #  PRIO GREATER THAN SERVICER
000105: 06,3347           05072                           TC       NOVAC                                 #  SEND OUT GYRO TORQUING COMMANDS.
000106: 06,3350  E3,1460                                  EBANK=   NBDX
000107: 06,3350           03507 14063                     2CADR    1/GYRO
000108:
000109: 06,3352           00003                           RELINT
000110: 06,3353           30163        IRIG1              CA       MODE                                  #  RESTORE CALLERS EBANK
000111: 06,3354           54003                           TS       EBANK
000112: 06,3355           14631                           TCF      SWRETURN
000113:


000115: 06,3356           00006        IRIGX              EXTEND
000116: 06,3357           22156                           QXCH     MPAC       +2                         #  SAVE Q
000117: 06,3360           00006                           EXTEND
000118: 06,3361           40325                           DCS      DELVX                                 #  (PIPA PULSES) X 2(+14)
000119: 06,3362           52155                           DXCH     MPAC
000120: 06,3363           31463                           CA       ADIAX                                 #  (GYRO PULSES)/(PIPA PULSE) X 2(-6)            *
000121: 06,3364           03425                           TC       GCOMPSUB                              #  -(ADIAX)(PIPAX)          (GYRO PULSES) X 2(+14)
000122:
000123: 06,3365           00006                           EXTEND                                         #
000124: 06,3366           40327                           DCS      DELVY                                 #        (PIPA PULSES) X 2(+14)
000125: 06,3367           52155                           DXCH     MPAC                                  #
000126: 06,3370           41466                           CS       ADSRAX                                #        (GYRO PULSES)/(PIPA PULSE) X 2(-6)      *
000127: 06,3371           03425                           TC       GCOMPSUB                              #        -(ADSRAX)(PIPAY)   (GYRO PULSES) X 2(+14)
000128:
000129:                                                                                                  #                EXTEND                  ***
000130:                                                                                                  #                DCS     DELVZ           ***     (PIPA PULSES) X 2(+14)
000131:                                                                                                  #                DXCH    MPAC            ***
000132:                                                                                                  #                CA      ADOAX           ***     (GYRO PULSES)/(PIPA PULSE) X 2(-6)      *
000133:                                                                                                  #                TC      GCOMPSUB        ***     -(ADOAX)(PIPAZ)    (GYRO PULSES) X 2(+14)
000134:
000135: 06,3372           00156                           TC       MPAC       +2
000136:
000137: 06,3373           00006        IRIGY              EXTEND
000138: 06,3374           22156                           QXCH     MPAC       +2                         #  SAVE Q
000139: 06,3375           00006                           EXTEND
000140: 06,3376           40327                           DCS      DELVY                                 #  (PIPA PULSES) X 2(+14)
000141: 06,3377           52155                           DXCH     MPAC
000142: 06,3400           31464                           CA       ADIAY                                 #  (GYRO PULSES)/(PIPA PULSE) X 2(-6)            *
000143: 06,3401           03425                           TC       GCOMPSUB                              #  -(ADIAY)(PIPAY)          (GYRO PULSES) X 2(+14)
000144:
000145: 06,3402           00006                           EXTEND
000146: 06,3403           40331                           DCS      DELVZ                                 #  (PIPA PULSES) X 2(+14)
000147: 06,3404           52155                           DXCH     MPAC
000148: 06,3405           41467                           CS       ADSRAY                                #  (GYRO PULSES)/(PIPA PULSE) X 2(-6)            *
000149: 06,3406           03425                           TC       GCOMPSUB                              #  +(ADSRAY)(PIPAZ)              (GYRO PULSES) X 2(+14)
000150:
000151:                                                                                                  #                EXTEND                  ***
000152:                                                                                                  #                DCS     DELVX           ***     (PIPA PULSES) X 2(+14)
000153:                                                                                                  #                DXCH    MPAC            ***
000154:                                                                                                  #                CA      ADOAY           ***     (GYRO PULSES)/(PIPA PULSE) X 2(-6)      *
000155:                                                                                                  #                TC      GCOMPSUB        ***     -(ADOAY)(PIPAX)   (GYRO PULSES) X 2(+14)
000156:
000157: 06,3407           00156                           TC       MPAC       +2
000158:
000159: 06,3410           00006        IRIGZ              EXTEND
000160: 06,3411           22156                           QXCH     MPAC       +2                         #  SAVE Q
000161: 06,3412           00006                           EXTEND
000162: 06,3413           40327                           DCS      DELVY                                 #  (PIPA PULSES) X 2(+14)
000163: 06,3414           52155                           DXCH     MPAC
000164: 06,3415           31470                           CA       ADSRAZ                                #  (GYRO PULSES)/(PIPA PULSE) X 2(-6)            *


000166: 06,3416           03425                           TC       GCOMPSUB                              #  -(ADSRAZ)(PIPAY)        (GYRO PULSES) X 2(+14)
000167:
000168: 06,3417           00006                           EXTEND
000169: 06,3420           40331                           DCS      DELVZ                                 #  (PIPA PULSES) X 2(+14)
000170: 06,3421           52155                           DXCH     MPAC
000171: 06,3422           31465                           CA       ADIAZ                                 #  (GYRO PULSES)/(PIPA PULSE) X 2(-6)            *
000172: 06,3423           03425                           TC       GCOMPSUB                              #  -(ADIAZ)(PIPAZ)          (GYRO PULSES) X 2(+14)
000173:
000174:                                                                                                  #                EXTEND                  ***
000175:                                                                                                  #                DCS     DELVX           ***     (PIPA PULSE) X 2(+14)
000176:                                                                                                  #                DXCH    MPAC            ***
000177:                                                                                                  #                CS      ADOAZ           ***     (GYRO PULSES)/(PIPA PULSE) X 2(-6)      *
000178:                                                                                                  #                TC      GCOMPSUB        ***     +(ADOAZ)(PIPAX)    (GYRO PULSES) X 2(+14)
000179:
000180: 06,3424           00156                           TC       MPAC       +2
000181:


000183: 06,3425           56154        GCOMPSUB           XCH      MPAC                                  #  ADIA OR ADSRA COEFFICIENT ARRIVES IN A
000184: 06,3426           00006                           EXTEND                                         #  C(MPAC) = (PIPA PULSES) X 2(+14)
000185: 06,3427           70154                           MP       MPAC                                  #  (GYRO PULSES)/(PIPA PULSE) X 2(-6)            *
000186: 06,3430           52123                           DXCH     VBUF                                  #  NOW = (GYRO PULSES) X 2(+8)                   *
000187:
000188: 06,3431           30155                           CA       MPAC       +1                         #  MINOR PART PIPA PULSES
000189: 06,3432           00006                           EXTEND
000190: 06,3433           70154                           MP       MPAC                                  #  ADIA OR ADSRA
000191: 06,3434           54001                           TS       L
000192: 06,3435           34755                           CAF      ZERO
000193: 06,3436           20123                           DAS      VBUF                                  #  NOW = (GYRO PULSES) X 2(+8)                   *
000194:
000195: 06,3437           30122                           CA       VBUF                                  #  PARTIAL RESULT - MAJOR
000196: 06,3440           00006                           EXTEND
000197: 06,3441           74743                           MP       BIT9                                  #  SCALE 2(+6)   SHIFT RIGHT 6                   *
000198: 06,3442           50130                           INDEX    BUF                                   #  RESULT = (GYRO PULSES) X 2(+14)
000199: 06,3443           21472                           DAS      GCOMP                                 #  HI(ADIA)(PIPAI) OR HI(ADSRA)(PIPAI)
000200:
000201: 06,3444           30123                           CA       VBUF       +1                         #  PARTIAL RESULT - MINOR
000202: 06,3445           00006                           EXTEND
000203: 06,3446           74743                           MP       BIT9                                  #  SCALE 2(+6)   SHIFT RIGHT 6                   *
000204: 06,3447           54001                           TS       L
000205: 06,3450           34755                           CAF      ZERO
000206: 06,3451           50130                           INDEX    BUF                                   #  RESULT = (GYRO PULSES) X 2(+14)
000207: 06,3452           21472                           DAS      GCOMP                                 #  (ADIA)(PIPAI) OR (ADSRA)(PIPAI)
000208:
000209: 06,3453           00002                           TC       Q
000210:


000212: 06,3454           00006        DRIFTSUB           EXTEND
000213: 06,3455           22131                           QXCH     BUF        +1
000214:
000215: 06,3456           00006                           EXTEND                                         #  C(A) = NBD    (GYRO PULSES)/(CS) X 2(-5)
000216: 06,3457           71075                           MP       1/PIPADT                              #  (CS) X 2(+8)  NOW (GYRO PULSES) X 2(+3)
000217: 06,3460           22155                           LXCH     MPAC       +1                         #  SAVE FOR FRACTIONAL COMPENSATION
000218: 06,3461           00006                           EXTEND
000219: 06,3462           74750                           MP       BIT4                                  #  SCALE 2(+11)  SHIFT RIGHT 11
000220: 06,3463           50130                           INDEX    BUF
000221: 06,3464           21472                           DAS      GCOMP                                 #  HI(NBD)(DELTAT)       (GYRO PULSES) X 2(+14)
000222:
000223: 06,3465           30155                           CA       MPAC       +1                         #  NOW MINOR PART
000224: 06,3466           00006                           EXTEND
000225: 06,3467           74750                           MP       BIT4                                  #  SCALE 2(+11)          SHIFT RIGHT 11
000226: 06,3470           54001                           TS       L
000227: 06,3471           34755                           CAF      ZERO
000228: 06,3472           50130                           INDEX    BUF                                   #  ADD IN FRACTIONAL COMPENSATION
000229: 06,3473           21472                           DAS      GCOMP                                 #  (NBD)(DELTAT)         (GYRO PULSES) X 2(+14)
000230:
000231: 06,3474           34752        DRFTSUB2           CAF      TWO                                   #  PIPAX, PIPAY, PIPAZ
000232: 06,3475           60130                           AD       BUF
000233: 06,3476           56130                           XCH      BUF
000234: 06,3477           50000                           INDEX    A
000235: 06,3500           11471                           CCS      GCOMP                                 #  ARE GYRO COMMANDS 1 PULSE OR GREATER
000236: 06,3501           13503                           TCF      +2                                    #  YES
000237: 06,3502           00131                           TC       BUF        +1                         #  NO
000238:
000239: 06,3503           73553                           MASK     COMPCHK                               #  DEC -1
000240: 06,3504           10000                           CCS      A                                     #  ARE GYRO COMMANDS GREATER THAN 2 PULSES
000241: 06,3505           55477                           TS       GCOMPSW                               #  YES - SET GCOMPSW POSITIVE
000242: 06,3506           00131                           TC       BUF        +1                         #  NO
000243:


000245: 06,3507           34751        1/GYRO             CAF      FOUR                                  #  PIPAZ, PIPAY, PIPAX
000246: 06,3510           54130                           TS       BUF
000247:
000248: 06,3511           50130                           INDEX    BUF                                   #  SCALE GYRO COMMANDS FOR IMUPULSE
000249: 06,3512           31472                           CA       GCOMP      +1                         #  FRACTIONAL PULSES
000250: 06,3513           00006                           EXTEND
000251: 06,3514           74744                           MP       BIT8                                  #  SHIFT RIGHT 7
000252: 06,3515           50130                           INDEX    BUF
000253: 06,3516           55472                           TS       GCOMP      +1                         #  FRACTIONAL PULSES SCALED
000254:
000255: 06,3517           34755                           CAF      ZERO                                  #  SET GCOMP = 0 FOR DAS INSTRUCTION
000256: 06,3520           50130                           INDEX    BUF
000257: 06,3521           57471                           XCH      GCOMP                                 #  GYRO PULSES
000258: 06,3522           00006                           EXTEND
000259: 06,3523           74744                           MP       BIT8                                  #  SHIFT RIGHT 7
000260: 06,3524           50130                           INDEX    BUF
000261: 06,3525           21472                           DAS      GCOMP                                 #  ADD THESE TO FRACTIONAL PULSES ABOVE
000262:
000263: 06,3526           10130                           CCS      BUF                                   #  PIPAZ, PIPAY, PIPAX
000264: 06,3527           67746                           AD       NEG1
000265: 06,3530           13510                           TCF      1/GYRO     +1
000266: 06,3531           01471        LGCOMP             ECADR    GCOMP                                 #  LESS THAN ZERO IMPOSSIBLE
000267:
000268: 06,3532           33531                           CAF      LGCOMP
000269: 06,3533           04616                           TC       BANKCALL
000270: 06,3534           17276                           CADR     IMUPULSE                              #  CALL GYRO TORQUING ROUTINE
000271: 06,3535           04616                           TC       BANKCALL
000272: 06,3536           17671                           CADR     IMUSTALL                              #  WAIT FOR PULSES TO GET OUT
000273: 06,3537           15155                           TCF      ENDOFJOB                              #  TEMPORARY
000274:
000275: 06,3540           34751        GCOMP1             CAF      FOUR                                  #  PIPAZ, PIPAY, PIPAX
000276: 06,3541           54130                           TS       BUF
000277:
000278: 06,3542           50130                           INDEX    BUF                                   #  RESCALE
000279: 06,3543           31472                           CA       GCOMP      +1
000280: 06,3544           00006                           EXTEND
000281: 06,3545           74744                           MP       BIT8                                  #  SHIFT MINOR PART LEFT 7 - MAJOR PART = 0
000282: 06,3546           50130                           INDEX    BUF
000283: 06,3547           23472                           LXCH     GCOMP      +1                         #  BITS 8-14 OF MINOR PART WERE = 0
000284:
000285: 06,3550           10130                           CCS      BUF                                   #  PIPAZ, PIPAY, PIPAX
000286: 06,3551           67746                           AD       NEG1
000287: 06,3552           13541                           TCF      GCOMP1     +1
000288: 06,3553           77776        COMPCHK            DEC      -1         B-14                       #  LESS THAN ZERO IMPOSSIBLE
000289: 06,3554           15155                           TCF      ENDOFJOB
000290:


000292: 06,3555           11477        NBDONLY            CCS      GCOMPSW                               #  BYPASS IF GCOMPSW NEGATIVE
000293: 06,3556           13561                           TCF      +3
000294: 06,3557           13561                           TCF      +2
000295: 06,3560           15155                           TCF      ENDOFJOB
000296:
000297: 06,3561           00004                           INHINT
000298: 06,3562           10076                           CCS      FLAGWRD2                              #  PREREAD T3RUPT MAY COINCIDE
000299: 06,3563           15155                           TCF      ENDOFJOB
000300: 06,3564           15155                           TCF      ENDOFJOB
000301: 06,3565           13566                           TCF      +1
000302:
000303: 06,3566           30104                           CA       FLAGWRD8                              #  IF SURFACE FLAG IS SET, SET TEM1
000304: 06,3567           74744                           MASK     BIT8                                  #  POSITIVE SO THAT THE ACCELERATION TERMS
000305: 06,3570           54141                           TS       TEM1                                  #  WILL BE COMPENSATED.
000306: 06,3571           00006                           EXTEND
000307: 06,3572           13575                           BZF      +3                                    #  ARE WE ON THE SURFACE
000308:
000309: 06,3573           04674                           TC       IBNKCALL                              #  ON THE SURFACE
000310: 06,3574           77533                           CADR     PIPASR     +3                         #  READ PIPAS, BUT DO NOT SCALE THEM
000311:
000312: 06,3575           30025                           CA       TIME1                                 #  (CS) X 2(+14)
000313: 06,3576           57075                           XCH      1/PIPADT                              #  PREVIOUS TIME
000314: 06,3577           00003                           RELINT
000315: 06,3600           40000                           COM
000316: 06,3601           61075                           AD       1/PIPADT                              #  PRESENT TIME - PREVIOUS TIME
000317: 06,3602           64736        NBD2               AD       HALF                                  #  CORRECT FOR POSSIBLE TIME1 TICK
000318: 06,3603           64736                           AD       HALF
000319: 06,3604           56001                           XCH      L                                     #  IF TIME1 DID NOT TICK, REMOVE RESULTING
000320: 06,3605           56001                           XCH      L                                     #  OVERFLOW.
000321:
000322: 06,3606           00006        NBD3               EXTEND                                         #  C(A) = DELTAT         (CS) X 2(+14)
000323: 06,3607           74742                           MP       BIT10                                 #  SHIFT RIGHT 5
000324: 06,3610           52125                           DXCH     VBUF       +2
000325:
000326: 06,3611           34755                           CA       ZERO
000327: 06,3612           55477                           TS       GCOMPSW                               #  INDICATE COMMANDS 2 PULSES OR LESS.
000328: 06,3613           54130                           TS       BUF                                   #  INDEX  X, Y, Z.
000329:
000330: 06,3614           10141                           CCS      TEM1                                  #  IF SURFACE FLAG IS SET,
000331: 06,3615           03356                           TC       IRIGX                                 #  COMPENSATE ACCELERATION TERMS.
000332:
000333: 06,3616           00006                           EXTEND
000334: 06,3617           30125                           DCA      VBUF       +2
000335: 06,3620           52155                           DXCH     MPAC                                  #  DELTAT NOW SCALED (CS) X 2(+19)
000336:
000337: 06,3621           41460                           CS       NBDX                                  #  (GYRO PULSES)/(CS) X 2(-5)
000338: 06,3622           03644                           TC       FBIASSUB                              #  -(NBOX)(DELTAT)       (GYRO PULSES) X 2(+14)
000339:
000340: 06,3623           10141                           CCS      TEM1                                  #  IF SURFACE FLAG IS SET,
000341: 06,3624           03373                           TC       IRIGY                                 #  COMPENSATE ACCELERATION TERMS.


000343: 06,3625           00006                           EXTEND
000344: 06,3626           40125                           DCS      VBUF       +2
000345: 06,3627           52155                           DXCH     MPAC                                  #  DELTAT SCALED (CS) X 2(+19)
000346: 06,3630           31461                           CA       NBDY                                  #  (GYRO PULSES)/(CS) X 2(-5)
000347: 06,3631           03644                           TC       FBIASSUB                              #  -(NBDY)(DELTAT)       (GYRO PULSES) X 2(+14)
000348:
000349: 06,3632           10141                           CCS      TEM1                                  #  IF SURFACE FLAG IS SET,
000350: 06,3633           03410                           TC       IRIGZ                                 #  COMPENSATE ACCELERATION TERMS
000351:
000352: 06,3634           00006                           EXTEND
000353: 06,3635           40125                           DCS      VBUF       +2
000354: 06,3636           52155                           DXCH     MPAC                                  #  DELTAT SCALED (CS) X 2(+19)
000355: 06,3637           41462                           CS       NBDZ                                  #  (GYRO PULSES)/(CS) X 2(-5)
000356: 06,3640           03644                           TC       FBIASSUB                              #  +(NBDZ)(DELTAT)       (GYRO PULSES) X 2(+14)
000357:
000358: 06,3641           11477                           CCS      GCOMPSW                               #  ARE GYRO COMMANDS GREATER THAN 2 PULSES
000359: 06,3642           13507                           TCF      1/GYRO                                #  YES
000360: 06,3643           15155                           TCF      ENDOFJOB                              #  NO
000361:


000363: 06,3644           56002        FBIASSUB           XCH      Q
000364: 06,3645           54131                           TS       BUF        +1
000365:
000366: 06,3646           30002                           CA       Q                                     #  NBD SCALED (GYRO PULSES)/(CS) X 2(-5)
000367: 06,3647           00006                           EXTEND
000368: 06,3650           70154                           MP       MPAC                                  #  DELTAT SCALED (CS) X 2(+19)
000369: 06,3651           50130                           INDEX    BUF
000370: 06,3652           21472                           DAS      GCOMP                                 #  HI(NBD)(DELTAT)       (GYRO PULSES) X 2(+14)
000371:
000372: 06,3653           30002                           CA       Q                                     #  NOW FRACTIONAL PART
000373: 06,3654           00006                           EXTEND
000374: 06,3655           70155                           MP       MPAC       +1
000375: 06,3656           54001                           TS       L
000376: 06,3657           34755                           CAF      ZERO
000377: 06,3660           50130                           INDEX    BUF
000378: 06,3661           21472                           DAS      GCOMP                                 #  (NBD)(DELTAT)         (GYRO PULSES) X 2(+14)
000379:
000380: 06,3662           13474                           TCF      DRFTSUB2                              #  CHECK MAGNITUDE OF COMPENSATION
000381:
000382: 06,3663           04616        LASTBIAS           TC       BANKCALL
000383: 06,3664           17252                           CADR     PIPUSE1
000384:
000385: 06,3665           11477                           CCS      GCOMPSW
000386: 06,3666           13671                           TCF      +3
000387: 06,3667           13671                           TCF      +2
000388: 06,3670           15155                           TCF      ENDOFJOB
000389:
000390: 06,3671           30104                           CA       FLAGWRD8                              #  IF SURFACE FLAG IS SET, SET TEM1
000391: 06,3672           74744                           MASK     SURFFBIT                              #  POSITIVE SO THAT THE ACCELERATION TERMS
000392: 06,3673           54141                           TS       TEM1                                  #  WILL BE COMPENSATED.
000393:
000394: 06,3674           37715                           CAF      PRIO31                                #  2 SECONDS SCALED (CS) X 2(+8)
000395: 06,3675           57075                           XCH      1/PIPADT
000396: 06,3676           40000                           COM
000397: 06,3677           61235                           AD       PIPTIME    +1
000398: 06,3700           13602                           TCF      NBD2
000399:
000400: 06,3701           33531        GCOMPZER           CAF      LGCOMP                                #  ROUTINE TO ZERO GCOMP BEFORE FIRST
000401: 06,3702           56003                           XCH      EBANK                                 #  CALL TO 1/PIPA
000402: 06,3703           54163                           TS       MODE
000403:
000404: 06,3704           34755                           CAF      ZERO
000405: 06,3705           55477                           TS       GCOMPSW
000406: 06,3706           55471                           TS       GCOMP
000407: 06,3707           55472                           TS       GCOMP      +1
000408: 06,3710           55473                           TS       GCOMP      +2
000409: 06,3711           55474                           TS       GCOMP      +3
000410: 06,3712           55475                           TS       GCOMP      +4


000412: 06,3713           55476                           TS       GCOMP      +5
000413:
000414: 06,3714           13353                           TCF      IRIG1                                 #  RESTORE EBANK AND RETURN
000415:

End of include-file IMU_COMPENSATION_PACKAGE.agc.  Parent file is MAIN.agc


