
Source Code


000002:                                                                                                  ## Copyright:   Public domain.
000003:                                                                                                  ## Filename:    INFLIGHT_ALIGNMENT_ROUTINES.agc
000004:                                                                                                  ## Purpose:     The main source file for Luminary revision 069.
000005:                                                                                                  ##              It is part of the source code for the original release
000006:                                                                                                  ##              of the flight software for the Lunar Module's (LM) Apollo
000007:                                                                                                  ##              Guidance Computer (AGC) for Apollo 10. The actual flown
000008:                                                                                                  ##              version was Luminary 69 revision 2, which included a
000009:                                                                                                  ##              newer lunar gravity model and only affected module 2.
000010:                                                                                                  ##              This file is intended to be a faithful transcription, except
000011:                                                                                                  ##              that the code format has been changed to conform to the
000012:                                                                                                  ##              requirements of the yaYUL assembler rather than the
000013:                                                                                                  ##              original YUL assembler.
000014:                                                                                                  ## Reference:   pp. 1244-1253
000015:                                                                                                  ## Assembler:   yaYUL
000016:                                                                                                  ## Contact:     Ron Burkey <info@sandroid.org>.
000017:                                                                                                  ## Website:     www.ibiblio.org/apollo/index.html
000018:                                                                                                  ## Mod history: 2016-12-13 MAS  Created from Luminary 99.
000019:                                                                                                  ##              2016-12-18 MAS  Updated from comment-proofed Luminary 99 version.
000020:                                                                                                  ##              2017-01-16 RRB  Updated for Luminary 69.
000021:                                                                                                  ##              2017-01-21 HG   Add missing interpretive operation BONCLR
000022:                                                                                                  ##              2017-01-28 RSB  Proofed comment text using octopus/prooferComments
000023:                                                                                                  ##                              but no errors found.
000024:


000026: 22,3731                                           BANK     22
000027: 23,2000                                           SETLOC   INFLIGHT
000028: 23,2000                                           BANK
000029:
000030: 23,3151  E5,1642                                  EBANK=   XSM
000031:
000032:                                                                                                  #  CALCGTA COMPUTES THE GYRO TORQUE ANGLES REQUIRED TO BRING THE STABLE MEMBER INTO THE DESIRED ORIENTATION.
000033:
000034:                                                                                                  #  THE INPUT IS THE DESIRED STABLE MEMBER COORDINATES REFERRED TO PRESENT STABLE MEMBER COORDINATES. THE THREE
000035:                                                                                                  #  HALF-UNIT VECTORS ARE STORED AT XDC, YDC, AND ZDC.
000036:
000037:                                                                                                  #  THE OUTPUTS ARE THE THREE GYRO TORQUING ANGLES TO BE APPLIED TO THE Y, Z, AND X GYROS AND ARE STORED DP AT IGC,
000038:                                                                                                  #  MGC, AND OGC RESPECTIVELY.
000039:
000040: 23,3151                                           COUNT*   $$/INFLT
000041: 23,3151           71220        CALCGTA            ITA      DLOAD                                 #  PUSHDOWN  00-03,16D-27D,34D-37D
000042: 23,3152           00051                                    S2                                    #  XDC = (XD1 XD2 XD3)
000043: 23,3153           02665                                    XDC                                   #  YDC = (YD1 YD2 YD3)
000044: 23,3154           65325                           PDDL     PDDL                                  #  ZDC = (ZD1 ZD2 ZD3)
000045: 23,3155           06424                                    HI6ZEROS
000046: 23,3156           02671                                    XDC        +4
000047: 23,3157           55476                           DCOMP    VDEF
000048: 23,3160           77656                           UNIT
000049: 23,3161           14027                           STODL    ZPRIME                                #  ZP = UNIT(-XD3 0 XD1) = (ZP1 ZP2 ZP3)
000050: 23,3162           00027                                    ZPRIME
000051:
000052: 23,3163           77742                           SR1
000053: 23,3164           14023                           STODL    SINTH                                 #  SIN(IGC) = ZP1
000054: 23,3165           00033                                    ZPRIME     +4
000055: 23,3166           77742                           SR1
000056: 23,3167           34021                           STCALL   COSTH                                 #  COS(IGC) = ZP3
000057: 23,3170           47222                                    ARCTRIG
000058:
000059: 23,3171           16742                           STODL    IGC                                   #  Y GYRO TORQUING ANGLE   FRACTION OF REV.
000060: 23,3172           02667                                    XDC        +2
000061: 23,3173           77742                           SR1
000062: 23,3174           14023                           STODL    SINTH                                 #  SIN(MGC) = XD2
000063: 23,3175           00027                                    ZPRIME
000064:
000065: 23,3176           65205                           DMP      PDDL
000066: 23,3177           02671                                    XDC        +4                         #  PD00 = (ZP1)(XD3)
000067: 23,3200           00033                                    ZPRIME     +4
000068:
000069: 23,3201           45205                           DMP      DSU
000070: 23,3202           02665                                    XDC                                   #  MPAC = (ZP3)(XD1)
000071: 23,3203           77626                           STADR
000072: 23,3204           43756                           STCALL   COSTH                                 #  COS(MGC) = MPAC - PD00
000073: 23,3205           47222                                    ARCTRIG


000075: 23,3206           26744                           STOVL    MGC                                   #  Z GYRO TORQUING ANGLE   FRACTION OF REV.
000076: 23,3207           00027                                    ZPRIME
000077: 23,3210           77641                           DOT
000078: 23,3211           02701                                    ZDC
000079: 23,3212           24021                           STOVL    COSTH                                 #  COS(OGC) = ZP . ZDC
000080: 23,3213           00027                                    ZPRIME
000081: 23,3214           77641                           DOT
000082: 23,3215           02673                                    YDC
000083: 23,3216           34023                           STCALL   SINTH                                 #  SIN(OGC) = ZP . YDC
000084: 23,3217           47222                                    ARCTRIG
000085:
000086: 23,3220           36740                           STCALL   OGC                                   #  X GYRO TORQUING ANGLE   FRACTION OF REV.
000087: 23,3221           00051                                    S2
000088:


000090:                                                                                                  #  ARCTRIG COMPUTES AN ANGLE GIVEN THE SINE AND COSINE OF THIS ANGLE.
000091:
000092:                                                                                                  #  THE INPUTS ARE SIN/4 AND COS/4 STORED UP AT SINTH AND COSTH.
000093:
000094:                                                                                                  #  THE OUTPUT IS THE CALCULATED ANGLE BETWEEN +.5 AND -.5 REVOLUTIONS AND STORED AT THETA. THE OUTPUT IS ALSO
000095:                                                                                                  #  AVAILABLE AT MPAC.
000096:
000097: 23,3222           51545        ARCTRIG            DLOAD    ABS                                   #  PUSHDOWN  16D-21D
000098: 23,3223           00023                                    SINTH
000099: 23,3224           50025                           DSU      BMN
000100: 23,3225           07440                                    QTSN45                                #  ABS(SIN/4) - SIN(45)/4
000101: 23,3226           47235                                    TRIG1                                 #  IF (-45,45) OR (135,-135)
000102:
000103: 23,3227           72545                           DLOAD    SL1                                   #  (45,135) OR (-135,-45)
000104: 23,3230           00021                                    COSTH
000105: 23,3231           75326                           ACOS     SIGN
000106: 23,3232           00023                                    SINTH
000107: 23,3233           00025                           STORE    THETA                                 #  X = ARCCOS(COS) WITH SIGN(SIN)
000108: 23,3234           77616                           RVQ
000109:
000110: 23,3235           72545        TRIG1              DLOAD    SL1                                   #  (-45,45) OR (135,-135)
000111: 23,3236           00023                                    SINTH
000112: 23,3237           77736                           ASIN
000113: 23,3240           14025                           STODL    THETA                                 #  X = ARCSIN(SIN) WITH SIGN(SIN)
000114: 23,3241           00021                                    COSTH
000115: 23,3242           77640                           BMN
000116: 23,3243           47246                                    TRIG2                                 #  IF (135,-135)
000117:
000118: 23,3244           43545                           DLOAD    RVQ
000119: 23,3245           00025                                    THETA                                 #  X = ARCSIN(SIN)   (-45,45)
000120:
000121: 23,3246           75345        TRIG2              DLOAD    SIGN                                  #  (135,-135)
000122: 23,3247           06422                                    HIDPHALF
000123: 23,3250           00023                                    SINTH
000124: 23,3251           77625                           DSU
000125: 23,3252           00025                                    THETA
000126: 23,3253           00025                           STORE    THETA                                 #  X = .5 WITH SIGN(SIN) - ARCSIN(SIN)
000127: 23,3254           77616                           RVQ                                            #        (+) - (+) OR (-) - (-)
000128:


000130:                                                                                                  #      SMNB, NBSM, AND AXISROT, WHICH USED TO APPEAR HERE, HAVE BEEN
000131:                                                                                                  #  COMBINED IN A ROUTINE CALLED AX*SR*T, WHICH APPEARS AMONG THE POWERED
000132:                                                                                                  #  FLIGHT SUBROUTINES.
000133:


000135:                                                                                                  #  CALCGA COMPUTES THE CDU DRIVING ANGLES REQUIRED TO BRING THE STABLE MEMBER INTO THE DESIRED ORIENTATION.
000136:
000137:                                                                                                  #  THE INPUTS ARE  1) THE NAVIGATION BASE COORDINATES REFERRED TO ANY COORDINATE SYSTEM. THE THREE HALF-UNIT
000138:                                                                                                  #  VECTORS ARE STORED AT XNB, YNB, AND ZNB. 2) THE DESIRED STABLE MEMBER COORDINATES REFERRED TO THE SAME
000139:                                                                                                  #  COORDINATE SYSTEM ARE STORED AT XSM, YSM, AND ZSM.
000140:
000141:                                                                                                  #  THE OUTPUTS ARE THE THREE CDU DRIVING ANGLES AND ARE STORED SP AT THETAD, THETAD +1, AND THETAD +2.
000142:
000143: 23,3255           77601        CALCGA             SETPD                                          #  PUSHDOWN  00-05, 16D-21D, 34D-37D
000144: 23,3256           00001                                    0
000145: 23,3257           47375                           VLOAD    VXV
000146: 23,3260           02665                                    XNB                                   #  XNB = OGA (OUTER GIMBAL AXIS)
000147: 23,3261           02651                                    YSM                                   #  YSM = IGA (INNER GIMBAL AXIS)
000148: 23,3262           41456                           UNIT     PUSH                                  #  PD0 = UNIT(OGA X IGA) = MGA
000149:
000150: 23,3263           44041                           DOT      ITA
000151: 23,3264           02701                                    ZNB
000152: 23,3265           00051                                    S2
000153: 23,3266           24021                           STOVL    COSTH                                 #  COS(OG) = MGA . ZNB
000154: 23,3267           00001                                    0
000155: 23,3270           77641                           DOT
000156: 23,3271           02673                                    YNB
000157: 23,3272           34023                           STCALL   SINTH                                 #  SIN(OG) = MGA . YNB
000158: 23,3273           47222                                    ARCTRIG
000159: 23,3274           26740                           STOVL    OGC
000160: 23,3275           00001                                    0
000161:
000162: 23,3276           50235                           VXV      DOT                                   #  PROVISION FOR MG ANGLE OF 90 DEGREES
000163: 23,3277           02665                                    XNB
000164: 23,3300           02651                                    YSM
000165: 23,3301           77752                           SL1
000166: 23,3302           24021                           STOVL    COSTH                                 #  COS(MG) = IGA . (MGA X OGA)
000167: 23,3303           02651                                    YSM
000168: 23,3304           77641                           DOT
000169: 23,3305           02665                                    XNB
000170: 23,3306           34023                           STCALL   SINTH                                 #  SIN(MG) = IGA . OGA
000171: 23,3307           47222                                    ARCTRIG
000172: 23,3310           02744                           STORE    MGC
000173:
000174: 23,3311           45246                           ABS      DSU
000175: 23,3312           07442                                    .166...
000176: 23,3313           77644                           BPL
000177: 23,3314           47335                                    GIMLOCK1                              #  IF ANGLE GREATER THAN 60 DEGREES
000178:
000179: 23,3315           50375        CALCGA1            VLOAD    DOT
000180: 23,3316           02657                                    ZSM
000181: 23,3317           00001                                    0
000182: 23,3320           24021                           STOVL    COSTH                                 #  COS(IG) = ZSM . MGA
000183: 23,3321           02643                                    XSM


000185: 23,3322           45441                           DOT      STADR
000186: 23,3323           43754                           STCALL   SINTH                                 #  SIN(IG) = XSM . MGA
000187: 23,3324           47222                                    ARCTRIG
000188:
000189: 23,3325           26742                           STOVL    IGC
000190: 23,3326           02740                                    OGC
000191: 23,3327           43034                           RTB      BONCLR
000192: 23,3330           21524                                    V1STO2S
000193: 23,3331           00200                                    CPHIFLAG
000194: 23,3332           00051                                    S2
000195: 23,3333           34322                           STCALL   THETAD
000196: 23,3334           00051                                    S2
000197:
000198: 23,3335           77776        GIMLOCK1           EXIT
000199: 23,3336           05567                           TC       ALARM
000200: 23,3337           00401                           OCT      00401
000201: 23,3340           05504                           TC       UPFLAG                                #  GIMBAL LOCK HAS OCCURED
000202: 23,3341           00056                           ADRES    GLOKFAIL
000203:
000204: 23,3342           06036                           TC       INTPRET
000205: 23,3343           77650                           GOTO
000206: 23,3344           47315                                    CALCGA1
000207:


000209:                                                                                                  #  AXISGEN COMPUTES THE COORDINATES OF ONE COORDINATE SYSTEM REFERRED TO ANOTHER COORDINATE SYSTEM.
000210:
000211:                                                                                                  #  THE INPUTS ARE  1) THE STAR1 VECTOR REFERRED TO COORDINATE SYSTEM A STORED AT STARAD.  2) THE STAR2 VECTOR
000212:                                                                                                  #  REFERRED TO COORDINATE SYSTEM A STORED AT STARAD +6.  3) THE STAR1 VECTOR REFERRED TO COORDINATE SYSTEM B STORED
000213:                                                                                                  #  AT LOCATION 6 OF THE VAC AREA.  4) THE STAR2 VECTOR REFERRED TO COORDINATE SYSTEM B STORED AT LOCATION 12D OF
000214:                                                                                                  #  THE VAC AREA.
000215:
000216:                                                                                                  #  THE OUTPUT DEFINES COORDINATE SYSTEM A REFERRED TO COORDINATE SYSTEM B. THE THREE HALF-UNIT VECTORS ARE STORED
000217:                                                                                                  #  AT LOCATIONS XDC, XDC +6, XDC +12D, AND STARAD, STARAD +6, STARAD +12D.
000218:
000219: 23,3345           66370        AXISGEN            AXT,1    SSP                                   #  PUSHDOWN 00-30D,34D-37D
000220: 23,3346           02714                                    STARAD     +6
000221: 23,3347           00051                                    S1
000222: 23,3350           02700                                    STARAD     -6
000223:
000224: 23,3351           77601                           SETPD
000225: 23,3352           00001                                    0
000226: 23,3353           46773        AXISGEN1           VLOAD*   VXV*                                  #  06D   UA = S1
000227: 23,3354           02723                                    STARAD     +12D,1                     #         STARAD +00D   UB = S1
000228: 23,3355           02731                                    STARAD     +18D,1
000229: 23,3356           77656                           UNIT                                           #  12D   VA = UNIT(S1 X S2)
000230: 23,3357           06731                           STORE    STARAD     +18D,1                     #         STARAD +06D   VB = UNIT(S1 X S2)
000231: 23,3360           77773                           VLOAD*
000232: 23,3361           02723                                    STARAD     +12D,1
000233:
000234: 23,3362           76433                           VXV*     VSL1
000235: 23,3363           02731                                    STARAD     +18D,1                     #  18D   WA = UA X VA
000236: 23,3364           06737                           STORE    STARAD     +24D,1                     #         STARAD +12D   WB = UB X VB
000237:
000238: 23,3365           77700                           TIX,1
000239: 23,3366           47353                                    AXISGEN1
000240:
000241: 23,3367           66160                           AXC,1    SXA,1
000242: 23,3370           00006                                    6
000243: 23,3371           00036                                    30D
000244:
000245: 23,3372           66370                           AXT,1    SSP
000246: 23,3373           00022                                    18D
000247: 23,3374           00051                                    S1
000248: 23,3375           00006                                    6
000249:
000250: 23,3376           66374                           AXT,2    SSP
000251: 23,3377           00006                                    6
000252: 23,3400           00052                                    S2
000253: 23,3401           00002                                    2
000254:
000255: 23,3402           76720        AXISGEN2           XCHX,1   VLOAD*
000256: 23,3403           00036                                    30D                                   #  X1=-6 X2=+6   X1=-6 X2=+4     X1=-6 X2=+2
000257: 23,3404           00001                                    0,1
000258:


000260: 23,3405           62757                           VXSC*    PDVL*                                 #  J=(UA)(UB1)   J=(UA)(UB2)     J=(UA)(UB3)
000261: 23,3406           75062                                    STARAD     +6,2
000262: 23,3407           00007                                    6,1
000263: 23,3410           77757                           VXSC*
000264: 23,3411           75054                                    STARAD     +12D,2
000265: 23,3412           30031                           STOVL*   24D                                   #  K=(VA)(VB1)   J=(VA)(VB2)     J=(VA)(VB3)
000266: 23,3413           00015                                    12D,1
000267:
000268: 23,3414           53357                           VXSC*    VAD
000269: 23,3415           75046                                    STARAD     +18D,2                     #  L=(WA)(WB1)   J=(WA)(WB2)     J=(WA)(WB3)
000270: 23,3416           76455                           VAD      VSL1
000271: 23,3417           00031                                    24D
000272: 23,3420           53520                           XCHX,1   UNIT
000273: 23,3421           00036                                    30D
000274: 23,3422           06707                           STORE    XDC        +18D,1                     #  XDC = L+J+K   YDC = L+J+K     ZDC = L+J+K
000275:
000276: 23,3423           77700                           TIX,1
000277: 23,3424           47425                                    AXISGEN3
000278:
000279: 23,3425           77704        AXISGEN3           TIX,2
000280: 23,3426           47402                                    AXISGEN2
000281:
000282: 23,3427           77775                           VLOAD
000283: 23,3430           02665                                    XDC
000284: 23,3431           26707                           STOVL    STARAD
000285: 23,3432           02673                                    YDC
000286: 23,3433           26715                           STOVL    STARAD     +6
000287: 23,3434           02701                                    ZDC
000288: 23,3435           02723                           STORE    STARAD     +12D
000289:
000290: 23,3436           77616                           RVQ
000291:


000293: 23,3437           05520 26075  QTSN45             2DEC     .1768
000294:
000295: 23,3441           05252 25253  .166...            2DEC     .1666666667
000296:


000299:

End of include-file INFLIGHT_ALIGNMENT_ROUTINES.agc.  Parent file is MAIN.agc


