
Source Code


000002:                                                                                                  ## Copyright:   Public domain.
000003:                                                                                                  ## Filename:    INTERPRETIVE_CONSTANTS.agc
000004:                                                                                                  ## Purpose:     The main source file for Luminary revision 069.
000005:                                                                                                  ##              It is part of the source code for the original release
000006:                                                                                                  ##              of the flight software for the Lunar Module's (LM) Apollo
000007:                                                                                                  ##              Guidance Computer (AGC) for Apollo 10. The actual flown
000008:                                                                                                  ##              version was Luminary 69 revision 2, which included a
000009:                                                                                                  ##              newer lunar gravity model and only affected module 2.
000010:                                                                                                  ##              This file is intended to be a faithful transcription, except
000011:                                                                                                  ##              that the code format has been changed to conform to the
000012:                                                                                                  ##              requirements of the yaYUL assembler rather than the
000013:                                                                                                  ##              original YUL assembler.
000014:                                                                                                  ## Reference:   pp. 1095-1096
000015:                                                                                                  ## Assembler:   yaYUL
000016:                                                                                                  ## Contact:     Ron Burkey <info@sandroid.org>.
000017:                                                                                                  ## Website:     www.ibiblio.org/apollo/index.html
000018:                                                                                                  ## Mod history: 2016-12-13 MAS  Created from Luminary 99.
000019:                                                                                                  ##              2016-12-18 MAS  Updated from comment-proofed Luminary 99 version.
000020:                                                                                                  ##              2016-12-26 RRB  Updated for Luminary 69.
000021:                                                                                                  ##              2017-01-28 RSB  Proofed comment text using octopus/prooferComments
000022:                                                                                                  ##                              but no errors found.
000023:                                                                                                  ##              2021-05-30 ABS  DFC-6 -> DEC-6, DFC-12 -> DEC-12
000024:


000026: 23,2000                                           SETLOC   INTPRET1
000027: 23,2000                                           BANK
000028:
000029: 23,2413                                           COUNT*   $$/ICONS
000030: 23,2413           10000 00000  DP1/4TH            2DEC     .25
000031:
000032: 23,2415           00000 00000  UNITZ              2DEC     0          B-28
000033:
000034: 23,2417           00000 00000  UNITY              2DEC     0          B-28
000035:
000036: 23,2421           20000 00000  UNITX              2DEC     .5
000037:
000038: 23,2423           00000 00000  ZEROVECS           2DEC     0          B-28
000039:
000040: 23,2425           00000 00000                     2DEC     0          B-28
000041:
000042: 23,2427           00000 00000                     2DEC     0          B-28
000043:
000044: 23,2431  23,2421               DPHALF             =        UNITX
000045: 23,2431           37777        DPPOSMAX           OCT      37777
000046: 23,2432           37777                           OCT      37777
000047:


000049:                                                                                                  #  INTERPRETIVE CONSTANTS IN THE OTHER HALF-MEMORY
000050:
000051: 11,2000                                           SETLOC   INTPRET2
000052: 11,2000                                           BANK
000053:
000054: 11,2266                                           COUNT*   $$/ICONS
000055: 11,2266           00000 00000  ZUNIT              2DEC     0          B-28
000056:
000057: 11,2270           00000 00000  YUNIT              2DEC     0          B-28
000058:
000059: 11,2272           20000 00000  XUNIT              2DEC     .5
000060:
000061: 11,2274           00000 00000  ZEROVEC            2DEC     0          B-28
000062:
000063: 11,2276           00000 00000                     2DEC     0          B-28
000064:
000065: 11,2300           00000 00000                     2DEC     0          B-28
000066:
000067: 11,2302           77777                           OCT      77777                                 #  -0, -6, -12 MUST REMAIN IN THIS ORDER
000068: 11,2303           77771        DEC-6              DEC      -6         B-14
000069: 11,2304           77763        DEC-12             DEC      -12        B-14
000070: 11,2305           37777 37777  LODPMAX            2OCT     3777737777                            #  THESE TWO CONSTANTS MUST REMAIN
000071:
000072: 11,2307           37777 37777  LODPMAX1           2OCT     3777737777                            #  ADJACENT AND THE SAME FOR INTEGRATION
000073:
000074: 11,2311  11,2274               ZERODP             =        ZEROVEC
000075: 11,2311  11,2272               HALFDP             =        XUNIT
000076:
000077:

End of include-file INTERPRETIVE_CONSTANTS.agc.  Parent file is MAIN.agc


