
Source Code


000002:                                                                                                  ## Copyright:   Public domain.
000003:                                                                                                  ## Filename:    INTERRUPT_LEAD_INS.agc
000004:                                                                                                  ## Purpose:     The main source file for Luminary revision 069.
000005:                                                                                                  ##              It is part of the source code for the original release
000006:                                                                                                  ##              of the flight software for the Lunar Module's (LM) Apollo
000007:                                                                                                  ##              Guidance Computer (AGC) for Apollo 10. The actual flown
000008:                                                                                                  ##              version was Luminary 69 revision 2, which included a
000009:                                                                                                  ##              newer lunar gravity model and only affected module 2.
000010:                                                                                                  ##              This file is intended to be a faithful transcription, except
000011:                                                                                                  ##              that the code format has been changed to conform to the
000012:                                                                                                  ##              requirements of the yaYUL assembler rather than the
000013:                                                                                                  ##              original YUL assembler.
000014:                                                                                                  ## Reference:   pp. 168-169
000015:                                                                                                  ## Assembler:   yaYUL
000016:                                                                                                  ## Contact:     Ron Burkey <info@sandroid.org>.
000017:                                                                                                  ## Website:     www.ibiblio.org/apollo/index.html
000018:                                                                                                  ## Mod history: 2016-12-13 MAS  Created from Luminary 99.
000019:                                                                                                  ##              2017-01-05 HG   Transcribed
000020:                                                                                                  ##              2017-01-25 RSB  Proofed comment text using octopus/prooferComments
000021:                                                                                                  ##                              but no errors found.
000022:


000024:    4000                                           SETLOC   4000
000025:
000026:    4000                                           COUNT*   $$/RUPTS                              #  FIX-FIX LEAD INS
000027:    4000           00004                           INHINT                                         #  GO
000028:    4001           34054                           CAF      GOBB
000029:    4002           56006                           XCH      BBANK
000030:    4003           12667                           TCF      GOPROG
000031:
000032:    4004           52011                           DXCH     ARUPT                                 #  T6RUPT
000033:    4005           00006                           EXTEND
000034:    4006           34056                           DCA      T6ADR
000035:    4007           52006                           DTCB
000036:
000037:    4010           52011                           DXCH     ARUPT                                 #  T5RUPT - AUTOPILOT
000038:    4011           00006                           EXTEND
000039:    4012           31275                           DCA      T5ADR
000040:    4013           52006                           DTCB
000041:
000042:    4014           52011                           DXCH     ARUPT                                 #  T3RUPT
000043:    4015           34057                           CAF      T3RPTBB
000044:    4016           56006                           XCH      BBANK
000045:    4017           13404                           TCF      T3RUPT
000046:
000047:    4020           52011                           DXCH     ARUPT                                 #  T4RUPT
000048:    4021           34064                           CAF      T4RPTBB
000049:    4022           56006                           XCH      BBANK
000050:    4023           12000                           TCF      T4RUPT
000051:
000052:    4024           52011                           DXCH     ARUPT                                 #  KEYRUPT1
000053:    4025           34060                           CAF      KEYRPTBB
000054:    4026           56006                           XCH      BBANK
000055:    4027           13215                           TCF      KEYRUPT1
000056:
000057:    4030           52011                           DXCH     ARUPT                                 #  KEYRUPT2
000058:    4031           34061                           CAF      MKRUPTBB
000059:    4032           56006                           XCH      BBANK
000060:    4033           12332                           TCF      MARKRUPT
000061:
000062:    4034           52011                           DXCH     ARUPT                                 #  UPRUPT
000063:    4035           34060                           CAF      UPRPTBB
000064:    4036           56006                           XCH      BBANK
000065:    4037           13240                           TCF      UPRUPT
000066:
000067:    4040           52011                           DXCH     ARUPT                                 #  DOWNRUPT
000068:    4041           34062                           CAF      DWNRPTBB
000069:    4042           56006                           XCH      BBANK
000070:    4043           13430                           TCF      DODOWNTM
000071:
000072:    4044           52011                           DXCH     ARUPT                                 #  RADAR RUPT
000073:    4045           34063                           CAF      RDRPTBB
000074:


000076:    4046           56006                           XCH      BBANK
000077:    4047           13150                           TCF      RADAREAD
000078:
000079:    4050           52011                           DXCH     ARUPT                                 #  RUPT10 IS USED ONLY BY LANDING GUIDANCE
000080:    4051           34065                           CA       RUPT10BB
000081:    4052           56006                           XCH      BBANK
000082:    4053           12006                           TCF      PITFALL
000083:
000084:
000085:    4054  E3,1400                                  EBANK=   LST1                                  #  RESTART USES E0, E3
000086:    4054           12103        GOBB               BBCON    GOPROG
000087:
000088:    4055  E6,1462                                  EBANK=   PERROR
000089:    4055           02036 36106  T6ADR              2CADR    DOT6RUPT
000090:
000091:    4057  E3,1400                                  EBANK=   LST1
000092:    4057           02103        T3RPTBB            BBCON    T3RUPT
000093:
000094:    4060     0073                                  EBANK=   KEYTEMP1
000095:    4060           10100        KEYRPTBB           BBCON    KEYRUPT1
000096:
000097:    4061  E7,1404                                  EBANK=   AOTAZ
000098:    4061           16107        MKRUPTBB           BBCON    MARKRUPT
000099:
000100:    4062     4060               UPRPTBB            =        KEYRPTBB
000101:
000102:    4062     0340                                  EBANK=   DNTMBUFF
000103:    4062           12100        DWNRPTBB           BBCON    DODOWNTM
000104:
000105:    4063     0110                                  EBANK=   RADMODES
000106:    4063           52100        RDRPTBB            BBCON    RADAREAD
000107:
000108:    4064  E6,1412                                  EBANK=   M11
000109:    4064           14106        T4RPTBB            BBCON    T4RUPT
000110:
000111:    4065  E7,1645                                  EBANK=   ELVIRA
000112:    4065           42107        RUPT10BB           BBCON    PITFALL
000113:
000114:

End of include-file INTERRUPT_LEAD_INS.agc.  Parent file is MAIN.agc


