
Source Code


000002:                                                                                                  ## Copyright:   Public domain.
000003:                                                                                                  ## Filename:    INTER-BANK_COMMUNICATION.agc
000004:                                                                                                  ## Purpose:     The main source file for Luminary revision 069.
000005:                                                                                                  ##              It is part of the source code for the original release
000006:                                                                                                  ##              of the flight software for the Lunar Module's (LM) Apollo
000007:                                                                                                  ##              Guidance Computer (AGC) for Apollo 10. The actual flown
000008:                                                                                                  ##              version was Luminary 69 revision 2, which included a
000009:                                                                                                  ##              newer lunar gravity model and only affected module 2.
000010:                                                                                                  ##              This file is intended to be a faithful transcription, except
000011:                                                                                                  ##              that the code format has been changed to conform to the
000012:                                                                                                  ##              requirements of the yaYUL assembler rather than the
000013:                                                                                                  ##              original YUL assembler.
000014:                                                                                                  ## Reference:   pp. 993-996
000015:                                                                                                  ## Assembler:   yaYUL
000016:                                                                                                  ## Contact:     Ron Burkey <info@sandroid.org>.
000017:                                                                                                  ## Website:     www.ibiblio.org/apollo/index.html
000018:                                                                                                  ## Mod history: 2016-12-13 MAS  Created from Luminary 99.
000019:                                                                                                  ##              2016-12-18 MAS  Updated from comment-proofed Luminary 99 version.
000020:                                                                                                  ##              2017-01-04 RRB  Updated for Luminary 69.
000021:                                                                                                  ##              2017-01-28 RSB  Proofed comment text using octopus/prooferComments
000022:                                                                                                  ##                              but no errors found.
000023:


000025:                                                                                                  #           THE FOLLOWING ROUTINE CAN BE USED TO CALL A SUBROUTINE IN ANOTHER BANK. IN THE BANKCALL VERSION, THE
000026:                                                                                                  #  CADR OF THE SUBROUTINE IMMEDIATELY FOLLOWS THE TC BANKCALL INSTRUCTION, WITH C(A) AND C(L) PRESERVED.
000027:
000028:    4616                                           BLOCK    02
000029:    4616                                           COUNT*   $$/BANK
000030:    4616           52134        BANKCALL           DXCH     BUF2                                  #  SAVE INCOMING A,L.
000031:    4617           50002                           INDEX    Q                                     #  PICK UP CADR.
000032:    4620           30000                           CA       0
000033:    4621           24002                           INCR     Q                                     #  SO WE RETURN TO THE LOC. AFTER THE CADR.
000034:
000035:                                                                                                  #            SWCALL IS IDENTICAL TO BANKCALL, EXCEPT THAT THE CADR ARRIVES IN A.
000036:
000037:    4622           54001        SWCALL             TS       L
000038:    4623           22004                           LXCH     FBANK                                 #  SWITCH BANKS, SAVING RETURN.
000039:    4624           75012                           MASK     LOW10                                 #  GET SUB-ADDRESS OF CADR.
000040:    4625           56002                           XCH      Q                                     #  A,L NOW CONTAINS DP RETURN.
000041:    4626           52134                           DXCH     BUF2                                  #  RESTORING INPUTS IF THIS IS A BANKCALL.
000042:    4627           50002                           INDEX    Q
000043:    4630           02000                           TC       10000                                 #  SETTING Q TO SWRETURN.
000044:
000045:    4631           56134        SWRETURN           XCH      BUF2       +1                         #  COMES HERE TO RETURN TO CALLER. C(A,L)
000046:    4632           56004                           XCH      FBANK                                 #  ARE PRESERVED FOR RETURN.
000047:    4633           56134                           XCH      BUF2       +1
000048:    4634           00133                           TC       BUF2
000049:
000050:                                                                                                  #           THE FOLLOWING ROUTINE CAN BE USED AS A UNILATERAL JUMP WITH C(A,L) PRESERVED AND THE CADR IMMEDIATELY
000051:                                                                                                  #  FOLLOWING THE TC POSTJUMP INSTRUCTION.
000052:
000053:    4635           56002        POSTJUMP           XCH      Q                                     #  SAVE INCOMING C(A).
000054:    4636           50000                           INDEX    A                                     #  GET CADR.
000055:    4637           30000                           CA       0
000056:
000057:                                                                                                  #            BANKJUMP IS THE SAME AS POSTJUMP, EXCEPT THAT THE CADR ARRIVES IN A.
000058:
000059:    4640           54004        BANKJUMP           TS       FBANK
000060:    4641           75012                           MASK     LOW10
000061:    4642           56002                           XCH      Q                                     #  RESTORING INPUT C(A) IF THIS WAS A
000062:    4643           50002        Q+10000            INDEX    Q                                     #  POSTJUMP.
000063:    4644           12000        PRIO12             TCF      10000                                 #  PRIO12 = TCF  10000 = 12000
000064:


000066:                                                                                                  #            THE FOLLOWING ROUTINE GETS THE RETURN CADR SAVED BY SWCALL OR BANKCALL AND LEAVES IT IN A.
000067:
000068:    4645           35012        MAKECADR           CAF      LOW10
000069:    4646           70133                           MASK     BUF2
000070:    4647           60134                           AD       BUF2       +1
000071:    4650           00002                           TC       Q
000072:
000073:    4651           54135        SUPDACAL           TS       MPTEMP
000074:    4652           56004                           XCH      FBANK                                 #  SET FBANK FOR DATA.
000075:    4653           00006                           EXTEND
000076:    4654           04007                           ROR      SUPERBNK                              #  SAVE FBANK IN BITS 15-11, AND
000077:    4655           56135                           XCH      MPTEMP                                #   SUPERBANK IN BITS 7-5.
000078:    4656           75012                           MASK     LOW10
000079:    4657           56001                           XCH      L                                     #  SAVE REL. ADR. IN BANK, FETCH SUPERBITS.
000080:    4660           00004                           INHINT                                         #  BECAUSE RUPT DOES NOT SAVE SUPERBANK.
000081:    4661           00006                           EXTEND
000082:    4662           01007                           WRITE    SUPERBNK                              #  SET SUPERBANK FOR DATA.
000083:    4663           50001                           INDEX    L
000084:    4664           32000                           CA       10000                                 #  PINBALL (FIX MEM DISP) PREVENTS DCA HERE
000085:    4665           56135                           XCH      MPTEMP                                #  SAVE 1ST WD, FETCH OLD FBANK AND SBANK.
000086:    4666           00006                           EXTEND
000087:    4667           01007                           WRITE    SUPERBNK                              #  RESTORE SUPERBANK.
000088:    4670           00003                           RELINT
000089:    4671           54004                           TS       FBANK                                 #  RESTORE FBANK.
000090:    4672           30135                           CA       MPTEMP                                #  RECOVER FIRST WORD OF DATA.
000091:    4673           00002                           RETURN                                         #  24 WDS. DATACALL 516 MU, SUPDACAL 432 MU
000092:


000094:                                                                                                  #           THE FOLLOWING ROUTINES ARE IDENTICAL TO BANKCALL AND SWCALL EXCEPT THAT THEY ARE USED IN INTERRUPT.
000095:
000096:    4674           52073        IBNKCALL           DXCH     RUPTREG3                              #  USES RUPTREG3,4 FOR DP RETURN ADDRESS.
000097:    4675           50002                           INDEX    Q
000098:    4676           30000                           CAF      0
000099:    4677           24002                           INCR     Q
000100:
000101:    4700           54001        ISWCALLL           TS       L
000102:    4701           22004                           LXCH     FBANK
000103:    4702           75012                           MASK     LOW10
000104:    4703           56002                           XCH      Q
000105:    4704           52073                           DXCH     RUPTREG3
000106:    4705           50002                           INDEX    Q
000107:    4706           02000                           TC       10000
000108:
000109:    4707           56073        ISWRETRN           XCH      RUPTREG4
000110:    4710           56004                           XCH      FBANK
000111:    4711           56073                           XCH      RUPTREG4
000112:    4712           00072                           TC       RUPTREG3
000113:
000114:                                                                                                  #  2. USPRCADR ACCESSES INTERPRETIVE CODING IN OTHER THAN THE USER'S FBANK.  THE CALLING SEQUENCE IS AS FOLLOWS:
000115:                                                                                                  #        L       TC      USPRCADR
000116:                                                                                                  #        L+1     CADR    INTPRETX        INTPRETX IS THE INTERPRETIVE CODING
000117:                                                                                                  #                                        RETURN IS TO L+2
000118:
000119:    4713           54164        USPRCADR           TS       LOC                                   #  SAVE A
000120:    4714           34744                           CA       BIT8
000121:    4715           54023                           TS       EDOP                                  #  EXIT INSTRUCTION TO EDOP
000122:    4716           30006                           CA       BBANK
000123:    4717           54165                           TS       BANKSET                               #  USER'S BBANK TO BANKSET
000124:    4720           50002                           INDEX    Q
000125:    4721           30000                           CA       0
000126:    4722           54004                           TS       FBANK                                 #  INTERPRETIVE BANK TO FBANK
000127:    4723           75012                           MASK     LOW10                                 #  YIELDS INTERPRETIVE RELATIVE ADDRESS
000128:    4724           56002                           XCH      Q                                     #  INTERPRETIVE ADDRESS TO Q, FETCHING L+1
000129:    4725           56164                           XCH      LOC                                   #  L+1 TO LOC, RETRIEVING ORIGINAL A
000130:    4726           14643                           TCF      Q+10000
000131:


000133:                                                                                                  #  THERE ARE FOUR POSSIBLE SETTINGS FOR CHANNEL 07.  (CHANNEL 07 CONTAINS THE SUPERBANK SETTING.)
000134:
000135:                                                                                                  #                                        PSEUDO-FIXED      OCTAL PSEUDO
000136:                                                                                                  #  SUPERBANK     SETTING S-REG. VALUE    BANK NUMBERS      ADDRESSES
000137:                                                                                                  #  ----------    ------- ------------     ------------      ------------
000138:                                                                                                  #  SUPERBANK 3     OXX    2000 - 3777       30 - 37       70000 - 107777         (WHERE XX CAN BE ANYTHING AND
000139:                                                                                                  #                                                                                WILL USUALLY BE SEEN AS 11)
000140:                                                                                                  #  SUPERBANK 4     100    2000 - 3777       40 - 47      110000 - 127777         (AS FAR AS IT CAN BE SEEN,
000141:                                                                                                  #                                                                                ONLY BANKS 40-43 WILL EVER BE
000142:                                                                                                  #                                                                                AND ARE PRESENTLY AVAILABLE)
000143:                                                                                                  #  SUPERBANK 5     101    2000 - 3777       50 - 57      130000 - 147777         (PRESENTLY NOT AVAILABLE TO
000144:                                                                                                  #                                                                                THE USER)
000145:                                                                                                  #  SUPERBANK 6     110    2000 - 3777       60 - 67      150000 - 167777         (PRESENTLY NOT AVAILABLE TO
000146:                                                                                                  #                                                                                THE USER)
000147:                                                                                                  #  *** THIS ROUTINE MAY BE CALLED BY ANY PROGRAM LOCATED IN BANKS 00 - 27.  I.E., NO PROGRAM LIVING IN ANY
000148:                                                                                                  #  SUPERBANK SHOULD USE SUPERSW. ***
000149:
000150:                                                                                                  #  SUPERSW MAY BE CALLED IN THIS FASHION:
000151:                                                                                                  #        CAF     ABBCON          WHERE   -- ABBCON   BBCON  SOMETHIN  --
000152:                                                                                                  #        TCR     SUPERSW         (THE SUPERBNK BITS ARE IN THE BBCON)
000153:                                                                                                  #        ...       ...
000154:                                                                                                  #         .         .
000155:                                                                                                  #         .         .
000156:                                                                                                  #  OR IN THIS FASHION:
000157:                                                                                                  #        CAF     SUPERSET        WHERE SUPERSET IS ONE OF THE FOUR AVAILABLE
000158:                                                                                                  #        TCR     SUPERSW         SUPERBANK BIT CONSTANTS:
000159:                                                                                                  #        ...       ...                                   SUPER011 OCTAL  60
000160:                                                                                                  #         .         .                                    SUPER100 OCTAL 100
000161:                                                                                                  #         .         .                                    SUPER101 OCTAL 120
000162:                                                                                                  #                                                        SUPER110 OCTAL 140
000163:
000164:    4727           00006        SUPERSW            EXTEND
000165:    4730           01007                           WRITE    SUPERBNK                              #  WRITE BITS 7-6-5 OF THE ACCUMULATOR INTO
000166:                                                                                                  #  CHANNEL 07
000167:    4731           00002                           TC       Q                                     #  TC TO INSTRUCTION FOLLOWING
000168:                                                                                                  #   TC SUPERSW
000169:

End of include-file INTER-BANK_COMMUNICATION.agc.  Parent file is MAIN.agc


