
Source Code


000002:                                                                                                  ## Copyright:   Public domain.
000003:                                                                                                  ## Filename:    INTEGRATION_INITIALIZATION.agc
000004:                                                                                                  ## Purpose:     The main source file for Luminary revision 069.
000005:                                                                                                  ##              It is part of the source code for the original release
000006:                                                                                                  ##              of the flight software for the Lunar Module's (LM) Apollo
000007:                                                                                                  ##              Guidance Computer (AGC) for Apollo 10. The actual flown
000008:                                                                                                  ##              version was Luminary 69 revision 2, which included a
000009:                                                                                                  ##              newer lunar gravity model and only affected module 2.
000010:                                                                                                  ##              This file is intended to be a faithful transcription, except
000011:                                                                                                  ##              that the code format has been changed to conform to the
000012:                                                                                                  ##              requirements of the yaYUL assembler rather than the
000013:                                                                                                  ##              original YUL assembler.
000014:                                                                                                  ## Reference:   pp. 1200-1222
000015:                                                                                                  ## Assembler:   yaYUL
000016:                                                                                                  ## Contact:     Ron Burkey <info@sandroid.org>.
000017:                                                                                                  ## Website:     www.ibiblio.org/apollo/index.html
000018:                                                                                                  ## Mod history: 2016-12-13 MAS  Created from Luminary 99.
000019:                                                                                                  ##              2016-12-18 MAS  Updated from comment-proofed Luminary 99 version.
000020:                                                                                                  ##              2017-01-22 MAS  Updated for Luminary 69.
000021:                                                                                                  ##              2017-01-22 HG   Add missing label ALLSTALL
000022:                                                                                                  ##                              Add missing operation INDEX L
000023:                                                                                                  ##                              Fix interpretive operator BOF -> BOFCLR
000024:                                                                                                  ##              2017-01-28 RSB  Proofed comment text using octopus/prooferComments
000025:                                                                                                  ##                              but no errors found.
000026:                                                                                                  ##              2017-03-13 RSB  Comment-text fixes noted in proofing Luminary 116.
000027:                                                                                                  ##              2017-03-15 RSB  Comment-text fixes identified in 5-way
000028:                                                                                                  ##                              side-by-side diff of Luminary 69/99/116/131/210.
000029:                                                                                                  ##              2017-08-19 MAS  Fixed comment errors found transcribing Zerlina 56.
000030:


000032:                                                                                                  #  1.0 INTRODUCTION
000033:                                                                                                  #  ----------------
000034:
000035:                                                                                                  #  FROM A USERS POINT OF VIEW, ORBITAL INTEGRATION IS ESSENTIALLY THE SAME AS THE 278 INTEGRATION
000036:                                                                                                  #  PROGRAM. THE SAME ENTRANCES TO THE PROGRAM WILL BE MAINTAINED, THE SAME STALLING ROUTINE WILL BE USED AND
000037:                                                                                                  #  OUTPUT WILL STILL BE VIA THE PUSHLIST. THE PRIMARY DIFFERENCES TO A USER INVOLVE THE ADDED CAPABILITY OF
000038:                                                                                                  #  TERMINATING INTEGRATION AT A SPECIFIC FINAL RADIUS AND THE DIFFERENCE IN STATE VECTOR SCALING INSIDE AND OUT-
000039:                                                                                                  #  SIDE THE LUNAR SPHERE OF INFLUENCE.
000040:
000041:                                                                                                  #  IN ORDER TO MAKE THE CSM(LEM)PREC AND CSM(LEM)CONIC ENTRANCES SIMILAR TO FLIGHT 278, THE INTEGRATION PROGRAM
000042:                                                                                                  #  WILL ITSELF SET THE FINAL RADIUS (RFINAL) TO 0 SO THAT REACHING THE DESIRED TIME ONLY WILL TERMINATE
000043:                                                                                                  #  INTEGRATION. THE DP REGISTER RFINAL MUST BE SET BY USERS OF INTEGRVS AND INTEGRV, AND MUST BE DONE AFTER THE
000044:                                                                                                  #  CALL TC INTSTALL.
000045:
000046:                                                                                                  #  WHEN THE LM IS ON THE LUNAR SURFACE (INDICATED BY LUNAR SURFACE FLAG SET) CALLS TO LEMCONIC, LEMPREC, AND
000047:                                                                                                  #  INTEGRV WITH VINFLAG = 0 WILL RESULT IN THE USE OF THE PLANETARY INERTIAL ORIENTATION SUBROUTINES TO PROVIDE
000048:                                                                                                  #  BOTH THE LMS POSITION AND VELOCITY IN THE REFERENCE COORDINATE  SYSTEM.
000049:                                                                                                  #  THE PROGRAM WILL PROVIDE OUTPUT AS IF INTEGRATION WAS USED. THAT IS, THE PUSHLIST WILL BE SET AS NOTED BELOW AND
000050:                                                                                                  #  THE PERMANENT STATE VECTOR UPDATED WHEN SPECIFIED BY AN INTEGRV CALL.
000051:
000052:                                                                                                  #  USERS OF INTEGRVS DESIRING INTEGRATION (INTYPFLG = 0) SHOULD NOTE THAT THE OBLATENESS PERTURBATION COMPUTATION
000053:                                                                                                  #  IN LUNAR ORBIT IS TIME DEPENDENT. THEREFORE, THE USER SHOULD SUPPLY AN INITIAL STATE VECTOR VALID AT SOME REAL
000054:                                                                                                  #  TIME AND THE DESIRED TIME (TDEC1) ALSO AT SOME REAL TIME. FOR CONIC ,,INTEGRATION,, THE USER MAY STILL USE ZERO
000055:                                                                                                  #  AS THE INITIAL TIME AND DELTA TIME AS THE DESIRED TIME.
000056:
000057:                                                                                                  #  2.0 GENERAL DESCRIPTION
000058:                                                                                                  #  -----------------------
000059:
000060:                                                                                                  #  THE INTEGRATION PROGRAM OPERATES AS A CLOSED INTERPRETIVE SUBROUTINE AND PERFORMS THESE FUNCTIONS---
000061:                                                                                                  #     1) INTEGRATES (PRECISION OR CONIC) EITHER CSM OR LM STATE VECTOR
000062:                                                                                                  #     2) INTEGRATES THE W-MATRIX
000063:                                                                                                  #     3) PERMANENT OR TEMPORARY UPDATE OF THE STATE VECTOR
000064:
000065:                                                                                                  #  THERE ARE SIX ENTRANCES TO THE INTEGRATION PROGRAM. FOUR OF THESE (CSMPREC, LEMPREC, CSMCONIC, LEMCONIC) SET
000066:                                                                                                  #  ALL THE FLAGS REQUIRED IN THE INTEGRATION PROGRAM ITSELF TO CAUSE THE PRECISION OR CONIC INTEGRATION (KEPLER) OF
000067:                                                                                                  #  THE LM OR CSM STATE VECTOR, AS THE NAMES SUGGEST. ONE ENTRANCE (INTEGRVS) PERMITS THE CALLING PROGRAM TO
000068:                                                                                                  #  PROVIDE A STATE VECTOR TO BE INTEGRATED. THE CALLING PROGRAM MUST SET THE FLAGS INDICATING (1) PRECISION OR
000069:                                                                                                  #  CONIC INTEGRATION, (2) IN OR OUT OF LUNAR SPHERE, (3) MIDCOURSE OR NOT, AND THE INTEGRATION PROGRAM COMPLETES
000070:                                                                                                  #  THE FLAG SETTING TO BYPASS W-MATRIX INTEGRATION. THE LAST ENTRANCE (INTEGRV, USED IN GENERAL BY THE
000071:                                                                                                  #  NAVIGATION PROGRAMS) PERMITS THE CALLER TO SET FIVE FLAGS (NOT MOONFLAG OR MIDFLAG) BUT NOT TO INPUT A STATE
000072:                                                                                                  #  VECTOR. ANY PROGRAM WHICH CALLS INTEGRVS OR INTEGRV MUST CALL INTSTALL BEFORE IT SETS THE INTEGRATION FLAGS
000073:                                                                                                  #  AND/OR STATE VECTOR.
000074:
000075:                                                                                                  #  THREE SETS OF 42 REGISTERS AND 2 FLAGS ARE USED FOR THE STATE VECTORS. TWO SETS, WHICH MAY NOT BE OVERLAYED, ARE
000076:                                                                                                  #  USED FOR THE PERMANENT STATE VECTORS FOR THE CSM AND LM. THE THIRD SET, WHICH MAY BE OVERLAYED WHEN INTEGRATION
000077:                                                                                                  #  IS NOT BEING DONE, IS USED IN THE COMPUTATIONS.
000078:
000079:                                                                                                  #  THE PERMANENT STATE VECTORS WILL BE PERIODICALLY UPDATED SO THAT THE VECTORS WILL NOT BE OLDER THAN 4 TIMESTEPS.
000080:                                                                                                  #  THE PERMANENT STATE VECTORS WILL ALSO BE UPDATED WHENEVER THE W-MATRIX IS INTEGRATED OR WHEN A CALLER OF INTEGRV
000081:                                                                                                  #  SETS STATEFLG (THE NAVIGATION PROGRAMS P20, P22.)
000082:


000084:                                                                                                  #  APPENDIX B OF THE USERS GUIDE LISTS THE STATE VECTOR QUANTITIES.
000085:
000086:                                                                                                  #  2.1 RESTARTS
000087:
000088:                                                                                                  #  PHASE CHANGES WILL BE MADE IN THE INTEGRATION PROGRAM ONLY FOR THE INTEGRV ENTRANCE (I.E., WHEN THE W-MATRIX IS
000089:                                                                                                  #  INTEGRATED OR PERMANENT STATE VECTOR IS UPDATED.) THE GROUP NUMBER USED WILL BE THAT FOR THE P20-25 PROGRAMS
000090:                                                                                                  #  (I.E., GROUP2) SINCE THE INTEGRV ENTRANCE WILL ONLY BE USED BY THESE PROGRAMS. IF A RESTART OCCURS DURING AN
000091:                                                                                                  #  INTEGRATION OF THE STATE VECTOR ONLY, THE RECOVERY WILL BE TO THE LAST PHASE IN THE CALLING PROGRAM. CALLING
000092:                                                                                                  #  PROGRAMS WHICH USE THE INTEGRV OR INTEGRVS ENTRANCE OF INTEGRATION SHOULD ENSURE THAT IF PHASE CHANGING IS DONE
000093:                                                                                                  #  THAT IT IS PRIOR TO SETTING THE INTEGRATION INPUTS IN THE PUSHLIST.
000094:                                                                                                  #  THIS IS BECAUSE THE PUSHLIST IS LOST DURING A RESTART.
000095:
000096:                                                                                                  #  2.2 SCALING
000097:
000098:                                                                                                  #  THE INTEGRATION ROUTINE WILL MAINTAIN THE PERMANENT MEMORY STATE VECTORS IN THE SCALING AND UNITS DEFINED IN
000099:                                                                                                  #  APPENDIX B OF THE USERS GUIDE. THE SCALING OF THE OUTPUT POSITION VECTORDEPENDS ON THE ORIGIN OF THE COORDINATE
000100:                                                                                                  #   SYSTEM AT THE DESIRED INTEGRATION TIME. THE COORDINATE SYSTEM TRANSFORMATION WILL BE DONE AUTOMATICALLY ON
000101:                                                                                                  #  MULTIPLE TIMESTEP ENCKE INTEGRATION ONLY. THUS IT IS POSSIBLE TO HAVE OUTPUT FROM SUCCESSIVE INTEGRATIONS IN
000102:                                                                                                  #  DIFFERENT SCALING.
000103:                                                                                                  #  HOWEVER, RATT, VATT WILL ALWAYS BE SCALED THE SAME.
000104:
000105:                                                                                                  #  3.0 INPUT/OUTPUT
000106:                                                                                                  #  ----------------
000107:
000108:                                                                                                  #  PROGRAM INPUTS ARE THE FLAGS DESCRIBED IN APPENDIX A AND THE PERMANENT STATE VECTOR QUANTITIES DESCRIBED IN AP-
000109:                                                                                                  #  PENDIX B OF THE USERS GUIDE, PLUS THE DESIRED TIME TO INTEGRATE TO IN TDEC1 (A PUSH LIST LOCATION).
000110:                                                                                                  #  FOR INTEGRVS, THE RCV,VCV, TET OF THE TEMPORARY STATE VECTOR MUST BE SET, PLUS MOONFLAG AND MIDFLAG
000111:
000112:                                                                                                  #  FOR SIMULATION THE FOLLOWING QUANTITIES MUST BE PRESET ---
000113:                                                                                                  #                                                             EARTH  MOON
000114:                                                                                                  #                                                              29     27
000115:                                                                                                  #     RRECTCSM(LEM)  - RECTIFIED POSITION VECTOR      METERS  2      2
000116:
000117:                                                                                                  #                                                              7      5
000118:                                                                                                  #     VRECTCSM(LEM)  - RECTIFIED VELOCITY VECTOR      M/CSEC  2      2
000119:
000120:                                                                                                  #                                                              28     28
000121:                                                                                                  #     TETCSM(LEM)    - TIME STATE VECTOR IS VALID     CSEC    2      2
000122:                                                                                                  #                      CUSTOMARILY 0, BUT NOTE LUNAR
000123:                                                                                                  #                      ORBIT DEPENDENCE ON REAL TIME.
000124:
000125:                                                                                                  #                                                              22     18
000126:                                                                                                  #     DELTAVCSM(LEM) - POSITION DEVIATION             METERS  2      2
000127:                                                                                                  #                      0 IF TCCSM(LEM) = 0
000128:
000129:                                                                                                  #                                                              3      -1
000130:                                                                                                  #     NUVCSM(LEM)    - VELOCITY DEVIATION             M/CSEC  2      2
000131:                                                                                                  #                      0 IF TCCSM(LEM) = 0


000133:                                                                                                  #                                                              29     27
000134:                                                                                                  #     RCVCSM(LEM)    - CONIC POSITION                 METERS  2      2
000135:                                                                                                  #                      EQUALS RRECTCSM(LEM) IF
000136:                                                                                                  #                      TCCSM(LEM) = 0
000137:
000138:                                                                                                  #                                                              7      5
000139:                                                                                                  #     VCVCSM(LEM)    - CONIC VELOCITY                 M/CSEC  2      2
000140:                                                                                                  #                      EQUALS VRECTCSM(LEM) IF
000141:                                                                                                  #                      TCCSM(LEM) = 0
000142:
000143:                                                                                                  #                                                              28     28
000144:                                                                                                  #     TCCSM(LEM)     - TIME SINCE RECTIFICATION       CSECS   2      2
000145:                                                                                                  #                      CUSTOMARILY 0
000146:
000147:                                                                                                  #                                                      1/2     17     16
000148:                                                                                                  #     XKEPCSM(LEM)   - ROOT OF KEPLERS EQUATION       M       2      2
000149:                                                                                                  #                      0 IF TCCSM(LEM) = 0
000150:
000151:                                                                                                  #     CMOONFLG       - PERMANENT FLAGS CORRESPONDING          0      0
000152:                                                                                                  #     CMIDFLAG         TO MOONFLAG AND MIDFLAG                0,1    0,1
000153:                                                                                                  #     LMOONFLG         C = CSM, L = LM                        0      0
000154:                                                                                                  #     LMIDFLG                                                 0,1    0,1
000155:
000156:                                                                                                  #     SURFFLAG       - LUNAR SURFACE FLAG                     0,1    0,1
000157:
000158:                                                                                                  #  IN ADDITION, IF (L)CMIDFLAG IS SET, THE INITIAL INPUT VALUES FOR LUNAR
000159:                                                                                                  #  SOLAR EPHEMERIDES SUBROUTINE AND PLANETARY INERTIAL ORIENTATION SUB-
000160:                                                                                                  #  ROUTINE MUST BE PRESET.
000161:
000162:                                                                                                  #  OUTPUT
000163:                                                                                                  #  AFTER EVERY CALL TO INTEGRATION
000164:                                                                                                  #                                                             EARTH  MOON
000165:                                                                                                  #                                                              29     29
000166:                                                                                                  #      0D   RATT   POSITION                           METERS  2      2
000167:                                                                                                  #                                                              7      7
000168:                                                                                                  #      6D   VATT   VELOCITY                           M/CSEC  2      2
000169:                                                                                                  #                                                              28     28
000170:                                                                                                  #      12D  TAT    TIME                                       2      2
000171:                                                                                                  #                                                              29     27
000172:                                                                                                  #      14D  RATT1  POSITION                           METERS  2      2
000173:                                                                                                  #                                                              7      5
000174:                                                                                                  #      20D  VATT1  VELOCITY                           M/CSEC  2      2
000175:                                                                                                  #                                                      3   2   36     30
000176:                                                                                                  #      26D  MU(P)  MU                                 M /CS   2      2
000177:
000178:                                                                                                  #      X1          MUTABLE ENTRY                              -2     -10D
000179:
000180:                                                                                                  #      X2          COORDINT
000181:                                                                                                  #      X2          COORDINATE SYSTEM ORIGEN                   0      2
000182:                                                                                                  #                  (THIS, NOT MOONFLAG, SHOULD BE


000184:                                                                                                  #                  USED TO DETERMINE ORIGIN.)
000185:
000186:                                                                                                  #  IN ADDITION TO THE ABOVE, THE PERMANENT STATE VECTOR IS UPDATED WHENEVER
000187:                                                                                                  #  STATEFLG WAS SET AND WHENEVER A W-MATRIX IS TO BE INTEGRATED. THE PUSH
000188:                                                                                                  #  COUNTER IS SET TO 0 AND OVERFLOW IS CLEARED BEFORE RETURNING TO THE
000189:                                                                                                  #  CALLING PROGRAM.
000190:
000191:                                                                                                  #  4.0 CALLING SEQUENCES AND SAMPLE CODE
000192:                                                                                                  #  -------------------------------------
000193:
000194:                                                                                                  #     A) PRECISION ORBITAL INTEGRATION. CSMPREC,LEMPREC ENTRANCES
000195:                                                                                                  #           L-X    STORE TIME TO 95T5791T5 T  95 PUS  L9ST (T4531)
000196:                                                                                                  #           L      CALL
000197:                                                                                                  #           L+1           CSMPREC (OR LEMPREC)
000198:                                                                                                  #           L+2    RETURN
000199:                                                                                                  #        INPUT                                                         28
000200:                                                                                                  #           TDEC1 (PD 32D) TIME TO INTEGRATE TO...CENTISECONDS SCALED 2
000201:                                                                                                  #        OUTPUT
000202:                                                                                                  #           THE DATA LISTED IN SECTION 3.0 PLUS
000203:                                                                                                  #           RQVV   POSITION VECTOR OF VEHICLE WITH RESPECT TO SECONDARY
000204:                                                                                                  #           BODY... METERS B-29 ONLY IF MIDFLAG = DIMOFLAG = 1
000205:                                                                                                  #     B) CONIC INTEGRATION. CSMCONIC, LEMCONIC ENTRANCES
000206:                                                                                                  #           L-X    STORE TIME IN PUSH LIST (TDEC1)
000207:                                                                                                  #           L      CALL
000208:                                                                                                  #           L+1           CSMCONIC (OR LEMCONIC)
000209:                                                                                                  #        INPUT/OUTPUT
000210:                                                                                                  #           SAME AS PRECISION INTEGRATION, EXCEPT RQVV NOT SET
000211:                                                                                                  #     C) INTEGRATE GIVEN STATE VECTOR. INTEGRVS ENTRANCE
000212:                                                                                                  #                  CALL
000213:                                                                                                  #                         INTSTALL
000214:                                                                                                  #                  VLOAD
000215:                                                                                                  #                         POSITION VECTOR
000216:                                                                                                  #                  STOVL  RCV
000217:                                                                                                  #                         VELOCITY VECTOR
000218:                                                                                                  #                  STODL  VCV
000219:                                                                                                  #                         TIME STATE VECTOR VALID
000220:                                                                                                  #                  STODL  TET
000221:                                                                                                  #                         FINAL RADIUS
000222:                                                                                                  #                  STORE  RFINAL
000223:                                                                                                  #                  SET(CLEAR)  SET(CLEAR)
000224:                                                                                                  #                              INTYPFLAG
000225:                                                                                                  #                              MOONFLAG
000226:                                                                                                  #                  SET(CLEAR)  DLOAD
000227:                                                                                                  #                              DESIRED TIME
000228:                                                                                                  #                  STCALL      TDEC1
000229:                                                                                                  #                              INTEGRVS
000230:                                                                                                  #        INPUT
000231:                                                                                                  #           RCV    POSITION VECTOR                  METERS
000232:                                                                                                  #           VCV    VELOCITY VECTOR                  M/CSEC
000233:                                                                                                  #           TET    TIME OF STATE VECTOR(MAY = 0)    CSEC B-28


000235:                                                                                                  #           TDEC1  TIME TO INTEGRATE TO             CSEC B-28 (PD 32D)
000236:                                                                                                  #                        (MAY BE INCREMENT IF TET=0)
000237:                                                                                                  #        OUTPUT
000238:                                                                                                  #           SAME AS FOR PRECISION OR CONIC INTEGRATION,
000239:                                                                                                  #           DEPENDING ON INTYPFLG.
000240:                                                                                                  #     D) INTEGRATE STATE VECTOR.INTGRV ENTRANCE
000241:                                                                                                  #           L-X    STORE TIME IN PUSH LIST (TDEC1) (MAY BE DONE AFTER CALL TO INTSTALL)
000242:                                                                                                  #           L-8    CALL
000243:                                                                                                  #           L-7
000244:                                                                                                  #           L-6    SET(CLEAR) SET(CLEAR)
000245:                                                                                                  #           L-5               VINTFLAG   1=CSM, 0=LM
000246:                                                                                                  #           L-4               INTYPFLAG  1=CONIC, 0=PRECISION
000247:                                                                                                  #           L-3    SET(CLEAR) SET(CLEAR)
000248:                                                                                                  #           L-2               DIMOFLAG   1=W-MATRIX, 0=NO W-MATRIX
000249:                                                                                                  #           L-1               D6OR9FLG   1=9X9, 0=6X6
000250:                                                                                                  #           L      SET        DLOAD
000251:                                                                                                  #           L+1               STATEFLG   DESIRE PERMANENT UPDATE
000252:                                                                                                  #           L+2               FINAL RAD. OF STATE VECTOR
000253:                                                                                                  #           L+3    STCALL     RFINAL
000254:                                                                                                  #           L+4               INTEGRV
000255:                                                                                                  #           L      CALL                  NORMAL USE-- WILL UPDATE STATE
000256:                                                                                                  #           L+1               INTEGRV    VECTOR IF DIMOFLAG=1.(STATEFLG IS
000257:                                                                                                  #           L+2    RETURN                ALWAYS RESET IN INTEGRATION AFTER
000258:                                                                                                  #                                        IT IS USED.)
000259:                                                                                                  #        INPUT
000260:                                                                                                  #           TDEC1 (PD 32D) TIME TO INTEGRATE TO    CSEC B-28
000261:                                                                                                  #        OUTPUT
000262:                                                                                                  #           SAME AS FOR PRECISION OR CONIC INTEGRATION
000263:                                                                                                  #        THE PROGRAM WILL SET MOONFLAG, MIDFLAG DEPENDING ON
000264:                                                                                                  #        THE PERMANENT STATE VECTOR REPRESENTATION.
000265:
000266: 11,2311                                           BANK     11
000267: 13,2000                                           SETLOC   INTINIT
000268: 13,2000                                           BANK
000269: 13,2604  E3,1554                                  EBANK=   RRECTCSM
000270: 13,2604                                           COUNT*   $$/INTIN
000271: 13,2604           05353        STATEINT           TC       PHASCHNG
000272: 13,2605           00052                           OCT      00052
000273: 13,2606           35017                           CAF      PRIO5
000274: 13,2607           05105                           TC       FINDVAC
000275: 13,2610  E3,1554                                  EBANK=   RRECTCSM
000276: 13,2610           02613 26063                     2CADR    STATINT1
000277:
000278: 13,2612           05261                           TC       TASKOVER
000279: 13,2613           06036        STATINT1           TC       INTPRET
000280: 13,2614           47014                           BON      RTB
000281: 13,2615           04712                                    QUITFLAG                              #  KILL INTEGRATION UNTIL NEXT POO.
000282: 13,2616           26653                                    NOINT
000283: 13,2617           21462                                    LOADTIME
000284: 13,2620           00041                           STORE    TDEC1


000286: 13,2621           77624                           CALL
000287: 13,2622           27412                                    INTSTALL
000288: 13,2623           45014                           SET      CALL
000289: 13,2624           01076                                    NODOFLAG
000290: 13,2625           26644                                    SETIFLGS
000291: 13,2626           77650                           GOTO
000292: 13,2627           26026                                    STATEUP
000293: 13,2630           00003 25140  600SECS            2DEC     60000      B-28
000294:
000295: 13,2632           77414        ENDINT             CLEAR    EXIT
000296: 13,2633           01672                                    STATEFLG
000297: 13,2634           05353                           TC       PHASCHNG
000298: 13,2635           20032                           OCT      20032
000299: 13,2636           00006                           EXTEND
000300: 13,2637           32631                           DCA      600SECS
000301: 13,2640           05277                           TC       LONGCALL
000302: 13,2641  E3,1626                                  EBANK=   RRECTHIS
000303: 13,2641           02604 26063                     2CADR    STATEINT
000304:
000305: 13,2643           05155                           TC       ENDOFJOB
000306: 13,2644           43014        SETIFLGS           SET      CLEAR
000307: 13,2645           01472                                    STATEFLG
000308: 13,2646           01673                                    INTYPFLG
000309: 13,2647           43014                           CLEAR    CLEAR
000310: 13,2650           01676                                    DIM0FLAG
000311: 13,2651           01675                                    D6OR9FLG
000312: 13,2652           77616                           RVQ
000313: 13,2653           77776        NOINT              EXIT
000314: 13,2654           05353                           TC       PHASCHNG
000315: 13,2655           00002                           OCT      00002
000316:
000317: 13,2656           05516                           TC       DOWNFLAG
000318: 13,2657           00221                           ADRES    QUITFLAG
000319: 13,2660           05155                           TC       ENDOFJOB
000320:
000321:                                                                                                  #  ATOPCSM TRANSFERS RRECT TO RRECT +41 TO RRECTCSM TO RRECTCSM +41
000322:
000323:                                                                                                  #  CALLING SEQUENCE
000324:                                                                                                  #     L   CALL
000325:                                                                                                  #     L+1       ATOPCSM
000326:
000327:                                                                                                  #  NORMAL EXIT AT L+2
000328:
000329: 13,2661           47020        ATOPCSM            STQ      RTB
000330: 13,2662           00051                                    S2
000331: 13,2663           26674                                    MOVEACSM
000332: 13,2664           45014                           SET      CALL
000333: 13,2665           04063                                    CMOONFLG
000334: 13,2666           26114                                    SVDWN1
000335: 13,2667           43014                           BON      CLRGO


000337: 13,2670           00303                                    MOONFLAG
000338: 13,2671           00051                                    S2
000339: 13,2672           04223                                    CMOONFLG
000340: 13,2673           00051                                    S2
000341: 13,2674           03036        MOVEACSM           TC       SETBANK
000342: 13,2675           55500                           TS       DIFEQCNT                              #  INITIALIZE INDEX
000343: 13,2676           51500                           INDEX    DIFEQCNT
000344: 13,2677           31502                           CA       RRECT
000345: 13,2700           51500                           INDEX    DIFEQCNT
000346: 13,2701           55554                           TS       RRECTCSM
000347: 13,2702           11500                           CCS      DIFEQCNT                              #  IS TRANSFER COMPLETE
000348: 13,2703           12675                           TCF      MOVEACSM   +1                         #  NO-LOOP
000349: 13,2704           06060                           TC       DANZIG                                #  COMPLETE - RETURN
000350:
000351:
000352:                                                                                                  #  PTOACSM TRANSFERS RRECTCSM TO RRECTCSM +41 TO RRECT TO RRECT +41
000353:
000354:                                                                                                  #  CALLING SEQUENCE
000355:                                                                                                  #     L   CALL
000356:                                                                                                  #              PTOACSM
000357:
000358:                                                                                                  #  NORMAL EXIT AT L+2
000359: 13,2705           43034        PTOACSM            RTB      BON
000360: 13,2706           26723                                    MOVEPCSM
000361: 13,2707           04303                                    CMOONFLG
000362: 13,2710           26716                                    SETMOON
000363: 13,2711           66214        CLRMOON            CLEAR    SSP
000364: 13,2712           00263                                    MOONFLAG
000365: 13,2713           02031                                    PBODY
000366: 13,2714           00000                                    0
000367: 13,2715           77616                           RVQ
000368: 13,2716           66214        SETMOON            SET      SSP
000369: 13,2717           00063                                    MOONFLAG
000370: 13,2720           02031                                    PBODY
000371: 13,2721           00002                                    2
000372: 13,2722           77616                           RVQ
000373: 13,2723           03036        MOVEPCSM           TC       SETBANK
000374: 13,2724           55500                           TS       DIFEQCNT
000375: 13,2725           51500                           INDEX    DIFEQCNT
000376: 13,2726           31554                           CA       RRECTCSM
000377: 13,2727           51500                           INDEX    DIFEQCNT
000378: 13,2730           55502                           TS       RRECT
000379: 13,2731           11500                           CCS      DIFEQCNT
000380: 13,2732           12724                           TCF      MOVEPCSM   +1
000381: 13,2733           06060                           TC       DANZIG
000382:
000383:
000384:                                                                                                  #  ATOPLEM TRANSFERS RRECT TO RRECT +41 TO RRECTLEM TO RRECTLEM +41
000385:
000386: 13,2734           47020        ATOPLEM            STQ      RTB


000388: 13,2735           00051                                    S2
000389: 13,2736           26747                                    MOVEALEM
000390: 13,2737           45014                           SET      CALL
000391: 13,2740           04064                                    LMOONFLG
000392: 13,2741           26070                                    SVDWN2
000393: 13,2742           43014                           BON      CLRGO
000394: 13,2743           00303                                    MOONFLAG
000395: 13,2744           00051                                    S2
000396: 13,2745           04224                                    LMOONFLG
000397: 13,2746           00051                                    S2
000398: 13,2747           03036        MOVEALEM           TC       SETBANK
000399: 13,2750           55500                           TS       DIFEQCNT
000400: 13,2751           51500                           INDEX    DIFEQCNT
000401: 13,2752           31502                           CA       RRECT
000402: 13,2753           51500                           INDEX    DIFEQCNT
000403: 13,2754           55626                           TS       RRECTLEM
000404: 13,2755           11500                           CCS      DIFEQCNT
000405: 13,2756           12750                           TCF      MOVEALEM   +1
000406: 13,2757           06060                           TC       DANZIG
000407:
000408:
000409:                                                                                                  #  PTOALEM TRANSFERS RRECTLEM TO RRECTLEM +41 TO RRECT TO RRECT +41
000410:
000411: 13,2760           47014        PTOALEM            BON      RTB
000412: 13,2761           04307                                    SURFFLAG
000413: 13,2762           27001                                    USEPIOS
000414: 13,2763           26770                                    MOVEPLEM
000415: 13,2764           52014                           BON      GOTO
000416: 13,2765           04304                                    LMOONFLG
000417: 13,2766           26716                                    SETMOON
000418: 13,2767           26711                                    CLRMOON
000419: 13,2770           03036        MOVEPLEM           TC       SETBANK
000420: 13,2771           55500                           TS       DIFEQCNT
000421: 13,2772           51500                           INDEX    DIFEQCNT
000422: 13,2773           31626                           CA       RRECTLEM
000423: 13,2774           51500                           INDEX    DIFEQCNT
000424: 13,2775           55502                           TS       RRECT
000425: 13,2776           11500                           CCS      DIFEQCNT
000426: 13,2777           12771                           TCF      MOVEPLEM   +1
000427: 13,3000           06060                           TC       DANZIG
000428:
000429:
000430: 13,3001           77201        USEPIOS            SETPD    VLOAD
000431: 13,3002           00001                                    0
000432: 13,3003           02023                                    RLS
000433: 13,3004           41525                           PDDL     PUSH
000434: 13,3005           00041                                    TDEC1
000435: 13,3006           15517                           STODL    TET
000436: 13,3007           27736                                    5/8
000437: 13,3010           77624                           CALL


000439: 13,3011           51504                                    RP-TO-R
000440: 13,3012           25535                           STOVL    RCV
000441: 13,3013           22267                                    ZUNIT
000442: 13,3014           14001                           STODL    0D
000443: 13,3015           01517                                    TET
000444: 13,3016           14007                           STODL    6D
000445: 13,3017           27736                                    5/8
000446: 13,3020           45014                           SET      CALL                                  #  NEEDED FOR SETTING X1 ON EXIT
000447: 13,3021           00063                                    MOONFLAG
000448: 13,3022           51504                                    RP-TO-R
000449: 13,3023           74235                           VXV      VXSC
000450: 13,3024           01535                                    RCV
000451: 13,3025           26001                                    OMEGMOON
000452: 13,3026           25543                           STOVL    VCV
000453: 13,3027           22275                                    ZEROVEC
000454: 13,3030           01521                           STORE    TDELTAV
000455: 13,3031           67174                           AXT,2    SXA,2
000456: 13,3032           00002                                    2
000457: 13,3033           02030                                    PBODY
000458: 13,3034           35527                           STCALL   TNUV
000459: 13,3035           27157                                    A-PCHK
000460: 13,3036           33042        SETBANK            CAF      INTBANK
000461: 13,3037           54006                           TS       BBANK
000462: 13,3040           33457                           CAF      FORTYONE
000463: 13,3041           00002                           TC       Q
000464: 13,3042  E3,1554                                  EBANK=   RRECTCSM
000465: 13,3042           26063        INTBANK            BBCON    INTEGRV
000466:
000467:
000468:                                                                                                  #  SPECIAL PURPOSE ENTRIES TO ORBITAL INTEGRATION. THESE ROUTINES PROVIDE ENTRANCES TO INTEGRATION WITH
000469:                                                                                                  #  APPROPRIATE SWITCHES SET OR CLEARED FOR THE DESIRED INTEGRATION.
000470:
000471:                                                                                                  #  CSMPREC AND LEMPREC PERFORM ORBIT INTEGRATION BY THE ENCKE METHOD TO THE TIME INDICATED IN TDEC1
000472:                                                                                                  #  ACCELERATIONS DUE TO OBLATENESS ARE INCLUDED. NO W-MATRIX INT. IS DONE.
000473:                                                                                                  #  THE PERMANENT STATE VECTOR IS NOT UPDATED.
000474:                                                                                                  #  CSMCONIC AND LEMCONIC PERFORM ORBIT INTEG. BY KEPLERS METHOD TO THE TIME INDICATED IN TDEC1
000475:                                                                                                  #  NO DISTURBING ACCELERATIONS ARE INCLUDED. IN THE PROGRAM FLOW THE GIVEN
000476:                                                                                                  #  STATE VECTOR IS RECTIFIED BEFORE SOLUTION OF KEPLERS EQUATION
000477:
000478:                                                                                                  #  THE ROUTINES ASSUME THAT THE CSM (LEM) STATE VECTOR IN P-MEM IS VALID.
000479:                                                                                                  #  SWITCHES SET PRIOR TO ENTRY TO THE MAIN INTEG. PROG ARE AS FOLLOWS
000480:                                                                                                  #              CSMPREC  CSMCONIC   LEMPREC  LEMCONIC
000481:                                                                                                  #  VINTFLAG    SET        SET       CLEAR    CLEAR
000482:                                                                                                  #  INTYPFLG    CLEAR      SET       CLEAR    SET
000483:                                                                                                  #  DIM0FLAG    CLEAR      CLEAR     CLEAR    CLEAR
000484:
000485:
000486:                                                                                                  #  CALLING SEQUENCE
000487:                                                                                                  #     L-X  STORE TDEC1
000488:                                                                                                  #     L    CALL       (STCALL TDEC1)


000490:                                                                                                  #    L+1         CSMPREC (CSMCONIC, LEMPREC, LEMCONIC)
000491:
000492:                                                                                                  #  NORMAL EXIT TO L+2
000493:
000494:
000495:                                                                                                  #  SUBROUTINES CALLED
000496:                                                                                                  #    INTEGRV1
000497:                                                                                                  #    PRECOUT FOR CSMPREC AND LEMPREC
000498:                                                                                                  #    CONICOUT  FOR CSMCONIC AND LEMCONIC
000499:
000500:
000501:                                                                                                  #  OUTPUT - SEE PAGE 2 OF THIS LOG SECTION
000502:                                                                                                  #  INPUT
000503:                                                                                                  #   TDEC1   TIME TO INTEGRATE TO . CSECS B-28
000504: 13,3043           45020        CSMPREC            STQ      CALL
000505: 13,3044           00046                                    X1
000506: 13,3045           27412                                    INTSTALL
000507: 13,3046           43130                           SXA,1    SET
000508: 13,3047           02102                                    IRETURN
000509: 13,3050           01474                                    VINTFLAG
000510:
000511: 13,3051           43014        IFLAGP             SET      CLEAR
000512: 13,3052           01467                                    PRECIFLG
000513: 13,3053           01676                                    DIM0FLAG
000514: 13,3054           77614                           CLRGO
000515: 13,3055           01633                                    INTYPFLG
000516: 13,3056           27136                                    INTEGRV1
000517: 13,3057           45020        LEMPREC            STQ      CALL
000518: 13,3060           00046                                    X1
000519: 13,3061           27412                                    INTSTALL
000520: 13,3062           43130                           SXA,1    CLRGO
000521: 13,3063           02102                                    IRETURN
000522: 13,3064           01634                                    VINTFLAG
000523: 13,3065           27051                                    IFLAGP
000524:
000525: 13,3066           45020        CSMCONIC           STQ      CALL
000526: 13,3067           00046                                    X1
000527: 13,3070           27412                                    INTSTALL
000528: 13,3071           43130                           SXA,1    SET
000529: 13,3072           02102                                    IRETURN
000530: 13,3073           01474                                    VINTFLAG
000531: 13,3074           43014        IFLAGC             CLEAR    SETGO
000532: 13,3075           01676                                    DIM0FLAG
000533: 13,3076           01433                                    INTYPFLG
000534: 13,3077           27136                                    INTEGRV1
000535: 13,3100           45020        LEMCONIC           STQ      CALL
000536: 13,3101           00046                                    X1
000537: 13,3102           27412                                    INTSTALL
000538: 13,3103           43130                           SXA,1    CLRGO
000539: 13,3104           02102                                    IRETURN


000541: 13,3105           01634                                    VINTFLAG
000542: 13,3106           27074                                    IFLAGC
000543:
000544: 13,3107           66214        INTEGRVS           SET      SSP
000545: 13,3110           01467                                    PRECIFLG
000546: 13,3111           02031                                    PBODY
000547: 13,3112           00000                                    0
000548: 13,3113           66214                           BOF      SSP
000549: 13,3114           00343                                    MOONFLAG
000550: 13,3115           27120                                    +3
000551: 13,3116           02031                                    PBODY
000552: 13,3117           00002                                    2
000553: 13,3120           77220                           STQ      VLOAD
000554: 13,3121           02102                                    IRETURN
000555: 13,3122           22275                                    ZEROVEC
000556: 13,3123           01521                           STORE    TDELTAV
000557: 13,3124           35527                           STCALL   TNUV
000558: 13,3125           23345                                    RECTIFY
000559: 13,3126           43014                           CLEAR    SET
000560: 13,3127           01676                                    DIM0FLAG
000561: 13,3130           04062                                    NEWIFLG
000562: 13,3131           77614                           SETGO
000563: 13,3132           04020                                    RPQFLAG
000564: 13,3133           27150                                    ALOADED
000565:                                                                                                  #  INTEGRV IS AN ENTRY TO ORBIT INTEGRATION WHICH PERMITS THE CALLER ,
000566:                                                                                                  #  NORMALLY THE NAVIGATION PROGRAM ,TO SET THE INTEG. FLAGS. THE ROUTINE
000567:                                                                                                  #  IS ENTERED AT INTEGRV1 BY CSMPREC ET.AL. AND AT ALOADED BY INTEGRVS.
000568:                                                                                                  #  THE ROUTINE SETS UP A-MEMORY IF ENTERED AT INTEGRV,1 AND SETS THE INTEG.
000569:                                                                                                  #  PROGRAM FOR PRECISION OR CONIC
000570:
000571:                                                                                                  #  THE CALLER MUST FIRST CALL INTSTALL TO CHECK IF INTEG. IS IN USE BEFORE
000572:                                                                                                  #  SETTING ANY FLAGS.
000573:                                                                                                  #  THE FLAGS WHICH SHOULD BE SET OR CLEARED ARE
000574:                                                                                                  #    VINTFLAG    (IGNORED WHEN ENTERED FROM INTEGRVS)
000575:                                                                                                  #    INTYPFLG
000576:                                                                                                  #    DIM0FLAG
000577:                                                                                                  #    D6OR9FLG
000578:                                                                                                  #  CALLING SEQUENCE
000579:                                                                                                  #    L-X    CALL
000580:                                                                                                  #    L-Y          INTSTALL
000581:                                                                                                  #    L-1    SET OR CLEAR ALL FOUR FLAGS. ALSO CAN SET STATEFLG IF DESIRED
000582:                                                                                                  #           AND DIM0FLAG IS CLEAR.
000583:                                                                                                  #    L      CALL
000584:                                                                                                  #    L+1          INTEGRV
000585:                                                                                                  #  INITIALIZATION
000586:                                                                                                  #    FLAGS AS ABOVE
000587:                                                                                                  #    STORE TIME TO INTEGRATE TO IN TDEC1
000588:                                                                                                  #  OUTPUT
000589:                                                                                                  #    RATT   AS
000590:                                                                                                  #    VATT      DEFINED


000592:                                                                                                  #    TAT               BEFORE
000593:
000594:
000595: 13,3134           77620        INTEGRV            STQ
000596: 13,3135           02102                                    IRETURN
000597: 13,3136           43014        INTEGRV1           SET      SET
000598: 13,3137           04060                                    RPQFLAG
000599: 13,3140           04062                                    NEWIFLG
000600: 13,3141           77731        INTEGRV2           SSP
000601: 13,3142           00053                                    QPRET
000602: 13,3143           27150                                    ALOADED
000603: 13,3144           52014                           BON      GOTO
000604: 13,3145           01714                                    VINTFLAG
000605: 13,3146           26705                                    PTOACSM
000606: 13,3147           26760                                    PTOALEM
000607: 13,3150           77745        ALOADED            DLOAD
000608: 13,3151           00041                                    TDEC1
000609: 13,3152           01116                           STORE    TDEC
000610: 13,3153           52014                           BOFF     GOTO
000611: 13,3154           01753                                    INTYPFLG
000612: 13,3155           27255                                    TESTLOOP
000613: 13,3156           27241                                    RVCON
000614: 13,3157           77414        A-PCHK             BOFCLR   EXIT
000615: 13,3160           01652                                    STATEFLG
000616: 13,3161           27200                                    RECTOUT
000617: 13,3162           05353                           TC       PHASCHNG
000618: 13,3163           04022                           OCT      04022
000619: 13,3164           05504                           TC       UPFLAG                                #  PHASE CHANGE HAS OCCURRED BETWEEN
000620: 13,3165           00236                           ADRES    REINTFLG                              #  INTSTALL AND INTWAKE
000621: 13,3166           06036                           TC       INTPRET
000622: 13,3167           77731                           SSP
000623: 13,3170           00053                                    QPRET
000624: 13,3171           27176                                    PHEXIT
000625: 13,3172           52014                           BON      GOTO
000626: 13,3173           01714                                    VINTFLAG
000627: 13,3174           26661                                    ATOPCSM
000628: 13,3175           26734                                    ATOPLEM
000629: 13,3176           77624        PHEXIT             CALL
000630: 13,3177           11165                                    GRP2PC
000631: 13,3200           45001        RECTOUT            SETPD    CALL
000632: 13,3201           00001                                    0
000633: 13,3202           23345                                    RECTIFY
000634: 13,3203           53775                           VLOAD    VSL*
000635: 13,3204           01503                                    RRECT
000636: 13,3205           57576                                    0,2
000637: 13,3206           53715                           PDVL     VSL*                                  #  RATT TO PD0
000638: 13,3207           01511                                    VRECT
000639: 13,3210           57576                                    0,2
000640: 13,3211           63325                           PDDL     PDVL                                  #  VATT TO PD6    TAT TO PD12
000641: 13,3212           01517                                    TET


000643: 13,3213           01503                                    RRECT
000644: 13,3214           64715                           PDVL     PDDL*
000645: 13,3215           01511                                    VRECT
000646: 13,3216           51770                                    MUEARTH,2
000647: 13,3217           76006                           PUSH     AXT,1
000648: 13,3220           77765                           DEC      -10        B-14
000649: 13,3221           76014                           BON      AXT,1
000650: 13,3222           00303                                    MOONFLAG
000651: 13,3223           27225                                    +2
000652: 13,3224           77775                           DEC      -2         B-14
000653: 13,3225           40001        INTEXIT            SETPD    BOV
000654: 13,3226           00001                                    0
000655: 13,3227           27230                                    +1
000656: 13,3230           43014                           CLEAR    CLEAR
000657: 13,3231           04676                                    AVEMIDSW                              #  ALLOW UPDATE OF DOWNLINK STATE VECTOR
000658: 13,3232           01667                                    PRECIFLG
000659: 13,3233           77535                           SLOAD    EXIT
000660: 13,3234           02103                                    IRETURN
000661: 13,3235           30154                           CA       MPAC
000662: 13,3236           50120                           INDEX    FIXLOC
000663: 13,3237           54052                           TS       QPRET
000664: 13,3240           03427                           TC       INTWAKE
000665:                                                                                                  #  RVCON SETS UP ORBIT INTEGRATION TO DO A CONIC SOLUTION FOR POSITION AND
000666:                                                                                                  #  VELOCITY FOR THE INTERVAL (TET-TDEC)
000667:
000668: 13,3241           45345        RVCON              DLOAD    DSU
000669: 13,3242           01116                                    TDEC
000670: 13,3243           01517                                    TET
000671: 13,3244           36074                           STCALL   TAU.
000672: 13,3245           23345                                    RECTIFY
000673: 13,3246           77624                           CALL
000674: 13,3247           22311                                    KEPPREP
000675: 13,3250           43345                           DLOAD    DAD
000676: 13,3251           01551                                    TC
000677: 13,3252           01517                                    TET
000678: 13,3253           35517                           STCALL   TET
000679: 13,3254           27200                                    RECTOUT
000680:


000682:                                                                                                  #           TESTLOOP
000683:
000684: 13,3255           43014        TESTLOOP           BOF      CLRGO
000685: 13,3256           04752                                    QUITFLAG
000686: 13,3257           27262                                    +3
000687: 13,3260           01632                                    STATEFLG
000688: 13,3261           27225                                    INTEXIT                               #  STOP INTEGRATION
000689: 13,3262           73001                 +3        SETPD    LXA,2
000690: 13,3263           00013                                    10D
000691: 13,3264           02030                                    PBODY
000692: 13,3265           51575                           VLOAD    ABVAL
000693: 13,3266           01535                                    RCV
000694: 13,3267           43006                           PUSH     CLEAR                                 #  RC TO 10D
000695: 13,3270           00262                                    MIDFLAG
000696: 13,3271           50023                           DSU*     BMN                                   #  MIDFLAG=0 IF R G.T. RMP
000697: 13,3272           55467                                    RME,2
000698: 13,3273           27276                                    +3
000699: 13,3274           77614                           SET
000700: 13,3275           00062                                    MIDFLAG
000701: 13,3276           41345        NORFINAL           DLOAD    DMP
000702: 13,3277           00013                                    10D
000703: 13,3300           00043                                    34D
000704: 13,3301           55762                           SR1R     DDV*
000705: 13,3302           51770                                    MUEARTH,2
000706: 13,3303           41366                           SQRT     DMP
000707: 13,3304           23676                                    .3D
000708: 13,3305           40442                           SR3      SR4                                   #  DT   IS TRUNCATED TO A MULTIPLE
000709: 13,3306           54345                           DLOAD    SL
000710: 13,3307           00155                                    MPAC
000711: 13,3310           20220                                    15D                                   #        OF 128 CSECS.
000712: 13,3311           40006                           PUSH     BOV
000713: 13,3312           27337                                    MAXDT
000714: 13,3313           50021                           BDSU     BMN
000715: 13,3314           27411                                    DT/2MAX
000716: 13,3315           27337                                    MAXDT
000717: 13,3316           45345        DT/2COMP           DLOAD    DSU
000718: 13,3317           01116                                    TDEC
000719: 13,3320           01517                                    TET
000720: 13,3321           54234                           RTB      SL
000721: 13,3322           21516                                    SGNAGREE
000722: 13,3323           20211                                    8D
000723: 13,3324           02076                           STORE    DT/2                                  #  B-19
000724: 13,3325           51400                           BOV      ABS
000725: 13,3326           27343                                    GETMAXDT
000726: 13,3327           50025                           DSU      BMN                                   #  IS TIME TO INTEG. TO GR THAN MAXTIME
000727: 13,3330           00015                                    12D
000728: 13,3331           27347                                    P00HCHK
000729: 13,3332           75345        USEMAXDT           DLOAD    SIGN
000730: 13,3333           00015                                    12D
000731: 13,3334           02076                                    DT/2


000733: 13,3335           36076                           STCALL   DT/2
000734: 13,3336           27347                                    P00HCHK
000735: 13,3337           65345        MAXDT              DLOAD    PDDL                                  #  EXCHANGE DT/2MAX WITH COMPUTED MAX.
000736: 13,3340           27411                                    DT/2MAX
000737: 13,3341           77650                           GOTO
000738: 13,3342           27316                                    DT/2COMP
000739: 13,3343           77634        GETMAXDT           RTB
000740: 13,3344           21664                                    SIGNMPAC
000741: 13,3345           36076                           STCALL   DT/2
000742: 13,3346           27332                                    USEMAXDT
000743: 13,3347           51545        P00HCHK            DLOAD    ABS
000744: 13,3350           02076                                    DT/2
000745: 13,3351           50025                           DSU      BMN
000746: 13,3352           27407                                    DT/2MIN
000747: 13,3353           27157                                    A-PCHK
000748: 13,3354           46135                           SLOAD    BHIZ
000749: 13,3355           01012                                    MODREG
000750: 13,3356           27361                                    +3
000751: 13,3357           77650                           GOTO
000752: 13,3360           23156                                    TIMESTEP
000753: 13,3361           77614                           BON                                            #  WAS THIS CALL VIA CSM(LEM)PREC
000754: 13,3362           01707                                    PRECIFLG
000755: 13,3363           23156                                    TIMESTEP                              #  YES
000756: 13,3364           45345                           DLOAD    DSU
000757: 13,3365           02076                                    DT/2
000758: 13,3366           00015                                    12D
000759: 13,3367           43040                           BMN      BOFCLR
000760: 13,3370           27157                                    A-PCHK
000761: 13,3371           04242                                    NEWIFLG
000762: 13,3372           23156                                    TIMESTEP
000763: 13,3373           45345                           DLOAD    DSU
000764: 13,3374           01116                                    TDEC
000765: 13,3375           01517                                    TET
000766: 13,3376           77640                           BMN                                            #  NO BACKWARD INTEGRATION
000767: 13,3377           27225                                    INTEXIT
000768: 13,3400           40525                           PDDL     SR4
000769: 13,3401           02076                                    DT/2                                  #  IS 4(DT) LS (TDEC - TET)
000770: 13,3402           44322                           SR2R     BDSU                                  #  NO
000771: 13,3403           52040                           BMN      GOTO
000772: 13,3404           27225                                    INTEXIT
000773: 13,3405           23156                                    TIMESTEP
000774: 13,3406           00000 01400  DT/2MIN            2DEC     3          B-20
000775:
000776: 13,3410           14152 00000  DT/2MAX            2DEC     4000       E2         B-20
000777:
000778: 13,3412           77776        INTSTALL           EXIT
000779: 13,3413           34755                           CAF      ZERO
000780: 13,3414           54001        ALLSTALL           TS       L
000781: 13,3415           30106                           CA       RASFLAG
000782: 13,3416           50001                           INDEX    L


000784: 13,3417           73510                           MASK     INTBITAB                              #  IS THIS STALL AREA FREE
000785: 13,3420           00006                           EXTEND
000786: 13,3421           13466                           BZF      OKTOGRAB                              #  YES
000787: 13,3422           50001                           INDEX    L
000788: 13,3423           33505                           CAF      WAKESTAL
000789: 13,3424           05133                           TC       JOBSLEEP
000790: 13,3425           77776        INTWAKE0           EXIT
000791: 13,3426           13447                           TCF      INTWAKE1
000792:
000793: 13,3427           40106        INTWAKE            CS       RASFLAG                               #  IS THIS INTSTALLED ROUTINE TO BE
000794: 13,3430           74745                           MASK     REINTBIT                              #       RESTARTED
000795: 13,3431           10000                           CCS      A
000796: 13,3432           03447                           TC       INTWAKE1                              #  NO
000797:
000798: 13,3433           50120                           INDEX    FIXLOC
000799: 13,3434           30052                           CA       QPRET
000800: 13,3435           55055                           TS       TBASE2                                #  YES, DONT RESTART WITH SOMEONE ELSES Q
000801:
000802: 13,3436           05353                           TC       PHASCHNG
000803: 13,3437           04022                           OCT      04022
000804:
000805: 13,3440           31055                           CA       TBASE2
000806: 13,3441           50120                           INDEX    FIXLOC
000807: 13,3442           54052                           TS       QPRET
000808:
000809: 13,3443           34745                           CAF      REINTBIT
000810: 13,3444           70106                           MASK     RASFLAG
000811: 13,3445           00006                           EXTEND
000812: 13,3446           13471                           BZF      GOBAC                                 #  DONT INTWAKE IF WE CAME HERE VIA RESTART
000813:
000814: 13,3447           34755        INTWAKE1           CAF      ZERO
000815: 13,3450           54154        WAKE               TS       STALTEM                               #  INDEX OF ANY STALL USER
000816: 13,3451           50154        WAKE1              INDEX    STALTEM
000817: 13,3452           33505                           CAF      WAKESTAL
000818: 13,3453           00004                           INHINT
000819: 13,3454           05137                           TC       JOBWAKE
000820: 13,3455           10064                           CCS      LOCCTR
000821: 13,3456           13451                           TCF      WAKE1                                 #  MAY BE MORE TO WAKE UP
000822: 13,3457           00051        FORTYONE           DEC      41         B-14
000823: 13,3460           50154                           INDEX    STALTEM
000824: 13,3461           43510                           CS       INTBITAB
000825: 13,3462           70106                           MASK     RASFLAG
000826: 13,3463           54106                           TS       RASFLAG                               #  RELEASE STALL AREA
000827: 13,3464           00003                           RELINT
000828: 13,3465           13471                           TCF      GOBAC
000829: 13,3466           50001        OKTOGRAB           INDEX    L                                     #  NO, WAIT UNTIL AVAILABLE
000830: 13,3467           34736                           CAF      INTFLBIT
000831: 13,3470           26106                           ADS      RASFLAG
000832: 13,3471           06036        GOBAC              TC       INTPRET
000833: 13,3472           77616                           RVQ


000835: 13,3473           77776        ERASTAL1           EXIT
000836: 13,3474           34753                           CAF      ONE
000837: 13,3475           13414                           TCF      ALLSTALL
000838: 13,3476           77776        ERASTAL2           EXIT
000839: 13,3477           34752                           CAF      TWO
000840: 13,3500           13414                           TCF      ALLSTALL
000841: 13,3501           34753        ERASWAK1           CAF      ONE
000842: 13,3502           13450                           TCF      WAKE
000843: 13,3503           34752        ERASWAK2           CAF      TWO
000844: 13,3504           13450                           TCF      WAKE
000845: 13,3505           27413        WAKESTAL           CADR     INTSTALL   +1
000846: 13,3506           27474                           CADR     ERASTAL1   +1
000847: 13,3507           27477                           CADR     ERASTAL2   +1
000848: 13,3510     0154               STALTEM            EQUALS   MPAC
000849: 13,3510           20100        INTBITAB           OCT      20100
000850: 13,3511           10040                           OCT      10040
000851: 13,3512           04020                           OCT      04020
000852:


000854:                                                                                                  #  AVETOMID
000855:
000856:                                                                                                  #  THIS ROUTINE PERFORMS THE TRANSITION FROM A THRUSTING PHASE TO THE COAST
000857:                                                                                                  #  PHASE BY INITIALIZING THIS VEHICLES PERMANENT STATE VECTOR WITH THE
000858:                                                                                                  #  VALUES LEFT BY THE AVERAGEG ROUTINE IN RN,VN,PIPTIME.
000859:
000860:                                                                                                  #  BEFORE THIS IS DONE THE W-MATRIX, IF ITS  VALID (ORWFLAG OR RENDWFLG IS
000861:                                                                                                  #  SET) IS INTEGRATED FORWARD TO PIPTIME WITH THE PRE-THRUST STATE VECTOR.
000862:
000863:                                                                                                  #  IN ADDITION, THE OTHER VEHICLE IS INTEGRATED (PERMANENT) TO PIPTIME.
000864:
000865:                                                                                                  #  FINALLY TRKMKCNT IS ZEROED
000866:
000867: 13,2000                                           SETLOC   INTINIT
000868: 13,2000                                           BANK
000869:
000870: 13,3513                                           COUNT*   $$/INTIN
000871: 13,3513           43020        AVETOMID           STQ      BON
000872: 13,3514           02772                                    EGRESS
000873: 13,3515           02716                                    RENDWFLG
000874: 13,3516           27562                                    INT/W                                 #  W-MATRIX VALID ,GO INTEGRATE IT
000875: 13,3517           77614                           BON
000876: 13,3520           01711                                    ORBWFLAG
000877: 13,3521           27562                                    INT/W                                 #  W-MATRIX VALID ,GO INTEGRATE IT
000878:
000879: 13,3522           45145        OTHERS             DLOAD    CALL                                  #  GET SET FOR OTHER VEHICLE INTEGRATION
000880: 13,3523           01235                                    PIPTIME                               #  DESIRED TIME
000881: 13,3524           27412                                    INTSTALL
000882: 13,3525           45014                           SET      CALL
000883: 13,3526           01474                                    VINTFLAG                              #  CM
000884: 13,3527           26644                                    SETIFLGS                              #  SETS UP NONE W-MAT. PERMANENT INTEG.
000885: 13,3530           34041                           STCALL   TDEC1
000886: 13,3531           27134                                    INTEGRV
000887:
000888: 13,3532           45174                           AXT,2    CALL                                  #  NOW MOVE PROPERLY SCALE RN,UN AS WELL AS
000889: 13,3533           00002                                    2                                     #  PIPTIME TO INTEGRATION ERASABLES.
000890: 13,3534           27412                                    INTSTALL
000891: 13,3535           77014                           BON      AXT,2
000892: 13,3536           04304                                    MOONTHIS
000893: 13,3537           27541                                    +2
000894: 13,3540           00000                                    0
000895: 13,3541           53775                           VLOAD    VSR*
000896: 13,3542           01221                                    RN
000897: 13,3543           57176                                    0,2
000898: 13,3544           01503                           STORE    RRECT
000899: 13,3545           15535                           STODL    RCV
000900: 13,3546           01235                                    PIPTIME
000901: 13,3547           25517                           STOVL    TET
000902: 13,3550           01227                                    VN


000904: 13,3551           45057                           VSR*     CALL
000905: 13,3552           57176                                    0,2
000906: 13,3553           23361                                    MINIRECT                              #  FINISH SETTING UP STATE VECTOR
000907: 13,3554           66234                           RTB      SSP
000908: 13,3555           26747                                    MOVATHIS                              #  PUT TEMP STATE VECTOR INTO PERMANENT
000909: 13,3556           03461                                    TRKMKCNT
000910: 13,3557           00000                                    0
000911: 13,3560           77650                           GOTO
000912: 13,3561           47130                                    FAZAB5
000913:
000914: 13,3562           45145        INT/W              DLOAD    CALL
000915: 13,3563           01235                                    PIPTIME                               #  INTEGRATE W THRU BURN
000916: 13,3564           27412                                    INTSTALL
000917: 13,3565           43014                           SET      SET
000918: 13,3566           01476                                    DIM0FLAG                              #  DO W-MATRIX
000919: 13,3567           04476                                    AVEMIDSW                              #  SO WONT CLOBBER RN,VN,PIPTIME
000920: 13,3570           43014                           SET      CLEAR
000921: 13,3571           01475                                    D6OR9FLG                              #  9X9 FOR LM
000922: 13,3572           01674                                    VINTFLAG                              #  LM
000923: 13,3573           34041                           STCALL   TDEC1
000924: 13,3574           27134                                    INTEGRV
000925: 13,3575           77650                           GOTO
000926: 13,3576           27522                                    OTHERS                                #  NOW GO DO THE OTHER VEHICLE
000927:


000929:                                                                                                  #  MIDTOAV1
000930:
000931:                                                                                                  #  THIS ROUTINE INTEGRATES (PRECISION) TO THE TIME SPECIFIED IN TDEC1.
000932:                                                                                                  #  IF, AT THE END OF AN INTEGRATION TIME STEP, CURRENT TIME PLUS A DELTA
000933:                                                                                                  #  TIME (SEE TIMEDELT.....BASED ON THE COMPUTATUON TIME FOR ONE TIME STEP)
000934:                                                                                                  #  IS GREATER THAN THE DESIRED TIME, ALARM 1703 IS SET AND THE INTEGRATION
000935:                                                                                                  #  IS DONE TO THE CURRENT TIME.
000936:                                                                                                  #  RETURN IS IN BASIC TO THE RETURN ADDRESS PLUS ONE.
000937:
000938:                                                                                                  #  IF THE INTEGRATION IS FINISHED TO THE DESIRED TIME, RETURN IS IN BASIC
000939:                                                                                                  #  TO THE RETURN ADDRESS
000940:
000941:                                                                                                  #  IN EITHER CASE , BEFORE RETURNING, THE EXTRAPOLATED STATE VECTOR IS TRAN
000942:                                                                                                  #  FERRED FROM R,VATT TO R,VN1-PIPTIME1 IS SET TO THE FINISHING INTEGRA-
000943:                                                                                                  #  TION TIME AND MPAC IS SET TO THE DELTA TIME---
000944:                                                                                                  #                                    TAT MINUS CURRENT TIME.
000945:
000946:
000947:                                                                                                  #  MIDTOAV2
000948:
000949:                                                                                                  #  THIS ROUTINE INTEGRATES THIS VEHICLES STATE VECTOR TO THE CURRENT TIME.
000950:                                                                                                  #  NO INPUTS ARE REQUIRED OF THE CALLER. RETURN IS IN BASIC TO THE RETURN
000951:                                                                                                  #  ADDRESS WITH THE ABOVE TRANSFERS TO R,VN1-PIPTIME1-AND MPAC DONE
000952:
000953: 13,3577  E7,1743                                  EBANK=   IRETURN1
000954: 13,3577           43020        MIDTOAV2           STQ      CLRGO                                 #  INTEGRATE TO PRESENT TIME PLUS TIMEDELT
000955: 13,3600           03743                                    IRETURN1
000956: 13,3601           04634                                    MID1FLAG
000957: 13,3602           27616                                    ENTMID2
000958:
000959: 13,3603           43020        MIDTOAV1           STQ      SET                                   #   INTEGRATE TO TDEC1
000960: 13,3604           03743                                    IRETURN1
000961: 13,3605           04474                                    MID1FLAG
000962: 13,3606           43234                           RTB      DAD                                   #  INITIAL CHECK, IS TDEC1 IN THE FUTURE
000963: 13,3607           21462                                    LOADTIME
000964: 13,3610           27720                                    TIMEDELT
000965: 13,3611           51021                           BDSU     BPL
000966: 13,3612           00041                                    TDEC1
000967: 13,3613           27622                                    ENTMID1                               #   Y5S
000968: 13,3614           77624                           CALL
000969: 13,3615           27706                                    NOTIME                                #  NO, SET ALARM, SWITCH TO MIDTOAV2
000970:
000971: 13,3616           43234        ENTMID2            RTB      DAD
000972: 13,3617           21462                                    LOADTIME
000973: 13,3620           27720                                    TIMEDELT
000974: 13,3621           00041                           STORE    TDEC1
000975:
000976: 13,3622           77624        ENTMID1            CALL
000977: 13,3623           27412                                    INTSTALL
000978: 13,3624           45014                           CLEAR    CALL


000980: 13,3625           01676                                    DIM0FLAG                              #  NO W-MATRIX
000981: 13,3626           26066                                    THISVINT
000982: 13,3627           43014                           CLEAR    SET
000983: 13,3630           01673                                    INTYPFLG
000984: 13,3631           04475                                    MIDAVFLG                              #  LET INTEG. KNOW THE CALL IS FOR MIDTOAV.
000985: 13,3632           77624                           CALL
000986: 13,3633           27134                                    INTEGRV                               #   GO INTEGRATE
000987: 13,3634           77214                           CLEAR    VLOAD
000988: 13,3635           04675                                    MIDAVFLG
000989: 13,3636           00001                                    RATT
000990: 13,3637           27543                           STOVL    RN1
000991: 13,3640           00007                                    VATT
000992: 13,3641           17551                           STODL    VN1
000993: 13,3642           00015                                    TAT
000994: 13,3643           03557                           STORE    PIPTIME1
000995: 13,3644           66134                           SXA,2    SXA,1
000996: 13,3645           03376                                    RTX2
000997: 13,3646           03375                                    RTX1
000998: 13,3647           77776                           EXIT
000999:
001000: 13,3650           00004                           INHINT
001001: 13,3651           00006                           EXTEND
001002: 13,3652           40025                           DCS      TIME2
001003: 13,3653           20155                           DAS      MPAC
001004: 13,3654           07256                           TC       TPAGREE
001005:
001006: 13,3655           31743                           CA       IRETURN1
001007: 13,3656           04640                           TC       BANKJUMP
001008: 13,3657           47014        CKMID2             BOF      RTB
001009: 13,3660           04754                                    MID1FLAG
001010: 13,3661           27676                                    MID2
001011: 13,3662           21462                                    LOADTIME
001012: 13,3663           44215                           DAD      BDSU
001013: 13,3664           27720                                    TIMEDELT
001014: 13,3665           01116                                    TDEC
001015: 13,3666           45044                           BPL      CALL
001016: 13,3667           27255                                    TESTLOOP                              #  YES
001017: 13,3670           27706                                    NOTIME
001018:
001019: 13,3671           43234        TIMEINC            RTB      DAD
001020: 13,3672           21462                                    LOADTIME
001021: 13,3673           27720                                    TIMEDELT
001022: 13,3674           35116                           STCALL   TDEC
001023: 13,3675           27255                                    TESTLOOP
001024:
001025: 13,3676           45345        MID2               DLOAD    DSU
001026: 13,3677           01116                                    TDEC
001027: 13,3700           01517                                    TET
001028: 13,3701           45246                           ABS      DSU
001029: 13,3702           27716                                    3CSECS
001030:


001032: 13,3703           52040                           BMN      GOTO
001033: 13,3704           27157                                    A-PCHK
001034: 13,3705           27671                                    TIMEINC
001035:
001036: 13,3706           77414        NOTIME             CLEAR    EXIT                                  #  TOO LATE
001037: 13,3707           04674                                    MID1FLAG
001038: 13,3710           25743                           INCR     IRETURN1                              #  SET ERROR EXIT  (CALLOC +2)
001039: 13,3711           05567                           TC       ALARM                                 #  INSUFFICIENT TIME FOR INTEGRATION --
001040: 13,3712           01703                           OCT      1703                                  #     TIG WILL BE SLIPPED...
001041: 13,3713           06036                           TC       INTPRET
001042: 13,3714           77616                           RVQ
001043:
001044: 13,3715           00000 00003  3CSECS             2DEC     3          B-28
001045:
001046: 13,3717           00000 01750  TIMEDELT           2DEC     1000       B-28
001047:
001048: 27,3332                                           BANK     27
001049: 04,2000                                           SETLOC   UPDATE2
001050: 04,2000                                           BANK
001051: 04,3106     1167                                  EBANK=   INTWAKUQ
001052:
001053: 04,3106                                           COUNT*   $$/INTIN
001054:
001055: 04,3106     1167               INTWAKUQ           =        INTWAK1Q                              #  TEMPORARY UNTIL NAME OF INTWAK1Q IS CHNG
001056:
001057: 04,3106           00003        INTWAKEU           RELINT
001058: 04,3107           00006                           EXTEND
001059: 04,3110           23167                           QXCH     INTWAKUQ                              #  SAVE Q FOR RETURN
001060:
001061: 04,3111           06036                           TC       INTPRET
001062:
001063: 04,3112           53135                           SLOAD    BZE                                   #  IS THIS A CSM/LEM STATE VECTOR UPDATE
001064: 04,3113           01502                                    UPSVFLAG                              #  REQUEST. IF NOT GO TO INTWAKUP.
001065: 04,3114           11153                                    INTWAKUP
001066:
001067: 04,3115           77775                           VLOAD                                          #  MOVE RRECT(6) AND VRECT(6) INTO
001068: 04,3116           01503                                    RRECT                                 #       RCV(6)   AND VCV(6)   RESPECTIVELY.
001069: 04,3117           25535                           STOVL    RCV
001070: 04,3120           01511                                    VRECT                                 #  NOW GO TO 'RECTIFY +13D' TO
001071: 04,3121           77624                           CALL                                           #  STORE VRECT INTO VCV  AND ZERO OUT
001072: 04,3122           23362                                    RECTIFY    +13D                       #  TDELTAV(6),TNUV(6),TC(2) AND XKEP(2)
001073: 04,3123           51535                           SLOAD    ABS                                   #  COMPARE ABSOLUTE VALUE OF 'UPSVFLAG'
001074: 04,3124           01502                                    UPSVFLAG                              #  TO 'UPDATE MOON STATE VECTOR CODE'
001075: 04,3125           53025                           DSU      BZE                                   #  TO DETERMINE WHETHER THE STATE VECTOR TO
001076: 04,3126           11164                                    UPMNSVCD                              #  BE UPDATED IS IN THE EARTH OR LUNAR
001077: 04,3127           11134                                    INTWAKEM                              #  SPHERE OF INFLUENCE.........
001078: 04,3130           43174                           AXT,2    CLRGO                                 #  EARTH SPHERE OF INFLUENCE.
001079: 04,3131           00000                           DEC      0          B-14
001080: 04,3132           00223                                    MOONFLAG


001082: 04,3133           11137                                    INTWAKEC
001083: 04,3134           43174        INTWAKEM           AXT,2    SET                                   #  LUNAR SPHERE OF INFLUENCE.
001084: 04,3135           00002                           DEC      2          B-14
001085: 04,3136           00063                                    MOONFLAG
001086: 04,3137           50135        INTWAKEC           SLOAD    BMN                                   #  COMMON CODING AFTER X2 INITIALIZED AND
001087:                                                                                                  #  MOONFLAG SET (OR CLEARED).
001088: 04,3140           01502                                    UPSVFLAG                              #  IS THIS A REQUEST FOR A LEM OR CSM
001089: 04,3141           11147                                    INTWAKLM                              #   STATE VECTOR UPDATE......
001090: 04,3142           77624                           CALL                                           #  UPDATE CSM STATE VECTOR
001091: 04,3143           26661                                    ATOPCSM
001092:
001093: 04,3144           52014                           CLEAR    GOTO
001094: 04,3145           01671                                    ORBWFLAG
001095: 04,3146           11151                                    INTWAKEX
001096:
001097: 04,3147           77624        INTWAKLM           CALL                                           #  UPDATE  LM STATE VECTOR
001098: 04,3150           26734                                    ATOPLEM
001099:
001100: 04,3151           77614        INTWAKEX           CLEAR
001101: 04,3152           02676                                    RENDWFLG
001102:
001103: 04,3153           45131        INTWAKUP           SSP      CALL                                  #  REMOVE :UPDATE STATE VECTOR INDICATOR:
001104: 04,3154           01502                                    UPSVFLAG
001105: 04,3155           00000                                    0
001106: 04,3156           27425                                    INTWAKE0                              #  RELEASE :GRAB: OF ORBIT INTEG
001107: 04,3157           77776                           EXIT
001108:
001109: 04,3160           05353                           TC       PHASCHNG
001110: 04,3161           04026                           OCT      04026
001111: 04,3162           01167                           TC       INTWAKUQ
001112:
001113: 04,3163           00002        UPMNSVCD           OCT      2
001114: 04,3164           00000                           OCT      0
001115:
001116:
001117: 04,3165           77420        GRP2PC             STQ      EXIT
001118: 04,3166           02711                                    GRP2SVQ
001119: 04,3167           05353                           TC       PHASCHNG
001120: 04,3170           04022                           OCT      04022
001121: 04,3171           06036                           TC       INTPRET
001122: 04,3172           77650                           GOTO
001123: 04,3173           02711                                    GRP2SVQ

End of include-file INTEGRATION_INITIALIZATION.agc.  Parent file is MAIN.agc


