
Source Code


000002:                                                                                                  ## Copyright:   Public domain.
000003:                                                                                                  ## Filename:    INTER-BANK_COMMUNICATION.agc
000004:                                                                                                  ## Purpose:     The main source file for Luminary revision 069.
000005:                                                                                                  ##              It is part of the source code for the original release
000006:                                                                                                  ##              of the flight software for the Lunar Module's (LM) Apollo
000007:                                                                                                  ##              Guidance Computer (AGC) for Apollo 10. The actual flown
000008:                                                                                                  ##              version was Luminary 69 revision 2, which included a
000009:                                                                                                  ##              newer lunar gravity model and only affected module 2.
000010:                                                                                                  ##              This file is intended to be a faithful transcription, except
000011:                                                                                                  ##              that the code format has been changed to conform to the
000012:                                                                                                  ##              requirements of the yaYUL assembler rather than the
000013:                                                                                                  ##              original YUL assembler.
000014:                                                                                                  ## Reference:   pp. 993-996
000015:                                                                                                  ## Assembler:   yaYUL
000016:                                                                                                  ## Contact:     Ron Burkey <info@sandroid.org>.
000017:                                                                                                  ## Website:     www.ibiblio.org/apollo/index.html
000018:                                                                                                  ## Mod history: 2016-12-13 MAS  Created from Luminary 99.
000019:                                                                                                  ##              2016-12-18 MAS  Updated from comment-proofed Luminary 99 version.
000020:                                                                                                  ##              2017-01-04 RRB  Updated for Luminary 69.
000021:                                                                                                  ##              2017-01-28 RSB  Proofed comment text using octopus/prooferComments
000022:                                                                                                  ##                              but no errors found.
000023:                                                                                                  ##              2017-03-17 RSB  Comment-text fixes identified in diff'ing
000024:                                                                                                  ##                              Luminary 99 vs Comanche 55.
000025:                                                                                                  ##              2021-05-30 ABS  ISWCALLL -> ISWCALL
000026:


000028:                                                                                                  #           THE FOLLOWING ROUTINE CAN BE USED TO CALL A SUBROUTINE IN ANOTHER BANK. IN THE BANKCALL VERSION, THE
000029:                                                                                                  #  CADR OF THE SUBROUTINE IMMEDIATELY FOLLOWS THE TC BANKCALL INSTRUCTION, WITH C(A) AND C(L) PRESERVED.
000030:
000031:    4616                                           BLOCK    02
000032:    4616                                           COUNT*   $$/BANK
000033:    4616           52134        BANKCALL           DXCH     BUF2                                  #  SAVE INCOMING A,L.
000034:    4617           50002                           INDEX    Q                                     #  PICK UP CADR.
000035:    4620           30000                           CA       0
000036:    4621           24002                           INCR     Q                                     #  SO WE RETURN TO THE LOC. AFTER THE CADR.
000037:
000038:                                                                                                  #            SWCALL IS IDENTICAL TO BANKCALL, EXCEPT THAT THE CADR ARRIVES IN A.
000039:
000040:    4622           54001        SWCALL             TS       L
000041:    4623           22004                           LXCH     FBANK                                 #  SWITCH BANKS, SAVING RETURN.
000042:    4624           75012                           MASK     LOW10                                 #  GET SUB-ADDRESS OF CADR.
000043:    4625           56002                           XCH      Q                                     #  A,L NOW CONTAINS DP RETURN.
000044:    4626           52134                           DXCH     BUF2                                  #  RESTORING INPUTS IF THIS IS A BANKCALL.
000045:    4627           50002                           INDEX    Q
000046:    4630           02000                           TC       10000                                 #  SETTING Q TO SWRETURN.
000047:
000048:    4631           56134        SWRETURN           XCH      BUF2       +1                         #  COMES HERE TO RETURN TO CALLER. C(A,L)
000049:    4632           56004                           XCH      FBANK                                 #  ARE PRESERVED FOR RETURN.
000050:    4633           56134                           XCH      BUF2       +1
000051:    4634           00133                           TC       BUF2
000052:
000053:                                                                                                  #           THE FOLLOWING ROUTINE CAN BE USED AS A UNILATERAL JUMP WITH C(A,L) PRESERVED AND THE CADR IMMEDIATELY
000054:                                                                                                  #  FOLLOWING THE TC POSTJUMP INSTRUCTION.
000055:
000056:    4635           56002        POSTJUMP           XCH      Q                                     #  SAVE INCOMING C(A).
000057:    4636           50000                           INDEX    A                                     #  GET CADR.
000058:    4637           30000                           CA       0
000059:
000060:                                                                                                  #            BANKJUMP IS THE SAME AS POSTJUMP, EXCEPT THAT THE CADR ARRIVES IN A.
000061:
000062:    4640           54004        BANKJUMP           TS       FBANK
000063:    4641           75012                           MASK     LOW10
000064:    4642           56002                           XCH      Q                                     #  RESTORING INPUT C(A) IF THIS WAS A
000065:    4643           50002        Q+10000            INDEX    Q                                     #  POSTJUMP.
000066:    4644           12000        PRIO12             TCF      10000                                 #  PRIO12 = TCF  10000 = 12000
000067:


000069:                                                                                                  #            THE FOLLOWING ROUTINE GETS THE RETURN CADR SAVED BY SWCALL OR BANKCALL AND LEAVES IT IN A.
000070:
000071:    4645           35012        MAKECADR           CAF      LOW10
000072:    4646           70133                           MASK     BUF2
000073:    4647           60134                           AD       BUF2       +1
000074:    4650           00002                           TC       Q
000075:
000076:    4651           54135        SUPDACAL           TS       MPTEMP
000077:    4652           56004                           XCH      FBANK                                 #  SET FBANK FOR DATA.
000078:    4653           00006                           EXTEND
000079:    4654           04007                           ROR      SUPERBNK                              #  SAVE FBANK IN BITS 15-11, AND
000080:    4655           56135                           XCH      MPTEMP                                #   SUPERBANK IN BITS 7-5.
000081:    4656           75012                           MASK     LOW10
000082:    4657           56001                           XCH      L                                     #  SAVE REL. ADR. IN BANK, FETCH SUPERBITS.
000083:    4660           00004                           INHINT                                         #  BECAUSE RUPT DOES NOT SAVE SUPERBANK.
000084:    4661           00006                           EXTEND
000085:    4662           01007                           WRITE    SUPERBNK                              #  SET SUPERBANK FOR DATA.
000086:    4663           50001                           INDEX    L
000087:    4664           32000                           CA       10000                                 #  PINBALL (FIX MEM DISP) PREVENTS DCA HERE
000088:    4665           56135                           XCH      MPTEMP                                #  SAVE 1ST WD, FETCH OLD FBANK AND SBANK.
000089:    4666           00006                           EXTEND
000090:    4667           01007                           WRITE    SUPERBNK                              #  RESTORE SUPERBANK.
000091:    4670           00003                           RELINT
000092:    4671           54004                           TS       FBANK                                 #  RESTORE FBANK.
000093:    4672           30135                           CA       MPTEMP                                #  RECOVER FIRST WORD OF DATA.
000094:    4673           00002                           RETURN                                         #  24 WDS. DATACALL 516 MU, SUPDACAL 432 MU
000095:


000097:                                                                                                  #           THE FOLLOWING ROUTINES ARE IDENTICAL TO BANKCALL AND SWCALL EXCEPT THAT THEY ARE USED IN INTERRUPT.
000098:
000099:    4674           52073        IBNKCALL           DXCH     RUPTREG3                              #  USES RUPTREG3,4 FOR DP RETURN ADDRESS.
000100:    4675           50002                           INDEX    Q
000101:    4676           30000                           CAF      0
000102:    4677           24002                           INCR     Q
000103:
000104:    4700           54001        ISWCALL            TS       L
000105:    4701           22004                           LXCH     FBANK
000106:    4702           75012                           MASK     LOW10
000107:    4703           56002                           XCH      Q
000108:    4704           52073                           DXCH     RUPTREG3
000109:    4705           50002                           INDEX    Q
000110:    4706           02000                           TC       10000
000111:
000112:    4707           56073        ISWRETRN           XCH      RUPTREG4
000113:    4710           56004                           XCH      FBANK
000114:    4711           56073                           XCH      RUPTREG4
000115:    4712           00072                           TC       RUPTREG3
000116:
000117:                                                                                                  #  2. USPRCADR ACCESSES INTERPRETIVE CODING IN OTHER THAN THE USER'S FBANK.  THE CALLING SEQUENCE IS AS FOLLOWS:
000118:                                                                                                  #        L       TC      USPRCADR
000119:                                                                                                  #        L+1     CADR    INTPRETX        INTPRETX IS THE INTERPRETIVE CODING
000120:                                                                                                  #                                        RETURN IS TO L+2
000121:
000122:    4713           54164        USPRCADR           TS       LOC                                   #  SAVE A
000123:    4714           34744                           CA       BIT8
000124:    4715           54023                           TS       EDOP                                  #  EXIT INSTRUCTION TO EDOP
000125:    4716           30006                           CA       BBANK
000126:    4717           54165                           TS       BANKSET                               #  USER'S BBANK TO BANKSET
000127:    4720           50002                           INDEX    Q
000128:    4721           30000                           CA       0
000129:    4722           54004                           TS       FBANK                                 #  INTERPRETIVE BANK TO FBANK
000130:    4723           75012                           MASK     LOW10                                 #  YIELDS INTERPRETIVE RELATIVE ADDRESS
000131:    4724           56002                           XCH      Q                                     #  INTERPRETIVE ADDRESS TO Q, FETCHING L+1
000132:    4725           56164                           XCH      LOC                                   #  L+1 TO LOC, RETRIEVING ORIGINAL A
000133:    4726           14643                           TCF      Q+10000
000134:


000136:                                                                                                  #  THERE ARE FOUR POSSIBLE SETTINGS FOR CHANNEL 07.  (CHANNEL 07 CONTAINS THE SUPERBANK SETTING.)
000137:
000138:                                                                                                  #                                        PSEUDO-FIXED      OCTAL PSEUDO
000139:                                                                                                  #  SUPERBANK     SETTING S-REG. VALUE    BANK NUMBERS      ADDRESSES
000140:                                                                                                  #  ----------    ------- ------------     ------------      ------------
000141:                                                                                                  #  SUPERBANK 3     0XX    2000 - 3777       30 - 37       70000 - 107777         (WHERE XX CAN BE ANYTHING AND
000142:                                                                                                  #                                                                                WILL USUALLY BE SEEN AS 11)
000143:                                                                                                  #  SUPERBANK 4     100    2000 - 3777       40 - 47      110000 - 127777         (AS FAR AS IT CAN BE SEEN,
000144:                                                                                                  #                                                                                ONLY BANKS 40-43 WILL EVER BE
000145:                                                                                                  #                                                                                AND ARE PRESENTLY AVAILABLE)
000146:                                                                                                  #  SUPERBANK 5     101    2000 - 3777       50 - 57      130000 - 147777         (PRESENTLY NOT AVAILABLE TO
000147:                                                                                                  #                                                                                THE USER)
000148:                                                                                                  #  SUPERBANK 6     110    2000 - 3777       60 - 67      150000 - 167777         (PRESENTLY NOT AVAILABLE TO
000149:                                                                                                  #                                                                                THE USER)
000150:                                                                                                  #  *** THIS ROUTINE MAY BE CALLED BY ANY PROGRAM LOCATED IN BANKS 00 - 27.  I.E., NO PROGRAM LIVING IN ANY
000151:                                                                                                  #  SUPERBANK SHOULD USE SUPERSW. ***
000152:
000153:                                                                                                  #  SUPERSW MAY BE CALLED IN THIS FASHION:
000154:                                                                                                  #        CAF     ABBCON          WHERE   -- ABBCON   BBCON  SOMETHIN  --
000155:                                                                                                  #        TCR     SUPERSW         (THE SUPERBNK BITS ARE IN THE BBCON)
000156:                                                                                                  #        ...       ...
000157:                                                                                                  #         .         .
000158:                                                                                                  #         .         .
000159:                                                                                                  #  OR IN THIS FASHION:
000160:                                                                                                  #        CAF     SUPERSET        WHERE SUPERSET IS ONE OF THE FOUR AVAILABLE
000161:                                                                                                  #        TCR     SUPERSW         SUPERBANK BIT CONSTANTS:
000162:                                                                                                  #        ...       ...                                   SUPER011 OCTAL  60
000163:                                                                                                  #         .         .                                    SUPER100 OCTAL 100
000164:                                                                                                  #         .         .                                    SUPER101 OCTAL 120
000165:                                                                                                  #                                                        SUPER110 OCTAL 140
000166:
000167:    4727           00006        SUPERSW            EXTEND
000168:    4730           01007                           WRITE    SUPERBNK                              #  WRITE BITS 7-6-5 OF THE ACCUMULATOR INTO
000169:                                                                                                  #  CHANNEL 07
000170:    4731           00002                           TC       Q                                     #  TC TO INSTRUCTION FOLLOWING
000171:                                                                                                  #   TC SUPERSW
000172:

End of include-file INTER-BANK_COMMUNICATION.agc.  Parent file is MAIN.agc


