
Source Code


000002:                                                                                                  ## Copyright:   Public domain.
000003:                                                                                                  ## Filename:    KALMAN_FILTER.agc
000004:                                                                                                  ## Purpose:     The main source file for Luminary revision 069.
000005:                                                                                                  ##              It is part of the source code for the original release
000006:                                                                                                  ##              of the flight software for the Lunar Module's (LM) Apollo
000007:                                                                                                  ##              Guidance Computer (AGC) for Apollo 10. The actual flown
000008:                                                                                                  ##              version was Luminary 69 revision 2, which included a
000009:                                                                                                  ##              newer lunar gravity model and only affected module 2.
000010:                                                                                                  ##              This file is intended to be a faithful transcription, except
000011:                                                                                                  ##              that the code format has been changed to conform to the
000012:                                                                                                  ##              requirements of the yaYUL assembler rather than the
000013:                                                                                                  ##              original YUL assembler.
000014:                                                                                                  ## Reference:   pp. 1465-1466
000015:                                                                                                  ## Assembler:   yaYUL
000016:                                                                                                  ## Contact:     Ron Burkey <info@sandroid.org>.
000017:                                                                                                  ## Website:     www.ibiblio.org/apollo/index.html
000018:                                                                                                  ## Mod history: 2016-12-13 MAS  Created from Luminary 99.
000019:                                                                                                  ##              2016-12-18 MAS  Updated from comment-proofed Luminary 99 version.
000020:                                                                                                  ##              2016-12-22 IJK  Updated for Luminary 69.
000021:                                                                                                  ##              2017-01-28 RSB  Proofed comment text using octopus/prooferComments
000022:                                                                                                  ##                              but no errors found.
000023:


000025: 17,3700  E6,1522                                  EBANK=   NO.UJETS
000026: 16,3624                                           BANK     16
000027: 16,2000                                           SETLOC   DAPS1
000028: 16,2000                                           BANK
000029:
000030: 16,3624                                           COUNT*   $$/DAP
000031:
000032: 16,3624           34752        RATELOOP           CA       TWO
000033: 16,3625           55742                           TS       DAPTEMP6
000034: 16,3626           60000                           DOUBLE
000035: 16,3627           54002                           TS       Q
000036: 16,3630           51742                           INDEX    DAPTEMP6
000037: 16,3631           11524                           CCS      TJP
000038: 16,3632           13634                           TCF      +2
000039: 16,3633           13653                           TCF      LOOPRATE
000040: 16,3634           63714                           AD       -100MST6
000041: 16,3635           00006                           EXTEND
000042: 16,3636           63672                           BZMF     SMALLTJU
000043: 16,3637           51742                           INDEX    DAPTEMP6
000044: 16,3640           11524                           CCS      TJP
000045: 16,3641           33714                           CA       -100MST6
000046: 16,3642           13644                           TCF      +2
000047: 16,3643           43714                           CS       -100MST6
000048: 16,3644           51742                           INDEX    DAPTEMP6
000049: 16,3645           27524                           ADS      TJP
000050: 16,3646           51742                           INDEX    DAPTEMP6
000051: 16,3647           11524                           CCS      TJP
000052: 16,3650           43600                           CS       -100MS                                #  0.1 AT 1
000053: 16,3651           13653                           TCF      +2
000054: 16,3652           33600                           CA       -100MS
000055: 16,3653           00006        LOOPRATE           EXTEND
000056: 16,3654           51742                           INDEX    DAPTEMP6
000057: 16,3655           71521                           MP       NO.PJETS
000058: 16,3656           30001                           CA       L
000059: 16,3657           51742                           INDEX    DAPTEMP6
000060: 16,3660           55735                           TS       DAPTEMP1                              #  SIGNED TORQUE AT 1 JET-SEC FOR FILTER
000061: 16,3661           00006                           EXTEND
000062: 16,3662           74742                           MP       BIT10                                 #  RESCALE TO 32; ONE BIT ABOUT 2 JET-MSEC
000063: 16,3663           00006                           EXTEND
000064: 16,3664           63715                           BZMF     NEGTORK
000065: 16,3665           50002        STORTORK           INDEX    Q                                     #  INCREMENT DOWNLIST REGISTER.
000066: 16,3666           27513                           ADS      DOWNTORK                              #    NOTE: NOT INITIALIZED; OVERFLOWS.
000067:
000068: 16,3667           11742                           CCS      DAPTEMP6
000069: 16,3670           13625                           TCF      RATELOOP   +1
000070: 16,3671           13701                           TCF      ROTORQUE
000071: 16,3672           34755        SMALLTJU           CA       ZERO
000072: 16,3673           51742                           INDEX    DAPTEMP6
000073: 16,3674           57524                           XCH      TJP
000074: 16,3675           00006                           EXTEND


000076: 16,3676           74760                           MP       ELEVEN                                #  10.24 PLUS
000077: 16,3677           30001                           CA       L
000078: 16,3700           13653                           TCF      LOOPRATE
000079: 16,3701           31736        ROTORQUE           CA       DAPTEMP2
000080: 16,3702           61737                           AD       DAPTEMP3
000081: 16,3703           00006                           EXTEND
000082: 16,3704           71532                           MP       1JACCR
000083: 16,3705           55745                           TS       JETRATER
000084: 16,3706           41737                           CS       DAPTEMP3
000085: 16,3707           61736                           AD       DAPTEMP2
000086: 16,3710           00006                           EXTEND
000087: 16,3711           71531                           MP       1JACCQ
000088: 16,3712           55744                           TS       JETRATEQ
000089: 16,3713           12305                           TCF      BACKP
000090: 16,3714           77537        -100MST6           DEC      -160       B-14
000091:
000092: 16,3715           40000        NEGTORK            COM
000093: 16,3716           24002                           INCR     Q
000094: 16,3717           13665                           TCF      STORTORK
000095:
000096:

End of include-file KALMAN_FILTER.agc.  Parent file is MAIN.agc


