
Source Code


000002:                                                                                                  ## Copyright:   Public domain.
000003:                                                                                                  ## Filename:    LATITUDE_LONGITUDE_SUBROUTINES.agc
000004:                                                                                                  ## Purpose:     The main source file for Luminary revision 069.
000005:                                                                                                  ##              It is part of the source code for the original release
000006:                                                                                                  ##              of the flight software for the Lunar Module's (LM) Apollo
000007:                                                                                                  ##              Guidance Computer (AGC) for Apollo 10. The actual flown
000008:                                                                                                  ##              version was Luminary 69 revision 2, which included a
000009:                                                                                                  ##              newer lunar gravity model and only affected module 2.
000010:                                                                                                  ##              This file is intended to be a faithful transcription, except
000011:                                                                                                  ##              that the code format has been changed to conform to the
000012:                                                                                                  ##              requirements of the yaYUL assembler rather than the
000013:                                                                                                  ##              original YUL assembler.
000014:                                                                                                  ## Reference:   pp. 1128-1134
000015:                                                                                                  ## Assembler:   yaYUL
000016:                                                                                                  ## Contact:     Ron Burkey <info@sandroid.org>.
000017:                                                                                                  ## Website:     www.ibiblio.org/apollo/index.html
000018:                                                                                                  ## Mod history: 2016-12-13 MAS  Created from Luminary 99.
000019:                                                                                                  ##              2016-12-18 MAS  Updated from comment-proofed Luminary 99 version.
000020:                                                                                                  ##              2017-01-28 RSB  Proofed comment text using octopus/prooferComments
000021:                                                                                                  ##                              and fixed errors found.
000022:


000024:                                                                                                  #  SUBROUTINE TO CONVERT RAD VECTOR AT GIVEN TIME TO LAT,LONG AND ALT
000025:
000026:                                                                                                  #  CALLING SEQUENCE
000027:                                                                                                  #        L-1     CALL
000028:                                                                                                  #        L               LAT-LONG
000029:
000030:                                                                                                  #  SUBROUTINES USED
000031:                                                                                                  #        R-TO-RP,ARCTAN,SETGAMMA,SETRE
000032:
000033:                                                                                                  #  ERASABLE INIT. REQ.
000034:                                                                                                  #        AXO,-AYO,AZO,TEPHEM (SET AT LAUNCH TIME)
000035:                                                                                                  #        ALPHAV = POSITION VECTOR METERS B-29
000036:                                                                                                  #        MPAC-- TIME (CSECS B-28)
000037:                                                                                                  #        ERADFLAG =1, TO COMPUTE EARTH RADIUS, =0 FOR FIXED EARTH RADIUS
000038:                                                                                                  #        LUNAFLAG=0 FOR EARTH, 1 FOR MOON
000039:
000040:                                                                                                  #  OUTPUT
000041:                                                                                                  #        LATITUDE IN LAT         (REVS. B-0)
000042:                                                                                                  #        LONGITUDE IN LONG       (REVS. B-0)
000043:                                                                                                  #        ALTITUDE IN ALT         METERS B-29
000044:
000045: 30,3746                                           BANK     30
000046: 13,2000                                           SETLOC   LATLONG
000047: 13,2000                                           BANK
000048:
000049: 13,2351                                           COUNT*   $$/LT-LG
000050: 13,2351  E4,1431                                  EBANK=   ALPHAV
000051: 13,2351           40220        LAT-LONG           STQ      SETPD
000052: 13,2352           03672                                    INCORPEX
000053: 13,2353           00001                                    0D
000054: 13,2354           24007                           STOVL    6D                                    #  SAVE TIME IN 6-7D FOR R-TO-RP
000055: 13,2355           02032                                    ALPHAV
000056: 13,2356           51406                           PUSH     ABVAL                                 #  0-5D= R FOR R-TO-RP
000057: 13,2357           16070                           STODL    ALPHAM                                #  ABS. VALUE OF R FOR ALT FORMULA BELOW
000058: 13,2360           22275                                    ZEROVEC                               #  SET MPAC=0 FOR EARTH, NON-ZERO FOR MOON
000059: 13,2361           71414                           BOFF     COS                                   #  USE COS(0) TO GET NON-ZERO IN MPAC
000060: 13,2362           01743                                    LUNAFLAG                              #  0=EARTH, 1=MOON
000061: 13,2363           26364                                    CALLRTRP
000062: 13,2364           77624        CALLRTRP           CALL
000063: 13,2365           51531                                    R-TO-RP                               #  RP VECTOR CONVERTED FROM R B-29
000064: 13,2366           77656                           UNIT                                           #  UNIT RP B-1
000065: 13,2367           36032                           STCALL   ALPHAV                                #  U2= 1/2 SINL FOR SETRE SUBR BELOW
000066: 13,2370           26550                                    SETGAMMA                              #        SET GAMMA=B2/A2 FOR EARTH,=1 FOR MOON
000067: 13,2371           77624                           CALL                                           #        SCALED B-1
000068: 13,2372           26560                                    SETRE                                 #  CALC RE METERS B-29
000069: 13,2373           63545                           DLOAD    DSQ
000070: 13,2374           02032                                    ALPHAV
000071: 13,2375           63525                           PDDL     DSQ
000072: 13,2376           02034                                    ALPHAV     +2
000073: 13,2377           75415                           DAD      SQRT


000075: 13,2400           76405                           DMP      SL1R
000076: 13,2401           00011                                    GAMRP
000077: 13,2402           14021                           STODL    COSTH                                 #  COS(LAT) B-1
000078: 13,2403           02036                                    ALPHAV     +4
000079: 13,2404           34023                           STCALL   SINTH                                 #  SIN(LAT) B-1
000080: 13,2405           26510                                    ARCTAN
000081: 13,2406           15121                           STODL    LAT                                   #  LAT B0
000082: 13,2407           02032                                    ALPHAV
000083: 13,2410           14021                           STODL    COSTH                                 #  COS(LONG) B-1
000084: 13,2411           02034                                    ALPHAV     +2
000085: 13,2412           34023                           STCALL   SINTH                                 #  SIN(LONG) B-1
000086: 13,2413           26510                                    ARCTAN
000087: 13,2414           15123                           STODL    LONG                                  #  LONG. REVS B-0 IN RANGE -1/2 TO 1/2
000088: 13,2415           02070                                    ALPHAM
000089: 13,2416           77625                           DSU                                            #  ALT= R-RE METERS B-29
000090: 13,2417           03671                                    ERADM
000091: 13,2420           35125                           STCALL   ALT                                   #  EXIT WITH ALT METERS B-29
000092: 13,2421           03672                                    INCORPEX


000094:                                                                                                  #  SUBROUTINE TO CONVERT LAT,LONG.ALT AT GIVEN TIME TO RADIUS VECTOR
000095:
000096:                                                                                                  #  CALLING SEQUENCE
000097:                                                                                                  #        L-1     CALL
000098:                                                                                                  #        L               LALOTORV
000099:
000100:                                                                                                  #  SUBROUTINES USED
000101:                                                                                                  #        SETGAMMA,SETRE,RP-TO-R
000102:
000103:                                                                                                  #  ERASABLE INIT. REQ.
000104:                                                                                                  #        AXO,AYO,AZO,TEPHEM SET AT LAUNCH TIME
000105:                                                                                                  #        LAT-- LATITUDE  (REVS B0)
000106:                                                                                                  #        LONG-- LONGITUDE        (REVS B0)
000107:                                                                                                  #        ALT--ALTITUDE           (METERS) B-29
000108:                                                                                                  #        MPAC-- TIME             (CSECS B-28)
000109:                                                                                                  #        ERADFLAG =1 TO COMPUTE EARTH RADIUS, =0 FOR FIXED EARTH RADIUS
000110:                                                                                                  #        LUNAFLAG=0 FOR EARTH, 1 FOR MOON
000111:
000112:                                                                                                  #  OUTPUT
000113:                                                                                                  #        R-VECTOR IN ALPHAV      (METERS B-29)
000114:
000115: 13,2422           40220        LALOTORV           STQ      SETPD                                 #  LAT,LONG,ALT TO R VECTOR
000116: 13,2423           03672                                    INCORPEX
000117: 13,2424           00001                                    0D
000118: 13,2425           34007                           STCALL   6D                                    #  6-7D= TIME FOR RP-TO-R
000119: 13,2426           26550                                    SETGAMMA                              #  GAMMA=B2/A2 FOR EARTH,1 FOR MOON B-1
000120: 13,2427           73545                           DLOAD    SIN                                   #                COS(LONG)COS(LAT) IN MPAC
000121: 13,2430           01121                                    LAT                                   #      UNIT RP=  SIN(LONG)COS(LAT)    2-3D
000122: 13,2431           65275                           DMPR     PDDL                                  #  PD 2          GAMMA*SIN(LAT)       0-1D
000123: 13,2432           00011                                    GAMRP
000124: 13,2433           01121                                    LAT                                   #         0-1D=  GAMMA*SIN(LAT) B-2
000125: 13,2434           65346                           COS      PDDL                                  #  PD 4     2-3D=COS(LAT) B-1 TEMPORARILY
000126: 13,2435           01123                                    LONG
000127: 13,2436           57356                           SIN      DMPR                                  #  PD 2
000128: 13,2437           71525                           PDDL     COS                                   #  PD 4   2-3D=SIN(LONG)COS(LAT) B-2
000129: 13,2440           01121                                    LAT
000130: 13,2441           71525                           PDDL     COS                                   #  PD 6   4-5D=COS(LAT) B-1 TEMPORARILY
000131: 13,2442           01123                                    LONG
000132: 13,2443           55475                           DMPR     VDEF                                  #  PD 4   MPAC=  COS(LONG)COS(LAT) B-2
000133: 13,2444           41456                           UNIT     PUSH                                  #  0-5D= UNIT RP FOR RP-TO-R SUBR.
000134: 13,2445           36032                           STCALL   ALPHAV                                #  ALPHAV +4= SINL FOR SETRE SUBR.
000135: 13,2446           26560                                    SETRE                                 #  RE METERS B-29
000136: 13,2447           43145                           DLOAD    BOFF                                  #  SET MPAC=0 FOR EARTH, NON-ZERO FOR MOON
000137: 13,2450           22275                                    ZEROVEC
000138: 13,2451           01743                                    LUNAFLAG
000139: 13,2452           26454                                    CALLRPRT
000140: 13,2453           77746                           COS                                            #  USE COS(0) TO GET NON-ZERO IN MPAC
000141: 13,2454           77624        CALLRPRT           CALL
000142: 13,2455           51504                                    RP-TO-R                               #  EXIT WITH UNIT R VECTOR IN MPAC
000143: 13,2456           16032                           STODL    ALPHAV
000144: 13,2457           03671                                    ERADM


000146: 13,2460           74215                           DAD      VXSC                                  #  (RE + ALT)(UNIT R) METERS B-30
000147: 13,2461           01125                                    ALT
000148: 13,2462           02032                                    ALPHAV
000149: 13,2463           77772                           VSL1                                           #  R METERS B-29
000150: 13,2464           36032                           STCALL   ALPHAV                                #  EXIT WITH R IN METERS B-29
000151: 13,2465           03672                                    INCORPEX
000152:
000153:                                                                                                  #  SUBROUTINE TO COMPUTE EARTH RADIUS
000154:
000155:                                                                                                  #  INPUT
000156:                                                                                                  #        1/2 SIN LAT IN ALPHAV +4
000157:
000158:                                                                                                  #  OUTPUT
000159:                                                                                                  #        EARTH RADIUS IN ERADM AND MPAC (METERS B-29)
000160:
000161: 13,2466           63545        GETERAD            DLOAD    DSQ
000162: 13,2467           02036                                    ALPHAV     +4                         #  SIN**2(L)
000163: 13,2470           44352                           SL1      BDSU
000164: 13,2471           22273                                    DP1/2                                 #  COS**2(L)
000165: 13,2472           44275                           DMPR     BDSU
000166: 13,2473           26507                                    EE
000167: 13,2474           22273                                    DP1/2
000168: 13,2475           75465                           BDDV     SQRT
000169: 13,2476           26503                                    B2XSC
000170: 13,2477           77622                           SR4R
000171: 13,2500           03671                           STORE    ERADM
000172: 13,2501           77616                           RVQ
000173:
000174:                                                                                                  #  THE FOLLOWING CONSTANTS WERE COMPUTED WITH A=6378166, B=6356784 METERS
000175:                                                                                                  #  B2XSC= B**2 SCALED B-51
000176:                                                                                                  #  B2/A2= B**2/A**2 SCALED B-1
000177:                                                                                                  #  EE=(1-B**2/A**2) SCALED B-0
000178:
000179: 13,2502           00446 00305  B2XSC              2DEC     .0179450689                            #  B**2 SCALED B-51
000180: 13,2504  11,2272               DP1/2              =        XUNIT
000181: 13,2504           17711 05254  B2/A2              2DEC     .9933064884 B-1                        #  GAMMA= B**2/A**2 B-1
000182: 13,2506           00155 25250  EE                 2DEC     6.6935116  E-3                        #  (1-B**2/A**2) B-0
000183:


000185:                                                                                                  #  ARCTAN SUBROUTINE
000186:
000187:                                                                                                  #  CALLING SEQUENCE
000188:                                                                                                  #        SIN THETA IN SINTH B-1
000189:                                                                                                  #        COS THETA IN COSTH B-1
000190:                                                                                                  #        CALL ARCTAN
000191:
000192:                                                                                                  #  OUTPUT
000193:                                                                                                  #        ARCTAN THETA IN MPAC AND THETA B-0 IN RANGE -1/2 TO +1/2
000194:
000195: 13,2510           77600        ARCTAN             BOV
000196: 13,2511           26512                                    CLROVFLW
000197: 13,2512           63545        CLROVFLW           DLOAD    DSQ
000198: 13,2513           00023                                    SINTH
000199: 13,2514           63525                           PDDL     DSQ
000200: 13,2515           00021                                    COSTH
000201: 13,2516           77615                           DAD
000202: 13,2517           75454                           BZE      SQRT
000203: 13,2520           26536                                    ARCTANXX                              #  ATAN=0/0  SET THETA=0
000204: 13,2521           40065                           BDDV     BOV
000205: 13,2522           00023                                    SINTH
000206: 13,2523           26543                                    ATAN=90
000207: 13,2524           67542                           SR1      ASIN
000208: 13,2525           00025                           STORE    THETA
000209: 13,2526           50125                           PDDL     BMN
000210: 13,2527           00021                                    COSTH
000211: 13,2530           26532                                    NEGCOS
000212: 13,2531           43545                           DLOAD    RVQ
000213: 13,2532           57545        NEGCOS             DLOAD    DCOMP
000214: 13,2533           43244                           BPL      DAD
000215: 13,2534           26540                                    NEGOUT
000216: 13,2535           22273                                    DP1/2
000217: 13,2536           00025        ARCTANXX           STORE    THETA
000218: 13,2537           77616                           RVQ
000219:
000220: 13,2540           52025        NEGOUT             DSU      GOTO
000221: 13,2541           22273                                    DP1/2
000222: 13,2542           26536                                    ARCTANXX
000223: 13,2543           75345        ATAN=90            DLOAD    SIGN
000224: 13,2544           10760                                    LODP1/4
000225: 13,2545           00023                                    SINTH
000226: 13,2546           00025                           STORE    THETA
000227: 13,2547           77616                           RVQ
000228:
000229: 13,2550  11,2274               2DZERO             =        DPZERO
000230:


000232:                                                                                                  #  ..... SETGAMMA SUBROUTINE .....
000233:                                                                                                  #  SUBROUTINE TO SET GAMMA FOR THE LAT-LONG AND LALOTORV SUBROUTINES
000234:
000235:                                                                                                  #  GAMMA = B**2/A**2 FOR EARTH (B-1)
000236:                                                                                                  #  GAMMA = 1 FOR MOON (B-1)
000237:
000238:                                                                                                  #  CALLING SEQUENCE
000239:                                                                                                  #        L       CALL
000240:                                                                                                  #        L+1             SETGAMMA
000241:
000242:                                                                                                  #  INPUT
000243:                                                                                                  #        LUNAFLAG=0 FOR EARTH,=1 FOR MOON
000244:
000245:                                                                                                  #  OUTPUT
000246:                                                                                                  #        GAMMA IN GAMRP (B-1)
000247:
000248: 13,2550           43145        SETGAMMA           DLOAD    BOFF                                  #  BRANCH FOR EARTH
000249: 13,2551           26505                                    B2/A2                                 #  EARTH GAMMA
000250: 13,2552           01743                                    LUNAFLAG
000251: 13,2553           26556                                    SETGMEX
000252: 13,2554           77735                           SLOAD
000253: 13,2555           22273                                    1B1                                   #  MOON GAMMA
000254: 13,2556           00011        SETGMEX            STORE    GAMRP
000255: 13,2557           77616                           RVQ
000256: 13,2560                        GAMRP              =        8D
000257:


000259:                                                                                                  #  ..... SETRE SUBROUTINE .....
000260:                                                                                                  #  SUBROUTINE TO SET RE (EARTH OR MOON RADIUS)
000261:
000262:                                                                                                  #        RE= RM FOR MOON
000263:                                                                                                  #                RE= RREF FOR FIXED EARTH RADIUS OR COMPUTED RF FOR FISCHER ELLIPSOID
000264:
000265:                                                                                                  #  CALLING SEQUENCE
000266:                                                                                                  #        L       CALL
000267:                                                                                                  #        L+1             SETRE
000268:
000269:                                                                                                  #  SUBROUTINES USED
000270:                                                                                                  #        GETERAD
000271:
000272:                                                                                                  #  INPUT
000273:                                                                                                  #        ERADFLAG=0 FOR FIXED RE, 1 FOR COMPUTED RE
000274:                                                                                                  #        ALPHAV +4= 1/2 SINL IF GETERAD IS CALLED
000275:                                                                                                  #        LUNAFLAG=0 FOR EARTH,=1 FOR MOON
000276:
000277:                                                                                                  #  OUTPUT
000278:                                                                                                  #        ERADM= 504RM FOR MOON (METERS B-29)
000279:                                                                                                  #        ERADM= ERAD OR COMPUTED RE FOR EARTH (METERS B-29)
000280:
000281: 13,2560           71220        SETRE              STQ      DLOAD
000282: 13,2561           00051                                    SETREX
000283: 13,2562           10003                                    504RM
000284: 13,2563           71214                           BON      DLOAD                                 #  BRANCH FOR MOON
000285: 13,2564           01703                                    LUNAFLAG
000286: 13,2565           26575                                    TSTRLSRM
000287: 13,2566           10001                                    ERAD
000288: 13,2567           45014                           BOFF     CALL                                  #  ERADFLAG=0 FOR FIXED RE, 1 FOR COMPUTED
000289: 13,2570           00742                                    ERADFLAG
000290: 13,2571           26573                                    SETRXX
000291: 13,2572           26466                                    GETERAD
000292: 13,2573           37671        SETRXX             STCALL   ERADM                                 #  EXIT WITH RE OR RM METERS B-29
000293: 13,2574           00051                                    SETREX
000294: 13,2575           77214        TSTRLSRM           BON      VLOAD                                 #  ERADFLAG=0, SET R0=RLS
000295: 13,2576           00702                                    ERADFLAG                              #          =1      R0=RM
000296: 13,2577           26573                                    SETRXX
000297: 13,2600           02023                                    RLS
000298: 13,2601           64446                           ABVAL    SR2R                                  #  SCALE FROM B-27 TO B-29
000299: 13,2602           77650                           GOTO
000300: 13,2603           26573                                    SETRXX
000301: 13,2604  0000051               SETREX             =        S2
000302:
000303:

End of include-file LATITUDE_LONGITUDE_SUBROUTINES.agc.  Parent file is MAIN.agc


