
Source Code


000002:                                                                                                  ## Copyright:   Public domain.
000003:                                                                                                  ## Filename:    LEM_GEOMETRY.agc
000004:                                                                                                  ## Purpose:     The main source file for Luminary revision 069.
000005:                                                                                                  ##              It is part of the source code for the original release
000006:                                                                                                  ##              of the flight software for the Lunar Module's (LM) Apollo
000007:                                                                                                  ##              Guidance Computer (AGC) for Apollo 10. The actual flown
000008:                                                                                                  ##              version was Luminary 69 revision 2, which included a
000009:                                                                                                  ##              newer lunar gravity model and only affected module 2.
000010:                                                                                                  ##              This file is intended to be a faithful transcription, except
000011:                                                                                                  ##              that the code format has been changed to conform to the
000012:                                                                                                  ##              requirements of the yaYUL assembler rather than the
000013:                                                                                                  ##              original YUL assembler.
000014:                                                                                                  ## Reference:   pp. 334-338
000015:                                                                                                  ## Assembler:   yaYUL
000016:                                                                                                  ## Contact:     Ron Burkey <info@sandroid.org>.
000017:                                                                                                  ## Website:     www.ibiblio.org/apollo/index.html
000018:                                                                                                  ## Mod history: 2016-12-13 MAS  Created from Luminary 99.
000019:                                                                                                  ##              2017-01-14 RRB  Updated for Luminary 69.
000020:                                                                                                  ##              2017-01-25 RSB  Proofed comment text using octopus/prooferComments
000021:                                                                                                  ##                              and fixed errors found.
000022:


000024: 23,2041                                           BANK     23
000025: 13,2000                                           SETLOC   LEMGEOM
000026: 13,2000                                           BANK
000027:
000028: 13,2070  30,2000                                  SBANK=   LOWSUPER
000029: 13,2070  E5,1642                                  EBANK=   XSM
000030:
000031:                                                                                                  #  THESE TWO ROUTINES COMPUTE THE ACTUAL STATE VECTOR FOR LM,CSM BY ADDING
000032:                                                                                                  #  THE CONIC R,V AND THE DEVIATIONSR,V. THE STATE VECTORS ARE CONVERTED TO
000033:                                                                                                  #  METERS B-29 AND METERS/CSEC B-7 AND STORED APPROPRIATELY IN RN,VN OR
000034:                                                                                                  #  R-OTHER , V-OTHER FOR DOWNLINK. THE ROUTINES NAMES ARE SWITCHED IN THE
000035:                                                                                                  #  OTHER VEHICLES COMPUTER.
000036:
000037:                                                                                                  #  INPUT
000038:                                                                                                  #    STATE VECTOR IN TEMPORARY STORAGE AREA
000039:                                                                                                  #    IF STATE VECTOR IS SCALED POS B27 AND VEL B5
000040:                                                                                                  #       SET X2 TO +2
000041:                                                                                                  #    IF STATE VECTOR IS SCALED POS B29 AND VEL B7
000042:                                                                                                  #       SET X2 TO 0
000043:
000044:                                                                                                  #  OUTPUT
000045:                                                                                                  #    R(T) IN RN, V(T) IN VN, T IN PIPTIME
000046:                                                                                                  #  OR
000047:                                                                                                  #    R(T) IN R-OTHER, V(T) IN V-OTHER   (T IS DEFINED BY T-OTHER)
000048:
000049: 13,2070                                           COUNT*   $$/GEOM
000050: 13,2070           43414        SVDWN2             BOF      RVQ                                   #  SW=1=AVETOMID DOING W-MATRIX INTEG.
000051: 13,2071           04756                                    AVEMIDSW
000052: 13,2072           26073                                    +1
000053: 13,2073           53775                           VLOAD    VSL*
000054: 13,2074           01521                                    TDELTAV
000055: 13,2075           57605                                    0          -7,2
000056: 13,2076           53655                           VAD      VSL*
000057: 13,2077           01535                                    RCV
000058: 13,2100           57576                                    0,2
000059: 13,2101           25221                           STOVL    RN
000060: 13,2102           01527                                    TNUV
000061: 13,2103           53257                           VSL*     VAD
000062: 13,2104           57602                                    0          -4,2
000063: 13,2105           01543                                    VCV
000064: 13,2106           77657                           VSL*
000065: 13,2107           57576                                    0,2
000066: 13,2110           15227                           STODL    VN
000067: 13,2111           01517                                    TET
000068: 13,2112           01235                           STORE    PIPTIME
000069: 13,2113           77616                           RVQ


000071: 13,2114           53775        SVDWN1             VLOAD    VSL*
000072: 13,2115           01521                                    TDELTAV
000073: 13,2116           57605                                    0          -7,2
000074: 13,2117           53655                           VAD      VSL*
000075: 13,2120           01535                                    RCV
000076: 13,2121           57576                                    0,2
000077: 13,2122           25720                           STOVL    R-OTHER
000078: 13,2123           01527                                    TNUV
000079: 13,2124           53257                           VSL*     VAD
000080: 13,2125           57602                                    0          -4,2
000081: 13,2126           01543                                    VCV
000082: 13,2127           77657                           VSL*
000083: 13,2130           57576                                    0,2
000084: 13,2131           01726                           STORE    V-OTHER
000085: 13,2132           77616                           RVQ
000086:


000088:                                                                                                  #           THE FOLLOWING ROUTINE TAKES A HALF UNIT TARGET VECTOR REFERRED TO NAV BASE COORDINATES AND FINDS BOTH
000089:                                                                                                  #  GIMBAL ORIENTATIONS AT WHICH THE RR MIGHT SIGHT THE TARGET. THE GIMBAL ANGLES CORRESPONDING TO THE PRESENT MODE
000090:                                                                                                  #  ARE LEFT IN MODEA AND THOSE WHICH WOULD BE USED AFTER A REMODE IN MODEB. THIS ROUTINE ASSUMES MODE 1 IS TRUNNION
000091:                                                                                                  #  ANGLE LESS THAN 90 DEGS IN ABS VALUE WITH ARBITRARY SHAFT, WITH A CORRESPONDING DEFINITION FOR MODE 2. MODE
000092:                                                                                                  #  SELECTION AND LIMIT CHECKING ARE DONE ELSEWHERE.
000093:
000094:                                                                                                  #           THE MODE 1 CONFIGURATION IS CALCULATED FROM THE VECTOR AND THEN MODE 2 IS FOUND USING THE RELATIONS
000095:
000096:                                                                                                  #           S(2) = 180 + S(1)
000097:                                                                                                  #           T(2) = 180 - T(1)
000098:
000099:                                                                                                  #      THE VECTOR ARRIVES IN MPAC WHERE TRG*SMNG OR *SMNB* WILL HAVE LEFT IT.
000100:
000101: 13,2133           00041        RRANGLES           STORE    32D
000102: 13,2134           57545                           DLOAD    DCOMP                                 #  SINCE WE WILL FIND THE MODE 1 SHAFT
000103: 13,2135           00043                                    34D                                   #  ANGLE LATER, WE CAN FIND THE MODE 1
000104: 13,2136           67401                           SETPD    ASIN                                  #  TRUNNION BY SIMPLY TAKING THE ARCSIN OF
000105: 13,2137           00001                                    0                                     #  THE Y COMPONENT, THE ASIN GIVING AN
000106: 13,2140           44206                           PUSH     BDSU                                  #  ANSWER WHOSE ABS VAL IS LESS THAN 90 DEG
000107: 13,2141           22273                                    LODPHALF
000108: 13,2142           14005                           STODL    4                                     #  MODE 2 TRUNNION TO 4.
000109:
000110: 13,2143           22275                                    LO6ZEROS
000111: 13,2144           24043                           STOVL    34D                                   #  UNIT THE PROJECTION OF THE VECTOR
000112: 13,2145           00041                                    32D                                   #    IN THE X-Z PLANE
000113: 13,2146           41056                           UNIT     BOVB                                  #  IF OVERFLOW, TARGET VECTOR IS ALONG Y
000114: 13,2147           52421                                    LUNDESCH                              #  CALL FOR MANEUVER UNLESS ON LUNAR SURF
000115: 13,2150           14041                           STODL    32D                                   #  PROJECTION VECTOR.
000116: 13,2151           00041                                    32D
000117: 13,2152           44142                           SR1      STQ
000118: 13,2153           00051                                    S2
000119: 13,2154           14023                           STODL    SINTH                                 #  USE ARCTRIG SINCE SHAFT COULD BE ARB.
000120: 13,2155           00045                                    36D
000121: 13,2156           77742                           SR1
000122: 13,2157           34021                           STCALL   COSTH
000123: 13,2160           47222                                    ARCTRIG


000125: 13,2161           43206                           PUSH     DAD                                   #  MODE 1 SHAFT TO 2.
000126: 13,2162           22273                                    LODPHALF
000127: 13,2163           24007                           STOVL    6
000128: 13,2164           00005                                    4
000129: 13,2165           77634                           RTB                                            #  FIND MODE 2 CDU ANGLES.
000130: 13,2166           21541                                    2V1STO2S
000131: 13,2167           25112                           STOVL    MODEB
000132: 13,2170           00001                                    0
000133: 13,2171           77634                           RTB                                            #  MODE 1 ANGLES TO MODE A.
000134: 13,2172           21541                                    2V1STO2S
000135: 13,2173           01110                           STORE    MODEA
000136: 13,2174           77776                           EXIT
000137:
000138: 13,2175           40110                           CS       RADMODES                              #  SWAP MODEA AND MODEB IF RR IN MODE 2.
000139: 13,2176           74740                           MASK     ANTENBIT
000140: 13,2177           10000                           CCS      A
000141: 13,2200           12204                           TCF      +4
000142:
000143: 13,2201           53110                           DXCH     MODEA
000144: 13,2202           53112                           DXCH     MODEB
000145: 13,2203           53110                           DXCH     MODEA
000146:
000147: 13,2204           06036                           TC       INTPRET
000148: 13,2205           77650                           GOTO
000149: 13,2206           00051                                    S2


000151:                                                                                                  #  GIVEN RR TRUNNION AND SHAFT (T,S) IN TANGNB,+1, FIND THE ASSOCIATED
000152:                                                                                                  #  LINE OF SIGHT IN NAV BASE AXES.  THE HALF UNIT VECTOR, .5(SIN(S)COS(T),
000153:                                                                                                  #  -SIN(T),COS(S)COS(T)) IS LEFT IN MPAC AND 32D.
000154:
000155: 23,2000                                           SETLOC   INFLIGHT
000156: 23,2000                                           BANK
000157:
000158: 23,2041                                           COUNT*   $$/GEOM
000159:
000160: 23,2041           47135        RRNB               SLOAD    RTB
000161: 23,2042           03751                                    TANGNB
000162: 23,2043           21465                                    CDULOGIC
000163: 23,2044           41401                           SETPD    PUSH                                  #  TRUNNION ANGLE TO 0
000164: 23,2045           00001                                    0
000165: 23,2046           57556                           SIN      DCOMP
000166: 23,2047           14043                           STODL    34D                                   #  Y COMPONENT
000167:
000168: 23,2050           41546                           COS      PUSH                                  #  .5 COS(T) TO 0
000169: 23,2051           47135                           SLOAD    RTB
000170: 23,2052           03752                                    TANGNB     +1
000171: 23,2053           21465                                    CDULOGIC
000172: 23,2054           71406                           PUSH     COS                                   #  SHAFT ANGLE TO 2
000173: 23,2055           72405                           DMP      SL1
000174: 23,2056           00001                                    0
000175: 23,2057           14045                           STODL    36D                                   #  Z COMPONENT
000176:
000177: 23,2060           41356                           SIN      DMP
000178: 23,2061           77752                           SL1
000179: 23,2062           24041                           STOVL    32D
000180: 23,2063           00041                                    32D
000181: 23,2064           77616                           RVQ

End of include-file LEM_GEOMETRY.agc.  Parent file is MAIN.agc


