
Source Code


000002:                                                                                                  ## Copyright:   Public domain.
000003:                                                                                                  ## Filename:    LUNAR_AND_SOLAR_EPHEMERIDES_SUBROUTINES.agc
000004:                                                                                                  ## Purpose:     The main source file for Luminary revision 069.
000005:                                                                                                  ##              It is part of the source code for the original release
000006:                                                                                                  ##              of the flight software for the Lunar Module's (LM) Apollo
000007:                                                                                                  ##              Guidance Computer (AGC) for Apollo 10. The actual flown
000008:                                                                                                  ##              version was Luminary 69 revision 2, which included a
000009:                                                                                                  ##              newer lunar gravity model and only affected module 2.
000010:                                                                                                  ##              This file is intended to be a faithful transcription, except
000011:                                                                                                  ##              that the code format has been changed to conform to the
000012:                                                                                                  ##              requirements of the yaYUL assembler rather than the
000013:                                                                                                  ##              original YUL assembler.
000014:                                                                                                  ## Reference:   pp. 979-982
000015:                                                                                                  ## Assembler:   yaYUL
000016:                                                                                                  ## Contact:     Ron Burkey <info@sandroid.org>.
000017:                                                                                                  ## Website:     www.ibiblio.org/apollo/index.html
000018:                                                                                                  ## Mod history: 2016-12-13 MAS  Created from Luminary 99.
000019:                                                                                                  ##              2016-12-18 MAS  Updated from comment-proofed Luminary 99 version.
000020:                                                                                                  ##              2017-01-04 RRB  Updated for Luminary 69. Notes on handwritted notations in Luminary 99
000021:                                                                                                  ##                              were retained and marked as being from Lum99.
000022:                                                                                                  ##              2017-01-28 RSB  Proofed comment text using octopus/prooferComments
000023:                                                                                                  ##                              and fixed errors found.
000024:                                                                                                  ##              2017-08-26 MAS  Fixed comment-text errors found while transcribing Zerlina 56.
000025:


000027:                                                                                                  #  NAME - LSPOS  - LOCATE SUN AND MOON                   DATE - 25 OCT 67
000028:                                                                                                  #  MOD NO.1
000029:                                                                                                  #  MOD BY NEVILLE                                        ASSEMBLY SUNDANCE
000030:
000031:                                                                                                  #  FUNCTIONAL DESCRIPTION
000032:
000033:                                                                                                  #         COMPUTES UNIT POSITION VECTOR OF THE SUN AND MOON IN THE BASIC REFERENCE SYSTEM. THE SUN VECTOR S IS
000034:                                                                                                  #  LOCATED VIA TWO ANGLES. THE FIRST ANGLE(OBLIQUITY) IS THE ANGLE BETWEEN THE EARTH EQUATOR AND THE ECLIPTIC. THE
000035:                                                                                                  #  SECOND ANGLE IS THE LONGITUDE OF THE SUN MEASURED IN THE ECLIPTIC.
000036:                                                                                                  #  THE POSITION VECTOR OF THE SUN IS
000037:                                                                                                  #        -
000038:                                                                                                  #        S = (COS(LOS), COS(OBL)*SIN(LOS), SIN(OBL)*SIN(LOS)), WHERE
000039:
000040:                                                                                                  #        LOS = LOS +LOS *T-(C *SIN(2PI*T)/365.24 +C *COS(2PI*T)/365.24)
000041:                                                                                                  #                 0    R     0                     1
000042:                                                                                                  #        LOS  (RAD) IS THE LONGITUDE OF THE SUN FOR MIDNIGHT JUNE 30TH OF THE PARTICULAR YEAR.
000043:                                                                                                  #           0
000044:                                                                                                  #        LOS  (RAD/DAY) IS THE MEAN RATE FOR THE PARTICULAR YEAR.
000045:                                                                                                  #           R
000046:
000047:                                                                                                  #  LOS  AND LOS  ARE STORED AS LOSC AND LOSR IN RATESP.
000048:                                                                                                  #     0        R
000049:                                                                                                  #  COS(OBL) AND SIN(OBL) ARE STORED IN THE MATRIX KONMAT.
000050:                                                                                                  #  T, TIME MEASURED IN DAYS (24 HOURS), IS STORED IN TIMEP.
000051:                                                                                                  #  C  AND C  ARE FUDGE FACTORS TO MINIMIZE THE DEVIATION.  THEY ARE STORED AS ONE CONSTANT (CMOD), SINCE
000052:                                                                                                  #   0      1                               2  2 1/2
000053:                                                                                                  #  C *SIN(X)+C *COS(X) CAN BE WRITTEN AS (C +C )   *SIN(X+PHI), WHERE PHI=ARCTAN(C /C ).
000054:                                                                                                  #   0         1                            0  1                                   1  0
000055:
000056:                                                                                                  #  THE MOON IS LOCATED VIA FOUR ANGLES. THE FIRST IS THE OBLIQUITY. THE SECOND IS THE MEAN LONGITUDE OF THE MOON,
000057:                                                                                                  #  MEASURED IN THE ECLIPTIC FROM THE MEAN EQUINOX TO THE MEAN ASCENDING NODE OF THE LUNAR ORBIT, AND THEN ALONG THE
000058:                                                                                                  #  ORBIT.  THE THIRD ANGLE IS THE ANGLE BETWEEN THE ECLIPTIC AND THE LUNAR ORBIT.  THE FOURTH ANGLE IS THE LONGITUDE
000059:                                                                                                  #  OF THE NODE OF THE MOON, MEASURED IN THE LUNAR ORBIT.  LET THESE ANGLES BE OBL,LOM,IM, AND LON RESPECTIVELY.
000060:
000061:                                                                                                  #  THE SIMPLIFIED POSITION VECTOR OF THE MOON IS
000062:                                                                                                  #        -
000063:                                                                                                  #        M=(COS(LOM), COS(OBL)*SIN(LOM)-SIN(OBL)*SIN(IM)*SIN(LOM-LON), SIN(OBL)*SIN(LOM)+COS(OBL)*SIN(IM)*SIN(LOM-LON))
000064:
000065:                                                                                                  #  WHERE
000066:                                                                                                  #        LOM=LOM +LOM *T-(A *SIN 2PI*T/27.5545+A *COS(2PI*T/27.5545)+B *SIN 2PI*T/32+B *COS(2PI*T/32)), AND
000067:                                                                                                  #               0    R     0                    1                     0               1
000068:                                                                                                  #        LON=LON +LON
000069:                                                                                                  #               0    R
000070:                                                                                                  #  A , A , B  AND B  ARE STORED AS AMOD AND BMOD (SEE DESCRIPTION OF CMOD, ABOVE).  COS(OBL), SIN(OBL)*SIN(IM),
000071:                                                                                                  #   0   1   0      1
000072:                                                                                                  #  SIN(OBL), AND COS(OBL)*SIN(IM) ARE STORED IN KONMAT AS K1, K2, K3 AND K4, RESPECTIVELY.  LOM , LOM , LON , LON
000073:                                                                                                  #  ARE STORED AS LOMO, LOMR, LONO, AND LONR IN RATESP.                                         0     R     0     R
000074:                                                                                                  #  THE THREE PHIS ARE STORED AS AARG, BARG, AND CARG(SUN).  ALL CONSTANTS ARE UPDATED BY YEAR.
000075:
000076:                                                                                                  #  CALLING SEQUENCE


000078:                                                                                                  #        CALL LSPOS.  RETURN IS VIA CPRET.
000079:
000080:                                                                                                  #  ALARMS OR ABORTS
000081:                                                                                                  #        NONE
000082:
000083:                                                                                                  #  ERASABLE INITIALIZATION REQUIRED
000084:                                                                                                  #        TEPHEM - TIME FROM MIDNIGHT 1 JULY PRECEDING THE LAUNCH TO THE TIME OF THE LAUNCH (WHEN THE AGC CLOCK WENT
000085:                                                                                                  #        TO ZERO).  TEPHEM IS TP WITH UNITS OF CENTI-SECONDS.
000086:
000087:                                                                                                  #        TIME2 AND TIME1 ARE IN MPAC AND MPAC +1 WHEN PROGRAM IS CALLED.
000088:
000089:                                                                                                  #  OUTPUT
000090:                                                                                                  #        UNIT POSITIONAL VECTOR OF SUN IN VSUN.  (SCALED B-1)
000091:                                                                                                  #        UNIT POSITIONAL VECTOR OF MOON IN VMOON.  (SCALED B-1)
000092:
000093:                                                                                                  #  SUBROUTINES USED
000094:                                                                                                  #        NONE
000095:
000096:                                                                                                  #  DEBRIS
000097:                                                                                                  #        CURRENT CORE SET, WORK AREA AND FREEFLAG
000098:
000099: 04,2750                                           BANK     04
000100: 15,2000                                           SETLOC   EPHEM
000101: 15,2000                                           BANK
000102:
000103: 15,3663  E5,1714                                  EBANK=   VSUN
000104: 15,3663                                           COUNT*   $$/EPHEM
000105: 15,3663  15,3663               LUNPOS             EQUALS   LSPOS
000106:
000107: 15,3663           54201        LSPOS              SETPD    SR
000108: 15,3664           00001                                    0
000109: 15,3665           20617                                    14D                                   #  TP
000110: 15,3666           56371                           TAD      DDV


000112: 15,3667           01707                                    TEPHEM                                #  TIME OF LAUNCH
000113: 15,3670           12024                                    CSTODAY                               #  24 HOURS-8640000 CENTI-SECS/DAY B-33


000115: 15,3671           00031                           STORE    TIMEP                                 #  T IN DAYS


000117: 15,3672           77170                           AXT,1    AXT,2
000118: 15,3673           00000                                    0
000119: 15,3674           00000                                    0
000120: 15,3675           77614                           CLEAR
000121: 15,3676           00274                                    FREEFLAG                              #  SWITCH BIT
000122: 15,3677           77745        POSITA             DLOAD
000123: 15,3700           12004                                    KONMAT     +2                         #  ZEROS
000124: 15,3701           00027                           STORE    GTMP
000125: 15,3702           40745        POSITB             DLOAD    DMP*
000126: 15,3703           00031                                    TIMEP                                 #  T
000127: 15,3704           12050                                    VAL67      +4,1                       #  1/27 OR 1/32 OR 1/365


000129: 15,3705           42661                           SL       DAD*
000130: 15,3706           20211                                    8D
000131: 15,3707           12046                                    VAL67      +2,1                       #  AARG
000132: 15,3710           40756                           SIN      DMP*                                  #  SIN(T/27+PHI) OR T/32 OR T/365
000133: 15,3711           12044                                    VAL67,1                               #  (A0**2+A1**2)**1/2 SIN(X+PHIA)
000134: 15,3712           62015                           DAD      INCR,1                                #  PLUS
000135: 15,3713           00027                                    GTMP                                  #  (B0**2+B1**2)**1/2 SIN(X+PHIB)
000136: 15,3714           77771                           DEC      -6         B-14
000137: 15,3715           00027                           STORE    GTMP                                  #  OR (C0**2+C1**2)**1/2 SIN(X+PHIC)
000138: 15,3716           77614                           BOFSET
000139: 15,3717           00054                                    FREEFLAG
000140: 15,3720           33702                                    POSITB
000141: 15,3721           40745        POSITD             DLOAD    DMP*
000142: 15,3722           00031                                    TIMEP                                 #  T
000143: 15,3723           65747                                    RATESP,2                              #  LOMR,LOSR,LONR
000144: 15,3724           42661                           SL       DAD*
000145: 15,3725           20206                                    5D
000146: 15,3726           65741                                    RATESP     +6,2                       #  LOMO,LOSO,LONO
000147: 15,3727           77625                           DSU
000148: 15,3730           00027                                    GTMP
000149: 15,3731           10021                           STORE    STMP,2                                #  LOM,LOS,LON
000150: 15,3732           63135                           SLOAD    INCR,2
000151: 15,3733           00050                                    X2
000152: 15,3734           77775                           DEC      -2         B-14
000153: 15,3735           53015                           DAD      BZE
000154: 15,3736           12026                                    RCB-13                                #  PLUS 2
000155: 15,3737           33767                                    POSITE                                #  2ND
000156: 15,3740           77644                           BPL
000157: 15,3741           33677                                    POSITA                                #  1ST
000158: 15,3742           45345        POSITF             DLOAD    DSU                                   #  3RD
000159: 15,3743           00021                                    STMP                                  #  LOM
000160: 15,3744           00025                                    STMP       +4                         #  LON
000161: 15,3745           65356                           SIN      PDDL                                  #  SIN(LOM-LON)
000162: 15,3746           00021                                    STMP
000163: 15,3747           65356                           SIN      PDDL                                  #  SIN LOM
000164: 15,3750           00021                                    STMP
000165: 15,3751           55546                           COS      VDEF                                  #  COS LOM
000166: 15,3752           53521                           MXV      UNIT
000167: 15,3753           12002                                    KONMAT                                #  K1,K2,K3,K4,
000168: 15,3754           02723                           STORE    VMOON
000169: 15,3755           65345                           DLOAD    PDDL
000170: 15,3756           12004                                    KONMAT     +2                         #  ZERO
000171: 15,3757           00023                                    STMP       +2
000172: 15,3760           65356                           SIN      PDDL                                  #  SIN LOS
000173: 15,3761           00023                                    STMP       +2
000174: 15,3762           55546                           COS      VDEF                                  #  COS LOS
000175: 15,3763           53521                           MXV      UNIT
000176: 15,3764           12002                                    KONMAT
000177: 15,3765           02715                           STORE    VSUN
000178: 15,3766           77616                           RVQ


000180: 15,3767           77745        POSITE             DLOAD
000181: 15,3770           12004                                    KONMAT     +2                         #  ZEROS
000182: 15,3771           00027                           STORE    GTMP
000183: 15,3772           77650                           GOTO
000184: 15,3773           33721                                    POSITD
000185: 15,3774           77616        LUNVEL             RVQ                                            #         TO FOOL INTEGRATION
000186: 05,2000                                           SETLOC   EPHEM1
000187: 05,2000                                           BANK
000188:
000189: 05,3430                                           COUNT*   $$/EPHEM
000190: 05,3430                        STMP               EQUALS   16D
000191:
000192: 05,3430                        GTMP               EQUALS   22D
000193:
000194: 05,3430                        TIMEP              EQUALS   24D
000195:

End of include-file LUNAR_AND_SOLAR_EPHEMERIDES_SUBROUTINES.agc.  Parent file is MAIN.agc


