
Source Code


000002:                                                                                                  ## Copyright:   Public domain.
000003:                                                                                                  ## Filename:    LUNAR_LANDING_GUIDANCE_EQUATIONS.agc
000004:                                                                                                  ## Purpose:     The main source file for Luminary revision 069.
000005:                                                                                                  ##              It is part of the source code for the original release
000006:                                                                                                  ##              of the flight software for the Lunar Module's (LM) Apollo
000007:                                                                                                  ##              Guidance Computer (AGC) for Apollo 10. The actual flown
000008:                                                                                                  ##              version was Luminary 69 revision 2, which included a
000009:                                                                                                  ##              newer lunar gravity model and only affected module 2.
000010:                                                                                                  ##              This file is intended to be a faithful transcription, except
000011:                                                                                                  ##              that the code format has been changed to conform to the
000012:                                                                                                  ##              requirements of the yaYUL assembler rather than the
000013:                                                                                                  ##              original YUL assembler.
000014:                                                                                                  ## Reference:   pp. 802-828
000015:                                                                                                  ## Assembler:   yaYUL
000016:                                                                                                  ## Contact:     Ron Burkey <info@sandroid.org>.
000017:                                                                                                  ## Website:     www.ibiblio.org/apollo/index.html
000018:                                                                                                  ## Mod history: 2016-12-13 MAS  Created from Luminary 99.
000019:                                                                                                  ##              2016-12-18 MAS  Updated from comment-proofed Luminary 99 version.
000020:                                                                                                  ##              2017-01-07 HG   Transcribed
000021:                                                                                                  ##              2017-01-23 HG   Add missing statement TS L
000022:                                                                                                  ##                              Fix operator CS -> TC
000023:                                                                                                  ##                                           INDEX -> CCS
000024:                                                                                                  ##                              Fix interpretive operator STODL -> STORE
000025:                                                                                                  ##              2017-01-28 RSB  Proofed comment text using octopus/prooferComments
000026:                                                                                                  ##                              and fixed errors found.
000027:                                                                                                  ##              2017-03-10 RSB  Comment-text fixes noted while transcribing Luminary 116.
000028:                                                                                                  ##              2017-03-16 RSB  Comment-text fixes identified in 5-way
000029:                                                                                                  ##                              side-by-side diff of Luminary 69/99/116/131/210.
000030:                                                                                                  ##              2021-05-30 ABS  Removed DEC66 symbol not present in scans.
000031:


000033: 31,2445  E7,1617                                  EBANK=   E2DPS
000034:
000035: 31,2445                                           COUNT*   $$/F2DPS
000036:
000037:                                                                                                  #  ****************************************************************************************************************
000038:                                                                                                  #  LUNAR LANDING FLIGHT SEQUENCE TABLES
000039:                                                                                                  #  ****************************************************************************************************************
000040:
000041:                                                                                                  #  FLIGHT SEQUENCE TABLES ARE ARRANGED BY FUNCTION.   THEY ARE REFERENCED USING AS AN INDEX THE REGISTER WCHPHASE:
000042:                                                                                                  #                                                   WCHPHASE  =  -1  --->  IGNALG
000043:                                                                                                  #                                                   WCHPHASE  =   0  --->  BRAKQUAD
000044:                                                                                                  #                                                   WCHPHASE  =   1  --->  BRAKLING
000045:                                                                                                  #                                                   WCHPHASE  =   2  --->  APPRQUAD
000046:                                                                                                  #                                                   WCHPHASE  =   3  --->  APPRLING
000047:                                                                                                  #                                                   WCHPHASE  =   4  --->  VERTICAL
000048:
000049:                                                                                                  #  ***************************************************************************************************************
000050:
000051:                                                                                                  #  ROUTINES FOR STARTING NEW GUIDANCE PHASES:
000052:
000053: 31,2445           12657                           TCF      TTFINCR                               #  IGNALG
000054: 31,2446           12657        NEWPHASE           TCF      TTFINCR                               #  BRAKQUAD
000055: 31,2447           12643                           TCF      LINSET?                               #  BRAKLING
000056: 31,2450           12627                           TCF      STARTP64                              #  APPRQUAD
000057: 31,2451           12647                           TCF      LINSET                                #  APPRLING
000058: 31,2452           12616                           TCF      P65START                              #  VERTICAL
000059:
000060:
000061:
000062:                                                                                                  #  PRE-GUIDANCE COMPUTATIONS:
000063:
000064: 31,2453           13025                           TCF      CALCRGVG                              #  IGNALG
000065: 31,2454           13035        PREGUIDE           TCF      RGVGCALC                              #  BRAKQUAD
000066: 31,2455           13035                           TCF      RGVGCALC                              #  BRAKLING
000067: 31,2456           12725                           TCF      REDESIG                               #  APPRQUAD
000068: 31,2457           13035                           TCF      RGVGCALC                              #  APPRLING
000069: 31,2460           13035                           TCF      RGVGCALC                              #  VERTICAL
000070:
000071:
000072:                                                                                                  #  GUIDANCE EQUATIONS:
000073:
000074: 31,2461           13107                           TCF      TTF/8CL                               #  IGNALG
000075: 31,2462           13107        WHATGUID           TCF      TTF/8CL                               #  BRAKQUAD
000076: 31,2463           13101                           TCF      LINGUID                               #  BRAKLING
000077: 31,2464           13107                           TCF      TTF/8CL                               #  APPRQUAD
000078: 31,2465           13101                           TCF      LINGUID                               #  BRAKLING
000079: 31,2466           13477                           TCF      VERTGUID                              #  VERTICAL
000080:


000082:                                                                                                  #  POST GUIDANCE EQUATION COMPUTATIONS:
000083:
000084: 31,2467           13240                           TCF      CGCALC                                #  IGNALG
000085: 31,2470           13240        AFTRGUID           TCF      CGCALC                                #  BRAKQUAD
000086: 31,2471           13270                           TCF      LINXLOGC                              #  BRAKLING
000087: 31,2472           13240                           TCF      CGCALC                                #  APPRQUAD
000088: 31,2473           13270                           TCF      LINXLOGC                              #  APPRLING
000089: 31,2474           13411                           TCF      EXVERT                                #  VERTICAL
000090:
000091:
000092:                                                                                                  #  WINDOW VECTOR COMPUTATIONS:
000093:
000094: 31,2475           13304                           TCF      EXGSUB                                #  IGNALG
000095: 31,2476           13325        WHATEXIT           TCF      EXBRAK                                #  BRAKQUAD
000096: 31,2477           13325                           TCF      EXBRAK                                #  BRAKLING
000097: 31,2500           13333                           TCF      EXNORM                                #  APPRQUAD
000098: 31,2501           13333                           TCF      EXNORM                                #  APPRLING
000099:
000100:
000101:                                                                                                  #  DISPLAY ROUTINES:
000102:
000103: 31,2502           13441        WHATDISP           TCF      P63DISPS                              #  BRAKQUAD
000104: 31,2503           13441                           TCF      P63DISPS                              #  BRAKLING
000105: 31,2504           13445                           TCF      P64DISPS                              #  APPRQUAD
000106: 31,2505           13445                           TCF      P64DISPS                              #  APPRLING
000107: 31,2506           13475                           TCF      VERTDISP                              #  VERTICAL
000108:
000109:
000110:                                                                                                  #  INDICES FOR REFERENCING TARGET PARAMETERS:
000111:
000112: 31,2507           00000                           OCT      0                                     #  IGNALG
000113: 31,2510           00000        TARGTDEX           OCT      0                                     #  BRAKQUAD
000114: 31,2511           00000                           OCT      0                                     #  BRAKLING
000115: 31,2512           00030                           OCT      30                                    #  APPRQUAD
000116: 31,2513           00030                           OCT      30                                    #  APPRLING
000117:
000118:
000119:                                                                                                  #  ****************************************************************************************************************
000120:                                                                                                  #  ENTRY POINTS:   2GUIDSUB FOR THE IGNITION ALGORITHM, LUNLAND FOR SERVOUT
000121:                                                                                                  #  ****************************************************************************************************************
000122:
000123:                                                                                                  #  IGNITION ALGORITHM ENTRY:  DELIVERS N PASSES OF QUADRATIC QUIDANCE
000124:
000125: 31,2514           77776        ?GUIDSUB           EXIT
000126: 31,2515           34752                           CAF      TWO                                   #  N = 3
000127: 31,2516           55645                           TS       NGUIDSUB
000128: 31,2517           12600                           TCF      GUILDRET
000129:
000130: 31,2520           55645        GUIDSUB            TS       NGUIDSUB                              #  ON SUCEEDING PASSES SKIP TTFINCR
000131: 31,2521           13025                           TCF      CALCRGVG
000132:


000134:
000135:                                                                                                  #  NORMAL ENTRY:  CONTROL COMES HERE FROM SERVOUT
000136:
000137: 31,2522           05353        LUNLAND            TC       PHASCHNG
000138: 31,2523           00035                           OCT      00035                                 #  GROUP 5:  RETAIN ONLY PIPA TASK
000139: 31,2524           05353                           TC       PHASCHNG
000140: 31,2525           05023                           OCT      05023                                 #  GROUP 3:  PROTECT GUIDANCE WITH PRIO 21
000141: 31,2526           21000                           OCT      21000                                 #        JUST HIGHER THAN SERVICER'S PRIORITY
000142:
000143:                                                                                                  #  ****************************************************************************************************************
000144:                                                                                                  #  GUILDENSTERN:  AUTO-MODES MONITOR (R13)
000145:                                                                                                  #  ****************************************************************************************************************
000146:
000147: 31,2527                                           COUNT*   $$/R13
000148:
000149:                                                                                                  #     HERE IS THE PHILOSOPHY OF GUILDENSTERN:    ON EVERY APPEARANCE OR DISAPPEARANCE OF THE MANUAL THROTTLE
000150:                                                                                                  #  DISCRETE TO SELECT P67 OR P66 RESPECTIVELY;   ON EVERY APPEARANCE OF THE ATTITUDE-HOLD DISCRETE TO SELECT P66
000151:                                                                                                  #  UNLESS THE CURRENT PROGRAM IS P67 IN WHICH CASE THERE IS NO CHANGE.
000152:
000153: 31,2527           00006        GUILDEN            EXTEND                                         #  IS UN-AUTO-THROTTLE DISCRETE PRESENT?
000154: 31,2530           00030                           READ     CHAN30
000155: 31,2531           74747                           MASK     BIT5
000156: 31,2532           10000                           CCS      A
000157: 31,2533           12564                           TCF      STARTP67                              #  YES
000158: 31,2534           05321        P67NOW?            TC       CHECKMM                               #  NO:   ARE WE IN P67 NOW?
000159: 31,2535           00103                           DEC      67         B-14
000160: 31,2536           12570                           TCF      STABL?                                #  NO
000161: 31,2537           03721        STARTP66           TC       FASTCHNG                              #  YES
000162: 31,2540           05311                           TC       NEWMODEX
000163: 31,2541           00102                           DEC      66         B-14
000164: 31,2542           00006                           EXTEND                                         #  INITIALIZE VDGVERT USING
000165: 31,2543           31625                           DCA      VGU                                   #    PRESENT DOWNWARD VELOCITY
000166: 31,2544           53643                           DXCH     VDGVERT
000167: 31,2545           34755                           CAF      ZERO
000168: 31,2546           55644                           TS       RODCOUNT
000169: 31,2547           55645        VRTSTART           TS       WCHVERT
000170: 31,2550           34751                           CAF      FOUR                                  #  WCHPHASE = 4 --> VERTICAL: P65,P66,P67
000171: 31,2551           55617                           TS       WCHPHOLD
000172: 31,2552           55620                           TS       WCHPHASE
000173: 31,2553           04616                           TC       BANKCALL                              #  TEMPORARY, I HOPE HOPE HOPE
000174: 31,2554           40165                           CADR     STOPRATE                              #  TEMPORARY, I HOPE HOPE HOPE
000175: 31,2555           05516                           TC       DOWNFLAG                              #  PERMIT X-AXIS OVERRIDE
000176: 31,2556           00311                           ADRES    XOVINFLG
000177: 31,2557           05516                           TC       DOWNFLAG
000178: 31,2560           00143                           ADRES    REDFLAG
000179: 31,2561           05516                           TC       DOWNFLAG
000180: 31,2562           00142                           ADRES    POUTFLAG                              #  PERMIT PULSE-OUTS
000181: 31,2563           12600                           TCF      GUILDRET
000182:
000183: 31,2564           05311        STARTP67           TC       NEWMODEX                              #  NO HARM IN "STARTING" P67 OVER AND OVER
000184: 31,2565           00103                           DEC      67         B-14                       #    SO NO NEED FOR A FASTCHNG AND NO NEED
000185:


000187: 31,2566           34363                           CAF      TEN                                   #    TO SEE IF ALREADY IN P67
000188: 31,2567           12547                           TCF      VRTSTART
000189:
000190: 31,2570           34737        STABL?             CAF      BIT13                                 #  IS UN-ATTITUDE-HOLD DISCRETE PRESENT?
000191: 31,2571           00006                           EXTEND
000192: 31,2572           02031                           RAND     CHAN31
000193: 31,2573           10000                           CCS      A
000194: 31,2574           12600                           TCF      GUILDRET                              #  YES: ALL'S WELL
000195: 31,2575           05321        P66NOW?            TC       CHECKMM                               #  NO:  ARE WE IN P66 NOW?
000196: 31,2576           00102                           DEC      66         B-14
000197: 31,2577           12537                           TCF      STARTP66                              #  NO
000198:
000199:                                                                                                  #                                                (CONTINUE TO GUILDRET) YES
000200:
000201:                                                                                                  #  ****************************************************************************************************************
000202:                                                                                                  #  INITIALIZATION FOR THIS PASS
000203:                                                                                                  #  ****************************************************************************************************************
000204:
000205: 31,2600                                           COUNT*   $$/F2DPS
000206:
000207: 31,2600           00006        GUILDRET           EXTEND
000208: 31,2601           31623                           DCA      TPIP
000209: 31,2602           53572                           DXCH     TPIPOLD
000210:
000211: 31,2603           03721                           TC       FASTCHNG
000212:
000213: 31,2604           00006                           EXTEND
000214: 31,2605           31557                           DCA      PIPTIME1
000215: 31,2606           53623                           DXCH     TPIP
000216:
000217: 31,2607           00006                           EXTEND
000218: 31,2610           31641                           DCA      TTF/8
000219: 31,2611           53551                           DXCH     TTF/8TMP
000220:
000221: 31,2612           11621                           CCS      FLPASS0
000222: 31,2613           12657                           TCF      TTFINCR
000223:
000224: 31,2614           51620        BRSPOT1            INDEX    WCHPHASE
000225: 31,2615           12446                           TCF      NEWPHASE
000226:
000227:                                                                                                  #  ****************************************************************************************************************
000228:                                                                                                  #  ROUTINES TO START NEW PHASES
000229:                                                                                                  #  ****************************************************************************************************************
000230:
000231: 31,2616           05311        P65START           TC       NEWMODEX
000232: 31,2617           00101                           DEC      65         B-14
000233: 31,2620           44752                           CS       TWO
000234: 31,2621           55645                           TS       WCHVERT
000235: 31,2622           05516                           TC       DOWNFLAG                              #  PERMIT X-AXIS OVERRIDE
000236: 31,2623           00311                           ADRES    XOVINFLG
000237:


000239: 31,2624           05516        COMSTART           TC       DOWNFLAG
000240: 31,2625           00142                           ADRES    POUTFLAG
000241: 31,2626           12657                           TCF      TTFINCR
000242:
000243:
000244: 31,2627           33743        STARTP64           CAF      DELTTFAP                              #  AUGMENT TTF/8 (TWO-PHASE ONLY)
000245: 31,2630           27550                           ADS      TTF/8TMP
000246: 31,2631           05311                 +2        TC       NEWMODEX
000247: 31,2632           00100                           DEC      64         B-14
000248: 31,2633           34752                           CAF      TWO
000249: 31,2634           55620                           TS       WCHPHASE
000250: 31,2635           34740                           CA       BIT12                                 #  ENABLE RUPT10
000251: 31,2636           00006                           EXTEND
000252: 31,2637           05013                           WOR      CHAN13
000253: 31,2640           05516                           TC       DOWNFLAG                              #  INITIALIZE REDESIGNATION FLAG
000254: 31,2641           00143                           ADRES    REDFLAG
000255: 31,2642           12624                           TCF      COMSTART
000256:
000257:                                                                                                  #  ****************************************************************************************************************
000258:                                                                                                  #  SET LINEAR GUIDANCE COEFFICIENTS
000259:                                                                                                  #  ****************************************************************************************************************
000260:
000261: 31,2643           30102        LINSET?            CA       FLAGWRD6                              #  ONE-PHASE OR TWO-PHASE?
000262: 31,2644           74743                           MASK     2PHASBIT
000263: 31,2645           00006                           EXTEND
000264: 31,2646           12631                           BZF      STARTP64   +2                         #  ONE-PHASE: GO DIRECTLY TO APPROACH PHASE
000265:
000266: 31,2647           03667        LINSET             TC       INTPRETX
000267: 31,2650           51775                           VLOAD    VSU*                                  #  -        -     -
000268: 31,2651           02271                                    ACG                                   #  JLING = (ACG - ADG)/TTF
000269: 31,2652           02417                                    ADG,1
000270: 31,2653           70322                           VSR3     V/SC
000271: 31,2654           03551                                    TTF/8TMP                              #  TTF/8 NOT YET UPDATED
000272: 31,2655           02277                           STORE    JLING                                 #  JLING IS IN UMITS OF 2(-18) M/CS/CS/CS
000273: 31,2656           77776                           EXIT
000274:
000275:                                                                                                  #                                              (CONTINUE TO TTFINCR)
000276:
000277:                                                                                                  #  ****************************************************************************************************************
000278:                                                                                                  #  INCREMENT TTF/8, UPDATE LAND FOR LUNAR ROTATION, DO OTHER USEFUL THINGS
000279:                                                                                                  #  ****************************************************************************************************************
000280:
000281:                                                                                                  #             TTFINCR COMPUTATIONS ARE AS FOLLOWS:-
000282:
000283:                                                                                                  #                       TTF/8 UPDATED FOR TIME SINCE LAST PASS:
000284:
000285:                                                                                                  #                                  TTF/8 = TTF/8 + (TPIP - TPIPOLD)/8
000286:
000287:                                                                                                  #                       LANDING SITE VECTOR UPDATED FOR LUNAR ROTATION:
000288:


000290:                                                                                                  #                                  -                  -      -                      -
000291:                                                                                                  #                                  LAND = /LAND/ UNIT(LAND - LAND(TPIP - TPIPOLD) * WM)
000292:
000293:                                                                                                  #                       SLANT RANGE TO LANDING SITE, FOR DISPLAY:
000294:
000295:                                                                                                  #                                                   -      -
000296:                                                                                                  #                                  RANGEDSP = ABVAL(LAND - R)
000297:
000298: 31,2657           06036        TTFINCR            TC       INTPRET
000299: 31,2660           45345                           DLOAD    DSU
000300: 31,2661           03623                                    TPIP
000301: 31,2662           03572                                    TPIPOLD
000302: 31,2663           41461                           SLR      PUSH                                  #  SHIFT SCALES DELTA TIME TO 2(17) CSECS
000303: 31,2664           21214                                    11D
000304: 31,2665           47361                           VXSC     VXV
000305: 31,2666           03633                                    LAND
000306: 31,2667           02331                                    WM
000307: 31,2670           47045                           BVSU     RTB
000308: 31,2671           03633                                    LAND
000309: 31,2672           21700                                    NORMUNIT
000310: 31,2673           76561                           VXSC     VSL1
000311: 31,2674           02337                                    /LAND/
000312: 31,2675           03543                           STORE    LANDTEMP
000313: 31,2676           51451                           VSU      ABVAL
000314: 31,2677           03517                                    R
000315: 31,2700           16532                           STODL    RANGEDSP
000316: 31,2701           77776                           EXIT
000317:
000318: 31,2702           52155                           DXCH     MPAC
000319: 31,2703           21551                           DAS      TTF/8TMP                              #  NOW HAVE INCREMENTED TTF/8 IN TTF/8TMP
000320:
000321: 31,2704           03721                           TC       FASTCHNG
000322:
000323: 31,2705           00006                           EXTEND
000324: 31,2706           31551                           DCA      TTF/8TMP
000325: 31,2707           53641                           DXCH     TTF/8
000326:
000327: 31,2710           00006                           EXTEND
000328: 31,2711           31543                           DCA      LANDTEMP
000329: 31,2712           53633                           DXCH     LAND
000330: 31,2713           00006                           EXTEND
000331: 31,2714           31545                           DCA      LANDTEMP   +2
000332: 31,2715           53635                           DXCH     LAND       +2
000333: 31,2716           00006                           EXTEND
000334: 31,2717           31547                           DCA      LANDTEMP   +4
000335: 31,2720           53637                           DXCH     LAND       +4
000336:
000337: 31,2721           03674                           TC       TDISPSET
000338: 31,2722           03721                           TC       FASTCHNG                              #  SINCE REDESIG MAY CHANGE LANDTEMP
000339:


000341: 31,2723           51620        BRSPOT2            INDEX    WCHPHASE
000342: 31,2724           12454                           TCF      PREGUIDE
000343:
000344:                                                                                                  #  ****************************************************************************************************************
000345:                                                                                                  #  LANDING SITE PERTURBATION EQUATIONS
000346:                                                                                                  #  ****************************************************************************************************************
000347:
000348: 31,2725           30102        REDESIG            CA       FLAGWRD6                              #  IS REDFLAG SET?
000349: 31,2726           74746                           MASK     REDFLBIT
000350: 31,2727           00006                           EXTEND
000351: 31,2730           13035                           BZF      RGVGCALC                              #  NO:   SKIP REDESIGNATION LOGIC
000352:
000353: 31,2731           31664                           CA       TREDES                                #  YES:  HAS TREDES REACHED ZERO?
000354: 31,2732           00006                           EXTEND
000355: 31,2733           13035                           BZF      RGVGCALC                              #  YES:  SKIP REDESIGNATION LOGIC
000356:
000357: 31,2734           00004                           INHINT
000358: 31,2735           31642                           CA       ELINCR1
000359: 31,2736           55552                           TS       ELINCR
000360: 31,2737           31643                           CA       AZINCR1
000361: 31,2740           55554                           TS       AZINCR
000362: 31,2741           03721                           TC       FASTCHNG
000363:
000364: 31,2742           34755                           CA       ZERO
000365: 31,2743           55642                           TS       ELINCR1
000366: 31,2744           55643                           TS       AZINCR1
000367: 31,2745           00003                           RELINT
000368: 31,2746           55553                           TS       ELINCR     +1
000369: 31,2747           55555                           TS       AZINCR     +1
000370:
000371: 31,2750           30120                           CA       FIXLOC                                #  SET PD TO 0
000372: 31,2751           54166                           TS       PUSHLOC
000373:
000374: 31,2752           06036                           TC       INTPRET
000375: 31,2753           52375                           VLOAD    VSU
000376: 31,2754           03633                                    LAND
000377: 31,2755           03517                                    R                                     #                  -      -
000378: 31,2756           41434                           RTB      PUSH                                  #  PUSH DOWN UNIT (LAND - R)
000379: 31,2757           21700                                    NORMUNIT
000380: 31,2760           76435                           VXV      VSL1
000381: 31,2761           02154                                    YNBPIP                                #                     -          -      -
000382: 31,2762           65361                           VXSC     PDDL                                  #  PUSH DOWN - ELINCR(YNB * UNIT(LAND - R))
000383: 31,2763           03553                                    ELINCR
000384: 31,2764           03555                                    AZINCR
000385: 31,2765           52361                           VXSC     VSU
000386: 31,2766           02154                                    YNBPIP
000387: 31,2767           41455                           VAD      PUSH                                  #  RESULTING VECTOR IS 1/2 REAL SIZE
000388:
000389: 31,2770           45345                           DLOAD    DSU                                   #  MAKE SURE REDESIGNATION IS NOT
000390: 31,2771           00001                                    0                                     #    TOO CLOSE TO THE HORIZON
000391:


000393: 31,2772           23762                                    DEPRCRIT
000394: 31,2773           71240                           BMN      DLOAD
000395: 31,2774           62777                                    REDES1
000396: 31,2775           23762                                    DEPRCRIT
000397: 31,2776           00001                           STORE    0
000398: 31,2777           45345        REDES1             DLOAD    DSU
000399: 31,3000           03633                                    LAND
000400: 31,3001           03517                                    R
000401: 31,3002           74271                           DDV      VXSC
000402: 31,3003           00001                                    0
000403: 31,3004           53455                           VAD      UNIT
000404: 31,3005           03517                                    R
000405: 31,3006           76561                           VXSC     VSL1
000406: 31,3007           02337                                    /LAND/
000407: 31,3010           03543                           STORE    LANDTEMP
000408: 31,3011           77776                           EXIT                                           #  LOOKANGL WILL BE COMPUTED AT RGVGCALC
000409:
000410: 31,3012           03721                           TC       FASTCHNG
000411:
000412: 31,3013           00006                           EXTEND
000413: 31,3014           31543                           DCA      LANDTEMP
000414: 31,3015           53633                           DXCH     LAND
000415: 31,3016           00006                           EXTEND
000416: 31,3017           31545                           DCA      LANDTEMP   +2
000417: 31,3020           53635                           DXCH     LAND       +2
000418: 31,3021           00006                           EXTEND
000419: 31,3022           31547                           DCA      LANDTEMP   +4
000420: 31,3023           53637                           DXCH     LAND       +4
000421:
000422: 31,3024           13035                           TCF      RGVGCALC
000423:
000424:                                                                                                  #  ****************************************************************************************************************
000425:                                                                                                  #  COMPUTE STATE IN GUIDANCE COORDINATES
000426:                                                                                                  #  ****************************************************************************************************************
000427:
000428:                                                                                                  #             RGVGCALC COMPUTATIONS ARE AS FOLLOWS:-
000429:
000430:                                                                                                  #                      VELOCITY RELATIVE TO THE SURFACE:
000431:
000432:                                                                                                  #                                  -         -   -   -
000433:                                                                                                  #                                  ANGTERM = V + R * WM
000434:
000435:                                                                                                  #                      STATE IN GUIDANCE COORDINATES:
000436:
000437:                                                                                                  #                                  -     *   -   -
000438:                                                                                                  #                                  RGU = CG (R - LAND)
000439:
000440:                                                                                                  #                                  -     *   -   -    -
000441:                                                                                                  #                                  VGU = CG (V - WM * R)
000442:


000444:                                                                                                  #                      HORIZONTAL VELOCITY FOR DISPLAY:
000445:
000446:                                                                                                  #                                  VHORIZ = 8 ABVAL (0, VG , VG )
000447:                                                                                                  #                                                         2    1
000448:
000449:                                                                                                  #                      DEPRESSION ANGLE FOR DISPLAY:
000450:
000451:                                                                                                  #                                                         -   -     -
000452:                                                                                                  #                                  LOOKANGL = ARCSIN(UNIT(R - LAND).XMBPIP)
000453:
000454: 31,3025           06036        CALCRGVG           TC       INTPRET                               #  IN IGNALG, COMPUTE V FROM INTEGRATION
000455: 31,3026           64375                           VLOAD    MXV                                   #    OUTPUT AND TRIM CORRECTION TERM
000456: 31,3027           00025                                    VATT1                                 #    COMPUTED LAST PASS AND LEFT IN UNFC/2
000457: 31,3030           01734                                    REFSMMAT
000458: 31,3031           53362                           VSR1     VAD
000459: 31,3032           03252                                    UNFC/2
000460: 31,3033           03525                           STORE    V
000461: 31,3034           77776                           EXIT
000462:
000463: 31,3035           06036        RGVGCALC           TC       INTPRET                               #  ENTER HERE TO RECOMPUTE RG AND VG
000464: 31,3036           47375                           VLOAD    VXV
000465: 31,3037           03517                                    R
000466: 31,3040           02331                                    WM
000467: 31,3041           70455                           VAD      VSR2                                  #  RESCALE TO UNITS OF 2(9) M/CS
000468: 31,3042           03525                                    V
000469: 31,3043           02305                           STORE    ANGTERM
000470: 31,3044           77721                           MXV
000471: 31,3045           02510                                    CG                                    #  NO SHIFT SINCE ANGTERM IS DOUBLE SIZED
000472: 31,3046           03625                           STORE    VGU
000473: 31,3047           55525                           PDDL     VDEF                                  #  FORM (0,VG ,VG ) IN UNITS OF 2(10) M/CS
000474: 31,3050           06424                                    ZEROVECS                              #            2   1
000475: 31,3051           52446                           ABVAL    SL3
000476: 31,3052           26267                           STOVL    VHORIZ                                #  VHORIZ FOR DISPLAY DURING P65, P66, P67
000477: 31,3053           03517                                    R                                     #            -   -
000478: 31,3054           41451                           VSU      PUSH                                  #  PUSH DOWN R - LAND
000479: 31,3055           03633                                    LAND
000480: 31,3056           76521                           MXV      VSL1
000481: 31,3057           02510                                    CG
000482: 31,3060           26544                           STOVL    RGU
000483: 31,3061           50234                           RTB      DOT                                   #  NOW IN MPAC IS SINE(LOOKANGL)/4
000484: 31,3062           21700                                    NORMUNIT
000485: 31,3063           02146                                    XNBPIP
000486: 31,3064           77776                           EXIT
000487:
000488: 31,3065           30120                           CA       FIXLOC                                #  RESET PUSH DOWN POINTER
000489: 31,3066           54166                           TS       PUSHLOC
000490:
000491: 31,3067           30154                           CA       MPAC                                  #  COMPUTE LOOKANGL ITSELF
000492: 31,3070           60000                           DOUBLE
000493: 31,3071           04616                           TC       BANKCALL
000494:


000496: 31,3072           61643                           CADR     SPARCSIN   -1
000497: 31,3073           63742                           AD       1/2DEG
000498: 31,3074           00006                           EXTEND
000499: 31,3075           73741                           MP       180DEGS
000500: 31,3076           55665                           TS       LOOKANGL                              #  LOOKANGL FOR DISPLAY DURING P64
000501:
000502: 31,3077           51620        BRSPOT3            INDEX    WCHPHASE
000503: 31,3100           12462                           TCF      WHATGUID
000504:
000505:                                                                                                  # ****************************************************************************************************************
000506:                                                                                                  #  LINEAR GUIDANCE EQUATION
000507:                                                                                                  # ****************************************************************************************************************
000508:
000509: 31,3101           03667        LINGUID            TC       INTPRETX
000510: 31,3102           74375                           VLOAD    VXSC                                  #  -     -     -
000511: 31,3103           02277                                    JLING                                 #  ACG = ADG + JLING TTF
000512: 31,3104           03641                                    TTF/8
000513: 31,3105           52132                           VSL3     GOTO                                  #  PICK UP THE VAD* AT AFCCALC
000514: 31,3106           63171                                    AFCCALC
000515:
000516:                                                                                                  # ****************************************************************************************************************
000517:                                                                                                  #  TTF/4 COMPUTATION
000518:                                                                                                  # ****************************************************************************************************************
000519:
000520: 31,3107           03667        TTF/8CL            TC       INTPRETX
000521: 31,3110           77743                           DLOAD*
000522: 31,3111           02431                                    JDG2TTF,1
000523: 31,3112           23567                           STODL*   TABLTTF    +6                         #  A(3) = 8 JDG  TO TABLTTF
000524: 31,3113           02427                                    ADG2TTF,1                             #              2
000525: 31,3114           17565                           STODL    TABLTTF    +4                         #  A(2) = 6 ADG  TO TABLTTF
000526: 31,3115           03631                                    VGU        +4                         #              2
000527: 31,3116           42605                           DMP      DAD*
000528: 31,3117           23755                                    3/4DP
000529: 31,3120           02425                                    VDG2TTF,1
000530: 31,3121           23563                           STODL*   TABLTTF    +2                         #  A(1) = (6 VGU  + 18 VDG )/8 TO TABLTTF
000531: 31,3122           02407                                    RDG        +4,1                       #               2         2
000532: 31,3123           41225                           DSU      DMP
000533: 31,3124           02550                                    RGU        +4
000534: 31,3125           23753                                    3/8DP
000535: 31,3126           03561                           STORE    TABLTTF                               #  A(0) = -24 (RGU  - RDG )/64 TO TABLTTF
000536: 31,3127           77776                           EXIT                                           #                 2      2
000537:
000538: 31,3130           34744                           CA       BIT8
000539: 31,3131           55570                           TS       TABLTTF    +10                        #  FRACTIONAL PRECISION FOR TTF TO TABLE
000540:
000541: 31,3132           00006                           EXTEND
000542: 31,3133           31641                           DCA      TTF/8
000543: 31,3134           52155                           DXCH     MPAC                                  #  LOADS TTF/8 (INITIAL GUESS) INTO MPAC
000544: 31,3135           34752                           CAF      TWO                                   #  DEGREE - ONE
000545: 31,3136           54001                           TS       L
000546:


000548: 31,3137           33733                           CAF      TABLTTFL
000549: 31,3140           03543                           TC       ROOTPSRS                              #  YIELDS TTF/8 IN MPAC
000550: 31,3141           05652                           TC       POODOO                                #  BAD RETURN
000551: 31,3142           01406                           OCT      01406
000552: 31,3143           00006                           EXTEND                                         #  GOOD RETURN
000553: 31,3144           30155                           DCA      MPAC                                  #  FETCH TTF/8 KEEPING IT IN MPAC
000554: 31,3145           53641                           DXCH     TTF/8                                 #  CORRECTED TTF/8
000555:
000556: 31,3146           03674                           TC       TDISPSET
000557:
000558:                                                                                                  #                                               (CONTINUE TO QUADGUID)
000559:
000560:                                                                                                  #  ****************************************************************************************************************
000561:                                                                                                  #  MAIN GUIDANCE EQUATION
000562:                                                                                                  #  ****************************************************************************************************************
000563:
000564:                                                                                                  #                       AS PUBLISHED:-
000565:
000566:                                                                                                  #                                                -     -        -     -
000567:                                                                                                  #                                  -     -     6(VDG + VG)   12(RDG - RG)
000568:                                                                                                  #                                  ACG = ADG + ----------- + ------------
000569:                                                                                                  #                                                  TTF         (TTF)(TTF)
000570:
000571:                                                                                                  #                       AS HERE PROGRAMMED:-
000572:
000573:                                                                                                  #                                              -     -
000574:                                                                                                  #                                       3 (1/4(RDG - RG)   -     - )
000575:                                                                                                  #                                       - (------------- + VDG + VG)
000576:                                                                                                  #                                 -     4 (    TTF/8               )   -
000577:                                                                                                  #                                 ACG = ---------------------------- + ADG
000578:                                                                                                  #                                                  TTF/8
000579:
000580: 31,3147           33732        QUADGUID           CAF      30SEC*17                              #  PULSE-OUTS ARE INHIBITED WHENEVER
000581: 31,3150           61640                           AD       TTF/8                                 #    TTF < 30 SECONDS, REGARDLESS OF
000582: 31,3151           00006                           EXTEND                                         #    THE DURATION OF LINEAR GUIDANCE
000583: 31,3152           63155                           BZMF     Q**DG**D
000584: 31,3153           05504                           TC       UPFLAG
000585: 31,3154           00142                           ADRES    POUTFLAG
000586: 31,3155           03667        Q**DG**D           TC       INTPRETX
000587: 31,3156           52373                           VLOAD*   VSU
000588: 31,3157           02403                                    RDG,1
000589: 31,3160           02544                                    RGU
000590: 31,3161           70541                           V/SC     VSR2
000591: 31,3162           03641                                    TTF/8
000592: 31,3163           53253                           VAD*     VAD
000593: 31,3164           02411                                    VDG,1
000594: 31,3165           03625                                    VGU
000595: 31,3166           74341                           V/SC     VXSC
000596: 31,3167           03641                                    TTF/8
000597:


000599: 31,3170           23755                                    3/4DP
000600: 31,3171           77653        AFCCALC            VAD*
000601: 31,3172           02417                                    ADG,1                                 #  CURRENT TARGET ACCELERATION
000602: 31,3173           02271                           STORE    ACG
000603: 31,3174           76505        AFCCALC1           VXM      VSL1                                  #  VERTGUID COMES HERE
000604: 31,3175           02510                                    CG
000605: 31,3176           70315                           PDVL     V/SC
000606: 31,3177           01237                                    GDT/2
000607: 31,3200           23751                                    GSCALE
000608: 31,3201           45445                           BVSU     STADR
000609: 31,3202           74525                           STORE    UNFC/2                                #  UNFC/2 NEED NOT BE UNITIZED
000610: 31,3203           77646                           ABVAL
000611: 31,3204           03574        AFCCALC2           STORE    /AFC/                                 #  MAGNITUDE OF AFC FOR THROTTLE
000612: 31,3205           71214                           BON      DLOAD
000613: 31,3206           03306                                    2PHASFLG
000614: 31,3207           63231                                    AFCCLEND
000615: 31,3210           03252                                    UNFC/2                                #  VERTICAL COMPONENT
000616: 31,3211           65316                           DSQ      PDDL
000617: 31,3212           03254                                    UNFC/2     +2                         #  OUT-OF-PLANE
000618: 31,3213           65316                           DSQ      PDDL
000619: 31,3214           23735                                    HIGHESTF
000620: 31,3215           63471                           DDV      DSQ
000621: 31,3216           01245                                    MASS                                  #                         2    2    2
000622: 31,3217           45225                           DSU      DSU                                   #  AMAXHORIZ = SQRT(ATOTAL - A  - A  )
000623: 31,3220           71244                           BPL      DLOAD                                 #                             1    0
000624: 31,3221           63223                                    AFCCALC3
000625: 31,3222           06424                                    ZEROVECS
000626: 31,3223           43366        AFCCALC3           SQRT     DAD
000627: 31,3224           03256                                    UNFC/2     +4
000628: 31,3225           44244                           BPL      BDSU
000629: 31,3226           63231                                    AFCCLEND
000630: 31,3227           03256                                    UNFC/2     +4
000631: 31,3230           03256                           STORE    UNFC/2     +4
000632: 31,3231           77776        AFCCLEND           EXIT
000633: 31,3232           03721                           TC       FASTCHNG
000634:
000635: 31,3233           31620                           CA       WCHPHASE                              #  PREPARE FOR PHASE SWITCHING LOGIC
000636: 31,3234           55617                           TS       WCHPHOLD
000637: 31,3235           25621                           INCR     FLPASS0                               #  INCREMENT PASS COUNTER
000638:
000639: 31,3236           51620        BRSPOT4            INDEX    WCHPHASE
000640: 31,3237           12470                           TCF      AFTRGUID
000641:
000642:                                                                                                  #  ***************************************************************************************************************
000643:                                                                                                  #  ERECT GUIDANCE-STABLE MEMBER TRANSFORMATION MATRIX
000644:                                                                                                  #  ***************************************************************************************************************
000645:
000646: 31,3240           06036        CGCALC             TC       INTPRET
000647: 31,3241           53575                           VLOAD    UNIT
000648: 31,3242           03633                                    LAND
000649:


000651: 31,3243           26510                           STOVL    CG                                    #  FIRST ROW
000652: 31,3244           02305                                    ANGTERM
000653: 31,3245           53361                           VXSC     VAD                                   #  REMEMBER THAT ANGTERM IS DOUBLE-SIZED
000654: 31,3246           03641                                    TTF/8
000655: 31,3247           03633                                    LAND
000656: 31,3250           47051                           VSU      RTB
000657: 31,3251           03517                                    R
000658: 31,3252           21700                                    NORMUNIT
000659: 31,3253           47035                           VXV      RTB
000660: 31,3254           03633                                    LAND
000661: 31,3255           21700                                    NORMUNIT
000662: 31,3256           26516                           STOVL    CG         +6                         #  SECOND ROW
000663: 31,3257           02510                                    CG
000664: 31,3260           76435                           VXV      VSL1
000665: 31,3261           02516                                    CG         +6
000666: 31,3262           02524                           STORE    CG         +14
000667: 31,3263           77776                           EXIT
000668:
000669:                                                                                                  #                                              (CONTINUE TO EXTLOGIC)
000670:
000671:                                                                                                  #  ****************************************************************************************************************
000672:                                                                                                  #  PREPARE TO EXIT
000673:                                                                                                  #  ****************************************************************************************************************
000674:
000675:                                                                                                  #  DECIDE (1) HOW TO EXIT, AND (2) WHETHER TO SWITCH PHASES
000676:
000677: 31,3264           11620        EXTLOGIC           CCS      WCHPHASE
000678: 31,3265           50000                           INDEX    A                                     #  WCHPHASE = +2    APPRQUAD    A = 1
000679: 31,3266           31425                           CA       TENDBRAK                              #  WCHPHASE = +0    BRAKQUAD    A = 0
000680: 31,3267           13271                           TCF      EXSPOT1    -1                         #  WCHPHASE = -1    IGNALG      A = 0
000681:
000682: 31,3270           33727        LINXLOGC           CA       3SEC*17
000683: 31,3271           61640                           AD       TTF/8
000684:
000685: 31,3272           00006        EXSPOT1            EXTEND
000686: 31,3273           51620                           INDEX    WCHPHASE
000687: 31,3274           62476                           BZMF     WHATEXIT
000688:
000689: 31,3275           03721                           TC       FASTCHNG
000690:
000691: 31,3276           31617                           CA       WCHPHOLD
000692: 31,3277           64753                           AD       ONE
000693: 31,3300           22007                           ZL                                             #  +0
000694: 31,3301           53621                           DXCH     WCHPHASE                              #  ADVANCING WCHPHASE AND RESETTING FLPASS0
000695:
000696: 31,3302           51617                           INDEX    WCHPHOLD
000697: 31,3303           12476                           TCF      WHATEXIT
000698:
000699:                                                                                                  #  ****************************************************************************************************************
000700:                                                                                                  #  ROUTINES FOR EXITING FROM LANDING GUIDANCE
000701:


000703:                                                                                                  #  ****************************************************************************************************************
000704:
000705:                                                                                                  #  1.        EXGSUB IS THE RETURN WHEN GUIDSUB IS CALLED BY THE IGNITION ALGORITHM.
000706:
000707:                                                                                                  #  2.        EXBRAK IN THE EXIT USED DURING THE BRAKING PHASE.   IN THIS CASE UNIT(R) IS THE WINDOW POINTING VECTOR.
000708:
000709:                                                                                                  #  3.        EXNORM IS THE EXIT USED AT OTHER TIMES DURING THE BURN.
000710:
000711:                                                                                                  #           (EXOVFLOW IS A SUBROUTINE OF EXBRAK AND EXNORM CALLED WHEN OVERFLOW OCCURRED ANYWHERE IN GUIDANCE.)
000712:
000713: 31,3304           06036        EXGSUB             TC       INTPRET                               #  COMPUTE TRIM VELOCITY CORRECTION TERM
000714: 31,3305           47175                           VLOAD    RTB
000715: 31,3306           03252                                    UNFC/2
000716: 31,3307           21700                                    NORMUNIT
000717: 31,3310           74361                           VXSC     VXSC
000718: 31,3311           03425                                    ZOOMTIME
000719: 31,3312           22001                                    TRIMACCL
000720: 31,3313           03252                           STORE    UNFC/2
000721: 31,3314           77776                           EXIT
000722:
000723: 31,3315           11645                           CCS      NGUIDSUB
000724: 31,3316           12520                           TCF      GUIDSUB
000725: 31,3317           11644                           CCS      NIGNLOOP
000726: 31,3320           13323                           TCF      +3
000727: 31,3321           05567                           TC       ALARM
000728: 31,3322           01412                           OCT      01412
000729:
000730: 31,3323           04635                 +3        TC       POSTJUMP
000731: 31,3324           65075                           CADR     DDUMCALC
000732:
000733: 31,3325           06036        EXBRAK             TC       INTPRET
000734: 31,3326           77775                           VLOAD
000735: 31,3327           03535                                    UNIT/R/
000736: 31,3330           03260                           STORE    UNWC/2
000737: 31,3331           77776                           EXIT
000738: 31,3332           13405                           TCF      STEER?
000739:
000740: 31,3333           06036        EXNORM             TC       INTPRET
000741: 31,3334           52375                           VLOAD    VSU
000742: 31,3335           03633                                    LAND
000743: 31,3336           03517                                    R
000744: 31,3337           77634                           RTB
000745: 31,3340           21700                                    NORMUNIT
000746: 31,3341           03260                           STORE    UNWC/2                                #  UNIT(LAND - R) IS TENTATIVE CHOICE
000747: 31,3342           50235                           VXV      DOT
000748: 31,3343           02146                                    XNBPIP
000749: 31,3344           02516                                    CG         +6
000750: 31,3345           77776                           EXIT                                           #  WITH PROJ IN MPAC 1/8 REAL SIZE
000751:
000752: 31,3346           40154                           CS       MPAC                                  #  GET COEFFICIENT FOR CG +14
000753:


000755: 31,3347           63763                           AD       PROJMAX
000756: 31,3350           64733                           AD       POSMAX
000757: 31,3351           54130                           TS       BUF
000758: 31,3352           40130                           CS       BUF
000759: 31,3353           26130                           ADS      BUF                                   #  RESULT IS 0 IF PROJMAX - PROJ NEGATIVE
000760:
000761: 31,3354           43764                           CS       PROJMIN                               #  GET COEFFICIENT FOR UNIT(LAND - R)
000762: 31,3355           60154                           AD       MPAC
000763: 31,3356           64733                           AD       POSMAX
000764: 31,3357           54131                           TS       BUF        +1
000765: 31,3360           40131                           CS       BUF        +1
000766: 31,3361           26131                           ADS      BUF        +1                         #  RESULT IS 0 IF PROJ - PROJMIN NEGATIVE
000767:
000768: 31,3362           34751                           CAF      FOUR
000769: 31,3363           76241        UNWCLOOP           MASK     SIX
000770: 31,3364           54002                           TS       Q
000771: 31,3365           35014                           CA       EBANK5
000772: 31,3366           54003                           TS       EBANK
000773: 31,3367  E5,1507                                  EBANK=   CG
000774: 31,3367           30130                           CA       BUF
000775: 31,3370           00006                           EXTEND
000776: 31,3371           50002                           INDEX    Q
000777: 31,3372           71523                           MP       CG         +14
000778: 31,3373           24006                           INCR     BBANK
000779: 31,3374  E6,1657                                  EBANK=   UNWC/2
000780: 31,3374           50002                           INDEX    Q
000781: 31,3375           53660                           DXCH     UNWC/2
000782: 31,3376           00006                           EXTEND
000783: 31,3377           70131                           MP       BUF        +1
000784: 31,3400           50002                           INDEX    Q
000785: 31,3401           21660                           DAS      UNWC/2
000786: 31,3402           10002                           CCS      Q
000787: 31,3403           13363                           TCF      UNWCLOOP
000788:
000789: 31,3404           24006                           INCR     BBANK
000790: 31,3405  E7,1610                                  EBANK=   PIF
000791:
000792: 31,3405           30076        STEER?             CA       FLAGWRD2                              #  IF STEERSW DOWN NO OUTPUTS
000793: 31,3406           74741                           MASK     STEERBIT
000794: 31,3407           00006                           EXTEND
000795: 31,3410           13416                           BZF      RATESTOP
000796:
000797: 31,3411           30121        EXVERT             CA       OVFIND                                #  IF OVERFLOW ANYWHERE IN GUIDANCE
000798: 31,3412           00006                           EXTEND                                         #    DON'T CALL THROTTLE OR FINDCDUW
000799: 31,3413           13421                           BZF      +6
000800:
000801: 31,3414           05567        EXOVFLOW           TC       ALARM                                 #  SOUND THE ALARM NON-ABORTIVELY.
000802: 31,3415           01410                           OCT      01410
000803:
000804: 31,3416           04616        RATESTOP           TC       BANKCALL                              #  CLEAN UP AFTER LAST FINDCDUW
000805:


000807: 31,3417           40165                           CADR     STOPRATE
000808:
000809: 31,3420           13426                           TCF      DISPEXIT
000810:
000811: 31,3421           02247        GDUMP1             TC       THROTTLE
000812: 31,3422           06036                           TC       INTPRET
000813: 31,3423           77624                           CALL
000814: 31,3424           61062                                    FINDCDUW   -2
000815: 31,3425           77776                           EXIT
000816:
000817:                                                                                                  #                                                    (CONTINUE TO DISPEXIT)
000818:
000819:
000820:                                                                                                  #  ****************************************************************************************************************
000821:                                                                                                  #  GUIDANCE LOOP DISPLAYS
000822:                                                                                                  #  ****************************************************************************************************************
000823:
000824: 31,3426           00006        DISPEXIT           EXTEND                                         #  KILL GROUP 3:  DISPLAYS WILL BE
000825: 31,3427           34755                           DCA      NEG0                                  #    RESTORED BY NEXT GUIDANCE CYCLE
000826: 31,3430           52757                           DXCH     -PHASE3
000827:
000828: 31,3431           40104                           CS       FLAGWRD8                              #  IF FLUNDISP SET, NO DISPLAY THIS PASS
000829: 31,3432           74742                           MASK     FLUNDBIT
000830: 31,3433           00006                           EXTEND
000831: 31,3434           13444                           BZF      ENDLLJOB                              #  TO PICK UP THE TAG
000832:
000833: 31,3435           51617                           INDEX    WCHPHOLD
000834: 31,3436           12502                           TCF      WHATDISP
000835:
000836: 31,3437           05353                 -2        TC       PHASCHNG                              #  KILL GROUP 5
000837: 31,3440           00035                           OCT      00035
000838:
000839: 31,3441           33765        P63DISPS           CAF      V06N63
000840: 31,3442           04616        DISPCOMN           TC       BANKCALL
000841: 31,3443           20346                           CADR     REGODSPR
000842:
000843: 31,3444           15155        ENDLLJOB           TCF      ENDOFJOB
000844:
000845: 31,3445           31664        P64DISPS           CA       TREDES                                #  HAS TREDES REACHED ZERO?
000846: 31,3446           00006                           EXTEND
000847: 31,3447           13471                           BZF      RED-OVER                              #  YES:  CLEAR REDESIGNATION FLAG
000848:
000849: 31,3450           40102                           CS       FLAGWRD6                              #  NO:   IS REDFLAG SET?
000850: 31,3451           74746                           MASK     REDFLBIT
000851: 31,3452           00006                           EXTEND
000852: 31,3453           13473                           BZF      REDES-OK                              #  YES:  DO STATIC DISPLAY
000853:
000854: 31,3454           33766                           CAF      V06N64                                #  OTHERWISE USE FLASHING DISPLAY
000855: 31,3455           04616                           TC       BANKCALL
000856:


000858: 31,3456           20340                           CADR     REFLASHR
000859: 31,3457           16001                           TCF      GOTOPOOH                              #  TERMINATE
000860: 31,3460           13463                           TCF      P64CEED                               #  PROCEED    PERMIT REDESIGNATIONS
000861: 31,3461           13445                           TCF      P64DISPS                              #  RECYCLE
000862:
000863: 31,3462           13444                           TCF      ENDLLJOB                              #  TO PICK UP THE TAG
000864:
000865: 31,3463           34755        P64CEED            CAF      ZERO
000866: 31,3464           55642                           TS       ELINCR1
000867: 31,3465           55643                           TS       AZINCR1
000868:
000869: 31,3466           05504                           TC       UPFLAG                                #  ENABLE REDESIGNATION LOGIC
000870: 31,3467           00143                           ADRES    REDFLAG
000871:
000872: 31,3470           15155                           TCF      ENDOFJOB
000873:
000874: 31,3471           05516        RED-OVER           TC       DOWNFLAG
000875: 31,3472           00143                           ADRES    REDFLAG
000876: 31,3473           33766        REDES-OK           CAF      V06N64
000877: 31,3474           13442                           TCF      DISPCOMN
000878:
000879:
000880: 31,3475           33767        VERTDISP           CAF      V06N60
000881: 31,3476           13442                           TCF      DISPCOMN
000882:
000883:
000884:                                                                                                  #  ****************************************************************************************************************
000885:                                                                                                  #  GUIDANCE FOR VERTICAL DESCENT
000886:                                                                                                  #  ****************************************************************************************************************
000887:
000888: 31,3477           11645        VERTGUID           CCS      WCHVERT
000889: 31,3500           13426                           TCF      DISPEXIT                              #  POSITIVE   P67, WHICH SKIPS ALL GUIDANCE
000890: 31,3501           13516                           TCF      P66VERT                               #  +0
000891:
000892:                                                                                                  #           THE P65 GUIDANCE EQUATION IS AS FOLLOWS:-
000893:
000894:                                                                                                  #                            -         -
000895:                                                                                                  #                      -     VDGVERT - VGU          -
000896:                                                                                                  #                      ACG = -------------  , WHERE VDGVERT = (-3FPS,0,0)
000897:                                                                                                  #                               TAUVERT
000898:
000899: 31,3502           00006        P65VERT            EXTEND                                         #  NEGATIVE
000900: 31,3503           43760                           DCS      +3FPS
000901: 31,3504           53643                           DXCH     VDGVERT
000902: 31,3505           06036                           TC       INTPRET
000903: 31,3506           65375                           VLOAD    PDDL
000904: 31,3507           06424                                    ZEROVECS
000905: 31,3510           03643                                    VDGVERT
000906: 31,3511           52266                           VDEF     VSU                                   #  FORM (VDGVERT,0,0), LEAVING DP 0 IN PDL
000907: 31,3512           03625                                    VGU
000908:


000910: 31,3513           52141                           V/SC     GOTO
000911: 31,3514           23745                                    TAUVERT
000912: 31,3515           63174                                    AFCCALC1
000913:
000914:
000915:                                                                                                  #           THE R.O.D. EQUATION IS AS FOLLOWS:-
000916:
000917:                                                                                                  #                             (VDGVERTX - VGUX)/TAUVERT - GMOON
000918:                                                                                                  #                     /AFC/ = ---------------------------------
000919:                                                                                                  #                                       UNIT/R/ . XNB
000920:
000921: 31,3516           57644        P66VERT            XCH      RODCOUNT                              #  RESTART COULD CAUSE RODCOUNTS TO BE LOST
000922: 31,3517           00006                           EXTEND
000923: 31,3520           73756                           MP       +1FPS
000924: 31,3521           21643                           DAS      VDGVERT
000925: 31,3522           03721                           TC       FASTCHNG
000926: 31,3523           06036                           TC       INTPRET
000927: 31,3524           45345                           DLOAD    DSU
000928: 31,3525           03643                                    VDGVERT
000929: 31,3526           03625                                    VGU
000930: 31,3527           45271                           DDV      DSU
000931: 31,3530           23747                                    TAUROD
000932: 31,3531           22010                                    MOONG
000933: 31,3532           50315                           PDVL     DOT                                   #  HAVE ACC IN UNITS OF 2(-2) M/CS/CS
000934: 31,3533           02146                                    XNBPIP
000935: 31,3534           03535                                    UNIT/R/
000936: 31,3535           45465                           BDDV     STADR
000937: 31,3536           74203                           STORE    /AFC/
000938: 31,3537           77404                           BOVB     EXIT
000939: 31,3540           63414                                    EXOVFLOW
000940: 31,3541           02247                           TC       THROTTLE
000941: 31,3542           13426                           TCF      DISPEXIT
000942:
000943:
000944:                                                                                                  #  ****************************************************************************************************************
000945:                                                                                                  #  REDESIGNATOR TRAP
000946:                                                                                                  #  ****************************************************************************************************************
000947:
000948: 21,2006                                           BANK     21
000949: 21,2000                                           SETLOC   F2DPS*21
000950: 21,2000                                           BANK
000951:
000952: 21,2006                                           COUNT*   $$/F2DPS
000953:
000954: 21,2006           56016        PITFALL            XCH      BANKRUPT
000955: 21,2007           00006                           EXTEND
000956: 21,2010           22012                           QXCH     QRUPT
000957:
000958: 21,2011           05321                           TC       CHECKMM                               #  IF NOT IN P64, NO REASON TO CONTINUE
000959: 21,2012           00100                           DEC      64         B-14
000960:


000962: 21,2013           15270                           TCF      RESUME
000963:
000964: 21,2014           00006                           EXTEND
000965: 21,2015           00031                           READ     CHAN31
000966: 21,2016           40000                           COM
000967: 21,2017           72077                           MASK     ALL4BITS
000968: 21,2020           55645                           TS       ELVIRA
000969: 21,2021           34752                           CAF      TWO
000970: 21,2022           55644                           TS       ZERLINA
000971: 21,2023           34756                           CAF      FIVE
000972: 21,2024           05173                           TC       TWIDDLE
000973: 21,2025           02032                           ADRES    REDESMON
000974: 21,2026           15270                           TCF      RESUME
000975:
000976:
000977:                                                                                                  #  REDESIGNATION MONITOR (INITIATED BY PITFALL)
000978:
000979:
000980: 21,2027           55644        PREMON1            TS       ZERLINA
000981: 21,2030           34757        PREMON2            CAF      SEVEN
000982: 21,2031           05224                           TC       VARDELAY
000983: 21,2032           00006        REDESMON           EXTEND
000984: 21,2033           00031                           READ     31
000985: 21,2034           40000                           COM
000986: 21,2035           72077                           MASK     ALL4BITS
000987: 21,2036           57645                           XCH      ELVIRA
000988: 21,2037           54001                           TS       L
000989: 21,2040           11645                           CCS      ELVIRA                                #  DO ANY BITS APPEAR THIS PASS?
000990: 21,2041           12030                           TCF      PREMON2                               #    Y: CONTINUE MONITOR
000991:
000992: 21,2042           10001                           CCS      L                                     #    N: ANY LAST PASS?
000993: 21,2043           12052                           TCF      COUNT'EM                              #       Y: COUNT 'EM, RESET RUPT, TERMINATE
000994: 21,2044           11644                           CCS      ZERLINA                               #       N: HAS ZERLINA REACHED ZERO YET?
000995: 21,2045           12027                           TCF      PREMON1                               #          N: DIMINISH ZERLINA, CONTINUE
000996: 21,2046           34740        RESETRPT           CAF      BIT12                                 #          Y: RESET RUPT, TERMINATE
000997: 21,2047           00006                           EXTEND
000998: 21,2050           05013                           WOR      CHAN13
000999: 21,2051           15261                           TCF      TASKOVER
001000:
001001: 21,2052           30001        COUNT'EM           CA       L
001002: 21,2053           74746                           MASK     -AZBIT
001003: 21,2054           10000                           CCS      A
001004: 21,2055           42100        -AZ                CS       AZEACH
001005: 21,2056           27643                           ADS      AZINCR1
001006: 21,2057           30001                           CA       L
001007: 21,2060           74747                           MASK     +AZBIT
001008: 21,2061           10000                           CCS      A
001009: 21,2062           32100        +AZ                CA       AZEACH
001010: 21,2063           27643                           ADS      AZINCR1
001011: 21,2064           30001                           CA       L
001012:


001014: 21,2065           74753                           MASK     -ELBIT
001015: 21,2066           10000                           CCS      A
001016: 21,2067           42101        -EL                CS       ELEACH
001017: 21,2070           27642                           ADS      ELINCR1
001018: 21,2071           30001                           CA       L
001019: 21,2072           74752                           MASK     +ELBIT
001020: 21,2073           10000                           CCS      A
001021: 21,2074           32101        +EL                CA       ELEACH
001022: 21,2075           27642                           ADS      ELINCR1
001023: 21,2076           12046                           TCF      RESETRPT
001024:
001025:
001026:                                                                                                  #  THESE EQUIVALENCIES ARE BASED ON GSOP CHAPTER 4, REVISION 16 OF P64LM
001027:
001028: 21,2077     4752               +ELBIT             =        BIT2                                  #  -PITCH
001029:
001030:
001031: 21,2077     4753               -ELBIT             =        BIT1                                  #  +PITCH
001032:
001033:
001034: 21,2077     4747               +AZBIT             =        BIT5
001035:
001036:
001037: 21,2077     4746               -AZBIT             =        BIT6
001038:
001039: 21,2077           00063        ALL4BITS           OCT      00063
001040:
001041:
001042: 21,2100           01074        AZEACH             DEC      .03491                                #  2 DEGREES
001043:
001044:
001045: 21,2101           00217        ELEACH             DEC      .00873                                #  1/2 DEGREE
001046:
001047:
001048:                                                                                                  #  ****************************************************************************************************************
001049:                                                                                                  #  R.O.D. TRAP
001050:                                                                                                  #  ************************************************************************
001051:
001052: 20,2115                                           BANK     20
001053: 20,2000                                           SETLOC   RODTRAP
001054: 20,2000                                           BANK
001055: 20,2115                                           COUNT*   $$/F2DPS                              #  ****************************************
001056:
001057: 20,2115           74745        DESCBITS           MASK     BIT7                                  #  COME HERE FROM MARKRUPT CODING WITH BIT
001058: 20,2116           10000                           CCS      A                                     #    7 OR 6 OF CHANNEL 16 IN A: BIT 7 MEANS
001059: 20,2117           44752                           CS       TWO                                   #    - RATE INCREMENT, BIT 6 + INCREMENT
001060: 20,2120           64753                           AD       ONE
001061: 20,2121           27644                           ADS      RODCOUNT
001062:


001064: 20,2122           15270                           TCF      RESUME                                #  TRAP IS RESET WHEN SWITCH IS RELEASED
001065:
001066:
001067: 31,3543                                           BANK     31
001068: 31,2000                                           SETLOC   F2DPS*31
001069: 31,2000                                           BANK
001070:
001071: 31,3543                                           COUNT*   $$/F2DPS
001072:
001073:                                                                                                  #  ****************************************************************************************************************
001074:                                                                                                  #  DOUBLE PRECISION ROOT FINDER SUBROUTINE (BY ALLAN KLUMPP)
001075:                                                                                                  #  ****************************************************************************************************************
001076:
001077:                                                                                                  #                                                          N        N-1
001078:                                                                                                  #           ROOTPSRS FINDS ONE ROOT OF THE POWER SERIES A X  + A   X    + ... + A X + A
001079:                                                                                                  #                                                        N      N-1              1     0
001080:
001081:                                                                                                  #  USING NEWTON'S METHOD STARTING WITH AN INITIAL GUESS FOR THE ROOT.  THE ENTERING DATA MUST BE AS FOLLOWS:
001082:
001083:                                                                                                  #                                          A        SP     LOC-3            ADRES FOR REFERENCING PWR COF TABL
001084:                                                                                                  #                                          L        SP     N-1              N IS THE DEGREE OF THE POWER SERIES
001085:                                                                                                  #                                          MPAC     DP     X                INITIAL GUESS FOR ROOT
001086:
001087:                                                                                                  #                                          LOC-2N   DP     A(0)
001088:                                                                                                  #                                                   ...
001089:                                                                                                  #                                          LOC      DP     A(N)
001090:                                                                                                  #                                          LOC+2    SP     PRECROOT         PREC RQD OF ROOT (AS FRACT OF 1ST GUESS)
001091:
001092:                                                                                                  #  THE DP RESULT IS LEFT IN MPAC UPON EXIT, AND A SP COUNT OF THE ITERATIONS TO CONVERGENCE IS LEFT IN MPAC+2.
001093:                                                                                                  #  RETURN IS NORMALLY TO LOC(TC ROOTPSRS)+3.   IF ROOTPSRS FAILS TO CONVERGE IN 32 PASSES, RETURN IS TO LOC+1 AND
001094:                                                                                                  #  OUTPUTS ARE NOT TO BE TRUSTED.
001095:
001096:                                                                                                  #           PRECAUTION: ROOTPSRS MAKES NO CHECKS FOR OVERFLOW OR FOR IMPROPER USAGE. IMPROPER USAGE COULD
001097:                                                                                                  #  PRECLUDE CONVERGENCE OR REQUIRE EXCESSIVE ITERATIONS. AS A SPECIFIC EXAMPLE, ROOTPSRS FORMS A DERIVATIVE
001098:                                                                                                  #  COEFFICIENT TABLE BY MULTIPLYING EACH A(I) BY I, WHERE I RANGES FROM 1 TO N. IF AN ELEMENT OF THE DERIVATIVE
001099:                                                                                                  #  COEFFICIENT TABLE = 1 OR > 1 IN MAGNITUDE, ONLY THE EXCESS IS RETAINED. ROOTPSRS MAY CONVERGE ON THE CORRECT
001100:                                                                                                  #  ROOT NONETHELESS, BUT IT MAY TAKE AN EXCESSIVE NUMBER OF ITERATIONS. THEREFORE THE USER SHOULD RECOGNIZE:
001101:
001102:                                                                                                  #  1. USER'S RESPONSIBILITY TO ASSURE THAT I X A(I) < 1 IN MAGNITUDE FOR ALL I.
001103:
001104:                                                                                                  #  2. USER'S RESPONSIBILITY TO ASSURE OVERFLOW WILL NOT OCCUR IN EVALUATING EITHER THE RESIDUAL OR THE DERIVATIVE
001105:                                                                                                  #     POWER SERIES.   THIS OVERFLOW WOULD BE PRODUCED BY SUBROUTINE POWRSERS, CALLED BY ROOTPSRS, AND MIGHT NOT
001106:                                                                                                  #     PRECLUDE EVENTUAL CONVERGENCE.
001107:
001108:                                                                                                  #  3. AT PRESENT, ERASABLE LOCATIONS ARE RESERVED ONLY FOR N UP TO 5.  AN N IN EXCESS OF 5 WILL PRODUCE CHAOS.
001109:                                                                                                  #     ALL ERASABLES USED BY ROOTPSRS ARE UNSWITCHED LOCATED IN THE REGION FROM MPAC-33 OCT TO MPAC+7.
001110:
001111:                                                                                                  #  4. THE ITERATION COUNT RETURNED IN MPAC+2 MAY BE USED TO DETECT ABNORMAL PERFORMANCE.
001112:
001113:                                                                                                  #                                                                          STORE ENTERING DATA, INITLIZE ERASABLES
001114:


001116: 31,3543           00006        ROOTPSRS           EXTEND
001117: 31,3544           22132                           QXCH     RETROOT                               #  RETURN ADRES
001118: 31,3545           54117                           TS       PWRPTR                                #  PWR TABL POINTER
001119: 31,3546           52160                           DXCH     MPAC       +3                         #  PWR TABL ADRES, N-1
001120: 31,3547           33666                           CA       DERTABLL
001121: 31,3550           54141                           TS       DERPTR                                #  DER TABL POINTER
001122: 31,3551           54161                           TS       MPAC       +5                         #  DER TABL ADRES
001123: 31,3552           10160                           CCS      MPAC       +4                         #  NO POWER SERIES OF DEGREE 1 OR LESS
001124: 31,3553           54162                           TS       MPAC       +6                         #  N-2
001125: 31,3554           34755                           CA       ZERO                                  #  MODE USED AS ITERATION COUNTER. MODE
001126: 31,3555           54163                           TS       MODE                                  #  MUST BE POS SO ABS WON'T COMP MPAC+3 ETC
001127:
001128:                                                                                                  #  COMPUTE CRITERION TO STOP ITERATING
001129:
001130: 31,3556           00006                           EXTEND
001131: 31,3557           30155                           DCA      MPAC                                  #  FETCH ROOT GUESS, KEEPING IT IN MPAC
001132: 31,3560           52127                           DXCH     ROOTPS                                #  AND IN ROOTPS
001133: 31,3561           50157                           INDEX    MPAC       +3                         #  PWR TABL ADRES
001134: 31,3562           30005                           CA       5                                     #  PRECROOT TO A
001135: 31,3563           07306                           TC       SHORTMP                               #  YIELDS DP PRODUCT IN MPAC
001136: 31,3564           04713                           TC       USPRCADR
001137: 31,3565           01226                           CADR     ABS                                   #  YIELDS ABVAL OF CRITERION ON DX IN MPAC
001138: 31,3566           52155                           DXCH     MPAC
001139: 31,3567           52125                           DXCH     DXCRIT                                #  CRITERION
001140:
001141:                                                                                                  #  SET UP DER COF TABL
001142:
001143: 31,3570           00006                           EXTEND
001144: 31,3571           50117                           INDEX    PWRPTR
001145: 31,3572           30004                           DCA      3
001146: 31,3573           52155                           DXCH     MPAC                                  #  A(N) TO MPAC
001147:
001148: 31,3574           30160                           CA       MPAC       +4                         #  N-1 TO A
001149:
001150: 31,3575           54140        DERCLOOP           TS       PWRCNT                                #  LOOP COUNTER
001151: 31,3576           64753                           AD       ONE
001152: 31,3577           07315                           TC       DMPNSUB                               #  YIELDS DERCOF = I X A(I) IN MPAC
001153: 31,3600           00006                           EXTEND
001154: 31,3601           50117                           INDEX    PWRPTR
001155: 31,3602           30002                           DCA      1
001156: 31,3603           52155                           DXCH     MPAC                                  #  A(I-1) TO MPAC, FETCHING DERCOF
001157: 31,3604           50141                           INDEX    DERPTR
001158: 31,3605           52004                           DXCH     3                                     #  DERCOF TO DER TABL
001159: 31,3606           44752                           CS       TWO
001160: 31,3607           26117                           ADS      PWRPTR                                #  DECREMENT PWR POINTER
001161: 31,3610           44752                           CS       TWO
001162: 31,3611           26141                           ADS      DERPTR                                #  DECREMENT DER POINTER
001163: 31,3612           10140                           CCS      PWRCNT
001164: 31,3613           13575                           TCF      DERCLOOP
001165:
001166:


001168:                                                                                                  #  CONVERGE ON ROOT
001169:
001170: 31,3614           00006        ROOTLOOP           EXTEND
001171: 31,3615           30127                           DCA      ROOTPS                                #  FETCH CURRENT ROOT
001172: 31,3616           52155                           DXCH     MPAC                                  #  LEAVE IN MPAC
001173: 31,3617           00006                           EXTEND
001174: 31,3620           30162                           DCA      MPAC       +5                         #  LOAD A, L WITH DER TABL ADRES, N-2
001175: 31,3621           07214                           TC       POWRSERS                              #  YIELDS DERIVATIVE IN MPAC
001176:
001177: 31,3622           00006                           EXTEND
001178: 31,3623           30127                           DCA      ROOTPS
001179: 31,3624           52155                           DXCH     MPAC                                  #  CURRENT ROOT TO MPAC, FETCHING DERIVTIVE
001180: 31,3625           52131                           DXCH     BUF                                   #  LEAVE DERIVATIVE IN BUF AS DIVISOR
001181: 31,3626           00006                           EXTEND
001182: 31,3627           30160                           DCA      MPAC       +3                         #  LOAD A, L WITH PWR TABL ADRES, N-1
001183: 31,3630           07214                           TC       POWRSERS                              #  YIELDS RESIDUAL IN MPAC
001184:
001185: 31,3631           04713                           TC       USPRCADR
001186: 31,3632           00353                           CADR     DDV/BDDV                              #  YIELDS -DX IN MPAC
001187:
001188: 31,3633           00006                           EXTEND
001189: 31,3634           40155                           DCS      MPAC                                  #  FETCH DX, LEAVING -DX IN MPAC
001190: 31,3635           20127                           DAS      ROOTPS                                #  CORRECTED ROOT NOW IN ROOTPS
001191:
001192: 31,3636           04713                           TC       USPRCADR
001193: 31,3637           01226                           CADR     ABS                                   #  YIELDS ABS(DX) IN MPAC
001194: 31,3640           00006                           EXTEND
001195: 31,3641           40125                           DCS      DXCRIT
001196: 31,3642           20155                           DAS      MPAC                                  #  ABS(DX)-ABS(DXCRIT) IN MPAC
001197:
001198: 31,3643           24163                           INCR     MODE                                  #  INCREMENT ITERATION COUNTER
001199: 31,3644           30163                           CA       MODE
001200: 31,3645           74750                           MASK     BIT4                                  #  KLUMPP SAYS GIVE UP AFTER EIGHT PASSES
001201: 31,3646           10000                           CCS      A
001202: 31,3647           00132        BADROOT            TC       RETROOT
001203:
001204: 31,3650           10154                           CCS      MPAC                                  #  TEST HI ORDER DX
001205: 31,3651           13614                           TCF      ROOTLOOP
001206: 31,3652           13654                           TCF      TESTLODX
001207: 31,3653           13660                           TCF      ROOTSTOR
001208: 31,3654           10155        TESTLODX           CCS      MPAC       +1                         #  TEST LO ORDER DX
001209: 31,3655           13614                           TCF      ROOTLOOP
001210: 31,3656           13660                           TCF      ROOTSTOR
001211: 31,3657           13660                           TCF      ROOTSTOR
001212: 31,3660           52127        ROOTSTOR           DXCH     ROOTPS
001213: 31,3661           52155                           DXCH     MPAC
001214: 31,3662           30163                           CA       MODE
001215: 31,3663           54156                           TS       MPAC       +2                         #  STORE SP ITERATION COUNT IN MPAC+2
001216: 31,3664           50132                           INDEX    RETROOT
001217: 31,3665           10002                           TCF      2
001218:


001220:
001221: 31,3666           00147        DERTABLL           ADRES    DERCOFN    -3
001222:
001223:                                                                                                  #  ****************************************************************************************************************
001224:                                                                                                  #  TRASHY LITTLE SUBROUTINES
001225:                                                                                                  #  ****************************************************************************************************************
001226:
001227: 31,3667           51620        INTPRETX           INDEX    WCHPHASE                              #  SET X1 ON THE WAY TO THE INTERPRETER
001228: 31,3670           42510                           CS       TARGTDEX
001229: 31,3671           50120                           INDEX    FIXLOC
001230: 31,3672           54046                           TS       X1
001231: 31,3673           16036                           TCF      INTPRET
001232:
001233:
001234: 31,3674           31640        TDISPSET           CA       TTF/8
001235: 31,3675           00006                           EXTEND
001236: 31,3676           74750                           MP       TSCALINV
001237: 31,3677           53474                           DXCH     TTFDISP
001238:
001239: 31,3700           31640                           CA       TTF/8
001240: 31,3701           00006                           EXTEND
001241: 31,3702           73740                           MP       SCTTFDSP
001242: 31,3703           54001                           TS       L
001243: 31,3704           63736                           AD       99+LINT
001244: 31,3705           00006                           EXTEND
001245: 31,3706           63717                           BZMF     +11
001246: 31,3707           40001                           CS       L
001247: 31,3710           63737                           AD       -LINT
001248: 31,3711           00006                           EXTEND
001249: 31,3712           63715                           BZMF     +3
001250: 31,3713           55664                           TS       TREDES
001251: 31,3714           00002                           TC       Q
001252:
001253: 31,3715           34755                           CA       ZERO
001254: 31,3716           13713                           TCF      -3
001255:
001256: 31,3717           33736                           CA       99+LINT
001257: 31,3720           13710                           TCF      -10
001258:
001259:
001260:                                                                                                  #  ****************************************************************************************************************
001261:                                                                                                  #  SPECIALIZED "PHASCHNG" SUBROUTINE
001262:                                                                                                  #  ****************************************************************************************************************
001263:
001264: 31,3721  E3,1440                                  EBANK=   PHSNAME2
001265: 31,3721           35007        FASTCHNG           CA       EBANK3                                #  SPECIALIZED 'PHASCHNG' ROUTINE
001266: 31,3722           56003                           XCH      EBANK
001267: 31,3723           52002                           DXCH     L
001268: 31,3724           55442                           TS       PHSNAME3
001269: 31,3725           22003                           LXCH     EBANK
001270:


001272: 31,3726  E7,1617                                  EBANK=   E2DPS
001273: 31,3726           00000                           TC       A
001274:
001275:
001276:                                                                                                  #  ****************************************************************************************************************
001277:                                                                                                  #  PARAMETER TABLE INDIRECT ADDRESSES
001278:                                                                                                  #  ****************************************************************************************************************
001279:
001280: 31,3727  E5,1402               RDG                =        RBRFG
001281: 31,3727  E5,1410               VDG                =        VBRFG
001282: 31,3727  E5,1416               ADG                =        ABRFG
001283: 31,3727  E5,1424               VDG2TTF            =        VBRFG*
001284: 31,3727  E5,1426               ADG2TTF            =        ABRFG*
001285: 31,3727  E5,1430               JDG2TTF            =        JBRFG*
001286:
001287:                                                                                                  #  ****************************************************************************************************************
001288:                                                                                                  #  LUNAR LANDING CONSTANTS
001289:                                                                                                  #  ***************************************************************************************************************
001290:
001291: 31,3727           00046        3SEC*17            DEC      +3         E2         B-17
001292:
001293:
001294: 31,3730           00175        10SEC*17           DEC      +10        E2         B-17
001295:
001296:
001297: 31,3731           00372        20SEC*17           DEC      +20        E2         B-17
001298:
001299:
001300: 31,3732           00567        30SEC*17           DEC      +30        E2         B-17
001301:
001302:
001303: 31,3733           01563        TABLTTFL           ADRES    TABLTTF    +3                         #  ADDRESS FOR REFERENCING TTF TABLE
001304:
001305:
001306: 31,3734           00021 11422  HIGHESTF           2DEC     +43245     E-4        B-12            #  THRUST FOR RADIAL CONTROL
001307: 31,3736     4740               TTFSCALE           =        BIT12
001308:
001309:
001310: 31,3736     4750               TSCALINV           =        BIT4
001311:
001312:
001313: 31,3736           00167        99+LINT            DEC      +119       B-14
001314:
001315:
001316: 31,3737           77753        -LINT              DEC      -20        B-14
001317:
001318:
001319: 31,3740           02437        SCTTFDSP           DEC      .08                                   #  RESCALES FROM 2(-17) CS TO WHOLE SECONDS
001320:
001321:


001323: 31,3741           00264        180DEGS            DEC      +180       B-14
001324:
001325:
001326: 31,3742           00056        1/2DEG             DEC      +.00278
001327:
001328:
001329: 31,3743           74110        DELTTFAP           DEC      -158       E2         B-17
001330:
001331:
001332: 31,3744           01130 00000  TAUVERT            2DEC     600        B-14
001333:
001334:
001335: 31,3746           02260 00000  TAUROD             2DEC     300        B-12
001336:
001337:
001338: 31,3750           01440 00000  GSCALE             2DEC     100        B-11
001339:
001340:
001341: 31,3752           14000 00000  3/8DP              2DEC     .375000000
001342:
001343:
001344: 31,3754           30000 00000  3/4DP              2DEC     .750000000
001345: 31,3756           01437        +1FPS              DEC      .3048      E-2        B+4
001346:
001347:
001348: 31,3757           00000 04535  +3FPS              2DEC     +0.9144    E-2        B-10
001349:
001350:
001351: 31,3761           77656 42436  DEPRCRIT           2DEC     -.02       B-2                        #  DEPRESSION ANGLE CRITERION
001352:
001353:
001354: 31,3763           01542        PROJMAX            DEC      .42262     B-3                        #  SIN(25')/8 TO COMPARE WITH PROJ
001355:
001356:
001357: 31,3764           01022        PROJMIN            DEC      .25882     B-3                        #  SIN(15')/8 TO COMPARE WITH PROJ
001358:
001359:
001360: 31,3765           01477        V06N63             VN       0663                                  #  P63
001361:
001362: 31,3766           01500        V06N64             VN       0664                                  #  P64
001363:
001364: 31,3767           01474        V06N60             VN       0660                                  #  P65, P66, P67
001365:


001367:                                                                                                  #  ****************************************************************************************************************
001368:                                                                                                  #  ****************************************************************************************************************

End of include-file LUNAR_LANDING_GUIDANCE_EQUATIONS.agc.  Parent file is MAIN.agc


