
Source Code


000002:                                                                                                  ## Copyright:   Public domain.
000003:                                                                                                  ## Filename:    LUNAR_LANDING_GUIDANCE_EQUATIONS.agc
000004:                                                                                                  ## Purpose:     The main source file for Luminary revision 069.
000005:                                                                                                  ##              It is part of the source code for the original release
000006:                                                                                                  ##              of the flight software for the Lunar Module's (LM) Apollo
000007:                                                                                                  ##              Guidance Computer (AGC) for Apollo 10. The actual flown
000008:                                                                                                  ##              version was Luminary 69 revision 2, which included a
000009:                                                                                                  ##              newer lunar gravity model and only affected module 2.
000010:                                                                                                  ##              This file is intended to be a faithful transcription, except
000011:                                                                                                  ##              that the code format has been changed to conform to the
000012:                                                                                                  ##              requirements of the yaYUL assembler rather than the
000013:                                                                                                  ##              original YUL assembler.
000014:                                                                                                  ## Reference:   pp. 802-828
000015:                                                                                                  ## Assembler:   yaYUL
000016:                                                                                                  ## Contact:     Ron Burkey <info@sandroid.org>.
000017:                                                                                                  ## Website:     www.ibiblio.org/apollo/index.html
000018:                                                                                                  ## Mod history: 2016-12-13 MAS  Created from Luminary 99.
000019:                                                                                                  ##              2016-12-18 MAS  Updated from comment-proofed Luminary 99 version.
000020:                                                                                                  ##              2017-01-07 HG   Transcribed
000021:                                                                                                  ##              2017-01-23 HG   Add missing statement TS L
000022:                                                                                                  ##                              Fix operator CS -> TC
000023:                                                                                                  ##                                           INDEX -> CCS
000024:                                                                                                  ##                              Fix interpretive operator STODL -> STORE
000025:                                                                                                  ##              2017-01-28 RSB  Proofed comment text using octopus/prooferComments
000026:                                                                                                  ##                              and fixed errors found.
000027:                                                                                                  ##              2017-03-10 RSB  Comment-text fixes noted while transcribing Luminary 116.
000028:


000030: 31,2445  E7,1617                                  EBANK=   E2DPS
000031:
000032: 31,2445                                           COUNT*   $$/F2DPS
000033:
000034:                                                                                                  #  ****************************************************************************************************************
000035:                                                                                                  #  LUNAR LANDING FLIGHT SEQUENCE TABLES
000036:                                                                                                  #  ****************************************************************************************************************
000037:
000038:                                                                                                  #  FLIGHT SEQUENCE TABLES ARE ARRANGED BY FUNCTION.   THEY ARE REFERENCED USING AS AN INDEX THE REGISTER WCHPHASE:
000039:                                                                                                  #                                                   WCHPHASE  =  -1  --->  IGNALG
000040:                                                                                                  #                                                   WCHPHASE  =   0  --->  BRAKQUAD
000041:                                                                                                  #                                                   WCHPHASE  =   1  --->  BRAKLING
000042:                                                                                                  #                                                   WCHPHASE  =   2  --->  APPRQUAD
000043:                                                                                                  #                                                   WCHPHASE  =   3  --->  APPRLING
000044:                                                                                                  #                                                   WCHPHASE  =   4  --->  VERTICAL
000045:
000046:                                                                                                  #  ***************************************************************************************************************
000047:
000048:                                                                                                  #  ROUTINES FOR STARTING NEW GUIDANCE PHASES:
000049:
000050: 31,2445           12657                           TCF      TTFINCR                               #  IGNALG
000051: 31,2446           12657        NEWPHASE           TCF      TTFINCR                               #  BRAKQUAD
000052: 31,2447           12643                           TCF      LINSET?                               #  BRAKLING
000053: 31,2450           12627                           TCF      STARTP64                              #  APPRQUAD
000054: 31,2451           12647                           TCF      LINSET                                #  APPRLING
000055: 31,2452           12616                           TCF      P65START                              #  VERTICAL
000056:
000057:
000058:
000059:                                                                                                  #  PRE-GUIDANCE COMPUTATIONS:
000060:
000061: 31,2453           13025                           TCF      CALCRGVG                              #  IGNALG
000062: 31,2454           13035        PREGUIDE           TCF      RGVGCALC                              #  BRAKQUAD
000063: 31,2455           13035                           TCF      RGVGCALC                              #  BRAKLING
000064: 31,2456           12725                           TCF      REDESIG                               #  APPRQUAD
000065: 31,2457           13035                           TCF      RGVGCALC                              #  APPRLING
000066: 31,2460           13035                           TCF      RGVGCALC                              #  VERTICAL
000067:
000068:
000069:                                                                                                  #  GUIDANCE EQUATIONS:
000070:
000071: 31,2461           13107                           TCF      TTF/8CL                               #  IGNALG
000072: 31,2462           13107        WHATGUID           TCF      TTF/8CL                               #  BRAKQUAD
000073: 31,2463           13101                           TCF      LINGUID                               #  BRAKLING
000074: 31,2464           13107                           TCF      TTF/8CL                               #  APPRQUAD
000075: 31,2465           13101                           TCF      LINGUID                               #  BRAKLING
000076: 31,2466           13477                           TCF      VERTGUID                              #  VERTICAL
000077:


000079:                                                                                                  #  POST GUIDANCE EQUATION COMPUTATIONS:
000080:
000081: 31,2467           13240                           TCF      CGCALC                                #  IGNALG
000082: 31,2470           13240        AFTRGUID           TCF      CGCALC                                #  BRAKQUAD
000083: 31,2471           13270                           TCF      LINXLOGC                              #  BRAKLING
000084: 31,2472           13240                           TCF      CGCALC                                #  APPRQUAD
000085: 31,2473           13270                           TCF      LINXLOGC                              #  APPRLING
000086: 31,2474           13411                           TCF      EXVERT                                #  VERTICAL
000087:
000088:
000089:                                                                                                  #  WINDOW VECTOR COMPUTATIONS:
000090:
000091: 31,2475           13304                           TCF      EXGSUB                                #  IGNALG
000092: 31,2476           13325        WHATEXIT           TCF      EXBRAK                                #  BRAKQUAD
000093: 31,2477           13325                           TCF      EXBRAK                                #  BRAKLING
000094: 31,2500           13333                           TCF      EXNORM                                #  APPRQUAD
000095: 31,2501           13333                           TCF      EXNORM                                #  APPRLING
000096:
000097:
000098:                                                                                                  #  DISPLAY ROUTINES:
000099:
000100: 31,2502           13441        WHATDISP           TCF      P63DISPS                              #  BRAKQUAD
000101: 31,2503           13441                           TCF      P63DISPS                              #  BRAKLING
000102: 31,2504           13445                           TCF      P64DISPS                              #  APPRQUAD
000103: 31,2505           13445                           TCF      P64DISPS                              #  APPRLING
000104: 31,2506           13475                           TCF      VERTDISP                              #  VERTICAL
000105:
000106:
000107:                                                                                                  #  INDICES FOR REFERENCING TARGET PARAMETERS:
000108:
000109: 31,2507           00000                           OCT      0                                     #  IGNALG
000110: 31,2510           00000        TARGTDEX           OCT      0                                     #  BRAKQUAD
000111: 31,2511           00000                           OCT      0                                     #  BRAKLING
000112: 31,2512           00030                           OCT      30                                    #  APPRQUAD
000113: 31,2513           00030                           OCT      30                                    #  APPRLING
000114:
000115:
000116:                                                                                                  # ****************************************************************************************************************
000117:                                                                                                  #  ENTRY POINTS:   2GUIDSUB FOR THE IGNITION ALGORITHM, LUNLAND FOR SERVOUT
000118:                                                                                                  # ****************************************************************************************************************
000119:
000120:                                                                                                  #  IGNITION ALGORITHM ENTRY:  DELIVERS N PASSES OF QUADRATIC QUIDANCE
000121:
000122: 31,2514           77776        ?GUIDSUB           EXIT
000123: 31,2515           34752                           CAF      TWO                                   #  N = 3
000124: 31,2516           55645                           TS       NGUIDSUB
000125: 31,2517           12600                           TCF      GUILDRET
000126:
000127: 31,2520           55645        GUIDSUB            TS       NGUIDSUB                              #  ON SUCEEDING PASSES SKIP TTFINCR
000128: 31,2521           13025                           TCF      CALCRGVG
000129:


000131:
000132:                                                                                                  #  NORMAL ENTRY:  CONTROL COMES HERE FROM SERVOUT
000133:
000134: 31,2522           05353        LUNLAND            TC       PHASCHNG
000135: 31,2523           00035                           OCT      00035                                 #  GROUP 5:  RETAIN ONLY PIPA TASK
000136: 31,2524           05353                           TC       PHASCHNG
000137: 31,2525           05023                           OCT      05023                                 #  GROUP 3:  PROTECT GUIDANCE WITH PRIO 21
000138: 31,2526           21000                           OCT      21000                                 #        JUST HIGHER THAN SERVICER'S PRIORITY
000139:
000140:                                                                                                  # ****************************************************************************************************************
000141:                                                                                                  #  GUILDENSTERN:  AUTO-MODES MONITOR (R13)
000142:                                                                                                  # ****************************************************************************************************************
000143:
000144: 31,2527                                           COUNT*   $$/R13
000145:
000146:                                                                                                  #     HERE IS THE PHILOSOPHY OF GUILDENSTERN:    ON EVERY APPEARANCE OR DISAPPEARANCE OF THE MANUAL THROTTLE
000147:                                                                                                  #  DISCRETE TO SELECT P67 OR P66 RESPECTIVELY;   ON EVERY APPEARANCE OF THE ATTITUDE-HOLD DISCRETE TO SELECT P66
000148:                                                                                                  #  UNLESS THE CURRENT PROGRAM IS P67 IN WHICH CASE THERE IS NO CHANGE.
000149:
000150: 31,2527           00006        GUILDEN            EXTEND                                         #  IS UN-AUTO-THROTTLE DISCRETE PRESENT?
000151: 31,2530           00030                           READ     CHAN30
000152: 31,2531           74747                           MASK     BIT5
000153: 31,2532           10000                           CCS      A
000154: 31,2533           12564                           TCF      STARTP67                              #  YES
000155: 31,2534           05321        P67NOW?            TC       CHECKMM                               #  NO:   ARE WE IN P67 NOW?
000156: 31,2535           00103                           DEC      67         B-14
000157: 31,2536           12570                           TCF      STABL?                                #  NO
000158: 31,2537           03721        STARTP66           TC       FASTCHNG                              #  YES
000159: 31,2540           05311                           TC       NEWMODEX
000160: 31,2541           00102        DEC66              DEC      66         B-14
000161: 31,2542           00006                           EXTEND                                         #  INITIALIZE VDGVERT USING
000162: 31,2543           31625                           DCA      VGU                                   #    PRESENT DOWNWARD VELOCITY
000163: 31,2544           53643                           DXCH     VDGVERT
000164: 31,2545           34755                           CAF      ZERO
000165: 31,2546           55644                           TS       RODCOUNT
000166: 31,2547           55645        VRTSTART           TS       WCHVERT
000167: 31,2550           34751                           CAF      FOUR                                  #  WCHPHASE = 4 --> VERTICAL: P65,P66,P67
000168: 31,2551           55617                           TS       WCHPHOLD
000169: 31,2552           55620                           TS       WCHPHASE
000170: 31,2553           04616                           TC       BANKCALL                              #  TEMPORARY, I HOPE HOPE HOPE
000171: 31,2554           40165                           CADR     STOPRATE                              #  TEMPORARY, I HOPE HOPE HOPE
000172: 31,2555           05516                           TC       DOWNFLAG                              #  PERMIT X-AXIS OVERRIDE
000173: 31,2556           00311                           ADRES    XOVINFLG
000174: 31,2557           05516                           TC       DOWNFLAG
000175: 31,2560           00143                           ADRES    REDFLAG
000176: 31,2561           05516                           TC       DOWNFLAG
000177: 31,2562           00142                           ADRES    POUTFLAG                              #  PERMIT PULSE-OUTS
000178: 31,2563           12600                           TCF      GUILDRET
000179:
000180: 31,2564           05311        STARTP67           TC       NEWMODEX                              #  NO HARM IN "STARTING" P67 OVER AND OVER
000181: 31,2565           00103                           DEC      67         B-14                       #    SO NO NEED FOR A FASTCHNG AND NO NEED
000182:


000184: 31,2566           34363                           CAF      TEN                                   #    TO SEE IF ALREADY IN P67
000185: 31,2567           12547                           TCF      VRTSTART
000186:
000187: 31,2570           34737        STABL?             CAF      BIT13                                 #  IS UN-ATTITUDE-HOLD DISCRETE PRESENT?
000188: 31,2571           00006                           EXTEND
000189: 31,2572           02031                           RAND     CHAN31
000190: 31,2573           10000                           CCS      A
000191: 31,2574           12600                           TCF      GUILDRET                              #  YES: ALL'S WELL
000192: 31,2575           05321        P66NOW?            TC       CHECKMM                               #  NO:  ARE WE IN P66 NOW?
000193: 31,2576           00102                           DEC      66         B-14
000194: 31,2577           12537                           TCF      STARTP66                              #  NO
000195:
000196:                                                                                                  #                                                (CONTINUE TO GUILDRET) YES
000197:
000198:                                                                                                  #  ****************************************************************************************************************
000199:                                                                                                  #  INITIALIZATION FOR THIS PASS
000200:                                                                                                  #  ****************************************************************************************************************
000201:
000202: 31,2600                                           COUNT*   $$/F2DPS
000203:
000204: 31,2600           00006        GUILDRET           EXTEND
000205: 31,2601           31623                           DCA      TPIP
000206: 31,2602           53572                           DXCH     TPIPOLD
000207:
000208: 31,2603           03721                           TC       FASTCHNG
000209:
000210: 31,2604           00006                           EXTEND
000211: 31,2605           31557                           DCA      PIPTIME1
000212: 31,2606           53623                           DXCH     TPIP
000213:
000214: 31,2607           00006                           EXTEND
000215: 31,2610           31641                           DCA      TTF/8
000216: 31,2611           53551                           DXCH     TTF/8TMP
000217:
000218: 31,2612           11621                           CCS      FLPASS0
000219: 31,2613           12657                           TCF      TTFINCR
000220:
000221: 31,2614           51620        BRSPOT1            INDEX    WCHPHASE
000222: 31,2615           12446                           TCF      NEWPHASE
000223:
000224:                                                                                                  #  ****************************************************************************************************************
000225:                                                                                                  #  ROUTINES TO START NEW PHASES
000226:                                                                                                  #  ****************************************************************************************************************
000227:
000228: 31,2616           05311        P65START           TC       NEWMODEX
000229: 31,2617           00101                           DEC      65         B-14
000230: 31,2620           44752                           CS       TWO
000231: 31,2621           55645                           TS       WCHVERT
000232: 31,2622           05516                           TC       DOWNFLAG                              #  PERMIT X-AXIS OVERRIDE
000233: 31,2623           00311                           ADRES    XOVINFLG
000234:


000236: 31,2624           05516        COMSTART           TC       DOWNFLAG
000237: 31,2625           00142                           ADRES    POUTFLAG
000238: 31,2626           12657                           TCF      TTFINCR
000239:
000240:
000241: 31,2627           33743        STARTP64           CAF      DELTTFAP                              #  AUGMENT TTF/8 (TWO-PHASE ONLY)
000242: 31,2630           27550                           ADS      TTF/8TMP
000243: 31,2631           05311                 +2        TC       NEWMODEX
000244: 31,2632           00100                           DEC      64         B-14
000245: 31,2633           34752                           CAF      TWO
000246: 31,2634           55620                           TS       WCHPHASE
000247: 31,2635           34740                           CA       BIT12                                 #  ENABLE RUPT10
000248: 31,2636           00006                           EXTEND
000249: 31,2637           05013                           WOR      CHAN13
000250: 31,2640           05516                           TC       DOWNFLAG                              #  INITIALIZE REDESIGNATION FLAG
000251: 31,2641           00143                           ADRES    REDFLAG
000252: 31,2642           12624                           TCF      COMSTART
000253:
000254:                                                                                                  #  ****************************************************************************************************************
000255:                                                                                                  #  SET LINEAR GUIDANCE COEFFICIENTS
000256:                                                                                                  #  ****************************************************************************************************************
000257:
000258: 31,2643           30102        LINSET?            CA       FLAGWRD6                              #  ONE-PHASE OR TWO-PHASE?
000259: 31,2644           74743                           MASK     2PHASBIT
000260: 31,2645           00006                           EXTEND
000261: 31,2646           12631                           BZF      STARTP64   +2                         #  ONE-PHASE: GO DIRECTLY TO APPROACH PHASE
000262:
000263: 31,2647           03667        LINSET             TC       INTPRETX
000264: 31,2650           51775                           VLOAD    VSU*                                  #  -        -     -
000265: 31,2651           02271                                    ACG                                   #  JLING = (ACG - ADG)/TTF
000266: 31,2652           02417                                    ADG,1
000267: 31,2653           70322                           VSR3     V/SC
000268: 31,2654           03551                                    TTF/8TMP                              #  TTF/8 NOT YET UPDATED
000269: 31,2655           02277                           STORE    JLING                                 #  JLING IS IN UMITS OF 2(-18) M/CS/CS/CS
000270: 31,2656           77776                           EXIT
000271:
000272:                                                                                                  #                                              (CONTINUE TO TTFINCR)
000273:
000274:                                                                                                  #  ****************************************************************************************************************
000275:                                                                                                  #  INCREMENT TTF/8, UPDATE LAND FOR LUNAR ROTATION, DO OTHER USEFUL THINGS
000276:                                                                                                  #  ****************************************************************************************************************
000277:
000278:                                                                                                  #             TTFINCR COMPUTATIONS ARE AS FOLLOWS:-
000279:
000280:                                                                                                  #                       TTF/8 UPDATED FOR TIME SINCE LAST PASS:
000281:
000282:                                                                                                  #                                  TTF/8 = TTF/8 + (TPIP - TPIPOLD)/8
000283:
000284:                                                                                                  #                       LANDING SITE VECTOR UPDATED FOR LUNAR ROTATION:
000285:


000287:                                                                                                  #                                  -                  -      -                      -
000288:                                                                                                  #                                  LAND = /LAND/ UNIT(LAND - LAND(TPIP - TPIPOLD) * WM)
000289:
000290:                                                                                                  #                       SLANT RANGE TO LANDING SITE, FOR DISPLAY:
000291:
000292:                                                                                                  #                                                   -      -
000293:                                                                                                  #                                  RANGEDSP = ABVAL(LAND - R)
000294:
000295: 31,2657           06036        TTFINCR            TC       INTPRET
000296: 31,2660           45345                           DLOAD    DSU
000297: 31,2661           03623                                    TPIP
000298: 31,2662           03572                                    TPIPOLD
000299: 31,2663           41461                           SLR      PUSH                                  #  SHIFT SCALES DELTA TIME TO 2(17) CSECS
000300: 31,2664           21214                                    11D
000301: 31,2665           47361                           VXSC     VXV
000302: 31,2666           03633                                    LAND
000303: 31,2667           02331                                    WM
000304: 31,2670           47045                           BVSU     RTB
000305: 31,2671           03633                                    LAND
000306: 31,2672           21700                                    NORMUNIT
000307: 31,2673           76561                           VXSC     VSL1
000308: 31,2674           02337                                    /LAND/
000309: 31,2675           03543                           STORE    LANDTEMP
000310: 31,2676           51451                           VSU      ABVAL
000311: 31,2677           03517                                    R
000312: 31,2700           16532                           STODL    RANGEDSP
000313: 31,2701           77776                           EXIT
000314:
000315: 31,2702           52155                           DXCH     MPAC
000316: 31,2703           21551                           DAS      TTF/8TMP                              #  NOW HAVE INCREMENTED TTF/8 IN TTF/8TMP
000317:
000318: 31,2704           03721                           TC       FASTCHNG
000319:
000320: 31,2705           00006                           EXTEND
000321: 31,2706           31551                           DCA      TTF/8TMP
000322: 31,2707           53641                           DXCH     TTF/8
000323:
000324: 31,2710           00006                           EXTEND
000325: 31,2711           31543                           DCA      LANDTEMP
000326: 31,2712           53633                           DXCH     LAND
000327: 31,2713           00006                           EXTEND
000328: 31,2714           31545                           DCA      LANDTEMP   +2
000329: 31,2715           53635                           DXCH     LAND       +2
000330: 31,2716           00006                           EXTEND
000331: 31,2717           31547                           DCA      LANDTEMP   +4
000332: 31,2720           53637                           DXCH     LAND       +4
000333:
000334: 31,2721           03674                           TC       TDISPSET
000335: 31,2722           03721                           TC       FASTCHNG                              #  SINCE REDESIG MAY CHANGE LANDTEMP
000336:


000338: 31,2723           51620        BRSPOT2            INDEX    WCHPHASE
000339: 31,2724           12454                           TCF      PREGUIDE
000340:
000341:                                                                                                  #  ****************************************************************************************************************
000342:                                                                                                  #  LANDING SITE PERTURBATION EQUATIONS
000343:                                                                                                  #  ****************************************************************************************************************
000344:
000345: 31,2725           30102        REDESIG            CA       FLAGWRD6                              #  IS REDFLAG SET?
000346: 31,2726           74746                           MASK     REDFLBIT
000347: 31,2727           00006                           EXTEND
000348: 31,2730           13035                           BZF      RGVGCALC                              #  NO:   SKIP REDESIGNATION LOGIC
000349:
000350: 31,2731           31664                           CA       TREDES                                #  YES:  HAS TREDES REACHED ZERO?
000351: 31,2732           00006                           EXTEND
000352: 31,2733           13035                           BZF      RGVGCALC                              #  YES:  SKIP REDESIGNATION LOGIC
000353:
000354: 31,2734           00004                           INHINT
000355: 31,2735           31642                           CA       ELINCR1
000356: 31,2736           55552                           TS       ELINCR
000357: 31,2737           31643                           CA       AZINCR1
000358: 31,2740           55554                           TS       AZINCR
000359: 31,2741           03721                           TC       FASTCHNG
000360:
000361: 31,2742           34755                           CA       ZERO
000362: 31,2743           55642                           TS       ELINCR1
000363: 31,2744           55643                           TS       AZINCR1
000364: 31,2745           00003                           RELINT
000365: 31,2746           55553                           TS       ELINCR     +1
000366: 31,2747           55555                           TS       AZINCR     +1
000367:
000368: 31,2750           30120                           CA       FIXLOC                                #  SET PD TO 0
000369: 31,2751           54166                           TS       PUSHLOC
000370:
000371: 31,2752           06036                           TC       INTPRET
000372: 31,2753           52375                           VLOAD    VSU
000373: 31,2754           03633                                    LAND
000374: 31,2755           03517                                    R                                     #                  -      -
000375: 31,2756           41434                           RTB      PUSH                                  #  PUSH DOWN UNIT (LAND - R)
000376: 31,2757           21700                                    NORMUNIT
000377: 31,2760           76435                           VXV      VSL1
000378: 31,2761           02154                                    YNBPIP                                #                     -          -      -
000379: 31,2762           65361                           VXSC     PDDL                                  #  PUSH DOWN - ELINCR(YNB * UNIT(LAND - R))
000380: 31,2763           03553                                    ELINCR
000381: 31,2764           03555                                    AZINCR
000382: 31,2765           52361                           VXSC     VSU
000383: 31,2766           02154                                    YNBPIP
000384: 31,2767           41455                           VAD      PUSH                                  #  RESULTING VECTOR IS 1/2 REAL SIZE
000385:
000386: 31,2770           45345                           DLOAD    DSU                                   #  MAKE SURE REDESIGNATION IS NOT
000387: 31,2771           00001                                    0                                     #    TOO CLOSE TO THE HORIZON
000388:


000390: 31,2772           23762                                    DEPRCRIT
000391: 31,2773           71240                           BMN      DLOAD
000392: 31,2774           62777                                    REDES1
000393: 31,2775           23762                                    DEPRCRIT
000394: 31,2776           00001                           STORE    0
000395: 31,2777           45345        REDES1             DLOAD    DSU
000396: 31,3000           03633                                    LAND
000397: 31,3001           03517                                    R
000398: 31,3002           74271                           DDV      VXSC
000399: 31,3003           00001                                    0
000400: 31,3004           53455                           VAD      UNIT
000401: 31,3005           03517                                    R
000402: 31,3006           76561                           VXSC     VSL1
000403: 31,3007           02337                                    /LAND/
000404: 31,3010           03543                           STORE    LANDTEMP
000405: 31,3011           77776                           EXIT                                           #  LOOKANGL WILL BE COMPUTED AT RGVGCALC
000406:
000407: 31,3012           03721                           TC       FASTCHNG
000408:
000409: 31,3013           00006                           EXTEND
000410: 31,3014           31543                           DCA      LANDTEMP
000411: 31,3015           53633                           DXCH     LAND
000412: 31,3016           00006                           EXTEND
000413: 31,3017           31545                           DCA      LANDTEMP   +2
000414: 31,3020           53635                           DXCH     LAND       +2
000415: 31,3021           00006                           EXTEND
000416: 31,3022           31547                           DCA      LANDTEMP   +4
000417: 31,3023           53637                           DXCH     LAND       +4
000418:
000419: 31,3024           13035                           TCF      RGVGCALC
000420:
000421:                                                                                                  #  ****************************************************************************************************************
000422:                                                                                                  #  COMPUTE STATE IN GUIDANCE COORDINATES
000423:                                                                                                  #  ****************************************************************************************************************
000424:
000425:                                                                                                  #             RGVGCALC COMPUTATIONS ARE AS FOLLOWS:-
000426:
000427:                                                                                                  #                      VELOCITY RELATIVE TO THE SURFACE:
000428:
000429:                                                                                                  #                                  -         -   -   -
000430:                                                                                                  #                                  ANGTERM = V + R * WM
000431:
000432:                                                                                                  #                      STATE IN GUIDANCE COORDINATES:
000433:
000434:                                                                                                  #                                  -     *   -   -
000435:                                                                                                  #                                  RGU = CG (R - LAND)
000436:
000437:                                                                                                  #                                  -     *   -   -    -
000438:                                                                                                  #                                  VGU = CG (V - WM * R)
000439:


000441:                                                                                                  #                      HORIZONTAL VELOCITY FOR DISPLAY:
000442:
000443:                                                                                                  #                                  VHORIZ = 8 ABVAL (0, VG , VG )
000444:                                                                                                  #                                                         2    1
000445:
000446:                                                                                                  #                      DEPRESSION ANGLE FOR DISPLAY:
000447:
000448:                                                                                                  #                                                         -   -     -
000449:                                                                                                  #                                  LOOKANGL = ARCSIN(UNIT(R - LAND).XMBPIP)
000450:
000451: 31,3025           06036        CALCRGVG           TC       INTPRET                               #  IN IGNALG, COMPUTE V FROM INTEGRATION
000452: 31,3026           64375                           VLOAD    MXV                                   #    OUTPUT AND TRIM CORRECTION TERM
000453: 31,3027           00025                                    VATT1                                 #    COMPUTED LAST PASS AND LEFT IN UNFC/2
000454: 31,3030           01734                                    REFSMMAT
000455: 31,3031           53362                           VSR1     VAD
000456: 31,3032           03252                                    UNFC/2
000457: 31,3033           03525                           STORE    V
000458: 31,3034           77776                           EXIT
000459:
000460: 31,3035           06036        RGVGCALC           TC       INTPRET                               #  ENTER HERE TO RECOMPUTE RG AND VG
000461: 31,3036           47375                           VLOAD    VXV
000462: 31,3037           03517                                    R
000463: 31,3040           02331                                    WM
000464: 31,3041           70455                           VAD      VSR2                                  #  RESCALE TO UNITS OF 2(9) M/CS
000465: 31,3042           03525                                    V
000466: 31,3043           02305                           STORE    ANGTERM
000467: 31,3044           77721                           MXV
000468: 31,3045           02510                                    CG                                    #  NO SHIFT SINCE ANGTERM IS DOUBLE SIZED
000469: 31,3046           03625                           STORE    VGU
000470: 31,3047           55525                           PDDL     VDEF                                  #  FORM (0,VG ,VG ) IN UNITS OF 2(10) M/CS
000471: 31,3050           06424                                    ZEROVECS                              #            2   1
000472: 31,3051           52446                           ABVAL    SL3
000473: 31,3052           26267                           STOVL    VHORIZ                                #  VHORIZ FOR DISPLAY DURING P65, P66, P67
000474: 31,3053           03517                                    R                                     #            -   -
000475: 31,3054           41451                           VSU      PUSH                                  #  PUSH DOWN R - LAND
000476: 31,3055           03633                                    LAND
000477: 31,3056           76521                           MXV      VSL1
000478: 31,3057           02510                                    CG
000479: 31,3060           26544                           STOVL    RGU
000480: 31,3061           50234                           RTB      DOT                                   #  NOW IN MPAC IS SINE(LOOKANGL)/4
000481: 31,3062           21700                                    NORMUNIT
000482: 31,3063           02146                                    XNBPIP
000483: 31,3064           77776                           EXIT
000484:
000485: 31,3065           30120                           CA       FIXLOC                                #  RESET PUSH DOWN POINTER
000486: 31,3066           54166                           TS       PUSHLOC
000487:
000488: 31,3067           30154                           CA       MPAC                                  #  COMPUTE LOOKANGL ITSELF
000489: 31,3070           60000                           DOUBLE
000490: 31,3071           04616                           TC       BANKCALL
000491:


000493: 31,3072           61643                           CADR     SPARCSIN   -1
000494: 31,3073           63742                           AD       1/2DEG
000495: 31,3074           00006                           EXTEND
000496: 31,3075           73741                           MP       180DEGS
000497: 31,3076           55665                           TS       LOOKANGL                              #  LOOKANGL FOR DISPLAY DURING P64
000498:
000499: 31,3077           51620        BRSPOT3            INDEX    WCHPHASE
000500: 31,3100           12462                           TCF      WHATGUID
000501:
000502:                                                                                                  # ****************************************************************************************************************
000503:                                                                                                  #  LINEAR GUIDANCE EQUATION
000504:                                                                                                  # ****************************************************************************************************************
000505:
000506: 31,3101           03667        LINGUID            TC       INTPRETX
000507: 31,3102           74375                           VLOAD    VXSC                                  #  -     -     -
000508: 31,3103           02277                                    JLING                                 #  ACG = ADG + JLING TTF
000509: 31,3104           03641                                    TTF/8
000510: 31,3105           52132                           VSL3     GOTO                                  #  PICK UP THE VAD* AT AFCCALC
000511: 31,3106           63171                                    AFCCALC
000512:
000513:                                                                                                  # ****************************************************************************************************************
000514:                                                                                                  #  TTF/4 COMPUTATION
000515:                                                                                                  # ****************************************************************************************************************
000516:
000517: 31,3107           03667        TTF/8CL            TC       INTPRETX
000518: 31,3110           77743                           DLOAD*
000519: 31,3111           02431                                    JDG2TTF,1
000520: 31,3112           23567                           STODL*   TABLTTF    +6                         #  A(3) = 8 JDG  TO TABLTTF
000521: 31,3113           02427                                    ADG2TTF,1                             #              2
000522: 31,3114           17565                           STODL    TABLTTF    +4                         #  A(2) = 6 ADG  TO TABLTTF
000523: 31,3115           03631                                    VGU        +4                         #              2
000524: 31,3116           42605                           DMP      DAD*
000525: 31,3117           23755                                    3/4DP
000526: 31,3120           02425                                    VDG2TTF,1
000527: 31,3121           23563                           STODL*   TABLTTF    +2                         #  A(1) = (6 VGU  + 18 VDG )/8 TO TABLTTF
000528: 31,3122           02407                                    RDG        +4,1                       #               2         2
000529: 31,3123           41225                           DSU      DMP
000530: 31,3124           02550                                    RGU        +4
000531: 31,3125           23753                                    3/8DP
000532: 31,3126           03561                           STORE    TABLTTF                               #  A(0) = -24 (RGU  - RDG )/64 TO TABLTTF
000533: 31,3127           77776                           EXIT                                           #                 2      2
000534:
000535: 31,3130           34744                           CA       BIT8
000536: 31,3131           55570                           TS       TABLTTF    +10                        #  FRACTIONAL PRECISION FOR TTF TO TABLE
000537:
000538: 31,3132           00006                           EXTEND
000539: 31,3133           31641                           DCA      TTF/8
000540: 31,3134           52155                           DXCH     MPAC                                  #  LOADS TTF/8 (INITIAL GUESS) INTO MPAC
000541: 31,3135           34752                           CAF      TWO                                   #  DEGREE - ONE
000542: 31,3136           54001                           TS       L
000543:


000545: 31,3137           33733                           CAF      TABLTTFL
000546: 31,3140           03543                           TC       ROOTPSRS                              #  YIELDS TTF/8 IN MPAC
000547: 31,3141           05652                           TC       POODOO                                #  BAD RETURN
000548: 31,3142           01406                           OCT      01406
000549: 31,3143           00006                           EXTEND                                         #  GOOD RETURN
000550: 31,3144           30155                           DCA      MPAC                                  #  FETCH TTF/8 KEEPING IT IN MPAC
000551: 31,3145           53641                           DXCH     TTF/8                                 #  CORRECTED TTF/8
000552:
000553: 31,3146           03674                           TC       TDISPSET
000554:
000555:                                                                                                  #                                               (CONTINUE TO QUADGUID)
000556:
000557:                                                                                                  #  ****************************************************************************************************************
000558:                                                                                                  #  MAIN GUIDANCE EQUATION
000559:                                                                                                  #  ****************************************************************************************************************
000560:
000561:                                                                                                  #                       AS PUBLISHED:-
000562:
000563:                                                                                                  #                                                -     -        -     -
000564:                                                                                                  #                                  -     -     6(VDG + VG)   12(RDG - RG)
000565:                                                                                                  #                                  ACG = ADG + ----------- + ------------
000566:                                                                                                  #                                                  TTF         (TTF)(TTF)
000567:
000568:                                                                                                  #                       AS HERE PROGRAMMED:-
000569:
000570:                                                                                                  #                                              -     -
000571:                                                                                                  #                                       3 (1/4(RDG - RG)   -     - )
000572:                                                                                                  #                                       - (------------- + VDG + VG)
000573:                                                                                                  #                                 -     4 (    TTF/8               )   -
000574:                                                                                                  #                                 ACG = ---------------------------- + ADG
000575:                                                                                                  #                                                  TTF/8
000576:
000577: 31,3147           33732        QUADGUID           CAF      30SEC*17                              #  PULSE-OUTS ARE INHIBITED WHENEVER
000578: 31,3150           61640                           AD       TTF/8                                 #    TTF < 30 SECONDS, REGARDLESS OF
000579: 31,3151           00006                           EXTEND                                         #    THE DURATION OF LINEAR GUIDANCE
000580: 31,3152           63155                           BZMF     Q**DG**D
000581: 31,3153           05504                           TC       UPFLAG
000582: 31,3154           00142                           ADRES    POUTFLAG
000583: 31,3155           03667        Q**DG**D           TC       INTPRETX
000584: 31,3156           52373                           VLOAD*   VSU
000585: 31,3157           02403                                    RDG,1
000586: 31,3160           02544                                    RGU
000587: 31,3161           70541                           V/SC     VSR2
000588: 31,3162           03641                                    TTF/8
000589: 31,3163           53253                           VAD*     VAD
000590: 31,3164           02411                                    VDG,1
000591: 31,3165           03625                                    VGU
000592: 31,3166           74341                           V/SC     VXSC
000593: 31,3167           03641                                    TTF/8
000594:


000596: 31,3170           23755                                    3/4DP
000597: 31,3171           77653        AFCCALC            VAD*
000598: 31,3172           02417                                    ADG,1                                 #  CURRENT TARGET ACCELERATION
000599: 31,3173           02271                           STORE    ACG
000600: 31,3174           76505        AFCCALC1           VXM      VSL1                                  #  VERTGUID COMES HERE
000601: 31,3175           02510                                    CG
000602: 31,3176           70315                           PDVL     V/SC
000603: 31,3177           01237                                    GDT/2
000604: 31,3200           23751                                    GSCALE
000605: 31,3201           45445                           BVSU     STADR
000606: 31,3202           74525                           STORE    UNFC/2                                #  UNFC/2 NEED NOT BE UNITIZED
000607: 31,3203           77646                           ABVAL
000608: 31,3204           03574        AFCCALC2           STORE    /AFC/                                 #  MAGNITUDE OF AFC FOR THROTTLE
000609: 31,3205           71214                           BON      DLOAD
000610: 31,3206           03306                                    2PHASFLG
000611: 31,3207           63231                                    AFCCLEND
000612: 31,3210           03252                                    UNFC/2                                #  VERTICAL COMPONENT
000613: 31,3211           65316                           DSQ      PDDL
000614: 31,3212           03254                                    UNFC/2     +2                         #  OUT-OF-PLANE
000615: 31,3213           65316                           DSQ      PDDL
000616: 31,3214           23735                                    HIGHESTF
000617: 31,3215           63471                           DDV      DSQ
000618: 31,3216           01245                                    MASS                                  #                         2    2    2
000619: 31,3217           45225                           DSU      DSU                                   #  AMAXHORIZ = SQRT(ATOTAL - A  - A  )
000620: 31,3220           71244                           BPL      DLOAD                                 #                             1    0
000621: 31,3221           63223                                    AFCCALC3
000622: 31,3222           06424                                    ZEROVECS
000623: 31,3223           43366        AFCCALC3           SQRT     DAD
000624: 31,3224           03256                                    UNFC/2     +4
000625: 31,3225           44244                           BPL      BDSU
000626: 31,3226           63231                                    AFCCLEND
000627: 31,3227           03256                                    UNFC/2     +4
000628: 31,3230           03256                           STORE    UNFC/2     +4
000629: 31,3231           77776        AFCCLEND           EXIT
000630: 31,3232           03721                           TC       FASTCHNG
000631:
000632: 31,3233           31620                           CA       WCHPHASE                              #  PREPARE FOR PHASE SWITCHING LOGIC
000633: 31,3234           55617                           TS       WCHPHOLD
000634: 31,3235           25621                           INCR     FLPASS0                               #  INCREMENT PASS COUNTER
000635:
000636: 31,3236           51620        BRSPOT4            INDEX    WCHPHASE
000637: 31,3237           12470                           TCF      AFTRGUID
000638:
000639:                                                                                                  #  ***************************************************************************************************************
000640:                                                                                                  #  ERECT GUIDANCE-STABLE MEMBER TRANSFORMATION MATRIX
000641:                                                                                                  #  ***************************************************************************************************************
000642:
000643: 31,3240           06036        CGCALC             TC       INTPRET
000644: 31,3241           53575                           VLOAD    UNIT
000645: 31,3242           03633                                    LAND
000646:


000648: 31,3243           26510                           STOVL    CG                                    #  FIRST ROW
000649: 31,3244           02305                                    ANGTERM
000650: 31,3245           53361                           VXSC     VAD                                   #  REMEMBER THAT ANGTERM IS DOUBLE-SIZED
000651: 31,3246           03641                                    TTF/8
000652: 31,3247           03633                                    LAND
000653: 31,3250           47051                           VSU      RTB
000654: 31,3251           03517                                    R
000655: 31,3252           21700                                    NORMUNIT
000656: 31,3253           47035                           VXV      RTB
000657: 31,3254           03633                                    LAND
000658: 31,3255           21700                                    NORMUNIT
000659: 31,3256           26516                           STOVL    CG         +6                         #  SECOND ROW
000660: 31,3257           02510                                    CG
000661: 31,3260           76435                           VXV      VSL1
000662: 31,3261           02516                                    CG         +6
000663: 31,3262           02524                           STORE    CG         +14
000664: 31,3263           77776                           EXIT
000665:
000666:                                                                                                  #                                              (CONTINUE TO EXTLOGIC)
000667:
000668:                                                                                                  #  ****************************************************************************************************************
000669:                                                                                                  #  PREPARE TO EXIT
000670:                                                                                                  #  ****************************************************************************************************************
000671:
000672:                                                                                                  #  DECIDE (1) HOW TO EXIT, AND (2) WHETHER TO SWITCH PHASES
000673:
000674: 31,3264           11620        EXTLOGIC           CCS      WCHPHASE
000675: 31,3265           50000                           INDEX    A                                     #  WCHPHASE = +2    APPRQUAD    A = 1
000676: 31,3266           31425                           CA       TENDBRAK                              #  WCHPHASE = +0    BRAKQUAD    A = 0
000677: 31,3267           13271                           TCF      EXSPOT1    -1                         #  WCHPHASE = -1    IGNALG      A = 0
000678:
000679: 31,3270           33727        LINXLOGC           CA       3SEC*17
000680: 31,3271           61640                           AD       TTF/8
000681:
000682: 31,3272           00006        EXSPOT1            EXTEND
000683: 31,3273           51620                           INDEX    WCHPHASE
000684: 31,3274           62476                           BZMF     WHATEXIT
000685:
000686: 31,3275           03721                           TC       FASTCHNG
000687:
000688: 31,3276           31617                           CA       WCHPHOLD
000689: 31,3277           64753                           AD       ONE
000690: 31,3300           22007                           ZL                                             #  +0
000691: 31,3301           53621                           DXCH     WCHPHASE                              #  ADVANCING WCHPHASE AND RESETTING FLPASS0
000692:
000693: 31,3302           51617                           INDEX    WCHPHOLD
000694: 31,3303           12476                           TCF      WHATEXIT
000695:
000696:                                                                                                  #  ****************************************************************************************************************
000697:                                                                                                  #  ROUTINES FOR EXITING FROM LANDING GUIDANCE
000698:


000700:                                                                                                  #  ****************************************************************************************************************
000701:
000702:                                                                                                  #  1.        EXGSUB IS THE RETURN WHEN GUIDSUB IS CALLED BY THE IGNITION ALGORITHM.
000703:
000704:                                                                                                  #  2.        EXBRAK IN THE EXIT USED DURING THE BRAKING PHASE.   IN THIS CASE UNIT(R) IS THE WINDOW POINTING VECTOR.
000705:
000706:                                                                                                  #  3.        EXNORM IS THE EXIT USED AT OTHER TIMES DURING THE BURN.
000707:
000708:                                                                                                  #           (EXOVFLOW IS A SUBROUTINE OF EXBRAK AND EXNORM CALLED WHEN OVERFLOW OCCURRED ANYWHERE IN GUIDANCE.)
000709:
000710: 31,3304           06036        EXGSUB             TC       INTPRET                               #  COMPUTE TRIM VELOCITY CORRECTION TERM
000711: 31,3305           47175                           VLOAD    RTB
000712: 31,3306           03252                                    UNFC/2
000713: 31,3307           21700                                    NORMUNIT
000714: 31,3310           74361                           VXSC     VXSC
000715: 31,3311           03425                                    ZOOMTIME
000716: 31,3312           22001                                    TRIMACCL
000717: 31,3313           03252                           STORE    UNFC/2
000718: 31,3314           77776                           EXIT
000719:
000720: 31,3315           11645                           CCS      NGUIDSUB
000721: 31,3316           12520                           TCF      GUIDSUB
000722: 31,3317           11644                           CCS      NIGNLOOP
000723: 31,3320           13323                           TCF      +3
000724: 31,3321           05567                           TC       ALARM
000725: 31,3322           01412                           OCT      01412
000726:
000727: 31,3323           04635                 +3        TC       POSTJUMP
000728: 31,3324           65075                           CADR     DDUMCALC
000729:
000730: 31,3325           06036        EXBRAK             TC       INTPRET
000731: 31,3326           77775                           VLOAD
000732: 31,3327           03535                                    UNIT/R/
000733: 31,3330           03260                           STORE    UNWC/2
000734: 31,3331           77776                           EXIT
000735: 31,3332           13405                           TCF      STEER?
000736:
000737: 31,3333           06036        EXNORM             TC       INTPRET
000738: 31,3334           52375                           VLOAD    VSU
000739: 31,3335           03633                                    LAND
000740: 31,3336           03517                                    R
000741: 31,3337           77634                           RTB
000742: 31,3340           21700                                    NORMUNIT
000743: 31,3341           03260                           STORE    UNWC/2                                #  UNIT(LAND - R) IS TENTATIVE CHOICE
000744: 31,3342           50235                           VXV      DOT
000745: 31,3343           02146                                    XNBPIP
000746: 31,3344           02516                                    CG         +6
000747: 31,3345           77776                           EXIT                                           #  WITH PROJ IN MPAC 1/8 REAL SIZE
000748:
000749: 31,3346           40154                           CS       MPAC                                  #  GET COEFFICIENT FOR CG +14
000750:


000752: 31,3347           63763                           AD       PROJMAX
000753: 31,3350           64733                           AD       POSMAX
000754: 31,3351           54130                           TS       BUF
000755: 31,3352           40130                           CS       BUF
000756: 31,3353           26130                           ADS      BUF                                   #  RESULT IS 0 IF PROJMAX - PROJ NEGATIVE
000757:
000758: 31,3354           43764                           CS       PROJMIN                               #  GET COEFFICIENT FOR UNIT(LAND - R)
000759: 31,3355           60154                           AD       MPAC
000760: 31,3356           64733                           AD       POSMAX
000761: 31,3357           54131                           TS       BUF        +1
000762: 31,3360           40131                           CS       BUF        +1
000763: 31,3361           26131                           ADS      BUF        +1                         #  RESULT IS 0 IF PROJ - PROJMIN NEGATIVE
000764:
000765: 31,3362           34751                           CAF      FOUR
000766: 31,3363           76241        UNWCLOOP           MASK     SIX
000767: 31,3364           54002                           TS       Q
000768: 31,3365           35014                           CA       EBANK5
000769: 31,3366           54003                           TS       EBANK
000770: 31,3367  E5,1507                                  EBANK=   CG
000771: 31,3367           30130                           CA       BUF
000772: 31,3370           00006                           EXTEND
000773: 31,3371           50002                           INDEX    Q
000774: 31,3372           71523                           MP       CG         +14
000775: 31,3373           24006                           INCR     BBANK
000776: 31,3374  E6,1657                                  EBANK=   UNWC/2
000777: 31,3374           50002                           INDEX    Q
000778: 31,3375           53660                           DXCH     UNWC/2
000779: 31,3376           00006                           EXTEND
000780: 31,3377           70131                           MP       BUF        +1
000781: 31,3400           50002                           INDEX    Q
000782: 31,3401           21660                           DAS      UNWC/2
000783: 31,3402           10002                           CCS      Q
000784: 31,3403           13363                           TCF      UNWCLOOP
000785:
000786: 31,3404           24006                           INCR     BBANK
000787: 31,3405  E7,1610                                  EBANK=   PIF
000788:
000789: 31,3405           30076        STEER?             CA       FLAGWRD2                              #  IF STEERSW DOWN NO OUTPUTS
000790: 31,3406           74741                           MASK     STEERBIT
000791: 31,3407           00006                           EXTEND
000792: 31,3410           13416                           BZF      RATESTOP
000793:
000794: 31,3411           30121        EXVERT             CA       OVFIND                                #  IF OVERFLOW ANYWHERE IN GUIDANCE
000795: 31,3412           00006                           EXTEND                                         #    DON'T CALL THROTTLE OR FINDCDUW
000796: 31,3413           13421                           BZF      +6
000797:
000798: 31,3414           05567        EXOVFLOW           TC       ALARM                                 #  SOUND THE ALARM NON-ABORTIVELY.
000799: 31,3415           01410                           OCT      01410
000800:
000801: 31,3416           04616        RATESTOP           TC       BANKCALL                              #  CLEAN UP AFTER LAST FINDCDUW
000802:


000804: 31,3417           40165                           CADR     STOPRATE
000805:
000806: 31,3420           13426                           TCF      DISPEXIT
000807:
000808: 31,3421           02247        GDUMP1             TC       THROTTLE
000809: 31,3422           06036                           TC       INTPRET
000810: 31,3423           77624                           CALL
000811: 31,3424           61062                                    FINDCDUW   -2
000812: 31,3425           77776                           EXIT
000813:
000814:                                                                                                  #                                                    (CONTINUE TO DISPEXIT)
000815:
000816:
000817:                                                                                                  #  ****************************************************************************************************************
000818:                                                                                                  #  GUIDANCE LOOP DISPLAYS
000819:                                                                                                  #  ****************************************************************************************************************
000820:
000821: 31,3426           00006        DISPEXIT           EXTEND                                         #  KILL GROUP 3:  DISPLAYS WILL BE
000822: 31,3427           34755                           DCA      NEG0                                  #    RESTORED BY NEXT GUIDANCE CYCLE
000823: 31,3430           52757                           DXCH     -PHASE3
000824:
000825: 31,3431           40104                           CS       FLAGWRD8                              #  IF FLUNDISP SET, NO DISPLAY THIS PASS
000826: 31,3432           74742                           MASK     FLUNDBIT
000827: 31,3433           00006                           EXTEND
000828: 31,3434           13444                           BZF      ENDLLJOB                              #  TO PICK UP THE TAG
000829:
000830: 31,3435           51617                           INDEX    WCHPHOLD
000831: 31,3436           12502                           TCF      WHATDISP
000832:
000833: 31,3437           05353                 -2        TC       PHASCHNG                              #  KILL GROUP 5
000834: 31,3440           00035                           OCT      00035
000835:
000836: 31,3441           33765        P63DISPS           CAF      V06N63
000837: 31,3442           04616        DISPCOMN           TC       BANKCALL
000838: 31,3443           20346                           CADR     REGODSPR
000839:
000840: 31,3444           15155        ENDLLJOB           TCF      ENDOFJOB
000841:
000842: 31,3445           31664        P64DISPS           CA       TREDES                                #  HAS TREDES REACHED ZERO?
000843: 31,3446           00006                           EXTEND
000844: 31,3447           13471                           BZF      RED-OVER                              #  YES:  CLEAR REDESIGNATION FLAG
000845:
000846: 31,3450           40102                           CS       FLAGWRD6                              #  NO:   IS REDFLAG SET?
000847: 31,3451           74746                           MASK     REDFLBIT
000848: 31,3452           00006                           EXTEND
000849: 31,3453           13473                           BZF      REDES-OK                              #  YES:  DO STATIC DISPLAY
000850:
000851: 31,3454           33766                           CAF      V06N64                                #  OTHERWISE USE FLASHING DISPLAY
000852: 31,3455           04616                           TC       BANKCALL
000853:


000855: 31,3456           20340                           CADR     REFLASHR
000856: 31,3457           16001                           TCF      GOTOPOOH                              #  TERMINATE
000857: 31,3460           13463                           TCF      P64CEED                               #  PROCEED    PERMIT REDESIGNATIONS
000858: 31,3461           13445                           TCF      P64DISPS                              #  RECYCLE
000859:
000860: 31,3462           13444                           TCF      ENDLLJOB                              #  TO PICK UP THE TAG
000861:
000862: 31,3463           34755        P64CEED            CAF      ZERO
000863: 31,3464           55642                           TS       ELINCR1
000864: 31,3465           55643                           TS       AZINCR1
000865:
000866: 31,3466           05504                           TC       UPFLAG                                #  ENABLE REDESIGNATION LOGIC
000867: 31,3467           00143                           ADRES    REDFLAG
000868:
000869: 31,3470           15155                           TCF      ENDOFJOB
000870:
000871: 31,3471           05516        RED-OVER           TC       DOWNFLAG
000872: 31,3472           00143                           ADRES    REDFLAG
000873: 31,3473           33766        REDES-OK           CAF      V06N64
000874: 31,3474           13442                           TCF      DISPCOMN
000875:
000876:
000877: 31,3475           33767        VERTDISP           CAF      V06N60
000878: 31,3476           13442                           TCF      DISPCOMN
000879:
000880:
000881:                                                                                                  #  ****************************************************************************************************************
000882:                                                                                                  #  GUIDANCE FOR VERTICAL DESCENT
000883:                                                                                                  #  ****************************************************************************************************************
000884:
000885: 31,3477           11645        VERTGUID           CCS      WCHVERT
000886: 31,3500           13426                           TCF      DISPEXIT                              #  POSITIVE   P67, WHICH SKIPS ALL GUIDANCE
000887: 31,3501           13516                           TCF      P66VERT                               #  +0
000888:
000889:                                                                                                  #           THE P65 GUIDANCE EQUATION IS AS FOLLOWS:-
000890:
000891:                                                                                                  #                            -         -
000892:                                                                                                  #                      -     VDGVERT - VGU          -
000893:                                                                                                  #                      ACG = -------------  , WHERE VDGVERT = (-3FPS,0,0)
000894:                                                                                                  #                               TAUVERT
000895:
000896: 31,3502           00006        P65VERT            EXTEND                                         #  NEGATIVE
000897: 31,3503           43760                           DCS      +3FPS
000898: 31,3504           53643                           DXCH     VDGVERT
000899: 31,3505           06036                           TC       INTPRET
000900: 31,3506           65375                           VLOAD    PDDL
000901: 31,3507           06424                                    ZEROVECS
000902: 31,3510           03643                                    VDGVERT
000903: 31,3511           52266                           VDEF     VSU                                   #  FORM (VDGVERT,0,0), LEAVING DP 0 IN PDL
000904: 31,3512           03625                                    VGU
000905:


000907: 31,3513           52141                           V/SC     GOTO
000908: 31,3514           23745                                    TAUVERT
000909: 31,3515           63174                                    AFCCALC1
000910:
000911:
000912:                                                                                                  #           THE R.O.D. EQUATION IS AS FOLLOWS:-
000913:
000914:                                                                                                  #                             (VDGVERTX - VGUX)/TAUVERT - GMOON
000915:                                                                                                  #                     /AFC/ = ---------------------------------
000916:                                                                                                  #                                       UNIT/R/ . XNB
000917:
000918: 31,3516           57644        P66VERT            XCH      RODCOUNT                              #  RESTART COULD CAUSE RODCOUNTS TO BE LOST
000919: 31,3517           00006                           EXTEND
000920: 31,3520           73756                           MP       +1FPS
000921: 31,3521           21643                           DAS      VDGVERT
000922: 31,3522           03721                           TC       FASTCHNG
000923: 31,3523           06036                           TC       INTPRET
000924: 31,3524           45345                           DLOAD    DSU
000925: 31,3525           03643                                    VDGVERT
000926: 31,3526           03625                                    VGU
000927: 31,3527           45271                           DDV      DSU
000928: 31,3530           23747                                    TAUROD
000929: 31,3531           22010                                    MOONG
000930: 31,3532           50315                           PDVL     DOT                                   #  HAVE ACC IN UNITS OF 2(-2) M/CS/CS
000931: 31,3533           02146                                    XNBPIP
000932: 31,3534           03535                                    UNIT/R/
000933: 31,3535           45465                           BDDV     STADR
000934: 31,3536           74203                           STORE    /AFC/
000935: 31,3537           77404                           BOVB     EXIT
000936: 31,3540           63414                                    EXOVFLOW
000937: 31,3541           02247                           TC       THROTTLE
000938: 31,3542           13426                           TCF      DISPEXIT
000939:
000940:
000941:                                                                                                  #  ****************************************************************************************************************
000942:                                                                                                  #  REDESIGNATOR TRAP
000943:                                                                                                  #  ****************************************************************************************************************
000944:
000945: 21,2006                                           BANK     21
000946: 21,2000                                           SETLOC   F2DPS*21
000947: 21,2000                                           BANK
000948:
000949: 21,2006                                           COUNT*   $$/F2DPS
000950:
000951: 21,2006           56016        PITFALL            XCH      BANKRUPT
000952: 21,2007           00006                           EXTEND
000953: 21,2010           22012                           QXCH     QRUPT
000954:
000955: 21,2011           05321                           TC       CHECKMM                               #  IF NOT IN P64, NO REASON TO CONTINUE
000956: 21,2012           00100                           DEC      64         B-14
000957:


000959: 21,2013           15270                           TCF      RESUME
000960:
000961: 21,2014           00006                           EXTEND
000962: 21,2015           00031                           READ     CHAN31
000963: 21,2016           40000                           COM
000964: 21,2017           72077                           MASK     ALL4BITS
000965: 21,2020           55645                           TS       ELVIRA
000966: 21,2021           34752                           CAF      TWO
000967: 21,2022           55644                           TS       ZERLINA
000968: 21,2023           34756                           CAF      FIVE
000969: 21,2024           05173                           TC       TWIDDLE
000970: 21,2025           02032                           ADRES    REDESMON
000971: 21,2026           15270                           TCF      RESUME
000972:
000973:
000974:                                                                                                  #  REDESIGNATION MONITOR (INITIATED BY PITFALL)
000975:
000976:
000977: 21,2027           55644        PREMON1            TS       ZERLINA
000978: 21,2030           34757        PREMON2            CAF      SEVEN
000979: 21,2031           05224                           TC       VARDELAY
000980: 21,2032           00006        REDESMON           EXTEND
000981: 21,2033           00031                           READ     31
000982: 21,2034           40000                           COM
000983: 21,2035           72077                           MASK     ALL4BITS
000984: 21,2036           57645                           XCH      ELVIRA
000985: 21,2037           54001                           TS       L
000986: 21,2040           11645                           CCS      ELVIRA                                #  DO ANY BITS APPEAR THIS PASS?
000987: 21,2041           12030                           TCF      PREMON2                               #    Y: CONTINUE MONITOR
000988:
000989: 21,2042           10001                           CCS      L                                     #    N: ANY LAST PASS?
000990: 21,2043           12052                           TCF      COUNT'EM                              #       Y: COUNT 'EM, RESET RUPT, TERMINATE
000991: 21,2044           11644                           CCS      ZERLINA                               #       N: HAS ZERLINA REACHED ZERO YET?
000992: 21,2045           12027                           TCF      PREMON1                               #          N: DIMINISH ZERLINA, CONTINUE
000993: 21,2046           34740        RESETRPT           CAF      BIT12                                 #          Y: RESET RUPT, TERMINATE
000994: 21,2047           00006                           EXTEND
000995: 21,2050           05013                           WOR      CHAN13
000996: 21,2051           15261                           TCF      TASKOVER
000997:
000998: 21,2052           30001        COUNT'EM           CA       L
000999: 21,2053           74746                           MASK     -AZBIT
001000: 21,2054           10000                           CCS      A
001001: 21,2055           42100        -AZ                CS       AZEACH
001002: 21,2056           27643                           ADS      AZINCR1
001003: 21,2057           30001                           CA       L
001004: 21,2060           74747                           MASK     +AZBIT
001005: 21,2061           10000                           CCS      A
001006: 21,2062           32100        +AZ                CA       AZEACH
001007: 21,2063           27643                           ADS      AZINCR1
001008: 21,2064           30001                           CA       L
001009:


001011: 21,2065           74753                           MASK     -ELBIT
001012: 21,2066           10000                           CCS      A
001013: 21,2067           42101        -EL                CS       ELEACH
001014: 21,2070           27642                           ADS      ELINCR1
001015: 21,2071           30001                           CA       L
001016: 21,2072           74752                           MASK     +ELBIT
001017: 21,2073           10000                           CCS      A
001018: 21,2074           32101        +EL                CA       ELEACH
001019: 21,2075           27642                           ADS      ELINCR1
001020: 21,2076           12046                           TCF      RESETRPT
001021:
001022:
001023:                                                                                                  #  THESE EQUIVALENCIES ARE BASED ON GSOP CHAPTER 4, REVISION 16 OF P64LM
001024:
001025: 21,2077     4752               +ELBIT             =        BIT2                                  #  -PITCH
001026:
001027:
001028: 21,2077     4753               -ELBIT             =        BIT1                                  #  +PITCH
001029:
001030:
001031: 21,2077     4747               +AZBIT             =        BIT5
001032:
001033:
001034: 21,2077     4746               -AZBIT             =        BIT6
001035:
001036: 21,2077           00063        ALL4BITS           OCT      00063
001037:
001038:
001039: 21,2100           01074        AZEACH             DEC      .03491                                #  2 DEGREES
001040:
001041:
001042: 21,2101           00217        ELEACH             DEC      .00873                                #  1/2 DEGREE
001043:
001044:
001045:                                                                                                  #  ****************************************************************************************************************
001046:                                                                                                  #  R.O.D. TRAP
001047:                                                                                                  #  ************************************************************************
001048:
001049: 20,2115                                           BANK     20
001050: 20,2000                                           SETLOC   RODTRAP
001051: 20,2000                                           BANK
001052: 20,2115                                           COUNT*   $$/F2DPS                              #  ****************************************
001053:
001054: 20,2115           74745        DESCBITS           MASK     BIT7                                  #  COME HERE FROM MARKRUPT CODING WITH BIT
001055: 20,2116           10000                           CCS      A                                     #    7 OR 6 OF CHANNEL 16 IN A: BIT 7 MEANS
001056: 20,2117           44752                           CS       TWO                                   #    - RATE INCREMENT, BIT 6 + INCREMENT
001057: 20,2120           64753                           AD       ONE
001058: 20,2121           27644                           ADS      RODCOUNT
001059:


001061: 20,2122           15270                           TCF      RESUME                                #  TRAP IS RESET WHEN SWITCH IS RELEASED
001062:
001063:
001064: 31,3543                                           BANK     31
001065: 31,2000                                           SETLOC   F2DPS*31
001066: 31,2000                                           BANK
001067:
001068: 31,3543                                           COUNT*   $$/F2DPS
001069:
001070:                                                                                                  #  ****************************************************************************************************************
001071:                                                                                                  #  DOUBLE PRECISION ROOT FINDER SUBROUTINE (BY ALLAN KLUMPP)
001072:                                                                                                  #  ****************************************************************************************************************
001073:
001074:                                                                                                  #                                                          N        N-1
001075:                                                                                                  #           ROOTPSRS FINDS ONE ROOT OF THE POWER SERIES A X  + A   X    + ... + A X + A
001076:                                                                                                  #                                                        N      N-1              1     0
001077:
001078:                                                                                                  #  USING NEWTON'S METHOD STARTING WITH AN INITIAL GUESS FOR THE ROOT.  THE ENTERING DATA MUST BE AS FOLLOWS:
001079:
001080:                                                                                                  #                                          A        SP     LOC-3            ADRES FOR REFERENCING PWR COF TABL
001081:                                                                                                  #                                          L        SP     N-1              N IS THE DEGREE OF THE POWER SERIES
001082:                                                                                                  #                                          MPAC     DP     X                INITIAL GUESS FOR ROOT
001083:
001084:                                                                                                  #                                          LOC-2N   DP     A(0)
001085:                                                                                                  #                                                   ...
001086:                                                                                                  #                                          LOC      DP     A(N)
001087:                                                                                                  #                                          LOC+2    SP     PRECROOT         PREC RQD OF ROOT (AS FRACT OF 1ST GUESS)
001088:
001089:                                                                                                  #  THE DP RESULT IS LEFT IN MPAC UPON EXIT, AND A SP COUNT OF THE ITERATIONS TO CONVERGENCE IS LEFT IN MPAC+2.
001090:                                                                                                  #  RETURN IS NORMALLY TO LOC(TC ROOTPSRS)+3.   IF ROOTPSRS FAILS TO CONVERGE IN 32 PASSES, RETURN IS TO LOC+1 AND
001091:                                                                                                  #  OUTPUTS ARE NOT TO BE TRUSTED.
001092:
001093:                                                                                                  #           PRECAUTION: ROOTPSRS MAKES NO CHECKS FOR OVERFLOW OR FOR IMPROPER USAGE. IMPROPER USAGE COULD
001094:                                                                                                  #  PRECLUDE CONVERGENCE OR REQUIRE EXCESSIVE ITERATIONS. AS A SPECIFIC EXAMPLE, ROOTPSRS FORMS A DERIVATIVE
001095:                                                                                                  #  COEFFICIENT TABLE BY MULTIPLYING EACH A(I) BY I, WHERE I RANGES FROM 1 TO N. IF AN ELEMENT OF THE DERIVATIVE
001096:                                                                                                  #  COEFFICIENT TABLE = 1 OR > 1 IN MAGNITUDE, ONLY THE EXCESS IS RETAINED. ROOTPSRS MAY CONVERGE ON THE CORRECT
001097:                                                                                                  #  ROOT NONETHELESS, BUT IT MAY TAKE AN EXCESSIVE NUMBER OF ITERATIONS. THEREFORE THE USER SHOULD RECOGNIZE:
001098:
001099:                                                                                                  #  1. USER'S RESPONSIBILITY TO ASSURE THAT I X A(I) < 1 IN MAGNITUDE FOR ALL I.
001100:
001101:                                                                                                  #  2. USER'S RESPONSIBILITY TO ASSURE OVERFLOW WILL NOT OCCUR IN EVALUATING EITHER THE RESIDUAL OR THE DERIVATIVE
001102:                                                                                                  #     POWER SERIES.   THIS OVERFLOW WOULD BE PRODUCED BY SUBROUTINE POWRSERS, CALLED BY ROOTPSRS, AND MIGHT NOT
001103:                                                                                                  #     PRECLUDE EVENTUAL CONVERGENCE.
001104:
001105:                                                                                                  #  3. AT PRESENT, ERASABLE LOCATIONS ARE RESERVED ONLY FOR N UP TO 5.  AN N IN EXCESS OF 5 WILL PRODUCE CHAOS.
001106:                                                                                                  #     ALL ERASABLES USED BY ROOTPSRS ARE UNSWITCHED LOCATED IN THE REGION FROM MPAC-33 OCT TO MPAC+7.
001107:
001108:                                                                                                  #  4. THE ITERATION COUNT RETURNED IN MPAC+2 MAY BE USED TO DETECT ABNORMAL PERFORMANCE.
001109:
001110:                                                                                                  #                                                                          STORE ENTERING DATA, INITLIZE ERASABLES
001111:


001113: 31,3543           00006        ROOTPSRS           EXTEND
001114: 31,3544           22132                           QXCH     RETROOT                               #  RETURN ADRES
001115: 31,3545           54117                           TS       PWRPTR                                #  PWR TABL POINTER
001116: 31,3546           52160                           DXCH     MPAC       +3                         #  PWR TABL ADRES, N-1
001117: 31,3547           33666                           CA       DERTABLL
001118: 31,3550           54141                           TS       DERPTR                                #  DER TABL POINTER
001119: 31,3551           54161                           TS       MPAC       +5                         #  DER TABL ADRES
001120: 31,3552           10160                           CCS      MPAC       +4                         #  NO POWER SERIES OF DEGREE 1 OR LESS
001121: 31,3553           54162                           TS       MPAC       +6                         #  N-2
001122: 31,3554           34755                           CA       ZERO                                  #  MODE USED AS ITERATION COUNTER. MODE
001123: 31,3555           54163                           TS       MODE                                  #  MUST BE POS SO ABS WON'T COMP MPAC+3 ETC
001124:
001125:                                                                                                  #  COMPUTE CRITERION TO STOP ITERATING
001126:
001127: 31,3556           00006                           EXTEND
001128: 31,3557           30155                           DCA      MPAC                                  #  FETCH ROOT GUESS, KEEPING IT IN MPAC
001129: 31,3560           52127                           DXCH     ROOTPS                                #  AND IN ROOTPS
001130: 31,3561           50157                           INDEX    MPAC       +3                         #  PWR TABL ADRES
001131: 31,3562           30005                           CA       5                                     #  PRECROOT TO A
001132: 31,3563           07306                           TC       SHORTMP                               #  YIELDS DP PRODUCT IN MPAC
001133: 31,3564           04713                           TC       USPRCADR
001134: 31,3565           01226                           CADR     ABS                                   #  YIELDS ABVAL OF CRITERION ON DX IN MPAC
001135: 31,3566           52155                           DXCH     MPAC
001136: 31,3567           52125                           DXCH     DXCRIT                                #  CRITERION
001137:
001138:                                                                                                  #  SET UP DER COF TABL
001139:
001140: 31,3570           00006                           EXTEND
001141: 31,3571           50117                           INDEX    PWRPTR
001142: 31,3572           30004                           DCA      3
001143: 31,3573           52155                           DXCH     MPAC                                  #  A(N) TO MPAC
001144:
001145: 31,3574           30160                           CA       MPAC       +4                         #  N-1 TO A
001146:
001147: 31,3575           54140        DERCLOOP           TS       PWRCNT                                #  LOOP COUNTER
001148: 31,3576           64753                           AD       ONE
001149: 31,3577           07315                           TC       DMPNSUB                               #  YIELDS DERCOF = I X A(I) IN MPAC
001150: 31,3600           00006                           EXTEND
001151: 31,3601           50117                           INDEX    PWRPTR
001152: 31,3602           30002                           DCA      1
001153: 31,3603           52155                           DXCH     MPAC                                  #  A(I-1) TO MPAC, FETCHING DERCOF
001154: 31,3604           50141                           INDEX    DERPTR
001155: 31,3605           52004                           DXCH     3                                     #  DERCOF TO DER TABL
001156: 31,3606           44752                           CS       TWO
001157: 31,3607           26117                           ADS      PWRPTR                                #  DECREMENT PWR POINTER
001158: 31,3610           44752                           CS       TWO
001159: 31,3611           26141                           ADS      DERPTR                                #  DECREMENT DER POINTER
001160: 31,3612           10140                           CCS      PWRCNT
001161: 31,3613           13575                           TCF      DERCLOOP
001162:
001163:


001165:                                                                                                  #  CONVERGE ON ROOT
001166:
001167: 31,3614           00006        ROOTLOOP           EXTEND
001168: 31,3615           30127                           DCA      ROOTPS                                #  FETCH CURRENT ROOT
001169: 31,3616           52155                           DXCH     MPAC                                  #  LEAVE IN MPAC
001170: 31,3617           00006                           EXTEND
001171: 31,3620           30162                           DCA      MPAC       +5                         #  LOAD A, L WITH DER TABL ADRES, N-2
001172: 31,3621           07214                           TC       POWRSERS                              #  YIELDS DERIVATIVE IN MPAC
001173:
001174: 31,3622           00006                           EXTEND
001175: 31,3623           30127                           DCA      ROOTPS
001176: 31,3624           52155                           DXCH     MPAC                                  #  CURRENT ROOT TO MPAC, FETCHING DERIVTIVE
001177: 31,3625           52131                           DXCH     BUF                                   #  LEAVE DERIVATIVE IN BUF AS DIVISOR
001178: 31,3626           00006                           EXTEND
001179: 31,3627           30160                           DCA      MPAC       +3                         #  LOAD A, L WITH PWR TABL ADRES, N-1
001180: 31,3630           07214                           TC       POWRSERS                              #  YIELDS RESIDUAL IN MPAC
001181:
001182: 31,3631           04713                           TC       USPRCADR
001183: 31,3632           00353                           CADR     DDV/BDDV                              #  YIELDS -DX IN MPAC
001184:
001185: 31,3633           00006                           EXTEND
001186: 31,3634           40155                           DCS      MPAC                                  #  FETCH DX, LEAVING -DX IN MPAC
001187: 31,3635           20127                           DAS      ROOTPS                                #  CORRECTED ROOT NOW IN ROOTPS
001188:
001189: 31,3636           04713                           TC       USPRCADR
001190: 31,3637           01226                           CADR     ABS                                   #  YIELDS ABS(DX) IN MPAC
001191: 31,3640           00006                           EXTEND
001192: 31,3641           40125                           DCS      DXCRIT
001193: 31,3642           20155                           DAS      MPAC                                  #  ABS(DX)-ABS(DXCRIT) IN MPAC
001194:
001195: 31,3643           24163                           INCR     MODE                                  #  INCREMENT ITERATION COUNTER
001196: 31,3644           30163                           CA       MODE
001197: 31,3645           74750                           MASK     BIT4                                  #  KLUMPP SAYS GIVE UP AFTER EIGHT PASSES
001198: 31,3646           10000                           CCS      A
001199: 31,3647           00132        BADROOT            TC       RETROOT
001200:
001201: 31,3650           10154                           CCS      MPAC                                  #  TEST HI ORDER DX
001202: 31,3651           13614                           TCF      ROOTLOOP
001203: 31,3652           13654                           TCF      TESTLODX
001204: 31,3653           13660                           TCF      ROOTSTOR
001205: 31,3654           10155        TESTLODX           CCS      MPAC       +1                         #  TEST LO ORDER DX
001206: 31,3655           13614                           TCF      ROOTLOOP
001207: 31,3656           13660                           TCF      ROOTSTOR
001208: 31,3657           13660                           TCF      ROOTSTOR
001209: 31,3660           52127        ROOTSTOR           DXCH     ROOTPS
001210: 31,3661           52155                           DXCH     MPAC
001211: 31,3662           30163                           CA       MODE
001212: 31,3663           54156                           TS       MPAC       +2                         #  STORE SP ITERATION COUNT IN MPAC+2
001213: 31,3664           50132                           INDEX    RETROOT
001214: 31,3665           10002                           TCF      2
001215:


001217:
001218: 31,3666           00147        DERTABLL           ADRES    DERCOFN    -3
001219:
001220:                                                                                                  #  ****************************************************************************************************************
001221:                                                                                                  #  TRASHY LITTLE SUBROUTINES
001222:                                                                                                  #  ****************************************************************************************************************
001223:
001224: 31,3667           51620        INTPRETX           INDEX    WCHPHASE                              #  SET X1 ON THE WAY TO THE INTERPRETER
001225: 31,3670           42510                           CS       TARGTDEX
001226: 31,3671           50120                           INDEX    FIXLOC
001227: 31,3672           54046                           TS       X1
001228: 31,3673           16036                           TCF      INTPRET
001229:
001230:
001231: 31,3674           31640        TDISPSET           CA       TTF/8
001232: 31,3675           00006                           EXTEND
001233: 31,3676           74750                           MP       TSCALINV
001234: 31,3677           53474                           DXCH     TTFDISP
001235:
001236: 31,3700           31640                           CA       TTF/8
001237: 31,3701           00006                           EXTEND
001238: 31,3702           73740                           MP       SCTTFDSP
001239: 31,3703           54001                           TS       L
001240: 31,3704           63736                           AD       99+LINT
001241: 31,3705           00006                           EXTEND
001242: 31,3706           63717                           BZMF     +11
001243: 31,3707           40001                           CS       L
001244: 31,3710           63737                           AD       -LINT
001245: 31,3711           00006                           EXTEND
001246: 31,3712           63715                           BZMF     +3
001247: 31,3713           55664                           TS       TREDES
001248: 31,3714           00002                           TC       Q
001249:
001250: 31,3715           34755                           CA       ZERO
001251: 31,3716           13713                           TCF      -3
001252:
001253: 31,3717           33736                           CA       99+LINT
001254: 31,3720           13710                           TCF      -10
001255:
001256:
001257:                                                                                                  #  ****************************************************************************************************************
001258:                                                                                                  #  SPECIALIZED "PHASCHNG" SUBROUTINE
001259:                                                                                                  #  ****************************************************************************************************************
001260:
001261: 31,3721  E3,1440                                  EBANK=   PHSNAME2
001262: 31,3721           35007        FASTCHNG           CA       EBANK3                                #  SPECIALIZED 'PHASCHNG' ROUTINE
001263: 31,3722           56003                           XCH      EBANK
001264: 31,3723           52002                           DXCH     L
001265: 31,3724           55442                           TS       PHSNAME3
001266: 31,3725           22003                           LXCH     EBANK
001267:


001269: 31,3726  E7,1617                                  EBANK=   E2DPS
001270: 31,3726           00000                           TC       A
001271:
001272:
001273:                                                                                                  #  ****************************************************************************************************************
001274:                                                                                                  #  PARAMETER TABLE INDIRECT ADDRESSES
001275:                                                                                                  #  ****************************************************************************************************************
001276:
001277: 31,3727  E5,1402               RDG                =        RBRFG
001278: 31,3727  E5,1410               VDG                =        VBRFG
001279: 31,3727  E5,1416               ADG                =        ABRFG
001280: 31,3727  E5,1424               VDG2TTF            =        VBRFG*
001281: 31,3727  E5,1426               ADG2TTF            =        ABRFG*
001282: 31,3727  E5,1430               JDG2TTF            =        JBRFG*
001283:
001284:                                                                                                  #  ****************************************************************************************************************
001285:                                                                                                  #  LUNAR LANDING CONSTANTS
001286:                                                                                                  #  ***************************************************************************************************************
001287:
001288: 31,3727           00046        3SEC*17            DEC      +3         E2         B-17
001289:
001290:
001291: 31,3730           00175        10SEC*17           DEC      +10        E2         B-17
001292:
001293:
001294: 31,3731           00372        20SEC*17           DEC      +20        E2         B-17
001295:
001296:
001297: 31,3732           00567        30SEC*17           DEC      +30        E2         B-17
001298:
001299:
001300: 31,3733           01563        TABLTTFL           ADRES    TABLTTF    +3                         #  ADDRESS FOR REFERENCING TTF TABLE
001301:
001302:
001303: 31,3734           00021 11422  HIGHESTF           2DEC     +43245     E-4        B-12            #  THRUST FOR RADIAL CONTROL
001304: 31,3736     4740               TTFSCALE           =        BIT12
001305:
001306:
001307: 31,3736     4750               TSCALINV           =        BIT4
001308:
001309:
001310: 31,3736           00167        99+LINT            DEC      +119       B-14
001311:
001312:
001313: 31,3737           77753        -LINT              DEC      -20        B-14
001314:
001315:
001316: 31,3740           02437        SCTTFDSP           DEC      .08                                   #  RESCALES FROM 2(-17) CS TO WHOLE SECONDS
001317:
001318:


001320: 31,3741           00264        180DEGS            DEC      +180       B-14
001321:
001322:
001323: 31,3742           00056        1/2DEG             DEC      +.00278
001324:
001325:
001326: 31,3743           74110        DELTTFAP           DEC      -158       E2         B-17
001327:
001328:
001329: 31,3744           01130 00000  TAUVERT            2DEC     600        B-14
001330:
001331:
001332: 31,3746           02260 00000  TAUROD             2DEC     300        B-12
001333:
001334:
001335: 31,3750           01440 00000  GSCALE             2DEC     100        B-11
001336:
001337:
001338: 31,3752           14000 00000  3/8DP              2DEC     .375000000
001339:
001340:
001341: 31,3754           30000 00000  3/4DP              2DEC     .750000000
001342: 31,3756           01437        +1FPS              DEC      .3048      E-2        B+4
001343:
001344:
001345: 31,3757           00000 04535  +3FPS              2DEC     +0.9144    E-2        B-10
001346:
001347:
001348: 31,3761           77656 42436  DEPRCRIT           2DEC     -.02       B-2                        #  DEPRESSION ANGLE CRITERION
001349:
001350:
001351: 31,3763           01542        PROJMAX            DEC      .42262     B-3                        #  SIN(25')/8 TO COMPARE WITH PROJ
001352:
001353:
001354: 31,3764           01022        PROJMIN            DEC      .25882     B-3                        #  SIN(15')/8 TO COMPARE WITH PROJ
001355:
001356:
001357: 31,3765           01477        V06N63             VN       0663                                  #  P63
001358:
001359: 31,3766           01500        V06N64             VN       0664                                  #  P64
001360:
001361: 31,3767           01474        V06N60             VN       0660                                  #  P65, P66, P67
001362:


001364:                                                                                                  #  ****************************************************************************************************************
001365:                                                                                                  #  ****************************************************************************************************************

End of include-file LUNAR_LANDING_GUIDANCE_EQUATIONS.agc.  Parent file is MAIN.agc


