
Source Code


000002:                                                                                                  ## Copyright:   Public domain.
000003:                                                                                                  ## Filename:    P-AXIS_RCS_AUTOPILOT.agc
000004:                                                                                                  ## Purpose:     The main source file for Luminary revision 069.
000005:                                                                                                  ##              It is part of the source code for the original release
000006:                                                                                                  ##              of the flight software for the Lunar Module's (LM) Apollo
000007:                                                                                                  ##              Guidance Computer (AGC) for Apollo 10. The actual flown
000008:                                                                                                  ##              version was Luminary 69 revision 2, which included a
000009:                                                                                                  ##              newer lunar gravity model and only affected module 2.
000010:                                                                                                  ##              This file is intended to be a faithful transcription, except
000011:                                                                                                  ##              that the code format has been changed to conform to the
000012:                                                                                                  ##              requirements of the yaYUL assembler rather than the
000013:                                                                                                  ##              original YUL assembler.
000014:                                                                                                  ## Reference:   pp. 1416-1435
000015:                                                                                                  ## Assembler:   yaYUL
000016:                                                                                                  ## Contact:     Ron Burkey <info@sandroid.org>.
000017:                                                                                                  ## Website:     www.ibiblio.org/apollo/index.html
000018:                                                                                                  ## Mod history: 2016-12-13 MAS  Created from Luminary 99.
000019:                                                                                                  ##              2016-12-18 MAS  Updated from comment-proofed Luminary 99 version.
000020:                                                                                                  ##              2017-01-05 RRB  Updated for Luminary 69.
000021:                                                                                                  ##              2017-01-22 HG   Add a "D" to opernad +8 -> +8D.
000022:                                                                                                  ##                              Should actually be changed in yaYul but it might be the only case of this
000023:                                                                                                  ##                              kind in the existing code
000024:                                                                                                  ##              2017-01-22 HG   Fix operand DAPTREG4 -> ITEMP1
000025:                                                                                                  ##              2017-01-28 MAS  Removed the +8D workaround.
000026:                                                                                                  ##              2017-01-28 RSB  Proofed comment text using octopus/prooferComments
000027:                                                                                                  ##                              but no errors found.
000028:


000030: 16,2210                                           BANK     16
000031: 16,2000                                           SETLOC   DAPS1
000032: 16,2000                                           BANK
000033:
000034: 16,2210  E6,1462                                  EBANK=   PERROR
000035: 16,2210                                           COUNT*   $$/DAPP
000036:
000037:                                                                                                  #  THE FOLLOWING T5RUPT ENTRY BEGINS THE PROGRAM WHICH CONTROLS THE P-AXIS ACTION OF THE LEM USING THE RCS JETS.
000038:                                                                                                  #  THE NOMINAL TIME BETWEEN THE P-AXIS RUPTS IS 100 MS IN ALL NON-IDLING MODES OF THE DAP.
000039:
000040: 16,2210           37726        PAXIS              CA       MS100
000041: 16,2211           26030                           ADS      TIME5                                 #  *** NECESSARY IN ORDER TO ALLOW SYN-
000042:                                                                                                  #  CHRONIZATION WITH OTHER INTERRUPTS ***
000043:
000044: 16,2212           22016                           LXCH     BANKRUPT                              #  INTERRUPT LEAD IN (CONTINUED)
000045: 16,2213           00006                           EXTEND
000046: 16,2214           22012                           QXCH     QRUPT
000047:
000048:                                                                                                  #  CHECK IF DAP PASS IS PERMISSIBLE
000049:
000050: 16,2215           11755                           CCS      DAPZRUPT                              #  IF DAPZRUPT POSITIVE, DAP (JASK) IS
000051: 16,2216           05634                           TC       BAILOUT                               #     STILL IN PROGRESS AND A RESTART IS
000052: 16,2217           02000                           OCT      02000                                 #    CALLED FOR.  IT IS NEVER ZERO.
000053:
000054: 16,2220           02000                           TC       CHEKBITS                              #  RETURN IS TC I+1 IF DAP SHOULD STAY ON.
000055:
000056:                                                                                                  #  ***** KALCMANU-DAP AND "RATE-HOLD"-DAP INTERFACE *****
000057:
000058:                                                                                                  #  THE FOLLOWING SECTION IS EXECUTED EVERY 100 MS (10 TIMES A SECOND) WITHIN THE P-AXIS REACTION CONTROL SYSTEM
000059:                                                                                                  #  AUTOPILOT (WHENEVER THE DAP IS IN OPERATION).
000060:
000061: 16,2221           31633                           CA       CDUXD
000062: 16,2222           00006                           EXTEND
000063: 16,2223           21636                           MSU      DELCDUX
000064: 16,2224           02245                           TC       1STOTWOS
000065: 16,2225           55633                           TS       CDUXD
000066: 16,2226           31634                           CA       CDUYD
000067: 16,2227           00006                           EXTEND
000068: 16,2230           21637                           MSU      DELCDUY
000069: 16,2231           02245                           TC       1STOTWOS
000070: 16,2232           55634                           TS       CDUYD
000071: 16,2233           31635                           CA       CDUZD
000072: 16,2234           00006                           EXTEND
000073: 16,2235           21640                           MSU      DELCDUZ
000074: 16,2236           02245                           TC       1STOTWOS
000075: 16,2237           55635                           TS       CDUZD
000076: 16,2240           00006                           EXTEND                                         #  DIMINISH MANUAL CONTROL DIRECT RATE
000077: 16,2241           27443                           DIM      TCP                                   #  TIME COUNTERS.
000078: 16,2242           00006                           EXTEND
000079: 16,2243           27455                           DIM      TCQR


000081:                                                                                                  #  RATELOOP COMPUTES JETRATEQ, JETRATER, AND 1JACC*NO. PJETS IN ITEMP1.
000082:                                                                                                  #   RETURNS TO BACKP.
000083:
000084:                                                                                                  #   JETRATE = 1JACC*NO.PJETS*TJP   (NOTE TJ IS THE TIME FIRED DURING CSP)
000085:                                                                                                  #   JETRATEQ = 1JACCQ(TJU*NO.UJETS - TJV*NO.VJETS)
000086:                                                                                                  #   JETRATER = 1JACCR(TJU*NO.UJETS + TJV*NO.VJETS)
000087:
000088: 16,2244           13624                           TCF      RATELOOP
000089: 16,2245           10000        1STOTWOS           CCS      A
000090: 16,2246           64753                           AD       ONE
000091: 16,2247           00002                           TC       Q
000092: 16,2250           40000                           CS       A
000093: 16,2251           00002                           TC       Q
000094: 16,2252           00006        SUBDIVDE           EXTEND                                         #  OVERFLOW PROCTION ROUTINE TO GIVE
000095: 16,2253           71737                           MP       DAPTEMP3                              #  POSMAX OR NEGMAX IF THE DIVIDE WOULD
000096: 16,2254           21425                           DAS      OMEGAU                                #  OVERFLOW
000097:
000098: 16,2255           00006                 +3        EXTEND
000099: 16,2256           31425                           DCA      OMEGAU
000100: 16,2257           53742                           DXCH     DAPTEMP5
000101: 16,2260           11424                           CCS      OMEGAU
000102: 16,2261           12263                           TCF      +2
000103: 16,2262           12273                           TCF      DIVIDER
000104: 16,2263           62304                           AD       -OCT630
000105: 16,2264           00006                           EXTEND
000106: 16,2265           62273                           BZMF     DIVIDER
000107:
000108: 16,2266           11424                           CCS      OMEGAU
000109: 16,2267           34733                           CA       POSMAX                                #  45 DEG/SEC
000110: 16,2270           00002                           TC       Q
000111: 16,2271           44733                           CS       POSMAX
000112: 16,2272           00002                           TC       Q
000113:
000114: 16,2273           53425        DIVIDER            DXCH     OMEGAU
000115: 16,2274           00006                           EXTEND
000116: 16,2275           10061                           DV       ITEMP1
000117: 16,2276           00002                           TC       Q
000118:
000119: 16,2277           54007        OVERSUB            TS       7                                     #  RETURNS A UNCHANGED OR LIMITED TO
000120: 16,2300           00002                           TC       Q                                     #    POSMAX OR NEGMAX IF A HAS OVERFLOW
000121: 16,2301           50000                           INDEX    A
000122: 16,2302           44734                           CS       BIT15      -1
000123: 16,2303           00002                           TC       Q
000124:
000125: 16,2304           77147        -OCT630            OCT      77147
000126:
000127: 16,2305           31735        BACKP              CA       DAPTEMP1
000128: 16,2306           00006                           EXTEND


000130: 16,2307           71530                           MP       1JACC
000131: 16,2310           55743                           TS       JETRATE
000132:
000133:                                                                                                  #  BEGINNING OF THE RATE DERIVATION
000134:                                                                                                  #  OMEGAP,Q,R      BODY RATES SCALED AT PI/4
000135:                                                                                                  #  TRAPER,Q,R      BODY ANGLE ERRORS FROM PREDICTED ANGLE (PI/40)
000136:                                                                                                  #  NP(QR)TRAPS     NUMBER OF TIMES ANGLE ERROR HAS BEEN ACCUMULATED
000137:                                                                                                  #  AOSQ(R)TERM     CHANGE IN RATE DUE TO OFFSET ACCELLERATION.  (PI/4)
000138:                                                                                                  #  JETRATE,Q,R     CHANGE IN RATE DUE TO  JET   ACCELLERATION.  (PI/4)
000139:                                                                                                  #  TRAPSIZE        NEGATIVE LIMIT OF MAGNITUDE OF TRAPEDP, ECT.
000140:                                                                                                  #  OMEGAU          DP-TEMPORARY STORAGE
000141:                                                                                                  #      OMEGA = OMEGA + JETRATE + AOSTERM (+TRAPED/NTRAPS IF TRAPED BIG)
000142:
000143: 16,2311           30032                           CAE      CDUX
000144: 16,2312           54001                           TS       L
000145: 16,2313           00006                           EXTEND
000146: 16,2314           21436                           MSU      OLDXFORP                              #  SCALED AT PI
000147: 16,2315           23436                           LXCH     OLDXFORP
000148: 16,2316           55735                           TS       DAPTEMP1
000149: 16,2317           33603                           CA       1/40
000150: 16,2320           54061                           TS       ITEMP1
000151: 16,2321           41743                           CS       JETRATE
000152: 16,2322           00006                           EXTEND
000153: 16,2323           74736                           MP       BIT14
000154: 16,2324           27426                           ADS      TRAPEDP
000155: 16,2325           31744                           CA       JETRATEQ
000156: 16,2326           61545                           AD       AOSQTERM
000157: 16,2327           00006                           EXTEND
000158: 16,2330           77735                           MP       -BIT14
000159: 16,2331           27427                           ADS      TRAPEDQ
000160: 16,2332           31745                           CA       JETRATER
000161: 16,2333           61546                           AD       AOSRTERM
000162: 16,2334           00006                           EXTEND
000163: 16,2335           77735                           MP       -BIT14
000164: 16,2336           27430                           ADS      TRAPEDR
000165:
000166: 16,2337           30033                           CA       CDUY
000167: 16,2340           54001                           TS       L
000168: 16,2341           00006                           EXTEND
000169: 16,2342           21437                           MSU      OLDYFORP                              #  SCALED AT PI
000170: 16,2343           23437                           LXCH     OLDYFORP
000171: 16,2344           55736                           TS       DAPTEMP2
000172: 16,2345           00006                           EXTEND
000173: 16,2346           71412                           MP       M11                                   #  M11 SCALED AT 1
000174: 16,2347           61735                           AD       DAPTEMP1
000175: 16,2350           53425                           DXCH     OMEGAU
000176:
000177: 16,2351           02255                           TC       SUBDIVDE   +3                         #  RETURNS WITH CDU-RATE AT PI/4
000178:
000179: 16,2352           00006                           EXTEND


000181: 16,2353           61417                           SU       OMEGAP
000182: 16,2354           27426                           ADS      TRAPEDP
000183: 16,2355           02277                           TC       OVERSUB
000184: 16,2356           55426                           TS       TRAPEDP
000185: 16,2357           00006                           EXTEND
000186: 16,2360           31742                           DCA      DAPTEMP5
000187: 16,2361           21445                           DAS      DXERROR
000188: 16,2362           41452                           CS       PLAST
000189: 16,2363           00006                           EXTEND
000190: 16,2364           73603                           MP       1/40
000191: 16,2365           21445                           DAS      DXERROR                               #  MANUAL MODE X-ATTITUDE ERROR (DP)
000192: 16,2366           30034                           CA       CDUZ
000193: 16,2367           54001                           TS       L
000194: 16,2370           00006                           EXTEND
000195: 16,2371           21440                           MSU      OLDZFORQ
000196: 16,2372           55737                           TS       DAPTEMP3
000197: 16,2373           23440                           LXCH     OLDZFORQ
000198: 16,2374           31413                           CA       M21
000199: 16,2375           00006                           EXTEND
000200: 16,2376           71736                           MP       DAPTEMP2
000201: 16,2377           53425                           DXCH     OMEGAU
000202: 16,2400           31415                           CA       M22
000203: 16,2401           02252                           TC       SUBDIVDE
000204:
000205: 16,2402           00006                           EXTEND
000206: 16,2403           61420                           SU       OMEGAQ
000207: 16,2404           27427                           ADS      TRAPEDQ
000208: 16,2405           02277                           TC       OVERSUB
000209: 16,2406           55427                           TS       TRAPEDQ
000210: 16,2407           00006                           EXTEND
000211: 16,2410           31742                           DCA      DAPTEMP5
000212: 16,2411           21447                           DAS      DYERROR
000213: 16,2412           41453                           CS       QLAST
000214: 16,2413           00006                           EXTEND
000215: 16,2414           73603                           MP       1/40
000216: 16,2415           21447                           DAS      DYERROR                               #  MANUAL MODE Y-ATTITUDE ERROR (DP)
000217: 16,2416           31414                           CA       M31
000218: 16,2417           00006                           EXTEND
000219: 16,2420           71736                           MP       DAPTEMP2
000220: 16,2421           53425                           DXCH     OMEGAU
000221: 16,2422           31416                           CA       M32
000222:
000223: 16,2423           02252                           TC       SUBDIVDE
000224:
000225: 16,2424           00006                           EXTEND
000226: 16,2425           61421                           SU       OMEGAR
000227: 16,2426           27430                           ADS      TRAPEDR
000228: 16,2427           02277                           TC       OVERSUB
000229: 16,2430           55430                           TS       TRAPEDR                               #  TRAPEDS HAVE ALL BEEN COMPUTED


000231: 16,2431           00006                           EXTEND
000232: 16,2432           31742                           DCA      DAPTEMP5
000233: 16,2433           21451                           DAS      DZERROR
000234: 16,2434           41454                           CS       RLAST
000235: 16,2435           00006                           EXTEND
000236: 16,2436           73603                           MP       1/40
000237: 16,2437           21451                           DAS      DZERROR                               #  MANUAL MODE Z-ATTITUDE ERROR (DP)
000238: 16,2440           30111                           CA       DAPBOOLS                              #  PICK UP PAD LOADED STATE ESTIMATOR GAINS
000239: 16,2441           74737                           MASK     CSMDOCKD
000240: 16,2442           00006                           EXTEND
000241: 16,2443           12451                           BZF      LMONLY
000242: 16,2444           00006                           EXTEND                                         #  DOCKED
000243: 16,2445           31405                           DCA      DKOMEGAN
000244: 16,2446           52062                           DXCH     ITEMP1
000245: 16,2447           31403                           CA       DKTRAP
000246: 16,2450           12455                           TCF      +5
000247: 16,2451           00006        LMONLY             EXTEND                                         #  UNDOCKED
000248: 16,2452           31410                           DCA      LMOMEGAN
000249: 16,2453           52062                           DXCH     ITEMP1
000250: 16,2454           31406                           CA       LMTRAP
000251: 16,2455           54063                 +5        TS       ITEMP3
000252:
000253: 16,2456           11426                           CCS      TRAPEDP
000254: 16,2457           12461                           TCF      +2
000255: 16,2460           12476                           TCF      SMALPDIF
000256: 16,2461           60063                           AD       ITEMP3                                #  TRAPSIZE > ABOUT 77001 %-1.4DEG/SEC"
000257: 16,2462           00006                           EXTEND
000258: 16,2463           62476                           BZMF     SMALPDIF
000259: 16,2464           22007                           ZL
000260: 16,2465           23426                           LXCH     TRAPEDP
000261: 16,2466           34755                           CA       ZERO
000262: 16,2467           00006                           EXTEND
000263: 16,2470           11431                           DV       NPTRAPS
000264: 16,2471           27417                           ADS      OMEGAP
000265: 16,2472           02277                           TC       OVERSUB
000266: 16,2473           55417                           TS       OMEGAP
000267: 16,2474           30061                           CA       ITEMP1                                #  ABOUT 10 OR 0 FOR DOCKED OR UNDOCKED
000268: 16,2475           55431                           TS       NPTRAPS
000269: 16,2476           25431        SMALPDIF           INCR     NPTRAPS
000270: 16,2477           31743        P-RATE             CA       JETRATE
000271: 16,2500           27417                           ADS      OMEGAP
000272: 16,2501           02277                           TC       OVERSUB
000273: 16,2502           55417                           TS       OMEGAP
000274:
000275: 16,2503           11427                           CCS      TRAPEDQ
000276: 16,2504           12506                           TCF      +2
000277: 16,2505           12533                           TCF      Q-RATE
000278: 16,2506           60063                           AD       ITEMP3                                #  TRAPSIZE > ABOUT 77001 %-1.4DEG/SEC"
000279: 16,2507           00006                           EXTEND
000280: 16,2510           62533                           BZMF     Q-RATE


000282: 16,2511           22007                           ZL
000283: 16,2512           23427                           LXCH     TRAPEDQ
000284: 16,2513           34755                           CA       ZERO
000285: 16,2514           00006                           EXTEND
000286: 16,2515           11432                           DV       NQTRAPS
000287: 16,2516           55735                           TS       DAPTEMP1                              #  SAVE FOR OFFSET ESTIMATE
000288: 16,2517           27420                           ADS      OMEGAQ
000289: 16,2520           02277                           TC       OVERSUB
000290: 16,2521           55420                           TS       OMEGAQ
000291: 16,2522           30061                           CA       ITEMP1                                #  ABOUT 10 OR 0 FOR DOCKED OR UNDOCKED
000292: 16,2523           57432                           XCH      NQTRAPS
000293: 16,2524           60062                           AD       ITEMP2                                #  KAOS > ABOUT 60D %N/N_60"
000294: 16,2525           57735                           XCH      DAPTEMP1
000295: 16,2526           00006                           EXTEND
000296: 16,2527           74756                           MP       FIVE
000297: 16,2530           00006                           EXTEND
000298: 16,2531           11735                           DV       DAPTEMP1
000299: 16,2532           27537                           ADS      AOSQ
000300: 16,2533           25432        Q-RATE             INCR     NQTRAPS
000301: 16,2534           31744                           CA       JETRATEQ
000302: 16,2535           61545                           AD       AOSQTERM
000303: 16,2536           27420                           ADS      OMEGAQ
000304: 16,2537           02277                           TC       OVERSUB
000305: 16,2540           55420                           TS       OMEGAQ
000306:
000307: 16,2541           11430                           CCS      TRAPEDR
000308: 16,2542           12544                           TCF      +2
000309: 16,2543           12571                           TCF      R-RATE
000310: 16,2544           60063                           AD       ITEMP3                                #  TRAPSIZE > ABOUT 77001 %-1.4DEG/SEC"
000311: 16,2545           00006                           EXTEND
000312: 16,2546           62571                           BZMF     R-RATE
000313: 16,2547           22007                           ZL
000314: 16,2550           23430                           LXCH     TRAPEDR
000315: 16,2551           34755                           CA       ZERO
000316: 16,2552           00006                           EXTEND
000317: 16,2553           11433                           DV       NRTRAPS
000318: 16,2554           55736                           TS       DAPTEMP2                              #  SAVE FOR OFFSET ESTIMATE
000319: 16,2555           27421                           ADS      OMEGAR
000320: 16,2556           02277                           TC       OVERSUB
000321: 16,2557           55421                           TS       OMEGAR
000322: 16,2560           30061                           CA       ITEMP1                                #  ABOUT 10 OR 0 FOR DOCKED OR UNDOCKED
000323: 16,2561           57433                           XCH      NRTRAPS
000324: 16,2562           60062                           AD       ITEMP2                                #  KAOS > ABOUT 60D %N/N_60"
000325: 16,2563           57736                           XCH      DAPTEMP2
000326: 16,2564           00006                           EXTEND
000327: 16,2565           74756                           MP       FIVE
000328: 16,2566           00006                           EXTEND
000329: 16,2567           11736                           DV       DAPTEMP2
000330: 16,2570           27541                           ADS      AOSR
000331: 16,2571           25433        R-RATE             INCR     NRTRAPS


000333: 16,2572           31745                           CA       JETRATER
000334: 16,2573           61546                           AD       AOSRTERM
000335: 16,2574           27421                           ADS      OMEGAR
000336: 16,2575           02277                           TC       OVERSUB
000337: 16,2576           55421                           TS       OMEGAR
000338:
000339:                                                                                                  #  END OF RATE DERIVATION
000340:                                                                                                  #   BEGIN OFFSET ESTIMATER
000341:                                                                                                  #    IN POWERED FLIGHT, AOSTASK WILL BE CALLED EVERY 2 SECONDS.
000342:                                                                                                  #    AOS = AOS + K*SUMRATE
000343:
000344: 16,2577           40111                           CS       DAPBOOLS
000345: 16,2600           74744                           MASK     DRIFTBIT
000346: 16,2601           10000                           CCS      A
000347: 16,2602           12613                           TCF      WORKTIME
000348: 16,2603           55422                           TS       ALPHAQ                                #  ZERO THE OFFSET ACCELERATION VALUES.
000349: 16,2604           55423                           TS       ALPHAR
000350: 16,2605           55545                           TS       AOSQTERM
000351: 16,2606           55546                           TS       AOSRTERM
000352: 16,2607           55537                           TS       AOSQ
000353: 16,2610           55541                           TS       AOSR
000354: 16,2611           12635                           TCF      PAXFILT
000355: 16,2612           00074        KAOS               DEC      60         B-14
000356: 16,2613           31510        WORKTIME           CA       QACCDOT
000357: 16,2614           00006                           EXTEND
000358: 16,2615           74766                           MP       CALLCODE                              #  OCTAL 00032 IS DECIMAL .1 AT 2(6).
000359: 16,2616           21540                           DAS      AOSQ
000360: 16,2617           31537                           CA       AOSQ
000361: 16,2620           55422                           TS       ALPHAQ
000362: 16,2621           00006                           EXTEND
000363: 16,2622           73601                           MP       200MS                                 #  .2 AT 1
000364: 16,2623           55545                           TS       AOSQTERM
000365: 16,2624           31512                           CA       RACCDOT
000366: 16,2625           00006                           EXTEND
000367: 16,2626           74766                           MP       CALLCODE                              #  OCTAL 00032 IS DECIMAL .1 AT 2(6).
000368: 16,2627           21542                           DAS      AOSR
000369: 16,2630           31541                           CA       AOSR
000370: 16,2631           55423                           TS       ALPHAR
000371: 16,2632           00006                           EXTEND
000372: 16,2633           73601                           MP       200MS                                 #  .2 AT 1
000373: 16,2634           55546                           TS       AOSRTERM
000374:
000375: 16,2635           34747        PAXFILT            CA       CALLGMBL                              #  EXECUTE ACDT+C12, IF NEEDED.
000376: 16,2636           71273                           MASK     RCSFLAGS
000377: 16,2637           10000                           CCS      A                                     #  CALLGMBL IS NOT BIT15, SO THIS TEST IS
000378: 16,2640           03721                           TC       ACDT+C12                              #  VALID.


000380: 16,2641           52011                           DXCH     ARUPT
000381: 16,2642           53752                           DXCH     DAPARUPT
000382: 16,2643           32654                           CA       SUPERJOB                              #  SETTING UP THE SUPERJOB
000383: 16,2644           56017                           XCH      BRUPT
000384: 16,2645           22012                           LXCH     QRUPT
000385: 16,2646           53754                           DXCH     DAPBQRPT
000386: 16,2647           32653                           CA       SUPERADR
000387: 16,2650           52016                           DXCH     ZRUPT
000388: 16,2651           53756                           DXCH     DAPZRUPT
000389: 16,2652           15275                           TCF      NOQBRSM    +1                         #  RELINT (JUST IN CASE) AND RESUME, IN THE
000390:                                                                                                  #    FORM OF A JASK, AT SUPERJOB.
000391:
000392: 16,2653           02655        SUPERADR           GENADR   SUPERJOB   +1
000393:
000394:                                                                                                  #  COUNT DOWN GIMBAL DRIVE TIMERS AND TURN OFF DRIVES IF REQUIRED.
000395:
000396: 16,2654           11630        SUPERJOB           CCS      QGIMTIMR                              #  Q-AXIS GIMBAL DRIVE TIMER
000397: 16,2655           12667                           TCF      DECQTIMR                              #    POSITIVE- COUNTING DOWN
000398: 16,2656           12673                           TCF      TURNOFFQ                              #    NEGATIVE- DRIVE SHOULD BE ENDED
000399: 16,2657           11632        CHKRTIMR           CCS      RGIMTIMR                              #    NEGATIVE- INACTIVE
000400: 16,2660           12671                           TCF      DECRTIMR                              #   (NEG ZERO - IMPOSSIBLE)
000401: 16,2661           12703                           TCF      TURNOFFR                              #  REPEATED (ABOVE) FOR R AXIS.
000402:
000403: 16,2662           34740                           CA       BIT12
000404: 16,2663           71273                           MASK     RCSFLAGS
000405: 16,2664           00006                           EXTEND
000406: 16,2665           12713                           BZF      SKIPPAXS
000407: 16,2666           02717                           TC       CHKVISFZ
000408: 16,2667           55630        DECQTIMR           TS       QGIMTIMR                              #  COUNT TIMERS DOWN TO POS ZERO.
000409: 16,2670           12657                           TCF      CHKRTIMR
000410: 16,2671           55632        DECRTIMR           TS       RGIMTIMR
000411: 16,2672           12662                           TCF      CHKRTIMR   +3
000412:
000413: 16,2673           55500        TURNOFFQ           TS       NEGUQ                                 #  HALT DRIVES.
000414: 16,2674           55510                           TS       QACCDOT
000415: 16,2675           45007                           CS       QGIMBITS
000416: 16,2676           00006                           EXTEND
000417: 16,2677           03012                           WAND     CHAN12
000418: 16,2700           34735                           CAF      NEGMAX
000419: 16,2701           55630                           TS       QGIMTIMR
000420: 16,2702           12657                           TCF      CHKRTIMR
000421: 16,2703           55502        TURNOFFR           TS       NEGUR
000422: 16,2704           55512                           TS       RACCDOT
000423: 16,2705           45020                           CS       RGIMBITS
000424: 16,2706           00006                           EXTEND
000425: 16,2707           03012                           WAND     CHAN12
000426: 16,2710           34735                           CAF      NEGMAX
000427: 16,2711           55632                           TS       RGIMTIMR
000428: 16,2712           12662                           TCF      CHKRTIMR   +3
000429: 16,2713     5007               QGIMBITS           EQUALS   OCT1400                               #  BITS 9 AND 10 (OF CHANNEL 12).
000430: 16,2713     5020               RGIMBITS           EQUALS   PRIO6                                 #  BITS 11 AND 12 (OF CHANNEL 12).


000432: 16,2713           41273        SKIPPAXS           CS       RCSFLAGS
000433: 16,2714           74740                           MASK     BIT12
000434: 16,2715           27273                           ADS      RCSFLAGS                              #  BIT 12 SET TO 1.
000435: 16,2716           13607                           TCF      QRAXIS                                #  GO TO QRAXIS OR TO CTS.
000436:
000437:                                                                                                  #  Y-Z TRANSLATION
000438:
000439:                                                                                                  #  INPUT:   BITS 9-12 OF CH31 (FROM TRANSLATION CONTROLER)
000440:
000441:                                                                                                  #  OUTPUT:  NEXTP
000442:
000443:                                                                                                  #    NEXTP IS THE CHANNEL 6 CODE OF JETS FOR THE DESIRED TRANSLATION.
000444:                                                                                                  #    IF THERE ARE FAILURES IN THE DESIRED POLICY, THEN
000445:                                                                                                  #       (1) FOR DIAGONAL TRANS:  UNFAILED PAIR
000446:                                                                                                  #                                ALARM (IF NO PAIR)
000447:                                                                                                  #       (2) FOR PRINCIPAL TRANS: TRY TO TACK WITH DIAGONAL PAIRS
000448:                                                                                                  #                                ALARM (IF DIAGONAL PAIRS ARE FAILED)
000449:
000450: 16,2717           00006        CHKVISFZ           EXTEND
000451: 16,2720           00031                           READ     CHAN31
000452: 16,2721           40000                           CS       A
000453: 16,2722           73576                           MASK     07400OCT
000454: 16,2723           00006                           EXTEND
000455: 16,2724           12773                           BZF      TSNEXTP
000456: 16,2725           00006                           EXTEND
000457: 16,2726           74745                           MP       BIT7
000458: 16,2727           50000                           INDEX    A
000459: 16,2730           33555                           CA       INDXYZ
000460: 16,2731           55742                           TS       ROTINDEX
000461: 16,2732           36241        TRYUORV            CA       SIX
000462: 16,2733           03534                           TC       SELECTYZ
000463: 16,2734           46241                           CS       SIX
000464: 16,2735           61741                           AD       NUMBERT
000465: 16,2736           00006                           EXTEND
000466: 16,2737           12772                           BZF      TSNEXTP    -1
000467: 16,2740           44756                           CS       FIVE
000468: 16,2741           61742                           AD       ROTINDEX
000469: 16,2742           00006                           EXTEND
000470: 16,2743           62761                           BZMF     ALTERYZ
000471: 16,2744           41741                           CS       NUMBERT
000472: 16,2745           64751                           AD       FOUR
000473: 16,2746           00006                           EXTEND
000474: 16,2747           62772                           BZMF     TSNEXTP    -1
000475: 16,2750           05567        ABORTYZ            TC       ALARM
000476: 16,2751           02001                           OCT      02001
000477: 16,2752           34753                           CA       BIT1                                  #  INVERT BIT 1 OF RCSFLAGS.
000478: 16,2753           23273                           LXCH     RCSFLAGS
000479: 16,2754           00006                           EXTEND
000480: 16,2755           06001                           RXOR     1


000482: 16,2756           55273                           TS       RCSFLAGS
000483: 16,2757           34755                           CA       ZERO
000484: 16,2760           12773                           TCF      TSNEXTP
000485: 16,2761           34753        ALTERYZ            CA       BIT1                                  #  INVERT BIT 1 OF RCSFLAGS.
000486: 16,2762           23273                           LXCH     RCSFLAGS
000487: 16,2763           00006                           EXTEND
000488: 16,2764           06001                           RXOR     1
000489: 16,2765           55273                           TS       RCSFLAGS
000490: 16,2766           74753                           MASK     BIT1
000491: 16,2767           64751                           AD       FOUR
000492: 16,2770           27742                           ADS      ROTINDEX
000493: 16,2771           12732                           TCF      TRYUORV
000494: 16,2772           31737                           CA       POLYTEMP
000495: 16,2773           55470        TSNEXTP            TS       NEXTP
000496:
000497:                                                                                                  #  STATE LOGIC
000498:                                                                                                  #    CHECK IN ORDER:             IF ON
000499:                                                                                                  #    LPDPHASE                    GO TO PURGENCY
000500:                                                                                                  #    PULSES                      MINIMUM PULSE LOGIC
000501:                                                                                                  #    DETENT(BIT15 CH31)          RATE COMMAND
000502:                                                                                                  #    GO TO PURGENCY
000503:
000504: 16,2774           34737                           CA       BIT13                                 #  CHECK STICK IF IN ATT. HOLD.
000505: 16,2775           00006                           EXTEND
000506: 16,2776           02031                           RAND     CHAN31
000507: 16,2777           00006                           EXTEND
000508: 16,3000           13006                           BZF      MANMODE
000509:
000510: 16,3001           30111                           CA       DAPBOOLS
000511: 16,3002           74743                           MASK     XOVINHIB
000512: 16,3003           10000                           CCS      A
000513: 16,3004           13442                           TCF      PURGENCY                              #  ATTITUDE STEER DURING VISIBILITY PHASE
000514:
000515: 16,3005           13050                           TCF      DETENTCK
000516: 16,3006           34735        MANMODE            CA       PULSES                                #  PULSES IS ONE FOR PULSE MODE
000517: 16,3007           70111                           MASK     DAPBOOLS
000518: 16,3010           00006                           EXTEND
000519: 16,3011           13050                           BZF      DETENTCK                              #  BRANCH FOR RATE COMMAND
000520:
000521: 16,3012           34755                           CA       ZERO
000522: 16,3013           55462                           TS       PERROR
000523:
000524:                                                                                                  #  MINIMUM IMPULSE MODE
000525:
000526: 16,3014           30032                           CA       CDUX
000527: 16,3015           55633                           TS       CDUXD
000528:
000529: 16,3016           11456                           CCS      OLDPMIN
000530: 16,3017           13033                           TCF      CHECKP
000531:
000532: 16,3020           34751        FIREP              CA       BIT3
000533: 16,3021           00006                           EXTEND


000535: 16,3022           02031                           RAND     CHAN31
000536: 16,3023           00006                           EXTEND
000537: 16,3024           13043                           BZF      +XMIN
000538:
000539: 16,3025           34750                           CA       BIT4
000540: 16,3026           00006                           EXTEND
000541: 16,3027           02031                           RAND     CHAN31
000542: 16,3030           00006                           EXTEND
000543: 16,3031           13041                           BZF      -XMIN
000544:
000545: 16,3032           13421                           TCF      JETSOFF
000546:
000547: 16,3033           00006        CHECKP             EXTEND
000548: 16,3034           00031                           READ     CHAN31
000549: 16,3035           40000                           CS       A
000550: 16,3036           75742                           MASK     OCT14
000551: 16,3037           55456                           TS       OLDPMIN
000552: 16,3040           13421                           TCF      JETSOFF
000553:
000554: 16,3041           44363        -XMIN              CS       TEN                                   #  ANYTHING LESS THAN 14MS.  CORRECTED
000555: 16,3042           13044                           TCF      +2                                    #    IN JET SELECTION ROUTINE
000556: 16,3043           34363        +XMIN              CA       TEN
000557: 16,3044           55524                           TS       TJP
000558: 16,3045           34753                           CA       ONE
000559: 16,3046           55456                           TS       OLDPMIN
000560: 16,3047           13327                           TCF      PJETSLEC   -6
000561:
000562:                                                                                                  #                                        MANUAL RATE COMMAND MODE
000563:                                                                                                  #                                        ========================
000564:                                                                                                  #                                          BY ROBERT F. STENGEL
000565:
000566:                                                                                                  #  THIS MODE PROVIDES RCAH MANUAL CONTROL THRU 2 CONTROL LAWS:                    1) DIRECT RATE AND 2) PSEUDO-AUTO.
000567:                                                                                                  #  THE DIRECT RATE MODE AFFORDS IMMEDIATE CONTROL WITHOUT OVERSHOOT. THE PSEUDO-AUTO MODE PROVIDES PRECISE
000568:                                                                                                  #  RATE CONTROL AND ATTITUDE HOLD.
000569:
000570:                                                                                                  #  IN DIRECT RATE, JETS ARE FIRED WHEN STICK POSITION CHANGES BY A FIXED NUMBER OF INCREMENTS IN ONE DAP CYCLE.
000571:                                                                                                  #  THE 'BREAKOUT LEVEL' IS .6 D/S FOR LM-ONLY AND .3 D/S FOR CSM-DOCKED. THIS LAW NULLS THE RATE ERROR TO WITHIN
000572:                                                                                                  #  THE 'TARGET DEADBAND', WHICH EQUALS THE BREAKOUT LEVEL.
000573:                                                                                                  #  IN PSEUDO-AUTO, BODY-FIXED RATE AND ATTITUDE ERRORS ARE SUPPLIED TO TJETLAW, WHICH EXERCISES CONTROL.
000574:                                                                                                  #  CONTROL SWITCHES FROM DIRECT RATE TO PSEUDO-AUTO IF THE TARGET DB IS ACHIEVED OR IF TIME IN (1) EXCEEDS 4 SEC.
000575:                                                                                                  #  IF THE INITIAL COMMAND DOES NOT EXCEED THE BREAKOUT LEVEL, CONTROL GOES TO PSEUDO-AUTO IMMEDIATELY.
000576:
000577:                                                                                                  #  SINCE P-AXIS CONTROL IS SEPARATE FROM Q,R AXES CONTROL, IT IS POSSIBLE TO USE (1) IN P-AXIS AND (2) IN Q,R AXES,
000578:                                                                                                  #  OR VICE VERSA.  THIS ALLOWS A DEGREE OF ATTITUDE HOLD IN UNCONTROLLED AXES.  DUE TO U,V CONTROL, HOWEVER, Q AND
000579:                                                                                                  #  R AXES ARE COUPLED AND MUST USE THE SAME CONTROL LAW.
000580:
000581:                                                                                                  #  HAND CONTROLLER COMMANDS ARE SCALED BY A LINEAR/QUADRATIC LAW. FOR THE LM-ALONE, MAXIMUM COMMANDED RATES ARE 20
000582:                                                                                                  #  AND 4 D/S IN NORMAL AND FINE SCALING; HOWEVER, STICK SENSITIVITY AT ZERO COUNTS (OBTAINED AT A STICK DEFLECTION
000583:                                                                                                  #  OF 2 DEGREES FROM THE CENTERED POSITION) IS .5 OR .1 D/S PER DEGREE. NORMAL AND FINE SCALINGS FOR THE CSM-DOCKED
000584:                                                                                                  #  CASE IS AUTOMATICALLY SET TO 1/10 THE ABOVE VALUES. SCALING IS DETERMINED IN ROUTINE 3.


000586:                                                                                                  #  ZEROENBL      ENABLES COUNTERS SO THEY CAN BE READ NEXT TIME
000587:                                                                                                  #  JUSTOUT       FIRST DETECTION OF OUT OF DETENT (BY OURRCBIT)
000588:
000589: 16,3050           00006        DETENTCK           EXTEND
000590: 16,3051           00031                           READ     CHAN31
000591: 16,3052           55441                           TS       CH31TEMP
000592: 16,3053           74735                           MASK     BIT15                                 #  CHECK OUT-OF-DETENT BIT.
000593: 16,3054           00006                           EXTEND
000594: 16,3055           13202                           BZF      RHCMOVED                              #  BRANCH IF OUT OF DETENT.
000595: 16,3056           34740                           CAF      OURRCBIT                              #  IN DETENT. CHECK THE RATE COMMAND BIT.
000596: 16,3057           70111                           MASK     DAPBOOLS
000597: 16,3060           00006                           EXTEND
000598: 16,3061           13442                           BZF      PURGENCY                              #  BRANCH IF NOT IN RATE COMMAND LAST PASS.
000599:
000600:                                                                                                  #  ........................................................................
000601:
000602: 16,3062           34743                           CA       BIT9                                  #  JUST IN DETENT??
000603: 16,3063           71273                           MASK     RCSFLAGS
000604: 16,3064           00006                           EXTEND
000605: 16,3065           13077                           BZF      RUTH
000606: 16,3066           34737                           CAF      BIT13                                 #  CHECK FOR ATTITUDE HOLD.
000607: 16,3067           00006                           EXTEND
000608: 16,3070           02031                           RAND     CHAN31
000609: 16,3071           00006                           EXTEND
000610: 16,3072           13177                           BZF      RATEDAMP                              #  BRANCH IF IN ATTITUDE HOLD.
000611:
000612: 16,3073           45014                           CS       BITS9,11                              #  IN AUTO.
000613: 16,3074           71273                           MASK     RCSFLAGS                              #  (X-AXIS OVERRIDE)
000614: 16,3075           55273                           TS       RCSFLAGS                              #  ZERO ORBIT (BIT 11) AND JUST-IN BIT (9).
000615: 16,3076           13177                           TCF      RATEDAMP
000616:
000617: 16,3077           31273        RUTH               CA       RCSFLAGS
000618: 16,3100           74742                           MASK     PBIT                                  #  IN ATTITUDE HOLD.
000619: 16,3101           00006                           EXTEND
000620: 16,3102           13104                           BZF      +2                                    #  BRANCH IF P-RATE DAMPING IS FINISHED.
000621: 16,3103           13177                           TCF      RATEDAMP
000622: 16,3104           31273                           CA       RCSFLAGS
000623: 16,3105           74741                           MASK     QRBIT
000624: 16,3106           00006                           EXTEND
000625: 16,3107           13115                           BZF      RATEDONE                              #  BRANCH IF Q,R RATE DAMPING IS FINISHED.
000626: 16,3110           13177                           TCF      RATEDAMP
000627:
000628:                                                                                                  #  ============================================
000629:
000630: 16,3111           00001        1/10SEC            OCT      1
000631: 16,3112           00050        40CYC              OCT      50
000632: 16,3113           74777        PQRBIT             OCT      74777
000633: 16,3114     5014               BITS9,11           EQUALS   EBANK5
000634: 16,3114           00056        LINRATP            DEC      46         B-14
000635:
000636:                                                                                                  #  ============================================
000637:
000638: 16,3115           44740        RATEDONE           CS       OURRCBIT                              #  MANUAL COMMAND AND DAMPING COMPLETED IN
000639: 16,3116           00004                           INHINT                                         #  ALL AXES.
000640: 16,3117           70111                           MASK     DAPBOOLS


000642: 16,3120           54111                           TS       DAPBOOLS
000643:
000644:                                                                                                  #  READ CDUS INTO CDU DESIRED REGISTERS
000645:
000646: 16,3121           34737                           CAF      BIT13
000647: 16,3122           00006                           EXTEND
000648: 16,3123           02031                           RAND     CHAN31
000649: 16,3124           00006                           EXTEND
000650: 16,3125           13131                           BZF      +4
000651: 16,3126           30032                           CA       CDUX                                  #  (X-AXIS OVERRIDE)
000652: 16,3127           55633                           TS       CDUXD
000653: 16,3130           03133                           TC       +3
000654: 16,3131           04674                           TC       IBNKCALL
000655: 16,3132           40153                           FCADR    ZATTEROR
000656: 16,3133           00003                           RELINT
000657: 16,3134           13442                           TCF      PURGENCY
000658:
000659: 16,3135           55462                           TS       PERROR
000660: 16,3136           34740        JUSTOUT            CA       OURRCBIT                              #  INITIALIZATION - FIRST MANUAL PASS.
000661: 16,3137           26111                           ADS      DAPBOOLS
000662: 16,3140           34755                           CA       ZERO
000663: 16,3141           55444                           TS       DXERROR
000664: 16,3142           55445                           TS       DXERROR    +1
000665: 16,3143           55446                           TS       DYERROR
000666: 16,3144           55447                           TS       DYERROR    +1
000667: 16,3145           55450                           TS       DZERROR
000668: 16,3146           55451                           TS       DZERROR    +1
000669: 16,3147           55452                           TS       PLAST
000670: 16,3150           55453                           TS       QLAST
000671: 16,3151           55454                           TS       RLAST
000672: 16,3152           54042                           TS       Q-RHCCTR
000673: 16,3153           54044                           TS       R-RHCCTR
000674: 16,3154           33113                           CA       PQRBIT
000675: 16,3155           71273                           MASK     RCSFLAGS
000676: 16,3156           55273                           TS       RCSFLAGS                              #  BITS 10 AND 11 OF RCSFLAGS ARE 0.
000677: 16,3157           41273                           CS       RCSFLAGS                              #  SET 'JUST-IN' BIT TO 1.
000678: 16,3160           74743                           MASK     BIT9
000679: 16,3161           27273                           ADS      RCSFLAGS
000680: 16,3162           03164                           TC       ZEROENBL
000681: 16,3163           13421                           TCF      JETSOFF
000682: 16,3164           22044        ZEROENBL           LXCH     R-RHCCTR
000683: 16,3165           30042                           CA       Q-RHCCTR
000684: 16,3166           53461                           DXCH     SAVEHAND
000685: 16,3167           34755                           CA       ZERO
000686: 16,3170           54043                           TS       P-RHCCTR
000687: 16,3171           54042                           TS       Q-RHCCTR
000688: 16,3172           54044                           TS       R-RHCCTR
000689: 16,3173           33602                           CA       BITS8,9
000690: 16,3174           00006                           EXTEND
000691: 16,3175           05013                           WOR      CHAN13                                #  COUNTERS ZEROED AND ENABLED


000693: 16,3176           00002                           TC       Q
000694: 16,3177           34755        RATEDAMP           CA       ZERO
000695: 16,3200           54043                           TS       P-RHCCTR
000696: 16,3201           13206                           TCF      RATERROR
000697:
000698: 16,3202           34740        RHCMOVED           CA       OURRCBIT                              #  P CONTROL
000699: 16,3203           70111                           MASK     DAPBOOLS
000700: 16,3204           00006                           EXTEND
000701: 16,3205           13135                           BZF      JUSTOUT    -1
000702: 16,3206           30032        RATERROR           CA       CDUX                                  #  FINDCDUW REQUIRES THAT CDUXD=CDUX DURING
000703: 16,3207           55633                           TS       CDUXD                                 #  X-AXIS OVERRIDE
000704: 16,3210           10043                           CCS      P-RHCCTR
000705: 16,3211           13214                           TCF      +3
000706: 16,3212           13214                           TCF      +2
000707: 16,3213           13214                           TCF      +1
000708: 16,3214           60000                           DOUBLE                                         #  LINEAR/QUADRATIC CONTROLLER SCALING
000709: 16,3215           60000                           DOUBLE                                         #  (SEE EXPLANATION IN Q,R-AXES RCS
000710: 16,3216           63114                           AD       LINRATP                               #   AUTOPILOT)
000711: 16,3217           00006                           EXTEND
000712: 16,3220           70043                           MP       P-RHCCTR
000713: 16,3221           30001                           CA       L
000714: 16,3222           00006                           EXTEND
000715: 16,3223           71442                           MP       STIKSENS
000716: 16,3224           57452                           XCH      PLAST
000717: 16,3225           40000                           COM
000718: 16,3226           61452                           AD       PLAST
000719: 16,3227           55735                           TS       DAPTEMP1
000720: 16,3230           03164                           TC       ZEROENBL                              #  INTERVAL.  ZERO AND ENABLE ACA COUNTERS.
000721: 16,3231           41452                           CS       PLAST
000722: 16,3232           61417                           AD       OMEGAP
000723: 16,3233           55425                           TS       EDOTP
000724: 16,3234           11735                           CCS      DAPTEMP1                              #  IF P COMMAND CHANGE EXCEEDS BREAKOUT
000725: 16,3235           13240                           TCF      +3                                    #  LEVEL, GO TO DIRECT RATE CONTROL. IF NOT
000726: 16,3236           13246                           TCF      +8                                    #  CHECK FOR DIRECT RATE CONTROL LAST TIME.
000727: 16,3237           13240                           TCF      +1
000728: 16,3240           61474                           AD       -RATEDB
000729: 16,3241           00006                           EXTEND
000730: 16,3242           63246                           BZMF     +4
000731: 16,3243           33112                           CA       40CYC
000732: 16,3244           55443                           TS       TCP
000733: 16,3245           03257                           TC       PEGI
000734: 16,3246           31273                           CA       RCSFLAGS                              #  CHECK FOR DIRECT RATE COMMAND LAST TIME.
000735: 16,3247           74742                           MASK     PBIT
000736: 16,3250           00006                           EXTEND
000737: 16,3251           13253                           BZF      +2
000738: 16,3252           03257                           TC       PEGI                                  #  TO PURE RATE COMMAND
000739: 16,3253           31444                           CA       DXERROR                               #  PSEUDO-AUTO CONTROL.
000740: 16,3254           55750                           TS       E                                     #  X-ATTITUDE ERROR (SP)
000741: 16,3255           55462                           TS       PERROR                                #  LOAD P-AXIS ERROR FOR MODE1 FDAI DISPLAY
000742: 16,3256           03446                           TC       PURGENCY   +4


000744: 16,3257           30032        PEGI               CA       CDUX                                  #  DIRECT RATE CONTROL.
000745: 16,3260           55633                           TS       CDUXD
000746: 16,3261           34755                           CA       ZERO
000747: 16,3262           55444                           TS       DXERROR
000748: 16,3263           55445                           TS       DXERROR    +1
000749: 16,3264           55462                           TS       PERROR                                #  ZERO P-AXIS ERROR FOR MODE1 FDAI DISPLAY
000750: 16,3265           11425                           CCS      EDOTP
000751: 16,3266           03271                           TC       +3
000752: 16,3267           03271                           TC       +2
000753: 16,3270           03271                           TC       +1
000754: 16,3271           55735                           TS       ABSEDOTP
000755: 16,3272           61474                           AD       TARGETDB
000756: 16,3273           00006                           EXTEND                                         #  IF RATE ERROR IS LESS THAN DEADBAND,
000757: 16,3274           63304                           BZMF     LAST                                  #  FIRE, AND SWITCH TO PSEUDO-AUTO.
000758: 16,3275           31443                           CA       TCP
000759: 16,3276           00006                           EXTEND                                         #  IF TIME IN RATE COMMAND EXCEEDS 4 SEC..
000760: 16,3277           63304                           BZMF     LAST
000761: 16,3300           41273                           CS       RCSFLAGS
000762: 16,3301           74742                           MASK     PBIT
000763: 16,3302           27273                           ADS      RCSFLAGS                              #  BIT 10 IS 1.
000764: 16,3303           13307                           TCF      +4
000765: 16,3304           44742        LAST               CS       PBIT
000766: 16,3305           71273                           MASK     RCSFLAGS
000767: 16,3306           55273                           TS       RCSFLAGS                              #  BIT 10 IS 0.
000768: 16,3307           41425                           CS       EDOTP
000769: 16,3310           00006                           EXTEND
000770: 16,3311           71551                           MP       1/ANETP                               #  1/2JTACC SCALED AT 2EXP(7)/PI
000771: 16,3312           20001                           DAS      A
000772: 16,3313           02277                           TC       OVERSUB
000773: 16,3314           00006                           EXTEND
000774: 16,3315           77715                           MP       25/32                                 #  A CONTAINS TJET SCALED AT 2EXP(4)(16/25)
000775: 16,3316           55524                           TS       TJP                                   #  4.JET TIME
000776: 16,3317           31735                           CA       ABSEDOTP
000777: 16,3320           61473                           AD       -2JETLIM                              #  COMPARING DELTA RATE WITH 2 JET LIMIT
000778: 16,3321           00006                           EXTEND
000779: 16,3322           63325                           BZMF     +3
000780:
000781: 16,3323           36241                           CA       SIX
000782: 16,3324           13334                           TCF      +8D
000783: 16,3325           31524                           CA       TJP
000784: 16,3326           27524                           ADS      TJP
000785:
000786:                                                                                                  #  GOES TO PJETSLEC FOR TWO JETS
000787:
000788:                                                                                                  #  P-JET-SELECTION-ROUTINE (ROTATION)
000789:
000790:                                                                                                  #  INPUT:        NUMBERT         4,5,6 FOR WHICH PAIR OR 4 JETS
000791:                                                                                                  #                TJP             + FOR +P ROTATION
000792:
000793:                                                                                                  #  OUTPUT:       CHANNEL 6
000794:                                                                                                  #                PJUMPADR        FOR P-AXIS SKIP


000796:                                                                                                  #                (JTLST CALL)    (SMALL TJP)
000797:
000798:                                                                                                  #  ORDER OF POLICIES TRIED IN CASE OF FAILURE.
000799:                                                                                                  #        +P      -P
000800:                                                                                                  #        7,15    8,16
000801:                                                                                                  #        4,12    3,11
000802:                                                                                                  #        4,7     8,11
000803:                                                                                                  #        7,12    11,16
000804:                                                                                                  #        12,15   3,16
000805:                                                                                                  #        4,15    3,8
000806:                                                                                                  #        ALARM   ALARM
000807:
000808: 16,3327           34747                           CA       AORBSYST
000809: 16,3330           70111                           MASK     DAPBOOLS
000810: 16,3331           10000                           CCS      A
000811: 16,3332           34753                           CA       ONE
000812: 16,3333           64751                           AD       FOUR
000813: 16,3334           55741                           TS       NUMBERT
000814: 16,3335           34753        PJETSLEC           CA       ONE
000815: 16,3336           54001                           TS       L
000816: 16,3337           11524                           CCS      TJP
000817: 16,3340           13345                           TCF      +5
000818: 16,3341           13421                           TCF      JETSOFF
000819: 16,3342           13344                           TCF      +2
000820: 16,3343           13421                           TCF      JETSOFF
000821: 16,3344           22007                           ZL
000822: 16,3345           64753                           AD       ONE
000823: 16,3346           55735                           TS       ABSTJ
000824: 16,3347           23742                           LXCH     ROTINDEX
000825: 16,3350           03514                           TC       SELECTP
000826: 16,3351           46241                           CS       SIX
000827: 16,3352           61741                           AD       NUMBERT
000828: 16,3353           00006                           EXTEND
000829: 16,3354           13356                           BZF      +2
000830:
000831: 16,3355           44752                           CS       TWO
000832: 16,3356           64751                           AD       FOUR
000833: 16,3357           55521                           TS       NO.PJETS
000834: 16,3360           31737                           CA       POLYTEMP
000835: 16,3361           05745                           TC       WRITEP
000836: 16,3362           41735                           CS       ABSTJ
000837: 16,3363           63575                           AD       +150MST6
000838: 16,3364           00006                           EXTEND
000839: 16,3365           63607                           BZMF     QRAXIS                                #  GO TO QRAXIS OR TO GTS.
000840:
000841: 16,3366           63555                           AD       -136MST6
000842: 16,3367           00006                           EXTEND
000843: 16,3370           63375                           BZMF     +5
000844:
000845: 16,3371           27735                           ADS      ABSTJ
000846: 16,3372           51742                           INDEX    ROTINDEX


000848: 16,3373           33604                           CA       MINTIMES
000849: 16,3374           55524                           TS       TJP
000850:
000851: 16,3375           31735                           CA       ABSTJ
000852: 16,3376           22007                           ZL
000853: 16,3377           00004                           INHINT
000854: 16,3400           53467                           DXCH     T6FURTHA
000855: 16,3401           04674                           TC       IBNKCALL
000856: 16,3402           37046                           CADR     JTLST
000857: 16,3403           44740                           CS       BIT12
000858: 16,3404           71273                           MASK     RCSFLAGS
000859: 16,3405           55273                           TS       RCSFLAGS                              #  BIT 12 SET TO 0.
000860: 16,3406           03410                           TC       ALTSYST
000861: 16,3407           13607                           TCF      QRAXIS
000862:
000863: 16,3410           30111        ALTSYST            CA       DAPBOOLS                              #  ALTERNATE P-AXIS JETS
000864: 16,3411           54001                           TS       L
000865: 16,3412           34747                           CA       AORBSYST
000866: 16,3413           00006                           EXTEND
000867: 16,3414           06001                           RXOR     LCHAN
000868: 16,3415           54111                           TS       DAPBOOLS
000869: 16,3416           00003                           RELINT
000870: 16,3417           00002                           TC       Q
000871:
000872: 16,3420           03410        DKALT              TC       ALTSYST
000873:
000874: 16,3421           05744        JETSOFF            TC       WRITEP     -1
000875: 16,3422           34755                           CA       ZERO
000876: 16,3423           55524                           TS       TJP
000877: 16,3424           13607                           TCF      QRAXIS
000878:
000879:                                                                                                  #  (NOTE -- M13 = 1 IDENTICALLY IMPLIES NULL MULTIPLICATION.)
000880:
000881: 16,3425           30033        CALCPERR           CA       CDUY                                  #  P-ERROR CALCULATION.
000882: 16,3426           00006                           EXTEND
000883: 16,3427           21634                           MSU      CDUYD                                 #  CDU VALUE - ANGLE DESIRED (Y-AXIS)
000884: 16,3430           00006                           EXTEND
000885: 16,3431           71412                           MP       M11                                   #  (CDUY-CDUYD)M11 SCALED AT PI RADIANS
000886: 16,3432           57750                           XCH      E                                     #  SAVE FIRST TERM (OF TWO)
000887: 16,3433           30032                           CA       CDUX                                  #  THIRD COMPONENT
000888: 16,3434           00006                           EXTEND
000889: 16,3435           21633                           MSU      CDUXD                                 #  CDU VALUE - ANGLE DESIRED (X-AXIS)
000890:                                                                                                  #                EXTEND
000891:                                                                                                  #                MP      M13
000892: 16,3436           61277                           AD       DELPEROR                              #  KALCMANU INERFACE ERROR
000893: 16,3437           27750                           ADS      E                                     #  SAVE SUM OF TERMS.  COULD BE OVERFLOW.
000894: 16,3440           57462                           XCH      PERROR                                #  SAVE P-ERROR FOR EIGHT-BALL DISPLAY.
000895: 16,3441           00002                           TC       Q                                     #  RETURN TO CALLER
000896:
000897:                                                                                                  #  P-AXIS URGENCY FUNCTION CALCULATION.


000899: 16,3442           03425        PURGENCY           TC       CALCPERR                              #  CALCULATE P-AXIS ERRORS.
000900: 16,3443           41641                           CS       OMEGAPD                               #  THIS CODING IS COMMON TO BOTH LM DAP AND
000901: 16,3444           61417                           AD       OMEGAP                                #  SPS-BACKUP MODE.
000902: 16,3445           55425                           TS       EDOTP                                 #  EDOTP = OMEGAP - OMEGAPD AT PI/4 RAD/SEC
000903:
000904: 16,3446           44753                           CS       ONE
000905: 16,3447           55476                           TS       AXISCTR
000906: 16,3450           30111                           CA       DAPBOOLS
000907: 16,3451           74737                           MASK     CSMDOCKD
000908: 16,3452           00006                           EXTEND
000909: 16,3453           13470                           BZF      HEADTJET
000910: 16,3454           00004                           INHINT                                         #  IF CSMDOCKD = 1, GO TO DOCKED RCS LOGIC
000911: 16,3455           04674                           TC       IBNKCALL
000912: 16,3456           37700                           CADR     SPSRCS
000913:
000914: 16,3457           31524                           CA       TJP
000915: 16,3460           00006                           EXTEND
000916: 16,3461           13420                           BZF      DKALT                                 #  IF TJP = ZERO, CHANGE AORBSYST.
000917: 16,3462           00003                           RELINT
000918: 16,3463           41741                           CS       NUMBERT
000919: 16,3464           66241                           AD       SIX
000920: 16,3465           00006                           EXTEND                                         #  IF NUMBERT = 6 BYPASS AORBSYST CHECK
000921: 16,3466           13335                           BZF      PJETSLEC                              #     AND USE FOUR JETS,  OTHERWISE,
000922: 16,3467           13327                           TCF      PJETSLEC   -6                         #     SELECT AORBSYST AND USE TWO JETS
000923: 16,3470           34755        HEADTJET           CA       ZERO
000924: 16,3471           55477                           TS       SENSETYP
000925: 16,3472           00004                           INHINT
000926: 16,3473           04674                           TC       IBNKCALL
000927: 16,3474           37207                           CADR     TJETLAW
000928: 16,3475           00003                           RELINT
000929:
000930: 16,3476           41737                           CS       FIREFCT
000931: 16,3477           63513                           AD       -FOURDEG
000932: 16,3500           00006                           EXTEND
000933: 16,3501           63327                           BZMF     PJETSLEC   -6
000934: 16,3502           11524                           CCS      TJP
000935: 16,3503           13505                           TCF      +2
000936: 16,3504           13421                           TCF      JETSOFF
000937: 16,3505           63512                           AD       -160MST6
000938: 16,3506           00006                           EXTEND
000939: 16,3507           63327                           BZMF     PJETSLEC   -6
000940: 16,3510           36241                           CA       SIX
000941: 16,3511           13334                           TCF      PJETSLEC   -1
000942: 16,3512           77377        -160MST6           DEC      -256       B-14
000943: 16,3513           75117        -FOURDEG           DEC      -.08888
000944:


000946:                                                                                                  #  JET POLICY CONSTRUCTION SUBROUTINE
000947:
000948:                                                                                                  #  INPUT:        ROTINDEX, NUMBERT
000949:
000950:                                                                                                  #  OUTPUT:       POLYTEMP (JET POLICY)
000951:
000952:                                                                                                  #  THIS SUBROUTINE SELECT A SUBSET OF THE DESIRED JETS WHICH HAS NO FAILURE
000953:
000954: 16,3514           36241        SELECTP            CA       SIX
000955: 16,3515           55740                           TS       TEMPNUM
000956: 16,3516           51741                           INDEX    NUMBERT
000957: 16,3517           33546                           CA       TYPEP
000958: 16,3520           51742                           INDEX    ROTINDEX
000959: 16,3521           73537                           MASK     JETSALL
000960: 16,3522           55737                           TS       POLYTEMP
000961: 16,3523           71263                           MASK     CH6MASK
000962: 16,3524           10000                           CCS      A
000963: 16,3525           13527                           TCF      +2
000964: 16,3526           00002                           TC       Q
000965: 16,3527           11740                           CCS      TEMPNUM
000966: 16,3530           13534                           TCF      +4
000967: 16,3531           05567                           TC       ALARM
000968: 16,3532           02003                           OCT      02003
000969: 16,3533           13421                           TCF      JETSOFF                               #  *****TCF ALARMJET *********************
000970: 16,3534           55741        SELECTYZ           TS       NUMBERT
000971: 16,3535           13515                           TCF      SELECTP    +1
000972: 16,3536           12752        -1                 TCF      ABORTYZ    +2
000973: 16,3537           00252        JETSALL            OCT      00252
000974: 16,3540           00125                           OCT      00125                                 #  +P
000975: 16,3541           00140                           OCT      00140                                 #  -Y
000976: 16,3542           00006                           OCT      00006                                 #  -Z
000977: 16,3543           00220                           OCT      00220                                 #  +Y
000978: 16,3544           00011                           OCT      00011                                 #  +Z
000979: 16,3545           00151                           OCT      00151                                 #  +V
000980: 16,3546           00146        TYPEP              OCT      00146                                 #  -U
000981: 16,3547           00226                           OCT      00226                                 #  -V
000982: 16,3550           00231                           OCT      00231                                 #  +U
000983: 16,3551           00151                           OCT      00151                                 #  +V
000984: 16,3552           00132                           OCT      00132                                 #  1-3
000985: 16,3553           00245                           OCT      00245                                 #  2-4
000986: 16,3554           00377                           OCT      00377                                 #  ALL
000987: 16,3555  16,3555               INDXYZ             =        -136MST6
000988: 16,3555           77445        -136MST6           DEC      -218       B-14
000989: 16,3556           00004                           DEC      4          B-14
000990: 16,3557           00002                           DEC      2          B-14
000991: 16,3560           07776                           OCT      07776
000992: 16,3561           00005                           DEC      5          B-14
000993: 16,3562           00011                           DEC      9          B-14
000994: 16,3563           00012                           DEC      10         B-14
000995: 16,3564           07776                           OCT      07776
000996: 16,3565           00003                           DEC      3          B-14


000998: 16,3566           00010                           DEC      8          B-14
000999: 16,3567           00007                           DEC      7          B-14
001000: 16,3570           07776                           OCT      07776                                 #  THESE INDEXES OF MASK JETSALL WILL
001001: 16,3571           07776                           OCT      07776                                 #  CHANGE THE INSTRUCTION AT SELECTP +4
001002: 16,3572           07776                           OCT      07776                                 #  TO BE    TC  JETSALL -1
001003: 16,3573           07776                           OCT      07776                                 #  ONLY USED FOR TRANSLATION FAILURE
001004: 16,3574           07776                           OCT      07776
001005: 16,3575           00360        +150MST6           DEC      240        B-14
001006: 16,3576           07400        07400OCT           OCT      07400
001007:
001008:                                                                                                  #  T-JET LAW FIXED CONSTANTS
001009:
001010: 16,3577           00266        NORMSCL            OCT      266
001011: 16,3600           74631        -100MS             DEC      -.1
001012: 16,3601           06315        200MS              DEC      .2
001013: 16,3602     7715               25/32              =        PRIO31                                #  (DEC .78125)
001014: 16,3602           00600        BITS8,9            OCTAL    00600
001015: 16,3603           00632        1/40               DEC      .02500
001016: 16,3604           77751        MINTIMES           DEC      -22        B-14
001017: 16,3605           00026                           DEC      22         B-14
001018: 16,3606           02713        PSKIPADR           GENADR   SKIPPAXS
001019:
001020:                                                                                                  #  GOES TO Q,R-AXES RCS AUTOPILOT
001021: 16,3607           41643        QRAXIS             CS       OMEGARD
001022: 16,3610           61421                           AD       OMEGAR
001023: 16,3611           02277                           TC       OVERSUB
001024: 16,3612           55435                           TS       EDOTR
001025: 16,3613           41642                           CS       OMEGAQD
001026: 16,3614           61420                           AD       OMEGAQ
001027: 16,3615           02277                           TC       OVERSUB
001028: 16,3616           55434                           TS       EDOTQ
001029: 16,3617           00006                           EXTEND
001030: 16,3620           33623                           DCA      QERRCALL
001031: 16,3621           52006                           DTCB
001032:
001033: 16,3622  E6,1537                                  EBANK=   AOSQ
001034: 16,3622           02043 36106  QERRCALL           2CADR    CALLQERR

End of include-file P-AXIS_RCS_AUTOPILOT.agc.  Parent file is MAIN.agc


