
Source Code


000002:                                                                                                  ## Copyright:   Public domain.
000003:                                                                                                  ## Filename:    P12.agc
000004:                                                                                                  ## Purpose:     The main source file for Luminary revision 069.
000005:                                                                                                  ##              It is part of the source code for the original release
000006:                                                                                                  ##              of the flight software for the Lunar Module's (LM) Apollo
000007:                                                                                                  ##              Guidance Computer (AGC) for Apollo 10. The actual flown
000008:                                                                                                  ##              version was Luminary 69 revision 2, which included a
000009:                                                                                                  ##              newer lunar gravity model and only affected module 2.
000010:                                                                                                  ##              This file is intended to be a faithful transcription, except
000011:                                                                                                  ##              that the code format has been changed to conform to the
000012:                                                                                                  ##              requirements of the yaYUL assembler rather than the
000013:                                                                                                  ##              original YUL assembler.
000014:                                                                                                  ## Reference:   pp. 839-843
000015:                                                                                                  ## Assembler:   yaYUL
000016:                                                                                                  ## Contact:     Ron Burkey <info@sandroid.org>.
000017:                                                                                                  ## Website:     www.ibiblio.org/apollo/index.html
000018:                                                                                                  ## Mod history: 2016-12-13 MAS  Created from Luminary 99.
000019:                                                                                                  ##              2016-12-18 MAS  Updated from comment-proofed Luminary 99 version.
000020:                                                                                                  ##              2017-01-06 RRB  Updated for Luminary 69.
000021:                                                                                                  ##              2017-01-07 HG   Fix interpretive operation STORE -> STODL
000022:                                                                                                  ##                                               operand   FLP1 -> FLPI
000023:                                                                                                  ##              2017-01-23 HG   Fix interpretive operation STOVL -> STODL
000024:                                                                                                  ##              2017-01-28 RSB  Proofed comment text using octopus/prooferComments
000025:                                                                                                  ##                              and fixed errors found.
000026:


000028: 24,3504                                           BANK     24
000029: 30,2000                                           SETLOC   P12
000030: 30,2000                                           BANK
000031:
000032: 30,2006  E7,1513                                  EBANK=   DVCNTR
000033: 30,2006                                           COUNT*   $$/P12
000034:
000035: 30,2006           05353        P12LM              TC       PHASCHNG
000036: 30,2007           04024                           OCT      04024
000037:
000038: 30,2010           04616                           TC       BANKCALL
000039: 30,2011           11175                           CADR     R02BOTH                               #  CHECK THE STATUS OF THE IMU.
000040:
000041: 30,2012           05504                           TC       UPFLAG
000042: 30,2013           00141                           ADRES    MUNFLAG
000043:
000044: 30,2014           05504                           TC       UPFLAG                                #  INSURE 4-JET TRANSLATION CAPABILITY.
000045: 30,2015           00307                           ADRES    ACC4-2FL
000046:
000047: 30,2016           05504                           TC       UPFLAG                                #  PREVENT R10 FROM ISSUING CROSS-POINTER
000048: 30,2017           00015                           ADRES    R10FLAG                               #  OUTPUTS.
000049:
000050: 30,2020           05516                           TC       DOWNFLAG                              #  CLEAR RENDEZVOUS FLAG  FOR P22
000051: 30,2021           00010                           ADRES    RNDVZFLG
000052:
000053: 30,2022           36000                           CAF      THRESH2                               #  INITIALIZE DVMON
000054: 30,2023           55251                           TS       DVTHRUSH
000055: 30,2024           34751                           CAF      FOUR
000056: 30,2025           55513                           TS       DVCNTR
000057:
000058: 30,2026           34755                           CA       ZERO
000059: 30,2027           55460                           TS       TRKMKCNT                              #  SHOW THAT R29 DOWNLINK DATA ISN'T READY.
000060: 30,2030           33044                           CAF      V06N33A
000061: 30,2031           04616                           TC       BANKCALL                              #  FLASH TIG
000062: 30,2032           20351                           CADR     GOFLASH
000063: 30,2033           16001                           TCF      GOTOPOOH
000064: 30,2034           12036                           TCF      +2                                    #  PROCEED
000065: 30,2035           12030                           TCF      -5                                    #  ENTER
000066:
000067: 30,2036           05353                           TC       PHASCHNG
000068: 30,2037           04024                           OCT      04024
000069:
000070: 30,2040           06036                           TC       INTPRET
000071: 30,2041           77624                           CALL                                           #  INITIALIZE WM AND /LAND/
000072: 30,2042           60264                                    GUIDINIT
000073: 30,2043           45014                           SET      CALL
000074: 30,2044           04464                                    FLPI
000075: 30,2045           60204                                    P12INIT
000076:
000077: 30,2046           77745        P12LMB             DLOAD
000078: 30,2047           25604                                    (TGO)A                                #  SET TGO TO AN INITIAL NOMINAL VALUE.


000080: 30,2050           17515                           STODL    TGO
000081: 30,2051           03440                                    TIG
000082: 30,2052           34041                           STCALL   TDEC1
000083: 30,2053           27057                                    LEMPREC                               #  ROTATE THE STATE VECTORS TO THE
000084: 30,2054           64375                           VLOAD    MXV                                   #  IGNITION TIME.
000085: 30,2055           00007                                    VATT
000086: 30,2056           01734                                    REFSMMAT
000087: 30,2057           77772                           VSL1
000088: 30,2060           27577                           STOVL    V1S                                   #  COMPUTE V1S = VEL(TIG)*2(-7) M/CS.
000089: 30,2061           00001                                    RATT
000090: 30,2062           52521                           MXV      VSL6
000091: 30,2063           01734                                    REFSMMAT
000092: 30,2064           37517                           STCALL   R                                     #  COMPUTE R = POS(TIG)*2(-24) M.
000093: 30,2065           67162                                    MUNGRAV                               #  COMPUTE GDT1/2(TIG)*2(-7)M/CS.
000094: 30,2066           53575                           VLOAD    UNIT
000095: 30,2067           03517                                    R
000096: 30,2070           37535                           STCALL   UNIT/R/                               #  COMPUTE UNIT/R/ FOR YCOMP.
000097: 30,2071           57316                                    YCOMP
000098: 30,2072           57461                           SR       DCOMP
000099: 30,2073           20606                                    5D
000100: 30,2074           17641                           STODL    XRANGE                                #  INITIALIZE XRANGE FOR NOUN 76.
000101: 30,2075           20312                                    (APO)
000102: 30,2076           03643                           STORE    APO                                   #  INITIALIZE APO FOR NOUN 76.
000103: 30,2077           77776                           EXIT
000104:
000105: 30,2100           05353                           TC       PHASCHNG
000106: 30,2101           04024                           OCT      04024
000107:
000108: 30,2102           33043        NEWLOAD            CAF      V06N76                                #  FLASH CROSS-RANGE AND APOLUNE VALUES.
000109: 30,2103           04616                           TC       BANKCALL
000110: 30,2104           20351                           CADR     GOFLASH
000111: 30,2105           16001                           TCF      GOTOPOOH
000112: 30,2106           12110                           TCF      +2                                    #  PROCEED
000113: 30,2107           12102                           TCF      NEWLOAD                               #  ENTER NEW DATA.
000114:
000115: 30,2110           32306                           CAF      P12ADRES
000116: 30,2111           55453                           TS       WHICH
000117:
000118: 30,2112           05353                           TC       PHASCHNG
000119: 30,2113           04024                           OCT      04024
000120:
000121: 30,2114           06036                           TC       INTPRET
000122: 30,2115           54345                           DLOAD    SL
000123: 30,2116           03641                                    XRANGE
000124: 30,2117           20206                                    5D
000125: 30,2120           77615                           DAD
000126: 30,2121           02341                                    Y
000127: 30,2122           17631                           STODL    YCO
000128: 30,2123           03643                                    APO                                   #  RA = APO + /LAND/
000129: 30,2124           77661                           SL


000131: 30,2125           20206                                    5D
000132: 30,2126           41415                           DAD      PUSH                                  #  RA*2(-24) IN MPAC AND PDL
000133: 30,2127           02337                                    /LAND/
000134: 30,2130           65205                           DMP      PDDL                                  #  2 RA MU*2(-62) IN PDL, LOAD RA
000135: 30,2131           20003                                    MUM(-37)
000136: 30,2132           41215                           DAD      DMP                                   #  (RA+RP)*2(-24)
000137: 30,2133           03627                                    RCO                                   #  RP(RA+RP)*2(-48)
000138: 30,2134           03627                                    RCO
000139: 30,2135           75465                           BDDV     SQRT                                  #  2 MU RA/RP(RA+RP)*2(-14)=ZDOTD(2)
000140: 30,2136           77626                           STADR
000141: 30,2137           51504                           STOVL    ZDOTD
000142: 30,2140           03535                                    UNIT/R/
000143: 30,2141           53361                           VXSC     VAD
000144: 30,2142           20310                                    49FPS
000145: 30,2143           03577                                    V1S
000146: 30,2144           03525                           STORE    V                                     #  V(TIPOVER) = V(IGN) + 57FPS (UNIT/R/)
000147: 30,2145           77614                           SETGO
000148: 30,2146           04421                                    FLVR
000149: 30,2147           60313                                    ASCENT
000150: 30,2150           77745        P12RET             DLOAD
000151: 30,2151           02365                                    ATP                                   #  ATP(2)*2(18)
000152: 30,2152           65316                           DSQ      PDDL
000153: 30,2153           02361                                    ATY                                   #  ATY(2)*2(18)
000154: 30,2154           43316                           DSQ      DAD
000155: 30,2155           75454                           BZE      SQRT
000156: 30,2156           60162                                    YAWDUN
000157: 30,2157           55352                           SL1      BDDV
000158: 30,2160           02361                                    ATY
000159: 30,2161           77736                           ARCSIN
000160: 30,2162           26367        YAWDUN             STOVL    YAW
000161: 30,2163           03252                                    UNFC/2
000162: 30,2164           50256                           UNIT     DOT
000163: 30,2165           03535                                    UNIT/R/
000164: 30,2166           65552                           SL1      ARCCOS
000165: 30,2167           77676                           DCOMP
000166: 30,2170           02371                           STORE    PITCH
000167: 30,2171           77776                           EXIT
000168: 30,2172           05353                           TC       PHASCHNG
000169: 30,2173           04024                           OCT      04024
000170:
000171: 30,2174           05516                           TC       DOWNFLAG
000172: 30,2175           00213                           ADRES    FLPI
000173:
000174: 30,2176           00004                           INHINT
000175: 30,2177           04674                           TC       IBNKCALL
000176: 30,2200           40142                           CADR     PFLITEDB
000177: 30,2201           00003                           RELINT
000178:
000179: 30,2202           04635                           TC       POSTJUMP
000180: 30,2203           74124                           CADR     BURNBABY


000182: 30,2204           77745        P12INIT            DLOAD                                          #  INITIALIZE ENGINE DATA.  USED FOR P12 AND
000183: 30,2205           24001                                    (1/DV)A                               #  P71.
000184: 30,2206           03637                           STORE    1/DV3
000185: 30,2207           03635                           STORE    1/DV2
000186: 30,2210           17633                           STODL    1/DV1
000187: 30,2211           24005                                    (AT)A
000188: 30,2212           16257                           STODL    AT
000189: 30,2213           24007                                    (TBUP)A
000190: 30,2214           16265                           STODL    TBUP
000191: 30,2215           34013                                    ATDECAY
000192: 30,2216           54276                           DCOMP    SL
000193: 30,2217           20214                                    11D
000194: 30,2220           02263                           STORE    TTO
000195: 30,2221           57535                           SLOAD    DCOMP
000196: 30,2222           26001                                    APSVEX
000197: 30,2223           77702                           SR2
000198: 30,2224           02261                           STORE    VE
000199: 30,2225           43414                           BOFF     RVQ
000200: 30,2226           04747                                    FLAP
000201: 30,2227           60230                                    COMMINIT
000202: 30,2230           43345        COMMINIT           DLOAD    DAD                                   #  INITIALIZE TARGET DATA. USED BY P12, P70
000203: 30,2231           25602                                    HINJECT                               #  AND P71 IF IT DOES NOT FOLLOW P70.
000204: 30,2232           02337                                    /LAND/
000205: 30,2233           17627                           STODL    RCO
000206: 30,2234           06424                                    HI6ZEROS
000207: 30,2235           03654                           STORE    TXO
000208: 30,2236           03631                           STORE    YCO
000209: 30,2237           02267                           STORE    RDOTD
000210: 30,2240           26271                           STOVL    YDOTD
000211: 30,2241           01563                                    VRECTCSM
000212: 30,2242           64235                           VXV      MXV
000213: 30,2243           01555                                    RRECTCSM
000214: 30,2244           01734                                    REFSMMAT
000215: 30,2245           77656                           UNIT
000216: 30,2246           17716                           STODL    QAXIS
000217: 30,2247           02506                                    ABTVINJ2                              #  TENTATIVELY STORE LOW INJECTION VELOCITY
000218: 30,2250           02273                           STORE    ZDOTD
000219: 30,2251           77614                           BON
000220: 30,2252           04704                                    FLPI
000221: 30,2253           60263                                    LOVEL
000222: 30,2254           45335                           SLOAD    DSU
000223: 30,2255           02503                                    TBRKPNT                               #  TBRKPNT-TGO
000224: 30,2256           03515                                    TGO
000225: 30,2257           71240                           BMN      DLOAD                                 #  IF TGO>TBRKPNT,LOW VINJECT IS OK;RETURN
000226: 30,2260           60263                                    LOVEL
000227: 30,2261           02504                                    ABTVINJ1                              #  FOR TGO.TBRKPNT USE HI VELOCITY.
000228: 30,2262           02273                           STORE    ZDOTD
000229: 30,2263           77616        LOVEL              RVQ
000230: 30,2264           40220        GUIDINIT           STQ      SETPD
000231: 30,2265           01164                                    TEMPR60


000233: 30,2266           00001                                    0D
000234: 30,2267           41575                           VLOAD    PUSH
000235: 30,2270           06416                                    UNITZ
000236: 30,2271           41434                           RTB      PUSH
000237: 30,2272           21462                                    LOADTIME
000238: 30,2273           45135                           SLOAD    CALL
000239: 30,2274           20312                                    (APO)
000240: 30,2275           51504                                    RP-TO-R
000241: 30,2276           74321                           MXV      VXSC
000242: 30,2277           01734                                    REFSMMAT
000243: 30,2300           20005                                    MOONRATE
000244: 30,2301           26331                           STOVL    WM
000245: 30,2302           02023                                    RLS
000246: 30,2303           52446                           ABVAL    SL3
000247: 30,2304           36337                           STCALL   /LAND/
000248: 30,2305           01164                                    TEMPR60
000249:
000250: 30,2306           02022        P12ADRES           REMADR   P12TABLE                              #  NOT IN SAME BANK.
000251: 30,2307           00046 07374  49FPS              2DEC     .149352    B-6                        #  EXPECTED RDOT AT TIPOVER
000252:
000253: 30,2311           00001 26227  (APO)              2DEC     55597.5    B-29                       #  30 N.M. EXPRESSED IN METERS.

End of include-file P12.agc.  Parent file is MAIN.agc


