
Source Code


000002:                                                                                                  ## Copyright:   Public domain.
000003:                                                                                                  ## Filename:    P20-P25.agc
000004:                                                                                                  ## Purpose:     The main source file for Luminary revision 069.
000005:                                                                                                  ##              It is part of the source code for the original release
000006:                                                                                                  ##              of the flight software for the Lunar Module's (LM) Apollo
000007:                                                                                                  ##              Guidance Computer (AGC) for Apollo 10. The actual flown
000008:                                                                                                  ##              version was Luminary 69 revision 2, which included a
000009:                                                                                                  ##              newer lunar gravity model and only affected module 2.
000010:                                                                                                  ##              This file is intended to be a faithful transcription, except
000011:                                                                                                  ##              that the code format has been changed to conform to the
000012:                                                                                                  ##              requirements of the yaYUL assembler rather than the
000013:                                                                                                  ##              original YUL assembler.
000014:                                                                                                  ## Reference:   pp. 504-623
000015:                                                                                                  ## Assembler:   yaYUL
000016:                                                                                                  ## Contact:     Ron Burkey <info@sandroid.org>.
000017:                                                                                                  ## Website:     www.ibiblio.org/apollo/index.html
000018:                                                                                                  ## Mod history: 2016-12-13 MAS  Created from Luminary 99.
000019:                                                                                                  ##              2016-12-14 MAS  Updated from comment-proofed Luminary 99 version.
000020:                                                                                                  ##              2016-01-16 HG   Transcribed
000021:                                                                                                  ##              2017-01-22 HG   Shift pseudo label +3 to column 2.
000022:                                                                                                  ##                              Add missing operator INHINT
000023:                                                                                                  ##              2017-01-23 HG   Fix operator CCS -> CA
000024:                                                                                                  ##                              Fix value TENDEG .27... -> .027...
000025:                                                                                                  ##                              Fix operand R22LEM42 -> R22LEM
000026:                                                                                                  ##                                          GOXDSPF  -> GOXDSPFR
000027:                                                                                                  ##                                          BIT13    -> BIT3
000028:                                                                                                  ##                              Fix operand modifier WWPOS +6 -> WWPOS +4
000029:                                                                                                  ##                              Fix statement CA FLAGWRD2 -> CS FLAGWRD0
000030:                                                                                                  ##                                            EXTEND      -> CCS A
000031:                                                                                                  ##                                            BZF NOTP20  -> TC  NOTP20
000032:                                                                                                  ##              2017-01-27 RSB  Proofed comment text using octopus/prooferComments
000033:                                                                                                  ##                              and fixed errors found.
000034:                                                                                                  ##              2017-01-28 RSB  WTIH -> WITH.
000035:                                                                                                  ##              2017-03-13 RSB  Comment-text fixes noted in proofing Luminary 116.
000036:                                                                                                  ##              2017-03-16 RSB  Comment-text fixes identified in 5-way
000037:                                                                                                  ##                              side-by-side diff of Luminary 69/99/116/131/210.
000038:                                                                                                  ##              2021-05-30 ABS  Removed R21LEM10 symbol not present in scans.
000039:                                                                                                  ##                              Replaced use of various descriptive *BIT symbols
000040:                                                                                                  ##                              with less descriptive BIT* symbols to match scans.
000041:                                                                                                  ##                              R29REM0J -> R29REMOJ
000042:
000043:                                                                                                  ##


000045:
000046:                                                                                                  #  RENDEZVOUS NAVIGATION PROGRAM 20
000047:                                                                                                  #  PROGRAM DESCRIPTION
000048:                                                                                                  #  MOD NO - 2
000049:                                                                                                  #  BY  P. VOLANTE
000050:                                                                                                  #  FUNCTIONAL DESCRIPTION
000051:
000052:                                                                                                  #    THE PURPOSE OF THIS PROGRAM IS TO CONTROL THE RENDEZVOUS RADAR FROM
000053:                                                                                                  #  STARTUP THROUGH ACQUISITION AND LOCKON TO THE CSM AND TO UPDATE EITHER
000054:                                                                                                  #  THE LM OR CSM STATE VECTOR (AS SPECIFIED BY THE ASTRONAUT BY DSKY ENTRY)
000055:                                                                                                  #  ON THE BASIS OF THE RR TRACKING DATA.
000056:                                                                                                  #  CALLING SEQUENCE -
000057:
000058:                                                                                                  #  ASTRONAUT REQUEST THROUGH DSKY V37E20E
000059:                                                                                                  #  SUBROUTINES CALLED
000060:                                                                                                  #    R02BOTH (IMU STATUS CHECK)               FLAGUP
000061:                                                                                                  #    GOFLASH (PINBALL-DISPLAY)                FLAGDOWN
000062:                                                                                                  #    R23LEM  (MANUAL ACQUISITION)             BANKCALL
000063:                                                                                                  #    LS201   (LOS DETERMINATION)              TASKOVER
000064:                                                                                                  #    LS202   (RANGE LIMIT TEST)
000065:                                                                                                  #    R61LEM  (PREFERRED TRACKING ATTITUDE)
000066:                                                                                                  #    R21LEM  (RR DESIGNATE)                   ENDOFJOB
000067:                                                                                                  #    R22LEM  (DATA READ)                      GOPERF1
000068:                                                                                                  #    R31LEM  (RENDEZVOUS PARAMETER DISPLAY)
000069:                                                                                                  #    PRIOLARM (PRIORITY DISPLAY)
000070:                                                                                                  #  NORMAL EXIT MODES-
000071:                                                                                                  #    P20 MAY BE TERMINATED IN TWO WAYS-ASTRONAUT SELECTION OF IDLING
000072:                                                                                                  #  PROGRAM (P00) BY KEYING V37E00E OR BY KEYING IN V56E
000073:                                                                                                  #  ALARM OR ABORT EXIT MODES-
000074:                                                                                                  #    RANGE GREATER THAN 400 NM DISPLAY
000075:                                                                                                  #  OUTPUT
000076:                                                                                                  #    TRKMKCNT = NO OF RENDEZVOUS TRACKING MARKS TAKEN (COUNTER)
000077:                                                                                                  #  ERASABLE INITIALIZATION REQUIRED
000078:                                                                                                  #  FLAGS SET + RESET
000079:                                                                                                  #    SRCHOPT,RNDVZFLG,ACMODFLG,VEHUPFLG,UPDATFLG,TRACKFLG,
000080:                                                                                                  #  DEBRIS
000081:                                                                                                  #    CENTRALS-A,Q,L
000082: 25,2062  30,2000                                  SBANK=   LOWSUPER                              #  FOR LOW 2CADR'S.
000083:
000084: 33,2045                                           BANK     33
000085: 24,2000                                           SETLOC   P20S
000086: 24,2000                                           BANK
000087:
000088: 24,2022  E7,1454                                  EBANK=   LOSCOUNT
000089: 24,2022                                           COUNT*   $$/P20
000090: 24,2022  24,2022               PROG22             =        PROG20
000091: 24,2022           05327        PROG20             TC       2PHSCHNG
000092: 24,2023           00004                           OCT      4
000093: 24,2024           05022                           OCT      05022
000094: 24,2025           26000                           OCT      26000                                 #  PRIORITY 26
000095: 24,2026           02714                           TC       LUNSFCHK                              #  CHECK IF ON LUNAR SURFACE
000096:


000098: 24,2027           02031                           TC       ORBCHGO                               #  YES
000099: 24,2030           02060                           TC       PROG20A    -2                         #  NO - CONTINUE WITH P20
000100: 24,2031           05504        ORBCHGO            TC       UPFLAG                                #  SET VEHUPFLG - CSM STATE
000101: 24,2032           00026                           ADRES    VEHUPFLG                              #  VECTOR TO BE UPDATED
000102: 24,2033           34753                           CAF      ONE                                   #  SET R2 FOR OPTION CSM WILL NOT
000103: 24,2034           55145                           TS       OPTION2                               #  CHANGE PRESENT ORBIT
000104: 24,2035           32342                           CAF      OCT00012
000105: 24,2036           04616                           TC       BANKCALL                              #  DISPLAY ASSUMED CSM ORBIT OPTION
000106: 24,2037           20506                           CADR     GOPERF4
000107: 24,2040           06001                           TC       GOTOPOOH                              #  TERMINATE
000108: 24,2041           02043                           TC       ORBCHG1                               #  PROCEED VALUE OF ASSUMED OPTION OK
000109: 24,2042           02035                           TC       -5                                    #  R2 LOADED THRU DSKY
000110: 24,2043           42343        ORBCHG1            CS       P22ONE
000111: 24,2044           61145                           AD       OPTION2
000112: 24,2045           00006                           EXTEND
000113: 24,2046           12062                           BZF      PROG20A
000114: 24,2047           32346                           CAF      V06N33*
000115: 24,2050           04616                           TC       BANKCALL                              #  FLASH VERB-NOUN TO REQUEST ESTIMATED
000116: 24,2051           20351                           CADR     GOFLASH                               #  TIME OF LAUNCH
000117: 24,2052           06001                           TC       GOTOPOOH                              #  TERMINATE
000118: 24,2053           02055                           TC       ORBCHG2                               #  PROCEED VALUES OK
000119: 24,2054           02047                           TC       -5                                    #  TIME LOADED THRU DSKY
000120: 24,2055           06036        ORBCHG2            TC       INTPRET
000121: 24,2056           77650                           GOTO
000122: 24,2057           64227                                    ORBCHG3
000123: 32,2227                                           BANK     32
000124: 32,2000                                           SETLOC   P20S4
000125: 32,2000                                           BANK
000126: 32,2227                                           COUNT*   $$/P20
000127:
000128: 32,2227           77624        ORBCHG3            CALL
000129: 32,2230           27412                                    INTSTALL
000130: 32,2231           77745                           DLOAD
000131: 32,2232           03440                                    TIG
000132: 32,2233           03657                           STORE    LNCHTM
000133: 32,2234           00041                           STORE    TDEC1                                 #  ESTIMATED LAUNCH TIME
000134: 32,2235           43014                           CLEAR    CLEAR
000135: 32,2236           01674                                    VINTFLAG                              #  LM INTEGRATION
000136: 32,2237           01673                                    INTYPFLG                              #  PRECISION - ENCKE
000137: 32,2240           43014                           CLEAR    CLEAR
000138: 32,2241           01676                                    DIM0FLAG                              #  NO W-MATRIX
000139: 32,2242           01675                                    D6OR9FLG
000140: 32,2243           77624                           CALL
000141: 32,2244           27134                                    INTEGRV                               #  PLANETARY INERTIAL ORIENTATION
000142: 32,2245           77624                           CALL
000143: 32,2246           11165                                    GRP2PC
000144: 32,2247           77775                           VLOAD
000145: 32,2250           00017                                    RATT1
000146: 32,2251           17627                           STODL    RSUBL                                 #  SAVE LM POSITION
000147: 32,2252           00015                                    TAT
000148:


000150: 32,2253           34041                           STCALL   TDEC1
000151: 32,2254           27412                                    INTSTALL
000152: 32,2255           43014                           SET      CLEAR
000153: 32,2256           01474                                    VINTFLAG                              #  CSM INTEGRATION
000154: 32,2257           01673                                    INTYPFLG
000155: 32,2260           43014                           CLEAR    BOFF
000156: 32,2261           01676                                    DIM0FLAG
000157: 32,2262           02756                                    RENDWFLG                              #  W MATRIX VALID
000158: 32,2263           64267                                    NOWMATX                               #  NO
000159: 32,2264           43014                           SET      SET                                   #  YES - SET FOR W MATRIX
000160: 32,2265           01476                                    DIM0FLAG
000161: 32,2266           01475                                    D6OR9FLG
000162: 32,2267           77624        NOWMATX            CALL
000163: 32,2270           27134                                    INTEGRV                               #  CSM INTEGRATION
000164: 32,2271           77624                           CALL
000165: 32,2272           11165                                    GRP2PC
000166: 32,2273           77775                           VLOAD
000167: 32,2274           00025                                    VATT1
000168: 32,2275           25761                           STOVL    VSUBC                                 #  SAVE CSM VELOCITY
000169: 32,2276           00017                                    RATT1
000170: 32,2277           01102                           STORE    RSUBC                                 #  SAVE CSM POSITION
000171: 32,2300           53435                           VXV      UNIT                                  #  COMPUTE NORMAL TO CSM ORBITAL PLANE
000172: 32,2301           01761                                    VSUBC                                 #  NSUB1=UNIT(R(CM) CROSS V(CM)
000173: 32,2302           24025                           STOVL    20D                                   #  SAVE NSUB1
000174: 32,2303           03627                                    RSUBL                                 #  COMPUTE ESTIMATED ORBITAL
000175: 32,2304           53435                           VXV      UNIT                                  #  PLANE CHANGE
000176: 32,2305           00025                                    20D                                   #  UCSM = UNIT(R(LM) CROSS NSUB1)
000177: 32,2306           27635                           STOVL    UCSM
000178: 32,2307           01102                                    RSUBC                                 #  COMPUTE ANGLE BETWEEN UCSM
000179: 32,2310           50256                           UNIT     DOT                                   #  AND RSUBC
000180: 32,2311           03635                                    UCSM                                  #  COS A = UCSM DOT UNIT (R(CM))
000181: 32,2312           77752                           SL1
000182: 32,2313           02732                           STORE    CSTH                                  #  SAVE DOE TIME-THETA SUBROUTINE
000183: 32,2314           44316                           DSQ      BDSU                                  #  COMPUTE SINE A
000184: 32,2315           10345                                    ONEB-2
000185: 32,2316           77766                           SQRT
000186: 32,2317           26730                           STOVL    SNTH                                  #  SAVE FOR TIME-THETA SUBROUTINE
000187: 32,2320           01102                                    RSUBC                                 #  POSITION OF CSM AT EST. LAUNCH
000188: 32,2321           26655                           STOVL    RVEC                                  #  TIME FOR TIME-THETA   B-27
000189: 32,2322           01761                                    VSUBC                                 #  VELOCITY OF CSM AT EST. LAUNCH
000190: 32,2323           77676                           VCOMP
000191: 32,2324           02744                           STORE    VVEC                                  #  TIME FOR TIME THETA   B-5
000192: 32,2325           45014                           CLEAR    CALL
000193: 32,2326           03666                                    RVSW
000194: 32,2327           24745                                    TIMETHET
000195: 32,2330           77676                           VCOMP
000196: 32,2331           03643                           STORE    NEWVEL                                #  TERMINAL VELOCITY OF CSM
000197: 32,2332           77745                           DLOAD
000198: 32,2333           00037                                    T
000199: 32,2334           27661                           STOVL    TRANSTM                               #  TRANSFER TIME
000200:


000202: 32,2335           03643                                    NEWVEL
000203: 32,2336           77646                           ABVAL
000204: 32,2337           24025                           STOVL    20D
000205: 32,2340           00001                                    0D
000206: 32,2341           03651                           STORE    NEWPOS                                #  TERMINAL POSITION OF CSM
000207: 32,2342           53435                           VXV      UNIT                                  #  COMPUTE NORMAL TO CSM ORBITAL PLANE
000208: 32,2343           03627                                    RSUBL                                 #  NSUB2 = UNIT(NEWPOS CROSS R(LM))
000209: 32,2344           53435                           VXV      UNIT                                  #  ROTATE TERMINAL VEL INTO DESIRED
000210: 32,2345           03651                                    NEWPOS                                #  ORBITAL PLANE
000211: 32,2346           76561                           VXSC     VSL1                                  #  VSUBC = ABVAL(NEWVEL) $ UNIT (NSUB2
000212: 32,2347           00025                                    20D
000213: 32,2350           37663                           STCALL   NCSMVEL                               #  NEW CSM VELOCITY
000214: 32,2351           11165                                    GRP2PC
000215: 32,2352           77624                           CALL
000216: 32,2353           27412                                    INTSTALL
000217: 32,2354           44345                           DLOAD    BDSU
000218: 32,2355           03661                                    TRANSTM                               #  LAUNCH TIME - TRANSFER TIME
000219: 32,2356           03657                                    LNCHTM
000220: 32,2357           25517                           STOVL    TET
000221: 32,2360           03651                                    NEWPOS
000222: 32,2361           01535                           STORE    RCV
000223: 32,2362           25503                           STOVL    RRECT
000224: 32,2363           03663                                    NCSMVEL
000225: 32,2364           35511                           STCALL   VRECT
000226: 32,2365           23361                                    MINIRECT
000227: 32,2366           45174                           AXT,2    CALL
000228: 32,2367           00002                                    2
000229: 32,2370           26661                                    ATOPCSM
000230: 32,2371           77624                           CALL
000231: 32,2372           27425                                    INTWAKE0
000232: 32,2373           77776                           EXIT
000233: 32,2374           04616                           TC       BANKCALL
000234: 32,2375           50062                           CADR     PROG20A
000235: 24,2060                                           BANK     24
000236: 24,2000                                           SETLOC   P20S
000237: 24,2000                                           BANK
000238: 24,2060                                           COUNT*   $$/P20
000239:
000240: 24,2060           05516                           TC       DOWNFLAG                              #  RESET VEHUPFLG- LM STATE VECTOR
000241: 24,2061           00026                           ADRES    VEHUPFLG                              #  TO BE UPDATED
000242: 24,2062           04616        PROG20A            TC       BANKCALL
000243: 24,2063           11175                           CADR     R02BOTH
000244: 24,2064           05504                           TC       UPFLAG
000245: 24,2065           00027                           ADRES    UPDATFLG                              #  SET UPDATE FLAG
000246: 24,2066           05504                           TC       UPFLAG
000247: 24,2067           00031                           ADRES    TRACKFLG                              #  SET TRACK FLAG
000248: 24,2070           05504                           TC       UPFLAG
000249: 24,2071           00010                           ADRES    RNDVZFLG                              #  SET RENDEZVOUS FLAG
000250: 24,2072           05516                           TC       DOWNFLAG
000251: 24,2073           00037                           ADRES    SRCHOPTN                              #  INSURE SEARCH OPTION OFF
000252:


000254: 24,2074           05516                           TC       DOWNFLAG                              #  ALSO MANUAL ACQUISITION FLAG RESET
000255: 24,2075           00040                           ADRES    ACMODFLG
000256: 24,2076           05516                           TC       DOWNFLAG                              #  TURN OFF R04FLAG TO ENSURE GETTING
000257: 24,2077           00063                           ADRES    R04FLAG                               #  ALARM 521 IF CANT READ RADAR
000258: 24,2100           05516                           TC       DOWNFLAG                              #  ENSURE R25 GIMBAL MONITOR IS ENABLED
000259: 24,2101           00126                           ADRES    NORRMON                               #  (RESET NORRMON FLAG)
000260: 24,2102           05516                           TC       DOWNFLAG                              #  RESET LOS BEING COMPUTED FLAG
000261: 24,2103           00041                           ADRES    LOSCMFLG
000262: 24,2104           05353        P20LEM1            TC       PHASCHNG
000263: 24,2105           04022                           OCT      04022
000264: 24,2106           34755                           CAF      ZERO                                  #  ZERO MARK COUNTER
000265: 24,2107           55460                           TS       MARKCTR
000266: 24,2110           06036                           TC       INTPRET                               #  LOS DETERMINATION ROUTINE
000267: 24,2111           77634                           RTB
000268: 24,2112           21462                                    LOADTIME
000269: 24,2113           34041                           STCALL   TDEC1
000270: 24,2114           51151                                    LPS20.1
000271: 24,2115           77624                           CALL
000272: 24,2116           53565                                    LPS20.2                               #  TEST RANGE R/UTINE
000273: 24,2117           77776                           EXIT
000274: 24,2120           50154                           INDEX    MPAC
000275: 24,2121           02122                           TC       +1
000276: 24,2122           02132                           TC       P20LEMA                               #  NORMAL RETURN WITHIN 400 N M
000277: 24,2123           32336        526ALARM           CAF      ALRM526                               #  ERROR EXIT - RANGE > 400 N. MI.
000278: 24,2124           04616                           TC       BANKCALL
000279: 24,2125           21451                           CADR     PRIOLARM
000280: 24,2126           06022                           TC       GOTOV56                               #  TERMINATE EXITS P20 VIA V56 CODING
000281: 24,2127           02123                           TC       -4                                    #  PROC (ILLEGAL
000282: 24,2130           02104                           TC       P20LEM1                               #  ENTER RECYCLE
000283: 24,2131           05155                           TC       ENDOFJOB
000284:
000285:
000286: 24,2132           05353        P20LEMA            TC       PHASCHNG
000287: 24,2133           04022                           OCT      04022
000288: 24,2134           02714                           TC       LUNSFCHK                              #  CHECK LUNAR SURFACE FLAG (P22 FLAG)
000289: 24,2135           02140                           TC       P20LEMB
000290: 24,2136           04616                           TC       BANKCALL
000291: 24,2137           46100                           CADR     R61LEM                                #  PREFERRED TRACKING ATTITUDE ROUTINE
000292: 24,2140           05353        P20LEMB            TC       PHASCHNG
000293: 24,2141           05022                           OCT      05022                                 #  RESTART AT PRIORITY 10 TO ALLOW V37
000294: 24,2142           10000                           OCT      10000                                 #  REQUESTED PROGRAM TO RUN FIRST
000295: 24,2143           37713                           CAF      PRIO26                                #  RESTORE PRIORITY 26
000296: 24,2144           05146                           TC       PRIOCHNG
000297: 24,2145           30075                           CA       FLAGWRD1                              #  IS THE TRACK FLAG SET
000298: 24,2146           74747                           MASK     TRACKBIT
000299: 24,2147           00006                           EXTEND
000300: 24,2150           12262                           BZF      P20LEMWT                              #   BRANCH - NO - WAIT FOR IT TO BE SET
000301: 24,2151           34752        P20LEMB7           CAF      BIT2                                  #  IS RR AUTO MODE DISCRETE PRESENT
000302: 24,2152           00006                           EXTEND
000303: 24,2153           02033                           RAND     CHAN33
000304:


000306: 24,2154           00006                           EXTEND
000307: 24,2155           12211                           BZF      P20LEMB3                              #  YES - DO AUTOMATIC ACQUISITION (R21)
000308:
000309: 24,2156           46007        P20LEMB5           CS       OCT24                                 #  RADAR NOT IN AUTO CHECK IF
000310: 24,2157           61011                           AD       MODREG                                #  MAJOR MODE IS 20
000311: 24,2160           00006                           EXTEND
000312: 24,2161           12174                           BZF      P20LEMB6                              #  BRANCH - YES-OK TO DO PLEASE PERFORM
000313:
000314:
000315: 24,2162           67745                           AD       NEG2                                  #  ALSO CHECK FOR P22
000316: 24,2163           00006                           EXTEND
000317: 24,2164           12174                           BZF      P20LEMB6                              #  BRANCH - YES OK TO DO PLEASE PERFORM
000318: 24,2165           32340                           CAF      ALRM514                               #  TRACK FLAG SET-FLASH PRIORITY ALARM 514-
000319: 24,2166           04616                           TC       BANKCALL                              #  RADAR GOES OUT OF AUTO MODE WHILE IN USE
000320: 24,2167           21451                           CADR     PRIOLARM
000321: 24,2170           06022                           TC       GOTOV56                               #  TERMINATE EXITS VIA V56
000322: 24,2171           02140                           TC       P20LEMB                               #  PROCEED AND ENTER BOTH GO BACK
000323: 24,2172           02140                           TC       P20LEMB                               #  TO CHECK AUTO MODE AGAIN
000324: 24,2173           05155                           TC       ENDOFJOB
000325: 24,2174           32337        P20LEMB6           CAF      OCT201                                #  REQUEST RR AUTO MODE SELECTION
000326: 24,2175           04616                           TC       BANKCALL
000327: 24,2176           20476                           CADR     GOPERF1
000328: 24,2177           06022                           TC       GOTOV56                               #  TERMINATE EXITS P20 VIA V56 CODING
000329: 24,2200           02140                           TC       P20LEMB                               #  PROCEED CHECKS AUTO MODE DISCRETE AGAIN
000330: 24,2201           02714                           TC       LUNSFCHK                              #  ENTER INDICATES MANUAL ACQUISITION (R23)
000331: 24,2202           02207                           TC       P20LEMB2                              #  YES - R23 NOT ALLOWED-TURN ON OPR ERROR
000332: 24,2203           03027                           TC       R23LEM                                #  NO - DO MANUAL ACQUISITION
000333:
000334:
000335: 24,2204           05504        P20LEMB1           TC       UPFLAG                                #  RETURN FROM R23 - LOCKON ACHIEVED
000336: 24,2205           00040                           ADRES    ACMODFLG                              #  SET MANUAL FLAG AND GO BACK TO CHECK
000337: 24,2206           02140                           TC       P20LEMB                               #  RR AUTO MODE
000338:
000339:
000340: 24,2207           04364        P20LEMB2           TC       FALTON                                #  TURNS ON OPERATOR ERROR LIGHT ON DSKY
000341: 24,2210           02140                           TC       P20LEMB                               #  AND GOES BACK TO CHECK AUTO MODE
000342:
000343:
000344: 24,2211           40110        P20LEMB3           CS       RADMODES                              #  ARE RR CDUS BEING ZEROED
000345: 24,2212           74737                           MASK     BIT13                                 #  (BIT 13 RADMODES EQUAL ONE)
000346: 24,2213           00006                           EXTEND
000347: 24,2214           12226                           BZF      P20LEMB4                              #  BRANCH - YES - WAIT
000348: 24,2215           34355                           CAF      BIT13-14                              #  IS SEARCH OR MANUAL ACQUISITION FLAG SET
000349: 24,2216           70076                           MASK     FLAGWRD2
000350: 24,2217           00006                           EXTEND
000351: 24,2220           12232                           BZF      P20LEMC3                              #  ZERO MEANS AUTOMATIC RR ACQUISTION
000352: 24,2221           05516                           TC       DOWNFLAG                              #  RESET TO AUTO MODE
000353: 24,2222           00037                           ADRES    SRCHOPTN
000354: 24,2223           05516                           TC       DOWNFLAG
000355:


000357: 24,2224           00040                           ADRES    ACMODFLG
000358: 24,2225           02262                           TC       P20LEMWT                              #  WAIT 2.5 SECONDS THEN GO TO RR DATA READ
000359:
000360:
000361: 24,2226           32335        P20LEMB4           CAF      250DEC
000362: 24,2227           04616                           TC       BANKCALL                              #  WAIT 2.5 SECONDS WHILE RR CDUS ARE BEING
000363: 24,2230           01735                           CADR     DELAYJOB                              #  ZEROED-THEN GO BACK AND CHECK AGAIN
000364: 24,2231           02211                           TC       P20LEMB3
000365:
000366:
000367: 24,2232           06036        P20LEMC3           TC       INTPRET
000368: 24,2233           77624                           CALL                                           #  DO A PERMANENT MEMORY PRECISION
000369: 24,2234           50347                                    UPPSV                                 #  INTEGRATION TO ESTABLISH AN UP-TO-DATE
000370: 24,2235           77214                           BOFF     VLOAD                                 #  BASE FOR CONICS (KEPLER) IN R21
000371: 24,2236           04347                                    SURFFLAG
000372: 24,2237           50246                                    P20LEMC4
000373: 24,2240           01661                                    RCVLEM                                #  WHEN ON LUNAR SURFACE
000374: 24,2241           77742                           VSR2                                           #  SCALE B-29
000375: 24,2242           26356                           STOVL    LMPOS
000376: 24,2243           01667                                    VCVLEM
000377: 24,2244           77742                           VSR2
000378: 24,2245           02364                           STORE    LMVEL
000379: 24,2246           77776        P20LEMC4           EXIT
000380: 24,2247           05353        P20LEMC            TC       PHASCHNG
000381: 24,2250           04022                           OCT      04022
000382: 24,2251           30074                           CAE      FLAGWRD0                              #  IS THE RENDEZVOUS FLAG SET
000383: 24,2252           74745                           MASK     RNDVZBIT
000384: 24,2253           00006                           EXTEND
000385: 24,2254           15155                           BZF      ENDOFJOB                              #  NO - EXIT P20
000386: 24,2255           30075                           CAE      FLAGWRD1                              #  IS TRACK FLAG SET  (BIT 5 FLAGWORD 1)
000387: 24,2256           74747                           MASK     TRACKBIT
000388: 24,2257           00006                           EXTEND
000389: 24,2260           12315                           BZF      P20LEMD                               #  BRANCH-TRACK FLAG NOT ON-WAIT 15 SECONDS
000390: 24,2261           02721        P20LEMF            TC       R21LEM
000391:
000392:
000393: 24,2262           32335        P20LEMWT           CAF      250DEC
000394: 24,2263           00004                           INHINT
000395: 24,2264           05173                           TC       TWIDDLE                               #  USE INSTEAD OF WAITLIST SINCE SAME BANK
000396: 24,2265           02275                           ADRES    P20LEMC1                              #  WAIT 2.5 SECONDS
000397: 24,2266           30075                           CAE      FLAGWRD1                              #  IS TRACK FLAG SET
000398: 24,2267           74747                           MASK     TRACKBIT
000399: 24,2270           00006                           EXTEND
000400: 24,2271           15155                           BZF      ENDOFJOB                              #  NO-EXIT WITHOUT DOING 2.7 PHASE CHANGE
000401: 24,2272           05353        P20LMWT1           TC       PHASCHNG
000402: 24,2273           40072                           OCT      40072
000403: 24,2274           05155                           TC       ENDOFJOB
000404:
000405:
000406: 24,2275           30074        P20LEMC1           CAE      FLAGWRD0                              #  IS RENDEZVOUS FLAG SET
000407:


000409: 24,2276           74745                           MASK     RNDVZBIT
000410: 24,2277           00006                           EXTEND
000411: 24,2300           15261                           BZF      TASKOVER                              #  NO - EXIT P20/R22
000412: 24,2301           30075                           CAE      FLAGWRD1                              #  IS TRACK FLAG SET
000413: 24,2302           74747                           MASK     TRACKBIT
000414: 24,2303           00006                           EXTEND
000415: 24,2304           12312                           BZF      P20LEMC2                              #  NO-DONT SCHEDULE R22 JOB
000416: 24,2305           37713                           CAF      PRIO26                                #  YES-SCHEDULE R22 JOB (RR DATA READ)
000417: 24,2306           05105                           TC       FINDVAC
000418: 24,2307  E7,1454                                  EBANK=   LOSCOUNT
000419: 24,2307           02477 50067                     2CADR    R22LEM
000420: 24,2311           05261                           TC       TASKOVER
000421:
000422:
000423: 24,2312           05221        P20LEMC2           TC       FIXDELAY                              #  TRACK FLAG NOT SET ,WAIT 15 SECONDS
000424: 24,2313           02734                           DEC      1500       B-14                       #  AND CHECK AGAIN
000425:
000426: 24,2314           02275                           TC       P20LEMC1
000427:
000428: 24,2315           32712        P20LEMD            CAF      1500DEC
000429: 24,2316           05173                           TC       TWIDDLE                               #  WAITLIST FOR 15 SECONDS
000430: 24,2317           02321                           ADRES    P20LEMD1
000431: 24,2320           05155                           TC       ENDOFJOB
000432:
000433:
000434: 24,2321           30075        P20LEMD1           CAE      FLAGWRD1                              #  IS TRACK FLAG SET
000435: 24,2322           74747                           MASK     TRACKBIT
000436: 24,2323           10000                           CCS      A
000437: 24,2324           12330                           TCF      P20LEMD2                              #  YES-SCHEDULE DESIGNATE JOB
000438: 24,2325           05221                           TC       FIXDELAY                              #  NO-WAIT 15 SECONDS
000439: 24,2326           02734                           DEC      1500       B-14
000440: 24,2327           02321                           TC       P20LEMD1
000441:
000442:
000443: 24,2330           37713        P20LEMD2           CAF      PRIO26                                #  SCHEDULE JOB TO DO R21
000444: 24,2331           05105                           TC       FINDVAC
000445: 24,2332  E7,1454                                  EBANK=   LOSCOUNT
000446: 24,2332           02232 50067                     2CADR    P20LEMC3                              #  START AT PERM. MEMORY INTEGRATION
000447: 24,2334           05261                           TC       TASKOVER
000448:
000449:
000450: 24,2335           00372        250DEC             DEC      250        B-14
000451: 24,2336           00526        ALRM526            OCT      00526
000452: 24,2337           00201        OCT201             OCT      00201
000453: 24,2340           00514        ALRM514            OCT      514
000454: 24,2341           00074        MAXTRIES           DEC      60         B-14
000455: 24,2342           00012        OCT00012           OCT      00012
000456: 24,2343           00001        P22ONE             OCT      00001
000457:


000459: 24,2344           10000 00000  ONEB-2             2DEC     1.0        B-2
000460: 24,2346           01441        V06N33*            VN       0633
000461: 24,2347           45020        UPPSV              STQ      CALL                                  #  UPDATES PERMANENT STATE VECTORS
000462: 24,2350           01757                                    LS21X                                 #   TO PRESENT TIME
000463: 24,2351           27412                                    INTSTALL
000464: 24,2352           77624                           CALL
000465: 24,2353           26644                                    SETIFLGS
000466: 24,2354           43014                           BOF      SET                                   #  IF W-MATRIX INVALID,DONT INTEGRATE IT
000467: 24,2355           02756                                    RENDWFLG
000468: 24,2356           50367                                    UPPSV1
000469: 24,2357           01476                                    DIM0FLAG                              #  SET DIMOFLAG TO INTEGRATE W-MATRIX
000470: 24,2360           43014                           BON      SET
000471: 24,2361           04307                                    SURFFLAG                              #  IF ON LUNAR SURFACE W IS 6X6
000472: 24,2362           50364                                    UPPSV5
000473: 24,2363           01475                                    D6OR9FLG                              #  OTHERWISE 9X9
000474: 24,2364           77614        UPPSV5             BOF
000475: 24,2365           00747                                    VEHUPFLG
000476: 24,2366           50411                                    UPPSV3
000477: 24,2367           47014        UPPSV1             SET      RTB                                   #  CSM STATE BEING CORRECTED
000478: 24,2370           01474                                    VINTFLAG
000479: 24,2371           21462                                    LOADTIME
000480: 24,2372           34041                           STCALL   TDEC1                                 #  INTEGRATE CSM STATE WITH W-MATRIX
000481: 24,2373           27134                                    INTEGRV
000482: 24,2374           77624                           CALL                                           #  GROUP 2 PHASE CHANGE
000483: 24,2375           11165                                    GRP2PC                                #  TO PROTECT INTEGRATION
000484: 24,2376           77624                           CALL
000485: 24,2377           27412                                    INTSTALL
000486: 24,2400           43145                           DLOAD    CLEAR                                 #  GET TETCSM TO STORE IN TDEC FOR LM INT.
000487: 24,2401           01571                                    TETCSM
000488: 24,2402           01674                                    VINTFLAG
000489: 24,2403           77624        UPPSV4             CALL                                           #  INTEGRATE OTHER VEHICLE
000490: 24,2404           26644                                    SETIFLGS                              #   WITHOUT W-MATRIX
000491: 24,2405           34041                           STCALL   TDEC1
000492: 24,2406           27134                                    INTEGRV
000493: 24,2407           77650                           GOTO
000494: 24,2410           01757                                    LS21X
000495:
000496:
000497: 24,2411           47014        UPPSV3             CLEAR    RTB
000498: 24,2412           01674                                    VINTFLAG
000499: 24,2413           21462                                    LOADTIME
000500: 24,2414           34041                           STCALL   TDEC1                                 #  INTEGRATE LM STATE WITH W-MATRIX
000501: 24,2415           27134                                    INTEGRV
000502: 24,2416           77624                           CALL
000503: 24,2417           11165                                    GRP2PC
000504: 24,2420           77624                           CALL
000505: 24,2421           27412                                    INTSTALL
000506: 24,2422           71214                           SET      DLOAD
000507: 24,2423           01474                                    VINTFLAG
000508:


000510: 24,2424           01643                                    TETLEM                                #  GET TETLEM TO STORE IN TDEC FOR CSM INT.
000511: 24,2425           77650                           GOTO
000512: 24,2426           50403                                    UPPSV4
000513:
000514:
000515: 24,2427  E7,1454                                  EBANK=   LOSCOUNT
000516: 24,2427                                           COUNT*   $$/P22
000517:


000519:                                                                                                  #  PROGRAM DESCRIPTION
000520:                                                                                                  #  PREFERRED TRACKING ATTITUDE PROGRAM P25
000521:                                                                                                  #  MOD NO - 3
000522:                                                                                                  #  BY  P. VOLANTE
000523:                                                                                                  #  FUNCTIONAL DESCRIPTION
000524:
000525:                                                                                                  #    THE PURPOSE OF THIS PROGRAM IS TO COMPUTE THE PREFERRED TRACKING
000526:                                                                                                  #  ATTITUDE OF THE LM TO CONTINUOUSLY POINT THE LM TRACKING BEACON AT THE
000527:                                                                                                  #  CSM AND TO PERFORM THE MANEUVER TO THE PREFERRED TRACKING ATTITUDE AND
000528:                                                                                                  #  CONTINUOUSLY MAINTAIN THIS ATTITUDE WITHIN PRESCRIBED LIMITS
000529:                                                                                                  #  CALLING SEQUENCE -
000530:                                                                                                  #    ASTRONAUT REQUEST THROUGH DSKY V37E25E
000531:                                                                                                  #  SUBROUTINES CALLED -
000532:                                                                                                  #    BANKCALL                      FLAGUP
000533:                                                                                                  #    R02BOTH  (IMU STATUS CHECK)   ENDOFJOB
000534:                                                                                                  #    R61LEM   (PREF TRK ATT ROUT)  WAITLIST
000535:                                                                                                  #    TASKOVER                      FINDVAC
000536:                                                                                                  #  NORMAL EXIT MODES  -
000537:                                                                                                  #    P25 MAY BE TERMINATED IN TWO WAYS-ASTRONAUT SELECTION OF IDLING
000538:                                                                                                  #  PROGRAM(P00) BY KEYING V37E00E OR BY KEYING IN V56E
000539:                                                                                                  #  ALARM OR ABORT EXIT MODES -
000540:                                                                                                  #    NONE
000541:                                                                                                  #  OUTPUT
000542:                                                                                                  #  ERASABLE INITIALIZATION REQUIRED
000543:                                                                                                  #  FLAGS SET + RESET
000544:                                                                                                  #    TRACKFLG,P25FLAG
000545:                                                                                                  #  DEBRIS
000546:                                                                                                  #    NONE
000547: 24,2427  E7,1454                                  EBANK=   LOSCOUNT
000548: 24,2427                                           COUNT*   $$/P25
000549: 24,2427           05327        PROG25             TC       2PHSCHNG
000550: 24,2430           00004                           OCT      4                                     #  MAKE GROUP 4 INACTIVE (VERB 37)
000551: 24,2431           05022                           OCT      05022
000552: 24,2432           26000                           OCT      26000                                 #  PRIORITY 26
000553:
000554: 24,2433           04616                           TC       BANKCALL
000555: 24,2434           11175                           CADR     R02BOTH                               #  IMU STATUS CHECK
000556: 24,2435           05504                           TC       UPFLAG
000557: 24,2436           00031                           ADRES    TRACKFLG                              #  SET TRACK FLAG
000558: 24,2437           05504                           TC       UPFLAG
000559: 24,2440           00006                           ADRES    P25FLAG                               #  SET P25FLAG
000560: 24,2441           05353        P25LEM1            TC       PHASCHNG
000561: 24,2442           04022                           OCT      04022
000562: 24,2443           34743                           CAF      P25FLBIT
000563: 24,2444           70074                           MASK     STATE                                 #  IS P25FLAG SET
000564: 24,2445           00006                           EXTEND
000565: 24,2446           15155                           BZF      ENDOFJOB
000566: 24,2447           34747                           CAF      TRACKBIT                              #  IS TRACKFLAG SET?
000567: 24,2450           70075                           MASK     STATE      +1
000568: 24,2451           00006                           EXTEND
000569:


000571: 24,2452           12462                           BZF      P25LMWT1                              #  NO-SKIP PHASE CHANGE AND WAIT 1 MINUTE
000572: 24,2453           34757                           CAF      SEVEN                                 #  CALL R65 - FINE PREFERRED
000573: 24,2454           55743                           TS       R65CNTR
000574: 24,2455           04616                           TC       BANKCALL                              #  TRACKING ATTITUDE ROUTINE
000575: 24,2456           46105                           CADR     R65LEM
000576: 24,2457           02441                           TC       P25LEM1                               #  THEN GO CHECK FLAGS
000577: 24,2460           05353        P25LEMWT           TC       PHASCHNG
000578: 24,2461           00112                           OCT      00112
000579: 24,2462           32474        P25LMWT1           CAF      60SCNDS
000580: 24,2463           00004                           INHINT
000581: 24,2464           05173                           TC       TWIDDLE                               #  WAIT ONE MINUTE THEN CHECK AGAIN
000582: 24,2465           02467                           ADRES    P25LEM2
000583: 24,2466           05155                           TC       ENDOFJOB
000584: 24,2467           35024        P25LEM2            CAF      PRIO14
000585: 24,2470           05105                           TC       FINDVAC
000586: 24,2471  E7,1454                                  EBANK=   LOSCOUNT
000587: 24,2471           02441 50067                     2CADR    P25LEM1
000588: 24,2473           05261                           TC       TASKOVER
000589: 24,2474           13560        60SCNDS            DEC      6000       B-14
000590: 24,2475           77776        P25OK              EXIT
000591: 24,2476           02460                           TC       P25LEMWT
000592:


000594:                                                                                                  #  DATA READ ROUTINE 22 (LEM)
000595:                                                                                                  #  PROGRAM DESCRIPTION
000596:                                                                                                  #  MOD NO - 2
000597:                                                                                                  #  BY P VOLANTE
000598:                                                                                                  #  FUNCTIONAL DESCRIPTION
000599:
000600:                                                                                                  #    TO PROCESS AUTOMATIC RR MARK DATA TO UPDATE THE STATE VECTOR OF EITHER
000601:                                                                                                  #  LM OR CSM AS DEFINED IN THE RENDEZVOUS NAVIGATION PROGRAM (P20)
000602:                                                                                                  #  CALLING SEQUENCE -
000603:                                                                                                  #           TC     BANKCALL
000604:                                                                                                  #           CADR   R22LEM
000605:                                                                                                  #  SUBROUTINES CALLED -
000606:                                                                                                  #    LSR22.1           GOFLASH        WAITLIST
000607:                                                                                                  #    LSR22.2           PRIOLARM       BANKCALL
000608:                                                                                                  #    LSR22.3           R61LEM
000609:                                                                                                  #  NORMAL EXIT MODES-
000610:                                                                                                  #    R22 WILL CONTINUE TO RECYCLE,UPDATING STATE VECTORS WITH RADAR DATA
000611:                                                                                                  #  UNTIL P20 CEASES TO OPERATE (RENDEZVOUS FLAG SET TO ZERO) AT WHICH TIME
000612:                                                                                                  #  R22 WILL TERMINATE SELF.
000613:                                                                                                  #  ALARM OR ABORT EXIT MODES-
000614:                                                                                                  #    PRIORITY ALARM
000615:                                                                                                  #  PRIORITY ALARM 525 LOS NOT WITHIN 3 DEGREE LIMIT
000616:                                                                                                  #  OUTPUT
000617:                                                                                                  #    SEE OUTPUT FROM LSR22.3
000618:                                                                                                  #  ERASABLE INITIALIZATION REQUIRED
000619:                                                                                                  #    SEE LSR22.1,LSR22.2,LSR22.3
000620:                                                                                                  #  FLAGS SET + RESET
000621:                                                                                                  #    NOANGFLG
000622:                                                                                                  #  DEBRIS
000623:                                                                                                  #    SEE LSR22.1,LSR22.2,LSR22.3
000624: 24,2477  E7,1735                                  EBANK=   LRS22.1X
000625: 24,2477                                           COUNT*   $$/R22
000626: 24,2477           05353        R22LEM             TC       PHASCHNG
000627: 24,2500           04022                           OCT      04022
000628: 24,2501           34745                           CAF      RNDVZBIT                              #  IS RENDESVOUS FLAG SET?
000629: 24,2502           70074                           MASK     STATE
000630: 24,2503           00006                           EXTEND
000631: 24,2504           15155                           BZF      ENDOFJOB                              #  NO-EXIT R22 AND P20
000632: 24,2505           34747                           CAF      TRACKBIT                              #  IS TRACKFLAG SET?
000633: 24,2506           70075                           MASK     STATE      +1
000634: 24,2507           00006                           EXTEND
000635: 24,2510           12664                           BZF      R22WAIT                               #  NO WAIT
000636: 24,2511           34736        R22LEM12           CAF      BIT14                                 #  IS RR AUTO TRACK ENABLE DISCRETE STILL
000637: 24,2512           00006                           EXTEND                                         #  ON (A MONITOR REPOSITION BY R25 CLEARSIT
000638: 24,2513           02012                           RAND     CHAN12
000639: 24,2514           00006                           EXTEND
000640: 24,2515           12132                           BZF      P20LEMA                               #  NO - RETURN TO P20
000641: 24,2516           34752                           CAF      BIT2                                  #  YES
000642: 24,2517           00006                           EXTEND                                         #  IS RR AUTO MODE DISCRETE PRESENT
000643: 24,2520           02033                           RAND     CHAN33
000644:


000646: 24,2521           00006                           EXTEND
000647: 24,2522           12524                           BZF      +2                                    #  YES CONTINUE
000648: 24,2523           02156                           TC       P20LEMB5                              #  NO - SET IT
000649: 24,2524           40110                           CS       RADMODES                              #  ARE RR CDUS BEING ZEROED
000650: 24,2525           74737                           MASK     BIT13                                 #  (BIT 13 RADMODES EQUAL ONE)
000651: 24,2526           00006                           EXTEND
000652: 24,2527           12655                           BZF      R22LEM42                              #  CDUS BEING ZEROED
000653: 24,2530           05353                           TC       PHASCHNG                              #  IF A RESTART OCCURS,AN EXTRA RADAR
000654: 24,2531           00152                           OCT      00152                                 #  READING IS TAKEN,SO BAD DATA ISN'T USED
000655: 24,2532           04616                           TC       BANKCALL                              #  YES READ DATA + CALCULATE LOS
000656: 24,2533           64376                           CADR     LRS22.1                               #  DATA READ SUBROUTINE
000657: 24,2534           50154                           INDEX    MPAC
000658: 24,2535           02536                           TC       +1
000659: 24,2536           02557                           TC       R22LEM2                               #  NORMAL RETURN (GOOD DATA)
000660: 24,2537           02247                           TC       P20LEMC                               #  COULD NOT READ RADAR-TRY TO REDESIGNATE
000661: 24,2540           32707                           CAF      ALRM525                               #  RR LOS NOT WITHIN 3 DEGREES (ALARM)
000662: 24,2541           04616                           TC       BANKCALL
000663: 24,2542           21451                           CADR     PRIOLARM
000664: 24,2543           06022                           TC       GOTOV56                               #  TERMINATE EXITS P20 VIA V56 CODING
000665: 24,2544           02547                           TC       R22LEM1                               #  PROC (DISPLAY DELTA THETA)
000666: 24,2545           02540                           TC       -5                                    #  ENTER (ILLEGAL OPTION)
000667: 24,2546           05155                           TC       ENDOFJOB
000668:
000669:
000670: 24,2547           05353        R22LEM1            TC       PHASCHNG
000671: 24,2550           04022                           OCT      04022
000672: 24,2551           32710                           CAF      V06N05                                #  DISPLAY DELTA THETA
000673: 24,2552           04616                           TC       BANKCALL
000674: 24,2553           20362                           CADR     PRIODSP
000675: 24,2554           06022                           TC       GOTOV56                               #  TERMINATE EXITS P20 VIA V56 CODING
000676: 24,2555           02557                           TC       R22LEM2                               #  PROC (OK CONTINUE)
000677: 24,2556           02247                           TC       P20LEMC                               #  ENTER(RECYCLE)
000678: 24,2557           05353        R22LEM2            TC       PHASCHNG
000679: 24,2560           04022                           OCT      04022
000680: 24,2561           02714                           TC       LUNSFCHK                              #  CHECK IF ON LUNAR SURFACE (P22FLAG SET)
000681: 24,2562           02577                           TC       R22LEM3                               #  YES-BYPASS FLAG CHECKS AND LRS22.2
000682: 24,2563           30075                           CA       FLAGWRD1                              #  IS TRACK FLAG SET
000683: 24,2564           74747                           MASK     TRACKBIT
000684: 24,2565           00006                           EXTEND
000685: 24,2566           12664                           BZF      R22WAIT                               #  NO - WAIT
000686: 24,2567           04616                           TC       BANKCALL                              #  YES
000687: 24,2570           51230                           CADR     LRS22.2                               #  CHECKS RR BORESIGHT WITHIN 30 DEG OF +Z
000688: 24,2571           50154                           INDEX    MPAC
000689: 24,2572           02573                           TC       +1
000690: 24,2573           02577                           TC       R22LEM3                               #  NORMAL RETURN(LOS WITHIN 30 OF Z-AXIS)
000691: 24,2574           04616                           TC       BANKCALL
000692: 24,2575           46100                           CADR     R61LEM
000693: 24,2576           02664                           TC       R22WAIT                               #  NOT WITHIN 30 DEG OF Z-AXIS
000694: 24,2577           40075        R22LEM3            CS       FLAGWRD1                              #  SHOULD WE BYPASS STATE VECTOR UPDATE
000695: 24,2600           74746                           MASK     NOUPFBIT                              #  (IS NO UPDATE FLAG SET?)
000696:


000698: 24,2601           00006                           EXTEND
000699: 24,2602           12655                           BZF      R22LEM42                              #  BRANCH-YES
000700: 24,2603           30075                           CA       FLAGWRD1                              #  IS UPDATE FLAG SET
000701: 24,2604           74745                           MASK     UPDATBIT
000702: 24,2605           00006                           EXTEND
000703: 24,2606           12655                           BZF      R22LEM42                              #  UPDATE FLAG NOT SET
000704: 24,2607           37713                           CAF      PRIO26                                #  INSURE HIGH PRIO IN RESTART
000705: 24,2610           55056                           TS       PHSPRDT2
000706:
000707: 24,2611           06036                           TC       INTPRET
000708: 24,2612           77650                           GOTO
000709: 24,2613           54370                                    LSR22.3
000710: 24,2614           77776        R22LEM93           EXIT                                           #  NORMAL EXIT FROM LSR22.3
000711: 24,2615           05353                           TC       PHASCHNG                              #  PHASE CHANGE TO PROTECT AGAINST
000712: 24,2616           04022                           OCT      04022                                 #  CONFLICT WITH GRP2PC ERASEABLE
000713: 24,2617           12650                           TCF      R22LEM44
000714: 24,2620           77776        R22LEM96           EXIT
000715: 24,2621           34755                           CAF      ZERO                                  #  SET N49FLAG = ZERO TO INDICATE
000716: 24,2622           55744                           TS       N49FLAG                               #  V06 N49 DISPLAY HASNT BEEN ANSWERED
000717: 24,2623           05353                           TC       PHASCHNG
000718: 24,2624           04022                           OCT      04022                                 #  TO PROTECT DISPLAY
000719: 24,2625           37714                           CAF      PRIO27                                #  PROTECT DISPLAY
000720: 24,2626           05072                           TC       NOVAC
000721: 24,2627  E7,1744                                  EBANK=   N49FLAG
000722: 24,2627           02670 50067                     2CADR    N49DSP
000723: 24,2631           06036                           TC       INTPRET
000724: 24,2632           77735                           SLOAD
000725: 24,2633           03745                                    N49FLAG
000726: 24,2634           50054                           BZE      BMN                                   #  LOOP TO CHECK IF FLAG
000727: 24,2635           50632                                    -3                                    #  SETTING CHANGED-BRANCH - NO
000728: 24,2636           50644                                    R22LEM7                               #  PROCEED
000729: 24,2637           77776                           EXIT                                           #  DISPLAY ANSWERED BY RECYCLE
000730: 24,2640           02714                           TC       LUNSFCHK                              #  ARE WE ON LUNAR SURFACE
000731: 24,2641           02664                           TC       R22WAIT                               #  YES - 15 SECOND DELAY
000732: 24,2642           34755                           CA       ZERO                                  #  NO - SET R65COUNTER = 0, DO FINE
000733: 24,2643           02660                           TC       R22LEM45                              #  TRACKING TAKE ANOTHER RADAR READING
000734: 24,2644           77624        R22LEM7            CALL                                           #  PROCEED
000735: 24,2645           11165                                    GRP2PC                                #  PHASE CHANGE AND
000736: 24,2646           77650                           GOTO                                           #  GO TO INCORPORATE DATA.
000737: 24,2647           55374                                    ASTOK
000738: 24,2650           25460        R22LEM44           INCR     MARKCTR                               #  INCREMENT COUNT OF MARKS INCORPORATED.
000739: 24,2651           02714                           TC       LUNSFCHK                              #  ARE WE ON LUNAR SURFACE
000740: 24,2652           02666                           TC       R22LEM46                              #  YES - WAIT 2 SECONDS
000741: 24,2653           34756                           CA       FIVE                                  #  NOT ON LUNAR SURFACE
000742: 24,2654           02660                           TC       R22LEM45                              #  R65COUNTER = 5
000743: 24,2655           02714        R22LEM42           TC       LUNSFCHK                              #  CHECK IF ON LUNAR SURFACE (P22FLAG SET)
000744: 24,2656           02666                           TC       R22LEM46                              #  YES - WAIT 2 SECONDS
000745: 24,2657           34752                           CA       TWO                                   #  NO-SET R65COUNTER = 2
000746: 24,2660           55743        R22LEM45           TS       R65CNTR
000747:


000749: 24,2661           04616                           TC       BANKCALL
000750: 24,2662           46105                           CADR     R65LEM                                #  FINE PREFERRED TRACKING ATTITUDE
000751: 24,2663           02477                           TC       R22LEM
000752: 24,2664           32712        R22WAIT            CAF      1500DEC
000753: 24,2665           02263                           TC       P20LEMWT   +1
000754:
000755:
000756: 24,2666           35000        R22LEM46           CAF      2SECS
000757: 24,2667           02263                           TC       P20LEMWT   +1
000758:
000759:
000760: 24,2670           32711        N49DSP             CAF      V06N49NB
000761: 24,2671           04616                           TC       BANKCALL                              #  EXCESSIVE STATE VECTOR UPDATE - FLASH
000762: 24,2672           20362                           CADR     PRIODSP                               #  VERB 06 NOUN 49 R1=DELTA R, R2=DELTA V
000763: 24,2673           06022                           TC       GOTOV56                               #  TERMINATE - EXIT R22 AND P20
000764: 24,2674           44753                           CS       ONE                                   #  PROCEED - N49FLAG = -1
000765: 24,2675           55744                           TS       N49FLAG                               #  RECYCLE - N49FLAG = + VALUE
000766: 24,2676           05155                           TC       ENDOFJOB
000767: 24,2677           05353        R22RSTRT           TC       PHASCHNG                              #  IF A RESTART OCCURS WHILE READING RADAR
000768: 24,2700           00152                           OCT      00152                                 #  COME HERE TO TAKE A RANGE-RATE READING
000769: 24,2701           04616                           TC       BANKCALL                              #  WHICH ISNT USED TO PREVENT TAKING A BAD
000770: 24,2702           53103                           CADR     RRRDOT                                #  READING AND TRYING TO INCORPORATE THE
000771: 24,2703           04616                           TC       BANKCALL                              #  BAD DATA
000772: 24,2704           17667                           CADR     RADSTALL                              #  WAIT FOR READ COMPLETE
000773: 24,2705           02247                           TC       P20LEMC                               #  COULD NOT READ RADAR - TRY TO REDESIGNATE
000774: 24,2706           02477                           TC       R22LEM                                #  READ SUCCESSFUL - CONTINUE AT R22
000775:
000776:
000777: 24,2707           00525        ALRM525            OCT      00525
000778: 24,2710           01405        V06N05             VN       00605
000779: 24,2711           01461        V06N49NB           VN       00649
000780: 24,2712           02734        1500DEC            DEC      1500       B-14
000781: 24,2713           10624        45SECNDS           DEC      4500       B-14
000782:                                                                                                  #  LUNSFCHK-CLOSED SUBROUTINE TO CHECK IF ON LUNAR SURFACE (P22FLAG)
000783:                                                                                                  #           RETURNS TO CALLER +1 IF P22FLAG SET
000784:                                                                                                  #                   TO CALLER +2 IF P22FLAG NOT SET
000785:
000786:
000787: 24,2714                                           COUNT*   $$/P22
000788: 24,2714           40104        LUNSFCHK           CS       FLAGWRD8                              #  CHECK IF ON LUNAR SURFACE
000789: 24,2715           74744                           MASK     SURFFBIT                              #  IS SURFFLAG SET?
000790: 24,2716           10000                           CCS      A                                     #  BRANCH - P22FLAG SET
000791: 24,2717           24002                           INCR     Q                                     #  NOT SET
000792: 24,2720           00002                           TC       Q                                     #  RETURN
000793:


000795:                                                                                                  #  RR DESIGNATE ROUTINE (R21LEM)
000796:                                                                                                  #  PROGRAM DESCRIPTION
000797:                                                                                                  #  MOD NO - 2
000798:                                                                                                  #  BY P VOLANTE
000799:                                                                                                  #  FUNCTIONAL DESCRIPTION
000800:
000801:                                                                                                  #    TO POINT THE RENDEZVOUS RADAR AT THE CSM UNTIL AUTOMATIC ACQUISITION
000802:                                                                                                  #  OF THE CSM IS ACCOMPLISHED BY THE RADAR. ROUTINE IS CALLED BY P20.
000803:                                                                                                  #  CALLING SEQUENCE -
000804:                                                                                                  #           TC     BANKCALL
000805:                                                                                                  #           CADR   R21LEM
000806:                                                                                                  #  SUBROUTINES CALLED -
000807:                                                                                                  #    FINDVAC        FLAGUP           ENDOFJOB        PRIOLARM
000808:                                                                                                  #    NOVAC          INTPRET          LPS20.1         PHASCHNG
000809:                                                                                                  #    WAITLIST       JOBSLEEP         JOBWAKE         FLAGDOWN
000810:                                                                                                  #    TASKOVER       BANKCALL         RADSTALL        RRDESSM
000811:                                                                                                  #  NORMAL EXIT MODES
000812:                                                                                                  #    WHEN LOCK-ON IS ACHIEVED,BRANCH WILL BE TO P20 WHERE R22 (DATA READ
000813:                                                                                                  #  WILL BE SELECTED OR A NEED FOR A MANEUVER(BRANCH TO P20LEMA)
000814:                                                                                                  #  ALARM OR ABORT EXIT MODES-
000815:                                                                                                  #    PRIORITY ALARM 503 WHEN LOCK-ON HASN:T BEEN ACHIEVED AFTER 30SECS -
000816:                                                                                                  #  THIS REQUIRES ASTRONAUT INTERFACE- SELECTION OF SEARCH OPTION OF
000817:                                                                                                  #  ACQUISITION
000818:                                                                                                  #  OUTPUT
000819:                                                                                                  #    SEE LPS20.1,RRDESSM
000820:                                                                                                  #  ERASABLE INITIALIZATION REQUIRED
000821:                                                                                                  #    RRTARGET,RADMODES ARE USED BY LPS20.1 AND RRDESSM
000822:                                                                                                  #  FLAGS SET + RESET
000823:                                                                                                  #    LOSCMFLG      LOKONSW
000824:                                                                                                  #  DEBRIS
000825:                                                                                                  #    SEE LPS20.1,RRDESSM
000826: 24,2721  E7,1454                                  EBANK=   LOSCOUNT
000827: 24,2721                                           COUNT*   $$/R21
000828: 24,2721           32341        R21LEM             CAF      MAXTRIES                              #  ALLOW 60 PASSES (APPROX 45 SECS.) TO
000829: 24,2722           55114                           TS       DESCOUNT                              #  DESIGNATE AND LOCKON
000830: 24,2723           02714                           TC       LUNSFCHK
000831: 24,2724           02731                           TC       R21LEM5
000832: 24,2725           34755                           CAF      ZERO                                  #       COMMAND ANTENNA TO MODE CENTER
000833: 24,2726           55107                           TS       TANG                                  #  IF NOT ON SURFACE-MODE 1-(T=0,S=0)
000834: 24,2727           55110                           TS       TANG       +1
000835: 24,2730           02735                           TC       R21LEM6
000836: 24,2731           34735        R21LEM5            CAF      BIT15                                 #  IF ON LUNAR SURFACE-MODE 2-(T=180,S=-90)
000837: 24,2732           55107                           TS       TANG
000838: 24,2733           44736                           CS       HALF
000839: 24,2734           55110                           TS       TANG       +1
000840: 24,2735           05516        R21LEM6            TC       DOWNFLAG
000841: 24,2736           00012                           ADRES    LOKONSW
000842: 24,2737           04616                           TC       BANKCALL
000843: 24,2740           52475                           CADR     RRDESNB
000844: 24,2741           02742                           TC       +1
000845:


000847: 24,2742           04616                           TC       BANKCALL
000848: 24,2743           17667                           CADR     RADSTALL
000849: 24,2744           02777                           TC       R21-503                               #  BAD RETURN FROM DESIGNATE -ISSUE ALARM
000850: 24,2745           05504                           TC       UPFLAG                                #  INDICATES LOS TO BE COMPUTED
000851: 24,2746           00041                           ADRES    LOSCMFLG                              #  EVERY FOURTH PASS THRU DODES
000852: 24,2747           44736                           CS       BIT14                                 #  REMOVE RR SELF TRACK ENABLE
000853: 24,2750           00006                           EXTEND
000854: 24,2751           03012                           WAND     CHAN12
000855: 24,2752           36244        R21LEM2            CAF      THREE
000856: 24,2753           55454                           TS       LOSCOUNT
000857: 24,2754           06036        R21LEM1            TC       INTPRET
000858: 24,2755           43234                           RTB      DAD
000859: 24,2756           21462                                    LOADTIME
000860: 24,2757           11026                                    HALFSEC                               #  EXTRAPOLATE TO PRESENT TIME + .5 SEC.
000861: 24,2760           34041                           STCALL   TDEC1                                 #  LOS DETERMINATION ROUTINE
000862: 24,2761           51151                                    LPS20.1
000863: 24,2762           77776                           EXIT
000864: 24,2763           05504        R21LEM3            TC       UPFLAG                                #  SET LOKONSW TO RADAR-ON DESIRED
000865: 24,2764           00012                           ADRES    LOKONSW
000866: 24,2765           06036                           TC       INTPRET
000867: 24,2766           77624                           CALL                                           #  INPUT (RRTARGET UPDATED BY LPS20.1)
000868: 24,2767           52373                                    RRDESSM                               #  DESIGNATE ROUTINE
000869: 24,2770           77776                           EXIT
000870: 24,2771           03016                           TC       R21LEM4                               #  LOS NOT IN MODE 2 COVERAGE
000871:                                                                                                  #  ON LUNAR SURFACE
000872: 24,2772           02132                           TC       P20LEMA                               #  VEHICLE MANEUVER REQUIRED.
000873: 24,2773           04616                           TC       BANKCALL                              #  NO VEHICLE MANEUVER REQUIRED
000874: 24,2774           17667                           CADR     RADSTALL                              #  WAIT FOR DESIGNATE COMPLETE - LOCKON OR
000875: 24,2775           02777                           TC       +2                                    #  BADEND-LOCKON NOT ACHIEVED IN 60 TRIES
000876: 24,2776           03006                           TC       R21END                                #  EXIT ROUTINE RETURN TO P20 (LOCK-ON)
000877: 24,2777           33014        R21-503            CAF      ALRM503                               #  ISSUE ALARM 503
000878: 24,3000           04616                           TC       BANKCALL
000879: 24,3001           21451                           CADR     PRIOLARM
000880: 24,3002           06022                           TC       GOTOV56                               #  TERMINATE EXITS P20 VIA V56 CODING
000881: 24,3003           03011                           TC       R21SRCH                               #  PROC
000882: 24,3004           02232                           TC       P20LEMC3
000883: 24,3005           05155                           TC       ENDOFJOB
000884: 24,3006           05516        R21END             TC       DOWNFLAG
000885: 24,3007           00041                           ADRES    LOSCMFLG                              #  RESET LOSCMFLG
000886: 24,3010           02262                           TC       P20LEMWT                              #  EXIT R21 TO PERFORM DATA READ
000887: 24,3011           05353        R21SRCH            TC       PHASCHNG
000888: 24,3012           04022                           OCT      04022
000889: 24,3013           03100                           TC       R24LEM                                #  SEARCH ROUTINE
000890: 24,3014           00503        ALRM503            OCT      00503
000891: 24,3015           00527        ALRM527            OCT      527
000892:
000893:
000894: 24,3016           33015        R21LEM4            CAF      ALRM527                               #  ALARM 527-LOS NOT IN MODE 2 COVERAGE
000895: 24,3017           04616                           TC       BANKCALL                              #  ON LUNAR SURFACE
000896: 24,3020           21451                           CADR     PRIOLARM
000897:


000899: 24,3021           06022                           TC       GOTOV56                               #  TERMINATE EXITS P20 VIA V56 CODING
000900: 24,3022           02232                           TC       P20LEMC3
000901: 24,3023           03016                           TC       -5                                    #  ENTER
000902: 24,3024           05155                           TC       ENDOFJOB
000903: 24,3025           00000 00062  HALFSEC            2DEC     50         B-28
000904:


000906:                                                                                                  #  MANUAL ACQUISITION ROUTINE R23LEM
000907:                                                                                                  #  PROGRAM DESCRIPTION
000908:                                                                                                  #  MOD NO - 2
000909:                                                                                                  #  BY P VOLANTE
000910:                                                                                                  #  FUNCTIONAL DESCRIPTION
000911:
000912:                                                                                                  #    TO ACQUIRE THE CSM BY MANUAL OPERATION OF THE RENDEZVOUS RADAR
000913:                                                                                                  #  CALLING SEQUENCE -
000914:                                                                                                  #           TC     R23LEM
000915:                                                                                                  #  SUBROUTINES CALLED
000916:                                                                                                  #    BANKCALL        R61LEM
000917:                                                                                                  #    SETMINDB        GOPERF1
000918:                                                                                                  #  NORMAL EXIT MODES -
000919:                                                                                                  #    IN RESPONSE TO THE GOPERF1 ,SELECTION OF ENTER WILL RECYCLE R23
000920:                                                                                                  #                               ,SELECTION OF PROC  WILL CONTINUE R23
000921:                                                                                                  #                               ,SELECTION OF TERM  WILL TERMINATE R23 +P20
000922:                                                                                                  #  ALARM OR ABORT EXIT MODES -
000923:                                                                                                  #    SEE NORMAL EXIT MODES ABOVE
000924:                                                                                                  #  OUTPUT
000925:                                                                                                  #    N.A.
000926:                                                                                                  #  ERASABLE INITIALIZATION REQUIRED-
000927:                                                                                                  #    ACMODFLG MUST BE SET TO 1 (MANUAL MODE)
000928: 24,3027     1143                                  EBANK=   GENRET
000929: 24,3027                                           COUNT*   $$/R23
000930: 24,3027           05504        R23LEM             TC       UPFLAG                                #  SET NO ANGLE MONITOR FLAG
000931: 24,3030           00126                           ADRES    NORRMON
000932: 24,3031           00004                           INHINT
000933: 24,3032           04674                           TC       IBNKCALL                              #  SELECT MINIMUM DEADBAND
000934: 24,3033           40140                           CADR     SETMINDB
000935: 24,3034           00003                           RELINT
000936: 24,3035           34736        R23LEM1            CAF      BIT14                                 #  ENABLE TRACKER
000937: 24,3036           00006                           EXTEND
000938: 24,3037           05012                           WOR      CHAN12
000939: 24,3040           33077                           CAF      OCT205
000940: 24,3041           04616                           TC       BANKCALL
000941: 24,3042           20476                           CADR     GOPERF1
000942: 24,3043           03070                           TC       R23LEM2                               #  TERMINATE
000943: 24,3044           03046                           TC       R23LEM11                              #  PROCEDE
000944: 24,3045           03073                           TC       R23LEM3                               #  ENTER- DO ANOTHER MANUVER
000945: 24,3046           00004        R23LEM11           INHINT
000946: 24,3047           04523                           TC       RRLIMCHK                              #  YES - CHECK IF ANTENNA IS WITHIN LIMITS
000947: 24,3050           00035                           ADRES    CDUT
000948: 24,3051           03060                           TC       OUTOFLIM                              #  NOT WITHIN LIMITS
000949: 24,3052           04674                           TC       IBNKCALL                              #  RESTORE DEADBAND TO
000950: 24,3053           40123                           CADR     RESTORDB                              #  ASTRONAUT SELECTED VALUE
000951: 24,3054           00003                           RELINT
000952: 24,3055           05516                           TC       DOWNFLAG                              #  CLEAR NO ANGLE MONITOR FLAG
000953: 24,3056           00126                           ADRES    NORRMON
000954: 24,3057           02204                           TC       P20LEMB1                              #  RADAR IS LOCKED ON CONTINUE IN P20
000955: 24,3060           00003        OUTOFLIM           RELINT
000956:


000958: 24,3061           33076                           CAF      OCT501PV
000959: 24,3062           04616                           TC       BANKCALL                              #  ISSUE ALARM - RR ANTENNA NOT WITHIN
000960: 24,3063           21451                           CADR     PRIOLARM                              #  LIMITS
000961: 24,3064           03070                           TC       R23LEM2                               #  TERMINATE - EXIT R23 TO R00 (GO TO POOH)
000962: 24,3065           03061                           TC       OUTOFLIM   +1                         #  PROCEED ILLEGAL
000963: 24,3066           03073                           TC       R23LEM3                               #  RECYCLE- DO ANOTHER MANUVER
000964: 24,3067           05155                           TC       ENDOFJOB
000965: 24,3070           05516        R23LEM2            TC       DOWNFLAG                              #  CLEAR NO ANGLE MONITOR FLAG
000966: 24,3071           00126                           ADRES    NORRMON
000967: 24,3072           06022                           TC       GOTOV56                               #  AND EXIT VIA V56
000968: 24,3073           04616        R23LEM3            TC       BANKCALL
000969: 24,3074           46100                           CADR     R61LEM
000970: 24,3075           03035                           TC       R23LEM1
000971:
000972: 24,3076           00501        OCT501PV           OCT      501
000973: 24,3077           00205        OCT205             OCT      205
000974:


000976:                                                                                                  #  SEARCH ROUTINE R24LEM
000977:                                                                                                  #  PROGRAM DESCRIPTION
000978:                                                                                                  #  MOD NO - 2
000979:                                                                                                  #  BY  P. VOLANTE
000980:                                                                                                  #  FUNCTIONAL DESCRIPTION
000981:
000982:                                                                                                  #    TO ACQUIRE THE CSM BY A SEARCH PATTERN WHEN THE RENDEZVOUS RADAR HAS
000983:                                                                                                  #  FAILED TO ACQUIRE THE CSM IN THE AUTOMATIC TRACKING MODE AND TO ALLOW
000984:                                                                                                  #  THE ASTRONAUT TO CONFIRM THAT REACQUISITION HAS NOT BEEN BY SIDELOBE.
000985:                                                                                                  #  CALLING SEQUENCE
000986:                                                                                                  #           CAF    PRIONN
000987:                                                                                                  #           TC     FINDVAC
000988:                                                                                                  #           EBANK= DATAGOOD
000989:                                                                                                  #           2CADR  R24LEM
000990:                                                                                                  #  SUBROUTINES CALLED
000991:                                                                                                  #    FLAGUP        FLAGDOWN      BANKCALL
000992:                                                                                                  #    R61LEM        GOFLASHR      FINDVAC
000993:                                                                                                  #    ENDOFJOB      NOVAC         LSR24.1
000994:                                                                                                  #  NORMAL EXIT MODES-
000995:                                                                                                  #    ASTRONAUT RESPONSE TO DISPLAY OF OMEGA AND DATAGOOD.HE CAN EITHER
000996:                                                                                                  #  REJECT BY TERMINATING (SEARCH OPTION AND RESELECTING P20) OR ACCEPT BY
000997:                                                                                                  #  PROCEEDING (EXIT ROUTINE AND RETURN TO AUTO MODE IN P20)
000998:                                                                                                  #  ALARM OR ABORT EXIT MODES-
000999:                                                                                                  #    SEE NORMAL EXIT MODES ABOVE
001000:                                                                                                  #  OUTPUT -
001001:                                                                                                  #    SEE OUTPUT FROM LSR24.1 + R61LEM
001002:                                                                                                  #  ERASABLE INITIALIZATION REQUIRED
001003:                                                                                                  #    SEE INPUT FOR LSR24.1
001004:                                                                                                  #  FLAGS SET + RESET
001005:                                                                                                  #    SRCHOPT,ACMODFLG
001006: 24,3100  E7,1731                                  EBANK=   DATAGOOD
001007: 24,3100                                           COUNT*   $$/R24
001008: 24,3100           05504        R24LEM             TC       UPFLAG
001009: 24,3101           00037                           ADRES    SRCHOPTN                              #  SET SRCHOPT FLAG
001010: 24,3102           05516                           TC       DOWNFLAG                              #  RESET LOS BEING COMPUTED FLAG TO MAKE
001011: 24,3103           00041                           ADRES    LOSCMFLG                              #  SURE DODES DOESN'T GO TO R21
001012: 24,3104           34755        R24LEM1            CAF      ZERO
001013: 24,3105           55731                           TS       DATAGOOD                              #  ZERO OUT DATA INDICATOR
001014: 24,3106           55732                           TS       OMEGAD                                #  ZERO OMEGA DISPLAY REGS
001015: 24,3107           55733                           TS       OMEGAD     +1                         #  ZERO OMEGA DISPLAY REGS
001016: 24,3110           05353        R24LEM2            TC       PHASCHNG
001017: 24,3111           04022                           OCT      04022
001018: 24,3112           33150                           CAF      V16N80
001019: 24,3113           04616                           TC       BANKCALL
001020: 24,3114           20357                           CADR     PRIODSPR
001021: 24,3115           06022                           TC       GOTOV56
001022: 24,3116           03122                           TC       R24END                                #  PROCEED EXIT R24 TO P20LEM1
001023:
001024:
001025: 24,3117           03127                           TC       R24LEM3                               #  RECYCLE - CALL R61 TO MANEUVER S/C
001026:


001028: 24,3120           04616                           TC       BANKCALL
001029: 24,3121           55405                           CADR     LRS24.1
001030: 24,3122           00004        R24END             INHINT
001031: 24,3123           06027                           TC       KILLTASK
001032: 24,3124           55605                           CADR     CALLDGCH
001033: 24,3125           06011                           TC       CLRADMOD                              #  CLEAR BITS 10 & 15 OF RADMODES.
001034: 24,3126           12104                           TCF      P20LEM1                               #  AND GO TO 400 MI. RANGE CHECK IN P20.
001035:
001036:    6011                                           BLOCK    3
001037:    6000                                           SETLOC   FFTAG6
001038:    6000                                           BANK
001039:    6011                                           COUNT*   $$/R24
001040:
001041:    6011           46021        CLRADMOD           CS       BIT10+15
001042:    6012           00004                           INHINT
001043:    6013           70110                           MASK     RADMODES
001044:    6014           54110                           TS       RADMODES
001045:    6015           44752                           CS       BIT2                                  #  DISABLE RR ERROR COUNTERS
001046:    6016           00006                           EXTEND
001047:    6017           03012                           WAND     CHAN12                                #  USER WILL RELINT
001048:
001049:    6020           00002                           TC       Q
001050:
001051:    6021           41000        BIT10+15           OCT      41000
001052: 24,3127                                           BANK     24
001053: 24,2000                                           SETLOC   P20S
001054: 24,2000                                           BANK
001055: 24,3127                                           COUNT*   $$/R24
001056:
001057: 24,3127           05353        R24LEM3            TC       PHASCHNG
001058: 24,3130           04022                           OCT      04022
001059: 24,3131           00004                           INHINT
001060: 24,3132           06027                           TC       KILLTASK
001061: 24,3133           55605                           CADR     CALLDGCH                              #  KILL WAITLIST FOR NEXT POINT IN PATTERN
001062: 24,3134           06011                           TC       CLRADMOD                              #  CLEAR BITS 10 + 15 OF RADMODES TO KILL
001063: 24,3135           00003                           RELINT                                         #  HALF SECOND DESIGNATE LOOP
001064: 24,3136           34774                           CAF      .5SEC
001065: 24,3137           04616                           TC       BANKCALL                              #  WAIT FOR DESIGNATE LOOP TO DIE
001066: 24,3140           01735                           CADR     DELAYJOB
001067: 24,3141           02714                           TC       LUNSFCHK                              #  CHECK IF ON LUNAR SURFACE
001068: 24,3142           03110                           TC       R24LEM2                               #  YES-DONT DO ATTITUDE MANEUVER
001069: 24,3143           04616                           TC       BANKCALL                              #  CALL R61 TO DO PREFERRED TRACKING
001070: 24,3144           46100                           CADR     R61LEM                                #  ATTITUDE MANEUVER
001071: 24,3145           34755                           CAF      ZERO                                  #  ZERO OUT RADCADR (WHICH WAS SET BY
001072: 24,3146           55306                           TS       RADCADR                               #  ENDRADAR WHEN DESIGNATE STOPPED) SO THAT
001073:                                                                                                  #  RRDESSM WILL RETURN TO CALLER
001074: 24,3147           03110                           TC       R24LEM2                               #  AND GO BACK TO PUT UP V16 N80 DISPLAY
001075:


001077: 24,3150           04120        V16N80             VN       01680
001078:


001080:                                                                                                  #  PREFERRED TRACKING ATTITUDE ROUTINE R61LEM
001081:                                                                                                  #  PROGRAM DESCRIPTION
001082:                                                                                                  #  MOD NO : 3                      DATE : 4-11-67
001083:                                                                                                  #  MOD BY : P VOLANTE  SDC
001084:
001085:
001086:                                                                                                  #  FUNCTIONAL DESCRIPTION-
001087:                                                                                                  #    TO COMPUTE THE PREFERRED TRACKING ATTITUDE OF THE LM TO ENABLE RR
001088:                                                                                                  #  TRACKING OF THE CSM AND TO PERFORM THE MANEUVER TO THE PREFERRED
001089:                                                                                                  #  ATTITUDE.
001090:                                                                                                  #  CALLING SEQUENCE-
001091:                                                                                                  #           TC     BANKCALL
001092:                                                                                                  #           CADR   R61LEM
001093:                                                                                                  #  SUBROUTINES CALLED
001094:                                                                                                  #      LPS20.1       VECPOINT
001095:                                                                                                  #      KALCMAN3
001096:
001097:
001098:                                                                                                  #  NORMAL EXIT MODES-
001099:                                                                                                  #    NORMAL RETURN IS TO CALLER + 1
001100:                                                                                                  #  ALARM OR ABORT EXIT MODES-
001101:                                                                                                  #    TERMINATE P20 + R61 BY BRANCHING TO P20END IF BOTH TRACKFLAG +
001102:                                                                                                  #  RENDEZVOUS FLAG ARE NOT SET.
001103:                                                                                                  #  OUTPUT -
001104:                                                                                                  #    SEE OUTPUT FOR LPS20.1 + ATTITUDE MANEUVER ROUTINE (R60)
001105:                                                                                                  #  ERASABLE INITIALIZATION REQUIRED
001106:                                                                                                  #    GENRET USED TO SAVE Q FOR RETURN
001107:                                                                                                  #  FLAGS SET + RESET
001108:                                                                                                  #    3AXISFLG
001109:                                                                                                  #  DEBRIS
001110:                                                                                                  #    SEE SUBROUTINES
001111: 23,2000                                           SETLOC   R61
001112: 23,2000                                           BANK
001113: 23,2100  E7,1454                                  EBANK=   LOSCOUNT
001114: 23,2100                                           COUNT*   $$/R61
001115: 23,2100           04645        R61LEM             TC       MAKECADR
001116: 23,2101           55143                           TS       GENRET
001117: 23,2102           05504                           TC       UPFLAG                                #  SET R61 FLAG
001118: 23,2103           00024                           ADRES    R61FLAG
001119: 23,2104           02111                           TC       R61C+L01
001120: 23,2105           04645        R65LEM             TC       MAKECADR
001121: 23,2106           55143                           TS       GENRET
001122: 23,2107           05516                           TC       DOWNFLAG                              #  RESET R61 FLAG
001123: 23,2110           00024                           ADRES    R61FLAG
001124: 23,2111           34747        R61C+L01           CAF      TRACKBIT                              #  TRACKFLAG
001125: 23,2112           70075                           MASK     STATE      +1
001126: 23,2113           00006                           EXTEND
001127: 23,2114           12262                           BZF      R61C+L1                               #  NOT SET
001128: 23,2115           06036        R61C+L03           TC       INTPRET                               #  SET
001129: 23,2116           77775                           VLOAD
001130:


001132: 23,2117           06416                                    HIUNITZ
001133: 23,2120           03761                           STORE    SCAXIS                                #  TRACK AXIS UNIT VECTOR
001134: 23,2121           77634                           RTB
001135: 23,2122           21462                                    LOADTIME                              #  PRESENT TIME
001136: 23,2123           77615                           DAD                                            #  EXTRAPULATE FORWARD FORWARD TO CENTER OF
001137: 23,2124           15654                                    3SECONDS                              #  SIX SECOND PERIOD.
001138: 23,2125           34041                           STCALL   TDEC1
001139: 23,2126           51151                                    LPS20.1                               #  LOS DETERMINATION + VEH ATTITUDE
001140: 23,2127           77775                           VLOAD
001141: 23,2130           01102                                    RRTARGET
001142: 23,2131           03767                           STORE    POINTVSM                              #  DIRECTION IN WHICH TRACK AXIS IS TO BE
001143: 23,2132           77624                           CALL
001144: 23,2133           56016                                    VECPOINT                              #  TO COMPUTE FINAL ANGLES
001145: 23,2134           00322                           STORE    CPHI                                  #  STORE FINAL ANGLES - CPHI,CTHETA,CPSI
001146: 23,2135           77776                           EXIT
001147: 23,2136           05353                           TC       PHASCHNG
001148: 23,2137           04022                           OCT      04022
001149: 23,2140           34747                           CAF      TRACKBIT                              #   IS TRACK FLAG SET
001150: 23,2141           70075                           MASK     FLAGWRD1
001151: 23,2142           00006                           EXTEND
001152: 23,2143           12262                           BZF      R61C+L1                               #  BRANCH - NO SKIP THIS CYCLE OF R61/65
001153: 23,2144           00006                           EXTEND
001154: 23,2145           00030                           READ     CHAN30                                #  CHECK AUTO MODE
001155: 23,2146           74742                           MASK     BIT10
001156: 23,2147           10000                           CCS      A
001157: 23,2150           02255                           TC       R61C+L04                              #  NOT IN G+N  C(A) = +
001158: 23,2151           00006                           EXTEND
001159: 23,2152           00031                           READ     CHAN31
001160: 23,2153           74736                           MASK     BIT14                                 #  (+) = NOT IN AUTO, (+0) =AOK
001161: 23,2154           10000                           CCS      A
001162: 23,2155           02255                           TC       R61C+L04                              #  NOT IN AUTO MODE
001163: 23,2156           06036                           TC       INTPRET
001164: 23,2157           45175                           VLOAD    CALL
001165: 23,2160           01102                                    RRTARGET
001166: 23,2161           47552                                    CDU*SMNB
001167: 23,2162           65545                           DLOAD    ACOS
001168: 23,2163           00162                                    MPAC       +5
001169: 23,2164           14025                           STODL    PHI
001170: 23,2165           06271                                    TENDEG
001171: 23,2166           51021                           BDSU     BPL
001172: 23,2167           00025                                    PHI
001173: 23,2170           46206                                    R61C+L05                              #  PHI GRE 10DEG
001174: 23,2171  E6,1633                                  EBANK=   CDUXD
001175: 23,2171           77776                           EXIT
001176: 23,2172           32273                           CAF      CDUBANK
001177: 23,2173           54006                           TS       BBANK
001178: 23,2174           00004                           INHINT
001179: 23,2175           00006                           EXTEND
001180: 23,2176           30322                           DCA      CPHI
001181: 23,2177           53634                           DXCH     CDUXD
001182:


001184: 23,2200           30323                           CA       CPSI
001185: 23,2201           55635                           TS       CDUZD
001186: 23,2202           00003                           RELINT
001187: 23,2203  E7,1454                                  EBANK=   LOSCOUNT
001188: 23,2203           32274                           CAF      R61BANK
001189: 23,2204           54006                           TS       BBANK
001190: 23,2205           02231                           TC       R61C+L06
001191: 23,2206           77776        R61C+L05           EXIT
001192: 23,2207           00004                           INHINT
001193: 23,2210           04674                           TC       IBNKCALL
001194: 23,2211           40153                           FCADR    ZATTEROR
001195: 23,2212           04674                           TC       IBNKCALL
001196: 23,2213           40140                           FCADR    SETMINDB                              #  REDUCE ATTITUDE ERROR
001197: 23,2214           05516                           TC       DOWNFLAG
001198: 23,2215           00124                           ADRES    3AXISFLG
001199: 23,2216           05504                           TC       UPFLAG
001200: 23,2217           00077                           ADRES    PDSPFLAG                              #  SET PRIORITY DISPLAY FLAG
001201: 23,2220           04616                           TC       BANKCALL
001202: 23,2221           54101                           CADR     R60LEM
001203: 23,2222           00004                           INHINT
001204: 23,2223           04674                           TC       IBNKCALL
001205: 23,2224           40123                           FCADR    RESTORDB
001206: 23,2225           05353                           TC       PHASCHNG
001207: 23,2226           04022                           OCT      04022
001208: 23,2227           05516                           TC       DOWNFLAG
001209: 23,2230           00077                           ADRES    PDSPFLAG                              #  RESET PRIORITY DISPLAY FLAG
001210: 23,2231           34742        R61C+L06           CAF      R61FLBIT
001211: 23,2232           70075                           MASK     STATE      +1
001212: 23,2233           00006                           EXTEND
001213: 23,2234           12236                           BZF      +2
001214: 23,2235           02260                           TC       R61C+L4
001215: 23,2236           31743                           CA       R65CNTR
001216: 23,2237           10000                           CCS      A
001217: 23,2240           02242                           TC       +2
001218: 23,2241           02260                           TC       R61C+L4                               #  R65CNTR = 0 - EXIT ROUTINE
001219: 23,2242           55743                           TS       R65CNTR
001220: 23,2243           32272                           CAF      06SEC
001221: 23,2244           00004                           INHINT
001222: 23,2245           05173                           TC       TWIDDLE
001223: 23,2246           02250                           ADRES    R61C+L2
001224: 23,2247           05155                           TC       ENDOFJOB
001225: 23,2250           37713        R61C+L2            CAF      PRIO26
001226: 23,2251           05105                           TC       FINDVAC
001227: 23,2252  E7,1454                                  EBANK=   LOSCOUNT
001228: 23,2252           02111 46067                     2CADR    R61C+L01
001229: 23,2254           05261                           TC       TASKOVER
001230: 23,2255           04616        R61C+L04           TC       BANKCALL                              #  TO CONVERT ANGLES TO FDAI
001231: 23,2256           54244                           CADR     BALLANGS
001232: 23,2257           02231                           TC       R61C+L06
001233:


001235: 23,2260           31143        R61C+L4            CAE      GENRET
001236: 23,2261           14640                           TCF      BANKJUMP                              #  EXIT R61
001237: 23,2262           32267        R61C+L1            CAF      BIT7+9PV                              #  IS RENDEZVOUS OR P25FLAG SET
001238: 23,2263           70074                           MASK     STATE
001239: 23,2264           00006                           EXTEND
001240: 23,2265           15155                           BZF      ENDOFJOB                              #  NO-EXIT ROUTINE AND PROGRAM.
001241: 23,2266           02231                           TC       R61C+L06                              #  YES EXIT ROUTINE
001242: 23,2267           00500        BIT7+9PV           OCT      00500
001243: 23,2270           00707 03432  TENDEG             2DEC     .02777777                             #  SCALED UNITS OF REVOLUTION B0
001244: 23,2272           01130        06SEC              DEC      600        B-14
001245: 23,2273                        PHI                EQUALS   20D
001246: 23,2273  E6,1633                                  EBANK=   CDUXD
001247: 23,2273           46066        CDUBANK            BBCON    R61C+L05
001248: 23,2274  E7,1454                                  EBANK=   LOSCOUNT
001249: 23,2274           46067        R61BANK            BBCON    R61C+L05
001250:    4512                                           BLOCK    02
001251:    4000                                           SETLOC   RADARFF
001252:    4000                                           BANK
001253:
001254:    4512  E7,1454                                  EBANK=   LOSCOUNT
001255:    4512                                           COUNT*   $$/RRSUB
001256:


001258:                                                                                                  #  THE FOLLOWING SUBROUTINE RETURNS TO CALLER + 2 IF THE ABSOLUTE VALUE OF VALUE OF C(A) IS GREATER THAN THE
001259:                                                                                                  #  NEGATIVE OF THE NUMBER AT CALLER +1. OTHERWISE IT RETURNS TO CALLER +3. MAY BE CALLED IN RUPT OR UNDER EXEC.
001260:
001261:    4512           00006        MAGSUB             EXTEND
001262:    4513           64515                           BZMF     +2
001263:    4514           14516                           TCF      +2
001264:    4515           40000                           COM
001265:
001266:    4516           50002                           INDEX    Q
001267:    4517           60000                           AD       0
001268:    4520           00006                           EXTEND
001269:    4521           66740                           BZMF     Q+2                                   #  ABS(A) <= CONST GO TO L+3
001270:    4522           16736                           TCF      Q+1                                   #  ABS(A) >  CONST GO TO L+2
001271:


001273:                                                                                                  #  PROGRAM NAME_  RRLIMCHK                                                  ARE IN THE LIMITS OF THE CURRENT MODE.
001274:
001275:                                                                                                  #  FUNCTIONAL DESCRIPTION_
001276:                                                                                                  #  RRLIMCHK CHECKS RR DESIRED GIMBAL ANGLES TO SEE IF THEY ARE WITHIN
001277:                                                                                                  #  THE LIMITS OF THE CURRENT MODE. INITIALLY THE DESIRED TRUNNION AND
001278:                                                                                                  #  SHAFT ANGLES ARE STORED IN ITEMP1 AND ITEMP2. THE CURRENT RR
001279:                                                                                                  #  ANTENNAE MODE (RADMODES BIT 12) IS CHECKED WHICH IS = 0 FOR
001280:                                                                                                  #  MODE 1 AND =1 FOR MODE 2.
001281:                                                                                                  #  MODE 1 - THE TRUNNION ANGLE IS CHECKED AT MAGSUB TO SEE IF IT IS
001282:                                                                                                  #  BETWEEN -55 AND +55 DEGREES. IF NOT, RETURN TO L +2. IF WITHIN LIMITS,
001283:                                                                                                  #  THE SHAFT ANGLE IS CHECKED TO SEE IF IT IS BETWEEN -70 AND +59 DEGREES.
001284:                                                                                                  #  IF NOT, RETURN TO L +2. IF IN LIMITS, RETURN TO L +3.
001285:                                                                                                  #  MODE 2 - THE SHAFT ANGLE IS CHECKED AT MAGSUB TO SEE IF IT IS
001286:                                                                                                  #  BETWEEN -139 AND -25 DEGREES. IF NOT, RETURN TO L +2. IF WITHIN
001287:                                                                                                  #  LIMITS, THE TRUNNION ANGLE IS CHECKED TO SEE IF IT IS BETWEEN +125
001288:                                                                                                  #  AND -125 (+235) DEGREES. IF NOT, RETURN TO L +2. IF IN LIMITS, RETURN
001289:                                                                                                  #  TO L +3.
001290:
001291:                                                                                                  #  CALLING SEQUENCE:
001292:                                                                                                  #  L  TC  RRLIMCHK (WITH INTERRUPT INHIBITED)
001293:                                                                                                  #  L +1  ADRES  T,S  (DESIRED TRUNNION ANGLE ADDRESS)
001294:
001295:                                                                                                  #  ERASABLE INITIALIZATION REQUIRED:
001296:                                                                                                  #  RADMODES, MODEA, MODEB (OR DESIRED TRUNNION AND SHAFT
001297:                                                                                                  #  ANGLES ELSEWHERE IN CONSECUTIVE LOCATIONS - UNSWITCHED ERASABLE OR
001298:                                                                                                  #  CURRENT EBANK).
001299:
001300:                                                                                                  #  SUBROUTINES CALLED_  MAGSUB
001301:
001302:                                                                                                  #  JOBS OR TASKS INITIATED_  NONE
001303:
001304:                                                                                                  #  ALARMS_  NONE
001305:
001306:                                                                                                  #  EXIT_  L + 2 (EITHER OR BOTH ANGLES NOT WITHIN LIMITS OF CURRENT MODE)
001307:                                                                                                  #  L + 3 (BOTH ANGLES WITHIN LIMITS OF CURRENT MODE)
001308:
001309:    4523           00006        RRLIMCHK           EXTEND
001310:    4524           50002                           INDEX    Q
001311:    4525           50000                           INDEX    0
001312:    4526           30001                           DCA      0
001313:    4527           24002                           INCR     Q
001314:    4530           52062                           DXCH     ITEMP1
001315:    4531           22002                           LXCH     Q                                     #  L(CALLER +2) TO L.
001316:
001317:    4532           34740                           CAF      BIT12                                 #  SEE WHICH MODE RR IS IN.
001318:    4533           70110                           MASK     RADMODES
001319:    4534           10000                           CCS      A
001320:    4535           14550                           TCF      MODE2CHK
001321:
001322:    4536           30061                           CA       ITEMP1                                #  MODE 1 IS DEFINED AS
001323:


001325:    4537           04512                           TC       MAGSUB                                #      1. ABS(T) L 55 DEGS.
001326:    4540           66161                           DEC      -.30555                               #      2. ABS(S + 5.5 DEGS) L 64.5 DEGS
001327:    4541           00001                           TC       L                                     #          (SHAFT LIMITS AT +59, -70 DEGS)
001328:
001329:    4542           34562                           CAF      5.5DEGS
001330:    4543           60062                           AD       ITEMP2                                #  S
001331:    4544           04512                           TC       MAGSUB
001332:    4545           64420                           DEC      -.35833                               #  64.5 DEGS
001333:    4546           00001                           TC       L
001334:    4547           04560                           TC       RRLIMOK                               #  IN LIMITS.
001335:
001336:    4550           34563        MODE2CHK           CAF      82DEGS                                #  MODE 2 IS DEFINED AS
001337:    4551           60062                           AD       ITEMP2                                #      1. ABS(T) G 125 DEGS.
001338:    4552           04512                           TC       MAGSUB                                #      2. ABS(S + 82 DEGS) L 57 DEGS
001339:    4553           65673                           DEC      -.31667                               #          (SHAFT LIMITS AT -25, -139 DEGS)
001340:    4554           00001                           TC       L
001341:
001342:    4555           30061                           CA       ITEMP1
001343:    4556           04512                           TC       MAGSUB
001344:    4557           51615                           DEC      -.69444                               #  125 DEGS
001345:
001346:    4560           50001        RRLIMOK            INDEX    L
001347:    4561           00001                           TC       L                                     #  ( = TC 1 )
001348:
001349:    4562           00765        5.5DEGS            DEC      .03056
001350:    4563           16450        82DEGS             DEC      .45556
001351:


001353:                                                                                                  #  PROGRAM NAME_  SETTRKF                                                  . IF EITHER:
001354:
001355:                                                                                                  #  FUNCTIONAL DESCRIPTION_
001356:                                                                                                  #  SETTRKF UPDATES THE TRACKER FAIL LAMP ON THE DSKY.                      HER THE ALT OR VEL INFORMATION.
001357:                                                                                                  #  INITIALLY THE LAMP TEST FLAG (IMODES33 BIT 1) IS CHECKED.
001358:                                                                                                  #  IF A LAMP TEST IS IN PROGRESS, THE PROGRAM EXITS TO L +1.
001359:                                                                                                  #  IF NO LAMP TEST THE FOLLOWING IS CHECKED SEQUENTIALLY_
001360:                                                                                                  #  1) RR CDU:S BEING ZEROED, RR CDU OK, AND RR NOT IN
001361:                                                                                                  #  AUTO MODE (RADMODES BITS 13, 7, 2).
001362:                                                                                                  #  2) LR VEL DATA FAIL AND NO LR POS DATA (RADMODES BITS
001363:                                                                                                  #  8,5)
001364:                                                                                                  #  3) NO RR DATA (RADMODES BIT 4)
001365:                                                                                                  #  THE ABSENCE OF ALL THREE SIMULTANEOUSLY IN (1), THE PRESENCE OF BOTH
001366:                                                                                                  #  IN (2), AND THE PRESENCE OF (3) RESULTS IN EITHER THE TRACKER FAIL
001367:                                                                                                  #  LAMP (DSPTAB +11D BIT 8) BEING TURNED ON OR LEFT ON. OTHERWISE,
001368:                                                                                                  #  THE TRACKER FAIL LAMP IS TURNED OFF OR IS LEFT OFF. THEREFORE, THE
001369:                                                                                                  #  TRACKER FAIL LAMP IS TURNED ON IF_
001370:                                                                                                  #  A ) RR CDU FAILED WITH RR IN AUTO MODE AND RR CDU:S NOT BEING ZEROED.
001371:                                                                                                  #  B) N SAMPLES OF LR DATA COULD NOT BE TAKEN IN 2N TRIES WITH
001372:                                                                                                  #  EITHER THE ALT OR VEL INFORMATION
001373:                                                                                                  #  C) N SAMPLES OF RR DATA COULD NOT BE OBTAINED FROM 2N TRIES
001374:                                                                                                  #  WITH EITHER THE AL
001375:
001376:                                                                                                  #  CALLING SEQUENCE:
001377:                                                                                                  #  L  TC  SETTRKF
001378:
001379:                                                                                                  #  ERASABLE INITIALIZATION REQUIRED: IMODES33, RADMODES, DSPTAB +11D
001380:                                                                                                  #  SUBROUTINES CALLED_  NONE
001381:
001382:                                                                                                  #  JOBS OR TASKS INITIATED_  NONE
001383:
001384:                                                                                                  #  ALARMS_  TRACKER FAIL LAMP
001385:
001386:                                                                                                  #  EXIT_  L +1 (ALWAYS)                                                    ED.
001387:
001388:    4564           34753        SETTRKF            CAF      BIT1                                  #  NO ACTION IF DURING LAMP TEST.
001389:    4565           71303                           MASK     IMODES33
001390:    4566           10000                           CCS      A
001391:    4567           00002                           TC       Q
001392:
001393:    4570           34744        RRTRKF             CA       BIT8
001394:    4571           54001                           TS       L
001395:
001396:    4572           34615                           CAF      13,7,2                                #  SEE IF CDU FAILED.
001397:    4573           70110                           MASK     RADMODES
001398:    4574           00006                           EXTEND
001399:    4575           14601                           BZF      TRKFLON                               #  CONDITION 3 ABOVE.
001400:
001401:    4576           34750        RRCHECK            CAF      BIT4                                  #  SEE IF RR DATA FAILED.
001402:    4577           70110                           MASK     RADMODES
001403:


001405:    4600           10000                           CCS      A
001406:    4601           30001        TRKFLON            CA       L
001407:    4602           61036                           AD       DSPTAB     +11D                       #  HALF ADD DESIRED AND PRESENT STATES.
001408:    4603           70001                           MASK     L
001409:    4604           00006                           EXTEND
001410:    4605           16741                           BZF      TCQ                                   #  NO CHANGE.
001411:
001412:    4606           31036        FLIP               CA       DSPTAB     +11D                       #  CANT USE LXCH DSPTAB +11D (RESTART PROB)
001413:    4607           00006                           EXTEND
001414:    4610           06001                           RXOR     LCHAN
001415:    4611           74733                           MASK     POSMAX
001416:    4612           64735                           AD       BIT15
001417:    4613           55036                           TS       DSPTAB     +11D
001418:    4614           00002                           TC       Q
001419:
001420:    4615           10102        13,7,2             OCT      10102
001421:    4616                        ENDRMODF           EQUALS
001422:


001424:                                                                                                  #  PROGRAM NAME_  RRTURNON
001425:
001426:                                                                                                  #  FUNCTIONAL DESCRIPTION_
001427:
001428:                                                                                                  #  RRTURNON IS THE TURN-ON SEQUENCE WHICH, ALONG WITH
001429:                                                                                                  #  RRZEROSB, ZEROS THE CDU:S AND DETERMINES THE RR MODE.
001430:                                                                                                  #  INITIALLY, CONTROL IS TRANSFERRED TO RRZEROSB FOR THE
001431:                                                                                                  #  ACTUAL TURN-ON SEQUENCE. UPON RETURN THE PROGRAM
001432:                                                                                                  #  WAITS 1 SECOND BEFORE REMOVING THE TURN-ON FLAG
001433:                                                                                                  #  (RADMODES BIT1) SO THE REPOSITION ROUTINE WON:T
001434:                                                                                                  #  INITIATE PROGRAM ALARM 00501. A CHECK IS THEN MADE
001435:                                                                                                  #  TO SEE IF A PROGRAM IS USING THE RR (STATE BIT 7). IF
001436:                                                                                                  #  SO, THE PROGRAM EXITS TO ENDRADAR SO THAT THE RR CDU
001437:                                                                                                  #  FAIL FLAG (RADMODES BIT 7) CAN BE CHECKED BEFORE
001438:                                                                                                  #  RETURNING TO THE WAITING PROGRAM. IF NOT, THE PROGRAM EXITS
001439:                                                                                                  #  TO TASKOVER.
001440:
001441:                                                                                                  #  CALLING SEQUENCE: WAITLIST TASK FROM RRAUTCHK IF THE RR POWER ON AUTO
001442:                                                                                                  #  BIT (CHAN 33 BIT 2) CHANGES TO 0 AND NO PROGRAM WAS USING
001443:                                                                                                  #  THE RR (STATE BIT 7).
001444:
001445:                                                                                                  #  ERASABLE INITIALIZATION REQUIRED:
001446:                                                                                                  #  RADMODES, STATE
001447:
001448:                                                                                                  #  SUBROUTINES CALLED_  RRZEROSB, FIXDELAY, TASKOVER, ENDRADAR
001449:
001450:                                                                                                  #  JOBS OR TASKS INITIATED_
001451:                                                                                                  #  NONE
001452:
001453:                                                                                                  #  ALARMS_  NONE (SEE RRZEROSB)
001454:
001455:                                                                                                  #  EXIT_  TASKOVER, ENDRADAR (WAITING PROGRAM)
001456:
001457: 24,3151                                           BANK     24
001458: 25,2000                                           SETLOC   P20S1
001459: 25,2000                                           BANK
001460:
001461: 25,2062  E7,1454                                  EBANK=   LOSCOUNT
001462: 25,2062                                           COUNT*   $$/RSUB
001463: 25,2062           02071        RRTURNON           TC       RRZEROSB
001464: 25,2063           05221                           TC       FIXDELAY                              #  WAIT 1 SEC BEFORE REMOVING TURN ON FLAG
001465: 25,2064           00144                           DEC      100        B-14                       #  SO A MONITOR REPOSITION WONT ALARM.
001466: 25,2065           44753                           CS       BIT1
001467: 25,2066           70110                           MASK     RADMODES
001468: 25,2067           54110                           TS       RADMODES
001469: 25,2070           15261                           TCF      TASKOVER
001470:


001472:                                                                                                  #  PROGRAM NAME_  RRZEROSB
001473:
001474:                                                                                                  #  FUNCTIONAL DESCRIPTION_
001475:                                                                                                  #  RRZEROSB IS A CLOSED SUBROUTINE TO ZERO THE RR CDU:S,
001476:                                                                                                  #  DETERMINE THE RR MODE, AND TURNS ON THE TRACKER FAIL
001477:                                                                                                  #  LAMP IF REQUIRED. INITIALLY THE RR CDU ZERO BIT (CHAN 12
001478:                                                                                                  #  BIT 1) IS SET. FOLLOWING A 20 MILLISECOND WAIT, THE LGC
001479:                                                                                                  #  RR CDU COUNTERS (OPTY, OPTX) ARE SET = 0 AFTER
001480:                                                                                                  #  WHICH THE RR CDU ZERO DISCRETE (CHAN 12 BIT 1) IS
001481:                                                                                                  #  REMOVED. A 4 SECOND WAIT IS SET TO ALL THE RR CDU:S
001482:                                                                                                  #  TO REPEAT THE ACTUAL TRUNNION AND SHAFT ANGLES. THE
001483:                                                                                                  #  RR CDU ZERO FLAG (RADMODES BIT 13) IS REMOVED. THE
001484:                                                                                                  #  CONTENTS OF OPTY IS THEN CHECKED TO SEE IF THE TRUNNION
001485:                                                                                                  #  ANGLE IS LESS THAN 90 DEGREES. IF NOT, BIT 12 OF
001486:                                                                                                  #  RADMODES IS SET = 1 TO INDICATE RR ANTENNA MODE 2.
001487:                                                                                                  #  IF LESS THAN 90 DEGREES, BIT 12 OF RADMODES IS SET = 0 TO
001488:                                                                                                  #  INDICATE RR ANTENNA MODE 1. SETTRKF IS THEN CALLED TO
001489:                                                                                                  #  SEE IF THE TRACKER FAIL LAMP SHOULD BE TURNED ON.
001490:
001491:                                                                                                  #  CALLING SEQUENCE: L  TC  RRZEROSB (FROM RRTURNON AND RRZERO)
001492:                                                                                                  #  ERASABLE INITIALIZATION REQUIRED:
001493:                                                                                                  #  RADMODES (BIT 13 SET), DSPTAB +11D
001494:
001495:                                                                                                  #  SUBROUTINES CALLED_  FIXDELAY, MAGSUB, SETTRKF
001496:
001497:                                                                                                  #  JOBS OR TASKS INITIATED_
001498:                                                                                                  #  NONE
001499:
001500:                                                                                                  #  ALARMS_  TRACKER FAIL
001501:
001502:                                                                                                  #  EXIT_  L +1 (ALWAYS)
001503:
001504: 25,2071           00006        RRZEROSB           EXTEND
001505: 25,2072           23315                           QXCH     RRRET
001506: 25,2073           34753                           CAF      BIT1                                  #  BIT 13 OF RADMODES MUST BE SET BEFORE
001507: 25,2074           00006                           EXTEND                                         #  COMING HERE.
001508: 25,2075           05012                           WOR      CHAN12                                #  TURN ON ZERO RR CDU
001509: 25,2076           05221                           TC       FIXDELAY
001510: 25,2077           00002                           DEC      2          B-14
001511:
001512: 25,2100           34755                           CAF      ZERO
001513: 25,2101           54035                           TS       CDUT
001514: 25,2102           54036                           TS       CDUS
001515: 25,2103           44753                           CS       ONE                                   #  REMOVE ZEROING BIT.
001516: 25,2104           00006                           EXTEND
001517: 25,2105           03012                           WAND     CHAN12
001518: 25,2106           05221                           TC       FIXDELAY
001519: 25,2107           01750                           DEC      1000       B-14                       #  RESET FAIL INHIBIT IN 10 SECS - D.281
001520:
001521: 25,2110           44737                           CS       BIT13                                 #  REMOVE ZEROING IN PROCESS BIT.
001522:


001524: 25,2111           70110                           MASK     RADMODES
001525: 25,2112           54110                           TS       RADMODES
001526:
001527: 25,2113           30035                           CA       CDUT
001528: 25,2114           04512                           TC       MAGSUB
001529: 25,2115           57777                           DEC      -.5
001530: 25,2116           12121                           TCF      +3                                    #  IF MODE 2.
001531:
001532: 25,2117           34755                           CAF      ZERO
001533: 25,2120           12122                           TCF      +2
001534: 25,2121           34740                           CAF      BIT12
001535: 25,2122           56110                           XCH      RADMODES
001536: 25,2123           77740                           MASK     -BIT12
001537: 25,2124           26110                           ADS      RADMODES
001538:
001539: 25,2125           04564                           TC       SETTRKF                               #  TRACKER LAMP MIGHT GO ON NOW.
001540:
001541: 25,2126           01315                           TC       RRRET                                 #  DONE.
001542:
001543: 25,2127     7740               -BIT12             EQUALS   -1/8                                  #  IN SPROOT
001544:


001546:                                                                                                  #  PROGRAM NAME_  DORREPOS
001547:                                                                                                  #  FUNCTIONAL DESCRIPTION_
001548:                                                                                                  #  DORREPOS IS A SEQUENCE OF TASKS TO DRIVE THE RENDEZVOUS RADAR
001549:                                                                                                  #  TO A SAFE POSITION. INITIALLY SETRRECR IS CALLED WHERE THE RR
001550:                                                                                                  #  ERROR COUNTERS (CHAN 12 BIT 2) ARE ENABLED AND LASTYCMD
001551:                                                                                                  #  AND LASTXCMD SET = 0 TO INDICATE THE DIFFERENCE BETWEEN THE
001552:                                                                                                  #  DESIRED STATE AND PRESENT STATE OF THE COMMANDS. THE RR
001553:                                                                                                  #  TURN-ON FLAG (RADMODES BIT 1) IS CHECKED AND IF NOT PRESENT,
001554:                                                                                                  #  PROGRAM ALARM 00501 IS REQUESTED BEFORE CONTINUING. IN EITHER
001555:                                                                                                  #  CASE, FOLLOWING A 20 MILLISECOND WAIT THE PROGRAM CHECKS THE CURRENT
001556:                                                                                                  #  RR ANTENNA MODE (RADMODES BIT 12). RRTONLY IS THEN CALLED
001557:                                                                                                  #  TO DRIVE THE TRUNNION ANGLE TO 0 DEGREES IF IN MODE 1 AND TO 180
001558:                                                                                                  #  DEGREES IF IN MODE 2. UPON RETURN, THE CURRENT RR ANTENNA
001559:                                                                                                  #  MODE (RADMODES BIT 12) IS AGAIN CHECKED. RRSONLY IS THEN
001560:                                                                                                  #  CALLED TO DRIVE THE SHAFT ANGLE TO 0 DEGREES IF IN MODE 1 AND TO
001561:                                                                                                  #  -90 DEGREES IF IN MODE 2. IF DURING RRTONLY OR RRSONLY A
001562:                                                                                                  #  REMODE HAS BEEN REQUESTED (RADMODES BIT 14), AND ALWAYS
001563:                                                                                                  #  FOLLOWING COMPLETION OF RRSONLY, CONTROL IS TRANSFERRED TO
001564:                                                                                                  #  REPOSRPT. HERE THE REPOSITION FLAG (RADMODES BIT 11) IS
001565:                                                                                                  #  REMOVED. A CHECK IS THEN MADE ON THE DESIGNATE FLAG (RADMODES
001566:                                                                                                  #  BIT 10). IF PRESENT, CONTROL IS TRANSFERRED TO BEGDES. IF NOT PRESENT
001567:                                                                                                  #  INDICATING NO FURTHER ANTENNA CONTROL REQUIRED, THE RR ERROR
001568:                                                                                                  #  COUNTER BIT (CHAN 12 BIT 2) IS REMOVED AND THE ROUTINE EXITS TO
001569:                                                                                                  #  TASKOVER.
001570:
001571:                                                                                                  #  CALLING SEQUENCE:
001572:                                                                                                  #  WAITLIST CALL FROM RRGIMON IF TRUNNION AND SHAFT CDU ANGLES
001573:                                                                                                  #  NOT WITHIN LIMITS OF CURRENT MODE.
001574:
001575:                                                                                                  #  ERASABLE INITIALIZATION REQUIRED:
001576:                                                                                                  #  RADMODES
001577:
001578:                                                                                                  #  SUBROUTINES CALLED_
001579:                                                                                                  #  RRTONLY, RRSONLY, BEGDES (EXIT)
001580:
001581:                                                                                                  #  JOBS OR TASKS INITIATED_
001582:                                                                                                  #  NONE
001583:
001584:                                                                                                  #  ALARMS-  NONE
001585:
001586:                                                                                                  #  EXIT_  TASKOVER, BEGDES
001587:
001588: 25,2127           02156        DORREPOS           TC       SETRRECR                              #  SET UP RR CDU ERROR COUNTERS.
001589:
001590:                                                                                                  #  ALARM 501 DELETED IN DANCE 279 PER PCR 97.
001591:
001592: 25,2130           05221                           TC       FIXDELAY
001593: 25,2131           00002                           DEC      2          B-14
001594:
001595: 25,2132           34740                           CAF      BIT12                                 #  MANEUVER TRUNNION ANGLE TO NOMINAL POS.
001596:


001598: 25,2133           70110                           MASK     RADMODES
001599: 25,2134           10000                           CCS      A
001600: 25,2135           34735                           CAF      BIT15                                 #  0 FOR MODE 1 AND 180 FOR MODE 2.
001601: 25,2136           02241                           TC       RRTONLY
001602:
001603: 25,2137           34740                           CAF      BIT12                                 #  NOW PUT SHAFT IN RIGHT POSITION.
001604: 25,2140           70110                           MASK     RADMODES
001605: 25,2141           10000                           CCS      A
001606: 25,2142           44736                           CS       HALF                                  #  -90 FOR MODE 2.
001607: 25,2143           02244                           TC       RRSONLY
001608:
001609: 25,2144           44741        REPOSRPT           CS       REPOSBIT                              #  RETURNS HERE FROM RR1AXIS IF REMODE
001610:                                                                                                  #  REQUESTED DURING REPOSITION.
001611: 25,2145           70110                           MASK     RADMODES                              #  REMOVE REPOSITION BIT.
001612: 25,2146           54110                           TS       RADMODES
001613: 25,2147           74742                           MASK     BIT10                                 #  SEE IF SOMEONE IS WAITING TO DESIGNATE.
001614: 25,2150           10000                           CCS      A
001615: 25,2151           12573                           TCF      BEGDES
001616: 25,2152           44752                           CS       BIT2                                  #  IF NO FURTHER ANTENNA CONTROL REQUIRED,
001617: 25,2153           00006                           EXTEND                                         #  REMOVE ERROR COUNTER ENABLE.
001618: 25,2154           03012                           WAND     CHAN12
001619: 25,2155           15261                           TCF      TASKOVER
001620:
001621: 25,2156           34752        SETRRECR           CAF      BIT2                                  #  SET UP RR ERROR COUNTERS.
001622: 25,2157           00006                           EXTEND
001623: 25,2160           02012                           RAND     CHAN12
001624: 25,2161           10000                           CCS      A                                     #  DO NOT CLEAR LAST COMMAND IF
001625: 25,2162           00002                           TC       Q                                     #  ERROR COUNTERS ARE ENABLED.
001626:
001627: 25,2163           54112                           TS       LASTYCMD
001628: 25,2164           54113                           TS       LASTXCMD
001629: 25,2165           34752                           CAF      BIT2
001630: 25,2166           00006                           EXTEND
001631: 25,2167           05012                           WOR      CHAN12                                #  ENABLE RR CDU ERROR COUNTERS.
001632: 25,2170           00002                           TC       Q
001633:


001635:                                                                                                  #  PROGRAM NAME_  REMODE                                                   IVES SHAFT TO -45, AND FINALLY DRIVES
001636:
001637:                                                                                                  #  FUNCTIONAL DESCRIPTION_                                                 S DONE WITH SINGLE AXIS ROTATIONS (SEE
001638:                                                                                                  #  REMODE IS THE GENERAL REMODING SUBROUTINE. IT DRIVES THE
001639:                                                                                                  #  TRUNNION ANGLE TO 0 DEGREES IF THE CURRENT MODE IS MODE 1,
001640:                                                                                                  #  180 DEGREES FOR MODE 2, THEN DRIVES THE SHAFT ANGLE TO -45
001641:                                                                                                  #  DEGREES, AND FINALLY DRIVES THE TRUNNION ANGLE TO -130 DEGREES,
001642:                                                                                                  #  TO PLACE THE RR IN MODE 2, -50 DEGREES FOR MODE 1, BEFORE
001643:                                                                                                  #  INITIATING 2-AXIS CONTROL. ALL REMODING IS DONE WITH SINGLE
001644:                                                                                                  #  AXIS ROTATIONS (RR1AXIS). INITIALLY THE RR ANTENNA MODE FLAG
001645:                                                                                                  #  (RADMODES BIT 12) IS CHECKED. CONTROL IS THEN TRANSFERRED TO
001646:                                                                                                  #  RRTONLY TO DRIVE THR TRUNNION ANGLE TO 0 DEGREES IF IN MODE 1
001647:                                                                                                  #  OR 180 DEGREES IF IN MODE 2. RRSONLY IS THEN CALLED TO DRIVE
001648:                                                                                                  #  THE SHAFT ANGLE TO -45 DEGREES. THE RR ANTENNA MODE FLAG
001649:                                                                                                  #  (RADMODES BIT 12) IS CHECKED AGAIN. CONTROL IS AGAIN
001650:                                                                                                  #  TRANSFERRED TO RRTONLY TO DRIVE THE TRUNNION ANGLE TO -130
001651:                                                                                                  #  DEGREES TO PLACE THE RR IN MODE 2 IF CURRENTLY IN MODE 1 OR TO
001652:                                                                                                  #  -50 DEGREES IF IN MODE 2 TO PLACE THE RR IN MODE 1. RMODINV
001653:                                                                                                  #  IS THEN CALLED TO SET RADMODES BIT 12 TO INDICATE THE NEW
001654:                                                                                                  #  RR ANTENNA MODE. THE REMODE FLAG (RADMODES BIT 14)
001655:                                                                                                  #  IS REMOVED TO INDICATE THAT REMODING IS COMPLETE. THE PROGRAM
001656:                                                                                                  #  THEN EXITS TO STDESIG TO BEGIN 2-AXIS CONTROL.
001657:
001658:                                                                                                  #  CALLING SEQUENCE:
001659:                                                                                                  #  FROM BEGDES WHEN REMODE FLAG (RADMODES BIT 14) IS SET.
001660:                                                                                                  #  THIS FLAG MAY BE SET IN RRDESSM AND RRDESNB IF RRLIMCHK
001661:                                                                                                  #  DETERMINES THAT THE DESIRED ANGLES ARE WITHIN THE LIMITS OF THE
001662:                                                                                                  #  OTHER MODE.
001663:
001664:                                                                                                  #  ERASABLE INITIALIZATION REQUIRED:
001665:                                                                                                  #  RADMODES
001666:
001667:                                                                                                  #  SUBROUTINES CALLED_
001668:                                                                                                  #  RRTONLY, RRSONLY, RMODINV (ACTUALLY PART OF)
001669:
001670:                                                                                                  #  JOBS OR TASKS INITIATED_
001671:                                                                                                  #  NONE
001672:
001673:                                                                                                  #  ALARMS_  NONE
001674:
001675:                                                                                                  #  EXIT_  STDESIG
001676:
001677: 25,2171           34740        REMODE             CAF      BIT12                                 #  DRIVE TRUNNION TO 0 (180).
001678: 25,2172           70110                           MASK     RADMODES                              #  (ERROR COUNTER ALREADY ENABLED)
001679: 25,2173           10000                           CCS      A
001680: 25,2174           34735                           CAF      BIT15
001681: 25,2175           02241                           TC       RRTONLY
001682:
001683: 25,2176           37737                           CAF      -45DEGSR
001684: 25,2177           02244                           TC       RRSONLY
001685:


001687: 25,2200           40110                           CS       RADMODES
001688: 25,2201           74740                           MASK     BIT12
001689: 25,2202           10000                           CCS      A
001690: 25,2203           32232                           CAF      -80DEGSR                              #  GO TO T = -130 (-50).
001691: 25,2204           62231                           AD       -50DEGSR
001692: 25,2205           02241                           TC       RRTONLY
001693:
001694: 25,2206           40110                           CS       RADMODES
001695: 25,2207           74740                           MASK     BIT12
001696: 25,2210           10000                           CCS      A
001697: 25,2211           34735                           CAF      BIT15                                 #  GO TO T = -180 (+0).
001698: 25,2212           02241                           TC       RRTONLY
001699:
001700: 25,2213           40110                           CS       RADMODES                              #  GO TO S = -90 (+0).
001701: 25,2214           74740                           MASK     BIT12
001702: 25,2215           10000                           CCS      A
001703: 25,2216           44736                           CS       HALF
001704: 25,2217           02244                           TC       RRSONLY
001705:
001706: 25,2220           02233                           TC       RMODINV
001707:
001708: 25,2221           44736                           CS       BIT14                                 #  END OF REMODE.
001709: 25,2222           70110                           MASK     RADMODES
001710: 25,2223           54110                           TS       RADMODES
001711:
001712: 25,2224           34742                           CAF      BIT10                                 #  WAS REMODE CALLED DURING DESIGNATE
001713: 25,2225           70110                           MASK     RADMODES                              #  (BIT10 RADMODES = 1)
001714: 25,2226           00006                           EXTEND
001715: 25,2227           13555                           BZF      RGOODEND                              #  NO-RETURN TO CALLER WAITING IN RADSTALL
001716: 25,2230           02602                           TC       STDESIG                               #  YES - RETURN TO DESIGNATE
001717: 25,2231     7737               -45DEGSR           =        13,14,15
001718: 25,2231           67070        -50DEGSR           DEC      -.27778
001719: 25,2232           61615        -80DEGSR           DEC      -.44444
001720:
001721: 25,2233           22110        RMODINV            LXCH     RADMODES                              #  INVERT THE MODE STATUS.
001722: 25,2234           34740                           CAF      BIT12
001723: 25,2235           00006                           EXTEND
001724: 25,2236           06001                           RXOR     LCHAN
001725: 25,2237           54110                           TS       RADMODES
001726: 25,2240           00002                           TC       Q
001727:


001729:                                                                                                  #  PROGRAM NAMES_  RRTONLY, RRSONLY
001730:
001731:                                                                                                  #  FUNCTIONAL DESCRIPTION_
001732:                                                                                                  #  RRTONLY AND RRSONLY ARE SUBROUTINES FOR DOING SINGLE AXIS
001733:                                                                                                  #  RR MANEUVERS FOR REMODE AND REPOSITION. IT DRIVES TO
001734:                                                                                                  #  WITHIN 1 DEGREE. INITIALLY, AT RR1AX2, THE REMODE AND REPOSITION
001735:                                                                                                  #  FLAGS (RADMODES BITS 14, 11) ARE CHECKED. IF BOTH EXIST,
001736:                                                                                                  #  THE PROGRAM EXITS TO REPOSRPT (SEE DORREPOS). THIS INDICATES
001737:                                                                                                  #  THAT SOMEONE POSSIBLY REQUESTED A DESIGNATE (RADMODES BIT 10)
001738:                                                                                                  #  WHICH REQUIRES A REMODE (RADMODES BIT 14) AND THAT A
001739:                                                                                                  #  REPOSITION IS IN PROGRESS (RADMODES BIT 11). IF NONE
001740:                                                                                                  #  OR ONLY ONE OF THE FLAGS EXIST, REMODE OR REPOSITION, MAGSUB
001741:                                                                                                  #  IS CALLED TO SEE IF THE APPROPRIATE ANGLE IS WITHIN 1 DEGREE. IF YES,
001742:                                                                                                  #  CONTROL RETURNS TO THE CALLING ROUTINE. IF NOT, CONTROL IS
001743:                                                                                                  #  TRANSFERRED TO RROUT FOR SINGLE AXIS MANEUVERS WITH THE OTHER
001744:                                                                                                  #  ANGLE SET = 0. FOLLOWING A .5 SECOND WAIT, THE ABOVE PROCEDURE IS
001745:                                                                                                  #  REPEATED.
001746:
001747:                                                                                                  #  CALLING SEQUENCE: L-1 CAF *ANGLE* (DESIRED ANGLE SCALED PI)
001748:                                                                                                  #  L  TC  RRTONLY (TRUNNION ONLY)
001749:                                                                                                  #  RRSONLY (SHAFT ONLY)
001750:                                                                                                  #  RRTONLY IS CALLED BY PREPOS29;
001751:                                                                                                  #  RRTONLY AND RRSONLY ARE CALLED BY DORREPOS AND REMODE
001752:
001753:                                                                                                  #  ERASABLE INITIALIZATION REQUIRED:
001754:                                                                                                  #  C(A) = DESIRED ANGLE, RADMODES
001755:
001756:                                                                                                  #  SUBROUTINES CALLED_
001757:                                                                                                  #  FIXDELAY, REPOSRPT, MAGSUB, RROUT
001758:
001759:                                                                                                  #  JOBS OR TASKS INITIATED_
001760:                                                                                                  #  NONE
001761:
001762:                                                                                                  #  ALARMS_  NONE
001763:
001764:                                                                                                  #  EXIT_  REPOSRPT (REMODE AND REPOSITION FLAGS PRESENT - RADMODES
001765:                                                                                                  #  BITS 14, 11)
001766:                                                                                                  #  L+1  (ANGLE WITHIN ONE DEGREE OR RR OUT OF AUTO MODE)
001767:
001768: 25,2241           55316        RRTONLY            TS       RDES                                  #  DESIRED TRUNION ANGLE.
001769: 25,2242           34755                           CAF      ZERO
001770: 25,2243           12246                           TCF      RR1AXIS
001771:
001772: 25,2244           55316        RRSONLY            TS       RDES                                  #  SHAFT COMMANDS ARE UNRESOLVED SINCE THIS
001773: 25,2245           34753                           CAF      ONE                                   #  ROUTINE ENTERED ONLY WHEN T = 0 OR 180.
001774:
001775: 25,2246           55317        RR1AXIS            TS       RRINDEX
001776: 25,2247           00006                           EXTEND
001777: 25,2250           23315                           QXCH     RRRET
001778: 25,2251           12254                           TCF      RR1AX2
001779:


001781: 25,2252           05221        NXTRR1AX           TC       FIXDELAY
001782: 25,2253           00062                           DEC      50         B-14                       #  2 SAMPLES PER SECOND.
001783:
001784: 25,2254           40110        RR1AX2             CS       RADMODES                              #  IF SOMEONE REQUESTES AS DESIGNATE WHICH
001785: 25,2255           77707                           MASK     PRIO22                                #  REQUIRES A REMODE AND A REPOSITION IS IN
001786: 25,2256           00006                           EXTEND                                         #  PROGRESS, INTERRUPT IT AND START THE
001787: 25,2257           12144                           BZF      REPOSRPT                              #  REMODE IMMEDIATELY.
001788:
001789: 25,2260           31316                           CA       RDES
001790: 25,2261           00006                           EXTEND
001791: 25,2262           51317                           INDEX    RRINDEX
001792: 25,2263           20035                           MSU      CDUT
001793: 25,2264           54061                           TS       ITEMP1                                #  SAVE ERROR SIGNAL.
001794: 25,2265           00006                           EXTEND
001795: 25,2266           72305                           MP       RRSPGAIN                              #  TRIES TO NULL .7 OF ERROR OVER NEXT .5
001796: 25,2267           54001                           TS       L
001797: 25,2270           30110                           CA       RADMODES
001798: 25,2271           74752                           MASK     BIT2
001799: 25,2272           56061                           XCH      ITEMP1                                #  STORE RR-OUT-OF-AUTO-MODE BIT.
001800: 25,2273           04512                           TC       MAGSUB                                #  SEE IF WITHIN ONE DEGREE.
001801: 25,2274           77644                           DEC      -.00555                               #  SCALED IN HALF-REVS.
001802:
001803: 25,2275           10061                           CCS      ITEMP1                                #  NO.  IF RR OUT OF AUTO MODE, EXIT.
001804: 25,2276           01315                           TC       RRRET                                 #  RETURN TO CALLER.
001805:
001806: 25,2277           11317                           CCS      RRINDEX                               #  COMMAND FOR OTHER AXIS IS ZERO.
001807: 25,2300           12302                           TCF      +2                                    #  SETTING A TO 0.
001808: 25,2301           56001                           XCH      L
001809: 25,2302           53110                           DXCH     TANG
001810:
001811: 25,2303           02306                           TC       RROUT
001812:
001813: 25,2304           12252                           TCF      NXTRR1AX                              #  COME BACK IN .5 SECONDS.
001814:
001815: 25,2305           22715        RRSPGAIN           DEC      .59062                                #  NULL .7 ERROR IN .5 SEC.
001816:


001818:                                                                                                  #  PROGRAM NAME_  RROUT                                                    RROR COUNTER SCALING. RROUT LIMITS THEM
001819:
001820:                                                                                                  #  FUNCTIONAL DESCRIPTION_
001821:                                                                                                  #  RROUT RECEIVES RR GYRO COMMANDS IN TANG, TANG +1 IN RR
001822:                                                                                                  #  ERROR COUNTER SCALING. RROUT THEN LIMITS THEM AND
001823:                                                                                                  #  GENERATES COMMANDS TO THE CDU TO ADJUST THE ERROR COUNTERS
001824:                                                                                                  #  TO THE DESIRED VALUES. INITIALLY MAGSUB CHECKS THE MAGNITUDE OF
001825:                                                                                                  #  THE COMMAND (SHAFT ON 1ST PASS) TO SEE IF IT IS GREATER THAN
001826:                                                                                                  #  384 PULSES. IF NOT, CONTROL IS TRANSFERRED TO RROUTLIM TO
001827:                                                                                                  #  LIMIT THE COMMAND TO +384 OR -384 PULSES. THE DIFFERENCE IS
001828:                                                                                                  #  THEN CALCULATED BETWEEN THE DESIRED STATE AND THE PRESENT STATE OF
001829:                                                                                                  #  THE ERROR COUNTER AS RECORDED IN LASTYCMD AND LASTXCMD.
001830:                                                                                                  #  THE RESULT IS STORED IN OPTXCMD (1ST PASS) AND OPTYCMD (2ND
001831:                                                                                                  #  PASS). FOLLOWING THE SECOND PASS, FOR THE TRUNNION COMMAND, THE
001832:                                                                                                  #  OCDUT AND OCDUS ERROR COUNTER DRIVE BITS (CHAN 14 BITS 12, 11)
001833:                                                                                                  #  ARE SET. THIS PROGRAM THEN EXITS TO THE CALLING PROGRAM.
001834:
001835:                                                                                                  #  CALLING SEQUENCE:
001836:                                                                                                  #  L TC RROUT (WITH RUPT INHIBITED) RROUT IS CALLED BY
001837:                                                                                                  #  RRTONLY, RRSONLY, AND DODES
001838:
001839:                                                                                                  #  ERASABLE INITIALIZATION REQUIRED:
001840:                                                                                                  #  TANG, TANG +1 (DESIRED COMMANDS), LASTYCMD, LASTXCMD
001841:                                                                                                  #  (1ST PASS = 0), RR ERROR COUNTER ENABLE SET (CHAN 12 BIT 2).
001842:
001843:                                                                                                  #  SUBROUTINES CALLED_
001844:                                                                                                  #  MAGSUB
001845:
001846:                                                                                                  #  JOBS OR TASKS INITIATED_
001847:                                                                                                  #  NONE
001848:
001849:                                                                                                  #  ALARMS_  NONE
001850:
001851:                                                                                                  #  EXIT_  L+1 (ALWAYS)                                                     SIRED VALUES. RUPT MUST BE INHIBITED.
001852:
001853: 25,2306           22002        RROUT              LXCH     Q                                     #  SAVE RETURN.
001854: 25,2307           34753                           CAF      ONE                                   #  LOOP TWICE.
001855: 25,2310           54062        RROUT2             TS       ITEMP2
001856: 25,2311           50000                           INDEX    A
001857: 25,2312           31107                           CA       TANG
001858: 25,2313           54061                           TS       ITEMP1                                #  SAVE SIGN OF COMMAND FOR LIMITING.
001859:
001860: 25,2314           04512                           TC       MAGSUB                                #  SEE IF WITHIN LMITS.
001861: 25,2315           77177        -RRLIMIT           DEC      -384       B-14
001862: 25,2316           12335                           TCF      RROUTLIM                              #  LIMIT COMMAND TO MAG OF 384.
001863:
001864: 25,2317           30061        SETRRCTR           CA       ITEMP1                                #  COUNT OUT DIFFERENCE BETWEEN DESIRED
001865: 25,2320           50062                           INDEX    ITEMP2                                #  STATE AND PRESENT STATE AS RECORDED IN
001866: 25,2321           56112                           XCH      LASTYCMD                              #  LASTYCMD AND LASTXCMD
001867: 25,2322           40000                           COM
001868:


001870: 25,2323           60061                           AD       ITEMP1
001871: 25,2324           64754                           AD       NEG0                                  #  PREVENT +0 IN OUTCOUNTER
001872: 25,2325           50062                           INDEX    ITEMP2
001873: 25,2326           54053                           TS       CDUTCMD
001874:
001875: 25,2327           10062                           CCS      ITEMP2                                #  PROCESS BOTH INPUTS.
001876: 25,2330           12310                           TCF      RROUT2
001877:
001878: 25,2331           35020                           CAF      PRIO6                                 #  ENABLE COUNTERS.
001879: 25,2332           00006                           EXTEND
001880: 25,2333           05014                           WOR      CHAN14                                #  PUT ON CDU DRIVES S AND T
001881: 25,2334           00001                           TC       L                                     #  RETURN.
001882:
001883: 25,2335           10061        RROUTLIM           CCS      ITEMP1                                #  LIMIT COMMAND TO ABS VAL OF 384.
001884: 25,2336           42315                           CS       -RRLIMIT
001885: 25,2337           12341                           TCF      +2
001886: 25,2340           32315                           CA       -RRLIMIT
001887: 25,2341           54061                           TS       ITEMP1
001888: 25,2342           12320                           TCF      SETRRCTR   +1
001889:


001891:                                                                                                  #           ROUTINE TO ZERO THE RR CDUS AND DETERMINE THE ANTENNA MODE.
001892:
001893: 25,2343           32372        RRZERO             CAF      BIT11+1                               #  SEE IF MONITOR REPOSITION OR NOT IN AUTO
001894: 25,2344           70110                           MASK     RADMODES                              #  IF SO, DONT RE-ZERO CDUS.
001895: 25,2345           10000                           CCS      A
001896: 25,2346           13530                           TCF      RADNOOP                               #  (IMMEDIATE TASK TO RGOODEND).
001897:
001898: 25,2347           00004                           INHINT
001899: 25,2350           44737                           CS       BIT13                                 #  SET FLAG TO SHOW ZEROING IN PROGRESS.
001900: 25,2351           70110                           MASK     RADMODES
001901: 25,2352           64737                           AD       BIT13
001902: 25,2353           54110                           TS       RADMODES
001903:
001904: 25,2354           34753                           CAF      ONE
001905: 25,2355           05203                           TC       WAITLIST
001906: 25,2356  E7,1454                                  EBANK=   LOSCOUNT
001907: 25,2356           02370 52067                     2CADR    RRZ2
001908:
001909: 25,2360           40110                           CS       RADMODES                              #  SEE IF IN AUTO MODE.
001910: 25,2361           74752                           MASK     BIT2
001911: 25,2362           10000                           CCS      A
001912: 25,2363           12366                           TCF      ROADBACK
001913: 25,2364           05567                           TC       ALARM                                 #  AUTO DISCRETE NOT PRESENT - TRYING
001914: 25,2365           00510                           OCT      510
001915: 25,2366           00003        ROADBACK           RELINT
001916: 25,2367           14631                           TCF      SWRETURN
001917:
001918: 25,2370           02071        RRZ2               TC       RRZEROSB                              #  COMMON TO TURNON AND RRZERO.
001919: 25,2371           13546                           TCF      ENDRADAR
001920:
001921: 25,2372           02001        BIT11+1            OCT      02001
001922:


001924:                                                                                                  #  PROGRAM NAME_  RRDESSM                                                  R (HALF-UNIT) IN RRTARGET. REMODES IF
001925:
001926:                                                                                                  #  FUNCTIONAL DESCRIPTION_
001927:                                                                                                  #  THIS INTERPRETIVE ROUTINE WILL DESIGNATE, IF DESIRED ANGLES ARE
001928:                                                                                                  #  WITHIN THE LIMITS OF EITHER MODE, TO A LINE-OF SIGHT (LOS) VECTOR
001929:                                                                                                  #  (HALF-UNIT) KNOWN WITH RESPECT TO THE STABLE MEMBER PRESENT
001930:                                                                                                  #  ORIENTATION. INITIALLY THE IMU CDU:S ARE READ AND CONTROL
001931:                                                                                                  #  TRANSFERRED TO SMNB TO TRANSFORM THE LOS VECTOR FROM STABLE
001932:                                                                                                  #  MEMBER TO NAVIGATION BASE COORDINATES (SEE STG MEMO -699)
001933:                                                                                                  #  RRANGLES IS THEN CALLED TO CALCULATE THE RR GIMBAL ANGLES,
001934:                                                                                                  #  TRUNNION AND SHAFT, FOR BOTH THE PRESENT AND ALTERNATE MODE.
001935:                                                                                                  #  RRLIMCHK IS CALLED TO SEE IF THE ANGLES CALCULATED FOR THE
001936:                                                                                                  #  PRESENT MODE ARE WITHIN LIMITS. IF WITHIN LIMITS, THE RETURN
001937:                                                                                                  #  LOCATION IS INCREMENTED, INASMUCH AS NO VEHICLE MANEUVER IS
001938:                                                                                                  #  REQUIRED, BEFORE EXITING TO STARTDES. IF NOT WITHIN LIMITS OF THE
001939:                                                                                                  #  CURRENT MODE, TRYSWS IS CALLED. FOLLOWING INVERTING OF THE RR
001940:                                                                                                  #  ANTENNA MODE FLAG (RADMODES BIT 12), RRLIMCHK IS CALLED
001941:                                                                                                  #  TO SEE IF THE ANGLES CALCULATED FOR THE ALTERNATE MODE ARE WITHIN
001942:                                                                                                  #  LIMITS. IF YES, THE RR ANTENNA MODE FLAG IS AGAIN INVERTED,
001943:                                                                                                  #  THE REMODE FLAG (RADMODES BIT 14) SET, AND THE RETURN LOCATION
001944:                                                                                                  #  INCREMENTED, TO INDICATE NO VEHICLE MANEUVER IS REQUIRED, BEFORE
001945:                                                                                                  #  EXITING TO STARTDES. IF THESE ANGLES ARE NOT WITHIN LIMITS
001946:                                                                                                  #  OF THE ALTERNATE MODE, THE RR ANTENNA MODE FLAG (RADMODES
001947:                                                                                                  #  BIT 12) IS INVERTED BEFORE RETURNING DIRECTLY TO THE CALLING PROGRAM
001948:                                                                                                  #  TO INDICATE THAT A VEHICLE MANEUVER IS REQUIRED.
001949:
001950:                                                                                                  #  CALLING SEQUENCE:
001951:                                                                                                  #  L  STCALL  RRTARGET  (LOS HALF-UNIT VECTOR IN SM COORDINATES)
001952:                                                                                                  #  L+1  RRDESSM
001953:                                                                                                  #  L+2  BASIC  (VEHICLE MANEUVER REQUIRED)
001954:                                                                                                  #  L+3  BASIC  (NO VEHICLE MANEUVER REQUIRED)
001955:
001956:                                                                                                  #  ERASABLE INITIALIZATION REQUIRED:
001957:                                                                                                  #  RRTARGET, RADMODES
001958:
001959:                                                                                                  #  SUBROUTINES CALLED_
001960:                                                                                                  #  READCDUS, SMNB, RRANGLES, RRLIMCHK, TRYSWS (ACTUALLY
001961:                                                                                                  #  PART OF), RMODINV
001962:
001963:                                                                                                  #  JOBS OR TASKS INITIATED_
001964:                                                                                                  #     NONE
001965:
001966:                                                                                                  #  ALARMS_  NONE
001967:
001968:                                                                                                  #  EXIT_  L+2 (NEITHER SET OF ANGLES ARE WITHIN LIMITS OF RELATED MODE)
001969:                                                                                                  #  STARTDES (DESIGNATE POSSIBLE AT PRESENT VEHICLE ATTITUDE-RETURNS
001970:                                                                                                  #  TO L+3 FROM STARTDES)                                                   CAN BE DONE IN PRESENT VEH ATTITUDE.
001971:
001972: 25,2373           43020        RRDESSM            STQ      CLEAR
001973: 25,2374           01113                                    DESRET


001975: 25,2375           00271                                    RRNBSW
001976: 25,2376           77624                           CALL                                           #  COMPUTES SINES AND COSINES, ORDER Y Z X
001977: 25,2377           47443                                    CDUTRIG
001978: 25,2400           45175                           VLOAD    CALL                                  #  LOAD VECTOR AND CALL TRANSFORMATION
001979: 25,2401           01102                                    RRTARGET
001980: 25,2402           47575                                    *SMNB*
001981:
001982: 25,2403           77624                           CALL                                           #  GET RR GIMBAL ANGLES IN PRESENT AND
001983: 25,2404           26133                                    RRANGLES                              #  ALTERNATE MODE.
001984: 25,2405           77776                           EXIT
001985:
001986: 25,2406           00004                           INHINT
001987: 25,2407           04523                           TC       RRLIMCHK
001988: 25,2410           01107                           ADRES    MODEA                                 #  CONFIGURATION FOR CURRENT MODE.
001989: 25,2411           02414                           TC       +3                                    #  NOT IN CURRENT MODE
001990: 25,2412           25113        OKDESSM            INCR     DESRET                                #  INCREMENT SAYS NO VEHICLE MANEUVER REQ.
001991: 25,2413           02432                           TC       STARTDES                              #  SHOW DESIGNATE REQUIRED
001992: 25,2414           40104                           CS       FLAGWRD8
001993: 25,2415           74744                           MASK     SURFFBIT                              #  CHECK IF ON LUNAR SURFACE (SURFFLAG=P22F
001994: 25,2416           00006                           EXTEND
001995: 25,2417           12456                           BZF      NORDSTAL                              #  BRANCH-YES-CANNOT DESIGNATE IN MODE 2
001996: 25,2420           02461                           TC       TRYSWS
001997:
001998:
001999: 25,2421           40104        LUNDESCH           CS       FLAGWRD8                              #  OVERFLOW RETURN FROM RRANGLES
002000: 25,2422           74744                           MASK     SURFFBIT                              #  CHECK IF ON LUNAR SURFACE
002001: 25,2423           00006                           EXTEND
002002: 25,2424           12456                           BZF      NORDSTAL                              #  BRANCH-YES-RETURN TO CALLER - ALARM 527
002003: 25,2425           30074                           CA       STATE
002004: 25,2426           74745                           MASK     RNDVZBIT
002005: 25,2427           10000                           CCS      A                                     #  TEST RNDVZFLG.
002006: 25,2430           02471                           TC       NODESSM                               #  NOT ON MOON-CALL FOR ATTITUDE MANEUVER
002007: 25,2431           15155                           TCF      ENDOFJOB                              #  ...BUT NOT IN R29.
002008:


002010:                                                                                                  #  PROGRAM NAME_  STARTDES                                                 STORED AS A HALF-UNIT VECTOR IN RRTARGET
002011:
002012:                                                                                                  #  FUNCTIONAL DESCRIPTION_                                                 CKON IS DESIRED. BIT14 OF RADMODES IS
002013:                                                                                                  #  STARTDES IS ENTERED WHEN WE ARE READY TO BEGIN DESIGNATION.             OR REPOSITION OPERATION. IN THIS
002014:                                                                                                  #  BIT 14 OF RADMODES IS ALREADY SET IF A REMODE IS REQUIRED.              THE REPOSITION WILL BE INTERRUPTED.
002015:                                                                                                  #  AT THIS TIME, THE RR ANTENNA MAY BE IN A REPOSITION                     GINS.
002016:                                                                                                  #  OPERATION. IN THIS CASE, IF A REMODE IS REQUIRED IT MAY HAVE
002017:                                                                                                  #  ALREADY BEGUN BUT IN ANY CASE THE REPOSITION WILL BE INTERRUPTED.
002018:                                                                                                  #  OTHERWISE, THE REPOSITION WILL BE COMPLETED BEFORE 2-AXIS
002019:                                                                                                  #  DESIGNATION BEGINS. INITIALLY DESCOUNT IS SET = 60 TO INDICATE
002020:                                                                                                  #  THAT 30 SECONDS WILL BE ALLOWED FOR THE RR DATA GOOD INBIT
002021:                                                                                                  #  (CHAN 33 BIT 4) IF LOCK-ON IS DESIRED (STATE BIT 5). BIT 10
002022:                                                                                                  #  OF RADMODES IS SET TO SHOW THAT A DESIGNATE IS REQUIRED.
002023:                                                                                                  #  THE REPOSITION FLAG (RADMODES BIT 11) IS CHECKED. IF SET,
002024:                                                                                                  #  THE PROGRAM EXITS TO L+3 OF THE CALLING PROGRAM (SEE RRDESSM
002025:                                                                                                  #  AND RRDESNB). THE PROGRAM WILL BEGIN DESIGNATING TO THE DESIRED
002026:                                                                                                  #  ANGLES FOLLOWING THE REPOSITION OR REMODE IF ONE WAS
002027:                                                                                                  #  REQUESTED. IF THE REPOSITION FLAG IS NOT SET, SETRRECR IS CALLED
002028:                                                                                                  #  WHICH SETS THE RR ERROR COUNTER ENABLE BIT (CHAN 12 BIT 2)
002029:                                                                                                  #  AND SETS LASTYCMD AND LASTXCMD = 0 TO INDICATE THE
002030:                                                                                                  #  DIFFERENCE BETWEEN THE PRESENT AND DESIRED STATE OF THE ERROR
002031:                                                                                                  #  COUNTERS. A 20 MILLISECOND WAITLIST CALL IS SET FOR BEGDES
002032:                                                                                                  #  AFTER WHICH THE PROGRAM EXITS TO L+3 OF THE CALLING PROGRAM.
002033:
002034:                                                                                                  #  CALLING SEQUENCE:
002035:                                                                                                  #  FROM RRDESSM AND RRDESNB WHEN ANGLES WITHIN LIMITS.
002036:
002037:                                                                                                  #  ERASABLE INITIALIZATION REQUIRED:
002038:                                                                                                  #  RADMODES, (SEE DODES)
002039:
002040:                                                                                                  #  SUBROUTINES CALLED_
002041:                                                                                                  #  SETRRECR, WAITLIST
002042:
002043:                                                                                                  #  JOBS OR TASKS INITIATED_
002044:                                                                                                  #  BEGDES
002045:
002046:                                                                                                  #  ALARMS_  NONE
002047:
002048:                                                                                                  #  EXIT_  L+3 OF CALLING PROGRAM (SEE RRDESSM)
002049:                                                                                                  #  L+2 OF CALLING PROGRAM (SEE RRDESNB)
002050:
002051: 25,2432           25113        STARTDES           INCR     DESRET
002052: 25,2433           40110                           CS       RADMODES
002053: 25,2434           74742                           MASK     BIT10
002054: 25,2435           26110                           ADS      RADMODES
002055: 25,2436           74741                           MASK     BIT11                                 #  SEE IF REPOSITION IN PROGRESS.
002056: 25,2437           10000                           CCS      A
002057: 25,2440           12446                           TCF      DESRETRN                              #  ECTR ALREADY SET UP.
002058:
002059: 25,2441           02156                           TC       SETRRECR                              #  SET UP ERROR COUNTERS.


002061: 25,2442           34752                           CAF      TWO
002062: 25,2443           05203                           TC       WAITLIST
002063: 25,2444  E7,1454                                  EBANK=   LOSCOUNT
002064: 25,2444           02573 52067                     2CADR    BEGDES
002065:
002066: 25,2446           31306        DESRETRN           CA       RADCADR                               #  FIRST PASS THRU DESIGNATE
002067: 25,2447           00006                           EXTEND
002068: 25,2450           12452                           BZF      DESRTRN                               #  YES   SET EXIT
002069: 25,2451           05155                           TC       ENDOFJOB                              #  NO
002070: 25,2452           00003        DESRTRN            RELINT
002071: 25,2453           25113                           INCR     DESRET
002072: 25,2454           31113                           CA       DESRET
002073: 25,2455           14640                           TCF      BANKJUMP
002074:
002075: 25,2456           34755        NORDSTAL           CAF      ZERO                                  #  ZERO RADCADR TO WIPE  OUT ANYONE
002076: 25,2457           55306                           TS       RADCADR                               #  WAITING IN RADSTALL SINCE WE ARE NOW
002077: 25,2460           12452                           TCF      DESRTRN                               #  RETURNING TO P20 AND MAY DO NEW RADSTALL
002078:


002080:                                                                                                  #           SEE IF RRDESSM CAN BE ACCOMPLISHED AFTER A REMODE.
002081:
002082: 25,2461           02233        TRYSWS             TC       RMODINV                               #  (NOTE RUPT INHIBIT)
002083: 25,2462           04523                           TC       RRLIMCHK                              #  TRY DIFFERENT MODE.
002084: 25,2463           01111                           ADRES    MODEB
002085: 25,2464           12471                           TCF      NODESSM                               #  VEHICLE MANEUVER REQUIRED.
002086:
002087: 25,2465           02233                           TC       RMODINV                               #  RESET BIT12
002088: 25,2466           34736                           CAF      BIT14                                 #  SET FLAG FOR REMODE.
002089: 25,2467           26110                           ADS      RADMODES
002090:
002091: 25,2470           12412                           TCF      OKDESSM
002092:
002093: 25,2471           02233        NODESSM            TC       RMODINV                               #  RE-INVERT MODE AND RETURN
002094: 25,2472           25113                           INCR     DESRET                                #  TO CALLER +2
002095: 25,2473           12456                           TCF      NORDSTAL
002096:
002097: 25,2474           00074        MAXTRYS            DEC      60         B-14
002098:


002100:                                                                                                  #           DESIGNATE TO SPECIFIC RR GIMBAL ANGLES (INDEPENDENT OF VEHICLE MOTION). ENTER WITH DESIRED ANGLES IN
002101:                                                                                                  #  TANG AND TANG +1.
002102:
002103: 25,2475           04645        RRDESNB            TC       MAKECADR
002104: 25,2476           55113                           TS       DESRET
002105:
002106: 25,2477           05516                           TC       DOWNFLAG                              #  RESET FLAG TO PREVENT DODES FROM GOING
002107: 25,2500           00041                           ADRES    LOSCMFLG                              #  BACK TO R21
002108: 25,2501           32474                           CA       MAXTRYS                               #  SET TIME LIMIT COUNTER
002109: 25,2502           55114                           TS       DESCOUNT                              #  FOR DESIGNATE
002110: 25,2503           00004                           INHINT                                         #  SEE IF CURRENT MODE OK.
002111: 25,2504           02540                           TC       RRLIMNB                               #  DO SPECIAL V41 LIMIT CHECK
002112: 25,2505           01107                           ADRES    TANG
002113: 25,2506           12523                           TCF      TRYSWN                                #  SEE IF IN OTHER MODE.
002114:
002115: 25,2507           00003        OKDESNB            RELINT
002116: 25,2510           00006                           EXTEND
002117: 25,2511           31110                           DCA      TANG
002118: 25,2512           53751                           DXCH     TANGNB
002119: 25,2513           06036                           TC       INTPRET
002120:
002121: 25,2514           77624                           CALL                                           #  GET LOS IN NB COORDS.
002122: 25,2515           46041                                    RRNB
002123: 25,2516           01102                           STORE    RRTARGET
002124:
002125: 25,2517           77414                           SET      EXIT
002126: 25,2520           00071                                    RRNBSW
002127:
002128: 25,2521           00004                           INHINT
002129: 25,2522           12433                           TCF      STARTDES   +1
002130: 25,2523           02233        TRYSWN             TC       RMODINV                               #  SEE IF OTHER MODE WILL DO.
002131: 25,2524           02540                           TC       RRLIMNB                               #  DO SPECIAL V41 LIMIT CHECK
002132: 25,2525           01107                           ADRES    TANG
002133: 25,2526           12533                           TCF      NODESNB                               #  NOT POSSIBLE.
002134:
002135: 25,2527           02233                           TC       RMODINV
002136: 25,2530           34736                           CAF      BIT14                                 #  CALL FOR REMODE.
002137: 25,2531           26110                           ADS      RADMODES
002138: 25,2532           12507                           TCF      OKDESNB
002139:
002140: 25,2533           02233        NODESNB            TC       RMODINV                               #  REINVERT MODE BIT.
002141: 25,2534           05567                           TC       ALARM                                 #  BAD INPUT ANGLES.
002142: 25,2535           00502                           OCT      502
002143: 25,2536           06011                           TC       CLRADMOD
002144: 25,2537           05155                           TC       ENDOFJOB                              #  AVOID 503 ALARM.
002145:
002146: 25,2540           50002        RRLIMNB            INDEX    Q                                     #  THIS ROUTINE IS IDENTICAL TO RRLIMCHK
002147: 25,2541           30000                           CAF      0                                     #  EXCEPT THAT THE MODE 1 SHAFT LOWER
002148: 25,2542           24002                           INCR     Q                                     #  LIMIT IS -85 INSTEAD OF -70 DEGREES
002149: 25,2543           00006                           EXTEND
002150:


002152: 25,2544           50000                           INDEX    A                                     #  READ GIMBAL ANGLES INTO ITEMP STORAGE
002153: 25,2545           30001                           DCA      0
002154: 25,2546           52062                           DXCH     ITEMP1
002155: 25,2547           22002                           LXCH     Q                                     #  L(CALLER +2) TO L
002156:
002157: 25,2550           34740                           CAF      BIT12                                 #  SEE WHICH MODE RR IS IN
002158: 25,2551           70110                           MASK     RADMODES
002159: 25,2552           10000                           CCS      A
002160: 25,2553           14550                           TCF      MODE2CHK                              #  MODE 2 CAN USE RRLIMCHK CODING
002161: 25,2554           30061                           CA       ITEMP1
002162: 25,2555           04512                           TC       MAGSUB                                #  MODE 1 IS DEFINED AS
002163: 25,2556           66161                           DEC      -.30555                               #    1. ABS(T) L 55 DEGS
002164: 25,2557           00001                           TC       L                                     #    2  SHAFT LIMITS AT +59, -85 DEGS
002165:
002166: 25,2560           30062                           CA       ITEMP2                                #  LOAD SHAFT ANGLE
002167: 25,2561           00006                           EXTEND
002168: 25,2562           62570                           BZMF     NEGSHAFT                              #  IF NEGATIVE SHAFT ANGLE, ADD 20.5 DEGS
002169: 25,2563           64562                           AD       5.5DEGS
002170: 25,2564           04512        SHAFTLIM           TC       MAGSUB
002171: 25,2565           64420                           DEC      -.35833                               #  64.5 DEGREES
002172: 25,2566           00001                           TC       L                                     #  NOT IN LIMITS
002173: 25,2567           04560                           TC       RRLIMOK                               #  IN LIMITS
002174: 25,2570           62572        NEGSHAFT           AD       20.5DEGS                              #  MAKE NEGATIVE SHAFT LIMIT -85 DEGREES
002175: 25,2571           12564                           TCF      SHAFTLIM
002176:
002177:
002178: 25,2572           03512        20.5DEGS           DEC      .11389
002179:


002181:                                                                                                  #  PROGRAM NAME_  BEGDES
002182:
002183:                                                                                                  #  FUNCTIONAL DESCRIPTION_
002184:                                                                                                  #  BEGDES CHECKS VARIOUS DESIGNATE REQUESTS AND REQUESTS THE
002185:                                                                                                  #  ACTUAL RR DESIGNATION. INITIALLY A CHECK IS MADE TO SEE IF A
002186:                                                                                                  #  REMODE (RADMODES BIT 14) IS REQUESTED OR IN PROGRESS. IF SO,
002187:                                                                                                  #  CONTROL IS TRANSFERRED TO STDESIG AFTER ROUTINE REMODE IS
002188:                                                                                                  #  EXECUTED. IF NO REMODE, STDESIG IS IMMEDIATELY CALLED WHERE
002189:                                                                                                  #  FIRST THE REPOSITION FLAG (RADMODES BIT 11) IS CHECKED. IF
002190:                                                                                                  #  PRESENT, THE DESIGNATE FLAG (RADMODES BIT 10) IS REMOVED
002191:                                                                                                  #  AFTER WHICH THE PROGRAM EXITS TO RDBADEND. IF THE REPOSITION
002192:                                                                                                  #  FLAG IS NOT PRESENT, THE CONTINUOUS DESIGNATE FLAG (RADMODES
002193:                                                                                                  #  BIT 15) IS CHECKED. IF PRESENT, ON EXECUTIVE CALL IS IMMEDIATELY
002194:                                                                                                  #  MADE FOR DODES AFTER WHICH A .5 SECOND WAIT IS INITIATED BEFORE
002195:                                                                                                  #  REPEATING AT STDESIG. IF THE RR SEARCH ROUTINE (LRS24.1) IS DESIGNATING
002196:                                                                                                  #  TO A NEW POINT (NEWPTFLG SET) THE CURRENT DESIGNATE TASK IS TERMINATED.
002197:                                                                                                  #  IF CONTINUOUS DESIGNATE IS NOT WANTED, THE DESIGNATE FLAG (RADMODES
002198:                                                                                                  #  BIT 10) IS CHECKED. IF NOT PRESENT, THE PROGRAM EXITS TO ENDRADAR TO
002199:                                                                                                  #  CHECK RR CDU FAIL BEFORE RETURNING TO THE CALLING PROGRAM. IF DESIGNATE
002200:                                                                                                  #  IS STILL REQUIRED, DESCOUNT IS CHECKED TO SEE IF THE 30 SECONDS HAS
002201:                                                                                                  #  EXPIRED BEFORE RECEIVING THE RR DATA GOOD (CHAN 33 BIT 4)
002202:                                                                                                  #  SIGNAL. IF OUT OF TIME, PROGRAM ALARM 00503 IS REQUESTED, THE
002203:                                                                                                  #  RR AUTO TRACKER ENABLE AND RR ERROR COUNTER ENABLE
002204:                                                                                                  #  (CHAN 12 BITS 14,2) BITS REMOVED, AND THE DESIGNATE FLAG
002205:                                                                                                  #  (RADMODES BIT 10) REMOVED BEFORE EXITING TO RDBADEND. IF
002206:                                                                                                  #  TIME HAS NOT EXPIRED, DESCOUNT IS DECREMENTED, THE
002207:                                                                                                  #  EXECUTIVE CALL MADE FOR DODES, AND A .5 SECOND WAIT INITIATED
002208:                                                                                                  #  BEFORE REPEATING THIS PROCEDURE AT STDESIG.
002209:
002210:                                                                                                  #  CALLING SEQUENCE:
002211:                                                                                                  #  WAITLIST CALL FROM STARTDES
002212:                                                                                                  #  TCF BEGDES FROM DORREPOS
002213:                                                                                                  #  TC STDESIG RETURNING, FROM REMODE
002214:
002215:                                                                                                  #  ERASABLE INITIALIZATION REQUIRED:
002216:                                                                                                  #  DESCOUNT, RADMODES
002217:
002218:                                                                                                  #  SUBROUTINES CALLED_
002219:                                                                                                  #  ENDRADAR, FINDVAC
002220:
002221:                                                                                                  #  JOBS OR TASKS INITIATED_  DODES
002222:
002223:                                                                                                  #  ALARMS_  PROGRAM ALARM 00503 (30 SECONDS HAVE EXPIRED) WITH NO RR DATA
002224:                                                                                                  #  GOOD (CHAN 33 BIT 4) RECEIVED WHEN LOCK-ON (STATE BIT 5) WAS REQUESTED.
002225:
002226:                                                                                                  #  EXIT_  TASKOVER (SEARCH PATTERN DESIGNATING TO NEW POINT)
002227:                                                                                                  #  ENDRADAR (NO DESIGNATE - RADMODES BIT 10)
002228:                                                                                                  #  RDBADEND (REPOSITION OR 30 SECONDS EXPIRED)
002229:
002230: 25,2573           40110        BEGDES             CS       RADMODES
002231:


002233: 25,2574           74736                           MASK     BIT14
002234: 25,2575           10000                           CCS      A
002235: 25,2576           02602                           TC       STDESIG
002236: 25,2577           02171                           TC       REMODE
002237: 25,2600           05221        DESLOOP            TC       FIXDELAY                              #  2 SAMPLES PER SECOND.
002238: 25,2601           00062                           DEC      50         B-14
002239:
002240: 25,2602           34741        STDESIG            CAF      BIT11
002241: 25,2603           70110                           MASK     RADMODES                              #  SEE IF GIMBAL LIMIT MONITOR HAS FOUND US
002242: 25,2604           10000                           CCS      A                                     #  OUT OF BOUNDS. IF SO, THIS BIT SHOWS A
002243: 25,2605           12623                           TCF      BADDES                                #  REPOSITION TO BE IN PROGRESS.
002244:
002245: 25,2606           10110                           CCS      RADMODES                              #  SEE IF CONTINUOUS DESIGNATE WANTED.
002246: 25,2607           12612                           TCF      +3                                    #  IF SO, DONT CHECK BIT 10 TO SEE IF IN
002247: 25,2610           12612                           TCF      +2                                    #  LIMITS BUT GO RIGHT TO FINDVAC ENTRY.
002248: 25,2611           12630                           TCF      MOREDES    +1
002249:
002250: 25,2612           40110                           CS       RADMODES                              #  IF NON-CONTINUOUS, SEE IF END OF
002251: 25,2613           74742                           MASK     BIT10                                 #  PROBLEM (DATA GOOD IF LOCK-ON WANTED OR
002252: 25,2614           10000                           CCS      A                                     #  WITHIN LIMITS IF NOT). IF SO, EXIT AFTER
002253: 25,2615           13546                           TCF      ENDRADAR                              #  CHECKING RR CDU FAIL.
002254:
002255: 25,2616           11114        STDESIG1           CCS      DESCOUNT                              #  SEE IF THE TINE LIMIT HAS EXPIRED
002256: 25,2617           12627                           TCF      MOREDES
002257:
002258: 25,2620           42635                           CS       B14+B2                                #  IF OUT OF TIME, REMOVE ECR ENABLE + TRKR
002259: 25,2621           00006                           EXTEND
002260: 25,2622           03012                           WAND     CHAN12
002261: 25,2623           44742        BADDES             CS       BIT10                                 #  REMOVE DESIGNATE FLAG.
002262: 25,2624           70110                           MASK     RADMODES
002263: 25,2625           54110                           TS       RADMODES
002264: 25,2626           13562                           TCF      RDBADEND
002265:
002266: 25,2627           55114        MOREDES            TS       DESCOUNT
002267: 25,2630           37713                           CAF      PRIO26                                #  UPDATE GYRO TORQUE COMMANDS.
002268: 25,2631           05105                           TC       FINDVAC
002269: 25,2632  E7,1454                                  EBANK=   LOSCOUNT
002270: 25,2632           02636 52067                     2CADR    DODES
002271:
002272: 25,2634           12600                           TCF      DESLOOP
002273:
002274: 25,2635           20002        B14+B2             OCT      20002
002275:


002277:                                                                                                  #  PROGRAM NAME_  DODES
002278:
002279:                                                                                                  #  FUNCTIONAL DESCRIPTION_
002280:                                                                                                  #  DODES CALCULATES AND REQUESTS ISSUANCE OF RR GYRO TORQUE
002281:                                                                                                  #  COMMANDS. INITIALLY THE CURRENT RR CDU ANGLES ARE STORED AND
002282:                                                                                                  #  THE LOS HALF-UNIT VECTOR TRANSFORMED FROM STABLE MEMBER TO
002283:                                                                                                  #  NAVIGATION BASE COORDINATES VIA SMNB IF NECESSARY. THE
002284:                                                                                                  #  SHAFT AND TRUNNION COMMANDS ARE THEN CALCULATED AS FOLLOWS_
002285:                                                                                                  #  + SHAFT = LOS  . (COS(S), 0, -SIN (S)) (DOT PRODUCT)
002286:                                                                                                  #  -TRUNNION = LOS  . (SIN (T) SIN (S), COS (T), SIN (T) COS (S) )
002287:                                                                                                  #  THE SIGN OF THE SHAFT COMMAND IS THEN REVERSED IF IN MODE 2
002288:                                                                                                  #  (RADMODES BIT 12) BECAUSE A RELAY IN THE RR REVERSES THE
002289:                                                                                                  #  POLARITY OF THE COMMAND. AT RRSCALUP EACH COMMAND IS
002290:                                                                                                  #  SCALED AND IF EITHER, OR BOTH, OF THE COMMANDS IS GREATER THAN
002291:                                                                                                  #  .5 DEGREES, MPAC +1 IS SET POSITIVE. IF A CONTINUOUS DESIGNATE
002292:                                                                                                  #  (RADMODES BIT 15) IS DESIRED AND THE SEARCH ROUTINE IS NOT OPERATING,
002293:                                                                                                  #  THE RR AUTO TRACKER ENABLE BIT (CHAN 12 BIT 14) IS CLEARED AND RROUT
002294:                                                                                                  #  CALLED TO PUT OUT THE COMMANDS PROVIDED NO REPOSITION (RADMODES BIT 11)
002295:                                                                                                  #  IS IN PROGRESS. IF A CONTINUOUS DESIGNATE AND THE SEARCH ROUTINE IS
002296:                                                                                                  #  OPERATING (SRCHOPT FLAG SET) THE TRACK ENABLE IS NOT CLEARED. IF NO
002297:                                                                                                  #  CONTINUOUS DESIGNATE AND BOTH COMMANDS ARE NOT LESS THAN .5 DEGREES AS
002298:                                                                                                  #  INDICATED BY MPAC +1, THE RR AUTO TRACKER ENABLE BIT (CHAN 12 BIT 14) IS
002299:                                                                                                  #  CLEARED AND RROUT CALLED TO PUT OUT THE COMMANDS PROVIDED NO REPOSITION
002300:                                                                                                  #  (RADMODES BIT 11) IS IN PROGRESS. IF BOTH COMMANDS ARE LESS THAN .5
002301:                                                                                                  #  DEGREES AS INDICATED BY MPAC+1, THE RR AUTO TRACKER ENABLE BIT
002302:                                                                                                  #  (CHAN 12 BIT 14) IS CLEARED AND RROUT CALLED TO PUT OUT THE
002303:                                                                                                  #  COMMANDS PROVIDED NO REPOSITION (RADMODES BIT 11) IS IN
002304:                                                                                                  #  PROGRESS. IF BOTH COMMANDS ARE LESS THAN .5 DEGREES, THE
002305:                                                                                                  #  LOCK-ON FLAG (STATE BIT 5) IS CHECKED. IF NOT PRESENT, THE
002306:                                                                                                  #  DESIGNATE FLAG (RADMODES BIT 10) IS CLEARED, THE RR ERROR
002307:                                                                                                  #  COUNTER ENABLE BIT (CHAN 12 BIT 2) IS CLEARED, AND ENDOFJOB
002308:                                                                                                  #  CALLED. IF LOCK-ON IS DESIRED, THE RR AUTO TRACKER (CHAN 12
002309:                                                                                                  #  BIT 14) IS ENABLED FOLLOWED BY A CHECK OF THE RECEIPT OF THE
002310:                                                                                                  #  RR DATA GOOD (CHAN 33 BIT 4) SIGNAL. IF RR DATA GOOD
002311:                                                                                                  #  PRESENT, THE DESIGNATE FLAG (RADMODES BIT 10) IS CLEARED,
002312:                                                                                                  #  THE RR ERROR COUNTER ENABLE BIT (CHAN 12 BIT 2) IS CLEARED,
002313:                                                                                                  #  AND ENDOFJOB CALLED. IF RR DATA GOOD IS NOT PRESENT, RROUT
002314:                                                                                                  #  IS CALLED TO PUT OUT THE COMMANDS PROVIDED NO REPOSITION
002315:                                                                                                  #  (RADMODES BIT 11) IS IN PROGRESS AFTER WHICH THE JOB IS TERMINATED
002316:                                                                                                  #  VIA ENDOFJOB.
002317:
002318:                                                                                                  #  CALLING SEQUENCE:
002319:                                                                                                  #  EXECUTIVE CALL EVERY .5 SECONDS FROM BEGDES.
002320:
002321:                                                                                                  #  ERASABLE INITIALIZATION REQUIRED:
002322:                                                                                                  #  RRTARGET (HALF-UNIT LOS VECTOR IN EITHER SM OR NB COORDINATES),
002323:                                                                                                  #  LOKONSW (STATE BIT 5), RRNBSW (STATE BIT 6), RADMODES
002324:
002325:                                                                                                  #  SUBROUTINES CALLED_
002326:                                                                                                  #  READCDUS, SMNB, CDULOGIC, MAGSUB, RROUT
002327:


002329:                                                                                                  #  JOBS OR TASKS INITIATED_
002330:                                                                                                  #  NONE
002331:
002332:                                                                                                  #  ALARMS_  NONE
002333:
002334:                                                                                                  #  EXIT_  ENDOFJOB (ALWAYS)
002335:
002336: 25,2636           00006        DODES              EXTEND
002337: 25,2637           30036                           DCA      CDUT
002338: 25,2640           53110                           DXCH     TANG
002339:
002340: 25,2641           06036                           TC       INTPRET
002341:
002342: 25,2642           77201                           SETPD    VLOAD
002343: 25,2643           00001                                    0
002344: 25,2644           01102                                    RRTARGET
002345: 25,2645           74214                           BON      VXSC
002346: 25,2646           00311                                    RRNBSW
002347: 25,2647           52661                                    DONBRD                                #  TARGET IN NAV-BASE COORDINATES
002348: 25,2650           01767                                    MLOSV                                 #  MULTIPLY UNIT LOS BY MAGNITUDE
002349: 25,2651           63372                           VSL1     PDVL
002350: 25,2652           01761                                    LOSVEL
002351: 25,2653           53361                           VXSC     VAD                                   #  ADD ONE SECOND RELATIVE VELOCITY TO LOS
002352: 25,2654           13072                                    MCTOMS
002353: 25,2655           45056                           UNIT     CALL
002354: 25,2656           47443                                    CDUTRIG
002355: 25,2657           77624                           CALL
002356: 25,2660           47575                                    *SMNB*
002357:
002358: 25,2661           14041        DONBRD             STODL    32D
002359: 25,2662           01111                                    TANG       +1
002360: 25,2663           41434                           RTB      PUSH                                  #  SHAFT COMMAND = V(32D).(COS(S), 0,
002361: 25,2664           21465                                    CDULOGIC                              #       (-SIN(S)).
002362: 25,2665           65356                           SIN      PDDL                                  #  SIN(S) TO 0 AND COS(S) TO 2.
002363: 25,2666           41546                           COS      PUSH
002364: 25,2667           65205                           DMP      PDDL
002365: 25,2670           00041                                    32D
002366: 25,2671           00045                                    36D
002367: 25,2672           44205                           DMP      BDSU
002368: 25,2673           00001                                    0
002369: 25,2674           77626                           STADR
002370: 25,2675           76666                           STORE    TANG       +1                         #  SHAFT COMMAND
002371:
002372: 25,2676           47135                           SLOAD    RTB
002373: 25,2677           01110                                    TANG
002374: 25,2700           21465                                    CDULOGIC
002375: 25,2701           71406                           PUSH     COS                                   #  COS(T) TO 4.
002376: 25,2702           73525                           PDDL     SIN
002377: 25,2703           41206                           PUSH     DMP                                   #  SIN(T) TO 6.
002378: 25,2704           00003                                    2
002379:


002381: 25,2705           65352                           SL1      PDDL                                  #  DEFINE VECTOR U = (SIN(T)SIN(S))
002382: 25,2706           00005                                    4                                     #                    (COS(T)      )
002383: 25,2707           41325                           PDDL     DMP                                   #                    (SIN(T)COS(S))
002384: 25,2710           00007                                    6
002385: 25,2711           00001                                    0
002386: 25,2712           55552                           SL1      VDEF
002387: 25,2713           77441                           DOT      EXIT                                  #  DOT U WITH LOS TO GET TRUNNION COMMAND.
002388: 25,2714           00041                                    32D
002389:


002391:                                                                                                  #           AT THIS POINT WE HAVE A ROTATION VECTOR IN DISH AXES LYING IN THE TS PLANE. CONVERT THIS TO A
002392:                                                                                                  #  COMMANDED RATE AND ENABLE THE TRACKER IF WE ARE WITHIN .5 DEGREES OF THE TARGET.
002393:
002394: 25,2715           40154                           CS       MPAC                                  #  DOT WAS NEGATIVE OF DESIRED ANGLE.
002395: 25,2716           00006                           EXTEND
002396: 25,2717           73066                           MP       RDESGAIN                              #  SCALING ON INPUT ANGLE WAS 4 RADIANS.
002397: 25,2720           55107                           TS       TANG                                  #  TRUNNION COMMAND.
002398: 25,2721           40110                           CS       RADMODES                              #  A RELAY IN THE RR REVERSES POLARITY OF
002399: 25,2722           74740                           MASK     BIT12                                 #  THE SHAFT COMMANDS IN MODE 2 SO THAT A
002400: 25,2723           00006                           EXTEND                                         #  POSITIVE TORQUE APPLIED TO THE SHAFT
002401: 25,2724           12727                           BZF      +3                                    #  GYRO CAUSES A POSITIVE CHANGE IN THE
002402: 25,2725           31110                           CA       TANG       +1                         #  SHAFT ANGLE. COMPENSATE FOR THIS SWITCH
002403: 25,2726           12730                           TCF      +2                                    #  BY CHANGING THE POLARITY OF OUR COMMAND.
002404: 25,2727           41110                 +3        CS       TANG       +1
002405: 25,2730           00006                           EXTEND
002406: 25,2731           73066                           MP       RDESGAIN                              #  SCALING ON INPUT ANGLE WAS 4 RADIANS.
002407: 25,2732           55110                           TS       TANG       +1                         #  SHAFT COMMAND.
002408: 25,2733           06036                           TC       INTPRET
002409:
002410: 25,2734           41345                           DLOAD    DMP
002411: 25,2735           00003                                    2                                     #  COS(S).
002412: 25,2736           00005                                    4                                     #  COS(T).
002413: 25,2737           65352                           SL1      PDDL                                  #  Z COMPONENT OF URR.
002414: 25,2740           65276                           DCOMP    PDDL                                  #  Y COMPONENT = -SIN(T).
002415: 25,2741           00001                                    0                                     #  SIN(S).
002416: 25,2742           72405                           DMP      SL1
002417: 25,2743           00005                                    4                                     #  COS(T).
002418: 25,2744           43066                           VDEF     BON                                   #  FORM URR IN NB AXES.
002419: 25,2745           00311                                    RRNBSW                                #  BYPASS NBSM CONVERSION IN VERB 41.
002420: 25,2746           52751                                    +3
002421: 25,2747           77624                           CALL
002422: 25,2750           47577                                    *NBSM*                                #  GET URR IN SM AXES.
002423: 25,2751           77441                           DOT      EXIT
002424: 25,2752           01102                                    RRTARGET                              #  GET COSINE OF ANGLE BETWEEN RR AND LOS.
002425:
002426: 25,2753           00006                           EXTEND
002427: 25,2754           43070                           DCS      COS1/2DG
002428: 25,2755           20155                           DAS      MPAC                                  #  DIFFERENCE OF COSINES, SCALED B-2.
002429: 25,2756           10154                           CCS      MPAC
002430: 25,2757           34755                           CA       ZERO                                  #  IF COS ERROR BIGGER, ERROR IS SMALLER.
002431: 25,2760           12762                           TCF      +2
002432: 25,2761           34753                           CA       ONE
002433: 25,2762           54155                           TS       MPAC       +1                         #  ZERO IF RR IS POINTED OK, ONE IF NOT.
002434:


002436:                                                                                                  #           SEE IF TRACKER SHOULD BE ENABLED OR DISABLED.
002437:
002438: 25,2763           10110                           CCS      RADMODES                              #  IF CONTINUOUS DESIGNATE WANTED, PUT OUT
002439: 25,2764           12767                           TCF      SIGNLCHK                              #  COMMANDS WITHOUT CHECKING MAGNITUDE OF
002440: 25,2765           12767                           TCF      SIGNLCHK                              #  ERROR SIGNALS
002441: 25,2766           13017                           TCF      DORROUT
002442: 25,2767           10155        SIGNLCHK           CCS      MPAC       +1                         #  SEE IF BOTH AXES WERE WITHIN .5 DEGS.
002443: 25,2770           13000                           TCF      DGOODCHK
002444: 25,2771           40074                           CS       STATE                                 #  IF WITHIN LIMITS AND NO LOCK-ON WANTED,
002445: 25,2772           74747                           MASK     LOKONBIT                              #  PROBLEM IS FINISHED.
002446: 25,2773           10000                           CCS      A
002447: 25,2774           13005                           TCF      RRDESDUN
002448:
002449: 25,2775           34736                           CAF      BIT14                                 #  ENABLE THE TRACKER.
002450: 25,2776           00006                           EXTEND
002451: 25,2777           05012                           WOR      CHAN12
002452:
002453: 25,3000           34750        DGOODCHK           CAF      BIT4                                  #  SEE IF DATA GOOD RECEIVED YET
002454: 25,3001           00006                           EXTEND
002455: 25,3002           02033                           RAND     CHAN33
002456: 25,3003           10000                           CCS      A
002457: 25,3004           13017                           TCF      DORROUT
002458:
002459: 25,3005           44742        RRDESDUN           CS       BIT10                                 #  WHEN PROBLEM DONE, REMOVE BIT 10 SO NEXT
002460: 25,3006           70110                           MASK     RADMODES                              #  WAITLIST TASK WE WILL GO TO RGOODEND.
002461: 25,3007           00004                           INHINT
002462: 25,3010           54110                           TS       RADMODES
002463:
002464: 25,3011           05516                           TC       DOWNFLAG                              #  RESET LOSCMFLG TO PREVENT A
002465: 25,3012           00041                           ADRES    LOSCMFLG                              #  RECOMPUTATION OF LOS AFTER DATA GOOD
002466: 25,3013           44752                           CS       BIT2                                  #  TURN OFF ENABLE RR ERROR COUNTER
002467: 25,3014           00006                           EXTEND
002468: 25,3015           03012                           WAND     CHAN12
002469: 25,3016           15155                           TCF      ENDOFJOB                              #  WITH ECTR DISABLED.
002470:
002471: 25,3017           40074        DORROUT            CS       FLAGWRD0                              #  IF NOT IN P20/P22 BUT V41,DON'T DO
002472: 25,3020           74745                           MASK     RNDVZBIT                              #  VELOCITY CORRECTION.
002473: 25,3021           10000                           CCS      A
002474: 25,3022           03041                           TC       NOTP20
002475: 25,3023           06036                           TC       INTPRET
002476: 25,3024           74375                           VLOAD    VXSC                                  #  MULTIPLY UNIT LOS BY MAGNITUDE
002477: 25,3025           01102                                    RRTARGET
002478: 25,3026           01767                                    MLOSV
002479: 25,3027           41572                           VSL1     PUSH
002480: 25,3030           74375                           VLOAD    VXSC                                  #  ADD .5 SEC. OF VELOCITY
002481: 25,3031           01761                                    LOSVEL                                #  TO LOS VECTOR
002482: 25,3032           13072                                    MCTOMS
002483: 25,3033           53362                           VSR1     VAD
002484: 25,3034           77656                           UNIT
002485: 25,3035           15102                           STODL    RRTARGET                              #  STORE VELOCITY-CORRECTED LOS (UNIT)
002486:


002488: 25,3036           00045                                    36D
002489: 25,3037           01767                           STORE    MLOSV                                 #  AND STORE MAGNITUDE
002490: 25,3040           77776                           EXIT
002491: 25,3041           00004        NOTP20             INHINT
002492: 25,3042           40110                           CS       RADMODES                              #  PUT OUT COMMAND UNLESS MONITOR
002493: 25,3043           74741                           MASK     BIT11                                 #  REPOSITION HAS TAKEN OVER.
002494: 25,3044           10000                           CCS      A
002495: 25,3045           02306                           TC       RROUT
002496:
002497: 25,3046           30076                           CA       FLAGWRD2
002498: 25,3047           74740                           MASK     LOSCMBIT                              #  IF LOSCMFLG NOT SET, DON'T TEST
002499: 25,3050           00006                           EXTEND                                         #  LOS COUNTER
002500: 25,3051           15155                           BZF      ENDOFJOB
002501: 25,3052           11454                           CCS      LOSCOUNT                              #  TEST LOS COUNTER TO SEE IF TIME TO GET
002502: 25,3053           03064                           TC       DODESEND                              #  A NEW LOS
002503: 25,3054           00004                           INHINT
002504: 25,3055           06027                           TC       KILLTASK                              #  YES - KILL TASK WHICH SCHEDULES DODES
002505: 25,3056           52602                           CADR     DESLOOP    +2
002506: 25,3057           00003                           RELINT
002507: 25,3060           10067                           CCS      NEWJOB
002508: 25,3061           05122                           TC       CHANG1
002509: 25,3062           04616                           TC       BANKCALL
002510: 25,3063           50752                           CADR     R21LEM2
002511:
002512:
002513: 25,3064           55454        DODESEND           TS       LOSCOUNT
002514: 25,3065           05155                           TC       ENDOFJOB
002515:
002516:
002517: 25,3066           21122        RDESGAIN           DEC      .53624                                #  TRIES TO NULL .5 ERROR IN .5 SEC.
002518: 25,3067           07777 33005  COS1/2DG           2DEC     .999961923 B-2                        #  COSINE OF 0.5 DEGREES.
002519: 25,3071           00310 00000  MCTOMS             2DEC     100        B-13
002520:


002522:                                                                                                  #  RADAR READ INITIALIZATION
002523:
002524:                                                                                                  #  RADAR DATA ARE READ BY A BANKCALL FOR THE APPROPRIATE LEAD-IN BELOW.
002525:
002526: 25,3073           03113        LRALT              TC       INITREAD   -1                         #  ONE SAMPLE PER READING.
002527: 25,3074           00017        ALLREAD            OCT      17
002528:
002529: 25,3075           03114        LRVELZ             TC       INITREAD
002530: 25,3076           00016                           OCT      16
002531:
002532: 25,3077           03114        LRVELY             TC       INITREAD
002533: 25,3100           00015                           OCT      15
002534:
002535: 25,3101           03114        LRVELX             TC       INITREAD
002536: 25,3102           00014                           OCT      14
002537:
002538: 25,3103           03113        RRRDOT             TC       INITREAD   -1
002539: 25,3104           00012                           OCT      12
002540:
002541: 25,3105           03113        RRRANGE            TC       INITREAD   -1
002542: 25,3106           00011                           OCT      11
002543:
002544:                                                                                                  #  LRVEL IS THE ENTRY TO THE LR VELOCITY READ ROUTINE WHEN 5 SAMPLES ARE
002545:                                                                                                  #  WANTED. ENTER WITH C(A)= 0,2,4 FOR LRVELZ,LRVELY,LRVELX RESP.
002546:
002547: 25,3107           55105        LRVEL              TS       TIMEHOLD                              #  STORE VBEAM INDEX HERE MOMEMTARILY
002548: 25,3110           34756                           CAF      FIVE                                  #  SPECIFY FIVE SAMPLES
002549: 25,3111           51105                           INDEX    TIMEHOLD
002550: 25,3112           13075                           TCF      LRVELZ
002551:


002553: 25,3113           34753                 -1        CAF      ONE                                   #  ENTRY TO TAKE ONLY 1 SAMPLE.
002554: 25,3114           00004        INITREAD           INHINT
002555:
002556: 25,3115           55105                           TS       TIMEHOLD                              #  GET DT OF MIDPOINT OF NOMINAL SAMPLING
002557: 25,3116           00006                           EXTEND                                         #  INTERVAL (ASSUMES NO BAD SAMPLES WILL BE
002558: 25,3117           74751                           MP       BIT3                                  #  ENCOUNTERED).
002559: 25,3120           53106                           DXCH     TIMEHOLD
002560:
002561: 25,3121           10000                           CCS      A
002562: 25,3122           55111                           TS       NSAMP
002563: 25,3123           64753                           AD       ONE
002564:                                                                                                  #           INSERT FOLLOWING INSTRUCTION TO GET 2N TRIES FOR N SAMPLES.
002565:                                                                                                  #                                                   DOUBLE
002566: 25,3124           55100                           TS       SAMPLIM
002567:
002568: 25,3125           33147                           CAF      DGBITS                                #  READ CURRENT VALUE OF DATA GOOD BITS.
002569: 25,3126           00006                           EXTEND
002570: 25,3127           02033                           RAND     CHAN33
002571: 25,3130           55113                           TS       OLDATAGD
002572:
002573: 25,3131           43074                           CS       ALLREAD
002574: 25,3132           00006                           EXTEND
002575: 25,3133           03013                           WAND     CHAN13                                #  REMOVE ALL RADAR BITS
002576:
002577: 25,3134           50002                           INDEX    Q
002578: 25,3135           30000                           CAF      0
002579: 25,3136           00006                           EXTEND
002580: 25,3137           05013                           WOR      CHAN13                                #  SET NEW RADAR BITS
002581:
002582: 25,3140           00006                           EXTEND
002583: 25,3141           30025                           DCA      TIME2
002584: 25,3142           21106                           DAS      TIMEHOLD                              #  TIME OF NOMINAL MIDPOINT.
002585:
002586: 25,3143           34755                           CAF      ZERO
002587: 25,3144           54001                           TS       L
002588: 25,3145           53102                           DXCH     SAMPLSUM
002589: 25,3146           12366                           TCF      ROADBACK
002590:
002591: 25,3147           00230        DGBITS             OCT      230
002592:


002594:                                                                                                  #  RADAR RUPT READER
002595:
002596:                                                                                                  #  THIS ROUTINE STARTS FROM A RADARUPT. IT READS THE DATA $ LOTS MORE.
002597:
002598: 25,2000                                           SETLOC   RADARUPT
002599: 25,2000                                           BANK
002600:
002601: 25,3150                                           COUNT*   $$/RRUPT
002602: 25,3150           00006        RADAREAD           EXTEND                                         #  MUST SAVE SBANK BECAUSE OF RUPT EXITS
002603: 25,3151           04007                           ROR      SUPERBNK                              #  VIA TASKOVER (BADEND OR GOODEND.
002604: 25,3152           54016                           TS       BANKRUPT
002605: 25,3153           00006                           EXTEND
002606: 25,3154           22012                           QXCH     QRUPT
002607:
002608: 25,3155           34757                           CAF      SEVEN
002609: 25,3156           00006                           EXTEND
002610: 25,3157           02013                           RAND     CHAN13
002611: 25,3160           55335                           TS       DNINDEX
002612: 25,3161           00006                           EXTEND                                         #  IF RADAR SELECT BITS ZERO,DO NOT STORE
002613: 25,3162           13166                           BZF      TRYCOUNT                              #  DATA FOR DOWNLIST (ERASABLE PROBLEMS)
002614: 25,3163           30046                           CA       RNRAD
002615: 25,3164           51335                           INDEX    DNINDEX
002616: 25,3165           55332                           TS       DNRRANGE   -1
002617: 25,3166           11100        TRYCOUNT           CCS      SAMPLIM
002618: 25,3167           13211                           TCF      PLENTY
002619: 25,3170           13174                           TCF      NOMORE
002620: 25,3171           05567                           TC       ALARM
002621: 25,3172           00520                           OCT      520
002622: 25,3173           05270                           TC       RESUME
002623:
002624: 25,3174           30107        NOMORE             CA       FLGWRD11                              #  IS LRBYPASS SET?
002625: 25,3175           74735                           MASK     LRBYBIT
002626: 25,3176           00006                           EXTEND
002627: 25,3177           13206                           BZF      BADRAD                                #  NO.  R12 IS ON -- BYPASS 521 ALARM.
002628:
002629: 25,3200           40077                           CS       FLAGWRD3                              #  CHECK R04FLAG.
002630: 25,3201           74743                           MASK     R04FLBIT                              #  IF 1,R04 IS RUNNING. DO NOT ALARM-
002631: 25,3202           00006                           EXTEND
002632: 25,3203           13206                           BZF      BADRAD
002633:
002634: 25,3204           05567                           TC       ALARM                                 #  P20 WANTS THE ALARM.
002635: 25,3205           00521                           OCT      521
002636: 25,3206           44753        BADRAD             CS       ONE
002637: 25,3207           55100                           TS       SAMPLIM
002638: 25,3210           03560                           TC       RDBADEND   -2
002639: 25,3211           55100        PLENTY             TS       SAMPLIM
002640: 25,3212           34751                           CAF      BIT3
002641: 25,3213           00006                           EXTEND
002642: 25,3214           02013                           RAND     CHAN13                                #  TO FIND OUT WHICH RADAR
002643: 25,3215           00006                           EXTEND
002644:


002646: 25,3216           13276                           BZF      RENDRAD
002647:
002648: 25,3217           03364                           TC       R77CHECK                              #  R77 QUITS HERE.
002649: 25,3220           30110        LRPOSCHK           CA       RADMODES                              #  SEE IF LR IN DESIRED POSITION.
002650: 25,3221           00006                           EXTEND
002651: 25,3222           06033                           RXOR     CHAN33
002652: 25,3223           74746                           MASK     BIT6
002653: 25,3224           00006                           EXTEND
002654: 25,3225           13231                           BZF      VELCHK
002655:
002656: 25,3226           05567                           TC       ALARM
002657: 25,3227           00522                           OCT      522
002658: 25,3230           03206                           TC       BADRAD
002659:
002660: 25,3231           36244        VELCHK             CAF      BIN3                                  #  = 00003 OCT
002661: 25,3232           00006                           EXTEND
002662: 25,3233           06013                           RXOR     CHAN13                                #  RESET ACTIVITY BIT
002663: 25,3234           76244                           MASK     BIN3
002664: 25,3235           00006                           EXTEND
002665: 25,3236           13272                           BZF      LRHEIGHT                              #  TAKE A LR RANGE READING
002666:
002667: 25,3237           34733                           CAF      POSMAX
002668: 25,3240           70046                           MASK     RNRAD
002669: 25,3241           62000                           AD       LVELBIAS
002670: 25,3242           54001                           TS       L
002671: 25,3243           30046                           CAE      RNRAD
002672: 25,3244           60000                           DOUBLE
002673: 25,3245           74753                           MASK     BIT1
002674: 25,3246           52064                           DXCH     ITEMP3
002675:
002676: 25,3247           34744                           CAF      BIT8                                  #  DATA GOOD ISNT CHECKED UNTIL AFTER READ-
002677: 25,3250           03442                           TC       DGCHECK                               #  ING DATA SO SOME RADAR TESTS WILL WORK
002678:                                                                                                  #  INDEPENDENT OF DATA GOOD.
002679:
002680: 25,3251           11111                           CCS      NSAMP
002681: 25,3252           03262                           TC       NOEND
002682: 25,3253           44753        GOODRAD            CS       ONE
002683: 25,3254           55100                           TS       SAMPLIM
002684: 25,3255           40061                           CS       ITEMP1                                #  WHEN ENOUGH GOOD DATA HAS BEEN GATHERED,
002685: 25,3256           70110                           MASK     RADMODES                              #  RESET DATA FAIL FLAGS FOR SETTRKF.
002686: 25,3257           54110                           TS       RADMODES
002687: 25,3260           03616                           TC       RADLITES                              #  LAMPS MAY GO OFF IF DATA JUST GOOD.
002688: 25,3261           03553                           TC       RGOODEND   -2
002689:
002690: 25,3262           55111        NOEND              TS       NSAMP
002691: 25,3263           11100        RESAMPLE           CCS      SAMPLIM                               #  SEE IF ANY MORE TRIES SHOULD BE MADE.
002692: 25,3264           13266                           TCF      +2
002693: 25,3265           13461                           TCF      DATAFAIL                              #  N SAMPLES NOT AVAILABLE.
002694: 25,3266           34750                           CAF      BIT4                                  #  RESET ACTIVITY BIT.
002695: 25,3267           00006                           EXTEND
002696:


002698: 25,3270           05013                           WOR      CHAN13                                #  RESET ACTIVITY BIT
002699: 25,3271           05270                           TC       RESUME
002700:
002701:
002702: 25,3272           34747        LRHEIGHT           CAF      BIT5
002703: 25,3273           54061                           TS       ITEMP1                                #  (POSITION OF DATA GOOD BIT IN CHAN 33)
002704:
002705: 25,3274           34743                           CAF      BIT9
002706: 25,3275           03320                           TC       SCALECHK   -1
002707:
002708: 25,3276           34741        RENDRAD            CAF      BIT11                                 #  MAKE SURE ANTENNA HAS NOT GONE OUT OF
002709: 25,3277           70110                           MASK     RADMODES                              #  LIMITS.
002710: 25,3300           10000                           CCS      A
002711: 25,3301           13206                           TCF      BADRAD
002712:
002713: 25,3302           40110                           CS       RADMODES                              #  BE SURE RR CDU HASNT FAILED.
002714: 25,3303           74745                           MASK     BIT7
002715: 25,3304           10000                           CCS      A
002716: 25,3305           13206                           TCF      BADRAD
002717:
002718: 25,3306           34750                           CAF      BIT4                                  #  SEE IF DATA HAS BEEN GOOD.
002719: 25,3307           54061                           TS       ITEMP1                                #  (POSITION OF DATA GOOD BIT IN CHAN 33)
002720:
002721: 25,3310           34753                           CAF      BIT1                                  #  SEE IF RR RDOT.
002722: 25,3311           00006                           EXTEND
002723: 25,3312           02013                           RAND     CHAN13
002724: 25,3313           54002                           TS       Q                                     #  FOR LATER TESTING.
002725: 25,3314           10000                           CCS      A
002726: 25,3315           13317                           TCF      +2
002727: 25,3316           13331                           TCF      RADIN                                 #  NO SCALE CHECK FOR RR RDOT.
002728: 25,3317           34751                           CAF      BIT3
002729: 25,3320           54001                           TS       L
002730:
002731: 25,3321           00006        SCALECHK           EXTEND
002732: 25,3322           02033                           RAND     CHAN33                                #  SCALE STATUS NOW
002733: 25,3323           56001                           XCH      L
002734: 25,3324           70110                           MASK     RADMODES                              #  SCALE STATUS BEFORE
002735: 25,3325           00006                           EXTEND
002736: 25,3326           06001                           RXOR     LCHAN                                 #  SEE IF THEY DIFFER
002737: 25,3327           10000                           CCS      A
002738: 25,3330           03350                           TC       SCALCHNG                              #  THEY DIFFER
002739:
002740: 25,3331           34733        RADIN              CAF      POSMAX
002741: 25,3332           70046                           MASK     RNRAD
002742: 25,3333           54064                           TS       ITEMP4
002743:
002744: 25,3334           30046                           CAE      RNRAD
002745: 25,3335           60000                           DOUBLE
002746: 25,3336           74753                           MASK     BIT1
002747: 25,3337           54063                           TS       ITEMP3
002748:


002750: 25,3340           10002                           CCS      Q                                     #  SEE IF RR RDOT.
002751: 25,3341           13402                           TCF      SCALADJ                               #  NO, BUT SCALE CHANGING MAY BE NEEDED.
002752:
002753: 25,3342           00006                           EXTEND                                         #  IF RR RANGE RATE, THROW OUT BIAS.
002754: 25,3343           42002                           DCS      RDOTBIAS
002755: 25,3344           20064        DASAMPL            DAS      ITEMP3
002756: 25,3345           30061        DGCHECK2           CA       ITEMP1                                #  SEE THAT DATA HAS BEEN GOOD BEFORE AND
002757: 25,3346           03443                           TC       DGCHECK    +1                         #  AFTER TAKING SAMPLE.
002758: 25,3347           03253                           TC       GOODRAD
002759:
002760: 25,3350           22110        SCALCHNG           LXCH     RADMODES
002761: 25,3351           64753                           AD       BIT1
002762: 25,3352           00006                           EXTEND
002763: 25,3353           06001                           RXOR     LCHAN
002764: 25,3354           54110                           TS       RADMODES
002765: 25,3355           33147                           CAF      DGBITS                                #  UPDATE LAST VALUE OF DATA GOOD BITS.
002766: 25,3356           00006                           EXTEND
002767: 25,3357           02033                           RAND     CHAN33
002768: 25,3360           55113                           TS       OLDATAGD
002769: 25,3361           05504                           TC       UPFLAG                                #  SET RNGSCFLG
002770: 25,3362           00120                           ADRES    RNGSCFLG                              #  FOR LRS24.1
002771: 25,3363           13206                           TCF      BADRAD
002772:
002773:                                                                                                  #  R77 MUST IGNORE DATA FAILS SO AS NOT TO DISTURB THE ASTRONAUT.
002774:
002775: 25,3364           40101        R77CHECK           CS       FLAGWRD5
002776: 25,3365           74741                           MASK     R77FLBIT
002777: 25,3366           10000                           CCS      A
002778: 25,3367           00002                           TC       Q                                     #  NOT R77
002779: 25,3370           43401                           CS       BITS5,8                               #  UPDATE LR DATA GOOD BITS IN RADMODES
002780: 25,3371           70110                           MASK     RADMODES
002781: 25,3372           54001                           TS       L
002782: 25,3373           33401                           CA       BITS5,8
002783: 25,3374           00006                           EXTEND
002784: 25,3375           02033                           RAND     CHAN33
002785: 25,3376           60001                           AD       L
002786: 25,3377           54110                           TS       RADMODES
002787: 25,3400           03553                           TC       RGOODEND   -2
002788: 25,3401           00220        BITS5,8            OCT      220
002789:


002791:                                                                                                  #           THE FOLLOWING ROUTINE INCORPORATES RR RANGE AND LR ALT SCALE INFORMATION AND LEAVES DATA AT LO SCALE.
002792:
002793: 25,3402           10001        SCALADJ            CCS      L                                     #  L HAS SCALE INBIT FOR THIS RADAR.
002794: 25,3403           13405                           TCF      +2                                    #  ON HIGH SCALE.
002795: 25,3404           13345                           TCF      DGCHECK2
002796:
002797: 25,3405           31335                           CA       DNINDEX
002798: 25,3406           74751                           MASK     BIT3
002799: 25,3407           10000                           CCS      A
002800: 25,3410           13417                           TCF      LRSCK
002801:
002802: 25,3411           52064                           DXCH     ITEMP3
002803: 25,3412           20001                           DDOUBL
002804: 25,3413           20001                           DDOUBL
002805: 25,3414           20001                           DDOUBL
002806: 25,3415           52064                           DXCH     ITEMP3
002807:
002808: 25,3416           13345                           TCF      DGCHECK2
002809:
002810: 25,3417           10063        LRSCK              CCS      ITEMP3
002811: 25,3420           13431                           TCF      +11
002812: 25,3421           40064                           CS       ITEMP4
002813: 25,3422           63441                           AD       HISCALIM
002814: 25,3423           00006                           EXTEND
002815: 25,3424           63431                           BZMF     +5
002816:
002817: 25,3425           40107                           CS       FLGWRD11
002818: 25,3426           74751                           MASK     SCABBIT
002819: 25,3427           26107                           ADS      FLGWRD11
002820: 25,3430           13434                           TCF      +4
002821:
002822: 25,3431           44751                           CS       SCABBIT
002823: 25,3432           70107                           MASK     FLGWRD11
002824: 25,3433           54107                           TS       FLGWRD11
002825:
002826: 25,3434           00006                           EXTEND
002827: 25,3435           30064                           DCA      ITEMP3
002828: 25,3436           20001                           DDOUBL
002829: 25,3437           20001                           DDOUBL
002830: 25,3440           13344                           TCF      DASAMPL
002831:
002832: 25,3441           00714        HISCALIM           DEC      460        B-14                       #  2481.7 FT  *****************************
002833:


002835: 25,3442           54061        DGCHECK            TS       ITEMP1                                #  UPDATE DATA GOOD BIT IN OLDATAGD AND
002836: 25,3443           00006                           EXTEND                                         #  MAKE SURE IT WAS ON BEFORE AND AFTER THE
002837: 25,3444           02033                           RAND     CHAN33                                #  SAMPLE WAS TAKEN BEFORE RETURNING. IF
002838: 25,3445           54001                           TS       L                                     #  NOT, GOES TO RESAMPLE TO TRY AGAIN. IF
002839: 25,3446           40061                           CS       ITEMP1                                #  MAX NUMBER OF TRIES HAS BEEN REACHED,
002840: 25,3447           71113                           MASK     OLDATAGD                              #  THE BIT CORRESPONDING TO THE DATA GOOD
002841: 25,3450           60001                           AD       L                                     #  WHICH FAILED TO APPEAR IS IN ITEMP1 AND
002842: 25,3451           57113                           XCH      OLDATAGD                              #  CAN BE USED TO SET RADMODES WHICH VIA
002843: 25,3452           70061                           MASK     ITEMP1                                #  SETTRKF SETS THE TRACKER FAIL LAMP.
002844: 25,3453           60001                           AD       L
002845: 25,3454           10000                           CCS      A                                     #  SHOULD BOTH BE ZERO.
002846: 25,3455           03263                           TC       RESAMPLE
002847: 25,3456           52064                           DXCH     ITEMP3                                #  IF DATA GOOD BEFORE AND AFTER, ADD TO
002848: 25,3457           21102                           DAS      SAMPLSUM                              #  ACCUMULATION.
002849: 25,3460           00002                           TC       Q
002850:
002851: 25,3461           40061        DATAFAIL           CS       ITEMP1                                #  IN THE ABOVE CASE, SET RADMODES BIT
002852: 25,3462           70110                           MASK     RADMODES                              #  SHOWING SOME RADAR DATA FAILED.
002853: 25,3463           60061                           AD       ITEMP1
002854: 25,3464           54110                           TS       RADMODES
002855:
002856: 25,3465           52064                           DXCH     ITEMP3                                #  IF WE HAVE BEEN UNABLE TO GATHER N
002857: 25,3466           53102                           DXCH     SAMPLSUM                              #  SAMPLES, USE LAST ONE ONLY.
002858: 25,3467           03616                           TC       RADLITES
002859: 25,3470           13174                           TCF      NOMORE
002860:


002862:                                                                                                  #  THIS ROUTINE CHANGES THE LR POSITION, AND CHECKS THAT IT GOT THERE.
002863:
002864: 25,2000                                           SETLOC   P20S1
002865: 25,2000                                           BANK
002866:
002867: 25,3471                                           COUNT*   $$/RSUB
002868: 25,3471           00004        LRPOS2             INHINT
002869:
002870: 25,3472           40110                           CS       RADMODES
002871: 25,3473           74746                           MASK     BIT6                                  #  SET BIT6 TO SHOW DESIRED LR POS IS 2
002872: 25,3474           26110                           ADS      RADMODES
002873:
002874: 25,3475           34745                           CAF      BIT7
002875: 25,3476           00006                           EXTEND
002876: 25,3477           02033                           RAND     CHAN33                                #  SEE IF ALREADY THERE.
002877: 25,3500           00006                           EXTEND
002878: 25,3501           13530                           BZF      RADNOOP
002879:
002880: 25,3502           34737                           CAF      BIT13
002881: 25,3503           00006                           EXTEND
002882: 25,3504           05012                           WOR      CHAN12                                #  COMMAND TO POSITION 2
002883: 25,3505           33545                           CAF      6SECS                                 #  START SCANNING FOR INBIT AFTER 7 SECS.
002884: 25,3506           05203                           TC       WAITLIST
002885: 25,3507  E7,1454                                  EBANK=   LOSCOUNT
002886: 25,3507           03543 52067                     2CADR    LRPOSCAN
002887:
002888: 25,3511           02366                           TC       ROADBACK
002889:
002890: 25,3512           55100        LRPOSNXT           TS       SAMPLIM
002891: 25,3513           05221                           TC       FIXDELAY                              #  SCAN ONCE PER SECOND 15 TIMES MAX AFTER
002892: 25,3514           00144                           DEC      100        B-14                       #  INITIAL DELAY OF 7 SECONDS.
002893:
002894: 25,3515           34745                           CAF      BIT7                                  #  SEE IF LR POS2 IS ON
002895: 25,3516           00006                           EXTEND
002896: 25,3517           02033                           RAND     CHAN33
002897: 25,3520           00006                           EXTEND
002898: 25,3521           13535                           BZF      LASTLRDT                              #  IF THERE, WAIT FINAL SECOND FOR BOUNCE.
002899:
002900: 25,3522           11100                           CCS      SAMPLIM                               #  SEE IF MAX TIME UP.
002901: 25,3523           13512                           TCF      LRPOSNXT
002902:
002903: 25,3524           44737                           CS       BIT13                                 #  IF TIME UP, DISABLE COMMAND AND ALARM.
002904: 25,3525           00006                           EXTEND
002905: 25,3526           03012                           WAND     CHAN12
002906: 25,3527           13562                           TCF      RDBADEND
002907:
002908: 25,3530           34753        RADNOOP            CAF      ONE                                   #  NO FURTHER ACTION REQUESTED.
002909: 25,3531           05203                           TC       WAITLIST
002910: 25,3532  E7,1454                                  EBANK=   LOSCOUNT
002911: 25,3532           03555 52067                     2CADR    RGOODEND
002912:


002914: 25,3534           02366                           TC       ROADBACK
002915:
002916: 25,3535           35000        LASTLRDT           CA       2SECS                                 #  WAIT TWO SECONDS AFTER RECEIPT OF INBIT
002917: 25,3536           05224                           TC       VARDELAY                              #  TO WAIT FOR ANTENNA BOUNCE TO DIE OUT.
002918:
002919: 25,3537           44737                           CS       BIT13                                 #  REMOVE COMMAND
002920: 25,3540           00006                           EXTEND
002921: 25,3541           03012                           WAND     CHAN12
002922: 25,3542           13555                           TCF      RGOODEND
002923:
002924: 25,3543           34317        LRPOSCAN           CAF      FOURTEEN                              #  SET UP FOR 15 SAMPLES.
002925: 25,3544           13512                           TCF      LRPOSNXT
002926:
002927: 25,3545           01130        6SECS              DEC      600        B-14
002928:


002930:                                                                                                  #           SEQUENCES TO TERMINATE RR OPERATIONS.
002931:
002932: 25,3546           34745        ENDRADAR           CAF      BIT7                                  #  PROLOG TO CHECK RR CDU FAIL BEFORE END.
002933: 25,3547           70110                           MASK     RADMODES
002934: 25,3550           10000                           CCS      A
002935: 25,3551           13555                           TCF      RGOODEND
002936: 25,3552           13562                           TCF      RDBADEND
002937: 25,3553           44755                 -2        CS       ZERO                                  #  RGOODEND WHEN NOT UNDER WAITLIST CONTROL
002938: 25,3554           54734                           TS       RUPTAGN
002939:
002940: 25,3555           34752        RGOODEND           CAF      TWO
002941: 25,3556           04635                           TC       POSTJUMP
002942: 25,3557           17640                           CADR     GOODEND
002943:
002944: 25,3560           44755                 -2        CS       ZERO                                  #  RDBADEND WHEN NOT UNDER WAITLIST.
002945: 25,3561           54734                           TS       RUPTAGN
002946: 25,3562           34752        RDBADEND           CAF      TWO
002947: 25,3563           04635                           TC       POSTJUMP
002948: 25,3564           17635                           CADR     BADEND
002949:
002950: 25,3565     6244               BIN3               EQUALS   THREE
002951:


002953:                                                                                                  #  PROGRAM NAME_ LPS20.1 VECTOR EXTRAPOLATION AND LOS COMPUTATION
002954:                                                                                                  #  MOD. NO.  2      BY  J.D. COYNE    SDC    DATE   12-7-66
002955:
002956:
002957:                                                                                                  #  FUNCTIONAL DESCRIPTION_
002958:
002959:                                                                                                  #  1) EXTRAPOLATE THE LEM AND CSM VECTORS IN ACCORDANCE WITH THE TIME REFERED TO IN CALLER + 1.
002960:                                                                                                  #  2) COMPUTES THE LOS VECTOR TO THE CSM, CONVERTS IT TO STABLE MEMBER COORDINATES AND STORES IT IN RRTARGET.
002961:                                                                                                  #  3) COMPUTES THE MAGNITUDE OF THE LOS VECTOR AND STORES IT IN MLOSV
002962:
002963:
002964:                                                                                                  #  CALLING SEQUENCE       CALL
002965:                                                                                                  #                                LPS20.1
002966:
002967:                                                                                                  #  SUBROUTINES CALLED_
002968:
002969:                                                                                                  #  LEMPREC,CSMPREC
002970:
002971:
002972:                                                                                                  #  NORMAL EXIT_ RETURN TO CALLER + 2
002973:
002974:
002975:                                                                                                  #  ERROR EXITS_ NONE
002976:
002977:
002978:                                                                                                  #  ALARMS_ NONE
002979:
002980:
002981:                                                                                                  #  OUTPUT_
002982:
002983:                                                                                                  #  LOS VECTOR (HALF UNIT) IN SM COORDINATES STORED IN RRTARGET
002984:                                                                                                  #  MAGNITUDE OF THE LOS VECTOR (METERS SCALED B-29) STORED IN MSLOV
002985:                                                                                                  #  RRNBSW CLEARED
002986:
002987:
002988:                                                                                                  #  INITIALIZED ERASEABLE
002989:
002990:                                                                                                  #  TDEC1 MUST CONTAIN THE TIME FOR EXTRAPOLATION
002991:                                                                                                  #  SEE ORBITAL INTEGRATION ROUTINE
002992:
002993:
002994:                                                                                                  #  DEBRIS_
002995:
002996:                                                                                                  #  MPAC DESTROYED BY THIS ROUTINE
002997:
002998: 23,2275                                           BANK     23
002999: 24,2000                                           SETLOC   P20S
003000: 24,2000                                           BANK
003001:


003003: 24,3151                                           COUNT*   $$/LPS20
003004:
003005: 24,3151           43020        LPS20.1            STQ      BOFF
003006: 24,3152           01757                                    LS21X
003007: 24,3153           01343                                    LOSCMFLG                              #  LOSCMFLG = 0 MEANS NOT CALLED BY R21
003008: 24,3154           51160                                    LMINT                                 #  SO CALL LEMCONIC TO GET LM STATE
003009: 24,3155           77614                           BON                                            #  IF IN R21 AND ON LUNAR SURFACE
003010: 24,3156           04307                                    SURFFLAG                              #  DON'T CALL LEMCONIC
003011: 24,3157           51170                                    CSMINT
003012: 24,3160           77624        LMINT              CALL
003013: 24,3161           27100                                    LEMCONIC                              #  EXTRAPOLATE LEM
003014: 24,3162           77775                           VLOAD
003015: 24,3163           00001                                    RATT
003016: 24,3164           26356                           STOVL    LMPOS                                 #  SAVE LM POSITION B-29
003017: 24,3165           00007                                    VATT
003018: 24,3166           16364                           STODL    LMVEL                                 #  SAVE LM VELOCITY B-7
003019: 24,3167           00015                                    TAT
003020: 24,3170           34041        CSMINT             STCALL   TDEC1
003021: 24,3171           27066                                    CSMCONIC                              #   EXTRAPOLATE CSM
003022: 24,3172           52375                           VLOAD    VSU                                   #  COMPUTE RELATIVE VELOCITY V(CSM) - V(LM)
003023: 24,3173           00007                                    VATT
003024: 24,3174           02364                                    LMVEL
003025: 24,3175           76521                           MXV      VSL1
003026: 24,3176           01734                                    REFSMMAT
003027: 24,3177           77776                           EXIT
003028: 24,3200           00004                           INHINT
003029: 24,3201           06027                           TC       KILLTASK                              #  KILL THE TASK WHICH CALLS DODES SINCE
003030: 24,3202           52602                           CADR     DESLOOP    +2                         #  STORING INTO ERASEABLES DODES USES
003031: 24,3203           06036                           TC       INTPRET
003032: 24,3204           25761                           STOVL    LOSVEL
003033: 24,3205           00001                                    RATT
003034: 24,3206           43051                           VSU      BOFF
003035: 24,3207           02356                                    LMPOS
003036: 24,3210           00350                                    RNDVZFLG
003037: 24,3211           51217                                    NOTSHIFT
003038: 24,3212           77604                           BOVB
003039: 24,3213           57725                                    TCDANZIG
003040: 24,3214           41061                           VSL      BOVB
003041: 24,3215           20212                                    9D
003042: 24,3216           50123                                    526ALARM
003043: 24,3217           77656        NOTSHIFT           UNIT
003044: 24,3220           76521                           MXV      VSL1
003045: 24,3221           01734                                    REFSMMAT                              #  CONVERT TO STABLE MEMBER
003046: 24,3222           15102                           STODL    RRTARGET
003047: 24,3223           00045                                    36D                                   #  SAVE MAGNITUDE OF LOS VECTOR FOR
003048: 24,3224           01767                           STORE    MLOSV                                 #  VELOCITY CORRECTION IN DESIGNATE
003049: 24,3225           77614                           CLRGO
003050: 24,3226           00231                                    RRNBSW
003051: 24,3227           01757                                    LS21X
003052:


003054:                                                                                                  #  PROGRAM NAME_ LPS20.2 400 NM RANGE CHECK
003055:                                                                                                  #  MOD. NO. 2   BY J.D. COYNE    SDC    DATE  12-7-66
003056:
003057:
003058:                                                                                                  #  FUNCTIONAL DESCRIPTION_
003059:
003060:                                                                                                  #  COMPARES THE MAGNITUDE OF THE LOS VECTOR TO 400 NM
003061:
003062:
003063:                                                                                                  #  CALLING SEQUENCE       CALL
003064:                                                                                                  #                                LPS20.2
003065:
003066:
003067:                                                                                                  #  SUBROUTINES CALLED_ NONE
003068:
003069:
003070:                                                                                                  #  NORMAL EXIT _ RETURN TO CALLER +1, MPAC EQ 0 (RANGE 400NM OR LESS.)
003071:
003072:
003073:                                                                                                  #  ERROR EXITS _ RETURN TO CALLER +1, MPAC EQ 1 (RANGE GREATER THAN 400NM)
003074:
003075:
003076:                                                                                                  #  ALARMS_ NONE
003077:
003078:
003079:                                                                                                  #  OUTPUT_ NONE
003080:
003081:
003082:                                                                                                  #  INITIALIZED ERASEABLE_
003083:
003084:                                                                                                  #  PDL 36D MUST CONTAIN THE MAGNITUDE OF THE VECTOR
003085:                                                                                                  #  DEBRIS
003086:
003087:                                                                                                  #  MPAC DESTROYED BY THIS ROUTINE
003088:
003089: 25,2000                                           SETLOC   P20S1
003090: 25,2000                                           BANK
003091: 25,3565                                           COUNT*   $$/LPS20
003092:
003093: 25,3565           45345        LPS20.2            DLOAD    DSU
003094: 25,3566           01767                                    MLOSV                                 #  MAGNITUDE OF LOS
003095: 25,3567           13600                                    FHNM                                  #  OVER 400NM  _
003096: 25,3570           77644                           BPL
003097: 25,3571           53574                                    TOFAR
003098: 25,3572           43535                           SLOAD    RVQ
003099: 25,3573           06424                                    ZERO/SP
003100: 25,3574           43535        TOFAR              SLOAD    RVQ
003101: 25,3575           13577                                    ONE/SP
003102: 25,3576           00001        ONE/SP             DEC      1          B-14
003103:


003105: 25,3577           26467 00000  FHNM               2DEC     740800     B-20                       #  400 NAUTICAL MILES IN METERS B-20
003106:


003108:                                                                                                  #  PROGRAM NAME: LRS22.1 (DATA READ SUBROUTINE 1)
003109:                                                                                                  #  MOD. NO.: 1       BY:  P. VOLANTE  SDC           DATE:  11-15-66
003110:
003111:
003112:                                                                                                  #  FUNCTIONAL DESCRIPTION
003113:
003114:                                                                                                  #  1) READS RENDEZVOUS RADAR RANGE AND RANGE-RATE,TRUNION AND SHAFT ANGLES,THREE CDU VALUES AND TIME. CONVERTS THIS
003115:                                                                                                  #  DATA AND LEAVES IT FOR THE MEASUREMENT INCORPORATION ROUTINE (LSR22.3). CHECKS FOR THE RR DATA GOOD DISCRETE,FOR
003116:                                                                                                  #  RR REPOSITION AND RR CDU FAIL
003117:
003118:                                                                                                  #  2) COMPARES RADAR LOS WITH LOS COMPUTED FROM STATE VECTORS TO SEE IF THEY ARE WITHIN THREE DEGREES
003119:
003120:
003121:                                                                                                  #  CALLING SEQUENCE: BANKCALL FOR LRS22.1
003122:
003123:
003124:                                                                                                  #  SUBROUTINES CALLED:
003125:
003126:                                                                                                  #         RRRDOT   LPS20.1
003127:                                                                                                  #         RRRANGE  BANKCALL
003128:                                                                                                  #         RADSTALL CDULOGIC
003129:                                                                                                  #         RRNB     SMNB
003130:                                                                                                  #  NORMAL EXIT: RETURN TO CALLER+1 WITH MPAC SET TO +0
003131:
003132:
003133:                                                                                                  #  ERROR EXITS: RETURN TO CALLER+1 WITH ERROR CODE STORED IN MPAC AS FOLLOWS:
003134:
003135:                                                                                                  #               00001-ERROR EXIT 1-RR DATA NO GOOD (NO RR DATA GOOD DISCRETE OR RR CDU FAIL OR RR REPOSITION)
003136:                                                                                                  #               00002-ERROR EXIT 2-RR LOS NOT WITHIN THREE DEGREES OF LOS COMPUTED FROM STATE VECTORS
003137:
003138:
003139:                                                                                                  #  ALARMS:  521-COULD NOT READ RADAR DATA (RR DATA GOOD DISCRETE NOT PRESENT BEFORE AND AFTER READING THE RADAR)
003140:                                                                                                  #   (THIS ALARM IS ISSUED BY THE RADAREAD SUBROUTINE WHICH IS ENTERED FROM A RADARUPT)
003141:
003142:
003143:                                                                                                  #  OUTPUT: RRLOSVEC- THE RR LINE-OF-SIGHT VECTOR(USED BY LRS22.2)-A HALF-UNIT VECTOR
003144:                                                                                                  #          RM- THE RR RANGE READING(TO THE CSM) DP, IN METERS SCALED B-29(USED BY LRS22.2 AND LRS22.3)
003145:
003146:                                                                                                  #     ALL OF THE FOLLOWING OUTPUTS ARE USED BY LRS22.3:
003147:
003148:                                                                                                  #          RDOTM- THE RR RANGE-RATE READING,DP, IN METERS PER CENTISECOND, SCALED B-7
003149:                                                                                                  #          RRTRUN-RR TRUNION ANGLE,DP,IN REVOLUTIONS,SCALED B0
003150:                                                                                                  #          RRSHAFT-RR SHAFT ANGLE,DP,IN REVOLUTIONS,SCALED B0
003151:                                                                                                  #          AIG,AMG,AOG-THE CDU ANGLES,THREE SP WORDS
003152:                                                                                                  #          MKTIME-THE TIME OF THE RR READING,DP,IN CENTISECONDS
003153:
003154:
003155:                                                                                                  #  ERASABLE INITIALIZATION REQUIRED:
003156:
003157:                                                                                                  #     RNRAD,THE RADAR READ COUNTER FROM WHICH IS OBTAINED:
003158:


003160:                                                                                                  #      1)RR RANGE SCALED 9.38 FT. PER BIT ON THE LOW SCALE AND 75.04 FT. PER BIT ON THE HIGH SCALE
003161:                                                                                                  #      2)RR RANGE RATE,SCALED .6278 FT./SEC. PER BIT
003162:
003163:                                                                                                  #     THE CDU ANGLES FROM CDUX,CDUY,CDUZ AND TIME1 AND TIME2
003164:
003165:
003166:                                                                                                  #  DEBRIS:  LRS22.1X,A,L,Q,PUSHLIST
003167:
003168: 32,2376                                           BANK     32
003169: 32,2000                                           SETLOC   LRS22
003170: 32,2000                                           BANK
003171: 32,2376                                           COUNT*   $$/LRS22
003172:
003173: 32,2376           04645        LRS22.1            TC       MAKECADR
003174: 32,2377           55735                           TS       LRS22.1X
003175: 32,2400           05516                           TC       DOWNFLAG
003176: 32,2401           00120                           ADRES    RNGSCFLG
003177: 32,2402           00004                           INHINT
003178: 32,2403           34751                           CAF      BIT3
003179: 32,2404           00006                           EXTEND                                         #  GET RR RANGE SCALE
003180: 32,2405           02033                           RAND     CHAN33                                #  FROM CHANNEL 33 BIT 3
003181: 32,2406           54001                           TS       L
003182: 32,2407           44751                           CS       BIT3                                  #  AND SET IN RADMODES BIT3
003183: 32,2410           70110                           MASK     RADMODES
003184: 32,2411           60001                           AD       L
003185: 32,2412           54110                           TS       RADMODES
003186: 32,2413           00003                           RELINT
003187: 32,2414           04616        READRDOT           TC       BANKCALL
003188: 32,2415           53103                           CADR     RRRDOT                                #  READ RANGE-RATE (ONE SAMPLE)
003189: 32,2416           04616                           TC       BANKCALL
003190: 32,2417           17667                           CADR     RADSTALL                              #  WAIT FOR DATA READ COMPLETION
003191: 32,2420           12540                           TCF      EREXIT1                               #  COULD NOT READ RADAR-ERROR EXIT 1
003192:
003193: 32,2421           00004                           INHINT                                         #  NO INTERRUPTS WHILE READING TIME AND CDU
003194: 32,2422           53106                           DXCH     TIMEHOLD                              #  SET MARK TIME EQUAL TO THE MID-POINT
003195: 32,2423           53753                           DXCH     MKTIME                                #  TIME OF THE RANGE-RATE READING
003196: 32,2424           53102                           DXCH     SAMPLSUM                              #  SAVE RANGE-RATE READING
003197: 32,2425           53745                           DXCH     RDOTMSAV
003198: 32,2426           00006                           EXTEND
003199: 32,2427           30034                           DCA      CDUY                                  #  SAVE ICDU ANGLES
003200: 32,2430           53456                           DXCH     AIG
003201: 32,2431           30032                           CA       CDUX
003202: 32,2432           55457                           TS       AOG
003203: 32,2433           00006                           EXTEND
003204: 32,2434           30025                           DCA      TIME2                                 #   SAVE TIME
003205: 32,2435           52155                           DXCH     MPAC                                  #  SAVE TIME OF CDY READINGS IN MPAC
003206: 32,2436           00006                           EXTEND
003207: 32,2437           30036                           DCA      CDUT                                  #  SAVE TRUNION AND SHAFT ANGLES FOR RRNB
003208: 32,2440           53110                           DXCH     TANG
003209:


003211: 32,2441           00003                           RELINT
003212: 32,2442           04616                           TC       BANKCALL
003213: 32,2443           53105                           CADR     RRRANGE                               #  READ RR RANGE (ONE SAMPLE)
003214: 32,2444           04616                           TC       BANKCALL
003215: 32,2445           17667                           CADR     RADSTALL                              #  WAIT FOR READ COMPLETE
003216: 32,2446           02534                           TC       CHEXERR                               #  CHECK FOR ERRORS DURING READ
003217: 32,2447           06036                           TC       INTPRET
003218: 32,2450           14025                           STODL    20D                                   #  SAVE TIME OF CDU READINGS IN 20D
003219: 32,2451           03745                                    RDOTMSAV                              #  CONVERT RDOT UNITS AND SCALING
003220: 32,2452           57261                           SL       DMPR                                  #  START WITH READING SCALED B-28, -.6278
003221: 32,2453           20217                                    14D                                   #  FT./SECOND PER BIT
003222: 32,2454           24012                                    RDOTCONV                              #  END WITH METERS/CENTISECOND, B-7
003223: 32,2455           17747                           STODL    RDOTM                                 #  STORE FOR USE BY LSR22.3
003224: 32,2456           01110                                    TANG
003225: 32,2457           03751                           STORE    TANGNB
003226: 32,2460           47135                           SLOAD    RTB
003227: 32,2461           01110                                    TANG                                  #  GET TRUNION ANGLE
003228: 32,2462           21465                                    CDULOGIC                              #  CONVERT TO DP ONES COMP. IN REVOLUTIONS
003229: 32,2463           03732                           STORE    RRTRUN                                #  AND SAVE FOR TMI ROUTINE (LSR22.3)
003230: 32,2464           47135                           SLOAD    RTB
003231: 32,2465           01111                                    TANG       +1                         #  DITTO FOR SHAFT ANGLE
003232: 32,2466           21465                                    CDULOGIC
003233: 32,2467           17734                           STODL    RRSHAFT
003234: 32,2470           01102                                    SAMPLSUM
003235: 32,2471           66405                           DMP      SL2R                                  #  CONVERT UNITS AND SCALING OF RANGE
003236: 32,2472           24014                                    RANGCONV                              #  PER BIT, END WITH METERS,SCALED -29
003237: 32,2473           37755                           STCALL   RM
003238: 32,2474           46041                                    RRNB                                  #  COMPUTE RADAR LOS USING RRNB
003239: 32,2475           17737                           STODL    RRBORSIT                              #  AND SAVE
003240: 32,2476           00025                                    20D
003241: 32,2477           34041                           STCALL   TDEC1                                 #  GET STATE VECTOR LOS AT TIME OF CDU READ
003242: 32,2500           51151                                    LPS20.1
003243: 32,2501           77776                           EXIT
003244: 32,2502           31455                           CA       AIG                                   #  STORE IMU CDU ANGLES AT MARKTIME
003245: 32,2503           54766                           TS       CDUSPOT                               #  IN CDUSPOT FOR TRG*SMNB
003246: 32,2504           31456                           CA       AMG
003247: 32,2505           54770                           TS       CDUSPOT    +2
003248: 32,2506           31457                           CA       AOG
003249: 32,2507           54772                           TS       CDUSPOT    +4
003250: 32,2510           06036                           TC       INTPRET
003251: 32,2511           45175                           VLOAD    CALL                                  #  LOAD VECTOR AND CALL TRANSFORMATION
003252: 32,2512           01102                                    RRTARGET
003253: 32,2513           47555                                    TRG*SMNB                              #  ROTATE LOS AT MARKTIME FROM SM TO NB.
003254: 32,2514           77641                           DOT                                            #  DOT WITH RADAR LOS TO GET ANGLE
003255: 32,2515           03737                                    RRBORSIT
003256: 32,2516           65552                           SL1      ACOS                                  #  BETWEEN THEM
003257: 32,2517           01046                           STORE    DSPTEM1                               #  STORE FOR POSSIBLE DISPLAY
003258: 32,2520           50025                           DSU      BMN                                   #  IS IT LESS THAN 3 DEGREES
003259: 32,2521           24544                                    THREEDEG
003260: 32,2522           64527                                    NORMEXIT                              #  YES-NORMAL EXIT
003261:


003263:
003264: 32,2523           77776                           EXIT                                           #  ERROR EXIT 2
003265: 32,2524           34752                           CAF      BIT2                                  #  SET ERROR CODE
003266: 32,2525           54154                           TS       MPAC
003267: 32,2526           12532                           TCF      OUT22.1
003268:
003269: 32,2527           77776        NORMEXIT           EXIT                                           #  NORMAL EXIT-SET MPAC EQUAL ZERO
003270: 32,2530           34755                           CAF      ZERO
003271: 32,2531           54154                           TS       MPAC
003272: 32,2532           31735        OUT22.1            CAE      LRS22.1X                              #  EXIT FROM LRS22.1
003273: 32,2533           04640                           TC       BANKJUMP
003274: 32,2534           30101        CHEXERR            CAE      FLAGWRD5
003275: 32,2535           74742                           MASK     RNGSCBIT
003276: 32,2536           10000                           CCS      A                                     #  CHECK IF RANGE SCALE CHANGED
003277: 32,2537           12414                           TCF      READRDOT                              #  YES-TAKE ANOTHER READING
003278:
003279: 32,2540           34753        EREXIT1            CA       BIT1                                  #  SET ERROR CODE
003280: 32,2541           54154                           TS       MPAC
003281: 32,2542           02532                           TC       OUT22.1
003282: 32,2543           00210 21042  THREEDEG           2DEC     .008333333                            #  THREE DEGREES,SCALED  REVS,B0
003283: 32,2545     1101               RRLOSVEC           EQUALS   RRTARGET
003284:


003286:                                                                                                  #  PROGRAM NAME - LRS22.2 (DATA READ SUBROUTINE 2)
003287:
003288:
003289:                                                                                                  #  MOD. NO. : 1       BY: P VOLANTE  SDC           DATE  4-11-67
003290:
003291:                                                                                                  #  FUNCTIONAL DESCRIPTION-
003292:


003294:                                                                                                  #     2) CHECKS IF THE RR LOS (I.E. THE RADAR BORESIGHT VECTOR) IS WITHIN 30 DEGREES OF THE LM +Z AXIS
003295:
003296:
003297:                                                                                                  #  CALLING SEQUENCE- BANKCALL FOR LRS22.2
003298:
003299:
003300:                                                                                                  #  SUBROUTINES CALLED: G+N,AUTO   SETMAXDB
003301:                                                                                                  #  NORMAL EXIT - RETURN TO CALLER WITH MPAC SET TO +0 (VIA SWRETURN)
003302:
003303:
003304:                                                                                                  #  ERROR EXIT - RETURN TO CALLER WITH MPAC SET TO 00001 -RADAR LOS NOT WITHIN 30 DEGREES OF LM +Z AXIS
003305:
003306:
003307:                                                                                                  #  ALARMS - NONE                                                            IN THE AUTO MODE
003308:
003309:
003310:                                                                                                  #  ERASABLE INITIALIZATION REQUIRED -
003311:                                                                                                  #       RRLOSVEC - THE RR LINE-OF-SIGHT VECTOR-A HALF UNIT VECTOR COMPUTED BY LRS22.1
003312:                                                                                                  #       RM - RR RANGE, METERS B-29, FROM LRS22.1
003313:                                                                                                  #       BIT 14 CHANNEL 31 -INDICATES AUTOPILOT IS IN AUTO MODE
003314:
003315:
003316:                                                                                                  #  DEBRIS -  A,L,Q MPAC -PUSHLIST AND PUSHLOC ARE NOT CHANGED BY THIS ROUTINE
003317:
003318: 24,2000                                           SETLOC   P20S
003319: 24,2000                                           BANK
003320: 24,3230           04645        LRS22.2            TC       MAKECADR
003321: 24,3231           55735                           TS       LRS22.1X
003322: 24,3232           06036                           TC       INTPRET
003323:                                                                                                  #  CHECK IF RR LOS IS WITHIN 30 DEG OF
003324: 24,3233           65545        30DEGCHK           DLOAD    ACOS                                  #  THE SPACECRAFT +Z AXIS
003325: 24,3234           03743                                    RRBORSIT   +4                         #  BY TAKING ARCCOS OF Z-COMP. OF THE RR
003326:                                                                                                  #  LOS VECTOR,A HALF UNIT VECTOR
003327:                                                                                                  #  IN NAV BASE AXES)
003328: 24,3235           50025                           DSU      BMN
003329: 24,3236           11252                                    30DEG
003330: 24,3237           51244                                    OKEXIT                                #  NORMAL EXIT-WITHIN 30 DEG.
003331: 24,3240           77776                           EXIT                                           #  ERROR EXIT-NOT WITHIN 30 DEG.
003332: 24,3241           34753                           CAF      BIT1                                  #  SET ERROR CODE IN MPAC
003333: 24,3242           54154                           TS       MPAC
003334: 24,3243           13247                           TCF      OUT22.2
003335: 24,3244           77776        OKEXIT             EXIT                                           #  NORMAL EXIT-SET MPAC = ZERO
003336:


003338: 24,3245           34755                           CAF      ZERO
003339: 24,3246           54154                           TS       MPAC
003340: 24,3247           31735        OUT22.2            CAE      LRS22.1X
003341: 24,3250           04640                           TC       BANKJUMP
003342:
003343: 24,3251           02525 12525  30DEG              2DEC     .083333333                            #  THIRTY DEGREES,SCALED REVS,B0
003344:


003346:                                                                                                  #  PROGRAM NAME - LSR22.3                                                  DATE - 29 MAY 1967
003347:                                                                                                  #  MOD. NO 3                                                               LOG SECTION - P20-25
003348:                                                                                                  #  MOD. BY - DANFORTH                                                      ASSEMBLY LEMP20S REV 10
003349:
003350:                                                                                                  #  FUNCTIONAL DESCRIPTION
003351:
003352:                                                                                                  #  THIS ROUTINE COMPUTES THE B-VECTORS AND DELTA Q FOR EACH OF THE QUANTITIES MEASURED BY THE RENDEZVOUS
003353:                                                                                                  #  RADAR.(RANGE,RANGE RATE,SHAFT AND TRUNNION ANGLES). THE ROUTINE CALLS THE INCORP1 AND INCORP2 ROUTINES
003354:                                                                                                  #  WHICH COMPUTE THE DEVIATIONS AND CORRECT THE STATE VECTOR.
003355:
003356:                                                                                                  #  CALLING SEQUENCE
003357:                                                                                                  #  THIS ROUTINE IS PART OF P20 RENDEZVOUS NAVIGATION FOR THE LM COMPUTER O NLY. THE ROUTINE IS ENTERED FROM
003358:                                                                                                  #  R22LEM  ONLY AND RETURNS DIRECTLY TO R22LEM  FOLLOWING SUCCESSFUL INCORPORATION OF MEASURED DATA. IF THE
003359:                                                                                                  #  COMPUTED STATE VECTOR DEVIATIONS EXCEED THE MAXIMUM PERMITTED. THE ROUTINE RETURNS TO R22LEM  TO DISPLAY
003360:                                                                                                  #  THE DEVIATIONS. IF THE ASTRONAUT ACCEPTS THE DATA R22LEM  RETURNS TO    LSR22.3 TO INCORPORATE THE
003361:                                                                                                  #  DEVIATIONS INTO THE STATE VECTOR. IF THE ASTRONAUT REJECTS THE DEVIATIONS, NO MORE MEASUREMENTS ARE
003362:                                                                                                  #  PROCESSED FOR THIS MARK,I.E.,R22LEM  GETS THE NEXT MARK.
003363:
003364:
003365:                                                                                                  #  SUBROUTINES CALLED
003366:                                                                                                  #   WLINIT     LGCUPDTE     INTEGRV     INCORP1     ARCTAN
003367:                                                                                                  #   GETULC     RARARANG     INCORP2     NBSM        INTSTALL
003368:
003369:                                                                                                  #  OUTPUT
003370:                                                                                                  #   CORRECTED LM OR CSM STATE VECTOR (PERMANENT)
003371:                                                                                                  #   NUMBER OF MARKS INCORPORATED IN MARKCTR
003372:                                                                                                  #   MAGNITUDE OF POSITION DEVIATION (FOR DISPLAY) IN R22DISP METERS B-29
003373:                                                                                                  #   MAGNITUDE OF VELOCITY DEVIATION (FOR DISPLAY) IN R22DISP +2 M/CSEC B-7
003374:                                                                                                  #   UPDATED W-MATRIX
003375:
003376:
003377:                                                                                                  #  ERASABLE INITIALIZATION REQUIRED
003378:                                                                                                  #   LM AND CSM STATE VECTORS
003379:                                                                                                  #   W-MATRIX
003380:                                                                                                  #   MARK TIME IN MKTIME
003381:                                                                                                  #   RADAR RANGE IN RM METERS B-29
003382:                                                                                                  #         RANGE RATE IN RDOTM METERS/CSES B-7
003383:                                                                                                  #         SHAFT ANGLE IN RRSHAFT REVS.B0
003384:                                                                                                  #         TRUNNION ANGLE IN RRTRUN REVS. B0
003385:                                                                                                  #   GIMBAL ANGLES  INNER IN AIG
003386:                                                                                                  #                  MIDDLE IN AMG
003387:                                                                                                  #                  OUTER IN AOG
003388:                                                                                                  #   REFSMMAT
003389:                                                                                                  #   RENDWFLG
003390:                                                                                                  #   NOANGFLG
003391:                                                                                                  #   VEHUPFLG
003392:
003393:                                                                                                  #  DEBRIS
003394:                                                                                                  #   PUSHLIST--ALL
003395:                                                                                                  #   MX, MY, MZ  (VECTORS)
003396:


003398:                                                                                                  #   ULC,RXZ,SINTHETA,LGRET,RDRET,BVECTOR,W.IND,X78T
003399:
003400: 13,2207                                           BANK     13
003401: 26,2000                                           SETLOC   P20S3
003402: 26,2000                                           BANK
003403:
003404: 26,2370  E7,1454                                  EBANK=   LOSCOUNT
003405: 26,2370                                           COUNT*   $$/LSR22
003406: 26,2370           77624        LSR22.3            CALL
003407: 26,2371           11165                                    GRP2PC
003408: 26,2372           43014                           BON      SET
003409: 26,2373           04307                                    SURFFLAG                              #  ARE WE ON LUNAR SURFACE
003410: 26,2374           55143                                    LSR22.4                               #  YES
003411: 26,2375           02466                                    DMENFLG
003412: 26,2376           45014                           BOFF     CALL
003413: 26,2377           00747                                    VEHUPFLG
003414: 26,2400           54432                                    DOLEM
003415: 26,2401           27412                                    INTSTALL
003416: 26,2402           45014                           CLEAR    CALL                                  #  LM PRECISION INTEGRATION
003417: 26,2403           01674                                    VINTFLAG
003418: 26,2404           26644                                    SETIFLGS
003419: 26,2405           77624                           CALL
003420: 26,2406           55205                                    INTGRCAL
003421: 26,2407           77624                           CALL
003422: 26,2410           11165                                    GRP2PC
003423: 26,2411           77624                           CALL
003424: 26,2412           27412                                    INTSTALL
003425: 26,2413           43014                           CLEAR    BOFF
003426: 26,2414           01676                                    DIM0FLAG
003427: 26,2415           02756                                    RENDWFLG
003428: 26,2416           54422                                    NOTWCSM
003429: 26,2417           43014                           SET      SET                                   #  CSM WITH W-MATRIX INTEGRATION
003430: 26,2420           01476                                    DIM0FLAG
003431: 26,2421           01475                                    D6OR9FLG
003432: 26,2422           43014        NOTWCSM            SET      CLEAR
003433: 26,2423           01474                                    VINTFLAG
003434: 26,2424           01673                                    INTYPFLG
003435: 26,2425           45014                           SET      CALL
003436: 26,2426           01472                                    STATEFLG
003437: 26,2427           55205                                    INTGRCAL
003438: 26,2430           77650                           GOTO
003439: 26,2431           54462                                    MARKTEST
003440: 26,2432           77624        DOLEM              CALL
003441: 26,2433           27412                                    INTSTALL
003442: 26,2434           45014                           SET      CALL
003443: 26,2435           01474                                    VINTFLAG
003444: 26,2436           26644                                    SETIFLGS
003445: 26,2437           77624                           CALL
003446: 26,2440           55205                                    INTGRCAL
003447:


003449: 26,2441           77624                           CALL
003450: 26,2442           11165                                    GRP2PC
003451: 26,2443           77624                           CALL
003452: 26,2444           27412                                    INTSTALL
003453: 26,2445           43014                           CLEAR    BOFF
003454: 26,2446           01676                                    DIM0FLAG
003455: 26,2447           02756                                    RENDWFLG
003456: 26,2450           54454                                    NOTWLEM
003457: 26,2451           43014                           SET      SET                                   #  LM WITH W-MATRIX INTEGRATION
003458: 26,2452           01476                                    DIM0FLAG
003459: 26,2453           01475                                    D6OR9FLG
003460: 26,2454           43014        NOTWLEM            CLEAR    CLEAR
003461: 26,2455           01673                                    INTYPFLG
003462: 26,2456           01674                                    VINTFLAG
003463: 26,2457           45014                           SET      CALL
003464: 26,2460           01472                                    STATEFLG
003465: 26,2461           55205                                    INTGRCAL
003466: 26,2462           45014        MARKTEST           BON      CALL                                  #  HAS W-MATRIX BEEN INVALIDATED
003467: 26,2463           02716                                    RENDWFLG                              #  HAS W-MATRIX BEEN INVALIDATED
003468: 26,2464           54474                                    RANGEBQ
003469: 26,2465           55214                                    WLINIT                                #  YES - REINITIALIZE
003470: 26,2466           77776                           EXIT
003471: 26,2467           34755                           CA       ZERO
003472: 26,2470           55743                           TS       R65CNTR
003473: 26,2471           04616                           TC       BANKCALL
003474: 26,2472           46105                           CADR     R65LEM
003475: 26,2473           06036                           TC       INTPRET
003476: 26,2474           43174        RANGEBQ            AXT,2    BON                                   #  CLEAR X2.
003477: 26,2475           00000                                    0
003478: 26,2476           04304                                    LMOONFLG                              #  IS MOON SPHERE OF INFLUENCE
003479: 26,2477           54502                                    SETX2                                 #  YES. STORE ZERO IN SCALSHFT REGISTER
003480: 26,2500           77714                           INCR,2
003481: 26,2501           00002                                    2
003482: 26,2502           45134        SETX2              SXA,2    CALL
003483: 26,2503           03716                                    SCALSHFT                              #  0-MOON. 2-EARTH
003484: 26,2504           11165                                    GRP2PC
003485: 26,2505           54335                           SLOAD    SR                                    #  GET SINGLE PRECISION RVARMIN (B-12)
003486: 26,2506           01775                                    RVARMIN                               #  SHIFT TO TRIPLE PRECISION    (B-40)
003487: 26,2507           20635                                    28D
003488: 26,2510           77634                           RTB
003489: 26,2511           21537                                    TPMODE                                #  AND SAVE IN 20D
003490: 26,2512           00025                           STORE    20D
003491: 26,2513           77624                           CALL                                           #  BEGIN COMPUTING THE B-VECTORS, DELTAQ
003492: 26,2514           55276                                    GETULC                                #  B-VECTORS FOR RANGE
003493: 26,2515           57414                           BON      VCOMP                                 #  B0, COMP. IF LM BEING CORRECTED
003494: 26,2516           00707                                    VEHUPFLG
003495: 26,2517           54520                                    +1
003496: 26,2520           27523                           STOVL    BVECTOR
003497: 26,2521           06424                                    ZEROVECS
003498: 26,2522           03531                           STORE    BVECTOR    +6                         #  B1
003499:


003501: 26,2523           17537                           STODL    BVECTOR    +12D                       #  B2
003502: 26,2524           00045                                    36D
003503: 26,2525           44257                           SRR*     BDSU
003504: 26,2526           56174                                    2,2                                   #  SHIFT FROM EARTH/MOON SPHERE TO B-29
003505: 26,2527           03755                                    RM                                    #  RM - (MAGNITUDE RCSM-RLM)
003506: 26,2530           77657                           SLR*
003507: 26,2531           56574                                    2,2                                   #  SHIFT TO EARTH/MOON SPHERE
003508: 26,2532           17545                           STODL    DELTAQ                                #  EARTH B-29. MOON B-27
003509: 26,2533           00045                                    36D                                   #  RLC B-29/B-27
003510: 26,2534           63501                           NORM     DSQ                                   #  NORMALIZE AND SQUARE
003511: 26,2535           00047                                    X1
003512: 26,2536           53605                           DMP      SR*
003513: 26,2537           01771                                    RANGEVAR                              #  MULTIPLY BY RANGEVAR(B12) THEN
003514: 26,2540           20577                                    0          -2,1                       #  UNNORMALIZE
003515: 26,2541           53657                           SR*      SR*
003516: 26,2542           20601                                    0,1
003517: 26,2543           57176                                    0,2
003518: 26,2544           47057                           SR*      RTB
003519: 26,2545           57176                                    0,2
003520: 26,2546           21537                                    TPMODE
003521: 26,2547           02707                           STORE    VARIANCE                              #  B-40
003522: 26,2550           76276                           DCOMP    TAD
003523: 26,2551           00025                                    20D                                   #    B-40
003524: 26,2552           72240                           BMN      TLOAD
003525: 26,2553           54556                                    QOK
003526: 26,2554           00025                                    20D                                   #    B-40
003527: 26,2555           02707                           STORE    VARIANCE
003528: 26,2556           77624        QOK                CALL
003529: 26,2557           55344                                    LGCUPDTE
003530:
003531: 26,2560           77624                           CALL
003532: 26,2561           11165                                    GRP2PC
003533: 26,2562           77624                           CALL                                           #  B-VECTOR,DELTAQ FOR RANGE RATE
003534: 26,2563           55276                                    GETULC
003535: 26,2564           53725                           PDDL     SR*                                   #  GET RLC SCALED B-29/B-27
003536: 26,2565           00045                                    36D                                   #  AND SHIFT TO B-23
003537: 26,2566           57202                                    0          -4,2
003538: 26,2567           24045                           STOVL    36D                                   #  THEN STORE BACK IN 36D
003539: 26,2570           57414                           BON      VCOMP                                 #  B1, COMP. IF LM BEING CORRECTED
003540: 26,2571           00707                                    VEHUPFLG
003541: 26,2572           54573                                    +1
003542: 26,2573           77761                           VXSC
003543: 26,2574           00045                                    36D                                   #  B1 = RLC (B-24/B-22)
003544: 26,2575           27531                           STOVL    BVECTOR    +6
003545: 26,2576           01653                                    NUVLEM
003546: 26,2577           53257                           VSR*     VAD
003547: 26,2600           57170                                    6,2                                   #  SHIFT FOR EARTH/MOON SPHERE
003548: 26,2601           01667                                    VCVLEM                                #  EARTH B-7. MOON B-5
003549: 26,2602           53715                           PDVL     VSR*                                  #  VL TO PD6
003550: 26,2603           01601                                    NUVCSM
003551:


003553: 26,2604           57170                                    6,2                                   #  SHIFT FOR EARTH/MOON SPHERE
003554: 26,2605           52255                           VAD      VSU
003555: 26,2606           01615                                    VCVCSM
003556: 26,2607           50315                           PDVL     DOT                                   #  VC - VL = VLC TO PD6
003557: 26,2610           00001                                    0
003558: 26,2611           00007                                    6
003559: 26,2612           53606                           PUSH     SRR*                                  #  RDOT B-8/B-6 TO PD12
003560: 26,2613           56174                                    2,2                                   #  SHIFT FROM EARTH/MOON SPHERE TO B-8
003561: 26,2614           57316                           DSQ      DMPR                                  #  RDOT**2 B-16 X RATEVAR B12
003562: 26,2615           01773                                    RATEVAR
003563: 26,2616           02707                           STORE    VARIANCE
003564: 26,2617           54335                           SLOAD    SR
003565: 26,2620           01776                                    VVARMIN                               #  GET SINGLE PRECISION VVARMIN (B+12)
003566: 26,2621           20621                                    16D                                   #  SHIFT TO DP (B -4)
003567: 26,2622           00031                           STORE    24D                                   #  AND SAVE IN 24D
003568: 26,2623           50025                           DSU      BMN                                   #  IS MIN. VARIANCE > COMPUTED VARIANCE
003569: 26,2624           02707                                    VARIANCE
003570: 26,2625           54631                                    VOK                                   #  BRANCH - NO
003571: 26,2626           77745                           DLOAD                                          #  YES - USE MINIMUM VARIANCE
003572: 26,2627           00031                                    24D
003573: 26,2630           02707                           STORE    VARIANCE
003574: 26,2631           60545        VOK                DLOAD    SR2                                   #  RDOT(PD12) FROM B-8/B-6
003575: 26,2632           53725                           PDDL     SLR*                                  #  TO B-10/B-8
003576: 26,2633           03747                                    RDOTM                                 #  SHIFT TO EARTH/MOON SPHERE
003577: 26,2634           56577                                    0          -1,2                       #  B-7 TO B-10/B-8
003578: 26,2635           77625                           DSU
003579: 26,2636           77675                           DMPR
003580: 26,2637           00045                                    36D
003581: 26,2640           27545                           STOVL    DELTAQ                                #    B-33
003582: 26,2641           00001                                    0                                     #  NOW GET B0
003583: 26,2642           47235                           VXV      VXV                                   #  (ULC X VLC) X ULC
003584: 26,2643           57414                           BON      VCOMP                                 #  B0, COMP. IF LM BEING CORRECTED
003585: 26,2644           00707                                    VEHUPFLG
003586: 26,2645           54646                                    +1
003587: 26,2646           77657                           VSR*
003588: 26,2647           57200                                    0          -2,2                       #  SCALED B-5
003589: 26,2650           27523                           STOVL    BVECTOR
003590: 26,2651           06424                                    ZEROVECS
003591: 26,2652           00025                           STORE    20D                                   #  ZERO OUT 20 TO 25 IN PUSHLIST
003592: 26,2653           27537                           STOVL    BVECTOR    +12D
003593: 26,2654           03523                                    BVECTOR
003594: 26,2655           60246                           ABVAL    NORM                                  #  LOAD B0, GET MAGNITUDE AND NORMALIZE
003595: 26,2656           00025                                    20D                                   #  SHIFT COUNT IN 20D
003596: 26,2657           51575                           VLOAD    ABVAL
003597: 26,2660           03531                                    BVECTOR    +6D                        #  LOAD B1, GET MAGNITUDE AND NORMALIZE
003598: 26,2661           71301                           NORM     DLOAD
003599: 26,2662           00027                                    22D                                   #  SHIFT COUNT IN 22D
003600: 26,2663           00027                                    22D                                   #  FIND WHICH SHIFT IS SMALLER
003601: 26,2664           50025                           DSU      BMN                                   #  BRANCH- B0 HAS SMALLER SHIFT COUNT
003602: 26,2665           00025                                    20D
003603:


003605: 26,2666           54672                                    VOK1
003606: 26,2667           52150                           LXA,1    GOTO
003607: 26,2670           00026                                    22D                                   #  LOAD X2 WITH THE SMALLER SHIFT COUNT
003608: 26,2671           54674                                    VOK2
003609: 26,2672           77750        VOK1               LXA,1
003610: 26,2673           00024                                    20D
003611: 26,2674           53775        VOK2               VLOAD    VSL*                                  #  THEN ADJUST B0,B1,DELTAQ AND VARIANCE
003612: 26,2675           03523                                    BVECTOR                               #  WITH THI SSHIFT COUNT
003613: 26,2676           20201                                    0,1
003614: 26,2677           27523                           STOVL    BVECTOR
003615: 26,2700           03531                                    BVECTOR    +6
003616: 26,2701           77657                           VSL*
003617: 26,2702           20201                                    0,1
003618: 26,2703           17531                           STODL    BVECTOR    +6
003619: 26,2704           03545                                    DELTAQ
003620: 26,2705           77657                           SL*
003621: 26,2706           20201                                    0,1
003622: 26,2707           03545                           STORE    DELTAQ
003623: 26,2710           53745                           DLOAD    SL*                                   #  GET RLC AND ADJUST FOR SCALE SHIFT
003624: 26,2711           00045                                    36D
003625: 26,2712           20200                                    0          -1,1
003626: 26,2713           41316                           DSQ      DMP                                   #  MULTIPLY RLC**2 BY VARIANCE
003627: 26,2714           02707                                    VARIANCE
003628: 26,2715           47012                           SL4      RTB                                   #  SHIFT TO CONFORM TO BVECTORS AND DELTAQ
003629: 26,2716           21537                                    TPMODE
003630: 26,2717           36707                           STCALL   VARIANCE                              #  AND STORE TP VARIANCE
003631: 26,2720           55344                                    LGCUPDTE
003632:
003633: 26,2721           77624                           CALL
003634: 26,2722           11165                                    GRP2PC
003635: 26,2723           77414                           BON      EXIT                                  #  ARE ANGLES TO BE DONE
003636: 26,2724           04307                                    SURFFLAG
003637: 26,2725           55141                                    RENDEND                               #  NO
003638: 26,2726  E7,1455                                  EBANK=   AIG
003639: 26,2726           33275        MXMYMZ             CAF      AIGBANK
003640: 26,2727           54006                           TS       BBANK
003641: 26,2730           31455                           CA       AIG                                   #  YES, COMPUTE  MX, MY, MZ
003642: 26,2731           54766                           TS       CDUSPOT
003643: 26,2732           31456                           CA       AMG
003644: 26,2733           54770                           TS       CDUSPOT    +2
003645: 26,2734           31457                           CA       AOG
003646: 26,2735           54772                           TS       CDUSPOT    +4                         #  GIMBL ANGLES NOW IN CDUSPOT FOR TRG*NBSM
003647: 26,2736           06036                           TC       INTPRET
003648: 26,2737           45175                           VLOAD    CALL
003649: 26,2740           06422                                    UNITX
003650: 26,2741           47570                                    TRG*NBSM
003651: 26,2742           76505                           VXM      VSL1
003652: 26,2743           01734                                    REFSMMAT
003653: 26,2744           27675                           STOVL    MX
003654: 26,2745           06420                                    UNITY
003655:


003657: 26,2746           77624                           CALL
003658: 26,2747           47577                                    *NBSM*
003659: 26,2750           76505                           VXM      VSL1
003660: 26,2751           01734                                    REFSMMAT
003661: 26,2752           27703                           STOVL    MY
003662: 26,2753           06416                                    UNITZ
003663: 26,2754           77624                           CALL
003664: 26,2755           47577                                    *NBSM*
003665: 26,2756           76505                           VXM      VSL1
003666: 26,2757           01734                                    REFSMMAT
003667: 26,2760           37711        SHAFTBQ            STCALL   MZ
003668: 26,2761           55324                                    RADARANG
003669: 26,2762           77624                           CALL
003670: 26,2763           11165                                    GRP2PC
003671: 26,2764           50375                           VLOAD    DOT                                   #  COMPUTE DELTAQ,B VECTORS FOR SHAFT ANG.
003672: 26,2765           03722                                    ULC
003673: 26,2766           03675                                    MX
003674: 26,2767           77752                           SL1
003675: 26,2770           24023                           STOVL    SINTH                                 #  18D
003676: 26,2771           03722                                    ULC
003677: 26,2772           72441                           DOT      SL1
003678: 26,2773           03711                                    MZ
003679: 26,2774           34021                           STCALL   COSTH                                 #  16D
003680: 26,2775           26510                                    ARCTAN
003681: 26,2776           41221                           BDSU     DMP
003682: 26,2777           03734                                    RRSHAFT
003683: 26,3000           15404                                    2PI/8
003684: 26,3001           41472                           SL3R     PUSH
003685: 26,3002           52545                           DLOAD    SL3
003686: 26,3003           01701                                    X789
003687: 26,3004           44257                           SRR*     BDSU                                  #  SHIFT FROM -5/-3 TO B0
003688: 26,3005           56176                                    0,2
003689: 26,3006           53605                           DMP      SRR*
003690: 26,3007           03720                                    RXZ
003691: 26,3010           21601                                    0,1                                   #  SHIFT TO EARTH/MOON SPHERE
003692: 26,3011           27545                           STOVL    DELTAQ                                #  EARTH B-29. MOON B-27
003693: 26,3012           03722                                    ULC
003694: 26,3013           76435                           VXV      VSL1
003695: 26,3014           03703                                    MY
003696: 26,3015           77656                           UNIT
003697: 26,3016           57414                           BOFF     VCOMP                                 #  B0, COMP. IF CSM BEING CORRECTED
003698: 26,3017           00747                                    VEHUPFLG
003699: 26,3020           55021                                    +1
003700: 26,3021           27523                           STOVL    BVECTOR
003701: 26,3022           06424                                    ZEROVECS
003702: 26,3023           03531                           STORE    BVECTOR    +6
003703: 26,3024           17537                           STODL    BVECTOR    +12D
003704: 26,3025           03720                                    RXZ
003705: 26,3026           53657                           SR*      SRR*                                  #  SHIFT FROM EARTH/MOON SPHERE TO B-25
003706: 26,3027           20577                                    0          -2,1
003707:


003709: 26,3030           56176                                    0,2
003710: 26,3031           03537                           STORE    BVECTOR    +12D
003711: 26,3032           77735                           SLOAD
003712: 26,3033           02011                                    SHAFTVAR
003713: 26,3034           41215                           DAD      DMP
003714: 26,3035           15401                                    IMUVAR                                #  RAD**2 B12
003715: 26,3036           03720                                    RXZ
003716: 26,3037           41257                           SRR*     DMP
003717: 26,3040           21601                                    0,1                                   #  SHIFT TO EARTH/MOON SPHERE
003718: 26,3041           03720                                    RXZ
003719: 26,3042           53657                           SR*      SR*
003720: 26,3043           20577                                    0          -2,1
003721: 26,3044           57176                                    0,2
003722: 26,3045           47057                           SR*      RTB
003723: 26,3046           57176                                    0,2
003724: 26,3047           21537                                    TPMODE                                #  STORE VARIANCE TRIPLE PRECISION
003725: 26,3050           36707                           STCALL   VARIANCE                              #  B-40
003726: 26,3051           55344                                    LGCUPDTE
003727:
003728: 26,3052           77624                           CALL
003729: 26,3053           11165                                    GRP2PC
003730: 26,3054           77624        TRUNBQ             CALL
003731: 26,3055           55324                                    RADARANG
003732: 26,3056           77624                           CALL
003733: 26,3057           11165                                    GRP2PC
003734: 26,3060           47375                           VLOAD    VXV
003735: 26,3061           03722                                    ULC
003736: 26,3062           03703                                    MY
003737: 26,3063           47372                           VSL1     VXV
003738: 26,3064           03722                                    ULC
003739: 26,3065           77772                           VSL1                                           #  (ULC X MY) X ULC
003740: 26,3066           57414                           BOFF     VCOMP                                 #  B0, COMP. IF CSM BEING CORRECTED
003741: 26,3067           00747                                    VEHUPFLG
003742: 26,3070           55071                                    +1
003743: 26,3071           27523                           STOVL    BVECTOR
003744: 26,3072           06424                                    ZEROVECS
003745: 26,3073           03531                           STORE    BVECTOR    +6
003746: 26,3074           17537                           STODL    BVECTOR    +12D
003747: 26,3075           03720                                    RXZ
003748: 26,3076           53657                           SR*      SRR*                                  #  SHIFT FROM EARTH/MOON SPHERE TO B-25
003749: 26,3077           20577                                    0          -2,1
003750: 26,3100           56176                                    0,2
003751: 26,3101           03541                           STORE    BVECTOR    +14D
003752: 26,3102           77735                           SLOAD
003753: 26,3103           02012                                    TRUNVAR
003754: 26,3104           41215                           DAD      DMP
003755: 26,3105           15401                                    IMUVAR
003756: 26,3106           03720                                    RXZ
003757: 26,3107           41257                           SRR*     DMP
003758: 26,3110           21601                                    0,1                                   #  SHIFT TO EARTH/MOON SPHERE
003759:


003761: 26,3111           03720                                    RXZ
003762: 26,3112           53657                           SR*      SR*
003763: 26,3113           20577                                    0          -2,1
003764: 26,3114           57176                                    0,2
003765: 26,3115           47057                           SR*      RTB
003766: 26,3116           57176                                    0,2
003767: 26,3117           21537                                    TPMODE                                #  STORE VARIANCE TRIPLE PRECISION
003768: 26,3120           16707                           STODL    VARIANCE
003769: 26,3121           03730                                    SINTHETA
003770: 26,3122           44336                           ASIN     BDSU                                  #  SIN THETA IN PD6
003771: 26,3123           03732                                    RRTRUN
003772: 26,3124           56405                           DMP      SL3R
003773: 26,3125           15404                                    2PI/8
003774: 26,3126           52525                           PDDL     SL3
003775: 26,3127           01703                                    X789       +2
003776: 26,3130           44257                           SRR*     BDSU                                  #  SHIFT FROM -5/-3 TO B0
003777: 26,3131           56176                                    0,2
003778: 26,3132           53605                           DMP      SRR*
003779: 26,3133           03720                                    RXZ
003780: 26,3134           21601                                    0,1
003781: 26,3135           37545                           STCALL   DELTAQ                                #  EARTH B-29. MOON B-27
003782: 26,3136           55344                                    LGCUPDTE
003783: 26,3137           77624                           CALL
003784: 26,3140           11165                                    GRP2PC
003785: 26,3141           77650        RENDEND            GOTO
003786: 26,3142           50614                                    R22LEM93
003787:                                                                                                  #  FUNCTIONAL DESCRIPTION
003788:
003789:                                                                                                  #  LSR22.4 IS THE ENTRY TO PERFORM LUNAR SURFACE NAVIGATION FOR THE LM
003790:                                                                                                  #  COMPUTER ONLY. THIS ROUTINE COMPUTES THE B-VECTORS AND DELTA Q FOR RANGE
003791:                                                                                                  #  AND RANGE RATE MEASURED BY THE RENDEZVOUS RADAR
003792:
003793:                                                                                                  #  SUBROUTINES CALLED
003794:                                                                                                  #   INSTALL   LGCUPDTE  INCORP1   RP-TO-R
003795:                                                                                                  #   INTEGRV   GETULC    INCORP2
003796:
003797:                                                                                                  #  OUTPUT
003798:                                                                                                  #   CORRECTED CSM STATE VECTOR (PERMANENT)
003799:                                                                                                  #   NUMBER OF MARKS INCORPORATED IN MARKCTR
003800:                                                                                                  #   MAGNITUDE OF POSITION DEVIATION (FOR DISPLAY) IN R22DISP METERS B-29
003801:                                                                                                  #   MAGNITUDE OF VELOCITY DEVIATION (FOR DISPLAY) IN R22DISP +2 M/CSEC B-7
003802:                                                                                                  #   UPDATED W-MATRIX
003803:
003804:                                                                                                  #  ERASABLE INITIALIZATION REQUIRED
003805:                                                                                                  #   LM AND CSM STATE VECTORS
003806:                                                                                                  #   W-MATRIX
003807:                                                                                                  #   MARK TIME IN MKTIME
003808:                                                                                                  #   RADAR RANGE IN RM METERS B-29
003809:                                                                                                  #         RANGE RATE IN RDOTM METERS/CSEC B-7
003810:                                                                                                  #   VEHUPFLG
003811:


003813: 26,3143           77624        LSR22.4            CALL
003814: 26,3144           27412                                    INTSTALL
003815: 26,3145           43014                           SET      CLEAR
003816: 26,3146           01472                                    STATEFLG
003817: 26,3147           01674                                    VINTFLAG                              #  CALL TO GET LM POS + VEL IN REF COORD.
003818: 26,3150           77624                           CALL
003819: 26,3151           55205                                    INTGRCAL
003820: 26,3152           77624                           CALL
003821: 26,3153           11165                                    GRP2PC
003822: 26,3154           45014                           CLEAR    CALL
003823: 26,3155           02666                                    DMENFLG                               #  SET MATRIX SIZE TO 6X6 FOR INCORP
003824: 26,3156           27412                                    INTSTALL
003825: 26,3157           46145                           DLOAD    BHIZ                                  #  IS THIS FIRST TIME THROUGH
003826: 26,3160           03461                                    MARKCTR
003827: 26,3161           55174                                    INITWMX6                              #  YES. INITIALIZE 6X6 W-MATRIX
003828: 26,3162           43014                           CLEAR    SET
003829: 26,3163           01675                                    D6OR9FLG
003830: 26,3164           01476                                    DIM0FLAG
003831: 26,3165           43014                           SET      CLEAR
003832: 26,3166           01474                                    VINTFLAG
003833: 26,3167           01673                                    INTYPFLG
003834: 26,3170           77624                           CALL
003835: 26,3171           55205                                    INTGRCAL
003836: 26,3172           77650                           GOTO
003837: 26,3173           54474                                    RANGEBQ
003838:
003839: 26,3174           77624        INITWMX6           CALL
003840: 26,3175           55214                                    WLINIT                                #  INITIALIZE W-MATRIX
003841: 26,3176           45014                           SET      CALL
003842: 26,3177           01474                                    VINTFLAG
003843: 26,3200           26644                                    SETIFLGS
003844: 26,3201           77624                           CALL
003845: 26,3202           55205                                    INTGRCAL
003846: 26,3203           77650                           GOTO
003847: 26,3204           54474                                    RANGEBQ
003848:
003849:                                                                                                  #  THIS ROUTINE CLEARS RFINAL (DP) AND CALLS INTEGRV
003850:
003851: 26,3205           71220        INTGRCAL           STQ      DLOAD
003852: 26,3206           03673                                    IGRET
003853: 26,3207           03753                                    MKTIME
003854: 26,3210           34041                           STCALL   TDEC1
003855: 26,3211           27134                                    INTEGRV
003856: 26,3212           77650                           GOTO
003857: 26,3213           03673                                    IGRET
003858:
003859:                                                                                                  #  THIS ROUTINE INITIALIZES THE W-MATRIX BY ZEROING ALL W THEN SETTING
003860:                                                                                                  #  DIAGONAL ELEMENTS TO INITIAL STORED VALUES.
003861:
003862: 26,3214  E5,1400                                  EBANK=   W
003863:


003865: 26,3214           77776        WLINIT             EXIT
003866: 26,3215           33274                           CAF      WBANK
003867: 26,3216           54006                           TS       BBANK
003868: 26,3217           33402                           CAF      WSIZE
003869: 26,3220           55257                           TS       W.IND
003870: 26,3221           34755                           CAF      ZERO
003871: 26,3222           51257                           INDEX    W.IND
003872: 26,3223           55400                           TS       W
003873: 26,3224           11257                           CCS      W.IND
003874: 26,3225           03220                           TC       -5
003875: 26,3226           33275                           CAF      AIGBANK                               #  RESTORE EBANK 7
003876: 26,3227           54006                           TS       BBANK
003877: 26,3230           06036                           TC       INTPRET
003878: 26,3231           67214                           BON      SLOAD                                 #  IF ON LUNAR SURFACE,INITIALIZE WITH
003879: 26,3232           04307                                    SURFFLAG                              #  WSURFPOS AND WSURFVEL INSTEAD OF
003880: 26,3233           55237                                    WLSRFPOS                              #  WRENDPOS AND WRENDVEL
003881: 26,3234           02001                                    WRENDPOS
003882: 26,3235           77650                           GOTO
003883: 26,3236           55241                                    WPOSTORE
003884: 26,3237           77735        WLSRFPOS           SLOAD
003885: 26,3240           02007                                    WSURFPOS
003886: 26,3241           77661        WPOSTORE           SR                                             #  SHIFT TO B-19 SCALE
003887: 26,3242           20606                                    5
003888: 26,3243           02401                           STORE    W
003889: 26,3244           02411                           STORE    W          +8D
003890: 26,3245           02421                           STORE    W          +16D
003891: 26,3246           67214                           BON      SLOAD
003892: 26,3247           04307                                    SURFFLAG
003893: 26,3250           55254                                    WLSRFVEL
003894: 26,3251           02002                                    WRENDVEL
003895: 26,3252           77650                           GOTO
003896: 26,3253           55256                                    WVELSTOR
003897: 26,3254           77735        WLSRFVEL           SLOAD
003898: 26,3255           02010                                    WSURFVEL
003899: 26,3256           02511        WVELSTOR           STORE    W          +72D
003900: 26,3257           02521                           STORE    W          +80D
003901: 26,3260           02531                           STORE    W          +88D
003902: 26,3261           77735                           SLOAD
003903: 26,3262           02003                                    WSHAFT
003904: 26,3263           02621                           STORE    W          +144D
003905: 26,3264           77735                           SLOAD
003906: 26,3265           02004                                    WTRUN
003907: 26,3266           02631                           STORE    W          +152D
003908: 26,3267           66214                           SET      SSP                                   #  SET RENDWFLG - W-MATRIX VALID
003909: 26,3270           02476                                    RENDWFLG
003910: 26,3271           03461                                    MARKCTR                               #  SET MARK COUNTER EQUAL ZERO
003911: 26,3272           00000                                    0
003912: 26,3273           77616                           RVQ
003913:
003914: 26,3274  E5,1400                                  EBANK=   W
003915:


003917: 26,3274           54065        WBANK              BBCON    WLINIT
003918: 26,3275  E7,1455                                  EBANK=   AIG
003919: 26,3275           54067        AIGBANK            BBCON    LSR22.3
003920:
003921:                                                                                                  #  GETULC
003922:
003923:                                                                                                  #  THIS SUBROUTINE COMPUTES THE RELATIVE POSITION VECTOR BETWEEN THE CSM
003924:                                                                                                  #  AND THE LM, LEAVING THE UNIT VECTOR IN THE PUSHLIST AND MPAC AND THE
003925:                                                                                                  #  MAGNITUDE IN 36D.
003926:
003927: 26,3276           77201        GETULC             SETPD    VLOAD
003928: 26,3277           00001                                    0
003929: 26,3300           01645                                    DELTALEM
003930: 26,3301           77754                           LXA,2
003931: 26,3302           03716                                    SCALSHFT                              #  LOAD X2 WITH SCALE SHIFT
003932: 26,3303           53257                           VSR*     VAD
003933: 26,3304           57165                                    9D,2                                  #  SHIFT FOR EARTH/MOON SPHERE
003934: 26,3305           01661                                    RCVLEM
003935: 26,3306           53715                           PDVL     VSR*
003936: 26,3307           01573                                    DELTACSM
003937: 26,3310           57165                                    9D,2                                  #  SHIFT FOR EARTH/MOON SPHERE
003938: 26,3311           52255                           VAD      VSU
003939: 26,3312           01607                                    RCVCSM
003940: 26,3313           41434                           RTB      PUSH                                  #  USE NORMUNIT TO PRESERVE ACCURACY
003941: 26,3314           21676                                    NORMUNX1
003942: 26,3315           17722                           STODL    ULC
003943: 26,3316           00045                                    36D
003944: 26,3317           77657                           SL*                                            #  ADJUST MAGNITUDE FROM NORMUNIT
003945: 26,3320           20201                                    0,1
003946: 26,3321           24045                           STOVL    36D                                   #  ULC IN PD0 AND MPAC,RLC IN 36D
003947: 26,3322           03722                                    ULC
003948: 26,3323           77616                           RVQ
003949:
003950:                                                                                                  #  RADARANG
003951:
003952:                                                                                                  #  THIS SUBROUTINE COMPUTES SINTHETA = -ULC DOT MY
003953:                                                                                                  #  RXZ = (SQRT (1-SINTHETA**2))RLC
003954:                                                                                                  #  OUTPUT
003955:                                                                                                  #   ULC IN ULC, PD0
003956:                                                                                                  #   RLC IN PD36D
003957:                                                                                                  #   SIN THETA IN SINTHETA AND PD6
003958:                                                                                                  #   RXZ NORM IN RXZ (N IN X1)
003959: 26,3324           45020        RADARANG           STQ      CALL
003960: 26,3325           03673                                    RDRET
003961: 26,3326           55276                                    GETULC
003962: 26,3327           50276                           VCOMP    DOT
003963: 26,3330           03703                                    MY
003964: 26,3331           41572                           SL1R     PUSH                                  #  SIN THETA TO PD6
003965: 26,3332           03730                           STORE    SINTHETA
003966: 26,3333           44316                           DSQ      BDSU
003967: 26,3334           06414                                    DP1/4TH                               #  1 - (SIN THETA)**2
003968:


003970: 26,3335           41366                           SQRT     DMP
003971: 26,3336           00045                                    36D
003972: 26,3337           60352                           SL1      NORM
003973: 26,3340           00047                                    X1                                    #  SET SHIFT COUNTER IN X1
003974: 26,3341           03720                           STORE    RXZ
003975: 26,3342           77650                           GOTO                                           #  EXIT
003976: 26,3343           03673                                    RDRET
003977: 26,3344           45020        LGCUPDTE           STQ      CALL
003978: 26,3345           03673                                    LGRET
003979: 26,3346           46433                                    INCORP1
003980: 26,3347           51575                           VLOAD    ABVAL
003981: 26,3350           02673                                    DELTAX     +6
003982: 26,3351           53754                           LXA,2    SRR*
003983: 26,3352           03716                                    SCALSHFT                              #  0 - MOON.  2 - EARTH
003984: 26,3353           56174                                    2,2                                   #  SET VEL DISPLAY TO B-7
003985: 26,3354           24317                           STOVL    R22DISP    +2
003986: 26,3355           02665                                    DELTAX
003987: 26,3356           53646                           ABVAL    SRR*
003988: 26,3357           56174                                    2,2                                   #  SET POS DISPLAY TO B-29
003989: 26,3360           00315                           STORE    R22DISP
003990: 26,3361           54335                           SLOAD    SR
003991: 26,3362           02005                                    RMAX
003992: 26,3363           20613                                    10D
003993: 26,3364           50025                           DSU      BMN
003994: 26,3365           00315                                    R22DISP
003995: 26,3366           50620                                    R22LEM96                              #  GO DISPLAY
003996: 26,3367           45335                           SLOAD    DSU
003997: 26,3370           02006                                    VMAX
003998: 26,3371           00317                                    R22DISP    +2                         #  VMAX MINUS VEL. DEVIATION
003999: 26,3372           77640                           BMN
004000: 26,3373           50620                                    R22LEM96                              #  GO DISPLAY
004001: 26,3374           77624        ASTOK              CALL
004002: 26,3375           46645                                    INCORP2
004003: 26,3376           77650                           GOTO
004004: 26,3377           03673                                    LGRET
004005: 26,3400           00103 03370  IMUVAR             2DEC     E-6        B12                        #  RAD**2
004006:
004007: 26,3402           00241        WSIZE              DEC      161        B-14
004008: 26,3403           31103 36652  2PI/8              2DEC     3.141592653 B-2
004009: 26,3405  E7,1454                                  EBANK=   LOSCOUNT
004010:


004012:                                                                                                  #  PROGRAM NAME LRS24.1   RR SEARCH ROUTINE
004013:                                                                                                  #  MOD NO  0        BY  P VOLANTE  SDC          DATE 1-15-67
004014:
004015:
004016:                                                                                                  #  FUNCTIONAL DESCRIPTION
004017:
004018:                                                                                                  #  DRIVES THE RENDEZVOUS RADAR IN A HEXAGONAL SEARCH PATTERN ABOUT THE LOS TO THE CSM (COMPUTED FROM THE CSM AND LM
004019:                                                                                                  #  STATE VECTORS) CHECKING FOR THE DATA GOOD DISCRETE AND MONITORING THE ANGLE BETWEEN THE RADAR BORESIGHT AND THE
004020:                                                                                                  #  LM +Z AXIS. IF THIS ANGLE EXCEEDS 30 DEGREES THE PREFERRED TRACKING ATTITUDE ROUTINE IS CALLED TO PERFORM AN
004021:                                                                                                  #  ATTITUDE MANEUVER.
004022:
004023:
004024:                                                                                                  #  CALLING SEQUENCE - BANKCALL FOR LRS24.1
004025:
004026:
004027:                                                                                                  #  SUBROUTINES CALLED
004028:
004029:                                                                                                  #        LEMCONIC      R61LEM
004030:                                                                                                  #        CSMCONIC      RRDESSM
004031:                                                                                                  #        JOBDELAY      FLAGDOWN
004032:                                                                                                  #        WAITLIST      FLAGUP
004033:                                                                                                  #        RRNB          BANKCALL
004034:
004035:
004036:                                                                                                  #  EXIT -  TO ENDOFJOB WHEN THE SEARCH FLAG (SRCHOPT) IS NOT SET
004037:
004038:
004039:                                                                                                  #  OUTPUT
004040:
004041:                                                                                                  #      DATAGOOD (SP)-FOR DISPLAY IN R1- 00000 INDICATES NO LOCKON
004042:                                                                                                  #                                       11111 INDICATES LOCKON ACHIEVED
004043:                                                                                                  #      OMEGAD   (SP)-FOR DISPLAY IN R2- ANGLE BETWEEN RR BORESIGHT VECTOR AND THE SPACECRAFT +Z AXIS
004044:
004045:                                                                                                  #  ERASABLE INITIALIZATION REQUIRED
004046:                                                                                                  #     SEARCH FLAG MUST BE SET
004047:                                                                                                  #     LM AND CSM STATE VECTORS AND REFSMMAT MATRIX
004048:                                                                                                  #  DEBRIS
004049:
004050:                                                                                                  #     RLMSRCH      UXVECT
004051:                                                                                                  #     VXRLM        UYVECT
004052:                                                                                                  #     LOSDESRD     NSRCHPNT
004053:                                                                                                  #     DATAGOOD     OMEGAD
004054:                                                                                                  #     MPAC         PUSHLIST
004055:
004056: 26,3405                                           COUNT*   $$/LRS24
004057: 26,3405           34755        LRS24.1            CAF      ZERO
004058: 26,3406           55734                           TS       NSRCHPNT                              #  SET SEARCH PATTERN POINT COUNTER TO ZERO
004059: 26,3407           34736        CHKSRCH            CAF      BIT14                                 #  ISSUE AUTO TRACK ENABLE TO RADAR
004060: 26,3410           00006                           EXTEND
004061:


004063: 26,3411           05012                           WOR      CHAN12
004064: 26,3412           34736                           CAF      SRCHOBIT                              #  CHECK IF SEARCH STILL REQUESTED
004065: 26,3413           70076                           MASK     FLAGWRD2                              #  (SRCHOPT FLAG SET)
004066: 26,3414           00006                           EXTEND
004067: 26,3415           15155                           BZF      ENDOFJOB                              #  NO-TERMINATE JOB
004068:
004069:
004070: 26,3416           33655                           CAF      6SECONDS                              #  SCHEDULE TASK TO DRIVE RADAR TO NEXT PT.
004071: 26,3417           00004                           INHINT
004072: 26,3420           05203                           TC       WAITLIST                              #  IN 6 SECONDS
004073: 26,3421  E7,1454                                  EBANK=   LOSCOUNT
004074: 26,3421           03605 54067                     2CADR    CALLDGCH
004075: 26,3423           00003                           RELINT
004076: 26,3424           40110                           CS       RADMODES                              #  IS REMODE IN PROGRESS
004077: 26,3425           74736                           MASK     BIT14                                 #  (BIT 14 RADMODES = 1)
004078: 26,3426           00006                           EXTEND
004079: 26,3427           15155                           BZF      ENDOFJOB                              #  YES- WAIT SIX SECONDS
004080: 26,3430           06036                           TC       INTPRET
004081:
004082: 26,3431           77634                           RTB
004083: 26,3432           21462                                    LOADTIME
004084: 26,3433           34041        LRS24.11           STCALL   TDEC1
004085: 26,3434           27100                                    LEMCONIC                              #  EXTRAPOLATE LM STATE VECTOR
004086: 26,3435           77775                           VLOAD
004087: 26,3436           00001                                    RATT
004088: 26,3437           27674                           STOVL    RLMSRCH                               #  SAVE LEM POSITION
004089: 26,3440           00007                                    VATT
004090: 26,3441           17736                           STODL    SAVLEMV                               #  SAVE LEM VELOCITY
004091: 26,3442           00015                                    TAT
004092: 26,3443           34041                           STCALL   TDEC1                                 #  EXTRAPOLATE CSM STATE VECTOR
004093: 26,3444           27066                                    CSMCONIC                              #  EXTRAPOLATE CSM STATE VECTOR
004094: 26,3445           52375                           VLOAD    VSU                                   #  LOS VECTOR = R(CSM)-R(LM)
004095: 26,3446           00001                                    RATT
004096: 26,3447           03674                                    RLMSRCH
004097: 26,3450           77656                           UNIT
004098: 26,3451           27710                           STOVL    LOSDESRD                              #  STORE DESIRED LOS
004099: 26,3452           00007                                    VATT                                  #  COMPUTE UNIT(V(CM) CROSS R(CM))
004100: 26,3453           47256                           UNIT     VXV
004101: 26,3454           00001                                    RATT
004102: 26,3455           77656                           UNIT
004103: 26,3456           03702                           STORE    VXRCM
004104: 26,3457           52375                           VLOAD    VSU
004105: 26,3460           00007                                    VATT
004106: 26,3461           03736                                    SAVLEMV
004107: 26,3462           76521                           MXV      VSL1                                  #  CONVERT FROM REFERENCE TO STABLE MEMBER
004108: 26,3463           01734                                    REFSMMAT
004109: 26,3464           03736                           STORE    SAVLEMV                               #  VLC = V(CSM) - V(LM)
004110: 26,3465           53135                           SLOAD    BZE                                   #  CHECK IF N=0
004111: 26,3466           03735                                    NSRCHPNT
004112:


004114: 26,3467           55600                                    DESGLOS                               #  YES-DESIGNATE ALONG LOS
004115: 26,3470           53025                           DSU      BZE                                   #  IS N=1
004116: 26,3471           15653                                    ONEOCT                                #  YES-CALCULATE X AND Y AXES OF
004117: 26,3472           55565                                    CALCXY                                #  SEARCH PATTERN COORDINATE SYSTEM
004118: 26,3473           77775                           VLOAD                                          #  NO-ROTATE X-Y AXES TO NEXT SEARCH POINT
004119: 26,3474           03716                                    UXVECT
004120: 26,3475           24015                           STOVL    UXVECTPR                              #  SAVE ORIGINAL X AND Y VECTORS
004121: 26,3476           03724                                    UYVECT                                #  UXPRIME = ORIGINAL UX
004122: 26,3477           00023                           STORE    UYVECTPR                              #  UYPRIME = ORIGINAL UY
004123: 26,3500           77761                           VXSC
004124: 26,3501           15647                                    SIN60DEG                              #  UX =(COS 60)UXPR +(SIN 60)UYPR
004125: 26,3502           27716                           STOVL    UXVECT
004126: 26,3503           00015                                    UXVECTPR
004127: 26,3504           53361                           VXSC     VAD
004128: 26,3505           06422                                    COS60DEG
004129: 26,3506           03716                                    UXVECT
004130: 26,3507           77656                           UNIT
004131: 26,3510           27716                           STOVL    UXVECT
004132: 26,3511           00015                                    UXVECTPR                              #  UY=(-SIN 60)UXPR +(COS 60)UYPR
004133: 26,3512           77761                           VXSC
004134: 26,3513           15647                                    SIN60DEG
004135: 26,3514           27724                           STOVL    UYVECT
004136: 26,3515           00023                                    UYVECTPR
004137: 26,3516           52361                           VXSC     VSU
004138: 26,3517           06422                                    COS60DEG
004139: 26,3520           03724                                    UYVECT
004140: 26,3521           77656                           UNIT
004141: 26,3522           03724                           STORE    UYVECT
004142: 26,3523           53361        OFFCALC            VXSC     VAD                                   #  OFFSET VECTOR = K(UY)
004143: 26,3524           15651                                    OFFSTFAC                              #  LOS VECTOR + OFFSET VECTOR DEFINES
004144: 26,3525           03710                                    LOSDESRD                              #  DESIRED POINT IN SEARCH PATTERN
004145: 26,3526           64256                           UNIT     MXV
004146: 26,3527           01734                                    REFSMMAT                              #  CONVERT TO STABLE MEMBER COORDINATES
004147: 26,3530           77772                           VSL1
004148: 26,3531           25102        CONTDESG           STOVL    RRTARGET
004149: 26,3532           03736                                    SAVLEMV
004150: 26,3533           01761                           STORE    LOSVEL
004151: 26,3534           77776                           EXIT
004152: 26,3535           00004                           INHINT
004153: 26,3536           06027                           TC       KILLTASK                              #  KILL ANY PRESENTLY WAITLISTED TASK
004154: 26,3537           52602                           CADR     DESLOOP    +2                         #  WHICH WOULD DESIGNATE TO THE LAST
004155:                                                                                                  #  POINT IN THE PATTERN
004156: 26,3540           44735        CONTDES2           CS       BIT15
004157: 26,3541           70110                           MASK     RADMODES                              #  SET BIT 15 OF RADMODES TO INDICATE
004158: 26,3542           64735                           AD       BIT15                                 #  A CONTINUOUS DESIGNATE WANTED
004159: 26,3543           54110                           TS       RADMODES
004160: 26,3544           06036                           TC       INTPRET
004161:
004162: 26,3545           77624                           CALL
004163: 26,3546           52373                                    RRDESSM                               #  DESIGNATE RADAR TO RRTARGET VECTOR
004164:


004166:
004167: 26,3547           77776                           EXIT
004168: 26,3550           03637                           TC       LIMALARM                              #  LOS NOT IN MODE 2 COVERAGE (P22)
004169: 26,3551           03637                           TC       LIMALARM                              #  VEHICLE MANEUVER REQUIRED (P20)
004170:
004171:
004172:                                                                                                  #  COMPUTE OMEGA,ANGLE BETWEEN RR LOS AND
004173:                                                                                                  #  SPACECRAFT +Z AXIS
004174: 26,3552           00006        OMEGCALC           EXTEND
004175: 26,3553           30036                           DCA      CDUT
004176: 26,3554           53751                           DXCH     TANGNB
004177: 26,3555           06036                           TC       INTPRET
004178: 26,3556           77624                           CALL
004179: 26,3557           46041                                    RRNB
004180: 26,3560           65545                           DLOAD    ACOS                                  #  OMEGA IS ARCCOSINE OF Z-COMPONENT OF
004181: 26,3561           00045                                    36D                                   #  VECTOR COMPUTED BY RRNB (LEFT AT 32D)
004182: 26,3562           03733                           STORE    OMEGDISP                              #  STORE FOR DISPLAY IN R2
004183: 26,3563           77776                           EXIT
004184: 26,3564           05155                           TC       ENDOFJOB
004185:


004187:                                                                                                  #  CALCULATE X AND Y VECTORS FOR SEARCH PATTERN COORDINATE SYSTEM
004188:
004189:
004190: 26,3565           47375        CALCXY             VLOAD    VXV
004191: 26,3566           03702                                    VXRCM
004192: 26,3567           03710                                    LOSDESRD
004193: 26,3570           77656                           UNIT
004194: 26,3571           27716                           STOVL    UXVECT                                #  UX = (VLM X RLM) X LOS
004195: 26,3572           03710                                    LOSDESRD
004196: 26,3573           53435                           VXV      UNIT
004197: 26,3574           03716                                    UXVECT
004198: 26,3575           03724                           STORE    UYVECT                                #  UY = LOS X UX
004199: 26,3576           77650                           GOTO
004200: 26,3577           55523                                    OFFCALC
004201:
004202:
004203: 26,3600           64375        DESGLOS            VLOAD    MXV                                   #  WHEN N= 0,DESIGNATE ALONG LOS
004204: 26,3601           03710                                    LOSDESRD
004205: 26,3602           01734                                    REFSMMAT                              #  CONVERT LOS FROM REFERENCE TO SM COORDS
004206: 26,3603           52172                           VSL1     GOTO
004207: 26,3604           55531                                    CONTDESG
004208:
004209:
004210: 26,3605           30074        CALLDGCH           CAE      FLAGWRD0                              #  IS RENDEZVOUS FLAG SET
004211: 26,3606           74745                           MASK     RNDVZBIT
004212: 26,3607           00006                           EXTEND
004213: 26,3610           15261                           BZF      TASKOVER                              #  NO-EXIT R24
004214: 26,3611           37712                           CAF      PRIO25                                #  YES-SCHEDULE JOB TO DRIVE RADAR TO NEXT
004215: 26,3612           05105                           TC       FINDVAC                               #  POINT IN SEARCH PATTERN
004216: 26,3613  E7,1673                                  EBANK=   RLMSRCH
004217: 26,3613           03616 54067                     2CADR    DATGDCHK
004218: 26,3615           05261                           TC       TASKOVER
004219:
004220:
004221: 26,3616           34750        DATGDCHK           CAF      BIT4
004222: 26,3617           00006                           EXTEND                                         #  CHECK IF DATA GOOD DISCRETE PRESENT
004223: 26,3620           02033                           RAND     CHAN33
004224: 26,3621           00006                           EXTEND
004225: 26,3622           13631                           BZF      STORE1S                               #  YES- GO TO STORE 11111 FOR DISPLAY IN R1
004226: 26,3623           46241                           CS       SIX
004227: 26,3624           61734                           AD       NSRCHPNT                              #  IS N GREATER THAN 6
004228: 26,3625           00006                           EXTEND
004229: 26,3626           13405                           BZF      LRS24.1                               #  YES - RESET N = 0 AND START AROUND AGAIN
004230: 26,3627           25734                           INCR     NSRCHPNT                              #  NO-SET N = N+1 AN GO TO
004231: 26,3630           13407                           TCF      CHKSRCH                               #  NEXT POINT IN PATTERN
004232:
004233:
004234: 26,3631           33645        STORE1S            CAF      ALL1S                                 #  STORE 11111 FOR DISPLAY IN R1
004235: 26,3632           55731                           TS       DATAGOOD
004236:


004238: 26,3633           00004                           INHINT
004239: 26,3634           06027                           TC       KILLTASK                              #  DELETE DESIGNATE TASK FROM
004240: 26,3635           52602                           CADR     DESLOOP    +2                         #  WAITLIST USING KILLTASK
004241: 26,3636           05155                           TC       ENDOFJOB
004242:
004243: 26,3637           05567        LIMALARM           TC       ALARM                                 #  ISSUE ALARM 527- LOS NOT IN MODE2
004244: 26,3640           00527                           OCT      527                                   #  COVERAGE IN P22 OR VEHICLE MANEUVER
004245: 26,3641           00004                           INHINT                                         #  REQUIRED IN P20
004246: 26,3642           06027                           TC       KILLTASK                              #  KILL WAITLIST CALL FOR NEXT
004247: 26,3643           55605                           CADR     CALLDGCH                              #  POINT IN SEARCH PATTERN
004248: 26,3644           05155                           TC       ENDOFJOB
004249:
004250:
004251: 26,3645           25547        ALL1S              DEC      11111      B-14
004252: 26,3646           33555 01106  SIN60DEG           2DEC     .86603
004253: 26,3650  23,2421               COS60DEG           =        DPHALF                                #  (2DEC   .50)
004254: 26,3650                        UXVECTPR           EQUALS   12D                                   #  PREVIOUS
004255: 26,3650                        UYVECTPR           EQUALS   18D
004256: 26,3650                        RLMUNIT            EQUALS   12D
004257: 26,3650           01642 11045  OFFSTFAC           2DEC     0.05678                               #  TANGENT OF 3.25 DEGREES
004258: 26,3652           00001        ONEOCT             OCT      00001                                 #  ****  NOTE-THESE TWO CONSTANTS MUST ****
004259: 26,3653           00000 00454  3SECONDS           2DEC     300        B-28                       #  ****  BE IN THIS ORDER BECAUSE      ****
004260:                                                                                                  #  ****  ONEOCT NEEDS A LOWER ORDER    ****
004261:                                                                                                  #  ****  WORD OF ZEROES                ****
004262: 26,3655           01130        6SECONDS           DEC      600        B-14
004263: 26,3656           00062        DEC50              DEC      50         B-14
004264:                                                                                                  #  ********************************
004265:
004266:                                                                                                  #  TEST PROGRAM FOR LSR22.3 --- TO BE REMOVED
004267:                                                                                                  #  ********************************
004268:
004269: 27,2156                                           BANK     27
004270:
004271: 27,2156  E7,1455                                  EBANK=   AIG
004272: 27,2156                                           COUNT*   $$/RTEST
004273: 27,2156           34755        TEST22.3           CAF      ZERO
004274: 27,2157           55122                           TS       LONG
004275: 27,2160           06036        LOOP22.3           TC       INTPRET
004276: 27,2161           70744                           LXC,2    DLOAD*
004277: 27,2162           01122                                    LONG
004278: 27,2163           62370                                    JOBOVER    +1,2
004279: 27,2164           03456                           STORE    AIG
004280: 27,2165           77743                           DLOAD*
004281: 27,2166           62367                                    JOBOVER    +2,2
004282: 27,2167           03457                           STORE    AMG
004283: 27,2170           77743                           DLOAD*
004284:


004286: 27,2171           62365                                    JOBOVER    +4,2
004287: 27,2172           03753                           STORE    MKTIME
004288: 27,2173           77743                           DLOAD*
004289: 27,2174           62363                                    JOBOVER    +6,2
004290: 27,2175           03755                           STORE    RM
004291: 27,2176           77743                           DLOAD*
004292: 27,2177           62361                                    JOBOVER    +8D,2
004293: 27,2200           03747                           STORE    RDOTM
004294: 27,2201           77743                           DLOAD*
004295: 27,2202           62357                                    JOBOVER    +10D,2
004296: 27,2203           03734                           STORE    RRSHAFT
004297: 27,2204           77743                           DLOAD*
004298: 27,2205           62355                                    JOBOVER    +12D,2
004299: 27,2206           03732                           STORE    RRTRUN
004300: 27,2207           77624                           CALL
004301: 27,2210           54370                                    LSR22.3
004302: 27,2211           77776        22.3ENT            EXIT
004303: 27,2212           31122                           CA       LONG
004304: 27,2213           62222                           AD       DEC13T
004305: 27,2214           55122                           TS       LONG
004306: 27,2215           11123                           CCS      LONG       +1
004307: 27,2216           02220                           TC       +2
004308: 27,2217           30000        STOP22.3           CA       A
004309: 27,2220           55123                           TS       LONG       +1
004310: 27,2221           02160                           TC       LOOP22.3
004311: 27,2222           00015        DEC13T             DEC      13         B-14
004312:
004313: 27,2223  26,3405               JOBOVER            EQUALS   LRS24.1                               #  ****  TEMPORARY DEFINITION ******
004314:
004315:                                                                                                  #  END OF TEST PROGRAM
004316:                                                                                                  #   ****************************************
004317: 27,2223  23,2423               ZERO/SP            EQUALS   HI6ZEROS
004318:    4616                                           BLOCK    02
004319:    6000                                           SETLOC   FFTAG5
004320:    6000                                           BANK
004321:    6022                                           COUNT*   $$/P20
004322:    6022           00006        GOTOV56            EXTEND                                         #  P20 TERMINATES BY GOTOV56 INSTEAD OF
004323:    6023           36026                           DCA      VB56CADR                              #  GOTOPOOH
004324:    6024           15165                           TCF      SUPDXCHZ
004325:    6025  E7,1467                                  EBANK=   WHOCARES
004326:    6025           03034 66107  VB56CADR           2CADR    TRMTRACK
004327:
004328:


004330:                                                                                                  #  PROGRAM NAME: R29  (RENDEZVOUS RADAR DESIGNATE DURING POWERED FLIGHT)
004331:                                                                                                  #  MOD NO. 2       BY H. BLAIR-SMITH       JULY 2, 1968.
004332:
004333:
004334:                                                                                                  #  FUNCTIONAL DESCRIPTION:
004335:
004336:                                                                                                  #  DESIGNATES THE RENDEZVOUS RADAR TOWARD THE COMPUTED LOS TO THE CSM, WITH THE CHIEF OBJECTIVE OF OBTAINING RANGE
004337:                                                                                                  #  AND RANGE RATE DATA AT 2-SECOND INTERVALS FOR TRANSMISSION TO THE GROUND.  WHEN THE RR IS WITHIN .5 DEGREE OF
004338:                                                                                                  #  THE COMPUTED LOS, TRACKING IS ENABLED, AND DESIGNATION CONTINUES UNTIL THE DATA-GOOD DISCRETE IS RECEIVED.  AT
004339:                                                                                                  #  THAT POINT, DESIGNATION CEASES AND A RADAR-READING ROUTINE TAKES OVER, PREPARING A CONSISTENT SET OF DATA FOR
004340:                                                                                                  #  DOWN TELEMETRY.  THE SET INCLUDES RANGE, RANGE RATE, MARK TIME, TWO RR CDU ANGLES, THREE IMUCDU ANGLES, AND AN
004341:                                                                                                  #  INDICATOR WHICH IS 1 WHEN THE SET IS CONSISTENT AND 0 OTHERWISE.  THE INDICATOR IS IN TRKMKCNT.
004342:
004343:                                                                                                  #  CALLING SEQUENCE:  BEGUN EVERY 2 SECONDS AS AN INTEGRAL PART OF SERVICER
004344:
004345:
004346:                                                                                                  #  SUBROUTINES CALLED:
004347:
004348:                                                                                                  #  REMODE   RRTONLY
004349:                                                                                                  #  UNIT     MPACVBUF
004350:                                                                                                  #  QUICTRIG AX*SR*T
004351:                                                                                                  #  SPSIN    SPCOS
004352:                                                                                                  #  SETRRECR RROUT
004353:                                                                                                  #  RRRDOT   RRRANGE
004354:
004355:
004356:                                                                                                  #  EXIT:  TO NOR29NOW, IN SERVICER.
004357:
004358:
004359:                                                                                                  #  OUTPUT:  (ALL FOR DOWNLINK)
004360:
004361:                                                                                                  #  RM       RDOTM                  (RAW)
004362:                                                                                                  #  AIG      AMG
004363:                                                                                                  #  AOG      TRKMKCNT               TRKMKCNT = 00001 IF SET IS CONSISTENT,
004364:                                                                                                  #  TANGNB   TANGNB +1              OTHERWISE TRKMKCNT = 00000.
004365:                                                                                                  #  MKTIME
004366:


004368:
004369:                                                                                                  #  ERASABLE INITIALIZATION REQUIRED:
004370:
004371:                                                                                                  #  NOR29FLG READRFLG               (TO 1 AND 0 BY FRESH START)  (RESET NOR29FLG TO LET SERVICER RUN R29)
004372:                                                                                                  #  PIPTIME  RADMODES (BIT 10)      (BIT SET TO 0 BY FRESH START)
004373:                                                                                                  #  R(CSM)   V(CSM)
004374:                                                                                                  #  R        V                      (PIPTIME THRU V BY AVE G IN SERVICER)
004375:
004376:
004377:                                                                                                  #  DEBRIS:
004378:
004379:                                                                                                  #  RADMODES (BIT 10)
004380:                                                                                                  #  LOSSM    LOSVDT/4       (= RRTARGET & LOSVEL)
004381:                                                                                                  #  SAVECDUT OLDESFLG       (SAVECDUT = MLOSV)
004382:                                                                                                  #  LOSCMFLG READRFLG
004383:
004384:
004385:                                                                                                  #  ALARMS:  NONE.
004386:
004387:
004388:                                                                                                  #  COMPONENT JOBS AND TASKS:
004389:
004390:                                                                                                  #  INITIALIZING, IF RR IS FOUND TO BE IN MODE 1:  JOB R29REMOJ AND TASK REMODE;  ALWAYS: TASK PREPOS29.
004391:                                                                                                  #  DESIGNATING:  TASK BEGDES29 & JOB R29DODES.
004392:                                                                                                  #  RADAR READING:  TASK R29READ AND JOB R29RDJOB.  ALL JOBS ARE NOVAC TYPE.
004393:
004394:
004395: 33,2045                                           BANK     33
004396: 33,2000                                           SETLOC   R29/SERV
004397: 33,2000                                           BANK
004398:
004399: 33,2045                                           COUNT*   $$/R29
004400:
004401: 33,2045     5014               NR29&RDR           EQUALS   EBANK5
004402:


004404:                                                                                                  #  SERVICER COMES TO R29 FROM "R29?" IF NOR29FLG, READRFLG, RRREMODE, RRCDUZRO, RRREPOS, AND DISPLAY-INERTIAL-DATA
004405:                                                                                                  #  ARE ALL RESET, AND THE RR IS IN LGC MODE (OFTEN CONFUSINGLY CALLED AUTO MODE).
004406:
004407: 33,2045           40110        R29                CS       RADMODES
004408: 33,2046           74742                           MASK     BIT10
004409: 33,2047           00006                           EXTEND
004410: 33,2050           12123                           BZF      R29.LOS                               #  BRANCH IF DESIGNATION IS ALREADY ON.
004411:
004412: 33,2051           00004                           INHINT
004413: 33,2052           26110                           ADS      RADMODES                              #  SHOW THAT DESIGNATION IS NOW ON.
004414: 33,2053           44736                           CS       BIT14
004415: 33,2054           00006                           EXTEND
004416: 33,2055           03012                           WAND     CHAN12                                #  REMOVE RR TRACK ENABLE DISCRETE.
004417: 33,2056           44740                           CS       LOSCMBIT
004418: 33,2057           70076                           MASK     FLAGWRD2
004419: 33,2060           54076                           TS       FLAGWRD2                              #  CLEAR LOSCMFLG TO SHOW DES. LOOP IS OFF.
004420: 33,2061           44753                           CS       OLDESBIT
004421: 33,2062           70074                           MASK     STATE
004422: 33,2063           54074                           TS       STATE                                 #  SHOW THAT DES. LOOP IS NOT REQUESTED.
004423: 33,2064           04616                           TC       BANKCALL
004424: 33,2065           52156                           CADR     SETRRECR                              #  ENABLE RR ERROR COUNTERS.
004425: 33,2066           34740                           CA       BIT12
004426: 33,2067           70110                           MASK     RADMODES
004427: 33,2070           10000                           CCS      A                                     #  TEST RR MODE BIT.
004428: 33,2071           12104                           TCF      SETPRPOS                              #  MODE 2.
004429:
004430: 33,2072           35031                           CA       PRIO21                                #  MODE 1; MUST REMODE.
004431: 33,2073           05072                           TC       NOVAC
004432: 33,2074  E7,1454                                  EBANK=   LOSCOUNT
004433: 33,2074           02113 66067                     2CADR    R29REMOJ                              #  NEEDS OWN JOB TO RADSTALL IN.
004434:
004435: 33,2076           44742                           CS       BIT10
004436: 33,2077           70110                           MASK     RADMODES                              #  CLEAR DESIGNATE FLAG IN RADMODES
004437: 33,2100           54110                           TS       RADMODES                              #  BEFORE CALLING REMODE
004438: 33,2101           34736                           CA       BIT14
004439: 33,2102           26110                           ADS      RADMODES                              #   SHOW THAT REMODING IS ON.
004440: 33,2103           12623                           TCF      NOR29NOW                              #  CONTINUE SERVICER FUNCTIONS.
004441:
004442: 33,2104           34753        SETPRPOS           CA       ONE
004443: 33,2105           05203                           TC       WAITLIST
004444: 33,2106  E7,1454                                  EBANK=   LOSCOUNT
004445: 33,2106           03601 52067                     2CADR    PREPOS29                              #  TASK TO SET TRUNNION ANGLE TO -180 DEG.
004446:
004447: 33,2110           34741                           CA       BIT11
004448: 33,2111           26110                           ADS      RADMODES                              #  SHOW THAT REPOSITIONING IS ON.
004449: 33,2112           12623                           TCF      NOR29NOW
004450:


004452:                                                                                                  #  FORCE RENDEZVOUS RADAR INTO MODE 2.
004453:
004454: 33,2113           34753        R29REMOJ           CA       ONE
004455: 33,2114           05203                           TC       WAITLIST
004456: 33,2115  E7,1454                                  EBANK=   LOSCOUNT
004457: 33,2115           02171 52067                     2CADR    REMODE                                #  REMODE MUST RUN AS A TASK.
004458: 33,2117           04616                           TC       BANKCALL                              #  WAIT FOR END OF REMODING.
004459: 33,2120           17667                           CADR     RADSTALL
004460:
004461: 33,2121           15155                           TCF      ENDOFJOB                              #  BAD EXIT CAN'T HAPPEN.
004462: 33,2122           15155                           TCF      ENDOFJOB
004463:
004464:                                                                                                  #  TASK TO PREPOSITION THE RR TRUNNION ANGLE TO -180 DEG.
004465:
004466: 25,2000                                           SETLOC   R29S1
004467: 25,2000                                           BANK
004468:
004469: 25,3601           34735        PREPOS29           CA       NEGMAX                                #  -180 DEG.
004470: 25,3602           02241                           TC       RRTONLY                               #  DRIVE TRUNNION CDU.
004471: 25,3603           44741                           CS       REPOSBIT                              #  SHOW THAT REPOSITIONING IS OFF.
004472: 25,3604           70110                           MASK     RADMODES
004473: 25,3605           54110                           TS       RADMODES
004474: 25,3606           15261                           TCF      TASKOVER
004475:
004476:
004477:                                                                                                  #  COMPUTE LINE-OF-SIGHT AND LOS VELOCITY, AND PASS THEM TO THE R29DODES LOOP.
004478:
004479:
004480: 33,2045                                           SETLOC   R29
004481: 33,2045                                           BANK
004482:
004483: 33,2123           00006        R29.LOS            EXTEND
004484: 33,2124           41235                           DCS      PIPTIME
004485: 33,2125           52155                           DXCH     MPAC
004486: 33,2126           00006                           EXTEND
004487: 33,2127           30025                           DCA      TIME2
004488: 33,2130           20155                           DAS      MPAC                                  #  (MPAC) = T-PIPTIME, SCALED B-28.
004489: 33,2131           54163                           TS       MODE                                  #  SET MODE TO DOUBLE PRECISION.
004490: 33,2132           30155                           CA       MPAC       +1
004491: 33,2133           00006                           EXTEND
004492: 33,2134           74740                           MP       BIT12
004493: 33,2135           52155                           DXCH     MPAC                                  #  T-PIPTIME NOW SCALED B-17.
004494: 33,2136           06036                           TC       INTPRET
004495:


004497:                                                                                                  #  LOSCMFLG=0 MEANS THAT THE DESIGNATION IS READY FOR NEW DATA.  SETTING LOSCMFLG MAKES IT GO AWAY SO SETUP29D CAN
004498:                                                                                                  #  START IT UP WHEN THE DATA IS IN PLACE.
004499:
004500:
004501: 33,2137           52315                           PDVL     VSU                                   #  PUSH DOWN T-PIPTIME.
004502: 33,2140           01726                                    V(CSM)
004503: 33,2141           03525                                    V                                     #  LOSVEL = V(CSM) - V.
004504: 33,2142           74325                           PDDL     VXSC                                  #  SWAP LOSVEL FOR T-PIPTIME, MULTIPLY THEM
004505: 33,2143           52255                           VAD      VSU                                   #   AND ADD THE RESULT TO R(CSM) - R TO GET
004506: 33,2144           01720                                    R(CSM)                                #   AN UP-TO-DATE LOS VECTOR IN SM AXES.
004507: 33,2145           03517                                    R
004508: 33,2146           77414                           BOFSET   EXIT                                  #  (BOFSET DOES ITS THING INHINTED.)
004509: 33,2147           01043                                    LOSCMFLG                              #  IF DESIGNATE LOOP IS OFF, CHANGE LOSCM-
004510: 33,2150           66152                                    SETUP29D                              #   FLG TO ON AND GO TO SET UP NEW DATA.
004511: 33,2151           12623                           TCF      NOR29NOW                              #  IF DES. LOOP IS ON, LET IT USE OLD DATA.
004512:
004513: 33,2152           25102        SETUP29D           STOVL    LOSSM                                 #  LINE-OF-SIGHT VECTOR, STABLE MEMBER AXES
004514: 33,2153           00001                                    0
004515: 33,2154           77761                           VXSC
004516: 33,2155           26177                                    .5SECB17
004517: 33,2156           01761                           STORE    LOSVDT/4                              #  1/2 SECOND'S WORTH OF LOS VELOCITY.
004518: 33,2157           77414                           CLEAR    EXIT
004519: 33,2160           01263                                    LOSCMFLG                              #  LET R29DLOOP USE NEW DATA.
004520:
004521: 33,2161           40074                           CS       STATE
004522: 33,2162           74753                           MASK     OLDESBIT
004523: 33,2163           00006                           EXTEND
004524: 33,2164           12623                           BZF      NOR29NOW                              #  BRANCH IF R29 DES. LOOP IS REQUESTED.
004525: 33,2165           00004                           INHINT
004526: 33,2166           26074                           ADS      STATE                                 #  OTHERWISE REQUEST IT NOW.
004527:
004528: 33,2167           11056                           CCS      PIPCTR                                #  SEE IF TASK SHOULD BE OFFSET ONE SECOND.
004529: 33,2170           44776                           CS       SUPER110                              #  -96D +100D = 4.
004530: 33,2171           64777                           AD       1SEC                                  #  0 +100D = 100D.
004531: 33,2172           05203                           TC       WAITLIST
004532: 33,2173  E7,1454                                  EBANK=   LOSCOUNT
004533: 33,2173           03253 50067                     2CADR    BEGDES29                              #  START BEGDES29 TASK ASAP.
004534: 33,2175           12623                           TCF      NOR29NOW                              #  RELINT AND CONTINUE SERVICER FUNCTIONS.
004535:
004536: 33,2176           00006 10000  .5SECB17           2DEC     50         B-17
004537:


004539:                                                                                                  #  R29 DESIGNATE JOB AND TASK MACHINERY.  TASK RECURS EVERY .5 SEC UNTIL DESIGNATE IS CALLED OFF; IT MAY WAIT FOR A
004540:                                                                                                  #  CENTISECOND OR TWO IF IT COMES UP WHILE SETUP29D IS SUPPLYING NEW DATA.
004541:
004542: 24,3253                                           BANK     24
004543: 24,2000                                           SETLOC   P20S
004544: 24,2000                                           BANK
004545:
004546: 24,3253                                           COUNT*   $$/R29
004547:
004548: 24,3253           35031        BEGDES29           CAF      PRIO21
004549: 24,3254           05072                           TC       NOVAC
004550: 24,3255  E3,1760                                  EBANK=   LOSVDT/4
004551: 24,3255           02545 64063                     2CADR    R29DODES                              #  START R29DODES JOB TWICE A SECOND.
004552:
004553: 24,3257           34774        R29DLOOP           CAF      .5SEC
004554: 24,3260           05224                           TC       VARDELAY
004555:
004556: 24,3261           40110                           CS       RADMODES
004557: 24,3262           74742                           MASK     BIT10
004558: 24,3263           10000                           CCS      A
004559: 24,3264           15261                           TCF      TASKOVER                              #  QUIT IF DESIGNATION IS CALLED OFF.
004560:
004561: 24,3265           40076                           CS       FLAGWRD2
004562: 24,3266           74740                           MASK     LOSCMBIT
004563: 24,3267           00006                           EXTEND
004564: 24,3270           13273                           BZF      +3                                    #  BRANCH IF SETUP29D'S SUPPLYING NEW DATA.
004565: 24,3271           26076                           ADS      FLAGWRD2                              #  SET LOSCMFLG:  SHOW THAT DES. LOOP IS ON.
004566: 24,3272           13253                           TCF      BEGDES29
004567:
004568: 24,3273           34753                           CA       ONE
004569: 24,3274           13260                           TCF      R29DLOOP   +1                         #  WAIT A CENTISECOND FOR NEW DATA.
004570:


004572:                                                                                                  #  R29DODES:  RR DESIGNATION LOOP FOR R29
004573:
004574:                                                                                                  #  THIS ROUTINE DOES MUCH THE SAME THING AS DODES, BUT A GREAT DEAL FASTER.  IT TAKES THE NON-UNITIZED LOS VECTOR
004575:                                                                                                  #  IN STABLE MEMBER COORDINATES (LOSSM) AND A DELTA-LOS IN SM AXES (LOSVDT/4) WHICH IS 1/2 SEC TIMES LOS VELOCITY,
004576:                                                                                                  #  AND DEVELOPS THE SHAFT AND TRUNNION COMMANDS USING SINGLE PRECISION AS MUCH AS POSSIBLE, AND INTERPRETIVE NOT AT
004577:                                                                                                  #  ALL.  THE UNIT(LOSSM + LOSVEL * 1 SEC) IS COMPUTED IN DP AND TRANSFORMED TO NAV BASE COORDINATES IN DOUBLE PRE-
004578:                                                                                                  #  CISION (USING SP SINES AND COSINES OF CDU ANGLES), AND THE REST IS DONE IN SP.
004579:
004580:                                                                                                  #  THE FUNCTIONAL DIFFERENCE IS THAT R29DODES ALWAYS CLEARS LOSCMFLG WHEN IT ENDS, AND IT STARTS UP THE R29READ
004581:                                                                                                  #  TASK WHEN LOCK-ON IS ACHIEVED.
004582:
004583: 32,2545                                           BANK     32
004584: 32,2000                                           SETLOC   F2DPS*32
004585: 32,2000                                           BANK
004586:
004587: 32,2545                                           COUNT*   $$/R29
004588: 32,2545  E3,1760                                  EBANK=   LOSVDT/4
004589:
004590: 32,2545           34753        R29DODES           CA       ONE
004591: 32,2546           55107                           TS       TANG                                  #  INDICATE 1ST PASS THRU VECTOR LOOP.
004592: 32,2547           34756                           CA       FIVE
004593:
004594: 32,2550           10000        R29DVBEG           CCS      A                                     #  COUNT DOWN BY TWOS IN VECTOR LOOP.
004595: 32,2551           54002                           TS       Q
004596: 32,2552           11107                           CCS      TANG
004597: 32,2553           12561                           TCF      R29DPAS1                              #  DO THIS ON 1ST PASS THRU LOOP.
004598:
004599: 32,2554           00006                           EXTEND                                         #  (A "PASS" HERE MEANS 3 TIMES AROUND).
004600: 32,2555           50002                           INDEX    Q
004601: 32,2556           31761                           DCA      LOSVDT/4
004602: 32,2557           50002                           INDEX    Q
004603: 32,2560           21102                           DAS      LOSSM                                 #  ADVANCE LOS VECTOR 1/2 SECOND.
004604:
004605: 32,2561           00006        R29DPAS1           EXTEND
004606: 32,2562           50002                           INDEX    Q
004607: 32,2563           31102                           DCA      LOSSM
004608: 32,2564           50002                           INDEX    Q                                     #  MOVE CURRENT LOS (1ST PASS) OR LOS PRO-
004609: 32,2565           52156                           DXCH     MPAC       +1                         #  JECTED 1/2 SEC AHEAD (2ND PASS).
004610: 32,2566           11107                           CCS      TANG
004611: 32,2567           12575                           TCF      R29DVEND                              #  BUG OUT HERE IN 1ST PASS.
004612:
004613: 32,2570           00006                           EXTEND
004614: 32,2571           50002                           INDEX    Q
004615: 32,2572           31761                           DCA      LOSVDT/4
004616: 32,2573           50002                           INDEX    Q
004617: 32,2574           20156                           DAS      MPAC       +1                         #  PROJECT LOS 1 SECOND AHEAD (2ND PASS).
004618:
004619: 32,2575           10002        R29DVEND           CCS      Q
004620: 32,2576           12550                           TCF      R29DVBEG                              #  BRANCH TO CONTINUE VECTOR LOOP.
004621:


004623:                                                                                                  #  UNITIZE AND TRANSFORM TO NAV BASE AXES THE PRESENT LOS (1ST PASS) OR THE 1-SEC PROJECTED LOS (2ND PASS).
004624:
004625: 32,2577           52156                           DXCH     MPAC       +1
004626: 32,2600           52155                           DXCH     MPAC
004627: 32,2601           32770                           CA       R29FXLOC                              #  = ADRES INTB15+ -34D
004628: 32,2602           54120                           TS       FIXLOC
004629: 32,2603           04713                           TC       USPRCADR                              #  WITH FIXLOC ARMED FOR LENGTH AND LENGTH
004630: 32,2604           01023                           CADR     UNIT                                  #  SQUARED, BORROW UNITIZING ROUTINE.
004631: 32,2605           07531                           TC       MPACVBUF                              #  MOVE UNIT(LOS) TO AX*SR*T ARG AREA.
004632:
004633: 32,2606           11107                           CCS      TANG
004634: 32,2607           12611                           TCF      +2
004635: 32,2610           12625                           TCF      GOTANGLS                              #  GET CDU ANGLES ONLY AFTER 1ST PASS.
004636: 32,2611           00004                           INHINT                                         #  ENSURE CONSISTENT CDU READINGS.
004637: 32,2612           00006                           EXTEND
004638: 32,2613           30036                           DCA      CDUT
004639: 32,2614           53767                           DXCH     SAVECDUT                              #  TRUNNION AND SHAFT ANGLES.
004640: 32,2615           30033                           CA       CDUY
004641: 32,2616           54766                           TS       CDUSPOT
004642: 32,2617           30034                           CA       CDUZ
004643: 32,2620           54770                           TS       CDUSPOT    +2
004644: 32,2621           30032                           CA       CDUX
004645: 32,2622           54772                           TS       CDUSPOT    +4                         #  CDU ANGLES IN FUNNY ORDER FOR AX*SR*T.
004646: 32,2623           04616                           TC       BANKCALL
004647: 32,2624           47521                           CADR     QUICTRIG                              #  GET SINES AND COSINES OF CDU ANGLES.
004648:
004649: 32,2625           46244        GOTANGLS           CS       THREE
004650: 32,2626           04616                           TC       BANKCALL
004651: 32,2627           47601                           CADR     AX*SR*T                               #  TRANSFORM UNIT LOS TO NB AXES (ULOSNB).
004652:
004653: 32,2630           11107                           CCS      TANG
004654: 32,2631           12633                           TCF      +2
004655: 32,2632           12676                           TCF      R29DPAS2                              #  GO TO RR COMMAND COMP. AFTER 2ND PASS.
004656:


004658:                                                                                                  #  COMPUTE COSINE OF THE ANGLE BETWEEN THE PRESENT LOS AND THE RR BORESIGHT VECTOR, AND SET THE SELFTRACK ENABLE IF
004659:                                                                                                  #  THE COSINE IS APPROXIMATELY COS(.5 DEG) OR GREATER (I.E. SMALLER ANGLE).
004660:
004661: 32,2633           55107                           TS       TANG                                  #  INDICATE 2ND PASS THRU VECTOR LOOP.
004662: 32,2634           31766                           CA       SAVECDUT
004663: 32,2635           05032                           TC       SPCOS
004664: 32,2636           54166                           TS       PUSHLOC                               #  PUSHLOC = COS T.
004665: 32,2637           41766                           CS       SAVECDUT
004666: 32,2640           05033                           TC       SPSIN
004667: 32,2641           54163                           TS       MODE                                  #  MODE = -SIN T.
004668: 32,2642           00006                           EXTEND
004669: 32,2643           70124                           MP       VBUF       +2                         #  FORM - SIN T ULOSNBY.
004670: 32,2644           52155                           DXCH     MPAC
004671: 32,2645           31767                           CA       SAVECDUT   +1
004672: 32,2646           05033                           TC       SPSIN
004673: 32,2647           55766                           TS       SAVECDUT                              #  SAVECDUT NOW = SIN S.
004674: 32,2650           00006                           EXTEND
004675: 32,2651           70166                           MP       PUSHLOC
004676: 32,2652           00006                           EXTEND
004677: 32,2653           70122                           MP       VBUF                                  #  FORM SIN S COS T ULOSNBX.
004678: 32,2654           20155                           DAS      MPAC
004679: 32,2655           31767                           CA       SAVECDUT   +1
004680: 32,2656           05032                           TC       SPCOS
004681: 32,2657           55767                           TS       SAVECDUT   +1                         #  SAVECDUT +1 NOW = COS S.
004682: 32,2660           00006                           EXTEND
004683: 32,2661           70166                           MP       PUSHLOC
004684: 32,2662           00006                           EXTEND
004685: 32,2663           70126                           MP       VBUF       +4                         #  FORM COS S COS T ULOSNBZ.
004686: 32,2664           20155                           DAS      MPAC                                  #  COS(ERROR) = ULOSNB . (SIN S COS T,
004687: 32,2665           00006                           EXTEND                                         #  -SIN T, COS S COS T).
004688: 32,2666           30155                           DCA      MPAC
004689: 32,2667           20155        TESTCOS            DAS      MPAC                                  #  (ULOSNB IN VBUF WAS A HALF-UNIT VECTOR).
004690: 32,2670           10000                           CCS      A                                     #  TEST FOR + OVERFLOW, NONE, OR MINUS.
004691: 32,2671           34736                           CA       BIT14
004692: 32,2672           12673                           NOOP
004693: 32,2673           00006                           EXTEND
004694: 32,2674           05012                           WOR      CHAN12                                #  IF PLUS OVERFLOW, SET SELFTRACK ENABLE.
004695: 32,2675           12547                           TCF      R29DVBEG   -1                         #  MAKE 2ND PASS THRU VECTOR LOOP.
004696:


004698:                                                                                                  #  COMPUTE SHAFT AND TRUNNION COMMANDS TO NULL HALF THE ERROR IN HALF A SECOND.
004699:
004700:
004701: 32,2676           31767        R29DPAS2           CA       SAVECDUT   +1
004702: 32,2677           00006                           EXTEND
004703: 32,2700           70122                           MP       VBUF                                  #  FORM COS S ULOSNB'X.
004704: 32,2701           53110                           DXCH     TANG
004705: 32,2702           41766                           CS       SAVECDUT
004706: 32,2703           00006                           EXTEND
004707: 32,2704           70126                           MP       VBUF       +4                         #  FORM - SIN S ULOSNB'Z.
004708: 32,2705           21110                           DAS      TANG                                  #  RAW SHAFT CMD = ULOSNB' . (COS S, 0,
004709: 32,2706           40163                           CS       MODE                                  #  - SIN S)
004710: 32,2707           00006                           EXTEND
004711: 32,2710           71766                           MP       SAVECDUT
004712: 32,2711           00006                           EXTEND
004713: 32,2712           70122                           MP       VBUF                                  #  FORM SIN T SIN S ULOSNB'X.
004714: 32,2713           52155                           DXCH     MPAC
004715: 32,2714           30166                           CA       PUSHLOC
004716: 32,2715           00006                           EXTEND
004717: 32,2716           70124                           MP       VBUF       +2                         #  FORM COS T ULOSNB'Y.
004718: 32,2717           20155                           DAS      MPAC
004719: 32,2720           40163                           CS       MODE
004720: 32,2721           00006                           EXTEND
004721: 32,2722           71767                           MP       SAVECDUT   +1
004722: 32,2723           00006                           EXTEND
004723: 32,2724           70126                           MP       VBUF       +4                         #  FORM SIN T COS S ULOSNB'Z.
004724: 32,2725           20155                           DAS      MPAC                                  #  RAW TRUNNION CMD = ULOSNB'.
004725: 32,2726           30154                           CA       MPAC                                  #  (SIN S SIN T, COS T, SIN S COS T).
004726: 32,2727           00006                           EXTEND
004727: 32,2730           72771                           MP       RR29GAIN
004728: 32,2731           57107                           XCH      TANG                                  #  STORE REFINED T CMD, GET RAW S CMD.
004729: 32,2732           00006                           EXTEND
004730: 32,2733           72771                           MP       RR29GAIN
004731: 32,2734           55110                           TS       TANG       +1                         #  STORE REFINED S CMD.
004732:


004734:                                                                                                  #  WHETHER OR NOT TRACKING WAS ENABLED THIS TIME, CHECK ON RR DATA-GOOD.  IF PRESENT, STOP DESIGNATING AND START
004735:                                                                                                  #  READING DATA FROM THE RENDEZVOUS RADAR.
004736:
004737: 32,2735           34750        DGOOD?             CAF      BIT4
004738: 32,2736           00006                           EXTEND
004739: 32,2737           02033                           RAND     CHAN33                                #  GET RR DATA-GOOD BIT.
004740: 32,2740           00004                           INHINT                                         #  (MAINLY FOR RROUT).
004741: 32,2741           00006                           EXTEND
004742: 32,2742           12746                           BZF      R29LOKON                              #  BRANCH IF DATA-GOOD IS PRESENT.
004743:
004744: 32,2743           04616                           TC       BANKCALL
004745: 32,2744           52306                           CADR     RROUT                                 #  DATA-GOOD IS ABSENT, SO SEND COMMANDS.
004746: 32,2745           12764                           TCF      END29DOD
004747:
004748: 32,2746           44742        R29LOKON           CS       BIT10
004749: 32,2747           70110                           MASK     RADMODES
004750: 32,2750           54110                           TS       RADMODES                              #  SHOW THAT DESIGNATION IS OVER.
004751: 32,2751           44752                           CS       BIT2
004752: 32,2752           00006                           EXTEND
004753: 32,2753           03012                           WAND     CHAN12                                #  DISABLE RR ERROR COUNTERS.
004754: 32,2754           34743                           CA       READRBIT
004755: 32,2755           26077                           ADS      FLAGWRD3                              #  SHOW THAT READING HAS BEEN REQUESTED.
004756: 32,2756           11056                           CCS      PIPCTR                                #  SEE IF TASK SHOULD BE OFFSET 1 SEC.
004757: 32,2757           44776                           CS       SUPER110                              #  -96D + 100D = 4.
004758: 32,2760           64777                           AD       1SEC                                  #  0 + 100D = 100D.
004759: 32,2761           05203                           TC       WAITLIST
004760: 32,2762  E7,1454                                  EBANK=   LOSCOUNT
004761: 32,2762           03275 50067                     2CADR    R29READ                               #  START READING TASK AND JOB.
004762:
004763: 32,2764           44740        END29DOD           CS       LOSCMBIT
004764: 32,2765           70076                           MASK     FLAGWRD2
004765: 32,2766           54076                           TS       FLAGWRD2                              #  ALWAYS CLEAR LOSCMFLG.
004766: 32,2767           15155                           TCF      ENDOFJOB
004767:
004768: 32,2770           00052        R29FXLOC           ADRES    INTB15+    -34D
004769: 32,2771           56655        RR29GAIN           DEC      -.53624
004770: 32,2772  E3,1760               LOSVDT/4           EQUALS   LOSVEL
004771: 32,2772     1101               LOSSM              EQUALS   RRTARGET
004772: 32,2772  E3,1766               SAVECDUT           EQUALS   MLOSV
004773:


004775:                                                                                                  #  RR READING IS SET UP BY R29DODES WHEN IT DETECTS RR LOCK-ON.
004776:
004777: 24,3275                                           BANK     24
004778: 24,2000                                           SETLOC   P20S
004779: 24,2000                                           BANK
004780:
004781: 24,3275                                           COUNT*   $$/R29
004782:
004783: 24,3275  E7,1454                                  EBANK=   LOSCOUNT
004784:
004785: 24,3275           37713        R29READ            CAF      PRIO26                                #  CALLED BY WAITLIST.
004786: 24,3276           05072                           TC       NOVAC
004787: 24,3277  E7,1454                                  EBANK=   LOSCOUNT
004788: 24,3277           03310 50067                     2CADR    R29RDJOB                              #  START JOB TO READ AND DOWNLINK FOR R29.
004789:
004790: 24,3301           35000                           CA       2SECS
004791: 24,3302           05224                           TC       VARDELAY
004792:
004793: 24,3303           30077                           CA       FLAGWRD3                              #  2 SECONDS LATER, SEE IF READING IS STILL
004794: 24,3304           74743                           MASK     READRBIT                              #  ALLOWED (NO TRACKER FAIL ETC.)
004795: 24,3305           10000                           CCS      A
004796: 24,3306           13275                           TCF      R29READ                               #  IT'S OK; CALL IT AGAIN.
004797: 24,3307           15261                           TCF      TASKOVER                              #  IT AIN'T; WAIT FOR REDESIGNATE.
004798:
004799: 24,3310           30077        R29RDJOB           CA       FLAGWRD3                              #  CALLED VIA NOVAC.
004800: 24,3311           74741                           MASK     NR29FBIT
004801: 24,3312           10000                           CCS      A                                     #  TEST "NOR29FLG".
004802: 24,3313           13372                           TCF      ENDRRD29                              #  R29 IS NOW OVER, STOP AT ONCE.
004803:
004804: 24,3314           30110                           CA       RADMODES
004805: 24,3315           74752                           MASK     BIT2
004806: 24,3316           10000                           CCS      A                                     #  TEST RR-NOT-IN-AUTO-MODE BIT.
004807: 24,3317           13372                           TCF      ENDRRD29                              #  ASTRO TOOK RR OUT OF AUTO MODE.
004808:
004809: 24,3320           04616                           TC       BANKCALL
004810: 24,3321           53103                           CADR     RRRDOT                                #  INITIATE READING OF RANGE RATE.
004811: 24,3322           04616                           TC       BANKCALL
004812: 24,3323           17667                           CADR     RADSTALL                              #  GO TO SLEEP UNTIL IT'S READY.
004813: 24,3324           13372                           TCF      ENDRRD29                              #  BAD READ; REDESIGNATE.
004814:


004816:                                                                                                  #  R29 RADAR READING CONTINUED.
004817:
004818:
004819: 24,3325           53106                           DXCH     TIMEHOLD
004820: 24,3326           52155                           DXCH     MPAC                                  #  TIME OF RR READING, FOR DOWNLINK.
004821: 24,3327           00004                           INHINT                                         #  BE SURE OF 5 CONSISTENT CDU ANGLES.
004822: 24,3330           00006                           EXTEND
004823: 24,3331           30036                           DCA      CDUT
004824: 24,3332           52157                           DXCH     MPAC       +2                         #  RRCDU ANGLES AT RR READ, FOR DOWNLINK.
004825: 24,3333           00006                           EXTEND
004826: 24,3334           30034                           DCA      CDUY
004827: 24,3335           52161                           DXCH     MPAC       +4                         #  MPAC'S 7 WORDS ARE BUFFER FOR COPYCYCLE.
004828: 24,3336           30032                           CA       CDUX
004829: 24,3337           54162                           TS       MPAC       +6                         #  IMUCDU ANGLES AT RR READ, FOR DOWNLINK.
004830:
004831: 24,3340           04616        R29RANGE           TC       BANKCALL
004832: 24,3341           53105                           CADR     RRRANGE                               #  INITIATE READING OF RR RANGE.
004833: 24,3342           04616                           TC       BANKCALL
004834: 24,3343           17667                           CADR     RADSTALL                              #  GO TO SLEEP UNTIL IT'S READY.
004835: 24,3344           13363                           TCF      R29RRR?                               #  BAD READ OR SCALE CHANGE ... WHICH?
004836:
004837: 24,3345           00004                           INHINT
004838: 24,3346           53334                           DXCH     DNRRANGE                              #  COPYCYCLE TO LAY OUT NEW R29 DOWNLINK.
004839: 24,3347           53755                           DXCH     RM
004840: 24,3350           52155                           DXCH     MPAC
004841: 24,3351           53753                           DXCH     MKTIME
004842: 24,3352           52157                           DXCH     MPAC       +2
004843: 24,3353           53751                           DXCH     TANGNB
004844: 24,3354           52161                           DXCH     MPAC       +4
004845: 24,3355           53456                           DXCH     AIG
004846: 24,3356           30162                           CA       MPAC       +6
004847: 24,3357           55457                           TS       AOG
004848: 24,3360           34753                           CA       ONE
004849: 24,3361           55460                           TS       TRKMKCNT                              #  SHOW THAT DOWNLINK DATA IS CONSISTENT.
004850: 24,3362           15155                           TCF      ENDOFJOB
004851:
004852: 24,3363           40101        R29RRR?            CS       FLAGWRD5
004853: 24,3364           74742                           MASK     BIT10
004854: 24,3365           10000                           CCS      A                                     #  WAS IT A SCALE CHANGE (REAL OR PHONY)?
004855: 24,3366           13372                           TCF      ENDRRD29                              #  NO, A BAD READ; REDESIGNATE.
004856: 24,3367           05516                           TC       DOWNFLAG
004857: 24,3370           00120                           ADRES    RNGSCFLG
004858: 24,3371           13340                           TCF      R29RANGE                              #  YES; CLEAR FLAG AND READ AGAIN.
004859:
004860: 24,3372           34755        ENDRRD29           CA       ZERO                                  #  TROUBLE MADE US COME HERE TO LEAVE THE
004861: 24,3373           55460                           TS       TRKMKCNT                              #  RR-READING MODE.  DISCREDIT DOWNTEL.
004862: 24,3374           05516                           TC       DOWNFLAG
004863: 24,3375           00063                           ADRES    READRFLG
004864: 24,3376           44736                           CS       BIT14
004865: 24,3377           00006                           EXTEND
004866:


004868: 24,3400           03012                           WAND     CHAN12                                #  REMOVE TRACK-ENABLE DISCRETE.
004869: 24,3401           15155                           TCF      ENDOFJOB
004870:


004872:                                                                                                  #  W-MATRIX MONITOR
004873:
004874: 31,2011                                           BANK     31
004875: 31,2000                                           SETLOC   VB67
004876: 31,2000                                           BANK
004877: 31,2011                                           COUNT*   $$/EXTVB
004878:
004879: 31,2011  E4,1604                                  EBANK=   WWPOS
004880:
004881: 31,2011           06036        V67CALL            TC       INTPRET
004882: 31,2012           77624                           CALL
004883: 31,2013           62114                                    V67WW
004884: 31,2014           77776                           EXIT
004885: 31,2015           00006                           EXTEND                                         #  SAVE THE PRESENT N99 VALUES FOR
004886: 31,2016           31605                           DCA      WWPOS                                 #  COMPARISON AFTER THE DISPLAY
004887: 31,2017           53611                           DXCH     WWVEL      +2
004888: 31,2020           00006                           EXTEND
004889: 31,2021           31607                           DCA      WWVEL
004890: 31,2022           53613                           DXCH     WWVEL      +4
004891: 31,2023           32171        V06N99DS           CAF      V06N99
004892: 31,2024           04616                           TC       BANKCALL
004893: 31,2025           20231                           CADR     GOXDSPFR
004894: 31,2026           15472                           TCF      ENDEXT
004895: 31,2027           12034                           TCF      +5
004896: 31,2030           12023                           TCF      V06N99DS
004897: 31,2031           34751                           CAF      BIT3
004898: 31,2032           05464                           TC       BLANKET
004899: 31,2033           05155                           TC       ENDOFJOB
004900: 31,2034           22007                 +5        ZL
004901: 31,2035           36244                           CA       THREE
004902: 31,2036           54002        N99LOOP            TS       Q
004903: 31,2037           50002                           INDEX    Q
004904: 31,2040           41604                           CS       WWPOS
004905: 31,2041           50002                           INDEX    Q
004906: 31,2042           61610                           AD       WWPOS      +4
004907: 31,2043           26001                           ADS      L
004908: 31,2044           10002                           CCS      Q                                     #  THE SUM OF ALL DIFFERENCES MUST BE ZERO.
004909: 31,2045           12036                           TCF      N99LOOP
004910: 31,2046           22000                           LXCH     A
004911: 31,2047           00006                           EXTEND
004912: 31,2050           12053                           BZF      V06N9933
004913: 31,2051           05504                           TC       UPFLAG
004914: 31,2052           00160                           ADRES    V67FLAG
004915:
004916: 31,2053           06036        V06N9933           TC       INTPRET
004917: 31,2054           77414                           BON      EXIT
004918: 31,2055           03707                                    V67FLAG
004919: 31,2056           62060                                    +2
004920: 31,2057           15472                           TCF      ENDEXT
004921: 31,2060           41345                           DLOAD    DMP
004922:


004924: 31,2061           02205                                    WWPOS
004925: 31,2062           22170                                    1/SQRT3
004926: 31,2063           72412                           SL4      SL1
004927: 31,2064           14001                           STODL    0D
004928: 31,2065           02207                                    WWVEL
004929: 31,2066           77605                           DMP
004930: 31,2067           22170                                    1/SQRT3
004931: 31,2070           00003                           STORE    2D
004932: 31,2071           72014                           BON      LXA,1
004933: 31,2072           04307                                    SURFFLAG
004934: 31,2073           62103                                    V67SURF
004935: 31,2074           00000                                    0D
004936: 31,2075           72130                           SXA,1    LXA,1
004937: 31,2076           02000                                    WRENDPOS
004938: 31,2077           00002                                    2D
004939: 31,2100           52130                           SXA,1    GOTO
004940: 31,2101           02001                                    WRENDVEL
004941: 31,2102           62111                                    V67CLRF
004942: 31,2103           66150        V67SURF            LXA,1    SXA,1
004943: 31,2104           00000                                    0D
004944: 31,2105           02006                                    WSURFPOS
004945: 31,2106           66150                           LXA,1    SXA,1
004946: 31,2107           00002                                    2D
004947: 31,2110           02007                                    WSURFVEL
004948: 31,2111           77414        V67CLRF            CLEAR    EXIT
004949: 31,2112           02676                                    RENDWFLG
004950: 31,2113           15472                           TCF      ENDEXT
004951: 31,2114           40020        V67WW              STQ      BOV
004952: 31,2115           00051                                    S2
004953: 31,2116           62117                                    +1
004954: 31,2117           45014                           CLEAR    CALL
004955: 31,2120           03667                                    V67FLAG
004956: 31,2121           27412                                    INTSTALL
004957: 31,2122           71331                           SSP      DLOAD
004958: 31,2123           00051                                    S1
004959: 31,2124           00006                           DEC      6          B-14
004960: 31,2125           06424                                    ZEROVECS
004961: 31,2126           02205                           STORE    WWPOS
004962: 31,2127           02207                           STORE    WWVEL
004963: 31,2130           77770                           AXT,1
004964: 31,2131           00066                           DEC      54         B-14
004965: 31,2132           47573        NXPOSVEL           VLOAD*   VSQ
004966: 31,2133           02467                                    W          +54D,1
004967: 31,2134           77615                           DAD
004968: 31,2135           02205                                    WWPOS
004969: 31,2136           02205                           STORE    WWPOS
004970: 31,2137           47573                           VLOAD*   VSQ
004971: 31,2140           02555                                    W          +108D,1
004972: 31,2141           77615                           DAD
004973: 31,2142           02207                                    WWVEL
004974:


004976: 31,2143           02207                           STORE    WWVEL
004977: 31,2144           75500                           TIX,1    SQRT
004978: 31,2145           62132                                    NXPOSVEL
004979: 31,2146           16207                           STODL    WWVEL
004980: 31,2147           02205                                    WWPOS
004981: 31,2150           77766                           SQRT
004982: 31,2151           02205                           STORE    WWPOS
004983: 31,2152           52000                           BOV      GOTO
004984: 31,2153           62155                                    +2
004985: 31,2154           62161                                    V67XXX
004986: 31,2155           77745                           DLOAD
004987: 31,2156           06432                                    DPPOSMAX
004988: 31,2157           02205                           STORE    WWPOS
004989: 31,2160           02207                           STORE    WWVEL
004990: 31,2161           66150        V67XXX             LXA,1    SXA,1
004991: 31,2162           00051                                    S2
004992: 31,2163           00052                                    QPRET
004993: 31,2164           77776                           EXIT
004994: 31,2165           04635                           TC       POSTJUMP
004995: 31,2166           27427                           CADR     INTWAKE
004996:
004997: 31,2167           22363 11620  1/SQRT3            2DEC     0.5773502
004998: 31,2171           01543        V06N99             VN       0699
004999:


005001: 25,3607                                           BANK     25
005002: 25,2000                                           SETLOC   RADARUPT
005003: 25,2000                                           BANK
005004: 25,3607                                           COUNT*   $$/RRUPT
005005:
005006: 25,3607  E7,1454                                  EBANK=   LOSCOUNT
005007:
005008: 25,3607           34753        R12LITES           CA       ONE
005009: 25,3610           71303                           MASK     IMODES33
005010: 25,3611           10000                           CCS      A
005011: 25,3612           14707                           TCF      ISWRETRN
005012:
005013: 25,3613           03630                           TC       HLIGHT
005014: 25,3614           03625                           TC       HLIGHT     -3
005015: 25,3615           14707                           TCF      ISWRETRN
005016:
005017: 25,3616           34753        RADLITES           CA       BIT1
005018: 25,3617           71303                           MASK     IMODES33
005019: 25,3620           10000                           CCS      A
005020: 25,3621           00002                           TC       Q
005021:
005022: 25,3622           44747                           CS       BIT5
005023: 25,3623           60061                           AD       ITEMP1
005024: 25,3624           10000                           CCS      A
005025: 25,3625           44753                           CS       ONE
005026: 25,3626           13664                           TCF      VLIGHT
005027:
005028: 25,3627           14570                           TCF      RRTRKF
005029:
005030: 25,3630           54065        HLIGHT             TS       ITEMP5                                #  ZERO ITEMP5 FOR H INDEX
005031:
005032: 25,3631           34747                           CA       HLITE
005033: 25,3632           54001                           TS       L
005034:
005035: 25,3633           30107                           CA       FLGWRD11
005036: 25,3634           74751                           MASK     SCABBIT
005037: 25,3635           10000                           CCS      A
005038: 25,3636           13656                           TCF      ONLITES
005039: 25,3637           34747                           CA       BIT5
005040: 25,3640           70110        BOTHLITS           MASK     RADMODES
005041: 25,3641           10000                           CCS      A
005042: 25,3642           13656                           TCF      ONLITES
005043:
005044: 25,3643           30107                           CA       FLGWRD11
005045: 25,3644           50065                           INDEX    ITEMP5
005046: 25,3645           74753                           MASK     HFLSHBIT
005047: 25,3646           10000                           CCS      A
005048: 25,3647           14570                           TCF      RRTRKF
005049:


005051: 25,3650           00006        LITIT              EXTEND
005052: 25,3651           22066                           QXCH     ITEMP6
005053: 25,3652           04602                           TC       TRKFLON    +1
005054:
005055: 25,3653           00006                           EXTEND
005056: 25,3654           22066                           QXCH     ITEMP6
005057: 25,3655           14570                           TCF      RRTRKF
005058:
005059:
005060: 25,3656           50065        ONLITES            INDEX    ITEMP5
005061: 25,3657           44753                           CS       HFLSHBIT
005062: 25,3660           70107                           MASK     FLGWRD11
005063: 25,3661           54107                           TS       FLGWRD11
005064:
005065: 25,3662           30001                           CA       L
005066: 25,3663           13650                           TCF      LITIT
005067: 25,3664           54065        VLIGHT             TS       ITEMP5
005068: 25,3665           34751                           CA       VLITE
005069: 25,3666           54001                           TS       L
005070: 25,3667           34744                           CA       BIT8
005071: 25,3670           13640                           TCF      BOTHLITS
005072:
005073: 25,3671     4747               HLITE              EQUALS   BIT5
005074: 25,3671     4751               VLITE              EQUALS   BIT3

End of include-file P20-P25.agc.  Parent file is MAIN.agc


