
Source Code


000002:                                                                                                  ## Copyright:   Public domain.
000003:                                                                                                  ## Filename:    P30,P37.agc
000004:                                                                                                  ## Purpose:     The main source file for Luminary revision 069.
000005:                                                                                                  ##              It is part of the source code for the original release
000006:                                                                                                  ##              of the flight software for the Lunar Module's (LM) Apollo
000007:                                                                                                  ##              Guidance Computer (AGC) for Apollo 10. The actual flown
000008:                                                                                                  ##              version was Luminary 69 revision 2, which included a
000009:                                                                                                  ##              newer lunar gravity model and only affected module 2.
000010:                                                                                                  ##              This file is intended to be a faithful transcription, except
000011:                                                                                                  ##              that the code format has been changed to conform to the
000012:                                                                                                  ##              requirements of the yaYUL assembler rather than the
000013:                                                                                                  ##              original YUL assembler.
000014:                                                                                                  ## Reference:   pp. 624-627
000015:                                                                                                  ## Assembler:   yaYUL
000016:                                                                                                  ## Contact:     Ron Burkey <info@sandroid.org>.
000017:                                                                                                  ## Website:     www.ibiblio.org/apollo/index.html
000018:                                                                                                  ## Mod history: 2016-12-13 MAS  Created from Luminary 99.
000019:                                                                                                  ##              2016-12-14 MAS  Updated from comment-proofed Luminary 99 version.
000020:                                                                                                  ##              2016-12-17 RRB  Updated for Luminary 69.
000021:                                                                                                  ##              2017-01-27 RSB  Proofed comment text using octopus/prooferComments
000022:                                                                                                  ##                              but no errors found.
000023:


000025:                                                                                                  #  PROGRAM DESCRIPTION P30       DATE 3-6-67
000026:
000027:                                                                                                  #  MOD.1 BY RAMA AIYAWAR
000028:                                                                                                  #  FUNCTIONAL DESCRIPTION
000029:                                                                                                  #        ACCEPT ASTRONAUT INPUTS OF TIG,DELV(LV)
000030:                                                                                                  #        CALL IMU STATUS CHECK ROUTINE (R02)
000031:                                                                                                  #        DISPLAY TIME TO GO, APOGEE, PERIGEE, DELV(MAG), MGA AT IGN
000032:                                                                                                  #        REQUEST BURN PROGRAM
000033:
000034:                                                                                                  #  CALLING SEQUENCE VIA JOB FROM V37
000035:
000036:                                                                                                  #  EXIT VIA V37 CALL OR TO GOTOPOOH (V34E)
000037:
000038:                                                                                                  #  SUBROUTINE CALLS -    FLAGUP, PHASCHNG, BANKCALL, ENDOFJOB, GOFLASH, GOFLASHR
000039:                                                                                                  #                        GOPERF3R, INTPRET, BLANKET, GOTOPOOH, R02BOTH, S30.1,
000040:                                                                                                  #                        TTG/N35, MIDGIM, DISPMGA
000041:
000042:                                                                                                  #  ERASABLE INITIALIZATION - STATE VECTOR
000043:
000044:                                                                                                  #  OUTPUT-RINIT, VINIT, +MGA, VTIG, RTIG, DELVSIN, DELVSAB, DELVSLV, HAPO,
000045:                                                                                                  #         HPER, TTOGO
000046:
000047:                                                                                                  #  DEBRIS- A,L, MPAC, PUSHLIST
000048:
000049: 32,2772                                           BANK     32
000050: 35,2000                                           SETLOC   P30S
000051: 35,2000                                           BANK
000052: 35,2000  E4,1656                                  EBANK=   +MGA
000053: 35,2000                                           COUNT*   $$/P30
000054: 35,2000           05504        P30                TC       UPFLAG                                #  SET UPDATE FLAG
000055: 35,2001           00027                           ADRES    UPDATFLG
000056: 35,2002           05504                           TC       UPFLAG                                #  SET TRACK FLAG
000057: 35,2003           00031                           ADRES    TRACKFLG
000058:
000059: 35,2004           32025        P30N33             CAF      V06N33                                #  T OF IGN
000060: 35,2005           03651                           TC       VNPOOH                                #  RETURNS ON PROCEED, POOH ON TERMINATE
000061:
000062: 35,2006           33666                           CAF      V06N81                                #  DISPLAY DELTA V (LV)
000063: 35,2007           03651                           TC       VNPOOH                                #        REDISPLAY ON RECYCLE
000064:
000065: 35,2010           05516                           TC       DOWNFLAG                              #  RESET UPDATE FLAG
000066: 35,2011           00027                           ADRES    UPDATFLG
000067: 35,2012           06036                           TC       INTPRET
000068: 35,2013           77624                           CALL
000069: 35,2014           70000                                    S30.1
000070: 35,2015           77414                           SET      EXIT
000071: 35,2016           00470                                    UPDATFLG
000072: 35,2017           32026        PARAM30            CAF      V06N42                                #  DISPLAY APOGEE,PERIGEE ,DELTA V
000073: 35,2020           03651                           TC       VNPOOH


000075:
000076: 35,2021           06036                           TC       INTPRET
000077: 35,2022           77614                           SETGO
000078: 35,2023           01027                                    XDELVFLG                              #  FOR P40'S: EXTERNAL DELTA-V GUIDANCE.
000079: 35,2024           72504                                    REVN1645                              #  TRKMKCNT, TGO, +MGA  DISPLAY
000080:
000081: 35,2025           01441        V06N33             VN       0633
000082: 35,2026           01452        V06N42             VN       0642
000083:


000085:                                                                                                  #  PROGRAM DESCRIPTION S30.1     DATE 9NOV66
000086:
000087:                                                                                                  #  MOD NO 1                      LOG SECTION P30,P37
000088:                                                                                                  #  MOD BY RAMA AIYAWAR **
000089:
000090:                                                                                                  #  FUNCTIONAL DESCRIPTION
000091:                                                                                                  #        BASED ON STORED TARGET PARAMETERS(R OF IGNITION (RTIG), V OF
000092:                                                                                                  #        IGNITION(VTIG), TIME OF IGNITION (TIG)),COMPUTE PERIGEE ALTITUDE
000093:                                                                                                  #        APOGEE ALTITUDE AND DELTAV REQUIRED(DELVSIN).
000094:
000095:                                                                                                  #  CALLING SEQUENCE
000096:                                                                                                  #        L       CALL
000097:                                                                                                  #        L+1             S30.1
000098:
000099:                                                                                                  #  NORMAL EXIT MODE
000100:                                                                                                  #        AT L+2 OR CALLING SEQUENCE (GOTO L+2)
000101:
000102:                                                                                                  #  SUBROUTINES CALLED
000103:                                                                                                  #        LEMPREC
000104:                                                                                                  #        PERIAPO
000105:
000106:                                                                                                  #  ALARM OR ABORT EXIT MODES
000107:                                                                                                  #                NONE
000108:
000109:                                                                                                  #  ERASABLE INITIALIZATION REQUIRED
000110:                                                                                                  #        TIG             TIME OF IGNITION                DP B28CS
000111:                                                                                                  #        DELVSLV         SPECIFIED DELTA-V IN LOCAL VERT.
000112:                                                                                                  #                        COORDS. OF ACTIVE VEHICLE AT
000113:                                                                                                  #                TIME OF IGNITION        VECTOR B+7 METERS/CS
000114:
000115:                                                                                                  #  OUTPUT
000116:                                                                                                  #        RTIG    POSITION AT TIG         VECTOR  B+29 METERS
000117:                                                                                                  #        VTIG    VELOCITY AT TIG         VECTOR  B+29 METERS/CS
000118:                                                                                                  #        PDL 4D  APOGEE ALTITUDE         DP      B+29 M ,  B+27 METERS.
000119:                                                                                                  #        HAPO    APOGEE ALTITUDE         DP      B+29 METERS
000120:                                                                                                  #        PDL 8D  PERIGEE ALTITUDE        DP      B+29 M ,  B+27 METERS.
000121:                                                                                                  #        HPER    PERIGEE ALTITUDE        DP      B+29 METERS
000122:                                                                                                  #        DELVSIN    SPECIFIED DELTA-V IN INERTIAL
000123:                                                                                                  #                   COORD. OF ACTIVE VEHICLE AT
000124:                                                                                                  #                TIME OF IGNITION        VECTOR  B+7 METERS/CS
000125:                                                                                                  #        DELVSAB MAG. OF DELVSIN         VECTOR  B+7 METERS/CS
000126:
000127:                                                                                                  #  DEBRIS        QTEMP   TEMP.ERASABLE
000128:                                                                                                  #                QPRET, MPAC
000129:                                                                                                  #                PUSHLIST
000130:
000131: 34,2000                                           SETLOC   P30S1
000132: 34,2000                                           BANK
000133:
000134: 34,2000                                           COUNT*   $$/S30S
000135:
000136: 34,2000           71220        S30.1              STQ      DLOAD
000137: 34,2001           03630                                    QTEMP
000138: 34,2002           03440                                    TIG                                   #  TIME IGNITION SCALED AT 2(+28)CS
000139: 34,2003           34041                           STCALL   TDEC1
000140: 34,2004           27057                                    LEMPREC                               #  ENCKE ROUTINE FOR LEM
000141:
000142: 34,2005           67175                           VLOAD    SXA,2


000144: 34,2006           00001                                    RATT
000145: 34,2007           03376                                    RTX2
000146: 34,2010           03640                           STORE    RTIG                                  #  RADIUS VECTOR AT IGNITION TIME
000147: 34,2011           57456                           UNIT     VCOMP
000148: 34,2012           27654                           STOVL    DELVSIN                               #  ZRF/LV IN DELVSIN SCALED AT 2
000149: 34,2013           00007                                    VATT                                  #  VELOCITY VECTOR AT TIG, SCALED 2(7) M/CS
000150: 34,2014           03646                           STORE    VTIG
000151: 34,2015           53435                           VXV      UNIT
000152: 34,2016           03640                                    RTIG
000153: 34,2017           66001                           SETPD    SXA,1
000154: 34,2020           00001                                    0
000155: 34,2021           03375                                    RTX1
000156: 34,2022           47206                           PUSH     VXV                                   #  YRF/LV PDL 0 SCALED AT 2
000157: 34,2023           03654                                    DELVSIN
000158: 34,2024           63372                           VSL1     PDVL
000159: 34,2025           63315                           PDVL     PDVL                                  #  YRF/LV PDL 6 SCALED AT 2
000160: 34,2026           03654                                    DELVSIN                               #  ZRF/LV PDL 12D SCALED AT 2
000161: 34,2027           03432                                    DELVSLV
000162: 34,2030           76505                           VXM      VSL1
000163: 34,2031           00001                                    0
000164: 34,2032           03654                           STORE    DELVSIN                               #  DELTAV IN INERT. COOR. SCALED TO B+7M/CS
000165: 34,2033           77646                           ABVAL
000166: 34,2034           27662                           STOVL    DELVSAB                               #  DELTA V MAG.
000167: 34,2035           03640                                    RTIG                                  #  (FOR PERIAPO)
000168: 34,2036           53315                           PDVL     VAD                                   #  VREQUIRED = VTIG + DELVSIN (FOR PERIAPO)
000169: 34,2037           03646                                    VTIG
000170: 34,2040           03654                                    DELVSIN
000171: 34,2041           77624                           CALL
000172: 34,2042           46277                                    PERIAPO1
000173: 34,2043           77624                           CALL
000174: 34,2044           46407                                    SHIFTR1                               #  RESCALE IF NEEDED
000175: 34,2045           77624                           CALL                                           #  LIMIT DISPLAY TO 9999.9 N. MI.
000176: 34,2046           45636                                    MAXCHK
000177: 34,2047           16325                           STODL    HPER                                  #  PERIGEE ALT 2(29) METERS, FOR DISPLAY
000178: 34,2050           00005                                    4D
000179: 34,2051           77624                           CALL
000180: 34,2052           46407                                    SHIFTR1                               #  RESCALE IF NEEDED
000181: 34,2053           77624                           CALL                                           #  LIMIT DISPLAY TO 9999.9 N. MI.
000182: 34,2054           45636                                    MAXCHK
000183: 34,2055           36323                           STCALL   HAPO                                  #  APOGEE ALT 2(29) METERS, FOR DISPLAY
000184: 34,2056           03630                                    QTEMP
000185:
000186:

End of include-file P30,P37.agc.  Parent file is MAIN.agc


