
Source Code


000002:                                                                                                  ## Copyright:   Public domain.
000003:                                                                                                  ## Filename:    P32-P35,_P72-P75.agc
000004:                                                                                                  ## Purpose:     The main source file for Luminary revision 069.
000005:                                                                                                  ##              It is part of the source code for the original release
000006:                                                                                                  ##              of the flight software for the Lunar Module's (LM) Apollo
000007:                                                                                                  ##              Guidance Computer (AGC) for Apollo 10. The actual flown
000008:                                                                                                  ##              version was Luminary 69 revision 2, which included a
000009:                                                                                                  ##              newer lunar gravity model and only affected module 2.
000010:                                                                                                  ##              This file is intended to be a faithful transcription, except
000011:                                                                                                  ##              that the code format has been changed to conform to the
000012:                                                                                                  ##              requirements of the yaYUL assembler rather than the
000013:                                                                                                  ##              original YUL assembler.
000014:                                                                                                  ## Reference:   pp. 628-660
000015:                                                                                                  ## Assembler:   yaYUL
000016:                                                                                                  ## Contact:     Ron Burkey <info@sandroid.org>.
000017:                                                                                                  ## Website:     www.ibiblio.org/apollo/index.html
000018:                                                                                                  ## Mod history: 2016-12-13 MAS  Created from Luminary 99.
000019:                                                                                                  ##              2016-12-14 MAS  Updated from comment-proofed Luminary 99 version.
000020:                                                                                                  ##              2017-01-20 MAS  Updated for Luminary 69.
000021:                                                                                                  ##              2017-01-28 RSB  Proofed comment text using octopus/prooferComments
000022:                                                                                                  ##                              and fixed errors found.
000023:                                                                                                  ##              2017-02-07 RSB  Comment-text corrections identified while
000024:                                                                                                  ##                              proofing Artemis 72.
000025:                                                                                                  ##              2017-03-09 RSB  Comment-text fixes noted in proofing Luminary 116.
000026:                                                                                                  ##              2021-05-30 ABS  TTPIO -> TTPI0
000027:                                                                                                  ##                              K10RK2 -> K1ORK2
000028:


000030:                                                                                                  #  COELLIPTIC SEQUENCE INITIATION (CSI) PROGRAMS (P32 AND P72)
000031:
000032:                                                                                                  #  MOD NO -1       LOG SECTION - P32-P35, P72-P75
000033:                                                                                                  #  MOD BY WHITE.P  DATE  1JUNE67
000034:
000035:                                                                                                  #  PURPOSE
000036:
000037:                                                                                                  #        (1) TO CALCULATE PARAMETERS ASSOCIATED WITH THE FOLLOWING
000038:                                                                                                  #            CONCENTRIC FLIGHT PLAN MANEUVERS - THE CO-ELLIPTIC SEQUENCE
000039:                                                                                                  #            INITIATION (CSI) MANEUVER AND THE CONSTANT DELTA ALTITUDE
000040:                                                                                                  #            (CDH) MANEUVER.
000041:
000042:                                                                                                  #        (2) TO CALCULATE THESE PARAMETERS BASED UPON MANEUVER DATA
000043:                                                                                                  #            APPROVED AND KEYED INTO THE DSKY BY THE ASTRONAUT.
000044:
000045:                                                                                                  #        (3) TO DISPLAY TO THE ASTRONAUT AND THE GROUND DEPENDENT VARIABLES
000046:                                                                                                  #            ASSOCIATED WITH THE CONCENTRIC FLIGNT PLAN MANEUVERS FOR
000047:                                                                                                  #            APPROVAL BY THE ASTRONAUT/GROUND.
000048:
000049:                                                                                                  #        (4) TO STORE THE CSI TARGET PARAMETERS FOR USE BY THE DESIRED
000050:                                                                                                  #            THRUSTING PROGRAM.
000051:
000052:                                                                                                  #  ASSUMPTIONS
000053:
000054:                                                                                                  #        (1) AT A SELECTED TPI TIME THE LINE OF SIGHT BETWEEN THE ACTIVE
000055:                                                                                                  #            AND PASSIVE VEHICLES IS SELECTED TO BE A PRESCRIBED ANGLE (E)
000056:                                                                                                  #            FROM THE HORIZONTAL PLANE DEFINED BY THE ACTIVE VEHICLE
000057:                                                                                                  #            POSITION.
000058:
000059:                                                                                                  #        (2) THE TIME BETWEEN CSI IGNITION AND CDH IGNITION MUST BE
000060:                                                                                                  #            COMPUTED TO BE GREATER THAN 10 MINUTES FOR SUCCESSFUL
000061:                                                                                                  #            COMPLETION OF THE PROGRAM.
000062:
000063:                                                                                                  #        (3) THE TIME BETWEEN CDH IGNITION AND TPI IGNITION MUST BE
000064:                                                                                                  #            COMPUTED TO BE GREATER THAN 10 MINUTES FOR SUCCESSFUL
000065:                                                                                                  #            COMPLETION OF THE PROGRAM.
000066:
000067:                                                                                                  #        (4) CDH DELTA V IS SELECTED TO MINIMIZE THE VARIATION OF THE
000068:                                                                                                  #            ALTITUDE DIFFERENCE BETWEEN THE ORBITS.
000069:
000070:                                                                                                  #        (5) CSI BURN IS DEFINED SUCH THAT THE IMPULSIVE DELTA V IS IN THE
000071:                                                                                                  #            HORIZONTAL PLANE DEFINED BY THE ACTIVE VEHICLE POSITION AT CSI
000072:                                                                                                  #            IGNITION.
000073:
000074:                                                                                                  #        (6) THE PERICENTER ALTITUDE OF THE ORBIT FOLLOWING CSI AND CDH
000075:                                                                                                  #            MUST BE GREATER THAN 35,000 FT (LUNAR ORBIT) OR 85 NM (EARTH
000076:                                                                                                  #            ORBIT) FOR SUCCESSFUL COMPLETION OF THIS PROGRAM.
000077:
000078:                                                                                                  #        (7) THE CSI AND CDH MANEUVERS ARE ORIGINALLY ASSUMED TO BE
000079:                                                                                                  #            PARALLEL TO THE PLANE OF THE CSM ORBIT.  HOWEVER CREW


000081:                                                                                                  #            MODIFICATION OF DELTA V (LV) COMPONENTS MAY RESULT IN AN
000082:                                                                                                  #            OUT-OF-PLANE CSI MANEUVER.
000083:
000084:                                                                                                  #        (8) STATE VECTOR UPDATES BY P27 ARE DISALLOWED DURING AUTOMATIC
000085:                                                                                                  #            STATE VECTOR UPDATING INITIATED BY P20 (SEE ASSUMPTION 10).
000086:
000087:                                                                                                  #        (9) COMPUTED VARIABLES MAY BE STORED FOR LATER VERIFICATION BY
000088:                                                                                                  #            THE GROUND.  THESE STORAGE CAPABILITIES ARE NORMALLY LIMITED
000089:                                                                                                  #            ONLY TO THE PARAMETERS FOR ONE THRUSTING MANEUVER AT A TIME
000090:                                                                                                  #            EXCEPT FOR CONCENTRIC FLIGHT PLAN MANEUVER SEQUENCES.
000091:
000092:                                                                                                  #       (10) THE RENDEZVOUS RADAR MAY OR MAY NOT BE USED TO UPDATE THE LM
000093:                                                                                                  #            OR CSM STATE VECTORS FOR THIS PROGRAM.  IF RADAR USE IS
000094:                                                                                                  #            DESIRED THE RADAR WAS TURNED ON AND LOCKED ON THE CSM BY
000095:                                                                                                  #            PREVIOUS SELECTION OF P20.  RADAR SIGHTING MARKS WILL BE MADE
000096:                                                                                                  #            AUTOMATICALLY APPROXIMATELY ONCE A MINUTE WHEN ENABLED BY THE
000097:                                                                                                  #            TRACK AND UPDATE FLAGS (SEE P20).  THE RENDEZVOUS TRACKING
000098:                                                                                                  #            MARK COUNTER IS ZEROED BY THE SELECTION OF P20 AND AFTER EACH
000099:                                                                                                  #            THRUSTING MANEUVER.
000100:
000101:                                                                                                  #       (11) THE ISS NEED NOT BE ON TO COMPLETE THIS PROGRAM.
000102:
000103:                                                                                                  #       (12) THE OPERATION OF THE PROGRAM UTILIZES THE FOLLOWING FLAGS -
000104:
000105:                                                                                                  #                ACTIVE VEHICLE FLAG - DESIGNATES THE VEHICLE WHICH IS
000106:                                                                                                  #                DOING RENDEZVOUS THRUSTING MANEUVERS TO THE PROGRAM WHICH
000107:                                                                                                  #                CALCULATES THE MANEUVER PARAMETERS.  SET AT THE START OF
000108:                                                                                                  #                EACH RENDEZVOUS PRE-THRUSTING PROGRAM.
000109:
000110:                                                                                                  #                FINAL FLAG - SELECTS FINAL PROGRAM DISPLAYS AFTER CREW HAS
000111:                                                                                                  #                COMPLETED THE FINAL MANEUVER COMPUTATION AND DISPLAY
000112:                                                                                                  #                CYCLE.
000113:
000114:                                                                                                  #                EXTERNAL DELTA V STEERING FLAG - DESIGNATES THE TYPE OF
000115:                                                                                                  #                STEERING REQUIRED FOR EXECUTION OF THIS MANEUVER BY THE
000116:                                                                                                  #                THRUSTING PROGRAM SELECTED AFTER COMPLETION OF THIS
000117:                                                                                                  #                PROGRAM.
000118:
000119:                                                                                                  #       (13) IT IS NORMALLY REQUIRED THAT THE ISS BE ON FOR 1 HOUR PRIOR TO
000120:                                                                                                  #            A THRUSTING MANEUVER.
000121:
000122:                                                                                                  #       (14) THIS PROGRAM IS SELECTED BY THE ASTRONAUT BY DSKY ENTRY -
000123:
000124:                                                                                                  #                P32 IF THIS VEHICLE IS ACTIVE VEHICLE.
000125:
000126:                                                                                                  #                P72 IF THIS VEHICLE IS PASSIVE VEHICLE.
000127:
000128:                                                                                                  #  INPUT
000129:
000130:                                                                                                  #        (1) TCSI     TIME OF THE CSI MANEUVER


000132:                                                                                                  #        (2) NN       NUMBER OF APSIDAL CROSSINGS THRU WHICH THE ACTIVE
000133:                                                                                                  #                     VEHICLE ORBIT CAN BE ADVANCED TO OBTAIN THE CDH
000134:                                                                                                  #                     MANEUVER POINT
000135:                                                                                                  #        (3) ELEV     DESIRED LOS ANGLE AT TPI
000136:                                                                                                  #        (4) TTPI     TIME OF THE TPI MANEUVER
000137:                                                                                                  #  OUTPUT
000138:
000139:                                                                                                  #        (1) TRKMKCNT NUMBER OF MARKS
000140:                                                                                                  #        (2) TTOGO    TIME TO GO
000141:                                                                                                  #        (3) +MGA     MIDDLE GIMBAL ANGLE
000142:                                                                                                  #        (4) DIFFALT  DELTA ALTITUDE AT CDH
000143:                                                                                                  #        (5) T1TOT2   DELTA TIME FROM CSI TO CDH
000144:                                                                                                  #        (6) T2TOT3   DELTA TIME FROM CDH TO TPI
000145:                                                                                                  #        (7) DELVLVC  DELTA VELOCITY AT CSI - LOCAL VERTICAL COORDINATES
000146:                                                                                                  #        (8) DELVLVC  DELTA VELOCITY AT CDH - LOCAL VERTICAL COORDINATES
000147:
000148:                                                                                                  #  DOWNLINK
000149:
000150:                                                                                                  #        (1) TCSI     TIME OF THE CSI MANEUVER
000151:                                                                                                  #        (2) TCDH     TIME OF THE CDH MANEUVER
000152:                                                                                                  #        (3) TTPI     TIME OF THE TPI MANEUVER
000153:                                                                                                  #        (4) TIG      TIME OF THE CSI MANEUVER
000154:                                                                                                  #        (5) DELVEET1 DELTA VELOCITY AT CSI - REFERENCE COORDINATES
000155:                                                                                                  #        (6) DELVEET2 DELTA VELOCITY AT CDH - REFERENCE COORDINATES
000156:                                                                                                  #        (7) DIFFALT  DELTA ALTITUDE AT CDH
000157:                                                                                                  #        (8) NN       NUMBER OF APSIDAL CROSSINGS THRU WHICH THE ACTIVE
000158:                                                                                                  #                     VEHICLE ORBIT CAN BE ADVANCED TO OBTAIN THE CDH
000159:                                                                                                  #                     MANEUVER POINT
000160:                                                                                                  #        (9) ELEV     DESIRED LOS ANGLE AT TPI
000161:
000162:                                                                                                  #  COMMUNICATION TO THRUSTING PROGRAMS
000163:
000164:                                                                                                  #        (1) TIG      TIME OF THE CSI MANEUVER
000165:                                                                                                  #        (2) RTIG     POSITION OF ACTIVE VEHICLE AT CSI - BEFORE ROTATION
000166:                                                                                                  #                     INTO PLANE OF PASSIVE VEHICLE
000167:                                                                                                  #        (3) VTIG     VELOCITY OF ACTIVE VEHICLE AT CSE - BEFORE ROTATION
000168:                                                                                                  #                     INTO PLANE OF PASSIVE VEHICLE
000169:                                                                                                  #        (4) DELVSIN  DELTA VELOCITY AT CSI - REFERENCE COORDINATES
000170:                                                                                                  #        (5) DELVSAB  MAGNITUDE OF DELTA VELOCITY AT CSI
000171:                                                                                                  #        (6) XDELVFLG SET TO INDICATE EXTERNAL DELTA V VG COMPUTATION
000172:
000173:                                                                                                  #  SUBROUTINES USED
000174:
000175:                                                                                                  #        AVFLAGA
000176:                                                                                                  #        AVFLAGP
000177:                                                                                                  #        P20FLGON
000178:                                                                                                  #        VARALARM
000179:                                                                                                  #        BANKCALL
000180:                                                                                                  #        GOFLASH
000181:                                                                                                  #        GOTOPOOH


000183:                                                                                                  #        VNPOOH
000184:                                                                                                  #        GOFLASHR
000185:                                                                                                  #        BLANKET
000186:                                                                                                  #        ENDOFJOB
000187:                                                                                                  #        SELECTMU
000188:                                                                                                  #        ADVANCE
000189:                                                                                                  #        INTINT
000190:                                                                                                  #        PASSIVE
000191:                                                                                                  #        CSI/A
000192:                                                                                                  #        S32/33.1
000193:                                                                                                  #        DISDVLVC
000194:                                                                                                  #        VN1645
000195:
000196: 35,2027                                           BANK     35
000197: 35,2000                                           SETLOC   CSI/CDH
000198: 35,2000                                           BANK
000199: 35,2027  E7,1466                                  EBANK=   SUBEXIT
000200: 35,2027                                           COUNT*   $$/P3272
000201: 35,2027           02313        P32                TC       AVFLAGA
000202: 35,2030           02032                           TC       P32STRT
000203: 35,2031           02320        P72                TC       AVFLAGP
000204: 35,2032           00006        P32STRT            EXTEND
000205: 35,2033           32364                           DCA      P30ZERO
000206: 35,2034           53617                           DXCH     CENTANG
000207: 35,2035           02053                           TC       P32/P72A
000208: 35,2036           77734        ALMXITA            SXA,2
000209: 35,2037           03611                                    CSIALRM
000210: 35,2040           77740        ALMXIT             LXC,1
000211: 35,2041           03611                                    CSIALRM
000212: 35,2042           77533                           SLOAD*   EXIT
000213: 35,2043           32367                                    ALARM/TB   -1,1
000214: 35,2044           30154                           CA       MPAC
000215: 35,2045           05735                           TC       VARALARM
000216: 35,2046           35006                           CAF      V05N09
000217: 35,2047           04616                           TC       BANKCALL
000218: 35,2050           20351                           CADR     GOFLASH
000219: 35,2051           06001                           TC       GOTOPOOH
000220: 35,2052           02046                           TC       -4
000221: 35,2053           02325        P32/P72A           TC       P20FLGON
000222: 35,2054           32363                           CAF      P30ZERO
000223: 35,2055           55465                           TS       NN         +1
000224: 35,2056           32354                           CAF      V06N11                                #  TCSI
000225: 35,2057           03651                           TC       VNPOOH
000226: 35,2060           33663                           CAF      V06N55                                #  NN, ELEV(RGLOS)
000227: 35,2061           04616                           TC       BANKCALL
000228: 35,2062           20351                           CADR     GOFLASH
000229: 35,2063           06001                           TC       GOTOPOOH
000230: 35,2064           02066                           TC       +2
000231: 35,2065           02060                           TC       -5
000232: 35,2066           33662                           CAF      V06N37                                #  TTPI


000234: 35,2067           03651                           TC       VNPOOH
000235: 35,2070           06036                           TC       INTPRET
000236: 35,2071           77745                           DLOAD
000237: 35,2072           03632                                    TCSI
000238: 35,2073           37440                           STCALL   TIG
000239: 35,2074           20041                                    SELECTMU
000240: 35,2075           77624        P32/P72B           CALL
000241: 35,2076           71016                                    ADVANCE
000242: 35,2077           77201                           SETPD    VLOAD
000243: 35,2100           00001                                    0D
000244: 35,2101           03504                                    VPASS1
000245: 35,2102           65315                           PDVL     PDDL
000246: 35,2103           03476                                    RPASS1
000247: 35,2104           03632                                    TCSI
000248: 35,2105           65325                           PDDL     PDDL
000249: 35,2106           03634                                    TTPI
000250: 35,2107           33671                                    TWOPI
000251: 35,2110           45006                           PUSH     CALL
000252: 35,2111           73422                                    INTINT
000253: 35,2112           77624                           CALL
000254: 35,2113           46373                                    PASSIVE
000255: 35,2114           77624                           CALL
000256: 35,2115           70113                                    CSI/A
000257: 35,2116           43014        P32/P72C           BON      SET
000258: 35,2117           01311                                    FINALFLG
000259: 35,2120           72122                                    P32/P72D
000260: 35,2121           00470                                    UPDATFLG
000261: 35,2122           77745        P32/P72D           DLOAD
000262: 35,2123           02257                                    T1TOT2
000263: 35,2124           02257        P32/P72E           STORE    T1TOT2
000264: 35,2125           51025                           DSU      BPL
000265: 35,2126           32366                                    60MIN
000266: 35,2127           72124                                    P32/P72E
000267: 35,2130           77745                           DLOAD
000268: 35,2131           02261                                    T2TOT3
000269: 35,2132           02261        P32/P72F           STORE    T2TOT3
000270: 35,2133           51025                           DSU      BPL
000271: 35,2134           32366                                    60MIN
000272: 35,2135           72132                                    P32/P72F
000273: 35,2136           77776                           EXIT
000274: 35,2137           32356                           CAF      V06N75
000275: 35,2140           03651                           TC       VNPOOH
000276: 35,2141           06036                           TC       INTPRET
000277: 35,2142           45175                           VLOAD    CALL
000278: 35,2143           02273                                    DELVEET1
000279: 35,2144           71100                                    S32/33.1
000280: 35,2145           26273                           STOVL    DELVEET1
000281: 35,2146           02315                                    RACT2
000282: 35,2147           26307                           STOVL    RACT1
000283: 35,2150           02301                                    DELVEET2


000285: 35,2151           45170                           AXT,1    CALL
000286: 35,2152           01522                           VN       0682
000287: 35,2153           72334                                    DISDVLVC
000288: 35,2154           77745                           DLOAD
000289: 35,2155           03634                                    TTPI
000290: 35,2156           37636                           STCALL   TTPI0
000291: 35,2157           73542                                    VN1645
000292: 35,2160           77650                           GOTO
000293: 35,2161           72075                                    P32/P72B
000294:


000296:                                                                                                  #  CONSTANT DELTA HEIGHT (CDH) PROGRAMS (P33 AND P73)
000297:
000298:                                                                                                  #  MOD NO -1       LOG SECTION - P32-P35, P72-P75
000299:                                                                                                  #  MOD BY WHITE.P  DATE  1JUNE67
000300:                                                                                                  #  PURPOSE
000301:
000302:                                                                                                  #        (1) TO CALCULATE PARAMETERS ASSOCIATED WITH THE CONSTANT DELTA
000303:                                                                                                  #            ALTITUDE MANEUVER (CDH).
000304:
000305:                                                                                                  #        (2) TO CALCULATE THESE PARAMETERS BASED UPON MANEUVER DATA
000306:                                                                                                  #            APPROVED AND KEYED INTO THE DSKY BY THE ASTRONAUT.
000307:
000308:                                                                                                  #        (3) TO DISPLAY TO THE ASTRONAUT AND THE GROUND DEPENDENT VARIABLES
000309:                                                                                                  #            ASSOCIATED WITH THE CDH MANEUVER FOR APPROVAL BY THE
000310:                                                                                                  #            ASTRONAUT/GROUND.
000311:
000312:                                                                                                  #        (4) TO STORE THE CDH TARGET PARAMETERS FOR USE BY THE DESIRED
000313:                                                                                                  #            THRUSTING PROGRAM.
000314:
000315:                                                                                                  #  ASSUMPTIONS
000316:
000317:                                                                                                  #        (1) THIS PROGRAM IS BASED UPON PREVIOUS COMPLETION OF THE
000318:                                                                                                  #            CO-ELLIPTIC SEQUENCE INITIATION (CSI) PROGRAM (P32/P72).
000319:                                                                                                  #            THERFORE -
000320:
000321:                                                                                                  #            (A) AT A SELECTED TPI TIME (NOW IN STORAGE) THE LINE OF SIGHT
000322:                                                                                                  #                BETWEEN THE ACTIVE AND PASSIVE VEHICLES WAS SELECTED TO BE
000323:                                                                                                  #                A PRESCRIBED ANGLE (E) (NOW IN STORAGE) FROM THE
000324:                                                                                                  #                HORIZONTAL PLANE DEFINED BY THE ACTIVE VEHICLE POSITION.
000325:
000326:                                                                                                  #            (B) THE TIME BETWEEN CSI IGNITION AND CDH IGNITION WAS
000327:                                                                                                  #                COMPUTED TO BE GREATER THAN 10 MINUTES.
000328:
000329:                                                                                                  #            (C) THE TIME BETWEEN CDH IGNITION AND TPI IGNITION WAS
000330:                                                                                                  #                COMPUTED TO BE GREATER THAN 10 MINUTES.
000331:
000332:                                                                                                  #            (D) THE VARIATION OF THE ALTITUDE DIFFERENCE BETWEEN THE
000333:                                                                                                  #                ORBITS WAS MINMIZED.
000334:
000335:                                                                                                  #            (E) CSI BURN WAS DEFINED SUCH THAT THE IMPULSIVE DELTA V WAS
000336:                                                                                                  #                IN THE HORIZONTAL PLANE DEFINED BY ACTIVE VEHICLE
000337:
000338:                                                                                                  #                POSITION AT CSI IGNITION.
000339:
000340:                                                                                                  #            (F) THE PERICENTER ALTITUDES OF THE ORBITS FOLLOWING CSI AND
000341:                                                                                                  #                CDH WERE COMPUTED TO BE GREATER THAN 35,000 FT FOR LUNAR
000342:                                                                                                  #                ORBIT OR 85 NM FOR EARTH ORBIT.
000343:
000344:                                                                                                  #            (G) THE CSI AND CDH MANEUVERS WERE ASSUMED TO BE PARALLEL TO
000345:                                                                                                  #                THE PLANE OF THE PASSIVE VEHICLE ORBIT.  HOWEVER, CREW


000347:                                                                                                  #                MODIFICATION OF DELTA V (LV) COMPONENTS MAY HAVE RESULTED
000348:                                                                                                  #                IN AN OUT-OF-PLANE MANEUVER.
000349:
000350:                                                                                                  #        (2) STATE VECTOR UPDATES BY P27 ARE DISALLOWED DURING AUTOMATIC
000351:                                                                                                  #            STATE VECTOR UPDATING INITIATED BY P20 (SEE ASSUMPTION 4).
000352:
000353:                                                                                                  #        (3) COMPUTED VARIABLES MAY BE STORED FOR LATER VERIFICATION BY
000354:                                                                                                  #            THE GROUND.  THESE STORAGE CAPABILITES ARE NORMALLY LIMITED
000355:                                                                                                  #            ONLY TO THE PARAMETERS FOR ONE THRUSTING MANEUVER AT A TIME
000356:                                                                                                  #            EXCEPT FOR CONCENTRIC FLIGHT PLAN MANEUVER SEQUENCES.
000357:
000358:                                                                                                  #        (4) THE RENDEZVOUS RADAR MAY OR MAY NOT BE USED TO UPDATE THE LM
000359:                                                                                                  #            OR CSM STATE VECTORS FOR THIS PROGRAM.  IF RADAR USE IS
000360:                                                                                                  #            DESIRED THE RADAR WAS TURNED ON AND LOCKED ON THE CSM BY
000361:                                                                                                  #            PREVIOUS SELECTION OF P20.  RADAR SIGHTING MARKS WILL BE MADE
000362:                                                                                                  #            AUTOMATICALLY APPROXIMATELY ONCE A MINUTE WHEN ENABLED BY THE
000363:                                                                                                  #            TRACK AND UPDATE FLAGS (SEE P20).  THE RENDEZVOUS TRACKING
000364:                                                                                                  #            MARK COUNTER IS ZEROED BY THE SELECTION OF P20 AND AFTER EACH
000365:                                                                                                  #            THRUSTING MANEUVER.
000366:
000367:                                                                                                  #        (5) THE ISS NEED NOT BE ON TO COMPLETE THIS PROGRAM.
000368:
000369:                                                                                                  #        (6) THE OPERATION OF THE PROGRAM UTILIZES THE FOLLOWING FLAGS -
000370:
000371:                                                                                                  #                ACTIVE VEGICLE FLAG - DESIGNATES THE VEHICLE WHICH IS
000372:                                                                                                  #                DOING RENDEZVOUS THRUSTING MANEUVERS TO THE PROGRAM WHICH
000373:                                                                                                  #                CALCULATES THE MANEUVER PARAMETERS.  SET AT THE START OF
000374:                                                                                                  #                EACH RENDEZVOUS PRE-THRUSTING PROGRAM.
000375:
000376:                                                                                                  #                FINAL FLAG - SELECTS FINAL PROGRAM DISPLAYS AFTER CREW HAS
000377:                                                                                                  #                COMPLETED THE FINAL MANEUVER COMPUTATION AND DISPLAY
000378:                                                                                                  #                CYCLE.
000379:
000380:                                                                                                  #                EXTERNAL DELTA V STEERING FLAG - DESIGNATES THE TYPE OF
000381:                                                                                                  #                STEERING REQUIRED FOR EXECUTION OF THIS MANEUVER BY THE
000382:                                                                                                  #                THRUSTING PROGRAM SELECTED AFTER COMPLETION OF THIS
000383:                                                                                                  #                PROGRAM.
000384:
000385:                                                                                                  #        (7) IT IS NORMALLY REQUIRED THAT THE ISS BE ON FOR 1 HOUR PRIOR TO
000386:                                                                                                  #            A THRUSTING MANEUVER.
000387:
000388:                                                                                                  #        (8) THIS PROGRAM IS SELECTED BY THE ASTRONAUT BY DSKY ENTRY -
000389:
000390:                                                                                                  #                P33 IF THIS VEHICLE IS ACTIVE VEHICLE.
000391:
000392:                                                                                                  #                P73 IF THIS VEHICLE IS PASSIVE VEHICLE.
000393:
000394:                                                                                                  #  INPUT
000395:
000396:                                                                                                  #        (1) TTPI0    TIME OF THE TPI MANEUVER - SAVED FROM P32/P72


000398:                                                                                                  #        (2) ELEV     DESIRED LOS ANGLE AT TPI - SAVED FROM P32/P72
000399:                                                                                                  #        (3) TCDH     TIME OF THE CDH MANEUVER
000400:
000401:                                                                                                  #  OUTPUT
000402:
000403:                                                                                                  #        (1) TRKMKCNT NUMBER OF MARKS
000404:                                                                                                  #        (2) TTOGO    TIME TO GO
000405:                                                                                                  #        (3) +MGA     MIDDLE GIMBAL ANGLE
000406:                                                                                                  #        (4) DIFFALT  DELTA ALTITUDE AT CDH
000407:                                                                                                  #        (5) T2TOT3   DELTA TIME FROM CDH TO COMPUTED TPI
000408:                                                                                                  #        (6) NOMTPI   DELTA TIME FROM NOMINAL TPI TO COMPUTED TPI
000409:                                                                                                  #        (7) DELVLVC  DELTA VELOCITY AT CDH - LOCAL VERTICAL COORDINATES
000410:
000411:                                                                                                  #  DOWNLINK
000412:
000413:                                                                                                  #        (1) TCDH     TIME OF THE CDH MANEUVER
000414:                                                                                                  #        (2) TTPI     TIME OF THE TPI MANEUVER
000415:                                                                                                  #        (3) TIG      TIME OF THE CDH MANEUVER
000416:                                                                                                  #        (4) DELVEET2 DELTA VELOCITY AT CDH - REFERENCE COORDINATES
000417:                                                                                                  #        (5) DIFFALT  DELTA ALTITUDE AT CDH
000418:                                                                                                  #        (6) ELEV     DESIRED LOS ANGLE AT TPI
000419:                                                                                                  #  COMMUNICATION TO THRUSTING PROGRAMS
000420:
000421:                                                                                                  #        (1) TIG      TIME OF THE CDH MANEUVER
000422:                                                                                                  #        (2) RTIG     POSITION OF ACTIVE VEHICLE AT CDH - BEFORE ROTATION
000423:                                                                                                  #                     INTO PLANE OF PASSIVE VEHICLE
000424:                                                                                                  #        (3) VTIG     VELOCITY OF ACTIVE VEHICLE AT CDH - BEFORE ROTATION
000425:                                                                                                  #                     INTO PLANE OF PASSIVE VEHICLE
000426:                                                                                                  #        (4) DELVSIN  DELTA VELOCITY AT CDH - REFERENCE COORDINATES
000427:                                                                                                  #        (5) DELVSAB  MAGNITUDE OF DELTA VELOCITY AT CDH
000428:                                                                                                  #        (6) XDELVFLG SET TO INDICATE EXTERNAL DELTA V VG COMPUTATION
000429:
000430:                                                                                                  #  SUBROUTINES USED
000431:
000432:                                                                                                  #        AVFLAGA
000433:                                                                                                  #        AVFLAGP
000434:                                                                                                  #        P20FLGON
000435:                                                                                                  #        VNPOOH
000436:                                                                                                  #        SELECTMU
000437:                                                                                                  #        ADVANCE
000438:                                                                                                  #        CDHMVR
000439:                                                                                                  #        INTINT3P
000440:                                                                                                  #        ACTIVE
000441:                                                                                                  #        PASSIVE
000442:                                                                                                  #        S33/34.1
000443:                                                                                                  #        ALARM
000444:                                                                                                  #        BANKCALL
000445:                                                                                                  #        GOFLASH
000446:                                                                                                  #        GOTOPOOH
000447:                                                                                                  #        S32/33.1


000449:                                                                                                  #        VN1645
000450:
000451: 35,2162                                           COUNT*   $$/P3373
000452: 35,2162           02313        P33                TC       AVFLAGA
000453: 35,2163           02165                           TC       P33/P73A
000454: 35,2164           02320        P73                TC       AVFLAGP
000455: 35,2165           02325        P33/P73A           TC       P20FLGON
000456: 35,2166           32355                           CAF      V06N13                                #  TCDH
000457: 35,2167           03651                           TC       VNPOOH
000458: 35,2170           06036                           TC       INTPRET
000459: 35,2171           77745                           DLOAD
000460: 35,2172           03636                                    TTPI0
000461: 35,2173           17634                           STODL    TTPI
000462: 35,2174           03374                                    TCDH
000463: 35,2175           37440                           STCALL   TIG
000464: 35,2176           20041                                    SELECTMU
000465: 35,2177           77624        P33/P73B           CALL
000466: 35,2200           71016                                    ADVANCE
000467: 35,2201           77624                           CALL
000468: 35,2202           71133                                    CDHMVR
000469: 35,2203           77201                           SETPD    VLOAD
000470: 35,2204           00001                                    0D
000471: 35,2205           03542                                    VACT3
000472: 35,2206           45115                           PDVL     CALL
000473: 35,2207           02315                                    RACT2
000474: 35,2210           71071                                    INTINT3P
000475: 35,2211           77624                           CALL
000476: 35,2212           46363                                    ACTIVE
000477: 35,2213           77201                           SETPD    VLOAD
000478: 35,2214           00001                                    0D
000479: 35,2215           03526                                    VPASS2
000480: 35,2216           45115                           PDVL     CALL
000481: 35,2217           03520                                    RPASS2
000482: 35,2220           71071                                    INTINT3P
000483: 35,2221           77624                           CALL
000484: 35,2222           46373                                    PASSIVE
000485: 35,2223           43145                           DLOAD    SET
000486: 35,2224           32364                                    P30ZERO
000487: 35,2225           03460                                    ITSWICH
000488: 35,2226           36323                           STCALL   NOMTPI
000489: 35,2227           72726                                    S33/34.1
000490: 35,2230           77454                           BZE      EXIT
000491: 35,2231           72246                                    P33/P73C
000492: 35,2232           05567                           TC       ALARM
000493: 35,2233           00611                           OCT      611
000494: 35,2234           35006                           CAF      V05N09
000495: 35,2235           04616                           TC       BANKCALL
000496: 35,2236           20351                           CADR     GOFLASH
000497: 35,2237           06001                           TC       GOTOPOOH
000498: 35,2240           02242                           TC       +2


000500: 35,2241           02165                           TC       P33/P73A
000501: 35,2242           06036                           TC       INTPRET
000502: 35,2243           77745                           DLOAD
000503: 35,2244           32364                                    P30ZERO
000504: 35,2245           02323                           STORE    NOMTPI
000505: 35,2246           43014        P33/P73C           BON      SET
000506: 35,2247           01311                                    FINALFLG
000507: 35,2250           72252                                    P33/P73D
000508: 35,2251           00470                                    UPDATFLG
000509: 35,2252           43345        P33/P73D           DLOAD    DAD
000510: 35,2253           02323                                    NOMTPI
000511: 35,2254           03634                                    TTPI
000512: 35,2255           03634                           STORE    TTPI
000513: 35,2256           77625                           DSU
000514: 35,2257           03374                                    TCDH
000515: 35,2260           51025        P33/P73E           DSU      BPL
000516: 35,2261           32366                                    60MIN
000517: 35,2262           72260                                    P33/P73E
000518: 35,2263           77615                           DAD
000519: 35,2264           32366                                    60MIN
000520: 35,2265           16257                           STODL    T1TOT2
000521: 35,2266           03634                                    TTPI
000522: 35,2267           41425                           DSU      PUSH
000523: 35,2270           03636                                    TTPI0
000524: 35,2271           45246        P33/P73F           ABS      DSU
000525: 35,2272           32366                                    60MIN
000526: 35,2273           43244                           BPL      DAD
000527: 35,2274           72271                                    P33/P73F
000528: 35,2275           32366                                    60MIN
000529: 35,2276           45565                           SIGN     STADR
000530: 35,2277           75516                           STORE    T2TOT3
000531: 35,2300           77776                           EXIT
000532: 35,2301           32356                           CAF      V06N75
000533: 35,2302           03651                           TC       VNPOOH
000534: 35,2303           06036                           TC       INTPRET
000535: 35,2304           45175                           VLOAD    CALL
000536: 35,2305           02301                                    DELVEET2
000537: 35,2306           71100                                    S32/33.1
000538: 35,2307           36301                           STCALL   DELVEET2
000539: 35,2310           73542                                    VN1645
000540: 35,2311           77650                           GOTO
000541: 35,2312           72177                                    P33/P73B
000542:


000544:                                                                                                  #  ..... AVFLAGA/P .....
000545:
000546:                                                                                                  #  SUBROUTINES USED
000547:
000548:                                                                                                  #           UPFLAG
000549:                                                                                                  #           DOWNFLAG
000550:
000551: 35,2313           00006        AVFLAGA            EXTEND                                         #  AVFLAG = LEM
000552: 35,2314           23466                           QXCH     SUBEXIT
000553: 35,2315           05504                           TC       UPFLAG
000554: 35,2316           00050                           ADRES    AVFLAG
000555: 35,2317           01466                           TC       SUBEXIT
000556: 35,2320           00006        AVFLAGP            EXTEND                                         #  AVFLAG = CSM
000557: 35,2321           23466                           QXCH     SUBEXIT
000558: 35,2322           05516                           TC       DOWNFLAG
000559: 35,2323           00050                           ADRES    AVFLAG
000560: 35,2324           01466                           TC       SUBEXIT
000561: 35,2325           00006        P20FLGON           EXTEND
000562: 35,2326           23466                           QXCH     SUBEXIT
000563: 35,2327           05504                           TC       UPFLAG
000564: 35,2330           00027                           ADRES    UPDATFLG                              #  SET UPDATFLG
000565: 35,2331           05504                           TC       UPFLAG
000566: 35,2332           00031                           ADRES    TRACKFLG                              #  SET TRACKFLG
000567: 35,2333           01466                           TC       SUBEXIT
000568:


000570:                                                                                                  #  ..... DISDVLVC .....
000571:
000572:                                                                                                  #  SUBROUTINES USED
000573:
000574:                                                                                                  #        S32/33.X
000575:                                                                                                  #         VNPOOH
000576:
000577: 35,2334           03432        DISDVLVC           STORE    DELVLVC
000578: 35,2335           45020                           STQ      CALL
000579: 35,2336           03461                                    NORMEX
000580: 35,2337           71120                                    S32/33.X
000581: 35,2340           64375                           VLOAD    MXV
000582: 35,2341           03432                                    DELVLVC
000583: 35,2342           00001                                    0D
000584: 35,2343           66172                           VSL1     SXA,1
000585: 35,2344           03613                                    VERBNOUN
000586: 35,2345           03432                           STORE    DELVLVC
000587: 35,2346           77776                           EXIT
000588: 35,2347           31613                           CA       VERBNOUN
000589: 35,2350           03651                           TC       VNPOOH
000590: 35,2351           06036                           TC       INTPRET
000591: 35,2352           77650                           GOTO
000592: 35,2353           03461                                    NORMEX
000593:


000595:                                                                                                  #  ..... CONSTANTS .....
000596:
000597: 35,2354           01413        V06N11             VN       0611
000598: 35,2355           01415        V06N13             VN       0613
000599: 35,2356           01513        V06N75             VN       0675
000600: 35,2357           77776 62460  SN359+             2DEC     -.000086601
000601:
000602: 35,2361           17777 37776  CS359+             2DEC     +.499999992
000603:
000604: 35,2363           00000 00000  P30ZERO            2DEC     0          B-28
000605:
000606: 35,2365           00025 37100  60MIN              2DEC     360000     B-28
000607:
000608: 35,2367           00600        ALARM/TB           OCT      00600                                 #  NO 1
000609: 35,2370           00601                           OCT      00601                                 #     2
000610: 35,2371           00602                           OCT      00602                                 #     3
000611: 35,2372           00603                           OCT      00603                                 #     4
000612: 35,2373           00604                           OCT      00604                                 #     5
000613: 35,2374           00605                           OCT      00605                                 #     6
000614: 35,2375           00606                           OCT      00606                                 #     7
000615:


000617:                                                                                                  #  ..... CSI/A     .....
000618:
000619:                                                                                                  #  SUBROUTINES USED
000620:
000621:                                                                                                  #        VECSHIFT
000622:                                                                                                  #        TIMETHET
000623:                                                                                                  #        PERIAPO
000624:                                                                                                  #        SHIFTR1
000625:                                                                                                  #        INTINT2C
000626:                                                                                                  #        CDHMVR
000627:                                                                                                  #        PERIAPO1
000628:                                                                                                  #        INTINT
000629:                                                                                                  #        ACTIVE
000630:
000631: 34,2057                                           BANK     34
000632: 34,2000                                           SETLOC   CSI/CDH1
000633: 34,2000                                           BANK
000634: 34,2057  E7,1466                                  EBANK=   SUBEXIT
000635: 34,2057                                           COUNT*   $$/CSI
000636: 34,2057           00000 00020  LOOPMX             2DEC     16         B-28
000637:
000638: 34,2061           00003 34661  INITST             2DEC     .03048     B-7                        #       INITIAL DELDV = 10 FPS
000639:
000640: 34,2063           00606 04467  DVMAX1             2DEC     3.0480     B-7                        #       MAXIMUM DV1 = 1000 FPS
000641:
000642: 34,2065           00601 33216  DVMAX2             2DEC     3.014472   B-7                        #                      989 FPS
000643:
000644: 34,2067           10000 00000  1DPB2              2DEC     1.0        B-2
000645:
000646: 34,2071           00000 00001  1DPB28             2DEC     1          B-28
000647:
000648: 34,2073           00004 31566  PMINE              2DEC     157420     B-29                       #  85 NM    - MUST BE 8 WORDS BEFORE PMINM
000649:
000650: 34,2075           00000 01177  EPSILN1            2DEC     .0003048   B-7                        #       .1 FPS
000651:
000652: 34,2077           00002 27311  NICKELDP           2DEC     .021336    B-7                        #  7 FPS (CHANGED FROM .05 FPS)
000653:
000654: 34,2101           77754 57611  FIFPSDP            2DEC     -.152400   B-7                        #       50 FPS
000655:
000656: 34,2103           00000 12326  PMINM              2DEC     10668      B-29                       #  35000 FT - MUST BE 8 WORDS AFTER PMINE
000657:
000658: 34,2105           00116 00730  DELMAX1            2DEC     .6096000   B-7                        #       200 FPS
000659:
000660: 34,2107           00000 06433  ONETHTH            2DEC     .0001      B-3
000661:
000662: 34,2111           00003 25140  TMIN               2DEC     60000      B-28                       #  10 MIN
000663:
000664: 34,2113           43014        CSI/A              CLEAR    SET                                   #  INITIALIZE INDICATORS
000665: 34,2114           03260                                    S32.1F1                               #  DVT1 HAS EXCEEDED MAX INDICATOR
000666: 34,2115           03061                                    S32.1F2                               #  FIRST PASS FOR NEWTON ITERATION INDICATR


000668: 34,2116           43014                           CLEAR    SET
000669: 34,2117           03262                                    S32.1F3A                              #  00=1ST 2 PASSES 2ND CYCLE 01=FIRST CYCLE
000670: 34,2120           03063                                    S32.1F3B                              #  10=2ND CYCLE 11=50FPS STAGE 2ND CYCLE
000671: 34,2121           77745                           DLOAD
000672: 34,2122           32364                                    P30ZERO
000673: 34,2123           03604                           STORE    LOOPCT
000674: 34,2124           03612                           STORE    CSIALRM
000675: 34,2125           77201        CSI/B              SETPD    VLOAD
000676: 34,2126           00001                                    0D
000677: 34,2127           02307                                    RACT1
000678: 34,2130           41446                           ABVAL    PUSH                                  #  RA1                            B29 PL02D
000679: 34,2131           70501                           NORM     SR1
000680: 34,2132           00050                                    X2                                    #                          B29-N2+ B1 PL04D
000681: 34,2133           51515                           PDVL     ABVAL
000682: 34,2134           03550                                    RPASS3
000683: 34,2135           55301                           NORM     BDDV                                  #  RA1/RP3                         B1 PL02D
000684: 34,2136           00047                                    X1
000685: 34,2137           53664                           XSU,2    SR*                                   #                                  B2
000686: 34,2140           00046                                    X1
000687: 34,2141           57175                                    1,2
000688: 34,2142           41215                           DAD      DMP                                   #  (1+(RA1/RP3))RA1        B29+B2=B31 PL00D
000689: 34,2143           30070                                    1DPB2
000690: 34,2144           65301                           NORM     PDDL                                  #                                     PL02D
000691: 34,2145           00047                                    X1
000692: 34,2146           02325                                    RTMU
000693: 34,2147           56342                           SR1      DDV                                   #                         B38-B31= B7 PL00D
000694: 34,2150           75457                           SL*      SQRT                                  #                                  B7
000695: 34,2151           20172                                    0          -7,1
000696: 34,2152           53515                           PDVL     UNIT                                  #                                     PL02D
000697: 34,2153           02307                                    RACT1
000698: 34,2154           47315                           PDVL     VXV
000699: 34,2155           02265                                    UP1
000700: 34,2156           77656                           UNIT                                           #  UNIT(URP1 X UVP1 X URA1) = UH1
000701: 34,2157           72441                           DOT      SL1                                   #  VA1 . UH1                       B7
000702: 34,2160           03470                                    VACT1
000703: 34,2161           45421                           BDSU     STADR                                 #                                     PL00D
000704: 34,2162           60205                           STODL    DELVCSI
000705: 34,2163           30062                                    INITST                                #  10 FPS
000706: 34,2164           03610                           STORE    DELDV
000707: 34,2165           43345        CSI/B1             DLOAD    DAD                                   #  IF LOOPCT = 16
000708: 34,2166           03604                                    LOOPCT
000709: 34,2167           30072                                    1DPB28
000710: 34,2170           03604                           STORE    LOOPCT
000711: 34,2171           77025                           DSU      AXT,2
000712: 34,2172           30060                                    LOOPMX
000713: 34,2173           00006                                    6
000714: 34,2174           77644                           BPL
000715: 34,2175           70776                                    SCNDSOL
000716: 34,2176           77601        CSI/B2             SETPD
000717: 34,2177           00001                                    0D


000719: 34,2200           51545                           DLOAD    ABS
000720: 34,2201           03572                                    DELVCSI
000721: 34,2202           50025                           DSU      BMN
000722: 34,2203           30064                                    DVMAX1
000723: 34,2204           70224                                    CSI/B23
000724: 34,2205           43174                           AXT,2    BON
000725: 34,2206           00007                                    7
000726: 34,2207           03300                                    S32.1F1
000727: 34,2210           70776                                    SCNDSOL
000728: 34,2211           43014                           BOFF     BON
000729: 34,2212           03342                                    S32.1F3A
000730: 34,2213           70216                                    CSI/B22                               #  FLAG 3 NEQ 3
000731: 34,2214           03303                                    S32.1F3B
000732: 34,2215           70776                                    SCNDSOL
000733: 34,2216           71214        CSI/B22            SET      DLOAD
000734: 34,2217           03060                                    S32.1F1
000735: 34,2220           30066                                    DVMAX2
000736: 34,2221           77765                           SIGN
000737: 34,2222           03572                                    DELVCSI
000738: 34,2223           03572                           STORE    DELVCSI
000739: 34,2224           41575        CSI/B23            VLOAD    PUSH
000740: 34,2225           02307                                    RACT1
000741: 34,2226           63256                           UNIT     PDVL
000742: 34,2227           02265                                    UP1
000743: 34,2230           53435                           VXV      UNIT                                  #  UNIT(URP1 X UVP1 X URA1) = UH1
000744: 34,2231           76561                           VXSC     VSL1
000745: 34,2232           03572                                    DELVCSI
000746: 34,2233           02273                           STORE    DELVEET1
000747: 34,2234           40055                           VAD      BOV
000748: 34,2235           03470                                    VACT1
000749: 34,2236           70237                                    CSI/B23D
000750: 34,2237           37564        CSI/B23D           STCALL   VACT4
000751: 34,2240           46377                                    VECSHIFT
000752: 34,2241           26744                           STOVL    VVEC
000753: 34,2242           77614                           SET
000754: 34,2243           03466                                    RVSW
000755: 34,2244           26655                           STOVL    RVEC
000756: 34,2245           32360                                    SN359+
000757: 34,2246           36730                           STCALL   SNTH                                  #  ALSO CSTH
000758: 34,2247           24745                                    TIMETHET
000759: 34,2250           72142                           SR1      LXA,1
000760: 34,2251           03375                                    RTX1
000761: 34,2252           37602                           STCALL   HAFPA1
000762: 34,2253           46307                                    PERIAPO
000763: 34,2254           77624                           CALL
000764: 34,2255           46407                                    SHIFTR1
000765: 34,2256           17600                           STODL    POSTCSI
000766: 34,2257           03617                                    CENTANG
000767: 34,2260           52054                           BZE      GOTO
000768: 34,2261           70263                                    +2


000770: 34,2262           70372                                    CIRCL
000771: 34,2263           77745                           DLOAD
000772: 34,2264           02752                                    ECC
000773: 34,2265           50025                           DSU      BMN
000774: 34,2266           30110                                    ONETHTH
000775: 34,2267           70372                                    CIRCL
000776: 34,2270           45145                           DLOAD    CALL
000777: 34,2271           00041                                    R1
000778: 34,2272           46407                                    SHIFTR1
000779: 34,2273           60201                           SETPD    NORM
000780: 34,2274           00003                                    2D
000781: 34,2275           00047                                    X1
000782: 34,2276           50315                           PDVL     DOT                                   #                                     PL04D
000783: 34,2277           02307                                    RACT1
000784: 34,2300           03564                                    VACT4
000785: 34,2301           56246                           ABS      DDV
000786: 34,2302           00003                                    02D                                   #  (/RDOTV/)/R1           B36-B29= B7
000787: 34,2303           45257                           SL*      DSU
000788: 34,2304           20201                                    0,1
000789: 34,2305           30100                                    NICKELDP
000790: 34,2306           71240                           BMN      DLOAD
000791: 34,2307           70372                                    CIRCL
000792: 34,2310           02740                                    P
000793: 34,2311           45312                           SL2      DSU
000794: 34,2312           30070                                    1DPB2
000795: 34,2313           14017                           STODL    14D
000796: 34,2314           02323                                    RTSR1/MU
000797: 34,2315           56342                           SR1      DDV                                   #  (1/ROOTMU)/R1      B-16-B29 = B-45 PL02D
000798: 34,2316           41325                           PDDL     DMP
000799: 34,2317           02740                                    P
000800: 34,2320           00041                                    R1
000801: 34,2321           77624                           CALL
000802: 34,2322           46407                                    SHIFTR1
000803: 34,2323           72412                           SL4      SL1
000804: 34,2324           41366                           SQRT     DMP                                   #  ((P/MU)**.5)/R1    B14+B-45 = B-31 PL02D
000805: 34,2325           52414                           BOFF     SL3
000806: 34,2326           04343                                    CMOONFLG
000807: 34,2327           70330                                    CSI/B3
000808: 34,2330           50315        CSI/B3             PDVL     DOT
000809: 34,2331           02307                                    RACT1
000810: 34,2332           03564                                    VACT4
000811: 34,2333           03615                           STORE    RDOTV
000812: 34,2334           77646                           ABS
000813: 34,2335           41301                           NORM     DMP                                   #  ((P/MU)**.5)RDOTV/R1               PL02D
000814: 34,2336           00050                                    X2
000815: 34,2337           53660                           XSU,1    SL*                                   #                   B-31+B36-B3 = B2
000816: 34,2340           00047                                    X2
000817: 34,2341           20204                                    3,1
000818: 34,2342           14015                           STODL    12D
000819: 34,2343           32364                                    P30ZERO


000821: 34,2344           00021                           STORE    16D
000822: 34,2345           53575                           VLOAD    UNIT
000823: 34,2346           00015                                    12D
000824: 34,2347           26730                           STOVL    SNTH                                  #  ALSO STORES CSTH AND 0
000825: 34,2350           02307                                    RACT1
000826: 34,2351           75315                           PDVL     SIGN
000827: 34,2352           03564                                    VACT4
000828: 34,2353           03615                                    RDOTV
000829: 34,2354           45076                           VCOMP    CALL
000830: 34,2355           46377                                    VECSHIFT
000831: 34,2356           26744                           STOVL    VVEC
000832: 34,2357           77614                           SET
000833: 34,2360           03466                                    RVSW
000834: 34,2361           36655                           STCALL   RVEC
000835: 34,2362           24745                                    TIMETHET
000836: 34,2363           51125                           PDDL     BPL
000837: 34,2364           03615                                    RDOTV
000838: 34,2365           70376                                    NTP/2
000839: 34,2366           45345                           DLOAD    DSU
000840: 34,2367           03602                                    HAFPA1
000841: 34,2370           52006                           PUSH     GOTO
000842: 34,2371           70376                                    NTP/2
000843: 34,2372           71201        CIRCL              SETPD    DLOAD
000844: 34,2373           00001                                    00D
000845: 34,2374           32364                                    P30ZERO
000846: 34,2375           77606                           PUSH
000847: 34,2376           41345        NTP/2              DLOAD    DMP
000848: 34,2377           03465                                    NN
000849: 34,2400           03602                                    HAFPA1
000850: 34,2401           45261                           SL       DSU
000851: 34,2402           20217                                    14D
000852: 34,2403           77615                           DAD
000853: 34,2404           03632                                    TCSI
000854: 34,2405           03374                           STORE    TCDH
000855: 34,2406           77021                           BDSU     AXT,2
000856: 34,2407           03634                                    TTPI
000857: 34,2410           00005                                    5D
000858: 34,2411           40240                           BMN      SETPD
000859: 34,2412           70776                                    SCNDSOL
000860: 34,2413           00001                                    0D
000861: 34,2414           63375                           VLOAD    PDVL
000862: 34,2415           03564                                    VACT4
000863: 34,2416           02307                                    RACT1
000864: 34,2417           77624                           CALL
000865: 34,2420           71062                                    INTINT2C
000866: 34,2421           26315                           STOVL    RACT2
000867: 34,2422           00007                                    VATT
000868: 34,2423           27512                           STOVL    VACT2
000869: 34,2424           03504                                    VPASS1
000870: 34,2425           63201                           SETPD    PDVL


000872: 34,2426           00001                                    0D
000873: 34,2427           03476                                    RPASS1
000874: 34,2430           77624                           CALL
000875: 34,2431           71062                                    INTINT2C
000876: 34,2432           27520                           STOVL    RPASS2
000877: 34,2433           00007                                    VATT
000878: 34,2434           37526                           STCALL   VPASS2
000879: 34,2435           71133                                    CDHMVR
000880: 34,2436           40375                           VLOAD    SETPD
000881: 34,2437           02315                                    RACT2
000882: 34,2440           00001                                    0D
000883: 34,2441           45115                           PDVL     CALL
000884: 34,2442           03542                                    VACT3
000885: 34,2443           46277                                    PERIAPO1
000886: 34,2444           77624                           CALL
000887: 34,2445           46407                                    SHIFTR1
000888: 34,2446           27602                           STOVL    POSTCDH
000889: 34,2447           03542                                    VACT3
000890: 34,2450           63201                           SETPD    PDVL
000891: 34,2451           00001                                    0D
000892: 34,2452           02315                                    RACT2
000893: 34,2453           65325                           PDDL     PDDL
000894: 34,2454           03374                                    TCDH
000895: 34,2455           03634                                    TTPI
000896: 34,2456           41525                           PDDL     PUSH
000897: 34,2457           33671                                    TWOPI
000898: 34,2460           77624                           CALL
000899: 34,2461           73422                                    INTINT
000900: 34,2462           77624                           CALL
000901: 34,2463           46363                                    ACTIVE
000902: 34,2464           77745                           DLOAD
000903: 34,2465           02263                                    ELEV
000904: 34,2466           73401                           SETPD    SINE
000905: 34,2467           00007                                    6D
000906: 34,2470           53515                           PDVL     UNIT
000907: 34,2471           03534                                    RACT3
000908: 34,2472           00001                           STORE    00D                                   #  URA3 AT 00D
000909: 34,2473           47315                           PDVL     VXV                                   #  PL14D,PL08D
000910: 34,2474           02265                                    UP1
000911: 34,2475           77656                           UNIT
000912: 34,2476           71525                           PDDL     COSINE                                #  UNIT(URA3XUVA3XURA3) = UH3      B1 PL14D
000913: 34,2477           02263                                    ELEV
000914: 34,2500           45561                           VXSC     STADR                                 #  (COSLOS)(UH3)                   B2 PL08D
000915: 34,2501           77754                           STORE    18D                                   #      PLUS
000916: 34,2502           74345                           DLOAD    VXSC                                  #  (SINLOS)(URA3) = U              B2 PL00D
000917: 34,2503           76455                           VAD      VSL1
000918: 34,2504           00023                                    18D                                   #                                  B1
000919: 34,2505           50206                           PUSH     DOT                                   #                                     PL06D
000920: 34,2506           03534                                    RACT3                                 #  (U . RA3) = TEMP1      B1 +B29=B30
000921: 34,2507           41552                           SL1      PUSH                                  #                                 B29 PL08D


000923: 34,2510           72316                           DSQ      TLOAD                                 #  TEMP1**2                       B58
000924: 34,2511           00155                                    MPAC
000925: 34,2512           50315                           PDVL     DOT                                   #                                     PL11D
000926: 34,2513           03534                                    RACT3
000927: 34,2514           03534                                    RACT3
000928: 34,2515           57551                           TLOAD    DCOMP                                 #  RA3.RA3
000929: 34,2516           00155                                    MPAC
000930: 34,2517           50315                           PDVL     DOT                                   #  RP3.RP3                        B58 PL14D
000931: 34,2520           03550                                    RPASS3
000932: 34,2521           03550                                    RPASS3                                #                                     PL11D
000933: 34,2522           76371                           TAD      TAD                                   #  TEMP1**2+RA3.RA3+RP3.RP3=TEMP2     PL08D
000934: 34,2523           71244                           BPL      DLOAD
000935: 34,2524           70542                                    K1ORK2
000936: 34,2525           03604                                    LOOPCT
000937: 34,2526           77025                           DSU      AXT,2
000938: 34,2527           30072                                    1DPB28
000939: 34,2530           00001                                    1D
000940: 34,2531           77654                           BZE
000941: 34,2532           72036                                    ALMXITA
000942: 34,2533           70545                           DLOAD    SR1
000943: 34,2534           03610                                    DELDV
000944: 34,2535           03610                           STORE    DELDV
000945: 34,2536           77621                           BDSU
000946: 34,2537           03574                                    DVPREV
000947: 34,2540           37572                           STCALL   DELVCSI
000948: 34,2541           70165                                    CSI/B1
000949: 34,2542           41566        K1ORK2             SQRT     PUSH                                  #  TEMP3 = TEMP2**.5              B29 PL10D
000950: 34,2543           45276                           DCOMP    DSU
000951: 34,2544           00007                                    06D                                   #  -TEMP1-TEMP3 =K2 AT 10D
000952: 34,2545           14013                           STODL    10D                                   #                                     PL08D
000953: 34,2546           45425                           DSU      STADR                                 #                                     PL06D
000954: 34,2547           77762                           STORE    12D                                   #  -TEMP1+TEMP3 =K1 AT 12D
000955: 34,2550           77646                           ABS
000956: 34,2551           14017                           STODL    14D
000957: 34,2552           00013                                    10D
000958: 34,2553           45246                           ABS      DSU
000959: 34,2554           00017                                    14D
000960: 34,2555           71240                           BMN      DLOAD
000961: 34,2556           70561                                    K2.
000962: 34,2557           00015                                    12D
000963: 34,2560           00013                           STORE    10D                                   #  K=K1
000964: 34,2561           77745        K2.                DLOAD
000965: 34,2562           00013                                    10D
000966: 34,2563           76561                           VXSC     VSL1
000967: 34,2564           53455                           VAD      UNIT                                  #  V=RA3+KU  UNIT                  B1
000968: 34,2565           03534                                    RACT3
000969: 34,2566           53515                           PDVL     UNIT
000970: 34,2567           03550                                    RPASS3                                #                                     PL06D
000971: 34,2570           53515                           PDVL     UNIT
000972: 34,2571           03556                                    VPASS3                                #                                     PL12D


000974: 34,2572           63235                           VXV      PDVL                                  #  UVP3 X URP3                        PL18D
000975: 34,2573           00007                                    06D
000976: 34,2574           00007                                    06D
000977: 34,2575           50235                           VXV      DOT
000978: 34,2576           00001                                    00D
000979: 34,2577           77626                           STADR                                          #                                     PL12D
000980: 34,2600           53762                           STOVL    12D                                   #  (URP3XV).(UVP3XURP3)=TEMP          PL06D
000981: 34,2601           72441                           DOT      SL1                                   #                                     PL00D
000982: 34,2602           75326                           ARCCOS   SIGN
000983: 34,2603           00015                                    12D                                   #                                  B0
000984: 34,2604           41542                           SR1      PUSH                                  #  GAMMA=SIGN(TEMP)ARCOS(UNITV.URP3)  PL02D
000985: 34,2605           71214                           BON      DLOAD
000986: 34,2606           03301                                    S32.1F2
000987: 34,2607           70644                                    FRSTPAS
000988: 34,2610           00001                                    00D                                   #  NOT THE FIRST PASS OF A CYCLE
000989: 34,2611           65225                           DSU      PDDL                                  #  GAMMA-GAMPREV                   B1 PL04D
000990: 34,2612           03606                                    GAMPREV
000991: 34,2613           03572                                    DELVCSI
000992: 34,2614           60225                           DSU      NORM                                  #                                  B7
000993: 34,2615           03574                                    DVPREV
000994: 34,2616           00047                                    X1
000995: 34,2617           65265                           BDDV     PDDL                                  #  (GAM-GAMPREV)/(DV-DVPREV)   B-6+N1 PL06D
000996: 34,2620           00003                                    02D                                   #          = SLOPE
000997: 34,2621           03572                                    DELVCSI
000998: 34,2622           03574                           STORE    DVPREV
000999: 34,2623           43014                           BOFF     BOFF
001000: 34,2624           03342                                    S32.1F3A
001001: 34,2625           70656                                    THRDCHK
001002: 34,2626           03343                                    S32.1F3B
001003: 34,2627           70656                                    THRDCHK
001004: 34,2630           41345                           DLOAD    DMP
001005: 34,2631           00003                                    02D
001006: 34,2632           03606                                    GAMPREV
001007: 34,2633           71244                           BPL      DLOAD
001008: 34,2634           70663                                    FIFTYFPS
001009: 34,2635           30062                                    INITST
001010: 34,2636           77765                           SIGN
001011: 34,2637           03610                                    DELDV
001012: 34,2640           03610                           STORE    DELDV
001013: 34,2641           43014                           SET      CLEAR
001014: 34,2642           03062                                    S32.1F3A
001015: 34,2643           03263                                    S32.1F3B
001016: 34,2644           77745        FRSTPAS            DLOAD
001017: 34,2645           00001                                    00D
001018: 34,2646           17606                           STODL    GAMPREV
001019: 34,2647           03572                                    DELVCSI
001020: 34,2650           03574                           STORE    DVPREV
001021: 34,2651           43025                           DSU      CLEAR
001022: 34,2652           03610                                    DELDV
001023: 34,2653           03261                                    S32.1F2


001025: 34,2654           37572                           STCALL   DELVCSI
001026: 34,2655           70165                                    CSI/B1
001027: 34,2656           43014        THRDCHK            BON      BON
001028: 34,2657           03302                                    S32.1F3A
001029: 34,2660           70702                                    NEWTN
001030: 34,2661           03303                                    S32.1F3B
001031: 34,2662           70702                                    NEWTN
001032: 34,2663           75345        FIFTYFPS           DLOAD    SIGN
001033: 34,2664           30102                                    FIFPSDP
001034: 34,2665           00005                                    04D
001035: 34,2666           77765                           SIGN
001036: 34,2667           03606                                    GAMPREV
001037: 34,2670           03610                           STORE    DELDV
001038: 34,2671           43276                           DCOMP    DAD
001039: 34,2672           03572                                    DELVCSI
001040: 34,2673           17572                           STODL    DELVCSI
001041: 34,2674           00001                                    00D
001042: 34,2675           43014                           SET      SET
001043: 34,2676           03063                                    S32.1F3B
001044: 34,2677           03062                                    S32.1F3A
001045: 34,2700           37606                           STCALL   GAMPREV
001046: 34,2701           70176                                    CSI/B2
001047: 34,2702           60345        NEWTN              DLOAD    NORM
001048: 34,2703           00005                                    04D
001049: 34,2704           00050                                    X2
001050: 34,2705           54065                           BDDV     XSU,1
001051: 34,2706           00001                                    00D
001052: 34,2707           00047                                    X2
001053: 34,2710           77657                           SR*
001054: 34,2711           20601                                    0,1
001055: 34,2712           17610                           STODL    DELDV
001056: 34,2713           00001                                    00D
001057: 34,2714           03606                           STORE    GAMPREV
001058: 34,2715           51545                           DLOAD    ABS
001059: 34,2716           03610                                    DELDV                                 #                                     PL08D
001060: 34,2717           45206                           PUSH     DSU
001061: 34,2720           30076                                    EPSILN1
001062: 34,2721           71240                           BMN      DLOAD
001063: 34,2722           70737                                    CSI/SOL
001064: 34,2723           50025                           DSU      BMN
001065: 34,2724           30106                                    DELMAX1
001066: 34,2725           70732                                    CSISTEP
001067: 34,2726           75345                           DLOAD    SIGN
001068: 34,2727           30106                                    DELMAX1
001069: 34,2730           03610                                    DELDV
001070: 34,2731           03610                           STORE    DELDV
001071: 34,2732           45345        CSISTEP            DLOAD    DSU
001072: 34,2733           03572                                    DELVCSI
001073: 34,2734           03610                                    DELDV
001074: 34,2735           37572                           STCALL   DELVCSI


001076: 34,2736           70165                                    CSI/B1
001077: 34,2737           77145        CSI/SOL            DLOAD    AXT,2
001078: 34,2740           03600                                    POSTCSI
001079: 34,2741           00002                                    2
001080: 34,2742           77750                           LXA,1
001081: 34,2743           03375                                    RTX1
001082: 34,2744           50023                           DSU*     BMN
001083: 34,2745           30072                                    PMINE      -2,1
001084: 34,2746           70776                                    SCNDSOL
001085: 34,2747           71374                           AXT,2    DLOAD
001086: 34,2750           00003                                    3
001087: 34,2751           03602                                    POSTCDH
001088: 34,2752           50023                           DSU*     BMN
001089: 34,2753           30072                                    PMINE      -2,1
001090: 34,2754           70776                                    SCNDSOL
001091: 34,2755           45345                           DLOAD    DSU
001092: 34,2756           03374                                    TCDH
001093: 34,2757           03632                                    TCSI
001094: 34,2760           02257                           STORE    T1TOT2
001095: 34,2761           45374                           AXT,2    DSU
001096: 34,2762           00004                                    4
001097: 34,2763           30112                                    TMIN
001098: 34,2764           77040                           BMN      AXT,2
001099: 34,2765           70776                                    SCNDSOL
001100: 34,2766           00005                                    5
001101: 34,2767           45345                           DLOAD    DSU
001102: 34,2770           03634                                    TTPI
001103: 34,2771           03374                                    TCDH
001104: 34,2772           02261                           STORE    T2TOT3
001105: 34,2773           51025                           DSU      BPL
001106: 34,2774           30112                                    TMIN
001107: 34,2775           72116                                    P32/P72C
001108: 34,2776           43014        SCNDSOL            BON      BOFF
001109: 34,2777           03302                                    S32.1F3A
001110: 34,3000           72040                                    ALMXIT
001111: 34,3001           03343                                    S32.1F3B
001112: 34,3002           72040                                    ALMXIT
001113: 34,3003           71334                           SXA,2    DLOAD
001114: 34,3004           03611                                    CSIALRM
001115: 34,3005           32364                                    P30ZERO
001116: 34,3006           43014                           CLEAR    SET
001117: 34,3007           03260                                    S32.1F1
001118: 34,3010           03061                                    S32.1F2
001119: 34,3011           43014                           CLEAR    CLEAR
001120: 34,3012           03262                                    S32.1F3A
001121: 34,3013           03263                                    S32.1F3B
001122: 34,3014           37604                           STCALL   LOOPCT
001123: 34,3015           70125                                    CSI/B
001124:


001126:                                                                                                  #  ..... ADVANCE   .....
001127:
001128:                                                                                                  #  SUBROUTINES USED
001129:
001130:                                                                                                  #        PRECSET
001131:                                                                                                  #        ROTATE
001132:
001133: 34,3016           71220        ADVANCE            STQ      DLOAD
001134: 34,3017           03466                                    SUBEXIT
001135: 34,3020           03440                                    TIG
001136: 34,3021           34041                           STCALL   TDEC1
001137: 34,3022           46341                                    PRECSET
001138: 34,3023           77214                           SET      VLOAD
001139: 34,3024           01067                                    XDELVFLG
001140: 34,3025           03556                                    VPASS3
001141: 34,3026           03526                           STORE    VPASS2
001142: 34,3027           27504                           STOVL    VPASS1
001143: 34,3030           03550                                    RPASS3
001144: 34,3031           03520                           STORE    RPASS2
001145: 34,3032           03476                           STORE    RPASS1
001146: 34,3033           47256                           UNIT     VXV
001147: 34,3034           03504                                    VPASS1
001148: 34,3035           77656                           UNIT
001149: 34,3036           26265                           STOVL    UP1
001150: 34,3037           03534                                    RACT3
001151: 34,3040           37640                           STCALL   RTIG
001152: 34,3041           71052                                    ROTATE
001153: 34,3042           02315                           STORE    RACT2
001154: 34,3043           26307                           STOVL    RACT1
001155: 34,3044           03542                                    VACT3
001156: 34,3045           37646                           STCALL   VTIG
001157: 34,3046           71052                                    ROTATE
001158: 34,3047           03512                           STORE    VACT2
001159: 34,3050           37470                           STCALL   VACT1
001160: 34,3051           03466                                    SUBEXIT
001161:


001163:                                                                                                  #  ..... ROTATE    .....
001164:
001165: 34,3052           41406        ROTATE             PUSH     PUSH
001166: 34,3053           74241                           DOT      VXSC
001167: 34,3054           02265                                    UP1
001168: 34,3055           02265                                    UP1
001169: 34,3056           51352                           VSL2     BVSU
001170: 34,3057           63256                           UNIT     PDVL
001171: 34,3060           74246                           ABVAL    VXSC
001172: 34,3061           43572                           VSL1     RVQ
001173:


001175:                                                                                                  #  ..... INTINTNA  .....
001176:
001177: 34,3062           65325        INTINT2C           PDDL     PDDL
001178: 34,3063           03632                                    TCSI
001179: 34,3064           03374                                    TCDH
001180: 34,3065           41525                           PDDL     PUSH
001181: 34,3066           33671                                    TWOPI
001182: 34,3067           77650                           GOTO
001183: 34,3070           73422                                    INTINT
001184: 34,3071           65325        INTINT3P           PDDL     PDDL
001185: 34,3072           03374                                    TCDH
001186: 34,3073           03634                                    TTPI
001187: 34,3074           41525                           PDDL     PUSH
001188: 34,3075           32364                                    P30ZERO
001189: 34,3076           77650                           GOTO
001190: 34,3077           73422                                    INTINT
001191:


001193:                                                                                                  #  ..... S32/33.1  .....
001194:
001195:                                                                                                  #  SUBROUTINES USED
001196:
001197:                                                                                                  #        S32/33.X
001198:
001199: 34,3100           76020        S32/33.1           STQ      AXT,1
001200: 34,3101           03466                                    SUBEXIT
001201: 34,3102           01521                           VN       0681
001202: 34,3103           77624                           CALL
001203: 34,3104           72334                                    DISDVLVC
001204: 34,3105           77624                           CALL
001205: 34,3106           71120                                    S32/33.X
001206: 34,3107           61375                           VLOAD    VXM
001207: 34,3110           03432                                    DELVLVC
001208: 34,3111           00001                                    0D
001209: 34,3112           77772                           VSL1
001210: 34,3113           03654                           STORE    DELVSIN
001211: 34,3114           51406                           PUSH     ABVAL
001212: 34,3115           27662                           STOVL    DELVSAB
001213: 34,3116           77650                           GOTO
001214: 34,3117           03466                                    SUBEXIT
001215:


001217:                                                                                                  #  ..... S32/33.X  .....
001218:
001219: 34,3120           77201        S32/33.X           SETPD    VLOAD
001220: 34,3121           00007                                    6D
001221: 34,3122           02265                                    UP1
001222: 34,3123           63276                           VCOMP    PDVL
001223: 34,3124           02307                                    RACT1
001224: 34,3125           57456                           UNIT     VCOMP
001225: 34,3126           47206                           PUSH     VXV
001226: 34,3127           02265                                    UP1
001227: 34,3130           77772                           VSL1
001228: 34,3131           00001                           STORE    0D
001229: 34,3132           77616                           RVQ
001230:


001232:                                                                                                  #  ..... CDHMVR    .....
001233:
001234:                                                                                                  #  SUBROUTINES USED
001235:
001236:                                                                                                  #        VECSHIFT
001237:                                                                                                  #        TIMETHET
001238:                                                                                                  #        SHIFTR1
001239:
001240: 34,3133           77220        CDHMVR             STQ      VLOAD
001241: 34,3134           03466                                    SUBEXIT
001242: 34,3135           02315                                    RACT2
001243: 34,3136           53406                           PUSH     UNIT
001244: 34,3137           27542                           STOVL    UNVEC                                 #  UR SUB A
001245: 34,3140           03520                                    RPASS2
001246: 34,3141           50256                           UNIT     DOT
001247: 34,3142           03542                                    UNVEC
001248: 34,3143           72406                           PUSH     SL1
001249: 34,3144           16732                           STODL    CSTH
001250: 34,3145           65316                           DSQ      PDDL
001251: 34,3146           06414                                    DP1/4TH
001252: 34,3147           45302                           SR2      DSU
001253: 34,3150           72566                           SQRT     SL1
001254: 34,3151           57515                           PDVL     VCOMP
001255: 34,3152           77635                           VXV
001256: 34,3153           03520                                    RPASS2
001257: 34,3154           65241                           DOT      PDDL
001258: 34,3155           02265                                    UP1
001259: 34,3156           45565                           SIGN     STADR
001260: 34,3157           51047                           STOVL    SNTH
001261: 34,3160           03520                                    RPASS2
001262: 34,3161           45115                           PDVL     CALL
001263: 34,3162           03526                                    VPASS2
001264: 34,3163           46377                                    VECSHIFT
001265: 34,3164           26744                           STOVL    VVEC
001266: 34,3165           77614                           CLEAR
001267: 34,3166           03666                                    RVSW
001268: 34,3167           36655                           STCALL   RVEC
001269: 34,3170           24745                                    TIMETHET
001270: 34,3171           53754                           LXA,2    VSL*
001271: 34,3172           03376                                    RTX2
001272: 34,3173           57576                                    0,2
001273: 34,3174           00023                           STORE    18D
001274: 34,3175           76441                           DOT      SL1R
001275: 34,3176           03542                                    UNVEC
001276: 34,3177           51515                           PDVL     ABVAL                                 #  0D = V SUB PV
001277: 34,3200           63257                           SL*      PDVL
001278: 34,3201           57576                                    0,2
001279: 34,3202           02315                                    RACT2
001280: 34,3203           65246                           ABVAL    PDDL                                  #  2D = LENGTH OF R SUB A
001281: 34,3204           77625                           DSU


001283: 34,3205           00003                                    02D
001284: 34,3206           17576                           STODL    DIFFALT                               #  DELTA H IN METERS          B+29
001285: 34,3207           02742                                    R1A
001286: 34,3210           65301                           NORM     PDDL                                  #  2 - R V**/MU                        04D
001287: 34,3211           00047                                    X1
001288: 34,3212           00041                                    R1
001289: 34,3213           77624                           CALL
001290: 34,3214           46407                                    SHIFTR1
001291: 34,3215           56362                           SR1R     DDV
001292: 34,3216           41457                           SL*      PUSH
001293: 34,3217           20174                                    0          -5,1
001294: 34,3220           65225                           DSU      PDDL                                  #  A SUB A                    B+29     04D
001295: 34,3221           03576                                    DIFFALT
001296: 34,3222           56302                           SR2      DDV                                   #  A SUB P                   B+31
001297: 34,3223           00005                                    04D                                   #                            B+2
001298: 34,3224           75406                           PUSH     SQRT                                  #     A SUB P/A SUB A          06D
001299: 34,3225           41275                           DMPR     DMP
001300: 34,3226           00007                                    06D
001301: 34,3227           00001                                    00D
001302: 34,3230           65272                           SL3R     PDDL                                  #  V SUB AV METERS/CS         B+7      08D
001303: 34,3231           00003                                    02D                                   #  R SUB A MAGNITUDE  B+29
001304: 34,3232           65301                           NORM     PDDL
001305: 34,3233           00047                                    X1
001306: 34,3234           02325                                    RTMU
001307: 34,3235           56342                           SR1      DDV                                   #  2MU  B+38
001308: 34,3236           65257                           SL*      PDDL                                  #     2 MU/R SUBAA    B+14     10D
001309: 34,3237           20174                                    0          -5,1
001310: 34,3240           00005                                    04D                                   #  ASUBA                     B+29
001311: 34,3241           65301                           NORM     PDDL
001312: 34,3242           00050                                    X2
001313: 34,3243           02325                                    RTMU
001314: 34,3244           56342                           SR1      DDV
001315: 34,3245           44257                           SL*      BDSU
001316: 34,3246           57604                                    0          -6,2                       #  2U/R - U/A   B+14 (METERS/CS)SQ
001317: 34,3247           63525                           PDDL     DSQ                                   #                                     10D
001318: 34,3250           00011                                    08D
001319: 34,3251           75421                           BDSU     SQRT
001320: 34,3252           47315                           PDVL     VXV                                   #  SQRT(MU(2/R SUB A-1/A SUB A)-VSUBA2)10D
001321: 34,3253           02265                                    UP1
001322: 34,3254           03542                                    UNVEC
001323: 34,3255           74256                           UNIT     VXSC
001324: 34,3256           00013                                    10D
001325: 34,3257           74315                           PDVL     VXSC
001326: 34,3260           03542                                    UNVEC
001327: 34,3261           00011                                    08D
001328: 34,3262           76455                           VAD      VSL1
001329: 34,3263           77626                           STADR
001330: 34,3264           74235                           STORE    VACT3
001331: 34,3265           77651                           VSU
001332: 34,3266           03512                                    VACT2


001334: 34,3267           36301                           STCALL   DELVEET2                              #  DELTA VCDH - REFERENCE COORDINATES
001335: 34,3270           03466                                    SUBEXIT
001336:


001338:                                                                                                  #  ..... COMPTGO   .....
001339:
001340:                                                                                                  #  SUBROUTINES USED
001341:
001342:                                                                                                  #        CLOKTASK
001343:                                                                                                  #        2PHSCHNG
001344:
001345: 35,2376                                           BANK     35
001346: 35,2000                                           SETLOC   CSI/CDH
001347: 35,2000                                           BANK
001348:
001349: 35,2376  E7,1463                                  EBANK=   RTRN
001350:
001351: 35,2376                                           COUNT*   $$/P3575
001352:
001353: 35,2376           00006        COMPTGO            EXTEND
001354: 35,2377           23463                           QXCH     RTRN
001355: 35,2400           34755                           CAF      ZERO
001356: 35,2401           55163                           TS       DISPDEX
001357: 35,2402           34752                           CAF      BIT2
001358: 35,2403           00004                           INHINT
001359: 35,2404           05203                           TC       WAITLIST
001360: 35,2405  E7,1453                                  EBANK=   WHICH
001361: 35,2405           02722 74067                     2CADR    CLOKTASK
001362:
001363: 35,2407           05327                           TC       2PHSCHNG
001364: 35,2410           40036                           OCT      40036
001365: 35,2411           05024                           OCT      05024
001366: 35,2412           13000                           OCT      13000
001367: 35,2413           01463                           TC       RTRN

End of include-file P32-P35,_P72-P75.agc.  Parent file is MAIN.agc


