
Source Code


000002:                                                                                                  ## Copyright:   Public domain.
000003:                                                                                                  ## Filename:    P40-P47.agc
000004:                                                                                                  ## Purpose:     The main source file for Luminary revision 069.
000005:                                                                                                  ##              It is part of the source code for the original release
000006:                                                                                                  ##              of the flight software for the Lunar Module's (LM) Apollo
000007:                                                                                                  ##              Guidance Computer (AGC) for Apollo 10. The actual flown
000008:                                                                                                  ##              version was Luminary 69 revision 2, which included a
000009:                                                                                                  ##              newer lunar gravity model and only affected module 2.
000010:                                                                                                  ##              This file is intended to be a faithful transcription, except
000011:                                                                                                  ##              that the code format has been changed to conform to the
000012:                                                                                                  ##              requirements of the yaYUL assembler rather than the
000013:                                                                                                  ##              original YUL assembler.
000014:                                                                                                  ## Reference:   pp. 759-788
000015:                                                                                                  ## Assembler:   yaYUL
000016:                                                                                                  ## Contact:     Ron Burkey <info@sandroid.org>.
000017:                                                                                                  ## Website:     www.ibiblio.org/apollo/index.html
000018:                                                                                                  ## Mod history: 2016-12-13 MAS  Created from Luminary 99.
000019:                                                                                                  ##              2016-12-15 MAS  Updated from comment-proofed Luminary 99 version.
000020:                                                                                                  ##              2017-01-21 HG   Transcribed
000021:                                                                                                  ##              2017-01-23 HG   Fix operand FIRSTIME -> FIRSTTME
000022:                                                                                                  ##              2017-01-28 RSB  Proofed comment text using octopus/prooferComments
000023:                                                                                                  ##                              and fixed errors found.
000024:                                                                                                  ##              2017-03-16 RSB  Comment-text fixes identified in 5-way
000025:                                                                                                  ##                              side-by-side diff of Luminary 69/99/116/131/210.
000026:                                                                                                  ##              2017-08-16 RSB  Fixed comment typo identified in AP11ROPE.
000027:                                                                                                  ##              2017-08-26 MAS  Fixed an incorrect label found while transcribing
000028:                                                                                                  ##                              Zerlina 56 (it was unreferenced so caused no errors).
000029:


000031:                                                                                                  #  PROGRAM DESCRIPTION  P40BOTH    DECEMBER 22, 1966
000032:                                                                                                  #  MOD 03 BY PETER ADLER           MARCH 3, 1967
000033:                                                                                                  #  CALLED VIA JOB FROM V37E
000034:
000035:                                                                                                  #  FUNCTIONAL DESCRIPTION
000036:
000037:                                                                                                  #           1)  TO COMPUTE A PREFERRED IMU ORIENTATION AND A PREFERRED VEHICLE ATTITUDE FOR A LM DPS
000038:                                                                                                  #               THRUSTING MANEUVER.
000039:


000041:
000042:                                                                                                  #           3)  TO DO THE VEHICLE MANEUVER TO THE THRUSTING ATTITUDE.
000043:
000044:                                                                                                  #           4)  TO CONTROL THE PGNCS DURING COUNTDOWN, IGNITION, THRUSTING, AND THRUST TERMINATION OF A
000045:                                                                                                  #               PGNCS CONTROLLED DPS MANEUVER.
000046:
000047:                                                                                                  #           5)  IN POSTBURN--ZERO RENDEZVOUS COUNTER, MAINTAIN VG CALCULATIONS FOR POSSIBLE RCS MANEUVER,
000048:                                                                                                  #                            SET MAXIMUM DEADBAND IN DAP, RESET STEERLAW CSTEER TO ZERO.
000049:
000050:                                                                                                  #           NOTE:  P42, WHICH IS IN THIS LOG SECTION, DOES THE SAME FOR AN APS BURN, AND P41 DOES 1-3 FOR
000051:                                                                                                  #                  RCS PLUS DISPLAYS PARAMETERS FOR MANUAL CONTROL.
000052:
000053:                                                                                                  #  SUBROUTINES USED
000054:
000055:                                                                                                  #           R02      IMU STATUS CHECK
000056:                                                                                                  #           S40.1    COMPUTATION OF THRUST DIRECTION
000057:                                                                                                  #           S40.13   LENGTH OF BURN
000058:                                                                                                  #           S40.2,3  PREFERRED IMU ORIENATTION
000059:                                                                                                  #           S40.8    X PRODUCT STEERING
000060:                                                                                                  #           S40.9    LAMBERT VTOGAIN
000061:                                                                                                  #           R60LEM   ATTITUDE MANEUVER
000062:                                                                                                  #           LEMPREC  EXTRAPOLATE STATE VECTOR
000063:                                                                                                  #           PREREAD  AVERAGE G, SERVICER
000064:                                                                                                  #           ALLCOAST DAP COASTING INITIALIZATION
000065:                                                                                                  #           CLOKTASK ERGO CLOCKJOB--COUNT DOWN
000066:                                                                                                  #           PHASCHNG, INTPRET, FLAGUP, FLAGDOWN, WAITLIST, LONGCALL, GOFLASH, GOFLASHR, GOPERF1, ALARM,
000067:                                                                                                  #           PRIOLARM, GOTOPOOH, ENDOFJOB, BANKCALL, SETMAXDB, SETMINDB, CHECKMM, FLATOUT, OUTFLAT,
000068:                                                                                                  #           KILLTASK, SGNAGREE, TPAGREE, ETC.
000069:
000070:                                                                                                  #  RESTARTS VIA GROUP 4
000071:
000072:                                                                                                  #  DISPLAYS
000073:
000074:                                                                                                  #           V50N25  203 A/P TO PGNCS, AUTO THROTTLE MODE, AUTO ATTITUDE CONTROL
000075:                                                                                                  #           V06N40  TTI, VG, DELTAVM (DISPLAYED ONCE/SECOND BY CLOKTASK)
000076:                                                                                                  #           V50N99  PLEASE PERFORM ENGINE ON ENABLE
000077:                                                                                                  #           V06N40  TG (TIME TO GO TO CUTOFF), VG, DELTAVM--ONCE/SECOND
000078:                                                                                                  #           V16N40  FINAL VALUES OF TG, VG, DELTAVM
000079:                                                                                                  #           V16N85  COMP OF VG (BODY AXES) FOR POSS. RCS MANUAL MANEUVER
000080:                                                                                                  #           V05N09  POSSIBLE ALARMS
000081:                                                                                                  #           V50N07  PLEASE SELECT P00
000082:


000084:                                                                                                  #           VIA R30
000085:
000086:                                                                                                  #           V06N44  HAPO, PERI, TFF
000087:                                                                                                  #           V06N35  TIME TO PERIGEE, HMS
000088:
000089:                                                                                                  #  ALARM OR ABORT EXIT MODES
000090:
000091:                                                                                                  #           PROGRAM ALARM, FLASHING DISPLAY OF ALARM CODE 1706 IF P40 SELECTED WITH DESCENT UNIT STAGED.
000092:                                                                                                  #           V34E (TERMINATE) IS THE ONLY RESPONSE ACCEPTED. TC GOTOPOOH.
000093:
000094:                                                                                                  #           PROGRAM ALARM, FLASH CODE 1703:  TIG LESS THAN 45 SECS AWAY.  V34E=  GOTOPOOH OR V33E=  SLIP
000095:                                                                                                  #           TIG BY 45 SECS.
000096:
000097:                                                                                                  #  ERASABLE INITIALIZATION
000098:                                                                                                  #  DEBRIS
000099:                                                                                                  #  OUTPUT
000100:
000101:                                                                                                  #           SEE SUBROUTINES E.G.:  S40.1, S40.2,3, S40.13, S40.8, S40.9, TRIMGIMB
000102:                                                                                                  #           XDELVFLG = 1 FOR EXT DELV COMPUTATION
000103:                                                                                                  #                    = 0 FOR AIMPT (LAMBERT) COMP
000104:
000105: 27,2271                                           COUNT*   $$/P40
000106: 27,2271  E7,1453                                  EBANK=   WHICH
000107:
000108: 36,3147                                           BANK     36
000109: 36,2000                                           SETLOC   P40S
000110: 36,2000                                           BANK
000111:
000112: 36,3147           05353        P40LM              TC       PHASCHNG
000113: 36,3150           04024                           OCT      04024
000114:
000115: 36,3151           33131                           CAF      P40ADRES                              #  INITIALIZATION FOR BURNBABY.
000116: 36,3152           55453                           TS       WHICH
000117:
000118: 36,3153           30106                           CA       FLGWRD10
000119: 36,3154           74737                           MASK     APSFLBIT
000120: 36,3155           10000                           CCS      A
000121: 36,3156           13722                           TCF      P40ALM
000122: 36,3157           04616                           TC       BANKCALL                              #  GO DO IMU STATUS CHECK ROUTINE.
000123: 36,3160           11175                           CADR     R02BOTH
000124:
000125: 36,3161           40111                           CS       DAPBOOLS                              #  INITIALIZE DVMON
000126: 36,3162           74737                           MASK     CSMDOCKD
000127: 36,3163           10000                           CCS      A
000128: 36,3164           32020                           CAF      THRESH1
000129: 36,3165           62021                           AD       THRESH3
000130: 36,3166           55251                           TS       DVTHRUSH
000131: 36,3167           34751                           CAF      FOUR
000132: 36,3170           55513                           TS       DVCNTR
000133:


000135: 36,3171           06036                           TC       INTPRET                               #  LOAD CONSTANTS FOR DPS BURN
000136: 36,3172           43175                           VLOAD    CLEAR                                 #  LOAD F, MDOT, TDECAY
000137: 36,3173           34001                                    FDPS
000138: 36,3174           02663                                    NOTHROTL
000139: 36,3175           03734                           STORE    F
000140: 36,3176           77735                           SLOAD
000141: 36,3177           26002                                    DPSVEX
000142: 36,3200           70476        P40IN              DCOMP    SR1
000143: 36,3201           37742                           STCALL   VEX                                   #  LOAD EXHAUST VELOCITY FOR TGO COMP.
000144: 36,3202           56271                                    S40.1                                 #  COMPUTES UT AND VGTIG
000145: 36,3203           77624                           CALL
000146: 36,3204           56436                                    S40.2,3                               #  COMPUTES PREFERRED IMU ORIENTATION
000147: 36,3205           77776                           EXIT
000148:
000149: 36,3206           00004                           INHINT
000150: 36,3207           04674                           TC       IBNKCALL
000151: 36,3210           40142                           CADR     PFLITEDB                              #  ZERO ATTITUDE ERRORS, SET DB TO ONE DEG.
000152:
000153: 36,3211           03213                           TC       P40SXT4
000154:
000155:
000156:                                                                                                  #                ***********************
000157: 36,3212           12124                           TCF      BURNBABY
000158:                                                                                                  #                ***********************
000159:
000160:
000161: 36,3213           00006        P40SXT4            EXTEND
000162: 36,3214           23142                           QXCH     P40/RET
000163: 36,3215           00003        P41MANU            RELINT
000164:
000165: 36,3216           05516                           TC       DOWNFLAG                              #  CLEAR 3AXISFLG -- R60 WILL USE VECPOINT.
000166: 36,3217           00124                           ADRES    3AXISFLG
000167:
000168: 36,3220           04616                           TC       BANKCALL
000169: 36,3221           54101                           CADR     R60LEM                                #  DO ATTITUDE MANEUVER ROUTINE
000170: 36,3222           01142                           TC       P40/RET
000171:
000172:
000173: 36,3223  E7,1460                                  EBANK=   TRKMKCNT
000174: 36,3223           30005        POSTBURN           CA       Z
000175: 36,3224           55163                           TS       DISPDEX
000176: 36,3225           00006                           EXTEND
000177: 36,3226           32055                           DCA      ACADN85
000178: 36,3227           53253                           DXCH     AVEGEXIT
000179: 36,3230           33743                           CAF      V16N40
000180: 36,3231           04616                           TC       BANKCALL
000181: 36,3232           20510                           CADR     GOFLASHR
000182: 36,3233           03256                           TC       TERM40
000183: 36,3234           13241                           TCF      TIGNOW
000184: 36,3235           03223                           TC       POSTBURN
000185:


000187: 36,3236           05353        P40PHS1            TC       PHASCHNG
000188: 36,3237           00014                           OCT      00014
000189: 36,3240           15155                           TCF      ENDOFJOB
000190:
000191: 36,3241           00004        TIGNOW             INHINT
000192: 36,3242           04674                           TC       IBNKCALL
000193: 36,3243           40153                           CADR     ZATTEROR
000194: 36,3244           04674                           TC       IBNKCALL
000195: 36,3245           40140                           CADR     SETMINDB
000196: 36,3246           00003                           RELINT
000197: 36,3247           33744                           CAF      V16N85B
000198: 36,3250           04616                           TC       BANKCALL
000199: 36,3251           20340                           CADR     REFLASHR
000200: 36,3252           03256                           TC       TERM40
000201: 36,3253           13256                           TCF      TERM40
000202: 36,3254           03247                           TC       -5
000203:
000204: 36,3255           13236                           TCF      P40PHS1
000205:
000206: 36,3256           00006        TERM40             EXTEND
000207: 36,3257           32104                           DCA      SERVCADR
000208: 36,3260           53253                           DXCH     AVEGEXIT
000209: 36,3261           34755                           CAF      ZERO
000210: 36,3262           55460                           TS       TRKMKCNT                              #       ZERO RENDZVS CNTERS
000211: 36,3263           30005                           CA       Z
000212: 36,3264           55163                           TS       DISPDEX
000213: 36,3265           00004                           INHINT
000214: 36,3266           04674                           TC       IBNKCALL
000215: 36,3267           40123                           CADR     RESTORDB
000216: 36,3270           00003                           RELINT
000217: 36,3271           06001                           TC       GOTOPOOH
000218:
000219: 36,3272  E7,1453                                  EBANK=   WHICH
000220: 36,3272                                           COUNT*   $$/P41
000221: 36,3272           33132        P41LM              CAF      P41ADRES                              #  INITIALIZATION FOR BURNBABY
000222: 36,3273           55453                           TS       WHICH
000223:
000224: 36,3274           04616                           TC       BANKCALL
000225: 36,3275           11175                           CADR     R02BOTH
000226:
000227: 36,3276           06036                           TC       INTPRET                               #  BOTH LM
000228: 36,3277           71214                           BON      DLOAD                                 #  IF NJETSFLAG IS SET, LOAD 2 JET F
000229: 36,3300           00700                                    NJETSFLG
000230: 36,3301           75305                                    P41FJET1
000231: 36,3302           34015                                    FRCS4                                 #  IF NJETSFLAG IS CLEAR, LOAD 4 JET F
000232:
000233: 36,3303           37734        P41FJET            STCALL   F
000234: 36,3304           75310                                    P41IN
000235: 36,3305           77745        P41FJET1           DLOAD
000236:


000238: 36,3306           34017                                    FRCS2
000239: 36,3307           03734                           STORE    F
000240:
000241: 36,3310           77624        P41IN              CALL
000242: 36,3311           56271                                    S40.1                                 #  BOTH
000243: 36,3312           77624        P41NORM            CALL
000244: 36,3313           56436                                    S40.2,3                               #  CALCULATE PREFERRED IMU ORIENTATION AND
000245: 36,3314           77776                           EXIT                                           #  SET PFRATFLG.
000246:
000247: 36,3315           00004                           INHINT
000248: 36,3316           04674                           TC       IBNKCALL
000249: 36,3317           40153                           CADR     ZATTEROR                              #  ZERO ATTITUDE ERRORS
000250: 36,3320           04674                           TC       IBNKCALL
000251: 36,3321           40140                           CADR     SETMINDB                              #  SET 0.3 DEGREE DEADBAND
000252: 36,3322           03213                           TC       P40SXT4
000253:
000254: 36,3323           06036                           TC       INTPRET
000255: 36,3324           45175                           VLOAD    CALL                                  #  TRANSFORM VELOCITY-TO-BE-GAINED AT TIG
000256: 36,3325           03705                                    VGTIG                                 #  FROM REFERENCE COORDINATES TO LM BODY-
000257: 36,3326           57156                                    S41.1                                 #  AXIS COORDINATES FOR V16N85 DISPLAY.
000258: 36,3327           03500                           STORE    VGBODY                                #  (SCALED AT 2 (+7) METERS/CENTISECOND)
000259: 36,3330           77776                           EXIT
000260:
000261: 36,3331           33744                           CAF      V16N85B
000262: 36,3332           04616                           TC       BANKCALL
000263: 36,3333           20324                           CADR     GODSPRET
000264:
000265:
000266: 36,3334           35017                           CAF      PRIO5
000267: 36,3335           55163                           TS       DISPDEX                               #  FOR SAFETY ONLY
000268: 36,3336           05105                           TC       FINDVAC
000269: 36,3337  E7,1704                                  EBANK=   VGPREV
000270: 36,3337           03361 74067                     2CADR    DYNMDISP
000271:
000272: 36,3341           05327                           TC       2PHSCHNG
000273: 36,3342           00076                           OCT      00076                                 #  GROUP 6 RESTARTS AT REDO6.7
000274: 36,3343           04024                           OCT      04024                                 #  GROUP 4 RESTARTS HERE
000275:
000276:                                                                                                  #                ***********************
000277: 36,3344           12133                           TCF      B*RNB*B*
000278:                                                                                                  #                ***********************
000279:
000280:
000281: 36,3345           34777        BLNKWAIT           CAF      1SEC
000282: 36,3346           04616                           TC       BANKCALL
000283: 36,3347           01735                           CADR     DELAYJOB
000284:
000285: 36,3350           31163        REDO6.7            CA       DISPDEX                               #  ON A RESTART, DO NOT PUT UP DISPLAY IF
000286: 36,3351           64752                           AD       TWO                                   #  BLANKING (BETWEEN TIG-35 AND TIG-30)
000287:
000288:                                                                                                  #                ***********************
000289:


000291:
000292: 36,3352           00006                           EXTEND
000293: 36,3353           13345                           BZF      BLNKWAIT
000294:
000295: 36,3354           33744                           CAF      V16N85B
000296: 36,3355           04616                           TC       BANKCALL
000297: 36,3356           20324                           CADR     GODSPRET
000298:
000299: 36,3357           35017                           CAF      PRIO5
000300: 36,3360           05146                           TC       PRIOCHNG
000301:
000302: 36,3361           31163        DYNMDISP           CA       DISPDEX                               #  A NON-POSITIVE DISPDEX INDICATES PAST
000303: 36,3362           00006                           EXTEND                                         #  TIG-35, SO SERVICER WILL BE DOING THE
000304: 36,3363           65155                           BZMF     ENDOFJOB                              #  UPDATING OF NOUN 85. STOP DYNMDISP.
000305: 36,3364           06036                           TC       INTPRET
000306: 36,3365           45175                           VLOAD    CALL
000307: 36,3366           03705                                    VGPREV
000308: 36,3367           57156                                    S41.1
000309: 36,3370           03500                           STORE    VGBODY
000310: 36,3371           77776                           EXIT
000311: 36,3372           34777                           CAF      1SEC
000312: 36,3373           04616                           TC       BANKCALL
000313: 36,3374           01735                           CADR     DELAYJOB
000314: 36,3375           13361                           TCF      DYNMDISP
000315:
000316: 36,3376           06036        CALCN85            TC       INTPRET
000317: 36,3377           77624                           CALL
000318: 36,3400           75611                                    UPDATEVG
000319: 36,3401           45175                           VLOAD    CALL
000320: 36,3402           03705                                    VGPREV
000321: 36,3403           57156                                    S41.1
000322: 36,3404           03500                           STORE    VGBODY
000323: 36,3405           77776                           EXIT
000324: 36,3406           04635                           TC       POSTJUMP
000325: 36,3407           77525                           CADR     SERVEXIT
000326:
000327: 36,3410                                           COUNT*   $$/P42
000328: 36,3410  E7,1453                                  EBANK=   WHICH
000329:
000330: 36,3410           05353        P42LM              TC       PHASCHNG
000331: 36,3411           04024                           OCT      04024
000332:
000333: 36,3412           33133                           CAF      P42ADRES                              #  INITIALIZATION FOR BURNBABY.
000334: 36,3413           55453                           TS       WHICH
000335:
000336: 36,3414           40106                           CS       FLGWRD10
000337: 36,3415           74737                           MASK     APSFLBIT
000338: 36,3416           10000                           CCS      A
000339: 36,3417           03722                           TC       P40ALM
000340: 36,3420           04616                           TC       BANKCALL
000341:


000343: 36,3421           11175                           CADR     R02BOTH
000344: 36,3422           36000                           CAF      THRESH2                               #  INITIALIZE DVMON
000345: 36,3423           55251                           TS       DVTHRUSH
000346: 36,3424           34751                           CAF      FOUR
000347: 36,3425           55513                           TS       DVCNTR
000348:
000349: 36,3426           06036                           TC       INTPRET
000350: 36,3427           77214                           SET      VLOAD                                 #  LOAD FAPS, MDOTAPS, AND ATDECAY INTO
000351: 36,3430           01072                                    AVFLAG                                #  F, MDOT, AND TDECAY BY VECTOR LOAD.
000352: 36,3431           34007                                    FAPS
000353: 36,3432           03734                           STORE    F
000354: 36,3433           52135                           SLOAD    GOTO
000355: 36,3434           26001                                    APSVEX
000356: 36,3435           75200                                    P40IN
000357:
000358: 36,3436  E7,1453                                  EBANK=   WHICH
000359:
000360: 36,3436                                           COUNT*   $$/P47
000361: 36,3436           04616        P47LM              TC       BANKCALL
000362: 36,3437           11175                           CADR     R02BOTH
000363: 36,3440           06036                           TC       INTPRET
000364: 36,3441           77624                           CALRB
000365: 36,3442           27577                                    MIDTOAV2
000366:
000367: 36,3443           30155                           CA       MPAC       +1
000368: 36,3444           05173                           TC       TWIDDLE
000369: 36,3445           03447                           ADRES    STARTP47
000370:
000371: 36,3446           15155                           TCF      ENDOFJOB
000372:
000373: 36,3447           05353        STARTP47           TC       PHASCHNG
000374: 36,3450           05014                           OCT      05014
000375: 36,3451           77777                           OCT      77777
000376:
000377: 36,3452           00006                           EXTEND
000378: 36,3453           33747                           DCA      ACADN83
000379: 36,3454           53253                           DXCH     AVEGEXIT
000380: 36,3455           34736                           CAF      PRIO20
000381: 36,3456           05105                           TC       FINDVAC
000382: 36,3457  E7,1620                                  EBANK=   DELVIMU
000383: 36,3457           03513 74067                     2CADR    P47BODY
000384: 36,3461           12333                           TCF      REDO4.2                               #  CHECKS PHASE 5 AND GOES TO PREREAD
000385:                                                                                                  #  SEE TIG-30 IN BURNBABY.
000386:
000387: 36,3462           06036        CALCN83            TC       INTPRET
000388: 36,3463           53375                           VLOAD    VAD
000389: 36,3464           03500                                    DELVCTL
000390: 36,3465           03525                                    DELVREF
000391: 36,3466           03654                           STORE    DELVSIN                               #  TEMP STORAGE FOR RESTARTS
000392:


000394: 36,3467           77624                           CALL
000395: 36,3470           57156                                    S41.1
000396: 36,3471           03621                           STORE    DELVIMU
000397: 36,3472           77776                           EXIT
000398: 36,3473           05353                           TC       PHASCHNG
000399: 36,3474           10035                           OCT      10035                                 #  REREADAC AND HERE
000400:
000401: 36,3475           06036                           TC       INTPRET
000402: 36,3476           77775                           VLOAD
000403: 36,3477           03654                                    DELVSIN
000404: 36,3500           03500                           STORE    DELVCTL
000405: 36,3501           77776                           EXIT
000406:
000407: 36,3502           04635                           TC       POSTJUMP
000408: 36,3503           77525                           CADR     SERVEXIT
000409:
000410: 36,3504           33745        P47BOD             CAF      V1683
000411: 36,3505           04616                           TC       BANKCALL
000412: 36,3506           20510                           CADR     GOFLASHR
000413: 36,3507           06001                           TC       GOTOPOOH
000414: 36,3510           06001                           TC       GOTOPOOH
000415:
000416: 36,3511           13513                           TCF      P47BODY
000417:
000418: 36,3512           13236                           TCF      P40PHS1
000419:
000420: 36,3513           06036        P47BODY            TC       INTPRET
000421: 36,3514           77775                           VLOAD
000422: 36,3515           06424                                    HI6ZEROS
000423: 36,3516           03621                           STORE    DELVIMU
000424: 36,3517           03500                           STORE    DELVCTL
000425: 36,3520           77776                           EXIT
000426: 36,3521           03504                           TC       P47BOD
000427:
000428: 36,3522                                           COUNT*   $$/P40
000429: 36,3522           31515        IMPLBURN           CA       TGO        +1
000430: 36,3523           03710                           TC       GETDT
000431: 36,3524           05173                           TC       TWIDDLE
000432: 36,3525           03542                           ADRES    ENGOFTSK
000433: 36,3526           05516                           TC       DOWNFLAG                              #  TURN OFF IGNFLAG
000434: 36,3527           00153                           ADRES    IGNFLAG
000435: 36,3530           05516                           TC       DOWNFLAG                              #  TURN OFF ASTNFLG
000436: 36,3531           00154                           ADRES    ASTNFLAG
000437: 36,3532           05516                           TC       DOWNFLAG                              #  TURN OFF IMPULSW
000438: 36,3533           00044                           ADRES    IMPULSW
000439: 36,3534           05353                           TC       PHASCHNG                              #  RESTART PROTECT ENGOFTSK (ENGINOFF)
000440: 36,3535           40114                           OCT      40114
000441:
000442: 36,3536           05221                           TC       FIXDELAY                              #  WAIT HALF A SECOND
000443: 36,3537           00062                           DEC      50         B-14
000444:


000446: 36,3540           02656                           TC       NOULLAGE                              #  TURN OFF ULLAGE
000447:
000448: 36,3541           05261                           TC       TASKOVER
000449:
000450: 36,3542           04674        ENGOFTSK           TC       IBNKCALL                              #  THIS CODING ALLOWS ENGINOFF ET AL TO BE
000451: 36,3543           75545                           CADR     ENGINOFF                              #  USED BOTH BY WAITLIST AND BY TC IBNKCALL
000452: 36,3544           05261                           TC       TASKOVER
000453:
000454: 36,3545           34644        ENGINOFF           CAF      PRIO12                                #  MUST BE LOWER PRIO THAN CLOCKJOB
000455: 36,3546           05105                           TC       FINDVAC
000456: 36,3547  E7,1460                                  EBANK=   TRKMKCNT
000457: 36,3547           03223 74067                     2CADR    POSTBURN
000458:
000459: 36,3551           34753        ENGINOF2           CAF      BIT1
000460: 36,3552           05203                           TC       WAITLIST
000461: 36,3553  E6,1420                                  EBANK=   OMEGAQ
000462: 36,3553           03606 74066                     2CADR    COASTSET
000463: 36,3555           40103        ENGINOF1           CS       FLAGWRD7                              #  SET THE IDLE BIT.
000464: 36,3556           74745                           MASK     IDLEFBIT
000465: 36,3557           26103                           ADS      FLAGWRD7
000466:
000467: 36,3560           02656                           TC       NOULLAGE
000468:
000469: 36,3561           00006        ENGINOF4           EXTEND
000470: 36,3562           30025                           DCA      TIME2
000471: 36,3563           53345                           DXCH     TEVENT
000472:
000473: 36,3564           44745        ENGINOF3           CS       ENGONBIT                              #  INSURE ENGONFLG IS CLEAR.
000474: 36,3565           70101                           MASK     FLAGWRD5
000475: 36,3566           54101                           TS       FLAGWRD5
000476: 36,3567           44355                           CS       PRIO30                                #  ENGINOF3 IS USED AS A PRE-ENGINE ARM
000477: 36,3570           00006                           EXTEND                                         #  SUBROUTINE.
000478: 36,3571           02011                           RAND     DSALMOUT
000479: 36,3572           64736                           AD       PRIO20                                #  TURN OFF THE ENGINE - DPS OR APS
000480: 36,3573           00006                           EXTEND
000481: 36,3574           01011                           WRITE    DSALMOUT
000482:
000483: 36,3575           40111                           CS       DAPBOOLS                              #  TURN OFF TRIM GIMBAL
000484: 36,3576           74736                           MASK     USEQRJTS
000485: 36,3577           26111                           ADS      DAPBOOLS
000486:
000487: 36,3600           44737                           CS       HIRTHROT                              #  ZERO AUTO-THROTTLE WHENEVER THE ENGINE
000488: 36,3601           54055                           TS       THRUST                                #  IS TURNED OFF.
000489: 36,3602           34750                           CAF      BIT4                                  #  THE HARDWARE DOES SO ONLY WHEN THE
000490: 36,3603           00006                           EXTEND                                         #  ENGINE IS DISARMED.
000491: 36,3604           05014                           WOR      CHAN14
000492:
000493: 36,3605           04707                           TC       ISWRETRN
000494:


000496: 36,3606           04674        COASTSET           TC       IBNKCALL                              #  DO DAP COASTING INITIALIZATION
000497: 36,3607           40204                           CADR     ALLCOAST
000498: 36,3610           05261                           TC       TASKOVER
000499:
000500: 36,3611  E6,1420                                  EBANK=   OMEGAQ
000501: 36,3611           45020        UPDATEVG           STQ      CALL
000502: 36,3612           03663                                    QTEMP1
000503: 36,3613           56472                                    S40.8                                 #  X-PRODUCT STEERING
000504: 36,3614           43014                           BON      BOFSET
000505: 36,3615           01307                                    XDELVFLG
000506: 36,3616           03663                                    QTEMP1
000507: 36,3617           01045                                    CYCLESW
000508: 36,3620           03663                                    QTEMP1
000509: 36,3621           77776                           EXIT
000510:
000511: 36,3622           10755                           CCS      PHASE2
000512: 36,3623           13636                           TCF      ENDSTEER                              #  GROUP 2 ACTIVE --> LAMBERT STILL GOING.
000513:
000514: 36,3624           34737                           CAF      PRIO10
000515: 36,3625           00004                           INHINT
000516: 36,3626           05105                           TC       FINDVAC
000517: 36,3627  E7,1713                                  EBANK=   VG
000518: 36,3627           02745 56067                     2CADR    S40.9                                 #  LAMBERT VTOGAIN
000519:
000520: 36,3631           05327                           TC       2PHSCHNG
000521: 36,3632           00172                           OCT      00172                                 #  2.17SPOT FOR S40.9
000522: 36,3633           10035                           OCT      10035                                 #  HERE AND REREADAC AFTER RESTART
000523:
000524: 36,3634           05516                           TC       DOWNFLAG
000525: 36,3635           00043                           ADRES    CYCLESW                               #  VG CALCULATION OMITTED
000526: 36,3636           06036        ENDSTEER           TC       INTPRET
000527: 36,3637           77650                           GOTO
000528: 36,3640           03663                                    QTEMP1
000529:
000530: 36,3641           06036        STEERING           TC       INTPRET
000531:
000532: 36,3642           77624                           CALL
000533: 36,3643           75611                                    UPDATEVG
000534: 36,3644           77776                           EXIT
000535:
000536: 36,3645  E7,1513                                  EBANK=   DVCNTR
000537: 36,3645           00004        NSTEER             INHINT
000538: 36,3646           35016                           CA       EBANK7
000539: 36,3647           54003                           TS       EBANK
000540:                                                                                                  #  PHASE CHANGE IN SERVERICER NEEDED HERE *********************************
000541: 36,3650           40076                           CS       FLAGWRD2                              #  CHECK IMPULSE SWITCH.  IT IS SET EITHER
000542: 36,3651           74743                           MASK     IMPULBIT                              #  BY S40.13 IF TBURN<6 SECS OR BY S40.8 IF
000543: 36,3652           10000                           CCS      A                                     #  STEERING IS ALMOST DONE.
000544:
000545: 36,3653           13660                           TCF      +5                                    #  IMPULSW = 0    EXIT
000546:


000548: 36,3654           40103                           CS       FLAGWRD7                              #  IMPULSW = 1    WHY?  CHECK IDLEFLAG
000549: 36,3655           74745                           MASK     IDLEFBIT                              #      (IDLEFLAG = 0 --> DVMON ON)
000550: 36,3656           10000                           CCS      A
000551: 36,3657           13662                           TCF      +3                                    #  DVMON ON-->THRUSTING-->IMPULSW VIA S40.8
000552: 36,3660           04635                           TC       POSTJUMP                              #  DVMON OFF-->IMPULSW ON VIA S40.13-->EXIT
000553: 36,3661           77525                           CADR     SERVEXIT
000554:
000555: 36,3662           04674                           TC       IBNKCALL
000556: 36,3663           40165                           CADR     STOPRATE
000557:
000558: 36,3664           05516                           TC       DOWNFLAG                              #  TURN OFF IMPULSW
000559: 36,3665           00044                           ADRES    IMPULSW
000560:
000561: 36,3666           05504                           TC       UPFLAG
000562: 36,3667           00161                           ADRES    IDLEFLAG                              #  TURN OFF DVMON
000563:
000564: 36,3670           00004                           INHINT
000565: 36,3671           00006                           EXTEND
000566: 36,3672           31440                           DCA      TIG
000567: 36,3673           52155                           DXCH     MPAC
000568: 36,3674           00006                           EXTEND
000569: 36,3675           40025                           DCS      TIME2
000570: 36,3676           20155                           DAS      MPAC
000571: 36,3677           07256                           TC       TPAGREE
000572: 36,3700           30155                           CAE      MPAC       +1
000573: 36,3701           03710                           TC       GETDT
000574: 36,3702           05173                           TC       TWIDDLE
000575: 36,3703           03542                           ADRES    ENGOFTSK
000576: 36,3704           05327                           TC       2PHSCHNG
000577: 36,3705           40114                           OCT      40114                                 #  ENGOFTSK (ENGINOFF)
000578: 36,3706           00035                           OCT      00035                                 #  SERVICER--REREADAC
000579:
000580: 36,3707           15155                           TCF      ENDOFJOB
000581:
000582: 36,3710           10000        GETDT              CCS      A
000583: 36,3711           13714                           TCF      +3
000584: 36,3712           13714                           TCF      +2
000585: 36,3713           34755                           CAF      ZERO
000586: 36,3714           64753                           AD       ONE
000587: 36,3715           56001                           XCH      L
000588: 36,3716           34755                           CAF      ZERO
000589: 36,3717           53515                           DXCH     TGO
000590: 36,3720           31515                           CA       TGO        +1
000591: 36,3721           00002                           TC       Q
000592: 36,3722           05567        P40ALM             TC       ALARM                                 #  ASTRONAUT DOESN'T AGREE WITH STAGE
000593: 36,3723           01706                           OCT      01706                                 #  VERIFY DISCRETE.  HE HAS SELECTED P40,
000594: 36,3724           35006                           CAF      V05N09                                #  BUT THE DAP THINKS THAT THE DESCENT UNIT
000595: 36,3725           04616                           TC       BANKCALL                              #  IS GONE--A SITUATION THAT WOULD MAKE A
000596: 36,3726           20351                           CADR     GOFLASH                               #  DPS BURN EXCEEDINGLY DIFFICULT.
000597:


000599: 36,3727           16001                           TCF      GOTOPOOH                              #  V34E  TERMINATE
000600: 36,3730           13724                           TCF      -4                                    #  V33E  PROCEED  (ILLEGAL)
000601: 36,3731           13724                           TCF      -5                                    #        RECYCLE  (ILLEGAL)
000602:
000603:                                                                                                  #  ************************************************************************
000604:
000605: 36,3732           00000        SEC15DP            OCT      00000                                 #  DON'T SEPARATE
000606: 36,3733           02734        SEC15              DEC      1500       B-14                       #  DON'T SEPARATE
000607: 36,3734           00000 05670  SEC30DP            2DEC     3000       B-28
000608: 36,3736           00000        SEC45DP            OCT      00000                                 #  DON'T MOVE FROM JUST BEFORE SEC45
000609: 36,3737           10624        SEC45              DEC      4500       B-14
000610: 36,3740           00000        5SECDP             OCT      00000                                 #  DON'T MOVE FROM JUST BEFORE 5SEC
000611: 36,3741           00764        5SEC               DEC      500        B-14
000612: 36,3742           05050        26SECS             DEC      2600       B-14
000613: 36,3743           04050        V16N40             VN       1640
000614: 36,3744           04125        V16N85B            VN       1685
000615: 36,3745           04123        V1683              VN       1683
000616: 36,3746     4777               SEC01              =        1SEC
000617: 36,3746  36,2054               ACADN85            =        P41TABLE   +2
000618:
000619: 36,3746  E7,1620                                  EBANK=   DELVIMU
000620: 36,3746           03462 74067  ACADN83            2CADR    CALCN83
000621:                                                                                                  #  *************************************************
000622:


000624:                                                                                                  #  PROGRAM DESCRIPTION S40.1       DATE15NOV66
000625:                                                                                                  #  MOD N02         LOG SECTION  P40-P47
000626:                                                                                                  #  MOD BY ZELDIN AND ADAPTED BY TALAYCO
000627:                                                                                                  #  FUNCTIONAL DESCRIPTION
000628:                                                                                                  #           COMPUTE INITIAL THRUST DIRECTION(UT) AND INITIAL VALUE OF VG
000629:                                                                                                  #           VECTOR(VGTIG).
000630:                                                                                                  #  CALLING SEQUENCE
000631:                                                                                                  #         L CALL
000632:                                                                                                  #       L+1        S40.1
000633:                                                                                                  #  NORMAL EXIT MODE
000634:                                                                                                  #           AT L+2 OF CALLING SEQUENCE (GOTO L+2)  NORMAL RETURN OR
000635:                                                                                                  #           ERROR RETURN IF NOSOFLAG =1
000636:                                                                                                  #  SUBROUTINES CALLED
000637:                                                                                                  #           LEMPREC
000638:                                                                                                  #           INITVEL
000639:                                                                                                  #           CALCGRAV
000640:                                                                                                  #           MIDGIM
000641:                                                                                                  #  ALARM OR ABORT EXIT MODES
000642:                                                                                                  #       L+2 OF CALLING SEQUENCE,UNSOLVABLE CONIC IF NOSOFLAG=1
000643:                                                                                                  #  ERASABLE INITIALIZATION REQUIRED
000644:                                                                                                  #                  WEIGHT/G  ANTICIPATED VEHICLE MASS         DP  B16KGM
000645:                                                                                                  #           XDELVFLG       1=DELTA-V MANEUVER,0=AIMPT STEER
000646:                                                                                                  #            F         THRUST FOR ENGINE USED
000647:                                                                                                  #        IF DELTA-V MANEUVER
000648:                                                                                                  #           DELVSIN   SPECIFIED DELTA-V REQUIRED IN
000649:                                                                                                  #                     INERTIAL COORDS. OF ACTIVE VEHICLE
000650:                                                                                                  #                     AT TIME OF IGNITION                 VECTOR B7M/CS
000651:                                                                                                  #           DELVSAB   MAG. OF DELVSIN                     DP     B7M/CS
000652:                                                                                                  #           RTIG      POSITION AT TIME OF IGNITION       VECTOR B29M
000653:                                                                                                  #           VTIG      VELOCITY AT TIME OF IGNITION       VECTOR B7M/CS
000654:                                                                                                  #        IF AIMPT STEER
000655:                                                                                                  #           TIG       TIME OF IGNITION                    DP     B28CS
000656:                                                                                                  #           RTARG     POSITION TARGET TIME               VECTOR B29M
000657:                                                                                                  #           CSTEER    C FOR STEER LAW                     DP     B2
000658:                                                                                                  #           DLTARG    TARGET TIME-IGNITION TIME          DP     B28CS
000659:                                                                                                  #  OUTPUT
000660:                                                                                                  #        UT           DESIRED THRUST DIRECTION            VECT. B2M/(CS.CS)
000661:                                                                                                  #        VGTIG        INITIAL VALUE OF VELOCITY
000662:                                                                                                  #                     TO BE GAINED (INERT. COORD.)        VECTOR B7M/CS
000663:                                                                                                  #        DELVLVC      VGTIG IN LOC. VERT. COORDS.                B7M/CS
000664:                                                                                                  #           BDT   V REQUIRED AT TIG -V REQUIRED AT (TIG-2SEC)
000665:                                                                                                  #           -GDT  FOR S40.13                                   VECT  B7M/CS
000666:                                                                                                  #        RTIG         CALC IN S40.1B(AIMPT) FOR S40.2,3  VECTOR B29M
000667:                                                                                                  #                     POSITION AT TIME OF IGNITION
000668:                                                                                                  #  DEBRIS      QTEMP1
000669:                                                                                                  #        MPAC,QPRET
000670:                                                                                                  #        PUSHLIST
000671:
000672: 14,2347                                           BANK     14
000673: 27,2000                                           SETLOC   P40S1
000674: 27,2000                                           BANK
000675:


000677: 27,2271                                           COUNT*   $$/S40.1
000678: 27,2271           44014        S40.1              CLEAR    STQ
000679: 27,2272           03264                                    FIRSTFLG
000680: 27,2273           03630                                    QTEMP
000681: 27,2274           77614        DELVTEST           BOFF
000682: 27,2275           01347                                    XDELVFLG
000683: 27,2276           56363                                    S40.1B
000684: 27,2277           77201        CALCTHET           SETPD    VLOAD
000685: 27,2300           00001                                    0
000686: 27,2301           03646                                    VTIG
000687: 27,2302           02335                           STORE    VINIT
000688: 27,2303           53435                           VXV      UNIT
000689: 27,2304           03640                                    RTIG
000690: 27,2305           27677                           STOVL    UT                                    #  UP IN UT
000691: 27,2306           03640                                    RTIG
000692: 27,2307           02327                           STORE    RINIT
000693: 27,2310           65236                           VSQ      PDDL
000694: 27,2311           00045                                    36D
000695: 27,2312           56205                           DMP      DDV
000696: 27,2313           16435                                    THETACON
000697: 27,2314           41205                           DMP      DMP
000698: 27,2315           03662                                    DELVSAB
000699: 27,2316           01245                                    WEIGHT/G
000700: 27,2317           77671                           DDV
000701: 27,2320           03734                                    F
000702: 27,2321           24017                           STOVL    14D
000703: 27,2322           03654                                    DELVSIN
000704:
000705: 27,2323           74241                           DOT      VXSC
000706: 27,2324           03677                                    UT
000707: 27,2325           03677                                    UT
000708: 27,2326           41552                           VSL2     PUSH                                  #  (DELTAV.UP)UP SCALED AT 2(+7) P.D.L. 0
000709: 27,2327           65245                           BVSU     PDDL                                  #  DELTA VP SCALED AT 2(+7) P.D.L. 6
000710: 27,2330           03654                                    DELVSIN
000711: 27,2331           00017                                    14D
000712: 27,2332           63356                           SIN      PDVL
000713: 27,2333           00007                                    6D
000714: 27,2334           53435                           VXV      UNIT
000715: 27,2335           03677                                    UT
000716: 27,2336           45561                           VXSC     STADR
000717: 27,2337           50072                           STOVL    VGTIG                                 #  UNIT(VPXUP)SIN(THETAT/2) IN VGTIG.
000718: 27,2340           65256                           UNIT     PDDL                                  #  UNIT(DELTA VP) IN P.D.L. 6
000719: 27,2341           00017                                    14D
000720: 27,2342           74346                           COS      VXSC
000721: 27,2343           74255                           VAD      VXSC
000722: 27,2344           03705                                    VGTIG
000723: 27,2345           00045                                    36D
000724: 27,2346           53352                           VSL2     VAD
000725: 27,2347           77626                           STADR
000726: 27,2350           74072                           STORE    VGTIG                                 #  VG IGNITION SCALED AT 2(+7) M/CS
000727:


000729: 27,2351           77656                           UNIT
000730: 27,2352           27677                           STOVL    UT                                    #  THRUST DIRECTION SCALED AT 2(+1)
000731: 27,2353           03705                                    VGTIG
000732: 27,2354           45006                           PUSH     CALL
000733: 27,2355           20021                                    GET.LVC                               #  VGTIG IN LV COOR AT 2(+7) M/CS IN DELVLVC
000734: 27,2356           77775                           VLOAD
000735: 27,2357           06424                                    ZEROVECS
000736: 27,2360           03671                           STORE    BDT
000737: 27,2361           77650                           GOTO
000738: 27,2362           03630                                    QTEMP
000739: 27,2363           77745        S40.1B             DLOAD
000740: 27,2364           03440                                    TIG
000741: 27,2365           00041                           STORE    TDEC1
000742: 27,2366           77621                           BDSU
000743: 27,2367           03627                                    TPASS4
000744: 27,2370           37450                           STCALL   DELLT4                                #  INTERCEPT TIME - TIG.
000745: 27,2371           27057                                    LEMPREC
000746: 27,2372           40375                           VLOAD    SETPD                                 #  LOAD STATE VECTOR AT TIG FOR INITVEL.
000747: 27,2373           00001                                    RATT
000748: 27,2374           00001                                    0
000749: 27,2375           03640                           STORE    RTIG
000750: 27,2376           26327                           STOVL    RINIT
000751: 27,2377           00007                                    VATT
000752: 27,2400           03646                           STORE    VTIG
000753: 27,2401           02335                           STORE    VINIT
000754: 27,2402           65345                           DLOAD    PDDL                                  #  NUMIT = 0
000755: 27,2403           06424                                    ZEROVECS
000756: 27,2404           16431                                    EPS1
000757: 27,2405           43214                           BOFF     DAD
000758: 27,2406           03745                                    NORMSW
000759: 27,2407           56411                                    SMALLEPS
000760: 27,2410           16433                                    EPS2                                  #  EPSILON4 = 10 DEGREES OR 45 DEGREES.
000761: 27,2411           66006        SMALLEPS           PUSH     SXA,1
000762: 27,2412           03375                                    RTX1
000763: 27,2413           45134                           SXA,2    CALL
000764: 27,2414           03376                                    RTX2
000765: 27,2415           22000                                    INITVEL
000766: 27,2416           41575                           VLOAD    PUSH
000767: 27,2417           03366                                    DELVEET3                              #  VGTIG = VR - VN.
000768: 27,2420           03705                           STORE    VGTIG
000769: 27,2421           77656                           UNIT                                           #  UT = UNIT (VGTIG)
000770: 27,2422           17677                           STODL    UT
000771: 27,2423           00045                                    36D
000772: 27,2424           37662                           STCALL   VGDISP                                #  CONVERT VGTIG (IN PUSHLIST ) TO LOCAL
000773: 27,2425           20021                                    GET.LVC                               #  VERTICAL COORDINATES.
000774: 27,2426           77650                           GOTO
000775: 27,2427           03630                                    QTEMP
000776:
000777: 27,2430           00707 03434  EPS1               2DEC*    2.777777778 E-2*                       #  10 DEGREES AT 1 REVOLUTION.
000778:


000780: 27,2432           03070 34344  EPS2               2DEC*    9.722222222 E-2*                       #  35 DEGREES AT 1 REVOLUTION.
000781: 27,2434           00024 13714  THETACON           2DEC     .31830989  B-8
000782:


000784:                                                                                                  #  SUBROUTINE NAME: S40.2,3        MOD. NO. 3 DATE: APRIL 4, 1967
000785:
000786:                                                                                                  #  MODIFICATION BY: JONATHAN D. ADDELSTON (ADAMS ASSOCIATES)
000787:
000788:                                                                                                  #  MOD. NO. 4:  JULY 18, 1967:  PETER ADLER (MIT/IL)
000789:
000790:                                                                                                  #  MOD. NO. 5:  OCTOBER 18, 1967:  PETER ADLER (MIT/IL)
000791:
000792:                                                                                                  #  ORIGINALLY BY: SAYDEAN ZELDIN (MIT INSTRUMENTATION LAB) AND RICHARD TALAYCO (SYSTEM DEVELOPMENT CORP)
000793:
000794:                                                                                                  #  S40.2,3 COMPUTES "POINTVSM" WHICH IS THE HALF-UNIT DESIRED THRUST VECTOR IN STABLE-MEMBER COORDINATES FROM "UT"
000795:                                                                                                  #  WHICH IS THE SAME VECTOR IN REFERENCE COORDINATES.  IT DETERMINES THE CORRECT VALUES FOR "SCAXIS" USING THE +X
000796:                                                                                                  #  AXIS FOR DPS, APS, AND RCS BURNS.  THE "WINGS-LEVEL HEADS-UP" LM ORIENTATION IS THEN COMPUTED IN REFERENCE
000797:                                                                                                  #  COORDINATES.  THESE VECTORS ALSO DEFINE THE "PREFERRED IMU ORIENTATION".  UPON COMPLETION OF THIS CALCULATION,
000798:                                                                                                  #  THE "PREFERRED ATTITUDE COMPUTED" FLAG IS SET (PFRATFLG).
000799:
000800:
000801:                                                                                                  #  CALLING SEQUENCE:
000802:                                                                                                  #                                          L        CALL                   INTERPRETIVE CALL.
000803:                                                                                                  #                                          L +1            S40.2,3
000804:                                                                                                  #                                          L +2    (RETURN)                GIMBAL ANGLE VECTOR IN MPAC.
000805:
000806:                                                                                                  #  SUBROUTINES CALLED:  NONE.
000807:
000808:                                                                                                  #  NORMAL RETURN:  L +2 (SEE CALLING SEQUENCE ABOVE).
000809:
000810:                                                                                                  #  ALARM/ABORT MODES:  NONE.
000811:
000812:                                                                                                  #  INPUT:
000813:
000814:                                                                                                  #           1. REFSMMAT            MATRIX FROM REFERENCE TO STABLE-MEMBER COORDINATES SCALED AT 2.
000815:                                                                                                  #           2. UT                  HALF-UNIT DESIRED THRUST DIRECTION.
000816:                                                                                                  #           3. RTIG                POSITION AT TIG IN REFERENCE COORDINATES.
000817:
000818:                                                                                                  #  OUTPUT:
000819:
000820:                                                                                                  #           1. : XSCREF :          WINGS-LEVEL HEADS-UP LM ORIENTATION
000821:                                                                                                  #              : YSCREF :          IN REFERENCE COORDINATES
000822:                                                                                                  #              : ZSCREF :          (PREFERRED IMU ORIENTATION).
000823:                                                                                                  #           2. POINTVSM            DESIRED THRUST DIRECTION IN STABLE-MEMBER COORDINATES.
000824:                                                                                                  #           3. SCAXIS              HALF-UNIT OF AXIS TO ALIGN IN STABLE-MEMBER COORDINATES.
000825:                                                                                                  #           4. PFRATFLG            INTERPRETIVE FLAG.  ON:  PREFERRED ORIENTATION COMPUTED; OFF:  NOT COMPUTED.
000826:
000827:                                                                                                  #  DEBRIS:  NONE.
000828:


000830:
000831: 27,2436                                           COUNT*   $$/S40.2
000832: 27,2436           77775        S40.2,3            VLOAD                                          #  UT: DESIRED THRUST DIRECTION (HALF-UNIT)
000833: 27,2437           03677                                    UT                                    #  (PUT INTO TOP OF PUSH-DOWN-LIST.)
000834: 27,2440           76521                           MXV      VSL1                                  #  TRANSFORM THRUST DIRECTION TO STABLE-
000835: 27,2441           01734                                    REFSMMAT                              #  MEMBER FROM REFERENCE COORDS (RESCALE).
000836: 27,2442           27767                           STOVL    POINTVSM                              #  SAVE FOR "VECPOINT" ROUTINE (LEMMANU).
000837: 27,2443           06422                                    UNITX                                 #  SCAXIS SET TO +X, FOR P40 AND P42 AND
000838: 27,2444           27761                           STOVL    SCAXIS                                #  FOR P41 IF RCS NOT -X,+Y,-Y,+Z,-Z.
000839:
000840: 27,2445           03677                                    UT                                    #  ASSUME +X BURN ALWAYS, EVEN FOR RCS.
000841: 27,2446           03605        PLUSX              STORE    XSCREF                                #  XSCREF = UT (DESIRED THRUST DIRECTION.)
000842: 27,2447           53435                           VXV      UNIT                                  #  RTIG = POSITION AT TIME-OF-IGNITION.
000843: 27,2450           03640                                    RTIG                                  #  YSCREF = UNIT(UT X RTIG)
000844: 27,2451           46125                           PDDL     BHIZ
000845: 27,2452           00045                                    36D                                   #  TEST MAGNITUDE OF UT X RTIG
000846: 27,2453           56464                                    FIXY                                  #  IF SMALL, USE UT X VTIG AS YSC
000847: 27,2454           45575        STORY              VLOAD    STADR
000848: 27,2455           74164                           STORE    YSCREF
000849: 27,2456           76435                           VXV      VSL1                                  #  COMPUTE (YSCREF X XSCREF),BUT FOR A
000850: 27,2457           03605                                    XSCREF                                #  RIGHT HANDED SYSTEM, NEED (X CROSS Y).
000851: 27,2460           77676                           VCOMP                                          #  ZSCREF = - (YSCREF X XSCREF)
000852: 27,2461           03621                           STORE    ZSCREF                                #         = + (XSCREF X YSCREF)
000853:
000854: 27,2462           43414                           SET      RVQ
000855: 27,2463           01073                                    PFRATFLG
000856: 27,2464           47375        FIXY               VLOAD    VXV                                   #  IN THIS CASE,
000857: 27,2465           03605                                    XSCREF                                #  YSCREF = UNIT(XSCREF X VTIG)
000858: 27,2466           03646                                    VTIG
000859: 27,2467           41456                           UNIT     PUSH
000860: 27,2470           77650                           GOTO
000861: 27,2471           56454                                    STORY
000862:


000864:                                                                                                  #  SUBROUTINE S40.8
000865:
000866:                                                                                                  #  MODIFIED APRIL 3, 1968  BY  PETER ADLER    MIT/IL
000867:
000868:                                                                                                  #  DESCRIPTION
000869:
000870:                                                                                                  #       S40.8 UPDATES THE VELOCITY-TO-BE-GAINED VECTOR, VG, (AND FOR LAMBERT TARGETTED BURNS ALSO EXTRAPOLATES VG
000871:                                                                                                  #  USING THE BDT VECTOR)  COMPUTES THE TIME FOR ISSUING THE ENGINE OFF COMMAND, TGO, AND CALLS THE ROUTINE
000872:                                                                                                  #  "FINDCDUW", WHICH GENERATES STEERING COMMANDS FOR THE DAP.
000873:
000874:                                                                                                  #  CALLING SEQUENCE
000875:
000876:                                                                                                  #  L-1      CALL
000877:                                                                                                  #  L               S40.8
000878:                                                                                                  #  L+1                      INTERPRETIVE RETURN
000879:
000880:                                                                                                  #  ALARM
000881:
000882:                                                                                                  #       IF VG . DELVREF IS NEGATIVE (VG AND DELVREF OVER 90 DEGREES APART), BYPASS TGO AND STEERING COMPUTATIONS
000883:                                                                                                  #  AND SET ALARM 1407.  RETURN TO CALLER NORMALLY.
000884:
000885:                                                                                                  #  INPUT AND INITIALIZATION
000886:
000887:                                                                                                  #  VGPREV          REFERENCE       2(7) M/CS
000888:                                                                                                  #  DELVREF         REFERENCE       2(7) M/CS
000889:                                                                                                  #  BDT             REFERENCE       2(7) M/CS
000890:                                                                                                  #  TDECAY          TAIL-OFF TIME   2(28)  CS
000891:                                                                                                  #  XDELVFLG        1 = EXTERNAL DELTA-V;  0 = LAMBERT (AIMPOINT)
000892:                                                                                                  #  STEERSW         1 = DO STEERING AND TGO COMPUTATIONS; 0 = VG UPDATE ONLY
000893:                                                                                                  #  FIRSTFLG        1 = GONE TO LAMBERT AT LEAST ONCE;  0 = HAVEN'T GONE TO LAMBERT YET
000894:
000895:                                                                                                  #  NOTE:  VGTIG EQUALS VGPREV
000896:
000897:                                                                                                  #  OUTPUT
000898:
000899:                                                                                                  #  STEERSW         SEE INPUT
000900:                                                                                                  #  IMPULSW         1 = ENGINE OFF IN TGO CENTISECONDS;  0 = CONTINUE BURN
000901:                                                                                                  #  TGO             TIME TO CUT-OFF 2(28)   CS
000902:                                                                                                  #  SEE FINDCDUW FOR STEERING OUTPUTS.
000903:
000904:                                                                                                  #  SUBROUTINE CALLED
000905:
000906:                                                                                                  #       FINDCDUW
000907:
000908:                                                                                                  #  DEBRIS
000909:
000910:                                                                                                  #       MPACS, PUSHLIST
000911:
000912: 27,2472                                           COUNT*   $$/S40.8
000913:


000915: 27,2472  E6,1420                                  EBANK=   OMEGAQ
000916: 27,2472           43175        S40.8              VLOAD    BON
000917: 27,2473           03705                                    VGPREV
000918: 27,2474           01307                                    XDELVFLG
000919: 27,2475           56502                                    VGNEW
000920: 27,2476           53214                           BOFF     VAD
000921: 27,2477           03344                                    FIRSTFLG
000922: 27,2500           56502                                    VGNEW
000923: 27,2501           03671                                    BDT
000924: 27,2502           77651        VGNEW              VSU
000925: 27,2503           03525                                    DELVREF
000926: 27,2504           03714        VGAIN*             STORE    VG                                    #  VELOCITY TO BE GAINED SCALED AT (7)M/CS
000927: 27,2505           76521                           MXV      VSL1
000928: 27,2506           01734                                    REFSMMAT
000929: 27,2507           03252                           STORE    UNFC/2
000930: 27,2510           77214                           BON      VLOAD
000931: 27,2511           03304                                    FIRSTFLG
000932: 27,2512           56515                                    BDTOK
000933: 27,2513           06424                                    HI6ZEROS
000934: 27,2514           03671                           STORE    BDT
000935: 27,2515           51575        BDTOK              VLOAD    ABVAL
000936: 27,2516           03714                                    VG
000937: 27,2517           03662                           STORE    VGDISP
000938: 27,2520           77201        TGDCALC            SETPD    VLOAD
000939: 27,2521           00001                                    0
000940: 27,2522           03714                                    VG
000941: 27,2523           27705                           STOVL    VGPREV
000942: 27,2524           03525                                    DELVREF
000943: 27,2525           57414                           BOFF     VCOMP
000944: 27,2526           01344                                    STEERSW
000945: 27,2527           00052                                    QPRET
000946: 27,2530           77656                           UNIT
000947: 27,2531           41441                           DOT      PUSH
000948: 27,2532           03714                                    VG
000949: 27,2533           56244                           BPL      DDV
000950: 27,2534           56562                                    ALARMIT                               #  DELV IS MORE THAN 90 DEGREES FROM VG.
000951: 27,2535           03742                                    VEX
000952: 27,2536           41215                           DAD      DMP
000953: 27,2537           06422                                    DPHALF
000954: 27,2540           56261                           SR       DDV
000955: 27,2541           20613                                    10D
000956: 27,2542           00045                                    36D
000957: 27,2543           43205                           DMP      DAD
000958: 27,2544           16571                                    -FOURDT
000959: 27,2545           03740                                    TDECAY
000960: 27,2546           03515                           STORE    TGO
000961: 27,2547           77615                           DAD
000962: 27,2550           01235                                    PIPTIME
000963: 27,2551           17440                           STODL    TIG
000964: 27,2552           03515                                    TGO
000965:


000967: 27,2553           51025                           DSU      BPL
000968: 27,2554           16573                                    FOURSECS                              #  400 CS
000969: 27,2555           61062                                    FINDCDUW   -2
000970: 27,2556           43014                           SET      CLRGO
000971: 27,2557           01066                                    IMPULSW
000972: 27,2560           01224                                    STEERSW
000973: 27,2561           00052                                    QPRET
000974:
000975:
000976: 27,2562           77776        ALARMIT            EXIT
000977: 27,2563           05567                           TC       ALARM
000978: 27,2564           01407                           OCT      01407
000979: 27,2565           06036                           TC       INTPRET
000980: 27,2566           77650                           GOTO                                           #  SKIP TGO COMPUTATION BUT CALL FINDCDUW.
000981: 27,2567           61062                                    FINDCDUW   -2                         #  FINDCDUW WILL EXIT TO UPDATEVG +3.
000982:
000983: 27,2570           77715 77777  -FOURDT            2DEC     -800       B-18                       #  -4 (200 CS.)  B(-18)
000984: 27,2572           00000 00620  FOURSECS           2DEC     400        B-28                       #  400 CS SCALED AT 2(+28)CS
000985: 27,2574  E7,1741               2VEXHUST           =        VEX
000986:


000988:                                                                                                  #  NAME     S40.13 - TIMEBURN
000989:                                                                                                  #  FUNCTION        (1) DETERMINE WHETHER A GIVEN COMBINATION OF VELOCITY TO
000990:                                                                                                  #                  BE GAINED AND ENGINE CHOICE RESULT IN A BURN TIME
000991:                                                                                                  #                  SUFFICIENT TO ALLOW STEERING AT THE VEHICLE DURING THE
000992:                                                                                                  #                  BURN
000993:                                                                                                  #                  (2) THE MAGNITUDE OF THE RESULTING BURN TIME -- IF IT
000994:                                                                                                  #                  IS SHORT --  AND THE ASSOCIATED TIME OF THE ENGINE OFF
000995:                                                                                                  #                  SIGNAL
000996:                                                                                                  #  CALLING SEQUENCE  VIA FINDVAC AS A NEW JOB
000997:                                                                                                  #  INPUT           VGTIG VELOCITY TO BE GAINED VECTOR (METERS/CS) AT +7
000998:                                                                                                  #                  WEIGHT/G MASS OF VEHICLE IN KGM AT +16
000999:                                                                                                  #                  F  APS ENGINE THRUST IN M.NEWTONS AT +7
001000:                                                                                                  #                  AND ALSO FOR RCS ENGINE
001001:                                                                                                  #                  MDOT RATE OF DECREASE OF VEHICLE MASS DURING ENGINE
001002:                                                                                                  #                  BURN IN KILOGRAMS/CS  AT +3 . THIS SCALING MAY
001003:                                                                                                  #                  REQUIRE MODIFICATION FOR SATURN BURNS.
001004:                                                                                                  #           ENG1FLAG     SWITCH TO DECIDE WHETHER APS OR DPS ENGINE IS USED
001005:                                                                                                  #                   =0   DPS
001006:                                                                                                  #                   =1   APS
001007:                                                                                                  #  OUTPUT          IMPULSW  ZERO FOR STEERING
001008:                                                                                                  #                           ONE FOR ATTITUDE HOLD
001009:                                                                                                  #                  NOTHROTL  ZERO FOR THROTTLING
001010:                                                                                                  #                            ONE  TO INHIBIT THROTTLING
001011:                                                                                                  #                  TGO  TIME TO BURN IN CS
001012:                                                                                                  #           THE QUANTITY M.NEWTON = 10000 NEWTONS WILL BE USED TO EXPRESS
001013:                                                                                                  #                  FORCE
001014:
001015:
001016: 27,2574  E7,1514                                  EBANK=   TGO
001017: 27,2574                                           COUNT*   $$/40.13
001018: 27,2574           06036        S40.13             TC       INTPRET
001019: 27,2575           43001                           SETPD    CLEAR
001020: 27,2576           00001                                    00D
001021: 27,2577           01266                                    IMPULSW                               #  ASSUME NO STEERING UNTIL FOUND OTHERWISE
001022: 27,2600           51575                           VLOAD    ABVAL
001023: 27,2601           03705                                    VGTIG                                 #  VELOCITY TO BE GAINED AT +7
001024: 27,2602           41325                           PDDL     DMP                                   #  00D = MAG OF VGTIG AT +7
001025: 27,2603           16742                                    7SEC                                  #  700 CS AT + 18
001026: 27,2604           34017                                    FRCS2
001027: 27,2605           62471                           DDV      SL2                                   #  SCALE
001028: 27,2606           01245                                    WEIGHT/G
001029: 27,2607           41421                           BDSU     PUSH
001030: 27,2610           43014                           BOFF     SET
001031: 27,2611           05342                                    APSFLAG
001032: 27,2612           56662                                    S40.13D                               #  FOR DPS ENGINE
001033: 27,2613           02463                                    NOTHROTL
001034: 27,2614           56345                           DLOAD    DDV                                   #  00D = MAG OF VGTIG CORRECTED
001035: 27,2615           16001                                    K1VAL                                 #  M.NEWTONS-CS AT +24
001036: 27,2616           01245                                    WEIGHT/G
001037: 27,2617           50021                           BDSU     BMN
001038:


001040: 27,2620           00001                                    00D
001041: 27,2621           56644                                    S40.131                               #  TGO LESS THAN 100 CS
001042: 27,2622           41325                           PDDL     DMP                                   #  02D = TEMP1 AT +7
001043: 27,2623           03736                                    MDOT
001044:
001045:                                                                                                  #  MDOT REPRESENTS THE RATE OF DECREASE OF VEHICLE MASS DURING ENGINE
001046:                                                                                                  #  BURN IN KILOGRAMS/CS .  WHEN  SATURN IS USED , THE SCALING MAY
001047:                                                                                                  #  REQUIRE ADJUSTMENT
001048:
001049: 27,2624           16734                                    3.5SEC                                #  350 CS AT +14
001050: 27,2625           65221                           BDSU     PDDL
001051: 27,2626           01245                                    WEIGHT/G
001052: 27,2627           03734                                    F
001053: 27,2630           60405                           DMP      SR2                                   #  SCALE
001054: 27,2631           16736                                    5SECS
001055: 27,2632           41471                           DDV      PUSH                                  #  04D = TEMP2
001056: 27,2633           51021                           BDSU     BPL
001057: 27,2634           00003                                    02D
001058: 27,2635           56662                                    S40.13D
001059: 27,2636           55345                           DLOAD    BDDV
001060: 27,2637           43205                           DMP      DAD
001061: 27,2640           16736                                    5SECS
001062: 27,2641           16732                                    1SEC2D                                #  100 CS AT +14
001063: 27,2642           77650                           GOTO
001064: 27,2643           56652                                    S40.132
001065: 27,2644           41345        S40.131            DLOAD    DMP
001066: 27,2645           01245                                    WEIGHT/G
001067: 27,2646           41542                           SR1      PUSH
001068: 27,2647           56215                           DAD      DDV
001069: 27,2650           16003                                    K2VAL                                 #  M.NEWTON CS AT +24
001070: 27,2651           16005                                    K3VAL                                 #  M.NEWTON CS AT +10
001071: 27,2652           77414        S40.132            SET      EXIT
001072: 27,2653           01066                                    IMPULSW
001073: 27,2654           07256        S40.132*           TC       TPAGREE
001074: 27,2655           30154                           CA       MPAC
001075: 27,2656           56001                           XCH      L
001076: 27,2657           34755                           CA       ZERO
001077: 27,2660           53515                           DXCH     TGO
001078: 27,2661           12704                           TCF      S40.134
001079:
001080: 27,2662           41345        S40.13D            DLOAD    DMP                                   #  FOR DPS ENGINE
001081: 27,2663           00001                                    00D
001082: 27,2664           01245                                    WEIGHT/G
001083: 27,2665           43006                           PUSH     BON
001084: 27,2666           05302                                    APSFLAG
001085: 27,2667           56725                                    APSTGO
001086: 27,2670           43071                           DDV      CLEAR
001087: 27,2671           16007                                    S40.136
001088: 27,2672           02663                                    NOTHROTL
001089: 27,2673           41400                           BOV      PUSH
001090:


001092: 27,2674           56707                                    S40.130V
001093: 27,2675           51025        S40.137            DSU      BPL
001094: 27,2676           16740                                    6SEC                                  #  600.0 CS AT +14
001095: 27,2677           56715                                    S40.138
001096: 27,2700           52015                           DAD      GOTO
001097: 27,2701           16740                                    6SEC
001098: 27,2702           56652                                    S40.132
001099: 27,2703           77776        S40.133            EXIT
001100: 27,2704           05353        S40.134            TC       PHASCHNG
001101: 27,2705           00003                           OCT      00003
001102: 27,2706           05155                           TC       ENDOFJOB
001103: 27,2707           40545        S40.130V           DLOAD    SR4                                   #  RECOMPUTE TGO IN TIME2 UNITS
001104: 27,2710           77671                           DDV
001105: 27,2711           16011                                    S40.136_                              #  S40.136 SHIFTED LEFT 10
001106: 27,2712           03515                           STORE    TGO
001107: 27,2713           77776                           EXIT
001108: 27,2714           12704                           TCF      S40.134                               #  REJOIN COMMON CODING FOR RESTART PROTECT
001109:
001110: 27,2715           51025        S40.138            DSU      BPL
001111: 27,2716           16744                                    89SECS
001112: 27,2717           56722                                    STORETGO
001113: 27,2720           77614                           SET
001114: 27,2721           02463                                    NOTHROTL
001115: 27,2722           77745        STORETGO           DLOAD                                          #  LOAD TGO AT 2(14)
001116: 27,2723           77776                           EXIT
001117: 27,2724           12654                           TCF      S40.132*
001118:
001119: 27,2725           62471        APSTGO             DDV      SL2
001120: 27,2726           34007                                    FAPS
001121: 27,2727           77650                           GOTO
001122: 27,2730           56723                                    STORETGO   +1
001123: 27,2731           00144 00000  1SEC2D             2DEC     100.0      B-14                       #  100.0 CS AT +14
001124: 27,2733           01274 00000  3.5SEC             2DEC     350.0      B-13                       #  350 CS AT +13
001125: 27,2735           00764 00000  5SECS              2DEC     500.0      B-14                       #  500.0 CS AT +14
001126: 27,2737           01130 00000  6SEC               2DEC     600.0      B-14                       #  600.0 CS AT +14
001127: 27,2741           00053 30000  7SEC               2DEC     700.0      B-18                       #  700.0 CS AT + 18
001128: 27,2743           21304 00000  89SECS             2DEC     8900.0     B-14
001129:                                                                                                  #  FUNCTION    (1) GENERATES REQUIRED VELOCITY AND VELOCITY-TO-BE-GAINED
001130:                                                                                                  #              VECTORS FOR USE DURING AIMPOINT MANEUVERS EVERY TWO
001131:                                                                                                  #              COMPUTATION CYCLES (4 SECONDS).
001132:                                                                                                  #              (2) UPDATES THE B VECTOR WHICH IS USED IN THE FINAL
001133:                                                                                                  #              CALCULATION OF EXTRAPOLATING THE VELOCITY-TO-BE-GAINED
001134:                                                                                                  #              THROUGH ONE 2-SECOND INTERVAL INTO THE FUTURE.
001135:                                                                                                  #  CALLING SEQ VIA FINDVAC AS NEW JOB.
001136:


001138:                                                                                                  #  INPUT       RN       - ACTIVE VEHICLE RADIUS VECTOR IN METERS AT +29.
001139:                                                                                                  #              VN       - ACTIVE VEHICLE VELOCITY VECTOR IN METERS/CS AT +7
001140:                                                                                                  #              VRPREV   - LAST COMPUTED VELOCITY REQUIRED VECTOR IN
001141:                                                                                                  #                         METERS/CS AT +7.
001142:                                                                                                  #              TIG      - TIME OF IGNITION IN CS AT +28.
001143:                                                                                                  #              DLTARG   - COMPUTATION CYCLE INTERVAL = 200 CS AT +28.
001144:                                                                                                  #              PIPTIME  - TIME OF RN AND VN IN CS AT +28.
001145:                                                                                                  #              GDT/2    - HALF OF VELOCITY GAINED IN DELTA T TIME DUE TO
001146:                                                                                                  #                         ACCERERATION OF GRAVITY IN METERS/CS AT +7.
001147:                                                                                                  #              DELVREF  - CHANGE IN VELOCITY DURING LAST 2 SEC IN
001148:                                                                                                  #                         METERS/CS AT +7.
001149:                                                                                                  #  OUTPUT      VGPREV   - VELOCITY TO BE GAINED VECTOR IN METERS/CS AT +7.
001150:                                                                                                  #              VGDISP   - MAG OF VGPREV FOR DISPLAY PURPOSES.
001151:                                                                                                  #              VRPREV   - VELOCITY REQUIRED VECTOR IN METERS/CS AT +7.
001152:                                                                                                  #              BDT      - B VECTOR IN METERS/CS AT +7.
001153:                                                                                                  #  SUBROUTINES USED  -  INITVEL
001154:
001155: 27,2745  E7,1704                                  EBANK=   VGPREV
001156: 27,2745                                           COUNT*   $$/S40.9
001157: 27,2745           06036        S40.9              TC       INTPRET
001158: 27,2746           77201                           SETPD    VLOAD
001159: 27,2747           00001                                    00D
001160: 27,2750           01221                                    RN                                    #  ACTIVE VEHICLE RADIUS VECTOR AT T1
001161: 27,2751           26327                           STOVL    RINIT
001162: 27,2752           01227                                    VN                                    #  ACTIVE VEHICLE VELOCITY VECTOR AT T1
001163: 27,2753           16335                           STODL    VINIT
001164: 27,2754           01235                                    PIPTIME
001165: 27,2755           03730                           STORE    TNIT
001166: 27,2756           77621                           BDSU
001167: 27,2757           03627                                    TPASS4
001168: 27,2760           03450                           STORE    DELLT4                                #  T2 - T1
001169: 27,2761           71214                           SET      DLOAD
001170: 27,2762           01072                                    AVFLAG                                #  SET AVFLAG FOR LEM ACTIVE
001171: 27,2763           06424                                    HI6ZEROS
001172: 27,2764           77725                           PDDL
001173: 27,2765           16431                                    EPS1
001174: 27,2766           43214                           BOFF     DAD                                   #  EPSILON4 = 10 OR 45 DEGREES.
001175: 27,2767           03745                                    NORMSW
001176: 27,2770           56772                                    EPSSMALL
001177: 27,2771           16433                                    EPS2
001178: 27,2772           77606        EPSSMALL           PUSH
001179: 27,2773           45014        S40.92             BOFSET   CALL
001180: 27,2774           03044                                    FIRSTFLG
001181: 27,2775           57102                                    INITINIT
001182: 27,2776           22002                                    HAVEGUES
001183: 27,2777           52375                           VLOAD    VSU
001184: 27,3000           02343                                    VIPRIME
001185: 27,3001           03722                                    VRPREV
001186: 27,3002           45325                           PDDL     DSU
001187: 27,3003           03730                                    TNIT
001188: 27,3004           03732                                    TNITPREV
001189:


001191: 27,3005           74265                           BDDV     VXSC
001192: 27,3006           17101                                    100B28
001193: 27,3007           76451                           VSU      VSL1
001194: 27,3010           01237                                    GDT/2
001195: 27,3011           03671                           STORE    BDT
001196: 27,3012           53135        FIRSTTME           SLOAD    BZE
001197: 27,3013           03377                                    RTX2
001198: 27,3014           57020                                    GETGOBL
001199: 27,3015           52175                           VLOAD    GOTO                                  #  NO OBLATENESS COMP IF IN MOON SPHERE
001200: 27,3016           03366                                    DELVEET3
001201: 27,3017           57034                                    NOGOBL
001202: 27,3020           53575        GETGOBL            VLOAD    UNIT                                  #  CALCULATE OBLATENESS TERM.
001203: 27,3021           01221                                    RN
001204: 27,3022           45345                           DLOAD    DSU
001205: 27,3023           01235                                    PIPTIME                               #               2
001206: 27,3024           03510                                    GOBLTIME                              #  G    = -(MU/R )(UNITGOBL)(T - TIG)
001207: 27,3025           56205                           DMP      DDV                                   #   OBL
001208: 27,3026           16013                                    EARTHMU
001209: 27,3027           00043                                    34D                                   #  34D = /RN/ (2) FROM UNIT OPERATION.
001210: 27,3030           53361                           VXSC     VAD
001211: 27,3031           03517                                    UNITGOBL
001212: 27,3032           03366                                    DELVEET3                              #  OUTPUT FROM INITVEL VG = VR - VN
001213: 27,3033           03366                           STORE    DELVEET3                              #  VG = VR + GOBL - VN
001214: 27,3034           77646        NOGOBL             ABVAL
001215: 27,3035           17662                           STODL    VGDISP
001216: 27,3036           03730                                    TNIT
001217: 27,3037           03732                           STORE    TNITPREV
001218: 27,3040           77776                           EXIT
001219: 27,3041           05353                           TC       PHASCHNG
001220: 27,3042           05022                           OCT      05022
001221: 27,3043           14000                           OCT      14000
001222: 27,3044           06036                           TC       INTPRET
001223: 27,3045           77775                           VLOAD
001224: 27,3046           02343                                    VIPRIME                               #  VR(T)
001225: 27,3047           03722                           STORE    VRPREV
001226: 27,3050           77776                           EXIT
001227: 27,3051           05353                           TC       PHASCHNG
001228: 27,3052           04022                           OCT      04022
001229: 27,3053           06036                           TC       INTPRET
001230: 27,3054           77214                           BON      VLOAD
001231: 27,3055           01305                                    CYCLESW
001232: 27,3056           57064                                    S40.91
001233: 27,3057           03366                                    DELVEET3
001234: 27,3060           03705                           STORE    VGPREV
001235: 27,3061           52014                           SET      GOTO
001236: 27,3062           01065                                    CYCLESW
001237: 27,3063           57074                                    ENDS40.9
001238: 27,3064           53375        S40.91             VLOAD    VAD                                   #  EXTRAPOLATE FOR V TO GAIN
001239: 27,3065           03366                                    DELVEET3
001240: 27,3066           03671                                    BDT
001241:


001243: 27,3067           77651                           VSU
001244: 27,3070           03525                                    DELVREF
001245: 27,3071           03705                           STORE    VGPREV
001246: 27,3072           77646                           ABVAL
001247: 27,3073           03662                           STORE    VGDISP                                #  FOR DISPLAY PURPOSES
001248: 27,3074           77776        ENDS40.9           EXIT
001249: 27,3075           05353                           TC       PHASCHNG
001250: 27,3076           00002                           OCT      2
001251: 27,3077           05155                           TC       ENDOFJOB
001252: 27,3100           00000 00144  100B28             2DEC     100        B-28
001253: 27,3102           77624        INITINIT           CALL
001254: 27,3103           22002                                    HAVEGUES
001255: 27,3104           77650                           GOTO
001256: 27,3105           57012                                    FIRSTTME
001257:                                                                                                  #  MOD 0     24 FEB 67     PETER ADLER
001258:                                                                                                  #  FUNCTION:
001259:                                                                                                  #           TRIMS DPS ENGINE TO MINIMIZE THRUST/CG OFFSET. ENGINE IS GIMBALLED TO FULL + PITCH AND + ROLL (TO LOCK)
001260:                                                                                                  #           FOR REFERENCE AND IS THEN BROUGHT BACK TO TRIM POSITION BY RUNNING FOR THE PROPER TIMES (TO BE
001261:                                                                                                  #           SPECIFIED BY GAEC) IN - PITCH AND - ROLL.
001262:                                                                                                  #  CALLING SEQUENCE:
001263:                                                                                                  #           VIA WAITLIST FROM R03
001264:                                                                                                  #  INPUT:
001265:                                                                                                  #           PITTIME     TIME TO RUN FROM FULL + PITCH TO TRIM  (CS)
001266:                                                                                                  #           ROLLTIME    TIME TO RUN FROM FULL + ROLL  TO TRIM  (CS)
001267:                                                                                                  #  SUBROUTINES USED:
001268:                                                                                                  #           WAITLIST, FIXDELAY, VARDELAY, FLAGUP, FLAGDOWN, NOVAC
001269:
001270: 27,3106                                           COUNT*   $$/S40.6
001271: 27,3106  E6,1401                                  EBANK=   ROLLTIME                              #  OCTAL MASKS:  PRIO5=05000 EBANK5=02400
001272:
001273: 27,3106           05516        TRIMGIMB           TC       DOWNFLAG                              #  GMBDRVSW FLAG IS SET WHEN EITHER ROLL OR
001274: 27,3107           00137                           ADRES    GMBDRVSW                              #  PITCH IS COMPLETED, WHICHEVER IS FIRST.
001275:
001276: 27,3110           45017                           CS       PRIO5                                 #  TURN OFF - PITCH, - ROLL, IF ON.
001277: 27,3111           00006                           EXTEND
001278: 27,3112           03012                           WAND     CHAN12
001279: 27,3113           35014                           CAF      EBANK5                                #  TURN ON + PITCH, + ROLL.
001280: 27,3114           00006                           EXTEND
001281: 27,3115           05012                           WOR      CHAN12
001282: 27,3116           05221                           TC       FIXDELAY                              #  WAIT ONE MINUTE TO MAKE SURE ENGINE IS
001283: 27,3117           13560                           DEC      6000       B-14                       #  AT FULL + PITCH AND FULL + ROLL
001284: 27,3120           45014                           CS       EBANK5                                #  TURN OFF + PITCH, + ROLL.
001285: 27,3121           00006                           EXTEND
001286: 27,3122           03012                           WAND     CHAN12
001287: 27,3123           35017                           CAF      PRIO5                                 #  TURN ON - PITCH, - ROLL.
001288: 27,3124           00006                           EXTEND
001289: 27,3125           05012                           WOR      CHAN12
001290: 27,3126           31402                           CAE      PITTIME                               #  GET TIME TO SHUT OFF - PITCH AND SET UP
001291: 27,3127           05173                           TC       TWIDDLE                               #  TWIDDLE-TASK TO TURN IT OFF THEN
001292:


001294: 27,3130           03147                           ADRES    PITCHOFF
001295:
001296: 27,3131           31401                           CAE      ROLLTIME                              #  GET TIME TO SHUT OFF - ROLL AND GO AWAY
001297: 27,3132           05224                           TC       VARDELAY                              #  UNTIL THEN
001298: 27,3133           44740                           CS       BIT12
001299: 27,3134           00006                           EXTEND
001300: 27,3135           03012                           WAND     CHAN12                                #  SHUT OFF ROLL
001301: 27,3136           30102        ROLLOVER           CA       FLAGWRD6                              #  IF HERE INLINE (ROLL DONE) IS PITCH DONE
001302: 27,3137           74742                           MASK     GMBDRBIT                              #  IF HERE FROM PITCHOFF, IS ROLL DONE?
001303: 27,3140           00006                           EXTEND
001304: 27,3141           13153                           BZF      PITCHOFF   +4                         #  NO.  SET FLAG, ROLL OR PITCH DONE.
001305: 27,3142           34737                           CAF      PRIO10                                #  RETURN TO R03
001306: 27,3143           05072                           TC       NOVAC
001307: 27,3144  E7,1467                                  EBANK=   WHOCARES
001308: 27,3144           02320 02067                     2CADR    TRIMDONE
001309: 27,3146           05261                           TC       TASKOVER
001310: 27,3147           44742        PITCHOFF           CS       BIT10
001311: 27,3150           00006                           EXTEND
001312: 27,3151           03012                           WAND     CHAN12                                #  SHUT OFF PITCH
001313: 27,3152           13136                           TCF      ROLLOVER                              #  SEE IF ROLL HAS FINISHED ALSO.
001314: 27,3153           05504                           TC       UPFLAG                                #  ROLL DONE; OR PITCH DONE; BUT NOT BOTH.
001315: 27,3154           00137                           ADRES    GMBDRVSW
001316: 27,3155           05261                           TC       TASKOVER
001317:


001319:                                                                                                  #  SUBROUTINE NAME: S41.1          MOD. NO. 0  DATE: FEBRUARY 28, 1967
001320:
001321:                                                                                                  #                          MOD. NO. 1  DATE: JANUARY 23, 1968: BY PETER ADLER (MIT/IL)
001322:
001323:                                                                                                  #  AUTHOR: JONATHAN D. ADDELSTON (ADAMS ASSOCIATES)
001324:
001325:                                                                                                  #  S41.1 PERFORMS THE COORDINATE SYSTEM TRANFORMATION FROM THE REFERENCE FRAME TO THE BODY OF THE LM.
001326:                                                                                                  #  SPECIFICALLY, IT IS USED TO TRANSFORM A VELOCITY (SCALED AT 2(+7) METERS/CENTISECOND) FROM REFERENCE TO LM AXIS
001327:                                                                                                  #  COORDINATES.  FIRST THE VECTOR IS TRANSFORMED TO THE STABLE MEMBER COORDINATES BY THE MATRIX REFSMMAT.  THIS
001328:                                                                                                  #  LEAVES THE VECTOR IN MPAC, SCALED AT 2(+8) METERS/CENTISECOND.  THEN
001329:                                                                                                  #  THE SUBROUTINE CDUTRIG IS CALLED TO SET UP THE DOUBLE-PRECISION CDU VECTOR ALONG WITH ITS SINES AND COSINES.
001330:                                                                                                  #  THE VECTOR IS THEN TRANSFORMED FROM STABLE MEMBER COORDINATES TO SPACECRAFT (OR LM) COORDINATES BY THE
001331:                                                                                                  #  SUBROUTINE *SMNB*.  FINALLY( THE VECTOR IS RESCALED TO 2(+7) METERS/CENTISECOND, AND CONTROL IS RETURNED TO THE
001332:                                                                                                  #  CALLER WITH C(MPAC) = VELOCITY(LM).
001333:
001334:
001335:                                                                                                  #  CALLING SEQUENCE:
001336:                                                                                                  #                                          L        VLOAD  CALL
001337:                                                                                                  #                                          L +1            VELOCITY(REF)   SCALED AT 2(+7)M/CS IN REFERENCE COORDS.
001338:                                                                                                  #                                          L +2            S41.1
001339:                                                                                                  #                                          L +3     STORE  VELOCITY(LM)    SCALED AT 2(+7)M/CS IN LM BODY AXIS SYS.
001340:
001341:                                                                                                  #  SUBROUTINES CALLED:
001342:
001343:                                                                                                  #           1.  CDUTRIG,
001344:                                                                                                  #                  WHICH CALLS CDULOGIC.
001345:                                                                                                  #           2.  *SMNB*
001346:
001347:                                                                                                  #  NORMAL RETURN: L +3 (SEE CALLING SEQUENCE, ABOVE.)
001348:
001349:                                                                                                  #  ALARM/ABORT MODES: NONE.
001350:
001351:                                                                                                  #  RESTART PROTECTION: NONE.
001352:


001354:                                                                                                  #  INPUT:
001355:
001356:                                                                                                  #           1.  REFSMMAT.
001357:                                                                                                  #           2.  CDUX, CDUY, CDUZ.
001358:                                                                                                  #           3.  VELOCITY (REF) IN MPAC.
001359:
001360:                                                                                                  #  OUTPUT:
001361:
001362:                                                                                                  #           1.  CDUSPOT:  DOUBLE PRECISION CDU VECTOR, ORDERED Y,Z,X.
001363:                                                                                                  #           2.  SINCDU:   HALF SINES OF CDUSPOT COMPONENTS.
001364:                                                                                                  #           3.  COSCDU:   HALF COSINES OF CDUSPOT COMPONENTS.
001365:                                                                                                  #           4.  MPAC:     VELOCITY(LM) (SCALED AT 2(+7) METERS/CENTISECOND)
001366:
001367:                                                                                                  #  DEBRIS: NONE.
001368:
001369:                                                                                                  #  CHECKOUT STATUS:  CODED.
001370:
001371: 27,3156                                           COUNT*   $$/S41.1
001372: 27,3156           76521        S41.1              MXV      VSL1                                  #  CONVERT VECTOR IN MPAC FROM REF AT 2(+7)
001373: 27,3157           01734                                    REFSMMAT                              #  TO SM AND RESCALE DUE TO HALFUNIT MATRIX
001374: 27,3160           77650                           GOTO                                           #  CONVERT TO BODY AT 2(+7) USING PRESENT
001375: 27,3161           47552                                    CDU*SMNB                              #  CDU ANGLES.  CDU*SMNB WILL RETURN
001376:                                                                                                  #  VIA RVQ TO THE CALLER OF S41.1

End of include-file P40-P47.agc.  Parent file is MAIN.agc


