
Source Code


000002:                                                                                                  ## Copyright:   Public domain.
000003:                                                                                                  ## Filename:    PHASE_TABLE_MAINTENANCE.agc
000004:                                                                                                  ## Purpose:     The main source file for Luminary revision 069.
000005:                                                                                                  ##              It is part of the source code for the original release
000006:                                                                                                  ##              of the flight software for the Lunar Module's (LM) Apollo
000007:                                                                                                  ##              Guidance Computer (AGC) for Apollo 10. The actual flown
000008:                                                                                                  ##              version was Luminary 69 revision 2, which included a
000009:                                                                                                  ##              newer lunar gravity model and only affected module 2.
000010:                                                                                                  ##              This file is intended to be a faithful transcription, except
000011:                                                                                                  ##              that the code format has been changed to conform to the
000012:                                                                                                  ##              requirements of the yaYUL assembler rather than the
000013:                                                                                                  ##              original YUL assembler.
000014:                                                                                                  ## Reference:   pp. 1288-1296
000015:                                                                                                  ## Assembler:   yaYUL
000016:                                                                                                  ## Contact:     Ron Burkey <info@sandroid.org>.
000017:                                                                                                  ## Website:     www.ibiblio.org/apollo/index.html
000018:                                                                                                  ## Mod history: 2016-12-13 MAS  Created from Luminary 99.
000019:                                                                                                  ##              2016-12-18 MAS  Updated from comment-proofed Luminary 99 version.
000020:                                                                                                  ##              2017-01-11 RRB  Updated for Luminary 69.
000021:                                                                                                  ##              2017-01-28 RSB  Proofed comment text using octopus/prooferComments
000022:                                                                                                  ##                              and fixed errors found.
000023:


000025:                                                                                                  #  SUBROUTINE TO UPDATE THE PROGRAM NUMBER DISPLAY ON THE DSKY.
000026:
000027: 43,3732                                           COUNT*   $$/PHASE
000028:    5311                                           BLOCK    02
000029:    4000                                           SETLOC   FFTAG1
000030:    4000                                           BANK
000031:
000032:    5311           50002        NEWMODEX           INDEX    Q                                     #  UPDATE MODREG. ENTRY FOR MODE IN FIXED.
000033:    5312           30000                           CAF      0
000034:    5313           24002                           INCR     Q
000035:
000036:    5314           55011        NEWMODEA           TS       MODREG                                #  ENTRY FOR MODE IN A.
000037:    5315           35320        MMDSPLAY           CAF      +3                                    #  DISPLAY MAJOR MODE.
000038:    5316           22006        PREBJUMP           LXCH     BBANK                                 #  PUTS BBANK IN L
000039:    5317           14640                           TCF      BANKJUMP                              #  PUTS Q INTO A
000040:    5320           20071                           CADR     SETUPDSP
000041:
000042:                                                                                                  #  RETURN TO CALLER +3 IF MODE = THAT AT CALLER +1. OTHERWISE RETURN TO CALLER +2.
000043:
000044:    5321           50002        CHECKMM            INDEX    Q
000045:    5322           40000                           CS       0
000046:    5323           61011                           AD       MODREG
000047:    5324           00006                           EXTEND
000048:    5325           16740                           BZF      Q+2
000049:    5326           16736                           TCF      Q+1                                   #  NO MATCH
000050:
000051:    5327     6741               TCQ                =        Q+2        +1
000052:
000053: 14,3711                                           BANK     14
000054: 10,2000                                           SETLOC   PHASETAB
000055: 10,2000                                           BANK
000056:
000057: 10,2071                                           COUNT*   $$/PHASE
000058: 10,2071           00004        SETUPDSP           INHINT
000059: 10,2072           52071                           DXCH     RUPTREG1                              #  SAVE CALLER-S RETURN 2CADR
000060: 10,2073           34355                           CAF      PRIO30                                #    EITHER A TASK OR JOB CAN COME TO
000061: 10,2074           05072                           TC       NOVAC                                 #    NEWMODE X
000062: 10,2075     1011                                  EBANK=   MODREG
000063: 10,2075           03532 60102                     2CADR    DSPMMJOB
000064:
000065: 10,2077           52071                           DXCH     RUPTREG1
000066: 10,2100           00003                           RELINT
000067: 10,2101           52006                           DXCH     Z                                     #  RETURN
000068:
000069: 10,2102  40,3532               DSPMMJOB           EQUALS   DSPMMJB
000070:
000071:    5327                                           BLOCK    02
000072:    4000                                           SETLOC   FFTAG1
000073:    4000                                           BANK
000074:


000076:                                                                                                  #  PHASCHNG IS THE MAIN WAY OF MAKING PHASE CHANGES FOR RESTARTS.  THERE ARE THREE FORMS OF PHASCHNG, KNOWN AS TYPE
000077:                                                                                                  #  A, TYPE B, AND TYPE C. THEY ARE ALL CALLED AS FOLLOWS, WHERE OCT XXXXX CONTAINS THE PHASE INFORMATION,
000078:                                                                                                  #                TC      PHASCHNG
000079:                                                                                                  #                OCT     XXXXX
000080:                                                                                                  #  TYPE A IS CONCERNED WITH FIXED PHASE CHANGES, THAT IS, PHASE INFORMATION THAT IS STORED PERMANENTLY.  THESE
000081:                                                                                                  #  OPTIONS ARE, WHERE G STANDS FOR A GROUP AND .X FOR THE PHASE,
000082:                                                                                                  #        G.0             INACTIVE, WILLNOT PERMIT A GROUP G RESTART
000083:                                                                                                  #        G.1             WILL CAUSE THE LAST DISPLAY TO BE REACTIVATED, USED MAINLY IN MANNED FLIGHTS
000084:                                                                                                  #        G.EVEN          A DOUBLE TABLE RESTART, CAN CAUSE ANY COMBINATION OF TWO JOBS, TASKS, AND/OR
000085:                                                                                                  #                        LONGCALL TO BE RESTARTED.
000086:                                                                                                  #        G.ODD NOT .1    A SINGLE TABLE RESTART, CAN CAUSE EITHER A JOB, TASK, OR LONGCALL RESTART
000087:
000088:                                                                                                  #  THIS INFORMATION IS PUT INTO THE OCTAL WORD AFTER TC PHASCHNG AS FOLLOWS
000089:                                                                                                  #        TL0 00P PPP PPP GGG                                               .
000090:                                                                                                  #  WHERE EACH LETTER OR NUMBER STANDS FOR A BIT.  THE G:S STAND FOR THE GROUP, OCTAL 1-7, THE P:S FOR THE PHASE,
000091:                                                                                                  #  OCTAL 0 - 127.  0:S MUST BE 0.              IF ONE WISHES TO HAVE THE TBASE OF GROUP G TO BE SET AT THIS TIME,
000092:                                                                                                  #  T IS SET TO 1, OTHERWISE IT IS SET TO 0.  SIMIARLY IF ONE WISHES TO SET LONGBASE, THEN L IS SET TO 1, OTHERWISE
000093:                                                                                                  #  IT IS SET TO 0.  SOME EXAMPLES,
000094:                                                                                                  #                TC      PHASCHNG        THIS WILL CAUSE GROUP 3 TO BE SET TO 0,
000095:                                                                                                  #                OCT     00003           MAKING GROUP 3 INACTIVE
000096:
000097:                                                                                                  #                TC      PHASCHNG        IF A RESTART OCCURS THIS WOULD CAUSE
000098:                                                                                                  #                OCT     00012           GROUP 2 TO RESTART THE LAST DISPLAY
000099:
000100:                                                                                                  #                TC      PHASCHNG        THIS SETS THE TBASE OF GROUP 4 AND IN
000101:                                                                                                  #                OCT     40064           CASE OF A RESTART WOULD START UP THE TWO
000102:                                                                                                  #                                        THINGS LOCATED IN THE DOUBLE 4.6 RESTART
000103:                                                                                                  #                                        LOCATION
000104:                                                                                                  #                TC      PHASCHNG        THIS SETS LONGBASE AND UPON A RESTART
000105:                                                                                                  #                OCT     20135           CAUSES 5.13 TO BE RESTARTED (SINCE
000106:                                                                                                  #                                        LONGBASE WAS SET THIS SINGLE ENTRY
000107:                                                                                                  #                                        SHOULD BE A LONGCALL)
000108:
000109:                                                                                                  #                TC      PHASCHNG        SINCE BOTH TBASE4 AND LONGBASE ARE SET,
000110:                                                                                                  #                OCT     60124           4.12 SHOULD CONTAIN BOTH A TASK AND A
000111:                                                                                                  #                                        LONGCALL TO BE RESTARTED
000112:
000113:                                                                                                  #  TYPE C PHASCHNG CONTAINS THE VARIABLE TYPE OF PHASCHNG INFORMATION. INSTEAD OF THE INFORMATION BEING IN A
000114:                                                                                                  #  PERMANENT FORM, ONE STORES THE DESIRED RESTART INFORMATION IN A VARIABKE LOCATION. THE BITS ARE AS FOLLOWS,
000115:                                                                                                  #        TL0 1AD XXX CJW GGG
000116:                                                                                                  #  WHERE EACH LETTER OR NUMBER STANDS FOR A BIT.  THE G:S STAND FOR THE GROUP, OCTAL 1 - 7.  IF THE RESTART IS TO
000117:                                                                                                  #  BE BY WAITLIST, W IS SET TO 1, IF IT IS A JOB, J IS SET TO 1, IF IT IS A LONGCALL, C IS SET TO 1.  ONLY ONE OF
000118:                                                                                                  #  THESE THREE BITS MAY BE SET.  X:S ARE IGNORED  1 MUST BE 1, AND 0 MUST BE 0.  AGAIN T STANDS FOR THE TBASE,


000120:                                                                                                  #  AND L FOR LONGBASE.  THE BITS A AND D ARE CONCERNED WITH THE VARIABLE INFORMATION. IF D IS SET TO 1, A PRIORITY
000121:                                                                                                  #  OR DELTA TIME WILL BE READ FROM THE NEXT LOCATION AFTER THE OCTAL INFORMATION, IF THIS IS TO BE INDIRECT, THAT
000122:                                                                                                  #  IS, THE NAME OF A LOCATION COMT+INING THE INFORMATION (DELTA TIME ONLY), THEN THIS IS GIVEN AS THE -GENADR OF
000123:                                                                                                  #  THAT LOCATION WHICH CONTAINS THE DELTA TIME.  IF THE OLD PRIORITY OR DELTA TIME IS TO BE USED, THAT WHICH IS
000124:                                                                                                  #  ALREADY IN THE VARIABLE STORAGE, THEN D IS SET TO 0. NEXT THE A BIT IS USED.  IF IT IS SET TO 0, THE ADDRESS
000125:                                                                                                  #  THAT WOULD BE RESTARTED DURING A RESTART IS THE NEXT LOCATION AFTER  THE PHASE INFORMATION, THAT IS, EITHER
000126:                                                                                                  #  (TC PHASCHNG) +2 OR +3, DEPENDING ON WHETHER D HAD BEEN SET OR NOT.  IF A IS SET TO 1, THEN THE ADDRESS THAT
000127:                                                                                                  #  WOULD BE RESTARTED IS THE 2CADR THAT IS READ FROM THE NEXT TWO LOCATIONS.  EXAMPLES.
000128:                                                                                                  #        AD      TC      PHASCHNG        THIS WOULD CAUSE LOCATION AD +3 TO BE
000129:                                                                                                  #        AD+1    OCT     05023           RESTARTED BY GROUP THREE WITH A PRIORITY
000130:                                                                                                  #        AD+2    OCT     23000           OF 23.  NOTE UPON RETURNING IT WOULD
000131:                                                                                                  #        AD+3                            ALSO GO TO AD+3
000132:
000133:                                                                                                  #        AD      TC      PHASCHNG        GROUP 1 WOULD CAUSE CAUSE CALLCALL TO
000134:                                                                                                  #        AD+1    OCT     27441           BE STARTED AS A LONGCALL FROM THE TIME
000135:                                                                                                  #        AD+2    -GENADR DELTIME         STORED IN LONGBASE (LONGBASE WAS SET) BY
000136:                                                                                                  #        AD+3    2CADR   CALLCALL        A DELTA TIME STORED IN DELTIME.  THE
000137:                                                                                                  #        AD+4                            BBCON OF THE 2CADR SHOULD CONTAIN THE E
000138:                                                                                                  #        AD+5                            BANK OF DELTIME.  PHASCHNG RETURNS TO
000139:                                                                                                  #                                        LOCATION AD+5
000140:
000141:                                                                                                  #  NOTE THAT IF A VARIABLE PRIORITY IS GIVEN FOR A JOB, THE JOB WILL BE RESTARTED AS A NOVAC IF THE PRIORITY IS
000142:                                                                                                  #  NEGATIVE, AS A FINDVAC IF THE PRIORITY IS POSITIVE.
000143:
000144:                                                                                                  #  TYPE B PHASCHNG IS A COMBINATION OF VARIABLE AND FIXED PHASE CHANGES. IT WILL START UP A JOB AS INDICATED
000145:                                                                                                  #  BELOW AND ALSO START UP ONE FIXED RESTART, THAT IS EITHER AN G.1 OR A G.ODD OR THE FIRST ENTRY OF G.EVEN
000146:                                                                                                  #  DOUBLE ENTRY.  THE BIT INFORMATION IS AS FOLLOWS,
000147:                                                                                                  #        TL1 DAP PPP PPP GGG
000148:                                                                                                  #  WHERE EACH LETTER OR NUMBER STANDS FOR A BIT.  THE G:S STAND FOR THE GROUP, OCTAL 1 - 7, THE P:S FOR THE FIXED
000149:                                                                                                  #  PHASE INFORMATION, OCTAL 0 - 127. 1 MUST BE 1.  AND AGAIN T STANDS FOR THE TBASE AND L FOR LONGBASE. D THIS
000150:                                                                                                  #  TIME STANDS ONLY FOR PRIORITY SINCE THIS WILL BE CONSIDERED A JOB, AND IT MUST BE GIVEN DIRECTLY IF GIVEN.
000151:                                                                                                  #  AGAIN A STANDS FOR THE ADDRESS OF THE LOCATION TO BE RESTARTED, 1 IF THE 2CADR IS GIVEN, OR 0 IF IT IS TO BE
000152:                                                                                                  #  THE NEXT LOCATION.  (THE RETURN LOCATION OF PHASCHNG) EXAMPLES,
000153:                                                                                                  #        AD      TC      PHASCHNG        TBASE IS SET AND A RESTART CAUSE GROUP 3
000154:                                                                                                  #        AD+1    OCT     56043           TO START THE JOB AJOBAJOB WITH PRIORITY
000155:                                                                                                  #        AD+2    OCT     31000           31 AND THE FIRST ENTRY OF 3.4SPOT (WE CAN
000156:                                                                                                  #        AD+3    2CADR   AJOBAJOB        ASSUME IT IS A TASK SINCE WE SET TBASE3)
000157:                                                                                                  #        AD+4                            UPON RETURN FROM PHASCHNG CONTROL WOULD
000158:                                                                                                  #        AD+5                            GO TO AD+5
000159:
000160:                                                                                                  #        AD      TC      PHASCHNG        UPON A RESTART THE LAST DISPLAY WOULD BE
000161:                                                                                                  #        AD+1    OCT     10015           RESTARTED AND A JOB WITH THE PREVIOUSLY
000162:                                                                                                  #        AD+2                            STORED PRIORITY WOULD BE BEGUN AT AD+2
000163:                                                                                                  #                                        BY MEANS OF GROUP 5


000165:                                                                                                  #  THE NOVAC-FINDVAC CHOICE FOR JOBS HOLDS HERE ALSO - NEGATIVE PRIORITY CAUSES A NOVAC CALL, POSITIVE A FINDVAC.
000166:
000167:                                                                                                  #  SUMMARY OF BITS
000168:                                                                                                  #        TYPE A          TL0 00P PPP PPP GGG
000169:                                                                                                  #        TYPE B          TL1 DAP PPP PPP GGG
000170:                                                                                                  #        TYPE C          TL0 1AD XXX CJW GGG
000171:


000173:                                                                                                  #  2PHSCHNG IS USED WHEN ONE WISHES TO START UP A GROUP OR CHANGE A GROUP WHILE UNDER THE CONTROL OF A DIFFERENT
000174:                                                                                                  #  GROUP. FOR EXAMPLE, CHANGE THE PHASE OF GROUP 3 WHILE THE PORTION OF THE PROGRAM IS UNDER GROUP 5. ALL 2PHSCHNG
000175:                                                                                                  #  CALLS ARE MADE IN THE FOLLOWING MANNER,
000176:                                                                                                  #                TC      2PHSCHNG
000177:                                                                                                  #                OCT     XXXXX
000178:                                                                                                  #                OCT     YYYYY
000179:                                                                                                  #  WHERE OCT XXXXX MUST BE OF TYPE A AND OCT YYYYY MAY BE OF EITHER TYPE A OR TYPE B OR TYPEC.  THERE IS ONE
000180:                                                                                                  #  DIFFERENCE --- NOTE- IF LONGBASE IS TO BE SET THIS INFORMATION IS GIVEN IN THE OCT YYYYY INFORMATION, IT WILL
000181:                                                                                                  #  BE DISREGARDED IF GIVEN WITH THE OCT XXXXX INFORMATION.  A COUPLE OF EXAMPLES MAY HELP,
000182:                                                                                                  #        AD      TC      2PHSCHNG        SET TBASE3 AND IF A RESTART OCCURS START
000183:                                                                                                  #        AD+1    OCT     40083           THE TWO ENTRIES IN 3.8 TABLE LOCATION
000184:                                                                                                  #        AD+2    OCT     05025           THIS IS OF TYPE C, SET THE JOB TO BE
000185:                                                                                                  #        AD+3    OCT     18000           TO BE LOCATION AD+4, WITH A PRIORITY 18,
000186:                                                                                                  #        AD+4                            FOR GROUP 5 PHASE INFORMATION
000187:


000189:    5327  40,2000                                  SBANK=   PINSUPER
000190:
000191:    5327                                           COUNT*   $$/PHASE
000192:    5327           00004        2PHSCHNG           INHINT                                         #  THE ENTRY FOR A DOUBLE PHASE CHANGE
000193:    5330           50002                           NDX      Q
000194:    5331           30000                           CA       0
000195:    5332           24002                           INCR     Q
000196:    5333           54072                           TS       TEMPP2
000197:
000198:    5334           74757                           MASK     OCT7
000199:    5335           60000                           DOUBLE
000200:    5336           54071                           TS       TEMPG2
000201:
000202:    5337           30072                           CA       TEMPP2
000203:    5340           75030                           MASK     OCT17770                              #  NEED ONLY 1770, BUT WHY GET A NEW CONST.
000204:    5341           00006                           EXTEND
000205:    5342           74740                           MP       BIT12
000206:    5343           56072                           XCH      TEMPP2
000207:
000208:    5344           74735                           MASK     BIT15
000209:    5345           54066                           TS       TEMPSW2                               #  INDICATES WHETHER TO SET TBASE OR NOT
000210:
000211:    5346           50002                           INDEX    Q
000212:    5347           30000                           CA       0
000213:    5350           24002                           INCR     Q
000214:    5351           54065                           TS       TEMPSW
000215:
000216:    5352           15363                           TCF      PHASJUMP
000217:
000218:    5353           00004        PHASCHNG           INHINT                                         #  NORMAL PHASCHNG ENTRY POINT.
000219:    5354           50002                           INDEX    Q
000220:    5355           30000                           CA       0
000221:    5356           24002                           INCR     Q
000222:    5357           00004        PHSCHNGA           INHINT                                         #  FIRST OCTAL PARAMETER IN A.


000224:    5360           54065                           TS       TEMPSW
000225:    5361           34753                           CA       ONE
000226:    5362           54066                           TS       TEMPSW2
000227:    5363           00006        PHASJUMP           EXTEND
000228:    5364           35367                           DCA      ADRPCHN2                              #  OFF TO SWITCHED BANK
000229:    5365           52006                           DTCB
000230:
000231:    5366  E3,1400                                  EBANK=   LST1
000232:    5366           02102 20103  ADRPCHN2           2CADR    PHSCHNG2
000233:
000234:    5370           22073        ONEORTWO           LXCH     TEMPBBCN
000235:    5371           22006                           LXCH     BBANK
000236:    5372           22073                           LXCH     TEMPBBCN
000237:
000238:    5373           75024                           MASK     OCT14000                              #  SEE WHAT KIND OF PHASE CHANGE IT IS
000239:    5374           10000                           CCS      A
000240:    5375           17747                           TCF      CHECKB                                #  IT IS OF TYPE :B:
000241:
000242:    5376           30062                           CA       TEMPP
000243:    5377           74745                           MASK     BIT7
000244:    5400           10000                           CCS      A                                     #  SHALL WE USE THE OLD PRIORITY
000245:    5401           15423                           TCF      GETPRIO                               #  NO GET A NEW PRIORITY (OR DELTA T)
000246:
000247:    5402           50061        OLDPRIO            NDX      TEMPG                                 #  USE THE OLD PRIORITY (OR DELTA T)
000248:    5403           31052                           CA       PHSPRDT1   -2
000249:    5404           54070                           TS       TEMPPR
000250:
000251:    5405           30062        CON1               CA       TEMPP                                 #  SEE IF A 2CADR IS GIVEN
000252:    5406           74744                           MASK     BIT8
000253:    5407           10000                           CCS      A
000254:    5410           15427                           TCF      GETNEWNM
000255:
000256:    5411           30002                           CA       Q
000257:    5412           54063                           TS       TEMPNM
000258:    5413           30006                           CA       BB
000259:    5414           00006                           EXTEND                                         #  PICK UP USERS SUPERBANK
000260:    5415           04007                           ROR      SUPERBNK
000261:    5416           54064                           TS       TEMPBB
000262:
000263:    5417           35422        TOCON2             CA       CON2ADR                               #  BACK TO SWITCHED BANK
000264:    5420           22073                           LXCH     TEMPBBCN
000265:    5421           52006                           DTCB
000266:
000267:    5422           02170        CON2ADR            GENADR   CON2
000268:
000269:    5423           50002        GETPRIO            NDX      Q                                     #  DON:T CARE IF DIRECT OR INDIRECT
000270:    5424           30000                           CA       0                                     #  LEAVE THAT DECISION TO RESTARTS
000271:    5425           24002                           INCR     Q                                     #  OBTAIN RETURN ADDRESS


000273:    5426           15404                           TCF      CON1       -1
000274:
000275:    5427           00006        GETNEWNM           EXTEND
000276:    5430           50002                           INDEX    Q
000277:    5431           30001                           DCA      0
000278:    5432           52064                           DXCH     TEMPNM
000279:    5433           34752                           CA       TWO
000280:    5434           26002                           ADS      Q                                     #  OBTAIN RETURN ADDRESS
000281:
000282:    5435           15417                           TCF      TOCON2
000283:
000284:    5436     5024               OCT14000           EQUALS   PRIO14
000285:    5436     0061               TEMPG              EQUALS   ITEMP1
000286:    5436     0062               TEMPP              EQUALS   ITEMP2
000287:    5436     0063               TEMPNM             EQUALS   ITEMP3
000288:    5436     0064               TEMPBB             EQUALS   ITEMP4
000289:    5436     0065               TEMPSW             EQUALS   ITEMP5
000290:    5436     0066               TEMPSW2            EQUALS   ITEMP6
000291:    5436     0070               TEMPPR             EQUALS   RUPTREG1
000292:    5436     0071               TEMPG2             EQUALS   RUPTREG2
000293:    5436     0072               TEMPP2             EQUALS   RUPTREG3
000294:
000295:    5436     0073               TEMPBBCN           EQUALS   RUPTREG4
000296:    5436  0000006               BB                 EQUALS   BBANK
000297:
000298: 14,3711                                           BANK     14
000299: 10,2000                                           SETLOC   PHASETAB
000300: 10,2000                                           BANK
000301:
000302: 10,2102  E3,1436                                  EBANK=   PHSNAME1
000303: 10,2102                                           COUNT*   $$/PHASE
000304: 10,2102           22073        PHSCHNG2           LXCH     TEMPBBCN
000305: 10,2103           30065                           CA       TEMPSW
000306: 10,2104           74757                           MASK     OCT7
000307: 10,2105           60000                           DOUBLE
000308: 10,2106           54061                           TS       TEMPG
000309:
000310: 10,2107           30065                           CA       TEMPSW
000311: 10,2110           75030                           MASK     OCT17770
000312: 10,2111           00006                           EXTEND
000313: 10,2112           74740                           MP       BIT12
000314: 10,2113           54062                           TS       TEMPP
000315:
000316: 10,2114           30065                           CA       TEMPSW
000317: 10,2115           74101                           MASK     OCT60000
000318: 10,2116           56065                           XCH      TEMPSW
000319: 10,2117           75024                           MASK     OCT14000
000320: 10,2120           10000                           CCS      A


000322: 10,2121           15370                           TCF      ONEORTWO
000323:
000324: 10,2122           30062                           CA       TEMPP                                 #  START STORING THE PHASE INFORMATION
000325: 10,2123           50061                           NDX      TEMPG
000326: 10,2124           54751                           TS       PHASE1     -2
000327:
000328: 10,2125           10066        BELOW1             CCS      TEMPSW2                               #  IS IT A PHASCHNG OR A 2PHSCHNG
000329: 10,2126           12142                           TCF      BELOW2                                #  IT:S A PHASCHNG
000330:
000331: 10,2127           12130                           TCF      +1                                    #  IT:S A 2PHSCHNG
000332: 10,2130           40072                           CS       TEMPP2
000333: 10,2131           22072                           LXCH     TEMPP2
000334: 10,2132           50071                           NDX      TEMPG2
000335: 10,2133           52751                           DXCH     -PHASE1    -2
000336:
000337: 10,2134           10066                           CCS      TEMPSW2
000338: 10,2135           12136                           NOOP                                           #  CAN:T GET HERE
000339: 10,2136           12142                           TCF      BELOW2
000340:
000341: 10,2137           40025                           CS       TIME1
000342: 10,2140           50071                           NDX      TEMPG2
000343: 10,2141           55051                           TS       TBASE1     -2
000344:
000345: 10,2142           10065        BELOW2             CCS      TEMPSW                                #  SEE IF WE SHOULD SET TBASE OR LONGBASE
000346: 10,2143           12156                           TCF      BELOW3                                #  SET LONGBASE ONLY
000347: 10,2144           12161                           TCF      BELOW4                                #  SET NEITHER
000348:
000349: 10,2145           40025                           CS       TIME1                                 #  SET TBASE TO BEGIN WITH
000350: 10,2146           50061                           NDX      TEMPG
000351: 10,2147           55051                           TS       TBASE1     -2
000352:
000353: 10,2150           30065                           CA       TEMPSW                                #  SHALL WE NOW SET LONGBASE
000354: 10,2151           62154                           AD       BIT14COM
000355: 10,2152           10000                           CCS      A
000356: 10,2153           12154                           NOOP                                           #  ***** CANT GET HERE *****
000357: 10,2154           17777        BIT14COM           OCT      17777                                 #  ***** CANT GET HERE *****
000358: 10,2155           12161                           TCF      BELOW4                                #  NO WE NEED ONLY SET TBASE
000359:
000360: 10,2156           00006        BELOW3             EXTEND                                         #  SET LONGBASE
000361: 10,2157           30025                           DCA      TIME2
000362: 10,2160           53152                           DXCH     LONGBASE
000363:
000364: 10,2161           40062        BELOW4             CS       TEMPP                                 #  AND STORE THE FINAL PART OF THE PHASE
000365: 10,2162           50061                           NDX      TEMPG
000366: 10,2163           54750                           TS       -PHASE1    -2
000367:
000368: 10,2164           30002                           CA       Q
000369: 10,2165           22073                           LXCH     TEMPBBCN
000370: 10,2166           00003                           RELINT
000371: 10,2167           52006                           DTCB


000373: 10,2170           22073        CON2               LXCH     TEMPBBCN
000374:
000375: 10,2171           30062                           CA       TEMPP
000376: 10,2172           50061                           NDX      TEMPG
000377: 10,2173           54751                           TS       PHASE1     -2
000378:
000379: 10,2174           30070                           CA       TEMPPR
000380: 10,2175           50061                           NDX      TEMPG
000381: 10,2176           55052                           TS       PHSPRDT1   -2
000382:
000383: 10,2177           00006                           EXTEND
000384: 10,2200           30064                           DCA      TEMPNM
000385: 10,2201           50061                           NDX      TEMPG
000386: 10,2202           53435                           DXCH     PHSNAME1   -2
000387:
000388: 10,2203           12125                           TCF      BELOW1
000389:
000390:    7747                                           BLOCK    03
000391:    6000                                           SETLOC   FFTAG6
000392:    6000                                           BANK
000393:
000394:    7747                                           COUNT*   $$/PHASE
000395:    7747           74740        CHECKB             MASK     BIT12                                 #  SINCE THIS IS OF TYPE B, THIS BIT SHOULD
000396:    7750           10000                           CCS      A                                     #   BE HERE IF WE ARE TO GET A NEW PRIORITY
000397:    7751           15423                           TCF      GETPRIO                               #  IT IS, SO GET NEW PRIORITY
000398:
000399:    7752           15402                           TCF      OLDPRIO                               #  IT ISN:T, USE THE OLD PRIORITY
000400:
000401:

End of include-file PHASE_TABLE_MAINTENANCE.agc.  Parent file is MAIN.agc


