
Source Code


000002:                                                                                                  ## Copyright:   Public domain.
000003:                                                                                                  ## Filename:    PINBALL_GAME__BUTTONS_AND_LIGHTS.agc
000004:                                                                                                  ## Purpose:     The main source file for Luminary revision 069.
000005:                                                                                                  ##              It is part of the source code for the original release
000006:                                                                                                  ##              of the flight software for the Lunar Module's (LM) Apollo
000007:                                                                                                  ##              Guidance Computer (AGC) for Apollo 10. The actual flown
000008:                                                                                                  ##              version was Luminary 69 revision 2, which included a
000009:                                                                                                  ##              newer lunar gravity model and only affected module 2.
000010:                                                                                                  ##              This file is intended to be a faithful transcription, except
000011:                                                                                                  ##              that the code format has been changed to conform to the
000012:                                                                                                  ##              requirements of the yaYUL assembler rather than the
000013:                                                                                                  ##              original YUL assembler.
000014:                                                                                                  ## Reference:   pp. 403-484
000015:                                                                                                  ## Assembler:   yaYUL
000016:                                                                                                  ## Contact:     Ron Burkey <info@sandroid.org>.
000017:                                                                                                  ## Website:     www.ibiblio.org/apollo/index.html
000018:                                                                                                  ## Mod history: 2016-12-13 MAS  Created from Luminary 99.
000019:                                                                                                  ##              2016-12-14 MAS  Updated from comment-proofed Luminary 99 version.
000020:                                                                                                  ##              2017-01-21 MAS  Updated for Luminary 69.
000021:                                                                                                  ##              2017-01-27 RSB  Proofed comment text using octopus/prooferComments
000022:                                                                                                  ##                              but no errors found.
000023:                                                                                                  ##              2017-01-28 RSB  WTIH -> WITH.
000024:                                                                                                  ##              2017-02-08 RSB  Comment-text fixes identified while proofing Artemis 72.
000025:                                                                                                  ##              2017-03-08 RSB  Comment-text fixes noted while proofing Luminary 116.
000026:                                                                                                  ##              2017-03-08 RSB  Changed DSPOCTWO to DSPOCTWD.
000027:


000029:                                                                                                  #  PROGRAM NAME - KEYBOARD AND DISPLAY PROGRAM
000030:                                                                                                  #  MOD NO - 4      DATE - 27 APRIL 1967      ASSEMBLY - PINDANCE REV 18
000031:                                                                                                  #  MOD BY - FILENE
000032:                                                                                                  #  LOG SECTION - PINBALL GAME  BUTTONS AND LIGHTS
000033:
000034:                                                                                                  #  FUNCTIONAL DESCRIPTION-
000035:
000036:                                                                                                  #     THE KEYBOARD AND DISPLAY SYSTEM PROGRAM OPERATES UNDER EXECUTIVE
000037:                                                                                                  #  CONTROL AND PROCESSES INFORMATION EXCHANGED BETWEEN THE AGC AND THE
000038:                                                                                                  #  COMPUTER OPERATOR.  THE INPUTS TO THE PROGRAM ARE FROM THE KEYBOARD,
000039:                                                                                                  #  FROM INTERNAL PROGRAMS, AND FROM THE UPLINK.
000040:                                                                                                  #     THE LANGUAGE OF COMMUNICATION WITH THE PROGRAM IS A PAIR OF WORDS
000041:                                                                                                  #  KNOWN AS VERB AND NOUN.  EACH OF THESE IS REPRESENTED BY A 2 CHARACTER
000042:                                                                                                  #  DECIMAL NUMBER.  THE VERB CODE INDICATES WHAT ACTION IS TO BE TAKEN, THE
000043:                                                                                                  #  NOUN CODE INDICATES TO WHAT THIS ACTION IS APPLIED.  NOUNS USUALLY
000044:                                                                                                  #  REFER TO A GROUP OF ERASABLE REGISTERS.
000045:
000046:                                                                                                  #  VERBS ARE GROUPED INTO DISPLAYS, LOADS, MONITORS (DISPLAYS THAT ARE
000047:                                                                                                  #  UPDATED ONCE PER SECOND), SPECIAL FUNCTIONS, AND EXTENDED VERBS(THESE
000048:                                                                                                  #  ARE OUTSIDE OF THE DOMAIN OF PINBALL AND CAN BE FOUND UNDER LOG SECTION
000049:                                                                                                  #  :EXTENDED VERBS:).
000050:                                                                                                  #  A LIST OF VERBS AND NOUNS IS GIVEN IN LOG SECTION :ASSEMBLY AND
000051:                                                                                                  #  OPERATION INFORMATION:.
000052:


000087:
000088:                                                                                                  #  CALLING SEQUENCES-
000089:
000090:                                                                                                  #  KEYBOARD:
000091:                                                                                                  #     EACH DEPRESSION OF A KEYBOARD BUTTON ACTIVATES INTERRUPT KEYRUPT1
000092:                                                                                                  #  AND PLACES THE 5 BIT KEY CODE INTO CHANNEL 15.  KEYRUPT1 PLACES THE KEY
000093:                                                                                                  #  CODE INTO MPAC, ENTERS AN EXECUTIVE REQUEST FOR THE KEYBOARD AND DISPLAY
000094:                                                                                                  #  PROGRAM (AT :CHARIN:), AND EXECUTES A RESUME.
000095:
000096:                                                                                                  #  UPLINK:
000097:                                                                                                  #     EACH WORD RECEIVED BY THE UPLINK ACTIVATES INTERRUPT UPRUPT WHICH
000098:                                                                                                  #  PLACES THE 5 BIT KEY CODE INTO MPAC, ENTERS AN EXECUTIVE REQUEST FOR THE
000099:                                                                                                  #  KEYBOARD AND DISPLAY PROGRAM (AT:CHARIN:) AND EXECUTES A RESUME.
000100:
000101:                                                                                                  #  INTERNAL PROGRAMS:
000102:                                                                                                  #     INTERNAL PROGRAMS CALL PINBALL AT :NVSUB: WITH THE DESIRED VERB/NOUN
000103:                                                                                                  #  CODE IN A (LOW 7 BITS FOR NOUN, NEXT 7 BITS FOR VERB).  DETAILS
000104:                                                                                                  #  DESCRIBED ON REMARKS CARDS JUST BEFORE :NVSUB: AND :NVSBWAIT: (SEE
000105:                                                                                                  #  SYMBOL TABLE FOR PAGE NUMBERS).
000106:
000107:                                                                                                  #  NORMAL EXIT MODES -
000108:                                                                                                  #     IF PINBALL WAS CALLED BY EXTERNAL ACTION, THERE ARE FOUR EXITS:
000109:                                                                                                  #           1) ALL BUT (2), (3), AND (4) EXIT DIRECTLY TO ENDOFJOB.
000110:                                                                                                  #           2) EXTENDED VERBS GO TO THE EXTENDED VERB FAN AS PART OF THE


000112:                                                                                                  #              PINBALL EXECUTIVE JOB WITH PRIORITY 30000.  IT IS THE
000113:                                                                                                  #              RESPONSIBILITY OF THE EXTENDED VERB CALLED TO EVENTUALLY
000114:                                                                                                  #              CHANGE PRIORITY (IF NECESSARY) AND DO AN ENDOFJOB.
000115:                                                                                                  #              ALSO PINBALL IS A NOVAC JOB. EBANK SET FOR COMMON.
000116:                                                                                                  #           3) VERB 37. CHANGE OF PROGRAM (MAJOR MODE) CALLS :V37: IN THE
000117:                                                                                                  #              SERVICE ROUTINES AS PART OF THE PINBALL EXEC JOB WITH PRIO
000118:                                                                                                  #              30000.  THE NEW PROGRAM CODE (MAJOR MODE) IS LEFT IN A.
000119:                                                                                                  #           4) KEY RELEASE BUTTON CALLS :PINBRNCH: IN THE DISPLAY INTERFACE
000120:                                                                                                  #              ROUTINES AS PART OF THE PINBALL EXEC JOB WITH PRIO 30000 IF
000121:                                                                                                  #              THE KEY RELEASE LIGHT IS OFF AND :CADRSTOR: IS NOT +0.
000122:
000123:                                                                                                  #     IF PINBALL WAS CALLED BY INTERNAL PROGRAMS, EXIT FROM PINBALL IS BACK
000124:                                                                                                  #  TO CALLING ROUTINE.  DETAILS DESCRIBED IN REMARKS CARDS JUST BEFORE
000125:                                                                                                  #  :NVSUB: AND :NVSBWAIT: (SEE SYMBOL TABLE FOR PAGE NUMBERS).
000126:
000127:
000128:                                                                                                  #  ALARM OR ABORT EXIT MODES-
000129:
000130:                                                                                                  #  EXTERNAL INITIATION:
000131:                                                                                                  #     IF SOME IMPROPER SEQUENCE OF KEY CODES IS DETECTED, THE OPERATOR
000132:                                                                                                  #  ERROR LIGHT IS TURNED ON AND EXIT IS TO :ENDOFJOB:.
000133:
000134:                                                                                                  #  INTERNAL PROGRAM INITIATION:
000135:                                                                                                  #     IF AN ILLEGAL V/N COMBINATION IS ATTEMPTED, AN ABORT IS CAUSED
000136:                                                                                                  #  (WITH OCTAL 01501).
000137:                                                                                                  #     IF A SECOND ATTEMPT IS MADE TO GO TO SLEEP IN PINBALL, AN ABORT IS
000138:                                                                                                  #  CAUSED (WITH OCTAL 01206). THERE ARE TWO WAYS TO GO TO SLEEP IN PINBALL:
000139:                                                                                                  #           1) ENDIDLE OR DATAWAIT.
000140:                                                                                                  #           2) NVSBWAIT, PRENVBSY, OR NVSUBUSY.
000141:
000142:                                                                                                  #  CONDITIONS LEADING TO THE ABOVE ARE DESCRIBED IN FORTHCOMING MIT/IL
000143:                                                                                                  #  E-REPORT DESCRIBING KEYBOARD AND DISPLAY OPERATION FOR 278.
000144:
000145:
000146:                                                                                                  #  OUTPUT-
000147:
000148:                                                                                                  #     INFORMATION TO BE SENT TO THE DISPLAY PANEL IS LEFT IN THE :DSPTAB:
000149:                                                                                                  #  BUFFERS REGISTERS (UNDER EXEC CONTROL).  :DSPOUT: (A PART OF T4RUPT)
000150:                                                                                                  #  HANDLES THE PLACING OF THE :DSPTAB: INFORMATION INTO OUTPUT CHANNEL 10
000151:                                                                                                  #  IN INTERRUPT.
000152:
000153:
000154:                                                                                                  #  ERASABLE INITIALIZATION-
000155:
000156:                                                                                                  #     FRESH START AND RESTART INITIALIZE THE NECESSARY E REGISTERS FOR
000157:                                                                                                  #  PINBALL IN :STARTSUB:.   REGISTERS ARE:  DSPTAB BUFFER, CADRSTOR,
000158:                                                                                                  #  REQRET, CLPASS, DSPLOCK, MONSAVE, MONSAVE1, VERBREG, NOUNREG, DSPLIST,
000159:                                                                                                  #  DSPCOUNT, NOUT.
000160:
000161:                                                                                                  #  A COMPLETE LIST OF ALL THE ERASABLES (BOTH RESERVED AND TEMPORARIES) FOR


000163:                                                                                                  #  PINBALL IS GIVEN BELOW.
000164:
000165:
000166:                                                                                                  #  THE FOLLOWING ARE OF GENERAL INTEREST-
000167:
000168:                                                                                                  #     REMARKS CARDS PRECEDE THE REFERENCED SYMBOL DEFINITION.  SEE SYMBOL
000169:                                                                                                  #  TABLE TO FIND APPROPRIATE PAGE NUMBERS.
000170:
000171:                                                                                                  #     NVSUB   CALLING POINT FOR INTERNAL USE OF PINBALL.
000172:                                                                                                  #               OF RELATED INTEREST   NVSBWAIT
000173:                                                                                                  #                                     NVSUBUSY
000174:                                                                                                  #                                     PRENVBSY
000175:
000176:                                                                                                  #     ENDIDLE   ROUTINE FOR INTERNAL PROGRAMS WISHING TO GO TO SLEEP WHILE
000177:                                                                                                  #               AWAITING OPERATORS RESPONSE.
000178:
000179:                                                                                                  #     DSPMM   ROUTINE BY WHICH AN INTERNAL PROGRAM MAY DISPLAY A DECIMAL
000180:                                                                                                  #             PROGRAM CODE (MAJOR MODE) IN THE PROGRAM (MAJOR MODE) LIGHTS.
000181:                                                                                                  #             (DSPMM DOES NOT DISPLAY DIRECTLY BUT ENTERS EXEC REQUEST
000182:                                                                                                  #             FOR DSPMMJB WITH PRIO 30000 AND RETURNS TO CALLER.)
000183:
000184:                                                                                                  #     BLANKSUB   ROUTINE BY WHICH AN INTERNAL PROGRAM MAY BLANK ANY
000185:                                                                                                  #                COMBINATION OF THE DISPLAY REGISTERS R1, R2, R3.
000186:
000187:                                                                                                  #     JAMTERM   ROUTINES BY WHICH AN INTERNAL PROGRAM MAY PERFORM THE
000188:                                                                                                  #     JAMPROC   TERMINATE (V 34) OR PROCEED (V 33) FUNCTION.
000189:
000190:                                                                                                  #     MONITOR   VERBS FOR PERIODIC ( 1 PER SEC) DISPLAY.
000191:
000192:                                                                                                  #     PLEASE PERFORM, PLEASE MARK SITUATIONS
000193:                                                                                                  #                  REMARKS DESCRIBING HOW AN INTERNAL ROUTINE SHOULD HANDLE
000194:                                                                                                  #                  THESE SITUATIONS CAN BE FOUND JUST BEFORE :NVSUB: (SEE
000195:                                                                                                  #                  SYMBOL TABLE FOR PAGE NUMBER).
000196:
000197:                                                                                                  #     THE NOUN TABLE FORMAT IS DESCRIBED ON A PAGE OF REMARKS CARDS JUST
000198:                                                                                                  #     BEFORE :DSPABC: (SEE SYMBOL TABLE FOR PAGE NUMBER).
000199:
000200:                                                                                                  #     THE NOUN TABLES THEMSELVES ARE FOUND IN LOG SECTION :PINBALL NOUN
000201:                                                                                                  #     TABLES:.
000202:
000203:
000204:                                                                                                  #  FOR FURTHER DETAILS ABOUT OPERATION OF THE KEYBOARD AND DISPLAY SYSTEM
000205:                                                                                                  #  PROGRAM, SEE THE MISSION PLAN AND/OR MIT/IL E-2129
000206:                                                                                                  #  DESCRIBING KEYBOARD AND DISPLAY OPERATION FOR 278.
000207:


000213:
000214:                                                                                                  #  THE FOLLOWING QUOTATION IS PROVIDED THROUGH THE COURTESY OF THE AUTHORS.
000215:
000216:                                                                                                  #        ::IT WILL BE PROVED TO THY FACE THAT THOU HAST MEN ABOUT THEE THAT
000217:                                                                                                  #  USUALLY TALK OF A NOUN AND A VERB, AND SUCH ABOMINABLE WORDS AS NO


000219:                                                                                                  #  CHRISTIAN EAR CAN ENDURE TO HEAR.::
000220:
000221:                                                                                                  #                       HENRY 6, ACT 2, SCENE 4
000222:


000225:
000226:                                                                                                  #  THE FOLLOWING ASSIGNMENTS FOR PINBALL ARE MADE ELSEWHERE
000227:
000228:
000229:                                                                                                  #  RESERVED FOR PINBALL EXECUTIVE ACTION
000230:
000231:                                                                                                  #  DSPCOUNT ERASE                  DISPLAY POSITION INDICATOR
000232:                                                                                                  #  DECBRNCH ERASE                  +DEC, - DEC, OCT INDICATOR
000233:                                                                                                  #  VERBREG  ERASE                  VERB CODE
000234:                                                                                                  #  NOUNREG  ERASE                  NOUN CODE
000235:                                                                                                  #  XREG     ERASE                  R1 INPUT BUFFER
000236:                                                                                                  #  YREG     ERASE                  R2 INPUT BUFFER
000237:                                                                                                  #  ZREG     ERASE                  R3 INPUT BUFFER
000238:                                                                                                  #  XREGLP   ERASE                  LO PART OF XREG (FOR DEC CONV ONLY)
000239:                                                                                                  #  YREGLP   ERASE                  LO PART OF YREG (FOR DEC CONV ONLY)
000240:                                                                                                  #  HITEMOUT =      YREGLP          TEMP FOR DISPLAY OF HRS, MIN, SEC
000241:                                                                                                  #                                           MUST = LOTEMOUT-1.
000242:                                                                                                  #  ZREGLP   ERASE                  LO PART OF ZREG (FOR DEC CONV ONLY)
000243:                                                                                                  #  LOTEMOUT =      ZREGLP          TEMP FOR DISPLAY OF HRS, MIN, SEC
000244:                                                                                                  #                                           MUST = HITEMOUT+1.
000245:                                                                                                  #  MODREG   ERASE                  MODE CODE
000246:                                                                                                  #  DSPLOCK  ERASE                  KEYBOARD/SUBROUTINE CALL INTERLOCK
000247:                                                                                                  #  REQRET   ERASE                  RETURN REGISTER FOR LOAD
000248:                                                                                                  #  LOADSTAT ERASE                  STATUS INDICATOR FOR LOADTST
000249:                                                                                                  #  CLPASS   ERASE                  PASS INDICATOR CLEAR
000250:                                                                                                  #  NOUT     ERASE                  ACTIVITY COUNTER FOR DSPTAB
000251:                                                                                                  #  NOUNCADR ERASE                  MACHINE CADR FOR NOUN
000252:                                                                                                  #  MONSAVE  ERASE                  N/V CODE FOR MONITOR. (= MONSAVE1-1)
000253:                                                                                                  #  MONSAVE1 ERASE                  NOUNCADR FOR MONITOR (MATBS) =MONSAVE+1
000254:                                                                                                  #  MONSAVE2 ERASE                  NVMONOPT OPTIONS
000255:                                                                                                  #  DSPTAB   ERASE          +13D    0-10,DISPLAY PANEL BUFFER.11-13,C RELAYS
000256:                                                                                                  #  CADRSTOR ERASE                  ENDIDLE STORAGE
000257:                                                                                                  #  NVQTEM   ERASE                  NVSUB STORAGE FOR CALLING ADDRESS
000258:                                                                                                  #                                  MUST = NVBNKTEM-1
000259:                                                                                                  #  NVBNKTEM ERASE                  NVSUB STORAGE FOR CALLING BANK
000260:                                                                                                  #                                  MUST = NVQTEM+1
000261:                                                                                                  #  VERBSAVE ERASE                  NEEDED FOR RECYCLE
000262:                                                                                                  #  DSPLIST  ERASE                  WAITING REG FOR DSP SYST INTERNAL USE
000263:                                                                                                  #  EXTVBACT REASE                  EXTENDED VERB ACTIVITY INTERLOCK
000264:                                                                                                  #  DSPTEM1  ERASE          +2      BUFFER STORAGE AREA 1 (MOSTLY FOR TIME)
000265:                                                                                                  #  DSPTEM2  ERASE          +2      BUFFER STORAGE AREA 2 (MOSTLY FOR DEG)
000266:                                                                                                  #  END OF ERASABLES RESERVED FOR PINBALL EXECUTIVE ACTION
000267:
000268:
000269:                                                                                                  #  TEMPORARIES FOR PINBALL EXECUTIVE ACTION
000270:


000272:                                                                                                  #  DSEXIT   =      INTB15+         RETURN FOR DSPIN
000273:                                                                                                  #  EXITEM   =      INTB15+         RETURN FOR SCALE FACTOR ROUTINE SELECT
000274:                                                                                                  #  BLANKRET =      INTB15+         RETURN FOR 2BLANK
000275:
000276:                                                                                                  #  WRDRET   =      INTBIT15        RETURN FOR 5BLANK
000277:                                                                                                  #  WDRET    =      INTBIT15        RETURN FOR DSPWD
000278:                                                                                                  #  DECRET   =      INTBIT15        RETURN FOR PUTCOM(DEC LOAD)
000279:                                                                                                  #  21/22REG =      INTBIT15        TEMP FOR CHARIN
000280:
000281:                                                                                                  #  UPDATRET =      POLISH          RETURN FOR UPDATNN, UPDATVB
000282:                                                                                                  #  CHAR     =      POLISH          TEMP FOR CHARIN
000283:                                                                                                  #  ERCNT    =      POLISH          COUNTER FOR ERROR LIGHT RESET
000284:                                                                                                  #  DECOUNT  =      POLISH          COUNTER FOR SCALING AND DISPLAY (DEC)
000285:
000286:                                                                                                  #  SGNON    =      VBUF            TEMP FOR +,- ON
000287:                                                                                                  #  NOUNTEM  =      VBUF            COUNTER FOR MIXNOUN FETCH
000288:                                                                                                  #  DISTEM   =      VBUF            COUNTER FOR OCTAL DISPLAY VERBS
000289:                                                                                                  #  DECTEM   =      VBUF            COUNTER FOR FETCH (DEC DISPLAY VERBS)
000290:
000291:                                                                                                  #  SGNOFF   =      VBUF    +1      TEMP FOR +,- ON
000292:                                                                                                  #  NVTEMP   =      VBUF    +1      TEMP FOR NVSUB
000293:                                                                                                  #  SFTEMP1  =      VBUF    +1      STORAGE FOR SF CONST HI PART(=SFTEMP2-1)
000294:                                                                                                  #  HITEMIN  =      VBUF    +1      TEMP FOR LOAD OF HRS, MIN, SEC
000295:                                                                                                  #                                           MUST = LOTEMIN-1.
000296:                                                                                                  #  CODE     =      VBUF    +2      FOR DSPIN
000297:                                                                                                  #  SFTEMP2  =      VBUF    +2      STORAGE FOR SF CONST LO PART(=SFTEMP1+1)
000298:                                                                                                  #  LOTEMIN  =      VBUF    +2      TEMP FOR LOAD OF HRS, MIN, SEC
000299:                                                                                                  #                                           MUST = HITEMIN+1.
000300:                                                                                                  #  MIXTEMP  =      VBUF    +3      FOR MIXNOUN DATA
000301:                                                                                                  #  SIGNRET  =      VBUF    +3      RETURN FOR +,- ON
000302:
000303:                                                                                                  #  ALSO MIXTEMP+1 = VBUF+4, MIXTEMP+2 = VBUF+5.
000304:
000305:                                                                                                  #  ENTRET   =      DOTINC          EXIT FROM ENTER
000306:
000307:                                                                                                  #  WDCNT    =      DOTRET          CHAR COUNTER FOR DSPWD
000308:                                                                                                  #  INREL    =      DOTRET          INPUT BUFFER SELECTOR ( X,Y,Z, REG )
000309:
000310:                                                                                                  #  DSPMMTEM =      MATINC          DSPCOUNT SAVE FOR DSPMM
000311:                                                                                                  #  MIXBR    =      MATINC          INDICATOR FOR MIXED OR NORMAL NOUN
000312:
000313:                                                                                                  #  TEM1     ERASE                  EXEC TEMP
000314:                                                                                                  #  DSREL    =      TEM1            REL ADDRESS FOR DSPIN
000315:
000316:                                                                                                  #  TEM2     ERASE                  EXEC TEMP
000317:                                                                                                  #  DSMAG    =      TEM2            MAGNITUDE STORE FOR DSPIN
000318:                                                                                                  #  IDADDTEM =      TEM2            MIXNOUN INDIRECT ADDRESS STORAGE
000319:
000320:                                                                                                  #  TEM3     ERASE                  EXEC TEMP
000321:                                                                                                  #  COUNT    =      TEM3            FOR DSPIN
000322:


000324:                                                                                                  #  TEM4     ERASE                  EXEC TEMP
000325:                                                                                                  #  LSTPTR   =      TEM4            LIST POINTER FOR GRABUSY
000326:                                                                                                  #  RELRET   =      TEM4            RETURN FOR RELDSP
000327:                                                                                                  #  FREERET  =      TEM4            RETURN FOR FREEDSP
000328:                                                                                                  #  DSPWDRET =      TEM4            RETURN FOR DSPSIGN
000329:                                                                                                  #  SEPSCRET =      TEM4            RETURN FOR SEPSEC
000330:                                                                                                  #  SEPMNRET =      TEM4            RETURN FOR SEPMIN
000331:
000332:                                                                                                  #  TEM5     ERASE                  EXEC TEMP
000333:                                                                                                  #  NOUNADD  =      TEM5            TEMP STORAGE FOR NOUN ADDRESS
000334:
000335:                                                                                                  #  NNADTEM  ERASE                  TEMP FOR NOUN ADDRESS TABLE ENTRY
000336:                                                                                                  #  NNTYPTEM ERASE                  TEMP FOR NOUN TYPE TABLE ENTRY
000337:                                                                                                  #  IDAD1TEM ERASE                  TEMP FOR INDIR ADRESS TABLE ENTRY(MIXNN)
000338:                                                                                                  #                                  MUST = IDAD2TEM-1, = IDAD3TEM-2.
000339:                                                                                                  #  IDAD2TEM ERASE                  TEMP FOR INDIR ADRESS TABLE ENTRY(MIXNN)
000340:                                                                                                  #                                  MUST = IDAD1TEM+1, = IDAD3TEM-1.
000341:                                                                                                  #  IDAD3TEM ERASE                  TEMP FOR INDIR ADRESS TABLE ENTRY(MIXNN)
000342:                                                                                                  #                                  MUST = IDAD1TEM+2, = IDAD2TEM+1.
000343:                                                                                                  #  RUTMXTEM ERASE                  TEMP FOR SF ROUT TABLE ENTRY(MIXNN ONLY)
000344:                                                                                                  #  END OF TEMPORARIES FOR PINBALL EXECUTIVE ACTION
000345:
000346:
000347:                                                                                                  #  ADDITIONAL TEMPORARIES FOR PINBALL EXECUTIVE ACTION
000348:
000349:                                                                                                  #  MPAC, THRU MPAC +6
000350:                                                                                                  #  BUF, +1, +2
000351:                                                                                                  #  BUF2, +1, +2
000352:                                                                                                  #  MPTEMP
000353:                                                                                                  #  ADDRWD
000354:                                                                                                  #    END OF ADDITIONAL TEMPS FOR PINBALL EXEC ACTION
000355:
000356:
000357:                                                                                                  #  RESERVED FOR PINBALL INTERRUPT ACTION
000358:
000359:                                                                                                  #  DSPCNT   ERASE                  COUNTER FOR DSPOUT
000360:                                                                                                  #  UPLOCK   ERASE                  BIT1 = UPLINK INTERLOCK (ACTIVATED BY
000361:                                                                                                  #                                                                          RECEPTION OF A BAD MESSAGE IN UPLINK)
000362:                                                                                                  #  END OF ERASABLES RESERVED FOR PINBALL INTERRUPT ACTION
000363:
000364:
000365:                                                                                                  #  TEMPORARIES FOR PINBALL INTERRUPT ACTION
000366:
000367:                                                                                                  #  KEYTEMP1 =      WAITEXIT        TEMP FOR KEYRUPT, UPRUPT
000368:                                                                                                  #  DSRUPTEM =      WAITEXIT        TEMP FOR DSPOUT
000369:                                                                                                  #  KEYTEMP2 =      RUPTAGN         TEMP FOR KEYRUPT, UPRUPT
000370:                                                                                                  #  END OF TEMPORARIES FOR PINBALL INTERRUPT ACTION
000371:


000373:                                                                                                  #  THE INPUT CODES ASSUMED FOR THE KEYBOARD ARE,
000374:                                                                                                  #  0        10000
000375:                                                                                                  #  1        00001
000376:                                                                                                  #  9        01001
000377:                                                                                                  #  VERB     10001
000378:                                                                                                  #  ERROR RES10010
000379:                                                                                                  #  KEY RLSE 11001
000380:                                                                                                  #  +        11010
000381:                                                                                                  #  -        11011
000382:                                                                                                  #  ENTER    11100
000383:                                                                                                  #  CLEAR    11110
000384:                                                                                                  #  NOUN     11111


000386:
000387:
000388:                                                                                                  #  OUTPUT FORMAT FOR DISPLAY PANEL. SET OUT0 TO  AAAABCCCCCDDDDD.
000389:                                                                                                  #  A-S SELECT A RELAYWORD. THIS DETERMINES WHICH PAIR OF CHARACTERS ARE
000390:                                                                                                  #  ENERGIZED.
000391:                                                                                                  #  B FOR SPECIAL RELAYS SUCH AS SIGNS ETC.
000392:                                                                                                  #  C-S  5 BIT RELAY CODE FOR LEFT CHAR OF PAIR SELECTED BY RELAYWORD
000393:                                                                                                  #  D-S  5 BIT RELAY CODE FOR RIGHTCHAR OF PAIR SELECTED BY RELAYWORD.
000394:
000395:                                                                                                  #  THE PANEL APPEARS AS FOLLOWS,
000396:                                                                                                  #  MD1    MD2                         (MAJOR MODE)
000397:                                                                                                  #  VD1    VD2 (VERB)    ND1    ND2    (NOUN)
000398:                                                                                                  #  R1D1   R1D2   R1D3   R1D4   R1D5   (R1)
000399:                                                                                                  #  R2D1   R2D2   R2D3   R2D4   R2D5   (R2)
000400:                                                                                                  #  R3D1   R3D2   R3D3   R3D4   R3D5   (R3)
000401:
000402:                                                                                                  #  EACH OF THESE IS GIVEN A DSPCOUNT NUMBER FOR USE WITHIN COMPUTATION ONLY
000403:                                                                                                  #  MD1   25     R2D1  11         ALL ARE OCTAL
000404:                                                                                                  #  MD2   24     R2D2  10
000405:                                                                                                  #  VD1   23     R2D3   7
000406:                                                                                                  #  VD2   22     R2D4   6
000407:                                                                                                  #  ND1   21     R2D5   5
000408:                                                                                                  #  ND2   20     R3D1   4
000409:                                                                                                  #  R1D1  16     R3D2   3
000410:                                                                                                  #  R1D2  15     R3D3   2
000411:                                                                                                  #  R1D3  14     R3D4   1
000412:                                                                                                  #  R1D4  13     R3D5   0
000413:                                                                                                  #  R1D5  12
000414:
000415:
000416:                                                                                                  #  THERE IS AN 11 REGISTER TABLE (DSPTAB) FOR THE DISPLAY PANEL.
000417:
000418:                                                                                                  #  DSPTAB RELAYWD       BIT11     BITS 10-6     BITS 5-1
000419:                                                                                                  #  RELADD
000420:                                                                                                  #  10     1011                    MD1  (25)     MD2  (24)
000421:                                                                                                  #  9      1010                    VD1  (23)     VD2  (22)
000422:                                                                                                  #  8      1001                    ND1  (21)     ND2  (20)
000423:                                                                                                  #  7      1000                                  R1D1 (16)


000425:                                                                                                  #  6      0111          +R1       R1D2 (15)     R1D3 (14)
000426:                                                                                                  #  5      0110          -R1       R1D4 (13)     R1D5 (12)
000427:                                                                                                  #  4      0101          +R2       R2D1 (11)     R2D2 (10)
000428:                                                                                                  #  3      0100          -R2       R2D3 (7)      R2D4 (6)
000429:                                                                                                  #  2      0011                    R2D5 (5)      R3D1 (4)
000430:                                                                                                  #  1      0010          +R3       R3D2 (3)      R3D3 (2)
000431:                                                                                                  #  0      0001          -R3       R3D4 (1)      R3D5 (0)
000432:                                                                                                  #         0000   NO RELAYWORD
000433:
000434:
000435:                                                                                                  #  THE 5 BIT OUTPUT RELAY CODES ARE:
000436:                                                                                                  #  BLANK      00000
000437:                                                                                                  #  0          10101
000438:                                                                                                  #  1          00011
000439:                                                                                                  #  2          11001
000440:                                                                                                  #  3          11011
000441:                                                                                                  #  4          01111
000442:                                                                                                  #  5          11110
000443:                                                                                                  #  6          11100
000444:                                                                                                  #  7          10011
000445:                                                                                                  #  8          11101
000446:                                                                                                  #  9          11111
000447:
000448:
000449:                                                                                                  #  OUTPUT BITS USED BY PINBALL:
000450:
000451:                                                                                                  #             KEY RELEASE LIGHT    - BIT 5 OF CHANNEL 11
000452:                                                                                                  #             VERB/NOUN FLASH      - BIT 6 OF CHANNEL 11
000453:                                                                                                  #             OPERATOR ERROR LIGHT - BIT 7 OF CHANNEL 11
000454:


000458:


000460:                                                                                                  #  START OF EXECUTIVE SECTION OF PINBALL
000461:
000462: 40,2077                                           BANK     40
000463: 40,2000                                           SETLOC   PINBALL1
000464: 40,2000                                           BANK
000465:
000466: 40,2077                                           COUNT*   $$/PIN
000467: 40,2077           34753        CHARIN             CAF      ONE                                   #  BLOCK DISPLAY SYST
000468: 40,2100           57012                           XCH      DSPLOCK                               #  MAKE DSP SYST BUSY, BUT SAVE OLD
000469: 40,2101           54115                           TS       21/22REG                              #  C(DSPLOCK) FOR ERROR LIGHT RESET.
000470: 40,2102           11042                           CCS      CADRSTOR                              #  ALL KEYS EXCEPT ER TURN ON KR LITE IF
000471: 40,2103           02105                           TC       +2                                    #  CADRSTOR IS FULL.  THIS REMINDS OPERATOR
000472: 40,2104           02112                           TC       CHARIN2                               #  TO RE-ESTABLISH A FLASHING DISPLAY
000473: 40,2105           42156                           CS       ELRCODE1                              #  WHICH HE HAS OBSCURED WITH DISPLAYS OF
000474: 40,2106           60154                           AD       MPAC                                  #  HIS OWN (SEE REMARKS PRECEDING ROUTINE
000475: 40,2107           00006                           EXTEND                                         #  VBRELDSP).
000476: 40,2110           12112                           BZF      CHARIN2
000477: 40,2111           04374                           TC       RELDSPON
000478: 40,2112           56154        CHARIN2            XCH      MPAC
000479: 40,2113           54117                           TS       CHAR
000480: 40,2114           50000                           INDEX    A
000481: 40,2115           02116                           TC       +1                                    #  INPUT CODE     FUNCTION
000482: 40,2116           03432                           TC       CHARALRM                              #  0
000483: 40,2117           02175                           TC       NUM                                   #  1
000484: 40,2120           02175                           TC       NUM                                   #  2
000485: 40,2121           02175                           TC       NUM                                   #  3
000486: 40,2122           02175                           TC       NUM                                   #  4
000487: 40,2123           02175                           TC       NUM                                   #  5
000488: 40,2124           02175                           TC       NUM                                   #  6
000489: 40,2125           02175                           TC       NUM                                   #  7
000490: 40,2126           02161                           TC       89TEST                                #  10                 8
000491: 40,2127           02161                           TC       89TEST                                #  11                 9
000492: 40,2130           03432                           TC       CHARALRM                              #  12
000493: 40,2131           03432                           TC       CHARALRM                              #  13
000494: 40,2132           03432                           TC       CHARALRM                              #  14
000495: 40,2133           03432                           TC       CHARALRM                              #  15
000496: 40,2134           03432                           TC       CHARALRM                              #  16
000497: 40,2135           03432                           TC       CHARALRM                              #  17
000498: 40,2136           02173                           TC       NUM        -2                         #  20                 0
000499: 40,2137           02354                           TC       VERB                                  #  21                 VERB
000500: 40,2140           03601                           TC       ERROR                                 #  22                 ERROR LIGHT RESET
000501: 40,2141           03432                           TC       CHARALRM                              #  23
000502: 40,2142           03432                           TC       CHARALRM                              #  24
000503: 40,2143           03432                           TC       CHARALRM                              #  25
000504: 40,2144           03432                           TC       CHARALRM                              #  26
000505: 40,2145           03432                           TC       CHARALRM                              #  27
000506: 40,2146           03432                           TC       CHARALRM                              #  30
000507: 40,2147           03457                           TC       VBRELDSP                              #  31                 KEY RELEASE
000508: 40,2150           02407                           TC       POSGN                                 #  32                 +


000510: 40,2151           02374                           TC       NEGSGN                                #  33                 -
000511: 40,2152           02157                           TC       ENTERJMP                              #  34                 ENTER
000512: 40,2153           03432                           TC       CHARALRM                              #  35
000513: 40,2154           02467                           TC       CLEAR                                 #  36                 CLEAR
000514: 40,2155           02370                           TC       NOUN                                  #  37                 NOUN
000515:
000516:
000517: 40,2156           00022        ELRCODE1           OCT      22
000518: 40,2157           04635        ENTERJMP           TC       POSTJUMP
000519: 40,2160           62002                           CADR     ENTER
000520:
000521: 40,2161           10777        89TEST             CCS      DSPCOUNT
000522: 40,2162           02166                           TC       +4                                    #  +
000523: 40,2163           02166                           TC       +3                                    #  +0
000524: 40,2164           05155                           TC       ENDOFJOB                              #  - BLOCK DATA IN IF DSPCOUNT IS - OR -0
000525: 40,2165           05155                           TC       ENDOFJOB                              #  -0
000526: 40,2166           36244                           CAF      THREE
000527: 40,2167           71000                           MASK     DECBRNCH
000528: 40,2170           10000                           CCS      A
000529: 40,2171           02175                           TC       NUM                                   #  IF DECBRNCH IS +, 8 OR 9 OK
000530: 40,2172           03432                           TC       CHARALRM                              #  IF DECBRNCH IS +0, REJECT 8 OR 9
000531:
000532:
000533:                                                                                                  #  NUM ASSEMBLES OCTAL 3 BITS AT A TIME. FOR DECIMAL IT CONVERTS INCOMING
000534:                                                                                                  #  WORD AS A FRACTION, KEEPING RESULTS TO DP.
000535:                                                                                                  #  OCTAL RESULTS ARE LEFT IN XREG, YREG, OR ZREG. HI PART OF DEC IN XREG,
000536:                                                                                                  #  YREG, ZREG. THE LOW PARTS IN XREGLP, YREGLP, OR ZREGLP)
000537:                                                                                                  #  DECBRNCH IS LEFT AT +0 FOR OCT, +1 FOR + DEC, +2 FOR - DEC.
000538:                                                                                                  #  IF DSPCOUNT WAS LEFT -, NO MORE DATA IS ACCEPTED.
000539:
000540: 40,2173           34755                           CAF      ZERO
000541: 40,2174           54117                           TS       CHAR
000542: 40,2175           10777        NUM                CCS      DSPCOUNT
000543: 40,2176           02202                           TC       +4                                    #  +
000544: 40,2177           02202                           TC       +3                                    #  +0
000545: 40,2200           02201                           TC       +1                                    #  -BLOCK DATA IN IF DSPCOUNT IS -
000546: 40,2201           05155                           TC       ENDOFJOB                              #  -0
000547: 40,2202           02324                           TC       GETINREL
000548: 40,2203           11015                           CCS      CLPASS                                #  IF CLPASS IS + OR +0, MAKE IT +0.
000549: 40,2204           34755                           CAF      ZERO
000550: 40,2205           55015                           TS       CLPASS
000551: 40,2206           02207                           TC       +1
000552: 40,2207           50117                           INDEX    CHAR
000553: 40,2210           34066                           CAF      RELTAB
000554: 40,2211           74346                           MASK     LOW5
000555: 40,2212           54124                           TS       CODE
000556: 40,2213           30777                           CA       DSPCOUNT
000557: 40,2214           54143                           TS       COUNT
000558: 40,2215           03322                           TC       DSPIN
000559: 40,2216           36244                           CAF      THREE


000561: 40,2217           71000                           MASK     DECBRNCH
000562: 40,2220           10000                           CCS      A                                     #  +0, OCTAL.  +1, + DEC.  +2, - DEC.
000563: 40,2221           02232                           TC       DECTOBIN                              #  +
000564: 40,2222           50137                           INDEX    INREL                                 #  +0 OCTAL
000565: 40,2223           57001                           XCH      VERBREG
000566: 40,2224           54022                           TS       CYL
000567: 40,2225           40022                           CS       CYL
000568: 40,2226           40022                           CS       CYL
000569: 40,2227           56022                           XCH      CYL
000570: 40,2230           60117                           AD       CHAR
000571: 40,2231           02247                           TC       ENDNMTST
000572: 40,2232           50137        DECTOBIN           INDEX    INREL
000573: 40,2233           57001                           XCH      VERBREG
000574: 40,2234           54154                           TS       MPAC                                  #  SUM X 2EXP-14 IN MPAC
000575: 40,2235           34755                           CAF      ZERO
000576: 40,2236           54155                           TS       MPAC       +1
000577: 40,2237           34363                           CAF      TEN                                   #  10 X 2EXP-14
000578: 40,2240           07306                           TC       SHORTMP                               #  10SUM X 2EXP-28 IN MPAC, MPAC+1
000579: 40,2241           56155                           XCH      MPAC       +1
000580: 40,2242           60117                           AD       CHAR
000581: 40,2243           54155                           TS       MPAC       +1
000582: 40,2244           02247                           TC       ENDNMTST                              #  NO OF
000583: 40,2245           26154                           ADS      MPAC                                  #  OF MUST BE 5TH CHAR
000584: 40,2246           02265                           TC       DECEND
000585: 40,2247           50137        ENDNMTST           INDEX    INREL
000586: 40,2250           55001                           TS       VERBREG
000587: 40,2251           40777                           CS       DSPCOUNT
000588: 40,2252           50137                           INDEX    INREL
000589: 40,2253           62315                           AD       CRITCON
000590: 40,2254           00006                           EXTEND
000591: 40,2255           12257                           BZF      ENDNUM                                #  -0, DSPCOUNT = CRITCON
000592: 40,2256           02312                           TC       MORNUM                                #  - , DSPCOUNT G/ CRITCON
000593: 40,2257           36244        ENDNUM             CAF      THREE
000594: 40,2260           71000                           MASK     DECBRNCH
000595: 40,2261           10000                           CCS      A
000596: 40,2262           02265                           TC       DECEND
000597: 40,2263           40777        ENDALL             CS       DSPCOUNT                              #  BLOCK NUMIN BY PLACING DSPCOUNT
000598: 40,2264           02313                           TC       MORNUM     +1                         #  NEGATIVELY
000599: 40,2265           44753        DECEND             CS       ONE
000600: 40,2266           60137                           AD       INREL
000601: 40,2267           00006                           EXTEND
000602: 40,2270           62263                           BZMF     ENDALL                                #  IF INREL=0,1(VBREG,NNREG), LEAVE WHOLE
000603: 40,2271           07102                           TC       DMP                                   #  IF INREL=2,3,4(R1,R2,R3),CONVERT TO FRAC
000604:                                                                                                  #  MULT SUM X 2EXP-28 IN MPAC, MPAC+1 BY
000605: 40,2272           02322                           ADRES    DECON                                 #  2EXP14/10EXP5. GIVES(SUM/10EXP5)X2EXP-14
000606: 40,2273           36244                           CAF      THREE                                 #  IN MPAC, +1, +2.
000607: 40,2274           71000                           MASK     DECBRNCH
000608: 40,2275           50000                           INDEX    A
000609: 40,2276           02276                           TC       +0
000610: 40,2277           02303                           TC       +DECSGN


000612: 40,2300           00006                           EXTEND                                         #  - CASE
000613: 40,2301           40156                           DCS      MPAC       +1
000614: 40,2302           52156                           DXCH     MPAC       +1
000615: 40,2303           56156        +DECSGN            XCH      MPAC       +2
000616: 40,2304           50137                           INDEX    INREL
000617: 40,2305           55004                           TS       XREGLP     -2
000618: 40,2306           56155                           XCH      MPAC       +1
000619: 40,2307           50137                           INDEX    INREL
000620: 40,2310           55001                           TS       VERBREG
000621: 40,2311           02263                           TC       ENDALL
000622: 40,2312           10777        MORNUM             CCS      DSPCOUNT                              #  DECREMENT DSPCOUNT
000623: 40,2313           54777                           TS       DSPCOUNT
000624: 40,2314           05155                           TC       ENDOFJOB
000625:
000626: 40,2315           00022        CRITCON            OCT      22                                    #  (DEC 18)
000627: 40,2316           00020                           OCT      20                                    #  (DEC 16)
000628: 40,2317           00012                           OCT      12                                    #  (DEC 10)
000629: 40,2320           00005                           OCT      5
000630: 40,2321           00000                           OCT      0
000631:
000632: 40,2322           05174 13261  DECON              2DEC     1          E-5        B14             #  2EXP14/10EXP5 = .16384 DEC
000633:
000634:
000635:                                                                                                  #  GETINREL GETS PROPER DATA REG REL ADDRESS FOR CURRENT C(DSPCOUNT) AND
000636:                                                                                                  #  PUTS IN INTO INREL. +0 VERBREG, 1 NOUNREG, 2 XREG, 3 YREG, 4 ZREG.
000637:
000638: 40,2324           50777        GETINREL           INDEX    DSPCOUNT
000639: 40,2325           32330                           CAF      INRELTAB
000640: 40,2326           54137                           TS       INREL                                 #  (A TEMP, REG)
000641: 40,2327           00002                           TC       Q
000642:
000643: 40,2330           00004        INRELTAB           OCT      4                                     #  R3D5 (DSPCOUNT = 0)
000644: 40,2331           00004                           OCT      4                                     #  R3D4           =(1)
000645: 40,2332           00004                           OCT      4                                     #  R3D3           =(2)
000646: 40,2333           00004                           OCT      4                                     #  R3D2           =(3)
000647: 40,2334           00004                           OCT      4                                     #  R3D1           =(4)
000648: 40,2335           00003                           OCT      3                                     #  R2D5           =(5)
000649: 40,2336           00003                           OCT      3                                     #  R2D4           =(6)
000650: 40,2337           00003                           OCT      3                                     #  R2D3           =(7)
000651: 40,2340           00003                           OCT      3                                     #  R2D2           =(8D)
000652: 40,2341           00003                           OCT      3                                     #  R2D1           =(9D)
000653: 40,2342           00002                           OCT      2                                     #  R1D5           =(10D)
000654: 40,2343           00002                           OCT      2                                     #  R1D4           =(11D)
000655: 40,2344           00002                           OCT      2                                     #  R1D3           =(12D)
000656: 40,2345           00002                           OCT      2                                     #  R1D2           =(13D)
000657: 40,2346           00002                           OCT      2                                     #  R1D1           =(14D)
000658: 40,2347           05677                           TC       CCSHOLE                               #  NO DSPCOUNT NUMBER = 15D
000659: 40,2350           00001                           OCT      1                                     #  ND2            =(16D)
000660: 40,2351           00001                           OCT      1                                     #  ND1            =(17D)


000662: 40,2352           00000                           OCT      0                                     #  VD2            =(18D)
000663: 40,2353           00000                           OCT      0                                     #  VD1            =(19D)
000664:
000665: 40,2354           34755        VERB               CAF      ZERO
000666: 40,2355           55001                           TS       VERBREG
000667: 40,2356           34360                           CAF      VD1
000668: 40,2357           54777        NVCOM              TS       DSPCOUNT
000669: 40,2360           02601                           TC       2BLANK
000670: 40,2361           34753                           CAF      ONE
000671: 40,2362           55000                           TS       DECBRNCH                              #  SET FOR DEC V/N CODE
000672: 40,2363           34755                           CAF      ZERO
000673: 40,2364           55013                           TS       REQRET                                #  SET FOR ENTPAS0
000674: 40,2365           34217                           CAF      ENDINST                               #  IF DSPALARM OCCURS BEFORE FIRST ENTPAS0
000675: 40,2366           54136                           TS       ENTRET                                #  OR NVSUB, ENTRET MUST ALREADY BE SET
000676:                                                                                                  #  TO TC ENDOFJOB
000677: 40,2367           05155                           TC       ENDOFJOB
000678: 40,2370           34755        NOUN               CAF      ZERO
000679: 40,2371           55002                           TS       NOUNREG
000680: 40,2372           34361                           CAF      ND1                                   #  ND1, OCT 21 (DEC 17)
000681: 40,2373           02357                           TC       NVCOM
000682:
000683:
000684: 40,2374           02446        NEGSGN             TC       SIGNTEST
000685: 40,2375           02433                           TC       -ON
000686: 40,2376           34752                           CAF      TWO
000687: 40,2377           50137        BOTHSGN            INDEX    INREL                                 #  SET DEC COMP BIT TO 1 (IN DECBRNCH)
000688: 40,2400           64745                           AD       BIT7                                  #  BIT 5 FOR R1,  BIT 4 FOR R2,
000689: 40,2401           27000                           ADS      DECBRNCH                              #  BIT 3 FOR R3.
000690: 40,2402           11015        FIXCLPAS           CCS      CLPASS                                #  IF CLPASS IS + OR +0, MAKE IT +0.
000691: 40,2403           34755                           CAF      ZERO
000692: 40,2404           55015                           TS       CLPASS
000693: 40,2405           02406                           TC       +1
000694: 40,2406           05155                           TC       ENDOFJOB
000695:
000696: 40,2407           02446        POSGN              TC       SIGNTEST
000697: 40,2410           02413                           TC       +ON
000698: 40,2411           34753                           CAF      ONE
000699: 40,2412           02377                           TC       BOTHSGN
000700:
000701: 40,2413           22002        +ON                LXCH     Q
000702: 40,2414           02324                           TC       GETINREL
000703: 40,2415           50137                           INDEX    INREL
000704: 40,2416           32441                           CAF      SGNTAB     -2
000705: 40,2417           54123                           TS       SGNOFF
000706: 40,2420           64753                           AD       ONE
000707: 40,2421           54122                           TS       SGNON
000708: 40,2422           34755        SGNCOM             CAF      ZERO
000709: 40,2423           54124                           TS       CODE
000710: 40,2424           56123                           XCH      SGNOFF


000712: 40,2425           03404                           TC       11DSPIN
000713: 40,2426           34741                           CAF      BIT11
000714: 40,2427           54124                           TS       CODE
000715: 40,2430           56122                           XCH      SGNON
000716: 40,2431           03404                           TC       11DSPIN
000717: 40,2432           00001                           TC       L
000718: 40,2433           22002        -ON                LXCH     Q
000719: 40,2434           02324                           TC       GETINREL
000720: 40,2435           50137                           INDEX    INREL
000721: 40,2436           32441                           CAF      SGNTAB     -2
000722: 40,2437           54122                           TS       SGNON
000723: 40,2440           64753                           AD       ONE
000724: 40,2441           54123                           TS       SGNOFF
000725: 40,2442           02422                           TC       SGNCOM
000726:
000727: 40,2443           00005        SGNTAB             OCT      5                                     #  -R1
000728: 40,2444           00003                           OCT      3                                     #  -R2
000729: 40,2445           00000                           OCT      0                                     #  -R3
000730:
000731:
000732: 40,2446           22002        SIGNTEST           LXCH     Q                                     #  ALLOWS +,- ONLY WHEN DSPCOUNT=R1D1,
000733: 40,2447           36244                           CAF      THREE                                 #  R2D1, OR R3D1. ALLOWS ONLY FIRST OF
000734: 40,2450           71000                           MASK     DECBRNCH                              #  CONSECUTIVE +/- CHARACTERS.
000735: 40,2451           10000                           CCS      A                                     #  IF LOW2 BITS OF DECBRNCH NOT= 0, SIGN
000736: 40,2452           05155                           TC       ENDOFJOB                              #  FOR THIS WORD ALREADY IN. REJECT.
000737: 40,2453           44317                           CS       R1D1
000738: 40,2454           02462                           TC       SGNTST1
000739: 40,2455           44320                           CS       R2D1
000740: 40,2456           02462                           TC       SGNTST1
000741: 40,2457           44321                           CS       R3D1
000742: 40,2460           02462                           TC       SGNTST1
000743: 40,2461           05155                           TC       ENDOFJOB                              #  NO MATCH FOUND. SIGN ILLEGAL
000744: 40,2462           60777        SGNTST1            AD       DSPCOUNT
000745: 40,2463           00006                           EXTEND
000746: 40,2464           12466                           BZF      +2                                    #  MATCH FOUND
000747: 40,2465           00002                           TC       Q
000748: 40,2466           00001                           TC       L                                     #  SIGN LEGAL
000749:
000750:
000751:                                                                                                  #  CLEAR BLANKS WHICH R1, R2, R3 IS CURRENT OR LAST TO BE DISPLAYED(PERTINE
000752:                                                                                                  #  NT XREG,YREG,ZREG IS CLEARED). SUCCESSIVE CLEARS TAKE CARE OF EACH RX
000753:                                                                                                  #  L/ RC UNTIL R1 IS DONE. THEN NO FURTHER ACTION
000754:
000755:                                                                                                  #  THE SINGLE COMPONENT LOAD VERBS ALLOW ONLY THE SINGLE RC THAT IS
000756:                                                                                                  #  APPROPRIATE TO BE CLEARED.
000757:
000758:                                                                                                  #  CLPASS   +0  PASS0, CAN BE BACKED UP
000759:                                                                                                  #           +NZ  HIPASS, CAN BE BACKED UP
000760:                                                                                                  #           -NZ  PASS0, CANNOT BE BACKED UP
000761:


000763: 40,2467           10777        CLEAR              CCS      DSPCOUNT
000764: 40,2470           64753                           AD       ONE
000765: 40,2471           02473                           TC       +2
000766: 40,2472           64753                           AD       ONE
000767: 40,2473           50000                           INDEX    A                                     #  DO NOT CHANGE DSPCOUNT BECAUSE MAY LATER
000768: 40,2474           32330                           CAF      INRELTAB                              #  FAIL LEGALTST.
000769: 40,2475           54137                           TS       INREL                                 #  MUST SET INREL, EVEN FOR HIPASS.
000770: 40,2476           11015                           CCS      CLPASS
000771: 40,2477           02505                           TC       CLPASHI                               #  +
000772: 40,2500           02502                           TC       +2                                    #  +0    IF CLPASS IS +0 OR -, IT IS PASS0
000773: 40,2501           02502                           TC       +1                                    #  -
000774: 40,2502           30137                           CA       INREL
000775: 40,2503           02527                           TC       LEGALTST
000776: 40,2504           02522                           TC       CLEAR1
000777: 40,2505           10137        CLPASHI            CCS      INREL
000778: 40,2506           54137                           TS       INREL
000779: 40,2507           02527                           TC       LEGALTST
000780: 40,2510           32577                           CAF      DOUBLK     +2                         #  +3 TO - NUMBER. BACKS DATA REQUESTS.
000781: 40,2511           27013                           ADS      REQRET
000782: 40,2512           30137                           CA       INREL
000783: 40,2513           54125                           TS       MIXTEMP                               #  TEMP STORAGE FOR INREL
000784: 40,2514           00006                           EXTEND
000785: 40,2515           27001                           DIM      VERBREG                               #  DECREMENT VERB AND RE-DISPLAY
000786: 40,2516           04616                           TC       BANKCALL
000787: 40,2517           62340                           CADR     UPDATVB
000788: 40,2520           30125                           CA       MIXTEMP
000789: 40,2521           54137                           TS       INREL                                 #  RESTORE INREL
000790: 40,2522           02525        CLEAR1             TC       CLR5
000791: 40,2523           25015                           INCR     CLPASS                                #  ONLY IF CLPASS IS + OR +0,
000792: 40,2524           05155                           TC       ENDOFJOB                              #  SET FOR HIGHER PASS.
000793: 40,2525           22002        CLR5               LXCH     Q                                     #  USES 5BLANK  BUT AVOIDS ITS TC GETINREL
000794: 40,2526           02540                           TC       5BLANK     +2
000795: 40,2527           67745        LEGALTST           AD       NEG2
000796: 40,2530           10000                           CCS      A
000797: 40,2531           00002                           TC       Q                                     #  LEGAL  INREL G/ 2
000798: 40,2532           05677                           TC       CCSHOLE
000799: 40,2533           05155                           TC       ENDOFJOB                              #  ILLEGAL   INREL= 0,1
000800: 40,2534           00002                           TC       Q                                     #  LEGAL    INREL = 2
000801:
000802:
000803:                                                                                                  #  5BLANK BLANKS 5 CHAR DISPLAY WORD IN R1, R2, OR R3. IT ALSO ZEROES XREG,
000804:                                                                                                  #  YREG, OR ZREG.PLACE ANY + DSPCOUNT NUMBER FOR PERTINENT RC INTO DSPCOUNT
000805:                                                                                                  #  DSPCOUNT IS LEFT SET TO LEFT MOST DSP NUMB FOR RC JUST BLANKED.
000806:
000807: 40,2535           54777                           TS       DSPCOUNT                              #  NEEDED FOR BLANKSUB
000808: 40,2536           22002        5BLANK             LXCH     Q
000809: 40,2537           02324                           TC       GETINREL
000810: 40,2540           34755                           CAF      ZERO
000811: 40,2541           50137                           INDEX    INREL
000812: 40,2542           55001                           TS       VERBREG                               #  ZERO X, Y, Z REG.


000814: 40,2543           50137                           INDEX    INREL
000815: 40,2544           55004                           TS       XREGLP     -2
000816: 40,2545           54124                           TS       CODE
000817: 40,2546           50137                           INDEX    INREL                                 #  ZERO PERTINENT DEC COMP BIT.
000818: 40,2547           44745                           CS       BIT7                                  #  PROTECT OTHERS
000819: 40,2550           71000                           MASK     DECBRNCH
000820: 40,2551           72600                           MASK     BRNCHCON                              #  ZERO LOW 2 BITS.
000821: 40,2552           55000                           TS       DECBRNCH
000822: 40,2553           50137                           INDEX    INREL
000823: 40,2554           32570                           CAF      SINBLANK   -2                         #  BLANK ISOLATED CHAR SEPARATELY
000824: 40,2555           54143                           TS       COUNT
000825: 40,2556           03322                           TC       DSPIN
000826: 40,2557           50137        5BLANK1            INDEX    INREL
000827: 40,2560           32573                           CAF      DOUBLK     -2
000828: 40,2561           54777                           TS       DSPCOUNT
000829: 40,2562           02601                           TC       2BLANK
000830: 40,2563           44752                           CS       TWO
000831: 40,2564           26777                           ADS      DSPCOUNT
000832: 40,2565           02601                           TC       2BLANK
000833: 40,2566           50137                           INDEX    INREL
000834: 40,2567           34315                           CAF      R1D1       -2
000835: 40,2570           54777                           TS       DSPCOUNT                              #  SET DSPCOUNT TO LEFT MOST DSP NUMBER
000836: 40,2571           00001                           TC       L                                     #  OF REG. JUST BLANKED
000837:
000838: 40,2572           00016        SINBLANK           OCT      16                                    #  DEC 14
000839: 40,2573           00005                           OCT      5
000840: 40,2574           00004                           OCT      4
000841: 40,2575           00015        DOUBLK             OCT      15                                    #  DEC 13
000842: 40,2576           00011                           OCT      11                                    #  DEC 9
000843: 40,2577           00003                           OCT      3
000844:
000845: 40,2600           77774        BRNCHCON           OCT      77774
000846:
000847:                                                                                                  #  2BLANK BLANKS TWO CHAR. PLACE DSP NUMBER OF LEFT CHAR  OF THE PAIR INTO
000848:                                                                                                  #  DSPCOUNT. THIS NUMBER IS LEFT IN DSPCOUNT
000849:
000850: 40,2601           30777        2BLANK             CA       DSPCOUNT
000851: 40,2602           54021                           TS       SR
000852: 40,2603           42614                           CS       BLANKCON
000853: 40,2604           00004                           INHINT
000854: 40,2605           50021                           INDEX    SR
000855: 40,2606           57023                           XCH      DSPTAB
000856: 40,2607           00006                           EXTEND
000857: 40,2610           62612                           BZMF     +2                                    #  IF OLD CONTENTS -, NOUT OK
000858: 40,2611           25016                           INCR     NOUT                                  #  IF OLD CONTENTS +, +1 TO NOUT
000859: 40,2612           00003                           RELINT                                         #  IF -,NOUT OK
000860: 40,2613           00002                           TC       Q
000861: 40,2614           04000        BLANKCON           OCT      4000
000862:


000864:                                                                                                  #  ENTER PASS 0 IS THE EXECUTE FUNCTION. HIGHER ORDER ENTERS ARE TO LOAD
000865:                                                                                                  #  DATA. THE SIGN OF REQRET DETERMINES THE PASS, + FOR PASS 0,- FOR HIGHER
000866:                                                                                                  #  PASSES.
000867:
000868:
000869:                                                                                                  #  MACHINE CADR TO BE SPECIFIED (MCTBS) NOUNS DESIRE AN ECADR TO BE LOADED
000870:                                                                                                  #  WHEN USED WITH LOAD VERBS, MONITOR VERBS, OR DISPLAY VERBS (EXCEPT
000871:                                                                                                  #  VERB = FIXED MEMORY DISPLAY, WHICH REQUIRES AN FCADR).
000872:
000873:
000874: 41,2000                                           BANK     41
000875: 41,2000                                           SETLOC   PINBALL2
000876: 41,2000                                           BANK
000877:
000878: 41,2000                                           COUNT*   $$/PIN
000879: 41,2000           03544        NVSUBB             TC       NVSUB1                                #  STANDARD LEAD INS. DONT MOVE.
000880: 41,2001           02775        LOADLV1            TC       LOADLV
000881:                                                                                                  #  END OF STANDARD LEAD INS.
000882:
000883:
000884: 41,2002           34755        ENTER              CAF      ZERO
000885: 41,2003           55015                           TS       CLPASS
000886: 41,2004           34217                           CAF      ENDINST
000887: 41,2005           54136                           TS       ENTRET
000888: 41,2006           11013                           CCS      REQRET
000889: 41,2007           02035                           TC       ENTPAS0                               #  IF +, PASS 0
000890: 41,2010           02035                           TC       ENTPAS0                               #  IF +, PASS 0
000891: 41,2011           02012                           TC       +1                                    #  IF -, NOT PASS 0
000892: 41,2012           32033        ENTPASHI           CAF      MMADREF
000893: 41,2013           61013                           AD       REQRET                                #  IF L/ 2 CHAR IN FOR MM CODE, ALARM
000894: 41,2014           00006                           EXTEND                                         #  AND RECYCLE(DECIDE AT MMCHANG+1).
000895: 41,2015           12027                           BZF      ACCEPTWD
000896: 41,2016           36244                           CAF      THREE                                 #  IF DEC, ALARM IF L/ 5 CHAR IN FOR DATA,
000897: 41,2017           71000                           MASK     DECBRNCH                              #  BUT LEAVE REQRET - AND FLASH ON, SO
000898: 41,2020           10000                           CCS      A                                     #  OPERATOR CAN SUPPLY MISSING NUMERICAL
000899: 41,2021           02023                           TC       +2                                    #  CHARACTERS AND CONTINUE.
000900: 41,2022           02027                           TC       ACCEPTWD                              #  OCTAL. ANY NUMBER OF CHAR OK.
000901: 41,2023           10777                           CCS      DSPCOUNT
000902: 41,2024           02351                           TC       GODSPALM                              #  LESS THAN 5 CHAR DEC(DSPCOUNT IS +)
000903: 41,2025           02351                           TC       GODSPALM                              #  LESS THAN 5 CHAR DEC(DSPCOUNT IS +)
000904: 41,2026           02027                           TC       +1                                    #  5 CHAR IN (DSPCOUNT IS -)
000905: 41,2027           41013        ACCEPTWD           CS       REQRET                                #  5 CHAR IN (DSPCOUNT IS -)
000906: 41,2030           55013                           TS       REQRET                                #  SET REQRET +.
000907: 41,2031           04433                           TC       FLASHOFF
000908: 41,2032           01013                           TC       REQRET
000909:
000910: 41,2033     0136               ENTEXIT            =        ENTRET
000911:
000912: 41,2033           03431        MMADREF            ADRES    MMCHANG    +1                         #  ASSUMES TC REQMM AT MMCHANG.
000913:


000915: 41,2034           00034        LOWVERB            DEC      28         B-14                       #  LOWER VERB THAT AVOIDS NOUN TEST.
000916:
000917: 41,2035           34755        ENTPAS0            CAF      ZERO                                  #   NOUN VERB SUB ENTERS HERE
000918: 41,2036           55000                           TS       DECBRNCH
000919: 41,2037           44360                           CS       VD1                                   #  BLOCK FURTHER NUM CHAR, SO THAT STRAY
000920: 41,2040           54777                           TS       DSPCOUNT                              #  CHAR DO NOT GET INTO VERB OR NOUN LTS.
000921: 41,2041           41001        TESTVB             CS       VERBREG                               #  IF VERB IS G/E LOWVB, SKIP NOUN TEST.
000922: 41,2042           55041                           TS       VERBSAVE                              #  SAVE VERB FOR POSSIBLE RECYCLE.
000923: 41,2043           62034                           AD       LOWVERB                               #  LOWVERB - VB
000924: 41,2044           00006                           EXTEND
000925: 41,2045           62133                           BZMF     VERBFAN                               #  VERB G/E LOWVERB
000926: 41,2046           00006        TESTNN             EXTEND                                         #  VERB L/ LOWVERB
000927: 41,2047           32114                           DCA      LODNNLOC                              #  SWITCH BANKS TO NOUN TABLE READING
000928: 41,2050           52006                           DXCH     Z                                     #  ROUTINE.
000929: 41,2051           50140                           INDEX    MIXBR
000930: 41,2052           02052                           TC       +0
000931: 41,2053           02055                           TC       +2                                    #  NORMAL
000932: 41,2054           02221                           TC       MIXNOUN                               #  MIXED
000933: 41,2055           10146                           CCS      NNADTEM                               #  NORMAL
000934: 41,2056           02131                           TC       VERBFAN    -2                         #       NORMAL IF +
000935: 41,2057           02351                           TC       GODSPALM                              #  NOT IN USE   IF +0
000936: 41,2060           02064                           TC       REQADD                                #  SPECIFY MACHINE CADR IF -
000937: 41,2061           25017                           INCR     NOUNCADR                              #  AUGMENT MACHINE CADR IF -0
000938: 41,2062           04311                           TC       SETNADD                               #  ECADR FROM NOUNCADR. SETS EB, NOUNADD.
000939: 41,2063           02120                           TC       INTMCTBS   +2
000940: 41,2064           34735        REQADD             CAF      BIT15                                 #  SET CLPASS FOR PASS0 ONLY
000941: 41,2065           55015                           TS       CLPASS
000942: 41,2066           44217                           CS       ENDINST                               #  TEST IF REACHED HERE FROM INTERNAL OR
000943: 41,2067           60136                           AD       ENTEXIT                               #              FROM EXTERNAL
000944: 41,2070           00006                           EXTEND
000945: 41,2071           12073                           BZF      +2                                    #  EXTERNAL MACH CADR TO BE SPECIFIED
000946: 41,2072           02116                           TC       INTMCTBS
000947: 41,2073           02307                           TC       REQDATZ                               #  EXTERNAL MACH CADR TO BE SPECIFIED
000948: 41,2074           11000                           CCS      DECBRNCH                              #  ALARM AND RECYCLE IF DECIMAL USED
000949: 41,2075           04145                           TC       ALMCYCLE                              #  FOR MCTBS.
000950: 41,2076           44360                           CS       VD1                                   #  OCTAL USED  OK
000951: 41,2077           54777                           TS       DSPCOUNT                              #  BLOCK NUM CHAR IN
000952: 41,2100           11042                           CCS      CADRSTOR
000953: 41,2101           02104                           TC       +3                                    #  EXTERNAL MCTBS DISPLAY WILL LEAVE FLASH
000954: 41,2102           02105                           TC       USEADD                                #  ON IF ENDIDLE NOT = +0.
000955: 41,2103           02104                           TC       +1
000956: 41,2104           04427                           TC       FLASHON
000957: 41,2105           57005        USEADD             XCH      ZREG
000958: 41,2106           04303                           TC       SETNCADR                              #  ECADR INTO NOUNCADR. SET EB, NOUNADD.
000959: 41,2107           00006                           EXTEND
000960: 41,2110           32114                           DCA      LODNNLOC                              #  SWITCH BANKS TO NOUN TABLE READING
000961: 41,2111           52006                           DXCH     Z                                     #  ROUTINE.
000962: 41,2112           02133                           TC       VERBFAN
000963:
000964: 41,2113     0777                                  EBANK=   DSPCOUNT


000966: 41,2113           02103 64101  LODNNLOC           2CADR    LODNNTAB
000967:
000968:
000969: 41,2115           77772        NEG5               OCT      77772
000970:
000971: 41,2116           30156        INTMCTBS           CA       MPAC       +2                         #  INTERNAL MACH CADR TO BE SPECIFIED.
000972: 41,2117           04303                           TC       SETNCADR                              #  ECADR INTO NOUNCADR. SET EB, NOUNADD.
000973: 41,2120           44756                           CS       FIVE                                  #  NVSUB CALL LEFT CADR IN MPAC+2 FOR MACH
000974: 41,2121           61001                           AD       VERBREG                               #  CADR TO BE SPECIFIED.
000975: 41,2122           00006                           EXTEND
000976: 41,2123           12133                           BZF      VERBFAN                               #  DONT DISPLAY CADR IF VB = 05.
000977: 41,2124           34321                           CAF      R3D1                                  #  VB NOT = 05. DISPLAY CADR.
000978: 41,2125           54777                           TS       DSPCOUNT
000979: 41,2126           31017                           CA       NOUNCADR
000980: 41,2127           03363                           TC       DSPOCTWD
000981: 41,2130           02133                           TC       VERBFAN
000982:
000983: 41,2131           64753                           AD       ONE
000984: 41,2132           04303                           TC       SETNCADR                              #  ECADR INTO NOUNCADR. SETS EB, NOUNADD.
000985: 41,2133           42145        VERBFAN            CS       LST2CON
000986: 41,2134           61001                           AD       VERBREG                               #  VERB-LST2CON
000987: 41,2135           10000                           CCS      A
000988: 41,2136           64753                           AD       ONE                                   #  VERB G/ LST2CON
000989: 41,2137           02141                           TC       +2
000990: 41,2140           02146                           TC       VBFANDIR                              #  VERB L/ LST2CON
000991: 41,2141           54154                           TS       MPAC
000992: 41,2142           04457                           TC       RELDSP                                #  RELEASE DISPLAY SYST
000993: 41,2143           04635                           TC       POSTJUMP                              #  GO TO GOEXTVB WITH VB-40 IN MPAC.
000994: 41,2144           66000                           CADR     GOEXTVB
000995: 41,2145           00050        LST2CON            DEC      40         B-14                       #  FIRST LIST2 VERB (EXTENDED VERB)
000996:
000997: 41,2146           51001        VBFANDIR           INDEX    VERBREG
000998: 41,2147           32151                           CAF      VERBTAB
000999: 41,2150           04640                           TC       BANKJUMP
001000:
001001: 41,2151           62351        VERBTAB            CADR     GODSPALM                              #  VB00 ILLEGAL
001002: 41,2152           62365                           CADR     DSPA                                  #  VB01 DISPLAY OCT COMP 1 (R1)
001003: 41,2153           62373                           CADR     DSPB                                  #  VB02 DISPLAY OCT COMP 2 (R1)
001004: 41,2154           62400                           CADR     DSPC                                  #  VB03 DISPLAY OCT COMP 3 (R1)
001005: 41,2155           62360                           CADR     DSPAB                                 #  VB04 DISPLAY OCT COMP 1,2 (R1,R2)
001006: 41,2156           62353                           CADR     DSPABC                                #  VB05 DISPLAY OCT COMP 1,2,3 (R1,R2,R3)
001007: 41,2157           62523                           CADR     DECDSP                                #  VB06 DECIMAL DISPLAY
001008: 41,2160           60771                           CADR     DSPDPDEC                              #  VB07 DP DECIMAL DISPLAY (R1,R2)
001009: 41,2161           62351                           CADR     GODSPALM                              #  VB08 SPARE
001010: 41,2162           62351                           CADR     GODSPALM                              #  VB09 SPARE
001011: 41,2163           61420                           CADR     DSPALARM                              #  VB10 SPARE
001012: 41,2164           63230                           CADR     MONITOR                               #  VB11 MONITOR OCT COMP 1 (R1)
001013: 41,2165           63230                           CADR     MONITOR                               #  VB12 MONITOR OCT COMP 2 (R1)
001014: 41,2166           63230                           CADR     MONITOR                               #  VB13 MONITOR OCT COMP 3 (R1)
001015: 41,2167           63230                           CADR     MONITOR                               #  VB14 MONITOR OCT COMP 1,2 (R1,R2)


001017: 41,2170           63230                           CADR     MONITOR                               #  VB15 MONITOR OCT COMP 1,2,3 (R1,R2,R3)
001018: 41,2171           63230                           CADR     MONITOR                               #  VB16 MONITOR DECIMAL
001019: 41,2172           63230                           CADR     MONITOR                               #  VB17 MONITOR DP DEC  (R1,R2)
001020: 41,2173           62351                           CADR     GODSPALM                              #  VB18 SPARE
001021: 41,2174           62351                           CADR     GODSPALM                              #  VB19 SPARE
001022: 41,2175           62351                           CADR     GODSPALM                              #  VB20 SPARE
001023: 41,2176           62732                           CADR     ALOAD                                 #  VB21 LOAD COMP 1 (R1)
001024: 41,2177           62743                           CADR     BLOAD                                 #  VB22 LOAD COMP 2 (R2)
001025: 41,2200           62760                           CADR     CLOAD                                 #  VB23 LOAD COMP 3 (R3)
001026: 41,2201           62703                           CADR     ABLOAD                                #  VB24 LOAD COMP 1,2 (R1,R2)
001027: 41,2202           62616                           CADR     ABCLOAD                               #  VB25 LOAD COMP 1,2,3 (R1,R2,R3)
001028: 41,2203           62351                           CADR     GODSPALM                              #  VB26 SPARE
001029: 41,2204           63353                           CADR     DSPFMEM                               #  VB27 FIXED MEMORY DISPLAY
001030:                                                                                                  #  THE FOLLOWING VERBS MAKE NO NOUN TEST
001031: 41,2205           62351                           CADR     GODSPALM                              #  VB28 SPARE
001032: 41,2206           62351                           CADR     GODSPALM                              #  VB29 SPARE
001033: 41,2207           63466        REQEXLOC           CADR     VBRQEXEC                              #  VB30 REQUEST EXECUTIVE
001034: 41,2210           63512                           CADR     VBRQWAIT                              #  VB31 REQUEST WAITLIST
001035: 41,2211           61455                           CADR     VBRESEQ                               #  VB32 RESEQUENCE
001036: 41,2212           61440                           CADR     VBPROC                                #  VB33 PROCEED WITHOUT DATA
001037: 41,2213           61446                           CADR     VBTERM                                #  VB34 TERMINATE CURRENT TEST OR LOAD REQ
001038: 41,2214           63613                           CADR     VBTSTLTS                              #  VB35 TEST LIGHTS
001039: 41,2215           12447                           CADR     SLAP1                                 #  VB36 FRESH START
001040: 41,2216           63430                           CADR     MMCHANG                               #  VB37 CHANGE MAJOR MODE
001041: 41,2217           62351                           CADR     GODSPALM                              #  VB38 SPARE
001042: 41,2220           62351                           CADR     GODSPALM                              #  VB39 SPARE
001043:
001044:
001045:                                                                                                  #  THE LIST2 VERBFAN IS LOCATED IN THE EXTENDED VERB BANK.
001046:


001048:                                                                                                  #  NNADTAB CONTAINS A RELATIVE ADDRESS, IDADDREL(IN LOW 10 BITS), REFERRING
001049:                                                                                                  #  TO WHERE 3 CONSECUTIVE ADDRESSES ARE STORED (IN IDADDTAB).
001050:                                                                                                  #  MIXNOUN GETS DATA AND STORES IN MIXTEMP,+1,+2. IT SETS NOUNADD FOR
001051:                                                                                                  #   MIXTEMP.
001052:
001053: 41,2221           10146        MIXNOUN            CCS      NNADTEM
001054: 41,2222           02226                           TC       +4                                    #  +  IN USE
001055: 41,2223           02351                           TC       GODSPALM                              #  +0  NOT IN USE
001056: 41,2224           02226                           TC       +2                                    #  -  IN USE
001057: 41,2225           02226                           TC       +1                                    #  -0  IN USE
001058: 41,2226           46241                           CS       SIX
001059: 41,2227           61001                           AD       VERBREG
001060: 41,2230           00006                           EXTEND
001061: 41,2231           62233                           BZMF     +2                                    #  VERB L/E 6
001062: 41,2232           02133                           TC       VERBFAN                               #  AVOID MIXNOUN SWAP IF VB NOT = DISPLAY
001063: 41,2233           34752                           CAF      TWO
001064: 41,2234           54117        MIXNN1             TS       DECOUNT
001065: 41,2235           62260                           AD       MIXAD
001066: 41,2236           54145                           TS       NOUNADD                               #  SET NOUNADD TO MIXTEMP + K
001067: 41,2237           50117                           INDEX    DECOUNT                               #  GET IDADDTAB ENTRY FOR COMPONENT K
001068: 41,2240           30150                           CA       IDAD1TEM                              #  OF NOUN.
001069: 41,2241           54122                           TS       NOUNTEM
001070:                                                                                                  #  TEST FOR DP(FOR OCT DISPLAY). IF SO, GET
001071:                                                                                                  #    MINOR PART ONLY.
001072: 41,2242           03034                           TC       SFRUTMIX                              #  GET SF ROUT NUMBER IN A
001073: 41,2243           02261                           TC       DPTEST
001074: 41,2244           02246                           TC       MIXNN2                                #  NO DP
001075: 41,2245           24122                           INCR     NOUNTEM                               #  DP GET MINOR PART
001076: 41,2246           30122        MIXNN2             CA       NOUNTEM
001077: 41,2247           74356                           MASK     LOW11                                 #  ESUBK (NO DP) OR (ESUBK)+1     FOR DP
001078: 41,2250           04313                           TC       SETEBANK                              #  SET EBANK, LEAVE EADRES IN A.
001079: 41,2251           50000                           INDEX    A                                     #  PICK UP C(ESUBK)  NOT DP
001080: 41,2252           30000                           CA       0                                     #  OR C((ESUBK)+1)  FOR DP MINOR PART
001081: 41,2253           50145                           INDEX    NOUNADD
001082: 41,2254           56000                           XCH      0                                     #  STORE IN MIXTEM + K
001083: 41,2255           10117                           CCS      DECOUNT
001084: 41,2256           02234                           TC       MIXNN1
001085: 41,2257           02133                           TC       VERBFAN
001086:
001087: 41,2260           00125        MIXAD              TC       MIXTEMP
001088:
001089:
001090:                                                                                                  #  DPTEST   ENTER WITH SF ROUT NUMBER IN A.
001091:                                                                                                  #           RETURNS TO L+1 IF NO DP.
001092:                                                                                                  #           RETURNS TO L+2 IF DP.
001093:
001094: 41,2261           50000        DPTEST             INDEX    A
001095: 41,2262           12263                           TCF      +1
001096: 41,2263           00002                           TC       Q                                     #  OCTAL ONLY  NO DP
001097: 41,2264           00002                           TC       Q                                     #  FRACT NO DP


001099: 41,2265           00002                           TC       Q                                     #  DEG  NO DP
001100: 41,2266           00002                           TC       Q                                     #  ARITH  NO DP
001101: 41,2267           12301                           TCF      DPTEST1                               #  DP1OUT
001102: 41,2270           12301                           TCF      DPTEST1                               #  DP2OUT
001103: 41,2271           00002                           TC       Q                                     #  LRPOSOUT NO DP (DATA IN CHANNEL 33)
001104: 41,2272           12301                           TCF      DPTEST1                               #  DP3OUT
001105: 41,2273           00002                           TC       Q                                     #  HMS   NO DP
001106: 41,2274           00002                           TC       Q                                     #  M/S   NO DP
001107: 41,2275           12301                           TCF      DPTEST1                               #  DP4OUT
001108: 41,2276           00002                           TC       Q                                     #  ARITH1   NO DP
001109: 41,2277           00002                           TC       Q                                     #  2INTOUT  NO DP TO GET HI PART IN MPAC
001110: 41,2300           00002                           TC       Q                                     #  360-CDU   NO DP
001111: 41,2301           50002        DPTEST1            INDEX    Q
001112: 41,2302           00001                           TC       1                                     #  RETURN TO L+2
001113:
001114:
001115: 41,2303           34317        REQDATX            CAF      R1D1
001116: 41,2304           12310                           TCF      REQCOM
001117: 41,2305           34320        REQDATY            CAF      R2D1
001118: 41,2306           12310                           TCF      REQCOM
001119: 41,2307           34321        REQDATZ            CAF      R3D1
001120: 41,2310           54777        REQCOM             TS       DSPCOUNT
001121: 41,2311           40002                           CS       Q
001122: 41,2312           55013                           TS       REQRET
001123: 41,2313           04616                           TC       BANKCALL
001124: 41,2314           60536                           CADR     5BLANK
001125: 41,2315           04427                           TC       FLASHON
001126: 41,2316           00136        ENDRQDAT           TC       ENTEXIT
001127:
001128: 41,2317           55002                           TS       NOUNREG
001129: 41,2320           56002        UPDATNN            XCH      Q
001130: 41,2321           54117                           TS       UPDATRET
001131: 41,2322           00006                           EXTEND
001132: 41,2323           32114                           DCA      LODNNLOC                              #  SWITCH BANKS TO NOUN TABLE READING
001133: 41,2324           52006                           DXCH     Z                                     #  ROUTINE.
001134: 41,2325           10146                           CCS      NNADTEM
001135: 41,2326           64753                           AD       ONE                                   #  NORMAL
001136: 41,2327           12332                           TCF      PUTADD
001137: 41,2330           12333                           TCF      PUTADD     +1                         #  MCTBS  DONT CHANGE NOUNADD
001138: 41,2331           12333                           TCF      PUTADD     +1                         #  MCTBI  DONT CHANGE NOUNADD
001139: 41,2332           04303        PUTADD             TC       SETNCADR                              #  ECADR INTO NOUNCADR. SETS EB, NOUNADD.
001140: 41,2333           34361                           CAF      ND1
001141: 41,2334           54777                           TS       DSPCOUNT
001142: 41,2335           31002                           CA       NOUNREG
001143: 41,2336           12345                           TCF      UPDAT1
001144:
001145: 41,2337           55001                           TS       VERBREG
001146: 41,2340           56002        UPDATVB            XCH      Q
001147: 41,2341           54117                           TS       UPDATRET
001148: 41,2342           34360                           CAF      VD1


001150: 41,2343           54777                           TS       DSPCOUNT
001151: 41,2344           31001                           CA       VERBREG
001152: 41,2345           04635        UPDAT1             TC       POSTJUMP                              #  CANT USE SWCALL TO GO TO DSPDECVN,SINCE
001153: 41,2346           61317                           CADR     GOVNUPDT                              #  UPDATVB CAN ITSELF BE CALLED BY SWCALL.
001154: 41,2347           00117                           TC       UPDATRET
001155:
001156:
001157: 41,2350           04145        GOALMCYC           TC       ALMCYCLE                              #  NEEDED BECAUSE BANKJUMP CANT HANDLE F/F.
001158:
001159:
001160: 41,2351           04635        GODSPALM           TC       POSTJUMP
001161: 41,2352           61420                           CADR     DSPALARM
001162:


001164:                                                                                                  #           NOUN   TABLES
001165:                                                                                                  #  NOUN CODE L/40, NORMAL NOUN CASE.  NOUN CODE G/E 40, MIXED NOUN CASE.
001166:                                                                                                  #  FOR NORMAL CASE, NNADTAB CONTAINS ONE       ECADR     FOR EACH NOUN.
001167:                                                                                                  #  +0 INDICATES NOUN NOT USED.   - ENTRY INDICATES MACHINE CADR(E OR F) TO
001168:                                                                                                  #  BE SPECIFIED. -1 INDICATES CHANNEL TO BE SPECIFIED. -0 INDICATES AUGMENT
001169:                                                                                                  #  OF LAST MACHINE CADR SUPPLIED.
001170:
001171:                                                                                                  #  FOR MIXED CASE, NNADTAB CONTAINS ONE INDIRECT ADDRESS(IDADDREL) IN LOW
001172:                                                                                                  #  10 BITS, AND THE COMPONENT CODE NUMBER IN THE HIGH 5 BITS.
001173:
001174:                                                                                                  #  NNTYPTAB IS A PACKED TABLE OF THE FORM MMMMMNNNNNPPPPP.
001175:
001176:                                                                                                  #  FOR THE NORMAL CASE, M-S ARE THE COMPONENT CODE NUMBER.
001177:                                                                                                  #                       N-S ARE THE SF ROUTINE CODE NUMBER.
001178:                                                                                                  #                       P-S ARE THE SF CONSTANT CODE NUMBER.
001179:
001180:                                                                                                  #  MIXED CASE,M-S ARE THE SF CONSTANT3 CODE NUMBER     3 COMPONENT CASE
001181:                                                                                                  #             N-S ARE THE SF CONSTANT2 CODE NUMBER
001182:                                                                                                  #             P-S ARE THE SF CONSTANT1 CODE NUMBER
001183:                                                                                                  #             N-S ARE THE SF CONSTANT2 CODE NUMBER     2 COMPONENT CASE
001184:                                                                                                  #             P-S ARE THE SF CONSTANT1 CODE NUMBER
001185:                                                                                                  #             P-S ARE THE SF CONSTANT1 CODE NUMBER      1 COMPONENT CASE
001186:
001187:                                                                                                  #  THERE IS ALSO AN INDIRECT ADDRESS TABLE(IDADDTAB) FOR MIXED CASE ONLY.
001188:                                                                                                  #  EACH ENTRY CONTAINS ONE ECADR.    IDADDREL IS THE RELATIVE ADDRESS OF
001189:                                                                                                  #  THE FIRST OF THESE ENTRIES.
001190:                                                                                                  #  THERE IS ONE ENTRY IN THIS TABLE FOR EACH COMPONENT OF A MIXED NOUN
001191:                                                                                                  #  THEY ARE LISTED IN ORDER OF ASCENDING K.
001192:
001193:                                                                                                  #  THERE IS ALSO A SCALE FACTOR ROUTINE NUMBER TABLE( RUTMXTAB ) FOR MIXED
001194:                                                                                                  #  CASE ONLY. THERE IS ONE ENTRY PER MIXED NOUN. THE FORM IS,
001195:                                                                                                  #        QQQQQRRRRRSSSSS
001196:                                                                                                  #  Q-S ARE THE SF ROUTINE 3 CODE NUMBER     3 COMPONENT CASE
001197:                                                                                                  #  R-S ARE THE SF ROUTINE 2 CODE NUMBER
001198:                                                                                                  #  S-S ARE THE SF ROUTINE 1 CODE NUMBER
001199:                                                                                                  #  R-S ARE THE SF ROUTINE 2 CODE NUMBER     2 COMPONENT CASE
001200:                                                                                                  #  S-S ARE THE SF ROUTINE 1 CODE NUMBER
001201:
001202:
001203:                                                                                                  #  IN OCTAL DISPLAY AND LOAD (OCT OR DEC) VERBS, EXCLUDE USE OF VERBS WHOSE
001204:                                                                                                  #  COMPONENT NUMBER IS GREATER THAN THE NUMBER OF COMPONENTS IN NOUN.
001205:                                                                                                  #  (ALL MACHINE ADDRESS TO BE SPECIFIED NOUNS ARE 3 COMPONENT.)
001206:
001207:
001208:                                                                                                  #  IN MULTI-COMPONENT LOAD VERBS, NO MIXING OF OCTAL AND DECIMAL DATA
001209:                                                                                                  #  COMPONENT WORDS IS ALLOWED. ALARM IF VIOLATION.
001210:
001211:                                                                                                  #  IN DECIMAL LOADS OF DATA, 5 NUMERICAL CHARACTERS MUST BE KEYED IN
001212:                                                                                                  #  BEFORE EACH ENTER. IF NOT, ALARM.
001213:


001215:                                                                                                  #           DISPLAY  VERBS
001216: 41,2353           44752        DSPABC             CS       TWO
001217: 41,2354           02424                           TC       COMPTEST
001218: 41,2355           50145                           INDEX    NOUNADD
001219: 41,2356           40002                           CS       2
001220: 41,2357           56132                           XCH      BUF        +2
001221: 41,2360           44753        DSPAB              CS       ONE
001222: 41,2361           02424                           TC       COMPTEST
001223: 41,2362           50145                           INDEX    NOUNADD
001224: 41,2363           40001                           CS       1
001225: 41,2364           56131                           XCH      BUF        +1
001226: 41,2365           02443        DSPA               TC       DECTEST
001227: 41,2366           02466                           TC       TSTFORDP
001228: 41,2367           50145                           INDEX    NOUNADD
001229: 41,2370           40000                           CS       0
001230: 41,2371           56130        DSPCOM1            XCH      BUF
001231: 41,2372           02405                           TC       DSPCOM2
001232: 41,2373           44753        DSPB               CS       ONE
001233: 41,2374           02437                           TC       DCOMPTST
001234: 41,2375           50145                           INDEX    NOUNADD
001235: 41,2376           40001                           CS       1
001236: 41,2377           02371                           TC       DSPCOM1
001237: 41,2400           44752        DSPC               CS       TWO
001238: 41,2401           02437                           TC       DCOMPTST
001239: 41,2402           50145                           INDEX    NOUNADD
001240: 41,2403           40002                           CS       2
001241: 41,2404           02371                           TC       DSPCOM1
001242: 41,2405           44752        DSPCOM2            CS       TWO                                   #  A  B  C  AB ABC
001243: 41,2406           61001                           AD       VERBREG                               #  -1 -0 +1 +2 +3    IN A
001244: 41,2407           10000                           CCS      A                                     #  +0 +0 +0 +1 +2     IN A AFTER CCS
001245: 41,2410           02413                           TC       DSPCOM3
001246: 41,2411           00136                           TC       ENTEXIT
001247: 41,2412           02413                           TC       +1
001248: 41,2413           54122        DSPCOM3            TS       DISTEM                                #  +0,+1,+2 INTO DISTEM
001249: 41,2414           50000                           INDEX    A
001250: 41,2415           34317                           CAF      R1D1
001251: 41,2416           54777                           TS       DSPCOUNT
001252: 41,2417           50122                           INDEX    DISTEM
001253: 41,2420           40130                           CS       BUF
001254: 41,2421           03363                           TC       DSPOCTWD
001255: 41,2422           56122                           XCH      DISTEM
001256: 41,2423           02407                           TC       DSPCOM2    +2
001257:
001258:                                                                                                  #  COMPTEST ALARMS IF COMPONENT NUMBER OF VERB(LOAD OR OCT DISPLAY) IS
001259:                                                                                                  #  GREATER THAN THE HIGHEST COMPONENT NUMBER OF NOUN.
001260: 41,2424           54123        COMPTEST           TS       SFTEMP1                               #  - VERB COMP
001261: 41,2425           22002                           LXCH     Q
001262: 41,2426           02515        COMPTST1           TC       GETCOMP
001263: 41,2427           04331                           TC       LEFT5
001264: 41,2430           76244                           MASK     THREE                                 #  NOUN COMP


001266: 41,2431           60123                           AD       SFTEMP1                               #  NOUN COMP - VERB COMP
001267: 41,2432           10000                           CCS      A
001268: 41,2433           00001                           TC       L                                     #  NOUN COMP G/ VERB COMP
001269: 41,2434           05677                           TC       CCSHOLE
001270: 41,2435           02351                           TC       GODSPALM                              #  NOUN COMP L/ VERB COMP
001271: 41,2436           00001        NDCMPTST           TC       L                                     #  NOUN COMP = VERB COMP
001272:
001273:
001274:                                                                                                  #  DCOMPTST ALARMS IF DECIMAL ONLY BIT (BIT4 OF COMP CODE NUMBER) = 1.
001275:                                                                                                  #  IF NOT, IT PERFORMS REGULAR COMPTEST.
001276: 41,2437           54123        DCOMPTST           TS       SFTEMP1                               #  - VERB COMP
001277: 41,2440           22002                           LXCH     Q
001278: 41,2441           02443                           TC       DECTEST
001279: 41,2442           02426                           TC       COMPTST1
001280:
001281: 41,2443           00006        DECTEST            EXTEND                                         #  ALARMS IF DEC ONLY BIT = 1 (BIT4 OF COMP
001282: 41,2444           22156                           QXCH     MPAC       +2                         #  CODE NUMBER). RETURNS IF NOT.
001283: 41,2445           02515                           TC       GETCOMP
001284: 41,2446           74736                           MASK     BIT14
001285: 41,2447           10000                           CCS      A
001286: 41,2450           02351                           TC       GODSPALM
001287: 41,2451           00156                           TC       MPAC       +2
001288:
001289:
001290: 41,2452           22002        DCTSTCYC           LXCH     Q                                     #  ALARMS AND RECYCLES IF DEC ONLY BIT = 1
001291: 41,2453           02515                           TC       GETCOMP                               #  ( BIT4 OF COMP CODE NUMBER). RETURNS
001292: 41,2454           74736                           MASK     BIT14                                 #  IF NOT.  USED BY LOAD VERBS.
001293: 41,2455           10000                           CCS      A
001294: 41,2456           04145                           TC       ALMCYCLE
001295: 41,2457           00001                           TC       L
001296:
001297:
001298:                                                                                                  #  NOUNTEST ALARMS IF NO-LOAD BIT (BIT5 OF COMP CODE NUMBER) = 1.
001299:                                                                                                  #  IF NOT, IT RETURNS.
001300: 41,2460           22002        NOUNTEST           LXCH     Q
001301: 41,2461           02515                           TC       GETCOMP
001302: 41,2462           10000                           CCS      A
001303: 41,2463           00001                           TC       L
001304: 41,2464           00001                           TC       L
001305: 41,2465           02351                           TC       GODSPALM
001306:
001307:
001308: 41,2466           22002        TSTFORDP           LXCH     Q                                     #  TEST FOR DP. IF SO, GET MINOR PART ONLY.
001309: 41,2467           30146                           CA       NNADTEM
001310: 41,2470           64753                           AD       ONE                                   #  IF NNADTEM = -1, CHANNEL TO BE SPECIFIED
001311: 41,2471           00006                           EXTEND
001312: 41,2472           12504                           BZF      CHANDSP
001313: 41,2473           50140                           INDEX    MIXBR
001314: 41,2474           02474                           TC       +0
001315: 41,2475           02477                           TC       +2                                    #  NORMAL


001317: 41,2476           00001                           TC       L                                     #  MIXED CASE ALREADY HANDLED IN MIXNOUN
001318: 41,2477           03026                           TC       SFRUTNOR
001319: 41,2500           02261                           TC       DPTEST
001320: 41,2501           00001                           TC       L                                     #  NO DP
001321: 41,2502           24145                           INCR     NOUNADD                               #  DP    E+1 INTO NOUNADD FOR MINOR PART.
001322: 41,2503           00001                           TC       L
001323:
001324:
001325: 41,2504           31017        CHANDSP            CA       NOUNCADR
001326: 41,2505           75004                           MASK     LOW9
001327: 41,2506           00006                           EXTEND
001328: 41,2507           50000                           INDEX    A
001329: 41,2510           00000                           READ     0
001330: 41,2511           40000                           CS       A
001331: 41,2512           12371                           TCF      DSPCOM1
001332:
001333:
001334: 41,2513           00147        COMPICK            ADRES    NNTYPTEM
001335: 41,2514           00146                           ADRES    NNADTEM
001336:
001337: 41,2515           50140        GETCOMP            INDEX    MIXBR                                 #  NORMAL                MIXED
001338: 41,2516           32512                           CAF      COMPICK    -1                         #  ADRES NNTYPTEM        ADRES NNADTEM
001339: 41,2517           50000                           INDEX    A
001340: 41,2520           30000                           CA       0                                     #  C(NNTYPTEM)           C(NNADTEM)
001341: 41,2521           74350                           MASK     HI5                                   #  GET HI5 OF NNTYPTAB(NORM)OF NNADTAB (MIX)
001342: 41,2522           00002                           TC       Q
001343:
001344:
001345: 41,2523           02515        DECDSP             TC       GETCOMP
001346: 41,2524           04331                           TC       LEFT5
001347: 41,2525           76244                           MASK     THREE
001348: 41,2526           54117                           TS       DECOUNT                               #  COMP NUMBER INTO DECOUNT
001349: 41,2527           54122        DSPDCGET           TS       DECTEM                                #  PICKS UP DATA
001350: 41,2530           60145                           AD       NOUNADD                               #  DECTEM 1COMP +0, 2COMP +1, 3COMP +2
001351: 41,2531           50000                           INDEX    A
001352: 41,2532           40000                           CS       0
001353: 41,2533           50122                           INDEX    DECTEM
001354: 41,2534           57003                           XCH      XREG                                  #  CANT USE BUF SINCE DMP USES IT.
001355: 41,2535           10122                           CCS      DECTEM
001356: 41,2536           02527                           TC       DSPDCGET                              #  MORE TO GET
001357: 41,2537           34755        DSPDCPUT           CAF      ZERO                                  #  DISPLAYS DATA
001358: 41,2540           54155                           TS       MPAC       +1                         #  DECOUNT 1COMP +0, 2COMP +1, 3COMP +2
001359: 41,2541           54156                           TS       MPAC       +2
001360: 41,2542           50117                           INDEX    DECOUNT
001361: 41,2543           34317                           CAF      R1D1
001362: 41,2544           54777                           TS       DSPCOUNT
001363: 41,2545           50117                           INDEX    DECOUNT
001364: 41,2546           41003                           CS       XREG
001365: 41,2547           54154                           TS       MPAC
001366: 41,2550           03047                           TC       SFCONUM                               #  2X ( SF CON NUMB ) IN A


001368: 41,2551           54123                           TS       SFTEMP1
001369: 41,2552           00006                           EXTEND                                         #  SWITCH BANKS TO SF CONSTANT TABLE
001370: 41,2553           32565                           DCA      GTSFOUTL                              #     READING ROUTINE.
001371: 41,2554           52006                           DXCH     Z                                     #  LOADS SFTEMP1, SFTEMP2.
001372: 41,2555           50140                           INDEX    MIXBR
001373: 41,2556           02556                           TC       +0
001374: 41,2557           02562                           TC       DSPSFNOR
001375: 41,2560           03034                           TC       SFRUTMIX
001376: 41,2561           02575                           TC       DECDSP3
001377:
001378: 41,2562           03026        DSPSFNOR           TC       SFRUTNOR
001379: 41,2563           02575                           TC       DECDSP3
001380:
001381: 41,2564     0777                                  EBANK=   DSPCOUNT
001382: 41,2564           02141 64101  GTSFOUTL           2CADR    GTSFOUT
001383:
001384:
001385:
001386: 41,2566           04616        DSPDCEND           TC       BANKCALL                              #  ALL SFOUT ROUTINES END HERE
001387: 41,2567           61226                           CADR     DSPDECWD
001388: 41,2570           10117                           CCS      DECOUNT
001389: 41,2571           02573                           TC       +2
001390: 41,2572           00136                           TC       ENTEXIT
001391: 41,2573           54117                           TS       DECOUNT
001392: 41,2574           02537                           TC       DSPDCPUT                              #  MORE TO DISPLAY
001393:
001394: 41,2575           50000        DECDSP3            INDEX    A
001395: 41,2576           32600                           CAF      SFOUTABR
001396: 41,2577           04640                           TC       BANKJUMP
001397:
001398: 41,2600           61416        SFOUTABR           CADR     PREDSPAL                              #  ALARM IF DEC DISP WITH OCTAL ONLY NOUN
001399: 41,2601           62566                           CADR     DSPDCEND
001400: 41,2602           60615                           CADR     DEGOUTSF
001401: 41,2603           60677                           CADR     ARTOUTSF
001402: 41,2604           60710                           CADR     DP1OUTSF
001403: 41,2605           60715                           CADR     DP2OUTSF
001404: 41,2606           60635                           CADR     LRPOSOUT
001405: 41,2607           60717                           CADR     DP3OUTSF
001406: 41,2610           65224                           CADR     HMSOUT
001407: 41,2611           65277                           CADR     M/SOUT
001408: 41,2612           60715                           CADR     DP2OUTSF
001409: 41,2613           60704                           CADR     AROUT1SF
001410: 41,2614           60732                           CADR     2INTOUT
001411: 41,2615           60623                           CADR     360-CDUO
001412: 41,2616                        ENDRTOUT           EQUALS
001413:
001414:
001415:                                                                                                  #          THE FOLLOWING IS ATYPICAL SF ROUTINE . IT USES MPAC. LEAVES RESU
001416:                                                                                                  #  LTS IN MPAC, MPAC+1. ENDS WITH TC DSPDCEND
001417:


001419: 40,2615                                           SETLOC   BLANKCON   +1
001420:
001421: 40,2615                                           COUNT*   $$/PIN
001422:                                                                                                  #     DEGOUTSF SCALES BY .18 THE LOW 14 BITS OF ANGLE , ADDING .18 FOR
001423:                                                                                                  #  NUMBERS IN THE NEGATIVE (AGC) RANGE.
001424:
001425: 40,2615           34755        DEGOUTSF           CAF      ZERO
001426: 40,2616           54156                           TS       MPAC       +2                         #  SET INDEX FOR FULL SCALE
001427: 40,2617           02652                           TC       FIXRANGE
001428: 40,2620           02622                           TC       +2                                    #  NO AUGMENT NEEDED (SFTEMP1 AND 2 ARE 0)
001429: 40,2621           02645                           TC       SETAUG                                #  SET AUGMENTER ACCORDING TO C(MPAC +2)
001430: 40,2622           02663                           TC       DEGCOM
001431:
001432:                                                                                                  #  360-CDUD COMPUTES 360 - CDU ANGLE IN MPAC, STORES RESULT IN MPAC AND
001433:                                                                                                  #  GOES TO DEGOUTSF.
001434:
001435: 40,2623           02625        360-CDUO           TC       360-CDU
001436: 40,2624           02615                           TC       DEGOUTSF
001437:
001438: 40,2625           30154        360-CDU            CA       MPAC
001439: 40,2626           74733                           MASK     POSMAX                                #  IF ANGLE IS 0 OR 180 DEGREES, DO NOTHING
001440: 40,2627           00006                           EXTEND
001441: 40,2630           12634                           BZF      360-CDUE
001442: 40,2631           40154                           CS       MPAC                                  #  COMPUTE 360 DEGREES MINUS ANGLE
001443: 40,2632           64753                           AD       ONE
001444: 40,2633           54154                           TS       MPAC
001445: 40,2634           00002        360-CDUE           TC       Q
001446:
001447:                                                                                                  #  LRPOSOUT DISPLAYS +0,1,2,OR 3 (WHOLE) FOR CHANNEL 33,BITS 7-6 = 11,10,
001448:                                                                                                  #  01,00 RESPECTIVELY.
001449:
001450: 40,2635           00006        LRPOSOUT           EXTEND
001451: 40,2636           00033                           READ     CHAN33
001452: 40,2637           00006                           EXTEND
001453: 40,2640           74742                           MP       BIT10                                 #  BITS 7-6 TO BITS 2-1
001454: 40,2641           40000                           COM
001455: 40,2642           76244                           MASK     THREE
001456: 40,2643           54154                           TS       MPAC
001457: 40,2644           02677                           TC       ARTOUTSF                              #  DISPLAY AS WHOLE
001458:
001459: 40,2645           00006        SETAUG             EXTEND                                         #  LOADS SFTEMP1 AND SFTEMP2 WITH THE
001460: 40,2646           50156                           INDEX    MPAC       +2                         #  DP AUGMENTER CONSTANT
001461: 40,2647           32674                           DCA      DEGTAB
001462: 40,2650           52124                           DXCH     SFTEMP1
001463: 40,2651           00002                           TC       Q
001464:
001465: 40,2652           10154        FIXRANGE           CCS      MPAC                                  #  IF MPAC IS + RETURN TO L+1
001466: 40,2653           00002                           TC       Q                                     #  IF MPAC IS - RETURN TO L+2 AFTER
001467: 40,2654           00002                           TC       Q                                     #  MASKING OUT THE SIGN BIT
001468: 40,2655           12656                           TCF      +1
001469:


001471: 40,2656           44735                           CS       BIT15
001472: 40,2657           70154                           MASK     MPAC
001473: 40,2660           54154                           TS       MPAC
001474: 40,2661           50002                           INDEX    Q
001475: 40,2662           00001                           TC       1
001476:
001477: 40,2663           00006        DEGCOM             EXTEND                                         #  LOADS MULTIPLIER , DOES SHORTMP, AND
001478: 40,2664           50156                           INDEX    MPAC       +2                         #  ADDS AUGMENTER.
001479: 40,2665           32674                           DCA      DEGTAB
001480: 40,2666           52155                           DXCH     MPAC                                  #  ADJUSTED ANGLE IN A
001481: 40,2667           07306                           TC       SHORTMP
001482: 40,2670           52124                           DXCH     SFTEMP1
001483: 40,2671           20155                           DAS      MPAC
001484: 40,2672           02702                           TC       SCOUTEND
001485:
001486:
001487: 40,2673           05605        DEGTAB             OCT      05605                                 #  HI PART OF     .18
001488: 40,2674           03656                           OCT      03656                                 #  LOW PART OF    .18
001489: 40,2675           16314                           OCT      16314                                 #  HI PART OF     .45
001490: 40,2676           31463                           OCT      31463                                 #  LO PART OF     .45
001491:
001492: 40,2677           52124        ARTOUTSF           DXCH     SFTEMP1                               #  ASSUMES POINT AT LEFT OF DP SFCON
001493: 40,2700           52155                           DXCH     MPAC
001494: 40,2701           04415                           TC       PRSHRTMP                              #  IF C(A) = -0, SHORTMP FAILS TO GIVE -0.
001495: 40,2702           04635        SCOUTEND           TC       POSTJUMP
001496: 40,2703           62566                           CADR     DSPDCEND
001497:
001498: 40,2704           52124        AROUT1SF           DXCH     SFTEMP1                               #  ASSUMES POINT BETWEEN HI AND LO PARTS OF
001499: 40,2705           52155                           DXCH     MPAC                                  #  DP SFCON. SHIFTS RESULTS LEFT 14, BY
001500: 40,2706           04415                           TC       PRSHRTMP                              #  TAKING RESULTS FROM MPAC+1, MPAC+2.
001501: 40,2707           02711                           TC       L14/OUT
001502:
001503:
001504: 40,2710           02723        DP1OUTSF           TC       DPOUT                                 #  SCALES MPAC, MPAC +1 BY DP SCALE FACTOR
001505: 40,2711           56156        L14/OUT            XCH      MPAC       +2                         #  IN SFTEMP1, SFTEMP2. THEN SCALE RESULT
001506: 40,2712           56155                           XCH      MPAC       +1                         #  BY B14.
001507: 40,2713           54154                           TS       MPAC
001508: 40,2714           02702                           TC       SCOUTEND
001509:
001510:
001511: 40,2715           02723        DP2OUTSF           TC       DPOUT                                 #  SCALES MPAC, MPAC +1 BY DP SCALE FACTOR
001512: 40,2716           02702                           TC       SCOUTEND
001513:
001514:
001515: 40,2717           02723        DP3OUTSF           TC       DPOUT                                 #  ASSUMES POINT BETWEEN BITS 7-8 OF HIGH
001516: 40,2720           36241                           CAF      SIX                                   #  LEFT BY 7, ROUNDS MPAC+2 INTO MPAC+1.
001517: 40,2721           03153                           TC       TPLEFTN                               #  SHIFT LEFT 7.
001518: 40,2722           02702                           TC       SCOUTEND
001519:


001521: 40,2723     0162               MPAC+6             =        MPAC       +6                         #  USE MPAC +6 INSTEAD OF OVFIND
001522:
001523: 40,2723           56002        DPOUT              XCH      Q
001524: 40,2724           54162                           TS       MPAC+6
001525: 40,2725           02747                           TC       READLO                                #  GET FRESH DATA FOR BOTH HI AND LO.
001526: 40,2726           07256                           TC       TPAGREE                               #  MAKE DP DATA AGREE
001527: 40,2727           07102                           TC       DMP
001528: 40,2730           00123                           ADRES    SFTEMP1
001529: 40,2731           00162                           TC       MPAC+6
001530:                                                                                                  #  THE FOLLOWING ROUTINE DISPLAYS TWO CONTIGUOUS SP POSITIVE INTEGERS
001531:                                                                                                  #  AS TWO POSITIVE DECIMAL INTEGERS IN RXD1-RXD2 AND RXD4-RXD5 (RXD3 IS
001532:                                                                                                  #  BLANKED). THE INTEGER IN THE LOWER NUMBERED ADDRESS IS DISPLAYED IN
001533:                                                                                                  #  RXD1-RXD2.
001534:
001535: 40,2732           02536        2INTOUT            TC       5BLANK                                #  TO BLANK RXD3
001536: 40,2733           02413                           TC       +ON                                   #  TURN ON + SIGN
001537: 40,2734           30154                           CA       MPAC
001538: 40,2735           03306                           TC       DSPDECVN                              #  DISPLAY 1ST INTEGER (LIKE VERB AND NOUN)
001539: 40,2736           46244                           CS       THREE
001540: 40,2737           50117                           INDEX    DECOUNT
001541: 40,2740           64317                           AD       R1D1                                  #  RXD4
001542: 40,2741           54777                           TS       DSPCOUNT
001543: 40,2742           02747                           TC       READLO                                #  GET 2ND INTEGER
001544: 40,2743           30155                           CA       MPAC       +1
001545: 40,2744           03306                           TC       DSPDECVN                              #  DISPLAY 2ND INTEGER (LIKE VERB AND NOUN)
001546: 40,2745           04635                           TC       POSTJUMP
001547: 40,2746           62570                           CADR     DSPDCEND   +2
001548:
001549:
001550:                                                                                                  #  READLO PICKS UP FRESH DATA FOR BOTH HI AND LO AND LEAVES IT IN
001551:                                                                                                  #  MPAC, MPAC+1. THIS IS NEEDED FOR TIME DISPLAY. IT ZEROES MPAC+2, BUT
001552:                                                                                                  #  DOES NOT FORCE TPAGREE.
001553:
001554: 40,2747           56002        READLO             XCH      Q
001555: 40,2750           54144                           TS       TEM4
001556: 40,2751           50140                           INDEX    MIXBR
001557: 40,2752           02752                           TC       +0
001558: 40,2753           02767                           TC       RDLONOR
001559: 40,2754           50117                           INDEX    DECOUNT
001560: 40,2755           30150                           CA       IDAD1TEM                              #  GET IDADDTAB ENTRY FOR COMP K OF NOUN.
001561: 40,2756           74356                           MASK     LOW11                                 #  E SUBK
001562: 40,2757           04313                           TC       SETEBANK                              #  SET EB, LEAVE EADRES IN A.
001563: 40,2760           00006        READLO1            EXTEND                                         #  MIXED         NORMAL
001564: 40,2761           50000                           INDEX    A                                     #  C(ESUBK)      C(E)
001565: 40,2762           30001                           DCA      0                                     #  C((E SUBK)+1)      C(E+1)
001566: 40,2763           52155                           DXCH     MPAC
001567: 40,2764           34755                           CAF      ZERO
001568: 40,2765           54156                           TS       MPAC       +2
001569: 40,2766           00144                           TC       TEM4


001571: 40,2767           30145        RDLONOR            CA       NOUNADD                               #  E
001572: 40,2770           02760        ENDRDLO            TC       READLO1
001573:
001574:
001575: 42,3224                                           BANK     42
001576: 42,2000                                           SETLOC   PINBALL3
001577: 42,2000                                           BANK
001578:
001579: 42,3224                                           COUNT*   $$/PIN
001580: 42,3224           04616        HMSOUT             TC       BANKCALL                              #  READ FRESH DATA FOR HI AND LO INTO MPAC,
001581: 42,3225           60747                           CADR     READLO                                #  MPAC+1.
001582: 42,3226           07256                           TC       TPAGREE                               #  MAKE DP DATA AGREE
001583: 42,3227           03413                           TC       SEPSECNR                              #  LEAVE FRACT SEC/60 IN MPAC, MPAC+1.LEAVE
001584:                                                                                                  #  WHOLE MIN IN BIT13 OF LOTEMOUT AND ABOVE
001585: 42,3230           07102                           TC       DMP                                   #  USE ONLY FRACT SEC/60 MOD 60
001586: 42,3231           03265                           ADRES    SECON2                                #  MULT BY .06
001587: 42,3232           34321                           CAF      R3D1                                  #  GIVES CENTI-SEC/10EXP5 MOD 60
001588: 42,3233           54777                           TS       DSPCOUNT
001589: 42,3234           04616                           TC       BANKCALL                              #  DISPLAY SEC MOD 60
001590: 42,3235           61226                           CADR     DSPDECWD
001591: 42,3236           03431                           TC       SEPMIN                                #  REMOVE REST OF SECONDS
001592: 42,3237           33267                           CAF      MINCON2                               #  LEAVE FRACT MIN/60 IN MPAC+1. LEAVE
001593: 42,3240           56154                           XCH      MPAC                                  #  WHOLE HOURS IN MPAC.
001594: 42,3241           55007                           TS       HITEMOUT                              #  SAVE WHOLE HOURS.
001595: 42,3242           33270                           CAF      MINCON2    +1
001596: 42,3243           56155                           XCH      MPAC       +1                         #  USE ONLY FRACT MIN/60 MOD 60
001597: 42,3244           04415                           TC       PRSHRTMP                              #  IF C(A) = -0, SHORTMP FAILS TO GIVE -0.
001598:                                                                                                  #  MULT BY .0006
001599: 42,3245           34320                           CAF      R2D1                                  #  GIVES MIN/10EXP5 MOD 60
001600: 42,3246           54777                           TS       DSPCOUNT
001601: 42,3247           04616                           TC       BANKCALL                              #  DISPLAY MIN MOD 60
001602: 42,3250           61226                           CADR     DSPDECWD
001603: 42,3251           00006                           EXTEND                                         #  MINUTES, SECONDS HAVE BEEN REMOVED
001604: 42,3252           33274                           DCA      HRCON1
001605: 42,3253           52155                           DXCH     MPAC
001606: 42,3254           31007                           CA       HITEMOUT                              #  USE WHOLE HOURS
001607: 42,3255           04415                           TC       PRSHRTMP                              #  IF C(A) = -0, SHORTMP FAILS TO GIVE -0.
001608:                                                                                                  #  MULT BY .16384
001609: 42,3256           34317                           CAF      R1D1                                  #  GIVES HOURS/10EXP5
001610: 42,3257           54777                           TS       DSPCOUNT
001611: 42,3260           04616                           TC       BANKCALL                              #  USE REGULAR DSPDECWD, WITH ROUND OFF.
001612: 42,3261           61226                           CADR     DSPDECWD
001613: 42,3262           00136                           TC       ENTEXIT
001614:
001615: 42,3263           25660 31742  SECON1             2DEC*    1.666666666 E-4        B12*            #   2EXP12/6000
001616:
001617: 42,3265           01727        SECON2             OCT      01727                                 #  .06 FOR SECONDS DISPLAY
001618: 42,3266           01217                           OCT      01217
001619: 42,3267           00011        MINCON2            OCT      00011                                 #  .0006 FOR MINUTES DISLPAY
001620: 42,3270           32445                           OCT      32445


001622: 42,3271           02104        MINCON1            OCT      02104                                 #  .066..66 UPPED BY 2EXP-28
001623: 42,3272           10422                           OCT      10422
001624: 42,3273           05174 13261  HRCON1             2DEC     .16384
001625:
001626: 42,3275           00000                           OCT      00000
001627: 42,3276           00062        RNDCON             OCT      00062                                 #  .5 SEC
001628:
001629:
001630: 42,3277           04616        M/SOUT             TC       BANKCALL                              #  READ FRESH DATA FOR HI AND LO INTO MPAC,
001631: 42,3300           60747                           CADR     READLO                                #  MPAC+1.
001632: 42,3301           07256                           TC       TPAGREE                               #  MAKE DP DATA AGREE
001633: 42,3302           10154                           CCS      MPAC                                  #  IF MAG OF (MPAC, MPAC+1) G/ 59 M 59 S,
001634: 42,3303           03305                           TC       +2                                    #  DISPLAY 59B59, WITH PROPER SIGN.
001635: 42,3304           03336                           TC       M/SNORM                               #  MPAC = +0. L/ 59M58.5S
001636: 42,3305           63373                           AD       M/SCON1                               #  - HI PART OF (59M58.5S) +1  FOR CCS
001637: 42,3306           10000                           CCS      A                                     #  MAG OF MPAC - HI PART OF (59M58.5S)
001638: 42,3307           03322                           TC       M/SLIMIT                              #  G/ 59M58.5S
001639: 42,3310           03336                           TC       M/SNORM                               #  ORIGINAL MPAC = -0. L/ 59M58.5S
001640: 42,3311           03336                           TC       M/SNORM                               #  L/ 59M58.5S
001641: 42,3312           10155                           CCS      MPAC       +1                         #  MAG OF MPAC = HI PART OF 59M58.5S
001642: 42,3313           03315                           TC       +2
001643: 42,3314           03336                           TC       M/SNORM                               #  MPAC+1 = +0. L/ 59M58.5S
001644: 42,3315           63374                           AD       M/SCON2                               #  - LO PART OF (59M58.5S) +1  FOR CCS
001645: 42,3316           10000                           CCS      A                                     #  MAG OF MPAC+1 - LO PART OF (59M58.5S)
001646: 42,3317           03322                           TC       M/SLIMIT                              #  G/ 59M58.5S
001647: 42,3320           03336                           TC       M/SNORM                               #  ORIGINAL MPAC+1 = -0. L/ 59M58.5S
001648: 42,3321           03336                           TC       M/SNORM                               #  L/ 59M58.5S
001649: 42,3322           10154        M/SLIMIT           CCS      MPAC                                  #  = 59M58.5S    LIMIT
001650: 42,3323           33376                           CAF      M/SCON3                               #  MPAC CANNOT BE +/- 0 AT THIS POINT.
001651: 42,3324           03333                           TC       +LIMIT                                #  FORCE MPAC, MPAC+1 TO +/- 59M59.5S
001652: 42,3325           43376                           CS       M/SCON3
001653: 42,3326           54154                           TS       MPAC                                  #  WILL DISPLAY 59M59S IN DSPDECNR
001654: 42,3327           43377                           CS       M/SCON3    +1
001655: 42,3330           54155        LIMITCOM           TS       MPAC       +1
001656: 42,3331           33375                           CAF      NORMADR                               #  SET RETURN TO M/SNORM+1.
001657: 42,3332           03414                           TC       SEPSECNR   +1
001658: 42,3333           54154        +LIMIT             TS       MPAC
001659: 42,3334           33377                           CAF      M/SCON3    +1
001660: 42,3335           03330                           TC       LIMITCOM
001661: 42,3336           03400        M/SNORM            TC       SEPSEC                                #  LEAVE FRACT SEC/60 IN MPAC,MPAC+1. LEAVE
001662:                                                                                                  #  WHOLE MIN IN BIT13 OF LOTEMOUT AND ABOVE
001663: 42,3337           33371                           CAF      HISECON                               #  USE ONLY FRACT SEC/60 MOD 60
001664: 42,3340           07306                           TC       SHORTMP                               #  MULT BY .6 + 2EXP-14
001665: 42,3341           46244                           CS       THREE                                 #  GIVES SEC/100 MOD 60
001666: 42,3342           26777                           ADS      DSPCOUNT                              #  DSPCOUNT ALREADY SET TO RXD1
001667: 42,3343           04616                           TC       BANKCALL                              #  DISPLAY SEC MOD 60 IN D4D5.
001668: 42,3344           61266                           CADR     DSPDC2NR
001669: 42,3345           34755                           CAF      ZERO
001670: 42,3346           54124                           TS       CODE
001671: 42,3347           44752                           CS       TWO


001673: 42,3350           50117                           INDEX    DECOUNT
001674: 42,3351           64317                           AD       R1D1                                  #  RXD3
001675: 42,3352           54143                           TS       COUNT
001676: 42,3353           04616                           TC       BANKCALL                              #  BLANK MIDDLE CHAR
001677: 42,3354           61322                           CADR     DSPIN
001678: 42,3355           03431                           TC       SEPMIN                                #  REMOVE REST OF SECONDS
001679: 42,3356           56155                           XCH      MPAC       +1                         #  LEAVE FRACT MIN/60 IN MPAC+1
001680: 42,3357           00006                           EXTEND                                         #  USE ONLY FRACT MIN/60 MOD 60
001681: 42,3360           73372                           MP       HIMINCON                              #  MULT BY .6 + 2EXP-7
001682: 42,3361           52155                           DXCH     MPAC                                  #  GIVES MIN/100 MOD 60
001683: 42,3362           50117                           INDEX    DECOUNT
001684: 42,3363           34317                           CAF      R1D1                                  #  RXD1
001685: 42,3364           54777                           TS       DSPCOUNT
001686: 42,3365           04616                           TC       BANKCALL                              #  DISPLAY MIN MOD 60 IN D1D2.
001687: 42,3366           61266                           CADR     DSPDC2NR
001688: 42,3367           04635                           TC       POSTJUMP
001689: 42,3370           62570                           CADR     DSPDCEND   +2
001690:
001691: 42,3371           23147        HISECON            OCT      23147                                 #  .6 + 2EXP-14
001692: 42,3372           23346        HIMINCON           OCT      23346                                 #  .6 + 2EXP-7
001693:
001694: 42,3373           77753        M/SCON1            OCT      77753                                 #  - HI PART OF (59M58.5S) +1
001695: 42,3374           41126        M/SCON2            OCT      41126                                 #  - LO PART OF (59M58.5S) +1
001696: 42,3375           03337        NORMADR            ADRES    M/SNORM    +1
001697: 42,3376           00025        M/SCON3            OCT      00025                                 #  59M 59.5S
001698: 42,3377           37016                           OCT      37016
001699:
001700:
001701: 42,3400           10155        SEPSEC             CCS      MPAC       +1                         #  IF +, ROUND BY ADDING .5 SEC
001702: 42,3401           13410                           TCF      POSEC                                 #  IF -, ROUND BY SUBTRACTING .5 SEC
001703: 42,3402           13410                           TCF      POSEC                                 #  FINDS TIME IN MPAC, MPAC+1
001704: 42,3403           13404                           TCF      +1                                    #  ROUNDS OFF BY +/- .5 SEC
001705: 42,3404           00006                           EXTEND                                         #  LEAVES WHOLE MIN IN BIT13 OF
001706: 42,3405           43276                           DCS      RNDCON     -1                         #  LOTEMOUT AND ABOVE.
001707: 42,3406           20155        SEPSEC1            DAS      MPAC                                  #  LEAVES FRACT SEC/60 IN MPAC, MPAC+1.
001708: 42,3407           13413                           TCF      SEPSECNR
001709: 42,3410           00006        POSEC              EXTEND
001710: 42,3411           33276                           DCA      RNDCON     -1
001711: 42,3412           13406                           TCF      SEPSEC1
001712: 42,3413           56002        SEPSECNR           XCH      Q                                     #  THIS ENTRY AVOIDS ROUNDING BY .5 SEC
001713: 42,3414           54144                           TS       SEPSCRET
001714: 42,3415           07102                           TC       DMP                                   #  MULT BY 2EXP12/6000
001715: 42,3416           03263                           ADRES    SECON1                                #  GIVES FRACT SEC/60 IN BIT12 OF MPAC+1
001716: 42,3417           00006                           EXTEND                                         #  AND BELOW.
001717: 42,3420           30155                           DCA      MPAC                                  #  SAVE MINUTES AND HOURS
001718: 42,3421           53010                           DXCH     HITEMOUT
001719: 42,3422           04404                           TC       TPSL1
001720: 42,3423           04404                           TC       TPSL1                                 #  GIVES FRACT SEC/60 IN MPAC+1, MPAC+2.
001721: 42,3424           34755                           CAF      ZERO
001722: 42,3425           56156                           XCH      MPAC       +2                         #  LEAVE FRACT SEC/60 IN MPAC, MPAC+1.


001724: 42,3426           56155                           XCH      MPAC       +1
001725: 42,3427           56154                           XCH      MPAC
001726: 42,3430           00144                           TC       SEPSCRET
001727:
001728:
001729: 42,3431           56002        SEPMIN             XCH      Q                                     #  FINDS WHOLE MINUTES IN BIT13
001730: 42,3432           54144                           TS       SEPMNRET                              #  OF LOTEMOUT AND ABOVE.
001731: 42,3433           31010                           CA       LOTEMOUT                              #  REMOVES REST OF SECONDS.
001732: 42,3434           00006                           EXTEND                                         #  LEAVES FRACT MIN/60 IN MPAC+1.
001733: 42,3435           74751                           MP       BIT3                                  #  LEAVES WHOLE HOURS IN MPAC.
001734: 42,3436           00006                           EXTEND                                         #  SR 12, THROW AWAY LP.
001735: 42,3437           74737                           MP       BIT13                                 #  SR 2, TAKE FROM LP. = SL 12.
001736: 42,3440           22155                           LXCH     MPAC       +1                         #  THIS FORCES BITS 12-1 TO 0 IF +.
001737:                                                                                                  #  FORCES BITS 12-1 TO 1 IF -.
001738: 42,3441           31007                           CA       HITEMOUT
001739: 42,3442           54154                           TS       MPAC
001740: 42,3443           07102                           TC       DMP                                   #  MULT BY 1/15
001741: 42,3444           03271                           ADRES    MINCON1                               #  GIVES FRACT MIN/60 IN MPAC+1.
001742: 42,3445           00144        ENDSPMIN           TC       SEPMNRET                              #  GIVES WHOLE HOURS IN MPAC.
001743:
001744:
001745:                                                                                                  #  THIS IS A SPECIAL PURPOSE VERB FOR DISPLAYING A DOUBLE PRECISION AGC
001746:                                                                                                  #  WORD AS 10 DECIMAL DIGITS ON THE AGC DISPLAY PANEL.  IT CAN BE USED WITH
001747:                                                                                                  #  ANY NOUN, EXCEPT MIXED NOUNS. IT DISPLAYS THE CONTENTS
001748:                                                                                                  #  OF THE REGISTER NOUNADD IS POINTING TO .  IF USED WITH NOUNS WHICH ARE
001749:                                                                                                  #  INHERENTLY NOT DP SUCH AS THE CDU COUNTERS THE DISPLAY WILL BE GARBAGE.
001750:                                                                                                  #  DISPLAY IS IN R1 AND R2 ONLY WITH THE SIGN IN R1.
001751:
001752:
001753: 40,2771                                           SETLOC   ENDRDLO    +1
001754:
001755: 40,2771                                           COUNT*   $$/PIN
001756: 40,2771           50140        DSPDPDEC           INDEX    MIXBR
001757: 40,2772           02772                           TC       +0
001758: 40,2773           02775                           TC       +2                                    #  NORMAL NOUN
001759: 40,2774           03420                           TC       DSPALARM
001760: 40,2775           00006                           EXTEND
001761: 40,2776           50145                           INDEX    NOUNADD
001762: 40,2777           30001                           DCA      0
001763: 40,3000           52155                           DXCH     MPAC
001764: 40,3001           34317                           CAF      R1D1
001765: 40,3002           54777                           TS       DSPCOUNT
001766: 40,3003           34755                           CAF      ZERO
001767: 40,3004           54156                           TS       MPAC       +2
001768: 40,3005           07256                           TC       TPAGREE
001769: 40,3006           03273                           TC       DSP2DEC
001770: 40,3007           00136        ENDDPDEC           TC       ENTEXIT
001771:


001773:                                                                                                  #  LOAD VERBS           IF ALARM CONDITION IS DETECTED DURING EXECUTE,
001774:                                                                                                  #  CHECK FAIL LIGHT IS TURNED ON AND ENDOFJOB. IF ALARM CONDITION IS
001775:                                                                                                  #  DETECTED DURING ENTER OF DATA, CHECK FAIL IS TURNED ON AND IT RECYCLES
001776:                                                                                                  #  TO EXECUTE  OF ORIGINAL LOAD VERB. RECYCLE CAUSED BY  1) DECIMAL MACHINE
001777:                                                                                                  #  CADR  2) MIXTURE OF OCTAL/DECIMAL DATA  3) OCTAL DATA INTO DECIMAL
001778:                                                                                                  #  ONLY NOUN  4) DEC DATA INTO OCT ONLY NOUN  5) DATA TOO LARGE FOR SCALE
001779:                                                                                                  #  6) FEWER THAN 3 DATA WORDS LOADED FOR HRS, MIN, SEC NOUN.8(2)-(6) ALARM
001780:                                                                                                  #  AND RECYCLE OCCUR AT FINAL ENTER OF SET. (1) ALARM AND RECYCLE OCCUR AT
001781:                                                                                                  #  ENTER OF CADR.
001782:
001783:
001784: 41,2616                                           SETLOC   ENDRTOUT
001785:
001786: 41,2616                                           COUNT*   $$/PIN
001787: 41,2616           44752        ABCLOAD            CS       TWO
001788: 41,2617           02424                           TC       COMPTEST
001789: 41,2620           02460                           TC       NOUNTEST                              #  TEST IF NOUN CAN BE LOADED.
001790: 41,2621           33006                           CAF      VBSP1LD
001791: 41,2622           02337                           TC       UPDATVB    -1
001792: 41,2623           02303                           TC       REQDATX
001793: 41,2624           33007                           CAF      VBSP2LD
001794: 41,2625           02337                           TC       UPDATVB    -1
001795: 41,2626           02305                           TC       REQDATY
001796: 41,2627           33010                           CAF      VBSP3LD
001797: 41,2630           02337                           TC       UPDATVB    -1
001798: 41,2631           02307                           TC       REQDATZ
001799:
001800:
001801: 41,2632           46241        PUTXYZ             CS       SIX                                   #  TEST THAT THE 3 DATA WORDS LOADED ARE
001802: 41,2633           03011                           TC       ALLDC/OC                              #  ALL DEC OR ALL OCT.
001803: 41,2634           00006                           EXTEND
001804: 41,2635           32114                           DCA      LODNNLOC                              #  SWITCH BANKS TO NOUN TABLE READING
001805: 41,2636           52006                           DXCH     Z                                     #  ROUTINE.
001806: 41,2637           34755                           CAF      ZERO                                  #  X COMP
001807: 41,2640           03075                           TC       PUTCOM
001808: 41,2641           50145                           INDEX    NOUNADD
001809: 41,2642           54000                           TS       0
001810: 41,2643           34753                           CAF      ONE                                   #  Y COMP
001811: 41,2644           03075                           TC       PUTCOM
001812: 41,2645           50145                           INDEX    NOUNADD
001813: 41,2646           54001                           TS       1
001814: 41,2647           34752                           CAF      TWO                                   #  Z COMP
001815: 41,2650           03075                           TC       PUTCOM
001816: 41,2651           50145                           INDEX    NOUNADD
001817: 41,2652           54002                           TS       2
001818: 41,2653           44757                           CS       SEVEN                                 #  IF NOUN 7 HAS JUST BEEN LOADED, SET
001819: 41,2654           61002                           AD       NOUNREG                               #   FLAG BITS AS SPECIFIED.
001820: 41,2655           00006                           EXTEND
001821: 41,2656           12660                           BZF      +2
001822: 41,2657           02775                           TC       LOADLV


001824: 41,2660           31003                           CA       XREG                                  #  ECADR OF FLAG WORD.
001825: 41,2661           04304                           TC       SETNCADR   +1                         #   SET EBANK, NOUNADD.
001826: 41,2662           31005                           CA       ZREG                                  #  ZERO TO RESET BITS, NON-ZERO TO SET BITS
001827: 41,2663           00004                           INHINT
001828: 41,2664           00006                           EXTEND
001829: 41,2665           12674                           BZF      BITSOFF
001830: 41,2666           50145                           INDEX    NOUNADD
001831: 41,2667           40000                           CS       0
001832: 41,2670           71004                           MASK     YREG                                  #  BITS TO BE PROCESSED.
001833: 41,2671           50145                           INDEX    NOUNADD
001834: 41,2672           26000                           ADS      0                                     #  SET BITS.
001835: 41,2673           02701                           TC       BITSOFF1
001836: 41,2674           41004        BITSOFF            CS       YREG                                  #  BITS TO BE PROCESSED.
001837: 41,2675           50145                           INDEX    NOUNADD
001838: 41,2676           70000                           MASK     0
001839: 41,2677           50145                           INDEX    NOUNADD
001840: 41,2700           54000                           TS       0                                     #  RESET BITS.
001841: 41,2701           00003        BITSOFF1           RELINT
001842: 41,2702           02775                           TC       LOADLV
001843:
001844: 41,2703           44753        ABLOAD             CS       ONE
001845: 41,2704           02424                           TC       COMPTEST
001846: 41,2705           02460                           TC       NOUNTEST                              #  TEST IF NOUN CAN BE LOADED.
001847: 41,2706           33006                           CAF      VBSP1LD
001848: 41,2707           02337                           TC       UPDATVB    -1
001849: 41,2710           02303                           TC       REQDATX
001850: 41,2711           33007                           CAF      VBSP2LD
001851: 41,2712           02337                           TC       UPDATVB    -1
001852: 41,2713           02305                           TC       REQDATY
001853: 41,2714           44756        PUTXY              CS       FIVE                                  #  TEST THAT THE 2 DATA WORDS LOADED ARE
001854: 41,2715           03011                           TC       ALLDC/OC                              #  ALL DEC OR ALL OCT.
001855: 41,2716           00006                           EXTEND
001856: 41,2717           32114                           DCA      LODNNLOC                              #  SWITCH BANKS TO NOUN TABLE READING
001857: 41,2720           52006                           DXCH     Z                                     #  ROUTINE.
001858: 41,2721           34755                           CAF      ZERO                                  #  X COMP
001859: 41,2722           03075                           TC       PUTCOM
001860: 41,2723           50145                           INDEX    NOUNADD
001861: 41,2724           54000                           TS       0
001862: 41,2725           34753                           CAF      ONE                                   #  Y COMP
001863: 41,2726           03075                           TC       PUTCOM
001864: 41,2727           50145                           INDEX    NOUNADD
001865: 41,2730           54001                           TS       1
001866: 41,2731           02775                           TC       LOADLV
001867:
001868: 41,2732           02303        ALOAD              TC       REQDATX
001869: 41,2733           00006                           EXTEND
001870: 41,2734           32114                           DCA      LODNNLOC                              #  SWITCH BANKS TO NOUN TABLE READING
001871: 41,2735           52006                           DXCH     Z                                     #  ROUTINE.
001872: 41,2736           34755                           CAF      ZERO                                  #  X COMP
001873: 41,2737           03075                           TC       PUTCOM


001875: 41,2740           50145                           INDEX    NOUNADD
001876: 41,2741           54000                           TS       0
001877: 41,2742           02775                           TC       LOADLV
001878:
001879: 41,2743           44753        BLOAD              CS       ONE
001880: 41,2744           02424                           TC       COMPTEST
001881: 41,2745           34735                           CAF      BIT15                                 #  SET CLPASS FOR PASS0 ONLY
001882: 41,2746           55015                           TS       CLPASS
001883: 41,2747           02305                           TC       REQDATY
001884: 41,2750           00006                           EXTEND
001885: 41,2751           32114                           DCA      LODNNLOC                              #  SWITCH BANKS TO NOUN TABLE READING
001886: 41,2752           52006                           DXCH     Z                                     #  ROUTINE.
001887: 41,2753           34753                           CAF      ONE
001888: 41,2754           03075                           TC       PUTCOM
001889: 41,2755           50145                           INDEX    NOUNADD
001890: 41,2756           54001                           TS       1
001891: 41,2757           02775                           TC       LOADLV
001892:
001893: 41,2760           44752        CLOAD              CS       TWO
001894: 41,2761           02424                           TC       COMPTEST
001895: 41,2762           34735                           CAF      BIT15                                 #  SET CLPASS FOR PASS0 ONLY
001896: 41,2763           55015                           TS       CLPASS
001897: 41,2764           02307                           TC       REQDATZ
001898: 41,2765           00006                           EXTEND
001899: 41,2766           32114                           DCA      LODNNLOC                              #  SWITCH BANKS TO NOUN TABLE READING
001900: 41,2767           52006                           DXCH     Z                                     #  ROUTINE.
001901: 41,2770           34752                           CAF      TWO
001902: 41,2771           03075                           TC       PUTCOM
001903: 41,2772           50145                           INDEX    NOUNADD
001904: 41,2773           54002                           TS       2
001905: 41,2774           02775                           TC       LOADLV
001906:
001907: 41,2775           34755        LOADLV             CAF      ZERO
001908: 41,2776           55000                           TS       DECBRNCH
001909: 41,2777           44755                           CS       ZERO
001910: 41,3000           55014                           TS       LOADSTAT
001911: 41,3001           04457                           TC       RELDSP                                #  RELEASE FOR PRIORITY DISPLAY PROBLEM.
001912: 41,3002           44360                           CS       VD1                                   #  TO BLOCK NUMERICAL CHARACTERS AND
001913: 41,3003           54777                           TS       DSPCOUNT                              #  CLEARS AFTER A COMPLETED LOAD
001914: 41,3004           04635                           TC       POSTJUMP                              #  AFTER COMPLETED LOAD, GO TO RECALTST
001915: 41,3005           61545                           CADR     RECALTST                              #  TO SEE IF THERE IS RECALL FROM ENDIDLE.
001916:
001917: 41,3006           00025        VBSP1LD            DEC      21         B-14                       #  VB21 = ALOAD
001918: 41,3007           00026        VBSP2LD            DEC      22         B-14                       #  VB22 = BLOAD
001919: 41,3010           00027        VBSP3LD            DEC      23         B-14                       #  VB23 = CLOAD
001920:
001921:
001922: 41,3011           54117        ALLDC/OC           TS       DECOUNT                               #  TESTS THAT DATA WORDS LOADED ARE EITHER
001923: 41,3012           41000                           CS       DECBRNCH                              #  ALL DEC OR ALL OCT. ALARMS IF NOT.
001924: 41,3013           54021                           TS       SR


001926: 41,3014           40021                           CS       SR
001927: 41,3015           40021                           CS       SR                                    #  SHIFTED RIGHT 2
001928: 41,3016           10000                           CCS      A                                     #  DEC COMP BITS IN LOW 3
001929: 41,3017           13021                           TCF      +2                                    #  SOME ONES IN LOW 3
001930: 41,3020           00002                           TC       Q                                     #  ALL ZEROS. ALL OCTAL.  OK
001931: 41,3021           60117                           AD       DECOUNT                               #  DEC COMP = 7 FOR 3COMP, =6 FOR 2COMP
001932: 41,3022           00006                           EXTEND                                         #  (BUT IT HAS BEEN DECREMENTED BY CCS)
001933: 41,3023           13025                           BZF      +2                                    #  MUST MATCH 6 FOR 3COMP, 5 FOR 2COMP.
001934: 41,3024           04145                           TC       ALMCYCLE                              #  ALARM AND RECYCLE.
001935: 41,3025           00002        GOQ                TC       Q                                     #  ALL REQUIRED ARE DEC.  OK
001936:
001937:
001938: 41,3026           56002        SFRUTNOR           XCH      Q                                     #  GETS SF ROUTINE NUMBER FOR NORMAL CASE
001939: 41,3027           54114                           TS       EXITEM                                #  CANT USE L FOR RETURN. TSTFORDP USES L.
001940: 41,3030           34347                           CAF      MID5
001941: 41,3031           70147                           MASK     NNTYPTEM
001942: 41,3032           04322                           TC       RIGHT5
001943: 41,3033           00114                           TC       EXITEM                                #  SF ROUTINE NUMBER IN A
001944:
001945: 41,3034           56002        SFRUTMIX           XCH      Q                                     #  GETS SF ROUTINE NUMBER FOR MIXED CASE
001946: 41,3035           54114                           TS       EXITEM
001947: 41,3036           50117                           INDEX    DECOUNT
001948: 41,3037           33066                           CAF      DISPLACE                              #  PUT TC GOQ, TC RIGHT5, OR TC LEFT5 IN L
001949: 41,3040           54001                           TS       L
001950: 41,3041           50117                           INDEX    DECOUNT
001951: 41,3042           34346                           CAF      LOW5                                  #  LOW5, MID5, OR HI5 IN A
001952: 41,3043           70153                           MASK     RUTMXTEM                              #  GET HI5, MID5, OR LOW5 OF RUTMXTAB ENTRY
001953: 41,3044           50001                           INDEX    L
001954: 41,3045           00000                           TC       0
001955:                                                                                                  #  DO TC GOQ(DECOUNT=0), DO TC RIGHT5(DECOUNT=1), DO TC LEFT5(DECOUNT=2).
001956: 41,3046           00114        SFRET1             TC       EXITEM                                #  SF ROUTINE NUMBER IN A
001957:
001958: 41,3047           56002        SFCONUM            XCH      Q                                     #  GETS 2X(SF CONSTANT NUMBER)
001959: 41,3050           54114                           TS       EXITEM
001960: 41,3051           50140                           INDEX    MIXBR
001961: 41,3052           03052                           TC       +0
001962: 41,3053           03071                           TC       CONUMNOR                              #  NORMAL NOUN
001963: 41,3054           50117                           INDEX    DECOUNT                               #  MIXED NOUN
001964: 41,3055           33066                           CAF      DISPLACE
001965: 41,3056           54001                           TS       L                                     #  PUT TC GOQ, TC RIGHT5, OR TC LEFT5 IN L
001966: 41,3057           50117                           INDEX    DECOUNT
001967: 41,3060           34346                           CAF      LOW5
001968: 41,3061           70147                           MASK     NNTYPTEM
001969: 41,3062           50001                           INDEX    L
001970: 41,3063           00000                           TC       0
001971:                                                                                                  #  DO TC GOQ(DECOUNT=0), DO TC RIGHT5(DECOUNT=1), DO TC LEFT5(DECOUNT=2).
001972: 41,3064           60000        SFRET              DOUBLE                                         #  2X(SF CONSTANT NUMBER ) IN A
001973: 41,3065           00114                           TC       EXITEM
001974:
001975: 41,3066           03025        DISPLACE           TC       GOQ


001977: 41,3067           04322                           TC       RIGHT5
001978: 41,3070           04331                           TC       LEFT5
001979:
001980: 41,3071           34346        CONUMNOR           CAF      LOW5                                  #  NORMAL NOUN ALWAYS GETS LOW 5 OF
001981: 41,3072           70147                           MASK     NNTYPTEM                              #  NNTYPTAB FOR SF CONUM.
001982: 41,3073           60000                           DOUBLE
001983: 41,3074           00114                           TC       EXITEM                                #  2X( SF CONSTANT NUMBER) IN A
001984:
001985:
001986: 41,3075           54117        PUTCOM             TS       DECOUNT
001987: 41,3076           56002                           XCH      Q
001988: 41,3077           54115                           TS       DECRET
001989: 41,3100           34755                           CAF      ZERO
001990: 41,3101           54162                           TS       MPAC+6
001991: 41,3102           50117                           INDEX    DECOUNT
001992: 41,3103           57006                           XCH      XREGLP
001993: 41,3104           54155                           TS       MPAC       +1
001994: 41,3105           50117                           INDEX    DECOUNT
001995: 41,3106           57003                           XCH      XREG
001996: 41,3107           54154                           TS       MPAC
001997: 41,3110           50140                           INDEX    MIXBR
001998: 41,3111           03111                           TC       +0
001999: 41,3112           03137                           TC       PUTNORM                               #  NORMAL NOUN
002000:                                                                                                  #  IF MIXNOUN, PLACE ADDRESS FOR COMPONENT K INTO NOUNADD, SET EBANK BITS.
002001: 41,3113           50117                           INDEX    DECOUNT                               #  GET IDADDTAB ENTRY FOR COMPONENT K
002002: 41,3114           30150                           CA       IDAD1TEM                              #          OF NOUN.
002003: 41,3115           74356                           MASK     LOW11                                 #  (ECADR)SUBK FOR CURRENT COMP OF NOUN
002004: 41,3116           04303                           TC       SETNCADR                              #  ECADR INTO NOUNCADR. SETS EB, NOUNADD.
002005: 41,3117           00006                           EXTEND                                         #  C(NOUNADD) IN A UPON RETURN
002006: 41,3120           60117                           SU       DECOUNT                               #  PLACE (ESUBK)-K INTO NOUNADD
002007: 41,3121           54145                           TS       NOUNADD
002008: 41,3122           11000                           CCS      DECBRNCH
002009: 41,3123           03174                           TC       PUTDECSF                              #  +  DEC
002010: 41,3124           02452                           TC       DCTSTCYC                              #  +0 OCTAL
002011: 41,3125           03034                           TC       SFRUTMIX                              #  TEST IF DEC ONLY BIT = 1. IF SO,
002012: 41,3126           02261                           TC       DPTEST                                #  ALARM AND RECYCLE. IF NOT, CONTINUE.
002013: 41,3127           03155                           TC       PUTCOM2                               #  NO DP
002014:                                                                                                  #  TEST FOR DP SCALE FOR OCT LOAD. IF SO,
002015:                                                                                                  #  +0 INTO MAJOR PART. SET NOUNADD FOR
002016:                                                                                                  #  LOADING OCTAL WORD INTO MINOR PART.
002017: 41,3130           24145        PUTDPCOM           INCR     NOUNADD                               #  DP  (ESUBK)-K+1  OR  E+1
002018: 41,3131           30145                           CA       NOUNADD                               #  NOUNADD NOW SET FOR MINOR PART
002019: 41,3132           26117                           ADS      DECOUNT                               #  (ESUBK)+1  OR  E+1  INTO DECOUNT
002020: 41,3133           34755                           CAF      ZERO                                  #  NOUNADD SET FOR MINOR PART
002021: 41,3134           50117                           INDEX    DECOUNT
002022: 41,3135           53777                           TS       0          -1                         #  ZERO MAJOR PART(ESUBK OR E)
002023: 41,3136           03155                           TC       PUTCOM2
002024:
002025: 41,3137           04311        PUTNORM            TC       SETNADD                               #  ECADR FROM NOUNCADR. SETS EB, NOUNADD.
002026: 41,3140           11000                           CCS      DECBRNCH


002028: 41,3141           03174                           TC       PUTDECSF                              #  +  DEC
002029: 41,3142           02452                           TC       DCTSTCYC                              #  +0 OCTAL
002030: 41,3143           03026                           TC       SFRUTNOR                              #  TEST IF DEC ONLY BIT = 1. IF SO,
002031: 41,3144           02261                           TC       DPTEST                                #  ALARM AND RECYCLE. IF NOT, CONTINUE.
002032: 41,3145           03151                           TC       PUTCOM2    -4                         #  NO DP
002033: 41,3146           34755                           CAF      ZERO                                  #  DP
002034: 41,3147           54117                           TS       DECOUNT
002035: 41,3150           03130                           TC       PUTDPCOM
002036:
002037: 41,3151           30146                           CA       NNADTEM
002038: 41,3152           64753                           AD       ONE                                   #  IF NNADTEM = -1, CHANNEL TO BE SPECIFIED
002039: 41,3153           00006                           EXTEND
002040: 41,3154           13161                           BZF      CHANLOAD
002041: 41,3155           56154        PUTCOM2            XCH      MPAC
002042: 41,3156           00115                           TC       DECRET
002043:
002044: 41,3157     0777                                  EBANK=   DSPCOUNT
002045: 41,3157           02147 64101  GTSFINLC           2CADR    GTSFIN
002046:
002047:
002048:
002049: 41,3161           44757        CHANLOAD           CS       SEVEN                                 #  DONT LOAD CHAN 7. (IT = SUPERBANK).
002050: 41,3162           61017                           AD       NOUNCADR
002051: 41,3163           00006                           EXTEND
002052: 41,3164           12775                           BZF      LOADLV
002053: 41,3165           31017                           CA       NOUNCADR
002054: 41,3166           75004                           MASK     LOW9
002055: 41,3167           56154                           XCH      MPAC
002056: 41,3170           00006                           EXTEND
002057: 41,3171           50154                           INDEX    MPAC
002058: 41,3172           01000                           WRITE    0
002059: 41,3173           02775                           TC       LOADLV
002060:
002061:
002062:                                                                                                  #  PUTDECSF FINDS MIXBR AND DECOUNT STILL SET FROM PUTCOM
002063:
002064: 41,3174           03047        PUTDECSF           TC       SFCONUM                               #  2X(SF CON NUMB) IN A
002065: 41,3175           54123                           TS       SFTEMP1
002066: 41,3176           00006                           EXTEND                                         #  SWITCH BANKS TO SF CONSTANT TABLE
002067: 41,3177           33160                           DCA      GTSFINLC                              #  READING ROUTINE.
002068: 41,3200           52006                           DXCH     Z                                     #  LOADS SFTEMP1, SFTEMP2.
002069: 41,3201           50140                           INDEX    MIXBR
002070: 41,3202           03202                           TC       +0
002071: 41,3203           03206                           TC       PUTSFNOR
002072: 41,3204           03034                           TC       SFRUTMIX
002073: 41,3205           03207                           TC       PUTDCSF2
002074: 41,3206           03026        PUTSFNOR           TC       SFRUTNOR
002075:
002076: 41,3207           50000        PUTDCSF2           INDEX    A
002077: 41,3210           33212                           CAF      SFINTABR


002079: 41,3211           04640                           TC       BANKJUMP                              #  SWITCH BANKS FOR EXPANSHION ROOM
002080: 41,3212           62350        SFINTABR           CADR     GOALMCYC                              #  ALARM AND RECYCLE IF DEC LOAD
002081:                                                                                                  #  WITH OCTAL ONLY NOUN.
002082: 41,3213           61106                           CADR     BINROUND
002083: 41,3214           61010                           CADR     DEGINSF
002084: 41,3215           61076                           CADR     ARTHINSF
002085: 41,3216           61114                           CADR     DPINSF
002086: 41,3217           61141                           CADR     DPINSF2
002087: 41,3220           61420                           CADR     DSPALARM                              #  LRPOSOUT CANT BE LOADED.
002088: 41,3221           61114                           CADR     DPINSF                                #  SAME AS ARITHDP1
002089: 41,3222           65446                           CADR     HMSIN
002090: 41,3223           61420                           CADR     DSPALARM                              #  MIN/SEC CANT BE LOADED.
002091: 41,3224           61146                           CADR     DPINSF4
002092: 41,3225           61111                           CADR     ARTIN1SF
002093: 41,3226           61420                           CADR     DSPALARM                              #  2INTOUT CANT BE LOADED.
002094: 41,3227           61010                           CADR     DEGINSF                               #  TESTS AT END FOR 360-CDU
002095: 41,3230                        ENDRUTIN           EQUALS
002096:
002097:
002098:                                                                                                  #  SCALE FACTORS FOR THOSE ROUTINES NEEDING THEM ARE AVAILABLE IN SFTEMP1.
002099:                                                                                                  #  ALL SFIN ROUTINES USE MPAC MPAC+1. LEAVE RESULT IN A. END WITH TC DECRET
002100:
002101:
002102: 40,3010                                           SETLOC   ENDDPDEC   +1
002103:
002104: 40,3010                                           COUNT*   $$/PIN
002105:                                                                                                  #  DEGINSF APPLIES 1000/180 =5.55555(10) = 5.43434(8)
002106:
002107: 40,3010           07102        DEGINSF            TC       DMP                                   #  SF ROUTINE FOR DEC DEGREES
002108: 40,3011           03074                           ADRES    DEGCON1                               #  MULT BY 5.5  5(10)X2EXP-3
002109: 40,3012           10155                           CCS      MPAC       +1                         #  THIS ROUNDS OFF MPAC+1 BEFORE SHIFT
002110: 40,3013           34741                           CAF      BIT11                                 #  LEFT 3, AND CAUSES 360.00 TO OF/UF
002111: 40,3014           03016                           TC       +2                                    #  WHEN SHIFTED LEFT AND ALARM.
002112: 40,3015           44741                           CS       BIT11
002113: 40,3016           60155                           AD       MPAC       +1
002114: 40,3017           03165                           TC       2ROUND     +2
002115: 40,3020           04404                           TC       TPSL1                                 #  LEFT 1
002116: 40,3021           04404        DEGINSF2           TC       TPSL1                                 #  LEFT 2
002117: 40,3022           03174                           TC       TESTOFUF
002118: 40,3023           04404                           TC       TPSL1                                 #  RETURNS IF NO OF/UF (LEFT3)
002119: 40,3024           10154                           CCS      MPAC
002120: 40,3025           03031                           TC       SIGNFIX                               #  IF+, GO TO SIGNFIX
002121: 40,3026           03031                           TC       SIGNFIX                               #  IF +0, GO TO SIGNFIX
002122: 40,3027           40000                           COM                                            #  IF -,  USE -MAGNITUDE +1
002123: 40,3030           54154                           TS       MPAC                                  #  IF -0, USE +0
002124: 40,3031           10162        SIGNFIX            CCS      MPAC+6
002125: 40,3032           03070                           TC       SGNTO1                                #  IF OVERFLOW
002126: 40,3033           03043                           TC       ENDSCALE                              #  NO OVERFLOW/UNDERFLOW
002127: 40,3034           10154                           CCS      MPAC                                  #  IF UF FORCE SIGN TO 0 EXCEPT -180
002128: 40,3035           05677                           TC       CCSHOLE


002130: 40,3036           03066                           TC       NEG180
002131: 40,3037           03040                           TC       +1
002132: 40,3040           56154                           XCH      MPAC
002133: 40,3041           74733                           MASK     POSMAX
002134: 40,3042           54154                           TS       MPAC
002135: 40,3043           50140        ENDSCALE           INDEX    MIXBR                                 #  IF ROUTINE NO. IS NOT CDU DEGREES,
002136: 40,3044           03044                           TC       +0                                    #   THEN THIS IS 360 - CDU DEGREES
002137: 40,3045           03050                           TC       +3                                    #   AND ANGLE IN MPAC MUST BE REPLACED
002138: 40,3046           03060                           TC       SFMIXCAL                              #   BY 360 DEGREES MINUS ITSELF.
002139: 40,3047           03051        MIXBACK            TC       +2
002140: 40,3050           03063                           TC       SFNORCAL
002141: 40,3051           40000        NORBACK            CS       A
002142: 40,3052           64752                           AD       BIT2
002143: 40,3053           00006                           EXTEND
002144: 40,3054           13056                           BZF      +2
002145: 40,3055           02625                           TC       360-CDU
002146: 40,3056           04635        ENDSCAL1           TC       POSTJUMP
002147: 40,3057           63155                           CADR     PUTCOM2
002148:
002149: 40,3060           04616        SFMIXCAL           TC       BANKCALL
002150: 40,3061           63034                           CADR     SFRUTMIX
002151: 40,3062           03047                           TC       MIXBACK
002152:
002153: 40,3063           04616        SFNORCAL           TC       BANKCALL
002154: 40,3064           63026                           CADR     SFRUTNOR
002155: 40,3065           03051                           TC       NORBACK
002156:
002157: 40,3066           44733        NEG180             CS       POSMAX
002158: 40,3067           03042                           TC       ENDSCALE   -1
002159:
002160: 40,3070           40154        SGNTO1             CS       MPAC                                  #  IF OF FORCE SIGN TO 1
002161: 40,3071           74733                           MASK     POSMAX
002162: 40,3072           40000                           CS       A
002163: 40,3073           03042                           TC       ENDSCALE   -1
002164:
002165: 40,3074           26161 30707  DEGCON1            2DEC     5.555555555 B-3
002166:
002167:
002168: 40,3076           07102        ARTHINSF           TC       DMP                                   #  SCALES MPAC, +1 BY SFTEMP1, SFTEMP2.
002169: 40,3077           00123                           ADRES    SFTEMP1                               #  ASSUMES POINT BETWEEN HI AND LO PARTS
002170: 40,3100           56156                           XCH      MPAC       +2                         #  OF SFCON. SHIFTS RESULTS LEFT BY 14.
002171: 40,3101           56155                           XCH      MPAC       +1                         #  (BY TAKING RESULTS FROM MPAC+1, MPAC+2)
002172: 40,3102           56154                           XCH      MPAC
002173: 40,3103           00006                           EXTEND
002174: 40,3104           13106                           BZF      BINROUND
002175: 40,3105           04145                           TC       ALMCYCLE                              #  TOO LARGE A LOAD. ALARM AND RECYCLE.
002176: 40,3106           03163        BINROUND           TC       2ROUND
002177: 40,3107           03174                           TC       TESTOFUF
002178: 40,3110           03056                           TC       ENDSCAL1                              #  RETURNS IF NO OF/UF
002179:


002181: 40,3111           07102        ARTIN1SF           TC       DMP                                   #  SCALES MPAC, +1 BY SFTEMP1, SFTEMP2.
002182: 40,3112           00123                           ADRES    SFTEMP1                               #  ROUNDS MPAC+1 INTO MPAC.
002183: 40,3113           03106                           TC       BINROUND
002184:
002185:
002186: 40,3114           07102        DPINSF             TC       DMP                                   #  SCALES MPAC, MPAC +1 BY SFTEMP1,
002187: 40,3115           00123                           ADRES    SFTEMP1                               #  SFTEMP2.  STORES LOW PART OF RESULT
002188: 40,3116           56156                           XCH      MPAC       +2                         #  IN (E SUBK) +1 OR E+1
002189: 40,3117           60000                           DOUBLE
002190: 40,3120           54156                           TS       MPAC       +2
002191: 40,3121           34755                           CAF      ZERO
002192: 40,3122           60155                           AD       MPAC       +1
002193: 40,3123           03165                           TC       2ROUND     +2
002194: 40,3124           03174                           TC       TESTOFUF
002195: 40,3125           50140                           INDEX    MIXBR                                 #  RETURNS IF NO OF/UF
002196: 40,3126           03126                           TC       +0
002197: 40,3127           03137                           TC       DPINORM
002198: 40,3130           30117                           CA       DECOUNT                               #  MIXED NOUN
002199: 40,3131           60145        DPINCOM            AD       NOUNADD                               #       MIXED              NORMAL
002200: 40,3132           54002                           TS       Q                                     #    E SUBK            E
002201: 40,3133           56155                           XCH      MPAC       +1
002202: 40,3134           50002                           INDEX    Q
002203: 40,3135           54001                           TS       1                                     #  PLACE LOW PART IN
002204: 40,3136           03056                           TC       ENDSCAL1                              #  (E SUBK) +1    MIXED
002205:
002206: 40,3137           34755        DPINORM            CAF      ZERO                                  #  E +1         NORMAL
002207: 40,3140           03131                           TC       DPINCOM
002208:
002209:
002210: 40,3141           07102        DPINSF2            TC       DMP                                   #  ASSUMES POINT BETWEEN BITS 7-8 OF HIGH
002211: 40,3142           00123                           ADRES    SFTEMP1                               #  PART OF SF CONST. DPINSF2 SHIFTS RESULTS
002212: 40,3143           36241                           CAF      SIX                                   #  LEFT BY 7, ROUNDS MPAC+2 INTO MPAC+1
002213: 40,3144           03153                           TC       TPLEFTN                               #  SHIFT LEFT 7.
002214: 40,3145           03116                           TC       DPINSF     +2
002215:
002216: 40,3146           07102        DPINSF4            TC       DMP                                   #  ASSUMES POINT BETWEEN BITS 11-12 OF HIGH
002217: 40,3147           00123                           ADRES    SFTEMP1                               #  PART OF SF CONST. DPINSF2 SHIFTS RESULTS
002218: 40,3150           34752                           CAF      TWO                                   #  LEFT BY 3, ROUNDS MPAC+2 INTO MPAC+1.
002219: 40,3151           03153                           TC       TPLEFTN                               #  SHIFT LEFT 3.
002220: 40,3152           03116                           TC       DPINSF     +2
002221:
002222:
002223: 40,3153           56002        TPLEFTN            XCH      Q                                     #  SHIFTS MPAC, +1, +2 LEFT N. SETS OVFIND
002224: 40,3154           54124                           TS       SFTEMP2                               #  TO +1 FOR OF, -1 FOR UF.
002225: 40,3155           56002                           XCH      Q                                     #  CALL WITH N-1 IN A.
002226: 40,3156           54123        LEFTNCOM           TS       SFTEMP1                               #      LOOP TIME .37 MSEC.
002227: 40,3157           04404                           TC       TPSL1
002228: 40,3160           10123                           CCS      SFTEMP1
002229: 40,3161           03156                           TC       LEFTNCOM


002231: 40,3162           00124                           TC       SFTEMP2
002232:
002233:
002234: 40,3163           56155        2ROUND             XCH      MPAC       +1
002235: 40,3164           60000                           DOUBLE
002236: 40,3165           54155                           TS       MPAC       +1
002237: 40,3166           00002                           TC       Q                                     #  IF MPAC+1 DOES NOT OF/UF
002238: 40,3167           60154                           AD       MPAC
002239: 40,3170           54154                           TS       MPAC
002240: 40,3171           00002                           TC       Q                                     #  IF MPAC DOES NOT OF/UF
002241: 40,3172           54162                           TS       MPAC+6
002242: 40,3173           00002        2RNDEND            TC       Q
002243:
002244:
002245: 40,3174           10162        TESTOFUF           CCS      MPAC+6                                #  RETURNS IF NO OF/UF
002246: 40,3175           04145                           TC       ALMCYCLE                              #  OF   ALARM AND RECYCLE.
002247: 40,3176           00002                           TC       Q
002248: 40,3177           04145                           TC       ALMCYCLE                              #  UF   ALARM AND RECYCLE.
002249:
002250:
002251: 42,3446                                           SETLOC   ENDSPMIN   +1
002252:
002253: 42,3446                                           COUNT*   $$/PIN
002254: 42,3446           03567        HMSIN              TC       ALL3DEC                               #  IF ALL 3 WORDS WERE NOT LOADED, ALARM.
002255: 42,3447           07102                           TC       DMP                                   #  XREG, XREGLP (=HOURS) WERE ALREADY PUT
002256: 42,3450           03530                           ADRES    WHOLECON                              #  INTO MPAC, MPAC+1.
002257: 42,3451           03537                           TC       RND/TST                               #  ROUND OFF TO WHOLE HRS IN MPAC+1.
002258: 42,3452           34755                           CAF      ZERO                                  #  ALARM IF MPAC NON ZERO (G/ 16383 ).
002259: 42,3453           54156                           TS       MPAC       +2
002260: 42,3454           33532                           CAF      HRCON
002261: 42,3455           54154                           TS       MPAC
002262: 42,3456           33533                           CAF      HRCON      +1
002263: 42,3457           56155                           XCH      MPAC       +1
002264: 42,3460           07306                           TC       SHORTMP
002265: 42,3461           03550                           TC       MPACTST                               #  ALARM IF MPAC NON ZERO (G/ 745)
002266: 42,3462           52156                           DXCH     MPAC       +1                         #  STORE HOURS CONTRIBUTION
002267: 42,3463           52124                           DXCH     HITEMIN
002268: 42,3464           31004                           CA       YREG                                  #  PUT YREG, YREGLP INTO MPAC, +1.
002269: 42,3465           23007                           LXCH     YREGLP
002270: 42,3466           52155                           DXCH     MPAC
002271: 42,3467           07102                           TC       DMP
002272: 42,3470           03530                           ADRES    WHOLECON
002273: 42,3471           03537                           TC       RND/TST                               #  ROUND OFF TO WHOLE MIN IN MPAC+1
002274: 42,3472           43535                           CS       59MIN                                 #  ALARM IF MPAC NON ZERO (G/16383)
002275: 42,3473           03555                           TC       SIZETST                               #  ALARM IF MPAC+1 G/ 59MIN
002276: 42,3474           56155                           XCH      MPAC       +1
002277: 42,3475           00006                           EXTEND
002278: 42,3476           73534                           MP       MINCON                                #  LEAVES MINUTES CONTRIBUTION IN A,L
002279: 42,3477           20124                           DAS      HITEMIN                               #  ADD IN MINUTES CONTRIBUTION
002280: 42,3500           00006                           EXTEND                                         #  IF THIS DAS OVERFLOWS, G/ 745 HR,39MIN


002282: 42,3501           13503                           BZF      +2
002283: 42,3502           04145                           TC       ALMCYCLE
002284: 42,3503           31005                           CA       ZREG                                  #  PUT ZREG, ZREGLP INTO MPAC, +1.
002285: 42,3504           23010                           LXCH     ZREGLP
002286: 42,3505           52155                           DXCH     MPAC
002287: 42,3506           07102                           TC       DMP
002288: 42,3507           03530                           ADRES    WHOLECON
002289: 42,3510           03537                           TC       RND/TST                               #  ROUND OFF TO WHOLE CENTI-SEC IN MPAC+1
002290: 42,3511           43536                           CS       59.99SEC                              #  ALARM IF MPAC NON ZERO (G/163.83 SEC)
002291: 42,3512           03555                           TC       SIZETST                               #  ALARM IF MPAC+1 G/59.99 SEC
002292: 42,3513           52124                           DXCH     HITEMIN                               #  ADD IN SECONDS CONTRIBUTION
002293: 42,3514           20155                           DAS      MPAC                                  #  IF THIS DAS OVERFLOWS,
002294: 42,3515           00006                           EXTEND                                         #  G/ 745 HR, 39 MIN, 14.55 SEC.
002295: 42,3516           13520                           BZF      +2
002296: 42,3517           04145                           TC       ALMCYCLE                              #  ALARM AND RECYCLE
002297: 42,3520           34755                           CAF      ZERO
002298: 42,3521           54156                           TS       MPAC       +2
002299: 42,3522           07256                           TC       TPAGREE
002300: 42,3523           52155                           DXCH     MPAC
002301: 42,3524           50145                           INDEX    NOUNADD
002302: 42,3525           52001                           DXCH     0
002303: 42,3526           04635                           TC       POSTJUMP
002304: 42,3527           62775                           CADR     LOADLV
002305:
002306: 42,3530           00006        WHOLECON           OCT      00006                                 #  (10EXP5/2EXP14)2EXP14
002307: 42,3531           03240                           OCT      03240
002308: 42,3532           00025        HRCON              OCT      00025                                 #  1 HOUR IN CENTI-SEC
002309: 42,3533           37100                           OCT      37100
002310: 42,3534           13560        MINCON             OCT      13560                                 #  1 MINUTE IN CENTI-SEC
002311: 42,3535           00073        59MIN              OCT      00073                                 #  59 AS WHOLE
002312: 42,3536           13557        59.99SEC           OCT      13557                                 #  5999 CENTI-SEC
002313:
002314:
002315: 42,3537           56156        RND/TST            XCH      MPAC       +2                         #  ROUNDS MPAC+2 INTO MPAC+1.
002316: 42,3540           60000                           DOUBLE                                         #  ALARMS IF MPAC NOT 0
002317: 42,3541           54156                           TS       MPAC       +2
002318: 42,3542           34755                           CAF      ZERO
002319: 42,3543           60155                           AD       MPAC       +1
002320: 42,3544           54155                           TS       MPAC       +1
002321: 42,3545           34755                           CAF      ZERO
002322: 42,3546           60154                           AD       MPAC                                  #  CANT OVFLOW
002323: 42,3547           56154                           XCH      MPAC
002324: 42,3550           10154        MPACTST            CCS      MPAC                                  #  ALARM IF MPAC NON ZERO
002325: 42,3551           04145                           TC       ALMCYCLE                              #  ALARM AND RECYCLE.
002326: 42,3552           00002                           TC       Q
002327: 42,3553           04145                           TC       ALMCYCLE                              #  ALARM AND RECYCLE.
002328: 42,3554           00002                           TC       Q
002329:
002330: 42,3555           54156        SIZETST            TS       MPAC       +2                         #  CALLED WITH - CON IN A
002331: 42,3556           10155                           CCS      MPAC       +1                         #  GET MAG OF MPAC+1


002333: 42,3557           64753                           AD       ONE
002334: 42,3560           13562                           TCF      +2
002335: 42,3561           64753                           AD       ONE
002336: 42,3562           60156                           AD       MPAC       +2
002337: 42,3563           00006                           EXTEND                                         #  MAG OF MPAC+1 - CON
002338: 42,3564           63566                           BZMF     +2
002339: 42,3565           04145                           TC       ALMCYCLE                              #  MAG OF MPAC+1 G/ CON. ALARM AND RECYCLE.
002340: 42,3566           00002                           TC       Q                                     #  MAG OF MPAC+1 L/= CON
002341:
002342:
002343:                                                                                                  #  ALL3DEC TESTS THAT ALL 3 WORDS ARE LOADED IN DEC (FOR HMSIN).
002344:                                                                                                  #  ALARM IF NOT. (TEST THAT BITS 3,4,5 OF DECBRNCH ARE ALL = 1)
002345: 42,3567           43574        ALL3DEC            CS       OCT34BAR                              #  GET BITS 3,4,5 IN A
002346: 42,3570           71000                           MASK     DECBRNCH                              #  GET BITS 3,4,5 OF DECBRNCH IN A
002347: 42,3571           63574                           AD       OCT34BAR                              #  BITS 3,4,5 OF DECBRNCH MUST ALL = 1
002348: 42,3572           10000                           CCS      A
002349: 42,3573           03577                           TC       FORCEV25
002350: 42,3574           77743        OCT34BAR           OCT      77743
002351: 42,3575           03577                           TC       FORCEV25
002352: 42,3576           00002                           TC       Q
002353:
002354: 42,3577           46010        FORCEV25           CS       OCT31                                 #  FORCE VERB 25 TO BE EXECUTED BY RECYCLE
002355: 42,3600           55041                           TS       VERBSAVE                              #   IN CASE OPERATOR EXECUTED A LOWER LOAD
002356: 42,3601           04145                           TC       ALMCYCLE                              #   VERB.  ALARM AND RECYCLE.
002357: 42,3602                        ENDHMSS            EQUALS
002358:


002360:                                                                                                  #  MONITOR ALLOWS OTHER KEYBOARD ACTIVITY. IT IS ENDED BY VERB TERMINATE,
002361:                                                                                                  #  VERB PROCEED WITHOUT DATA, VERB RESEQUENCE,
002362:                                                                                                  #  ANOTHER MONITOR, OR ANY NVSUB CALL THAT PASSES THE DSPLOCK (PROVIDED
002363:                                                                                                  #  THAT THE OPERATOR HAS SOMEHOW ALLOWED THE ENDING OF A MONITOR WHICH
002364:                                                                                                  #  HE HAS INITIATED THROUGH THE KEYBOARD).
002365:
002366:                                                                                                  #  MONITOR ACTION IS SUSPENDED, BUT NOT ENDED, BY ANY KEYBOARD ACTION,
002367:                                                                                                  #  EXCEPT ERROR LIGHT RESET. IT BEGINS AGAIN WHEN KEY RELEASE IS PERFORMED.
002368:                                                                                                  #  MONITOR SAVES THE NOUN AND APPROPRIATE DISPLAY VERB IN MONSAVE. IT SAVES
002369:                                                                                                  #  NOUNCADR IN MONSAVE1, IF NOUN = MACHINE CADR TO BE SPECIFIED. BIT 15 OF
002370:                                                                                                  #  MONSAVE1 IS THE KILL MONITOR SIGNAL (KILLER BIT). BIT 14 OF MONSAVE1
002371:                                                                                                  #  INDICATES THE CURRENT MONITOR WAS EXTERNALLY INITIATED (EXTERNAL
002372:                                                                                                  #  MONITOR BIT). IT IS TURNED OFF BY RELDSP AND KILMONON.
002373:
002374:                                                                                                  #  MONSAVE INDICATES IF MONITOR IS ON(+=ON, +0=OFF)
002375:                                                                                                  #  IF MONSAVE IS +, MONITOR ENTERS NO REQUEST, BUT TURNS KILLER BIT OFF.
002376:                                                                                                  #  IF MONSAVE IS +0, MONITOR ENTERS REQUEST AND TURNS KILLER BIT OFF.
002377:
002378:                                                                                                  #  NVSUB (IF EXTERNAL MONITOR BIT IS OFF), VB=PROCEED WITHOUT DATA,
002379:                                                                                                  #  VB=RESEQUENCE, AND VB=TERMINATE TURN KILL MONITOR BIT ON.
002380:
002381:                                                                                                  #  IF KILLER BIT IS ON, MONREQ ENTERS NO FURTHER REQUESTS, ZEROS MONSAVE
002382:                                                                                                  #  AND MONSAVE1 (TURNING OFF KILLER BIT AND EXTERNAL MONITOR BIT).
002383:
002384:                                                                                                  #  MONITOR DOSENT TEST FOR MATBS SINCE NVSUB CAN HANDLE INTERNAL MATBS NOW
002385: 41,3230                                           SETLOC   ENDRUTIN
002386:
002387: 41,3230                                           COUNT*   $$/PIN
002388: 41,3230           43237        MONITOR            CS       BIT15/14
002389: 41,3231           71017                           MASK     NOUNCADR
002390: 41,3232           54155        MONIT1             TS       MPAC       +1                         #  TEMP STORAGE
002391: 41,3233           40136                           CS       ENTEXIT
002392: 41,3234           64217                           AD       ENDINST
002393: 41,3235           10000                           CCS      A
002394: 41,3236           03245                           TC       MONIT2
002395: 41,3237           60000        BIT15/14           OCT      60000
002396: 41,3240           03245                           TC       MONIT2
002397: 41,3241           34736                           CAF      BIT14                                 #  EXTERNALLY INITIATED MONITOR,
002398: 41,3242           26155                           ADS      MPAC       +1                         #  SET BIT 14 FOR MONSAVE1.
002399: 41,3243           34755                           CAF      ZERO
002400: 41,3244           55022                           TS       MONSAVE2                              #  ZERO NVMONOPT OPTIONS
002401: 41,3245           36073        MONIT2             CAF      LOW7
002402: 41,3246           71001                           MASK     VERBREG
002403: 41,3247           04331                           TC       LEFT5
002404: 41,3250           54022                           TS       CYL
002405: 41,3251           40022                           CS       CYL
002406: 41,3252           56022                           XCH      CYL
002407: 41,3253           61002                           AD       NOUNREG
002408: 41,3254           54154                           TS       MPAC                                  #  TEMP STORAGE
002409: 41,3255           34755                           CAF      ZERO


002411: 41,3256           55012                           TS       DSPLOCK                               #  +0 INTO DSPLOCK SO MONITOR CAN RUN.
002412: 41,3257           11042                           CCS      CADRSTOR                              #  TURN OFF KR LITE IF CADRSTOR AND DSPLIST
002413: 41,3260           03262                           TC       +2                                    #  ARE BOTH EMPTY. (LITE COMES ON IF NEW
002414: 41,3261           04502                           TC       RELDSP1                               #  MONITOR IS KEYED IN OVER OLD MONITOR.)
002415: 41,3262           00004                           INHINT
002416: 41,3263           11020                           CCS      MONSAVE
002417: 41,3264           03271                           TC       +5                                    #  IF MONSAVE WAS +, NO REQUEST
002418: 41,3265           34753                           CAF      ONE                                   #  IF MONSAVE WAS 0, REQUEST MONREQ
002419: 41,3266           05203                           TC       WAITLIST
002420: 41,3267     0777                                  EBANK=   DSPCOUNT
002421: 41,3267           03275 62101                     2CADR    MONREQ
002422:
002423: 41,3271           52155                           DXCH     MPAC                                  #  PLACE MONITOR VERB AND NOUN INTO MONSAVE
002424: 41,3272           53021                           DXCH     MONSAVE                               #  ZERO THE KILL MONITOR BIT
002425: 41,3273           00003                           RELINT                                         #  SET UP EXTERNAL MONITOR BIT
002426: 41,3274           00136                           TC       ENTRET
002427:
002428:
002429: 41,3275           04400        MONREQ             TC       LODSAMPT                              #  CALLED BY WAITLIST
002430: 41,3276           11021                           CCS      MONSAVE1                              #  TIME IS SNATCHED IN RUPT FOR NOUN 65
002431: 41,3277           03303                           TC       +4                                    #  IF KILLER BIT = 0, ENTER REQUESTS
002432: 41,3300           03303                           TC       +3                                    #  IF KILLER BIT = 0, ENTER REQUESTS
002433: 41,3301           03314                           TC       KILLMON                               #  IF KILLER BIT = 1, NO REQUESTS
002434: 41,3302           03314                           TC       KILLMON                               #  IF KILLER BIT = 1, NO REQUESTS
002435: 41,3303           33320                           CAF      MONDEL
002436: 41,3304           05203                           TC       WAITLIST                              #  ENTER WAITLIST REQUEST FOR MONREQ
002437: 41,3305     0777                                  EBANK=   DSPCOUNT
002438: 41,3305           03275 62101                     2CADR    MONREQ
002439:
002440: 41,3307           34355                           CAF      CHRPRIO
002441: 41,3310           05072                           TC       NOVAC                                 #  ENTER EXEC REQUEST FOR MONDO
002442: 41,3311     0777                                  EBANK=   DSPCOUNT
002443: 41,3311           03321 62101                     2CADR    MONDO
002444:
002445: 41,3313           05261                           TC       TASKOVER
002446:
002447: 41,3314           34755        KILLMON            CAF      ZERO                                  #  ZERO MONSAVE AND TURN KILLER BIT OFF
002448: 41,3315           55020                           TS       MONSAVE
002449: 41,3316           55021                           TS       MONSAVE1                              #  TURN OFF KILL MONITOR BIT.
002450: 41,3317           05261                           TC       TASKOVER                              #  TURN OFF EXTERNAL MONITOR BIT.
002451: 41,3320           00144        MONDEL             OCT      144                                   #  FOR 1 SEC MONITOR INTERVALS
002452:
002453:
002454: 41,3321           11021        MONDO              CCS      MONSAVE1                              #  CALLED BY EXEC
002455: 41,3322           03326                           TC       +4                                    #  IF KILLER BIT = 0, CONTINUE
002456: 41,3323           03326                           TC       +3                                    #  IF KILLER BIT = 0, CONTINUE
002457: 41,3324           05155                           TC       ENDOFJOB                              #  IN CASE TERMINATE CAME SINCE LAST MONREQ
002458: 41,3325           05155                           TC       ENDOFJOB                              #  IN CASE TERMINATE CAME SINCE LAST MONREQ
002459: 41,3326           11012                           CCS      DSPLOCK
002460: 41,3327           03351                           TC       MONBUSY                               #  NVSUB IS BUSY


002462: 41,3330           36073                           CAF      LOW7
002463: 41,3331           71020                           MASK     MONSAVE
002464: 41,3332           02317                           TC       UPDATNN    -1                         #  PLACE NOUN INTO NOUNREG AND DISPLAY IT
002465: 41,3333           34144                           CAF      MID7
002466: 41,3334           71020                           MASK     MONSAVE                               #  CHANGE MONITOR VERB TO DISPLAY VERB
002467: 41,3335           63347                           AD       MONREF                                #  -DEC10, STARTING IN BIT8
002468: 41,3336           54023                           TS       EDOP                                  #  RIGHT 7
002469: 41,3337           30023                           CA       EDOP
002470: 41,3340           55001                           TS       VERBREG
002471: 41,3341           33350                           CAF      MONBACK                               #  SET RETURN TO PASTEVB AFTER DATA DISPLAY
002472: 41,3342           54136                           TS       ENTRET
002473: 41,3343           43237                           CS       BIT15/14
002474: 41,3344           71021                           MASK     MONSAVE1                              #  PUT ECADR INTO MPAC +2. INTMCTBS WILL
002475: 41,3345           54156                           TS       MPAC       +2                         #  DISPLAY IT AND SET NOUNCADR, NOUNADD,
002476: 41,3346           02046        ENDMONDO           TC       TESTNN                                #  EBANK.
002477:
002478:    4124                                           BLOCK    2
002479:
002480:    4000                                           SETLOC   FFTAG8
002481:    4000                                           BANK
002482:
002483:    4124                                           COUNT*   $$/PIN
002484:    4124           34144        PASTEVB            CAF      MID7
002485:    4125           71022                           MASK     MONSAVE2                              #  NVMONOPT PASTE OPTION
002486:    4126           00006                           EXTEND
002487:    4127           14131                           BZF      +2
002488:    4130           04132                           TC       PASTEOPT                              #  PASTE PLEASE VERB FOR NVMONOPT
002489:    4131           31020                           CA       MONSAVE                               #  PASTE MONITOR VERB - PASTE OPTION IS 0
002490:    4132           54023        PASTEOPT           TS       EDOP                                  #  RIGHT 7
002491:    4133           30023                           CA       EDOP                                  #  PLACE MONITOR VERB OR PLEASE VERB INTO
002492:    4134           04616                           TC       BANKCALL                              #   VERBREG AND DISPLAY IT.
002493:    4135           62337                           CADR     UPDATVB    -1
002494:    4136           34755                           CAF      ZERO                                  #  ZERO REQRET SO THAT PASTED VERBS CAN
002495:    4137           55013                           TS       REQRET                                #   BE EXECUTED BY OPERATOR.
002496:    4140           31022                           CA       MONSAVE2
002497:    4141           04255                           TC       BLANKSUB                              #  PROCESS NVMONOPT BLANK OPTION IF ANY
002498:    4142           04143                           TC       +1
002499:    4143           05155        ENDPASTE           TC       ENDOFJOB
002500:
002501:    4144           37600        MID7               OCT      37600
002502:
002503: 41,3347                                           SETLOC   ENDMONDO   +1
002504: 41,3347                                           COUNT*   $$/PIN
002505: 41,3347           75377        MONREF             OCT      75377                                 #  -DEC10, STARTING IN BIT8
002506: 41,3350           04124        MONBACK            ADRES    PASTEVB
002507:
002508: 41,3351           04374        MONBUSY            TC       RELDSPON                              #  TURN KEY RELEASE LIGHT
002509: 41,3352           05155                           TC       ENDOFJOB


002511:                                                                                                  #  DSPFMEM IS USED TO DISPLAY (IN OCTAL) ANY FIXED REGISTER.
002512:                                                                                                  #  IT IS USED WITH NOUN = MACHINE CADR TO BE SPECIFIED. THE FCADR OF THE
002513:                                                                                                  #  DESIRED LOCATION IS THEN PUNCHED IN. IT HANDLES F/F (FCADR 4000-7777)
002514:
002515:                                                                                                  #  FOR BANKS L/E 27, THIS IS ENOUGH.
002516:
002517:                                                                                                  #  FOR BANKS G/E 30, THE THIRD COMPONENT OF NOUN 26 (PRIO, ADRES, BBCON)
002518:                                                                                                  #  MUST BE PRELOADED WITH THE DESIRED SUPERBANK BITS (BITS 5,6,7).
002519:                                                                                                  #           V23N26 SHOULD BE USED.
002520:
002521:                                                                                                  #  SUMMARY
002522:                                                                                                  #  FOR BANKS L/E 27,                          V27N01E(FCADR)E
002523:                                                                                                  #  FOR BANKS G/E 30,    V23N26E(SUPERBITS)E   V27N01E(FCADR)E
002524:
002525: 41,3353           34317        DSPFMEM            CAF      R1D1                                  #  IF F/F, DATACALL USES BANK 02 OR 03.
002526: 41,3354           54777                           TS       DSPCOUNT
002527: 41,3355           31047                           CA       DSPTEM1    +2                         #  SUPERBANK BITS WERE PRELOADED INTO
002528: 41,3356           54001                           TS       L                                     #  3RD COMPONENT OF NOUN 26.
002529: 41,3357           31017                           CA       NOUNCADR                              #  ORIGINAL FCADR LOADED STILL IN NOUNCADR.
002530: 41,3360           04651                           TC       SUPDACAL                              #  CALL WITH FCADR IN A, SUPERBITS IN L.
002531: 41,3361           03363                           TC       DSPOCTWD
002532: 41,3362           05155        ENDSPF             TC       ENDOFJOB
002533:


002535:                                                                                                  #  WORD DISPLAY ROUTINES
002536:
002537: 40,3200                                           SETLOC   TESTOFUF   +4
002538: 40,3200                                           COUNT*   $$/PIN
002539: 40,3200           56002        DSPSIGN            XCH      Q
002540: 40,3201           54144                           TS       DSPWDRET
002541: 40,3202           10154                           CCS      MPAC
002542: 40,3203           03213                           TC       +8D
002543: 40,3204           03213                           TC       +7
002544: 40,3205           64753                           AD       ONE
002545: 40,3206           54154                           TS       MPAC
002546: 40,3207           02433                           TC       -ON
002547: 40,3210           40155                           CS       MPAC       +1
002548: 40,3211           54155                           TS       MPAC       +1
002549: 40,3212           00144                           TC       DSPWDRET
002550: 40,3213           02413                           TC       +ON
002551: 40,3214           00144                           TC       DSPWDRET
002552:
002553: 40,3215           00006        DSPRND             EXTEND                                         #  ROUND BY 5 EXP-6
002554: 40,3216           33261                           DCA      DECROUND   -1
002555: 40,3217           20155                           DAS      MPAC
002556: 40,3220           00006                           EXTEND
002557: 40,3221           13225                           BZF      +4
002558: 40,3222           00006                           EXTEND
002559: 40,3223           34733                           DCA      DPOSMAX
002560: 40,3224           52155                           DXCH     MPAC
002561: 40,3225           00002                           TC       Q
002562:
002563:                                                                                                  #  DSPDECWD CONVERTS C( MPAC, MPAC+1) INTO A SIGN AND 5 CHAR DECIMAL
002564:                                                                                                  #  STARTING IN LOC SPECIFIED IN DSPCOUNT. IT ROUNDS BY 5 EXP-6.
002565:
002566: 40,3226           56002        DSPDECWD           XCH      Q
002567: 40,3227           54115                           TS       WDRET
002568: 40,3230           03200                           TC       DSPSIGN
002569: 40,3231           03215                           TC       DSPRND
002570: 40,3232           34751                           CAF      FOUR
002571: 40,3233           54137        DSPDCWD1           TS       WDCNT
002572: 40,3234           34363                           CAF      BINCON
002573: 40,3235           07306                           TC       SHORTMP
002574: 40,3236           50154        TRACE1             INDEX    MPAC
002575: 40,3237           34066                           CAF      RELTAB
002576: 40,3240           74346                           MASK     LOW5
002577: 40,3241           54124                           TS       CODE
002578: 40,3242           34755                           CAF      ZERO
002579: 40,3243           56156                           XCH      MPAC       +2
002580: 40,3244           56155                           XCH      MPAC       +1
002581: 40,3245           54154                           TS       MPAC
002582: 40,3246           56777                           XCH      DSPCOUNT
002583: 40,3247           54143        TRACE1S            TS       COUNT
002584: 40,3250           10000                           CCS      A                                     #  DECREMENT DSPCOUNT EXCEPT AT +0


002586: 40,3251           54777                           TS       DSPCOUNT
002587: 40,3252           03322                           TC       DSPIN
002588: 40,3253           10137                           CCS      WDCNT
002589: 40,3254           03233                           TC       DSPDCWD1
002590: 40,3255           44360                           CS       VD1
002591: 40,3256           54777                           TS       DSPCOUNT
002592: 40,3257           00115                           TC       WDRET
002593:
002594: 40,3260           00000                           OCT      00000
002595: 40,3261           02476        DECROUND           OCT      02476
002596:
002597:                                                                                                  #  DSPDECNR CONVERTS C( MPAC,MPAC+1) INTO A SIGN AND 5 CHAR DECIMAL
002598:                                                                                                  #  STARTING IN LOC SPECIFIED IN DSPCOUNT. IT DOES NOT ROUND
002599:
002600: 40,3262           56002        DSPDECNR           XCH      Q
002601: 40,3263           54115                           TS       WDRET
002602: 40,3264           03200                           TC       DSPSIGN
002603: 40,3265           03232                           TC       DSPDCWD1   -1
002604:
002605:                                                                                                  #  DSPDC2NR CONVERTS C( MPAC,MPAC+1) INTO A SIGN AND 2 CHAR DECIMAL
002606:                                                                                                  #  STARTING IN LOC SPECIFIED IN DSPCOUNT. IT DOES NOT ROUND
002607:
002608: 40,3266           56002        DSPDC2NR           XCH      Q
002609: 40,3267           54115                           TS       WDRET
002610: 40,3270           03200                           TC       DSPSIGN
002611: 40,3271           34753                           CAF      ONE
002612: 40,3272           03233                           TC       DSPDCWD1
002613:
002614:
002615:                                                                                                  #  DSP2DEC CONVERTS C(MPAC) AND C(MPAC+1) INTO A SIGN AND 10 CHAR DECIMAL
002616:                                                                                                  #  STARTING IN THE LOC SPECIFIED IN DSPCOUNT.
002617:
002618: 40,3273           56002        DSP2DEC            XCH      Q
002619: 40,3274           54115                           TS       WDRET
002620: 40,3275           34755                           CAF      ZERO
002621: 40,3276           54124                           TS       CODE
002622: 40,3277           36244                           CAF      THREE
002623: 40,3300           03404                           TC       11DSPIN                               #  -R2 OFF
002624: 40,3301           34751                           CAF      FOUR
002625: 40,3302           03404                           TC       11DSPIN                               #  +R2 OFF
002626: 40,3303           03200                           TC       DSPSIGN
002627: 40,3304           34320                           CAF      R2D1
002628: 40,3305           03233        END2DEC            TC       DSPDCWD1
002629:
002630:
002631:                                                                                                  #  DSPDECVN DISPLAYS C(A) UPON ENTRY AS A 2 CHAR DECIMAL BEGINNING IN THE
002632:                                                                                                  #  DSP LOC SPECIFIED IN DSPCOUNT.
002633:                                                                                                  #  C(A) SHOULD BE IN FORM N X 2EXP-14. THIS IS SCALED TO FORM N/100 BEFORE
002634:                                                                                                  #  DISPLAY CONVERSION.
002635:


002637: 40,3306           00006        DSPDECVN           EXTEND
002638: 40,3307           73316                           MP       VNDSPCON                              #  MULT BY .01
002639: 40,3310           22154                           LXCH     MPAC                                  #  TAKE RESULTS FROM L.(MULT BY 2EXP14).
002640: 40,3311           34755                           CAF      ZERO
002641: 40,3312           54155                           TS       MPAC       +1
002642: 40,3313           56002                           XCH      Q
002643: 40,3314           54115                           TS       WDRET
002644: 40,3315           03271                           TC       DSPDC2NR   +3                         #  NO SIGN, NO ROUND, 2 CHAR
002645:
002646: 40,3316           00244        VNDSPCON           OCT      00244                                 #  .01 ROUNDED UP
002647:
002648:
002649: 40,3317           03306        GOVNUPDT           TC       DSPDECVN                              #  THIS IS NOT FOR GENERAL USE. REALLY PART
002650: 40,3320           04635                           TC       POSTJUMP                              #  OF UPDATVB.
002651: 40,3321           62347                           CADR     UPDAT1     +2
002652:
002653: 40,3322                        ENDECVN            EQUALS
002654:
002655:
002656: 41,3363                                           SETLOC   ENDSPF     +1
002657: 41,3363                                           COUNT*   $$/PIN
002658:                                                                                                  #  DSPOCTWD DISPLAYS C(A) UPON ENTRY AS A 5 CHAR OCT STARTING IN THE DSP
002659:                                                                                                  #  CHAR SPECIFIED IN DSPCOUNT. IT STOPS AFTER 5 CHAR HAVE BEEN DISPLAYED.
002660:
002661: 41,3363           54022        DSPOCTWD           TS       CYL
002662: 41,3364           56002                           XCH      Q
002663: 41,3365           54115                           TS       WDRET                                 #  MUST USE SAME RETURN AS DSP2BIT.
002664: 41,3366           34736                           CAF      BIT14                                 #  TO BLANK SIGNS
002665: 41,3367           26777                           ADS      DSPCOUNT
002666: 41,3370           34751                           CAF      FOUR
002667: 41,3371           54137        WDAGAIN            TS       WDCNT
002668: 41,3372           40022                           CS       CYL
002669: 41,3373           40022                           CS       CYL
002670: 41,3374           40022                           CS       CYL
002671: 41,3375           40000                           CS       A
002672: 41,3376           74757                           MASK     DSPMSK
002673: 41,3377           50000                           INDEX    A
002674: 41,3400           34066                           CAF      RELTAB
002675: 41,3401           74346                           MASK     LOW5
002676: 41,3402           54124                           TS       CODE
002677: 41,3403           56777                           XCH      DSPCOUNT
002678: 41,3404           54143                           TS       COUNT
002679: 41,3405           10000                           CCS      A                                     #  DECREMENT DSPCOUNT EXCEPT AT +0
002680: 41,3406           54777                           TS       DSPCOUNT
002681: 41,3407           04635                           TC       POSTJUMP
002682: 41,3410           61412                           CADR     DSPOCTIN
002683: 41,3411           10137        OCTBACK            CCS      WDCNT
002684: 41,3412           03371                           TC       WDAGAIN                               #  +
002685: 41,3413           44360        DSPLV              CS       VD1                                   #  TO BLOCK NUMERICAL CHARACTERS, CLEARS,
002686: 41,3414           54777                           TS       DSPCOUNT                              #  AND SIGNS AFTER A COMPLETED DISPLAY.


002688: 41,3415           00115                           TC       WDRET
002689:
002690: 41,3416     4757               DSPMSK             =        SEVEN
002691:
002692:
002693:                                                                                                  #  DSP2BIT DISPLAYS C(A) UPON ENTRY AS A 2 CHAR OCT BEGINNING IN THE DSP
002694:                                                                                                  #  LOC SPECIFIED IN DSPCOUNT BY PRE CYCLING RIGHT C(A) AND USING THE LOGIC
002695:                                                                                                  #  OF THE 5 CHAR OCTAL DISPLAY
002696:
002697: 41,3416           54020        DSP2BIT            TS       CYR
002698: 41,3417           56002                           XCH      Q
002699: 41,3420           54115                           TS       WDRET
002700: 41,3421           34753                           CAF      ONE
002701: 41,3422           54137                           TS       WDCNT
002702: 41,3423           40020                           CS       CYR
002703: 41,3424           40020                           CS       CYR
002704: 41,3425           56020                           XCH      CYR
002705: 41,3426           54022                           TS       CYL
002706: 41,3427           03376                           TC       WDAGAIN    +5
002707:
002708:
002709:                                                                                                  #  FOR DSPIN PLACE 0/25 OCT INTO COUNT, 5 BIT RELAY CODE INTO CODE. BOTH
002710:                                                                                                  #  ARE DESTROYED. IF BIT14 OF COUNT IS 1, SIGN IS BLANKED WITH LEFT CHAR.
002711:                                                                                                  #  FOR DSPIN1 PLACE 0,1 INTO BIT11 OF CODE, 2 INTO COUNT, REL ADDRESS OF
002712:                                                                                                  #  DSPTAB ENTRY INTO DSREL.
002713:
002714: 40,3322                                           SETLOC   ENDECVN
002715:
002716: 40,3322                                           COUNT*   $$/PIN
002717: 40,3322           56002        DSPIN              XCH      Q                                     #  CANT USE L FOR RETURN, SINCE MANY OF THE
002718: 40,3323           54114                           TS       DSEXIT                                #  ROUTINES CALLING DSPIN USE L AS RETURN.
002719: 40,3324           34346                           CAF      LOW5
002720: 40,3325           70143                           MASK     COUNT
002721: 40,3326           54021                           TS       SR
002722: 40,3327           56021                           XCH      SR
002723: 40,3330           54141                           TS       DSREL
002724: 40,3331           34753                           CAF      BIT1
002725: 40,3332           70143                           MASK     COUNT
002726: 40,3333           10000                           CCS      A
002727: 40,3334           03336                           TC       +2                                    #  LEFT IF COUNT IS ODD
002728: 40,3335           03346                           TC       DSPIN1     -1                         #  RIGHT IF COUNT IS EVEN
002729: 40,3336           56124                           XCH      CODE
002730: 40,3337           04340                           TC       SLEFT5                                #  DOES NOT USE CYL
002731: 40,3340           54124                           TS       CODE
002732: 40,3341           34736                           CAF      BIT14
002733: 40,3342           70143                           MASK     COUNT
002734: 40,3343           10000                           CCS      A
002735: 40,3344           34752                           CAF      TWO                                   #  BIT14 = 1, BLANK SIGN
002736: 40,3345           64753                           AD       ONE                                   #  BIT14 = 0, LEAVE SIGN ALONE
002737: 40,3346           54143                           TS       COUNT                                 #  +0 INTO COUNT FOR RIGHT


002739:                                                                                                  #  +1 INTO COUNT FOR LEFT(SIGN LEFT ALONE)
002740:                                                                                                  #  +3 INTO COUNT FOR LEFT(TO BLANK SIGN)
002741: 40,3347           00004        DSPIN1             INHINT
002742: 40,3350           50141                           INDEX    DSREL
002743: 40,3351           11023                           CCS      DSPTAB
002744: 40,3352           03354                           TC       +2                                    #  IF +
002745: 40,3353           05677                           TC       CCSHOLE
002746: 40,3354           64753                           AD       ONE                                   #  IF -
002747: 40,3355           54142                           TS       DSMAG
002748: 40,3356           50143                           INDEX    COUNT
002749: 40,3357           73400                           MASK     DSMSK
002750: 40,3360           00006                           EXTEND
002751: 40,3361           60124                           SU       CODE
002752: 40,3362           00006                           EXTEND
002753: 40,3363           13376                           BZF      DSLV                                  #  SAME
002754: 40,3364           50143        DFRNT              INDEX    COUNT
002755: 40,3365           43400                           CS       DSMSK                                 #  MASK WITH 77740,76037,75777, OR 74037
002756: 40,3366           70142                           MASK     DSMAG
002757: 40,3367           60124                           AD       CODE
002758: 40,3370           40000                           CS       A
002759: 40,3371           50141                           INDEX    DSREL
002760: 40,3372           57023                           XCH      DSPTAB
002761: 40,3373           00006                           EXTEND
002762: 40,3374           63376                           BZMF     DSLV                                  #  DSPTAB ENTRY WAS -
002763: 40,3375           25016                           INCR     NOUT                                  #  DSPTAB ENTRY WAS +
002764: 40,3376           00003        DSLV               RELINT
002765: 40,3377           00114                           TC       DSEXIT
002766:
002767: 40,3400           00037        DSMSK              OCT      37
002768: 40,3401           01740                           OCT      1740
002769: 40,3402           02000                           OCT      2000
002770: 40,3403           03740                           OCT      3740
002771:
002772:
002773:                                                                                                  #  FOR 11DSPIN, PUT REL ADDRESSS OF DSPTAB ENTRY INTO A, 1 IN BIT11 OR 0 IN
002774:                                                                                                  #  BIT11 OF CODE.
002775:
002776: 40,3404           54141        11DSPIN            TS       DSREL
002777: 40,3405           34752                           CAF      TWO
002778: 40,3406           54143                           TS       COUNT
002779: 40,3407           56002                           XCH      Q                                     #  MUST USE SAME RETURN AS DSPIN
002780: 40,3410           54114                           TS       DSEXIT
002781: 40,3411           03347                           TC       DSPIN1
002782:
002783:
002784: 40,3412           03322        DSPOCTIN           TC       DSPIN                                 #  SO DSPOCTWD DOESNT USE SWCALL
002785: 40,3413           33415                           CAF      +2
002786: 40,3414           04640                           TC       BANKJUMP
002787: 40,3415           63411        ENDSPOCT           CADR     OCTBACK
002788:


002790:                                                                                                  #  DSPALARM FINDS TC NVSUBEND IN ENTRET FOR NVSUB INITIATED ROUTINES.
002791:                                                                                                  #  ABORT WITH 01501.
002792:                                                                                                  #  DSPALARM FINDS TC ENDOFJOB IN ENTRET FOR KEYBOARD INITIATED ROUTINES.
002793:                                                                                                  #  DC TC ENTRET.
002794:
002795: 40,3416           44360        PREDSPAL           CS       VD1
002796: 40,3417           54777                           TS       DSPCOUNT
002797: 40,3420           43437        DSPALARM           CS       NVSBENDL
002798: 40,3421           60136                           AD       ENTEXIT
002799: 40,3422           00006                           EXTEND
002800: 40,3423           13434                           BZF      CHARALRM   +2
002801: 40,3424           43436                           CS       MONADR                                #  IF THIS IS A MONITOR, KILL IT
002802: 40,3425           60136                           AD       ENTEXIT
002803: 40,3426           00006                           EXTEND
002804: 40,3427           13431                           BZF      +2
002805: 40,3430           03432                           TC       +2
002806: 40,3431           04204                           TC       KILMONON
002807: 40,3432           04364        CHARALRM           TC       FALTON                                #  NOT NVSUB INITIATED. TURN ON OPR ERROR
002808: 40,3433           05155                           TC       ENDOFJOB
002809: 40,3434           05652                           TC       POODOO
002810: 40,3435           01501                           OCT      01501
002811: 40,3436           04124        MONADR             GENADR   PASTEVB
002812: 40,3437           04202        NVSBENDL           TC       NVSUBEND
002813:
002814:
002815:                                                                                                  #  ALMCYCLE TURNS ON CHECK FAIL LIGHT, REDISPLAYS THE ORIGINAL VERB THAT
002816:                                                                                                  #  WAS EXECUTED, AND RECYCLES TO EXECUTE THE ORIGINAL VERB/NOUN COMBINATION
002817:                                                                                                  #  THAT WAS LAST EXECUTED. USED FOR BAD DATA DURING LOAD VERBS AND BY
002818:                                                                                                  #  MCTBS. ALSO BY MMCHANG IF 2 NUMERICAL CHARACTERS WERE NOT PUNCHED IN
002819:                                                                                                  #  FOR MM CODE.
002820:
002821:    4145                                           SETLOC   MID7       +1
002822:    4145                                           COUNT*   $$/PIN
002823:    4145           04364        ALMCYCLE           TC       FALTON                                #  TURN ON CHECK FAIL LIGHT.
002824:    4146           41041                           CS       VERBSAVE                              #  GET ORIGINAL VERB THAT WAS EXECUTED
002825:    4147           55013                           TS       REQRET                                #  SET FOR ENTPAS0
002826:    4150           04616                           TC       BANKCALL                              #  PUTS ORIGINAL VERB INTO VERBREG AND
002827:    4151           62337                           CADR     UPDATVB    -1                         #  DISPLAYS IT IN VERB LIGHTS.
002828:    4152           04635                           TC       POSTJUMP
002829:    4153           62002        ENDALM             CADR     ENTER
002830:
002831:
002832:                                                                                                  #  MMCHANG USES NOUN DISPLAY UNTIL ENTER. THEN IT USES MODE DISP.
002833:                                                                                                  #  IT GOES TO MODROUT WITH THE NEW M M CODE IN A, BUT NOT DISPLAYED IN
002834:                                                                                                  #  MM LIGHTS.
002835:                                                                                                  #  IT DEMANDS 2 NUMERICAL CHARACTERS BE PUNCHED IN FOR NEW MM CODE.
002836:                                                                                                  #  IF NOT, IT RECYCLES.
002837:
002838: 41,3430                                           SETLOC   DSP2BIT    +10D
002839:


002841: 41,3430                                           COUNT*   $$/PIN
002842: 41,3430           03452        MMCHANG            TC       REQMM                                 #  ENTPASHI ASSUMES THE TC REQMM AT MMCHANG
002843:                                                                                                  #  IF THIS MOVES AT ALL, MUST CHANGE
002844:                                                                                                  #  MMADREF AT ENTPASHI.
002845: 41,3431           34747                           CAF      BIT5                                  #  OCT20 = ND2.
002846: 41,3432           60777                           AD       DSPCOUNT                              #  DSPCOUNT MUST = -ND2.
002847: 41,3433           00006                           EXTEND                                         #  DEMAND THAT 2 NUM CHAR WERE PUNCHED IN.
002848: 41,3434           13436                           BZF      +2
002849: 41,3435           04145                           TC       ALMCYCLE                              #  DSPCOUNT NOT= -ND2. ALARM AND RECYCLE.
002850: 41,3436           34755                           CAF      ZERO                                  #  DSPCOUNT = -ND2.
002851: 41,3437           57002                           XCH      NOUNREG
002852: 41,3440           54154                           TS       MPAC
002853: 41,3441           34361                           CAF      ND1
002854: 41,3442           54777                           TS       DSPCOUNT
002855: 41,3443           04616                           TC       BANKCALL
002856: 41,3444           60601                           CADR     2BLANK
002857: 41,3445           44360                           CS       VD1                                   #  BLOCK NUM CHAR IN
002858: 41,3446           54777                           TS       DSPCOUNT
002859: 41,3447           30154                           CA       MPAC
002860: 41,3450           04635                           TC       POSTJUMP
002861: 41,3451           10037                           CADR     MODROUTB                              #  GO THRU STANDARD LOC.
002862:
002863:
002864: 41,3452  04,2037               MODROUTB           =        V37
002865: 41,3452           40002        REQMM              CS       Q
002866: 41,3453           55013                           TS       REQRET
002867: 41,3454           34361                           CAF      ND1
002868: 41,3455           54777                           TS       DSPCOUNT
002869: 41,3456           34755                           CAF      ZERO
002870: 41,3457           55002                           TS       NOUNREG
002871: 41,3460           04616                           TC       BANKCALL
002872: 41,3461           60601                           CADR     2BLANK
002873: 41,3462           04427                           TC       FLASHON
002874: 41,3463           34753                           CAF      ONE
002875: 41,3464           55000                           TS       DECBRNCH                              #  SET FOR DEC
002876: 41,3465           00136                           TC       ENTEXIT
002877:
002878:
002879:                                                                                                  #  VBRQEXEC ENTERS REQUEST TO EXEC     FOR ANY ADDRESS WITH ANY PRIORITY.
002880:                                                                                                  #  IT DOES ENDOFJOB AFTER ENTERING REQUEST. DISPLAY SYST IS RELEASED.
002881:                                                                                                  #  IT ASSUMES NOUN 26 HAS BEEN PRELOADED WITH
002882:                                                                                                  #  COMPONENT 1  PRIORITY(BITS 10-14) BIT1=0 FOR NOVAC, BIT1=1 FOR FINDVAC.
002883:                                                                                                  #  COMPONENT 2  JOB ADRES (12 BIT )
002884:                                                                                                  #  COMPONENT 3  BBCON
002885:
002886: 41,3466           34753        VBRQEXEC           CAF      BIT1
002887: 41,3467           71045                           MASK     DSPTEM1
002888: 41,3470           10000                           CCS      A
002889: 41,3471           03510                           TC       SETVAC                                #  IF BIT1 = 1, FINDVAC
002890: 41,3472           34351                           CAF      TCNOVAC                               #  IF BIT1 = 0, NOVAC


002892: 41,3473           54154        REQEX1             TS       MPAC                                  #  TC NOVAC  OR  TC FINDVAC INTO MPAC
002893: 41,3474           44753                           CS       BIT1
002894: 41,3475           71045                           MASK     DSPTEM1
002895: 41,3476           54160                           TS       MPAC       +4                         #  PRIO INTO MPAC+4 AS A TEMP
002896: 41,3477           04457        REQUESTC           TC       RELDSP
002897: 41,3500           34217                           CA       ENDINST
002898: 41,3501           54157                           TS       MPAC       +3                         #  TC ENDOFJOB INTO MPAC+3
002899: 41,3502           00006                           EXTEND
002900: 41,3503           31047                           DCA      DSPTEM1    +1                         #  JOB ADRES INTO MPAC+1
002901: 41,3504           52156                           DXCH     MPAC       +1                         #  BBCON INTO MPAC+2
002902: 41,3505           30160                           CA       MPAC       +4                         #  PRIO IN A
002903: 41,3506           00004                           INHINT
002904: 41,3507           00154                           TC       MPAC
002905:
002906: 41,3510           34354        SETVAC             CAF      TCFINDVC
002907: 41,3511           03473                           TC       REQEX1
002908:
002909:                                                                                                  #  VBRQWAIT ENTERS REQUEST TO WAITLIST FOR ANY ADDRESS WITH ANY DELAY.
002910:                                                                                                  #  IT DOES ENDOFJOB AFTER ENTERING REQUEST.DISPLAY SYST IS RELEASED.
002911:                                                                                                  #  IT ASSUMES NOUN 26 HAS BEEN PRELOADED WITH
002912:                                                                                                  #  COMPONENT 1  DELAY (LOW BITS)
002913:                                                                                                  #  COMPONENT 2  TASK ADRES (12 BIT)
002914:                                                                                                  #  COMPONENT 3  BBCON
002915:
002916: 41,3512           34352        VBRQWAIT           CAF      TCWAIT
002917: 41,3513           54154                           TS       MPAC                                  #  TC WAITLIST INTO MPAC
002918: 41,3514           31045                           CA       DSPTEM1                               #  TIME DELAY
002919: 41,3515           03476        ENDRQWT            TC       REQUESTC   -1
002920:
002921:                                                                                                  #  REQUESTC WILL PUT TASK ADRES INTO MPAC+1, BBCON INTO MPAC+2,
002922:                                                                                                  #  TC ENDOFJOB INTO MPAC+3. IT WILL TAKE TIME DELAY OUT OF MPAC+4 AND
002923:                                                                                                  #  LEAVE IT IN A, INHINT AND TC MPAC.
002924:
002925: 40,3440                                           SETLOC   NVSBENDL   +1
002926: 40,3440                                           COUNT*   $$/PIN
002927: 40,3440           34753        VBPROC             CAF      ONE                                   #  PROCEED WITHOUT DATA
002928: 40,3441           55014                           TS       LOADSTAT
002929: 40,3442           04204                           TC       KILMONON                              #  TURN ON KILL MONITOR BIT
002930: 40,3443           04457                           TC       RELDSP
002931: 40,3444           04433                           TC       FLASHOFF
002932: 40,3445           03545                           TC       RECALTST                              #  SEE IF THERE IS ANY RECALL FROM ENDIDLE
002933:
002934:
002935: 40,3446           44753        VBTERM             CS       ONE
002936: 40,3447           03441                           TC       VBPROC     +1                         #  TERM VERB SETS LOADSTAT NEG
002937:
002938:                                                                                                  #  PROCKEY PERFORMS THE SAME FUNCTION AS VBPROC.  IT MUST BE CALLED UNDER
002939:                                                                                                  #  EXECUTIVE CONTROL, WITH CHRPRIO.
002940:


002942: 40,3450           34755        PROCKEY            CAF      ZERO                                  #  SET REQRET FOR ENTER PASS 0.
002943: 40,3451           55013                           TS       REQRET
002944: 40,3452           44360                           CS       VD1                                   #  BLOCK NUMERICAL CHARACTERS, SIGNS, CLEAR
002945: 40,3453           54777                           TS       DSPCOUNT
002946: 40,3454           03440                           TC       VBPROC
002947:
002948:
002949:                                                                                                  #  VBRESEQ WAKES ENDIDLE AT SAME LINE AS FINAL ENTER OF LOAD (L+3).
002950:                                                                                                  #  (MAIN USE IS INTENDED AS RESPONSE TO INTERNALLY INITIATED FLASHING
002951:                                                                                                  #   DISPLAYS IN ENDIDLE. SHOULD NOT BE USED WITH LOAD VERBS,PLEASE PERFORM,
002952:                                                                                                  #   OR PLEASE MARK VERBS BECAUSE THEY ALREADY USE L+3 IN ANOTHER CONTEXT.)
002953:
002954: 40,3455           44755        VBRESEQ            CS       ZERO                                  #  MAKE IT LOOK LIKE DATA IN.
002955: 40,3456           03441                           TC       VBPROC     +1
002956:
002957:
002958:                                                                                                  #  FLASH IS TURNED OFF BY PROCEED WITHOUT DATA, TERMINATE, RESEQUENCE,
002959:                                                                                                  #  END OF LOAD.
002960:


002962:                                                                                                  #  KEY RELEASE ROUTINE
002963:
002964:                                                                                                  #  THIS ROUTINE ALWAYS TURNS OFF THE UPACT LIGHT AND ALWAYS CLEARS DSPLOCK.
002965:
002966:                                                                                                  #  THE HIGHEST PRIORITY FUNCTION OF THE KEY RELEASE BUTTON IS THE
002967:                                                                                                  #  UNSUSPENDING OF A SUSPENDED MONITOR WHICH WAS EXTERNALLY INITIATED.
002968:                                                                                                  #  THIS FUNCTION IS ACCOMPLISHED BY CLEARING DSPLOCK AND TURNING OFF
002969:                                                                                                  #  THE KEY RELEASE LIGHT IF BOTH DSPLIST AND CADRSTOR ARE EMPTY.
002970:
002971:                                                                                                  #  IF NO SUCH MONITOR EXISTS, THEN RELDSP IS EXECUTED TO CLEAR DSPLOCK
002972:                                                                                                  #  AND THE EXTERNAL MONITOR BIT (FREEING THE DISPLAY SYSTEM FOR INTERNAL
002973:                                                                                                  #  USE), TURN OFF THE KEY RELEASE LIGHT, AND WAKE UP ANY JOB IN DSPLIST.
002974:
002975:                                                                                                  #  IN ADDITION IF THERE IS A JOB IN ENDIDLE, THEN CONTROL IS TRANSFERRED
002976:                                                                                                  #  TO PINBRNCH (IN DISPLAY INTERFACE ROUTINE) TO RE-EXECUTE THE SERIES OF
002977:                                                                                                  #  NVSUB CALLS ETC. THAT PRECEDED THE ENDIDLE CALL STILL AWAITING RESPONSE.
002978:                                                                                                  #  THIS FEATURE IS INTENDED FOR USE WHEN THE OPERATOR HAS BEEN REQUESTED TO
002979:                                                                                                  #  RESPOND TO SOME INTERNAL ACTION THAT USED ENDIDLE, BUT HE HAS WRITTEN
002980:                                                                                                  #  OVER THE INFORMATION ON THE DISPLAY PANEL BY SOME DISPLAYS OF HIS OWN
002981:                                                                                                  #  INITIATION WHICH DO NOT SERVE AS RESPONSES. HITTING KEY RLSE WILL
002982:                                                                                                  #  RE-ESTABLISH THE DISPLAYS TO THE STATE THEY WERE IN BEFORE HE OBSCURED
002983:                                                                                                  #  THEM, SO THAT HE CAN SEE THE WAITING REQUEST.  THIS WORKS ONLY FOR
002984:                                                                                                  #  INTERNAL PROGRAMS THAT USED ENDIDLE THROUGH MARGARETS DISPLAY
002985:                                                                                                  #  SUBROUTINES.
002986:
002987: 40,3457           44751        VBRELDSP           CS       BIT3
002988: 40,3460           00006                           EXTEND
002989: 40,3461           03011                           WAND     DSALMOUT                              #  TURN OFF UPACT LITE
002990: 40,3462           10115                           CCS      21/22REG                              #  OLD DSPLOCK
002991: 40,3463           34736                           CAF      BIT14
002992: 40,3464           71021                           MASK     MONSAVE1                              #  EXTERNAL MONITOR BIT (EMB)
002993: 40,3465           10000                           CCS      A
002994: 40,3466           03475                           TC       UNSUSPEN                              #  OLD DSPLOCK AND EMB BOTH 1, UNSUSPEND.
002995: 40,3467           04457        TSTLTS4            TC       RELDSP                                #  NOT UNSUSPENDING EXTERNAL MONITOR,
002996: 40,3470           11042                           CCS      CADRSTOR                              #   RELEASE DISPLAY SYSTEM AND
002997: 40,3471           03473                           TC       +2                                    #   DO RE-ESTABLISH IF CADRSTOR IS FULL.
002998: 40,3472           05155                           TC       ENDOFJOB
002999: 40,3473           04635                           TC       POSTJUMP
003000: 40,3474           20723                           CADR     PINBRNCH
003001: 40,3475           34755        UNSUSPEN           CAF      ZERO                                  #  EXTERNAL MONITOR IS SUSPENDED,
003002: 40,3476           55012                           TS       DSPLOCK                               #   JUST UNSUSPEND IT BY CLEARING DSPLOCK.
003003: 40,3477           11042                           CCS      CADRSTOR                              #   TURN KEY RELEASE LIGHT OFF IF BOTH
003004: 40,3500           05155                           TC       ENDOFJOB                              #   CADRSTOR AND DSPLIST ARE EMPTY.
003005: 40,3501           04502                           TC       RELDSP1
003006: 40,3502           05155                           TC       ENDOFJOB
003007:
003008: 40,3503                        ENDRELDS           EQUALS
003009:


003011:                                                                                                  #  NVSUB IS USED FOR SUB ROUTINE CALLS FROM WITHIN COMPUTER. IT CAN BE
003012:                                                                                                  #  USED TO CALL THE COMBINATION OF ANY DISPLAY, LOAD, OR MONITOR VERB
003013:                                                                                                  #  TOGETHER WITH ANY NOUN AVAILABLE TO THE KEYBOARD.
003014:                                                                                                  #  PLACE 0VVVVVVVNNNNNNN INTO A.
003015:                                                                                                  #  V-S ARE THE 7 BIT VERB CODE.  N-S ARE THE 7 BIT NOUN CODE.
003016:
003017:                                                                                                  #  IF NVSUB IS CALLED WITH THE FOLLOWING NEGATIVE NUMBERS (RATHER THAN THE
003018:                                                                                                  #  VERB-NOUN CODE) IN A, THEN THE DISPLAY IS BLANKED AS FOLLOWS-
003019:                                                                                                  #   -4 FULL BLANK, -3 LEAVE MODE, -2 LEAVE MODE AND VERB, -1 BLANK R-S ONLY
003020:
003021:                                                                                                  #  NVSUB CAN BE USED WITH MACH CADR TO BE SPEC BY PLACING THE CADR INTO
003022:                                                                                                  #  MPAC+2 BEFORE THE STANDARD NVSUB CALL.
003023:
003024:                                                                                                  #   NVSUB RETURNS TO 2+ CALLING LOC AFTER PERFORMING TASK, IF DISPLAY
003025:                                                                                                  #  SYSTEM IS AVAILABLE. THE NEW NOUN AND VERB CODES ARE DISPLAYED.
003026:                                                                                                  #  IF V:S =0, THE NEW NOUN CODE IS DISPLAYED ONLY(RETURN WITH NO FURTHER
003027:                                                                                                  #  ACTION). IF N-S =0, THE NEW VERB CODE IS DISPLAYED ONLY(RETURN WITH NO
003028:                                                                                                  #  FURTHER ACTION).
003029:
003030:                                                                                                  #  IT RETURNS TO 1+ CALLING LOC WITHOUT PERFORMING TASK, IF DISPLAY
003031:                                                                                                  #  SYSTEM IS BLOCKED (NOTHING IS DISPLAYED IN THIS CASE).
003032:                                                                                                  #  IT DOES TC ABORT (WITH OCT 01501) IF IT ENCOUNTERS A DISPLAY PROGRAM
003033:                                                                                                  #  ALARM CONDITION BEFORE RETURN TO CALLER.
003034:
003035:                                                                                                  #  THE DISPLAY SYSTEM IS BLOCKED BY THE DEPRESSION OF ANY
003036:                                                                                                  #  KEY, EXCEPT ERROR LIGHT RESET
003037:                                                                                                  #  IT IS RELEASED BY THE KEY RELEASE BUTTON, ALL EXTENDED VERBS,
003038:                                                                                                  #  PROCEED WITHOUT DATA, TERMINATE, RESEQUENCE, INITIALIZE EXECUTIVE,
003039:                                                                                                  #  RECALL PART OF RECALTST IF ENDIDLE WAS USED,
003040:                                                                                                  #  VB = REQUEST EXECUTIVE, VB = REQUEST WAITLIST,
003041:                                                                                                  #  MONITOR SET UP.
003042:
003043:                                                                                                  #  THE DISPLAY SYSTEM IS ALSO BLOCKED BY THE EXTERNAL MONITOR BIT, WHICH
003044:                                                                                                  #  INDICATES AN EXTERNALLY INITIATED MONITOR IS RUNNING (SEE MONITOR)
003045:
003046:                                                                                                  #  A NVSUB CALL THAT PASSES DSPLOCK AND THE EXTERNAL MONITOR BIT ENDS OLD
003047:                                                                                                  #  MONITOR.
003048:
003049:                                                                                                  #  DSPLOCK IS THE INTERLOCK FOR USE OF KEYBOARD AND DISPLAY SYSTEM WHICH
003050:                                                                                                  #  LOCKS OUT INTERNAL USE WHENEVER THERE IS EXTERNAL KEYBOARD ACTION.
003051:
003052:                                                                                                  #  NVSUB SHOULD BE USED TWICE IN SUCCESSION FOR :PLEASE PERFORM: SITUATIONS
003053:                                                                                                  #  (SIMILARLY FOR PLEASE MARK). FIRST PLACE THE CODED NUMBER FOR WHAT
003054:                                                                                                  #  ACTION IS DESIRED OF OPERATOR INTO THE REGISTERS REFERRED TO BY THE
003055:                                                                                                  #  :CHECKLIST: NOUN. GO TO NVSUB WITH A DISPLAY VERB AND THE :CHECKLIST:
003056:                                                                                                  #  NOUN. GO TO NVSUB AGAIN WITH THE :PLEASE PERFORM: VERB AND ZEROS IN THE
003057:                                                                                                  #  LOW 7 BITS. THIS :PASTES UP: THE :PLEASE PERFORM: VERB INTO THE VERB
003058:                                                                                                  #  LIGHTS.
003059:
003060:                                                                                                  #  NVMONOPT IS AN ENTRY SIMILAR TO NVSUB, BUT REQUIRING AN ADDITIONAL


003062:                                                                                                  #  PARAMETER IN L. IT SHOULD BE USED ONLY WITH A MONITOR VERB-NOUN CODE IN
003063:                                                                                                  #  A. AFTER EACH MONITOR DISPLAY A *PLEASE* VERB WILL BE PASTED IN THE VERB
003064:                                                                                                  #  LIGHTS OR DATA WILL BE BLANKED (OR BOTH) ACCORDING TO THE OPTIONS
003065:                                                                                                  #  SPECIFIED IN L. IF BITS 8-14 OF L ARE OTHER THAN ZERO, THEN THEY WILL
003066:                                                                                                  #  BE INTERPRETED AS A VERB CODE AND PASTED IN THE VERB LIGHTS. (THIS VERB
003067:                                                                                                  #  CODE SHOULD DESIGNATE ONE OF THE *PLEASE* VERBS.) IF BITS 1-3 OF L ARE
003068:                                                                                                  #  OTHER THAN ZERO, THEN THEY WILL BE USED TO BLANK DATA BY BEING FED TO
003069:                                                                                                  #  BLANKSUB. IF NVMONOPT IS USED WITH A VERB OTHER THAN A MONITOR VERB,
003070:                                                                                                  #  THE PARAMETER IN L HAS NO EFFECT.
003071:
003072:                                                                                                  #  NVSUB IN FIXED-FIXED PLACES 2+CALLING LOC INTO NVQTEM, TC NVSUBEND INTO
003073:                                                                                                  #  ENTRET. (THIS WILL RESTORE OLD CALLING BANK BITS)
003074:
003075:    4154                                           SETLOC   ENDALM     +1
003076:
003077:    4154                                           COUNT*   $$/PIN
003078:    4154           22007        NVSUB              LXCH     7                                     #  ZERO NVMONOPT OPTIONS
003079:    4155           54123        NVMONOPT           TS       NVTEMP
003080:    4156           34736                           CAF      BIT14
003081:    4157           71021                           MASK     MONSAVE1                              #  EXTERNAL MONITOR BIT
003082:    4160           61012                           AD       DSPLOCK
003083:    4161           10000                           CCS      A
003084:    4162           00002                           TC       Q                                     #  DSP SYST BLOCKED. RET TO 1+ CALLING LOC
003085:    4163           34753                           CAF      ONE                                   #  DSP SYST AVAILABLE
003086:    4164           60002        NVSBCOM            AD       Q
003087:    4165           55037                           TS       NVQTEM                                #  2+ CALLING LOC INTO NVQTEM
003088:    4166           23022                           LXCH     MONSAVE2                              #  STORE NVMONOPT OPTIONS
003089:    4167           04204                           TC       KILMONON                              #  TURN ON KILL MONITOR BIT
003090:    4170           34201        NVSUBCOM           CAF      NVSBBBNK
003091:
003092:    4171           56006                           XCH      BBANK
003093:    4172           00006                           EXTEND                                         #  SAVE OLD SUPERBITS
003094:    4173           04007                           ROR      SUPERBNK
003095:    4174           55040                           TS       NVBNKTEM
003096:    4175           34201                           CAF      PINSUPBT
003097:    4176           00006                           EXTEND
003098:    4177           01007                           WRITE    SUPERBNK
003099:    4200           02000                           TC       NVSUBB                                #  GO TO NVSUB1 THRU STANDARD LOC
003100:    4201     0777                                  EBANK=   DSPCOUNT
003101:    4201           62101        NVSBBBNK           BBCON    NVSUB1
003102:
003103:    4202     4201               PINSUPBT           =        NVSBBBNK                              #  CONTAINS THE PINBALL SUPERBITS.
003104:
003105:    4202           53040        NVSUBEND           DXCH     NVQTEM                                #  NVBNKTEM MUST = NVQTEM+1
003106:    4203           05165                           TC       SUPDXCHZ                              #  DTCB WITH SUPERBIT SWITCHING
003107:
003108: 41,3516                                           SETLOC   ENDRQWT    +1
003109:
003110: 41,3516                                           COUNT*   $$/PIN
003111:                                                                                                  #  BLANKDSP BLANKS DISPLAY ACCORDING TO OPTION NUMBER IN NVTEMP AS FOLLOWS


003113:                                                                                                  #   -4 FULL BLANK, -3 LEAVE MODE, -2 LEAVE MODE AND VERB, -1 BLANK R-S ONLY
003114:
003115: 41,3516           64757        BLANKDSP           AD       SEVEN                                 #  7,8,9,OR 10 (A HAD 0,1,2,OR 3)
003116: 41,3517           00004                           INHINT
003117: 41,3520           54124                           TS       CODE                                  #  BLANK SPECIFIED DSPTABS
003118: 41,3521           44740                           CS       BIT12
003119: 41,3522           50124                           INDEX    CODE
003120: 41,3523           57023                           XCH      DSPTAB
003121: 41,3524           10000                           CCS      A
003122: 41,3525           25016                           INCR     NOUT
003123: 41,3526           03527                           TC       +1
003124: 41,3527           10124                           CCS      CODE
003125: 41,3530           03520                           TC       BLANKDSP   +2
003126: 41,3531           00003                           RELINT
003127: 41,3532           50123                           INDEX    NVTEMP
003128: 41,3533           03540                           TC       +5
003129: 41,3534           03535                           TC       +1                                    #  NVTEMP HAS -4 (NEVER TOUCH MODREG)
003130: 41,3535           55001                           TS       VERBREG                               #             -3
003131: 41,3536           55002                           TS       NOUNREG                               #             -2
003132: 41,3537           55015                           TS       CLPASS                                #             -1
003133: 41,3540           44360                           CS       VD1
003134: 41,3541           54777                           TS       DSPCOUNT
003135: 41,3542           04433                           TC       FLASHOFF                              #  PROTECT AGAINST INVISIBLE FLASH
003136: 41,3543           03566                           TC       ENTSET     -2                         #  ZEROS REQRET
003137:
003138: 41,3544           33570        NVSUB1             CAF      ENTSET                                #  IN BANK
003139: 41,3545           54136                           TS       ENTRET                                #  SET RETURN TO NVSUBEND
003140: 41,3546           10123                           CCS      NVTEMP                                #  WHAT NOW
003141: 41,3547           03553                           TC       +4                                    #  NORMAL NVSUB CALL (EXECUTE VN OR PASTE)
003142: 41,3550           02351                           TC       GODSPALM
003143: 41,3551           03516                           TC       BLANKDSP                              #  BLANK DISPLAY AS SPECIFIED
003144: 41,3552           02351                           TC       GODSPALM
003145: 41,3553           36073                           CAF      LOW7
003146: 41,3554           70123                           MASK     NVTEMP
003147: 41,3555           54157                           TS       MPAC       +3                         #  TEMP FOR NOUN (CANT USE MPAC. DSPDECVN
003148: 41,3556           30123                           CA       NVTEMP                                #                  USES MPAC, +1, +2
003149: 41,3557           54023                           TS       EDOP                                  #  RIGHT 7
003150: 41,3560           30023                           CA       EDOP
003151: 41,3561           54160                           TS       MPAC       +4                         #  TEMP FOR VERB (CANT USE MPAC+1. DSPDECVN
003152:                                                                                                  #                 USES MPAC, +1, +2).
003153: 41,3562           10157                           CCS      MPAC       +3                         #  TEST NOUN
003154: 41,3563           03571                           TC       NVSUB2                                #  IF NOUN NOT +0, GO ON
003155: 41,3564           30160                           CA       MPAC       +4
003156: 41,3565           02337                           TC       UPDATVB    -1                         #  IF NOUN = +0, DISPLAY VERB . THEN RETURN
003157: 41,3566           34755                           CAF      ZERO                                  #  ZERO REQRET SO THAT PASTED VERBS CAN
003158: 41,3567           55013                           TS       REQRET                                #  BE EXECUTED BY OPERATOR.
003159: 41,3570           04202        ENTSET             TC       NVSUBEND
003160: 41,3571           10160        NVSUB2             CCS      MPAC       +4                         #  TEST VERB
003161: 41,3572           03576                           TC       +4                                    #  IF VERB NOT +0, GO ON
003162: 41,3573           30157                           CA       MPAC       +3


003164: 41,3574           02317                           TC       UPDATNN    -1                         #  IF VERB = +0, DISPLAY NOUN. THEN RETURN
003165: 41,3575           04202                           TC       NVSUBEND
003166: 41,3576           30156                           CA       MPAC       +2                         #  TEMP FOR MACH CADR TO BE SPEC. (DSPDECVN
003167: 41,3577           54161                           TS       MPAC       +5                         #               USES MPAC, +1, +2)
003168: 41,3600           30160                           CA       MPAC       +4
003169: 41,3601           02337                           TC       UPDATVB    -1                         #  IF BOTH NOUN AND VERB NOT +0, DISPLAY
003170: 41,3602           30157                           CA       MPAC       +3                         #  BOTH AND GO TO ENTPAS0.
003171: 41,3603           02317                           TC       UPDATNN    -1
003172: 41,3604           34755                           CAF      ZERO
003173: 41,3605           55014                           TS       LOADSTAT                              #  SET FOR WAITING FOR DATA CONDITION
003174: 41,3606           55015                           TS       CLPASS
003175: 41,3607           55013                           TS       REQRET                                #  SET REQRET FOR PASS 0.
003176: 41,3610           30161                           CA       MPAC       +5                         #  RESTORES MACH CADR TO BE SPEC TO MPAC+2
003177: 41,3611           54156                           TS       MPAC       +2                         #  FOR USE IN INTMCTBS (IN ENTPAS0).
003178: 41,3612           02035        ENDNVSB1           TC       ENTPAS0
003179:
003180:
003181:                                                                                                  #  IF INTERNAL MACH CADR TO BE SPECIFIED, MPAC+2 WILL BE PLACED INTO
003182:                                                                                                  #  NOUNCADR IN ENTPAS0 (INTMCTBS ).
003183:
003184:
003185:    4204                                           SETLOC   NVSUBEND   +2
003186:    4204                                           COUNT*   $$/PIN
003187:                                                                                                  #  FORCE BIT 15 OF MONSAVE1 TO 1.
003188:    4204           34735        KILMONON           CAF      BIT15                                 #     THIS IS THE KILL MONITOR BIT.
003189:    4205           55021                           TS       MONSAVE1                              #  TURN OFF BIT 14, THE EXTERNAL
003190:                                                                                                  #   MONITOR BIT.
003191:    4206           00002                           TC       Q
003192:
003193:
003194:                                                                                                  #  LOADSTAT  +0 INACTIVE(WAITING FOR DATA). SET BY NVSUB
003195:                                                                                                  #            +1  PROCEED NO DATA. SET BY SPECIAL VERB
003196:                                                                                                  #           -1 TERMINATE   SET BY SPECIAL VERB
003197:                                                                                                  #           -0    DATA IN      SET BY END OF LOAD ROUTINE
003198:                                                                                                  #              OR RESEQUENCE   SET BY VERB 32
003199:
003200:
003201:                                                                                                  #  L  TO ENDIDLE  (FIXED FIXED)
003202:                                                                                                  #  ROUTINES THAT REQUEST LOADS THROUGH NVSUB SHOULD USE ENDIDLE WHILE
003203:                                                                                                  #  WAITING FOR THE DATA TO BE LOADED. ENDIDLE PUTS CURRENT JOB TO SLEEP.
003204:                                                                                                  #  ENDIDLE CANNOT BE CALLED FROM ERASABLE OR F/F MEMORY,
003205:                                                                                                  #  SINCE JOBSLEEP AND JOBWAKE CAN HANDLE ONLY FIXED BANKS.
003206:                                                                                                  #  RECALTST TESTS LOADSTAT AND WAKES JOB UP TO,
003207:                                                                                                  #  L+1      FOR TERMINATE
003208:                                                                                                  #  L+2      FOR PROCEED WITHOUT DATA
003209:                                                                                                  #  L+3      FOR DATA IN, OR RESEQUENCE
003210:                                                                                                  #  IT DOES NOTHING IF LOADSTAT INDICATES WAITING FOR DATA.
003211:
003212:
003213:                                                                                                  #  ENDIDLE ABORTS (WITH CODE 01206) IF A SECOND JOB ATTEMPTS TO GO TO SLEEP


003215:                                                                                                  #  IN PINBALL. IN PARTICULAR, IF AN ATTEMPT IS MADE TO GO TO ENDIDLE WHEN
003216:                                                                                                  #  1) CADRSTOR NOT= +0. THIS IS THE CASE WHERE THE CAPACITY OF ENDIDLE IS
003217:                                                                                                  #  EXCEEDED. (+-NZ INDICATE A JOB IS ALREADY ASLEEP DUE TO ENDIDLE.)
003218:                                                                                                  #  2) DSPLIST NOT= +0. THIS INDICATES A JOB IS ALREADY ASLEEP DUE TO
003219:                                                                                                  #  NVSUBUSY.
003220:
003221:    4207           22002        ENDIDLE            LXCH     Q                                     #  RETURN ADDRESS INTO L.
003222:    4210           04220                           TC       ISCADR+0                              #  ABORT IF CADRSTOR NOT= +0
003223:    4211           04224                           TC       ISLIST+0                              #  ABORT IF DSPLIST NOT= +0
003224:    4212           30001                           CA       L                                     #  DONT SET DSPLOCK TO 1 SO CAN USE
003225:    4213           75012                           MASK     LOW10                                 #  ENDIDLE WITH NVSUB INITIATED MONITOR.
003226:    4214           60004                           AD       FBANK                                 #  SAME STRATEGY FOR CADR AS MAKECADR.
003227:    4215           55042                           TS       CADRSTOR
003228:    4216           05133                           TC       JOBSLEEP
003229:
003230:
003231:    4217           05155        ENDINST            TC       ENDOFJOB
003232:
003233:
003234:    4220           11042        ISCADR+0           CCS      CADRSTOR                              #  ABORTS (CODE 01206) IF CADRSTOR NOT= +0.
003235:    4221           04227                           TC       DSPABORT                              #  RETURNS IF CADRSTOR = +0.
003236:    4222           00002                           TC       Q
003237:    4223           04227                           TC       DSPABORT
003238:
003239:    4224           11043        ISLIST+0           CCS      DSPLIST                               #  ABORTS (CODE 01206) IF DSPLIST NOT= +0.
003240:    4225           04227                           TC       DSPABORT                              #  RETURNS IF DSPLIST = +0.
003241:    4226           00002                           TC       Q
003242:    4227           05652        DSPABORT           TC       POODOO
003243:    4230           01206                           OCT      01206
003244:
003245:
003246:                                                                                                  #  JAMTERM ALLOWS PROGRAMS TO PERFORM THE TERMINATE FUNCTION.
003247:                                                                                                  #  IT DOES ENDOFJOB.
003248:
003249:    4231           34201        JAMTERM            CAF      PINSUPBT
003250:    4232           00006                           EXTEND
003251:    4233           01007                           WRITE    SUPERBNK
003252:    4234           34242                           CAF      34DEC
003253:    4235           55013                           TS       REQRET                                #  LEAVE ENTER SET FOR ENTPASS0.
003254:    4236           44360                           CS       VD1
003255:    4237           54777                           TS       DSPCOUNT
003256:    4240           04635                           TC       POSTJUMP
003257:    4241           61446                           CADR     VBTERM
003258:
003259:    4242           00042        34DEC              DEC      34         B-14
003260:
003261:
003262:                                                                                                  #  JAMPROC ALLOWS PROGRAMS TO PERFORM THE PROCEED/PROCEED WITHOUT DATA
003263:                                                                                                  #  FUNCTION. IT DOES ENDOFJOB.
003264:


003266:    4243           34201        JAMPROC            CAF      PINSUPBT
003267:    4244           00006                           EXTEND
003268:    4245           01007                           WRITE    SUPERBNK
003269:    4246           34254                           CAF      33DEC
003270:    4247           55013                           TS       REQRET                                #  LEAVE ENTER SET FOR ENTPASS0.
003271:    4250           44360                           CS       VD1
003272:    4251           54777                           TS       DSPCOUNT
003273:    4252           04635                           TC       POSTJUMP
003274:    4253           61440                           CADR     VBPROC
003275:
003276:    4254           00041        33DEC              DEC      33         B-14
003277:
003278:
003279:                                                                                                  #  BLANKSUB BLANKS ANY COMBINATION OF R1, R2, R3.
003280:                                                                                                  #  CALL WITH BLANKING CODE IN A.
003281:                                                                                                  #  BIT1=1 BLANKS R1, BIT2=1 BLANKS R2, BIT3=1 BLANKS R3.
003282:                                                                                                  #  ANY COMBINATION OF THESE BITS IS ACCEPTED.
003283:
003284:                                                                                                  #  DSPCOUNT IS RESTORED TO STATE IT WAS IN BEFORE BLANKSUB WAS EXECUTED.
003285:
003286:    4255           74757        BLANKSUB           MASK     SEVEN
003287:    4256           54123                           TS       NVTEMP                                #  STORE BLANKING CODE IN NVTEMP.
003288:    4257           34736                           CAF      BIT14
003289:    4260           71021                           MASK     MONSAVE1                              #  EXTERNAL MONITOR BIT
003290:    4261           61012                           AD       DSPLOCK
003291:    4262           10000                           CCS      A
003292:    4263           00002                           TC       Q                                     #  DSP SYST BLOCKED. RET TO 1+ CALLING LOC
003293:    4264           24002                           INCR     Q                                     #  DSP SYST AVAILABLE
003294:                                                                                                  #  SET RETURN FOR 2+ CALLING LOC
003295:    4265           10123                           CCS      NVTEMP
003296:    4266           14270                           TCF      +2
003297:    4267           00002                           TC       Q                                     #  NOTHING TO BLANK. RET TO 2+ CALLING LOC
003298:    4270           22002                           LXCH     Q                                     #  SET RETURN FOR 2 + CALLING LOC
003299:    4271           34302                           CAF      BLNKBBNK
003300:    4272           56006                           XCH      BBANK
003301:    4273           00006                           EXTEND
003302:    4274           04007                           ROR      SUPERBNK                              #  SAVE OLD SUPERBITS.
003303:    4275           52131                           DXCH     BUF
003304:    4276           34201                           CAF      PINSUPBT
003305:    4277           00006                           EXTEND
003306:    4300           01007                           WRITE    SUPERBNK
003307:    4301           03503                           TC       BLNKSUB1
003308:
003309:    4302     0777                                  EBANK=   DSPCOUNT
003310:    4302           60101        BLNKBBNK           BBCON    BLNKSUB1
003311:    4303                        ENDBLFF            EQUALS
003312:
003313: 40,3503                                           SETLOC   ENDRELDS
003314: 40,3503                                           COUNT*   $$/PIN
003315: 40,3503           30777        BLNKSUB1           CA       DSPCOUNT                              #  SAVE OLD DSPCOUNT FOR LATER RESTORATION


003317: 40,3504           54132                           TS       BUF        +2
003318: 40,3505           34753                           CAF      BIT1                                  #  TEST BIT1. SEE IF R1 TO BE BLANKED.
003319: 40,3506           03525                           TC       TESTBIT
003320: 40,3507           34317                           CAF      R1D1
003321: 40,3510           02535                           TC       5BLANK     -1
003322: 40,3511           34752                           CAF      BIT2                                  #  TEST BIT 2. SEE IF R2 TO BE BLANKED.
003323: 40,3512           03525                           TC       TESTBIT
003324: 40,3513           34320                           CAF      R2D1
003325: 40,3514           02535                           TC       5BLANK     -1
003326: 40,3515           34751                           CAF      BIT3                                  #  TEST BIT3. SEE IF R3 TO BE BLANKED.
003327: 40,3516           03525                           TC       TESTBIT
003328: 40,3517           34321                           CAF      R3D1
003329: 40,3520           02535                           TC       5BLANK     -1
003330: 40,3521           30132                           CA       BUF        +2                         #  RESTORE DSPCOUNT TO STATE IT HAD
003331: 40,3522           54777                           TS       DSPCOUNT                              #       BEFORE BLANKSUB.
003332: 40,3523           52131                           DXCH     BUF                                   #  CALL L+2 DIRECTLY.
003333: 40,3524           05166                           TC       SUPDXCHZ   +1                         #  DTCB WITH SUPERBIT SWITCHING
003334:
003335: 40,3525           70123        TESTBIT            MASK     NVTEMP                                #  NVTEMP CONTAINS BLANKING CODE.
003336: 40,3526           10000                           CCS      A
003337: 40,3527           00002                           TC       Q                                     #  IF CURRENT BIT = 1, RETURN TO L+1.
003338: 40,3530           50002                           INDEX    Q                                     #  IF CURRENT BIT = 0, RETURN TO L+3.
003339: 40,3531           00002                           TC       2
003340:
003341: 40,3532                        ENDBSUB1           EQUALS
003342:
003343:
003344:                                                                                                  #  DSPMM DOES NOT DISPLAY MODREG DIRECTLY. IT PUTS IN EXEC REQUEST WITH
003345:                                                                                                  #  PRIO 30000 FOR DSPMMJB AND RETURNS TO CALLER.
003346:
003347:                                                                                                  #  IF MODREG CONTAINS -0, DSPMMJB BLANKS THE MODE LIGHTS.
003348:
003349:                                                                                                  #  DSPMM MUST BE IN BANK 27 OR LOWER, SO IT CAN BE CALLED VIA BANKCALL.
003350:
003351: 07,2667                                           BANK     7
003352: 04,2000                                           SETLOC   PINBALL4
003353: 04,2000                                           BANK
003354:
003355: 04,2573                                           COUNT*   $$/PIN
003356: 04,2573           56002        DSPMM              XCH      Q
003357: 04,2574           54154                           TS       MPAC
003358: 04,2575           00004                           INHINT
003359: 04,2576           34355                           CAF      CHRPRIO
003360: 04,2577           05072                           TC       NOVAC
003361: 04,2600     0777                                  EBANK=   DSPCOUNT
003362: 04,2600           03532 60101                     2CADR    DSPMMJB
003363:
003364: 04,2602           00003                           RELINT
003365: 04,2603           00154        ENDSPMM            TC       MPAC
003366:


003368:                                                                                                  #  DSPMM  PLACE MAJOR MODE CODE INTO MODREG
003369:
003370: 40,3532                                           SETLOC   ENDBSUB1
003371:
003372: 40,3532                                           COUNT*   $$/PIN
003373: 40,3532           34362        DSPMMJB            CAF      MD1                                   #  GETS HERE THRU DSPMM
003374: 40,3533           56777                           XCH      DSPCOUNT
003375: 40,3534           54140                           TS       DSPMMTEM                              #  SAVE DSPCOUNT
003376: 40,3535           11011                           CCS      MODREG
003377: 40,3536           64753                           AD       ONE
003378: 40,3537           03306                           TC       DSPDECVN                              #  IF MODREG IS + OR +0, DISPLAY MODREG
003379: 40,3540           03542                           TC       +2                                    #  IF MODREG IS -NZ, DO NOTHING
003380: 40,3541           02601                           TC       2BLANK                                #  IF MODREG IS -0, BLANK MM
003381: 40,3542           56140                           XCH      DSPMMTEM                              #  RESTORE DSPCOUNT
003382: 40,3543           54777                           TS       DSPCOUNT
003383: 40,3544           05155                           TC       ENDOFJOB
003384:
003385:
003386:                                                                                                  #  RECALTST IS ENTERED DIRECTLY AFTER DATA IS LOADED (OR RESEQUENCE VERB IS
003387:                                                                                                  #  EXECUTED), TERMINATE VERB IS EXECUTED, OR PROCEED WITHOUT DATA VERB IS
003388:                                                                                                  #  EXECUTED. IT WAKES UP JOB THAT DID TC ENDIDLE.
003389:
003390:                                                                                                  #  IF CADRSTOR NOT= +0, IT PUTS +0 INTO DSPLOCK, AND TURNS OFF KEY RLSE
003391:                                                                                                  #  LIGHT IF DSPLIST IS EMPTY (LEAVES KEY RLSE LIGHT ALONE IF NOT EMPTY).
003392:
003393: 40,3545           11042        RECALTST           CCS      CADRSTOR
003394: 40,3546           03550                           TC       RECAL1
003395: 40,3547           05155                           TC       ENDOFJOB                              #  NORMAL EXIT IF KEYBOARD INITIATED
003396: 40,3550           34755        RECAL1             CAF      ZERO
003397: 40,3551           57042                           XCH      CADRSTOR
003398: 40,3552           00004                           INHINT
003399: 40,3553           05137                           TC       JOBWAKE
003400: 40,3554           11014                           CCS      LOADSTAT
003401: 40,3555           03577                           TC       DOPROC                                #  + PROCEED WITHOUT DATA
003402: 40,3556           05155                           TC       ENDOFJOB                              #  PATHALOGICAL CASE EXIT
003403: 40,3557           03575                           TC       DOTERM                                #  - TERMINATE
003404: 40,3560           34752                           CAF      TWO                                   #  -0 DATA IN OR RESEQUENCE
003405: 40,3561           50064        RECAL2             INDEX    LOCCTR
003406: 40,3562           60164                           AD       LOC                                   #  LOC IS + FOR BASIC JOBS
003407: 40,3563           50064                           INDEX    LOCCTR
003408: 40,3564           54164                           TS       LOC
003409: 40,3565           31002                           CA       NOUNREG                               #  SAVE VERB IN MPAC, NOUN IN MPAC+1 AT
003410: 40,3566           54001                           TS       L                                     #  TIME OF RESPONSE TO ENDIDLE FOR
003411: 40,3567           31001                           CA       VERBREG                               #  POSSIBLE LATER TESTING BY JOB THAT HAS
003412: 40,3570           50064                           INDEX    LOCCTR                                #  BEEN WAKED UP.
003413: 40,3571           52155                           DXCH     MPAC
003414: 40,3572           00003                           RELINT
003415: 40,3573           04457        RECAL3             TC       RELDSP
003416: 40,3574           05155                           TC       ENDOFJOB
003417:


003419: 40,3575           34755        DOTERM             CAF      ZERO
003420: 40,3576           03561                           TC       RECAL2
003421:
003422: 40,3577           34753        DOPROC             CAF      ONE
003423: 40,3600           03561                           TC       RECAL2
003424:


003426:                                                                                                  #  MISCELLANEOUS SERVICE ROUTINES IN FIXED/FIXED
003427:
003428:
003429:    4303                                           SETLOC   ENDBLFF
003430:
003431:    4303                                           COUNT*   $$/PIN
003432:                                                                                                  #  SETNCADR       E CADR ARRIVES IN A. IT IS STORED IN NOUNCADR. EBANK BITS
003433:                                                                                                  #                 ARE SET. E ADRES IS DERIVED AND PUT INTO NOUNADD.
003434:
003435:    4303           55017        SETNCADR           TS       NOUNCADR                              #  STORE ECADR
003436:    4304           54003                           TS       EBANK                                 #  SET EBANK BITS
003437:    4305           74357                           MASK     LOW8
003438:    4306           65007                           AD       OCT1400
003439:    4307           54145                           TS       NOUNADD                               #  PUT E ADRES INTO NOUNADD
003440:    4310           00002                           TC       Q
003441:
003442:
003443:                                                                                                  #  SETNADD        GETS E CADR FROM NOUNCADR, SETS EBANK BITS, DERIVES
003444:                                                                                                  #                 E ADRES AND PUTS IT INTO NOUNADD.
003445:
003446:    4311           31017        SETNADD            CA       NOUNCADR
003447:    4312           14304                           TCF      SETNCADR   +1
003448:
003449:
003450:                                                                                                  #  SETEBANK       E CADR ARRIVES IN A. EBANK BITS ARE SET. E ADRES IS
003451:                                                                                                  #                 DERIVED AND LEFT IN A.
003452:
003453:    4313           54003        SETEBANK           TS       EBANK                                 #  SET EBANK BITS
003454:    4314           74357                           MASK     LOW8
003455:    4315           65007                           AD       OCT1400                               #  E ADRES LEFT IN A
003456:    4316           00002                           TC       Q
003457:
003458:
003459:    4317           00016        R1D1               OCT      16                                    #  THESE 3 CONSTANTS FORM A PACKED TABLE.
003460:    4320           00011        R2D1               OCT      11                                    #  DONT SEPARATE.
003461:    4321           00004        R3D1               OCT      4
003462:
003463:    4322           54020        RIGHT5             TS       CYR
003464:    4323           40020                           CS       CYR
003465:    4324           40020                           CS       CYR
003466:    4325           40020                           CS       CYR
003467:    4326           40020                           CS       CYR
003468:    4327           56020                           XCH      CYR
003469:    4330           00002                           TC       Q
003470:
003471:    4331           54022        LEFT5              TS       CYL
003472:    4332           40022                           CS       CYL
003473:    4333           40022                           CS       CYL
003474:    4334           40022                           CS       CYL
003475:    4335           40022                           CS       CYL


003477:    4336           56022                           XCH      CYL
003478:    4337           00002                           TC       Q
003479:
003480:    4340           60000        SLEFT5             DOUBLE
003481:    4341           60000                           DOUBLE
003482:    4342           60000                           DOUBLE
003483:    4343           60000                           DOUBLE
003484:    4344           60000                           DOUBLE
003485:    4345           00002                           TC       Q
003486:
003487:
003488:    4346           00037        LOW5               OCT      37                                    #  THESE 3 CONSTANTS FORM A PACKED TABLE.
003489:    4347           01740        MID5               OCT      1740                                  #  DONT SEPARATE.
003490:    4350           76000        HI5                OCT      76000                                 #  MUST STAY HERE
003491:
003492:    4351           05072        TCNOVAC            TC       NOVAC
003493:    4352           05203        TCWAIT             TC       WAITLIST
003494:    4353           05261        TCTSKOVR           TC       TASKOVER
003495:    4354           05105        TCFINDVC           TC       FINDVAC
003496:
003497:
003498:    4355           30000        CHRPRIO            OCT      30000                                 #  EXEC PRIORITY OF CHARIN
003499:
003500:
003501:    4356           03777        LOW11              OCT      3777
003502:    4357     4356               B12-1              EQUALS   LOW11
003503:    4357           00377        LOW8               OCT      377
003504:
003505:
003506:    4360           00023        VD1                OCT      23                                    #  THESE 3 CONSTANTS FORM A PACKED TABLE.
003507:    4361           00021        ND1                OCT      21                                    #  DONT SEPARATE.
003508:    4362           00025        MD1                OCT      25
003509:
003510:    4363           00012        BINCON             DEC      10         B-14
003511:
003512:    4364           34745        FALTON             CA       BIT7                                  #  TURN ON OPERATOR ERROR LIGHT
003513:    4365           00006                           EXTEND
003514:    4366           05011                           WOR      DSALMOUT                              #  BIT 7 OF CHANNEL 11
003515:    4367           00002                           TC       Q
003516:
003517:    4370           44745        FALTOF             CS       BIT7                                  #  TURN OFF OPERATOR ERROR LIGHT
003518:    4371           00006                           EXTEND
003519:    4372           03011                           WAND     DSALMOUT                              #  BIT 7 OF CHANNEL 11
003520:    4373           00002                           TC       Q
003521:
003522:    4374           34747        RELDSPON           CAF      BIT5                                  #  TURN ON KEY RELEASE LIGHT
003523:    4375           00006                           EXTEND
003524:    4376           05011                           WOR      DSALMOUT                              #  BIT 5 OF CHANNEL 11
003525:    4377           00002                           TC       Q
003526:


003528:    4400           00006        LODSAMPT           EXTEND
003529:    4401           30025                           DCA      TIME2
003530:    4402           52014                           DXCH     SAMPTIME
003531:    4403           00002                           TC       Q
003532:
003533:
003534:    4404           00006        TPSL1              EXTEND                                         #  SHIFTS MPAC, +1, +2 LEFT 1
003535:    4405           30156                           DCA      MPAC       +1                         #  LEAVES OVFIND SET TO +/- 1 FOR OF/UF
003536:    4406           20156                           DAS      MPAC       +1
003537:    4407           60154                           AD       MPAC
003538:    4410           26154                           ADS      MPAC
003539:    4411           54007                           TS       7                                     #  TS A DOES NOT CHANGE A ON OF/UF.
003540:    4412           00002                           TC       Q                                     #  NO NET OF/UF
003541:    4413           54162                           TS       MPAC+6                                #  MPAC +6 SET TO +/-1 FOR OF/UF
003542:    4414           00002                           TC       Q
003543:
003544:
003545:                                                                                                  #  IF MPAC, +1 ARE EACH +NZ OR +0 AND C(A)=-0, SHORTMP WRONGLY GIVES +0.
003546:                                                                                                  #  IF MPAC, +1 ARE EACH -NZ OR -0 AND C(A)=+0, SHORTMP WRONGLY GIVES +0.
003547:                                                                                                  #  PRSHRTMP FIXES FIRST CASE ONLY, BY MERELY TESTING C(A) AND IF IT = -0,
003548:                                                                                                  #  SETTING RESULT TO -0.
003549:                                                                                                  #   (DO NOT USE PRSHRTMP UNLESS MPAC, +1 ARE EACH +NZ OR +0, AS THEY ARE
003550:                                                                                                  #   WHEN THEY CONTAIN TH E SF CONSTANTS.)
003551:
003552:    4415           54135        PRSHRTMP           TS       MPTEMP
003553:    4416           10000                           CCS      A
003554:    4417           30135                           CA       MPTEMP                                #  C(A) +, DO REGULAR SHORTMP
003555:    4420           17307                           TCF      SHORTMP    +1                         #  C(A) +0, DO REGULAR SHORTMP
003556:    4421           14417                           TCF      -2                                    #  C(A) -, DO REGULAR SHORTMP
003557:    4422           44755                           CS       ZERO                                  #  C(A) -0, FORCE RESULT TO -0 AND RETURN.
003558:    4423           54154                           TS       MPAC
003559:    4424           54155                           TS       MPAC       +1
003560:    4425           54156                           TS       MPAC       +2
003561:    4426           00002                           TC       Q
003562:
003563:
003564:    4427           34746        FLASHON            CAF      BIT6                                  #  TURN ON V/N FLASH
003565:    4430           00006                           EXTEND                                         #  BIT 6 OF CHANNEL 11
003566:    4431           05011                           WOR      DSALMOUT
003567:    4432           00002                           TC       Q
003568:
003569:
003570:    4433           44746        FLASHOFF           CS       BIT6                                  #  TURN OFF V/N FLASH
003571:    4434           00006                           EXTEND
003572:    4435           03011                           WAND     DSALMOUT                              #  BIT 6 OF CHANNEL 11
003573:    4436           00002                           TC       Q
003574:


003576:                                                                                                  #  INTERNAL USE OF KEYBOARD AND DISPLAY PROGRAM
003577:
003578:                                                                                                  #  USER MUST SCHEDULE CALLS TO NVSUB SO THAT THERE IS NO CONFLICT OF USE OR
003579:                                                                                                  #  CONFUSION TO OPERATOR. THE OLD GRABLOCK (INTERNAL/INTERNAL INTERLOCK)
003580:                                                                                                  #  HAS BEEN REMOVED AND THE INTERNAL USER NO LONGER HAS THE PROTECTION THIS
003581:                                                                                                  #  OFFERED.
003582:
003583:                                                                                                  #  THERE ARE TWO WAYS A JOB CAN BE PUT TO SLEEP BY THE KEYBOARD + DISPLAY
003584:                                                                                                  #  PROGRAM.    1) BY ENDIDLE
003585:                                                                                                  #              2) BY NVSUBUSY
003586:                                                                                                  #  THE BASIC CONVENTION IS THAT ONLY ONE JOB WILL BE PERMITTED ASLEEP VIA
003587:                                                                                                  #  THE KEYBOARD + DISPLAY PROGRAM AT A TIME. IF A JOB ATTEMPTS TO GO TO
003588:                                                                                                  #  SLEEP BY MEANS OF (1) OR (2) AND THERE IS ALREADY A JOB ASLEEP THAT WAS
003589:                                                                                                  #  PUT TO SLEEP BY (1) OR (2), THEN AN ABORT IS CAUSED.
003590:
003591:
003592:                                                                                                  #  THE CALLING SEQUENCE FOR NVSUB IS
003593:                                                                                                  #           CAF    V/N
003594:                                                                                                  #  L        TC     NVSUB
003595:                                                                                                  #  L+1      RETURN HERE IF OPERATOR HAS INTERVENED
003596:                                                                                                  #  L+2      RETURN HERE AFTER EXECUTION
003597:
003598:
003599:                                                                                                  #        A ROUTINE CALLED  NVSUBUSY IS PROVIDED (USE IS OPTIONAL)  TO PUT
003600:                                                                                                  #  YOUR JOB TO SLEEP UNTIL THE OPERATOR RELEASES THE KEYBOARD + DISPLAY
003601:                                                                                                  #  SYSTEM. NVSUBUSY ALSO TURNS ON THE KEY RELEASE LIGHT.
003602:                                                                                                  #  NVSUBUSY CANNOT BE CALLED FROM ERASABLE OR F/F MEMORY,
003603:                                                                                                  #  SINCE JOBSLEEP AND JOBWAKE CAN HANDLE ONLY FIXED BANKS.
003604:
003605:
003606:                                                                                                  #         THE CALLING SEQUENCE IS
003607:                                                                                                  #           CAF    WAKEFCADR
003608:                                                                                                  #           TC     NVSUBUSY
003609:
003610:
003611:                                                                                                  #  .
003612:
003613:
003614:                                                                                                  #  NVSUBUSY IS INTENDED FOR USE WHEN AN INTERNAL PROGRAM FINDS THE OPERATOR
003615:                                                                                                  #  IS USING THE KEYBOARD + DISPLAY PROGRAM (BY HIS OWN INITIATION). IT IS
003616:                                                                                                  #  NOT INTENDED FOR USE WHEN ONE INTERNAL PROGRAM FINDS ANOTHER INTERNAL
003617:                                                                                                  #  PROGRAM USING THE KEYBOARD + DISPLAY PROGRAM.
003618:
003619:
003620:                                                                                                  #  NVSUBUSY ABORTS (WITH CODE 01206) IF A SECOND JOB ATTEMPTS TO GO TO
003621:                                                                                                  #  SLEEP IN PINBALL. IN PARTICULAR, IF AN ATTEMPT IS MADE TO GO TO NVSUBUSY
003622:                                                                                                  #  WHEN
003623:                                                                                                  #  1) DSPLIST NOT= +0. THIS IS THE CASE WHERE THE CAPACITY OF THE DSPLIST
003624:                                                                                                  #     IS EXCEEDED.
003625:                                                                                                  #  2) CADRSTOR NOT= +0. THIS INDICATES THAT A JOB IS ALREADY USING


003627:                                                                                                  #  ENDIDLE. (+-NZ INDICATE A JOB IS ALREADY ASLEEP DUE TO ENDIDLE.)
003628:
003629:    4437           44444        PRENVBSY           CS       2K+3                                  #  SPECIAL ENTRANCE FOR ROUTINES IN FIXED
003630:    4440           60002                           AD       Q                                     #  BANKS ONLY DESIRING THE FCADR OF(LOC
003631:    4441           60004                           AD       FBANK                                 #  FROM WHICH THE TC PRENVBSY WAS DONE) -2
003632:    4442           04635        NVSUBUSY           TC       POSTJUMP                              #  TO BE ENTERED.
003633:    4443           10604                           CADR     NVSUBSY1
003634:    4444           02003        2K+3               OCT      2003
003635:
003636:                                                                                                  #  NVSUBSY1 MUST BE IN BANK 27 OR LOWER, SO IT WILL PUT CALLER TO SLEEP
003637:                                                                                                  #  WITH HIS PROPER SUPERBITS.
003638:
003639: 04,2604                                           SETLOC   ENDSPMM    +1
003640: 04,2604                                           COUNT*   $$/PIN
003641: 04,2604           54001        NVSUBSY1           TS       L
003642: 04,2605           04220                           TC       ISCADR+0                              #  ABORT IF CADRSTOR NOT= +0.
003643: 04,2606           04224                           TC       ISLIST+0                              #  ABORT IF DSPLIST NOT= +0.
003644: 04,2607           04374                           TC       RELDSPON
003645: 04,2610           30001                           CA       L
003646: 04,2611           55043                           TS       DSPLIST
003647: 04,2612           05133        ENDNVBSY           TC       JOBSLEEP
003648:
003649:
003650:                                                                                                  #  NVSBWAIT IS A SPECIAL ENTRANCE FOR ROUTINES IN FIXED BANKS ONLY. IF
003651:                                                                                                  #  SYSTEM IS NOT BUSY, IT EXECUTES V/N AND RETURNS TO L+1 (L= LOC FROM
003652:                                                                                                  #  WHICH THE TC NVSBWAIT WAS DONE). IF SYSTEM IS BUSY, IT PUTS CALLING JOB
003653:                                                                                                  #  TO SLEEP WITH L-1 GOING INTO LIST FOR EVENTUAL WAKING UP WHEN SYSTEM
003654:                                                                                                  #  IS NOT BUSY.
003655:
003656:    4445                                           SETLOC   NVSUBUSY   +3
003657:    4445                                           COUNT*   $$/PIN
003658:    4445           22007        NVSBWAIT           LXCH     7                                     #  ZERO NVMONOPT OPTIONS
003659:    4446           54123                           TS       NVTEMP
003660:    4447           34736                           CAF      BIT14
003661:    4450           71021                           MASK     MONSAVE1                              #  EXTERNAL MONITOR BIT
003662:    4451           61012                           AD       DSPLOCK
003663:    4452           10000                           CCS      A
003664:    4453           14455                           TCF      NVSBWT1                               #  BUSY
003665:    4454           14164                           TCF      NVSBCOM                               #  FREE. NVSUB WILL SAVE L+1 FOR RETURN
003666:                                                                                                  #  AFTER EXECUTION.
003667:    4455           24002        NVSBWT1            INCR     Q                                     #  L+2. PRENVBSY WILL PUT L-1 INTO LIST AND
003668:    4456           14437                           TCF      PRENVBSY                              #  GO TO SLEEP.
003669:
003670:
003671:                                                                                                  #  RELDSP IS USED BY VBPROC, VBTERM, VBRQEXEC, VBRQWAIT, VBRELDSP, EXTENDED
003672:                                                                                                  #  VERB DISPATCHER, VBRESEQ, RECALTST.
003673:                                                                                                  #  RELDSP1 IS USED BY MONITOR SET UP, VBRELDSP.
003674:    4457           56002        RELDSP             XCH      Q                                     #  SET DSPLOCK TO +0, TURN RELDSP LIGHT
003675:    4460           54144                           TS       RELRET                                #  OFF, SEARCH DSPLIST
003676:    4461           44736                           CS       BIT14


003678:    4462           00004                           INHINT
003679:    4463           71021                           MASK     MONSAVE1
003680:    4464           55021                           TS       MONSAVE1                              #  TURN OFF EXTERNAL MONITOR BIT
003681:    4465           11043                           CCS      DSPLIST
003682:    4466           04470                           TC       +2
003683:    4467           04473                           TC       RELDSP2                               #  LIST EMPTY
003684:    4470           34755                           CAF      ZERO
003685:    4471           57043                           XCH      DSPLIST
003686:    4472           05137                           TC       JOBWAKE
003687:    4473           00003        RELDSP2            RELINT
003688:    4474           44747                           CS       BIT5                                  #  TURN OFF KEY RELEASE LIGHT
003689:    4475           00006                           EXTEND                                         #  (BIT 5 OF CHANNEL 11)
003690:    4476           03011                           WAND     DSALMOUT
003691:    4477           34755                           CAF      ZERO
003692:    4500           55012                           TS       DSPLOCK
003693:    4501           00144                           TC       RELRET
003694:    4502           56002        RELDSP1            XCH      Q                                     #  SET DSPLOCK TO +0. NO DSPLIST SEARCH.
003695:    4503           54144                           TS       RELRET                                #  TURN KEY RLSE LIGHT OFF IF DSPLIST IS
003696:                                                                                                  #  EMPTY. LEAVE KEY RLSE LIGHT ALONE IF
003697:                                                                                                  #  DSPLIST IS NOT EMPTY.
003698:    4504           11043                           CCS      DSPLIST
003699:    4505           04507                           TC       +2                                    #  +  NOT EMPTY. LEAVE KEY RLSE LIGHT ALONE
003700:    4506           04473                           TC       RELDSP2                               #  +0 EMPTY. TURN OFF KEY RLSE LIGHT
003701:    4507           34755                           CAF      ZERO                                  #  -  NOT EMPTY. LEAVE KEY RLSE LIGHT ALONE
003702:    4510           55012                           TS       DSPLOCK
003703:    4511           00144                           TC       RELRET
003704:
003705:
003706:    4512                        ENDPINBF           EQUALS
003707:


003709:                                                                                                  #  PINTEST IS NEEDED FOR AUTO CHECK OF PINBALL.
003710:
003711:    4512  43,2002               PINTEST            EQUALS   LST2FAN
003712:


003714:                                                                                                  #  VBTSTLTS TURNS ON ALL DISPLAY PANEL LIGHTS. AFTER 5 SEC, IT TURNS
003715:                                                                                                  #  OFF THE CAUTION AND STATUS LIGHTS.
003716:
003717: 41,3613                                           SETLOC   ENDNVSB1   +1
003718:
003719: 41,3613                                           COUNT*   $$/PIN
003720: 41,3613           00004        VBTSTLTS           INHINT
003721: 41,3614           44753                           CS       BIT1                                  #  SET BIT 1 OF IMODES33 SO IMUMON WONT
003722: 41,3615           71303                           MASK     IMODES33                              #  TURN OUT ANY LAMPS.
003723: 41,3616           64753                           AD       BIT1
003724: 41,3617           55303                           TS       IMODES33
003725:
003726: 41,3620           33656                           CAF      TSTCON1                               #  TURN ON UPLINK ACTIVITY, TEMP, KEY RLSE,
003727: 41,3621           00006                           EXTEND                                         #  V/N FLASH, OPERATOR ERROR.
003728: 41,3622           05011                           WOR      DSALMOUT
003729: 41,3623           33657                           CAF      TSTCON2                               #  TURN ON NO ATT, GIMBAL LOCK, TRACKER,
003730: 41,3624           55036                           TS       DSPTAB     +11D                       #  PROG ALM.
003731: 41,3625           34742                           CAF      BIT10                                 #  TURN ON TEST ALARM OUTBIT
003732: 41,3626           00006                           EXTEND
003733: 41,3627           05013                           WOR      CHAN13
003734: 41,3630           34363                           CAF      TEN
003735: 41,3631           54117        TSTLTS1            TS       ERCNT
003736: 41,3632           43654                           CS       FULLDSP
003737: 41,3633           50117                           INDEX    ERCNT
003738: 41,3634           55023                           TS       DSPTAB
003739: 41,3635           10117                           CCS      ERCNT
003740: 41,3636           03631                           TC       TSTLTS1
003741: 41,3637           43655                           CS       FULLDSP1
003742: 41,3640           55024                           TS       DSPTAB     +1                         #  TURN ON 3 PLUS SIGNS
003743: 41,3641           55027                           TS       DSPTAB     +4
003744: 41,3642           55031                           TS       DSPTAB     +6
003745: 41,3643           34760                           CAF      ELEVEN
003746: 41,3644           55016                           TS       NOUT
003747: 41,3645           00003                           RELINT
003748: 41,3646           33661                           CAF      SHOLTS
003749: 41,3647           00004                           INHINT
003750: 41,3650           05203                           TC       WAITLIST
003751: 41,3651     1023                                  EBANK=   DSPTAB
003752: 41,3651           03662 62102                     2CADR    TSTLTS2
003753:
003754: 41,3653           05155                           TC       ENDOFJOB                              #  DSPLOCK IS LEFT BUSY (FROM KEYBOARD
003755:                                                                                                  #  ACTION) UNTIL TSTLTS3 TO INSURE THAT
003756:                                                                                                  #  LIGHTS TEST WILL BE SEEN.
003757:
003758:
003759: 41,3654           05675        FULLDSP            OCT      05675                                 #  DISPLAY ALL 8:S
003760: 41,3655           07675        FULLDSP1           OCT      07675                                 #  DISPLAY ALL 8:S AND +
003761: 41,3656           00175        TSTCON1            OCT      00175
003762:                                                                                                  #  UPLINK ACTIVITY, TEMP, KEY RLSE,
003763:                                                                                                  #  V/N FLASH, OPERATOR ERROR.


003765: 41,3657           40674        TSTCON2            OCT      40674                                 #  DSPTAB+11D BITS 3,4,5,6,8,9. LR LITES,
003766:                                                                                                  #  NO ATT, GIMBAL LOCK, TRACKER, PROG ALM.
003767: 41,3660           00115        TSTCON3            OCT      00115                                 #  CHAN 11  BITS 1, 3, 4, 7.
003768:                                                                                                  #  UPLINK ACTIVITY, TEMP, OPERATOR ERROR.
003769: 41,3661           00764        SHOLTS             OCT      764                                   #  5 SEC
003770:
003771:
003772: 41,3662           34355        TSTLTS2            CAF      CHRPRIO                               #  CALLED BY WAITLIST
003773: 41,3663           05072                           TC       NOVAC
003774: 41,3664     1023                                  EBANK=   DSPTAB
003775: 41,3664           03667 62102                     2CADR    TSTLTS3
003776:
003777: 41,3666           05261                           TC       TASKOVER
003778:
003779:
003780: 41,3667           43660        TSTLTS3            CS       TSTCON3                               #  CALLED BY EXECUTIVE
003781: 41,3670           00004                           INHINT
003782: 41,3671           00006                           EXTEND                                         #  TURN OFF  UPLINK ACTIVITY, TEMP,
003783: 41,3672           03011                           WAND     DSALMOUT                              #  OPERATOR ERROR.
003784: 41,3673           44742                           CS       BIT10                                 #  TURN OFF TEST ALARM OUTBIT
003785: 41,3674           00006                           EXTEND
003786: 41,3675           03013                           WAND     CHAN13
003787: 41,3676           34750                           CAF      BIT4                                  #  MAKE NO ATT FOLLOW BIT 4 OF CHANNEL 12
003788: 41,3677           00006                           EXTEND                                         #    (NO ATT LIGHT ON IF IN COARSE ALIGN)
003789: 41,3700           02012                           RAND     CHAN12
003790: 41,3701           64735                           AD       BIT15                                 #  TURN OFF AUTO, HOLD, FREE, SPARE,
003791: 41,3702           55036                           TS       DSPTAB     +11D                       #  GIMBAL LOCK, SPARE, TRACKER, PROG ALM
003792: 41,3703           43726                           CS       13-11,1                               #  SET BITS TO INDICATE ALL LAMPS OUT. TEST
003793: 41,3704           71303                           MASK     IMODES33                              #  LIGHTS COMPLETE.
003794: 41,3705           65026                           AD       PRIO16
003795: 41,3706           55303                           TS       IMODES33
003796:
003797: 41,3707           43730                           CS       OCT55000
003798: 41,3710           71302                           MASK     IMODES30
003799: 41,3711           65025                           AD       PRIO15                                #  15000.
003800: 41,3712           55302                           TS       IMODES30
003801:
003802: 41,3713           43727                           CS       RFAILS2
003803: 41,3714           70110                           MASK     RADMODES
003804: 41,3715           64745                           AD       RCDUFBIT
003805: 41,3716           54110                           TS       RADMODES
003806:
003807: 41,3717           00003                           RELINT
003808:
003809: 41,3720           04616                           TC       BANKCALL                              #  REDISPLAY C(MODREG)
003810: 41,3721           10573                           CADR     DSPMM
003811: 41,3722           04204                           TC       KILMONON                              #  TURN ON KILL MONITOR BIT.
003812: 41,3723           04433                           TC       FLASHOFF                              #  TURN OFF V/N FLASH.
003813: 41,3724           04635                           TC       POSTJUMP                              #  DOES RELDSP AND GOES TO PINBRNCH IF
003814: 41,3725           61467                           CADR     TSTLTS4                               #   ENDIDLE IS AWAITING OPERATOR RESPONSE.


003816: 41,3726           16001        13-11,1            OCT      16001
003817: 41,3727           00330        RFAILS2            OCT      330                                   #  RADAR CDU AND DATA FAIL FLAGS.
003818: 41,3730           55000        OCT55000           OCT      55000
003819: 41,3731                        ENDPINS2           EQUALS
003820:


003822:                                                                                                  #  ERROR LIGHT RESET (RSET) TURNS OFF,
003823:                                                                                                  #  UPLINK ACTIVITY, AUTO, HOLD, FREE, OPERATOR ERROR,
003824:                                                                                                  #  PROG ALM, TRACKER FAIL.
003825:                                                                                                  #  LEAVES GIMBAL LOCK AND NO ATT ALONE.
003826:                                                                                                  #  IT ALSO ZEROES THE :TEST ALARM: OUT BIT, WHICH TURNS OFF STBY,RESTART.
003827:                                                                                                  #  IT ALSO SETS :CAUTION RESET: TO 1.
003828:                                                                                                  #  IT ALSO FORCES BIT 12 OF ALL DSPTAB ENTRIES TO 1.
003829:
003830: 40,3601                                           SETLOC   DOPROC     +2
003831: 40,3601                                           COUNT*   $$/PIN
003832: 40,3601           56115        ERROR              XCH      21/22REG                              #  RESTORE ORIGINAL C(DSPLOCK). THUS ERROR
003833: 40,3602           55012                           TS       DSPLOCK                               #  LIGHT RESET LEAVES DSPLOCK UNCHANGED.
003834: 40,3603           00004                           INHINT
003835: 40,3604           34742                           CAF      BIT10                                 #  TURN ON :CAUTION RESET: OUTBIT
003836: 40,3605           00006                           EXTEND
003837: 40,3606           05011                           WOR      DSALMOUT                              #  BIT10 CHAN 11
003838: 40,3607           33670                           CAF      GL+NOATT                              #  LEAVE GIMBAL LOCK AND NO ATT INTACT,
003839: 40,3610           71036                           MASK     DSPTAB     +11D                       #  TURNING OFF AUTO, HOLD, FREE,
003840: 40,3611           64735                           AD       BIT15                                 #  PROG ALARM, AND TRACKER.
003841: 40,3612           55036                           TS       DSPTAB     +11D
003842: 40,3613           45026                           CS       PRIO16                                #  RESET FAIL BITS WHICH GENERATE PROG
003843: 40,3614           71303                           MASK     IMODES33                              #  ALARM SO THAT IF THE FAILURE STILL
003844: 40,3615           65026                           AD       PRIO16                                #  EXISTS, THE ALARM WILL COME BACK.
003845: 40,3616           55303                           TS       IMODES33
003846: 40,3617           44742                           CS       BIT10
003847: 40,3620           71302                           MASK     IMODES30
003848: 40,3621           64742                           AD       BIT10
003849: 40,3622           55302                           TS       IMODES30
003850:
003851: 40,3623           43667                           CS       RFAILS
003852: 40,3624           70110                           MASK     RADMODES
003853: 40,3625           64745                           AD       RCDUFBIT
003854: 40,3626           54110                           TS       RADMODES
003855:
003856: 40,3627           44742                           CS       BIT10                                 #  TURN OFF :TEST ALARM: OUTBIT.
003857: 40,3630           00006                           EXTEND
003858: 40,3631           03013                           WAND     CHAN13
003859: 40,3632           43666                           CS       ERCON                                 #  TURN OFF UPLINK ACTIVITY,
003860: 40,3633           00006                           EXTEND                                         #  OPERATOR ERROR.
003861: 40,3634           03011                           WAND     DSALMOUT
003862: 40,3635           34363        TSTAB              CAF      BINCON                                #  (DEC 10)
003863: 40,3636           54117                           TS       ERCNT                                 #  ERCNT = COUNT
003864: 40,3637           00004                           INHINT
003865: 40,3640           50117                           INDEX    ERCNT
003866: 40,3641           11023                           CCS      DSPTAB
003867: 40,3642           64753                           AD       ONE
003868: 40,3643           03650                           TC       ERPLUS
003869: 40,3644           64753                           AD       ONE
003870: 40,3645           40000        ERMINUS            CS       A
003871: 40,3646           73671                           MASK     NOTBIT12


003873: 40,3647           03653                           TC       ERCOM
003874: 40,3650           40000        ERPLUS             CS       A
003875: 40,3651           73671                           MASK     NOTBIT12
003876: 40,3652           40000                           CS       A                                     #  MIGHT WANT TO RESET CLPASS, DECBRNCH,
003877: 40,3653           50117        ERCOM              INDEX    ERCNT                                 #  ETC.
003878: 40,3654           55023                           TS       DSPTAB
003879: 40,3655           00003                           RELINT
003880: 40,3656           10117                           CCS      ERCNT
003881: 40,3657           03636                           TC       TSTAB      +1
003882: 40,3660           34755                           CAF      ZERO
003883: 40,3661           54375                           TS       FAILREG
003884: 40,3662           54376                           TS       FAILREG    +1
003885: 40,3663           54377                           TS       FAILREG    +2
003886: 40,3664           55357                           TS       SFAIL
003887: 40,3665           05155                           TC       ENDOFJOB
003888:
003889: 40,3666           00104        ERCON              OCT      104                                   #  CHAN 11 BITS 3,7.
003890:                                                                                                  #  UPLINK ACTIVITY, AND OPERATOR ERROR.
003891: 40,3667           00330        RFAILS             OCT      330                                   #  RADAR CDU AND DATA FAIL FLAGS.
003892: 40,3670           00050        GL+NOATT           OCT      00050                                 #  NO ATT AND GIMBAL LOCK LAMPS
003893: 40,3671           73777        NOTBIT12           OCT      73777
003894:
003895:
003896: 40,3672                        ENDPINS1           EQUALS
003897:
003898:
003899: 40,3672  30,2000                                  SBANK=   LOWSUPER

End of include-file PINBALL_GAME__BUTTONS_AND_LIGHTS.agc.  Parent file is MAIN.agc


