
Source Code


000002:                                                                                                  ## Copyright:   Public domain.
000003:                                                                                                  ## Filename:    POWERED_FLIGHT_SUBROUTINES.agc
000004:                                                                                                  ## Purpose:     The main source file for Luminary revision 069.
000005:                                                                                                  ##              It is part of the source code for the original release
000006:                                                                                                  ##              of the flight software for the Lunar Module's (LM) Apollo
000007:                                                                                                  ##              Guidance Computer (AGC) for Apollo 10. The actual flown
000008:                                                                                                  ##              version was Luminary 69 revision 2, which included a
000009:                                                                                                  ##              newer lunar gravity model and only affected module 2.
000010:                                                                                                  ##              This file is intended to be a faithful transcription, except
000011:                                                                                                  ##              that the code format has been changed to conform to the
000012:                                                                                                  ##              requirements of the yaYUL assembler rather than the
000013:                                                                                                  ##              original YUL assembler.
000014:                                                                                                  ## Reference:   pp. 1254-1261
000015:                                                                                                  ## Assembler:   yaYUL
000016:                                                                                                  ## Contact:     Ron Burkey <info@sandroid.org>.
000017:                                                                                                  ## Website:     www.ibiblio.org/apollo/index.html
000018:                                                                                                  ## Mod history: 2016-12-13 MAS  Created from Luminary 99.
000019:                                                                                                  ##              2016-12-18 MAS  Updated from comment-proofed Luminary 99 version.
000020:                                                                                                  ##              2017-01-13 RRB  Updated for Luminary 69.
000021:                                                                                                  ##              2017-01-28 RSB  Proofed comment text using octopus/prooferComments
000022:                                                                                                  ##                              but no errors found.
000023:


000025: 14,3711                                           BANK     14                                    #  SAME FBANK AS THE FINDCDUD SUB-PROGRAM
000026: 23,2000                                           SETLOC   POWFLITE
000027: 23,2000                                           BANK
000028:
000029: 23,3443     0142                                  EBANK=   DEXDEX
000030: 23,3443                                           COUNT*   $$/POWFL
000031:
000032:                                                                                                  #      CDUTRIG, CDUTRIG1, CDUTRIG2, AND CD*TR*GS ALL COMPUTE THE SINES AND
000033:                                                                                                  #  COSINES OF THREE 2'S COMPLEMENT ANGLES AND PLACE THE RESULT, DOUBLE
000034:                                                                                                  #  PRECISION, IN THE SAME ORDER AS THE INPUTS, AT SINCDU AND COSCDU.   AN
000035:                                                                                                  #  ADDITIONAL OUTPUT IS THE 1'S COMPLEMENT ANGLES AT CDUSPOT.   THESE
000036:                                                                                                  #  ROUTINES GO OUT OF THEIR WAY TO LEAVE THE MPAC AREA AS THEY FIND IT.
000037:                                                                                                  #  EXCEPT FOR THE GENERALLY UNIMPORTANT MPAC +2.  THEY DIFFER ONLY IN
000038:                                                                                                  #  WHERE THEY GET THE ANGLES, AND IN METHOD OF CALLING.
000039:
000040:                                                                                                  #      CDUTRIG (AND CDUTRIG1, WHICH CAN BE CALLED IN BASIC) COMPUTE THE
000041:                                                                                                  #  SINES AND COSINES FROM THE CURRENT CONTENTS OF THE CDU REGISTERS.
000042:                                                                                                  #  THE CONTENTS OF CDUTEMP, ETC., ARE NOT TOUCHED SO THAT THEY MAY
000043:                                                                                                  #  CONTINUE TO FORM A CONSISTENT SET WITH THE LATEST PIPA READINGS.
000044:
000045:                                                                                                  #      CDUTRIG1 IS LIKE CDUTRIG EXCEPT THAT IT CAN BE CALLED IN BASIC.
000046:
000047:                                                                                                  #      CD*TR*GS FINDS CDU VALUES IN CDUSPOT RATHER THAN IN CDUTEMP.   THIS
000048:                                                                                                  #  ALLOWS USERS TO MAKE TRANSFORMATIONS USING ARBITRARY ANGLES, OR REAL
000049:                                                                                                  #  ANGLES IN AN ORDER OTHER THAN X Y Z.   A CALL TO THIS ROUTINE IS
000050:                                                                                                  #  NECESSARY IN PREPARATION FOR A CALL TO AX*SR*T IN EITHER OF ITS TWO
000051:                                                                                                  #  MODES (SMNB OR NBSM).   SINCE AX*SR*T EXPECTS TO FIND THE SINES AND
000052:                                                                                                  #  COSINES IN THE ORDER Y Z X THE ANGLES MUST HAVE BEEN PLACED IN CDUSPOT
000053:                                                                                                  #  IN THIS ORDER.   CD*TR*GS NEED NOT BE REPEATED WHEN AX*SR*T IS CALLED
000054:                                                                                                  #  MORE THAN ONCE, PROVIDED THE ANGLES HAVE NOT CHANGED.   NOTE THAT SINCE
000055:                                                                                                  #  IT CLOBBERS BUF2 (IN THE SINE AND COSINE ROUTINES) CD*TR*GS CANNOT BE
000056:                                                                                                  #  CALLED USING BANKCALL.   SORRY.
000057:
000058:                                                                                                  #      CD*TR*G IS LIKE CD*TR*GS EXCEPT THAT IT CAN BE CALLED IN
000059:                                                                                                  #  INTERPRETIVE.
000060:
000061: 23,3443           77776        CDUTRIG            EXIT
000062: 23,3444           03453                           TC       CDUTRIGS
000063: 23,3445           06036                           TC       INTPRET
000064: 23,3446           77616                           RVQ
000065:
000066: 23,3447           77776        CD*TR*G            EXIT
000067: 23,3450           03461                           TC       CD*TR*GS
000068: 23,3451           06036                           TC       INTPRET
000069: 23,3452           77616                           RVQ
000070:
000071: 23,3453           30032        CDUTRIGS           CA       CDUX
000072: 23,3454           54772                           TS       CDUSPOT    +4
000073: 23,3455           30033                           CA       CDUY
000074: 23,3456           54766                           TS       CDUSPOT


000076: 23,3457           30034                           CA       CDUZ
000077: 23,3460           54770                           TS       CDUSPOT    +2
000078:
000079: 23,3461           00006        CD*TR*GS           EXTEND
000080: 23,3462           22142                           QXCH     TEM2
000081: 23,3463           34751                           CAF      FOUR
000082: 23,3464           76241        TR*GL**P           MASK     SIX                                   #  MAKE IT EVEN AND SMALLER
000083: 23,3465           54143                           TS       TEM3
000084: 23,3466           50143                           INDEX    TEM3
000085: 23,3467           30766                           CA       CDUSPOT
000086: 23,3470           52155                           DXCH     MPAC                                  #  STORING 2'S COMP ANGLE, LOADING MPAC
000087: 23,3471           52127                           DXCH     VBUF       +4                         #  STORING MPAC FOR LATER RESTORATION
000088: 23,3472           04713                           TC       USPRCADR
000089: 23,3473           21465                           CADR     CDULOGIC
000090: 23,3474           00006                           EXTEND
000091: 23,3475           30155                           DCA      MPAC
000092: 23,3476           50143                           INDEX    TEM3
000093: 23,3477           52767                           DXCH     CDUSPOT                               #  STORING 1'S COMPLEMENT ANGLE
000094: 23,3500           04713                           TC       USPRCADR
000095: 23,3501           01517                           CADR     COSINE
000096: 23,3502           52155                           DXCH     MPAC
000097: 23,3503           50143                           INDEX    TEM3
000098: 23,3504           52745                           DXCH     COSCDU                                #  STORING COSINE
000099: 23,3505           00006                           EXTEND
000100: 23,3506           50143                           INDEX    TEM3
000101: 23,3507           30767                           DCA      CDUSPOT                               #  LOADING 1'S COMPLEMENT ANGLE
000102: 23,3510           04713                           TC       USPRCADR
000103: 23,3511           01531                           CADR     SINE       +1                         #  SINE +1 EXPECTS ARGUMENT IN A AND L
000104: 23,3512           52127                           DXCH     VBUF       +4                         #  BRINGING UP PRIOR MPAC TO BE RESTORED
000105: 23,3513           52155                           DXCH     MPAC
000106: 23,3514           50143                           INDEX    TEM3
000107: 23,3515           52737                           DXCH     SINCDU
000108: 23,3516           10143                           CCS      TEM3
000109: 23,3517           13464                           TCF      TR*GL**P
000110: 23,3520           00142                           TC       TEM2


000112:                                                                                                  #  ****************************************************************************************************************
000113:                                                                                                  #      QUICTRIG, INTENDED FOR GUIDANCE CYCLE USE WHERE TIME IS CRITICAL, IS A MUCH FASTER VERSION OF CD*TR*GS.
000114:                                                                                                  #  QUICTRIG COMPUTES AND STORES THE SINES AND COSINES OF THE 2'S COMPLEMENT ANGLES AT CDUSPOT, CDUSPOT +2,
000115:                                                                                                  #  AND CDUSPOT +4.   UNLIKE CD*TR*GS, QUICTRIG DOES NOT LEAVE THE 1'S COMPLEMENT VERSIONS OF THE ANGLES IN
000116:                                                                                                  #  CDUSPOT.   QUICTRIG'S EXECUTION TIME IS 4.1 MS;  THIS IS 10 TIMES AS FAST AS CD*TR*GS.    QUICTRIG MAY BE
000117:                                                                                                  #  CALLED FROM INTERPRETIVE AS AN RTB OP-CODE, OR FROM BASIC VIA BANKCALL OR IBNKCALL.
000118:
000119: 23,3521           00004        QUICTRIG           INHINT                                         #  INHINT SINCE DAP USES THE SAME TEMPS
000120: 23,3522           00006                           EXTEND
000121: 23,3523           22061                           QXCH     ITEMP1
000122: 23,3524           34751                           CAF      FOUR
000123: 23,3525           76241                 +4        MASK     SIX
000124: 23,3526           54062                           TS       ITEMP2
000125: 23,3527           50062                           INDEX    ITEMP2
000126: 23,3530           30766                           CA       CDUSPOT
000127: 23,3531           05033                           TC       SPSIN
000128: 23,3532           00006                           EXTEND
000129: 23,3533           74736                           MP       BIT14                                 #  SCALE DOWN TO MATCH INTERPRETER OUTPUTS
000130: 23,3534           50062                           INDEX    ITEMP2
000131: 23,3535           52737                           DXCH     SINCDU
000132: 23,3536           50062                           INDEX    ITEMP2
000133: 23,3537           30766                           CA       CDUSPOT
000134: 23,3540           05032                           TC       SPCOS
000135: 23,3541           00006                           EXTEND
000136: 23,3542           74736                           MP       BIT14
000137: 23,3543           50062                           INDEX    ITEMP2
000138: 23,3544           52745                           DXCH     COSCDU
000139: 23,3545           10062                           CCS      ITEMP2
000140: 23,3546           13525                           TCF      QUICTRIG   +4
000141: 23,3547           30061                           CA       ITEMP1
000142: 23,3550           00003                           RELINT
000143: 23,3551           00000                           TC       A
000144:


000146:                                                                                                  # ****************************************************************************************************************
000147:                                                                                                  #      THESE INTERFACE ROUTINES MAKE IT POSSIBLE TO CALL AX*SR*T, ETC., IN
000148:                                                                                                  #  INTERPRETIVE.  LATER, WHERE POSSIBLE, THEY WILL BE ELIMINATED.
000149:
000150:                                                                                                  #      THESE INTERFACE ROUTINES ARE PERMANENT.   ALL RESTORE USER'S EBANK
000151:                                                                                                  #  SETTING.   ALL ARE STRICT INTERPRETIVE SUBROUTINES, CALLED USING "CALL",
000152:                                                                                                  #  RETURNING VIA QPRET.   ALL EXPECT AND RETURN THE VECTOR TO BE TRANSFOR-
000153:                                                                                                  #  MED INTERPRETER-STYLE IN MPAC; COMPONENTS AT MPAC, MPAC +3, AND MPAC +5.
000154:
000155:                                                                                                  #       TRG*SMNB AND TRG*NBSM BOTH EXPECT TO SEE THE 2'S COMPLEMENT ANGLES
000156:                                                                                                  #  AT CDUSPOT (ORDER Y Z X, AT CDUSPOT, CDUSPOT +2, AND CDUSPOT +4; ODD
000157:                                                                                                  #  LOCATIONS NEED NOT BE ZEROED).   TRG*NBSM DOES THE NB TO SM TRANSFOR-
000158:                                                                                                  #  MATION;  TRG*SMNB, VICE VERSA.
000159:
000160:                                                                                                  #      CDU*NBSM DOES ITS TRANSFORMATION USING THE PRESENT CONTENTS OF
000161:                                                                                                  #  THE CDL COUNTERS.   OTHERWISE IT IS LIKE TRG*NBSM.
000162:
000163:                                                                                                  #      CDU*SMNB IS THE COMPLEMENT OF CDU*NBSM.
000164:
000165: 23,3552           77776        CDU*SMNB           EXIT
000166: 23,3553           03453                           TC       CDUTRIGS
000167: 23,3554           13557                           TCF      C*MM*N1
000168:
000169: 23,3555           77776        TRG*SMNB           EXIT
000170: 23,3556           03461                           TC       CD*TR*GS
000171: 23,3557           07531        C*MM*N1            TC       MPACVBUF                              #  AX*SR*T EXPECTS VECTOR IN VBUF
000172: 23,3560           46244                           CS       THREE                                 #  SIGNAL FOR SM TO NB TRANSFORMATION
000173: 23,3561           03601        C*MM*N2            TC       AX*SR*T
000174: 23,3562           06036                           TC       INTPRET
000175: 23,3563           43575                           VLOAD    RVQ
000176: 23,3564           00123                                    VBUF
000177:
000178: 23,3565           77776        CDU*NBSM           EXIT
000179: 23,3566           03453                           TC       CDUTRIGS
000180: 23,3567           13572                           TCF      C*MM*N3
000181:
000182: 23,3570           77776        TRG*NBSM           EXIT
000183: 23,3571           03461                           TC       CD*TR*GS
000184: 23,3572           07531        C*MM*N3            TC       MPACVBUF                              #  FOR AX*SR*T
000185: 23,3573           36244                           CA       THREE                                 #  SIGNAL FOR NB TO SM TRANSFORMATION
000186: 23,3574           13561                           TCF      C*MM*N2
000187:
000188:                                                                                                  #      *NBSM* AND *SMNB* EXPECT TO SEE THE SINES AND COSINES (AT SINCDU
000189:                                                                                                  #  AND COSCDU) RATHER THAN THE ANGLES THEMSELVES.   OTHERWISE THEY ARE
000190:                                                                                                  #  LIKE TRG*NBSM AND TRG*SMNB.
000191:
000192:                                                                                                  #       NOTE THAT JUST AS CD*TR*GS NEED BE CALLED ONLY ONCE FOR EACH SERIES
000193:                                                                                                  #  OF TRANSFORMATIONS USING THE SAME ANGLES, SO TOO ONLY ONE OF TRG*NBSM


000195:                                                                                                  #  AND TRG*SMNB NEED BE CALLED FOR EACH SERIES.   FOR SUBSEQUENT TRANSFOR-
000196:                                                                                                  #  MATIONS USE *NBSM* AND *SMNB*.
000197:
000198: 23,3575           77776        *SMNB*             EXIT
000199: 23,3576           13557                           TCF      C*MM*N1
000200:
000201: 23,3577           77776        *NBSM*             EXIT
000202: 23,3600           13572                           TCF      C*MM*N3
000203:
000204:                                                                                                  #        AX*SR*T COMBINES THE OLD SMNB AND NBSM.   FOR THE NB TO SM
000205:                                                                                                  #  TRANSFORMATION, ENTER WITH +3 IN A.   FOR SM TO NB, ENTER WITH -3.
000206:                                                                                                  #  THE VECTOR TO BE TRANSFORMED ARRIVES, AND IS RETURNED, IN VBUF.
000207:                                                                                                  #  AX*SR*T EXPECTS TO FIND THE SINES AND COSINES OF THE ANGLES OF ROTATION
000208:                                                                                                  #  AT SINCDU AND COSCDU, IN THE ORDER Y Z X.  A CALL TO CD*TR*GS, WITH
000209:                                                                                                  #  THE 2'S COMPLEMENT ANGLES (ORDER Y Z X) AT CDUSPOT, WILL TAKE CARE OF
000210:                                                                                                  #  THIS.  HERE IS A SAMPLE CALLING SEQUENCE:-
000211:                                                                                                  #                TC      CDUTRIGS
000212:                                                                                                  #                CS      THREE           ("CA THREE" FOR NBSM)
000213:                                                                                                  #                TC      AX*SR*T
000214:                                                                                                  #  THE CALL TO CD*TR*GS NEED NOT BE REPEATED, WHEN AX*SR*T IS CALLED MORE
000215:                                                                                                  #  THAN ONCE, UNLESS THE ANGLES HAVE CHANGED.
000216:
000217:                                                                                                  #      AX*SR*T IS GUARANTEED SAFE ONLY FOR VECTORS OF MAGNITUDE LESS THAN
000218:                                                                                                  #  UNITY.   A LOOK AT THE CASE IN WHICH A VECTOR OF GREATER MAGNITUDE
000219:                                                                                                  #  HAPPENS TO LIE ALONG AN AXIS OF THE SYSTEM TO WHICH IT IS TO BE TRANS-
000220:                                                                                                  #  FORMED CONVINCES ONE THAT THIS IS A RESTRICTION WHICH MUST BE ACCEPTED.
000221:
000222: 23,3601           54142        AX*SR*T            TS       DEXDEX                                #  WHERE IT BECOMES THE INDEX OF INDEXES
000223: 23,3602           00006                           EXTEND
000224: 23,3603           22145                           QXCH     RTNSAVER
000225:
000226: 23,3604           10142        R*TL**P            CCS      DEXDEX                                #                +3 --> 0        -3 --> 2
000227: 23,3605           40142                           CS       DEXDEX                                #  THUS:         +2 --> 1        -2 --> 1
000228: 23,3606           66244                           AD       THREE                                 #                +1 --> 2        -1 --> 0
000229: 23,3607           00006                           EXTEND
000230: 23,3610           50000                           INDEX    A
000231: 23,3611           33670                           DCA      INDEXI
000232: 23,3612           52144                           DXCH     DEXI
000233:
000234: 23,3613           34753                           CA       ONE
000235: 23,3614           54130                           TS       BUF
000236: 23,3615           00006                           EXTEND
000237: 23,3616           50143                           INDEX    DEX1
000238: 23,3617           40123                           DCS      VBUF
000239: 23,3620           13622                           TCF      LOOP1                                 #  REALLY BE A SUBTRACT, AND VICE VERSA
000240:
000241: 23,3621           52131        LOOP2              DXCH     BUF                                   #  LOADING VECTOR COMPONENT, STORING INDEX


000243: 23,3622           52155        LOOP1              DXCH     MPAC
000244: 23,3623           33666                           CA       SINSLOC
000245: 23,3624           60143                           AD       DEX1
000246: 23,3625           54116                           TS       ADDRWD
000247:
000248: 23,3626           07106                           TC       DMPSUB                                #  MULTIPLY BY SIN(CDUANGLE)
000249: 23,3627           10142                           CCS      DEXDEX
000250: 23,3630           52155                           DXCH     MPAC                                  #  NBSM CASE
000251: 23,3631           13634                           TCF      +3
000252: 23,3632           00006                           EXTEND                                         #  SMNB CASE
000253: 23,3633           40155                           DCS      MPAC
000254: 23,3634           52160                           DXCH     TERM1TMP
000255:
000256: 23,3635           36241                           CA       SIX                                   #  SINCDU AND COSCDU (EACH 6 WORDS) MUST
000257: 23,3636           26116                           ADS      ADDRWD                                #    BE CONSECUTIVE AND IN THAT ORDER
000258:
000259: 23,3637           00006                           EXTEND
000260: 23,3640           50130                           INDEX    BUF
000261: 23,3641           50143                           INDEX    DEX1
000262: 23,3642           30123                           DCA      VBUF
000263: 23,3643           52155                           DXCH     MPAC
000264: 23,3644           07106                           TC       DMPSUB                                #  MULTIPLY BY COS(CDUANGLE)
000265: 23,3645           52155                           DXCH     MPAC
000266: 23,3646           20160                           DAS      TERM1TMP
000267: 23,3647           52160                           DXCH     TERM1TMP
000268: 23,3650           20001                           DDOUBL
000269: 23,3651           50130                           INDEX    BUF
000270: 23,3652           50143                           INDEX    DEX1
000271: 23,3653           52123                           DXCH     VBUF
000272: 23,3654           52131                           DXCH     BUF                                   #  LOADING INDEX, STORING VECTOR COMPONENT
000273:
000274: 23,3655           10000                           CCS      A                                     #  'CAUSE THAT'S WHERE THE INDEX NOW IS
000275: 23,3656           13621                           TCF      LOOP2
000276:
000277: 23,3657           00006                           EXTEND
000278: 23,3660           26142                           DIM      DEXDEX                                #  DECREMENT MAGNITUDE PRESERVING SIGN
000279:
000280: 23,3661           10142        TSTPOINT           CCS      DEXDEX                                #  ONLY THE BRANCHING FUNCTION IS USED
000281: 23,3662           13604                           TCF      R*TL**P
000282: 23,3663           00145                           TC       RTNSAVER
000283: 23,3664           13604                           TCF      R*TL**P
000284: 23,3665           00145                           TC       RTNSAVER
000285:
000286: 23,3666           00736        SINSLOC            ADRES    SINCDU                                #  FOR USE IN SETTING ADDRWD
000287:
000288: 23,3667           00004        INDEXI             DEC      4          B-14                       #  **********   DON'T   **********
000289: 23,3670           00002                           DEC      2          B-14                       #  **********   TOUCH   **********
000290: 23,3671           00000                           DEC      0          B-14                       #  **********   THESE   **********


000292: 23,3672           00004                           DEC      4          B-14                       #  ********** CONSTANTS **********
000293:
000294:                                                                                                  #  ****************************************************************************************************************


000296:                                                                                                  #  THIS SUBROUTINE COMPUTES INCREMENTAL CHANGES IN CDU(GIMBAL) ANGLES FROM INCREMENTAL CHANGES ABOUT SM AXES. IT
000297:                                                                                                  #  REQUIRES SM INCREMENTS AS A DP VECTOR SCALED AT ONE REVOLUTION(DTHETASM,+2,+4).  SIN,COS(CDUY,Z,X) ARE IN
000298:                                                                                                  #  SINCDU,+2,+4 AND COSCDU,+2,+4 RESPECTIVELY,SCALED TO ONE HALF. CDU INCREENTS ARE PLACED IN DCDU,+2,+4 SCALED TO
000299:                                                                                                  #  ONE REVOLUTION.
000300:
000301:                                                                                                  #         *  COS(IGA)SEC(MGA)          0           -SIN(IGA)SEC(MGA) *
000302:                                                                                                  #         *                                                          *
000303:                                                                                                  #         * -COS(IGA)TAN(MGA)          1            SIN(IGA)TAN(MGA) *
000304:                                                                                                  #         *                                                          *
000305:                                                                                                  #         *      SIN(IGA)              0                COS(IGA)     *
000306:
000307: 14,3711                                           BANK     14
000308: 23,2000                                           SETLOC   POWFLIT1
000309: 23,2000                                           BANK
000310: 23,3673           41345        SMCDURES           DLOAD    DMP
000311: 23,3674           01265                                    DTHETASM
000312: 23,3675           00745                                    COSCDUY
000313:
000314: 23,3676           41325                           PDDL     DMP
000315: 23,3677           01271                                    DTHETASM   +4
000316: 23,3700           00737                                    SINCDUY
000317:
000318: 23,3701           77621                           BDSU
000319: 23,3702           77671                           DDV
000320: 23,3703           00747                                    COSCDUZ
000321: 23,3704           03234                           STORE    DCDU
000322:
000323: 23,3705           72405                           DMP      SL1                                   #  SCALE
000324: 23,3706           00741                                    SINCDUZ
000325: 23,3707           77621                           BDSU
000326:
000327: 23,3710           01267                                    DTHETASM   +2
000328: 23,3711           17236                           STODL    DCDU       +2
000329: 23,3712           01265                                    DTHETASM
000330:
000331: 23,3713           65205                           DMP      PDDL
000332: 23,3714           00737                                    SINCDUY
000333: 23,3715           01271                                    DTHETASM   +4
000334:
000335: 23,3716           43205                           DMP      DAD
000336: 23,3717           00745                                    COSCDUY
000337: 23,3720           77752                           SL1
000338: 23,3721           03240                           STORE    DCDU       +4
000339: 23,3722           77616                           RVQ
000340:

End of include-file POWERED_FLIGHT_SUBROUTINES.agc.  Parent file is MAIN.agc


