
Source Code


000002:                                                                                                  ## Copyright:   Public domain.
000003:                                                                                                  ## Filename:    Q,R-AXES_RCS_AUTOPILOT.agc
000004:                                                                                                  ## Purpose:     The main source file for Luminary revision 069.
000005:                                                                                                  ##              It is part of the source code for the original release
000006:                                                                                                  ##              of the flight software for the Lunar Module's (LM) Apollo
000007:                                                                                                  ##              Guidance Computer (AGC) for Apollo 10. The actual flown
000008:                                                                                                  ##              version was Luminary 69 revision 2, which included a
000009:                                                                                                  ##              newer lunar gravity model and only affected module 2.
000010:                                                                                                  ##              This file is intended to be a faithful transcription, except
000011:                                                                                                  ##              that the code format has been changed to conform to the
000012:                                                                                                  ##              requirements of the yaYUL assembler rather than the
000013:                                                                                                  ##              original YUL assembler.
000014:                                                                                                  ## Reference:   pp. 1436-1453
000015:                                                                                                  ## Assembler:   yaYUL
000016:                                                                                                  ## Contact:     Ron Burkey <info@sandroid.org>.
000017:                                                                                                  ## Website:     www.ibiblio.org/apollo/index.html
000018:                                                                                                  ## Mod history: 2016-12-13 MAS  Created from Luminary 99.
000019:                                                                                                  ##              2016-12-18 MAS  Updated from comment-proofed Luminary 99 version.
000020:                                                                                                  ##              2017-01-03 RRB  Updated for Luminary 69.
000021:                                                                                                  ##              2017-01-21 HG   Fix operand ROT-TOUV -> ROT45DEG
000022:                                                                                                  ##                                          +X0RULGE -> +XORULGE
000023:                                                                                                  ##                              Add missing declaration .707 DEC .70711
000024:                                                                                                  ##              2017-01-23 HG   Add mising statement CA POSMAX
000025:                                                                                                  ##              2017-01-28 RSB  Proofed comment text using octopus/prooferComments
000026:                                                                                                  ##                              and fixed errors found.
000027:                                                                                                  ##              2017-03-16 RSB  Comment-text fixes identified in 5-way
000028:                                                                                                  ##                              side-by-side diff of Luminary 69/99/116/131/210.
000029:                                                                                                  ##              2017-08-29 MAS  Fixed a comment-text error found while transcribing
000030:                                                                                                  ##                              Zerlina 56.
000031:


000033: 17,2043                                           BANK     17
000034: 17,2000                                           SETLOC   DAPS2
000035: 17,2000                                           BANK
000036:
000037: 17,2043  E6,1633                                  EBANK=   CDUXD
000038:
000039: 17,2043                                           COUNT*   $$/DAPQR
000040:
000041: 17,2043           34737        CALLQERR           CA       BIT13                                 #  CALCULATE Q,R ERRORS UNLESS THESE AXES
000042: 17,2044           00006                           EXTEND                                         #  ARE IN MANUAL RATE COMMAND.
000043: 17,2045           02031                           RAND     CHAN31
000044: 17,2046           10000                           CCS      A
000045: 17,2047           12054                           TCF      +5                                    #  IN AUTO COMPUTE Q,R ERRORS
000046: 17,2050           40111                           CS       DAPBOOLS                              #  IN MANUAL RATE COMMAND?
000047: 17,2051           74740                           MASK     OURRCBIT
000048: 17,2052           00006                           EXTEND
000049: 17,2053           12055                           BZF      Q,RORGTS                              #  IF SO BYPASS CALCULATION OF ERRORS.
000050: 17,2054           02563                           TC       QERRCALC
000051:
000052: 17,2055           11627        Q,RORGTS           CCS      COTROLER                              #  CHOOSE CONTROL SYSTEM FOR THIS DAP PASS:
000053: 17,2056           12544                           TCF      GOTOGTS                               #    GTS (ALTERNATES WITH RCS WHEN DOCKED)
000054: 17,2057           12531                           TCF      TRYGTS                                #    GTS IF ALLOWED, OTHERWISE RCS
000055: 17,2060           34755        RCS                CAF      ZERO                                  #    RCS (TRYGTS MAY BRANCH TO HERE)
000056: 17,2061           55627                           TS       COTROLER
000057:
000058: 17,2062           53435                           DXCH     EDOTQ
000059: 17,2063           03100                           TC       ROT45DEG
000060: 17,2064           53425                           DXCH     OMEGAU
000061:
000062:                                                                                                  #  X - TRANSLATION:
000063:
000064:                                                                                                  #  INPUT:        BITS 7,8 OF CH31 (TRANSLATION CONTROLLER)
000065:                                                                                                  #                ULLAGER
000066:                                                                                                  #                APSFLAG, DRIFTBIT
000067:                                                                                                  #                ACC40R2X, ACRBTRAN
000068:
000069:                                                                                                  #  OUTPUT:       NEXTU, NEXTV    CODES OF TRANSLATION FOR AFTER ROTATION
000070:                                                                                                  #                SENSETYP        TELL ROTATION DIRECTION AND DESIRE
000071:
000072:                                                                                                  #  X-TRANS POLICIES ARE EITHER 4 JETS OR A DIAGONAL PAIR.  IN 2-JET TRANSLATION THE SYSTEM IS SPECIFIED.  A FAILURE
000073:                                                                                                  #  WILL OVERRIDE THIS SPECIFICATION.  AN ALARM RESULTS WHEN NO POLICY IS AVAILABLE BECAUSE OF FAILURES.
000074:
000075: 17,2065           34745        SENSEGET           CA       BIT7                                  #  INPUT BITS OVERRIDE THE INTERNAL BITS
000076: 17,2066           00006                           EXTEND                                         #  SENSETYP WILL NOT OPPOSE ANYTRANS
000077: 17,2067           02031                           RAND     CHAN31
000078: 17,2070           00006                           EXTEND
000079: 17,2071           12117                           BZF      +XORULGE


000081: 17,2072           34744                           CA       BIT8
000082: 17,2073           00006                           EXTEND
000083: 17,2074           02031                           RAND     CHAN31
000084: 17,2075           00006                           EXTEND
000085: 17,2076           12120                           BZF      -XTRANS
000086:
000087: 17,2077           34746                           CA       ULLAGER
000088: 17,2100           70111                           MASK     DAPBOOLS
000089: 17,2101           10000                           CCS      A
000090: 17,2102           12117                           TCF      +XORULGE
000091:
000092: 17,2103           55471                           TS       NEXTU                                 #  STORE NULL TRANSLATION POLICIES
000093: 17,2104           55472                           TS       NEXTV
000094: 17,2105           40111                           CS       DAPBOOLS                              #  BURNING OR DRIFTING?
000095: 17,2106           74744                           MASK     DRIFTBIT
000096: 17,2107           00006                           EXTEND
000097: 17,2110           12115                           BZF      TSENSE
000098: 17,2111           30106                           CA       FLGWRD10                              #  DPS (INCLUDING DOCKED) OR APS?
000099: 17,2112           74737                           MASK     APSFLBIT
000100: 17,2113           10000                           CCS      A
000101: 17,2114           34752                           CAF      TWO                                   #  FAVOR +X JETS DURING AN APS BURN.
000102: 17,2115           55477        TSENSE             TS       SENSETYP
000103: 17,2116           12151                           TCF      QRCONTRL
000104:
000105: 17,2117           34753        +XORULGE           CAF      ONE
000106: 17,2120           64751        -XTRANS            AD       FOUR
000107: 17,2121           55742                           TS       ROTINDEX
000108: 17,2122           67744                           AD       NEG3
000109: 17,2123           55477                           TS       SENSETYP                              #  FAVOR APPROPRIATE JETS DURING TRANS.
000110: 17,2124           30111                           CA       DAPBOOLS
000111: 17,2125           74741                           MASK     ACC4OR2X
000112: 17,2126           10000                           CCS      A
000113: 17,2127           12256                           TCF      TRANS4
000114:
000115: 17,2130           30111                           CA       DAPBOOLS
000116: 17,2131           74742                           MASK     AORBTRAN
000117: 17,2132           10000                           CCS      A
000118: 17,2133           34753                           CA       ONE                                   #  THREE FOR B
000119: 17,2134           64752                           AD       TWO                                   #  TWO FOR A SYSTEM 2 JET X TRANS
000120: 17,2135           55741        TSNUMBRT           TS       NUMBERT
000121:
000122: 17,2136           03130                           TC       SELCTSUB
000123:
000124: 17,2137           11737                           CCS      POLYTEMP
000125: 17,2140           12143                           TCF      +3
000126: 17,2141           05567                           TC       ALARM
000127: 17,2142           02002                           OCT      02002
000128: 17,2143           35765                           CA       00314OCT
000129: 17,2144           71737                           MASK     POLYTEMP
000130: 17,2145           55471        TSNEXTS            TS       NEXTU


000132: 17,2146           45765                           CS       00314OCT
000133: 17,2147           71737                           MASK     POLYTEMP
000134: 17,2150           55472                           TS       NEXTV
000135:
000136:                                                                                                  #  Q,R-AXES RCS CONTROL MODE SELECTION
000137:                                                                                                  #        SWITCHES        INDICATION WHEN SET
000138:                                                                                                  #        BIT13/CHAN31    AUTO, GO TO ATTSTEER
000139:                                                                                                  #        PULSES          MINIMUM IMPULSE MODE
000140:                                                                                                  #        (OTHERWISE)     RATE COMMAND/ATTITUDE HOLD MODE
000141:
000142: 17,2151           34737        QRCONTRL           CA       BIT13                                 #  CHECK MODE SELECT SWITCH.
000143: 17,2152           00006                           EXTEND
000144: 17,2153           02031                           RAND     CHAN31                                #  BITS INVERTED
000145: 17,2154           10000                           CCS      A
000146: 17,2155           12616                           TCF      ATTSTEER
000147: 17,2156           34735        CHKBIT10           CAF      PULSES                                #  PULSES = 1 FOR MIN IMP USE OF RHC
000148: 17,2157           70111                           MASK     DAPBOOLS
000149: 17,2160           00006                           EXTEND
000150: 17,2161           12260                           BZF      CHEKSTIK                              #  IN ATT-HOLD/RATE-COMMAND IF BIT10=0
000151:
000152:                                                                                                  #  MINIMUM IMPULSE MODE
000153:
000154: 17,2162           00004                           INHINT
000155: 17,2163           04674                           TC       IBNKCALL
000156: 17,2164           40153                           CADR     ZATTEROR
000157: 17,2165           34755                           CA       ZERO
000158: 17,2166           55446                           TS       QERROR
000159: 17,2167           55450                           TS       RERROR                                #  FOR DISPLAYS
000160: 17,2170           00003                           RELINT
000161:
000162: 17,2171           00006                           EXTEND
000163: 17,2172           00031                           READ     CHAN31
000164: 17,2173           55735                           TS       TEMP31                                #  IS EQUAL TO DAPTEMP1
000165: 17,2174           11457                           CCS      OLDQRMIN
000166: 17,2175           12217                           TCF      CHECKIN
000167:
000168: 17,2176           31735        FIREQR             CA       TEMP31
000169: 17,2177           74753                           MASK     BIT1
000170: 17,2200           00006                           EXTEND
000171: 17,2201           12223                           BZF      +QMIN
000172:
000173: 17,2202           31735                           CA       TEMP31
000174: 17,2203           74752                           MASK     BIT2
000175: 17,2204           00006                           EXTEND
000176: 17,2205           12227                           BZF      -QMIN
000177:
000178: 17,2206           31735                           CA       TEMP31
000179: 17,2207           74747                           MASK     BIT5


000181: 17,2210           00006                           EXTEND
000182: 17,2211           12233                           BZF      +RMIN
000183:
000184: 17,2212           31735                           CA       TEMP31
000185: 17,2213           74746                           MASK     BIT6
000186: 17,2214           00006                           EXTEND
000187: 17,2215           12235                           BZF      -RMIN
000188:
000189: 17,2216           13015                           TCF      XTRANS
000190:
000191: 17,2217           41735        CHECKIN            CS       TEMP31
000192: 17,2220           72255                           MASK     OCT63
000193: 17,2221           55457                           TS       OLDQRMIN
000194: 17,2222           13015                           TCF      XTRANS
000195:
000196: 17,2223           33041        +QMIN              CA       14MS
000197: 17,2224           55525                           TS       TJU
000198: 17,2225           43041                           CS       14MS
000199: 17,2226           12237                           TCF      MINQR
000200: 17,2227           43041        -QMIN              CS       14MS
000201: 17,2230           55525                           TS       TJU
000202: 17,2231           33041                           CA       14MS
000203: 17,2232           12237                           TCF      MINQR
000204: 17,2233           33041        +RMIN              CA       14MS
000205: 17,2234           12236                           TCF      +2
000206: 17,2235           43041        -RMIN              CS       14MS
000207: 17,2236           55525                           TS       TJU
000208: 17,2237           55526        MINQR              TS       TJV
000209: 17,2240           32254                           CA       MINADR
000210: 17,2241           55475                           TS       RETJADR
000211: 17,2242           34753                           CA       ONE
000212: 17,2243           55457                           TS       OLDQRMIN
000213: 17,2244           55476        MINRTN             TS       AXISCTR
000214: 17,2245           30111                           CA       DAPBOOLS
000215: 17,2246           74742                           MASK     AORBTRAN
000216: 17,2247           10000                           CCS      A
000217: 17,2250           34753                           CA       ONE
000218: 17,2251           64752                           AD       TWO
000219: 17,2252           55741                           TS       NUMBERT
000220: 17,2253           12661                           TCF      AFTERTJ
000221:
000222: 17,2254           02244        MINADR             GENADR   MINRTN
000223: 17,2255           00063        OCT63              OCT      63
000224: 17,2256  17,3041               14MS               =        +TJMINT6
000225:
000226: 17,2256           34751        TRANS4             CA       FOUR
000227: 17,2257           12135                           TCF      TSNUMBRT
000228:
000229:                                                                                                  #  RATE COMMAND MODE:


000231:                                                                                                  #  DESCRIPTION (SAME AS P-AXIS)
000232:
000233: 17,2260           55631        CHEKSTIK           TS       INGTS                                 #  NOT IN GTS WHEN IN ATT HOLD
000234: 17,2261           44753                           CS       ONE                                   #  1/ACCS WILL DO THE NULLING DRIVES
000235: 17,2262           55627                           TS       COTROLER                              #  COME BACK TO RCS NEXT TIME
000236: 17,2263           34735                           CA       BIT15
000237: 17,2264           71441                           MASK     CH31TEMP
000238: 17,2265           00006                           EXTEND
000239: 17,2266           12305                           BZF      RHCACTIV                              #  BRANCH IF OUT OF DETENT.
000240: 17,2267           34740                           CA       OURRCBIT                              #  ***********
000241: 17,2270           70111                           MASK     DAPBOOLS                              #  *IN DETENT*   CHECK FOR MANUAL CONTROL
000242: 17,2271           00006                           EXTEND                                         #  ***********   LAST TIME.
000243: 17,2272           12616                           BZF      STILLRCS
000244: 17,2273           44743                           CS       BIT9
000245: 17,2274           71273                           MASK     RCSFLAGS
000246: 17,2275           55273                           TS       RCSFLAGS                              #  BIT 9 IS 0.
000247: 17,2276           12302                           TCF      DAMPING
000248: 17,2277           00050        40CYCL             OCT      50
000249: 17,2300           00001        1/10S              OCT      1
000250: 17,2301           00056        LINRAT             DEC      46         B-14
000251:
000252:                                                                                                  #  ================================
000253:
000254: 17,2302           34755        DAMPING            CA       ZERO
000255: 17,2303           55460                           TS       SAVEHAND
000256: 17,2304           55461                           TS       SAVEHAND   +1
000257: 17,2305           11460        RHCACTIV           CCS      SAVEHAND                              #  *******************
000258: 17,2306           12311                           TCF      +3                                    #  Q,R MANUAL CONTROL    WC = A*(B+|D|)*D
000259: 17,2307           12311                           TCF      +2                                    #  *******************
000260: 17,2310           12311                           TCF      +1
000261: 17,2311           60000                           DOUBLE                                         #  WHERE
000262: 17,2312           60000                           DOUBLE
000263: 17,2313           62301                           AD       LINRAT                                #        WC  = COMMANDED ROTATIONAL RATE
000264: 17,2314           00006                           EXTEND                                         #        A   = QUADRATIC SENSITIVITY FACTOR
000265: 17,2315           71460                           MP       SAVEHAND                              #        B   = LINEAR/QUADRATIC SENSITIVITY
000266: 17,2316           30001                           CA       L                                     #        |D| = ABS. VALUE OF DEFLECTION
000267: 17,2317           00006                           EXTEND                                         #        D   = HAND CONTROLLER DEFLECTION
000268: 17,2320           71442                           MP       STIKSENS
000269: 17,2321           57453                           XCH      QLAST                                 #  COMMAND Q RATE     SCALED 45 DEG/SEC
000270: 17,2322           40000                           COM
000271: 17,2323           61453                           AD       QLAST
000272: 17,2324           55737                           TS       DAPTEMP3
000273: 17,2325           11461                           CCS      SAVEHAND   +1
000274: 17,2326           12331                           TCF      +3
000275: 17,2327           12331                           TCF      +2
000276: 17,2330           12331                           TCF      +1
000277: 17,2331           60000                           DOUBLE
000278: 17,2332           60000                           DOUBLE
000279: 17,2333           62301                           AD       LINRAT
000280: 17,2334           00006                           EXTEND
000281: 17,2335           71461                           MP       SAVEHAND   +1
000282: 17,2336           30001                           CA       L


000284: 17,2337           00006                           EXTEND
000285: 17,2340           71442                           MP       STIKSENS
000286: 17,2341           57454                           XCH      RLAST
000287: 17,2342           40000                           COM
000288: 17,2343           61454                           AD       RLAST
000289: 17,2344           55740                           TS       DAPTEMP4
000290: 17,2345           41453                           CS       QLAST                                 #  INTERVAL.
000291: 17,2346           61420                           AD       OMEGAQ
000292: 17,2347           55434                           TS       QRATEDIF
000293: 17,2350           41454                           CS       RLAST
000294: 17,2351           61421                           AD       OMEGAR
000295: 17,2352           55435                           TS       RRATEDIF
000296: 17,2353           53435        ENTERQR            DXCH     QRATEDIF                              #  TRANSFORM RATES FROM Q,R TO U,V AXES
000297: 17,2354           03100                           TC       ROT45DEG
000298: 17,2355           53425                           DXCH     URATEDIF
000299: 17,2356           11737                           CCS      DAPTEMP3                              #  CHECK IF Q COMMAND CHANGE EXCEEDS
000300: 17,2357           02362                           TC       +3                                    #  BREAKOUT LEVEL.  IF NOT, CHECK R.
000301: 17,2360           02362                           TC       +2
000302: 17,2361           02362                           TC       +1
000303: 17,2362           61474                           AD       -RATEDB
000304: 17,2363           00006                           EXTEND
000305: 17,2364           62366                           BZMF     +2
000306: 17,2365           12404                           TCF      ENTERUV    -2                         #  BREAKOUT LEVEL EXCEEDED.  DIRECT RATE.
000307: 17,2366           11740                           CCS      DAPTEMP4                              #  R COMMAND BREAKOUT CHECK.
000308: 17,2367           02372                           TC       +3
000309: 17,2370           02372                           TC       +2
000310: 17,2371           02372                           TC       +1
000311: 17,2372           61474                           AD       -RATEDB
000312: 17,2373           00006                           EXTEND
000313: 17,2374           62376                           BZMF     +2
000314: 17,2375           12404                           TCF      ENTERUV    -2                         #  BREAKOUT LEVEL EXCEEDED.  DIRECT RATE.
000315: 17,2376           31273                           CA       RCSFLAGS                              #  BREAKOUT LEVEL NOT EXCEEDED.  CHECK FOR
000316: 17,2377           74741                           MASK     QRBIT                                 #  DIRECT RATE CONTROL LAST TIME.
000317: 17,2400           00006                           EXTEND
000318: 17,2401           12403                           BZF      +2
000319: 17,2402           12406                           TCF      ENTERUV                               #  CONTINUE DIRECT RATE CONTROL.
000320: 17,2403           12616                           TCF      STILLRCS                              #  PSEUDO-AUTO CONTROL.
000321: 17,2404           32277                           CA       40CYCL
000322: 17,2405           55455                           TS       TCQR
000323: 17,2406           00004        ENTERUV            INHINT                                         #  DIRECT RATE CONTROL.
000324: 17,2407           04674                           TC       IBNKCALL
000325: 17,2410           40153                           FCADR    ZATTEROR
000326: 17,2411           00003                           RELINT
000327: 17,2412           34755                           CA       ZERO
000328: 17,2413           55446                           TS       DYERROR
000329: 17,2414           55447                           TS       DYERROR    +1
000330: 17,2415           55450                           TS       DZERROR
000331: 17,2416           55451                           TS       DZERROR    +1
000332: 17,2417           11424                           CCS      URATEDIF
000333: 17,2420           12423                           TCF      +3


000335: 17,2421           12423                           TCF      +2
000336: 17,2422           12423                           TCF      +1
000337: 17,2423           61474                           AD       TARGETDB                              #  IF TARGET DB IS EXCEEDED, CONTINUE
000338: 17,2424           00006                           EXTEND                                         #  DIRECT RATE CONTROL.
000339: 17,2425           62441                           BZMF     VDB
000340: 17,2426           11425                           CCS      VRATEDIF
000341: 17,2427           12432                           TCF      +3
000342: 17,2430           12432                           TCF      +2
000343: 17,2431           12432                           TCF      +1
000344: 17,2432           61474                           AD       TARGETDB
000345: 17,2433           00006                           EXTEND
000346: 17,2434           62436                           BZMF     +2
000347: 17,2435           12452                           TCF      QRTIME
000348: 17,2436           34755                           CA       ZERO
000349: 17,2437           55425                           TS       VRATEDIF
000350: 17,2440           12452                           TCF      QRTIME
000351: 17,2441           11425        VDB                CCS      VRATEDIF
000352: 17,2442           02445                           TC       +3
000353: 17,2443           02445                           TC       +2
000354: 17,2444           02445                           TC       +1
000355: 17,2445           61474                           AD       TARGETDB                              #  IF TARGET DB IS EXCEEDED, CONTINUE
000356: 17,2446           00006                           EXTEND                                         #  DIRECT RATE CONTROL.  IF NOT, FIRE AND
000357: 17,2447           62461                           BZMF     TOPSEUDO                              #  SWITCH TO PSEUDO-AUTO CONTROL ON NEXT
000358: 17,2450           34755                           CA       ZERO                                  #  PASS.
000359: 17,2451           55424                           TS       URATEDIF
000360: 17,2452           31455        QRTIME             CA       TCQR                                  #  DIRECT RATE TIME CHECK.
000361: 17,2453           00006                           EXTEND
000362: 17,2454           62461                           BZMF     +5                                    #  BRANCH IF TIME EXCEEDS 4 SEC.
000363: 17,2455           41273                           CS       RCSFLAGS
000364: 17,2456           74741                           MASK     QRBIT
000365: 17,2457           27273                           ADS      RCSFLAGS                              #  BIT 11 IS 1.
000366: 17,2460           02464                           TC       +4
000367: 17,2461           44741        TOPSEUDO           CS       QRBIT
000368: 17,2462           71273                           MASK     RCSFLAGS
000369: 17,2463           55273                           TS       RCSFLAGS                              #  BIT 11 IS 0.
000370: 17,2464           32530                           CA       HANDADR
000371: 17,2465           55475                           TS       RETJADR
000372: 17,2466           34753                           CA       ONE
000373: 17,2467           55476        BACKHAND           TS       AXISCTR
000374:
000375: 17,2470           34751                           CA       FOUR
000376: 17,2471           55741                           TS       NUMBERT
000377:
000378: 17,2472           51476                           INDEX    AXISCTR
000379: 17,2473           51535                           INDEX    SKIPU
000380: 17,2474           12475                           TCF      +1
000381: 17,2475           34751                           CA       FOUR
000382: 17,2476           51476                           INDEX    AXISCTR
000383: 17,2477           55535                           TS       SKIPU
000384: 17,2500           12737                           TCF      LOOPER


000386: 17,2501           51476                           INDEX    AXISCTR
000387: 17,2502           11424                           CCS      URATEDIF                              #        INDEX   AXIS    QUANITY
000388: 17,2503           34755                           CA       ZERO                                  #        0       -U      1/JETACC-AOSU
000389: 17,2504           12506                           TCF      +2                                    #        1       +U      1/JETACC+AOSU
000390: 17,2505           34753                           CA       ONE                                   #        16      -V      1/JETACC-AOSV
000391: 17,2506           51476                           INDEX    AXISCTR                               #        17      +V      1/JETACC+AOSV
000392: 17,2507           63657                           AD       AXISDIFF                              #  JETACC = 2 JET ACCELERATION (1 FOR FAIL)
000393:
000394: 17,2510           50000                           INDEX    A
000395: 17,2511           41571                           CS       1/ANET2    +1
000396: 17,2512           00006                           EXTEND
000397: 17,2513           51476                           INDEX    AXISCTR                               #  URATEDIF IS SCALED AT PI/4 RAD/SEC
000398: 17,2514           71424                           MP       URATEDIF                              #   JET TIME IN A      SCALED 32 SEC
000399: 17,2515           54002                           TS       Q
000400: 17,2516           20001                           DAS      A
000401: 17,2517           60002                           AD       Q
000402: 17,2520           54000                           TS       A                                     #   OVERFLOW SKIP
000403: 17,2521           12523                           TCF      +2
000404: 17,2522           30002                           CA       Q                                     #  RIGHT SIGN AND BIGGER THAN 150MS
000405: 17,2523           51476        SETTIME            INDEX    AXISCTR
000406: 17,2524           55525                           TS       TJU                                   #  SCALED AT 10.67 WHICH IS CLOSE TO 10.24
000407: 17,2525           12661                           TCF      AFTERTJ
000408:
000409: 17,2526           34755        ZEROTJ             CA       ZERO
000410: 17,2527           12523                           TCF      SETTIME
000411:
000412: 17,2530           02467        HANDADR            GENADR   BACKHAND
000413:
000414:                                                                                                  #  GTS WILL BE TRIED IF
000415:                                                                                                  #        1. USEQRJTS= 0,
000416:                                                                                                  #        2. ALLOWGTS POS,
000417:                                                                                                  #        3. JETS ARE OFF (Q,R-AXES)
000418:
000419: 17,2531           34736        TRYGTS             CAF      USEQRJTS                              #  IS JET USE MANDATORY.         (AS LONG AS
000420: 17,2532           70111                           MASK     DAPBOOLS                              #  USEQRJTS BIT IS NOT BIT 15, CCS IS SAFE)
000421: 17,2533           10000                           CCS      A
000422: 17,2534           12060                           TCF      RCS
000423: 17,2535           11501                           CCS      ALLOWGTS                              #  NO.  DOES AOSTASK OK CONTROL FOR GTS?
000424: 17,2536           12540                           TCF      +2
000425: 17,2537           12060                           TCF      RCS
000426: 17,2540           00006                           EXTEND
000427: 17,2541           00005                           READ     CHAN5
000428: 17,2542           10000                           CCS      A
000429: 17,2543           12547                           TCF      CHKINGTS
000430: 17,2544           00006        GOTOGTS            EXTEND
000431: 17,2545           32562                           DCA      GTSCADR
000432: 17,2546           52006                           DTCB
000433:
000434: 17,2547           11631        CHKINGTS           CCS      INGTS                                 #  WAS THE TRIM GIMBAL CONTROLLING
000435: 17,2550           12552                           TCF      +2                                    #        YES.  SET UP A DAMPED NULLING DRIVE.
000436: 17,2551           12060                           TCF      RCS                                   #        NO.  NULLING WAS SET UP BEFORE.  DO RCS


000438: 17,2552           00004                           INHINT
000439: 17,2553           04674                           TC       IBNKCALL
000440: 17,2554           43450                           CADR     TIMEGMBL
000441: 17,2555           00003                           RELINT
000442: 17,2556           34755                           CAF      ZERO
000443: 17,2557           55631                           TS       INGTS
000444: 17,2560           12060                           TCF      RCS
000445:
000446: 17,2561  E6,1633                                  EBANK=   CDUXD
000447: 17,2561           03263 42106  GTSCADR            2CADR    GTS
000448:


000450:                                                                                                  #  SUBROUTINE TO COMPUTE Q,R-AXES ATTITUDE ERRORS FOR USE IN THE RCS AND GTS CONTROL LAWS AND THE DISPLAYS.
000451:
000452: 17,2563           30033        QERRCALC           CAE      CDUY                                  #  Q-ERROR CALCULATION
000453: 17,2564           00006                           EXTEND
000454: 17,2565           21634                           MSU      CDUYD                                 #  CDU ANGLE - ANGLE DESIRED (Y-AXIS)
000455: 17,2566           55735                           TS       DAPTEMP1                              #  SAVE FOR RERRCALC
000456: 17,2567           00006                           EXTEND
000457: 17,2570           71413                           MP       M21                                   #  (CDUY-CDUYD)*M21 SCALED AT PI RADIANS
000458: 17,2571           55750                           TS       E
000459: 17,2572           30034                           CAE      CDUZ                                  #  SECOND TERM CALCULATION:
000460: 17,2573           00006                           EXTEND
000461: 17,2574           21635                           MSU      CDUZD                                 #  CDU ANGLE -ANGLE DESIRED (Z-AXIS)
000462: 17,2575           55736                           TS       DAPTEMP2                              #  SAVE FOR RERRCALC
000463: 17,2576           00006                           EXTEND
000464: 17,2577           71415                           MP       M22                                   #  (CDUZ-CDUZD)*M22 SCALED AT PI RADIANS
000465: 17,2600           61300                           AD       DELQEROR                              #  KALCMANU INERFACE ERROR
000466: 17,2601           61750                           AD       E
000467: 17,2602           57446                           XCH      QERROR                                #  SAVE Q-ERROR FOR EIGHT-BALL DISPLAY.
000468:
000469: 17,2603           31735        RERRCALC           CAE      DAPTEMP1                              #  R-ERROR CALCULATION:
000470: 17,2604           00006                           EXTEND                                         #  CDU ANGLE -ANGLE DESIRED (Y-AXIS)
000471: 17,2605           71414                           MP       M31                                   #  (CDUY-CDUYD)*M31 SCALED AT PI RADIANS
000472: 17,2606           55750                           TS       E
000473: 17,2607           31736                           CAE      DAPTEMP2                              #  SECOND TERM CALCULATION:
000474: 17,2610           00006                           EXTEND                                         #  CDU ANGLE -ANGLE DESIRED (Z-AXIS)
000475: 17,2611           71416                           MP       M32                                   #  (CDUZ-CDUZD)*M32 SCALED AT PI RADIANS
000476: 17,2612           61301                           AD       DELREROR                              #  KALCMANU INERFACE ERROR
000477: 17,2613           61750                           AD       E
000478: 17,2614           57450                           XCH      RERROR                                #  SAVE R-ERROR FOR EIGHT-BALL DISPLAY.
000479: 17,2615           00002                           TC       Q
000480:


000482:                                                                                                  #  "ATTSTEER" IS THE ENTRY POINT FOR Q,R-AXES (U,V-AXES) ATTITUDE CONTROL USING THE REACTION CONTROL SYSTEM
000483:
000484: 17,2616  17,2616               ATTSTEER           EQUALS   STILLRCS                              #  "STILLRCS" IS THE RCS EXIT FROM TRYGTS.
000485:
000486: 17,2616           31450        STILLRCS           CA       RERROR
000487: 17,2617           22000                           LXCH     A
000488: 17,2620           31446                           CA       QERROR
000489: 17,2621           03100                           TC       ROT45DEG
000490: 17,2622           53750                           DXCH     UERROR
000491:
000492:                                                                                                  #  PREPARES CALL TO TJETLAW (OR SPSRCS(DOCKED))
000493:                                                                                                  #  PREFORMS SKIP LOGIC ON U OR Y AXIS IF NEEDED.
000494:
000495: 17,2623           33045        TJLAW              CA       TJLAWADR
000496: 17,2624           55475                           TS       RETJADR
000497: 17,2625           34753                           CA       ONE
000498: 17,2626           55476                           TS       AXISCTR
000499: 17,2627           51476                           INDEX    AXISCTR
000500: 17,2630           51535                           INDEX    SKIPU
000501: 17,2631           12632                           TCF      +1
000502: 17,2632           34751                           CA       FOUR
000503: 17,2633           51476                           INDEX    AXISCTR
000504: 17,2634           55535                           TS       SKIPU
000505: 17,2635           12737                           TCF      LOOPER
000506: 17,2636           51476                           INDEX    AXISCTR
000507: 17,2637           31747                           CA       UERROR
000508: 17,2640           55750                           TS       E
000509: 17,2641           51476                           INDEX    AXISCTR
000510: 17,2642           31424                           CA       OMEGAU
000511: 17,2643           55425                           TS       EDOT
000512: 17,2644           30111                           CA       DAPBOOLS
000513: 17,2645           74737                           MASK     CSMDOCKD
000514: 17,2646           10000                           CCS      A
000515: 17,2647           12652                           TCF      +3
000516: 17,2650           03207                           TC       TJETLAW
000517: 17,2651           12661                           TCF      AFTERTJ
000518: 17,2652           40111                 +3        CS       DAPBOOLS                              #  DOCKED.  IF GIMBAL USABLE DO GTS CONTROL
000519: 17,2653           74736                           MASK     USEQRJTS                              #   ON THE NEXT PASS.
000520: 17,2654           10000                           CCS      A                                     #  USEQRJTS BIT MUST NOT BE BIT 15.
000521: 17,2655           55627                           TS       COTROLER                              #  GIMBAL USABLE.  STORE POSITIVE VALUE.
000522: 17,2656           03700                           TC       SPSRCS                                #  DETERMINE RCS CONTROL.
000523: 17,2657           34751                           CAF      FOUR                                  #  ALWAYS CALL FOR 2-JET CONTROL ABOUT U,V.
000524: 17,2660           55741                           TS       NUMBERT                               #  FALL THROUGH TO JET SELECTION, ETC.
000525:
000526:                                                                                                  #  Q,R-JET-SELECTION-LOGIC
000527:
000528:                                                                                                  #  INPUT:        AXISCTR         0,1 FOR U,V
000529:                                                                                                  #                SNUFFBIT        ZERO TJETU,V AND TRANS. ONLY IF SET IN A DPS BURN
000530:                                                                                                  #                TJU,TJV         JET TIME SCALED 10.24 SEC.
000531:                                                                                                  #                NUMBERT         INDICATES NUMBER OF JETS AND TYPE OF POLICY
000532:                                                                                                  #                RETJADR         WHERE TO RETURN TO


000534:                                                                                                  #  OUTPUT:       NO.U(V)JETS     RATE DERIVATION FEEDBACK
000535:                                                                                                  #                CHANNEL 5
000536:                                                                                                  #                SKIPU,SKIRV     FOR LESS THAN 150MS FIRING
000537:
000538:                                                                                                  #  NOTES:        IN CASE OF FAILURE IN DESIRED ROTATION POLICY, "ALL" UNFAILED
000539:                                                                                                  #                JETS OF THE DESIRED POLICY ARE SELECTED. SINCE THERE ARE ONLY
000540:                                                                                                  #                TWO JETS, THIS MEANS THE OTHER ONE OR NONE. THE ALARM IS SENT
000541:                                                                                                  #                IF NONE CAN BE FOUND.
000542:
000543:                                                                                                  #                TIMES LESS THAN 14 MSEC ARE TAKEN TO CALL FOR A SINGLE-JET
000544:                                                                                                  #                MINIMUM IMPULSE, WITH THE JET CHOSEN SEMI-RANDOMLY.
000545:
000546: 17,2661           30101        AFTERTJ            CA       FLAGWRD5                              #  IF SNUFFBIT SET DURING A DPS BURN GO TO
000547: 17,2662           74737                           MASK     SNUFFBIT                              #   XTRANS; THAT IS, INHIBIT CONTROL.
000548: 17,2663           00006                           EXTEND
000549: 17,2664           12675                           BZF      DOROTAT
000550: 17,2665           40106                           CS       FLGWRD10
000551: 17,2666           74737                           MASK     APSFLBIT
000552: 17,2667           00006                           EXTEND
000553: 17,2670           12675                           BZF      DOROTAT
000554: 17,2671           30111                           CA       DAPBOOLS
000555: 17,2672           74744                           MASK     DRIFTBIT
000556: 17,2673           00006                           EXTEND
000557: 17,2674           13015                           BZF      XTRANS
000558:
000559: 17,2675           34752        DOROTAT            CAF      TWO
000560: 17,2676           54001                           TS       L
000561: 17,2677           51476                           INDEX    AXISCTR
000562: 17,2700           11525                           CCS      TJU
000563: 17,2701           12706                           TCF      +5
000564: 17,2702           12731                           TCF      NOROTAT
000565: 17,2703           12705                           TCF      +2
000566: 17,2704           12731                           TCF      NOROTAT
000567: 17,2705           22007                           ZL
000568: 17,2706           64753                           AD       ONE
000569: 17,2707           55735                           TS       ABSTJ
000570:
000571: 17,2710           31476                           CA       AXISCTR
000572: 17,2711           60001                           AD       L
000573: 17,2712           55742                           TS       ROTINDEX                              #  0 1 2 3 = -U -V -+U +V
000574:
000575: 17,2713           31735                           CA       ABSTJ
000576: 17,2714           63042                           AD       -150MS
000577: 17,2715           00006                           EXTEND
000578: 17,2716           62742                           BZMF     DOSKIP
000579:
000580: 17,2717           03130                           TC       SELCTSUB
000581:
000582: 17,2720           51476                           INDEX    AXISCTR
000583: 17,2721           33037                           CA       INDEXES


000585: 17,2722           54001                           TS       L
000586:
000587: 17,2723           31737                           CA       POLYTEMP
000588: 17,2724           00004                           INHINT
000589: 17,2725           50001                           INDEX    L
000590: 17,2726           05745                           TC       WRITEP
000591:
000592: 17,2727           00003                           RELINT
000593: 17,2730           13003                           TCF      FEEDBACK
000594:
000595: 17,2731           51476        NOROTAT            INDEX    AXISCTR
000596: 17,2732           33037                           CA       INDEXES
000597: 17,2733           00004                           INHINT
000598: 17,2734           50000                           INDEX    A
000599: 17,2735           05744                           TC       WRITEP     -1
000600:
000601: 17,2736           00003                           RELINT
000602: 17,2737           11476        LOOPER             CCS      AXISCTR
000603: 17,2740           01475                           TC       RETJADR
000604: 17,2741           13173                           TCF      CLOSEOUT
000605: 17,2742           41735        DOSKIP             CS       ABSTJ
000606: 17,2743           63041                           AD       +TJMINT6                              #  14MS
000607: 17,2744           00006                           EXTEND
000608: 17,2745           62764                           BZMF     NOTMIN
000609:
000610: 17,2746           27735                           ADS      ABSTJ
000611: 17,2747           51476                           INDEX    AXISCTR
000612: 17,2750           11525                           CCS      TJU
000613: 17,2751           33041                           CA       +TJMINT6
000614: 17,2752           12754                           TCF      +2
000615: 17,2753           43041                           CS       +TJMINT6
000616: 17,2754           51476                           INDEX    AXISCTR
000617: 17,2755           55525                           TS       TJU
000618:
000619: 17,2756           11477                           CCS      SENSETYP                              #  ENSURE MIN-IMPULSE NOT AGAINST TRANS
000620: 17,2757           12763                           TCF      NOTMIN     -1
000621: 17,2760           00006                           EXTEND
000622: 17,2761           00004                           READ     LOSCALAR
000623: 17,2762           74753                           MASK     ONE
000624: 17,2763           55741                           TS       NUMBERT
000625:
000626: 17,2764           03130        NOTMIN             TC       SELCTSUB
000627:
000628: 17,2765           51476                           INDEX    AXISCTR
000629: 17,2766           33037                           CA       INDEXES
000630: 17,2767           00004                           INHINT
000631: 17,2770           55467                           TS       T6FURTHA   +1
000632: 17,2771           31737                           CA       POLYTEMP
000633: 17,2772           51467                           INDEX    T6FURTHA   +1
000634: 17,2773           05745                           TC       WRITEP


000636: 17,2774           31735                           CA       ABSTJ
000637: 17,2775           55466                           TS       T6FURTHA
000638: 17,2776           03046                           TC       JTLST                                 #  IN QR BANK BY NOW
000639:
000640: 17,2777           00003                           RELINT
000641:
000642: 17,3000           34755                           CA       ZERO
000643: 17,3001           51476                           INDEX    AXISCTR
000644: 17,3002           55535                           TS       SKIPU
000645:
000646: 17,3003           46244        FEEDBACK           CS       THREE
000647: 17,3004           61741                           AD       NUMBERT
000648: 17,3005           00006                           EXTEND
000649: 17,3006           63011                           BZMF     +3
000650:
000651: 17,3007           34752                           CA       TWO
000652: 17,3010           13012                           TCF      +2
000653: 17,3011           34753                           CA       ONE
000654: 17,3012           51476                           INDEX    AXISCTR
000655: 17,3013           55522                           TS       NO.UJETS
000656: 17,3014           12737                           TCF      LOOPER
000657:
000658: 17,3015           34755        XTRANS             CA       ZERO
000659: 17,3016           55525                           TS       TJU
000660: 17,3017           55526                           TS       TJV
000661: 17,3020           34751                           CA       FOUR
000662: 17,3021           00004                           INHINT
000663: 17,3022           57535                           XCH      SKIPU
000664: 17,3023           00006                           EXTEND
000665: 17,3024           13026                           BZF      +2
000666: 17,3025           05750                           TC       WRITEU     -1
000667: 17,3026           34751                           CA       FOUR
000668: 17,3027           57536                           XCH      SKIPV
000669: 17,3030           00003                           RELINT
000670:
000671: 17,3031           00006                           EXTEND
000672: 17,3032           13173                           BZF      CLOSEOUT
000673: 17,3033           00004                           INHINT
000674: 17,3034           05761                           TC       WRITEV     -1
000675: 17,3035           00003                           RELINT
000676:
000677: 17,3036           13173                           TCF      CLOSEOUT
000678: 17,3037           00004        INDEXES            DEC      4          B-14
000679: 17,3040           00015                           DEC      13         B-14
000680: 17,3041           00026        +TJMINT6           DEC      22         B-14
000681: 17,3042           77417        -150MS             DEC      -240       B-14
000682: 17,3043           00600        BIT8,9             OCT      00600
000683: 17,3044           00266        SCLNORM            OCT      266
000684: 17,3045           02626        TJLAWADR           GENADR   TJLAW      +3                         #  RETURN ADDRESS FOR RCS ATTITUDE CONTROL
000685:


000687:                                                                                                  #  THE JET LIST:
000688:                                                                                                  #  THIS IS A WAITLIST FOR T6RUPTS.
000689:
000690:                                                                                                  #  CALLED BY:
000691:                                                                                                  #                CA      TJ              TIME WHEN NEXT JETS WILL BE WRITTEN
000692:                                                                                                  #                TS      T6FURTHA
000693:                                                                                                  #                CA      INDEX           AXIS TO BE WIRTTEN AT TJ (FROM NOW)
000694:                                                                                                  #                TS      T6FURTHA +1
000695:                                                                                                  #                TC      JTLST
000696:
000697:                                                                                                  #  EXAMPLE - U-AXIS AUTOPILOT WILL WRITE ITS ROTATION CODE OF
000698:                                                                                                  #  JETS INTO CHANNEL 5.  IF IT DESIRES TO TURN OFF THIS POLICY WITHIN
000699:                                                                                                  #  150MS AND THEN FIRE NEXTU, A CALL TO JTLST IS MADE WITH T6FURTHA
000700:                                                                                                  #  CONTAINING THE TIME TO TURN OFF THE POLICY, T6FURTHA +1 THE INDEX
000701:                                                                                                  #  OF THE U-AXIS(4), AND NEXTU WILL CONTAIN THE "U-TRANS" POLICY OR ZERO.
000702:
000703:                                                                                                  #  THE LIST IS EXACTLY 3 LONG.  (THIS LEADS TO SKIP LOGIC AND 150MS LIMIT)
000704:                                                                                                  #  THE INPUT IS THE LAST MEMBER OF THE LIST
000705:
000706:                                                                                                  #  RETURNS BY:
000707:                                                                                                  #        +       TC      Q
000708:
000709:                                                                                                  #  DEFINITIONS:  (OUTPUT)
000710:                                                                                                  #        TIME6           TIME OF NEXT RUPT
000711:                                                                                                  #        T6NEXT          DELTA TIME TO NEXT RUPT
000712:                                                                                                  #        T6FURTHA        DELTA TIME FROM 2ND TO LAST RUPT
000713:                                                                                                  #        NXT6ADR         AXIS INDEX       Q - P-AXIS
000714:                                                                                                  #        T6NEXT +1       AXIS INDEX       4 - U-AXIS
000715:                                                                                                  #        T6FURTHA +1     AXIS INDEX      13 - V-AXIS
000716:
000717: 17,3046           41466        JTLST              CS       T6FURTHA
000718: 17,3047           60031                           AD       TIME6
000719: 17,3050           00006                           EXTEND
000720: 17,3051           63063                           BZMF     MIDORLST                              #  TIME6 - T IS IN A
000721:
000722: 17,3052           23463                           LXCH     NXT6ADR
000723: 17,3053           53465                           DXCH     T6NEXT
000724: 17,3054           53467                           DXCH     T6FURTHA
000725: 17,3055           54031                           TS       TIME6
000726: 17,3056           23463                           LXCH     NXT6ADR
000727:
000728: 17,3057           34735        TURNON             CA       BIT15
000729: 17,3060           00006                           EXTEND
000730: 17,3061           05013                           WOR      CHAN13
000731: 17,3062           00002                           TC       Q
000732:
000733: 17,3063           61464        MIDORLST           AD       T6NEXT
000734: 17,3064           00006                           EXTEND
000735: 17,3065           63074                           BZMF     LASTCHG                               #  TIME6 + T6NEXT - T IS IN A
000736:
000737: 17,3066           23465                           LXCH     T6NEXT     +1


000739: 17,3067           53467                           DXCH     T6FURTHA
000740: 17,3070           00006                           EXTEND
000741: 17,3071           60031                           SU       TIME6
000742: 17,3072           53465                           DXCH     T6NEXT
000743:
000744: 17,3073           00002                           TC       Q
000745:
000746: 17,3074           40000        LASTCHG            CS       A
000747: 17,3075           64754                           AD       NEG0
000748: 17,3076           55466                           TS       T6FURTHA
000749:
000750: 17,3077           00002                           TC       Q
000751:
000752: 17,3100           55735        ROT45DEG           TS       ROTEMP1
000753: 17,3101           60001                           AD       L
000754: 17,3102           55736                           TS       ROTEMP2
000755: 17,3103           13111                           TCF      +6
000756: 17,3104           10000                           CCS      A
000757: 17,3105           34733                           CA       POSMAX
000758: 17,3106           13110                           TCF      +2
000759: 17,3107           34735                           CA       NEGMAX
000760: 17,3110           55736                           TS       ROTEMP2                               #  Q+R
000761: 17,3111           41735                           CS       ROTEMP1
000762: 17,3112           60001                           AD       L
000763: 17,3113           55735                           TS       ROTEMP1                               #  R-Q
000764: 17,3114           13120                           TCF      +4
000765: 17,3115           00006                           EXTEND
000766: 17,3116           74733                           MP       POSMAX
000767: 17,3117           30001                           CA       L
000768: 17,3120           00006                           EXTEND
000769: 17,3121           73127                           MP       .707
000770: 17,3122           57736                           XCH      ROTEMP2
000771: 17,3123           00006                           EXTEND
000772: 17,3124           73127                           MP       .707
000773: 17,3125           23736                           LXCH     ROTEMP2
000774: 17,3126           00002                           TC       Q
000775:
000776: 17,3127           26501        .707               DEC      .70711
000777:
000778: 17,3130           51742        SELCTSUB           INDEX    ROTINDEX
000779: 17,3131           33162                           CA       ALLJETS
000780: 17,3132           51741                           INDEX    NUMBERT
000781: 17,3133           73166                           MASK     TYPEPOLY
000782: 17,3134           55737                           TS       POLYTEMP
000783:
000784: 17,3135           71262                           MASK     CH5MASK
000785: 17,3136           10000                           CCS      A
000786: 17,3137           13141                           TCF      +2


000788: 17,3140           00002                           TC       Q
000789:
000790: 17,3141           36244                           CA       THREE
000791: 17,3142           55741        FAILOOP            TS       NUMBERT
000792: 17,3143           51742                           INDEX    ROTINDEX
000793: 17,3144           33162                           CA       ALLJETS
000794: 17,3145           51741                           INDEX    NUMBERT
000795: 17,3146           73166                           MASK     TYPEPOLY
000796: 17,3147           55737                           TS       POLYTEMP
000797: 17,3150           71262                           MASK     CH5MASK
000798: 17,3151           00006                           EXTEND
000799: 17,3152           13140                           BZF      FAILOOP    -2
000800: 17,3153           11741                           CCS      NUMBERT
000801: 17,3154           13142                           TCF      FAILOOP
000802: 17,3155           51476                           INDEX    AXISCTR
000803: 17,3156           55525                           TS       TJU
000804: 17,3157           05567                           TC       ALARM
000805: 17,3160           02004                           OCT      02004
000806: 17,3161           12731                           TCF      NOROTAT
000807: 17,3162           00110        ALLJETS            OCT      00110                                 #        -U      6 13
000808: 17,3163           00022                           OCT      00022                                 #        -V      2 9
000809: 17,3164           00204                           OCT      00204                                 #        +U      5 14
000810: 17,3165           00041                           OCT      00041                                 #        +V      1 10
000811: 17,3166           00125        TYPEPOLY           OCT      00125                                 #        -X      1 5 9 13
000812: 17,3167           00252                           OCT      00252                                 #        +X      2 6 10 14
000813: 17,3170           00146                           OCT      00146                                 #        A       2 5 10 13
000814: 17,3171           00231                           OCT      00231                                 #        B       1 6 9 14
000815: 17,3172           00377                           OCT      00377                                 #        ALL     1 2 5 6 9 10 13 14
000816:
000817:                                                                                                  #  THE FOLLOWING SETS THE INTERRUPT FLIP-FLOP AS SOON AS POSSIBLE, WHICH PERMITS A RETURN TO THE INTERRUPTED JOB.
000818:
000819: 17,3173           33175        CLOSEOUT           CA       ADRRUPT
000820: 17,3174           07753                           TC       MAKERUPT
000821:
000822: 17,3175           03176        ADRRUPT            ADRES    ENDJASK
000823:
000824: 17,3176           53752        ENDJASK            DXCH     DAPARUPT
000825: 17,3177           52011                           DXCH     ARUPT
000826: 17,3200           53754                           DXCH     DAPBQRPT
000827: 17,3201           56017                           XCH      BRUPT
000828: 17,3202           22002                           LXCH     Q
000829: 17,3203           34735                           CAF      NEGMAX                                #  NEGATIVE DAPZRUPT SIGNALS JASK IS OVER.
000830: 17,3204           53756                           DXCH     DAPZRUPT
000831: 17,3205           52016                           DXCH     ZRUPT
000832: 17,3206           15272                           TCF      NOQRSM
000833:    7753                                           BLOCK    3
000834:    6000                                           SETLOC   FFTAG6
000835:    6000                                           BANK


000837:    7753                                           COUNT*   $$/DAP
000838:
000839:    7753           00006        MAKERUPT           EXTEND
000840:    7754           07753                           EDRUPT   MAKERUPT
000841:

End of include-file Q,R-AXES_RCS_AUTOPILOT.agc.  Parent file is MAIN.agc


