
Source Code


000002:                                                                                                  ## Copyright:   Public domain.
000003:                                                                                                  ## Filename:    R60,R62.agc
000004:                                                                                                  ## Purpose:     The main source file for Luminary revision 069.
000005:                                                                                                  ##              It is part of the source code for the original release
000006:                                                                                                  ##              of the flight software for the Lunar Module's (LM) Apollo
000007:                                                                                                  ##              Guidance Computer (AGC) for Apollo 10. The actual flown
000008:                                                                                                  ##              version was Luminary 69 revision 2, which included a
000009:                                                                                                  ##              newer lunar gravity model and only affected module 2.
000010:                                                                                                  ##              This file is intended to be a faithful transcription, except
000011:                                                                                                  ##              that the code format has been changed to conform to the
000012:                                                                                                  ##              requirements of the yaYUL assembler rather than the
000013:                                                                                                  ##              original YUL assembler.
000014:                                                                                                  ## Reference:   pp. 485-497
000015:                                                                                                  ## Assembler:   yaYUL
000016:                                                                                                  ## Contact:     Ron Burkey <info@sandroid.org>.
000017:                                                                                                  ## Website:     www.ibiblio.org/apollo/index.html
000018:                                                                                                  ## Mod history: 2016-12-13 MAS  Created from Luminary 99.
000019:                                                                                                  ##              2016-12-14 MAS  Updated from comment-proofed Luminary 99 version.
000020:                                                                                                  ##              2017-01-20 RRB  Updated for Luminary 69.
000021:                                                                                                  ##              2017-01-27 RSB  Proofed comment text using octopus/prooferComments
000022:                                                                                                  ##                              and fixed errors found.
000023:


000025:                                                                                                  #  MOD NO: 0                             DATE: 1 MAY 1968
000026:                                                                                                  #  MOD BY: DIGITAL DEVEL GROUP           LOG SECTION R60,R62
000027:
000028:                                                                                                  #  FUNCTIONAL DESCRIPTION:
000029:
000030:                                                                                                  #  CALLED AS A GENERAL SUBROUTINE TO MANEUVER THE LM TO A SPECIFIED
000031:                                                                                                  #  ATTITUDE.
000032:
000033:                                                                                                  #  1. IF THE 3-AXIS FLAG IS NOT SET THE FINAL CDU ANGLES ARE
000034:                                                                                                  #  CALCULATED (VECPOINT).
000035:
000036:                                                                                                  #  2. THE FDAI BALL ANGLES (NOUN 18) ARE CALCULATED (BALLANGS).
000037:
000038:                                                                                                  #  3. REQUEST FLASHING DISPLAY V50 N18 PLEASE PERFORM AUTO MANEUVER.
000039:
000040:                                                                                                  #  4. IF PRIORITY DISPLAY FLAG IS SET DO A PHASECHANGE. THEN AWAIT
000041:                                                                                                  #  ASTRONAUT RESPONSE.
000042:
000043:                                                                                                  #  5. DISPLAY RESPONSE RETURNS:
000044:
000045:                                                                                                  #        A.      ENTER - RESET 3-AXIS FLAG AND RETURN TO CLIENT.
000046:
000047:                                                                                                  #        B.      TERMINATE - IF IN P00 GO TO STEP 5A. OTHERWISE CHECK IF R61 IS
000048:                                                                                                  #                THE CALLING PROGRAM. IF IN R61 AN EXIT IS MADE TO GOTOV56.  IF
000049:                                                                                                  #                NOT IN R61 AN EXIT IS DONE VIA GOTOPOOH.
000050:
000051:                                                                                                  #        C.      PROCEED - CONTINUE WITH PROGRAM AT STEP 6.
000052:
000053:                                                                                                  #  6. IF THE 3-AXISFLAG IS NOT SET, THE FINAL CDU ANGLES ARE CALCULATED
000054:                                                                                                  #  (VECPOINT).
000055:
000056:                                                                                                  #  7. THE FDAI BALL ANGLES (NOUN 18) ARE CALCULATED (BALLANGS).
000057:
000058:                                                                                                  #  8. IF THE G+N SWITCH IS NOT SET GO BACK TO STEP 3.
000059:                                                                                                  #
000060:                                                                                                  #  9. IF THE AUTO SWITCH IS NOT SET GO BACK TO STEP 3.
000061:
000062:                                                                                                  #  10. NONFLASHING DISPLAY V06N18 (FDAI ANGLES).
000063:
000064:                                                                                                  #  11. DO A PHASECHANGE.
000065:
000066:                                                                                                  #  12. DO A MANEUVER CALCULATION AND ICDU DRIVE ROUTINE TO ACHIEVE FINAL
000067:
000068:                                                                                                  #  GIMBAL ANGLES (GOMANUR).
000069:                                                                                                  #  13. AT END OF MANEUVER GO TO STEP 3.
000070:
000071:                                                                                                  #        IF SATISFACTORY MANEUVER STEP 5A EXITS R60.
000072:                                                                                                  #        FOR FURTHER ADJUSTMENT OF THE VEHICLE ATTITUDE ABOUT THE
000073:                                                                                                  #        DESIRED VECTOR, THE ROUTINE MAY BE PERFORMED AGAIN STARTING AT


000075:                                                                                                  #        STEP 5C.
000076:
000077:                                                                                                  #  CALLING SEQUENCE:     TC      BANKCALL
000078:                                                                                                  #                        CADR    R60LEM
000079:
000080:                                                                                                  #  ERASABLE INITIALIZATION REQUIRED:     SCAXIS, POINTVSM (FOR VECPOINT)
000081:                                                                                                  #                                        3AXISFLG.
000082:
000083:                                                                                                  #  SUBROUTINES CALLED:   VECPOINT, BALLANGS, GOPERF2R, LINUS, GODSPER,
000084:                                                                                                  #                        GOMANUR, DOWNFLAG, PHASCHNG, UPFLAG
000085:
000086:                                                                                                  #  NORMAL EXIT MODES:    CAE     TEMPR60         (CALLERS RETURN ADDRESS)
000087:                                                                                                  #                        TC      BANKJUMP
000088:
000089:                                                                                                  #  ALARMS: NONE
000090:
000091:                                                                                                  #  OUTPUT: NONE
000092:
000093:                                                                                                  #  DEBRIS: CPHI, CTHETA, CPSI, 3AXISFLG, TBASE2
000094:
000095: 34,2000                                           BANK     34
000096: 26,2000                                           SETLOC   MANUVER
000097: 26,2000                                           BANK
000098:
000099: 26,2101     1164                                  EBANK=   TEMPR60
000100:
000101: 26,2101                                           COUNT*   $$/R06
000102: 26,2101           04645        R60LEM             TC       MAKECADR
000103: 26,2102           55164                           TS       TEMPR60
000104:
000105: 26,2103           34746        REDOMANN           CAF      3AXISBIT
000106: 26,2104           70101                           MASK     FLAGWRD5                              #  IS 3-AXIS FLAG SET
000107: 26,2105           10000                           CCS      A
000108: 26,2106           12114                           TCF      TOBALL                                #  YES
000109: 26,2107           06036                           TC       INTPRET
000110: 26,2110           77624                           CALL
000111: 26,2111           56016                                    VECPOINT                              #  TO COMPUTE FINAL ANGLES
000112: 26,2112           00322                           STORE    CPHI                                  #  STORE FINAL ANGLES - CPHI, CTHETA, CPSI
000113: 26,2113           77776                           EXIT
000114:
000115: 26,2114           04616        TOBALL             TC       BANKCALL
000116: 26,2115           54244                           CADR     BALLANGS                              #  TO CONVERT ANGLES TO FDAI
000117: 26,2116           32232        TOBALLA            CAF      V06N18
000118: 26,2117           04616                           TC       BANKCALL
000119: 26,2120           20563                           CADR     GOPERF2R                              #  DISPLAY PLEASE PERFORM AUTO MANEUVER
000120: 26,2121           02220                           TC       R61TEST
000121: 26,2122           02126                           TC       REDOMANC                              #  PROCEED
000122: 26,2123           02153                           TC       ENDMANU1                              #  ENTER I.E. FINISHED WITH R60


000124: 26,2124           02157                           TC       CHKLINUS                              #  TO CHECK FOR PRIORITY DISPLAYS
000125: 26,2125           05155                           TC       ENDOFJOB
000126:
000127: 26,2126           34746        REDOMANC           CAF      3AXISBIT
000128: 26,2127           70101                           MASK     FLAGWRD5                              #  IS 3-AXIS FLAG SET
000129: 26,2130           10000                           CCS      A
000130: 26,2131           12137                           TCF      TOBALLC                               #  YES
000131: 26,2132           06036                           TC       INTPRET
000132: 26,2133           77624                           CALL
000133: 26,2134           56016                                    VECPOINT                              #  TO COMPUTE FINAL ANGLES
000134: 26,2135           00322                           STORE    CPHI                                  #  STORE ANGLES
000135: 26,2136           77776                           EXIT
000136:
000137: 26,2137           04616        TOBALLC            TC       BANKCALL
000138: 26,2140           54244                           CADR     BALLANGS                              #  TO CONVERT ANGLES TO FDAI
000139: 26,2141           02233                           TC       G+N,AUTO                              #  CHECK AUTO MODE
000140: 26,2142           10000                           CCS      A
000141: 26,2143           12116                           TCF      TOBALLA                               #  NOT AUTO, GO REREQUEST AUTO MANEUVER.
000142:
000143: 26,2144           32232        AUTOMANV           CAF      V06N18                                #  STATIC DISPLAY DURING AUTO MANEUVER
000144: 26,2145           04616                           TC       BANKCALL                              #                                        -
000145: 26,2146           20327                           CADR     GODSPR                                #                                        -
000146: 26,2147           02157                           TC       CHKLINUS                              #  TO CHECK FOR PRIORITY DISPLAYS
000147:
000148: 26,2150           04616        STARTMNV           TC       BANKCALL                              #  PERFORM MANEUVER VIA KALCMANU
000149: 26,2151           17723                           CADR     GOMANUR
000150:
000151: 26,2152           12116        ENDMANUV           TCF      TOBALLA                               #  FINISHED MANEUVER.
000152: 26,2153           05516        ENDMANU1           TC       DOWNFLAG                              #  RESET 3-AXIS FLAG
000153: 26,2154           00124                           ADRES    3AXISFLG
000154: 26,2155           31164                           CAE      TEMPR60                               #                                        -
000155: 26,2156           04640                           TC       BANKJUMP                              #                                        -
000156:
000157: 26,2157           40100        CHKLINUS           CS       FLAGWRD4
000158: 26,2160           74740                           MASK     PDSPFBIT                              #  IS PRIORITY DISPLAY FLAG SET?
000159: 26,2161           10000                           CCS      A                                     #                                        -
000160: 26,2162           00002                           TC       Q                                     #  NO - EXIT
000161: 26,2163           30002                           CA       Q
000162: 26,2164           54156                           TS       MPAC       +2                         #  SAVE RETURN
000163: 26,2165           46244                           CS       THREE                                 #  OBTAIN LOCATION FOR RESTART
000164: 26,2166           60133                           AD       BUF2                                  #  HOLDS Q OF LAST DISPLAY
000165: 26,2167           55055                           TS       TBASE2
000166:
000167: 26,2170           05353                           TC       PHASCHNG
000168: 26,2171           00132                           OCT      00132
000169:
000170: 26,2172           34745                           CAF      BIT7
000171: 26,2173           05464                           TC       LINUS                                 #  GO SET BITS FOR PRIORITY DISPLAY      -
000172: 26,2174           00156                           TC       MPAC       +2
000173:


000175: 26,2175           37713        RELINUS            CAF      PRIO26                                #  RESTORE ORIGINAL PRIORITY
000176: 26,2176           05146                           TC       PRIOCHNG
000177:
000178: 26,2177           34747                           CAF      TRACKBIT                              #  DON'T CONTINUE R60 UNLESS TRACKFLAG ON.
000179: 26,2200           70075                           MASK     FLAGWRD1
000180: 26,2201           10000                           CCS      A
000181: 26,2202           12215                           TCF      RER60
000182:
000183: 26,2203           34745                           CAF      RNDVZBIT                              #  IS IT P20?
000184: 26,2204           70074                           MASK     FLAGWRD0
000185: 26,2205           10000                           CCS      A
000186: 26,2206           02212                           TC       +4                                    #  YES
000187: 26,2207           05353                           TC       PHASCHNG                              #  NO, MUST BE P25, SET 2.11 SPOT
000188: 26,2210           40112                           OCT      40112
000189:
000190: 26,2211           05155                           TC       ENDOFJOB
000191:
000192: 26,2212           05353                           TC       PHASCHNG                              #  SET 2.7 SPOT FOR P20
000193: 26,2213           40072                           OCT      40072
000194:
000195: 26,2214           05155                           TC       ENDOFJOB
000196:
000197: 26,2215           05504        RER60              TC       UPFLAG                                #  SET PRIO DISPLAY FLAG AFTER RESTART
000198: 26,2216           00077                           ADRES    PDSPFLAG
000199:
000200: 26,2217           01055                           TC       TBASE2
000201:
000202: 26,2220           31011        R61TEST            CA       MODREG                                #  IF WE ARE IN P00 IT MUST BE V49 OR V89
000203: 26,2221           00006                           EXTEND
000204: 26,2222           12153                           BZF      ENDMANU1                              #  THUS WE GO TO ENDEXT VIA USER
000205:
000206: 26,2223           30100                           CA       FLAGWRD4                              #  ARE WE IN R61 (P20 OR P25)
000207: 26,2224           74740                           MASK     PDSPFBIT
000208: 26,2225           00006                           EXTEND
000209: 26,2226           16001                           BZF      GOTOPOOH                              #  NO
000210: 26,2227           06022                           TC       GOTOV56                               #  YES
000211:
000212: 26,2230           20100        BIT14+7            OCT      20100                                 #                                        -
000213: 26,2231           00203        OCT203             OCT      203
000214: 26,2232           01422        V06N18             VN       0618
000215:
000216:                                                                                                  #  SUBROUTINE TO CHECK FOR G+N CONTROL, AUTO STABILIZATION
000217:
000218:                                                                                                  #  RETURNS WITH C(A) = +         IF NOT SET FOR G+N, AUTO
000219:                                                                                                  #  RETURNS WITH C(A) = +0        IF SWITCHES ARE SET
000220:
000221: 26,2233           00006        G+N,AUTO           EXTEND
000222: 26,2234           00030                           READ     CHAN30
000223: 26,2235           74742                           MASK     BIT10
000224: 26,2236           10000                           CCS      A
000225: 26,2237           00002                           TC       Q                                     #  NOT IN G+N    C(A) = +


000227: 26,2240           00006        ISITAUTO           EXTEND                                         #  CHECK FOR AUTO MODE
000228: 26,2241           00031                           READ     CHAN31
000229: 26,2242           74736                           MASK     BIT14
000230: 26,2243           00002                           TC       Q                                     #  (+) = NOT IN AUTO, (+0) = AOK
000231:


000233:                                                                                                  #  PROGRAM DESCRIPTION BALLANGS
000234:                                                                                                  #  MOD NO.         LOG SECTION R60,R62
000235:
000236:                                                                                                  #  WRITTEN BY RAMA M. AIYAWAR
000237:                                                                                                  #  FUNCTIONAL DESCRIPTION
000238:
000239:                                                                                                  #  COMPUTES LM FDAI BALL DISPLAY ANGLES
000240:                                                                                                  #  CALLING SEQUENCE
000241:
000242:                                                                                                  #           TC     BALLANGS
000243:                                                                                                  #  NORMAL EXIT MODE
000244:
000245:                                                                                                  #           TC     BALLEXIT        (SAVED Q)
000246:
000247:                                                                                                  #  ALARM OR EXIT MODE  NIL
000248:                                                                                                  #  SUBROUTINES CALLED
000249:                                                                                                  #           CD*TR*G
000250:                                                                                                  #           ARCTAN
000251:
000252:                                                                                                  #  INPUT
000253:
000254:                                                                                                  #  CPHI,CTHETA,CPSI  ARE  THE ANGLES CORRESPONDING TO AOG,AIG,AMG. THEY ARE
000255:                                                                                                  #  SP,2S COMPLIMENT SCALED TO HALF REVOLUTION.
000256:                                                                                                  #  OUTPUT
000257:
000258:                                                                                                  #  FDAIX, FDAIY, FDAIZ ARE THE REQUIRED BALL ANGLES SCALED TO HALF REVOLUTION
000259:                                                                                                  #  SP,2S COMPLIMENT.
000260:                                                                                                  #  THESE ANGLES WILL BE DISPLAYED AS DEGREES AND HUNDREDTHS, IN THE ORDER ROLL, PITCH, YAW, USING NOUNS 18 & 19.
000261:
000262:                                                                                                  #  ERASABLE INITIALIZATION REQUIRED
000263:
000264:                                                                                                  #  CPHI,CTHETA,CPSI EACH A SP REGISTER
000265:                                                                                                  #  DEBRIS
000266:
000267:                                                                                                  #  A,L,Q,MPAC,SINCDU,COSCDU,PUSHLIST,BALLEXIT
000268:
000269:                                                                                                  #  NOMENCLATURE:  CPHI, CTHETA, & CPSI REPRESENT THE OUTER, INNER, & MIDDLE GIMBAL ANGLES, RESPECTIVELY; OR
000270:                                                                                                  #  EQUIVALENTLY, CDUX, CDUY, & CDUZ.
000271:
000272:                                                                                                  #  NOTE:  ARCTAN CHECKS FOR OVERFLOW AND SHOULD BE ABLE TO HANDLE ANY SINGULARITIES.
000273:
000274: 26,2000                                           SETLOC   BAWLANGS
000275: 26,2000                                           BANK
000276:
000277: 26,2244                                           COUNT*   $$/BALL
000278: 26,2244           04645        BALLANGS           TC       MAKECADR
000279: 26,2245           55342                           TS       BALLEXIT
000280: 26,2246           30321                           CA       CPHI


000282: 26,2247           54772                           TS       CDUSPOT    +4
000283: 26,2250           30322                           CA       CTHETA
000284: 26,2251           54766                           TS       CDUSPOT
000285: 26,2252           30323                           CA       CPSI
000286: 26,2253           54770                           TS       CDUSPOT    +2
000287:
000288: 26,2254           06036                           TC       INTPRET
000289: 26,2255           45001                           SETPD    CALL
000290: 26,2256           00001                                    0D
000291: 26,2257           47447                                    CD*TR*G
000292:
000293: 26,2260           41345                           DLOAD    DMP
000294: 26,2261           00743                                    SINCDUX                               #  SIN (OGA)
000295: 26,2262           00747                                    COSCDUZ                               #  COS (MGA)
000296:
000297: 26,2263           57552                           SL1      DCOMP                                 #  SCALE
000298: 26,2264           65336                           ARCSIN   PDDL                                  #  YAW = ARCSIN(-SXCZ) INTO 0 PD
000299: 26,2265           00741                                    SINCDUZ
000300: 26,2266           14023                           STODL    SINTH                                 #  (SINTH = 18D IN PD)
000301: 26,2267           00747                                    COSCDUZ
000302: 26,2270           72405                           DMP      SL1                                   #  RESCALE
000303: 26,2271           00751                                    COSCDUX
000304: 26,2272           34021                           STCALL   COSTH                                 #  (COSTH= 16D IN PD)
000305: 26,2273           26510                                    ARCTAN
000306: 26,2274           41325                           PDDL     DMP                                   #  ROLL = ARCTAN(SZ/CZCX) INTO 2 PD
000307: 26,2275           00741                                    SINCDUZ
000308: 26,2276           00743                                    SINCDUX
000309: 26,2277           41512                           SL2      PUSH                                  #  SXSZ INTO 4 PD
000310: 26,2300           65205                           DMP      PDDL                                  #  SXSZCY INTO 4 PD
000311: 26,2301           00745                                    COSCDUY
000312: 26,2302           65205                           DMP      PDDL                                  #  SXSZSY INTO 6 PD
000313: 26,2303           00737                                    SINCDUY
000314: 26,2304           00751                                    COSCDUX
000315: 26,2305           72405                           DMP      SL1                                   #  CXCY
000316: 26,2306           00745                                    COSCDUY
000317: 26,2307           45425                           DSU      STADR                                 #  PULL UP FROM 6 PD
000318: 26,2310           63756                           STODL    COSTH                                 #  COSTH = CXCY - SXSZSY
000319: 26,2311           00737                                    SINCDUY
000320: 26,2312           72405                           DMP      SL1
000321: 26,2313           00751                                    COSCDUX                               #  CXSY
000322: 26,2314           45415                           DAD      STADR                                 #  PULL UP FROM 4 PD
000323: 26,2315           43754                           STCALL   SINTH                                 #  SINTH = CXSY + SXSZCY
000324: 26,2316           26510                                    ARCTAN                                #  RETURNS WITH D(MPAC) = PITCH
000325: 26,2317           55525                           PDDL     VDEF                                  #  PITCH INTO 2 PD, ROLL INTO MPAC FROM 2 PD
000326: 26,2320           77634                           RTB                                            #  VDEF MAKES V(MPAC) = ROLL, PITCH, YAW
000327: 26,2321           21524                                    V1STO2S
000328: 26,2322           02351                           STORE    FDAIX                                 #  MODE IS TP
000329: 26,2323           77776                           EXIT
000330:
000331: 26,2324           31342        ENDBALL            CA       BALLEXIT
000332:


000334: 26,2325           04640                           TC       BANKJUMP
000335:


000337:                                                                                                  #  PROGRAM DESCRIPTION - VECPOINT
000338:
000339:                                                                                                  #           THIS INTERPRETIVE SUBROUTINE MAY BE USED TO POINT A SPACECRAFT AXIS IN A DESIRED DIRECTION.  THE AXIS
000340:                                                                                                  #  TO BE POINTED MUST APPEAR AS A HALF UNIT DOUBLE PRECISION VECTOR IN SUCCESSIVE LOCATIONS OF ERASABLE MEMORY
000341:                                                                                                  #  BEGINNING WITH THE LOCATION CALLED SCAXIS.  THE COMPONENTS OF THIS VECTOR ARE GIVEN IN SPACECRAFT COORDINATES.
000342:                                                                                                  #  THE DIRECTION IN WHICH THIS AXIS IS TO BE POINTED MUST APPEAR AS A HALF UNIT DOUBLE PRECISION VECTOR IN
000343:                                                                                                  #  SUCCESSIVE LOCATIONS OF ERASABLE MEMORY BEGINNING WITH THE ADDRESS CALLED POINTVSM.  THE COMPONENTS OF THIS
000344:                                                                                                  #  VECTOR ARE GIVEN IN STABLE MEMBER COORDINATES.  WITH THIS INFORMATION VECPOINT COMPUTES A SET OF THREE GIMBAL
000345:                                                                                                  #  ANGLES (2S COMPLEMENT) CORESPONDING TO THE CROSS-PRODUCT ROTATION BETWEEN SCAXIS AND POINTVSM AND STORES THEM
000346:                                                                                                  #  IN T(MPAC) BEFORE RETURNING TO THE CALLER.
000347:                                                                                                  #           THIS ROTATION, HOWEVER, MAY BRING THE S/C INTO GIMBAL LOCK.  WHEN POINTING A VECTOR IN THE Y-Z PLANE,
000348:                                                                                                  #  THE TRANSPONDER AXIS, OR THE AOT FOR THE LEM, THE PROGRAM WILL CORRECT THIS PROBLEM BY ROTATING THE CROSS-
000349:                                                                                                  #  PRODUCT ATTITUDE ABOUT POINTVSM BY A FIXED AMOUNT SUFFICIENT TO ROTATE THE DESIRED S/C ATTITUDE OUT OF GIMBAL
000350:                                                                                                  #  LOCK.  IF THE AXIS TO BE POINTED IS MORE THAN 40.6 DEGREES BUT LESS THAN 60.5 DEG FROM THE +X (OR -X) AXIS,
000351:                                                                                                  #  THE ADDITIONAL ROTATION TO AVOID GIMAL LOCK IS 35 DEGREES.  IF THE AXIS IS MORE THAN 60.5 DEGEES FROM +X (OR -X)
000352:                                                                                                  #  THE ADDITIONAL ROTATION IS 35 DEGREES.  THE GIMBAL ANGLES CORRESPONDING TO THIS ATTITUDE ARE THEN COMPUTED AND
000353:                                                                                                  #  STORED AS 2S COMPLIMENT ANGLES IN T(MPAC) BEFORE RETURNING TO THE CALLER.
000354:                                                                                                  #           WHEN POINTING THE X-AXIS, OR THE THRUST VECTOR, OR ANY VECTOR WITHIN 40.6 DEG OF THE X-AXIS, VECPOINT
000355:                                                                                                  #  CANNOT CORRECT FOR A CROSS-PRODUCT ROTATION INTO GIMBAL LOCK.  IN THIS CASE A PLATFORM REALIGNMENT WOULD BE
000356:                                                                                                  #  REQUIRED TO POINT THE VECTOR IN THE DESIRED DIRECTION.  AT PRESENT NO INDICATION IS GIVEN FOR THIS SITUATION
000357:                                                                                                  #  EXCEPT THAT THE FINAL MIDDLE GIMBAL ANGLE IN MPAC +2 IS GREATER THAN 59 DEGREES.
000358:
000359:                                                                                                  #           CALLING SEQUENCE -
000360:                                                                                                  #               1) LOAD SCAXIS, POINTVSM
000361:                                                                                                  #               2) CALL
000362:                                                                                                  #                       VECPOINT
000363:
000364:                                                                                                  #           RETURNS WITH
000365:
000366:                                                                                                  #               1) DESIRED OUTER GIMBAL ANGLE IN MPAC
000367:                                                                                                  #               2) DESIRED INNER GIMBAL ANGLE IN MPAC +1
000368:                                                                                                  #               3) DESIRED MIDDLE GIMBAL ANGLE IN MPAC +2
000369:
000370:                                                                                                  #  ERASABLES USED -
000371:
000372:                                                                                                  #      1) SCAXIS           6
000373:                                                                                                  #      2) POINTVSM         6
000374:                                                                                                  #      3) MIS             18
000375:                                                                                                  #      4) DEL             18
000376:                                                                                                  #      5) COF              6
000377:                                                                                                  #      6) VECQTEMP         1
000378:                                                                                                  #      7) ALL OF VAC AREA 43
000379:
000380:                                                                                                  #               TOTAL     99
000381:
000382: 27,2000                                           SETLOC   VECPT
000383: 27,2000                                           BANK


000385: 27,2016                                           COUNT*   $$/VECPT
000386:
000387: 27,2016  E6,1674                                  EBANK=   BCDU
000388:
000389: 27,2016           40020        VECPOINT           STQ      BOV                                   #  SAVE RETURN ADDRESS
000390: 27,2017           03323                                    VECQTEMP
000391: 27,2020           56021                                    VECLEAR                               #  AND CLEAR OVFIND
000392: 27,2021           47164        VECLEAR            AXC,2    RTB
000393: 27,2022           03244                                    MIS                                   #  READ THE PRESENT CDU ANGLES AND
000394: 27,2023           44403                                    READCDUK                              #  STORE THEM IN PD25, 26, 27
000395: 27,2024           34032                           STCALL   25D
000396: 27,2025           44410                                    CDUTODCM                              #  S/C AXES TO STABLE MEMBER AXES (MIS)
000397: 27,2026           61375                           VLOAD    VXM
000398: 27,2027           03767                                    POINTVSM                              #  RESOLVE THE POINTING DIRECTION VF INTO
000399: 27,2030           03245                                    MIS                                   #  INITIAL S/C AXES (VF = POINTVSM)
000400: 27,2031           77656                           UNIT
000401: 27,2032           00035                           STORE    28D
000402:                                                                                                  #  PD 28 29 30 31 32 33
000403: 27,2033           53435                           VXV      UNIT                                  #  TAKE THE CROSS PRODUCT VF X VI
000404: 27,2034           03761                                    SCAXIS                                #  WHERE VI = SCAXIS
000405: 27,2035           57400                           BOV      VCOMP
000406: 27,2036           56146                                    PICKAXIS
000407: 27,2037           17267                           STODL    COF                                   #  CHECK MAGNITUDE
000408: 27,2040           00045                                    36D                                   #  OF CROSS PRODUCT
000409: 27,2041           50025                           DSU      BMN                                   #  VECTOR, IF LESS
000410: 27,2042           14367                                    DPB-14                                #  THAN B-14 ASSUME
000411: 27,2043           56146                                    PICKAXIS                              #  UNIT OPERATION
000412: 27,2044           50375                           VLOAD    DOT                                   #           INVALID.
000413: 27,2045           03761                                    SCAXIS
000414: 27,2046           00035                                    28D
000415: 27,2047           65552                           SL1      ARCCOS
000416: 27,2050           77624        COMPMATX           CALL                                           #  NOW COMPUTE THE TRANSFORMATION FROM
000417: 27,2051           44527                                    DELCOMP                               #  FINAL S/C AXES TO INITIAL S/C AXES  MFI
000418: 27,2052           75160                           AXC,1    AXC,2
000419: 27,2053           03244                                    MIS                                   #  COMPUTE THE TRANSFORMATION FROM FINAL
000420: 27,2054           02234                                    KEL                                   #  S/C AXES TO STABLE MEMBER AXES
000421: 27,2055           77624                           CALL                                           #  MFS = MIS MFI
000422: 27,2056           44312                                    MXM3                                  #  (IN PD LIST)
000423:
000424: 27,2057           51545                           DLOAD    ABS
000425: 27,2060           00007                                    6                                     #  MFS6 = SIN(CPSI)                      $2
000426: 27,2061           50025                           DSU      BMN
000427: 27,2062           14354                                    SINGIMLC                              #  = SIN(59 DEGS)                        $2
000428: 27,2063           56136                                    FINDGIMB                              #  /CPSI/ LESS THAN 59 DEGS
000429:                                                                                                  #  I.E. DESIRED ATTITUDE NOT IN GIMBAL LOCK
000430:
000431: 27,2064           51545                           DLOAD    ABS                                   #  CHECK TO SEE IF WE ARE POINTING
000432: 27,2065           03761                                    SCAXIS                                #  THE THRUST AXIS
000433: 27,2066           51025                           DSU      BPL
000434: 27,2067           14356                                    SINVEC1                               #  SIN 49.4 DEGS                         $2


000436: 27,2070           56136                                    FINDGIMB                              #  IF SO, WE ARE TRYING TO POINT IT INTO
000437: 27,2071           77775                           VLOAD                                          #  GIMBAL LOCK, ABORT COULD GO HERE
000438: 27,2072           77626                           STADR
000439: 27,2073           50516                           STOVL    MIS        +12D
000440: 27,2074           77626                           STADR                                          #  STORE MFS (IN PD LIST) IN MIS
000441: 27,2075           50524                           STOVL    MIS        +6
000442: 27,2076           77626                           STADR
000443: 27,2077           50532                           STOVL    MIS
000444: 27,2100           03253                                    MIS        +6                         #  INNER GIMBAL AXIS IN FINAL S/C AXES
000445: 27,2101           57444                           BPL      VCOMP                                 #  LOCATE THE IG AXIS DIRECTION CLOSEST TO
000446: 27,2102           56103                                    IGSAMEX                               #  FINAL X S/C AXIS
000447:
000448: 27,2103           50035        IGSAMEX            VXV      BMN                                   #  FIND THE SHORTEST WAY OF ROTATING THE
000449: 27,2104           03761                                    SCAXIS                                #  S/C OUT OF GIMBAL LOCK BY A ROTATION
000450: 27,2105           56112                                    U=SCAXIS                              #  ABOUT +- SCAXIS, I.E. IF  (IG (SGN MFS3)
000451:                                                                                                  #  X SCAXIS . XF) LESS THAN 0, U = SCAXIS
000452:                                                                                                  #  OTHERWISE U = -SCAXIS
000453:
000454: 27,2106           57575                           VLOAD    VCOMP
000455: 27,2107           03761                                    SCAXIS
000456: 27,2110           37267                           STCALL   COF                                   #  ROTATE ABOUT -SCAXIS
000457: 27,2111           56115                                    CHEKAXIS
000458: 27,2112           77775        U=SCAXIS           VLOAD
000459: 27,2113           03761                                    SCAXIS
000460: 27,2114           03267                           STORE    COF                                   #  ROTATE ABOUT + SCAXIS
000461: 27,2115           51545        CHEKAXIS           DLOAD    ABS
000462: 27,2116           03761                                    SCAXIS                                #  SEE IF WE ARE POINTING THE AOT
000463: 27,2117           51025                           DSU      BPL
000464: 27,2120           14360                                    SINVEC2                               #  SIN 29.5 DEGS                         $2
000465: 27,2121           56125                                    PICKANG1                              #  IF SO, ROTATE 50 DEGS ABOUT +- SCAXIS
000466: 27,2122           52145                           DLOAD    GOTO                                  #  IF NOT, MUST BE POINTING THE TRANSPONDER
000467: 27,2123           14364                                    VECANG2                               #  OR SOME VECTOR IN THE Y, OR Z PLANE
000468: 27,2124           56127                                    COMPMFSN                              #  IN THIS CASE ROTATE 35 DEGS TO GET OUT
000469:                                                                                                  #  OF GIMBAL LOCK (VECANG2  $360)
000470: 27,2125           77745        PICKANG1           DLOAD
000471: 27,2126           14362                                    VECANG1                               #  = 50 DEGS                             $360
000472: 27,2127           77624        COMPMFSN           CALL
000473: 27,2130           44527                                    DELCOMP                               #  COMPUTE THE ROTATION ABOUT SCAXIS TO
000474: 27,2131           75160                           AXC,1    AXC,2                                 #  BRING MFS OUT OF GIMBAL LOCK
000475: 27,2132           03244                                    MIS
000476: 27,2133           02234                                    KEL
000477: 27,2134           77624                           CALL                                           #  COMPUTE THE NEW TRANSFORMATION FROM
000478: 27,2135           44312                                    MXM3                                  #  DESIRED S/C AXES TO STABLE MEMBER AXES
000479:                                                                                                  #  WHICH WILL ALIGN VI WITH VF AND AVOID
000480:                                                                                                  #  GIMBAL LOCK
000481: 27,2136           45160        FINDGIMB           AXC,1    CALL
000482: 27,2137           00000                                    0                                     #  EXTRACT THE COMMANDED CDU ANGLES FROM
000483: 27,2140           44654                                    DCMTOCDU                              #  THIS MATRIX
000484: 27,2141           40234                           RTB      SETPD
000485: 27,2142           21524                                    V1STO2S                               #  CONVERT TO 2:S COMPLEMENT


000487: 27,2143           00001                                    0
000488: 27,2144           77650                           GOTO
000489: 27,2145           03323                                    VECQTEMP                              #  RETURN TO CALLER
000490:
000491: 27,2146           50375        PICKAXIS           VLOAD    DOT                                   #  IF VF X VI = 0, FIND VF . VI
000492: 27,2147           00035                                    28D
000493: 27,2150           03761                                    SCAXIS
000494: 27,2151           72240                           BMN      TLOAD
000495: 27,2152           54326                                    ROT180
000496: 27,2153           00032                                    25D
000497: 27,2154           77650                           GOTO                                           #  IF VF = VI, CDU DESIRED = PRESENT CDU
000498: 27,2155           03323                                    VECQTEMP                              #  PRESENT CDU ANGLES
000499:
000500: 35,2000                                           BANK     35
000501: 26,2000                                           SETLOC   MANUVER1
000502: 26,2000                                           BANK
000503: 26,2326           47375        ROT180             VLOAD    VXV                                   #  IF VF, VI ANTIPARALLEL, 108 DEG ROTATION
000504: 26,2327           03253                                    MIS        +6                         #  IS REQUIRED. Y STABLE MEMBER AXIS IN
000505: 26,2330           06422                                    HIDPHALF                              #  INITIAL S/C AXES.
000506: 26,2331           47256                           UNIT     VXV                                   #  FIND Y(SM) X X(I)
000507: 26,2332           03761                                    SCAXIS                                #  FIND UNIT(VI X UNIT(Y(SM) X X(I)))
000508: 26,2333           40056                           UNIT     BOV                                   #  I.E. PICK A VECTOR IN THE PLANE OF X(I),
000509: 26,2334           54350                                    PICKX                                 #  Y(SM) PERPENDICULAR TO VI
000510: 26,2335           17267                           STODL    COF
000511: 26,2336           00045                                    36D                                   #  CHECK MAGNITUDE
000512: 26,2337           50025                           DSU      BMN                                   #  OF THIS VECTOR.
000513: 26,2340           14367                                    DPB-14                                #  IF LESS THAN B-14,
000514: 26,2341           54350                                    PICKX                                 #  PICK X-AXIS.
000515: 26,2342           77775                           VLOAD
000516: 26,2343           03267                                    COF
000517: 26,2344           17267        XROT               STODL    COF
000518: 26,2345           06422                                    HIDPHALF
000519: 26,2346           77650                           GOTO
000520: 26,2347           56050                                    COMPMATX
000521: 26,2350           52175        PICKX              VLOAD    GOTO                                  #  PICK THE XAXIS IN THIS CASE
000522: 26,2351           06422                                    HIDPHALF
000523: 26,2352           54344                                    XROT
000524: 26,2353           15555 35172  SINGIMLC           2DEC     .4285836003                            #  = SIN(59)                             $2
000525:
000526: 26,2355           14113 36326  SINVEC1            2DEC     .3796356537                            #  = SIN(49.4)                           $2
000527:
000528: 26,2357           07701 35703  SINVEC2            2DEC     .2462117800                            #  = SIN(29.5)                           $2
000529:
000530: 26,2361           04343 21616  VECANG1            2DEC     .1388888889                            #  = 50 DEGREES                          $360
000531:
000532: 26,2363           03070 34344  VECANG2            2DEC     .09722222222                            #  = 35 DEGREES                          $360
000533:
000534: 26,2365           00000        1BITDP             OCT      0                                     #  KEEP THIS BEFORE DPB(-14)        *********
000535: 26,2366           00001        DPB-14             OCT      00001
000536: 26,2367           00000                           OCT      00000
000537:


000539:                                                                                                  #  ROUTINE FOR INITIATING AUTOMATIC MANEUVER VIA KEYBOARD (V49)
000540:
000541: 34,2000                                           BANK     34
000542: 23,2000                                           SETLOC   R62
000543: 23,2000                                           BANK
000544: 23,2065  E6,1674                                  EBANK=   BCDU
000545:
000546: 23,2065                                           COUNT*   $$/R62
000547:
000548: 23,2065  23,2065               R62DISP            EQUALS   R62FLASH
000549:
000550: 23,2065           35010        R62FLASH           CAF      V06N22                                #  FLASH V06N22 AND
000551: 23,2066           04616                           TC       BANKCALL                              #  ICDU ANGLES
000552: 23,2067           20351                           CADR     GOFLASH
000553: 23,2070           15472                           TCF      ENDEXT                                #  TERMINATE
000554: 23,2071           12073                           TCF      GOMOVE                                #  PROCEED
000555: 23,2072           12065                           TCF      R62FLASH                              #  ENTER
000556:
000557:                                                                                                  #  ASTRONAUT MAY LOAD NEW ICDUS AT THIS
000558:                                                                                                  #  POINT
000559: 23,2073           05504        GOMOVE             TC       UPFLAG                                #  SET FOR 3-AXIS MANEUVER
000560: 23,2074           00124                           ADRES    3AXISFLG
000561:
000562: 23,2075           04616                           TC       BANKCALL
000563: 23,2076           54101                           CADR     R60LEM
000564: 23,2077           15472                           TCF      ENDEXT                                #  END R62
000565:

End of include-file R60,R62.agc.  Parent file is MAIN.agc


