
Source Code


000002:                                                                                                  ## Copyright:   Public domain.
000003:                                                                                                  ## Filename:    S-BAND_ANTENNA_FOR_LM.agc
000004:                                                                                                  ## Purpose:     The main source file for Luminary revision 069.
000005:                                                                                                  ##              It is part of the source code for the original release
000006:                                                                                                  ##              of the flight software for the Lunar Module's (LM) Apollo
000007:                                                                                                  ##              Guidance Computer (AGC) for Apollo 10. The actual flown
000008:                                                                                                  ##              version was Luminary 69 revision 2, which included a
000009:                                                                                                  ##              newer lunar gravity model and only affected module 2.
000010:                                                                                                  ##              This file is intended to be a faithful transcription, except
000011:                                                                                                  ##              that the code format has been changed to conform to the
000012:                                                                                                  ##              requirements of the yaYUL assembler rather than the
000013:                                                                                                  ##              original YUL assembler.
000014:                                                                                                  ## Reference:   pp. 498-501
000015:                                                                                                  ## Assembler:   yaYUL
000016:                                                                                                  ## Contact:     Ron Burkey <info@sandroid.org>.
000017:                                                                                                  ## Website:     www.ibiblio.org/apollo/index.html
000018:                                                                                                  ## Mod history: 2016-12-13 MAS  Created from Luminary 99.
000019:                                                                                                  ##              2016-12-14 MAS  Updated from comment-proofed Luminary 99 version.
000020:                                                                                                  ##              2016-12-18 RRB  Updated for Luminary 69.
000021:                                                                                                  ##              2016-12-27 HG   Comment last line *** END OF LEMONAID.070 ***
000022:                                                                                                  ##              2017-01-27 RSB  Proofed comment text using octopus/prooferComments
000023:                                                                                                  ##                              and fixed errors found.
000024:


000026:                                                                                                  #  SUBROUTINE NAME: R05 - S-BAND ANTENNA FOR LM
000027:
000028:                                                                                                  #  MOD0 BY T. JAMES
000029:                                                                                                  #  MOD1 BY P. SHAKIR
000030:
000031:                                                                                                  #  FUNCTIONAL DESCRIPTION
000032:
000033:                                                                                                  #        THE S-BAND ANTENNA ROUTINE, R05, COMPUTES AND DISPLAYS THE PITCH AND
000034:                                                                                                  #  YAW ANTENNA GIMBAL ANGLES REQUIRED TO POINT THE LM STEERABLE ANTENNA
000035:                                                                                                  #  TOWARD THE CENTER OF THE EARTH.  THIS ROUTINE IS SELECTED BY THE ASTRO-
000036:                                                                                                  #  NAUT VIA DSKY ENTRY DURING COASTING FLIGHT OR WHEN THE LM IS ON THE MOON
000037:                                                                                                  #  SURFACE.  THE EARTH OR MOON REFERENCE COORDINATE SYSTEM IS USED DEPENDING
000038:                                                                                                  #  ON WHETHER THE LM IS ABOUT TO ENTER OR HAS ALREADY ENTERED THE MOON
000039:                                                                                                  #  SPHERE OF INFLUENCE, RESPECTIVELY
000040:
000041:                                                                                                  #  TO CALL SUBROUTINE, ASTRONAUT KEYS IN V 64 E
000042:
000043:                                                                                                  #  SUBROUTINES CALLED-
000044:                                                                                                  #        R02BOTH
000045:                                                                                                  #        INTPRET
000046:                                                                                                  #        LOADTIME
000047:                                                                                                  #        LEMCONIC
000048:                                                                                                  #        LUNPOS
000049:                                                                                                  #        CDUTRIG
000050:                                                                                                  #        *SMNB*
000051:                                                                                                  #        BANKCALL
000052:                                                                                                  #        B5OFF
000053:                                                                                                  #        ENDOFJOB
000054:                                                                                                  #        BLANKET
000055:
000056:                                                                                                  #  RETURNS WITH
000057:                                                                                                  #        PITCH ANGLE IN PITCHANG  REV. B0
000058:                                                                                                  #        YAW ANGLE IN YAWANG  REV. B0
000059:
000060:                                                                                                  #  ERASABLES USED
000061:                                                                                                  #        PITCHANG
000062:                                                                                                  #        YAWANG
000063:                                                                                                  #        RLM
000064:                                                                                                  #        VAC AREA
000065:
000066: 41,3731                                           BANK     41
000067: 42,2000                                           SETLOC   SBAND
000068: 42,2000                                           BANK
000069:
000070: 42,3602  E7,1467                                  EBANK=   WHOCARES
000071: 42,3602                                           COUNT*   $$/R05
000072: 42,3602           04616        SBANDANT           TC       BANKCALL


000074: 42,3603           11175                           CADR     R02BOTH                               #  CHECK IF IMU IS ON AND ALIGNED
000075: 42,3604           06036                           TC       INTPRET
000076: 42,3605           47001                           SETPD    RTB
000077: 42,3606           00001                                    0D
000078: 42,3607           21462                                    LOADTIME                              #  PICK UP CURRENT TIME
000079: 42,3610           34041                           STCALL   TDEC1                                 #  ADVANCE INTEGRATION TO TIME IN TDEC1
000080: 42,3611           27100                                    LEMCONIC                              #  USING CONIC INTEGRATION
000081: 42,3612           46135                           SLOAD    BHIZ
000082: 42,3613           00050                                    X2                                    #  X2 =0 EARTH SPHERE, X2 =2 MOON SPHERE
000083: 42,3614           65632                                    CONV4
000084: 42,3615           77775                           VLOAD
000085: 42,3616           00001                                    RATT
000086: 42,3617           16211                           STODL    RLM
000087: 42,3620           00015                                    TAT
000088: 42,3621           77624        CONV3              CALL
000089: 42,3622           33663                                    LUNPOS                                #  UNIT POSITION VECTOR FROM EARTH TO MOON
000090: 42,3623           74375                           VLOAD    VXSC
000091: 42,3624           02723                                    VMOON
000092: 42,3625           24001                                    REMDIST                               #  MEAN DISTANCE FROM EARTH TO MOON
000093: 42,3626           53372                           VSL1     VAD
000094: 42,3627           02211                                    RLM
000095: 42,3630           77650                           GOTO
000096: 42,3631           65634                                    CONV5
000097: 42,3632           77775        CONV4              VLOAD
000098: 42,3633           00001                                    RATT                                  #  UE = -UNIT(RATT)  EARTH SPHERE
000099: 42,3634           53401        CONV5              SETPD    UNIT                                  #  UE = -UNIT((REM)(UEM) + RL)  MOON SPHERE
000100: 42,3635           00001                                    0D                                    #  SET PL POINTER TO 0
000101: 42,3636           45076                           VCOMP    CALL
000102: 42,3637           47443                                    CDUTRIG                               #  COMPUTE SINES AND COSINES OF CDU ANGLES
000103: 42,3640           76521                           MXV      VSL1                                  #  TRANSFORM REF. COORDINATE SYSTEM TO
000104: 42,3641           01734                                    REFSMMAT                              #  STABLE MEMBER B-1 X B-1 X B+1 = B-1
000105: 42,3642           71206                           PUSH     DLOAD                                 #  8D
000106: 42,3643           06424                                    HI6ZEROS
000107: 42,3644           02205                           STORE    PITCHANG
000108: 42,3645           26207                           STOVL    YAWANG                                #  ZERO OUT ANGLES
000109: 42,3646           77624                           CALL
000110: 42,3647           47575                                    *SMNB*
000111: 42,3650           16211                           STODL    RLM                                   #  PRE-MULTIPLY RLM BY (NBSA) MATRIX(B0)
000112: 42,3651           02213                                    RLM        +2
000113: 42,3652           45206                           PUSH     DSU
000114: 42,3653           02211                                    RLM
000115: 42,3654           77605                           DMP
000116: 42,3655           25765                                    1OVSQRT2
000117: 42,3656           16213                           STODL    RLM        +2
000118: 42,3657           41215                           DAD      DMP
000119: 42,3660           02211                                    RLM
000120: 42,3661           25765                                    1OVSQRT2
000121: 42,3662           26211                           STOVL    RLM                                   #  R B-1
000122: 42,3663           02211                                    RLM
000123: 42,3664           63256                           UNIT     PDVL


000125: 42,3665           02211                                    RLM
000126: 42,3666           72431                           VPROJ    VSL2                                  #  PROJECTION OF R ONTO LM XZ PLANE
000127: 42,3667           06420                                    HIUNITY
000128: 42,3670           40045                           BVSU     BOV                                   #  CLEAR OVERFLOW INDICATOR IF ON
000129: 42,3671           02211                                    RLM
000130: 42,3672           65673                                    COVCNV
000131: 42,3673           40056        COVCNV             UNIT     BOV                                   #  EXIT ON OVERFLOW
000132: 42,3674           65741                                    SBANDEX
000133: 42,3675           47206                           PUSH     VXV                                   #  URP VECTOR B-1
000134: 42,3676           06416                                    HIUNITZ
000135: 42,3677           57572                           VSL1     VCOMP                                 #  UZ X URP = -(URP X UZ)
000136: 42,3700           02211                           STORE    RLM                                   #  X VEC B-1
000137: 42,3701           63241                           DOT      PDVL                                  #  SGN(X.UY) UNSCALED
000138: 42,3702           06420                                    HIUNITY
000139: 42,3703           02211                                    RLM
000140: 42,3704           75246                           ABVAL    SIGN
000141: 42,3705           77736                           ASIN                                           #  ASIN((SGN(X.UY))ABV(X)) REV B0
000142: 42,3706           26205                           STOVL    PITCHANG
000143: 42,3707           00007                                    URP
000144: 42,3710           51041                           DOT      BPL
000145: 42,3711           06416                                    HIUNITZ
000146: 42,3712           65717                                    NOADJUST                              #  YES, -90 TO +90
000147: 42,3713           45345                           DLOAD    DSU
000148: 42,3714           06422                                    HIDPHALF
000149: 42,3715           02205                                    PITCHANG
000150: 42,3716           02205                           STORE    PITCHANG
000151: 42,3717           47375        NOADJUST           VLOAD    VXV
000152: 42,3720           00001                                    UR                                    #  Z = (UR X URP)
000153: 42,3721           00007                                    URP
000154: 42,3722           77772                           VSL1
000155: 42,3723           16211                           STODL    RLM                                   #  Z VEC B-1
000156: 42,3724           02205                                    PITCHANG
000157: 42,3725           74356                           SIN      VXSC
000158: 42,3726           06416                                    HIUNITZ
000159: 42,3727           71525                           PDDL     COS
000160: 42,3730           02205                                    PITCHANG
000161: 42,3731           52361                           VXSC     VSU
000162: 42,3732           06422                                    HIUNITX                               #  (UX COS ALPHA) - (UZ SIN ALPHA)
000163: 42,3733           63241                           DOT      PDVL                                  #  YAW.Z
000164: 42,3734           02211                                    RLM
000165: 42,3735           02211                                    RLM
000166: 42,3736           75246                           ABVAL    SIGN
000167: 42,3737           77736                           ASIN
000168: 42,3740           02207                           STORE    YAWANG
000169: 42,3741           77776        SBANDEX            EXIT
000170: 42,3742           31044                           CA       EXTVBACT
000171: 42,3743           74747                           MASK     BIT5                                  #  IS BIT5 STILL ON
000172: 42,3744           00006                           EXTEND
000173: 42,3745           15472                           BZF      ENDEXT                                #  NO
000174: 42,3746           35017                           CAF      PRIO5


000176: 42,3747           05146                           TC       PRIOCHNG
000177: 42,3750           33763                           CAF      V06N51                                #  DISPLAY ANGLES
000178: 42,3751           04616                           TC       BANKCALL
000179: 42,3752           20231                           CADR     GOMARKFR
000180: 42,3753           05563                           TC       B5OFF                                 #  TERMINATE
000181: 42,3754           05563                           TC       B5OFF                                 #  PROCEED
000182: 42,3755           05155                           TC       ENDOFJOB                              #  RECYCLE
000183: 42,3756           34751                           CAF      BIT3                                  #  IMMEDIATE RETURN
000184: 42,3757           05464                           TC       BLANKET                               #  BLANK R3
000185: 42,3760           34740                           CAF      PRIO4
000186: 42,3761           05146                           TC       PRIOCHNG
000187: 42,3762           03604                           TC       SBANDANT   +2                         #  YES, CONTINUE DISPLAYING ANGLES
000188: 42,3763           01463        V06N51             VN       0651
000189: 42,3764           26501 07463  1OVSQRT2           2DEC     .7071067815                            #  1/SQRT(2)
000190:
000191: 42,3766                        UR                 EQUALS   0D
000192: 42,3766                        URP                EQUALS   6D
000193: 42,3766  30,2000                                  SBANK=   LOWSUPER

End of include-file S-BAND_ANTENNA_FOR_LM.agc.  Parent file is MAIN.agc


