
Source Code


000002:                                                                                                  ## Copyright:   Public domain.
000003:                                                                                                  ## Filename:    SERVICE_ROUTINES.agc
000004:                                                                                                  ## Purpose:     The main source file for Luminary revision 069.
000005:                                                                                                  ##              It is part of the source code for the original release
000006:                                                                                                  ##              of the flight software for the Lunar Module's (LM) Apollo
000007:                                                                                                  ##              Guidance Computer (AGC) for Apollo 10. The actual flown
000008:                                                                                                  ##              version was Luminary 69 revision 2, which included a
000009:                                                                                                  ##              newer lunar gravity model and only affected module 2.
000010:                                                                                                  ##              This file is intended to be a faithful transcription, except
000011:                                                                                                  ##              that the code format has been changed to conform to the
000012:                                                                                                  ##              requirements of the yaYUL assembler rather than the
000013:                                                                                                  ##              original YUL assembler.
000014:                                                                                                  ## Reference:   pp. 1368-1374
000015:                                                                                                  ## Assembler:   yaYUL
000016:                                                                                                  ## Contact:     Ron Burkey <info@sandroid.org>.
000017:                                                                                                  ## Website:     www.ibiblio.org/apollo/index.html
000018:                                                                                                  ## Mod history: 2016-12-13 MAS  Created from Luminary 99.
000019:                                                                                                  ##              2016-12-18 MAS  Updated from comment-proofed Luminary 99 version.
000020:                                                                                                  ##              2017-01-10 RRB  Updated for Luminary 69.
000021:                                                                                                  ##              2017-01-21 HG   fix operand OCT 7 -> OCT7
000022:                                                                                                  ##              2017-01-28 RSB  Proofed comment text using octopus/prooferComments
000023:                                                                                                  ##                              and fixed errors found.
000024:


000026: 10,3416                                           BANK     10
000027: 10,2000                                           SETLOC   DISPLAYS
000028: 10,2000                                           BANK
000029: 10,3416                                           COUNT*   $$/DSPLA
000030:
000031: 10,3416           54001        UPENT2             TS       L                                     #  WHICH FLAGWORD IS IT
000032: 10,3417           74757                           MASK     OCT7
000033: 10,3420           56001                           XCH      L                                     #  SAVE IN L FOR INDEXING
000034:
000035: 10,3421           75660                           MASK     OCT77770                              #  OBTAIN THE BIT INFORMATION
000036: 10,3422           00004                           INHINT                                         #  PREVENT INTERUPTS
000037: 10,3423           54061                           TS       ITEMP1                                #  STORE THE BIT INFORMATION TEMPORARIALY
000038:
000039: 10,3424           50001                           NDX      L
000040: 10,3425           40074                           CS       FLAGWRD0
000041: 10,3426           70061                           MASK     ITEMP1
000042: 10,3427           50001                           NDX      L
000043: 10,3430           26074                           ADS      FLAGWRD0
000044: 10,3431           00003                           RELINT                                         #  RELEASE INTERUPT INHIBIT
000045:
000046: 10,3432           24002                           INCR     Q                                     #  OBTAIN THE CORRECT RETURN ADDRESS
000047: 10,3433           00002                           TC       Q                                     #  RETURN
000048:
000049: 10,3434           54001        DOWNENT2           TS       L                                     #  WHICH FLAGWORD IS IT
000050: 10,3435           74757                           MASK     OCT7
000051: 10,3436           56001                           XCH      L                                     #  SAVE IN L FOR INDEXING
000052:
000053: 10,3437           75660                           MASK     OCT77770                              #  OBTAIN THE BIT INFORMATION
000054: 10,3440           40000                           COM                                            #  START TO PROCESS THE INFORMATION
000055:
000056: 10,3441           00004                           INHINT                                         #  PREVENT INTERUPTS
000057: 10,3442           50001                           NDX      L
000058: 10,3443           70074                           MASK     FLAGWRD0
000059: 10,3444           50001                           NDX      L
000060: 10,3445           54074                           TS       FLAGWRD0
000061: 10,3446           00003                           RELINT                                         #  RELEASE INTERUPT INHIBIT
000062:
000063: 10,3447           24002                           INCR     Q                                     #  OBTAIN THE CORRECT RETURN ADDRESS
000064: 10,3450           00002                           TC       Q                                     #  RETURN
000065:
000066: 10,3451     4757               OCT7               EQUALS   SEVEN
000067:


000069:                                                                                                  #      UPFLAG AND DOWNFLAG ARE ENTIRELY GENERAL FLAG SETTING AND CLEARING SUBROUTINES.   USING THEM, WHETHER OR
000070:                                                                                                  #  NOT IN INTERRUPT, ONE MAY SET OR CLEAR ANY SINGLE, NAMED BIT IN ANY ERASABLE REGISTER, SUBJECT OF COURSE TO
000071:                                                                                                  #  EBANK SETTING.   A "NAMED" BIT, AS THE WORD IS USED HERE, IS ANY BIT WITH A NAME FORMALLY ASSIGNED BY THE YUL
000072:                                                                                                  #  ASSEMBLER.
000073:
000074:                                                                                                  #      AT PRESENT THE ONLY NAMED BITS ARE THOSE IN THE FLAGWORDS.   ASSEMBLER CHANGES WILL MAKE IT POSSIBLE TO
000075:                                                                                                  #  NAME ANY BIT IN ERASABLE MEMORY.
000076:
000077:                                                                                                  #      CALLING SEQUENCES ARE AS FOLLOWS :-
000078:                                                                                                  #                TC      UPFLAG                  TC      DOWNFLAG
000079:                                                                                                  #                ADRES   NAME OF FLAG            ADRES   NAME OF FLAG
000080:
000081:                                                                                                  #      RETURN IS TO THE LOCATION FOLLOWING THE "ADRES" ABOUT .58 MS AFTER THE "TC".
000082:
000083:                                                                                                  #      UPON RETURN A CONTAINS THE CURRENT FLAGWRD SETTING.
000084:
000085:    5504                                           BLOCK    02
000086:    4000                                           SETLOC   FFTAG1
000087:    4000                                           BANK
000088:    5504                                           COUNT*   $$/FLAG
000089:
000090:    5504           30002        UPFLAG             CA       Q
000091:    5505           05522                           TC       DEBIT
000092:    5506           40000                           COM                                            #  +(15 - BIT)
000093:    5507           00006                           EXTEND
000094:    5510           04001                           ROR      LCHAN                                 #  SET BIT
000095:    5511           50061        COMFLAG            INDEX    ITEMP1
000096:    5512           54074                           TS       FLAGWRD0
000097:    5513           22063                           LXCH     ITEMP3
000098:    5514           00003                           RELINT
000099:    5515           00001                           TC       L
000100:
000101:    5516           30002        DOWNFLAG           CA       Q
000102:    5517           05522                           TC       DEBIT
000103:    5520           70001                           MASK     L                                     #  RESET BIT
000104:    5521           15511                           TCF      COMFLAG
000105:
000106:    5522           64753        DEBIT              AD       ONE                                   #  GET DE BITS
000107:    5523           00004                           INHINT
000108:    5524           54063                           TS       ITEMP3
000109:    5525           34762                           CA       LOW4                                  #  DEC15
000110:    5526           54061                           TS       ITEMP1
000111:    5527           50063                           INDEX    ITEMP3
000112:    5530           27777                           CA       0          -1                         #  ADRES
000113:    5531           54001                           TS       L
000114:    5532           34755                           CA       ZERO


000116:    5533           00006                           EXTEND
000117:    5534           10061                           DV       ITEMP1                                #  A = FLAGWRD, L = (15 - BIT)
000118:    5535           52062                           DXCH     ITEMP1
000119:    5536           50061                           INDEX    ITEMP1
000120:    5537           30074                           CA       FLAGWRD0
000121:    5540           54001                           TS       L                                     #  CURRENT STATE
000122:    5541           50062                           INDEX    ITEMP2
000123:    5542           44735                           CS       BIT15                                 #  -(15 - BIT)
000124:    5543           00002                           TC       Q
000125:


000127:                                                                                                  #  DELAYJOB - A GENERAL ROUTINE TO DELAY A JOB A SPECIFIC AMOUNT OF TIME BEFORE PICKING UP AGAIN.
000128:
000129:                                                                                                  #  ENTRANCE REQUIREMENTS ...
000130:                                                                                                  #                CAF     DT              DELAY JOB FOR DT CENTISECS
000131:                                                                                                  #                TC      BANKCALL
000132:                                                                                                  #                CADR    DELAYJOB
000133:
000134: 06,3715                                           BANK     06
000135: 00,2000                                           SETLOC   DLAYJOB
000136: 00,2000                                           BANK
000137:
000138:                                                                                                  #  THIS MUST REMAIN IN BANK 0 *****************************************
000139:
000140: 00,3735                                           COUNT*   $$/DELAY
000141: 00,3735           00004        DELAYJOB           INHINT
000142: 00,3736           54002                           TS       Q                                     #  STORE DELAY DT IN Q FOR DLY -1 IN
000143:
000144: 00,3737           34752                           CAF      DELAYNUM                              #  WAITLIST
000145: 00,3740           54070        DELLOOP            TS       RUPTREG1
000146: 00,3741           50000                           INDEX    A
000147: 00,3742           31326                           CA       DELAYLOC                              #  IS THIS DELAYLOC AVAILABLE
000148: 00,3743           00006                           EXTEND
000149: 00,3744           13752                           BZF      OK2DELAY                              #  YES
000150:
000151: 00,3745           10070                           CCS      RUPTREG1                              #  NO, TRY NEXT DELAYLOC
000152: 00,3746           13740                           TCF      DELLOOP
000153:
000154: 00,3747           52134                           DXCH     BUF2
000155: 00,3750           05710                           TC       BAILOUT1                              #  NO AVAILABLE LOCS.
000156: 00,3751           01104                           OCT      1104
000157:
000158: 00,3752           33772        OK2DELAY           CA       TCSLEEP                               #  SET WAITLIST IMMEDIATE RETURN
000159: 00,3753           54061                           TS       WAITEXIT
000160:
000161: 00,3754           30004                           CA       FBANK
000162: 00,3755           60070                           AD       RUPTREG1                              #  STORE BBANK FOR TASK CALL
000163: 00,3756           54001                           TS       L
000164:
000165: 00,3757           33773                           CAF      WAKECAD                               #  STORE CADR FOR TASK CALL
000166: 00,3760           15211                           TCF      DLY2       -1                         #  DLY IS IN WAITLIST ROUTINE
000167:
000168: 00,3761           04645        TCGETCAD           TC       MAKECADR                              #  GET CALLERS FCADR
000169:
000170: 00,3762           50070                           INDEX    RUPTREG1
000171: 00,3763           55326                           TS       DELAYLOC                              #  SAVE DELAY CADRS
000172:
000173: 00,3764           05133                           TC       JOBSLEEP
000174:
000175: 00,3765           34755        WAKER              CAF      ZERO
000176: 00,3766           50006                           INDEX    BBANK
000177: 00,3767           57326                           XCH      DELAYLOC                              #  MAKE DELAYLOC AVAILABLE


000179: 00,3770           05137                           TC       JOBWAKE
000180:
000181: 00,3771           05261                           TC       TASKOVER
000182:
000183: 00,3772           03757        TCSLEEP            GENADR   TCGETCAD   -2
000184: 00,3773           03765        WAKECAD            GENADR   WAKER
000185:


000187:                                                                                                  #  GENTRAN, A BLOCK TRANSFER ROUTINE.
000188:
000189:                                                                                                  #  WRITTEN BY D. EYLES
000190:                                                                                                  #  MOD 1 BY KERNAN                               UTILITYM REV 17 11/18/67
000191:
000192:                                                                                                  #  MOD 2 BY SCHULENBERG (REMOVE RELINT) SKIPPER REV 4 2/28/68
000193:
000194:                                                                                                  #           THIS ROUTINE IS USEFULL FOR TRANSFERING N CONSECUTIVE ERASABLE OR FIXED QUANTITIES TO SOME OTHER N
000195:                                                                                                  #  CONSECUTIVE ERASABLE LOCATIONS.  IF BOTH BLOCKS OF DATA ARE IN SWITCHABLE EBANKS, THEY MUST BE IN THE SAME ONE.
000196:
000197:                                                                                                  #           GENTRAN IS CALLABLE IN A JOB AS WELL AS A RUPT.  THE CALLING SEQUENCE IS:
000198:                                                                                                  #                                          I        CA    N-1              # OF QUANTITIES MINUS ONE.
000199:                                                                                                  #                                          I +1     TC    GENTRAN          IN FIXED-FIXED.
000200:                                                                                                  #                                          I +2     ADRES L                STARTING ADRES OF DATA TO BE MOVED.
000201:                                                                                                  #                                          I +3     ADRES M                STARTING ADRES OF DUPLICATION BLOCK.
000202:                                                                                                  #                                          I +4                            RETURNS HERE.
000203:
000204:                                                                                                  #           GENTRAN TAKES 25 MCT'S (300 MICROSECONDS) PER ITEM + 5 MCT'S (60 MICS) FOR ENTERING AND EXITING.
000205:                                                                                                  #           A, L AND ITEMP1 ARE NOT PRESERVED.
000206:
000207:    5544                                           BLOCK    02
000208:    4000                                           SETLOC   FFTAG4
000209:    4000                                           BANK
000210:
000211:    5544     0061                                  EBANK=   ITEMP1
000212:
000213:    5544                                           COUNT*   $$/TRAN
000214:
000215:    5544           00004        GENTRAN            INHINT
000216:    5545           54061                           TS       ITEMP1                                #  SAVE N-1.
000217:    5546           50002                           INDEX    Q                                     #  C(Q) = ADRES L.
000218:    5547           60000                           AD       0                                     #  ADRES (L + N - 1).
000219:    5550           50000                           INDEX    A
000220:    5551           30000                           CA       0                                     #  C(ABOVE).
000221:    5552           54001                           TS       L                                     #  SAVE DATA.
000222:    5553           30061                           CA       ITEMP1
000223:    5554           50002                           INDEX    Q
000224:    5555           60001                           AD       1                                     #  ADRES (M + N - 1).
000225:    5556           50000                           INDEX    A
000226:    5557           22000                           LXCH     0                                     #  STUFF IT.
000227:    5560           10061                           CCS      ITEMP1                                #  LOOP UNTIL N-1 = 0.
000228:    5561           15545                           TCF      GENTRAN    +1
000229:    5562           16740                           TCF      Q+2                                   #  RETURN TO CALLER.
000230:


000232:                                                                                                  #  B5OFF   ZERO BIT 5 OF EXTVBACT, WHICH IS SET BY TESTXACT.
000233:                                                                                                  #           MAY BE USED AS NEEDED BY ANY EXTENDED VERB WHICH HAS DONE TESTXACT
000234:
000235:    5563                                           COUNT*   $$/EXTVB
000236:
000237:    5563           44747        B5OFF              CS       BIT5
000238:    5564           71044                           MASK     EXTVBACT
000239:    5565           55044                           TS       EXTVBACT
000240:    5566           05155                           TC       ENDOFJOB
000241:
000242:
000243:

End of include-file SERVICE_ROUTINES.agc.  Parent file is MAIN.agc


