
Source Code


000002:                                                                                                  ## Copyright:   Public domain.
000003:                                                                                                  ## Filename:    SINGLE_PRECISION_SUBROUTINES.agc
000004:                                                                                                  ## Purpose:     The main source file for Luminary revision 069.
000005:                                                                                                  ##              It is part of the source code for the original release
000006:                                                                                                  ##              of the flight software for the Lunar Module's (LM) Apollo
000007:                                                                                                  ##              Guidance Computer (AGC) for Apollo 10. The actual flown
000008:                                                                                                  ##              version was Luminary 69 revision 2, which included a
000009:                                                                                                  ##              newer lunar gravity model and only affected module 2.
000010:                                                                                                  ##              This file is intended to be a faithful transcription, except
000011:                                                                                                  ##              that the code format has been changed to conform to the
000012:                                                                                                  ##              requirements of the yaYUL assembler rather than the
000013:                                                                                                  ##              original YUL assembler.
000014:                                                                                                  ## Reference:   p.  1097
000015:                                                                                                  ## Assembler:   yaYUL
000016:                                                                                                  ## Contact:     Ron Burkey <info@sandroid.org>.
000017:                                                                                                  ## Website:     www.ibiblio.org/apollo/index.html
000018:                                                                                                  ## Mod history: 2016-12-13 MAS  Created from Luminary 99.
000019:                                                                                                  ##              2016-12-18 MAS  Updated from comment-proofed Luminary 99 version.
000020:                                                                                                  ##              2016-12-26 RRB  Updated for Luminary 69.
000021:                                                                                                  ##              2017-01-28 RSB  Proofed comment text using octopus/prooferComments
000022:                                                                                                  ##                              but no errors found.
000023:


000025:    5032                                           BLOCK    02
000026:
000027:                                                                                                  #  SINGLE PRECISION SINE AND COSINE
000028:
000029:    5032                                           COUNT*   $$/INTER
000030:    5032           64736        SPCOS              AD       HALF                                  #  ARGUMENTS SCALED AT PI
000031:    5033           55076        SPSIN              TS       TEMK
000032:    5034           15036                           TCF      SPT
000033:    5035           41076                           CS       TEMK
000034:    5036           60000        SPT                DOUBLE
000035:    5037           55076                           TS       TEMK
000036:    5040           15051                           TCF      POLLEY
000037:    5041           57076                           XCH      TEMK
000038:    5042           51076                           INDEX    TEMK
000039:    5043           64734                           AD       LIMITS
000040:    5044           40000                           COM
000041:    5045           61076                           AD       TEMK
000042:    5046           55076                           TS       TEMK
000043:    5047           15051                           TCF      POLLEY
000044:    5050           15067                           TCF      ARG90
000045:    5051           00006        POLLEY             EXTEND
000046:    5052           71076                           MP       TEMK
000047:    5053           55077                           TS       SQ
000048:    5054           00006                           EXTEND
000049:    5055           75005                           MP       C5/2
000050:    5056           67736                           AD       C3/2
000051:    5057           00006                           EXTEND
000052:    5060           71077                           MP       SQ
000053:    5061           67716                           AD       C1/2
000054:    5062           00006                           EXTEND
000055:    5063           71076                           MP       TEMK
000056:    5064           20001                           DDOUBL
000057:    5065           55076                           TS       TEMK
000058:    5066           00002                           TC       Q
000059:    5067           50000        ARG90              INDEX    A
000060:    5070           44734                           CS       LIMITS
000061:    5071           00002                           TC       Q                                     #  RESULT SCALED AT 1
000062:
000063:

End of include-file SINGLE_PRECISION_SUBROUTINES.agc.  Parent file is MAIN.agc


