
Source Code


000002:                                                                                                  ## Copyright:   Public domain.
000003:                                                                                                  ## Filename:    SPS_BACK-UP_RCS_CONTROL.agc
000004:                                                                                                  ## Purpose:     The main source file for Luminary revision 069.
000005:                                                                                                  ##              It is part of the source code for the original release
000006:                                                                                                  ##              of the flight software for the Lunar Module's (LM) Apollo
000007:                                                                                                  ##              Guidance Computer (AGC) for Apollo 10. The actual flown
000008:                                                                                                  ##              version was Luminary 69 revision 2, which included a
000009:                                                                                                  ##              newer lunar gravity model and only affected module 2.
000010:                                                                                                  ##              This file is intended to be a faithful transcription, except
000011:                                                                                                  ##              that the code format has been changed to conform to the
000012:                                                                                                  ##              requirements of the yaYUL assembler rather than the
000013:                                                                                                  ##              original YUL assembler.
000014:                                                                                                  ## Reference:   pp. 1500-1502
000015:                                                                                                  ## Assembler:   yaYUL
000016:                                                                                                  ## Contact:     Ron Burkey <info@sandroid.org>.
000017:                                                                                                  ## Website:     www.ibiblio.org/apollo/index.html
000018:                                                                                                  ## Mod history: 2016-12-13 MAS  Created from Luminary 99.
000019:                                                                                                  ##              2016-12-18 MAS  Updated from comment-proofed Luminary 99 version.
000020:                                                                                                  ##              2017-01-22 HG   Transcribed
000021:                                                                                                  ##              2017-01-28 RSB  Proofed comment text using octopus/prooferComments
000022:                                                                                                  ##                              and fixed errors found.
000023:


000025:                                                                                                  #  PROGRAM NAME:  SPSRCS
000026:
000027:                                                                                                  #  AUTHOR:  EDGAR M. OSHIKA (AC ELECTRONICS)
000028:
000029:                                                                                                  #  MODIFIED:  TO RETURN TO ALL AXES VIA Q BY P. S. WEISSMAN, OCT 7, 1968
000030:
000031:                                                                                                  #  FUNCTIONAL DESCRIPTION:
000032:
000033:                                                                                                  #  THIS PROGRAM CONTROLS THE FIRING OF ALL RCS JETS IN THE DOCKED CONFIGURATION ACCORDING TO THE FOLLOWING PHASE
000034:                                                                                                  #  PLANE LOGIC.
000035:
000036:                                                                                                  #  1.  OUTER RATE LIMIT (SPSRCS)
000037:
000038:                                                                                                  #  IF MAGNITUDE OF EDOT IS GREATER THAN 1.73 DEG/SEC SET JET FIRING TIME, TJ, TO REDUCE RATE AND THEN RETURN TO
000039:                                                                                                  #  CALLING PROGRAM (REQUESTING 4 JETS FOR P-AXIS).
000040:                                                                                                  #  OTHERWISE, CONTINUE.
000041:
000042:                                                                                                  #  2.  RATE DEAD BAND TEST ( JTONTEST)
000043:
000044:                                                                                                  #  IF JETS ARE FIRING NEGATIVE AND RATE IS GREATER THAN -0.101 DEG/SEC, LEAVE JETS ON AND RETURN,
000045:                                                                                                  #  IF JETS ARE FIRING POSITIVE AND RATE IS LESS THAN +0.101 DEG/SEC, LEAVE JETS ON AND RETURN, OTHERWISE CONTINUE.
000046:
000047:                                                                                                  #  3.  COASTING TEST (SPSSTART)
000048:
000049:                                                                                                  #  IF STATE (E,EDOT) IS BELOW LINE  E + 4 X EDOT > -1.4 DEG  AND EDOT IS LESS THAN 1.30 DEG/SEC SET JET TIME POSI-
000050:                                                                                                  #  TIVE AND RETURN,
000051:                                                                                                  #  IF STATE IS ABOVE LINE E + 4 X EDOT > +1.4 DEG AND EDOT IS GREATER THAN -1.30 DEG/SEC, SET JET TIME NEGATIVE
000052:                                                                                                  #  AND RETURN,
000053:                                                                                                  #  OTHERWISE, SET JET TIME ZERO AND RETURN.
000054:
000055:                                                                                                  #  THE MINIMUM PULSE WIDTH OF THIS CONTROLLER IS DETERMINED BY THE REPETITION  RATE AT WHICH THIS ROUTINE IS CALLED
000056:                                                                                                  #  AND IS NOMINALLY 100 MS FOR ALL AXES IN DRIFTING FLIGHT.   DURING POWERED FLIGHT THE MINIMUM IS 100 MS FOR THE
000057:                                                                                                  #  P AXIS AND 200 MS FOR THE CONTROL OF THE U AND V AXES.
000058:
000059:                                                                                                  #  CALLING SEQUENCE:
000060:
000061:                                                                                                  #           TC     SPSRCS          FROM Q,R AXES RCS AUTOPILOT
000062:                                                                                                  #                      INHINT                  FROM P-AXIS RCS AUTOPILOT
000063:                                                                                                  #                      TC      IBNKCALL
000064:                                                                                                  #                      CADR    SPSRCS
000065:
000066:
000067:                                                                                                  #  EXIT:
000068:
000069:                                                                                                  #           TC     Q
000070:                                                                                                  #  ALARM/ABORT MODE:    NONE
000071:
000072:                                                                                                  #  SUBROUTINES CALLED:    NONE
000073:
000074:                                                                                                  #  INPUT:      E, EDOT
000075:


000077:                                                                                                  #             TJP, TJV, TJU           TJ MUST NOT BE NEGATIVE ZERO
000078:
000079:                                                                                                  #  OUTPUT:    TJP, TJV, TJU
000080:                                                                                                  #             NUMBERT = 6,            WHEN RATE LIMITING P AXIS.
000081:
000082:
000083: 17,3700                                           BANK     17
000084: 17,2000                                           SETLOC   DAPS2
000085: 17,2000                                           BANK
000086:
000087: 17,3700                                           COUNT*   $$/DAPBU
000088:
000089: 17,3700  E6,1525                                  EBANK=   TJU
000090: 17,3700           31425        SPSRCS             CA       EDOT
000091: 17,3701           00006                           EXTEND
000092: 17,3702           74766                           MP       RATELIM1                              #  OUTER RATE LIMIT = 1.73 DEG/SEC
000093: 17,3703           00006                           EXTEND
000094: 17,3704           13717                           BZF      JTONTEST
000095:
000096: 17,3705           54001                           TS       L
000097: 17,3706           36241                           CA       SIX
000098: 17,3707           55741                           TS       NUMBERT
000099: 17,3710           10001                           CCS      L
000100: 17,3711           13753                           TCF      NEGTHRST
000101: 17,3712           05677                           TC       CCSHOLE                               #  **TEMP ** FILL WITH A CONSTANT
000102: 17,3713  17,3664               RATELIM2           =        .1AT4                                 #  = OCT 00632,  1.125 DEG/SEC
000103: 17,3713           34736        POSTHRST           CA       HALF
000104:
000105: 17,3714           51476                           NDX      AXISCTR
000106: 17,3715           55525                           TS       TJU
000107: 17,3716           00002                           TC       Q
000108:
000109: 17,3717           51476        JTONTEST           NDX      AXISCTR
000110: 17,3720           11525                           CCS      TJU
000111: 17,3721           13725                           TCF      +4
000112: 17,3722           13737                           TCF      SPSSTART
000113: 17,3723           31425                           CA       EDOT
000114: 17,3724           13726                           TCF      +2
000115:
000116: 17,3725           41425                 +4        CS       EDOT
000117: 17,3726           22000                           LXCH     A
000118: 17,3727           40111                           CS       DAPBOOLS                              #  IF DRIFTBIT = 1, USE ZERO TARGET RATE
000119: 17,3730           74744                           MASK     DRIFTBIT                              #  IF DRIFTBIT = 0, USE 0.10 RATE TARGET
000120: 17,3731           10000                           CCS      A
000121: 17,3732           34767                           CA       RATEDB1
000122: 17,3733           60001                           AD       L
000123: 17,3734           00006                           EXTEND
000124: 17,3735           63737                           BZMF     +2
000125: 17,3736           13716                           TCF      POSTHRST   +3
000126:


000128: 17,3737           31425        SPSSTART           CA       EDOT
000129: 17,3740           61750                           AD       E
000130: 17,3741           00006                           EXTEND
000131: 17,3742           71411                           MP       DKDB                                  #  PAD LOADED DEADBAND. FRESHSTART: 1.4 DEG
000132: 17,3743           00006                           EXTEND
000133: 17,3744           13761                           BZF      TJZERO
000134:
000135: 17,3745           00006                           EXTEND
000136: 17,3746           63755                           BZMF     +7
000137: 17,3747           31425                           CA       EDOT
000138: 17,3750           63664                           AD       RATELIM2
000139: 17,3751           00006                           EXTEND
000140: 17,3752           63761                           BZMF     TJZERO
000141: 17,3753           44736        NEGTHRST           CS       HALF
000142: 17,3754           13714                           TCF      POSTHRST   +1
000143: 17,3755           43664                 +7        CS       RATELIM2
000144: 17,3756           61425                           AD       EDOT
000145: 17,3757           00006                           EXTEND
000146: 17,3760           63713                           BZMF     POSTHRST
000147: 17,3761           34755        TJZERO             CA       ZERO
000148: 17,3762           13714                           TCF      POSTHRST   +1
000149:
000150:
000151: 17,3763     4766               RATELIM1           =        CALLCODE                              #  = 00032, CORRESPONDING TO 1.73 DEG/SEC
000152: 17,3763     4767               RATEDB1            =        TBUILDFX                              #   = 00045, CORRESPONDS TO 0.101 DEG/SEC

End of include-file SPS_BACK-UP_RCS_CONTROL.agc.  Parent file is MAIN.agc


