
Source Code


000002:                                                                                                  ## Copyright:   Public domain.
000003:                                                                                                  ## Filename:    STABLE_ORBIT_-_P38-P39.agc
000004:                                                                                                  ## Purpose:     The main source file for Luminary revision 069.
000005:                                                                                                  ##              It is part of the source code for the original release
000006:                                                                                                  ##              of the flight software for the Lunar Module's (LM) Apollo
000007:                                                                                                  ##              Guidance Computer (AGC) for Apollo 10. The actual flown
000008:                                                                                                  ##              version was Luminary 69 revision 2, which included a
000009:                                                                                                  ##              newer lunar gravity model and only affected module 2.
000010:                                                                                                  ##              This file is intended to be a faithful transcription, except
000011:                                                                                                  ##              that the code format has been changed to conform to the
000012:                                                                                                  ##              requirements of the yaYUL assembler rather than the
000013:                                                                                                  ##              original YUL assembler.
000014:                                                                                                  ## Reference:   pp. 731-738
000015:                                                                                                  ## Assembler:   yaYUL
000016:                                                                                                  ## Contact:     Ron Burkey <info@sandroid.org>.
000017:                                                                                                  ## Website:     www.ibiblio.org/apollo/index.html
000018:                                                                                                  ## Mod history: 2016-12-13 MAS  Created from Luminary 99.
000019:                                                                                                  ##              2016-12-15 MAS  Updated from comment-proofed Luminary 99 version.
000020:                                                                                                  ##              2017-01-11 RRB  Updated for Luminary 69.
000021:                                                                                                  ##              2017-01-20 HG   Remove DECTWO
000022:                                                                                                  ##              2017-01-28 RSB  Proofed comment text using octopus/prooferComments
000023:                                                                                                  ##                              and fixed errors found.
000024:                                                                                                  ##              2017-03-17 RSB  Comment-text fixes identified in diff'ing
000025:                                                                                                  ##                              Luminary 99 vs Comanche 55.
000026:


000028:                                                                                                  #  STABLE ORBIT RENDEZVOUS PROGRAMS (P38 AND P78)
000029:
000030:                                                                                                  #  MOD NO -1             LOG SECTION - STABLE ORBIT - P38-P39
000031:                                                                                                  #  MOD BY RUDNICKI.S     DATE 25JAN68
000032:
000033:                                                                                                  #  FUNCTIONAL DESCRIPTION
000034:
000035:                                                                                                  #        P38 AND P78 CALCULATE THE REQUIRED DELTA V AND OTHER INITIAL
000036:                                                                                                  #        CONDITIONS REQUIRED BY THE AGC TO (1) PUT THE ACTIVE VEHICLE
000037:                                                                                                  #        ON A TRANSFER TRAJECTORY THAT INTERCEPTS THE PASSIVE VEHICLE
000038:                                                                                                  #        ORBIT A GIVEN DISTANCE, DELTA R, EITHER AHEAD OF OR BEHIND THE
000039:                                                                                                  #        PASSIVE VEHICLE AND (2) ACTUALLY PLACE THE ACTIVE VEHICLE IN THE
000040:                                                                                                  #        PASSIVE VEHICLE ORBIT WITH A DELTA R SEPARATION BETWEEN THE TWO
000041:                                                                                                  #        VEHICLES
000042:
000043:                                                                                                  #  CALLING SEQUENCE
000044:
000045:                                                                                                  #        ASTRONAUT REQUEST THRU DSKY
000046:
000047:                                                                                                  #        V37E38E         IF THIS VEHICLE IS ACTIVE VEHICLE
000048:                                                                                                  #        V37E78E         IF OTHER VEHICLE IS ACTIVE VEHICLE
000049:
000050:                                                                                                  #  INPUT
000051:
000052:                                                                                                  #        (1)     SOI MANEUVER
000053:
000054:                                                                                                  #                (A)  TIG        TIME OF SOI MANEUVER
000055:                                                                                                  #                (B)  CENTANG    ORBITAL CENTRAL ANGLE OF THE PASSIVE VEHICLE
000056:                                                                                                  #                                DURING TRANSFER FROM TIG TO TIME OF INTERCEPT
000057:                                                                                                  #                (C)  DELTAR     THE DESIRED SEPARATION OF THE TWO VEHICLES
000058:                                                                                                  #                                SPECIFIED AS A DISTANCE ALONG THE PASSIVE VEHICLE
000059:                                                                                                  #                                ORBIT
000060:                                                                                                  #                (D)  OPTION     EQUALS 1 FOR SOI
000061:
000062:                                                                                                  #        (2)     SOR MANEUVER
000063:
000064:                                                                                                  #                (A)  TIG        TIME OF SOR MANEUVER
000065:                                                                                                  #                (B)  CENTANG    AN OPTIONAL RESPECIFICATION OF 1 (B) ABOVE
000066:                                                                                                  #                (C)  OPTION     EQUALS 2 FOR SOR
000067:                                                                                                  #                (D)  DELTTIME   THE TIME REQUIRED TO TRAVERSE DELTA R WHEN
000068:                                                                                                  #                                TRAVELING AT A VELOCITY EQUAL TO THE HORIZONTAL
000069:                                                                                                  #                                VELOCITY OF THE PASSIVE VEHICLE - SAVED FROM
000070:                                                                                                  #                                SOI PHASE
000071:                                                                                                  #                (E)  TINT       TIME OF INTERCEPT (SOI) - SAVED FROM SOI PHASE
000072:
000073:                                                                                                  #  OUTPUT
000074:
000075:                                                                                                  #        (1)  TRKMKCNT   NUMBER OF MARKS
000076:                                                                                                  #        (2)  TTOGO      TIME TO GO
000077:                                                                                                  #        (3)  +MGA       MIDDLE GIMBAL ANGLE


000079:                                                                                                  #        (4)  DSPTEM1    TIME OF INTERCEPT OF PASSIVE VEHICLE ORBIT
000080:                                                                                                  #                        (FOR SOI ONLY)
000081:                                                                                                  #        (5)  POSTTPI    PERIGEE ALTITUDE OF ACTIVE VEHICLE ORBIT AFTER
000082:                                                                                                  #                        THE SOI (SOR) MANEUVER
000083:                                                                                                  #        (6)  DELVTPI    MAGNITUDE OF DELTA V AT SOI (SOR) TIME
000084:                                                                                                  #        (7)  DELVTPF    MAGNITUDE OF DELTA V AT INTERCEPT TIME
000085:                                                                                                  #        (8)  DELVLVC    DELTA VELOCITY AT SOI (AND SOR) - LOCAL VERTICAL
000086:                                                                                                  #                        COORDINATES
000087:
000088:                                                                                                  #  SUBROUTINES USED
000089:
000090:                                                                                                  #        AVFLAGA
000091:                                                                                                  #        AVFLAGP
000092:                                                                                                  #        VNDSPLY
000093:                                                                                                  #        BANKCALL
000094:                                                                                                  #        GOFLASHR
000095:                                                                                                  #        GOTOPOOH
000096:                                                                                                  #        BLANKET
000097:                                                                                                  #        ENDOFJOB
000098:                                                                                                  #        PREC/TT
000099:                                                                                                  #        SELECTMU
000100:                                                                                                  #        INTRPVP
000101:                                                                                                  #        MAINRTNE
000102:
000103: 04,2750                                           BANK     04
000104: 34,2000                                           SETLOC   STBLEORB
000105: 34,2000                                           BANK
000106:
000107: 34,3271  E7,1466                                  EBANK=   SUBEXIT
000108: 34,3271                                           COUNT*   $$/P3879
000109:
000110: 34,3271           04616        P38                TC       BANKCALL
000111: 34,3272           72313                           CADR     AVFLAGA                               #  THIS VEHICLE ACTIVE
000112: 34,3273           03276                           TC       +3
000113: 34,3274           04616        P78                TC       BANKCALL
000114: 34,3275           72320                           CADR     AVFLAGP                               #  OTHER VEHICLE ACTIVE
000115: 34,3276           04616                           TC       BANKCALL
000116: 34,3277           72325                           CADR     P20FLGON                              #  SET UPDATFLG, TRACKFLG
000117: 34,3300           33630                           CAF      V06N33SR                              #  DISPLAY TIG
000118: 34,3301           03617                           TC       VNDSPLY
000119: 34,3302           33631                           CAF      V06N55SR                              #  DISPLAY CENTANG
000120: 34,3303           04616                           TCR      BANKCALL
000121: 34,3304           20510                           CADR     GOFLASHR
000122: 34,3305           16001                           TCF      GOTOPOOH                              #  TERMINATE
000123: 34,3306           13313                           TCF      +5                                    #  PROCEED
000124: 34,3307           13302                           TCF      -5                                    #  RECYCLE
000125: 34,3310           36244                           CAF      THREE                                 #  IMMEDIATE RETURN - BLANK R1, R2
000126: 34,3311           05464                           TCR      BLANKET
000127: 34,3312           15155                           TCF      ENDOFJOB
000128: 34,3313           34756                           CAF      FIVE


000130: 34,3314           55144                           TS       OPTION1
000131: 34,3315           34753                           CAF      ONE
000132: 34,3316           55145                           TS       OPTION2                               #  OPTION CODE IS SET TO 1
000133: 34,3317           33632                           CAF      V04N06SR                              #  DISPLAY OPTION CODE - 1 = SOI, 2 = SOR
000134: 34,3320           04616                           TCR      BANKCALL
000135: 34,3321           20510                           CADR     GOFLASHR
000136: 34,3322           16001                           TCF      GOTOPOOH                              #  TERMINATE
000137: 34,3323           13330                           TCF      +5                                    #  PROCEED
000138: 34,3324           13317                           TCF      -5                                    #  RECYCLE
000139: 34,3325           34751                           CAF      BIT3                                  #  IMMEDIATE RETURN - BLANK R3
000140: 34,3326           05464                           TCR      BLANKET
000141: 34,3327           15155                           TCF      ENDOFJOB
000142: 34,3330           06036                           TC       INTPRET
000143: 34,3331           70535                           SLOAD    SR1
000144: 34,3332           01146                                    OPTION2
000145: 34,3333           71230                           BHIZ     DLOAD
000146: 34,3334           71342                                    OPTN1
000147: 34,3335           03627                                    TINT
000148: 34,3336           02307                           STORE    TINTSOI                               #  STORE FOR SOR PHASE
000149: 34,3337           77614                           CLRGO
000150: 34,3340           01230                                    OPTNSW                                #  OPTNSW; ON = SOI, OFF = SOR
000151: 34,3341           71373                                    JUNCTN1
000152: 34,3342           43014        OPTN1              SET      CLEAR                                 #  SOI
000153: 34,3343           01070                                    OPTNSW
000154: 34,3344           00670                                    UPDATFLG
000155: 34,3345           77624                           CALL
000156: 34,3346           71552                                    PREC/TT
000157: 34,3347           43015                           DAD      SET
000158: 34,3350           03440                                    TIG
000159: 34,3351           00470                                    UPDATFLG
000160: 34,3352           03627                           STORE    TINT                                  #  TI = TIG + TF
000161: 34,3353           77776                           EXIT
000162: 34,3354           33633                           CAF      V06N57SR                              #  DISPLAY DELTA R
000163: 34,3355           04616                           TCR      BANKCALL
000164: 34,3356           20510                           CADR     GOFLASHR
000165: 34,3357           16001                           TCF      GOTOPOOH                              #  TERMINATE
000166: 34,3360           13365                           TCF      +5                                    #  PROCEED
000167: 34,3361           13354                           TCF      -5                                    #  RECYCLE
000168: 34,3362           36241                           CAF      SIX                                   #  IMMEDIATE RETURN - BLANK R2, R3
000169: 34,3363           05464                           TCR      BLANKET
000170: 34,3364           15155                           TCF      ENDOFJOB
000171: 34,3365           00006                 +5        EXTEND
000172: 34,3366           31627                           DCA      TINT
000173: 34,3367           53046                           DXCH     DSPTEM1                               #  FOR DISPLAY
000174: 34,3370           33634                           CAF      V06N34SR                              #  DISPLAY TIME OF INTERCEPT
000175: 34,3371           03617                           TC       VNDSPLY
000176: 34,3372           06036                           TC       INTPRET
000177: 34,3373           45014        JUNCTN1            CLEAR    CALL
000178: 34,3374           04266                                    P39/79SW
000179: 34,3375           20041                                    SELECTMU                              #  SELECT MU, CLEAR FINALFLG, GO TO VN1645


000181: 34,3376           77624        RECYCLE            CALL
000182: 34,3377           71552                                    PREC/TT
000183: 34,3400           71214                           BOFF     DLOAD
000184: 34,3401           01350                                    OPTNSW
000185: 34,3402           71422                                    OPTN2
000186: 34,3403           03627                                    TINT
000187: 34,3404           34041                           STCALL   TDEC1                                 #  PRECISION UPDATE PASSIVE VEHICLE TO
000188: 34,3405           71603                                    INTRPVP                               #     INTERCEPT TIME
000189: 34,3406           53575                           VLOAD    UNIT
000190: 34,3407           00001                                    RATT                                  #  RP/(RP)
000191: 34,3410           47315                           PDVL     VXV
000192: 34,3411           00007                                    VATT
000193: 34,3412           60246                           ABVAL    NORM                                  #  (VP X RP/(RP))
000194: 34,3413           00047                                    X1
000195: 34,3414           56325                           PDDL     DDV
000196: 34,3415           02307                                    DELTAR
000197: 34,3416           77657                           SL*                                            #  DELTA R / (VP X RP/RP)
000198: 34,3417           20172                                    0          -7,1
000199: 34,3420           36311                           STCALL   DELTTIME                              #  DELTA T = (RP) DELTA R / (VP X RP)
000200: 34,3421           71426                                    JUNCTN2
000201: 34,3422           43345        OPTN2              DLOAD    DAD
000202: 34,3423           02307                                    TINTSOI
000203: 34,3424           00037                                    T
000204: 34,3425           03627                           STORE    TINT                                  #  TI = TI + TF
000205: 34,3426           45345        JUNCTN2            DLOAD    DSU
000206: 34,3427           03627                                    TINT
000207: 34,3430           02311                                    DELTTIME
000208: 34,3431           02313                           STORE    TARGTIME                              #  TT = TI - DELTA T
000209:
000210:                                                                                                  #  .... MAINRTNE ....
000211:
000212:                                                                                                  #  SUBROUTINES USED
000213:
000214:                                                                                                  #        S3435.25
000215:                                                                                                  #        PERIAPO1
000216:                                                                                                  #        SHIFTR1
000217:                                                                                                  #        VNDSPLY
000218:                                                                                                  #        BANKCALL
000219:                                                                                                  #        GOFLASH
000220:                                                                                                  #        GOTOPOOH
000221:                                                                                                  #        VN1645
000222:
000223: 34,3432           34041        MAINRTNE           STCALL   TDEC1                                 #  PRECISION UPDATE PASSIVE VEHICLE TO
000224: 34,3433           71603                                    INTRPVP                               #     TARGET TIME
000225: 34,3434           77745                           DLOAD
000226: 34,3435           03440                                    TIG
000227: 34,3436           03606                           STORE    INTIME
000228: 34,3437           77331                           SSP      VLOAD
000229: 34,3440           03467                                    SUBEXIT
000230: 34,3441           71445                                    TEST3979
000231: 34,3442           00001                                    RATT
000232: 34,3443           77624                           CALL


000234: 34,3444           73263                                    S3435.25
000235: 34,3445           43014        TEST3979           BOFF     BON
000236: 34,3446           04346                                    P39/79SW
000237: 34,3447           71456                                    MAINRTN1
000238: 34,3450           01311                                    FINALFLG
000239: 34,3451           71454                                    P39P79
000240: 34,3452           77614                           SET
000241: 34,3453           00470                                    UPDATFLG
000242: 34,3454           77776        P39P79             EXIT
000243: 34,3455           03503                           TC       DSPLY81                               #  FOR P39 AND P79
000244: 34,3456           51575        MAINRTN1           VLOAD    ABVAL
000245: 34,3457           03366                                    DELVEET3
000246: 34,3460           27574                           STOVL    DELVTPI                               #  DELTA V
000247: 34,3461           03504                                    VPASS4
000248: 34,3462           51451                           VSU      ABVAL
000249: 34,3463           03564                                    VTPRIME
000250: 34,3464           26354                           STOVL    DELVTPF                               #  DELTA V (FINAL) = V'T - VT
000251: 34,3465           03534                                    RACT3
000252: 34,3466           45115                           PDVL     CALL
000253: 34,3467           02343                                    VIPRIME
000254: 34,3470           46277                                    PERIAPO1                              #  GET PERIGEE ALTITUDE
000255: 34,3471           77624                           CALL
000256: 34,3472           46407                                    SHIFTR1
000257: 34,3473           03604                           STORE    POSTTPI
000258: 34,3474           43014                           BON      SET
000259: 34,3475           01311                                    FINALFLG
000260: 34,3476           71500                                    DSPLY58
000261: 34,3477           00470                                    UPDATFLG
000262: 34,3500           77776        DSPLY58            EXIT
000263: 34,3501           33635                           CAF      V06N58SR                              #  DISPLAY HP, DELTA V, DELTA V (FINAL)
000264: 34,3502           03617                           TC       VNDSPLY
000265: 34,3503           33636        DSPLY81            CAF      V06N81SR                              #  DISPLAY DELTA V (LV)
000266: 34,3504           03617                           TC       VNDSPLY
000267: 34,3505           06036                           TC       INTPRET
000268: 34,3506           77214                           CLEAR    VLOAD
000269: 34,3507           01267                                    XDELVFLG
000270: 34,3510           03366                                    DELVEET3
000271: 34,3511           37654                           STCALL   DELVSIN
000272: 34,3512           73542                                    VN1645                                #  DISPLAY TRKMKCNT, TTOGO, +MGA
000273: 34,3513           52014                           BON      GOTO
000274: 34,3514           04306                                    P39/79SW
000275: 34,3515           71537                                    P39/P79B
000276: 34,3516           71376                                    RECYCLE
000277:
000278:                                                                                                  #  STABLE ORBIT MIDCOURSE PROGRAM (P39 AND P79)
000279:
000280:                                                                                                  #  MOD NO -1             LOG SECTION - STABLE ORBIT - P38-P39
000281:                                                                                                  #  MOD BY RUDNICKI.S     DATE 25JAN68
000282:
000283:                                                                                                  #  FUNCTIONAL DESCRIPTION


000285:
000286:                                                                                                  #        P39 AND P79 CALCULATE THE REQUIRED DELTA V AND OTHER INITIAL
000287:                                                                                                  #        CONDITIONS REQUIRED BY THE AGC TO MAKE A MIDCOURSE CORRECTION
000288:                                                                                                  #        MANEUVER AFTER COMPLETING THE SOI MANEUVER BUT BEFORE MAKING
000289:                                                                                                  #        THE SOR MANEUVER
000290:
000291:                                                                                                  #  CALLING SEQUENCE
000292:
000293:                                                                                                  #        ASTRONAUT REQUEST THRU DSKY
000294:
000295:                                                                                                  #        V37E39E         IF THIS VEHICLE IS ACTIVE VEHICLE
000296:                                                                                                  #        V37E79E         IF OTHER VEHICLE IS ACTIVE VEHICLE
000297:
000298:                                                                                                  #  INPUT
000299:
000300:                                                                                                  #        (1)  TPASS4     TIME OF INTERCEPT - SAVED FROM P38/P78
000301:                                                                                                  #        (2)  TARGTIME   TIME THAT PASSIVE VEHICLE IS AT INTERCEPT POINT -
000302:                                                                                                  #                        SAVED FROM P38/P78
000303:
000304:                                                                                                  #  OUTPUT
000305:
000306:                                                                                                  #        (1)  TRKMKCNT   NUMBER OF MARKS
000307:                                                                                                  #        (2)  TTOGO      TIME TO GO
000308:                                                                                                  #        (3)  +MGA       MIDDLE GIMBAL ANGLE
000309:                                                                                                  #        (4)  DELVLVC    DELTA VELOCITY AT MID - LOCAL VERTICAL COORDINATES
000310:
000311:                                                                                                  #  SUBROUTINES USED
000312:
000313:                                                                                                  #        AVFLAGA
000314:                                                                                                  #        AVFLAGP
000315:                                                                                                  #        LOADTIME
000316:                                                                                                  #        SELECTMU
000317:                                                                                                  #        PRECSET
000318:                                                                                                  #        S34/35.1
000319:                                                                                                  #        MAINRTNE
000320:
000321: 34,3517           04616        P39                TC       BANKCALL
000322: 34,3520           72313                           CADR     AVFLAGA                               #  THIS VEHICLE ACTIVE
000323: 34,3521           00006                           EXTEND
000324: 34,3522           31401                           DCA      ATIGINC
000325: 34,3523           03530                           TC       P39/P79A
000326: 34,3524           04616        P79                TC       BANKCALL
000327: 34,3525           72320                           CADR     AVFLAGP                               #  OTHER VEHICLE ACTIVE
000328: 34,3526           00006                           EXTEND
000329: 34,3527           31403                           DCA      PTIGINC
000330: 34,3530           53574        P39/P79A           DXCH     KT                                    #  TIME TO PREPARE FOR BURN
000331: 34,3531           04616                           TC       BANKCALL
000332: 34,3532           72325                           CADR     P20FLGON                              #  SET UPDATFLG, TRACKFLG
000333: 34,3533           06036                           TC       INTPRET
000334: 34,3534           45014                           SET      CALL
000335: 34,3535           04066                                    P39/79SW


000337: 34,3536           20041                                    SELECTMU                              #  SELECT MU, CLEAR FINALFLG, GO TO VN1645
000338: 34,3537           43234        P39/P79B           RTB      DAD
000339: 34,3540           21462                                    LOADTIME
000340: 34,3541           03574                                    KT
000341: 34,3542           03440                           STORE    TIG                                   #  TIG = T (PRESENT) + PREPARATION TIME
000342: 34,3543           34041                           STCALL   TDEC1                                 #  PRECISION UPDATE ACTIVE AND PASSIVE
000343: 34,3544           46341                                    PRECSET                               #     VEHICLES TO TIG
000344: 34,3545           77624                           CALL
000345: 34,3546           73236                                    S34/35.1                              #  GET UNIT NORMAL
000346: 34,3547           52145                           DLOAD    GOTO
000347: 34,3550           02313                                    TARGTIME
000348: 34,3551           71432                                    MAINRTNE                              #  CALCULATE DELTA V AND DELTA V (LV)
000349:
000350:                                                                                                  #  .... PREC/TT ....
000351:                                                                                                  #  SUBROUTINES USED
000352:
000353:                                                                                                  #        PRECSET
000354:                                                                                                  #        TIMETHET
000355:                                                                                                  #        S34/35.1
000356:
000357: 34,3552           71220        PREC/TT            STQ      DLOAD
000358: 34,3553           03463                                    RTRN
000359: 34,3554           03440                                    TIG
000360: 34,3555           34041                           STCALL   TDEC1                                 #  PRECISION UPDATE ACTIVE AND PASSIVE
000361: 34,3556           46341                                    PRECSET                               #     VEHICLES TO TIG
000362: 34,3557           53775                           VLOAD    VSR*
000363: 34,3560           03550                                    RPASS3
000364: 34,3561           57176                                    0,2
000365: 34,3562           16655                           STODL    RVEC
000366: 34,3563           03617                                    CENTANG
000367: 34,3564           71406                           PUSH     COS
000368: 34,3565           16732                           STODL    CSTH
000369: 34,3566           43156                           SIN      SET
000370: 34,3567           03466                                    RVSW
000371: 34,3570           26730                           STOVL    SNTH
000372: 34,3571           03556                                    VPASS3
000373: 34,3572           77657                           VSR*
000374: 34,3573           57176                                    0,2
000375: 34,3574           36744                           STCALL   VVEC                                  #  GET TRANSFER TIME BASED ON CENTANG OF
000376: 34,3575           24745                                    TIMETHET                              #     PASSIVE VEHICLE
000377: 34,3576           77624                           CALL
000378: 34,3577           73236                                    S34/35.1                              #  GET UNIT NORMAL
000379: 34,3600           52145                           DLOAD    GOTO
000380: 34,3601           00037                                    T
000381: 34,3602           03463                                    RTRN
000382:
000383:                                                                                                  #  .... INTRPVP ....
000384:                                                                                                  #  SUBROUTINES USED
000385:
000386:                                                                                                  #        CSMPREC
000387:                                                                                                  #        LEMPREC


000389: 34,3603           43020        INTRPVP            STQ      BOFF                                  #  PRECISION UPDATE PASSIVE VEHICLE TO
000390: 34,3604           03463                                    RTRN                                  #     TDEC1
000391: 34,3605           01352                                    AVFLAG
000392: 34,3606           71613                                    OTHERV
000393: 34,3607           77624                           CALL
000394: 34,3610           27043                                    CSMPREC
000395: 34,3611           77650                           GOTO
000396: 34,3612           03463                                    RTRN
000397: 34,3613           77624        OTHERV             CALL
000398: 34,3614           27057                                    LEMPREC
000399: 34,3615           77650                           GOTO
000400: 34,3616           03463                                    RTRN
000401:
000402:                                                                                                  #  .... VNDSPLY ....
000403:                                                                                                  #  SUBROUTINES USED
000404:
000405:                                                                                                  #        BANKCALL
000406:                                                                                                  #        GOFLASH
000407:                                                                                                  #        GOTOPOOH
000408:
000409: 34,3617           00006        VNDSPLY            EXTEND                                         #  FLASH DISPLAY
000410: 34,3620           23463                           QXCH     RTRN
000411: 34,3621           55613                           TS       VERBNOUN
000412: 34,3622           31613                           CA       VERBNOUN
000413: 34,3623           04616                           TCR      BANKCALL
000414: 34,3624           20351                           CADR     GOFLASH
000415: 34,3625           16001                           TCF      GOTOPOOH                              #  TERMINATE
000416: 34,3626           01463                           TC       RTRN                                  #  PROCEED
000417: 34,3627           13622                           TCF      -5                                    #  RECYCLE
000418: 34,3630           01441        V06N33SR           VN       0633
000419: 34,3631           01467        V06N55SR           VN       0655
000420: 34,3632           01006        V04N06SR           VN       0406
000421: 34,3633           01471        V06N57SR           VN       0657
000422: 34,3634           01442        V06N34SR           VN       0634
000423: 34,3635           01472        V06N58SR           VN       0658
000424: 34,3636           01521        V06N81SR           VN       0681
000425:
000426:
000427:

End of include-file STABLE_ORBIT_-_P38-P39.agc.  Parent file is MAIN.agc


