
Source Code


000002:                                                                                                  ## Copyright:   Public domain.
000003:                                                                                                  ## Filename:    SYSTEM_TEST_STANDARD_LEAD_INS.agc
000004:                                                                                                  ## Purpose:     The main source file for Luminary revision 069.
000005:                                                                                                  ##              It is part of the source code for the original release
000006:                                                                                                  ##              of the flight software for the Lunar Module's (LM) Apollo
000007:                                                                                                  ##              Guidance Computer (AGC) for Apollo 10. The actual flown
000008:                                                                                                  ##              version was Luminary 69 revision 2, which included a
000009:                                                                                                  ##              newer lunar gravity model and only affected module 2.
000010:                                                                                                  ##              This file is intended to be a faithful transcription, except
000011:                                                                                                  ##              that the code format has been changed to conform to the
000012:                                                                                                  ##              requirements of the yaYUL assembler rather than the
000013:                                                                                                  ##              original YUL assembler.
000014:                                                                                                  ## Reference:   pp. 383-385
000015:                                                                                                  ## Assembler:   yaYUL
000016:                                                                                                  ## Contact:     Ron Burkey <info@sandroid.org>.
000017:                                                                                                  ## Website:     www.ibiblio.org/apollo/index.html
000018:                                                                                                  ## Mod history: 2016-12-13 MAS  Created from Luminary 99.
000019:                                                                                                  ##              2016-12-14 MAS  Updated from comment-proofed Luminary 99 version.
000020:                                                                                                  ##              2017-01-17 RRB  Updated for Luminary 69.
000021:                                                                                                  ##              2017-01-27 RSB  Proofed comment text using octopus/prooferComments
000022:                                                                                                  ##                              and fixed errors found.
000023:


000025: 22,3242  E5,1642                                  EBANK=   XSM
000026:
000027: 33,2045                                           BANK     33
000028: 04,2000                                           SETLOC   E/PROG
000029: 04,2000                                           BANK
000030:
000031: 04,2533                                           COUNT*   $$/P07
000032:
000033:                                                                                                  #  SPECIAL PROGRAMS TO EASE THE PANGS OF ERASABLE MEMORY PROGRAMS.
000034:
000035:                                                                                                  #  E/BKCALL      FOR DOING BANKCALLS FROM AND RETURNING TO ERASABLE.
000036:
000037:                                                                                                  #  THIS ROUTINE IS CALLABLE FROM ERASABLE OR FIXED.  LIKE BANKCALL, HOWEVER, SWITCHING BETWEEN S3 AND S4
000038:                                                                                                  #  IS NOT POSSIBLE.
000039:
000040:                                                                                                  #  THE CALLING SEQUENCE IS:
000041:
000042:                                                                                                  #        TC      BANKCALL
000043:                                                                                                  #        CADR    E/BKCALL
000044:                                                                                                  #        CADR    ROUTINE         WHERE YOU WANT TO GO IN FIXED.
000045:                                                                                                  #        RETURN HERE FROM DISPLAY TERMINATE, BAD STALL OR TC Q.
000046:                                                                                                  #        RETURN HERE FROM DISPLAY PROCEED OR GOOD RETURN FROM STALL.
000047:                                                                                                  #        RETURN HERE FROM DISPLAY ENTER OR RECYCLE.
000048:
000049:                                                                                                  #  THIS ROUTINE REQUIRES TWO ERASABLES (EBUF2, +1) IN UNSWITCHED WHICH ARE UNSHARED BY INTERRUPTS AND
000050:                                                                                                  #  OTHER EMEMORY PROGRAMS.
000051:
000052:                                                                                                  #  A + L ARE PRESERVED THROUGH BANKCALL AND E/BKCALL.
000053:
000054: 04,2533           52134        E/BKCALL           DXCH     BUF2                                  #  SAVE A,L AND GET DP RETURN.
000055: 04,2534           53170                           DXCH     EBUF2                                 #  SAVE DP RETURN.
000056: 04,2535           25167                           INCR     EBUF2                                 #  RETURN +1 BECAUSE DOUBLE CADR.
000057: 04,2536           30006                           CA       BBANK
000058: 04,2537           75012                           MASK     LOW10                                 #  GET CURRENT EBANK.  (SBANK SOMEDAY)
000059: 04,2540           27170                           ADS      EBUF2      +1                         #  FORM BBCON.  (WAS FBANK)
000060: 04,2541           51167                           NDX      EBUF2
000061: 04,2542           27777                           CA       0          -1                         #  GET CADR OF ROUTINE.
000062: 04,2543           04622                           TC       SWCALL                                #  GO TO ROUTINE, SETTING Q TO SWRETURN
000063:                                                                                                  #  AND RESTORING A + L.
000064: 04,2544           02550                           TC       +4                                    #  TX Q, V34, OR BAD STALL RETURN.
000065: 04,2545           02547                           TC       +2                                    #  PROCEED OR GOOD STALL RETURN.
000066: 04,2546           25167                           INCR     EBUF2                                 #  ENTER OR RECYCLE RETURN.
000067: 04,2547           25167                           INCR     EBUF2
000068: 04,2550           53170        E/SWITCH           DXCH     EBUF2
000069: 04,2551           52006                           DTCB
000070:


000072:                                                                                                  #  E/CALL        FOR CALLING A FIXED MEMORY INTERPRETIVE SUBROUTINE FROM ERASABLE AND RETURNING TO ERASABLE.
000073:
000074:                                                                                                  #  THE CALLING SEQUENCE IS...
000075:
000076:                                                                                                  #        RTB
000077:                                                                                                  #                E/CALL
000078:                                                                                                  #        CADR    ROUTINE                 THE INTERPRETIVE SUBROUTINE YOU WANT.
000079:                                                                                                  #                                        RETURNS HERE IN INTERPRETIVE.
000080:
000081: 04,2552           22164        E/CALL             LXCH     LOC                                   #  ADRES -1 OF CADR.
000082: 04,2553           50001                           INDEX    L
000083: 04,2554           30001                           CA       L                                     #  CADR IN A.
000084: 04,2555           24001                           INCR     L
000085: 04,2556           24001                           INCR     L                                     #  RETURN ADRES IN L.
000086: 04,2557           53170                           DXCH     EBUF2                                 #  STORE CADR AND RETURN.
000087: 04,2560           06036                           TC       INTPRET
000088: 04,2561           77624                           CALL
000089: 04,2562           01167                                    EBUF2                                 #  INDIRECTLY EXECUTE ROUTINE.  IT MUST
000090: 04,2563           77776                           EXIT                                           #  LEAVE VIA RVQ OR EQUIVALENT.
000091: 04,2564           23170                           LXCH     EBUF2      +1                         #  PICK UP RETURN.
000092: 04,2565           16040                           TCF      INTPRET    +2                         #  SET LOC AND RETURN TO CALLER.
000093:


000095:                                                                                                  #  E/JOBWAK      FOR WAKING UP ERASABLE MEMORY JOBS.
000096:
000097:                                                                                                  #  THIS ROUTINE MUST BE CALLED IN INTERRUPT OR WITH INTERRUPTS INHIBITED.
000098:
000099:                                                                                                  #  THE CALLING SEQUENCE IS:
000100:
000101:                                                                                                  #        INHINT
000102:                                                                                                  #          .
000103:                                                                                                  #          .
000104:                                                                                                  #        CA      WAKEADR         ADDRESS OF SLEEPING JOB
000105:                                                                                                  #        TC      IBNKCALL
000106:                                                                                                  #        CADR    E/JOBWAK
000107:                                                                                                  #          .                     RETURNS HERE
000108:                                                                                                  #          .
000109:                                                                                                  #          .
000110:                                                                                                  #        RELINT                  IF YOU DID AN INHINT.
000111:
000112: 33,2045                                           BANK     33
000113: 04,2000                                           SETLOC   E/PROG
000114: 04,2000                                           BANK
000115:
000116: 04,2566                                           COUNT*   $$/P07
000117:
000118: 04,2566           05137        E/JOBWAK           TC       JOBWAKE                               #  ARRIVE IWTH ADRES IN A.
000119: 04,2567           44741                           CS       BIT11
000120: 04,2570           50064                           NDX      LOCCTR
000121: 04,2571           26164                           ADS      LOC                                   #  KNOCK FIXED MEMORY BIT OUT OF ADRES.
000122: 04,2572           00072                           TC       RUPTREG3                              #  RETURN
000123:

End of include-file SYSTEM_TEST_STANDARD_LEAD_INS.agc.  Parent file is MAIN.agc


