
Source Code


000002:                                                                                                  ## Copyright:   Public domain.
000003:                                                                                                  ## Filename:    T4RUPT_PROGRAM.agc
000004:                                                                                                  ## Purpose:     The main source file for Luminary revision 069.
000005:                                                                                                  ##              It is part of the source code for the original release
000006:                                                                                                  ##              of the flight software for the Lunar Module's (LM) Apollo
000007:                                                                                                  ##              Guidance Computer (AGC) for Apollo 10. The actual flown
000008:                                                                                                  ##              version was Luminary 69 revision 2, which included a
000009:                                                                                                  ##              newer lunar gravity model and only affected module 2.
000010:                                                                                                  ##              This file is intended to be a faithful transcription, except
000011:                                                                                                  ##              that the code format has been changed to conform to the
000012:                                                                                                  ##              requirements of the yaYUL assembler rather than the
000013:                                                                                                  ##              original YUL assembler.
000014:                                                                                                  ## Reference:   pp. 170-204
000015:                                                                                                  ## Assembler:   yaYUL
000016:                                                                                                  ## Contact:     Ron Burkey <info@sandroid.org>.
000017:                                                                                                  ## Website:     www.ibiblio.org/apollo/index.html
000018:                                                                                                  ## Mod history: 2016-12-13 MAS  Created from Luminary 99.
000019:                                                                                                  ##              2017-01-05 HG   Transcribed
000020:                                                                                                  ##              2017-01-22 HG   Fix operand BIT1 -> BIT11
000021:                                                                                                  ##              2017-01-25 RSB  Proofed comment text using octopus/prooferComments
000022:                                                                                                  ##                              and fixed errors found.
000023:                                                                                                  ##              2017-01-28 RSB  WTIH -> WITH.
000024:


000026: 12,2000                                           BANK     12
000027: 06,2000                                           SETLOC   T4RUP
000028: 06,2000                                           BANK
000029:
000030: 06,2000  E6,1412                                  EBANK=   M11
000031: 06,2000                                           COUNT*   $$/T4RPT
000032: 06,2000           54016        T4RUPT             TS       BANKRUPT
000033:
000034: 06,2001           00006                           EXTEND
000035: 06,2002           22012                           QXCH     QRUPT
000036:
000037: 06,2003           11313                           CCS      DSRUPTSW                              #  GOES 7(-1)0 AROUND AND AROUND
000038: 06,2004           12010                           TCF      NORMT4     +1
000039: 06,2005           12007                           TCF      NORMT4
000040:
000041: 06,2006           12134                           TCF      QUIKDSP
000042:
000043: 06,2007           34757        NORMT4             CAF      SEVEN
000044: 06,2010           54070                           TS       RUPTREG1
000045: 06,2011           55313                           TS       DSRUPTSW
000046:
000047:    4066                                           BLOCK    02
000048:    4000                                           SETLOC   FFTAG10
000049:    4000                                           BANK
000050:
000051:    4066                                           COUNT*   $$/T4RPT
000052:    4066     7726               100MRUPT           =        OCT37766                              #  (DEC 16374)
000053:                                                                                                  #  RELTAB IS A PACKED TABLE. RELAYWORD CODE IN UPPER 4 BITS, RELAY CODE
000054:                                                                                                  #  IN LOWER 5 BITS.
000055:
000056:    4066           04025        RELTAB             OCT      04025
000057:    4067           10003                           OCT      10003
000058:    4070           14031                           OCT      14031
000059:    4071           20033                           OCT      20033
000060:    4072           24017                           OCT      24017
000061:    4073           30036                           OCT      30036
000062:    4074           34034                           OCT      34034
000063:    4075           40023                           OCT      40023
000064:    4076           44035                           OCT      44035
000065:    4077           50037                           OCT      50037
000066:    4100           54000                           OCT      54000
000067:    4101           60000        RELTAB11           OCT      60000
000068:


000070:                                                                                                  #           SWITCHED-BANK PORTION.
000071:
000072: 12,2000                                           BANK     12
000073: 06,2000                                           SETLOC   T4RUP
000074: 06,2000                                           BANK
000075:
000076: 06,2012                                           COUNT*   $$/T4RPT
000077: 06,2012           11036        CDRVE              CCS      DSPTAB     +11D
000078: 06,2013           02063                           TC       DSPOUT
000079: 06,2014           02063                           TC       DSPOUT
000080:
000081: 06,2015           57036                           XCH      DSPTAB     +11D
000082: 06,2016           74356                           MASK     LOW11
000083: 06,2017           55036                           TS       DSPTAB     +11D
000084: 06,2020           64101                           AD       RELTAB11
000085: 06,2021           00006                           EXTEND
000086: 06,2022           01010                           WRITE    OUT0
000087: 06,2023           02071                           TC       HANG20
000088:


000090:                                                                                                  #  DSPOUT PROGRAM. PUTS OUT DISPLAYS.
000091:
000092: 06,2024           55016        DSPOUTSB           TS       NOUT
000093: 06,2025           44755                           CS       ZERO
000094: 06,2026           54073                           TS       DSRUPTEM                              #  SET TO -0 FOR 1ST PASS THRU DSPTAB
000095: 06,2027           56776                           XCH      DSPCNT
000096: 06,2030           64754                           AD       NEG0                                  #  TO PREVENT +0
000097: 06,2031           54776                           TS       DSPCNT
000098: 06,2032           50776        DSPSCAN            INDEX    DSPCNT
000099: 06,2033           11023                           CCS      DSPTAB
000100: 06,2034           10776                           CCS      DSPCNT                                #  IF DSPTAB ENTRY +, SKIP
000101: 06,2035           12030                           TCF      DSPSCAN    -2                         #  IF DSPCNT +, TRY AGAIN
000102: 06,2036           12047                           TCF      DSPLAY                                #  IF DSPTAB ENTRY -, DISPLAY
000103: 06,2037           00012        TABLNTH            OCT      12                                    #  DEC 10   LENGTH OF DSPTAB
000104: 06,2040           10073                           CCS      DSRUPTEM                              #  IF DSRUPTEM=+0,2ND PASS THRU DSPTAB
000105: 06,2041           37764        120MRUPT           DEC      16372      B-14                       #  (DSPCNT = 0). +0 INTO NOUT.
000106: 06,2042           55016                           TS       NOUT
000107: 06,2043           00002                           TC       Q
000108: 06,2044           54073                           TS       DSRUPTEM                              #  IF DSRUPTEM=-0,1ST PASS THRU DSPTAB
000109: 06,2045           32037                           CAF      TABLNTH                               #  (DSPCNT=0). +0 INTO DSRUPTEM. PASS AGAIN
000110: 06,2046           12031                           TCF      DSPSCAN    -1
000111:
000112: 06,2047           64753        DSPLAY             AD       ONE
000113: 06,2050           50776                           INDEX    DSPCNT
000114: 06,2051           55023                           TS       DSPTAB                                #  REPLACE POSITIVELY
000115: 06,2052           74356                           MASK     LOW11                                 #  REMOVE BITS 12 TO 15
000116: 06,2053           54073                           TS       DSRUPTEM
000117: 06,2054           34350                           CAF      HI5
000118: 06,2055           50776                           INDEX    DSPCNT
000119: 06,2056           74066                           MASK     RELTAB                                #  PICK UP BITS 12 TO 15 OF RELTAB ENTRY
000120: 06,2057           60073                           AD       DSRUPTEM
000121: 06,2060           00006                           EXTEND
000122: 06,2061           01010                           WRITE    OUT0
000123:
000124: 06,2062           16736                           TCF      Q+1
000125:
000126:
000127: 06,2063           10101        DSPOUT             CCS      FLAGWRD5                              #  IS DSKY FLAG ON
000128: 06,2064           34755                           CAF      ZERO                                  #  NO
000129: 06,2065           12130                           TCF      NODSPOUT                              #  NO
000130: 06,2066           11016                           CCS      NOUT                                  #  YES
000131: 06,2067           02024                           TC       DSPOUTSB
000132: 06,2070           12130                           TCF      NODSPOUT                              #  NO DISPLAY REQUESTS
000133:
000134: 06,2071           42171        HANG20             CS       14,11,9
000135: 06,2072           27313                           ADS      DSRUPTSW
000136:
000137: 06,2073           37730                           CAF      20MRUPT
000138:
000139: 06,2074           54027        SETTIME4           TS       TIME4
000140:


000142:                                                                                                  #  THE STATUS OF THE PROCEED PUSHBUTTON IS MONITORED EVERY 120 MILLISECONDS VIA THE CHANNEL 32 BIT 14 INBIT.
000143:                                                                                                  #  THE STATE OF THIS INBIT IS COMPARED WITH ITS STATE DURING THE PREVIOUS T4RUPT AND IS PROCESSED AS FOLLOWS.
000144:
000145:                                                                                                  #     IF PREV ON AND NOW ON    -   BYPASS
000146:                                                                                                  #     IF PREV ON AND NOW OFF   -   UPDATE IMODES33
000147:                                                                                                  #     IF PREV OFF AND NOW ON   -   UPDATE IMODES33 AND PROCESS VIA PINBALL
000148:                                                                                                  #     IF PREV OFF AND NOW OFF  -   BYPASS
000149:
000150:                                                                                                  #  THE LOGIC EMPLOYED REQUIRES ONLY 9 MCT (APPROX. 108 MICROSECONDS) OF COMPUTER TIME WHEN NO CHANGES OCCUR.
000151:
000152:
000153: 06,2075           31303        PROCEEDE           CA       IMODES33                              #  MONITIOR FOR PROCEED BUTTON
000154: 06,2076           00006                           EXTEND
000155: 06,2077           06032                           RXOR     CHAN32
000156: 06,2100           74736                           MASK     BIT14
000157: 06,2101           00006                           EXTEND
000158: 06,2102           12116                           BZF      T4JUMP                                #  NO CHANGE
000159:
000160: 06,2103           23303                           LXCH     IMODES33
000161: 06,2104           00006                           EXTEND
000162: 06,2105           06001                           RXOR     LCHAN
000163: 06,2106           55303                           TS       IMODES33                              #  UPDATE IMODES33
000164: 06,2107           74736                           MASK     BIT14
000165: 06,2110           10000                           CCS      A
000166: 06,2111           12116                           TCF      T4JUMP                                #  WAS ON - NOW OFF
000167:
000168: 06,2112           34355                           CAF      CHRPRIO                               #  WAS OFF - NOW ON
000169: 06,2113           05072                           TC       NOVAC
000170: 06,2114     0777                                  EBANK=   DSPCOUNT
000171: 06,2114           03450 60101                     2CADR    PROCKEY
000172:


000174:                                                                                                  #           JUMP TO APPROPRIATE ONCE-PER SECOND (.96 SEC ACTUALLY) ACTIVITY
000175:
000176: 06,2116           50070        T4JUMP             INDEX    RUPTREG1
000177: 06,2117           12120                           TCF      +1
000178:
000179: 06,2120           03156                           TC       RCSMONIT
000180: 06,2121           13006                           TCF      RRAUTCHK
000181: 06,2122           12172                           TCF      IMUMON
000182: 06,2123           13132                           TCF      DAPT4S
000183: 06,2124           03156                           TC       RCSMONIT
000184: 06,2125           13006                           TCF      RRAUTCHK
000185: 06,2126           12172                           TCF      IMUMON
000186: 06,2127           13132                           TCF      DAPT4S
000187:
000188: 06,2130     7730               20MRUPT            =        OCT37776                              #  (DEC 16382)
000189:


000191:                                                                                                  #           ADDITIONAL ROUTINES FOR 20MS. KEYBOARD ACTIVITY
000192:
000193: 06,2130           00006        NODSPOUT           EXTEND
000194: 06,2131           01010                           WRITE    OUT0
000195:
000196: 06,2132           32041                           CAF      120MRUPT                              # SET FOR NEXT CDRIVE
000197: 06,2133           12074                           TCF      SETTIME4
000198:
000199: 06,2134           34736        QUIKDSP            CAF      BIT14
000200: 06,2135           71313                           MASK     DSRUPTSW
000201: 06,2136           00006                           EXTEND
000202: 06,2137           12165                           BZF      QUIKOFF                               #  WROTE LAST TIME, NOW TURN OFF RELAYS.
000203:
000204: 06,2140           11016                           CCS      NOUT
000205: 06,2141           02024                           TC       DSPOUTSB
000206: 06,2142           12152                           TCF      NODSPY                                #  NOUT=0 OR BAD RETURN FROM DSPOUTSB
000207: 06,2143           44736                           CS       BIT14                                 #  GOOD RETURN (WE DISPLAYED SOMETHING)
000208: 06,2144           27313        QUIKRUPT           ADS      DSRUPTSW
000209:
000210: 06,2145           37730                           CAF      20MRUPT
000211: 06,2146           54027                           TS       TIME4
000212:
000213: 06,2147           34743                           CAF      BIT9
000214: 06,2150           27313                           ADS      DSRUPTSW
000215:
000216: 06,2151           05270                           TC       RESUME
000217:
000218: 06,2152           00006        NODSPY             EXTEND
000219: 06,2153           01010                           WRITE    OUT0
000220:
000221: 06,2154           37730        SYNCT4             CAF      20MRUPT
000222: 06,2155           26027                           ADS      TIME4
000223:
000224: 06,2156           34743                           CAF      BIT9
000225: 06,2157           27313                           ADS      DSRUPTSW
000226:
000227: 06,2160           11313                           CCS      DSRUPTSW
000228: 06,2161           05270                           TC       RESUME
000229: 06,2162           37737        OCT37737           OCT      37737
000230: 06,2163           02154                           TC       SYNCT4
000231: 06,2164           05270                           TC       RESUME
000232:
000233: 06,2165           00006        QUIKOFF            EXTEND
000234: 06,2166           01010                           WRITE    OUT0
000235: 06,2167           34736                           CAF      BIT14                                 #  RESET DSRUPTSW TO SEND DISPLAY NEXT PASS
000236: 06,2170           12144                           TCF      QUIKRUPT
000237:
000238: 06,2171           22400        14,11,9            OCT      22400
000239:


000241:                                                                                                  #  PROGRAM NAME:  IMUMON
000242:
000243:                                                                                                  #  FUNCTIONAL DESCRIPTION:  THIS PROGRAM IS ENTERED EVERY 480 MS.  IT DETECTS CHANGES OF THE IMU STATUS BITS IN
000244:                                                                                                  #  CHANNEL 30 AND CALLS THE APPROPRIATE SUBROUTINES.  THE BITS PROCESSED AND THEIR RELEVANT SUBROUTINES ARE:
000245:
000246:                                                                                                  #           FUNCTION               BIT    SUBROUTINE CALLED
000247:                                                                                                  #           --------               ---    -----------------
000248:                                                                                                  #           TEMP IN LIMITS          15    TLIM
000249:                                                                                                  #           ISS TURN-ON REQUEST     14    ITURNON
000250:                                                                                                  #           IMU FAIL                13    IMUFAIL (SETISSW)
000251:                                                                                                  #           IMU CDU FAIL            12    ICDUFAIL (SETISSW)
000252:                                                                                                  #           IMU CAGE                11    IMUCAGE
000253:                                                                                                  #           IMU OPERATE              9    IMUOP
000254:
000255:                                                                                                  #           THE LAST SAMPLED STATE OF THESE BITS IS LEFT IN IMODES30.  ALSO, EACH SUBROUTINE CALLED FINDS THE NEW
000256:                                                                                                  #  VALUE OF THE BIT IN A, WITH Q SET TO THE PROPER RETURN LOCATION, NXTIFAIL.
000257:
000258:                                                                                                  #  CALLING SEQUENCE:  T4RUPT EVERY 480 MILLISECONDS.
000259:
000260:                                                                                                  #  JOBS OR TASKS INITIATED:  NONE.
000261:
000262:                                                                                                  #  SUBROUTINES CALLED:  TLIM, ITURNON, SETISSW, IMUCAGE, IMUOP.
000263:
000264:                                                                                                  #  ERASABLE INITIALIZATION:
000265:                                                                                                  #           FRESH START OR RESTART WITH NO GROUPS ACTIVE: C((MODES30) = OCT 37411.
000266:                                                                                                  #           RESTART WITH ACTIVE GROUPS: C(IMODES30) = (B(IMODES30)AND(OCT 00035)) PLUS OCT 37400.
000267:                                                                                                  #                                       THIS LEAVES IMU FAIL BITS INTACT.
000268:
000269:                                                                                                  #  ALARMS:  NONE.
000270:
000271:                                                                                                  #  EXIT:  TNONTEST.
000272:
000273:                                                                                                  #  OUTPUT:  UPDATED IMODES30 WITH CHANGES PROCESSED BY APPROPRIATE SUBROUTINE.
000274:
000275: 06,2172           31302        IMUMON             CA       IMODES30                              #  SEE IF THERE HAS BEEN A CHANGE IN THE
000276: 06,2173           00006                           EXTEND                                         #  RELEVANT BITS OF CHAN 30.
000277: 06,2174           06030                           RXOR     CHAN30
000278: 06,2175           72761                           MASK     30RDMSK
000279: 06,2176           00006                           EXTEND
000280: 06,2177           12227                           BZF      TNONTEST                              #  NO CHANGE IN STATUS.
000281:
000282: 06,2200           54070                           TS       RUPTREG1                              #  SAVE BITS WHICH HAVE CHANGED.
000283: 06,2201           23302                           LXCH     IMODES30                              #  UPDATE IMODES30.
000284: 06,2202           00006                           EXTEND
000285: 06,2203           06001                           RXOR     LCHAN
000286: 06,2204           55302                           TS       IMODES30
000287:
000288: 06,2205           44753                           CS       ONE
000289: 06,2206           56070                           XCH      RUPTREG1
000290: 06,2207           00006                           EXTEND
000291:


000293: 06,2210           62514                           BZMF     TLIM                                  #  CHANGE IN IMU TEMP.
000294: 06,2211           12213                           TCF      NXTIFBIT                              #  BEGIN BIT SCAN.
000295:
000296: 06,2212           64753                 -1        AD       ONE                                   #  (RE-ENTERS HERE FROM NXTIFAIL.)
000297: 06,2213           24070        NXTIFBIT           INCR     RUPTREG1                              #  ADVANCE BIT POSITION NUMBER.
000298: 06,2214           60000                 +1        DOUBLE
000299: 06,2215           54000                           TS       A                                     #  SKIP IF OVERFLOW.
000300: 06,2216           12213                           TCF      NXTIFBIT                              #  LOOK FOR BIT.
000301:
000302: 06,2217           56071                           XCH      RUPTREG2                              #  SAVE OVERFLOW-CORRECTED DATA.
000303: 06,2220           50070                           INDEX    RUPTREG1                              #  SELECT NEW VALUE OF THIS BIT.
000304: 06,2221           34736                           CAF      BIT14
000305: 06,2222           71302                           MASK     IMODES30
000306: 06,2223           50070                           INDEX    RUPTREG1
000307: 06,2224           02755                           TC       IFAILJMP
000308:
000309: 06,2225           10071        NXTIFAIL           CCS      RUPTREG2                              #  PROCESS ANY ADDITIONAL CHANGES.
000310: 06,2226           12212                           TCF      NXTIFBIT   -1
000311:


000313:                                                                                                  #  PROGRAM NAME:  TNONTEST.
000314:
000315:                                                                                                  #  FUNCTIONAL DESCRIPTION:  THIS PROGRAM HONORS REQUESTS FOR ISS INITIALIZATION.  ISS TURN-ON (CHANNEL 30 BIT 14)
000316:                                                                                                  #  AND ISS OPERATE (CHANNEL 30 BIT 9) REQUESTS ARE TREATED AS A PAIR AND PROCESSING TAKES PLACE .480 SECONDS
000317:                                                                                                  #  AFTER EITHER ONE APPEARS.  THIS INITIALIZATION TAKES ON ONE OF THE FOLLOWING THREE FORMS:
000318:
000319:                                                                                                  #           1)  ISS TURN-ON:  IN THIS SITUATION THE COMPUTER IS OPERATING WHEN THE ISS IS TURNED ON.  NOMINALLY,
000320:                                                                                                  #           BOTH ISS TURN-ON AND ISS OPERATE APPEAR.  THE PLATFORM IS CAGED FOR 90 SECONDS AND THE ICDU'S ZEROED
000321:                                                                                                  #           SO THAT AT THE END OF THE PROCESS THE GIMBAL LOCK MONITOR WILL FUNCTION PROPERLY.
000322:
000323:                                                                                                  #           2)  ICDU INITIALIZATION:  IN THIS CASE THE COMPUTER WAS PROBABLY TURNED ON WITH THE ISS IN OPERATE OR
000324:                                                                                                  #           A FRESH START WAS DONE WITH THE ISS IN OPERATE.  IN THIS CASE ONLY ISS OPERATE IS ON.  THE ICDU'S ARE
000325:                                                                                                  #           ZEROED SO THE GIMBAL LOCK MONITOR WILL FUNCTION.  AN EXCEPTION IS IF THE ISS IS IN GIMBAL LOCK AFTER
000326:                                                                                                  #           A RESTART, THE ICDU'S WILL NOT BE ZEROED.
000327:
000328:                                                                                                  #           3)  RESTART WITH RESTARTABLE PROGRAM USING THE IMU:  IN THIS CASE, NO INITIALIZATION TAKES PLACE SINCE
000329:                                                                                                  #           IT IS ASSUMED THAT THE USING PROGRAM DID THE INITIALIZATION AND THEREFORE T4RUPT SHOULD NOT INTERFERE.
000330:
000331:                                                                                                  #  IMODES30 BIT 7 IS SET = 1 BY THE FIRST BIT (CHANNEL 30 BIT 14 OR 9) WHICH ARRIVES.  FOLLOWING THIS, TNONTEST IS
000332:                                                                                                  #  ENTERED, FINDS BIT 7 = 1 BUT BIT 8 = 0, SO IT SETS BIT 8 = 1 AND EXITS.  THE NEXT TIME IT FINDS BIT 8 = 1 AND
000333:                                                                                                  #  PROCEEDS, SETTING BITS 8 AND 7 = 0.  AT PROCTNON, IF ISS TURN-ON REQUEST IS PRESENT, THE ISS IS CAGED (ZERO +
000334:                                                                                                  #  COARSE).  IF ISS OPERATE IS NOT PRESENT PROGRAM ALARM 00213 IS ISSUED.  AT THE END OF A 90 SECOND CAGE, BIT 2
000335:                                                                                                  #  OF IMODES30 IS TESTED.  IF IT IS = 1, ISS TURN-ON WAS NOT PRESENT FOR THE ENTIRE 90 SECONDS.  IN THAT CASE, IF
000336:                                                                                                  #  THE ISS TURN-ON REQUEST IS PRESENT THE 90 SECOND WAIT IS REPEATED, OTHERWISE NO ACTION OCCURS UNLESS A PROGRAM
000337:                                                                                                  #  WAS WAITING FOR THE INITIALIZATION IN WHICH CASE THE PROGRAM IS GIVEN AN IMUSTALL ERROR RETURN.  IF THE DELAY
000338:                                                                                                  #  WENT PROPERLY, THE ISS DELAY OUTBIT IS SENT AND THE ICDU'S ZEROED.  A TASK IS INITIATED TO REMOVE THE PIPA FAIL
000339:                                                                                                  #  INHIBIT BIT IN 10.24 SECONDS.  IF A MISSION PROGRAM WAS WAITING IT IS INFORMED VIA ENDIMU.
000340:
000341:                                                                                                  #  AT PROCTNON, IF ONLY ISS OPERATE IS PRESENT (OPONLY), THE CDU'S ARE ZEROED UNLESS THE PLATFORM IS IN COARSE
000342:                                                                                                  #  ALIGN (= GIMBAL LOCK HERE) OR A MISSION PROGRAM IS USING THE IMU (IMUSEFLG = 1).
000343:
000344:                                                                                                  #  CALLING SEQUENCE:  T4RUPT EVERY 480 MILLISECONDS AFTER IMUMON.
000345:
000346:                                                                                                  #  JOBS OR TASKS INITIATED:  1) ENDTNON, 90 SECONDS AFTER CAGING STARTED.  2) ISSUP, 4 SECONDS AFTER CAGING DONE.
000347:                                                                                                  #           3) PFAILOK, 10.24 SECONDS AFTER INITIALIZATION COMPLETED.  4) UNZ2, 320 MILLISECONDS AFTER ZEROING
000348:                                                                                                  #           STARTED.
000349:
000350:                                                                                                  #  SUBROUTINES CALLED:  CAGESUB, CAGESUB2, ZEROICDU, ENDIMU, IMUBAD, NOATTOFF, SETISSW, VARDELAY.
000351:
000352:                                                                                                  #  ERASABLE INITIALIZATION:  SEE IMUMON.
000353:
000354:                                                                                                  #  ALARMS:  PROGRAM ALARM 00213 IF ISS TURN-ON REQUESTED WITHOUT ISS OPERATE.
000355:
000356:                                                                                                  #  EXIT:  ENDTNON EXITS TO C33TEST.  TASKS HAVING TO DO WITH INITIALIZATION EXIT AS FOLLOWS:  MISSION PROGRAM
000357:                                                                                                  #  WAITING AND INITIALIZATION COMPLETE, EXIT TO ENDIMU, MISSION PROGRAM WAITING AND INITIALIZATION FAILED, EXIT TO
000358:                                                                                                  #  IMUBAD, IMU NOT IN USE, EXIT TO TASKOVER.
000359:
000360:                                                                                                  #  OUTPUT:  ISS INITIALIZED.
000361:
000362: 06,2227           41302        TNONTEST           CS       IMODES30                              #  AFTER PROCESSING ALL CHANGES, SEE IF IT
000363:


000365: 06,2230           74745                           MASK     BIT7                                  #  IS TIME TO ACT ON A TURN-ON SEQUENCE.
000366: 06,2231           10000                           CCS      A
000367: 06,2232           12374                           TCF      C33TEST                               #  NO - EXAMINE CHANNEL 33.
000368:
000369: 06,2233           34744                           CAF      BIT8                                  #  SEE IF FIRST SAMPLE OR SECOND.
000370: 06,2234           71302                           MASK     IMODES30
000371: 06,2235           10000                           CCS      A
000372: 06,2236           12242                           TCF      PROCTNON                              #  REACT AFTER SECOND SAMPLE.
000373:
000374: 06,2237           34744                           CAF      BIT8                                  #  IF FIRST SAMPLE, SET BIT TO REACT NEXT
000375: 06,2240           27302                           ADS      IMODES30                              #  TIME.
000376: 06,2241           12374                           TCF      C33TEST
000377:
000378:                                                                                                  #           PROCESS IMU TURN-ON REQUESTS AFTER WAITING 1 SAMPLE FOR ALL SIGNALS TO ARRIVE.
000379:
000380: 06,2242           42777        PROCTNON           CS       BITS7&8
000381: 06,2243           71302                           MASK     IMODES30
000382: 06,2244           55302                           TS       IMODES30
000383: 06,2245           74736                           MASK     BIT14                                 #  SEE IF TURN-ON REQUEST.
000384: 06,2246           10000                           CCS      A
000385: 06,2247           12347                           TCF      OPONLY                                #  OPERATE ON ONLY.
000386:
000387: 06,2250           41302                           CS       IMODES30                              #  IF TURN-ON REQUEST, WE SHOULD HAVE IMU
000388: 06,2251           74743                           MASK     BIT9                                  #  OPERATE.
000389: 06,2252           10000                           CCS      A
000390: 06,2253           12256                           TCF      +3
000391:
000392: 06,2254           05567                           TC       ALARM                                 #  ALARM IF NOT.
000393: 06,2255           00213                           OCT      213
000394:
000395: 06,2256           02735                 +3        TC       CAGESUB
000396: 06,2257           33005                           CAF      90SECS
000397: 06,2260           05203                           TC       WAITLIST
000398: 06,2261  E6,1412                                  EBANK=   M11
000399: 06,2261           02266 14106                     2CADR    ENDTNON
000400:
000401: 06,2263           12374                           TCF      C33TEST
000402:
000403: 06,2264           33005        RETNON             CAF      90SECS
000404: 06,2265           05224                           TC       VARDELAY
000405:
000406: 06,2266           44752        ENDTNON            CS       BIT2                                  #  RESET TURN-ON REQUEST FAIL BIT.
000407: 06,2267           71302                           MASK     IMODES30
000408: 06,2270           57302                           XCH      IMODES30
000409: 06,2271           74752                           MASK     BIT2                                  #  IF IT WAS OFF, SEND ISS DELAY COMPLETE.
000410: 06,2272           00006                           EXTEND
000411: 06,2273           12306                           BZF      ENDTNON2
000412:
000413: 06,2274           34736                           CAF      BIT14                                 #  IF IT WAS ON AND TURN-ON REQUEST NOW
000414:


000416: 06,2275           71302                           MASK     IMODES30                              #  PRESENT, RE-ENTER 90 SEC DELAY IN WL.
000417: 06,2276           00006                           EXTEND
000418: 06,2277           12264                           BZF      RETNON
000419:
000420: 06,2300           40074                           CS       FLAGWRD0                              #  IF IT IS NOT ON NOW, SEE IF A PROG WAS
000421: 06,2301           74744                           MASK     IMUSEBIT                              #  WAITING.
000422: 06,2302           10000                           CCS      A
000423: 06,2303           15261                           TCF      TASKOVER
000424: 06,2304           04635                           TC       POSTJUMP
000425: 06,2305           17612                           CADR     IMUBAD                                #  UNSUCCESSFUL TURN-ON.
000426:
000427: 06,2306           34735        ENDTNON2           CAF      BIT15                                 #  SEND ISS DELAY COMPLETE.
000428: 06,2307           00006                           EXTEND
000429: 06,2310           05012                           WOR      CHAN12
000430:
000431: 06,2311           04674                           TC       IBNKCALL                              #  TURN OFF NO ATT LAMP.
000432: 06,2312           17241                           CADR     NOATTOFF
000433:
000434: 06,2313           05457        UNZ2               TC       ZEROICDU
000435:
000436: 06,2314           44763                           CS       BITS4&5                               #  REMOVE ZERO AND COARSE.
000437: 06,2315           00006                           EXTEND
000438: 06,2316           03012                           WAND     CHAN12
000439:
000440: 06,2317           34741                           CAF      BIT11                                 #  WAIT 10 SECS FOR CTRS TO FIND GIMBALS
000441: 06,2320           05224                           TC       VARDELAY
000442:
000443: 06,2321           42774        ISSUP              CS       OCT54                                 #  REMOVE CAGING, IMU FAIL INHIBIT, AND
000444: 06,2322           71302                           MASK     IMODES30                              #  ICDUFAIL INHIBIT FLAGS.
000445: 06,2323           55302                           TS       IMODES30
000446:
000447: 06,2324           44746                           CS       BIT6                                  #  ENABLE DAP
000448: 06,2325           71303                           MASK     IMODES33
000449: 06,2326           55303                           TS       IMODES33
000450:
000451: 06,2327           40076                           CS       FLAGWRD2                              #  TEST DRIFTFLG: IF ON, DO NOTHING BECAUSE
000452: 06,2330           74735                           MASK     DRFTBIT                               #  IMUCOMP SHOULD BE ALL SET UP(RESTART
000453: 06,2331           00006                           EXTEND                                         #  WITH IMUSE DOWN).  IF OFF, SET DRIFTFLG
000454: 06,2332           12336                           BZF      +4                                    #  AND 1/PIPADT TO GET FREEFALL IMUCOMP
000455: 06,2333           26076                           ADS      FLAGWRD2                              #  GOING (FRESH START OR ISS TURN-ON).
000456: 06,2334           30025                           CA       TIME1
000457: 06,2335           57075                           XCH      1/PIPADT                              #  CANNOT GET HERE IF RESTART WITH IMUSE UP
000458:
000459: 06,2336           02703                           TC       SETISSW                               #  ISS WARNING MIGHT HAVE BEEN INHIBITED.
000460:
000461: 06,2337           44735                           CS       BIT15                                 #  REMOVE IMU DELAY COMPLETE DISCRETE.
000462: 06,2340           00006                           EXTEND
000463: 06,2341           03012                           WAND     CHAN12
000464:
000465: 06,2342           35003                           CAF      4SECS                                 #  DONT ENABLE PROG ALARM ON PIP FAIL FOR
000466:


000468: 06,2343           05203                           TC       WAITLIST                              #  ANOTHER 4 SECS.
000469: 06,2344  E3,1474                                  EBANK=   CDUIND
000470: 06,2344           03227 16103                     2CADR    PFAILOK
000471:
000472: 06,2346           15261                           TCF      TASKOVER
000473:
000474: 06,2347           34750        OPONLY             CAF      BIT4                                  #  IF OPERATE ON ONLY, AND WE ARE IN COARSE
000475: 06,2350           00006                           EXTEND                                         #  ALIGN, DONT ZERO THE CDUS BECAUSE WE
000476: 06,2351           02012                           RAND     CHAN12                                #  MIGHT BE IN GIMBAL LOCK
000477: 06,2352           10000                           CCS      A
000478: 06,2353           12374                           TCF      C33TEST
000479:
000480: 06,2354           34744                           CAF      IMUSEBIT                              #  OTHERWISE, ZERO THE COUNTERS.
000481: 06,2355           70074                           MASK     FLAGWRD0                              #  UNLESS SOMEONE IS USING THE IMU.
000482: 06,2356           10000                           CCS      A
000483: 06,2357           12374                           TCF      C33TEST
000484:
000485: 06,2360           02746                           TC       CAGESUB2                              #  SET TURNON FLAGS.
000486:
000487: 06,2361           04674        ISSZERO            TC       IBNKCALL                              #  TURN OFF NO ATT LAMP
000488: 06,2362           17241                           CADR     NOATTOFF                              #      IMU CAGE OFF ENTRY
000489:
000490: 06,2363           34747                           CAF      BIT5                                  #  ISS CDU ZERO
000491: 06,2364           00006                           EXTEND
000492: 06,2365           05012                           WOR      CHAN12
000493:
000494: 06,2366           05457                           TC       ZEROICDU
000495: 06,2367           34746                           CAF      BIT6                                  #  WAIT 300 MS FOR AGS TO RECEIVE SIGNAL.
000496: 06,2370           05203                           TC       WAITLIST
000497: 06,2371  E6,1412                                  EBANK=   M11
000498: 06,2371           02313 14106                     2CADR    UNZ2
000499:
000500: 06,2373           12374                           TCF      C33TEST
000501:


000503:                                                                                                  #  PROGRAM NAME:  C33TEST
000504:
000505:                                                                                                  #  FUNCTIONAL DESCRIPTION:  THIS PROGRAM MONITORS THREE FLIP-FLOP INBITS OF CHANNEL 33 AND CALLS THE APPROPRIATE
000506:                                                                                                  #  SUBROUTINE TO PROCESS A CHANGE.  IT IS ANALOGOUS TO IMUMON, WHICH MONITORS CHANNEL 30, EXCEPT THAT IT READS
000507:                                                                                                  #  CHANNEL 33 WITH A WAND INSTRUCTION BECAUSE A 'WRITE' PULSE IS REQUIRED TO RESET THE FLIP-FLOPS.  THE BITS
000508:                                                                                                  #  PROCESSED AND THE SUBROUTINES CALLED ARE:
000509:
000510:                                                                                                  #           BIT    FUNCTION                SUBROUTINE
000511:                                                                                                  #           ---    --------                ----------
000512:                                                                                                  #            13    PIPA FAIL               PIPFAIL
000513:                                                                                                  #            12    DOWNLINK TOO FAST       DNTMFAST
000514:                                                                                                  #            11    UPLINK TOO FAST         UPTMFAST
000515:
000516:                                                                                                  #  UPON ENTRY TO THE SUBROUTINE, THE NEW BIT STATE IS IN A.
000517:
000518:                                                                                                  #  CALLING SEQUENCE:  EVERY 480 MILLISECONDS AFTER TNONTEST.
000519:
000520:                                                                                                  #  JOBS OR TASKS INITIATED:  NONE.
000521:
000522:                                                                                                  #  SUBROUTINES CALLED:  PIPFAIL, DNTMFAST AND UPTMFAST ON BIT CHANGES.
000523:
000524:                                                                                                  #  ERASABLE INITIALIZATION:  C(IMODES33) = OCT 16000 ON A FRESH START OR RESTART, THEREFORE, THESE ALARMS WILL
000525:                                                                                                  #  REAPPEAR IF THE CONDITIONS PERSIST.
000526:
000527:                                                                                                  #  ALARMS:  NONE.
000528:
000529:                                                                                                  #  EXIT:  GLOCKMON.
000530:
000531:                                                                                                  #  OUTPUT:  UPDATED BITS 13, 12 AND 11 OF IMODES33 WITH CHANGES PROCESSED.
000532:
000533: 06,2374           31303        C33TEST            CA       IMODES33                              #  SEE IF RELEVANT CHAN33 BITS HAVE
000534: 06,2375           75026                           MASK     33RDMSK
000535: 06,2376           54001                           TS       L                                     #  CHANGED.
000536: 06,2377           35026                           CAF      33RDMSK
000537: 06,2400           00006                           EXTEND
000538: 06,2401           03033                           WAND     CHAN33                                #  RESETS FLIP-FLOP INPUTS
000539: 06,2402           00006                           EXTEND
000540: 06,2403           06001                           RXOR     LCHAN
000541: 06,2404           00006                           EXTEND
000542: 06,2405           12434                           BZF      GLOCKMON                              #  ON NO CHANGE.
000543:
000544: 06,2406           54070                           TS       RUPTREG1                              #  SAVE BITS WHICH HAVE CHANGED.
000545: 06,2407           23303                           LXCH     IMODES33
000546: 06,2410           00006                           EXTEND
000547: 06,2411           06001                           RXOR     LCHAN
000548: 06,2412           55303                           TS       IMODES33                              #  UPDATED IMODES33.
000549:
000550: 06,2413           34755                           CAF      ZERO
000551: 06,2414           56070                           XCH      RUPTREG1
000552: 06,2415           60000                           DOUBLE
000553:


000555: 06,2416           12421                           TCF      NXTIBT     +1                         #  SCAN FOR BIT CHANGES.
000556:
000557: 06,2417           64753                 -1        AD       ONE
000558: 06,2420           24070        NXTIBT             INCR     RUPTREG1
000559: 06,2421           60000                 +1        DOUBLE
000560: 06,2422           54000                           TS       A                                     #  (CODING IDENTICAL TO CHAN 30).
000561: 06,2423           12420                           TCF      NXTIBT
000562:
000563: 06,2424           56071                           XCH      RUPTREG2
000564: 06,2425           50070                           INDEX    RUPTREG1                              #  GET NEW VALUE OF BIT WHICH CHANGED.
000565: 06,2426           34737                           CAF      BIT13
000566: 06,2427           71303                           MASK     IMODES33
000567: 06,2430           50070                           INDEX    RUPTREG1
000568: 06,2431           02763                           TC       C33JMP
000569:
000570: 06,2432           10071        NXTFL33            CCS      RUPTREG2                              #  PROCESS POSSIBLE ADDITIONAL CHANGES.
000571: 06,2433           12417                           TCF      NXTIBT     -1
000572:


000574:                                                                                                  #  PROGRAM NAME:  GLOCKMON
000575:
000576:                                                                                                  #  FUNCTIONAL DESCRIPTION:  THIS PROGRAM MONITORS THE CDUZ COUNTER TO DETERMINE WHETHER THE ISS IS IN GIMBAL LOCK
000577:                                                                                                  #  AND TAKES ACTION IF IT IS.  THREE REGIONS OF MIDDLE GIMBAL ANGLE (MGA) ARE USED:
000578:
000579:                                                                                                  #           1) ABS(MGA) LESS THAN OR EQUAL TO 70 DEGREES - NORMAL MODE.
000580:                                                                                                  #           2) ABS(MGA) GREATER THAN 70 DEGREES AND LESS THAN OR EQUAL TO 85 DEGREES - GIMBAL LOCK LAMP TURNED ON.
000581:                                                                                                  #           3) ABS(MGA) GREATER THAN 85 DEGREES - ISS PUT IN COARSE ALIGN AND NO ATT LAMP TURNED ON.
000582:
000583:                                                                                                  #  CALLING SEQUENCE:  EVERY 480 MILLISECONDS AFTER C33TEST.
000584:
000585:                                                                                                  #  JOBS OR TASKS INITIATED:  NONE.
000586:
000587:                                                                                                  #  SUBROUTINES CALLED:  1) SETCOARS WHEN ABS(MGA) GREATER THAN 85 DEGREES AND ISS NOT IN COARSE ALIGN.
000588:                                                                                                  #                       2) LAMPTEST BEFORE TURNING OFF GIMBAL LOCK LAMP.
000589:
000590:                                                                                                  #  ERASABLE INITIALIZATION:
000591:                                                                                                  #           1) FRESH START OR RESTART WITH NO GROUPS ACTIVE:  C(CDUZ) = 0, IMODES30 BIT 6 = 0, IMODES33 BIT 1 =  0.
000592:                                                                                                  #           2) RESTART WITH GROUPS ACTIVE:  SAME AS FRESH START EXCEPT C(CDUZ) NOT CHANGED SO GIMBAL MONITOR
000593:                                                                                                  #                                           PROCEEDS AS BEFORE.
000594:
000595:                                                                                                  #  ALARMS:  1) MGA REGION (2) CAUSES GIMBAL LOCK LAMP TO BE LIT.
000596:                                                                                                  #           2) MGA REGION (3) CAUSES THE ISS TO BE PUT IN COARSE ALIGN AND THE NO ATT LAMP TO BE LIT IF EITHER NOT
000597:                                                                                                  #              SO ALREADY.
000598:
000599: 06,2434           10034        GLOCKMON           CCS      CDUZ
000600: 06,2435           12441                           TCF      GLOCKCHK                              #  SEE IF MAGNITUDE OF MGA IS GREATER THAN
000601: 06,2436           12465                           TCF      SETGLOCK                              #  70 DEGREES.
000602: 06,2437           12441                           TCF      GLOCKCHK
000603: 06,2440           12465                           TCF      SETGLOCK
000604:
000605: 06,2441           62512        GLOCKCHK           AD       -70DEGS
000606: 06,2442           00006                           EXTEND
000607: 06,2443           62464                           BZMF     SETGLOCK   -1                         #  NO LOCK.
000608:
000609: 06,2444           62513                           AD       -15DEGS                               #  SEE IF ABS(MGA) GREATER THAN 85 DEGREES.
000610: 06,2445           00006                           EXTEND
000611: 06,2446           62462                           BZMF     NOGIMRUN
000612:
000613: 06,2447           34750                           CAF      BIT4                                  #  IF SO, SYSTEM SHOULD BE IN COARSE ALIGN
000614: 06,2450           00006                           EXTEND                                         #  TO PREVENT GIMBAL RUNAWAY.
000615: 06,2451           02012                           RAND     CHAN12
000616: 06,2452           10000                           CCS      A
000617: 06,2453           12462                           TCF      NOGIMRUN
000618:
000619: 06,2454           04674                           TC       IBNKCALL
000620: 06,2455           17117                           CADR     SETCOARS
000621:
000622: 06,2456           36241                           CAF      SIX                                   #  ENABLE ISS ERROR COUNTERS IN 60 MS
000623: 06,2457           05203                           TC       WAITLIST
000624:


000626: 06,2460  E3,1474                                  EBANK=   CDUIND
000627: 06,2460           03113 16103                     2CADR    CA+ECE
000628:
000629: 06,2462           34746        NOGIMRUN           CAF      BIT6                                  #  TURN ON GIMBAL LOCK LAMP.
000630: 06,2463           12465                           TCF      SETGLOCK
000631:
000632: 06,2464           34755                 -1        CAF      ZERO
000633: 06,2465           61036        SETGLOCK           AD       DSPTAB     +11D                       #  SEE IF PRESENT STATE OF GIMBAL LOCK LAMP
000634: 06,2466           74746                           MASK     BIT6                                  #  AGREES WITH DESIRED STATE BY HALF ADDING
000635: 06,2467           00006                           EXTEND                                         #  THE TWO.
000636: 06,2470           15270                           BZF      GLOCKOK                               #  OK AS IS.
000637:
000638: 06,2471           71036                           MASK     DSPTAB     +11D                       #  IF OFF, DONT TURN ON IF IMU BEING CAGED.
000639: 06,2472           10000                           CCS      A
000640: 06,2473           12507                           TCF      GLAMPTST                              #  TURN OFF UNLESS LAMP TEST IN PROGRESS.
000641:
000642: 06,2474           34746                           CAF      BIT6
000643: 06,2475           71302                           MASK     IMODES30
000644: 06,2476           10000                           CCS      A
000645: 06,2477           15270                           TCF      GLOCKOK
000646:
000647: 06,2500           41036        GLINVERT           CS       DSPTAB     +11D                       #  INVERT GIMBAL LOCK LAMP.
000648: 06,2501           74746                           MASK     BIT6
000649: 06,2502           64735                           AD       BIT15                                 #  TO INDICATE CHANGE IN DSPTAB +11D.
000650: 06,2503           57036                           XCH      DSPTAB     +11D
000651: 06,2504           72162                           MASK     OCT37737
000652: 06,2505           27036                           ADS      DSPTAB     +11D
000653: 06,2506           15270                           TCF      GLOCKOK
000654:
000655: 06,2507           02766        GLAMPTST           TC       LAMPTEST                              #  TURN OFF UNLESS LAMP TEST IN PROGRESS.
000656: 06,2510           15270                           TCF      GLOCKOK
000657: 06,2511           12500                           TCF      GLINVERT
000658:
000659: 06,2512           63434        -70DEGS            DEC      -.38888                               #  -70 DEGREES SCALED IN HALF-REVOLUTIONS.
000660: 06,2513           75252        -15DEGS            DEC      -.08333
000661:


000663:                                                                                                  #  PROGRAM NAME:  TLIM.
000664:
000665:                                                                                                  #  FUNCTIONAL DESCRIPTION:  THIS PROGRAM MAINTAINS THE TEMP LAMP (BIT 4 OF CHANNEL 11) ON THE DSKY TO AGREE WITH
000666:                                                                                                  #  THE TEMP SIGNAL FROM THE ISS (BIT 15 OF CHANNEL 30).  HOWEVER, THE LIGHT WILL NOT BE TURNED OFF IF A LAMP TEST
000667:                                                                                                  #  IS IN PROGRESS.
000668:
000669:                                                                                                  #  CALLING SEQUENCE:  CALLED BY IMUMON ON A CHANGE OF BIT 15 OF CHANNEL 30.
000670:
000671:                                                                                                  #  JOBS OR TASKS INITIATED:  NONE.
000672:
000673:                                                                                                  #  SUBROUTINES CALLED:  LAMPTEST.
000674:
000675:                                                                                                  #  ERASABLE INITIALIZATION:  FRESH START AND RESTART TURN THE TEMP LAMP OFF.
000676:
000677:                                                                                                  #  ALARMS:  TEMP LAMP TURNED ON WHEN IMU TEMP GOES OUT OF LIMITS.
000678:
000679:                                                                                                  #  EXIT:  NXTIFAIL.
000680:
000681:                                                                                                  #  OUTPUT:  SERVICE OF TEMP LAMP.                        IN A, EXCEPT FOR TLIM.
000682:
000683: 06,2514           74733        TLIM               MASK     POSMAX                                #  REMOVE BIT FROM WORD OF CHANGES AND SET
000684: 06,2515           54071                           TS       RUPTREG2                              #  DSKY TEMP LAMP ACCORDINGLY.
000685:
000686: 06,2516           11302                           CCS      IMODES30
000687: 06,2517           12525                           TCF      TEMPOK
000688: 06,2520           12525                           TCF      TEMPOK
000689:
000690: 06,2521           34750                           CAF      BIT4                                  #  TURN ON LAMP.
000691: 06,2522           00006                           EXTEND
000692: 06,2523           05011                           WOR      DSALMOUT
000693: 06,2524           12225                           TCF      NXTIFAIL
000694:
000695: 06,2525           02766        TEMPOK             TC       LAMPTEST                              #  IF TEMP NOW OK, DONT TURN OFF LAMP IF
000696: 06,2526           12225                           TCF      NXTIFAIL                              #  LAMP TEST IN PROGRESS.
000697:
000698: 06,2527           44750                           CS       BIT4
000699: 06,2530           00006                           EXTEND
000700: 06,2531           03011                           WAND     DSALMOUT                              #  TURN OFF LAMP
000701: 06,2532           12225                           TCF      NXTIFAIL
000702:


000704:                                                                                                  #  PROGRAM NAME:  ITURNON.
000705:
000706:                                                                                                  #  FUNCTIONAL DESCRIPTION:  THIS PROGRAM IS CALLED BY IMUMON WHEN A CHANGE OF BIT 14 OF CHANNEL 30 (ISS TURN-ON
000707:                                                                                                  #  REQUEST) IS DETECTED.  UPON ENTRY, ITURNON CHECKS IF A TURN-ON DELAY SEQUENCE HAS FAILED, AND IF SO, IT EXITS.
000708:                                                                                                  #  IF NOT, IT CHECKS WHETHER THE TURN-ON REQUEST CHANGE IS TO ON OR OFF.  IF ON, IT SETS BIT7 OF IMODES30 TO 1 SO
000709:                                                                                                  #  THAT TNONTEST WILL INITIATE THE ISS INITIALIZATION SEQUENCE.  IF OFF, THE TURN-ON DELAY SIGNAL, CHANNEL 12 BIT
000710:                                                                                                  #  15, IS CHECKED AND IF IT IS ON, ITURNON EXITS.  IF THE DELAY SIGNAL IS OFF, PROGRAM ALARM 00207 IS ISSUED, BIT 2
000711:                                                                                                  #  OF IMODES30 IS SET TO 1 AND THE PROGRAM EXITS.
000712:                                                                                                  #           THE SETTING OF BIT 2 OF IMODES30 (ISS DELAY SEQUENCE FAIL) INHIBITS THIS ROUTINE AND IMUOP FROM
000713:                                                                                                  #  PROCESSING ANY CHANGES.  THIS BIT WILL BE RESET BY THE ENDTNON ROUTINE WHEN THE CURRENT 90 SECOND DELAY PERIOD
000714:                                                                                                  #  ENDS.
000715:
000716:                                                                                                  #  CALLING SEQUENCE:  FROM IMUMOM WHEN ISS TURN-ON REQUEST CHANGES STATE.
000717:
000718:                                                                                                  #  JOBS OR TASKS INITIATED:  NONE.
000719:
000720:                                                                                                  #  SUBROUTINES CALLED:  ALARM, IF THE ISS TURN-ON REQUEST IS NOT PRESENT FOR 90 SECONDS.
000721:
000722:                                                                                                  #  ERASABLE INITIALIZATION:  FRESH START AND RESTART SET BIT 15 OF CHANNEL 12 AND BITS 2 AND 7 OF IMODES30 TO 0,
000723:                                                                                                  #  AND BIT 14 OF IMODES30 TO 1.
000724:
000725:                                                                                                  #  ALARMS:  PROGRAM ALARM 00207 IS ISSUED IF THE ISS TURN-ON REQUEST SIGNAL IS NOT PRESENT FOR 90 SECONDS.
000726:
000727:                                                                                                  #  EXIT:  NXTIFAIL.
000728:
000729:                                                                                                  #  OUTPUT:  BIT 7 OF IMODES30 TO START ISS INITIALIZATION, OR BIT 2 OF IMODES30 AND PROGRAM ALARM 00207 TO INDICATE
000730:                                                                                                  #  A FAILED TURN-ON SEQUENCE.
000731:
000732: 06,2533           34752        ITURNON            CAF      BIT2                                  #  IF DELAY REQUEST HAS GONE OFF
000733: 06,2534           71302                           MASK     IMODES30                              #  PREMATURELY, DO NOT PROCESS ANY CHANGES
000734: 06,2535           10000                           CCS      A                                     #  UNTIL THE CURRENT 90 SEC WAIT EXPIRES.
000735: 06,2536           12225                           TCF      NXTIFAIL
000736:
000737: 06,2537           34736                           CAF      BIT14                                 #  SEE IF JUST ON OR OFF.
000738: 06,2540           71302                           MASK     IMODES30
000739: 06,2541           00006                           EXTEND
000740: 06,2542           12556                           BZF      ITURNON2                              #  IF JUST ON.
000741:
000742: 06,2543           34735                           CAF      BIT15
000743: 06,2544           00006                           EXTEND                                         #  SEE IF DELAY PRESENT DISCRETE HAS BEEN
000744: 06,2545           02012                           RAND     CHAN12                                #  SENT. IF SO, ACTION COMPLETE
000745: 06,2546           00006                           EXTEND
000746: 06,2547           12551                           BZF      +2
000747: 06,2550           12225                           TCF      NXTIFAIL
000748:
000749: 06,2551           34752                           CAF      BIT2                                  #  IF NOT, SET BIT TO INDICATE REQUEST NOT
000750: 06,2552           27302                           ADS      IMODES30                              #  PRESENT FOR FULL DURATION.
000751: 06,2553           05567                           TC       ALARM
000752: 06,2554           00207                           OCT      207
000753: 06,2555           12225                           TCF      NXTIFAIL
000754:


000756: 06,2556           41302        ITURNON2           CS       IMODES30                              #  SET BIT7 TO INDICATE WAIT OF 1 SAMPLE
000757: 06,2557           74745                           MASK     BIT7
000758: 06,2560           27302                           ADS      IMODES30
000759: 06,2561           32564                           CAF      RRINIT
000760: 06,2562           54110                           TS       RADMODES
000761: 06,2563           12225                           TCF      NXTIFAIL
000762:
000763: 06,2564           00102        RRINIT             OCT      00102
000764:


000766:                                                                                                  #  PROGRAM NAME:  IMUCAGE.
000767:
000768:                                                                                                  #  FUNCTIONAL DESCRIPTION:  THIS PROGRAM PROCESSES CHANGES OF THE IMUCAGE INBIT, CHANNEL 30 BIT 11.  IF THE BIT
000769:                                                                                                  #  CHANGES TO 0 (CAGE BUTTON PRESSED), THE ISS IS CAGED (ICDU ZERO + COARSE ALIGN + NO ATT LAMP) UNTIL THE
000770:                                                                                                  #  ASTRONAUT SELECTS ANOTHER PROGRAM TO ALIGN THE ISS.  ANY PULSE TRAINS TO THE ICDU'S AND GYRO'S ARE TERMINATED,
000771:                                                                                                  #  THE ASSOCIATED OUTCOUNTERS ARE ZEROED AND THE GYRO'S ARE DE-SELECTED.  NO ACTION OCCURS WHEN THE BUTTON IS
000772:                                                                                                  #  RELEASED (INBIT CHANGES TO 1).
000773:
000774:                                                                                                  #  CALLING SEQUENCE:  BY IMUMON WHEN IMU CAGE BIT CHANGES.
000775:
000776:                                                                                                  #  JOBS OR TASKS INITIATED:  NONE.
000777:
000778:                                                                                                  #  SUBROUTINES CALLED:  CAGESUB.
000779:
000780:                                                                                                  #  ERASABLE INITIALIZATION:  FRESH START AND RESTART SET BIT 11 OF IMODES30 TO 1.
000781:
000782:                                                                                                  #  ALARMS:  NONE.
000783:
000784:                                                                                                  #  EXIT:  NXTIFAIL.
000785:
000786:                                                                                                  #  OUTPUT:  ISS CAGED, COUNTERS ZEROED, PULSE TRAINS TERMINATED AND NO ATT LAMP LIT.
000787:
000788: 06,2565           10000        IMUCAGE            CCS      A                                     #  NO ACTION IF GOING OFF.
000789: 06,2566           12361                           TCF      ISSZERO
000790: 06,2567           43002                           CS       OCT77000                              #  TERMINATE ICDU,RCDU, GYRO PULSE TRAINS
000791: 06,2570           00006                           EXTEND
000792: 06,2571           03014                           WAND     CHAN14
000793:
000794: 06,2572           42776                           CS       OCT272                                #  KNOCK DOWN DISPLAY INERTIAL DATA, IMU
000795: 06,2573           00006                           EXTEND                                         #  ERROR COUNTER ENABLE, ZERO ICDU, COARSE
000796: 06,2574           03012                           WAND     CHAN12                                #  ALIGN ENABLE, RR ERROR COUNTER ENABLE.
000797:
000798: 06,2575           44745                           CS       ENGONBIT                              #  INSURE ENGONFLG IS CLEAR.
000799: 06,2576           70101                           MASK     FLAGWRD5
000800: 06,2577           54101                           TS       FLAGWRD5
000801: 06,2600           44355                           CS       PRIO30                                #  TURN ENGINE OFF.
000802: 06,2601           00006                           EXTEND
000803: 06,2602           02011                           RAND     DSALMOUT
000804: 06,2603           64736                           AD       BIT14
000805: 06,2604           00006                           EXTEND
000806: 06,2605           01011                           WRITE    DSALMOUT                              #  FORCE BIT14=1, BIT13=0.
000807:
000808: 06,2606           02743                           TC       CAGESUB1
000809:
000810: 06,2607           04674                           TC       IBNKCALL                              #  KNOCK DOWN TRACK, REFSMMAT, DRIFT FLAGS
000811: 06,2610           17150                           CADR     RNDREFDR
000812:
000813: 06,2611           44755                           CS       ZERO
000814: 06,2612           54050                           TS       CDUXCMD
000815: 06,2613           54051                           TS       CDUYCMD
000816:


000818: 06,2614           54052                           TS       CDUZCMD
000819: 06,2615           54047                           TS       GYROCMD
000820:
000821: 06,2616           43001                           CS       OCT740                                #  HAVING WAITED AT LEAST 27 MCT FROM
000822: 06,2617           00006                           EXTEND                                         #  GYRO PULSE TRAIN TERMINATION, WE CAN
000823: 06,2620           03014                           WAND     CHAN14                                #  DE-SELECT THE GYROS
000824: 06,2621           12225                           TCF      NXTIFAIL
000825:


000827:                                                                                                  #  PROGRAM NAME:  IMUOP.
000828:
000829:                                                                                                  #  FUNCTIONAL DESCRIPTION:  THIS PROGRAM PROCESSES CHANGES IN THE ISS OPERATE DISCRETE, BIT 9 OF CHANNEL 30.
000830:                                                                                                  #  IF THE INBIT CHANGES TO 0, INDICATING ISS ON, IMUOP GENERALLY SETS BIT 7 OF IMODES30 TO 1 TO REQUEST ISS
000831:                                                                                                  #  INITIALIZATION VIA TNONTEST.  AN EXCEPTION IS DURING A FAILED ISS DELAY DURING WHICH BIT 2 OF IMODES30 IS SET
000832:                                                                                                  #  TO 1 AND NO FURTHER INITIALIZATION IS REQUIRED.  WHEN THE INBIT CHANGES TO 1, INDICATING ISS OFF, IMUSEFLG IS
000833:                                                                                                  #  TESTED TO SEE IF ANY PROGRAM WAS USING THE ISS.  IF SO, PROGRAM ALARM 00214 IS ISSUED.
000834:
000835:                                                                                                  #  CALLING SEQUENCE:  BY IMUMON WHEN BIT 9 OF CHANNEL 30 CHANGES.
000836:
000837:                                                                                                  #  JOBS OR TASKS INITIATED:  NONE.
000838:
000839:                                                                                                  #  SUBROUTINES CALLED:  ALARM, IF ISS IS TURNED OFF WHILE IN USE.
000840:
000841:                                                                                                  #  ERASABLE INITIALIZATION:  ON FRESH START AND RESTART, BIT 9 OF IMODES30 IS SET TO 1 EXCEPT WHEN THE GIMBAL LOCK
000842:                                                                                                  #  LAMP IS ON, IN WHICH CASE IT IS SET TO 0.  THIS PREVENTS ICDU ZERO BY TNONTEST WITH THE ISS IN GIMBAL LOCK.
000843:
000844:                                                                                                  #  ALARMS:  PROGRAM ALARM 00214 IF THE ISS IS TURNED OFF WHILE IN USE.
000845:
000846:                                                                                                  #  EXIT:  NXTIFAIL.
000847:
000848:                                                                                                  #  OUTPUT:  ISS INITIALIZATION REQUEST (IMODES30 BIT 7) OR PROGRAM ALARM 00214.
000849:
000850: 06,2622           00006        IMUOP              EXTEND
000851: 06,2623           12643                           BZF      IMUOP2
000852:
000853: 06,2624           41303                           CS       IMODES33                              #  DISABLE DAP
000854: 06,2625           74746                           MASK     BIT6
000855: 06,2626           27303                           ADS      IMODES33
000856:
000857: 06,2627           04674                           TC       IBNKCALL                              #  KNOCK DOWN TRACK, REFSMMAT, DRIFT FLAGS
000858: 06,2630           17150                           CADR     RNDREFDR
000859:
000860: 06,2631           42777                           CS       BITS7&8                               #  KNOCK DOWN RENDEZVOUS, IMUUSE FLAGS
000861: 06,2632           70074                           MASK     FLAGWRD0
000862: 06,2633           56074                           XCH      FLAGWRD0                              #  IF GOING OFF, ALARM IF PROG USING IMU.
000863: 06,2634           40000                           COM
000864: 06,2635           74744                           MASK     IMUSEFLG
000865: 06,2636           10000                           CCS      A
000866: 06,2637           12225                           TCF      NXTIFAIL
000867:
000868: 06,2640           05567                           TC       ALARM
000869: 06,2641           00214                           OCT      214
000870: 06,2642           12225                           TCF      NXTIFAIL
000871:
000872: 06,2643           34752        IMUOP2             CAF      BIT2                                  #  SEE IF FAILED ISS TURN-ON SEQ IN PROG.
000873: 06,2644           71302                           MASK     IMODES30
000874: 06,2645           10000                           CCS      A
000875: 06,2646           12225                           TCF      NXTIFAIL                              #  IF SO, DONT PROCESS UNTIL PRESENT 90
000876: 06,2647           12556                           TCF      ITURNON2                              #  SECONDS EXPIRES.
000877:


000879:                                                                                                  #  PROGRAM NAME:  PIPFAIL
000880:
000881:                                                                                                  #  FUNCTIONAL DESCRIPTION:  THIS PROGRAM PROCESSES CHANGES OF BIT 13 OF CHANNEL 33, PIPA FAIL.  IT SETS BIT 10 OF
000882:                                                                                                  #  IMODES30 TO AGREE.  IT CALLS SETISSW IN CASE A PIPA FAIL NECESSITATES AN ISS WARNING.  IF NOT, I.E., IMODES30
000883:                                                                                                  #  BIT 1 = 1, AND A PIPA FAIL IS PRESENT AND THE ISS IS NOT BEING INITIALIZED, PROGRAM ALARM 00212 IS ISSUED.
000884:
000885:                                                                                                  #  CALLING SEQUENCE:  BY C33TEST ON CHANGES OF CHANNEL 33 BIT 13.
000886:
000887:                                                                                                  #  JOBS OR TASKS INITIATED:  NONE.
000888:
000889:                                                                                                  #  SUBROUTINES CALLED:  1) SETISSW, AND 2) ALARM (SEE FUNCTIONAL DESCRIPTION).
000890:
000891:                                                                                                  #  ERASABLE INITIALIZATION:  SEE IMUMON FOR INITIALIZATION OF IMODES30.  THE RELAVANT BITS ARE 5, 7, 8, 9, AND 10.
000892:
000893:                                                                                                  #  ALARMS:  PROGRAM ALARM 00212 IF PIPA FAIL IS PRESENT BUT NEITHER ISS WARNING IS TO BE ISSUED NOR THE ISS IS
000894:                                                                                                  #  BEING INITIALIZED.
000895:
000896:                                                                                                  #  EXIT:  NXTFL33.
000897:
000898:                                                                                                  #  OUTPUT:  PROGRAM ALARM 00212 AND ISS WARNING MAINTENANCE.
000899:
000900: 06,2650           10000        PIPFAIL            CCS      A                                     #  SET BIT10 IN IMODES30 SO ALL ISS WARNING
000901: 06,2651           34742                           CAF      BIT10                                 #  INFO IS IN ONE REGISTER.
000902: 06,2652           57302                           XCH      IMODES30
000903: 06,2653           73004                           MASK     -BIT10
000904: 06,2654           27302                           ADS      IMODES30
000905:
000906: 06,2655           02703                           TC       SETISSW
000907:
000908: 06,2656           41302                           CS       IMODES30                              #  IF PIP FAIL DOESNT LIGHT ISS WARNING, DO
000909: 06,2657           74753                           MASK     BIT1                                  #  A PROGRAM ALARM IF IMU OPERATING BUT NOT
000910: 06,2660           10000                           CCS      A                                     #  CAGED OR BEING TURNED ON.
000911: 06,2661           12432                           TCF      NXTFL33
000912:
000913: 06,2662           31302                           CA       IMODES30
000914: 06,2663           73000                           MASK     OCT1720
000915: 06,2664           10000                           CCS      A
000916: 06,2665           12432                           TCF      NXTFL33                               #  ABOVE CONDITION NOT MET.
000917:
000918: 06,2666           05567                           TC       ALARM
000919: 06,2667           00212                           OCT      212
000920: 06,2670           12432                           TCF      NXTFL33
000921:


000923:                                                                                                  #  PROGRAM NAMES:  DNTMFAST, UPTMFAST
000924:
000925:                                                                                                  #  FUNCTIONAL DESCRIPTION:  THESE PROGRAMS PROCESS CHANGES OF BITS 12 AND 11 OF CHANNEL 33.  IF A BIT CHANGES TO A
000926:                                                                                                  #  0, A PROGRAM ALARM IS ISSUED.  THE ALARMS ARE:
000927:
000928:                                                                                                  #           BIT    ALARM           CAUSE
000929:                                                                                                  #           ---    -----           -----
000930:                                                                                                  #            12    01105           DOWNLINK TOO FAST
000931:                                                                                                  #            11    01106           UPLINK TOO FAST
000932:
000933:                                                                                                  #  CALLING SEQUENCE:  BY C33TEST ON A BIT CHANGE.
000934:
000935:                                                                                                  #  SUBROUTINES CALLED:  ALARM, IF A BIT CHANGES TO A 0.
000936:
000937:                                                                                                  #  ERASABLE INITIALIZATION:  FRESH START OR RESTART, BITS 12 AND 11 OF IMODES33 ARE SET TO 1.
000938:
000939:                                                                                                  #  ALARMS:  SEE FUNCTIONAL DESCRIPTION.
000940:
000941:                                                                                                  #  EXIT:  NXTFL33.
000942:
000943:                                                                                                  #  OUTPUT:  PROGRAM ALARM ON A BIT CHANGE TO 0.
000944:
000945: 06,2671           10000        DNTMFAST           CCS      A                                     #  DO PROG ALARM IF TM TOO FAST.
000946: 06,2672           12432                           TCF      NXTFL33
000947:
000948: 06,2673           05567                           TC       ALARM
000949: 06,2674           01105                           OCT      1105
000950: 06,2675           12432                           TCF      NXTFL33
000951:
000952: 06,2676           10000        UPTMFAST           CCS      A                                     #  SAME AS DNLINK TOO FAST WITH DIFFERENT
000953: 06,2677           12432                           TCF      NXTFL33                               #  ALARM CODE.
000954:
000955: 06,2700           05567                           TC       ALARM
000956: 06,2701           01106                           OCT      1106
000957: 06,2702           12432                           TCF      NXTFL33


000959:                                                                                                  #  PROGRAM NAME:  SETISSW
000960:
000961:                                                                                                  #  FUNCTIONAL DESCRIPTION:  THIS PROGRAM TURNS THE ISS WARNING LAMP ON AND OFF (CHANNEL 11 BIT 1 = 1 FOR ON,
000962:                                                                                                  #  0 FOR OFF) DEPENDING ON THE STATUS OF IMODES30 BITS 13 (IMU FAIL) AND 4 (INHIBIT IMU FAIL), 12 (ICDU FAIL) AND
000963:                                                                                                  #  3 (INHIBIT ICDU FAIL), AND 10 (PIPA FAIL) AND 1 (INHIBIT PIPA FAIL).  THE LAMP IS LEFT ON IF A LAMP TEST IS IN
000964:                                                                                                  #  PROGRESS.
000965:
000966:                                                                                                  #  CALLING SEQUENCE:  CALLED BY IMUMON ON CHANGES TO IMU FAIL AND ICDU FAIL.  CALLED BY IFAILOK AND PFAILOK UPON
000967:                                                                                                  #  REMOVAL OF THE FAIL INHIBITS.  CALLED BY PIPFAIL WHEN THE PIPA FAIL DISCRETE CHANGES.  IT IS CALLED BY PIPUSE
000968:                                                                                                  #  SINCE THE PIPA FAIL PROGRAM ALARM MAY NECESSITATE AN ISS WARNING, AND LIKEWISE BY PIPFREE WHEN THE ALARM DEPARTS
000969:                                                                                                  #  AND IT IS CALLED BY IMUZERO3 AND ISSUP AFTER THE FAIL INHIBITS HAVE BEEN REMOVED.
000970:
000971:                                                                                                  #  JOBS OR TASKS INITIATED:  NONE.
000972:
000973:                                                                                                  #  SUBROUTINES CALLED:  NONE.
000974:
000975:                                                                                                  #  ERASABLE INITIALIZATION:
000976:
000977:                                                                                                  #           1) IMODES30 - SEE IMUMON.
000978:                                                                                                  #           2) IMODES33 BIT 1 = 0 (LAMP TEST NOT IN PROGRESS).
000979:
000980:                                                                                                  #  ALARMS:  ISS WARNING.
000981:
000982:                                                                                                  #  THE FOLLOWING PROGRAM ALARMS WILL SHOW WHICH FAILURE CAUSED THE ISS WARN
000983:                                                                                                  #  PROGRAM ALARM 00777  PIPA FAIL
000984:                                                                                                  #  PROGRAM ALARM 03777  ICDU FAIL
000985:                                                                                                  #  PROGRAM ALARM 04777  ICDU , PIPA FAILS
000986:                                                                                                  #  PROGRAM ALARM 07777  IMU FAIL
000987:                                                                                                  #  PROGRAM ALARM 10777  IMU , PIPA FAILS
000988:                                                                                                  #  PROGRAM ALARM 13777  IMU , ICDU FAILS
000989:                                                                                                  #  PROGRAM ALARM 14777  IMU , ICDU , PIPA FAILS
000990:
000991:                                                                                                  #  EXIT:  VIA Q.
000992:
000993:                                                                                                  #  OUTPUT:  ISS WARNING LAMP SET PROPERLY.
000994:
000995: 06,2703           34761        SETISSW            CAF      OCT15                                 #  SET ISS WARNING USING THE FAIL BITS IN
000996: 06,2704           71302                           MASK     IMODES30                              #  BITS 13, 12, AND 10 OF IMODES30 AND THE
000997: 06,2705           00006                           EXTEND                                         #  FAILURE INHIBIT BITS IN POSITIONS
000998: 06,2706           74742                           MP       BIT10                                 #  4, 3, AND 1.
000999: 06,2707           31302                           CA       IMODES30
001000: 06,2710           00006                           EXTEND
001001: 06,2711           04001                           ROR      LCHAN                                 #  0 INDICATES FAILURE
001002: 06,2712           40000                           COM
001003: 06,2713           75025                           MASK     OCT15000
001004: 06,2714           10000                           CCS      A
001005: 06,2715           12726                           TCF      ISSWON                                #  FAILURE.
001006:
001007: 06,2716           34753        ISSWOFF            CAF      BIT1                                  #  DONT TURN OFF ISS WARNING IF LAMP TEST
001008: 06,2717           71303                           MASK     IMODES33                              #  IN PROGRESS.
001009:


001011: 06,2720           10000                           CCS      A
001012: 06,2721           00002                           TC       Q
001013:
001014: 06,2722           44753                           CS       BIT1
001015: 06,2723           00006                           EXTEND
001016: 06,2724           03011                           WAND     DSALMOUT
001017: 06,2725           00002                           TC       Q
001018:
001019: 06,2726           00006        ISSWON             EXTEND
001020: 06,2727           22066                           QXCH     ITEMP6
001021: 06,2730           05735                           TC       VARALARM                              #  TELL EVERYONE WHAT CAUSED THE ISSWARNING
001022: 06,2731           34753                           CAF      BIT1
001023: 06,2732           00006                           EXTEND
001024: 06,2733           05011                           WOR      DSALMOUT
001025: 06,2734           00066                           TC       ITEMP6
001026:
001027: 06,2735           43003        CAGESUB            CS       BITS6&15                              #  SET OUTBITS AND INTERNAL FLAGS FOR
001028: 06,2736           00006                           EXTEND                                         #  SYSTEM TURN-ON OR CAGE. DISABLE THE
001029: 06,2737           03012                           WAND     CHAN12                                #  ERROR COUNTER AND REMOVE IMU DELAY COMP.
001030: 06,2740           34763                           CAF      BITS4&5                               #  SEND ZERO AND COARSE.
001031: 06,2741           00006                           EXTEND
001032: 06,2742           05012                           WOR      CHAN12
001033:
001034: 06,2743           41036        CAGESUB1           CS       DSPTAB     +11D                       #  TURN ON NO ATT LAMP
001035: 06,2744           72773                           MASK     OC40010
001036: 06,2745           27036                           ADS      DSPTAB     +11D
001037:
001038: 06,2746           41302        CAGESUB2           CS       IMODES30                              #  SET FLAGS TO INDICATE CAGING OR TURN-ON
001039: 06,2747           72775                           MASK     OCT75                                 #      AND INHIBIT ALL ISS WARNING INFO
001040: 06,2750           27302                           ADS      IMODES30
001041:
001042: 06,2751           41303                           CS       IMODES33                              #  DISABLE DAP AUTO AND HOLD MODES
001043: 06,2752           74746                           MASK     BIT6
001044: 06,2753           27303                           ADS      IMODES33
001045:
001046: 06,2754           00002                           TC       Q
001047:
001048: 06,2755  06,2703               IMUFAIL            EQUALS   SETISSW
001049: 06,2755  06,2703               ICDUFAIL           EQUALS   SETISSW
001050:


001052:                                                                                                  #           JUMP TABLES AND CONSTANTS.
001053:
001054: 06,2755           12533        IFAILJMP           TCF      ITURNON                               #  CHANNEL 30 DISPATCH.
001055: 06,2756           12703                           TCF      IMUFAIL
001056: 06,2757           12703                           TCF      ICDUFAIL
001057: 06,2760           12565                           TCF      IMUCAGE
001058: 06,2761           76400        30RDMSK            OCT      76400                                 #  (BIT 10 NOT SAMPLED HERE).
001059: 06,2762           12622                           TCF      IMUOP
001060:
001061: 06,2763           12650        C33JMP             TCF      PIPFAIL                               #  CHANNEL 33 DISPATCH.
001062: 06,2764           12671                           TCF      DNTMFAST
001063: 06,2765           12676                           TCF      UPTMFAST
001064:
001065:                                                                                                  #           SUBROUTINE TO SKIP IF LAMP TEST NOT IN PROGRESS.
001066: 06,2766           41303        LAMPTEST           CS       IMODES33                              #  BIT 1 OF IMODES33 = 1 IF LAMP TEST IN
001067: 06,2767           74753                           MASK     BIT1                                  #  PROGRESS.
001068: 06,2770           10000                           CCS      A
001069: 06,2771           24002                           INCR     Q
001070: 06,2772           00002                           TC       Q
001071:
001072: 06,2773     5026               33RDMSK            EQUALS   PRIO16
001073: 06,2773           40010        OC40010            OCT      40010
001074: 06,2774           00054        OCT54              OCT      54
001075: 06,2775           00075        OCT75              OCT      75
001076: 06,2776           00272        OCT272             OCT      00272
001077: 06,2777           00300        BITS7&8            OCT      300
001078: 06,3000           01720        OCT1720            OCT      1720
001079: 06,3001           00740        OCT740             OCT      00740
001080: 06,3002     5025               OCT15000           EQUALS   PRIO15
001081: 06,3002           77000        OCT77000           OCT      77000
001082: 06,3003           40040        BITS6&15           OCT      40040
001083: 06,3004           76777        -BIT10             OCT      -1000
001084:
001085: 06,3005           21450        90SECS             DEC      9000       B-14
001086: 06,3006     5742               120MS              =        OCT14                                 #  (DEC12)
001087: 06,3006     5270               GLOCKOK            EQUALS   RESUME
001088:


001090:                                                                                                  #  PROGRAM NAME_  RRAUTCHK
001091:
001092:                                                                                                  #  FUNCTIONAL DESCRIPTION_
001093:                                                                                                  #  RRAUTCHK IS THE RENDEZVOUS RADAR INBIT MONITOR. INITIALLY THE RR
001094:                                                                                                  #  POWER ON AUTO (CHAN 33 BIT 2) INBIT IS CHECKED. IF NO CHANGE, THE
001095:                                                                                                  #  PROGRAM EXITS TO RRCDUCHK. IF A CHANGE, RADMODES IS UPDATED
001096:                                                                                                  #  AND A CHECK MADE IF RR POWER HAS JUST COME ON. IF JUST OFF, A CHECK
001097:                                                                                                  #  IS MADE TO SEE IF A PROGRAM WAS USING THE RR (STATE BIT 7). IF NO,
001098:                                                                                                  #  THE PROGRAM EXITS TO RRCDUCHK. IF YES, PROGRAM ALARM 00514
001099:                                                                                                  #  IS REQUESTED BEFORE EXITING TO RRCDUCHK. IF RR POWER HAS JUST COME
001100:                                                                                                  #  ON, A CHECK IS MADE TO SEE IF A PROGRAM WAS USING THE RR (STATE BIT 7).
001101:                                                                                                  #  IF YES, THE PROGRAM EXITS TO RRCDUCHK WITHOUT REQUESTING THE TURN-ON
001102:                                                                                                  #  SEQUENCE. IF NO, RADMODES IS UPDATED TO INDICATE RR CDU ZERO AND
001103:                                                                                                  #  RR TURN-ON SEQUENCE (BITS 13, 1). A 10 MILLISECOND WAITLIST CALL
001104:                                                                                                  #  IS THEN SET FOR RRTURNON BEFORE THE PROGRAM EXITS TO NORRGMON.
001105:
001106:                                                                                                  #  CALLING SEQUENCE_
001107:                                                                                                  #  T4RUPT EVERY 480 MILLISECONDS
001108:
001109:                                                                                                  #  ERASABLE INITIALIZATION REQUIRED_
001110:                                                                                                  #  RADMODES, STATE
001111:
001112:                                                                                                  #  SUBROUTINES CALLED_
001113:                                                                                                  #  WAITLIST
001114:
001115:                                                                                                  #  JOBS OR TASKS INITIATED_
001116:                                                                                                  #  RRTURNON
001117:
001118:                                                                                                  #  ALARMS_   PROGRAM ALARM 00514 - RADAR GOES OUT OF AUTO MODE WHILE BEING
001119:                                                                                                  #  USED
001120:
001121:                                                                                                  #  EXIT_  RRCDUCHK, NORRGMON
001122:
001123: 06,3006           30110        RRAUTCHK           CA       RADMODES                              #  SEE IF CHANGE IN RR AUTO MODE BIT.
001124: 06,3007           00006                           EXTEND
001125: 06,3010           06033                           RXOR     CHAN33
001126: 06,3011           74752                           MASK     BIT2
001127: 06,3012           00006                           EXTEND
001128: 06,3013           13037                           BZF      RRCDUCHK
001129:
001130: 06,3014           22110                           LXCH     RADMODES                              #  UPDATE RADMODES.
001131: 06,3015           00006                           EXTEND
001132: 06,3016           06001                           RXOR     LCHAN
001133: 06,3017           73033                           MASK     OCT05776                              #  CLR CONT. DES., REMODE, REPOS, CDUZERO,
001134: 06,3020           54110                           TS       RADMODES                              #    AND TURNON BITS.
001135: 06,3021           74752                           MASK     BIT2                                  #  SEE IF JUST ON.
001136: 06,3022           10000                           CCS      A
001137: 06,3023           13034                           TCF      RRCDUCHK   -3                         #  OFF.  GO DISABLE RR CDU ERROR COUNTERS.
001138: 06,3024           37662                           CA       OCT10001                              #  SET RRCDUZRO AND TURNON BITS.
001139: 06,3025           26110                           ADS      RADMODES
001140:


001142: 06,3026           34753                           CAF      ONE
001143: 06,3027           05203                           TC       WAITLIST
001144: 06,3030  E7,1454                                  EBANK=   LOSCOUNT
001145: 06,3030           02062 52107                     2CADR    RRTURNON
001146:
001147: 06,3032           13132                           TCF      NORRGMON
001148:
001149: 06,3033           05776        OCT05776           OCT      5776
001150:


001152:                                                                                                  #  PROGRAM NAME_ RRCDUCHK
001153:
001154:                                                                                                  #  FUNCTIONAL DESCRIPTION_
001155:                                                                                                  #  RRCDUCHK CHECKS FOR RR CDU FAIL (CHAN 30 BIT 7). INITIALLY THE
001156:                                                                                                  #  RR CDU FAIL BIT IS SAMPLED (CHAN 30 BIT 7). IF NO CHANGE, THE
001157:                                                                                                  #  PROGRAM EXITS TO RRGIMON. IF A CHANGE, THE RR AUTO MODE
001158:                                                                                                  #  (RADMODES BIT 2) BIT IS CHECKED. IF NOT IN RR AUTO MODE, THE
001159:                                                                                                  #  PROGRAM EXITS TO NORRGMON. IF IN AUTO MODE, RADMODES BIT 7
001160:                                                                                                  #  (RR CDU OK) IS UPDATED AND IF P-20 IS OPERATING PROGRAM ALARM 00515 IS
001161:                                                                                                  #  REQUESTED. CONTROL IS TRANSFERRED TO SETTRKF TO UPDATE
001162:                                                                                                  #  THE TRACKER FAIL LAMP (DSPTAB+11D BIT 8). CONTROL RETURNS TO
001163:                                                                                                  #  RRGIMON.
001164:
001165:                                                                                                  #  CALLING SEQUENCE_
001166:                                                                                                  #  EVERY 480 MILLISECONDS FROM RRAUTCHK (VIA T4RUPT) UNLESS A
001167:                                                                                                  #  TURN-ON SEQUENCE HAS JUST BEEN INITIATED.
001168:
001169:                                                                                                  #  ERASABLE INITIALIZATION REQUIRED_
001170:                                                                                                  #  RADMODES
001171:
001172:                                                                                                  #  SUBROUTINES CALLED_
001173:                                                                                                  #  SETTRKF
001174:
001175:                                                                                                  #  JOBS OR TASKS INITIATED_
001176:                                                                                                  #  NONE
001177:
001178:                                                                                                  #  ALARMS_
001179:                                                                                                  #  TRACKER FAIL
001180:                                                                                                  #  PROGRAM ALARM 00515 - RRCDU FAIL DURING P-20
001181:
001182:                                                                                                  #  EXIT_
001183:                                                                                                  #  RRGIMON, NORRGMON
001184:
001185: 06,3034           44752                 -3        CS       BIT2
001186: 06,3035           00006                           EXTEND
001187: 06,3036           03012                           WAND     CHAN12                                #  AT TURNON, DISABLE CDU ERROR COUNTERS.
001188:
001189: 06,3037           30110        RRCDUCHK           CA       RADMODES                              #  LAST SAMPLED BIT IN RADMODES.
001190: 06,3040           00006                           EXTEND
001191: 06,3041           06030                           RXOR     CHAN30
001192: 06,3042           74745                           MASK     BIT7
001193: 06,3043           00006                           EXTEND
001194: 06,3044           13071                           BZF      RRGIMON
001195:
001196: 06,3045           34752                           CAF      BIT2                                  #  IF RR NOT IN AUTO MODE, DONT CHANGE BIT
001197: 06,3046           70110                           MASK     RADMODES                              #  7 OF RADMODES. IF THIS WERE NOT DONE,
001198: 06,3047           10000                           CCS      A                                     #  THE TRACKER FAIL MIGHT COME ON WHEN
001199: 06,3050           13132                           TCF      NORRGMON                              #  JUST READING LR DATA.
001200:
001201: 06,3051           34745                           CAF      BIT7                                  #  SET BIT 7 OF RADMODES FOR SETTRKF.
001202:


001204: 06,3052           22110                           LXCH     RADMODES                              #  UPDATE RADMODES.
001205: 06,3053           00006                           EXTEND
001206: 06,3054           06001                           RXOR     L
001207: 06,3055           54110                           TS       RADMODES
001208:
001209: 06,3056           30110                           CA       RADMODES                              #  DID RR CDU FAIL
001210: 06,3057           74745                           MASK     BIT7
001211: 06,3060           10000                           CCS      A
001212: 06,3061           13070                           TCF      TRKFLCDU                              #  NO
001213: 06,3062           40074                           CS       FLAGWRD0                              #  RNDVFLG  P20 OR P22 OPERATING
001214: 06,3063           74745                           MASK     RNDVZBIT
001215: 06,3064           10000                           CCS      A
001216: 06,3065           13070                           TCF      TRKFLCDU                              #  NO
001217: 06,3066           05567                           TC       ALARM                                 #  YES
001218: 06,3067           00515                           OCT      00515
001219: 06,3070           04564        TRKFLCDU           TC       SETTRKF                               #  UPDATE TRACKER FAIL LAMP ON DSKY.
001220:


001222:                                                                                                  #  PROGRAM NAME_  RRGIMON                                                   E AUTO MODE EXCEPT WHEN THE RR CDUS ARE
001223:
001224:                                                                                                  #  FUNCTIONAL DESCRIPTION_                                                  TTER IS INITIATED BY THIS MONITOR WHEN
001225:                                                                                                  #  RRGIMON IS THE RR GIMBAL LIMIT MONITOR.  INITIALLY THE FOLLOWING IS      ED TO DRIVE THE GIMBALS TO T = 0 AND
001226:                                                                                                  #  CHECKED_  REMODE, RR CDU:S BEING ZEROED, REPOSITION, AND RR
001227:                                                                                                  #  NOT IN AUTO MODE (RADMODES BITS 14, 13, 11 2). IF ANY OF THESE
001228:                                                                                                  #  EXIST THE PROGRAM EXITS TO GPMATRIX. IF NONE ARE PRESENT RRLIMCHK
001229:                                                                                                  #  IS CALLED TO SEE IF THE PRESENT RR CDU ANGLES (OPTY, OPTX) ARE WITHIN
001230:                                                                                                  #  THE LIMITS OF THE CURRENT MODE. IF WITHIN LIMITS, THE PROGRAM EXITS
001231:                                                                                                  #  TO NORRGMON. IF NOT WITHIN LIMITS, THE REPOSITION FLAG (RADMODES
001232:                                                                                                  #  BIT 11) IS SET, THE RR AUTO TRACKER AND RR ERROR COUNTER
001233:                                                                                                  #  (CHAN 12 BITS 14, 2) ARE DISABLED, AND A 20 MILLISECOND WAITLIST
001234:                                                                                                  #  CALL IS SET FOR DORREPOS AFTER WHICH THE PROGRAM EXITS TO NORRGMON.
001235:
001236:                                                                                                  #  CALLING SEQUENCE_
001237:                                                                                                  #  EVERY 480 MILLISECONDS FROM RRCDUCHK (VIA T4RUPT) UNLESS TURN-ON
001238:                                                                                                  #  HAS JUST BEEN INITIATED VIA RRAUTCHK OR IF THERE HAS BEEN A CHANGE IN
001239:                                                                                                  #  THE RR CDU FAIL BIT (CHAN 30 BIT 7) AND THE RR IS NOT IN THE AUTO MODE
001240:                                                                                                  #  (RADMODES BIT 2).
001241:
001242:                                                                                                  #  ERASABLE INITIALIZATION_   RADMODES
001243:
001244:                                                                                                  #  SUBROUTINES CALLED_
001245:                                                                                                  #  RRLIMCHK, WAITLIST
001246:
001247:                                                                                                  #  JOBS OR TASKS INITIATED_
001248:                                                                                                  #  DORREPOS
001249:
001250:                                                                                                  #  ALARMS_
001251:                                                                                                  #  NONE
001252:
001253:                                                                                                  #  EXIT_
001254:                                                                                                  #  NORRGMON
001255:
001256: 06,3071           30101        RRGIMON            CAE      FLAGWRD5                              #  IS NO ANGLE MONITOR FLAG SET
001257: 06,3072           74750                           MASK     NORRMBIT
001258: 06,3073           10000                           CCS      A
001259: 06,3074           13132                           TCF      NORRGMON                              #  YES - SKIP LIMIT CHECK
001260: 06,3075           40103                           CS       FLAGWRD7                              #  IS SERVICER RUNNING?
001261: 06,3076           74747                           MASK     AVEGFBIT
001262: 06,3077           10000                           CCS      A
001263: 06,3100           13105                           TCF      +5                                    #  NO.  DO R25
001264: 06,3101           30102                           CA       FLAGWRD6                              #  YES.  IS MUNFLAG SET?
001265: 06,3102           74744                           MASK     MUNFLBIT
001266: 06,3103           10000                           CCS      A
001267: 06,3104           13132                           TCF      NORRGMON                              #  YES.  DON'T DO R25
001268: 06,3105           33127                 +5        CAF      OCT32002                              #  INHIBIT BY REMODE,ZEROING,MONITOR.
001269: 06,3106           70110                           MASK     RADMODES                              #  OR RR NOT IN AUTO.
001270: 06,3107           10000                           CCS      A
001271: 06,3110           13132                           TCF      NORRGMON
001272:


001274: 06,3111           04523                           TC       RRLIMCHK                              #  SEE IF ANGLES IN LIMITS.
001275: 06,3112           00035                           ADRES    CDUT
001276:
001277: 06,3113           13115                           TCF      MONREPOS
001278:
001279: 06,3114           13132                           TCF      NORRGMON                              #  (ADDITIONAL CODING MAY GO HERE).
001280:
001281: 06,3115           34741        MONREPOS           CAF      BIT11                                 #  SET FLAG TO SHOW REPOSITION IN PROGRESS.
001282: 06,3116           26110                           ADS      RADMODES
001283:
001284: 06,3117           43130                           CS       OCT20002                              #  DISABLE TRACKER AND ERROR COUNTER.
001285: 06,3120           00006                           EXTEND
001286: 06,3121           03012                           WAND     CHAN12
001287:
001288: 06,3122           34752                           CAF      TWO
001289: 06,3123           05203                           TC       WAITLIST
001290: 06,3124  E7,1454                                  EBANK=   LOSCOUNT
001291: 06,3124           02127 52107                     2CADR    DORREPOS
001292:
001293: 06,3126           13132                           TCF      NORRGMON
001294:
001295: 06,3127           32002        OCT32002           OCT      32002
001296: 06,3130           20002        OCT20002           OCT      20002
001297: 06,3131           02100        OCT02100           OCT      02100                                 #  P20,P22 MASK BITS
001298:


001300:                                                                                                  #  PROGRAM NAME: GPMATRIX (DAPT4S) MOD. NO. 2  DATE: OCTOBER 27, 1966
001301:
001302:                                                                                                  #  AUTHOR: JONATHAN D. ADDELSTON (ADAMS ASSOCIATES)
001303:
001304:                                                                                                  #  MODIFIED:  7FEB. 1968 BY P. S. WEISSMAN TO DELETE COMPUTATION OF MR12 AND MR13, WHICH ARE NO LONGER REQIURED.
001305:
001306:                                                                                                  #  THIS PROGRAM CALCULATES ALL THE SINGLE-PRECISION MATRIX ELEMENTS WHICH ARE USED BY LEM DAP TO TRANSFORM VECTORS
001307:                                                                                                  #  FROM GIMBAL TO PILOT (BODY) AXES AND BACK AGAIN.  THESE ELEMENTS ARE USED EXCLUSIVELY BY BASIC LANGUAGE ROUTINES
001308:                                                                                                  #  AND THEREFORE ARE NOT ARRAYED FOR USE BY INTERPRETIVE PROGRAMS.
001309:
001310:                                                                                                  #  CALLING SEQUENCE: GPMATRIX IS TRANSFERRED TO FROM DAPT4S AND IS THUS EXECUTED 4 TIMES A SECOND BY T4RUPT.
001311:                                                                                                  #  DAPT4S IS LISTED IN T4JUMP TABLE TWICE EXPLICITLY AND ALSO OCCURS AFTER RRAUTCHK (WHICH IS ALSO LISTED TWICE).
001312:
001313:                                                                                                  #  SUBROUTINES CALLED: SPSIN, SPCOS.
001314:
001315:                                                                                                  #  NORMAL EXIT MODE:  TCF   RESUME
001316:
001317:                                                                                                  #  ALARM AND ABORT MODES:  NONE.
001318:
001319:                                                                                                  #  INPUT:  CDUX, CDUY, CDUZ.
001320:
001321:                                                                                                  #  OUTPUT:  M11, M21, M31, M22, M32.
001322:
001323:                                                                                                  #  AOG = CDUX, AIG = CDUY, AMG = CDUZ: MNEMONIC IS : OIM = XYZ
001324:
001325:                                                                                                  #     *       *    SIN(MG)        0         1       *
001326:                                                                                                  #     M   =   *    COS(MG)COS(OG) SIN(OG)   0       *
001327:                                                                                                  #      GP     *   -COS(MG)SIN(OG) COS(OG)   0       *
001328:
001329:                                                                                                  #     *       *  0    COS(OG)/COS(MG)         -SIN(OG)/COS(MG)         *
001330:                                                                                                  #     M   =   *  0    SIN(OG)                  COS(OG)                 *
001331:                                                                                                  #      PG     *  1   -SIN(MG)COS(OG)/COS(MG)   SIN(MG)SIN(OG)/COS(MG)  *
001332:
001333: 06,3132  E6,1412                                  EBANK=   M11
001334: 06,3132  06,3132               DAPT4S             EQUALS   GPMATRIX
001335:
001336:                                                                                                  #  T4RUPT DAP LOGIC:
001337:
001338: 06,3132           30034        GPMATRIX           CAE      CDUZ                                  #  SINGLE ENTRY POINT
001339: 06,3133           05033                           TC       SPSIN                                 #  SIN(CDUZ) = SIN(MG)
001340: 06,3134           55412                           TS       M11                                   #  SCALED AT 1
001341:
001342: 06,3135           30034                           CAE      CDUZ
001343: 06,3136           05032                           TC       SPCOS                                 #  COS(CDUZ) = COS(MG)
001344: 06,3137           54061                           TS       COSMG                                 #  SCALED AT 1 (ONLY A FACTOR)
001345:
001346: 06,3140           30032                           CAE      CDUX
001347: 06,3141           05033                           TC       SPSIN                                 #  SIN(CDUX) = SIN(OG)
001348: 06,3142           55415                           TS       M22                                   #  SCALED AT 1 (ALSO IS MR22)
001349:
001350: 06,3143           41415                           CS       M22
001351:


001353: 06,3144           00006                           EXTEND
001354: 06,3145           70061                           MP       COSMG                                 #  -SIN(OG)COS(MG)
001355: 06,3146           55414                           TS       M31                                   #  SCALED AT 1
001356:
001357: 06,3147           30032                           CAE      CDUX
001358: 06,3150           05032                           TC       SPCOS                                 #  COS(CDUX) = COS(OG)
001359: 06,3151           55416                           TS       M32                                   #  SCALED AT 1 (ALSO IS MR23)
001360:
001361: 06,3152           00006                           EXTEND
001362: 06,3153           70061                           MP       COSMG                                 #  COS(OG)COS(MG)
001363: 06,3154           55413                           TS       M21                                   #  SCALED AT 1
001364:
001365: 06,3155           05270                           TC       RESUME
001366:
001367: 06,3156  06,3132               NORRGMON           EQUALS   DAPT4S
001368: 06,3156     5270               ENDDAPT4           EQUALS   RESUME

End of include-file T4RUPT_PROGRAM.agc.  Parent file is MAIN.agc


