
Source Code


000002:                                                                                                  ## Copyright:   Public domain.
000003:                                                                                                  ## Filename:    T6-RUPT_PROGRAMS.agc
000004:                                                                                                  ## Purpose:     The main source file for Luminary revision 069.
000005:                                                                                                  ##              It is part of the source code for the original release
000006:                                                                                                  ##              of the flight software for the Lunar Module's (LM) Apollo
000007:                                                                                                  ##              Guidance Computer (AGC) for Apollo 10. The actual flown
000008:                                                                                                  ##              version was Luminary 69 revision 2, which included a
000009:                                                                                                  ##              newer lunar gravity model and only affected module 2.
000010:                                                                                                  ##              This file is intended to be a faithful transcription, except
000011:                                                                                                  ##              that the code format has been changed to conform to the
000012:                                                                                                  ##              requirements of the yaYUL assembler rather than the
000013:                                                                                                  ##              original YUL assembler.
000014:                                                                                                  ## Reference:   pp. 1398-1400
000015:                                                                                                  ## Assembler:   yaYUL
000016:                                                                                                  ## Contact:     Ron Burkey <info@sandroid.org>.
000017:                                                                                                  ## Website:     www.ibiblio.org/apollo/index.html
000018:                                                                                                  ## Mod history: 2016-12-13 MAS  Created from Luminary 99.
000019:                                                                                                  ##              2016-12-18 MAS  Updated from comment-proofed Luminary 99 version.
000020:                                                                                                  ##              2016-12-24 RRB  Updated for Luminary 69.
000021:                                                                                                  ##              2017-01-28 RSB  Proofed comment text using octopus/prooferComments
000022:                                                                                                  ##                              but no errors found.
000023:


000025:                                                                                                  #  PROGRAM NAMES:        (1) T6JOBCHK    MOD. NO. 5      OCTOBER 2, 1967
000026:                                                                                                  #                        (2) DOT6RUPT
000027:                                                                                                  #  MODIFICATION BY:      LOWELL G HULL (A.C.ELECTRONICS)
000028:
000029:                                                                                                  #  THESE PROGRAMS ENABLE THE LM DAP TO CONTROL THE THRUST TIMES OF THE REACTION CONTROL SYSTEM JETS BY USING TIME6.
000030:                                                                                                  #  SINCE THE LM DAP MAINTAINS EXCLUSIVE CONTROL OVER TIME6 AND ITS INTERRUPTS, THE FOLLOWING CONVENTIONS HAVE BEEN
000031:                                                                                                  #  ESTABLISHED AND MUST NOT BE TAMPERED WITH:
000032:                                                                                                  #        1.      NO NUMBER IS EVER PLACED INTO TIME6 EXCEPT BY LM DAP.
000033:                                                                                                  #        2.      NO PROGRAM OTHER THAN LM DAP ENABLES THE TIME6 COUNTER.
000034:                                                                                                  #        3.      TO USE TIME6, THE FOLLOWING SEQUENCE IS ALWAYS EMPLOYED:
000035:                                                                                                  #                A.      A POSITIVE (NON-ZERO) NUMBER IS STORED IN TIME6.
000036:                                                                                                  #                B.      THE TIME6 CLOCK IS ENABLED.
000037:                                                                                                  #                C.      TIME6 IS INTERROGATED AND IS:
000038:                                                                                                  #                        I.      NEVER FOUND NEGATIVE (NON-ZERO) OR +0.
000039:                                                                                                  #                        II.     SOMETIMES FOUND POSITIVE (BETWEEN 1 AND 240D) INDICATING THAT IT IS ACTIVE.
000040:                                                                                                  #                        III.    SOMETIMES FOUND POSMAX INDICATING THAT IT IS INACTIVE AND NOT ENABLED.
000041:                                                                                                  #                        IV.     SOMETIMES FOUND NEGATIVE ZERO INDICATING THAT:
000042:                                                                                                  #                                A.      A T6RUPT IS ABOUT TO OCCUR AT THE NEXT DINC, OR
000043:                                                                                                  #                                B.      A T6RUPT IS WAITING IN THE PRIORITY CHAIN, OR
000044:                                                                                                  #                                C.      A T6RUPT IS IN PROCESS NOW.
000045:                                                                                                  #        4.      ALL PROGRAMS WHICH OPERATE IN EITHER INTERRUPT MODE OR WITH INTERRUPT INHIBITED MUST CALL T6JOBCHK
000046:                                                                                                  #                EVERY 5 MILLISECONDS TO PROCESS A POSSIBLE WAITING T6RUPT BEFORE IT CAN BE HONORED BY THE HARDWARE.
000047:                                                                                                  #       (5.      PROGRAM JTLST, IN Q,R-AXES, HANDLES THE INPUT LIST.)
000048:
000049:                                                                                                  #  T6JOBCHK CALLING SEQUENCE:
000050:                                                                                                  #                L       TC      T6JOBCHK
000051:                                                                                                  #                L+1     (RETURN)
000052:
000053:                                                                                                  #  DOT6RUPT CALLING SEQUENCE:
000054:                                                                                                  #                        DXCH    ARUPT           T6RUPT LEAD IN AT LOCATION 4004.
000055:                                                                                                  #                        EXTEND
000056:                                                                                                  #                        DCA     T6ADR
000057:                                                                                                  #                        DTCB
000058:
000059:                                                                                                  #  SUBROUTINES CALLED:   DOT6RUPT CALLS T6JOBCHK.
000060:
000061:                                                                                                  #  NORMAL EXIT MODES:    T6JOBCHK RETURNS TO L +1.
000062:                                                                                                  #                        DOT6RUPT TRANSFERS CONTROL TO RESUME.
000063:
000064:                                                                                                  #  ALARM/ABORT MODES:    NONE.
000065:
000066:                                                                                                  #  INPUT:        TIME6           NXT6ADR         OUTPUT:         TIME6           NXT6ADR         CHANNEL 5
000067:                                                                                                  #                T6NEXT          T6NEXT +1                       T6NEXT          T6NEXT +1       CHANNEL 6
000068:                                                                                                  #                T6FURTHA        T6FURTHA +1                     T6FURTHA        T6FURTHA +1     BIT15/CH13
000069:
000070:                                                                                                  #  DEBRIS:       T6JOBCHK CLOBBERS A.  DOT6RUPT CLOBBERS NOTHING.
000071:
000072:    5744                                           BLOCK    02


000074: 17,2000                                           BANK     17
000075: 17,2000                                           SETLOC   DAPS2
000076: 17,2000                                           BANK
000077: 17,2000  E6,1464                                  EBANK=   T6NEXT
000078: 17,2000                                           COUNT*   $$/DAPT6
000079:
000080: 17,2000           10031        T6JOBCHK           CCS      TIME6                                 #  CHECK TIME6 FOR WAITING T6RUPT:
000081: 17,2001           00002                           TC       Q                                     #  NONE: CLOCK COUTING DOWN.
000082: 17,2002           05677                           TC       CCSHOLE
000083: 17,2003           02003                           TC       T6JOBCHK   +3
000084:
000085:                                                                                                  #  CONTROL PASSES TO T6JOB ONLY WHEN C(TIME6) = -0 (I.E. WHEN A T6RUPT MUST BE PROCESSED).
000086:
000087: 17,2004           34733        T6JOB              CAF      POSMAX                                #  DISABLE CLOCK: NEEDED SINCE RUPT OCCURS
000088: 17,2005           00006                           EXTEND                                         #  1 DINC AFTER T6 = 77777. FOR 625 MUSECS
000089: 17,2006           03013                           WAND     CHAN13                                #  MUST NOT HAVE T6 = +0 WITH ENABLE SET
000090:
000091: 17,2007           34733                           CA       POSMAX
000092: 17,2010           22007                           ZL
000093: 17,2011           53467                           DXCH     T6FURTHA
000094: 17,2012           53465                           DXCH     T6NEXT
000095: 17,2013           23463                           LXCH     NXT6ADR
000096: 17,2014           54031                           TS       TIME6
000097:
000098: 17,2015           67724                           AD       PRIO37
000099: 17,2016           54000                           TS       A
000100: 17,2017           12023                           TCF      ENABLET6
000101: 17,2020           34733                           CA       POSMAX
000102: 17,2021           54031                           TS       TIME6
000103: 17,2022           12034                           TCF      GOCH56
000104: 17,2023           34735        ENABLET6           CA       BIT15
000105: 17,2024           00006                           EXTEND
000106: 17,2025           05013                           WOR      CHAN13
000107: 17,2026           31464                           CA       T6NEXT
000108: 17,2027           67724                           AD       PRIO37
000109: 17,2030           54000                           TS       A
000110: 17,2031           12034                           TCF      GOCH56
000111: 17,2032           34733                           CA       POSMAX
000112: 17,2033           55464                           TS       T6NEXT
000113: 17,2034           50001        GOCH56             INDEX    L
000114: 17,2035           15744                           TCF      WRITEP     -1
000115:
000116:    5744                                           BLOCK    02
000117:    4000                                           SETLOC   FFTAG9
000118:    4000                                           BANK
000119:    5744  E6,1633                                  EBANK=   CDUXD
000120:    5744                                           COUNT*   $$/DAPT6
000121:
000122:    5744           31470                           CA       NEXTP
000123:    5745           00006        WRITEP             EXTEND
000124:    5746           01006                           WRITE    CHAN6


000126:    5747           00002                           TC       Q
000127:
000128:    5750           31471                           CA       NEXTU
000129:    5751           54001        WRITEU             TS       L
000130:    5752           45765                           CS       00314OCT
000131:    5753           00006                           EXTEND
000132:    5754           02005                           RAND     CHAN5
000133:    5755           60001                           AD       L
000134:    5756           00006                           EXTEND
000135:    5757           01005                           WRITE    CHAN5
000136:    5760           00002                           TC       Q
000137:
000138:    5761           31472                           CA       NEXTV
000139:    5762           54001        WRITEV             TS       L
000140:    5763           35765                           CA       00314OCT
000141:    5764           15753                           TCF      -9D
000142:    5765           00314        00314OCT           OCT      00314
000143:
000144: 17,2036                                           BANK     17
000145: 17,2000                                           SETLOC   DAPS2
000146: 17,2000                                           BANK
000147:
000148: 17,2036  E6,1464                                  EBANK=   T6NEXT
000149: 17,2036                                           COUNT*   $$/DAPT6
000150:
000151: 17,2036           22016        DOT6RUPT           LXCH     BANKRUPT                              #  (INTERRUPT LEAD INS CONTINUED)
000152: 17,2037           00006                           EXTEND
000153: 17,2040           22012                           QXCH     QRUPT
000154:
000155: 17,2041           02000                           TC       T6JOBCHK                              #  CALL T6JOBCHK.
000156:
000157: 17,2042           15270                           TCF      RESUME                                #  END TIME6 INTERRUPT PROCESSOR.
000158:

End of include-file T6-RUPT_PROGRAMS.agc.  Parent file is MAIN.agc


