
Source Code


000002:                                                                                                  ## Copyright:   Public domain.
000003:                                                                                                  ## Filename:    THE_LUNAR_LANDING.agc
000004:                                                                                                  ## Purpose:     The main source file for Luminary revision 069.
000005:                                                                                                  ##              It is part of the source code for the original release
000006:                                                                                                  ##              of the flight software for the Lunar Module's (LM) Apollo
000007:                                                                                                  ##              Guidance Computer (AGC) for Apollo 10. The actual flown
000008:                                                                                                  ##              version was Luminary 69 revision 2, which included a
000009:                                                                                                  ##              newer lunar gravity model and only affected module 2.
000010:                                                                                                  ##              This file is intended to be a faithful transcription, except
000011:                                                                                                  ##              that the code format has been changed to conform to the
000012:                                                                                                  ##              requirements of the yaYUL assembler rather than the
000013:                                                                                                  ##              original YUL assembler.
000014:                                                                                                  ## Reference:   pp. 789-796
000015:                                                                                                  ## Assembler:   yaYUL
000016:                                                                                                  ## Contact:     Ron Burkey <info@sandroid.org>.
000017:                                                                                                  ## Website:     www.ibiblio.org/apollo/index.html
000018:                                                                                                  ## Mod history: 2016-12-13 MAS  Created from Luminary 99.
000019:                                                                                                  ##              2016-12-18 MAS  Updated from comment-proofed Luminary 99 version.
000020:                                                                                                  ##              2017-01-09 RRB  Updated for Luminary 69.
000021:                                                                                                  ##              2017-01-23 HG   Fix interpretive sequence               SET VLOAD      -> SET CLEAR
000022:                                                                                                  ##                                                                          APSFLAG           APSFLAG
000023:                                                                                                  ##                                                                          RN                SWANDISP
000024:                                                                                                  ##                              Add missing interpretive sequence       SET VLOAD
000025:                                                                                                  ##                                                                          LRBYPASS
000026:                                                                                                  ##                                                                          RN
000027:                                                                                                  ##                              Fix operator TS -> DXCH
000028:                                                                                                  ##                              Fix value for GUIDDURN  +66440 -> +65164
000029:                                                                                                  ##              2017-01-28 RSB  Proofed comment text using octopus/prooferComments
000030:                                                                                                  ##                              and fixed errors found.
000031:                                                                                                  ##              2017-03-16 RSB  Comment-text fixes identified in 5-way
000032:                                                                                                  ##                              side-by-side diff of Luminary 69/99/116/131/210.
000033:


000035: 32,2772                                           BANK     32
000036: 32,2000                                           SETLOC   F2DPS*32
000037: 32,2000                                           BANK
000038:
000039: 32,2772  E7,1617                                  EBANK=   E2DPS
000040:
000041:                                                                                                  #        ****************************************
000042:                                                                                                  #        P63: THE LUNAR LANDING, BRAKING PHASE
000043:                                                                                                  #        ****************************************
000044:
000045: 32,2772                                           COUNT*   $$/P63
000046:
000047: 32,2772           05353        P63LM              TC       PHASCHNG
000048: 32,2773           04024                           OCT      04024
000049:
000050: 32,2774           04616                           TC       BANKCALL                              #  DO IMU STATUS CHECK ROUTINE R02
000051: 32,2775           11175                           CADR     R02BOTH
000052:
000053: 32,2776           33246                           CAF      P63ADRES                              #  INITIALIZE WHICH FOR BURNBABY
000054: 32,2777           55453                           TS       WHICH
000055:
000056: 32,3000           32010                           CAF      DPSTHRSH                              #  INITIALIZE DVMON
000057: 32,3001           55251                           TS       DVTHRUSH
000058: 32,3002           34751                           CAF      FOUR
000059: 32,3003           55513                           TS       DVCNTR
000060:
000061: 32,3004           44753                           CS       ONE                                   #  INITIALIZE WCHPHASE AND FLPASSO
000062: 32,3005           22007                           ZL                                             #    FOR IGNITION ALGORITHM
000063: 32,3006           53621                           DXCH     WCHPHASE
000064:
000065:
000066: 32,3007           44736                           CS       BIT14
000067: 32,3010           00006                           EXTEND
000068: 32,3011           03012                           WAND     CHAN12                                #  REMOVE TRACK-ENABLE DISCRETE.
000069:
000070: 32,3012           06036        FLAGORGY           TC       INTPRET                               #  DIONYSIAN FLAG WAVING
000071: 32,3013           43014                           CLEAR    CLEAR
000072: 32,3014           02663                                    NOTHROTL
000073: 32,3015           03271                                    REDFLAG
000074: 32,3016           43014                           CLEAR    SET
000075: 32,3017           05660                                    LRBYPASS
000076: 32,3020           03067                                    MUNFLAG
000077: 32,3021           43014                           CLEAR    CLEAR
000078: 32,3022           00266                                    P25FLAG                               #  TERMINATE P25 IF IT IS RUNNING.
000079: 32,3023           00270                                    RNDVZFLG                              #  TERMINATE P20 IF IT IS RUNNING
000080:
000081:                                                                                                  #  ****************************************
000082:
000083: 32,3024           77201        IGNALG             SETPD    VLOAD                                 #  FIRST SET UP INPUTS FOR RP-TO-R:-
000084: 32,3025           00001                                    0                                     #        AT 0D LANDING SITE IN MOON FIXED FRAME
000085: 32,3026           02023                                    RLS                                   #        AT 6D ESTIMATED TIME OF LANDING


000087: 32,3027           41525                           PDDL     PUSH                                  #        MPAC NON-ZERO TO INDICATE LUNAR CASE
000088: 32,3030           02401                                    TLAND
000089: 32,3031           37623                           STCALL   TPIP                                  #  ALSO SET TPIP FOR FIRST GUIDANCE PASS
000090: 32,3032           51504                                    RP-TO-R
000091: 32,3033           64312                           VSL4     MXV
000092: 32,3034           01734                                    REFSMMAT
000093: 32,3035           37633                           STCALL   LAND
000094: 32,3036           60264                                    GUIDINIT                              #  GUIDINIT INITIALIZES WM AND /LAND/
000095: 32,3037           45345                           DLOAD    DSU
000096: 32,3040           02401                                    TLAND
000097: 32,3041           25254                                    GUIDDURN
000098: 32,3042           34041                           STCALL   TDEC1                                 #  INTEGRATE STATE FORWARD TO THAT TIME
000099: 32,3043           27057                                    LEMPREC
000100: 32,3044           77331                           SSP      VLOAD
000101: 32,3045           03645                                    NIGNLOOP
000102: 32,3046           00050                                    40D
000103: 32,3047           06422                                    UNITX
000104: 32,3050           26510                           STOVL    CG
000105: 32,3051           06420                                    UNITY
000106: 32,3052           26516                           STOVL    CG         +6
000107: 32,3053           06416                                    UNITZ
000108: 32,3054           16524                           STODL    CG         +14
000109: 32,3055           25252                                    99999CON
000110: 32,3056           27663                           STOVL    DELTAH                                #  INITIALIZE DELTAH FOR V16N68 DISPLAY
000111: 32,3057           06424                                    ZEROVECS
000112: 32,3060           17252                           STODL    UNFC/2                                #  INITIALIZE TRIM VELOCITY CORRECTION TERM
000113: 32,3061           06424                                    HI6ZEROS
000114: 32,3062           03641                           STORE    TTF/8
000115:
000116: 32,3063           77745        IGNALOOP           DLOAD
000117: 32,3064           00015                                    TAT
000118: 32,3065           27557                           STOVL    PIPTIME1
000119: 32,3066           00017                                    RATT1
000120: 32,3067           64312                           VSL4     MXV
000121: 32,3070           01734                                    REFSMMAT
000122: 32,3071           37517                           STCALL   R
000123: 32,3072           67162                                    MUNGRAV
000124: 32,3073           35237                           STCALL   GDT/2
000125: 32,3074           62514                                    ?GUIDSUB                              #  WHICH DELIVERS N PASSES OF GUIDANCE
000126:
000127:                                                                                                  #  DDUMCALC IS PROGRAMMED AS FOLLOWS:-
000128:                                                                                                  #                                          2                                           -
000129:                                                                                                  #               (RIGNZ - RGU )/16 + 16(RGU  )KIGNY/B8 + (RGU - RIGNX)KIGNX/B4 + (ABVAL(VGU) - VIGN)KIGNV/B4
000130:                                                                                                  #                           2             1                 0
000131:                                                                                                  #        DDUM = -------------------------------------------------------------------------------------------
000132:                                                                                                  #                                                 10
000133:                                                                                                  #                                                2   (VGU - 16 VGU KIGNX/B4)
000134:                                                                                                  #                                                        2        0


000136:                                                                                                  #  THE NUMERATOR IS SCALED IN METERS AT 2(28).  THE DENOMINATOR IS A VELOCITY IN UNITS OF 2(10) M/CS.
000137:                                                                                                  #  THE QUOTIENT IS THUS A TIME IN UNITS OF 2(18) CENTISECONDS.  THE FINAL SHIFT RESCALES TO UNITS OF 2(28) CS.
000138:                                                                                                  #  THERE IS NO DAMPING FACTOR.  THE CONSTANTS KIGNX/B4, KIGNY/B8 AND KIGNV/B4 ARE ALL NEGATIVE IN SIGN.
000139:
000140: 32,3075           55644        DDUMCALC           TS       NIGNLOOP
000141: 32,3076           06036                           TC       INTPRET
000142: 32,3077           57345                           DLOAD    DMPR                                  #  FORM DENOMINATOR FIRST
000143: 32,3100           03625                                    VGU
000144: 32,3101           02471                                    KIGNX/B4
000145: 32,3102           44232                           SL4R     BDSU
000146: 32,3103           03631                                    VGU        +4
000147: 32,3104           45325                           PDDL     DSU
000148: 32,3105           02467                                    RIGNZ
000149: 32,3106           02550                                    RGU        +4
000150: 32,3107           65222                           SR4R     PDDL
000151: 32,3110           02546                                    RGU        +2
000152: 32,3111           57316                           DSQ      DMPR
000153: 32,3112           02473                                    KIGNY/B8
000154: 32,3113           65232                           SL4R     PDDL
000155: 32,3114           02544                                    RGU
000156: 32,3115           57225                           DSU      DMPR
000157: 32,3116           02465                                    RIGNX
000158: 32,3117           02471                                    KIGNX/B4
000159: 32,3120           51515                           PDVL     ABVAL
000160: 32,3121           03625                                    VGU
000161: 32,3122           57225                           DSU      DMPR
000162: 32,3123           02463                                    VIGN
000163: 32,3124           02475                                    KIGNV/B4
000164: 32,3125           43215                           DAD      DAD
000165: 32,3126           56215                           DAD      DDV
000166: 32,3127           77661                           SRR
000167: 32,3130           21613                                    10D
000168:
000169: 32,3131           43206                           PUSH     DAD
000170: 32,3132           03557                                    PIPTIME1
000171: 32,3133           14041                           STODL    TDEC1                                 #  STORE NEW GUESS FOR NEXT INTEGRATION
000172: 32,3134           45246                           ABS      DSU
000173: 32,3135           25256                                    DDUMCRIT
000174: 32,3136           45040                           BMN      CALL
000175: 32,3137           65156                                    DDUMGOOD
000176: 32,3140           27412                                    INTSTALL
000177: 32,3141           43014                           SET      SET
000178: 32,3142           01473                                    INTYPFLG
000179: 32,3143           00063                                    MOONFLAG
000180: 32,3144           77745                           DLOAD
000181: 32,3145           03557                                    PIPTIME1
000182: 32,3146           25517                           STOVL    TET                                   #  HOPEFULLY ?GUIDSUB DID NOT
000183: 32,3147           00017                                    RATT1                                 #        CLOBBER RATT1 AND VATT1
000184: 32,3150           25535                           STOVL    RCV
000185: 32,3151           00025                                    VATT1


000187: 32,3152           35543                           STCALL   VCV
000188: 32,3153           27107                                    INTEGRVS
000189: 32,3154           77650                           GOTO
000190: 32,3155           65063                                    IGNALOOP
000191:
000192: 32,3156           54335        DDUMGOOD           SLOAD    SR
000193: 32,3157           03425                                    ZOOMTIME
000194: 32,3160           20617                                    14D
000195: 32,3161           77621                           BDSU
000196: 32,3162           00041                                    TDEC1
000197: 32,3163           27440                           STOVL    TIG                                   #  COMPUTE DISTANCE LANDING SITE WILL BE
000198: 32,3164           03525                                    V                                     #        OUT OF LM'S ORBITAL PLANE AT IGNITION:
000199: 32,3165           53435                           VXV      UNIT                                  #        SIGN IS + IF LANDING SITE IS TO THE
000200: 32,3166           03517                                    R                                     #        RIGHT, NORTH; - IF TO THE LEFT, SOUTH.
000201: 32,3167           72441                           DOT      SL1
000202: 32,3170           03633                                    LAND
000203: 32,3171           26534        R60INIT            STOVL    OUTOFPLN                              #  INITIALIZATION FOR CALCMANU
000204: 32,3172           03252                                    UNFC/2
000205: 32,3173           02536                           STORE    R60VSAVE                              #  STORE UNFC/2 TEMPORARILY IN R60SAVE
000206: 32,3174           77776                           EXIT
000207:                                                                                                  #  ****************************************
000208:
000209: 32,3175           05353        IGNALGRT           TC       PHASCHNG                              #  PREVENT REPEATING IGNALG
000210: 32,3176           04024                           OCT      04024
000211:
000212: 32,3177           43247        ASTNCLOK           CS       ASTNDEX
000213: 32,3200           04616                           TC       BANKCALL
000214: 32,3201           74667                           CADR     STCLOK2
000215: 32,3202           15155                           TCF      ENDOFJOB                              #  RETURN IN NEW JOB AND IN EBANK FIVE
000216:
000217: 32,3203           06036        ASTNRET            TC       INTPRET
000218: 32,3204           47131                           SSP      RTB                                   #  GO PICK UP DISPLAY AT END OF R51:
000219: 32,3205           02747                                    QMAJ                                  #        "PROCEED" WILL DO A FINE ALIGNMENT
000220: 32,3206           65210                           FCADR    P63SPOT2                              #        "ENTER" WILL RETURN TO P63SPOT2
000221: 32,3207           30776                                    R51P63
000222: 32,3210           53575        P63SPOT2           VLOAD    UNIT                                  #  INITIALIZE KALCMANU FOR BURN ATTITUDE
000223: 32,3211           02536                                    R60VSAVE
000224: 32,3212           27767                           STOVL    POINTVSM
000225: 32,3213           06422                                    UNITX
000226: 32,3214           03761                           STORE    SCAXIS
000227: 32,3215           77776                           EXIT
000228:
000229: 32,3216           35016                           CAF      EBANK7
000230: 32,3217           54003                           TS       EBANK
000231:
000232: 32,3220           00004                           INHINT
000233: 32,3221           04674                           TC       IBNKCALL
000234: 32,3222           40142                           CADR     PFLITEDB
000235: 32,3223           00003                           RELINT
000236:


000238: 32,3224           04616                           TC       BANKCALL
000239: 32,3225           54101                           CADR     R60LEM
000240:
000241: 32,3226           05353                           TC       PHASCHNG                              #  PREVENT RECALLING R60
000242: 32,3227           04024                           OCT      04024
000243:
000244: 32,3230           34746        P63SPOT3           CA       BIT6                                  #  IS THE LR ANTENNA IN POSITION 1 YET
000245: 32,3231           00006                           EXTEND
000246: 32,3232           02033                           RAND     CHAN33
000247: 32,3233           00006                           EXTEND
000248: 32,3234           13242                           BZF      P63SPOT4                              #  BRANCH IF ANTENNA ALREADY IN POSITION 1
000249:
000250: 32,3235           33250                           CAF      CODE500                               #  ASTRONAUT:    PLEASE CRANK THE
000251: 32,3236           04616                           TC       BANKCALL                              #                SILLY THING AROUND
000252: 32,3237           20476                           CADR     GOPERF1
000253: 32,3240           16001                           TCF      GOTOPOOH                              #  TERMINATE
000254: 32,3241           13230                           TCF      P63SPOT3                              #  PROCEED       SEE IF HE'S LYING
000255:
000256: 32,3242           04616        P63SPOT4           TC       BANKCALL                              #  ENTER         INITIALIZE LANDING RADAR
000257: 32,3243           67704                           CADR     SETPOS1
000258:
000259: 32,3244           04635                           TC       POSTJUMP                              #  OFF TO SEE THE WIZARD ...
000260: 32,3245           74124                           CADR     BURNBABY
000261:
000262:                                                                                                  #        ----------------------------------------
000263:
000264:                                                                                                  #  CONSTANTS FOR P63LM AND IGNALG
000265:
000266: 32,3246           02074        P63ADRES           GENADR   P63TABLE
000267:
000268: 32,3247           00027        ASTNDEX            OCT      00027                                 #  INDEX FOR CLOKTASK
000269:
000270: 32,3250           00500        CODE500            OCT      00500
000271:
000272: 32,3251           00035 30373  99999CON           2DEC     30479.7    B-24
000273:
000274: 32,3253           00003 37214  GUIDDURN           2DEC     +65164     B-28
000275: 32,3255           00000 00010  DDUMCRIT           2DEC     +8         B-28                       #  CRITERION FOR IGNALG CONVERGENCE
000276:


000278:                                                                                                  #        ----------------------------------------
000279:


000281:                                                                                                  #        ****************************************
000282:                                                                                                  #        P68: LANDING CONFIRMATION
000283:                                                                                                  #        ****************************************
000284:
000285: 31,2172                                           BANK     31
000286: 31,2000                                           SETLOC   F2DPS*31
000287: 31,2000                                           BANK
000288:
000289: 31,2172                                           COUNT*   $$/P6567
000290:
000291: 31,2172           05353        LANDJUNK           TC       PHASCHNG
000292: 31,2173           04024                           OCT      04024
000293:
000294: 31,2174           00004                           INHINT
000295: 31,2175           04616                           TC       BANKCALL                              #  ZERO ATTITUDE ERROR
000296: 31,2176           40153                           CADR     ZATTEROR
000297:
000298: 31,2177           04616                           TC       BANKCALL                              #  SET 5 DEGREE DEADBAND
000299: 31,2200           40127                           CADR     SETMAXDB
000300:
000301: 31,2201           06036                           TC       INTPRET                               #  TO INTERPRETIVE AS TIME IS NOT CRITICAL
000302: 31,2202           43014                           SET      CLEAR
000303: 31,2203           04067                                    SURFFLAG
000304: 31,2204           04666                                    LETABORT
000305: 31,2205           43014                           SET      CLEAR
000306: 31,2206           05062                                    APSFLAG
000307: 31,2207           03664                                    SWANDISP
000308: 31,2210           77214                           SET      VLOAD
000309: 31,2211           05460                                    LRBYPASS
000310: 31,2212           01221                                    RN
000311: 31,2213           16032                           STODL    ALPHAV
000312: 31,2214           01235                                    PIPTIME
000313: 31,2215           45014                           SET      CALL
000314: 31,2216           01463                                    LUNAFLAG
000315: 31,2217           26351                                    LAT-LONG
000316: 31,2220           77201                           SETPD    VLOAD                                 #  COMPUTE RLS AND STORE IT AWAY
000317: 31,2221           00001                                    0
000318: 31,2222           01221                                    RN
000319: 31,2223           65352                           VSL2     PDDL
000320: 31,2224           01235                                    PIPTIME
000321: 31,2225           45006                           PUSH     CALL
000322: 31,2226           51531                                    R-TO-RP
000323: 31,2227           02023                           STORE    RLS
000324: 31,2230           77776                           EXIT
000325: 31,2231           32246                           CAF      V06N43*                               #  ASTRONAUT:  NOW LOOK WHERE YOU ENDED UP
000326: 31,2232           04616                           TC       BANKCALL
000327: 31,2233           20351                           CADR     GOFLASH
000328: 31,2234           16001                           TCF      GOTOPOOH                              #  TERMINATE
000329: 31,2235           12237                           TCF      +2                                    #  PROCEED
000330: 31,2236           12231                           TCF      -5                                    #  RECYCLE
000331:


000333: 31,2237           06036                           TC       INTPRET
000334: 31,2240           77775                           VLOAD                                          #  INITIALIZE GSAV AND (USING REFMF)
000335: 31,2241           06422                                    UNITX                                 #  YNBSAV, ZNBSAV AND ATTFLAG FOR P57
000336: 31,2242           36235                           STCALL   GSAV
000337: 31,2243           33470                                    REFMF
000338: 31,2244           77776                           EXIT
000339:
000340: 31,2245           16001                           TCF      GOTOPOOH                              #  ASTRONAUT:  PLEASE SELECT P57
000341:
000342: 31,2246           01453        V06N43*            VN       0643
000343:

End of include-file THE_LUNAR_LANDING.agc.  Parent file is MAIN.agc


