
Source Code


000002:                                                                                                  ## Copyright:   Public domain.
000003:                                                                                                  ## Filename:    THROTTLE_CONTROL_ROUTINES.agc
000004:                                                                                                  ## Purpose:     The main source file for Luminary revision 069.
000005:                                                                                                  ##              It is part of the source code for the original release
000006:                                                                                                  ##              of the flight software for the Lunar Module's (LM) Apollo
000007:                                                                                                  ##              Guidance Computer (AGC) for Apollo 10. The actual flown
000008:                                                                                                  ##              version was Luminary 69 revision 2, which included a
000009:                                                                                                  ##              newer lunar gravity model and only affected module 2.
000010:                                                                                                  ##              This file is intended to be a faithful transcription, except
000011:                                                                                                  ##              that the code format has been changed to conform to the
000012:                                                                                                  ##              requirements of the yaYUL assembler rather than the
000013:                                                                                                  ##              original YUL assembler.
000014:                                                                                                  ## Reference:   pp. 797-801
000015:                                                                                                  ## Assembler:   yaYUL
000016:                                                                                                  ## Contact:     Ron Burkey <info@sandroid.org>.
000017:                                                                                                  ## Website:     www.ibiblio.org/apollo/index.html
000018:                                                                                                  ## Mod history: 2016-12-13 MAS  Created from Luminary 99.
000019:                                                                                                  ##              2016-12-18 MAS  Updated from comment-proofed Luminary 99 version.
000020:                                                                                                  ##              2017-01-06 RRB  Updated for Luminary 69.
000021:                                                                                                  ##              2017-01-07 HG   Fix operand FLGWRD6 -> FLAGWRD6
000022:                                                                                                  ##              2017-01-23 HG   Add missing sequence of statements CA  H*GHCR*T
000023:                                                                                                  ##                                                                 TS  FCODD
000024:                                                                                                  ##                                                                 TCF DOPIF
000025:                                                                                                  ##                              Fix operator CS -> CA
000026:                                                                                                  ##              2017-01-28 RSB  Proofed comment text using octopus/prooferComments
000027:                                                                                                  ##                              and fixed errors found.
000028:


000030:
000031: 31,2247                                           BANK     31
000032: 31,2000                                           SETLOC   FTHROT
000033: 31,2000                                           BANK
000034: 31,2247  E7,1610                                  EBANK=   PIF
000035: 31,2247                                           COUNT*   $$/THROT
000036:
000037:                                                                                                  #  * * * * * * * * * * * * * * * * * * * * * * * * * * * * * * * * * * * * * * * * * * * * * * * * * * * * * * * *
000038:                                                                                                  #  HERE FC, DESIRED THRUST, AND FP, PRESENT THRUST, UNWEIGHTED, ARE COMPUTED.
000039:
000040: 31,2247           31246        THROTTLE           CA       ABDELV                                #  COMPUTE PRESENT ACCELERATION IN UNITS OF
000041: 31,2250           00006                           EXTEND                                         #  2(-4) M/CS/CS, SAVING SERVICER TROUBLE
000042: 31,2251           72444                           MP       /AF/CNST
000043: 31,2252           00006                 +3        EXTEND
000044: 31,2253           23605                           QXCH     RTNHOLD
000045: 31,2254           02425        AFDUMP             TC       MASSMULT
000046: 31,2255           53563                           DXCH     FP                                    #  FP = PRESENT THRUST
000047: 31,2256           00006                           EXTEND
000048: 31,2257           31574                           DCA      /AFC/
000049: 31,2260           02425                           TC       MASSMULT
000050: 31,2261           55613                           TS       FC                                    #  FC = THRUST DESIRED BY GUIDANCE
000051: 31,2262           53561                           DXCH     FCODD                                 #  FCODD = WHAT IT IS GOING TO GET
000052:
000053:                                                                                                  #  IF IT HAS BEEN LESS THAN 3 SECONDS SINCE THE LAST THROTTLING, AUGMENT FP USING THE FWEIGHT CALCULATED THEN.
000054:
000055: 31,2263           41615                           CS       TTHROT                                #  THIS CODING ASSUMES A FLATOUT WITHIN
000056: 31,2264           60025                           AD       TIME1                                 #    80 SECONDS BEFORE FIRST THROTTLE CALL
000057: 31,2265           74733                           MASK     POSMAX
000058: 31,2266           40000                           COM
000059: 31,2267           65002                           AD       3SECS
000060: 31,2270           00006                           EXTEND
000061: 31,2271           62275                           BZMF     WHERETO                               #  BRANCH IF (TIME1-TTHROT +1) > 3 SECONDS
000062: 31,2272           00006                           EXTEND
000063: 31,2273           31607                           DCA      FWEIGHT
000064: 31,2274           21563                           DAS      FP
000065:
000066:                                                                                                  #      THIS LOGIC DETERMINES THE THROTTLING IN THE REGION 10% - 94%.  THE MANUAL THROTTLE, NOMINALLY SET AT
000067:                                                                                                  #  MINIMUM BY ASTRONAUT OR MISSION CONTROL PROGRAMS, PROVIDES THE LOWER BOUND.  A STOP IN THE THROTTLE HARDWARE
000068:                                                                                                  #  PROVIDES THE UPPER.
000069:
000070: 31,2275           35014        WHERETO            CA       EBANK5                                #  INITIALIZE L*WCR*T AND H*GHCR*T FROM
000071: 31,2276           54003                           TS       EBANK                                 #    PAD LOADED ERASABLES IN W-MATRIX


000073: 31,2277  E5,1476                                  EBANK=   LOWCRIT
000074: 31,2277           00006                           EXTEND
000075: 31,2300           31477                           DCA      LOWCRIT
000076: 31,2301           52131                           DXCH     L*WCR*T
000077: 31,2302           35016                           CA       EBANK7
000078: 31,2303           54003                           TS       EBANK
000079: 31,2304  E7,1610                                  EBANK=   PIF
000080: 31,2304           44755                           CS       ZERO                                  #  INITIALIZE PIFPSET
000081: 31,2305           55604                           TS       PIFPSET
000082: 31,2306           40131                           CS       H*GHCR*T
000083: 31,2307           61616                           AD       FCOLD
000084: 31,2310           00006                           EXTEND
000085: 31,2311           62323                           BZMF     LOWFCOLD                              #  BRANCH IF FCOLD < OR = HIGHCRIT
000086: 31,2312           40130                           CS       L*WCR*T
000087: 31,2313           61560                           AD       FCODD
000088: 31,2314           00006                           EXTEND
000089: 31,2315           62320                           BZMF     FCOMPSET                              #  BRANCH IF FC < OR = LOWCRIT
000090: 31,2316           31562                           CA       FP                                    #  SEE NOTE 1
000091: 31,2317           12337                           TCF      FLATOUT1
000092:
000093: 31,2320           42002        FCOMPSET           CS       FMAXODD                               #  SEE NOTE 2
000094: 31,2321           61562                           AD       FP
000095: 31,2322           12341                           TCF      FLATOUT2
000096:
000097: 31,2323           40131        LOWFCOLD           CS       H*GHCR*T
000098: 31,2324           61560                           AD       FCODD
000099: 31,2325           00006                           EXTEND
000100: 31,2326           62342                           BZMF     DOPIF                                 #  BRANCH IF FC < OR = HIGHCRIT
000101:
000102: 31,2327           30102                           CA       FLAGWRD6                              #  IS POUTFLAG SET?
000103: 31,2330           74745                           MASK     POUTBIT
000104: 31,2331           00006                           EXTEND
000105: 31,2332           12336                           BZF      FLATOUT1   -1
000106:
000107: 31,2333           30131                           CA       H*GHCR*T                              #  YES:  THROTTLE-UP ONLY TO HIGHCRIT
000108: 31,2334           55560                           TS       FCODD
000109: 31,2335           12342                           TCF      DOPIF
000110:
000111: 31,2336           32003                           CA       FMAXPOS                               #  NO:  THROTTLE-UP
000112: 31,2337           53561        FLATOUT1           DXCH     FCODD
000113: 31,2340           34737                           CA       FEXTRA
000114: 31,2341           55604        FLATOUT2           TS       PIFPSET
000115:
000116:                                                                                                  #  NOTE 1        FC IS SET EQUAL TO FP SO PIF WILL BE ZERO.  THIS IS DESIRABLE
000117:                                                                                                  #                AS THERE IS ACTUALLY NO THROTTLE CHANGE.
000118:
000119:                                                                                                  #  NOTE2         HERE, SINCE WE ARE ABOUT TO RETURN TO THE THROTTLEABLE REGION
000120:                                                                                                  #                (BELOW 55%) THE QUANTITY -(FMAXODD-FP) IS COMPUTED AND PUT
000121:                                                                                                  #                INTO PIFPSET TO COMPENSATE FOR THE DIFFERENCE BETWEEN THE
000122:                                                                                                  #                NUMBER OF BITS CORRESPONDING TO FULL THROTTLE (FMAXODD) AND THE


000124:                                                                                                  #                NUMBER CORRESPONDING TO ACTUAL THRUST (FP).  THUS THE TOTAL
000125:                                                                                                  #                THROTTLE COMMAND PIF = FC - FP - (FMAXODD - FP) = FC - FMAXODD.
000126:
000127: 31,2342           03721        DOPIF              TC       FASTCHNG                              #  RESTART PROTECTION
000128: 31,2343           00006                           EXTEND
000129: 31,2344           31561                           DCA      FCODD
000130: 31,2345           55616                           TS       FCOLD
000131: 31,2346           53611                           DXCH     PIF
000132: 31,2347           00006                           EXTEND
000133: 31,2350           41563                           DCS      FP
000134: 31,2351           21611                           DAS      PIF                                   #  PIF = FC - FP, NEVER EQUALS +0
000135:
000136: 31,2352           31610        DOIT               CA       PIF
000137: 31,2353           61604                           AD       PIFPSET                               #  ADD IN PIFPSET, WITHOUT CHANGING PIF
000138: 31,2354           55612                           TS       PSEUDO55
000139: 31,2355           54055                           TS       THRUST
000140: 31,2356           34750                           CAF      BIT4
000141: 31,2357           00006                           EXTEND
000142: 31,2360           05014                           WOR      CHAN14
000143: 31,2361           30025                           CA       TIME1
000144: 31,2362           55615                           TS       TTHROT
000145:
000146:                                                                                                  #  SINCE /AF/ IS NOT AN INSTANTANEOUS ACCELERATION, BUT RATHER AN "AVERAGE" OF THE ACCELERATION LEVELS DURING
000147:                                                                                                  #  THE PRECEEDING PIPA INTERVAL, AND SINCE FP IS COMPUTED DIRECTLY FROM /AF/, FP IN ORDER TO CORRESPOND TO THE
000148:                                                                                                  #  ACTUAL THRUST LEVEL AT THE END OF THE INTERVAL MUST BE WEIGHTED BY
000149:
000150:                                                                                                  #                  PIF(PPROCESS + TL)     PIF /PIF/
000151:                                                                                                  #        FWEIGHT = ------------------ + -------------
000152:                                                                                                  #                       PGUID           2 PGUID FRATE
000153:
000154:                                                                                                  #  WHERE PPROCESS IS THE TIME BETWEEN PIPA READING AND THE START OF THROTTLING, PGUID IS THE GUIDANCE PERIOD, AND
000155:                                                                                                  #  FRATE IS THE THROTTLING RATE (32 UNITS PER CENTISECOND).  PGUID IS ASSUMED TO BE 2 SECONDS.  THE "TL" IN THE
000156:                                                                                                  #  FIRST TERM REPRESENTS THE ENGINE'S RESPONSE LAG.  HERE FWEIGHT IS COMPUTED FOR USE NEXT PASS.
000157:
000158: 31,2363           35003                           CA       4SECS
000159: 31,2364           54002                           TS       Q
000160: 31,2365           41235                           CS       PIPTIME    +1                         #  TIME OF LAST PIPA READING
000161: 31,2366           60025                           AD       TIME1
000162: 31,2367           62004                           AD       THROTLAG                              #  COMPENSATE FOR ENGINE RESPONSE LAG
000163: 31,2370           74357                           MASK     LOW8                                  #  MAKE SURE SMALL AND POSITIVE
000164: 31,2371           22007                           ZL
000165: 31,2372           00006                           EXTEND
000166: 31,2373           10002                           DV       Q
000167: 31,2374           00006                           EXTEND
000168: 31,2375           71610                           MP       PIF
000169: 31,2376           60000                           DOUBLE
000170: 31,2377           53607                           DXCH     FWEIGHT
000171: 31,2400           37715                           CA       2.PG.FRT
000172: 31,2401           54002                           TS       Q


000174: 31,2402           11610                           CCS      PIF
000175: 31,2403           64753                           AD       ONE
000176: 31,2404           12406                           TCF      +2
000177: 31,2405           64753                           AD       ONE
000178: 31,2406           00006                           EXTEND
000179: 31,2407           71610                           MP       PIF
000180: 31,2410           00006                           EXTEND
000181: 31,2411           10002                           DV       Q
000182: 31,2412           22007                           ZL
000183: 31,2413           21607                           DAS      FWEIGHT
000184:
000185: 31,2414           01605        THDUMP             TC       RTNHOLD
000186:
000187:                                                                                                  #  FLATOUT THROTTLES UP THE DESCENT ENGINE, AND IS CALLED AS A BASIC SUBROUTINE.
000188:
000189: 31,2415           34737        FLATOUT            CAF      BIT13                                 #  4096 PULSES
000190: 31,2416           55604        WHATOUT            TS       PIFPSET                               #  USE PIFPSET SO FWEIGHT WILL BE ZERO
000191: 31,2417           44755                           CS       ZERO
000192: 31,2420           55616                           TS       FCOLD
000193: 31,2421           55610                           TS       PIF
000194: 31,2422           00006                           EXTEND
000195: 31,2423           23605                           QXCH     RTNHOLD
000196: 31,2424           12352                           TCF      DOIT
000197:
000198:                                                                                                  #  MASSMULT SCALES ACCELERATION, ARRIVING IN A AND L IN UNITS OF 2(-4) M/CS/CS, TO FORCE IN PULSE UNITS.
000199:
000200: 31,2425           00006        MASSMULT           EXTEND
000201: 31,2426           22130                           QXCH     BUF
000202: 31,2427           00006                           EXTEND
000203: 31,2430           71244                           MP       MASS                                  #  LEAVES ODDLY SCALED FORCE IN A AND L
000204: 31,2431           52155                           DXCH     MPAC
000205: 31,2432           07102                           TC       DMP                                   #  LEAVES PROPERLY SCALED FORCE IM MPAC
000206: 31,2433           02005                           ADRES    SCALEFAC
000207: 31,2434           07256                           TC       TPAGREE
000208: 31,2435           30154                           CA       MPAC
000209: 31,2436           00006                           EXTEND
000210: 31,2437           12442                           BZF      +3
000211: 31,2440           34733                           CAF      POSMAX
000212: 31,2441           00130                           TC       BUF
000213: 31,2442           52156                           DXCH     MPAC       +1
000214: 31,2443           00130                           TC       BUF
000215:
000216:                                                                                                  #  CONSTANTS:-
000217:
000218: 31,2444     4737               FEXTRA             =        BIT13


000220: 31,2444     7715               2.PG.FRT           =        PRIO31                                #  DECIMAL 12800
000221: 31,2444           04143        /AF/CNST           DEC      .13107
000222:
000223:                                                                                                  #  * * * * * * * * * * * * * * * * * * * * * * * * * * * * * * * * * * * * * * * * * * * * * * * * * * * * * * * *

End of include-file THROTTLE_CONTROL_ROUTINES.agc.  Parent file is MAIN.agc


