
Source Code


000002:                                                                                                  ## Copyright:   Public domain.
000003:                                                                                                  ## Filename:    TIME_OF_FREE_FALL.agc
000004:                                                                                                  ## Purpose:     The main source file for Luminary revision 069.
000005:                                                                                                  ##              It is part of the source code for the original release
000006:                                                                                                  ##              of the flight software for the Lunar Module's (LM) Apollo
000007:                                                                                                  ##              Guidance Computer (AGC) for Apollo 10. The actual flown
000008:                                                                                                  ##              version was Luminary 69 revision 2, which included a
000009:                                                                                                  ##              newer lunar gravity model and only affected module 2.
000010:                                                                                                  ##              This file is intended to be a faithful transcription, except
000011:                                                                                                  ##              that the code format has been changed to conform to the
000012:                                                                                                  ##              requirements of the yaYUL assembler rather than the
000013:                                                                                                  ##              original YUL assembler.
000014:                                                                                                  ## Reference:   pp. 1262-1277
000015:                                                                                                  ## Assembler:   yaYUL
000016:                                                                                                  ## Contact:     Ron Burkey <info@sandroid.org>.
000017:                                                                                                  ## Website:     www.ibiblio.org/apollo/index.html
000018:                                                                                                  ## Mod history: 2016-12-13 MAS  Created from Luminary 99.
000019:                                                                                                  ##              2016-12-18 MAS  Updated from comment-proofed Luminary 99 version.
000020:                                                                                                  ##              2017-01-19 RRB  Updated for Luminary 69.
000021:                                                                                                  ##              2017-01-28 RSB  Proofed comment text using octopus/prooferComments
000022:                                                                                                  ##                              but no errors found.
000023:


000025:                                                                                                  #           THE TFF SUBROUTINES MAY BE USED IN EITHER EARTH OR MOON CENTERED COORDINATES. THE TFF ROUTINES NEVER
000026:                                                                                                  #  KNOW WHICH ORIGIN APPLIES. IT IS THE USER WHO KNOWS, AND WHO SUPPLIES  RONE, VONE AND 1/SQRT(MU) AT THE
000027:                                                                                                  #  APPROPRIATE SCALE LEVEL FOR THE PROPER PRIMARY BODY.
000028:
000029:                                                                                                  #           EARTH ORIGIN           POSITION      -29      METERS
000030:                                                                                                  #                                  VELOCITY      -7       METERS/CENTISECOND
000031:                                                                                                  #                                  1/SQRT(MU)    +17      SQRT(CS SQ/METERS CUBED)
000032:
000033:                                                                                                  #           MOON ORIGIN            POSITION      -27      METERS
000034:                                                                                                  #                                  VELOCITY      -5       METERS/CENTISECONDS
000035:                                                                                                  #                                  1/SQRT(MU)    +14      SQRT(CS SQ/METERS CUBED)
000036:
000037:                                                                                                  #  ALL DATA PROVIDED TO AND RECEIVED FROM ANY TFF SUBROUTINE WILL BE AT ONE OF THE LEVELS ABOVE. IN ALL CASES,
000038:                                                                                                  #  THE FREE FALL TIME IS RETURNED IN CENTISECONDS AT (-28). PROGRAM  TFF/CONIC WILL GENERATE VONE/RTMU  AND
000039:                                                                                                  #  LEAVE IT IN VONE' AT (+10) IF EARTH ORIGIN AND (+9) IF MOON ORIGIN.
000040:                                                                                                  #           THE USER MUST STORE THE STATE VECTOR IN RONE, VONE  AND MU  IN THE FORM 1/SQRT(MU) IN  TFF/RTMU
000041:                                                                                                  #  AT THE PROPER SCALE BEFORE CALLING  TFF/CONIC. SINCE RONE, VONE  ARE IN THE EXTENDED VERB STORAGE AREA,
000042:                                                                                                  #  THE USER MUST ALSO LOCK OUT THE EXTENDED VERBS, AND RELEASE THEM WHEN FINISHED.
000043:                                                                                                  #           PROGRAMS     CALC/TFF  AND  CALC/TPER  ASSUME THAT THE TERMINAL RADIUS IS LESS THAN THE PRESENT
000044:                                                                                                  #  RADIUS. THIS RESTRICTION CAN BE REMOVED BY A 15 W CODING CHANGE, BUT AT PRESENT IT IS NOT DEEMED NECESSARY.
000045:
000046:                                                                                                  #           THE FOLLOWING ERASABLE QUANTITIES ARE USED BY THE TFF ROUTINES, AND ARE LOCATED IN THE PUSH LIST.
000047:
000048:                                                                                                  #                                                               BELOW     E:  IS USED FOR EARTH ORIGIN SCALE
000049:                                                                                                  #                                                                         M:  IS USED FOR MOON  ORIGIN SCALE
000050:
000051:                                                                                                  # TFFSW          =       119D    BIT1    0 = CALCTFF         1 = CALCTPER
000052: 23,3723                        TFFDELQ            =        10D                                   #        Q2-Q1               E: (-16)  M: (-15)
000053: 23,3723                        RMAG1              =        12D                                   #        ABVAL(RN)  M        E: (-29)  M: (-27)
000054:                                                                                                  # RPER           =       14D             PERIGEE RADIUS M    E: (-29)  M: (-27)
000055: 23,3723                        TFFQ1              =        14D                                   #        R.V / SQRT(MUE)     E: (-16)  M: (-15)
000056:                                                                                                  # SDELF/2                                SIN(THETA) /2
000057: 23,3723                        CDELF/2            =        14D                                   #        COS(THETA) /2
000058:                                                                                                  # RAPO           =       16D             APOGEE RADIUS  M    E: (-29)  M: (-27)
000059: 23,3723                        NRTERM             =        16D                                   #        TERMINAL RADIUS  M  E: (-29+NR)
000060:                                                                                                  #                            M: (-27+NR)
000061: 23,3723                        RTERM              =        18D                                   #        TERMINAL RADIUS  M  E: (-29)  M: (-27)
000062: 23,3723                        TFFVSQ             =        20D                                   #        -(V SQUARED/MU)   1/M  E: (20)   M: (18)
000063: 23,3723                        TFF1/ALF           =        22D                                   #        SEMI MAJ AXIS  M  E: (-22-2 NA)
000064:                                                                                                  #                          M: (-20-2 NA)
000065: 23,3723                        TFFRTALF           =        24D                                   #        SQRT(ALFA)  E:(10+NA)  M: (9+NA)
000066: 23,3723                        TFFALFA            =        26D                                   #        ALFA  1/M   E:(26-NR)  M: (24-NR)
000067: 23,3723                        TFFNP              =        28D                                   #        SEMI LATUS RECTUM M  E: (-38+2 NR)
000068:                                                                                                  #                             M: (-36+2 NR)
000069: 23,3723                        TFF/RTMU           =        30D                                   #        1/SQRT(MU)        E: (17)   M: (14)
000070: 23,3723                        NRMAG              =        32D                                   #        PRESENT RADIUS  M E: (-29+NR)
000071:                                                                                                  #                          M: (-27+NR)
000072: 23,3723                        TFFX               =        34D
000073: 23,3723                        TFFTEM             =        36D                                   #        TEMPORARY


000075:                                                                                                  #                REGISTERS S1, S2 ARE UNTOUCHED BY ANY TFF SUBROUTINE
000076:                                                                                                  #                INDEX REGISTERS X1, X2 ARE USED BY ALL TFF SUBROUTINES. THEY ARE ESTAB-
000077:                                                                                                  #                LISHED IN TFF/CONIC AND MUST BE PRESERVED BETWEEN CALLS TO SUBSEQUENT
000078:                                                                                                  #                SUBROUTINES.
000079:                                                                                                  #                -NR                             C(X1) = NORM COUNT OF RMAG
000080:                                                                                                  #                -NA                             C(X2) = NORM COUNT OF SQRT(ABS(ALFA))
000081:


000083:                                                                                                  #  SUBROUTINE NAME:  TFFCONIC                                            DATE:  01.29.67
000084:                                                                                                  #  MOD NO:  0                                                            LOG SECTION:  TIME OF FREE FALL
000085:                                                                                                  #  MOD BY:  RR BAIRNSFATHER
000086:                                                                                                  #  MOD NO:  1    MOD BY:  RR BAIRNSFATHER        DATE: 11 APR 67
000087:                                                                                                  #  MOD NO:  2    MOD BY:  RR BAIRNSFATHER        DATE: 21 NOV 67         ADD MOON MU.
000088:                                                                                                  #  MOD NO:  3    MOD BY:  RR BAIRNSFATHER        DATE: 21 MAR 68         ACCEPT DIFFERENT EARTH/MOON SCALES
000089:
000090:                                                                                                  #  FUNCTIONAL DESCRIPTION:  THIS SUBROUTINE IS CALLED TO COMPUTE THOSE CONIC PARAMETERS REQUIRED BY THE TFF
000091:                                                                                                  #        SUBROUTINES AND TO ESTABLISH THEM IN THE PUSH LIST AREA.  THE PARAMETERS ARE LISTED UNDER OUTPUT.
000092:                                                                                                  #        THE EQUATIONS ARE
000093:                                                                                                  #                _   __ __
000094:                                                                                                  #                H = RN*VN                       ANGULAR MOMENTUM
000095:                                                                                                  #                      _ _
000096:                                                                                                  #                LCP = H.H / MU                  SEMI LATUS RECTUM
000097:                                                                                                  #                              __ __
000098:                                                                                                  #                ALFA = 2/RN - VN.VN / MU        RECIPROCAL SEMI MAJ AXIS, SIGNED
000099:
000100:                                                                                                  #        AND ALFA IS POS FOR ELLIPTIC ORBITS
000101:                                                                                                  #                      0 FOR PARABOLIC ORBITS
000102:                                                                                                  #                    NEG FOR HYPERBOLIC ORBITS.
000103:                                                                                                  #        SUBROUTINE ALSO COMPUTES AND SAVES RMAG.
000104:
000105:                                                                                                  #  CALLING SEQUENCE:
000106:                                                                                                  #        TFFCONIC EXPECTS CALLER TO ENTER WITH CORRECT GRAVITATIONAL CONSTANT IN MPAC, IN THE FORM
000107:                                                                                                  #        1/SQRT(MU).  PROGRAM WILL SAVE IN TFF/RTMU.  THE SCALE IS DETERMINED BY WHETHER EARTH OR MOON
000108:                                                                                                  #        ORIGIN IS USED.  THE CALLER MUST LOCK OUT THE EXTENDED VERBS BEFORE PROVIDING STATE VECTOR IN RONE,
000109:                                                                                                  #        VONE AT PROPER SCALE.  THE EXTENDED VERBS MUST BE RESTORED WHEN THE CALLER IS FINISHED USING THE
000110:                                                                                                  #        TFF ROUTINES.
000111:
000112:                                                                                                  #        ENTRY POINT TFFCONMU EXPECTS THAT TFF/RTMU IS ALREADY LOADED.
000113:
000114:                                                                                                  #        TO SPECIFY MU:  DLOAD   CALL                            IF MU ALREADY STORED:   CALL
000115:                                                                                                  #                                YOURMU  1/RTMU E:(17) M:(14)                                    TFFCONMU
000116:                                                                                                  #                                TFFCONIC
000117:                                                                                                  #        PUSHLOC = PDL+0, ARBITRARY IF LEQ 18D
000118:
000119:                                                                                                  #  SUBROUTINES CALLED:  NONE
000120:
000121:                                                                                                  #  NORMAL EXIT MODES:  RVQ
000122:
000123:                                                                                                  #  ALARMS:  NONE
000124:
000125:                                                                                                  #  OUTPUT:       THE FOLLOWING ARE STORED IN THE PUSH LIST AREA.
000126:                                                                                                  #                RMAG1           E:(-29) M:(-27) M  RN, PRESENT RADIUS LENGTH.
000127:                                                                                                  #                NRMAG           E:(-29+NR)      M  RMAG, NORMALIZED
000128:                                                                                                  #                                M:(-27+NR)
000129:                                                                                                  #                X1                              -NR, NORM COUNT
000130:                                                                                                  #                TFFNP           E:(-38+2NR)     M  LCP, SEMI LATUS RECTUM, WEIGHTED BY NR.      FOR VGAMCALC
000131:                                                                                                  #                                M:(-36+2NR)
000132:                                                                                                  #                TFF/RTMU        E:(17) M:(14)   1/SQRT(MU)
000133:                                                                                                  #                TFFVSQ          E:(20) M:(18)   1/M  -(V SQ/MU):  PRESENT VELOCITY,NORMLIZED.   FOR VGAMCALC
000134:                                                                                                  #                TFFALFA         E:(26-NR)       1/M  ALFA, WEIGHTED BY NR
000135:                                                                                                  #                                M:(24-NR)
000136:                                                                                                  #                TFFRTALF        E:(10+NA)       SQRT(ALFA), NORMALIZED
000137:                                                                                                  #                                M:(9+NA)


000139:                                                                                                  #                X2                              -NA, NORMCOUNT
000140:                                                                                                  #                TFF1/ALF        E:(-22-2NA)     SIGNED SEMI MAJ AXIS, WEIGHTED BY NA
000141:                                                                                                  #                                M:(-20-2NA)
000142:                                                                                                  #                PUSHLOC AT PDL+0
000143:
000144:                                                                                                  #        THE FOLLOWING IS STORED IN GENERAL ERASABLE
000145:                                                                                                  #                VONE'           E:(10) M:(9)    V/RT(MU), NORMALIZED VELOCITY
000146:
000147:                                                                                                  #  ERASABLE INITIALIZATION REQUIRED:
000148:                                                                                                  #                RONE            E:(-29) M:(-27) M  STATE VECTOR         LEFT BY CALLER
000149:                                                                                                  #                VONE            E:(-7) M:(-5)   M/CS  STATE VECTOR      LEFT BY CALLER
000150:                                                                                                  #                TFF/RTMU        E:(17) M:(14)   1/RT(CS SQ/M CUBE)      IF ENTER VIA TFFCONMU.
000151:
000152:                                                                                                  #  DEBRIS:       QPRET.          PDL+0 ... PDL+3
000153:
000154: 33,3755                                           BANK     33
000155: 27,2000                                           SETLOC   TOF-FF
000156: 27,2000                                           BANK
000157:
000158: 27,3332                                           COUNT*   $$/TFF
000159:
000160: 27,3332           00037        TFFCONIC           STORE    TFF/RTMU                              #  1/SQRT(MU)    E:(17) M:(14)
000161:
000162: 27,3333           53575        TFFCONMU           VLOAD    UNIT                                  #  COME HERE WITH TFFRTMU LOADED.
000163: 27,3334           02213                                    RONE                                  #  SAVED RN.  M  E:(-29) M:(-27)
000164: 27,3335           77725                           PDDL                                           #  UR/2 TO PDL+0, +5
000165: 27,3336           00045                                    36D                                   #  MAGNITUDE
000166: 27,3337           00015                           STORE    RMAG1                                 #  M  E:(-29) M:(-27)
000167:
000168: 27,3340           77701                           NORM
000169: 27,3341           00047                                    X1                                    #  -NR
000170: 27,3342           24041                           STOVL    NRMAG                                 #  RMAG  M  E:(-29+NR) M:(-27+NR)
000171: 27,3343           02221                                    VONE                                  #  SAVED VN.  M/CS  E:(-7) M:(-5)
000172: 27,3344           77761                           VXSC
000173: 27,3345           00037                                    TFF/RTMU                              #  E:(17) M:(14)
000174: 27,3346           02170                           STORE    VONE'                                 #  VN/SQRT(MU)  E:(10) M:(9)
000175:
000176: 27,3347           47361                           VXSC     VXV
000177: 27,3350           00041                                    NRMAG                                 #  E:(-29+NR) M:(-27+NR)
000178:                                                                                                  #  UR/2 FROM PDL
000179: 27,3351           47572                           VSL1     VSQ                                   #  BEFORE:  E:(-19+NR) M:(-18+NR)
000180: 27,3352           14035                           STODL    TFFNP                                 #  LC P  M  E:(-38+2NR) M:(-36+2NR)
000181:                                                                                                  #  SAVE ALSO FOR VGAMCALC
000182: 27,3353           06414                                    TFF1/4
000183: 27,3354           63271                           DDV      PDVL                                  #  (2/RMAG)  1/M  E:(26-NR) M:(24-NR)
000184: 27,3355           00041                                    NRMAG                                 #  RMAG  M  E:(-29+NR) M:(-27+NR)
000185: 27,3356           02170                                    VONE'                                 #  SAVED VN.  E:(10) M:(9)
000186: 27,3357           57436                           VSQ      DCOMP                                 #  KEEP MPAC+2 HONEST FOR SQRT.
000187: 27,3360           00025                           STORE    TFFVSQ                                #  -(V SQ/MU)  E:(20) M:(18)
000188:                                                                                                  #  SAVE FOR VGAMCALC
000189: 27,3361           43257                           SR*      DAD


000191: 27,3362           20573                                    0          -6,1                       #  GET -VSQ/MU  E:(26-NR) M:(24-NR)
000192: 27,3363           77626                           STADR
000193:                                                                                                  #  2/RMAG  FROM PDL+2
000194: 27,3364           77744                           STORE    TFFALFA                               #  ALFA  1/M  E:(26-NR) M:(24-NR)
000195: 27,3365           41457                           SL*      PUSH                                  #  TEMP SAVE ALFA  E:(20) M:(18)
000196: 27,3366           20173                                    0          -6,1
000197: 27,3367           75446                           ABS      SQRT                                  #  E:(10) M:(9)
000198: 27,3370           77701                           NORM
000199: 27,3371           00050                                    X2                                    #  X2 = -NA
000200: 27,3372           00031                           STORE    TFFRTALF                              #  SQRT( ABS(ALFA) )  E:(10+NA) M:(9+NA)
000201: 27,3373           75316                           DSQ      SIGN                                  #  NOT SO ACCURATE, BUT OK
000202:                                                                                                  #  ALFA FROM PDL+2  E:(20) M:(18)
000203: 27,3374           55254                           BZE      BDDV                                  #  SET 1/ALFA =0, TO SHOW SMALL ALFA
000204: 27,3375           57377                                    +2
000205: 27,3376           06414                                    TFF1/4
000206: 27,3377           00027                 +2        STORE    TFF1/ALF                              #  1/ALFA  E:(-22-2NA) M:(-20-2NA)
000207: 27,3400           77616        DUMPCNIC           RVQ
000208:
000209:                                                                                                  #                                                              39 W


000211:                                                                                                  #  SUBROUTINE NAME:  TFFRP/RA                                            DATE: 01.17.67
000212:                                                                                                  #  MOD NO:  0                                                            LOG SECTION:  TIME OF FREE FALL
000213:                                                                                                  #  MOD BY:  RR BAIRNSFATHER
000214:                                                                                                  #  MOD NO:  1    MOD BY:  RR BAIRNSFATHER        DATE: 11 APR 67
000215:                                                                                                  #  MOD NO:  2    MOD BY:  RR BAIRNSFATHER        DATE: 21 MAR 68         ACCEPT DIFFERENT EARTH/MOON SCALES
000216:                                                                                                  #                                                                        ALSO IMPROVE ACCURACY OF RAPO.
000217:
000218:                                                                                                  #  FUNCTIONAL DESCRIPTION:  USED BY CALCTPER AND TFF DISPLAYS TO CALCULATE PERIGEE RADIUS AND ALSO
000219:                                                                                                  #        APOGEE RADIUS FOR A GENERAL CONIC.
000220:                                                                                                  #        PROGRAM GIVES PERIGEE RADIUS AS         APOGEE RADIUS IS GIVEN BY
000221:                                                                                                  #                RP = P/(1+E)                            RA = (1+E) / ALFA
000222:                                                                                                  #        WHERE    2
000223:                                                                                                  #                E  = 1 - P ALFA
000224:                                                                                                  #        IF RA IS NEGATIVE OR SHOWS DIVIDE OVERFLOW, THEN RA = POSMAX BECAUSE
000225:                                                                                                  #                1. APOGEE RADIUS IS NOT MEANINGFUL FOR HYPERBOLA
000226:                                                                                                  #                2. APOGEE RADIUS IS NOT DEFINED FOR PARABOLA
000227:                                                                                                  #                3. APOGEE RADIUS EXCEEDS THE SCALING FOR ELLIPSE.
000228:
000229:                                                                                                  #        THIS SUBROUTINE REQUIRES THE SIGNED RECIPROCAL SEMI MAJ AXIS, ALFA, AND SEMI LATUS RECTUM AS DATA.
000230:
000231:                                                                                                  #  CALLING SEQUENCE:     CALL
000232:                                                                                                  #                                TFFRP/RA
000233:                                                                                                  #        PUSHLOC = PDL+0, ARBITRARY IF LEQ 10D
000234:                                                                                                  #        C(MPAC) UNSPECIFIED
000235:
000236:                                                                                                  #  SUBROUTINES CALLED:   NONE
000237:
000238:                                                                                                  #  NORMAL EXIT MODE:     RVQ
000239:                                                                                                  #        IF ELLIPSE, WITHIN NORMAL SCALING, RAPO IS CORRECT.
000240:                                                                                                  #        OTHERWISE, RAPO = POSMAX.
000241:
000242:                                                                                                  #  ALARMS:       NONE
000243:
000244:                                                                                                  #  OUTPUT:       STORED IN PUSH LIST AREA.  SCALE OF OUTPUT AGREES WITH DATA SUPPLIED TO TFF/CONIC.
000245:                                                                                                  #        RPER    E:(-29) M:(-27)         M       PERIGEE RADIUS          DESTROYED BY CALCTFF/CALCTPER, TFFTRIG.
000246:                                                                                                  #        RAPO    E:(-29) M:(-27)         M       APOGEE RADIUS           WILL BE DESTROYED BY CALCTFF/CALCTPER
000247:                                                                                                  #        PUSHLOC AT PDL+0
000248:
000249:                                                                                                  #  ERASABLE INITIALIZATION REQUIRED:
000250:                                                                                                  #        TFFALFA E:(26-NR)               M       1/SEMI MAJ AXIS         LEFT BY TFFCONIC
000251:                                                                                                  #                M:(24-NR)
000252:                                                                                                  #        TFFNP   E:(-38+2NR)             M       LC P, SEMI LATUS RECTUM LEFT BY TFFCONIC
000253:                                                                                                  #                M:(-36+2NR)
000254:                                                                                                  #        X1                              -NR, NORM COUNT OF RMAG         LEFT BY TFFCONIC
000255:                                                                                                  #        X2                              -NA, NORM COUNT OF ALFA         LEFT BY TFFCONIC
000256:
000257:                                                                                                  #  DEBRIS:       QPRET, PDL+0 ... PDL+1
000258:


000260: 27,3401                        RAPO               =        16D                                   #  APOGEE RADIUS  M  E:(-29) M:(-27)
000261: 27,3401                        RPER               =        14D                                   #  PERIGEE RADIUS  M  E:(-29) M:(-27)
000262:
000263: 27,3401           41345        TFFRP/RA           DLOAD    DMP
000264: 27,3402           00033                                    TFFALFA                               #  ALFA  1/M  E:(26-NR) M:(24-NR)
000265: 27,3403           00035                                    TFFNP                                 #  LC P  M E:(-38+2NR) M:(-36+2NR)
000266: 27,3404           57457                           SR*      DCOMP                                 #  ALFA P (-12+NR)
000267: 27,3405           20571                                    0          -8D,1                      #  ALFA P (-4)
000268: 27,3406           51415                           DAD      ABS                                   #  (DCOMP GIVES VALID TP RESULT FOR SQRT)
000269:                                                                                                  #  (ABS PROTECTS SQRT IF E IS VERY NEAR 0)
000270: 27,3407           17737                                    DP2(-4)
000271: 27,3410           43366                           SQRT     DAD                                   #  E SQ = (1- P ALFA) (-4)
000272: 27,3411           06414                                    TFF1/4
000273: 27,3412           55206                           PUSH     BDDV                                  #  (1+E)  (-2)  TO PDL+0
000274: 27,3413           00035                                    TFFNP                                 #  LCP  M  E:(-38+2NR) M:(-36+2NR)
000275: 27,3414           53657                           SR*      SR*                                   #  (DOES SR THEN SL TO AVOID OVFL)
000276: 27,3415           20601                                    0,1                                   #  X1=-NR
000277: 27,3416           20572                                    0          -7,1                       #  (EFFECTIVE SL)
000278: 27,3417           14017                           STODL    RPER                                  #  PERIGEE RADIUS  M  E:(-29) M:(-27)
000279:                                                                                                  #  (1+E)  (-2)  FROM PDL+0
000280: 27,3420           41005                           DMP      BOVB
000281: 27,3421           00027                                    TFF1/ALF                              #  E:(-22-2NA) M:(-20-2NA)
000282: 27,3422           57725                                    TCDANZIG                              #  CLEAR OVFIND, IF ON.
000283: 27,3423           53654                           BZE      SL*
000284: 27,3424           57433                                    MAXRA                                 #  SET POSMAX, IF ALFA=0
000285: 27,3425           57603                                    0          -5,2                       #  -5+NA
000286: 27,3426           40057                           SL*      BOV
000287: 27,3427           57576                                    0,2
000288: 27,3430           57433                                    MAXRA                                 #  SET POSMAX IF OVFL.
000289: 27,3431           77644                           BPL                                            #  CONTINUE WITH VALID RAPO.
000290: 27,3432           57435                                    +3
000291: 27,3433           77745        MAXRA              DLOAD                                          #  RAPO CALC IS NOT VALID.  SET RAPO =
000292: 27,3434           17743                                    NEARONE                               #  POSMAX AS A TAG.
000293: 27,3435           00021                 +3        STORE    RAPO                                  #  APOGEE RADIUS  M  E:(-29) M:(-27)
000294: 27,3436           77616        DUMPRPRA           RVQ
000295:
000296:                                                                                                  #                                                                30 W


000298:                                                                                                  #  SUBROUTINE NAME:  CALCTPER / CALCTFF                                  DATE:  01.29.67
000299:                                                                                                  #  MOD NO:  0                                                            LOG SECTION:  TIME OF FREE FALL
000300:                                                                                                  #  MOD BY:  RR BAIRNSFATHER
000301:                                                                                                  #  MOD NO:  1    MOD BY:  RR BAIRNSFATHER        DATE: 21 MAR 67
000302:                                                                                                  #  MOD NO:  2    MOD BY:  RR BAIRNSFATHER        DATE: 14 APR 67
000303:                                                                                                  #  MOD NO:  3    MOD BY:  RR BAIRNSFATHER        DATE: 8 JUL 67          NEAR EARTH MUE AND NEG TFF (GONEPAST)
000304:                                                                                                  #  MOD NO:  4    MOD BY:  RR BAIRNSFATHER        DATE: 21 NOV 67         ADD VARIABLE MU.
000305:                                                                                                  #  MOD NO:  5    MOD BY:  RR BAIRNSFATHER        DATE: 21 MAR 68         ACCEPT DIFFERENT EARTH/MOON SCALES
000306:
000307:                                                                                                  #  FUNCTIONAL DESCRIPTION:  PROGRAM CALCULATES THE FREE-FALL TIME OF FLIGHT FROM PRESENT POSITION RN AND
000308:                                                                                                  #        VELOCITY VN TO A RADIUS LENGTH SPECIFIED BY RTERM, SUPPLIED BY THE USER.  THE POSITION VECTOR
000309:                                                                                                  #        RN MAY BE ON EITHER SIDE OF THE CONIC, BUT RTERM IS CONSIDERED ON THE INBOUND SIDE.
000310:                                                                                                  #        THE EQUATIONS ARE
000311:
000312:                                                                                                  #                Q2 = -SQRT(RTERM (2-RTERM ALFA) - LCP)  (INBOUND SIDE)) LEQ +- LCE/SQRT(ALFA)
000313:                                                                                                  #                     __ __
000314:                                                                                                  #                Q1 = RN.VN / SQRT(MU)                                   LEQ +- LCE/SQRT(ALFA)
000315:
000316:                                                                                                  #                Z = NUM / DEN                                           LEQ +- 1/SQRT(ALFA)
000317:
000318:                                                                                                  #        WHERE, IF INBOUND
000319:                                                                                                  #                NUM = RTERM -RN                                         LEQ +- 2 LCE/ALFA
000320:                                                                                                  #                DEN = Q2+Q1                                             LEQ +- 2 LCE/SQRT(ALFA)
000321:
000322:                                                                                                  #        AND, IF OUTBOUND
000323:                                                                                                  #                NUM = Q2-Q1                                             LEQ +- 2 LCE/SQRT(ALFA)
000324:                                                                                                  #                DEN = 2 - ALFA (RTERM + RN).                            LEQ +- 2 LCE
000325:
000326:                                                                                                  #        IF      ALFA ZZ < 1.0           (FOR ALL CONICS EXCEPT ELLIPSES HAVING ABS(DEL ECC ANOM) G 90 DEG)
000327:                                                                                                  #        THEN    X = ALFA Z Z
000328:                                                                                                  #        AND     TFF = (RTERM +RN -2 ZZ T(X) ) Z/SQRT(MU)
000329:                                                                                                  #                EXCEPT  IF ALFA PNZ, AND IF TFF NEG,
000330:                                                                                                  #                THEN    TFF = 2 PI /(ALFA SQRT(ALFA)) + TFF
000331:                                                                                                  #        OR      IF ALFA ZZ GEQ 1.0      (FOR ELLIPSES HAVING ABS(DEL ECC ANOM) GEQ 90 DEG)
000332:                                                                                                  #        THEN    X = 1/ALFA Z Z
000333:                                                                                                  #        AND     TFF = (PI/SQRT(ALFA) -Q2 +Q1 +2(X T(X) -1) /ALFA Z) /ALFA SQRT(MU)
000334:                                                                                                  #        WHERE   T(X) IS A POLYNOMIAL APPROXIMATION TO THE SERIES
000335:                                                                                                  #                             2      3             2
000336:                                                                                                  #                1/3 - X/5 + X /7 - X /9 ...     (X  < 1.0)
000337:
000338:                                                                                                  #  CALLING SEQUENCE:     TIME TO RTERM                   TIME TO PERIGEE
000339:                                                                                                  #                        CALL                            CALL
000340:                                                                                                  #                                CALCTFF                         CALCTPER
000341:                                                                                                  #                        C(MPAC) = TERMNL RAD M          C(MPAC) = PERIGEE RAD M
000342:                                                                                                  #        FOR EITHER, E:(-29) M:(-27)
000343:                                                                                                  #        FOR EITHER, PUSHLOC = PDL+0, ARBITRARY IF LEQ 8D.


000345:
000346:                                                                                                  #  SUBROUTINES CALLED:   T(X), VIA RTB
000347:
000348:                                                                                                  #  NORMAL EXIT MODE:     RVQ
000349:                                                                                                  #        HOWEVER, PROGRAM EXITS WITH ONE OF THE FOLLOWING VALUES FOR TFF (-28) CS IN MPAC.  USER MUST STORE.
000350:                                                                                                  #                A. TFF = FLIGHT TIME.  NORMAL CASE FOR POSITIVE FLIGHT TIME LESS THAN ONE ORBITAL PERIOD.
000351:                                                                                                  #                B. (THIS OPTION IS NO LONGER USED.)
000352:                                                                                                  #                C. TFF = POSMAX.  THIS INDICATES THAT THE CONIC FROM THE PRESENT POSITION WILL NOT RETURN TO
000353:                                                                                                  #                   THE SPECIFIED ALTITUDE.  ALSO INDICATES OUTBOUND PARABOLA OR HYPERBOLA.
000354:
000355:                                                                                                  #  OUTPUT:       C(MPAC)         (-28) CS        TIME OF FLIGHT, OR TIME TO PERIGEE
000356:                                                                                                  #                TFFX            (0)             X.                                      LEFT FOR ENTRY DISPLAY TFF ROUTINES
000357:                                                                                                  #                NRTERM          E:(-29+NR) M    RTERM, WEIGHTED BY NR                   LEFT FOR ENTRY DISPLAY TFF ROUTINES
000358:                                                                                                  #                                M:(-27+NR)
000359:                                                                                                  #                TFFTEM          E:(-59+2NR)     LCP Z Z SGN(SDELF)                      LEFT FOR ENTRY DISPLAY TFF ROUTINES
000360:                                                                                                  #                                M:(-55+2NR)     LCP /ALFA SGN(SDELF)                    LEFT FOR ENTRY DISPLAY TFF ROUTINES
000361:                                                                                                  #                NOTE:   TFFTEM = PDL 36D AND WILL BE DESTROYED BY .:UNIT:.
000362:                                                                                                  #                RMAG1           E:(-29) M:(-27) PDL 12 NOT TOUCHED.
000363:                                                                                                  #                TFFQ1           E:(-16) M:(-15) PDL 14D
000364:                                                                                                  #                TFFDELQ         E:(-16) M:(-15) PDL 10D
000365:                                                                                                  #                PUSHLOC AT PDL+0
000366:
000367:                                                                                                  #  ERASABLE INITIALIZATION REQUIRED:
000368:                                                                                                  #                RONE            E:(-29) M:(-27) M  STATE VECTOR                         LEFT BY USER
000369:                                                                                                  #                VONE'           E:(+10) M:(+9)  VN/SQRT(MU)                             LEFT BY TFF/CONIC
000370:                                                                                                  #                RMAG1           E:(-29) M:(-27) PRESENT RADIUS, M                       LEFT BY TFFCONIC
000371:                                                                                                  #                C(MPAC)         E:(-29) M:(-27) RTERM, TERMINAL RADIUS LENGTH, M        LEFT BY USER
000372:
000373:                                                                                                  #                THE FOLLOWING ARE STORED IN THE PUSH LIST AREA.
000374:                                                                                                  #                TFF/RTMU        E:(17) M:(14)   1/SQRT(MU)                              LEFT BY TFFCONIC.
000375:                                                                                                  #                NRMAG           E:(-29+NR)      M  RMAG, NORMALIZED                     LEFT BY TFFCONIC
000376:                                                                                                  #                                M:(-27+NR)
000377:                                                                                                  #                X1                              -NR, NORM COUNT                         LEFT BY TFFCONIC
000378:                                                                                                  #                TFFNP           E:(-38+2NR)     M  LCP, SEMI LATUS RECTUM, WEIGHT NR    LEFT BY TFFCONIC
000379:                                                                                                  #                                M:(-36+2NR)
000380:                                                                                                  #                TFFALFA         E:(26-NR)       1/M  ALFA, WEIGHT NR                    LEFT BY TFFCONIC
000381:                                                                                                  #                                M:(24-NR)
000382:                                                                                                  #                TFFRTALF        E:(10+NA)       SQRT(ALFA), NORMALIZED                  LEFT BY TFFCONIC
000383:                                                                                                  #                                M:(9+NA)
000384:                                                                                                  #                X2                              -NA, NORMCOUNT                          LEFT BY TFFCONIC
000385:                                                                                                  #                TFF1/ALF        E:(-22-2NA)     SIGNED SEMIMAJ AXIS, WEIGHTED BY NA     LEFT BY TFFCONIC
000386:                                                                                                  #                                M:(-20-2NA)
000387:
000388:                                                                                                  #  DEBRIS:       QPRET, PDL+0 ... PDL+3
000389:                                                                                                  #                RTERM           E:(-29) M:(-27) RTERM, TERMINAL RADIUS LENGTH
000390:                                                                                                  #                RAPO            E:(-29) M:(-27) PDL 16D (=NRTERM)
000391:                                                                                                  #                RPER            E:(-29) M:(-27) PDL 14D (=TFFQ1)
000392:


000394: 27,3437           77614        CALCTPER           SETGO                                          #  ENTER WITH RPER IN MPAC
000395: 27,3440           03436                                    TFFSW
000396: 27,3441           57444                                    +3
000397: 27,3442           77614        CALCTFF            CLEAR                                          #  ENTER WITH RTERM IN MPAC
000398: 27,3443           03676                                    TFFSW
000399: 27,3444           00023                 +3        STORE    RTERM                                 #  E:(-29) M:(-27)
000400: 27,3445           77657                           SL*
000401: 27,3446           20201                                    0,1                                   #  X1=-NR
000402: 27,3447           00021                           STORE    NRTERM                                #  RTERM  E:(-29+NR) M:(-27+NR)
000403: 27,3450           44205                           DMP      BDSU
000404: 27,3451           00033                                    TFFALFA                               #  ALFA  E:(26-NR) M:(24-NR)
000405: 27,3452           06414                                    TFF1/4
000406: 27,3453           41206                           PUSH     DMP                                   #  (2-ALFA RTERM)  (-3)  TO PDL+0
000407: 27,3454           00021                                    NRTERM                                #  E:(-29+NR) M:(-27+NR)
000408: 27,3455           53725                           PDDL     SR*                                   #  RTERM(2-ALFA RTERM) TO PDL+2
000409:                                                                                                  #  E:(-32+NR) M:(-30+NR)
000410: 27,3456           00035                                    TFFNP                                 #  LC P  E:(-38+2NR) M:(-36+2NR)
000411: 27,3457           20573                                    0          -6,1                       #  X1 = -NR
000412: 27,3460           43276                           DCOMP    DAD                                   #  DUE TO SHIFTS, KEEP PRECISION FOR SQRT
000413:                                                                                                  #  RTERM(2-ALFA RTERM) FROM PDL +2
000414:                                                                                                  #  E:(-32+NR) M:(-30+NR)
000415: 27,3461           77657                           SR*                                            #  LEAVE  E:(-32) M:(-30)
000416: 27,3462           20601                                    0,1                                   #  X1 = -NR
000417: 27,3463           71214                           BOFF     DLOAD                                 #  CHECK TFF /TPER SWITCH
000418: 27,3464           03756                                    TFFSW
000419: 27,3465           57467                                    +2                                    #  IF TFF, CONTINUE
000420: 27,3466           06424                                    TFFZEROS                              #  IF TPER, SET Q2 = 0
000421: 27,3467           75440                 +2        BMN      SQRT                                  #  E:(-16) M:(-15)
000422:
000423: 27,3470           57622                                    MAXTFF1                               #  NO FREE FALL CONIC TO RTERM FROM HERE
000424:                                                                                                  #  RESET PDL, SET TFF=POSMAX, AND EXIT.
000425:
000426: 27,3471           41076                           DCOMP    BOVB                                  #  RT IS ON INBOUND SIDE.  ASSURE OVFIND=0
000427: 27,3472           57725                                    TCDANZIG                              #  ANY PORT IN A STORM.
000428: 27,3473           24045                           STOVL    TFFTEM                                #  Q2  E:(-16) M:(-15)
000429: 27,3474           02170                                    VONE'                                 #  VN/SQRT(MU)  E:(10) M:(9)
000430: 27,3475           52441                           DOT      SL3
000431: 27,3476           02213                                    RONE                                  #  SAVED RN.  E:(-29) M:(-27)
000432: 27,3477           00017                           STORE    TFFQ1                                 #  Q1, SAVE FOR GONEPAST TEST.
000433:                                                                                                  #  E:(-16) M:(-15)
000434: 27,3500           44240                           BMN      BDSU
000435: 27,3501           57522                                    INBOUND                               #  USE ALTERNATE Z
000436: 27,3502           00045                                    TFFTEM                                #  Q2  E:(-16) M:(-15)
000437:
000438:                                                                                                  #  OUTBOUND Z CALC CONTINUES HERE
000439:
000440: 27,3503           14043                           STODL    TFFX                                  #  NUM=Q2-Q1  E:(-16) M:(-15)
000441: 27,3504           00033                                    TFFALFA                               #  ALFA  E:(26-NR) M:(24-NR)
000442: 27,3505           44205                           DMP      BDSU


000444: 27,3506           00041                                    NRMAG                                 #  RMAG  E:(-29+NR) M:(-27+NR)
000445:                                                                                                  #  (2-RTERM ALFA)  (-3) FROM PDL+0
000446: 27,3507           51406        SAVEDEN            PUSH     ABS                                   #  DEN TO PDL+0  E:(-3) OR (-16)
000447:                                                                                                  #                M:(-3) OR (-15)
000448: 27,3510           40015                           DAD      BOV                                   #  INDETERMINANCY TEST
000449: 27,3511           17731                                    LIM(-22)                              #  =1.0-B(-22)
000450: 27,3512           57533                                    TFFXTEST                              #  GO IF DEN >/= B(-22)
000451: 27,3513           65345                           DLOAD    PDDL                                  #  SET DEN=0 OTHERWISE
000452: 27,3514           06424                                    TFFZEROS
000453:                                                                                                  #  XCH ZERO WITH PDL+0
000454: 27,3515           57545                           DLOAD    DCOMP
000455: 27,3516           00033                                    TFFALFA                               #  ALFA  E:(26-NR) M:(24-NR)
000456: 27,3517           71240                           BMN      DLOAD                                 #  FOR TPER:  Z INDET AT DELE/2=0 AND 90.
000457: 27,3520           57627                                    TFFEL1                                #  ASSUME 90, AND LEAVE 0 IN PDL: 1/Z=D/N
000458:
000459:                                                                                                  #  Z INDET. AT PERIGEE FOR PARAB OR HYPERB.
000460: 27,3521           77616        DUMPTFF1           RVQ                                            #  RETURN TFF =0
000461:
000462:                                                                                                  #  INBOUND Z CALC CONTINUES HERE
000463:
000464: 27,3522           77745        INBOUND            DLOAD                                          #  RESET PDL+0
000465: 27,3523           45345                           DLOAD    DSU                                   #  ALTERNATE Z CALC
000466: 27,3524           00023                                    RTERM                                 #  E:(-29) M:(-27)
000467: 27,3525           00015                                    RMAG1                                 #  E:(-29) M:(-27)
000468: 27,3526           14043                           STODL    TFFX                                  #  NUM=RTERM-RN  E:(-29) M:(-27)
000469: 27,3527           00045                                    TFFTEM                                #  Q2  E:(-16) M:(-15)
000470: 27,3530           52015                           DAD      GOTO
000471: 27,3531           00017                                    TFFQ1                                 #  Q1  E:(-16) M:(-15)
000472: 27,3532           57507                                    SAVEDEN                               #  DEN = Q2+Q1  E:(-16) M:(-15)
000473:
000474: 27,3533           65215        TFFXTEST           DAD      PDDL                                  #  (ABS(DEN) TO PDL+2))  E:(-3) OR (-16)
000475:                                                                                                  #                        M:(-3) OR (-15)
000476: 27,3534           17733                                    DP(-22)                               #  RESTORE ABS(DEN) TO MPAC
000477: 27,3535           00043                                    TFFX                                  #  NUM  E:(-16) OR (-29)  M:(-15) OR (-27)
000478: 27,3536           53605                           DMP      SR*
000479: 27,3537           00031                                    TFFRTALF                              #  SQRT(ALFA)  E:(10+NA) M:(9+NA)
000480: 27,3540           57201                                    0          -3,2                       #  X2=-NA
000481: 27,3541           77671                           DDV                                            #  C(MPAC) =NUM SQRT(ALFA)       E:(-3) OR (-16)
000482:                                                                                                  #                                M:(-3) OR (-15)
000483:                                                                                                  #  ABS(DEN) FROM PDL+2   E:(-3) OR (-16)
000484:                                                                                                  #                        M:(-3) OR (-15)
000485: 27,3542           40145                           DLOAD    BOV                                   #  (THE DLOAD IS SHARED WITH TFFELL)
000486: 27,3543           00043                                    TFFX                                  #  NUM  E:(-16) OR (-29)  M:(-15) OR (-27)
000487: 27,3544           57625                                    TFFELL                                #  USE EQN FOR DELE GEQ 90, LEQ -90
000488:
000489:                                                                                                  #  OTHERWISE, CONTINUE FOR GENERAL CONIC FOR TFF EQN
000490:
000491: 27,3545           45471                           DDV      STADR
000492:                                                                                                  #  DEN FROM PDL+0        E:(-3) OR (-16)
000493:                                                                                                  #                        M:(-3) OR (-15)
000494: 27,3546           77732                           STORE    TFFTEM                                #  Z SAVE FOR SIGN OF SDELF.


000496:                                                                                                  #  E:(-13) M:(-12)
000497: 27,3547           63406                           PUSH     DSQ                                   #  Z TO PDL+0
000498: 27,3550           41206                           PUSH     DMP                                   #  Z SQ TO PDL+2  E:(-26) M:(-24)
000499: 27,3551           00035                                    TFFNP                                 #  LC P  E:(-38+2NR) M:(-36+2NR)
000500: 27,3552           75261                           SL       SIGN
000501: 27,3553           20206                                    5
000502: 27,3554           00045                                    TFFTEM                                #  AFFIX SIGN FOR SDELF (ENTRY DISPLAY)
000503: 27,3555           14045                           STODL    TFFTEM                                #  P ZSQ  E:(-59+2NR) M:(-55+2NR)
000504:                                                                                                  #  (ARG IS USED IN TFF/TRIG)
000505:                                                                                                  #  ZSQ FROM PDL+2  E:(-26) M:(-24)
000506: 27,3556           41206                           PUSH     DMP                                   #  RESTORE PUSH LOC
000507: 27,3557           00033                                    TFFALFA                               #  ALFA  E:(26-NR) M:(24-NR)
000508: 27,3560           77657                           SL*
000509: 27,3561           20201                                    0,1                                   #  X1=-NR
000510: 27,3562           00043                           STORE    TFFX                                  #  X
000511: 27,3563           41234                           RTB      DMP
000512: 27,3564           57707                                    T(X)                                  #  POLY
000513:                                                                                                  #  ZSQ FROM PDL+2  E:(-26) M:(-24)
000514: 27,3565           44302                           SR2      BDSU                                  #  2 ZSQ T(X)  E:(-29) M:(-27)
000515: 27,3566           00023                                    RTERM                                 #  RTERM  E:(-29) M:(-27)
000516: 27,3567           41215                           DAD      DMP
000517: 27,3570           00015                                    RMAG1                                 #  E:(-29) M:(-27)
000518:                                                                                                  #  Z FROM PDL+0  E:(-13) M:(-12)
000519: 27,3571           51042                           SR3      BPL                                   #  TFF SQRT(MU)  E:(-45) M:(-42)
000520: 27,3572           57613                                    ENDTFF                                #  (NO PUSH UP)
000521: 27,3573           75206                           PUSH     SIGN                                  #  TFF SQRT(MU) TO PDL+0
000522: 27,3574           00017                                    TFFQ1                                 #  Q1 FOR GONEPAST TEST
000523: 27,3575           71244                           BPL      DLOAD                                 #  GONE PAST ?
000524: 27,3576           57617                                    NEGTFF                                #  YES. TFF < 0.
000525: 27,3577           00027                                    TFF1/ALF                              #  1/ALFA  E:(-22-2NA) M:(-20-2NA)
000526: 27,3600           51076                           DCOMP    BPL                                   #  ALFA > 0 ?
000527: 27,3601           57617                                    NEGTFF                                #  NO. TFF IS NEGATIVE.
000528:
000529:                                                                                                  #  CORRECT FOR ORBITAL PERIOD.
000530:
000531: 27,3602           77676                           DCOMP                                          #  YES.  CORRECT FOR ORB PERIOD.
000532: 27,3603           56205                           DMP      DDV
000533: 27,3604           17727                                    PI/16                                 #  2 PI (-5)
000534: 27,3605           00031                                    TFFRTALF                              #  SQRT(ALFA)  E:(10+NA) M:(9+NA)
000535: 27,3606           53657                           SL*      SL*
000536: 27,3607           57602                                    0          -4,2                       #  X2=-NA
000537: 27,3610           57602                                    0          -4,2
000538: 27,3611           43257                           SL*      DAD
000539: 27,3612           57576                                    0,2
000540:                                                                                                  #  TFF SQRT(MU) FROM PDL+0       E:(-45) M:(-42)
000541: 27,3613           40005        ENDTFF             DMP      BOV                                   #  TFF SQRT(MU) IN MPAC          E:(-45) M:(-42)
000542: 27,3614           00037                                    TFF/RTMU                              #  E:(17) M:(14)
000543: 27,3615           57623                                    MAXTFF                                #  SET POSMAX IF OVFL.
000544:
000545: 27,3616           77616        DUMPTFF2           RVQ                                            #  RETURN TFF (-28) CS IN MPAC.
000546:


000548: 27,3617           77745        NEGTFF             DLOAD
000549:                                                                                                  #  TFF SQRT(MU) FROM PDL+0, NEGATIVE.
000550: 27,3620           77650                           GOTO
000551: 27,3621           57613                                    ENDTFF
000552:
000553: 27,3622           77745        MAXTFF1            DLOAD                                          #  RESET PDL
000554: 27,3623           43545        MAXTFF             DLOAD    RVQ
000555: 27,3624           17743                                    NEARONE
000556:
000557:                                                                                                  #  TIME OF FLIGHT ELLIPSE WHEN DEL (ECCENTRIC ANOM) GEQ 90 AND LEQ -90.
000558:
000559:                                                                                                  #  NUM FROM TFFX.        E:(-16) OR (-29)
000560:                                                                                                  #                        M:(-15) OR (-27)
000561: 27,3625           77712        TFFELL             SL2                                            #  NUM  E:(-14) OR (-27)  M:(-13) OR (-25)
000562: 27,3626           41465                           BDDV     PUSH                                  #  TEMP SAVE D/N IN PDL+0
000563:                                                                                                  #  DEN FROM PDL+0  E:(-3)/( 16) M:(-3)/(-15)
000564:                                                                                                  #  N/D TO PDL+0  E:(11) M:(10)
000565: 27,3627           45345        TFFEL1             DLOAD    DSU                                   #  (ENTER WITH D/N=0 IN PDL+0)
000566: 27,3630           00045                                    TFFTEM                                #  Q2  E:(-16) M:(-15)
000567: 27,3631           00017                                    TFFQ1                                 #  Q1  E:(-16) M:(-15)
000568: 27,3632           14013                           STODL    TFFDELQ                               #  Q2-Q1  E:(-16) M:(-15)
000569:                                                                                                  #  D/N FROM PDL+0
000570: 27,3633           77626                           STADR
000571: 27,3634           77732                           STORE    TFFTEM                                #  D/N  E:(11) M:(10)
000572: 27,3635           53605                           DMP      SL*
000573: 27,3636           00027                                    TFF1/ALF                              #  1/ALFA  E:(-22-2NA) M:(-20-2NA)
000574: 27,3637           57576                                    0,2                                   #  1/ALFA Z  E:(-11-NA) M:(-10-NA)
000575: 27,3640           41206                           PUSH     DMP                                   #  TO PDL+0
000576: 27,3641           00045                                    TFFTEM                                #  1/Z  E:(11) M:(10)
000577: 27,3642           41057                           SL*      BOVB
000578: 27,3643           57576                                    0,2                                   #  X2= -NA
000579: 27,3644           21664                                    SIGNMPAC                              #  IN CASE X= 1.0, CONTINUE
000580: 27,3645           00043                           STORE    TFFX                                  #  X=1/ALFA ZSQ
000581: 27,3646           41234                           RTB      DMP
000582: 27,3647           57707                                    T(X)                                  #  POLY
000583: 27,3650           00043                                    TFFX
000584: 27,3651           45242                           SR3      DSU
000585: 27,3652           17735                                    DP2(-3)
000586: 27,3653           41405                           DMP      PUSH                                  #  2(X T(X)-1) /Z ALFA   E:(-15-NA)
000587:                                                                                                  #                        M:(-14-NA)
000588:                                                                                                  #  1/ALFA Z FROM PDL+0   E:(-11-NA)
000589:                                                                                                  #                        M:(-10-NA)
000590: 27,3654           41345                           DLOAD    DMP                                   #  GET SIGN FOR SDELF
000591: 27,3655           00045                                    TFFTEM                                #  1/Z  E:(11) M:(10)
000592: 27,3656           00015                                    RMAG1                                 #  E:(-29) M:(-27)
000593: 27,3657           43312                           SL2      DAD
000594: 27,3660           00017                                    TFFQ1                                 #  Q1  E:(-16) M:(-15)
000595: 27,3661           14045                           STODL    TFFTEM                                #  (Q1+R 1/Z) =SGN OF SDELF  E:(-16) M:(-15
000596: 27,3662           00035                                    TFFNP                                 #  LC P  E:(-38+2NR) M:(-36+2NR)
000597: 27,3663           53605                           DMP      SL*                                   #  CALC FOR ARG FOR TFF/TRIG.


000599: 27,3664           00027                                    TFF1/ALF                              #  1/ALFA  E:(-22-2NA) M:(-20-2NA)
000600: 27,3665           57575                                    1,2                                   #  X2=-NA
000601: 27,3666           53765                           SIGN     SL*
000602: 27,3667           00045                                    TFFTEM                                #  AFFIX SIGN FOR SDELF
000603: 27,3670           57576                                    0,2
000604: 27,3671           14045                           STODL    TFFTEM                                #  P/ALFA  E:(-59+2NR) M:(-55+2NR)
000605:                                                                                                  #  (ARG FOR USE IN TFF/TRIG)
000606: 27,3672           00027                                    TFF1/ALF                              #  1/ALFA  E:(-22-2NA) M:(-20-2NA)
000607: 27,3673           41366                           SQRT     DMP
000608: 27,3674           17727                                    PI/16                                 #  PI (-4)
000609: 27,3675           77615                           DAD
000610:                                                                                                  #  2(XT(X)-1)/Z ALFA FROM PDL    E:(-15-NA)
000611:                                                                                                  #                                M:(-14-NA)
000612: 27,3676           45257                           SL*      DSU
000613: 27,3677           57577                                    0          -1,2
000614: 27,3700           00013                                    TFFDELQ                               #  Q2-Q1  E:(-16) M:(-15)
000615: 27,3701           53605                           DMP      SL*
000616: 27,3702           00027                                    TFF1/ALF                              #  1/ALFA  E:(-22-2NA) M:(-20-2NA)
000617: 27,3703           57601                                    0          -3,2
000618: 27,3704           52057                           SL*      GOTO
000619: 27,3705           57602                                    0          -4,2
000620: 27,3706           57613                                    ENDTFF                                #  TFF SQRT(MU) IN MPAC E:(-45) M:(-42)
000621:


000623:                                                                                                  #  PROGRAM NAME:  T(X)                           DATE:  01.17.67
000624:                                                                                                  #  MOD NO:  0                                    LOG SECTION:  TIME OF FREE FALL
000625:                                                                                                  #  MOD BY:  RR BAIRNSFATHER
000626:
000627:                                                                                                  #  FUNCTIONAL DESCRIPTION:  THE POLYNOMIAL T(X) IS USED BY TIME OF FLIGHT SUBROUTINES CALCTFF AND
000628:                                                                                                  #        CALCTPER TO APPROXIMATE THE SERIES
000629:                                                                                                  #                           2     3
000630:                                                                                                  #                1/3 -X/5 +X /7 -X /9 ...
000631:
000632:                                                                                                  #        WHERE   X = ALFA Z Z            IF ALFA Z Z LEQ 1
000633:                                                                                                  #                X = 1/(ALFA Z Z)        IF ALFA Z Z G 1
000634:
000635:                                                                                                  #        ALSO    X IS NEG FOR HYPERBOLIC ORBITS
000636:                                                                                                  #                X = 0 FOR PARABOLIC ORBITS
000637:                                                                                                  #                X IS POSITIVE FOR ELLIPTIC ORBITS
000638:
000639:                                                                                                  #        FOR FLIGHT 278, THE POLYNOMIAL T(X) IS FITTED OVER THE RANGE (0,+1) AND HAS A MAXIMUM
000640:                                                                                                  #        DEVIATION FROM THE SERIES OF 2 E-5   (T(X) IS A CHEBYCHEV TYPE FIT AND WAS OBTAINED USING
000641:                                                                                                  #        MAC PROGRAM AUTCURFIT294RRB AND IS VALID TO THE SAME TOLERANCE OVER THE RANGE (-.08,+1).)
000642:
000643:                                                                                                  #  CALLING SEQUENCE:     RTB
000644:                                                                                                  #                                T(X)
000645:                                                                                                  #        C(MPAC) = X
000646:
000647:                                                                                                  #  SUBROUTINES CALLED:  NONE
000648:
000649:                                                                                                  #  NORMAL EXIT MODE:  TC   DANZIG
000650:
000651:                                                                                                  #  ALARMS:  NONE
000652:
000653:                                                                                                  #  OUTPUT:  C(MPAC) = T(X)
000654:
000655:                                                                                                  #  ERASABLE INITIALIZATION REQUIRED:
000656:                                                                                                  #        C(MPAC) = X
000657:
000658:                                                                                                  #  DEBRIS:  NONE
000659:
000660: 27,3707           07221        T(X)               TC       POLY
000661: 27,3710           00004                           DEC      4          B-14                       #  N-1
000662: 27,3711           12525 12525                     2DEC     3.333333333 E-1
000663:
000664: 27,3713           71463 57703                     2DEC*    -1.999819135 E-1*
000665:
000666: 27,3715           04423 17645                     2DEC*    1.418148467 E-1*
000667:
000668: 27,3717           74604 43667                     2DEC*    -1.01310997 E-1*
000669:
000670: 27,3721           01626 37256                     2DEC*    5.609004986 E-2*
000671:
000672: 27,3723           77404 52071                     2DEC*    -1.536156925 E-2*
000673:
000674: 27,3725           06060        ENDT(X)            TC       DANZIG
000675:
000676: 27,3726  27,3725               TCDANZIG           =        ENDT(X)
000677:


000679:                                                                                                  #  TFF CONSTANTS
000680:
000681: 32,3766                                           BANK     32
000682:
000683: 27,2000                                           SETLOC   TOF-FF1
000684: 27,2000                                           BANK
000685:
000686:                                                                                                  #                                                NOTE _  NOTE _  ADJUSTED MUE FOR NEAR EARTH TRAJ.
000687:                                                                                                  # MUE            =       3.990815471 E10         M CUBE/CS SQ
000688:                                                                                                  # RTMUE          =       1.997702549 E5 B-18*    MODIFIED EARTH MU
000689:
000690:                                                                                                  #                                                NOTE _  NOTE _  ADJUSTED MUE FOR NEAR EARTH TRAJ.
000691:                                                                                                  # MUM            =       4.902778 E8             M CUBE/CS SQ
000692:                                                                                                  # RTMUM          2DEC*   2.21422176 E4 B-18*
000693:
000694: 27,3726           06220 37553  PI/16              2DEC     3.141592653 B-4
000695:
000696: 27,3730           37777 37700  LIM(-22)           2OCT     37777      37700                      #  1.0 -B(-22)
000697:
000698: 27,3732           00000 00100  DP(-22)            2OCT     00000      00100                      #  B(-22)
000699:
000700: 27,3734           04000 00000  DP2(-3)            2DEC     1          B-3
000701:
000702: 27,3736           02000 00000  DP2(-4)            2DEC     1          B-4                        #  1/16
000703:
000704:                                                                                                  #  RPAD1         2DEC    6373338 B-29            M (-29) = 20909901.57 FT
000705:
000706: 27,3740  23,2275               RPAD1              =        RPAD
000707:
000708: 27,3740           00305 11205  R300K              2DEC     6464778    B-29                       #  (-29) M
000709:
000710: 27,3742           37777 37777  NEARONE            2DEC     .999999999
000711:
000712: 27,3744  23,2423               TFFZEROS           EQUALS   HI6ZEROS
000713: 27,3744  23,2413               TFF1/4             EQUALS   HIDP1/4
000714:

End of include-file TIME_OF_FREE_FALL.agc.  Parent file is MAIN.agc


