
Source Code


000002:                                                                                                  ## Copyright:   Public domain.
000003:                                                                                                  ## Filename:    TRIM_GIMBAL_CONTROL_SYSTEM.agc
000004:                                                                                                  ## Purpose:     The main source file for Luminary revision 069.
000005:                                                                                                  ##              It is part of the source code for the original release
000006:                                                                                                  ##              of the flight software for the Lunar Module's (LM) Apollo
000007:                                                                                                  ##              Guidance Computer (AGC) for Apollo 10. The actual flown
000008:                                                                                                  ##              version was Luminary 69 revision 2, which included a
000009:                                                                                                  ##              newer lunar gravity model and only affected module 2.
000010:                                                                                                  ##              This file is intended to be a faithful transcription, except
000011:                                                                                                  ##              that the code format has been changed to conform to the
000012:                                                                                                  ##              requirements of the yaYUL assembler rather than the
000013:                                                                                                  ##              original YUL assembler.
000014:                                                                                                  ## Reference:   pp. 1467-1478
000015:                                                                                                  ## Assembler:   yaYUL
000016:                                                                                                  ## Contact:     Ron Burkey <info@sandroid.org>.
000017:                                                                                                  ## Website:     www.ibiblio.org/apollo/index.html
000018:                                                                                                  ## Mod history: 2016-12-13 MAS  Created from Luminary 99.
000019:                                                                                                  ##              2016-12-18 MAS  Updated from comment-proofed Luminary 99 version.
000020:                                                                                                  ##              2016-12-29 RRB  Updated for Luminary 69.
000021:                                                                                                  ##              2017-01-21 HG   Fix operand BIT 12 -> BIT12
000022:                                                                                                  ##                                          NEGSUM -> NEGUSUM
000023:                                                                                                  ##              2017-01-23 Fix operator TC -> TCF
000024:                                                                                                  ##              2017-01-28 RSB  Proofed comment text using octopus/prooferComments
000025:                                                                                                  ##                              and fixed errors found.
000026:


000028: 21,3263                                           BANK     21
000029: 21,3263  E6,1446                                  EBANK=   QDIFF
000030: 21,2000                                           SETLOC   DAPS4
000031: 21,2000                                           BANK
000032:
000033: 21,3263                                           COUNT*   $$/DAPGT
000034:
000035:                                                                                                  #  CONTROL REACHES THIS POINT UNDER EITHER OF THE FOLLOWING TWO CONDITIONS ONCE THE DESCENT ENGINE AND THE DIGITAL
000036:                                                                                                  #  AUTOPILOT ARE BOTH ON:
000037:                                                                                                  #        A) THE TRIM GIMBAL CONTROL LAW WAS ON DURING THE PREVIOUS Q,R-AXIS TIME5 INTERRUPT (OR THE DAPIDLER
000038:                                                                                                  #           INITIALIZATION WAS SET FOR TRIM GIMBAL CONTROL AND THIS IS THE FIRST PASS), OR
000039:                                                                                                  #        B) THE Q,R-AXES RCS AUTOPILOT DETERMINED THAT THE VEHICLE WAS ENTERING (OR HAD JUST ENTERED) A COAST
000040:                                                                                                  #           ZONE WITH A SMALL OFFSET ANGULAR ACCELERATION.
000041:                                                                                                  #  GTS IS THE ENTRY TO THE GIMBAL TRIM SYSTEM FOR CONTROLLING ATTITUDE ERRORS AND RATES AS WELL AS ACCELERATIONS.
000042:
000043: 21,3263           37746        GTS                CAF      NEGONE                                #  MAKE THE NEXT PASS THROUGH THE DAP BE
000044: 21,3264           55627                           TS       COTROLER                              #        THROUGH RCS CONTROL,
000045: 21,3265           34751                           CAF      FOUR                                  #        AND ENSURE THAT IT IS NOT A SKIP.
000046: 21,3266           55535                           TS       SKIPU
000047: 21,3267           55536                           TS       SKIPV
000048:
000049: 21,3270           34752                           CAF      TWO
000050: 21,3271           55631                           TS       INGTS                                 #  SET INDICATOR OF GTS CONTROL POSITIVE.
000051: 21,3272           55630                           TS       QGIMTIMR                              #  SET TIMERS TO 200 MSEC TO AVOID BOTH
000052: 21,3273           55632                           TS       RGIMTIMR                              #  RUNAWAY AND INTERFERENCE BY NULLING.
000053:
000054:                                                                                                  #  THE DRIVE SETTING ALGORITHM
000055:
000056:                                                                                                  #        DEL = SGN(OMEGA*K + ALPHA*ABS(ALPHA)/2).
000057:
000058:                                                                                                  #        NEGUSUM = ERROR.K(2) + DEL(OMEGA.K.DEL + ALPHA(2)/2)(3/2) + ALPHA(OMEGA.K.DEL + ALPHA(2)/3)
000059:
000060:                                                                                                  #        DRIVE = -SGN(NEGUSUM)
000061:
000062: 21,3274           30021                           CA       SR                                    #  SAVE THE SR.  SHIFT IT LEFT TO CORRECT
000063: 21,3275           60000                           AD       A                                     #  FOR THE RIGHT SHIFT DUE TO EDITING.
000064: 21,3276           55476                           TS       SAVESR
000065:
000066: 21,3277           34752        GTSGO+DN           CAF      TWO                                   #  SET INDEXER FOR R-AXIS CALCULATIONS.
000067: 21,3300           55746                           TS       QRCNTR
000068: 21,3301           31541                           CA       AOSR
000069: 21,3302           00006                           EXTEND
000070: 21,3303           74751                           MP       BIT3
000071: 21,3304           31435                           CA       EDOTR
000072: 21,3305           13314                           TCF      GTSQAXIS
000073:
000074: 21,3306           34755        GOQTRIMG           CAF      ZERO                                  #  SET INDEXER FOR Q-AXIS CALCULATIONS
000075: 21,3307           55746                           TS       QRCNTR


000077: 21,3310           31537                           CA       AOSQ
000078: 21,3311           00006                           EXTEND
000079: 21,3312           74751                           MP       BIT3
000080: 21,3313           31434                           CA       EDOTQ
000081: 21,3314           53744        GTSQAXIS           DXCH     WCENTRAL
000082: 21,3315           00006                           EXTEND
000083: 21,3316           51746                           INDEX    QRCNTR                                #  PICK UP K AND K(2) FOR THIS AXIS
000084: 21,3317           31504                           DCA      KQ
000085: 21,3320           53742                           DXCH     KCENTRAL
000086:
000087: 21,3321           51746                           INDEX    QRCNTR                                #  QDIFF, RDIFF ARE STORED IN D.P.
000088: 21,3322           31446                           CAE      QDIFF
000089:
000090: 21,3323           00006        ALGORTHM           EXTEND                                         #  Q(R)DIFF IS THETA (ERROR) SCALED AT PI.
000091: 21,3324           71742                           MP       K2CNTRAL                              #  FORM K(2)*THETA IN D.P.
000092: 21,3325           23735                           LXCH     K2THETA
000093: 21,3326           00006                           EXTEND                                         #  FORM K(2)*THETA*SF2 IN D.P.
000094: 21,3327           74743                           MP       BIT9
000095: 21,3330           53736                           DXCH     K2THETA
000096: 21,3331           00006                           EXTEND
000097: 21,3332           74743                           MP       BIT9
000098: 21,3333           27736                           ADS      K2THETA    +1
000099:
000100: 21,3334           31743                           CAE      WCENTRAL                              #  GET OMEGA
000101: 21,3335           00006                           EXTEND
000102: 21,3336           71741                           MP       KCENTRAL                              #  FORM K*OMEGA IN D.P.
000103: 21,3337           23741                           LXCH     OMEGA.K
000104: 21,3340           00006                           EXTEND                                         #  FORM OMEGA*K*SF1 IN D.P.
000105: 21,3341           74740                           MP       BIT12
000106: 21,3342           53742                           DXCH     OMEGA.K
000107: 21,3343           00006                           EXTEND
000108: 21,3344           74740                           MP       BIT12
000109: 21,3345           27742                           ADS      OMEGA.K    +1
000110:
000111: 21,3346           31744                           CAE      ACENTRAL                              #  FORM ALPHA(2)/2 IN D.P.
000112: 21,3347           00006                           EXTEND
000113: 21,3350           70000                           SQUARE
000114: 21,3351           53740                           DXCH     A2CNTRAL
000115:
000116: 21,3352           31744                           CAE      ACENTRAL                              #  GET ALPHA*ABS(ALPHA)/2, IF ALPHA GREATER
000117:                                                                                                  #  THAN 0. OTHERWISE TAKE NEGATIVE OF ABOVE
000118: 21,3353           00006                           EXTEND
000119: 21,3354           63360                           BZMF     +4
000120: 21,3355           00006                           EXTEND
000121: 21,3356           31740                           DCA      A2CNTRAL
000122: 21,3357           13362                           TCF      +3
000123: 21,3360           00006                           EXTEND
000124: 21,3361           41740                           DCS      A2CNTRAL
000125: 21,3362           53750                           DXCH     FUNCTION                              #  SAVE AS SGN(ALPHA)*ALPHA(2)/2


000127: 21,3363           00006                           EXTEND
000128: 21,3364           31742                           DCA      OMEGA.K
000129: 21,3365           21750                           DAS      FUNCTION                              #  FORM FUNCT1
000130:
000131: 21,3366           11747                           CCS      FUNCTION                              #  DEL = +1 FOR FUNCT1 GREATER THAN ZERO.
000132: 21,3367           13373                           TCF      POSFNCT1                              #  OTHERWISE DEL = -1
000133: 21,3370           13372                           TCF      +2
000134: 21,3371           13375                           TCF      NEGFNCT1
000135:
000136: 21,3372           11750                           CCS      FUNCTION   +1                         #  USE LOW ORDER WORD SINCE HIGH IS ZERO
000137: 21,3373           34753        POSFNCT1           CAF      BIT1
000138: 21,3374           13376                           TCF      +2
000139: 21,3375           44753        NEGFNCT1           CS       BIT1
000140: 21,3376           55745                           TS       DEL
000141:
000142: 21,3377           11745                           CCS      DEL                                   #  MAKE OMEGA*K REALLY DEL*OMEGA*K
000143: 21,3400           13405                           TCF      FUNCT2                                #  (NOTHING NEED BE DONE)
000144: 21,3401           13405                           TCF      FUNCT2
000145: 21,3402           00006                           EXTEND
000146: 21,3403           41742                           DCS      OMEGA.K
000147: 21,3404           53742                           DXCH     OMEGA.K                               #  CHANGE SIGN OF OMEGA*K
000148:
000149: 21,3405           00006        FUNCT2             EXTEND
000150: 21,3406           31742                           DCA      OMEGA.K
000151: 21,3407           53750                           DXCH     FUNCTION                              #  DEL*OMEGA*K
000152: 21,3410           00006                           EXTEND
000153: 21,3411           31740                           DCA      A2CNTRAL
000154: 21,3412           21750                           DAS      FUNCTION                              #  DEL*OMEGA*K + ALPHA(2)/2
000155: 21,3413           31737        FUNCT3             CAE      A2CNTRAL                              #  CALCULATE (2/3)*ALPHA(2)/2 = ALPHA(2)/3
000156: 21,3414           00006                           EXTEND
000157: 21,3415           73446                           MP       .66667
000158: 21,3416           53740                           DXCH     A2CNTRAL
000159: 21,3417           56001                           XCH      L
000160: 21,3420           00006                           EXTEND
000161: 21,3421           73446                           MP       .66667
000162: 21,3422           27740                           ADS      A2CNTRAL   +1
000163: 21,3423           54001                           TS       L
000164: 21,3424           13426                           TCF      +2
000165: 21,3425           27737                           ADS      A2CNTRAL
000166: 21,3426           53742                           DXCH     OMEGA.K                               #  DEL*OMEGA*K + ALPHA(2)/3 = G
000167: 21,3427           21740                           DAS      A2CNTRAL
000168: 21,3430           31737                           CAE      A2CNTRAL                              #  G*ALPHA IN D.P.
000169: 21,3431           00006                           EXTEND
000170: 21,3432           71744                           MP       ACENTRAL
000171: 21,3433           53740                           DXCH     A2CNTRAL
000172: 21,3434           56001                           XCH      L
000173: 21,3435           00006                           EXTEND
000174: 21,3436           71744                           MP       ACENTRAL
000175: 21,3437           27740                           ADS      A2CNTRAL   +1
000176: 21,3440           54001                           TS       L


000178: 21,3441           13443                           TCF      +2
000179: 21,3442           27737                           ADS      A2CNTRAL
000180:
000181: 21,3443           53740                           DXCH     A2CNTRAL                              #  FIRST AND THIRD TERMS
000182: 21,3444           21736                           DAS      K2THETA                               #  SUMMED IN D.P.
000183:
000184: 21,3445           13561                           TCF      RSTOFGTS
000185:
000186: 21,3446           25253        .66667             DEC      .66667
000187:
000188: 16,3720                                           BANK     16
000189: 16,3720  E6,1500                                  EBANK=   NEGUQ
000190: 16,2000                                           SETLOC   DAPS1
000191: 16,2000                                           BANK
000192:
000193:                                                                                                  #  THE WRCHN12 SUBROUTINE SETS BITS 9,10,11,12 OF CHANNEL 12 ON THE BASIS OF THE CONTENTS OF NEGUQ,NEGUR WHICH ARE
000194:                                                                                                  #  THE NEGATIVES OF THE DESIRED ACCELERATION CHANGES.  ACDT+C12 SETS Q(R)ACCDOT TO REFLECT THE NEW DRIVES.
000195:
000196:                                                                                                  #  WARNING:  ACDT+C12 AND WRCHN12 MUST BE CALLED WITH INTERRUPT INHIBITED.
000197:
000198: 16,3720           07400        BGIM               OCTAL    07400
000199: 16,3721     0066               CHNL12             EQUALS   ITEMP6
000200: 16,3721           41500        ACDT+C12           CS       NEGUQ
000201: 16,3722           00006                           EXTEND                                         #  GIMBAL DRIVE REQUESTS.
000202: 16,3723           71507                           MP       ACCDOTQ
000203: 16,3724           23510                           LXCH     QACCDOT
000204: 16,3725           41502                           CS       NEGUR
000205: 16,3726           00006                           EXTEND
000206: 16,3727           71511                           MP       ACCDOTR
000207: 16,3730           23512                           LXCH     RACCDOT
000208:
000209: 16,3731           11500                           CCS      NEGUQ
000210: 16,3732           34742                           CAF      BIT10
000211: 16,3733           13735                           TCF      +2
000212: 16,3734           34743                           CAF      BIT9
000213: 16,3735           54066                           TS       CHNL12
000214:
000215: 16,3736           11502                           CCS      NEGUR
000216: 16,3737           34740                           CAF      BIT12
000217: 16,3740           13742                           TCF      +2
000218: 16,3741           34741                           CAF      BIT11
000219: 16,3742           26066                           ADS      CHNL12                                #  (STORED RESULT NOT USED AT PRESENT)
000220:
000221: 16,3743           43720                           CS       BGIM
000222: 16,3744           00006                           EXTEND
000223: 16,3745           02012                           RAND     CHAN12
000224: 16,3746           60066                           AD       CHNL12
000225: 16,3747           00006                           EXTEND
000226: 16,3750           01012                           WRITE    CHAN12


000228: 16,3751           44747                           CS       CALLGMBL                              #  TURN OFF REQUEST FOR ACDT+C12 EXECUTION.
000229: 16,3752           71273                           MASK     RCSFLAGS
000230: 16,3753           55273                           TS       RCSFLAGS
000231:
000232: 16,3754           00002                           TC       Q                                     #  RETURN TO CALLER.
000233:
000234: 21,3447                                           BANK     21
000235: 21,3447  E6,1446                                  EBANK=   QDIFF
000236: 21,2000                                           SETLOC   DAPS4
000237: 21,2000                                           BANK
000238:


000240:                                                                                                  #  SUBROUTINE TIMEGMBL:  MOD 0, OCTOBER 1967, CRAIG WORK
000241:
000242:                                                                                                  #  TIMEGMBL COMPUTES THE DRIVE TIME NEEDED FOR THE TRIM GIMBAL TO POSITION THE DESCENT ENGINE NOZZLE SO AS TO NULL
000243:                                                                                                  #  THE OFFSET ANGULAR ACCELERATION ABOUT THE Q (OR R) AXIS.  INSTEAD OF USING AOSQ(R), TIMEGMBL USES .4*AOSQ(R),
000244:                                                                                                  #  SCALED AT PI/8.                         FOR EACH AXIS, THE DRIVE TIME IS COMPUTED AS ABS(ALPHA/ACCDOT).  A ZERO
000245:                                                                                                  #  ALPHA OR ACCDOT OR A ZERO QUOTIENT TURNS OFF THE GIMBAL DRIVE IMMEDIATELY.  OTHERWISE, THE GIMBAL IS TURNED ON
000246:                                                                                                  #  DRIVING IN THE CORRECT DIRECTION. THE Q(R)GIMTIMR IS SET TO TERMINATE THE DRIVE AND Q(R)ACCDOT
000247:                                                                                                  #  IS STORED TO REFLECT THE NEW ACCELERATION DERIVATIVE.  NEGUQ(R) WILL CONTAIN +1,+0,-1 FOR A Q(R)ACCDOT VALUE
000248:                                                                                                  #  WHICH IS NEGATIVE, ZERO, OR POSITIVE.
000249:
000250:                                                                                                  #  INPUTS:       AOSQ,AOSR, SCALED AT P1/2, AND ACCDOTQ, ACCDOTR AT PI/2(7).     PI/2(7).
000251:
000252:                                                                                                  #  OUTPUTS:      NEW GIMBAL DRIVE BITS IN CHANNEL 12,NEGUQ,NEGUR,QACCDOT AND RACCDOT, THE LAST SCALED AT PI/2(7).
000253:                                                                                                  #                Q(R)GIMTIMR WILL BE SET TO TIME AND TERMINATE GIMBAL DRIVE(S)
000254:
000255:                                                                                                  #  DEBRIS:       A,L,Q, ITEMPS 2,3,6, RUPTREG2 AND ACDT+C12 DEBRIS.
000256:
000257:                                                                                                  #  EXITS:        VIA TC Q.
000258:
000259:                                                                                                  #  ALARMS, ABORTS, :  NONE
000260:
000261:                                                                                                  #  SUBROUTINES:  ACDT+C12, IBNKCALL
000262:
000263:                                                                                                  #  WARNING:      THIS SUBROUTINE WRITES INTO CHANNEL 12 AND USES THE ITEMPS.  THEREFORE IT MAY ONLY BE CALLED WITH
000264:                                                                                                  #  INTERRUPT INHIBITED.
000265:
000266:                                                                                                  #  ERASABLE STORAGE CONFIGURATION (NEEDED BY THE INDEXING METHODS):
000267:                                                                                                  #        NEGUQ           ERASE   +2              NEGATIVE OF Q-AXIS GIMBAL DRIVE
000268:                                                                                                  #        (SPWORD)        EQUALS  NEGUQ +1        ANY S.P. ERASABLE NUMBER, NOW THRSTCMD
000269:                                                                                                  #        NEGUR           EQUALS  NEGUQ +2        NEGATIVE OF R-AXIS GIMBAL DRIVE
000270:
000271:                                                                                                  #        ACCDOTQ         ERASE   +2              Q-JERK TERM SCALED AT PI/2(7) RAD/SEC(3)
000272:                                                                                                  #        (SPWORD)        EQUALS  ACCDOTQ +1      ANY S.P. ERASABLE NUMBER NOW QACCDOT
000273:                                                                                                  #        ACCDOTR         EQUALS  ACCDOTQ +2      R-JERK TERM SCALED AT PI/2(7) RAD/SEC(3)
000274:                                                                                                  #                                                ACCDOTQ, ACCDOTR ARE MAGNITUDES.
000275:                                                                                                  #        AOSQ            ERASE   +4              Q-AXIS ACC., D.P. AT PI/2 R/SEC(2)
000276:                                                                                                  #        AOSR            EQUALS  AOSQ +2         R-AXIS ACCELERATION SCALED AT PI/2 R/S2
000277:
000278: 21,3447     0066               QRNDXER            EQUALS   ITEMP6
000279: 21,3447           23146        OCT23146           OCTAL    23146                                 #  DECIMAL .6
000280: 21,3450     0063               NZACCDOT           EQUALS   ITEMP3
000281:
000282: 21,3450           34753        TIMEGMBL           CAF      ONE                                   #  INITIALIZE ALLOWGTS.
000283: 21,3451           55501                           TS       ALLOWGTS
000284:
000285: 21,3452           34752                           CAF      TWO                                   #  SET UP LOOP FOR R AXIS.
000286: 21,3453           22002                           LXCH     Q                                     #  SAVE RETURN ADDRESS.
000287: 21,3454           22071                           LXCH     RUPTREG2


000289: 21,3455           13457                           TCF      +2
000290: 21,3456           34755        TIMQGMBL           CAF      ZERO                                  #  NOW DO THE Q-AXIS
000291: 21,3457           54066                           TS       QRNDXER
000292: 21,3460           50066                           INDEX    QRNDXER
000293: 21,3461           31507                           CA       ACCDOTQ                               #  ACCDOT IS PRESUMED TO BE AT PI/2(7).
000294: 21,3462           00006                           EXTEND
000295: 21,3463           63533                           BZMF     TGOFFNOW                              #  IS ACCDOT LESS THAN OR EQUAL TO 0?
000296: 21,3464           54063                           TS       NZACCDOT                              #  NO.  STORE NON-ZERO, POSITIVE ACCDOT.
000297:
000298: 21,3465           50066        ALPHATRY           INDEX    QRNDXER
000299: 21,3466           41537                           CS       AOSQ
000300: 21,3467           00006                           EXTEND
000301: 21,3470           13533                           BZF      TGOFFNOW                              #  IS ALPHA ZERO?
000302:
000303: 21,3471           54002                           TS       Q                                     #  SAVE A COPY OF -AOS.
000304: 21,3472           00006                           EXTEND                                         #  NO.  RESCALE FOR TIMEGMBL USE.
000305: 21,3473           73447                           MP       OCT23146                              #  OCTAL 23146 IS DECIMAL .6
000306: 21,3474           60002                           AD       Q                                     #  -1.6*AOS AT PI/2 = -.4*AOS AT PI/8.
000307: 21,3475           54001                           TS       L                                     #  WAS THERE OVERFLOW?
000308: 21,3476           13503                           TCF      SETNEGU                               #  NO.  COMPUTE DRIVE TIME.
000309:
000310: 21,3477           40000                           CS       A                                     #  RECOVER  -SGN(AOS) IN THE A REGISTER.
000311: 21,3500           50066                           INDEX    QRNDXER                               #  YES.  START DRIVE WITHOUT WAITLIST.
000312: 21,3501           57500                           XCH      NEGUQ
000313: 21,3502           13537                           TCF      NOTALLOW                              #  KNOCK DOWN THE ALLOWGTS FLAG.
000314:
000315: 21,3503           00006        SETNEGU            EXTEND
000316: 21,3504           63511                           BZMF     POSALPH
000317:
000318: 21,3505           40000                           COM
000319: 21,3506           54062                           TS       ITEMP2                                #  STORE -ABS(.4*AOS) SCALED AT PI/8.
000320: 21,3507           44753                           CS       BIT1
000321: 21,3510           13513                           TCF      POSALPH    +2
000322: 21,3511           54062        POSALPH            TS       ITEMP2                                #  STORE -ABS(.4*AOS) SCALED AT PI/8.
000323: 21,3512           34753                           CA       BIT1
000324: 21,3513           50066                 +2        INDEX    QRNDXER                               #  SGN(AOS) INTO NEGU
000325: 21,3514           55500                           TS       NEGUQ                                 #  STORE SGN(APLHA) AS NEGU
000326:
000327: 21,3515           30063                           CA       NZACCDOT
000328: 21,3516           00006                           EXTEND
000329: 21,3517           74740                           MP       BIT12                                 #  2*ACCDOT, SCALED AT PI/8.
000330: 21,3520           60062                           AD       ITEMP2                                #  -ABS(ALPHA) + 2*ACCDOT, AT PI/8.
000331: 21,3521           00006                           EXTEND
000332: 21,3522           63537                           BZMF     NOTALLOW                              #  IS DRIVE TIME MORE THAN TWO SECONDS?
000333: 21,3523           40062                           CS       ITEMP2                                #  NO.  COMPUTE DRIVE TIME.
000334: 21,3524           00006                           EXTEND                                         #  ABS(ALPHA) AT PI/8.
000335: 21,3525           73560                           MP       OCT00240                              #  DECIMAL 10/1024
000336: 21,3526           00006                           EXTEND                                         #  QUOTIENT IS DRIVE TIME AT WAITLIST.
000337: 21,3527           10063                           DV       NZACCDOT                              #  ABS(ALPHA)/ACCDOT AT 2(14)/100


000339: 21,3530           00006                           EXTEND
000340: 21,3531           13533                           BZF      TGOFFNOW                              #  DRIVE TIME MUST BE GREATER THAN ZERO.
000341:
000342: 21,3532           13545                           TCF      DRIVEON
000343:
000344: 21,3533           34755        TGOFFNOW           CAF      ZERO                                  #  TURN OFF GIMBAL NOW.
000345: 21,3534           50066                           INDEX    QRNDXER
000346: 21,3535           55500                           TS       NEGUQ
000347:
000348: 21,3536           13547                           TCF      DONEYET
000349:
000350: 21,3537           36010        NOTALLOW           CAF      OCT31
000351: 21,3540           50066                           INDEX    QRNDXER
000352: 21,3541           55630                           TS       QGIMTIMR
000353: 21,3542           34755                           CAF      ZERO                                  #  DRIVE TIME IS MORE THAN 2 SECONDS, SO
000354: 21,3543           55501                           TS       ALLOWGTS                              #  DO NOT PERMIT FURTHER GTS ATTITUDE-RATE
000355:                                                                                                  #  CONTROL UNTIL AOSTASK APPROVES.
000356: 21,3544           13547                           TCF      DONEYET                               #  NO WAITLIST CALL IS MADE.
000357:
000358: 21,3545           50066        DRIVEON            INDEX    QRNDXER
000359: 21,3546           55630                           TS       QGIMTIMR                              #  CHOOSE Q OR R AXIS.
000360:
000361: 21,3547           10066        DONEYET            CCS      QRNDXER
000362: 21,3550           13456                           TCF      TIMQGMBL
000363:
000364: 21,3551           52073                           DXCH     RUPTREG3                              #  PROTECT IBNKCALL ERASABLES.  ACDT+C12
000365: 21,3552           52063                           DXCH     ITEMP2                                #  LEAVES ITEMPS2,3 ALONE.
000366:
000367: 21,3553           04674                           TC       IBNKCALL                              #  TURN OF CHANNEL BITS, SET Q(R)ACCDOTS.
000368: 21,3554           35721                           CADR     ACDT+C12
000369:
000370: 21,3555           52063                           DXCH     ITEMP2                                #  RESTORE ERASABLES FOR IBNKCALL.
000371: 21,3556           52073                           DXCH     RUPTREG3
000372:
000373: 21,3557           00071                           TC       RUPTREG2                              #  RETURN TO CALLER.
000374:
000375: 21,3560           00240        OCT00240           OCTAL    00240                                 #  DECIMAL 10/1024
000376:


000378:                                                                                                  #  THE FOLLOWING SECTION IS A CONTINUATION OF THE TRIM GIMBAL CONTROL FROM THE LAST GTS ENTRY.  THE QUANTITY NEGUSUM
000379:                                                                                                  #  IS COMPUTED FOR EACH AXIS (Q,R), .707*DEL*FUNCTION(3/2) + K2THETA = NEGUSUM.  NEW DRIVES ARE ENTERED TO CH 12.
000380:
000381: 21,3561           11747        RSTOFGTS           CCS      FUNCTION
000382: 21,3562           13603                           TCF      GOODARG                               #  FUNCTION IS POSITIVE.  GET 3/2 POWER.
000383: 21,3563           13565                           TCF      +2                                    #  HIGH ORDER WORD IS ZERO.  TRY THE LOWER.
000384: 21,3564           13571                           TCF      ZEROOT                                #  NEGATIVE.  USE ZERO FOR 3/2 POWER.
000385:
000386: 21,3565           41750                           CS       FUNCTION   +1                         #  IF ARG IS LESS THAN 2(-18), THEN THE 3/2
000387: 21,3566           64741                           AD       BIT11                                 #  POWER IS LESS THAN 2(-27).  USE ZERO.
000388: 21,3567           00006                           EXTEND
000389: 21,3570           63574                           BZMF     ZEROHIGH                              #  BRANCH IF ARG NOT LESS THAN 2(-18).
000390:
000391: 21,3571           00006        ZEROOT             EXTEND
000392: 21,3572           34756                           DCA      ZERO
000393: 21,3573           13714                           TCF      NEGUSUM
000394:
000395: 21,3574           34317        ZEROHIGH           CA       FOURTEEN                              #  ARG LESS THAN 2(-14) MEANS 3/2 POWER
000396:                                                                                                  #  WILL BE LESS THAN 2(-21).
000397: 21,3575           55737                           TS       SHFTFLAG
000398:
000399: 21,3576           34752                           CA       TWO
000400: 21,3577           55740                           TS       ININDEX                               #  INITIALIZE THE SHIFT LOOP.
000401:
000402:                                                                                                  #  COLLECT THE 14 MOST SIGNIFICANT BITS OF
000403: 21,3600           57750                           XCH      FUNCTION   +1                         #  THE 28 INTO THE HIGH ORDER WORD.
000404: 21,3601           57747                           XCH      FUNCTION
000405: 21,3602           13616                           TCF      SCALLOOP
000406: 21,3603           35742        GOODARG            CA       TWELVE
000407: 21,3604           55740                           TS       ININDEX                               #  INITIALIZE THE SHIFT LOOP.
000408: 21,3605           34755                           CA       ZERO                                  #  THERE ARE SIGNIFICANT BITS IN THE HIGH
000409: 21,3606           55737                           TS       SHFTFLAG                              #  ORDER WORD, SO SET SHFTFLAG TO ZERO.
000410:
000411: 21,3607           13616                           TCF      SCALLOOP
000412:
000413: 21,3610           31747        SCALSTRT           CA       FUNCTION
000414: 21,3611           13633                           TCF      SCALDONE
000415:
000416: 21,3612           37745        MULBUSH            CA       NEG2                                  #  IF ARG IS NOT LESS THAN 1/4, INDEX IS
000417: 21,3613           27740                           ADS      ININDEX                               #  ZERO, INDICATING NO SHIFT NEEDED.
000418: 21,3614           00006                           EXTEND                                         #  BRANCH IF ARG IS NOT LESS THAN 1/4.
000419: 21,3615           63610                           BZMF     SCALSTRT                              #  OTHERWISE COMPARE ARG WITH A REFERENCE
000420:                                                                                                  #  WHICH IS 4 TIMES LARGER THAN THE LAST.
000421: 21,3616           41747        SCALLOOP           CS       FUNCTION
000422: 21,3617           51740                           INDEX    ININDEX
000423: 21,3620           64735                           AD       BIT15                                 #  REFERENCE MAGNITUDE LESS OR EQUAL TO 1/4
000424: 21,3621           00006                           EXTEND
000425: 21,3622           63612                           BZMF     MULBUSH                               #  IF ARG IS NOT LESS THAN REFERENCE, GO
000426:                                                                                                  #  AROUND THE MULBERRY BUSH ONCE MORE.
000427: 21,3623           51740                           INDEX    ININDEX


000429: 21,3624           34735                           CA       BIT15                                 #  THIS IS THE SCALE MAGNITUDE
000430: 21,3625           56002                           XCH      Q                                     #  2**(-ININDEX) IS THE SHIFT DIVISOR.
000431: 21,3626           00006                           EXTEND                                         #  RESCALE ARGUMENT.
000432: 21,3627           31750                           DCA      FUNCTION
000433: 21,3630           00006                           EXTEND
000434: 21,3631           10002                           DV       Q
000435: 21,3632           55747                           TS       FUNCTION                              #  ININDEX AND SHFTFLAG PRESERVE INFO FOR
000436:                                                                                                  #  RESCALING AFTER ROOT PROCESS.
000437: 21,3633           00006        SCALDONE           EXTEND                                         #  AFTER 3/2 POWER IS TAKEN, SCALE FACTOR
000438: 21,3634           74737                           MP       BIT13                                 #  OF SQRT(1/2) WILL BE NEEDED, SO FACTOR
000439: 21,3635           55743                           TS       HALFARG                               #  OF 1/2 IS INCLUDED NOW, BEFORE SQRT.
000440:
000441: 21,3636           33761                           CA       STARTER                               #  INITIAL GUESS FOR SQRT ALGORITHM.
000442: 21,3637           03763                           TC       ROOTCYCL
000443: 21,3640           03763                           TC       ROOTCYCL
000444: 21,3641           03763                           TC       ROOTCYCL
000445:
000446: 21,3642           00006                           EXTEND                                         #  SQRT(1/2)*SQRT(ARG) IN A.
000447: 21,3643           71747                           MP       FUNCTION                              #  SQRT(1/2)*ARG*SQRT(ARG) IN A,L.
000448: 21,3644           53750                           DXCH     FUNCTION
000449:
000450: 21,3645           31737        DOSHIFT            CA       SHFTFLAG                              #  HOW MANY SHIFT BITS ARE THERE?
000451: 21,3646           61740                           AD       ININDEX                               #  2**(-ININDEX) WAS SHIFT DIVISOR.
000452: 21,3647           54021                           TS       SR
000453: 21,3650           60021                           AD       SR                                    #  THIS MANY SHIFTS ARE REQUIRED.
000454: 21,3651           54002        SAVESHFT           TS       Q                                     #  Q BOUNDS ARE ZERO AND 24 (DECIMAL).
000455: 21,3652           00006                           EXTEND
000456: 21,3653           63701                           BZMF     SUMNEGU                               #  BRANCH IF SHIFTING IS UNNECESSARY.
000457:
000458: 21,3654           44317                           CS       FOURTEEN
000459: 21,3655           60002                           AD       Q
000460: 21,3656           00006                           EXTEND                                         #  Q = 0(MOD 3), SO A REG IS NON-ZERO.
000461: 21,3657           63664                           BZMF     MINISHIFT                             #  BRANCH IF SMALL SHIFT SUFFICES.
000462:
000463: 21,3660           54002        MAXISHIFT           TS       Q                                     #  14 BIT SHIFT RIGHT NOW.
000464: 21,3661           34755                           CA       ZERO
000465: 21,3662           57747                           XCH      FUNCTION
000466: 21,3663           55750                           TS       FUNCTION   +1
000467:
000468: 21,3664           50002        MINISHIFT           INDEX    Q                                     #  C(Q) ARE GREATER THAN ZERO.
000469: 21,3665           34735                           CA       BIT15
000470: 21,3666           54002                           TS       Q                                     #  2**(-Q) WILL BE SHIFT MULTIPLIER.
000471: 21,3667           00006                           EXTEND
000472: 21,3670           71750                           MP       FUNCTION   +1
000473: 21,3671           56001                           XCH      L
000474: 21,3672           34755                           CA       ZERO
000475: 21,3673           53750                           DXCH     FUNCTION                              #  LOWER WORD SHIFTED NOW.
000476: 21,3674           00006                           EXTEND
000477: 21,3675           63701                           BZMF     SUMNEGU                               #  BRANCH IF UPPER WORD WAS ZERO.


000479: 21,3676           00006                           EXTEND                                         #  SHIFT UPPER WORD.
000480: 21,3677           70002                           MP       Q
000481: 21,3700           21750                           DAS      FUNCTION                              #  NO OVERFLOW POSSIBLE.
000482:
000483: 21,3701           41745        SUMNEGU            CS       DEL                                   #  INCLUDE DEL FACTOR IN PRODUCT TERM.
000484: 21,3702           00006                           EXTEND
000485: 21,3703           63707                           BZMF     SUMTERMS
000486:
000487: 21,3704           00006                           EXTEND                                         #  DEL FACTOR IS MINUS ONE.
000488: 21,3705           41750                           DCS      FUNCTION
000489: 21,3706           13713                           TCF      NEGUSUM    -1                         #  NOW ADD IN THE K2THETA TERM.
000490:
000491: 21,3707           00006        SUMTERMS           EXTEND
000492: 21,3710           13714                           BZF      NEGUSUM                               #  BRANCH IF DEL IS ZERO.
000493:
000494: 21,3711           00006                           EXTEND                                         #  DEL FACTOR IS +1.
000495: 21,3712           31750                           DCA      FUNCTION
000496: 21,3713           21736                           DAS      K2THETA                               #  NOW ADD IN THE K2THETA TERM.
000497: 21,3714           11735        NEGUSUM            CCS      K2THETA                               #  TEST SIGN OF HIGH ORDER PART.
000498: 21,3715           13721                           TCF      NEGDRIVE
000499: 21,3716           13720                           TCF      +2
000500: 21,3717           13723                           TCF      POSDRIVE
000501:
000502: 21,3720           11736                           CCS      K2THETA    +1                         #  SIGN TEST FOR LOW ORDER PART.
000503: 21,3721           34753        NEGDRIVE           CA       BIT1
000504: 21,3722           13724                           TCF      +2                                    #  STOP GIMBAL DRIVE FOR A ZERO NEGUSUM.
000505: 21,3723           44753        POSDRIVE           CS       BIT1
000506: 21,3724           54001                           TS       L                                     #  SAVE FOR DRIVE REVERSAL TEST.
000507: 21,3725           51746                           INDEX    QRCNTR
000508: 21,3726           57500                           XCH      NEGUQ
000509:
000510: 21,3727           00006                           EXTEND
000511: 21,3730           70001                           MP       L                                     #  MULTIPLY OLD NEGU AND NEW NEGU.
000512: 21,3731           10001                           CCS      L
000513: 21,3732           13747                           TCF      LOUPE                                 #  NON-ZERO GIMBAL DRIVE BEING CONTINUED.
000514:
000515: 21,3733           13744                           TCF      ZEROLOUP                              #  NO REVERSAL PROBLEM HERE.
000516:
000517: 21,3734           13736                           TCF      REVERSAL                              #  NON-ZERO GIMBAL DRIVE BEING REVERSED.
000518: 21,3735           13744                           TCF      ZEROLOUP                              #  NO REVERSAL PROBLEM HERE.
000519:
000520: 21,3736           51746        REVERSAL           INDEX    QRCNTR                                #  A ZERO-DRIVE PAUSE IS NEEDED HERE.  ZERO
000521: 21,3737           55510                           TS       QACCDOT                               #  IS IN A REGISTER FROM CCS ON (-1).
000522: 21,3740           51746                           INDEX    QRCNTR
000523: 21,3741           43760                           CS       GMBLBITA
000524: 21,3742           00006                           EXTEND
000525: 21,3743           03012                           WAND     CHAN12
000526:
000527: 21,3744           41273        ZEROLOUP           CS       RCSFLAGS                              #  SET UP REQUEST FOR ACDT+C12 CALL.
000528: 21,3745           74747                           MASK     CALLGMBL


000530: 21,3746           27273                           ADS      RCSFLAGS
000531:
000532: 21,3747           11746        LOUPE              CCS      QRCNTR                                #  HAVE BOTH AXES BEEN PROCESSED?
000533: 21,3750           13306                           TCF      GOQTRIMG                              #  NO.  DO Q AXIS NEXT.
000534:
000535: 21,3751           31476                           CA       SAVESR                                #  RESTORE THE SR
000536: 21,3752           54021                           TS       SR
000537:
000538: 21,3753           00006        GOCLOSE            EXTEND                                         #  TERMINATE THE JASK.
000539: 21,3754           33757                           DCA      CLOSEADR
000540: 21,3755           52006                           DTCB
000541:
000542: 21,3756  E6,1537                                  EBANK=   AOSQ
000543: 21,3756           03173 36106  CLOSEADR           2CADR    CLOSEOUT                              #  TERMINATE THE JASK.
000544:
000545: 21,3760     5742               TWELVE             EQUALS   OCT14
000546: 21,3760           01400        GMBLBITA           OCTAL    01400                                 #  INDEXED WRT GMBLBITB   DO NOT MOVE ******
000547: 21,3761           20761        STARTER            DEC      .53033                                #  INITIAL VALUE FOR SQRT ALGORITHM.
000548: 21,3762           06000        GMBLBITB           OCTAL    06000                                 #  INDEXED WRT GMBLBITA   DO NOT MOVE ******
000549:
000550:                                                                                                  #  SUBROUTINE ROOTCYCL:  BY CRAIG WORK,3 APRIL 68
000551:
000552:                                                                                                  #  ROOTCYCL IS A SUBROUTINE WHICH EXECUTES ONE NEWTON SQUARE ROOT ALGORITHM ITERATION.  THE INITIAL GUESS AT THE
000553:                                                                                                  #  SQUARE ROOT IS PRESUMED TO BE IN THE A REGISTER AND ONE-HALF THE SQUARE IS TAKEN FROM HALFARG.  THE NEW APPROXI-
000554:                                                                                                  #  MATION TO THE SQUARE ROOT IS RETURNED IN THE A REGISTER.  DEBRIS:  A,L,SR,SCRATCH.   ROOTCYCL IS CALLED FROM
000555:                                                                                                  #  LOCATION (LOC) BY A TC ROOTCYCL, AND RETURNS (TC Q) TO LOC +1.
000556:
000557:                                                                                                  #  WARNING:  IF THE INITIAL GUESS IS NOT GREATER THAN THE SQUARE, DIVIDE OR ADD OVERFLOW IS A REAL POSSIBILITY.
000558:
000559: 21,3763           55742        ROOTCYCL           TS       SCRATCH                               #  STORE X
000560: 21,3764           54021                           TS       SR                                    #  X/2 NOW IN SR
000561: 21,3765           31743                           CA       HALFARG                               #  ARG/2 IN THE A REG
000562: 21,3766           22007                           ZL                                             #  PREPARE FOR DIVISION
000563: 21,3767           00006                           EXTEND
000564: 21,3770           11742                           DV       SCRATCH                               #  (ARG/X)/2
000565: 21,3771           60021                           AD       SR                                    #  (X + ARG/X)/2 IN THE A REG
000566: 21,3772           00002                           TC       Q
000567:
000568:

End of include-file TRIM_GIMBAL_CONTROL_SYSTEM.agc.  Parent file is MAIN.agc


