
Source Code


000002:                                                                                                  ## Copyright:   Public domain.
000003:                                                                                                  ## Filename:    WAITLIST.agc
000004:                                                                                                  ## Purpose:     The main source file for Luminary revision 069.
000005:                                                                                                  ##              It is part of the source code for the original release
000006:                                                                                                  ##              of the flight software for the Lunar Module's (LM) Apollo
000007:                                                                                                  ##              Guidance Computer (AGC) for Apollo 10. The actual flown
000008:                                                                                                  ##              version was Luminary 69 revision 2, which included a
000009:                                                                                                  ##              newer lunar gravity model and only affected module 2.
000010:                                                                                                  ##              This file is intended to be a faithful transcription, except
000011:                                                                                                  ##              that the code format has been changed to conform to the
000012:                                                                                                  ##              requirements of the yaYUL assembler rather than the
000013:                                                                                                  ##              original YUL assembler.
000014:                                                                                                  ## Reference:   pp. 1112-1127
000015:                                                                                                  ## Assembler:   yaYUL
000016:                                                                                                  ## Contact:     Ron Burkey <info@sandroid.org>.
000017:                                                                                                  ## Website:     www.ibiblio.org/apollo/index.html
000018:                                                                                                  ## Mod history: 2016-12-13 MAS  Created from Luminary 99.
000019:                                                                                                  ##              2016-12-18 MAS  Updated from comment-proofed Luminary 99 version.
000020:                                                                                                  ##              2016-12-26 RRB  Updated for Luminary 69.
000021:                                                                                                  ##              2017-01-28 RSB  WTIH -> WITH.
000022:                                                                                                  ##              2017-01-28 RSB  Proofed comment text using octopus/prooferComments
000023:                                                                                                  ##                              and fixed errors found.
000024:                                                                                                  ##              2017-02-09 RSB  Comment-text fixes identified in proofing Artemis 72
000025:


000027:                                                                                                  #  PROGRAM DESCRIPTION                                                           DATE - 10 OCTOBER 1966
000028:                                                                                                  #  MOD NO - 2                                                                    LOG SECTION - WAITLIST
000029:                                                                                                  #  MOD BY - MILLER       (DTMAX INCREASED TO 162.5 SEC)                          ASSEMBLY SUNBURST REV 5
000030:                                                                                                  #  MOD 3 BY KERNAN       (INHINT INSERTED AT WAITLIST) 2/28/68 SKIPPER REV 4
000031:                                                                                                  #  MOD 4 BY KERNAN       (TWIDDLE IN 54) 3/28/68 SKIPPER REV 13.
000032:
000033:                                                                                                  #  FUNCTIONAL DESCRIPTION -
000034:                                                                                                  #        PART OF A SECTION OF PROGRAMS.- WAITLIST, TASKOVER, T3RUPT, USED TO CALL A PROGRAM, (CALLED A TASK),
000035:                                                                                                  #        WHICH IS TO BEGIN IN C(A) CENTISECONDS.  WAITLIST UPDATES TIME3, LST1 AND LST2.  THE MEANING OF THESE LISTS
000036:                                                                                                  #        FOLLOW.
000037:
000038:                                                                                                  #                C(TIME3) = 16384 -(T1-T) CENTISECONDS, (T=PRESENT TIME, T1-TIME FOR TASK1)
000039:
000040:                                                                                                  #                        C(LST1)    = -(T2-T1)+1
000041:                                                                                                  #                        C(LST1 +1) = -(T3-T2)+1
000042:                                                                                                  #                        C(LST1 +2) = -(T4-T3)+1
000043:                                                                                                  #                                   .
000044:                                                                                                  #                                   .
000045:                                                                                                  #                        C(LST1 +6) = -(T8-T7)+1
000046:                                                                                                  #                        C(LST1 +7) = -(T9-T8)+1
000047:
000048:                                                                                                  #                        C(LST2)    = 2CADR OF TASK1
000049:                                                                                                  #                        C(LST2 +2) = 2CADR OF TASK2
000050:                                                                                                  #                                   .
000051:                                                                                                  #                                   .
000052:                                                                                                  #                        C(LST2 +14)= 2CADR OF TASK8
000053:                                                                                                  #                        C(LST2 +16)= 2CADR OF TASK9
000054:
000055:                                                                                                  #  WARNINGS -
000056:                                                                                                  #        1)      1 <= C(A) <= 16250D (1 CENTISECOND TO 162.5 SEC)
000057:                                                                                                  #        2)      9 TASKS MAXIMUM
000058:                                                                                                  #        3)      TASKS CALLED UNDER INTERRUPT INHIBITED
000059:                                                                                                  #        4)      TASKS END BY TC TASKOVER
000060:
000061:                                                                                                  #  CALLING SEQUENCE -
000062:                                                                                                  #        L-1     CA      DELTAT  (TIME IN CENTISECONDS TO TASK START)
000063:                                                                                                  #        L       TC      WAITLIST
000064:                                                                                                  #        L+1     2CADR   DESIRED TASK
000065:                                                                                                  #        L+2     (MINOR OF 2CADR)
000066:                                                                                                  #        L+3     RELINT          (RETURNS HERE)
000067:
000068:                                                                                                  #  TWIDDLE -
000069:                                                                                                  #        TWIDDLE IS FOR USE WHEN THE TASK BEING SET UP IS IN THE SAME EBANK AND FBANK AS THE USER.  IN
000070:                                                                                                  #        SUCH CASES, IT IMPROVES UPON WAITLIST BY ELIMINATING THE NEED FOR THE BBCON HALF OF THE 2CADR,


000072:                                                                                                  #        SAVING A WORD.  TWIDDLE IS LIKE WAITLIST IN EVERY RESPECT EXCEPT CALLING SEQUENCE, TO WIT-
000073:                                                                                                  #                L-1     CA      DELTAT
000074:                                                                                                  #                L       TC      TWIDDLE
000075:                                                                                                  #                L+1     ADRES   DESIRED TASK
000076:                                                                                                  #                L+2     RELINT          (RETURNS HERE)
000077:
000078:                                                                                                  #  NORMAL EXIT MODES -
000079:                                                                                                  #        AT L+3 OF CALLING SEQUENCE
000080:
000081:                                                                                                  #  ALARM OR ABORT EXIT MODES -
000082:                                                                                                  #        TC      ABORT
000083:                                                                                                  #        OCT     1203    (WAITLIST OVERFLOW - TOO MANY TASKS)
000084:
000085:                                                                                                  #  ERASABLE INITIALIZATION REQUIRED -
000086:                                                                                                  #        ACCOMPLISHED BY FRESH START.--LST2, ..., LST2 +16 = ENDTASK
000087:                                                                                                  #                                      LST1, ..., LST1 +7  = NEG1/2
000088:
000089:                                                                                                  #  OUTPUT --
000090:                                                                                                  #        LST1 AND LST2 UPDATED WITH NEW TASK AND ASSOCIATED TIME.
000091:
000092:                                                                                                  #  DEBRIS -
000093:                                                                                                  #        CENTRALS - A,Q,L
000094:                                                                                                  #        OTHER    - WAITEXIT, WAITADR, WAITTEMP, WAITBANK
000095:
000096:                                                                                                  #  DETAILED ANALYSIS OF TIMING -
000097:                                                                                                  #        CONTROL WILL NOT BE RETURNED TO THE SPECIFIED ADDRESS (2CADR) IN EXACTLY DELTA T CENTISECONDS.
000098:                                                                                                  #        THE APPROXIMATE TIME MAY BE CALCULATED AS FOLLOWS
000099:                                                                                                  #                LET TO = THE TIME OF THE TC WAITLIST
000100:                                                                                                  #                LET TS = T0 +147U + COUNTER INCREMENTS (SET UP TIME)
000101:                                                                                                  #                LET X  = TS -(100TS)/100  (VARIANCE FROM COUNTERS)
000102:                                                                                                  #                LET Y  = LENGTH OF TIME OF INHIBIT INTERRUPT AFTER T3RUPT
000103:                                                                                                  #                LET Z  = LENGTH OF TIME TO PROCESS TASKS WHICH ARE DUE THIS T3RUPT BUT DISPATCHED EARLIER.
000104:                                                                                                  #                         (Z=0, USUALLY)
000105:                                                                                                  #                LET DELTD  = THE ACTUAL TIME TAKEN TO GIVE CONTROL TO 2CADR
000106:                                                                                                  #                THEN DELTD = TS+DELTA T -X +Y +Z +1.05MS* +COUNTERS*
000107:                                                                                                  #                *-THE TIME TAKEN BY WAITLIST ITSELF AND THE COUNTER TICKING DURING THIS WAITLIST TIME.
000108:                                                                                                  #        IN SHORT, THE ACTUAL TIME TO RETURN CONTROL TO A 2CADR IS AUGMENTED BY THE TIME TO SET UP THE TASK:S
000109:                                                                                                  #        INTERRUPT, ALL COUNTERS TICKING, THE T3RUPT PROCESSING TIME, THE WAITLIST PROCESSING TIME AND THE POSSIBILITY
000110:                                                                                                  #        OF OTHER TASKS INHIBITING THE INTERRUPT.
000111:
000112:    5173                                           BLOCK    02


000114:    5173  E3,1400                                  EBANK=   LST1                                  #  TASK LISTS IN SWITCHED E BANK.
000115:
000116:    5173                                           COUNT*   $$/WAIT
000117:    5173           00004        TWIDDLE            INHINT
000118:    5174           54001                           TS       L                                     #  SAVE DELAY TIME IN L
000119:    5175           34733                           CA       POSMAX
000120:    5176           26002                           ADS      Q                                     #  CREATING OVERFLOW AND Q-1 IN Q
000121:    5177           30006                           CA       BBANK
000122:    5200           00006                           EXTEND
000123:    5201           04007                           ROR      SUPERBNK
000124:    5202           56001                           XCH      L
000125:
000126:    5203           00004        WAITLIST           INHINT
000127:    5204           56002                           XCH      Q                                     #  SAVE DELTA T IN Q AND RETURN IN
000128:    5205           54061                           TS       WAITEXIT                              #  WAITEXIT.
000129:    5206           00006                           EXTEND
000130:    5207           50061                           INDEX    WAITEXIT                              #  IF TWIDDLING, THE TS SKIPS TO HERE
000131:    5210           30001                           DCA      0                                     #  PICK UP 2CADR OF TASK.
000132:    5211           54063                 -1        TS       WAITADR                               #  BBCON WILL REMAIN IN L
000133:    5212           35220        DLY2               CAF      WAITBB                                #  ENTRY FROM FIXDELAY AND VARDELAY.
000134:    5213           56006                           XCH      BBANK
000135:    5214           13226                           TCF      WAIT2
000136:
000137:                                                                                                  #  RETURN TO CALLER AFTER TASK INSERTION:
000138:
000139:    5215           52062        LVWTLIST           DXCH     WAITEXIT
000140:    5216           64752                           AD       TWO
000141:    5217           52006                           DTCB
000142:
000143:    5220  E3,1400                                  EBANK=   LST1
000144:    5220           02063        WAITBB             BBCON    WAIT2
000145:
000146:                                                                                                  #  RETURN TO CALLER +2 AFTER WAITING DT SPECIFIED AT CALLER +1.
000147:
000148:    5221           50002        FIXDELAY           INDEX    Q                                     #  BOTH ROUTINES MUST BE CALLED UNDER
000149:    5222           30000                           CAF      0                                     #  WAITLIST CONTROL AND TERMINATE THE TASK
000150:    5223           24002                           INCR     Q                                     #  IN WHICH THEY WERE CALLED.
000151:
000152:                                                                                                  #  RETURN TO CALLER +1 AFTER WAITING THE DT AS ARRIVING IN A.
000153:
000154:    5224           56002        VARDELAY           XCH      Q                                     #  DT TO Q.  TASK ADRES TO WAITADR.
000155:    5225           54063                           TS       WAITADR
000156:    5226           30006                           CA       BBANK                                 #  BBANK IS SAVED DURING DELAY.
000157:    5227           00006                           EXTEND
000158:    5230           04007                           ROR      SUPERBNK                              #  ADD SBANK TO BBCON.
000159:    5231           54001                           TS       L
000160:    5232           35235                           CAF      DELAYEX
000161:    5233           54061                           TS       WAITEXIT                              #  GO TO TASKOVER AFTER TASK ENTRY.
000162:    5234           15212                           TCF      DLY2
000163:


000165:    5235           15257        DELAYEX            TCF      TASKOVER   -2                         #  RETURNS TO TASKOVER
000166:


000168:                                                                                                  #  ENDTASK MUST BE ENTERED IN FIXED-FIXED SO IT IS DISTINGUISHABLE BY ITS ADRES ALONE.
000169:
000170:    5236  E3,1400                                  EBANK=   LST1
000171:    5236           72537 73714  ENDTASK            -2CADR   SVCT3
000172:
000173:    5240           10076        SVCT3              CCS      FLAGWRD2                              #  DRIFT FLAG
000174:    5241           15261                           TCF      TASKOVER
000175:    5242           15261                           TCF      TASKOVER
000176:    5243           15244                           TCF      +1
000177:
000178:    5244           11304        CKIMUSE            CCS      IMUCADR                               #  DON'T DO NBDONLY IF SOMEONE ELSE IS IN
000179:    5245           15256                           TCF      SVCT3X                                #  IMUSTALL.
000180:    5246           15251                           TCF      +3
000181:    5247           15256                           TCF      SVCT3X
000182:    5250           15256                           TCF      SVCT3X
000183:
000184:    5251           37722                 +3        CAF      PRIO35                                #  COMPENSATE FOR NBD COEFFICIENTS ONLY.
000185:    5252           05072                           TC       NOVAC                                 #        ENABLE EVERY 81.93 SECONDS
000186:    5253  E3,1460                                  EBANK=   NBDX
000187:    5253           03555 14063                     2CADR    NBDONLY
000188:
000189:    5255           15261                           TCF      TASKOVER
000190:
000191:    5256           05221        SVCT3X             TC       FIXDELAY                              #  DELAY MAX OF 2 TIMES FOR IMUZERO.
000192:    5257           00764                           DEC      500        B-14
000193:    5260           05240                           TC       SVCT3                                 #  CHECK DRIFT FLAG AGAIN.
000194:


000196:                                                                                                  #  BEGIN TASK INSERTION.
000197:
000198: 01,3226                                           BANK     01
000199: 01,3226                                           COUNT*   $$/WAIT
000200: 01,3226           54062        WAIT2              TS       WAITBANK                              #  BBANK OF CALLING PROGRAM.
000201: 01,3227           30002                           CA       Q
000202: 01,3230           00006                           EXTEND
000203: 01,3231           63520                           BZMF     WAITPOOH
000204:
000205: 01,3232           40026                           CS       TIME3
000206: 01,3233           64744                           AD       BIT8                                  #  BIT 8 = OCT 200
000207: 01,3234           10000                           CCS      A                                     #  TEST 200 - C(TIME3).  IF POSITIVE,
000208:                                                                                                  #  IT MEANS THAT TIME3 OVERFLOW HAS OCCURRED PRIOR TO CS TIME3 AND THAT
000209:                                                                                                  #  C(TIME3) = T - T1, INSTEAD OF 1.0 - (T1 - T).  THE FOLLOWING FOUR
000210:                                                                                                  #  ORDERS SET C(A) = TD - T1 + 1 IN EITHER CASE.
000211:
000212: 01,3235           66106                           AD       OCT40001                              #  OVERFLOW HAS OCCURRED.  SET C(A) =
000213: 01,3236           40000                           CS       A                                     #  T - T1 + 1.0 - 201
000214:
000215:                                                                                                  #  NORMAL CASE (C(A) NNZ) YIELDS SAME C(A):  -( -(1.0-(T1-T)) + 200) - 1
000216:
000217: 01,3237           63365                           AD       OCT40201
000218: 01,3240           60002                           AD       Q                                     #  RESULT = TD - T1 + 1.
000219:
000220: 01,3241           10000                           CCS      A                                     #  TEST TD - T1 + 1
000221:
000222: 01,3242           61400                           AD       LST1                                  #  IF TD - T1 POS, GO TO WTLST5 WITH
000223: 01,3243           13305                           TCF      WTLST5                                #  C(A) = (TD - T1) + C(LST1) = TD-T2+1
000224:
000225: 01,3244           13245                           NOOP
000226: 01,3245           40002                           CS       Q
000227:
000228:                                                                                                  #  NOTE THAT THIS PROGRAM SECTION IS NEVER ENTERED WHEN T-T1 G/E -1,
000229:                                                                                                  #  SINCE TD-T1+1 = (TD-T) + (T-T1+1), AND DELTA T = TD-T G/E +1.  (G/E
000230:                                                                                                  #  SYMBOL MEANS GREATER THAN OR EQUAL TO).  THUS THERE NEED BE NO CON-
000231:                                                                                                  #  CERN OVER A PREVIOUS OR IMMINENT OVERFLOW OF TIME3 HERE.
000232:
000233: 01,3246           64736                           AD       POS1/2                                #  WHEN TD IS NEXT, FORM QUANTITY
000234: 01,3247           64736                           AD       POS1/2                                #        1.0 - DELTA T = 1.0 - (TD - T)
000235: 01,3250           56026                           XCH      TIME3
000236: 01,3251           64735                           AD       NEGMAX
000237: 01,3252           60002                           AD       Q                                     #  1.0 - DELTAT T NOW COMPLETE.
000238: 01,3253           00006                           EXTEND                                         #  ZERO INDEX Q.
000239: 01,3254           22007                           QXCH     7                                     #  (ZQ)
000240:


000242: 01,3255           57400        WTLST4             XCH      LST1
000243: 01,3256           57401                           XCH      LST1       +1
000244: 01,3257           57402                           XCH      LST1       +2
000245: 01,3260           57403                           XCH      LST1       +3
000246: 01,3261           57404                           XCH      LST1       +4
000247: 01,3262           57405                           XCH      LST1       +5
000248: 01,3263           57406                           XCH      LST1       +6
000249: 01,3264           57407                           XCH      LST1       +7
000250:
000251: 01,3265           30063                           CA       WAITADR                               #  (MINOR PART OF TASK CADR HAS BEEN IN L.)
000252: 01,3266           50002                           INDEX    Q
000253: 01,3267           13270                           TCF      +1
000254:
000255: 01,3270           53411                           DXCH     LST2
000256: 01,3271           53413                           DXCH     LST2       +2
000257: 01,3272           53415                           DXCH     LST2       +4
000258: 01,3273           53417                           DXCH     LST2       +6
000259: 01,3274           53421                           DXCH     LST2       +8D
000260: 01,3275           53423                           DXCH     LST2       +10D                       #  AT END, CHECK THAT C(LST2 +10) IS STD
000261: 01,3276           53425                           DXCH     LST2       +12D
000262: 01,3277           53427                           DXCH     LST2       +14D
000263: 01,3300           53431                           DXCH     LST2       +16D
000264: 01,3301           65236                           AD       ENDTASK                               #  END ITEM, AS CHECK FOR EXCEEDING
000265:                                                                                                  #  THE LENGTH OF THE LIST.
000266: 01,3302           00006                           EXTEND                                         #  DUMMY TASK ADRES SHOULD BE IN FIXED-
000267: 01,3303           15215                           BZF      LVWTLIST                              #  FIXED SO ITS ADRES ALONE DISTINGUISHES
000268: 01,3304           13360                           TCF      WTABORT                               #  IT.
000269:


000271: 01,3305           10000        WTLST5             CCS      A                                     #  TEST TD - T2 + 1
000272: 01,3306           61401                           AD       LST1       +1
000273: 01,3307           13313                           TCF      +4
000274: 01,3310           64753                           AD       ONE
000275: 01,3311           03371                           TC       WTLST2
000276: 01,3312           00001                           OCT      1
000277:
000278: 01,3313           10000                 +4        CCS      A                                     #  TEST TD - T3 + 1
000279: 01,3314           61402                           AD       LST1       +2
000280: 01,3315           13321                           TCF      +4
000281: 01,3316           64753                           AD       ONE
000282: 01,3317           03371                           TC       WTLST2
000283: 01,3320           00002                           OCT      2
000284:
000285: 01,3321           10000                 +4        CCS      A                                     #  TEST TD - T4 + 1
000286: 01,3322           61403                           AD       LST1       +3
000287: 01,3323           13327                           TCF      +4
000288: 01,3324           64753                           AD       ONE
000289: 01,3325           03371                           TC       WTLST2
000290: 01,3326           00003                           OCT      3
000291:
000292: 01,3327           10000                 +4        CCS      A                                     #  TEST TD - T5 + 1
000293: 01,3330           61404                           AD       LST1       +4
000294: 01,3331           13335                           TCF      +4
000295: 01,3332           64753                           AD       ONE
000296: 01,3333           03371                           TC       WTLST2
000297: 01,3334           00004                           OCT      4
000298:
000299: 01,3335           10000                 +4        CCS      A                                     #  TEST TD - T6 + 1
000300: 01,3336           61405                           AD       LST1       +5
000301: 01,3337           13343                           TCF      +4
000302: 01,3340           64753                           AD       ONE
000303: 01,3341           03371                           TC       WTLST2
000304: 01,3342           00005                           OCT      5
000305:
000306: 01,3343           10000                 +4        CCS      A                                     #  TEST TD - T7 + 1
000307: 01,3344           61406                           AD       LST1       +6
000308: 01,3345           13351                           TCF      +4
000309: 01,3346           64753                           AD       ONE
000310: 01,3347           03371                           TC       WTLST2
000311: 01,3350           00006                           OCT      6
000312:


000314: 01,3351           10000                 +4        CCS      A
000315: 01,3352           61407                           AD       LST1       +7
000316: 01,3353           13357                           TCF      +4
000317: 01,3354           64753                           AD       ONE
000318: 01,3355           03371                           TC       WTLST2
000319: 01,3356           00007                           OCT      7
000320:
000321: 01,3357           10000                 +4        CCS      A
000322: 01,3360           03366        WTABORT            TC       FILLED
000323: 01,3361           13362                           NOOP                                           #  CAN'T GET HERE
000324: 01,3362           64753                           AD       ONE
000325: 01,3363           03371                           TC       WTLST2
000326: 01,3364           00010                           OCT      10
000327:
000328: 01,3365           40201        OCT40201           OCT      40201
000329:


000331: 01,3366           52062        FILLED             DXCH     WAITEXIT
000332: 01,3367           05710                           TC       BAILOUT1                              #  NO ROOM IN THE INN
000333: 01,3370           01203                           OCT      01203
000334:


000336:                                                                                                  #  THE ENTRY TO WTLST2 JUST PRECEDING OCT N IS FOR T  LE TD LE T   -1.
000337:                                                                                                  #                                                   N           N+1
000338:                                                                                                  #  (LE MEANS LESS THAN OR EQUAL TO).  AT ENTRY, C(A) = -(TD - T   + 1)
000339:                                                                                                  #                                                              N+1
000340:                                                                                                  #  THE LST1 ENTRY -(T   -T +1) IS TO BE REPLACED BY -(TD - T  + 1), AND
000341:                                                                                                  #                    N+1  N                                 N
000342:                                                                                                  #  THE ENTRY -(T   - TD + 1) IS TO BE INSERTED IMMEDIATELY FOLLOWING.
000343:                                                                                                  #               N+1
000344:
000345: 01,3371           54064        WTLST2             TS       WAITTEMP                              #  C(A) = -(TD - T + 1)
000346: 01,3372           50002                           INDEX    Q
000347: 01,3373           30000                           CAF      0
000348: 01,3374           54002                           TS       Q                                     #  INDEX VALUE INTO Q.
000349:
000350: 01,3375           34753                           CAF      ONE
000351: 01,3376           60064                           AD       WAITTEMP
000352: 01,3377           50002                           INDEX    Q                                     #  C(A) = -(TD - T ) + 1.
000353: 01,3400           27377                           ADS      LST1       -1                         #                 N
000354:
000355: 01,3401           40064                           CS       WAITTEMP
000356: 01,3402           50002                           INDEX    Q
000357: 01,3403           13255                           TCF      WTLST4
000358:
000359:                                                                                                  #        C(TIME3)        =       1.0 - (T1 - T)
000360:
000361:                                                                                                  #        C(LST1  )       =       - (T2 - T1) + 1
000362:                                                                                                  #        C(LST1+1)       =       - (T3 - T2) + 1
000363:                                                                                                  #        C(LST1+2)       =       - (T4 - T3) + 1
000364:                                                                                                  #        C(LST1+3)       =       - (T5 - T4) + 1
000365:                                                                                                  #        C(LST1+4)       =       - (T6 - T5) + 1
000366:
000367:                                                                                                  #        C(LST2   )      =       2CADR TASK1
000368:                                                                                                  #        C(LST2+2 )      =       2CADR TASK2
000369:                                                                                                  #        C(LST2+4 )      =       2CADR TASK3
000370:                                                                                                  #        C(LST2+6 )      =       2CADR TASK4
000371:                                                                                                  #        C(LST2+8 )      =       2CADR TASK5
000372:                                                                                                  #        C(LST2+10)      =       2CADR TASK6
000373:


000375:                                                                                                  #  ENTERS HERE ON T3 RUPT TO DISPATCH WAITLISTED TASK.
000376:
000377: 01,3404           00006        T3RUPT             EXTEND
000378: 01,3405           04007                           ROR      SUPERBNK                              #  READ CURRENT SUPERBANK VALUE AND
000379: 01,3406           54016                           TS       BANKRUPT                              #  SAVE WITH E AND F BANK VALUES.
000380: 01,3407           00006                           EXTEND
000381: 01,3410           22012                           QXCH     QRUPT
000382:
000383: 01,3411           34734        T3RUPT2            CAF      NEG1/2                                #  DISPATCH WAITLIST TASK.
000384: 01,3412           57407                           XCH      LST1       +7
000385: 01,3413           57406                           XCH      LST1       +6
000386: 01,3414           57405                           XCH      LST1       +5
000387: 01,3415           57404                           XCH      LST1       +4                         #  1. MOVE UP LST1 CONTENTS, ENTERING
000388: 01,3416           57403                           XCH      LST1       +3                         #     A VALUE OF 1/2 +1 AT THE BOTTOM
000389: 01,3417           57402                           XCH      LST1       +2                         #     FOR T6-T5, CORRESPONDING TO THE
000390: 01,3420           57401                           XCH      LST1       +1                         #     INTERVAL 81.91 SEC FOR ENDTASK.
000391: 01,3421           57400                           XCH      LST1
000392: 01,3422           64733                           AD       POSMAX                                #  2. SET T3 = 1.0 - T2 - T USING LIST 1.
000393: 01,3423           26026                           ADS      TIME3                                 #  SO T3 WONT TICK DURING UPDATE.
000394: 01,3424           54734                           TS       RUPTAGN
000395: 01,3425           44755                           CS       ZERO
000396: 01,3426           54734                           TS       RUPTAGN                               #  SETS RUPTAGN TO +1 ON OVERFLOW.
000397:
000398: 01,3427           00006                           EXTEND                                         #  DISPATCH TASK.
000399: 01,3430           45237                           DCS      ENDTASK
000400: 01,3431           53431                           DXCH     LST2       +16D
000401: 01,3432           53427                           DXCH     LST2       +14D
000402: 01,3433           53425                           DXCH     LST2       +12D
000403: 01,3434           53423                           DXCH     LST2       +10D
000404: 01,3435           53421                           DXCH     LST2       +8D
000405: 01,3436           53417                           DXCH     LST2       +6
000406: 01,3437           53415                           DXCH     LST2       +4
000407: 01,3440           53413                           DXCH     LST2       +2
000408: 01,3441           53411                           DXCH     LST2
000409:
000410: 01,3442           56001                           XCH      L
000411: 01,3443           00006                           EXTEND
000412: 01,3444           01007                           WRITE    SUPERBNK                              #  SET SUPERBANK FROM BBCON OF 2CADR
000413: 01,3445           56001                           XCH      L                                     #  RESTORE TO L FOR DXCH Z.
000414: 01,3446           52006                           DTCB
000415:


000417:                                                                                                  #  RETURN, AFTER EXECUTION OF T3 OVERFLOW TASK:
000418:
000419:    5261                                           BLOCK    02
000420:    5261                                           COUNT*   $$/WAIT
000421:    5261           10734        TASKOVER           CCS      RUPTAGN                               #  IF +1 RETURN TO T3RUPT, IF -0 RESUME.
000422:    5262           35220                           CAF      WAITBB
000423:    5263           54006                           TS       BBANK
000424:    5264           13411                           TCF      T3RUPT2                               #  DISPATCH NEXT TASK IF IT WAS DUE.
000425:
000426:    5265           30016                           CA       BANKRUPT
000427:    5266           00006                           EXTEND
000428:    5267           01007                           WRITE    SUPERBNK                              #  RESTORE SUPERBANK BEFORE RESUME IS DONE
000429:
000430:    5270           00006        RESUME             EXTEND
000431:    5271           22012                           QXCH     QRUPT
000432:    5272           30016        NOQRSM             CA       BANKRUPT
000433:    5273           56006                           XCH      BBANK
000434:    5274           52011        NOQBRSM            DXCH     ARUPT
000435:    5275           00003                           RELINT
000436:    5276           50017                           RESUME
000437:


000439:                                                                                                  #  LONGCALL
000440:                                                                                                  #  PROGRAM DESCRIPTION                           DATE - 17 MARCH 1967
000441:                                                                                                  #  PROGRAM WRITTEN BY W.H.VANDEVER               LOG SECTION WAITLIST
000442:                                                                                                  #  MOD BY - R. MELANSON TO ADD DOCUMENTATION     ASSEMBLY SUNDISK REV. 100
000443:
000444:                                                                                                  #  FUNCTIONAL DESCRIPTION -
000445:                                                                                                  #        LONGCALL IS CALLED WITH THE DELTA TIME ARRIVING IN A,L SCALED AS TIME2,TIME1 WITH THE 2CADR OF THE TASK
000446:                                                                                                  #        IMMEDIATELY FOLLOWING THE TC LONGCALL.  FOR EXAMPLE, IT MIGHT BE DONE AS FOLLOWS WHERE TIMELOC IS THE NAME OF
000447:                                                                                                  #        A DP REGISTER CONTAINING A DELTA TIME AND WHERE TASKTODO IS THE NAME OF THE LOCATION AT WHICH LONGCALL IS TO
000448:                                                                                                  #        START
000449:                                                                                                  #  CALLING SEQUENCE -
000450:                                                                                                  #                EXTEND
000451:                                                                                                  #                DCA     TIMELOC
000452:                                                                                                  #                TC      LONGCALL
000453:                                                                                                  #                2CADR   TASKTODO
000454:                                                                                                  #  NORMAL EXIT MODE -
000455:                                                                                                  #        1).     TC      WAITLIST
000456:                                                                                                  #        2).     DTCB    (TC L+3 OF CALLING ROUTINE 1ST PASS THRU LONGCYCL)
000457:                                                                                                  #        3).     DTCB    (TO TASKOVER ON SUBSEQUENT PASSES THRU LONGCYCL)
000458:                                                                                                  #  ALARM OR ABORT EXIT MODE -
000459:                                                                                                  #        NONE
000460:                                                                                                  #  OUTPUT -
000461:                                                                                                  #        LONGTIME AND LONGTIME+1 = DELTA TIME
000462:                                                                                                  #        LONGEXIT AND LONGEXIT+1 = RETURN 2CADR
000463:                                                                                                  #        LONGCADR AND LONGCADR+1 = TASK 2CADR
000464:                                                                                                  #        A = SINGLE PRECISION TIME FOR WAITLIST
000465:                                                                                                  #  ERASABLE INITIALIZATION -
000466:                                                                                                  #        A = MOST SIGNIFICANT PART OF DELTA TIME
000467:                                                                                                  #        L = LEAST SIGNIFICANT PART OF DELTA TIME
000468:                                                                                                  #        Q = ADDRESS OF 2CADR TASK VALUE
000469:                                                                                                  #  DEBRIS -
000470:                                                                                                  #        A,Q,L
000471:                                                                                                  #        LONGCADR AND LONGCADR+1
000472:                                                                                                  #        LONGEXIT AND LONGEXIT+1
000473:                                                                                                  #        LONGTIME AND LONGTIME+1
000474:                                                                                                  #  *** THE FOLLOWING IS TO BE IN FIXED-FIXED AND UNSWITCHED ERRASIBLE ***
000475:
000476:    5277                                           BLOCK    02
000477:    5277  E3,1400                                  EBANK=   LST1
000478:    5277           53154        LONGCALL           DXCH     LONGTIME                              #  OBTAIN THE DELTA TIME
000479:
000480:    5300           00006                           EXTEND                                         #  OBTAIN THE 2CADR


000482:    5301           50002                           NDX      Q
000483:    5302           30001                           DCA      0
000484:    5303           53150                           DXCH     LONGCADR
000485:
000486:    5304           00006                           EXTEND                                         #  NOW GO TO THE APPROPRIATE SWITCHED BANK
000487:    5305           35310                           DCA      LGCL2CDR                              #  FOR THE REST OF LONGCALL
000488:    5306           52006                           DTCB
000489:
000490:    5307  E3,1400                                  EBANK=   LST1
000491:    5307           03447 02063  LGCL2CDR           2CADR    LNGCALL2
000492:
000493:                                                                                                  #  *** THE FOLLOWING MAY BE IN A SWITCHED BANK, INCLUDING ITS ERASABLE ***
000494:
000495: 01,3447                                           BANK     01
000496: 01,3447                                           COUNT*   $$/WAIT
000497: 01,3447           23435        LNGCALL2           LXCH     LONGEXIT   +1                         #  SAVE THE CORRECT BB FOR RETURN
000498: 01,3450           34752                           CA       TWO                                   #  OBTAIN THE RETURN ADDRESS
000499: 01,3451           26002                           ADS      Q
000500: 01,3452           55434                           TS       LONGEXIT
000501:
000502: 01,3453           31153                           CA       LONGTIME                              #  CHECK FOR LEGITIMATE DELTA-TIME
000503: 01,3454           10000                           CCS      A
000504: 01,3455           13463                           TCF      LONGCYCL                              #  HI-ORDER OK --> ALL IS OK.
000505: 01,3456           13460                           TCF      +2                                    #  HI-ORDER ZERO --> CHECK LO-ORDER.
000506: 01,3457           13516                           TCF      LONGPOOH                              #  HI-ORDER NEG. --> NEG. DT
000507: 01,3460           31154                 +2        CA       LONGTIME   +1                         #  CHECK LO-ORDER FOR ZERO OR NEGATIVE.
000508: 01,3461           00006                           EXTEND
000509: 01,3462           63516                           BZMF     LONGPOOH                              #  BAD DELTA-TIME.  ABORT
000510:
000511:                                                                                                  #  *** WAITLIST TASK LONGCYCL ***
000512:
000513: 01,3463           00006        LONGCYCL           EXTEND                                         #  CAN WE SUCCESFULLY TAKE ABOUT 1.25
000514: 01,3464           43475                           DCS      DPBIT14                               #  MINUTES OFF OF LONGTIME
000515: 01,3465           21154                           DAS      LONGTIME
000516:
000517: 01,3466           11154                           CCS      LONGTIME   +1                         #  THE REASONIBG BEHIND THIS PART IS
000518: 01,3467           13506                           TCF      MUCHTIME                              #  INVOLVED, TAKING INTO ACCOUNT THAT THE
000519:                                                                                                  #  WORDS MAY NOT BE SIGNED CORRECTED (DP
000520:                                                                                                  #  BASIC INSTRUCTIONS
000521:                                                                                                  #  DO NOT SIGN CORRECT) AND THAT WE SUBTRAC
000522:                                                                                                  #  TED BIT14 (1 OVER HALF THE POS. VALUE
000523:                                                                                                  #  REPRESENTIBLE IN SINGLE WORD)
000524: 01,3470           13471                           NOOP                                           #  CAN:T GET HERE **********
000525: 01,3471           13472                           TCF      +1
000526: 01,3472           11153                           CCS      LONGTIME
000527: 01,3473           13506                           TCF      MUCHTIME
000528: 01,3474           00000        DPBIT14            OCT      00000
000529: 01,3475           20000                           OCT      20000
000530:
000531:                                                                                                  #  LONGCALL


000533: 01,3476           34736        LASTTIME           CA       BIT14                                 #  GET BACK THE CORRECT DELTA TFOR WAITLIST
000534: 01,3477           27154                           ADS      LONGTIME   +1
000535: 01,3500           05203                           TC       WAITLIST
000536: 01,3501  E3,1400                                  EBANK=   LST1
000537: 01,3501           03513 02063                     2CADR    GETCADR                               #  THE ENTRY TO OUR LONGCADR
000538:
000539: 01,3503           33515        LONGRTRN           CA       TSKOVCDR                              #  SET IT UP SO THAT ONLY THE FIRST EXIT IS
000540: 01,3504           53435                           DXCH     LONGEXIT                              #  TO THE CALLER OF LONGCALL
000541: 01,3505           52006                           DTCB                                           #  THE REST ARE TO TASKOVER
000542:
000543: 01,3506           34736        MUCHTIME           CA       BIT14                                 #  WE HAVE OVER OUR ABOUT 1.25 MINUTES
000544: 01,3507           05203                           TC       WAITLIST                              #  SO SET UP FOR ANOTHER CYCLE THROUGH HERE
000545: 01,3510  E3,1400                                  EBANK=   LST1
000546: 01,3510           03463 02063                     2CADR    LONGCYCL
000547:
000548: 01,3512           13503                           TCF      LONGRTRN                              #  NOW EXIT PROPERLY
000549:
000550:                                                                                                  #  *** WAITLIST TASK GETCADR ***
000551:
000552: 01,3513           53150        GETCADR            DXCH     LONGCADR                              #  GET THE LONGCALL THAT WE WISHED TO START
000553: 01,3514           52006                           DTCB                                           #  AND TRANSFER CONTROL TO IT
000554:
000555: 01,3515           05261        TSKOVCDR           GENADR   TASKOVER
000556: 01,3516           53435        LONGPOOH           DXCH     LONGEXIT
000557: 01,3517           13521                           TCF      +2
000558: 01,3520           52062        WAITPOOH           DXCH     WAITEXIT
000559: 01,3521           05720                 +2        TC       POODOO1
000560: 01,3522           01204                           OCT      01204
000561:

End of include-file WAITLIST.agc.  Parent file is MAIN.agc


