
Source Code


000002:                                                                                                  ## Copyright:   Public domain.
000003:                                                                                                  ## Filename:    ALARM_AND_ABORT.agc
000004:                                                                                                  ## Purpose:     A section of Sunburst revision 37, or Shepatin revision 0.
000005:                                                                                                  ##              It is part of an early development version of the software
000006:                                                                                                  ##              for Apollo Guidance Computer (AGC) on the unmanned Lunar
000007:                                                                                                  ##              Module (LM) flight Apollo 5. Sunburst 37 was the program
000008:                                                                                                  ##              upon which Don Eyles's offline development program Shepatin
000009:                                                                                                  ##              was based; the listing herein transcribed was actually for
000010:                                                                                                  ##              the equivalent revision 0 of Shepatin.
000011:                                                                                                  ##              This file is intended to be a faithful transcription, except
000012:                                                                                                  ##              that the code format has been changed to conform to the
000013:                                                                                                  ##              requirements of the yaYUL assembler rather than the
000014:                                                                                                  ##              original YUL assembler.
000015:                                                                                                  ## Reference:   pp. 300-302
000016:                                                                                                  ## Assembler:   yaYUL
000017:                                                                                                  ## Contact:     Ron Burkey <info@sandroid.org>.
000018:                                                                                                  ## Website:     www.ibiblio.org/apollo/index.html
000019:                                                                                                  ## Mod history: 2017-05-24 MAS  Created from Sunburst 120.
000020:                                                                                                  ##              2017-06-01 TVB  Transcribed
000021:                                                                                                  ##              2017-06-13 HG   Fix operator TCF -> TC
000022:                                                                                                  ##                              Remove tabs
000023:


000025:
000026:    4725                                           BLOCK    02
000027:    4725     4725               BZFHOLE            EQUALS   CCSHOLE
000028:
000029:    4725           00004        CCSHOLE            INHINT
000030:    4726           30002                           CA       Q
000031:    4727           55342                           TS       ALMCADR
000032:
000033:    4730           06003                           TC       ABORT2
000034:    4731           01103                           OCT      1103
000035:
000036:    4732           00004        CURTAINS           INHINT                                         #  SAVE 2CADR OF USER FOR CURTAINS DISPLAY
000037:    4733           30002                           CA       Q                                     #  ***MAY CHANGE FOR NEW ALARM ROUTINE*****
000038:    4734           55342                           TS       ALMCADR
000039:
000040:    4735           04747                           TC       ALARM2
000041:    4736           00310                           OCT      00310
000042:
000043:    4737           00004        JETENTRY           INHINT
000044:    4740           34743                           CAF      CURTBB
000045:    4741           56006                           XCH      BBANK
000046:    4742           12000                           TCF      FORGETIT
000047:
000048:    4743  E3,1400                                  EBANK=   LST1
000049:    4743           16003        CURTBB             BBCON    FORGETIT
000050: 07,2061                                           BANK     07
000051:
000052: 07,2061           04621        LARMLARM           TC       GRABDSP
000053: 07,2062           05605                           TC       ENDOFJOB
000054:
000055: 07,2063           04633        DOALARM            TC       GRABWAIT                              #  DISPLAY FAILREG.
000056: 07,2064           32067                           CAF      FAILDISP
000057: 07,2065           04646                           TC       NVSBWAIT
000058:
000059: 07,2066           05604                           TC       EJFREE                                #  FREE DISPLAY AND END JOB.
000060:
000061: 07,2067           00550        FAILDISP           OCT      00550
000062:
000063: 07,2070           04744        JETABORT           TC       ALARM
000064: 07,2071           00312                           OCT      00312
000065:
000066: 07,2072           14737                           TCF      JETENTRY
000067:
000068:                                                                                                  #  ALARM IS CALLED EITHER IN INTERRUPT OR UNDER EXECUTIVE CONTROL
000069:
000070:                                                                                                  #  CALLING SEQUENCE,
000071:
000072:                                                                                                  #                TC      ALARM
000073:                                                                                                  #                OCT     AAANN           ALARM NO. NN IN GENERAL AREA AAA.
000074:
000075:                                                                                                  #                                        (RETURNS HERE)
000076:


000078:
000079:                                                                                                  #  *** FAILREG AND VN DECISIONS STILL TO BE MADE***
000080:    4744                                           BLOCK    02
000081:    4744           00004        ALARM              INHINT
000082:
000083:    4745           30002                           CA       Q
000084:    4746           55342                           TS       ALMCADR
000085:
000086:    4747           50002        ALARM2             INDEX    Q
000087:
000088:    4750           30000                           CA       0
000089:    4751           54001        BORTENT            TS       L                                     #  STORE RETURN -1 IN L
000090:
000091:    4752           30006                           CA       BBANK
000092:    4753           55343                           TS       ALMCADR    +1
000093:
000094:    4754           30002                           CA       Q
000095:    4755           54073                           TS       RUPTREG4
000096:
000097:    4756           11363        CHKFAIL1           CCS      FAILREG                               #  IS ANYTHING IN FAILREG
000098:    4757           14762                           TCF      CHKFAIL2                              #  YES TRY NEXT REG
000099:    4760           23363                           LXCH     FAILREG
000100:    4761           14774                           TCF      PROGLARM                              #  TURN ALARM LIGHT ON FOR FIRST ALARM
000101:
000102:    4762           11364        CHKFAIL2           CCS      FAILREG    +1
000103:    4763           14766                           TCF      FAIL3
000104:    4764           23364                           LXCH     FAILREG    +1
000105:    4765           14777                           TCF      MULTEXIT
000106:
000107:    4766           31365        FAIL3              CA       FAILREG    +2
000108:    4767           77735                           MASK     POSMAX
000109:    4770           10000                           CCS      A
000110:    4771           15007                           TCF      MULTFAIL
000111:
000112:    4772           23365                           LXCH     FAILREG    +2
000113:    4773           14777                           TCF      MULTEXIT
000114:
000115:    4774           40326        PROGLARM           CS       DSPTAB     +11D
000116:    4775           76006                           MASK     OCT40400
000117:    4776           26326                           ADS      DSPTAB     +11D
000118:
000119:    4777           35676        MULTEXIT           CAF      PRIO37
000120:    5000           05523                           TC       NOVAC
000121:    5001     1363                                  EBANK=   FAILREG
000122:    5001           02061 16002                     2CADR    LARMLARM
000123:
000124:    5003           56073                           XCH      RUPTREG4
000125:    5004           00003                           RELINT
000126:    5005           50000                           INDEX    A
000127:    5006           00001                           TC       1
000128:
000129:    5007           30001        MULTFAIL           CA       L
000130:    5010           67737                           AD       BIT15
000131:                                                                                                  ##PAGE302
000132:    5011           57365                           XCH      FAILREG    +2
000133:    5012           77735                           MASK     POSMAX
000134:    5013           55364                           TS       FAILREG    +1
000135:
000136:    5014           14777                           TCF      MULTEXIT
000137:
000138:    6000                                           BLOCK    03
000139:    6000           00004        ABORT              INHINT
000140:    6001           30002                           CA       Q
000141:    6002           55342                           TS       ALMCADR
000142:
000143:    6003           50002        ABORT2             INDEX    Q
000144:    6004           30000                           CAF      0
000145:    6005           04751                           TC       BORTENT
000146:
000147:    6006           40400        OCT40400           OCT      40400
000148:    6007           16007        WHIMPER            TCF      WHIMPER

End of include-file ALARM_AND_ABORT.agc.  Parent file is MAIN.agc


