
Source Code


000002:                                                                                                  ## Copyright:   Public domain.
000003:                                                                                                  ## Filename:    ALARM_AND_ABORT.agc
000004:                                                                                                  ## Purpose:     A section of Sunburst revision 37, or Shepatin revision 0.
000005:                                                                                                  ##              It is part of an early development version of the software
000006:                                                                                                  ##              for Apollo Guidance Computer (AGC) on the unmanned Lunar
000007:                                                                                                  ##              Module (LM) flight Apollo 5. Sunburst 37 was the program
000008:                                                                                                  ##              upon which Don Eyles's offline development program Shepatin
000009:                                                                                                  ##              was based; the listing herein transcribed was actually for
000010:                                                                                                  ##              the equivalent revision 0 of Shepatin.
000011:                                                                                                  ##              This file is intended to be a faithful transcription, except
000012:                                                                                                  ##              that the code format has been changed to conform to the
000013:                                                                                                  ##              requirements of the yaYUL assembler rather than the
000014:                                                                                                  ##              original YUL assembler.
000015:                                                                                                  ## Reference:   pp. 300-302
000016:                                                                                                  ## Assembler:   yaYUL
000017:                                                                                                  ## Contact:     Ron Burkey <info@sandroid.org>.
000018:                                                                                                  ## Website:     www.ibiblio.org/apollo/index.html
000019:                                                                                                  ## Mod history: 2017-05-24 MAS  Created from Sunburst 120.
000020:                                                                                                  ##              2017-06-01 TVB  Transcribed
000021:                                                                                                  ##              2017-06-13 HG   Fix operator TCF -> TC
000022:                                                                                                  ##                              Remove tabs
000023:                                                                                                  ##              2017-06-22 RSB  Proofed comment text with
000024:                                                                                                  ##                              octopus/ProoferComments.
000025:


000027:
000028:    4725                                           BLOCK    02
000029:    4725     4725               BZFHOLE            EQUALS   CCSHOLE
000030:
000031:    4725           00004        CCSHOLE            INHINT
000032:    4726           30002                           CA       Q
000033:    4727           55342                           TS       ALMCADR
000034:
000035:    4730           06003                           TC       ABORT2
000036:    4731           01103                           OCT      1103
000037:
000038:    4732           00004        CURTAINS           INHINT                                         #  SAVE 2CADR OF USER FOR CURTAINS DISPLAY
000039:    4733           30002                           CA       Q                                     #  ***MAY CHANGE FOR NEW ALARM ROUTINE*****
000040:    4734           55342                           TS       ALMCADR
000041:
000042:    4735           04747                           TC       ALARM2
000043:    4736           00310                           OCT      00310
000044:
000045:    4737           00004        JETENTRY           INHINT
000046:    4740           34743                           CAF      CURTBB
000047:    4741           56006                           XCH      BBANK
000048:    4742           12000                           TCF      FORGETIT
000049:
000050:    4743  E3,1400                                  EBANK=   LST1
000051:    4743           16003        CURTBB             BBCON    FORGETIT
000052: 07,2061                                           BANK     07
000053:
000054: 07,2061           04621        LARMLARM           TC       GRABDSP
000055: 07,2062           05605                           TC       ENDOFJOB
000056:
000057: 07,2063           04633        DOALARM            TC       GRABWAIT                              #  DISPLAY FAILREG.
000058: 07,2064           32067                           CAF      FAILDISP
000059: 07,2065           04646                           TC       NVSBWAIT
000060:
000061: 07,2066           05604                           TC       EJFREE                                #  FREE DISPLAY AND END JOB.
000062:
000063: 07,2067           00550        FAILDISP           OCT      00550
000064:
000065: 07,2070           04744        JETABORT           TC       ALARM
000066: 07,2071           00312                           OCT      00312
000067:
000068: 07,2072           14737                           TCF      JETENTRY
000069:
000070:                                                                                                  #  ALARM IS CALLED EITHER IN INTERRUPT OR UNDER EXECUTIVE CONTROL
000071:
000072:                                                                                                  #  CALLING SEQUENCE,
000073:
000074:                                                                                                  #                TC      ALARM
000075:                                                                                                  #                OCT     AAANN           ALARM NO. NN IN GENERAL AREA AAA.
000076:
000077:                                                                                                  #                                        (RETURNS HERE)
000078:


000080:
000081:                                                                                                  #  *** FAILREG AND VN DECISIONS STILL TO BE MADE***
000082:    4744                                           BLOCK    02
000083:    4744           00004        ALARM              INHINT
000084:
000085:    4745           30002                           CA       Q
000086:    4746           55342                           TS       ALMCADR
000087:
000088:    4747           50002        ALARM2             INDEX    Q
000089:
000090:    4750           30000                           CA       0
000091:    4751           54001        BORTENT            TS       L                                     #  STORE RETURN -1 IN L
000092:
000093:    4752           30006                           CA       BBANK
000094:    4753           55343                           TS       ALMCADR    +1
000095:
000096:    4754           30002                           CA       Q
000097:    4755           54073                           TS       RUPTREG4
000098:
000099:    4756           11363        CHKFAIL1           CCS      FAILREG                               #  IS ANYTHING IN FAILREG
000100:    4757           14762                           TCF      CHKFAIL2                              #  YES TRY NEXT REG
000101:    4760           23363                           LXCH     FAILREG
000102:    4761           14774                           TCF      PROGLARM                              #  TURN ALARM LIGHT ON FOR FIRST ALARM
000103:
000104:    4762           11364        CHKFAIL2           CCS      FAILREG    +1
000105:    4763           14766                           TCF      FAIL3
000106:    4764           23364                           LXCH     FAILREG    +1
000107:    4765           14777                           TCF      MULTEXIT
000108:
000109:    4766           31365        FAIL3              CA       FAILREG    +2
000110:    4767           77735                           MASK     POSMAX
000111:    4770           10000                           CCS      A
000112:    4771           15007                           TCF      MULTFAIL
000113:
000114:    4772           23365                           LXCH     FAILREG    +2
000115:    4773           14777                           TCF      MULTEXIT
000116:
000117:    4774           40326        PROGLARM           CS       DSPTAB     +11D
000118:    4775           76006                           MASK     OCT40400
000119:    4776           26326                           ADS      DSPTAB     +11D
000120:
000121:    4777           35676        MULTEXIT           CAF      PRIO37
000122:    5000           05523                           TC       NOVAC
000123:    5001     1363                                  EBANK=   FAILREG
000124:    5001           02061 16002                     2CADR    LARMLARM
000125:
000126:    5003           56073                           XCH      RUPTREG4
000127:    5004           00003                           RELINT
000128:    5005           50000                           INDEX    A
000129:    5006           00001                           TC       1
000130:
000131:    5007           30001        MULTFAIL           CA       L
000132:    5010           67737                           AD       BIT15
000133:                                                                                                  ##PAGE302
000134:    5011           57365                           XCH      FAILREG    +2
000135:    5012           77735                           MASK     POSMAX
000136:    5013           55364                           TS       FAILREG    +1
000137:
000138:    5014           14777                           TCF      MULTEXIT
000139:
000140:    6000                                           BLOCK    03
000141:    6000           00004        ABORT              INHINT
000142:    6001           30002                           CA       Q
000143:    6002           55342                           TS       ALMCADR
000144:
000145:    6003           50002        ABORT2             INDEX    Q
000146:    6004           30000                           CAF      0
000147:    6005           04751                           TC       BORTENT
000148:
000149:    6006           40400        OCT40400           OCT      40400
000150:    6007           16007        WHIMPER            TCF      WHIMPER

End of include-file ALARM_AND_ABORT.agc.  Parent file is MAIN.agc


