
Source Code


000002:                                                                                                  ## Copyright:   Public domain.
000003:                                                                                                  ## Filename:    AOSTASK_AND_AOSJOB.agc
000004:                                                                                                  ## Purpose:     A section of Sunburst revision 37, or Shepatin revision 0.
000005:                                                                                                  ##              It is part of an early development version of the software
000006:                                                                                                  ##              for Apollo Guidance Computer (AGC) on the unmanned Lunar
000007:                                                                                                  ##              Module (LM) flight Apollo 5. Sunburst 37 was the program
000008:                                                                                                  ##              upon which Don Eyles's offline development program Shepatin
000009:                                                                                                  ##              was based; the listing herein transcribed was actually for
000010:                                                                                                  ##              the equivalent revision 0 of Shepatin.
000011:                                                                                                  ##              This file is intended to be a faithful transcription, except
000012:                                                                                                  ##              that the code format has been changed to conform to the
000013:                                                                                                  ##              requirements of the yaYUL assembler rather than the
000014:                                                                                                  ##              original YUL assembler.
000015:                                                                                                  ## Reference:   pp. 569-590
000016:                                                                                                  ## Assembler:   yaYUL
000017:                                                                                                  ## Contact:     Ron Burkey <info@sandroid.org>.
000018:                                                                                                  ## Website:     www.ibiblio.org/apollo/index.html
000019:                                                                                                  ## Mod history: 2017-05-24 MAS  Created from Sunburst 120.
000020:                                                                                                  ##              2017-06-09 RSB  Transcribed.
000021:                                                                                                  ##              2017-06-14 HG   Add missing label STCTR1
000022:                                                                                                  ##              2017-06-22 RSB  Proofed comment text with
000023:                                                                                                  ##                              octopus/ProoferComments.
000024:


000026:                                                                                                  #  PROGRAM NAME: AOSTASK           MOD. NO. 1  DATE: NOVEMBER 20, 1966
000027:
000028:                                                                                                  #  AUTHOR: JONATHAN D. ADDELSTON (ADAMS ASSOCIATES)
000029:
000030:                                                                                                  #  THIS "WAITLIST TASK" IS EXECUTED EVERY 2 SECONDS DURING ASCENT (APS) BURNS.  IT ESTIMATES THE ACCELERATION DUE
000031:                                                                                                  #  TO THE ENGINE OFF-SET.  TO USE THESE ESTIMATES, IT ALSO CALCULATES TERMS TO ADD INTO THE LM DAP RATE DERIVATION
000032:                                                                                                  #  AND WEIGHTING FACTORS FOR THE ESTIMATE OF AOS AND FOR THE RATE DERIVATION.  FINALLY, IT ALSO SETS UP "AOSJOB"
000033:                                                                                                  #  THROUGH THE EXECUTIVE TO CALCULATE FUMCTIONS OF THE AOS.
000034:
000035:                                                                                                  #  CALLING SEQUENCE:
000036:
000037:                                                                                                  #                                          L -1     CAF    2SECSDAP
000038:                                                                                                  #                                          L        TC     WAITLIST
000039:                                                                                                  #                                                   EBANK= AOSQ
000040:                                                                                                  #                                          L +1, +2 2CADR  AOSTASK
000041:                                                                                                  #                                          L +3    (RETURN)
000042:
000043:                                                                                                  #  NORMAL EXIT MODE: "TASKOVER"    ALARM/ABORT MODE: NONE.
000044:
000045:                                                                                                  #  INPUT  APSGOING/DAPBOOLS
000046:                                                                                                  #         AOSQ,AOSR
000047:                                                                                                  #         COEFCTR
000048:                                                                                                  #         OLDWFORQ,OLDWFORR
000049:                                                                                                  #         SUMRATEQ,SUMRATER
000050:                                                                                                  #         OMEGAQ,OMEGAR
000051:
000052:                                                                                                  #  OUTPUT AOSQ,AOSR,AOSU,AOSV
000053:                                                                                                  #         AOSQTERM,AOSRTERM
000054:                                                                                                  #         SUMRATEQ,SUMRATER
000055:                                                                                                  #         KCOEFCTR
000056:
000057:                                                                                                  #  DEBRIS: A,L,ITEMP1,ITEMP2.
000058:
000059:                                                                                                  #  THE FOLLOWING LM DAP ERASABLES ARE ZEROED IN THE STARTDAP SECTION OF THE DAPIDLER PROGRAM AND THE COASTASC
000060:                                                                                                  #  SECTION OF THE AOSTASK.  THE ORDER MUST BE PRESERVED FOR THE INDEXING METHODS WHICH ARE EMPLOYED IN THOSE
000061:                                                                                                  #  SECTIONS AND ELSEWHERE.
000062:
000063:                                                                                                  #                                          AOSQ     ERASE   +3             ASCENT OFFSET ACCELERATION ESTIMATES:
000064:                                                                                                  #                                          AOSR     EQUALS AOSQ +1         ESTIMATED EVERY 2 SECONDS BY AOSTASK.
000065:                                                                                                  #                                          AOSU     EQUALS AOSQ +2         U,V-AXES ACCS FORMED BY VECTOR ADDITION.
000066:                                                                                                  #                                          AOSV     EQUALS AOSQ +3         SCALED AT PI/2 RADIANS/SECOND(2).
000067:
000068:                                                                                                  #                                          AOSQTERM ERASE   +1             (.1-.05K)AOS
000069:                                                                                                  #                                          AOSRTERM EQUALS AOSQTERM +1     SCALED AT PI/4 RADIANS/SECOND.
000070:
000071:                                                                                                  #                                          NJ+Q     ERASE   +7             2 JET OVER-RIDE FLAGS:
000072:                                                                                                  #                                          NJ-Q     EQUALS NJ+Q +1         WHENEVER THE OFFSET ACCELERATION ABOUT
000073:                                                                                                  #                                          NJ+R     EQUALS NJ+Q +2         AN AXIS IS SO HIGH THAT 2 JETS COULD NOT
000074:                                                                                                  #                                          NJ-R     EQUALS NJ+Q +3         CONTROL ATTITUDE SUCCESSFULLY, THEN NJ
000075:                                                                                                  #                                          NJ+U     EQUALS NJ+Q +4         FOR THAT AXIS (IN THE DIRECTION OPPOSING


000077:                                                                                                  #                                          NJ-U     EQUALS NJ+Q +5         AOS) IS SET TO 1.  OTHERWISE, THE VALUE
000078:                                                                                                  #                                          NJ+V     EQUALS NJ+Q +6         IS ZERO.  THESE FLAGS PREVENT TWO JETS
000079:                                                                                                  #                                          NJ-V     EQUALS NJ+Q +7         FROM BEING REQUESTED TO FIGHT THE AOS.
000080:


000082:
000083:                                                                                                  #  AOSTASK IS EXECUTED ONLY DURING POWERED ASCENT.  IF NO LONGER IN POWERED ASCENT, STOP THE CYCLING OF AOSTASK AND
000084:                                                                                                  #  SET UP VARIABLES FOR COASTING ASCENT.
000085:
000086: 20,3112                                           BANK     20
000087: 20,3112  E6,1652                                  EBANK=   AOSQ
000088:
000089: 20,3112           37746        AOSTASK            CAF      APSGOING                              #  TEST POWERED ASCENT FLAG:
000090: 20,3113           70077                           MASK     DAPBOOLS                              #  0: NOT POWERED ASCENT (ASCENT COAST)
000091: 20,3114           00006                           EXTEND                                         #  1: POWERED ASCENT
000092: 20,3115           13275                           BZF      COASTASC                              #  (END CYCLE OF TASKS DURING ASCENT COAST)
000093:
000094:                                                                                                  #  KEEP TRACK OF LENGTH OF BURN FOR DETERMINATION OF WEIGHTING FACTOR K:
000095:
000096: 20,3116           31644                           CAE      KCOEFCTR                              #  TEST KCOEFCTR FOR INITIAL PASS.
000097: 20,3117           00006                           EXTEND
000098: 20,3120           13255                           BZF      ZEROCOEF                              #  GO TO DISCONTINUITY SECTION FOR COEFFA.
000099:
000100: 20,3121           63313                           AD       DEC-399                               #  TEST KCOEFCTR FOR CONSTANT RANGE WHICH
000101: 20,3122           00006                           EXTEND                                         #  OCCURS WHEN DURATION OF BURN IS EQUAL TO
000102:
000103: 20,3123           63125                           BZMF     +2                                    #  OR GREATER THAN 400 SECONDS.  (SINCE
000104: 20,3124           13261                           TCF      KONENOW                               #  KCOEFCTR IS EVEN, 399 IS THE BREAK PT.)
000105:
000106:                                                                                                  #  FORM WEIGHTING FACTOR FOR ASCENT OFFSET ACCELERATION FILTER:  COEFFA = 0.00125(T) + 0.25
000107:
000108: 20,3125           33302                           CAF      0.00125                               #  COEFFA = 0.00125(T) + 0.25
000109: 20,3126           00006                           EXTEND
000110: 20,3127           71644                           MP       KCOEFCTR                              #  KCOEFCTR = T SCALED AT 2(+14)
000111: 20,3130           37741                           CAF      BIT13                                 #  (BIT13 = 1/4 = 0.25 SCALED AT 1.)
000112: 20,3131           60001                           AD       L
000113: 20,3132           54062        COEFFAST           TS       COEFFA                                #  (VOLATILE STORAGE.)
000114:
000115:                                                                                                  #  FORM WEIGHTING FACTOR FOR RATE DERIVATION: K = 0.0014(T) + 0.44
000116:
000117: 20,3133           33303                           CAF      0.0014                                #  K = 0.0014(T) + 0.44
000118: 20,3134           00006                           EXTEND
000119: 20,3135           71644                           MP       KCOEFCTR                              #  KCOEFCTR = T SCALED AT 2(+14)
000120: 20,3136           33310                           CAF      0.44
000121: 20,3137           60001                           AD       L
000122: 20,3140           54061                           TS       K                                     #  (VOLATILE STORAGE.)
000123: 20,3141           40000                           COM
000124: 20,3142           67735                           AD       POSMAX                                #  (1 BIT ERROR DOES DOES NOT COMPOUND.)
000125: 20,3143           55636                           TS       (1-K)                                 #  (1-K) SCALED AT 1.
000126:
000127: 20,3144           00006                           EXTEND
000128: 20,3145           77742                           MP       BIT12
000129: 20,3146           55637                           TS       (1-K)/8                               #  (1-K)/8 IS (1-K) SCALED AT 8.
000130:
000131: 20,3147           30061                           CAE      K                                     #  WFORP = WFORQR = K/DT = K/.1 = 10K
000132: 20,3150           00006                           EXTEND                                         #  SCALED AT 16/SECOND.
000133: 20,3151           73311                           MP       0.625                                 #  (CHANGES SCALE FACTOR FROM 1 TO 16/SEC.)


000135: 20,3152           55634                           TS       WFORP                                 #  WFORP IS IDENTICAL WFORQR EXCEPT FOR THE
000136: 20,3153           55635                           TS       WFORQR                                #  INITIALIZATION IN STARTDAP OF DAPIDLER.
000137:
000138: 20,3154           40061                           CS       K                                     #  FORM (.1-.05K) FROM K SCALED AT 1 FOR
000139: 20,3155           00006                           EXTEND                                         #  THE TORQUE VECTOR RECONSTRUCTION AND
000140: 20,3156           73305                           MP       0.05                                  #  ALSO FORM (.1-.05K) SCALED AT 1/2 FOR
000141: 20,3157           63306                           AD       0.1                                   #  THE OFFSET ACCELERATION TERM IN THE RATE
000142: 20,3160           60000                           DOUBLE                                         #  EBANK6 FOR USE IN T5RUPT WHILE THE
000143: 20,3161           54061                           TS       .1-.05K                               #  LATTER IS VOLATILE AND USED IN THIS TASK
000144:
000145:                                                                                                  #  BEGIN ESTIMATE OF OFFSET ACCELERATION FOR Q,R-AXES:
000146:
000147: 20,3162           30062        COEFFA1            CAE      COEFFA                                #  FORM COEFFA(AOSQ):
000148: 20,3163           00006                           EXTEND
000149: 20,3164           71652                           MP       AOSQ                                  #  FIRST TERM OF NEW AOSQ ESTIMATE:
000150: 20,3165           55652                           TS       AOSQ                                  #  SCALED AT PI/2 RADIANS/SECOND(2).
000151:
000152: 20,3166           30062                           CAE      COEFFA                                #  FORM COEFFA(AOSR):
000153: 20,3167           00006                           EXTEND
000154: 20,3170           71653                           MP       AOSR                                  #  FIRST TERM OF NEW AOSR ESTIMATE:
000155: 20,3171           55653                           TS       AOSR                                  #  SCALED AT PI/2 RADIANS/SECOMD(2).
000156:
000157: 20,3172           40062                           CS       COEFFA                                #  FORM .5(1-COEFFA) SCALED AT 2 FROM THE
000158: 20,3173           00006                           EXTEND                                         #  COEFFA SCALED AT 1.  COEFFA IS NOW THE
000159: 20,3174           77741                           MP       BIT13                                 #  SAME AS 2(COEFFA) SCALED AT 2, SO MUST
000160: 20,3175           67741                           AD       BIT13                                 #  MULTIPLY BY 1/4 TO GET .5(COEFFA). THEN,
000161:
000162: 20,3176           54062                           TS       .5-.5COF                              #  ADD 1/4 AS 1/2 SCALED AT 2 FOR RESULT.
000163:
000164:                                                                                                  #  FINISH OFFSET ACCELERATION ESTIMATES:
000165:
000166:                                                                                                  #  AOS  = COEFFA (AOS   ) + .5(1-COEFFA )(OMEGA -OMEGA   -SUMRATE )
000167:                                                                                                  #     T        T     T-2               T       T      T-2        T
000168:
000169: 20,3177           41417                           CS       OMEGAQ                                #  SAVE PRESENT -OMEGAQ FOR NEXT PASS AND
000170: 20,3200           57623                           XCH      OLDWFORQ                              #  PICK UP -(LAST OMEGAQ) FROM OLDWFORQ.
000171: 20,3201           00006                           EXTEND
000172: 20,3202           61621                           SU       SUMRATEQ                              #  FORM: W - OLDW - SUMRATE = SUM (Q-AXIS).
000173: 20,3203           61417                           AD       OMEGAQ                                #  SCALED AT PI/4 RADIANS/SECOND.
000174: 20,3204           00006                           EXTEND
000175: 20,3205           70062                           MP       .5-.5COF                              #  AOSQ = COEFFA(AOSQ)+.5(1-COEFFA)(SUMQ)
000176: 20,3206           27652                           ADS      AOSQ                                  #  SCALED AT PI/2 RADIANS/SECOND(2).
000177:
000178: 20,3207           41421                           CS       OMEGAR                                #  SAVE PRESENT -OMEGAQ FOR NEXT PASS AND
000179: 20,3210           57624                           XCH      OLDWFORR                              #  PICK UP -(LAST OMEGAR) FROM OLDWFORR.
000180: 20,3211           00006                           EXTEND
000181: 20,3212           61622                           SU       SUMRATER                              #  FORM: W - OLDW - SUMRATE = SUM (R-AXIS).
000182: 20,3213           61421                           AD       OMEGAR                                #  SCALED AT PI/4 RADIANS/SECOND.
000183: 20,3214           00006                           EXTEND
000184: 20,3215           70062                           MP       .5-.5COF                              #  AOSR = COEFFA(AOSR)+.5(1-COEFFA)(SUMR)
000185:
000186: 20,3216           27653                           ADS      AOSR                                  #  SCALED AT PI/2 RADIANS/SECOND(2).
000187:


000189:                                                                                                  #  CALCULATE THE OFFSET ACCELERATIONS FOR THE U,V-AXES:
000190:
000191: 20,3217           31652                           CAE      AOSQ                                  #  FIRST, CALCULATE AOSU:
000192: 20,3220           61653                           AD       AOSR
000193: 20,3221           00006                           EXTEND
000194: 20,3222           73312                           MP       0.70711
000195: 20,3223           55654                           TS       AOSU                                  #  SCALED AT PI/2 RADIANS/SECOND(2).
000196:
000197: 20,3224           41652                           CS       AOSQ                                  #  THEN, CALCULATE AOSV:
000198: 20,3225           61653                           AD       AOSR
000199: 20,3226           00006                           EXTEND
000200: 20,3227           73312                           MP       0.70711
000201: 20,3230           55655                           TS       AOSV                                  #  SCALED AT PI/2 RADIANS/SECOND(2).
000202:
000203:                                                                                                  #  FORM TERMS FOR RATE DERIVATION:
000204:
000205: 20,3231           30061                           CAE      .1-.05K                               #  FORM Q-AXIS RATE DERIVATION TERM:
000206: 20,3232           00006                           EXTEND
000207: 20,3233           71652                           MP       AOSQ                                  #  AOSQTERM = (.1-.05K)AOSQ
000208: 20,3234           55656                           TS       AOSQTERM                              #  SCALED AT PI/4 RADIANS/SECOND.
000209:
000210: 20,3235           30061                           CAE      .1-.05K                               #  FORM R-AXIS RATE DERIVATION TERM:
000211: 20,3236           00006                           EXTEND
000212: 20,3237           71653                           MP       AOSR                                  #  AOSRTERM = (.1-.05K)AOSR
000213: 20,3240           55657                           TS       AOSRTERM                              #  SCALED AT PI/4 RADIANS/SECOND.
000214:
000215:                                                                                                  #  SET UP AOS JOB FOR THE NEWEST OFFSET ACCELERATION ESTIMATES:
000216:
000217: 20,3241           34260                           CAF      PRIO24                                #  *** VERIFY PRIORITY. ***
000218: 20,3242           05523                           TC       NOVAC                                 #  SET UP AOSJOB.
000219: 20,3243  E6,1652                                  EBANK=   AOSQ
000220: 20,3243           03327 40006                     2CADR    AOSJOB
000221:
000222:                                                                                                  #  SET ERASABLES FOR NEXT 2 SECOND INTERVAL:
000223:
000224: 20,3245           37754                           CAF      TWO                                   #  INCREMENT BURN DURATION TIMER BY 2 SECS.
000225: 20,3246           27644                           ADS      KCOEFCTR
000226:
000227: 20,3247           37761                           CAF      ZERO                                  #  INITIALIZE SUMS OF JETRATES.
000228: 20,3250           55621                           TS       SUMRATEQ
000229: 20,3251           55622                           TS       SUMRATER
000230:
000231:                                                                                                  #  SET UP NEXT WAITLIST AOSTASK FOR 2 SECONDS FROM NOW:
000232:
000233: 20,3252           33316                           CAF      2SECSDAP
000234: 20,3253           05722                           TC       VARDELAY                              #  (STORAGE-SAVING WAITLIST CALL.)
000235: 20,3254           13112                           TCF      AOSTASK                               #  RETURNS HERE IN TWO SECONDS.
000236:


000238:                                                                                                  #  SPECIAL DISCONTINUITY SECTION FOR COEFFA ON FIRST PASS:
000239:
000240: 20,3255           37754        ZEROCOEF           CAF      TWO                                   #  INITIALIZE BURN DURATION TIMER TO TWO
000241: 20,3256           55644                           TS       KCOEFCTR                              #  SECONDS FOR THE DERIVATION OF K.
000242:
000243: 20,3257           37761                           CAF      ZERO                                  #  FOR THE FIRST PASS, SET COEFFA TO ZERO
000244: 20,3260           13132                           TCF      COEFFAST                              #  SINCE AOS ESTIMATES ARE NOW USELESS.
000245:
000246:                                                                                                  #  SPECIAL K AND COEFFA SETTINGS FOR BURNS LASTING 400 SECONDS OR MORE:
000247:
000248: 20,3261           00006        KONENOW            EXTEND                                         #  K=1, SO 1-K AT EITHER SCALING IS ZERO.
000249: 20,3262           33315                           DCA      DPZEROX                               #  (1-K)   SCALED AT 1.
000250: 20,3263           53637                           DXCH     (1-K)                                 #  (1-K)/8 SCALED AT 8.
000251:
000252: 20,3264           33311                           CAF      0.625                                 #  WFORP = WFORQR = K/DT = K/.1 = 10K = 10
000253: 20,3265           55634                           TS       WFORP                                 #  SCALED AT 16/SECOND.
000254: 20,3266           55635                           TS       WFORQR
000255:
000256: 20,3267           33305                           CAF      0.05                                  #  (.1-.05K) = 0.05
000257: 20,3270           60000                           DOUBLE                                         #  (DOUBLING SAVES CONSTANT STORAGE.)
000258: 20,3271           54061                           TS       .1-.05K                               #  SCALED AT 1/2. (VOLATILE STORAGE.)
000259:
000260: 20,3272           35226                           CAF      BIT13-14                              #  COEFFA = 0.75
000261: 20,3273           54062                           TS       COEFFA                                #  SCALED AT 1.   (VOLATILE STORAGE.)
000262:
000263: 20,3274           13162                           TCF      COEFFA1                               #  GO BEGIN OFFSET ACCELERATION ESTIMATE.
000264:
000265:                                                                                                  #  SHUT-DOWN PROCEDURE AFTER ASCENT COAST DETECTION:
000266:
000267: 20,3275           34260        COASTASC           CAF      PRIO24                                #  *** VERIFY PRIORITY. ***
000268: 20,3276           05523                           TC       NOVAC                                 #  SET UP FINAL AOSJOB FOR THIS APS BURN.
000269: 20,3277  E6,1652                                  EBANK=   AOSQ
000270: 20,3277           03327 40006                     2CADR    AOSJOB
000271:
000272: 20,3301           15745                           TCF      TASKOVER                              #  END AOSTASK CYCLING FOR THIS APS BURN.
000273:


000275:                                                                                                  #  CONSTANTS FOR AOSTASK:
000276:
000277: 20,3302           00024        0.00125            DEC      0.00125
000278: 20,3303           00027        0.0014             DEC      0.0014
000279: 20,3304           00111        0.00444            DEC      0.00444
000280: 20,3305           01463        0.05               DEC      0.05
000281: 20,3306           03146        0.1                DEC      0.1
000282: 20,3307           12000        0.3125             DEC      0.3125
000283: 20,3310           16051        0.44               DEC      0.44
000284: 20,3311           24000        0.625              DEC      0.625
000285: 20,3312           26501        0.70711            DEC      0.70711
000286: 20,3313           77160        DEC-399            DEC      -399       B-14
000287: 20,3314           00000 00000  DPZEROX            2DEC     0          B-28
000288:
000289: 20,3316           00310        2SECSDAP           DEC      200        B-14
000290: 20,3317           20000        (1-K)S             DEC      0.5
000291: 20,3320           02000                           DEC      0.0625
000292:


000294:                                                                                                  #  PROGRAM NAME: WCHANGER          MOD. NO. 0  DATE: DECEMBER 9, 1966
000295:
000296: 20,3321           15745                           TCF      TASKOVER
000297:
000298:                                                                                                  #  THIS PROGRAM IS A WAITLIST TASK WHICH IS INITIATED FROM THE STARTDAP SECTION OF DAPIDLER.  IT IS EXECUTED
000299:                                                                                                  #  BETWEEN THE FIRST Q,R-AXES T5RUPT AND THE SECOND P-AXIS T5RUPT (I.E. 180 MS AFTER STARTDAP).  THE PURPOSE OF
000300:                                                                                                  #  WCHANGER IS TO RESET THE VARIABLE K (IN ALL ITS FORMS) FOR THE RATE DERIVATION FROM 1 TO 0.5.  (IT ALSO SETS THE
000301:                                                                                                  #  NOMINAL LM DAP DT TO 100 MS.)
000302:
000303:                                                                                                  #  CALLING SEQUENCE (FROM STARTDAP):
000304:
000305:                                                                                                  #                                          L -1     CAF    180MS
000306:                                                                                                  #                                          L        TC     WAITLIST
000307:                                                                                                  #                                                   EBANK= WFORQR
000308:                                                                                                  #                                          L +1     2CADR  WCHANGER
000309:                                                                                                  #                                          L +2    (BBCON)
000310:                                                                                                  #                                          L +3    (RETURN)
000311:
000312:                                                                                                  #  SUBROUTINES CALLED: WCHANGE.    NORMAL EXIT: TASKOVER.
000313:
000314:                                                                                                  #  INPUT: NONE.                    ALARM/ABORT EXITS: NONE.
000315:
000316:                                                                                                  #  OUTPUT: WFORP,WFORQR,(1-K),(1-K)/8.
000317:
000318: 20,3322           05307        WCHANGER           TC       IBNKCALL                              #  (WAITLIST TASK IS IN T3RUPT.)
000319: 20,3323           40106                           FCADR    WCHANGE                               #  SUBROUTINE DOES SETTING TO SAVE SPACE.
000320:
000321: 20,3324           15745                           TCF      TASKOVER                              #  END THIS TASK.
000322:


000324:                                                                                                  #  INERPOLY COMPUTES IXX, IYY, IZZ, AND, IN DESCENT, L,PVT-CG.
000325:                                                                                                  #  AFTER THE INERTIAS ARE COMPUTED, THEY ARE USED TO COMPUTE NEW VALUES OF
000326:                                                                                                  #  1JACC, 1JACCQ, 1JACCR, 1JACCU, 1JACCV AND 1/2JTSP.
000327:                                                                                                  #  INERPOLY EXITS BY .... TCF ENDOFJOB
000328:
000329:
000330: 26,2611                                           BANK     26
000331:
000332: 26,2611  E6,1452                                  EBANK=   IXX
000333: 26,2611           37754        INERPOLY           CA       BIT2
000334: 26,2612           00006                           EXTEND
000335: 26,2613           02030                           RAND     30
000336: 26,2614           10000                           CCS      A                                     #  CHOOSES ASCENT OR DESCENT COEF
000337: 26,2615           46301                           CS       THREE
000338: 26,2616           66276                           AD       SIX
000339: 26,2617           55620                           TS       INERCTRX
000340:
000341: 26,2620           37754                           CAF      TWO
000342: 26,2621           55617        STCTR              TS       INERCTR                               #  J=2,1,0 FOR IZZ,IYY,IXX
000343:
000344: 26,2622           00006                           EXTEND
000345: 26,2623           27620                           DIM      INERCTRX                              #  JX=5,4,3 OR 2,1,0 FOR Z,Y,X COEF
000346:
000347: 26,2624           31332        STCTR1             CA       MASS                                  #  IN KGS (+15)
000348: 26,2625           00006                           EXTEND
000349: 26,2626           51620                           INDEX    INERCTRX
000350: 26,2627           72720                           MP       INERCONC
000351: 26,2630           51620                           INDEX    INERCTRX
000352: 26,2631           62727                           AD       INERCONB
000353: 26,2632           00006                           EXTEND
000354: 26,2633           71332                           MP       MASS
000355:
000356: 26,2634           51620                           INDEX    INERCTRX
000357: 26,2635           62736                           AD       INERCONA
000358: 26,2636           51617                           INDEX    INERCTR
000359: 26,2637           55452                           TS       IXX                                   #  I(J)=(C(JX)MASS+B(JX))MASS+A(JX)  (+18)
000360:                                                                                                  #  I(-1)=L,PVT-CG  (+6)
000361:
000362: 26,2640           11617                           CCS      INERCTR                               #  COUNTER 2,1,0,-1
000363: 26,2641           12621                           TCF      STCTR
000364: 26,2642           12644                           TCF      COMMEQS
000365: 26,2643           12711                           TCF      LRESC
000366:
000367: 26,2644           00006        COMMEQS            EXTEND
000368: 26,2645           32745                           DCA      TORKJET                               #  500 FT-LBS. (+16) PI
000369: 26,2646           00006                           EXTEND
000370: 26,2647           11452                           DV       IXX
000371: 26,2650           55612                           TS       1JACC                                 #  SCALED BY PI/4
000372:
000373: 26,2651           00006                           EXTEND
000374: 26,2652           32747                           DCA      TORKJET1                              #  550 FT-LBS. (+16) PI
000375:


000377: 26,2653           00006                           EXTEND
000378: 26,2654           11453                           DV       IYY
000379: 26,2655           55613                           TS       1JACCQ                                #  SCALED BY PI/4
000380:
000381: 26,2656           00006                           EXTEND
000382: 26,2657           32747                           DCA      TORKJET1                              #  550 FT-LBS. (+16) PI
000383: 26,2660           00006                           EXTEND
000384: 26,2661           11454                           DV       IZZ
000385: 26,2662           55614                           TS       1JACCR                                #  SCALED BY PI/4
000386:
000387: 26,2663           61613                           AD       1JACCQ
000388: 26,2664           00006                           EXTEND
000389: 26,2665           72610                           MP       0.35356                               #  .70711 SCALED BY (+1)
000390: 26,2666           55615                           TS       1JACCU
000391:
000392: 26,2667           55616                           TS       1JACCV                                #  SCALED BY PI/4
000393:
000394: 26,2670           32750                           CAF      4JTORK
000395: 26,2671           55441                           TS       1/2JTSP
000396: 26,2672           31452                           CAE      IXX
000397: 26,2673           00006                           EXTEND
000398: 26,2674           11441                           DV       1/2JTSP
000399: 26,2675           60000                           DOUBLE
000400: 26,2676           55441                           TS       1/2JTSP                               #  SCALED BY 1/PI (+8)
000401:
000402: 26,2677           37754                           CAF      BIT2
000403: 26,2700           00006                           EXTEND
000404: 26,2701           02030                           RAND     30
000405: 26,2702           10000                           CCS      A                                     #  COMPUTE L,PVT-CG IF IN DESCENT
000406: 26,2703           12705                           TCF      DES
000407: 26,2704           15605                           TCF      ENDOFJOB
000408:
000409: 26,2705           47755        DES                CS       ONE
000410: 26,2706           55617                           TS       INERCTR
000411: 26,2707           55620                           TS       INERCTRX
000412: 26,2710           12624                           TCF      STCTR1
000413:
000414: 26,2711           31451        LRESC              CA       L,PVT-CG                              #  SCALED BY (+6)
000415:
000416: 26,2712           60000                           DOUBLE
000417: 26,2713           60000                           DOUBLE
000418: 26,2714           60000                           DOUBLE
000419: 26,2715           55451                           TS       L,PVT-CG                              #  SCALED BY (+3)
000420: 26,2716           15605                           TCF      ENDOFJOB
000421:
000422:
000423: 26,2717           30126                           DEC      0.75524                               #  L
000424: 26,2720           00353        INERCONC           DEC      0.01432                               #  XD
000425: 26,2721           52653                           DEC      -0.66136                              #  YD
000426: 26,2722           52136                           DEC      -0.68173                              #  ZD
000427: 26,2723           01502                           DEC      0.05092                               #  XA


000429: 26,2724           53060                           DEC      -0.65325                              #  YA
000430: 26,2725           54667                           DEC      -0.59815                              #  ZA
000431: 26,2726           52265                           DEC      -0.67640                              #  L
000432: 26,2727           05346        INERCONB           DEC      0.17030                               #  XD
000433: 26,2730           25066                           DEC      0.65955                               #  YD
000434: 26,2731           24131                           DEC      0.63041                               #  ZD
000435: 26,2732           05613                           DEC      0.18033                               #  XA
000436: 26,2733           06433                           DEC      0.20478                               #  YA
000437: 26,2734           13626                           DEC      0.36855                               #  ZA
000438: 26,2735           06324                           DEC      0.20044                               #  L
000439: 26,2736           00157        INERCONA           DEC      0.00676                               #  XD
000440: 26,2737           76031                           DEC      -0.06090                              #  YD
000441: 26,2740           76456                           DEC      -0.04403                              #  ZD
000442: 26,2741           77670                           DEC      -0.00435                              #  XA
000443: 26,2742           77743                           DEC      -0.00170                              #  YA
000444: 26,2743           77242                           DEC      -0.02132                              #  ZA
000445:
000446: 26,2744           00047 31173  TORKJET            2DEC     0.002428512
000447:
000448: 26,2746           00053 30441  TORKJET1           2DEC     0.002671365
000449:
000450: 26,2750           23712        4JTORK             DEC      .62170
000451:


000453:                                                                                                  #  PROGRAM NAME: AOSJOB            MOD. NO. 0   DATE: DECEMBER 2, 1966
000454:                                                                                                  #  PROGRAM DESIGN BY: RICHARD D. GOSS (MIT/IL)
000455:
000456:                                                                                                  #  IMPLEMENTATION BY: JONATHAN D. ADDELSTON (ADAMS ASSOCIATES)
000457:
000458:                                                                                                  #  THE PROGRAM IS AN EXECUTIVE JOB WHICH CALCULATES THE FOLLOWING QUANTITIES FOR THE LM DAP T5RUPT PROGRAMS:
000459:                                                                                                  #           1. THE INVERSES OF THE NET ACCELERATIONS ABOUT ALL AXES (Q,R,U,V), IN ALL DIRECTIONS (+/-), AND ALL
000460:                                                                                                  #              COMBINATIONS OF JETS (2/4 FOR Q,R AND 1/2 FOR U,V).
000461:                                                                                                  #           2. THE INVERSES OF THE MINIMUM ACCELERATIONS FOR THE URGENCY AND TJETLAW COMPUTATION, DURING APS BURNS.
000462:                                                                                                  #           3. THE INITIAL INVERSE NET ACCELERATIONS USED FOR THE URGENCY COMPUTATION, DURING APS BURNS.
000463:                                                                                                  #           4. THE NJ FLAGS TO REQUIRE MANDATORY JET ACCELERATION DURING APS BURNS.
000464:
000465:                                                                                                  #  CALLING SEQUENCE:               SUBROUTINES CALLED: INVACC.
000466:
000467:                                                                                                  #                                          L -1     CAF    PRIO24
000468:                                                                                                  #                                          L        TC     NOVAC
000469:                                                                                                  #                                                   EBANK= AOSQ
000470:                                                                                                  #                                          L +1     2CADR  AOSJOB
000471:                                                                                                  #                                          L +2    (BBCON)
000472:                                                                                                  #                                          L +3    (RETURN)
000473:
000474:                                                                                                  #  NORMAL EXIT: ENDOFJOB.          ALARM/ABORT EXITS: NONE.
000475:
000476:                                                                                                  #  INPUT: AOSQ,AOSR,AOSU,AOSV,1JACCQ,1JACCR,1JACCU,1JACCV,APSGOING/DAPBOOLS.
000477:
000478:                                                                                                  #  DEBRIS: NONE.
000479:


000481: 20,3325                                           BANK     20
000482: 20,3325  E6,1652                                  EBANK=   AOSQ
000483:
000484: 20,3325           73731        -.02R/S2           DEC      -.12732                               #  -.02 RADIANS/SECOND(2) SCALED AT PI/2
000485: 20,3326           11642        ACCFIFTY           DEC      0.30679                               #  .5(50) SEC(2)/RAD SCALED AT 2(+8)/PI.
000486:
000487:                                                                                                  #  SET UP LOOP FOR FOUR AXES (IN THE ORDER: V,U,R,Q):
000488:
000489: 20,3327           37753        AOSJOB             CAF      FOUR                                  #  "JOBAXES" IS USED TO PICK UP ONE OF FOUR
000490: 20,3330           54144        INVLOOP            TS       JOBAXES                               #  ADJACENT REGISTERS, ALSO TO COUNT LOOP.
000491:
000492:                                                                                                  #  SET UP "TABPLACE" TO STORE 1/NETACC TABLE:
000493:
000494: 20,3331           00006                           EXTEND                                         #  TABPLACE = 4(JOBAXES)
000495: 20,3332           77753                           MP       FOUR                                  #  SINCE THERE ARE FOUR ENTRIES PER AXIS.
000496: 20,3333           22146                           LXCH     TABPLACE
000497:
000498:                                                                                                  #                                                       2
000499:                                                                                                  #             2(1JACC   ) + AOS    - 0.02 RADIANS/SECOND  GREATER THAN ZERO
000500:                                                                                                  #                    Q,R       Q,R
000501:                                                                                                  #          OR                                           2
000502:                                                                                                  #                1JACC    + AOS    - 0.02 RADIANS/SECOND  GREATER THAN ZERO
000503:                                                                                                  #                     U,V      U,V
000504:
000505: 20,3334           50144                           INDEX    JOBAXES                               #  THE INDEXED PICK-UP OF JET ACCELERATIONS
000506: 20,3335           31613                           CAE      1JACCQ                                #  USES THE FOLLOWING HAPPY COINCIDENCE:
000507: 20,3336           54150                           TS       TEMPACC                               #  1JACCU AND 1JACCV ARE SCALED AT PI/2 AS
000508: 20,3337           50144                           INDEX    JOBAXES                               #  ARE AOSU AND AOSV.  1JACCQ AND 1JACCR
000509: 20,3340           61652                           AD       AOSQ                                  #  ARE SCALED AT PI/4 AND THEREFORE ARE
000510: 20,3341           54151                           TS       TEMPNET                               #  EQUIVALENT TO 2(1JACCQ) AND 2(1JACCR)
000511: 20,3342           63325                           AD       -.02R/S2                              #  SCALED AT PI/2 AS ARE AOSQ AND AOSR.
000512: 20,3343           00006                           EXTEND                                         #  -.02R/S2 IS -0.02 RADIANS/SECOND(2),PI/2
000513:
000514: 20,3344           63634                           BZMF     FIFTY1                                #  (BRANCH FOR CONSTANT VALUE OF INVERSE.)
000515:
000516:                                                                                                  #             1/NET+2    = 1/( 2(1JACC   ) + AOS   )
000517:                                                                                                  #                    Q,R              Q,R       Q,R
000518:                                                                                                  #         OR
000519:                                                                                                  #             1/NET+1    = 1/(   1JACC    + AOS   )
000520:                                                                                                  #                    U,V              U,V      U,V
000521:
000522: 20,3345           03644                           TC       INVACC
000523: 20,3346           50146        FIFTY1R            INDEX    TABPLACE
000524: 20,3347           55670                           TS       1/NET+2Q                              #  SCALED AT 2(+8)/PI SECONDS(2)/RADIAN.
000525:
000526:                                                                                                  #                                                       2
000527:                                                                                                  #             2(1JACC   ) - AOS    - 0.02 RADIANS/SECOND  GREATER THAN ZERO
000528:                                                                                                  #                    Q,R       Q,R
000529:                                                                                                  #         OR                                            2
000530:                                                                                                  #               1JACC     - AOS    - 0.02 RADIANS/SECOND  GREATER THAN ZERO
000531:                                                                                                  #                    U,V       U,V
000532:


000534: 20,3350           50144                           INDEX    JOBAXES                               #  THIS SECTION USES THE INDEXING TRICKS OF
000535: 20,3351           41652                           CS       AOSQ                                  #  THE FIRST PART (ABOVE), BUT USES THE
000536: 20,3352           54147                           TS       TEMPAOS                               #  TEMPORARY LOCATIONS AS FOLLOWS:
000537: 20,3353           60150                           AD       TEMPACC                               #  "TEMPAOS" SAVES -AOS FOR THIS AXIS.
000538: 20,3354           54151                           TS       TEMPNET                               #  "TEMPACC" HAS THE JET ACCELERATION.
000539: 20,3355           63325                           AD       -.02R/S2                              #  "TEMPNET" SAVES (JETACC-AOS) FOR DENOM.
000540: 20,3356           00006                           EXTEND                                         #  -.02R/S2 IS -0.02 RADIANS/SECOND(2),PI/2
000541: 20,3357           63636                           BZMF     FIFTY2                                #  (BRANCH FOR CONSTANT VALUE OF INVERSE.)
000542:
000543:                                                                                                  #             1/NET-2    = 1/( 2(1JACC  ) - AOS   )
000544:                                                                                                  #                    Q,R             Q,R       Q,R
000545:                                                                                                  #         OR
000546:                                                                                                  #             1/NET-1    = 1/( 1JACC    - AOS   )
000547:                                                                                                  #                    U,V            U,V      U,V
000548:
000549: 20,3360           03644                           TC       INVACC
000550: 20,3361           50146        FIFTY2R            INDEX    TABPLACE
000551: 20,3362           55672                           TS       1/NET-2Q                              #  SCALED AT 2(+8)/PI SECONDS(2)/RADIAN.
000552:
000553:                                                                                                  #             1/NET-4    = 1/( 4(1ACC    - AOS   )
000554:                                                                                                  #                    Q,R              Q,R       Q,R
000555:                                                                                                  #         OR
000556:                                                                                                  #             1/NET-2    = 1/( 2(1JACC   ) - AOS   )
000557:                                                                                                  #                    U,V              U,V       U,V
000558:
000559: 20,3363           30150                           CAE      TEMPACC                               #  FIRST, FROM 2(1JACCQ,R) FORM 4(1JACCQ,R)
000560: 20,3364           60000                           DOUBLE                                         #  OR FROM 1JACCU,V FORM 2(1JACCU,V) AND
000561: 20,3365           54150                           TS       TEMPACC                               #  SAVE FOR NEXT INVERSE CALCULATION.
000562: 20,3366           60147                           AD       TEMPAOS                               #  THEN, COMPUTE EITHER 4(1JACCQ,R)-AOSQ,R
000563: 20,3367           54151                           TS       TEMPNET                               #  OR 2(1JACCU,V)-AOSU,V SCALED AT PI/2.
000564:
000565: 20,3370           03644                           TC       INVACC
000566: 20,3371           50146                           INDEX    TABPLACE
000567: 20,3372           55673                           TS       1/NET-4Q                              #  SCALED AT 2(+8)/PI SECONDS(2)/RADIAN.
000568:


000570:                                                                                                  #             1/NET+4    = 1/( 4(1ACC    + AOS   )
000571:                                                                                                  #                    Q,R              Q,R       Q,R
000572:                                                                                                  #         OR
000573:                                                                                                  #             1/NET+2    = 1/( 2(1JACC   ) + AOS   )
000574:                                                                                                  #                    U,V              U,V       U,V
000575:
000576: 20,3373           40147                           CS       TEMPAOS                               #  FIRST, COMPUTE EITHER 4(1JACCQ,R)+AOSQ,R
000577: 20,3374           60150                           AD       TEMPACC                               #  OR 2(1JACCU,V)+AOSU,V AND SAVE FOR THE
000578: 20,3375           54151                           TS       TEMPNET                               #  DIVISION (SCALED AT PI/2 RADIANS/SECOND)
000579:
000580: 20,3376           03644                           TC       INVACC
000581: 20,3377           50146                           INDEX    TABPLACE
000582: 20,3400           55671                           TS       1/NET+4Q                              #  SCALED AT 2(+8)/PI RADIANS(2)/SECOND.
000583:
000584:                                                                                                  #  TEST FOR END OF LOOP:
000585:
000586: 20,3401           10144                           CCS      JOBAXES                               #  IF "JOBAXES" PNZ, CONTINUE.
000587: 20,3402           13330                           TCF      INVLOOP                               #  IF "JOBAXES" ZERO, STOP.
000588:
000589:                                                                                                  #  TEST FOR ASCENT PROPULSION SYSTEM BURN:
000590:
000591: 20,3403           37746                           CAF      APSGOING                              #  IF LM IS IN COAST OR IN A DESCENT BURN,
000592: 20,3404           70077                           MASK     DAPBOOLS                              #  THEN THE AOSJOB IS TRIVIAL FROM HERE
000593: 20,3405           10000                           CCS      A                                     #  AND THIS TEST REDUCES THE COMPUTATION
000594: 20,3406           13414                           TCF      ASCJOB                                #  TIME IN THOSE CASES.
000595:
000596:                                                                                                  #  FILL IN DESCENT BURN OR COAST VALUES QUICKLY:
000597:
000598: 20,3407           31670                           CAE      1/NET+2Q                              #  FOR Q-AXIS URGENCY.
000599: 20,3410           55711                           TS       1/ACCQ
000600: 20,3411           31674                           CAE      1/NET+2R                              #  FOR R-AXIS URGENCY.
000601: 20,3412           55712                           TS       1/ACCR
000602:
000603: 20,3413           15605                           TCF      ENDOFJOB                              #  END THIS ITERATION OF AOSJOB.
000604:


000606:                                                                                                  #  IN ASCENT BURN, SO SET UP Q,R-AXES LOOP:
000607:
000608: 20,3414           37755        ASCJOB             CAF      ONE                                   #  SET UP THE TABLE INDICES:
000609: 20,3415           54144        QRJOB              TS       JOBAXES
000610: 20,3416           60000                           DOUBLE                                         #  AOS TABLE USES "JOBAXES"  (ADJACENT).
000611: 20,3417           54145                           TS       NJPLACE                               #  NJ  TABLE USES "NJPLACE"  (ONE APART).
000612: 20,3420           60000                           DOUBLE                                         #  NET TABLE USES "TABPLACE" (THREE APART).
000613: 20,3421           54146                           TS       TABPLACE
000614:
000615:                                                                                                  #  TEST ABVAL(AOS   ) - 0.02 RADIANS/SECOND(2) GREATER THAN ZERO:
000616:                                                                                                  #                Q,R
000617:
000618: 20,3422           50144                           INDEX    JOBAXES                               #  FORM ABVAL(AOS   ) AND SAVE FOR INVACC.
000619: 20,3423           11652                           CCS      AOSQ                                  #                Q,R
000620: 20,3424           67755                           AD       ONE
000621: 20,3425           13427                           TCF      +2
000622: 20,3426           67755                           AD       ONE
000623: 20,3427           54151                           TS       TEMPNET
000624: 20,3430           63325                           AD       -.02R/S2                              #  -0.02 RADIANS/SECOND(2) AT PI/2.
000625: 20,3431           00006                           EXTEND
000626: 20,3432           63640                           BZMF     FIFTY3                                #  (BRANCH FOR CONSTANT VALUE OF INVERSE.)
000627:
000628:                                                                                                  #  CALCULATE 1/AMIN    = 1/ABVAL(AOS   ):
000629:                                                                                                  #                  Q,R              Q,R
000630:
000631: 20,3433           03644                           TC       INVACC                                #  (USE SUBROUTINE FOR INVERSE.)
000632:
000633: 20,3434           50144        FIFTY3R            INDEX    JOBAXES
000634: 20,3435           55713                           TS       1/AMINQ                               #  SAVE FOR USE BY URGENCY CALCULATIONS.
000635:
000636:                                                                                                  #  TEST 2(1JACC   ) - ABVAL(AOS   ) - 0.02 RADIANS/SECOND(2) GREATER THAN ZERO:
000637:                                                                                                  #              Q,R             Q,R
000638:
000639: 20,3436           40151                           CS       TEMPNET                               #  "TEMPNET" IS ABVAL(AOSQ,R).
000640: 20,3437           63325                           AD       -.02R/S2                              #  -0.02 RADIANS/SECOND(2).
000641: 20,3440           50144                           INDEX    JOBAXES
000642: 20,3441           61613                           AD       1JACCQ                                #  "1JACCQ,R" SCALED AT PI/4 RAD/SEC(2) ARE
000643: 20,3442           00006                           EXTEND                                         #  2(1JACCQ,R) SCALED AT PI/2 RAD/SEC(2).
000644: 20,3443           63503                           BZMF     OVERRIDE
000645:
000646:                                                                                                  #  SET FLAG NOT TO REQUEST MANDATORY FOUR JET OPERATION FOR +Q,+R ROTATION DURING THIS APS BURN (FOR NOW):
000647:
000648: 20,3444           37761                           CAF      ZERO                                  #  NJ = 0 ALLOWS THE URGENCY FUNCTIONS TO
000649: 20,3445           50145                           INDEX    NJPLACE                               #  ACTUALLY SELECT 2 JET ROTATION AS THE
000650: 20,3446           55660                           TS       NJ+Q                                  #  OPTIMAL POLICY.
000651:
000652:                                                                                                  #  TEST SIGN(AOS   ):
000653:                                                                                                  #               Q,R
000654:
000655: 20,3447           50144                           INDEX    JOBAXES                               #  THE SIGN OF AOSQ,R DETERMINES THE RATIO
000656:
000657: 20,3450           31652                           CAE      AOSQ                                  #  TO BE COMPUTED AS THE CORRECTION FACTOR


000659: 20,3451           00006                           EXTEND                                         #  IN THE URGENCY FUNCTION CALCULATION AND
000660: 20,3452           63467                           BZMF     URGRAT2                               #  ALSO SPECIFIES THE CURRECT NJ VALUES.
000661:
000662:                                                                                                  #  FIRST CASE FOR URGENCY RATIO:
000663:
000664: 20,3453           50146        URGRAT1            INDEX    TABPLACE                              #  CHOOSE THE -2 JET NET ACCELERATION
000665: 20,3454           31672                           CAE      1/NET-2Q                              #  INVERSE FOR USE IN URGENCY COMPUTATION.
000666: 20,3455           50144                           INDEX    JOBAXES
000667:
000668: 20,3456           55711                           TS       1/ACCQ
000669:
000670: 20,3457           50146                           INDEX    TABPLACE
000671: 20,3460           31670                           CAE      1/NET+2Q                              #          1/NET+2Q,R
000672: 20,3461           00006                           EXTEND                                         #  RATIO = ----------
000673: 20,3462           50146                           INDEX    TABPLACE                              #          1/NET-2Q,R
000674: 20,3463           11672                           DV       1/NET-2Q
000675: 20,3464           50144                           INDEX    JOBAXES
000676: 20,3465           55717                           TS       URGRATQ
000677:
000678: 20,3466           13526                           TCF      SWITNJS                               #  GO TO SET NJS.
000679:
000680:                                                                                                  #  SECOND CASE FOR URGENCY RATIO:
000681:
000682: 20,3467           50146        URGRAT2            INDEX    TABPLACE                              #  CHOOSE THE +2 JET NET ACCELERATION
000683: 20,3470           31670                           CAE      1/NET+2Q                              #  INVERSE FOR USE IN URGENCY COMPUTATION.
000684: 20,3471           50144                           INDEX    JOBAXES
000685: 20,3472           55711                           TS       1/ACCQ
000686:
000687: 20,3473           50146                           INDEX    TABPLACE
000688: 20,3474           31672                           CAE      1/NET-2Q                              #          1/NET-2Q,R
000689: 20,3475           00006                           EXTEND                                         #  RATIO = ----------
000690: 20,3476           50146                           INDEX    TABPLACE                              #          1/NET+2Q,R
000691:
000692: 20,3477           11670                           DV       1/NET+2Q
000693: 20,3500           50144                           INDEX    JOBAXES
000694: 20,3501           55717                           TS       URGRATQ
000695:
000696: 20,3502           13551                           TCF      NXTNJZER                              #  GO TO SET NJS.
000697:
000698:                                                                                                  #  SET FLAG TO INDICATE MANDATORY USE OF FOUR JETS TO FIGHT THE OFFSET ACCELERATION:
000699:
000700: 20,3503           00004        OVERRIDE           INHINT                                         #  PREVENT POSSIBLY EPHEMERAL MANDATORY NJ
000701:                                                                                                  #  SETTING FROM AFFECTING JET SELECTION.
000702:
000703: 20,3504           37755                           CAF      ONE                                   #  NJ = 1 FORCES THE URGENCY FUNCTIONS TO
000704: 20,3505           50145                           INDEX    NJPLACE                               #  ACTUALLY SELECT 4 JET ROTATION AS THE
000705: 20,3506           55660                           TS       NJ+Q                                  #  OPTIMAL POLICY (TO FIGHT HIS AOS).
000706:
000707:                                                                                                  #  TEST SIGN(AOS   ):
000708:                                                                                                  #               Q,R
000709:
000710: 20,3507           50144                           INDEX    JOBAXES                               #  THE SIGN OF AOSQ,R DETERMINES THE RATIO


000712: 20,3510           31652                           CAE      AOSQ                                  #  TO BE COMPUTED AS THE CORRECTION FACTOR
000713: 20,3511           00006                           EXTEND                                         #  IN THE URGENCY FUNCTION CALCULATION AND
000714: 20,3512           63535                           BZMF     URGRAT4                               #  ALSO SPECIFIES THE CORRECT NJ VALUES.
000715:
000716:                                                                                                  #  THIRD CASE FOR URGENCY RATIO:
000717:
000718: 20,3513           50146        URGRAT3            INDEX    TABPLACE                              #  CHOOSE THE -4 JET NET ACCELERATION
000719: 20,3514           31673                           CAE      1/NET-4Q                              #  INVERSE FOR USE IN URGENCY COMPUTATION.
000720: 20,3515           50144                           INDEX    JOBAXES
000721: 20,3516           55711                           TS       1/ACCQ
000722:
000723: 20,3517           50146                           INDEX    TABPLACE
000724: 20,3520           31670                           CAE      1/NET+2Q                              #          1/NET+2Q,R
000725: 20,3521           00006                           EXTEND                                         #  RATIO = ----------
000726:
000727: 20,3522           50146                           INDEX    TABPLACE                              #          1/NET-4Q,R
000728: 20,3523           11673                           DV       1/NET-4Q
000729: 20,3524           50144                           INDEX    JOBAXES
000730: 20,3525           55717                           TS       URGRATQ
000731:
000732:                                                                                                  #  RESET VALUES OF NJS FOR Q,R-AXIS:
000733:
000734: 20,3526           37761        SWITNJS            CAF      ZERO                                  #  SET NJ      = NJ      (FROM ABOVE)
000735: 20,3527           50145                           INDEX    NJPLACE                               #        -Q,-R     +Q,+R
000736: 20,3530           57660                           XCH      NJ+Q                                  #  AND
000737: 20,3531           50145                           INDEX    NJPLACE                               #      NJ      = 0.
000738: 20,3532           55661                           TS       NJ-Q                                  #        +Q,+R
000739:
000740: 20,3533           00003                           RELINT                                         #  SINCE NJS NOW VALID, ALLOW INTERRUPTS.
000741:
000742: 20,3534           13556                           TCF      UVJOB                                 #  GO PROCESS U- AND V-AXIS.
000743:
000744:                                                                                                  #  FOURTH CASE FOR URGENCY RATIO:
000745:
000746: 20,3535           00003        URGRAT4            RELINT                                         #  SINCE ALL NJS ALREADY SET ARE NOW KNOWN
000747:                                                                                                  #  TO BE VALID, ALLOW INTERRUPTS.
000748:
000749: 20,3536           50146                           INDEX    TABPLACE                              #  CHOOSE THE +4 JET NET ACCELERATION
000750:
000751: 20,3537           31671                           CAE      1/NET+4Q                              #  INVERSE FOR USE IN URGENCY COMPUTATION.
000752: 20,3540           50144                           INDEX    JOBAXES
000753: 20,3541           55711                           TS       1/ACCQ
000754:
000755: 20,3542           50146                           INDEX    TABPLACE
000756: 20,3543           31672                           CAE      1/NET-2Q                              #          1/NET-2Q,R
000757: 20,3544           00006                           EXTEND                                         #  RATIO = ----------
000758: 20,3545           50146                           INDEX    TABPLACE                              #          1/NET+4Q,R
000759: 20,3546           11671                           DV       1/NET+4Q
000760: 20,3547           50144                           INDEX    JOBAXES
000761: 20,3550           55717                           TS       URGRATQ
000762:
000763:                                                                                                  #  SET NJ FOR NEGATIVE ROTATIONS:
000764:


000766: 20,3551           37761        NXTNJZER           CAF      ZERO                                  #  SET NJ      = 0  TO LET THE URGENCY
000767: 20,3552           50145                           INDEX    NJPLACE                               #        -Q,-R      FUNCTIONS SELECT 2 JET
000768: 20,3553           55661                           TS       NJ-Q                                  #                   -Q,-R ROTATION
000769:
000770:                                                                                                  #  TEST FOR END OF Q,R-AXES LOOP:
000771:
000772: 20,3554           10144                           CCS      JOBAXES                               #  JOBAXES = 1 MEANS GO DO Q-AXIS.
000773: 20,3555           13415                           TCF      QRJOB                                 #  JOBAXES = 0 MEANS GO DO U,V-AXES.
000774:


000776:                                                                                                  #  AFTER Q,R-AXES COMPLETE, DO U,V-AXES LOOP:
000777:
000778: 20,3556           37755        UVJOB              CAF      ONE                                   #  SET UP THE TABLE INDICES:
000779: 20,3557           54144        UJOB               TS       JOBAXES
000780: 20,3560           60000                           DOUBLE                                         #  AOS TABLE USES "JOBAXES" (ADJACENT).
000781: 20,3561           54145                           TS       NJPLACE                               #  NJ  TABLE USES "NJPLACE" (ONE APART).
000782:
000783:                                                                                                  #  TEST ON ABVAL(AOS   ) - 0.02 RADIANS/SECOND(2) GREATER THAN ZERO:
000784:                                                                                                  #                   U,V
000785:
000786:                                                                                                  #               U,V            U,V
000787:
000788: 20,3562           50144                           INDEX    JOBAXES                               #  CALCULATE ABVAL(AOS   ) SCALED AT PI/2.
000789: 20,3563           11654                           CCS      AOSU                                  #                     U,V
000790: 20,3564           67755                           AD       ONE
000791: 20,3565           13567                           TCF      +2
000792: 20,3566           67755                           AD       ONE
000793: 20,3567           54151                           TS       TEMPNET                               #  SVAE ABVAL(AOSU,V) FOR USE BY INVACC.
000794: 20,3570           63325                           AD       -.02R/S2                              #  -0.02 RADIANS/SECOND(2) SCALED AT PI/2
000795: 20,3571           00006                           EXTEND
000796: 20,3572           63642                           BZMF     FIFTY4                                #  (BRANCH FOR CONSTANT VALUE OF INVERSE.)
000797:
000798: 20,3573           03644                           TC       INVACC
000799: 20,3574           50144        FIFTY4R            INDEX    JOBAXES
000800: 20,3575           55715                           TS       1/AMINU                               #  SCALED AT 2(+8)/PI SECONDS(2)/RADIAN.
000801:
000802:                                                                                                  #  TEST ON IJACC    - ABVAL(AOS   ) - 0.02 RADIANS/SECOND(2) GREATER THAN ZERO:
000803:                                                                                                  #               U,V            U,V
000804:
000805: 20,3576           40151                           CS       TEMPNET                               #  -ABVAL(AOSU,V) SCALED AT PI/2 RAD/SEC(2)
000806: 20,3577           63325                           AD       -.02R/S2                              #  -0.02 RADIANS/SECOND(2) SCALED AT PI/2.
000807: 20,3600           50144                           INDEX    JOBAXES
000808: 20,3601           61615                           AD       1JACCU                                #  1 JET U,V-AXIS ACCELERATION AT PI/2.
000809: 20,3602           00006                           EXTEND
000810: 20,3603           63606                           BZMF     RIDEOVER
000811:
000812:                                                                                                  #  SET NJ      = 0.
000813:                                                                                                  #        +U,+V
000814:
000815: 20,3604           37761                           CAF      ZERO                                  #  ALLOW URGENCY FUNCTIONS TO ACTUALLY
000816: 20,3605           13610                           TCF      +3                                    #  SELECT 2 JET OPTIONAL ROTATION.
000817:
000818:                                                                                                  #  SET NJ      = 1.
000819:                                                                                                  #        +U,+V
000820:
000821: 20,3606           00004        RIDEOVER           INHINT                                         #  PREVENT POSSIBLE EPHEMERAL MANDATORY NJ
000822:                                                                                                  #  SETTING FROM AFFECTING JET SELECTION.
000823:
000824: 20,3607           37755                           CAF      ONE                                   #  NJ = 1 FORCES THE URGENCY FUNCTIONS TO
000825: 20,3610           50145                           INDEX    NJPLACE                               #  ACTUALLY SELECT 2 JET MANDATORY ROTATION


000827: 20,3611           55664                           TS       NJ+U                                  #  AS OPTIMAL POLICY (TO FIGHT HIGH AOS).
000828:
000829:                                                                                                  #  TEST SIGN(AOS   ):
000830:                                                                                                  #               U,V
000831:
000832: 20,3612           50144                           INDEX    JOBAXES                               #  IF GREATER THAN ZERO, SWITCH NJS.
000833: 20,3613           31654                           CAE      AOSU
000834: 20,3614           00006                           EXTEND                                         #  IF LESS THAN ZERO, SET NJ      = 0.
000835:
000836: 20,3615           63625                           BZMF     ZERNJNXT                              #                           -U,-V
000837:
000838: 20,3616           37761                           CAF      ZERO                                  #  SET NJ      = NJ      (FROM ABOVE)
000839: 20,3617           50145                           INDEX    NJPLACE                               #        -U,-V     +U,+V
000840: 20,3620           57664                           XCH      NJ+U                                  #  AND
000841: 20,3621           50145                           INDEX    NJPLACE                               #      NJ      = 0.
000842: 20,3622           55665                           TS       NJ-U                                  #        +U,+V
000843:
000844: 20,3623           00003                           RELINT                                         #  ALLOW INTERRUPTS AS SOON AS NJS STABLE.
000845:
000846: 20,3624           13631                           TCF      VJOBTEST                              #  GO TO TEST FOR END OF LOOP.
000847:
000848: 20,3625           00003        ZERNJNXT           RELINT                                         #  ALLOW INTERRUPTS SINCE SETTINGS VALID.
000849:
000850: 20,3626           37761                           CAF      ZERO                                  #  SET NJ     = 0.
000851: 20,3627           50145                           INDEX    NJPLACE                               #        -U,-V
000852: 20,3630           55665                           TS       NJ-U
000853:
000854:                                                                                                  #  TEST FOR END OF UV-AXES LOOP:
000855:
000856: 20,3631           10144        VJOBTEST           CCS      JOBAXES                               #  JOBAXES = 1 MEANS GO DO U-AXIS.
000857: 20,3632           13557                           TCF      UJOB                                  #  JOBAXES = 0 MEANS QUIT
000858: 20,3633           15605                           TCF      ENDOFJOB
000859:
000860:
000861:                                                                                                  #  THE FOLLOWING BRANCHES SUPPLY CONSTANT VALUES:
000862:
000863: 20,3634           33326        FIFTY1             CAF      ACCFIFTY
000864: 20,3635           13346                           TCF      FIFTY1R
000865:
000866: 20,3636           33326        FIFTY2             CAF      ACCFIFTY
000867: 20,3637           13361                           TCF      FIFTY2R
000868:
000869: 20,3640           33326        FIFTY3             CAF      ACCFIFTY
000870: 20,3641           13434                           TCF      FIFTY3R
000871:
000872: 20,3642           33326        FIFTY4             CAF      ACCFIFTY
000873: 20,3643           13574                           TCF      FIFTY4R


000875:                                                                                                  #  SUBROUTINE NAME: INVACC         MOD. NO. 0  DATE: DECEMBER 3, 1966
000876:
000877:                                                                                                  #  AUTHOR: JONATHAN D. ADDELSTON (ADAMS ASSOCIATES)
000878:
000879:                                                                                                  #  THIS SUBROUTINE IS CALLED BY AOSJOB TO CALCULATE:
000880:
000881:                                                                                                  #                 0.5    WHERE TEMPNET IS SCALED AT PI/2 RADIANS/SECOND(2)
000882:                                                                                                  #      C(A) =   -------
000883:                                                                                                  #                        AND THE FRACTION IS SCALED AT 2(+8)/PI SEC(2)/RAD.S(2)/RADIAN.
000884:
000885:                                                                                                  #  THIS SIMPLE COMPUTATION WAS SUBROUTINIZED DUE TO ITS FREQUENT USE.
000886:
000887:                                                                                                  #  CALLING SEQUENCE: TC  INVACC
000888:
000889:                                                                                                  #  SUBROUTINES CALLED: NONE.       NORMAL EXIT MODE: ONE INSTRUCTION AFTER CALL.
000890:
000891:                                                                                                  #  ALARM OR ABORT EXIT MODES: NONE.
000892:
000893:                                                                                                  #  INPUT: TEMPNET SCALED AT PI/2 RADIANS/SECONDS(2).
000894:
000895:                                                                                                  #  OUTPUT: C(A) SCALED AT 2(+8)/PI SECONDS(2)/RADIAN.
000896:
000897:                                                                                                  #  DEBRIS: L,Q.
000898:
000899: 20,3644           37747        INVACC             CAF      BIT7                                  #  BIT7 IS USED AS THE NUMERATOR 0.5 SINCE
000900: 20,3645           22007                           ZL
000901: 20,3646           00006                           EXTEND                                         #  "TEMPNET" IS SCALED AT PI/2 AND THE
000902: 20,3647           10151                           DV       TEMPNET
000903: 20,3650           00002                           TC       Q                                     #  INVERSE IS SCALED AT 2(+8)/PI.

End of include-file AOSTASK_AND_AOSJOB.agc.  Parent file is MAIN.agc


