
Source Code


000002:                                                                                                  ## Copyright:   Public domain.
000003:                                                                                                  ## Filename:    AOSTASK_AND_AOSJOB.agc
000004:                                                                                                  ## Purpose:     A section of Sunburst revision 37, or Shepatin revision 0.
000005:                                                                                                  ##              It is part of an early development version of the software
000006:                                                                                                  ##              for Apollo Guidance Computer (AGC) on the unmanned Lunar
000007:                                                                                                  ##              Module (LM) flight Apollo 5. Sunburst 37 was the program
000008:                                                                                                  ##              upon which Don Eyles's offline development program Shepatin
000009:                                                                                                  ##              was based; the listing herein transcribed was actually for
000010:                                                                                                  ##              the equivalent revision 0 of Shepatin.
000011:                                                                                                  ##              This file is intended to be a faithful transcription, except
000012:                                                                                                  ##              that the code format has been changed to conform to the
000013:                                                                                                  ##              requirements of the yaYUL assembler rather than the
000014:                                                                                                  ##              original YUL assembler.
000015:                                                                                                  ## Reference:   pp. 569-590
000016:                                                                                                  ## Assembler:   yaYUL
000017:                                                                                                  ## Contact:     Ron Burkey <info@sandroid.org>.
000018:                                                                                                  ## Website:     www.ibiblio.org/apollo/index.html
000019:                                                                                                  ## Mod history: 2017-05-24 MAS  Created from Sunburst 120.
000020:                                                                                                  ##              2017-06-09 RSB  Transcribed.
000021:                                                                                                  ##              2017-06-14 HG   Add missing label STCTR1
000022:


000024:                                                                                                  #  PROGRAM NAME: AOSTASK           MOD. NO. 1  DATE: NOVEMBER 20, 1966
000025:
000026:                                                                                                  #  AUTHOR: JONATHAN D. ADDELSTON (ADAMS ASSOCIATES)
000027:
000028:                                                                                                  #  THIS "WAITLIST TASK" IS EXECUTED EVERY 2 SECONDS DURING ASCENT (APS) BURNS.  IT ESTIMATES THE ACCELERATION DUE
000029:                                                                                                  #  TO THE ENGINE OFF-SET.  TO USE THESE ESTIMATES, IT ALSO CALCULATES TERMS TO ADD INTO THE LM DAP RATE DERIVATION
000030:                                                                                                  #  AND WEIGHTING FACTORS FOR THE ESTIMATE OF AOS AND FOR THE RATE DERIVATION.  FINALLY, IT ALSO SETS UP "AOSJOB"
000031:                                                                                                  #  THROUGH THE EXECUTIVE TO CALCULATE FUMCTIONS OF THE AOS.
000032:
000033:                                                                                                  #  CALLING SEQUENCE:
000034:
000035:                                                                                                  #                                          L -1     CAF    2SECSDAP
000036:                                                                                                  #                                          L        TC     WAITLIST
000037:                                                                                                  #                                                   EBANK= AOSQ
000038:                                                                                                  #                                          L +1, +2 2CADR  AOSTASK
000039:                                                                                                  #                                          L +3    (RETURN)
000040:
000041:                                                                                                  #  NORMAL EXIT MODE: "TASKOVER"    ALARM/ABORT MODE: NONE.
000042:
000043:                                                                                                  #  INPUT  APSGOING/DAPBOOLS
000044:                                                                                                  #         AOSQ,AOSR
000045:                                                                                                  #         COEFCTR
000046:                                                                                                  #         OLDWFORQ,OLDWFORR
000047:                                                                                                  #         SUMRATEQ,SUMRATER
000048:                                                                                                  #         OMEGAQ,OMEGAR
000049:
000050:                                                                                                  #  OUTPUT AOSQ,AOSR,AOSU,AOSV
000051:                                                                                                  #         AOSQTERM,AOSRTERM
000052:                                                                                                  #         SUMRATEQ,SUMRATER
000053:                                                                                                  #         KCOEFCTR
000054:
000055:                                                                                                  #  DEBRIS: A,L,ITEMP1,ITEMP2.
000056:
000057:                                                                                                  #  THE FOLLOWING LM DAP ERASABLES ARE ZEROED IN THE STARTDAP SECTION OF THE DAPIDLER PROGRAM AND THE COASTASC
000058:                                                                                                  #  SECTION OF THE AOSTASK.  THE ORDER MUST BE PRESERVED FOR THE INDEXING METHODS WHICH ARE EMPLOYED IN THOSE
000059:                                                                                                  #  SECTIONS AND ELSEWHERE.
000060:
000061:                                                                                                  #                                          AOSQ     ERASE   +3             ASCENT OFFSET ACCELERATION ESTIMATES:
000062:                                                                                                  #                                          AOSR     EQUALS AOSQ +1         ESTIMATED EVERY 2 SECONDS BY AOSTASK.
000063:                                                                                                  #                                          AOSU     EQUALS AOSQ +2         U,V-AXES ACCS FORMED BY VECTOR ADDITION.
000064:                                                                                                  #                                          AOSV     EQUALS AOSQ +3         SCALED AT PI/2 RADIANS/SECOND(2).
000065:
000066:                                                                                                  #                                          AOSQTERM ERASE   +1             (.1-.05K)AOS
000067:                                                                                                  #                                          AOSRTERM EQUALS AOSQTERM +1     SCALED AT PI/4 RADIANS/SECOND.
000068:
000069:                                                                                                  #                                          NJ+Q     ERASE   +7             2 JET OVER-RIDE FLAGS:
000070:                                                                                                  #                                          NJ-Q     EQUALS NJ+Q +1         WHENEVER THE OFFSET ACCELERATION ABOUT
000071:                                                                                                  #                                          NJ+R     EQUALS NJ+Q +2         AN AXIS IS SO HIGH THAT 2 JETS COULD NOT
000072:                                                                                                  #                                          NJ-R     EQUALS NJ+Q +3         CONTROL ATTITUDE SUCCESSFULLY, THEN NJ
000073:                                                                                                  #                                          NJ+U     EQUALS NJ+Q +4         FOR THAT AXIS (IN THE DIRECTION OPPOSING


000075:                                                                                                  #                                          NJ-U     EQUALS NJ+Q +5         AOS) IS SET TO 1.  OTHERWISE, THE VALUE
000076:                                                                                                  #                                          NJ+V     EQUALS NJ+Q +6         IS ZERO.  THESE FLAGS PREVENT TWO JETS
000077:                                                                                                  #                                          NJ-V     EQUALS NJ+Q +7         FROM BEING REQUESTED TO FIGHT THE AOS.
000078:


000080:
000081:                                                                                                  #  AOSTASK IS EXECUTED ONLY DURING POWERED ASCENT.  IF NO LONGER IN POWERED ASCENT, STOP THE CYCLING OF AOSTASK AND
000082:                                                                                                  #  SET UP VARIABLES FOR COASTING ASCENT.
000083:
000084: 20,3112                                           BANK     20
000085: 20,3112  E6,1652                                  EBANK=   AOSQ
000086:
000087: 20,3112           37746        AOSTASK            CAF      APSGOING                              #  TEST POWERED ASCENT FLAG:
000088: 20,3113           70077                           MASK     DAPBOOLS                              #  0: NOT POWERED ASCENT (ASCENT COAST)
000089: 20,3114           00006                           EXTEND                                         #  1: POWERED ASCENT
000090: 20,3115           13275                           BZF      COASTASC                              #  (END CYCLE OF TASKS DURING ASCENT COAST)
000091:
000092:                                                                                                  #  KEEP TRACK OF LENGTH OF BURN FOR DETERMINATION OF WEIGHTING FACTOR K:
000093:
000094: 20,3116           31644                           CAE      KCOEFCTR                              #  TEST KCOEFCTR FOR INITIAL PASS.
000095: 20,3117           00006                           EXTEND
000096: 20,3120           13255                           BZF      ZEROCOEF                              #  GO TO DISCONTINUITY SECTION FOR COEFFA.
000097:
000098: 20,3121           63313                           AD       DEC-399                               #  TEST KCOEFCTR FOR CONSTANT RANGE WHICH
000099: 20,3122           00006                           EXTEND                                         #  OCCURS WHEN DURATION OF BURN IS EQUAL TO
000100:
000101: 20,3123           63125                           BZMF     +2                                    #  OR GREATER THAN 400 SECONDS.  (SINCE
000102: 20,3124           13261                           TCF      KONENOW                               #  KCOEFCTR IS EVEN, 399 IS THE BREAK PT.)
000103:
000104:                                                                                                  #  FORM WEIGHTING FACTOR FOR ASCENT OFFSET ACCELERATION FILTER:  COEFFA = 0.00125(T) + 0.25
000105:
000106: 20,3125           33302                           CAF      0.00125                               #  COEFFA = 0.00125(T) + 0.25
000107: 20,3126           00006                           EXTEND
000108: 20,3127           71644                           MP       KCOEFCTR                              #  KCOEFCTR = T SCALED AT 2(+14)
000109: 20,3130           37741                           CAF      BIT13                                 #  (BIT13 = 1/4 = 0.25 SCALED AT 1.)
000110: 20,3131           60001                           AD       L
000111: 20,3132           54062        COEFFAST           TS       COEFFA                                #  (VOLATILE STORAGE.)
000112:
000113:                                                                                                  #  FORM WEIGHTING FACTOR FOR RATE DERIVATION: K = 0.0014(T) + 0.44
000114:
000115: 20,3133           33303                           CAF      0.0014                                #  K = 0.0014(T) + 0.44
000116: 20,3134           00006                           EXTEND
000117: 20,3135           71644                           MP       KCOEFCTR                              #  KCOEFCTR = T SCALED AT 2(+14)
000118: 20,3136           33310                           CAF      0.44
000119: 20,3137           60001                           AD       L
000120: 20,3140           54061                           TS       K                                     #  (VOLATILE STORAGE.)
000121: 20,3141           40000                           COM
000122: 20,3142           67735                           AD       POSMAX                                #  (1 BIT ERROR DOES DOES NOT COMPOUND.)
000123: 20,3143           55636                           TS       (1-K)                                 #  (1-K) SCALED AT 1.
000124:
000125: 20,3144           00006                           EXTEND
000126: 20,3145           77742                           MP       BIT12
000127: 20,3146           55637                           TS       (1-K)/8                               #  (1-K)/8 IS (1-K) SCALED AT 8.
000128:
000129: 20,3147           30061                           CAE      K                                     #  WFORP = WFORQR = K/DT = K/.1 = 10K
000130: 20,3150           00006                           EXTEND                                         #  SCALED AT 16/SECOND.
000131: 20,3151           73311                           MP       0.625                                 #  (CHANGES SCALE FACTOR FROM 1 TO 16/SEC.)


000133: 20,3152           55634                           TS       WFORP                                 #  WFORP IS IDENTICAL WFORQR EXCEPT FOR THE
000134: 20,3153           55635                           TS       WFORQR                                #  INITIALIZATION IN STARTDAP OF DAPIDLER.
000135:
000136: 20,3154           40061                           CS       K                                     #  FORM (.1-.05K) FROM K SCALED AT 1 FOR
000137: 20,3155           00006                           EXTEND                                         #  THE TORQUE VECTOR RECONSTRUCTION AND
000138: 20,3156           73305                           MP       0.05                                  #  ALSO FORM (.1-.05K) SCALED AT 1/2 FOR
000139: 20,3157           63306                           AD       0.1                                   #  THE OFFSET ACCELERATION TERM IN THE RATE
000140: 20,3160           60000                           DOUBLE                                         #  EBANK6 FOR USE IN T5RUPT WHILE THE
000141: 20,3161           54061                           TS       .1-.05K                               #  LATTER IS VOLATILE AND USED IN THIS TASK
000142:
000143:                                                                                                  #  BEGIN ESTIMATE OF OFFSET ACCELERATION FOR Q,R-AXES:
000144:
000145: 20,3162           30062        COEFFA1            CAE      COEFFA                                #  FORM COEFFA(AOSQ):
000146: 20,3163           00006                           EXTEND
000147: 20,3164           71652                           MP       AOSQ                                  #  FIRST TERM OF NEW AOSQ ESTIMATE:
000148: 20,3165           55652                           TS       AOSQ                                  #  SCALED AT PI/2 RADIANS/SECOND(2).
000149:
000150: 20,3166           30062                           CAE      COEFFA                                #  FORM COEFFA(AOSR):
000151: 20,3167           00006                           EXTEND
000152: 20,3170           71653                           MP       AOSR                                  #  FIRST TERM OF NEW AOSR ESTIMATE:
000153: 20,3171           55653                           TS       AOSR                                  #  SCALED AT PI/2 RADIANS/SECOMD(2).
000154:
000155: 20,3172           40062                           CS       COEFFA                                #  FORM .5(1-COEFFA) SCALED AT 2 FROM THE
000156: 20,3173           00006                           EXTEND                                         #  COEFFA SCALED AT 1.  COEFFA IS NOW THE
000157: 20,3174           77741                           MP       BIT13                                 #  SAME AS 2(COEFFA) SCALED AT 2, SO MUST
000158: 20,3175           67741                           AD       BIT13                                 #  MULTIPLY BY 1/4 TO GET .5(COEFFA). THEN,
000159:
000160: 20,3176           54062                           TS       .5-.5COF                              #  ADD 1/4 AS 1/2 SCALED AT 2 FOR RESULT.
000161:
000162:                                                                                                  #  FINISH OFFSET ACCELERATION ESTIMATES:
000163:
000164:                                                                                                  #  AOS  = COEFFA (AOS   ) + .5(1-COEFFA )(OMEGA -OMEGA   -SUMRATE )
000165:                                                                                                  #     T        T     T-2               T       T      T-2        T
000166:
000167: 20,3177           41417                           CS       OMEGAQ                                #  SAVE PRESENT -OMEGAQ FOR NEXT PASS AND
000168: 20,3200           57623                           XCH      OLDWFORQ                              #  PICK UP -(LAST OMEGAQ) FROM OLDWFORQ.
000169: 20,3201           00006                           EXTEND
000170: 20,3202           61621                           SU       SUMRATEQ                              #  FORM: W - OLDW - SUMRATE = SUM (Q-AXIS).
000171: 20,3203           61417                           AD       OMEGAQ                                #  SCALED AT PI/4 RADIANS/SECOND.
000172: 20,3204           00006                           EXTEND
000173: 20,3205           70062                           MP       .5-.5COF                              #  AOSQ = COEFFA(AOSQ)+.5(1-COEFFA)(SUMQ)
000174: 20,3206           27652                           ADS      AOSQ                                  #  SCALED AT PI/2 RADIANS/SECOND(2).
000175:
000176: 20,3207           41421                           CS       OMEGAR                                #  SAVE PRESENT -OMEGAQ FOR NEXT PASS AND
000177: 20,3210           57624                           XCH      OLDWFORR                              #  PICK UP -(LAST OMEGAR) FROM OLDWFORR.
000178: 20,3211           00006                           EXTEND
000179: 20,3212           61622                           SU       SUMRATER                              #  FORM: W - OLDW - SUMRATE = SUM (R-AXIS).
000180: 20,3213           61421                           AD       OMEGAR                                #  SCALED AT PI/4 RADIANS/SECOND.
000181: 20,3214           00006                           EXTEND
000182: 20,3215           70062                           MP       .5-.5COF                              #  AOSR = COEFFA(AOSR)+.5(1-COEFFA)(SUMR)
000183:
000184: 20,3216           27653                           ADS      AOSR                                  #  SCALED AT PI/2 RADIANS/SECOND(2).
000185:


000187:                                                                                                  #  CALCULATE THE OFFSET ACCELERATIONS FOR THE U,V-AXES:
000188:
000189: 20,3217           31652                           CAE      AOSQ                                  #  FIRST, CALCULATE AOSU:
000190: 20,3220           61653                           AD       AOSR
000191: 20,3221           00006                           EXTEND
000192: 20,3222           73312                           MP       0.70711
000193: 20,3223           55654                           TS       AOSU                                  #  SCALED AT PI/2 RADIANS/SECOND(2).
000194:
000195: 20,3224           41652                           CS       AOSQ                                  #  THEN, CALCULATE AOSV:
000196: 20,3225           61653                           AD       AOSR
000197: 20,3226           00006                           EXTEND
000198: 20,3227           73312                           MP       0.70711
000199: 20,3230           55655                           TS       AOSV                                  #  SCALED AT PI/2 RADIANS/SECOND(2).
000200:
000201:                                                                                                  #  FORM TERMS FOR RATE DERIVATION:
000202:
000203: 20,3231           30061                           CAE      .1-.05K                               #  FORM Q-AXIS RATE DERIVATION TERM:
000204: 20,3232           00006                           EXTEND
000205: 20,3233           71652                           MP       AOSQ                                  #  AOSQTERM = (.1-.05K)AOSQ
000206: 20,3234           55656                           TS       AOSQTERM                              #  SCALED AT PI/4 RADIANS/SECOND.
000207:
000208: 20,3235           30061                           CAE      .1-.05K                               #  FORM R-AXIS RATE DERIVATION TERM:
000209: 20,3236           00006                           EXTEND
000210: 20,3237           71653                           MP       AOSR                                  #  AOSRTERM = (.1-.05K)AOSR
000211: 20,3240           55657                           TS       AOSRTERM                              #  SCALED AT PI/4 RADIANS/SECOND.
000212:
000213:                                                                                                  #  SET UP AOS JOB FOR THE NEWEST OFFSET ACCELERATION ESTIMATES:
000214:
000215: 20,3241           34260                           CAF      PRIO24                                #  *** VERIFY PRIORITY. ***
000216: 20,3242           05523                           TC       NOVAC                                 #  SET UP AOSJOB.
000217: 20,3243  E6,1652                                  EBANK=   AOSQ
000218: 20,3243           03327 40006                     2CADR    AOSJOB
000219:
000220:                                                                                                  #  SET ERASABLES FOR NEXT 2 SECOND INTERVAL:
000221:
000222: 20,3245           37754                           CAF      TWO                                   #  INCREMENT BURN DURATION TIMER BY 2 SECS.
000223: 20,3246           27644                           ADS      KCOEFCTR
000224:
000225: 20,3247           37761                           CAF      ZERO                                  #  INITIALIZE SUMS OF JETRATES.
000226: 20,3250           55621                           TS       SUMRATEQ
000227: 20,3251           55622                           TS       SUMRATER
000228:
000229:                                                                                                  #  SET UP NEXT WAITLIST AOSTASK FOR 2 SECONDS FROM NOW:
000230:
000231: 20,3252           33316                           CAF      2SECSDAP
000232: 20,3253           05722                           TC       VARDELAY                              #  (STORAGE-SAVING WAITLIST CALL.)
000233: 20,3254           13112                           TCF      AOSTASK                               #  RETURNS HERE IN TWO SECONDS.
000234:


000236:                                                                                                  #  SPECIAL DISCONTINUITY SECTION FOR COEFFA ON FIRST PASS:
000237:
000238: 20,3255           37754        ZEROCOEF           CAF      TWO                                   #  INITIALIZE BURN DURATION TIMER TO TWO
000239: 20,3256           55644                           TS       KCOEFCTR                              #  SECONDS FOR THE DERIVATION OF K.
000240:
000241: 20,3257           37761                           CAF      ZERO                                  #  FOR THE FIRST PASS, SET COEFFA TO ZERO
000242: 20,3260           13132                           TCF      COEFFAST                              #  SINCE AOS ESTIMATES ARE NOW USELESS.
000243:
000244:                                                                                                  #  SPECIAL K AND COEFFA SETTINGS FOR BURNS LASTING 400 SECONDS OR MORE:
000245:
000246: 20,3261           00006        KONENOW            EXTEND                                         #  K=1, SO 1-K AT EITHER SCALING IS ZERO.
000247: 20,3262           33315                           DCA      DPZEROX                               #  (1-K)   SCALED AT 1.
000248: 20,3263           53637                           DXCH     (1-K)                                 #  (1-K)/8 SCALED AT 8.
000249:
000250: 20,3264           33311                           CAF      0.625                                 #  WFORP = WFORQR = K/DT = K/.1 = 10K = 10
000251: 20,3265           55634                           TS       WFORP                                 #  SCALED AT 16/SECOND.
000252: 20,3266           55635                           TS       WFORQR
000253:
000254: 20,3267           33305                           CAF      0.05                                  #  (.1-.05K) = 0.05
000255: 20,3270           60000                           DOUBLE                                         #  (DOUBLING SAVES CONSTANT STORAGE.)
000256: 20,3271           54061                           TS       .1-.05K                               #  SCALED AT 1/2. (VOLATILE STORAGE.)
000257:
000258: 20,3272           35226                           CAF      BIT13-14                              #  COEFFA = 0.75
000259: 20,3273           54062                           TS       COEFFA                                #  SCALED AT 1.   (VOLATILE STORAGE.)
000260:
000261: 20,3274           13162                           TCF      COEFFA1                               #  GO BEGIN OFFSET ACCELERATION ESTIMATE.
000262:
000263:                                                                                                  #  SHUT-DOWN PROCEDURE AFTER ASCENT COAST DETECTION:
000264:
000265: 20,3275           34260        COASTASC           CAF      PRIO24                                #  *** VERIFY PRIORITY. ***
000266: 20,3276           05523                           TC       NOVAC                                 #  SET UP FINAL AOSJOB FOR THIS APS BURN.
000267: 20,3277  E6,1652                                  EBANK=   AOSQ
000268: 20,3277           03327 40006                     2CADR    AOSJOB
000269:
000270: 20,3301           15745                           TCF      TASKOVER                              #  END AOSTASK CYCLING FOR THIS APS BURN.
000271:


000273:                                                                                                  #  CONSTANTS FOR AOSTASK:
000274:
000275: 20,3302           00024        0.00125            DEC      0.00125
000276: 20,3303           00027        0.0014             DEC      0.0014
000277: 20,3304           00111        0.00444            DEC      0.00444
000278: 20,3305           01463        0.05               DEC      0.05
000279: 20,3306           03146        0.1                DEC      0.1
000280: 20,3307           12000        0.3125             DEC      0.3125
000281: 20,3310           16051        0.44               DEC      0.44
000282: 20,3311           24000        0.625              DEC      0.625
000283: 20,3312           26501        0.70711            DEC      0.70711
000284: 20,3313           77160        DEC-399            DEC      -399       B-14
000285: 20,3314           00000 00000  DPZEROX            2DEC     0          B-28
000286:
000287: 20,3316           00310        2SECSDAP           DEC      200        B-14
000288: 20,3317           20000        (1-K)S             DEC      0.5
000289: 20,3320           02000                           DEC      0.0625
000290:


000292:                                                                                                  #  PROGRAM NAME: WCHANGER          MOD. NO. 0  DATE: DECEMBER 9, 1966
000293:
000294: 20,3321           15745                           TCF      TASKOVER
000295:
000296:                                                                                                  #  THIS PROGRAM IS A WAITLIST TASK WHICH IS INITIATED FROM THE STARTDAP SECTION OF DAPIDLER.  IT IS EXECUTED
000297:                                                                                                  #  BETWEEN THE FIRST Q,R-AXES T5RUPT AND THE SECOND P-AXIS T5RUPT (I.E. 180 MS AFTER STARTDAP).  THE PURPOSE OF
000298:                                                                                                  #  WCHANGER IS TO RESET THE VARIABLE K (IN ALL ITS FORMS) FOR THE RATE DERIVATION FROM 1 TO 0.5.  (IT ALSO SETS THE
000299:                                                                                                  #  NOMINAL LM DAP DT TO 100 MS.)
000300:
000301:                                                                                                  #  CALLING SEQUENCE (FROM STARTDAP):
000302:
000303:                                                                                                  #                                          L -1     CAF    180MS
000304:                                                                                                  #                                          L        TC     WAITLIST
000305:                                                                                                  #                                                   EBANK= WFORQR
000306:                                                                                                  #                                          L +1     2CADR  WCHANGER
000307:                                                                                                  #                                          L +2    (BBCON)
000308:                                                                                                  #                                          L +3    (RETURN)
000309:
000310:                                                                                                  #  SUBROUTINES CALLED: WCHANGE.    NORMAL EXIT: TASKOVER.
000311:
000312:                                                                                                  #  INPUT: NONE.                    ALARM/ABORT EXITS: NONE.
000313:
000314:                                                                                                  #  OUTPUT: WFORP,WFORQR,(1-K),(1-K)/8.
000315:
000316: 20,3322           05307        WCHANGER           TC       IBNKCALL                              #  (WAITLIST TASK IS IN T3RUPT.)
000317: 20,3323           40106                           FCADR    WCHANGE                               #  SUBROUTINE DOES SETTING TO SAVE SPACE.
000318:
000319: 20,3324           15745                           TCF      TASKOVER                              #  END THIS TASK.
000320:


000322:                                                                                                  #  INERPOLY COMPUTES IXX, IYY, IZZ, AND, IN DESCENT, L,PVT-CG.
000323:                                                                                                  #  AFTER THE INERTIAS ARE COMPUTED, THEY ARE USED TO COMPUTE NEW VALUES OF
000324:                                                                                                  #  1JACC, 1JACCQ, 1JACCR, 1JACCU, 1JACCV AND 1/2JTSP.
000325:                                                                                                  #  INERPOLY EXITS BY .... TCF ENDOFJOB
000326:
000327:
000328: 26,2611                                           BANK     26
000329:
000330: 26,2611  E6,1452                                  EBANK=   IXX
000331: 26,2611           37754        INERPOLY           CA       BIT2
000332: 26,2612           00006                           EXTEND
000333: 26,2613           02030                           RAND     30
000334: 26,2614           10000                           CCS      A                                     #  CHOOSES ASCENT OR DESCENT COEF
000335: 26,2615           46301                           CS       THREE
000336: 26,2616           66276                           AD       SIX
000337: 26,2617           55620                           TS       INERCTRX
000338:
000339: 26,2620           37754                           CAF      TWO
000340: 26,2621           55617        STCTR              TS       INERCTR                               #  J=2,1,0 FOR IZZ,IYY,IXX
000341:
000342: 26,2622           00006                           EXTEND
000343: 26,2623           27620                           DIM      INERCTRX                              #  JX=5,4,3 OR 2,1,0 FOR Z,Y,X COEF
000344:
000345: 26,2624           31332        STCTR1             CA       MASS                                  #  IN KGS (+15)
000346: 26,2625           00006                           EXTEND
000347: 26,2626           51620                           INDEX    INERCTRX
000348: 26,2627           72720                           MP       INERCONC
000349: 26,2630           51620                           INDEX    INERCTRX
000350: 26,2631           62727                           AD       INERCONB
000351: 26,2632           00006                           EXTEND
000352: 26,2633           71332                           MP       MASS
000353:
000354: 26,2634           51620                           INDEX    INERCTRX
000355: 26,2635           62736                           AD       INERCONA
000356: 26,2636           51617                           INDEX    INERCTR
000357: 26,2637           55452                           TS       IXX                                   #  I(J)=(C(JX)MASS+B(JX))MASS+A(JX)  (+18)
000358:                                                                                                  #  I(-1)=L,PVT-CG  (+6)
000359:
000360: 26,2640           11617                           CCS      INERCTR                               #  COUNTER 2,1,0,-1
000361: 26,2641           12621                           TCF      STCTR
000362: 26,2642           12644                           TCF      COMMEQS
000363: 26,2643           12711                           TCF      LRESC
000364:
000365: 26,2644           00006        COMMEQS            EXTEND
000366: 26,2645           32745                           DCA      TORKJET                               #  500 FT-LBS. (+16) PI
000367: 26,2646           00006                           EXTEND
000368: 26,2647           11452                           DV       IXX
000369: 26,2650           55612                           TS       1JACC                                 #  SCALED BY PI/4
000370:
000371: 26,2651           00006                           EXTEND
000372: 26,2652           32747                           DCA      TORKJET1                              #  550 FT-LBS. (+16) PI
000373:


000375: 26,2653           00006                           EXTEND
000376: 26,2654           11453                           DV       IYY
000377: 26,2655           55613                           TS       1JACCQ                                #  SCALED BY PI/4
000378:
000379: 26,2656           00006                           EXTEND
000380: 26,2657           32747                           DCA      TORKJET1                              #  550 FT-LBS. (+16) PI
000381: 26,2660           00006                           EXTEND
000382: 26,2661           11454                           DV       IZZ
000383: 26,2662           55614                           TS       1JACCR                                #  SCALED BY PI/4
000384:
000385: 26,2663           61613                           AD       1JACCQ
000386: 26,2664           00006                           EXTEND
000387: 26,2665           72610                           MP       0.35356                               #  .70711 SCALED BY (+1)
000388: 26,2666           55615                           TS       1JACCU
000389:
000390: 26,2667           55616                           TS       1JACCV                                #  SCALED BY PI/4
000391:
000392: 26,2670           32750                           CAF      4JTORK
000393: 26,2671           55441                           TS       1/2JTSP
000394: 26,2672           31452                           CAE      IXX
000395: 26,2673           00006                           EXTEND
000396: 26,2674           11441                           DV       1/2JTSP
000397: 26,2675           60000                           DOUBLE
000398: 26,2676           55441                           TS       1/2JTSP                               #  SCALED BY 1/PI (+8)
000399:
000400: 26,2677           37754                           CAF      BIT2
000401: 26,2700           00006                           EXTEND
000402: 26,2701           02030                           RAND     30
000403: 26,2702           10000                           CCS      A                                     #  COMPUTE L,PVT-CG IF IN DESCENT
000404: 26,2703           12705                           TCF      DES
000405: 26,2704           15605                           TCF      ENDOFJOB
000406:
000407: 26,2705           47755        DES                CS       ONE
000408: 26,2706           55617                           TS       INERCTR
000409: 26,2707           55620                           TS       INERCTRX
000410: 26,2710           12624                           TCF      STCTR1
000411:
000412: 26,2711           31451        LRESC              CA       L,PVT-CG                              #  SCALED BY (+6)
000413:
000414: 26,2712           60000                           DOUBLE
000415: 26,2713           60000                           DOUBLE
000416: 26,2714           60000                           DOUBLE
000417: 26,2715           55451                           TS       L,PVT-CG                              #  SCALED BY (+3)
000418: 26,2716           15605                           TCF      ENDOFJOB
000419:
000420:
000421: 26,2717           30126                           DEC      0.75524                               #  L
000422: 26,2720           00353        INERCONC           DEC      0.01432                               #  XD
000423: 26,2721           52653                           DEC      -0.66136                              #  YD
000424: 26,2722           52136                           DEC      -0.68173                              #  ZD
000425: 26,2723           01502                           DEC      0.05092                               #  XA


000427: 26,2724           53060                           DEC      -0.65325                              #  YA
000428: 26,2725           54667                           DEC      -0.59815                              #  ZA
000429: 26,2726           52265                           DEC      -0.67640                              #  L
000430: 26,2727           05346        INERCONB           DEC      0.17030                               #  XD
000431: 26,2730           25066                           DEC      0.65955                               #  YD
000432: 26,2731           24131                           DEC      0.63041                               #  ZD
000433: 26,2732           05613                           DEC      0.18033                               #  XA
000434: 26,2733           06433                           DEC      0.20478                               #  YA
000435: 26,2734           13626                           DEC      0.36855                               #  ZA
000436: 26,2735           06324                           DEC      0.20044                               #  L
000437: 26,2736           00157        INERCONA           DEC      0.00676                               #  XD
000438: 26,2737           76031                           DEC      -0.06090                              #  YD
000439: 26,2740           76456                           DEC      -0.04403                              #  ZD
000440: 26,2741           77670                           DEC      -0.00435                              #  XA
000441: 26,2742           77743                           DEC      -0.00170                              #  YA
000442: 26,2743           77242                           DEC      -0.02132                              #  ZA
000443:
000444: 26,2744           00047 31173  TORKJET            2DEC     0.002428512
000445:
000446: 26,2746           00053 30441  TORKJET1           2DEC     0.002671365
000447:
000448: 26,2750           23712        4JTORK             DEC      .62170
000449:
000450:                                                                                                  #  Page 580
000451:                                                                                                  #  PROGRAM NAME: AOSJOB            MOD. NO. 0   DATE: DECEMBER 2, 1966
000452:                                                                                                  #  PROGRAM DESIGN BY: RICHARD D. GOSS (MIT/IL)
000453:
000454:                                                                                                  #  IMPLEMENTATION BY: JONATHAN D. ADDELSTON (ADAMS ASSOCIATES)
000455:
000456:                                                                                                  #  THE PROGRAM IS AN EXECUTIVE JOB WHICH CALCULATES THE FOLLOWING QUANTITIES FOR THE LM DAP T5RUPT PROGRAMS:
000457:                                                                                                  #           1. THE INVERSES OF THE NET ACCELERATIONS ABOUT ALL AXES (Q,R,U,V), IN ALL DIRECTIONS (+/-), AND ALL
000458:                                                                                                  #              COMBINATIONS OF JETS (2/4 FOR Q,R AND 1/2 FOR U,V).
000459:                                                                                                  #           2. THE INVERSES OF THE MINIMUM ACCELERATIONS FOR THE URGENCY AND TJETLAW COMPUTATION, DURING APS BURNS.
000460:                                                                                                  #           3. THE INITIAL INVERSE NET ACCELERATIONS USED FOR THE URGENCY COMPUTATION, DURING APS BURNS.
000461:                                                                                                  #           4. THE NJ FLAGS TO REQUIRE MANDATORY JET ACCELERATION DURING APS BURNS.
000462:
000463:                                                                                                  #  CALLING SEQUENCE:               SUBROUTINES CALLED: INVACC.
000464:
000465:                                                                                                  #                                          L -1     CAF    PRIO24
000466:                                                                                                  #                                          L        TC     NOVAC
000467:                                                                                                  #                                                   EBANK= AOSQ
000468:                                                                                                  #                                          L +1     2CADR  AOSJOB
000469:                                                                                                  #                                          L +2    (BBCON)
000470:                                                                                                  #                                          L +3    (RETURN)
000471:
000472:                                                                                                  #  NORMAL EXIT: ENDOFJOB.          ALARM/ABORT EXITS: NONE.
000473:
000474:                                                                                                  #  INPUT: AOSQ,AOSR,AOSU,AOSV,1JACCQ,1JACCR,1JACCU,1JACCV,APSGOING/DAPBOOLS.
000475:
000476:                                                                                                  #  DEBRIS: NONE.
000477:


000479: 20,3325                                           BANK     20
000480: 20,3325  E6,1652                                  EBANK=   AOSQ
000481:
000482: 20,3325           73731        -.02R/S2           DEC      -.12732                               #  -.02 RADIANS/SECOND(2) SCALED AT PI/2
000483: 20,3326           11642        ACCFIFTY           DEC      0.30679                               #  .5(50) SEC(2)/RAD SCALED AT 2(+8)/PI.
000484:
000485:                                                                                                  #  SET UP LOOP FOR FOUR AXES (IN THE ORDER: V,U,R,Q):
000486:
000487: 20,3327           37753        AOSJOB             CAF      FOUR                                  #  "JOBAXES" IS USED TO PICK UP ONE OF FOUR
000488: 20,3330           54144        INVLOOP            TS       JOBAXES                               #  ADJACENT REGISTERS, ALSO TO COUNT LOOP.
000489:
000490:                                                                                                  #  SET UP "TABPLACE" TO STORE 1/NETACC TABLE:
000491:
000492: 20,3331           00006                           EXTEND                                         #  TABPLACE = 4(JOBAXES)
000493: 20,3332           77753                           MP       FOUR                                  #  SINCE THERE ARE FOUR ENTRIES PER AXIS.
000494: 20,3333           22146                           LXCH     TABPLACE
000495:
000496:                                                                                                  #                                                       2
000497:                                                                                                  #             2(1JACC   ) + AOS    - 0.02 RADIANS/SECOND  GREATER THAN ZERO
000498:                                                                                                  #                    Q,R       Q,R
000499:                                                                                                  #          OR                                           2
000500:                                                                                                  #                1JACC    + AOS    - 0.02 RADIANS/SECOND  GREATER THAN ZERO
000501:                                                                                                  #                     U,V      U,V
000502:
000503: 20,3334           50144                           INDEX    JOBAXES                               #  THE INDEXED PICK-UP OF JET ACCELERATIONS
000504: 20,3335           31613                           CAE      1JACCQ                                #  USES THE FOLLOWING HAPPY COINCIDENCE:
000505: 20,3336           54150                           TS       TEMPACC                               #  1JACCU AND 1JACCV ARE SCALED AT PI/2 AS
000506: 20,3337           50144                           INDEX    JOBAXES                               #  ARE AOSU AND AOSV.  1JACCQ AND 1JACCR
000507: 20,3340           61652                           AD       AOSQ                                  #  ARE SCALED AT PI/4 AND THEREFORE ARE
000508: 20,3341           54151                           TS       TEMPNET                               #  EQUIVALENT TO 2(1JACCQ) AND 2(1JACCR)
000509: 20,3342           63325                           AD       -.02R/S2                              #  SCALED AT PI/2, AS ARE AOSQ AND AOSR.
000510: 20,3343           00006                           EXTEND                                         #  -.02R/S2 IS -0.02 RADIANS/SECOND(2),PI/2
000511:
000512: 20,3344           63634                           BZMF     FIFTY1                                #  (BRANCH FOR CONSTANT VALUE OF INVERSE.)
000513:
000514:                                                                                                  #             1/NET+2    = 1/( 2(1JACC   ) + AOS   )
000515:                                                                                                  #                    Q,R              Q,R       Q,R
000516:                                                                                                  #         OR
000517:                                                                                                  #             1/NET+1    = 1/(   1JACC    + AOS   )
000518:                                                                                                  #                    U,V              U,V      U,V
000519:
000520: 20,3345           03644                           TC       INVACC
000521: 20,3346           50146        FIFTY1R            INDEX    TABPLACE
000522: 20,3347           55670                           TS       1/NET+2Q                              #  SCALED AT 2(+8)/PI SECONDS(2)/RADIAN.
000523:
000524:                                                                                                  #                                                       2
000525:                                                                                                  #             2(1JACC   ) - AOS    - 0.02 RADIANS/SECOND  GREATER THAN ZERO
000526:                                                                                                  #                    Q,R       Q,R
000527:                                                                                                  #         OR                                            2
000528:                                                                                                  #               1JACC     - AOS    - 0.02 RADIANS/SECOND  GREATER THAN ZERO
000529:                                                                                                  #                    U,V       U,V
000530:


000532: 20,3350           50144                           INDEX    JOBAXES                               #  THIS SECTION USES THE INDEXING TRICKS OF
000533: 20,3351           41652                           CS       AOSQ                                  #  THE FIRST PART (ABOVE), BUT USES THE
000534: 20,3352           54147                           TS       TEMPAOS                               #  TEMPORARY LOCATIONS AS FOLLOWS:
000535: 20,3353           60150                           AD       TEMPACC                               #  "TEMPAOS" SAVES -AOS FOR THIS AXIS.
000536: 20,3354           54151                           TS       TEMPNET                               #  "TEMPACC" HAS THE JET ACCELERATION.
000537: 20,3355           63325                           AD       -.02R/S2                              #  "TEMPNET" SAVES (JETACC-AOS) FOR DENOM.
000538: 20,3356           00006                           EXTEND                                         #  -.02R/S2 IS -0.02 RADIANS/SECOND(2),PI/2
000539: 20,3357           63636                           BZMF     FIFTY2                                #  (BRANCH FOR CONSTANT VALUE OF INVERSE.)
000540:
000541:                                                                                                  #             1/NET-2    = 1/( 2(1JACC  ) - AOS   )
000542:                                                                                                  #                    Q,R             Q,R       Q,R
000543:                                                                                                  #         OR
000544:                                                                                                  #             1/NET-1    = 1/( 1JACC    - AOS   )
000545:                                                                                                  #                    U,V            U,V      U,V
000546:
000547: 20,3360           03644                           TC       INVACC
000548: 20,3361           50146        FIFTY2R            INDEX    TABPLACE
000549: 20,3362           55672                           TS       1/NET-2Q                              #  SCALED AT 2(+8)/PI SECONDS(2)/RADIAN.
000550:
000551:                                                                                                  #             1/NET-4    = 1/( 4(1ACC    - AOS   )
000552:                                                                                                  #                    Q,R              Q,R       Q,R
000553:                                                                                                  #         OR
000554:                                                                                                  #             1/NET-2    = 1/( 2(1JACC   ) - AOS   )
000555:                                                                                                  #                    U,V              U,V       U,V
000556:
000557: 20,3363           30150                           CAE      TEMPACC                               #  FIRST, FROM 2(1JACCQ,R) FORM 4(1JACCQ,R)
000558: 20,3364           60000                           DOUBLE                                         #  OR FROM 1JACCU,V FORM 2(1JACCU,V) AND
000559: 20,3365           54150                           TS       TEMPACC                               #  SAVE FOR NEXT INVERSE CALCULATION.
000560: 20,3366           60147                           AD       TEMPAOS                               #  THEN, COMPUTE EITHER 4(1JACCQ,R)-AOSQ,R
000561: 20,3367           54151                           TS       TEMPNET                               #  OR 2(1JACCU,V)-AOSU,V SCALED AT PI/2.
000562:
000563: 20,3370           03644                           TC       INVACC
000564: 20,3371           50146                           INDEX    TABPLACE
000565: 20,3372           55673                           TS       1/NET-4Q                              #  SCALED AT 2(+8)/PI SECONDS(2)/RADIAN.
000566:


000568:                                                                                                  #             1/NET+4    = 1/( 4(1ACC    + AOS   )
000569:                                                                                                  #                    Q,R              Q,R       Q,R
000570:                                                                                                  #         OR
000571:                                                                                                  #             1/NET+2    = 1/( 2(1JACC   ) + AOS   )
000572:                                                                                                  #                    U,V              U,V       U,V
000573:
000574: 20,3373           40147                           CS       TEMPAOS                               #  FIRST, COMPUTE EITHER 4(1JACCQ,R)+AOSQ,R
000575: 20,3374           60150                           AD       TEMPACC                               #  OR 2(1JACCU,V)+AOSU,V AND SAVE FOR THE
000576: 20,3375           54151                           TS       TEMPNET                               #  DIVISION (SCALED AT PI/2 RADIANS/SECOND)
000577:
000578: 20,3376           03644                           TC       INVACC
000579: 20,3377           50146                           INDEX    TABPLACE
000580: 20,3400           55671                           TS       1/NET+4Q                              #  SCALED AT 2(+8)/PI RADIANS(2)/SECOND.
000581:
000582:                                                                                                  #  TEST FOR END OF LOOP:
000583:
000584: 20,3401           10144                           CCS      JOBAXES                               #  IF "JOBAXES" PNZ, CONTINUE.
000585: 20,3402           13330                           TCF      INVLOOP                               #  IF "JOBAXES" ZERO, STOP.
000586:
000587:                                                                                                  #  TEST FOR ASCENT PROPULSION SYSTEM BURN:
000588:
000589: 20,3403           37746                           CAF      APSGOING                              #  IF LM IS IN COAST OR IN A DESCENT BURN,
000590: 20,3404           70077                           MASK     DAPBOOLS                              #  THEN THE AOSJOB IS TRIVIAL FROM HERE
000591: 20,3405           10000                           CCS      A                                     #  AND THIS TEST REDUCES THE COMPUTATION
000592: 20,3406           13414                           TCF      ASCJOB                                #  TIME IN THOSE CASES.
000593:
000594:                                                                                                  #  FILL IN DESCENT BURN OR COAST VALUES QUICKLY:
000595:
000596: 20,3407           31670                           CAE      1/NET+2Q                              #  FOR Q-AXIS URGENCY.
000597: 20,3410           55711                           TS       1/ACCQ
000598: 20,3411           31674                           CAE      1/NET+2R                              #  FOR R-AXIS URGENCY.
000599: 20,3412           55712                           TS       1/ACCR
000600:
000601: 20,3413           15605                           TCF      ENDOFJOB                              #  END THIS ITERATION OF AOSJOB.
000602:


000604:                                                                                                  #  IN ASCENT BURN, SO SET UP Q,R-AXES LOOP:
000605:
000606: 20,3414           37755        ASCJOB             CAF      ONE                                   #  SET UP THE TABLE INDICES:
000607: 20,3415           54144        QRJOB              TS       JOBAXES
000608: 20,3416           60000                           DOUBLE                                         #  AOS TABLE USES "JOBAXES"  (ADJACENT).
000609: 20,3417           54145                           TS       NJPLACE                               #  NJ  TABLE USES "NJPLACE"  (ONE APART).
000610: 20,3420           60000                           DOUBLE                                         #  NET TABLE USES "TABPLACE" (THREE APART).
000611: 20,3421           54146                           TS       TABPLACE
000612:
000613:                                                                                                  #  TEST ABVAL(AOS   ) - 0.02 RADIANS/SECOND(2) GREATER THAN ZERO:
000614:                                                                                                  #                Q,R
000615:
000616: 20,3422           50144                           INDEX    JOBAXES                               #  FORM ABVAL(AOS   ) AND SAVE FOR INVACC.
000617: 20,3423           11652                           CCS      AOSQ                                  #                Q,R
000618: 20,3424           67755                           AD       ONE
000619: 20,3425           13427                           TCF      +2
000620: 20,3426           67755                           AD       ONE
000621: 20,3427           54151                           TS       TEMPNET
000622: 20,3430           63325                           AD       -.02R/S2                              #  -0.02 RADIANS/SECOND(2) AT PI/2
000623: 20,3431           00006                           EXTEND
000624: 20,3432           63640                           BZMF     FIFTY3                                #  (BRANCH FOR CONSTANT VALUE OF INVERSE.)
000625:
000626:                                                                                                  #  CALCULATE 1/AMIN    = 1/ABVAL(AOS   ):
000627:                                                                                                  #                  Q,R              Q,R
000628:
000629: 20,3433           03644                           TC       INVACC                                #  (USE SUBROUTINE FOR INVERSE.)
000630:
000631: 20,3434           50144        FIFTY3R            INDEX    JOBAXES
000632: 20,3435           55713                           TS       1/AMINQ                               #  SAVE FOR USE BY URGENCY CALCULATIONS.
000633:
000634:                                                                                                  #  TEST 2(1JACC   ) - ABVAL(AOS   ) - 0.02 RADIANS/SECOND(2) GREATER THAN ZERO:
000635:                                                                                                  #              Q,R             Q,R
000636:
000637: 20,3436           40151                           CS       TEMPNET                               #  "TEMPNET" IS ABVAL(AOSQ,R).
000638: 20,3437           63325                           AD       -.02R/S2                              #  -0.02 RADIANS/SECOND(2).
000639: 20,3440           50144                           INDEX    JOBAXES
000640: 20,3441           61613                           AD       1JACCQ                                #  "1JACCQ,R" SCALED AT PI/4 RAD/SEC(2) ARE
000641: 20,3442           00006                           EXTEND                                         #  2(1JACCQ,R) SCALED AT PI/2 RAD/SEC(2).
000642: 20,3443           63503                           BZMF     OVERRIDE
000643:
000644:                                                                                                  #  SET FLAG NOT TO REQUEST MANDATORY FOUR JET OPERATION FOR +Q,+R ROTATION DURING THIS APS BURN (FOR NOW):
000645:
000646: 20,3444           37761                           CAF      ZERO                                  #  NJ = 0 ALLOWS THE URGENCY FUNCTIONS TO
000647: 20,3445           50145                           INDEX    NJPLACE                               #  ACTUALLY SELECT 2 JET ROTATION AS THE
000648: 20,3446           55660                           TS       NJ+Q                                  #  OPTIMAL POLICY.
000649:
000650:                                                                                                  #  TEST SIGN(AOS   ):
000651:                                                                                                  #               Q,R
000652:
000653: 20,3447           50144                           INDEX    JOBAXES                               #  THE SIGN OF AOSQ,R DETERMINES THE RATIO
000654:
000655: 20,3450           31652                           CAE      AOSQ                                  #  TO BE COMPUTED AS THE CORRECTION FACTOR


000657: 20,3451           00006                           EXTEND                                         #  IN THE URGENCY FUNCTION CALCULATION AND
000658: 20,3452           63467                           BZMF     URGRAT2                               #  ALSO SPECIFIES THE CURRECT NJ VALUES.
000659:
000660:                                                                                                  #  FIRST CASE FOR URGENCY RATIO:
000661:
000662: 20,3453           50146        URGRAT1            INDEX    TABPLACE                              #  CHOOSE THE -2 JET NET ACCELERATION
000663: 20,3454           31672                           CAE      1/NET-2Q                              #  INVERSE FOR USE IN URGENCY COMPUTATION.
000664: 20,3455           50144                           INDEX    JOBAXES
000665:
000666: 20,3456           55711                           TS       1/ACCQ
000667:
000668: 20,3457           50146                           INDEX    TABPLACE
000669: 20,3460           31670                           CAE      1/NET+2Q                              #          1/NET+2Q,R
000670: 20,3461           00006                           EXTEND                                         #  RATIO = ----------
000671: 20,3462           50146                           INDEX    TABPLACE                              #          1/NET-2Q,R
000672: 20,3463           11672                           DV       1/NET-2Q
000673: 20,3464           50144                           INDEX    JOBAXES
000674: 20,3465           55717                           TS       URGRATQ
000675:
000676: 20,3466           13526                           TCF      SWITNJS                               #  GO TO SET NJS.
000677:
000678:                                                                                                  #  SECOND CASE FOR URGENCY RATIO:
000679:
000680: 20,3467           50146        URGRAT2            INDEX    TABPLACE                              #  CHOOSE THE +2 JET NET ACCELERATION
000681: 20,3470           31670                           CAE      1/NET+2Q                              #  INVERSE FOR USE IN URGENCY COMPUTATION.
000682: 20,3471           50144                           INDEX    JOBAXES
000683: 20,3472           55711                           TS       1/ACCQ
000684:
000685: 20,3473           50146                           INDEX    TABPLACE
000686: 20,3474           31672                           CAE      1/NET-2Q                              #          1/NET-2Q,R
000687: 20,3475           00006                           EXTEND                                         #  RATIO = ----------
000688: 20,3476           50146                           INDEX    TABPLACE                              #          1/NET+2Q,R
000689:
000690: 20,3477           11670                           DV       1/NET+2Q
000691: 20,3500           50144                           INDEX    JOBAXES
000692: 20,3501           55717                           TS       URGRATQ
000693:
000694: 20,3502           13551                           TCF      NXTNJZER                              #  GO TO SET NJS.
000695:
000696:                                                                                                  #  SET FLAG TO INDICATE MANDATORY USE OF FOUR JETS TO FIGHT THE OFFSET ACCELERATION:
000697:
000698: 20,3503           00004        OVERRIDE           INHINT                                         #  PREVENT POSSIBLY EPHEMERAL MANDATORY NJ
000699:                                                                                                  #  SETTING FROM AFFECTING JET SELECTION.
000700:
000701: 20,3504           37755                           CAF      ONE                                   #  NJ = 1 FORCES THE URGENCY FUNCTIONS TO
000702: 20,3505           50145                           INDEX    NJPLACE                               #  ACTUALLY SELECT 4 JET ROTATION AS THE
000703: 20,3506           55660                           TS       NJ+Q                                  #  OPTIMAL POLICY (TO FIGHT THE AOS).
000704:
000705:                                                                                                  #  TEST SIGN(AOS   ):
000706:                                                                                                  #               Q,R
000707:
000708: 20,3507           50144                           INDEX    JOBAXES                               #  THE SIGN OF AOSQ,R DETERMINES THE RATIO


000710: 20,3510           31652                           CAE      AOSQ                                  #  TO BE COMPUTED AS THE CORRECTION FACTOR
000711: 20,3511           00006                           EXTEND                                         #  IN THE URGENCY FUNCTION CALCULATION AND
000712: 20,3512           63535                           BZMF     URGRAT4                               #  ALSO SPECIFIES THE CORRECT NJ VALUES.
000713:
000714:                                                                                                  #  THIRD CASE FOR URGENCY RATIO:
000715:
000716: 20,3513           50146        URGRAT3            INDEX    TABPLACE                              #  CHOOSE THE -4 JET NET ACCELERATION
000717: 20,3514           31673                           CAE      1/NET-4Q                              #  INVERSE FOR USE IN URGENCY COMPUTATION.
000718: 20,3515           50144                           INDEX    JOBAXES
000719: 20,3516           55711                           TS       1/ACCQ
000720:
000721: 20,3517           50146                           INDEX    TABPLACE
000722: 20,3520           31670                           CAE      1/NET+2Q                              #          1/NET+2Q,R
000723: 20,3521           00006                           EXTEND                                         #  RATIO = ----------
000724:
000725: 20,3522           50146                           INDEX    TABPLACE                              #          1/NET-4Q,R
000726: 20,3523           11673                           DV       1/NET-4Q
000727: 20,3524           50144                           INDEX    JOBAXES
000728: 20,3525           55717                           TS       URGRATQ
000729:
000730:                                                                                                  #  RESET VALUES OF NJS FOR Q,R-AXIS:
000731:
000732: 20,3526           37761        SWITNJS            CAF      ZERO                                  #  SET NJ      = NJ      (FROM ABOVE)
000733: 20,3527           50145                           INDEX    NJPLACE                               #        -Q,-R     +Q,+R
000734: 20,3530           57660                           XCH      NJ+Q                                  #  AND
000735: 20,3531           50145                           INDEX    NJPLACE                               #      NJ      = 0.
000736: 20,3532           55661                           TS       NJ-Q                                  #        +Q,+R
000737:
000738: 20,3533           00003                           RELINT                                         #  SINCE NJS NOW VALID, ALLOW INTERRUPTS.
000739:
000740: 20,3534           13556                           TCF      UVJOB                                 #  GO PROCESS U- AND V-AXIS.
000741:
000742:                                                                                                  #  FOURTH CASE FOR URGENCY RATIO:
000743:
000744: 20,3535           00003        URGRAT4            RELINT                                         #  SINCE ALL NJS ALREADY SET ARE NOW KNOWN
000745:                                                                                                  #  TO BE VALID, ALLOW INTERRUPTS.
000746:
000747: 20,3536           50146                           INDEX    TABPLACE                              #  CHOOSE THE +4 JET NET ACCELERATION
000748:
000749: 20,3537           31671                           CAE      1/NET+4Q                              #  INVERSE FOR USE IN URGENCY COMPUTATION.
000750: 20,3540           50144                           INDEX    JOBAXES
000751: 20,3541           55711                           TS       1/ACCQ
000752:
000753: 20,3542           50146                           INDEX    TABPLACE
000754: 20,3543           31672                           CAE      1/NET-2Q                              #          1/NET-2Q,R
000755: 20,3544           00006                           EXTEND                                         #  RATIO = ----------
000756: 20,3545           50146                           INDEX    TABPLACE                              #          1/NET+4Q,R
000757: 20,3546           11671                           DV       1/NET+4Q
000758: 20,3547           50144                           INDEX    JOBAXES
000759: 20,3550           55717                           TS       URGRATQ
000760:
000761:                                                                                                  #  SET NJ FOR NEGATIVE ROTATIONS:
000762:


000764: 20,3551           37761        NXTNJZER           CAF      ZERO                                  #  SET NJ      = 0  TO LET THE URGENCY
000765: 20,3552           50145                           INDEX    NJPLACE                               #        -Q,-R      FUNCTIONS SELECT 2 JET
000766: 20,3553           55661                           TS       NJ-Q                                  #                   -Q,-R ROTATION
000767:
000768:                                                                                                  #  TEST FOR END OF Q,R-AXES LOOP:
000769:
000770: 20,3554           10144                           CCS      JOBAXES                               #  JOBAXES = 1 MEANS GO DO Q-AXIS.
000771: 20,3555           13415                           TCF      QRJOB                                 #  JOBAXES = 0 MEANS GO DO U,V-AXES.
000772:


000774:                                                                                                  #  AFTER Q,R-AXES COMPLETE, DO U,V-AXES LOGIC:
000775:
000776: 20,3556           37755        UVJOB              CAF      ONE                                   #  SET UP THE TABLE INDICES:
000777: 20,3557           54144        UJOB               TS       JOBAXES
000778: 20,3560           60000                           DOUBLE                                         #  AOS TABLE USES "JOBAXES" (ADJACENT).
000779: 20,3561           54145                           TS       NJPLACE                               #  NJ  TABLE USES "NJPLACE" (ONE APART).
000780:
000781:                                                                                                  #  TEST ON ABVAL(AOS   ) - 0.02 RADIANS/SECOND(2) GREATER THAN ZERO:
000782:                                                                                                  #                   U,V
000783:
000784:                                                                                                  #               U,V            U,V
000785:
000786: 20,3562           50144                           INDEX    JOBAXES                               #  CALCULATE ABVAL(AOS   ) SCALED AT PI/2.
000787: 20,3563           11654                           CCS      AOSU                                  #                     U,V
000788: 20,3564           67755                           AD       ONE
000789: 20,3565           13567                           TCF      +2
000790: 20,3566           67755                           AD       ONE
000791: 20,3567           54151                           TS       TEMPNET                               #  SVAE ABVAL(AOSU,V) FOR USE BY INVACC.
000792: 20,3570           63325                           AD       -.02R/S2                              #  -0.02 RADIANS/SECOND(2) SCALED AT PI/2
000793: 20,3571           00006                           EXTEND
000794: 20,3572           63642                           BZMF     FIFTY4                                #  (BRANCH FOR CONSTANT VALUE OF INVERSE.)
000795:
000796: 20,3573           03644                           TC       INVACC
000797: 20,3574           50144        FIFTY4R            INDEX    JOBAXES
000798: 20,3575           55715                           TS       1/AMINU                               #  SCALED AT 2(+8)/PI SECONDS(2)/RADIAN.
000799:
000800:                                                                                                  #  TEST ON IJACC    - ABVAL(AOS   ) - 0.02 RADIANS/SECOND(2) GREATER THAN ZERO:
000801:                                                                                                  #               U,V            U,V
000802:
000803: 20,3576           40151                           CS       TEMPNET                               #  -ABVAL(AOSU,V) SCALED AT PI/2 RAD/SEC(2)
000804: 20,3577           63325                           AD       -.02R/S2                              #  -0.02 RADIANS/SECOND(2) SCALED AT PI/2.
000805: 20,3600           50144                           INDEX    JOBAXES
000806: 20,3601           61615                           AD       1JACCU                                #  1 JET U,V-AXIS ACCELERATION AT PI/2.
000807: 20,3602           00006                           EXTEND
000808: 20,3603           63606                           BZMF     RIDEOVER
000809:
000810:                                                                                                  #  SET NJ      = 0.
000811:                                                                                                  #        +U,+V
000812:
000813: 20,3604           37761                           CAF      ZERO                                  #  ALLOW URGENCY FUNCTIONS TO ACTUALLY
000814: 20,3605           13610                           TCF      +3                                    #  SELECT 2 JET OPTIONAL ROTATION.
000815:
000816:                                                                                                  #  SET NJ      = 1.
000817:                                                                                                  #        +U,+V
000818:
000819: 20,3606           00004        RIDEOVER           INHINT                                         #  PREVENT POSSIBLE EPHEMERAL MANDATORY NJ
000820:                                                                                                  #  SETTING FROM AFFECTING JET SELECTION.
000821:
000822: 20,3607           37755                           CAF      ONE                                   #  NJ = 1 FORCES THE URGENCY FUNCTIONS TO
000823: 20,3610           50145                           INDEX    NJPLACE                               #  ACTUALLY SELECT 2 JET MANDATORY ROTATION


000825: 20,3611           55664                           TS       NJ+U                                  #  AS OPTIMAL POLICY (TO FIGHT HIGH AOS).
000826:
000827:                                                                                                  #  TEST SIGN(AOS   ):
000828:                                                                                                  #               U,V
000829:
000830: 20,3612           50144                           INDEX    JOBAXES                               #  IF GREATER THAN ZERO, SWITCH NJS.
000831: 20,3613           31654                           CAE      AOSU
000832: 20,3614           00006                           EXTEND                                         #  IF LESS THAN ZERO, SET NJ      = 0.
000833:
000834: 20,3615           63625                           BZMF     ZERNJNXT                              #                           -U,-V
000835:
000836: 20,3616           37761                           CAF      ZERO                                  #  SET NJ      = NJ      (FROM ABOVE)
000837: 20,3617           50145                           INDEX    NJPLACE                               #        -U,-V     +U,+V
000838: 20,3620           57664                           XCH      NJ+U                                  #  AND
000839: 20,3621           50145                           INDEX    NJPLACE                               #      NJ      = 0.
000840: 20,3622           55665                           TS       NJ-U                                  #        +U,+V
000841:
000842: 20,3623           00003                           RELINT                                         #  ALLOW INTERRUPTS AS SOON AS NJS STABLE.
000843:
000844: 20,3624           13631                           TCF      VJOBTEST                              #  GO TO TEST FOR END OF LOOP.
000845:
000846: 20,3625           00003        ZERNJNXT           RELINT                                         #  ALLOW INTERRUPTS SINCE SETTINGS VALID.
000847:
000848: 20,3626           37761                           CAF      ZERO                                  #  SET NJ     = 0.
000849: 20,3627           50145                           INDEX    NJPLACE                               #        -U,-V
000850: 20,3630           55665                           TS       NJ-U
000851:
000852:                                                                                                  #  TEST FOR END OF UV-AXES LOOP:
000853:
000854: 20,3631           10144        VJOBTEST           CCS      JOBAXES                               #  JOBAXES = 1 MEANS GO DO U-AXIS.
000855: 20,3632           13557                           TCF      UJOB                                  #  JOBAXES = 0 MEANS QUIT
000856: 20,3633           15605                           TCF      ENDOFJOB
000857:
000858:
000859:                                                                                                  #  THE FOLLOWING BRANCHES SUPPLY CONSTANT VALUES:
000860:
000861: 20,3634           33326        FIFTY1             CAF      ACCFIFTY
000862: 20,3635           13346                           TCF      FIFTY1R
000863:
000864: 20,3636           33326        FIFTY2             CAF      ACCFIFTY
000865: 20,3637           13361                           TCF      FIFTY2R
000866:
000867: 20,3640           33326        FIFTY3             CAF      ACCFIFTY
000868: 20,3641           13434                           TCF      FIFTY3R
000869:
000870: 20,3642           33326        FIFTY4             CAF      ACCFIFTY
000871: 20,3643           13574                           TCF      FIFTY4R


000873:                                                                                                  #  SUBROUTINE NAME: INVACC         MOD. NO. 0  DATE: DECEMBER 3, 1966
000874:
000875:                                                                                                  #  AUTHOR: JONATHAN D. ADDELSTON (ADAMS ASSOCIATES)
000876:
000877:                                                                                                  #  THIS SUBROUTINE IS CALLED BY AOSJOB TO CALCULATE:
000878:
000879:                                                                                                  #                 0.5    WHERE TEMPNET IS SCALED AT PI/2 RADIANS/SECOND(2)
000880:                                                                                                  #      C(A) =   -------
000881:                                                                                                  #                        AND THE FRACTION IS SCALED AT 2(+8)/PI SEC(2)/RAD.S(2)/RADIAN.
000882:
000883:                                                                                                  #  THIS SIMPLE COMPUTATION WAS SUBROUTINIZED DUE TO ITS FREQUENT USE.
000884:
000885:                                                                                                  #  CALLING SEQUENCE: TC  INVACC
000886:
000887:                                                                                                  #  SUBROUTINES CALLED: NONE.       NORMAL EXIT MODE: ONE INSTRUCTION AFTER CALL.
000888:
000889:                                                                                                  #  ALARM OR ABORT EXIT MODES: NONE.
000890:
000891:                                                                                                  #  INPUT: TEMPNET SCALED AT PI/2 RADIANS/SECONDS(2).
000892:
000893:                                                                                                  #  OUTPUT: C(A) SCALED AT 2(+8)/PI SECONDS(2)/RADIAN.
000894:
000895:                                                                                                  #  DEBRIS: L,Q.
000896:
000897: 20,3644           37747        INVACC             CAF      BIT7                                  #  BIT7 IS USED AS THE NUMERATOR 0.5 SINCE
000898: 20,3645           22007                           ZL
000899: 20,3646           00006                           EXTEND                                         #  "TEMPNET" IS SCALED AT PI/2 AND THE
000900: 20,3647           10151                           DV       TEMPNET
000901: 20,3650           00002                           TC       Q                                     #  INVERSE IS SCALED AT 2(+8)/PI.

End of include-file AOSTASK_AND_AOSJOB.agc.  Parent file is MAIN.agc


