
Source Code


000002:                                                                                                  ## Copyright:   Public domain.
000003:                                                                                                  ## Filename:    AS206_MISSION_SCHEDULING_PACKAGE.agc
000004:                                                                                                  ## Purpose:     A section of Sunburst revision 37, or Shepatin revision 0.
000005:                                                                                                  ##              It is part of an early development version of the software
000006:                                                                                                  ##              for Apollo Guidance Computer (AGC) on the unmanned Lunar
000007:                                                                                                  ##              Module (LM) flight Apollo 5. Sunburst 37 was the program
000008:                                                                                                  ##              upon which Don Eyles's offline development program Shepatin
000009:                                                                                                  ##              was based; the listing herein transcribed was actually for
000010:                                                                                                  ##              the equivalent revision 0 of Shepatin.
000011:                                                                                                  ##              This file is intended to be a faithful transcription, except
000012:                                                                                                  ##              that the code format has been changed to conform to the
000013:                                                                                                  ##              requirements of the yaYUL assembler rather than the
000014:                                                                                                  ##              original YUL assembler.
000015:                                                                                                  ## Reference:   pp. 748-762
000016:                                                                                                  ## Assembler:   yaYUL
000017:                                                                                                  ## Contact:     Ron Burkey <info@sandroid.org>.
000018:                                                                                                  ## Website:     www.ibiblio.org/apollo/index.html
000019:                                                                                                  ## Mod history: 2017-05-24 MAS  Created from Sunburst 120.
000020:                                                                                                  ##              2017-06-07 MAS  Updated for Sunburst 37. There's a decent number
000021:                                                                                                  ##                              of differences.
000022:                                                                                                  ##              2017-06-15 HG   Fix page number 814 -> 762
000023:                                                                                                  ##                              Add missing instruction TCF ENDUP
000024:                                                                                                  ##                              remove operand modifier CHKUPDEX +1 -> CHKUPDEX
000025:                                                                                                  ##              2017-06-23 RSB  Proofed comment text with
000026:                                                                                                  ##                              octopus/ProoferComments.
000027:


000029:                                                                                                  #           THE FOLLOWING ROUTINES IMPLEMENT THE MISSION SCHEDULING LOGIC AS DESCRIBED IN CHAPTER 4 OF THE
000030:                                                                                                  #  AS206 OPERATIONS PLAN. THE FOLLOWING ROUTINE IS ENTERED ONCE EACH SECOND FOR MOST OF THE DURATION OF THE
000031:
000032:                                                                                                  #  FLIGHT, ONCE LIFT-OFF HAS OCCURRED. AN EXCEPTION TO THIS IS THE TIME-CRI
000033:
000034:                                                                                                  #  RESTART  GROUP  FOR MISSION SCHEDULING PACKAGE IS GROUP 3.
000035:
000036: 31,2000                                           BANK     31
000037: 31,2000     1167                                  EBANK=   MTIMER4
000038:
000039: 31,2000           36301        MMAINT             CAF      THREE                                 #  LOOP TO PROCESS ALL FOUR TIMERS.
000040: 31,2001           55212                           TS       MINH                                  #  AT END OF TIMER UPDATE, THIS REGISTER
000041:                                                                                                  #  WILL NOT BE EQUAL TO 3 IF MAINTENANCE IS
000042:
000043:                                                                                                  #  TO CEASE.
000044: 31,2002           54070        MLOOP              TS       RUPTREG1
000045:
000046: 31,2003           50000                           INDEX    A                                     #  LOOK AT TIMER.
000047: 31,2004           11167                           CCS      MTIMER4
000048: 31,2005           12011                           TCF      MCOUNT                                #  PNZ - ACTIVE AND COUNTING DOWN.
000049: 31,2006           12107                           TCF      MDUE                                  #  +0 - MISSION PHASE DUE.
000050: 31,2007           67755                           AD       ONE                                   #  NNZ - FREE BUT LOADED BY GROUND.
000051: 31,2010           40000                           COM                                            #  -0 - FREE.
000052: 31,2011           50070        MCOUNT             INDEX    RUPTREG1                              #  PLACE UPDATED TIMERS AND PHASE REGISTERS
000053: 31,2012           55177                           TS       MTIMER4T                              #  INTO COPY BUFFER FOR RESTART PROTECTION.
000054:
000055:
000056: 31,2013           50070                           INDEX    RUPTREG1
000057: 31,2014           31173                           CA       MPHASE4
000058: 31,2015           50070        MENTERED           INDEX    RUPTREG1
000059: 31,2016           55203                           TS       MPHASE4T
000060:
000061: 31,2017           10070                           CCS      RUPTREG1
000062: 31,2020           12002                           TCF      MLOOP
000063:
000064: 31,2021           11213        MCHKST             CCS      STATECTR                              #  SEE IF POSSIBLY TIME FOR INTERNAL STATE
000065: 31,2022           12041                           TCF      MSTATEOK                              #  VECTOR EXTRAPOLATION.
000066:
000067: 31,2023           36301                           CAF      THREE                                 #  IF SO, DO UPDATE UNLESS WE ARE WITHIN 16
000068: 31,2024           54070        MSTATECK           TS       RUPTREG1                              #  SECONDS OF THE INITIATION OF ANY MISSION
000069: 31,2025           45361                           CS       LOW4                                  #  PHASE.
000070: 31,2026           50070                           INDEX    RUPTREG1
000071: 31,2027           71167                           MASK     MTIMER4
000072: 31,2030           00006                           EXTEND
000073: 31,2031           12040                           BZF      MSTATEOK   -1                         #  BRANCH IF PHASE DUE WITHIN 16 SECS.
000074:
000075: 31,2032           10070                           CCS      RUPTREG1
000076: 31,2033           12024                           TCF      MSTATECK
000077:
000078: 31,2034           35651                           CAF      PRIO5
000079:
000080: 31,2035           05534                           TC       FINDVAC                               #  TO DO THE INTEGRATION.
000081: 31,2036  E4,1566                                  EBANK=   TDEC
000082: 31,2036           02216 16004                     2CADR    STATEINT
000083:


000085: 31,2040           35222                 -1        CAF      STATECRI
000086: 31,2041           55213        MSTATEOK           TS       STATECTR
000087:
000088: 31,2042           31210                           CA       NEWMTIME                              #  COPY FOR RESTART PROTECTION
000089: 31,2043           55211                           TS       NEWTIMET
000090:
000091: 31,2044           04147                           TC       PHASCHNG                              #  UPDATE RESTART
000092: 31,2045           04013                           OCT      04013
000093:
000094: 31,2046           37757        REDO3.3            CAF      SEVEN                                 #  COPY NEW TIMERS AND PHASE REGISTERS.
000095: 31,2047           54070        MCOPY              TS       RUPTREG1
000096: 31,2050           50000                           INDEX    A
000097: 31,2051           31177                           CA       MTIMER4T
000098: 31,2052           50070                           INDEX    RUPTREG1
000099: 31,2053           55167                           TS       MTIMER4
000100: 31,2054           10070                           CCS      RUPTREG1
000101: 31,2055           12047                           TCF      MCOPY
000102:
000103: 31,2056           46301                           CS       THREE                                 #  SEE IF FURTHER MAINTENCE HAS BEEN
000104:
000105: 31,2057           71212                           MASK     MINH                                  #  INHIBITED BY THE INITIATION OF A TIME-
000106: 31,2060           10000                           CCS      A                                     #  CRITICAL MISSION PHASE.
000107: 31,2061           12101                           TCF      MINHIBIT
000108:
000109: 31,2062           32106                           CAF      1SEC                                  #  UPDATE T1 SETTING FOR NEXT UPDATE
000110: 31,2063           27210                           ADS      NEWMTIME
000111:
000112: 31,2064           04147                           TC       PHASCHNG
000113: 31,2065           04013                           OCT      04013                                 #  IMMECIATE RESTART AT NEXT LOCATION
000114:
000115: 31,2066           40025                           CS       TIME1                                 #  GET DT FOR NEXT SCHEDULING REQUEST.
000116: 31,2067           61211                           AD       NEWTIMET
000117:
000118: 31,2070           00006                           EXTEND
000119: 31,2071           62073                           BZMF     +2                                    #  CORRECT FOR CLOCK OVERFLOW.
000120: 31,2072           12075                           TCF      +3
000121:
000122: 31,2073           67740                           AD       HALF
000123: 31,2074           67740                           AD       HALF
000124: 31,2075           05701                 +3        TC       WAITLIST
000125: 31,2076     1167                                  EBANK=   MTIMER4
000126: 31,2076           02000 62062                     2CADR    MMAINT
000127:
000128:
000129: 31,2100           05745                           TC       TASKOVER
000130:
000131: 31,2101           06045        MINHIBIT           TC       FLAG2DWN                              #  RESET TIMERS ENABLED FLAG.
000132: 31,2102           00020                           OCT      20
000133:
000134: 31,2103           04147                           TC       PHASCHNG
000135: 31,2104           00003                           OCT      00003
000136:
000137: 31,2105           15745                           TCF      TASKOVER
000138:


000140: 31,2106           00144        1SEC               DEC      100        B-14
000141:


000143:                                                                                                  #           THE FOLLOWING CODING DISPATCHES DUE MISSION PHASES VIA A TABLE OF EXECUTIVE PRIORITIES AND 2CADRS.
000144:
000145: 31,2107           30070        MDUE               CA       RUPTREG1
000146: 31,2110           55207                           TS       MDUETEMP                              #  COPY FOR RESTART PROTECTION
000147:
000148: 31,2111           50070                           INDEX    RUPTREG1                              #  GET NUMBER OF NEW PHASE AND MP BY NUMBER
000149:
000150: 31,2112           31173                           CA       MPHASE4                               #  OF TABLE ENTRIES PER PHASE TO GET ADDRES
000151: 31,2113           00006                           EXTEND                                         #  OF TABLE ENTRY FOR THIS PHASE.
000152: 31,2114           12431                           BZF      BADPHASE                              #  INACTIVE MPHASE HERE IS VERY BAD.
000153: 31,2115           54765                           TS       PHASENUM                              #  HOLDS CURRENT MP NUMBER FOR DOWNLINK
000154: 31,2116           00006                           EXTEND
000155: 31,2117           76301                           MP       THREE
000156: 31,2120           50001                           INDEX    L
000157: 31,2121           32354                           CA       MTABLE                                #  PRIO, INHIBIT/ENABLE INFO., ETC.
000158: 31,2122           54071                           TS       RUPTREG2
000159: 31,2123           77757                           MASK     SEVEN                                 #  HONOR INHIBIT/ENABLE FUNCTION.
000160: 31,2124           70076                           MASK     FLAGWRD2
000161: 31,2125           10000                           CCS      A
000162:
000163: 31,2126           12152                           TCF      MBYPASS
000164:
000165: 31,2127           37752                           CAF      BIT4                                  #  SET MRETURN  IF COUNTERS ARE TO STOP.
000166: 31,2130           70071                           MASK     RUPTREG2
000167: 31,2131           27212                           ADS      MINH
000168:
000169: 31,2132           35676                           CAF      PRIO37
000170: 31,2133           70071                           MASK     RUPTREG2
000171: 31,2134           54063                           TS       NEWPRIO
000172: 31,2135           00006                           EXTEND
000173:
000174: 31,2136           50001                           INDEX    L                                     #  PICK UP 2CADR AND DO FINDVAC.
000175: 31,2137           32356                           DCA      MTABLE     +1
000176: 31,2140           05544                           TC       SPVAC
000177:
000178: 31,2141           04127                           TC       2PHSCHNG
000179: 31,2142           00032                           OCT      00032                                 #  2.3SPOT TO RESTART MISSION PHASE NOW DUE
000180: 31,2143           04013                           OCT      04013                                 #  GROUP 3 RESTART FOR MISSIN SCHEDULER
000181:
000182: 31,2144           31207                           CA       MDUETEMP
000183: 31,2145           54070                           TS       RUPTREG1                              #  RUPTREG1 WAS DESTROYED BY 2PHSCHNG
000184:
000185: 31,2146           35226                           CAF      PRIO30                                #  SET UP JOB TO TERMINATE ANY UPDATE
000186:
000187: 31,2147           05523                           TC       NOVAC                                 #  POSSIBLY IN PROGRESS & RELEASE DISPLAY.
000188: 31,2150     1167                                  EBANK=   MTIMER4                               #  PINBALL USES UNSWITCHED ERASABLE
000189: 31,2150           02173 62062                     2CADR    UPDATKIL
000190:
000191: 31,2152           47761        MBYPASS            CS       ZERO
000192: 31,2153           50070                           INDEX    RUPTREG1                              #  MAKE THIS TIMER/PHASE PAIR AVAILABLE.
000193: 31,2154           55177                           TS       MTIMER4T
000194: 31,2155           12015                           TCF      MENTERED                              #  JOINS MAIN CODING.
000195:


000197:                                                                                                  #  RESTART  ROUTIN E TO RESCHEDULE MISSION PHASE
000198:
000199: 31,2156           51207        REDOMDUE           INDEX    MDUETEMP                              #  FIND PRIO AND 2CADR OF NEW MP
000200: 31,2157           31173                           CA       MPHASE4                               #  IN TABLE.  MDUETEMP CONTAINS
000201: 31,2160           00006                           EXTEND                                         #  THE PHASE REGISTER NUMBER OF THE
000202: 31,2161           76301                           MP       THREE                                 #  MISSION PHASE DUE AT THIS TIME
000203: 31,2162           50001                           INDEX    L
000204: 31,2163           32354                           CA       MTABLE
000205: 31,2164           75676                           MASK     PRIO37
000206: 31,2165           54063                           TS       NEWPRIO
000207: 31,2166           00006                           EXTEND
000208: 31,2167           50001                           INDEX    L
000209:
000210: 31,2170           32356                           DCA      MTABLE     +1
000211: 31,2171           05544                           TC       SPVAC                                 #  DO FINDVAC WITH 2CADR IN A +  L
000212: 31,2172           15745                           TCF      TASKOVER
000213:
000214:
000215:
000216:                                                                                                  #  DO A PSEUDO VERB 34 ENTER TO KILL AN UPDATE IN PROGRESS, AND TO RELEASE THE DSKY.
000217:
000218: 31,2173           32414        UPDATKIL           CAF      34OCT
000219: 31,2174           54304                           TS       REQRET
000220: 31,2175           05224                           TC       BANKCALL
000221: 31,2176           12314                           CADR     UPDATVB    -1
000222:
000223: 31,2177           05243                           TC       POSTJUMP
000224: 31,2200           11333                           CADR     VBTERM                                #  GOES TO ENDOFJOB WHEN DONE
000225:


000227:                                                                                                  #           THE FOLLOWING SUBROUTINE MAY BE USED BY MISSION PROGRAMS TO SET MISSION PHASE/TIMER PAIRS TO INITIATE
000228:                                                                                                  #  THE VARIOUS MISSION PHASES (SEE CHAPTER 4 OF THE GSOP).
000229:
000230:                                                                                                  #           CALLING SEQUENCE IS AS FOLLOWS:
000231:
000232:                                                                                                  #                                                   TC     MPENTRY         UNDER CONTROL OF EXEC OR RUPT.
000233:                                                                                                  #                                                   DEC    INDEX           INDEX OF TIMER (1 TO 4).
000234:                                                                                                  #                                                   DEC    PHASE           MISSION PHASE NUMBER.
000235:
000236:                                                                                                  #                                                   ADRES  DT              DT = TIME (SECONDS) TO INITIATION.
000237:                                                                                                  #                                                                          (EBANK MUST ALREADY BE SET.)
000238:
000239:    5141                                           BLOCK    02
000240:    5141           00004        MPENTRY            INHINT
000241:    5142           50002                           INDEX    Q                                     #  MAKE INTERNAL INDEX.
000242:    5143           40000                           CS       0
000243:    5144           67753                           AD       FOUR
000244:    5145           54070                           TS       RUPTREG1
000245:
000246:    5146           50000                           INDEX    A                                     #  IF THIS MISSION PHASE REGISTER IS NOT
000247:    5147           11173                           CCS      MPHASE4                               #  -0, IT HAS BEEN CHANGED BY THE GROUND,
000248:    5150           15157                           TCF      MENTRYT                               #  SO LEAVE IT ALONE.
000249:    5151           15157                           TCF      MENTRYT
000250:    5152           15157                           TCF      MENTRYT
000251:
000252:    5153           50002                           INDEX    Q
000253:    5154           30001                           CAF      1
000254:    5155           50070                           INDEX    RUPTREG1
000255:    5156           55173                           TS       MPHASE4
000256:
000257:    5157           50070        MENTRYT            INDEX    RUPTREG1                              #  IF THE TIMER IS -0, SET IT TO THE INPUT
000258:    5160           11167                           CCS      MTIMER4                               #  VALUE, OTHERWISE, ASSUME IT HAS BEEN
000259:
000260:    5161           67755                           AD       ONE                                   #  SET BY THE GROUND AND JUST FORCE IT POS.
000261:    5162           15170                           TCF      MENTABS
000262:    5163           15161                           TCF      -2
000263:
000264:    5164           50002                           INDEX    Q
000265:    5165           30002                           CAF      2
000266:    5166           50000                           INDEX    A
000267:    5167           30000                           CA       0
000268:    5170           50070        MENTABS            INDEX    RUPTREG1
000269:    5171           55167                           TS       MTIMER4
000270:
000271:    5172           36301                           CAF      THREE                                 #  MAKE UP RETURN SO COMMON ROUTINE CAN BE
000272:    5173           60002                           AD       Q                                     #  USED TO INITATE TIMER COUNTING.
000273:    5174           55221                 -1        TS       MRETURN
000274:


000276:                                                                                                  #  SUBROUTINE TO START MISSION TIMERS IF THEY ARE NOT GOING ALREADY.
000277:
000278:    5175           30076        MSTART             CA       FLAGWRD2                              #  SEE IF TIMERS ENABLED ALREADY.
000279:    5176           77751                           MASK     BIT5
000280:    5177           10000                           CCS      A
000281:    5200           15220                           TCF      MDONE                                 #  YES - RETURN.
000282:
000283:    5201           04147                           TC       PHASCHNG                              #  UPDATE RESTART BEFORE SETTING FLAG.
000284:    5202           05013                           OCT      05013
000285:    5203           77777                           OCT      77777
000286:
000287:    5204           06027                           TC       FLAG2UP                               #  SHOW TIMERS ENABLED.
000288:    5205           00020                           OCT      20
000289:
000290:
000291:    5206           00004                           INHINT
000292:
000293:    5207           35223                           CAF      1SEC+1
000294:    5210           60025                           AD       TIME1
000295:    5211           57210                           XCH      NEWMTIME
000296:
000297:    5212           35222                           CAF      STATECRI                              #  INITIALIZE STATE VECTOR EXTRAPOLATION
000298:    5213           55213                           TS       STATECTR                              #  TIMER.
000299:
000300:    5214           37755                           CAF      ONE
000301:
000302:    5215           05701                           TC       WAITLIST
000303:    5216     1167                                  EBANK=   MTIMER4
000304:    5216           02000 62062                     2CADR    MMAINT                                #  START COUNTER MAINTENANCE.
000305:
000306:    5220           00003        MDONE              RELINT
000307:    5221           01221                           TC       MRETURN
000308:
000309:    5222           01033        STATECRI           DEC      539        B-14                       #  CALLS FOR INTEGRATION EVERY 539 SEC.
000310:    5223           00145        1SEC+1             DEC      101        B-14
000311:


000313:                                                                                                  #  SUBROUTINE CALLS FOR VARIOUS UPDATE OPTIONS (SEE GSOP).  ENTER UNDER EXEC WITH INTERRUPT INHIBITED.
000314:
000315: 31,2201                                           BANK     31
000316: 31,2201           02314        DOV70              TC       MTIMERUP                              #  VERB 70
000317: 31,2202           12373                           TCF      ENDUP
000318:
000319: 31,2203           02314        DOV72              TC       MTIMERUP                              #  VERB 72
000320: 31,2204           02245        DOV71              TC       MPHASEUP                              #  VERB 71
000321: 31,2205           12373                           TCF      ENDUP
000322:
000323:                                                                                                  #     *** C ODING  TO BE INSERTED HERE TO CLEAR OUT ALL TIMER/PHASE PAIRS
000324:                                                                                                  #         W HICH H AVE BEEN SET BY LGC, SINCE GROUND REQUEST WILL SUPERSEDE
000325:                                                                                                  #           ALL PR EVIOUSLY SCHEDULED MPS EXCEPT THOSE SET BY GROUND ITSELF
000326:
000327:                                                                                                  #  DOV74         EQUALS          FORGETIT
000328: 31,2206           00003        ENDV73             RELINT
000329: 31,2207           12373        TCFENDUP           TCF      ENDUP
000330:


000332:                                                                                                  #  INVERT INHIBIT/ENABLE SWITCH WHOSE INDEX IS IN UPINDEX (1 TO 3).  ENTER UNDER EXEC WITH INTERRUPT INHIBITED.
000333:
000334:
000335: 31,2210           47754        DOV73              CS       TWO
000336: 31,2211           61216                           AD       UPINDEX
000337: 31,2212           04312                           TC       MAGSUB                                #  SEE IF INDEX LEGIT.
000338: 31,2213           77776                           DEC      -1         B-14
000339: 31,2214           12375                           TCF      UPERROR
000340:
000341: 31,2215           51216                           INDEX    UPINDEX
000342: 31,2216           37752                           CAF      BIT3       -1                         #  BITS IN POSITIONS 3, 2, AND 1 OF
000343: 31,2217           54001                           TS       L                                     #  FLAGWRD2 (SEE SWITCH ASSIGNMENTS).
000344: 31,2220           00004                           INHINT
000345:
000346: 31,2221           30076                           CA       FLAGWRD2
000347: 31,2222           00006                           EXTEND
000348: 31,2223           06001                           RXOR     L
000349: 31,2224           54076                           TS       FLAGWRD2
000350: 31,2225           12206                           TCF      ENDV73
000351:
000352:                                                                                                  #           THE FOLLOWING CODING ISSUES THE SINGLE LMP COMMAND FOUND IN UPINDEX PROVIDED THE TIMERS ARE ENABLED
000353:                                                                                                  #  (NON TIME CRITICAL PHASE OF MISSION).
000354:
000355: 31,2226           40076        DOV67              CS       FLAGWRD2
000356: 31,2227           77751                           MASK     BIT5
000357: 31,2230           10000                           CCS      A
000358:
000359: 31,2231           12375                           TCF      UPERROR
000360:
000361: 31,2232           47746                           CS       BIT8                                  #  COMMAND MUST BE BETWEEN 1 AND 255.
000362: 31,2233           61216                           AD       UPINDEX
000363: 31,2234           04312                           TC       MAGSUB
000364: 31,2235           77600                           DEC      -127       B-14
000365: 31,2236           12375                           TCF      UPERROR
000366:
000367: 31,2237           32244                           CAF      TC1LMP
000368: 31,2240           55215                           TS       UPINDEX    -1
000369:
000370: 31,2241           32207                           CAF      TCFENDUP
000371: 31,2242           55217                           TS       UPINDEX    +1
000372: 31,2243           01215                           TC       UPINDEX    -1
000373:
000374: 31,2244           05073        TC1LMP             TC       1LMP                                  #  FOR ERASABLE CALL.
000375:


000377:                                                                                                  #           THE FOLLOWING CODING UPDATES A MISSION PHASE NUMBER WHOSE INDEX IS IN UPINDEX TO THE VALUE FOUND
000378:                                                                                                  #  IN UPPHASE. RETURN IS TO CALLER IF DATA OK, OR TO UPERROR IF DATA OUT OF RANGE.
000379:
000380: 31,2245           30002        MPHASEUP           CA       Q
000381: 31,2246           02277                           TC       CHKUPDEX                              #  CHECK INDEX VALUE AND MAKE INTERNAL NDX.
000382:
000383: 31,2247           11214                           CCS      UPPHASE                               #  CHECK ON SIZE OF PHASE.
000384: 31,2250           12254                           TCF      +4
000385:
000386: 31,2251           12375                           TCF      UPERROR
000387: 31,2252           12375                           TCF      UPERROR
000388: 31,2253           12375                           TCF      UPERROR
000389:
000390: 31,2254           04312                 +4        TC       MAGSUB
000391: 31,2255           77756                           OCT      -21                                   #  ALLOW PHASES 1 - 18D ONLY.
000392: 31,2256           12375                           TCF      UPERROR                               #  FOR BAD RETURN FROM MAGSUB
000393: 31,2257           41214                           CS       UPPHASE                               #  CHECK LEGALITY OF UPPHASE
000394: 31,2260           66276                           AD       SIX
000395: 31,2261           10000                           CCS      A
000396:
000397: 31,2262           12375                           TCF      UPERROR
000398: 31,2263           72400        MPLEGAL            OCT      72400                                 #  BITS 15 - 1 = 1 FOR MP 7 - 21 LEGAL
000399: 31,2264           12266                           TCF      +2
000400: 31,2265           12375                           TCF      UPERROR
000401:
000402: 31,2266           50000                           INDEX    A
000403: 31,2267           37737                           CA       BIT15
000404: 31,2270           72263                           MASK     MPLEGAL
000405: 31,2271           00006                           EXTEND
000406: 31,2272           12375                           BZF      UPERROR
000407:
000408: 31,2273           31214                           CA       UPPHASE
000409:
000410: 31,2274           50070                           INDEX    RUPTREG1
000411: 31,2275           55173                           TS       MPHASE4
000412: 31,2276           15220                           TCF      MDONE                                 #  RELINT & RETURN VIA MRETURN.
000413:
000414:                                                                                                  #  MINOR SUBROUTINE TO CHECK MISSION TIMER/PHASE UPDATE INDEX AND LEAVE CORRESPONDING VALUE IN RUPTREG1.
000415:
000416:                                                                                                  #  TO BE ENTERED WITH INTERRUPT INHIBITED:
000417:
000418: 31,2277           55221        CHKUPDEX           TS       MRETURN                               #  CALLER'S RETURN ARRIVES IN A.
000419: 31,2300           11216                           CCS      UPINDEX
000420:
000421: 31,2301           12305                           TCF      +4
000422: 31,2302           12375                           TCF      UPERROR
000423: 31,2303           12375                           TCF      UPERROR
000424: 31,2304           12375                           TCF      UPERROR
000425:
000426: 31,2305           75357                 +4        MASK     NEG3
000427: 31,2306           10000                           CCS      A
000428: 31,2307           12375                           TCF      UPERROR
000429:
000430: 31,2310           41216                           CS       UPINDEX                               #  MAKE INTERNAL VALUE.


000432: 31,2311           67753                           AD       FOUR
000433: 31,2312           54070                           TS       RUPTREG1
000434: 31,2313           00002                           TC       Q
000435:


000437:                                                                                                  #           THE FOLLOWING CODING UPDATES THE MISSION TIMER WHOSE INDEX IS IN UPINDEX BY ADDING THE CONTENTS OF UPDT
000438:                                                                                                  #  TO IT. OUTCOMES DEPEND ON WHETHER THE TIMER WAS COUNTING AT THE TIME, AND THE SIGN OF THE RESULT (SEE GSOP).
000439:
000440: 31,2314           30002        MTIMERUP           CA       Q                                     #  GO TO COMMON SUBROUTINE TO SAVE RETURN
000441: 31,2315           02277                           TC       CHKUPDEX                              #  AND CHECK INDEX.
000442: 31,2316           50070                           INDEX    RUPTREG1                              #  SEE IF TIMER IS COUNTING NOW.
000443:
000444: 31,2317           11167                           CCS      MTIMER4
000445: 31,2320           12327                           TCF      TUPBUSY                               #  POS INDICATES IT IS.
000446: 31,2321           12327                           TCF      TUPBUSY
000447: 31,2322           12323                           NOOP
000448:
000449: 31,2323           31215                           CA       UPDT                                  #  IF NOT BUSY, DO ADD, MAKING NO CHANGE
000450: 31,2324           50070                           INDEX    RUPTREG1                              #  IN THE ENABLE FLAG.
000451: 31,2325           27167                           ADS      MTIMER4
000452: 31,2326           15220                           TCF      MDONE
000453:
000454: 31,2327           11215        TUPBUSY            CCS      UPDT                                  #  IF TIMER COUNTING, SEE IF DT ZERO.
000455: 31,2330           12337                           TCF      CTRAD                                 #  NZ - DO ADD.
000456:
000457: 31,2331           12334                           TCF      CTRABS                                #  +0 - PHASE DUE NEXT MAINTENANCE CYCLE.
000458: 31,2332           12337                           TCF      CTRAD
000459:
000460: 31,2333           47761                           CS       ZERO                                  #  IF -0, DISABLE TIMER.
000461: 31,2334           50070        CTRABS             INDEX    RUPTREG1
000462: 31,2335           55167                           TS       MTIMER4
000463: 31,2336           15220                           TCF      MDONE
000464:
000465: 31,2337           31215        CTRAD              CA       UPDT
000466: 31,2340           50070                           INDEX    RUPTREG1
000467:
000468: 31,2341           27167                           ADS      MTIMER4
000469: 31,2342           10000                           CCS      A                                     #  IF RESULT NEGATIVE OR ZERO, PHASE DUE
000470: 31,2343           15220                           TCF      MDONE                                 #  NEXT MAINTENANCE CYCLE.
000471: 31,2344           15220                           TCF      MDONE
000472: 31,2345           37761                           CAF      ZERO
000473: 31,2346           12334                           TCF      CTRABS                                #  (THIS ALONE REVERTS -0 TO +0.)
000474:


000476:                                                                                                  #           THE FOLLOWING CODING IS THE SAME AS MTIMERUP BUT ACCEPTS DP GET IN UPGET (SEE GSOP).
000477:
000478: 31,2347           06103        MGETUP             TC       INTPRET                               #  MAKE SURE THIS ENTERED WITH VAC AREA.
000479:
000480: 31,2350           44234                           RTB      BDSU                                  #  TIME IN CS.
000481: 31,2351           33521                                    LOADTIME
000482: 31,2352           01220                                    UPGET
000483: 31,2353           54205                           DMP      SL                                    #  CONVERT TO SEC & MOVE TO MAJOR PART.
000484: 31,2354           22400                                    1/100
000485: 31,2355           20217                                    14D
000486: 31,2356           50004                           BOVB     BMN
000487: 31,2357           62375                                    UPERROR
000488:
000489: 31,2360           62374                                    UPERROR    -1                         #  (DOES AN EXIT.)
000490:
000491: 31,2361           77776                           EXIT
000492:
000493: 31,2362           00004                           INHINT
000494: 31,2363           37751                           CA       BIT5                                  #  INSURE THAT MAINTENANCE IS STILL ENABLED
000495: 31,2364           70076                           MASK     FLAGWRD2
000496: 31,2365           00006                           EXTEND
000497: 31,2366           12375                           BZF      UPERROR
000498:
000499: 31,2367           02277                           TC       CHKUPDEX
000500: 31,2370           30144                           CA       MPAC                                  #  CONTAINS DT IN SECONDS.
000501:
000502: 31,2371           50070                           INDEX    RUPTREG1
000503: 31,2372           55167                           TS       MTIMER4                               #  INSERT DT DIRECTLY INTO TIMER.
000504:
000505:                                                                                                  #           GENERAL EXIT LOCATION FOR SUCCESSFULLY COMPLETED UPDATE:
000506:
000507: 31,2373           15605        ENDUP              TCF      ENDOFJOB                              #  (MORE TO BE ADDED?)
000508:
000509:                                                                                                  #           EXIT FOR GENERAL UPDATE ERRORS (RANGE OF DATA, ETC.)
000510:
000511: 31,2374           77776                 -1        EXIT
000512:
000513: 31,2375           04560        UPERROR            TC       FALTON
000514: 31,2376           15605                           TCF      ENDOFJOB
000515:


000517: 31,2377           00243 32703  1/100              2DEC     1          E-2
000518:


000520:                                                                                                  #           THE FOLLOWING TABLE SPECIFIES STARTING LOCATIONS AND PRIORITIES OF ALL 206 MISSION PHASES INITIATED BY
000521:                                                                                                  #  THE MISSION TIMERS (S4B-LEM SEP AND BEYOND). IT ALSO CONTAINS INHIBIT/ENABLE INFORMATION, ETC. EACH ENTRY
000522:                                                                                                  #  CONSISTS OF THREE WORDS. THE FIRST IS PACKED WITH SEVERAL PIECES OF INFORMATION, AND THE SECOND TWO CONTAIN THE
000523:                                                                                                  #  2CADR OF THE LOCATION AT WHICH THE PHASE IS TO BEGIN. THE INTERPRETATION OF WORD 1 IS AS FOLLOWS:
000524:
000525:                                                                                                  #           BIT15:         SPARE
000526:                                                                                                  #           BITS 14-10:    JOB PRIORITY.
000527:                                                                                                  #           BITS 9-5:      SPARE
000528:
000529:                                                                                                  #           BIT4:          1 IF TIMERS TO BE DISABLED ON PHASE INITIATION.
000530:                                                                                                  #           BIT3:          1 IF RCS TESTS (INHIBIT/ENABLE INFO).
000531:                                                                                                  #           BIT2:                  1 IF DPS COLD SOAK
000532:                                                                                                  #           BIT1:                  1 IF RCS COLD SOAK
000533:
000534:                                                                                                  #  NOTE SPARES COULD BE USED FOR SWITCHING DOWNLISTS, ETC.
000535:
000536:                                                                                                  #           PHASES 1 - 6 ARE NOT INCLUDED SINCE THEY ARE NOT INITIATED BY THE MISSION SCHEDULING ROUTINES.
000537: 31,2401           20010        MTABLE1            OCT      20010                                 #  MP7
000538: 31,2402  E4,1566                                  EBANK=   TDEC
000539:
000540: 31,2402           02467 52004                     2CADR    MP07JOB
000541:
000542: 31,2404           20012                           OCT      20012                                 #  MP8
000543:
000544: 31,2405  E3,1652                                  EBANK=   RATEINDX
000545: 31,2405           02555 56003                     2CADR    MP8JOB
000546:
000547: 31,2407           20010                           OCT      20010                                 #  MP9
000548: 31,2410  E4,1566                                  EBANK=   TDEC
000549: 31,2410           02614 66064                     2CADR    MP9JOB
000550:
000551: 31,2412           04725                           TC       CCSHOLE                               #  MP 10.  UNUSED SLOT.
000552:
000553: 31,2413           04725                           TC       CCSHOLE
000554: 31,2414           00034        34OCT              OCT      00034
000555:
000556: 31,2415           20010                           OCT      20010                                 #  MP11
000557: 31,2416  E4,1566                                  EBANK=   TDEC
000558: 31,2416           02000 74064                     2CADR    MP11JOB
000559:
000560: 31,2420           04725                           TC       CCSHOLE                               #  MP 12.  UNUSED SLOT.
000561: 31,2421           04725                           TC       CCSHOLE
000562: 31,2422           04725                           TC       CCSHOLE
000563:
000564: 31,2423           20010                           OCT      20010                                 #  MP13
000565: 31,2424  E4,1566                                  EBANK=   TDEC
000566: 31,2424           03071 56004                     2CADR    MP13JOB
000567:
000568: 31,2426           04725                           TC       CCSHOLE                               #  MP 14.  UNUSED SLOT.
000569: 31,2427           04725                           TC       CCSHOLE
000570: 31,2430           04725                           TC       CCSHOLE
000571:
000572: 31,2431  31,2354               MTABLE             EQUALS   MTABLE1    -21D                       #  MP 1-6 NOT ACTUALLY INCLUDED IN TABLE.
000573:


000575: 31,2431           04744        BADPHASE           TC       ALARM                                 #  ALARM WHEN MPHASE COMES DUE BUT MPHASE
000576:
000577: 31,2432           00601                           OCT      00601                                 #  REGISTER IS ZERO (-0 MEANS INACTIVE).
000578:
000579: 31,2433           35676                           CAF      PRIO37
000580: 31,2434           05523                           TC       NOVAC
000581: 31,2435  E3,1400                                  EBANK=   LST1
000582: 31,2435           02000 16003                     2CADR    FORGETIT
000583:
000584: 31,2437           05745                           TC       TASKOVER

End of include-file AS206_MISSION_SCHEDULING_PACKAGE.agc.  Parent file is MAIN.agc


