
Source Code


000002:                                                                                                  ## Copyright:   Public domain.
000003:                                                                                                  ## Filename:    ASCENT_INERTIA_UPDATER.agc
000004:                                                                                                  ## Purpose:     A section of Sunburst revision 37, or Shepatin revision 0.
000005:                                                                                                  ##              It is part of an early development version of the software
000006:                                                                                                  ##              for Apollo Guidance Computer (AGC) on the unmanned Lunar
000007:                                                                                                  ##              Module (LM) flight Apollo 5. Sunburst 37 was the program
000008:                                                                                                  ##              upon which Don Eyles's offline development program Shepatin
000009:                                                                                                  ##              was based; the listing herein transcribed was actually for
000010:                                                                                                  ##              the equivalent revision 0 of Shepatin.
000011:                                                                                                  ##              This file is intended to be a faithful transcription, except
000012:                                                                                                  ##              that the code format has been changed to conform to the
000013:                                                                                                  ##              requirements of the yaYUL assembler rather than the
000014:                                                                                                  ##              original YUL assembler.
000015:                                                                                                  ## Reference:   pp. 538-540
000016:                                                                                                  ## Assembler:   yaYUL
000017:                                                                                                  ## Contact:     Ron Burkey <info@sandroid.org>.
000018:                                                                                                  ## Website:     www.ibiblio.org/apollo/index.html
000019:                                                                                                  ## Mod history: 2017-05-24 MAS  Created from Sunburst 120.
000020:                                                                                                  ##              2017-06-05 HG   Transcribed
000021:                                                                                                  ##              2017-06-22 RSB  Proofed comment text with
000022:                                                                                                  ##                              octopus/ProoferComments.
000023:


000025: 26,2441                                           BANK     26
000026: 26,2441  E6,1541                                  EBANK=   DT
000027: 26,2441           02504        IXXTASK            TC       JACCESTP
000028:
000029: 26,2442           02477                           TC       ASCENGON
000030:
000031: 26,2443           00006                           EXTEND
000032: 26,2444           27452                           DIM      IXX
000033: 26,2445           32474                           CAF      IXXTIME
000034: 26,2446           05701                           TC       WAITLIST
000035: 26,2447  E6,1541                                  EBANK=   DT
000036: 26,2447           02441 54006                     2CADR    IXXTASK
000037:
000038: 26,2451           15745                           TCF      TASKOVER
000039:
000040: 26,2452           02520        IYYTASK            TC       JACCESTQ
000041:
000042: 26,2453           02477                           TC       ASCENGON
000043:
000044: 26,2454           00006                           EXTEND
000045: 26,2455           27453                           DIM      IYY
000046: 26,2456           32475                           CAF      IYYTIME
000047: 26,2457           05701                           TC       WAITLIST
000048: 26,2460  E6,1541                                  EBANK=   DT
000049: 26,2460           02452 54006                     2CADR    IYYTASK
000050:
000051: 26,2462           15745                           TCF      TASKOVER
000052:
000053: 26,2463           02541        IZZTASK            TC       JACCESTR
000054:
000055: 26,2464           02477                           TC       ASCENGON
000056:
000057: 26,2465           00006                           EXTEND
000058: 26,2466           27454                           DIM      IZZ
000059: 26,2467           32476                           CAF      IZZTIME
000060: 26,2470           05701                           TC       WAITLIST
000061: 26,2471  E6,1541                                  EBANK=   DT
000062: 26,2471           02463 54006                     2CADR    IZZTASK
000063:
000064:
000065: 26,2473           15745                           TCF      TASKOVER
000066:
000067: 26,2474           00310        IXXTIME            DEC      200        B-14
000068: 26,2475           02424        IYYTIME            DEC      1300       B-14
000069: 26,2476           00264        IZZTIME            DEC      180        B-14
000070:
000071: 26,2477           37746        ASCENGON           CAF      BIT8
000072: 26,2500           70077                           MASK     DAPBOOLS
000073: 26,2501           10000                           CCS      A
000074: 26,2502           00002                           TC       Q
000075: 26,2503           15745                           TCF      TASKOVER
000076:


000078: 26,2504           31452        JACCESTP           CAE      IXX
000079: 26,2505           22007                           ZL
000080: 26,2506           00006                           EXTEND
000081: 26,2507           11455                           DV       4JETTORK
000082: 26,2510           60000                           DOUBLE
000083: 26,2511           55441                           TS       1/2JTSP
000084:
000085: 26,2512           32606                           CAF      JETTORK
000086: 26,2513           22007                           ZL
000087: 26,2514           00006                           EXTEND
000088: 26,2515           11452                           DV       IXX
000089: 26,2516           55612                           TS       1JACC
000090:
000091: 26,2517           00002                           TC       Q
000092:
000093: 26,2520           31453        JACCESTQ           CAE      IYY
000094: 26,2521           22007                           ZL
000095: 26,2522           00006                           EXTEND
000096: 26,2523           11456                           DV       JETTORK4
000097: 26,2524           00006                           EXTEND                                         #  INCLUDE INVISIBLE FACTOR OF (1/2).
000098:
000099: 26,2525           77740                           MP       BIT14
000100: 26,2526           55671                           TS       1/NET+4Q
000101: 26,2527           55673                           TS       1/NET-4Q
000102:
000103:
000104: 26,2530           60000                           DOUBLE
000105: 26,2531           55670                           TS       1/NET+2Q
000106: 26,2532           55672                           TS       1/NET-2Q
000107:
000108: 26,2533           32607                           CAF      JETTORK1
000109: 26,2534           22007                           ZL
000110: 26,2535           00006                           EXTEND
000111: 26,2536           11453                           DV       IYY
000112: 26,2537           55613                           TS       1JACCQ
000113:
000114: 26,2540           00002                           TC       Q
000115: 26,2541           31454        JACCESTR           CAE      IZZ
000116: 26,2542           22007                           ZL
000117: 26,2543           00006                           EXTEND
000118: 26,2544           11456                           DV       JETTORK4
000119: 26,2545           00006                           EXTEND                                         #  INCLUDE INVISIBLE FACTOR OF (1/2).
000120: 26,2546           77740                           MP       BIT14
000121: 26,2547           55675                           TS       1/NET+4R
000122: 26,2550           55677                           TS       1/NET-4R
000123:
000124: 26,2551           60000                           DOUBLE
000125: 26,2552           55674                           TS       1/NET+2R
000126: 26,2553           55676                           TS       1/NET-2R
000127:
000128: 26,2554           32607                           CAF      JETTORK1
000129: 26,2555           22007                           ZL
000130:


000132: 26,2556           00006                           EXTEND
000133: 26,2557           11454                           DV       IZZ
000134:
000135: 26,2560           55614                           TS       1JACCR
000136:
000137: 26,2561           31670        COMMONQR           CAE      1/2JTSQ
000138: 26,2562           61674                           AD       1/2JTSR
000139: 26,2563           00006                           EXTEND
000140: 26,2564           72605                           MP       .707BK26
000141: 26,2565           55701                           TS       1/2JETSU                              #  TEMP
000142:
000143: 26,2566           31670                           CAE      1/2JTSQ
000144: 26,2567           00006                           EXTEND
000145: 26,2570           71674                           MP       1/2JTSR
000146: 26,2571           00006                           EXTEND
000147: 26,2572           11701                           DV       1/2JETSU                              #  TEMP
000148: 26,2573           55701                           TS       1/NET+2U
000149: 26,2574           55703                           TS       1/NET-2U
000150: 26,2575           55705                           TS       1/NET+2V
000151: 26,2576           55707                           TS       1/NET-2V
000152:
000153: 26,2577           60000                           DOUBLE
000154: 26,2600           55700                           TS       1/NET+1U
000155: 26,2601           55702                           TS       1/NET-1U
000156: 26,2602           55704                           TS       1/NET+1V
000157: 26,2603           55706                           TS       1/NET-1V
000158:
000159: 26,2604           00002                           TC       Q
000160:
000161: 26,2605           26501        .707BK26           DEC      0.70711
000162: 26,2606           00050        JETTORK            DEC      0.00243                               #  500 FT LBS. SCALED AT PI*2(+16)
000163: 26,2607           00054        JETTORK1           DEC      0.00267                               #  550 FT LBS. SCALED AT PI*2(+16)
000164: 26,2610           13241        0.35356            DEC      0.35356

End of include-file ASCENT_INERTIA_UPDATER.agc.  Parent file is MAIN.agc


