
Source Code


000002:                                                                                                  ## Copyright:   Public domain.
000003:                                                                                                  ## Filename:    ATTITUDE_MANEUVER_ROUTINE.agc
000004:                                                                                                  ## Purpose:     A section of Sunburst revision 37, or Shepatin revision 0.
000005:                                                                                                  ##              It is part of an early development version of the software
000006:                                                                                                  ##              for Apollo Guidance Computer (AGC) on the unmanned Lunar
000007:                                                                                                  ##              Module (LM) flight Apollo 5. Sunburst 37 was the program
000008:                                                                                                  ##              upon which Don Eyles's offline development program Shepatin
000009:                                                                                                  ##              was based; the listing herein transcribed was actually for
000010:                                                                                                  ##              the equivalent revision 0 of Shepatin.
000011:                                                                                                  ##              This file is intended to be a faithful transcription, except
000012:                                                                                                  ##              that the code format has been changed to conform to the
000013:                                                                                                  ##              requirements of the yaYUL assembler rather than the
000014:                                                                                                  ##              original YUL assembler.
000015:                                                                                                  ## Reference:   pp. 595-619
000016:                                                                                                  ## Assembler:   yaYUL
000017:                                                                                                  ## Contact:     Ron Burkey <info@sandroid.org>.
000018:                                                                                                  ## Website:     www.ibiblio.org/apollo/index.html
000019:                                                                                                  ## Mod history: 2017-05-24 MAS  Created from Sunburst 120.
000020:                                                                                                  ##              2017-06-13 RSB  Transcribed.
000021:                                                                                                  ##              2017-06-22 RSB  Proofed comment text with
000022:                                                                                                  ##                              octopus/ProoferComments.
000023:


000025:                                                                                                  #  BLOCK 2 LGC ATTITUDE MANEUVER ROUTINE-KALCMANU
000026:
000027:
000028:
000029:                                                                                                  #  MOD 1                          DATE  11/7/66       BY  DON KEENE
000030:                                                                                                  #  PROGRAM DESCRIPTION
000031:
000032:                                                                                                  #       KALCMANU IS A ROUTINE WHICH GENERATES COMMANDS FOR THE LM DAP TO CHANGE THE ATTITUDE OF THE SPACECRAFT
000033:                                                                                                  #  DURING FREE FALL.  IT IS DESIGNED TO MANEUVER THE SPACECRAFT FROM ITS INITIAL ORIENTATION TO SOME DESIRED
000034:                                                                                                  #  ORIENTATION SPECIFIED BY THE PROGRAM WHICH CALLS KALCMANU, AVOIDING GIMBAL LOCK IN THE PROCESS.  IN THE
000035:                                                                                                  #  MOD 1 VERSION, THIS DESIRED ATTITUDE CAN BE SPECIFIED IN ONE OF TWO WAYS
000036:
000037:                                                                                                  #       A) BY A SET OF THREE COMMANDED CDU ANGLES
000038:
000039:                                                                                                  #       B) BY A VECTOR IN STABLE MEMBER COORDINATES ALONG WHICH THE THRUST VECTOR (GIVEN IN SPACECRAFT
000040:                                                                                                  #          COORDINATES IS TO BE ALIGNED.
000041:
000042:                                                                                                  #       IF THE FIRST METHOD IS USED, THE THREE DESIRED CDU ANGLES MUST BE STORED AS 2:S COMPLEMENT SINGLE
000043:                                                                                                  #  PRECISION ANGLES IN THE THREE CONSECUTIVE LOCATIONS, CPHI, CTHETA, CPSI, WHERE
000044:
000045:                                                                                                  #       CPHI = COMMANDED OUTER GIMBAL ANGLE
000046:                                                                                                  #       CTHETA = COMMANDED INNER GIMBAL ANGLE
000047:                                                                                                  #       CPSI = COMMANDED MIDDLE GIMBAL ANGLE
000048:
000049:                                                                                                  #  THE ENTRY POINT IN KALCMANU FOR THIS METHOD IS KALCMAN3 (SEE SECTION 4)
000050:
000051:                                                                                                  #       THE SECOND METHOD MAY BE USED FOR POINTING THE THRUST AXIS OF THE SPACECRAFT.  IN THIS CASE THE AXIS TO
000052:                                                                                                  #  BE POINTED MUST APPEAR AS A HALF UNIT DOUBLE PRECISION VECTOR IN SUCCESSIVE LOCATIONS OF ERASABLE MEMORY
000053:                                                                                                  #  BEGINNING WITH THE LOCATION CALLED SCAXIS. THE COMPONENTS OF THIS VECTOR ARE GIVEN IN SPACECRAFT COORDINATES.
000054:                                                                                                  #  THE DIRECTION IN WHICH THIS AXIS IS TO BE POINTED MUST APPEAR AS A HALF UNIT DOUBLE PRECISION VECTOR IN
000055:
000056:                                                                                                  #  SUCCESSIVE LOCATIONS OF ERASABLE MEMORY BEGINNING WITH THE ADDRESS CALLED POINTVSM.  THE COMPONENTS OF
000057:                                                                                                  #  THIS VECTOR ARE GIVEN IN STABLE MEMBER COORDINATES.
000058:
000059:                                                                                                  #                                                                             -
000060:                                                                                                  #       KALCMANU DETERMINES THE DIRECTION OF THE SINGLE EQUIVALENT ROTATION (COF ALTERNATELY TERMED U) AND THE
000061:                                                                                                  #  MAGNITUDE OF THE ROTATION (AM) TO BRING THE S/C FROM ITS INITIAL ORIENTATION TO ITS FINAL ORIENTATION.
000062:                                                                                                  #  THIS DIRECTION REMAINS FIXED BOTH IN INERTIAL COORDINATES AND IN COMMANDED S/C AXES THROUGHOUT THE
000063:                                                                                                  #                   -
000064:                                                                                                  #  MANEUVER.  ONCE COF AND AM HAVE BEEN DETERMINED, KALCMANU THEN EXAMINES THE MANEUVER TO SEE IF IT WILL BRING
000065:                                                                                                  #                                        -
000066:                                                                                                  #  THE S/C THROUGH GIMBAL LOCK.  IF SO, COF AND AM ARE READJUSTED SO THAT THE S/C WILL JUST SKIM THE GIMBAL
000067:                                                                                                  #  LOCK ZONE AND ALIGN THE X-AXIS.  IN GENERAL A FINAL YAW  ABOUT X WILL BE NECESSARY TO COMPLETE THE MANEUVER.
000068:
000069:                                                                                                  #  NEEDLESS TO SAY, NEITHER THE INITIAL NOR THE FINAL ORIENTATION CAN BE IN GIMBAL LOCK.
000070:
000071:                                                                                                  #       FOR PROPER ATTITUDE CONTROL THE DIGITAL AUTOPILOT MUST BE GIVEN AN ATTITUDE REFERENCE WHICH IT CAN TRACK.
000072:                                                                                                  #  KALCMANU DOES THIS BY GENERATING A REFERENCE OF DESIRED GIMBAL ANGLES (CDUXD, CDUYD, CDUZD) WHICH ARE UPDATED
000073:                                                                                                  #  EVERY ONE SECOND DURING THE MANEUVER.  TO ACHIEVE A SMOOTHER SEQUENCE OF COMMANDS BETWEEN SUCCESSIVE UPDATES,
000074:                                                                                                  #  THE PROGRAM ALSO GENERATES A SET OF INCREMENTAL CDU ANGLES (DELDCDU) TO BE ADDED TO CDU DESIRED BY THE DIGITAL
000075:                                                                                                  #  AUTOPILOT.  KALCMANU ALSO CALCULATES THE COMPONENT MANEUVER RATES (OMEGAPD, OMEGAQD, OMEGARD), WHICH CAN
000076:                                                                                                  #                                       -


000078:                                                                                                  #  BE DETERMINED SIMPLY BY MULTIPLYING COF BY SOME SCALAR (ARATE) CORRESPONDING TO THE DESIRED ROTATIONAL RATE.
000079:
000080:                                                                                                  #       AUTOMATIC MANEUVERS ARE TIMED WITH THE HELP OF WAITLIST SO THAT AFTER A SPECIFIED INTERVAL THE Y AND Z
000081:                                                                                                  #  DESIRED RATES ARE SET TO ZERO AND THE DESIRED CDU ANGLES (CDUYD, CDUZD) ARE SET EQUAL TO THE FINAL DESIRED CDU
000082:                                                                                                  #  ANGLES (CTHETA, CPSI).  IF ANY YAW  REMAINS DUE TO GIMBAL LOCK AVOIDANCE, THE FINAL YAW  MANEUVER IS
000083:                                                                                                  #  CALCULATED AND THE DESIRED YAW  RATE SET TO SOME FIXED VALUE (ROLLRATE = + OR - 2 DEGREES PER SEC).
000084:                                                                                                  #  IN THIS CASE ONLY AN INCREMENTAL CDUX ANGLE (DELFROLL) IS SUPPLIED TO THE DAP.  AT THE END OF THE YAW
000085:                                                                                                  #  MANEUVER OR IN THE EVENT THAT THERE WAS NO FINAL YAW,  CDUXD IS SET EQUAL TO CPHI AND THE X-AXIS DESIRED
000086:                                                                                                  #  RATE SET TO ZERO.  THUS, UPON COMPLETION OF THE MANEUVER THE S/C WILL FINISH UP IN A LIMIT CYCLE ABOUT THE
000087:                                                                                                  #  DESIRED FINAL GIMBAL ANGLES.
000088:
000089:
000090:
000091:                                                                                                  #  PROGRAM LOGIC FLOW
000092:
000093:                                                                                                  #       KALCMANU IS CALLED AS A HIGH PRIORITY JOB WITH ENTRY POINTS AT KALCMAN3 AND VECPOINT.  IT FIRST PICKS
000094:                                                                                                  #  UP THE CURRENT CDU ANGLES TO BE USED AS THE BASIS FOR ALL COMPUTATIONS INVOLVING THE INITIAL S/C ORIENTATION.
000095:                                                                                                  #  IT THEN DETERMINES THE DIRECTION COSINE MATRICES RELATING BOTH THE INITIAL AND FINAL S/C ORIENTATION TO STABLE
000096:                                                                                                  #                *    *                                                                               *
000097:                                                                                                  #  MEMBER AXES (MIS, MFS).  IT ALSO COMPUTES THE MATRIX RELATING FINAL S/C AXES TO INITIAL S/C AXES (MFI).  THE
000098:                                                                                                  #  ANGLE OF ROTATION (AM) IS THEN EXTRACTED FROM THIS MATRIX, AND TESTS ARE MADE TO DETERMINE IF
000099:
000100:                                                                                                  #       A)  AM LESS THAN .25 DEGREES (MINANG)
000101:                                                                                                  #       B)  AM GREATER THAN 170 DEGREES (MAXANG)
000102:
000103:                                                                                                  #       IF AM LESS THAN .25 DEGREES, NO COMPLICATED AUTOMATIC MANEUVERING IS NECESSARY.  THEREFORE WE CAN SIMPLY
000104:                                                                                                  #  SET CDU DESIRED EQUAL TO THE FINAL CDU DESIRED ANGLES AND TERMINATE THE JOB.
000105:
000106:                                                                                                  #       IF AM IS GREATER THAN .25 DEGREES BUT LESS THAN 170 DEGREES, THE AXES OF THE SINGLE EQUIVALENT ROTATION
000107:                                                                                                  #    -                                                       *
000108:                                                                                                  #  (COF) IS EXTRACTED FROM THE SKEW SYMMETRIC COMPONENTS OF MFI.                            *     *
000109:                                                                                                  #       IF AM GREATER THAN 170 DEGREES AN ALTERNATE METHOD EMPLOYING THE SYMMETRIC PART OF MFI (MFISYM) IS USED
000110:                                                                                                  #                -
000111:                                                                                                  #  TO DETERMINE COF.
000112:
000113:                                                                                                  #       THE PROGRAM THEN CHECKS TO SEE IF THE MANEUVER AS COMPUTED WILL BRING THE S/C THROUGH GIMBAL LOCK.  IF
000114:                                                                                                  #  SO, A NEW MANEUVER IS CALCULATED WHICH WILL JUST SKIM THE GIMBAL LOCK ZONE AND ALIGN THE S/C X-AXIS.  THIS
000115:                                                                                                  #  METHOD ASSURES THAT THE ADDITIONAL MANEUVERING TO AVOID GIMBAL LOCK WILL BE KEPT TO A MINIMUM.  SINCE A FINAL
000116:                                                                                                  #  P AXIS YAW WILL BE NECESSARY, A SWITCH IS RESET (STATE SWITCH 31) TO ALLOW FOR THE COMPUTATION OF THIS FINAL
000117:                                                                                                  #  YAW.
000118:
000119:                                                                                                  #       AS STATED PREVIOUSLY KALCMANU GENERATES A SEQUENCE OF DESIRED GIMBAL ANGLES WHICH ARE UPDATED EVERY
000120:                                                                                                  #                                                                                               -
000121:                                                                                                  #  SECOND.  THIS IS ACCOMPLISHED BY A SMALL ROTATION OF THE DESIRED S/C FRAME ABOUT THE VECTOR COF.  THE NEW
000122:                                                                                                  #  DESIRED REFERENCE MATRIX IS THEN,
000123:
000124:                                                                                                  #                   *              *         *
000125:                                                                                                  #                  MIS       =    MIS       DEL
000126:
000127:                                                                                                  #                     N+1            N


000129:                                                                                                  #         *
000130:                                                                                                  #  WHERE DEL IS THE MATRIX CORRESPONDING TO THIS SMALL ROTATION.  THE NEW CDU ANGLES CAN THEN BE EXTRACTED
000131:                                                                                                  #        *
000132:                                                                                                  #  FROM MIS.
000133:
000134:                                                                                                  #       AT THE BEGINNING OF THE MANEUVER THE AUTOPILOT DESIRED RATES (OMEGAPD, OMEGAQD, OMEGARD) AND THE
000135:                                                                                                  #  MANEUVER TIMINGS ARE ESTABLISHED.  ON THE FIRST PASS AND ON ALL SUBSEQUENT UPDATES THE CDU DESIRED
000136:                                                                                                  #  ANGLES ARE LOADED WITH THE APPROPRIATE VALUES AND THE INCREMENTAL CDU ANGLES ARE COMPUTED.  THE AGC CLOCKS
000137:
000138:                                                                                                  #  (TIME1 AND TIME2) ARE THAN CHECKED TO SEE IF THE MANEUVER WILL TERMINATE BEFORE THE NEXT UPDATE.  IF
000139:                                                                                                  #  NOT, KALCMANU CALLS FOR ANOTHER UPDATE (RUN AS A JOB WITH PRIORITY TBD) IN ONE SECOND.  ANY DELAYS IN THIS
000140:                                                                                                  #  CALLING SEQUENCE ARE AUTOMATICALLY COMPENSATED IN CALLING FOR THE NEXT UPDATE.
000141:
000142:                                                                                                  #       IF IT IS FOUND THAT THE MANEUVER IS TO TERMINATE BEFORE THE NEXT UPDATE A ROUTINE IS CALLED (AS A WAIT-
000143:                                                                                                  #  LIST TASK) TO STOP THE MANEUVER AT THE APPROPRIATE TIME AS EXPLAINED ABOVE.
000144:
000145:
000146:
000147:                                                                                                  #  CALLING SEQUENCE
000148:
000149:                                                                                                  #       THE ENTRY POINT IN KALCMANU FOR POINTING THE THRUST AXIS OF THE SPACECRAFT IS VECPOINT
000150:
000151:                                                                                                  #       CAF        PRIO XX
000152:                                                                                                  #                       --
000153:                                                                                                  #       INHINT
000154:                                                                                                  #       TC         FINDVAC
000155:                                                                                                  #       2CADR      VECPOINT
000156:                                                                                                  #       RELINT
000157:
000158:                                                                                                  #       THE CALLING PROGRAM MUST ALSO SPECIFY THE DESIRED MANEUVERING RATES, PRESENTLY IN THE FORM OF A SINGLE
000159:                                                                                                  #  PRECISION NUMBER (RATEINDEX), WHICH IS LOADED WITH ONE OF FOUR VALUES 0, 2, 4, OR 6, CORRESPONDING TO ANGULAR
000160:                                                                                                  #  RATES OF .5, 2, 5, 10 DEGREES/SEC.  THERE IS ALSO A STATE SWITCH (33) WHICH MAY BE SET TO IGNORE ANY FINAL YAW
000161:
000162:                                                                                                  #  INCURRED BY AVOIDING GIMBAL LOCK.
000163:
000164:                                                                                                  #       WITH THIS INFORMATION KALCMANU WILL THEN GENERATE A SEQUENCE OF THREE CDU DESIRED ANGLES (CDUXD, CDUYD,
000165:                                                                                                  #  CDUZD), AND THREE INCREMENTAL ANGLES (DELDCDU, DELDCDU1, DELDCDU2) AS WELL AS THE COMPONENT MANEUVER RATES
000166:                                                                                                  #  (IN S/C AXES) TO BE USED BY THE LEM DAP IN PERFORMING THE AUTOMATIC MANEUVER.
000167:
000168:                                                                                                  #       THERE ARE TWO WAYS IN WHICH KALCMANU MAY BE INITIATED CORRESPONDING TO THE TWO METHODS OF SPECIFYING THE
000169:                                                                                                  #  DESIRED ATTITUDE OF THE SPACECRAFT.  IF METHOD 1 IS USED, THE COMMANDED GIMBAL ANGLES MUST BE PRECOMPUTED AND
000170:                                                                                                  #  STORED IN LOCATIONS CPHI, CTHETA, CPSI.  THE USER:S PROGRAM MUST THEN CLEAR STATE SWITCH NO 33 TO ALLOW THE
000171:                                                                                                  #  ATTITUDE MANEUVER ROUTINE TO PERFORM ANY FINAL P-AXIS YAW INCURRED BY AVOIDING GIMBAL LOCK.  THE MANEUVER IS
000172:
000173:                                                                                                  #  THEN INITIATED BY ESTABLISHING THE FOLLOWING EXECUTIVE JOB
000174:
000175:                                                                                                  #                         *
000176:                                                                                                  #       CAF     PRIO    XX
000177:                                                                                                  #                       --
000178:                                                                                                  #       INHINT
000179:                                                                                                  #       TC         FINDVAC
000180:                                                                                                  #       2CADR      KALCMAN3
000181:                                                                                                  #       RELINT
000182:


000184:                                                                                                  #  THE USER:S PROGRAM MAY EITHER CONTINUE OR WAIT FOR THE TERMINATION OF THE MANEUVER.  IF THE USER WISHES TO
000185:                                                                                                  #  WAIT, HE MAY PUT HIS JOB TO SLEEP WITH THE FOLLOWING INSTRUCTIONS
000186:
000187:                                                                                                  #       L          TC        BANKCALL
000188:                                                                                                  #       L+1        CADR      ATTSTALL
000189:                                                                                                  #       L+2        (BAD      RETURN)
000190:                                                                                                  #       L+3        (GOOD     RETURN)
000191:
000192:                                                                                                  #       UPON COMPLETION OF THE MANEUVER, THE PROGRAM WILL BE AWAKENED AT L+3 IF THE MANEUVER WAS COMPLETED
000193:                                                                                                  #  SUCCESSFULLY, OR AT L+2 IF THE MANEUVER WAS ABORTED.  THIS ABORT WOULD OCCUR IF THE INITIAL OR FINAL ATTITUDE
000194:                                                                                                  #  WAS IN GIMBAL LOCK.
000195:                                                                                                  #                                                                   -
000196:                                                                                                  #       IF THE SECOND METHOD IS USED, THE DESIRED THRUST DIRECTION, V , MUST BE COMPUTED AND STORED IN THE SIX
000197:                                                                                                  #                                                                    F
000198:                                                                                                  #  ERASABLE LOCATIONS BEGINNING WITH THE ADDRESS POINTVSM.  THE THRUST AXIS MUST BE LOADED INTO THE SIX ERASABLE
000199:                                                                                                  #  LOCATIONS BEGINNING WITH SC AXIS.  THE CALLER MUST THEN CLEAR (OR SET) STATE SWITCH NO 33 AND SPECIFY THE
000200:                                                                                                  #  DESIRED MANEUVERING RATE AS BEFORE.  THE MANEUVER IS THEN INITIATED BY THE EXECUTIVE CALL.
000201:
000202:
000203:
000204:                                                                                                  #  SUBROUTINES
000205:
000206:                                                                                                  #       KALCMANU USES A NUMBER OF INTERPRETIVE SUBROUTINES WHICH MAY BE OF GENERAL INTEREST.  SINCE THESE ROUTINES
000207:                                                                                                  #  WERE PROGRAMMED EXCLUSIVELY FOR KALCMANU, THEY ARE NOT, AS YET, GENERALLY AVAILABLE FOR USE BY OTHER PROGRAMS.
000208:
000209:                                                                                                  #       MXM3
000210:                                                                                                  #       ----
000211:
000212:                                                                                                  #       THIS SUBROUTINE MULTIPLIES TWO 3X3 MATRICES AND LEAVES THE RESULT IN THE FIRST 18 LOCATIONS OF THE PUSH
000213:                                                                                                  #  DOWN LIST, I.E.,
000214:
000215:                                                                                                  #                 (M    M    M )
000216:                                                                                                  #                 ( 0    1    2)
000217:                                                                                                  #        *        (            )       *         *
000218:                                                                                                  #        M    =   (M    M    M )  =    M1   X    M2
000219:                                                                                                  #                 ( 3    4    5)
000220:
000221:                                                                                                  #                 (            )
000222:                                                                                                  #                 (M    M    M )
000223:                                                                                                  #                 ( 6    7    8)
000224:
000225:                                                                                                  #                                                                                        *
000226:                                                                                                  #       INDEX REGISTER X1 MUST BE LOADED WITH THE COMPLEMENT OF THE STARTING ADDRESS FOR M1, AND X2 MUST BE
000227:                                                                                                  #                                                         *
000228:                                                                                                  #  LOADED WITH THE COMPLEMENT OF THE STARTING ADDRESS FOR M2.   THE ROUTINE USES THE FIRST 20 LOCATIONS OF THE PUSH
000229:                                                                                                  #  DOWN LIST.  THE FIRST ELEMENT OF THE MATRIX APPEARS IN PDO.  PUSH UP FOR M .
000230:                                                                                                  #                                                                            8
000231:
000232:                                                                                                  #       TRANSPOS
000233:                                                                                                  #       --------


000235:                                                                                                  #       THIS ROUTINE TRANSPOSES A 3X3 MATRIX AND LEAVES THE RESULT IN THE PUSH DOWN LIST, I.E.,
000236:                                                                                                  #
000237:                                                                                                  #        *         * T
000238:                                                                                                  #        M    =    M1
000239:
000240:                                                                                                  #  INDEX REGISTER X1 MUST CONTAIN THE COMPLEMENT OF THE STARTING ADDRESS FOR M1.  PUSH UP FOR THE FIRST AND SUB-
000241:                                                                                                  #                        *
000242:                                                                                                  #  SEQUENT COMPONENTS OF M.   THIS SUBROUTINE ALSO USES THE FIRST 20 LOCATIONS OF THE PUSH DOWN LIST.
000243:
000244:                                                                                                  #       CDU TO DCM
000245:                                                                                                  #       ----------
000246:
000247:                                                                                                  #       THIS SUBROUTINE CONVERTS THREE CDU ANGLES IN T(MPAC) TO A DIRECTION COSINE MATRIX (SCALED BY 2) RELATING
000248:                                                                                                  #  THE CORRESPONDING S/C ORIENTATIONS TO THE STABLE MEMBER FRAME.  THE FORMULAS FOR THIS CONVERSION ARE
000249:
000250:                                                                                                  #        M    =    COSY  COSZ
000251:                                                                                                  #         0
000252:
000253:                                                                                                  #        M    =    -COSY  SINZ  COSX  +  SINY  SINX
000254:                                                                                                  #         1
000255:
000256:                                                                                                  #        M    =    COSY  SINZ  SINX  +  SINY  COSX
000257:                                                                                                  #         2
000258:
000259:                                                                                                  #        M    =    SINZ
000260:                                                                                                  #         3
000261:
000262:                                                                                                  #        M    =    COSZ  COSX
000263:                                                                                                  #         4
000264:
000265:                                                                                                  #        M    =    -COSZ  SINX
000266:                                                                                                  #         5
000267:
000268:                                                                                                  #        M    =    -SINY  COSZ
000269:                                                                                                  #         6
000270:
000271:                                                                                                  #        M    =    SINY  SINZ  COSX  +  COSY  SINX
000272:                                                                                                  #         7
000273:
000274:                                                                                                  #        M    =    -SINY  SINZ  SINX  +  COSY  COSX
000275:                                                                                                  #         8
000276:
000277:                                                                                                  #  WHERE      X    =    OUTER GIMBAL ANGLE
000278:                                                                                                  #             Y    =    INNER GIMBAL ANGLE
000279:                                                                                                  #             Z    =    MIDDLE GIMBAL ANGLE
000280:
000281:                                                                                                  #       THE INTERPRETATION OF THIS MATRIX IS AS FOLLOWS
000282:
000283:                                                                                                  #       IF A , A , A  REPRESENT THE COMPONENTS OF A VECTOR IN S/C AXES THEN THE COMPONENTS OF THE SAME VECTOR IN
000284:                                                                                                  #           X   Y   Z


000286:                                                                                                  #  STABLE MEMBER AXES (B , B , B ) ARE
000287:                                                                                                  #                       X   Y   Z
000288:
000289:                                                                                                  #             (B )                (A )
000290:                                                                                                  #             ( X)                ( X)
000291:                                                                                                  #             (  )                (  )
000292:                                                                                                  #             (  )           *    (  )
000293:                                                                                                  #             (B )      =    M    (A )
000294:                                                                                                  #             ( Y)                ( Y)
000295:                                                                                                  #             (  )                (  )
000296:                                                                                                  #             (B )                (A )
000297:                                                                                                  #             ( Z)                ( Z)
000298:
000299:                                                                                                  #      THE SUBROUTINE WILL STORE THIS MATRIX IN SEQUENTIAL LOCATIONS OF ERASABLE MEMORY AS SPECIFIED BY THE CALLING
000300:                                                                                                  #                                                                                                              *
000301:                                                                                                  #  PROGRAM.  TO DO THIS THE CALLING PROGRAM MUST FIRST LOAD X2 WITH THE COMPLEMENT OF THE STARTING ADDRESS FOR M.
000302:
000303:                                                                                                  #       INTERNALLY, THE ROUTINE USES THE FIRST 16 LOCATIONS OF THE PUSH DOWN LIST, ALSO STEP REGISTER S1 AND INDEX
000304:                                                                                                  #  REGISTER X2.
000305:
000306:
000307:
000308:                                                                                                  #       DCM TO CDU
000309:                                                                                                  #       ----------
000310:                                                                                                  #                                                                            *
000311:
000312:                                                                                                  #       THIS ROUTINE EXTRACTS THE CDU ANGLES FROM A DIRECTION COSINE MATRIX (M SCALED BY 2) RELATING S/C AXIS TO
000313:                                                                                                  #                                                                                  *
000314:                                                                                                  #  STABLE MEMBER AXES.  X1 MUST CONTAIN THE COMPLEMENT OF THE STARTING ADDRESS FOR M.  THE SUBROUTINE LEAVES THE
000315:                                                                                                  #  CORRESPONDING GIMBAL ANGLES IN V(MPAC) AS DOUBLE PRECISION 1:S COMPLEMENT ANGLES SCALED BY 2PI.  THE FORMULAS
000316:                                                                                                  #  FOR THIS CONVERSION ARE
000317:
000318:                                                                                                  #        Z    =    ARCSIN (M  )
000319:                                                                                                  #                            3
000320:
000321:                                                                                                  #        Y    =    ARCSIN (-M /COSZ)
000322:                                                                                                  #                            6
000323:
000324:                                                                                                  #  IF M  IS NEGATIVE, Y IS REPLACED BY PI SGN Y - Y
000325:                                                                                                  #      0
000326:
000327:                                                                                                  #        X    =    ARCSIN (-M /COSZ)
000328:                                                                                                  #                            5
000329:
000330:                                                                                                  #  IF M  IS NEGATIVE X IS REPLACED BY PI SGN X - X
000331:                                                                                                  #      4
000332:
000333:                                                                                                  #       THIS ROUTINE DOES NOT SET THE PUSH DOWN POINTER, BUT USES THE NEXT 8 LOCATIONS OF THE PUSH DOWN LIST AND
000334:                                                                                                  #  RETURNS THE POINTER TO ITS ORIGINAL SETTING.  THIS PROCEDURE ALLOWS THE CALLER TO STORE THE MATRIX AT THE TOP OF
000335:
000336:                                                                                                  #  THE PUSH DOWN LIST.
000337:


000339:                                                                                                  #       DELCOMP
000340:                                                                                                  #       -------
000341:
000342:                                                                                                  #                                                           *
000343:                                                                                                  #       THIS ROUTINE COMPUTES THE DIRECTION COSINE MATRIX (DEL) RELATING ON
000344:                                                                                                  #                                                                           -
000345:                                                                                                  #  IS ROTATED WITH RESPECT TO THE FIRST BY AN ANGLE, A, ABOUT A UNIT VECTOR, U.  THE FORMULA FOR THIS MATRIX IS
000346:
000347:                                                                                                  #        *         *           --T           *
000348:                                                                                                  #        DEL  =    I  COSA  +  UU (1-COSA) + V SINA
000349:                                                                                                  #                                             X
000350:
000351:                                                                                                  #  WHERE      *         (1   0    0)
000352:                                                                                                  #             I    =    (0   1    0)
000353:                                                                                                  #                       (0   0    1)
000354:
000355:
000356:                                                                                                  #                          2
000357:                                                                                                  #                       (U        U U       U U )
000358:                                                                                                  #                       ( X        X Y       X Z)
000359:                                                                                                  #                       (                       )
000360:                                                                                                  #             --T       (           2           )
000361:                                                                                                  #             UU   =    (U U      U         U U )
000362:                                                                                                  #                       ( Y X      Y         Y Z)
000363:                                                                                                  #                       (                       )
000364:                                                                                                  #                       (                     2 )
000365:                                                                                                  #                       (U U      U U       U  )
000366:                                                                                                  #                       ( Z X      Z Y       Z  )
000367:
000368:
000369:                                                                                                  #                       (0        -U        U  )
000370:
000371:                                                                                                  #                       (           Z        Y )
000372:                                                                                                  #             *         (                      )
000373:                                                                                                  #             V    =    (U        0         -U )
000374:                                                                                                  #              X        ( Z                   X)
000375:                                                                                                  #                       (                      )
000376:                                                                                                  #                       (-U       U         0  )
000377:                                                                                                  #                       (  Y       X           )
000378:
000379:                                                                                                  #             -
000380:                                                                                                  #             U    =    UNIT ROTATION VECTOR RESOLVED INTO S/C AXES
000381:                                                                                                  #             A    =    ROTATION ANGLE
000382:
000383:                                                                                                  #                              *
000384:                                                                                                  #       THE INTERPRETATION OF DEL IS AS FOLLOWS
000385:
000386:                                                                                                  #       IF A , A , A  REPRESENT THE COMPONENT OF A VECTOR IN THE ROTATED FRAME, THEN THE COMPONENTS OF THE SAME
000387:                                                                                                  #           X   Y   Z
000388:                                                                                                  #  VECTOR IN THE ORIGINAL S/C AXES (B , B , B ) ARE
000389:                                                                                                  #                                    X   Y   Z


000391:                                                                                                  #             (B )                     (A )
000392:                                                                                                  #             ( X)                     ( X)
000393:                                                                                                  #             (  )            *        (  )
000394:                                                                                                  #             (B )      =    DEL       (A )
000395:                                                                                                  #             ( Y)                     ( Y)
000396:                                                                                                  #             (  )                     (  )
000397:                                                                                                  #             (B )                     (A )
000398:                                                                                                  #             ( Z)                     ( Z)
000399:
000400:                                                                                                  #       THE ROUTINE WILL STORE THIS MATRIX (SCALED UNITY) IN SEQUENTIAL LOCATIONS OF ERASABLE MEMORY BEGINNING WITH
000401:                                                                                                  #                                                                                              -
000402:                                                                                                  #  THE LOCATION CALLED DEL.  IN ORDER TO USE THE ROUTINE, THE CALLING PROGRAM MUST FIRST STORE U (A HALF UNIT
000403:                                                                                                  #  DOUBLE PRECISION VECTOR) IN THE SET OF ERASABLE LOCATIONS BEGINNING WITH THE ADDRESS CALLED COF.  THE ANGLE, A,
000404:                                                                                                  #  MUST THEN BE LOADED INTO D(MPAC).
000405:                                                                                                  #
000406:                                                                                                  #       INTERNALLY, THE PROGRAM ALSO USES THE FIRST 10 LOCATIONS OF THE PUSH DOWN LIST.
000407:
000408:
000409:
000410:                                                                                                  #       READCDUK
000411:                                                                                                  #       --------
000412:
000413:                                                                                                  #       THIS BASIC LANGUAGE SUBROUTINE LOADS T(MPAC) WITH THE THREE CDU ANGLES.
000414:
000415:
000416:
000417:                                                                                                  #      SIGNMPAC
000418:                                                                                                  #       --------
000419:
000420:                                                                                                  #       THIS IS A BASIC LANGUAGE SUBROUTINE WHICH LIMITS THE MAGNITUDE OF D(MPAC) TO + OR - DPOSMAX ON OVERFLOW.
000421:
000422:
000423:
000424:                                                                                                  #       PROGRAM STORAGE ALLOCATION
000425:
000426:                                                                                                  #             1)   FIXED MEMORY                       1059 WORDS
000427:                                                                                                  #             2)   ERASABLE MEMORY                      98
000428:
000429:                                                                                                  #             3)   STATE SWITCHES                        3
000430:                                                                                                  #             4)   FLAGS                                 1
000431:
000432:
000433:
000434:                                                                                                  #       JOB PRIORITIES
000435:
000436:                                                                                                  #             1)   KALCMANU                            TBD
000437:                                                                                                  #             2)   ONE SECOND UPDATE                   TBD
000438:
000439:
000440:
000441:
000442:                                                                                                  #       SUMMARY OF STATE SWITCHES AND FLAGWORDS USED BY KALCMANU.


000444:                                                                                                  #  STATE                FLAGWRD 2      SETTING             MEANING
000445:                                                                                                  #  SWITCH NO.            BIT NO.
000446:
000447:                                                                                                  #    *
000448:                                                                                                  #  31                      14            0       MANEUVER WENT THROUGH GIMBAL LOCK
000449:                                                                                                  #                                        1       MANEUVER DID NOT GO THROUGH GIMBAL LOCK
000450:
000451:                                                                                                  #    *
000452:                                                                                                  #  32                      13            0       CONTINUE UPDATE PROCESS
000453:                                                                                                  #                                        1       START UPDATE PROCESS
000454:
000455:                                                                                                  #  33                      12            0       PERFORM FINAL P-AXIS YAW IF REQUIRED
000456:                                                                                                  #                                        1       IGNORE ANY FINAL P-AXIS YAW
000457:
000458:                                                                                                  #  34                      11            0       SIGNAL END OF KALCMANU
000459:                                                                                                  #                                        1       KALCMANU IN PROCESS       USER MUST SET SWITCH BEFORE INITIATING
000460:
000461:
000462:                                                                                                  #          *  INTERNAL TO KALCMANU
000463:
000464:
000465:
000466:                                                                                                  #       SUGGESTIONS FOR PROGRAM INTEGRATION
000467:
000468:                                                                                                  #       THE FOLLOWING VARIABLES SHOULD BE ASSIGNED TO UNSWITCH ERASABLE
000469:
000470:                                                                                                  #                       CPHI
000471:                                                                                                  #                       CTHETA
000472:                                                                                                  #                       CPSI
000473:                                                                                                  #                       POINTVSM  +5
000474:                                                                                                  #                       SCAXIS    +5
000475:                                                                                                  #                       DELDCDU
000476:                                                                                                  #                       DELDCDU1
000477:                                                                                                  #                       DELDCDU2
000478:                                                                                                  #                       RATEINDX
000479:
000480:                                                                                                  #       THE FOLLOWING SUBROUTINES MAY BE PUT IN A DIFFERENT BANK
000481:
000482:                                                                                                  #                       MXM3
000483:                                                                                                  #                       TRANSPOS
000484:                                                                                                  #                       SIGNMPAC
000485:                                                                                                  #                       READCDUK
000486:                                                                                                  #                       CDUTODCM
000487:


000489: 34,2000                                           BANK     34
000490: 34,2000  E3,1535                                  EBANK=   MIS
000491:
000492: 34,2000           12001                           NOOP
000493: 34,2001           06103        VECPOINT           TC       INTPRET
000494: 34,2002           77634                           RTB
000495: 34,2003           70457                                    READCDUK                              #  READ THE PRESENT CDU ANGLES
000496: 34,2004           01533                           STORE    BCDU
000497: 34,2005           45164                           AXC,2    CALL                                  #  COMPUTE THE TRANSFORMATION FROM INITIAL
000498: 34,2006           01535                                    MIS                                   #  S/C AXES TO STABLE MEMBER AXES (MIS)
000499: 34,2007           70464                                    CDUTODCM
000500: 34,2010           61375                           VLOAD    VXM                                   #                                 -
000501: 34,2011           01656                                    POINTVSM                              #  RESOLVE THE POINTING DIRECTION VS INTO
000502: 34,2012           01536                                    MIS                                   #  INITIAL S/C AXES
000503: 34,2013           41456                           UNIT     PUSH
000504: 34,2014           53435                           VXV      UNIT                                  #  TAKE THE CROSS PRODUCT VF X VI
000505: 34,2015           01664                                    SCAXIS                                #  WHERE VI = SCAXIS
000506: 34,2016           57400                           BOV      VCOMP
000507: 34,2017           70042                                    PICKAXIS
000508: 34,2020           25624                           STOVL    COF
000509: 34,2021           01664                                    SCAXIS
000510: 34,2022           72441                           DOT      SL1
000511: 34,2023           77726                           ARCCOS
000512: 34,2024           77624        COMPMATX           CALL                                           #  NOW COMPUTE THE TRANSFORMATION FROM
000513: 34,2025           70603                                    DELCOMP                               #  FINAL S/C AXES TO INITIAL S/C AXES = MFI
000514: 34,2026           75160                           AXC,1    AXC,2                                 #  COMPUTE THE TRANSFORMATION FROM FINAL
000515:
000516: 34,2027           01535                                    MIS                                   #  S/C AXES TO STABLE MEMBER AXES
000517: 34,2030           01557                                    KEL
000518: 34,2031           77624                           CALL
000519: 34,2032           73442                                    MXM3                                  #  MFS IN PD LIST
000520: 34,2033           45160                           AXC,1    CALL
000521: 34,2034           00000                                    0                                     #  EXTRACT THE CDU ANGLES FROM THIS MATRIX
000522: 34,2035           70727                                    DCMTOCDU
000523: 34,2036           77634                           RTB
000524: 34,2037           33573                                    V1STO2S                               #  AND USE THEM AS THE COMMANDED CDU ANGLES
000525: 34,2040           35632                           STCALL   CPHI
000526: 34,2041           70070                                    KALCMAN3   +1                         #  PROCEED AS IF WE HAD BEEN GIVEN COMMAND
000527:                                                                                                  #  CDU ANGLES
000528: 34,2042           50375        PICKAXIS           VLOAD    DOT                                   #  IF VF X VI = 0. PUSH UP FOR VF
000529: 34,2043           01664                                    SCAXIS                                #  FIND VF . VI
000530: 34,2044           72240                           BMN      TLOAD                                 #  IF ANTIPARALLEL
000531: 34,2045           70051                                    ROT180
000532: 34,2046           01533                                    BCDU
000533: 34,2047           35632                           STCALL   CPHI                                  #  IF VF = VI
000534: 34,2050           70070                                    KALCMAN3   +1
000535:
000536: 34,2051           47375        ROT180             VLOAD    VXV                                   #  180 DEG ROTATION IS REQUIRED
000537: 34,2052           01544                                    MIS        +6                         #  Y STABLE MEMBER AXIS IN INITIAL S/C AXES
000538: 34,2053           30414                                    HALFA
000539:
000540: 34,2054           47256                           UNIT     VXV                                   #  FIND Y(SM) X X(I)
000541: 34,2055           01664                                    SCAXIS                                #  FIND UNIT (VI X UNIT(Y(SM) X X(I)))


000543: 34,2056           40056                           UNIT     BOV                                   #  PICK A VECTOR PERPENDICULAR TO VI IN THE
000544: 34,2057           70064                                    PICKX                                 #  PLANE CONTAINING Y(SM) AND X(I) SO THAT
000545: 34,2060           15624        XROT               STODL    COF                                   #  MANEUVER DOES NOT GO THRU GIMBAL LOCK
000546: 34,2061           30414                                    HALFA
000547: 34,2062           77650                           GOTO
000548: 34,2063           70024                                    COMPMATX
000549: 34,2064           52175        PICKX              VLOAD    GOTO                                  #  PICK THE X AXIS IN THIS CASE
000550: 34,2065           30414                                    HALFA
000551:
000552: 34,2066           70060                                    XROT
000553:
000554:                                                                                                  #  FIRST ENTRY POINT- KALCMAN3
000555:
000556:                                                                                                  #  THE THREE DESIRED CDU ANGLES MUST BE STORED AS SINGLE PRECISION TWOS COMPLEMENT ANGLES IN THE THREE SUCCESSIVE
000557:                                                                                                  #  LOCATIONS, CPHI, CTHETA, CPSI.
000558:
000559: 34,2067           06103        KALCMAN3           TC       INTPRET                               #  PICK UP THE CURRENT CDU ANGLES AND
000560: 34,2070           77634                           RTB                                            #    COMPUTE THE MATRIX FROM INITIAL S/C
000561: 34,2071           70457                                    READCDUK                              #    AXES TO FINAL S/C AXES
000562: 34,2072           01533                           STORE    BCDU                                  #  STORE INITIAL S/C ANGLES
000563: 34,2073           51535                           SLOAD    ABS
000564: 34,2074           01535                                    BCDU       +2                         #  CHECK MAGNITUDE OF MIDDLE GIMBAL ANGLE
000565: 34,2075           51025                           DSU      BPL
000566: 34,2076           30444                                    LOCKANGL                              #  IF GREATER THAN 60 DEG, ABORT MANEUVER
000567: 34,2077           71007                                    TOOBAD
000568: 34,2100           72364                           AXC,2    TLOAD
000569: 34,2101           01535                                    MIS
000570: 34,2102           01533                                    BCDU
000571: 34,2103           77624                           CALL                                           #  COMPUTE THE TRANSFORMATION FROM INITIAL
000572: 34,2104           70464                                    CDUTODCM                              #  S/C AXES TO STABLE MEMBER AXES
000573: 34,2105           51535                           SLOAD    ABS                                   #  CHECK THE MAGNITUDE OF THE DESIRED
000574: 34,2106           01634                                    CPSI                                  #  MIDDLE GIMBAL ANGLE
000575:
000576: 34,2107           51025                           DSU      BPL
000577: 34,2110           30444                                    LOCKANGL                              #  IF GREATER THAN 60 DEG, ABORT MANEUVER
000578: 34,2111           71007                                    TOOBAD
000579: 34,2112           72364                           AXC,2    TLOAD
000580: 34,2113           01557                                    MFS                                   #  PREPARE TO CALCULATE ARRAY MFS
000581: 34,2114           01632                                    CPHI
000582: 34,2115           77624                           CALL
000583: 34,2116           70464                                    CDUTODCM
000584: 34,2117           45160        SECAD              AXC,1    CALL                                  #  MIS AND MFS ARRAYS CALCULATED        $2
000585: 34,2120           01535                                    MIS
000586: 34,2121           73472                                    TRANSPOS
000587: 34,2122           77775                           VLOAD
000588: 34,2123           77626                           STADR
000589: 34,2124           52161                           STOVL    TMIS       +12D
000590: 34,2125           77626                           STADR
000591: 34,2126           52167                           STOVL    TMIS       +6
000592: 34,2127           77626                           STADR
000593: 34,2130           76175                           STORE    TMIS                                  #  TMIS = TRANSPOSE(MIS) SCALED BY 2
000594: 34,2131           75160                           AXC,1    AXC,2


000596: 34,2132           01601                                    TMIS
000597: 34,2133           01557                                    MFS
000598: 34,2134           77624                           CALL
000599: 34,2135           73442                                    MXM3
000600: 34,2136           45575                           VLOAD    STADR
000601: 34,2137           52203                           STOVL    MFI        +12D
000602: 34,2140           77626                           STADR
000603: 34,2141           52211                           STOVL    MFI        +6
000604: 34,2142           77626                           STADR
000605: 34,2143           76217                           STORE    MFI                                   #  MFI = TMIS MFS (SCALED BY 4)
000606: 34,2144           45001                           SETPD    CALL                                  #  TRANSPOSE MFI IN PD LIST
000607: 34,2145           00023                                    18D
000608: 34,2146           73501                                    TRNSPSPD
000609: 34,2147           45575                           VLOAD    STADR
000610:
000611: 34,2150           52161                           STOVL    TMFI       +12D
000612: 34,2151           77626                           STADR
000613: 34,2152           52167                           STOVL    TMFI       +6
000614: 34,2153           77626                           STADR
000615: 34,2154           76175                           STORE    TMFI                                  #  TMFI = TRANSPOSE (MFI)  SCALED BY 4
000616:
000617:                                                                                                  #  CALCULATE COFSKEW AND MFISYM
000618:
000619: 34,2155           45345                           DLOAD    DSU
000620: 34,2156           01604                                    TMFI       +2
000621: 34,2157           01562                                    MFI        +2
000622: 34,2160           45325                           PDDL     DSU                                   #  CALCULATE COF SCALED BY 2/SIN(AM)
000623: 34,2161           01564                                    MFI        +4
000624: 34,2162           01606                                    TMFI       +4
000625: 34,2163           45325                           PDDL     DSU
000626: 34,2164           01614                                    TMFI       +10D
000627: 34,2165           01572                                    MFI        +10D
000628: 34,2166           77666                           VDEF
000629: 34,2167           01635                           STORE    COFSKEW                               #  EQUALS MFISKEW
000630:
000631:                                                                                                  #  CALCULATE AM AND PROCEED ACCORDING TO ITS MAGNITUDE
000632:
000633: 34,2170           43345                           DLOAD    DAD
000634:
000635: 34,2171           01560                                    MFI
000636: 34,2172           01600                                    MFI        +16D
000637: 34,2173           43225                           DSU      DAD
000638: 34,2174           30426                                    QUARTA
000639: 34,2175           01570                                    MFI        +8D
000640: 34,2176           01645                           STORE    CAM                                   #  CAM = (MFI0+MFI4+MFI8-1)/2 HALF SCALE
000641: 34,2177           77726                           ARCCOS
000642: 34,2200           01643                           STORE    AM                                    #  AM=ARCCOS(CAM)  (AM SCALED BY 2)
000643: 34,2201           51025                           DSU      BPL
000644: 34,2202           30410                                    MINANG
000645: 34,2203           70214                                    CHECKMAX
000646: 34,2204           77751                           TLOAD                                          #  MANEUVER LESS THAN .25 DEGREES
000647: 34,2205           01632                                    CPHI                                  #  GO DIRECTLY INTO ATTITUDE HOLD


000649: 34,2206           00767                           STORE    CDUXD                                 #  ABOUT COMMANDED ANGLES
000650: 34,2207           77751                           TLOAD
000651: 34,2210           30416                                    NIL
000652: 34,2211           00775                           STORE    OMEGAPD                               #  ZERO DESIRED RATES
000653: 34,2212           34772                           STCALL   DELDCDU                               #  PREPARE TO END MANEUVER ON GOOD RETURN
000654: 34,2213           70777                                    ENDMANU
000655: 34,2214           45345        CHECKMAX           DLOAD    DSU
000656: 34,2215           01643                                    AM
000657: 34,2216           30412                                    MAXANG
000658: 34,2217           77244                           BPL      VLOAD
000659: 34,2220           70226                                    ALTCALC                               #  UNIT
000660: 34,2221           01635                                    COFSKEW                               #  COFSKEW
000661: 34,2222           77656                           UNIT
000662: 34,2223           01624                           STORE    COF                                   #  COF IS THE MANEUVER AXIS
000663: 34,2224           77650                           GOTO                                           #  SEE IF MANEUVER GOES THRU GIMBAL LOCK
000664: 34,2225           71024                                    LOCSKIRT
000665: 34,2226           53375        ALTCALC            VLOAD    VAD                                   #  IF AM GREATER THAN 170 DEGREES
000666: 34,2227           01560                                    MFI
000667: 34,2230           01602                                    TMFI
000668: 34,2231           77762                           VSR1
000669: 34,2232           25602                           STOVL    MFISYM
000670: 34,2233           01566                                    MFI        +6
000671: 34,2234           74455                           VAD      VSR1
000672: 34,2235           01610                                    TMFI       +6
000673: 34,2236           25610                           STOVL    MFISYM     +6
000674: 34,2237           01574                                    MFI        +12D
000675: 34,2240           74455                           VAD      VSR1
000676: 34,2241           01616                                    TMFI       +12D
000677: 34,2242           01616                           STORE    MFISYM     +12D                       #  MFISYM=(MFI+TMFI)/2   SCALED BY 4
000678:
000679:                                                                                                  #  CALCULATE COF
000680:
000681: 34,2243           70545                           DLOAD    SR1
000682: 34,2244           01645                                    CAM
000683: 34,2245           45325                           PDDL     DSU                                   #  PDO CAM                               $4
000684: 34,2246           30414                                    HALFA
000685: 34,2247           01645                                    CAM
000686: 34,2250           65204                           BOVB     PDDL                                  #  PD2 1 - CAM                           $2
000687: 34,2251           70445                                    SIGNMPAC
000688: 34,2252           01622                                    MFISYM     +16D
000689: 34,2253           56225                           DSU      DDV
000690:
000691: 34,2254           00001                                    0
000692: 34,2255           00003                                    2
000693: 34,2256           65366                           SQRT     PDDL                                  #  COFZ = SQRT(MFISYM8-CAM)/1-CAM)
000694: 34,2257           01612                                    MFISYM     +8D                        #                                $ ROOT 2
000695: 34,2260           56225                           DSU      DDV
000696: 34,2261           00001                                    0
000697: 34,2262           00003                                    2
000698: 34,2263           65366                           SQRT     PDDL                                  #  COFY = SQRT(MFISYM4-CAM)/(1-CAM)  $ROOT2


000700: 34,2264           01602                                    MFISYM
000701: 34,2265           56225                           DSU      DDV
000702:
000703: 34,2266           00001                                    0
000704: 34,2267           00003                                    2
000705: 34,2270           55566                           SQRT     VDEF                                  #  COFX = SQRT(MFISYM-CAM)/(1-CAM)  $ROOT 2
000706: 34,2271           77656                           UNIT
000707: 34,2272           01624                           STORE    COF
000708:
000709:                                                                                                  #  DETERMINE  LARGEST COF AND ADJUST ACCORDINGLY
000710:
000711: 34,2273           45345        COFMAXGO           DLOAD    DSU
000712: 34,2274           01624                                    COF
000713: 34,2275           01626                                    COF        +2
000714: 34,2276           71240                           BMN      DLOAD                                 #  COFY G COFX
000715: 34,2277           70306                                    COMP12
000716: 34,2300           01624                                    COF
000717: 34,2301           50025                           DSU      BMN
000718: 34,2302           01630                                    COF        +4
000719: 34,2303           70363                                    METHOD3                               #  COFZ G COFX OR COFY
000720: 34,2304           77650                           GOTO
000721: 34,2305           70337                                    METHOD1                               #  COFX G COFY OR COFZ
000722: 34,2306           45345        COMP12             DLOAD    DSU
000723: 34,2307           01626                                    COF        +2
000724: 34,2310           01630                                    COF        +4
000725: 34,2311           77640                           BMN
000726: 34,2312           70363                                    METHOD3                               #  COFZ G COFY OR COFX
000727:
000728: 34,2313           51145        METHOD2            DLOAD    BPL                                   #  COFY MAX
000729: 34,2314           01637                                    COFSKEW    +2                         #  UY
000730: 34,2315           70321                                    U2POS
000731: 34,2316           57575                           VLOAD    VCOMP
000732: 34,2317           01624                                    COF
000733: 34,2320           01624                           STORE    COF
000734: 34,2321           51145        U2POS              DLOAD    BPL
000735: 34,2322           01604                                    MFISYM     +2                         #  UX UY
000736: 34,2323           70327                                    OKU21
000737: 34,2324           57545                           DLOAD    DCOMP                                 #  SIGN OF UX OPPOSITE TO UY
000738: 34,2325           01624                                    COF
000739: 34,2326           01624                           STORE    COF
000740: 34,2327           51145        OKU21              DLOAD    BPL
000741: 34,2330           01614                                    MFISYM     +10D                       #  UY UZ
000742: 34,2331           71024                                    LOCSKIRT
000743: 34,2332           57545                           DLOAD    DCOMP                                 #  SIGN OF UZ OPPOSITE TO UY
000744: 34,2333           01630                                    COF        +4
000745: 34,2334           01630                           STORE    COF        +4
000746: 34,2335           77650                           GOTO
000747: 34,2336           71024                                    LOCSKIRT
000748: 34,2337           51145        METHOD1            DLOAD    BPL                                   #  COFX MAX
000749:
000750: 34,2340           01635                                    COFSKEW                               #  UX
000751: 34,2341           70345                                    U1POS


000753: 34,2342           57575                           VLOAD    VCOMP
000754: 34,2343           01624                                    COF
000755: 34,2344           01624                           STORE    COF
000756: 34,2345           51145        U1POS              DLOAD    BPL
000757: 34,2346           01604                                    MFISYM     +2                         #  UX UY
000758: 34,2347           70353                                    OKU12
000759: 34,2350           57545                           DLOAD    DCOMP
000760: 34,2351           01626                                    COF        +2                         #  SIGN OF UY OPPOSITE TO UX
000761:
000762: 34,2352           01626                           STORE    COF        +2
000763: 34,2353           51145        OKU12              DLOAD    BPL
000764: 34,2354           01606                                    MFISYM     +4                         #  UX UZ
000765: 34,2355           71024                                    LOCSKIRT
000766: 34,2356           57545                           DLOAD    DCOMP                                 #  SIGN OF UZ OPPOSITE TO UY
000767: 34,2357           01630                                    COF        +4
000768: 34,2360           01630                           STORE    COF        +4
000769: 34,2361           77650                           GOTO
000770: 34,2362           71024                                    LOCSKIRT
000771: 34,2363           51145        METHOD3            DLOAD    BPL                                   #  COFZ MAX
000772: 34,2364           01641                                    COFSKEW    +4                         #  UZ
000773: 34,2365           70371                                    U3POS
000774: 34,2366           57575                           VLOAD    VCOMP
000775: 34,2367           01624                                    COF
000776: 34,2370           01624                           STORE    COF
000777: 34,2371           51145        U3POS              DLOAD    BPL
000778: 34,2372           01606                                    MFISYM     +4                         #  UX UZ
000779: 34,2373           70377                                    OKU31
000780: 34,2374           57545                           DLOAD    DCOMP
000781: 34,2375           01624                                    COF                                   #  SIGN OF UX OPPOSITE TO UZ
000782: 34,2376           01624                           STORE    COF
000783: 34,2377           51145        OKU31              DLOAD    BPL
000784: 34,2400           01614                                    MFISYM     +10D                       #  UY UZ
000785:
000786: 34,2401           71024                                    LOCSKIRT
000787: 34,2402           57545                           DLOAD    DCOMP
000788: 34,2403           01626                                    COF        +2                         #  SIGN OF UY OPPOSITE TO UZ
000789: 34,2404           01626                           STORE    COF        +2
000790: 34,2405           77650                           GOTO
000791: 34,2406           71024                                    LOCSKIRT
000792:


000794:                                                                                                  #  MATRIX OPERATIONS
000795:
000796: 35,3442                                           BANK     35
000797: 35,3442  E3,1535                                  EBANK=   MIS
000798:
000799: 35,3442           77601        MXM3               SETPD                                          #  MXM3 MULTIPLIES 2 3X3 MATRICES
000800: 35,3443           00001                                    0                                     #  AND LEAVES RESULT IN PD LIST
000801: 35,3444           64743                           DLOAD*   PDDL*                                 #  ADDRESS OF 1ST MATRIX IN XR1
000802: 35,3445           77762                                    12D,2                                 #  ADDRESS OF 2ND MATRIX IN XR2
000803: 35,3446           77770                                    6,2
000804: 35,3447           55523                           PDDL*    VDEF                                  #  DEFINE VECTOR M2(COL 1)
000805: 35,3450           77776                                    0,2
000806: 35,3451           64717                           MXV*     PDDL*                                 #  M1XM2(COL 1) IN PD
000807: 35,3452           00001                                    0,1
000808:
000809: 35,3453           77760                                    14D,2
000810: 35,3454           64723                           PDDL*    PDDL*
000811: 35,3455           77766                                    8D,2
000812: 35,3456           77774                                    2,2
000813: 35,3457           63666                           VDEF     MXV*                                  #  DEFINE VECTOR M2(COL 2)
000814: 35,3460           00001                                    0,1
000815: 35,3461           64723                           PDDL*    PDDL*                                 #  M1XM2(COL 2) IN PD
000816: 35,3462           77756                                    16D,2
000817: 35,3463           77764                                    10D,2
000818: 35,3464           55523                           PDDL*    VDEF                                  #  DEFINE VECTOR M2(COL 3)
000819: 35,3465           77772                                    4,2
000820: 35,3466           41517                           MXV*     PUSH                                  #  M1XM2(COL 3) IN PD
000821: 35,3467           00001                                    0,1
000822: 35,3470           77650                           GOTO
000823: 35,3471           73501                                    TRNSPSPD                              #  REVERSE ROWS AND COLS IN PD AND
000824:                                                                                                  #                                  RETURN WITH M1XM2 IN PD LIST
000825:
000826: 35,3472           76601        TRANSPOS           SETPD    VLOAD*                                #  TRANSPOS TRANSPOSES A 3X3 MATRIX
000827: 35,3473           00001                                    0                                     #   AND LEAVES RESULT IN PD LIST
000828: 35,3474           00001                                    0,1                                   #  MATRIX ADDRESS IN XR1
000829: 35,3475           62713                           PDVL*    PDVL*
000830: 35,3476           00007                                    6,1
000831: 35,3477           00015                                    12D,1
000832:
000833: 35,3500           77606                           PUSH                                           #  MATRIX IN PD
000834: 35,3501           65345        TRNSPSPD           DLOAD    PDDL                                  #  ENTER WITH MATRIX IN PD LIST
000835: 35,3502           00003                                    2
000836: 35,3503           00007                                    6
000837: 35,3504           14003                           STODL    2
000838: 35,3505           77626                           STADR
000839: 35,3506           63770                           STODL    6
000840: 35,3507           00005                                    4
000841: 35,3510           77725                           PDDL
000842: 35,3511           00015                                    12D
000843: 35,3512           14005                           STODL    4
000844: 35,3513           77626                           STADR
000845: 35,3514           63762                           STODL    12D


000847: 35,3515           00013                                    10D
000848: 35,3516           77725                           PDDL
000849: 35,3517           00017                                    14D
000850: 35,3520           14013                           STODL    10D
000851: 35,3521           77626                           STADR
000852: 35,3522           77760                           STORE    14D
000853:
000854: 35,3523           77616                           RVQ                                            #  RETURN WITH TRANSPOSED MATRIX IN PD LIST
000855:


000857: 34,2407                                           BANK     34
000858: 34,2407  E3,1535                                  EBANK=   MIS
000859:
000860: 34,2407           00013 13563  MINANG             2DEC     0.00069375
000861:
000862: 34,2411           17070 34343  MAXANG             2DEC     0.472222222
000863:
000864: 34,2413           20000 00000  HALFA              2DEC     0.5
000865:
000866: 34,2415           00000 00000  NIL                2DEC     0.0
000867:
000868: 34,2417           00000 00000                     2DEC     0.0
000869:
000870: 34,2421           00000 00000                     2DEC     0.0
000871:
000872: 34,2423           20000 00000                     2DEC     0.5
000873:
000874: 34,2425           10000 00000  QUARTA             2DEC     .25
000875:
000876:                                                                                                  #           GIMBAL LOCK CONSTANTS
000877:
000878:                                                                                                  #  D = MGA CORRESPONDING TO GIMBAL LOCK = 60 DEGREES
000879:                                                                                                  #           NGL = BUFFER ANGLE (TO AVOID DIVISIONS BY ZERO) = 2 DEGREES
000880:
000881: 34,2427           15666 20443  SD                 2DEC     .433015                               #  = SIN(D)                      $2
000882:
000883: 34,2431           33555 01106  K3S1               2DEC     .86603                                #  = SIN(D)                      $1
000884:
000885: 34,2433           67777 77777  K4                 2DEC     -.25                                  #  = -COS(D)                     $2
000886:
000887: 34,2435           04000 00000  K4SQ               2DEC     .125                                  #  = COS(D)COS(D)                $2
000888:
000889: 34,2437           00216 36323  SNGLCD             2DEC     .008725                               #  = SIN(NGL)COS(D)              $2
000890:
000891: 34,2441           17773 00057  CNGL               2DEC     .499695                               #  COS(NGL)                      $2
000892:
000893: 34,2443           12525 12525  LOCKANGL           2DEC     .3333333333                            #  $60DEGG
000894:
000895:                                                                                                  #  ROUTINE FOR LIMITING THE SIZE OF MPAC ON OVERFLOW TO DP POSMAX OR DP NEGMAX
000896:
000897: 34,2445           00006        SIGNMPAC           EXTEND
000898: 34,2446           37735                           DCA      DPOSMAX
000899: 34,2447           52145                           DXCH     MPAC
000900: 34,2450           10000                           CCS      A
000901: 34,2451           37761                           CAF      ZERO
000902: 34,2452           16535                           TCF      SLOAD2     +2
000903: 34,2453           12454                           TCF      +1
000904: 34,2454           00006                           EXTEND
000905: 34,2455           47735                           DCS      DPOSMAX
000906:
000907: 34,2456           16533                           TCF      SLOAD2
000908:


000910:
000911:                                                                                                  #  INTERPRETIVE SUBROUTINE TO READ THE CDU ANGLES
000912:
000913: 34,2457           30034        READCDUK           CA       CDUZ                                  #  LOAD T(MPAC) WITH CDU ANGLES
000914: 34,2460           54146                           TS       MPAC       +2
000915: 34,2461           00006                           EXTEND
000916: 34,2462           30033                           DCA      CDUX                                  #  AND CHANGE MODE TO TRIPLE PRECISION
000917: 34,2463           16545                           TCF      TLOAD      +6
000918:
000919:
000920: 34,2464           66370        CDUTODCM           AXT,1    SSP
000921: 34,2465           00003                           OCT      3
000922: 34,2466           00051                                    S1
000923: 34,2467           00001                           OCT      1                                     #  SET XR1, S1, AND PD FOR LOOP
000924: 34,2470           00010                           STORE    7
000925: 34,2471           77601                           SETPD
000926: 34,2472           00001                                    0
000927: 34,2473           47133        LOOPSIN            SLOAD*   RTB
000928: 34,2474           00013                                    10D,1
000929: 34,2475           33524                                    CDULOGIC
000930: 34,2476           00013                           STORE    10D                                   #  LOAD PD WITH 0 SIN(PHI)
000931: 34,2477           65356                           SIN      PDDL                                  #               2 COS(PHI)
000932: 34,2500           00013                                    10D                                   #               4 SIN(THETA)
000933: 34,2501           41546                           COS      PUSH                                  #               6 COS(THETA)
000934: 34,2502           71300                           TIX,1    DLOAD                                 #               8 SIN(PSI)
000935: 34,2503           70473                                    LOOPSIN                               #              10 COS(PSI)
000936: 34,2504           00007                                    6
000937: 34,2505           72405                           DMP      SL1
000938: 34,2506           00013                                    10D
000939: 34,2507           10001                           STORE    0,2                                   #  C0=COS(THETA)COS(PSI)
000940: 34,2510           41345                           DLOAD    DMP
000941: 34,2511           00005                                    4
000942:
000943: 34,2512           00001                                    0
000944: 34,2513           41325                           PDDL     DMP                                   #  (PD6 SIN(THETA)SIN(PHI))
000945: 34,2514           00007                                    6
000946: 34,2515           00011                                    8D
000947: 34,2516           72405                           DMP      SL1
000948: 34,2517           00003                                    2
000949: 34,2520           72421                           BDSU     SL1
000950: 34,2521           00015                                    12D
000951: 34,2522           10003                           STORE    2,2                                   #  C1=-COS(THETA)SIN(PSI)COS(PHI)
000952: 34,2523           41345                           DLOAD    DMP
000953: 34,2524           00003                                    2
000954: 34,2525           00005                                    4
000955: 34,2526           41325                           PDDL     DMP                                   #  (PD7 COS(PHI)SIN(THETA)) SCALED 4
000956: 34,2527           00007                                    6
000957: 34,2530           00011                                    8D
000958: 34,2531           72405                           DMP      SL1
000959: 34,2532           00001                                    0
000960: 34,2533           72415                           DAD      SL1


000962: 34,2534           00017                                    14D
000963: 34,2535           10005                           STORE    4,2                                   #  C2=COS(THETA)SIN(PSI)SIN(PHI)
000964: 34,2536           77745                           DLOAD
000965: 34,2537           00011                                    8D
000966: 34,2540           10007                           STORE    6,2                                   #  C3=SIN(PSI)
000967: 34,2541           77745                           DLOAD
000968: 34,2542           00013                                    10D
000969: 34,2543           72405                           DMP      SL1
000970: 34,2544           00003                                    2
000971: 34,2545           10011                           STORE    8D,2                                  #  C4=COS(PSI)COS(PHI)
000972: 34,2546           41345                           DLOAD    DMP
000973: 34,2547           00013                                    10D
000974: 34,2550           00001                                    0
000975: 34,2551           72476                           DCOMP    SL1
000976:
000977: 34,2552           10013                           STORE    10D,2                                 #  C5=-COS(PSI)SIN(PHI)
000978: 34,2553           41345                           DLOAD    DMP
000979: 34,2554           00005                                    4
000980: 34,2555           00013                                    10D
000981: 34,2556           72476                           DCOMP    SL1
000982: 34,2557           10015                           STORE    12D,2                                 #  C6=-SIN(THETA)COS(PSI)
000983: 34,2560           77745                           DLOAD
000984: 34,2561           72405                           DMP      SL1                                   #   (PUSH UP 7)
000985: 34,2562           00011                                    8D
000986: 34,2563           41325                           PDDL     DMP                                   #   (PD7 COS(PHI)SIN(THETA)SIN(PSI)) SCALE 4
000987: 34,2564           00007                                    6
000988: 34,2565           00001                                    0
000989: 34,2566           72415                           DAD      SL1                                   #   (PUSH UP 7)
000990: 34,2567           77626                           STADR                                          #  C7=COS(PHI)SIN(THETA)SIN(PSI)
000991: 34,2570           67760                           STORE    14D,2                                 #   +COS(THETA)SIN(PHI)
000992: 34,2571           77745                           DLOAD
000993: 34,2572           72405                           DMP      SL1                                   #   (PUSH UP 6)
000994: 34,2573           00011                                    8D
000995: 34,2574           41325                           PDDL     DMP                                   #   (PD6 SIN(THETA)SIN(PHI)SIN(PSI)) SCALE 4
000996: 34,2575           00007                                    6
000997: 34,2576           00003                                    2
000998: 34,2577           72425                           DSU      SL1                                   #   (PUSH UP 6)
000999: 34,2600           77626                           STADR
001000:
001001: 34,2601           67756                           STORE    16D,2                                 #  C8=-SIN(THETA)SIN(PHI)SIN(PSI)
001002: 34,2602           77616                           RVQ                                            #   +COS(THETA)COS(PHI)
001003:
001004:                                                                                                  #  CALCULATION OF THE MATRIX DEL......
001005:
001006:                                                                                                  #           *      *               --T           *
001007:                                                                                                  #           DEL = (IDMATRIX)COS(A)+UU (1-COS(A))+UX SIN(A)         SCALED 1
001008:
001009:                                                                                                  #                 -
001010:                                                                                                  #           WHERE U IS A UNIT VECTOR (DP SCALED 2) ALONG THE AXIS OF ROTATION.
001011:                                                                                                  #           A IS THE ANGLE OF ROTATION (DP SCALED 2)
001012:                                                                                                  #                                              -
001013:                                                                                                  #           UPON ENTRY THE STARTING ADDRESS OF U IS COF, AND A IS IN MPAC
001014:


001016: 34,2603           41401        DELCOMP            SETPD    PUSH                                  #  MPAC CONTAINS THE ANGLE A
001017: 34,2604           00001                                    0
001018: 34,2605           65356                           SIN      PDDL                                  #  PD0 = SIN(A)
001019: 34,2606           41546                           COS      PUSH                                  #  PD2 = COS(A)
001020: 34,2607           41021                           BDSU     BOVB
001021: 34,2610           30414                                    HALFA
001022: 34,2611           70445                                    SIGNMPAC
001023: 34,2612           77725                           PDDL                                           #  PD4 = 1-COS(A)
001024:
001025:                                                                                                  #  COMPUTE THE DIAGONAL COMPONENTS OF DEL
001026:
001027: 34,2613           01624                                    COF
001028: 34,2614           41316                           DSQ      DMP
001029: 34,2615           00005                                    4
001030: 34,2616           43312                           SL2      DAD                                   #  UX UX(1-COS(A))                        $2
001031: 34,2617           00003                                    2
001032: 34,2620           41152                           SL1      BOVB
001033: 34,2621           70445                                    SIGNMPAC
001034: 34,2622           15560                           STODL    KEL                                   #  UX UX(1-COS(A)) +COS(A)                $1
001035:
001036: 34,2623           01626                                    COF        +2
001037: 34,2624           41316                           DSQ      DMP
001038: 34,2625           00005                                    4
001039: 34,2626           43312                           SL2      DAD                                   #  UY UY(1-COS(A))                        $2
001040: 34,2627           00003                                    2
001041: 34,2630           41152                           SL1      BOVB
001042: 34,2631           70445                                    SIGNMPAC
001043: 34,2632           15570                           STODL    KEL        +8D                        #  UY UY(1-COS(A)) +COS(A)                $1
001044: 34,2633           01630                                    COF        +4
001045: 34,2634           41316                           DSQ      DMP
001046: 34,2635           00005                                    4
001047: 34,2636           43312                           SL2      DAD                                   #  UZ UZ(1-COS(A))                        $2
001048: 34,2637           00003                                    2
001049: 34,2640           41152                           SL1      BOVB
001050: 34,2641           70445                                    SIGNMPAC
001051: 34,2642           01600                           STORE    KEL        +16D                       #  UZ UZ(1-COS(A)) +COS(A)                $1
001052:
001053:                                                                                                  #  COMPUTE THE OFF DIAGONAL TERMS OF DEL
001054:
001055: 34,2643           41345                           DLOAD    DMP
001056: 34,2644           01624                                    COF
001057: 34,2645           01626                                    COF        +2
001058: 34,2646           72405                           DMP      SL1
001059:
001060: 34,2647           00005                                    4
001061: 34,2650           41325                           PDDL     DMP                                   #  D6  UX UY (1-COS A)                $ 4
001062: 34,2651           01630                                    COF        +4
001063: 34,2652           00001                                    0
001064: 34,2653           43206                           PUSH     DAD                                   #  D8  UZ SIN A                       $ 4
001065: 34,2654           00007                                    6
001066: 34,2655           41112                           SL2      BOVB
001067: 34,2656           70445                                    SIGNMPAC


001069: 34,2657           15566                           STODL    KEL        +6
001070: 34,2660           62421                           BDSU     SL2
001071:
001072: 34,2661           77604                           BOVB
001073: 34,2662           70445                                    SIGNMPAC
001074: 34,2663           15562                           STODL    KEL        +2
001075: 34,2664           01624                                    COF
001076: 34,2665           41205                           DMP      DMP
001077: 34,2666           01630                                    COF        +4
001078: 34,2667           00005                                    4
001079: 34,2670           65352                           SL1      PDDL                                  #  D6  UX UZ (1-COS A )                $ 4
001080: 34,2671           01626                                    COF        +2
001081: 34,2672           41405                           DMP      PUSH                                  #  D8  UY SIN(A)
001082: 34,2673           00001                                    0
001083: 34,2674           62415                           DAD      SL2
001084: 34,2675           00007                                    6
001085: 34,2676           77604                           BOVB
001086: 34,2677           70445                                    SIGNMPAC
001087: 34,2700           15564                           STODL    KEL        +4                         #  UX UZ (1-COS(A))+UY SIN(A)
001088: 34,2701           62421                           BDSU     SL2
001089: 34,2702           77604                           BOVB
001090: 34,2703           70445                                    SIGNMPAC
001091: 34,2704           15574                           STODL    KEL        +12D                       #  UX UZ (1-COS(A))-UY SIN(A)
001092: 34,2705           01626                                    COF        +2
001093: 34,2706           41205                           DMP      DMP
001094: 34,2707           01630                                    COF        +4
001095:
001096: 34,2710           00005                                    4
001097: 34,2711           65352                           SL1      PDDL                                  #  D6  UY UZ (1-COS(A))                $ 4
001098: 34,2712           01624                                    COF
001099: 34,2713           41405                           DMP      PUSH                                  #  D8  UX SIN(A)
001100: 34,2714           00001                                    0
001101: 34,2715           62415                           DAD      SL2
001102: 34,2716           00007                                    6
001103: 34,2717           77604                           BOVB
001104: 34,2720           70445                                    SIGNMPAC
001105: 34,2721           15576                           STODL    KEL        +14D                       #  UY UZ(1-COS(A)) +UX SIN(A)
001106: 34,2722           62421                           BDSU     SL2
001107: 34,2723           77604                           BOVB
001108: 34,2724           70445                                    SIGNMPAC
001109: 34,2725           01572                           STORE    KEL        +10D                       #  UY UZ (1-COS(A)) -UX SIN(A)
001110: 34,2726           77616                           RVQ
001111:
001112:                                                                                                  #  DIRECTION COSINE MATRIX TO CDU ANGLE ROUTINE
001113:                                                                                                  #  X1 CONTAINS THE COMPLEMENT OF THE STARTING ADDRESS FOR MATRIX (SCALED 2)
001114:                                                                                                  #  LEAVES CDU ANGLES SCALED 2PI IN V(MPAC)
001115:                                                                                                  #  COS(MGA) WILL BE LEFT IN S1 (SCALED 1)
001116:
001117:                                                                                                  #  THE DIRECTION COSINE MATRIX RELATING S/C AXES TO STABLE MEMBER AXES CAN BE WRITTEN AS***
001118:


001120:                                                                                                  #           C =COS(THETA)COS(PSI)
001121:                                                                                                  #            0
001122:                                                                                                  #           C =-COS(THETA)SIN(PSI)COS(PHI)+SI (THETA)SIN(PHI)
001123:                                                                                                  #            1
001124:                                                                                                  #           C =COS(THETA)SIN(PSI)SIN(PHI) + S N(THETA)COS(PHI)
001125:                                                                                                  #            2
001126:                                                                                                  #           C =SIN(PSI)
001127:                                                                                                  #            3
001128:
001129:                                                                                                  #           C =COS(PSI)COS(PHI)
001130:                                                                                                  #            4
001131:                                                                                                  #           C =-COS(PSI)SIN(PHI)
001132:                                                                                                  #            5
001133:                                                                                                  #           C =-SIN(THETA)COS(PSI)
001134:                                                                                                  #            6
001135:                                                                                                  #           C =SIN(THETA)SIN(PSI)COS(PHI)+COS THETA)SIN(PHI)
001136:                                                                                                  #            7
001137:                                                                                                  #           C =-SIN(THETA)SIN(PSI)SIN(PHI)+CO (THETA)COS(PHI)
001138:                                                                                                  #            8
001139:
001140:                                                                                                  #           WHERE PHI = OGA
001141:                                                                                                  #                 THETA = IGA
001142:                                                                                                  #                 PSI = MGA
001143:
001144: 34,2727           67543        DCMTOCDU           DLOAD*   ARCSIN
001145: 34,2730           00007                                    6,1
001146: 34,2731           71406                           PUSH     COS                                   #  PD +0   PSI
001147: 34,2732           41152                           SL1      BOVB
001148: 34,2733           70445                                    SIGNMPAC
001149: 34,2734           00051                           STORE    S1
001150: 34,2735           57543                           DLOAD*   DCOMP
001151: 34,2736           00015                                    12D,1
001152:
001153: 34,2737           67471                           DDV      ARCSIN
001154: 34,2740           00051                                    S1
001155: 34,2741           51123                           PDDL*    BPL                                   #  PD +2  THETA
001156: 34,2742           00001                                    0,1                                   #  MUST CHECK THE SIGN OF COS(THETA)
001157: 34,2743           70755                                    OKTHETA                               #  TO DETERMINE THE PROPER QUADRANT
001158: 34,2744           57545                           DLOAD    DCOMP
001159: 34,2745           43244                           BPL      DAD
001160: 34,2746           70752                                    SUHALFA
001161: 34,2747           30414                                    HALFA
001162: 34,2750           77650                           GOTO
001163: 34,2751           70754                                    CALCPHI
001164: 34,2752           77625        SUHALFA            DSU
001165: 34,2753           30414                                    HALFA
001166: 34,2754           77606        CALCPHI            PUSH
001167: 34,2755           57543        OKTHETA            DLOAD*   DCOMP
001168: 34,2756           00013                                    10D,1
001169: 34,2757           67471                           DDV      ARCSIN
001170: 34,2760           00051                                    S1
001171: 34,2761           51123                           PDDL*    BPL                                   #  PUSH DOWN PHI


001173: 34,2762           00011                                    8D,1
001174: 34,2763           70775                                    OKPHI
001175: 34,2764           57545                           DLOAD    DCOMP                                 #  PUSH UP PHI
001176: 34,2765           43244                           BPL      DAD
001177: 34,2766           70772                                    SUHALFAP
001178: 34,2767           30414                                    HALFA
001179: 34,2770           77650                           GOTO
001180: 34,2771           70776                                    VECOFANG
001181: 34,2772           52025        SUHALFAP           DSU      GOTO
001182: 34,2773           30414                                    HALFA
001183: 34,2774           70776                                    VECOFANG
001184: 34,2775           77745        OKPHI              DLOAD                                          #  PUSH UP PHI
001185: 34,2776           43466        VECOFANG           VDEF     RVQ
001186:


001188:                                                                                                  #  ROUTINES FOR TERMINATING THE AUTOMATIC MANEUVER AND RETURNING TO USER
001189:
001190: 34,2777           77776        ENDMANU            EXIT
001191: 34,3000           37754                           CAF      TWO
001192: 34,3001           00004                           INHINT
001193: 34,3002           05701                           TC       WAITLIST                              #  PREPARE FOR A GOOD (NORMAL) RETURN VIA
001194: 34,3003  E3,1535                                  EBANK=   MIS
001195: 34,3003           03715 70063                     2CADR    GOODMANU                              #  GOODEND
001196:
001197: 34,3005           00003                           RELINT
001198: 34,3006           05605                           TC       ENDOFJOB
001199:
001200: 34,3007           77776        TOOBAD             EXIT                                           #  INITIAL OR FINAL GIMBAL ANGLES IN
001201: 34,3010           37754                           CAF      TWO                                   #  GIMBAL LOCK
001202: 34,3011           00004                           INHINT
001203: 34,3012           05701                           TC       WAITLIST
001204: 34,3013  E3,1535                                  EBANK=   MIS
001205: 34,3013           03017 70063                     2CADR    NOGO                                  #  PREPARE FOR A BAD RETURN VIA BADEND
001206:
001207: 34,3015           00003                           RELINT
001208: 34,3016           05605                           TC       ENDOFJOB
001209:
001210: 34,3017           06045        NOGO               TC       FLAG2DWN                              #  RESET BIT 11 OF FLAGWRD2 TO SIGNAL END
001211: 34,3020           02000                           OCT      2000                                  #  OF KALCMANU
001212: 34,3021           36301                           CAF      THREE
001213: 34,3022           05243                           TC       POSTJUMP                              #  RETURN UNDER WAITLIST VIA BADEND
001214: 34,3023           26726                           CADR     BADEND                                #  AND WAKE UP USER

End of include-file ATTITUDE_MANEUVER_ROUTINE.agc.  Parent file is MAIN.agc


