
Source Code


000002:                                                                                                  ## Copyright:   Public domain.
000003:                                                                                                  ## Filename:    AVERAGE_G_INTEGRATOR.agc
000004:                                                                                                  ## Purpose:     A section of Sunburst revision 37, or Shepatin revision 0.
000005:                                                                                                  ##              It is part of an early development version of the software
000006:                                                                                                  ##              for Apollo Guidance Computer (AGC) on the unmanned Lunar
000007:                                                                                                  ##              Module (LM) flight Apollo 5. Sunburst 37 was the program
000008:                                                                                                  ##              upon which Don Eyles's offline development program Shepatin
000009:                                                                                                  ##              was based; the listing herein transcribed was actually for
000010:                                                                                                  ##              the equivalent revision 0 of Shepatin.
000011:                                                                                                  ##              This file is intended to be a faithful transcription, except
000012:                                                                                                  ##              that the code format has been changed to conform to the
000013:                                                                                                  ##              requirements of the yaYUL assembler rather than the
000014:                                                                                                  ##              original YUL assembler.
000015:                                                                                                  ## Reference:   pp. 788-794
000016:                                                                                                  ## Assembler:   yaYUL
000017:                                                                                                  ## Contact:     Ron Burkey <info@sandroid.org>.
000018:                                                                                                  ## Website:     www.ibiblio.org/apollo/index.html
000019:                                                                                                  ## Mod history: 2017-05-24 MAS  Created from Sunburst 120.
000020:                                                                                                  ##              2017-06-13 MAS  Updated for Sunburst 37 (this includes
000021:                                                                                                  ##                              Sunburst 120's MASS CALCULATOR too).
000022:


000024:                                                                                                  #  *************************************************************************************************************
000025:
000026:
000027:                                                                                                  #           ROUTINE CALCRVG INTEGRATES THE EQUATIONS OF MOTION BY AVERAGING THE THRUST AND GRAVITATIONAL
000028:                                                                                                  #  ACCELERATIONS OVER A TIME INTERVAL OF 2 SECONDS.
000029:
000030:                                                                                                  #           FOR THE EARTH-CENTERED GRAVITATIONAL FIELD, THE PERTURBATION DUE TO OBLATENESS IS COMPUTED TO THE FIRST
000031:                                                                                                  #  HARMONIC COEFFICIENT J.
000032:
000033:                                                                                                  #           ROUTINE CALCRVG REQUIRES...
000034:                                                                                                  #                  1) THRUST ACCELERATION INCREMENTS IN DELV SCALED SAME AS PIPAX,Y,Z
000035:                                                                                                  #                  2) VN SCALED 2(+7)M/CS.
000036:                                                                                                  #                  3) PUSHDOWN COUNTER SET TO ZERO.
000037:
000038:                                                                                                  #  IT LEAVES RN1 UPDATED (SCALED AT 2(+24)M, VN1 (SCALED AT 2(+7)M/CS), ANDGDT1/2 (SCALED AT 2(+7)M/CS).
000039:
000040:
000041: 30,3043                                           BANK     30
000042: 30,3043  E5,1544                                  EBANK=   EVEX
000043:
000044: 30,3043           77656        CALCGRAV           UNIT                                           #  ENTER WITH RN AT 2(+24)M IN VAC
000045: 30,3044           01033                           STORE    UNITR
000046: 30,3045           41441                           DOT      PUSH
000047: 30,3046           01041                                    UNITW
000048: 30,3047           56316                           DSQ      DDV
000049: 30,3050           21131                                    DP1/10
000050:
000051: 30,3051           65221                           BDSU     PDDL
000052: 30,3052           21127                                    DP1/8TH
000053: 30,3053           00045                                    36D
000054: 30,3054           15047                           STODL    RMAG
000055: 30,3055           21133                                    J(RE)SQ
000056: 30,3056           77671                           DDV
000057: 30,3057           00043                                    34D
000058: 30,3060           00041                           STORE    32D
000059: 30,3061           77605                           DMP
000060: 30,3062           65361                           VXSC     PDDL
000061:
000062: 30,3063           01033                                    UNITR
000063: 30,3064           74205                           DMP      VXSC
000064: 30,3065           00041                                    32D
000065: 30,3066           01041                                    UNITW
000066: 30,3067           53255                           VAD      VAD
000067: 30,3070           01033                                    UNITR
000068: 30,3071           56325                           PDDL     DDV
000069: 30,3072           21135                                    -MUDT
000070: 30,3073           00043                                    34D
000071: 30,3074           45561                           VXSC     STADR
000072: 30,3075           76712                           STORE    GDT1/2
000073:
000074:
000075: 30,3076           77616                           RVQ
000076:
000077: 30,3077           74375        CALCRVG            VLOAD    VXSC
000078: 30,3100           00404                                    DELV


000080: 30,3101           21125                                    KPIP1
000081: 30,3102           44006                           PUSH     STQ                                   #  DV/2 TO PD SCALED AT 2(+7)M/CS
000082: 30,3103           00037                                    31D
000083: 30,3104           41455                           VAD      PUSH                                  #  (DV-OLDGDT)/2 TO PD SCALED AT 2(+7)M/CS
000084: 30,3105           01025                                    GDT/2
000085: 30,3106           74255                           VAD      VXSC
000086: 30,3107           01017                                    VN
000087: 30,3110           21137                                    2SEC(17)
000088:
000089: 30,3111           77655                           VAD
000090: 30,3112           01011                                    RN
000091: 30,3113           35051                           STCALL   RN1                                   #  TEMP STORAGE OF RN SCALED 2(+24)M
000092: 30,3114           61043                                    CALCGRAV
000093:
000094: 30,3115           53255                           VAD      VAD
000095: 30,3116           77655                           VAD
000096: 30,3117           01017                                    VN
000097: 30,3120           35057                           STCALL   VN1                                   #  TEMP STORAGE OF VN SCALED 2(+7)M/CS
000098: 30,3121           00037                                    31D
000099:
000100: 30,3122           03215 27057  KPIP               2DEC     .1024                                 #  SCALES DELV TO 2(+4)
000101:
000102: 30,3124           00150 33343  KPIP1              2DEC     0.0064
000103:
000104: 30,3126           04000 00000  DP1/8TH            2DEC     0.125
000105:
000106: 30,3130           03146 14632  DP1/10             2DEC     0.1
000107:
000108: 30,3132           00036 30103  J(RE)SQ            2DEC     0.060066630 B-5                        #       SCALED AT 2(+45)
000109:
000110: 30,3134           77774 53772  -MUDT              2DEC*    -7.9720645 E+12       B-55*
000111:
000112: 30,3136           00031 00000  2SEC(17)           2DEC     200        B-17
000113:
000114: 30,3140           04000 00000  DP2(-3)            2DEC     0.125
000115:
000116: 30,3142           00224 17561  MUEARTH            2DEC     0.009063188                            #  3.98603223 E14 SCALED AT 2(42)M(3)/CS(2)
000117:
000118: 30,3144           00164 34414  MUMOON             2DEC     0.007134481                            #  4.90277800 E12 SCALED AT 2(36)M(3)/CS(2)
000119:


000121:
000122:
000123:                                                                                                  #  * * * * * * * * * * * * * * * * * * * * * * * * * * * * * * * * * * * *
000124:
000125:                                                                                                  #      THE MASS UPDATE ROUTINE EXTENDS FROM APPROXIMATELY HERE TO THE NEXT
000126:                                                                                                  #  ROW OF ASTERISKS.   COMPUTATIONS ARE AS FOLLOWS:-
000127:                                                                                                  #      (1) /AF/ = MAGNITUDE DV/DT, SCALED IN UNITS OF 2(-5) M/CS/CS.
000128:                                                                                                  #      (2) PREFORCE = /AF/ MASS, APPROXIMATE PRESENT THRUST, SCALED AT
000129:                                                                                                  #          SOME 3.3 POUNDS PER BIT; PREFORCE LATER BECOMES PREFORCE/2FMAX.
000130:                                                                                                  #      (3) NOMINAL EXHAUST VELOCITY, VEXNOM = VEXSTEP + (PREFORCE-FSTEP)
000131:                                                                                                  #          SLOPE, WHERE VEXSTEP, FSTEP, AND SLOPE ARE SELECTED FROM THE
000132:                                                                                                  #          'VEXTABLE' BY THE ROUTINE BEGINNING AT VEXFINDD; THE FSTEPS
000133:                                                                                                  #          AND VXSTEPS DEFINE CERTAIN DISCRETE POINTS ON THE CURVE OF
000134:                                                                                                  #          EXHAUST VELOCITY VERSUS THRUST; THE ASSOCIATED SLOPE IS ALWAYS
000135:
000136:                                                                                                  #          THAT FOR THE SEGMENT JUST PRECEEDING THOSE POINTS.   (UNITS
000137:                                                                                                  #          FOR VEXNOM, AS FOR NEGVEX, ARE 2(6) M/CS.)
000138:                                                                                                  #      (4) AREARATE, A MODERATELY ABSTRUSE (NOT TO SAY ABSURD) FUNCTION
000139:                                                                                                  #          OF DELAREA (EROSION) AND PREFORCE.   (THE AREA IN QUESTION IS
000140:                                                                                                  #          THAT OF THE THROAT OF THE ENGINE.)
000141:                                                                                                  #      (5) DELAREA = DELAREA + AREARATE DELTAT.
000142:                                                                                                  #      (6) NEGVEX = -(VEXNOM - CVEX5 DELAREA).
000143:                                                                                                  #      (7) MASS = MASS + (/DELV//NEGVEX) MASS, SCALED IN UNITS OF 2(15)
000144:                                                                                                  #          KILOGRAMS.
000145:
000146:                                                                                                  #      THE FOLLOWING INITIALIZATIONS MUST BE MADE BEFORE LAUNCH:
000147:                                                                                                  #  C(MASS) = 0, C(LEMMASS1) = SCALED MASS OF LEM CUM DPS, C(LEMMASS2) =
000148:                                                                                                  #  SCALED MASS OF LEM WITHOUT DPS.   UPON LEM-SIVB SEPARATION MASS MUST
000149:                                                                                                  #  BE REINITIALIZED USING LEMMASS1 AND DELAREA MUST BE SET TO DP ZERO.
000150:                                                                                                  #  LATER, WHEN THE DPS PARTS COMPANY, MASS MUST BE INITIALIZED STILL
000151:                                                                                                  #  AGAIN USING LEMMASS2.
000152:                                                                                                  #      THE FOLLOWING IS AN INELEGANT SUPERFLUITY:-   INPUTS: MASS, DELAREA,
000153:                                                                                                  #  DELV, DELTAT, EMANATIONS FROM THE VEXTABLE, A TABLESPOON OF SALT AND
000154:                                                                                                  #  SEVEN BYZANTINE DODO EGGS.   OUTPUTS: /AF/ AND MASS.   DEBRIS: PREFORCE,
000155:                                                                                                  #  NEGVEX, AND AREARATE (TO LEARN MORE ABOUT THESE GEMS, SEE ABOVE).
000156:                                                                                                  #  SUBROUTINES CALLED: MASSMULT (A PART OF THROTTLE CONTROL) AND THE
000157:                                                                                                  #  INTERPRETER.   ERASABLES: BANK 5 AT PRESENT.   EYLES WROTE THIS STUFF;
000158:                                                                                                  #  HIS LAST MODIFICATION THEREOF (NUMBER N+2) WENT INTO AGC REVISION 20.
000159:
000160: 30,3146           46145        MASSMON            DLOAD    BHIZ
000161: 30,3147           01333                                    MASS
000162: 30,3150           61312                                    NOMASS
000163: 30,3151           74375                           VLOAD    VXSC
000164: 30,3152           00404                                    DELV                                  #  DV = DELV*KPIP SCALED AT 2(+4) M/CS
000165: 30,3153           21123                                    KPIP
000166: 30,3154           51406                           PUSH     ABVAL                                 #  DV IN PDL
000167: 30,3155           02165                           STORE    ABDVCONV
000168: 30,3156           56206                           PUSH     DDV
000169: 30,3157           21315                                    2SEC(9)
000170:
000171: 30,3160           01337                           STORE    /AF/                                  #  /AF/ = MAGNITUDE DV/DT
000172: 30,3161           77776                           EXIT
000173:
000174: 30,3162           33355                           CA       ETHROTL


000176: 30,3163           54003                           TS       EBANK                                 #  JUST TO INSURE HAVING THE PROPER EBANK
000177: 30,3164  E5,1557                                  EBANK=   ETHROT
000178:
000179: 30,3164           00006                           EXTEND
000180: 30,3165           31337                           DCA      /AF/
000181: 30,3166           03356                           TC       MASSMULT                              #  WHICH PRODUCES DP FORCE IN A AND L
000182:
000183: 30,3167           53546                           DXCH     PREFORCE
000184:
000185: 30,3170           41545        CHOICE1            CS       PREFORCE                              #  TEST PREFORCE TO SEE IF
000186: 30,3171           63316                           AD       LOWFCRIT                              #    EITHER BIG ENGINE IS ON
000187: 30,3172           00006                           EXTEND
000188: 30,3173           63200                           BZMF     CHOICE2                               #  BRANCH IF PREFORCE > LOWFCRIT = 720 LBS.
000189:
000190: 30,3174           00006        VEXFINDR           EXTEND                                         #  OTHERWISE, USE RCSVEX
000191: 30,3175           43321                           DCS      RCSVEX
000192: 30,3176           53556                           DXCH     NEGVEX
000193: 30,3177           13301                           TCF      ENDVEX
000194:
000195:
000196: 30,3200           41332        CHOICE2            CS       MASS                                  #  TEST MASS TO SEE IF THE
000197: 30,3201           63317                           AD       MASSCRIT                              #    DPS HAS PARTED COMPANY
000198: 30,3202           00006                           EXTEND
000199: 30,3203           63210                           BZMF     VEXFINDD                              #  BRANCH IF MASS > MASSCRIT = 5682 KGS.
000200:
000201: 30,3204           00006        VEXFINDA           EXTEND                                         #  OTHERWISE, USE APSVEX
000202: 30,3205           43323                           DCS      APSVEX
000203: 30,3206           53556                           DXCH     NEGVEX
000204: 30,3207           13301                           TCF      ENDVEX
000205:
000206: 30,3210           37761        VEXFINDD           CA       ZERO
000207: 30,3211           55544                           TS       VEXDEX
000208: 30,3212           37753        VEXLOOP            CA       FOUR
000209: 30,3213           27544                           ADS      VEXDEX                                #  INCREMENTING VEXDEX BY FOUR
000210: 30,3214           41545                           CS       PREFORCE
000211: 30,3215           51544                           INDEX    VEXDEX
000212: 30,3216           63325                           AD       FSTEP                                 #  FSTEP - PREFORCE IN A AND L
000213: 30,3217           00006                           EXTEND
000214: 30,3220           63212                           BZMF     VEXLOOP                               #  BRANCH IF PREFORCE > OR = FSTEP.  EMERGE
000215:                                                                                                  #    FROM LOOP WITH INDEX PROPERLY SET AS
000216:                                                                                                  #    SOON AS FSTEP > PREFORCE.
000217: 30,3221           40000                           COM                                            #  PREFORCE-FSTEP (ALWAYS MINUS) IN A AND L
000218: 30,3222           00006                           EXTEND
000219:
000220: 30,3223           51544                           INDEX    VEXDEX
000221: 30,3224           73326                           MP       SLOPE
000222: 30,3225           53550                           DXCH     VEXNOM
000223: 30,3226           00006                           EXTEND
000224: 30,3227           51544                           INDEX    VEXDEX
000225: 30,3230           33330                           DCA      VEXSTEP
000226: 30,3231           21550                           DAS      VEXNOM                                #  VEXNOM = VEXSTEP + (PREFORCE-FSTEP)SLOPE
000227:
000228: 30,3232           43520                           CS       -FMAX


000230: 30,3233           60000                           DOUBLE
000231: 30,3234           56002                           XCH      Q
000232:
000233: 30,3235           00006                           EXTEND
000234: 30,3236           31546                           DCA      PREFORCE
000235: 30,3237           00006                           EXTEND
000236: 30,3240           10002                           DV       Q
000237: 30,3241           55545                           TS       PREFORCE                              #  PREFORCE = PREFORCE/2FMAX
000238:
000239: 30,3242           33327                           CA       CVEX4
000240: 30,3243           00006                           EXTEND
000241: 30,3244           71551                           MP       DELAREA
000242: 30,3245           63326                           AD       CVEX3
000243:
000244: 30,3246           00006                           EXTEND
000245: 30,3247           71545                           MP       PREFORCE
000246: 30,3250           00006                           EXTEND                                         #                MUMBO
000247: 30,3251           71545                           MP       PREFORCE                              #                JUMBO
000248: 30,3252           53554                           DXCH     AREARATE
000249: 30,3253           33325                           CA       CVEX2
000250: 30,3254           00006                           EXTEND
000251: 30,3255           71551                           MP       DELAREA
000252: 30,3256           63324                           AD       CVEX1
000253: 30,3257           00006                           EXTEND
000254: 30,3260           71545                           MP       PREFORCE
000255: 30,3261           21554                           DAS      AREARATE                              #  NOW SCALED IN UNITS OF 2(-2) PERCENT/CS
000256:
000257:
000258: 30,3262           31553                           CA       AREARATE
000259: 30,3263           00006                           EXTEND
000260: 30,3264           73314                           MP       2SEC(9)
000261: 30,3265           53560                           DXCH     DAREATMP
000262: 30,3266           00006                           EXTEND
000263: 30,3267           31552                           DCA      DELAREA
000264: 30,3270           21560                           DAS      DAREATMP                              #  DAREATMP NOW CONTAINS NEW DELAREA
000265: 30,3271           31557                           CA       DAREATMP
000266: 30,3272           00006                           EXTEND
000267:
000268: 30,3273           73330                           MP       CVEX5
000269: 30,3274           53556                           DXCH     NEGVEX
000270: 30,3275           00006                           EXTEND
000271: 30,3276           41550                           DCS      VEXNOM
000272: 30,3277           21556                           DAS      NEGVEX                                #  NEGVEX NOW HOLDS THE GENUINE ARTICLE
000273:
000274: 30,3300           54153                           TS       MODE
000275: 30,3301           37761        ENDVEX             CA       ZERO                                  #  PRECAUTIONARY
000276: 30,3302           54111                           TS       OVFIND
000277:
000278: 30,3303           06103                           TC       INTPRET
000279: 30,3304           60545                           DLOAD    SR2                                   #  RESCALING /DELV/ TO 2(6) M/CS
000280:
000281: 30,3305           41271                           DDV      DMP
000282: 30,3306           02556                                    NEGVEX
000283: 30,3307           01333                                    MASS
000284: 30,3310           77615                           DAD


000286: 30,3311           01333                                    MASS
000287: 30,3312           02562        NOMASS             STORE    MASSTEMP
000288: 30,3313           77616                           RVQ
000289:
000290:                                                                                                  #  * * * * * * * * * * * * * * * * * * * * * * * * * * * * * * * * * * * *
000291:                                                                                                  #  * * * * * * * * * * * * * * * * * * * *
000292:
000293:                                                                                                  #  CONSTANTS FOR VEXFIND1
000294:
000295: 30,3314           14400 00000  2SEC(9)            2DEC     200        B-9                        #  CONSTANT GUIDANCE PERIOD, SUP70S5DLY
000296:
000297:
000298:
000299: 30,3316           00333        LOWFCRIT           DEC      .01336                                #  MAXIMUM THRUSt OF THE RCS JETS
000300:
000301: 30,3317           05423        MASSCRIT           DEC      .173031964                            #  MASS OF LEM WITH DPS > MASSCRIT > MASS
000302:                                                                                                  #    OF LEM WITHOUT DPS
000303:
000304: 30,3320           15165 30244  RCSVEX             2DEC     .4134375                              #  EXHAUST VELOCITY FOR RCS JETS
000305:
000306: 30,3322           17114 33562  APSVEX             2DEC     .473441550                            #  EXHAUST VELOCITY FOR ASCENT ENGINE
000307:
000308: 30,3324           73301        CVEX1              DEC      -.14438400
000309: 30,3325           00121        CVEX2              DEC      +.00493568
000310: 30,3326           36633        CVEX3              DEC      +.96256000
000311: 30,3327           76743        CVEX4              DEC      -.03297280
000312: 30,3330           00321        CVEX5              DEC      +.01274865
000313:
000314:                                                                                                  #  ADDRESSES FOR ACCESSING VEXTABLE
000315:
000316: 30,3331  30,3325               FSTEP              =        FSTEP1     -4
000317:
000318: 30,3331  30,3326               SLOPE              =        SLOPE1     -4
000319: 30,3331  30,3327               VEXSTEP            =        VXSTEP1    -4
000320:
000321:                                                                                                  #  THE VEXTABLE
000322:
000323: 30,3331           01400        FSTEP1             DEC      .046875
000324: 30,3332           23243        SLOPE1             DEC      .603681848
000325: 30,3333           16461 26707  VXSTEP1            2DEC     .45615938
000326:
000327: 30,3335           03040        FSTEP2             DEC      .095703125
000328:
000329: 30,3336           73704        SLOPE2             DEC      -.128576102
000330: 30,3337           16312 33256  VXSTEP2            2DEC     .44988125
000331:
000332: 30,3341           05200        FSTEP3             DEC      .164062500
000333: 30,3342           11354        SLOPE3             DEC      .29568000
000334: 30,3343           17026 00406  VXSTEP3            2DEC     .470093750
000335:
000336: 30,3345           06200        FSTEP4             DEC      .19531250
000337: 30,3346           72405        SLOPE4             DEC      -.171499840


000339: 30,3347           16676 06521  VXSTEP4            2DEC     .46473438
000340:
000341:
000342: 30,3351           14400        HIFSTEP            DEC      .390625000                            #  JUST IN CASE, ANOMALOUSLY,
000343: 30,3352           00000        HISLOPE            DEC      0          B-14                       #    PREFORCE APPEARS TO EXCEED
000344: 30,3353           16676 06521  HIVXSTEP           2DEC     .464734380                            #    100 PERCENT FMAX.
000345:                                                                                                  #  * * * * * * * * * * * * * * * * * * * * *
000346:
000347: 30,3355           02557        ETHROTL            ECADR    ETHROT

End of include-file AVERAGE_G_INTEGRATOR.agc.  Parent file is MAIN.agc


