
Source Code


000002:                                                                                                  ## Copyright:   Public domain.
000003:                                                                                                  ## Filename:    DAP_INTERFACE_SUBROUTINES.agc
000004:                                                                                                  ## Purpose:     A section of Sunburst revision 37, or Shepatin revision 0.
000005:                                                                                                  ##              It is part of an early development version of the software
000006:                                                                                                  ##              for Apollo Guidance Computer (AGC) on the unmanned Lunar
000007:                                                                                                  ##              Module (LM) flight Apollo 5. Sunburst 37 was the program
000008:                                                                                                  ##              upon which Don Eyles's offline development program Shepatin
000009:                                                                                                  ##              was based; the listing herein transcribed was actually for
000010:                                                                                                  ##              the equivalent revision 0 of Shepatin.
000011:                                                                                                  ##              This file is intended to be a faithful transcription, except
000012:                                                                                                  ##              that the code format has been changed to conform to the
000013:                                                                                                  ##              requirements of the yaYUL assembler rather than the
000014:                                                                                                  ##              original YUL assembler.
000015:                                                                                                  ## Reference:   pp. 453-459
000016:                                                                                                  ## Assembler:   yaYUL
000017:                                                                                                  ## Contact:     Ron Burkey <info@sandroid.org>.
000018:                                                                                                  ## Website:     www.ibiblio.org/apollo/index.html
000019:                                                                                                  ## Mod history: 2017-05-24 MAS  Created from Sunburst 120.
000020:                                                                                                  ##              2017-05-30 HG   Transcribed
000021:                                                                                                  ##              2017-06-15 HG   Fix operand XCH  -> TS
000022:                                                                                                  ##              2017-06-22 RSB  Proofed comment text with
000023:                                                                                                  ##                              octopus/ProoferComments.
000024:


000026: 16,2000                                           BANK     16
000027: 16,2000  E6,1541                                  EBANK=   DT
000028:                                                                                                  #  MOD 0         DATE    11/15/66        BY GEORGE W. CHERRY
000029:
000030:                                                                                                  #  FUNCTIONAL DESCRIPTION
000031:
000032:                                                                                                  #           HEREIN ARE A COLLECTION OF SUBROUTINES WHICH ALLOW MISSION CONTROL PROGRAMS TO CONTROL THE MODE
000033:                                                                                                  #           AND INTERFACE WITH THE DAP.
000034:
000035:                                                                                                  #  CALLING SEQUENCES
000036:
000037:                                                                                                  #  IN INTERRUPT OR WITH INTERRUPT INHIBITED
000038:                                                                                                  #           TC     IBNKCALL
000039:                                                                                                  #           FCADR  ROUTINE
000040:
000041:                                                                                                  #  IN A JOB WITHOUT INTERRUPT INHIBITED
000042:                                                                                                  #           INHINT
000043:                                                                                                  #           TC     IBNKCALL
000044:                                                                                                  #           FCADR  ROUTINE
000045:                                                                                                  #           RELINT
000046:
000047:                                                                                                  #  OUTPUT
000048:                                                                                                  #           SEE INDIVIDUAL ROUTINES BELOW
000049:
000050:                                                                                                  #  DEBRIS
000051:
000052:                                                                                                  #           A,L, AND SOMETIMES MDUETEMP
000053:


000055:                                                                                                  #  DAPBOOLS BITS AND NAMES
000056:
000057: 16,2000     7755               OURRCBIT           EQUALS   BIT1                                  #  INTERNAL DAP RATE COMMAND ACTIVITY FLAG
000058: 16,2000     7754               TRYGIMBL           EQUALS   BIT2                                  #  DESCENT TRIM GIMBAL CONTROL SYSTEM FLAG
000059:
000060:                                                                                                  #  STILL AVAILABLE BIT3
000061:
000062: 16,2000     7752               ACC4OR2X           EQUALS   BIT4                                  #  2 OR 4 JET X-TRANSLATION MODE FLAG
000063: 16,2000     7751               AORBSYST           EQUALS   BIT5                                  #  P-AXIS ROTATION JET SYSTEM (A OR B) FLAG
000064: 16,2000     7750               ULLAGER            EQUALS   BIT6                                  #  INTERNAL ULLAGE REQUEST FLAG
000065: 16,2000     7747               DBSELECT           EQUALS   BIT7                                  #  DAP DEADBAND SELECT FLAG
000066: 16,2000     7746               APSGOING           EQUALS   BIT8                                  #  ASCENT PROPULSION SYSTEM BURN FLAG
000067: 16,2000     7745               VIZPHASE           EQUALS   BIT9                                  #  DESCENT VISIBILITY PHASE FLAG
000068: 16,2000     7744               PULSES             EQUALS   BIT10                                 #  MINIMUM IMPULSE RHC MODE FLAG
000069:
000070: 16,2000     7743               GODAPGO            EQUALS   BIT11                                 #  DAP ENABLING FLAG
000071:
000072:                                                                                                  #  STILL AVAILABLE BIT12
000073:
000074:                                                                                                  #  STILL AVAILABLE BIT13
000075:
000076: 16,2000     7740               AUTORHLD           EQUALS   BIT14                                 #  AUTOMATIC MODE RATE HOLD FLAG
000077: 16,2000     7737               SPSBACUP           EQUALS   BIT15                                 #  SPS BACKUP DAP FLAG
000078:
000079:
000080:
000081: 16,2000           35650        SETMINDB           CAF      EBANK6
000082: 16,2001           54001                           TS       L
000083: 16,2002           22003                           LXCH     EBANK
000084: 16,2003           32075                           CAF      NARROWDB
000085: 16,2004           55415                           TS       DB
000086: 16,2005           47747                           CS       DBSELECT
000087: 16,2006           70077                           MASK     DAPBOOLS
000088: 16,2007           54077                           TS       DAPBOOLS
000089: 16,2010           22003                           LXCH     EBANK
000090: 16,2011           00002                           TC       Q
000091:
000092: 16,2012           35650        SETMAXDB           CAF      EBANK6
000093:
000094: 16,2013           54001                           TS       L
000095: 16,2014           22003                           LXCH     EBANK
000096: 16,2015           32076                           CAF      WIDEDB
000097: 16,2016           55415                           TS       DB
000098: 16,2017           40077                           CS       DAPBOOLS
000099: 16,2020           77747                           MASK     DBSELECT
000100: 16,2021           26077                           ADS      DAPBOOLS
000101: 16,2022           22003                           LXCH     EBANK
000102: 16,2023           00002                           TC       Q
000103:
000104: 16,2024           40077        ULLAGE             CS       DAPBOOLS
000105: 16,2025           77750                           MASK     ULLAGER
000106: 16,2026           26077                           ADS      DAPBOOLS
000107:


000109: 16,2027           00002                           TC       Q
000110:
000111: 16,2030           47750        NOULLAGE           CS       ULLAGER
000112: 16,2031           70077                           MASK     DAPBOOLS
000113: 16,2032           54077                           TS       DAPBOOLS
000114: 16,2033           00002                           TC       Q
000115:
000116: 16,2034           35650        HOLDRATE           CAF      EBANK6
000117: 16,2035           56003                           XCH      EBANK
000118: 16,2036           55207                           TS       MDUETEMP
000119: 16,2037           40077                           CS       DAPBOOLS
000120: 16,2040           77740                           MASK     AUTORHLD
000121: 16,2041           26077                           ADS      DAPBOOLS
000122:
000123: 16,2042           00006                           EXTEND
000124: 16,2043           31417                           DCA      OMEGAP
000125: 16,2044           52775                           DXCH     OMEGAPD
000126: 16,2045           31421                           CAE      OMEGAR
000127: 16,2046           54776                           TS       OMEGARD
000128:
000129: 16,2047           00006        COMNEXIT           EXTEND
000130: 16,2050           30034                           DCA      CDUY
000131: 16,2051           52770                           DXCH     CDUYD
000132: 16,2052           30032                           CAE      CDUX
000133: 16,2053           54766                           TS       CDUXD
000134:
000135: 16,2054           31207                           CAE      MDUETEMP
000136: 16,2055           54003                           TS       EBANK
000137: 16,2056           00002                           TC       Q
000138:
000139: 16,2057           35650        STOPRATE           CAF      EBANK6
000140: 16,2060           56003                           XCH      EBANK
000141: 16,2061           55207                           TS       MDUETEMP
000142: 16,2062           47740                           CS       AUTORHLD
000143: 16,2063           70077                           MASK     DAPBOOLS
000144: 16,2064           54077                           TS       DAPBOOLS
000145:
000146: 16,2065           37761                           CAF      ZERO
000147: 16,2066           54774                           TS       OMEGAPD
000148: 16,2067           54775                           TS       OMEGAQD
000149: 16,2070           54776                           TS       OMEGARD
000150: 16,2071           54771                           TS       DELCDUX
000151: 16,2072           54772                           TS       DELCDUY
000152:
000153: 16,2073           54773                           TS       DELCDUZ
000154: 16,2074           12047                           TCF      COMNEXIT
000155:
000156: 16,2075  16,2034               SETRATE            EQUALS   HOLDRATE
000157: 16,2075           00033        NARROWDB           DEC      0.00167                               #  0.3 DEGREES SCALED AT PI RADIANS
000158: 16,2076           00707        WIDEDB             DEC      0.02778                               #  5.0 DEGREES SCALED AT PI RADIANS
000159:


000161:                                                                                                  #  SUBROUTINE NAME: 1. UPCOAST     MOD. NO. 1  DATE: DECEMBER 4, 1966
000162:                                                                                                  #                   2. ALLCOAST
000163:
000164:                                                                                                  #                   3. WCHANGE
000165:
000166:                                                                                                  #  AUTHOR: JONATHAN D. ADDELSTON (ADAMS ASSOCIATES)
000167:
000168:                                                                                                  #  "UPCOAST" SETS UP DAP VARIABLES TO THEIR ASCENT-COAST VALUES.
000169:
000170:                                                                                                  #  GROUNDRULE: IT MUST BE CALLED AS SOON AS ASCENT COAST IS DETECTED.
000171:
000172:                                                                                                  #  "ALLCOAST" SETS UP MANY DAP VARIABLES FOR "STARTDAP" IN "DAPIDLER".
000173:
000174:                                                                                                  #  GROUNDRULE: DESCOAST IS CALLED AS SOON AS DESCENT COAST IS DETECTED.
000175:
000176:                                                                                                  #  "WCHANGE" SETS UP THE VARIABLE FOR "WCHANGER" AS A STORAGE SAVING DEVICE.
000177:
000178:                                                                                                  #  CALLING SEQUENCE: (SAME AS ABOVE.)
000179:
000180:                                                                                                  #  SUBROUTINES CALLED: NONE.
000181:
000182:                                                                                                  #  ZERO: AOSQ,AOSR,AOSU,AOSV,AOSQTERM,AOSRTERM,ALL NUS.
000183:
000184:                                                                                                  #  SET URGRATQ AND URGRATR TO POSMAX.
000185:
000186:                                                                                                  #  OUTPUT: WFORP   (1-K)    MINIMPDB  APSGOING/DAPBOOLS
000187:
000188:                                                                                                  #          WFORQR  (1-K)/8  DBMINIMP
000189:
000190:                                                                                                  #  DEBRIS: A,L.
000191:
000192:                                                                                                  #  ***** WARNING. *****  EBANK MUST BE SET TO 6.
000193:
000194: 20,2056                                           BANK     20
000195: 20,2056  E6,1634                                  EBANK=   WFORP
000196:
000197: 20,2056           00004        DESCOAST           INHINT                                         #  (MISSION ENTRY)
000198:
000199: 20,2057           47754        ALLCOAST           CS       TRYGIMBL                              #  SINCE THE DESCENT ENGINE IS OFF, LM DAP
000200: 20,2060           70077                           MASK     DAPBOOLS                              #  USE OF TRIM GIMBAL CONTROL SYSTEM IS
000201: 20,2061           67754                           AD       TRYGIMBL                              #  CLEARLY IMPOSSIBLE.
000202: 20,2062           54077                           TS       DAPBOOLS
000203:
000204: 20,2063           32116                           CAF      0.3DEGDB                              #  SET BOTH MINIMUM IMPULSE DEADBANDS TO
000205: 20,2064           12072                           TCF      MINIMSTO                              #  0.3 DEGREES SCALED AT PI RADIANS.
000206:
000207: 20,2065           00004        UPCOAST            INHINT                                         #  STOP INTERRUPTS FROM WREAKING HAVOC.
000208:
000209: 20,2066           47746                           CS       APSGOING                              #  TURN OFF APS BURN BIT IN DAPBOOLS SINCE
000210: 20,2067           70077                           MASK     DAPBOOLS                              #  LEM IS STAGED FOR ASCENT, BUT THE ASCENT
000211:
000212: 20,2070           54077                           TS       DAPBOOLS                              #  ENGINE IS NOT ON.
000213:


000215: 20,2071           33304                           CAF      0.00444                               #  IN ASCENT COAST, SET BOTH MINIMUM
000216: 20,2072           55626        MINIMSTO           TS       MINIMPDB                              #  IMPULSE DEADBANDS TO 0.08 DEGREES
000217: 20,2073           55625                           TS       DBMINIMP                              #  SCALED AT PI RADIANS.
000218:
000219: 20,2074           37735                           CAF      POSMAX                                #  SET URGENCY FUNCTION CORRECTION RATIOS
000220: 20,2075           55717                           TS       URGRATQ                               #  TO ALMOST 1 BEFORE BEING SET IN AOSJOB.
000221: 20,2076           55720                           TS       URGRATR                               #  SCALED AT 1.
000222:
000223: 20,2077           32117                           CAF      13DEC                                 #  ZERO THE FOLLOWING DAP ERASABLES:
000224: 20,2100           55644        CLEARASC           TS       KCOEFCTR                              #  AOSQ  AOSQTERM  NJ+Q  NJ+U
000225: 20,2101           37761                           CAF      ZERO                                  #  AOSR  AOSRTERM  NJ-Q  NJ-U
000226: 20,2102           51644                           INDEX    KCOEFCTR                              #  AOSU            NJ+R  NJ+V
000227: 20,2103           55652                           TS       AOSQ                                  #  AOSV            NJ-R  NJ-V
000228: 20,2104           11644                           CCS      KCOEFCTR
000229: 20,2105           12100                           TCF      CLEARASC
000230:
000231: 20,2106           33307        WCHANGE            CAF      0.3125                                #  K = 0.5
000232: 20,2107           55634                           TS       WFORP                                 #  WFORP = WFORQR = K/DT = K/.1 = 10K = 5
000233: 20,2110           55635                           TS       WFORQR                                #  SCALED AT 16 PER SECOND.
000234:
000235: 20,2111           00006                           EXTEND                                         #  K = 0.5 IMPLIES (1-K) = 0.5:
000236: 20,2112           33320                           DCA      (1-K)S                                #  (1-K)   = 0.5    SINCE SCALED AT 1.
000237: 20,2113           53637                           DXCH     (1-K)                                 #  (1-K)/8 = 0.0625 SINCE SCALED AT 8.
000238:
000239:                                                                                                  #  *** NOTE THAT STARTDAP RESETS WFORP,WFORQR,(1-K),(1-K)/8. ***
000240:
000241: 20,2114           00003                           RELINT                                         #  LET INTERRUPTS LOOSE.
000242:
000243: 20,2115           00002                           TC       Q                                     #  RETURN
000244:
000245:
000246:
000247: 20,2116           00033        0.3DEGDB           DEC      0.00167
000248: 20,2117           00015        13DEC              DEC      13         B-14
000249:


000251: 20,2120           00004        ASCDAP             INHINT                                         #  (MISSION ENTRY)
000252:
000253: 20,2121           37746                           CAF      APSGOING                              #  CHECK AOSTASK BIT OF DAPBOOLS
000254: 20,2122           70077                           MASK     DAPBOOLS                              #  IF 0, SET BIT AND INITIATE WAITLIST TASK
000255: 20,2123           10000                           CCS      A                                     #  IF 1, THEN TASK LOOP ALREADY BEGUN
000256: 20,2124           12165                           TCF      ASCDAP1                               #  END OF ASCENT DAP
000257: 20,2125           37746                           CAF      APSGOING                              #  SET BIT TO INDICATE AOSTASK SET UP AND
000258: 20,2126           26077                           ADS      DAPBOOLS                              #  ASCENT LOGIC.  BIT CLEARLY NOT SET YET.
000259:
000260: 20,2127           41415                           CS       DB                                    #  MODIFY THE TJETLAW FOR ASCENT:
000261: 20,2130           55626                           TS       MINIMPDB                              #  (IN ONE EQUATION DELETE MINIMPDB AND
000262: 20,2131           37761                           CAF      ZERO                                  #  SHIFT THE SWITCHING CURVE TO THE ORIGIN)
000263: 20,2132           55625                           TS       DBMINIMP                              #  MINIMPDB = -DB, DBMINIMP = 0
000264:
000265: 20,2133           55621                           TS       SUMRATEQ                              #  INITIALIZES SUMS OF JET RATES.
000266: 20,2134           55622                           TS       SUMRATER
000267: 20,2135           55644                           TS       KCOEFCTR                              #  INITIALIZE APS BURN TIMER.
000268:
000269: 20,2136           31417                           CAE      OMEGAQ                                #  CREATE OLD OMEGAQ
000270: 20,2137           55623                           TS       OLDWFORQ
000271: 20,2140           31421                           CAE      OMEGAR                                #  CREATE OLD OMEGAR
000272: 20,2141           55624                           TS       OLDWFORR
000273:
000274:                                                                                                  #  ***** EVENTUALLY, USE 2SECWLT4 FROMM FIXED-FIXED AND NEW NAME. *****
000275:
000276: 20,2142           33316                           CAF      2SECSDAP                              #  SET UP AOSTASK TO BEGIN IN 2 SECONDS
000277: 20,2143           05701                           TC       WAITLIST                              #  IT THEN SETS UP A LOOP ON WAITLIST FOR
000278: 20,2144  E6,1652                                  EBANK=   AOSQ
000279: 20,2144           03112 40006                     2CADR    AOSTASK                               #  2 SECOND INTERVALS AND CHECKS FOR THE
000280:                                                                                                  #  REF   1              20,2145   40006 0                                  SHUTDOWN CONDITION IN BIT8 OF DAPBOOLS
000281:                                                                                                  #  ****************************************************************************************************************
000282:
000283:                                                                                                  #  REMOVE THIS AND THE TASKS WHEN THE INERTIA ESTIMATOR WORKS.
000284:
000285: 20,2146           37755                           CAF      ONE                                   #  *** SPECIAL DAP CHECKOUT SEQUENCE ***
000286: 20,2147           05701                           TC       WAITLIST                              #  THESE THREE CALLS TO WAITLIST BEGIN A
000287: 20,2150  E6,1452                                  EBANK=   IXX
000288:
000289: 20,2150           02441 54006                     2CADR    IXXTASK                               #  COMPLICATED PROCEDURE TO DECREMENT THE
000290: 20,2152           37755                           CAF      ONE                                   #  INERTIA MATRIX DIAGONAL ELEMENTS (EACH
000291: 20,2153           05701                           TC       WAITLIST                              #  SCALED AT 2(+18) SLUG FEET(2) ) BY ONE
000292: 20,2154  E6,1453                                  EBANK=   IYY
000293: 20,2154           02452 54006                     2CADR    IYYTASK                               #  BIT AS SOON AS APPROPRIATE BY A NOMINAL
000294: 20,2156           37755                           CAF      ONE                                   #  LINEAR APPROXIMATION TO INERTIAL CHANGE.
000295: 20,2157           05701                           TC       WAITLIST
000296: 20,2160  E6,1454                                  EBANK=   IZZ
000297: 20,2160           02463 54006                     2CADR    IZZTASK                               #  *** NOT TO BE USED IN MISSIONS ***
000298:


000300:                                                                                                  #  ****************************************************************************************************************
000301:
000302: 20,2162           00004        DESDCAP            INHINT                                         #  (MISSION ENTRY)
000303:
000304: 20,2163           32167                           CAF      DBAUTO                                #  SINCE ENGINE IS ON:
000305: 20,2164           55415                           TS       DB                                    #  SET DEADBAND TO 1.0 DEGREES
000306:
000307: 20,2165           00003        ASCDAP1            RELINT                                         #  LET INTERRUPTS LOOSE.
000308:
000309: 20,2166           00002                           TC       Q                                     #  RETURN.
000310:
000311: 20,2167           00133        DBAUTO             DEC      0.00556                               #  1 DEGREE DEADBAND SCALED AT PI RADIANS

End of include-file DAP_INTERFACE_SUBROUTINES.agc.  Parent file is MAIN.agc


