
Source Code


000002:                                                                                                  ## Copyright:   Public domain.
000003:                                                                                                  ## Filename:    DAP_INTERFACE_SUBROUTINES.agc
000004:                                                                                                  ## Purpose:     A section of Sunburst revision 37, or Shepatin revision 0.
000005:                                                                                                  ##              It is part of an early development version of the software
000006:                                                                                                  ##              for Apollo Guidance Computer (AGC) on the unmanned Lunar
000007:                                                                                                  ##              Module (LM) flight Apollo 5. Sunburst 37 was the program
000008:                                                                                                  ##              upon which Don Eyles's offline development program Shepatin
000009:                                                                                                  ##              was based; the listing herein transcribed was actually for
000010:                                                                                                  ##              the equivalent revision 0 of Shepatin.
000011:                                                                                                  ##              This file is intended to be a faithful transcription, except
000012:                                                                                                  ##              that the code format has been changed to conform to the
000013:                                                                                                  ##              requirements of the yaYUL assembler rather than the
000014:                                                                                                  ##              original YUL assembler.
000015:                                                                                                  ## Reference:   pp. 453-459
000016:                                                                                                  ## Assembler:   yaYUL
000017:                                                                                                  ## Contact:     Ron Burkey <info@sandroid.org>.
000018:                                                                                                  ## Website:     www.ibiblio.org/apollo/index.html
000019:                                                                                                  ## Mod history: 2017-05-24 MAS  Created from Sunburst 120.
000020:                                                                                                  ##              2017-05-30 HG   Transcribed
000021:                                                                                                  ##              2017-06-15 HG   Fix operand XCH  -> TS
000022:


000024: 16,2000                                           BANK     16
000025: 16,2000  E6,1541                                  EBANK=   DT
000026:                                                                                                  #  MOD 0         DATE    11/15/66        BY GEORGE W. CHERRY
000027:
000028:                                                                                                  #  FUNCTIONAL DESCRIPTION
000029:
000030:                                                                                                  #           HEREIN ARE A COLLECTION OF SUBROUTINES WHICH ALLOW MISSION CONTROL PROGRAMS TO CONTROL THE MODE
000031:                                                                                                  #           AND INTERFACE WITH THE DAP.
000032:
000033:                                                                                                  #  CALLING SEQUENCES
000034:
000035:                                                                                                  #  IN INTERRUPT OR WITH INTERRUPT INHIBITED
000036:                                                                                                  #           TC     IBNKCALL
000037:                                                                                                  #           FCADR  ROUTINE
000038:
000039:                                                                                                  #  IN A JOB WITHOUT INTERRUPT INHIBITED
000040:                                                                                                  #           INHINT
000041:                                                                                                  #           TC     IBNKCALL
000042:                                                                                                  #           FCADR  ROUTINE
000043:                                                                                                  #           RELINT
000044:
000045:                                                                                                  #  OUTPUT
000046:                                                                                                  #           SEE INDIVIDUAL ROUTINES BELOW
000047:
000048:                                                                                                  #  DEBRIS
000049:
000050:                                                                                                  #           A,L, AND SOMETIMES MDUETEMP
000051:


000053:                                                                                                  #  DAPBOOLS BITS AND NAMES
000054:
000055: 16,2000     7755               OURRCBIT           EQUALS   BIT1                                  #  INTERNAL DAP RATE COMMAND ACTIVITY FLAG
000056: 16,2000     7754               TRYGIMBL           EQUALS   BIT2                                  #  TRIM GIMBAL FLAG
000057:
000058:                                                                                                  #  STILL AVAILABLE BIT3
000059:
000060: 16,2000     7752               ACC4OR2X           EQUALS   BIT4                                  #  2 OR 4 JET Z-TRANSLATION MODE FLAG
000061: 16,2000     7751               AORBSYST           EQUALS   BIT5                                  #  P-AXIS ROTATION JET SYSTEM (A OR B) FLAG
000062: 16,2000     7750               ULLAGER            EQUALS   BIT6                                  #  INTERNAL ULLAGE REQUEST FLAG
000063: 16,2000     7747               DBSELECT           EQUALS   BIT7                                  #  DAP DEADBAND SELECT FLAG
000064: 16,2000     7746               APSGOING           EQUALS   BIT8                                  #  ASCENT PROPULSION SYSTEM BURN FLAG
000065: 16,2000     7745               VIZPHASE           EQUALS   BIT9                                  #  DESCENT VISIBILITY PHASE FLAG
000066: 16,2000     7744               PULSES             EQUALS   BIT10                                 #  MINIMUM IMPULSE RHC MODE FLAG
000067:
000068: 16,2000     7743               GODAPGO            EQUALS   BIT11                                 #  DAP ENABLING FLAG
000069:
000070:                                                                                                  #  STILL AVAILABLE BI12
000071:
000072:                                                                                                  #  STILL AVAILABLE BIT13
000073:
000074: 16,2000     7740               AUTORHLD           EQUALS   BIT14                                 #  AUTOMATIC MODE RATE HOLD FLAG
000075: 16,2000     7737               SPSBACUP           EQUALS   BIT15                                 #  SPS BACKUP DAP FLAG
000076:
000077:
000078:
000079: 16,2000           35650        SETMINDB           CAF      EBANK6
000080: 16,2001           54001                           TS       L
000081: 16,2002           22003                           LXCH     EBANK
000082: 16,2003           32075                           CAF      NARROWDB
000083: 16,2004           55415                           TS       DB
000084: 16,2005           47747                           CS       DBSELECT
000085: 16,2006           70077                           MASK     DAPBOOLS
000086: 16,2007           54077                           TS       DAPBOOLS
000087: 16,2010           22003                           LXCH     EBANK
000088: 16,2011           00002                           TC       Q
000089:
000090: 16,2012           35650        SETMAXDB           CAF      EBANK6
000091:
000092: 16,2013           54001                           TS       L
000093: 16,2014           22003                           LXCH     EBANK
000094: 16,2015           32076                           CAF      WIDEDB
000095: 16,2016           55415                           TS       DB
000096: 16,2017           40077                           CS       DAPBOOLS
000097: 16,2020           77747                           MASK     DBSELECT
000098: 16,2021           26077                           ADS      DAPBOOLS
000099: 16,2022           22003                           LXCH     EBANK
000100: 16,2023           00002                           TC       Q
000101:
000102: 16,2024           40077        ULLAGE             CS       DAPBOOLS
000103: 16,2025           77750                           MASK     ULLAGER
000104: 16,2026           26077                           ADS      DAPBOOLS
000105:


000107: 16,2027           00002                           TC       Q
000108:
000109: 16,2030           47750        NOULLAGE           CS       ULLAGER
000110: 16,2031           70077                           MASK     DAPBOOLS
000111: 16,2032           54077                           TS       DAPBOOLS
000112: 16,2033           00002                           TC       Q
000113:
000114: 16,2034           35650        HOLDRATE           CAF      EBANK6
000115: 16,2035           56003                           XCH      EBANK
000116: 16,2036           55207                           TS       MDUETEMP
000117: 16,2037           40077                           CS       DAPBOOLS
000118: 16,2040           77740                           MASK     AUTORHLD
000119: 16,2041           26077                           ADS      DAPBOOLS
000120:
000121: 16,2042           00006                           EXTEND
000122: 16,2043           31417                           DCA      OMEGAP
000123: 16,2044           52775                           DXCH     OMEGAPD
000124: 16,2045           31421                           CAE      OMEGAR
000125: 16,2046           54776                           TS       OMEGARD
000126:
000127: 16,2047           00006        COMNEXIT           EXTEND
000128: 16,2050           30034                           DCA      CDUY
000129: 16,2051           52770                           DXCH     CDUYD
000130: 16,2052           30032                           CAE      CDUX
000131: 16,2053           54766                           TS       CDUXD
000132:
000133: 16,2054           31207                           CAE      MDUETEMP
000134: 16,2055           54003                           TS       EBANK
000135: 16,2056           00002                           TC       Q
000136:
000137: 16,2057           35650        STOPRATE           CAF      EBANK6
000138: 16,2060           56003                           XCH      EBANK
000139: 16,2061           55207                           TS       MDUETEMP
000140: 16,2062           47740                           CS       AUTORHLD
000141: 16,2063           70077                           MASK     DAPBOOLS
000142: 16,2064           54077                           TS       DAPBOOLS
000143:
000144: 16,2065           37761                           CAF      ZERO
000145: 16,2066           54774                           TS       OMEGAPD
000146: 16,2067           54775                           TS       OMEGAQD
000147: 16,2070           54776                           TS       OMEGARD
000148: 16,2071           54771                           TS       DELCDUX
000149: 16,2072           54772                           TS       DELCDUY
000150:
000151: 16,2073           54773                           TS       DELCDUZ
000152: 16,2074           12047                           TCF      COMNEXIT
000153:
000154: 16,2075  16,2034               SETRATE            EQUALS   HOLDRATE
000155: 16,2075           00033        NARROWDB           DEC      0.00167                               #  0.3 DEGREES SCALED AT PI RADIANS
000156: 16,2076           00707        WIDEDB             DEC      0.02778                               #  5.0 DEGREES SCALED AT PI RADIANS
000157:


000159:                                                                                                  #  SUBROUTINE NAME: 1. UPCOAST     MOD. NO. 1  DATE: DECEMBER 4, 1966
000160:                                                                                                  #                   2. ALLCOAST
000161:
000162:                                                                                                  #                   3. WCHANGE
000163:
000164:                                                                                                  #  AUTHOR: JONATHAN D. ADDELSTON (ADAMS ASSOCIATES)
000165:
000166:                                                                                                  #  "UPCOAST" SETS UP DAP VARIABLES TO THEIR ASCENT-COAST VALUES.
000167:
000168:                                                                                                  #  GROUNDRULE: IT MUST BE CALLED AS SOON AS ASCENT COAST IS DETECTED.
000169:
000170:                                                                                                  #  "ALLCOAST" SETS UP MANY DAP VARIABLES FOR "STARTDAP" IN "DAPIDLER".
000171:
000172:                                                                                                  #  GROUNDRULE: DESCOAST IS CALLED AS SOON AS DESCENT COAST IS DETECTED.
000173:
000174:                                                                                                  #  "WCHANGE" SETS UP THE VARIABLE FOR "WCHANGER" AS A STORAGE SAVING DEVICE.
000175:
000176:                                                                                                  #  CALLING SEQUENCE: (SAME AS ABOVE.)
000177:
000178:                                                                                                  #  SUBROUTINES CALLED: NONE.
000179:
000180:                                                                                                  #  ZERO: AOSQ,AOSR,AOSU,AOSV,AOSQTERM,AOSRTERM,ALL NUS.
000181:
000182:                                                                                                  #  SET URGRATQ AND URGRATR TO POSMAX.
000183:
000184:                                                                                                  #  OUTPUT: WFORP   (1-K)    MINIMPDB  APSGOING/DAPBOOLS
000185:
000186:                                                                                                  #          WFORQR  (1-K)/8  DBMINIMP
000187:
000188:                                                                                                  #  DEBRIS: A,L.
000189:
000190:                                                                                                  #  ***** WARNING. *****  EBANK MUST BE SET TO 6.
000191:
000192: 20,2056                                           BANK     20
000193: 20,2056  E6,1634                                  EBANK=   WFORP
000194:
000195: 20,2056           00004        DESCOAST           INHINT                                         #  (MISSION ENTRY)
000196:
000197: 20,2057           47754        ALLCOAST           CS       TRYGIMBL                              #  SINCE THE DESCENT ENGINE IS OFF, LM DAP
000198: 20,2060           70077                           MASK     DAPBOOLS                              #  USE OF TRIM GIMBAL CONTROL SYSTEM IS
000199: 20,2061           67754                           AD       TRYGIMBL                              #  CLEARLY IMPOSSIBLE.
000200: 20,2062           54077                           TS       DAPBOOLS
000201:
000202: 20,2063           32116                           CAF      0.3DEGDB                              #  SET BOTH MINIMUM IMPULSE DEADBANDS TO
000203: 20,2064           12072                           TCF      MINIMSTO                              #  0.3 DEGREES SCALED AT PI RADIANS
000204:
000205: 20,2065           00004        UPCOAST            INHINT                                         #  STOP INTERRUPTS FROM WREAKING HAVOC.
000206:
000207: 20,2066           47746                           CS       APSGOING                              #  TURN OFF APS BURN BIT IN DAPBOOLS SINCE
000208: 20,2067           70077                           MASK     DAPBOOLS                              #  LEM IS STAGED FOR ASCENT, BUT THE ASCENT
000209:
000210: 20,2070           54077                           TS       DAPBOOLS                              #  IS NOT ON.
000211:


000213: 20,2071           33304                           CAF      0.00444                               #  IN ASCENT COAST, SET BOTH MINIMUM
000214: 20,2072           55626        MINIMSTO           TS       MINIMPDB                              #  IMPULSE DBS ARE SET TO 0.0 DEGREES.
000215: 20,2073           55625                           TS       DBMINIMP                              #  SCALED AT PI RADIANS
000216:
000217: 20,2074           37735                           CAF      POSMAX                                #  SET URGENCY FUNCTION CORRECTION RATIOS
000218: 20,2075           55717                           TS       URGRATQ                               #  TO ALMOST 1 BEFORE BEING SET IN AOSJOB.
000219: 20,2076           55720                           TS       URGRATR                               #  SCALED AT 1.
000220:
000221: 20,2077           32117                           CAF      13DEC                                 #  ZERO THE FOLLOWING DAP ERASABLES:
000222: 20,2100           55644        CLEARASC           TS       KCOEFCTR                              #  AOSQ  AOSQTERM  NJ+Q  NJ+U
000223: 20,2101           37761                           CAF      ZERO                                  #  AOSR  AOSRTERM  NJ-Q  NJ-U
000224: 20,2102           51644                           INDEX    KCOEFCTR                              #  AOSU            NJ+R  NJ+V
000225: 20,2103           55652                           TS       AOSQ                                  #  AOSV            NJ-R  NJ-V
000226: 20,2104           11644                           CCS      KCOEFCTR
000227: 20,2105           12100                           TCF      CLEARASC
000228:
000229: 20,2106           33307        WCHANGE            CAF      0.3125                                #  K = 0.5
000230: 20,2107           55634                           TS       WFORP                                 #  WFORP = WFORQR = K/DT = K/.1 = 10K = 5
000231: 20,2110           55635                           TS       WFORQR                                #  SCALED AT 16 PER SECOND.
000232:
000233: 20,2111           00006                           EXTEND                                         #  K = 0.5 IMPLIES (1-K) = 0.5:
000234: 20,2112           33320                           DCA      (1-K)S                                #  (1-K)   = 0.5    SINCE SCALED AT 1.
000235: 20,2113           53637                           DXCH     (1-K)                                 #  (1-K)/8 = 0.0625 SINCE SCALED AT 8.
000236:
000237:                                                                                                  #  *** NOTE THAT STARTDAP RESETS WFORP,WFORQR,(1-K),(1-K)/8. ***
000238:
000239: 20,2114           00003                           RELINT                                         #  LET INTERRUPTS LOOSE.
000240:
000241: 20,2115           00002                           TC       Q                                     #  RETURN
000242:
000243:
000244:
000245: 20,2116           00033        0.3DEGDB           DEC      0.00167
000246: 20,2117           00015        13DEC              DEC      13         B-14
000247:


000249: 20,2120           00004        ASCDAP             INHINT                                         #  (MISSION ENTRY)
000250:
000251: 20,2121           37746                           CAF      APSGOING                              #  CHECK AOSTASK BIT OF DAPBOOLS
000252: 20,2122           70077                           MASK     DAPBOOLS                              #  IF 0, SET BIT AND INITIATE WAITLIST TASK
000253: 20,2123           10000                           CCS      A                                     #  IF 1, THEN TASK LOOP ALREADY BEGUN
000254: 20,2124           12165                           TCF      ASCDAP1                               #  END OF ASCEN DAP
000255: 20,2125           37746                           CAF      APSGOING                              #  SET BIT TO INDICATE AOSTASK SET UP AND
000256: 20,2126           26077                           ADS      DAPBOOLS                              #  ASCENT LOGIC.  BIT CLEARLY NOT SET YET.
000257:
000258: 20,2127           41415                           CS       DB                                    #  MODIFY THE TJETLAW FOR ASCENT:
000259: 20,2130           55626                           TS       MINIMPDB                              #  (IN ONE EQUATION DELETE MINIMPDB AND
000260: 20,2131           37761                           CAF      ZERO                                  #  SHIFT THE SWITCHING CURVE TO THE ORIGIN)
000261: 20,2132           55625                           TS       DBMINIMP                              #  MINIMPDB = -DB, DMINIMP = 0
000262:
000263: 20,2133           55621                           TS       SUMRATEQ                              #  INITIALIZE SUMS OF JET RATES.
000264: 20,2134           55622                           TS       SUMRATER
000265: 20,2135           55644                           TS       KCOEFCTR                              #  INITIALIZE APS BURN TIMER.
000266:
000267: 20,2136           31417                           CAE      OMEGAQ                                #  CREATE OLD OMEGAQ
000268: 20,2137           55623                           TS       OLDWFORQ
000269: 20,2140           31421                           CAE      OMEGAR                                #  CREATE OLD OMEGAR
000270: 20,2141           55624                           TS       OLDWFORR
000271:
000272:                                                                                                  #  ***** EVENTUALLY, USE 2SECWLT4 FROM FIXED-FIXED AND NEW NAME. *****
000273:
000274: 20,2142           33316                           CAF      2SECSDAP                              #  SET UP AOSTASK TO BEGIN IN 2 SECONDS
000275: 20,2143           05701                           TC       WAITLIST                              #  IT THEN SETS UP A LOOP ON WAITLIST FOR
000276: 20,2144  E6,1652                                  EBANK=   AOSQ
000277: 20,2144           03112 40006                     2CADR    AOSTASK                               #  2 SECOND INTERVALS AND CHECKS FOR THE
000278:                                                                                                  #  SHUTDOWN CONDITION IN BIT8 OF DAPBOOLS
000279:
000280:                                                                                                  #  ***********************************************************************************************************
000281:
000282:                                                                                                  #  REMOVE THIS AND THE TASKS WHEN THE INERTIA ESTIMATOR WORKS.
000283:
000284: 20,2146           37755                           CAF      ONE                                   #  *** SPECIAL DAP CHECKOUT SEQUENCE ***
000285: 20,2147           05701                           TC       WAITLIST                              #  THESE THREE CALLS TO WAITLIST BEGIN A
000286: 20,2150  E6,1452                                  EBANK=   IXX
000287:
000288: 20,2150           02441 54006                     2CADR    IXXTASK                               #  COMPLICATED PROCEDURE TO DECREMENT THE
000289: 20,2152           37755                           CAF      ONE                                   #  INERTIA MATRIX DIAGONAL ELEMENTS (EACH
000290: 20,2153           05701                           TC       WAITLIST                              #  SCALED AT 2(+18) SLUG FEET(2) ) BY ONE
000291: 20,2154  E6,1453                                  EBANK=   IYY
000292: 20,2154           02452 54006                     2CADR    IYYTASK                               #  BIT AS SOON AS APPROPRIATE BY A NOMINAL
000293: 20,2156           37755                           CAF      ONE                                   #  LINEAR APPROXIMATION TO INERTIAL CHANGE.
000294: 20,2157           05701                           TC       WAITLIST
000295: 20,2160  E6,1454                                  EBANK=   IZZ
000296: 20,2160           02463 54006                     2CADR    IZZTASK                               #  *** NOT TO BE USED IN MISSIONS ***
000297:


000299:                                                                                                  #  ***********************************************************************************************************
000300:
000301: 20,2162           00004        DESDCAP            INHINT                                         #  (MISSION ENTRY)
000302:
000303: 20,2163           32167                           CAF      DBAUTO                                #  SINCE ENGINE IS ON:
000304: 20,2164           55415                           TS       DB                                    #  SET DEADBAND TO 1.0 DEGREES
000305:
000306: 20,2165           00003        ASCDAP1            RELINT                                         #  LET INTERRUPTS LOOSE.
000307:
000308: 20,2166           00002                           TC       Q                                     #  RETURN.
000309:
000310: 20,2167           00133        DBAUTO             DEC      0.00556                               #  1 DEGREE DEADBAND SCALED AT PI RADIANS

End of include-file DAP_INTERFACE_SUBROUTINES.agc.  Parent file is MAIN.agc


