
Source Code


000002:                                                                                                  ## Copyright:   Public domain.
000003:                                                                                                  ## Filename:    DAPIDLER_PROGRAM.agc
000004:                                                                                                  ## Purpose:     A section of Sunburst revision 37, or Shepatin revision 0.
000005:                                                                                                  ##              It is part of an early development version of the software
000006:                                                                                                  ##              for Apollo Guidance Computer (AGC) on the unmanned Lunar
000007:                                                                                                  ##              Module (LM) flight Apollo 5. Sunburst 37 was the program
000008:                                                                                                  ##              upon which Don Eyles's offline development program Shepatin
000009:                                                                                                  ##              was based; the listing herein transcribed was actually for
000010:                                                                                                  ##              the equivalent revision 0 of Shepatin.
000011:                                                                                                  ##              This file is intended to be a faithful transcription, except
000012:                                                                                                  ##              that the code format has been changed to conform to the
000013:                                                                                                  ##              requirements of the yaYUL assembler rather than the
000014:                                                                                                  ##              original YUL assembler.
000015:                                                                                                  ## Reference:   pp. 463-467
000016:                                                                                                  ## Assembler:   yaYUL
000017:                                                                                                  ## Contact:     Ron Burkey <info@sandroid.org>.
000018:                                                                                                  ## Website:     www.ibiblio.org/apollo/index.html
000019:                                                                                                  ## Mod history: 2017-05-24 MAS  Created from Sunburst 120.
000020:                                                                                                  ##              2017-05-30 HG   Transcribed
000021:                                                                                                  ##              2017-06-03 HG   Add missing constant DGBF
000022:


000024:                                                                                                  #  THE DAPIDLER PROGRAM IS STARTED BY FRESH START AND RESTART.             THE DAPIDLER PROGRAM IS DONE 10 TIMES
000025:                                                                                                  #  PER SECOND UNTIL THE ASTRONAUT DESIRES THE DAP TO WAKE UP, AND THE IMU AND CDUS ARE READY FOR USE BY THE DAP.
000026:                                                                                                  #  THE NECESSARY INITIALIZATION OF THE DAP IS DONE BY THE DAPIDLER PROGRAM.
000027:                                                                                                  #  ADDITIONAL WORK MUST BE DONE ON DAPIDLER IN THE FUTURE.
000028:
000029:
000030:
000031: 16,2104                                           BANK     16
000032: 16,2104  E6,1541                                  EBANK=   DT
000033:
000034: 16,2104           37750        CHEKBITS           CAF      BIT6
000035: 16,2105           70365                           MASK     IMODES30
000036: 16,2106           10000                           CCS      A
000037: 16,2107           12305                           TCF      MOREIDLE
000038:
000039: 16,2110           37752                           CAF      BIT4
000040: 16,2111           67751                           AD       BIT5
000041: 16,2112           00006                           EXTEND
000042: 16,2113           02012                           RAND     12
000043:
000044: 16,2114           10000                           CCS      A
000045: 16,2115           12305                           TCF      MOREIDLE
000046:
000047: 16,2116           37744                           CAF      BIT10                                 #  BIT10 OF 30 IS PNGCS CONTROL OF S/C
000048: 16,2117           00006                           EXTEND
000049: 16,2120           02030                           RAND     30                                    #  BITS IN 30 ARE INVERTED
000050: 16,2121           10000                           CCS      A
000051: 16,2122           12305                           TCF      MOREIDLE
000052:
000053: 16,2123           00006                           EXTEND
000054: 16,2124           00031                           READ     31                                    #  IF BOTH    BIT13 AND BIT14 ARE ONE
000055: 16,2125           40000                           COM                                            #  THEN MODE SELECT SWITCH IS IN OFF
000056: 16,2126           75226                           MASK     BIT13-14                              #  POSITION.
000057: 16,2127           00006                           EXTEND
000058: 16,2130           12305                           BZF      MOREIDLE                              #  HENCE DAP SHOULD BE OFF.
000059:
000060: 16,2131           37743                           CAF      GODAPGO
000061: 16,2132           70077                           MASK     DAPBOOLS
000062: 16,2133           00006                           EXTEND
000063: 16,2134           12305                           BZF      MOREIDLE
000064:
000065: 16,2135           00002                           RETURN
000066:


000068:                                                                                                  #  DAPIDLER ENTRY.
000069:
000070: 16,2136           22016        DAPIDLER           LXCH     BANKRUPT                              #  INTERRUPT LEAD INS (CONTINUED)
000071: 16,2137           00006                           EXTEND
000072: 16,2140           22012                           QXCH     QRUPT
000073:
000074: 16,2141           02104                           TC       CHEKBITS                              #  CHECK TO SEE IF LM DAP IS TO GO ON.
000075:
000076:                                                                                                  #  THIS SUBROUTINE CALL PERFORMS THE FOLLOWING INITIALIZATION FUNCTIONS:
000077:                                                                                                  #          1) THE DESIRED RATE VECTOR IS ZEROED
000078:                                                                                                  #          2) THE DELCDU VECTOR IS ZEROED.
000079:                                                                                                  #          3) THE DESIRED CDU REGISTERS ARE SET EQUAL TO THE CDU REGISTERS.
000080:
000081: 16,2142           02057        STARTDAP           TC       STOPRATE                              #  USE DAP INTERFACE SUBROUTINE
000082:
000083:                                                                                                  #  THIS SUBROUTINE CALL PERFORMS THE FOLLOWING INITIALIZATION FUINCTIONS:
000084:                                                                                                  #           1) THE MINIMUM IMPULSE DEADBANDS ARE SET.
000085:                                                                                                  #           2) THE OFFSET ACCELERATION ESTIMATES ARE ZEROED.
000086:                                                                                                  #           3) THE RATE DERIVATION ACCELERATION TERMS ARE ZEROED.
000087:                                                                                                  #           4) THE NJ FLAGS ARE CLEARED.
000088:                                                                                                  #           5) THE URGENCY FUNCTION CORRECTION RATIOS ARE SET TO ONE.
000089:
000090: 16,2143           05307                           TC       IBNKCALL
000091: 16,2144           40057                           FCADR    ALLCOAST
000092:
000093: 16,2145           37761                           CAF      ZERO                                  #  ********** INITIALIZE: **********
000094:
000095: 16,2146           54031                           TS       TIME6                                 #  T6RUPT CLOCK
000096: 16,2147           55610                           TS       TP                                    #  RATE DERIVATION DTS
000097: 16,2150           55611                           TS       TQR
000098: 16,2151           55463                           TS       LASTPER                               #  ATTITUDE ERROR RECORDS FOR EIGHTBALL.
000099: 16,2152           55464                           TS       LASTQER
000100: 16,2153           55465                           TS       LASTRER
000101: 16,2154           55466                           TS       PERROR
000102: 16,2155           55467                           TS       QERROR
000103: 16,2156           55470                           TS       RERROR
000104: 16,2157           55416                           TS       OMEGAP                                #  RATES IN BODY (PILOT) COORDINATES.
000105: 16,2160           55417                           TS       OMEGAQ
000106: 16,2161           55421                           TS       OMEGAR
000107: 16,2162           55002                           TS       T6NEXT                                #  JTLST VARIABLES.
000108: 16,2163           55003                           TS       T6NEXT     +1
000109: 16,2164           55473                           TS       ADDT6JTS
000110: 16,2165           55474                           TS       ADDTLT6
000111: 16,2166           55007                           TS       DELAYCTR                              #  MINIMUM IMPULSE RHC MODE COUNTER.
000112: 16,2167           55420                           TS       ALPHAQ                                #  DESCENT ACCELERATION ESTIMATES.
000113: 16,2170           55422                           TS       ALPHAR
000114: 16,2171           55514                           TS       DISPLACT                              #  EIGHTBALL ROUTINE SWITCH.
000115: 16,2172           55636                           TS       (1-K)                                 #  K=1 FIRST PASS.
000116: 16,2173           55637                           TS       (1-K)/8
000117:
000118: 16,2174           55502                           TS       CH5MASK                               #  TEMP. INIT. FOR FAILURE MONITOR
000119:


000121: 16,2175           55503                           TS       CH6MASK
000122:
000123:
000124:
000125:                                                                                                  #  SET UP "OLD" MEASURED CDU ANGLES:
000126:
000127: 16,2176           00006                           EXTEND
000128: 16,2177           30033                           DCA      CDUX                                  #  OLDXFORP AND OLDYFORP
000129:
000130: 16,2200           53427                           DXCH     OLDXFORP
000131: 16,2201           00006                           EXTEND
000132: 16,2202           30034                           DCA      CDUY                                  #  OLDYFORQ AND OLDZFORQ
000133: 16,2203           53431                           DXCH     OLDYFORQ
000134:
000135: 16,2204           32331                           CAF      0.62170
000136: 16,2205           55455                           TS       4JETTORK
000137: 16,2206           32332                           CAF      .68387                                #  2200 FT LBS. SCALED AT 2(10) X PI.
000138: 16,2207           55456                           TS       JETTORK4                              #  QR AXIS JET TORQUE FOR 4 JETS.
000139:                                                                                                  #  SET UP THE TORQUE VECTOR RECONSTRUCTION SWITCHES:
000140:
000141: 16,2210           00006                           EXTEND
000142: 16,2211           32343                           DCA      VISNORMQ                              #  PJUMPADR AND QJUMPADR
000143: 16,2212           53647                           DXCH     PJUMPADR
000144:
000145:                                                                                                  #  SET UP INITIAL VALUES FOR WFORP AND WFORQR:
000146:
000147: 16,2213           00006                           EXTEND                                         #  SCALED AT 16:
000148: 16,2214           32345                           DCA      WFORPQRK                              #  WFORP  = K/DT = K/.1  = 1/.1  = 0.625
000149: 16,2215           53635                           DXCH     WFORP                                 #  WFORQR = K/DT = K/.15 = 1/.15 = 0.41667
000150:
000151:                                                                                                  #  SET UP WAITLIST CALL TO RESET WFORP AND WFORQR:
000152:
000153: 16,2216           32340                           CAF      180MS
000154: 16,2217           05701                           TC       WAITLIST
000155: 16,2220  E6,1635                                  EBANK=   WFORQR
000156: 16,2220           03322 40006                     2CADR    WCHANGER
000157:
000158: 16,2222           37755                           CAF      ONE
000159: 16,2223           05701                           TC       WAITLIST
000160: 16,2224  E6,1452                                  EBANK=   IXX
000161: 16,2224           02441 54006                     2CADR    IXXTASK
000162:
000163: 16,2226           37755                           CA       ONE
000164: 16,2227           05701                           TC       WAITLIST
000165: 16,2230  E6,1453                                  EBANK=   IYY
000166: 16,2230           02452 54006                     2CADR    IYYTASK
000167:
000168: 16,2232           37755                           CA       ONE
000169: 16,2233           05701                           TC       WAITLIST
000170: 16,2234  E6,1454                                  EBANK=   IZZ
000171: 16,2234           02463 54006                     2CADR    IZZTASK
000172:


000174:                                                                                                  #  THIS SECTION COMPUTES THE RATE OF CHANGE OF ACCELERATION DUE TO THE
000175:                                                                                                  #   ROTATION OF THE GIMBAL ENGINE. THE EQUATION IMPLEMENTED IN BOTH THE
000176:                                                                                                  #   Y-X PLANE AND THE Z-X PLANE IS -- D(ALPHA)/DT = T L/I * D(DELTA)/DT
000177:                                                                                                  #   WHERE ----
000178:                                                                                                  #              T = ENGINE THRUST COMMAND
000179:                                                                                                  #              L = PIVOT TO CG DISTANCE OF THE GIMBAL ENGINE
000180:                                                                                                  #              I = INERTIA
000181:                                                                                                  #              DELTA = GIMBAL ENGINE ANGLE MEASURED FROM THE X AXIS.
000182:
000183: 16,2236           32334                           CAF      DELTADOT                              #  0.2 DEG/SEC SCALED AT PI/64
000184: 16,2237           00006                           EXTEND
000185: 16,2240           71451                           MP       L,PVT-CG                              #  GIMBAL PIVOT TO C.G. DISTANCE ,SCALE=8.
000186: 16,2241           00006                           EXTEND
000187: 16,2242           71523                           MP       THRSTCMD                              #  COMMANDED THRUST SCALED AT 2(14) =16384.
000188:
000189: 16,2243           52062                           DXCH     ITEMP1
000190: 16,2244           00006                           EXTEND
000191: 16,2245           30062                           DCA      ITEMP1
000192: 16,2246           00006                           EXTEND
000193: 16,2247           11454                           DV       IZZ                                   #  AT 2(18)
000194: 16,2250           55533                           TS       ACCDOTR                               #  AT PI/2(7)
000195: 16,2251           52062                           DXCH     ITEMP1
000196: 16,2252           00006                           EXTEND
000197: 16,2253           11453                           DV       IYY                                   #  AT 2(18)
000198: 16,2254           55531                           TS       ACCDOTQ                               #  AT PI/2(7)
000199:
000200: 16,2255           00006                           EXTEND                                         #  .3ACCDOTQ AT PI/2(8)
000201: 16,2256           72335                           MP       DGBF
000202: 16,2257           55525                           TS       KQ
000203: 16,2260           00006                           EXTEND
000204: 16,2261           70000                           SQUARE
000205: 16,2262           55526                           TS       KQ2                                   #  KQ(2)
000206:
000207: 16,2263           31533                           CAE      ACCDOTR                               #  .3ACCDOTR AT PI/2(8)
000208: 16,2264           00006                           EXTEND
000209: 16,2265           72335                           MP       DGBF
000210: 16,2266           55527                           TS       KRDAP
000211: 16,2267           00006                           EXTEND
000212:
000213: 16,2270           70000                           SQUARE
000214: 16,2271           55530                           TS       KR2
000215:
000216:
000217: 16,2272           00006                           EXTEND                                         #  SET UP P-AXIS TO GO TO DUMMYFIL
000218: 16,2273           32326                           DCA      DF2CADR
000219: 16,2274           53572                           DXCH     PFILTADR
000220:
000221: 16,2275           00006                           EXTEND
000222: 16,2276           32324                           DCA      PAXADIDL
000223: 16,2277           53001                           DXCH     T5ADR
000224: 16,2300           32327        SETTIME5           CAF      MS100
000225: 16,2301           54030                           TS       TIME5
000226: 16,2302           15751                           TCF      RESUME
000227:


000229: 16,2303  E6,1541                                  EBANK=   DT
000230: 16,2303           02136 34006  IDLERADR           2CADR    DAPIDLER                              #  DAP SHOULD BE OFF
000231: 16,2305           00006        MOREIDLE           EXTEND
000232: 16,2306           32304                           DCA      IDLERADR
000233: 16,2307           53001                           DXCH     T5ADR
000234:
000235: 16,2310           37761                           CAF      ZERO                                  #  COMMAND JETS OFF
000236: 16,2311           00006                           EXTEND
000237: 16,2312           01005                           WRITE    5
000238: 16,2313           00006                           EXTEND
000239: 16,2314           01006                           WRITE    6
000240:
000241: 16,2315           42321                           CS       BGIM23                                #  TURN TRIM GIMBAL OFF
000242: 16,2316           00006                           EXTEND
000243: 16,2317           03012                           WAND     12
000244:
000245: 16,2320           12300                           TCF      SETTIME5
000246:
000247: 16,2321           07400        BGIM23             OCTAL    07400
000248: 16,2322           26501        .707P              DEC      .70711                                #  SQUARE ROOT OF 1/2
000249: 16,2323  E6,1416                                  EBANK=   OMEGAP
000250: 16,2323           02346 34006  PAXADIDL           2CADR    PAXIS
000251:
000252: 16,2325  E6,1420                                  EBANK=   ALPHAQ
000253: 16,2325           03631 34006  DF2CADR            2CADR    DUMMYFIL
000254:
000255: 16,2327           37766        MS100              OCTAL    37766
000256: 16,2330           00033        0.00167            DEC      0.00167
000257: 16,2331           23712        0.62170            DEC      0.62170
000258: 16,2332           25705        .68387             DEC      0.68387
000259: 16,2333           12000        0.31250            DEC      0.31250
000260:
000261: 16,2334           02215        DELTADOT           DEC      0.07111                               #  0.2 DEG/SEC SCALED AT PI/64
000262: 16,2335           23146        DGBF               DEC      0.6
000263: 16,2336           11643        .5ACCMIN           DEC      0.30680
000264: 16,2337           00033        DBMNMP             DEC      0.00167                               #  .3 DEGREES SCALED AT PI RADIANS
000265:                                                                                                  #  TORQUE AND WEIGHTING CONSTANTS:
000266:
000267: 16,2340           00022        180MS              DEC      18         B-14                       #  180 MS WAITLIST DT.
000268: 16,2341           02315        .075DEC            DEC      0.075                                 #  100 MS JET PULSE TORQUE TERM WITH K = .5
000269: 16,2342           02454        VISNORMQ           GENADR   CHKVISFZ                              #  D.P. GENADR FOR INITIALIZATION OF THE
000270: 16,2343           02077                           GENADR   NORMALQ                               #  TORQUE VECTOR RECONSTRUCTION SWITCHES.
000271:
000272: 16,2344           24000        10AT16             DEC      0.625                                 #  INITIAL VALUE FOR WFORP.
000273: 16,2345           15253        6.6AT16            DEC      0.41667                               #  INITIAL VALUE FOR WFORQR.
000274: 16,2346  16,2344               WFORPQRK           EQUALS   10AT16                                #  D.P. NAME FOR BOTH CONSTANTS

End of include-file DAPIDLER_PROGRAM.agc.  Parent file is MAIN.agc


