
Source Code


000002:                                                                                                  ## Copyright:   Public domain.
000003:                                                                                                  ## Filename:    DOWN-TELEMETRY_PROGRAM.agc
000004:                                                                                                  ## Purpose:     A section of Sunburst revision 37, or Shepatin revision 0.
000005:                                                                                                  ##              It is part of an early development version of the software
000006:                                                                                                  ##              for Apollo Guidance Computer (AGC) on the unmanned Lunar
000007:                                                                                                  ##              Module (LM) flight Apollo 5. Sunburst 37 was the program
000008:                                                                                                  ##              upon which Don Eyles's offline development program Shepatin
000009:                                                                                                  ##              was based; the listing herein transcribed was actually for
000010:                                                                                                  ##              the equivalent revision 0 of Shepatin.
000011:                                                                                                  ##              This file is intended to be a faithful transcription, except
000012:                                                                                                  ##              that the code format has been changed to conform to the
000013:                                                                                                  ##              requirements of the yaYUL assembler rather than the
000014:                                                                                                  ##              original YUL assembler.
000015:                                                                                                  ## Reference:   pp. 311-321
000016:                                                                                                  ## Assembler:   yaYUL
000017:                                                                                                  ## Contact:     Ron Burkey <info@sandroid.org>.
000018:                                                                                                  ## Website:     www.ibiblio.org/apollo/index.html
000019:                                                                                                  ## Mod history: 2017-05-24 MAS  Created from Sunburst 120.
000020:                                                                                                  ##              2017-06-04 HG   Transcribed
000021:


000023:                                                                                                  #  PROGRAM NAME- DOWN TELEMETRY PROGRAM
000024:                                                                                                  #  MOD NO.- 2
000025:                                                                                                  #  MOD BY- KILROY
000026:                                                                                                  #  DATE- 21NOV66
000027:                                                                                                  #  LOG SECTION- DOWN TELEMETRY PROGRAM
000028:                                                                                                  #  ASSEMBLY- REV 12 OF SUNBURST
000029:                                                                                                  #  FUNCTIONAL DESCRIPTION- THIS ROUTINE IS INITIATED BY TELEMETRY END
000030:                                                                                                  #           PULSE FROM THE DOWNLINK TELEMETRY CONVERTER. THIS PULSE OCCURS
000031:                                                                                                  #           AT 50 TIMES PER SEC(EVERY 20 MS) THEREFORE DODOWNTM IS
000032:                                                                                                  #           EXECUTED AT THESE RATES. THIS ROUTINE SELECTS THE APPROPRIATE
000033:                                                                                                  #           LGC DATA TO BE TRANSMITTED DOWNLINK AND LOADS IT INTO OUTPUT
000034:                                                                                                  #           CHANNELS 34 AND 35. THE INFORMATION IS THEN GATED OUT FROM THE
000035:                                                                                                  #           LGC IN SERIAL FASHION.
000036:                                                                                                  #           THIS PROGRAM IS CODED FOR A 2 SECOND DOWNLIST. SINCE DOWNRUPTS
000037:                                                                                                  #           OCCUR EVERY 20 MS AND 2 LGC COMPUTER WORDS CAN BE PLACED IN
000038:                                                                                                  #           CHANNELS 34 AND 35 DURING EACH DOWNRUPT THE PROGRAM IS CAPABLE
000039:                                                                                                  #           OF SENDING 200 LGC WORDS EVERY 2 SECONDS.
000040:                                                                                                  #  CALLING SEQUENCE- NONE
000041:                                                                                                  #           PROGRAM IS ENTERED VIA TCF DODOWNTM WHICH IS EXECUTED AS A
000042:                                                                                                  #           RESULT OF A DOWNRUPT. CONTROL IS RETURNED VIA TCF NOQRSM WHICH
000043:
000044:                                                                                                  #           IN EFFECT IS A RESUME.
000045:                                                                                                  #  SUBROUTINES CALLED- NONE
000046:                                                                                                  #  NORMAL EXIT MODE- TCF NOQRSM
000047:                                                                                                  #  ALARM OR ABORT EXIT MODE- NONE
000048:                                                                                                  #  RESTART PROTECTION- NONE.
000049:                                                                                                  #           EXCEPT THAT WHEN A RESTART DOES OCCUR :STARTSUB: WILL
000050:                                                                                                  #           INITIALIZE THE DOWNLIST POINTER TO THE BEGINNING OF THE NOMINAL
000051:                                                                                                  #           DOWNLIST. THIS HAS THE EFFECT OF IGNORING THE REMAINDER OF THE
000052:                                                                                                  #           DOWNLIST WHICH THE DOWN-TELEMETRY PROGRAM WAS WORKING ON WHEN
000053:                                                                                                  #           THE RESTART OCCURRED.
000054:                                                                                                  #  OUTPUT-  EVERY 2 SECONDS 100 DOUBLE PRECISION WORDS(I.E. 200 LGC
000055:                                                                                                  #           COMPUTER WORDS) ARE TRANSMITTED VIA DOWNLINK.
000056:                                                                                                  #  ERASABLE INITIALIZATION REQUIRED- NONE
000057:                                                                                                  #           DNTMGOTO,DNLSTADR AND EBANK ARE INITIALIZED IN STARTSUB(FRESH
000058:                                                                                                  #           START AND RESTART)
000059:                                                                                                  #  DEBRIS (ERASABLE LOCATIONS DESTROYED BY THIS PROGRAM)-
000060:                                                                                                  #           LDATALST,ITEMP1,ITEMP2,DNTMBUFF TO DNTMBUFF + 21D,TMINDEX,DNQ
000061:
000062:
000063: 15,2000                                           BANK     15
000064: 15,2000  E7,1404                                  EBANK=   DNTMBUFF
000065:
000066: 15,2000                        ERASZERO           EQUALS   7
000067: 15,2000  0000007               DMYECADR           EQUALS   ERASZERO                              #  USE DMYECADR TO GENERATE A DUMMY ECADR
000068: 15,2000  0000007               DMYADRES           EQUALS   ERASZERO                              #  USE DMYADRES TO GENERATE A DUMMY ADRES
000069: 15,2000  0000007               UNKNOWN            EQUALS   ERASZERO                              #  USE UNKNOWN WHEN THE MNEMONIC IS UNKNOWN
000070: 15,2000  0000007               SPARE              EQUALS   ERASZERO                              #  USE SPARE TO INDICATE AVAILABLE SPACE
000071:
000072: 15,2000           00437        LOWIDCOD           OCT      00437
000073:


000075:                                                                                                  #  SPECIAL DOWNLIST FOR AGS INITIALIZATION. AGSLIST MUST RESIDE IN
000076:                                                                                                  #    LOCATION 2001 OF DOWNLOAD EBANK.
000077:
000078:                                                                                                  #  AGSLIST IS NOT REQUIRED FOR AS206 BUT IS INSERTED IN SUNBURST TO
000079:                                                                                                  #    RESERVE SPACE FOR IT IN 207/8 AND FUTURE MISSIONS.
000080:
000081: 15,2001                        AGSLIST            EQUALS
000082:                                                                                                  #                                          -------------DOUBLE PRECISION - ANY BANK  (GROUP 2)---------------------
000083: 15,2001           00007                           ECADR    DMYECADR
000084: 15,2002           00007                           ECADR    DMYECADR
000085: 15,2003           00007                           ECADR    DMYECADR
000086: 15,2004           00007                           ECADR    DMYECADR
000087: 15,2005           00007                           ECADR    DMYECADR
000088: 15,2006           00007                           ECADR    DMYECADR
000089: 15,2007           00007                           ECADR    DMYECADR
000090: 15,2010           00007                           ECADR    DMYECADR
000091: 15,2011           00007                           ECADR    DMYECADR
000092: 15,2012           00007                           ECADR    DMYECADR
000093: 15,2013           00007                           ECADR    DMYECADR
000094: 15,2014           00007                           ECADR    DMYECADR
000095: 15,2015           00007                           ECADR    DMYECADR
000096: 15,2016           00007                           ECADR    DMYECADR
000097: 15,2017           00007                           ECADR    DMYECADR
000098: 15,2020           00007                           ECADR    DMYECADR
000099: 15,2021           00007                           ECADR    DMYECADR
000100: 15,2022           00007                           ECADR    DMYECADR
000101:
000102: 15,2023           00007                           ECADR    DMYECADR
000103: 15,2024           00007                           ECADR    DMYECADR
000104: 15,2025           00007                           ECADR    DMYECADR
000105: 15,2026           00007                           ECADR    DMYECADR
000106: 15,2027           00007                           ECADR    DMYECADR
000107: 15,2030           00007                           ECADR    DMYECADR
000108: 15,2031           00007                           ECADR    DMYECADR
000109: 15,2032           00007                           ECADR    DMYECADR
000110: 15,2033           00007                           ECADR    DMYECADR
000111:                                                                                                  #                                           ----SNAPSHOT DP WORDS FROM EBANK E7 OR UNSWITCHABLE ERASABLE(GROUP 2)---
000112: 15,2034           00007                           ADRES    DMYADRES
000113: 15,2035           00007                           ADRES    DMYADRES
000114: 15,2036           00007                           ADRES    DMYADRES
000115: 15,2037           00007                           ADRES    DMYADRES
000116: 15,2040           00007                           ADRES    DMYADRES
000117: 15,2041           00007                           ADRES    DMYADRES
000118: 15,2042           00007                           ADRES    DMYADRES
000119: 15,2043           00007                           ADRES    DMYADRES
000120: 15,2044           00007                           ADRES    DMYADRES
000121: 15,2045           00007                           ADRES    DMYADRES
000122: 15,2046           00007                           ADRES    DMYADRES
000123: 15,2047           00007                           ADRES    DMYADRES
000124:                                                                                                  #                                           -------------DOUBLE PRECISION - ANY EBANK  (GROUP 1)--------------------
000125:
000126: 15,2050           00007                           ECADR    DMYECADR
000127: 15,2051           00007                           ECADR    DMYECADR
000128:


000130: 15,2052           00007                           ECADR    DMYECADR
000131: 15,2053           00007                           ECADR    DMYECADR
000132: 15,2054           00007                           ECADR    DMYECADR
000133: 15,2055           00007                           ECADR    DMYECADR
000134: 15,2056           00007                           ECADR    DMYECADR
000135: 15,2057           00007                           ECADR    DMYECADR
000136: 15,2060           00007                           ECADR    DMYECADR
000137: 15,2061           00007                           ECADR    DMYECADR
000138:
000139: 15,2062           00007                           ECADR    DMYECADR
000140: 15,2063           00007                           ECADR    DMYECADR
000141: 15,2064           00007                           ECADR    DMYECADR
000142: 15,2065           00007                           ECADR    DMYECADR
000143: 15,2066           00007                           ECADR    DMYECADR
000144: 15,2067           00007                           ECADR    DMYECADR
000145: 15,2070           00007                           ECADR    DMYECADR
000146: 15,2071           00007                           ECADR    DMYECADR
000147: 15,2072           00007                           ECADR    DMYECADR
000148: 15,2073           00007                           ECADR    DMYECADR
000149: 15,2074           00007                           ECADR    DMYECADR
000150: 15,2075           00007                           ECADR    DMYECADR
000151: 15,2076           00007                           ECADR    DMYECADR
000152: 15,2077           00007                           ECADR    DMYECADR
000153: 15,2100           00007                           ECADR    DMYECADR
000154: 15,2101           00007                           ECADR    DMYECADR
000155: 15,2102           00007                           ECADR    DMYECADR
000156:                                                                                                  #                                           ----SNAPSHOT DP WORDS FROM EBANK E7 OR UNSWITCHABLE ERASABLE(GROUP 1)---
000157: 15,2103           00007                           ADRES    DMYADRES
000158: 15,2104           00007                           ADRES    DMYADRES
000159: 15,2105           00007                           ADRES    DMYADRES
000160: 15,2106           00007                           ADRES    DMYADRES
000161: 15,2107           00007                           ADRES    DMYADRES
000162:
000163: 15,2110           00007                           ADRES    DMYADRES
000164: 15,2111           00007                           ADRES    DMYADRES
000165: 15,2112           00007                           ADRES    DMYADRES
000166: 15,2113           00007                           ADRES    DMYADRES
000167: 15,2114           00007                           ADRES    DMYADRES
000168: 15,2115           00007                           ADRES    DMYADRES
000169: 15,2116           00007                           ADRES    DMYADRES
000170:
000171:                                                                                                  #  SPECIAL DATA LIST FRO HIGH SPEED RADAR SAMPLING, NOT REQUIRED IN AS206.
000172: 15,2117  15,2001               UPDNLIST           EQUALS   AGSLIST
000173:


000175:
000176:                                                                                                  #  DODOWNTM IS ENTERED EVERY 20 MS BY AN INTERRUPT TRIGGERED BY THE
000177:                                                                                                  #  RECEIPT OF AN ENDPULSE FROM THE SPACECRAFT TELEMETRY PROGRAMMER.
000178:
000179:                                                                                                  #  THE ORGANIZATION OF THE PROGRAM IS AS FOLLOWS......
000180:                                                                                                  #  1. A MAIN PROGRAM(DODOWNTM) WHICH CONTROLS A SERIES OF SUBROUTINES.
000181:                                                                                                  #  2. SUBROUTINES(SENDID,SENDSNAP ETC.) WHICH ARE DESIGNED TO HANDLE
000182:                                                                                                  #     SPECIFIC PORTIONS OF THE DOWNLIST.
000183:                                                                                                  #  3. :EQUALS: CARDS(NDP1, NDP2, LINCR) WHICH DEFINE NO. OF ITEMS IN THE
000184:                                                                                                  #     PORTIONS OF THE DOWNLISTS.
000185:                                                                                                  #  4. DOWNLISTS. - DOWNLISTS MUST BE COMPILED IN THE SAME BANK AS THE
000186:                                                                                                  #     DOWN-TELEMETRY PROGRAM. THIS IS DONE FOR EASE OF CODING, FASTER
000187:                                                                                                  #     EXECUTION AND TO INSURE THAT THE DOWNLIST ID:S(FIRST WORD OF EACH
000188:                                                                                                  #     2 SEC DOWNLIST.) ARE UNIQUE. THE LOCATION OF THE AGS DOWNLIST MUST BE
000189:                                                                                                  #     2001 OF THE FBANK IN WHICH THE DOWN-TELEMETRY PROGRAM RESIDES.
000190:
000191:                                                                                                  #     (I.E. AGSLIST = XX,2001). THIS WILL MAKE THE ID WORD FOR THE AGS
000192:                                                                                                  #     DOWNLINK DATA = 00001.
000193:
000194:
000195: 15,2117           54016        DODOWNTM           TS       BANKRUPT
000196: 15,2120           00006                           EXTEND
000197: 15,2121           22012                           QXCH     QRUPT
000198: 15,2122           51401                           INDEX    DNTMGOTO                              #  GO TO APPROPRIATE
000199: 15,2123           10000                           TCF      0                                     #  TELEMETRY PHASE
000200: 15,2124           02150        DNPHASE1           TC       SENDID                                #  SEND ID WORD(S)
000201: 15,2125           37747                           CAF      BIT7                                  #  SET WORD ORDER
000202: 15,2126           00006                           EXTEND                                         #  BACK TO 1 FOR
000203: 15,2127           05013                           WOR      13                                    #  REMAINDER OF CYCLE
000204: 15,2130           32353                           CA       DNLINCR                               #  CALCULATE ADDRESS OF
000205: 15,2131           27400                           ADS      LDATALST                              #  SNAPSHOT WORDS TO BE SENT  (GROUP 1)
000206: 15,2132           02164                           TC       SNAPSHOT                              #  SAVE AND SEND SNAPSHOT WORDS  (GROUP 1)
000207: 15,2133           32351                           CA       DNDP1-1                               #  PLACE NO. OF DP WORDS IN GROUP 1 INTO A
000208: 15,2134           02234                           TC       SENDDP                                #  SEND DOUBLE PRECISION WORDS (GROUP 1)
000209: 15,2135           02270                           TC       SENDCH                                #  SEND CHANNELS 11-14 AND 31-33
000210: 15,2136           02324                           TC       SENDDSTB                              #  SEND DISPLAY TABLES
000211: 15,2137           02344                           TC       SENDTIME                              #  SEND TIME1 AND TIME2
000212: 15,2140           42230                           CS       DNSNAP                                #  CALCULATE ADDRESS OF
000213: 15,2141           27400                           ADS      LDATALST                              #  SNAPSHOT WORDS TO BE SENT(GROUP 2)
000214:
000215: 15,2142           02164                           TC       SNAPSHOT                              #  SAVE AND SEND SNAPSHOT WORDS  (GROUP 2)
000216: 15,2143           32352                           CA       DNDP2-1                               #  PLACE NO. OF DP WORDS IN GROUP 2
000217: 15,2144           02234                           TC       SENDDP                                #  SEND DOUBLE PRECISION WORDS(GROUP 2)
000218: 15,2145           02270                           TC       SENDCH                                #  SEND CHANNELS 11-14 AND 31-33
000219: 15,2146           02324                           TC       SENDDSTB                              #  SEND DISPLAY TABLE
000220: 15,2147           12124                           TCF      DNPHASE1                              #  GO BACK AND START OVER
000221:
000222:
000223:                                                                                                  #                                          ........................................................................
000224: 15,2150           30411        SENDID             CA       DNLSTADR                              #  INITIALIZE DOWNLIST ADDRESS AS SELECTED
000225: 15,2151           55400                           TS       LDATALST                              #  BY A MISSION OR TEST PROGRAM
000226: 15,2152           75356                           MASK     LOW10                                 #  ISOLATE RELATIVE LOC OF DOWNLIST IN THIS
000227: 15,2153           00006                           EXTEND                                         #  FIXED BANK. RESULT = 0000 - 1777. NO
000228:


000230:                                                                                                  #  CONFLICT
000231: 15,2154           01034                           WRITE    DNTM1
000232: 15,2155           47747                           CS       BIT7
000233: 15,2156           00006                           EXTEND
000234: 15,2157           03013                           WAND     13                                    #  CHANNEL 13 TO 0
000235: 15,2160           00006                           EXTEND                                         #  SET UP DNTMGOTO SO NEXT ENTRY TO
000236: 15,2161           23401                           QXCH     DNTMGOTO                              #  DODOWNTM WILL TRANSFER CONTROL TO
000237:                                                                                                  #  THE INSTRUCTION AFTER TC SENDID.
000238:
000239: 15,2162           32000                           CAF      LOWIDCOD                              #  PLACE SPECIAL ID CODE INTO L
000240: 15,2163           12261                           TCF      TMEXITL
000241:
000242:
000243:                                                                                                  #                                          ........................................................................
000244: 15,2164           00006        SNAPSHOT           EXTEND
000245: 15,2165           23403                           QXCH     DNQ                                   #  SAVE RETURN ADDRESS
000246: 15,2166           37761                           CAF      ZERO                                  #  INITIALIZE THE
000247: 15,2167           54061                           TS       ITEMP1                                #  DNTMBUFF INCREMENTER(ITEMP1) TO ZERO.
000248: 15,2170           32232                           CAF      DNSNAP-2                              #  INITIALIZE LOOP COUNTER(ITEMP2) TO
000249: 15,2171           54062        SNAPLOOP           TS       ITEMP2                                #  TOTAL NO. OF SNAPSHOT DP WORDS LESS 2.
000250:
000251: 15,2172           61400                           AD       LDATALST                              #  CALCULATE ADDRESS OF NEXT
000252: 15,2173           00006                           EXTEND                                         #  ENTRY IN DOWNLIST.
000253: 15,2174           50000                           INDEX    A                                     #  PICK UP THE DOUBLE PRECISION WORD FROM
000254: 15,2175           50000                           INDEX    0                                     #  THE NEXT ENTRY
000255: 15,2176           30001                           DCA      0                                     #  IN THE DOWNLIST.
000256: 15,2177           50061                           INDEX    ITEMP1                                #  AND SAVE IT IN THE NEXT AVAILABLE LOC
000257: 15,2200           53405                           DXCH     DNTMBUFF                              #  IN DNTMBUFF SNAPSHOT BUFFER.
000258: 15,2201           37754                           CAF      TWO                                   #  INCREMENT DNTMBUFF INCREMENTER(ITEMP1)
000259: 15,2202           26061                           ADS      ITEMP1                                #  BY 2.
000260: 15,2203           10062                           CCS      ITEMP2                                #  HAVE ALL SNAPSHOT DP WORDS BEEN SAVED...
000261: 15,2204           12171                           TCF      SNAPLOOP                              #  NO--GO BACK AND CONTINUE SAVING THEM
000262: 15,2205           32231                           CAF      DNSNAP-1                              #  YES--PLACE NO. OF DP WORDS REMAINING
000263: 15,2206           55402                           TS       TMINDEX                               #  TO BE SENT INTO TMINDEX.
000264: 15,2207           32233                           CAF      LSENDSNP                              #  SET UP DNTMGOTO SO PROGRAM CONTROL WILL
000265: 15,2210           55401                           TS       DNTMGOTO                              #  BE TRANSFERRED TO SENDSNAP ON NEXT
000266:                                                                                                  #  ENTRY TO DODOWNTM.
000267: 15,2211           00006                           EXTEND                                         #  PICK UP FIRST DP SNAPSHOT WORD
000268: 15,2212           51400                           INDEX    LDATALST                              #  AND PLACE IT IN A + L.
000269: 15,2213           50013                           INDEX    NSNAP      -1                         #  (((THIS ADDITIONAL CODING ALTHOUGH A BIT
000270: 15,2214           30001                           DCA      0                                     #  SUPERFLUOUS IS JUSTIFIED BECAUSE IT
000271:                                                                                                  #  SAVES 2 WORDS OF ERASABLE STORAGE)))
000272: 15,2215           12256                           TCF      DNTMEXIT                              #  GO SEND FIRST SNAPSHOT DP ENTRY.
000273: 15,2216           11402        SENDSNAP           CCS      TMINDEX                               #  ANY SNAPSHOT WORDS LEFT IN BUFFER
000274:
000275: 15,2217           12221                           TCF      +2                                    #  YES--GO PROCESS THEM
000276: 15,2220           01403                           TC       DNQ                                   #  NO--RETURN TO INSTRUCTION AFTER
000277:                                                                                                  #                           TC SNAPSHOT.
000278: 15,2221           55402                           TS       TMINDEX                               #  SAVE COUNT OF SNAPSHOT WORDS REMAINING
000279: 15,2222           60000                           DOUBLE                                         #  CALCULATE DECREMENTER
000280: 15,2223           40000                           COM                                            #  FOR NEXT DP WORD IN
000281: 15,2224           00006                           EXTEND                                         #  BUFFER.
000282: 15,2225           50000                           INDEX    A
000283:


000285: 15,2226           31431                           DCA      DNTMBUFF   +20D                       #  TAKE NEXT DP WORD OUT OF BUFFER, PLACE
000286: 15,2227           12256                           TCF      DNTMEXIT                              #  IT INTO A + L AND GO SEND IT.
000287:
000288: 15,2230                        NSNAP              EQUALS   12D                                   #  NUMBER OF DP SNAPSHOT WORDS.
000289: 15,2230           00014        DNSNAP             ADRES    NSNAP                                 #  NO. OF DP SNAPSHOT WORDS  CONSTANT
000290: 15,2231           00013        DNSNAP-1           ADRES    NSNAP      -1                         #  NO. OF DP SNAPSHOT WORDS -1  CONSTANT
000291: 15,2232           00012        DNSNAP-2           ADRES    NSNAP      -2                         #  NO. OF DP SNAPSHOT WORDS -2  CONSTANT
000292: 15,2233           02216        LSENDSNP           ADRES    SENDSNAP                              #  LOC OF ROUTINE WHICH SENDS SNAPSHOT BUFF
000293:
000294:
000295:                                                                                                  #                                          ........................................................................
000296: 15,2234           00006        SENDDP             EXTEND                                         #  ENTER WITH NO. DP WORDS REMAINING TO
000297: 15,2235           23403                           QXCH     DNQ                                   #  BE SENT IN A. SAVE RETURN ADDRESS.
000298: 15,2236           55402                           TS       TMINDEX                               #  PLACE NO. OF DP WORDS TO BE SENT AFTER
000299: 15,2237           67755                           AD       ONE                                   #  THIS ONE INTO TMINDEX. CALCULATE NEXT
000300: 15,2240           40000                           COM                                            #  LOCATION IN DOWNLIST AND SAVE
000301: 15,2241           27400                           ADS      LDATALST                              #  IT IN LDATALST.
000302: 15,2242           32267                           CAF      LSENDDPA                              #  SET UP DNTMGOTO SO PROGRAM CONTROL WILL
000303: 15,2243           55401                           TS       DNTMGOTO                              #  GO TO SENDDPA ON NEXT ENTRY TO DODOWNTM.
000304: 15,2244           31402                           CAE      TMINDEX                               #  PLACE NO. OF WORDS REMAINING TO BE SENT
000305: 15,2245           55402        SENDDPB            TS       TMINDEX                               #  INTO A. SAVE NO. DP WORDS TO BE SENT.
000306: 15,2246           61400                           AD       LDATALST                              #  CALCULATE NEXT DOWNLIST ENTRY.
000307: 15,2247           50000                           INDEX    A
000308: 15,2250           30000                           CA       0                                     #  PICK UP ECADR OF NEXT DOWNLIST ENTRY.
000309: 15,2251           54003                           TS       EBANK                                 #  SET EBANK.
000310: 15,2252           74553                           MASK     LOW8                                  #  ISOLATE RELATIVE ADDRESS.
000311:
000312: 15,2253           00006                           EXTEND
000313: 15,2254           50000                           INDEX    A                                     #  PICK UP DOUBLE PRECISION
000314: 15,2255           31401                           DCA      3400                                  #  WORD INTO A + L.  (DCA 3400 = DCA 1400)
000315:
000316: 15,2256           00006        DNTMEXIT           EXTEND                                         #  GENERAL DOWN-TELEMETRY EXIT
000317: 15,2257           01034                           WRITE    DNTM1                                 #  TO SEND A + L TO CHANNELS 34 + 35
000318: 15,2260           30001                           CA       L                                     #  RESPECTIVELY.
000319:
000320: 15,2261           00006        TMEXITL            EXTEND                                         #  ALTERNATE DOWN TELEMETRY EXIT
000321: 15,2262           01035                           WRITE    DNTM2                                 #  TO SEND A TO CHANNEL 35.
000322: 15,2263           15751                           TCF      RESUME                                #  EXIT DOWN TELEMETRY PROG VIA RESUME.
000323:
000324: 15,2264           11402        SENDDPA            CCS      TMINDEX                               #  ANY DP WORDS REMAINING TO BE SENT.
000325: 15,2265           12245                           TCF      SENDDPB                               #  YES--GO SEND THEM.
000326: 15,2266           01403                           TC       DNQ                                   #  RETURN TO INSTR AFTER TC SENDDP.
000327: 15,2267           02264        LSENDDPA           ADRES    SENDDPA                               #  LOC OF ROUTINE WHICH SENDS DP WORDS.
000328:
000329:
000330:                                                                                                  #                                          ........................................................................
000331: 15,2270           00006        SENDCH             EXTEND
000332: 15,2271           23403                           QXCH     DNQ                                   #  SAVE RETURN ADDRESS
000333: 15,2272           32313                           CAF      LSENDCHA                              #  SET UP DNTMGOTO SO PROG CONTROL WILL GO
000334: 15,2273           55401                           TS       DNTMGOTO                              #  TO SENDCHA ON NEXT ENTRY TO DODOWNTM.
000335:
000336: 15,2274           36301                           CAF      THREE                                 #  PLACE NO. OF PAIRS OF CHANNELS TO BE
000337:
000338:                                                                                                  #  SENT AFTER THIS PAIR INTO A.


000340: 15,2275           55402        SENDCHB            TS       TMINDEX                               #  SAVE NO. OF PAIRS OF CHANNELS REMAINING
000341: 15,2276           00006                           EXTEND                                         #  TO BE SENT INTO A. PICK UP CHANNEL
000342: 15,2277           50000                           INDEX    A                                     #  ADDRESS FROM
000343: 15,2300           52320                           INDEX    FIXLSTCL                              #  NEXT ENTRY IN FIXLSTCL.
000344: 15,2301           00000                           READ     0                                     #  PLACE CONTENTS OF THE
000345: 15,2302           54001                           TS       L                                     #  CHANNEL INTO L.
000346: 15,2303           00006                           EXTEND                                         #  PICK UP NEXT CHANNEL
000347: 15,2304           51402                           INDEX    TMINDEX                               #  ADDRESS FROM NEXT ENTRY
000348:
000349: 15,2305           52314                           INDEX    FIXLSTCA                              #  IN FIXLSTCA.
000350: 15,2306           00000                           READ     0                                     #  PLACE CONTENTS OF CHANNEL INTO A.
000351: 15,2307           12256                           TCF      DNTMEXIT                              #  NOW GO SEND A + L.
000352: 15,2310           11402        SENDCHA            CCS      TMINDEX                               #  ANY MORE CHANNEL PAIRS TO BE SENT......
000353: 15,2311           12275                           TCF      SENDCHB                               #  YES--GO SEND THEM.
000354: 15,2312           01403                           TC       DNQ                                   #  NO--RETURN TO INSTR AFTER TC SENDCH.
000355: 15,2313           02310        LSENDCHA           ADRES    SENDCHA                               #  LOCATION OF ROUTINE WHICH SENDS CHANNELS
000356: 15,2314           00032        FIXLSTCA           OCT      32                                    #  CHANNEL 32
000357: 15,2315           00030                           OCT      30                                    #  CHANNEL 30
000358: 15,2316           00013                           OCT      13                                    #  CHANNEL 13
000359: 15,2317           00011                           OCT      11                                    #  CHANNEL 11
000360: 15,2320           00033        FIXLSTCL           OCT      33                                    #  CHANNEL 33
000361: 15,2321           00031                           OCT      31                                    #  CHANNEL 31
000362: 15,2322           00014                           OCT      14                                    #  CHANNEL 14
000363: 15,2323           00012                           OCT      12                                    #  CHANNEL 12
000364:
000365:
000366:                                                                                                  #                                          ........................................................................
000367: 15,2324           00006        SENDDSTB           EXTEND
000368: 15,2325           23403                           QXCH     DNQ                                   #  SAVE RETURN ADDRESS
000369: 15,2326           32343                           CAF      LSENDDSA                              #  SET UP DNTMGOTO SO PROGRAM CONTROL WILL
000370: 15,2327           55401                           TS       DNTMGOTO                              #  GO TO SENDDSA ON NEXT ENTRY TO DODOWNTM.
000371: 15,2330           37760                           CAF      FIVE                                  #  PLACE NO. OF PAIRS OF DSPTAB WORDS REM
000372:
000373: 15,2331           55402        SENDDSB            TS       TMINDEX                               #  AFTER THIS PAIR INTO A. SAVE NO. REMAIN-
000374: 15,2332           60000                           DOUBLE                                         #  ING INTO TMINDEX. CALCULATE DECREMENTER
000375: 15,2333           40000                           COM                                            #  FOR NEXT PAIR OF WORDS(SP)
000376: 15,2334           00006                           EXTEND                                         #  IN DSPTAB.
000377: 15,2335           50000                           INDEX    A                                     #  PICK UP PAIR OF DSPTAB WORDS(SP) AND
000378: 15,2336           30326                           DCA      DSPTAB     +10D                       #  LEAVE THEM IN A + L.
000379: 15,2337           12256                           TCF      DNTMEXIT                              #  NOW GO SEND A + L.
000380: 15,2340           11402        SENDDSA            CCS      TMINDEX                               #  ANY WORDS LEFT IN DSPTAB TO BE SENT.....
000381: 15,2341           12331                           TCF      SENDDSB                               #  YES--GO SEND THEM
000382: 15,2342           01403                           TC       DNQ                                   #  NO--RETURN TO INSTR AFTER TC SENDDSTB.
000383: 15,2343           02340        LSENDDSA           ADRES    SENDDSA                               #  LOC OF ROUTINE WHICH SENDS DISPLAY TABLE
000384:
000385:
000386:                                                                                                  #  ........................................................................
000387: 15,2344           00006        SENDTIME           EXTEND                                         #  SET DP DNTMGOTO SO PROGRAM CONTROL WILL
000388: 15,2345           23401                           QXCH     DNTMGOTO                              #  GO TO INSTRUCTION AFTER TC SENDTIME.
000389: 15,2346           00006                           EXTEND
000390: 15,2347           30025                           DCA      TIME2                                 #  PLACE TIME2 AND TIME1 INTO A AND L.
000391: 15,2350           12256                           TCF      DNTMEXIT                              #  NOW GO SEND A AND L.
000392:


000394:                                                                                                  #                                          ........................................................................
000395: 15,2351           00032        DNDP1-1            ADRES    NDP1       -1                         #  NO. OF DP WORDS IN GROUP 1 LESS 1
000396: 15,2352           00032        DNDP2-1            ADRES    NDP2       -1                         #  NO. OF DP WORDS IN GROUP 2 LESS 1
000397: 15,2353           00102        DNLINCR            ADRES    LINCR                                 #  RELATIVE LOC OF FIRST GROUP IN DOWNLIST.
000398:                                                                                                  #                                          ........................................................................
000399:                                                                                                  #                                          ************************************************************************
000400:                                                                                                  #                                          CHANGE THE FOLLOWING 3 EQUALS CARDS WHEN MODIFYING THE STRUCTURE OF THE
000401:                                                                                                  #                                          DOWNLISTS.
000402: 15,2354                        NDP1               EQUALS   27D                                   #  NUMBER OF DP WORDS  (GROUP 1)
000403: 15,2354                        NDP2               EQUALS   27D                                   #  NUMBER OF DP WORDS  (GROUP 2)
000404: 15,2354                        LINCR              EQUALS   66D                                   #  LINCR   = NDP1 + NDP2 + 12D
000405:                                                                                                  #                                          ************************************************************************
000406:


000408:                                                                                                  #  NOMINAL SUNBURST (AS206) 2 SECOND DOWNLIST
000409:                                                                                                  #  AS OF DATE = 29NOV66
000410:
000411:                                                                                                  #  # IN COLUMN 80 INDICATES THE REQUIRED DATA IS NOT AVAILABLE THROUGHOUT
000412:                                                                                                  #    THE ENTIRE MISSION IN THE SANE REGISTERS WITH THE SAME SCALING FACTORS
000413:                                                                                                  #    THESE CONFLICTS MUST BE RESOLVED.
000414:
000415:                                                                                                  #  LAST ENTRY IN DOWNLIST WILL BE SENT FIRST, THEN LAST ENTRY - 1  ETC.----
000416: 15,2354                        NOMDNLST           EQUALS
000417:                                                                                                  #                                          ----------------------DISPLAY TABLES------------------------------------
000418:                                                                                                  #                                                                          DSPTAB +10D AND DSPTAB +11D
000419:                                                                                                  #                                                                          DSPTAB +8D AND DSPTAB +9D
000420:                                                                                                  #                                                                          DSPTAB +6  AND DSPTAB +7
000421:                                                                                                  #                                                                          DSPTAB +4  AND DSPTAB +5
000422:                                                                                                  #                                                                          DSPTAB +2  AND DSPTAB +3
000423:                                                                                                  #                                                                          DSPTAB     AND DSPTAB +1
000424:                                                                                                  #                                          -----------------------CHANNELS----------------------------------------
000425:                                                                                                  #                                                                          CHANNELS 32 AND 33
000426:                                                                                                  #                                                                          CHANNELS 30 AND 31
000427:                                                                                                  #                                                                          CHANNELS 13 AND 14
000428:
000429:                                                                                                  #                                                                          CHANNELS 11 AND 12
000430:                                                                                                  #                                          -------------DOUBLE PRECISION - ANY EBANK  (GROUP 2)-------------------
000431: 15,2354           00076                           ECADR    STATE      +2                         #  (FLAGWRD2,DAPBOOLS) FLAGWORDS
000432: 15,2355           00074                           ECADR    STATE                                 #  (STATE,FLAGWRD1) FLAGWORDS
000433: 15,2356           03020                           ECADR    OMEGAR     -1                         #  (GARBAGE,OMEGAR) ANGULAR RATES ABOUT THE
000434: 15,2357           03016                           ECADR    OMEGAP                                #  (OMEGAP,OMEGAQ) P,Q,R BODY AXES  (DAP)
000435: 15,2360           00033                           ECADR    CDUY                                  #  (CDUY,CDUZ) ACTUAL CDU:S
000436: 15,2361           00031                           ECADR    CDUX       -1                         #  (GARBAGE,CDUX) ACTUAL CDU:S
000437: 15,2362           02345                           ECADR    RD         +4                         #  APS2 DESIRED RADIUS VECTOR IN STABLE
000438: 15,2363           02343                           ECADR    RD         +2                         #  MEMBER CO-ORDINATES.
000439: 15,2364           02341                           ECADR    RD                                    #  SCALED METERS X 2(-7).
000440: 15,2365           02331                           ECADR    VDVECT     +4                         #  APS2,DPS1 DESIRED VELOCITY VECTOR IN
000441: 15,2366           02327                           ECADR    VDVECT     +2                         #  STABLE MEMBER CO-ORDINATES.
000442: 15,2367           02325                           ECADR    VDVECT                                #  SCALED M/CS X 2(-7).
000443: 15,2370           02337                           ECADR    VGVECT     +4                         #  APS2,DPS1 VELOCITY TO BE GAINED SCALED
000444: 15,2371           02335                           ECADR    VGVECT     +2                         #  M/CS X 2(-7). IN LOCAL VERTICAL (APS2)
000445: 15,2372           02333                           ECADR    VGVECT                                #  OR STABLE MEMBER (DPS1).
000446: 15,2373           02347                           ECADR    TTGO                                  #  ESTIMATED TIME TO GO IN CS(APS2,DPS1,2).
000447: 15,2374           00765                           ECADR    PHASENUM                              #  (PHASENUM,1/PIPADT)PRESENT MISSION PHASE
000448: 15,2375           01171                           ECADR    MTIMER2                               #  (MTIMER2,MTIMER1) REGISTERS CONTAINING
000449: 15,2376           01167                           ECADR    MTIMER4                               #  (MTIMER4,MTIMER3) DELTA T:S OF MP:S.
000450: 15,2377           01175                           ECADR    MPHASE2                               #  (MPHASE2,MPHASE1) REGISTERS CONTAINING
000451: 15,2400           01173                           ECADR    MPHASE4                               #  (MPHASE4,MPHASE3) MP:S TO BE CALLED.
000452:
000453: 15,2401           00007                           ECADR    SPARE                                 #  SPARE
000454: 15,2402           01142                           ECADR    LMPIN                                 #  (LMPIN,LMPOUT)
000455: 15,2403           01140                           ECADR    LMPCMD     +6                         #  OUTPUT TO LMP = REGISTERS
000456: 15,2404           01136                           ECADR    LMPCMD     +4                         #  CONTAINING THE
000457: 15,2405           01134                           ECADR    LMPCMD     +2                         #  LAST EIGHT LMP COMMANDS
000458: 15,2406           01132                           ECADR    LMPCMD                                #  TO BE SENT BY THE LGC.
000459:                                                                                                  #                                          ----SNAPSHOT DP WORDS FROM EBANK E7 OR UNSWITCHABLE ERASABLE(GROUP 2)---
000460:


000462: 15,2407           00007                           ADRES    SPARE                                 #  SPARE
000463: 15,2410           00007                           ADRES    SPARE                                 #  SPARE
000464:
000465: 15,2411           00007                           ADRES    SPARE                                 #  SPARE
000466: 15,2412           00007                           ADRES    SPARE                                 #  SPARE
000467: 15,2413           00041                           ADRES    PIPAZ                                 #  (PIPAZ,GARBAGE) ACTUAL Z PIP COUNTS.
000468: 15,2414           00037                           ADRES    PIPAX                                 #  (PIPAX,PIPAY) ACTUAL X,Y PIP COUNTS.
000469: 15,2415           00100                           ADRES    STATE      +4                         #  (STATE +4,GARBAGE) LAMBERT FLAGS.
000470: 15,2416           01364                           ADRES    FAILREG    +1                         #  (FAILREG +1,+2) MULTIFAIL ALARM CODES.
000471: 15,2417           01362                           ADRES    ERCOUNT                               #  (ERCOUNT,FAILREG)SLFCK FAIL CTR,ALM CODE
000472: 15,2420           01614                           ADRES    COMPTORK   +4                         #  E)GYROCOMPASS GYRO TORQUES IN VERTICAL,
000473: 15,2421           01612                           ADRES    COMPTORK   +2                         #  S)SOUTH, EAST SYSTEM,ERATE NOT INCLUDED.
000474: 15,2422           01610                           ADRES    COMPTORK                              #  V) 37777,37777 = (1 - 2(-28))REVS.
000475:                                                                                                  #                                          ---------------------------LGC CLOCK------------------------------------
000476:                                                                                                  #                                                                          TIME2 AND TIME1
000477:                                                                                                  #                                          ----------------------DISPLAY TABLES------------------------------------
000478:                                                                                                  #                                                                          DSPTAB +10D AND DSPTAB +11D
000479:                                                                                                  #                                                                          DSPTAB +8D AND DSPTAB +9D
000480:                                                                                                  #                                                                          DSPTAB +6  AND DSPTAB +7
000481:                                                                                                  #                                                                          DSPTAB +4  AND DSPTAB +5
000482:                                                                                                  #                                                                          DSPTAB +2  AND DSPTAB +3
000483:                                                                                                  #                                                                          DSPTAB     AND DSPTAB +1
000484:                                                                                                  #                                          -----------------------CHANNELS-----------------------------------------
000485:                                                                                                  #                                                                          CHANNELS 32 AND 33
000486:                                                                                                  #                                                                          CHANNELS 30 AND 31
000487:                                                                                                  #                                                                          CHANNELS 13 AND 14
000488:
000489:                                                                                                  #                                                                          CHANNELS 11 AND 12
000490:                                                                                                  #                                          -------------DOUBLE PRECISION - ANY EBANK  (GROUP 1)--------------------
000491: 15,2423           00076                           ECADR    STATE      +2                         #  (FLAGWRD2,DAPBOOLS) FLAGWORDS
000492: 15,2424           00074                           ECADR    STATE                                 #  (STATE,FLAGWRD1) FLAGWORDS
000493: 15,2425           03020                           ECADR    OMEGAR     -1                         #  (GARBAGE,OMEGAR) ANGULAR RATES ABOUT THE
000494: 15,2426           03016                           ECADR    OMEGAP                                #  (OMEGAP,OMEGAQ) P,Q,R BODY AXES  (DAP)
000495: 15,2427           00033                           ECADR    CDUY                                  #  (CDUY,CDUZ) ACTUAL CDU:S
000496: 15,2430           00031                           ECADR    CDUX       -1                         #  (GARBAGE,CDUX) ACTUAL CDU:S
000497: 15,2431           01360                           ECADR    REDOCTR                               #  (REDOCTR,SFAIL)RESTART CTR,SLFCK FAIL Q.
000498: 15,2432           02372                           ECADR    TINT                                  #  PREDICTED ENGINE ON TIME(MP9,11,13)#
000499: 15,2433           03252                           ECADR    AOSQ                                  #  (AOSQ,AOSR) MOMENT OFFSET(Q,R)
000500: 15,2434           02562                           ECADR    FC                                    #  DPS2 FORCE COMMAND SCALE 3 LBS X 2(-14).
000501: 15,2435           02323                           ECADR    TEVENT                                #  TIME OF GRR / ENGINE ON / ENGINE OFF
000502: 15,2436           00365                           ECADR    IMODES30                              #  (IMODES30,IMODES33) PGNCS FLAGWORDS
000503: 15,2437           02313                           ECADR    STBUFF     +12D                       #  STBUFF = 14 REGISTERS
000504: 15,2440           02311                           ECADR    STBUFF     +10D                       #  IN WHICH THE UPLINKED DATA
000505: 15,2441           02307                           ECADR    STBUFF     +8D                        #  IS PLACED FOR GROUND
000506: 15,2442           02305                           ECADR    STBUFF     +6                         #  DISPLAY AND VERIFICATION
000507: 15,2443           02303                           ECADR    STBUFF     +4                         #  BEFORE PLACEMENT
000508: 15,2444           02301                           ECADR    STBUFF     +2                         #  IN THE APPROPRIATE
000509: 15,2445           02277                           ECADR    STBUFF                                #  ERASABLE LOCATIONS.
000510: 15,2446           02315                           ECADR    STCOUNT                               #  (STCOUNT,UPOLDMD)
000511: 15,2447           02321                           ECADR    UPVERB                                #  (UPVERB,COMPNUMB)
000512:
000513: 15,2450           00007                           ECADR    SPARE                                 #  SPARE
000514: 15,2451           01142                           ECADR    LMPIN                                 #  (LMPIN,LMPOUT)
000515:


000517: 15,2452           01140                           ECADR    LMPCMD     +6                         #  OUTPUT TO LMP = REGISTERS
000518: 15,2453           01136                           ECADR    LMPCMD     +4                         #  CONTAINING THE
000519: 15,2454           01134                           ECADR    LMPCMD     +2                         #  LAST EIGHT LMP COMMANDS
000520: 15,2455           01132                           ECADR    LMPCMD                                #  TO BE SENT BY THE LGC.
000521:                                                                                                  #                                          ----SNAPSHOT DP WORDS FROM EBANK E7 OR UNSWITCHABLE ERASABLE(GROUP 1)---
000522: 15,2456           00407                           ADRES    DELVZ                                 #  THE CHANGE IN VELOCITY ALONG
000523: 15,2457           00405                           ADRES    DELVY                                 #  EACH OF THE STABLE MEMBER AXES IN THE
000524: 15,2460           00403                           ADRES    DELVX                                 #  2 SEC INTERVAL PRECEEDING PIPTIME.
000525:
000526: 15,2461           00767                           ADRES    CDUYD                                 #  (CDUYD,CDUZD)  DESIRED CDU:S
000527: 15,2462           00765                           ADRES    CDUXD      -1                         #  (GARBAGE,CDUXD)  DESIRED CDU:S
000528: 15,2463           01340                           ADRES    STATIME                               #  TIME FOR RN AND VN.
000529: 15,2464           01022                           ADRES    VN         +4                         #  AVE.G/ORBIT.INT. STATE VECTOR Z VEL
000530: 15,2465           01020                           ADRES    VN         +2                         #  AVE.G/ORBIT.INT. STATE VECTOR Y VEL
000531: 15,2466           01016                           ADRES    VN                                    #  AVE.G/ORBIT.INT. STATE VECTOR X VEL
000532: 15,2467           01014                           ADRES    RN         +4                         #  AVE.G/ORBIT.INT. STATE VECTOR Z POS
000533: 15,2470           01012                           ADRES    RN         +2                         #  AVE.G/ORBIT.INT. STATE VECTOR Y POS
000534: 15,2471           01010                           ADRES    RN                                    #  AVE.G/ORBIT.INT. STATE VECTOR X POS
000535:                                                                                                  #                                          --------------------------ID WORDS--------------------------------------
000536:                                                                                                  #                                                                          I.D., SYNCH BITS
000537:                                                                                                  #                                          --------START HERE AND READ BACK FOR CONTENTS OF DOWNLIST---------------

End of include-file DOWN-TELEMETRY_PROGRAM.agc.  Parent file is MAIN.agc


