
Source Code


000002:                                                                                                  ## Copyright:   Public domain.
000003:                                                                                                  ## Filename:    DUMMY_206_INITIALIZATION.agc
000004:                                                                                                  ## Purpose:     A section of Sunburst revision 37, or Shepatin revision 0.
000005:                                                                                                  ##              It is part of an early development version of the software
000006:                                                                                                  ##              for Apollo Guidance Computer (AGC) on the unmanned Lunar
000007:                                                                                                  ##              Module (LM) flight Apollo 5. Sunburst 37 was the program
000008:                                                                                                  ##              upon which Don Eyles's offline development program Shepatin
000009:                                                                                                  ##              was based; the listing herein transcribed was actually for
000010:                                                                                                  ##              the equivalent revision 0 of Shepatin.
000011:                                                                                                  ##              This file is intended to be a faithful transcription, except
000012:                                                                                                  ##              that the code format has been changed to conform to the
000013:                                                                                                  ##              requirements of the yaYUL assembler rather than the
000014:                                                                                                  ##              original YUL assembler.
000015:                                                                                                  ## Reference:   pp. 812-813
000016:                                                                                                  ## Assembler:   yaYUL
000017:                                                                                                  ## Contact:     Ron Burkey <info@sandroid.org>.
000018:                                                                                                  ## Website:     www.ibiblio.org/apollo/index.html
000019:                                                                                                  ## Mod history: 2017-05-24 MAS  Created from Sunburst 120.
000020:                                                                                                  ##              2017-06-06 HG   Transcribed
000021:                                                                                                  ##              2017-06-23 RSB  Proofed comment text with
000022:                                                                                                  ##                              octopus/ProoferComments.
000023:


000025:                                                                                                  #  PROGRAM NAME - BEGIN206
000026:                                                                                                  #  MOD. NO. 3
000027:
000028:                                                                                                  #  MOD BY - D. LICKLY AND J. SAMPSON
000029:                                                                                                  #  DATE - NOV. 22, 1966
000030:                                                                                                  #  LOG SECTION - DUMMY 206 INITIALIZATION
000031:                                                                                                  #  ASSEMBLY - SUNBURST REVISION 36
000032:
000033:                                                                                                  #  FUNCTIONAL DESCRIPTION - START UP TO TWO DELAYED JOBS OR TASKS AFTER SLAP1 FOR SIMULATION PURPOSES.
000034:
000035:                                                                                                  #  FIXED INITIALIZATION REQUIRED - PATCH STARTDT1 AND STARTDT2 TO REPRESENT THE TIME2,TIME1 VALUE AT THE TIME AT
000036:                                                                                                  #                                    WHICH THE JOBS OR TASKS ARE TO BEGIN
000037:                                                                                                  #                                  PATCH CADR1 AND CADR2 IF SOME OTHER TASKS THAN TASK1 AND TASK2 ARE TO BE USED
000038:                                                                                                  #                                  PATCH CADR3 AND CADR4 TO THE 2CADR OF THE JOBS TO BE STARTED
000039:                                                                                                  #                                  PATCH 206BEGIN TO TC ENDOFJOB IF ONLY ONLY ONE TASK OR JOB IS TO BE STARTED
000040:                                                                                                  #                                  PATCH TASK1 AND TASK2 WITH DIFFERENT PRIORITIES IF DESIRED
000041:                                                                                                  #  SUBROUTINES CALLED - FINDVAC, WAITLIST
000042:
000043:                                                                                                  #  NORMAL EXIT MODES - ENDOFJOB, TASKOVER
000044:
000045:                                                                                                  #  ALARM OR ABORT EXIT MODES - NONE
000046:
000047:                                                                                                  #  OUTPUT - 2 WAITLIST OR FINDVAC CALLS FOR THE 2CADRS PATCHED IN
000048:
000049:                                                                                                  #  ERASABLE INITIALIZATION REQUIRED - NONE
000050:
000051:                                                                                                  #  DEBRIS - ITEMP1, CENTRALS, ERASABLES IN SUBROUTINES CALLED
000052:
000053:                                                                                                  #  NOTES - SINCE ONLY THE LOW ORDER PART OF STARTDT1 AND STARTDT2 ARE USED OT COMPUTE THE DELTAT FOR WAITLIST, THE
000054:                                                                                                  #    REQUIRED TASKS AND JOBS WILL BE CALLED WITHIN 163.84 SECONDS
000055:
000056:
000057: 35,3524                                           BANK     35
000058:
000059: 35,3524           00004        BEGIN206           INHINT
000060:
000061: 35,3525           40025                           CS       TIME1                                 #  PATCH SLAP1 TO COME HERE TO START UP TWO
000062: 35,3526           63551                           AD       STARTDT1   +1                         #    DELAYED TASKS OR JOBS FOR SIMULATIONS
000063: 35,3527           67740                           AD       BIT14
000064: 35,3530           67740                           AD       BIT14
000065: 35,3531           56061                           XCH      ITEMP1
000066:
000067: 35,3532           30061                           CA       ITEMP1
000068: 35,3533           05701                           TC       WAITLIST
000069: 35,3534     0061                                  EBANK=   ITEMP1
000070: 35,3534           03554 72060  CADR1              2CADR    TASK1                                 #  MAY BE PATCHED FOR ANOTHER TASK
000071:
000072: 35,3536           40025        206BEGIN           CS       TIME1                                 #  PATCH TO TC ENDOFJOB TO START 1 TASK
000073: 35,3537           63553                           AD       STARTDT2   +1
000074: 35,3540           67740                           AD       BIT14
000075:


000077: 35,3541           67740                           AD       BIT14
000078: 35,3542           56061                           XCH      ITEMP1
000079:
000080: 35,3543           30061                           CA       ITEMP1
000081: 35,3544           05701                           TC       WAITLIST
000082: 35,3545     0061                                  EBANK=   ITEMP1
000083: 35,3545           03561 72060  CADR2              2CADR    TASK2                                 #  COULD BE PATCHED
000084:
000085: 35,3547           05605                           TC       ENDOFJOB
000086:
000087:
000088: 35,3550           00000 01130  STARTDT1           2DEC     600        B-28                       #  PATCH
000089:
000090: 35,3552           00000 00310  STARTDT2           2DEC     200        B-28                       #  PATCH
000091:
000092: 35,3554           35657        TASK1              CAF      PRIO15                                #  ..OR YOUR OWN PRIORITY..
000093: 35,3555           05534                           TC       FINDVAC
000094: 35,3556           77777        CADR3              OCT      77777                                 #  BETTER PATCH A 2CADR HERE
000095: 35,3557           77777                           OCT      77777
000096: 35,3560           05745                           TC       TASKOVER
000097:
000098: 35,3561           37740        TASK2              CAF      PRIO20
000099: 35,3562           05534                           TC       FINDVAC
000100: 35,3563           77777        CADR4              OCT      77777                                 #  ..HERE ALSO..
000101: 35,3564           77777                           OCT      77777
000102: 35,3565           05745                           TC       TASKOVER

End of include-file DUMMY_206_INITIALIZATION.agc.  Parent file is MAIN.agc


