
Source Code


000002:                                                                                                  ## Copyright:   Public domain.
000003:                                                                                                  ## Filename:    ERASABLE_ASSIGNMENTS.agc
000004:                                                                                                  ## Purpose:     A section of Sunburst revision 37, or Shepatin revision 0.
000005:                                                                                                  ##              It is part of an early development version of the software
000006:                                                                                                  ##              for Apollo Guidance Computer (AGC) on the unmanned Lunar
000007:                                                                                                  ##              Module (LM) flight Apollo 5. Sunburst 37 was the program
000008:                                                                                                  ##              upon which Don Eyles's offline development program Shepatin
000009:                                                                                                  ##              was based; the listing herein transcribed was actually for
000010:                                                                                                  ##              the equivalent revision 0 of Shepatin.
000011:                                                                                                  ##              This file is intended to be a faithful transcription, except
000012:                                                                                                  ##              that the code format has been changed to conform to the
000013:                                                                                                  ##              requirements of the yaYUL assembler rather than the
000014:                                                                                                  ##              original YUL assembler.
000015:                                                                                                  ## Reference:   pp. 10-52
000016:                                                                                                  ## Assembler:   yaYUL
000017:                                                                                                  ## Contact:     Ron Burkey <info@sandroid.org>.
000018:                                                                                                  ## Website:     www.ibiblio.org/apollo/index.html
000019:                                                                                                  ## Mod history: 2017-05-24 MAS  Created from Sunburst 120.
000020:                                                                                                  ##              2017-05-28 HG   Transcribed
000021:                                                                                                  ##              2017-05-30 HG   Add missing variable RUPTSTOR
000022:                                                                                                  ##              2017-06-08 HG   Fix label NEWTIME -> NEWMTIME
000023:                                                                                                  ##                                        ABDCONV -> ABDVCONV
000024:


000026:
000027: ???????                        A                  EQUALS   0
000028: ???????                        L                  EQUALS   1                                     #  L AND Q ARE BOTH CHANNELS AND REGISTERS.
000029: ???????                        Q                  EQUALS   2
000030: ???????                        EBANK              EQUALS   3
000031: ???????                        FBANK              EQUALS   4
000032: ???????                        Z                  EQUALS   5                                     #  ADJACENT TO FBANK AND BBANK FOR DXCH Z
000033: ???????                        BBANK              EQUALS   6                                     #  (DTCB) AND DXCH FBANK (DTCF).
000034:                                                                                                  #  REGISTER 7 IS A ZERO-SOURCE. USED BY ZL.
000035:
000036: ???????                        ARUPT              EQUALS   10                                    #  INTERRUPT STORAGE.
000037: ???????                        LRUPT              EQUALS   11
000038: ???????                        QRUPT              EQUALS   12
000039: ???????                        SAMPTIME           EQUALS   13                                    #  SAMPLED TIME 1 & 2.
000040: ???????                        ZRUPT              EQUALS   15                                    #  (13 AND 14 ARE SPARES.)
000041: ???????                        BANKRUPT           EQUALS   16                                    #  USUALLY HOLDS FBANK OR BBANK.
000042: ???????                        BRUPT              EQUALS   17                                    #  RESUME ADDRESS AS WELL.
000043:
000044: ???????                        CYR                EQUALS   20
000045: ???????                        SR                 EQUALS   21
000046: ???????                        CYL                EQUALS   22
000047: ???????                        EDOP               EQUALS   23                                    #  EDITS INTERPRETIVE OPERATION CODE PAIRS.
000048:
000049: ???????                        TIME2              EQUALS   24
000050: ???????                        TIME1              EQUALS   25
000051: ???????                        TIME3              EQUALS   26
000052: ???????                        TIME4              EQUALS   27
000053: ???????                        TIME5              EQUALS   30
000054: ???????                        TIME6              EQUALS   31
000055: ???????                        CDUX               EQUALS   32
000056: ???????                        CDUY               EQUALS   33
000057: ???????                        CDUZ               EQUALS   34
000058: ???????                        OPTY               EQUALS   35
000059: ???????                        OPTX               EQUALS   36
000060: ???????                        PIPAX              EQUALS   37
000061: ???????                        PIPAY              EQUALS   40
000062: ???????                        PIPAZ              EQUALS   41
000063: ???????                        BMAGX              EQUALS   42
000064: ???????                        RHCP               EQUALS   42
000065: ???????                        BMAGY              EQUALS   43
000066: ???????                        RHCY               EQUALS   43
000067: ???????                        BMAGZ              EQUALS   44
000068: ???????                        RHCR               EQUALS   44
000069: ???????                        INLINK             EQUALS   45
000070: ???????                        RNRAD              EQUALS   46
000071: ???????                        GYROCTR            EQUALS   47
000072: ???????                        GYROCMD            EQUALS   47
000073: ???????                        CDUXCMD            EQUALS   50
000074: ???????                        CDUYCMD            EQUALS   51
000075:
000076:


000078: ???????                        CDUZCMD            EQUALS   52
000079: ???????                        OPTYCMD            EQUALS   53
000080: ???????                        OPTXCMD            EQUALS   54
000081: ???????                        EMSD               EQUALS   55
000082: ???????                        THRUST             EQUALS   55
000083: ???????                        LEMONM             EQUALS   56
000084: ???????                        OUTLINK            EQUALS   57
000085: ???????                        ALTM               EQUALS   60
000086:
000087:                                                                                                  #  VAC-RELATIVE INTERPRETER ASSIGNMENTS:
000088:
000089: ???????                        LVSQUARE           EQUALS   34D                                   #  SQUARE OF VECTOR INPUT TO ABVAL AND UNIT
000090: ???????                        LV                 EQUALS   36D                                   #  LENGTH OF VECTOR INPUT TO UNIT.
000091: ???????                        X1                 EQUALS   38D                                   #  INTERPRETIVE SPECIAL REGISTERS RELATIVE
000092: ???????                        X2                 EQUALS   39D                                   #  TO THE WORK AREA.
000093: ???????                        S1                 EQUALS   40D
000094: ???????                        S2                 EQUALS   41D
000095: ???????                        QPRET              EQUALS   42D
000096:
000097:


000099:                                                                                                  #  GENERAL ERASABLE ASSIGNMENTS.
000100:
000101:    0061                                           SETLOC   61
000102:
000103:                                                                                                  #           THE FOLLOWING SET COMPRISES THE INTERRUPT TEMPORARY STORAGE POOL.
000104:
000105:                                                                                                  #           ANY OF THESE MAY BE USED AS TEMPORARIES DURING INTERRUPT OR WITH INTERRUPT INHIBITED. THE ITEMP SERIES
000106:                                                                                                  #  IS USED DURING CALLS TO THE EXECUTIVE AND WAITLIST - THE RUPTREGS ARE NOT.
000107:
000108:    0061                        ITEMP1             ERASE
000109:    0062     0061               WAITEXIT           EQUALS   ITEMP1
000110:    0062     0061               EXECTEM1           EQUALS   ITEMP1
000111:
000112:    0062                        ITEMP2             ERASE
000113:    0063     0062               WAITBANK           EQUALS   ITEMP2
000114:    0063     0062               EXECTEM2           EQUALS   ITEMP2
000115:
000116:    0063                        ITEMP3             ERASE
000117:    0064     0063               RUPTSTOR           EQUALS   ITEMP3
000118:    0064     0063               WAITADR            EQUALS   ITEMP3
000119:    0064     0063               NEWPRIO            EQUALS   ITEMP3
000120:
000121:    0064                        ITEMP4             ERASE
000122:    0065     0064               LOCCTR             EQUALS   ITEMP4
000123:    0065     0064               WAITTEMP           EQUALS   ITEMP4
000124:
000125:    0065                        ITEMP5             ERASE
000126:    0066     0065               NEWLOC             EQUALS   ITEMP5
000127:
000128:    0066                        ITEMP6             ERASE
000129:                                                                                                  #  NEWLOC+1      EQUALS  ITEMP6          DP ADDRESS.
000130:
000131:    0067                                           SETLOC   67                                    #  NEWJOB MUST BE IN LOCATION 67.
000132:    0067                        NEWJOB             ERASE                                          #         ----
000133:
000134:    0070                        RUPTREG1           ERASE
000135:    0071                        RUPTREG2           ERASE
000136:    0072                        RUPTREG3           ERASE
000137:    0073                        RUPTREG4           ERASE
000138:    0074     0073               KEYTEMP1           EQUALS   RUPTREG4
000139:    0074     0073               DSRUPTEM           EQUALS   RUPTREG4
000140:
000141:


000143:                                                                                                  #           FLAG & SWITCH RESERVATIONS.
000144:
000145:    0074                        STATE              ERASE    +7                                    #  120 SWITCHES
000146:
000147:    0104     0075               FLAGWRD1           EQUALS   STATE      +1
000148:    0104     0076               FLAGWRD2           EQUALS   STATE      +2
000149:    0104     0077               DAPBOOLS           EQUALS   STATE      +3
000150:    0104     0100               FLAGWRD4           EQUALS   STATE      +4
000151:
000152:                                                                                                  #           INTERPRETIVE SWITCH BIT ASSIGNMENTS:
000153:
000154:    0104                        WMATFLAG           EQUALS   0
000155:    0104                        JSWITCH            EQUALS   1
000156:    0104                        MIDFLAG            EQUALS   2
000157:    0104                        MOONFLAG           EQUALS   3
000158:    0104                        NBSMBIT            EQUALS   4
000159:    0104                        COAROFIN           EQUALS   5
000160:    0104                        IMUSE              EQUALS   7
000161:    0104                        RRUSE              EQUALS   8D
000162:    0104                        RRNBSW             EQUALS   9D
000163:    0104                        LOKONSW            EQUALS   10D
000164:    0104                        CONVSW             EQUALS   60D
000165:    0104                        DONESW             EQUALS   61D
000166:    0104                        ITERSW             EQUALS   62D
000167:    0104                        GUESSW             EQUALS   63D
000168:    0104                        PIESW              EQUALS   64D
000169:    0104                        MOONSW             EQUALS   65D
000170:    0104  0000101               ESCPSW             EQUALS   MOONSW                                #  INCICATE ELLIPTICAL ORBIT FLAG (=0)
000171:    0104  0000101               SMANGLSW           EQUALS   MOONSW                                #  VARIABLE SCALING SWITCH (=0)
000172:
000173:                                                                                                  #  NOTE THAT FLAGWRD1 AND FLAGWRD2 CORRESPOND TO INTERPRETIVE SWITCHES 15D THROUGH 44D.  DAPBOOLS AND
000174:                                                                                                  #      FLAGWRD4 CORRESPOND TO INTERPRETIVE SWITCHES 45D THROUGH 74D.
000175:
000176:                                                                                                  #                                          FLAGWORD USAGE  * * * * * * * * * * * * * * * * * * * * * * * * * * * *
000177:
000178:                                                                                                  #                                                   BIT    INTPR. SWITCH   USAGE
000179:                                                                                                  #                                                   ---    -------------   -----
000180:
000181:                                                                                                  #                                          FLAGWRD1  1                 29  AVERAGE G FLAG
000182:                                                                                                  #                                                    2                 28  GUIDANCE REFERENCE RELEASE
000183:                                                                                                  #                                                  3 - 7          27 - 33  NOT USED AT PRESENT
000184:                                                                                                  #                                                    8                 22  GIMBAL LOCK FLAG
000185:                                                                                                  #                                                  9 - 12         21 - 18  NOT USED AT PRESENT
000186:                                                                                                  #                                                   13                 17  EXCESSIVE TUMBLE FLAG
000187:                                                                                                  #                                                   14                 16  TUMBLE MONITOR FLAG
000188:                                                                                                  #                                                   15                 15  NOT USED AT PRESENT
000189:
000190:                                                                                                  #                                          FLAGWRD2  1                 44  RCS COLD SOAK INHIBIT FLAG
000191:                                                                                                  #                                                    2                 43  DPS COLD SOAK INHIBIT FLAG
000192:


000194:                                                                                                  #                                                      3                 42  RCS TESTING INHIBIT FLAG
000195:                                                                                                  #                                                      4                 41  NOT USED AT PRESENT
000196:                                                                                                  #                                                      5                 40  TIMERS ENABLED FLAG
000197:                                                                                                  #                                                      6                 39  V33 TERMINATION OF UPDATE PROGRAM FLAG
000198:                                                                                                  #                                                      7                 38  ORBITAL INTEGRATION INTEGRATING FLAG
000199:                                                                                                  #                                                      8                 37  ASC FEED TEST FLAG
000200:                                                                                                  #                                                      9                 36  ABORT COMMAND MONITOR ENABLED FLAG
000201:                                                                                                  #                                                     10                 35  ABORT STAGE FLAG
000202:                                                                                                  #                                                     11                 34  KALCMANU ATTITUDE COMPLETE FLAG
000203:                                                                                                  #                                                     12                 33  NO FINAL YAW
000204:                                                                                                  #                                                     13                 32  UPDATE PROCESS FLAG
000205:                                                                                                  #                                                     14                 31  GIMBAL LOCK FLAG
000206:                                                                                                  #                                                     15                 30  DRIFT FLAG
000207:
000208:                                                                                                  #                                           DAPBOOLS 1 - 15         45 - 59  DEFINED IN LOG SECTION "DAP INTERFACE
000209:                                                                                                  #                                                                            SUBROUTINES".
000210:
000211:                                                                                                  #                                           FLAGWRD4 1 - 9          74 - 66  NOT USED AT PRESENT
000212:                                                                                                  #                                                     10                 65  OUTSIDE MOONSPHERE (LOCKED AT 0) FLAG
000213:                                                                                                  #                                                     11                 64  LAMBERT QUADRANT FLAG
000214:                                                                                                  #                                                     12                 63  ITERATOR INITIALIZATION FLAG
000215:                                                                                                  #                                                     13                 62  LAMBERT ITERATOR FLAG
000216:                                                                                                  #                                                     14                 61  LAMBERT ROUTINE COMPLETION FLAG
000217:                                                                                                  #                                                     15                 60  LAMBERT ROUTINE CONVERGENCE FLAG
000218:


000220:
000221:                                                                                                  #           THE FOLLOWING ARE EXECUTIVE TEMPORARIES WHICH MAY BE USED BETWEEN CCS NEWJOB INQUIRIES.
000222:
000223:    0104                        INTB15+            ERASE                                          #  REFLECTS 15TH BIT OF INDEXABLE ADDRESSES
000224:    0105     0104               DSEXIT             =        INTB15+                               #  RETURN FOR DSPIN
000225:    0105     0104               EXITEM             =        INTB15+                               #  RETURN FOR SCALE FACTOR ROUTINE SELECT
000226:    0105     0104               BLANKRET           =        INTB15+                               #  RETURN FOR 2BLANK
000227:
000228:    0105                        INTBIT15           ERASE                                          #  SIMILAR TO ABOVE.
000229:    0106     0105               WRDRET             =        INTBIT15                              #  RETURN FOR 5BLANK
000230:    0106     0105               WDRET              =        INTBIT15                              #  RETURN FOR DSPWD
000231:    0106     0105               DECRET             =        INTBIT15                              #  RETURN FOR PUTCOM(DEC LOAD)
000232:    0106     0105               21/22REG           =        INTBIT15                              #  TEMP FOR CHARIN
000233:
000234:                                                                                                  #           THE REGISTERS BETWEEN ADDRWD AND PRIORITY MUST STAY IN THE FOLLOWING ORDER FOR INTERPRETIVE TRACE.
000235:
000236:    0106                        ADDRWD             ERASE                                          #  12 BIT INTERPRETIVE OPERAND SUB_ADDRESS.
000237:
000238:    0107                        POLISH             ERASE                                          #  HOLDS CADR MADE FROM POLISH ADDRESS.
000239:    0110     0107               UPDATRET           =        POLISH                                #  RETURN FOR UPDATNN, UPDATVB
000240:    0110     0107               CHAR               =        POLISH                                #  TEMP FOR CHARIN
000241:    0110     0107               ERCNT              =        POLISH                                #  COUNTER FOR ERROR LIGHT RESET
000242:    0110     0107               DECOUNT            =        POLISH                                #  COUNTER FOR SCALING AND DISPLAY (DEC)
000243:    0110     0107               PWRPTR             =        POLISH                                #  ROOTPSRS PWR TABL POINTER
000244:
000245:    0110                        FIXLOC             ERASE                                          #  WORK AREA ADDRESS.
000246:
000247:    0111                        OVFIND             ERASE                                          #  SET NON-ZERO ON OVERFLOW.
000248:
000249:    0112                        VBUF               ERASE    +5                                    #  TEMPORARY STORAGE USED FOR VECTORS.
000250:    0120     0112               SGNON              =        VBUF                                  #  TEMP FOR +,- ON
000251:    0120     0112               NOUNTEM            =        VBUF                                  #  COUNTER FOR MIXNOUN FETCH
000252:    0120     0112               DISTEM             =        VBUF                                  #  COUNTER FOR OCTAL DISPLAY VERBS
000253:    0120     0112               DECTEM             =        VBUF                                  #  COUNTER FOR FETCH (DEC DISPLAY VERBS)
000254:
000255:    0120     0113               SGNOFF             =        VBUF       +1                         #  TEMP FOR +,- ON
000256:    0120     0113               NVTEMP             =        VBUF       +1                         #  TEMP FOR NVSUB
000257:    0120     0113               SFTEMP1            =        VBUF       +1                         #  STORAGE FOR SF CONST HI PART(=SFTEMP2-1)
000258:
000259:    0120     0114               CODE               =        VBUF       +2                         #  FOR DSPIN
000260:    0120     0114               SFTEMP2            =        VBUF       +2                         #  STORAGE FOR SF CONST LO PART(=SFTEMP1+1)
000261:    0120     0114               DXCRIT             =        VBUF       +2                         #  ROOTPSRS CRITERION FOR ENDING ITERS HI
000262:
000263:    0120     0115               MIXTEMP            =        VBUF       +3                         #  FOR MIXNOUN DATA
000264:                                                                                                  #  ALSO MIXTEMP+1 = VBUF+4, MIXTEMP+2 = VBUF+5.
000265:    0120     0115               SIGNRET            =        VBUF       +3                         #  RETURN FOR +,- ON
000266:    0120     0115               DXCRIT+1           =        VBUF       +3                         #  ROOTPSRS CRITERION FOR ENDING ITERS LO
000267:
000268:    0120     0116               ROOTPS             =        VBUF       +4                         #  ROOTPSRS ROOT HI ORDER
000269:
000270:    0120     0117               ROOTPS+1           =        VBUF       +5                         #  ROOTPSRS ROOT LO ORDER
000271:


000273:    0120                        BUF                ERASE    +2                                    #  TEMPORARY SCALAR STORAGE.
000274:    0123     0120               INDEXLOC           EQUALS   BUF                                   #  CONTAINS ADDRESS OF SPECIFIED INDEX.
000275:    0123     0120               SWWORD             EQUALS   BUF                                   #  ADDRESS OF SWITCH WORD.
000276:
000277:    0123     0121               SWBIT              EQUALS   BUF        +1                         #  SWITCH BIT WITHIN SWITCH WORD.
000278:
000279:    0123     0122               RETROOT            =        BUF        +2                         #  ROOTPSRS RETURN ADDRESS OF USER
000280:
000281:    0123                        BUF2               ERASE    +1
000282:
000283:    0125                        MPTEMP             ERASE                                          #  TEMPORARY USED IN MULTIPLY AND SHIFT
000284:    0126     0125               DMPNTEMP           =        MPTEMP                                #  DMPNSUB TEMPORARY
000285:
000286:    0126                        DOTINC             ERASE                                          #  COMPONENT INCREMENT FOR DOT SUBROUTINE.
000287:    0127     0126               DVSIGN             EQUALS   DOTINC                                #  DETERMINES SIGN OF DDV RESULT.
000288:    0127     0126               ESCAPE             EQUALS   DOTINC                                #  USED IN ARCSIN/ARCCOS.
000289:    0127     0126               ENTRET             =        DOTINC                                #  EXIT FROM ENTER
000290:
000291:    0127                        DOTRET             ERASE                                          #  RETURN FROM DOT SUBROUTINE.
000292:    0130     0127               DVNORMCT           EQUALS   DOTRET                                #  DIVIDEND NORMALIZATION COUNT IN DDV.
000293:    0130     0127               ESCAPE2            EQUALS   DOTRET                                #  ALTERNATE ARCSIN/ARCCOS SWITCH.
000294:    0130     0127               WDCNT              =        DOTRET                                #  CHAR COUNTER FOR DSPWD
000295:    0130     0127               INREL              =        DOTRET                                #  INPUT BUFFER SELECTOR ( X,Y,Z, REG )
000296:
000297:    0130                        MATINC             ERASE                                          #  VECTOR INCREMENT IN MXV AND VXM.
000298:    0131     0130               MAXDVSW            EQUALS   MATINC                                #  +0 IF DP QUOTIENT IS NEAR ONE - ELSE -1.
000299:    0131     0130               POLYCNT            EQUALS   MATINC                                #  POLYNOMIAL LOOP COUNTER
000300:    0131     0130               DSPMMTEM           =        MATINC                                #  DSPCOUNT SAVE FOR DSPMM
000301:    0131     0130               MIXBR              =        MATINC                                #  INDICATOR FOR MIXED OR NORMAL NOUN
000302:    0131     0130               PWRCNT             =        MATINC                                #  ROOTPSRS DER TABL LOOP COUNTER
000303:
000304:    0131                        TEM1               ERASE                                          #  EXEC TEMP
000305:    0132     0131               POLYRET            =        TEM1
000306:    0132     0131               DSREL              =        TEM1                                  #  REL ADDRESS FOR DSPIN
000307:    0132     0131               DERPTR             =        TEM1                                  #  ROOTPSRS DER TABL POINTER
000308:
000309:                                                                                                  #           THE FOLLOWING 10 REGISTERS ARE USED FOR TEMPORARY STORAGE OF THE DERIVATIVE COEFFICIENT TABLE OF
000310:                                                                                                  #  SUBROUTINE ROOTPSRS.  THEY MUST REMAIN WITHOUT INTERFERENCE WITH ITS SUBROUTINES WHICH ARE POWRSERS (POLY),
000311:                                                                                                  #  DMPSUB, DMPNSUB, SHORTMP, DDV/BDDV, ABS, AND USPRCADR.
000312:
000313:    0132                        TEM2               ERASE                                          #  EXEC TEMP
000314:    0133     0132               DSMAG              =        TEM2                                  #  MAGNITUDE STORE FOR DSPIN
000315:    0133     0132               IDADDTEM           =        TEM2                                  #  MIXNOUN INDIRECT ADDRESS STORAGE
000316:    0133     0132               DERCOF-8           =        MPAC       -12                        #  ROOTPSRS DER COF N-4 HI ORDER
000317:
000318:    0133                        TEM3               ERASE                                          #  EXEC TEMP
000319:    0134     0133               COUNT              =        TEM3                                  #  FOR DSPIN
000320:    0134     0133               DERCOF-7           =        MPAC       -11                        #  ROOTPSRS DER COF N-4 LO ORDER
000321:
000322:    0134                        TEM4               ERASE                                          #  EXEC TEMP
000323:


000325:    0135     0134               LSTPTR             =        TEM4                                  #  LIST POINTER FOR GRABUSY
000326:    0135     0134               RELRET             =        TEM4                                  #  RETURN FOR RELDSP
000327:    0135     0134               FREERET            =        TEM4                                  #  RETURN FOR FREEDSP
000328:    0135     0134               DERCOF-6           =        MPAC       -10                        #  ROOTPSRS DER COF N-3 HI ORDER
000329:
000330:    0135                        TEM5               ERASE                                          #  EXEC TEMP
000331:    0136     0135               NOUNADD            =        TEM5                                  #  TEMP STORAGE FOR NOUN ADDRESS
000332:    0136     0135               DERCOF-5           =        MPAC       -7                         #  ROOTPSRS DER COF N-3 LO ORDER
000333:
000334:    0136                        NNADTEM            ERASE                                          #  TEMP FOR NOUN ADDRESS TABLE ENTRY
000335:    0137     0136               DERCOF-4           =        MPAC       -6                         #  ROOTPSRS DER COF N-2 HI ORDER
000336:
000337:    0137                        NNTYPTEM           ERASE                                          #  TEMP FOR NOUN TYPE TABLE ENTRY
000338:    0140     0137               DERCOF-3           =        MPAC       -5                         #  ROOTPSRS DER COF N-2 LO ORDER
000339:
000340:    0140                        IDAD1TEM           ERASE                                          #  TEMP FOR INDIR ADRESS TABLE ENTRY(MIXNN)
000341:                                                                                                  #  MUST = IDAD2TEM-1, = IDAD3TEM-2.
000342:    0141     0140               DERCOF-2           =        MPAC       -4                         #  ROOTPSRS DER COF N-1 HI ORDER
000343:
000344:    0141                        IDAD2TEM           ERASE                                          #  TEMP FOR INDIR ADRESS TABLE ENTRY(MIXNN)
000345:                                                                                                  #  MUST = IDAD1TEM+1, = IDAD3TEM-1.
000346:    0142     0141               DERCOF-1           =        MPAC       -3                         #  ROOTPSRS DER COF N-1 LO ORDER
000347:
000348:    0142                        IDAD3TEM           ERASE                                          #  TEMP FOR INDIR ADRESS TABLE ENTRY(MIXNN)
000349:                                                                                                  #  MUST = IDAD1TEM+2, = IDAD2TEM+1.
000350:    0143     0142               DERCOFN            =        MPAC       -2                         #  ROOTPSRS DER COF N   HI ORDER
000351:
000352:    0143                        RUTMXTEM           ERASE                                          #  TEMP FOR SF ROUT TABLE ENTRY(MIXNN ONLY)
000353:    0144     0143               DERCOF+1           =        MPAC       -1                         #  ROOTPSRS DER COF N   LO ORDER
000354:
000355:                                                                                                  #           STORAGE USED BY THE EXECUTIVE.
000356:
000357:    0144                        MPAC               ERASE    +6                                    #  MULTI-PURPOSE ACCUMULATOR.
000358:    0153                        MODE               ERASE                                          #  +1 FOR TP, +0 FOR DP, OR -1 FOR VECTOR.
000359:    0154                        LOC                ERASE                                          #  LOCATION ASSOCIATED WITH JOB.
000360:    0155                        BANKSET            ERASE                                          #  USUALLY CONTAINS BBANK SETTING.
000361:    0156                        PUSHLOC            ERASE                                          #  WORD OF PACKED INTERPRETIVE PARAMETERS.
000362:    0157                        PRIORITY           ERASE                                          #  PRIORITY OF PRESENT JOB AND WORK AREA.
000363:
000364:    0160                                           ERASE    +71D                                  #  SEVEN SETS OF 12 REGISTERS EACH.
000365:


000367:                                                                                                  #  THE FOLLOWING REGISTERS ARE RESERVED FOR PINBALL
000368:
000369:
000370:
000371:                                                                                                  #  RESERVED FOR PINBALL EXECUTIVE ACTION
000372:
000373:    0270                        DSPCOUNT           ERASE                                          #  DISPLAY POSITION INDICATOR
000374:    0271                        DECBRNCH           ERASE                                          #  +DEC, -DEC, OCT INDICATOR
000375:    0272                        VERBREG            ERASE                                          #  VERB CODE
000376:    0273                        NOUNREG            ERASE                                          #  NOUN CODE
000377:    0274                        XREG               ERASE                                          #  R1 INPUT BUFFER
000378:    0275                        YREG               ERASE                                          #  R2 INPUT BUFFER
000379:    0276                        ZREG               ERASE                                          #  R3 INPUT BUFFER
000380:    0277                        XREGLP             ERASE                                          #  LO PART OF XREG (FOR DEC CONV ONLY)
000381:    0300                        YREGLP             ERASE                                          #  LO PART OF YREG (FOR DEC CONV ONLY)
000382:    0301                        ZREGLP             ERASE                                          #  LO PART OF ZREG (FOR DEC CONV ONLY)
000383:    0302                        MODREG             ERASE                                          #  MODE CODE
000384:    0303                        DSPLOCK            ERASE                                          #  KEYBOARD/SUBROUTINE CALL INTERLOCK
000385:    0304                        REQRET             ERASE                                          #  RETURN REGISTER FOR LOAD
000386:    0305                        LOADSTAT           ERASE                                          #  STATUS INDICATOR FOR LOADTST
000387:    0306                        CLPASS             ERASE                                          #  PASS INDICATOR CLEAR
000388:    0307                        NOUT               ERASE                                          #  ACTIVITY COUNTER FOR DSPTAB
000389:    0310                        NOUNCADR           ERASE                                          #  MACHINE CADR FOR NOUN
000390:    0311                        MONSAVE            ERASE                                          #  N/V CODE FOR MONITOR. (= MONSAVE1-1)
000391:    0312                        MONSAVE1           ERASE                                          #  NOUNCADR FOR MONITOR(MATBS) =MONSAVE +1
000392:    0313                        DSPTAB             ERASE    +11D                                  #  0-10D, DISPLAY PANEL BUFF. 11D, C/S LTS.
000393:    0327                        CADRSTOR           ERASE                                          #  ENDIDLE STORAGE
000394:    0330                        GRABLOCK           ERASE                                          #  INTERNAL INTERLOCK FOR DISPLAY SYSTEM
000395:    0331                        NVQTEM             ERASE                                          #  NVSUB STORAGE FOR CALLING ADDRESS
000396:                                                                                                  #  MUST = NVBNKTEM-1
000397:    0332                        NVBNKTEM           ERASE                                          #  NVSUB STORAGE FOR CALLING BANK
000398:                                                                                                  #  MUST = NVQTEM+1
000399:    0333                        DSPLIST            ERASE    +2                                    #  WAITING LIST FOR DSP SYST INTERNAL USE
000400:    0336                        EXTVBACT           ERASE                                          #  EXTENDED VERB ACTIVITY INTERLOCK
000401:    0337                        DSPTEM1            ERASE    +2                                    #  BUFFER STORAGE AREA 1 (MOSTLY FOR TIME)
000402:    0342                        DSPTEM2            ERASE    +2                                    #  BUFFER STORAGE AREA 2 (MOSTLY FOR DEG)
000403:                                                                                                  #  END OF ERASABLES RESERVED FOR PINBALL EXECUTIVE ACTION
000404:
000405:
000406:
000407:                                                                                                  #  RESERVED FOR PINBALL INTERRUPT ACTION
000408:
000409:    0345                        DSPCNT             ERASE                                          #  COUNTER FOR DSPOUT
000410:                                                                                                  #  RECEPTION OF A BAD MESSAGE IN UPLINK)


000412:                                                                                                  #  END OF ERASABLES RESERVED FOR PINBALL INTERRUPT ACTION
000413:


000415:                                                                                                  #  ASSIGNMENTS FOR T4RUPT PROGRAM
000416:
000417:    0346                        T4LOC              ERASE
000418:    0347                        DSRUPTSW           ERASE
000419:    0350                        DIDFLG             ERASE
000420:    0351                        ALT                ERASE    +1
000421:    0353                        ALTRATE            ERASE
000422:    0354                        FINALT             ERASE    +1                                    #  (MAY NOT BE REQUIRED FOR FLIGHTS).
000423:    0356                        LGYRO              ERASE
000424:    0357                        FORVEL             ERASE
000425:    0360                        LATVEL             ERASE
000426:    0361                        LASTYCMD           ERASE
000427:    0362                        LASTXCMD           ERASE
000428:
000429:    0363                        ALTSAVE            ERASE    +1
000430:                                                                                                  #  END OF T4RUPT ASSIGNMENTS
000431:
000432:
000433:
000434:    0365                        IMODES30           ERASE
000435:    0366                        IMODES33           ERASE
000436:    0367                        MODECADR           ERASE    +3
000437:    0373     0367               IMUCADR            EQUALS   MODECADR
000438:    0373     0370               AOTCADR            EQUALS   MODECADR   +1
000439:    0373     0370               OPTCADR            EQUALS   AOTCADR
000440:    0373     0371               RADCADR            EQUALS   MODECADR   +2
000441:    0373     0372               ATTCADR            EQUALS   MODECADR   +3
000442:
000443:    0373                        MARKSTAT           ERASE
000444:    0374                        XYMARK             ERASE
000445:    0375                        FLUSHREG           ERASE    +1                                    #  ***TEMPORARY FOR SPECIAL FAKESTRT ENEMA
000446:    0400                                           SETLOC   400
000447:


000449:                                                                                                  #  TEMPORARY PHONY ASSIGNMENTS TO KEEP PINBALL FROM HAVING BAD ASSEMBLIES
000450:
000451:    0400                        THETAD             ERASE    +2
000452:    0403                        DELVX              ERASE    +5
000453:                                                                                                  #  END OF PHONY ASSIGNMENTS
000454:
000455:
000456:                                                                                                  #           DOWNLINK LIST ADDRESS.
000457:    0411                        DNLSTADR           ERASE
000458:
000459:                                                                                                  #  AGS DUMMY ID WORD
000460:    0412                        AGSWORD            ERASE
000461:                                                                                                  #  RADAR ERASABLE
000462:
000463:    0413                        RADMODES           ERASE
000464:    0414                        SAMPLIM            ERASE
000465:    0415                        SAMPLSUM           ERASE    +1
000466:    0417     0415               SAMPSUM            EQUALS   SAMPLSUM
000467:    0417                        OPTYHOLD           ERASE    +1
000468:    0421                        TIMEHOLD           ERASE    +1
000469:    0423     0415               RRTARGET           EQUALS   SAMPLSUM                              #  HALF UNIT VECTOR IN SM OR NB AXES.
000470:    0423                        TANG               ERASE    +1                                    #  DESIRED TRUNNION AND SHAFT ANGLES.
000471:    0425     0423               MODEA              EQUALS   TANG
000472:    0425                        MODEB              ERASE    +1                                    #  DODES CLOBBERS TANG +2.
000473:    0427     0425               NSAMP              EQUALS   MODEB
000474:    0427                        DESRET             ERASE
000475:    0430     0427               OLDATAGD           EQUALS   DESRET                                #  USED IN DATA READING ROUTINES.
000476:    0430                        DESCOUNT           ERASE
000477:                                                                                                  #  END OF RADAR ERASABLE ASSIGNMENTS
000478:
000479:    0431                        VAC1USE            ERASE
000480:    0432                        VAC1               ERASE    +42D
000481:    0505                        VAC2USE            ERASE
000482:    0506                        VAC2               ERASE    +42D
000483:    0561                        VAC3USE            ERASE
000484:    0562                        VAC3               ERASE    +42D
000485:    0635                        VAC4USE            ERASE
000486:    0636                        VAC4               ERASE    +42D
000487:    0711                        VAC5USE            ERASE
000488:    0712                        VAC5               ERASE    +42D
000489:
000490:    0765                        PHASENUM           ERASE
000491:
000492:                                                                                                  #  KALCMANU-DAP INTERFACE:
000493:
000494:    0766                        CDUXD              ERASE    +2                                    #  CDU DESIRED REGISTERS:
000495:    0771     0767               CDUYD              EQUALS   CDUXD      +1                         #  SCALED AT PI RADIANS (180 DEGREES)
000496:    0771     0770               CDUZD              EQUALS   CDUXD      +2                         #  (STORED IN 2' COMPLEMENT)
000497:


000499:
000500:    0771                        DELCDUX            ERASE    +2                                    #  NEGATIVE OF DESIRED 100MS CDU INCREMENT:
000501:    0774     0772               DELCDUY            EQUALS   DELCDUX    +1                         #  SCALED AT PI RADIANS (180 DEGREES)
000502:    0774     0773               DELCDUZ            EQUALS   DELCDUX    +2                         #  (STORED IN 2' COMPLEMENT)
000503:
000504:    0774                        OMEGAPD            ERASE    +2                                    #  ATTITUDE MANEUVER DESIRED RATES
000505:    0777     0775               OMEGAQD            EQUALS   OMEGAPD    +1                         #  (NOT EXPLICITLY REFERENCED IN GTS CNTRL)
000506:    0777     0776               OMEGARD            EQUALS   OMEGAPD    +2                         #  SCALED AT PI/4 RADIANS/SECOND
000507:
000508:    1000                                           SETLOC   1000
000509:    1000                        T5ADR              ERASE    +1                                    #  GENADR OF NEXT LM DAP T5RUPT. * 2CADR *
000510:                                                                                                  #  BBCON  OF NXT LM DAP T5RUPT. * 2CADR *
000511:
000512:    1002                        T6NEXT             ERASE    +1                                    #  LIST OF TIME6 DT-S FOR JET LIST PROGRAM
000513:
000514:    1004                        T6NEXTJT           ERASE    +2                                    #  LIST OF JET POLICIES FOR JTLST PROGRAM
000515:
000516:    1007                        DELAYCTR           ERASE                                          #  COUNTER FOR MINIMUM IMPULSE USE OF RHC
000517:


000519:                                                                                                  #  ERASABLE ASSIGNMENTS FOR AVERAGE G INTEGRATOR:
000520:
000521:    1010                        RN                 ERASE    +5
000522:    1016                        VN                 ERASE    +5
000523:    1024                        GDT/2              ERASE    +5
000524:    1032                        UNITR              ERASE    +5
000525:    1040                        UNITW              ERASE    +5
000526:    1046                        RMAG               ERASE    +1
000527:
000528:    1050     0403               DELV               EQUALS   DELVX
000529:    1050                        RN1                ERASE    +5
000530:    1056                        VN1                ERASE    +5
000531:    1064                        GDT1/2             ERASE    +5
000532:    1072                        AVGEXIT            ERASE    +1
000533:    1074                        AVGOUTF            ERASE    +1
000534:    1076     1074               DVMNEXIT           =        AVGOUTF
000535:                                                                                                  #  WAITLIST REPEAT FLAG:
000536:
000537:    1076                        RUPTAGN            ERASE
000538:    1077     1076               KEYTEMP2           =        RUPTAGN                               #  TEMP FOR KEYRUPT, UPRUPT
000539:
000540:                                                                                                  #  PHASE TABLE AND RESTART COUNTER.
000541:


000543:                                                                                                  #  THE FOLLOWING ARE TO LOCATED IN UNSWITCHED ERRASSIBLE
000544:
000545:                                                                                                  #  TBASE(I) ARE USED IN WAITLIST RESTARTS
000546:                                                                                                  #  PHSPRDT(I) ARE USED TO STORE EITHER PRIORITY OR DELTA TIME FOR VARIABLE RESTARTS
000547:                                                                                                  #  PHASE(I) AND -PHASE(I) ARE USED TO STORE THE PHASE INFORMATION AND PHASE INFORMATION COMPLEMENTED FOR EACH OF TH
000548:                                                                                                  #  GROUPS
000549:
000550:    1077                        -PHASE1            ERASE
000551:    1100                        PHASE1             ERASE
000552:    1101                        -PHASE2            ERASE
000553:    1102                        PHASE2             ERASE
000554:    1103                        -PHASE3            ERASE
000555:    1104                        PHASE3             ERASE
000556:    1105                        -PHASE4            ERASE
000557:    1106                        PHASE4             ERASE
000558:    1107                        -PHASE5            ERASE
000559:    1110                        PHASE5             ERASE
000560:    1111                        -PHASE6            ERASE
000561:    1112                        PHASE6             ERASE
000562:
000563:    1113                        TBASE1             ERASE
000564:    1114                        PHSPRDT1           ERASE
000565:    1115                        TBASE2             ERASE
000566:    1116                        PHSPRDT2           ERASE
000567:    1117                        TBASE3             ERASE
000568:    1120                        PHSPRDT3           ERASE
000569:    1121                        TBASE4             ERASE
000570:    1122                        PHSPRDT4           ERASE
000571:    1123                        TBASE5             ERASE
000572:    1124                        PHSPRDT5           ERASE
000573:    1125                        TBASE6             ERASE
000574:    1126                        PHSPRDT6           ERASE
000575:
000576:                                                                                                  #  ERASABLE FOR SINGLE PRECISION SUBROUTINES.
000577:
000578:    1127                        HALFY              ERASE
000579:    1130                        ROOTRET            ERASE
000580:    1131                        SQRARG             ERASE
000581:
000582:    1132     1127               TEMK               EQUALS   HALFY
000583:    1132     1130               SQ                 EQUALS   ROOTRET
000584:
000585:                                                                                                  #           ERASABLE ASSIGNMETNS FOR LMP ROUTINES
000586:
000587:    1132                        LMPCMD             ERASE    +7                                    #  CIRCULAR BUFFER OF LAST 8 COMMANDS.
000588:    1142                        LMPIN              ERASE                                          #  POINTS TO NEXT AVAILABLE INPUT SLOT.
000589:    1143                        LMPOUT             ERASE                                          #  POINTS TO NEXT OUTPUT LOCATION IN BUFFER
000590:    1144                        LMPOUTT            ERASE                                          #  INTERRIM STORAGE FOR THE ABOVE.
000591:    1145                        LMPRET             ERASE                                          #  2CADR RETURN ADDRESS FOR SUBROUTINES.
000592:    1146                        LMPBBANK           ERASE
000593:    1147                        SAVDT              ERASE
000594:


000596:    1150                        LONGCADR           ERASE    +1                                    #  UNSWITCHED ERASABLE FOR LONGCALC
000597:    1152                        LONGTIME           ERASE    +1
000598:
000599:    1154                        CMEMORY            ERASE    +10D
000600:
000601:    1167     1154               TEMX               EQUALS   CMEMORY
000602:    1167     1155               TEMY               EQUALS   CMEMORY    +1D
000603:    1167     1156               TEMZ               EQUALS   CMEMORY    +2D
000604:    1167     1157               TEMXY              EQUALS   CMEMORY    +3D
000605:    1167     1160               PIPAGE             EQUALS   CMEMORY    +4D
000606:
000607:
000608:    1167     1154               TEMTPREL           EQUALS   TEMX                                  #  DP TEMP FOR GYROCOMP TERMINATE TIME. MP2
000609:
000610:    1167     1163               1/PIPADT           EQUALS   CMEMORY    +7D
000611:    1167     1163               OLDBT1             EQUALS   1/PIPADT
000612:                                                                                                  #  SERVICER RESTARTS
000613:
000614:    1167     1161               STORASE            EQUALS   CMEMORY    +5D
000615:    1167     1162               RTSPLOSH           EQUALS   CMEMORY    +6D
000616:                                                                                                  #    STORAGE FOR FOR MISSION TIMER/PHASE REGISTER PAIRS.
000617:
000618:    1167                        MTIMER4            ERASE
000619:    1170                        MTIMER3            ERASE
000620:    1171                        MTIMER2            ERASE
000621:    1172                        MTIMER1            ERASE
000622:    1173                        MPHASE4            ERASE
000623:    1174                        MPHASE3            ERASE
000624:    1175                        MPHASE2            ERASE
000625:    1176                        MPHASE1            ERASE
000626:    1177                        MTIMER4T           ERASE    +3                                    #  RESTART STORAGE AREAS FOR THE ABOVE.
000627:    1203                        MPHASE4T           ERASE    +3
000628:    1207                        MDUETEMP           ERASE
000629:    1210                        NEWMTIME           ERASE                                          #  T1 AT MAINTENANCE TASK AFTER NEXT.
000630:    1211                        NEWTIMET           ERASE                                          #  RESTART STORAGE FOR THE ABOVE.
000631:    1212                        MINH               ERASE
000632:    1213                        STATECTR           ERASE                                          #  TIMER FOR INTERNAL STATE VECTOR UPDATES.
000633:
000634:    1214                        UPPHASE            ERASE                                          #  NEW PHASE AS SENT UP THE UPLINK.
000635:    1215                        UPDT               ERASE                                          #  NEW DT AS SENT UP THE UPLINK.
000636:    1216                        UPINDEX            ERASE                                          #  INDEX OF TIMER MODIFIED BY UPLINK.
000637:    1217                        UPGET              ERASE    +1                                    #  GET FOR UPLINK REQUEST.
000638:
000639:    1221                        MRETURN            ERASE                                          #  RETURN REGISTER.
000640:
000641:                                                                                                  #  PMEMORY ASSIGNMENTS
000642:
000643:    1222                        PMEMORY            ERASE    +89D
000644:    1354     1222               REFRRECT           EQUALS   PMEMORY    +00D                       #  STATE VECTORS FOR ORBITAL INTEGRATION
000645:


000647:    1354     1230               REFVRECT           EQUALS   PMEMORY    +06D
000648:    1354     1236               DELTAV             EQUALS   PMEMORY    +12D                       #  STATE DEVIATIONS
000649:
000650:    1354     1244               NUV                EQUALS   PMEMORY    +18D
000651:    1354     1252               REFRCV             EQUALS   PMEMORY    +24D
000652:    1354     1260               REFVCV             EQUALS   PMEMORY    +30D
000653:    1354     1266               REFTC              =        REFTCV
000654:    1354     1266               REFTCV             EQUALS   PMEMORY    +36D
000655:    1354     1270               TE                 EQUALS   PMEMORY    +38D                       #  TET,TIME CORRESPONDING TO LEM STATE
000656:    1354     1272               REFXKEP            EQUALS   PMEMORY    +40D                       #  ROOT TO KEPLER EQUATIONS
000657:    1354     1274               REFSMMAT           EQUALS   PMEMORY    +42D                       #  TRANSFORMATION MATRIX BETWEEN SM AND REF
000658:    1354     1316               PIPRETRN           EQUALS   PMEMORY    +60D
000659:    1354     1320               PIPTIME            EQUALS   PMEMORY    +62D
000660:    1354     1322               DVSELECT           EQUALS   PMEMORY    +64D
000661:    1354     1332               MASS               EQUALS   PMEMORY    +72D
000662:    1354     1342               CDUTEMP            EQUALS   PMEMORY    +80D                       #  VECTOR USED IN FINDCDUD
000663:
000664:    1354     1334               /ACF/              EQUALS   PMEMORY    +74D
000665:    1354     1336               /AF/               EQUALS   PMEMORY    +76D
000666:    1354     1335               PCNTF              EQUALS   PMEMORY    +75D
000667:    1354     1340               STATIME            EQUALS   PMEMORY    +78D                       #  DP DOWNLINK TIME-DONT VIOLATE THESE REGS
000668:    1354     1342               ALMCADR            EQUALS   PMEMORY    +80D                       #  DP
000669:                                                                                                  #  ASSIGNMENTS RESERVED EXCLUSIVELY FOR SELF-CHECK
000670:    1354                        SELFERAS           ERASE    1355       -          1377
000671:
000672:    1354                        ERESTORE           =        1355
000673:    1354                        SELFRET            =        1356
000674:    1354                        SMODE              =        1357
000675:    1354                        REDOCTR            =        1360                                  #  KEEPS TRACK OF RESTARTS
000676:    1354                        SFAIL              =        1361                                  #  SFAIL,ERCOUNT,FAILREG(S) USED BY NOUN 31
000677:    1354                        ERCOUNT            =        1362                                  #                         FOR ALARMS.
000678:    1354                        FAILREG            =        1363                                  #  FAILREG,+1,+2 USED BY NOUN 50 FOR ALARMS
000679:    1354                        SCOUNT             =        1366
000680:    1354                        SKEEP1             =        1371
000681:    1354                        SKEEP2             =        1372
000682:    1354                        SKEEP3             =        1373
000683:    1354                        SKEEP4             =        1374
000684:    1354                        SKEEP5             =        1375
000685:    1354                        SKEEP6             =        1376
000686:    1354                        SKEEP7             =        1377
000687:
000688:                                                                                                  #  WAITLIST TASK LISTS
000689:
000690: E3,1400                                           SETLOC   1400
000691:
000692: E3,1400                        LST1               ERASE    +7                                    #  DELTA T'S.
000693: E3,1410                        LST2               ERASE    +17D                                  #  2CADR TASK ADDRESSES.
000694:
000695: E3,1432                        LONGBASE           ERASE    +1                                    #  ERASABLE FOR LONGCALL
000696: E3,1434                        LONGEXIT           ERASE    +1
000697:


000699:                                                                                                  #           IMU COMPENSATION PARAMETERS:
000700:
000701: E3,1436                        PBIASX             ERASE                                          #  PIPA BIAS AND PIPA SCALE FACTOR TERMS
000702: E3,1437  E3,1436               PIPABIAS           =        PBIASX                                #      INTERMIXED.
000703: E3,1437                        PIPASCFX           ERASE
000704: E3,1440  E3,1437               PIPASCF            =        PIPASCFX
000705: E3,1440                        PBIASY             ERASE
000706: E3,1441                        PIPASCFY           ERASE
000707:
000708: E3,1442                        PBIASZ             ERASE
000709: E3,1443                        PIPASCFZ           ERASE
000710:
000711: E3,1444                        NBDX               ERASE                                          #  GYRO BIAS DRIFTS
000712: E3,1445  E3,1444               GBIASX             =        NBDX
000713: E3,1445                        NBDY               ERASE
000714: E3,1446                        NBDZ               ERASE
000715:
000716: E3,1447                        ADIAX              ERASE                                          #  ACCELERATION SENSITIVE DRIFT ALONG THE
000717: E3,1450                        ADIAY              ERASE                                          #      INPUT AXIS
000718: E3,1451                        ADIAZ              ERASE
000719:
000720: E3,1452                        ADSRAX             ERASE                                          #  ACCELERATION SENSITIVE DRIFT ALONG THE
000721: E3,1453                        ADSRAY             ERASE                                          #      SPIN REFERENCE AXIS
000722: E3,1454                        ADSRAZ             ERASE
000723:
000724: E3,1455                        GCOMP              ERASE    +5                                    #  CONTAINS COMPENSATING TORQUES
000725:
000726: E3,1463                        GCOMPSW            ERASE
000727: E3,1464  E3,1455               COMMAND            EQUALS   GCOMP
000728: E3,1464  E3,1460               CDUIND             EQUALS   GCOMP      +3
000729:
000730:                                                                                                  #           STORAGE FOR RR TASKS.
000731:
000732: E3,1464                        RRRET              ERASE
000733: E3,1465                        RDES               ERASE
000734: E3,1466                        RRINDEX            ERASE
000735:
000736:                                                                                                  #  AOT CALIBRATIONS IN AZIMUTH AND ELEVATION AT DETENTS
000737: E3,1467                        AOTAZ              ERASE    +2
000738: E3,1472                        AOTEL              ERASE    +2
000739:                                                                                                  #           ASSIGNMENTS FOR PRESENTLY UNUSED NOUNS.
000740: E3,1475                        AZANG              EQUALS                                         #  DELETE WHEN OPTICAL TRACKER NOUNS GONE.
000741: E3,1475                        ELANG              EQUALS
000742: E3,1475                        DESLOTSY           EQUALS
000743: E3,1475                        DESLOTSX           EQUALS
000744:
000745: E3,1475                        ROLL               ERASE    +2
000746: E3,1500                        LANDMARK           ERASE    +5
000747:
000748:                                                                                                  #  THE FOLLOWING REGS ARE USED BY THE STANDBY VERBS
000749:


000751:
000752: E3,1506                        TIMESAV            ERASE    +1
000753: E3,1510                        SCALSAV            ERASE    +1
000754: E3,1512                        TIMAR              ERASE    +1
000755: E3,1514                        TIMEDIFF           ERASE    +1
000756:
000757:                                                                                                  #  THE FOLLOWING MAY BE PLACED IN SWITCHED ERRASSIBLE
000758:
000759:                                                                                                  #  PHSNAME(I) AND PHSBB(I) STORE THE 2CADR FOR VARIABLE RESTARTS FOR EACH OF THE GROUPS
000760: E3,1516                        PHSNAME1           ERASE
000761: E3,1517                        PHSBB1             ERASE
000762: E3,1520                        PHSNAME2           ERASE
000763: E3,1521                        PHSBB2             ERASE
000764: E3,1522                        PHSNAME3           ERASE
000765: E3,1523                        PHSBB3             ERASE
000766:
000767: E3,1524                        PHSNAME4           ERASE
000768: E3,1525                        PHSBB4             ERASE
000769: E3,1526                        PHSNAME5           ERASE
000770: E3,1527                        PHSBB5             ERASE
000771: E3,1530                        PHSNAME6           ERASE
000772: E3,1531                        PHSBB6             ERASE
000773:
000774: E3,1532                        BCDU               ERASE    +2
000775: E3,1535                        MIS                ERASE    +17D
000776: E3,1557                        MFS                ERASE    +17D
000777: E3,1601                        TMIS               ERASE    +17D
000778: E3,1623  E3,1601               TMFI               EQUALS   TMIS
000779: E3,1623                        COF                ERASE    +5
000780: E3,1631                        CPHI               ERASE
000781: E3,1632                        CTHETA             ERASE
000782: E3,1633                        CPSI               ERASE
000783: E3,1634  E3,1557               MFI                EQUALS   MFS
000784: E3,1634                        COFSKEW            ERASE    +5
000785: E3,1642                        AM                 ERASE    +1
000786: E3,1644  E3,1601               MFISYM             EQUALS   TMIS
000787: E3,1644                        CAM                ERASE    +1
000788: E3,1646  E3,1607               C2SQP              EQUALS   K2
000789: E3,1646  E3,1611               C2SQM              EQUALS   K2         +2
000790:
000791: E3,1646  E3,1613               C2PP               EQUALS   K2         +4
000792: E3,1646  E3,1615               C2MP               EQUALS   K3
000793: E3,1646  E3,1617               C1PP               EQUALS   K3         +2
000794: E3,1646  E3,1621               C1MP               EQUALS   K3         +4
000795: E3,1646  E3,1601               P21                EQUALS   K1
000796: E3,1646  E3,1603               D21                EQUALS   K1         +2
000797: E3,1646  E3,1605               G21                EQUALS   K1         +4
000798: E3,1646                        RAD                ERASE    +1
000799: E3,1650                        RSQ                ERASE    +1
000800: E3,1652  E3,1557               E1                 EQUALS   MFS
000801: E3,1652  E3,1565               E2                 EQUALS   MFS        +6
000802: E3,1652  E3,1634               IG                 EQUALS   COFSKEW
000803: E3,1652  E3,1615               OGF                EQUALS   TMIS       +12D
000804:


000806: E3,1652  E3,1601               K1                 EQUALS   TMIS
000807: E3,1652  E3,1607               K2                 EQUALS   TMIS       +6
000808: E3,1652  E3,1615               K3                 EQUALS   TMIS       +12D
000809: E3,1652  E3,1557               KEL                EQUALS   MFS
000810: E3,1652                        RATEINDX           ERASE
000811: E3,1653                        SPNDX              ERASE
000812: E3,1654                        MYNDX              ERASE
000813: E3,1655  E3,1634               BRATE              EQUALS   COFSKEW
000814: E3,1655  E3,1644               TM                 EQUALS   CAM
000815: E3,1655  E3,1601               NCDU               EQUALS   TMIS
000816: E3,1655  E3,1604               NEXTIME            EQUALS   TMIS       +3
000817: E3,1655     0771               DELDCDU            EQUALS   DELCDUX
000818: E3,1655     0772               DELDCDU1           EQUALS   DELCDUY
000819: E3,1655     0773               DELDCDU2           EQUALS   DELCDUZ
000820: E3,1655  E3,1605               TTEMP              EQUALS   TMIS       +4
000821: E3,1655                        POINTVSM           ERASE    +5
000822: E3,1663                        SCAXIS             ERASE    +5
000823: E3,1671                        RTN                ERASE
000824: E3,1672                        TAG5               ERASE
000825: E3,1673                        TF                 ERASE    +1
000826:
000827: E3,1675                        COGAVAIL           ERASE    +1
000828: E3,1677                        SPLOC              ERASE    +2
000829: E3,1702                        UNR1               ERASE    +5
000830: E3,1710                        R0VEC              ERASE    +5
000831: E3,1716                        V0VEC              ERASE    +5
000832: E3,1724                        UNNORM             ERASE    +5
000833: E3,1732                        INDEP              ERASE    +1
000834: E3,1734                        TWEEKIT            ERASE    +1
000835: E3,1736                        DEPVAR             ERASE    +1
000836: E3,1740                        PREVDEP            ERASE    +1
000837: E3,1742                        DELDEP             ERASE    +1
000838: E3,1744                        DELINDEP           ERASE    +1
000839: E3,1746                        MININDEP           EQUALS   22D
000840: E3,1746                        MAXINDEP           EQUALS   26D
000841:                                                                                                  #  RESTRTCS-RESTRTCS +77D IS USED FOR RESTART PROTECTION DURING PRELAUNCH
000842:
000843: E3,1746                        RESTRTCS           =        1600
000844:
000845:                                                                                                  #  ERASABLE FOR MISSION PHASE TWO
000846: E3,1746                        TGRR               ERASE    +1                                    #   TIME OF GUIDANCE REFERENCE RELEASE
000847: E3,1750                        TLIFTOFF           ERASE    +1                                    #   TIME OF LIFTOFF
000848: E3,1752                        TPRELTER           ERASE    +1                                    #   TIME OF GYROCOMPASSING TERMINATION
000849: E3,1754                        SAVEDT             ERASE    +1                                    #   TEMPORARY FOR MP 2
000850:
000851: E3,1756                        DT-LIFT            ERASE    +1                                    #   DT FROM GRR TO LIFTOFF
000852: E3,1760                        DT-DFITM           ERASE                                          #   DT FROM GRR TO DFI T/M CALIBRATION
000853: E3,1761  E3,1760               ABORTNDX           EQUALS   DT-DFITM
000854: E3,1761                        DT-LETJT           ERASE    +1                                    #   DT FROM LIFTOFF TO POST-LET JETTISON
000855: E3,1763                        AZGR               ERASE    +1                                    #   PAD 37B VERTICAL TO REF X-Z PLANE.
000856: E3,1765                        TILT               ERASE    +1                                    #   Y ABOUT Z IN REVS.
000857: E3,1767                        ZSMAZ              ERASE    +1                                    #   Z FROM NORTH IN REVS.
000858:


000860: E3,1771                        TEPHEM             ERASE    +2                                    #  TP CS FROM 00:00:00 JULY 1 TO 00:00:00
000861:                                                                                                  #  OF LAUNCH DAY
000862: E3,1774                        MP6TO7             ERASE                                          #  ERASABLE FOR MP6
000863: E3,1775                        MP8TO9             ERASE                                          #  ERASABLE FOR MISSION PHASE 8
000864:


000866:                                                                                                  #  ERASABLE ASSIGNMENTS FOR EBANK 4
000867:
000868:
000869:
000870: E4,1400                                           SETLOC   2000
000871:
000872: E4,1400                        AMEMORY            ERASE    +150D
000873:                                                                                                  #           THE FOLLOWING A MEMORY LOCATIONS ARE USED BY MID-COURSE NAVIGATION
000874:
000875:                                                                                                  #  CAUTION: ORBITAL INTEGRATION REGISTERS RAVEGON, VAVEGON AND SECOND DPS GUIDANCE REGISTERS TPIP, TTF/4,
000876:                                                                                                  #  TTF/4TMP, TULLG ARE ALL IN USE SIMULTANEOUSLY AND MUST NOT CONFLICT.
000877:
000878: E4,1627  E4,1400               RRECT              EQUALS   AMEMORY    +000D
000879: E4,1627  E4,1400               RIGNTION           EQUALS   AMEMORY    +000D
000880: E4,1627  E4,1406               VRECT              EQUALS   AMEMORY    +006D
000881: E4,1627  E4,1406               VIGNTION           EQUALS   AMEMORY    +006D
000882: E4,1627  E4,1414               TDELTAV            EQUALS   AMEMORY    +012D
000883: E4,1627  E4,1414               NEWDLTAV           EQUALS   AMEMORY    +012D
000884: E4,1627  E4,1422               TNUV               EQUALS   AMEMORY    +018D
000885: E4,1627  E4,1422               NEWNUV             EQUALS   AMEMORY    +018D
000886: E4,1627  E4,1430               RCV                EQUALS   AMEMORY    +024D
000887: E4,1627  E4,1430               FOUNDR             EQUALS   AMEMORY    +024D
000888: E4,1627  E4,1436               VCV                EQUALS   AMEMORY    +030D
000889: E4,1627  E4,1436               FOUNDV             EQUALS   AMEMORY    +030D
000890: E4,1627  E4,1444               TC                 EQUALS   AMEMORY    +036D
000891: E4,1627  E4,1446               TET                EQUALS   AMEMORY    +038D
000892: E4,1627  E4,1450               XKEP               EQUALS   AMEMORY    +040D
000893: E4,1627  E4,1452               ALPHAV             EQUALS   AMEMORY    +042D
000894: E4,1627  E4,1452               DELR               EQUALS   AMEMORY    +042D
000895: E4,1627  E4,1460               BETAV              EQUALS   AMEMORY    +048D
000896: E4,1627  E4,1460               DELVEL             EQUALS   AMEMORY    +048D
000897: E4,1627  E4,1466               PHIV               EQUALS   AMEMORY    +054D
000898:
000899: E4,1627  E4,1466               BVECTOR            EQUALS   AMEMORY    +054D
000900: E4,1627  E4,1474               PSIV               EQUALS   AMEMORY    +060D
000901: E4,1627  E4,1502               FV                 EQUALS   AMEMORY    +066D
000902:
000903: E4,1627  E4,1510               VECTAB             EQUALS   AMEMORY    +072D
000904:
000905: E4,1627  E4,1510               TAVEGON            EQUALS   AMEMORY    +072D
000906: E4,1627  E4,1512               TRESUME            EQUALS   AMEMORY    +074D
000907: E4,1627  E4,1514               RAVEGON            EQUALS   AMEMORY    +076D                      #  SEE CAUTION ABOVE
000908: E4,1627  E4,1522               VAVEGON            EQUALS   AMEMORY    +082D                      #  SEE CAUTION ABOVE
000909: E4,1627  E4,1530               RIG-2SEC           EQUALS   AMEMORY    +088D
000910: E4,1627  E4,1554               ALPHAM             EQUALS   AMEMORY    +108D
000911: E4,1627  E4,1556               BETAM              EQUALS   AMEMORY    +110D
000912: E4,1627  E4,1560               TAU                EQUALS   AMEMORY    +112D
000913: E4,1627  E4,1560               GIVENT             EQUALS   AMEMORY    +112D
000914: E4,1627  E4,1562               DT/2               EQUALS   AMEMORY    +114D
000915: E4,1627  E4,1564               H                  EQUALS   AMEMORY    +116D
000916: E4,1627  E4,1566               TDEC               EQUALS   AMEMORY    +118D
000917:


000919: E4,1627  E4,1570               FBRANCH            EQUALS   AMEMORY    +120D
000920: E4,1627  E4,1571               HBRANCH            EQUALS   AMEMORY    +121D
000921: E4,1627  E4,1572               GMODE              EQUALS   AMEMORY    +122D
000922: E4,1627  E4,1573               QREADY             EQUALS   AMEMORY    +123D
000923: E4,1627  E4,1574               MEASQ              EQUALS   AMEMORY    +124D
000924: E4,1627  E4,1576               DELTAQ             EQUALS   AMEMORY    +126D
000925:
000926: E4,1627  E4,1600               MEASMODE           EQUALS   AMEMORY    +128D
000927: E4,1627  E4,1601               NVCODE             EQUALS   AMEMORY    +129D
000928: E4,1627  E4,1602               MIDEXIT            EQUALS   AMEMORY    +130D
000929: E4,1627  E4,1602               DSPRTRN            EQUALS   AMEMORY    +130D
000930: E4,1627  E4,1603               INCORPEX           EQUALS   AMEMORY    +131D
000931: E4,1627  E4,1604               STEPEXIT           EQUALS   AMEMORY    +132D
000932: E4,1627  E4,1605               DIFEQCNT           EQUALS   AMEMORY    +133D
000933:
000934: E4,1627  E4,1605               NORMGAM            EQUALS   AMEMORY    +133D
000935: E4,1627  E4,1606               SCALEA             EQUALS   AMEMORY    +134D
000936: E4,1627  E4,1607               SCALEB             EQUALS   AMEMORY    +135D
000937: E4,1627  E4,1613               YV                 EQUALS   AMEMORY    +139D
000938: E4,1627  E4,1621               ZV                 EQUALS   AMEMORY    +145D
000939:


000941:                                                                                                  #  VARIABLES FOR SECOND DPS GUIDANCE
000942:
000943:                                                                                                  #  CAUTION: ORBITAL INTEGRATION REGISTERS RAVEGON, VAVEGON AND SECOND DPS GUIDANCE REGISTERS TPIP, TTF/4,
000944:                                                                                                  #  TTF/4TMP, TULLG ARE ALL IN USE SIMULTANEOUSLY AND MUST NOT CONFLICT.
000945:
000946:                                                                                                  #  2DPS PRESENTLY RECEIVES CERTAIN VARIABLES FROM THE ORBITAL INTEGRATION PROGRAM IN REGISTERS USED IN COMMON BY
000947:                                                                                                  #  THE TWO PROGRAMS. THESE VARIABLES ARE TET, RIGNTION, VIGNTION. 2DPS CAREFULLY TRANSFERS THESE VARIABLES TO
000948:                                                                                                  #  REGISTERS OF PROGRAM CALCRVG BEFORE WRITING INTO THE REGISTERS IN WHICH THESE VARIABLES ARRIVE.
000949:
000950:                                                                                                  #  SOME TIME SHARING OF 2DPS REGISTERS BY 2DPS VARIABLES HAS BEEN ARRANGED. MORE IS POSSIBLE.
000951:                                                                                                  #  BUT IT BECOMES INCREASINGLY DIFFICULT TO PROVE RESTARTABILITY.
000952:
000953: E4,1627  E4,1400               E2DPS              =        AMEMORY
000954:
000955:                                                                                                  #  CONTROL VARIABLES
000956:
000957: E4,1627  E4,1400               NDX2DPS            =        E2DPS
000958: E4,1627  E4,1401               NDXBR              =        NDX2DPS    +1
000959: E4,1627  E4,1402               FLPASS0            =        NDXBR      +1
000960: E4,1627  E4,1403               COUNTFC            =        FLPASS0    +1
000961: E4,1627  E4,1404               COUNTFCT           =        COUNTFC    +1
000962:
000963:                                                                                                  #  ADDRESS VARIABLES
000964:
000965: E4,1627  E4,1405               AVGXTEMP           =        COUNTFCT   +1
000966: E4,1627  E4,1406               RETNTLZ            =        AVGXTEMP   +1
000967: E4,1627  E4,1407               RETXIGN1           =        RETNTLZ    +1
000968: E4,1627  E4,1410               RETTHRT            =        RETXIGN1   +1
000969:
000970:                                                                                                  #  COORDINATE FRAME VECTORS AND MATRICES
000971:
000972: E4,1627  E4,1411               CLT/2              =        RETTHRT    +1
000973:
000974:                                                                                                  #  TABLES
000975:
000976: E4,1627  E4,1433               TABLTTF            =        CLT/2      +22
000977:
000978:                                                                                                  #  STATE VARIABLES
000979:
000980: E4,1627  E4,1444               PIPTIMET           =        TABLTTF    +11
000981: E4,1627  E4,1446               TPIP               =        PIPTIMET   +2                         #  SEE CAUTION ABOVE
000982: E4,1627  E4,1450               TPIPOLD            =        TPIP       +2
000983: E4,1627  E4,1452               TTF/4              =        TPIPOLD    +2                         #  SEE CAUTION ABOVE
000984:
000985: E4,1627  E4,1454               TTF/4TMP           =        TTF/4      +2                         #  SEE CAUTION ABOVE
000986: E4,1627  E4,1456               TULLG              =        TTF/4TMP   +2                         #  SEE CAUTION ABOVE
000987: E4,1627  E4,1460               R                  =        TULLG      +2
000988: E4,1627  E4,1466               RLENGTH            =        R          +6
000989: E4,1627  E4,1470               V                  =        RLENGTH    +2
000990: E4,1627  E4,1476               VL                 =        V          +6
000991: E4,1627  E4,1504               RP2                =        VL         +6
000992:


000994: E4,1627  E4,1506               MAP2               =        RP2        +2
000995: E4,1627  E4,1510               RC                 =        MAP2       +2
000996:
000997: E4,1627  E4,1512               RS                 =        RC         +2
000998: E4,1627  E4,1512               RTEMP              =        RS
000999: E4,1627  E4,1520               VS                 =        RS         +6
001000: E4,1627  E4,1520               VTEMP              =        VS
001001: E4,1627  E4,1526               CRS2               =        VS         +6
001002: E4,1627  E4,1530               SRS2               =        CRS2       +2
001003: E4,1627  E4,1532               TRS2               =        SRS2       +2
001004: E4,1627  E4,1534               ASPRT              =        TRS2       +2
001005:
001006:                                                                                                  #  AFC CALCULATION VARIABLES, QUADRATIC AND LINEAR
001007:
001008: E4,1627  E4,1542               ACS                =        ASPRT      +6
001009: E4,1627  E4,1550               AFCS               =        ACS        +6
001010: E4,1627  E4,1556               AFC                =        AFCS       +6
001011: E4,1627  E4,1564               /AFC/              =        AFC        +6
001012: E4,1627  E4,1566               /AFC/OLD           =        /AFC/      +2
001013: E4,1627  E4,1570               UNAFC/2            =        /AFC/OLD   +2
001014: E4,1627  E4,1576               UNAFC/20           =        UNAFC/2    +6
001015: E4,1627  E4,1604               ALINS              =        UNAFC/20   +6
001016: E4,1627  E4,1604               GDUMPRES           =        ALINS
001017: E4,1627  E4,1612               JLINS              =        ALINS      +6
001018: E4,1627  E4,1612               GDOTM1             =        JLINS
001019:
001020:                                                                                                  #  ASSIGNMENTS WITHIN THE WORK AREA
001021:
001022: E4,1627                        PDUM               =        6
001023: E4,1627                        RDUM               =        10
001024: E4,1627                        VDUM               =        16
001025: E4,1627                        ADUM               =        40                                    #  ONLY ADUM CAN USE THE AREA DESTROYED BY
001026: E4,1627                        JDUM               =        24                                    #  TAKING THE UNIT OF RDUM IN SUBR GDUMCL.
001027: E4,1627                        GDUM               =        32                                    #  PLACE GDUM TO PRESERVE /RDUM/ FOR OTHERS
001028:
001029:                                                                                                  #           COMPLETES SECOND DPS ERASABLES (EXCEPT FOR CPT6/2 WHICH IS ASSIGNED ELSEWHERE)
001030:


001032:                                                                                                  #  ERASABLES FOR ASCENT GUIDANCE
001033:
001034:
001035:
001036:                                                                                                  #  ERASABLES FOR PREAPS2
001037:
001038: E4,1627  E4,1400               PAXIS1             EQUALS   AMEMORY                               #  VECTOR
001039: E4,1627  E4,1406               QAXIS              EQUALS   AMEMORY    +6D                        #  VECTOR
001040:
001041: E4,1627  E4,1414               SAXIS              EQUALS   AMEMORY    +12D                       #  VECTOR
001042: E4,1627  E4,1422               AT                 EQUALS   AMEMORY    +18D                       #  DP    *  DO       *
001043: E4,1627  E4,1424               1/VE               EQUALS   AMEMORY    +20D                       #  DP    *  NOT      *
001044: E4,1627  E4,1426               TBUP               EQUALS   AMEMORY    +22D                       #  DP    *  CHANGE    *
001045: E4,1627  E4,1430               ATMEAS             EQUALS   AMEMORY    +24D                       #  (4)   *  THE      *
001046: E4,1627  E4,1434               KR                 EQUALS   AMEMORY    +28D                       #  DP    *  ORDER    *
001047: E4,1627  E4,1436               KR1                EQUALS   AMEMORY    +30D                       #  DP    *  OF       *
001048: E4,1627  E4,1440               RDOTD              EQUALS   AMEMORY    +32D                       #  DP    *  THESE    *
001049: E4,1627  E4,1442               YDOTD              EQUALS   AMEMORY    +34D                       #  DP    *  LOCATIONS*
001050: E4,1627  E4,1444               ZDOTD              EQUALS   AMEMORY    +36D                       #  DP    *************
001051: E4,1627  E4,1446               RRETURN            EQUALS   AMEMORY    +38D                       #  DP
001052: E4,1627  E4,1450               ASCRET             EQUALS   AMEMORY    +40D                       #  SP
001053:
001054:
001055:
001056:                                                                                                  #  ERASABLES FOR ASCENT
001057:
001058: E4,1627  E4,1451               LAMPRIO            EQUALS   AMEMORY    +41D                       #  SP
001059: E4,1627  E4,1452               TCO                EQUALS   AMEMORY    +42D                       #  DP
001060: E4,1627  E4,1454               TREF               EQUALS   AMEMORY    +44D                       #  DP
001061: E4,1627  E4,1456               UT                 EQUALS   AMEMORY    +46D                       #  VECTOR
001062: E4,1627  E4,1464               YCONS              EQUALS   AMEMORY    +52D                       #  DP
001063: E4,1627  E4,1466               YDOT               EQUALS   AMEMORY    +54D                       #  DP
001064:
001065: E4,1627  E4,1470               LAXIS              EQUALS   AMEMORY    +56D                       #  VECTOR
001066: E4,1627  E4,1476               ZAXIS              EQUALS   AMEMORY    +62D                       #  VECTOR
001067: E4,1627  E4,1504               ZDOT               EQUALS   AMEMORY    +68D                       #  DP
001068: E4,1627  E4,1506               TIME               EQUALS   AMEMORY    +70D                       #  DP
001069: E4,1627  E4,1510               GEFF               EQUALS   AMEMORY    +72D                       #  DP
001070: E4,1627  E4,1512               PCONS              EQUALS   AMEMORY    +74D                       #  DP
001071:
001072:                                                                                                  #  ***  THE REGISTERS AMEMORY +76D THRU AMEMORY +87D CONTAIN RAVEGON AND VAVEGON, AND MUST NOT BE USED BY THE
001073:                                                                                                  #  ASCENT EQUATIONS. *********
001074:
001075: E4,1627  E4,1530               PRATE              EQUALS   AMEMORY    +88D                       #  DP
001076: E4,1627  E4,1532               H1                 EQUALS   AMEMORY    +90D                       #  VECTOR
001077: E4,1627  E4,1540               RCOV               EQUALS   AMEMORY    +96D                       #  VECTOR
001078: E4,1627  E4,1546               RDOT               EQUALS   AMEMORY    +102D                      #  DP
001079: E4,1627  E4,1550               RY                 EQUALS   AMEMORY    +104D                      #  DP
001080: E4,1627  E4,1552               URCO               EQUALS   AMEMORY    +106D                      #  VECTOR
001081:


001083:                                                                                                  #  ERASABLES FOR THRUST MAGNITUDE FILTER
001084:
001085: E4,1627  E4,1560               1/DV1              EQUALS   AMEMORY    +112D                      #  DP
001086: E4,1627  E4,1562               1/DV2              EQUALS   AMEMORY    +114D                      #  DP
001087: E4,1627  E4,1564               ABDVCONV           EQUALS   AMEMORY    +116D                      #  DP
001088: E4,1627  E4,1566               TFL                EQUALS   AMEMORY    +118D                      #  DP
001089:
001090:
001091:
001092:                                                                                                  #  SWITCHES USED BY ASCENT GUIDANCE
001093: E4,1627                        HC                 EQUALS   59D
001094: E4,1627                        PASS               EQUALS   58D
001095: E4,1627                        DIRECT             EQUALS   57D
001096:


001098:                                                                                                  #  ERASABLES USED IN ORBITAL INTEGRATION
001099:
001100: E4,1627                        PBODY              ERASE                                          #  USED IN ORBITAL INTEGRATION
001101: E4,1630  E4,1630               W                  EQUALS   PBODY      +1                         #  UNUSED IN 206, BUT REFERRED TO BY
001102:                                                                                                  #  ORBITAL INTEGRATION
001103:
001104: E4,1630                        AVMIDRTN           ERASE    +1                                    #  RETURN ADDRESS FROM AVETOMID OR MIDTOAVE
001105:
001106:
001107:
001108:                                                                                                  #  THE FOLLOWING ARE USED BY FINDCDUD
001109:
001110: E4,1632                        AXISD              ERASE    +5                                    #  VECTOR
001111: E4,1640                        AXIS               ERASE    +5                                    #  VECTOR
001112: E4,1646                        COSCDU             ERASE    +5                                    #  VECTOR
001113: E4,1654                        SINCDU             ERASE    +5                                    #  VECTOR
001114: E4,1662  0000047               RETSAVE            EQUALS   X2                                    #  SAVE QPRET IN UNUSED X2
001115:
001116:
001117:
001118:                                                                                                  #  ERASABLES FOR MISSION PHASES 7,9,11,13
001119:
001120:                                                                                                  #  MISSION PHASE 7
001121:
001122: E4,1662                        DT2TEMP            ERASE
001123: E4,1663                        DT2TEMPD           ERASE    +1
001124:
001125:                                                                                                  #  MISSION PHASE 9
001126:
001127: E4,1665  E4,1662               SHJUMP1            EQUALS   DT2TEMP
001128: E4,1665                        TDI                ERASE    +1
001129: E4,1667  E4,1663               TTHRUST            EQUALS   DT2TEMPD
001130: E4,1667                        TIGN               ERASE    +1
001131: E4,1671                        UNITVG             ERASE    +5
001132:
001133:                                                                                                  #  MISSION PHASES 11 AND 13
001134:
001135: E4,1677  E4,1662               MPRETRN            EQUALS   DT2TEMP
001136: E4,1677  E4,1663               DT11TEMP           EQUALS   DT2TEMPD
001137:


001139:                                                                                                  #  ERASABLE STORAGE FOR UPDATES  -  NON SHARABLE
001140:
001141: E4,1677                        STBUFF             ERASE    +15
001142: E4,1715                        STCOUNT            ERASE
001143: E4,1716                        UPOLDMOD           ERASE
001144: E4,1717                        UPTEMP             ERASE
001145: E4,1720                        UPTEMP1            ERASE
001146: E4,1721                        UPVERB             ERASE
001147: E4,1722                        COMPNUMB           ERASE
001148:
001149:
001150:
001151:                                                                                                  #  ERASABLE STORAGE FOR DOWNLINK  -  LIMITED SHARING POSSIBLE
001152:
001153: E4,1723                        TEVENT             ERASE    +1                                    #  TIME OF GRR,LIFTOFF,ENGINE ON/OFF
001154: E4,1725                        VDVECT             ERASE    +5                                    #  VELOCITY DESIRED
001155: E4,1733                        VGVECT             ERASE    +5                                    #  VELOCITY TO BE GAINED
001156: E4,1741                        RD                 ERASE    +5                                    #  POSITION DESIRED
001157: E4,1747                        TTGO               ERASE    +1                                    #  TIME TO GO IN CENTISECONDS.
001158:
001159: E4,1751  E4,1747               TGO                EQUALS   TTGO                                  #  TEMPORARY DEFINITION, TO BE MOVED
001160:
001161:                                                                                                  #  EBANK 4 NON SHARABLE ERASABLE LOAD STORAGE
001162:
001163: E4,1751                        E4LOAD             ERASE    2351       -          2377
001164:
001165:
001166: E4,1751  E4,1752               MPDTO8             EQUALS   E4LOAD     +1                         #  DELTA TIME FROM MP7 TO MP8
001167:
001168: E4,1751  E4,1752               MP9-11DT           EQUALS   E4LOAD     +1                         #  DELTA TIME FROM MP9 TO MP11
001169:
001170: E4,1751  E4,1753               MP11TO13           EQUALS   E4LOAD     +2                         #  DELTA TIME FROM MP11 TO MP13
001171:
001172: E4,1751  E4,1754               RP                 EQUALS   E4LOAD     +3                         #  DP TARGET PARAMETER FOR DPS1 BURN
001173:
001174: E4,1751  E4,1756               CPT6/2             EQUALS   E4LOAD     +5                         #  VECTOR TARGET PARAMETER FOR DPS2 BURN
001175:
001176: E4,1751  E4,1764               R1VEC              EQUALS   E4LOAD     +13                        #  VECTOR TARGET PARAMETER FOR APS2 BURN
001177:
001178: E4,1751  E4,1772               TINT               EQUALS   E4LOAD     +21                        #  DP TARGET PARAMETER FOR APS2 BURN
001179:
001180: E4,1751  E4,1774               RCO                EQUALS   E4LOAD     +23                        #  DP TARGET PARAMETER FOR APS2 TURN
001181:
001182:                                                                                                  #                                         E4LOAD +25 THRU E4LOAD +27 ARE STILL AVAILABLE
001183:


001185:                                                                                                  #  ERASABLES FOR MASS UPDATE (A PART OF AVERAGE G) AND THROTTLE CONTROL
001186:
001187:                                                                                                  #  INITIAL VALUES FOR MASS: THESE ERASABLES ARE SACROSANCT.
001188:
001189: E4,1751  E5,1540               MASSES             =        SAVERASE   +26D
001190: E4,1751  E5,1540               LEMMASS1           =        MASSES                                #  MASS OF LEM JUST AFTER SIVB SEPARATION
001191: E4,1751  E5,1542               LEMMASS2           =        MASSES     +2                         #  MASS OF LEM JUST AFTER DPS SEPARATION
001192:
001193:                                                                                                  #  ERASABLES FOR MASS UPDATE ROUTINE
001194:
001195: E4,1751  E5,1544               EVEX               =        SAVERASE   +30D
001196: E4,1751  E5,1544               VEXDEX             =        EVEX
001197: E4,1751  E5,1545               PREFORCE           =        EVEX       +1
001198: E4,1751  E5,1547               VEXNOM             =        EVEX       +3
001199: E4,1751  E5,1551               DELAREA            =        EVEX       +5
001200: E4,1751  E5,1553               AREARATE           =        EVEX       +7
001201: E4,1751  E5,1555               NEGVEX             =        EVEX       +11
001202: E4,1751  E5,1557               DAREATMP           =        EVEX       +13
001203: E4,1751  E5,1561               MASSTEMP           =        EVEX       +15
001204:
001205:                                                                                                  #  ERASABLE FOR THROTTLE CONTROL
001206:
001207: E4,1751  E5,1557               ETHROT             =        SAVERASE   +41D
001208: E4,1751  E5,1557               FOLD               =        ETHROT
001209: E4,1751  E5,1561               FCOLD              =        ETHROT     +2
001210: E4,1751  E5,1562               FC                 =        ETHROT     +3
001211: E4,1751  E5,1564               PIF                =        ETHROT     +5
001212: E4,1751  E5,1566               RTNHOLD            =        ETHROT     +7
001213:


001215:
001216:
001217:                                                                                                  #   THE FOLLOWING ERASABLE REGISTERS ARE USED BY THE  ENTRY AND INITIALIZATION JOB OF THE FCS TEST FOR LEM.
001218:
001219: E4,1751  E4,1400               FCSCNTR            EQUALS   AMEMORY    +000D
001220:
001221:                                                                                                  #    THE FOLLOWING ERASABLE REGISTERS ARE USED BY THE JETSET TASK.
001222:
001223:                                                                                                  #  (OPTIMUM PRELAUNCH A C USES JETSTEP-JETSTEP +77D FOR RESTART PROOF)
001224:
001225: E4,1751  E4,1401               XJBUF              EQUALS   AMEMORY    +001D
001226: E4,1751  E4,1402               YZJBUF             EQUALS   AMEMORY    +002D
001227: E4,1751  E4,1403               JFBUF              EQUALS   AMEMORY    +003D
001228:
001229: E4,1751  E4,1404               FCNTR              EQUALS   AMEMORY    +004D
001230: E4,1751  E4,1405               THBUF              EQUALS   AMEMORY    +005D
001231: E4,1751  E4,1406               OFFTMBUF           EQUALS   AMEMORY    +006D
001232: E4,1751  E4,1407               JETSTEP            EQUALS   AMEMORY    +007D
001233: E4,1751  E4,1410               NTIMES             EQUALS   AMEMORY    +008D
001234: E4,1751  E4,1420               NEXTTIME           EQUALS   AMEMORY    +016D
001235: E4,1751  E4,1430               JETONTM            EQUALS   AMEMORY    +024D
001236: E4,1751  E4,1440               XJETS              EQUALS   AMEMORY    +032D
001237: E4,1751  E4,1450               YZJETS             EQUALS   AMEMORY    +040D
001238: E4,1751  E4,1460               JETOFFTM           EQUALS   AMEMORY    +048D
001239:
001240:                                                                                                  #      THE FOLLOWING ERASABLE REGISTERS ARE USED BY THE ENGINE ON-OFF TASK.
001241:
001242: E4,1751  E4,1470               ENGSTEP            EQUALS   AMEMORY    +056D
001243: E4,1751  E4,1471               CYLTIMES           EQUALS   AMEMORY    +057D
001244: E4,1751  E4,1474               NEXTCYLT           EQUALS   AMEMORY    +060D
001245: E4,1751  E4,1477               ONTIME             EQUALS   AMEMORY    +063D
001246: E4,1751  E4,1502               OFFTIME            EQUALS   AMEMORY    +066D
001247: E4,1751  E4,1505               OFFTIMER           EQUALS   AMEMORY    +069D
001248:
001249:                                                                                                  #     THE FOLLOWING ERASABLE REGISTERS ARE USED BY THE TRIM TASK.
001250:
001251: E4,1751  E4,1510               TRIMSTEP           EQUALS   AMEMORY    +072D
001252:
001253: E4,1751  E4,1511               NUMTIMES           EQUALS   AMEMORY    +073D
001254: E4,1751  E4,1525               STEPDLYT           EQUALS   AMEMORY    +085D
001255: E4,1751  E4,1541               TRIMONT            EQUALS   AMEMORY    +097D
001256: E4,1751  E4,1555               TRIMOFFT           EQUALS   AMEMORY    +109D
001257: E4,1751  E4,1571               TRIMIND            EQUALS   AMEMORY    +121D
001258:
001259:                                                                                                  #     THE FOLLOWING ERASABLE REGISTERS ARE USED BY THE THROTTLE TASK.
001260:
001261: E4,1751  E4,1605               THRTSTEP           EQUALS   AMEMORY    +133D
001262: E4,1751  E4,1606               DOTIMES            EQUALS   AMEMORY    +134D
001263: E4,1751  E4,1614               DELAY              EQUALS   AMEMORY    +140D
001264: E4,1751  E4,1622               THR1TIME           EQUALS   AMEMORY    +146D
001265: E4,1751  E4,1630               THCOMM1            EQUALS   AMEMORY    +152D
001266:


001268: E4,1751  E4,1636               THCOMM2            EQUALS   AMEMORY    +158D
001269:
001270:                                                                                                  #   THE FOLLOWING ERASABLE REGISTERS ARE USED BY THE INTERFACE LOOK TASK.
001271:
001272: E4,1751  E4,1644               30BUF1             EQUALS   AMEMORY    +164D
001273: E4,1751  E4,1650               30BUF0             EQUALS   AMEMORY    +168D
001274: E4,1751  E4,1654               QUITLOOK           EQUALS   AMEMORY    +172D
001275: E4,1751  E4,1655               CHCNTR             EQUALS   AMEMORY    +173D
001276:
001277: E5,1400                                           SETLOC   2400
001278:                                                                                                  #  THE FOLLOWING ERASABLE LOCATIONS ARE UTILIZED BY THE IN-FLIGHT ALIGNMENT ROUTINES
001279:
001280: E5,1400                        XSM                ERASE    +17D
001281: E5,1422  E5,1406               YSM                =        XSM        +6
001282: E5,1422  E5,1414               ZSM                =        XSM        +12D
001283: E5,1422                        XDC                ERASE    +17D
001284: E5,1444  E5,1430               YDC                =        XDC        +6
001285: E5,1444  E5,1436               ZDC                =        XDC        +12D
001286: E5,1444  E5,1422               XNB                =        XDC
001287: E5,1444  E5,1430               YNB                =        XDC        +6
001288:
001289: E5,1444  E5,1436               ZNB                =        XDC        +12D
001290: E5,1444                        STARAD             ERASE    +17D
001291: E5,1466                        STAR               ERASE    +5
001292: E5,1474                        SAC                ERASE    +1
001293: E5,1476                        PAC                ERASE    +1
001294: E5,1500                        OGC                ERASE    +1
001295: E5,1502                        IGC                ERASE    +1
001296: E5,1504                        MGC                ERASE    +1
001297: E5,1506                        ZPRIME             =        22D
001298: E5,1506                        PDA                =        22D
001299: E5,1506                        COSTH              =        16D
001300: E5,1506                        SINTH              =        18D
001301: E5,1506                        THETA              =        20D
001302: E5,1506                        STARM              =        32D
001303:
001304:
001305:
001306:                                                                                                  #  THE FOLLOWING ERASABLE LOCATIONS ARE UTILIZED BY THE SYSTEM TESTS
001307:
001308: E5,1506                        AZIMUTH            ERASE    +1
001309: E5,1510                        LATITUDE           ERASE    +1
001310:
001311: E5,1512                        EROPTN             ERASE
001312: E5,1513                        ERVECTOR           ERASE    +5
001313: E5,1521                        GYROD              ERASE    +5
001314: E5,1527                        LENGTHOT           ERASE
001315: E5,1530                        LOSVEC             ERASE    +5
001316: E5,1536                        NBPOS              ERASE
001317: E5,1537                        NDXCTR             ERASE
001318: E5,1540                        PIPANO             ERASE
001319:


001321: E5,1541                        PIPINDEX           ERASE
001322: E5,1542                        PIPNDX             ERASE    +1
001323:
001324: E5,1544                        POSITON            ERASE
001325: E5,1545                        QPLAC              ERASE
001326: E5,1546                        QPLACE             ERASE
001327: E5,1547                        QPLACES            ERASE
001328: E5,1550                        RUN                ERASE
001329: E5,1551                        STOREPL            ERASE
001330: E5,1552                        SOUTHDR            ERASE
001331: E5,1553                        TAZEL1             ERASE    +5
001332: E5,1561                        TEMPTIME           ERASE    +1
001333: E5,1563                        TESTNO             ERASE
001334: E5,1564                        TMARK              ERASE    +1
001335: E5,1566                        SHAFTA             ERASE
001336: E5,1567                        TRUNA              ERASE
001337: E5,1570                        GENPL              ERASE    +134D
001338:
001339: E5,1777  E5,1570               CDUTIMEI           =        GENPL
001340: E5,1777  E5,1572               CDUTIMEF           =        GENPL      +2
001341: E5,1777  E5,1574               CDUDANG            =        GENPL      +4
001342: E5,1777  E5,1575               CDUREADF           =        GENPL      +5
001343: E5,1777  E5,1576               CDUREADI           =        GENPL      +6
001344: E5,1777  E5,1577               CDULIMIT           =        GENPL      +7
001345:
001346: E5,1777  E5,1574               TEMPADD            =        GENPL      +4
001347: E5,1777  E5,1575               TEMP               =        GENPL      +5
001348: E5,1777  E5,1576               NOBITS             =        GENPL      +6
001349: E5,1777  E5,1577               CHAN               =        GENPL      +7
001350:
001351: E5,1777  E5,1600               LOS1               =        GENPL      +8D
001352: E5,1777  E5,1606               LOS2               =        GENPL      +14D
001353:
001354: E5,1777  E5,1614               CALCDIR            EQUALS   GENPL      +20D
001355: E5,1777  E5,1615               CDUFLAG            EQUALS   GENPL      +21D
001356: E5,1777  E5,1616               GYTOBETQ           EQUALS   GENPL      +22D
001357: E5,1777  E5,1617               OPTNREG            EQUALS   GENPL      +23D
001358: E5,1777  E5,1620               SAVE               EQUALS   GENPL      +24D                       #  THREE CONSEC LOC
001359: E5,1777  E5,1623               SFCONST1           EQUALS   GENPL      +27D
001360: E5,1777  E5,1624               TIMER              EQUALS   GENPL      +28D
001361:
001362: E5,1777  E5,1626               DATAPL             EQUALS   GENPL      +30D
001363: E5,1777  E5,1570               RDSP               EQUALS   GENPL                                 #  FIX LATER    POSSIBLY KEEP1
001364: E5,1777  E5,1670               MASKREG            EQUALS   GENPL      +64D
001365: E5,1777  E5,1672               CDUNDX             EQUALS   GENPL      +66D
001366: E5,1777  E5,1673               RESULTCT           EQUALS   GENPL      +67D
001367: E5,1777  E5,1676               COUNTPL            EQUALS   GENPL      +70D
001368:
001369: E5,1777  E5,1677               CDUANG             EQUALS   GENPL      +71D
001370: E5,1777  E5,1570               AINLA              =        GENPL                                 #  110 DEC OR 156 OCT LOCATIONS
001371:


001373: E5,1777  E5,1570               WANGO              EQUALS   AINLA                                 #  VERT ERATE
001374: E5,1777  E5,1572               WANGI              EQUALS   AINLA      +2D                        #  HORIZONTAL ERATE
001375: E5,1777  E5,1574               WANGT              EQUALS   AINLA      +4D                        #  T
001376: E5,1777  E5,1574               TORQNDX            =        WANGT
001377: E5,1777  E5,1576               DRIFTT             EQUALS   AINLA      +6D
001378: E5,1777  E5,1600               ALX1S              EQUALS   AINLA      +8D
001379: E5,1777  E5,1601               CMPX1              EQUALS   AINLA      +9D                        #  IND
001380: E5,1777  E5,1602               ALK                EQUALS   AINLA      +10D                       #  GAINS
001381: E5,1777  E5,1616               VLAUNS             EQUALS   AINLA      +22D
001382: E5,1777  E5,1616               THETAX             =        VLAUNS
001383: E5,1777  E5,1620               WPLATO             EQUALS   AINLA      +24D
001384: E5,1777  E5,1624               INTY               EQUALS   AINLA      +28D                       #  SOUTH PIP INTE
001385: E5,1777  E5,1626               ANGZ               EQUALS   AINLA      +30D                       #  EAST AXIS
001386: E5,1777  E5,1630               INTZ               EQUALS   AINLA      +32D                       #  EAST PIP I
001387: E5,1777  E5,1632               ANGY               EQUALS   AINLA      +34D                       #  SOUTH
001388: E5,1777  E5,1624               THETAN             =        INTY
001389: E5,1777  E5,1634               ANGX               EQUALS   AINLA      +36D                       #  VE
001390: E5,1777  E5,1636               DRIFTO             EQUALS   AINLA      +38D                       #  VERT
001391: E5,1777  E5,1640               DRIFTI             EQUALS   AINLA      +40D                       #  SOU
001392: E5,1777  E5,1644               VLAUN              EQUALS   AINLA      +44D
001393: E5,1777  E5,1644               FILDELV            =        VLAUN
001394: E5,1777  E5,1646               ACCWD              EQUALS   AINLA      +46D
001395: E5,1777  E5,1646               INTVEC             =        ACCWD
001396: E5,1777  E5,1654               POSNV              EQUALS   AINLA      +52D
001397: E5,1777  E5,1656               DPIPAY             EQUALS   AINLA      +54D                       #  SOUTH
001398: E5,1777  E5,1662               DPIPAZ             EQUALS   AINLA      +58D                       #  NORTH PIP INCREMENT
001399: E5,1777  E5,1664               ALTIM              EQUALS   AINLA      +60D
001400: E5,1777  E5,1665               ALTIMS             EQUALS   AINLA      +61D                       #   INDEX
001401: E5,1777  E5,1666               ALDK               EQUALS   AINLA      +62D                       #   TIME CONSTAN
001402: E5,1777  E5,1704               DELM               EQUALS   AINLA      +76D
001403: E5,1777  E5,1714               WPLATI             EQUALS   AINLA      +84D
001404: E5,1777  E5,1716               GEOSAVED           EQUALS   AINLA      +86D
001405:
001406: E5,1777  E5,1717               PREMTRXC           EQUALS   AINLA      +87D
001407: E5,1777  E5,1720               PRELMTRX           EQUALS   AINLA      +88D
001408: E5,1777  E5,1720               TRANSM1            =        PRELMTRX
001409: E5,1777  E5,1742               GEOCOMPS           EQUALS   AINLA      +106D
001410: E5,1777  E5,1743               GTSOPNDZ           EQUALS   AINLA      +107D
001411: E5,1777  E5,1744               1SECXT             EQUALS   AINLA      +108D
001412: E5,1777  E5,1745               GTSWTLST           EQUALS   AINLA      +109D
001413: E5,1777  E5,1746               ERECTIME           EQUALS   AINLA      +110D
001414: E5,1777  E5,1747               GEOMTRX            EQUALS   AINLA      +111D
001415: E5,1777  E5,1771               ERCOMP             EQUALS   AINLA      +129D
001416: E5,1777  E5,1777               ZERONDX            EQUALS   AINLA      +135D
001417:
001418:
001419:
001420: E5,1777  E5,1570               BMEMORY            EQUALS   GENPL
001421: E5,1777     0405               DELVY              EQUALS   DELVX      +2
001422: E5,1777     0407               DELVZ              EQUALS   DELVX      +4
001423:


001425:                                                                                                  #           TUMBLE MONITOR
001426:
001427: E5,1777  E6,1411               PCDUX              EQUALS   E
001428: E5,1777  E6,1412               PCDUY              EQUALS   EDOT(2)
001429: E5,1777  E6,1413               PCDUZ              EQUALS   ER
001430: E5,1777  E6,1417               DCDUY              EQUALS   OMEGAQ
001431: E5,1777  E6,1421               DCDUZ              EQUALS   OMEGAR
001432: E5,1777  E6,1423               OMEGA              EQUALS   EDOTP
001433: E7,1400                                           SETLOC   3400
001434:
001435:                                                                                                  #           DOWNLINK STORAGE.
001436:
001437: E7,1400                        LDATALST           ERASE
001438: E7,1401                        DNTMGOTO           ERASE
001439:
001440: E7,1402                        TMINDEX            ERASE
001441: E7,1403                        DNQ                ERASE                                          #  RETURN ADDRESS OF DOWNLINK SUBROUTINES
001442: E7,1404                        DNTMBUFF           ERASE    +21D                                  #  SNAPSHOT BUFFER.
001443:
001444:                                                                                                  #           RADAR TEST STORAGE.
001445:
001446: E7,1432                        RTSTDEX            ERASE
001447: E7,1433                        RTSTMAX            ERASE                                          #  66 FOR HI SPEED, 6 FOR LOW SPEED RR,
001448:                                                                                                  #  AND 18 FOR LOW SPEED LR.
001449: E7,1434                        RTSTBASE           ERASE                                          #  USED FOR CYCLIC SAMPLING.
001450: E7,1435                        RTSTLOC            ERASE                                          #  GOES 0(6)RTSTMAX
001451: E7,1436  E7,1435               RSTKLOC            EQUALS   RTSTLOC
001452: E7,1436                        RSAMPDT            ERASE                                          #  PNZ FOR CYCLIC SAMPLING, -1 FOR HI SPEED
001453:                                                                                                  #  INSERT +0 HERE MANUALLY TO TERMINATE TST
001454: E7,1437                        RFAILCNT           ERASE
001455: E7,1440                        RSTACK             ERASE    +71D                                  #  BUFFERS FOR RADAR TESTING.
001456:
001457:                                                                                                  #  AGS INITIALIZATION
001458: E7,1550                        AGSBUF             ERASE    +27D
001459:                                                                                                  #           STORAGE FOR INBIT SCANNER.
001460:
001461: E7,1604                        LAST30             ERASE    +2                                    #  LAST SAMPLED INBITS.
001462: E7,1607                        MSGCNT             ERASE
001463:
001464:                                                                                                  #  THE COMPTORK REGISTERS ARE REDUNDANT WITH THETAN FOR DOWNLINK PURPOSES.
001465:
001466: E7,1610                        COMPTORK           ERASE    +5                                    #  V, S, E GYROCOMPASS GYRO TORQUES.
001467:
001468:                                                                                                  #             BMEMORY USED FOR CONSECUTIVE ASSIGNMENTS FOR SERVICER RESTART
001469: E7,1616                        SAVERASE           EQUALS   2506
001470: E7,1616  E5,1506               DVTOTAL            EQUALS   SAVERASE   +000D
001471: E7,1616  E5,1511               DVCNTR             EQUALS   SAVERASE   +003D
001472: E7,1616  E5,1512               PIPCTR             EQUALS   SAVERASE   +004D
001473: E7,1616  E5,1513               VR                 EQUALS   SAVERASE   +005D
001474: E7,1616  E5,1522               VGCNTR             EQUALS   SAVERASE   +012D
001475: E7,1616  E5,1523               ERRORSUM           EQUALS   SAVERASE   +013D
001476:


001478: E7,1616  E5,1531               DIFFANG            EQUALS   SAVERASE   +019D
001479: E7,1616  E5,1533               STREXIT            EQUALS   SAVERASE   +021D
001480:
001481:
001482: E7,1616  E5,1534               ABDELV             EQUALS   SAVERASE   +022D
001483: E7,1616  E5,1536               SWITCH             EQUALS   SAVERASE   +24D
001484: E7,1616  E5,1537               NEGXDV             EQUALS   SAVERASE   +25D
001485:


001487:                                                                                                  #  DIGITAL AUTOPILOT ERASABLE TAKES UP BANK 6:
001488:
001489:                                                                                                  #  THESE TWO ARE GOING TO MOVE WHEN KALCMANU COMES INTO SUNBURST:
001490:
001491: E6,1400                                           SETLOC   3000
001492:
001493:                                                                                                  #  AXIS TRANSFORMATION MATRIX - PILOT TO GIMBAL AXES:
001494:
001495: E6,1400                        MR12               ERASE                                          #  SCALED AT 2   THESE FOUR P-G MATRIX ELE-
001496: E6,1401                        MR22               ERASE                                          #  SCALED AT 1   MENTS ARE IN THIS ORDER TO
001497: E6,1402                        MR13               ERASE                                          #  SCALED AT 2   COMPUTE RATE HOLD DELCDUS
001498: E6,1403                        MR23               ERASE                                          #  SCALED AT 1   WITH AN INDEXED LOOP
001499:
001500:                                                                                                  #  AXIS TRANSFORMATION MATRIX - GIMBAL TO PILOT AXES:
001501:
001502: E6,1404                        M11                ERASE                                          #  SCALED AT 1
001503: E6,1405                        M21                ERASE                                          #  SCALED AT 1
001504: E6,1406                        M31                ERASE
001505: E6,1407  E6,1401               M22                EQUALS   MR22                                  #  SCALED AT 1
001506: E6,1407  E6,1403               M32                EQUALS   MR23                                  #  SCALED AT 1
001507:
001508:                                                                                                  #  ANGLE MEASUREMENTS.
001509:
001510: E6,1407                        EDOT               ERASE    +1                                    #  ERROR IN ANGULAR RATE:
001511: E6,1411  E6,1410               EDOT(R)            EQUALS   EDOT       +1                         #  SCALED DOWN TO PI/16 RADIANS/SECOND
001512:
001513: E6,1411                        E                  ERASE    +1                                    #  ANGLE ERROR SCALED AT PI RADIANS
001514: E6,1413  E6,1412               EDOT(2)            EQUALS   E          +1                         #  ERROR RATE SQUARED SCALED AT PI(2)/16
001515: E6,1413  E6,1411               EQ                 EQUALS   E                                     #  THIS PAIR OF NAMES IS USED TO REFER TO
001516: E6,1413  E6,1412               EDOT(2)Q           EQUALS   EDOT(2)                               #  THE ABOVE ERASABLES AS Q-AXIS DATA
001517: E6,1413                        ER                 ERASE    +1                                    #  THIS PAIR OF NAMES REFERS TO LOCATIONS
001518: E6,1415  E6,1414               EDOT(2)R           EQUALS   ER         +1                         #  FOR THE R-AXIS DATA: INTERCHANGES WITH Q
001519:
001520: E6,1415                        DB                 ERASE                                          #  ANGLE DEADBAND SCALED AT PI RADIANS
001521:
001522: E6,1416                        OMEGAP             ERASE    +4                                    #  BODY-AXIS ROT. RATES SCALED AT PI/4 AND
001523: E6,1423  E6,1417               OMEGAQ             EQUALS   OMEGAP     +1                         #  BODY-AXIS ACCELERATIONS SCALED AT PI/8
001524: E6,1423  E6,1420               ALPHAQ             EQUALS   OMEGAP     +2                         #  (IN DESCENT) OR PI/2 (IN ASCENT)
001525: E6,1423  E6,1421               OMEGAR             EQUALS   OMEGAP     +3                         #  THESE W,A PAIRS ARE NEEDED, ALPHAP HAS
001526: E6,1423  E6,1422               ALPHAR             EQUALS   OMEGAP     +4                         #  NO USE IN THE DIGITAL AUTOPILOT
001527:
001528: E6,1423                        EDOTP              ERASE    +2                                    #  ERRORS IN ANGULAR RATE:
001529: E6,1426  E6,1424               EDOTQ              EQUALS   EDOTP      +1                         #  EDOT = 3MEGA - OMEGA(DESIRED)
001530: E6,1426  E6,1425               EDOTR              EQUALS   EDOTP      +2                         #  SCALED AT PI/4 RADIANS/SECOND
001531:
001532: E6,1426  E6,1424               QRATEDIF           EQUALS   EDOTQ                                 #  ALTERNATIVE NAMES:
001533: E6,1426  E6,1425               RRATEDIF           EQUALS   EDOTR                                 #  DELETE WHEN NO. OF REFERENCES = 0
001534:
001535: E6,1426                        OLDXFORP           ERASE    +3                                    #  STORED CDU READINGS FOR P AND Q,R RATE
001536: E6,1432  E6,1427               OLDYFORP           EQUALS   OLDXFORP   +1                         #  DERIVATIONS: SCALED AT PI RADIANS (2'S)
001537:


001539: E6,1432  E6,1430               OLDYFORQ           EQUALS   OLDXFORP   +2                         #  (THERE MUST BE TWO REGISTERS FOR CDUY
001540: E6,1432  E6,1431               OLDZFORQ           EQUALS   OLDXFORP   +3                         #  SINCE P AND Q,R ARE NOT IN PHASE)
001541:
001542:                                                                                                  #  RHC INPUTS SCALED AT PI/4 RAD/SEC.
001543:
001544: E6,1432                        PCOM               ERASE
001545: E6,1433                        RCOM               ERASE
001546: E6,1434                        YCOM               ERASE
001547:
001548:                                                                                                  #  RHC COUNTER REGISTERS.
001549:
001550: E6,1435                        P-RHCCTR           EQUALS   43
001551: E6,1435                        Q-RHCCTR           EQUALS   42
001552: E6,1435                        R-RHCCTR           EQUALS   44
001553:
001554:                                                                                                  #  OTHER VARIABLES.
001555:
001556: E6,1435                        TJETSIGN           ERASE                                          #  =+/-BIT1 TO SHOW SIGN OF P-AXIS ROTATION
001557: E6,1436                        PRATECOM           ERASE
001558: E6,1437                        EDOTGEN            ERASE
001559: E6,1440                        RATEDIF            ERASE
001560: E6,1441                        1/2JTSP            ERASE
001561: E6,1442                        FPQR               ERASE
001562: E6,1443                        MINRA              ERASE
001563: E6,1444                        MINRASQ            ERASE
001564: E6,1445                        HDAP               ERASE
001565: E6,1446  E6,1445               FCT1               EQUALS   HDAP
001566: E6,1446                        U                  ERASE
001567: E6,1447                        DENOM              ERASE
001568: E6,1450                        RATIO              ERASE
001569: E6,1451                        L,PVT-CG           ERASE
001570: E6,1452                        IXX                ERASE
001571:
001572: E6,1453                        IYY                ERASE
001573: E6,1454                        IZZ                ERASE
001574: E6,1455                        4JETTORK           ERASE
001575: E6,1456                        JETTORK4           ERASE
001576: E6,1457                        COSMG              ERASE
001577: E6,1460     0062               DELTAP             EQUALS   ITEMP2
001578: E6,1460                        FPQRMIN            ERASE
001579: E6,1461                        NJET               ERASE
001580: E6,1462                        PRATEDIF           ERASE
001581: E6,1463                        LASTPER            ERASE                                          #  THESE 6 REG USED FOR ATT ERR DISPLAY
001582: E6,1464                        LASTQER            ERASE
001583: E6,1465                        LASTRER            ERASE
001584: E6,1466                        PERROR             ERASE
001585: E6,1467                        QERROR             ERASE
001586: E6,1470                        RERROR             ERASE
001587:
001588:                                                                                                  #  JET STATE CHANGE VARIABLES- TIME (TOFJTCHG),JET BITS WRITTEN NOW
001589:                                                                                                  #    (JTSONNOW), AND JET BITS WRITTEN AT T6 RUPT (JTSATCHG).
001590:


001592: E6,1471                        JTSONNOW           ERASE
001593: E6,1472                        JTSATCHG           ERASE
001594: E6,1473                        ADDT6JTS           ERASE
001595: E6,1474                        ADDTLT6            ERASE
001596: E6,1475                        TOFJTCHG           ERASE
001597:
001598: E6,1476                        -RATEDB            ERASE
001599: E6,1477                        -2JETLIM           ERASE
001600:
001601:                                                                                                  #  RCS FAILURE MONITOR ERASABLE . PROGRAM ON T4RUPT 4 TIMES/SECOND
001602:
001603:                                                                                                  #  *** FAILSW CAPABILITY FOR CHECKOUT ONLY ***
001604:
001605: E6,1500                        FAILSW             ERASE                                          #  IF POSITIVE NO RCSMONIT, OTHERWISE 0
001606:
001607: E6,1501                        LASTFAIL           ERASE                                          #  LAST FAILURE CHANNEL RECORD, -0 INITIAL
001608: E6,1502                        CH5MASK            ERASE                                          #  MASKS FOR TURNING ON P/Q,R JETS
001609: E6,1503                        CH6MASK            ERASE                                          #  IN OUTPUT CHANNELS 5 AND 6
001610: E6,1504     0061               FAILCTR            EQUALS   ITEMP1                                #  BIT POSITION COUNTER (INTERNAL)
001611: E6,1504     0062               FAILTEMP           EQUALS   ITEMP2                                #  TEMPORARY RECORD OF FAILED BITS
001612:
001613:                                                                                                  #  Q,R AXIS ERASABLES
001614:
001615: E6,1504     0062               DELQ               EQUALS   ITEMP2
001616: E6,1504     0063               DELTAR             EQUALS   ITEMP3
001617: E6,1504                        URGENCYQ           ERASE    +1
001618: E6,1506                        URGENCYR           ERASE    +1
001619: E6,1510     0066               URGLIMIT           =        ITEMP6
001620: E6,1510                        A+B                ERASE
001621: E6,1511                        A-B                ERASE
001622: E6,1512                        TERMA              ERASE
001623: E6,1513                        TERMB              ERASE
001624: E6,1514                        DISPLACT           ERASE                                          #  FLAG FOR EIGHTBALL ATT. ERROR DISPLAY.
001625:
001626: E6,1515                        POLTEST            ERASE
001627:


001629:                                                                                                  #  TRIM GIMBAL CONTROL LAW ERASABLES:
001630:
001631:                                                                                                  #  THE FOLLOWING ASSIGNMENTS OF RUPTREGS AND ITEMPS HAS BEEN MADE IN AN EFFORT TO OPTIMIZE USE OF ERASABLES:
001632:
001633: E6,1516     0070               K2THETA            EQUALS   RUPTREG1                              #  D.P. K(2)THETA AND "NEGUSUM"
001634: E6,1516     0071               ETHETA             EQUALS   RUPTREG2                              #  S.P. ERROR ANGLE SCALED AT PI/64 RADIANS
001635: E6,1516     0072               A2CNTRAL           EQUALS   RUPTREG3                              #  D.P. ALPHA(2) SCALED AT PI(2)/64 R/S(2)
001636: E6,1516     0072               SF1                EQUALS   RUPTREG3                              #  S.P. VARIABLE SCALE FACTORS WHICH ARE
001637: E6,1516     0073               SF2                EQUALS   RUPTREG4                              #  S.P. - REALLY SINGLE BITS (OR ZERO)
001638: E6,1516     0061               OMEGA.K            EQUALS   ITEMP1                                #  D.P. OMEGA*K SUPERCEDES K AND K(2)
001639: E6,1516     0061               KCENTRAL           EQUALS   ITEMP1                                #  S.P. K FROM KQ OR KR FIRST AT PI/2(8)
001640: E6,1516     0062               K2CNTRAL           EQUALS   ITEMP2                                #  S.P. K(2) FROM Q OR R 1ST AT PI(2)/2(16)
001641: E6,1516     0063               WCENTRAL           EQUALS   ITEMP3                                #  S.P. OMEGA SCALED AT PI/4 RADIANS/SECOND
001642: E6,1516     0064               ACENTRAL           EQUALS   ITEMP4                                #  S.P. ALPHA SCALED AT PI/8 RAD/SEC(2)
001643: E6,1516     0065               DEL                EQUALS   ITEMP5                                #  S.P. SGN(FUNCTION)
001644: E6,1516     0066               QRCNTR             EQUALS   ITEMP6                                #  S.P. COUNTER: Q,Y=0, R,Z=2
001645:
001646:                                                                                                  #  THE ABOVE QUANTITIES ARE ONLY NEEDED ON A VERY TEMPORARY BASIS AND HAVE BEEN PROVEN TO BE NON-CONFLICTING.
001647:
001648: E6,1516                        TJSR               ERASE
001649: E6,1517                        MULTFLAG           ERASE                                          #  INDICATOR FOR SPDPMULT ROUTINE
001650:
001651: E6,1520                        FUNCTION           ERASE    +1                                    #  D.P. WORD FOR DRIVE FUNCTIONS
001652:
001653: E6,1522                        NEGUQ              ERASE    +2                                    #  NEGATIVE OF Q-AXIS GIMBAL DRIVE
001654: E6,1525  E6,1523               THRSTCMD           EQUALS   NEGUQ      +1                         #  THRUST COMMAND AT 16384 LBS (SEPARATOR)
001655: E6,1525  E6,1524               NEGUR              EQUALS   NEGUQ      +2                         #  NEGATIVE OF R-AXIS GIMBAL DRIVE
001656:
001657: E6,1525                        KQ                 ERASE    +3                                    #  .3ACCDOTQ SCALED AT PI/2(8)
001658: E6,1531  E6,1526               KQ2                EQUALS   KQ         +1                         #  KQ2 = KQ*KQ
001659: E6,1531  E6,1527               KRDAP              EQUALS   KQ         +2                         #  .3 ACCDOTR SCALED AT PI/2(8)
001660: E6,1531  E6,1530               KR2                EQUALS   KQ         +3                         #  KR2 = KR*KR
001661:
001662: E6,1531                        ACCDOTQ            ERASE    +3                                    #  Q-JERK SCALED AT PI/2(7) UNSIGNED
001663: E6,1535  E6,1532               QACCDOT            EQUALS   ACCDOTQ    +1                         #  Q-JERK SCALED AT PI/2(7) SIGNED
001664: E6,1535  E6,1533               ACCDOTR            EQUALS   ACCDOTQ    +2                         #  R-JERK SCALED AT PI/2(7) UNSIGNED
001665: E6,1535  E6,1534               RACCDOT            EQUALS   ACCDOTQ    +3                         #  R-JERK SCALED AT PI/2(7) SIGNED
001666:
001667: E6,1535  E6,1467               QDIFF              EQUALS   QERROR                                #  ATTITUDE ERRORS:
001668: E6,1535  E6,1470               RDIFF              EQUALS   RERROR                                #  SCALED AT PI RADIANS
001669:
001670: E6,1535                        TIMEOFFQ           ERASE                                          #  TIMES TO GO UNTIL TRIM GIMBAL TURN-OFF,
001671: E6,1536                        TIMEOFFR           ERASE                                          #  ZERO MEANS NO ACTION, SCALED AS WAITLIST
001672:


001674:                                                                                                  #  KALMAN FILTER ERASABLES.
001675:
001676: E6,1537                        STORCDUY           ERASE                                          #  THIS S.P. PAIR IS USED TO SAVE CDUY,Z
001677: E6,1540                        STORCDUZ           ERASE                                          #  FOR THE GTS RUPT
001678:
001679: E6,1541     0072               CDU                EQUALS   RUPTREG3                              #  RUPTREG3,4 USED AS D.P. WORD FOR CDU
001680:                                                                                                  #  VALUE WITHIN FILTER IS COMP AT 2PI RAD
001681:
001682: E6,1541     0061               CDUDOT             EQUALS   ITEMP1                                #  ITEMP1,2 USED AS D.P. WORD FOR CDUDOT
001683:                                                                                                  #  VALUE WITHIN FILTER SCALED AT PI/4
001684:
001685: E6,1541     0063               CDU2DOT            EQUALS   ITEMP3                                #  ITEMP3,4 USED AS D.P. WORD FOR CDU2DOT
001686:                                                                                                  #  VALUE WITHIN FILTER SCALED AT PI/8
001687:
001688: E6,1541                        DT                 ERASE                                          #  TIME ELAPSED SCALED AT 1/8: NOMINAL=50MS
001689: E6,1542                        DAPTIME            ERASE                                          #  USED TO RECORD LAST TIME FROM CHANNEL 4
001690:
001691: E6,1543                        STEERADR           ERASE                                          #  DTCALC SWITCH IN FILTER INITIALIZATION
001692:
001693: E6,1544                        DPDIFF             ERASE    +1                                    #  D.P. WEIGHTING VECTOR FACTOR AT PI
001694: E6,1546                        WPOINTER           ERASE                                          #  POINTER TO WEIGHTING VECTOR TABLE
001695: E6,1547                        W0                 ERASE    +2                                    #  THETA WEIGHT
001696: E6,1552  E6,1550               W1                 EQUALS   W0         +1                         #  OMEGA WEIGHT
001697: E6,1552  E6,1551               W2                 EQUALS   W1         +1                         #  ALPHA WEIGHT
001698:
001699: E6,1552                        CDUYFIL            ERASE    +1                                    #  Y-AXIS D.P. FILTERED THETA AT 2PI
001700:
001701: E6,1554                        CDUZFIL            ERASE    +1                                    #  Z-AXIS D.P. FILTERED THETA AT 2PI
001702: E6,1556                        DCDUYFIL           ERASE    +1                                    #  Y-AXIS D.P. FILTERED OMEGA AT PI/4
001703: E6,1560                        DCDUZFIL           ERASE    +1                                    #  Z-AXIS D.P. FILTERED OMEGA AT PI/4
001704: E6,1562                        D2CDUYFL           ERASE    +1                                    #  Y-AXIS D.P. FILTERED ALPHA AT PI/8
001705: E6,1564                        D2CDUZFL           ERASE    +1                                    #  Z-AXIS D.P. FILTERED ALPHA AT PI/8
001706: E6,1566                        Y3DOT              ERASE                                          #  Y-AXIS S.P. JERK AT PI/2(7)
001707: E6,1567                        CDU3DOT            ERASE                                          #                    LOOP REGISTER (SPACER)
001708: E6,1570                        Z3DOT              ERASE                                          #  Z-AXIS S.P. JERK AT PI/2(7)
001709:
001710: E6,1571                        PFILTADR           ERASE    +1                                    #  2CADR FOR FILTER RUPT 30 MS AFTER P-AXIS
001711: E6,1573                        PFRPTLST           ERASE    +7                                    #  POST FILTER RUPT LIST
001712:                                                                                                  #  TORQUE VECTOR RECONSTRUCTION VARIABLES:
001713:
001714: E6,1603                        JETRATE            ERASE    +2                                    #  WEIGHTED RATES DUE TO JETS APPLIED IN
001715: E6,1606  E6,1604               JETRATEQ           EQUALS   JETRATE    +1                         #  THE LAST CONTROL SAMPLE PERIOD OF 100 MS
001716: E6,1606  E6,1605               JETRATER           EQUALS   JETRATE    +2                         #  SCALED AT PI/4 RADIANS/SECOND
001717:
001718: E6,1606                        NO.QJETS           ERASE    +1                                    #  NUMBER OF Q AND R JETS THAT ARE GIVEN
001719: E6,1610  E6,1607               NO.RJETS           EQUALS   NO.QJETS   +1                         #  BY THE JET SELECT LOGIC
001720:
001721: E6,1610                        TP                 ERASE    +1                                    #  TIME CALCULATED BY TJETLAW FOR P, QR
001722: E6,1612  E6,1611               TQR                EQUALS   TP         +1                         #  SCALED AS TIME6, THEN TQR RESCALED TO 1
001723:
001724: E6,1612                        1JACC              ERASE    +4                                    #  ACCELERATIONS DUE TO 1 JET TORQUING
001725:


001727: E6,1617  E6,1613               1JACCQ             EQUALS   1JACC      +1                         #  SCALED AT PI/4 RADIANS/SECOND
001728: E6,1617  E6,1614               1JACCR             EQUALS   1JACC      +2
001729: E6,1617  E6,1615               1JACCU             EQUALS   1JACC      +3                         #  FOR U,V-AXES THE SCALE FACTOR IS  DIFF:
001730: E6,1617  E6,1616               1JACCV             EQUALS   1JACC      +4                         #  SCALED AT PI/2 RADIANS/SECOND (FOR ASC)
001731:
001732: E6,1617                        INERCTR            ERASE
001733: E6,1620                        INERCTRX           ERASE
001734:                                                                                                  #  ASCENT VARIABLES:
001735:
001736: E6,1621                        SUMRATEQ           ERASE    +1                                    #  SUM OF UN-WEIGHTED JETRATE TERMS
001737: E6,1623  E6,1622               SUMRATER           EQUALS   SUMRATEQ   +1                         #  SCALED AT PI/4 RADIANS/SECOND
001738:
001739: E6,1623                        OLDWFORQ           ERASE    +1                                    #  OMEGA VALUE 2 SECONDS AGO
001740: E6,1625  E6,1624               OLDWFORR           EQUALS   OLDWFORQ   +1                         #  SCALED AT PI/4 RADIANS/SECOND
001741:
001742: E6,1625                        DBMINIMP           ERASE    +1                                    #  MINIMUM IMPULSE DEADBANDS (EQUAL IN DESC
001743: E6,1627  E6,1626               MINIMPDB           EQUALS   DBMINIMP   +1                         #  AT .3 DEG, 0,-DB RESPECTIVELY FOR ASC)
001744:                                                                                                  #  SCALED AT PI RADIANS
001745:
001746: E6,1627                        .5ACCMNE           ERASE    +4                                    #  (1/2)(1/ACCMIN) WHICH IS THE INVERSE OF
001747: E6,1634  E6,1630               .5ACCMNQ           EQUALS   .5ACCMNE   +1                         #  THE MINIMUM ACCELERATION (A CONSTANT FOR
001748: E6,1634  E6,1631               .5ACCMNR           EQUALS   .5ACCMNE   +2                         #  DESCENT AND A VARIABLE FOR ASCENT DAP)
001749: E6,1634  E6,1632               .5ACCMNU           EQUALS   .5ACCMNE   +3                         #  SCALED AT 2(+8)/PI
001750: E6,1634  E6,1633               .5ACCMNV           EQUALS   .5ACCMNE   +4                         #  IN UNITS OF SECONDS(2)/RADIAN
001751:
001752: E6,1634                        WFORP              ERASE    +1                                    #  W = K/(NOMINAL DT)
001753: E6,1636  E6,1635               WFORQR             EQUALS   WFORP      +1                         #  SCALED AT 16
001754:
001755: E6,1636                        (1-K)              ERASE    +1                                    #  1-K SCALED AT 1
001756: E6,1640  E6,1637               (1-K)/8            EQUALS   (1-K)      +1                         #  1-K SCALED AT 8
001757:
001758: E6,1640                        1/NJTSQ            ERASE    +3                                    #  1/NJETACC FOR EACH AXIS
001759:
001760: E6,1644  E6,1641               1/NJTSR            EQUALS   1/NJTSQ    +1                         #  FOR DESCENT THIS IS ALWAYS 1/2JTS
001761: E6,1644  E6,1642               1/NJTSU            EQUALS   1/NJTSQ    +2                         #  FOR ASCENT WITH HIGH OFFSET: 1/4JTS
001762: E6,1644  E6,1643               1/NJTSV            EQUALS   1/NJTSQ    +3                         #  SCALED AT 2(8)/PI SEC(2)/RAD
001763:
001764: E6,1644                        KCOEFCTR           ERASE                                          #  COUNTER FOR ASCENT DAP
001765:
001766:
001767:
001768: E6,1645                        DLCDUIDX           ERASE                                          #  SAVE RATE INDEX, = 1, 0
001769: E6,1646                        PJUMPADR           ERASE
001770: E6,1647                        QJUMPADR           ERASE
001771: E6,1650                        100MSPTQ           ERASE
001772: E6,1651  E6,1650               QR.1ST0Q           =        100MSPTQ
001773: E6,1651                        NO.PJETS           ERASE
001774:
001775:
001776:                                                                                                  #  THE FOLLOWING LM DAP ERASABLES ARE ZEROED IN THE STARTDAP SECTION OF THE DAPIDLER PROGRAM AND THE COASTASC
001777:


001779:                                                                                                  #  SECTION OF THE AOSTASK.  THE ORDER MUST BE PRESERVED FOR THE INDEXING METHODS WHICH ARE EMPLOYED IN THOSE
001780:                                                                                                  #  SECTIONS AND ELSEWHERE.
001781:
001782: E6,1652                        AOSQ               ERASE    +3                                    #  ASCENT OFFSET ACCELERATION ESTIMATES:
001783: E6,1656  E6,1653               AOSR               EQUALS   AOSQ       +1                         #  ESTIMATED EVERY 2 SECONDS BY AOSTASK.
001784: E6,1656  E6,1654               AOSU               EQUALS   AOSQ       +2                         #  U,V-AXES ACCS FORMED BY VECTOR ADDITION.
001785: E6,1656  E6,1655               AOSV               EQUALS   AOSQ       +3                         #  SCALED AT PI/2 RADIANS/SECOND(2).
001786:
001787: E6,1656                        AOSQTERM           ERASE    +1                                    #  (.1-.05K)AOS
001788: E6,1660  E6,1657               AOSRTERM           EQUALS   AOSQTERM   +1                         #  SCALED AT PI/4 RADIANS/SECOND.
001789:
001790: E6,1660                        NJ+Q               ERASE    +7                                    #  2 JET OVER-RIDE FLAGS:
001791: E6,1670  E6,1661               NJ-Q               EQUALS   NJ+Q       +1                         #  WHENEVER THE OFFSET ACCELERATION ABOUT
001792: E6,1670  E6,1662               NJ+R               EQUALS   NJ+Q       +2                         #  AN AXIS IS SO HIGH THAT 2 JETS COULD NOT
001793:
001794: E6,1670  E6,1663               NJ-R               EQUALS   NJ+Q       +3                         #  CONTROL ATTITUDE SUCCESSFULLY, THEN NJ
001795: E6,1670  E6,1664               NJ+U               EQUALS   NJ+Q       +4                         #  FOR THAT AXIS (IN THE DIRECTION OPPOSING
001796: E6,1670  E6,1665               NJ-U               EQUALS   NJ+Q       +5                         #  AOS) IS SET TO 1.  OTHERWISE, THE VALUE
001797: E6,1670  E6,1666               NJ+V               EQUALS   NJ+Q       +6                         #  IS ZERO.  THESE FLAGS PREVENT TWO JETS
001798: E6,1670  E6,1667               NJ-V               EQUALS   NJ+Q       +7                         #  FROM BEING REQUESTED TO FIGHT THE AOS.
001799:
001800: E6,1670                        1/NET+2Q           ERASE    +15D
001801: E6,1710  E6,1671               1/NET+4Q           EQUALS   1/NET+2Q   +1
001802: E6,1710  E6,1672               1/NET-2Q           EQUALS   1/NET+2Q   +2
001803: E6,1710  E6,1673               1/NET-4Q           EQUALS   1/NET+2Q   +3
001804: E6,1710  E6,1674               1/NET+2R           EQUALS   1/NET+2Q   +4
001805: E6,1710  E6,1675               1/NET+4R           EQUALS   1/NET+2Q   +5
001806: E6,1710  E6,1676               1/NET-2R           EQUALS   1/NET+2Q   +6
001807: E6,1710  E6,1677               1/NET-4R           EQUALS   1/NET+2Q   +7
001808: E6,1710  E6,1700               1/NET+1U           EQUALS   1/NET+2Q   +8D
001809: E6,1710  E6,1701               1/NET+2U           EQUALS   1/NET+2Q   +9D
001810: E6,1710  E6,1702               1/NET-1U           EQUALS   1/NET+2Q   +10D
001811: E6,1710  E6,1703               1/NET-2U           EQUALS   1/NET+2Q   +11D
001812: E6,1710  E6,1704               1/NET+1V           EQUALS   1/NET+2Q   +12D
001813: E6,1710  E6,1705               1/NET+2V           EQUALS   1/NET+2Q   +13D
001814: E6,1710  E6,1706               1/NET-1V           EQUALS   1/NET+2Q   +14D
001815: E6,1710  E6,1707               1/NET-2V           EQUALS   1/NET+2Q   +15D
001816: E6,1710                        SIGNTAG            ERASE
001817:
001818: E6,1711  E6,1700               1/NETACS           EQUALS   1/NET+1U
001819:
001820: E6,1711                        1/ACCQ             ERASE    +1                                    #  INVERSE NET ACCELERATIONS FOR URGENCY.
001821: E6,1713  E6,1712               1/ACCR             EQUALS   1/ACCQ     +1                         #  SCALED AT 2(+8)/PI SECONDS(2)/RADIAN.
001822:
001823: E6,1713                        1/AMINQ            ERASE    +1                                    #  INVERSE MIN ACCELERATIONS FOR URGENCY.
001824: E6,1715  E6,1714               1/AMINR            EQUALS   1/AMINQ    +1                         #  SCALED AT 2(+8)/PI SECONDS(2)/RADIAN.
001825:
001826: E6,1715                        1/AMINU            ERASE
001827: E6,1716                        1/AMINV            ERASE
001828:
001829: E6,1717                        URGRATQ            ERASE    +1                                    #  URGENCY FUNCTION CORRECTION FACTOR RATIO
001830: E6,1721  E6,1720               URGRATR            EQUALS   URGRATQ    +1                         #  SCALED AT 1.
001831:


001833:                                                                                                  #  ITEMP AND RUPTREG ASSIGNMENTS IN LM DAP:
001834:
001835:                                                                                                  #  FOR EIGHTBAL SECTION:
001836:
001837: E6,1721     0061               AXISCNTR           EQUALS   ITEMP1                                #  LOOPCTR AND VARIABLE INDEXER.
001838: E6,1721     0062               TEMPERR            EQUALS   ITEMP2                                #  TEMPORARY STORAGE FOR BOUNDED ERROR.
001839:
001840:                                                                                                  #  FOR P-AXIS PROGRAM:
001841:
001842: E6,1721     0065               REL                EQUALS   ITEMP5                                #  TABLE INDEX USED BY P JET SELECT ROUTINE
001843: E6,1721     0066               CTR                EQUALS   ITEMP6                                #  TABLE ENTRY COUNTER USED BY P JET SELECT
001844:
001845:                                                                                                  #  FOR POLTYPEP PROGRAM:
001846:
001847: E6,1721     0070               TRANONLY           EQUALS   RUPTREG1                              #  FLAG FOR PURE TRANSLATION REQUESTS
001848: E6,1721     0071               ANYTRANS           EQUALS   RUPTREG2                              #  FLAG TO INDICATE DIRECTION OF TRAN..
001849: E6,1721     0072               TRANSNOW           EQUALS   RUPTREG3                              #  FLAG TO INDICATE TRANS. W/ ROT. POSSIBLE
001850: E6,1721     0073               TRANSAVE           EQUALS   RUPTREG4                              #  FLAG AND HOLDER FOR SAVED TRANS. POLICY
001851: E6,1721     0061               NETACNDX           EQUALS   ITEMP1                                #  INDEX TO INDICATE AXIS, NO., AND DIRECT.
001852:
001853: E6,1721     0062               TJETADR            EQUALS   ITEMP2                                #  GENADR OF RETURN TO TJETLAW
001854: E6,1721     0063               POLRELOC           EQUALS   ITEMP3                                #  POLICY TABLE INDEX (RELATIVE ADDRESS)
001855: E6,1721     0064               LOOPCTR            EQUALS   ITEMP4                                #  NUMBER OF ALTERNATE POLICIES.
001856: E6,1721     0065               THISPOLY           EQUALS   ITEMP5                                #  STORED POLICY TO ELIMINATE INDEXING.
001857: E6,1721     0066               1/NETACC           EQUALS   ITEMP6                                #  INV. NET ACC. FOR TJETLAW.
001858:
001859: E6,1721     0066               1/NJETAC           =        1/NETACC
001860:
001861: E6,1721  E6,1670               1/2JTSQ            =        1/NET+2Q
001862: E6,1721  E6,1674               1/2JTSR            =        1/NET+2R
001863: E6,1721  E6,1701               1/2JETSU           =        1/NET+2U
001864: E6,1721  E6,1705               1/2JETSV           =        1/NET+2V
001865:
001866:
001867:
001868:                                                                                                  #  FOR AOSTASK PROGRAM:
001869:
001870: E6,1721     0061               K                  EQUALS   ITEMP1
001871: E6,1721     0061               .1-.05K            EQUALS   ITEMP1
001872: E6,1721     0062               COEFFA             EQUALS   ITEMP2
001873: E6,1721     0062               .5-.5COF           EQUALS   ITEMP2
001874:
001875:                                                                                                  #  MPAC DESIGNATIONS FOR AOSJOB:
001876:
001877: E6,1721     0144               JOBAXES            EQUALS   MPAC                                  #  ADJACENT ENTRY INDEXER.
001878: E6,1721     0145               NJPLACE            EQUALS   MPAC       +1                         #  ONE APART ENTRY INDEXER.
001879: E6,1721     0146               TABPLACE           EQUALS   MPAC       +2                         #  THREE APART ENTRY INDEXER.
001880: E6,1721     0147               TEMPAOS            EQUALS   MPAC       +3                         #  - AOS TEMPORARY STORAGE (SCALED AT PI/2)
001881: E6,1721     0150               TEMPACC            EQUALS   MPAC       +4                         #  JET ACCELERATION TEMP.  (SCALED AT PI/2)
001882: E6,1721     0151               TEMPNET            EQUALS   MPAC       +5                         #  NET ACCELERATION TEMP.  (SCALED AT PI/2)

End of include-file ERASABLE_ASSIGNMENTS.agc.  Parent file is MAIN.agc


