
Source Code


000002:                                                                                                  ## Copyright:   Public domain.
000003:                                                                                                  ## Filename:    EXTENDED_VERBS.agc
000004:                                                                                                  ## Purpose:     A section of Sunburst revision 37, or Shepatin revision 0.
000005:                                                                                                  ##              It is part of an early development version of the software
000006:                                                                                                  ##              for Apollo Guidance Computer (AGC) on the unmanned Lunar
000007:                                                                                                  ##              Module (LM) flight Apollo 5. Sunburst 37 was the program
000008:                                                                                                  ##              upon which Don Eyles's offline development program Shepatin
000009:                                                                                                  ##              was based; the listing herein transcribed was actually for
000010:                                                                                                  ##              the equivalent revision 0 of Shepatin.
000011:                                                                                                  ##              This file is intended to be a faithful transcription, except
000012:                                                                                                  ##              that the code format has been changed to conform to the
000013:                                                                                                  ##              requirements of the yaYUL assembler rather than the
000014:                                                                                                  ##              original YUL assembler.
000015:                                                                                                  ## Reference:   pp. 187-214
000016:                                                                                                  ## Assembler:   yaYUL
000017:                                                                                                  ## Contact:     Ron Burkey <info@sandroid.org>.
000018:                                                                                                  ## Website:     www.ibiblio.org/apollo/index.html
000019:                                                                                                  ## Mod history: 2017-05-24 MAS  Created from Sunburst 120.
000020:                                                                                                  ##              2017-06-01 RSB  Transcribed.
000021:                                                                                                  ##              2017-06-15 HG   Fix operand BANKCALL -> INTPRET
000022:


000024: 11,2000                                           BANK     11
000025: 11,2000  E5,1500                                  EBANK=   OGC
000026:
000027:                                                                                                  #  FAN-OUT
000028:


000030:                                                                                                  #  NOTE OF SPECIAL IMPORT CONCERNING RADAR **
000031:


000057:                                                                                                  #           SINCE 206 HAS NO RADARS, THE INTERRUPT LEAD IN AND T4RUPT SERVICE ROUTINES HAVE BEEN DISCONNECTED IN
000058:                                                                                                  #  SUNBURST (REV 39).  THEREFORE, THE FOLLOWING VERBS SHOULD NOT BE USED:  40 WITH NOUN 40, 41 WITH NOUN 40, 45,
000059:                                                                                                  #  46, AND SEQUENCES 13 AND 14 OF VERB 57.
000060:
000061: 11,2000           02070        LST2FAN            TC       VBZERO                                #  VB40 ZERO (USED WITH NOUN 20 OR 40 ONLY)
000062: 11,2001           02073                           TC       VBCOARK                               #  VB41 COARSE ALIGN (USED WITH NOUN 20 OR
000063:                                                                                                  #                                  40 ONLY)
000064: 11,2002           02204                           TC       IMUFINEK                              #  VB42 FINE ALIGN IMU
000065: 11,2003           02573                           TC       IMUATTCK                              #  VB43  LOAD IMU ATTITUDE ERROR METERS.
000066: 11,2004           02066                           TC       ALM/END                               #  VB44 SPARE
000067: 11,2005           12126                           TCF      LRPOS2K                               #  VB45 COMMAND LR TO POSITION 2.
000068:
000069: 11,2006           02415                           TC       REGRSAMP                              #  VB46 SAMPLE RADAR ONCE PER SECOND
000070: 11,2007           02407                           TC       DOFCSTST                              #  VB47 PERFORM LEM FCS TEST
000071: 11,2010           02262                           TC       GOLOADLV                              #  VB50 PLEASE PERFORM
000072: 11,2011           02262                           TC       GOLOADLV                              #  VB51 PLEASE MARK
000073: 11,2012           02262                           TC       GOLOADLV                              #  VB52 PLEASE MARK Y
000074: 11,2013           02262                           TC       GOLOADLV                              #  VB53 PLEASE MARK X OR Y.
000075: 11,2014           02266                           TC       TORQGYRS                              #  VB54 PULSE TORQUE GYROS
000076: 11,2015           02303                           TC       ALINTIME                              #  VB55 ALIGN TIME
000077: 11,2016           02405                           TC       GOSHOSUM                              #  VB56 PERFORM BANKSUM
000078: 11,2017           02327                           TC       SYSTEST                               #  VB57 PERFORM SYSTEM TEST
000079: 11,2020           03126                           TC       PRESTAND                              #  VB60 PREPARE FOR STANDBY
000080: 11,2021           03174                           TC       POSTAND                               #  VB61 RECOVER FROM STANDBY
000081: 11,2022           02641                           TC       SETUPMSG                              #  VB62 SCAM LEM INBITS
000082: 11,2023           12531                           TCF      AGSINIT                               #  VB63 INITIALIZE AGS
000083: 11,2024           13273                           TCF      64UPDAT                               #  VB64 SET TIMER TO GROUND ELAPSED TIME
000084: 11,2025           13247                           TCF      65UPDAT                               #  VB65 SET GUIDANCE REFERENCE RELEASE DISC
000085: 11,2026           13253                           TCF      66UPDAT                               #  VB66 INITIATE LGC DFI TLM CALIBRATE RTN
000086: 11,2027           13261                           TCF      67UPDAT                               #  VB67 SEND COMMAND TO LMP
000087: 11,2030           13265                           TCF      70UPDAT                               #  VB70 SET MISSION TIMER
000088: 11,2031           13267                           TCF      71UPDAT                               #  VB71 SET MISSION PHASE REGISTER
000089: 11,2032           13275                           TCF      72UPDAT                               #  VB72 SET MISSION PHASE REGISTER + TIMER
000090: 11,2033           13257                           TCF      73UPDAT                               #  VB73 RESET DPS OR RPS COLD SOAK DISC
000091: 11,2034           13251                           TCF      74UPDAT                               #  VB74 STOP MISSION TIMERS
000092:
000093: 11,2035           13306                           TCF      75UPDAT                               #  VB75 TARGET PARAMETER UPDATE
000094: 11,2036           13301                           TCF      76UPDAT                               #  VB76 STATE VECTOR UPDATE
000095: 11,2037           02066                           TC       ALM/END
000096:
000097: 11,2040           37753        TESTXACT           CAF      BIT3
000098: 11,2041           70336                           MASK     EXTVBACT
000099: 11,2042           10000                           CCS      A
000100: 11,2043           02053                           TC       XACTALM
000101:


000103: 11,2044           47753        XACT1              CS       BIT3
000104: 11,2045           00004                           INHINT
000105:
000106: 11,2046           70336                           MASK     EXTVBACT
000107: 11,2047           67753                           AD       BIT3
000108: 11,2050           54336                           TS       EXTVBACT
000109: 11,2051           00003                           RELINT
000110: 11,2052           00002                           TC       Q
000111:
000112: 11,2053           04560        XACTALM            TC       FALTON
000113: 11,2054           05605                           TC       ENDOFJOB
000114:
000115: 11,2055           04713        TERMEXTV           TC       FREEDSP                               #  IF WE GET A TERMINATE INSTEAD OF A LOAD.
000116:
000117: 11,2056           02060        ENDEXTVB           TC       XACT0
000118: 11,2057           05605                           TC       ENDOFJOB
000119:
000120: 11,2060           47753        XACT0              CS       BIT3
000121: 11,2061           00004                           INHINT
000122: 11,2062           70336                           MASK     EXTVBACT
000123: 11,2063           54336                           TS       EXTVBACT
000124: 11,2064           00003                           RELINT
000125: 11,2065           00002        XACT0Q             TC       Q
000126:
000127: 11,2066           04560        ALM/END            TC       FALTON
000128: 11,2067           02056                           TC       ENDEXTVB
000129:
000130:
000131: 11,2070           02076        VBZERO             TC       OP/INERT
000132: 11,2071           02110                           TC       IMUZEROK                              #  RETURN HERE IF NOUN = ICDU(20)
000133: 11,2072           02117                           TC       RRZEROK                               #  RETURN HERE IF NOUN = RCDU(40)
000134:
000135: 11,2073           02076        VBCOARK            TC       OP/INERT
000136: 11,2074           02132                           TC       IMUCOARK                              #  RETURN HERE IF NOUN = ICDU (20)
000137: 11,2075           02234                           TC       RRDESNBK                              #  RETURN HERE IF NOUN = RCDU (40)
000138:
000139:                                                                                                  #           RETURNS TO L+1 IF IMU OR L+2 IF RR.
000140:
000141: 11,2076           47751        OP/INERT           CS       BIT5                                  #  OCT20
000142: 11,2077           60273                           AD       NOUNREG
000143: 11,2100           00006                           EXTEND
000144: 11,2101           12065                           BZF      XACT0Q                                #  IF = 20.
000145:
000146: 11,2102           24002                           INCR     Q
000147: 11,2103           62107                           AD       RRIMUDIF                              #  = -20 OCT.
000148: 11,2104           00006                           EXTEND
000149: 11,2105           12065                           BZF      XACT0Q
000150:


000152: 11,2106           02066                           TC       ALM/END                               #  ILLEGAL.
000153:
000154: 11,2107           77757        RRIMUDIF           OCT      -20
000155:


000157:                                                                                                  #  KEYBOARD REQUEST TO ZERO IMU ENCODERS
000158:
000159: 11,2110           02040        IMUZEROK           TC       TESTXACT                              #  ZERO ENCODERS.
000160: 11,2111           05224                           TC       BANKCALL
000161: 11,2112           26000                           CADR     IMUZERO
000162:
000163: 11,2113           05224                           TC       BANKCALL                              #  STALL
000164: 11,2114           26762                           CADR     IMUSTALL
000165: 11,2115           02116                           TC       +1
000166:
000167: 11,2116           02056                           TC       ENDEXTVB
000168: 11,2117           02040        RRZEROK            TC       TESTXACT
000169: 11,2120           05224                           TC       BANKCALL                              #  ZERO RR CDUS.
000170: 11,2121           20247                           CADR     RRZERO
000171:
000172: 11,2122           05224        RWAITK             TC       BANKCALL
000173: 11,2123           26756                           CADR     RADSTALL
000174: 11,2124           12125                           TCF      +1
000175: 11,2125           12056                           TCF      ENDEXTVB
000176:
000177: 11,2126           02040        LRPOS2K            TC       TESTXACT                              #  COMMAND LR TO POSITION 2.
000178: 11,2127           05224                           TC       BANKCALL
000179: 11,2130           21161                           CADR     LRPOS2
000180: 11,2131           12122                           TCF      RWAITK
000181:


000183:                                                                                                  #  KEYBOARD REQUEST TO COARSE ALIGN THE IMU
000184:
000185: 11,2132           02040        IMUCOARK           TC       TESTXACT                              #  COARSE ALIGN FROM KEYBOARD.
000186: 11,2133           04633                           TC       GRABWAIT
000187: 11,2134           32152                           CAF      VNLODCDU                              #  CALL FOR THETAD LOAD
000188: 11,2135           04646                           TC       NVSBWAIT
000189: 11,2136           04464                           TC       ENDIDLE                               #  STALL WAITING FOR THE LOAD
000190: 11,2137           02055                           TC       TERMEXTV
000191: 11,2140           02154                           TC       ICSDEL                                #  PROCEED - ASK FOR INCREMENTAL LOAD.
000192:
000193: 11,2141           32153        ICORK2             CAF      IMUCOARV                              #  RE-DISPLAY COARSE ALIGN VERB.
000194: 11,2142           04646                           TC       NVSBWAIT
000195: 11,2143           04713                           TC       FREEDSP                               #  RELEASE THE DISPLAYS
000196:
000197: 11,2144           05224                           TC       BANKCALL                              #  CALL MODE SWITCHING PROG
000198: 11,2145           26065                           CADR     IMUCOARS
000199:
000200: 11,2146           05224                           TC       BANKCALL                              #  STALL
000201: 11,2147           26762                           CADR     IMUSTALL
000202: 11,2150           02056                           TC       ENDEXTVB
000203:
000204: 11,2151           02056                           TC       ENDEXTVB
000205:
000206: 11,2152           02522        VNLODCDU           OCT      02522
000207: 11,2153           04100        IMUCOARV           OCT      04100
000208:


000210:                                                                                                  #           PROVISION FOR COARSE ALIGN TO INCREMENTAL ANGLES.
000211:
000212: 11,2154           32202        ICSDEL             CAF      DELLOAD
000213: 11,2155           04646                           TC       NVSBWAIT                              #  REQUEST LOAD OF DELTA ICDU ANGLES.
000214: 11,2156           04464                           TC       ENDIDLE
000215: 11,2157           02055                           TC       TERMEXTV
000216: 11,2160           02141                           TC       ICORK2                                #  PROCEED WITHOUT DATA HERE TOO.
000217: 11,2161           02163                           TC       INCLOOP                               #  LOOP TO INCREMENT THETAD FROM DSPTEM2.
000218: 11,2162           02141                           TC       ICORK2                                #  RE-DISPLAY COARSE ALIGN VERB.
000219:
000220: 11,2163           56002        INCLOOP            XCH      Q                                     #  INCREMENTS THETADS IN 2S COMPLEMENT FROM
000221: 11,2164           54144                           TS       MPAC                                  #   THREE ANGLE INCREMENTS IN DSPTEM2S.
000222: 11,2165           32203                           CAF      LTHD+2
000223: 11,2166           54120                           TS       BUF                                   #  SET UP FOR CDUINC.
000224: 11,2167           37754                           CAF      TWO                                   #  THREE TIMES THROUGH.
000225:
000226: 11,2170           54145        INCLOOP2           TS       MPAC       +1
000227: 11,2171           50000                           INDEX    A
000228: 11,2172           56342                           XCH      DSPTEM2                               #  INCREMENT TO TEM2 FOR CDUINC.
000229: 11,2173           05224                           TC       BANKCALL
000230: 11,2174           33647                           CADR     CDUINC
000231: 11,2175           10120                           CCS      BUF
000232: 11,2176           54120                           TS       BUF
000233: 11,2177           10145                           CCS      MPAC       +1
000234: 11,2200           02170                           TC       INCLOOP2
000235:
000236: 11,2201           00144                           TC       MPAC                                  #  RETURN WHEN FINISHED.
000237:
000238: 11,2202           02523        DELLOAD            OCT      02523
000239: 11,2203           00402        LTHD+2             ADRES    THETAD     +2
000240:


000242:                                                                                                  #  KEYBOARD REQUEST TO FINE ALIGN AND GYRO TORQUE IMU
000243:
000244: 11,2204           02040        IMUFINEK           TC       TESTXACT                              #  FINE ALIGN WITH GYRO TORQUING.
000245: 11,2205           04633                           TC       GRABWAIT
000246: 11,2206           32232                           CAF      VNLODGYR                              #  CALL FOR LOAD OF GYRO COMMANDS
000247: 11,2207           04646                           TC       NVSBWAIT
000248: 11,2210           04464                           TC       ENDIDLE                               #  HOLD UP FOR THE DATA LOAD
000249: 11,2211           02055                           TC       TERMEXTV
000250:
000251: 11,2212           02213                           TC       +1                                    #  PROCEED WITHOUT A LOAD
000252:
000253: 11,2213           32233                           CAF      IMUFINEV                              #  RE-DISPLAY OUR OWN VERB
000254: 11,2214           04646                           TC       NVSBWAIT
000255: 11,2215           04713                           TC       FREEDSP                               #  RELEASE DISPLAYS
000256:
000257: 11,2216           05224                           TC       BANKCALL                              #  CALL MODE SWITCH PROG
000258: 11,2217           26251                           CADR     IMUFINE
000259:
000260: 11,2220           05224                           TC       BANKCALL                              #  HIBERNATION
000261: 11,2221           26762                           CADR     IMUSTALL
000262: 11,2222           02056                           TC       ENDEXTVB
000263:
000264: 11,2223           32301        FINEK2             CAF      LGYROBIN                              #  PINBALL LEFT COMMANDS IN OGC REGIST5RS
000265: 11,2224           05224                           TC       BANKCALL
000266: 11,2225           26361                           CADR     IMUPULSE
000267:
000268: 11,2226           05224                           TC       BANKCALL                              #  WAIT FOR PULSES TO GET OUT.
000269: 11,2227           26762                           CADR     IMUSTALL
000270: 11,2230           02056                           TC       ENDEXTVB
000271: 11,2231           02056                           TC       ENDEXTVB
000272:
000273: 11,2232           02567        VNLODGYR           OCT      02567
000274:
000275: 11,2233           04200        IMUFINEV           OCT      04200                                 #  FINE ALIGN VERB
000276:


000278:                                                                                                  #  DESIGNATE TO DESIRED GIMBAL ANGLES.
000279:
000280: 11,2234           02040        RRDESNBK           TC       TESTXACT
000281: 11,2235           04633                           TC       GRABWAIT
000282: 11,2236           32255                           CAF      VNLDRCDU                              #  ASK FOR GIMBAL ANGLES.
000283: 11,2237           04646                           TC       NVSBWAIT
000284: 11,2240           04464                           TC       ENDIDLE                               #  WAIT FOR THE LOAD
000285: 11,2241           02055                           TC       TERMEXTV
000286: 11,2242           02243                           TC       +1                                    #  PROCEED
000287:
000288: 11,2243           05224                           TC       BANKCALL                              #  ASK OP FOR LOCK ON REQUIREMENTS.
000289: 11,2244           22765                           CADR     AURLOKON
000290:
000291: 11,2245           32153                           CAF      OPTCOARV                              #  RE-DISPLAY OUR OWN VERB
000292: 11,2246           04646                           TC       NVSBWAIT
000293: 11,2247           00004                           INHINT                                         #  FIRE UP JOB TO DO DESIGNATE.
000294: 11,2250           37740                           CAF      PRIO20
000295: 11,2251           05534                           TC       FINDVAC
000296: 11,2252  E5,1500                                  EBANK=   OGC
000297: 11,2252           02256 22005                     2CADR    RRDESK2
000298:
000299: 11,2254           12055                           TCF      TERMEXTV                              #  FREES DISPLAY.
000300:
000301: 11,2255           02441        VNLDRCDU           OCT      2441
000302: 11,2256  11,2153               OPTCOARV           EQUALS   IMUCOARV                              #  DIFFERENT NOUNS.
000303:
000304: 11,2256           06103        RRDESK2            TC       INTPRET
000305:
000306: 11,2257           77624                           CALL
000307: 11,2260           20363                                    RRDESNB                               #  RETURNS IN BASIC.
000308:
000309: 11,2261           02122                           TC       RWAITK
000310:
000311:                                                                                                  #  PLEASE PERFORM VERB AND PLEASE MARK VERB ----- PRESSING ENTER INDICATES
000312:                                                                                                  #  ACTION REQUESTED HAS BEEN PERFORMED, AND DOES SAME RECALL AS A COMPLETED
000313:                                                                                                  #  LOAD.  OPERATOR SHOULD DO VB PROCEED WITHOUT DATA IF HE WISHES NOT TO
000314:                                                                                                  #  PERFORM THE REQUESTED ACTION.
000315:
000316: 11,2262           04615        GOLOADLV           TC       FLASHOFF
000317: 11,2263           02060                           TC       XACT0
000318: 11,2264           05243                           TC       POSTJUMP
000319: 11,2265           12002                           CADR     LOADLV1
000320:


000322:                                                                                                  #  KEYBOARD REQUEST TO PULSE TORQUE IRIGA
000323:
000324: 11,2266           02040        TORQGYRS           TC       TESTXACT                              #  GYRO TORQUING WITH NO MODE-SWITCH.
000325: 11,2267           04633                           TC       GRABWAIT
000326: 11,2270           32232                           CAF      VNLODGYR
000327: 11,2271           04646                           TC       NVSBWAIT
000328: 11,2272           04464                           TC       ENDIDLE
000329: 11,2273           02055                           TC       TERMEXTV
000330: 11,2274           02275                           TC       +1
000331: 11,2275           32302                           CAF      TORQGYRV                              #  RE-DISPLAY OUR OWN VERB
000332: 11,2276           04646                           TC       NVSBWAIT
000333: 11,2277           04713                           TC       FREEDSP
000334: 11,2300           12223                           TCF      FINEK2
000335:
000336: 11,2301           00403        LGYROBIN           ECADR    DELVX
000337: 11,2302           05400        TORQGYRV           OCT      05400
000338:


000340:                                                                                                  #  ALIGN TIME
000341: 11,2303           32326        ALINTIME           CAF      VNLODDT                               #  USES NVSUBMON. DOES NOT TEST DSPLOCK.
000342:
000343: 11,2304           54113                           TS       NVTEMP                                #  DOES NOT KILL MONITOR.
000344: 11,2305           04447                           TC       NVSUBMON
000345: 11,2306           05605                           TC       ENDOFJOB                              #  IN CASE OF ALARM IN LOAD REQUEST SET UP.
000346: 11,2307           04464                           TC       ENDIDLE
000347: 11,2310           05605                           TC       ENDOFJOB                              #  TERMINATE
000348: 11,2311           05605                           TC       ENDOFJOB                              #  PROCEED WITHOUT DATA
000349: 11,2312           00004        UPDATIME           INHINT                                         #  DELTA TIME IS IN DSPTEM1, +1.
000350: 11,2313           37761                           CAF      ZERO
000351: 11,2314           54146                           TS       MPAC       +2                         #  NEEDED FOR TP AGREE
000352: 11,2315           54001                           TS       L                                     #  ZERO T1 & T2 WHILE ALIGNING.
000353: 11,2316           52025                           DXCH     TIME2
000354: 11,2317           52145                           DXCH     MPAC
000355: 11,2320           52340                           DXCH     DSPTEM1                               #  INCREMENT.
000356: 11,2321           20145                           DAS      MPAC
000357:
000358: 11,2322           07320                           TC       TPAGREE                               #  FORCE SIGN AGREEMENT.
000359: 11,2323           52145                           DXCH     MPAC                                  #  NEW CLOCK.
000360: 11,2324           20025                           DAS      TIME2
000361: 11,2325           05605                           TC       ENDOFJOB
000362:
000363: 11,2326           02124        VNLODDT            OCT      02124                                 #  V/N FOR LOAD DELTA TIME
000364:


000366:                                                                                                  #           SELECT AND INITIATE DESIRED SYSTEM TEST PROGRAM.
000367:
000368: 11,2327  E5,1546                                  EBANK=   QPLACE
000369:
000370: 11,2327           10302        SYSTEST            CCS      MODREG                                #  DEMAND MODE 00.
000371: 11,2330           12053                           TCF      XACTALM
000372:
000373: 11,2331           04633                           TC       GRABWAIT
000374:
000375: 11,2332           32404        REDO               CAF      LQPL                                  #  ASK FOR TEST OPTION (1 - 7).
000376: 11,2333           54146                           TS       MPAC       +2
000377: 11,2334           32403                           CAF      TESTNV
000378: 11,2335           04646                           TC       NVSBWAIT
000379: 11,2336           04464                           TC       ENDIDLE
000380: 11,2337           05604                           TC       EJFREE
000381: 11,2340           02332                           TC       REDO
000382:
000383: 11,2341           04105                           TC       NEWMODEX
000384: 11,2342           00007                           OCT      07
000385:
000386: 11,2343           00004                           INHINT
000387: 11,2344           37740                           CAF      PRIO20
000388: 11,2345           05534                           TC       FINDVAC
000389: 11,2346  E5,1500                                  EBANK=   OGC
000390: 11,2346           02351 22005                     2CADR    TSELECT
000391:
000392: 11,2350           05605                           TC       ENDOFJOB                              #  LEAVING DISPLAY GRABBED FOR SYSTEM TEST.
000393:
000394: 11,2351           45361        TSELECT            CS       LOW4                                  #    OCTAL 17 OPTIONS WITHOUT OPERATOR ERRO
000395: 11,2352           61546                           AD       QPLACE
000396: 11,2353           00006                           EXTEND
000397: 11,2354           62357                           BZMF     +3
000398:
000399: 11,2355           04560                           TC       FALTON
000400: 11,2356           02332                           TC       REDO
000401: 11,2357           51546                           INDEX    QPLACE
000402: 11,2360           32362                           CAF      TESTCADR
000403: 11,2361           05246                           TC       BANKJUMP
000404:
000405:                                                                                                  #           DON'T USE 13 OR 14 (SEE NOTE ON USER'S PAGE 1).
000406:
000407: 11,2362           22066        TESTCADR           CADR     ALM/END                               #  0  ILLEGAL
000408: 11,2363           50000                           CADR     IMUTEST                               #  1  GYRO DRIFT TEST
000409: 11,2364           50024                           CADR     IMUBACK                               #  2 REPEAT OF IMUTEST
000410: 11,2365           30000                           CADR     AOTNBIMU                              #  3  IMU ALIGNMENT TEST
000411: 11,2366           50247                           CADR     OPCHK                                 #  4  IMU CHECK
000412: 11,2367           50447                           CADR     GYRSFTST                              #  5  GYRO TORQUING TEST
000413: 11,2370           22066                           CADR     ALM/END                               #  6  AVAILABLE
000414: 11,2371           73405                           CADR     GTSCPSS                               #  7. GYROCOMPASS
000415: 11,2372           46556                           CADR     SAMODCHK                              #  10 SEMI-AUTOMATIC MODING CHECK
000416: 11,2373           31326                           CADR     SAUTOIFS                              #  11 SEMI-AUTOMATIC INTERFACE TEST
000417: 11,2374           31564                           CADR     AOTANGCK                              #  12 AOT ANGLE CHECK


000419: 11,2375           31122                           CADR     RDRINIT                               #  13 RENDEZVOUS RADAR / ANTENNAE TRACKING
000420: 11,2376           22411                           CADR     FSTRSAMP                              #  14 HIGH SPEED RADAR SAMPLING.
000421:
000422: 11,2377           31615                           CADR     ZEROERAS
000423: 11,2400           23014                           CADR     DISINDT                               #  DISPLAY INERTIAL DATA TEST.
000424: 11,2401           22066                           CADR     ALM/END
000425: 11,2402           22066                           CADR     ALM/END
000426: 11,2403           02101        TESTNV             OCT      2101
000427: 11,2404           02546        LQPL               ECADR    QPLACE
000428: 11,2405           05243        GOSHOSUM           TC       POSTJUMP                              #  START ROUTINE TO DISPLAY SUM OF EACH
000429: 11,2406           77507                           CADR     SHOWSUM                               #  BANK ON DSKY
000430:
000431: 11,2407           05243        DOFCSTST           TC       POSTJUMP
000432: 11,2410           14467                           CADR     FCSSTART
000433:


000435:                                                                                                  #           SET UP FOR RADAR SAMPLING.
000436:
000437: 11,2411  E7,1435                                  EBANK=   RSTKLOC
000438:
000439: 11,2411           32500        FSTRSAMP           CAF      RSTKLIST                              #  HIGH SPEED SAMPLING. SWITCH TO SPECIAL
000440: 11,2412           54411                           TS       DNLSTADR                              #  DOWNLIST.
000441: 11,2413           47755                           CS       ONE                                   #  WANTS TM BUFFERING.
000442: 11,2414           12417                           TCF      RSAMPTST
000443:
000444: 11,2415           04633        REGRSAMP           TC       GRABWAIT
000445: 11,2416           35223                           CAF      1SEC+1                                #  SHOWS NO TM BUFFERING.
000446:
000447: 11,2417           54146        RSAMPTST           TS       MPAC       +2
000448: 11,2420           00004                           INHINT
000449: 11,2421           42501                           CS       LRPOSCAL                              #  INITIALIZE SCALE AND LR POSITION BITS.
000450: 11,2422           70413                           MASK     RADMODES
000451: 11,2423           54413                           TS       RADMODES
000452:
000453: 11,2424           32501                           CAF      LRPOSCAL
000454: 11,2425           00006                           EXTEND
000455:
000456: 11,2426           02033                           RAND     33
000457: 11,2427           26413                           ADS      RADMODES
000458:
000459: 11,2430           00003                           RELINT
000460: 11,2431           32452                           CAF      LRTSTDEX
000461: 11,2432           54003                           TS       EBANK
000462: 11,2433           56146                           XCH      MPAC       +2
000463: 11,2434           55436                           TS       RSAMPDT                               #  HI SPEED NNZ - LO SPEED PNZ.
000464: 11,2435           37761                           CAF      ZERO
000465: 11,2436           55435                           TS       RTSTLOC
000466: 11,2437           55437                           TS       RFAILCNT                              #  ZERO BAD SAMPLE COUNTER.
000467: 11,2440           32476                           CAF      HISPMAX
000468: 11,2441           55433                           TS       RTSTMAX
000469:
000470: 11,2442           32477                           CAF      RTSTNV
000471: 11,2443           04646                           TC       NVSBWAIT
000472: 11,2444           04464                           TC       ENDIDLE
000473: 11,2445           05604                           TC       EJFREE                                #  ON TERMINATE.
000474: 11,2446           12502                           TCF      RSEMIAUT                              #  PROCEED MEANS SEMI-AUTO SEQUENCING.
000475: 11,2447           04713        RDRDFREE           TC       FREEDSP
000476: 11,2450           11436                           CCS      RSAMPDT                               #  SEE IF HI OR LO SPEED SAMPLING.
000477: 11,2451           12455                           TCF      +4
000478:
000479: 11,2452           03432        LRTSTDEX           ECADR    RTSTDEX
000480:
000481: 11,2453           05243                           TC       POSTJUMP                              #  EXEC. OTHERWISE, SET UP WAITLIST TIMING.
000482: 11,2454           21300                           CADR     DORSAMP
000483:
000484: 11,2455           36276                           CAF      SIX                                   #  FIND OUT WHICH RADAR WANTED.
000485: 11,2456           71432                           MASK     RTSTDEX
000486:


000488: 11,2457           10000                           CCS      A
000489: 11,2460           12464                           TCF      LRCYCLE                               #  LANDING RADAR ARE SERIALS 2 - 5.
000490:
000491: 11,2461           55434                           TS       RTSTBASE                              #  FOR RR BASE = 0, MAX = 1.
000492: 11,2462           36276                           CAF      SIX
000493: 11,2463           12467                           TCF      +4
000494:
000495: 11,2464           37754        LRCYCLE            CAF      TWO                                   #  FOR LR BASE = 2, MAX = 3.
000496: 11,2465           55434                           TS       RTSTBASE
000497: 11,2466           32475                           CAF      18R
000498:
000499: 11,2467           55433                 +4        TS       RTSTMAX
000500: 11,2470           00004                           INHINT
000501: 11,2471           05701                           TC       WAITLIST
000502: 11,2472  E7,1435                                  EBANK=   RSTKLOC
000503: 11,2472           03260 20007                     2CADR    RADSAMP
000504:
000505: 11,2474           05605                           TC       ENDOFJOB
000506:
000507: 11,2475           00022        18R                DEC      18         B-14
000508: 11,2476           00102        HISPMAX            DEC      66         B-14
000509: 11,2477           02101        RTSTNV             OCT      2101
000510: 11,2500           02001        RSTKLIST           GENADR   UPDNLIST
000511: 11,2501           00444        LRPOSCAL           OCT      444
000512:


000514:                                                                                                  #           SEMI-AUTO RADAR TESTING.
000515:
000516: 11,2502           00004        RSEMIAUT           INHINT
000517: 11,2503           35665                           CAF      PRIO25                                #  START HI SPEED SAMPLING.
000518: 11,2504           05523                           TC       NOVAC
000519: 11,2505  E7,1435                                  EBANK=   RSTKLOC
000520: 11,2505           03300 20007                     2CADR    DORSAMP
000521:
000522: 11,2507           00003                           RELINT
000523: 11,2510           37760                           CAF      FIVE                                  #  SEQUENCE THROUGH ALL SIX CHANNELS.
000524: 11,2511           55432                 -1        TS       RTSTDEX
000525:
000526: 11,2512           32530        33PASTE            CAF      RV33                                  #  ON ENTER, SWITCH TO NEXT CHANNEL.
000527: 11,2513           04646                           TC       NVSBWAIT
000528: 11,2514           04611                           TC       FLASHON
000529: 11,2515           04464                           TC       ENDIDLE
000530: 11,2516           02523                           TC       ENDRTST                               #  ON TERMINATE.
000531: 11,2517           12521                           TCF      +2
000532: 11,2520           12512                           TCF      33PASTE                               #  DONT ACCEPT DATA.
000533:
000534: 11,2521           11432                           CCS      RTSTDEX
000535: 11,2522           12511                           TCF      33PASTE    -1
000536:
000537: 11,2523           37761        ENDRTST            CAF      ZERO                                  #  ENDTEST.
000538: 11,2524           55436                           TS       RSAMPDT
000539: 11,2525           04105                           TC       NEWMODEX
000540: 11,2526           00000                           OCT      0
000541: 11,2527           05604                           TC       EJFREE
000542:
000543: 11,2530           03300        RV33               OCT      3300
000544:


000546:                                                                                                  #           AGS INITIALIZATION PROGRAM.
000547:
000548: 11,2531           10412        AGSINIT            CCS      AGSWORD                               #  ZERO IF AGS NOT NOW BEING INITIALIZED
000549: 11,2532           02066                           TC       ALM/END                               #  DO IT LATER.
000550:
000551: 11,2533           30025                           CA       TIME1
000552: 11,2534           62571                           AD       12SECS
000553: 11,2535           54001                           TS       L
000554: 11,2536           02553                           TC       SENDIT
000555:
000556: 11,2537           00004                           INHINT                                         #  T1 WILL OVERFLOW, DELAY FOR 12 SECS
000557: 11,2540           32571                           CA       12SECS
000558: 11,2541           54412                           TS       AGSWORD
000559: 11,2542           05701                           TC       WAITLIST
000560:
000561: 11,2543  E7,1435                                  EBANK=   RSTKLOC
000562: 11,2543           02546 22007                     2CADR    AGSJOB
000563:
000564: 11,2545           05605                           TC       ENDOFJOB
000565:
000566: 11,2546           35226        AGSJOB             CAF      PRIO30                                #  ENTER AGSINIT JOB VIA EXEC
000567: 11,2547           05523                           TC       NOVAC
000568: 11,2550  E7,1435                                  EBANK=   RSTKLOC
000569: 11,2550           02553 22007                     2CADR    SENDIT
000570:
000571: 11,2552           05745                           TC       TASKOVER
000572:
000573: 11,2553           00004        SENDIT             INHINT
000574: 11,2554           32572                           CAF      LAGSLIST                              #  SWITCH TO SPECIAL DOWNLIST FOR 10 SECS.
000575: 11,2555           56411                           XCH      DNLSTADR
000576: 11,2556           54412                           TS       AGSWORD                               #  TO SHOW INITIALIZATION IN PROGRESS.
000577:
000578: 11,2557           32570                           CAF      10SECS
000579: 11,2560           05701                           TC       WAITLIST
000580: 11,2561  E7,1435                                  EBANK=   RSTKLOC
000581: 11,2561           02564 22007                     2CADR    AGSINIT2
000582:
000583: 11,2563           15605                           TCF      ENDOFJOB
000584:
000585: 11,2564           37761        AGSINIT2           CAF      ZERO                                  #  END OF INITIALIZATION.
000586: 11,2565           56412                           XCH      AGSWORD
000587: 11,2566           54411                           TS       DNLSTADR                              #  REVERT TO ORIGINAL DOWNLIST.
000588: 11,2567           15745                           TCF      TASKOVER
000589:
000590: 11,2570           01750        10SECS             DEC      1000       B-14
000591: 11,2571           02260        12SECS             DEC      1200       B-14
000592: 11,2572           02001        LAGSLIST           GENADR   AGSLIST
000593:


000595:                                                                                                  #           VB 43  IMU ATTITUDE ERROR METER LOADER.
000596:
000597: 11,2573           02040        IMUATTCK           TC       TESTXACT
000598: 11,2574           42636                           CS       OCT50K                                #  REMOVE COARSE AND ECTR ENABLE.
000599: 11,2575           00006                           EXTEND
000600: 11,2576           03012                           WAND     12
000601:
000602: 11,2577           04633                           TC       GRABWAIT
000603: 11,2600           32152                           CAF      VNLODCDU
000604: 11,2601           04646                           TC       NVSBWAIT
000605: 11,2602           04464                           TC       ENDIDLE
000606: 11,2603           02055                           TC       TERMEXTV
000607: 11,2604           02605                           TC       +1
000608: 11,2605           32637                           CAF      V43K                                  #  REDISPLAY OUR VERB.
000609: 11,2606           04646                           TC       NVSBWAIT
000610: 11,2607           37750                           CAF      BIT6                                  #  ENABLE ERROR COUNTER.
000611: 11,2610           00006                           EXTEND
000612: 11,2611           05012                           WOR      12
000613: 11,2612           37754                           CAF      TWO
000614: 11,2613           00004                           INHINT
000615:
000616: 11,2614           05701                           TC       WAITLIST                              #  PUT OUT COMMAND IN .32 SECS.
000617: 11,2615  E7,1435                                  EBANK=   RSTKLOC
000618: 11,2615           02620 22007                     2CADR    ATTCK2
000619:
000620: 11,2617           12055                           TCF      TERMEXTV                              #  FREES DISPLAY.
000621:
000622: 11,2620           37754        ATTCK2             CAF      TWO                                   #  PUT OUT ALL COMMANDS - CDU WILL DO LIMIT
000623: 11,2621           54002                           TS       Q                                     #  INCASE OF EXCESS DATA.
000624: 11,2622           50000                           INDEX    A
000625: 11,2623           30400                           CA       THETAD
000626: 11,2624           00006                           EXTEND
000627: 11,2625           77741                           MP       BIT13                                 #  SHIFT RIGHT 2.
000628: 11,2626           50002                           INDEX    Q
000629: 11,2627           54050                           TS       CDUXCMD
000630: 11,2630           10002                           CCS      Q
000631: 11,2631           12621                           TCF      ATTCK2     +1
000632:
000633: 11,2632           32640                           CAF      OCT70K
000634: 11,2633           00006                           EXTEND
000635: 11,2634           05014                           WOR      14
000636: 11,2635           15745                           TCF      TASKOVER
000637:
000638: 11,2636           00050        OCT50K             OCT      50
000639:
000640: 11,2637           04300        V43K               OCT      4300
000641: 11,2640           70000        OCT70K             OCT      70000
000642:


000644:                                                                                                  #           PROGRAM TO SCAN CHANNELS 30 - 32 FOR CHANGES IN SELECTED INBITS. CALLED BY SPECIAL VERB.
000645:
000646: 11,2641  E7,1607                                  EBANK=   MSGCNT
000647:
000648: 11,2641           37755        SETUPMSG           CAF      BIT1                                  #  BEGIN SCAN.
000649: 11,2642           00004                           INHINT
000650: 11,2643           05701                           TC       WAITLIST
000651: 11,2644  E7,1435                                  EBANK=   RSTKLOC
000652: 11,2644           02651 22007                     2CADR    MSGSCAN    +2
000653:
000654: 11,2646           05605                           TC       ENDOFJOB
000655:
000656: 11,2647           05717        MSGSCAN            TC       FIXDELAY
000657: 11,2650           00062                           DEC      50         B-14
000658:
000659: 11,2651           37754                           CAF      TWO                                   #  SCAN ALL 3 CHANNELS FOR CHANGES.
000660: 11,2652           55607                           TS       MSGCNT
000661: 11,2653           50000                           INDEX    A
000662: 11,2654           31604                           CA       LAST30                                #  OLD VALUE OF INBITS.
000663: 11,2655           00006                           EXTEND
000664: 11,2656           51607                           INDEX    MSGCNT
000665: 11,2657           06030                           RXOR     30
000666: 11,2660           51607                           INDEX    MSGCNT
000667: 11,2661           72710                           MASK     30MSGMSK
000668: 11,2662           00006                           EXTEND
000669: 11,2663           12705                           BZF      NOMSG
000670:
000671: 11,2664           54002                           TS       Q                                     #  SAVE DIFFERENCE.
000672: 11,2665           51607                           INDEX    MSGCNT
000673: 11,2666           23604                           LXCH     LAST30                                #  UPDATE OLD VALUE.
000674: 11,2667           00006                           EXTEND
000675: 11,2670           06001                           RXOR     L
000676: 11,2671           51607                           INDEX    MSGCNT
000677: 11,2672           55604                           TS       LAST30
000678:
000679: 11,2673           40000                           COM
000680: 11,2674           56002                           XCH      Q
000681: 11,2675           70002                           MASK     Q                                     #  SEE IF ANY OF CHANGED BITS JUST ON.
000682: 11,2676           00006                           EXTEND
000683: 11,2677           12705                           BZF      NOMSG                                 #  NO MESSAGE IF SO.
000684:
000685:                                                                                                  #           NO ROTATIONAL HAND CONTROLLER IN 206.
000686:
000687: 11,2700           32713        NOTRHC             CAF      OKT30
000688: 11,2701           61607                           AD       MSGCNT
000689: 11,2702           54071                           TS       RUPTREG2
000690:
000691: 11,2703           40002                           CS       Q
000692: 11,2704           02731                           TC       VMESSAGE
000693:


000695: 11,2705           11607        NOMSG              CCS      MSGCNT
000696: 11,2706           12652                           TCF      MSGSCAN    +3
000697: 11,2707           12647                           TCF      MSGSCAN
000698:
000699: 11,2710           00017        30MSGMSK           OCT      17
000700: 11,2711           77777                           OCT      77777
000701: 11,2712           03777                           OCT      3777
000702:
000703: 11,2713           00030        OKT30              OCT      30
000704: 11,2714           02724        DESCBITS           TC       MESSAGE                               #  DESCENT BITS COME HERE IN A.
000705: 11,2715           00016                           OCT      16
000706: 11,2716           05751                           TC       RESUME
000707:
000708: 11,2717           04633        RHCMON             TC       GRABWAIT                              #  FIRE UP DSKY MONITOR.
000709: 11,2720           32723                           CAF      RHCMONVN
000710: 11,2721           04646                           TC       NVSBWAIT
000711: 11,2722           05604                           TC       EJFREE
000712:
000713: 11,2723           01645        RHCMONVN           OCT      1645
000714:


000716:                                                                                                  #           MESSAGE DISPLAY - 3 COMPONENT OCTAL.
000717:
000718: 11,2724           54071        MESSAGE            TS       RUPTREG2                              #  NEW CHANNEL CONTENTS ARRIVE IN A.
000719: 11,2725           50002                           INDEX    Q                                     #  CHANNEL NUMBER IN OCTAL AT CALLER +1.
000720: 11,2726           30000                           CAF      0
000721: 11,2727           24002                           INCR     Q
000722: 11,2730           56071                           XCH      RUPTREG2
000723:
000724: 11,2731           54070        VMESSAGE           TS       RUPTREG1                              #  FOR VARIABLE CHANNEL.
000725: 11,2732           00006                           EXTEND
000726: 11,2733           22072                           QXCH     RUPTREG3
000727: 11,2734           35667                           CAF      PRIO27                                #  FIRE UP SPECIAL JOB.
000728: 11,2735           05523                           TC       NOVAC
000729: 11,2736  E7,1435                                  EBANK=   RSTKLOC
000730:
000731: 11,2736           02747 22007                     2CADR    DOMSG
000732:
000733: 11,2740           52071                           DXCH     RUPTREG1                              #  NEW CONTENTS TO MPAC - CHANNEL NUMBER TO
000734: 11,2741           50064                           INDEX    LOCCTR                                #  MPAC +1.
000735: 11,2742           52145                           DXCH     MPAC
000736: 11,2743           30025                           CA       TIME1
000737: 11,2744           50064                           INDEX    LOCCTR
000738: 11,2745           54146                           TS       MPAC       +2
000739: 11,2746           00072                           TC       RUPTREG3
000740:
000741: 11,2747           04633        DOMSG              TC       GRABWAIT
000742: 11,2750           00006                           EXTEND
000743: 11,2751           30145                           DCA      MPAC
000744: 11,2752           52340                           DXCH     DSPTEM1
000745: 11,2753           30146                           CA       MPAC       +2
000746: 11,2754           54341                           TS       DSPTEM1    +2
000747: 11,2755           32764                           CAF      MSGVN
000748: 11,2756           04433                           TC       NVSUB
000749: 11,2757           12761                           TCF      MSGBUSY
000750: 11,2760           05604                           TC       EJFREE
000751:
000752: 11,2761           32763        MSGBUSY            CAF      +2
000753: 11,2762           04643                           TC       NVSUBUSY
000754:
000755: 11,2763           22750                           CADR     DOMSG      +1
000756:
000757: 11,2764           00535        MSGVN              OCT      0535
000758:


000760:                                                                                                  #           ROUTINE FOR AURORA ONLY TO ASK OPERATOR IF RR LOCK ON REQUESTED.
000761:
000762: 11,2765           05253        AURLOKON           TC       MAKECADR
000763: 11,2766           54427                           TS       DESRET
000764: 11,2767           32530                           CAF      RV33                                  #  ASSUMES DSKY GRABBED.
000765: 11,2770           04646                           TC       NVSBWAIT
000766: 11,2771           04611                           TC       FLASHON
000767: 11,2772           04464                           TC       ENDIDLE
000768: 11,2773           12776                           TCF      +3                                    #  ON TERM.
000769: 11,2774           37751                           CAF      LOKONFLG
000770: 11,2775           12777                           TCF      +2
000771: 11,2776           37761                           CAF      ZERO
000772: 11,2777           00004                           INHINT
000773: 11,3000           56074                           XCH      STATE
000774: 11,3001           73013                           MASK     -LOKONFG
000775: 11,3002           26074                           ADS      STATE
000776:
000777: 11,3003           77751                           MASK     LOKONFLG                              #  IF NO LOCK-ON CALLED FOR, SET BIT15 OF
000778: 11,3004           10000                           CCS      A                                     #  RADMODES TO INDICATE THAT ARBITRARILY-
000779:
000780: 11,3005           13010                           TCF      +3                                    #  LONG DESIGNATION IS WANTED (TO BE
000781:
000782: 11,3006           37737                           CAF      BIT15                                 #  TERMINATED BY FRESH START).
000783: 11,3007           26413                           ADS      RADMODES
000784:
000785: 11,3010           00003                           RELINT
000786: 11,3011           30427                           CA       DESRET
000787: 11,3012           15246                           TCF      BANKJUMP
000788:
000789: 11,3013           77757        -LOKONFG           OCT      -20
000790:


000792:                                                                                                  #           PROGRAM TO RUN DISPLAY INERTIAL DATA TEST.
000793:
000794: 11,3014           33104        DISINDT            CAF      FLVELVN                               #  ASK FOR FORWARD, LATERAL VELOCITY.
000795: 11,3015           04646                           TC       NVSBWAIT
000796: 11,3016           04464                           TC       ENDIDLE
000797: 11,3017           13041                           TCF      ENDDISIN
000798: 11,3020           13021                           TCF      +1
000799: 11,3021           33105                           CAF      ALT,R,VN                              #  ASK FOR INITIAL AND FINIAL ALTITUDES AND
000800: 11,3022           04646                           TC       NVSBWAIT                              #  ALTITUDE RATE.
000801: 11,3023           04464                           TC       ENDIDLE
000802: 11,3024           13041                           TCF      ENDDISIN
000803: 11,3025           13026                           TCF      +1
000804:
000805: 11,3026           00004                           INHINT
000806: 11,3027           47755                           CS       ONE
000807: 11,3030           54350                           TS       DIDFLG
000808:
000809: 11,3031           00006                           EXTEND
000810: 11,3032           30352                           DCA      ALT                                   #  SO FOLLOWING MONITOR WORKS.
000811: 11,3033           52364                           DXCH     ALTSAVE
000812:
000813: 11,3034           37755                           CAF      ONE
000814: 11,3035           05701                           TC       WAITLIST
000815: 11,3036  E7,1435                                  EBANK=   RSTKLOC
000816: 11,3036           03047 22007                     2CADR    DISINLUP   +2
000817:
000818: 11,3040           15604                           TCF      EJFREE
000819:
000820: 11,3041           04713        ENDDISIN           TC       FREEDSP
000821: 11,3042           04105                 +1        TC       NEWMODEX
000822: 11,3043           00000                           OCT      0
000823:
000824: 11,3044           05605                           TC       ENDOFJOB
000825:


000827:                                                                                                  #           WATCH ALTSAVE FOR END OF PROBLEM.
000828:
000829: 11,3045           05717        DISINLUP           TC       FIXDELAY
000830: 11,3046           00062                           DEC      50         B-14
000831:
000832: 11,3047           00006                 +2        EXTEND
000833: 11,3050           30355                           DCA      FINALT
000834: 11,3051           52062                           DXCH     ITEMP1
000835:
000836: 11,3052           00006                           EXTEND
000837: 11,3053           40364                           DCS      ALTSAVE                               #  LATEST ALTITUDE.
000838: 11,3054           20062                           DAS      ITEMP1
000839:
000840: 11,3055           10061                           CCS      ITEMP1
000841: 11,3056           13076                           TCF      +DIF
000842: 11,3057           13061                           TCF      +2
000843: 11,3060           13102                           TCF      -DIF
000844:
000845: 11,3061           10062                           CCS      ITEMP2
000846: 11,3062           13076                           TCF      +DIF
000847: 11,3063           13065                           TCF      +2
000848: 11,3064           13102                           TCF      -DIF
000849:
000850: 11,3065           37761        DISINDUN           CAF      ZERO
000851: 11,3066           54353                           TS       ALTRATE
000852: 11,3067           52355                           DXCH     FINALT
000853: 11,3070           52352                           DXCH     ALT
000854: 11,3071           37740                           CAF      PRIO20
000855: 11,3072           05523                           TC       NOVAC
000856: 11,3073  E7,1435                                  EBANK=   RSTKLOC
000857: 11,3073           03042 22007                     2CADR    ENDDISIN   +1
000858:
000859: 11,3075           15745                           TCF      TASKOVER
000860:
000861: 11,3076           30353        +DIF               CA       ALTRATE
000862: 11,3077           00006                           EXTEND
000863: 11,3100           63065                           BZMF     DISINDUN
000864: 11,3101           13045                           TCF      DISINLUP
000865:
000866: 11,3102           40353        -DIF               CS       ALTRATE
000867: 11,3103           13077                           TCF      +DIF       +1
000868:
000869: 11,3104           02444        FLVELVN            OCT      2444
000870: 11,3105           02564        ALT,R,VN           OCT      2564
000871:
000872: 11,3106           00004        MINIMP             INHINT
000873: 11,3107           47744                           CS       BIT10                                 #  BIT 10 OF DAPBOOLS INDICATES MINIMP MODE
000874: 11,3110           70077                           MASK     DAPBOOLS
000875: 11,3111           67744                           AD       BIT10
000876: 11,3112           54077                           TS       DAPBOOLS                              #  BIT 10 OF DAPBOOLS NOW PRESENT.
000877: 11,3113           15605                           TCF      ENDOFJOB
000878:


000880: 11,3114           00004        NOMINIMP           INHINT
000881: 11,3115           47744                           CS       BIT10
000882: 11,3116           70077                           MASK     DAPBOOLS
000883: 11,3117           54077                           TS       DAPBOOLS                              #  A ZERO IN POSITION 10 OF DAPBOOLS NOW.
000884:
000885: 11,3120           00006                           EXTEND
000886: 11,3121           30033                           DCA      CDUX
000887: 11,3122           52767                           DXCH     CDUXD
000888: 11,3123           30034                           CA       CDUZ
000889: 11,3124           54770                           TS       CDUZD
000890: 11,3125           15605                           TCF      ENDOFJOB
000891:


000893:                                                                                                  #  VB 60 PREPARE FOR STANDBY OPERATION
000894:
000895:                                                                                                  #  ROUTINE WRITTEN FOR TEST ROPES ONLY*** MUST BE UPDATED TO INCLUDE
000896:                                                                                                  #                                  FLIGHT REQUIREMENTS FOR FLIGHT OPERATION
000897:
000898: 11,3126  E3,1400                                  EBANK=   LST1
000899:
000900: 11,3126           35370        PRESTAND           CAF      EBANK3                                #  COMES HERE FROM LST2FAN
000901: 11,3127           56003                           XCH      EBANK                                 #  SET UP EBANK FOR BANK 3
000902: 11,3130           00004                           INHINT
000903: 11,3131           30025                           CA       TIME1
000904: 11,3132           55506                           TS       TIMESAV                               #  THIS ROUTINE WILL LOOK AT TIME1 UNTIL
000905: 11,3133           32713                           CAF      OKT30                                 #   TIME1 IS INCREMENTED, THEN IT WILL
000906: 11,3134           55512        LONGER             TS       TIMAR                                 #  SNATCH THE MISSION TIME REGS AND STORE
000907: 11,3135           41506                           CS       TIMESAV                               #  THEN IN TIMESAV FOR LATER ISE IN ARITH.
000908: 11,3136           60025                           AD       TIME1                                 #  OPERATIONS WHICH SHOULD FIND THE
000909: 11,3137           00006                           EXTEND                                         #  STANDING DIFFERENCE BETWEEN THE SCALAR
000910: 11,3140           13145                           BZF      CHKTIME                               #  AND THE TIME1-TIME2S REGS.
000911:
000912: 11,3141           00006                           EXTEND
000913: 11,3142           30025                           DCA      TIME2                                 #  READ AND STORE THE DP TIME AND GO
000914: 11,3143           53507                           DXCH     TIMESAV                               #  READ THE SCALAR USING THE EXISTING PROG
000915: 11,3144           13153                           TCF      CATCHFIN                              #  FINETIME.
000916:
000917: 11,3145           11512        CHKTIME            CCS      TIMAR                                 #  MUST WATCH THE TIME SPENT IN INHINT OR
000918: 11,3146           03134                           TC       LONGER                                #  THE COPS MIGHT CATCH US.
000919: 11,3147           00003                           RELINT
000920: 11,3150           10067                           CCS      NEWJOB
000921: 11,3151           05550                           TC       CHANG1
000922: 11,3152           03133                           TC       LONGER     -1                         #  GO BACK AND LOOK AGAIN
000923:
000924: 11,3153           05015        CATCHFIN           TC       FINETIME                              #  WILL READ CHANNELS 3 AND 4 AND RETURN
000925: 11,3154           53511                           DXCH     SCALSAV                               #  WITH 3 IN A AND 4 IN L..
000926: 11,3155           00003                           RELINT
000927: 11,3156           47752                           CS       BIT4
000928: 11,3157           70365                           MASK     IMODES30                              #  INHIBIT THE IMU FAIL LIGHT.
000929: 11,3160           67752                           AD       BIT4
000930: 11,3161           54365                           TS       IMODES30
000931:
000932: 11,3162           37752                           CAF      BIT4                                  #  SET ALL CHAN 12 BITS EXCEPT C/A TO ZERO.
000933: 11,3163           00006                           EXTEND                                         #  THIS IS NECESSARY SO THAT THE GIMBALS DO
000934: 11,3164           03012                           WAND     12                                    #  NOT DRIFT INTO GIMBALLOCK IF THE SYSTEM
000935:
000936: 11,3165           37752                           CAF      BIT4                                  #  SHOULD BE IN OPERATE AT THE TIME STBY
000937: 11,3166           00006                           EXTEND                                         #  WAS STARTED.  THIS SECTION WILL MAKE
000938: 11,3167           05012                           WOR      12                                    #  SURE THE IMU IS IN C/A.....
000939:
000940: 11,3170           37743                           CAF      BIT11                                 #  WHEN BIT 11 IS PRESENT IN CHANNEL 13 THE
000941: 11,3171           00006                           EXTEND                                         #  DSKY PB. CAN THEN ENERGIZE THE STANDBY
000942: 11,3172           05013                           WOR      13                                    #  RELAY IN THE CGC PWR SUPPLIES....


000944: 11,3173           05605                           TC       ENDOFJOB                              #  GO TO DUMMY JOB UNTIL YOU DIE...
000945:


000947:                                                                                                  #   VB 61 RECOVER FROM STANDBY OPERATION
000948:
000949:                                                                                                  #  ROUTINE WRITTEN FOR TEST ROPES ONLY**** MUST BE UPDATED TO INCLUDE
000950:                                                                                                  #                  FLIGHT REQUIREMENTS FOR FLIGHT OPERATIONS SEQUENCES....
000951:
000952: 11,3174           35370        POSTAND            CAF      EBANK3                                #  COMES HERE FROM LST2FAN
000953: 11,3175           56003                           XCH      EBANK                                 #  SET UP EBANK FOR BANK 3
000954: 11,3176           05015                           TC       FINETIME
000955:
000956: 11,3177           53513                           DXCH     TIMAR                                 #  READ THE SCALAR AND SEE IF IT OVERFLOW-
000957: 11,3200           00003                           RELINT                                         #  ED WHILE THE CGC WAS IN STBY, IF SO
000958: 11,3201           31512                           CAE      TIMAR                                 #  THE OVERFLOW MUST BE ADDED OR IT WILL
000959: 11,3202           00006                           EXTEND                                         #  SEEM THAT THE REALATIVITY THEORY WORKS
000960: 11,3203           61510                           SU       SCALSAV                               #  BETTER THAN IT SHOULD...
000961: 11,3204           00006                           EXTEND
000962: 11,3205           63230                           BZMF     ADDTIME                               #  IF ITS NEG. IT MUST HAVE OV:FLWD..
000963:
000964: 11,3206           06103                           TC       INTPRET
000965: 11,3207           45345                           DLOAD    DSU                                   #  IF IT DID NOT OV-FLW. FIND OUT HOW LONG
000966: 11,3210           01513                                    TIMAR                                 #  THE CGC WAS IN STBY BY SUBTRACTING THE
000967: 11,3211           01511                                    SCALSAV                               #  SCALAR AT THE START OF STBY FROM THE
000968: 11,3212           47061                           SRR      RTB                                   #  SCALAR AT THE END OF STBY AND THEN ADD
000969: 11,3213           21606                                    5                                     #  THE DIFFERENCE TO THE TIME EXISTING
000970: 11,3214           33565                                    SGNAGREE                              #  WHEN THE SCALAR WAS READ AT STBY ENTRY**
000971: 11,3215           77615                           DAD
000972: 11,3216           01507                                    TIMESAV
000973: 11,3217           01513                           STORE    TIMAR
000974: 11,3220           77776                           EXIT
000975:
000976: 11,3221           00006        CORCTTIM           EXTEND
000977: 11,3222           31513                           DCA      TIMAR                                 #  THIS IS THE CORRECTED TIME TO BE READ
000978: 11,3223           52025                           DXCH     TIME2                                 #  INTO TIME1 AND TIME2 REGS. ADDR 24-25
000979:
000980: 11,3224           47743                           CS       BIT11
000981: 11,3225           00006                           EXTEND                                         #  DISABLE THE DSKY STBY PUSHBUTTON.
000982: 11,3226           03013                           WAND     13
000983: 11,3227           05605                           TC       ENDOFJOB
000984:
000985: 11,3230           00006        ADDTIME            EXTEND
000986: 11,3231           37735                           DCA      DPOSMAX                               #  IF THE SCALAR OVERFLOWED, FIND OUT HOW
000987: 11,3232           53515                           DXCH     TIMEDIFF                              #  MUCH TIME REMAINED WHEN READ THE FIRST
000988: 11,3233           06103                           TC       INTPRET                               #  TIME AND THEN ADD THE PRESENT READING-
000989: 11,3234           45345                           DLOAD    DSU                                   #  WHICH WILL BE THE TOTAL TIME SPENT IN
000990: 11,3235           01515                                    TIMEDIFF                              #  STANDBY, TO WHICH THE TIME AT STBY
000991: 11,3236           01511                                    SCALSAV                               #  MAY BE ADDED TO FIND THE PRESENT TIME
000992: 11,3237           54215                           DAD      SRR                                   #  CORRECT TO 10 MSEC..
000993: 11,3240           01513                                    TIMAR                                 #  **** THE TIME IN STANDBY MODE MUST NOT
000994: 11,3241           21606                                    5                                     #  EXCEED 23 HOURS IF TIME IS TO BE
000995: 11,3242           77615                           DAD                                            #  CORRECTLY COMPUTED BY THIS ROUTINE.*****
000996: 11,3243           01507                                    TIMESAV
000997: 11,3244           01513                           STORE    TIMAR


000999: 11,3245           77776                           EXIT
001000: 11,3246           03221                           TC       CORCTTIM
001001:

End of include-file EXTENDED_VERBS.agc.  Parent file is MAIN.agc


