
Source Code


000002:                                                                                                  ## Copyright:   Public domain.
000003:                                                                                                  ## Filename:    FIND_CDU_DESIRED.agc
000004:                                                                                                  ## Purpose:     A section of Sunburst revision 37, or Shepatin revision 0.
000005:                                                                                                  ##              It is part of an early development version of the software
000006:                                                                                                  ##              for Apollo Guidance Computer (AGC) on the unmanned Lunar
000007:                                                                                                  ##              Module (LM) flight Apollo 5. Sunburst 37 was the program
000008:                                                                                                  ##              upon which Don Eyles's offline development program Shepatin
000009:                                                                                                  ##              was based; the listing herein transcribed was actually for
000010:                                                                                                  ##              the equivalent revision 0 of Shepatin.
000011:                                                                                                  ##              This file is intended to be a faithful transcription, except
000012:                                                                                                  ##              that the code format has been changed to conform to the
000013:                                                                                                  ##              requirements of the yaYUL assembler rather than the
000014:                                                                                                  ##              original YUL assembler.
000015:                                                                                                  ## Reference:   pp. 784-787
000016:                                                                                                  ## Assembler:   yaYUL
000017:                                                                                                  ## Contact:     Ron Burkey <info@sandroid.org>.
000018:                                                                                                  ## Website:     www.ibiblio.org/apollo/index.html
000019:                                                                                                  ## Mod history: 2017-05-24 MAS  Created from Sunburst 120.
000020:                                                                                                  ##              2017-06-14 HG   Transcribed
000021:                                                                                                  ##              2017-06-23 RSB  Proofed comment text with
000022:                                                                                                  ##                              octopus/ProoferComments.
000023:


000025:                                                                                                  #  THIS ROUTINE FINDCDUD COMPUTES DESIRED CDU,S WHICH CAN BE FED TO
000026:                                                                                                  #  DAP LATER ON.
000027:
000028:                                                                                                  #  DESIRED CDU,S WILL BE IN 2,S COMP
000029:
000030:                                                                                                  #  INPUT
000031:
000032:                                                                                                  #  DESIRED THRUST VECTOR AXISD COMING FROM GUIDANCE EQUATIONS
000033:                                                                                                  #  CDUX,CDUY,CDUZ INFORM OF A SP VECTOR CDUTEMP,+2,+4.
000034:                                                                                                  #  DELV HALF UNIT VECTOR. PIPAS READING
000035:                                                                                                  #  AXISD IS A HALF UNIT VECTOR
000036:                                                                                                  #  CDUX,Y,Z  ARE IN 2,S COMP
000037:
000038:
000039:                                                                                                  #  THIS ROUTINE CAN BE ENTERED FROM INTERPRETIVE . CALL FINDCDUD
000040:
000041:                                                                                                  #  CALLING SEQUENCE
000042:                                                                                                  #  L-1  CALL
000043:                                                                                                  #  L        FINDCDUD
000044:                                                                                                  #  L+1              INTERPRETIVE RETURN
000045:
000046:
000047:
000048:                                                                                                  #  USER TO HAVE A UNIT VECTOR  AXIS   (1,0,0)
000049:
000050:
000051:
000052: 30,2637                                           BANK     30
000053: 30,2637  E4,1452                                  EBANK=   DELR
000054: 30,2637           24276 14076  2/PI               2DEC     .6366198
000055:
000056: 30,2641           00002 00545  LIMOMG             2DEC     .0001234
000057:
000058:
000059:
000060: 30,2643           77401        FINDCDUD           SETPD    EXIT
000061: 30,2644           00001                                    0
000062: 30,2645           31344                           CA       CDUTEMP    +2
000063: 30,2646           55654                           TS       SINCDU                                #  TEMPORARY LOCATION FOR CDUY
000064: 30,2647           31346                           CA       CDUTEMP    +4
000065: 30,2650           55656                           TS       SINCDU     +2                         #  TEMPORARY LOCATION FOR CDUZ
000066: 30,2651           31342                           CA       CDUTEMP
000067: 30,2652           55660                           TS       SINCDU     +4                         #  TEMPORARY LOCATION FOR CDUX
000068:
000069:
000070:
000071:                                                                                                  #  AXISFILT   COMPUTES AXIS AND CORRECTS IT FOR  QUANTIZATION ERROR AND OTH
000072:                                                                                                  #  ER ERRORS
000073:
000074:
000075: 30,2653  E6,1423                                  EBANK=   OMEGA
000076: 30,2653           35650                           CAF      PRIO3                                 #  OCT  03000     SWITCH EBANK
000077:


000079: 30,2654           56003                           XCH      EBANK
000080: 30,2655           54144                           TS       MPAC
000081: 30,2656           37761                           CAF      ZERO
000082: 30,2657           55154                           TS       TEMX                                  #  SQOMEGA
000083: 30,2660           55155                           TS       TEMX       +1                         #  SQOMEGA  +1
000084: 30,2661           00004                           INHINT
000085: 30,2662           31416                           CAE      OMEGAP
000086: 30,2663           00006                           EXTEND
000087:
000088: 30,2664           70000                           SQUARE
000089: 30,2665           21155                           DAS      TEMX                                  #  SQOMEGA
000090: 30,2666           31417                           CAE      OMEGAQ
000091: 30,2667           00006                           EXTEND
000092: 30,2670           70000                           SQUARE
000093: 30,2671           21155                           DAS      TEMX                                  #  SQOMEGA
000094: 30,2672           31421                           CAE      OMEGAR
000095: 30,2673           00006                           EXTEND
000096: 30,2674           70000                           SQUARE
000097: 30,2675           21155                           DAS      TEMX                                  #  SQOMEGA
000098:
000099: 30,2676           00003                           RELINT
000100: 30,2677           56144                           XCH      MPAC
000101: 30,2700           54003                           TS       EBANK
000102: 30,2701           06103                           TC       INTPRET
000103: 30,2702  E4,1452                                  EBANK=   DELR
000104: 30,2702           77620                           STQ
000105: 30,2703           00047                                    RETSAVE
000106: 30,2704           45345        AXISFILT           DLOAD    DSU
000107:
000108:
000109:
000110: 30,2705           01155                                    TEMX                                  #  SQOMEGA
000111:
000112: 30,2706           20642                                    LIMOMG
000113: 30,2707           72044                           BPL      LXA,1
000114: 30,2710           60734                                    ROTANGLE
000115: 30,2711           00110                                    FIXLOC
000116: 30,2712           64110                           INCR,1   XCHX,1
000117: 30,2713           00024                                    20D
000118: 30,2714           00050                                    S1
000119: 30,2715           77775                           VLOAD
000120: 30,2716           02255                                    SINCDU                                #  TEMPORARY LOCATION FOR CDUY,Z,X IN
000121: 30,2717           00025                           STORE    20D                                   #  SP  2,S COMP
000122:
000123: 30,2720           53575                           VLOAD    UNIT
000124: 30,2721           00404                                    DELV
000125: 30,2722           00041                           STORE    32D
000126: 30,2723           77624                           CALL
000127: 30,2724           32576                                    SMNB                                  #  TRANSFORM DELV FROM SM TO NB
000128: 30,2725           52201                           SETPD    VSU
000129: 30,2726           00001                                    0
000130: 30,2727           02241                                    AXIS
000131: 30,2730           53322                           VSR3     VAD
000132: 30,2731           02241                                    AXIS
000133:


000135: 30,2732           77656                           UNIT
000136:
000137: 30,2733           02241                           STORE    AXIS
000138: 30,2734           62150        ROTANGLE           LXA,1    INCR,1
000139: 30,2735           00110                                    FIXLOC
000140: 30,2736           00024                                    20D
000141: 30,2737           77320                           XCHX,1   VLOAD
000142: 30,2740           00050                                    S1
000143: 30,2741           02255                                    SINCDU                                #  TEMPORARY LOCATION FOR CDUY,Z,X IN
000144: 30,2742           00025                           STORE    20D                                   #  SP  2,S COMP
000145: 30,2743           77775                           VLOAD
000146: 30,2744           02241                                    AXIS
000147: 30,2745           00041                           STORE    32D
000148: 30,2746           77624                           CALL                                           #  TRANSFORM  AXIS FROM NB TO SM
000149:
000150: 30,2747           32622                                    NBSM
000151: 30,2750           47201                           SETPD    VXV
000152: 30,2751           00001                                    0
000153: 30,2752           02233                                    AXISD
000154: 30,2753           77761                           VXSC
000155: 30,2754           20640                                    2/PI
000156: 30,2755           00013                           STORE    10D                                   #  DTHETASM  SCALETO ONE REVOLUTION
000157: 30,2756           77624                           CALL                                           #  COMPUTE SIN AND COS OF CDUS FOR
000158: 30,2757           61024                                    SINCOSCD                              #  LATER USE
000159:
000160:
000161:
000162:                                                                                                  #  SMCDURES     COMPUTES CDU(GIMBAL) ANGLES FROM INCREMENTAL
000163:                                                                                                  #  CHANGES ABOUT SM AXES.    IT REQUIRES  SM  INCREMENTAL CHANGES
000164:                                                                                                  #  AS DP  VECTOR SCALED AT  ONE REVOLUTION(DTHETASM,+2,+4).  SIN,COS(CDUX,Y
000165:                                                                                                  #  ,Z)   ARE IN SINCDU,+2,+4 AND COSCDU,+2,+4  RESPECTIVELY,SCALED TO 2.
000166:                                                                                                  #  CDU INCREMENTS  ARE PLACED IN DCDU,+2,+4   SCALED TO ONE REVOLUTION
000167:
000168:
000169:
000170: 30,2760           41345        SMCDURES           DLOAD    DMP
000171: 30,2761           00013                                    10D                                   #  DTHETASM
000172: 30,2762           02251                                    COSCDU     +2
000173:
000174: 30,2763           41325                           PDDL     DMP
000175: 30,2764           00017                                    14D                                   #  DTHETASM +4
000176: 30,2765           02257                                    SINCDU     +2
000177: 30,2766           77621                           BDSU
000178: 30,2767           77671                           DDV
000179: 30,2770           02253                                    COSCDU     +4
000180: 30,2771           00025                           STORE    20D                                   #  DCDU
000181: 30,2772           72405                           DMP      SL1                                   #  SCALE
000182: 30,2773           02261                                    SINCDU     +4
000183: 30,2774           77621                           BDSU
000184:
000185: 30,2775           00015                                    12D                                   #  DTHETASM +2
000186: 30,2776           14027                           STODL    22D                                   #  DCDU +2
000187: 30,2777           00013                                    10D                                   #  DTHETASM
000188: 30,3000           65205                           DMP      PDDL
000189: 30,3001           02257                                    SINCDU     +2
000190:


000192: 30,3002           00017                                    14D                                   #  DTHETASM +4
000193: 30,3003           43205                           DMP      DAD
000194: 30,3004           02251                                    COSCDU     +2
000195: 30,3005           77752                           SL1                                            #  SCALE
000196: 30,3006           14031                           STODL    24D                                   #  DCDU +4
000197: 30,3007           00027                                    22D                                   #  DCDU +2
000198:
000199: 30,3010           57405                           DMP      DCOMP
000200: 30,3011           02261                                    SINCDU     +4                         #  DCDUX =-DCDUY*SIN(CDUZ)
000201: 30,3012           77752                           SL1                                            #  SCALE
000202: 30,3013           00025                           STORE    20D                                   #  DCDU
000203: 30,3014           53375                           VLOAD    VAD
000204: 30,3015           00025                                    20D                                   #  DCDU
000205: 30,3016           01343                                    CDUTEMP
000206: 30,3017           77634                           RTB
000207: 30,3020           33573                                    V1STO2S                               #  SCALE FROM 1,S TO 2,S
000208: 30,3021           00767                           STORE    CDUXD
000209: 30,3022           77650                           GOTO
000210: 30,3023           00047                                    RETSAVE
000211:
000212:
000213:
000214:                                                                                                  #  SINCOSCD    COMPUTES SIN AND COS OF CDU  AND STORES AS DP VECTORS
000215:                                                                                                  #  SINCDU ,COSCDU
000216:                                                                                                  #  INPUT IS CDUS AS A VECTOR CDUTEMP
000217:                                                                                                  #  OUTPUT IS SIN AND COS OF CDU,S
000218:                                                                                                  #  CDUS ARE AVAILABLE IN 2,S COMP
000219:                                                                                                  #  SIN AND COS ARE SCALED TO 2
000220:                                                                                                  #  SINCOSCD CAN BE ENTERED FROM INTERPRETIVE
000221:
000222:
000223:
000224:
000225: 30,3024           76131        SINCOSCD           SSP      AXT,1                                 #  SET X1 TO 6
000226: 30,3025           00051                                    S1                                    #  SET S1 TO 2
000227: 30,3026           00002                           OCT      2
000228: 30,3027           00006                           OCT      6
000229: 30,3030           47133        REPEAT1            SLOAD*   RTB
000230: 30,3031           01351                                    CDUTEMP    +6,1
000231: 30,3032           33524                                    CDULOGIC                              #  CONVERT CDU FROM 2,S TO 1,S.  SCALE
000232: 30,3033           05351                           STORE    CDUTEMP    +6,1                       #  TO ONE REVOLUTION
000233: 30,3034           77756                           SIN
000234: 30,3035           06263                           STORE    SINCDU     +6,1
000235:
000236: 30,3036           71543                           DLOAD*   COS
000237: 30,3037           01351                                    CDUTEMP    +6,1
000238: 30,3040           06255                           STORE    COSCDU     +6,1
000239: 30,3041           43500                           TIX,1    RVQ
000240: 30,3042           61030                                    REPEAT1

End of include-file FIND_CDU_DESIRED.agc.  Parent file is MAIN.agc


