
Source Code


000002:                                                                                                  ## Copyright:   Public domain.
000003:                                                                                                  ## Filename:    IMU_PERFORMANCE_TESTS_3.agc
000004:                                                                                                  ## Purpose:     A section of Sunburst revision 37, or Shepatin revision 0.
000005:                                                                                                  ##              It is part of an early development version of the software
000006:                                                                                                  ##              for Apollo Guidance Computer (AGC) on the unmanned Lunar
000007:                                                                                                  ##              Module (LM) flight Apollo 5. Sunburst 37 was the program
000008:                                                                                                  ##              upon which Don Eyles's offline development program Shepatin
000009:                                                                                                  ##              was based; the listing herein transcribed was actually for
000010:                                                                                                  ##              the equivalent revision 0 of Shepatin.
000011:                                                                                                  ##              This file is intended to be a faithful transcription, except
000012:                                                                                                  ##              that the code format has been changed to conform to the
000013:                                                                                                  ##              requirements of the yaYUL assembler rather than the
000014:                                                                                                  ##              original YUL assembler.
000015:                                                                                                  ## Reference:   pp. 416-429
000016:                                                                                                  ## Assembler:   yaYUL
000017:                                                                                                  ## Contact:     Ron Burkey <info@sandroid.org>.
000018:                                                                                                  ## Website:     www.ibiblio.org/apollo/index.html
000019:                                                                                                  ## Mod history: 2017-05-24 MAS  Created from Sunburst 120.
000020:                                                                                                  ##              2017-06-10 MAS  Updated for Sunburst 37.
000021:                                                                                                  ##              2017-06-22 RSB  Proofed comment text with
000022:                                                                                                  ##                              octopus/ProoferComments.
000023:


000025: 23,2520                                           BANK     23
000026: 23,2520  E5,1400                                  EBANK=   XSM
000027:
000028:
000029:
000030: 23,2520           00006        SILVER             EXTEND
000031: 23,2521           23546                           QXCH     QPLACE                                #   SHOULD BE ADDRESS OF STRTWACH
000032:
000033: 23,2522           11614                           CCS      CALCDIR                               #  2F COMMAND IS POSITIVE THE MINUS TORQ
000034: 23,2523           37745                           CAF      BIT9                                  #   WINDING IS TO BE ENERGIZED
000035: 23,2524           02526                           TC       +2
000036: 23,2525           02530                           TC       TORK                                  #   COMMAND IS NEG SO USE PLUS WINDING
000037: 23,2526           00006                           EXTEND
000038: 23,2527           05014                           WOR      14C                                   #   SELECTS THE MINUS WINDING
000039:
000040: 23,2530           37735        TORK               CAF      POSMAX
000041: 23,2531           54047                           TS       GYROCTR                               #  16383 PULSES =2.8125 DEG LESS ONE PULSE
000042:
000043: 23,2532           11616                           CCS      GYTOBETQ                              #  C(K)= 1 FOR X, -0 FOR Y, -1FOR Z.
000044: 23,2533           02537                           TC       SELECTX
000045: 23,2534           04725                           TC       CCSHOLE
000046: 23,2535           02547                           TC       SELECTZ
000047: 23,2536           02543                           TC       SELECTY
000048: 23,2537           32553        SELECTX            CAF      TORKX                                 #  BBITS 7AND 10 IN CHANNEL 14 WILL
000049: 23,2540           00006                           EXTEND                                         #   SELECT X GYRO AND TURN ON BCSW 1/3200
000050: 23,2541           05014                           WOR      14C                                   #  SSEC LATER BY CHANNEL OUTPUT DESIGN.....
000051:
000052: 23,2542           01546                           TC       QPLACE
000053:
000054: 23,2543           32554        SELECTY            CAF      TORKY                                 #  BBITS 8 AND 10 TO TORQ Y GYRO
000055: 23,2544           00006                           EXTEND
000056: 23,2545           05014                           WOR      14C
000057: 23,2546           01546                           TC       QPLACE
000058:
000059: 23,2547           32555        SELECTZ            CAF      TORKZ                                 #  BBITS 7,8AND 10 TO TORQZ GYRO
000060: 23,2550           00006                           EXTEND
000061: 23,2551           05014                           WOR      14C
000062: 23,2552           01546                           TC       QPLACE
000063: 23,2553           01100        TORKX              OCT      01100
000064: 23,2554           01200        TORKY              OCT      01200
000065: 23,2555           01300        TORKZ              OCT      01300
000066:


000068: 23,2556           37761        SAMODCHK           CAF      ZERO
000069: 23,2557           55563                           TS       TESTNO
000070: 23,2560           55550                           TS       RUN
000071:
000072: 23,2561           03152                           TC       ZEROMODE
000073: 23,2562           03176                           TC       OPRTRDLY
000074:
000075: 23,2563           03256                           TC       COARZERO
000076:
000077: 23,2564           03162                           TC       ZEROMAIN
000078: 23,2565           03176                           TC       OPRTRDLY
000079:
000080: 23,2566           03152                           TC       ZEROMODE
000081:
000082: 23,2567           37761                           CAF      ZERO
000083: 23,2570           03104                           TC       THETADLD
000084:
000085: 23,2571           33333                           CAF      45ANG
000086: 23,2572           03104                           TC       THETADLD
000087:
000088: 23,2573           03272                           TC       FNZEROFN
000089:
000090: 23,2574           33335                           CAF      90ANG
000091: 23,2575           03104                           TC       THETADLD
000092:
000093: 23,2576           33336                           CAF      135ANG
000094: 23,2577           03104                           TC       THETADLD
000095:
000096: 23,2600           37761                           CAF      ZERO
000097: 23,2601           03106                           TC       THETADLD   +2
000098:
000099: 23,2602           03272                           TC       FNZEROFN
000100:
000101: 23,2603           33341                           CAF      180ANG
000102: 23,2604           54400                           TS       THETAD
000103: 23,2605           54401                           TS       THETAD     +1
000104: 23,2606           33334                           CAF      71ANG
000105: 23,2607           03106                           TC       THETADLD   +2
000106:
000107: 23,2610           33342                           CAF      225ANG
000108: 23,2611           03104                           TC       THETADLD
000109:
000110: 23,2612           37761                           CAF      ZERO
000111: 23,2613           03104                           TC       THETADLD
000112:
000113: 23,2614           37754                           CAF      TWO
000114: 23,2615           55672        CHK2               TS       CDUNDX
000115:
000116: 23,2616           33343                           CAF      170ANG
000117: 23,2617           51672                           INDEX    CDUNDX
000118:


000120: 23,2620           54400                           TS       THETAD
000121:
000122: 23,2621           05224                           TC       BANKCALL
000123: 23,2622           26065                           CADR     IMUCOARS
000124:
000125: 23,2623           33337                           CAF      10ANG
000126: 23,2624           03025                           TC       CDURATE
000127:
000128: 23,2625           33340                           CAF      160ANG
000129: 23,2626           03025                           TC       CDURATE
000130:
000131: 23,2627           03050                           TC       CALCRATE
000132:
000133: 23,2630           05224                           TC       BANKCALL
000134:
000135: 23,2631           26762                           CADR     IMUSTALL
000136: 23,2632           12770                           TCF      ENDTST03
000137:
000138: 23,2633           03256                           TC       COARZERO
000139:
000140: 23,2634           11672                           CCS      CDUNDX
000141: 23,2635           12615                           TCF      CHK2
000142:
000143: 23,2636           43333                           CS       45ANG
000144: 23,2637           03104                           TC       THETADLD
000145:
000146: 23,2640           03272                           TC       FNZEROFN
000147:
000148: 23,2641           43336                           CS       135ANG
000149: 23,2642           54400                           TS       THETAD
000150: 23,2643           54401                           TS       THETAD     +1
000151: 23,2644           43334                           CS       71ANG
000152: 23,2645           03106                           TC       THETADLD   +2
000153:
000154: 23,2646           37761                           CAF      ZERO
000155: 23,2647           03106                           TC       THETADLD   +2
000156:
000157: 23,2650           03272                           TC       FNZEROFN
000158:
000159: 23,2651           03256                           TC       COARZERO
000160:
000161: 23,2652           03217                           TC       FINEZERO
000162: 23,2653           03217                           TC       FINEZERO
000163:
000164: 23,2654           43347        CHK5               CS       4+6BITS
000165: 23,2655           00006                           EXTEND
000166: 23,2656           03012                           WAND     12
000167:
000168: 23,2657           37753                           CAF      FOUR
000169: 23,2660           05701                           TC       WAITLIST
000170: 23,2661  E5,1400                                  EBANK=   XSM


000172: 23,2661           02665 46005                     2CADR    ECE1
000173:
000174: 23,2663           33357                           CAF      ECE2CADR
000175: 23,2664           05563                           TC       JOBSLEEP
000176:
000177: 23,2665           33357        ECE1               CAF      ECE2CADR
000178: 23,2666           05567                           TC       JOBWAKE
000179: 23,2667           05745                           TC       TASKOVER
000180:
000181: 23,2670           46276        ECE2               CS       SIX
000182: 23,2671           61563                           AD       TESTNO
000183: 23,2672           00006                           EXTEND
000184: 23,2673           62675                           BZMF     +2
000185: 23,2674           12716                           TCF      CHKX
000186:
000187: 23,2675           51563                           INDEX    TESTNO
000188: 23,2676           32772                           CAF      ERCTRANG
000189: 23,2677           54400                           TS       THETAD
000190: 23,2700           54401                           TS       THETAD     +1
000191:
000192: 23,2701           54402                           TS       THETAD     +2
000193:
000194: 23,2702           37750                           CAF      BIT6
000195: 23,2703           00006                           EXTEND
000196: 23,2704           05012                           WOR      12
000197:
000198: 23,2705           00004                           INHINT
000199: 23,2706           37754                           CAF      TWO
000200: 23,2707           05701                           TC       WAITLIST
000201: 23,2710  E5,1400                                  EBANK=   XSM
000202: 23,2710           02620 22005                     2CADR    ATTCK2
000203:
000204: 23,2712           00003                           RELINT
000205:
000206: 23,2713           03176                           TC       OPRTRDLY
000207:
000208: 23,2714           25563                           INCR     TESTNO
000209:
000210: 23,2715           12654                           TCF      CHK5
000211:
000212: 23,2716           03256        CHKX               TC       COARZERO
000213:
000214: 23,2717           37761                           CAF      ZERO
000215:
000216: 23,2720           55563                           TS       TESTNO
000217:
000218: 23,2721           05224                           TC       BANKCALL
000219: 23,2722           20247                           CADR     RRZERO
000220: 23,2723           05224                           TC       BANKCALL
000221: 23,2724           26756                           CADR     RADSTALL
000222: 23,2725           12770                           TCF      ENDTST03
000223:


000225: 23,2726           51563        CHK6               INDEX    TESTNO
000226: 23,2727           33001                           CAF      RADECNTR
000227:
000228: 23,2730           54424                           TS       TANG       +1
000229: 23,2731           54423                           TS       TANG
000230:
000231: 23,2732           06103                           TC       INTPRET
000232: 23,2733           77624                           CALL
000233: 23,2734           20363                                    RRDESNB
000234:
000235: 23,2735           05224                           TC       BANKCALL
000236: 23,2736           26756                           CADR     RADSTALL
000237: 23,2737           12770                           TCF      ENDTST03
000238:
000239: 23,2740           03171                           TC       RROPRDLY
000240:
000241: 23,2741           25563                           INCR     TESTNO
000242:
000243: 23,2742           47753                           CS       FOUR
000244: 23,2743           61563                           AD       TESTNO
000245: 23,2744           00006                           EXTEND
000246: 23,2745           62726                           BZMF     CHK6
000247:
000248: 23,2746           37761                           CAF      ZERO
000249: 23,2747           55563                           TS       TESTNO
000250: 23,2750           54353                           TS       ALTRATE
000251:
000252: 23,2751           54351                           TS       ALT
000253: 23,2752           54352                           TS       ALT        +1
000254:
000255: 23,2753           47755                           CS       ONE
000256: 23,2754           54350                           TS       DIDFLG
000257:
000258: 23,2755           51563        CHK7               INDEX    TESTNO
000259: 23,2756           33006                           CAF      RRRATFPS
000260: 23,2757           54357                           TS       FORVEL
000261: 23,2760           54360                           TS       LATVEL
000262:
000263: 23,2761           03171                           TC       RROPRDLY
000264:
000265: 23,2762           25563                           INCR     TESTNO
000266:
000267: 23,2763           47751                           CS       BIT5
000268: 23,2764           67754                           AD       TWO
000269: 23,2765           61563                           AD       TESTNO
000270: 23,2766           00006                           EXTEND
000271: 23,2767           62755                           BZMF     CHK7
000272:
000273: 23,2770           05224        ENDTST03           TC       BANKCALL
000274: 23,2771           30747                           CADR     ENDTEST
000275:


000277: 23,2772           03013        ERCTRANG           OCT      03013
000278: 23,2773           02660                           OCT      02660
000279: 23,2774           01042                           OCT      01042
000280: 23,2775           00000                           OCT      00000
000281: 23,2776           76736                           OCT      76736
000282: 23,2777           75120                           OCT      75120
000283: 23,3000           74765                           OCT      74765
000284:
000285:
000286:
000287:
000288:
000289: 23,3001           01463        RADECNTR           OCT      01463
000290: 23,3002           01042                           OCT      01042
000291: 23,3003           00000                           OCT      00000
000292: 23,3004           76736                           OCT      76736
000293: 23,3005           76315                           OCT      76315
000294:
000295:
000296:
000297:
000298:
000299: 23,3006           00000        RRRATFPS           OCT      00000
000300: 23,3007           00001                           OCT      00001
000301: 23,3010           00002                           OCT      00002
000302: 23,3011           00004                           OCT      00004
000303: 23,3012           00010                           OCT      00010
000304: 23,3013           00020                           OCT      00020
000305: 23,3014           00040                           OCT      00040
000306: 23,3015           00100                           OCT      00100
000307: 23,3016           00200                           OCT      00200
000308: 23,3017           00237                           OCT      00237
000309:
000310: 23,3020           00400                           OCT      00400
000311: 23,3021           00545                           OCT      00545
000312: 23,3022           00544                           OCT      00544
000313: 23,3023           77540                           OCT      77540
000314: 23,3024           77232                           OCT      77232
000315:


000317: 23,3025           00006        CDURATE            EXTEND
000318: 23,3026           23546                           QXCH     QPLACE
000319:
000320: 23,3027           55577                           TS       CDULIMIT
000321:
000322: 23,3030           10067                           CCS      NEWJOB
000323: 23,3031           05550                           TC       CHANG1
000324:
000325: 23,3032           41577                           CS       CDULIMIT
000326: 23,3033           51672                           INDEX    CDUNDX
000327: 23,3034           60032                           AD       CDUX                                  #  CATCH FIRST PULSE
000328: 23,3035           00006                           EXTEND
000329: 23,3036           63030                           BZMF     CDURATE    +3                         #  LOOK AGAIN
000330:
000331: 23,3037           51672                           INDEX    CDUNDX
000332: 23,3040           30032                           CAE      CDUX
000333: 23,3041           57575                           XCH      CDUREADF                              #  CDU FINAL READING
000334: 23,3042           57576                           XCH      CDUREADI                              #  CDU INITIAL READING
000335:
000336: 23,3043           05015                           TC       FINETIME
000337: 23,3044           53573                           DXCH     CDUTIMEF                              #  DP FINAL TIME
000338: 23,3045           53571                           DXCH     CDUTIMEI                              #  DP INITIAL READING
000339:
000340: 23,3046           00003                           RELINT
000341: 23,3047           01546                           TC       QPLACE
000342:
000343:
000344:
000345:
000346:
000347: 23,3050           00006        CALCRATE           EXTEND
000348: 23,3051           23546                           QXCH     QPLACE
000349:
000350: 23,3052           53576                           DXCH     CDUREADF
000351: 23,3053           00006                           EXTEND
000352: 23,3054           20001                           MSU      L
000353: 23,3055           55677                           TS       CDUANG
000354:
000355: 23,3056           06103                           TC       INTPRET
000356: 23,3057           45345                           DLOAD    DSU
000357: 23,3060           02573                                    CDUTIMEF
000358: 23,3061           02571                                    CDUTIMEI
000359: 23,3062           67206                           PUSH     SLOAD
000360: 23,3063           02700                                    CDUANG
000361: 23,3064           56261                           SR       DDV
000362: 23,3065           20617                                    14D
000363: 23,3066           47005                           DMP      RTB
000364: 23,3067           07363                                    DEG/SEC
000365: 23,3070           33565                                    SGNAGREE
000366: 23,3071           00343                           STORE    DSPTEM2
000367:


000369: 23,3072           77776                           EXIT
000370:
000371: 23,3073           33354        RATEDSP            CAF      V06N66X
000372: 23,3074           04646                           TC       NVSBWAIT
000373: 23,3075           04611                           TC       FLASHON
000374: 23,3076           04464                           TC       ENDIDLE
000375: 23,3077           12770                           TCF      ENDTST03
000376: 23,3100           13102                           TCF      +2
000377: 23,3101           13073                           TCF      RATEDSP
000378:
000379: 23,3102           25550                           INCR     RUN
000380: 23,3103           01546                           TC       QPLACE
000381:


000383: 23,3104           54400        THETADLD           TS       THETAD
000384: 23,3105           54401                           TS       THETAD     +1
000385:
000386: 23,3106           54402                           TS       THETAD     +2
000387:
000388: 23,3107           00006                           EXTEND
000389: 23,3110           23546                           QXCH     QPLACE
000390:
000391: 23,3111           37757                           CAF      SEVEN
000392: 23,3112           55551        THLD1              TS       STOREPL
000393:
000394: 23,3113           05224                           TC       BANKCALL
000395: 23,3114           26065                           CADR     IMUCOARS
000396: 23,3115           05224                           TC       BANKCALL
000397: 23,3116           26762                           CADR     IMUSTALL
000398: 23,3117           12770                           TCF      ENDTST03
000399:
000400: 23,3120           11551                           CCS      STOREPL
000401: 23,3121           03112                           TC       THLD1
000402:
000403: 23,3122           03176                           TC       OPRTRDLY
000404:
000405: 23,3123           01546                           TC       QPLACE
000406:
000407:
000408:
000409:
000410:
000411: 23,3124           00006        FINEALGN           EXTEND
000412: 23,3125           23546                           QXCH     QPLACE
000413:
000414: 23,3126           05224                           TC       BANKCALL
000415: 23,3127           26251                           CADR     IMUFINE
000416: 23,3130           05224                           TC       BANKCALL
000417: 23,3131           26762                           CADR     IMUSTALL
000418: 23,3132           12770                           TCF      ENDTST03
000419:
000420: 23,3133           01546                           TC       QPLACE
000421:


000423: 23,3134           00006        CH30DSPY           EXTEND
000424: 23,3135           23546                           QXCH     QPLACE
000425:
000426: 23,3136           33345                           CAF      OCT30
000427: 23,3137           54146                           TS       MPAC       +2
000428: 23,3140           33350                           CAF      V01N10X
000429: 23,3141           04646                           TC       NVSBWAIT
000430: 23,3142           04611                           TC       FLASHON
000431:
000432: 23,3143           04464                           TC       ENDIDLE
000433: 23,3144           12770                           TCF      ENDTST03
000434: 23,3145           13147                           TCF      +2
000435: 23,3146           13136                           TCF      CH30DSPY   +2
000436:
000437: 23,3147           04615                           TC       FLASHOFF
000438: 23,3150           25550                           INCR     RUN
000439: 23,3151           01546                           TC       QPLACE
000440:
000441:
000442:
000443:
000444:
000445: 23,3152           00006        ZEROMODE           EXTEND
000446: 23,3153           23546                           QXCH     QPLACE
000447:
000448: 23,3154           05224                           TC       BANKCALL
000449: 23,3155           26000                           CADR     IMUZERO
000450: 23,3156           05224                           TC       BANKCALL
000451: 23,3157           26762                           CADR     IMUSTALL
000452: 23,3160           12770                           TCF      ENDTST03
000453:
000454: 23,3161           01546                           TC       QPLACE
000455:
000456:
000457:
000458:
000459:
000460: 23,3162           43347        ZEROMAIN           CS       4+6BITS
000461: 23,3163           00006                           EXTEND
000462: 23,3164           03012                           WAND     12
000463:
000464: 23,3165           37751                           CAF      BIT5
000465: 23,3166           00006                           EXTEND
000466: 23,3167           05012                           WOR      12
000467:
000468: 23,3170           00002                           TC       Q
000469:


000471: 23,3171           00006        RROPRDLY           EXTEND
000472: 23,3172           23545                           QXCH     QPLAC
000473:
000474: 23,3173           25550                           INCR     RUN
000475:
000476: 23,3174           33353                           CAF      V06N40X
000477: 23,3175           13202                           TCF      OPRTRDLY   +4
000478:
000479:
000480:
000481:
000482:
000483: 23,3176           00006        OPRTRDLY           EXTEND
000484: 23,3177           23545                           QXCH     QPLAC
000485:
000486: 23,3200           25550                           INCR     RUN
000487: 23,3201           33352                           CAF      V06N20X
000488: 23,3202           04646                           TC       NVSBWAIT
000489: 23,3203           33355                           CAF      V33N00X
000490: 23,3204           04646                           TC       NVSBWAIT
000491: 23,3205           31550                           CA       RUN
000492: 23,3206           73344                           MASK     6LOW
000493: 23,3207           04646                           TC       NVSBWAIT
000494: 23,3210           04611                           TC       FLASHON
000495: 23,3211           04464                           TC       ENDIDLE
000496: 23,3212           12770                           TCF      ENDTST03
000497: 23,3213           13215                           TCF      +2
000498: 23,3214           13201                           TCF      OPRTRDLY   +3
000499:
000500: 23,3215           04615                           TC       FLASHOFF
000501: 23,3216           01545                           TC       QPLAC
000502:
000503: 23,3217           00006        FINEZERO           EXTEND
000504: 23,3220           23545                           QXCH     QPLAC
000505:
000506: 23,3221           05224                           TC       BANKCALL
000507: 23,3222           26000                           CADR     IMUZERO
000508:
000509: 23,3223           37754                           CAF      TWO
000510: 23,3224           55512                           TS       EROPTN
000511: 23,3225           37753                           CAF      FOUR
000512: 23,3226           55544                           TS       POSITON
000513:
000514: 23,3227           00004                           INHINT
000515: 23,3230           47744                           CS       BIT10
000516: 23,3231           70074                           MASK     STATE
000517: 23,3232           67744                           AD       BIT10
000518: 23,3233           54074                           TS       STATE
000519: 23,3234           00003                           RELINT
000520:


000522: 23,3235           05224                           TC       BANKCALL
000523: 23,3236           30762                           CADR     LEMLAB
000524:
000525: 23,3237           04633        SAMODRTN           TC       GRABWAIT
000526:
000527: 23,3240           03162                           TC       ZEROMAIN
000528:
000529: 23,3241           00004                           INHINT
000530: 23,3242           37743                           CAF      BIT11
000531: 23,3243           05701                           TC       WAITLIST
000532: 23,3244  E5,1400                                  EBANK=   XSM
000533: 23,3244           03250 46005                     2CADR    DSPY30
000534:
000535: 23,3246           33356                           CAF      CH30WAKE
000536: 23,3247           05563                           TC       JOBSLEEP
000537:
000538: 23,3250           33356        DSPY30             CAF      CH30WAKE
000539: 23,3251           05567                           TC       JOBWAKE
000540: 23,3252           05745                           TC       TASKOVER
000541:
000542: 23,3253           03134        DSPYCH30           TC       CH30DSPY
000543: 23,3254           03152                           TC       ZEROMODE
000544:
000545: 23,3255           01545                           TC       QPLAC
000546:
000547:
000548:
000549: 23,3256           37761        COARZERO           CAF      ZERO
000550: 23,3257           54400                           TS       THETAD
000551: 23,3260           54401                           TS       THETAD     +1
000552: 23,3261           54402                           TS       THETAD     +2
000553:
000554: 23,3262           00006                           EXTEND
000555: 23,3263           23546                           QXCH     QPLACE
000556:
000557: 23,3264           05224                           TC       BANKCALL
000558: 23,3265           26065                           CADR     IMUCOARS
000559: 23,3266           05224                           TC       BANKCALL
000560: 23,3267           26762                           CADR     IMUSTALL
000561: 23,3270           12770                           TCF      ENDTST03
000562:
000563: 23,3271           01546                           TC       QPLACE
000564:


000566: 23,3272           00006        FNZEROFN           EXTEND
000567: 23,3273           23545                           QXCH     QPLAC
000568:
000569: 23,3274           03124                           TC       FINEALGN
000570:
000571: 23,3275           30032                           CAE      CDUX
000572: 23,3276           55575                           TS       CDUREADF
000573: 23,3277           30033                           CAE      CDUY
000574: 23,3300           55576                           TS       CDUREADI
000575: 23,3301           30034                           CAE      CDUZ
000576: 23,3302           55577                           TS       CDULIMIT
000577:
000578: 23,3303           03152                           TC       ZEROMODE
000579:
000580: 23,3304           31575        FZF2               CAE      CDUREADF
000581: 23,3305           00006                           EXTEND
000582: 23,3306           20032                           MSU      CDUX
000583: 23,3307           54337                           TS       DSPTEM1
000584:
000585: 23,3310           31576                           CAE      CDUREADI
000586: 23,3311           00006                           EXTEND
000587: 23,3312           20033                           MSU      CDUY
000588: 23,3313           54340                           TS       DSPTEM1    +1
000589:
000590: 23,3314           31577                           CAE      CDULIMIT
000591: 23,3315           00006                           EXTEND
000592:
000593: 23,3316           20034                           MSU      CDUZ
000594: 23,3317           54341                           TS       DSPTEM1    +2
000595:
000596: 23,3320           33351        FZFDSP             CAF      V05N30X
000597: 23,3321           04646                           TC       NVSBWAIT
000598: 23,3322           04611                           TC       FLASHON
000599: 23,3323           04464                           TC       ENDIDLE
000600: 23,3324           12770                           TCF      ENDTST03
000601: 23,3325           13327                           TCF      +2
000602: 23,3326           13320                           TCF      FZFDSP
000603:
000604: 23,3327           25550                           INCR     RUN
000605: 23,3330           01545                           TC       QPLAC
000606:


000608: 23,3331           00133        1ANG               OCT      00133
000609: 23,3332           06000        33.75ANG           OCT      06000
000610: 23,3333           10000        45ANG              OCT      10000
000611: 23,3334           14477        71ANG              OCT      14477
000612: 23,3335           20000        90ANG              OCT      20000
000613: 23,3336           30000        135ANG             OCT      30000
000614: 23,3337           01616        10ANG              OCT      01616
000615: 23,3340           34344        160ANG             OCT      34344
000616:
000617: 23,3341           40000        180ANG             OCT      40000
000618: 23,3342           50000        225ANG             OCT      50000
000619: 23,3343           36162        170ANG             OCT      36162
000620:
000621: 23,3344           00077        6LOW               OCT      77
000622: 23,3345           00030        OCT30              OCT      30
000623: 23,3346           00454        3SEC               DEC      300        B-14
000624: 23,3347           00050        4+6BITS            OCT      00050
000625:
000626: 23,3350           00110        V01N10X            OCT      00110
000627: 23,3351           00530        V05N30X            OCT      00530
000628: 23,3352           00620        V06N20X            OCT      00620
000629: 23,3353           00640        V06N40X            OCT      00640
000630: 23,3354           00666        V06N66X            OCT      00666
000631: 23,3355           03300        V33N00X            OCT      03300
000632:
000633: 23,3356           47253        CH30WAKE           CADR     DSPYCH30
000634: 23,3357           46670        ECE2CADR           CADR     ECE2
000635: 23,3360           47304        FZF2CADR           CADR     FZF2
000636: 23,3361           02500        OGCECADR           ECADR    OGC
000637:
000638: 23,3362           00043 05000  DEG/SEC            2DEC     576000     B-28

End of include-file IMU_PERFORMANCE_TESTS_3.agc.  Parent file is MAIN.agc


