
Source Code


000002:                                                                                                  ## Copyright:   Public domain.
000003:                                                                                                  ## Filename:    IMU_PERFORMANCE_TESTS_1.agc
000004:                                                                                                  ## Purpose:     A section of Sunburst revision 37, or Shepatin revision 0.
000005:                                                                                                  ##              It is part of an early development version of the software
000006:                                                                                                  ##              for Apollo Guidance Computer (AGC) on the unmanned Lunar
000007:                                                                                                  ##              Module (LM) flight Apollo 5. Sunburst 37 was the program
000008:                                                                                                  ##              upon which Don Eyles's offline development program Shepatin
000009:                                                                                                  ##              was based; the listing herein transcribed was actually for
000010:                                                                                                  ##              the equivalent revision 0 of Shepatin.
000011:                                                                                                  ##              This file is intended to be a faithful transcription, except
000012:                                                                                                  ##              that the code format has been changed to conform to the
000013:                                                                                                  ##              requirements of the yaYUL assembler rather than the
000014:                                                                                                  ##              original YUL assembler.
000015:                                                                                                  ## Reference:   pp. 361-390
000016:                                                                                                  ## Assembler:   yaYUL
000017:                                                                                                  ## Contact:     Ron Burkey <info@sandroid.org>.
000018:                                                                                                  ## Website:     www.ibiblio.org/apollo/index.html
000019:                                                                                                  ## Mod history: 2017-05-24 MAS  Created from Sunburst 120.
000020:                                                                                                  ##              2017-06-08 RSB  Transcribed.
000021:                                                                                                  ##              2017-06-22 RSB  Proofed comment text with
000022:                                                                                                  ##                              octopus/ProoferComments.
000023:


000025: 14,2000                                           BANK     14
000026: 14,2000  E5,1400                                  EBANK=   XSM
000027:
000028:
000029:
000030: 14,2000           37755        AOTNBIMU           CAF      ONE                                   #  AOT-NB-IMU FINE ALIGNMENT TEST
000031: 14,2001           55512                           TS       EROPTN                                #  ... TEST CAPABILITY ...
000032:
000033: 14,2002           05224                           TC       BANKCALL
000034: 14,2003           26000                           CADR     IMUZERO                               #  IMU ZERO ENCODER MODE
000035: 14,2004           06103                           TC       INTPRET
000036: 14,2005           77624                           CALL
000037: 14,2006           30532                                    LATAZCHK                              #  TO LOAD AZIMUTH (SM) AND LATITUDE
000038: 14,2007           77624                           CALL
000039: 14,2010           30325                                    MAKEXSMD                              #  TO SET UP A STABLE MEMBER DESIRED MATRIX
000040: 14,2011           45014                           SET      CALL
000041: 14,2012           00065                                    COAROFIN                              #  FOR COARSE OR FINE ALIGN MARKS
000042: 14,2013           30407                                    ERTHRVSE                              #  TO CALCULATE EARTH RATE VECTOR
000043: 14,2014           77776                           EXIT
000044:
000045: 14,2015           33657        POSLOAD            CAF      V24N30E                               #  R1  0000X ENTER    POSITION 1,2, OR 3
000046: 14,2016           04646                           TC       NVSBWAIT                              #  R2  00000 ENTER    00001 FOR LAB OPTION
000047: 14,2017           04464                           TC       ENDIDLE
000048: 14,2020           12747                           TCF      ENDTEST
000049: 14,2021           12015                           TCF      -4
000050: 14,2022           56337                           XCH      DSPTEM1                               #  DO NOT USE POSITION 3 WITH NAV BASE AT
000051: 14,2023           55544                           TS       POSITON                               #     ZERO DEGREE TILT ANGLE. (GIMBAL LOCK)
000052:
000053: 14,2024           10340                           CCS      DSPTEM1    +1
000054: 14,2025           12762                           TCF      LEMLAB                                #  SPECIAL LAB TEST TO BYPASS MARKS
000055:
000056: 14,2026           02600                           TC       POSNJUMP                              #  SET UP STABLE MEMBER DESIRED COORDINATES
000057:
000058: 14,2027           02503                           TC       OPTDATA                               #  TARGETS 1,2 AZIMUTH AND ELEVATION
000059:
000060: 14,2030           02135                           TC       FINDNAVB                              #  COARSE ALIGN MARKS
000061:
000062: 14,2031           05224                           TC       BANKCALL
000063: 14,2032           26762                           CADR     IMUSTALL                              #  INSURE IMUZERO COMPLETION
000064: 14,2033           12747                           TCF      ENDTEST
000065:
000066: 14,2034           02247                           TC       PUTPOSX                               #  TO COARSE ALIGN STABLE MEMBER
000067:
000068: 14,2035           02741                           TC       GMLCKCHK                              #  CHECK FOR GIMBAL LOCK BEFORE FINE ALIGN
000069: 14,2036           02731                           TC       OGCZERO                               #  FOR EARTH RATE COMPENSATION
000070:
000071: 14,2037           05224                           TC       BANKCALL
000072: 14,2040           26251                           CADR     IMUFINE                               #  FINE ALIGN MODE
000073: 14,2041           05224                           TC       BANKCALL
000074: 14,2042           26762                           CADR     IMUSTALL


000076: 14,2043           12747                           TCF      ENDTEST
000077:
000078: 14,2044           02135                           TC       FINDNAVB                              #  FINE ALIGN MARKS
000079:
000080: 14,2045           04713                           TC       FREEDSP                               #  FREE DISPLAY SYSTEM
000081:
000082: 14,2046           02263                           TC       SMDCALC                               #  TO FINE ALIGN STABLE MEMBER
000083:
000084: 14,2047           05224        ERFINAL            TC       BANKCALL                              #  LAST EARTH RATE SHOT
000085: 14,2050           30424                           CADR     EARTHR
000086: 14,2051           11512                           CCS      EROPTN                                #  IF DESIRED TO COMPENSATE CONTINUALLY
000087: 14,2052           12065                           TCF      MONSTART                              #      CHANGE BY V21 N02 E XXXXX E 00000 E
000088: 14,2053           12047                           TCF      ERFINAL
000089: 14,2054           12747                           TCF      ENDTEST
000090:
000091: 14,2055           55512                           TS       EROPTN
000092: 14,2056           00004                           INHINT
000093: 14,2057           35662                           CAF      PRIO21                                #  PRIORITY 1 HIGHER THAN SXTNBIMU
000094: 14,2060           05534                           TC       FINDVAC
000095: 14,2061  E5,1400                                  EBANK=   XSM
000096: 14,2061           03064 30005                     2CADR    RDR37511
000097:
000098: 14,2063           00003                           RELINT
000099: 14,2064           02047                           TC       ERFINAL
000100:
000101: 14,2065           05015        MONSTART           TC       FINETIME                              #  TIME AT INITIAL MISALIGNMENT
000102: 14,2066           52145                           DXCH     MPAC
000103: 14,2067           00003                           RELINT
000104: 14,2070           37761                           CAF      ZERO                                  #  ZERO PIPA COUNTERS
000105: 14,2071           54037                           TS       PIPAX
000106: 14,2072           54040                           TS       PIPAY
000107: 14,2073           54041                           TS       PIPAZ
000108: 14,2074           55551                           TS       STOREPL
000109: 14,2075           55537                           TS       NDXCTR
000110: 14,2076           02456                           TC       STORRSLT                              #  STORE T(INITIAL) AND PIPAI = 0
000111:
000112: 14,2077           00004                           INHINT
000113: 14,2100           33670                           CAF      60SEC                                 #  INSURE PIPAI VARIES IN ONE DIRECTION
000114:
000115: 14,2101           05701                           TC       WAITLIST
000116: 14,2102  E5,1400                                  EBANK=   XSM
000117: 14,2102           02106 30005                     2CADR    PIP1
000118:
000119: 14,2104           32134                           CAF      PIP2ADR
000120: 14,2105           05563                           TC       JOBSLEEP
000121:
000122: 14,2106           32134        PIP1               CAF      PIP2ADR
000123: 14,2107           05567                           TC       JOBWAKE
000124: 14,2110           05745                           TC       TASKOVER
000125:
000126: 14,2111           31542        PIP2               CAE      PIPNDX
000127: 14,2112           55541                           TS       PIPINDEX                              #  POS1 PIPAY     POS2 PIPAX     POS3 PIPAX


000129: 14,2113           05224                           TC       BANKCALL
000130: 14,2114           50773                           CADR     CHECKG                                #  SYNC ON PIPA PULSE
000131:
000132: 14,2115           00003                           RELINT
000133: 14,2116           02456                           TC       STORRSLT                              #  STORE TIME AND PIPAI
000134:
000135: 14,2117           31543                           CAE      PIPNDX     +1
000136: 14,2120           55541                           TS       PIPINDEX                              #  POS1 PIPAZ     POS2 PIPAY     POS3 PIPAZ
000137: 14,2121           05224                           TC       BANKCALL
000138: 14,2122           50773                           CADR     CHECKG                                #  SYNC ON PIPA PULSE
000139:
000140: 14,2123           00003                           RELINT
000141: 14,2124           02456                           TC       STORRSLT                              #  STORE TIME AND PIPAI
000142:
000143: 14,2125           00004                           INHINT
000144: 14,2126           33667                           CAF      30SEC                                 #  MONITOR PIPAS AT 30 SECOND INTERVALS
000145: 14,2127           05701                           TC       WAITLIST
000146: 14,2130  E5,1400                                  EBANK=   XSM
000147: 14,2130           02106 30005                     2CADR    PIP1
000148:
000149: 14,2132           32134                           CAF      PIP2ADR
000150: 14,2133           05563                           TC       JOBSLEEP
000151: 14,2134           30111        PIP2ADR            CADR     PIP2
000152:


000154: 14,2135           00006        FINDNAVB           EXTEND                                         #  MARKS * CALC NB OR SM WRT EARTH REF
000155: 14,2136           23546                           QXCH     QPLACE
000156:
000157: 14,2137           05224                           TC       BANKCALL
000158: 14,2140           27060                           CADR     MKRELEAS                              #  RELEASE MARK SYSTEM
000159: 14,2141           37755                           CAF      ONE
000160: 14,2142           54337                           TS       DSPTEM1
000161: 14,2143           33653                           CAF      V01N30E                               #  DISPLAY 00001 IN R1
000162: 14,2144           04646                           TC       NVSBWAIT
000163: 14,2145           37761                           CAF      ZERO                                  #  TO INDICATE GROUND MARKS
000164: 14,2146           05224                           TC       BANKCALL
000165: 14,2147           27017                           CADR     AOTMARK                               #  MARK ON TARGET 1
000166:
000167: 14,2150           05224                           TC       BANKCALL
000168: 14,2151           26760                           CADR     OPTSTALL                              #  INSURE SUCCESSFUL MARK
000169: 14,2152           12747                           TCF      ENDTEST
000170: 14,2153           00006                           EXTEND
000171: 14,2154           50373                           INDEX    MARKSTAT
000172: 14,2155           30001                           DCA      0
000173: 14,2156           53565                           DXCH     TMARK                                 #  TIME(PRES) FOR EARTH RATE COMPENSATION
000174:
000175: 14,2157           02242                           TC       GIMANGS1
000176:
000177: 14,2160           06103                           TC       INTPRET
000178: 14,2161           45140                           LXC,1    CALL
000179: 14,2162           00373                                    MARKSTAT                              #  BASE ADDRESS VAC AREA FOR AOTNB
000180:
000181: 14,2163           33161                                    AOTNB                                 #  OPTICS TO NAV BASE COORDINATE FRAME
000182: 14,2164           45014                           BON      CALL
000183: 14,2165           00305                                    COAROFIN                              #  COARSE MARKS = 0    FINE MARKS = 1
000184: 14,2166           30170                                    +2
000185: 14,2167           32622                                    NBSM                                  #  NAV BASE DIRECT TO STABLE MEMBER
000186: 14,2170           02445                           STORE    STARAD                                #  TARGET 1 WRT NAV BASE OR STABLE MEMBER
000187: 14,2171           02601                           STORE    LOS1                                  #  ...FOR K...
000188: 14,2172           77776                           EXIT
000189:
000190: 14,2173           05224                           TC       BANKCALL
000191: 14,2174           27060                           CADR     MKRELEAS                              #  RELEASE MARK SYSTEM
000192: 14,2175           37754                           CAF      TWO
000193: 14,2176           54337                           TS       DSPTEM1
000194: 14,2177           33653                           CAF      V01N30E                               #  DISPLAY 00002 IN R1
000195: 14,2200           04646                           TC       NVSBWAIT
000196: 14,2201           37761                           CAF      ZERO                                  #  TO INDICATE GROUND MARKS
000197: 14,2202           05224                           TC       BANKCALL
000198: 14,2203           27017                           CADR     AOTMARK                               #  MARK ON TARGET 2
000199:
000200: 14,2204           37744                           CAF      BIT10
000201: 14,2205           70074                           MASK     STATE                                 #  BIT10 = COAROFIN
000202: 14,2206           10000                           CCS      A
000203: 14,2207           12215                           TCF      EARRTCOM   +5                         #  IF COARSE ALIGN MARKS
000204:


000206: 14,2210           05224        EARRTCOM           TC       BANKCALL                              #  EARTH RATE COMPENSATION BETWEEN MARKS
000207: 14,2211           30424                           CADR     EARTHR
000208: 14,2212           10370                           CCS      OPTCADR                               #  +0 IF MARK BUTTON NOT DEPRESSED
000209: 14,2213           12216                           TCF      +3
000210: 14,2214           12210                           TCF      EARRTCOM                              #  CONTINUE TO COMPENSATE FOR EARTH RATE
000211: 14,2215           12216                           TCF      +1
000212: 14,2216           05224                           TC       BANKCALL
000213: 14,2217           26760                           CADR     OPTSTALL                              #  INSURE SUCCESSFUL MARK
000214:
000215: 14,2220           12747                           TCF      ENDTEST
000216:
000217: 14,2221           02242                           TC       GIMANGS1
000218:
000219: 14,2222           06103                           TC       INTPRET
000220: 14,2223           45140                           LXC,1    CALL
000221: 14,2224           00373                                    MARKSTAT                              #  BASE ADDRESS VAC AREA FOR AOTNB
000222: 14,2225           33161                                    AOTNB                                 #  OPTICS TO NAV BASE COORDINATE FRAME
000223: 14,2226           45014                           BONCLR   CALL                                  #  SET TO ZERO FOR FINE ALIGN MARKS
000224: 14,2227           00205                                    COAROFIN                              #  COARSE MARKS = 0    FINE MARKS = 1
000225: 14,2230           30232                                    +2
000226: 14,2231           32622                                    NBSM                                  #  NAV BASE DIRECT TO STABLE MEMBER
000227: 14,2232           02453                           STORE    STARAD     +6                         #  TARGET 2 WRT NAV BASE OR STABLE MEMBER
000228: 14,2233           02607                           STORE    LOS2                                  #  ...FOR K...
000229:
000230: 14,2234           77624        MAXDET             CALL
000231: 14,2235           30350                                    TAR/EREF                              #  TARGETS 1,2 WRT EARTH REF FRAME
000232: 14,2236           77624                           CALL
000233: 14,2237           33006                                    AXISGEN                               #  NAV BASE OR SM WRT EARTH REF FRAME
000234: 14,2240           77776                           EXIT
000235: 14,2241           01546                           TC       QPLACE
000236:
000237:
000238:
000239: 14,2242           37754        GIMANGS1           CAF      TWO                                   #  BASE ADDRESS GIMBAL ANGLES FOR NBSM
000240: 14,2243           60373                           AD       MARKSTAT
000241: 14,2244           50110                           INDEX    FIXLOC
000242: 14,2245           54050                           TS       S1
000243: 14,2246           00002                           TC       Q
000244:


000246: 14,2247           00006        PUTPOSX            EXTEND                                         #  COARSE ALIGNS STABLE MEMBER
000247: 14,2250           23546                           QXCH     QPLACE
000248:
000249: 14,2251           06103                           TC       INTPRET
000250: 14,2252           77624                           CALL
000251: 14,2253           32722                                    CALCGA                                #  CALCULATE COARSE ALIGN GIMBAL ANGLES
000252: 14,2254           77776                           EXIT
000253:
000254: 14,2255           05224                           TC       BANKCALL
000255: 14,2256           26065                           CADR     IMUCOARS                              #  COARSE ALIGN MODE
000256: 14,2257           05224                           TC       BANKCALL
000257: 14,2260           26762                           CADR     IMUSTALL
000258: 14,2261           12747                           TCF      ENDTEST
000259: 14,2262           01546                           TC       QPLACE
000260:
000261:
000262:
000263:
000264: 14,2263           00006        SMDCALC            EXTEND                                         #  FINE ALIGNS STABLE MEMBER
000265: 14,2264           23546                           QXCH     QPLACE
000266:
000267: 14,2265           06103                           TC       INTPRET
000268: 14,2266           64375                           VLOAD    MXV
000269: 14,2267           02401                                    XSM                                   #  XSM DESIRED WRT EARTH REF FRAME
000270: 14,2270           02445                                    STARAD                                #  THEN TO SM PRESENT OR NAV BASE FRAME
000271: 14,2271           43172                           VSL1     BOFF
000272: 14,2272           00345                                    COAROFIN                              #  BIT10 FOR LEMLAB TEST
000273: 14,2273           30276                                    +3
000274: 14,2274           34041                           STCALL   32D
000275: 14,2275           32622                                    NBSM                                  #  THEN TO SM PRESENT FRAME
000276: 14,2276           26423                           STOVL    XDC
000277: 14,2277           02407                                    YSM                                   #  YSM DESIRED WRT EARTH REF FRAME
000278:
000279: 14,2300           76521                           MXV      VSL1
000280: 14,2301           02445                                    STARAD                                #  THEN TO SM PRESENT OR NAV BASE FRAME
000281: 14,2302           77614                           BOFF
000282: 14,2303           00345                                    COAROFIN                              #  BIT10 FOR LEMLAB TEST
000283: 14,2304           30307                                    +3
000284: 14,2305           34041                           STCALL   32D
000285: 14,2306           32622                                    NBSM                                  #  THEN TO SM PRESENT FRAME
000286: 14,2307           26431                           STOVL    YDC
000287: 14,2310           02423                                    XDC
000288:
000289: 14,2311           76435                           VXV      VSL1
000290: 14,2312           02431                                    YDC
000291: 14,2313           36437                           STCALL   ZDC                                   #  ZSM DESIRED WRT SM PRESENT FRAME
000292: 14,2314           32472                                    CALCGTA                               #  CALCULATE FINE ALIGN TORQUING ANGLES
000293:
000294: 14,2315           47170                           AXT,1    RTB
000295:


000297: 14,2316           02500                           ECADR    OGC                                   #  X1 = BASE ADDRESS OF TORQUING ANGLES
000298: 14,2317           33674                                    PULSEIMU                              #  TO PUT OUT GYRO TORQUING PULSES
000299: 14,2320           77776                           EXIT
000300:
000301: 14,2321           05224                           TC       BANKCALL
000302: 14,2322           26762                           CADR     IMUSTALL                              #  WAIT FOR PULSES TO GET OUT
000303: 14,2323           12747                           TCF      ENDTEST
000304: 14,2324           01546                           TC       QPLACE
000305:


000307: 14,2325           77776        MAKEXSMD           EXIT                                           #  XSM V   YSM SW   ZSM SE
000308:
000309: 14,2326           33662                           CAF      17DEC                                 #  ZERO XSM, YSM, AND ZSM
000310: 14,2327           55777                           TS       ZERONDX
000311: 14,2330           33700                           CAF      XSMADRX
000312: 14,2331           05224                           TC       BANKCALL
000313: 14,2332           51240                           CADR     ZEROING                               #          VERT       SOUTH      EAST
000314:
000315: 14,2333           37740                           CAF      HALF                                  #  XSM    * +1          0          0     *
000316: 14,2334           55400                           TS       XSM                                   #         *                              *
000317: 14,2335           06103                           TC       INTPRET                               #         *                              *
000318: 14,2336           73545                           DLOAD    SIN                                   #  YSM    *  0      +SIN(AZ)    +COS(AZ) *
000319: 14,2337           02507                                    AZIMUTH                               #         *                              *
000320: 14,2340           02411                           STORE    XSM        +8D                        #         *                              *
000321: 14,2341           16421                           STODL    XSM        +16D                       #  ZSM    *  0      -COS(AZ)    +SIN(AZ) *
000322: 14,2342           02507                                    AZIMUTH
000323: 14,2343           77746                           COS
000324: 14,2344           02413                           STORE    XSM        +10D
000325: 14,2345           77676                           DCOMP
000326: 14,2346           02417                           STORE    XSM        +14D
000327: 14,2347           77616                           RVQ
000328:
000329:
000330:
000331: 14,2350           77170        TAR/EREF           AXT,1    AXT,2                                 #               TARGET VECTOR
000332: 14,2351           00002                                    2                                     #  SIN(EL)  -COS(AZ)COS(EL)  SIN(AZ)COS(EL)
000333: 14,2352           00014                                    12D
000334: 14,2353           77731                           SSP
000335: 14,2354           00052                                    S2
000336: 14,2355           00006                                    6                                     #  TARGET 1                        TARGET 2
000337:
000338: 14,2356           60533        TAR1               SLOAD*   SR2                                   #  X1=2  X2=12  S2=6 . X1=0  X2=6  S2=6
000339: 14,2357           02557                                    TAZEL1     +3,1
000340: 14,2360           00001                           STORE    0                                     #  PD00           ELEVATION            PD00
000341: 14,2361           77756                           SIN
000342: 14,2362           10023                           STORE    18D,2                                 #  PD06  ***       SIN(EL)        ***  PD12
000343: 14,2363           77745                           DLOAD
000344: 14,2364           00001                                    0
000345: 14,2365           41546                           COS      PUSH                                  #  PDOO            COS(EL)             PD00
000346: 14,2366           47133                           SLOAD*   RTB
000347: 14,2367           02556                                    TAZEL1     +2,1
000348: 14,2370           33524                                    CDULOGIC
000349: 14,2371           00003                           STORE    2                                     #  PD02            AZIMUTH             PD02
000350: 14,2372           41356                           SIN      DMP
000351: 14,2373           00001                                    0
000352: 14,2374           77752                           SL1
000353: 14,2375           10027                           STORE    22D,2                                 #  PD10  ***   +SIN(AZ)COS(EL)    ***  PD16
000354: 14,2376           77745                           DLOAD
000355: 14,2377           00003                                    2
000356: 14,2400           41346                           COS      DMP


000358: 14,2401           57552                           SL1      DCOMP
000359: 14,2402           10025                           STORE    20D,2                                 #  PD08  ***   -COS(AZ)COS(EL)    ***  PD14
000360:
000361: 14,2403           61170                           AXT,1    TIX,2
000362: 14,2404           00000                                    0
000363: 14,2405           30356                                    TAR1
000364: 14,2406           77616                           RVQ
000365:


000367: 14,2407           65345        ERTHRVSE           DLOAD    PDDL
000368: 14,2410           33152                                    ZERODP                                #  PD24 = (SIN  -COS  0)(OMEG/MS)
000369: 14,2411           02511                                    LATITUDE
000370: 14,2412           57546                           COS      DCOMP
000371: 14,2413           73525                           PDDL     SIN
000372: 14,2414           02511                                    LATITUDE                              #  EARTH RATE = .1504 ARCSEC / 10 MSEC
000373: 14,2415           74266                           VDEF     VXSC                                  #  1.618 GYRO PULSES = 1 ARCSEC
000374: 14,2416           31704                                    OMEG/MS                               #  OMEG/MS = .243... GYRO PULSES / 10 MSEC
000375: 14,2417           02514                           STORE    ERVECTOR
000376:
000377: 14,2420           77634                           RTB
000378: 14,2421           33521                                    LOADTIME
000379: 14,2422           02565                           STORE    TMARK                                 #  TIME FOR GYRO DRIFT - PIPA SCALE FACTOR
000380: 14,2423           77616                           RVQ
000381:
000382:
000383:
000384: 14,2424           05253        EARTHR             TC       MAKECADR                              #  CALCULATES AND COMPENSATES EARTH RATE
000385: 14,2425           55547                           TS       QPLACES
000386:
000387: 14,2426           06103                           TC       INTPRET
000388: 14,2427           77634                           RTB
000389: 14,2430           33521                                    LOADTIME                              #  T(PRESENT)
000390: 14,2431           02562                           STORE    TEMPTIME
000391: 14,2432           54225                           DSU      SL
000392: 14,2433           02565                                    TMARK                                 #  T(PRES) - T(PREV) = DT    SCALED 10 MSEC
000393: 14,2434           20212                                    9D                                    #  2 TO 21ST POWER = 1 REVOLUTION
000394: 14,2435           64361                           VXSC     MXV
000395: 14,2436           02514                                    ERVECTOR                              #  VT = (SIN  -COS  0)(OMEG/MS)(DT)
000396: 14,2437           02401                                    XSM                                   #  (XSM)(VT) = EARTH RATE COMPENSATION
000397: 14,2440           77655                           VAD
000398: 14,2441           02772                                    ERCOMP
000399: 14,2442           16772                           STODL    ERCOMP
000400: 14,2443           02562                                    TEMPTIME
000401: 14,2444           02565                           STORE    TMARK                                 #  T(PREVIOUS)
000402:
000403: 14,2445           47170                           AXT,1    RTB
000404: 14,2446           02771                           ECADR    ERCOMP
000405: 14,2447           33674                                    PULSEIMU                              #  TO PUT OUT GYRO TORQUING PULSES
000406: 14,2450           77776                           EXIT
000407:
000408: 14,2451           05224                           TC       BANKCALL
000409: 14,2452           26762                           CADR     IMUSTALL                              #  WAIT FOR PULSES TO GET OUT
000410: 14,2453           12747                           TCF      ENDTEST
000411: 14,2454           31547                           CAE      QPLACES
000412: 14,2455           15246                           TCF      BANKJUMP
000413:


000415: 14,2456           00006        STORRSLT           EXTEND
000416: 14,2457           23546                           QXCH     QPLACE
000417:
000418: 14,2460           06103                           TC       INTPRET                               #  DP TIME IN MPAC SCALED .312(5) MSEC
000419: 14,2461           54340                           LXC,1    SL
000420: 14,2462           02537                                    NDXCTR
000421: 14,2463           20204                                    3
000422: 14,2464           47005                           DMP      RTB
000423: 14,2465           31702                                    SCALFTR
000424: 14,2466           33565                                    SGNAGREE
000425: 14,2467           06571                           STORE    GENPL,1                               #  STORE DP TIME
000426: 14,2470           77776                           EXIT
000427:
000428: 14,2471           57551                           XCH      STOREPL                               #  CONTAINS C(PIPAI)
000429: 14,2472           51537                           INDEX    NDXCTR
000430: 14,2473           55572                           TS       GENPL      +2                         #  STORE PIPA COUNTER READING
000431: 14,2474           41537                           CS       NDXCTR
000432: 14,2475           63666                           AD       72DEC
000433: 14,2476           00006                           EXTEND
000434:
000435: 14,2477           63125                           BZMF     MISALIGN                              #  TO CALCULATE MISALIGNMENT
000436: 14,2500           36301                           CAF      THREE
000437: 14,2501           27537                           ADS      NDXCTR
000438: 14,2502           01546                           TC       QPLACE
000439:
000440: 14,2503           00006        OPTDATA            EXTEND                                         #  CALLS FOR AZIMUTH AND ELEVATION OF
000441: 14,2504           23546                           QXCH     QPLACE                                #     TARGET 1, THEN TARGET 2
000442:
000443: 14,2505           37755                           CAF      BIT1                                  #  AZIMUTH CLOCKWISE FROM NORTH TO TARGET
000444: 14,2506           22007                           ZL                                             #  ELEVATION MEASURED FROM HORIZONTAL
000445: 14,2507           23550                           LXCH     RUN
000446: 14,2510           54341                           TS       DSPTEM1    +2
000447: 14,2511           33654                           CAF      V05N30E                               #  DISPLAY TARGET NUMBER IN R3
000448: 14,2512           04646                           TC       NVSBWAIT
000449: 14,2513           51550                           INDEX    RUN
000450: 14,2514           53554                           DXCH     TAZEL1
000451: 14,2515           52340                           DXCH     DSPTEM1
000452:
000453: 14,2516           02556                           TC       CHECKLD                               #  R1  +- XXX.XX    AZIMUTH IN DEGREES
000454: 14,2517           00661                           OCT      00661                                 #  R2  +- XX.XXX    ELEVATION IN DEGREES
000455: 14,2520           12747                           TCF      ENDTEST                               #  R3      0000X    TARGET NUMBER 1 OR 2
000456:
000457: 14,2521           52340                           DXCH     DSPTEM1                               #  TAZEL1       TARGET 1 AZIMUTH
000458:
000459: 14,2522           51550                           INDEX    RUN
000460: 14,2523           53554                           DXCH     TAZEL1                                #  TAZEL1 +2    TARGET 2 AZIMUTH
000461: 14,2524           11550                           CCS      RUN
000462: 14,2525           12531                           TCF      +4
000463: 14,2526           37754        OPTRDRIN           CAF      TWO                                   #  SPECIAL ENTRY FOR RDR37511
000464: 14,2527           54001                           TS       L
000465: 14,2530           12507                           TCF      OPTDATA    +4                         #  MPAC    1ST PASS = 0    2ND PASS = 2
000466: 14,2531           01546                           TC       QPLACE
000467:


000469: 14,2532           62545        LATAZCHK           DLOAD    SL2                                   #  CALLS FOR AZIMUTH (SM) AND LATITUDE
000470: 14,2533           02511                                    LATITUDE
000471:
000472: 14,2534           14341                           STODL    DSPTEM1    +1
000473: 14,2535           02507                                    AZIMUTH                               #  ...NOT REALLY...
000474:
000475: 14,2536           77434                           RTB      EXIT
000476: 14,2537           33567                                    1STO2S                                #  FRACTION OF REVOLUTION TO 2S COMPLEMENT
000477:
000478: 14,2540           56144                           XCH      MPAC                                  #  AZIMUTH MUST BE 135 DEGREES R1 = +13500
000479: 14,2541           54337                           TS       DSPTEM1                               #     FOR SXT-NB-IMU FINE ALIGNMENT TEST
000480: 14,2542           02556                           TC       CHECKLD                               #  R1  +- XXX.XX    AZIMUTH IN DEGREES (SM)
000481: 14,2543           00661                           OCT      00661                                 #  R2  +- XX.XXX    LATITUDE IN DEGREES
000482: 14,2544           12747                           TCF      ENDTEST                               #  R3               NOT USED
000483:
000484: 14,2545           06103                           TC       INTPRET
000485: 14,2546           47135                           SLOAD    RTB
000486: 14,2547           00340                                    DSPTEM1
000487: 14,2550           33524                                    CDULOGIC                              #  BACK TO FRACTION OF REVOLUTION
000488: 14,2551           02507                           STORE    AZIMUTH
000489:
000490: 14,2552           60535                           SLOAD    SR2
000491: 14,2553           00341                                    DSPTEM1    +1
000492: 14,2554           02511                           STORE    LATITUDE
000493: 14,2555           77616                           RVQ
000494:
000495:
000496: 14,2556           00006        CHECKLD            EXTEND
000497: 14,2557           23545                           QXCH     QPLAC
000498:
000499: 14,2560           51545                           INDEX    QPLAC
000500: 14,2561           30000                           CA       A
000501: 14,2562           04433                           TC       NVSUB
000502: 14,2563           12575                           TCF      CHECKLD1
000503:
000504: 14,2564           04611                           TC       FLASHON
000505:
000506: 14,2565           04464                           TC       ENDIDLE                               #  CHANGE R1  V21 N61 E  +- XXX.XX E
000507: 14,2566           12571                           TCF      +3                                    #  CHANGE R2  V22 N61 E  +- XX.XXX E
000508: 14,2567           12573                           TCF      +4                                    #  VERIFY, THEN PROCEED WITH VERB 33 ENTER
000509: 14,2570           12560                           TCF      CHECKLD    +2
000510: 14,2571           51545                           INDEX    QPLAC
000511: 14,2572           00001                           TC       1
000512: 14,2573           51545                           INDEX    QPLAC
000513: 14,2574           00002                           TC       2
000514:
000515: 14,2575           32577        CHECKLD1           CAF      CHECKLD2
000516: 14,2576           04643                           TC       NVSUBUSY
000517: 14,2577           30560        CHECKLD2           CADR     CHECKLD    +2
000518:


000520: 14,2600           00006        POSNJUMP           EXTEND                                         #  POSITIONS FOR SXTNBIMU
000521: 14,2601           23546                           QXCH     QPLACE
000522:
000523: 14,2602           51544                           INDEX    POSITON
000524: 14,2603           12604                           TCF      +1
000525: 14,2604           12747                           TCF      ENDTEST
000526: 14,2605           12612                           TCF      POS1
000527: 14,2606           12617                           TCF      POS2
000528:
000529: 14,2607           12635                           TCF      POS3
000530: 14,2610           12656                           TCF      POS4
000531: 14,2611           12710                           TCF      POS5
000532:
000533:
000534:
000535: 14,2612           37755        POS1               CAF      ONE                                   #  XSM = V     YSM = SW    ZSM = SE
000536: 14,2613           55542                           TS       PIPNDX
000537: 14,2614           37754                           CAF      TWO
000538: 14,2615           55543                           TS       PIPNDX     +1                         #  MONITOR PIPAY AND PIPAZ
000539: 14,2616           01546                           TC       QPLACE
000540:
000541:
000542:
000543: 14,2617           06103        POS2               TC       INTPRET                               #  XSM = SE    YSM = SW    ZSM = -V
000544: 14,2620           57575                           VLOAD    VCOMP
000545: 14,2621           02401                                    XSM
000546: 14,2622           77715                           PDVL
000547: 14,2623           02415                                    ZSM
000548: 14,2624           26401                           STOVL    XSM
000549: 14,2625           77626                           STADR
000550: 14,2626           75362                           STORE    ZSM
000551: 14,2627           77776                           EXIT
000552:
000553: 14,2630           37761                           CAF      ZERO
000554: 14,2631           55542                           TS       PIPNDX
000555: 14,2632           37755                           CAF      ONE
000556: 14,2633           55543                           TS       PIPNDX     +1                         #  MONITOR PIPAX AND PIPAY
000557: 14,2634           01546                           TC       QPLACE
000558:
000559:
000560:
000561: 14,2635           06103        POS3               TC       INTPRET                               #  XSM = SE    YSM = V     ZSM = SW
000562: 14,2636           63375                           VLOAD    PDVL
000563: 14,2637           02401                                    XSM
000564: 14,2640           02407                                    YSM
000565: 14,2641           77715                           PDVL
000566: 14,2642           02415                                    ZSM
000567: 14,2643           26401                           STOVL    XSM
000568:
000569: 14,2644           77626                           STADR
000570: 14,2645           51362                           STOVL    ZSM
000571:


000573: 14,2646           77626                           STADR
000574: 14,2647           75370                           STORE    YSM
000575: 14,2650           77776                           EXIT
000576: 14,2651           37761                           CAF      ZERO
000577: 14,2652           55542                           TS       PIPNDX
000578: 14,2653           37754                           CAF      TWO
000579: 14,2654           55543                           TS       PIPNDX     +1                         #  MONITOR PIPAX AND PIPAZ
000580: 14,2655           01546                           TC       QPLACE
000581:
000582:
000583:
000584: 14,2656           37751        POS4               CAF      BIT5                                  #  OPTION TO ALIGN SM TO SPECIFIED ANGLES
000585: 14,2657           60110                           AD       FIXLOC
000586: 14,2660           50110                           INDEX    FIXLOC
000587:
000588: 14,2661           54050                           TS       S1                                    #  BASE ADDRESS GIMBAL ANGLES
000589: 14,2662           33660                           CAF      V25N22E                               #  R1  +- XXX.XX   OUTER GIMBAL ANGLE
000590: 14,2663           04646                           TC       NVSBWAIT                              #  R2  +- XXX.XX   INNER GIMBAL ANGLE
000591: 14,2664           04464                           TC       ENDIDLE                               #  R3  +- XXX.XX   MIDDLE GIMBAL ANGLE
000592: 14,2665           12747                           TCF      ENDTEST
000593: 14,2666           12662                           TCF      -4
000594: 14,2667           30400                           CA       THETAD                                #  SET UP ANGLES FOR SMNB
000595: 14,2670           50110                           INDEX    FIXLOC
000596: 14,2671           54024                           TS       24
000597: 14,2672           30401                           CA       THETAD     +1
000598: 14,2673           50110                           INDEX    FIXLOC
000599: 14,2674           54020                           TS       20
000600: 14,2675           30402                           CA       THETAD     +2
000601: 14,2676           50110                           INDEX    FIXLOC
000602: 14,2677           54022                           TS       22
000603:
000604: 14,2700           06103                           TC       INTPRET
000605: 14,2701           45034                           RTB      CALL
000606: 14,2702           33076                                    TRANSPSE                              #  EARTH REF WRT NAV BASE
000607: 14,2703           33110                                    SMD/EREF                              #  STABLE MEMBER DESIRED WRT EARTH REF
000608: 14,2704           77634                           RTB
000609: 14,2705           33076                                    TRANSPSE                              #  BACK TO NAV BASE WRT TO EARTH REF
000610: 14,2706           77776                           EXIT
000611:
000612: 14,2707           01546                           TC       QPLACE
000613:


000615: 14,2710           31546        POS5               CA       QPLACE                                #  OPTION TO ALIGN SM TO ANY ORIENTATION
000616: 14,2711           55551                           TS       STOREPL                               #    WRT EARTH REFERENCE FRAME
000617:
000618: 14,2712           02503                           TC       OPTDATA                               #  LOAD YSM AND ZSM AZIMUTH AND ELEVATION
000619:
000620: 14,2713           06103                           TC       INTPRET
000621: 14,2714           77624                           CALL
000622: 14,2715           30350                                    TAR/EREF                              #  CALC YSM AND ZSM WRT EARTH REF. FRAME
000623: 14,2716           41575                           VLOAD    PUSH
000624: 14,2717           00007                                    6D
000625: 14,2720           02407                           STORE    YSM
000626: 14,2721           76435                           VXV      VSL1
000627: 14,2722           00015                                    12D
000628: 14,2723           02401                           STORE    XSM                                   #  XSM = (YSM) X (ZSM)
000629: 14,2724           76435                           VXV      VSL1
000630: 14,2725           77626                           STADR
000631: 14,2726           75362                           STORE    ZSM                                   #  ZSM = (XSM) X (YSM)
000632: 14,2727           77776                           EXIT
000633:
000634: 14,2730           01551                           TC       STOREPL


000636: 14,2731           00006        OGCZERO            EXTEND                                         #  ZERO EARTH RATE TORQUING ANGLES
000637: 14,2732           23546                           QXCH     QPLACE
000638:
000639: 14,2733           06103                           TC       INTPRET
000640: 14,2734           77775                           VLOAD
000641: 14,2735           33152                                    ZERODP                                #  VECTOR IN THIS CASE
000642: 14,2736           02772                           STORE    ERCOMP
000643: 14,2737           77776                           EXIT
000644: 14,2740           01546                           TC       QPLACE
000645:
000646:
000647:
000648: 14,2741           37750        GMLCKCHK           CAF      BIT6                                  #  CHECK FOR GIMBAL LOCK  (MGA GREATER 70)
000649: 14,2742           70326                           MASK     DSPTAB     +11D
000650: 14,2743           00006                           EXTEND
000651: 14,2744           12746                           BZF      +2
000652: 14,2745           12747                           TCF      ENDTEST
000653: 14,2746           00002                           TC       Q
000654:
000655:
000656:
000657: 14,2747           37746        ENDTEST            CA       IMUSEFLG                              #  BIT8
000658:
000659: 14,2750           67747                           AD       RRUSEFLG                              #  BIT7
000660: 14,2751           40000                           CS       A
000661: 14,2752           00004                           INHINT
000662: 14,2753           70074                           MASK     STATE
000663: 14,2754           54074                           TS       STATE
000664:
000665: 14,2755           04105                           TC       NEWMODEX
000666: 14,2756           00000                           OCT      00000
000667:
000668: 14,2757           05224                           TC       BANKCALL
000669: 14,2760           27060                           CADR     MKRELEAS                              #  RELEASE MARK SYSTEM
000670: 14,2761           05604                           TC       EJFREE
000671:


000673: 14,2762           06103        LEMLAB             TC       INTPRET
000674: 14,2763           57575                           VLOAD    VCOMP
000675: 14,2764           33146                                    YUNIT
000676:
000677: 14,2765           02437                           STORE    ZNB                                   #  XNB MATRIX USED IN CALCGA
000678: 14,2766           26461                           STOVL    STARAD     +12D                       #  STARAD MATRIX USED IN AXISGEN * SMDCALC
000679: 14,2767           33150                                    XUNIT
000680:
000681: 14,2770           02423                           STORE    XNB                                   #  *XNB*   *1    0    0* *V*
000682: 14,2771           26445                           STOVL    STARAD                                #  *   *   *           * * *
000683: 14,2772           33144                                    ZUNIT                                 #  *YNB* = *0    0    1* *S*
000684: 14,2773           02431                           STORE    YNB                                   #  *   *   *           * * *
000685: 14,2774           02453                           STORE    STARAD     +6                         #  *ZNB*   *0   -1    0* *E*
000686: 14,2775           77776                           EXIT
000687:
000688: 14,2776           41544                           CS       POSITON
000689: 14,2777           66301                           AD       THREE
000690: 14,3000           00006                           EXTEND
000691: 14,3001           13003                           BZF      +2
000692: 14,3002           13016                           TCF      LEMLAB1
000693:
000694: 14,3003           06103                           TC       INTPRET
000695: 14,3004           57575                           VLOAD    VCOMP
000696: 14,3005           02423                                    XNB
000697: 14,3006           77715                           PDVL                                           #  *XNB*   * 0   -1    0* *V*
000698: 14,3007           02437                                    ZNB                                   #  *   *   *            * * *
000699: 14,3010           02423                           STORE    XNB                                   #  *YNB* = * 0    0    1* *S*
000700: 14,3011           26445                           STOVL    STARAD                                #  *   *   *            * * *
000701: 14,3012           77626                           STADR                                          #  *ZNB*   *-1    0    0* * *
000702: 14,3013           75340                           STORE    ZNB
000703: 14,3014           02461                           STORE    STARAD     +12D
000704: 14,3015           77776                           EXIT
000705:
000706: 14,3016           05224        LEMLAB1            TC       BANKCALL
000707: 14,3017           26762                           CADR     IMUSTALL                              #  INSURE IMUZERO COMPLETION
000708:
000709: 14,3020           12747                           TCF      ENDTEST
000710:
000711: 14,3021           02600                           TC       POSNJUMP                              #  SET UP STABLE MEMBER DESIRED COORDINATES
000712: 14,3022           04713                           TC       FREEDSP                               #  FREE DISPLAY SYSTEM
000713: 14,3023           02247                           TC       PUTPOSX                               #  TO COARSE ALIGN STABLE MEMBER
000714:
000715: 14,3024           02741                           TC       GMLCKCHK
000716:
000717: 14,3025           05224                           TC       BANKCALL
000718: 14,3026           26251                           CADR     IMUFINE                               #  FINE ALIGN MODE
000719: 14,3027           05224                           TC       BANKCALL
000720: 14,3030           26762                           CADR     IMUSTALL
000721: 14,3031           12747                           TCF      ENDTEST
000722:


000724: 14,3032           30032                           CA       CDUX
000725: 14,3033           50110                           INDEX    FIXLOC
000726: 14,3034           54024                           TS       24
000727: 14,3035           30033                           CA       CDUY
000728: 14,3036           50110                           INDEX    FIXLOC
000729: 14,3037           54020                           TS       20
000730: 14,3040           30034                           CA       CDUZ
000731: 14,3041           50110                           INDEX    FIXLOC
000732: 14,3042           54022                           TS       22
000733:
000734: 14,3043           37751                           CAF      BIT5
000735: 14,3044           60110                           AD       FIXLOC
000736: 14,3045           50110                           INDEX    FIXLOC
000737: 14,3046           54050                           TS       S1
000738:
000739: 14,3047           02263                           TC       SMDCALC                               #  TO FINE ALIGN STABLE MEMBER
000740:
000741: 14,3050           06103                           TC       INTPRET                               #  IF EARTH RATE COMPENSATION DESIRED
000742: 14,3051           77634                           RTB
000743: 14,3052           33521                                    LOADTIME
000744: 14,3053           02565                           STORE    TMARK
000745: 14,3054           77776                           EXIT
000746:
000747: 14,3055           41512                           CS       EROPTN
000748: 14,3056           67754                           AD       TWO
000749: 14,3057           00006                           EXTEND
000750: 14,3060           13062                           BZF      +2
000751:
000752: 14,3061           12051                           TCF      ERFINAL    +2
000753:
000754: 14,3062           05224                           TC       BANKCALL
000755: 14,3063           47237                           CADR     SAMODRTN                              #  RETURN TO SEMI-AUTOMATIC MODING TEST
000756:


000758: 14,3064           33676        RDR37511           CAF      RDRRETN                               #  RENDEZVOUS RADAR AND ANTENNA TRACKING
000759: 14,3065           55546                           TS       QPLACE                                #  TO RETURN FROM OPTDATA
000760:
000761: 14,3066           05224                           TC       BANKCALL
000762: 14,3067           20247                           CADR     RRZERO
000763:
000764: 14,3070           05224                           TC       BANKCALL
000765: 14,3071           22765                           CADR     AURLOKON                              #  OPERATOR DECISION TO LOCK ON OR NOT
000766:
000767: 14,3072           12526        RDR1               TCF      OPTRDRIN                              #  CALL FOR AZIMUTH AND ELEVATION
000768:
000769: 14,3073           05224                           TC       BANKCALL
000770: 14,3074           26756                           CADR     RADSTALL
000771: 14,3075           15605                           TCF      ENDOFJOB
000772:
000773: 14,3076           06103                           TC       INTPRET
000774: 14,3077           77170                           AXT,1    AXT,2                                 #  SET UP X1 AND X2 FOR TAR/EREF
000775: 14,3100           00000                                    0
000776: 14,3101           00006                                    6
000777: 14,3102           77624                           CALL
000778: 14,3103           30353                                    TAR/EREF   +3                         #  LINE-OF-SIGHT WRT EARTH REF FRAME
000779: 14,3104           64375                           VLOAD    MXV
000780: 14,3105           00015                                    12D                                   #  LINE-OF-SIGHT WRT EARTH REF FRAME
000781: 14,3106           02401                                    XSM                                   #  TO STABLE MEMBER PRESENT FRAME
000782: 14,3107           77772                           VSL1
000783: 14,3110           34416                           STCALL   RRTARGET
000784: 14,3111           20306                                    RRDESSM
000785:
000786: 14,3112           13117                           TCF      37511ALM
000787: 14,3113           05224                           TC       BANKCALL
000788: 14,3114           26756                           CADR     RADSTALL
000789: 14,3115           15605                           TCF      ENDOFJOB
000790: 14,3116           15605                           TCF      ENDOFJOB
000791:
000792:
000793:
000794: 14,3117           04744        37511ALM           TC       ALARM
000795: 14,3120           00524                           OCT      524
000796: 14,3121           15605                           TCF      ENDOFJOB
000797:
000798:
000799:
000800: 14,3122           47761        RDRINIT            CS       ZERO
000801: 14,3123           55512                           TS       EROPTN
000802: 14,3124           12002                           TCF      AOTNBIMU   +2
000803:


000805: 14,3125           04633        MISALIGN           TC       GRABWAIT                              #  DISPLAY SYSTEM WAS FREED
000806: 14,3126           37761                           CAF      ZERO
000807:
000808: 14,3127           55537                           TS       NDXCTR
000809: 14,3130           51537        BBBB               INDEX    NDXCTR
000810: 14,3131           41674                           CS       GENPL      +68D
000811: 14,3132           51537                           INDEX    NDXCTR
000812: 14,3133           27702                           ADS      GENPL      +74D
000813: 14,3134           33664                           CAF      63DEC
000814: 14,3135           61537                           AD       NDXCTR
000815: 14,3136           10000                           CCS      A
000816: 14,3137           46301                           CS       THREE
000817: 14,3140           27537                           ADS      NDXCTR
000818: 14,3141           13130                           TCF      BBBB
000819: 14,3142           55537                           TS       NDXCTR
000820:
000821:
000822:
000823: 14,3143           06103        CCCC               TC       INTPRET
000824: 14,3144           70750                           LXA,1    DLOAD*
000825: 14,3145           02537                                    NDXCTR
000826: 14,3146           02701                                    GENPL      +72D,1
000827: 14,3147           77625                           DSU
000828: 14,3150           02571                                    GENPL
000829: 14,3151           06701                           STORE    GENPL      +72D,1
000830: 14,3152           77776                           EXIT
000831:
000832: 14,3153           41537                           CS       NDXCTR
000833: 14,3154           63665                           AD       69DEC
000834: 14,3155           10000                           CCS      A
000835: 14,3156           36301                           CAF      THREE
000836: 14,3157           27537                           ADS      NDXCTR
000837: 14,3160           13143                           TCF      CCCC
000838: 14,3161           55550                           TS       RUN
000839: 14,3162           36301                           CAF      THREE
000840: 14,3163           55537                           TS       NDXCTR
000841:
000842:
000843:
000844: 14,3164           06103        DDDD               TC       INTPRET
000845: 14,3165           77775                           VLOAD
000846: 14,3166           33152                                    ZERODP
000847: 14,3167           00031                           STORE    24D
000848: 14,3170           00037                           STORE    30D
000849: 14,3171           77735                           SLOAD
000850: 14,3172           31662                                    11DEC
000851: 14,3173           00041                           STORE    32D
000852: 14,3174           77776                           EXIT
000853:
000854: 14,3175           06103        DDDD1              TC       INTPRET
000855:
000856: 14,3176           70750                           LXA,1    DLOAD*
000857: 14,3177           02537                                    NDXCTR
000858:


000860: 14,3200           02701                                    GENPL      +72D,1
000861: 14,3201           41423                           DSU*     PUSH
000862: 14,3202           02673                                    GENPL      +66D,1
000863: 14,3203           42742                           SR1      DAD*
000864: 14,3204           02673                                    GENPL      +66D,1
000865: 14,3205           06701                           STORE    GENPL      +72D,1
000866:
000867: 14,3206           43312                           SL2      DAD
000868:
000869: 14,3207           00031                                    24D
000870: 14,3210           20031                           STODL*   24D
000871: 14,3211           02701                                    GENPL      +72D,1
000872: 14,3212           63412                           SL4      DSQ
000873: 14,3213           77615                           DAD
000874: 14,3214           00033                                    26D
000875: 14,3215           00033                           STORE    26D
000876: 14,3216           77776                           EXIT
000877: 14,3217           31550                           CAE      RUN
000878: 14,3220           61537                           AD       NDXCTR
000879: 14,3221           40000                           COM
000880: 14,3222           63664                           AD       63DEC
000881: 14,3223           10000                           CCS      A
000882: 14,3224           36276                           CAF      SIX
000883: 14,3225           27537                           ADS      NDXCTR
000884: 14,3226           13175                           TCF      DDDD1
000885: 14,3227           61550                           AD       RUN
000886: 14,3230           55537                           TS       NDXCTR
000887:
000888:
000889:
000890: 14,3231           06103        EEEE               TC       INTPRET
000891: 14,3232           66740                           LXC,1    SLOAD*
000892:
000893: 14,3233           02537                                    NDXCTR
000894: 14,3234           02604                                    GENPL      +11D,1
000895: 14,3235           00043                           STORE    34D
000896: 14,3236           77745                           DLOAD
000897: 14,3237           54206                           PUSH     SL
000898: 14,3240           20211                                    8D
000899: 14,3241           43265                           BDDV     DAD
000900: 14,3242           00043                                    34D
000901: 14,3243           00035                                    28D
000902: 14,3244           14035                           STODL    28D
000903: 14,3245           55261                           SL       BDDV
000904: 14,3246           20207                                    6
000905: 14,3247           00043                                    34D
000906: 14,3250           42523                           PDDL*    SL4
000907: 14,3251           02602                                    GENPL      +9D,1
000908: 14,3252           77605                           DMP
000909: 14,3253           77615                           DAD
000910: 14,3254           00037                                    30D
000911: 14,3255           00037                           STORE    30D
000912:


000914: 14,3256           77776                           EXIT
000915: 14,3257           41537                           CS       NDXCTR
000916: 14,3260           63663                           AD       60DEC
000917: 14,3261           61550                           AD       RUN
000918: 14,3262           10000                           CCS      A
000919: 14,3263           36276                           CAF      SIX
000920: 14,3264           27537                           ADS      NDXCTR
000921: 14,3265           13231                           TCF      EEEE
000922:
000923:
000924:
000925: 14,3266           06103                           TC       INTPRET
000926: 14,3267           41345                           DLOAD    DMP
000927: 14,3270           00031                                    24D
000928:
000929: 14,3271           00037                                    30D
000930: 14,3272           41325                           PDDL     DMP
000931: 14,3273           00033                                    26D
000932: 14,3274           00035                                    28D
000933: 14,3275           77625                           DSU
000934: 14,3276           63525                           PDDL     DSQ
000935: 14,3277           00031                                    24D
000936: 14,3300           65342                           SR1      PDDL
000937: 14,3301           00041                                    32D
000938: 14,3302           41261                           SL       DMP
000939: 14,3303           20212                                    11
000940: 14,3304           00033                                    26D
000941: 14,3305           55225                           DSU      BDDV
000942: 14,3306           54205                           DMP      SL
000943: 14,3307           31675                                    KKKK
000944: 14,3310           20204                                    3
000945: 14,3311           00343                           STORE    DSPTEM2
000946: 14,3312           77776                           EXIT
000947:
000948: 14,3313           31544                           CA       POSITON
000949: 14,3314           54344                           TS       DSPTEM2    +2
000950:
000951: 14,3315           33656                           CAF      V06N66E
000952:
000953: 14,3316           04646                           TC       NVSBWAIT
000954: 14,3317           04611                           TC       FLASHON
000955: 14,3320           04464                           TC       ENDIDLE
000956: 14,3321           12747                           TCF      ENDTEST
000957: 14,3322           36301                           CAF      THREE
000958: 14,3323           55550                           TS       RUN
000959: 14,3324           37761                           CAF      ZERO
000960: 14,3325           13163                           TCF      DDDD       -1
000961:


000963:                                                                                                  #  THIS REVISION REFLECTS CHANGES AS OF
000964:                                                                                                  #   1/31/66
000965:                                                                                                  #  ENGINE ON/OFF NOW IN CHANNEL ELEVEN.  THE BITS FOR EACH CHANNEL GET TURNED ON ALL AT ONCE.  THEY STAY ON UNTIL
000966:                                                                                                  #   :ENTER:IS PUSHED.  THEN THEY ALL GO OUT AND THE NEXT CHANNEL:S BITS ARE TURNED ON.
000967:                                                                                                  #  CHANNEL 5  BITS 1-8
000968:                                                                                                  #  CHANNEL 6  BITS 1-8
000969:                                                                                                  #  CHANNEL 11 BITS  13,14
000970:                                                                                                  #  CHANNEL 12 BITS 9-14
000971:                                                                                                  #  FOLLOWING THE CHANNEL 12 TESTS ENTER IS PRESSED.  CHANNEL 12 IS SET TO ZERO AND THE NEXT TEST BEGUN. LOW9
000972:                                                                                                  #  GOES IN LOCATION (COUNTER) 55.
000973:                                                                                                  #  INCREASE THROTTLE RATE DESCENT ENGINE
000974:                                                                                                  #  :ENTER: NOW CAUSES THE CONTENTS OF 55 TO BE MADE NEGATIVE
000975:                                                                                                  #  DECREASE THROTTLE RATE DESCENT ENGINE
000976:                                                                                                  #  THE NEXT :ENTER: ZEROS THE REGISTER AND SENDS A PULSE TRAIN (HERE ALTERN
000977:                                                                                                  #  ZEROS FOR CLARITY) TO THE ALTITUDE METER.
000978:                                                                                                  #  THE NEXT :ENTER: WILL ADVANCE THE TEST TO THE ALTITUDE RATE METER TEST.
000979:                                                                                                  #  THE NEXT :ENTER : WILL TERMINATE THE TEST.
000980:
000981:
000982:
000983: 14,3326           37735        SAUTOIFS           CA       POSMAX
000984: 14,3327           55576                           TS       NOBITS
000985: 14,3330           37761                           CA       ZERO
000986: 14,3331           55577                           TS       CHAN
000987: 14,3332           55575                           TS       TEMP
000988: 14,3333           03335                           TC       DINO
000989: 14,3334           25577        BACK1              INCR     CHAN
000990:
000991: 14,3335           51577        DINO               INDEX    CHAN
000992: 14,3336           33340                           CA       SAUTLOCS
000993: 14,3337           15230                           TCF      SWCALL
000994: 14,3340           31354        SAUTLOCS           CADR     CHAN5D
000995: 14,3341           31372                           CADR     CHAN6D
000996: 14,3342           31400                           CADR     CHAN11D
000997: 14,3343           31412                           CADR     CHAN12D
000998: 14,3344           31424                           CADR     PTITRDE
000999: 14,3345           31451                           CADR     PTDTRDE
001000: 14,3346           31526                           CADR     ALTMET
001001: 14,3347           31553                           CADR     ALTRMET
001002: 14,3350           30747                           CADR     ENDTEST
001003: 14,3351           31456        THROTADD           CADR     PTDTRDE    +5
001004: 14,3352           31531        METERADD           CADR     ALTMET     +3
001005: 14,3353           31556        MRATEADD           CADR     ALTRMET    +3
001006:
001007: 14,3354           37760        CHAN5D             CA       FIVE
001008: 14,3355           54337                           TS       DSPTEM1
001009: 14,3356           34553        2ENTRY             CA       LOW8                                  #  CHANNEL 6 RETURNS HERE
001010: 14,3357           54340                           TS       DSPTEM1    +1
001011: 14,3360           00006                           EXTEND
001012: 14,3361           51575                           INDEX    TEMP
001013: 14,3362           01005                           WRITE    5
001014:


001016: 14,3363           33645        3ENTRY             CA       V04N30D                               #  CH11,12 RETURN HERE TO USE THE DISPLAY
001017: 14,3364           04646                           TC       NVSBWAIT
001018:
001019: 14,3365           33652        4ENTRY             CAF      WAITER                                #  WAITER IS 03300
001020: 14,3366           04646                           TC       NVSBWAIT
001021: 14,3367           04464                           TC       ENDIDLE
001022: 14,3370           02747                           TC       ENDTEST
001023: 14,3371           03334                           TC       BACK1
001024:
001025: 14,3372           25575        CHAN6D             INCR     TEMP
001026: 14,3373           24337                           INCR     DSPTEM1
001027: 14,3374           37761                           CAF      ZERO
001028: 14,3375           00006                           EXTEND
001029: 14,3376           01005                           WRITE    5                                     #  GET RID OF CHANNEL 5 BITS
001030: 14,3377           03356                           TC       2ENTRY
001031: 14,3400           34517        CHAN11D            CA       OCT11
001032: 14,3401           54337                           TS       DSPTEM1
001033: 14,3402           35226                           CA       BIT13-14
001034: 14,3403           54340                           TS       DSPTEM1    +1
001035: 14,3404           00006                           EXTEND
001036: 14,3405           05011                           WOR      11                                    #  WOR IS NON EXCLUSIVE OR
001037: 14,3406           37761                           CAF      ZERO
001038: 14,3407           00006                           EXTEND
001039: 14,3410           01006                           WRITE    6
001040: 14,3411           03363                           TC       3ENTRY
001041: 14,3412           34557        CHAN12D            CA       OCT12
001042:
001043: 14,3413           54337                           TS       DSPTEM1
001044: 14,3414           45226                           CS       BIT13-14
001045: 14,3415           00006                           EXTEND
001046: 14,3416           03011                           WAND     11
001047: 14,3417           33650                           CA       CH12BITS
001048: 14,3420           54340                           TS       DSPTEM1    +1
001049: 14,3421           00006                           EXTEND
001050: 14,3422           05012                           WOR      12
001051: 14,3423           03363                           TC       3ENTRY
001052: 14,3424           43650        PTITRDE            CS       CH12BITS
001053: 14,3425           00006                           EXTEND
001054: 14,3426           03012                           WAND     12
001055: 14,3427           37761                           CA       ZERO
001056: 14,3430           54337                           TS       DSPTEM1
001057: 14,3431           54340                           TS       DSPTEM1    +1
001058: 14,3432           55575                           TS       TEMP
001059: 14,3433           37755                           CA       BIT1
001060: 14,3434           55576                           TS       NOBITS
001061: 14,3435           00004        PIT                INHINT
001062: 14,3436           05701                           TC       WAITLIST
001063: 14,3437  E5,1400                                  EBANK=   XSM
001064: 14,3437           03462 30005                     2CADR    THROTASK
001065:
001066: 14,3441           00003                           RELINT
001067: 14,3442           33652                           CA       WAITER


001069: 14,3443           04646                           TC       NVSBWAIT
001070: 14,3444           04464                           TC       ENDIDLE
001071: 14,3445           02747                           TC       ENDTEST
001072: 14,3446           37761                           CA       ZERO
001073: 14,3447           55576                           TS       NOBITS
001074: 14,3450           03334                           TC       BACK1
001075:
001076: 14,3451           37761        PTDTRDE            CA       ZERO
001077:
001078: 14,3452           54055                           TS       THRUST
001079: 14,3453           33351                           CA       THROTADD
001080: 14,3454           55574                           TS       TEMPADD
001081: 14,3455           05563                           TC       JOBSLEEP                              #  THIS INHIBITS THE NEXT TASK UNTIL
001082:                                                                                                  #  CURRENT TASK HAS BEEN COMPLETED
001083: 14,3456           37735                           CA       POSMAX
001084: 14,3457           55575                           TS       TEMP
001085: 14,3460           37747                           CA       BIT7
001086: 14,3461           03435                           TC       PIT
001087: 14,3462           11576        THROTASK           CCS      NOBITS                                #  IS THIS TASK STILL REQ
001088: 14,3463           03470                           TC       +5                                    #  YES
001089: 14,3464           31574                           CA       TEMPADD                               #  NO
001090: 14,3465           55576                           TS       NOBITS
001091: 14,3466           05567                           TC       JOBWAKE
001092: 14,3467           05745                           TC       TASKOVER
001093: 14,3470           11575                           CCS      TEMP
001094: 14,3471           03504                           TC       SOMETIME
001095: 14,3472           34552                           CA       LOW11
001096: 14,3473           54055        ALWAYS             TS       THRUST
001097: 14,3474           37752                           CA       BIT4
001098: 14,3475           00006                           EXTEND                                         #  A SMERZH FIX.
001099: 14,3476           05014                           WOR      14
001100: 14,3477           37750                           CA       BIT6                                  #  320 MS.DELAY
001101:
001102: 14,3500           05701                           TC       WAITLIST
001103: 14,3501  E5,1400                                  EBANK=   XSM
001104: 14,3501           03462 30005                     2CADR    THROTASK
001105:
001106: 14,3503           05745                           TC       TASKOVER
001107: 14,3504           44552        SOMETIME           CS       LOW11
001108: 14,3505           03473                           TC       ALWAYS
001109: 14,3506           11576        ALTASK             CCS      NOBITS                                #  IS TASK STILL REQ
001110: 14,3507           03514                           TC       +5
001111: 14,3510           31574                           CA       TEMPADD                               #  NO
001112: 14,3511           55576                           TS       NOBITS                                #  ENABLES NEXT TASK
001113: 14,3512           05567                           TC       JOBWAKE
001114: 14,3513           05745                           TC       TASKOVER
001115: 14,3514           33646                           CA       ALBITS                                #  ACTUAL TASK STARTS HERE
001116: 14,3515           54060                           TS       ALTM
001117: 14,3516           37753                           CA       BIT3
001118: 14,3517           00006                           EXTEND
001119: 14,3520           05014                           WOR      14
001120: 14,3521           37750                           CA       BIT6                                  #  320 MS. DELAY


001122: 14,3522           05701                           TC       WAITLIST
001123: 14,3523  E5,1400                                  EBANK=   XSM
001124: 14,3523           03506 30005                     2CADR    ALTASK
001125:
001126: 14,3525           05745                           TC       TASKOVER
001127: 14,3526           33352        ALTMET             CA       METERADD
001128: 14,3527           55574                           TS       TEMPADD
001129: 14,3530           05563                           TC       JOBSLEEP
001130: 14,3531           37761                           CA       ZERO
001131: 14,3532           55575                           TS       TEMP
001132: 14,3533           47752                           CS       BIT4
001133: 14,3534           00006                           EXTEND
001134: 14,3535           03014                           WAND     14
001135: 14,3536           00004                           INHINT
001136:
001137: 14,3537           37755                           CA       ONE
001138: 14,3540           05701                           TC       WAITLIST
001139: 14,3541  E5,1400                                  EBANK=   XSM
001140: 14,3541           03506 30005                     2CADR    ALTASK
001141:
001142: 14,3543           00003                           RELINT
001143: 14,3544           33652                           CA       WAITER
001144: 14,3545           04646                           TC       NVSBWAIT
001145: 14,3546           04464                           TC       ENDIDLE
001146: 14,3547           02747                           TC       ENDTEST
001147: 14,3550           37761                           CA       ZERO
001148: 14,3551           55576                           TS       NOBITS
001149: 14,3552           03334                           TC       BACK1
001150:
001151: 14,3553           33353        ALTRMET            CA       MRATEADD
001152: 14,3554           55574                           TS       TEMPADD
001153: 14,3555           05563                           TC       JOBSLEEP
001154: 14,3556           37755                           CA       ONE
001155: 14,3557           55575                           TS       TEMP                                  #  TEMP WILL BE INDEXED TO ACQUIRE BIT2 INS
001156:                                                                                                  #  TEAD OF BIT3
001157: 14,3560           37754                           CA       BIT2
001158: 14,3561           00006                           EXTEND
001159: 14,3562           05014                           WOR      14
001160:
001161: 14,3563           03536                           TC       ALTMET     +8D
001162:


001164:                                                                                                  #       THE AOT ANGLE CHECKING PROGRAM PROVIDES A SIMPLE VERIFICATION OF THE ACCURACY OF THE AOT.  THE IDEA IS TO
001165:                                                                                                  #  COMPUTE THE ANGLE BETWEEN TWO LINES OF SIGHT AS INDICATED BY THE AOT, WHICH IS WHAT THIS PROGRAM DOES.
001166:                                                                                                  #  INDEPENDENT KNOWLEDGE OF THE INCLUDED ANGLE PROVIDES A COMPARISON AND THUS A MEASURE OF THE AOT ACCURACY.
001167:                                                                                                  #        THE ISS NEED NOT BE ON TO RUN THIS PROGRAM.
001168:
001169:
001170: 14,3564           06103        AOTANGCK           TC       INTPRET
001171: 14,3565           77414                           SET      EXIT                                  #  IN CASE THE ISS IS OFF.
001172: 14,3566           00065                                    COAROFIN
001173: 14,3567           02135                           TC       FINDNAVB                              #  FOR LOS1 AND LOS2.
001174: 14,3570           06103                           TC       INTPRET
001175: 14,3571           47375                           VLOAD    VXV
001176: 14,3572           02601                                    LOS1
001177: 14,3573           02607                                    LOS2
001178: 14,3574           77646                           ABVAL
001179: 14,3575           24023                           STOVL    SINTH                                 #  SINTH = ABVAL (VXV ).
001180: 14,3576           02601                                    LOS1
001181: 14,3577           77641                           DOT
001182: 14,3600           02607                                    LOS2
001183: 14,3601           34021                           STCALL   COSTH                                 #  COSTH = V.V
001184: 14,3602           32543                                    ARCTRIG
001185: 14,3603           77634                           RTB
001186: 14,3604           33567                                    1STO2S                                #  DP 1S COMP TO SP 2S COMP.
001187: 14,3605           00025                           STORE    THETA
001188: 14,3606           77776                           EXIT
001189: 14,3607           33677                           CAF      THETAADR
001190: 14,3610           60110                           AD       FIXLOC
001191: 14,3611           54146                           TS       MPAC       +2
001192: 14,3612           33655                           CAF      V06N03E                               #  XXX.XX DEGREES IN R1.
001193: 14,3613           04646                           TC       NVSBWAIT
001194: 14,3614           12747                           TCF      ENDTEST
001195:


001197: 14,3615  E3,1400                                  EBANK=   1400
001198: 14,3615           00004        ZEROERAS           INHINT                                         #  PROGRAM BY MUNTZ TO ZERO ERASEABLE
001199:
001200: 14,3616           37761                           CAF      ZERO
001201: 14,3617           54026                           TS       TIME3
001202: 14,3620           33644                           CAF      OCT27
001203: 14,3621           54003                           TS       EBANK
001204: 14,3622           22007        ZEROLP             ZL
001205: 14,3623           50000                           INDEX    A
001206: 14,3624           23401                           LXCH     1401
001207: 14,3625           67754                           AD       TWO
001208: 14,3626           26003                           ADS      EBANK
001209: 14,3627           74553                           MASK     LOW8
001210: 14,3630           10000                           CCS      A
001211: 14,3631           13622                           TCF      ZEROLP
001212: 14,3632           10003                           CCS      EBANK
001213: 14,3633           13636                           TCF      ZEROLP1
001214: 14,3634           05243                           TC       POSTJUMP
001215: 14,3635           02000                           CADR     SLAP1
001216: 14,3636           00003        ZEROLP1            RELINT
001217: 14,3637           37761                           CAF      ZERO                                  #  KEEP T4RUPT GOING, BUT NOT CYCLING.
001218: 14,3640           54347                           TS       DSRUPTSW
001219: 14,3641           00004                           INHINT
001220: 14,3642           47755                           CS       ONE
001221: 14,3643           13622                           TCF      ZEROLP
001222: 14,3644           00027        OCT27              OCT      27
001223:


001225: 14,3645  E5,1500                                  EBANK=   OGC
001226: 14,3645           00430        V04N30D            OCT      00430
001227: 14,3646           52525        ALBITS             OCT      52525
001228: 14,3647           70707        THRSBITS           OCT      70707
001229: 14,3650     4557               OCT12              =        TEN
001230: 14,3650     4517               OCT11              =        NINE
001231: 14,3650           37400        CH12BITS           OCT      37400
001232: 14,3651           00130        V01N30D            OCT      00130
001233:
001234: 14,3652           03300        WAITER             OCT      03300
001235:
001236:
001237: 14,3653           00130        V01N30E            OCT      00130                                 #  FOR FINDNAVB
001238: 14,3654           00530        V05N30E            OCT      00530                                 #  FOR OPTDATA
001239: 14,3655           00603        V06N03E            OCT      00603
001240: 14,3656           00666        V06N66E            OCT      00666
001241: 14,3657           02430        V24N30E            OCT      02430                                 #  FOR POSITION LOAD
001242: 14,3660           02522        V25N22E            OCT      02522                                 #  FOR POS4
001243:
001244: 14,3661           00013        11DEC              DEC      11         B-14
001245: 14,3662           00021        17DEC              DEC      17         B-14
001246: 14,3663           00074        60DEC              DEC      60         B-14
001247: 14,3664           00077        63DEC              DEC      63         B-14
001248: 14,3665           00105        69DEC              DEC      69         B-14                       #  FOR MISALIGN
001249: 14,3666           00110        72DEC              DEC      72         B-14                       #  FOR STORRSLT
001250:
001251: 14,3667           05670        30SEC              DEC      3000       B-14                       #  3000 X 10 MSEC
001252: 14,3670           13560        60SEC              DEC      6000       B-14                       #  6000 X 10 MSEC
001253:
001254: 14,3671           01500        OGCADR             ADRES    OGC                                   #  FOR ZEROING
001255: 14,3672           01570        GENPLAD1           ADRES    GENPL
001256: 14,3673           02570        GENPLADR           ECADR    GENPL                                 #  FOR POS4
001257: 14,3674           00322 14366  KKKK               2DEC     210.39     B-14                       #  1230 B-14 FOR CSM
001258:
001259: 14,3676           03073        RDRRETN            ADRES    RDR1       +1                         #  FOR RDR37511
001260: 14,3677           00024        THETAADR           ECADR    THETA
001261: 14,3700           01400        XSMADRX            ADRES    XSM                                   #  FOR MAKEXSMD
001262:
001263: 14,3701           24365 30244  SCALFTR            2DEC     .64                                   #  FOR STORRSLT
001264:
001265: 14,3703           07623 26552  OMEG/MS            2DEC     .24339048                             #  GYRO PULSES / 10 MSEC
001266:


001268:                                                                                                  #           THE FOLLOWING ROUTINE READS THE CLOCK AND SCALAR (CHANNELS 3 AND 4) INTO A AND L, INSURING THAT THE
001269:                                                                                                  #  DATA WAS NOT IN TRANSITION WHEN IT WAS READ.
001270:
001271:    5015                                           BLOCK    02
001272:    5015           00004        FINETIME           INHINT                                         #  RETURNS WITH INTERRUPT INHIBITED.
001273:    5016           00006                           EXTEND
001274:    5017           00004                           READ     LOSCALAR
001275:    5020           54001                           TS       L
001276:
001277:    5021           00006                           EXTEND                                         #  SEE IF 2 READINGS AGREE. IF NOT, READ
001278:    5022           06004                           RXOR     LOSCALAR                              #  LOSCALAR AGAIN.
001279:    5023           00006                           EXTEND
001280:    5024           15030                           BZF      +4
001281:
001282:    5025           00006                           EXTEND                                         #  IF CLOCK RIPPLED BEFORE, IT WONT NOW.
001283:    5026           00004                           READ     LOSCALAR
001284:    5027           54001                           TS       L
001285:
001286:    5030           47735                 +4        CS       POSMAX                                #  IF LOW PART CONTAINS SOMETHING LESS THAN
001287:    5031           60001                           AD       L                                     #  POSMAX, THE HIGH PART CAN BE READ SAFELY
001288:    5032           00006                           EXTEND
001289:    5033           15016                           BZF      FINETIME   +1                         #  TRY AGAIN - CONDITION WILL DISAPPEAR.
001290:
001291:    5034           00006                           EXTEND
001292:    5035           00003                           READ     HISCALAR
001293:    5036           00002                           TC       Q
001294:
001295: 14,3705                                           SETLOC   OMEG/MS    +2
001296: 14,3705           05224        REDYTORK           TC       BANKCALL
001297: 14,3706           26762                           CADR     IMUSTALL
001298: 14,3707           12747                           TCF      ENDTEST
001299:
001300: 14,3710           02731                           TC       OGCZERO
001301:
001302: 14,3711           06103                           TC       INTPRET
001303: 14,3712           77624                           CALL
001304: 14,3713           30407                                    ERTHRVSE                              #  SETS UP EARTHRATE ANGLES AND TIME
001305: 14,3714           77776                           EXIT
001306:
001307: 14,3715           31617                           CA       OPTNREG                               #  INITIALIZE CDUNDX FOR PULSE CATCHING
001308: 14,3716           65355                           AD       NEG2                                  #  C(K) WAS 4 2 1 NOW C(A) IS 2 0 -1
001309: 14,3717           55616                           TS       GYTOBETQ                              #  C(K) = 2,0,-1 FOR  X,Y,Z.
001310: 14,3720           00006                           EXTEND
001311: 14,3721           13724                           BZF      +3
001312: 14,3722           37754                           CAF      TWO
001313: 14,3723           03725                           TC       +2
001314: 14,3724           37755                           CAF      ONE
001315: 14,3725           55672                           TS       CDUNDX                                #  C(K) = 1 FOR Y, 2 FOR Z CDU SELECT
001316: 14,3726           05224                           TC       BANKCALL
001317: 14,3727           50547                           CADR     ENABLE

End of include-file IMU_PERFORMANCE_TESTS_1.agc.  Parent file is MAIN.agc


