
Source Code


000002:                                                                                                  ## Copyright:   Public domain.
000003:                                                                                                  ## Filename:    IMU_COMPENSATION_PACKAGE.agc
000004:                                                                                                  ## Purpose:     A section of Sunburst revision 37, or Shepatin revision 0.
000005:                                                                                                  ##              It is part of an early development version of the software
000006:                                                                                                  ##              for Apollo Guidance Computer (AGC) on the unmanned Lunar
000007:                                                                                                  ##              Module (LM) flight Apollo 5. Sunburst 37 was the program
000008:                                                                                                  ##              upon which Don Eyles's offline development program Shepatin
000009:                                                                                                  ##              was based; the listing herein transcribed was actually for
000010:                                                                                                  ##              the equivalent revision 0 of Shepatin.
000011:                                                                                                  ##              This file is intended to be a faithful transcription, except
000012:                                                                                                  ##              that the code format has been changed to conform to the
000013:                                                                                                  ##              requirements of the yaYUL assembler rather than the
000014:                                                                                                  ##              original YUL assembler.
000015:                                                                                                  ## Reference:   pp. 802-811
000016:                                                                                                  ## Assembler:   yaYUL
000017:                                                                                                  ## Contact:     Ron Burkey <info@sandroid.org>.
000018:                                                                                                  ## Website:     www.ibiblio.org/apollo/index.html
000019:                                                                                                  ## Mod history: 2017-05-24 MAS  Created from Sunburst 120.
000020:                                                                                                  ##              2017-06-14 HG   Transcribed
000021:                                                                                                  ##              2017-06-15 HG   Fix operand CA  -> CS
000022:


000024: 12,3220                                           BANK     12
000025: 12,3220  E3,1444                                  EBANK=   NBDX
000026:
000027:                                                                                                  #  PROGRAM DESCRIPTION- IMU COMPENSATION (LEM)                             DATE- 30 AUG 66
000028:                                                                                                  #  MOD NO- 0                                                               LOG SECTION- IMU COMPENSATION PACKAGE
000029:                                                                                                  #  MOD BY- GILBERT                                                         ASSEMBLY- SUNBURST REVISION 13
000030:
000031:                                                                                                  #  FUNCTIONAL DESCRIPTION
000032:                                                                                                  #        THE IMU COMPENSATION PACKAGE IS DESIGNED TO COMPENSATE FOR PIPA BIAS AND SCALE FACTOR ERROR AND AT THE
000033:                                                                                                  #  SAME TIME ACCUMULATE GYRO TORQUING COMMANDS NECESSARY TO COMPENSATE FOR THE ASSOCIATED BIAS AND ACCELERATION-
000034:                                                                                                  #  CAUSED GYRO DRIFTS. 1/PIPA MUST BE CALLED AT LEAST EVERY 2.55 SECONDS DUE TO SCALING CONSIDERATIONS.
000035:                                                                                                  #  SPECIFICALLY, THE CORRECTION IS
000036:
000037:                                                                                                  #        PIPA  = (1 + SCALE FACTOR ERROR)PIPA  - (BIAS)(DELTAT)
000038:
000039:                                                                                                  #            C                               I
000040:
000041:                                                                                                  #  WHERE PIPA  IS THE COMPENSATED DATA OBTAINED FROM THE SAMPLED DATA PIPA
000042:                                                                                                  #            C                                                            I
000043:
000044:                                                                                                  #  THE COMPENSATED DATA IS THEN USED TO COMPUTE THE IRIG TORQUING NECESSARY TO CANCEL THE NBD, ADIA, AND ADSRA
000045:                                                                                                  #  GYRO COEFFICIENTS.
000046:                                                                                                  #  SPECIFICALLY, THE COMPUTATIONS ARE
000047:
000048:                                                                                                  #        XIRIG     -(ADIAX)(PIPAX ) + (ADSRAX)(PIPAY ) - (NBDX)(DELTAT)
000049:
000050:                                                                                                  #                                C                  C
000051:                                                                                                  #        YIRIG     -(ADIAY)(PIPAY ) + (ADSRAY)(PIPAZ ) - (NBDY)(DELTAT)
000052:                                                                                                  #                                C                  C
000053:                                                                                                  #        ZIRIG     -(ADIAZ)(PIPAZ ) - (ADSRAZ)(PIPAY ) + (NBDZ)(DELTAT)
000054:                                                                                                  #                                C                  C
000055:
000056:                                                                                                  #  THIS COMPENSATION IS SUMMED INTO THE GCOMP REGISTERS AND WHEN THE MAGNITUDE OF ANY IRIG COMMAND EXCEEDS 2
000057:                                                                                                  #  PULSES, THE COMMANDS ARE SENT TO THE GYROS.
000058:
000059:                                                                                                  #  DURING FREE-FALL PHASES OF A FLIGHT NBDX, NBDY, AND NBDZ ARE THE ONLY RELEVANT COEFFICIENTS. THESE BIAS TERMS
000060:                                                                                                  #  WILL BE INTEGRATED BY ROUTINE NBDONLY APPROXIMATELY EVERY 81.93 SECONDS FOLLOWING AN EXECUTIVE CALL BY THE DUMMY
000061:                                                                                                  #  TASK OF THE WAITLIST PROGRAM. NBDONLY IS ENABLED WHEN BIT 15 OF FLAGWRD2 IS SET TO INDICATE FREE-FALL. DURING
000062:
000063:                                                                                                  #  THIS TIME 1/PIPA IS NOT CALLED.
000064:
000065:                                                                                                  #  LASTBIAS IS CALLED VIA EXECUTIVE WHEN MAKING THE TRANSITION FROM FREE-FALL TO A PIPA READING MODE. THE NBD TERMS
000066:                                                                                                  #  ARE COMPENSATED FOR FROM THE LAST NBDONLY CALL UP TO PIPA ZEROING. PREREAD WILL THEN ENABLE 1/PIPA AT ITS
000067:                                                                                                  #  REGULAR INTERVAL. THE DRIFT FLAG MUST BE DOWN JUST PRIOR TO LASTBIAS. GYROCOMPASS NEVER CALLS LASTBIAS.
000068:
000069:                                                                                                  #  SCALING CONSIDERATIONS
000070:                                                                                                  #                             UNITS              MAX. VALUE     INTERNAL UNITS AND SCALING
000071:
000072:                                                                                                  #         PIPA BIAS           (CM)/(SEC)(SEC)    3.125          (PIPA PULSES)/(CS) X 2(-5)
000073:
000074:                                                                                                  #         PIPA SCALE FACTOR   P.P.M.             1953.125       (PPM) X 2(-9)
000075:                                                                                                  #         NBD                 MERU               128.74604      (GYRO PULSES)/(CS) X 2(-5)
000076:                                                                                                  #         ADIA                (MERU)/(G)         630.36633      (GYRO PULSES)/(PIPA PULSE) X 2(-6)
000077:                                                                                                  #         ADSRA               (MERU)/(G)         630.36633      (GYRO PULSES)/(PIPA PULSE) X 2(-6)
000078:


000080:                                                                                                  #  CONVERSION TABLE
000081:                                                                                                  #        1 PIPA PULSE = 1.00 (CM)/(SEC)               1 ERU = 7.29209817 X 10(-5) (RAD)/(SEC)
000082:                                                                                                  #        1 ERU = 15.04104488 (ARCSEC)/(SEC)           1 (CM)/(SEC)(SEC) = .01 (PIPA PULSES)/(CS)
000083:                                                                                                  #        1 GYRO PULSE = .61798096 ARCSEC              1 MERU = .00024272592 (GYRO PULSES)/(CS)
000084:                                                                                                  #        1 G = 979.24 (CM)/(SEC)(SEC)  (AMR)          1 (MERU)/(G) = .000024787174 (GYRO PULSES)/(PIPA PULSE)
000085:
000086:                                                                                                  #  REFERENCES
000087:                                                                                                  #        AGC PROGRAMMING MEMO NO. 12, I.S.S. MEMO NO. 247, I.S.S. MEMO NO. 328, I.S.S. MEMO NO. 339
000088:
000089:                                                                                                  #  CALLING SEQUENCE
000090:                                                                                                  #        L      TC     BANKCALL
000091:                                                                                                  #        L+1    CADR   1/PIPA
000092:                                                                                                  #        L+2                       RETURNS HERE
000093:
000094:                                                                                                  #  NORMAL EXIT MODES
000095:                                                                                                  #        AT L+2 OF CALLING SEQUENCE
000096:
000097:                                                                                                  #  ALARM OR ABORT MODES
000098:                                                                                                  #        ENDOFJOB
000099:
000100:
000101:                                                                                                  #  ERASABLE INITIALIZATION REQUIRED (CONSECUTIVE LOCATIONS)
000102:                                                                                                  #        PBIASX    PIPAX BIAS
000103:                                                                                                  #        PIPASCFX  PIPAX SCALE FACTOR ERROR
000104:                                                                                                  #        PBIASY    PIPAY BIAS
000105:                                                                                                  #        PIPASCFY  PIPAY SCALE FACTOR ERROR
000106:                                                                                                  #        PBIASZ    PIPAZ BIAS
000107:                                                                                                  #        PIPASCFZ  PIPAZ SCALE FACTOR ERROR
000108:                                                                                                  #        NBDX      X IRIG BIAS DRIFT
000109:                                                                                                  #        NBDY      Y IRIG BIAS DRIFT
000110:
000111:                                                                                                  #        NDBZ      Z IRIG BIAS DRIFT
000112:                                                                                                  #        ADIAX     IRIG ACCELERATION SENSITIVE DRIFT ALONG THE X INPUT AXIS
000113:                                                                                                  #        ADIAY     IRIG ACCELERATION SENSITIVE DRIFT ALONG THE Y INPUT AXIS
000114:                                                                                                  #        ADIAZ     IRIG ACCELERATION SENSITIVE DRIFT ALONG THE Z INPUT AXIS
000115:                                                                                                  #        ADSRAX    IRIG ACCELERATION SENSITIVE DRIFT ALONG THE X SPIN REFERENCE AXIS
000116:                                                                                                  #        ADSRAY    IRIG ACCELERATION SENSITIVE DRIFT ALONG THE Y SPIN REFERENCE AXIS
000117:                                                                                                  #        ADSRAZ    IRIG ACCELERATION SENSITIVE DRIFT ALONG THE Z SPIN REFERENCE AXIS
000118:                                                                                                  #        GCOMP     GYRO COMPENSATION PULSES (SET = ZERO FOR 1ST PASS)
000119:
000120:                                                                                                  #  INPUT
000121:                                                                                                  #        1/PIPADT - DELTA TIME SCALED AT (CS) X 2(+8)
000122:                                                                                                  #        DELVX, DELVY, DELVZ - PIPA READINGS IN THE MAJOR PARTS - MINOR PARTS IRRELEVANT
000123:
000124:
000125:                                                                                                  #  OUTPUT
000126:                                                                                                  #        DELVX, DELVY, DELVZ - PIPA COUNTS SCALED 2(+14) COMPENSATED FOR PIPA BIAS AND SCALE FACTOR ERROR
000127:                                                                                                  #        GCOMP - 3 DP LOCATIONS CONTAINING GYRO PULSES TO COMPENSATE FOR NBD, ADIA, AND ADSRA COEFFICIENTS
000128:
000129:                                                                                                  #  DEBRIS
000130:                                                                                                  #        CENTRALS - A,L,Q
000131:                                                                                                  #        OTHER - BUF - BUF +2, VBUF - VBUF +2, GCOMPSW
000132:


000134: 12,3220           33457        1/PIPA             CAF      LGCOMP                                #  SAVE EBANK OF CALLING PROGRAM
000135: 12,3221           56003                           XCH      EBANK
000136:
000137: 12,3222           54153                           TS       MODE
000138:
000139: 12,3223           11463                           CCS      GCOMPSW                               #  BYPASS IF GCOMPSW NEGATIVE
000140: 12,3224           13227                           TCF      +3
000141: 12,3225           13227                           TCF      +2
000142: 12,3226           13350                           TCF      IRIG1                                 #  RETURN
000143:
000144: 12,3227           37753        1/PIPA1            CAF      FOUR                                  #  PIPAZ, PIPAY, PIPAX
000145: 12,3230           54122                           TS       BUF        +2
000146:
000147: 12,3231           50000                           INDEX    A
000148: 12,3232           30403                           CA       DELVX                                 #  CONTAINS PREVIOUS PIPA READING
000149: 12,3233           54112                           TS       VBUF                                  #  TEMPORARY - MINOR PARTS IRRELEVANT
000150:
000151: 12,3234           50122                           INDEX    BUF        +2
000152: 12,3235           41436                           CS       PIPABIAS                              #  (IPA PULSES)/(CS) X 2(-5)              *
000153: 12,3236           00006                           EXTEND
000154: 12,3237           71163                           MP       1/PIPADT                              #  (CS) X 2(+8)  NOW (PIPA PULSES) X 2(+3)*
000155: 12,3240           00006                           EXTEND                                         #                                         *
000156: 12,3241           77752                           MP       BIT4                                  #  SCALE 2(-3)      SHIFT LEFT 3          *
000157: 12,3242           22113                           LXCH     VBUF       +1                         # (PIPA PULSES) X 2(0)    FRACTIONAL PULSE*
000158:
000159: 12,3243           50122                           INDEX    BUF        +2
000160:
000161: 12,3244           31437                           CA       PIPASCF                               #  (P.P.M.) X 2(-9)
000162: 12,3245           00006                           EXTEND
000163: 12,3246           70112                           MP       VBUF                                  #  (PIPA PULSES) X 2(+14)
000164: 12,3247           22114                           LXCH     VBUF       +2                         #  SAVE FOR FRACTIONAL COMPUTATION
000165: 12,3250           00006                           EXTEND
000166: 12,3251           77750                           MP       BIT6                                  #  SCALE 2(+9)    NOW PIPA PULSES X 2(+14)
000167: 12,3252           20113                           DAS      VBUF                                  #  (PIPAI) - (NBD)(DELTAT) + HI(PIPAI)(SFE)
000168:
000169: 12,3253           30114                           CA       VBUF       +2                         #  NOW MINOR PART
000170: 12,3254           00006                           EXTEND
000171:
000172: 12,3255           77750                           MP       BIT6                                  #  SCALE 2(+9)    SHIFT RIGHT 9
000173: 12,3256           54001                           TS       L
000174: 12,3257           37761                           CAF      ZERO
000175: 12,3260           20113                           DAS      VBUF                                  #  (PIPAI) - (NBD)(DELTAT) + (PIPAI)(SFE)
000176:
000177: 12,3261           00006                           EXTEND
000178: 12,3262           30113                           DCA      VBUF                                  #  RETORE COMPENSATED PIPA READING
000179: 12,3263           50122                           INDEX    BUF        +2
000180: 12,3264           52404                           DXCH     DELVX
000181:
000182: 12,3265           10122                           CCS      BUF        +2                         #  PIPAZ, PIPAY, PIPAX
000183: 12,3266           67763                           AD       NEG1
000184:
000185: 12,3267           13230                           TCF      1/PIPA1    +1
000186: 12,3270           13271                           NOOP                                           #  LESS THAN ZERO IMPOSSIBLE
000187:


000189: 12,3271           55463        IRIGCOMP           TS       GCOMPSW                               #  INDICATE COMMANDS 2 PULSES OR LESS
000190: 12,3272           54120                           TS       BUF                                   #  INDEX COUNTER - IRIGX, IRIGY, IRIGZ
000191:
000192: 12,3273           00006        IRIGX              EXTEND
000193: 12,3274           40404                           DCS      DELVX                                 #  (PIPA PULSES) X 2(+14)
000194: 12,3275           52145                           DXCH     MPAC
000195: 12,3276           31447                           CA       ADIAX                                 #  (GYRO PULSES)/(PIPA PULSE) X 2(-6)     *
000196: 12,3277           03353                           TC       GCOMPSUB                              #  -(ADIAX)(PIPAX)   (GYRO PULSES) X 2(+14)
000197:
000198:
000199: 12,3300           00006                           EXTEND
000200: 12,3301           40406                           DCS      DELVY                                 #  (PIPA PULSES) X 2(+14)
000201: 12,3302           52145                           DXCH     MPAC
000202: 12,3303           41452                           CS       ADSRAX                                #  (GYRO PULSES)/(PIPA PULSE) X 2(-6)     *
000203: 12,3304           03353                           TC       GCOMPSUB                              #  +(ADSRAX)(PIPAY)  (GYRO PULSES) X 2(+14)
000204:
000205: 12,3305           41444                           CS       NBDX                                  #  (GYRO PULSES)/(CS) X 2(-5)
000206: 12,3306           03402                           TC       DRIFSTUB                              #  -(NBDX)(DELTAT)   (GYRO PULSES) X 2(+14)
000207:
000208: 12,3307           00006        IRIGY              EXTEND
000209: 12,3310           40406                           DCS      DELVY                                 #  (PIPA PULSES) X 2(+14)
000210: 12,3311           52145                           DXCH     MPAC
000211: 12,3312           31450                           CA       ADIAY                                 #  (GYRO PULSES)/(PIPA PULSE) X 2(-6)     *
000212: 12,3313           03353                           TC       GCOMPSUB                              #  -(ADIAY)(PIPAY)   (GYRO PULSES) X 2(+14)
000213:
000214: 12,3314           00006                           EXTEND
000215: 12,3315           40410                           DCS      DELVZ                                 #  (PIPA PULSES) X 2(+14)
000216: 12,3316           52145                           DXCH     MPAC
000217: 12,3317           41453                           CS       ADSRAY                                #  (GYRO PULSES)/(PIPA PULSE) X 2(-6)     *
000218: 12,3320           03353                           TC       GCOMPSUB                              #  +(ADSRAY)(PIPAZ)  (GYRO PULSES) X 2(+14)
000219:
000220: 12,3321           41445                           CS       NBDY                                  #  (GYRO PULSES)/(CS) X 2(-5)
000221:
000222: 12,3322           03402                           TC       DRIFSTUB                              #  -(NBDY)(DELTAT)   (GYRO PULSES) X 2(+14)
000223:
000224: 12,3323           00006        IRIGZ              EXTEND
000225: 12,3324           40406                           DCS      DELVY                                 #  (PIPA PULSES) X 2(+14)
000226: 12,3325           52145                           DXCH     MPAC
000227: 12,3326           31454                           CA       ADSRAZ                                #  (GYRO PULSES)/(PIPA PULSE) X 2(-6)     *
000228: 12,3327           03353                           TC       GCOMPSUB                              #  -(ADSRAZ)(PIPAY)  (GYRO PULSES) X 2(+14)
000229:
000230: 12,3330           00006                           EXTEND
000231: 12,3331           40410                           DCS      DELVZ                                 #  (PIPA PULSES) X 2(+14)
000232:
000233: 12,3332           52145                           DXCH     MPAC
000234: 12,3333           31451                           CA       ADIAZ                                 #  (GYRO PULSES)/(PIPA PULSE) X 2(-6)     *
000235: 12,3334           03353                           TC       GCOMPSUB                              #  -(ADIAZ)(PIPAZ)   (GYRO PULSES) X 2(+14)
000236:
000237: 12,3335           31446                           CA       NBDZ                                  #  (GYRO PULSES)/(CS) X 2(-5)
000238: 12,3336           03402                           TC       DRIFSTUB                              #  +(NBDZ)(DELTAT)   (GYRO PULSES) X 2(+14)
000239:


000241: 12,3337           11463                           CCS      GCOMPSW                               #  ARE GYRO COMMANDS GREATER THAN 2 PULSES
000242:
000243: 12,3340           13342                           TCF      +2                                    #  YES
000244: 12,3341           13350                           TCF      IRIG1                                 #  NO
000245:
000246: 12,3342           00004                           INHINT
000247: 12,3343           35674                           CAF      PRIO35                                #  SEND OUT GYRO TORQUING COMMANDS
000248: 12,3344           05523                           TC       NOVAC
000249: 12,3345  E3,1444                                  EBANK=   NBDX
000250: 12,3345           03435 24003                     2CADR    1/GYRO
000251:
000252: 12,3347           00003                           RELINT
000253: 12,3350           30153        IRIG1              CA       MODE                                  #  SET EBANK FOR RETURN
000254: 12,3351           54003                           TS       EBANK
000255:
000256: 12,3352           15237                           TCF      SWRETURN
000257:
000258:
000259:
000260:
000261:
000262: 12,3353           56144        GCOMPSUB           XCH      MPAC                                  #  ADIA OR ADSRA COEFFICIENT ARRIVES IN A
000263: 12,3354           00006                           EXTEND                                         #  C(MPAC) = (PIPA PULSES) X 2(+14)
000264: 12,3355           70144                           MP       MPAC                                  #  (GYRO PULSES)/(PIPA PULSE) X 2(-6)     *
000265:
000266: 12,3356           52113                           DXCH     VBUF                                  #  NOW = (GYRO PULSES) X 2(+8)            *
000267:
000268: 12,3357           30145                           CA       MPAC       +1                         #  MINOR PART PIPA PULSES
000269: 12,3360           00006                           EXTEND
000270: 12,3361           70144                           MP       MPAC                                  #  ADIA OR ADSRA
000271: 12,3362           54001                           TS       L
000272: 12,3363           37761                           CAF      ZERO
000273: 12,3364           20113                           DAS      VBUF                                  #  NOW = (GYRO PULSES) X 2(+8)            *
000274:
000275: 12,3365           30112                           CA       VBUF                                  #  PARTIAL RESULT - MAJOR
000276: 12,3366           00006                           EXTEND
000277: 12,3367           77745                           MP       BIT9                                  #  SCALE 2(+6)      SHIFT RIGHT 6         *
000278:
000279: 12,3370           50120                           INDEX    BUF                                   #  RESULT = (GYRO PULSES) X 2(+14)
000280: 12,3371           21456                           DAS      GCOMP                                 #  HI(ADIA)(PIPAI)  OR  HI(ADSRA)(PIPAI)
000281:
000282: 12,3372           30113                           CA       VBUF       +1                         #  PARTIAL RESULT - MINOR
000283: 12,3373           00006                           EXTEND
000284: 12,3374           77745                           MP       BIT9                                  #  SCALE 2(+6)      SHIFT RIGHT 6         *
000285: 12,3375           54001                           TS       L
000286: 12,3376           37761                           CAF      ZERO
000287: 12,3377           50120                           INDEX    BUF                                   #  RESULT = (GYRO PULSES) X 2(+14)
000288: 12,3400           21456                           DAS      GCOMP                                 #  (ADIA)(PIPAI)  OR  (ADSRA)(PIPAI)
000289:
000290: 12,3401           00002                           TC       Q
000291:


000293: 12,3402           00006        DRIFSTUB           EXTEND
000294: 12,3403           22121                           QXCH     BUF        +1
000295:
000296: 12,3404           00006                           EXTEND                                         #  C(A) = NBD    (GYRO PULSES)/(CS) X 2(-5)
000297: 12,3405           71163                           MP       1/PIPADT                              #  (CS) X 2(+8)   NOW (GYRO PULSES) X 2(+3)
000298: 12,3406           22145                           LXCH     MPAC       +1                         #  SAVE FOR FRACTIONAL COMPENSATION
000299:
000300: 12,3407           00006                           EXTEND
000301: 12,3410           77752                           MP       BIT4                                  #  SCALE 2(+11)     SHIFT RIGHT 11
000302: 12,3411           50120                           INDEX    BUF
000303: 12,3412           21456                           DAS      GCOMP                                 #  HI(NBD)(DELTAT)   (GYRO PULSES) X 2(+14)
000304:
000305: 12,3413           30145                           CA       MPAC       +1                         #  NOW MINOR PART
000306: 12,3414           00006                           EXTEND
000307: 12,3415           77752                           MP       BIT4                                  #  SCALE 2(+11)     SHIFT RIGHT 11
000308: 12,3416           54001                           TS       L
000309: 12,3417           37761                           CAF      ZERO
000310: 12,3420           50120                           INDEX    BUF                                   #  ADD IN FRACTIONAL COMPENSATION
000311: 12,3421           21456                           DAS      GCOMP                                 #  (NBD)(DELTAT)     (GYRO PULSES) X 2(+14)
000312:
000313:
000314: 12,3422           37754        DRFTSUB2           CAF      TWO                                   #  PIPAX, PIPAY, PIPAZ
000315: 12,3423           60120                           AD       BUF
000316: 12,3424           56120                           XCH      BUF
000317: 12,3425           50000                           INDEX    A
000318: 12,3426           11455                           CCS      GCOMP                                 #  ARE GYRO COMMANDS 1 PULSE OR GREATER
000319: 12,3427           13431                           TCF      +2                                    #  YES
000320: 12,3430           00121                           TC       BUF        +1                         #  NO
000321:
000322: 12,3431           73501                           MASK     COMPCHK                               #  DEC -1
000323:
000324: 12,3432           10000                           CCS      A                                     #  ARE GYRO COMMANDS GREATER THAN 2 PULSES
000325: 12,3433           55463                           TS       GCOMPSW                               #  YES - SET GCOMPSW POSITIVE
000326: 12,3434           00121                           TC       BUF        +1                         #  NO
000327:


000329: 12,3435           37753        1/GYRO             CAF      FOUR                                  #  PIPAZ, PIPAY, PIPAX
000330: 12,3436           54120                           TS       BUF
000331:
000332: 12,3437           50120                           INDEX    BUF                                   #  SCALE GYRO COMMANDS FOR IMUPULSE
000333: 12,3440           31456                           CA       GCOMP      +1                         #  FRACTIONAL PULSES
000334: 12,3441           00006                           EXTEND
000335: 12,3442           77746                           MP       BIT8                                  #  SHIFT RIGHT 7
000336: 12,3443           50120                           INDEX    BUF
000337: 12,3444           55456                           TS       GCOMP      +1                         #  FRACTIONAL PULSES SCALED
000338:
000339: 12,3445           37761                           CAF      ZERO                                  #  SET GCOMP = 0 FOR DAS INSTRUCTION
000340: 12,3446           50120                           INDEX    BUF
000341:
000342: 12,3447           57455                           XCH      GCOMP                                 #  GYRO PULSES
000343: 12,3450           00006                           EXTEND
000344: 12,3451           77746                           MP       BIT8                                  #  SHIFT RIGHT 7
000345: 12,3452           50120                           INDEX    BUF
000346: 12,3453           21456                           DAS      GCOMP                                 #  ADD THESE TO FRACTIONAL PULSES ABOVE
000347:
000348: 12,3454           10120                           CCS      BUF                                   #  PIPAZ, PIPAY, PIPAX
000349: 12,3455           67763                           AD       NEG1
000350: 12,3456           13436                           TCF      1/GYRO     +1
000351: 12,3457           01455        LGCOMP             ECADR    GCOMP                                 #  LESS THAN ZERO IMPOSSIBLE
000352:
000353: 12,3460           33457                           CAF      LGCOMP
000354:
000355: 12,3461           05224                           TC       BANKCALL
000356: 12,3462           26361                           CADR     IMUPULSE                              #  CALL GYRO TORQUING ROUTINE
000357: 12,3463           05224                           TC       BANKCALL
000358: 12,3464           26762                           CADR     IMUSTALL                              #  WAIT FOR PULSES TO GET OUT
000359: 12,3465           15605                           TCF      ENDOFJOB                              #  TEMPORARY
000360:
000361: 12,3466           37753        GCOMP1             CAF      FOUR                                  #  PIPAZ, PIPAY, PIPAX
000362: 12,3467           54120                           TS       BUF
000363:
000364: 12,3470           50120                           INDEX    BUF                                   #  RESCALE
000365:
000366: 12,3471           31456                           CA       GCOMP      +1
000367: 12,3472           00006                           EXTEND
000368: 12,3473           77746                           MP       BIT8                                  #  SHIFT MINOR PART LEFT 7 - MAJOR PART = 0
000369: 12,3474           50120                           INDEX    BUF
000370: 12,3475           23456                           LXCH     GCOMP      +1                         #  BITS 8-14 OF MINOR PART WERE = 0
000371:
000372: 12,3476           10120                           CCS      BUF                                   #  PIPAZ, PIPAY, PIPAX
000373: 12,3477           67763                           AD       NEG1
000374: 12,3500           13467                           TCF      GCOMP1     +1
000375: 12,3501           77776        COMPCHK            DEC      -1         B-14                       #  LESS THAN ZERO IMPOSSIBLE
000376: 12,3502           15605                           TCF      ENDOFJOB
000377:


000379: 12,3503           11463        NBDONLY            CCS      GCOMPSW                               #  BYPASS IF GCOMPSW NEGATIVE
000380: 12,3504           13507                           TCF      +3
000381: 12,3505           13507                           TCF      +2
000382: 12,3506           15605                           TCF      ENDOFJOB
000383:
000384: 12,3507           30025                           CA       TIME1                                 #  (CS) X 2(+14)
000385: 12,3510           57163                           XCH      1/PIPADT                              #  PREVIOUS TIME
000386: 12,3511           40000                           COM
000387:
000388: 12,3512           61163                           AD       1/PIPADT
000389: 12,3513           10000        NBD2               CCS      A                                     #  CALCULATE ELAPSED TIME
000390: 12,3514           67755                           AD       ONE                                   #  NO TIME1 OVERFLOW
000391: 12,3515           13522                           TCF      NBD3                                  #  RESTORE TIME DIFFERENCE AND JUMP
000392: 12,3516           13520                           TCF      +2                                    #  TIME1 OVERFLOW
000393: 12,3517           15605                           TCF      ENDOFJOB                              #  IF ELAPSED TIME = 0  (DIFFERENCE = -0)
000394:
000395: 12,3520           40000                           COM                                            #  CALCULATE ABSOLUTE DIFFERENCE
000396: 12,3521           67735                           AD       POSMAX
000397:
000398: 12,3522           00006        NBD3               EXTEND                                         #  C(A) = DELTAT    (CS) X 2(+14)
000399: 12,3523           77744                           MP       BIT10                                 #  SHIFT RIGHT 5
000400: 12,3524           52113                           DXCH     VBUF
000401: 12,3525           00006                           EXTEND
000402: 12,3526           30113                           DCA      VBUF
000403: 12,3527           52145                           DXCH     MPAC                                  #  DELTAT NOW SCALED (CS) X 2(+19)
000404:
000405: 12,3530           37761                           CAF      ZERO
000406: 12,3531           55463                           TS       GCOMPSW                               #  INDICATE COMMANDS 2 PULSES OR LESS
000407: 12,3532           54120                           TS       BUF                                   #  PIPAX, PIPAY, PIPAZ
000408:
000409: 12,3533           41444                           CS       NBDX                                  #  (GYRO PULSES)/(CS) X 2(-5)
000410: 12,3534           03552                           TC       FBIASSUB                              #  -(NBDX)(DELTAT)    (GYRO PULSES) X 2(+14)
000411:
000412:
000413: 12,3535           00006                           EXTEND
000414: 12,3536           40113                           DCS      VBUF
000415: 12,3537           52145                           DXCH     MPAC                                  #  DELTAT SCALED (CS) X 2(+19)
000416: 12,3540           31445                           CA       NBDY                                  #  (GYRO PULSES)/(CS) X 2(-5)
000417: 12,3541           03552                           TC       FBIASSUB                              #  -(NBDY)(DELTAT)    (GYRO PULSES) X 2(+14)
000418:
000419: 12,3542           00006                           EXTEND
000420: 12,3543           40113                           DCS      VBUF
000421: 12,3544           52145                           DXCH     MPAC                                  #  DELTAT SCALED (CS) X 2(+19)
000422:
000423: 12,3545           41446                           CS       NBDZ                                  #  (GYRO PULSES)/(CS) X 2(-5)
000424: 12,3546           03552                           TC       FBIASSUB                              #  +(NBDZ)(DELTAT)    (GYRO PULSES) X 2 (+14)
000425:
000426: 12,3547           11463                           CCS      GCOMPSW                               #  ARE GYRO COMMANDS GREATER THAN 2 PULSES
000427: 12,3550           13435                           TCF      1/GYRO                                #  YES
000428: 12,3551           15605                           TCF      ENDOFJOB                              #  NO
000429:


000431: 12,3552           56002        FBIASSUB           XCH      Q
000432:
000433: 12,3553           54121                           TS       BUF        +1
000434:
000435: 12,3554           30002                           CA       Q                                     #  NBD SCALED (GYRO PULSES)/(CS) X 2(-5)
000436: 12,3555           00006                           EXTEND
000437: 12,3556           70144                           MP       MPAC                                  #  DELTAT SCALED (CS) X 2(+19)
000438: 12,3557           50120                           INDEX    BUF
000439: 12,3560           21456                           DAS      GCOMP                                 #  HI(NBD)(DELTAT)    (GYRO PULSES) X 2(+14)
000440:
000441: 12,3561           30002                           CA       Q                                     #  NOW FRACTIONAL PART
000442: 12,3562           00006                           EXTEND
000443: 12,3563           70145                           MP       MPAC       +1
000444: 12,3564           54001                           TS       L
000445:
000446: 12,3565           37761                           CAF      ZERO
000447: 12,3566           50120                           INDEX    BUF
000448: 12,3567           21456                           DAS      GCOMP                                 #  (NBD)(DELTAT)     (GYRO PULSES) X 2(+14)
000449:
000450: 12,3570           13422                           TCF      DRFTSUB2                              #  CHECK MAGNITUDE OF COMPENSATION
000451:
000452:
000453:
000454:
000455:
000456: 12,3571           11463        LASTBIAS           CCS      GCOMPSW                               #  BYPASS IF GCOMPSW NEGATIVE
000457: 12,3572           13575                           TCF      +3
000458: 12,3573           13575                           TCF      +2
000459: 12,3574           15605                           TCF      ENDOFJOB
000460:
000461: 12,3575           35670                           CAF      PRIO31                                #  2 SECONDS SCALED (CS) X 2(+8)
000462: 12,3576           57163                           XCH      1/PIPADT
000463: 12,3577           40000                           COM
000464: 12,3600           61321                           AD       PIPTIME    +1                         #  TIME AT PIPAI = 0
000465: 12,3601           13513                           TCF      NBD2
000466:
000467:
000468:
000469:
000470: 12,3602           33457        GCOMPZER           CAF      LGCOMP                                #  ROUTINE TO ZERO GCOMP BEFORE FIRST
000471: 12,3603           56003                           XCH      EBANK                                 #  CALL TO 1/PIPA
000472: 12,3604           54153                           TS       MODE
000473:
000474: 12,3605           37761                           CAF      ZERO
000475: 12,3606           55463                           TS       GCOMPSW
000476: 12,3607           55455                           TS       GCOMP
000477: 12,3610           55456                           TS       GCOMP      +1
000478: 12,3611           55457                           TS       GCOMP      +2
000479:
000480: 12,3612           55460                           TS       GCOMP      +3
000481: 12,3613           55461                           TS       GCOMP      +4
000482: 12,3614           55462                           TS       GCOMP      +5
000483:


000485: 12,3615           30153                           CA       MODE
000486: 12,3616           54003                           TS       EBANK
000487: 12,3617           15237                           TCF      SWRETURN                              #  RETURN TO CALLER

End of include-file IMU_COMPENSATION_PACKAGE.agc.  Parent file is MAIN.agc


