
Source Code


000002:                                                                                                  ## Copyright:   Public domain.
000003:                                                                                                  ## Filename:    IMU_COMPENSATION_PACKAGE.agc
000004:                                                                                                  ## Purpose:     A section of Sunburst revision 37, or Shepatin revision 0.
000005:                                                                                                  ##              It is part of an early development version of the software
000006:                                                                                                  ##              for Apollo Guidance Computer (AGC) on the unmanned Lunar
000007:                                                                                                  ##              Module (LM) flight Apollo 5. Sunburst 37 was the program
000008:                                                                                                  ##              upon which Don Eyles's offline development program Shepatin
000009:                                                                                                  ##              was based; the listing herein transcribed was actually for
000010:                                                                                                  ##              the equivalent revision 0 of Shepatin.
000011:                                                                                                  ##              This file is intended to be a faithful transcription, except
000012:                                                                                                  ##              that the code format has been changed to conform to the
000013:                                                                                                  ##              requirements of the yaYUL assembler rather than the
000014:                                                                                                  ##              original YUL assembler.
000015:                                                                                                  ## Reference:   pp. 802-811
000016:                                                                                                  ## Assembler:   yaYUL
000017:                                                                                                  ## Contact:     Ron Burkey <info@sandroid.org>.
000018:                                                                                                  ## Website:     www.ibiblio.org/apollo/index.html
000019:                                                                                                  ## Mod history: 2017-05-24 MAS  Created from Sunburst 120.
000020:                                                                                                  ##              2017-06-14 HG   Transcribed
000021:                                                                                                  ##              2017-06-15 HG   Fix operand CA  -> CS
000022:                                                                                                  ##              2017-06-23 RSB  Proofed comment text with
000023:                                                                                                  ##                              octopus/ProoferComments.
000024:


000026: 12,3220                                           BANK     12
000027: 12,3220  E3,1444                                  EBANK=   NBDX
000028:
000029:                                                                                                  #  PROGRAM DESCRIPTION- IMU COMPENSATION (LEM)                             DATE- 30 AUG 66
000030:                                                                                                  #  MOD NO- 0                                                               LOG SECTION- IMU COMPENSATION PACKAGE
000031:                                                                                                  #  MOD BY- GILBERT                                                         ASSEMBLY- SUNBURST REVISION 13
000032:
000033:                                                                                                  #  FUNCTIONAL DESCRIPTION
000034:                                                                                                  #        THE IMU COMPENSATION PACKAGE IS DESIGNED TO COMPENSATE FOR PIPA BIAS AND SCALE FACTOR ERROR AND AT THE
000035:                                                                                                  #  SAME TIME ACCUMULATE GYRO TORQUING COMMANDS NECESSARY TO COMPENSATE FOR THE ASSOCIATED BIAS AND ACCELERATION-
000036:                                                                                                  #  CAUSED GYRO DRIFTS. 1/PIPA MUST BE CALLED AT LEAST EVERY 2.55 SECONDS DUE TO SCALING CONSIDERATIONS.
000037:                                                                                                  #  SPECIFICALLY, THE CORRECTION IS
000038:
000039:                                                                                                  #        PIPA  = (1 + SCALE FACTOR ERROR)PIPA  - (BIAS)(DELTAT)
000040:
000041:                                                                                                  #            C                               I
000042:
000043:                                                                                                  #  WHERE PIPA  IS THE COMPENSATED DATA OBTAINED FROM THE SAMPLED DATA PIPA
000044:                                                                                                  #            C                                                            I
000045:
000046:                                                                                                  #  THE COMPENSATED DATA IS THEN USED TO COMPUTE THE IRIG TORQUING NECESSARY TO CANCEL THE NBD, ADIA, AND ADSRA
000047:                                                                                                  #  GYRO COEFFICIENTS.
000048:                                                                                                  #  SPECIFICALLY, THE COMPUTATIONS ARE
000049:
000050:                                                                                                  #        XIRIG     -(ADIAX)(PIPAX ) + (ADSRAX)(PIPAY ) - (NBDX)(DELTAT)
000051:
000052:                                                                                                  #                                C                  C
000053:                                                                                                  #        YIRIG     -(ADIAY)(PIPAY ) + (ADSRAY)(PIPAZ ) - (NBDY)(DELTAT)
000054:                                                                                                  #                                C                  C
000055:                                                                                                  #        ZIRIG     -(ADIAZ)(PIPAZ ) - (ADSRAZ)(PIPAY ) + (NBDZ)(DELTAT)
000056:                                                                                                  #                                C                  C
000057:
000058:                                                                                                  #  THIS COMPENSATION IS SUMMED INTO THE GCOMP REGISTERS AND WHEN THE MAGNITUDE OF ANY IRIG COMMAND EXCEEDS 2
000059:                                                                                                  #  PULSES, THE COMMANDS ARE SENT TO THE GYROS.
000060:
000061:                                                                                                  #  DURING FREE-FALL PHASES OF A FLIGHT NBDX, NBDY, AND NBDZ ARE THE ONLY RELEVANT COEFFICIENTS. THESE BIAS TERMS
000062:                                                                                                  #  WILL BE INTEGRATED BY ROUTINE NBDONLY APPROXIMATELY EVERY 81.93 SECONDS FOLLOWING AN EXECUTIVE CALL BY THE DUMMY
000063:                                                                                                  #  TASK OF THE WAITLIST PROGRAM. NBDONLY IS ENABLED WHEN BIT 15 OF FLAGWRD2 IS SET TO INDICATE FREE-FALL. DURING
000064:
000065:                                                                                                  #  THIS TIME 1/PIPA IS NOT CALLED.
000066:
000067:                                                                                                  #  LASTBIAS IS CALLED VIA EXECUTIVE WHEN MAKING THE TRANSITION FROM FREE-FALL TO A PIPA READING MODE. THE NBD TERMS
000068:                                                                                                  #  ARE COMPENSATED FOR FROM THE LAST NBDONLY CALL UP TO PIPA ZEROING. PREREAD WILL THEN ENABLE 1/PIPA AT ITS
000069:                                                                                                  #  REGULAR INTERVAL. THE DRIFT FLAG MUST BE DOWN JUST PRIOR TO LASTBIAS. GYROCOMPASS NEVER CALLS LASTBIAS.
000070:
000071:                                                                                                  #  SCALING CONSIDERATIONS
000072:                                                                                                  #                             UNITS              MAX. VALUE     INTERNAL UNITS AND SCALING
000073:
000074:                                                                                                  #         PIPA BIAS           (CM)/(SEC)(SEC)    3.125          (PIPA PULSES)/(CS) X 2(-5)
000075:
000076:                                                                                                  #         PIPA SCALE FACTOR   P.P.M.             1953.125       (PPM) X 2(-9)
000077:                                                                                                  #         NBD                 MERU               128.74604      (GYRO PULSES)/(CS) X 2(-5)
000078:                                                                                                  #         ADIA                (MERU)/(G)         630.36633      (GYRO PULSES)/(PIPA PULSE) X 2(-6)
000079:                                                                                                  #         ADSRA               (MERU)/(G)         630.36633      (GYRO PULSES)/(PIPA PULSE) X 2(-6)
000080:


000082:                                                                                                  #  CONVERSION TABLE
000083:                                                                                                  #        1 PIPA PULSE = 1.00 (CM)/(SEC)               1 ERU = 7.29209817 X 10(-5) (RAD)/(SEC)
000084:                                                                                                  #        1 ERU = 15.04104488 (ARCSEC)/(SEC)           1 (CM)/(SEC)(SEC) = .01 (PIPA PULSES)/(CS)
000085:                                                                                                  #        1 GYRO PULSE = .61798096 ARCSEC              1 MERU = .00024272592 (GYRO PULSES)/(CS)
000086:                                                                                                  #        1 G = 979.24 (CM)/(SEC)(SEC)  (AMR)          1 (MERU)/(G) = .000024787174 (GYRO PULSES)/(PIPA PULSE)
000087:
000088:                                                                                                  #  REFERENCES
000089:                                                                                                  #        AGC PROGRAMMING MEMO NO. 12, I.S.S. MEMO NO. 247, I.S.S. MEMO NO. 328, I.S.S. MEMO NO. 339
000090:
000091:                                                                                                  #  CALLING SEQUENCE
000092:                                                                                                  #        L      TC     BANKCALL
000093:                                                                                                  #        L+1    CADR   1/PIPA
000094:                                                                                                  #        L+2                       RETURNS HERE
000095:
000096:                                                                                                  #  NORMAL EXIT MODES
000097:                                                                                                  #        AT L+2 OF CALLING SEQUENCE
000098:
000099:                                                                                                  #  ALARM OR ABORT MODES
000100:                                                                                                  #        ENDOFJOB
000101:
000102:
000103:                                                                                                  #  ERASABLE INITIALIZATION REQUIRED (CONSECUTIVE LOCATIONS)
000104:                                                                                                  #        PBIASX    PIPAX BIAS
000105:                                                                                                  #        PIPASCFX  PIPAX SCALE FACTOR ERROR
000106:                                                                                                  #        PBIASY    PIPAY BIAS
000107:                                                                                                  #        PIPASCFY  PIPAY SCALE FACTOR ERROR
000108:                                                                                                  #        PBIASZ    PIPAZ BIAS
000109:                                                                                                  #        PIPASCFZ  PIPAZ SCALE FACTOR ERROR
000110:                                                                                                  #        NBDX      X IRIG BIAS DRIFT
000111:                                                                                                  #        NBDY      Y IRIG BIAS DRIFT
000112:
000113:                                                                                                  #        NBDZ      Z IRIG BIAS DRIFT
000114:                                                                                                  #        ADIAX     IRIG ACCELERATION SENSITIVE DRIFT ALONG THE X INPUT AXIS
000115:                                                                                                  #        ADIAY     IRIG ACCELERATION SENSITIVE DRIFT ALONG THE Y INPUT AXIS
000116:                                                                                                  #        ADIAZ     IRIG ACCELERATION SENSITIVE DRIFT ALONG THE Z INPUT AXIS
000117:                                                                                                  #        ADSRAX    IRIG ACCELERATION SENSITIVE DRIFT ALONG THE X SPIN REFERENCE AXIS
000118:                                                                                                  #        ADSRAY    IRIG ACCELERATION SENSITIVE DRIFT ALONG THE Y SPIN REFERENCE AXIS
000119:                                                                                                  #        ADSRAZ    IRIG ACCELERATION SENSITIVE DRIFT ALONG THE Z SPIN REFERENCE AXIS
000120:                                                                                                  #        GCOMP     GYRO COMPENSATION PULSES (SET = ZERO FOR 1ST PASS)
000121:
000122:                                                                                                  #  INPUT
000123:                                                                                                  #        1/PIPADT - DELTA TIME SCALED AT (CS) X 2(+8)
000124:                                                                                                  #        DELVX, DELVY, DELVZ - PIPA READINGS IN THE MAJOR PARTS - MINOR PARTS IRRELEVANT
000125:
000126:
000127:                                                                                                  #  OUTPUT
000128:                                                                                                  #        DELVX, DELVY, DELVZ - PIPA COUNTS SCALED 2(+14) COMPENSATED FOR PIPA BIAS AND SCALE FACTOR ERROR
000129:                                                                                                  #        GCOMP - 3 DP LOCATIONS CONTAINING GYRO PULSES TO COMPENSATE FOR NBD, ADIA, AND ADSRA COEFFICIENTS
000130:
000131:                                                                                                  #  DEBRIS
000132:                                                                                                  #        CENTRALS - A,L,Q
000133:                                                                                                  #        OTHER - BUF - BUF +2, VBUF - VBUF +2, GCOMPSW
000134:


000136: 12,3220           33457        1/PIPA             CAF      LGCOMP                                #  SAVE EBANK OF CALLING PROGRAM
000137: 12,3221           56003                           XCH      EBANK
000138:
000139: 12,3222           54153                           TS       MODE
000140:
000141: 12,3223           11463                           CCS      GCOMPSW                               #  BYPASS IF GCOMPSW NEGATIVE
000142: 12,3224           13227                           TCF      +3
000143: 12,3225           13227                           TCF      +2
000144: 12,3226           13350                           TCF      IRIG1                                 #  RETURN
000145:
000146: 12,3227           37753        1/PIPA1            CAF      FOUR                                  #  PIPAZ, PIPAY, PIPAX
000147: 12,3230           54122                           TS       BUF        +2
000148:
000149: 12,3231           50000                           INDEX    A
000150: 12,3232           30403                           CA       DELVX                                 #  CONTAINS PREVIOUS PIPA READING
000151: 12,3233           54112                           TS       VBUF                                  #  TEMPORARY - MINOR PARTS IRRELEVANT
000152:
000153: 12,3234           50122                           INDEX    BUF        +2
000154: 12,3235           41436                           CS       PIPABIAS                              #  (PIPA PULSES)/(CS) X 2(-5)             *
000155: 12,3236           00006                           EXTEND
000156: 12,3237           71163                           MP       1/PIPADT                              #  (CS) X 2(+8)  NOW (PIPA PULSES) X 2(+3)*
000157: 12,3240           00006                           EXTEND                                         #                                         *
000158: 12,3241           77752                           MP       BIT4                                  #  SCALE 2(-3)      SHIFT LEFT 3          *
000159: 12,3242           22113                           LXCH     VBUF       +1                         # (PIPA PULSES) X 2(0)    FRACTIONAL PULSE*
000160:
000161: 12,3243           50122                           INDEX    BUF        +2
000162:
000163: 12,3244           31437                           CA       PIPASCF                               #  (P.P.M.) X 2(-9)
000164: 12,3245           00006                           EXTEND
000165: 12,3246           70112                           MP       VBUF                                  #  (PIPA PULSES) X 2(+14)
000166: 12,3247           22114                           LXCH     VBUF       +2                         #  SAVE FOR FRACTIONAL COMPUTATION
000167: 12,3250           00006                           EXTEND
000168: 12,3251           77750                           MP       BIT6                                  #  SCALE 2(+9)    NOW PIPA PULSES X 2(+14)
000169: 12,3252           20113                           DAS      VBUF                                  #  (PIPAI) - (NBD)(DELTAT) + HI(PIPAI)(SFE)
000170:
000171: 12,3253           30114                           CA       VBUF       +2                         #  NOW MINOR PART
000172: 12,3254           00006                           EXTEND
000173:
000174: 12,3255           77750                           MP       BIT6                                  #  SCALE 2(+9)    SHIFT RIGHT 9
000175: 12,3256           54001                           TS       L
000176: 12,3257           37761                           CAF      ZERO
000177: 12,3260           20113                           DAS      VBUF                                  #  (PIPAI) - (NBD)(DELTAT) + (PIPAI)(SFE)
000178:
000179: 12,3261           00006                           EXTEND
000180: 12,3262           30113                           DCA      VBUF                                  #  RESTORE COMPENSATED PIPA READING
000181: 12,3263           50122                           INDEX    BUF        +2
000182: 12,3264           52404                           DXCH     DELVX
000183:
000184: 12,3265           10122                           CCS      BUF        +2                         #  PIPAZ, PIPAY, PIPAX
000185: 12,3266           67763                           AD       NEG1
000186:
000187: 12,3267           13230                           TCF      1/PIPA1    +1
000188: 12,3270           13271                           NOOP                                           #  LESS THAN ZERO IMPOSSIBLE
000189:


000191: 12,3271           55463        IRIGCOMP           TS       GCOMPSW                               #  INDICATE COMMANDS 2 PULSES OR LESS
000192: 12,3272           54120                           TS       BUF                                   #  INDEX COUNTER - IRIGX, IRIGY, IRIGZ
000193:
000194: 12,3273           00006        IRIGX              EXTEND
000195: 12,3274           40404                           DCS      DELVX                                 #  (PIPA PULSES) X 2(+14)
000196: 12,3275           52145                           DXCH     MPAC
000197: 12,3276           31447                           CA       ADIAX                                 #  (GYRO PULSES)/(PIPA PULSE) X 2(-6)     *
000198: 12,3277           03353                           TC       GCOMPSUB                              #  -(ADIAX)(PIPAX)   (GYRO PULSES) X 2(+14)
000199:
000200:
000201: 12,3300           00006                           EXTEND
000202: 12,3301           40406                           DCS      DELVY                                 #  (PIPA PULSES) X 2(+14)
000203: 12,3302           52145                           DXCH     MPAC
000204: 12,3303           41452                           CS       ADSRAX                                #  (GYRO PULSES)/(PIPA PULSE) X 2(-6)     *
000205: 12,3304           03353                           TC       GCOMPSUB                              #  +(ADSRAX)(PIPAY)  (GYRO PULSES) X 2(+14)
000206:
000207: 12,3305           41444                           CS       NBDX                                  #  (GYRO PULSES)/(CS) X 2(-5)
000208: 12,3306           03402                           TC       DRIFSTUB                              #  -(NBDX)(DELTAT)   (GYRO PULSES) X 2(+14)
000209:
000210: 12,3307           00006        IRIGY              EXTEND
000211: 12,3310           40406                           DCS      DELVY                                 #  (PIPA PULSES) X 2(+14)
000212: 12,3311           52145                           DXCH     MPAC
000213: 12,3312           31450                           CA       ADIAY                                 #  (GYRO PULSES)/(PIPA PULSE) X 2(-6)     *
000214: 12,3313           03353                           TC       GCOMPSUB                              #  -(ADIAY)(PIPAY)   (GYRO PULSES) X 2(+14)
000215:
000216: 12,3314           00006                           EXTEND
000217: 12,3315           40410                           DCS      DELVZ                                 #  (PIPA PULSES) X 2(+14)
000218: 12,3316           52145                           DXCH     MPAC
000219: 12,3317           41453                           CS       ADSRAY                                #  (GYRO PULSES)/(PIPA PULSE) X 2(-6)     *
000220: 12,3320           03353                           TC       GCOMPSUB                              #  +(ADSRAY)(PIPAZ)  (GYRO PULSES) X 2(+14)
000221:
000222: 12,3321           41445                           CS       NBDY                                  #  (GYRO PULSES)/(CS) X 2(-5)
000223:
000224: 12,3322           03402                           TC       DRIFSTUB                              #  -(NBDY)(DELTAT)   (GYRO PULSES) X 2(+14)
000225:
000226: 12,3323           00006        IRIGZ              EXTEND
000227: 12,3324           40406                           DCS      DELVY                                 #  (PIPA PULSES) X 2(+14)
000228: 12,3325           52145                           DXCH     MPAC
000229: 12,3326           31454                           CA       ADSRAZ                                #  (GYRO PULSES)/(PIPA PULSE) X 2(-6)     *
000230: 12,3327           03353                           TC       GCOMPSUB                              #  -(ADSRAZ)(PIPAY)  (GYRO PULSES) X 2(+14)
000231:
000232: 12,3330           00006                           EXTEND
000233: 12,3331           40410                           DCS      DELVZ                                 #  (PIPA PULSES) X 2(+14)
000234:
000235: 12,3332           52145                           DXCH     MPAC
000236: 12,3333           31451                           CA       ADIAZ                                 #  (GYRO PULSES)/(PIPA PULSE) X 2(-6)     *
000237: 12,3334           03353                           TC       GCOMPSUB                              #  -(ADIAZ)(PIPAZ)   (GYRO PULSES) X 2(+14)
000238:
000239: 12,3335           31446                           CA       NBDZ                                  #  (GYRO PULSES)/(CS) X 2(-5)
000240: 12,3336           03402                           TC       DRIFSTUB                              #  +(NBDZ)(DELTAT)   (GYRO PULSES) X 2(+14)
000241:


000243: 12,3337           11463                           CCS      GCOMPSW                               #  ARE GYRO COMMANDS GREATER THAN 2 PULSES
000244:
000245: 12,3340           13342                           TCF      +2                                    #  YES
000246: 12,3341           13350                           TCF      IRIG1                                 #  NO
000247:
000248: 12,3342           00004                           INHINT
000249: 12,3343           35674                           CAF      PRIO35                                #  SEND OUT GYRO TORQUING COMMANDS
000250: 12,3344           05523                           TC       NOVAC
000251: 12,3345  E3,1444                                  EBANK=   NBDX
000252: 12,3345           03435 24003                     2CADR    1/GYRO
000253:
000254: 12,3347           00003                           RELINT
000255: 12,3350           30153        IRIG1              CA       MODE                                  #  SET EBANK FOR RETURN
000256: 12,3351           54003                           TS       EBANK
000257:
000258: 12,3352           15237                           TCF      SWRETURN
000259:
000260:
000261:
000262:
000263:
000264: 12,3353           56144        GCOMPSUB           XCH      MPAC                                  #  ADIA OR ADSRA COEFFICIENT ARRIVES IN A
000265: 12,3354           00006                           EXTEND                                         #  C(MPAC) = (PIPA PULSES) X 2(+14)
000266: 12,3355           70144                           MP       MPAC                                  #  (GYRO PULSES)/(PIPA PULSE) X 2(-6)     *
000267:
000268: 12,3356           52113                           DXCH     VBUF                                  #  NOW = (GYRO PULSES) X 2(+8)            *
000269:
000270: 12,3357           30145                           CA       MPAC       +1                         #  MINOR PART PIPA PULSES
000271: 12,3360           00006                           EXTEND
000272: 12,3361           70144                           MP       MPAC                                  #  ADIA OR ADSRA
000273: 12,3362           54001                           TS       L
000274: 12,3363           37761                           CAF      ZERO
000275: 12,3364           20113                           DAS      VBUF                                  #  NOW = (GYRO PULSES) X 2(+8)            *
000276:
000277: 12,3365           30112                           CA       VBUF                                  #  PARTIAL RESULT - MAJOR
000278: 12,3366           00006                           EXTEND
000279: 12,3367           77745                           MP       BIT9                                  #  SCALE 2(+6)      SHIFT RIGHT 6         *
000280:
000281: 12,3370           50120                           INDEX    BUF                                   #  RESULT = (GYRO PULSES) X 2(+14)
000282: 12,3371           21456                           DAS      GCOMP                                 #  HI(ADIA)(PIPAI)  OR  HI(ADSRA)(PIPAI)
000283:
000284: 12,3372           30113                           CA       VBUF       +1                         #  PARTIAL RESULT - MINOR
000285: 12,3373           00006                           EXTEND
000286: 12,3374           77745                           MP       BIT9                                  #  SCALE 2(+6)      SHIFT RIGHT 6         *
000287: 12,3375           54001                           TS       L
000288: 12,3376           37761                           CAF      ZERO
000289: 12,3377           50120                           INDEX    BUF                                   #  RESULT = (GYRO PULSES) X 2(+14)
000290: 12,3400           21456                           DAS      GCOMP                                 #  (ADIA)(PIPAI)  OR  (ADSRA)(PIPAI)
000291:
000292: 12,3401           00002                           TC       Q
000293:


000295: 12,3402           00006        DRIFSTUB           EXTEND
000296: 12,3403           22121                           QXCH     BUF        +1
000297:
000298: 12,3404           00006                           EXTEND                                         #  C(A) = NBD    (GYRO PULSES)/(CS) X 2(-5)
000299: 12,3405           71163                           MP       1/PIPADT                              #  (CS) X 2(+8)   NOW (GYRO PULSES) X 2(+3)
000300: 12,3406           22145                           LXCH     MPAC       +1                         #  SAVE FOR FRACTIONAL COMPENSATION
000301:
000302: 12,3407           00006                           EXTEND
000303: 12,3410           77752                           MP       BIT4                                  #  SCALE 2(+11)     SHIFT RIGHT 11
000304: 12,3411           50120                           INDEX    BUF
000305: 12,3412           21456                           DAS      GCOMP                                 #  HI(NBD)(DELTAT)   (GYRO PULSES) X 2(+14)
000306:
000307: 12,3413           30145                           CA       MPAC       +1                         #  NOW MINOR PART
000308: 12,3414           00006                           EXTEND
000309: 12,3415           77752                           MP       BIT4                                  #  SCALE 2(+11)     SHIFT RIGHT 11
000310: 12,3416           54001                           TS       L
000311: 12,3417           37761                           CAF      ZERO
000312: 12,3420           50120                           INDEX    BUF                                   #  ADD IN FRACTIONAL COMPENSATION
000313: 12,3421           21456                           DAS      GCOMP                                 #  (NBD)(DELTAT)     (GYRO PULSES) X 2(+14)
000314:
000315:
000316: 12,3422           37754        DRFTSUB2           CAF      TWO                                   #  PIPAX, PIPAY, PIPAZ
000317: 12,3423           60120                           AD       BUF
000318: 12,3424           56120                           XCH      BUF
000319: 12,3425           50000                           INDEX    A
000320: 12,3426           11455                           CCS      GCOMP                                 #  ARE GYRO COMMANDS 1 PULSE OR GREATER
000321: 12,3427           13431                           TCF      +2                                    #  YES
000322: 12,3430           00121                           TC       BUF        +1                         #  NO
000323:
000324: 12,3431           73501                           MASK     COMPCHK                               #  DEC -1
000325:
000326: 12,3432           10000                           CCS      A                                     #  ARE GYRO COMMANDS GREATER THAN 2 PULSES
000327: 12,3433           55463                           TS       GCOMPSW                               #  YES - SET GCOMPSW POSITIVE
000328: 12,3434           00121                           TC       BUF        +1                         #  NO
000329:


000331: 12,3435           37753        1/GYRO             CAF      FOUR                                  #  PIPAZ, PIPAY, PIPAX
000332: 12,3436           54120                           TS       BUF
000333:
000334: 12,3437           50120                           INDEX    BUF                                   #  SCALE GYRO COMMANDS FOR IMUPULSE
000335: 12,3440           31456                           CA       GCOMP      +1                         #  FRACTIONAL PULSES
000336: 12,3441           00006                           EXTEND
000337: 12,3442           77746                           MP       BIT8                                  #  SHIFT RIGHT 7
000338: 12,3443           50120                           INDEX    BUF
000339: 12,3444           55456                           TS       GCOMP      +1                         #  FRACTIONAL PULSES SCALED
000340:
000341: 12,3445           37761                           CAF      ZERO                                  #  SET GCOMP = 0 FOR DAS INSTRUCTION
000342: 12,3446           50120                           INDEX    BUF
000343:
000344: 12,3447           57455                           XCH      GCOMP                                 #  GYRO PULSES
000345: 12,3450           00006                           EXTEND
000346: 12,3451           77746                           MP       BIT8                                  #  SHIFT RIGHT 7
000347: 12,3452           50120                           INDEX    BUF
000348: 12,3453           21456                           DAS      GCOMP                                 #  ADD THESE TO FRACTIONAL PULSES ABOVE
000349:
000350: 12,3454           10120                           CCS      BUF                                   #  PIPAZ, PIPAY, PIPAX
000351: 12,3455           67763                           AD       NEG1
000352: 12,3456           13436                           TCF      1/GYRO     +1
000353: 12,3457           01455        LGCOMP             ECADR    GCOMP                                 #  LESS THAN ZERO IMPOSSIBLE
000354:
000355: 12,3460           33457                           CAF      LGCOMP
000356:
000357: 12,3461           05224                           TC       BANKCALL
000358: 12,3462           26361                           CADR     IMUPULSE                              #  CALL GYRO TORQUING ROUTINE
000359: 12,3463           05224                           TC       BANKCALL
000360: 12,3464           26762                           CADR     IMUSTALL                              #  WAIT FOR PULSES TO GET OUT
000361: 12,3465           15605                           TCF      ENDOFJOB                              #  TEMPORARY
000362:
000363: 12,3466           37753        GCOMP1             CAF      FOUR                                  #  PIPAZ, PIPAY, PIPAX
000364: 12,3467           54120                           TS       BUF
000365:
000366: 12,3470           50120                           INDEX    BUF                                   #  RESCALE
000367:
000368: 12,3471           31456                           CA       GCOMP      +1
000369: 12,3472           00006                           EXTEND
000370: 12,3473           77746                           MP       BIT8                                  #  SHIFT MINOR PART LEFT 7 - MAJOR PART = 0
000371: 12,3474           50120                           INDEX    BUF
000372: 12,3475           23456                           LXCH     GCOMP      +1                         #  BITS 8-14 OF MINOR PART WERE = 0
000373:
000374: 12,3476           10120                           CCS      BUF                                   #  PIPAZ, PIPAY, PIPAX
000375: 12,3477           67763                           AD       NEG1
000376: 12,3500           13467                           TCF      GCOMP1     +1
000377: 12,3501           77776        COMPCHK            DEC      -1         B-14                       #  LESS THAN ZERO IMPOSSIBLE
000378: 12,3502           15605                           TCF      ENDOFJOB
000379:


000381: 12,3503           11463        NBDONLY            CCS      GCOMPSW                               #  BYPASS IF GCOMPSW NEGATIVE
000382: 12,3504           13507                           TCF      +3
000383: 12,3505           13507                           TCF      +2
000384: 12,3506           15605                           TCF      ENDOFJOB
000385:
000386: 12,3507           30025                           CA       TIME1                                 #  (CS) X 2(+14)
000387: 12,3510           57163                           XCH      1/PIPADT                              #  PREVIOUS TIME
000388: 12,3511           40000                           COM
000389:
000390: 12,3512           61163                           AD       1/PIPADT
000391: 12,3513           10000        NBD2               CCS      A                                     #  CALCULATE ELAPSED TIME
000392: 12,3514           67755                           AD       ONE                                   #  NO TIME1 OVERFLOW
000393: 12,3515           13522                           TCF      NBD3                                  #  RESTORE TIME DIFFERENCE AND JUMP
000394: 12,3516           13520                           TCF      +2                                    #  TIME1 OVERFLOW
000395: 12,3517           15605                           TCF      ENDOFJOB                              #  IF ELAPSED TIME = 0  (DIFFERENCE = -0)
000396:
000397: 12,3520           40000                           COM                                            #  CALCULATE ABSOLUTE DIFFERENCE
000398: 12,3521           67735                           AD       POSMAX
000399:
000400: 12,3522           00006        NBD3               EXTEND                                         #  C(A) = DELTAT    (CS) X 2(+14)
000401: 12,3523           77744                           MP       BIT10                                 #  SHIFT RIGHT 5
000402: 12,3524           52113                           DXCH     VBUF
000403: 12,3525           00006                           EXTEND
000404: 12,3526           30113                           DCA      VBUF
000405: 12,3527           52145                           DXCH     MPAC                                  #  DELTAT NOW SCALED (CS) X 2(+19)
000406:
000407: 12,3530           37761                           CAF      ZERO
000408: 12,3531           55463                           TS       GCOMPSW                               #  INDICATE COMMANDS 2 PULSES OR LESS
000409: 12,3532           54120                           TS       BUF                                   #  PIPAX, PIPAY, PIPAZ
000410:
000411: 12,3533           41444                           CS       NBDX                                  #  (GYRO PULSES)/(CS) X 2(-5)
000412: 12,3534           03552                           TC       FBIASSUB                              #  -(NBDX)(DELTAT)    (GYRO PULSES) X 2(+14)
000413:
000414:
000415: 12,3535           00006                           EXTEND
000416: 12,3536           40113                           DCS      VBUF
000417: 12,3537           52145                           DXCH     MPAC                                  #  DELTAT SCALED (CS) X 2(+19)
000418: 12,3540           31445                           CA       NBDY                                  #  (GYRO PULSES)/(CS) X 2(-5)
000419: 12,3541           03552                           TC       FBIASSUB                              #  -(NBDY)(DELTAT)    (GYRO PULSES) X 2(+14)
000420:
000421: 12,3542           00006                           EXTEND
000422: 12,3543           40113                           DCS      VBUF
000423: 12,3544           52145                           DXCH     MPAC                                  #  DELTAT SCALED (CS) X 2(+19)
000424:
000425: 12,3545           41446                           CS       NBDZ                                  #  (GYRO PULSES)/(CS) X 2(-5)
000426: 12,3546           03552                           TC       FBIASSUB                              #  +(NBDZ)(DELTAT)    (GYRO PULSES) X 2 (+14)
000427:
000428: 12,3547           11463                           CCS      GCOMPSW                               #  ARE GYRO COMMANDS GREATER THAN 2 PULSES
000429: 12,3550           13435                           TCF      1/GYRO                                #  YES
000430: 12,3551           15605                           TCF      ENDOFJOB                              #  NO
000431:


000433: 12,3552           56002        FBIASSUB           XCH      Q
000434:
000435: 12,3553           54121                           TS       BUF        +1
000436:
000437: 12,3554           30002                           CA       Q                                     #  NBD SCALED (GYRO PULSES)/(CS) X 2(-5)
000438: 12,3555           00006                           EXTEND
000439: 12,3556           70144                           MP       MPAC                                  #  DELTAT SCALED (CS) X 2(+19)
000440: 12,3557           50120                           INDEX    BUF
000441: 12,3560           21456                           DAS      GCOMP                                 #  HI(NBD)(DELTAT)    (GYRO PULSES) X 2(+14)
000442:
000443: 12,3561           30002                           CA       Q                                     #  NOW FRACTIONAL PART
000444: 12,3562           00006                           EXTEND
000445: 12,3563           70145                           MP       MPAC       +1
000446: 12,3564           54001                           TS       L
000447:
000448: 12,3565           37761                           CAF      ZERO
000449: 12,3566           50120                           INDEX    BUF
000450: 12,3567           21456                           DAS      GCOMP                                 #  (NBD)(DELTAT)     (GYRO PULSES) X 2(+14)
000451:
000452: 12,3570           13422                           TCF      DRFTSUB2                              #  CHECK MAGNITUDE OF COMPENSATION
000453:
000454:
000455:
000456:
000457:
000458: 12,3571           11463        LASTBIAS           CCS      GCOMPSW                               #  BYPASS IF GCOMPSW NEGATIVE
000459: 12,3572           13575                           TCF      +3
000460: 12,3573           13575                           TCF      +2
000461: 12,3574           15605                           TCF      ENDOFJOB
000462:
000463: 12,3575           35670                           CAF      PRIO31                                #  2 SECONDS SCALED (CS) X 2(+14)
000464: 12,3576           57163                           XCH      1/PIPADT
000465: 12,3577           40000                           COM
000466: 12,3600           61321                           AD       PIPTIME    +1                         #  TIME AT PIPAI = 0
000467: 12,3601           13513                           TCF      NBD2
000468:
000469:
000470:
000471:
000472: 12,3602           33457        GCOMPZER           CAF      LGCOMP                                #  ROUTINE TO ZERO GCOMP BEFORE FIRST
000473: 12,3603           56003                           XCH      EBANK                                 #  CALL TO 1/PIPA
000474: 12,3604           54153                           TS       MODE
000475:
000476: 12,3605           37761                           CAF      ZERO
000477: 12,3606           55463                           TS       GCOMPSW
000478: 12,3607           55455                           TS       GCOMP
000479: 12,3610           55456                           TS       GCOMP      +1
000480: 12,3611           55457                           TS       GCOMP      +2
000481:
000482: 12,3612           55460                           TS       GCOMP      +3
000483: 12,3613           55461                           TS       GCOMP      +4
000484: 12,3614           55462                           TS       GCOMP      +5
000485:


000487: 12,3615           30153                           CA       MODE
000488: 12,3616           54003                           TS       EBANK
000489: 12,3617           15237                           TCF      SWRETURN                              #  RETURN TO CALLER

End of include-file IMU_COMPENSATION_PACKAGE.agc.  Parent file is MAIN.agc


