
Source Code


000002:                                                                                                  ## Copyright:   Public domain.
000003:                                                                                                  ## Filename:    IMU_PERFORMANCE_TESTS_3.agc
000004:                                                                                                  ## Purpose:     A section of Sunburst revision 37, or Shepatin revision 0.
000005:                                                                                                  ##              It is part of an early development version of the software
000006:                                                                                                  ##              for Apollo Guidance Computer (AGC) on the unmanned Lunar
000007:                                                                                                  ##              Module (LM) flight Apollo 5. Sunburst 37 was the program
000008:                                                                                                  ##              upon which Don Eyles's offline development program Shepatin
000009:                                                                                                  ##              was based; the listing herein transcribed was actually for
000010:                                                                                                  ##              the equivalent revision 0 of Shepatin.
000011:                                                                                                  ##              This file is intended to be a faithful transcription, except
000012:                                                                                                  ##              that the code format has been changed to conform to the
000013:                                                                                                  ##              requirements of the yaYUL assembler rather than the
000014:                                                                                                  ##              original YUL assembler.
000015:                                                                                                  ## Reference:   pp. 416-429
000016:                                                                                                  ## Assembler:   yaYUL
000017:                                                                                                  ## Contact:     Ron Burkey <info@sandroid.org>.
000018:                                                                                                  ## Website:     www.ibiblio.org/apollo/index.html
000019:                                                                                                  ## Mod history: 2017-05-24 MAS  Created from Sunburst 120.
000020:                                                                                                  ##              2017-06-10 MAS  Updated for Sunburst 37.
000021:


000023: 23,2520                                           BANK     23
000024: 23,2520  E5,1400                                  EBANK=   XSM
000025:
000026:
000027:
000028: 23,2520           00006        SILVER             EXTEND
000029: 23,2521           23546                           QXCH     QPLACE                                #   SHOULD BE ADDRESS OF STRTWACH
000030:
000031: 23,2522           11614                           CCS      CALCDIR                               #  2F COMMAND IS POSITIVE THE MINUS TORQ
000032: 23,2523           37745                           CAF      BIT9                                  #   WINDING IS TO BE ENERGIZED
000033: 23,2524           02526                           TC       +2
000034: 23,2525           02530                           TC       TORK                                  #   COMMAND IS NEG SO USE PLUS WINDING
000035: 23,2526           00006                           EXTEND
000036: 23,2527           05014                           WOR      14C                                   #   SELECTS THE MINUS WINDING
000037:
000038: 23,2530           37735        TORK               CAF      POSMAX
000039: 23,2531           54047                           TS       GYROCTR                               #  16383 PULSES =2.8125 DEG LESS ONE PULSE
000040:
000041: 23,2532           11616                           CCS      GYTOBETQ                              #  C(K)= 1 FOR X, -0 FOR Y, -1FOR Z.
000042: 23,2533           02537                           TC       SELECTX
000043: 23,2534           04725                           TC       CCSHOLE
000044: 23,2535           02547                           TC       SELECTZ
000045: 23,2536           02543                           TC       SELECTY
000046: 23,2537           32553        SELECTX            CAF      TORKX                                 #  BBITS 7AND 10 IN CHANNEL 14 WILL
000047: 23,2540           00006                           EXTEND                                         #   SELECT X GYRO AND TURN ON BCSW 1/3200
000048: 23,2541           05014                           WOR      14C                                   #  SSEC LATER BY CHANNEL OUTPUT DESIGN.....
000049:
000050: 23,2542           01546                           TC       QPLACE
000051:
000052: 23,2543           32554        SELECTY            CAF      TORKY                                 #  BBITS 8 AND 10 TO TORQ Y GYRO
000053: 23,2544           00006                           EXTEND
000054: 23,2545           05014                           WOR      14C
000055: 23,2546           01546                           TC       QPLACE
000056:
000057: 23,2547           32555        SELECTZ            CAF      TORKZ                                 #  BBITS 7,8AND 10 TO TORQZ GYRO
000058: 23,2550           00006                           EXTEND
000059: 23,2551           05014                           WOR      14C
000060: 23,2552           01546                           TC       QPLACE
000061: 23,2553           01100        TORKX              OCT      01100
000062: 23,2554           01200        TORKY              OCT      01200
000063: 23,2555           01300        TORKZ              OCT      01300
000064:


000066: 23,2556           37761        SAMODCHK           CAF      ZERO
000067: 23,2557           55563                           TS       TESTNO
000068: 23,2560           55550                           TS       RUN
000069:
000070: 23,2561           03152                           TC       ZEROMODE
000071: 23,2562           03176                           TC       OPRTRDLY
000072:
000073: 23,2563           03256                           TC       COARZERO
000074:
000075: 23,2564           03162                           TC       ZEROMAIN
000076: 23,2565           03176                           TC       OPRTRDLY
000077:
000078: 23,2566           03152                           TC       ZEROMODE
000079:
000080: 23,2567           37761                           CAF      ZERO
000081: 23,2570           03104                           TC       THETADLD
000082:
000083: 23,2571           33333                           CAF      45ANG
000084: 23,2572           03104                           TC       THETADLD
000085:
000086: 23,2573           03272                           TC       FNZEROFN
000087:
000088: 23,2574           33335                           CAF      90ANG
000089: 23,2575           03104                           TC       THETADLD
000090:
000091: 23,2576           33336                           CAF      135ANG
000092: 23,2577           03104                           TC       THETADLD
000093:
000094: 23,2600           37761                           CAF      ZERO
000095: 23,2601           03106                           TC       THETADLD   +2
000096:
000097: 23,2602           03272                           TC       FNZEROFN
000098:
000099: 23,2603           33341                           CAF      180ANG
000100: 23,2604           54400                           TS       THETAD
000101: 23,2605           54401                           TS       THETAD     +1
000102: 23,2606           33334                           CAF      71ANG
000103: 23,2607           03106                           TC       THETADLD   +2
000104:
000105: 23,2610           33342                           CAF      225ANG
000106: 23,2611           03104                           TC       THETADLD
000107:
000108: 23,2612           37761                           CAF      ZERO
000109: 23,2613           03104                           TC       THETADLD
000110:
000111: 23,2614           37754                           CAF      TWO
000112: 23,2615           55672        CHK2               TS       CDUNDX
000113:
000114: 23,2616           33343                           CAF      170ANG
000115: 23,2617           51672                           INDEX    CDUNDX
000116:


000118: 23,2620           54400                           TS       THETAD
000119:
000120: 23,2621           05224                           TC       BANKCALL
000121: 23,2622           26065                           CADR     IMUCOARS
000122:
000123: 23,2623           33337                           CAF      10ANG
000124: 23,2624           03025                           TC       CDURATE
000125:
000126: 23,2625           33340                           CAF      160ANG
000127: 23,2626           03025                           TC       CDURATE
000128:
000129: 23,2627           03050                           TC       CALCRATE
000130:
000131: 23,2630           05224                           TC       BANKCALL
000132:
000133: 23,2631           26762                           CADR     IMUSTALL
000134: 23,2632           12770                           TCF      ENDTST03
000135:
000136: 23,2633           03256                           TC       COARZERO
000137:
000138: 23,2634           11672                           CCS      CDUNDX
000139: 23,2635           12615                           TCF      CHK2
000140:
000141: 23,2636           43333                           CS       45ANG
000142: 23,2637           03104                           TC       THETADLD
000143:
000144: 23,2640           03272                           TC       FNZEROFN
000145:
000146: 23,2641           43336                           CS       135ANG
000147: 23,2642           54400                           TS       THETAD
000148: 23,2643           54401                           TS       THETAD     +1
000149: 23,2644           43334                           CS       71ANG
000150: 23,2645           03106                           TC       THETADLD   +2
000151:
000152: 23,2646           37761                           CAF      ZERO
000153: 23,2647           03106                           TC       THETADLD   +2
000154:
000155: 23,2650           03272                           TC       FNZEROFN
000156:
000157: 23,2651           03256                           TC       COARZERO
000158:
000159: 23,2652           03217                           TC       FINEZERO
000160: 23,2653           03217                           TC       FINEZERO
000161:
000162: 23,2654           43347        CHK5               CS       4+6BITS
000163: 23,2655           00006                           EXTEND
000164: 23,2656           03012                           WAND     12
000165:
000166: 23,2657           37753                           CAF      FOUR
000167: 23,2660           05701                           TC       WAITLIST
000168: 23,2661  E5,1400                                  EBANK=   XSM


000170: 23,2661           02665 46005                     2CADR    ECE1
000171:
000172: 23,2663           33357                           CAF      ECE2CADR
000173: 23,2664           05563                           TC       JOBSLEEP
000174:
000175: 23,2665           33357        ECE1               CAF      ECE2CADR
000176: 23,2666           05567                           TC       JOBWAKE
000177: 23,2667           05745                           TC       TASKOVER
000178:
000179: 23,2670           46276        ECE2               CS       SIX
000180: 23,2671           61563                           AD       TESTNO
000181: 23,2672           00006                           EXTEND
000182: 23,2673           62675                           BZMF     +2
000183: 23,2674           12716                           TCF      CHKX
000184:
000185: 23,2675           51563                           INDEX    TESTNO
000186: 23,2676           32772                           CAF      ERCTRANG
000187: 23,2677           54400                           TS       THETAD
000188: 23,2700           54401                           TS       THETAD     +1
000189:
000190: 23,2701           54402                           TS       THETAD     +2
000191:
000192: 23,2702           37750                           CAF      BIT6
000193: 23,2703           00006                           EXTEND
000194: 23,2704           05012                           WOR      12
000195:
000196: 23,2705           00004                           INHINT
000197: 23,2706           37754                           CAF      TWO
000198: 23,2707           05701                           TC       WAITLIST
000199: 23,2710  E5,1400                                  EBANK=   XSM
000200: 23,2710           02620 22005                     2CADR    ATTCK2
000201:
000202: 23,2712           00003                           RELINT
000203:
000204: 23,2713           03176                           TC       OPRTRDLY
000205:
000206: 23,2714           25563                           INCR     TESTNO
000207:
000208: 23,2715           12654                           TCF      CHK5
000209:
000210: 23,2716           03256        CHKX               TC       COARZERO
000211:
000212: 23,2717           37761                           CAF      ZERO
000213:
000214: 23,2720           55563                           TS       TESTNO
000215:
000216: 23,2721           05224                           TC       BANKCALL
000217: 23,2722           20247                           CADR     RRZERO
000218: 23,2723           05224                           TC       BANKCALL
000219: 23,2724           26756                           CADR     RADSTALL
000220: 23,2725           12770                           TCF      ENDTST03
000221:


000223: 23,2726           51563        CHK6               INDEX    TESTNO
000224: 23,2727           33001                           CAF      RADECNTR
000225:
000226: 23,2730           54424                           TS       TANG       +1
000227: 23,2731           54423                           TS       TANG
000228:
000229: 23,2732           06103                           TC       INTPRET
000230: 23,2733           77624                           CALL
000231: 23,2734           20363                                    RRDESNB
000232:
000233: 23,2735           05224                           TC       BANKCALL
000234: 23,2736           26756                           CADR     RADSTALL
000235: 23,2737           12770                           TCF      ENDTST03
000236:
000237: 23,2740           03171                           TC       RROPRDLY
000238:
000239: 23,2741           25563                           INCR     TESTNO
000240:
000241: 23,2742           47753                           CS       FOUR
000242: 23,2743           61563                           AD       TESTNO
000243: 23,2744           00006                           EXTEND
000244: 23,2745           62726                           BZMF     CHK6
000245:
000246: 23,2746           37761                           CAF      ZERO
000247: 23,2747           55563                           TS       TESTNO
000248: 23,2750           54353                           TS       ALTRATE
000249:
000250: 23,2751           54351                           TS       ALT
000251: 23,2752           54352                           TS       ALT        +1
000252:
000253: 23,2753           47755                           CS       ONE
000254: 23,2754           54350                           TS       DIDFLG
000255:
000256: 23,2755           51563        CHK7               INDEX    TESTNO
000257: 23,2756           33006                           CAF      RRRATFPS
000258: 23,2757           54357                           TS       FORVEL
000259: 23,2760           54360                           TS       LATVEL
000260:
000261: 23,2761           03171                           TC       RROPRDLY
000262:
000263: 23,2762           25563                           INCR     TESTNO
000264:
000265: 23,2763           47751                           CS       BIT5
000266: 23,2764           67754                           AD       TWO
000267: 23,2765           61563                           AD       TESTNO
000268: 23,2766           00006                           EXTEND
000269: 23,2767           62755                           BZMF     CHK7
000270:
000271: 23,2770           05224        ENDTST03           TC       BANKCALL
000272: 23,2771           30747                           CADR     ENDTEST
000273:


000275: 23,2772           03013        ERCTRANG           OCT      03013
000276: 23,2773           02660                           OCT      02660
000277: 23,2774           01042                           OCT      01042
000278: 23,2775           00000                           OCT      00000
000279: 23,2776           76736                           OCT      76736
000280: 23,2777           75120                           OCT      75120
000281: 23,3000           74765                           OCT      74765
000282:
000283:
000284:
000285:
000286:
000287: 23,3001           01463        RADECNTR           OCT      01463
000288: 23,3002           01042                           OCT      01042
000289: 23,3003           00000                           OCT      00000
000290: 23,3004           76736                           OCT      76736
000291: 23,3005           76315                           OCT      76315
000292:
000293:
000294:
000295:
000296:
000297: 23,3006           00000        RRRATFPS           OCT      00000
000298: 23,3007           00001                           OCT      00001
000299: 23,3010           00002                           OCT      00002
000300: 23,3011           00004                           OCT      00004
000301: 23,3012           00010                           OCT      00010
000302: 23,3013           00020                           OCT      00020
000303: 23,3014           00040                           OCT      00040
000304: 23,3015           00100                           OCT      00100
000305: 23,3016           00200                           OCT      00200
000306: 23,3017           00237                           OCT      00237
000307:
000308: 23,3020           00400                           OCT      00400
000309: 23,3021           00545                           OCT      00545
000310: 23,3022           00544                           OCT      00544
000311: 23,3023           77540                           OCT      77540
000312: 23,3024           77232                           OCT      77232
000313:


000315: 23,3025           00006        CDURATE            EXTEND
000316: 23,3026           23546                           QXCH     QPLACE
000317:
000318: 23,3027           55577                           TS       CDULIMIT
000319:
000320: 23,3030           10067                           CCS      NEWJOB
000321: 23,3031           05550                           TC       CHANG1
000322:
000323: 23,3032           41577                           CS       CDULIMIT
000324: 23,3033           51672                           INDEX    CDUNDX
000325: 23,3034           60032                           AD       CDUX                                  #  CATCH FIRST PULSE
000326: 23,3035           00006                           EXTEND
000327: 23,3036           63030                           BZMF     CDURATE    +3                         #  LOOK AGAIN
000328:
000329: 23,3037           51672                           INDEX    CDUNDX
000330: 23,3040           30032                           CAE      CDUX
000331: 23,3041           57575                           XCH      CDUREADF                              #  CDU FINAL READING
000332: 23,3042           57576                           XCH      CDUREADI                              #  CDU INITIAL READING
000333:
000334: 23,3043           05015                           TC       FINETIME
000335: 23,3044           53573                           DXCH     CDUTIMEF                              #  DP FINAL TIME
000336: 23,3045           53571                           DXCH     CDUTIMEI                              #  DP INITIAL READING
000337:
000338: 23,3046           00003                           RELINT
000339: 23,3047           01546                           TC       QPLACE
000340:
000341:
000342:
000343:
000344:
000345: 23,3050           00006        CALCRATE           EXTEND
000346: 23,3051           23546                           QXCH     QPLACE
000347:
000348: 23,3052           53576                           DXCH     CDUREADF
000349: 23,3053           00006                           EXTEND
000350: 23,3054           20001                           MSU      L
000351: 23,3055           55677                           TS       CDUANG
000352:
000353: 23,3056           06103                           TC       INTPRET
000354: 23,3057           45345                           DLOAD    DSU
000355: 23,3060           02573                                    CDUTIMEF
000356: 23,3061           02571                                    CDUTIMEI
000357: 23,3062           67206                           PUSH     SLOAD
000358: 23,3063           02700                                    CDUANG
000359: 23,3064           56261                           SR       DDV
000360: 23,3065           20617                                    14D
000361: 23,3066           47005                           DMP      RTB
000362: 23,3067           07363                                    DEG/SEC
000363: 23,3070           33565                                    SGNAGREE
000364: 23,3071           00343                           STORE    DSPTEM2
000365:


000367: 23,3072           77776                           EXIT
000368:
000369: 23,3073           33354        RATEDSP            CAF      V06N66X
000370: 23,3074           04646                           TC       NVSBWAIT
000371: 23,3075           04611                           TC       FLASHON
000372: 23,3076           04464                           TC       ENDIDLE
000373: 23,3077           12770                           TCF      ENDTST03
000374: 23,3100           13102                           TCF      +2
000375: 23,3101           13073                           TCF      RATEDSP
000376:
000377: 23,3102           25550                           INCR     RUN
000378: 23,3103           01546                           TC       QPLACE
000379:


000381: 23,3104           54400        THETADLD           TS       THETAD
000382: 23,3105           54401                           TS       THETAD     +1
000383:
000384: 23,3106           54402                           TS       THETAD     +2
000385:
000386: 23,3107           00006                           EXTEND
000387: 23,3110           23546                           QXCH     QPLACE
000388:
000389: 23,3111           37757                           CAF      SEVEN
000390: 23,3112           55551        THLD1              TS       STOREPL
000391:
000392: 23,3113           05224                           TC       BANKCALL
000393: 23,3114           26065                           CADR     IMUCOARS
000394: 23,3115           05224                           TC       BANKCALL
000395: 23,3116           26762                           CADR     IMUSTALL
000396: 23,3117           12770                           TCF      ENDTST03
000397:
000398: 23,3120           11551                           CCS      STOREPL
000399: 23,3121           03112                           TC       THLD1
000400:
000401: 23,3122           03176                           TC       OPRTRDLY
000402:
000403: 23,3123           01546                           TC       QPLACE
000404:
000405:
000406:
000407:
000408:
000409: 23,3124           00006        FINEALGN           EXTEND
000410: 23,3125           23546                           QXCH     QPLACE
000411:
000412: 23,3126           05224                           TC       BANKCALL
000413: 23,3127           26251                           CADR     IMUFINE
000414: 23,3130           05224                           TC       BANKCALL
000415: 23,3131           26762                           CADR     IMUSTALL
000416: 23,3132           12770                           TCF      ENDTST03
000417:
000418: 23,3133           01546                           TC       QPLACE
000419:


000421: 23,3134           00006        CH30DSPY           EXTEND
000422: 23,3135           23546                           QXCH     QPLACE
000423:
000424: 23,3136           33345                           CAF      OCT30
000425: 23,3137           54146                           TS       MPAC       +2
000426: 23,3140           33350                           CAF      V01N10X
000427: 23,3141           04646                           TC       NVSBWAIT
000428: 23,3142           04611                           TC       FLASHON
000429:
000430: 23,3143           04464                           TC       ENDIDLE
000431: 23,3144           12770                           TCF      ENDTST03
000432: 23,3145           13147                           TCF      +2
000433: 23,3146           13136                           TCF      CH30DSPY   +2
000434:
000435: 23,3147           04615                           TC       FLASHOFF
000436: 23,3150           25550                           INCR     RUN
000437: 23,3151           01546                           TC       QPLACE
000438:
000439:
000440:
000441:
000442:
000443: 23,3152           00006        ZEROMODE           EXTEND
000444: 23,3153           23546                           QXCH     QPLACE
000445:
000446: 23,3154           05224                           TC       BANKCALL
000447: 23,3155           26000                           CADR     IMUZERO
000448: 23,3156           05224                           TC       BANKCALL
000449: 23,3157           26762                           CADR     IMUSTALL
000450: 23,3160           12770                           TCF      ENDTST03
000451:
000452: 23,3161           01546                           TC       QPLACE
000453:
000454:
000455:
000456:
000457:
000458: 23,3162           43347        ZEROMAIN           CS       4+6BITS
000459: 23,3163           00006                           EXTEND
000460: 23,3164           03012                           WAND     12
000461:
000462: 23,3165           37751                           CAF      BIT5
000463: 23,3166           00006                           EXTEND
000464: 23,3167           05012                           WOR      12
000465:
000466: 23,3170           00002                           TC       Q
000467:


000469: 23,3171           00006        RROPRDLY           EXTEND
000470: 23,3172           23545                           QXCH     QPLAC
000471:
000472: 23,3173           25550                           INCR     RUN
000473:
000474: 23,3174           33353                           CAF      V06N40X
000475: 23,3175           13202                           TCF      OPRTRDLY   +4
000476:
000477:
000478:
000479:
000480:
000481: 23,3176           00006        OPRTRDLY           EXTEND
000482: 23,3177           23545                           QXCH     QPLAC
000483:
000484: 23,3200           25550                           INCR     RUN
000485: 23,3201           33352                           CAF      V06N20X
000486: 23,3202           04646                           TC       NVSBWAIT
000487: 23,3203           33355                           CAF      V33N00X
000488: 23,3204           04646                           TC       NVSBWAIT
000489: 23,3205           31550                           CA       RUN
000490: 23,3206           73344                           MASK     6LOW
000491: 23,3207           04646                           TC       NVSBWAIT
000492: 23,3210           04611                           TC       FLASHON
000493: 23,3211           04464                           TC       ENDIDLE
000494: 23,3212           12770                           TCF      ENDTST03
000495: 23,3213           13215                           TCF      +2
000496: 23,3214           13201                           TCF      OPRTRDLY   +3
000497:
000498: 23,3215           04615                           TC       FLASHOFF
000499: 23,3216           01545                           TC       QPLAC
000500:
000501: 23,3217           00006        FINEZERO           EXTEND
000502: 23,3220           23545                           QXCH     QPLAC
000503:
000504: 23,3221           05224                           TC       BANKCALL
000505: 23,3222           26000                           CADR     IMUZERO
000506:
000507: 23,3223           37754                           CAF      TWO
000508: 23,3224           55512                           TS       EROPTN
000509: 23,3225           37753                           CAF      FOUR
000510: 23,3226           55544                           TS       POSITON
000511:
000512: 23,3227           00004                           INHINT
000513: 23,3230           47744                           CS       BIT10
000514: 23,3231           70074                           MASK     STATE
000515: 23,3232           67744                           AD       BIT10
000516: 23,3233           54074                           TS       STATE
000517: 23,3234           00003                           RELINT
000518:
000519:                                                                                                  #  Page 427
000520: 23,3235           05224                           TC       BANKCALL
000521: 23,3236           30762                           CADR     LEMLAB
000522:
000523: 23,3237           04633        SAMODRTN           TC       GRABWAIT
000524:
000525: 23,3240           03162                           TC       ZEROMAIN
000526:
000527: 23,3241           00004                           INHINT
000528: 23,3242           37743                           CAF      BIT11
000529: 23,3243           05701                           TC       WAITLIST
000530: 23,3244  E5,1400                                  EBANK=   XSM
000531: 23,3244           03250 46005                     2CADR    DSPY30
000532:
000533: 23,3246           33356                           CAF      CH30WAKE
000534: 23,3247           05563                           TC       JOBSLEEP
000535:
000536: 23,3250           33356        DSPY30             CAF      CH30WAKE
000537: 23,3251           05567                           TC       JOBWAKE
000538: 23,3252           05745                           TC       TASKOVER
000539:
000540: 23,3253           03134        DSPYCH30           TC       CH30DSPY
000541: 23,3254           03152                           TC       ZEROMODE
000542:
000543: 23,3255           01545                           TC       QPLAC
000544:
000545:
000546:
000547: 23,3256           37761        COARZERO           CAF      ZERO
000548: 23,3257           54400                           TS       THETAD
000549: 23,3260           54401                           TS       THETAD     +1
000550: 23,3261           54402                           TS       THETAD     +2
000551:
000552: 23,3262           00006                           EXTEND
000553: 23,3263           23546                           QXCH     QPLACE
000554:
000555: 23,3264           05224                           TC       BANKCALL
000556: 23,3265           26065                           CADR     IMUCOARS
000557: 23,3266           05224                           TC       BANKCALL
000558: 23,3267           26762                           CADR     IMUSTALL
000559: 23,3270           12770                           TCF      ENDTST03
000560:
000561: 23,3271           01546                           TC       QPLACE
000562:


000564: 23,3272           00006        FNZEROFN           EXTEND
000565: 23,3273           23545                           QXCH     QPLAC
000566:
000567: 23,3274           03124                           TC       FINEALGN
000568:
000569: 23,3275           30032                           CAE      CDUX
000570: 23,3276           55575                           TS       CDUREADF
000571: 23,3277           30033                           CAE      CDUY
000572: 23,3300           55576                           TS       CDUREADI
000573: 23,3301           30034                           CAE      CDUZ
000574: 23,3302           55577                           TS       CDULIMIT
000575:
000576: 23,3303           03152                           TC       ZEROMODE
000577:
000578: 23,3304           31575        FZF2               CAE      CDUREADF
000579: 23,3305           00006                           EXTEND
000580: 23,3306           20032                           MSU      CDUX
000581: 23,3307           54337                           TS       DSPTEM1
000582:
000583: 23,3310           31576                           CAE      CDUREADI
000584: 23,3311           00006                           EXTEND
000585: 23,3312           20033                           MSU      CDUY
000586: 23,3313           54340                           TS       DSPTEM1    +1
000587:
000588: 23,3314           31577                           CAE      CDULIMIT
000589: 23,3315           00006                           EXTEND
000590:
000591: 23,3316           20034                           MSU      CDUZ
000592: 23,3317           54341                           TS       DSPTEM1    +2
000593:
000594: 23,3320           33351        FZFDSP             CAF      V05N30X
000595: 23,3321           04646                           TC       NVSBWAIT
000596: 23,3322           04611                           TC       FLASHON
000597: 23,3323           04464                           TC       ENDIDLE
000598: 23,3324           12770                           TCF      ENDTST03
000599: 23,3325           13327                           TCF      +2
000600: 23,3326           13320                           TCF      FZFDSP
000601:
000602: 23,3327           25550                           INCR     RUN
000603: 23,3330           01545                           TC       QPLAC
000604:


000606: 23,3331           00133        1ANG               OCT      00133
000607: 23,3332           06000        33.75ANG           OCT      06000
000608: 23,3333           10000        45ANG              OCT      10000
000609: 23,3334           14477        71ANG              OCT      14477
000610: 23,3335           20000        90ANG              OCT      20000
000611: 23,3336           30000        135ANG             OCT      30000
000612: 23,3337           01616        10ANG              OCT      01616
000613: 23,3340           34344        160ANG             OCT      34344
000614:
000615: 23,3341           40000        180ANG             OCT      40000
000616: 23,3342           50000        225ANG             OCT      50000
000617: 23,3343           36162        170ANG             OCT      36162
000618:
000619: 23,3344           00077        6LOW               OCT      77
000620: 23,3345           00030        OCT30              OCT      30
000621: 23,3346           00454        3SEC               DEC      300        B-14
000622: 23,3347           00050        4+6BITS            OCT      00050
000623:
000624: 23,3350           00110        V01N10X            OCT      00110
000625: 23,3351           00530        V05N30X            OCT      00530
000626: 23,3352           00620        V06N20X            OCT      00620
000627: 23,3353           00640        V06N40X            OCT      00640
000628: 23,3354           00666        V06N66X            OCT      00666
000629: 23,3355           03300        V33N00X            OCT      03300
000630:
000631: 23,3356           47253        CH30WAKE           CADR     DSPYCH30
000632: 23,3357           46670        ECE2CADR           CADR     ECE2
000633: 23,3360           47304        FZF2CADR           CADR     FZF2
000634: 23,3361           02500        OGCECADR           ECADR    OGC
000635:
000636: 23,3362           00043 05000  DEG/SEC            2DEC     576000     B-28

End of include-file IMU_PERFORMANCE_TESTS_3.agc.  Parent file is MAIN.agc


