
Source Code


000002:                                                                                                  ## Copyright:   Public domain.
000003:                                                                                                  ## Filename:    INFLIGHT_ALIGNMENT_ROUTINES.agc
000004:                                                                                                  ## Purpose:     A section of Sunburst revision 37, or Shepatin revision 0.
000005:                                                                                                  ##              It is part of an early development version of the software
000006:                                                                                                  ##              for Apollo Guidance Computer (AGC) on the unmanned Lunar
000007:                                                                                                  ##              Module (LM) flight Apollo 5. Sunburst 37 was the program
000008:                                                                                                  ##              upon which Don Eyles's offline development program Shepatin
000009:                                                                                                  ##              was based; the listing herein transcribed was actually for
000010:                                                                                                  ##              the equivalent revision 0 of Shepatin.
000011:                                                                                                  ##              This file is intended to be a faithful transcription, except
000012:                                                                                                  ##              that the code format has been changed to conform to the
000013:                                                                                                  ##              requirements of the yaYUL assembler rather than the
000014:                                                                                                  ##              original YUL assembler.
000015:                                                                                                  ## Reference:   pp. 322-341
000016:                                                                                                  ## Assembler:   yaYUL
000017:                                                                                                  ## Contact:     Ron Burkey <info@sandroid.org>.
000018:                                                                                                  ## Website:     www.ibiblio.org/apollo/index.html
000019:                                                                                                  ## Mod history: 2017-05-24 MAS  Created from Sunburst 120.
000020:                                                                                                  ##              2017-06-06 HG   Transcribed
000021:                                                                                                  ##              2017-06-22 RSB  Proofed comment text with
000022:                                                                                                  ##                              octopus/ProoferComments.
000023:


000025: 15,2472                                           BANK     15
000026: 15,2472  E5,1400                                  EBANK=   XSM
000027:
000028:
000029:                                                                                                  #  CALCGTA COMPUTES THE GYRO TORQUE ANGLES REQUIRED TO BRING THE STABLE MEMBER INTO THE DESIRED ORIENTATION.
000030:
000031:                                                                                                  #  THE INPUT IS THE DESIRED STABLE MEMBER COORDINATES REFERRED TO PRESENT STABLE MEMBER COORDINATES. THE THREE
000032:                                                                                                  #  HALF-UNIT VECTORS ARE STORED AT XDC, YDC, AND ZDC.
000033:
000034:                                                                                                  #  THE OUTPUTS ARE THE THREE GYRO TORQUING ANGLES TO BE APPLIED TO THE Y, Z, AND X GYROS AND ARE STORED DP AT IGC,
000035:                                                                                                  #  MGC, AND OGC RESPECTIVELY. ANGLES ARE SCALED PROPERLY FOR IMUPULSE.
000036:
000037:
000038: 15,2472           71220        CALCGTA            ITA      DLOAD                                 #  PUSHDOWN 00,02,16D,18D,22D-26D,32D-36D
000039: 15,2473           00051                                    S2                                    #  XDC = (XD1 XD2 XD3)
000040: 15,2474           02423                                    XDC                                   #  YDC = (YD1 YD2 YD3)
000041: 15,2475           65325                           PDDL     PDDL                                  #  ZDC = (ZD1 ZD2 ZD3)
000042: 15,2476           33152                                    ZERODP
000043: 15,2477           02427                                    XDC        +4
000044: 15,2500           55476                           DCOMP    VDEF
000045: 15,2501           77656                           UNIT
000046: 15,2502           14027                           STODL    ZPRIME                                #  ZP = UNIT(-XD3 0 XD1) = (ZP1 ZP2 ZP3)
000047: 15,2503           00027                                    ZPRIME
000048:
000049: 15,2504           77742                           SR1
000050: 15,2505           14023                           STODL    SINTH                                 #  SIN(IGC) = ZP1
000051: 15,2506           00033                                    ZPRIME     +4
000052: 15,2507           77742                           SR1
000053: 15,2510           34021                           STCALL   COSTH                                 #  COS(IGC) = ZP3
000054: 15,2511           32543                                    ARCTRIG
000055:
000056: 15,2512           16503                           STODL    IGC                                   #  Y GYRO TORQUING ANGLE   FRACTION OF REV.
000057: 15,2513           02425                                    XDC        +2
000058: 15,2514           77742                           SR1
000059: 15,2515           14023                           STODL    SINTH                                 #  SIN(MGC) = XD2
000060: 15,2516           00027                                    ZPRIME
000061:
000062: 15,2517           65205                           DMP      PDDL
000063: 15,2520           02427                                    XDC        +4                         #  PD00 = (ZP1)(XD3)
000064: 15,2521           00033                                    ZPRIME     +4
000065:
000066: 15,2522           45205                           DMP      DSU
000067: 15,2523           02423                                    XDC                                   #  MPAC = (ZP3)(XD1)
000068: 15,2524           77626                           STADR
000069: 15,2525           43756                           STCALL   COSTH                                 #  COS(MGC) = MPAC - PD00
000070: 15,2526           32543                                    ARCTRIG
000071:
000072: 15,2527           26505                           STOVL    MGC                                   #  Z GYRO TORQUING ANGLE   FRACTION OF REV.
000073:


000075: 15,2530           00027                                    ZPRIME
000076: 15,2531           77641                           DOT
000077: 15,2532           02437                                    ZDC
000078: 15,2533           24021                           STOVL    COSTH                                 #  COS(OGC) = ZP . ZDC
000079: 15,2534           00027                                    ZPRIME
000080: 15,2535           77641                           DOT
000081: 15,2536           02431                                    YDC
000082: 15,2537           34023                           STCALL   SINTH                                 #  SIN(OGC) = ZP . YDC
000083: 15,2540           32543                                    ARCTRIG
000084:
000085: 15,2541           36501                           STCALL   OGC                                   #  X GYRO TORQUING ANGLE   FRACTION OF REV.
000086: 15,2542           00051                                    S2
000087:


000089:                                                                                                  #  ARCTRIG COMPUTES AN ANGLE GIVEN THE SINE AND COSINE OF THIS ANGLE.
000090:
000091:                                                                                                  #  THE INPUTS ARE SIN/4 AND COS/4 STORED DP AT SINTH AND COSTH.
000092:
000093:                                                                                                  #  THE OUTPUT IS THE CALCULATED ANGLE BETWEEN +.5 AND -.5 REVOLUTIONS AND STORED AT THETA. THE OUTPUT IS ALSO
000094:                                                                                                  #  AVAILABLE AT MPAC.
000095:
000096: 15,2543           51545        ARCTRIG            DLOAD    ABS                                   #  PUSHDOWN  16D,18D,20D,22D-26D
000097: 15,2544           00023                                    SINTH
000098: 15,2545           50025                           DSU      BMN
000099: 15,2546           33140                                    QTSN45                                #  ABS(SIN/4) - SIN(45)/4
000100: 15,2547           32556                                    TRIG1                                 #  IF (-45,45) OR (135,-135)
000101:
000102:
000103:
000104: 15,2550           72545                           DLOAD    SL1                                   #  (45,135) OR (-135,-45)
000105: 15,2551           00021                                    COSTH
000106: 15,2552           75326                           ACOS     SIGN
000107: 15,2553           00023                                    SINTH
000108: 15,2554           00025                           STORE    THETA                                 #  X = ARCCOS(COS) WITH SIGN(SIN)
000109: 15,2555           77616                           RVQ
000110:
000111:
000112:
000113: 15,2556           72545        TRIG1              DLOAD    SL1                                   #  (-45,45) OR (135,-135)
000114: 15,2557           00023                                    SINTH
000115: 15,2560           77736                           ASIN
000116: 15,2561           14025                           STODL    THETA                                 #  X = ARCSIN(SIN) WITH SIGN(SIN)
000117: 15,2562           00021                                    COSTH
000118: 15,2563           77640                           BMN
000119: 15,2564           32567                                    TRIG2                                 #  IF (135,-135)
000120:
000121: 15,2565           43545                           DLOAD    RVQ
000122: 15,2566           00025                                    THETA                                 #  X = ARCSIN(SIN)   (-45,45)
000123:
000124:
000125:
000126: 15,2567           75345        TRIG2              DLOAD    SIGN                                  #  (135,-135)
000127: 15,2570           33142                                    HALFDP
000128: 15,2571           00023                                    SINTH
000129: 15,2572           77625                           DSU
000130: 15,2573           00025                                    THETA
000131: 15,2574           00025                           STORE    THETA                                 #  X = .5 WITH SIGN(SIN) - ARCSIN(SIN)
000132: 15,2575           77616                           RVQ                                            #                   (+) - (+) OR (-) - (-)
000133:


000135:                                                                                                  #  SMNB TRANSFORMS A STAR DIRECTION FROM STABLE MEMBER TO NAVIGATION BASE COORDINATES.
000136:
000137:                                                                                                  #  THE INPUTS ARE  1) THE STAR VECTOR REFERRED TO PRESENT STABLE MEMBER COORDINATES STORED AT LOCATION 32D OF THE
000138:                                                                                                  #  VAC AREA.  2) THE GIMBAL ANGLES (CDUY,CDUZ,CDUX) STORED AT ALTERNATING LOCATIONS RESPECTIVELY. THE ANGLES ARE
000139:                                                                                                  #  USUALLY STORED AT LOCATIONS 2,4, AND 6 OF THE MARK VAC AREA. THEY CAN BE STORED AT LOCATIONS 20,22, AND 24 OF
000140:                                                                                                  #  YOUR JOB VAC AREA.  3) THE BASE ADDRESS OF THE GIMBAL ANGLES STORED SP AT LOCATION S1 OF YOUR JOB VAC AREA.
000141:
000142:                                                                                                  #  THE OUTPUT IS THE STAR VECTOR REFERRED TO NAVIGATION BASE COORDINATES STORED AT 32D OF THE VAC AREA. THE OUTPUT
000143:
000144:                                                                                                  #  IS ALSO AVAILABLE AT MPAC.
000145:
000146:
000147:
000148: 15,2576           43020        SMNB               ITA      CLEAR                                 #  PUSHDOWN 00,02,04-10D,30D,32D-36D
000149: 15,2577           00051                                    S2
000150: 15,2600           00264                                    NBSMBIT                               #  SET NBSMBIT = 0
000151:
000152: 15,2601           77170        SMNB1              AXT,1    AXT,2                                 #  ROTATE X,Z, ABOUT Y
000153: 15,2602           00004                                    4
000154: 15,2603           00000                                    0
000155: 15,2604           77624                           CALL
000156: 15,2605           32646                                    AXISROT
000157:
000158: 15,2606           77170                           AXT,1    AXT,2                                 #  ROTATE Y,X ABOUT Z
000159: 15,2607           00002                                    2
000160: 15,2610           00004                                    4
000161: 15,2611           77624                           CALL
000162: 15,2612           32646                                    AXISROT
000163:
000164: 15,2613           77170                           AXT,1    AXT,2                                 #  ROTATE Z,Y ABOUT X
000165: 15,2614           00000                                    0
000166: 15,2615           00002                                    2
000167: 15,2616           77624                           CALL
000168: 15,2617           32646                                    AXISROT
000169:
000170: 15,2620           77650                           GOTO
000171: 15,2621           00051                                    S2
000172:


000174:
000175:                                                                                                  #  NBSM TRANSFORMS A STAR DIRECTION FROM NAVIGATION BASE TO STABLE MEMBER COORDINATES.
000176:
000177:                                                                                                  #  THE INPUTS ARE  1) THE STAR VECTOR REFERRED TO NAVIGATION BASE COORDINATES STORED AT LOCATION 32D OF THE VAC
000178:                                                                                                  #  AREA.  2) THE GIMBAL ANGLES (CDUY,CDUZ,CDUX) STORED AT ALTERNATING LOCATIONS RESPECTIVELY. THE ANGLES ARE
000179:                                                                                                  #  USUALLY STORED AT LOCATIONS 2,4, AND 6 OF THE MARK VAC AREA. THEY CAN BE STORED AT LOCATIONS 20,22, AND 24 OF
000180:                                                                                                  #  YOUR JOB VAC AREA.  3) THE BASE ADDRESS OF THE GIMBAL ANGLES STORED SP AT LOCATION S1 OF YOUR JOB VAC AREA.
000181:
000182:                                                                                                  #  THE OUTPUT IS THE STAR VECTOR REFERRED TO PRESENT STABLE MEMBER COORDINATES STORED AT LOCATION 32D OF THE VAC
000183:                                                                                                  #  AREA. THE OUTPUT IS ALSO AVAILABLE AT MPAC.
000184:
000185:
000186:
000187: 15,2622           43020        NBSM               ITA      SET                                   #  PUSHDOWN 00,02,04-10D,30D,32D-36D
000188: 15,2623           00051                                    S2
000189:
000190: 15,2624           00064                                    NBSMBIT                               #  SET NBSMBIT = 1
000191:
000192: 15,2625           77170        NBSM2              AXT,1    AXT,2                                 #  ROTATE Z,Y ABOUT X
000193: 15,2626           00000                                    0
000194: 15,2627           00002                                    2
000195: 15,2630           77624                           CALL
000196: 15,2631           32646                                    AXISROT
000197:
000198: 15,2632           77170                           AXT,1    AXT,2                                 #  ROTATE Y,X ABOUT Z
000199: 15,2633           00002                                    2
000200: 15,2634           00004                                    4
000201: 15,2635           77624                           CALL
000202: 15,2636           32646                                    AXISROT
000203:
000204: 15,2637           77170                           AXT,1    AXT,2                                 #  ROTATE X,Z, ABOUT Y
000205: 15,2640           00004                                    4
000206: 15,2641           00000                                    0
000207: 15,2642           77624                           CALL
000208: 15,2643           32646                                    AXISROT
000209:
000210: 15,2644           77650                           GOTO
000211: 15,2645           00051                                    S2
000212:


000214:
000215:                                                                                                  #  AXISROT IS UTILIZED BY THE SMNB AND NBSM ROUTINES. SEE REMARKS ON THESE ROUTINES FOR INPUTS AND OUTPUTS.
000216:
000217:
000218:
000219: 15,2646           66660        AXISROT            XSU,1    SLOAD*
000220: 15,2647           00050                                    S1                                    #       SMNB         .       NBSM
000221: 15,2650           00005                                    4,1                                   #  IG    MG    OG    .  OG    MG    IG
000222: 15,2651           56034                           RTB      XAD,1
000223: 15,2652           33524                                    CDULOGIC
000224: 15,2653           00050                                    S1
000225: 15,2654           00037                           STORE    30D
000226:
000227: 15,2655           77746        ACCUROT            COS
000228: 15,2656           04011                           STORE    8D,1                                  #               COS(ANGLE)
000229: 15,2657           73545                           DLOAD    SIN
000230: 15,2660           00037                                    30D
000231: 15,2661           04013                           STORE    10D,1                                 #               SIN(ANGLE)
000232:
000233: 15,2662           72403                           DMP*     SL1
000234:
000235: 15,2663           77732                                    32D        +4,2
000236: 15,2664           40723                           PDDL*    DMP*                                  #                   PD0
000237: 15,2665           00011                                    8D,1                                  #  S3SIN S1SIN S2SIN . S2SIN S1SIN S3SIN
000238: 15,2666           77732                                    32D        +4,2
000239:
000240: 15,2667           64752                           SL1      PDDL*                                 #                   PD2
000241: 15,2670           00013                                    10D,1                                 #  S3COS S1COS S2COS . S2COS S1COS S3COS
000242:
000243: 15,2671           72403                           DMP*     SL1                                   #                  MPAC
000244: 15,2672           00045                                    32D        +4,1                       #  S1SIN S2SIN S3SIN . S3SIN S2SIN S1SIN
000245:
000246: 15,2673           77614                           BOFF
000247: 15,2674           00344                                    NBSMBIT
000248: 15,2675           32710                                    AXISROT1
000249:
000250: 15,2676           45421                           BDSU     STADR                                 #                    .   PD2 - MPAC
000251: 15,2677           67732                           STORE    32D        +4,2                       #                    . S2    S1    S3
000252: 15,2700           77743                           DLOAD*
000253: 15,2701           00011                                    8D,1
000254:
000255: 15,2702           72403                           DMP*     SL1                                   #                    .      MPAC
000256: 15,2703           00045                                    32D        +4,1                       #                    . S3COS S2COS S1COS
000257:
000258: 15,2704           45415                           DAD      STADR                                 #                    .   PD0 + MPAC
000259: 15,2705           73732                           STORE    32D        +4,1                       #                    . S3    S2    S1
000260: 15,2706           43575                           VLOAD    RVQ
000261: 15,2707           00041                                    32D
000262: 15,2710           45415        AXISROT1           DAD      STADR                                 #    MPAC + PD2      .
000263: 15,2711           67732                           STORE    32D        +4,2                       #  S3    S1    S2
000264: 15,2712           77743                           DLOAD*
000265: 15,2713           00011                                    8D,1
000266:


000268: 15,2714           72403                           DMP*     SL1                                   #       MPAC         .
000269: 15,2715           00045                                    32D        +4,1                       #  S1COS S2COS S3COS .
000270:
000271: 15,2716           45425                           DSU      STADR                                 #    MPAC - PD0      .
000272: 15,2717           73732                           STORE    32D        +4,1                       #  S1    S2    S3
000273: 15,2720           43575                           VLOAD    RVQ
000274: 15,2721           00041                                    32D
000275:                                                                                                  #  CALCGA COMPUTES THE CDU DRIVING ANGLES REQUIRED TO BRING THE STABLE MEMBER INTO THE DESIRED ORIENTATION.
000276:
000277:                                                                                                  #  THE INPUTS ARE  1) THE NAVIGATION BASE COORDINATES REFERRED TO ANY COORDINATE SYSTEM. THE THREE HALF-UNIT
000278:                                                                                                  #  VECTORS ARE STORED AT XNB,YNB, AND ZNB.  2) THE DESIRED STABLE MEMBER COORDINATES REFERRED TO THE SAME
000279:                                                                                                  #  COORDINATE SYSTEM ARE STORED AT XSM, YSM, AND ZSM.
000280:
000281:                                                                                                  #  THE OUTPUTS ARE THE THREE CDU DRIVING ANGLES AND ARE STORED SP AT THETAD, THETAD +1, AND THETAD +2.
000282:
000283:
000284: 15,2722           47375        CALCGA             VLOAD    VXV                                   #  PUSHDONW 00-04,16D,18D
000285: 15,2723           02423                                    XNB                                   #  XNB = OGA (OUTER GIMBAL AXIS)
000286: 15,2724           02407                                    YSM                                   #  YSM = IGA (INNER GIMBAL AXIS)
000287: 15,2725           41456                           UNIT     PUSH                                  #  PD0 = UNIT(OGA X IGA) = MGA
000288:
000289: 15,2726           44041                           DOT      ITA
000290: 15,2727           02437                                    ZNB
000291: 15,2730           00051                                    S2
000292: 15,2731           24021                           STOVL    COSTH                                 #  COS(OG) = MGA . ZNB
000293:
000294: 15,2732           00001                                    0
000295: 15,2733           77641                           DOT
000296: 15,2734           02431                                    YNB
000297: 15,2735           34023                           STCALL   SINTH                                 #  SIN(OG) = MGA . YNB
000298: 15,2736           32543                                    ARCTRIG
000299: 15,2737           26501                           STOVL    OGC
000300: 15,2740           00001                                    0
000301:
000302: 15,2741           50235                           VXV      DOT                                   #  PROVISION FOR MG ANGLE OF 90 DEGREES
000303: 15,2742           02423                                    XNB
000304: 15,2743           02407                                    YSM
000305: 15,2744           77752                           SL1
000306: 15,2745           24021                           STOVL    COSTH                                 #  COS(MG) = IGA . (MGA X OGA)
000307: 15,2746           02407                                    YSM
000308: 15,2747           77641                           DOT
000309: 15,2750           02423                                    XNB
000310: 15,2751           34023                           STCALL   SINTH                                 #  SIN(MG) = IGA . OGA
000311: 15,2752           32543                                    ARCTRIG
000312: 15,2753           02505                           STORE    MGC
000313:
000314: 15,2754           45246                           ABS      DSU
000315: 15,2755           33160                                    .166...
000316: 15,2756           77644                           BPL
000317:
000318: 15,2757           32776                                    GIMLOCK1                              #  IF ANGLE GREATER THAN 60 DEGREES
000319:


000321:
000322: 15,2760           50375        CALCGA1            VLOAD    DOT
000323: 15,2761           02415                                    ZSM
000324: 15,2762           00001                                    0
000325: 15,2763           24021                           STOVL    COSTH                                 #  COS(IG) = ZSM . MGA
000326: 15,2764           02401                                    XSM
000327:
000328: 15,2765           45441                           DOT      STADR
000329: 15,2766           43754                           STCALL   SINTH                                 #  SIN(IG) = XSM . MGA
000330:
000331: 15,2767           32543                                    ARCTRIG
000332:
000333: 15,2770           26503                           STOVL    IGC
000334: 15,2771           02501                                    OGC
000335: 15,2772           77634                           RTB
000336: 15,2773           33573                                    V1STO2S
000337: 15,2774           34401                           STCALL   THETAD
000338: 15,2775           00051                                    S2
000339:
000340: 15,2776           77776        GIMLOCK1           EXIT
000341: 15,2777           06020                           TC       FLAG1UP                               #  SET GIMBAL LOCK FLAG
000342: 15,3000           00200                           OCT      200
000343: 15,3001           04744                           TC       ALARM
000344: 15,3002           00401                           OCT      00401
000345: 15,3003           06103                           TC       INTPRET
000346: 15,3004           77650                           GOTO
000347: 15,3005           32760                                    CALCGA1
000348:


000350:
000351:                                                                                                  #  AXISGEN COMPUTES THE COORDINATES OF ONE COORDINATE SYSTEM REFERRED TO ANOTHER COORDINATE SYSTEM.
000352:
000353:                                                                                                  #  THE INPUTS ARE  1) THE STAR1 VECTOR REFERRED TO COORDINATE SYSTEM A STORED AT STARAD.  2) THE STAR2 VECTOR
000354:                                                                                                  #  REFERRED TO COORDINATE SYSTEM A STORED AT STARAD +6.  3) THE STAR1 VECTOR REFERRED TO COORDINATE SYSTEM B STORED
000355:                                                                                                  #  AT LOCATION 6 OF THE VAC AREA.  4) THE STAR2 VECTOR REFERRED TO COORDINATE SYSTEM B STORED AT LOCATION 12D OF
000356:                                                                                                  #  THE VAC AREA.
000357:
000358:                                                                                                  #  THE OUTPUT DEFINES COORDINATE SYSTEM A REFERRED TO COORDINATE SYSTEM B. THE THREE HALF-UNIT VECTORS ARE STORED
000359:                                                                                                  #  AT LOCATIONS XDC, XDC +6, XDC +12D, AND STARAD, STARAD +6, STARAD +12D.
000360:
000361:
000362: 15,3006           66370        AXISGEN            AXT,1    SSP                                   #  PUSHDOWN 00-22D,24D-28D,30D
000363: 15,3007           02452                                    STARAD     +6
000364:
000365: 15,3010           00051                                    S1
000366: 15,3011           02436                                    STARAD     -6
000367:
000368: 15,3012           46773        AXISGEN1           VLOAD*   VXV*                                  #  06D   UA = S1
000369: 15,3013           02461                                    STARAD     +12D,1                     #         STARAD +00D   UB = S1
000370: 15,3014           02467                                    STARAD     +18D,1
000371: 15,3015           77656                           UNIT                                           #  12D   VA = UNIT(S1 X S2)
000372: 15,3016           06467                           STORE    STARAD     +18D,1                     #         STARAD +06D   VB = UNIT(S1 X S2)
000373: 15,3017           77773                           VLOAD*
000374: 15,3020           02461                                    STARAD     +12D,1
000375:
000376: 15,3021           76433                           VXV*     VSL1
000377: 15,3022           02467                                    STARAD     +18D,1                     #  18D   WA = UA X VA
000378: 15,3023           06475                           STORE    STARAD     +24D,1                     #         STARAD +12D   WB = UB X VB
000379:
000380: 15,3024           77700                           TIX,1
000381: 15,3025           33012                                    AXISGEN1
000382:
000383: 15,3026           66160                           AXC,1    SXA,1
000384: 15,3027           00006                                    6
000385: 15,3030           00036                                    30D
000386:
000387: 15,3031           66370                           AXT,1    SSP
000388:
000389: 15,3032           00022                                    18D
000390: 15,3033           00051                                    S1
000391: 15,3034           00006                                    6
000392:
000393: 15,3035           66374                           AXT,2    SSP
000394: 15,3036           00006                                    6
000395: 15,3037           00052                                    S2
000396: 15,3040           00002                                    2
000397:
000398: 15,3041           76720        AXISGEN2           XCHX,1   VLOAD*
000399: 15,3042           00036                                    30D                                   #  X1=-6 X2=+6   X1=-6 X2=+4    X1=-6 X2=+2
000400: 15,3043           00001                                    0,1
000401: 15,3044           62757                           VXSC*    PDVL*                                 #  J=(UA)(UB1)   J=(UA)(UB2)    J=(UA)(UB3)
000402:


000404: 15,3045           75324                                    STARAD     +6,2
000405: 15,3046           00007                                    6,1
000406: 15,3047           77757                           VXSC*
000407: 15,3050           75316                                    STARAD     +12D,2
000408: 15,3051           30031                           STOVL*   24D                                   #  K=(VA)(VB1)   J=(VA)(VB2)   J=(VA)(VB3)
000409: 15,3052           00015                                    12D,1
000410:
000411: 15,3053           53357                           VXSC*    VAD
000412: 15,3054           75310                                    STARAD     +18D,2                     #  L=(WA)(WB1)   J=(WA)(WB2)   J=(WA)(WB3)
000413: 15,3055           76455                           VAD      VSL1
000414: 15,3056           00031                                    24D
000415: 15,3057           77720                           XCHX,1
000416: 15,3060           00036                                    30D
000417: 15,3061           06445                           STORE    XDC        +18D,1                     #  XDC = L+J+K   YDC = L+J+K   ZDC = L+J+K
000418:
000419: 15,3062           77700                           TIX,1
000420: 15,3063           33064                                    AXISGEN3
000421:
000422: 15,3064           77704        AXISGEN3           TIX,2
000423: 15,3065           33041                                    AXISGEN2
000424:
000425: 15,3066           77775                           VLOAD
000426: 15,3067           02423                                    XDC
000427: 15,3070           26445                           STOVL    STARAD
000428: 15,3071           02431                                    YDC
000429: 15,3072           26453                           STOVL    STARAD     +6
000430: 15,3073           02437                                    ZDC
000431: 15,3074           02461                           STORE    STARAD     +12D
000432:
000433: 15,3075           77616                           RVQ
000434:


000436:
000437:                                                                                                  #  TRANSPSE COMPUTES THE TRANSPOSE OF A MATRIX (TRANSPOSE = INVERSE OF ORTHOGONAL TRANSFORMATION).
000438:
000439:                                                                                                  #  THE INPUT IS A MATRIX DEFINING COORDINATE SYSTEM A WITH RESPECT TO COORDINATE SYSTEM B STORED IN STARAD THRU
000440:                                                                                                  #  STARAD +17D.
000441:
000442:                                                                                                  #  THE OUTPUT IS A MATRIX DEFINING COORDINATE SYSTEM B WITH RESPECT TO COORDINATE SYSTEM A STORED IN STARAD THRU
000443:                                                                                                  #  STARAD +17D.
000444:
000445: 15,3076           53447        TRANSPSE           DXCH     STARAD     +2                         #  PUSHDOWN NONE
000446: 15,3077           53453                           DXCH     STARAD     +6
000447: 15,3100           53447                           DXCH     STARAD     +2
000448:
000449: 15,3101           53451                           DXCH     STARAD     +4
000450: 15,3102           53461                           DXCH     STARAD     +12D
000451: 15,3103           53451                           DXCH     STARAD     +4
000452:
000453: 15,3104           53457                           DXCH     STARAD     +10D
000454: 15,3105           53463                           DXCH     STARAD     +14D
000455: 15,3106           53457                           DXCH     STARAD     +10D
000456: 15,3107           16115                           TCF      DANZIG
000457:
000458:
000459:
000460:                                                                                                  #  SMD/EREF TRANSFORMS STABLE MEMBER DESIRED COORDINATES FROM STABLE MEMBER DESIRED (DESIRED = PRESENT HERE) TO
000461:                                                                                                  #  EARTH REFERENCE COORDINATES TO ALIGN THE STABLE MEMBER TO SPECIFIED GIMBAL ANGLES.
000462:
000463:                                                                                                  #  THE INPUTS ARE 1) THE MATRIX DEFINING THE EARTH REFERENCE COORDINATE FRAME WITH RESPECT TO THE NAVIGATION BASE
000464:                                                                                                  #  COORDINATE FRAME. 2) SAME AS 2) AND 3) OF SMNB.
000465:
000466:                                                                                                  #  THE OUTPUT IS THE DESIRED STABLE MEMBER COORDINATES WITH RESPECT TO THE EARTH REFERENCE COORDINATE FRAME. THE
000467:                                                                                                  #  THREE UNIT VECTORS ARE STORED AT XSM, YSM, AND ZSM.
000468:
000469: 15,3110           77220        SMD/EREF           ITA      VLOAD                                 #  PUSHDOWN 00,02,04-10D,30D,32D-36D
000470: 15,3111           00014                                    12D
000471: 15,3112           33150                                    XUNIT
000472: 15,3113           34041                           STCALL   32D
000473: 15,3114           32576                                    SMNB                                  #  STABLE MEMBER TO NAVIGATION BASE
000474: 15,3115           76521                           MXV      VSL1
000475: 15,3116           02445                                    STARAD                                #  THEN TO EARTH REFERENCE
000476: 15,3117           26401                           STOVL    XSM
000477: 15,3120           33146                                    YUNIT
000478:
000479: 15,3121           34041                           STCALL   32D
000480: 15,3122           32576                                    SMNB                                  #  STABLE MEMBER TO NAVIGATION BASE
000481: 15,3123           76521                           MXV      VSL1
000482: 15,3124           02445                                    STARAD                                #  THEN TO EARTH REFERENCE
000483: 15,3125           26407                           STOVL    YSM
000484: 15,3126           33144                                    ZUNIT
000485:
000486: 15,3127           34041                           STCALL   32D
000487:


000489: 15,3130           32576                                    SMNB                                  #  STABLE MEMBER TO NAVIGATION BASE
000490: 15,3131           76521                           MXV      VSL1
000491: 15,3132           02445                                    STARAD                                #  THEN TO EARTH REFERENCE
000492: 15,3133           36415                           STCALL   ZSM
000493: 15,3134           00014                                    12D
000494:
000495: 15,3135           67777 77777  270DEG             2DEC     -.25
000496:
000497: 15,3137           05520 26075  QTSN45             2DEC     .1768
000498:
000499: 15,3141           20000 00000  HALFDP             2DEC     .5
000500:
000501: 15,3143           00000 00000  ZUNIT              2DEC     0          B-28
000502:
000503: 15,3145           00000 00000  YUNIT              2DEC     0          B-28
000504:
000505: 15,3147           20000 00000  XUNIT              2DEC     0.5
000506:
000507: 15,3151           00000 00000  ZERODP             2DEC     0          B-28
000508:
000509: 15,3153           00000 00000                     2DEC     0          B-28
000510:
000511: 15,3155           00000 00000                     2DEC     0          B-28
000512:
000513: 15,3157           05252 25253  .166...            2DEC     .1666666667
000514:


000516:
000517:                                                                                                  #  AOTNB CONVERTS THE AOT RETICLE ROTATION ANGLE (YROT AND SROT) AND
000518:                                                                                                  #  THE DETENT SETTING TO A HALF UNIT STAR VECTOR REFERRED TO THE
000519:                                                                                                  #  NAVIGATION BASE FOR NON-FLIGHT ALIGNMENT MODES
000520:
000521:                                                                                                  #  THE INPUTS ARE
000522:
000523:                                                                                                  #     Y RET. LINE RATATION S(YROT) STORED IN LOC 3 OF THE MARK VAC AREA
000524:                                                                                                  #     SPIRAL ROTATION ANGLE S(SROT) STORED IN LOC 5 OF MARK VAC AREA
000525:                                                                                                  #     ANGLE OF CENTER OF FIELD OF VIEW S(ELV) STORED IN LOC 9 OF MARK VAC
000526:                                                                                                  #     AOT ASZIMUTH ANGLE S(DET) STORED IN LOC 8 OF MARK VAC AREA
000527:                                                                                                  #     THE COMPLEMENT OF BASE ADDRESS OF MARK VAC IS STORED AT X1
000528:                                                                                                  #     COMPENSATION FOR FIELD OF VIEW TILT IN LOC 10D
000529:                                                                                                  #  THE ABOVE STORAGE IS DONE BY AOTMARK
000530:
000531:
000532:                                                                                                  #  THE OUTPUT IS A HALF UNIT STAR VECTOR IN NB COORDINATES STORED
000533:                                                                                                  #  AT 32D AND AVAILABLE IN VAC ON RETURN TO THE CALLING PROGRAM
000534:
000535: 15,3161           66601        AOTNB              SETPD    SLOAD*
000536: 15,3162           00001                                    0
000537: 15,3163           00013                                    10D,1                                 #  AOT FOV TILT COMPENSATION ANGLE
000538: 15,3164           41542                           SR1      PUSH                                  #  RESCALE TILT TO 2PI
000539: 15,3165           47133                           SLOAD*   RTB
000540: 15,3166           00004                                    3,1
000541: 15,3167           33524                                    CDULOGIC
000542: 15,3170           00017                           STORE    14D                                   #  STORE UNCOMPENSATED YROT FOR S COMP
000543: 15,3171           41415                           DAD      PUSH                                  #  YROT NOW CORRECTED FOR TILT
000544: 15,3172           65346                           COS      PDDL                                  #  1/2 COS(YROT) PD 0-1
000545: 15,3173           41556                           SIN      PUSH                                  #  1/2 SIN(YROT) PD 2-3
000546: 15,3174           47133                           SLOAD*   RTB
000547: 15,3175           00006                                    5,1
000548: 15,3176           33524                                    CDULOGIC
000549: 15,3177           00021                           STORE    16D                                   #  STORE S IF S AND Y ARE ZERO, S=0
000550: 15,3200           52054                           BZE      GOTO                                  #  S NOT ZERO
000551: 15,3201           33203                                    SISZ                                  #  S=0
000552: 15,3202           33213                                    SCOMP
000553: 15,3203           53145        SISZ               DLOAD    BZE                                   #  IS Y ZERO
000554: 15,3204           00017                                    14D
000555:
000556: 15,3205           33210                                    YISZ                                  #  Y=0
000557: 15,3206           77650                           GOTO
000558: 15,3207           33213                                    SCOMP
000559: 15,3210           52145        YISZ               DLOAD    GOTO
000560: 15,3211           33152                                    ZERODP
000561: 15,3212           33220                                    SGOT
000562: 15,3213           45345        SCOMP              DLOAD    DSU
000563: 15,3214           00017                                    14D
000564: 15,3215           00021                                    16D                                   #  Y-S
000565: 15,3216           77621                           BDSU
000566: 15,3217           33305                                    NEARONE                               #  S=360-(Y-S)
000567: 15,3220           41405        SGOT               DMP      PUSH
000568:


000570: 15,3221           33303                                    DP1/12
000571: 15,3222           65346                           COS      PDDL
000572: 15,3223           41556                           SIN      PUSH
000573: 15,3224           72405                           DMP      SL1
000574: 15,3225           00001                                    0
000575: 15,3226           14001                           STODL    0
000576:
000577: 15,3227           00003                                    2
000578: 15,3230           45405                           DMP      STADR
000579: 15,3231           77774                           STORE    2
000580:
000581: 15,3232           47133                           SLOAD*   RTB
000582: 15,3233           00012                                    9D,1
000583: 15,3234           33524                                    CDULOGIC
000584: 15,3235           73406                           PUSH     SIN
000585: 15,3236           71525                           PDDL     COS
000586: 15,3237           41206                           PUSH     DMP
000587: 15,3240           00001                                    0
000588: 15,3241           41325                           PDDL     DMP
000589:
000590: 15,3242           00005                                    4
000591: 15,3243           00007                                    6
000592: 15,3244           72415                           DAD      SL1
000593: 15,3245           77626                           STADR
000594: 15,3246           63736                           STODL    32D
000595:
000596: 15,3247           77605                           DMP
000597: 15,3250           00005                                    4
000598: 15,3251           14005                           STODL    4
000599:
000600: 15,3252           44205                           DMP      BDSU
000601: 15,3253           00001                                    0
000602: 15,3254           66606                           PUSH     SLOAD*
000603: 15,3255           00011                                    8D,1
000604: 15,3256           41434                           RTB      PUSH
000605: 15,3257           33524                                    CDULOGIC
000606: 15,3260           65346                           COS      PDDL
000607: 15,3261           77756                           SIN
000608: 15,3262           00001                           STORE    0
000609:
000610: 15,3263           65205                           DMP      PDDL
000611: 15,3264           00005                                    4
000612: 15,3265           00007                                    6
000613:
000614: 15,3266           43205                           DMP      DAD
000615: 15,3267           00003                                    2
000616: 15,3270           77712                           SL2
000617: 15,3271           14043                           STODL    34D
000618:
000619: 15,3272           45405                           DMP      STADR
000620: 15,3273           63732                           STODL    36D
000621:


000623: 15,3274           77605                           DMP
000624: 15,3275           62421                           BDSU     SL2
000625:
000626: 15,3276           00045                                    36D
000627: 15,3277           24045                           STOVL    36D
000628: 15,3300           00041                                    32D
000629: 15,3301           77616                           RVQ
000630:
000631: 15,3302           02525 12525  DP1/12             2DEC     .0833333333
000632:
000633: 15,3304           37777 37777  NEARONE            2DEC     .999999999
000634:


000636:
000637:                                                                                                  #  AOTSM CALCULATES A HALF UNIT STAR VECTOR IN STABLE MEMBER COORDINATES
000638:                                                                                                  #  FROM TWO PLANES CONTAINING THE STAR REFERRED TO NB
000639:
000640:                                                                                                  #  THE INPUTS ARE
000641:
000642:                                                                                                  #     AOT AZIMUTH AND ELEVATION STORED IN 8D AND 9D RESP. OF VAC AREA
000643:                                                                                                  #     CDUY, CDUZ AND CDUX FROM A YMARK STORED AT 3, 5, AND 7 OF VAC AREA
000644:                                                                                                  #     CDUY, CDUZ AND CDUX FROM A XMARK STORED AT 2, 4, AND 6 OF VAC AREA
000645:
000646:                                                                                                  #     COMPENSATION FOR FIELD OF VIEW STORED AT 10D OF VAC AREA
000647:                                                                                                  #  THE BASE ADDRESS OF THE CDUS IS STORED AT LOCATION S1
000648:
000649:                                                                                                  #  THE OUTPUT IS A STAR VECTOR REFERRED TO STABLE MEMBER AT LOC 32D
000650:                                                                                                  #  AND AVAILBLE IN MPAC
000651:
000652: 15,3306           40220        AOTSM              STQ      SETPD
000653: 15,3307           00035                                    29D                                   #  SET UP RETURN
000654: 15,3310           00001                                    0
000655: 15,3311           66740                           LXC,1    SLOAD*
000656: 15,3312           00050                                    S1                                    #  COMPLEMENT OF CDU ADR FOR XMARK
000657: 15,3313           00011                                    8D,1                                  #  LOAD APPARENT TILT ANGLE,ONES COMP
000658: 15,3314           77742                           SR1                                            #  RESCALE TILT TO 2PI
000659: 15,3315           71406                           PUSH     COS
000660: 15,3316           73525                           PDDL     SIN                                   #  1/2 COS(TA)  0-1
000661: 15,3317           66606                           PUSH     SLOAD*                                #  1/2 SIN(TA)  2-3
000662: 15,3320           00007                                    6,1                                   #  LOAD AZIMUTH, 2S COMP
000663: 15,3321           41434                           RTB      PUSH
000664: 15,3322           33524                                    CDULOGIC
000665: 15,3323           65346                           COS      PDDL                                  #  1/2 COS(AZ)  4-5
000666: 15,3324           41556                           SIN      PUSH                                  #  1/2 SIN(AZ)  6-7
000667: 15,3325           65205                           DMP      PDDL
000668: 15,3326           00001                                    0
000669:
000670: 15,3327           65205                           DMP      PDDL
000671: 15,3330           00003                                    2
000672: 15,3331           00005                                    4
000673: 15,3332           65205                           DMP      PDDL
000674: 15,3333           00001                                    0
000675: 15,3334           00005                                    4
000676: 15,3335           41405                           DMP      PUSH
000677: 15,3336           47133                           SLOAD*   RTB
000678: 15,3337           00010                                    7,1                                   #  LOAD ELEVATION, 2S COMP
000679: 15,3340           33524                                    CDULOGIC
000680: 15,3341           73406                           PUSH     SIN
000681: 15,3342           71525                           PDDL     COS                                   #  1/2 SIN(ELV)  14-15
000682: 15,3343           41206                           PUSH     DMP                                   #  1/2 COS(ELV)  16-17
000683: 15,3344           00001                                    0
000684: 15,3345           77752                           SL1
000685: 15,3346           14041                           STODL    32D                                   #  X COMPONENT OF X-PLANE VECTOR
000686:
000687: 15,3347           72405                           DMP      SL1                                   #  UP 16-17
000688: 15,3350           00003                                    2
000689:


000691:
000692: 15,3351           65276                           DCOMP    PDDL                                  #  X COMPONENT OF Y-PLANE VECTOR 16-17
000693:
000694: 15,3352           00017                                    14D
000695: 15,3353           72405                           DMP      SL1
000696: 15,3354           00007                                    6
000697: 15,3355           72421                           BDSU     SL1
000698: 15,3356           00015                                    12D
000699: 15,3357           14043                           STODL    34D                                   #  Y COMPONENT OF X-PLANE VEC
000700:
000701: 15,3360           00017                                    14D
000702: 15,3361           72405                           DMP      SL1
000703: 15,3362           00013                                    10D
000704: 15,3363           72415                           DAD      SL1
000705: 15,3364           00011                                    8D
000706:
000707: 15,3365           77676                           DCOMP
000708: 15,3366           14045                           STODL    36D                                   #  Z COMPONENT OF X-PLANE VECTOR
000709:
000710: 15,3367           00017                                    14D
000711: 15,3370           72405                           DMP      SL1
000712: 15,3371           00011                                    8D
000713: 15,3372           72415                           DAD      SL1
000714: 15,3373           00013                                    10D
000715: 15,3374           41325                           PDDL     DMP                                   #  Y COMPONENT OF Y-PLANE VECTOR 18-19
000716:
000717: 15,3375           00017                                    14D
000718: 15,3376           00015                                    12D
000719: 15,3377           72425                           DSU      SL1
000720: 15,3400           00007                                    6
000721: 15,3401           34025                           STCALL   20D                                   #  Z COMPONENT OF Y-PLANE VECTOR 20-21
000722:
000723: 15,3402           32622                                    NBSM                                  #  TRANSFORM TO SM
000724: 15,3403           24013                           STOVL    10D                                   #  STORE X-PLAVE VECTOR (SM)
000725:
000726: 15,3404           00021                                    16D                                   #  LOAD Y-PLANE VECTOR (NB)
000727: 15,3405           62120                           XCHX,1   INCR,1
000728: 15,3406           00050                                    S1                                    #  INCREMENT CDU BASE ADR TO YMARK CDUS
000729: 15,3407           00001                                    1
000730:
000731: 15,3410           77720                           XCHX,1                                         #  PUT IT BACK IN S1
000732: 15,3411           00050                                    S1
000733: 15,3412           34041                           STCALL   32D
000734: 15,3413           32622                                    NBSM                                  #  GET Y-PLANE IN SM
000735: 15,3414           76435                           VXV      VSL1                                  #  YP CROSS XP
000736: 15,3415           00013                                    10D
000737: 15,3416           53476                           VCOMP    UNIT                                  #  UNIT (XP CROSS YP)
000738: 15,3417           00041                           STORE    32D                                   #  STAR VECTOR IN SM COORDINATES
000739: 15,3420           77650                           GOTO
000740: 15,3421           00035                                    29D                                   #  RETURN
000741:


000743:
000744:                                                                                                  #           THE FOLLOWING ROUTINE TAKES A HALF UNIT TARGET VECTOR REFERRED TO NAV BASE COORDINATES AND FINDS BOTH
000745:                                                                                                  #  GIMBAL ORIENTATIONS AT WHICH THE RR MIGHT SIGHT THE TARGET. THE GIMBAL ANGLES CORRESPONDING TO THE PRESENT MODE
000746:                                                                                                  #  ARE LEFT IN MODEA AND THOSE WHICH WOULD BE USED AFTER A REMODE IN MODEB. THIS ROUTINE ASSUMES MODE 1 IS TRUNNION
000747:                                                                                                  #  ANGLE LESS THAN 90 DEGS IN ABS VALUE WITH ARBITRARY SHAFT, WITH A CORRESPONDING DEFINITION FOR MODE 2. MODE
000748:                                                                                                  #  SELECTION AND LIMIT CHECKING ARE DONE ELSEWHERE.
000749:
000750:                                                                                                  #           THE MODE 1 CONFIGURATION IS CALCULATED FROM THE VECTOR AND THEN MODE 2 IS FOUND USING THE RELATIONS
000751:
000752:                                                                                                  #           S(2) = 180 + S(1)
000753:                                                                                                  #           T(2) = 180 - T(1)
000754:
000755: 15,3422           57545        RRANGLES           DLOAD    DCOMP                                 #  SINCE WE WILL FIND THE MODE 1 SHAFT
000756: 15,3423           00043                                    34D                                   #  ANGLE LATER, WE CAN FIND THE MODE 1
000757: 15,3424           67401                           SETPD    ASIN                                  #  TRUNNION BY SIMPLY TAKING THE ARCSIN OF
000758: 15,3425           00001                                    0                                     #  THE Y COMPONENT, THE ASIN GIVING AN
000759: 15,3426           44206                           PUSH     BDSU                                  #  ANSWER WHOSE ABS VAL IS LESS THAN 90 DEG
000760: 15,3427           33142                                    HALFDP
000761: 15,3430           14005                           STODL    4                                     #  MODE 2 TRUNNION TO 4.
000762:
000763: 15,3431           33152                                    ZERODP
000764: 15,3432           24043                           STOVL    34D                                   #  UNIT THE PROJECTION OF THE VECTOR IN THE
000765: 15,3433           00041                                    32D                                   #  X-Z PLANE.
000766: 15,3434           41056                           UNIT     BOVB                                  #  CALL FOR S/C MANEUVER ON GIMBAL LOCK.
000767: 15,3435           20346                                    DESRETRN   +1
000768: 15,3436           14041                           STODL    32D                                   #  PROJECTION VECTOR.
000769: 15,3437           00041                                    32D
000770: 15,3440           44142                           SR1      STQ
000771: 15,3441           00051                                    S2
000772: 15,3442           14023                           STODL    SINTH                                 #  USE ARCTRIG SINCE SHAFT COULD BE ARB.
000773: 15,3443           00045                                    36D
000774: 15,3444           77742                           SR1
000775: 15,3445           34021                           STCALL   COSTH
000776: 15,3446           32543                                    ARCTRIG
000777:


000779: 15,3447           43206                           PUSH     DAD                                   #  MODE 1 SHAFT TO 2.
000780: 15,3450           33142                                    HALFDP                                #  (OVERFLOW DOESNT MATTER SINCE SCALED REV
000781:
000782: 15,3451           24007                           STOVL    6
000783: 15,3452           00005                                    4
000784: 15,3453           77634                           RTB                                            #  FIND MODE 2 CDU ANGLES.
000785: 15,3454           33610                                    2V1STO2S
000786: 15,3455           24426                           STOVL    MODEB
000787: 15,3456           00001                                    0
000788: 15,3457           77634                           RTB                                            #  MODE 1 ANGLES TO MODE A.
000789: 15,3460           33610                                    2V1STO2S
000790: 15,3461           00424                           STORE    MODEA
000791: 15,3462           77776                           EXIT
000792:
000793: 15,3463           40413                           CS       RADMODES                              #  SWAP MODEA AND MODEB IF RR IN MODE2.
000794: 15,3464           77742                           MASK     BIT12
000795: 15,3465           10000                           CCS      A
000796: 15,3466           13472                           TCF      +4
000797:
000798: 15,3467           52424                           DXCH     MODEA
000799: 15,3470           52426                           DXCH     MODEB
000800: 15,3471           52424                           DXCH     MODEA
000801:
000802: 15,3472           06103                           TC       INTPRET
000803: 15,3473           77650                           GOTO
000804: 15,3474           00051                                    S2
000805:


000807:                                                                                                  #     GIVEN RR TRUNION AND SHAFT (T,S) IN TANG,+1, FIND THE ASSOCIATED
000808:                                                                                                  #  LINE OF SIGHT IN NAV BASE AXES.  THE HALF UNIT VECTOR, .5(SIN(S)COS(T),
000809:                                                                                                  #  -SIN(T),COS(S)COS(T)) IS LEFT IN MPAC AND 32D.
000810:
000811: 15,3475           47135        RRNB               SLOAD    RTB
000812: 15,3476           00424                                    TANG
000813: 15,3477           33524                                    CDULOGIC
000814: 15,3500           41401                           SETPD    PUSH                                  #  TRUNNION ANGLE TO 0
000815:
000816: 15,3501           00001                                    0
000817: 15,3502           57556                           SIN      DCOMP
000818: 15,3503           14043                           STODL    34D                                   #  Y COMPONENT
000819:
000820: 15,3504           41546                           COS      PUSH                                  #  .5 COS(T) TO 0
000821: 15,3505           47135                           SLOAD    RTB
000822: 15,3506           00425                                    TANG       +1
000823: 15,3507           33524                                    CDULOGIC
000824: 15,3510           71406                           PUSH     COS                                   #  SHAFT ANGLE TO 2
000825: 15,3511           72405                           DMP      SL1
000826: 15,3512           00001                                    0
000827: 15,3513           14045                           STODL    36D                                   #  Z COMPONENT
000828:
000829: 15,3514           41356                           SIN      DMP
000830: 15,3515           77752                           SL1
000831: 15,3516           24041                           STOVL    32D
000832: 15,3517           00041                                    32D
000833: 15,3520           77616                           RVQ

End of include-file INFLIGHT_ALIGNMENT_ROUTINES.agc.  Parent file is MAIN.agc


