
Source Code


000002:                                                                                                  ## Copyright:   Public domain.
000003:                                                                                                  ## Filename:    INTER-BANK_COMMUNICATION.agc
000004:                                                                                                  ## Purpose:     A section of Sunburst revision 37, or Shepatin revision 0.
000005:                                                                                                  ##              It is part of an early development version of the software
000006:                                                                                                  ##              for Apollo Guidance Computer (AGC) on the unmanned Lunar
000007:                                                                                                  ##              Module (LM) flight Apollo 5. Sunburst 37 was the program
000008:                                                                                                  ##              upon which Don Eyles's offline development program Shepatin
000009:                                                                                                  ##              was based; the listing herein transcribed was actually for
000010:                                                                                                  ##              the equivalent revision 0 of Shepatin.
000011:                                                                                                  ##              This file is intended to be a faithful transcription, except
000012:                                                                                                  ##              that the code format has been changed to conform to the
000013:                                                                                                  ##              requirements of the yaYUL assembler rather than the
000014:                                                                                                  ##              original YUL assembler.
000015:                                                                                                  ## Reference:   pp. 888-892
000016:                                                                                                  ## Assembler:   yaYUL
000017:                                                                                                  ## Contact:     Ron Burkey <info@sandroid.org>.
000018:                                                                                                  ## Website:     www.ibiblio.org/apollo/index.html
000019:                                                                                                  ## Mod history: 2017-05-24 MAS  Created from Sunburst 120.
000020:                                                                                                  ##              2017-06-03 TVB  Transcribed.
000021:                                                                                                  ##              2017-06-14 HG   Fix opcode CA -> DCA
000022:                                                                                                  ##                              Add missing EXTEND
000023:


000025:                                                                                                  #           THE FOLLOWING ROUTINE CAN BE USED TO CALL A SUBROUTINE IN ANOTHER BANK. IN THE BANKCALL VERSION, THE
000026:                                                                                                  #  CADR OF THE SUBROUTINE IMMEDIATELY FOLLOWS THE  TC BANKCALL  INSTRUCTION, WITH C(A) AND C(L) PRESERVED.
000027:
000028:    5224                                           BLOCK    02
000029:    5224           52124        BANKCALL           DXCH     BUF2                                  #  SAVE INCOMING A,L.
000030:    5225           50002                           INDEX    Q                                     #  PICK UP CADR.
000031:    5226           30000        BNKCAL+2           CA       0
000032:    5227           24002                           INCR     Q                                     #  SO WE RETURN TO THE LOC. AFTER THE CADR.
000033:
000034:                                                                                                  #  SWCALL IS  IDENTICAL TO BANKCALL, EXCEPT THAT THE CADR ARRIVES IN A.
000035:
000036:    5230           54001        SWCALL             TS       L
000037:    5231           22004                           LXCH     FBANK                                 #  SWITCH BANKS, SAVING RETURN.
000038:    5232           75356                           MASK     LOW10                                 #  GET SUB-ADDRESS OF CADR.
000039:    5233           56002                           XCH      Q                                     #  A,L NOW CONTAINS DP RETURN.
000040:    5234           52124                           DXCH     BUF2                                  #  RESTORING INPUTS IF THIS IS A BANKCALL.
000041:    5235           50002                           INDEX    Q
000042:    5236           02000                           TC       10000                                 #  SETTING Q TO SWRETURN.
000043:
000044:    5237           56124        SWRETURN           XCH      BUF2       +1                         #  COMES HERE TO RETURN TO CALLER. C(A,L)
000045:    5240           56004                           XCH      FBANK                                 #  ARE PRESERVED FOR RETURN.
000046:    5241           56124                           XCH      BUF2       +1
000047:    5242           00123                           TC       BUF2
000048:
000049:                                                                                                  #           THE FOLLOWING ROUTINE CAN BE USED AS A UNILATERAL JUMP WITH C(A,L) PRESERVED AND THE CADR IMMEDIATELY
000050:                                                                                                  #  FOLLOWING THE TC POSTJUMP INSTRUCTION.
000051:
000052:    5243           56002        POSTJUMP           XCH      Q                                     #  SAVE INCOMING C(A).
000053:    5244           50000                           INDEX    A                                     #  GET CADR.
000054:    5245           30000                           CA       0
000055:
000056:                                                                                                  #           BANKJUMP IS THE SAME AS POSTJUMP, EXCEPT THAT THE CADR ARRIVES IN A.
000057:
000058:    5246           54004        BANKJUMP           TS       FBANK
000059:    5247           75356                           MASK     LOW10
000060:    5250           56002                           XCH      Q                                     #  RESTORING INPUT C(A) IF THIS WAS A
000061:    5251           50002        Q+10000            INDEX    Q                                     #  POSTJUMP.
000062:    5252           12000        BNKJUP+4           TCF      10000
000063:


000065:                                                                                                  #           THE FOLLOWING ROUTINE GETS THE RETURN CADR SAVED BY SWCALL OR BANKCALL AND LEAVES IT IN A.
000066:
000067:    5253           35356        MAKECADR           CAF      LOW10
000068:    5254           70123                           MASK     BUF2
000069:    5255           60124                           AD       BUF2       +1
000070:    5256           00002                           TC       Q
000071:
000072:
000073:                                                                                                  #           THE FOLLOWING ROUTINE OBTAINS THE TWO WORDS BEGINNING AT THE ADDRESS ARRIVING IN A, AND LEAVES THEM IN
000074:                                                                                                  #  A,L.  ENTER WITH THE CADR IN A, AT DATACALL WITH JUNK IN L IF NOT SWITCHING SUPERBANKS, OTHERWISE AT SUPDACAL WITH
000075:                                                                                                  #  SUPERBANK BITS IN BITS 7-5 IN L (BITS 15-8 AND 4-1 MAY BE JUNK).  DEBRIS = MTEMP.  INHINTS FOR ABOUT 165 MUSEC.
000076:
000077:    5257           54001        DATACALL           TS       L                                     #  SAVE CADR (SOLE INPUT HERE).
000078:    5260           00006                           EXTEND
000079:    5261           00007                           READ     SUPERBNK                              #  THIS PROLOGUE MAKES SUPERSWITCH VACUOUS.
000080:    5262           56001                           XCH      L                                     #  CADR IN A, SUPERBITS IN L.
000081:
000082:    5263           54125        SUPDACAL           TS       MPTEMP
000083:    5264           56004                           XCH      FBANK                                 #  SET FBANK FOR DATA.
000084:    5265           00006                           EXTEND
000085:    5266           04007                           ROR      SUPERBNK                              #  SAVE FBANK IN BITS 15-11, AND
000086:    5267           56125                           XCH      MPTEMP                                #   SUPERBANK IN BITS  7-5.
000087:    5270           75356                           MASK     LOW10
000088:    5271           56001                           XCH      L                                     #  SAVE REL. ADR. IN BANK, FETCH SUPERBITS.
000089:    5272           00004                           INHINT                                         #  BECAUSE RUPT DOES NOT SAVE SUPERBANK.
000090:    5273           00006                           EXTEND
000091:    5274           01007                           WRITE    SUPERBNK                              #  SET SUPERBANK FOR DATA.
000092:    5275           00006                           EXTEND
000093:    5276           50001                           INDEX    L
000094:    5277           32001                           DCA      10000
000095:
000096:    5300           56125                           XCH      MPTEMP                                #  SAVE 1ST WD, FETCH OLD FBANK AND SBANK.
000097:    5301           00006                           EXTEND
000098:    5302           01007                           WRITE    SUPERBNK                              #  RESTORE SUPERBANK.
000099:    5303           00003                           RELINT
000100:    5304           54004                           TS       FBANK                                 #  RESTORE FBANK.
000101:    5305           30125                           CA       MPTEMP                                #  RECOVER FIRST WORD OF DATA.
000102:    5306           00002                           RETURN                                         #  24 WDS. DATACALL 516 MU, SUPDACAL 432 MU
000103:


000105:                                                                                                  #           THE FOLLOWING ROUTINES ARE IDENTICAL TO BANKCALL AND SWCALL EXCEPT THAT THEY ARE USED IN INTERRUPT.
000106:
000107:    5307           52073        IBNKCALL           DXCH     RUPTREG3                              #  USES RUPTREG3,4 FOR DP RETURN ADDRESS.
000108:    5310           50002                           INDEX    Q
000109:    5311           30000                           CAF      0
000110:    5312           24002                           INCR     Q
000111:
000112:    5313           54001        ISWCALLL           TS       L
000113:    5314           22004                           LXCH     FBANK
000114:    5315           75356                           MASK     LOW10
000115:    5316           56002                           XCH      Q
000116:    5317           52073                           DXCH     RUPTREG3
000117:    5320           50002                           INDEX    Q
000118:    5321           02000                           TC       10000
000119:
000120:    5322           56073        ISWRETRN           XCH      RUPTREG4
000121:    5323           56004                           XCH      FBANK
000122:    5324           56073                           XCH      RUPTREG4
000123:    5325           00072                           TC       RUPTREG3
000124:


000126:                                                                                                  #           THE FOLLOWING SUBROUTINES PROVIDE TO THE BASIC PROGRAMMER ENTRY INTO AND RETURN FROM ANY INTERPRETIVE
000127:                                                                                                  #  CODING WHICH DOES NOT USE THE ENTERING CONTENTS OF Q AND WHICH RETURNS VIA DANZIG. C(A) AND C(L) ARE SAVED.
000128:
000129:                                                                                                  #  USER'S RESPONSIBILITY TO FILL IN ADVANCE THE APPROPRIATE OPERAND AND ADDRESS REGISTERS USED BY THE
000130:                                                                                                  #  INTERPRETIVE CODING SUCH AS MPAC, BUF, ADDRWD, ETC.; AND TO CONFIRM THAT THE INTERPRETIVE CODING MEETS THE
000131:                                                                                                  #  ABOVE RESTRICTIONS WITH RESPECT TO Q AND DANZIG.
000132:
000133:                                                                                                  #  USEPRET AND USPRCADR MUST NOT BE USED IN INTERRUPT.
000134:
000135:                                                                                                  #  1. USEPRET ACCESSES INTERPRETIVE CODING WHICH CAN BE ENTERED WITHOUT CHANGING FBANK.
000136:                                                                                                  #     THE CALLING SEQUENCE IS AS FOLLOWS:
000137:
000138:                                                                                                  #                                          L         TC     USEPRET
000139:                                                                                                  #                                          L+1       TC,TCF INTPRETX       TC,TCF MEANS TC OR TCF
000140:                                                                                                  #                                                                          INTPRETX IS THE INTERPRETIVE CODING
000141:                                                                                                  #                                                                          RETURN IS TO L+2
000142:
000143:                                                                                                  #  2. USPRCADR ACCESSES INTERPRETIVE CODING IN OTHER THAN THE USER'S FBANK. THE CALLING SEQUENCE IS AS FOLLOWS:
000144:
000145:                                                                                                  #                                          L         TC     USPRCADR
000146:                                                                                                  #                                          L+1       CADR   INTPRETX       INTPRETX IS THE INTERPRETIVE CODING
000147:                                                                                                  #                                                                          RETURN IS TO L+2
000148:
000149:    5326           56002        USEPRET            XCH      Q                                     #  FETCH Q, SAVING A
000150:    5327           54154                           TS       LOC                                   #  L+1 TO LOC
000151:    5330           30006                           CA       BBANK
000152:    5331           54155                           TS       BANKSET                               #  USER'S BBANK TO BANKSET
000153:    5332           37746                           CA       BIT8
000154:    5333           54023                           TS       EDOP                                  #  EXIT INSTRUCTION TO EDOP
000155:    5334           30002                           CA       Q                                     #  RETRIEVE ORIGINAL A
000156:    5335           00154                           TC       LOC
000157:
000158:    5336           54154        USPRCADR           TS       LOC                                   #  SAVE A
000159:    5337           37746                           CA       BIT8
000160:    5340           54023                           TS       EDOP                                  #  EXIT INSTRUCTION TO EDOP
000161:    5341           30006                           CA       BBANK
000162:    5342           54155                           TS       BANKSET                               #  USER'S BBANK TO BANKSET
000163:    5343           50002                           INDEX    Q
000164:    5344           30000                           CA       0
000165:    5345           54004                           TS       FBANK                                 #  INTERPRETIVE BANK TO FBANK
000166:    5346           75356                           MASK     LOW10                                 #  YIELDS INTERPRETIVE RELATIVE ADDRESS
000167:    5347           56002                           XCH      Q                                     #  INTERPRETIVE ADDRESS TO Q, FETCHING L+1
000168:    5350           56154                           XCH      LOC                                   #  L+1 TO LOC, RETRIEVING ORIGINAL A
000169:    5351           15251                           TCF      Q+10000
000170:


000172:                                                                                                  #  THERE ARE FOUR POSSIBLE SETTINGS FOR CHANNEL 07. (CHANNEL 07 CONTAINS THE SUPERBANK SETTING.)
000173:                                                                                                  #                                            PSEUDO-FIXED     OCTAL PSEUDO
000174:                                                                                                  #  SUPERBANK     SETTING     S-REG. VALUE    BANK NUMBERS     ADDRESSES
000175:                                                                                                  #  ---------     -------     ------------     ------------     ------------
000176:
000177:                                                                                                  #  SUPERBANK 3     0XX       2000 - 3777        30 - 37       70000 - 107777   (WHERE XX CAN BE ANYTHING AND
000178:                                                                                                  #                                                                              WILL USUALLY BE SEEN AS 11)
000179:                                                                                                  #  SUPERBANK 4     100       2000 - 3777        40 - 47       110000 - 127777  (AS FAR AS IT CAN BE SEEN,
000180:                                                                                                  #                                                                              ONLY BANKS 40-43 WILL EVER BE
000181:                                                                                                  #                                                                              AND ARE PRESENTLY AVAILABLE)
000182:                                                                                                  #  SUPERBANK 5     101       2000 - 3777        50 - 57       130000 - 147777  (PRESENTLY NOT AVAILABLE TO
000183:                                                                                                  #                                                                              THE USER)
000184:                                                                                                  #  SUPERBANK 6     110       2000 - 3777        60 - 67       150000 - 167777  (PRESENTLY NOT AVAILABLE TO
000185:                                                                                                  #                                                                              THE USER)
000186:                                                                                                  #  ***  THIS ROUTINE MAYBE CALLED BY ANY PROGRAM LOCATED IN BANKS 00 - 27.  I.E., NO PROGRAM LIVING IN ANY
000187:                                                                                                  #  SUPERBANK SHOULD USE SUPERSW. ***
000188:
000189:                                                                                                  #  SUPERSW MAY BE CALLED IN THIS FASHION:
000190:
000191:                                                                                                  #           CAF     ABBCON          WHERE  --  ABBCON   BBCON  SOMETHIN  --
000192:                                                                                                  #           TCR     SUPERSW         (THE SUPERBNK BITS ARE IN THE BBCON)
000193:                                                                                                  #           ...       ...
000194:                                                                                                  #            .         .
000195:                                                                                                  #            .         .
000196:
000197:                                                                                                  #  OR IN THIS FASHION:
000198:
000199:                                                                                                  #           CAF     SUPERSET        WHERE SUPERSET IS ONE OF THE FOUR AVAILABLE
000200:                                                                                                  #           TCR     SUPERSW         SUPERBANK BIT CONSTANTS:
000201:                                                                                                  #           ...       ...                                   SUPER011 OCTAL  60
000202:                                                                                                  #            .         .                                    SUPER100 OCTAL 100
000203:                                                                                                  #            .         .                                    SUPER101 OCTAL 120
000204:                                                                                                  #                                                           SUPER110 OCTAL 140
000205:
000206:    5352           00006        SUPERSW            EXTEND
000207:    5353           01007                           WRITE    SUPERBNK                              #  WRITE BITS 7-6-5 OF THE ACCUMULATOR INTO
000208:                                                                                                  #  CHANNEL 07
000209:    5354           00002                           TC       Q                                     #  TC TO INSTRUCTION FOLLOWING
000210:                                                                                                  #    TC  SUPERSW

End of include-file INTER-BANK_COMMUNICATION.agc.  Parent file is MAIN.agc


